{
	"contracts/CCK/CC2/ces.sol": {
		"CurrencyExchange": {
			"abi": [
				{
					"inputs": [
						{
							"internalType": "address",
							"name": "_supportedToken",
							"type": "address"
						}
					],
					"stateMutability": "nonpayable",
					"type": "constructor"
				},
				{
					"anonymous": false,
					"inputs": [
						{
							"indexed": true,
							"internalType": "address",
							"name": "owner",
							"type": "address"
						},
						{
							"indexed": true,
							"internalType": "address",
							"name": "spender",
							"type": "address"
						},
						{
							"indexed": false,
							"internalType": "uint256",
							"name": "value",
							"type": "uint256"
						}
					],
					"name": "Approval",
					"type": "event"
				},
				{
					"anonymous": false,
					"inputs": [
						{
							"indexed": true,
							"internalType": "address",
							"name": "user",
							"type": "address"
						},
						{
							"indexed": false,
							"internalType": "address",
							"name": "token",
							"type": "address"
						},
						{
							"indexed": false,
							"internalType": "uint256",
							"name": "amount",
							"type": "uint256"
						},
						{
							"indexed": false,
							"internalType": "uint256",
							"name": "tokenAmount",
							"type": "uint256"
						},
						{
							"indexed": false,
							"internalType": "uint256",
							"name": "balance",
							"type": "uint256"
						}
					],
					"name": "DepositToken",
					"type": "event"
				},
				{
					"anonymous": false,
					"inputs": [
						{
							"indexed": true,
							"internalType": "address",
							"name": "from",
							"type": "address"
						},
						{
							"indexed": true,
							"internalType": "address",
							"name": "to",
							"type": "address"
						},
						{
							"indexed": false,
							"internalType": "uint256",
							"name": "value",
							"type": "uint256"
						}
					],
					"name": "Transfer",
					"type": "event"
				},
				{
					"anonymous": false,
					"inputs": [
						{
							"indexed": true,
							"internalType": "address",
							"name": "admin",
							"type": "address"
						},
						{
							"indexed": false,
							"internalType": "address",
							"name": "token",
							"type": "address"
						},
						{
							"indexed": false,
							"internalType": "uint256",
							"name": "amount",
							"type": "uint256"
						}
					],
					"name": "WithdrawToken",
					"type": "event"
				},
				{
					"inputs": [],
					"name": "EXCHANGE_RATE",
					"outputs": [
						{
							"internalType": "uint256",
							"name": "",
							"type": "uint256"
						}
					],
					"stateMutability": "view",
					"type": "function"
				},
				{
					"inputs": [],
					"name": "admin",
					"outputs": [
						{
							"internalType": "address",
							"name": "",
							"type": "address"
						}
					],
					"stateMutability": "view",
					"type": "function"
				},
				{
					"inputs": [
						{
							"internalType": "address",
							"name": "",
							"type": "address"
						},
						{
							"internalType": "address",
							"name": "",
							"type": "address"
						}
					],
					"name": "allowance",
					"outputs": [
						{
							"internalType": "uint256",
							"name": "",
							"type": "uint256"
						}
					],
					"stateMutability": "view",
					"type": "function"
				},
				{
					"inputs": [
						{
							"internalType": "address",
							"name": "_spender",
							"type": "address"
						},
						{
							"internalType": "uint256",
							"name": "_value",
							"type": "uint256"
						}
					],
					"name": "approve",
					"outputs": [
						{
							"internalType": "bool",
							"name": "success",
							"type": "bool"
						}
					],
					"stateMutability": "nonpayable",
					"type": "function"
				},
				{
					"inputs": [
						{
							"internalType": "address",
							"name": "",
							"type": "address"
						}
					],
					"name": "balanceOf",
					"outputs": [
						{
							"internalType": "uint256",
							"name": "",
							"type": "uint256"
						}
					],
					"stateMutability": "view",
					"type": "function"
				},
				{
					"inputs": [
						{
							"internalType": "address",
							"name": "_user",
							"type": "address"
						}
					],
					"name": "balanceOfRWT",
					"outputs": [
						{
							"internalType": "uint256",
							"name": "",
							"type": "uint256"
						}
					],
					"stateMutability": "view",
					"type": "function"
				},
				{
					"inputs": [],
					"name": "decimals",
					"outputs": [
						{
							"internalType": "uint256",
							"name": "",
							"type": "uint256"
						}
					],
					"stateMutability": "view",
					"type": "function"
				},
				{
					"inputs": [
						{
							"internalType": "uint256",
							"name": "_amount",
							"type": "uint256"
						}
					],
					"name": "depositToken",
					"outputs": [],
					"stateMutability": "nonpayable",
					"type": "function"
				},
				{
					"inputs": [],
					"name": "name",
					"outputs": [
						{
							"internalType": "string",
							"name": "",
							"type": "string"
						}
					],
					"stateMutability": "view",
					"type": "function"
				},
				{
					"inputs": [
						{
							"internalType": "address",
							"name": "_newToken",
							"type": "address"
						}
					],
					"name": "setSupportedToken",
					"outputs": [],
					"stateMutability": "nonpayable",
					"type": "function"
				},
				{
					"inputs": [],
					"name": "supportedToken",
					"outputs": [
						{
							"internalType": "address",
							"name": "",
							"type": "address"
						}
					],
					"stateMutability": "view",
					"type": "function"
				},
				{
					"inputs": [],
					"name": "symbol",
					"outputs": [
						{
							"internalType": "string",
							"name": "",
							"type": "string"
						}
					],
					"stateMutability": "view",
					"type": "function"
				},
				{
					"inputs": [],
					"name": "totalSupply",
					"outputs": [
						{
							"internalType": "uint256",
							"name": "",
							"type": "uint256"
						}
					],
					"stateMutability": "view",
					"type": "function"
				},
				{
					"inputs": [
						{
							"internalType": "address",
							"name": "_to",
							"type": "address"
						},
						{
							"internalType": "uint256",
							"name": "_value",
							"type": "uint256"
						}
					],
					"name": "transfer",
					"outputs": [
						{
							"internalType": "bool",
							"name": "success",
							"type": "bool"
						}
					],
					"stateMutability": "nonpayable",
					"type": "function"
				},
				{
					"inputs": [
						{
							"internalType": "address",
							"name": "_from",
							"type": "address"
						},
						{
							"internalType": "address",
							"name": "_to",
							"type": "address"
						},
						{
							"internalType": "uint256",
							"name": "_value",
							"type": "uint256"
						}
					],
					"name": "transferFrom",
					"outputs": [
						{
							"internalType": "bool",
							"name": "success",
							"type": "bool"
						}
					],
					"stateMutability": "nonpayable",
					"type": "function"
				},
				{
					"inputs": [
						{
							"internalType": "uint256",
							"name": "_amount",
							"type": "uint256"
						}
					],
					"name": "withdrawToken",
					"outputs": [],
					"stateMutability": "nonpayable",
					"type": "function"
				}
			],
			"devdoc": {
				"kind": "dev",
				"methods": {},
				"version": 1
			},
			"evm": {
				"assembly": "    /* \"contracts/CCK/CC2/ces.sol\":285:4493  contract CurrencyExchange is ReentrancyGuard {... */\n  mstore(0x40, 0x80)\n    /* \"contracts/CCK/CC2/ces.sol\":358:392  string public name = \"RewardToken\" */\n  mload(0x40)\n  dup1\n  0x40\n  add\n  0x40\n  mstore\n  dup1\n  0x0b\n  dup2\n  mstore\n  0x20\n  add\n  0x526577617264546f6b656e000000000000000000000000000000000000000000\n  dup2\n  mstore\n  pop\n  0x01\n  swap1\n  dup2\n  tag_1\n  swap2\n  swap1\n  tag_2\n  jump\t// in\ntag_1:\n  pop\n    /* \"contracts/CCK/CC2/ces.sol\":415:443  string public symbol = \"RWT\" */\n  mload(0x40)\n  dup1\n  0x40\n  add\n  0x40\n  mstore\n  dup1\n  0x03\n  dup2\n  mstore\n  0x20\n  add\n  0x5257540000000000000000000000000000000000000000000000000000000000\n  dup2\n  mstore\n  pop\n  0x02\n  swap1\n  dup2\n  tag_3\n  swap2\n  swap1\n  tag_2\n  jump\t// in\ntag_3:\n  pop\n    /* \"contracts/CCK/CC2/ces.sol\":492:494  18 */\n  0x12\n    /* \"contracts/CCK/CC2/ces.sol\":466:494  uint256 public decimals = 18 */\n  0x03\n  sstore\n    /* \"contracts/CCK/CC2/ces.sol\":1499:1616  constructor(address _supportedToken) {... */\n  callvalue\n  dup1\n  iszero\n  tag_4\n  jumpi\n  revert(0x00, 0x00)\ntag_4:\n  pop\n  mload(0x40)\n  sub(codesize, bytecodeSize)\n  dup1\n  bytecodeSize\n  dup4\n  codecopy\n  dup2\n  dup2\n  add\n  0x40\n  mstore\n  dup2\n  add\n  swap1\n  tag_5\n  swap2\n  swap1\n  tag_6\n  jump\t// in\ntag_5:\n    /* \"@openzeppelin/contracts/security/ReentrancyGuard.sol\":1716:1717  1 */\n  0x01\n    /* \"@openzeppelin/contracts/security/ReentrancyGuard.sol\":1821:1828  _status */\n  0x00\n    /* \"@openzeppelin/contracts/security/ReentrancyGuard.sol\":1821:1843  _status = _NOT_ENTERED */\n  dup2\n  swap1\n  sstore\n  pop\n    /* \"contracts/CCK/CC2/ces.sol\":1555:1565  msg.sender */\n  caller\n    /* \"contracts/CCK/CC2/ces.sol\":1547:1552  admin */\n  0x05\n  0x00\n    /* \"contracts/CCK/CC2/ces.sol\":1547:1565  admin = msg.sender */\n  0x0100\n  exp\n  dup2\n  sload\n  dup2\n  0xffffffffffffffffffffffffffffffffffffffff\n  mul\n  not\n  and\n  swap1\n  dup4\n  0xffffffffffffffffffffffffffffffffffffffff\n  and\n  mul\n  or\n  swap1\n  sstore\n  pop\n    /* \"contracts/CCK/CC2/ces.sol\":1593:1608  _supportedToken */\n  dup1\n    /* \"contracts/CCK/CC2/ces.sol\":1576:1590  supportedToken */\n  0x06\n  0x00\n    /* \"contracts/CCK/CC2/ces.sol\":1576:1608  supportedToken = _supportedToken */\n  0x0100\n  exp\n  dup2\n  sload\n  dup2\n  0xffffffffffffffffffffffffffffffffffffffff\n  mul\n  not\n  and\n  swap1\n  dup4\n  0xffffffffffffffffffffffffffffffffffffffff\n  and\n  mul\n  or\n  swap1\n  sstore\n  pop\n    /* \"contracts/CCK/CC2/ces.sol\":1499:1616  constructor(address _supportedToken) {... */\n  pop\n    /* \"contracts/CCK/CC2/ces.sol\":285:4493  contract CurrencyExchange is ReentrancyGuard {... */\n  jump(tag_11)\n    /* \"#utility.yul\":7:106   */\ntag_12:\n    /* \"#utility.yul\":59:65   */\n  0x00\n    /* \"#utility.yul\":93:98   */\n  dup2\n    /* \"#utility.yul\":87:99   */\n  mload\n    /* \"#utility.yul\":77:99   */\n  swap1\n  pop\n    /* \"#utility.yul\":7:106   */\n  swap2\n  swap1\n  pop\n  jump\t// out\n    /* \"#utility.yul\":112:292   */\ntag_13:\n    /* \"#utility.yul\":160:237   */\n  0x4e487b7100000000000000000000000000000000000000000000000000000000\n    /* \"#utility.yul\":157:158   */\n  0x00\n    /* \"#utility.yul\":150:238   */\n  mstore\n    /* \"#utility.yul\":257:261   */\n  0x41\n    /* \"#utility.yul\":254:255   */\n  0x04\n    /* \"#utility.yul\":247:262   */\n  mstore\n    /* \"#utility.yul\":281:285   */\n  0x24\n    /* \"#utility.yul\":278:279   */\n  0x00\n    /* \"#utility.yul\":271:286   */\n  revert\n    /* \"#utility.yul\":298:478   */\ntag_14:\n    /* \"#utility.yul\":346:423   */\n  0x4e487b7100000000000000000000000000000000000000000000000000000000\n    /* \"#utility.yul\":343:344   */\n  0x00\n    /* \"#utility.yul\":336:424   */\n  mstore\n    /* \"#utility.yul\":443:447   */\n  0x22\n    /* \"#utility.yul\":440:441   */\n  0x04\n    /* \"#utility.yul\":433:448   */\n  mstore\n    /* \"#utility.yul\":467:471   */\n  0x24\n    /* \"#utility.yul\":464:465   */\n  0x00\n    /* \"#utility.yul\":457:472   */\n  revert\n    /* \"#utility.yul\":484:804   */\ntag_15:\n    /* \"#utility.yul\":528:534   */\n  0x00\n    /* \"#utility.yul\":565:566   */\n  0x02\n    /* \"#utility.yul\":559:563   */\n  dup3\n    /* \"#utility.yul\":555:567   */\n  div\n    /* \"#utility.yul\":545:567   */\n  swap1\n  pop\n    /* \"#utility.yul\":612:613   */\n  0x01\n    /* \"#utility.yul\":606:610   */\n  dup3\n    /* \"#utility.yul\":602:614   */\n  and\n    /* \"#utility.yul\":633:651   */\n  dup1\n    /* \"#utility.yul\":623:704   */\n  tag_44\n  jumpi\n    /* \"#utility.yul\":689:693   */\n  0x7f\n    /* \"#utility.yul\":681:687   */\n  dup3\n    /* \"#utility.yul\":677:694   */\n  and\n    /* \"#utility.yul\":667:694   */\n  swap2\n  pop\n    /* \"#utility.yul\":623:704   */\ntag_44:\n    /* \"#utility.yul\":751:753   */\n  0x20\n    /* \"#utility.yul\":743:749   */\n  dup3\n    /* \"#utility.yul\":740:754   */\n  lt\n    /* \"#utility.yul\":720:738   */\n  dup2\n    /* \"#utility.yul\":717:755   */\n  sub\n    /* \"#utility.yul\":714:798   */\n  tag_45\n  jumpi\n    /* \"#utility.yul\":770:788   */\n  tag_46\n  tag_14\n  jump\t// in\ntag_46:\n    /* \"#utility.yul\":714:798   */\ntag_45:\n    /* \"#utility.yul\":535:804   */\n  pop\n    /* \"#utility.yul\":484:804   */\n  swap2\n  swap1\n  pop\n  jump\t// out\n    /* \"#utility.yul\":810:951   */\ntag_16:\n    /* \"#utility.yul\":859:863   */\n  0x00\n    /* \"#utility.yul\":882:885   */\n  dup2\n    /* \"#utility.yul\":874:885   */\n  swap1\n  pop\n    /* \"#utility.yul\":905:908   */\n  dup2\n    /* \"#utility.yul\":902:903   */\n  0x00\n    /* \"#utility.yul\":895:909   */\n  mstore\n    /* \"#utility.yul\":939:943   */\n  0x20\n    /* \"#utility.yul\":936:937   */\n  0x00\n    /* \"#utility.yul\":926:944   */\n  keccak256\n    /* \"#utility.yul\":918:944   */\n  swap1\n  pop\n    /* \"#utility.yul\":810:951   */\n  swap2\n  swap1\n  pop\n  jump\t// out\n    /* \"#utility.yul\":957:1050   */\ntag_17:\n    /* \"#utility.yul\":994:1000   */\n  0x00\n    /* \"#utility.yul\":1041:1043   */\n  0x20\n    /* \"#utility.yul\":1036:1038   */\n  0x1f\n    /* \"#utility.yul\":1029:1034   */\n  dup4\n    /* \"#utility.yul\":1025:1039   */\n  add\n    /* \"#utility.yul\":1021:1044   */\n  div\n    /* \"#utility.yul\":1011:1044   */\n  swap1\n  pop\n    /* \"#utility.yul\":957:1050   */\n  swap2\n  swap1\n  pop\n  jump\t// out\n    /* \"#utility.yul\":1056:1163   */\ntag_18:\n    /* \"#utility.yul\":1100:1108   */\n  0x00\n    /* \"#utility.yul\":1150:1155   */\n  dup3\n    /* \"#utility.yul\":1144:1148   */\n  dup3\n    /* \"#utility.yul\":1140:1156   */\n  shl\n    /* \"#utility.yul\":1119:1156   */\n  swap1\n  pop\n    /* \"#utility.yul\":1056:1163   */\n  swap3\n  swap2\n  pop\n  pop\n  jump\t// out\n    /* \"#utility.yul\":1169:1562   */\ntag_19:\n    /* \"#utility.yul\":1238:1244   */\n  0x00\n    /* \"#utility.yul\":1288:1289   */\n  0x08\n    /* \"#utility.yul\":1276:1286   */\n  dup4\n    /* \"#utility.yul\":1272:1290   */\n  mul\n    /* \"#utility.yul\":1311:1408   */\n  tag_51\n    /* \"#utility.yul\":1341:1407   */\n  0xffffffffffffffffffffffffffffffffffffffffffffffffffffffffffffffff\n    /* \"#utility.yul\":1330:1339   */\n  dup3\n    /* \"#utility.yul\":1311:1408   */\n  tag_18\n  jump\t// in\ntag_51:\n    /* \"#utility.yul\":1429:1468   */\n  tag_52\n    /* \"#utility.yul\":1459:1467   */\n  dup7\n    /* \"#utility.yul\":1448:1457   */\n  dup4\n    /* \"#utility.yul\":1429:1468   */\n  tag_18\n  jump\t// in\ntag_52:\n    /* \"#utility.yul\":1417:1468   */\n  swap6\n  pop\n    /* \"#utility.yul\":1501:1505   */\n  dup1\n    /* \"#utility.yul\":1497:1506   */\n  not\n    /* \"#utility.yul\":1490:1495   */\n  dup5\n    /* \"#utility.yul\":1486:1507   */\n  and\n    /* \"#utility.yul\":1477:1507   */\n  swap4\n  pop\n    /* \"#utility.yul\":1550:1554   */\n  dup1\n    /* \"#utility.yul\":1540:1548   */\n  dup7\n    /* \"#utility.yul\":1536:1555   */\n  and\n    /* \"#utility.yul\":1529:1534   */\n  dup5\n    /* \"#utility.yul\":1526:1556   */\n  or\n    /* \"#utility.yul\":1516:1556   */\n  swap3\n  pop\n    /* \"#utility.yul\":1245:1562   */\n  pop\n  pop\n    /* \"#utility.yul\":1169:1562   */\n  swap4\n  swap3\n  pop\n  pop\n  pop\n  jump\t// out\n    /* \"#utility.yul\":1568:1645   */\ntag_20:\n    /* \"#utility.yul\":1605:1612   */\n  0x00\n    /* \"#utility.yul\":1634:1639   */\n  dup2\n    /* \"#utility.yul\":1623:1639   */\n  swap1\n  pop\n    /* \"#utility.yul\":1568:1645   */\n  swap2\n  swap1\n  pop\n  jump\t// out\n    /* \"#utility.yul\":1651:1711   */\ntag_21:\n    /* \"#utility.yul\":1679:1682   */\n  0x00\n    /* \"#utility.yul\":1700:1705   */\n  dup2\n    /* \"#utility.yul\":1693:1705   */\n  swap1\n  pop\n    /* \"#utility.yul\":1651:1711   */\n  swap2\n  swap1\n  pop\n  jump\t// out\n    /* \"#utility.yul\":1717:1859   */\ntag_22:\n    /* \"#utility.yul\":1767:1776   */\n  0x00\n    /* \"#utility.yul\":1800:1853   */\n  tag_56\n    /* \"#utility.yul\":1818:1852   */\n  tag_57\n    /* \"#utility.yul\":1827:1851   */\n  tag_58\n    /* \"#utility.yul\":1845:1850   */\n  dup5\n    /* \"#utility.yul\":1827:1851   */\n  tag_20\n  jump\t// in\ntag_58:\n    /* \"#utility.yul\":1818:1852   */\n  tag_21\n  jump\t// in\ntag_57:\n    /* \"#utility.yul\":1800:1853   */\n  tag_20\n  jump\t// in\ntag_56:\n    /* \"#utility.yul\":1787:1853   */\n  swap1\n  pop\n    /* \"#utility.yul\":1717:1859   */\n  swap2\n  swap1\n  pop\n  jump\t// out\n    /* \"#utility.yul\":1865:1940   */\ntag_23:\n    /* \"#utility.yul\":1908:1911   */\n  0x00\n    /* \"#utility.yul\":1929:1934   */\n  dup2\n    /* \"#utility.yul\":1922:1934   */\n  swap1\n  pop\n    /* \"#utility.yul\":1865:1940   */\n  swap2\n  swap1\n  pop\n  jump\t// out\n    /* \"#utility.yul\":1946:2215   */\ntag_24:\n    /* \"#utility.yul\":2056:2095   */\n  tag_61\n    /* \"#utility.yul\":2087:2094   */\n  dup4\n    /* \"#utility.yul\":2056:2095   */\n  tag_22\n  jump\t// in\ntag_61:\n    /* \"#utility.yul\":2117:2208   */\n  tag_62\n    /* \"#utility.yul\":2166:2207   */\n  tag_63\n    /* \"#utility.yul\":2190:2206   */\n  dup3\n    /* \"#utility.yul\":2166:2207   */\n  tag_23\n  jump\t// in\ntag_63:\n    /* \"#utility.yul\":2158:2164   */\n  dup5\n    /* \"#utility.yul\":2151:2155   */\n  dup5\n    /* \"#utility.yul\":2145:2156   */\n  sload\n    /* \"#utility.yul\":2117:2208   */\n  tag_19\n  jump\t// in\ntag_62:\n    /* \"#utility.yul\":2111:2115   */\n  dup3\n    /* \"#utility.yul\":2104:2209   */\n  sstore\n    /* \"#utility.yul\":2022:2215   */\n  pop\n    /* \"#utility.yul\":1946:2215   */\n  pop\n  pop\n  pop\n  jump\t// out\n    /* \"#utility.yul\":2221:2294   */\ntag_25:\n    /* \"#utility.yul\":2266:2269   */\n  0x00\n    /* \"#utility.yul\":2287:2288   */\n  0x00\n    /* \"#utility.yul\":2280:2288   */\n  swap1\n  pop\n    /* \"#utility.yul\":2221:2294   */\n  swap1\n  jump\t// out\n    /* \"#utility.yul\":2300:2489   */\ntag_26:\n    /* \"#utility.yul\":2377:2409   */\n  tag_66\n  tag_25\n  jump\t// in\ntag_66:\n    /* \"#utility.yul\":2418:2483   */\n  tag_67\n    /* \"#utility.yul\":2476:2482   */\n  dup2\n    /* \"#utility.yul\":2468:2474   */\n  dup5\n    /* \"#utility.yul\":2462:2466   */\n  dup5\n    /* \"#utility.yul\":2418:2483   */\n  tag_24\n  jump\t// in\ntag_67:\n    /* \"#utility.yul\":2353:2489   */\n  pop\n    /* \"#utility.yul\":2300:2489   */\n  pop\n  pop\n  jump\t// out\n    /* \"#utility.yul\":2495:2681   */\ntag_27:\n    /* \"#utility.yul\":2555:2675   */\ntag_69:\n    /* \"#utility.yul\":2572:2575   */\n  dup2\n    /* \"#utility.yul\":2565:2570   */\n  dup2\n    /* \"#utility.yul\":2562:2576   */\n  lt\n    /* \"#utility.yul\":2555:2675   */\n  iszero\n  tag_71\n  jumpi\n    /* \"#utility.yul\":2626:2665   */\n  tag_72\n    /* \"#utility.yul\":2663:2664   */\n  0x00\n    /* \"#utility.yul\":2656:2661   */\n  dup3\n    /* \"#utility.yul\":2626:2665   */\n  tag_26\n  jump\t// in\ntag_72:\n    /* \"#utility.yul\":2599:2600   */\n  0x01\n    /* \"#utility.yul\":2592:2597   */\n  dup2\n    /* \"#utility.yul\":2588:2601   */\n  add\n    /* \"#utility.yul\":2579:2601   */\n  swap1\n  pop\n    /* \"#utility.yul\":2555:2675   */\n  jump(tag_69)\ntag_71:\n    /* \"#utility.yul\":2495:2681   */\n  pop\n  pop\n  jump\t// out\n    /* \"#utility.yul\":2687:3230   */\ntag_28:\n    /* \"#utility.yul\":2788:2790   */\n  0x1f\n    /* \"#utility.yul\":2783:2786   */\n  dup3\n    /* \"#utility.yul\":2780:2791   */\n  gt\n    /* \"#utility.yul\":2777:3223   */\n  iszero\n  tag_74\n  jumpi\n    /* \"#utility.yul\":2822:2860   */\n  tag_75\n    /* \"#utility.yul\":2854:2859   */\n  dup2\n    /* \"#utility.yul\":2822:2860   */\n  tag_16\n  jump\t// in\ntag_75:\n    /* \"#utility.yul\":2906:2935   */\n  tag_76\n    /* \"#utility.yul\":2924:2934   */\n  dup5\n    /* \"#utility.yul\":2906:2935   */\n  tag_17\n  jump\t// in\ntag_76:\n    /* \"#utility.yul\":2896:2904   */\n  dup2\n    /* \"#utility.yul\":2892:2936   */\n  add\n    /* \"#utility.yul\":3089:3091   */\n  0x20\n    /* \"#utility.yul\":3077:3087   */\n  dup6\n    /* \"#utility.yul\":3074:3092   */\n  lt\n    /* \"#utility.yul\":3071:3120   */\n  iszero\n  tag_77\n  jumpi\n    /* \"#utility.yul\":3110:3118   */\n  dup2\n    /* \"#utility.yul\":3095:3118   */\n  swap1\n  pop\n    /* \"#utility.yul\":3071:3120   */\ntag_77:\n    /* \"#utility.yul\":3133:3213   */\n  tag_78\n    /* \"#utility.yul\":3189:3211   */\n  tag_79\n    /* \"#utility.yul\":3207:3210   */\n  dup6\n    /* \"#utility.yul\":3189:3211   */\n  tag_17\n  jump\t// in\ntag_79:\n    /* \"#utility.yul\":3179:3187   */\n  dup4\n    /* \"#utility.yul\":3175:3212   */\n  add\n    /* \"#utility.yul\":3162:3173   */\n  dup3\n    /* \"#utility.yul\":3133:3213   */\n  tag_27\n  jump\t// in\ntag_78:\n    /* \"#utility.yul\":2792:3223   */\n  pop\n  pop\n    /* \"#utility.yul\":2777:3223   */\ntag_74:\n    /* \"#utility.yul\":2687:3230   */\n  pop\n  pop\n  pop\n  jump\t// out\n    /* \"#utility.yul\":3236:3353   */\ntag_29:\n    /* \"#utility.yul\":3290:3298   */\n  0x00\n    /* \"#utility.yul\":3340:3345   */\n  dup3\n    /* \"#utility.yul\":3334:3338   */\n  dup3\n    /* \"#utility.yul\":3330:3346   */\n  shr\n    /* \"#utility.yul\":3309:3346   */\n  swap1\n  pop\n    /* \"#utility.yul\":3236:3353   */\n  swap3\n  swap2\n  pop\n  pop\n  jump\t// out\n    /* \"#utility.yul\":3359:3528   */\ntag_30:\n    /* \"#utility.yul\":3403:3409   */\n  0x00\n    /* \"#utility.yul\":3436:3487   */\n  tag_82\n    /* \"#utility.yul\":3484:3485   */\n  0x00\n    /* \"#utility.yul\":3480:3486   */\n  not\n    /* \"#utility.yul\":3472:3477   */\n  dup5\n    /* \"#utility.yul\":3469:3470   */\n  0x08\n    /* \"#utility.yul\":3465:3478   */\n  mul\n    /* \"#utility.yul\":3436:3487   */\n  tag_29\n  jump\t// in\ntag_82:\n    /* \"#utility.yul\":3432:3488   */\n  not\n    /* \"#utility.yul\":3517:3521   */\n  dup1\n    /* \"#utility.yul\":3511:3515   */\n  dup4\n    /* \"#utility.yul\":3507:3522   */\n  and\n    /* \"#utility.yul\":3497:3522   */\n  swap2\n  pop\n    /* \"#utility.yul\":3410:3528   */\n  pop\n    /* \"#utility.yul\":3359:3528   */\n  swap3\n  swap2\n  pop\n  pop\n  jump\t// out\n    /* \"#utility.yul\":3533:3828   */\ntag_31:\n    /* \"#utility.yul\":3609:3613   */\n  0x00\n    /* \"#utility.yul\":3755:3784   */\n  tag_84\n    /* \"#utility.yul\":3780:3783   */\n  dup4\n    /* \"#utility.yul\":3774:3778   */\n  dup4\n    /* \"#utility.yul\":3755:3784   */\n  tag_30\n  jump\t// in\ntag_84:\n    /* \"#utility.yul\":3747:3784   */\n  swap2\n  pop\n    /* \"#utility.yul\":3817:3820   */\n  dup3\n    /* \"#utility.yul\":3814:3815   */\n  0x02\n    /* \"#utility.yul\":3810:3821   */\n  mul\n    /* \"#utility.yul\":3804:3808   */\n  dup3\n    /* \"#utility.yul\":3801:3822   */\n  or\n    /* \"#utility.yul\":3793:3822   */\n  swap1\n  pop\n    /* \"#utility.yul\":3533:3828   */\n  swap3\n  swap2\n  pop\n  pop\n  jump\t// out\n    /* \"#utility.yul\":3833:5228   */\ntag_2:\n    /* \"#utility.yul\":3950:3987   */\n  tag_86\n    /* \"#utility.yul\":3983:3986   */\n  dup3\n    /* \"#utility.yul\":3950:3987   */\n  tag_12\n  jump\t// in\ntag_86:\n    /* \"#utility.yul\":4052:4070   */\n  0xffffffffffffffff\n    /* \"#utility.yul\":4044:4050   */\n  dup2\n    /* \"#utility.yul\":4041:4071   */\n  gt\n    /* \"#utility.yul\":4038:4094   */\n  iszero\n  tag_87\n  jumpi\n    /* \"#utility.yul\":4074:4092   */\n  tag_88\n  tag_13\n  jump\t// in\ntag_88:\n    /* \"#utility.yul\":4038:4094   */\ntag_87:\n    /* \"#utility.yul\":4118:4156   */\n  tag_89\n    /* \"#utility.yul\":4150:4154   */\n  dup3\n    /* \"#utility.yul\":4144:4155   */\n  sload\n    /* \"#utility.yul\":4118:4156   */\n  tag_15\n  jump\t// in\ntag_89:\n    /* \"#utility.yul\":4203:4270   */\n  tag_90\n    /* \"#utility.yul\":4263:4269   */\n  dup3\n    /* \"#utility.yul\":4255:4261   */\n  dup3\n    /* \"#utility.yul\":4249:4253   */\n  dup6\n    /* \"#utility.yul\":4203:4270   */\n  tag_28\n  jump\t// in\ntag_90:\n    /* \"#utility.yul\":4297:4298   */\n  0x00\n    /* \"#utility.yul\":4321:4325   */\n  0x20\n    /* \"#utility.yul\":4308:4325   */\n  swap1\n  pop\n    /* \"#utility.yul\":4353:4355   */\n  0x1f\n    /* \"#utility.yul\":4345:4351   */\n  dup4\n    /* \"#utility.yul\":4342:4356   */\n  gt\n    /* \"#utility.yul\":4370:4371   */\n  0x01\n    /* \"#utility.yul\":4365:4983   */\n  dup2\n  eq\n  tag_92\n  jumpi\n    /* \"#utility.yul\":5027:5028   */\n  0x00\n    /* \"#utility.yul\":5044:5050   */\n  dup5\n    /* \"#utility.yul\":5041:5118   */\n  iszero\n  tag_93\n  jumpi\n    /* \"#utility.yul\":5093:5102   */\n  dup3\n    /* \"#utility.yul\":5088:5091   */\n  dup8\n    /* \"#utility.yul\":5084:5103   */\n  add\n    /* \"#utility.yul\":5078:5104   */\n  mload\n    /* \"#utility.yul\":5069:5104   */\n  swap1\n  pop\n    /* \"#utility.yul\":5041:5118   */\ntag_93:\n    /* \"#utility.yul\":5144:5211   */\n  tag_94\n    /* \"#utility.yul\":5204:5210   */\n  dup6\n    /* \"#utility.yul\":5197:5202   */\n  dup3\n    /* \"#utility.yul\":5144:5211   */\n  tag_31\n  jump\t// in\ntag_94:\n    /* \"#utility.yul\":5138:5142   */\n  dup7\n    /* \"#utility.yul\":5131:5212   */\n  sstore\n    /* \"#utility.yul\":5000:5222   */\n  pop\n    /* \"#utility.yul\":4335:5222   */\n  jump(tag_91)\n    /* \"#utility.yul\":4365:4983   */\ntag_92:\n    /* \"#utility.yul\":4417:4421   */\n  0x1f\n    /* \"#utility.yul\":4413:4422   */\n  not\n    /* \"#utility.yul\":4405:4411   */\n  dup5\n    /* \"#utility.yul\":4401:4423   */\n  and\n    /* \"#utility.yul\":4451:4488   */\n  tag_95\n    /* \"#utility.yul\":4483:4487   */\n  dup7\n    /* \"#utility.yul\":4451:4488   */\n  tag_16\n  jump\t// in\ntag_95:\n    /* \"#utility.yul\":4510:4511   */\n  0x00\n    /* \"#utility.yul\":4524:4732   */\ntag_96:\n    /* \"#utility.yul\":4538:4545   */\n  dup3\n    /* \"#utility.yul\":4535:4536   */\n  dup2\n    /* \"#utility.yul\":4532:4546   */\n  lt\n    /* \"#utility.yul\":4524:4732   */\n  iszero\n  tag_98\n  jumpi\n    /* \"#utility.yul\":4617:4626   */\n  dup5\n    /* \"#utility.yul\":4612:4615   */\n  dup10\n    /* \"#utility.yul\":4608:4627   */\n  add\n    /* \"#utility.yul\":4602:4628   */\n  mload\n    /* \"#utility.yul\":4594:4600   */\n  dup3\n    /* \"#utility.yul\":4587:4629   */\n  sstore\n    /* \"#utility.yul\":4668:4669   */\n  0x01\n    /* \"#utility.yul\":4660:4666   */\n  dup3\n    /* \"#utility.yul\":4656:4670   */\n  add\n    /* \"#utility.yul\":4646:4670   */\n  swap2\n  pop\n    /* \"#utility.yul\":4715:4717   */\n  0x20\n    /* \"#utility.yul\":4704:4713   */\n  dup6\n    /* \"#utility.yul\":4700:4718   */\n  add\n    /* \"#utility.yul\":4687:4718   */\n  swap5\n  pop\n    /* \"#utility.yul\":4561:4565   */\n  0x20\n    /* \"#utility.yul\":4558:4559   */\n  dup2\n    /* \"#utility.yul\":4554:4566   */\n  add\n    /* \"#utility.yul\":4549:4566   */\n  swap1\n  pop\n    /* \"#utility.yul\":4524:4732   */\n  jump(tag_96)\ntag_98:\n    /* \"#utility.yul\":4760:4766   */\n  dup7\n    /* \"#utility.yul\":4751:4758   */\n  dup4\n    /* \"#utility.yul\":4748:4767   */\n  lt\n    /* \"#utility.yul\":4745:4924   */\n  iszero\n  tag_99\n  jumpi\n    /* \"#utility.yul\":4818:4827   */\n  dup5\n    /* \"#utility.yul\":4813:4816   */\n  dup10\n    /* \"#utility.yul\":4809:4828   */\n  add\n    /* \"#utility.yul\":4803:4829   */\n  mload\n    /* \"#utility.yul\":4861:4909   */\n  tag_100\n    /* \"#utility.yul\":4903:4907   */\n  0x1f\n    /* \"#utility.yul\":4895:4901   */\n  dup10\n    /* \"#utility.yul\":4891:4908   */\n  and\n    /* \"#utility.yul\":4880:4889   */\n  dup3\n    /* \"#utility.yul\":4861:4909   */\n  tag_30\n  jump\t// in\ntag_100:\n    /* \"#utility.yul\":4853:4859   */\n  dup4\n    /* \"#utility.yul\":4846:4910   */\n  sstore\n    /* \"#utility.yul\":4768:4924   */\n  pop\n    /* \"#utility.yul\":4745:4924   */\ntag_99:\n    /* \"#utility.yul\":4970:4971   */\n  0x01\n    /* \"#utility.yul\":4966:4967   */\n  0x02\n    /* \"#utility.yul\":4958:4964   */\n  dup9\n    /* \"#utility.yul\":4954:4968   */\n  mul\n    /* \"#utility.yul\":4950:4972   */\n  add\n    /* \"#utility.yul\":4944:4948   */\n  dup9\n    /* \"#utility.yul\":4937:4973   */\n  sstore\n    /* \"#utility.yul\":4372:4983   */\n  pop\n  pop\n  pop\n    /* \"#utility.yul\":4335:5222   */\ntag_91:\n  pop\n    /* \"#utility.yul\":3925:5228   */\n  pop\n  pop\n  pop\n    /* \"#utility.yul\":3833:5228   */\n  pop\n  pop\n  jump\t// out\n    /* \"#utility.yul\":5315:5432   */\ntag_33:\n    /* \"#utility.yul\":5424:5425   */\n  0x00\n    /* \"#utility.yul\":5421:5422   */\n  0x00\n    /* \"#utility.yul\":5414:5426   */\n  revert\n    /* \"#utility.yul\":5561:5687   */\ntag_35:\n    /* \"#utility.yul\":5598:5605   */\n  0x00\n    /* \"#utility.yul\":5638:5680   */\n  0xffffffffffffffffffffffffffffffffffffffff\n    /* \"#utility.yul\":5631:5636   */\n  dup3\n    /* \"#utility.yul\":5627:5681   */\n  and\n    /* \"#utility.yul\":5616:5681   */\n  swap1\n  pop\n    /* \"#utility.yul\":5561:5687   */\n  swap2\n  swap1\n  pop\n  jump\t// out\n    /* \"#utility.yul\":5693:5789   */\ntag_36:\n    /* \"#utility.yul\":5730:5737   */\n  0x00\n    /* \"#utility.yul\":5759:5783   */\n  tag_106\n    /* \"#utility.yul\":5777:5782   */\n  dup3\n    /* \"#utility.yul\":5759:5783   */\n  tag_35\n  jump\t// in\ntag_106:\n    /* \"#utility.yul\":5748:5783   */\n  swap1\n  pop\n    /* \"#utility.yul\":5693:5789   */\n  swap2\n  swap1\n  pop\n  jump\t// out\n    /* \"#utility.yul\":5795:5917   */\ntag_37:\n    /* \"#utility.yul\":5868:5892   */\n  tag_108\n    /* \"#utility.yul\":5886:5891   */\n  dup2\n    /* \"#utility.yul\":5868:5892   */\n  tag_36\n  jump\t// in\ntag_108:\n    /* \"#utility.yul\":5861:5866   */\n  dup2\n    /* \"#utility.yul\":5858:5893   */\n  eq\n    /* \"#utility.yul\":5848:5911   */\n  tag_109\n  jumpi\n    /* \"#utility.yul\":5907:5908   */\n  0x00\n    /* \"#utility.yul\":5904:5905   */\n  0x00\n    /* \"#utility.yul\":5897:5909   */\n  revert\n    /* \"#utility.yul\":5848:5911   */\ntag_109:\n    /* \"#utility.yul\":5795:5917   */\n  pop\n  jump\t// out\n    /* \"#utility.yul\":5923:6066   */\ntag_38:\n    /* \"#utility.yul\":5980:5985   */\n  0x00\n    /* \"#utility.yul\":6011:6017   */\n  dup2\n    /* \"#utility.yul\":6005:6018   */\n  mload\n    /* \"#utility.yul\":5996:6018   */\n  swap1\n  pop\n    /* \"#utility.yul\":6027:6060   */\n  tag_111\n    /* \"#utility.yul\":6054:6059   */\n  dup2\n    /* \"#utility.yul\":6027:6060   */\n  tag_37\n  jump\t// in\ntag_111:\n    /* \"#utility.yul\":5923:6066   */\n  swap3\n  swap2\n  pop\n  pop\n  jump\t// out\n    /* \"#utility.yul\":6072:6423   */\ntag_6:\n    /* \"#utility.yul\":6142:6148   */\n  0x00\n    /* \"#utility.yul\":6191:6193   */\n  0x20\n    /* \"#utility.yul\":6179:6188   */\n  dup3\n    /* \"#utility.yul\":6170:6177   */\n  dup5\n    /* \"#utility.yul\":6166:6189   */\n  sub\n    /* \"#utility.yul\":6162:6194   */\n  slt\n    /* \"#utility.yul\":6159:6278   */\n  iszero\n  tag_113\n  jumpi\n    /* \"#utility.yul\":6197:6276   */\n  tag_114\n  tag_33\n  jump\t// in\ntag_114:\n    /* \"#utility.yul\":6159:6278   */\ntag_113:\n    /* \"#utility.yul\":6317:6318   */\n  0x00\n    /* \"#utility.yul\":6342:6406   */\n  tag_115\n    /* \"#utility.yul\":6398:6405   */\n  dup5\n    /* \"#utility.yul\":6389:6395   */\n  dup3\n    /* \"#utility.yul\":6378:6387   */\n  dup6\n    /* \"#utility.yul\":6374:6396   */\n  add\n    /* \"#utility.yul\":6342:6406   */\n  tag_38\n  jump\t// in\ntag_115:\n    /* \"#utility.yul\":6332:6406   */\n  swap2\n  pop\n    /* \"#utility.yul\":6288:6416   */\n  pop\n    /* \"#utility.yul\":6072:6423   */\n  swap3\n  swap2\n  pop\n  pop\n  jump\t// out\n    /* \"contracts/CCK/CC2/ces.sol\":285:4493  contract CurrencyExchange is ReentrancyGuard {... */\ntag_11:\n  dataSize(sub_0)\n  dup1\n  dataOffset(sub_0)\n  0x00\n  codecopy\n  0x00\n  return\nstop\n\nsub_0: assembly {\n        /* \"contracts/CCK/CC2/ces.sol\":285:4493  contract CurrencyExchange is ReentrancyGuard {... */\n      mstore(0x40, 0x80)\n      callvalue\n      dup1\n      iszero\n      tag_1\n      jumpi\n      revert(0x00, 0x00)\n    tag_1:\n      pop\n      jumpi(tag_2, lt(calldatasize, 0x04))\n      shr(0xe0, calldataload(0x00))\n      dup1\n      0x6215be77\n      gt\n      tag_19\n      jumpi\n      dup1\n      0xa9059cbb\n      gt\n      tag_20\n      jumpi\n      dup1\n      0xa9059cbb\n      eq\n      tag_15\n      jumpi\n      dup1\n      0xbc2f2dcf\n      eq\n      tag_16\n      jumpi\n      dup1\n      0xdd62ed3e\n      eq\n      tag_17\n      jumpi\n      dup1\n      0xf851a440\n      eq\n      tag_18\n      jumpi\n      jump(tag_2)\n    tag_20:\n      dup1\n      0x6215be77\n      eq\n      tag_11\n      jumpi\n      dup1\n      0x70a08231\n      eq\n      tag_12\n      jumpi\n      dup1\n      0x94cbc027\n      eq\n      tag_13\n      jumpi\n      dup1\n      0x95d89b41\n      eq\n      tag_14\n      jumpi\n      jump(tag_2)\n    tag_19:\n      dup1\n      0x18160ddd\n      gt\n      tag_21\n      jumpi\n      dup1\n      0x18160ddd\n      eq\n      tag_7\n      jumpi\n      dup1\n      0x23b872dd\n      eq\n      tag_8\n      jumpi\n      dup1\n      0x313ce567\n      eq\n      tag_9\n      jumpi\n      dup1\n      0x50baa622\n      eq\n      tag_10\n      jumpi\n      jump(tag_2)\n    tag_21:\n      dup1\n      0x06fdde03\n      eq\n      tag_3\n      jumpi\n      dup1\n      0x095ea7b3\n      eq\n      tag_4\n      jumpi\n      dup1\n      0x0ee0599c\n      eq\n      tag_5\n      jumpi\n      dup1\n      0x14a8bd0d\n      eq\n      tag_6\n      jumpi\n    tag_2:\n      revert(0x00, 0x00)\n        /* \"contracts/CCK/CC2/ces.sol\":358:392  string public name = \"RewardToken\" */\n    tag_3:\n      tag_22\n      tag_23\n      jump\t// in\n    tag_22:\n      mload(0x40)\n      tag_24\n      swap2\n      swap1\n      tag_25\n      jump\t// in\n    tag_24:\n      mload(0x40)\n      dup1\n      swap2\n      sub\n      swap1\n      return\n        /* \"contracts/CCK/CC2/ces.sol\":2915:3180  function approve(address _spender, uint256 _value) public returns (bool success) {... */\n    tag_4:\n      tag_26\n      0x04\n      dup1\n      calldatasize\n      sub\n      dup2\n      add\n      swap1\n      tag_27\n      swap2\n      swap1\n      tag_28\n      jump\t// in\n    tag_27:\n      tag_29\n      jump\t// in\n    tag_26:\n      mload(0x40)\n      tag_30\n      swap2\n      swap1\n      tag_31\n      jump\t// in\n    tag_30:\n      mload(0x40)\n      dup1\n      swap2\n      sub\n      swap1\n      return\n        /* \"contracts/CCK/CC2/ces.sol\":635:664  address public supportedToken */\n    tag_5:\n      tag_32\n      tag_33\n      jump\t// in\n    tag_32:\n      mload(0x40)\n      tag_34\n      swap2\n      swap1\n      tag_35\n      jump\t// in\n    tag_34:\n      mload(0x40)\n      dup1\n      swap2\n      sub\n      swap1\n      return\n        /* \"contracts/CCK/CC2/ces.sol\":703:745  uint256 public constant EXCHANGE_RATE = 20 */\n    tag_6:\n      tag_36\n      tag_37\n      jump\t// in\n    tag_36:\n      mload(0x40)\n      tag_38\n      swap2\n      swap1\n      tag_39\n      jump\t// in\n    tag_38:\n      mload(0x40)\n      dup1\n      swap2\n      sub\n      swap1\n      return\n        /* \"contracts/CCK/CC2/ces.sol\":517:543  uint256 public totalSupply */\n    tag_7:\n      tag_40\n      tag_41\n      jump\t// in\n    tag_40:\n      mload(0x40)\n      tag_42\n      swap2\n      swap1\n      tag_39\n      jump\t// in\n    tag_42:\n      mload(0x40)\n      dup1\n      swap2\n      sub\n      swap1\n      return\n        /* \"contracts/CCK/CC2/ces.sol\":3255:3706  function transferFrom(address _from, address _to, uint256 _value) public returns (bool success) {... */\n    tag_8:\n      tag_43\n      0x04\n      dup1\n      calldatasize\n      sub\n      dup2\n      add\n      swap1\n      tag_44\n      swap2\n      swap1\n      tag_45\n      jump\t// in\n    tag_44:\n      tag_46\n      jump\t// in\n    tag_43:\n      mload(0x40)\n      tag_47\n      swap2\n      swap1\n      tag_31\n      jump\t// in\n    tag_47:\n      mload(0x40)\n      dup1\n      swap2\n      sub\n      swap1\n      return\n        /* \"contracts/CCK/CC2/ces.sol\":466:494  uint256 public decimals = 18 */\n    tag_9:\n      tag_48\n      tag_49\n      jump\t// in\n    tag_48:\n      mload(0x40)\n      tag_50\n      swap2\n      swap1\n      tag_39\n      jump\t// in\n    tag_50:\n      mload(0x40)\n      dup1\n      swap2\n      sub\n      swap1\n      return\n        /* \"contracts/CCK/CC2/ces.sol\":3918:4288  function withdrawToken(uint256 _amount) public {... */\n    tag_10:\n      tag_51\n      0x04\n      dup1\n      calldatasize\n      sub\n      dup2\n      add\n      swap1\n      tag_52\n      swap2\n      swap1\n      tag_53\n      jump\t// in\n    tag_52:\n      tag_54\n      jump\t// in\n    tag_51:\n      stop\n        /* \"contracts/CCK/CC2/ces.sol\":1705:2159  function depositToken(uint256 _amount) public nonReentrant {... */\n    tag_11:\n      tag_55\n      0x04\n      dup1\n      calldatasize\n      sub\n      dup2\n      add\n      swap1\n      tag_56\n      swap2\n      swap1\n      tag_53\n      jump\t// in\n    tag_56:\n      tag_57\n      jump\t// in\n    tag_55:\n      stop\n        /* \"contracts/CCK/CC2/ces.sol\":817:861  mapping(address => uint256) public balanceOf */\n    tag_12:\n      tag_58\n      0x04\n      dup1\n      calldatasize\n      sub\n      dup2\n      add\n      swap1\n      tag_59\n      swap2\n      swap1\n      tag_60\n      jump\t// in\n    tag_59:\n      tag_61\n      jump\t// in\n    tag_58:\n      mload(0x40)\n      tag_62\n      swap2\n      swap1\n      tag_39\n      jump\t// in\n    tag_62:\n      mload(0x40)\n      dup1\n      swap2\n      sub\n      swap1\n      return\n        /* \"contracts/CCK/CC2/ces.sol\":3746:3855  function balanceOfRWT(address _user) public view returns (uint256) {... */\n    tag_13:\n      tag_63\n      0x04\n      dup1\n      calldatasize\n      sub\n      dup2\n      add\n      swap1\n      tag_64\n      swap2\n      swap1\n      tag_60\n      jump\t// in\n    tag_64:\n      tag_65\n      jump\t// in\n    tag_63:\n      mload(0x40)\n      tag_66\n      swap2\n      swap1\n      tag_39\n      jump\t// in\n    tag_66:\n      mload(0x40)\n      dup1\n      swap2\n      sub\n      swap1\n      return\n        /* \"contracts/CCK/CC2/ces.sol\":415:443  string public symbol = \"RWT\" */\n    tag_14:\n      tag_67\n      tag_68\n      jump\t// in\n    tag_67:\n      mload(0x40)\n      tag_69\n      swap2\n      swap1\n      tag_25\n      jump\t// in\n    tag_69:\n      mload(0x40)\n      dup1\n      swap2\n      sub\n      swap1\n      return\n        /* \"contracts/CCK/CC2/ces.sol\":2501:2836  function transfer(address _to, uint256 _value) public returns (bool success) {... */\n    tag_15:\n      tag_70\n      0x04\n      dup1\n      calldatasize\n      sub\n      dup2\n      add\n      swap1\n      tag_71\n      swap2\n      swap1\n      tag_28\n      jump\t// in\n    tag_71:\n      tag_72\n      jump\t// in\n    tag_70:\n      mload(0x40)\n      tag_73\n      swap2\n      swap1\n      tag_31\n      jump\t// in\n    tag_73:\n      mload(0x40)\n      dup1\n      swap2\n      sub\n      swap1\n      return\n        /* \"contracts/CCK/CC2/ces.sol\":4348:4490  function setSupportedToken(address _newToken) public {... */\n    tag_16:\n      tag_74\n      0x04\n      dup1\n      calldatasize\n      sub\n      dup2\n      add\n      swap1\n      tag_75\n      swap2\n      swap1\n      tag_60\n      jump\t// in\n    tag_75:\n      tag_76\n      jump\t// in\n    tag_74:\n      stop\n        /* \"contracts/CCK/CC2/ces.sol\":888:952  mapping(address => mapping(address => uint256)) public allowance */\n    tag_17:\n      tag_77\n      0x04\n      dup1\n      calldatasize\n      sub\n      dup2\n      add\n      swap1\n      tag_78\n      swap2\n      swap1\n      tag_79\n      jump\t// in\n    tag_78:\n      tag_80\n      jump\t// in\n    tag_77:\n      mload(0x40)\n      tag_81\n      swap2\n      swap1\n      tag_39\n      jump\t// in\n    tag_81:\n      mload(0x40)\n      dup1\n      swap2\n      sub\n      swap1\n      return\n        /* \"contracts/CCK/CC2/ces.sol\":589:609  address public admin */\n    tag_18:\n      tag_82\n      tag_83\n      jump\t// in\n    tag_82:\n      mload(0x40)\n      tag_84\n      swap2\n      swap1\n      tag_35\n      jump\t// in\n    tag_84:\n      mload(0x40)\n      dup1\n      swap2\n      sub\n      swap1\n      return\n        /* \"contracts/CCK/CC2/ces.sol\":358:392  string public name = \"RewardToken\" */\n    tag_23:\n      0x01\n      dup1\n      sload\n      tag_85\n      swap1\n      tag_86\n      jump\t// in\n    tag_85:\n      dup1\n      0x1f\n      add\n      0x20\n      dup1\n      swap2\n      div\n      mul\n      0x20\n      add\n      mload(0x40)\n      swap1\n      dup2\n      add\n      0x40\n      mstore\n      dup1\n      swap3\n      swap2\n      swap1\n      dup2\n      dup2\n      mstore\n      0x20\n      add\n      dup3\n      dup1\n      sload\n      tag_87\n      swap1\n      tag_86\n      jump\t// in\n    tag_87:\n      dup1\n      iszero\n      tag_88\n      jumpi\n      dup1\n      0x1f\n      lt\n      tag_89\n      jumpi\n      0x0100\n      dup1\n      dup4\n      sload\n      div\n      mul\n      dup4\n      mstore\n      swap2\n      0x20\n      add\n      swap2\n      jump(tag_88)\n    tag_89:\n      dup3\n      add\n      swap2\n      swap1\n      0x00\n      mstore\n      keccak256(0x00, 0x20)\n      swap1\n    tag_90:\n      dup2\n      sload\n      dup2\n      mstore\n      swap1\n      0x01\n      add\n      swap1\n      0x20\n      add\n      dup1\n      dup4\n      gt\n      tag_90\n      jumpi\n      dup3\n      swap1\n      sub\n      0x1f\n      and\n      dup3\n      add\n      swap2\n    tag_88:\n      pop\n      pop\n      pop\n      pop\n      pop\n      dup2\n      jump\t// out\n        /* \"contracts/CCK/CC2/ces.sol\":2915:3180  function approve(address _spender, uint256 _value) public returns (bool success) {... */\n    tag_29:\n        /* \"contracts/CCK/CC2/ces.sol\":2982:2994  bool success */\n      0x00\n        /* \"contracts/CCK/CC2/ces.sol\":3035:3036  0 */\n      0x00\n        /* \"contracts/CCK/CC2/ces.sol\":3015:3037  _spender != address(0) */\n      0xffffffffffffffffffffffffffffffffffffffff\n      and\n        /* \"contracts/CCK/CC2/ces.sol\":3015:3023  _spender */\n      dup4\n        /* \"contracts/CCK/CC2/ces.sol\":3015:3037  _spender != address(0) */\n      0xffffffffffffffffffffffffffffffffffffffff\n      and\n      sub\n        /* \"contracts/CCK/CC2/ces.sol\":3007:3043  require(_spender != address(0), \"1\") */\n      tag_92\n      jumpi\n      mload(0x40)\n      0x08c379a000000000000000000000000000000000000000000000000000000000\n      dup2\n      mstore\n      0x04\n      add\n      tag_93\n      swap1\n      tag_94\n      jump\t// in\n    tag_93:\n      mload(0x40)\n      dup1\n      swap2\n      sub\n      swap1\n      revert\n    tag_92:\n        /* \"contracts/CCK/CC2/ces.sol\":3090:3096  _value */\n      dup2\n        /* \"contracts/CCK/CC2/ces.sol\":3056:3065  allowance */\n      0x08\n        /* \"contracts/CCK/CC2/ces.sol\":3056:3077  allowance[msg.sender] */\n      0x00\n        /* \"contracts/CCK/CC2/ces.sol\":3066:3076  msg.sender */\n      caller\n        /* \"contracts/CCK/CC2/ces.sol\":3056:3077  allowance[msg.sender] */\n      0xffffffffffffffffffffffffffffffffffffffff\n      and\n      0xffffffffffffffffffffffffffffffffffffffff\n      and\n      dup2\n      mstore\n      0x20\n      add\n      swap1\n      dup2\n      mstore\n      0x20\n      add\n      0x00\n      keccak256\n        /* \"contracts/CCK/CC2/ces.sol\":3056:3087  allowance[msg.sender][_spender] */\n      0x00\n        /* \"contracts/CCK/CC2/ces.sol\":3078:3086  _spender */\n      dup6\n        /* \"contracts/CCK/CC2/ces.sol\":3056:3087  allowance[msg.sender][_spender] */\n      0xffffffffffffffffffffffffffffffffffffffff\n      and\n      0xffffffffffffffffffffffffffffffffffffffff\n      and\n      dup2\n      mstore\n      0x20\n      add\n      swap1\n      dup2\n      mstore\n      0x20\n      add\n      0x00\n      keccak256\n        /* \"contracts/CCK/CC2/ces.sol\":3056:3096  allowance[msg.sender][_spender] = _value */\n      dup2\n      swap1\n      sstore\n      pop\n        /* \"contracts/CCK/CC2/ces.sol\":3133:3141  _spender */\n      dup3\n        /* \"contracts/CCK/CC2/ces.sol\":3112:3150  Approval(msg.sender, _spender, _value) */\n      0xffffffffffffffffffffffffffffffffffffffff\n      and\n        /* \"contracts/CCK/CC2/ces.sol\":3121:3131  msg.sender */\n      caller\n        /* \"contracts/CCK/CC2/ces.sol\":3112:3150  Approval(msg.sender, _spender, _value) */\n      0xffffffffffffffffffffffffffffffffffffffff\n      and\n      0x8c5be1e5ebec7d5bd14f71427d1e84f3dd0314c0f7b2291e5b200ac8c7c3b925\n        /* \"contracts/CCK/CC2/ces.sol\":3143:3149  _value */\n      dup5\n        /* \"contracts/CCK/CC2/ces.sol\":3112:3150  Approval(msg.sender, _spender, _value) */\n      mload(0x40)\n      tag_95\n      swap2\n      swap1\n      tag_39\n      jump\t// in\n    tag_95:\n      mload(0x40)\n      dup1\n      swap2\n      sub\n      swap1\n      log3\n        /* \"contracts/CCK/CC2/ces.sol\":3168:3172  true */\n      0x01\n        /* \"contracts/CCK/CC2/ces.sol\":3161:3172  return true */\n      swap1\n      pop\n        /* \"contracts/CCK/CC2/ces.sol\":2915:3180  function approve(address _spender, uint256 _value) public returns (bool success) {... */\n      swap3\n      swap2\n      pop\n      pop\n      jump\t// out\n        /* \"contracts/CCK/CC2/ces.sol\":635:664  address public supportedToken */\n    tag_33:\n      0x06\n      0x00\n      swap1\n      sload\n      swap1\n      0x0100\n      exp\n      swap1\n      div\n      0xffffffffffffffffffffffffffffffffffffffff\n      and\n      dup2\n      jump\t// out\n        /* \"contracts/CCK/CC2/ces.sol\":703:745  uint256 public constant EXCHANGE_RATE = 20 */\n    tag_37:\n        /* \"contracts/CCK/CC2/ces.sol\":743:745  20 */\n      0x14\n        /* \"contracts/CCK/CC2/ces.sol\":703:745  uint256 public constant EXCHANGE_RATE = 20 */\n      dup2\n      jump\t// out\n        /* \"contracts/CCK/CC2/ces.sol\":517:543  uint256 public totalSupply */\n    tag_41:\n      sload(0x04)\n      dup2\n      jump\t// out\n        /* \"contracts/CCK/CC2/ces.sol\":3255:3706  function transferFrom(address _from, address _to, uint256 _value) public returns (bool success) {... */\n    tag_46:\n        /* \"contracts/CCK/CC2/ces.sol\":3337:3349  bool success */\n      0x00\n        /* \"contracts/CCK/CC2/ces.sol\":3385:3386  0 */\n      0x00\n        /* \"contracts/CCK/CC2/ces.sol\":3370:3387  _to != address(0) */\n      0xffffffffffffffffffffffffffffffffffffffff\n      and\n        /* \"contracts/CCK/CC2/ces.sol\":3370:3373  _to */\n      dup4\n        /* \"contracts/CCK/CC2/ces.sol\":3370:3387  _to != address(0) */\n      0xffffffffffffffffffffffffffffffffffffffff\n      and\n      sub\n        /* \"contracts/CCK/CC2/ces.sol\":3362:3393  require(_to != address(0), \"1\") */\n      tag_97\n      jumpi\n      mload(0x40)\n      0x08c379a000000000000000000000000000000000000000000000000000000000\n      dup2\n      mstore\n      0x04\n      add\n      tag_98\n      swap1\n      tag_94\n      jump\t// in\n    tag_98:\n      mload(0x40)\n      dup1\n      swap2\n      sub\n      swap1\n      revert\n    tag_97:\n        /* \"contracts/CCK/CC2/ces.sol\":3422:3431  balanceOf */\n      0x07\n        /* \"contracts/CCK/CC2/ces.sol\":3422:3438  balanceOf[_from] */\n      0x00\n        /* \"contracts/CCK/CC2/ces.sol\":3432:3437  _from */\n      dup6\n        /* \"contracts/CCK/CC2/ces.sol\":3422:3438  balanceOf[_from] */\n      0xffffffffffffffffffffffffffffffffffffffff\n      and\n      0xffffffffffffffffffffffffffffffffffffffff\n      and\n      dup2\n      mstore\n      0x20\n      add\n      swap1\n      dup2\n      mstore\n      0x20\n      add\n      0x00\n      keccak256\n      sload\n        /* \"contracts/CCK/CC2/ces.sol\":3412:3418  _value */\n      dup3\n        /* \"contracts/CCK/CC2/ces.sol\":3412:3438  _value <= balanceOf[_from] */\n      gt\n      iszero\n        /* \"contracts/CCK/CC2/ces.sol\":3404:3444  require(_value <= balanceOf[_from], \"1\") */\n      tag_99\n      jumpi\n      mload(0x40)\n      0x08c379a000000000000000000000000000000000000000000000000000000000\n      dup2\n      mstore\n      0x04\n      add\n      tag_100\n      swap1\n      tag_94\n      jump\t// in\n    tag_100:\n      mload(0x40)\n      dup1\n      swap2\n      sub\n      swap1\n      revert\n    tag_99:\n        /* \"contracts/CCK/CC2/ces.sol\":3473:3482  allowance */\n      0x08\n        /* \"contracts/CCK/CC2/ces.sol\":3473:3489  allowance[_from] */\n      0x00\n        /* \"contracts/CCK/CC2/ces.sol\":3483:3488  _from */\n      dup6\n        /* \"contracts/CCK/CC2/ces.sol\":3473:3489  allowance[_from] */\n      0xffffffffffffffffffffffffffffffffffffffff\n      and\n      0xffffffffffffffffffffffffffffffffffffffff\n      and\n      dup2\n      mstore\n      0x20\n      add\n      swap1\n      dup2\n      mstore\n      0x20\n      add\n      0x00\n      keccak256\n        /* \"contracts/CCK/CC2/ces.sol\":3473:3501  allowance[_from][msg.sender] */\n      0x00\n        /* \"contracts/CCK/CC2/ces.sol\":3490:3500  msg.sender */\n      caller\n        /* \"contracts/CCK/CC2/ces.sol\":3473:3501  allowance[_from][msg.sender] */\n      0xffffffffffffffffffffffffffffffffffffffff\n      and\n      0xffffffffffffffffffffffffffffffffffffffff\n      and\n      dup2\n      mstore\n      0x20\n      add\n      swap1\n      dup2\n      mstore\n      0x20\n      add\n      0x00\n      keccak256\n      sload\n        /* \"contracts/CCK/CC2/ces.sol\":3463:3469  _value */\n      dup3\n        /* \"contracts/CCK/CC2/ces.sol\":3463:3501  _value <= allowance[_from][msg.sender] */\n      gt\n      iszero\n        /* \"contracts/CCK/CC2/ces.sol\":3455:3507  require(_value <= allowance[_from][msg.sender], \"1\") */\n      tag_101\n      jumpi\n      mload(0x40)\n      0x08c379a000000000000000000000000000000000000000000000000000000000\n      dup2\n      mstore\n      0x04\n      add\n      tag_102\n      swap1\n      tag_94\n      jump\t// in\n    tag_102:\n      mload(0x40)\n      dup1\n      swap2\n      sub\n      swap1\n      revert\n    tag_101:\n        /* \"contracts/CCK/CC2/ces.sol\":3540:3546  _value */\n      dup2\n        /* \"contracts/CCK/CC2/ces.sol\":3520:3529  balanceOf */\n      0x07\n        /* \"contracts/CCK/CC2/ces.sol\":3520:3536  balanceOf[_from] */\n      0x00\n        /* \"contracts/CCK/CC2/ces.sol\":3530:3535  _from */\n      dup7\n        /* \"contracts/CCK/CC2/ces.sol\":3520:3536  balanceOf[_from] */\n      0xffffffffffffffffffffffffffffffffffffffff\n      and\n      0xffffffffffffffffffffffffffffffffffffffff\n      and\n      dup2\n      mstore\n      0x20\n      add\n      swap1\n      dup2\n      mstore\n      0x20\n      add\n      0x00\n      keccak256\n      0x00\n        /* \"contracts/CCK/CC2/ces.sol\":3520:3546  balanceOf[_from] -= _value */\n      dup3\n      dup3\n      sload\n      tag_103\n      swap2\n      swap1\n      tag_104\n      jump\t// in\n    tag_103:\n      swap3\n      pop\n      pop\n      dup2\n      swap1\n      sstore\n      pop\n        /* \"contracts/CCK/CC2/ces.sol\":3575:3581  _value */\n      dup2\n        /* \"contracts/CCK/CC2/ces.sol\":3557:3566  balanceOf */\n      0x07\n        /* \"contracts/CCK/CC2/ces.sol\":3557:3571  balanceOf[_to] */\n      0x00\n        /* \"contracts/CCK/CC2/ces.sol\":3567:3570  _to */\n      dup6\n        /* \"contracts/CCK/CC2/ces.sol\":3557:3571  balanceOf[_to] */\n      0xffffffffffffffffffffffffffffffffffffffff\n      and\n      0xffffffffffffffffffffffffffffffffffffffff\n      and\n      dup2\n      mstore\n      0x20\n      add\n      swap1\n      dup2\n      mstore\n      0x20\n      add\n      0x00\n      keccak256\n      0x00\n        /* \"contracts/CCK/CC2/ces.sol\":3557:3581  balanceOf[_to] += _value */\n      dup3\n      dup3\n      sload\n      tag_105\n      swap2\n      swap1\n      tag_106\n      jump\t// in\n    tag_105:\n      swap3\n      pop\n      pop\n      dup2\n      swap1\n      sstore\n      pop\n        /* \"contracts/CCK/CC2/ces.sol\":3624:3630  _value */\n      dup2\n        /* \"contracts/CCK/CC2/ces.sol\":3592:3601  allowance */\n      0x08\n        /* \"contracts/CCK/CC2/ces.sol\":3592:3608  allowance[_from] */\n      0x00\n        /* \"contracts/CCK/CC2/ces.sol\":3602:3607  _from */\n      dup7\n        /* \"contracts/CCK/CC2/ces.sol\":3592:3608  allowance[_from] */\n      0xffffffffffffffffffffffffffffffffffffffff\n      and\n      0xffffffffffffffffffffffffffffffffffffffff\n      and\n      dup2\n      mstore\n      0x20\n      add\n      swap1\n      dup2\n      mstore\n      0x20\n      add\n      0x00\n      keccak256\n        /* \"contracts/CCK/CC2/ces.sol\":3592:3620  allowance[_from][msg.sender] */\n      0x00\n        /* \"contracts/CCK/CC2/ces.sol\":3609:3619  msg.sender */\n      caller\n        /* \"contracts/CCK/CC2/ces.sol\":3592:3620  allowance[_from][msg.sender] */\n      0xffffffffffffffffffffffffffffffffffffffff\n      and\n      0xffffffffffffffffffffffffffffffffffffffff\n      and\n      dup2\n      mstore\n      0x20\n      add\n      swap1\n      dup2\n      mstore\n      0x20\n      add\n      0x00\n      keccak256\n      0x00\n        /* \"contracts/CCK/CC2/ces.sol\":3592:3630  allowance[_from][msg.sender] -= _value */\n      dup3\n      dup3\n      sload\n      tag_107\n      swap2\n      swap1\n      tag_104\n      jump\t// in\n    tag_107:\n      swap3\n      pop\n      pop\n      dup2\n      swap1\n      sstore\n      pop\n        /* \"contracts/CCK/CC2/ces.sol\":3664:3667  _to */\n      dup3\n        /* \"contracts/CCK/CC2/ces.sol\":3648:3676  Transfer(_from, _to, _value) */\n      0xffffffffffffffffffffffffffffffffffffffff\n      and\n        /* \"contracts/CCK/CC2/ces.sol\":3657:3662  _from */\n      dup5\n        /* \"contracts/CCK/CC2/ces.sol\":3648:3676  Transfer(_from, _to, _value) */\n      0xffffffffffffffffffffffffffffffffffffffff\n      and\n      0xddf252ad1be2c89b69c2b068fc378daa952ba7f163c4a11628f55a4df523b3ef\n        /* \"contracts/CCK/CC2/ces.sol\":3669:3675  _value */\n      dup5\n        /* \"contracts/CCK/CC2/ces.sol\":3648:3676  Transfer(_from, _to, _value) */\n      mload(0x40)\n      tag_108\n      swap2\n      swap1\n      tag_39\n      jump\t// in\n    tag_108:\n      mload(0x40)\n      dup1\n      swap2\n      sub\n      swap1\n      log3\n        /* \"contracts/CCK/CC2/ces.sol\":3694:3698  true */\n      0x01\n        /* \"contracts/CCK/CC2/ces.sol\":3687:3698  return true */\n      swap1\n      pop\n        /* \"contracts/CCK/CC2/ces.sol\":3255:3706  function transferFrom(address _from, address _to, uint256 _value) public returns (bool success) {... */\n      swap4\n      swap3\n      pop\n      pop\n      pop\n      jump\t// out\n        /* \"contracts/CCK/CC2/ces.sol\":466:494  uint256 public decimals = 18 */\n    tag_49:\n      sload(0x03)\n      dup2\n      jump\t// out\n        /* \"contracts/CCK/CC2/ces.sol\":3918:4288  function withdrawToken(uint256 _amount) public {... */\n    tag_54:\n        /* \"contracts/CCK/CC2/ces.sol\":3998:4003  admin */\n      0x05\n      0x00\n      swap1\n      sload\n      swap1\n      0x0100\n      exp\n      swap1\n      div\n      0xffffffffffffffffffffffffffffffffffffffff\n      and\n        /* \"contracts/CCK/CC2/ces.sol\":3984:4003  msg.sender == admin */\n      0xffffffffffffffffffffffffffffffffffffffff\n      and\n        /* \"contracts/CCK/CC2/ces.sol\":3984:3994  msg.sender */\n      caller\n        /* \"contracts/CCK/CC2/ces.sol\":3984:4003  msg.sender == admin */\n      0xffffffffffffffffffffffffffffffffffffffff\n      and\n      eq\n        /* \"contracts/CCK/CC2/ces.sol\":3976:4009  require(msg.sender == admin, \"1\") */\n      tag_110\n      jumpi\n      mload(0x40)\n      0x08c379a000000000000000000000000000000000000000000000000000000000\n      dup2\n      mstore\n      0x04\n      add\n      tag_111\n      swap1\n      tag_94\n      jump\t// in\n    tag_111:\n      mload(0x40)\n      dup1\n      swap2\n      sub\n      swap1\n      revert\n    tag_110:\n        /* \"contracts/CCK/CC2/ces.sol\":4054:4055  0 */\n      0x00\n        /* \"contracts/CCK/CC2/ces.sol\":4028:4056  supportedToken != address(0) */\n      0xffffffffffffffffffffffffffffffffffffffff\n      and\n        /* \"contracts/CCK/CC2/ces.sol\":4028:4042  supportedToken */\n      0x06\n      0x00\n      swap1\n      sload\n      swap1\n      0x0100\n      exp\n      swap1\n      div\n      0xffffffffffffffffffffffffffffffffffffffff\n      and\n        /* \"contracts/CCK/CC2/ces.sol\":4028:4056  supportedToken != address(0) */\n      0xffffffffffffffffffffffffffffffffffffffff\n      and\n      sub\n        /* \"contracts/CCK/CC2/ces.sol\":4020:4062  require(supportedToken != address(0), \"1\") */\n      tag_112\n      jumpi\n      mload(0x40)\n      0x08c379a000000000000000000000000000000000000000000000000000000000\n      dup2\n      mstore\n      0x04\n      add\n      tag_113\n      swap1\n      tag_94\n      jump\t// in\n    tag_113:\n      mload(0x40)\n      dup1\n      swap2\n      sub\n      swap1\n      revert\n    tag_112:\n        /* \"contracts/CCK/CC2/ces.sol\":4099:4113  supportedToken */\n      0x06\n      0x00\n      swap1\n      sload\n      swap1\n      0x0100\n      exp\n      swap1\n      div\n      0xffffffffffffffffffffffffffffffffffffffff\n      and\n        /* \"contracts/CCK/CC2/ces.sol\":4092:4124  IERC20(supportedToken).balanceOf */\n      0xffffffffffffffffffffffffffffffffffffffff\n      and\n      0x70a08231\n        /* \"contracts/CCK/CC2/ces.sol\":4133:4137  this */\n      address\n        /* \"contracts/CCK/CC2/ces.sol\":4092:4139  IERC20(supportedToken).balanceOf(address(this)) */\n      mload(0x40)\n      dup3\n      0xffffffff\n      and\n      0xe0\n      shl\n      dup2\n      mstore\n      0x04\n      add\n      tag_114\n      swap2\n      swap1\n      tag_35\n      jump\t// in\n    tag_114:\n      0x20\n      mload(0x40)\n      dup1\n      dup4\n      sub\n      dup2\n      dup7\n      gas\n      staticcall\n      iszero\n      dup1\n      iszero\n      tag_116\n      jumpi\n      returndatacopy(0x00, 0x00, returndatasize)\n      revert(0x00, returndatasize)\n    tag_116:\n      pop\n      pop\n      pop\n      pop\n      mload(0x40)\n      returndatasize\n      not(0x1f)\n      0x1f\n      dup3\n      add\n      and\n      dup3\n      add\n      dup1\n      0x40\n      mstore\n      pop\n      dup2\n      add\n      swap1\n      tag_117\n      swap2\n      swap1\n      tag_118\n      jump\t// in\n    tag_117:\n        /* \"contracts/CCK/CC2/ces.sol\":4081:4088  _amount */\n      dup2\n        /* \"contracts/CCK/CC2/ces.sol\":4081:4139  _amount <= IERC20(supportedToken).balanceOf(address(this)) */\n      gt\n      iszero\n        /* \"contracts/CCK/CC2/ces.sol\":4073:4145  require(_amount <= IERC20(supportedToken).balanceOf(address(this)), \"1\") */\n      tag_119\n      jumpi\n      mload(0x40)\n      0x08c379a000000000000000000000000000000000000000000000000000000000\n      dup2\n      mstore\n      0x04\n      add\n      tag_120\n      swap1\n      tag_94\n      jump\t// in\n    tag_120:\n      mload(0x40)\n      dup1\n      swap2\n      sub\n      swap1\n      revert\n    tag_119:\n        /* \"contracts/CCK/CC2/ces.sol\":4171:4185  supportedToken */\n      0x06\n      0x00\n      swap1\n      sload\n      swap1\n      0x0100\n      exp\n      swap1\n      div\n      0xffffffffffffffffffffffffffffffffffffffff\n      and\n        /* \"contracts/CCK/CC2/ces.sol\":4164:4195  IERC20(supportedToken).transfer */\n      0xffffffffffffffffffffffffffffffffffffffff\n      and\n      0xa9059cbb\n        /* \"contracts/CCK/CC2/ces.sol\":4196:4201  admin */\n      0x05\n      0x00\n      swap1\n      sload\n      swap1\n      0x0100\n      exp\n      swap1\n      div\n      0xffffffffffffffffffffffffffffffffffffffff\n      and\n        /* \"contracts/CCK/CC2/ces.sol\":4203:4210  _amount */\n      dup4\n        /* \"contracts/CCK/CC2/ces.sol\":4164:4211  IERC20(supportedToken).transfer(admin, _amount) */\n      mload(0x40)\n      dup4\n      0xffffffff\n      and\n      0xe0\n      shl\n      dup2\n      mstore\n      0x04\n      add\n      tag_121\n      swap3\n      swap2\n      swap1\n      tag_122\n      jump\t// in\n    tag_121:\n      0x20\n      mload(0x40)\n      dup1\n      dup4\n      sub\n      dup2\n      0x00\n      dup8\n      gas\n      call\n      iszero\n      dup1\n      iszero\n      tag_124\n      jumpi\n      returndatacopy(0x00, 0x00, returndatasize)\n      revert(0x00, returndatasize)\n    tag_124:\n      pop\n      pop\n      pop\n      pop\n      mload(0x40)\n      returndatasize\n      not(0x1f)\n      0x1f\n      dup3\n      add\n      and\n      dup3\n      add\n      dup1\n      0x40\n      mstore\n      pop\n      dup2\n      add\n      swap1\n      tag_125\n      swap2\n      swap1\n      tag_126\n      jump\t// in\n    tag_125:\n        /* \"contracts/CCK/CC2/ces.sol\":4156:4217  require(IERC20(supportedToken).transfer(admin, _amount), \"1\") */\n      tag_127\n      jumpi\n      mload(0x40)\n      0x08c379a000000000000000000000000000000000000000000000000000000000\n      dup2\n      mstore\n      0x04\n      add\n      tag_128\n      swap1\n      tag_94\n      jump\t// in\n    tag_128:\n      mload(0x40)\n      dup1\n      swap2\n      sub\n      swap1\n      revert\n    tag_127:\n        /* \"contracts/CCK/CC2/ces.sol\":4249:4254  admin */\n      0x05\n      0x00\n      swap1\n      sload\n      swap1\n      0x0100\n      exp\n      swap1\n      div\n      0xffffffffffffffffffffffffffffffffffffffff\n      and\n        /* \"contracts/CCK/CC2/ces.sol\":4235:4280  WithdrawToken(admin, supportedToken, _amount) */\n      0xffffffffffffffffffffffffffffffffffffffff\n      and\n      0x037238854fe57fbf51f09946f854fc3916fe83938d6521f09bd05463839f1304\n        /* \"contracts/CCK/CC2/ces.sol\":4256:4270  supportedToken */\n      0x06\n      0x00\n      swap1\n      sload\n      swap1\n      0x0100\n      exp\n      swap1\n      div\n      0xffffffffffffffffffffffffffffffffffffffff\n      and\n        /* \"contracts/CCK/CC2/ces.sol\":4272:4279  _amount */\n      dup4\n        /* \"contracts/CCK/CC2/ces.sol\":4235:4280  WithdrawToken(admin, supportedToken, _amount) */\n      mload(0x40)\n      tag_129\n      swap3\n      swap2\n      swap1\n      tag_122\n      jump\t// in\n    tag_129:\n      mload(0x40)\n      dup1\n      swap2\n      sub\n      swap1\n      log2\n        /* \"contracts/CCK/CC2/ces.sol\":3918:4288  function withdrawToken(uint256 _amount) public {... */\n      pop\n      jump\t// out\n        /* \"contracts/CCK/CC2/ces.sol\":1705:2159  function depositToken(uint256 _amount) public nonReentrant {... */\n    tag_57:\n        /* \"@openzeppelin/contracts/security/ReentrancyGuard.sol\":2261:2282  _nonReentrantBefore() */\n      tag_131\n        /* \"@openzeppelin/contracts/security/ReentrancyGuard.sol\":2261:2280  _nonReentrantBefore */\n      tag_132\n        /* \"@openzeppelin/contracts/security/ReentrancyGuard.sol\":2261:2282  _nonReentrantBefore() */\n      jump\t// in\n    tag_131:\n        /* \"contracts/CCK/CC2/ces.sol\":1793:1794  0 */\n      0x00\n        /* \"contracts/CCK/CC2/ces.sol\":1783:1790  _amount */\n      dup2\n        /* \"contracts/CCK/CC2/ces.sol\":1783:1794  _amount > 0 */\n      gt\n        /* \"contracts/CCK/CC2/ces.sol\":1775:1800  require(_amount > 0, \"1\") */\n      tag_134\n      jumpi\n      mload(0x40)\n      0x08c379a000000000000000000000000000000000000000000000000000000000\n      dup2\n      mstore\n      0x04\n      add\n      tag_135\n      swap1\n      tag_94\n      jump\t// in\n    tag_135:\n      mload(0x40)\n      dup1\n      swap2\n      sub\n      swap1\n      revert\n    tag_134:\n        /* \"contracts/CCK/CC2/ces.sol\":1845:1846  0 */\n      0x00\n        /* \"contracts/CCK/CC2/ces.sol\":1819:1847  supportedToken != address(0) */\n      0xffffffffffffffffffffffffffffffffffffffff\n      and\n        /* \"contracts/CCK/CC2/ces.sol\":1819:1833  supportedToken */\n      0x06\n      0x00\n      swap1\n      sload\n      swap1\n      0x0100\n      exp\n      swap1\n      div\n      0xffffffffffffffffffffffffffffffffffffffff\n      and\n        /* \"contracts/CCK/CC2/ces.sol\":1819:1847  supportedToken != address(0) */\n      0xffffffffffffffffffffffffffffffffffffffff\n      and\n      sub\n        /* \"contracts/CCK/CC2/ces.sol\":1811:1853  require(supportedToken != address(0), \"1\") */\n      tag_136\n      jumpi\n      mload(0x40)\n      0x08c379a000000000000000000000000000000000000000000000000000000000\n      dup2\n      mstore\n      0x04\n      add\n      tag_137\n      swap1\n      tag_94\n      jump\t// in\n    tag_137:\n      mload(0x40)\n      dup1\n      swap2\n      sub\n      swap1\n      revert\n    tag_136:\n        /* \"contracts/CCK/CC2/ces.sol\":1879:1893  supportedToken */\n      0x06\n      0x00\n      swap1\n      sload\n      swap1\n      0x0100\n      exp\n      swap1\n      div\n      0xffffffffffffffffffffffffffffffffffffffff\n      and\n        /* \"contracts/CCK/CC2/ces.sol\":1872:1907  IERC20(supportedToken).transferFrom */\n      0xffffffffffffffffffffffffffffffffffffffff\n      and\n      0x23b872dd\n        /* \"contracts/CCK/CC2/ces.sol\":1908:1918  msg.sender */\n      caller\n        /* \"contracts/CCK/CC2/ces.sol\":1928:1932  this */\n      address\n        /* \"contracts/CCK/CC2/ces.sol\":1935:1942  _amount */\n      dup5\n        /* \"contracts/CCK/CC2/ces.sol\":1872:1943  IERC20(supportedToken).transferFrom(msg.sender, address(this), _amount) */\n      mload(0x40)\n      dup5\n      0xffffffff\n      and\n      0xe0\n      shl\n      dup2\n      mstore\n      0x04\n      add\n      tag_138\n      swap4\n      swap3\n      swap2\n      swap1\n      tag_139\n      jump\t// in\n    tag_138:\n      0x20\n      mload(0x40)\n      dup1\n      dup4\n      sub\n      dup2\n      0x00\n      dup8\n      gas\n      call\n      iszero\n      dup1\n      iszero\n      tag_141\n      jumpi\n      returndatacopy(0x00, 0x00, returndatasize)\n      revert(0x00, returndatasize)\n    tag_141:\n      pop\n      pop\n      pop\n      pop\n      mload(0x40)\n      returndatasize\n      not(0x1f)\n      0x1f\n      dup3\n      add\n      and\n      dup3\n      add\n      dup1\n      0x40\n      mstore\n      pop\n      dup2\n      add\n      swap1\n      tag_142\n      swap2\n      swap1\n      tag_126\n      jump\t// in\n    tag_142:\n        /* \"contracts/CCK/CC2/ces.sol\":1864:1949  require(IERC20(supportedToken).transferFrom(msg.sender, address(this), _amount), \"1\") */\n      tag_143\n      jumpi\n      mload(0x40)\n      0x08c379a000000000000000000000000000000000000000000000000000000000\n      dup2\n      mstore\n      0x04\n      add\n      tag_144\n      swap1\n      tag_94\n      jump\t// in\n    tag_144:\n      mload(0x40)\n      dup1\n      swap2\n      sub\n      swap1\n      revert\n    tag_143:\n        /* \"contracts/CCK/CC2/ces.sol\":1962:1981  uint256 tokenAmount */\n      0x00\n        /* \"contracts/CCK/CC2/ces.sol\":743:745  20 */\n      0x14\n        /* \"contracts/CCK/CC2/ces.sol\":1984:1991  _amount */\n      dup3\n        /* \"contracts/CCK/CC2/ces.sol\":1984:2007  _amount * EXCHANGE_RATE */\n      tag_145\n      swap2\n      swap1\n      tag_146\n      jump\t// in\n    tag_145:\n        /* \"contracts/CCK/CC2/ces.sol\":1962:2007  uint256 tokenAmount = _amount * EXCHANGE_RATE */\n      swap1\n      pop\n        /* \"contracts/CCK/CC2/ces.sol\":2018:2048  _mint(msg.sender, tokenAmount) */\n      tag_147\n        /* \"contracts/CCK/CC2/ces.sol\":2024:2034  msg.sender */\n      caller\n        /* \"contracts/CCK/CC2/ces.sol\":2036:2047  tokenAmount */\n      dup3\n        /* \"contracts/CCK/CC2/ces.sol\":2018:2023  _mint */\n      tag_148\n        /* \"contracts/CCK/CC2/ces.sol\":2018:2048  _mint(msg.sender, tokenAmount) */\n      jump\t// in\n    tag_147:\n        /* \"contracts/CCK/CC2/ces.sol\":2079:2089  msg.sender */\n      caller\n        /* \"contracts/CCK/CC2/ces.sol\":2066:2151  DepositToken(msg.sender, supportedToken, _amount, tokenAmount, balanceOf[msg.sender]) */\n      0xffffffffffffffffffffffffffffffffffffffff\n      and\n      0xcc78f3b4102faf5e7649c63e1b487c5b00d1a832307b4026827bb66f066125a3\n        /* \"contracts/CCK/CC2/ces.sol\":2091:2105  supportedToken */\n      0x06\n      0x00\n      swap1\n      sload\n      swap1\n      0x0100\n      exp\n      swap1\n      div\n      0xffffffffffffffffffffffffffffffffffffffff\n      and\n        /* \"contracts/CCK/CC2/ces.sol\":2107:2114  _amount */\n      dup5\n        /* \"contracts/CCK/CC2/ces.sol\":2116:2127  tokenAmount */\n      dup5\n        /* \"contracts/CCK/CC2/ces.sol\":2129:2138  balanceOf */\n      0x07\n        /* \"contracts/CCK/CC2/ces.sol\":2129:2150  balanceOf[msg.sender] */\n      0x00\n        /* \"contracts/CCK/CC2/ces.sol\":2139:2149  msg.sender */\n      caller\n        /* \"contracts/CCK/CC2/ces.sol\":2129:2150  balanceOf[msg.sender] */\n      0xffffffffffffffffffffffffffffffffffffffff\n      and\n      0xffffffffffffffffffffffffffffffffffffffff\n      and\n      dup2\n      mstore\n      0x20\n      add\n      swap1\n      dup2\n      mstore\n      0x20\n      add\n      0x00\n      keccak256\n      sload\n        /* \"contracts/CCK/CC2/ces.sol\":2066:2151  DepositToken(msg.sender, supportedToken, _amount, tokenAmount, balanceOf[msg.sender]) */\n      mload(0x40)\n      tag_149\n      swap5\n      swap4\n      swap3\n      swap2\n      swap1\n      tag_150\n      jump\t// in\n    tag_149:\n      mload(0x40)\n      dup1\n      swap2\n      sub\n      swap1\n      log2\n        /* \"contracts/CCK/CC2/ces.sol\":1764:2159  {... */\n      pop\n        /* \"@openzeppelin/contracts/security/ReentrancyGuard.sol\":2303:2323  _nonReentrantAfter() */\n      tag_151\n        /* \"@openzeppelin/contracts/security/ReentrancyGuard.sol\":2303:2321  _nonReentrantAfter */\n      tag_152\n        /* \"@openzeppelin/contracts/security/ReentrancyGuard.sol\":2303:2323  _nonReentrantAfter() */\n      jump\t// in\n    tag_151:\n        /* \"contracts/CCK/CC2/ces.sol\":1705:2159  function depositToken(uint256 _amount) public nonReentrant {... */\n      pop\n      jump\t// out\n        /* \"contracts/CCK/CC2/ces.sol\":817:861  mapping(address => uint256) public balanceOf */\n    tag_61:\n      mstore(0x20, 0x07)\n      dup1\n      0x00\n      mstore\n      keccak256(0x00, 0x40)\n      0x00\n      swap2\n      pop\n      swap1\n      pop\n      sload\n      dup2\n      jump\t// out\n        /* \"contracts/CCK/CC2/ces.sol\":3746:3855  function balanceOfRWT(address _user) public view returns (uint256) {... */\n    tag_65:\n        /* \"contracts/CCK/CC2/ces.sol\":3804:3811  uint256 */\n      0x00\n        /* \"contracts/CCK/CC2/ces.sol\":3831:3840  balanceOf */\n      0x07\n        /* \"contracts/CCK/CC2/ces.sol\":3831:3847  balanceOf[_user] */\n      0x00\n        /* \"contracts/CCK/CC2/ces.sol\":3841:3846  _user */\n      dup4\n        /* \"contracts/CCK/CC2/ces.sol\":3831:3847  balanceOf[_user] */\n      0xffffffffffffffffffffffffffffffffffffffff\n      and\n      0xffffffffffffffffffffffffffffffffffffffff\n      and\n      dup2\n      mstore\n      0x20\n      add\n      swap1\n      dup2\n      mstore\n      0x20\n      add\n      0x00\n      keccak256\n      sload\n        /* \"contracts/CCK/CC2/ces.sol\":3824:3847  return balanceOf[_user] */\n      swap1\n      pop\n        /* \"contracts/CCK/CC2/ces.sol\":3746:3855  function balanceOfRWT(address _user) public view returns (uint256) {... */\n      swap2\n      swap1\n      pop\n      jump\t// out\n        /* \"contracts/CCK/CC2/ces.sol\":415:443  string public symbol = \"RWT\" */\n    tag_68:\n      0x02\n      dup1\n      sload\n      tag_154\n      swap1\n      tag_86\n      jump\t// in\n    tag_154:\n      dup1\n      0x1f\n      add\n      0x20\n      dup1\n      swap2\n      div\n      mul\n      0x20\n      add\n      mload(0x40)\n      swap1\n      dup2\n      add\n      0x40\n      mstore\n      dup1\n      swap3\n      swap2\n      swap1\n      dup2\n      dup2\n      mstore\n      0x20\n      add\n      dup3\n      dup1\n      sload\n      tag_155\n      swap1\n      tag_86\n      jump\t// in\n    tag_155:\n      dup1\n      iszero\n      tag_156\n      jumpi\n      dup1\n      0x1f\n      lt\n      tag_157\n      jumpi\n      0x0100\n      dup1\n      dup4\n      sload\n      div\n      mul\n      dup4\n      mstore\n      swap2\n      0x20\n      add\n      swap2\n      jump(tag_156)\n    tag_157:\n      dup3\n      add\n      swap2\n      swap1\n      0x00\n      mstore\n      keccak256(0x00, 0x20)\n      swap1\n    tag_158:\n      dup2\n      sload\n      dup2\n      mstore\n      swap1\n      0x01\n      add\n      swap1\n      0x20\n      add\n      dup1\n      dup4\n      gt\n      tag_158\n      jumpi\n      dup3\n      swap1\n      sub\n      0x1f\n      and\n      dup3\n      add\n      swap2\n    tag_156:\n      pop\n      pop\n      pop\n      pop\n      pop\n      dup2\n      jump\t// out\n        /* \"contracts/CCK/CC2/ces.sol\":2501:2836  function transfer(address _to, uint256 _value) public returns (bool success) {... */\n    tag_72:\n        /* \"contracts/CCK/CC2/ces.sol\":2564:2576  bool success */\n      0x00\n        /* \"contracts/CCK/CC2/ces.sol\":2612:2613  0 */\n      0x00\n        /* \"contracts/CCK/CC2/ces.sol\":2597:2614  _to != address(0) */\n      0xffffffffffffffffffffffffffffffffffffffff\n      and\n        /* \"contracts/CCK/CC2/ces.sol\":2597:2600  _to */\n      dup4\n        /* \"contracts/CCK/CC2/ces.sol\":2597:2614  _to != address(0) */\n      0xffffffffffffffffffffffffffffffffffffffff\n      and\n      sub\n        /* \"contracts/CCK/CC2/ces.sol\":2589:2620  require(_to != address(0), \"1\") */\n      tag_160\n      jumpi\n      mload(0x40)\n      0x08c379a000000000000000000000000000000000000000000000000000000000\n      dup2\n      mstore\n      0x04\n      add\n      tag_161\n      swap1\n      tag_94\n      jump\t// in\n    tag_161:\n      mload(0x40)\n      dup1\n      swap2\n      sub\n      swap1\n      revert\n    tag_160:\n        /* \"contracts/CCK/CC2/ces.sol\":2664:2670  _value */\n      dup2\n        /* \"contracts/CCK/CC2/ces.sol\":2639:2648  balanceOf */\n      0x07\n        /* \"contracts/CCK/CC2/ces.sol\":2639:2660  balanceOf[msg.sender] */\n      0x00\n        /* \"contracts/CCK/CC2/ces.sol\":2649:2659  msg.sender */\n      caller\n        /* \"contracts/CCK/CC2/ces.sol\":2639:2660  balanceOf[msg.sender] */\n      0xffffffffffffffffffffffffffffffffffffffff\n      and\n      0xffffffffffffffffffffffffffffffffffffffff\n      and\n      dup2\n      mstore\n      0x20\n      add\n      swap1\n      dup2\n      mstore\n      0x20\n      add\n      0x00\n      keccak256\n      sload\n        /* \"contracts/CCK/CC2/ces.sol\":2639:2670  balanceOf[msg.sender] >= _value */\n      lt\n      iszero\n        /* \"contracts/CCK/CC2/ces.sol\":2631:2676  require(balanceOf[msg.sender] >= _value, \"1\") */\n      tag_162\n      jumpi\n      mload(0x40)\n      0x08c379a000000000000000000000000000000000000000000000000000000000\n      dup2\n      mstore\n      0x04\n      add\n      tag_163\n      swap1\n      tag_94\n      jump\t// in\n    tag_163:\n      mload(0x40)\n      dup1\n      swap2\n      sub\n      swap1\n      revert\n    tag_162:\n        /* \"contracts/CCK/CC2/ces.sol\":2714:2720  _value */\n      dup2\n        /* \"contracts/CCK/CC2/ces.sol\":2689:2698  balanceOf */\n      0x07\n        /* \"contracts/CCK/CC2/ces.sol\":2689:2710  balanceOf[msg.sender] */\n      0x00\n        /* \"contracts/CCK/CC2/ces.sol\":2699:2709  msg.sender */\n      caller\n        /* \"contracts/CCK/CC2/ces.sol\":2689:2710  balanceOf[msg.sender] */\n      0xffffffffffffffffffffffffffffffffffffffff\n      and\n      0xffffffffffffffffffffffffffffffffffffffff\n      and\n      dup2\n      mstore\n      0x20\n      add\n      swap1\n      dup2\n      mstore\n      0x20\n      add\n      0x00\n      keccak256\n      0x00\n        /* \"contracts/CCK/CC2/ces.sol\":2689:2720  balanceOf[msg.sender] -= _value */\n      dup3\n      dup3\n      sload\n      tag_164\n      swap2\n      swap1\n      tag_104\n      jump\t// in\n    tag_164:\n      swap3\n      pop\n      pop\n      dup2\n      swap1\n      sstore\n      pop\n        /* \"contracts/CCK/CC2/ces.sol\":2749:2755  _value */\n      dup2\n        /* \"contracts/CCK/CC2/ces.sol\":2731:2740  balanceOf */\n      0x07\n        /* \"contracts/CCK/CC2/ces.sol\":2731:2745  balanceOf[_to] */\n      0x00\n        /* \"contracts/CCK/CC2/ces.sol\":2741:2744  _to */\n      dup6\n        /* \"contracts/CCK/CC2/ces.sol\":2731:2745  balanceOf[_to] */\n      0xffffffffffffffffffffffffffffffffffffffff\n      and\n      0xffffffffffffffffffffffffffffffffffffffff\n      and\n      dup2\n      mstore\n      0x20\n      add\n      swap1\n      dup2\n      mstore\n      0x20\n      add\n      0x00\n      keccak256\n      0x00\n        /* \"contracts/CCK/CC2/ces.sol\":2731:2755  balanceOf[_to] += _value */\n      dup3\n      dup3\n      sload\n      tag_165\n      swap2\n      swap1\n      tag_106\n      jump\t// in\n    tag_165:\n      swap3\n      pop\n      pop\n      dup2\n      swap1\n      sstore\n      pop\n        /* \"contracts/CCK/CC2/ces.sol\":2794:2797  _to */\n      dup3\n        /* \"contracts/CCK/CC2/ces.sol\":2773:2806  Transfer(msg.sender, _to, _value) */\n      0xffffffffffffffffffffffffffffffffffffffff\n      and\n        /* \"contracts/CCK/CC2/ces.sol\":2782:2792  msg.sender */\n      caller\n        /* \"contracts/CCK/CC2/ces.sol\":2773:2806  Transfer(msg.sender, _to, _value) */\n      0xffffffffffffffffffffffffffffffffffffffff\n      and\n      0xddf252ad1be2c89b69c2b068fc378daa952ba7f163c4a11628f55a4df523b3ef\n        /* \"contracts/CCK/CC2/ces.sol\":2799:2805  _value */\n      dup5\n        /* \"contracts/CCK/CC2/ces.sol\":2773:2806  Transfer(msg.sender, _to, _value) */\n      mload(0x40)\n      tag_166\n      swap2\n      swap1\n      tag_39\n      jump\t// in\n    tag_166:\n      mload(0x40)\n      dup1\n      swap2\n      sub\n      swap1\n      log3\n        /* \"contracts/CCK/CC2/ces.sol\":2824:2828  true */\n      0x01\n        /* \"contracts/CCK/CC2/ces.sol\":2817:2828  return true */\n      swap1\n      pop\n        /* \"contracts/CCK/CC2/ces.sol\":2501:2836  function transfer(address _to, uint256 _value) public returns (bool success) {... */\n      swap3\n      swap2\n      pop\n      pop\n      jump\t// out\n        /* \"contracts/CCK/CC2/ces.sol\":4348:4490  function setSupportedToken(address _newToken) public {... */\n    tag_76:\n        /* \"contracts/CCK/CC2/ces.sol\":4434:4439  admin */\n      0x05\n      0x00\n      swap1\n      sload\n      swap1\n      0x0100\n      exp\n      swap1\n      div\n      0xffffffffffffffffffffffffffffffffffffffff\n      and\n        /* \"contracts/CCK/CC2/ces.sol\":4420:4439  msg.sender == admin */\n      0xffffffffffffffffffffffffffffffffffffffff\n      and\n        /* \"contracts/CCK/CC2/ces.sol\":4420:4430  msg.sender */\n      caller\n        /* \"contracts/CCK/CC2/ces.sol\":4420:4439  msg.sender == admin */\n      0xffffffffffffffffffffffffffffffffffffffff\n      and\n      eq\n        /* \"contracts/CCK/CC2/ces.sol\":4412:4445  require(msg.sender == admin, \"1\") */\n      tag_168\n      jumpi\n      mload(0x40)\n      0x08c379a000000000000000000000000000000000000000000000000000000000\n      dup2\n      mstore\n      0x04\n      add\n      tag_169\n      swap1\n      tag_94\n      jump\t// in\n    tag_169:\n      mload(0x40)\n      dup1\n      swap2\n      sub\n      swap1\n      revert\n    tag_168:\n        /* \"contracts/CCK/CC2/ces.sol\":4473:4482  _newToken */\n      dup1\n        /* \"contracts/CCK/CC2/ces.sol\":4456:4470  supportedToken */\n      0x06\n      0x00\n        /* \"contracts/CCK/CC2/ces.sol\":4456:4482  supportedToken = _newToken */\n      0x0100\n      exp\n      dup2\n      sload\n      dup2\n      0xffffffffffffffffffffffffffffffffffffffff\n      mul\n      not\n      and\n      swap1\n      dup4\n      0xffffffffffffffffffffffffffffffffffffffff\n      and\n      mul\n      or\n      swap1\n      sstore\n      pop\n        /* \"contracts/CCK/CC2/ces.sol\":4348:4490  function setSupportedToken(address _newToken) public {... */\n      pop\n      jump\t// out\n        /* \"contracts/CCK/CC2/ces.sol\":888:952  mapping(address => mapping(address => uint256)) public allowance */\n    tag_80:\n      mstore(0x20, 0x08)\n      dup2\n      0x00\n      mstore\n      mstore(0x20, keccak256(0x00, 0x40))\n      dup1\n      0x00\n      mstore\n      keccak256(0x00, 0x40)\n      0x00\n      swap2\n      pop\n      swap2\n      pop\n      pop\n      sload\n      dup2\n      jump\t// out\n        /* \"contracts/CCK/CC2/ces.sol\":589:609  address public admin */\n    tag_83:\n      0x05\n      0x00\n      swap1\n      sload\n      swap1\n      0x0100\n      exp\n      swap1\n      div\n      0xffffffffffffffffffffffffffffffffffffffff\n      and\n      dup2\n      jump\t// out\n        /* \"@openzeppelin/contracts/security/ReentrancyGuard.sol\":2336:2623  function _nonReentrantBefore() private {... */\n    tag_132:\n        /* \"@openzeppelin/contracts/security/ReentrancyGuard.sol\":1759:1760  2 */\n      0x02\n        /* \"@openzeppelin/contracts/security/ReentrancyGuard.sol\":2468:2475  _status */\n      sload(0x00)\n        /* \"@openzeppelin/contracts/security/ReentrancyGuard.sol\":2468:2487  _status != _ENTERED */\n      sub\n        /* \"@openzeppelin/contracts/security/ReentrancyGuard.sol\":2460:2523  require(_status != _ENTERED, \"ReentrancyGuard: reentrant call\") */\n      tag_171\n      jumpi\n      mload(0x40)\n      0x08c379a000000000000000000000000000000000000000000000000000000000\n      dup2\n      mstore\n      0x04\n      add\n      tag_172\n      swap1\n      tag_173\n      jump\t// in\n    tag_172:\n      mload(0x40)\n      dup1\n      swap2\n      sub\n      swap1\n      revert\n    tag_171:\n        /* \"@openzeppelin/contracts/security/ReentrancyGuard.sol\":1759:1760  2 */\n      0x02\n        /* \"@openzeppelin/contracts/security/ReentrancyGuard.sol\":2598:2605  _status */\n      0x00\n        /* \"@openzeppelin/contracts/security/ReentrancyGuard.sol\":2598:2616  _status = _ENTERED */\n      dup2\n      swap1\n      sstore\n      pop\n        /* \"@openzeppelin/contracts/security/ReentrancyGuard.sol\":2336:2623  function _nonReentrantBefore() private {... */\n      jump\t// out\n        /* \"contracts/CCK/CC2/ces.sol\":2229:2452  function _mint(address _to, uint256 _amount) internal {... */\n    tag_148:\n        /* \"contracts/CCK/CC2/ces.sol\":2317:2318  0 */\n      0x00\n        /* \"contracts/CCK/CC2/ces.sol\":2302:2319  _to != address(0) */\n      0xffffffffffffffffffffffffffffffffffffffff\n      and\n        /* \"contracts/CCK/CC2/ces.sol\":2302:2305  _to */\n      dup3\n        /* \"contracts/CCK/CC2/ces.sol\":2302:2319  _to != address(0) */\n      0xffffffffffffffffffffffffffffffffffffffff\n      and\n      sub\n        /* \"contracts/CCK/CC2/ces.sol\":2294:2325  require(_to != address(0), \"1\") */\n      tag_175\n      jumpi\n      mload(0x40)\n      0x08c379a000000000000000000000000000000000000000000000000000000000\n      dup2\n      mstore\n      0x04\n      add\n      tag_176\n      swap1\n      tag_94\n      jump\t// in\n    tag_176:\n      mload(0x40)\n      dup1\n      swap2\n      sub\n      swap1\n      revert\n    tag_175:\n        /* \"contracts/CCK/CC2/ces.sol\":2351:2358  _amount */\n      dup1\n        /* \"contracts/CCK/CC2/ces.sol\":2336:2347  totalSupply */\n      0x04\n      0x00\n        /* \"contracts/CCK/CC2/ces.sol\":2336:2358  totalSupply += _amount */\n      dup3\n      dup3\n      sload\n      tag_177\n      swap2\n      swap1\n      tag_106\n      jump\t// in\n    tag_177:\n      swap3\n      pop\n      pop\n      dup2\n      swap1\n      sstore\n      pop\n        /* \"contracts/CCK/CC2/ces.sol\":2387:2394  _amount */\n      dup1\n        /* \"contracts/CCK/CC2/ces.sol\":2369:2378  balanceOf */\n      0x07\n        /* \"contracts/CCK/CC2/ces.sol\":2369:2383  balanceOf[_to] */\n      0x00\n        /* \"contracts/CCK/CC2/ces.sol\":2379:2382  _to */\n      dup5\n        /* \"contracts/CCK/CC2/ces.sol\":2369:2383  balanceOf[_to] */\n      0xffffffffffffffffffffffffffffffffffffffff\n      and\n      0xffffffffffffffffffffffffffffffffffffffff\n      and\n      dup2\n      mstore\n      0x20\n      add\n      swap1\n      dup2\n      mstore\n      0x20\n      add\n      0x00\n      keccak256\n      0x00\n        /* \"contracts/CCK/CC2/ces.sol\":2369:2394  balanceOf[_to] += _amount */\n      dup3\n      dup3\n      sload\n      tag_178\n      swap2\n      swap1\n      tag_106\n      jump\t// in\n    tag_178:\n      swap3\n      pop\n      pop\n      dup2\n      swap1\n      sstore\n      pop\n        /* \"contracts/CCK/CC2/ces.sol\":2431:2434  _to */\n      dup2\n        /* \"contracts/CCK/CC2/ces.sol\":2410:2444  Transfer(address(0), _to, _amount) */\n      0xffffffffffffffffffffffffffffffffffffffff\n      and\n        /* \"contracts/CCK/CC2/ces.sol\":2427:2428  0 */\n      0x00\n        /* \"contracts/CCK/CC2/ces.sol\":2410:2444  Transfer(address(0), _to, _amount) */\n      0xffffffffffffffffffffffffffffffffffffffff\n      and\n      0xddf252ad1be2c89b69c2b068fc378daa952ba7f163c4a11628f55a4df523b3ef\n        /* \"contracts/CCK/CC2/ces.sol\":2436:2443  _amount */\n      dup4\n        /* \"contracts/CCK/CC2/ces.sol\":2410:2444  Transfer(address(0), _to, _amount) */\n      mload(0x40)\n      tag_179\n      swap2\n      swap1\n      tag_39\n      jump\t// in\n    tag_179:\n      mload(0x40)\n      dup1\n      swap2\n      sub\n      swap1\n      log3\n        /* \"contracts/CCK/CC2/ces.sol\":2229:2452  function _mint(address _to, uint256 _amount) internal {... */\n      pop\n      pop\n      jump\t// out\n        /* \"@openzeppelin/contracts/security/ReentrancyGuard.sol\":2629:2838  function _nonReentrantAfter() private {... */\n    tag_152:\n        /* \"@openzeppelin/contracts/security/ReentrancyGuard.sol\":1716:1717  1 */\n      0x01\n        /* \"@openzeppelin/contracts/security/ReentrancyGuard.sol\":2809:2816  _status */\n      0x00\n        /* \"@openzeppelin/contracts/security/ReentrancyGuard.sol\":2809:2831  _status = _NOT_ENTERED */\n      dup2\n      swap1\n      sstore\n      pop\n        /* \"@openzeppelin/contracts/security/ReentrancyGuard.sol\":2629:2838  function _nonReentrantAfter() private {... */\n      jump\t// out\n        /* \"#utility.yul\":7:106   */\n    tag_181:\n        /* \"#utility.yul\":59:65   */\n      0x00\n        /* \"#utility.yul\":93:98   */\n      dup2\n        /* \"#utility.yul\":87:99   */\n      mload\n        /* \"#utility.yul\":77:99   */\n      swap1\n      pop\n        /* \"#utility.yul\":7:106   */\n      swap2\n      swap1\n      pop\n      jump\t// out\n        /* \"#utility.yul\":112:281   */\n    tag_182:\n        /* \"#utility.yul\":196:207   */\n      0x00\n        /* \"#utility.yul\":230:236   */\n      dup3\n        /* \"#utility.yul\":225:228   */\n      dup3\n        /* \"#utility.yul\":218:237   */\n      mstore\n        /* \"#utility.yul\":270:274   */\n      0x20\n        /* \"#utility.yul\":265:268   */\n      dup3\n        /* \"#utility.yul\":261:275   */\n      add\n        /* \"#utility.yul\":246:275   */\n      swap1\n      pop\n        /* \"#utility.yul\":112:281   */\n      swap3\n      swap2\n      pop\n      pop\n      jump\t// out\n        /* \"#utility.yul\":287:426   */\n    tag_183:\n        /* \"#utility.yul\":376:382   */\n      dup3\n        /* \"#utility.yul\":371:374   */\n      dup2\n        /* \"#utility.yul\":366:369   */\n      dup4\n        /* \"#utility.yul\":360:383   */\n      mcopy\n        /* \"#utility.yul\":417:418   */\n      0x00\n        /* \"#utility.yul\":408:414   */\n      dup4\n        /* \"#utility.yul\":403:406   */\n      dup4\n        /* \"#utility.yul\":399:415   */\n      add\n        /* \"#utility.yul\":392:419   */\n      mstore\n        /* \"#utility.yul\":287:426   */\n      pop\n      pop\n      pop\n      jump\t// out\n        /* \"#utility.yul\":432:534   */\n    tag_184:\n        /* \"#utility.yul\":473:479   */\n      0x00\n        /* \"#utility.yul\":524:526   */\n      0x1f\n        /* \"#utility.yul\":520:527   */\n      not\n        /* \"#utility.yul\":515:517   */\n      0x1f\n        /* \"#utility.yul\":508:513   */\n      dup4\n        /* \"#utility.yul\":504:518   */\n      add\n        /* \"#utility.yul\":500:528   */\n      and\n        /* \"#utility.yul\":490:528   */\n      swap1\n      pop\n        /* \"#utility.yul\":432:534   */\n      swap2\n      swap1\n      pop\n      jump\t// out\n        /* \"#utility.yul\":540:917   */\n    tag_185:\n        /* \"#utility.yul\":628:631   */\n      0x00\n        /* \"#utility.yul\":656:695   */\n      tag_215\n        /* \"#utility.yul\":689:694   */\n      dup3\n        /* \"#utility.yul\":656:695   */\n      tag_181\n      jump\t// in\n    tag_215:\n        /* \"#utility.yul\":711:782   */\n      tag_216\n        /* \"#utility.yul\":775:781   */\n      dup2\n        /* \"#utility.yul\":770:773   */\n      dup6\n        /* \"#utility.yul\":711:782   */\n      tag_182\n      jump\t// in\n    tag_216:\n        /* \"#utility.yul\":704:782   */\n      swap4\n      pop\n        /* \"#utility.yul\":791:856   */\n      tag_217\n        /* \"#utility.yul\":849:855   */\n      dup2\n        /* \"#utility.yul\":844:847   */\n      dup6\n        /* \"#utility.yul\":837:841   */\n      0x20\n        /* \"#utility.yul\":830:835   */\n      dup7\n        /* \"#utility.yul\":826:842   */\n      add\n        /* \"#utility.yul\":791:856   */\n      tag_183\n      jump\t// in\n    tag_217:\n        /* \"#utility.yul\":881:910   */\n      tag_218\n        /* \"#utility.yul\":903:909   */\n      dup2\n        /* \"#utility.yul\":881:910   */\n      tag_184\n      jump\t// in\n    tag_218:\n        /* \"#utility.yul\":876:879   */\n      dup5\n        /* \"#utility.yul\":872:911   */\n      add\n        /* \"#utility.yul\":865:911   */\n      swap2\n      pop\n        /* \"#utility.yul\":632:917   */\n      pop\n        /* \"#utility.yul\":540:917   */\n      swap3\n      swap2\n      pop\n      pop\n      jump\t// out\n        /* \"#utility.yul\":923:1236   */\n    tag_25:\n        /* \"#utility.yul\":1036:1040   */\n      0x00\n        /* \"#utility.yul\":1074:1076   */\n      0x20\n        /* \"#utility.yul\":1063:1072   */\n      dup3\n        /* \"#utility.yul\":1059:1077   */\n      add\n        /* \"#utility.yul\":1051:1077   */\n      swap1\n      pop\n        /* \"#utility.yul\":1123:1132   */\n      dup2\n        /* \"#utility.yul\":1117:1121   */\n      dup2\n        /* \"#utility.yul\":1113:1133   */\n      sub\n        /* \"#utility.yul\":1109:1110   */\n      0x00\n        /* \"#utility.yul\":1098:1107   */\n      dup4\n        /* \"#utility.yul\":1094:1111   */\n      add\n        /* \"#utility.yul\":1087:1134   */\n      mstore\n        /* \"#utility.yul\":1151:1229   */\n      tag_220\n        /* \"#utility.yul\":1224:1228   */\n      dup2\n        /* \"#utility.yul\":1215:1221   */\n      dup5\n        /* \"#utility.yul\":1151:1229   */\n      tag_185\n      jump\t// in\n    tag_220:\n        /* \"#utility.yul\":1143:1229   */\n      swap1\n      pop\n        /* \"#utility.yul\":923:1236   */\n      swap3\n      swap2\n      pop\n      pop\n      jump\t// out\n        /* \"#utility.yul\":1323:1440   */\n    tag_187:\n        /* \"#utility.yul\":1432:1433   */\n      0x00\n        /* \"#utility.yul\":1429:1430   */\n      0x00\n        /* \"#utility.yul\":1422:1434   */\n      revert\n        /* \"#utility.yul\":1569:1695   */\n    tag_189:\n        /* \"#utility.yul\":1606:1613   */\n      0x00\n        /* \"#utility.yul\":1646:1688   */\n      0xffffffffffffffffffffffffffffffffffffffff\n        /* \"#utility.yul\":1639:1644   */\n      dup3\n        /* \"#utility.yul\":1635:1689   */\n      and\n        /* \"#utility.yul\":1624:1689   */\n      swap1\n      pop\n        /* \"#utility.yul\":1569:1695   */\n      swap2\n      swap1\n      pop\n      jump\t// out\n        /* \"#utility.yul\":1701:1797   */\n    tag_190:\n        /* \"#utility.yul\":1738:1745   */\n      0x00\n        /* \"#utility.yul\":1767:1791   */\n      tag_226\n        /* \"#utility.yul\":1785:1790   */\n      dup3\n        /* \"#utility.yul\":1767:1791   */\n      tag_189\n      jump\t// in\n    tag_226:\n        /* \"#utility.yul\":1756:1791   */\n      swap1\n      pop\n        /* \"#utility.yul\":1701:1797   */\n      swap2\n      swap1\n      pop\n      jump\t// out\n        /* \"#utility.yul\":1803:1925   */\n    tag_191:\n        /* \"#utility.yul\":1876:1900   */\n      tag_228\n        /* \"#utility.yul\":1894:1899   */\n      dup2\n        /* \"#utility.yul\":1876:1900   */\n      tag_190\n      jump\t// in\n    tag_228:\n        /* \"#utility.yul\":1869:1874   */\n      dup2\n        /* \"#utility.yul\":1866:1901   */\n      eq\n        /* \"#utility.yul\":1856:1919   */\n      tag_229\n      jumpi\n        /* \"#utility.yul\":1915:1916   */\n      0x00\n        /* \"#utility.yul\":1912:1913   */\n      0x00\n        /* \"#utility.yul\":1905:1917   */\n      revert\n        /* \"#utility.yul\":1856:1919   */\n    tag_229:\n        /* \"#utility.yul\":1803:1925   */\n      pop\n      jump\t// out\n        /* \"#utility.yul\":1931:2070   */\n    tag_192:\n        /* \"#utility.yul\":1977:1982   */\n      0x00\n        /* \"#utility.yul\":2015:2021   */\n      dup2\n        /* \"#utility.yul\":2002:2022   */\n      calldataload\n        /* \"#utility.yul\":1993:2022   */\n      swap1\n      pop\n        /* \"#utility.yul\":2031:2064   */\n      tag_231\n        /* \"#utility.yul\":2058:2063   */\n      dup2\n        /* \"#utility.yul\":2031:2064   */\n      tag_191\n      jump\t// in\n    tag_231:\n        /* \"#utility.yul\":1931:2070   */\n      swap3\n      swap2\n      pop\n      pop\n      jump\t// out\n        /* \"#utility.yul\":2076:2153   */\n    tag_193:\n        /* \"#utility.yul\":2113:2120   */\n      0x00\n        /* \"#utility.yul\":2142:2147   */\n      dup2\n        /* \"#utility.yul\":2131:2147   */\n      swap1\n      pop\n        /* \"#utility.yul\":2076:2153   */\n      swap2\n      swap1\n      pop\n      jump\t// out\n        /* \"#utility.yul\":2159:2281   */\n    tag_194:\n        /* \"#utility.yul\":2232:2256   */\n      tag_234\n        /* \"#utility.yul\":2250:2255   */\n      dup2\n        /* \"#utility.yul\":2232:2256   */\n      tag_193\n      jump\t// in\n    tag_234:\n        /* \"#utility.yul\":2225:2230   */\n      dup2\n        /* \"#utility.yul\":2222:2257   */\n      eq\n        /* \"#utility.yul\":2212:2275   */\n      tag_235\n      jumpi\n        /* \"#utility.yul\":2271:2272   */\n      0x00\n        /* \"#utility.yul\":2268:2269   */\n      0x00\n        /* \"#utility.yul\":2261:2273   */\n      revert\n        /* \"#utility.yul\":2212:2275   */\n    tag_235:\n        /* \"#utility.yul\":2159:2281   */\n      pop\n      jump\t// out\n        /* \"#utility.yul\":2287:2426   */\n    tag_195:\n        /* \"#utility.yul\":2333:2338   */\n      0x00\n        /* \"#utility.yul\":2371:2377   */\n      dup2\n        /* \"#utility.yul\":2358:2378   */\n      calldataload\n        /* \"#utility.yul\":2349:2378   */\n      swap1\n      pop\n        /* \"#utility.yul\":2387:2420   */\n      tag_237\n        /* \"#utility.yul\":2414:2419   */\n      dup2\n        /* \"#utility.yul\":2387:2420   */\n      tag_194\n      jump\t// in\n    tag_237:\n        /* \"#utility.yul\":2287:2426   */\n      swap3\n      swap2\n      pop\n      pop\n      jump\t// out\n        /* \"#utility.yul\":2432:2906   */\n    tag_28:\n        /* \"#utility.yul\":2500:2506   */\n      0x00\n        /* \"#utility.yul\":2508:2514   */\n      0x00\n        /* \"#utility.yul\":2557:2559   */\n      0x40\n        /* \"#utility.yul\":2545:2554   */\n      dup4\n        /* \"#utility.yul\":2536:2543   */\n      dup6\n        /* \"#utility.yul\":2532:2555   */\n      sub\n        /* \"#utility.yul\":2528:2560   */\n      slt\n        /* \"#utility.yul\":2525:2644   */\n      iszero\n      tag_239\n      jumpi\n        /* \"#utility.yul\":2563:2642   */\n      tag_240\n      tag_187\n      jump\t// in\n    tag_240:\n        /* \"#utility.yul\":2525:2644   */\n    tag_239:\n        /* \"#utility.yul\":2683:2684   */\n      0x00\n        /* \"#utility.yul\":2708:2761   */\n      tag_241\n        /* \"#utility.yul\":2753:2760   */\n      dup6\n        /* \"#utility.yul\":2744:2750   */\n      dup3\n        /* \"#utility.yul\":2733:2742   */\n      dup7\n        /* \"#utility.yul\":2729:2751   */\n      add\n        /* \"#utility.yul\":2708:2761   */\n      tag_192\n      jump\t// in\n    tag_241:\n        /* \"#utility.yul\":2698:2761   */\n      swap3\n      pop\n        /* \"#utility.yul\":2654:2771   */\n      pop\n        /* \"#utility.yul\":2810:2812   */\n      0x20\n        /* \"#utility.yul\":2836:2889   */\n      tag_242\n        /* \"#utility.yul\":2881:2888   */\n      dup6\n        /* \"#utility.yul\":2872:2878   */\n      dup3\n        /* \"#utility.yul\":2861:2870   */\n      dup7\n        /* \"#utility.yul\":2857:2879   */\n      add\n        /* \"#utility.yul\":2836:2889   */\n      tag_195\n      jump\t// in\n    tag_242:\n        /* \"#utility.yul\":2826:2889   */\n      swap2\n      pop\n        /* \"#utility.yul\":2781:2899   */\n      pop\n        /* \"#utility.yul\":2432:2906   */\n      swap3\n      pop\n      swap3\n      swap1\n      pop\n      jump\t// out\n        /* \"#utility.yul\":2912:3002   */\n    tag_196:\n        /* \"#utility.yul\":2946:2953   */\n      0x00\n        /* \"#utility.yul\":2989:2994   */\n      dup2\n        /* \"#utility.yul\":2982:2995   */\n      iszero\n        /* \"#utility.yul\":2975:2996   */\n      iszero\n        /* \"#utility.yul\":2964:2996   */\n      swap1\n      pop\n        /* \"#utility.yul\":2912:3002   */\n      swap2\n      swap1\n      pop\n      jump\t// out\n        /* \"#utility.yul\":3008:3117   */\n    tag_197:\n        /* \"#utility.yul\":3089:3110   */\n      tag_245\n        /* \"#utility.yul\":3104:3109   */\n      dup2\n        /* \"#utility.yul\":3089:3110   */\n      tag_196\n      jump\t// in\n    tag_245:\n        /* \"#utility.yul\":3084:3087   */\n      dup3\n        /* \"#utility.yul\":3077:3111   */\n      mstore\n        /* \"#utility.yul\":3008:3117   */\n      pop\n      pop\n      jump\t// out\n        /* \"#utility.yul\":3123:3333   */\n    tag_31:\n        /* \"#utility.yul\":3210:3214   */\n      0x00\n        /* \"#utility.yul\":3248:3250   */\n      0x20\n        /* \"#utility.yul\":3237:3246   */\n      dup3\n        /* \"#utility.yul\":3233:3251   */\n      add\n        /* \"#utility.yul\":3225:3251   */\n      swap1\n      pop\n        /* \"#utility.yul\":3261:3326   */\n      tag_247\n        /* \"#utility.yul\":3323:3324   */\n      0x00\n        /* \"#utility.yul\":3312:3321   */\n      dup4\n        /* \"#utility.yul\":3308:3325   */\n      add\n        /* \"#utility.yul\":3299:3305   */\n      dup5\n        /* \"#utility.yul\":3261:3326   */\n      tag_197\n      jump\t// in\n    tag_247:\n        /* \"#utility.yul\":3123:3333   */\n      swap3\n      swap2\n      pop\n      pop\n      jump\t// out\n        /* \"#utility.yul\":3339:3457   */\n    tag_198:\n        /* \"#utility.yul\":3426:3450   */\n      tag_249\n        /* \"#utility.yul\":3444:3449   */\n      dup2\n        /* \"#utility.yul\":3426:3450   */\n      tag_190\n      jump\t// in\n    tag_249:\n        /* \"#utility.yul\":3421:3424   */\n      dup3\n        /* \"#utility.yul\":3414:3451   */\n      mstore\n        /* \"#utility.yul\":3339:3457   */\n      pop\n      pop\n      jump\t// out\n        /* \"#utility.yul\":3463:3685   */\n    tag_35:\n        /* \"#utility.yul\":3556:3560   */\n      0x00\n        /* \"#utility.yul\":3594:3596   */\n      0x20\n        /* \"#utility.yul\":3583:3592   */\n      dup3\n        /* \"#utility.yul\":3579:3597   */\n      add\n        /* \"#utility.yul\":3571:3597   */\n      swap1\n      pop\n        /* \"#utility.yul\":3607:3678   */\n      tag_251\n        /* \"#utility.yul\":3675:3676   */\n      0x00\n        /* \"#utility.yul\":3664:3673   */\n      dup4\n        /* \"#utility.yul\":3660:3677   */\n      add\n        /* \"#utility.yul\":3651:3657   */\n      dup5\n        /* \"#utility.yul\":3607:3678   */\n      tag_198\n      jump\t// in\n    tag_251:\n        /* \"#utility.yul\":3463:3685   */\n      swap3\n      swap2\n      pop\n      pop\n      jump\t// out\n        /* \"#utility.yul\":3691:3809   */\n    tag_199:\n        /* \"#utility.yul\":3778:3802   */\n      tag_253\n        /* \"#utility.yul\":3796:3801   */\n      dup2\n        /* \"#utility.yul\":3778:3802   */\n      tag_193\n      jump\t// in\n    tag_253:\n        /* \"#utility.yul\":3773:3776   */\n      dup3\n        /* \"#utility.yul\":3766:3803   */\n      mstore\n        /* \"#utility.yul\":3691:3809   */\n      pop\n      pop\n      jump\t// out\n        /* \"#utility.yul\":3815:4037   */\n    tag_39:\n        /* \"#utility.yul\":3908:3912   */\n      0x00\n        /* \"#utility.yul\":3946:3948   */\n      0x20\n        /* \"#utility.yul\":3935:3944   */\n      dup3\n        /* \"#utility.yul\":3931:3949   */\n      add\n        /* \"#utility.yul\":3923:3949   */\n      swap1\n      pop\n        /* \"#utility.yul\":3959:4030   */\n      tag_255\n        /* \"#utility.yul\":4027:4028   */\n      0x00\n        /* \"#utility.yul\":4016:4025   */\n      dup4\n        /* \"#utility.yul\":4012:4029   */\n      add\n        /* \"#utility.yul\":4003:4009   */\n      dup5\n        /* \"#utility.yul\":3959:4030   */\n      tag_199\n      jump\t// in\n    tag_255:\n        /* \"#utility.yul\":3815:4037   */\n      swap3\n      swap2\n      pop\n      pop\n      jump\t// out\n        /* \"#utility.yul\":4043:4662   */\n    tag_45:\n        /* \"#utility.yul\":4120:4126   */\n      0x00\n        /* \"#utility.yul\":4128:4134   */\n      0x00\n        /* \"#utility.yul\":4136:4142   */\n      0x00\n        /* \"#utility.yul\":4185:4187   */\n      0x60\n        /* \"#utility.yul\":4173:4182   */\n      dup5\n        /* \"#utility.yul\":4164:4171   */\n      dup7\n        /* \"#utility.yul\":4160:4183   */\n      sub\n        /* \"#utility.yul\":4156:4188   */\n      slt\n        /* \"#utility.yul\":4153:4272   */\n      iszero\n      tag_257\n      jumpi\n        /* \"#utility.yul\":4191:4270   */\n      tag_258\n      tag_187\n      jump\t// in\n    tag_258:\n        /* \"#utility.yul\":4153:4272   */\n    tag_257:\n        /* \"#utility.yul\":4311:4312   */\n      0x00\n        /* \"#utility.yul\":4336:4389   */\n      tag_259\n        /* \"#utility.yul\":4381:4388   */\n      dup7\n        /* \"#utility.yul\":4372:4378   */\n      dup3\n        /* \"#utility.yul\":4361:4370   */\n      dup8\n        /* \"#utility.yul\":4357:4379   */\n      add\n        /* \"#utility.yul\":4336:4389   */\n      tag_192\n      jump\t// in\n    tag_259:\n        /* \"#utility.yul\":4326:4389   */\n      swap4\n      pop\n        /* \"#utility.yul\":4282:4399   */\n      pop\n        /* \"#utility.yul\":4438:4440   */\n      0x20\n        /* \"#utility.yul\":4464:4517   */\n      tag_260\n        /* \"#utility.yul\":4509:4516   */\n      dup7\n        /* \"#utility.yul\":4500:4506   */\n      dup3\n        /* \"#utility.yul\":4489:4498   */\n      dup8\n        /* \"#utility.yul\":4485:4507   */\n      add\n        /* \"#utility.yul\":4464:4517   */\n      tag_192\n      jump\t// in\n    tag_260:\n        /* \"#utility.yul\":4454:4517   */\n      swap3\n      pop\n        /* \"#utility.yul\":4409:4527   */\n      pop\n        /* \"#utility.yul\":4566:4568   */\n      0x40\n        /* \"#utility.yul\":4592:4645   */\n      tag_261\n        /* \"#utility.yul\":4637:4644   */\n      dup7\n        /* \"#utility.yul\":4628:4634   */\n      dup3\n        /* \"#utility.yul\":4617:4626   */\n      dup8\n        /* \"#utility.yul\":4613:4635   */\n      add\n        /* \"#utility.yul\":4592:4645   */\n      tag_195\n      jump\t// in\n    tag_261:\n        /* \"#utility.yul\":4582:4645   */\n      swap2\n      pop\n        /* \"#utility.yul\":4537:4655   */\n      pop\n        /* \"#utility.yul\":4043:4662   */\n      swap3\n      pop\n      swap3\n      pop\n      swap3\n      jump\t// out\n        /* \"#utility.yul\":4668:4997   */\n    tag_53:\n        /* \"#utility.yul\":4727:4733   */\n      0x00\n        /* \"#utility.yul\":4776:4778   */\n      0x20\n        /* \"#utility.yul\":4764:4773   */\n      dup3\n        /* \"#utility.yul\":4755:4762   */\n      dup5\n        /* \"#utility.yul\":4751:4774   */\n      sub\n        /* \"#utility.yul\":4747:4779   */\n      slt\n        /* \"#utility.yul\":4744:4863   */\n      iszero\n      tag_263\n      jumpi\n        /* \"#utility.yul\":4782:4861   */\n      tag_264\n      tag_187\n      jump\t// in\n    tag_264:\n        /* \"#utility.yul\":4744:4863   */\n    tag_263:\n        /* \"#utility.yul\":4902:4903   */\n      0x00\n        /* \"#utility.yul\":4927:4980   */\n      tag_265\n        /* \"#utility.yul\":4972:4979   */\n      dup5\n        /* \"#utility.yul\":4963:4969   */\n      dup3\n        /* \"#utility.yul\":4952:4961   */\n      dup6\n        /* \"#utility.yul\":4948:4970   */\n      add\n        /* \"#utility.yul\":4927:4980   */\n      tag_195\n      jump\t// in\n    tag_265:\n        /* \"#utility.yul\":4917:4980   */\n      swap2\n      pop\n        /* \"#utility.yul\":4873:4990   */\n      pop\n        /* \"#utility.yul\":4668:4997   */\n      swap3\n      swap2\n      pop\n      pop\n      jump\t// out\n        /* \"#utility.yul\":5003:5332   */\n    tag_60:\n        /* \"#utility.yul\":5062:5068   */\n      0x00\n        /* \"#utility.yul\":5111:5113   */\n      0x20\n        /* \"#utility.yul\":5099:5108   */\n      dup3\n        /* \"#utility.yul\":5090:5097   */\n      dup5\n        /* \"#utility.yul\":5086:5109   */\n      sub\n        /* \"#utility.yul\":5082:5114   */\n      slt\n        /* \"#utility.yul\":5079:5198   */\n      iszero\n      tag_267\n      jumpi\n        /* \"#utility.yul\":5117:5196   */\n      tag_268\n      tag_187\n      jump\t// in\n    tag_268:\n        /* \"#utility.yul\":5079:5198   */\n    tag_267:\n        /* \"#utility.yul\":5237:5238   */\n      0x00\n        /* \"#utility.yul\":5262:5315   */\n      tag_269\n        /* \"#utility.yul\":5307:5314   */\n      dup5\n        /* \"#utility.yul\":5298:5304   */\n      dup3\n        /* \"#utility.yul\":5287:5296   */\n      dup6\n        /* \"#utility.yul\":5283:5305   */\n      add\n        /* \"#utility.yul\":5262:5315   */\n      tag_192\n      jump\t// in\n    tag_269:\n        /* \"#utility.yul\":5252:5315   */\n      swap2\n      pop\n        /* \"#utility.yul\":5208:5325   */\n      pop\n        /* \"#utility.yul\":5003:5332   */\n      swap3\n      swap2\n      pop\n      pop\n      jump\t// out\n        /* \"#utility.yul\":5338:5812   */\n    tag_79:\n        /* \"#utility.yul\":5406:5412   */\n      0x00\n        /* \"#utility.yul\":5414:5420   */\n      0x00\n        /* \"#utility.yul\":5463:5465   */\n      0x40\n        /* \"#utility.yul\":5451:5460   */\n      dup4\n        /* \"#utility.yul\":5442:5449   */\n      dup6\n        /* \"#utility.yul\":5438:5461   */\n      sub\n        /* \"#utility.yul\":5434:5466   */\n      slt\n        /* \"#utility.yul\":5431:5550   */\n      iszero\n      tag_271\n      jumpi\n        /* \"#utility.yul\":5469:5548   */\n      tag_272\n      tag_187\n      jump\t// in\n    tag_272:\n        /* \"#utility.yul\":5431:5550   */\n    tag_271:\n        /* \"#utility.yul\":5589:5590   */\n      0x00\n        /* \"#utility.yul\":5614:5667   */\n      tag_273\n        /* \"#utility.yul\":5659:5666   */\n      dup6\n        /* \"#utility.yul\":5650:5656   */\n      dup3\n        /* \"#utility.yul\":5639:5648   */\n      dup7\n        /* \"#utility.yul\":5635:5657   */\n      add\n        /* \"#utility.yul\":5614:5667   */\n      tag_192\n      jump\t// in\n    tag_273:\n        /* \"#utility.yul\":5604:5667   */\n      swap3\n      pop\n        /* \"#utility.yul\":5560:5677   */\n      pop\n        /* \"#utility.yul\":5716:5718   */\n      0x20\n        /* \"#utility.yul\":5742:5795   */\n      tag_274\n        /* \"#utility.yul\":5787:5794   */\n      dup6\n        /* \"#utility.yul\":5778:5784   */\n      dup3\n        /* \"#utility.yul\":5767:5776   */\n      dup7\n        /* \"#utility.yul\":5763:5785   */\n      add\n        /* \"#utility.yul\":5742:5795   */\n      tag_192\n      jump\t// in\n    tag_274:\n        /* \"#utility.yul\":5732:5795   */\n      swap2\n      pop\n        /* \"#utility.yul\":5687:5805   */\n      pop\n        /* \"#utility.yul\":5338:5812   */\n      swap3\n      pop\n      swap3\n      swap1\n      pop\n      jump\t// out\n        /* \"#utility.yul\":5818:5998   */\n    tag_200:\n        /* \"#utility.yul\":5866:5943   */\n      0x4e487b7100000000000000000000000000000000000000000000000000000000\n        /* \"#utility.yul\":5863:5864   */\n      0x00\n        /* \"#utility.yul\":5856:5944   */\n      mstore\n        /* \"#utility.yul\":5963:5967   */\n      0x22\n        /* \"#utility.yul\":5960:5961   */\n      0x04\n        /* \"#utility.yul\":5953:5968   */\n      mstore\n        /* \"#utility.yul\":5987:5991   */\n      0x24\n        /* \"#utility.yul\":5984:5985   */\n      0x00\n        /* \"#utility.yul\":5977:5992   */\n      revert\n        /* \"#utility.yul\":6004:6324   */\n    tag_86:\n        /* \"#utility.yul\":6048:6054   */\n      0x00\n        /* \"#utility.yul\":6085:6086   */\n      0x02\n        /* \"#utility.yul\":6079:6083   */\n      dup3\n        /* \"#utility.yul\":6075:6087   */\n      div\n        /* \"#utility.yul\":6065:6087   */\n      swap1\n      pop\n        /* \"#utility.yul\":6132:6133   */\n      0x01\n        /* \"#utility.yul\":6126:6130   */\n      dup3\n        /* \"#utility.yul\":6122:6134   */\n      and\n        /* \"#utility.yul\":6153:6171   */\n      dup1\n        /* \"#utility.yul\":6143:6224   */\n      tag_277\n      jumpi\n        /* \"#utility.yul\":6209:6213   */\n      0x7f\n        /* \"#utility.yul\":6201:6207   */\n      dup3\n        /* \"#utility.yul\":6197:6214   */\n      and\n        /* \"#utility.yul\":6187:6214   */\n      swap2\n      pop\n        /* \"#utility.yul\":6143:6224   */\n    tag_277:\n        /* \"#utility.yul\":6271:6273   */\n      0x20\n        /* \"#utility.yul\":6263:6269   */\n      dup3\n        /* \"#utility.yul\":6260:6274   */\n      lt\n        /* \"#utility.yul\":6240:6258   */\n      dup2\n        /* \"#utility.yul\":6237:6275   */\n      sub\n        /* \"#utility.yul\":6234:6318   */\n      tag_278\n      jumpi\n        /* \"#utility.yul\":6290:6308   */\n      tag_279\n      tag_200\n      jump\t// in\n    tag_279:\n        /* \"#utility.yul\":6234:6318   */\n    tag_278:\n        /* \"#utility.yul\":6055:6324   */\n      pop\n        /* \"#utility.yul\":6004:6324   */\n      swap2\n      swap1\n      pop\n      jump\t// out\n        /* \"#utility.yul\":6330:6481   */\n    tag_201:\n        /* \"#utility.yul\":6470:6473   */\n      0x3100000000000000000000000000000000000000000000000000000000000000\n        /* \"#utility.yul\":6466:6467   */\n      0x00\n        /* \"#utility.yul\":6458:6464   */\n      dup3\n        /* \"#utility.yul\":6454:6468   */\n      add\n        /* \"#utility.yul\":6447:6474   */\n      mstore\n        /* \"#utility.yul\":6330:6481   */\n      pop\n      jump\t// out\n        /* \"#utility.yul\":6487:6852   */\n    tag_202:\n        /* \"#utility.yul\":6629:6632   */\n      0x00\n        /* \"#utility.yul\":6650:6716   */\n      tag_282\n        /* \"#utility.yul\":6714:6715   */\n      0x01\n        /* \"#utility.yul\":6709:6712   */\n      dup4\n        /* \"#utility.yul\":6650:6716   */\n      tag_182\n      jump\t// in\n    tag_282:\n        /* \"#utility.yul\":6643:6716   */\n      swap2\n      pop\n        /* \"#utility.yul\":6725:6818   */\n      tag_283\n        /* \"#utility.yul\":6814:6817   */\n      dup3\n        /* \"#utility.yul\":6725:6818   */\n      tag_201\n      jump\t// in\n    tag_283:\n        /* \"#utility.yul\":6843:6845   */\n      0x20\n        /* \"#utility.yul\":6838:6841   */\n      dup3\n        /* \"#utility.yul\":6834:6846   */\n      add\n        /* \"#utility.yul\":6827:6846   */\n      swap1\n      pop\n        /* \"#utility.yul\":6487:6852   */\n      swap2\n      swap1\n      pop\n      jump\t// out\n        /* \"#utility.yul\":6858:7277   */\n    tag_94:\n        /* \"#utility.yul\":7024:7028   */\n      0x00\n        /* \"#utility.yul\":7062:7064   */\n      0x20\n        /* \"#utility.yul\":7051:7060   */\n      dup3\n        /* \"#utility.yul\":7047:7065   */\n      add\n        /* \"#utility.yul\":7039:7065   */\n      swap1\n      pop\n        /* \"#utility.yul\":7111:7120   */\n      dup2\n        /* \"#utility.yul\":7105:7109   */\n      dup2\n        /* \"#utility.yul\":7101:7121   */\n      sub\n        /* \"#utility.yul\":7097:7098   */\n      0x00\n        /* \"#utility.yul\":7086:7095   */\n      dup4\n        /* \"#utility.yul\":7082:7099   */\n      add\n        /* \"#utility.yul\":7075:7122   */\n      mstore\n        /* \"#utility.yul\":7139:7270   */\n      tag_285\n        /* \"#utility.yul\":7265:7269   */\n      dup2\n        /* \"#utility.yul\":7139:7270   */\n      tag_202\n      jump\t// in\n    tag_285:\n        /* \"#utility.yul\":7131:7270   */\n      swap1\n      pop\n        /* \"#utility.yul\":6858:7277   */\n      swap2\n      swap1\n      pop\n      jump\t// out\n        /* \"#utility.yul\":7283:7463   */\n    tag_203:\n        /* \"#utility.yul\":7331:7408   */\n      0x4e487b7100000000000000000000000000000000000000000000000000000000\n        /* \"#utility.yul\":7328:7329   */\n      0x00\n        /* \"#utility.yul\":7321:7409   */\n      mstore\n        /* \"#utility.yul\":7428:7432   */\n      0x11\n        /* \"#utility.yul\":7425:7426   */\n      0x04\n        /* \"#utility.yul\":7418:7433   */\n      mstore\n        /* \"#utility.yul\":7452:7456   */\n      0x24\n        /* \"#utility.yul\":7449:7450   */\n      0x00\n        /* \"#utility.yul\":7442:7457   */\n      revert\n        /* \"#utility.yul\":7469:7663   */\n    tag_104:\n        /* \"#utility.yul\":7509:7513   */\n      0x00\n        /* \"#utility.yul\":7529:7549   */\n      tag_288\n        /* \"#utility.yul\":7547:7548   */\n      dup3\n        /* \"#utility.yul\":7529:7549   */\n      tag_193\n      jump\t// in\n    tag_288:\n        /* \"#utility.yul\":7524:7549   */\n      swap2\n      pop\n        /* \"#utility.yul\":7563:7583   */\n      tag_289\n        /* \"#utility.yul\":7581:7582   */\n      dup4\n        /* \"#utility.yul\":7563:7583   */\n      tag_193\n      jump\t// in\n    tag_289:\n        /* \"#utility.yul\":7558:7583   */\n      swap3\n      pop\n        /* \"#utility.yul\":7607:7608   */\n      dup3\n        /* \"#utility.yul\":7604:7605   */\n      dup3\n        /* \"#utility.yul\":7600:7609   */\n      sub\n        /* \"#utility.yul\":7592:7609   */\n      swap1\n      pop\n        /* \"#utility.yul\":7631:7632   */\n      dup2\n        /* \"#utility.yul\":7625:7629   */\n      dup2\n        /* \"#utility.yul\":7622:7633   */\n      gt\n        /* \"#utility.yul\":7619:7656   */\n      iszero\n      tag_290\n      jumpi\n        /* \"#utility.yul\":7636:7654   */\n      tag_291\n      tag_203\n      jump\t// in\n    tag_291:\n        /* \"#utility.yul\":7619:7656   */\n    tag_290:\n        /* \"#utility.yul\":7469:7663   */\n      swap3\n      swap2\n      pop\n      pop\n      jump\t// out\n        /* \"#utility.yul\":7669:7860   */\n    tag_106:\n        /* \"#utility.yul\":7709:7712   */\n      0x00\n        /* \"#utility.yul\":7728:7748   */\n      tag_293\n        /* \"#utility.yul\":7746:7747   */\n      dup3\n        /* \"#utility.yul\":7728:7748   */\n      tag_193\n      jump\t// in\n    tag_293:\n        /* \"#utility.yul\":7723:7748   */\n      swap2\n      pop\n        /* \"#utility.yul\":7762:7782   */\n      tag_294\n        /* \"#utility.yul\":7780:7781   */\n      dup4\n        /* \"#utility.yul\":7762:7782   */\n      tag_193\n      jump\t// in\n    tag_294:\n        /* \"#utility.yul\":7757:7782   */\n      swap3\n      pop\n        /* \"#utility.yul\":7805:7806   */\n      dup3\n        /* \"#utility.yul\":7802:7803   */\n      dup3\n        /* \"#utility.yul\":7798:7807   */\n      add\n        /* \"#utility.yul\":7791:7807   */\n      swap1\n      pop\n        /* \"#utility.yul\":7826:7829   */\n      dup1\n        /* \"#utility.yul\":7823:7824   */\n      dup3\n        /* \"#utility.yul\":7820:7830   */\n      gt\n        /* \"#utility.yul\":7817:7853   */\n      iszero\n      tag_295\n      jumpi\n        /* \"#utility.yul\":7833:7851   */\n      tag_296\n      tag_203\n      jump\t// in\n    tag_296:\n        /* \"#utility.yul\":7817:7853   */\n    tag_295:\n        /* \"#utility.yul\":7669:7860   */\n      swap3\n      swap2\n      pop\n      pop\n      jump\t// out\n        /* \"#utility.yul\":7866:8009   */\n    tag_204:\n        /* \"#utility.yul\":7923:7928   */\n      0x00\n        /* \"#utility.yul\":7954:7960   */\n      dup2\n        /* \"#utility.yul\":7948:7961   */\n      mload\n        /* \"#utility.yul\":7939:7961   */\n      swap1\n      pop\n        /* \"#utility.yul\":7970:8003   */\n      tag_298\n        /* \"#utility.yul\":7997:8002   */\n      dup2\n        /* \"#utility.yul\":7970:8003   */\n      tag_194\n      jump\t// in\n    tag_298:\n        /* \"#utility.yul\":7866:8009   */\n      swap3\n      swap2\n      pop\n      pop\n      jump\t// out\n        /* \"#utility.yul\":8015:8366   */\n    tag_118:\n        /* \"#utility.yul\":8085:8091   */\n      0x00\n        /* \"#utility.yul\":8134:8136   */\n      0x20\n        /* \"#utility.yul\":8122:8131   */\n      dup3\n        /* \"#utility.yul\":8113:8120   */\n      dup5\n        /* \"#utility.yul\":8109:8132   */\n      sub\n        /* \"#utility.yul\":8105:8137   */\n      slt\n        /* \"#utility.yul\":8102:8221   */\n      iszero\n      tag_300\n      jumpi\n        /* \"#utility.yul\":8140:8219   */\n      tag_301\n      tag_187\n      jump\t// in\n    tag_301:\n        /* \"#utility.yul\":8102:8221   */\n    tag_300:\n        /* \"#utility.yul\":8260:8261   */\n      0x00\n        /* \"#utility.yul\":8285:8349   */\n      tag_302\n        /* \"#utility.yul\":8341:8348   */\n      dup5\n        /* \"#utility.yul\":8332:8338   */\n      dup3\n        /* \"#utility.yul\":8321:8330   */\n      dup6\n        /* \"#utility.yul\":8317:8339   */\n      add\n        /* \"#utility.yul\":8285:8349   */\n      tag_204\n      jump\t// in\n    tag_302:\n        /* \"#utility.yul\":8275:8349   */\n      swap2\n      pop\n        /* \"#utility.yul\":8231:8359   */\n      pop\n        /* \"#utility.yul\":8015:8366   */\n      swap3\n      swap2\n      pop\n      pop\n      jump\t// out\n        /* \"#utility.yul\":8372:8704   */\n    tag_122:\n        /* \"#utility.yul\":8493:8497   */\n      0x00\n        /* \"#utility.yul\":8531:8533   */\n      0x40\n        /* \"#utility.yul\":8520:8529   */\n      dup3\n        /* \"#utility.yul\":8516:8534   */\n      add\n        /* \"#utility.yul\":8508:8534   */\n      swap1\n      pop\n        /* \"#utility.yul\":8544:8615   */\n      tag_304\n        /* \"#utility.yul\":8612:8613   */\n      0x00\n        /* \"#utility.yul\":8601:8610   */\n      dup4\n        /* \"#utility.yul\":8597:8614   */\n      add\n        /* \"#utility.yul\":8588:8594   */\n      dup6\n        /* \"#utility.yul\":8544:8615   */\n      tag_198\n      jump\t// in\n    tag_304:\n        /* \"#utility.yul\":8625:8697   */\n      tag_305\n        /* \"#utility.yul\":8693:8695   */\n      0x20\n        /* \"#utility.yul\":8682:8691   */\n      dup4\n        /* \"#utility.yul\":8678:8696   */\n      add\n        /* \"#utility.yul\":8669:8675   */\n      dup5\n        /* \"#utility.yul\":8625:8697   */\n      tag_199\n      jump\t// in\n    tag_305:\n        /* \"#utility.yul\":8372:8704   */\n      swap4\n      swap3\n      pop\n      pop\n      pop\n      jump\t// out\n        /* \"#utility.yul\":8710:8826   */\n    tag_205:\n        /* \"#utility.yul\":8780:8801   */\n      tag_307\n        /* \"#utility.yul\":8795:8800   */\n      dup2\n        /* \"#utility.yul\":8780:8801   */\n      tag_196\n      jump\t// in\n    tag_307:\n        /* \"#utility.yul\":8773:8778   */\n      dup2\n        /* \"#utility.yul\":8770:8802   */\n      eq\n        /* \"#utility.yul\":8760:8820   */\n      tag_308\n      jumpi\n        /* \"#utility.yul\":8816:8817   */\n      0x00\n        /* \"#utility.yul\":8813:8814   */\n      0x00\n        /* \"#utility.yul\":8806:8818   */\n      revert\n        /* \"#utility.yul\":8760:8820   */\n    tag_308:\n        /* \"#utility.yul\":8710:8826   */\n      pop\n      jump\t// out\n        /* \"#utility.yul\":8832:8969   */\n    tag_206:\n        /* \"#utility.yul\":8886:8891   */\n      0x00\n        /* \"#utility.yul\":8917:8923   */\n      dup2\n        /* \"#utility.yul\":8911:8924   */\n      mload\n        /* \"#utility.yul\":8902:8924   */\n      swap1\n      pop\n        /* \"#utility.yul\":8933:8963   */\n      tag_310\n        /* \"#utility.yul\":8957:8962   */\n      dup2\n        /* \"#utility.yul\":8933:8963   */\n      tag_205\n      jump\t// in\n    tag_310:\n        /* \"#utility.yul\":8832:8969   */\n      swap3\n      swap2\n      pop\n      pop\n      jump\t// out\n        /* \"#utility.yul\":8975:9320   */\n    tag_126:\n        /* \"#utility.yul\":9042:9048   */\n      0x00\n        /* \"#utility.yul\":9091:9093   */\n      0x20\n        /* \"#utility.yul\":9079:9088   */\n      dup3\n        /* \"#utility.yul\":9070:9077   */\n      dup5\n        /* \"#utility.yul\":9066:9089   */\n      sub\n        /* \"#utility.yul\":9062:9094   */\n      slt\n        /* \"#utility.yul\":9059:9178   */\n      iszero\n      tag_312\n      jumpi\n        /* \"#utility.yul\":9097:9176   */\n      tag_313\n      tag_187\n      jump\t// in\n    tag_313:\n        /* \"#utility.yul\":9059:9178   */\n    tag_312:\n        /* \"#utility.yul\":9217:9218   */\n      0x00\n        /* \"#utility.yul\":9242:9303   */\n      tag_314\n        /* \"#utility.yul\":9295:9302   */\n      dup5\n        /* \"#utility.yul\":9286:9292   */\n      dup3\n        /* \"#utility.yul\":9275:9284   */\n      dup6\n        /* \"#utility.yul\":9271:9293   */\n      add\n        /* \"#utility.yul\":9242:9303   */\n      tag_206\n      jump\t// in\n    tag_314:\n        /* \"#utility.yul\":9232:9303   */\n      swap2\n      pop\n        /* \"#utility.yul\":9188:9313   */\n      pop\n        /* \"#utility.yul\":8975:9320   */\n      swap3\n      swap2\n      pop\n      pop\n      jump\t// out\n        /* \"#utility.yul\":9326:9768   */\n    tag_139:\n        /* \"#utility.yul\":9475:9479   */\n      0x00\n        /* \"#utility.yul\":9513:9515   */\n      0x60\n        /* \"#utility.yul\":9502:9511   */\n      dup3\n        /* \"#utility.yul\":9498:9516   */\n      add\n        /* \"#utility.yul\":9490:9516   */\n      swap1\n      pop\n        /* \"#utility.yul\":9526:9597   */\n      tag_316\n        /* \"#utility.yul\":9594:9595   */\n      0x00\n        /* \"#utility.yul\":9583:9592   */\n      dup4\n        /* \"#utility.yul\":9579:9596   */\n      add\n        /* \"#utility.yul\":9570:9576   */\n      dup7\n        /* \"#utility.yul\":9526:9597   */\n      tag_198\n      jump\t// in\n    tag_316:\n        /* \"#utility.yul\":9607:9679   */\n      tag_317\n        /* \"#utility.yul\":9675:9677   */\n      0x20\n        /* \"#utility.yul\":9664:9673   */\n      dup4\n        /* \"#utility.yul\":9660:9678   */\n      add\n        /* \"#utility.yul\":9651:9657   */\n      dup6\n        /* \"#utility.yul\":9607:9679   */\n      tag_198\n      jump\t// in\n    tag_317:\n        /* \"#utility.yul\":9689:9761   */\n      tag_318\n        /* \"#utility.yul\":9757:9759   */\n      0x40\n        /* \"#utility.yul\":9746:9755   */\n      dup4\n        /* \"#utility.yul\":9742:9760   */\n      add\n        /* \"#utility.yul\":9733:9739   */\n      dup5\n        /* \"#utility.yul\":9689:9761   */\n      tag_199\n      jump\t// in\n    tag_318:\n        /* \"#utility.yul\":9326:9768   */\n      swap5\n      swap4\n      pop\n      pop\n      pop\n      pop\n      jump\t// out\n        /* \"#utility.yul\":9774:10184   */\n    tag_146:\n        /* \"#utility.yul\":9814:9821   */\n      0x00\n        /* \"#utility.yul\":9837:9857   */\n      tag_320\n        /* \"#utility.yul\":9855:9856   */\n      dup3\n        /* \"#utility.yul\":9837:9857   */\n      tag_193\n      jump\t// in\n    tag_320:\n        /* \"#utility.yul\":9832:9857   */\n      swap2\n      pop\n        /* \"#utility.yul\":9871:9891   */\n      tag_321\n        /* \"#utility.yul\":9889:9890   */\n      dup4\n        /* \"#utility.yul\":9871:9891   */\n      tag_193\n      jump\t// in\n    tag_321:\n        /* \"#utility.yul\":9866:9891   */\n      swap3\n      pop\n        /* \"#utility.yul\":9926:9927   */\n      dup3\n        /* \"#utility.yul\":9923:9924   */\n      dup3\n        /* \"#utility.yul\":9919:9928   */\n      mul\n        /* \"#utility.yul\":9948:9978   */\n      tag_322\n        /* \"#utility.yul\":9966:9977   */\n      dup2\n        /* \"#utility.yul\":9948:9978   */\n      tag_193\n      jump\t// in\n    tag_322:\n        /* \"#utility.yul\":9937:9978   */\n      swap2\n      pop\n        /* \"#utility.yul\":10127:10128   */\n      dup3\n        /* \"#utility.yul\":10118:10125   */\n      dup3\n        /* \"#utility.yul\":10114:10129   */\n      div\n        /* \"#utility.yul\":10111:10112   */\n      dup5\n        /* \"#utility.yul\":10108:10130   */\n      eq\n        /* \"#utility.yul\":10088:10089   */\n      dup4\n        /* \"#utility.yul\":10081:10090   */\n      iszero\n        /* \"#utility.yul\":10061:10144   */\n      or\n        /* \"#utility.yul\":10038:10177   */\n      tag_323\n      jumpi\n        /* \"#utility.yul\":10157:10175   */\n      tag_324\n      tag_203\n      jump\t// in\n    tag_324:\n        /* \"#utility.yul\":10038:10177   */\n    tag_323:\n        /* \"#utility.yul\":9822:10184   */\n      pop\n        /* \"#utility.yul\":9774:10184   */\n      swap3\n      swap2\n      pop\n      pop\n      jump\t// out\n        /* \"#utility.yul\":10190:10743   */\n    tag_150:\n        /* \"#utility.yul\":10367:10371   */\n      0x00\n        /* \"#utility.yul\":10405:10408   */\n      0x80\n        /* \"#utility.yul\":10394:10403   */\n      dup3\n        /* \"#utility.yul\":10390:10409   */\n      add\n        /* \"#utility.yul\":10382:10409   */\n      swap1\n      pop\n        /* \"#utility.yul\":10419:10490   */\n      tag_326\n        /* \"#utility.yul\":10487:10488   */\n      0x00\n        /* \"#utility.yul\":10476:10485   */\n      dup4\n        /* \"#utility.yul\":10472:10489   */\n      add\n        /* \"#utility.yul\":10463:10469   */\n      dup8\n        /* \"#utility.yul\":10419:10490   */\n      tag_198\n      jump\t// in\n    tag_326:\n        /* \"#utility.yul\":10500:10572   */\n      tag_327\n        /* \"#utility.yul\":10568:10570   */\n      0x20\n        /* \"#utility.yul\":10557:10566   */\n      dup4\n        /* \"#utility.yul\":10553:10571   */\n      add\n        /* \"#utility.yul\":10544:10550   */\n      dup7\n        /* \"#utility.yul\":10500:10572   */\n      tag_199\n      jump\t// in\n    tag_327:\n        /* \"#utility.yul\":10582:10654   */\n      tag_328\n        /* \"#utility.yul\":10650:10652   */\n      0x40\n        /* \"#utility.yul\":10639:10648   */\n      dup4\n        /* \"#utility.yul\":10635:10653   */\n      add\n        /* \"#utility.yul\":10626:10632   */\n      dup6\n        /* \"#utility.yul\":10582:10654   */\n      tag_199\n      jump\t// in\n    tag_328:\n        /* \"#utility.yul\":10664:10736   */\n      tag_329\n        /* \"#utility.yul\":10732:10734   */\n      0x60\n        /* \"#utility.yul\":10721:10730   */\n      dup4\n        /* \"#utility.yul\":10717:10735   */\n      add\n        /* \"#utility.yul\":10708:10714   */\n      dup5\n        /* \"#utility.yul\":10664:10736   */\n      tag_199\n      jump\t// in\n    tag_329:\n        /* \"#utility.yul\":10190:10743   */\n      swap6\n      swap5\n      pop\n      pop\n      pop\n      pop\n      pop\n      jump\t// out\n        /* \"#utility.yul\":10749:10930   */\n    tag_207:\n        /* \"#utility.yul\":10889:10922   */\n      0x5265656e7472616e637947756172643a207265656e7472616e742063616c6c00\n        /* \"#utility.yul\":10885:10886   */\n      0x00\n        /* \"#utility.yul\":10877:10883   */\n      dup3\n        /* \"#utility.yul\":10873:10887   */\n      add\n        /* \"#utility.yul\":10866:10923   */\n      mstore\n        /* \"#utility.yul\":10749:10930   */\n      pop\n      jump\t// out\n        /* \"#utility.yul\":10936:11302   */\n    tag_208:\n        /* \"#utility.yul\":11078:11081   */\n      0x00\n        /* \"#utility.yul\":11099:11166   */\n      tag_332\n        /* \"#utility.yul\":11163:11165   */\n      0x1f\n        /* \"#utility.yul\":11158:11161   */\n      dup4\n        /* \"#utility.yul\":11099:11166   */\n      tag_182\n      jump\t// in\n    tag_332:\n        /* \"#utility.yul\":11092:11166   */\n      swap2\n      pop\n        /* \"#utility.yul\":11175:11268   */\n      tag_333\n        /* \"#utility.yul\":11264:11267   */\n      dup3\n        /* \"#utility.yul\":11175:11268   */\n      tag_207\n      jump\t// in\n    tag_333:\n        /* \"#utility.yul\":11293:11295   */\n      0x20\n        /* \"#utility.yul\":11288:11291   */\n      dup3\n        /* \"#utility.yul\":11284:11296   */\n      add\n        /* \"#utility.yul\":11277:11296   */\n      swap1\n      pop\n        /* \"#utility.yul\":10936:11302   */\n      swap2\n      swap1\n      pop\n      jump\t// out\n        /* \"#utility.yul\":11308:11727   */\n    tag_173:\n        /* \"#utility.yul\":11474:11478   */\n      0x00\n        /* \"#utility.yul\":11512:11514   */\n      0x20\n        /* \"#utility.yul\":11501:11510   */\n      dup3\n        /* \"#utility.yul\":11497:11515   */\n      add\n        /* \"#utility.yul\":11489:11515   */\n      swap1\n      pop\n        /* \"#utility.yul\":11561:11570   */\n      dup2\n        /* \"#utility.yul\":11555:11559   */\n      dup2\n        /* \"#utility.yul\":11551:11571   */\n      sub\n        /* \"#utility.yul\":11547:11548   */\n      0x00\n        /* \"#utility.yul\":11536:11545   */\n      dup4\n        /* \"#utility.yul\":11532:11549   */\n      add\n        /* \"#utility.yul\":11525:11572   */\n      mstore\n        /* \"#utility.yul\":11589:11720   */\n      tag_335\n        /* \"#utility.yul\":11715:11719   */\n      dup2\n        /* \"#utility.yul\":11589:11720   */\n      tag_208\n      jump\t// in\n    tag_335:\n        /* \"#utility.yul\":11581:11720   */\n      swap1\n      pop\n        /* \"#utility.yul\":11308:11727   */\n      swap2\n      swap1\n      pop\n      jump\t// out\n\n    auxdata: 0xa26469706673582212205a0e38d9a2e1cd474c7ec9a2cb1682b32839dcdf8392b66f35dbdb201c2d21f264736f6c634300081e0033\n}\n",
				"bytecode": {
					"linkReferences": {},
					"object": "60806040526040518060400160405280600b81526020017f526577617264546f6b656e00000000000000000000000000000000000000000081525060019081610048919061038a565b506040518060400160405280600381526020017f52575400000000000000000000000000000000000000000000000000000000008152506002908161008d919061038a565b50601260035534801561009e575f5ffd5b50604051611f84380380611f8483398181016040528101906100c091906104b7565b60015f819055503360055f6101000a81548173ffffffffffffffffffffffffffffffffffffffff021916908373ffffffffffffffffffffffffffffffffffffffff1602179055508060065f6101000a81548173ffffffffffffffffffffffffffffffffffffffff021916908373ffffffffffffffffffffffffffffffffffffffff160217905550506104e2565b5f81519050919050565b7f4e487b71000000000000000000000000000000000000000000000000000000005f52604160045260245ffd5b7f4e487b71000000000000000000000000000000000000000000000000000000005f52602260045260245ffd5b5f60028204905060018216806101c857607f821691505b6020821081036101db576101da610184565b5b50919050565b5f819050815f5260205f209050919050565b5f6020601f8301049050919050565b5f82821b905092915050565b5f6008830261023d7fffffffffffffffffffffffffffffffffffffffffffffffffffffffffffffffff82610202565b6102478683610202565b95508019841693508086168417925050509392505050565b5f819050919050565b5f819050919050565b5f61028b6102866102818461025f565b610268565b61025f565b9050919050565b5f819050919050565b6102a483610271565b6102b86102b082610292565b84845461020e565b825550505050565b5f5f905090565b6102cf6102c0565b6102da81848461029b565b505050565b5b818110156102fd576102f25f826102c7565b6001810190506102e0565b5050565b601f82111561034257610313816101e1565b61031c846101f3565b8101602085101561032b578190505b61033f610337856101f3565b8301826102df565b50505b505050565b5f82821c905092915050565b5f6103625f1984600802610347565b1980831691505092915050565b5f61037a8383610353565b9150826002028217905092915050565b6103938261014d565b67ffffffffffffffff8111156103ac576103ab610157565b5b6103b682546101b1565b6103c1828285610301565b5f60209050601f8311600181146103f2575f84156103e0578287015190505b6103ea858261036f565b865550610451565b601f198416610400866101e1565b5f5b8281101561042757848901518255600182019150602085019450602081019050610402565b868310156104445784890151610440601f891682610353565b8355505b6001600288020188555050505b505050505050565b5f5ffd5b5f73ffffffffffffffffffffffffffffffffffffffff82169050919050565b5f6104868261045d565b9050919050565b6104968161047c565b81146104a0575f5ffd5b50565b5f815190506104b18161048d565b92915050565b5f602082840312156104cc576104cb610459565b5b5f6104d9848285016104a3565b91505092915050565b611a95806104ef5f395ff3fe608060405234801561000f575f5ffd5b50600436106100fe575f3560e01c80636215be7711610095578063a9059cbb11610064578063a9059cbb146102ae578063bc2f2dcf146102de578063dd62ed3e146102fa578063f851a4401461032a576100fe565b80636215be771461021457806370a082311461023057806394cbc0271461026057806395d89b4114610290576100fe565b806318160ddd116100d157806318160ddd1461018c57806323b872dd146101aa578063313ce567146101da57806350baa622146101f8576100fe565b806306fdde0314610102578063095ea7b3146101205780630ee0599c1461015057806314a8bd0d1461016e575b5f5ffd5b61010a610348565b60405161011791906114d5565b60405180910390f35b61013a60048036038101906101359190611586565b6103d4565b60405161014791906115de565b60405180910390f35b61015861052f565b6040516101659190611606565b60405180910390f35b610176610554565b604051610183919061162e565b60405180910390f35b610194610559565b6040516101a1919061162e565b60405180910390f35b6101c460048036038101906101bf9190611647565b61055f565b6040516101d191906115de565b60405180910390f35b6101e26108ad565b6040516101ef919061162e565b60405180910390f35b610212600480360381019061020d9190611697565b6108b3565b005b61022e60048036038101906102299190611697565b610c3d565b005b61024a600480360381019061024591906116c2565b610ecb565b604051610257919061162e565b60405180910390f35b61027a600480360381019061027591906116c2565b610ee0565b604051610287919061162e565b60405180910390f35b610298610f26565b6040516102a591906114d5565b60405180910390f35b6102c860048036038101906102c39190611586565b610fb2565b6040516102d591906115de565b60405180910390f35b6102f860048036038101906102f391906116c2565b6111b6565b005b610314600480360381019061030f91906116ed565b611288565b604051610321919061162e565b60405180910390f35b6103326112a8565b60405161033f9190611606565b60405180910390f35b6001805461035590611758565b80601f016020809104026020016040519081016040528092919081815260200182805461038190611758565b80156103cc5780601f106103a3576101008083540402835291602001916103cc565b820191905f5260205f20905b8154815290600101906020018083116103af57829003601f168201915b505050505081565b5f5f73ffffffffffffffffffffffffffffffffffffffff168373ffffffffffffffffffffffffffffffffffffffff1603610443576040517f08c379a000000000000000000000000000000000000000000000000000000000815260040161043a906117d2565b60405180910390fd5b8160085f3373ffffffffffffffffffffffffffffffffffffffff1673ffffffffffffffffffffffffffffffffffffffff1681526020019081526020015f205f8573ffffffffffffffffffffffffffffffffffffffff1673ffffffffffffffffffffffffffffffffffffffff1681526020019081526020015f20819055508273ffffffffffffffffffffffffffffffffffffffff163373ffffffffffffffffffffffffffffffffffffffff167f8c5be1e5ebec7d5bd14f71427d1e84f3dd0314c0f7b2291e5b200ac8c7c3b9258460405161051d919061162e565b60405180910390a36001905092915050565b60065f9054906101000a900473ffffffffffffffffffffffffffffffffffffffff1681565b601481565b60045481565b5f5f73ffffffffffffffffffffffffffffffffffffffff168373ffffffffffffffffffffffffffffffffffffffff16036105ce576040517f08c379a00000000000000000000000000000000000000000000000000000000081526004016105c5906117d2565b60405180910390fd5b60075f8573ffffffffffffffffffffffffffffffffffffffff1673ffffffffffffffffffffffffffffffffffffffff1681526020019081526020015f205482111561064e576040517f08c379a0000000000000000000000000000000000000000000000000000000008152600401610645906117d2565b60405180910390fd5b60085f8573ffffffffffffffffffffffffffffffffffffffff1673ffffffffffffffffffffffffffffffffffffffff1681526020019081526020015f205f3373ffffffffffffffffffffffffffffffffffffffff1673ffffffffffffffffffffffffffffffffffffffff1681526020019081526020015f2054821115610709576040517f08c379a0000000000000000000000000000000000000000000000000000000008152600401610700906117d2565b60405180910390fd5b8160075f8673ffffffffffffffffffffffffffffffffffffffff1673ffffffffffffffffffffffffffffffffffffffff1681526020019081526020015f205f828254610755919061181d565b925050819055508160075f8573ffffffffffffffffffffffffffffffffffffffff1673ffffffffffffffffffffffffffffffffffffffff1681526020019081526020015f205f8282546107a89190611850565b925050819055508160085f8673ffffffffffffffffffffffffffffffffffffffff1673ffffffffffffffffffffffffffffffffffffffff1681526020019081526020015f205f3373ffffffffffffffffffffffffffffffffffffffff1673ffffffffffffffffffffffffffffffffffffffff1681526020019081526020015f205f828254610836919061181d565b925050819055508273ffffffffffffffffffffffffffffffffffffffff168473ffffffffffffffffffffffffffffffffffffffff167fddf252ad1be2c89b69c2b068fc378daa952ba7f163c4a11628f55a4df523b3ef8460405161089a919061162e565b60405180910390a3600190509392505050565b60035481565b60055f9054906101000a900473ffffffffffffffffffffffffffffffffffffffff1673ffffffffffffffffffffffffffffffffffffffff163373ffffffffffffffffffffffffffffffffffffffff1614610942576040517f08c379a0000000000000000000000000000000000000000000000000000000008152600401610939906117d2565b60405180910390fd5b5f73ffffffffffffffffffffffffffffffffffffffff1660065f9054906101000a900473ffffffffffffffffffffffffffffffffffffffff1673ffffffffffffffffffffffffffffffffffffffff16036109d1576040517f08c379a00000000000000000000000000000000000000000000000000000000081526004016109c8906117d2565b60405180910390fd5b60065f9054906101000a900473ffffffffffffffffffffffffffffffffffffffff1673ffffffffffffffffffffffffffffffffffffffff166370a08231306040518263ffffffff1660e01b8152600401610a2b9190611606565b602060405180830381865afa158015610a46573d5f5f3e3d5ffd5b505050506040513d601f19601f82011682018060405250810190610a6a9190611897565b811115610aac576040517f08c379a0000000000000000000000000000000000000000000000000000000008152600401610aa3906117d2565b60405180910390fd5b60065f9054906101000a900473ffffffffffffffffffffffffffffffffffffffff1673ffffffffffffffffffffffffffffffffffffffff1663a9059cbb60055f9054906101000a900473ffffffffffffffffffffffffffffffffffffffff16836040518363ffffffff1660e01b8152600401610b299291906118c2565b6020604051808303815f875af1158015610b45573d5f5f3e3d5ffd5b505050506040513d601f19601f82011682018060405250810190610b699190611913565b610ba8576040517f08c379a0000000000000000000000000000000000000000000000000000000008152600401610b9f906117d2565b60405180910390fd5b60055f9054906101000a900473ffffffffffffffffffffffffffffffffffffffff1673ffffffffffffffffffffffffffffffffffffffff167f037238854fe57fbf51f09946f854fc3916fe83938d6521f09bd05463839f130460065f9054906101000a900473ffffffffffffffffffffffffffffffffffffffff1683604051610c329291906118c2565b60405180910390a250565b610c456112cd565b5f8111610c87576040517f08c379a0000000000000000000000000000000000000000000000000000000008152600401610c7e906117d2565b60405180910390fd5b5f73ffffffffffffffffffffffffffffffffffffffff1660065f9054906101000a900473ffffffffffffffffffffffffffffffffffffffff1673ffffffffffffffffffffffffffffffffffffffff1603610d16576040517f08c379a0000000000000000000000000000000000000000000000000000000008152600401610d0d906117d2565b60405180910390fd5b60065f9054906101000a900473ffffffffffffffffffffffffffffffffffffffff1673ffffffffffffffffffffffffffffffffffffffff166323b872dd3330846040518463ffffffff1660e01b8152600401610d749392919061193e565b6020604051808303815f875af1158015610d90573d5f5f3e3d5ffd5b505050506040513d601f19601f82011682018060405250810190610db49190611913565b610df3576040517f08c379a0000000000000000000000000000000000000000000000000000000008152600401610dea906117d2565b60405180910390fd5b5f601482610e019190611973565b9050610e0d338261131a565b3373ffffffffffffffffffffffffffffffffffffffff167fcc78f3b4102faf5e7649c63e1b487c5b00d1a832307b4026827bb66f066125a360065f9054906101000a900473ffffffffffffffffffffffffffffffffffffffff16848460075f3373ffffffffffffffffffffffffffffffffffffffff1673ffffffffffffffffffffffffffffffffffffffff1681526020019081526020015f2054604051610eb794939291906119b4565b60405180910390a250610ec861145c565b50565b6007602052805f5260405f205f915090505481565b5f60075f8373ffffffffffffffffffffffffffffffffffffffff1673ffffffffffffffffffffffffffffffffffffffff1681526020019081526020015f20549050919050565b60028054610f3390611758565b80601f0160208091040260200160405190810160405280929190818152602001828054610f5f90611758565b8015610faa5780601f10610f8157610100808354040283529160200191610faa565b820191905f5260205f20905b815481529060010190602001808311610f8d57829003601f168201915b505050505081565b5f5f73ffffffffffffffffffffffffffffffffffffffff168373ffffffffffffffffffffffffffffffffffffffff1603611021576040517f08c379a0000000000000000000000000000000000000000000000000000000008152600401611018906117d2565b60405180910390fd5b8160075f3373ffffffffffffffffffffffffffffffffffffffff1673ffffffffffffffffffffffffffffffffffffffff1681526020019081526020015f205410156110a1576040517f08c379a0000000000000000000000000000000000000000000000000000000008152600401611098906117d2565b60405180910390fd5b8160075f3373ffffffffffffffffffffffffffffffffffffffff1673ffffffffffffffffffffffffffffffffffffffff1681526020019081526020015f205f8282546110ed919061181d565b925050819055508160075f8573ffffffffffffffffffffffffffffffffffffffff1673ffffffffffffffffffffffffffffffffffffffff1681526020019081526020015f205f8282546111409190611850565b925050819055508273ffffffffffffffffffffffffffffffffffffffff163373ffffffffffffffffffffffffffffffffffffffff167fddf252ad1be2c89b69c2b068fc378daa952ba7f163c4a11628f55a4df523b3ef846040516111a4919061162e565b60405180910390a36001905092915050565b60055f9054906101000a900473ffffffffffffffffffffffffffffffffffffffff1673ffffffffffffffffffffffffffffffffffffffff163373ffffffffffffffffffffffffffffffffffffffff1614611245576040517f08c379a000000000000000000000000000000000000000000000000000000000815260040161123c906117d2565b60405180910390fd5b8060065f6101000a81548173ffffffffffffffffffffffffffffffffffffffff021916908373ffffffffffffffffffffffffffffffffffffffff16021790555050565b6008602052815f5260405f20602052805f5260405f205f91509150505481565b60055f9054906101000a900473ffffffffffffffffffffffffffffffffffffffff1681565b60025f5403611311576040517f08c379a000000000000000000000000000000000000000000000000000000000815260040161130890611a41565b60405180910390fd5b60025f81905550565b5f73ffffffffffffffffffffffffffffffffffffffff168273ffffffffffffffffffffffffffffffffffffffff1603611388576040517f08c379a000000000000000000000000000000000000000000000000000000000815260040161137f906117d2565b60405180910390fd5b8060045f8282546113999190611850565b925050819055508060075f8473ffffffffffffffffffffffffffffffffffffffff1673ffffffffffffffffffffffffffffffffffffffff1681526020019081526020015f205f8282546113ec9190611850565b925050819055508173ffffffffffffffffffffffffffffffffffffffff165f73ffffffffffffffffffffffffffffffffffffffff167fddf252ad1be2c89b69c2b068fc378daa952ba7f163c4a11628f55a4df523b3ef83604051611450919061162e565b60405180910390a35050565b60015f81905550565b5f81519050919050565b5f82825260208201905092915050565b8281835e5f83830152505050565b5f601f19601f8301169050919050565b5f6114a782611465565b6114b1818561146f565b93506114c181856020860161147f565b6114ca8161148d565b840191505092915050565b5f6020820190508181035f8301526114ed818461149d565b905092915050565b5f5ffd5b5f73ffffffffffffffffffffffffffffffffffffffff82169050919050565b5f611522826114f9565b9050919050565b61153281611518565b811461153c575f5ffd5b50565b5f8135905061154d81611529565b92915050565b5f819050919050565b61156581611553565b811461156f575f5ffd5b50565b5f813590506115808161155c565b92915050565b5f5f6040838503121561159c5761159b6114f5565b5b5f6115a98582860161153f565b92505060206115ba85828601611572565b9150509250929050565b5f8115159050919050565b6115d8816115c4565b82525050565b5f6020820190506115f15f8301846115cf565b92915050565b61160081611518565b82525050565b5f6020820190506116195f8301846115f7565b92915050565b61162881611553565b82525050565b5f6020820190506116415f83018461161f565b92915050565b5f5f5f6060848603121561165e5761165d6114f5565b5b5f61166b8682870161153f565b935050602061167c8682870161153f565b925050604061168d86828701611572565b9150509250925092565b5f602082840312156116ac576116ab6114f5565b5b5f6116b984828501611572565b91505092915050565b5f602082840312156116d7576116d66114f5565b5b5f6116e48482850161153f565b91505092915050565b5f5f60408385031215611703576117026114f5565b5b5f6117108582860161153f565b92505060206117218582860161153f565b9150509250929050565b7f4e487b71000000000000000000000000000000000000000000000000000000005f52602260045260245ffd5b5f600282049050600182168061176f57607f821691505b6020821081036117825761178161172b565b5b50919050565b7f31000000000000000000000000000000000000000000000000000000000000005f82015250565b5f6117bc60018361146f565b91506117c782611788565b602082019050919050565b5f6020820190508181035f8301526117e9816117b0565b9050919050565b7f4e487b71000000000000000000000000000000000000000000000000000000005f52601160045260245ffd5b5f61182782611553565b915061183283611553565b925082820390508181111561184a576118496117f0565b5b92915050565b5f61185a82611553565b915061186583611553565b925082820190508082111561187d5761187c6117f0565b5b92915050565b5f815190506118918161155c565b92915050565b5f602082840312156118ac576118ab6114f5565b5b5f6118b984828501611883565b91505092915050565b5f6040820190506118d55f8301856115f7565b6118e2602083018461161f565b9392505050565b6118f2816115c4565b81146118fc575f5ffd5b50565b5f8151905061190d816118e9565b92915050565b5f60208284031215611928576119276114f5565b5b5f611935848285016118ff565b91505092915050565b5f6060820190506119515f8301866115f7565b61195e60208301856115f7565b61196b604083018461161f565b949350505050565b5f61197d82611553565b915061198883611553565b925082820261199681611553565b915082820484148315176119ad576119ac6117f0565b5b5092915050565b5f6080820190506119c75f8301876115f7565b6119d4602083018661161f565b6119e1604083018561161f565b6119ee606083018461161f565b95945050505050565b7f5265656e7472616e637947756172643a207265656e7472616e742063616c6c005f82015250565b5f611a2b601f8361146f565b9150611a36826119f7565b602082019050919050565b5f6020820190508181035f830152611a5881611a1f565b905091905056fea26469706673582212205a0e38d9a2e1cd474c7ec9a2cb1682b32839dcdf8392b66f35dbdb201c2d21f264736f6c634300081e0033",
					"opcodes": "PUSH1 0x80 PUSH1 0x40 MSTORE PUSH1 0x40 MLOAD DUP1 PUSH1 0x40 ADD PUSH1 0x40 MSTORE DUP1 PUSH1 0xB DUP2 MSTORE PUSH1 0x20 ADD PUSH32 0x526577617264546F6B656E000000000000000000000000000000000000000000 DUP2 MSTORE POP PUSH1 0x1 SWAP1 DUP2 PUSH2 0x48 SWAP2 SWAP1 PUSH2 0x38A JUMP JUMPDEST POP PUSH1 0x40 MLOAD DUP1 PUSH1 0x40 ADD PUSH1 0x40 MSTORE DUP1 PUSH1 0x3 DUP2 MSTORE PUSH1 0x20 ADD PUSH32 0x5257540000000000000000000000000000000000000000000000000000000000 DUP2 MSTORE POP PUSH1 0x2 SWAP1 DUP2 PUSH2 0x8D SWAP2 SWAP1 PUSH2 0x38A JUMP JUMPDEST POP PUSH1 0x12 PUSH1 0x3 SSTORE CALLVALUE DUP1 ISZERO PUSH2 0x9E JUMPI PUSH0 PUSH0 REVERT JUMPDEST POP PUSH1 0x40 MLOAD PUSH2 0x1F84 CODESIZE SUB DUP1 PUSH2 0x1F84 DUP4 CODECOPY DUP2 DUP2 ADD PUSH1 0x40 MSTORE DUP2 ADD SWAP1 PUSH2 0xC0 SWAP2 SWAP1 PUSH2 0x4B7 JUMP JUMPDEST PUSH1 0x1 PUSH0 DUP2 SWAP1 SSTORE POP CALLER PUSH1 0x5 PUSH0 PUSH2 0x100 EXP DUP2 SLOAD DUP2 PUSH20 0xFFFFFFFFFFFFFFFFFFFFFFFFFFFFFFFFFFFFFFFF MUL NOT AND SWAP1 DUP4 PUSH20 0xFFFFFFFFFFFFFFFFFFFFFFFFFFFFFFFFFFFFFFFF AND MUL OR SWAP1 SSTORE POP DUP1 PUSH1 0x6 PUSH0 PUSH2 0x100 EXP DUP2 SLOAD DUP2 PUSH20 0xFFFFFFFFFFFFFFFFFFFFFFFFFFFFFFFFFFFFFFFF MUL NOT AND SWAP1 DUP4 PUSH20 0xFFFFFFFFFFFFFFFFFFFFFFFFFFFFFFFFFFFFFFFF AND MUL OR SWAP1 SSTORE POP POP PUSH2 0x4E2 JUMP JUMPDEST PUSH0 DUP2 MLOAD SWAP1 POP SWAP2 SWAP1 POP JUMP JUMPDEST PUSH32 0x4E487B7100000000000000000000000000000000000000000000000000000000 PUSH0 MSTORE PUSH1 0x41 PUSH1 0x4 MSTORE PUSH1 0x24 PUSH0 REVERT JUMPDEST PUSH32 0x4E487B7100000000000000000000000000000000000000000000000000000000 PUSH0 MSTORE PUSH1 0x22 PUSH1 0x4 MSTORE PUSH1 0x24 PUSH0 REVERT JUMPDEST PUSH0 PUSH1 0x2 DUP3 DIV SWAP1 POP PUSH1 0x1 DUP3 AND DUP1 PUSH2 0x1C8 JUMPI PUSH1 0x7F DUP3 AND SWAP2 POP JUMPDEST PUSH1 0x20 DUP3 LT DUP2 SUB PUSH2 0x1DB JUMPI PUSH2 0x1DA PUSH2 0x184 JUMP JUMPDEST JUMPDEST POP SWAP2 SWAP1 POP JUMP JUMPDEST PUSH0 DUP2 SWAP1 POP DUP2 PUSH0 MSTORE PUSH1 0x20 PUSH0 KECCAK256 SWAP1 POP SWAP2 SWAP1 POP JUMP JUMPDEST PUSH0 PUSH1 0x20 PUSH1 0x1F DUP4 ADD DIV SWAP1 POP SWAP2 SWAP1 POP JUMP JUMPDEST PUSH0 DUP3 DUP3 SHL SWAP1 POP SWAP3 SWAP2 POP POP JUMP JUMPDEST PUSH0 PUSH1 0x8 DUP4 MUL PUSH2 0x23D PUSH32 0xFFFFFFFFFFFFFFFFFFFFFFFFFFFFFFFFFFFFFFFFFFFFFFFFFFFFFFFFFFFFFFFF DUP3 PUSH2 0x202 JUMP JUMPDEST PUSH2 0x247 DUP7 DUP4 PUSH2 0x202 JUMP JUMPDEST SWAP6 POP DUP1 NOT DUP5 AND SWAP4 POP DUP1 DUP7 AND DUP5 OR SWAP3 POP POP POP SWAP4 SWAP3 POP POP POP JUMP JUMPDEST PUSH0 DUP2 SWAP1 POP SWAP2 SWAP1 POP JUMP JUMPDEST PUSH0 DUP2 SWAP1 POP SWAP2 SWAP1 POP JUMP JUMPDEST PUSH0 PUSH2 0x28B PUSH2 0x286 PUSH2 0x281 DUP5 PUSH2 0x25F JUMP JUMPDEST PUSH2 0x268 JUMP JUMPDEST PUSH2 0x25F JUMP JUMPDEST SWAP1 POP SWAP2 SWAP1 POP JUMP JUMPDEST PUSH0 DUP2 SWAP1 POP SWAP2 SWAP1 POP JUMP JUMPDEST PUSH2 0x2A4 DUP4 PUSH2 0x271 JUMP JUMPDEST PUSH2 0x2B8 PUSH2 0x2B0 DUP3 PUSH2 0x292 JUMP JUMPDEST DUP5 DUP5 SLOAD PUSH2 0x20E JUMP JUMPDEST DUP3 SSTORE POP POP POP POP JUMP JUMPDEST PUSH0 PUSH0 SWAP1 POP SWAP1 JUMP JUMPDEST PUSH2 0x2CF PUSH2 0x2C0 JUMP JUMPDEST PUSH2 0x2DA DUP2 DUP5 DUP5 PUSH2 0x29B JUMP JUMPDEST POP POP POP JUMP JUMPDEST JUMPDEST DUP2 DUP2 LT ISZERO PUSH2 0x2FD JUMPI PUSH2 0x2F2 PUSH0 DUP3 PUSH2 0x2C7 JUMP JUMPDEST PUSH1 0x1 DUP2 ADD SWAP1 POP PUSH2 0x2E0 JUMP JUMPDEST POP POP JUMP JUMPDEST PUSH1 0x1F DUP3 GT ISZERO PUSH2 0x342 JUMPI PUSH2 0x313 DUP2 PUSH2 0x1E1 JUMP JUMPDEST PUSH2 0x31C DUP5 PUSH2 0x1F3 JUMP JUMPDEST DUP2 ADD PUSH1 0x20 DUP6 LT ISZERO PUSH2 0x32B JUMPI DUP2 SWAP1 POP JUMPDEST PUSH2 0x33F PUSH2 0x337 DUP6 PUSH2 0x1F3 JUMP JUMPDEST DUP4 ADD DUP3 PUSH2 0x2DF JUMP JUMPDEST POP POP JUMPDEST POP POP POP JUMP JUMPDEST PUSH0 DUP3 DUP3 SHR SWAP1 POP SWAP3 SWAP2 POP POP JUMP JUMPDEST PUSH0 PUSH2 0x362 PUSH0 NOT DUP5 PUSH1 0x8 MUL PUSH2 0x347 JUMP JUMPDEST NOT DUP1 DUP4 AND SWAP2 POP POP SWAP3 SWAP2 POP POP JUMP JUMPDEST PUSH0 PUSH2 0x37A DUP4 DUP4 PUSH2 0x353 JUMP JUMPDEST SWAP2 POP DUP3 PUSH1 0x2 MUL DUP3 OR SWAP1 POP SWAP3 SWAP2 POP POP JUMP JUMPDEST PUSH2 0x393 DUP3 PUSH2 0x14D JUMP JUMPDEST PUSH8 0xFFFFFFFFFFFFFFFF DUP2 GT ISZERO PUSH2 0x3AC JUMPI PUSH2 0x3AB PUSH2 0x157 JUMP JUMPDEST JUMPDEST PUSH2 0x3B6 DUP3 SLOAD PUSH2 0x1B1 JUMP JUMPDEST PUSH2 0x3C1 DUP3 DUP3 DUP6 PUSH2 0x301 JUMP JUMPDEST PUSH0 PUSH1 0x20 SWAP1 POP PUSH1 0x1F DUP4 GT PUSH1 0x1 DUP2 EQ PUSH2 0x3F2 JUMPI PUSH0 DUP5 ISZERO PUSH2 0x3E0 JUMPI DUP3 DUP8 ADD MLOAD SWAP1 POP JUMPDEST PUSH2 0x3EA DUP6 DUP3 PUSH2 0x36F JUMP JUMPDEST DUP7 SSTORE POP PUSH2 0x451 JUMP JUMPDEST PUSH1 0x1F NOT DUP5 AND PUSH2 0x400 DUP7 PUSH2 0x1E1 JUMP JUMPDEST PUSH0 JUMPDEST DUP3 DUP2 LT ISZERO PUSH2 0x427 JUMPI DUP5 DUP10 ADD MLOAD DUP3 SSTORE PUSH1 0x1 DUP3 ADD SWAP2 POP PUSH1 0x20 DUP6 ADD SWAP5 POP PUSH1 0x20 DUP2 ADD SWAP1 POP PUSH2 0x402 JUMP JUMPDEST DUP7 DUP4 LT ISZERO PUSH2 0x444 JUMPI DUP5 DUP10 ADD MLOAD PUSH2 0x440 PUSH1 0x1F DUP10 AND DUP3 PUSH2 0x353 JUMP JUMPDEST DUP4 SSTORE POP JUMPDEST PUSH1 0x1 PUSH1 0x2 DUP9 MUL ADD DUP9 SSTORE POP POP POP JUMPDEST POP POP POP POP POP POP JUMP JUMPDEST PUSH0 PUSH0 REVERT JUMPDEST PUSH0 PUSH20 0xFFFFFFFFFFFFFFFFFFFFFFFFFFFFFFFFFFFFFFFF DUP3 AND SWAP1 POP SWAP2 SWAP1 POP JUMP JUMPDEST PUSH0 PUSH2 0x486 DUP3 PUSH2 0x45D JUMP JUMPDEST SWAP1 POP SWAP2 SWAP1 POP JUMP JUMPDEST PUSH2 0x496 DUP2 PUSH2 0x47C JUMP JUMPDEST DUP2 EQ PUSH2 0x4A0 JUMPI PUSH0 PUSH0 REVERT JUMPDEST POP JUMP JUMPDEST PUSH0 DUP2 MLOAD SWAP1 POP PUSH2 0x4B1 DUP2 PUSH2 0x48D JUMP JUMPDEST SWAP3 SWAP2 POP POP JUMP JUMPDEST PUSH0 PUSH1 0x20 DUP3 DUP5 SUB SLT ISZERO PUSH2 0x4CC JUMPI PUSH2 0x4CB PUSH2 0x459 JUMP JUMPDEST JUMPDEST PUSH0 PUSH2 0x4D9 DUP5 DUP3 DUP6 ADD PUSH2 0x4A3 JUMP JUMPDEST SWAP2 POP POP SWAP3 SWAP2 POP POP JUMP JUMPDEST PUSH2 0x1A95 DUP1 PUSH2 0x4EF PUSH0 CODECOPY PUSH0 RETURN INVALID PUSH1 0x80 PUSH1 0x40 MSTORE CALLVALUE DUP1 ISZERO PUSH2 0xF JUMPI PUSH0 PUSH0 REVERT JUMPDEST POP PUSH1 0x4 CALLDATASIZE LT PUSH2 0xFE JUMPI PUSH0 CALLDATALOAD PUSH1 0xE0 SHR DUP1 PUSH4 0x6215BE77 GT PUSH2 0x95 JUMPI DUP1 PUSH4 0xA9059CBB GT PUSH2 0x64 JUMPI DUP1 PUSH4 0xA9059CBB EQ PUSH2 0x2AE JUMPI DUP1 PUSH4 0xBC2F2DCF EQ PUSH2 0x2DE JUMPI DUP1 PUSH4 0xDD62ED3E EQ PUSH2 0x2FA JUMPI DUP1 PUSH4 0xF851A440 EQ PUSH2 0x32A JUMPI PUSH2 0xFE JUMP JUMPDEST DUP1 PUSH4 0x6215BE77 EQ PUSH2 0x214 JUMPI DUP1 PUSH4 0x70A08231 EQ PUSH2 0x230 JUMPI DUP1 PUSH4 0x94CBC027 EQ PUSH2 0x260 JUMPI DUP1 PUSH4 0x95D89B41 EQ PUSH2 0x290 JUMPI PUSH2 0xFE JUMP JUMPDEST DUP1 PUSH4 0x18160DDD GT PUSH2 0xD1 JUMPI DUP1 PUSH4 0x18160DDD EQ PUSH2 0x18C JUMPI DUP1 PUSH4 0x23B872DD EQ PUSH2 0x1AA JUMPI DUP1 PUSH4 0x313CE567 EQ PUSH2 0x1DA JUMPI DUP1 PUSH4 0x50BAA622 EQ PUSH2 0x1F8 JUMPI PUSH2 0xFE JUMP JUMPDEST DUP1 PUSH4 0x6FDDE03 EQ PUSH2 0x102 JUMPI DUP1 PUSH4 0x95EA7B3 EQ PUSH2 0x120 JUMPI DUP1 PUSH4 0xEE0599C EQ PUSH2 0x150 JUMPI DUP1 PUSH4 0x14A8BD0D EQ PUSH2 0x16E JUMPI JUMPDEST PUSH0 PUSH0 REVERT JUMPDEST PUSH2 0x10A PUSH2 0x348 JUMP JUMPDEST PUSH1 0x40 MLOAD PUSH2 0x117 SWAP2 SWAP1 PUSH2 0x14D5 JUMP JUMPDEST PUSH1 0x40 MLOAD DUP1 SWAP2 SUB SWAP1 RETURN JUMPDEST PUSH2 0x13A PUSH1 0x4 DUP1 CALLDATASIZE SUB DUP2 ADD SWAP1 PUSH2 0x135 SWAP2 SWAP1 PUSH2 0x1586 JUMP JUMPDEST PUSH2 0x3D4 JUMP JUMPDEST PUSH1 0x40 MLOAD PUSH2 0x147 SWAP2 SWAP1 PUSH2 0x15DE JUMP JUMPDEST PUSH1 0x40 MLOAD DUP1 SWAP2 SUB SWAP1 RETURN JUMPDEST PUSH2 0x158 PUSH2 0x52F JUMP JUMPDEST PUSH1 0x40 MLOAD PUSH2 0x165 SWAP2 SWAP1 PUSH2 0x1606 JUMP JUMPDEST PUSH1 0x40 MLOAD DUP1 SWAP2 SUB SWAP1 RETURN JUMPDEST PUSH2 0x176 PUSH2 0x554 JUMP JUMPDEST PUSH1 0x40 MLOAD PUSH2 0x183 SWAP2 SWAP1 PUSH2 0x162E JUMP JUMPDEST PUSH1 0x40 MLOAD DUP1 SWAP2 SUB SWAP1 RETURN JUMPDEST PUSH2 0x194 PUSH2 0x559 JUMP JUMPDEST PUSH1 0x40 MLOAD PUSH2 0x1A1 SWAP2 SWAP1 PUSH2 0x162E JUMP JUMPDEST PUSH1 0x40 MLOAD DUP1 SWAP2 SUB SWAP1 RETURN JUMPDEST PUSH2 0x1C4 PUSH1 0x4 DUP1 CALLDATASIZE SUB DUP2 ADD SWAP1 PUSH2 0x1BF SWAP2 SWAP1 PUSH2 0x1647 JUMP JUMPDEST PUSH2 0x55F JUMP JUMPDEST PUSH1 0x40 MLOAD PUSH2 0x1D1 SWAP2 SWAP1 PUSH2 0x15DE JUMP JUMPDEST PUSH1 0x40 MLOAD DUP1 SWAP2 SUB SWAP1 RETURN JUMPDEST PUSH2 0x1E2 PUSH2 0x8AD JUMP JUMPDEST PUSH1 0x40 MLOAD PUSH2 0x1EF SWAP2 SWAP1 PUSH2 0x162E JUMP JUMPDEST PUSH1 0x40 MLOAD DUP1 SWAP2 SUB SWAP1 RETURN JUMPDEST PUSH2 0x212 PUSH1 0x4 DUP1 CALLDATASIZE SUB DUP2 ADD SWAP1 PUSH2 0x20D SWAP2 SWAP1 PUSH2 0x1697 JUMP JUMPDEST PUSH2 0x8B3 JUMP JUMPDEST STOP JUMPDEST PUSH2 0x22E PUSH1 0x4 DUP1 CALLDATASIZE SUB DUP2 ADD SWAP1 PUSH2 0x229 SWAP2 SWAP1 PUSH2 0x1697 JUMP JUMPDEST PUSH2 0xC3D JUMP JUMPDEST STOP JUMPDEST PUSH2 0x24A PUSH1 0x4 DUP1 CALLDATASIZE SUB DUP2 ADD SWAP1 PUSH2 0x245 SWAP2 SWAP1 PUSH2 0x16C2 JUMP JUMPDEST PUSH2 0xECB JUMP JUMPDEST PUSH1 0x40 MLOAD PUSH2 0x257 SWAP2 SWAP1 PUSH2 0x162E JUMP JUMPDEST PUSH1 0x40 MLOAD DUP1 SWAP2 SUB SWAP1 RETURN JUMPDEST PUSH2 0x27A PUSH1 0x4 DUP1 CALLDATASIZE SUB DUP2 ADD SWAP1 PUSH2 0x275 SWAP2 SWAP1 PUSH2 0x16C2 JUMP JUMPDEST PUSH2 0xEE0 JUMP JUMPDEST PUSH1 0x40 MLOAD PUSH2 0x287 SWAP2 SWAP1 PUSH2 0x162E JUMP JUMPDEST PUSH1 0x40 MLOAD DUP1 SWAP2 SUB SWAP1 RETURN JUMPDEST PUSH2 0x298 PUSH2 0xF26 JUMP JUMPDEST PUSH1 0x40 MLOAD PUSH2 0x2A5 SWAP2 SWAP1 PUSH2 0x14D5 JUMP JUMPDEST PUSH1 0x40 MLOAD DUP1 SWAP2 SUB SWAP1 RETURN JUMPDEST PUSH2 0x2C8 PUSH1 0x4 DUP1 CALLDATASIZE SUB DUP2 ADD SWAP1 PUSH2 0x2C3 SWAP2 SWAP1 PUSH2 0x1586 JUMP JUMPDEST PUSH2 0xFB2 JUMP JUMPDEST PUSH1 0x40 MLOAD PUSH2 0x2D5 SWAP2 SWAP1 PUSH2 0x15DE JUMP JUMPDEST PUSH1 0x40 MLOAD DUP1 SWAP2 SUB SWAP1 RETURN JUMPDEST PUSH2 0x2F8 PUSH1 0x4 DUP1 CALLDATASIZE SUB DUP2 ADD SWAP1 PUSH2 0x2F3 SWAP2 SWAP1 PUSH2 0x16C2 JUMP JUMPDEST PUSH2 0x11B6 JUMP JUMPDEST STOP JUMPDEST PUSH2 0x314 PUSH1 0x4 DUP1 CALLDATASIZE SUB DUP2 ADD SWAP1 PUSH2 0x30F SWAP2 SWAP1 PUSH2 0x16ED JUMP JUMPDEST PUSH2 0x1288 JUMP JUMPDEST PUSH1 0x40 MLOAD PUSH2 0x321 SWAP2 SWAP1 PUSH2 0x162E JUMP JUMPDEST PUSH1 0x40 MLOAD DUP1 SWAP2 SUB SWAP1 RETURN JUMPDEST PUSH2 0x332 PUSH2 0x12A8 JUMP JUMPDEST PUSH1 0x40 MLOAD PUSH2 0x33F SWAP2 SWAP1 PUSH2 0x1606 JUMP JUMPDEST PUSH1 0x40 MLOAD DUP1 SWAP2 SUB SWAP1 RETURN JUMPDEST PUSH1 0x1 DUP1 SLOAD PUSH2 0x355 SWAP1 PUSH2 0x1758 JUMP JUMPDEST DUP1 PUSH1 0x1F ADD PUSH1 0x20 DUP1 SWAP2 DIV MUL PUSH1 0x20 ADD PUSH1 0x40 MLOAD SWAP1 DUP2 ADD PUSH1 0x40 MSTORE DUP1 SWAP3 SWAP2 SWAP1 DUP2 DUP2 MSTORE PUSH1 0x20 ADD DUP3 DUP1 SLOAD PUSH2 0x381 SWAP1 PUSH2 0x1758 JUMP JUMPDEST DUP1 ISZERO PUSH2 0x3CC JUMPI DUP1 PUSH1 0x1F LT PUSH2 0x3A3 JUMPI PUSH2 0x100 DUP1 DUP4 SLOAD DIV MUL DUP4 MSTORE SWAP2 PUSH1 0x20 ADD SWAP2 PUSH2 0x3CC JUMP JUMPDEST DUP3 ADD SWAP2 SWAP1 PUSH0 MSTORE PUSH1 0x20 PUSH0 KECCAK256 SWAP1 JUMPDEST DUP2 SLOAD DUP2 MSTORE SWAP1 PUSH1 0x1 ADD SWAP1 PUSH1 0x20 ADD DUP1 DUP4 GT PUSH2 0x3AF JUMPI DUP3 SWAP1 SUB PUSH1 0x1F AND DUP3 ADD SWAP2 JUMPDEST POP POP POP POP POP DUP2 JUMP JUMPDEST PUSH0 PUSH0 PUSH20 0xFFFFFFFFFFFFFFFFFFFFFFFFFFFFFFFFFFFFFFFF AND DUP4 PUSH20 0xFFFFFFFFFFFFFFFFFFFFFFFFFFFFFFFFFFFFFFFF AND SUB PUSH2 0x443 JUMPI PUSH1 0x40 MLOAD PUSH32 0x8C379A000000000000000000000000000000000000000000000000000000000 DUP2 MSTORE PUSH1 0x4 ADD PUSH2 0x43A SWAP1 PUSH2 0x17D2 JUMP JUMPDEST PUSH1 0x40 MLOAD DUP1 SWAP2 SUB SWAP1 REVERT JUMPDEST DUP2 PUSH1 0x8 PUSH0 CALLER PUSH20 0xFFFFFFFFFFFFFFFFFFFFFFFFFFFFFFFFFFFFFFFF AND PUSH20 0xFFFFFFFFFFFFFFFFFFFFFFFFFFFFFFFFFFFFFFFF AND DUP2 MSTORE PUSH1 0x20 ADD SWAP1 DUP2 MSTORE PUSH1 0x20 ADD PUSH0 KECCAK256 PUSH0 DUP6 PUSH20 0xFFFFFFFFFFFFFFFFFFFFFFFFFFFFFFFFFFFFFFFF AND PUSH20 0xFFFFFFFFFFFFFFFFFFFFFFFFFFFFFFFFFFFFFFFF AND DUP2 MSTORE PUSH1 0x20 ADD SWAP1 DUP2 MSTORE PUSH1 0x20 ADD PUSH0 KECCAK256 DUP2 SWAP1 SSTORE POP DUP3 PUSH20 0xFFFFFFFFFFFFFFFFFFFFFFFFFFFFFFFFFFFFFFFF AND CALLER PUSH20 0xFFFFFFFFFFFFFFFFFFFFFFFFFFFFFFFFFFFFFFFF AND PUSH32 0x8C5BE1E5EBEC7D5BD14F71427D1E84F3DD0314C0F7B2291E5B200AC8C7C3B925 DUP5 PUSH1 0x40 MLOAD PUSH2 0x51D SWAP2 SWAP1 PUSH2 0x162E JUMP JUMPDEST PUSH1 0x40 MLOAD DUP1 SWAP2 SUB SWAP1 LOG3 PUSH1 0x1 SWAP1 POP SWAP3 SWAP2 POP POP JUMP JUMPDEST PUSH1 0x6 PUSH0 SWAP1 SLOAD SWAP1 PUSH2 0x100 EXP SWAP1 DIV PUSH20 0xFFFFFFFFFFFFFFFFFFFFFFFFFFFFFFFFFFFFFFFF AND DUP2 JUMP JUMPDEST PUSH1 0x14 DUP2 JUMP JUMPDEST PUSH1 0x4 SLOAD DUP2 JUMP JUMPDEST PUSH0 PUSH0 PUSH20 0xFFFFFFFFFFFFFFFFFFFFFFFFFFFFFFFFFFFFFFFF AND DUP4 PUSH20 0xFFFFFFFFFFFFFFFFFFFFFFFFFFFFFFFFFFFFFFFF AND SUB PUSH2 0x5CE JUMPI PUSH1 0x40 MLOAD PUSH32 0x8C379A000000000000000000000000000000000000000000000000000000000 DUP2 MSTORE PUSH1 0x4 ADD PUSH2 0x5C5 SWAP1 PUSH2 0x17D2 JUMP JUMPDEST PUSH1 0x40 MLOAD DUP1 SWAP2 SUB SWAP1 REVERT JUMPDEST PUSH1 0x7 PUSH0 DUP6 PUSH20 0xFFFFFFFFFFFFFFFFFFFFFFFFFFFFFFFFFFFFFFFF AND PUSH20 0xFFFFFFFFFFFFFFFFFFFFFFFFFFFFFFFFFFFFFFFF AND DUP2 MSTORE PUSH1 0x20 ADD SWAP1 DUP2 MSTORE PUSH1 0x20 ADD PUSH0 KECCAK256 SLOAD DUP3 GT ISZERO PUSH2 0x64E JUMPI PUSH1 0x40 MLOAD PUSH32 0x8C379A000000000000000000000000000000000000000000000000000000000 DUP2 MSTORE PUSH1 0x4 ADD PUSH2 0x645 SWAP1 PUSH2 0x17D2 JUMP JUMPDEST PUSH1 0x40 MLOAD DUP1 SWAP2 SUB SWAP1 REVERT JUMPDEST PUSH1 0x8 PUSH0 DUP6 PUSH20 0xFFFFFFFFFFFFFFFFFFFFFFFFFFFFFFFFFFFFFFFF AND PUSH20 0xFFFFFFFFFFFFFFFFFFFFFFFFFFFFFFFFFFFFFFFF AND DUP2 MSTORE PUSH1 0x20 ADD SWAP1 DUP2 MSTORE PUSH1 0x20 ADD PUSH0 KECCAK256 PUSH0 CALLER PUSH20 0xFFFFFFFFFFFFFFFFFFFFFFFFFFFFFFFFFFFFFFFF AND PUSH20 0xFFFFFFFFFFFFFFFFFFFFFFFFFFFFFFFFFFFFFFFF AND DUP2 MSTORE PUSH1 0x20 ADD SWAP1 DUP2 MSTORE PUSH1 0x20 ADD PUSH0 KECCAK256 SLOAD DUP3 GT ISZERO PUSH2 0x709 JUMPI PUSH1 0x40 MLOAD PUSH32 0x8C379A000000000000000000000000000000000000000000000000000000000 DUP2 MSTORE PUSH1 0x4 ADD PUSH2 0x700 SWAP1 PUSH2 0x17D2 JUMP JUMPDEST PUSH1 0x40 MLOAD DUP1 SWAP2 SUB SWAP1 REVERT JUMPDEST DUP2 PUSH1 0x7 PUSH0 DUP7 PUSH20 0xFFFFFFFFFFFFFFFFFFFFFFFFFFFFFFFFFFFFFFFF AND PUSH20 0xFFFFFFFFFFFFFFFFFFFFFFFFFFFFFFFFFFFFFFFF AND DUP2 MSTORE PUSH1 0x20 ADD SWAP1 DUP2 MSTORE PUSH1 0x20 ADD PUSH0 KECCAK256 PUSH0 DUP3 DUP3 SLOAD PUSH2 0x755 SWAP2 SWAP1 PUSH2 0x181D JUMP JUMPDEST SWAP3 POP POP DUP2 SWAP1 SSTORE POP DUP2 PUSH1 0x7 PUSH0 DUP6 PUSH20 0xFFFFFFFFFFFFFFFFFFFFFFFFFFFFFFFFFFFFFFFF AND PUSH20 0xFFFFFFFFFFFFFFFFFFFFFFFFFFFFFFFFFFFFFFFF AND DUP2 MSTORE PUSH1 0x20 ADD SWAP1 DUP2 MSTORE PUSH1 0x20 ADD PUSH0 KECCAK256 PUSH0 DUP3 DUP3 SLOAD PUSH2 0x7A8 SWAP2 SWAP1 PUSH2 0x1850 JUMP JUMPDEST SWAP3 POP POP DUP2 SWAP1 SSTORE POP DUP2 PUSH1 0x8 PUSH0 DUP7 PUSH20 0xFFFFFFFFFFFFFFFFFFFFFFFFFFFFFFFFFFFFFFFF AND PUSH20 0xFFFFFFFFFFFFFFFFFFFFFFFFFFFFFFFFFFFFFFFF AND DUP2 MSTORE PUSH1 0x20 ADD SWAP1 DUP2 MSTORE PUSH1 0x20 ADD PUSH0 KECCAK256 PUSH0 CALLER PUSH20 0xFFFFFFFFFFFFFFFFFFFFFFFFFFFFFFFFFFFFFFFF AND PUSH20 0xFFFFFFFFFFFFFFFFFFFFFFFFFFFFFFFFFFFFFFFF AND DUP2 MSTORE PUSH1 0x20 ADD SWAP1 DUP2 MSTORE PUSH1 0x20 ADD PUSH0 KECCAK256 PUSH0 DUP3 DUP3 SLOAD PUSH2 0x836 SWAP2 SWAP1 PUSH2 0x181D JUMP JUMPDEST SWAP3 POP POP DUP2 SWAP1 SSTORE POP DUP3 PUSH20 0xFFFFFFFFFFFFFFFFFFFFFFFFFFFFFFFFFFFFFFFF AND DUP5 PUSH20 0xFFFFFFFFFFFFFFFFFFFFFFFFFFFFFFFFFFFFFFFF AND PUSH32 0xDDF252AD1BE2C89B69C2B068FC378DAA952BA7F163C4A11628F55A4DF523B3EF DUP5 PUSH1 0x40 MLOAD PUSH2 0x89A SWAP2 SWAP1 PUSH2 0x162E JUMP JUMPDEST PUSH1 0x40 MLOAD DUP1 SWAP2 SUB SWAP1 LOG3 PUSH1 0x1 SWAP1 POP SWAP4 SWAP3 POP POP POP JUMP JUMPDEST PUSH1 0x3 SLOAD DUP2 JUMP JUMPDEST PUSH1 0x5 PUSH0 SWAP1 SLOAD SWAP1 PUSH2 0x100 EXP SWAP1 DIV PUSH20 0xFFFFFFFFFFFFFFFFFFFFFFFFFFFFFFFFFFFFFFFF AND PUSH20 0xFFFFFFFFFFFFFFFFFFFFFFFFFFFFFFFFFFFFFFFF AND CALLER PUSH20 0xFFFFFFFFFFFFFFFFFFFFFFFFFFFFFFFFFFFFFFFF AND EQ PUSH2 0x942 JUMPI PUSH1 0x40 MLOAD PUSH32 0x8C379A000000000000000000000000000000000000000000000000000000000 DUP2 MSTORE PUSH1 0x4 ADD PUSH2 0x939 SWAP1 PUSH2 0x17D2 JUMP JUMPDEST PUSH1 0x40 MLOAD DUP1 SWAP2 SUB SWAP1 REVERT JUMPDEST PUSH0 PUSH20 0xFFFFFFFFFFFFFFFFFFFFFFFFFFFFFFFFFFFFFFFF AND PUSH1 0x6 PUSH0 SWAP1 SLOAD SWAP1 PUSH2 0x100 EXP SWAP1 DIV PUSH20 0xFFFFFFFFFFFFFFFFFFFFFFFFFFFFFFFFFFFFFFFF AND PUSH20 0xFFFFFFFFFFFFFFFFFFFFFFFFFFFFFFFFFFFFFFFF AND SUB PUSH2 0x9D1 JUMPI PUSH1 0x40 MLOAD PUSH32 0x8C379A000000000000000000000000000000000000000000000000000000000 DUP2 MSTORE PUSH1 0x4 ADD PUSH2 0x9C8 SWAP1 PUSH2 0x17D2 JUMP JUMPDEST PUSH1 0x40 MLOAD DUP1 SWAP2 SUB SWAP1 REVERT JUMPDEST PUSH1 0x6 PUSH0 SWAP1 SLOAD SWAP1 PUSH2 0x100 EXP SWAP1 DIV PUSH20 0xFFFFFFFFFFFFFFFFFFFFFFFFFFFFFFFFFFFFFFFF AND PUSH20 0xFFFFFFFFFFFFFFFFFFFFFFFFFFFFFFFFFFFFFFFF AND PUSH4 0x70A08231 ADDRESS PUSH1 0x40 MLOAD DUP3 PUSH4 0xFFFFFFFF AND PUSH1 0xE0 SHL DUP2 MSTORE PUSH1 0x4 ADD PUSH2 0xA2B SWAP2 SWAP1 PUSH2 0x1606 JUMP JUMPDEST PUSH1 0x20 PUSH1 0x40 MLOAD DUP1 DUP4 SUB DUP2 DUP7 GAS STATICCALL ISZERO DUP1 ISZERO PUSH2 0xA46 JUMPI RETURNDATASIZE PUSH0 PUSH0 RETURNDATACOPY RETURNDATASIZE PUSH0 REVERT JUMPDEST POP POP POP POP PUSH1 0x40 MLOAD RETURNDATASIZE PUSH1 0x1F NOT PUSH1 0x1F DUP3 ADD AND DUP3 ADD DUP1 PUSH1 0x40 MSTORE POP DUP2 ADD SWAP1 PUSH2 0xA6A SWAP2 SWAP1 PUSH2 0x1897 JUMP JUMPDEST DUP2 GT ISZERO PUSH2 0xAAC JUMPI PUSH1 0x40 MLOAD PUSH32 0x8C379A000000000000000000000000000000000000000000000000000000000 DUP2 MSTORE PUSH1 0x4 ADD PUSH2 0xAA3 SWAP1 PUSH2 0x17D2 JUMP JUMPDEST PUSH1 0x40 MLOAD DUP1 SWAP2 SUB SWAP1 REVERT JUMPDEST PUSH1 0x6 PUSH0 SWAP1 SLOAD SWAP1 PUSH2 0x100 EXP SWAP1 DIV PUSH20 0xFFFFFFFFFFFFFFFFFFFFFFFFFFFFFFFFFFFFFFFF AND PUSH20 0xFFFFFFFFFFFFFFFFFFFFFFFFFFFFFFFFFFFFFFFF AND PUSH4 0xA9059CBB PUSH1 0x5 PUSH0 SWAP1 SLOAD SWAP1 PUSH2 0x100 EXP SWAP1 DIV PUSH20 0xFFFFFFFFFFFFFFFFFFFFFFFFFFFFFFFFFFFFFFFF AND DUP4 PUSH1 0x40 MLOAD DUP4 PUSH4 0xFFFFFFFF AND PUSH1 0xE0 SHL DUP2 MSTORE PUSH1 0x4 ADD PUSH2 0xB29 SWAP3 SWAP2 SWAP1 PUSH2 0x18C2 JUMP JUMPDEST PUSH1 0x20 PUSH1 0x40 MLOAD DUP1 DUP4 SUB DUP2 PUSH0 DUP8 GAS CALL ISZERO DUP1 ISZERO PUSH2 0xB45 JUMPI RETURNDATASIZE PUSH0 PUSH0 RETURNDATACOPY RETURNDATASIZE PUSH0 REVERT JUMPDEST POP POP POP POP PUSH1 0x40 MLOAD RETURNDATASIZE PUSH1 0x1F NOT PUSH1 0x1F DUP3 ADD AND DUP3 ADD DUP1 PUSH1 0x40 MSTORE POP DUP2 ADD SWAP1 PUSH2 0xB69 SWAP2 SWAP1 PUSH2 0x1913 JUMP JUMPDEST PUSH2 0xBA8 JUMPI PUSH1 0x40 MLOAD PUSH32 0x8C379A000000000000000000000000000000000000000000000000000000000 DUP2 MSTORE PUSH1 0x4 ADD PUSH2 0xB9F SWAP1 PUSH2 0x17D2 JUMP JUMPDEST PUSH1 0x40 MLOAD DUP1 SWAP2 SUB SWAP1 REVERT JUMPDEST PUSH1 0x5 PUSH0 SWAP1 SLOAD SWAP1 PUSH2 0x100 EXP SWAP1 DIV PUSH20 0xFFFFFFFFFFFFFFFFFFFFFFFFFFFFFFFFFFFFFFFF AND PUSH20 0xFFFFFFFFFFFFFFFFFFFFFFFFFFFFFFFFFFFFFFFF AND PUSH32 0x37238854FE57FBF51F09946F854FC3916FE83938D6521F09BD05463839F1304 PUSH1 0x6 PUSH0 SWAP1 SLOAD SWAP1 PUSH2 0x100 EXP SWAP1 DIV PUSH20 0xFFFFFFFFFFFFFFFFFFFFFFFFFFFFFFFFFFFFFFFF AND DUP4 PUSH1 0x40 MLOAD PUSH2 0xC32 SWAP3 SWAP2 SWAP1 PUSH2 0x18C2 JUMP JUMPDEST PUSH1 0x40 MLOAD DUP1 SWAP2 SUB SWAP1 LOG2 POP JUMP JUMPDEST PUSH2 0xC45 PUSH2 0x12CD JUMP JUMPDEST PUSH0 DUP2 GT PUSH2 0xC87 JUMPI PUSH1 0x40 MLOAD PUSH32 0x8C379A000000000000000000000000000000000000000000000000000000000 DUP2 MSTORE PUSH1 0x4 ADD PUSH2 0xC7E SWAP1 PUSH2 0x17D2 JUMP JUMPDEST PUSH1 0x40 MLOAD DUP1 SWAP2 SUB SWAP1 REVERT JUMPDEST PUSH0 PUSH20 0xFFFFFFFFFFFFFFFFFFFFFFFFFFFFFFFFFFFFFFFF AND PUSH1 0x6 PUSH0 SWAP1 SLOAD SWAP1 PUSH2 0x100 EXP SWAP1 DIV PUSH20 0xFFFFFFFFFFFFFFFFFFFFFFFFFFFFFFFFFFFFFFFF AND PUSH20 0xFFFFFFFFFFFFFFFFFFFFFFFFFFFFFFFFFFFFFFFF AND SUB PUSH2 0xD16 JUMPI PUSH1 0x40 MLOAD PUSH32 0x8C379A000000000000000000000000000000000000000000000000000000000 DUP2 MSTORE PUSH1 0x4 ADD PUSH2 0xD0D SWAP1 PUSH2 0x17D2 JUMP JUMPDEST PUSH1 0x40 MLOAD DUP1 SWAP2 SUB SWAP1 REVERT JUMPDEST PUSH1 0x6 PUSH0 SWAP1 SLOAD SWAP1 PUSH2 0x100 EXP SWAP1 DIV PUSH20 0xFFFFFFFFFFFFFFFFFFFFFFFFFFFFFFFFFFFFFFFF AND PUSH20 0xFFFFFFFFFFFFFFFFFFFFFFFFFFFFFFFFFFFFFFFF AND PUSH4 0x23B872DD CALLER ADDRESS DUP5 PUSH1 0x40 MLOAD DUP5 PUSH4 0xFFFFFFFF AND PUSH1 0xE0 SHL DUP2 MSTORE PUSH1 0x4 ADD PUSH2 0xD74 SWAP4 SWAP3 SWAP2 SWAP1 PUSH2 0x193E JUMP JUMPDEST PUSH1 0x20 PUSH1 0x40 MLOAD DUP1 DUP4 SUB DUP2 PUSH0 DUP8 GAS CALL ISZERO DUP1 ISZERO PUSH2 0xD90 JUMPI RETURNDATASIZE PUSH0 PUSH0 RETURNDATACOPY RETURNDATASIZE PUSH0 REVERT JUMPDEST POP POP POP POP PUSH1 0x40 MLOAD RETURNDATASIZE PUSH1 0x1F NOT PUSH1 0x1F DUP3 ADD AND DUP3 ADD DUP1 PUSH1 0x40 MSTORE POP DUP2 ADD SWAP1 PUSH2 0xDB4 SWAP2 SWAP1 PUSH2 0x1913 JUMP JUMPDEST PUSH2 0xDF3 JUMPI PUSH1 0x40 MLOAD PUSH32 0x8C379A000000000000000000000000000000000000000000000000000000000 DUP2 MSTORE PUSH1 0x4 ADD PUSH2 0xDEA SWAP1 PUSH2 0x17D2 JUMP JUMPDEST PUSH1 0x40 MLOAD DUP1 SWAP2 SUB SWAP1 REVERT JUMPDEST PUSH0 PUSH1 0x14 DUP3 PUSH2 0xE01 SWAP2 SWAP1 PUSH2 0x1973 JUMP JUMPDEST SWAP1 POP PUSH2 0xE0D CALLER DUP3 PUSH2 0x131A JUMP JUMPDEST CALLER PUSH20 0xFFFFFFFFFFFFFFFFFFFFFFFFFFFFFFFFFFFFFFFF AND PUSH32 0xCC78F3B4102FAF5E7649C63E1B487C5B00D1A832307B4026827BB66F066125A3 PUSH1 0x6 PUSH0 SWAP1 SLOAD SWAP1 PUSH2 0x100 EXP SWAP1 DIV PUSH20 0xFFFFFFFFFFFFFFFFFFFFFFFFFFFFFFFFFFFFFFFF AND DUP5 DUP5 PUSH1 0x7 PUSH0 CALLER PUSH20 0xFFFFFFFFFFFFFFFFFFFFFFFFFFFFFFFFFFFFFFFF AND PUSH20 0xFFFFFFFFFFFFFFFFFFFFFFFFFFFFFFFFFFFFFFFF AND DUP2 MSTORE PUSH1 0x20 ADD SWAP1 DUP2 MSTORE PUSH1 0x20 ADD PUSH0 KECCAK256 SLOAD PUSH1 0x40 MLOAD PUSH2 0xEB7 SWAP5 SWAP4 SWAP3 SWAP2 SWAP1 PUSH2 0x19B4 JUMP JUMPDEST PUSH1 0x40 MLOAD DUP1 SWAP2 SUB SWAP1 LOG2 POP PUSH2 0xEC8 PUSH2 0x145C JUMP JUMPDEST POP JUMP JUMPDEST PUSH1 0x7 PUSH1 0x20 MSTORE DUP1 PUSH0 MSTORE PUSH1 0x40 PUSH0 KECCAK256 PUSH0 SWAP2 POP SWAP1 POP SLOAD DUP2 JUMP JUMPDEST PUSH0 PUSH1 0x7 PUSH0 DUP4 PUSH20 0xFFFFFFFFFFFFFFFFFFFFFFFFFFFFFFFFFFFFFFFF AND PUSH20 0xFFFFFFFFFFFFFFFFFFFFFFFFFFFFFFFFFFFFFFFF AND DUP2 MSTORE PUSH1 0x20 ADD SWAP1 DUP2 MSTORE PUSH1 0x20 ADD PUSH0 KECCAK256 SLOAD SWAP1 POP SWAP2 SWAP1 POP JUMP JUMPDEST PUSH1 0x2 DUP1 SLOAD PUSH2 0xF33 SWAP1 PUSH2 0x1758 JUMP JUMPDEST DUP1 PUSH1 0x1F ADD PUSH1 0x20 DUP1 SWAP2 DIV MUL PUSH1 0x20 ADD PUSH1 0x40 MLOAD SWAP1 DUP2 ADD PUSH1 0x40 MSTORE DUP1 SWAP3 SWAP2 SWAP1 DUP2 DUP2 MSTORE PUSH1 0x20 ADD DUP3 DUP1 SLOAD PUSH2 0xF5F SWAP1 PUSH2 0x1758 JUMP JUMPDEST DUP1 ISZERO PUSH2 0xFAA JUMPI DUP1 PUSH1 0x1F LT PUSH2 0xF81 JUMPI PUSH2 0x100 DUP1 DUP4 SLOAD DIV MUL DUP4 MSTORE SWAP2 PUSH1 0x20 ADD SWAP2 PUSH2 0xFAA JUMP JUMPDEST DUP3 ADD SWAP2 SWAP1 PUSH0 MSTORE PUSH1 0x20 PUSH0 KECCAK256 SWAP1 JUMPDEST DUP2 SLOAD DUP2 MSTORE SWAP1 PUSH1 0x1 ADD SWAP1 PUSH1 0x20 ADD DUP1 DUP4 GT PUSH2 0xF8D JUMPI DUP3 SWAP1 SUB PUSH1 0x1F AND DUP3 ADD SWAP2 JUMPDEST POP POP POP POP POP DUP2 JUMP JUMPDEST PUSH0 PUSH0 PUSH20 0xFFFFFFFFFFFFFFFFFFFFFFFFFFFFFFFFFFFFFFFF AND DUP4 PUSH20 0xFFFFFFFFFFFFFFFFFFFFFFFFFFFFFFFFFFFFFFFF AND SUB PUSH2 0x1021 JUMPI PUSH1 0x40 MLOAD PUSH32 0x8C379A000000000000000000000000000000000000000000000000000000000 DUP2 MSTORE PUSH1 0x4 ADD PUSH2 0x1018 SWAP1 PUSH2 0x17D2 JUMP JUMPDEST PUSH1 0x40 MLOAD DUP1 SWAP2 SUB SWAP1 REVERT JUMPDEST DUP2 PUSH1 0x7 PUSH0 CALLER PUSH20 0xFFFFFFFFFFFFFFFFFFFFFFFFFFFFFFFFFFFFFFFF AND PUSH20 0xFFFFFFFFFFFFFFFFFFFFFFFFFFFFFFFFFFFFFFFF AND DUP2 MSTORE PUSH1 0x20 ADD SWAP1 DUP2 MSTORE PUSH1 0x20 ADD PUSH0 KECCAK256 SLOAD LT ISZERO PUSH2 0x10A1 JUMPI PUSH1 0x40 MLOAD PUSH32 0x8C379A000000000000000000000000000000000000000000000000000000000 DUP2 MSTORE PUSH1 0x4 ADD PUSH2 0x1098 SWAP1 PUSH2 0x17D2 JUMP JUMPDEST PUSH1 0x40 MLOAD DUP1 SWAP2 SUB SWAP1 REVERT JUMPDEST DUP2 PUSH1 0x7 PUSH0 CALLER PUSH20 0xFFFFFFFFFFFFFFFFFFFFFFFFFFFFFFFFFFFFFFFF AND PUSH20 0xFFFFFFFFFFFFFFFFFFFFFFFFFFFFFFFFFFFFFFFF AND DUP2 MSTORE PUSH1 0x20 ADD SWAP1 DUP2 MSTORE PUSH1 0x20 ADD PUSH0 KECCAK256 PUSH0 DUP3 DUP3 SLOAD PUSH2 0x10ED SWAP2 SWAP1 PUSH2 0x181D JUMP JUMPDEST SWAP3 POP POP DUP2 SWAP1 SSTORE POP DUP2 PUSH1 0x7 PUSH0 DUP6 PUSH20 0xFFFFFFFFFFFFFFFFFFFFFFFFFFFFFFFFFFFFFFFF AND PUSH20 0xFFFFFFFFFFFFFFFFFFFFFFFFFFFFFFFFFFFFFFFF AND DUP2 MSTORE PUSH1 0x20 ADD SWAP1 DUP2 MSTORE PUSH1 0x20 ADD PUSH0 KECCAK256 PUSH0 DUP3 DUP3 SLOAD PUSH2 0x1140 SWAP2 SWAP1 PUSH2 0x1850 JUMP JUMPDEST SWAP3 POP POP DUP2 SWAP1 SSTORE POP DUP3 PUSH20 0xFFFFFFFFFFFFFFFFFFFFFFFFFFFFFFFFFFFFFFFF AND CALLER PUSH20 0xFFFFFFFFFFFFFFFFFFFFFFFFFFFFFFFFFFFFFFFF AND PUSH32 0xDDF252AD1BE2C89B69C2B068FC378DAA952BA7F163C4A11628F55A4DF523B3EF DUP5 PUSH1 0x40 MLOAD PUSH2 0x11A4 SWAP2 SWAP1 PUSH2 0x162E JUMP JUMPDEST PUSH1 0x40 MLOAD DUP1 SWAP2 SUB SWAP1 LOG3 PUSH1 0x1 SWAP1 POP SWAP3 SWAP2 POP POP JUMP JUMPDEST PUSH1 0x5 PUSH0 SWAP1 SLOAD SWAP1 PUSH2 0x100 EXP SWAP1 DIV PUSH20 0xFFFFFFFFFFFFFFFFFFFFFFFFFFFFFFFFFFFFFFFF AND PUSH20 0xFFFFFFFFFFFFFFFFFFFFFFFFFFFFFFFFFFFFFFFF AND CALLER PUSH20 0xFFFFFFFFFFFFFFFFFFFFFFFFFFFFFFFFFFFFFFFF AND EQ PUSH2 0x1245 JUMPI PUSH1 0x40 MLOAD PUSH32 0x8C379A000000000000000000000000000000000000000000000000000000000 DUP2 MSTORE PUSH1 0x4 ADD PUSH2 0x123C SWAP1 PUSH2 0x17D2 JUMP JUMPDEST PUSH1 0x40 MLOAD DUP1 SWAP2 SUB SWAP1 REVERT JUMPDEST DUP1 PUSH1 0x6 PUSH0 PUSH2 0x100 EXP DUP2 SLOAD DUP2 PUSH20 0xFFFFFFFFFFFFFFFFFFFFFFFFFFFFFFFFFFFFFFFF MUL NOT AND SWAP1 DUP4 PUSH20 0xFFFFFFFFFFFFFFFFFFFFFFFFFFFFFFFFFFFFFFFF AND MUL OR SWAP1 SSTORE POP POP JUMP JUMPDEST PUSH1 0x8 PUSH1 0x20 MSTORE DUP2 PUSH0 MSTORE PUSH1 0x40 PUSH0 KECCAK256 PUSH1 0x20 MSTORE DUP1 PUSH0 MSTORE PUSH1 0x40 PUSH0 KECCAK256 PUSH0 SWAP2 POP SWAP2 POP POP SLOAD DUP2 JUMP JUMPDEST PUSH1 0x5 PUSH0 SWAP1 SLOAD SWAP1 PUSH2 0x100 EXP SWAP1 DIV PUSH20 0xFFFFFFFFFFFFFFFFFFFFFFFFFFFFFFFFFFFFFFFF AND DUP2 JUMP JUMPDEST PUSH1 0x2 PUSH0 SLOAD SUB PUSH2 0x1311 JUMPI PUSH1 0x40 MLOAD PUSH32 0x8C379A000000000000000000000000000000000000000000000000000000000 DUP2 MSTORE PUSH1 0x4 ADD PUSH2 0x1308 SWAP1 PUSH2 0x1A41 JUMP JUMPDEST PUSH1 0x40 MLOAD DUP1 SWAP2 SUB SWAP1 REVERT JUMPDEST PUSH1 0x2 PUSH0 DUP2 SWAP1 SSTORE POP JUMP JUMPDEST PUSH0 PUSH20 0xFFFFFFFFFFFFFFFFFFFFFFFFFFFFFFFFFFFFFFFF AND DUP3 PUSH20 0xFFFFFFFFFFFFFFFFFFFFFFFFFFFFFFFFFFFFFFFF AND SUB PUSH2 0x1388 JUMPI PUSH1 0x40 MLOAD PUSH32 0x8C379A000000000000000000000000000000000000000000000000000000000 DUP2 MSTORE PUSH1 0x4 ADD PUSH2 0x137F SWAP1 PUSH2 0x17D2 JUMP JUMPDEST PUSH1 0x40 MLOAD DUP1 SWAP2 SUB SWAP1 REVERT JUMPDEST DUP1 PUSH1 0x4 PUSH0 DUP3 DUP3 SLOAD PUSH2 0x1399 SWAP2 SWAP1 PUSH2 0x1850 JUMP JUMPDEST SWAP3 POP POP DUP2 SWAP1 SSTORE POP DUP1 PUSH1 0x7 PUSH0 DUP5 PUSH20 0xFFFFFFFFFFFFFFFFFFFFFFFFFFFFFFFFFFFFFFFF AND PUSH20 0xFFFFFFFFFFFFFFFFFFFFFFFFFFFFFFFFFFFFFFFF AND DUP2 MSTORE PUSH1 0x20 ADD SWAP1 DUP2 MSTORE PUSH1 0x20 ADD PUSH0 KECCAK256 PUSH0 DUP3 DUP3 SLOAD PUSH2 0x13EC SWAP2 SWAP1 PUSH2 0x1850 JUMP JUMPDEST SWAP3 POP POP DUP2 SWAP1 SSTORE POP DUP2 PUSH20 0xFFFFFFFFFFFFFFFFFFFFFFFFFFFFFFFFFFFFFFFF AND PUSH0 PUSH20 0xFFFFFFFFFFFFFFFFFFFFFFFFFFFFFFFFFFFFFFFF AND PUSH32 0xDDF252AD1BE2C89B69C2B068FC378DAA952BA7F163C4A11628F55A4DF523B3EF DUP4 PUSH1 0x40 MLOAD PUSH2 0x1450 SWAP2 SWAP1 PUSH2 0x162E JUMP JUMPDEST PUSH1 0x40 MLOAD DUP1 SWAP2 SUB SWAP1 LOG3 POP POP JUMP JUMPDEST PUSH1 0x1 PUSH0 DUP2 SWAP1 SSTORE POP JUMP JUMPDEST PUSH0 DUP2 MLOAD SWAP1 POP SWAP2 SWAP1 POP JUMP JUMPDEST PUSH0 DUP3 DUP3 MSTORE PUSH1 0x20 DUP3 ADD SWAP1 POP SWAP3 SWAP2 POP POP JUMP JUMPDEST DUP3 DUP2 DUP4 MCOPY PUSH0 DUP4 DUP4 ADD MSTORE POP POP POP JUMP JUMPDEST PUSH0 PUSH1 0x1F NOT PUSH1 0x1F DUP4 ADD AND SWAP1 POP SWAP2 SWAP1 POP JUMP JUMPDEST PUSH0 PUSH2 0x14A7 DUP3 PUSH2 0x1465 JUMP JUMPDEST PUSH2 0x14B1 DUP2 DUP6 PUSH2 0x146F JUMP JUMPDEST SWAP4 POP PUSH2 0x14C1 DUP2 DUP6 PUSH1 0x20 DUP7 ADD PUSH2 0x147F JUMP JUMPDEST PUSH2 0x14CA DUP2 PUSH2 0x148D JUMP JUMPDEST DUP5 ADD SWAP2 POP POP SWAP3 SWAP2 POP POP JUMP JUMPDEST PUSH0 PUSH1 0x20 DUP3 ADD SWAP1 POP DUP2 DUP2 SUB PUSH0 DUP4 ADD MSTORE PUSH2 0x14ED DUP2 DUP5 PUSH2 0x149D JUMP JUMPDEST SWAP1 POP SWAP3 SWAP2 POP POP JUMP JUMPDEST PUSH0 PUSH0 REVERT JUMPDEST PUSH0 PUSH20 0xFFFFFFFFFFFFFFFFFFFFFFFFFFFFFFFFFFFFFFFF DUP3 AND SWAP1 POP SWAP2 SWAP1 POP JUMP JUMPDEST PUSH0 PUSH2 0x1522 DUP3 PUSH2 0x14F9 JUMP JUMPDEST SWAP1 POP SWAP2 SWAP1 POP JUMP JUMPDEST PUSH2 0x1532 DUP2 PUSH2 0x1518 JUMP JUMPDEST DUP2 EQ PUSH2 0x153C JUMPI PUSH0 PUSH0 REVERT JUMPDEST POP JUMP JUMPDEST PUSH0 DUP2 CALLDATALOAD SWAP1 POP PUSH2 0x154D DUP2 PUSH2 0x1529 JUMP JUMPDEST SWAP3 SWAP2 POP POP JUMP JUMPDEST PUSH0 DUP2 SWAP1 POP SWAP2 SWAP1 POP JUMP JUMPDEST PUSH2 0x1565 DUP2 PUSH2 0x1553 JUMP JUMPDEST DUP2 EQ PUSH2 0x156F JUMPI PUSH0 PUSH0 REVERT JUMPDEST POP JUMP JUMPDEST PUSH0 DUP2 CALLDATALOAD SWAP1 POP PUSH2 0x1580 DUP2 PUSH2 0x155C JUMP JUMPDEST SWAP3 SWAP2 POP POP JUMP JUMPDEST PUSH0 PUSH0 PUSH1 0x40 DUP4 DUP6 SUB SLT ISZERO PUSH2 0x159C JUMPI PUSH2 0x159B PUSH2 0x14F5 JUMP JUMPDEST JUMPDEST PUSH0 PUSH2 0x15A9 DUP6 DUP3 DUP7 ADD PUSH2 0x153F JUMP JUMPDEST SWAP3 POP POP PUSH1 0x20 PUSH2 0x15BA DUP6 DUP3 DUP7 ADD PUSH2 0x1572 JUMP JUMPDEST SWAP2 POP POP SWAP3 POP SWAP3 SWAP1 POP JUMP JUMPDEST PUSH0 DUP2 ISZERO ISZERO SWAP1 POP SWAP2 SWAP1 POP JUMP JUMPDEST PUSH2 0x15D8 DUP2 PUSH2 0x15C4 JUMP JUMPDEST DUP3 MSTORE POP POP JUMP JUMPDEST PUSH0 PUSH1 0x20 DUP3 ADD SWAP1 POP PUSH2 0x15F1 PUSH0 DUP4 ADD DUP5 PUSH2 0x15CF JUMP JUMPDEST SWAP3 SWAP2 POP POP JUMP JUMPDEST PUSH2 0x1600 DUP2 PUSH2 0x1518 JUMP JUMPDEST DUP3 MSTORE POP POP JUMP JUMPDEST PUSH0 PUSH1 0x20 DUP3 ADD SWAP1 POP PUSH2 0x1619 PUSH0 DUP4 ADD DUP5 PUSH2 0x15F7 JUMP JUMPDEST SWAP3 SWAP2 POP POP JUMP JUMPDEST PUSH2 0x1628 DUP2 PUSH2 0x1553 JUMP JUMPDEST DUP3 MSTORE POP POP JUMP JUMPDEST PUSH0 PUSH1 0x20 DUP3 ADD SWAP1 POP PUSH2 0x1641 PUSH0 DUP4 ADD DUP5 PUSH2 0x161F JUMP JUMPDEST SWAP3 SWAP2 POP POP JUMP JUMPDEST PUSH0 PUSH0 PUSH0 PUSH1 0x60 DUP5 DUP7 SUB SLT ISZERO PUSH2 0x165E JUMPI PUSH2 0x165D PUSH2 0x14F5 JUMP JUMPDEST JUMPDEST PUSH0 PUSH2 0x166B DUP7 DUP3 DUP8 ADD PUSH2 0x153F JUMP JUMPDEST SWAP4 POP POP PUSH1 0x20 PUSH2 0x167C DUP7 DUP3 DUP8 ADD PUSH2 0x153F JUMP JUMPDEST SWAP3 POP POP PUSH1 0x40 PUSH2 0x168D DUP7 DUP3 DUP8 ADD PUSH2 0x1572 JUMP JUMPDEST SWAP2 POP POP SWAP3 POP SWAP3 POP SWAP3 JUMP JUMPDEST PUSH0 PUSH1 0x20 DUP3 DUP5 SUB SLT ISZERO PUSH2 0x16AC JUMPI PUSH2 0x16AB PUSH2 0x14F5 JUMP JUMPDEST JUMPDEST PUSH0 PUSH2 0x16B9 DUP5 DUP3 DUP6 ADD PUSH2 0x1572 JUMP JUMPDEST SWAP2 POP POP SWAP3 SWAP2 POP POP JUMP JUMPDEST PUSH0 PUSH1 0x20 DUP3 DUP5 SUB SLT ISZERO PUSH2 0x16D7 JUMPI PUSH2 0x16D6 PUSH2 0x14F5 JUMP JUMPDEST JUMPDEST PUSH0 PUSH2 0x16E4 DUP5 DUP3 DUP6 ADD PUSH2 0x153F JUMP JUMPDEST SWAP2 POP POP SWAP3 SWAP2 POP POP JUMP JUMPDEST PUSH0 PUSH0 PUSH1 0x40 DUP4 DUP6 SUB SLT ISZERO PUSH2 0x1703 JUMPI PUSH2 0x1702 PUSH2 0x14F5 JUMP JUMPDEST JUMPDEST PUSH0 PUSH2 0x1710 DUP6 DUP3 DUP7 ADD PUSH2 0x153F JUMP JUMPDEST SWAP3 POP POP PUSH1 0x20 PUSH2 0x1721 DUP6 DUP3 DUP7 ADD PUSH2 0x153F JUMP JUMPDEST SWAP2 POP POP SWAP3 POP SWAP3 SWAP1 POP JUMP JUMPDEST PUSH32 0x4E487B7100000000000000000000000000000000000000000000000000000000 PUSH0 MSTORE PUSH1 0x22 PUSH1 0x4 MSTORE PUSH1 0x24 PUSH0 REVERT JUMPDEST PUSH0 PUSH1 0x2 DUP3 DIV SWAP1 POP PUSH1 0x1 DUP3 AND DUP1 PUSH2 0x176F JUMPI PUSH1 0x7F DUP3 AND SWAP2 POP JUMPDEST PUSH1 0x20 DUP3 LT DUP2 SUB PUSH2 0x1782 JUMPI PUSH2 0x1781 PUSH2 0x172B JUMP JUMPDEST JUMPDEST POP SWAP2 SWAP1 POP JUMP JUMPDEST PUSH32 0x3100000000000000000000000000000000000000000000000000000000000000 PUSH0 DUP3 ADD MSTORE POP JUMP JUMPDEST PUSH0 PUSH2 0x17BC PUSH1 0x1 DUP4 PUSH2 0x146F JUMP JUMPDEST SWAP2 POP PUSH2 0x17C7 DUP3 PUSH2 0x1788 JUMP JUMPDEST PUSH1 0x20 DUP3 ADD SWAP1 POP SWAP2 SWAP1 POP JUMP JUMPDEST PUSH0 PUSH1 0x20 DUP3 ADD SWAP1 POP DUP2 DUP2 SUB PUSH0 DUP4 ADD MSTORE PUSH2 0x17E9 DUP2 PUSH2 0x17B0 JUMP JUMPDEST SWAP1 POP SWAP2 SWAP1 POP JUMP JUMPDEST PUSH32 0x4E487B7100000000000000000000000000000000000000000000000000000000 PUSH0 MSTORE PUSH1 0x11 PUSH1 0x4 MSTORE PUSH1 0x24 PUSH0 REVERT JUMPDEST PUSH0 PUSH2 0x1827 DUP3 PUSH2 0x1553 JUMP JUMPDEST SWAP2 POP PUSH2 0x1832 DUP4 PUSH2 0x1553 JUMP JUMPDEST SWAP3 POP DUP3 DUP3 SUB SWAP1 POP DUP2 DUP2 GT ISZERO PUSH2 0x184A JUMPI PUSH2 0x1849 PUSH2 0x17F0 JUMP JUMPDEST JUMPDEST SWAP3 SWAP2 POP POP JUMP JUMPDEST PUSH0 PUSH2 0x185A DUP3 PUSH2 0x1553 JUMP JUMPDEST SWAP2 POP PUSH2 0x1865 DUP4 PUSH2 0x1553 JUMP JUMPDEST SWAP3 POP DUP3 DUP3 ADD SWAP1 POP DUP1 DUP3 GT ISZERO PUSH2 0x187D JUMPI PUSH2 0x187C PUSH2 0x17F0 JUMP JUMPDEST JUMPDEST SWAP3 SWAP2 POP POP JUMP JUMPDEST PUSH0 DUP2 MLOAD SWAP1 POP PUSH2 0x1891 DUP2 PUSH2 0x155C JUMP JUMPDEST SWAP3 SWAP2 POP POP JUMP JUMPDEST PUSH0 PUSH1 0x20 DUP3 DUP5 SUB SLT ISZERO PUSH2 0x18AC JUMPI PUSH2 0x18AB PUSH2 0x14F5 JUMP JUMPDEST JUMPDEST PUSH0 PUSH2 0x18B9 DUP5 DUP3 DUP6 ADD PUSH2 0x1883 JUMP JUMPDEST SWAP2 POP POP SWAP3 SWAP2 POP POP JUMP JUMPDEST PUSH0 PUSH1 0x40 DUP3 ADD SWAP1 POP PUSH2 0x18D5 PUSH0 DUP4 ADD DUP6 PUSH2 0x15F7 JUMP JUMPDEST PUSH2 0x18E2 PUSH1 0x20 DUP4 ADD DUP5 PUSH2 0x161F JUMP JUMPDEST SWAP4 SWAP3 POP POP POP JUMP JUMPDEST PUSH2 0x18F2 DUP2 PUSH2 0x15C4 JUMP JUMPDEST DUP2 EQ PUSH2 0x18FC JUMPI PUSH0 PUSH0 REVERT JUMPDEST POP JUMP JUMPDEST PUSH0 DUP2 MLOAD SWAP1 POP PUSH2 0x190D DUP2 PUSH2 0x18E9 JUMP JUMPDEST SWAP3 SWAP2 POP POP JUMP JUMPDEST PUSH0 PUSH1 0x20 DUP3 DUP5 SUB SLT ISZERO PUSH2 0x1928 JUMPI PUSH2 0x1927 PUSH2 0x14F5 JUMP JUMPDEST JUMPDEST PUSH0 PUSH2 0x1935 DUP5 DUP3 DUP6 ADD PUSH2 0x18FF JUMP JUMPDEST SWAP2 POP POP SWAP3 SWAP2 POP POP JUMP JUMPDEST PUSH0 PUSH1 0x60 DUP3 ADD SWAP1 POP PUSH2 0x1951 PUSH0 DUP4 ADD DUP7 PUSH2 0x15F7 JUMP JUMPDEST PUSH2 0x195E PUSH1 0x20 DUP4 ADD DUP6 PUSH2 0x15F7 JUMP JUMPDEST PUSH2 0x196B PUSH1 0x40 DUP4 ADD DUP5 PUSH2 0x161F JUMP JUMPDEST SWAP5 SWAP4 POP POP POP POP JUMP JUMPDEST PUSH0 PUSH2 0x197D DUP3 PUSH2 0x1553 JUMP JUMPDEST SWAP2 POP PUSH2 0x1988 DUP4 PUSH2 0x1553 JUMP JUMPDEST SWAP3 POP DUP3 DUP3 MUL PUSH2 0x1996 DUP2 PUSH2 0x1553 JUMP JUMPDEST SWAP2 POP DUP3 DUP3 DIV DUP5 EQ DUP4 ISZERO OR PUSH2 0x19AD JUMPI PUSH2 0x19AC PUSH2 0x17F0 JUMP JUMPDEST JUMPDEST POP SWAP3 SWAP2 POP POP JUMP JUMPDEST PUSH0 PUSH1 0x80 DUP3 ADD SWAP1 POP PUSH2 0x19C7 PUSH0 DUP4 ADD DUP8 PUSH2 0x15F7 JUMP JUMPDEST PUSH2 0x19D4 PUSH1 0x20 DUP4 ADD DUP7 PUSH2 0x161F JUMP JUMPDEST PUSH2 0x19E1 PUSH1 0x40 DUP4 ADD DUP6 PUSH2 0x161F JUMP JUMPDEST PUSH2 0x19EE PUSH1 0x60 DUP4 ADD DUP5 PUSH2 0x161F JUMP JUMPDEST SWAP6 SWAP5 POP POP POP POP POP JUMP JUMPDEST PUSH32 0x5265656E7472616E637947756172643A207265656E7472616E742063616C6C00 PUSH0 DUP3 ADD MSTORE POP JUMP JUMPDEST PUSH0 PUSH2 0x1A2B PUSH1 0x1F DUP4 PUSH2 0x146F JUMP JUMPDEST SWAP2 POP PUSH2 0x1A36 DUP3 PUSH2 0x19F7 JUMP JUMPDEST PUSH1 0x20 DUP3 ADD SWAP1 POP SWAP2 SWAP1 POP JUMP JUMPDEST PUSH0 PUSH1 0x20 DUP3 ADD SWAP1 POP DUP2 DUP2 SUB PUSH0 DUP4 ADD MSTORE PUSH2 0x1A58 DUP2 PUSH2 0x1A1F JUMP JUMPDEST SWAP1 POP SWAP2 SWAP1 POP JUMP INVALID LOG2 PUSH5 0x6970667358 0x22 SLT KECCAK256 GAS 0xE CODESIZE 0xD9 LOG2 RJUMPI 0xCD47 0x4C PUSH31 0xC9A2CB1682B32839DCDF8392B66F35DBDB201C2D21F264736F6C634300081E STOP CALLER "
				},
				"gasEstimates": {
					"creation": {
						"codeDepositCost": "1361000",
						"executionCost": "infinite",
						"totalCost": "infinite"
					},
					"external": {
						"EXCHANGE_RATE()": "415",
						"admin()": "2596",
						"allowance(address,address)": "infinite",
						"approve(address,uint256)": "infinite",
						"balanceOf(address)": "2847",
						"balanceOfRWT(address)": "2896",
						"decimals()": "2492",
						"depositToken(uint256)": "infinite",
						"name()": "infinite",
						"setSupportedToken(address)": "26928",
						"supportedToken()": "2576",
						"symbol()": "infinite",
						"totalSupply()": "2448",
						"transfer(address,uint256)": "infinite",
						"transferFrom(address,address,uint256)": "infinite",
						"withdrawToken(uint256)": "infinite"
					},
					"internal": {
						"_mint(address,uint256)": "infinite"
					}
				},
				"methodIdentifiers": {
					"EXCHANGE_RATE()": "14a8bd0d",
					"admin()": "f851a440",
					"allowance(address,address)": "dd62ed3e",
					"approve(address,uint256)": "095ea7b3",
					"balanceOf(address)": "70a08231",
					"balanceOfRWT(address)": "94cbc027",
					"decimals()": "313ce567",
					"depositToken(uint256)": "6215be77",
					"name()": "06fdde03",
					"setSupportedToken(address)": "bc2f2dcf",
					"supportedToken()": "0ee0599c",
					"symbol()": "95d89b41",
					"totalSupply()": "18160ddd",
					"transfer(address,uint256)": "a9059cbb",
					"transferFrom(address,address,uint256)": "23b872dd",
					"withdrawToken(uint256)": "50baa622"
				}
			},
			"storageLayout": {
				"storage": [
					{
						"astId": 10,
						"contract": "contracts/CCK/CC2/ces.sol:CurrencyExchange",
						"label": "_status",
						"offset": 0,
						"slot": "0",
						"type": "t_uint256"
					},
					{
						"astId": 151,
						"contract": "contracts/CCK/CC2/ces.sol:CurrencyExchange",
						"label": "name",
						"offset": 0,
						"slot": "1",
						"type": "t_string_storage"
					},
					{
						"astId": 154,
						"contract": "contracts/CCK/CC2/ces.sol:CurrencyExchange",
						"label": "symbol",
						"offset": 0,
						"slot": "2",
						"type": "t_string_storage"
					},
					{
						"astId": 157,
						"contract": "contracts/CCK/CC2/ces.sol:CurrencyExchange",
						"label": "decimals",
						"offset": 0,
						"slot": "3",
						"type": "t_uint256"
					},
					{
						"astId": 159,
						"contract": "contracts/CCK/CC2/ces.sol:CurrencyExchange",
						"label": "totalSupply",
						"offset": 0,
						"slot": "4",
						"type": "t_uint256"
					},
					{
						"astId": 161,
						"contract": "contracts/CCK/CC2/ces.sol:CurrencyExchange",
						"label": "admin",
						"offset": 0,
						"slot": "5",
						"type": "t_address"
					},
					{
						"astId": 163,
						"contract": "contracts/CCK/CC2/ces.sol:CurrencyExchange",
						"label": "supportedToken",
						"offset": 0,
						"slot": "6",
						"type": "t_address"
					},
					{
						"astId": 170,
						"contract": "contracts/CCK/CC2/ces.sol:CurrencyExchange",
						"label": "balanceOf",
						"offset": 0,
						"slot": "7",
						"type": "t_mapping(t_address,t_uint256)"
					},
					{
						"astId": 176,
						"contract": "contracts/CCK/CC2/ces.sol:CurrencyExchange",
						"label": "allowance",
						"offset": 0,
						"slot": "8",
						"type": "t_mapping(t_address,t_mapping(t_address,t_uint256))"
					}
				],
				"types": {
					"t_address": {
						"encoding": "inplace",
						"label": "address",
						"numberOfBytes": "20"
					},
					"t_mapping(t_address,t_mapping(t_address,t_uint256))": {
						"encoding": "mapping",
						"key": "t_address",
						"label": "mapping(address => mapping(address => uint256))",
						"numberOfBytes": "32",
						"value": "t_mapping(t_address,t_uint256)"
					},
					"t_mapping(t_address,t_uint256)": {
						"encoding": "mapping",
						"key": "t_address",
						"label": "mapping(address => uint256)",
						"numberOfBytes": "32",
						"value": "t_uint256"
					},
					"t_string_storage": {
						"encoding": "bytes",
						"label": "string",
						"numberOfBytes": "32"
					},
					"t_uint256": {
						"encoding": "inplace",
						"label": "uint256",
						"numberOfBytes": "32"
					}
				}
			},
			"userdoc": {
				"kind": "user",
				"methods": {},
				"version": 1
			}
		}
	}
}