{
	"contracts/CCK/CC2/ctoc.sol": {
		"TokenHH": {
			"abi": [
				{
					"inputs": [
						{
							"internalType": "address",
							"name": "_token",
							"type": "address"
						}
					],
					"stateMutability": "nonpayable",
					"type": "constructor"
				},
				{
					"anonymous": false,
					"inputs": [
						{
							"indexed": true,
							"internalType": "address",
							"name": "owner",
							"type": "address"
						},
						{
							"indexed": true,
							"internalType": "address",
							"name": "spender",
							"type": "address"
						},
						{
							"indexed": false,
							"internalType": "uint256",
							"name": "value",
							"type": "uint256"
						}
					],
					"name": "Approval",
					"type": "event"
				},
				{
					"anonymous": false,
					"inputs": [
						{
							"indexed": true,
							"internalType": "address",
							"name": "from",
							"type": "address"
						},
						{
							"indexed": true,
							"internalType": "address",
							"name": "to",
							"type": "address"
						},
						{
							"indexed": false,
							"internalType": "uint256",
							"name": "value",
							"type": "uint256"
						}
					],
					"name": "Transfer",
					"type": "event"
				},
				{
					"inputs": [
						{
							"internalType": "address",
							"name": "",
							"type": "address"
						},
						{
							"internalType": "address",
							"name": "",
							"type": "address"
						}
					],
					"name": "allowance",
					"outputs": [
						{
							"internalType": "uint256",
							"name": "",
							"type": "uint256"
						}
					],
					"stateMutability": "view",
					"type": "function"
				},
				{
					"inputs": [
						{
							"internalType": "address",
							"name": "spender",
							"type": "address"
						},
						{
							"internalType": "uint256",
							"name": "value",
							"type": "uint256"
						}
					],
					"name": "approve",
					"outputs": [
						{
							"internalType": "bool",
							"name": "",
							"type": "bool"
						}
					],
					"stateMutability": "nonpayable",
					"type": "function"
				},
				{
					"inputs": [
						{
							"internalType": "address",
							"name": "owner",
							"type": "address"
						}
					],
					"name": "balanceOf",
					"outputs": [
						{
							"internalType": "uint256",
							"name": "",
							"type": "uint256"
						}
					],
					"stateMutability": "view",
					"type": "function"
				},
				{
					"inputs": [
						{
							"internalType": "address",
							"name": "",
							"type": "address"
						}
					],
					"name": "balances",
					"outputs": [
						{
							"internalType": "uint256",
							"name": "",
							"type": "uint256"
						}
					],
					"stateMutability": "view",
					"type": "function"
				},
				{
					"inputs": [
						{
							"internalType": "address",
							"name": "pDonateValue",
							"type": "address"
						}
					],
					"name": "changeAddressDonate",
					"outputs": [],
					"stateMutability": "nonpayable",
					"type": "function"
				},
				{
					"inputs": [
						{
							"internalType": "uint256",
							"name": "pDonateValue",
							"type": "uint256"
						}
					],
					"name": "changeValueDonate",
					"outputs": [],
					"stateMutability": "nonpayable",
					"type": "function"
				},
				{
					"inputs": [],
					"name": "contractOwner",
					"outputs": [
						{
							"internalType": "address",
							"name": "",
							"type": "address"
						}
					],
					"stateMutability": "view",
					"type": "function"
				},
				{
					"inputs": [],
					"name": "donate",
					"outputs": [
						{
							"internalType": "address",
							"name": "",
							"type": "address"
						}
					],
					"stateMutability": "view",
					"type": "function"
				},
				{
					"inputs": [],
					"name": "donateValue",
					"outputs": [
						{
							"internalType": "uint256",
							"name": "",
							"type": "uint256"
						}
					],
					"stateMutability": "view",
					"type": "function"
				},
				{
					"inputs": [],
					"name": "token",
					"outputs": [
						{
							"internalType": "contract IERC20",
							"name": "",
							"type": "address"
						}
					],
					"stateMutability": "view",
					"type": "function"
				},
				{
					"inputs": [
						{
							"internalType": "address",
							"name": "to",
							"type": "address"
						},
						{
							"internalType": "uint256",
							"name": "value",
							"type": "uint256"
						}
					],
					"name": "transfer",
					"outputs": [
						{
							"internalType": "bool",
							"name": "",
							"type": "bool"
						}
					],
					"stateMutability": "nonpayable",
					"type": "function"
				},
				{
					"inputs": [
						{
							"internalType": "address",
							"name": "from",
							"type": "address"
						},
						{
							"internalType": "address",
							"name": "to",
							"type": "address"
						},
						{
							"internalType": "uint256",
							"name": "value",
							"type": "uint256"
						}
					],
					"name": "transferFrom",
					"outputs": [
						{
							"internalType": "bool",
							"name": "",
							"type": "bool"
						}
					],
					"stateMutability": "nonpayable",
					"type": "function"
				},
				{
					"inputs": [],
					"name": "versao",
					"outputs": [
						{
							"internalType": "string",
							"name": "",
							"type": "string"
						}
					],
					"stateMutability": "view",
					"type": "function"
				}
			],
			"devdoc": {
				"kind": "dev",
				"methods": {},
				"version": 1
			},
			"evm": {
				"assembly": "    /* \"contracts/CCK/CC2/ctoc.sol\":395:2924  contract TokenHH {... */\n  mstore(0x40, 0x80)\n    /* \"contracts/CCK/CC2/ctoc.sol\":597:625  string public versao = \"1.0\" */\n  mload(0x40)\n  dup1\n  0x40\n  add\n  0x40\n  mstore\n  dup1\n  0x03\n  dup2\n  mstore\n  0x20\n  add\n  0x312e300000000000000000000000000000000000000000000000000000000000\n  dup2\n  mstore\n  pop\n  0x03\n  swap1\n  dup2\n  tag_1\n  swap2\n  swap1\n  tag_2\n  jump\t// in\ntag_1:\n  pop\n    /* \"contracts/CCK/CC2/ctoc.sol\":902:1125  constructor(address _token) {... */\n  callvalue\n  dup1\n  iszero\n  tag_3\n  jumpi\n  revert(0x00, 0x00)\ntag_3:\n  pop\n  mload(0x40)\n  sub(codesize, bytecodeSize)\n  dup1\n  bytecodeSize\n  dup4\n  codecopy\n  dup2\n  dup2\n  add\n  0x40\n  mstore\n  dup2\n  add\n  swap1\n  tag_4\n  swap2\n  swap1\n  tag_5\n  jump\t// in\ntag_4:\n    /* \"contracts/CCK/CC2/ctoc.sol\":956:962  _token */\n  dup1\n    /* \"contracts/CCK/CC2/ctoc.sol\":941:946  token */\n  0x00\n  0x00\n    /* \"contracts/CCK/CC2/ctoc.sol\":941:963  token = IERC20(_token) */\n  0x0100\n  exp\n  dup2\n  sload\n  dup2\n  0xffffffffffffffffffffffffffffffffffffffff\n  mul\n  not\n  and\n  swap1\n  dup4\n  0xffffffffffffffffffffffffffffffffffffffff\n  and\n  mul\n  or\n  swap1\n  sstore\n  pop\n    /* \"contracts/CCK/CC2/ctoc.sol\":990:1000  msg.sender */\n  caller\n    /* \"contracts/CCK/CC2/ctoc.sol\":974:987  contractOwner */\n  0x06\n  0x00\n    /* \"contracts/CCK/CC2/ctoc.sol\":974:1000  contractOwner = msg.sender */\n  0x0100\n  exp\n  dup2\n  sload\n  dup2\n  0xffffffffffffffffffffffffffffffffffffffff\n  mul\n  not\n  and\n  swap1\n  dup4\n  0xffffffffffffffffffffffffffffffffffffffff\n  and\n  mul\n  or\n  swap1\n  sstore\n  pop\n    /* \"contracts/CCK/CC2/ctoc.sol\":1027:1040  contractOwner */\n  0x06\n  0x00\n  swap1\n  sload\n  swap1\n  0x0100\n  exp\n  swap1\n  div\n  0xffffffffffffffffffffffffffffffffffffffff\n  and\n    /* \"contracts/CCK/CC2/ctoc.sol\":1018:1024  donate */\n  0x04\n  0x00\n    /* \"contracts/CCK/CC2/ctoc.sol\":1018:1040  donate = contractOwner */\n  0x0100\n  exp\n  dup2\n  sload\n  dup2\n  0xffffffffffffffffffffffffffffffffffffffff\n  mul\n  not\n  and\n  swap1\n  dup4\n  0xffffffffffffffffffffffffffffffffffffffff\n  and\n  mul\n  or\n  swap1\n  sstore\n  pop\n    /* \"contracts/CCK/CC2/ctoc.sol\":1065:1077  5 * 10 ** 18 */\n  0x4563918244f40000\n    /* \"contracts/CCK/CC2/ctoc.sol\":1051:1062  donateValue */\n  0x05\n    /* \"contracts/CCK/CC2/ctoc.sol\":1051:1077  donateValue = 5 * 10 ** 18 */\n  dup2\n  swap1\n  sstore\n  pop\n    /* \"contracts/CCK/CC2/ctoc.sol\":902:1125  constructor(address _token) {... */\n  pop\n    /* \"contracts/CCK/CC2/ctoc.sol\":395:2924  contract TokenHH {... */\n  jump(tag_8)\n    /* \"#utility.yul\":7:106   */\ntag_9:\n    /* \"#utility.yul\":59:65   */\n  0x00\n    /* \"#utility.yul\":93:98   */\n  dup2\n    /* \"#utility.yul\":87:99   */\n  mload\n    /* \"#utility.yul\":77:99   */\n  swap1\n  pop\n    /* \"#utility.yul\":7:106   */\n  swap2\n  swap1\n  pop\n  jump\t// out\n    /* \"#utility.yul\":112:292   */\ntag_10:\n    /* \"#utility.yul\":160:237   */\n  0x4e487b7100000000000000000000000000000000000000000000000000000000\n    /* \"#utility.yul\":157:158   */\n  0x00\n    /* \"#utility.yul\":150:238   */\n  mstore\n    /* \"#utility.yul\":257:261   */\n  0x41\n    /* \"#utility.yul\":254:255   */\n  0x04\n    /* \"#utility.yul\":247:262   */\n  mstore\n    /* \"#utility.yul\":281:285   */\n  0x24\n    /* \"#utility.yul\":278:279   */\n  0x00\n    /* \"#utility.yul\":271:286   */\n  revert\n    /* \"#utility.yul\":298:478   */\ntag_11:\n    /* \"#utility.yul\":346:423   */\n  0x4e487b7100000000000000000000000000000000000000000000000000000000\n    /* \"#utility.yul\":343:344   */\n  0x00\n    /* \"#utility.yul\":336:424   */\n  mstore\n    /* \"#utility.yul\":443:447   */\n  0x22\n    /* \"#utility.yul\":440:441   */\n  0x04\n    /* \"#utility.yul\":433:448   */\n  mstore\n    /* \"#utility.yul\":467:471   */\n  0x24\n    /* \"#utility.yul\":464:465   */\n  0x00\n    /* \"#utility.yul\":457:472   */\n  revert\n    /* \"#utility.yul\":484:804   */\ntag_12:\n    /* \"#utility.yul\":528:534   */\n  0x00\n    /* \"#utility.yul\":565:566   */\n  0x02\n    /* \"#utility.yul\":559:563   */\n  dup3\n    /* \"#utility.yul\":555:567   */\n  div\n    /* \"#utility.yul\":545:567   */\n  swap1\n  pop\n    /* \"#utility.yul\":612:613   */\n  0x01\n    /* \"#utility.yul\":606:610   */\n  dup3\n    /* \"#utility.yul\":602:614   */\n  and\n    /* \"#utility.yul\":633:651   */\n  dup1\n    /* \"#utility.yul\":623:704   */\n  tag_41\n  jumpi\n    /* \"#utility.yul\":689:693   */\n  0x7f\n    /* \"#utility.yul\":681:687   */\n  dup3\n    /* \"#utility.yul\":677:694   */\n  and\n    /* \"#utility.yul\":667:694   */\n  swap2\n  pop\n    /* \"#utility.yul\":623:704   */\ntag_41:\n    /* \"#utility.yul\":751:753   */\n  0x20\n    /* \"#utility.yul\":743:749   */\n  dup3\n    /* \"#utility.yul\":740:754   */\n  lt\n    /* \"#utility.yul\":720:738   */\n  dup2\n    /* \"#utility.yul\":717:755   */\n  sub\n    /* \"#utility.yul\":714:798   */\n  tag_42\n  jumpi\n    /* \"#utility.yul\":770:788   */\n  tag_43\n  tag_11\n  jump\t// in\ntag_43:\n    /* \"#utility.yul\":714:798   */\ntag_42:\n    /* \"#utility.yul\":535:804   */\n  pop\n    /* \"#utility.yul\":484:804   */\n  swap2\n  swap1\n  pop\n  jump\t// out\n    /* \"#utility.yul\":810:951   */\ntag_13:\n    /* \"#utility.yul\":859:863   */\n  0x00\n    /* \"#utility.yul\":882:885   */\n  dup2\n    /* \"#utility.yul\":874:885   */\n  swap1\n  pop\n    /* \"#utility.yul\":905:908   */\n  dup2\n    /* \"#utility.yul\":902:903   */\n  0x00\n    /* \"#utility.yul\":895:909   */\n  mstore\n    /* \"#utility.yul\":939:943   */\n  0x20\n    /* \"#utility.yul\":936:937   */\n  0x00\n    /* \"#utility.yul\":926:944   */\n  keccak256\n    /* \"#utility.yul\":918:944   */\n  swap1\n  pop\n    /* \"#utility.yul\":810:951   */\n  swap2\n  swap1\n  pop\n  jump\t// out\n    /* \"#utility.yul\":957:1050   */\ntag_14:\n    /* \"#utility.yul\":994:1000   */\n  0x00\n    /* \"#utility.yul\":1041:1043   */\n  0x20\n    /* \"#utility.yul\":1036:1038   */\n  0x1f\n    /* \"#utility.yul\":1029:1034   */\n  dup4\n    /* \"#utility.yul\":1025:1039   */\n  add\n    /* \"#utility.yul\":1021:1044   */\n  div\n    /* \"#utility.yul\":1011:1044   */\n  swap1\n  pop\n    /* \"#utility.yul\":957:1050   */\n  swap2\n  swap1\n  pop\n  jump\t// out\n    /* \"#utility.yul\":1056:1163   */\ntag_15:\n    /* \"#utility.yul\":1100:1108   */\n  0x00\n    /* \"#utility.yul\":1150:1155   */\n  dup3\n    /* \"#utility.yul\":1144:1148   */\n  dup3\n    /* \"#utility.yul\":1140:1156   */\n  shl\n    /* \"#utility.yul\":1119:1156   */\n  swap1\n  pop\n    /* \"#utility.yul\":1056:1163   */\n  swap3\n  swap2\n  pop\n  pop\n  jump\t// out\n    /* \"#utility.yul\":1169:1562   */\ntag_16:\n    /* \"#utility.yul\":1238:1244   */\n  0x00\n    /* \"#utility.yul\":1288:1289   */\n  0x08\n    /* \"#utility.yul\":1276:1286   */\n  dup4\n    /* \"#utility.yul\":1272:1290   */\n  mul\n    /* \"#utility.yul\":1311:1408   */\n  tag_48\n    /* \"#utility.yul\":1341:1407   */\n  0xffffffffffffffffffffffffffffffffffffffffffffffffffffffffffffffff\n    /* \"#utility.yul\":1330:1339   */\n  dup3\n    /* \"#utility.yul\":1311:1408   */\n  tag_15\n  jump\t// in\ntag_48:\n    /* \"#utility.yul\":1429:1468   */\n  tag_49\n    /* \"#utility.yul\":1459:1467   */\n  dup7\n    /* \"#utility.yul\":1448:1457   */\n  dup4\n    /* \"#utility.yul\":1429:1468   */\n  tag_15\n  jump\t// in\ntag_49:\n    /* \"#utility.yul\":1417:1468   */\n  swap6\n  pop\n    /* \"#utility.yul\":1501:1505   */\n  dup1\n    /* \"#utility.yul\":1497:1506   */\n  not\n    /* \"#utility.yul\":1490:1495   */\n  dup5\n    /* \"#utility.yul\":1486:1507   */\n  and\n    /* \"#utility.yul\":1477:1507   */\n  swap4\n  pop\n    /* \"#utility.yul\":1550:1554   */\n  dup1\n    /* \"#utility.yul\":1540:1548   */\n  dup7\n    /* \"#utility.yul\":1536:1555   */\n  and\n    /* \"#utility.yul\":1529:1534   */\n  dup5\n    /* \"#utility.yul\":1526:1556   */\n  or\n    /* \"#utility.yul\":1516:1556   */\n  swap3\n  pop\n    /* \"#utility.yul\":1245:1562   */\n  pop\n  pop\n    /* \"#utility.yul\":1169:1562   */\n  swap4\n  swap3\n  pop\n  pop\n  pop\n  jump\t// out\n    /* \"#utility.yul\":1568:1645   */\ntag_17:\n    /* \"#utility.yul\":1605:1612   */\n  0x00\n    /* \"#utility.yul\":1634:1639   */\n  dup2\n    /* \"#utility.yul\":1623:1639   */\n  swap1\n  pop\n    /* \"#utility.yul\":1568:1645   */\n  swap2\n  swap1\n  pop\n  jump\t// out\n    /* \"#utility.yul\":1651:1711   */\ntag_18:\n    /* \"#utility.yul\":1679:1682   */\n  0x00\n    /* \"#utility.yul\":1700:1705   */\n  dup2\n    /* \"#utility.yul\":1693:1705   */\n  swap1\n  pop\n    /* \"#utility.yul\":1651:1711   */\n  swap2\n  swap1\n  pop\n  jump\t// out\n    /* \"#utility.yul\":1717:1859   */\ntag_19:\n    /* \"#utility.yul\":1767:1776   */\n  0x00\n    /* \"#utility.yul\":1800:1853   */\n  tag_53\n    /* \"#utility.yul\":1818:1852   */\n  tag_54\n    /* \"#utility.yul\":1827:1851   */\n  tag_55\n    /* \"#utility.yul\":1845:1850   */\n  dup5\n    /* \"#utility.yul\":1827:1851   */\n  tag_17\n  jump\t// in\ntag_55:\n    /* \"#utility.yul\":1818:1852   */\n  tag_18\n  jump\t// in\ntag_54:\n    /* \"#utility.yul\":1800:1853   */\n  tag_17\n  jump\t// in\ntag_53:\n    /* \"#utility.yul\":1787:1853   */\n  swap1\n  pop\n    /* \"#utility.yul\":1717:1859   */\n  swap2\n  swap1\n  pop\n  jump\t// out\n    /* \"#utility.yul\":1865:1940   */\ntag_20:\n    /* \"#utility.yul\":1908:1911   */\n  0x00\n    /* \"#utility.yul\":1929:1934   */\n  dup2\n    /* \"#utility.yul\":1922:1934   */\n  swap1\n  pop\n    /* \"#utility.yul\":1865:1940   */\n  swap2\n  swap1\n  pop\n  jump\t// out\n    /* \"#utility.yul\":1946:2215   */\ntag_21:\n    /* \"#utility.yul\":2056:2095   */\n  tag_58\n    /* \"#utility.yul\":2087:2094   */\n  dup4\n    /* \"#utility.yul\":2056:2095   */\n  tag_19\n  jump\t// in\ntag_58:\n    /* \"#utility.yul\":2117:2208   */\n  tag_59\n    /* \"#utility.yul\":2166:2207   */\n  tag_60\n    /* \"#utility.yul\":2190:2206   */\n  dup3\n    /* \"#utility.yul\":2166:2207   */\n  tag_20\n  jump\t// in\ntag_60:\n    /* \"#utility.yul\":2158:2164   */\n  dup5\n    /* \"#utility.yul\":2151:2155   */\n  dup5\n    /* \"#utility.yul\":2145:2156   */\n  sload\n    /* \"#utility.yul\":2117:2208   */\n  tag_16\n  jump\t// in\ntag_59:\n    /* \"#utility.yul\":2111:2115   */\n  dup3\n    /* \"#utility.yul\":2104:2209   */\n  sstore\n    /* \"#utility.yul\":2022:2215   */\n  pop\n    /* \"#utility.yul\":1946:2215   */\n  pop\n  pop\n  pop\n  jump\t// out\n    /* \"#utility.yul\":2221:2294   */\ntag_22:\n    /* \"#utility.yul\":2266:2269   */\n  0x00\n    /* \"#utility.yul\":2287:2288   */\n  0x00\n    /* \"#utility.yul\":2280:2288   */\n  swap1\n  pop\n    /* \"#utility.yul\":2221:2294   */\n  swap1\n  jump\t// out\n    /* \"#utility.yul\":2300:2489   */\ntag_23:\n    /* \"#utility.yul\":2377:2409   */\n  tag_63\n  tag_22\n  jump\t// in\ntag_63:\n    /* \"#utility.yul\":2418:2483   */\n  tag_64\n    /* \"#utility.yul\":2476:2482   */\n  dup2\n    /* \"#utility.yul\":2468:2474   */\n  dup5\n    /* \"#utility.yul\":2462:2466   */\n  dup5\n    /* \"#utility.yul\":2418:2483   */\n  tag_21\n  jump\t// in\ntag_64:\n    /* \"#utility.yul\":2353:2489   */\n  pop\n    /* \"#utility.yul\":2300:2489   */\n  pop\n  pop\n  jump\t// out\n    /* \"#utility.yul\":2495:2681   */\ntag_24:\n    /* \"#utility.yul\":2555:2675   */\ntag_66:\n    /* \"#utility.yul\":2572:2575   */\n  dup2\n    /* \"#utility.yul\":2565:2570   */\n  dup2\n    /* \"#utility.yul\":2562:2576   */\n  lt\n    /* \"#utility.yul\":2555:2675   */\n  iszero\n  tag_68\n  jumpi\n    /* \"#utility.yul\":2626:2665   */\n  tag_69\n    /* \"#utility.yul\":2663:2664   */\n  0x00\n    /* \"#utility.yul\":2656:2661   */\n  dup3\n    /* \"#utility.yul\":2626:2665   */\n  tag_23\n  jump\t// in\ntag_69:\n    /* \"#utility.yul\":2599:2600   */\n  0x01\n    /* \"#utility.yul\":2592:2597   */\n  dup2\n    /* \"#utility.yul\":2588:2601   */\n  add\n    /* \"#utility.yul\":2579:2601   */\n  swap1\n  pop\n    /* \"#utility.yul\":2555:2675   */\n  jump(tag_66)\ntag_68:\n    /* \"#utility.yul\":2495:2681   */\n  pop\n  pop\n  jump\t// out\n    /* \"#utility.yul\":2687:3230   */\ntag_25:\n    /* \"#utility.yul\":2788:2790   */\n  0x1f\n    /* \"#utility.yul\":2783:2786   */\n  dup3\n    /* \"#utility.yul\":2780:2791   */\n  gt\n    /* \"#utility.yul\":2777:3223   */\n  iszero\n  tag_71\n  jumpi\n    /* \"#utility.yul\":2822:2860   */\n  tag_72\n    /* \"#utility.yul\":2854:2859   */\n  dup2\n    /* \"#utility.yul\":2822:2860   */\n  tag_13\n  jump\t// in\ntag_72:\n    /* \"#utility.yul\":2906:2935   */\n  tag_73\n    /* \"#utility.yul\":2924:2934   */\n  dup5\n    /* \"#utility.yul\":2906:2935   */\n  tag_14\n  jump\t// in\ntag_73:\n    /* \"#utility.yul\":2896:2904   */\n  dup2\n    /* \"#utility.yul\":2892:2936   */\n  add\n    /* \"#utility.yul\":3089:3091   */\n  0x20\n    /* \"#utility.yul\":3077:3087   */\n  dup6\n    /* \"#utility.yul\":3074:3092   */\n  lt\n    /* \"#utility.yul\":3071:3120   */\n  iszero\n  tag_74\n  jumpi\n    /* \"#utility.yul\":3110:3118   */\n  dup2\n    /* \"#utility.yul\":3095:3118   */\n  swap1\n  pop\n    /* \"#utility.yul\":3071:3120   */\ntag_74:\n    /* \"#utility.yul\":3133:3213   */\n  tag_75\n    /* \"#utility.yul\":3189:3211   */\n  tag_76\n    /* \"#utility.yul\":3207:3210   */\n  dup6\n    /* \"#utility.yul\":3189:3211   */\n  tag_14\n  jump\t// in\ntag_76:\n    /* \"#utility.yul\":3179:3187   */\n  dup4\n    /* \"#utility.yul\":3175:3212   */\n  add\n    /* \"#utility.yul\":3162:3173   */\n  dup3\n    /* \"#utility.yul\":3133:3213   */\n  tag_24\n  jump\t// in\ntag_75:\n    /* \"#utility.yul\":2792:3223   */\n  pop\n  pop\n    /* \"#utility.yul\":2777:3223   */\ntag_71:\n    /* \"#utility.yul\":2687:3230   */\n  pop\n  pop\n  pop\n  jump\t// out\n    /* \"#utility.yul\":3236:3353   */\ntag_26:\n    /* \"#utility.yul\":3290:3298   */\n  0x00\n    /* \"#utility.yul\":3340:3345   */\n  dup3\n    /* \"#utility.yul\":3334:3338   */\n  dup3\n    /* \"#utility.yul\":3330:3346   */\n  shr\n    /* \"#utility.yul\":3309:3346   */\n  swap1\n  pop\n    /* \"#utility.yul\":3236:3353   */\n  swap3\n  swap2\n  pop\n  pop\n  jump\t// out\n    /* \"#utility.yul\":3359:3528   */\ntag_27:\n    /* \"#utility.yul\":3403:3409   */\n  0x00\n    /* \"#utility.yul\":3436:3487   */\n  tag_79\n    /* \"#utility.yul\":3484:3485   */\n  0x00\n    /* \"#utility.yul\":3480:3486   */\n  not\n    /* \"#utility.yul\":3472:3477   */\n  dup5\n    /* \"#utility.yul\":3469:3470   */\n  0x08\n    /* \"#utility.yul\":3465:3478   */\n  mul\n    /* \"#utility.yul\":3436:3487   */\n  tag_26\n  jump\t// in\ntag_79:\n    /* \"#utility.yul\":3432:3488   */\n  not\n    /* \"#utility.yul\":3517:3521   */\n  dup1\n    /* \"#utility.yul\":3511:3515   */\n  dup4\n    /* \"#utility.yul\":3507:3522   */\n  and\n    /* \"#utility.yul\":3497:3522   */\n  swap2\n  pop\n    /* \"#utility.yul\":3410:3528   */\n  pop\n    /* \"#utility.yul\":3359:3528   */\n  swap3\n  swap2\n  pop\n  pop\n  jump\t// out\n    /* \"#utility.yul\":3533:3828   */\ntag_28:\n    /* \"#utility.yul\":3609:3613   */\n  0x00\n    /* \"#utility.yul\":3755:3784   */\n  tag_81\n    /* \"#utility.yul\":3780:3783   */\n  dup4\n    /* \"#utility.yul\":3774:3778   */\n  dup4\n    /* \"#utility.yul\":3755:3784   */\n  tag_27\n  jump\t// in\ntag_81:\n    /* \"#utility.yul\":3747:3784   */\n  swap2\n  pop\n    /* \"#utility.yul\":3817:3820   */\n  dup3\n    /* \"#utility.yul\":3814:3815   */\n  0x02\n    /* \"#utility.yul\":3810:3821   */\n  mul\n    /* \"#utility.yul\":3804:3808   */\n  dup3\n    /* \"#utility.yul\":3801:3822   */\n  or\n    /* \"#utility.yul\":3793:3822   */\n  swap1\n  pop\n    /* \"#utility.yul\":3533:3828   */\n  swap3\n  swap2\n  pop\n  pop\n  jump\t// out\n    /* \"#utility.yul\":3833:5228   */\ntag_2:\n    /* \"#utility.yul\":3950:3987   */\n  tag_83\n    /* \"#utility.yul\":3983:3986   */\n  dup3\n    /* \"#utility.yul\":3950:3987   */\n  tag_9\n  jump\t// in\ntag_83:\n    /* \"#utility.yul\":4052:4070   */\n  0xffffffffffffffff\n    /* \"#utility.yul\":4044:4050   */\n  dup2\n    /* \"#utility.yul\":4041:4071   */\n  gt\n    /* \"#utility.yul\":4038:4094   */\n  iszero\n  tag_84\n  jumpi\n    /* \"#utility.yul\":4074:4092   */\n  tag_85\n  tag_10\n  jump\t// in\ntag_85:\n    /* \"#utility.yul\":4038:4094   */\ntag_84:\n    /* \"#utility.yul\":4118:4156   */\n  tag_86\n    /* \"#utility.yul\":4150:4154   */\n  dup3\n    /* \"#utility.yul\":4144:4155   */\n  sload\n    /* \"#utility.yul\":4118:4156   */\n  tag_12\n  jump\t// in\ntag_86:\n    /* \"#utility.yul\":4203:4270   */\n  tag_87\n    /* \"#utility.yul\":4263:4269   */\n  dup3\n    /* \"#utility.yul\":4255:4261   */\n  dup3\n    /* \"#utility.yul\":4249:4253   */\n  dup6\n    /* \"#utility.yul\":4203:4270   */\n  tag_25\n  jump\t// in\ntag_87:\n    /* \"#utility.yul\":4297:4298   */\n  0x00\n    /* \"#utility.yul\":4321:4325   */\n  0x20\n    /* \"#utility.yul\":4308:4325   */\n  swap1\n  pop\n    /* \"#utility.yul\":4353:4355   */\n  0x1f\n    /* \"#utility.yul\":4345:4351   */\n  dup4\n    /* \"#utility.yul\":4342:4356   */\n  gt\n    /* \"#utility.yul\":4370:4371   */\n  0x01\n    /* \"#utility.yul\":4365:4983   */\n  dup2\n  eq\n  tag_89\n  jumpi\n    /* \"#utility.yul\":5027:5028   */\n  0x00\n    /* \"#utility.yul\":5044:5050   */\n  dup5\n    /* \"#utility.yul\":5041:5118   */\n  iszero\n  tag_90\n  jumpi\n    /* \"#utility.yul\":5093:5102   */\n  dup3\n    /* \"#utility.yul\":5088:5091   */\n  dup8\n    /* \"#utility.yul\":5084:5103   */\n  add\n    /* \"#utility.yul\":5078:5104   */\n  mload\n    /* \"#utility.yul\":5069:5104   */\n  swap1\n  pop\n    /* \"#utility.yul\":5041:5118   */\ntag_90:\n    /* \"#utility.yul\":5144:5211   */\n  tag_91\n    /* \"#utility.yul\":5204:5210   */\n  dup6\n    /* \"#utility.yul\":5197:5202   */\n  dup3\n    /* \"#utility.yul\":5144:5211   */\n  tag_28\n  jump\t// in\ntag_91:\n    /* \"#utility.yul\":5138:5142   */\n  dup7\n    /* \"#utility.yul\":5131:5212   */\n  sstore\n    /* \"#utility.yul\":5000:5222   */\n  pop\n    /* \"#utility.yul\":4335:5222   */\n  jump(tag_88)\n    /* \"#utility.yul\":4365:4983   */\ntag_89:\n    /* \"#utility.yul\":4417:4421   */\n  0x1f\n    /* \"#utility.yul\":4413:4422   */\n  not\n    /* \"#utility.yul\":4405:4411   */\n  dup5\n    /* \"#utility.yul\":4401:4423   */\n  and\n    /* \"#utility.yul\":4451:4488   */\n  tag_92\n    /* \"#utility.yul\":4483:4487   */\n  dup7\n    /* \"#utility.yul\":4451:4488   */\n  tag_13\n  jump\t// in\ntag_92:\n    /* \"#utility.yul\":4510:4511   */\n  0x00\n    /* \"#utility.yul\":4524:4732   */\ntag_93:\n    /* \"#utility.yul\":4538:4545   */\n  dup3\n    /* \"#utility.yul\":4535:4536   */\n  dup2\n    /* \"#utility.yul\":4532:4546   */\n  lt\n    /* \"#utility.yul\":4524:4732   */\n  iszero\n  tag_95\n  jumpi\n    /* \"#utility.yul\":4617:4626   */\n  dup5\n    /* \"#utility.yul\":4612:4615   */\n  dup10\n    /* \"#utility.yul\":4608:4627   */\n  add\n    /* \"#utility.yul\":4602:4628   */\n  mload\n    /* \"#utility.yul\":4594:4600   */\n  dup3\n    /* \"#utility.yul\":4587:4629   */\n  sstore\n    /* \"#utility.yul\":4668:4669   */\n  0x01\n    /* \"#utility.yul\":4660:4666   */\n  dup3\n    /* \"#utility.yul\":4656:4670   */\n  add\n    /* \"#utility.yul\":4646:4670   */\n  swap2\n  pop\n    /* \"#utility.yul\":4715:4717   */\n  0x20\n    /* \"#utility.yul\":4704:4713   */\n  dup6\n    /* \"#utility.yul\":4700:4718   */\n  add\n    /* \"#utility.yul\":4687:4718   */\n  swap5\n  pop\n    /* \"#utility.yul\":4561:4565   */\n  0x20\n    /* \"#utility.yul\":4558:4559   */\n  dup2\n    /* \"#utility.yul\":4554:4566   */\n  add\n    /* \"#utility.yul\":4549:4566   */\n  swap1\n  pop\n    /* \"#utility.yul\":4524:4732   */\n  jump(tag_93)\ntag_95:\n    /* \"#utility.yul\":4760:4766   */\n  dup7\n    /* \"#utility.yul\":4751:4758   */\n  dup4\n    /* \"#utility.yul\":4748:4767   */\n  lt\n    /* \"#utility.yul\":4745:4924   */\n  iszero\n  tag_96\n  jumpi\n    /* \"#utility.yul\":4818:4827   */\n  dup5\n    /* \"#utility.yul\":4813:4816   */\n  dup10\n    /* \"#utility.yul\":4809:4828   */\n  add\n    /* \"#utility.yul\":4803:4829   */\n  mload\n    /* \"#utility.yul\":4861:4909   */\n  tag_97\n    /* \"#utility.yul\":4903:4907   */\n  0x1f\n    /* \"#utility.yul\":4895:4901   */\n  dup10\n    /* \"#utility.yul\":4891:4908   */\n  and\n    /* \"#utility.yul\":4880:4889   */\n  dup3\n    /* \"#utility.yul\":4861:4909   */\n  tag_27\n  jump\t// in\ntag_97:\n    /* \"#utility.yul\":4853:4859   */\n  dup4\n    /* \"#utility.yul\":4846:4910   */\n  sstore\n    /* \"#utility.yul\":4768:4924   */\n  pop\n    /* \"#utility.yul\":4745:4924   */\ntag_96:\n    /* \"#utility.yul\":4970:4971   */\n  0x01\n    /* \"#utility.yul\":4966:4967   */\n  0x02\n    /* \"#utility.yul\":4958:4964   */\n  dup9\n    /* \"#utility.yul\":4954:4968   */\n  mul\n    /* \"#utility.yul\":4950:4972   */\n  add\n    /* \"#utility.yul\":4944:4948   */\n  dup9\n    /* \"#utility.yul\":4937:4973   */\n  sstore\n    /* \"#utility.yul\":4372:4983   */\n  pop\n  pop\n  pop\n    /* \"#utility.yul\":4335:5222   */\ntag_88:\n  pop\n    /* \"#utility.yul\":3925:5228   */\n  pop\n  pop\n  pop\n    /* \"#utility.yul\":3833:5228   */\n  pop\n  pop\n  jump\t// out\n    /* \"#utility.yul\":5315:5432   */\ntag_30:\n    /* \"#utility.yul\":5424:5425   */\n  0x00\n    /* \"#utility.yul\":5421:5422   */\n  0x00\n    /* \"#utility.yul\":5414:5426   */\n  revert\n    /* \"#utility.yul\":5561:5687   */\ntag_32:\n    /* \"#utility.yul\":5598:5605   */\n  0x00\n    /* \"#utility.yul\":5638:5680   */\n  0xffffffffffffffffffffffffffffffffffffffff\n    /* \"#utility.yul\":5631:5636   */\n  dup3\n    /* \"#utility.yul\":5627:5681   */\n  and\n    /* \"#utility.yul\":5616:5681   */\n  swap1\n  pop\n    /* \"#utility.yul\":5561:5687   */\n  swap2\n  swap1\n  pop\n  jump\t// out\n    /* \"#utility.yul\":5693:5789   */\ntag_33:\n    /* \"#utility.yul\":5730:5737   */\n  0x00\n    /* \"#utility.yul\":5759:5783   */\n  tag_103\n    /* \"#utility.yul\":5777:5782   */\n  dup3\n    /* \"#utility.yul\":5759:5783   */\n  tag_32\n  jump\t// in\ntag_103:\n    /* \"#utility.yul\":5748:5783   */\n  swap1\n  pop\n    /* \"#utility.yul\":5693:5789   */\n  swap2\n  swap1\n  pop\n  jump\t// out\n    /* \"#utility.yul\":5795:5917   */\ntag_34:\n    /* \"#utility.yul\":5868:5892   */\n  tag_105\n    /* \"#utility.yul\":5886:5891   */\n  dup2\n    /* \"#utility.yul\":5868:5892   */\n  tag_33\n  jump\t// in\ntag_105:\n    /* \"#utility.yul\":5861:5866   */\n  dup2\n    /* \"#utility.yul\":5858:5893   */\n  eq\n    /* \"#utility.yul\":5848:5911   */\n  tag_106\n  jumpi\n    /* \"#utility.yul\":5907:5908   */\n  0x00\n    /* \"#utility.yul\":5904:5905   */\n  0x00\n    /* \"#utility.yul\":5897:5909   */\n  revert\n    /* \"#utility.yul\":5848:5911   */\ntag_106:\n    /* \"#utility.yul\":5795:5917   */\n  pop\n  jump\t// out\n    /* \"#utility.yul\":5923:6066   */\ntag_35:\n    /* \"#utility.yul\":5980:5985   */\n  0x00\n    /* \"#utility.yul\":6011:6017   */\n  dup2\n    /* \"#utility.yul\":6005:6018   */\n  mload\n    /* \"#utility.yul\":5996:6018   */\n  swap1\n  pop\n    /* \"#utility.yul\":6027:6060   */\n  tag_108\n    /* \"#utility.yul\":6054:6059   */\n  dup2\n    /* \"#utility.yul\":6027:6060   */\n  tag_34\n  jump\t// in\ntag_108:\n    /* \"#utility.yul\":5923:6066   */\n  swap3\n  swap2\n  pop\n  pop\n  jump\t// out\n    /* \"#utility.yul\":6072:6423   */\ntag_5:\n    /* \"#utility.yul\":6142:6148   */\n  0x00\n    /* \"#utility.yul\":6191:6193   */\n  0x20\n    /* \"#utility.yul\":6179:6188   */\n  dup3\n    /* \"#utility.yul\":6170:6177   */\n  dup5\n    /* \"#utility.yul\":6166:6189   */\n  sub\n    /* \"#utility.yul\":6162:6194   */\n  slt\n    /* \"#utility.yul\":6159:6278   */\n  iszero\n  tag_110\n  jumpi\n    /* \"#utility.yul\":6197:6276   */\n  tag_111\n  tag_30\n  jump\t// in\ntag_111:\n    /* \"#utility.yul\":6159:6278   */\ntag_110:\n    /* \"#utility.yul\":6317:6318   */\n  0x00\n    /* \"#utility.yul\":6342:6406   */\n  tag_112\n    /* \"#utility.yul\":6398:6405   */\n  dup5\n    /* \"#utility.yul\":6389:6395   */\n  dup3\n    /* \"#utility.yul\":6378:6387   */\n  dup6\n    /* \"#utility.yul\":6374:6396   */\n  add\n    /* \"#utility.yul\":6342:6406   */\n  tag_35\n  jump\t// in\ntag_112:\n    /* \"#utility.yul\":6332:6406   */\n  swap2\n  pop\n    /* \"#utility.yul\":6288:6416   */\n  pop\n    /* \"#utility.yul\":6072:6423   */\n  swap3\n  swap2\n  pop\n  pop\n  jump\t// out\n    /* \"contracts/CCK/CC2/ctoc.sol\":395:2924  contract TokenHH {... */\ntag_8:\n  dataSize(sub_0)\n  dup1\n  dataOffset(sub_0)\n  0x00\n  codecopy\n  0x00\n  return\nstop\n\nsub_0: assembly {\n        /* \"contracts/CCK/CC2/ctoc.sol\":395:2924  contract TokenHH {... */\n      mstore(0x40, 0x80)\n      callvalue\n      dup1\n      iszero\n      tag_1\n      jumpi\n      revert(0x00, 0x00)\n    tag_1:\n      pop\n      jumpi(tag_2, lt(calldatasize, 0x04))\n      shr(0xe0, calldataload(0x00))\n      dup1\n      0xa2f7c857\n      gt\n      tag_16\n      jumpi\n      dup1\n      0xce606ee0\n      gt\n      tag_17\n      jumpi\n      dup1\n      0xce606ee0\n      eq\n      tag_12\n      jumpi\n      dup1\n      0xdd62ed3e\n      eq\n      tag_13\n      jumpi\n      dup1\n      0xed88c68e\n      eq\n      tag_14\n      jumpi\n      dup1\n      0xfc0c546a\n      eq\n      tag_15\n      jumpi\n      jump(tag_2)\n    tag_17:\n      dup1\n      0xa2f7c857\n      eq\n      tag_9\n      jumpi\n      dup1\n      0xa9059cbb\n      eq\n      tag_10\n      jumpi\n      dup1\n      0xad0ef018\n      eq\n      tag_11\n      jumpi\n      jump(tag_2)\n    tag_16:\n      dup1\n      0x095ea7b3\n      eq\n      tag_3\n      jumpi\n      dup1\n      0x23b872dd\n      eq\n      tag_4\n      jumpi\n      dup1\n      0x260f5cf1\n      eq\n      tag_5\n      jumpi\n      dup1\n      0x27e235e3\n      eq\n      tag_6\n      jumpi\n      dup1\n      0x677aa7ae\n      eq\n      tag_7\n      jumpi\n      dup1\n      0x70a08231\n      eq\n      tag_8\n      jumpi\n    tag_2:\n      revert(0x00, 0x00)\n        /* \"contracts/CCK/CC2/ctoc.sol\":2492:2690  function approve(address spender, uint value) public returns(bool) {... */\n    tag_3:\n      tag_18\n      0x04\n      dup1\n      calldatasize\n      sub\n      dup2\n      add\n      swap1\n      tag_19\n      swap2\n      swap1\n      tag_20\n      jump\t// in\n    tag_19:\n      tag_21\n      jump\t// in\n    tag_18:\n      mload(0x40)\n      tag_22\n      swap2\n      swap1\n      tag_23\n      jump\t// in\n    tag_22:\n      mload(0x40)\n      dup1\n      swap2\n      sub\n      swap1\n      return\n        /* \"contracts/CCK/CC2/ctoc.sol\":1825:2478  function transferFrom(address from, address to, uint value ) public returns(bool) {... */\n    tag_4:\n      tag_24\n      0x04\n      dup1\n      calldatasize\n      sub\n      dup2\n      add\n      swap1\n      tag_25\n      swap2\n      swap1\n      tag_26\n      jump\t// in\n    tag_25:\n      tag_27\n      jump\t// in\n    tag_24:\n      mload(0x40)\n      tag_28\n      swap2\n      swap1\n      tag_23\n      jump\t// in\n    tag_28:\n      mload(0x40)\n      dup1\n      swap2\n      sub\n      swap1\n      return\n        /* \"contracts/CCK/CC2/ctoc.sol\":597:625  string public versao = \"1.0\" */\n    tag_5:\n      tag_29\n      tag_30\n      jump\t// in\n    tag_29:\n      mload(0x40)\n      tag_31\n      swap2\n      swap1\n      tag_32\n      jump\t// in\n    tag_31:\n      mload(0x40)\n      dup1\n      swap2\n      sub\n      swap1\n      return\n        /* \"contracts/CCK/CC2/ctoc.sol\":480:520  mapping(address => uint) public balances */\n    tag_6:\n      tag_33\n      0x04\n      dup1\n      calldatasize\n      sub\n      dup2\n      add\n      swap1\n      tag_34\n      swap2\n      swap1\n      tag_35\n      jump\t// in\n    tag_34:\n      tag_36\n      jump\t// in\n    tag_33:\n      mload(0x40)\n      tag_37\n      swap2\n      swap1\n      tag_38\n      jump\t// in\n    tag_37:\n      mload(0x40)\n      dup1\n      swap2\n      sub\n      swap1\n      return\n        /* \"contracts/CCK/CC2/ctoc.sol\":669:695  uint    public donateValue */\n    tag_7:\n      tag_39\n      tag_40\n      jump\t// in\n    tag_39:\n      mload(0x40)\n      tag_41\n      swap2\n      swap1\n      tag_38\n      jump\t// in\n    tag_41:\n      mload(0x40)\n      dup1\n      swap2\n      sub\n      swap1\n      return\n        /* \"contracts/CCK/CC2/ctoc.sol\":1136:1237  function balanceOf(address owner) public view returns(uint) {... */\n    tag_8:\n      tag_42\n      0x04\n      dup1\n      calldatasize\n      sub\n      dup2\n      add\n      swap1\n      tag_43\n      swap2\n      swap1\n      tag_35\n      jump\t// in\n    tag_43:\n      tag_44\n      jump\t// in\n    tag_42:\n      mload(0x40)\n      tag_45\n      swap2\n      swap1\n      tag_38\n      jump\t// in\n    tag_45:\n      mload(0x40)\n      dup1\n      swap2\n      sub\n      swap1\n      return\n        /* \"contracts/CCK/CC2/ctoc.sol\":2697:2799  function changeAddressDonate(  address pDonateValue  )  public {\t... */\n    tag_9:\n      tag_46\n      0x04\n      dup1\n      calldatasize\n      sub\n      dup2\n      add\n      swap1\n      tag_47\n      swap2\n      swap1\n      tag_35\n      jump\t// in\n    tag_47:\n      tag_48\n      jump\t// in\n    tag_46:\n      stop\n        /* \"contracts/CCK/CC2/ctoc.sol\":1249:1813  function transfer(address to, uint value) public returns(bool) {... */\n    tag_10:\n      tag_49\n      0x04\n      dup1\n      calldatasize\n      sub\n      dup2\n      add\n      swap1\n      tag_50\n      swap2\n      swap1\n      tag_20\n      jump\t// in\n    tag_50:\n      tag_51\n      jump\t// in\n    tag_49:\n      mload(0x40)\n      tag_52\n      swap2\n      swap1\n      tag_23\n      jump\t// in\n    tag_52:\n      mload(0x40)\n      dup1\n      swap2\n      sub\n      swap1\n      return\n        /* \"contracts/CCK/CC2/ctoc.sol\":2807:2912  function changeValueDonate(  uint  pDonateValue ) public  {\t... */\n    tag_11:\n      tag_53\n      0x04\n      dup1\n      calldatasize\n      sub\n      dup2\n      add\n      swap1\n      tag_54\n      swap2\n      swap1\n      tag_55\n      jump\t// in\n    tag_54:\n      tag_56\n      jump\t// in\n    tag_53:\n      stop\n        /* \"contracts/CCK/CC2/ctoc.sol\":704:732  address public contractOwner */\n    tag_12:\n      tag_57\n      tag_58\n      jump\t// in\n    tag_57:\n      mload(0x40)\n      tag_59\n      swap2\n      swap1\n      tag_60\n      jump\t// in\n    tag_59:\n      mload(0x40)\n      dup1\n      swap2\n      sub\n      swap1\n      return\n        /* \"contracts/CCK/CC2/ctoc.sol\":527:588  mapping(address => mapping(address => uint)) public allowance */\n    tag_13:\n      tag_61\n      0x04\n      dup1\n      calldatasize\n      sub\n      dup2\n      add\n      swap1\n      tag_62\n      swap2\n      swap1\n      tag_63\n      jump\t// in\n    tag_62:\n      tag_64\n      jump\t// in\n    tag_61:\n      mload(0x40)\n      tag_65\n      swap2\n      swap1\n      tag_38\n      jump\t// in\n    tag_65:\n      mload(0x40)\n      dup1\n      swap2\n      sub\n      swap1\n      return\n        /* \"contracts/CCK/CC2/ctoc.sol\":636:657  address public donate */\n    tag_14:\n      tag_66\n      tag_67\n      jump\t// in\n    tag_66:\n      mload(0x40)\n      tag_68\n      swap2\n      swap1\n      tag_60\n      jump\t// in\n    tag_68:\n      mload(0x40)\n      dup1\n      swap2\n      sub\n      swap1\n      return\n        /* \"contracts/CCK/CC2/ctoc.sol\":419:438  IERC20 public token */\n    tag_15:\n      tag_69\n      tag_70\n      jump\t// in\n    tag_69:\n      mload(0x40)\n      tag_71\n      swap2\n      swap1\n      tag_72\n      jump\t// in\n    tag_71:\n      mload(0x40)\n      dup1\n      swap2\n      sub\n      swap1\n      return\n        /* \"contracts/CCK/CC2/ctoc.sol\":2492:2690  function approve(address spender, uint value) public returns(bool) {... */\n    tag_21:\n        /* \"contracts/CCK/CC2/ctoc.sol\":2553:2557  bool */\n      0x00\n        /* \"contracts/CCK/CC2/ctoc.sol\":2603:2608  value */\n      dup2\n        /* \"contracts/CCK/CC2/ctoc.sol\":2570:2579  allowance */\n      0x02\n        /* \"contracts/CCK/CC2/ctoc.sol\":2570:2591  allowance[msg.sender] */\n      0x00\n        /* \"contracts/CCK/CC2/ctoc.sol\":2580:2590  msg.sender */\n      caller\n        /* \"contracts/CCK/CC2/ctoc.sol\":2570:2591  allowance[msg.sender] */\n      0xffffffffffffffffffffffffffffffffffffffff\n      and\n      0xffffffffffffffffffffffffffffffffffffffff\n      and\n      dup2\n      mstore\n      0x20\n      add\n      swap1\n      dup2\n      mstore\n      0x20\n      add\n      0x00\n      keccak256\n        /* \"contracts/CCK/CC2/ctoc.sol\":2570:2600  allowance[msg.sender][spender] */\n      0x00\n        /* \"contracts/CCK/CC2/ctoc.sol\":2592:2599  spender */\n      dup6\n        /* \"contracts/CCK/CC2/ctoc.sol\":2570:2600  allowance[msg.sender][spender] */\n      0xffffffffffffffffffffffffffffffffffffffff\n      and\n      0xffffffffffffffffffffffffffffffffffffffff\n      and\n      dup2\n      mstore\n      0x20\n      add\n      swap1\n      dup2\n      mstore\n      0x20\n      add\n      0x00\n      keccak256\n        /* \"contracts/CCK/CC2/ctoc.sol\":2570:2608  allowance[msg.sender][spender] = value */\n      dup2\n      swap1\n      sstore\n      pop\n        /* \"contracts/CCK/CC2/ctoc.sol\":2645:2652  spender */\n      dup3\n        /* \"contracts/CCK/CC2/ctoc.sol\":2624:2660  Approval(msg.sender, spender, value) */\n      0xffffffffffffffffffffffffffffffffffffffff\n      and\n        /* \"contracts/CCK/CC2/ctoc.sol\":2633:2643  msg.sender */\n      caller\n        /* \"contracts/CCK/CC2/ctoc.sol\":2624:2660  Approval(msg.sender, spender, value) */\n      0xffffffffffffffffffffffffffffffffffffffff\n      and\n      0x8c5be1e5ebec7d5bd14f71427d1e84f3dd0314c0f7b2291e5b200ac8c7c3b925\n        /* \"contracts/CCK/CC2/ctoc.sol\":2654:2659  value */\n      dup5\n        /* \"contracts/CCK/CC2/ctoc.sol\":2624:2660  Approval(msg.sender, spender, value) */\n      mload(0x40)\n      tag_74\n      swap2\n      swap1\n      tag_38\n      jump\t// in\n    tag_74:\n      mload(0x40)\n      dup1\n      swap2\n      sub\n      swap1\n      log3\n        /* \"contracts/CCK/CC2/ctoc.sol\":2678:2682  true */\n      0x01\n        /* \"contracts/CCK/CC2/ctoc.sol\":2671:2682  return true */\n      swap1\n      pop\n        /* \"contracts/CCK/CC2/ctoc.sol\":2492:2690  function approve(address spender, uint value) public returns(bool) {... */\n      swap3\n      swap2\n      pop\n      pop\n      jump\t// out\n        /* \"contracts/CCK/CC2/ctoc.sol\":1825:2478  function transferFrom(address from, address to, uint value ) public returns(bool) {... */\n    tag_27:\n        /* \"contracts/CCK/CC2/ctoc.sol\":1901:1905  bool */\n      0x00\n        /* \"contracts/CCK/CC2/ctoc.sol\":1945:1950  value */\n      dup2\n        /* \"contracts/CCK/CC2/ctoc.sol\":1926:1941  balanceOf(from) */\n      tag_76\n        /* \"contracts/CCK/CC2/ctoc.sol\":1936:1940  from */\n      dup6\n        /* \"contracts/CCK/CC2/ctoc.sol\":1926:1935  balanceOf */\n      tag_44\n        /* \"contracts/CCK/CC2/ctoc.sol\":1926:1941  balanceOf(from) */\n      jump\t// in\n    tag_76:\n        /* \"contracts/CCK/CC2/ctoc.sol\":1926:1950  balanceOf(from) >= value */\n      lt\n      iszero\n        /* \"contracts/CCK/CC2/ctoc.sol\":1918:2010  require(balanceOf(from) >= value, 'Saldo insuficiente para operacao( Insufficient funds )' ) */\n      tag_77\n      jumpi\n      mload(0x40)\n      0x08c379a000000000000000000000000000000000000000000000000000000000\n      dup2\n      mstore\n      0x04\n      add\n      tag_78\n      swap1\n      tag_79\n      jump\t// in\n    tag_78:\n      mload(0x40)\n      dup1\n      swap2\n      sub\n      swap1\n      revert\n    tag_77:\n        /* \"contracts/CCK/CC2/ctoc.sol\":2060:2065  value */\n      dup2\n        /* \"contracts/CCK/CC2/ctoc.sol\":2029:2038  allowance */\n      0x02\n        /* \"contracts/CCK/CC2/ctoc.sol\":2029:2044  allowance[from] */\n      0x00\n        /* \"contracts/CCK/CC2/ctoc.sol\":2039:2043  from */\n      dup7\n        /* \"contracts/CCK/CC2/ctoc.sol\":2029:2044  allowance[from] */\n      0xffffffffffffffffffffffffffffffffffffffff\n      and\n      0xffffffffffffffffffffffffffffffffffffffff\n      and\n      dup2\n      mstore\n      0x20\n      add\n      swap1\n      dup2\n      mstore\n      0x20\n      add\n      0x00\n      keccak256\n        /* \"contracts/CCK/CC2/ctoc.sol\":2029:2056  allowance[from][msg.sender] */\n      0x00\n        /* \"contracts/CCK/CC2/ctoc.sol\":2045:2055  msg.sender */\n      caller\n        /* \"contracts/CCK/CC2/ctoc.sol\":2029:2056  allowance[from][msg.sender] */\n      0xffffffffffffffffffffffffffffffffffffffff\n      and\n      0xffffffffffffffffffffffffffffffffffffffff\n      and\n      dup2\n      mstore\n      0x20\n      add\n      swap1\n      dup2\n      mstore\n      0x20\n      add\n      0x00\n      keccak256\n      sload\n        /* \"contracts/CCK/CC2/ctoc.sol\":2029:2065  allowance[from][msg.sender] >= value */\n      lt\n      iszero\n        /* \"contracts/CCK/CC2/ctoc.sol\":2021:2118  require(allowance[from][msg.sender] >= value, 'Sem permissao para transacao (allowance too low)') */\n      tag_80\n      jumpi\n      mload(0x40)\n      0x08c379a000000000000000000000000000000000000000000000000000000000\n      dup2\n      mstore\n      0x04\n      add\n      tag_81\n      swap1\n      tag_82\n      jump\t// in\n    tag_81:\n      mload(0x40)\n      dup1\n      swap2\n      sub\n      swap1\n      revert\n    tag_80:\n        /* \"contracts/CCK/CC2/ctoc.sol\":2160:2165  value */\n      dup2\n        /* \"contracts/CCK/CC2/ctoc.sol\":2152:2154  10 */\n      0x0a\n        /* \"contracts/CCK/CC2/ctoc.sol\":2138:2149  donateValue */\n      sload(0x05)\n        /* \"contracts/CCK/CC2/ctoc.sol\":2138:2154  donateValue * 10 */\n      tag_83\n      swap2\n      swap1\n      tag_84\n      jump\t// in\n    tag_83:\n        /* \"contracts/CCK/CC2/ctoc.sol\":2136:2165  ( donateValue * 10 )  < value */\n      lt\n        /* \"contracts/CCK/CC2/ctoc.sol\":2131:2357  if ( ( donateValue * 10 )  < value ) {... */\n      iszero\n      tag_85\n      jumpi\n        /* \"contracts/CCK/CC2/ctoc.sol\":2208:2219  donateValue */\n      sload(0x05)\n        /* \"contracts/CCK/CC2/ctoc.sol\":2183:2191  balances */\n      0x01\n        /* \"contracts/CCK/CC2/ctoc.sol\":2183:2201  balances[ donate ] */\n      0x00\n        /* \"contracts/CCK/CC2/ctoc.sol\":2193:2199  donate */\n      0x04\n      0x00\n      swap1\n      sload\n      swap1\n      0x0100\n      exp\n      swap1\n      div\n      0xffffffffffffffffffffffffffffffffffffffff\n      and\n        /* \"contracts/CCK/CC2/ctoc.sol\":2183:2201  balances[ donate ] */\n      0xffffffffffffffffffffffffffffffffffffffff\n      and\n      0xffffffffffffffffffffffffffffffffffffffff\n      and\n      dup2\n      mstore\n      0x20\n      add\n      swap1\n      dup2\n      mstore\n      0x20\n      add\n      0x00\n      keccak256\n      0x00\n        /* \"contracts/CCK/CC2/ctoc.sol\":2183:2219  balances[ donate ]   +=  donateValue */\n      dup3\n      dup3\n      sload\n      tag_86\n      swap2\n      swap1\n      tag_87\n      jump\t// in\n    tag_86:\n      swap3\n      pop\n      pop\n      dup2\n      swap1\n      sstore\n      pop\n        /* \"contracts/CCK/CC2/ctoc.sol\":2269:2280  donateValue */\n      sload(0x05)\n        /* \"contracts/CCK/CC2/ctoc.sol\":2261:2266  value */\n      dup3\n        /* \"contracts/CCK/CC2/ctoc.sol\":2261:2280  value - donateValue */\n      tag_88\n      swap2\n      swap1\n      tag_89\n      jump\t// in\n    tag_88:\n        /* \"contracts/CCK/CC2/ctoc.sol\":2234:2242  balances */\n      0x01\n        /* \"contracts/CCK/CC2/ctoc.sol\":2234:2246  balances[to] */\n      0x00\n        /* \"contracts/CCK/CC2/ctoc.sol\":2243:2245  to */\n      dup6\n        /* \"contracts/CCK/CC2/ctoc.sol\":2234:2246  balances[to] */\n      0xffffffffffffffffffffffffffffffffffffffff\n      and\n      0xffffffffffffffffffffffffffffffffffffffff\n      and\n      dup2\n      mstore\n      0x20\n      add\n      swap1\n      dup2\n      mstore\n      0x20\n      add\n      0x00\n      keccak256\n      0x00\n        /* \"contracts/CCK/CC2/ctoc.sol\":2234:2282  balances[to]         +=  ( value - donateValue ) */\n      dup3\n      dup3\n      sload\n      tag_90\n      swap2\n      swap1\n      tag_87\n      jump\t// in\n    tag_90:\n      swap3\n      pop\n      pop\n      dup2\n      swap1\n      sstore\n      pop\n        /* \"contracts/CCK/CC2/ctoc.sol\":2131:2357  if ( ( donateValue * 10 )  < value ) {... */\n      jump(tag_91)\n    tag_85:\n        /* \"contracts/CCK/CC2/ctoc.sol\":2340:2345  value */\n      dup2\n        /* \"contracts/CCK/CC2/ctoc.sol\":2315:2323  balances */\n      0x01\n        /* \"contracts/CCK/CC2/ctoc.sol\":2315:2327  balances[to] */\n      0x00\n        /* \"contracts/CCK/CC2/ctoc.sol\":2324:2326  to */\n      dup6\n        /* \"contracts/CCK/CC2/ctoc.sol\":2315:2327  balances[to] */\n      0xffffffffffffffffffffffffffffffffffffffff\n      and\n      0xffffffffffffffffffffffffffffffffffffffff\n      and\n      dup2\n      mstore\n      0x20\n      add\n      swap1\n      dup2\n      mstore\n      0x20\n      add\n      0x00\n      keccak256\n      0x00\n        /* \"contracts/CCK/CC2/ctoc.sol\":2315:2345  balances[to]         +=  value */\n      dup3\n      dup3\n      sload\n      tag_92\n      swap2\n      swap1\n      tag_87\n      jump\t// in\n    tag_92:\n      swap3\n      pop\n      pop\n      dup2\n      swap1\n      sstore\n      pop\n        /* \"contracts/CCK/CC2/ctoc.sol\":2131:2357  if ( ( donateValue * 10 )  < value ) {... */\n    tag_91:\n        /* \"contracts/CCK/CC2/ctoc.sol\":2391:2396  value */\n      dup2\n        /* \"contracts/CCK/CC2/ctoc.sol\":2373:2381  balances */\n      0x01\n        /* \"contracts/CCK/CC2/ctoc.sol\":2373:2387  balances[from] */\n      0x00\n        /* \"contracts/CCK/CC2/ctoc.sol\":2382:2386  from */\n      dup7\n        /* \"contracts/CCK/CC2/ctoc.sol\":2373:2387  balances[from] */\n      0xffffffffffffffffffffffffffffffffffffffff\n      and\n      0xffffffffffffffffffffffffffffffffffffffff\n      and\n      dup2\n      mstore\n      0x20\n      add\n      swap1\n      dup2\n      mstore\n      0x20\n      add\n      0x00\n      keccak256\n      0x00\n        /* \"contracts/CCK/CC2/ctoc.sol\":2373:2396  balances[from] -= value */\n      dup3\n      dup3\n      sload\n      tag_93\n      swap2\n      swap1\n      tag_89\n      jump\t// in\n    tag_93:\n      swap3\n      pop\n      pop\n      dup2\n      swap1\n      sstore\n      pop\n        /* \"contracts/CCK/CC2/ctoc.sol\":2436:2438  to */\n      dup3\n        /* \"contracts/CCK/CC2/ctoc.sol\":2421:2446  Transfer(from, to, value) */\n      0xffffffffffffffffffffffffffffffffffffffff\n      and\n        /* \"contracts/CCK/CC2/ctoc.sol\":2430:2434  from */\n      dup5\n        /* \"contracts/CCK/CC2/ctoc.sol\":2421:2446  Transfer(from, to, value) */\n      0xffffffffffffffffffffffffffffffffffffffff\n      and\n      0xddf252ad1be2c89b69c2b068fc378daa952ba7f163c4a11628f55a4df523b3ef\n        /* \"contracts/CCK/CC2/ctoc.sol\":2440:2445  value */\n      dup5\n        /* \"contracts/CCK/CC2/ctoc.sol\":2421:2446  Transfer(from, to, value) */\n      mload(0x40)\n      tag_94\n      swap2\n      swap1\n      tag_38\n      jump\t// in\n    tag_94:\n      mload(0x40)\n      dup1\n      swap2\n      sub\n      swap1\n      log3\n        /* \"contracts/CCK/CC2/ctoc.sol\":2466:2470  true */\n      0x01\n        /* \"contracts/CCK/CC2/ctoc.sol\":2459:2470  return true */\n      swap1\n      pop\n        /* \"contracts/CCK/CC2/ctoc.sol\":1825:2478  function transferFrom(address from, address to, uint value ) public returns(bool) {... */\n      swap4\n      swap3\n      pop\n      pop\n      pop\n      jump\t// out\n        /* \"contracts/CCK/CC2/ctoc.sol\":597:625  string public versao = \"1.0\" */\n    tag_30:\n      0x03\n      dup1\n      sload\n      tag_95\n      swap1\n      tag_96\n      jump\t// in\n    tag_95:\n      dup1\n      0x1f\n      add\n      0x20\n      dup1\n      swap2\n      div\n      mul\n      0x20\n      add\n      mload(0x40)\n      swap1\n      dup2\n      add\n      0x40\n      mstore\n      dup1\n      swap3\n      swap2\n      swap1\n      dup2\n      dup2\n      mstore\n      0x20\n      add\n      dup3\n      dup1\n      sload\n      tag_97\n      swap1\n      tag_96\n      jump\t// in\n    tag_97:\n      dup1\n      iszero\n      tag_98\n      jumpi\n      dup1\n      0x1f\n      lt\n      tag_99\n      jumpi\n      0x0100\n      dup1\n      dup4\n      sload\n      div\n      mul\n      dup4\n      mstore\n      swap2\n      0x20\n      add\n      swap2\n      jump(tag_98)\n    tag_99:\n      dup3\n      add\n      swap2\n      swap1\n      0x00\n      mstore\n      keccak256(0x00, 0x20)\n      swap1\n    tag_100:\n      dup2\n      sload\n      dup2\n      mstore\n      swap1\n      0x01\n      add\n      swap1\n      0x20\n      add\n      dup1\n      dup4\n      gt\n      tag_100\n      jumpi\n      dup3\n      swap1\n      sub\n      0x1f\n      and\n      dup3\n      add\n      swap2\n    tag_98:\n      pop\n      pop\n      pop\n      pop\n      pop\n      dup2\n      jump\t// out\n        /* \"contracts/CCK/CC2/ctoc.sol\":480:520  mapping(address => uint) public balances */\n    tag_36:\n      mstore(0x20, 0x01)\n      dup1\n      0x00\n      mstore\n      keccak256(0x00, 0x40)\n      0x00\n      swap2\n      pop\n      swap1\n      pop\n      sload\n      dup2\n      jump\t// out\n        /* \"contracts/CCK/CC2/ctoc.sol\":669:695  uint    public donateValue */\n    tag_40:\n      sload(0x05)\n      dup2\n      jump\t// out\n        /* \"contracts/CCK/CC2/ctoc.sol\":1136:1237  function balanceOf(address owner) public view returns(uint) {... */\n    tag_44:\n        /* \"contracts/CCK/CC2/ctoc.sol\":1190:1194  uint */\n      0x00\n        /* \"contracts/CCK/CC2/ctoc.sol\":1214:1222  balances */\n      0x01\n        /* \"contracts/CCK/CC2/ctoc.sol\":1214:1229  balances[owner] */\n      0x00\n        /* \"contracts/CCK/CC2/ctoc.sol\":1223:1228  owner */\n      dup4\n        /* \"contracts/CCK/CC2/ctoc.sol\":1214:1229  balances[owner] */\n      0xffffffffffffffffffffffffffffffffffffffff\n      and\n      0xffffffffffffffffffffffffffffffffffffffff\n      and\n      dup2\n      mstore\n      0x20\n      add\n      swap1\n      dup2\n      mstore\n      0x20\n      add\n      0x00\n      keccak256\n      sload\n        /* \"contracts/CCK/CC2/ctoc.sol\":1207:1229  return balances[owner] */\n      swap1\n      pop\n        /* \"contracts/CCK/CC2/ctoc.sol\":1136:1237  function balanceOf(address owner) public view returns(uint) {... */\n      swap2\n      swap1\n      pop\n      jump\t// out\n        /* \"contracts/CCK/CC2/ctoc.sol\":2697:2799  function changeAddressDonate(  address pDonateValue  )  public {\t... */\n    tag_48:\n        /* \"contracts/CCK/CC2/ctoc.sol\":2778:2790  pDonateValue */\n      dup1\n        /* \"contracts/CCK/CC2/ctoc.sol\":2769:2775  donate */\n      0x04\n      0x00\n        /* \"contracts/CCK/CC2/ctoc.sol\":2769:2790  donate = pDonateValue */\n      0x0100\n      exp\n      dup2\n      sload\n      dup2\n      0xffffffffffffffffffffffffffffffffffffffff\n      mul\n      not\n      and\n      swap1\n      dup4\n      0xffffffffffffffffffffffffffffffffffffffff\n      and\n      mul\n      or\n      swap1\n      sstore\n      pop\n        /* \"contracts/CCK/CC2/ctoc.sol\":2697:2799  function changeAddressDonate(  address pDonateValue  )  public {\t... */\n      pop\n      jump\t// out\n        /* \"contracts/CCK/CC2/ctoc.sol\":1249:1813  function transfer(address to, uint value) public returns(bool) {... */\n    tag_51:\n        /* \"contracts/CCK/CC2/ctoc.sol\":1306:1310  bool */\n      0x00\n        /* \"contracts/CCK/CC2/ctoc.sol\":1356:1361  value */\n      dup2\n        /* \"contracts/CCK/CC2/ctoc.sol\":1331:1352  balanceOf(msg.sender) */\n      tag_104\n        /* \"contracts/CCK/CC2/ctoc.sol\":1341:1351  msg.sender */\n      caller\n        /* \"contracts/CCK/CC2/ctoc.sol\":1331:1340  balanceOf */\n      tag_44\n        /* \"contracts/CCK/CC2/ctoc.sol\":1331:1352  balanceOf(msg.sender) */\n      jump\t// in\n    tag_104:\n        /* \"contracts/CCK/CC2/ctoc.sol\":1331:1361  balanceOf(msg.sender) >= value */\n      lt\n      iszero\n        /* \"contracts/CCK/CC2/ctoc.sol\":1323:1420  require(balanceOf(msg.sender) >= value, 'Saldo insuficiente para operacao( Insufficient funds )') */\n      tag_105\n      jumpi\n      mload(0x40)\n      0x08c379a000000000000000000000000000000000000000000000000000000000\n      dup2\n      mstore\n      0x04\n      add\n      tag_106\n      swap1\n      tag_79\n      jump\t// in\n    tag_106:\n      mload(0x40)\n      dup1\n      swap2\n      sub\n      swap1\n      revert\n    tag_105:\n        /* \"contracts/CCK/CC2/ctoc.sol\":1464:1469  value */\n      dup2\n        /* \"contracts/CCK/CC2/ctoc.sol\":1456:1458  10 */\n      0x0a\n        /* \"contracts/CCK/CC2/ctoc.sol\":1442:1453  donateValue */\n      sload(0x05)\n        /* \"contracts/CCK/CC2/ctoc.sol\":1442:1458  donateValue * 10 */\n      tag_107\n      swap2\n      swap1\n      tag_84\n      jump\t// in\n    tag_107:\n        /* \"contracts/CCK/CC2/ctoc.sol\":1440:1469  ( donateValue * 10 )  < value */\n      lt\n        /* \"contracts/CCK/CC2/ctoc.sol\":1435:1661  if ( ( donateValue * 10 )  < value ) {... */\n      iszero\n      tag_108\n      jumpi\n        /* \"contracts/CCK/CC2/ctoc.sol\":1512:1523  donateValue */\n      sload(0x05)\n        /* \"contracts/CCK/CC2/ctoc.sol\":1487:1495  balances */\n      0x01\n        /* \"contracts/CCK/CC2/ctoc.sol\":1487:1505  balances[ donate ] */\n      0x00\n        /* \"contracts/CCK/CC2/ctoc.sol\":1497:1503  donate */\n      0x04\n      0x00\n      swap1\n      sload\n      swap1\n      0x0100\n      exp\n      swap1\n      div\n      0xffffffffffffffffffffffffffffffffffffffff\n      and\n        /* \"contracts/CCK/CC2/ctoc.sol\":1487:1505  balances[ donate ] */\n      0xffffffffffffffffffffffffffffffffffffffff\n      and\n      0xffffffffffffffffffffffffffffffffffffffff\n      and\n      dup2\n      mstore\n      0x20\n      add\n      swap1\n      dup2\n      mstore\n      0x20\n      add\n      0x00\n      keccak256\n      0x00\n        /* \"contracts/CCK/CC2/ctoc.sol\":1487:1523  balances[ donate ]   +=  donateValue */\n      dup3\n      dup3\n      sload\n      tag_109\n      swap2\n      swap1\n      tag_87\n      jump\t// in\n    tag_109:\n      swap3\n      pop\n      pop\n      dup2\n      swap1\n      sstore\n      pop\n        /* \"contracts/CCK/CC2/ctoc.sol\":1573:1584  donateValue */\n      sload(0x05)\n        /* \"contracts/CCK/CC2/ctoc.sol\":1565:1570  value */\n      dup3\n        /* \"contracts/CCK/CC2/ctoc.sol\":1565:1584  value - donateValue */\n      tag_110\n      swap2\n      swap1\n      tag_89\n      jump\t// in\n    tag_110:\n        /* \"contracts/CCK/CC2/ctoc.sol\":1538:1546  balances */\n      0x01\n        /* \"contracts/CCK/CC2/ctoc.sol\":1538:1550  balances[to] */\n      0x00\n        /* \"contracts/CCK/CC2/ctoc.sol\":1547:1549  to */\n      dup6\n        /* \"contracts/CCK/CC2/ctoc.sol\":1538:1550  balances[to] */\n      0xffffffffffffffffffffffffffffffffffffffff\n      and\n      0xffffffffffffffffffffffffffffffffffffffff\n      and\n      dup2\n      mstore\n      0x20\n      add\n      swap1\n      dup2\n      mstore\n      0x20\n      add\n      0x00\n      keccak256\n      0x00\n        /* \"contracts/CCK/CC2/ctoc.sol\":1538:1586  balances[to]         +=  ( value - donateValue ) */\n      dup3\n      dup3\n      sload\n      tag_111\n      swap2\n      swap1\n      tag_87\n      jump\t// in\n    tag_111:\n      swap3\n      pop\n      pop\n      dup2\n      swap1\n      sstore\n      pop\n        /* \"contracts/CCK/CC2/ctoc.sol\":1435:1661  if ( ( donateValue * 10 )  < value ) {... */\n      jump(tag_112)\n    tag_108:\n        /* \"contracts/CCK/CC2/ctoc.sol\":1644:1649  value */\n      dup2\n        /* \"contracts/CCK/CC2/ctoc.sol\":1619:1627  balances */\n      0x01\n        /* \"contracts/CCK/CC2/ctoc.sol\":1619:1631  balances[to] */\n      0x00\n        /* \"contracts/CCK/CC2/ctoc.sol\":1628:1630  to */\n      dup6\n        /* \"contracts/CCK/CC2/ctoc.sol\":1619:1631  balances[to] */\n      0xffffffffffffffffffffffffffffffffffffffff\n      and\n      0xffffffffffffffffffffffffffffffffffffffff\n      and\n      dup2\n      mstore\n      0x20\n      add\n      swap1\n      dup2\n      mstore\n      0x20\n      add\n      0x00\n      keccak256\n      0x00\n        /* \"contracts/CCK/CC2/ctoc.sol\":1619:1649  balances[to]         +=  value */\n      dup3\n      dup3\n      sload\n      tag_113\n      swap2\n      swap1\n      tag_87\n      jump\t// in\n    tag_113:\n      swap3\n      pop\n      pop\n      dup2\n      swap1\n      sstore\n      pop\n        /* \"contracts/CCK/CC2/ctoc.sol\":1435:1661  if ( ( donateValue * 10 )  < value ) {... */\n    tag_112:\n        /* \"contracts/CCK/CC2/ctoc.sol\":1721:1726  value */\n      dup2\n        /* \"contracts/CCK/CC2/ctoc.sol\":1697:1705  balances */\n      0x01\n        /* \"contracts/CCK/CC2/ctoc.sol\":1697:1717  balances[msg.sender] */\n      0x00\n        /* \"contracts/CCK/CC2/ctoc.sol\":1706:1716  msg.sender */\n      caller\n        /* \"contracts/CCK/CC2/ctoc.sol\":1697:1717  balances[msg.sender] */\n      0xffffffffffffffffffffffffffffffffffffffff\n      and\n      0xffffffffffffffffffffffffffffffffffffffff\n      and\n      dup2\n      mstore\n      0x20\n      add\n      swap1\n      dup2\n      mstore\n      0x20\n      add\n      0x00\n      keccak256\n      0x00\n        /* \"contracts/CCK/CC2/ctoc.sol\":1697:1726  balances[msg.sender] -= value */\n      dup3\n      dup3\n      sload\n      tag_114\n      swap2\n      swap1\n      tag_89\n      jump\t// in\n    tag_114:\n      swap3\n      pop\n      pop\n      dup2\n      swap1\n      sstore\n      pop\n        /* \"contracts/CCK/CC2/ctoc.sol\":1773:1775  to */\n      dup3\n        /* \"contracts/CCK/CC2/ctoc.sol\":1752:1783  Transfer(msg.sender, to, value) */\n      0xffffffffffffffffffffffffffffffffffffffff\n      and\n        /* \"contracts/CCK/CC2/ctoc.sol\":1761:1771  msg.sender */\n      caller\n        /* \"contracts/CCK/CC2/ctoc.sol\":1752:1783  Transfer(msg.sender, to, value) */\n      0xffffffffffffffffffffffffffffffffffffffff\n      and\n      0xddf252ad1be2c89b69c2b068fc378daa952ba7f163c4a11628f55a4df523b3ef\n        /* \"contracts/CCK/CC2/ctoc.sol\":1777:1782  value */\n      dup5\n        /* \"contracts/CCK/CC2/ctoc.sol\":1752:1783  Transfer(msg.sender, to, value) */\n      mload(0x40)\n      tag_115\n      swap2\n      swap1\n      tag_38\n      jump\t// in\n    tag_115:\n      mload(0x40)\n      dup1\n      swap2\n      sub\n      swap1\n      log3\n        /* \"contracts/CCK/CC2/ctoc.sol\":1801:1805  true */\n      0x01\n        /* \"contracts/CCK/CC2/ctoc.sol\":1794:1805  return true */\n      swap1\n      pop\n        /* \"contracts/CCK/CC2/ctoc.sol\":1249:1813  function transfer(address to, uint value) public returns(bool) {... */\n      swap3\n      swap2\n      pop\n      pop\n      jump\t// out\n        /* \"contracts/CCK/CC2/ctoc.sol\":2807:2912  function changeValueDonate(  uint  pDonateValue ) public  {\t... */\n    tag_56:\n        /* \"contracts/CCK/CC2/ctoc.sol\":2891:2903  pDonateValue */\n      dup1\n        /* \"contracts/CCK/CC2/ctoc.sol\":2877:2888  donateValue */\n      0x05\n        /* \"contracts/CCK/CC2/ctoc.sol\":2877:2903  donateValue = pDonateValue */\n      dup2\n      swap1\n      sstore\n      pop\n        /* \"contracts/CCK/CC2/ctoc.sol\":2807:2912  function changeValueDonate(  uint  pDonateValue ) public  {\t... */\n      pop\n      jump\t// out\n        /* \"contracts/CCK/CC2/ctoc.sol\":704:732  address public contractOwner */\n    tag_58:\n      0x06\n      0x00\n      swap1\n      sload\n      swap1\n      0x0100\n      exp\n      swap1\n      div\n      0xffffffffffffffffffffffffffffffffffffffff\n      and\n      dup2\n      jump\t// out\n        /* \"contracts/CCK/CC2/ctoc.sol\":527:588  mapping(address => mapping(address => uint)) public allowance */\n    tag_64:\n      mstore(0x20, 0x02)\n      dup2\n      0x00\n      mstore\n      mstore(0x20, keccak256(0x00, 0x40))\n      dup1\n      0x00\n      mstore\n      keccak256(0x00, 0x40)\n      0x00\n      swap2\n      pop\n      swap2\n      pop\n      pop\n      sload\n      dup2\n      jump\t// out\n        /* \"contracts/CCK/CC2/ctoc.sol\":636:657  address public donate */\n    tag_67:\n      0x04\n      0x00\n      swap1\n      sload\n      swap1\n      0x0100\n      exp\n      swap1\n      div\n      0xffffffffffffffffffffffffffffffffffffffff\n      and\n      dup2\n      jump\t// out\n        /* \"contracts/CCK/CC2/ctoc.sol\":419:438  IERC20 public token */\n    tag_70:\n      0x00\n      0x00\n      swap1\n      sload\n      swap1\n      0x0100\n      exp\n      swap1\n      div\n      0xffffffffffffffffffffffffffffffffffffffff\n      and\n      dup2\n      jump\t// out\n        /* \"#utility.yul\":88:205   */\n    tag_118:\n        /* \"#utility.yul\":197:198   */\n      0x00\n        /* \"#utility.yul\":194:195   */\n      0x00\n        /* \"#utility.yul\":187:199   */\n      revert\n        /* \"#utility.yul\":334:460   */\n    tag_120:\n        /* \"#utility.yul\":371:378   */\n      0x00\n        /* \"#utility.yul\":411:453   */\n      0xffffffffffffffffffffffffffffffffffffffff\n        /* \"#utility.yul\":404:409   */\n      dup3\n        /* \"#utility.yul\":400:454   */\n      and\n        /* \"#utility.yul\":389:454   */\n      swap1\n      pop\n        /* \"#utility.yul\":334:460   */\n      swap2\n      swap1\n      pop\n      jump\t// out\n        /* \"#utility.yul\":466:562   */\n    tag_121:\n        /* \"#utility.yul\":503:510   */\n      0x00\n        /* \"#utility.yul\":532:556   */\n      tag_153\n        /* \"#utility.yul\":550:555   */\n      dup3\n        /* \"#utility.yul\":532:556   */\n      tag_120\n      jump\t// in\n    tag_153:\n        /* \"#utility.yul\":521:556   */\n      swap1\n      pop\n        /* \"#utility.yul\":466:562   */\n      swap2\n      swap1\n      pop\n      jump\t// out\n        /* \"#utility.yul\":568:690   */\n    tag_122:\n        /* \"#utility.yul\":641:665   */\n      tag_155\n        /* \"#utility.yul\":659:664   */\n      dup2\n        /* \"#utility.yul\":641:665   */\n      tag_121\n      jump\t// in\n    tag_155:\n        /* \"#utility.yul\":634:639   */\n      dup2\n        /* \"#utility.yul\":631:666   */\n      eq\n        /* \"#utility.yul\":621:684   */\n      tag_156\n      jumpi\n        /* \"#utility.yul\":680:681   */\n      0x00\n        /* \"#utility.yul\":677:678   */\n      0x00\n        /* \"#utility.yul\":670:682   */\n      revert\n        /* \"#utility.yul\":621:684   */\n    tag_156:\n        /* \"#utility.yul\":568:690   */\n      pop\n      jump\t// out\n        /* \"#utility.yul\":696:835   */\n    tag_123:\n        /* \"#utility.yul\":742:747   */\n      0x00\n        /* \"#utility.yul\":780:786   */\n      dup2\n        /* \"#utility.yul\":767:787   */\n      calldataload\n        /* \"#utility.yul\":758:787   */\n      swap1\n      pop\n        /* \"#utility.yul\":796:829   */\n      tag_158\n        /* \"#utility.yul\":823:828   */\n      dup2\n        /* \"#utility.yul\":796:829   */\n      tag_122\n      jump\t// in\n    tag_158:\n        /* \"#utility.yul\":696:835   */\n      swap3\n      swap2\n      pop\n      pop\n      jump\t// out\n        /* \"#utility.yul\":841:918   */\n    tag_124:\n        /* \"#utility.yul\":878:885   */\n      0x00\n        /* \"#utility.yul\":907:912   */\n      dup2\n        /* \"#utility.yul\":896:912   */\n      swap1\n      pop\n        /* \"#utility.yul\":841:918   */\n      swap2\n      swap1\n      pop\n      jump\t// out\n        /* \"#utility.yul\":924:1046   */\n    tag_125:\n        /* \"#utility.yul\":997:1021   */\n      tag_161\n        /* \"#utility.yul\":1015:1020   */\n      dup2\n        /* \"#utility.yul\":997:1021   */\n      tag_124\n      jump\t// in\n    tag_161:\n        /* \"#utility.yul\":990:995   */\n      dup2\n        /* \"#utility.yul\":987:1022   */\n      eq\n        /* \"#utility.yul\":977:1040   */\n      tag_162\n      jumpi\n        /* \"#utility.yul\":1036:1037   */\n      0x00\n        /* \"#utility.yul\":1033:1034   */\n      0x00\n        /* \"#utility.yul\":1026:1038   */\n      revert\n        /* \"#utility.yul\":977:1040   */\n    tag_162:\n        /* \"#utility.yul\":924:1046   */\n      pop\n      jump\t// out\n        /* \"#utility.yul\":1052:1191   */\n    tag_126:\n        /* \"#utility.yul\":1098:1103   */\n      0x00\n        /* \"#utility.yul\":1136:1142   */\n      dup2\n        /* \"#utility.yul\":1123:1143   */\n      calldataload\n        /* \"#utility.yul\":1114:1143   */\n      swap1\n      pop\n        /* \"#utility.yul\":1152:1185   */\n      tag_164\n        /* \"#utility.yul\":1179:1184   */\n      dup2\n        /* \"#utility.yul\":1152:1185   */\n      tag_125\n      jump\t// in\n    tag_164:\n        /* \"#utility.yul\":1052:1191   */\n      swap3\n      swap2\n      pop\n      pop\n      jump\t// out\n        /* \"#utility.yul\":1197:1671   */\n    tag_20:\n        /* \"#utility.yul\":1265:1271   */\n      0x00\n        /* \"#utility.yul\":1273:1279   */\n      0x00\n        /* \"#utility.yul\":1322:1324   */\n      0x40\n        /* \"#utility.yul\":1310:1319   */\n      dup4\n        /* \"#utility.yul\":1301:1308   */\n      dup6\n        /* \"#utility.yul\":1297:1320   */\n      sub\n        /* \"#utility.yul\":1293:1325   */\n      slt\n        /* \"#utility.yul\":1290:1409   */\n      iszero\n      tag_166\n      jumpi\n        /* \"#utility.yul\":1328:1407   */\n      tag_167\n      tag_118\n      jump\t// in\n    tag_167:\n        /* \"#utility.yul\":1290:1409   */\n    tag_166:\n        /* \"#utility.yul\":1448:1449   */\n      0x00\n        /* \"#utility.yul\":1473:1526   */\n      tag_168\n        /* \"#utility.yul\":1518:1525   */\n      dup6\n        /* \"#utility.yul\":1509:1515   */\n      dup3\n        /* \"#utility.yul\":1498:1507   */\n      dup7\n        /* \"#utility.yul\":1494:1516   */\n      add\n        /* \"#utility.yul\":1473:1526   */\n      tag_123\n      jump\t// in\n    tag_168:\n        /* \"#utility.yul\":1463:1526   */\n      swap3\n      pop\n        /* \"#utility.yul\":1419:1536   */\n      pop\n        /* \"#utility.yul\":1575:1577   */\n      0x20\n        /* \"#utility.yul\":1601:1654   */\n      tag_169\n        /* \"#utility.yul\":1646:1653   */\n      dup6\n        /* \"#utility.yul\":1637:1643   */\n      dup3\n        /* \"#utility.yul\":1626:1635   */\n      dup7\n        /* \"#utility.yul\":1622:1644   */\n      add\n        /* \"#utility.yul\":1601:1654   */\n      tag_126\n      jump\t// in\n    tag_169:\n        /* \"#utility.yul\":1591:1654   */\n      swap2\n      pop\n        /* \"#utility.yul\":1546:1664   */\n      pop\n        /* \"#utility.yul\":1197:1671   */\n      swap3\n      pop\n      swap3\n      swap1\n      pop\n      jump\t// out\n        /* \"#utility.yul\":1677:1767   */\n    tag_127:\n        /* \"#utility.yul\":1711:1718   */\n      0x00\n        /* \"#utility.yul\":1754:1759   */\n      dup2\n        /* \"#utility.yul\":1747:1760   */\n      iszero\n        /* \"#utility.yul\":1740:1761   */\n      iszero\n        /* \"#utility.yul\":1729:1761   */\n      swap1\n      pop\n        /* \"#utility.yul\":1677:1767   */\n      swap2\n      swap1\n      pop\n      jump\t// out\n        /* \"#utility.yul\":1773:1882   */\n    tag_128:\n        /* \"#utility.yul\":1854:1875   */\n      tag_172\n        /* \"#utility.yul\":1869:1874   */\n      dup2\n        /* \"#utility.yul\":1854:1875   */\n      tag_127\n      jump\t// in\n    tag_172:\n        /* \"#utility.yul\":1849:1852   */\n      dup3\n        /* \"#utility.yul\":1842:1876   */\n      mstore\n        /* \"#utility.yul\":1773:1882   */\n      pop\n      pop\n      jump\t// out\n        /* \"#utility.yul\":1888:2098   */\n    tag_23:\n        /* \"#utility.yul\":1975:1979   */\n      0x00\n        /* \"#utility.yul\":2013:2015   */\n      0x20\n        /* \"#utility.yul\":2002:2011   */\n      dup3\n        /* \"#utility.yul\":1998:2016   */\n      add\n        /* \"#utility.yul\":1990:2016   */\n      swap1\n      pop\n        /* \"#utility.yul\":2026:2091   */\n      tag_174\n        /* \"#utility.yul\":2088:2089   */\n      0x00\n        /* \"#utility.yul\":2077:2086   */\n      dup4\n        /* \"#utility.yul\":2073:2090   */\n      add\n        /* \"#utility.yul\":2064:2070   */\n      dup5\n        /* \"#utility.yul\":2026:2091   */\n      tag_128\n      jump\t// in\n    tag_174:\n        /* \"#utility.yul\":1888:2098   */\n      swap3\n      swap2\n      pop\n      pop\n      jump\t// out\n        /* \"#utility.yul\":2104:2723   */\n    tag_26:\n        /* \"#utility.yul\":2181:2187   */\n      0x00\n        /* \"#utility.yul\":2189:2195   */\n      0x00\n        /* \"#utility.yul\":2197:2203   */\n      0x00\n        /* \"#utility.yul\":2246:2248   */\n      0x60\n        /* \"#utility.yul\":2234:2243   */\n      dup5\n        /* \"#utility.yul\":2225:2232   */\n      dup7\n        /* \"#utility.yul\":2221:2244   */\n      sub\n        /* \"#utility.yul\":2217:2249   */\n      slt\n        /* \"#utility.yul\":2214:2333   */\n      iszero\n      tag_176\n      jumpi\n        /* \"#utility.yul\":2252:2331   */\n      tag_177\n      tag_118\n      jump\t// in\n    tag_177:\n        /* \"#utility.yul\":2214:2333   */\n    tag_176:\n        /* \"#utility.yul\":2372:2373   */\n      0x00\n        /* \"#utility.yul\":2397:2450   */\n      tag_178\n        /* \"#utility.yul\":2442:2449   */\n      dup7\n        /* \"#utility.yul\":2433:2439   */\n      dup3\n        /* \"#utility.yul\":2422:2431   */\n      dup8\n        /* \"#utility.yul\":2418:2440   */\n      add\n        /* \"#utility.yul\":2397:2450   */\n      tag_123\n      jump\t// in\n    tag_178:\n        /* \"#utility.yul\":2387:2450   */\n      swap4\n      pop\n        /* \"#utility.yul\":2343:2460   */\n      pop\n        /* \"#utility.yul\":2499:2501   */\n      0x20\n        /* \"#utility.yul\":2525:2578   */\n      tag_179\n        /* \"#utility.yul\":2570:2577   */\n      dup7\n        /* \"#utility.yul\":2561:2567   */\n      dup3\n        /* \"#utility.yul\":2550:2559   */\n      dup8\n        /* \"#utility.yul\":2546:2568   */\n      add\n        /* \"#utility.yul\":2525:2578   */\n      tag_123\n      jump\t// in\n    tag_179:\n        /* \"#utility.yul\":2515:2578   */\n      swap3\n      pop\n        /* \"#utility.yul\":2470:2588   */\n      pop\n        /* \"#utility.yul\":2627:2629   */\n      0x40\n        /* \"#utility.yul\":2653:2706   */\n      tag_180\n        /* \"#utility.yul\":2698:2705   */\n      dup7\n        /* \"#utility.yul\":2689:2695   */\n      dup3\n        /* \"#utility.yul\":2678:2687   */\n      dup8\n        /* \"#utility.yul\":2674:2696   */\n      add\n        /* \"#utility.yul\":2653:2706   */\n      tag_126\n      jump\t// in\n    tag_180:\n        /* \"#utility.yul\":2643:2706   */\n      swap2\n      pop\n        /* \"#utility.yul\":2598:2716   */\n      pop\n        /* \"#utility.yul\":2104:2723   */\n      swap3\n      pop\n      swap3\n      pop\n      swap3\n      jump\t// out\n        /* \"#utility.yul\":2729:2828   */\n    tag_129:\n        /* \"#utility.yul\":2781:2787   */\n      0x00\n        /* \"#utility.yul\":2815:2820   */\n      dup2\n        /* \"#utility.yul\":2809:2821   */\n      mload\n        /* \"#utility.yul\":2799:2821   */\n      swap1\n      pop\n        /* \"#utility.yul\":2729:2828   */\n      swap2\n      swap1\n      pop\n      jump\t// out\n        /* \"#utility.yul\":2834:3003   */\n    tag_130:\n        /* \"#utility.yul\":2918:2929   */\n      0x00\n        /* \"#utility.yul\":2952:2958   */\n      dup3\n        /* \"#utility.yul\":2947:2950   */\n      dup3\n        /* \"#utility.yul\":2940:2959   */\n      mstore\n        /* \"#utility.yul\":2992:2996   */\n      0x20\n        /* \"#utility.yul\":2987:2990   */\n      dup3\n        /* \"#utility.yul\":2983:2997   */\n      add\n        /* \"#utility.yul\":2968:2997   */\n      swap1\n      pop\n        /* \"#utility.yul\":2834:3003   */\n      swap3\n      swap2\n      pop\n      pop\n      jump\t// out\n        /* \"#utility.yul\":3009:3148   */\n    tag_131:\n        /* \"#utility.yul\":3098:3104   */\n      dup3\n        /* \"#utility.yul\":3093:3096   */\n      dup2\n        /* \"#utility.yul\":3088:3091   */\n      dup4\n        /* \"#utility.yul\":3082:3105   */\n      mcopy\n        /* \"#utility.yul\":3139:3140   */\n      0x00\n        /* \"#utility.yul\":3130:3136   */\n      dup4\n        /* \"#utility.yul\":3125:3128   */\n      dup4\n        /* \"#utility.yul\":3121:3137   */\n      add\n        /* \"#utility.yul\":3114:3141   */\n      mstore\n        /* \"#utility.yul\":3009:3148   */\n      pop\n      pop\n      pop\n      jump\t// out\n        /* \"#utility.yul\":3154:3256   */\n    tag_132:\n        /* \"#utility.yul\":3195:3201   */\n      0x00\n        /* \"#utility.yul\":3246:3248   */\n      0x1f\n        /* \"#utility.yul\":3242:3249   */\n      not\n        /* \"#utility.yul\":3237:3239   */\n      0x1f\n        /* \"#utility.yul\":3230:3235   */\n      dup4\n        /* \"#utility.yul\":3226:3240   */\n      add\n        /* \"#utility.yul\":3222:3250   */\n      and\n        /* \"#utility.yul\":3212:3250   */\n      swap1\n      pop\n        /* \"#utility.yul\":3154:3256   */\n      swap2\n      swap1\n      pop\n      jump\t// out\n        /* \"#utility.yul\":3262:3639   */\n    tag_133:\n        /* \"#utility.yul\":3350:3353   */\n      0x00\n        /* \"#utility.yul\":3378:3417   */\n      tag_186\n        /* \"#utility.yul\":3411:3416   */\n      dup3\n        /* \"#utility.yul\":3378:3417   */\n      tag_129\n      jump\t// in\n    tag_186:\n        /* \"#utility.yul\":3433:3504   */\n      tag_187\n        /* \"#utility.yul\":3497:3503   */\n      dup2\n        /* \"#utility.yul\":3492:3495   */\n      dup6\n        /* \"#utility.yul\":3433:3504   */\n      tag_130\n      jump\t// in\n    tag_187:\n        /* \"#utility.yul\":3426:3504   */\n      swap4\n      pop\n        /* \"#utility.yul\":3513:3578   */\n      tag_188\n        /* \"#utility.yul\":3571:3577   */\n      dup2\n        /* \"#utility.yul\":3566:3569   */\n      dup6\n        /* \"#utility.yul\":3559:3563   */\n      0x20\n        /* \"#utility.yul\":3552:3557   */\n      dup7\n        /* \"#utility.yul\":3548:3564   */\n      add\n        /* \"#utility.yul\":3513:3578   */\n      tag_131\n      jump\t// in\n    tag_188:\n        /* \"#utility.yul\":3603:3632   */\n      tag_189\n        /* \"#utility.yul\":3625:3631   */\n      dup2\n        /* \"#utility.yul\":3603:3632   */\n      tag_132\n      jump\t// in\n    tag_189:\n        /* \"#utility.yul\":3598:3601   */\n      dup5\n        /* \"#utility.yul\":3594:3633   */\n      add\n        /* \"#utility.yul\":3587:3633   */\n      swap2\n      pop\n        /* \"#utility.yul\":3354:3639   */\n      pop\n        /* \"#utility.yul\":3262:3639   */\n      swap3\n      swap2\n      pop\n      pop\n      jump\t// out\n        /* \"#utility.yul\":3645:3958   */\n    tag_32:\n        /* \"#utility.yul\":3758:3762   */\n      0x00\n        /* \"#utility.yul\":3796:3798   */\n      0x20\n        /* \"#utility.yul\":3785:3794   */\n      dup3\n        /* \"#utility.yul\":3781:3799   */\n      add\n        /* \"#utility.yul\":3773:3799   */\n      swap1\n      pop\n        /* \"#utility.yul\":3845:3854   */\n      dup2\n        /* \"#utility.yul\":3839:3843   */\n      dup2\n        /* \"#utility.yul\":3835:3855   */\n      sub\n        /* \"#utility.yul\":3831:3832   */\n      0x00\n        /* \"#utility.yul\":3820:3829   */\n      dup4\n        /* \"#utility.yul\":3816:3833   */\n      add\n        /* \"#utility.yul\":3809:3856   */\n      mstore\n        /* \"#utility.yul\":3873:3951   */\n      tag_191\n        /* \"#utility.yul\":3946:3950   */\n      dup2\n        /* \"#utility.yul\":3937:3943   */\n      dup5\n        /* \"#utility.yul\":3873:3951   */\n      tag_133\n      jump\t// in\n    tag_191:\n        /* \"#utility.yul\":3865:3951   */\n      swap1\n      pop\n        /* \"#utility.yul\":3645:3958   */\n      swap3\n      swap2\n      pop\n      pop\n      jump\t// out\n        /* \"#utility.yul\":3964:4293   */\n    tag_35:\n        /* \"#utility.yul\":4023:4029   */\n      0x00\n        /* \"#utility.yul\":4072:4074   */\n      0x20\n        /* \"#utility.yul\":4060:4069   */\n      dup3\n        /* \"#utility.yul\":4051:4058   */\n      dup5\n        /* \"#utility.yul\":4047:4070   */\n      sub\n        /* \"#utility.yul\":4043:4075   */\n      slt\n        /* \"#utility.yul\":4040:4159   */\n      iszero\n      tag_193\n      jumpi\n        /* \"#utility.yul\":4078:4157   */\n      tag_194\n      tag_118\n      jump\t// in\n    tag_194:\n        /* \"#utility.yul\":4040:4159   */\n    tag_193:\n        /* \"#utility.yul\":4198:4199   */\n      0x00\n        /* \"#utility.yul\":4223:4276   */\n      tag_195\n        /* \"#utility.yul\":4268:4275   */\n      dup5\n        /* \"#utility.yul\":4259:4265   */\n      dup3\n        /* \"#utility.yul\":4248:4257   */\n      dup6\n        /* \"#utility.yul\":4244:4266   */\n      add\n        /* \"#utility.yul\":4223:4276   */\n      tag_123\n      jump\t// in\n    tag_195:\n        /* \"#utility.yul\":4213:4276   */\n      swap2\n      pop\n        /* \"#utility.yul\":4169:4286   */\n      pop\n        /* \"#utility.yul\":3964:4293   */\n      swap3\n      swap2\n      pop\n      pop\n      jump\t// out\n        /* \"#utility.yul\":4299:4417   */\n    tag_134:\n        /* \"#utility.yul\":4386:4410   */\n      tag_197\n        /* \"#utility.yul\":4404:4409   */\n      dup2\n        /* \"#utility.yul\":4386:4410   */\n      tag_124\n      jump\t// in\n    tag_197:\n        /* \"#utility.yul\":4381:4384   */\n      dup3\n        /* \"#utility.yul\":4374:4411   */\n      mstore\n        /* \"#utility.yul\":4299:4417   */\n      pop\n      pop\n      jump\t// out\n        /* \"#utility.yul\":4423:4645   */\n    tag_38:\n        /* \"#utility.yul\":4516:4520   */\n      0x00\n        /* \"#utility.yul\":4554:4556   */\n      0x20\n        /* \"#utility.yul\":4543:4552   */\n      dup3\n        /* \"#utility.yul\":4539:4557   */\n      add\n        /* \"#utility.yul\":4531:4557   */\n      swap1\n      pop\n        /* \"#utility.yul\":4567:4638   */\n      tag_199\n        /* \"#utility.yul\":4635:4636   */\n      0x00\n        /* \"#utility.yul\":4624:4633   */\n      dup4\n        /* \"#utility.yul\":4620:4637   */\n      add\n        /* \"#utility.yul\":4611:4617   */\n      dup5\n        /* \"#utility.yul\":4567:4638   */\n      tag_134\n      jump\t// in\n    tag_199:\n        /* \"#utility.yul\":4423:4645   */\n      swap3\n      swap2\n      pop\n      pop\n      jump\t// out\n        /* \"#utility.yul\":4651:4980   */\n    tag_55:\n        /* \"#utility.yul\":4710:4716   */\n      0x00\n        /* \"#utility.yul\":4759:4761   */\n      0x20\n        /* \"#utility.yul\":4747:4756   */\n      dup3\n        /* \"#utility.yul\":4738:4745   */\n      dup5\n        /* \"#utility.yul\":4734:4757   */\n      sub\n        /* \"#utility.yul\":4730:4762   */\n      slt\n        /* \"#utility.yul\":4727:4846   */\n      iszero\n      tag_201\n      jumpi\n        /* \"#utility.yul\":4765:4844   */\n      tag_202\n      tag_118\n      jump\t// in\n    tag_202:\n        /* \"#utility.yul\":4727:4846   */\n    tag_201:\n        /* \"#utility.yul\":4885:4886   */\n      0x00\n        /* \"#utility.yul\":4910:4963   */\n      tag_203\n        /* \"#utility.yul\":4955:4962   */\n      dup5\n        /* \"#utility.yul\":4946:4952   */\n      dup3\n        /* \"#utility.yul\":4935:4944   */\n      dup6\n        /* \"#utility.yul\":4931:4953   */\n      add\n        /* \"#utility.yul\":4910:4963   */\n      tag_126\n      jump\t// in\n    tag_203:\n        /* \"#utility.yul\":4900:4963   */\n      swap2\n      pop\n        /* \"#utility.yul\":4856:4973   */\n      pop\n        /* \"#utility.yul\":4651:4980   */\n      swap3\n      swap2\n      pop\n      pop\n      jump\t// out\n        /* \"#utility.yul\":4986:5104   */\n    tag_135:\n        /* \"#utility.yul\":5073:5097   */\n      tag_205\n        /* \"#utility.yul\":5091:5096   */\n      dup2\n        /* \"#utility.yul\":5073:5097   */\n      tag_121\n      jump\t// in\n    tag_205:\n        /* \"#utility.yul\":5068:5071   */\n      dup3\n        /* \"#utility.yul\":5061:5098   */\n      mstore\n        /* \"#utility.yul\":4986:5104   */\n      pop\n      pop\n      jump\t// out\n        /* \"#utility.yul\":5110:5332   */\n    tag_60:\n        /* \"#utility.yul\":5203:5207   */\n      0x00\n        /* \"#utility.yul\":5241:5243   */\n      0x20\n        /* \"#utility.yul\":5230:5239   */\n      dup3\n        /* \"#utility.yul\":5226:5244   */\n      add\n        /* \"#utility.yul\":5218:5244   */\n      swap1\n      pop\n        /* \"#utility.yul\":5254:5325   */\n      tag_207\n        /* \"#utility.yul\":5322:5323   */\n      0x00\n        /* \"#utility.yul\":5311:5320   */\n      dup4\n        /* \"#utility.yul\":5307:5324   */\n      add\n        /* \"#utility.yul\":5298:5304   */\n      dup5\n        /* \"#utility.yul\":5254:5325   */\n      tag_135\n      jump\t// in\n    tag_207:\n        /* \"#utility.yul\":5110:5332   */\n      swap3\n      swap2\n      pop\n      pop\n      jump\t// out\n        /* \"#utility.yul\":5338:5812   */\n    tag_63:\n        /* \"#utility.yul\":5406:5412   */\n      0x00\n        /* \"#utility.yul\":5414:5420   */\n      0x00\n        /* \"#utility.yul\":5463:5465   */\n      0x40\n        /* \"#utility.yul\":5451:5460   */\n      dup4\n        /* \"#utility.yul\":5442:5449   */\n      dup6\n        /* \"#utility.yul\":5438:5461   */\n      sub\n        /* \"#utility.yul\":5434:5466   */\n      slt\n        /* \"#utility.yul\":5431:5550   */\n      iszero\n      tag_209\n      jumpi\n        /* \"#utility.yul\":5469:5548   */\n      tag_210\n      tag_118\n      jump\t// in\n    tag_210:\n        /* \"#utility.yul\":5431:5550   */\n    tag_209:\n        /* \"#utility.yul\":5589:5590   */\n      0x00\n        /* \"#utility.yul\":5614:5667   */\n      tag_211\n        /* \"#utility.yul\":5659:5666   */\n      dup6\n        /* \"#utility.yul\":5650:5656   */\n      dup3\n        /* \"#utility.yul\":5639:5648   */\n      dup7\n        /* \"#utility.yul\":5635:5657   */\n      add\n        /* \"#utility.yul\":5614:5667   */\n      tag_123\n      jump\t// in\n    tag_211:\n        /* \"#utility.yul\":5604:5667   */\n      swap3\n      pop\n        /* \"#utility.yul\":5560:5677   */\n      pop\n        /* \"#utility.yul\":5716:5718   */\n      0x20\n        /* \"#utility.yul\":5742:5795   */\n      tag_212\n        /* \"#utility.yul\":5787:5794   */\n      dup6\n        /* \"#utility.yul\":5778:5784   */\n      dup3\n        /* \"#utility.yul\":5767:5776   */\n      dup7\n        /* \"#utility.yul\":5763:5785   */\n      add\n        /* \"#utility.yul\":5742:5795   */\n      tag_123\n      jump\t// in\n    tag_212:\n        /* \"#utility.yul\":5732:5795   */\n      swap2\n      pop\n        /* \"#utility.yul\":5687:5805   */\n      pop\n        /* \"#utility.yul\":5338:5812   */\n      swap3\n      pop\n      swap3\n      swap1\n      pop\n      jump\t// out\n        /* \"#utility.yul\":5818:5878   */\n    tag_136:\n        /* \"#utility.yul\":5846:5849   */\n      0x00\n        /* \"#utility.yul\":5867:5872   */\n      dup2\n        /* \"#utility.yul\":5860:5872   */\n      swap1\n      pop\n        /* \"#utility.yul\":5818:5878   */\n      swap2\n      swap1\n      pop\n      jump\t// out\n        /* \"#utility.yul\":5884:6026   */\n    tag_137:\n        /* \"#utility.yul\":5934:5943   */\n      0x00\n        /* \"#utility.yul\":5967:6020   */\n      tag_215\n        /* \"#utility.yul\":5985:6019   */\n      tag_216\n        /* \"#utility.yul\":5994:6018   */\n      tag_217\n        /* \"#utility.yul\":6012:6017   */\n      dup5\n        /* \"#utility.yul\":5994:6018   */\n      tag_120\n      jump\t// in\n    tag_217:\n        /* \"#utility.yul\":5985:6019   */\n      tag_136\n      jump\t// in\n    tag_216:\n        /* \"#utility.yul\":5967:6020   */\n      tag_120\n      jump\t// in\n    tag_215:\n        /* \"#utility.yul\":5954:6020   */\n      swap1\n      pop\n        /* \"#utility.yul\":5884:6026   */\n      swap2\n      swap1\n      pop\n      jump\t// out\n        /* \"#utility.yul\":6032:6158   */\n    tag_138:\n        /* \"#utility.yul\":6082:6091   */\n      0x00\n        /* \"#utility.yul\":6115:6152   */\n      tag_219\n        /* \"#utility.yul\":6146:6151   */\n      dup3\n        /* \"#utility.yul\":6115:6152   */\n      tag_137\n      jump\t// in\n    tag_219:\n        /* \"#utility.yul\":6102:6152   */\n      swap1\n      pop\n        /* \"#utility.yul\":6032:6158   */\n      swap2\n      swap1\n      pop\n      jump\t// out\n        /* \"#utility.yul\":6164:6304   */\n    tag_139:\n        /* \"#utility.yul\":6228:6237   */\n      0x00\n        /* \"#utility.yul\":6261:6298   */\n      tag_221\n        /* \"#utility.yul\":6292:6297   */\n      dup3\n        /* \"#utility.yul\":6261:6298   */\n      tag_138\n      jump\t// in\n    tag_221:\n        /* \"#utility.yul\":6248:6298   */\n      swap1\n      pop\n        /* \"#utility.yul\":6164:6304   */\n      swap2\n      swap1\n      pop\n      jump\t// out\n        /* \"#utility.yul\":6310:6469   */\n    tag_140:\n        /* \"#utility.yul\":6411:6462   */\n      tag_223\n        /* \"#utility.yul\":6456:6461   */\n      dup2\n        /* \"#utility.yul\":6411:6462   */\n      tag_139\n      jump\t// in\n    tag_223:\n        /* \"#utility.yul\":6406:6409   */\n      dup3\n        /* \"#utility.yul\":6399:6463   */\n      mstore\n        /* \"#utility.yul\":6310:6469   */\n      pop\n      pop\n      jump\t// out\n        /* \"#utility.yul\":6475:6725   */\n    tag_72:\n        /* \"#utility.yul\":6582:6586   */\n      0x00\n        /* \"#utility.yul\":6620:6622   */\n      0x20\n        /* \"#utility.yul\":6609:6618   */\n      dup3\n        /* \"#utility.yul\":6605:6623   */\n      add\n        /* \"#utility.yul\":6597:6623   */\n      swap1\n      pop\n        /* \"#utility.yul\":6633:6718   */\n      tag_225\n        /* \"#utility.yul\":6715:6716   */\n      0x00\n        /* \"#utility.yul\":6704:6713   */\n      dup4\n        /* \"#utility.yul\":6700:6717   */\n      add\n        /* \"#utility.yul\":6691:6697   */\n      dup5\n        /* \"#utility.yul\":6633:6718   */\n      tag_140\n      jump\t// in\n    tag_225:\n        /* \"#utility.yul\":6475:6725   */\n      swap3\n      swap2\n      pop\n      pop\n      jump\t// out\n        /* \"#utility.yul\":6731:6972   */\n    tag_141:\n        /* \"#utility.yul\":6871:6905   */\n      0x53616c646f20696e737566696369656e74652070617261206f7065726163616f\n        /* \"#utility.yul\":6867:6868   */\n      0x00\n        /* \"#utility.yul\":6859:6865   */\n      dup3\n        /* \"#utility.yul\":6855:6869   */\n      add\n        /* \"#utility.yul\":6848:6906   */\n      mstore\n        /* \"#utility.yul\":6940:6964   */\n      0x2820496e73756666696369656e742066756e6473202900000000000000000000\n        /* \"#utility.yul\":6935:6937   */\n      0x20\n        /* \"#utility.yul\":6927:6933   */\n      dup3\n        /* \"#utility.yul\":6923:6938   */\n      add\n        /* \"#utility.yul\":6916:6965   */\n      mstore\n        /* \"#utility.yul\":6731:6972   */\n      pop\n      jump\t// out\n        /* \"#utility.yul\":6978:7344   */\n    tag_142:\n        /* \"#utility.yul\":7120:7123   */\n      0x00\n        /* \"#utility.yul\":7141:7208   */\n      tag_228\n        /* \"#utility.yul\":7205:7207   */\n      0x36\n        /* \"#utility.yul\":7200:7203   */\n      dup4\n        /* \"#utility.yul\":7141:7208   */\n      tag_130\n      jump\t// in\n    tag_228:\n        /* \"#utility.yul\":7134:7208   */\n      swap2\n      pop\n        /* \"#utility.yul\":7217:7310   */\n      tag_229\n        /* \"#utility.yul\":7306:7309   */\n      dup3\n        /* \"#utility.yul\":7217:7310   */\n      tag_141\n      jump\t// in\n    tag_229:\n        /* \"#utility.yul\":7335:7337   */\n      0x40\n        /* \"#utility.yul\":7330:7333   */\n      dup3\n        /* \"#utility.yul\":7326:7338   */\n      add\n        /* \"#utility.yul\":7319:7338   */\n      swap1\n      pop\n        /* \"#utility.yul\":6978:7344   */\n      swap2\n      swap1\n      pop\n      jump\t// out\n        /* \"#utility.yul\":7350:7769   */\n    tag_79:\n        /* \"#utility.yul\":7516:7520   */\n      0x00\n        /* \"#utility.yul\":7554:7556   */\n      0x20\n        /* \"#utility.yul\":7543:7552   */\n      dup3\n        /* \"#utility.yul\":7539:7557   */\n      add\n        /* \"#utility.yul\":7531:7557   */\n      swap1\n      pop\n        /* \"#utility.yul\":7603:7612   */\n      dup2\n        /* \"#utility.yul\":7597:7601   */\n      dup2\n        /* \"#utility.yul\":7593:7613   */\n      sub\n        /* \"#utility.yul\":7589:7590   */\n      0x00\n        /* \"#utility.yul\":7578:7587   */\n      dup4\n        /* \"#utility.yul\":7574:7591   */\n      add\n        /* \"#utility.yul\":7567:7614   */\n      mstore\n        /* \"#utility.yul\":7631:7762   */\n      tag_231\n        /* \"#utility.yul\":7757:7761   */\n      dup2\n        /* \"#utility.yul\":7631:7762   */\n      tag_142\n      jump\t// in\n    tag_231:\n        /* \"#utility.yul\":7623:7762   */\n      swap1\n      pop\n        /* \"#utility.yul\":7350:7769   */\n      swap2\n      swap1\n      pop\n      jump\t// out\n        /* \"#utility.yul\":7775:8010   */\n    tag_143:\n        /* \"#utility.yul\":7915:7949   */\n      0x53656d207065726d697373616f2070617261207472616e736163616f2028616c\n        /* \"#utility.yul\":7911:7912   */\n      0x00\n        /* \"#utility.yul\":7903:7909   */\n      dup3\n        /* \"#utility.yul\":7899:7913   */\n      add\n        /* \"#utility.yul\":7892:7950   */\n      mstore\n        /* \"#utility.yul\":7984:8002   */\n      0x6c6f77616e636520746f6f206c6f772900000000000000000000000000000000\n        /* \"#utility.yul\":7979:7981   */\n      0x20\n        /* \"#utility.yul\":7971:7977   */\n      dup3\n        /* \"#utility.yul\":7967:7982   */\n      add\n        /* \"#utility.yul\":7960:8003   */\n      mstore\n        /* \"#utility.yul\":7775:8010   */\n      pop\n      jump\t// out\n        /* \"#utility.yul\":8016:8382   */\n    tag_144:\n        /* \"#utility.yul\":8158:8161   */\n      0x00\n        /* \"#utility.yul\":8179:8246   */\n      tag_234\n        /* \"#utility.yul\":8243:8245   */\n      0x30\n        /* \"#utility.yul\":8238:8241   */\n      dup4\n        /* \"#utility.yul\":8179:8246   */\n      tag_130\n      jump\t// in\n    tag_234:\n        /* \"#utility.yul\":8172:8246   */\n      swap2\n      pop\n        /* \"#utility.yul\":8255:8348   */\n      tag_235\n        /* \"#utility.yul\":8344:8347   */\n      dup3\n        /* \"#utility.yul\":8255:8348   */\n      tag_143\n      jump\t// in\n    tag_235:\n        /* \"#utility.yul\":8373:8375   */\n      0x40\n        /* \"#utility.yul\":8368:8371   */\n      dup3\n        /* \"#utility.yul\":8364:8376   */\n      add\n        /* \"#utility.yul\":8357:8376   */\n      swap1\n      pop\n        /* \"#utility.yul\":8016:8382   */\n      swap2\n      swap1\n      pop\n      jump\t// out\n        /* \"#utility.yul\":8388:8807   */\n    tag_82:\n        /* \"#utility.yul\":8554:8558   */\n      0x00\n        /* \"#utility.yul\":8592:8594   */\n      0x20\n        /* \"#utility.yul\":8581:8590   */\n      dup3\n        /* \"#utility.yul\":8577:8595   */\n      add\n        /* \"#utility.yul\":8569:8595   */\n      swap1\n      pop\n        /* \"#utility.yul\":8641:8650   */\n      dup2\n        /* \"#utility.yul\":8635:8639   */\n      dup2\n        /* \"#utility.yul\":8631:8651   */\n      sub\n        /* \"#utility.yul\":8627:8628   */\n      0x00\n        /* \"#utility.yul\":8616:8625   */\n      dup4\n        /* \"#utility.yul\":8612:8629   */\n      add\n        /* \"#utility.yul\":8605:8652   */\n      mstore\n        /* \"#utility.yul\":8669:8800   */\n      tag_237\n        /* \"#utility.yul\":8795:8799   */\n      dup2\n        /* \"#utility.yul\":8669:8800   */\n      tag_144\n      jump\t// in\n    tag_237:\n        /* \"#utility.yul\":8661:8800   */\n      swap1\n      pop\n        /* \"#utility.yul\":8388:8807   */\n      swap2\n      swap1\n      pop\n      jump\t// out\n        /* \"#utility.yul\":8813:8993   */\n    tag_145:\n        /* \"#utility.yul\":8861:8938   */\n      0x4e487b7100000000000000000000000000000000000000000000000000000000\n        /* \"#utility.yul\":8858:8859   */\n      0x00\n        /* \"#utility.yul\":8851:8939   */\n      mstore\n        /* \"#utility.yul\":8958:8962   */\n      0x11\n        /* \"#utility.yul\":8955:8956   */\n      0x04\n        /* \"#utility.yul\":8948:8963   */\n      mstore\n        /* \"#utility.yul\":8982:8986   */\n      0x24\n        /* \"#utility.yul\":8979:8980   */\n      0x00\n        /* \"#utility.yul\":8972:8987   */\n      revert\n        /* \"#utility.yul\":8999:9409   */\n    tag_84:\n        /* \"#utility.yul\":9039:9046   */\n      0x00\n        /* \"#utility.yul\":9062:9082   */\n      tag_240\n        /* \"#utility.yul\":9080:9081   */\n      dup3\n        /* \"#utility.yul\":9062:9082   */\n      tag_124\n      jump\t// in\n    tag_240:\n        /* \"#utility.yul\":9057:9082   */\n      swap2\n      pop\n        /* \"#utility.yul\":9096:9116   */\n      tag_241\n        /* \"#utility.yul\":9114:9115   */\n      dup4\n        /* \"#utility.yul\":9096:9116   */\n      tag_124\n      jump\t// in\n    tag_241:\n        /* \"#utility.yul\":9091:9116   */\n      swap3\n      pop\n        /* \"#utility.yul\":9151:9152   */\n      dup3\n        /* \"#utility.yul\":9148:9149   */\n      dup3\n        /* \"#utility.yul\":9144:9153   */\n      mul\n        /* \"#utility.yul\":9173:9203   */\n      tag_242\n        /* \"#utility.yul\":9191:9202   */\n      dup2\n        /* \"#utility.yul\":9173:9203   */\n      tag_124\n      jump\t// in\n    tag_242:\n        /* \"#utility.yul\":9162:9203   */\n      swap2\n      pop\n        /* \"#utility.yul\":9352:9353   */\n      dup3\n        /* \"#utility.yul\":9343:9350   */\n      dup3\n        /* \"#utility.yul\":9339:9354   */\n      div\n        /* \"#utility.yul\":9336:9337   */\n      dup5\n        /* \"#utility.yul\":9333:9355   */\n      eq\n        /* \"#utility.yul\":9313:9314   */\n      dup4\n        /* \"#utility.yul\":9306:9315   */\n      iszero\n        /* \"#utility.yul\":9286:9369   */\n      or\n        /* \"#utility.yul\":9263:9402   */\n      tag_243\n      jumpi\n        /* \"#utility.yul\":9382:9400   */\n      tag_244\n      tag_145\n      jump\t// in\n    tag_244:\n        /* \"#utility.yul\":9263:9402   */\n    tag_243:\n        /* \"#utility.yul\":9047:9409   */\n      pop\n        /* \"#utility.yul\":8999:9409   */\n      swap3\n      swap2\n      pop\n      pop\n      jump\t// out\n        /* \"#utility.yul\":9415:9606   */\n    tag_87:\n        /* \"#utility.yul\":9455:9458   */\n      0x00\n        /* \"#utility.yul\":9474:9494   */\n      tag_246\n        /* \"#utility.yul\":9492:9493   */\n      dup3\n        /* \"#utility.yul\":9474:9494   */\n      tag_124\n      jump\t// in\n    tag_246:\n        /* \"#utility.yul\":9469:9494   */\n      swap2\n      pop\n        /* \"#utility.yul\":9508:9528   */\n      tag_247\n        /* \"#utility.yul\":9526:9527   */\n      dup4\n        /* \"#utility.yul\":9508:9528   */\n      tag_124\n      jump\t// in\n    tag_247:\n        /* \"#utility.yul\":9503:9528   */\n      swap3\n      pop\n        /* \"#utility.yul\":9551:9552   */\n      dup3\n        /* \"#utility.yul\":9548:9549   */\n      dup3\n        /* \"#utility.yul\":9544:9553   */\n      add\n        /* \"#utility.yul\":9537:9553   */\n      swap1\n      pop\n        /* \"#utility.yul\":9572:9575   */\n      dup1\n        /* \"#utility.yul\":9569:9570   */\n      dup3\n        /* \"#utility.yul\":9566:9576   */\n      gt\n        /* \"#utility.yul\":9563:9599   */\n      iszero\n      tag_248\n      jumpi\n        /* \"#utility.yul\":9579:9597   */\n      tag_249\n      tag_145\n      jump\t// in\n    tag_249:\n        /* \"#utility.yul\":9563:9599   */\n    tag_248:\n        /* \"#utility.yul\":9415:9606   */\n      swap3\n      swap2\n      pop\n      pop\n      jump\t// out\n        /* \"#utility.yul\":9612:9806   */\n    tag_89:\n        /* \"#utility.yul\":9652:9656   */\n      0x00\n        /* \"#utility.yul\":9672:9692   */\n      tag_251\n        /* \"#utility.yul\":9690:9691   */\n      dup3\n        /* \"#utility.yul\":9672:9692   */\n      tag_124\n      jump\t// in\n    tag_251:\n        /* \"#utility.yul\":9667:9692   */\n      swap2\n      pop\n        /* \"#utility.yul\":9706:9726   */\n      tag_252\n        /* \"#utility.yul\":9724:9725   */\n      dup4\n        /* \"#utility.yul\":9706:9726   */\n      tag_124\n      jump\t// in\n    tag_252:\n        /* \"#utility.yul\":9701:9726   */\n      swap3\n      pop\n        /* \"#utility.yul\":9750:9751   */\n      dup3\n        /* \"#utility.yul\":9747:9748   */\n      dup3\n        /* \"#utility.yul\":9743:9752   */\n      sub\n        /* \"#utility.yul\":9735:9752   */\n      swap1\n      pop\n        /* \"#utility.yul\":9774:9775   */\n      dup2\n        /* \"#utility.yul\":9768:9772   */\n      dup2\n        /* \"#utility.yul\":9765:9776   */\n      gt\n        /* \"#utility.yul\":9762:9799   */\n      iszero\n      tag_253\n      jumpi\n        /* \"#utility.yul\":9779:9797   */\n      tag_254\n      tag_145\n      jump\t// in\n    tag_254:\n        /* \"#utility.yul\":9762:9799   */\n    tag_253:\n        /* \"#utility.yul\":9612:9806   */\n      swap3\n      swap2\n      pop\n      pop\n      jump\t// out\n        /* \"#utility.yul\":9812:9992   */\n    tag_146:\n        /* \"#utility.yul\":9860:9937   */\n      0x4e487b7100000000000000000000000000000000000000000000000000000000\n        /* \"#utility.yul\":9857:9858   */\n      0x00\n        /* \"#utility.yul\":9850:9938   */\n      mstore\n        /* \"#utility.yul\":9957:9961   */\n      0x22\n        /* \"#utility.yul\":9954:9955   */\n      0x04\n        /* \"#utility.yul\":9947:9962   */\n      mstore\n        /* \"#utility.yul\":9981:9985   */\n      0x24\n        /* \"#utility.yul\":9978:9979   */\n      0x00\n        /* \"#utility.yul\":9971:9986   */\n      revert\n        /* \"#utility.yul\":9998:10318   */\n    tag_96:\n        /* \"#utility.yul\":10042:10048   */\n      0x00\n        /* \"#utility.yul\":10079:10080   */\n      0x02\n        /* \"#utility.yul\":10073:10077   */\n      dup3\n        /* \"#utility.yul\":10069:10081   */\n      div\n        /* \"#utility.yul\":10059:10081   */\n      swap1\n      pop\n        /* \"#utility.yul\":10126:10127   */\n      0x01\n        /* \"#utility.yul\":10120:10124   */\n      dup3\n        /* \"#utility.yul\":10116:10128   */\n      and\n        /* \"#utility.yul\":10147:10165   */\n      dup1\n        /* \"#utility.yul\":10137:10218   */\n      tag_257\n      jumpi\n        /* \"#utility.yul\":10203:10207   */\n      0x7f\n        /* \"#utility.yul\":10195:10201   */\n      dup3\n        /* \"#utility.yul\":10191:10208   */\n      and\n        /* \"#utility.yul\":10181:10208   */\n      swap2\n      pop\n        /* \"#utility.yul\":10137:10218   */\n    tag_257:\n        /* \"#utility.yul\":10265:10267   */\n      0x20\n        /* \"#utility.yul\":10257:10263   */\n      dup3\n        /* \"#utility.yul\":10254:10268   */\n      lt\n        /* \"#utility.yul\":10234:10252   */\n      dup2\n        /* \"#utility.yul\":10231:10269   */\n      sub\n        /* \"#utility.yul\":10228:10312   */\n      tag_258\n      jumpi\n        /* \"#utility.yul\":10284:10302   */\n      tag_259\n      tag_146\n      jump\t// in\n    tag_259:\n        /* \"#utility.yul\":10228:10312   */\n    tag_258:\n        /* \"#utility.yul\":10049:10318   */\n      pop\n        /* \"#utility.yul\":9998:10318   */\n      swap2\n      swap1\n      pop\n      jump\t// out\n\n    auxdata: 0xa2646970667358221220fc53d44a72dd72e8dd2362f1c7e5e070ea293490ae8a8fe8470adc569f15c2de64736f6c634300081e0033\n}\n",
				"bytecode": {
					"linkReferences": {},
					"object": "60806040526040518060400160405280600381526020017f312e3000000000000000000000000000000000000000000000000000000000008152506003908161004891906103a8565b50348015610054575f5ffd5b506040516115a03803806115a0833981810160405281019061007691906104d5565b805f5f6101000a81548173ffffffffffffffffffffffffffffffffffffffff021916908373ffffffffffffffffffffffffffffffffffffffff1602179055503360065f6101000a81548173ffffffffffffffffffffffffffffffffffffffff021916908373ffffffffffffffffffffffffffffffffffffffff16021790555060065f9054906101000a900473ffffffffffffffffffffffffffffffffffffffff1660045f6101000a81548173ffffffffffffffffffffffffffffffffffffffff021916908373ffffffffffffffffffffffffffffffffffffffff160217905550674563918244f4000060058190555050610500565b5f81519050919050565b7f4e487b71000000000000000000000000000000000000000000000000000000005f52604160045260245ffd5b7f4e487b71000000000000000000000000000000000000000000000000000000005f52602260045260245ffd5b5f60028204905060018216806101e657607f821691505b6020821081036101f9576101f86101a2565b5b50919050565b5f819050815f5260205f209050919050565b5f6020601f8301049050919050565b5f82821b905092915050565b5f6008830261025b7fffffffffffffffffffffffffffffffffffffffffffffffffffffffffffffffff82610220565b6102658683610220565b95508019841693508086168417925050509392505050565b5f819050919050565b5f819050919050565b5f6102a96102a461029f8461027d565b610286565b61027d565b9050919050565b5f819050919050565b6102c28361028f565b6102d66102ce826102b0565b84845461022c565b825550505050565b5f5f905090565b6102ed6102de565b6102f88184846102b9565b505050565b5b8181101561031b576103105f826102e5565b6001810190506102fe565b5050565b601f82111561036057610331816101ff565b61033a84610211565b81016020851015610349578190505b61035d61035585610211565b8301826102fd565b50505b505050565b5f82821c905092915050565b5f6103805f1984600802610365565b1980831691505092915050565b5f6103988383610371565b9150826002028217905092915050565b6103b18261016b565b67ffffffffffffffff8111156103ca576103c9610175565b5b6103d482546101cf565b6103df82828561031f565b5f60209050601f831160018114610410575f84156103fe578287015190505b610408858261038d565b86555061046f565b601f19841661041e866101ff565b5f5b8281101561044557848901518255600182019150602085019450602081019050610420565b86831015610462578489015161045e601f891682610371565b8355505b6001600288020188555050505b505050505050565b5f5ffd5b5f73ffffffffffffffffffffffffffffffffffffffff82169050919050565b5f6104a48261047b565b9050919050565b6104b48161049a565b81146104be575f5ffd5b50565b5f815190506104cf816104ab565b92915050565b5f602082840312156104ea576104e9610477565b5b5f6104f7848285016104c1565b91505092915050565b6110938061050d5f395ff3fe608060405234801561000f575f5ffd5b50600436106100cd575f3560e01c8063a2f7c8571161008a578063ce606ee011610064578063ce606ee014610235578063dd62ed3e14610253578063ed88c68e14610283578063fc0c546a146102a1576100cd565b8063a2f7c857146101cd578063a9059cbb146101e9578063ad0ef01814610219576100cd565b8063095ea7b3146100d157806323b872dd14610101578063260f5cf11461013157806327e235e31461014f578063677aa7ae1461017f57806370a082311461019d575b5f5ffd5b6100eb60048036038101906100e69190610b67565b6102bf565b6040516100f89190610bbf565b60405180910390f35b61011b60048036038101906101169190610bd8565b6103ac565b6040516101289190610bbf565b60405180910390f35b6101396106bb565b6040516101469190610c98565b60405180910390f35b61016960048036038101906101649190610cb8565b610747565b6040516101769190610cf2565b60405180910390f35b61018761075c565b6040516101949190610cf2565b60405180910390f35b6101b760048036038101906101b29190610cb8565b610762565b6040516101c49190610cf2565b60405180910390f35b6101e760048036038101906101e29190610cb8565b6107a8565b005b61020360048036038101906101fe9190610b67565b6107eb565b6040516102109190610bbf565b60405180910390f35b610233600480360381019061022e9190610d0b565b610a3e565b005b61023d610a48565b60405161024a9190610d45565b60405180910390f35b61026d60048036038101906102689190610d5e565b610a6d565b60405161027a9190610cf2565b60405180910390f35b61028b610a8d565b6040516102989190610d45565b60405180910390f35b6102a9610ab2565b6040516102b69190610df7565b60405180910390f35b5f8160025f3373ffffffffffffffffffffffffffffffffffffffff1673ffffffffffffffffffffffffffffffffffffffff1681526020019081526020015f205f8573ffffffffffffffffffffffffffffffffffffffff1673ffffffffffffffffffffffffffffffffffffffff1681526020019081526020015f20819055508273ffffffffffffffffffffffffffffffffffffffff163373ffffffffffffffffffffffffffffffffffffffff167f8c5be1e5ebec7d5bd14f71427d1e84f3dd0314c0f7b2291e5b200ac8c7c3b9258460405161039a9190610cf2565b60405180910390a36001905092915050565b5f816103b785610762565b10156103f8576040517f08c379a00000000000000000000000000000000000000000000000000000000081526004016103ef90610e80565b60405180910390fd5b8160025f8673ffffffffffffffffffffffffffffffffffffffff1673ffffffffffffffffffffffffffffffffffffffff1681526020019081526020015f205f3373ffffffffffffffffffffffffffffffffffffffff1673ffffffffffffffffffffffffffffffffffffffff1681526020019081526020015f205410156104b3576040517f08c379a00000000000000000000000000000000000000000000000000000000081526004016104aa90610f0e565b60405180910390fd5b81600a6005546104c39190610f59565b10156105a45760055460015f60045f9054906101000a900473ffffffffffffffffffffffffffffffffffffffff1673ffffffffffffffffffffffffffffffffffffffff1673ffffffffffffffffffffffffffffffffffffffff1681526020019081526020015f205f8282546105389190610f9a565b925050819055506005548261054d9190610fcd565b60015f8573ffffffffffffffffffffffffffffffffffffffff1673ffffffffffffffffffffffffffffffffffffffff1681526020019081526020015f205f8282546105989190610f9a565b925050819055506105f8565b8160015f8573ffffffffffffffffffffffffffffffffffffffff1673ffffffffffffffffffffffffffffffffffffffff1681526020019081526020015f205f8282546105f09190610f9a565b925050819055505b8160015f8673ffffffffffffffffffffffffffffffffffffffff1673ffffffffffffffffffffffffffffffffffffffff1681526020019081526020015f205f8282546106449190610fcd565b925050819055508273ffffffffffffffffffffffffffffffffffffffff168473ffffffffffffffffffffffffffffffffffffffff167fddf252ad1be2c89b69c2b068fc378daa952ba7f163c4a11628f55a4df523b3ef846040516106a89190610cf2565b60405180910390a3600190509392505050565b600380546106c89061102d565b80601f01602080910402602001604051908101604052809291908181526020018280546106f49061102d565b801561073f5780601f106107165761010080835404028352916020019161073f565b820191905f5260205f20905b81548152906001019060200180831161072257829003601f168201915b505050505081565b6001602052805f5260405f205f915090505481565b60055481565b5f60015f8373ffffffffffffffffffffffffffffffffffffffff1673ffffffffffffffffffffffffffffffffffffffff1681526020019081526020015f20549050919050565b8060045f6101000a81548173ffffffffffffffffffffffffffffffffffffffff021916908373ffffffffffffffffffffffffffffffffffffffff16021790555050565b5f816107f633610762565b1015610837576040517f08c379a000000000000000000000000000000000000000000000000000000000815260040161082e90610e80565b60405180910390fd5b81600a6005546108479190610f59565b10156109285760055460015f60045f9054906101000a900473ffffffffffffffffffffffffffffffffffffffff1673ffffffffffffffffffffffffffffffffffffffff1673ffffffffffffffffffffffffffffffffffffffff1681526020019081526020015f205f8282546108bc9190610f9a565b92505081905550600554826108d19190610fcd565b60015f8573ffffffffffffffffffffffffffffffffffffffff1673ffffffffffffffffffffffffffffffffffffffff1681526020019081526020015f205f82825461091c9190610f9a565b9250508190555061097c565b8160015f8573ffffffffffffffffffffffffffffffffffffffff1673ffffffffffffffffffffffffffffffffffffffff1681526020019081526020015f205f8282546109749190610f9a565b925050819055505b8160015f3373ffffffffffffffffffffffffffffffffffffffff1673ffffffffffffffffffffffffffffffffffffffff1681526020019081526020015f205f8282546109c89190610fcd565b925050819055508273ffffffffffffffffffffffffffffffffffffffff163373ffffffffffffffffffffffffffffffffffffffff167fddf252ad1be2c89b69c2b068fc378daa952ba7f163c4a11628f55a4df523b3ef84604051610a2c9190610cf2565b60405180910390a36001905092915050565b8060058190555050565b60065f9054906101000a900473ffffffffffffffffffffffffffffffffffffffff1681565b6002602052815f5260405f20602052805f5260405f205f91509150505481565b60045f9054906101000a900473ffffffffffffffffffffffffffffffffffffffff1681565b5f5f9054906101000a900473ffffffffffffffffffffffffffffffffffffffff1681565b5f5ffd5b5f73ffffffffffffffffffffffffffffffffffffffff82169050919050565b5f610b0382610ada565b9050919050565b610b1381610af9565b8114610b1d575f5ffd5b50565b5f81359050610b2e81610b0a565b92915050565b5f819050919050565b610b4681610b34565b8114610b50575f5ffd5b50565b5f81359050610b6181610b3d565b92915050565b5f5f60408385031215610b7d57610b7c610ad6565b5b5f610b8a85828601610b20565b9250506020610b9b85828601610b53565b9150509250929050565b5f8115159050919050565b610bb981610ba5565b82525050565b5f602082019050610bd25f830184610bb0565b92915050565b5f5f5f60608486031215610bef57610bee610ad6565b5b5f610bfc86828701610b20565b9350506020610c0d86828701610b20565b9250506040610c1e86828701610b53565b9150509250925092565b5f81519050919050565b5f82825260208201905092915050565b8281835e5f83830152505050565b5f601f19601f8301169050919050565b5f610c6a82610c28565b610c748185610c32565b9350610c84818560208601610c42565b610c8d81610c50565b840191505092915050565b5f6020820190508181035f830152610cb08184610c60565b905092915050565b5f60208284031215610ccd57610ccc610ad6565b5b5f610cda84828501610b20565b91505092915050565b610cec81610b34565b82525050565b5f602082019050610d055f830184610ce3565b92915050565b5f60208284031215610d2057610d1f610ad6565b5b5f610d2d84828501610b53565b91505092915050565b610d3f81610af9565b82525050565b5f602082019050610d585f830184610d36565b92915050565b5f5f60408385031215610d7457610d73610ad6565b5b5f610d8185828601610b20565b9250506020610d9285828601610b20565b9150509250929050565b5f819050919050565b5f610dbf610dba610db584610ada565b610d9c565b610ada565b9050919050565b5f610dd082610da5565b9050919050565b5f610de182610dc6565b9050919050565b610df181610dd7565b82525050565b5f602082019050610e0a5f830184610de8565b92915050565b7f53616c646f20696e737566696369656e74652070617261206f7065726163616f5f8201527f2820496e73756666696369656e742066756e6473202900000000000000000000602082015250565b5f610e6a603683610c32565b9150610e7582610e10565b604082019050919050565b5f6020820190508181035f830152610e9781610e5e565b9050919050565b7f53656d207065726d697373616f2070617261207472616e736163616f2028616c5f8201527f6c6f77616e636520746f6f206c6f772900000000000000000000000000000000602082015250565b5f610ef8603083610c32565b9150610f0382610e9e565b604082019050919050565b5f6020820190508181035f830152610f2581610eec565b9050919050565b7f4e487b71000000000000000000000000000000000000000000000000000000005f52601160045260245ffd5b5f610f6382610b34565b9150610f6e83610b34565b9250828202610f7c81610b34565b91508282048414831517610f9357610f92610f2c565b5b5092915050565b5f610fa482610b34565b9150610faf83610b34565b9250828201905080821115610fc757610fc6610f2c565b5b92915050565b5f610fd782610b34565b9150610fe283610b34565b9250828203905081811115610ffa57610ff9610f2c565b5b92915050565b7f4e487b71000000000000000000000000000000000000000000000000000000005f52602260045260245ffd5b5f600282049050600182168061104457607f821691505b60208210810361105757611056611000565b5b5091905056fea2646970667358221220fc53d44a72dd72e8dd2362f1c7e5e070ea293490ae8a8fe8470adc569f15c2de64736f6c634300081e0033",
					"opcodes": "PUSH1 0x80 PUSH1 0x40 MSTORE PUSH1 0x40 MLOAD DUP1 PUSH1 0x40 ADD PUSH1 0x40 MSTORE DUP1 PUSH1 0x3 DUP2 MSTORE PUSH1 0x20 ADD PUSH32 0x312E300000000000000000000000000000000000000000000000000000000000 DUP2 MSTORE POP PUSH1 0x3 SWAP1 DUP2 PUSH2 0x48 SWAP2 SWAP1 PUSH2 0x3A8 JUMP JUMPDEST POP CALLVALUE DUP1 ISZERO PUSH2 0x54 JUMPI PUSH0 PUSH0 REVERT JUMPDEST POP PUSH1 0x40 MLOAD PUSH2 0x15A0 CODESIZE SUB DUP1 PUSH2 0x15A0 DUP4 CODECOPY DUP2 DUP2 ADD PUSH1 0x40 MSTORE DUP2 ADD SWAP1 PUSH2 0x76 SWAP2 SWAP1 PUSH2 0x4D5 JUMP JUMPDEST DUP1 PUSH0 PUSH0 PUSH2 0x100 EXP DUP2 SLOAD DUP2 PUSH20 0xFFFFFFFFFFFFFFFFFFFFFFFFFFFFFFFFFFFFFFFF MUL NOT AND SWAP1 DUP4 PUSH20 0xFFFFFFFFFFFFFFFFFFFFFFFFFFFFFFFFFFFFFFFF AND MUL OR SWAP1 SSTORE POP CALLER PUSH1 0x6 PUSH0 PUSH2 0x100 EXP DUP2 SLOAD DUP2 PUSH20 0xFFFFFFFFFFFFFFFFFFFFFFFFFFFFFFFFFFFFFFFF MUL NOT AND SWAP1 DUP4 PUSH20 0xFFFFFFFFFFFFFFFFFFFFFFFFFFFFFFFFFFFFFFFF AND MUL OR SWAP1 SSTORE POP PUSH1 0x6 PUSH0 SWAP1 SLOAD SWAP1 PUSH2 0x100 EXP SWAP1 DIV PUSH20 0xFFFFFFFFFFFFFFFFFFFFFFFFFFFFFFFFFFFFFFFF AND PUSH1 0x4 PUSH0 PUSH2 0x100 EXP DUP2 SLOAD DUP2 PUSH20 0xFFFFFFFFFFFFFFFFFFFFFFFFFFFFFFFFFFFFFFFF MUL NOT AND SWAP1 DUP4 PUSH20 0xFFFFFFFFFFFFFFFFFFFFFFFFFFFFFFFFFFFFFFFF AND MUL OR SWAP1 SSTORE POP PUSH8 0x4563918244F40000 PUSH1 0x5 DUP2 SWAP1 SSTORE POP POP PUSH2 0x500 JUMP JUMPDEST PUSH0 DUP2 MLOAD SWAP1 POP SWAP2 SWAP1 POP JUMP JUMPDEST PUSH32 0x4E487B7100000000000000000000000000000000000000000000000000000000 PUSH0 MSTORE PUSH1 0x41 PUSH1 0x4 MSTORE PUSH1 0x24 PUSH0 REVERT JUMPDEST PUSH32 0x4E487B7100000000000000000000000000000000000000000000000000000000 PUSH0 MSTORE PUSH1 0x22 PUSH1 0x4 MSTORE PUSH1 0x24 PUSH0 REVERT JUMPDEST PUSH0 PUSH1 0x2 DUP3 DIV SWAP1 POP PUSH1 0x1 DUP3 AND DUP1 PUSH2 0x1E6 JUMPI PUSH1 0x7F DUP3 AND SWAP2 POP JUMPDEST PUSH1 0x20 DUP3 LT DUP2 SUB PUSH2 0x1F9 JUMPI PUSH2 0x1F8 PUSH2 0x1A2 JUMP JUMPDEST JUMPDEST POP SWAP2 SWAP1 POP JUMP JUMPDEST PUSH0 DUP2 SWAP1 POP DUP2 PUSH0 MSTORE PUSH1 0x20 PUSH0 KECCAK256 SWAP1 POP SWAP2 SWAP1 POP JUMP JUMPDEST PUSH0 PUSH1 0x20 PUSH1 0x1F DUP4 ADD DIV SWAP1 POP SWAP2 SWAP1 POP JUMP JUMPDEST PUSH0 DUP3 DUP3 SHL SWAP1 POP SWAP3 SWAP2 POP POP JUMP JUMPDEST PUSH0 PUSH1 0x8 DUP4 MUL PUSH2 0x25B PUSH32 0xFFFFFFFFFFFFFFFFFFFFFFFFFFFFFFFFFFFFFFFFFFFFFFFFFFFFFFFFFFFFFFFF DUP3 PUSH2 0x220 JUMP JUMPDEST PUSH2 0x265 DUP7 DUP4 PUSH2 0x220 JUMP JUMPDEST SWAP6 POP DUP1 NOT DUP5 AND SWAP4 POP DUP1 DUP7 AND DUP5 OR SWAP3 POP POP POP SWAP4 SWAP3 POP POP POP JUMP JUMPDEST PUSH0 DUP2 SWAP1 POP SWAP2 SWAP1 POP JUMP JUMPDEST PUSH0 DUP2 SWAP1 POP SWAP2 SWAP1 POP JUMP JUMPDEST PUSH0 PUSH2 0x2A9 PUSH2 0x2A4 PUSH2 0x29F DUP5 PUSH2 0x27D JUMP JUMPDEST PUSH2 0x286 JUMP JUMPDEST PUSH2 0x27D JUMP JUMPDEST SWAP1 POP SWAP2 SWAP1 POP JUMP JUMPDEST PUSH0 DUP2 SWAP1 POP SWAP2 SWAP1 POP JUMP JUMPDEST PUSH2 0x2C2 DUP4 PUSH2 0x28F JUMP JUMPDEST PUSH2 0x2D6 PUSH2 0x2CE DUP3 PUSH2 0x2B0 JUMP JUMPDEST DUP5 DUP5 SLOAD PUSH2 0x22C JUMP JUMPDEST DUP3 SSTORE POP POP POP POP JUMP JUMPDEST PUSH0 PUSH0 SWAP1 POP SWAP1 JUMP JUMPDEST PUSH2 0x2ED PUSH2 0x2DE JUMP JUMPDEST PUSH2 0x2F8 DUP2 DUP5 DUP5 PUSH2 0x2B9 JUMP JUMPDEST POP POP POP JUMP JUMPDEST JUMPDEST DUP2 DUP2 LT ISZERO PUSH2 0x31B JUMPI PUSH2 0x310 PUSH0 DUP3 PUSH2 0x2E5 JUMP JUMPDEST PUSH1 0x1 DUP2 ADD SWAP1 POP PUSH2 0x2FE JUMP JUMPDEST POP POP JUMP JUMPDEST PUSH1 0x1F DUP3 GT ISZERO PUSH2 0x360 JUMPI PUSH2 0x331 DUP2 PUSH2 0x1FF JUMP JUMPDEST PUSH2 0x33A DUP5 PUSH2 0x211 JUMP JUMPDEST DUP2 ADD PUSH1 0x20 DUP6 LT ISZERO PUSH2 0x349 JUMPI DUP2 SWAP1 POP JUMPDEST PUSH2 0x35D PUSH2 0x355 DUP6 PUSH2 0x211 JUMP JUMPDEST DUP4 ADD DUP3 PUSH2 0x2FD JUMP JUMPDEST POP POP JUMPDEST POP POP POP JUMP JUMPDEST PUSH0 DUP3 DUP3 SHR SWAP1 POP SWAP3 SWAP2 POP POP JUMP JUMPDEST PUSH0 PUSH2 0x380 PUSH0 NOT DUP5 PUSH1 0x8 MUL PUSH2 0x365 JUMP JUMPDEST NOT DUP1 DUP4 AND SWAP2 POP POP SWAP3 SWAP2 POP POP JUMP JUMPDEST PUSH0 PUSH2 0x398 DUP4 DUP4 PUSH2 0x371 JUMP JUMPDEST SWAP2 POP DUP3 PUSH1 0x2 MUL DUP3 OR SWAP1 POP SWAP3 SWAP2 POP POP JUMP JUMPDEST PUSH2 0x3B1 DUP3 PUSH2 0x16B JUMP JUMPDEST PUSH8 0xFFFFFFFFFFFFFFFF DUP2 GT ISZERO PUSH2 0x3CA JUMPI PUSH2 0x3C9 PUSH2 0x175 JUMP JUMPDEST JUMPDEST PUSH2 0x3D4 DUP3 SLOAD PUSH2 0x1CF JUMP JUMPDEST PUSH2 0x3DF DUP3 DUP3 DUP6 PUSH2 0x31F JUMP JUMPDEST PUSH0 PUSH1 0x20 SWAP1 POP PUSH1 0x1F DUP4 GT PUSH1 0x1 DUP2 EQ PUSH2 0x410 JUMPI PUSH0 DUP5 ISZERO PUSH2 0x3FE JUMPI DUP3 DUP8 ADD MLOAD SWAP1 POP JUMPDEST PUSH2 0x408 DUP6 DUP3 PUSH2 0x38D JUMP JUMPDEST DUP7 SSTORE POP PUSH2 0x46F JUMP JUMPDEST PUSH1 0x1F NOT DUP5 AND PUSH2 0x41E DUP7 PUSH2 0x1FF JUMP JUMPDEST PUSH0 JUMPDEST DUP3 DUP2 LT ISZERO PUSH2 0x445 JUMPI DUP5 DUP10 ADD MLOAD DUP3 SSTORE PUSH1 0x1 DUP3 ADD SWAP2 POP PUSH1 0x20 DUP6 ADD SWAP5 POP PUSH1 0x20 DUP2 ADD SWAP1 POP PUSH2 0x420 JUMP JUMPDEST DUP7 DUP4 LT ISZERO PUSH2 0x462 JUMPI DUP5 DUP10 ADD MLOAD PUSH2 0x45E PUSH1 0x1F DUP10 AND DUP3 PUSH2 0x371 JUMP JUMPDEST DUP4 SSTORE POP JUMPDEST PUSH1 0x1 PUSH1 0x2 DUP9 MUL ADD DUP9 SSTORE POP POP POP JUMPDEST POP POP POP POP POP POP JUMP JUMPDEST PUSH0 PUSH0 REVERT JUMPDEST PUSH0 PUSH20 0xFFFFFFFFFFFFFFFFFFFFFFFFFFFFFFFFFFFFFFFF DUP3 AND SWAP1 POP SWAP2 SWAP1 POP JUMP JUMPDEST PUSH0 PUSH2 0x4A4 DUP3 PUSH2 0x47B JUMP JUMPDEST SWAP1 POP SWAP2 SWAP1 POP JUMP JUMPDEST PUSH2 0x4B4 DUP2 PUSH2 0x49A JUMP JUMPDEST DUP2 EQ PUSH2 0x4BE JUMPI PUSH0 PUSH0 REVERT JUMPDEST POP JUMP JUMPDEST PUSH0 DUP2 MLOAD SWAP1 POP PUSH2 0x4CF DUP2 PUSH2 0x4AB JUMP JUMPDEST SWAP3 SWAP2 POP POP JUMP JUMPDEST PUSH0 PUSH1 0x20 DUP3 DUP5 SUB SLT ISZERO PUSH2 0x4EA JUMPI PUSH2 0x4E9 PUSH2 0x477 JUMP JUMPDEST JUMPDEST PUSH0 PUSH2 0x4F7 DUP5 DUP3 DUP6 ADD PUSH2 0x4C1 JUMP JUMPDEST SWAP2 POP POP SWAP3 SWAP2 POP POP JUMP JUMPDEST PUSH2 0x1093 DUP1 PUSH2 0x50D PUSH0 CODECOPY PUSH0 RETURN INVALID PUSH1 0x80 PUSH1 0x40 MSTORE CALLVALUE DUP1 ISZERO PUSH2 0xF JUMPI PUSH0 PUSH0 REVERT JUMPDEST POP PUSH1 0x4 CALLDATASIZE LT PUSH2 0xCD JUMPI PUSH0 CALLDATALOAD PUSH1 0xE0 SHR DUP1 PUSH4 0xA2F7C857 GT PUSH2 0x8A JUMPI DUP1 PUSH4 0xCE606EE0 GT PUSH2 0x64 JUMPI DUP1 PUSH4 0xCE606EE0 EQ PUSH2 0x235 JUMPI DUP1 PUSH4 0xDD62ED3E EQ PUSH2 0x253 JUMPI DUP1 PUSH4 0xED88C68E EQ PUSH2 0x283 JUMPI DUP1 PUSH4 0xFC0C546A EQ PUSH2 0x2A1 JUMPI PUSH2 0xCD JUMP JUMPDEST DUP1 PUSH4 0xA2F7C857 EQ PUSH2 0x1CD JUMPI DUP1 PUSH4 0xA9059CBB EQ PUSH2 0x1E9 JUMPI DUP1 PUSH4 0xAD0EF018 EQ PUSH2 0x219 JUMPI PUSH2 0xCD JUMP JUMPDEST DUP1 PUSH4 0x95EA7B3 EQ PUSH2 0xD1 JUMPI DUP1 PUSH4 0x23B872DD EQ PUSH2 0x101 JUMPI DUP1 PUSH4 0x260F5CF1 EQ PUSH2 0x131 JUMPI DUP1 PUSH4 0x27E235E3 EQ PUSH2 0x14F JUMPI DUP1 PUSH4 0x677AA7AE EQ PUSH2 0x17F JUMPI DUP1 PUSH4 0x70A08231 EQ PUSH2 0x19D JUMPI JUMPDEST PUSH0 PUSH0 REVERT JUMPDEST PUSH2 0xEB PUSH1 0x4 DUP1 CALLDATASIZE SUB DUP2 ADD SWAP1 PUSH2 0xE6 SWAP2 SWAP1 PUSH2 0xB67 JUMP JUMPDEST PUSH2 0x2BF JUMP JUMPDEST PUSH1 0x40 MLOAD PUSH2 0xF8 SWAP2 SWAP1 PUSH2 0xBBF JUMP JUMPDEST PUSH1 0x40 MLOAD DUP1 SWAP2 SUB SWAP1 RETURN JUMPDEST PUSH2 0x11B PUSH1 0x4 DUP1 CALLDATASIZE SUB DUP2 ADD SWAP1 PUSH2 0x116 SWAP2 SWAP1 PUSH2 0xBD8 JUMP JUMPDEST PUSH2 0x3AC JUMP JUMPDEST PUSH1 0x40 MLOAD PUSH2 0x128 SWAP2 SWAP1 PUSH2 0xBBF JUMP JUMPDEST PUSH1 0x40 MLOAD DUP1 SWAP2 SUB SWAP1 RETURN JUMPDEST PUSH2 0x139 PUSH2 0x6BB JUMP JUMPDEST PUSH1 0x40 MLOAD PUSH2 0x146 SWAP2 SWAP1 PUSH2 0xC98 JUMP JUMPDEST PUSH1 0x40 MLOAD DUP1 SWAP2 SUB SWAP1 RETURN JUMPDEST PUSH2 0x169 PUSH1 0x4 DUP1 CALLDATASIZE SUB DUP2 ADD SWAP1 PUSH2 0x164 SWAP2 SWAP1 PUSH2 0xCB8 JUMP JUMPDEST PUSH2 0x747 JUMP JUMPDEST PUSH1 0x40 MLOAD PUSH2 0x176 SWAP2 SWAP1 PUSH2 0xCF2 JUMP JUMPDEST PUSH1 0x40 MLOAD DUP1 SWAP2 SUB SWAP1 RETURN JUMPDEST PUSH2 0x187 PUSH2 0x75C JUMP JUMPDEST PUSH1 0x40 MLOAD PUSH2 0x194 SWAP2 SWAP1 PUSH2 0xCF2 JUMP JUMPDEST PUSH1 0x40 MLOAD DUP1 SWAP2 SUB SWAP1 RETURN JUMPDEST PUSH2 0x1B7 PUSH1 0x4 DUP1 CALLDATASIZE SUB DUP2 ADD SWAP1 PUSH2 0x1B2 SWAP2 SWAP1 PUSH2 0xCB8 JUMP JUMPDEST PUSH2 0x762 JUMP JUMPDEST PUSH1 0x40 MLOAD PUSH2 0x1C4 SWAP2 SWAP1 PUSH2 0xCF2 JUMP JUMPDEST PUSH1 0x40 MLOAD DUP1 SWAP2 SUB SWAP1 RETURN JUMPDEST PUSH2 0x1E7 PUSH1 0x4 DUP1 CALLDATASIZE SUB DUP2 ADD SWAP1 PUSH2 0x1E2 SWAP2 SWAP1 PUSH2 0xCB8 JUMP JUMPDEST PUSH2 0x7A8 JUMP JUMPDEST STOP JUMPDEST PUSH2 0x203 PUSH1 0x4 DUP1 CALLDATASIZE SUB DUP2 ADD SWAP1 PUSH2 0x1FE SWAP2 SWAP1 PUSH2 0xB67 JUMP JUMPDEST PUSH2 0x7EB JUMP JUMPDEST PUSH1 0x40 MLOAD PUSH2 0x210 SWAP2 SWAP1 PUSH2 0xBBF JUMP JUMPDEST PUSH1 0x40 MLOAD DUP1 SWAP2 SUB SWAP1 RETURN JUMPDEST PUSH2 0x233 PUSH1 0x4 DUP1 CALLDATASIZE SUB DUP2 ADD SWAP1 PUSH2 0x22E SWAP2 SWAP1 PUSH2 0xD0B JUMP JUMPDEST PUSH2 0xA3E JUMP JUMPDEST STOP JUMPDEST PUSH2 0x23D PUSH2 0xA48 JUMP JUMPDEST PUSH1 0x40 MLOAD PUSH2 0x24A SWAP2 SWAP1 PUSH2 0xD45 JUMP JUMPDEST PUSH1 0x40 MLOAD DUP1 SWAP2 SUB SWAP1 RETURN JUMPDEST PUSH2 0x26D PUSH1 0x4 DUP1 CALLDATASIZE SUB DUP2 ADD SWAP1 PUSH2 0x268 SWAP2 SWAP1 PUSH2 0xD5E JUMP JUMPDEST PUSH2 0xA6D JUMP JUMPDEST PUSH1 0x40 MLOAD PUSH2 0x27A SWAP2 SWAP1 PUSH2 0xCF2 JUMP JUMPDEST PUSH1 0x40 MLOAD DUP1 SWAP2 SUB SWAP1 RETURN JUMPDEST PUSH2 0x28B PUSH2 0xA8D JUMP JUMPDEST PUSH1 0x40 MLOAD PUSH2 0x298 SWAP2 SWAP1 PUSH2 0xD45 JUMP JUMPDEST PUSH1 0x40 MLOAD DUP1 SWAP2 SUB SWAP1 RETURN JUMPDEST PUSH2 0x2A9 PUSH2 0xAB2 JUMP JUMPDEST PUSH1 0x40 MLOAD PUSH2 0x2B6 SWAP2 SWAP1 PUSH2 0xDF7 JUMP JUMPDEST PUSH1 0x40 MLOAD DUP1 SWAP2 SUB SWAP1 RETURN JUMPDEST PUSH0 DUP2 PUSH1 0x2 PUSH0 CALLER PUSH20 0xFFFFFFFFFFFFFFFFFFFFFFFFFFFFFFFFFFFFFFFF AND PUSH20 0xFFFFFFFFFFFFFFFFFFFFFFFFFFFFFFFFFFFFFFFF AND DUP2 MSTORE PUSH1 0x20 ADD SWAP1 DUP2 MSTORE PUSH1 0x20 ADD PUSH0 KECCAK256 PUSH0 DUP6 PUSH20 0xFFFFFFFFFFFFFFFFFFFFFFFFFFFFFFFFFFFFFFFF AND PUSH20 0xFFFFFFFFFFFFFFFFFFFFFFFFFFFFFFFFFFFFFFFF AND DUP2 MSTORE PUSH1 0x20 ADD SWAP1 DUP2 MSTORE PUSH1 0x20 ADD PUSH0 KECCAK256 DUP2 SWAP1 SSTORE POP DUP3 PUSH20 0xFFFFFFFFFFFFFFFFFFFFFFFFFFFFFFFFFFFFFFFF AND CALLER PUSH20 0xFFFFFFFFFFFFFFFFFFFFFFFFFFFFFFFFFFFFFFFF AND PUSH32 0x8C5BE1E5EBEC7D5BD14F71427D1E84F3DD0314C0F7B2291E5B200AC8C7C3B925 DUP5 PUSH1 0x40 MLOAD PUSH2 0x39A SWAP2 SWAP1 PUSH2 0xCF2 JUMP JUMPDEST PUSH1 0x40 MLOAD DUP1 SWAP2 SUB SWAP1 LOG3 PUSH1 0x1 SWAP1 POP SWAP3 SWAP2 POP POP JUMP JUMPDEST PUSH0 DUP2 PUSH2 0x3B7 DUP6 PUSH2 0x762 JUMP JUMPDEST LT ISZERO PUSH2 0x3F8 JUMPI PUSH1 0x40 MLOAD PUSH32 0x8C379A000000000000000000000000000000000000000000000000000000000 DUP2 MSTORE PUSH1 0x4 ADD PUSH2 0x3EF SWAP1 PUSH2 0xE80 JUMP JUMPDEST PUSH1 0x40 MLOAD DUP1 SWAP2 SUB SWAP1 REVERT JUMPDEST DUP2 PUSH1 0x2 PUSH0 DUP7 PUSH20 0xFFFFFFFFFFFFFFFFFFFFFFFFFFFFFFFFFFFFFFFF AND PUSH20 0xFFFFFFFFFFFFFFFFFFFFFFFFFFFFFFFFFFFFFFFF AND DUP2 MSTORE PUSH1 0x20 ADD SWAP1 DUP2 MSTORE PUSH1 0x20 ADD PUSH0 KECCAK256 PUSH0 CALLER PUSH20 0xFFFFFFFFFFFFFFFFFFFFFFFFFFFFFFFFFFFFFFFF AND PUSH20 0xFFFFFFFFFFFFFFFFFFFFFFFFFFFFFFFFFFFFFFFF AND DUP2 MSTORE PUSH1 0x20 ADD SWAP1 DUP2 MSTORE PUSH1 0x20 ADD PUSH0 KECCAK256 SLOAD LT ISZERO PUSH2 0x4B3 JUMPI PUSH1 0x40 MLOAD PUSH32 0x8C379A000000000000000000000000000000000000000000000000000000000 DUP2 MSTORE PUSH1 0x4 ADD PUSH2 0x4AA SWAP1 PUSH2 0xF0E JUMP JUMPDEST PUSH1 0x40 MLOAD DUP1 SWAP2 SUB SWAP1 REVERT JUMPDEST DUP2 PUSH1 0xA PUSH1 0x5 SLOAD PUSH2 0x4C3 SWAP2 SWAP1 PUSH2 0xF59 JUMP JUMPDEST LT ISZERO PUSH2 0x5A4 JUMPI PUSH1 0x5 SLOAD PUSH1 0x1 PUSH0 PUSH1 0x4 PUSH0 SWAP1 SLOAD SWAP1 PUSH2 0x100 EXP SWAP1 DIV PUSH20 0xFFFFFFFFFFFFFFFFFFFFFFFFFFFFFFFFFFFFFFFF AND PUSH20 0xFFFFFFFFFFFFFFFFFFFFFFFFFFFFFFFFFFFFFFFF AND PUSH20 0xFFFFFFFFFFFFFFFFFFFFFFFFFFFFFFFFFFFFFFFF AND DUP2 MSTORE PUSH1 0x20 ADD SWAP1 DUP2 MSTORE PUSH1 0x20 ADD PUSH0 KECCAK256 PUSH0 DUP3 DUP3 SLOAD PUSH2 0x538 SWAP2 SWAP1 PUSH2 0xF9A JUMP JUMPDEST SWAP3 POP POP DUP2 SWAP1 SSTORE POP PUSH1 0x5 SLOAD DUP3 PUSH2 0x54D SWAP2 SWAP1 PUSH2 0xFCD JUMP JUMPDEST PUSH1 0x1 PUSH0 DUP6 PUSH20 0xFFFFFFFFFFFFFFFFFFFFFFFFFFFFFFFFFFFFFFFF AND PUSH20 0xFFFFFFFFFFFFFFFFFFFFFFFFFFFFFFFFFFFFFFFF AND DUP2 MSTORE PUSH1 0x20 ADD SWAP1 DUP2 MSTORE PUSH1 0x20 ADD PUSH0 KECCAK256 PUSH0 DUP3 DUP3 SLOAD PUSH2 0x598 SWAP2 SWAP1 PUSH2 0xF9A JUMP JUMPDEST SWAP3 POP POP DUP2 SWAP1 SSTORE POP PUSH2 0x5F8 JUMP JUMPDEST DUP2 PUSH1 0x1 PUSH0 DUP6 PUSH20 0xFFFFFFFFFFFFFFFFFFFFFFFFFFFFFFFFFFFFFFFF AND PUSH20 0xFFFFFFFFFFFFFFFFFFFFFFFFFFFFFFFFFFFFFFFF AND DUP2 MSTORE PUSH1 0x20 ADD SWAP1 DUP2 MSTORE PUSH1 0x20 ADD PUSH0 KECCAK256 PUSH0 DUP3 DUP3 SLOAD PUSH2 0x5F0 SWAP2 SWAP1 PUSH2 0xF9A JUMP JUMPDEST SWAP3 POP POP DUP2 SWAP1 SSTORE POP JUMPDEST DUP2 PUSH1 0x1 PUSH0 DUP7 PUSH20 0xFFFFFFFFFFFFFFFFFFFFFFFFFFFFFFFFFFFFFFFF AND PUSH20 0xFFFFFFFFFFFFFFFFFFFFFFFFFFFFFFFFFFFFFFFF AND DUP2 MSTORE PUSH1 0x20 ADD SWAP1 DUP2 MSTORE PUSH1 0x20 ADD PUSH0 KECCAK256 PUSH0 DUP3 DUP3 SLOAD PUSH2 0x644 SWAP2 SWAP1 PUSH2 0xFCD JUMP JUMPDEST SWAP3 POP POP DUP2 SWAP1 SSTORE POP DUP3 PUSH20 0xFFFFFFFFFFFFFFFFFFFFFFFFFFFFFFFFFFFFFFFF AND DUP5 PUSH20 0xFFFFFFFFFFFFFFFFFFFFFFFFFFFFFFFFFFFFFFFF AND PUSH32 0xDDF252AD1BE2C89B69C2B068FC378DAA952BA7F163C4A11628F55A4DF523B3EF DUP5 PUSH1 0x40 MLOAD PUSH2 0x6A8 SWAP2 SWAP1 PUSH2 0xCF2 JUMP JUMPDEST PUSH1 0x40 MLOAD DUP1 SWAP2 SUB SWAP1 LOG3 PUSH1 0x1 SWAP1 POP SWAP4 SWAP3 POP POP POP JUMP JUMPDEST PUSH1 0x3 DUP1 SLOAD PUSH2 0x6C8 SWAP1 PUSH2 0x102D JUMP JUMPDEST DUP1 PUSH1 0x1F ADD PUSH1 0x20 DUP1 SWAP2 DIV MUL PUSH1 0x20 ADD PUSH1 0x40 MLOAD SWAP1 DUP2 ADD PUSH1 0x40 MSTORE DUP1 SWAP3 SWAP2 SWAP1 DUP2 DUP2 MSTORE PUSH1 0x20 ADD DUP3 DUP1 SLOAD PUSH2 0x6F4 SWAP1 PUSH2 0x102D JUMP JUMPDEST DUP1 ISZERO PUSH2 0x73F JUMPI DUP1 PUSH1 0x1F LT PUSH2 0x716 JUMPI PUSH2 0x100 DUP1 DUP4 SLOAD DIV MUL DUP4 MSTORE SWAP2 PUSH1 0x20 ADD SWAP2 PUSH2 0x73F JUMP JUMPDEST DUP3 ADD SWAP2 SWAP1 PUSH0 MSTORE PUSH1 0x20 PUSH0 KECCAK256 SWAP1 JUMPDEST DUP2 SLOAD DUP2 MSTORE SWAP1 PUSH1 0x1 ADD SWAP1 PUSH1 0x20 ADD DUP1 DUP4 GT PUSH2 0x722 JUMPI DUP3 SWAP1 SUB PUSH1 0x1F AND DUP3 ADD SWAP2 JUMPDEST POP POP POP POP POP DUP2 JUMP JUMPDEST PUSH1 0x1 PUSH1 0x20 MSTORE DUP1 PUSH0 MSTORE PUSH1 0x40 PUSH0 KECCAK256 PUSH0 SWAP2 POP SWAP1 POP SLOAD DUP2 JUMP JUMPDEST PUSH1 0x5 SLOAD DUP2 JUMP JUMPDEST PUSH0 PUSH1 0x1 PUSH0 DUP4 PUSH20 0xFFFFFFFFFFFFFFFFFFFFFFFFFFFFFFFFFFFFFFFF AND PUSH20 0xFFFFFFFFFFFFFFFFFFFFFFFFFFFFFFFFFFFFFFFF AND DUP2 MSTORE PUSH1 0x20 ADD SWAP1 DUP2 MSTORE PUSH1 0x20 ADD PUSH0 KECCAK256 SLOAD SWAP1 POP SWAP2 SWAP1 POP JUMP JUMPDEST DUP1 PUSH1 0x4 PUSH0 PUSH2 0x100 EXP DUP2 SLOAD DUP2 PUSH20 0xFFFFFFFFFFFFFFFFFFFFFFFFFFFFFFFFFFFFFFFF MUL NOT AND SWAP1 DUP4 PUSH20 0xFFFFFFFFFFFFFFFFFFFFFFFFFFFFFFFFFFFFFFFF AND MUL OR SWAP1 SSTORE POP POP JUMP JUMPDEST PUSH0 DUP2 PUSH2 0x7F6 CALLER PUSH2 0x762 JUMP JUMPDEST LT ISZERO PUSH2 0x837 JUMPI PUSH1 0x40 MLOAD PUSH32 0x8C379A000000000000000000000000000000000000000000000000000000000 DUP2 MSTORE PUSH1 0x4 ADD PUSH2 0x82E SWAP1 PUSH2 0xE80 JUMP JUMPDEST PUSH1 0x40 MLOAD DUP1 SWAP2 SUB SWAP1 REVERT JUMPDEST DUP2 PUSH1 0xA PUSH1 0x5 SLOAD PUSH2 0x847 SWAP2 SWAP1 PUSH2 0xF59 JUMP JUMPDEST LT ISZERO PUSH2 0x928 JUMPI PUSH1 0x5 SLOAD PUSH1 0x1 PUSH0 PUSH1 0x4 PUSH0 SWAP1 SLOAD SWAP1 PUSH2 0x100 EXP SWAP1 DIV PUSH20 0xFFFFFFFFFFFFFFFFFFFFFFFFFFFFFFFFFFFFFFFF AND PUSH20 0xFFFFFFFFFFFFFFFFFFFFFFFFFFFFFFFFFFFFFFFF AND PUSH20 0xFFFFFFFFFFFFFFFFFFFFFFFFFFFFFFFFFFFFFFFF AND DUP2 MSTORE PUSH1 0x20 ADD SWAP1 DUP2 MSTORE PUSH1 0x20 ADD PUSH0 KECCAK256 PUSH0 DUP3 DUP3 SLOAD PUSH2 0x8BC SWAP2 SWAP1 PUSH2 0xF9A JUMP JUMPDEST SWAP3 POP POP DUP2 SWAP1 SSTORE POP PUSH1 0x5 SLOAD DUP3 PUSH2 0x8D1 SWAP2 SWAP1 PUSH2 0xFCD JUMP JUMPDEST PUSH1 0x1 PUSH0 DUP6 PUSH20 0xFFFFFFFFFFFFFFFFFFFFFFFFFFFFFFFFFFFFFFFF AND PUSH20 0xFFFFFFFFFFFFFFFFFFFFFFFFFFFFFFFFFFFFFFFF AND DUP2 MSTORE PUSH1 0x20 ADD SWAP1 DUP2 MSTORE PUSH1 0x20 ADD PUSH0 KECCAK256 PUSH0 DUP3 DUP3 SLOAD PUSH2 0x91C SWAP2 SWAP1 PUSH2 0xF9A JUMP JUMPDEST SWAP3 POP POP DUP2 SWAP1 SSTORE POP PUSH2 0x97C JUMP JUMPDEST DUP2 PUSH1 0x1 PUSH0 DUP6 PUSH20 0xFFFFFFFFFFFFFFFFFFFFFFFFFFFFFFFFFFFFFFFF AND PUSH20 0xFFFFFFFFFFFFFFFFFFFFFFFFFFFFFFFFFFFFFFFF AND DUP2 MSTORE PUSH1 0x20 ADD SWAP1 DUP2 MSTORE PUSH1 0x20 ADD PUSH0 KECCAK256 PUSH0 DUP3 DUP3 SLOAD PUSH2 0x974 SWAP2 SWAP1 PUSH2 0xF9A JUMP JUMPDEST SWAP3 POP POP DUP2 SWAP1 SSTORE POP JUMPDEST DUP2 PUSH1 0x1 PUSH0 CALLER PUSH20 0xFFFFFFFFFFFFFFFFFFFFFFFFFFFFFFFFFFFFFFFF AND PUSH20 0xFFFFFFFFFFFFFFFFFFFFFFFFFFFFFFFFFFFFFFFF AND DUP2 MSTORE PUSH1 0x20 ADD SWAP1 DUP2 MSTORE PUSH1 0x20 ADD PUSH0 KECCAK256 PUSH0 DUP3 DUP3 SLOAD PUSH2 0x9C8 SWAP2 SWAP1 PUSH2 0xFCD JUMP JUMPDEST SWAP3 POP POP DUP2 SWAP1 SSTORE POP DUP3 PUSH20 0xFFFFFFFFFFFFFFFFFFFFFFFFFFFFFFFFFFFFFFFF AND CALLER PUSH20 0xFFFFFFFFFFFFFFFFFFFFFFFFFFFFFFFFFFFFFFFF AND PUSH32 0xDDF252AD1BE2C89B69C2B068FC378DAA952BA7F163C4A11628F55A4DF523B3EF DUP5 PUSH1 0x40 MLOAD PUSH2 0xA2C SWAP2 SWAP1 PUSH2 0xCF2 JUMP JUMPDEST PUSH1 0x40 MLOAD DUP1 SWAP2 SUB SWAP1 LOG3 PUSH1 0x1 SWAP1 POP SWAP3 SWAP2 POP POP JUMP JUMPDEST DUP1 PUSH1 0x5 DUP2 SWAP1 SSTORE POP POP JUMP JUMPDEST PUSH1 0x6 PUSH0 SWAP1 SLOAD SWAP1 PUSH2 0x100 EXP SWAP1 DIV PUSH20 0xFFFFFFFFFFFFFFFFFFFFFFFFFFFFFFFFFFFFFFFF AND DUP2 JUMP JUMPDEST PUSH1 0x2 PUSH1 0x20 MSTORE DUP2 PUSH0 MSTORE PUSH1 0x40 PUSH0 KECCAK256 PUSH1 0x20 MSTORE DUP1 PUSH0 MSTORE PUSH1 0x40 PUSH0 KECCAK256 PUSH0 SWAP2 POP SWAP2 POP POP SLOAD DUP2 JUMP JUMPDEST PUSH1 0x4 PUSH0 SWAP1 SLOAD SWAP1 PUSH2 0x100 EXP SWAP1 DIV PUSH20 0xFFFFFFFFFFFFFFFFFFFFFFFFFFFFFFFFFFFFFFFF AND DUP2 JUMP JUMPDEST PUSH0 PUSH0 SWAP1 SLOAD SWAP1 PUSH2 0x100 EXP SWAP1 DIV PUSH20 0xFFFFFFFFFFFFFFFFFFFFFFFFFFFFFFFFFFFFFFFF AND DUP2 JUMP JUMPDEST PUSH0 PUSH0 REVERT JUMPDEST PUSH0 PUSH20 0xFFFFFFFFFFFFFFFFFFFFFFFFFFFFFFFFFFFFFFFF DUP3 AND SWAP1 POP SWAP2 SWAP1 POP JUMP JUMPDEST PUSH0 PUSH2 0xB03 DUP3 PUSH2 0xADA JUMP JUMPDEST SWAP1 POP SWAP2 SWAP1 POP JUMP JUMPDEST PUSH2 0xB13 DUP2 PUSH2 0xAF9 JUMP JUMPDEST DUP2 EQ PUSH2 0xB1D JUMPI PUSH0 PUSH0 REVERT JUMPDEST POP JUMP JUMPDEST PUSH0 DUP2 CALLDATALOAD SWAP1 POP PUSH2 0xB2E DUP2 PUSH2 0xB0A JUMP JUMPDEST SWAP3 SWAP2 POP POP JUMP JUMPDEST PUSH0 DUP2 SWAP1 POP SWAP2 SWAP1 POP JUMP JUMPDEST PUSH2 0xB46 DUP2 PUSH2 0xB34 JUMP JUMPDEST DUP2 EQ PUSH2 0xB50 JUMPI PUSH0 PUSH0 REVERT JUMPDEST POP JUMP JUMPDEST PUSH0 DUP2 CALLDATALOAD SWAP1 POP PUSH2 0xB61 DUP2 PUSH2 0xB3D JUMP JUMPDEST SWAP3 SWAP2 POP POP JUMP JUMPDEST PUSH0 PUSH0 PUSH1 0x40 DUP4 DUP6 SUB SLT ISZERO PUSH2 0xB7D JUMPI PUSH2 0xB7C PUSH2 0xAD6 JUMP JUMPDEST JUMPDEST PUSH0 PUSH2 0xB8A DUP6 DUP3 DUP7 ADD PUSH2 0xB20 JUMP JUMPDEST SWAP3 POP POP PUSH1 0x20 PUSH2 0xB9B DUP6 DUP3 DUP7 ADD PUSH2 0xB53 JUMP JUMPDEST SWAP2 POP POP SWAP3 POP SWAP3 SWAP1 POP JUMP JUMPDEST PUSH0 DUP2 ISZERO ISZERO SWAP1 POP SWAP2 SWAP1 POP JUMP JUMPDEST PUSH2 0xBB9 DUP2 PUSH2 0xBA5 JUMP JUMPDEST DUP3 MSTORE POP POP JUMP JUMPDEST PUSH0 PUSH1 0x20 DUP3 ADD SWAP1 POP PUSH2 0xBD2 PUSH0 DUP4 ADD DUP5 PUSH2 0xBB0 JUMP JUMPDEST SWAP3 SWAP2 POP POP JUMP JUMPDEST PUSH0 PUSH0 PUSH0 PUSH1 0x60 DUP5 DUP7 SUB SLT ISZERO PUSH2 0xBEF JUMPI PUSH2 0xBEE PUSH2 0xAD6 JUMP JUMPDEST JUMPDEST PUSH0 PUSH2 0xBFC DUP7 DUP3 DUP8 ADD PUSH2 0xB20 JUMP JUMPDEST SWAP4 POP POP PUSH1 0x20 PUSH2 0xC0D DUP7 DUP3 DUP8 ADD PUSH2 0xB20 JUMP JUMPDEST SWAP3 POP POP PUSH1 0x40 PUSH2 0xC1E DUP7 DUP3 DUP8 ADD PUSH2 0xB53 JUMP JUMPDEST SWAP2 POP POP SWAP3 POP SWAP3 POP SWAP3 JUMP JUMPDEST PUSH0 DUP2 MLOAD SWAP1 POP SWAP2 SWAP1 POP JUMP JUMPDEST PUSH0 DUP3 DUP3 MSTORE PUSH1 0x20 DUP3 ADD SWAP1 POP SWAP3 SWAP2 POP POP JUMP JUMPDEST DUP3 DUP2 DUP4 MCOPY PUSH0 DUP4 DUP4 ADD MSTORE POP POP POP JUMP JUMPDEST PUSH0 PUSH1 0x1F NOT PUSH1 0x1F DUP4 ADD AND SWAP1 POP SWAP2 SWAP1 POP JUMP JUMPDEST PUSH0 PUSH2 0xC6A DUP3 PUSH2 0xC28 JUMP JUMPDEST PUSH2 0xC74 DUP2 DUP6 PUSH2 0xC32 JUMP JUMPDEST SWAP4 POP PUSH2 0xC84 DUP2 DUP6 PUSH1 0x20 DUP7 ADD PUSH2 0xC42 JUMP JUMPDEST PUSH2 0xC8D DUP2 PUSH2 0xC50 JUMP JUMPDEST DUP5 ADD SWAP2 POP POP SWAP3 SWAP2 POP POP JUMP JUMPDEST PUSH0 PUSH1 0x20 DUP3 ADD SWAP1 POP DUP2 DUP2 SUB PUSH0 DUP4 ADD MSTORE PUSH2 0xCB0 DUP2 DUP5 PUSH2 0xC60 JUMP JUMPDEST SWAP1 POP SWAP3 SWAP2 POP POP JUMP JUMPDEST PUSH0 PUSH1 0x20 DUP3 DUP5 SUB SLT ISZERO PUSH2 0xCCD JUMPI PUSH2 0xCCC PUSH2 0xAD6 JUMP JUMPDEST JUMPDEST PUSH0 PUSH2 0xCDA DUP5 DUP3 DUP6 ADD PUSH2 0xB20 JUMP JUMPDEST SWAP2 POP POP SWAP3 SWAP2 POP POP JUMP JUMPDEST PUSH2 0xCEC DUP2 PUSH2 0xB34 JUMP JUMPDEST DUP3 MSTORE POP POP JUMP JUMPDEST PUSH0 PUSH1 0x20 DUP3 ADD SWAP1 POP PUSH2 0xD05 PUSH0 DUP4 ADD DUP5 PUSH2 0xCE3 JUMP JUMPDEST SWAP3 SWAP2 POP POP JUMP JUMPDEST PUSH0 PUSH1 0x20 DUP3 DUP5 SUB SLT ISZERO PUSH2 0xD20 JUMPI PUSH2 0xD1F PUSH2 0xAD6 JUMP JUMPDEST JUMPDEST PUSH0 PUSH2 0xD2D DUP5 DUP3 DUP6 ADD PUSH2 0xB53 JUMP JUMPDEST SWAP2 POP POP SWAP3 SWAP2 POP POP JUMP JUMPDEST PUSH2 0xD3F DUP2 PUSH2 0xAF9 JUMP JUMPDEST DUP3 MSTORE POP POP JUMP JUMPDEST PUSH0 PUSH1 0x20 DUP3 ADD SWAP1 POP PUSH2 0xD58 PUSH0 DUP4 ADD DUP5 PUSH2 0xD36 JUMP JUMPDEST SWAP3 SWAP2 POP POP JUMP JUMPDEST PUSH0 PUSH0 PUSH1 0x40 DUP4 DUP6 SUB SLT ISZERO PUSH2 0xD74 JUMPI PUSH2 0xD73 PUSH2 0xAD6 JUMP JUMPDEST JUMPDEST PUSH0 PUSH2 0xD81 DUP6 DUP3 DUP7 ADD PUSH2 0xB20 JUMP JUMPDEST SWAP3 POP POP PUSH1 0x20 PUSH2 0xD92 DUP6 DUP3 DUP7 ADD PUSH2 0xB20 JUMP JUMPDEST SWAP2 POP POP SWAP3 POP SWAP3 SWAP1 POP JUMP JUMPDEST PUSH0 DUP2 SWAP1 POP SWAP2 SWAP1 POP JUMP JUMPDEST PUSH0 PUSH2 0xDBF PUSH2 0xDBA PUSH2 0xDB5 DUP5 PUSH2 0xADA JUMP JUMPDEST PUSH2 0xD9C JUMP JUMPDEST PUSH2 0xADA JUMP JUMPDEST SWAP1 POP SWAP2 SWAP1 POP JUMP JUMPDEST PUSH0 PUSH2 0xDD0 DUP3 PUSH2 0xDA5 JUMP JUMPDEST SWAP1 POP SWAP2 SWAP1 POP JUMP JUMPDEST PUSH0 PUSH2 0xDE1 DUP3 PUSH2 0xDC6 JUMP JUMPDEST SWAP1 POP SWAP2 SWAP1 POP JUMP JUMPDEST PUSH2 0xDF1 DUP2 PUSH2 0xDD7 JUMP JUMPDEST DUP3 MSTORE POP POP JUMP JUMPDEST PUSH0 PUSH1 0x20 DUP3 ADD SWAP1 POP PUSH2 0xE0A PUSH0 DUP4 ADD DUP5 PUSH2 0xDE8 JUMP JUMPDEST SWAP3 SWAP2 POP POP JUMP JUMPDEST PUSH32 0x53616C646F20696E737566696369656E74652070617261206F7065726163616F PUSH0 DUP3 ADD MSTORE PUSH32 0x2820496E73756666696369656E742066756E6473202900000000000000000000 PUSH1 0x20 DUP3 ADD MSTORE POP JUMP JUMPDEST PUSH0 PUSH2 0xE6A PUSH1 0x36 DUP4 PUSH2 0xC32 JUMP JUMPDEST SWAP2 POP PUSH2 0xE75 DUP3 PUSH2 0xE10 JUMP JUMPDEST PUSH1 0x40 DUP3 ADD SWAP1 POP SWAP2 SWAP1 POP JUMP JUMPDEST PUSH0 PUSH1 0x20 DUP3 ADD SWAP1 POP DUP2 DUP2 SUB PUSH0 DUP4 ADD MSTORE PUSH2 0xE97 DUP2 PUSH2 0xE5E JUMP JUMPDEST SWAP1 POP SWAP2 SWAP1 POP JUMP JUMPDEST PUSH32 0x53656D207065726D697373616F2070617261207472616E736163616F2028616C PUSH0 DUP3 ADD MSTORE PUSH32 0x6C6F77616E636520746F6F206C6F772900000000000000000000000000000000 PUSH1 0x20 DUP3 ADD MSTORE POP JUMP JUMPDEST PUSH0 PUSH2 0xEF8 PUSH1 0x30 DUP4 PUSH2 0xC32 JUMP JUMPDEST SWAP2 POP PUSH2 0xF03 DUP3 PUSH2 0xE9E JUMP JUMPDEST PUSH1 0x40 DUP3 ADD SWAP1 POP SWAP2 SWAP1 POP JUMP JUMPDEST PUSH0 PUSH1 0x20 DUP3 ADD SWAP1 POP DUP2 DUP2 SUB PUSH0 DUP4 ADD MSTORE PUSH2 0xF25 DUP2 PUSH2 0xEEC JUMP JUMPDEST SWAP1 POP SWAP2 SWAP1 POP JUMP JUMPDEST PUSH32 0x4E487B7100000000000000000000000000000000000000000000000000000000 PUSH0 MSTORE PUSH1 0x11 PUSH1 0x4 MSTORE PUSH1 0x24 PUSH0 REVERT JUMPDEST PUSH0 PUSH2 0xF63 DUP3 PUSH2 0xB34 JUMP JUMPDEST SWAP2 POP PUSH2 0xF6E DUP4 PUSH2 0xB34 JUMP JUMPDEST SWAP3 POP DUP3 DUP3 MUL PUSH2 0xF7C DUP2 PUSH2 0xB34 JUMP JUMPDEST SWAP2 POP DUP3 DUP3 DIV DUP5 EQ DUP4 ISZERO OR PUSH2 0xF93 JUMPI PUSH2 0xF92 PUSH2 0xF2C JUMP JUMPDEST JUMPDEST POP SWAP3 SWAP2 POP POP JUMP JUMPDEST PUSH0 PUSH2 0xFA4 DUP3 PUSH2 0xB34 JUMP JUMPDEST SWAP2 POP PUSH2 0xFAF DUP4 PUSH2 0xB34 JUMP JUMPDEST SWAP3 POP DUP3 DUP3 ADD SWAP1 POP DUP1 DUP3 GT ISZERO PUSH2 0xFC7 JUMPI PUSH2 0xFC6 PUSH2 0xF2C JUMP JUMPDEST JUMPDEST SWAP3 SWAP2 POP POP JUMP JUMPDEST PUSH0 PUSH2 0xFD7 DUP3 PUSH2 0xB34 JUMP JUMPDEST SWAP2 POP PUSH2 0xFE2 DUP4 PUSH2 0xB34 JUMP JUMPDEST SWAP3 POP DUP3 DUP3 SUB SWAP1 POP DUP2 DUP2 GT ISZERO PUSH2 0xFFA JUMPI PUSH2 0xFF9 PUSH2 0xF2C JUMP JUMPDEST JUMPDEST SWAP3 SWAP2 POP POP JUMP JUMPDEST PUSH32 0x4E487B7100000000000000000000000000000000000000000000000000000000 PUSH0 MSTORE PUSH1 0x22 PUSH1 0x4 MSTORE PUSH1 0x24 PUSH0 REVERT JUMPDEST PUSH0 PUSH1 0x2 DUP3 DIV SWAP1 POP PUSH1 0x1 DUP3 AND DUP1 PUSH2 0x1044 JUMPI PUSH1 0x7F DUP3 AND SWAP2 POP JUMPDEST PUSH1 0x20 DUP3 LT DUP2 SUB PUSH2 0x1057 JUMPI PUSH2 0x1056 PUSH2 0x1000 JUMP JUMPDEST JUMPDEST POP SWAP2 SWAP1 POP JUMP INVALID LOG2 PUSH5 0x6970667358 0x22 SLT KECCAK256 0xFC MSTORE8 0xD4 BLOBBASEFEE PUSH19 0xDD72E8DD2362F1C7E5E070EA293490AE8A8FE8 SELFBALANCE EXP 0xDC JUMP SWAP16 ISZERO 0xC2 0xDE PUSH5 0x736F6C6343 STOP ADDMOD 0x1E STOP CALLER "
				},
				"gasEstimates": {
					"creation": {
						"codeDepositCost": "848600",
						"executionCost": "infinite",
						"totalCost": "infinite"
					},
					"external": {
						"allowance(address,address)": "infinite",
						"approve(address,uint256)": "infinite",
						"balanceOf(address)": "2940",
						"balances(address)": "2869",
						"changeAddressDonate(address)": "24738",
						"changeValueDonate(uint256)": "22582",
						"contractOwner()": "2530",
						"donate()": "2574",
						"donateValue()": "2514",
						"token()": "infinite",
						"transfer(address,uint256)": "infinite",
						"transferFrom(address,address,uint256)": "infinite",
						"versao()": "infinite"
					}
				},
				"methodIdentifiers": {
					"allowance(address,address)": "dd62ed3e",
					"approve(address,uint256)": "095ea7b3",
					"balanceOf(address)": "70a08231",
					"balances(address)": "27e235e3",
					"changeAddressDonate(address)": "a2f7c857",
					"changeValueDonate(uint256)": "ad0ef018",
					"contractOwner()": "ce606ee0",
					"donate()": "ed88c68e",
					"donateValue()": "677aa7ae",
					"token()": "fc0c546a",
					"transfer(address,uint256)": "a9059cbb",
					"transferFrom(address,address,uint256)": "23b872dd",
					"versao()": "260f5cf1"
				}
			},
			"storageLayout": {
				"storage": [
					{
						"astId": 792,
						"contract": "contracts/CCK/CC2/ctoc.sol:TokenHH",
						"label": "token",
						"offset": 0,
						"slot": "0",
						"type": "t_contract(IERC20)729"
					},
					{
						"astId": 796,
						"contract": "contracts/CCK/CC2/ctoc.sol:TokenHH",
						"label": "balances",
						"offset": 0,
						"slot": "1",
						"type": "t_mapping(t_address,t_uint256)"
					},
					{
						"astId": 802,
						"contract": "contracts/CCK/CC2/ctoc.sol:TokenHH",
						"label": "allowance",
						"offset": 0,
						"slot": "2",
						"type": "t_mapping(t_address,t_mapping(t_address,t_uint256))"
					},
					{
						"astId": 805,
						"contract": "contracts/CCK/CC2/ctoc.sol:TokenHH",
						"label": "versao",
						"offset": 0,
						"slot": "3",
						"type": "t_string_storage"
					},
					{
						"astId": 807,
						"contract": "contracts/CCK/CC2/ctoc.sol:TokenHH",
						"label": "donate",
						"offset": 0,
						"slot": "4",
						"type": "t_address"
					},
					{
						"astId": 809,
						"contract": "contracts/CCK/CC2/ctoc.sol:TokenHH",
						"label": "donateValue",
						"offset": 0,
						"slot": "5",
						"type": "t_uint256"
					},
					{
						"astId": 811,
						"contract": "contracts/CCK/CC2/ctoc.sol:TokenHH",
						"label": "contractOwner",
						"offset": 0,
						"slot": "6",
						"type": "t_address"
					}
				],
				"types": {
					"t_address": {
						"encoding": "inplace",
						"label": "address",
						"numberOfBytes": "20"
					},
					"t_contract(IERC20)729": {
						"encoding": "inplace",
						"label": "contract IERC20",
						"numberOfBytes": "20"
					},
					"t_mapping(t_address,t_mapping(t_address,t_uint256))": {
						"encoding": "mapping",
						"key": "t_address",
						"label": "mapping(address => mapping(address => uint256))",
						"numberOfBytes": "32",
						"value": "t_mapping(t_address,t_uint256)"
					},
					"t_mapping(t_address,t_uint256)": {
						"encoding": "mapping",
						"key": "t_address",
						"label": "mapping(address => uint256)",
						"numberOfBytes": "32",
						"value": "t_uint256"
					},
					"t_string_storage": {
						"encoding": "bytes",
						"label": "string",
						"numberOfBytes": "32"
					},
					"t_uint256": {
						"encoding": "inplace",
						"label": "uint256",
						"numberOfBytes": "32"
					}
				}
			},
			"userdoc": {
				"kind": "user",
				"methods": {},
				"version": 1
			}
		}
	}
}