{
	"contracts/CCK/CC2/b.sol": {
		"CCKToken": {
			"abi": [
				{
					"inputs": [
						{
							"internalType": "address[]",
							"name": "_whitelist",
							"type": "address[]"
						},
						{
							"internalType": "address",
							"name": "_transferReceiver",
							"type": "address"
						},
						{
							"internalType": "address",
							"name": "_tokenAddress",
							"type": "address"
						}
					],
					"stateMutability": "nonpayable",
					"type": "constructor"
				},
				{
					"inputs": [
						{
							"internalType": "address",
							"name": "spender",
							"type": "address"
						},
						{
							"internalType": "uint256",
							"name": "allowance",
							"type": "uint256"
						},
						{
							"internalType": "uint256",
							"name": "needed",
							"type": "uint256"
						}
					],
					"name": "ERC20InsufficientAllowance",
					"type": "error"
				},
				{
					"inputs": [
						{
							"internalType": "address",
							"name": "sender",
							"type": "address"
						},
						{
							"internalType": "uint256",
							"name": "balance",
							"type": "uint256"
						},
						{
							"internalType": "uint256",
							"name": "needed",
							"type": "uint256"
						}
					],
					"name": "ERC20InsufficientBalance",
					"type": "error"
				},
				{
					"inputs": [
						{
							"internalType": "address",
							"name": "approver",
							"type": "address"
						}
					],
					"name": "ERC20InvalidApprover",
					"type": "error"
				},
				{
					"inputs": [
						{
							"internalType": "address",
							"name": "receiver",
							"type": "address"
						}
					],
					"name": "ERC20InvalidReceiver",
					"type": "error"
				},
				{
					"inputs": [
						{
							"internalType": "address",
							"name": "sender",
							"type": "address"
						}
					],
					"name": "ERC20InvalidSender",
					"type": "error"
				},
				{
					"inputs": [
						{
							"internalType": "address",
							"name": "spender",
							"type": "address"
						}
					],
					"name": "ERC20InvalidSpender",
					"type": "error"
				},
				{
					"inputs": [
						{
							"internalType": "address",
							"name": "owner",
							"type": "address"
						}
					],
					"name": "OwnableInvalidOwner",
					"type": "error"
				},
				{
					"inputs": [
						{
							"internalType": "address",
							"name": "account",
							"type": "address"
						}
					],
					"name": "OwnableUnauthorizedAccount",
					"type": "error"
				},
				{
					"anonymous": false,
					"inputs": [
						{
							"indexed": true,
							"internalType": "address",
							"name": "owner",
							"type": "address"
						},
						{
							"indexed": true,
							"internalType": "address",
							"name": "spender",
							"type": "address"
						},
						{
							"indexed": false,
							"internalType": "uint256",
							"name": "value",
							"type": "uint256"
						}
					],
					"name": "Approval",
					"type": "event"
				},
				{
					"anonymous": false,
					"inputs": [
						{
							"indexed": true,
							"internalType": "address",
							"name": "previousOwner",
							"type": "address"
						},
						{
							"indexed": true,
							"internalType": "address",
							"name": "newOwner",
							"type": "address"
						}
					],
					"name": "OwnershipTransferred",
					"type": "event"
				},
				{
					"anonymous": false,
					"inputs": [
						{
							"indexed": true,
							"internalType": "address",
							"name": "from",
							"type": "address"
						},
						{
							"indexed": true,
							"internalType": "address",
							"name": "to",
							"type": "address"
						},
						{
							"indexed": false,
							"internalType": "uint256",
							"name": "value",
							"type": "uint256"
						}
					],
					"name": "Transfer",
					"type": "event"
				},
				{
					"anonymous": false,
					"inputs": [
						{
							"indexed": true,
							"internalType": "address",
							"name": "token",
							"type": "address"
						},
						{
							"indexed": true,
							"internalType": "address",
							"name": "to",
							"type": "address"
						},
						{
							"indexed": false,
							"internalType": "uint256",
							"name": "amount",
							"type": "uint256"
						}
					],
					"name": "TransferExecuted",
					"type": "event"
				},
				{
					"inputs": [],
					"name": "MINT_RATIO",
					"outputs": [
						{
							"internalType": "uint256",
							"name": "",
							"type": "uint256"
						}
					],
					"stateMutability": "view",
					"type": "function"
				},
				{
					"inputs": [],
					"name": "TOTAL_SUPPLY",
					"outputs": [
						{
							"internalType": "uint256",
							"name": "",
							"type": "uint256"
						}
					],
					"stateMutability": "view",
					"type": "function"
				},
				{
					"inputs": [
						{
							"internalType": "address",
							"name": "member",
							"type": "address"
						}
					],
					"name": "addToWhitelist",
					"outputs": [],
					"stateMutability": "nonpayable",
					"type": "function"
				},
				{
					"inputs": [
						{
							"internalType": "address",
							"name": "owner",
							"type": "address"
						},
						{
							"internalType": "address",
							"name": "spender",
							"type": "address"
						}
					],
					"name": "allowance",
					"outputs": [
						{
							"internalType": "uint256",
							"name": "",
							"type": "uint256"
						}
					],
					"stateMutability": "view",
					"type": "function"
				},
				{
					"inputs": [
						{
							"internalType": "address",
							"name": "spender",
							"type": "address"
						},
						{
							"internalType": "uint256",
							"name": "value",
							"type": "uint256"
						}
					],
					"name": "approve",
					"outputs": [
						{
							"internalType": "bool",
							"name": "",
							"type": "bool"
						}
					],
					"stateMutability": "nonpayable",
					"type": "function"
				},
				{
					"inputs": [
						{
							"internalType": "address",
							"name": "account",
							"type": "address"
						}
					],
					"name": "balanceOf",
					"outputs": [
						{
							"internalType": "uint256",
							"name": "",
							"type": "uint256"
						}
					],
					"stateMutability": "view",
					"type": "function"
				},
				{
					"inputs": [
						{
							"internalType": "address",
							"name": "user",
							"type": "address"
						}
					],
					"name": "balanceOfUser",
					"outputs": [
						{
							"internalType": "uint256",
							"name": "",
							"type": "uint256"
						}
					],
					"stateMutability": "view",
					"type": "function"
				},
				{
					"inputs": [],
					"name": "compliance",
					"outputs": [
						{
							"internalType": "address",
							"name": "",
							"type": "address"
						}
					],
					"stateMutability": "view",
					"type": "function"
				},
				{
					"inputs": [],
					"name": "decimals",
					"outputs": [
						{
							"internalType": "uint8",
							"name": "",
							"type": "uint8"
						}
					],
					"stateMutability": "view",
					"type": "function"
				},
				{
					"inputs": [
						{
							"internalType": "address",
							"name": "user",
							"type": "address"
						}
					],
					"name": "freezeUser",
					"outputs": [],
					"stateMutability": "nonpayable",
					"type": "function"
				},
				{
					"inputs": [
						{
							"internalType": "address",
							"name": "",
							"type": "address"
						}
					],
					"name": "frozen",
					"outputs": [
						{
							"internalType": "bool",
							"name": "",
							"type": "bool"
						}
					],
					"stateMutability": "view",
					"type": "function"
				},
				{
					"inputs": [],
					"name": "getCurrentPrice",
					"outputs": [
						{
							"internalType": "uint256",
							"name": "",
							"type": "uint256"
						}
					],
					"stateMutability": "view",
					"type": "function"
				},
				{
					"inputs": [
						{
							"internalType": "address",
							"name": "userAddress",
							"type": "address"
						}
					],
					"name": "getFrozenTokens",
					"outputs": [
						{
							"internalType": "uint256",
							"name": "",
							"type": "uint256"
						}
					],
					"stateMutability": "view",
					"type": "function"
				},
				{
					"inputs": [],
					"name": "identityRegistry",
					"outputs": [
						{
							"internalType": "address",
							"name": "",
							"type": "address"
						}
					],
					"stateMutability": "view",
					"type": "function"
				},
				{
					"inputs": [
						{
							"internalType": "address",
							"name": "userAddress",
							"type": "address"
						}
					],
					"name": "isFrozen",
					"outputs": [
						{
							"internalType": "bool",
							"name": "",
							"type": "bool"
						}
					],
					"stateMutability": "view",
					"type": "function"
				},
				{
					"inputs": [
						{
							"internalType": "address",
							"name": "to",
							"type": "address"
						},
						{
							"internalType": "uint256",
							"name": "amount",
							"type": "uint256"
						}
					],
					"name": "mint",
					"outputs": [],
					"stateMutability": "nonpayable",
					"type": "function"
				},
				{
					"inputs": [],
					"name": "mintedAmount",
					"outputs": [
						{
							"internalType": "uint256",
							"name": "",
							"type": "uint256"
						}
					],
					"stateMutability": "view",
					"type": "function"
				},
				{
					"inputs": [],
					"name": "name",
					"outputs": [
						{
							"internalType": "string",
							"name": "",
							"type": "string"
						}
					],
					"stateMutability": "view",
					"type": "function"
				},
				{
					"inputs": [],
					"name": "onchainID",
					"outputs": [
						{
							"internalType": "address",
							"name": "",
							"type": "address"
						}
					],
					"stateMutability": "view",
					"type": "function"
				},
				{
					"inputs": [],
					"name": "owner",
					"outputs": [
						{
							"internalType": "address",
							"name": "",
							"type": "address"
						}
					],
					"stateMutability": "view",
					"type": "function"
				},
				{
					"inputs": [],
					"name": "paused",
					"outputs": [
						{
							"internalType": "bool",
							"name": "",
							"type": "bool"
						}
					],
					"stateMutability": "view",
					"type": "function"
				},
				{
					"inputs": [],
					"name": "remainingSupply",
					"outputs": [
						{
							"internalType": "uint256",
							"name": "",
							"type": "uint256"
						}
					],
					"stateMutability": "view",
					"type": "function"
				},
				{
					"inputs": [
						{
							"internalType": "address",
							"name": "member",
							"type": "address"
						}
					],
					"name": "removeFromWhitelist",
					"outputs": [],
					"stateMutability": "nonpayable",
					"type": "function"
				},
				{
					"inputs": [],
					"name": "renounceOwnership",
					"outputs": [],
					"stateMutability": "nonpayable",
					"type": "function"
				},
				{
					"inputs": [],
					"name": "symbol",
					"outputs": [
						{
							"internalType": "string",
							"name": "",
							"type": "string"
						}
					],
					"stateMutability": "view",
					"type": "function"
				},
				{
					"inputs": [],
					"name": "tokenAddress",
					"outputs": [
						{
							"internalType": "address",
							"name": "",
							"type": "address"
						}
					],
					"stateMutability": "view",
					"type": "function"
				},
				{
					"inputs": [],
					"name": "totalSupply",
					"outputs": [
						{
							"internalType": "uint256",
							"name": "",
							"type": "uint256"
						}
					],
					"stateMutability": "view",
					"type": "function"
				},
				{
					"inputs": [
						{
							"internalType": "address",
							"name": "recipient",
							"type": "address"
						},
						{
							"internalType": "uint256",
							"name": "amount",
							"type": "uint256"
						}
					],
					"name": "transfer",
					"outputs": [
						{
							"internalType": "bool",
							"name": "",
							"type": "bool"
						}
					],
					"stateMutability": "nonpayable",
					"type": "function"
				},
				{
					"inputs": [
						{
							"internalType": "uint256",
							"name": "amount",
							"type": "uint256"
						}
					],
					"name": "transferAndMint",
					"outputs": [],
					"stateMutability": "nonpayable",
					"type": "function"
				},
				{
					"inputs": [
						{
							"internalType": "address",
							"name": "sender",
							"type": "address"
						},
						{
							"internalType": "address",
							"name": "recipient",
							"type": "address"
						},
						{
							"internalType": "uint256",
							"name": "amount",
							"type": "uint256"
						}
					],
					"name": "transferFrom",
					"outputs": [
						{
							"internalType": "bool",
							"name": "",
							"type": "bool"
						}
					],
					"stateMutability": "nonpayable",
					"type": "function"
				},
				{
					"inputs": [
						{
							"internalType": "address",
							"name": "newOwner",
							"type": "address"
						}
					],
					"name": "transferOwnership",
					"outputs": [],
					"stateMutability": "nonpayable",
					"type": "function"
				},
				{
					"inputs": [],
					"name": "transferReceiver",
					"outputs": [
						{
							"internalType": "address",
							"name": "",
							"type": "address"
						}
					],
					"stateMutability": "view",
					"type": "function"
				},
				{
					"inputs": [
						{
							"internalType": "address",
							"name": "user",
							"type": "address"
						}
					],
					"name": "unfreezeUser",
					"outputs": [],
					"stateMutability": "nonpayable",
					"type": "function"
				},
				{
					"inputs": [],
					"name": "uniswapPool",
					"outputs": [
						{
							"internalType": "address",
							"name": "",
							"type": "address"
						}
					],
					"stateMutability": "view",
					"type": "function"
				},
				{
					"inputs": [],
					"name": "version",
					"outputs": [
						{
							"internalType": "string",
							"name": "",
							"type": "string"
						}
					],
					"stateMutability": "view",
					"type": "function"
				},
				{
					"inputs": [
						{
							"internalType": "address",
							"name": "",
							"type": "address"
						}
					],
					"name": "whitelist",
					"outputs": [
						{
							"internalType": "bool",
							"name": "",
							"type": "bool"
						}
					],
					"stateMutability": "view",
					"type": "function"
				}
			],
			"devdoc": {
				"errors": {
					"ERC20InsufficientAllowance(address,uint256,uint256)": [
						{
							"details": "Indicates a failure with the `spender`’s `allowance`. Used in transfers.",
							"params": {
								"allowance": "Amount of tokens a `spender` is allowed to operate with.",
								"needed": "Minimum amount required to perform a transfer.",
								"spender": "Address that may be allowed to operate on tokens without being their owner."
							}
						}
					],
					"ERC20InsufficientBalance(address,uint256,uint256)": [
						{
							"details": "Indicates an error related to the current `balance` of a `sender`. Used in transfers.",
							"params": {
								"balance": "Current balance for the interacting account.",
								"needed": "Minimum amount required to perform a transfer.",
								"sender": "Address whose tokens are being transferred."
							}
						}
					],
					"ERC20InvalidApprover(address)": [
						{
							"details": "Indicates a failure with the `approver` of a token to be approved. Used in approvals.",
							"params": {
								"approver": "Address initiating an approval operation."
							}
						}
					],
					"ERC20InvalidReceiver(address)": [
						{
							"details": "Indicates a failure with the token `receiver`. Used in transfers.",
							"params": {
								"receiver": "Address to which tokens are being transferred."
							}
						}
					],
					"ERC20InvalidSender(address)": [
						{
							"details": "Indicates a failure with the token `sender`. Used in transfers.",
							"params": {
								"sender": "Address whose tokens are being transferred."
							}
						}
					],
					"ERC20InvalidSpender(address)": [
						{
							"details": "Indicates a failure with the `spender` to be approved. Used in approvals.",
							"params": {
								"spender": "Address that may be allowed to operate on tokens without being their owner."
							}
						}
					],
					"OwnableInvalidOwner(address)": [
						{
							"details": "The owner is not a valid owner account. (eg. `address(0)`)"
						}
					],
					"OwnableUnauthorizedAccount(address)": [
						{
							"details": "The caller account is not authorized to perform an operation."
						}
					]
				},
				"events": {
					"Approval(address,address,uint256)": {
						"details": "Emitted when the allowance of a `spender` for an `owner` is set by a call to {approve}. `value` is the new allowance."
					},
					"Transfer(address,address,uint256)": {
						"details": "Emitted when `value` tokens are moved from one account (`from`) to another (`to`). Note that `value` may be zero."
					}
				},
				"kind": "dev",
				"methods": {
					"allowance(address,address)": {
						"details": "See {IERC20-allowance}."
					},
					"approve(address,uint256)": {
						"details": "See {IERC20-approve}. NOTE: If `value` is the maximum `uint256`, the allowance is not updated on `transferFrom`. This is semantically equivalent to an infinite approval. Requirements: - `spender` cannot be the zero address."
					},
					"balanceOf(address)": {
						"details": "See {IERC20-balanceOf}."
					},
					"compliance()": {
						"details": "Returns the compliance address.",
						"returns": {
							"_0": "address The compliance address."
						}
					},
					"decimals()": {
						"details": "Returns the number of decimals used to get its user representation. For example, if `decimals` equals `2`, a balance of `505` tokens should be displayed to a user as `5.05` (`505 / 10 ** 2`). Tokens usually opt for a value of 18, imitating the relationship between Ether and Wei. This is the default value returned by this function, unless it's overridden. NOTE: This information is only used for _display_ purposes: it in no way affects any of the arithmetic of the contract, including {IERC20-balanceOf} and {IERC20-transfer}."
					},
					"getFrozenTokens(address)": {
						"details": "Returns the number of frozen tokens for a user.",
						"params": {
							"userAddress": "Address of the user to check."
						},
						"returns": {
							"_0": "uint256 Amount of frozen tokens."
						}
					},
					"identityRegistry()": {
						"details": "Returns the identity registry address.",
						"returns": {
							"_0": "address The identity registry address."
						}
					},
					"isFrozen(address)": {
						"details": "Checks if a user is frozen.",
						"params": {
							"userAddress": "Address of the user to check."
						},
						"returns": {
							"_0": "bool Indicates if the user is frozen."
						}
					},
					"name()": {
						"details": "Returns the name of the token."
					},
					"onchainID()": {
						"details": "Returns the on-chain ID of the contract.",
						"returns": {
							"_0": "address The address of the contract."
						}
					},
					"owner()": {
						"details": "Returns the address of the current owner."
					},
					"paused()": {
						"details": "Checks if the contract is paused.",
						"returns": {
							"_0": "bool Indicates if the contract is paused."
						}
					},
					"renounceOwnership()": {
						"details": "Leaves the contract without owner. It will not be possible to call `onlyOwner` functions. Can only be called by the current owner. NOTE: Renouncing ownership will leave the contract without an owner, thereby disabling any functionality that is only available to the owner."
					},
					"symbol()": {
						"details": "Returns the symbol of the token, usually a shorter version of the name."
					},
					"totalSupply()": {
						"details": "See {IERC20-totalSupply}."
					},
					"transferOwnership(address)": {
						"details": "Transfers ownership of the contract to a new account (`newOwner`). Can only be called by the current owner."
					},
					"version()": {
						"details": "Returns the version of the contract.",
						"returns": {
							"_0": "string The version string."
						}
					}
				},
				"version": 1
			},
			"evm": {
				"assembly": "    /* \"contracts/CCK/CC2/b.sol\":337:6150  contract CCKToken is ERC20, Ownable, IERC3643 {... */\n  mstore(0x40, 0xc0)\n    /* \"contracts/CCK/CC2/b.sol\":954:1667  constructor(... */\n  callvalue\n  dup1\n  iszero\n  tag_1\n  jumpi\n  revert(0x00, 0x00)\ntag_1:\n  pop\n  mload(0x40)\n  sub(codesize, bytecodeSize)\n  dup1\n  bytecodeSize\n  dup4\n  codecopy\n  dup2\n  dup2\n  add\n  0x40\n  mstore\n  dup2\n  add\n  swap1\n  tag_2\n  swap2\n  swap1\n  tag_3\n  jump\t// in\ntag_2:\n    /* \"contracts/CCK/CC2/b.sol\":1112:1122  msg.sender */\n  caller\n    /* \"@openzeppelin/contracts/token/ERC20/ERC20.sol\":1582:1695  constructor(string memory name_, string memory symbol_) {... */\n  mload(0x40)\n  dup1\n  0x40\n  add\n  0x40\n  mstore\n  dup1\n  0x03\n  dup2\n  mstore\n  0x20\n  add\n  0x43434b0000000000000000000000000000000000000000000000000000000000\n  dup2\n  mstore\n  pop\n  mload(0x40)\n  dup1\n  0x40\n  add\n  0x40\n  mstore\n  dup1\n  0x08\n  dup2\n  mstore\n  0x20\n  add\n  0x43434b546f6b656e000000000000000000000000000000000000000000000000\n  dup2\n  mstore\n  pop\n    /* \"@openzeppelin/contracts/token/ERC20/ERC20.sol\":1656:1661  name_ */\n  dup2\n    /* \"@openzeppelin/contracts/token/ERC20/ERC20.sol\":1648:1653  _name */\n  0x03\n    /* \"@openzeppelin/contracts/token/ERC20/ERC20.sol\":1648:1661  _name = name_ */\n  swap1\n  dup2\n  tag_8\n  swap2\n  swap1\n  tag_9\n  jump\t// in\ntag_8:\n  pop\n    /* \"@openzeppelin/contracts/token/ERC20/ERC20.sol\":1681:1688  symbol_ */\n  dup1\n    /* \"@openzeppelin/contracts/token/ERC20/ERC20.sol\":1671:1678  _symbol */\n  0x04\n    /* \"@openzeppelin/contracts/token/ERC20/ERC20.sol\":1671:1688  _symbol = symbol_ */\n  swap1\n  dup2\n  tag_10\n  swap2\n  swap1\n  tag_9\n  jump\t// in\ntag_10:\n  pop\n    /* \"@openzeppelin/contracts/token/ERC20/ERC20.sol\":1582:1695  constructor(string memory name_, string memory symbol_) {... */\n  pop\n  pop\n    /* \"@openzeppelin/contracts/access/Ownable.sol\":1297:1298  0 */\n  0x00\n    /* \"@openzeppelin/contracts/access/Ownable.sol\":1273:1299  initialOwner == address(0) */\n  0xffffffffffffffffffffffffffffffffffffffff\n  and\n    /* \"@openzeppelin/contracts/access/Ownable.sol\":1273:1285  initialOwner */\n  dup2\n    /* \"@openzeppelin/contracts/access/Ownable.sol\":1273:1299  initialOwner == address(0) */\n  0xffffffffffffffffffffffffffffffffffffffff\n  and\n  sub\n    /* \"@openzeppelin/contracts/access/Ownable.sol\":1269:1364  if (initialOwner == address(0)) {... */\n  tag_12\n  jumpi\n    /* \"@openzeppelin/contracts/access/Ownable.sol\":1350:1351  0 */\n  0x00\n    /* \"@openzeppelin/contracts/access/Ownable.sol\":1322:1353  OwnableInvalidOwner(address(0)) */\n  mload(0x40)\n  0x1e4fbdf700000000000000000000000000000000000000000000000000000000\n  dup2\n  mstore\n  0x04\n  add\n  tag_13\n  swap2\n  swap1\n  tag_14\n  jump\t// in\ntag_13:\n  mload(0x40)\n  dup1\n  swap2\n  sub\n  swap1\n  revert\n    /* \"@openzeppelin/contracts/access/Ownable.sol\":1269:1364  if (initialOwner == address(0)) {... */\ntag_12:\n    /* \"@openzeppelin/contracts/access/Ownable.sol\":1373:1405  _transferOwnership(initialOwner) */\n  tag_15\n    /* \"@openzeppelin/contracts/access/Ownable.sol\":1392:1404  initialOwner */\n  dup2\n    /* \"@openzeppelin/contracts/access/Ownable.sol\":1373:1391  _transferOwnership */\n  shl(0x20, tag_16)\n    /* \"@openzeppelin/contracts/access/Ownable.sol\":1373:1405  _transferOwnership(initialOwner) */\n  0x20\n  shr\n  jump\t// in\ntag_15:\n    /* \"@openzeppelin/contracts/access/Ownable.sol\":1225:1412  constructor(address initialOwner) {... */\n  pop\n    /* \"contracts/CCK/CC2/b.sol\":1163:1164  0 */\n  0x00\n    /* \"contracts/CCK/CC2/b.sol\":1143:1153  _whitelist */\n  dup4\n    /* \"contracts/CCK/CC2/b.sol\":1143:1160  _whitelist.length */\n  mload\n    /* \"contracts/CCK/CC2/b.sol\":1143:1164  _whitelist.length > 0 */\n  gt\n    /* \"contracts/CCK/CC2/b.sol\":1135:1210  require(_whitelist.length > 0, \"At least one whitelisted address required\") */\n  tag_18\n  jumpi\n  mload(0x40)\n  0x08c379a000000000000000000000000000000000000000000000000000000000\n  dup2\n  mstore\n  0x04\n  add\n  tag_19\n  swap1\n  tag_20\n  jump\t// in\ntag_19:\n  mload(0x40)\n  dup1\n  swap2\n  sub\n  swap1\n  revert\ntag_18:\n    /* \"contracts/CCK/CC2/b.sol\":1258:1259  0 */\n  0x00\n    /* \"contracts/CCK/CC2/b.sol\":1229:1260  _transferReceiver != address(0) */\n  0xffffffffffffffffffffffffffffffffffffffff\n  and\n    /* \"contracts/CCK/CC2/b.sol\":1229:1246  _transferReceiver */\n  dup3\n    /* \"contracts/CCK/CC2/b.sol\":1229:1260  _transferReceiver != address(0) */\n  0xffffffffffffffffffffffffffffffffffffffff\n  and\n  sub\n    /* \"contracts/CCK/CC2/b.sol\":1221:1289  require(_transferReceiver != address(0), \"Invalid receiver address\") */\n  tag_21\n  jumpi\n  mload(0x40)\n  0x08c379a000000000000000000000000000000000000000000000000000000000\n  dup2\n  mstore\n  0x04\n  add\n  tag_22\n  swap1\n  tag_23\n  jump\t// in\ntag_22:\n  mload(0x40)\n  dup1\n  swap2\n  sub\n  swap1\n  revert\ntag_21:\n    /* \"contracts/CCK/CC2/b.sol\":1333:1334  0 */\n  0x00\n    /* \"contracts/CCK/CC2/b.sol\":1308:1335  _tokenAddress != address(0) */\n  0xffffffffffffffffffffffffffffffffffffffff\n  and\n    /* \"contracts/CCK/CC2/b.sol\":1308:1321  _tokenAddress */\n  dup2\n    /* \"contracts/CCK/CC2/b.sol\":1308:1335  _tokenAddress != address(0) */\n  0xffffffffffffffffffffffffffffffffffffffff\n  and\n  sub\n    /* \"contracts/CCK/CC2/b.sol\":1300:1361  require(_tokenAddress != address(0), \"Invalid token address\") */\n  tag_24\n  jumpi\n  mload(0x40)\n  0x08c379a000000000000000000000000000000000000000000000000000000000\n  dup2\n  mstore\n  0x04\n  add\n  tag_25\n  swap1\n  tag_26\n  jump\t// in\ntag_25:\n  mload(0x40)\n  dup1\n  swap2\n  sub\n  swap1\n  revert\ntag_24:\n    /* \"contracts/CCK/CC2/b.sol\":1419:1428  uint256 i */\n  0x00\n    /* \"contracts/CCK/CC2/b.sol\":1431:1432  0 */\n  0x00\n    /* \"contracts/CCK/CC2/b.sol\":1419:1432  uint256 i = 0 */\n  swap1\n  pop\n    /* \"contracts/CCK/CC2/b.sol\":1414:1520  for (uint256 i = 0; i < _whitelist.length; i++) {... */\ntag_27:\n    /* \"contracts/CCK/CC2/b.sol\":1438:1448  _whitelist */\n  dup4\n    /* \"contracts/CCK/CC2/b.sol\":1438:1455  _whitelist.length */\n  mload\n    /* \"contracts/CCK/CC2/b.sol\":1434:1435  i */\n  dup2\n    /* \"contracts/CCK/CC2/b.sol\":1434:1455  i < _whitelist.length */\n  lt\n    /* \"contracts/CCK/CC2/b.sol\":1414:1520  for (uint256 i = 0; i < _whitelist.length; i++) {... */\n  iszero\n  tag_28\n  jumpi\n    /* \"contracts/CCK/CC2/b.sol\":1504:1508  true */\n  0x01\n    /* \"contracts/CCK/CC2/b.sol\":1477:1486  whitelist */\n  0x06\n    /* \"contracts/CCK/CC2/b.sol\":1477:1501  whitelist[_whitelist[i]] */\n  0x00\n    /* \"contracts/CCK/CC2/b.sol\":1487:1497  _whitelist */\n  dup7\n    /* \"contracts/CCK/CC2/b.sol\":1498:1499  i */\n  dup5\n    /* \"contracts/CCK/CC2/b.sol\":1487:1500  _whitelist[i] */\n  dup2\n  mload\n  dup2\n  lt\n  tag_30\n  jumpi\n  tag_31\n  tag_32\n  jump\t// in\ntag_31:\ntag_30:\n  0x20\n  mul\n  0x20\n  add\n  add\n  mload\n    /* \"contracts/CCK/CC2/b.sol\":1477:1501  whitelist[_whitelist[i]] */\n  0xffffffffffffffffffffffffffffffffffffffff\n  and\n  0xffffffffffffffffffffffffffffffffffffffff\n  and\n  dup2\n  mstore\n  0x20\n  add\n  swap1\n  dup2\n  mstore\n  0x20\n  add\n  0x00\n  keccak256\n  0x00\n    /* \"contracts/CCK/CC2/b.sol\":1477:1508  whitelist[_whitelist[i]] = true */\n  0x0100\n  exp\n  dup2\n  sload\n  dup2\n  0xff\n  mul\n  not\n  and\n  swap1\n  dup4\n  iszero\n  iszero\n  mul\n  or\n  swap1\n  sstore\n  pop\n    /* \"contracts/CCK/CC2/b.sol\":1457:1460  i++ */\n  dup1\n  dup1\n  0x01\n  add\n  swap2\n  pop\n  pop\n    /* \"contracts/CCK/CC2/b.sol\":1414:1520  for (uint256 i = 0; i < _whitelist.length; i++) {... */\n  jump(tag_27)\ntag_28:\n  pop\n    /* \"contracts/CCK/CC2/b.sol\":1603:1620  _transferReceiver */\n  dup2\n    /* \"contracts/CCK/CC2/b.sol\":1584:1620  transferReceiver = _transferReceiver */\n  0xffffffffffffffffffffffffffffffffffffffff\n  and\n  0x80\n  dup2\n  0xffffffffffffffffffffffffffffffffffffffff\n  and\n  dup2\n  mstore\n  pop\n  pop\n    /* \"contracts/CCK/CC2/b.sol\":1646:1659  _tokenAddress */\n  dup1\n    /* \"contracts/CCK/CC2/b.sol\":1631:1659  tokenAddress = _tokenAddress */\n  0xffffffffffffffffffffffffffffffffffffffff\n  and\n  0xa0\n  dup2\n  0xffffffffffffffffffffffffffffffffffffffff\n  and\n  dup2\n  mstore\n  pop\n  pop\n    /* \"contracts/CCK/CC2/b.sol\":954:1667  constructor(... */\n  pop\n  pop\n  pop\n    /* \"contracts/CCK/CC2/b.sol\":337:6150  contract CCKToken is ERC20, Ownable, IERC3643 {... */\n  jump(tag_33)\n    /* \"@openzeppelin/contracts/access/Ownable.sol\":2912:3099  function _transferOwnership(address newOwner) internal virtual {... */\ntag_16:\n    /* \"@openzeppelin/contracts/access/Ownable.sol\":2985:3001  address oldOwner */\n  0x00\n    /* \"@openzeppelin/contracts/access/Ownable.sol\":3004:3010  _owner */\n  0x05\n  0x00\n  swap1\n  sload\n  swap1\n  0x0100\n  exp\n  swap1\n  div\n  0xffffffffffffffffffffffffffffffffffffffff\n  and\n    /* \"@openzeppelin/contracts/access/Ownable.sol\":2985:3010  address oldOwner = _owner */\n  swap1\n  pop\n    /* \"@openzeppelin/contracts/access/Ownable.sol\":3029:3037  newOwner */\n  dup2\n    /* \"@openzeppelin/contracts/access/Ownable.sol\":3020:3026  _owner */\n  0x05\n  0x00\n    /* \"@openzeppelin/contracts/access/Ownable.sol\":3020:3037  _owner = newOwner */\n  0x0100\n  exp\n  dup2\n  sload\n  dup2\n  0xffffffffffffffffffffffffffffffffffffffff\n  mul\n  not\n  and\n  swap1\n  dup4\n  0xffffffffffffffffffffffffffffffffffffffff\n  and\n  mul\n  or\n  swap1\n  sstore\n  pop\n    /* \"@openzeppelin/contracts/access/Ownable.sol\":3083:3091  newOwner */\n  dup2\n    /* \"@openzeppelin/contracts/access/Ownable.sol\":3052:3092  OwnershipTransferred(oldOwner, newOwner) */\n  0xffffffffffffffffffffffffffffffffffffffff\n  and\n    /* \"@openzeppelin/contracts/access/Ownable.sol\":3073:3081  oldOwner */\n  dup2\n    /* \"@openzeppelin/contracts/access/Ownable.sol\":3052:3092  OwnershipTransferred(oldOwner, newOwner) */\n  0xffffffffffffffffffffffffffffffffffffffff\n  and\n  0x8be0079c531659141344cd1fd0a4f28419497f9722a3daafe3b4186f6b6457e0\n  mload(0x40)\n  mload(0x40)\n  dup1\n  swap2\n  sub\n  swap1\n  log3\n    /* \"@openzeppelin/contracts/access/Ownable.sol\":2975:3099  {... */\n  pop\n    /* \"@openzeppelin/contracts/access/Ownable.sol\":2912:3099  function _transferOwnership(address newOwner) internal virtual {... */\n  pop\n  jump\t// out\n    /* \"#utility.yul\":7:82   */\ntag_35:\n    /* \"#utility.yul\":40:46   */\n  0x00\n    /* \"#utility.yul\":73:75   */\n  0x40\n    /* \"#utility.yul\":67:76   */\n  mload\n    /* \"#utility.yul\":57:76   */\n  swap1\n  pop\n    /* \"#utility.yul\":7:82   */\n  swap1\n  jump\t// out\n    /* \"#utility.yul\":88:205   */\ntag_36:\n    /* \"#utility.yul\":197:198   */\n  0x00\n    /* \"#utility.yul\":194:195   */\n  0x00\n    /* \"#utility.yul\":187:199   */\n  revert\n    /* \"#utility.yul\":211:328   */\ntag_37:\n    /* \"#utility.yul\":320:321   */\n  0x00\n    /* \"#utility.yul\":317:318   */\n  0x00\n    /* \"#utility.yul\":310:322   */\n  revert\n    /* \"#utility.yul\":334:451   */\ntag_38:\n    /* \"#utility.yul\":443:444   */\n  0x00\n    /* \"#utility.yul\":440:441   */\n  0x00\n    /* \"#utility.yul\":433:445   */\n  revert\n    /* \"#utility.yul\":457:559   */\ntag_39:\n    /* \"#utility.yul\":498:504   */\n  0x00\n    /* \"#utility.yul\":549:551   */\n  0x1f\n    /* \"#utility.yul\":545:552   */\n  not\n    /* \"#utility.yul\":540:542   */\n  0x1f\n    /* \"#utility.yul\":533:538   */\n  dup4\n    /* \"#utility.yul\":529:543   */\n  add\n    /* \"#utility.yul\":525:553   */\n  and\n    /* \"#utility.yul\":515:553   */\n  swap1\n  pop\n    /* \"#utility.yul\":457:559   */\n  swap2\n  swap1\n  pop\n  jump\t// out\n    /* \"#utility.yul\":565:745   */\ntag_40:\n    /* \"#utility.yul\":613:690   */\n  0x4e487b7100000000000000000000000000000000000000000000000000000000\n    /* \"#utility.yul\":610:611   */\n  0x00\n    /* \"#utility.yul\":603:691   */\n  mstore\n    /* \"#utility.yul\":710:714   */\n  0x41\n    /* \"#utility.yul\":707:708   */\n  0x04\n    /* \"#utility.yul\":700:715   */\n  mstore\n    /* \"#utility.yul\":734:738   */\n  0x24\n    /* \"#utility.yul\":731:732   */\n  0x00\n    /* \"#utility.yul\":724:739   */\n  revert\n    /* \"#utility.yul\":751:1032   */\ntag_41:\n    /* \"#utility.yul\":834:861   */\n  tag_86\n    /* \"#utility.yul\":856:860   */\n  dup3\n    /* \"#utility.yul\":834:861   */\n  tag_39\n  jump\t// in\ntag_86:\n    /* \"#utility.yul\":826:832   */\n  dup2\n    /* \"#utility.yul\":822:862   */\n  add\n    /* \"#utility.yul\":964:970   */\n  dup2\n    /* \"#utility.yul\":952:962   */\n  dup2\n    /* \"#utility.yul\":949:971   */\n  lt\n    /* \"#utility.yul\":928:946   */\n  0xffffffffffffffff\n    /* \"#utility.yul\":916:926   */\n  dup3\n    /* \"#utility.yul\":913:947   */\n  gt\n    /* \"#utility.yul\":910:972   */\n  or\n    /* \"#utility.yul\":907:995   */\n  iszero\n  tag_87\n  jumpi\n    /* \"#utility.yul\":975:993   */\n  tag_88\n  tag_40\n  jump\t// in\ntag_88:\n    /* \"#utility.yul\":907:995   */\ntag_87:\n    /* \"#utility.yul\":1015:1025   */\n  dup1\n    /* \"#utility.yul\":1011:1013   */\n  0x40\n    /* \"#utility.yul\":1004:1026   */\n  mstore\n    /* \"#utility.yul\":794:1032   */\n  pop\n    /* \"#utility.yul\":751:1032   */\n  pop\n  pop\n  jump\t// out\n    /* \"#utility.yul\":1038:1167   */\ntag_42:\n    /* \"#utility.yul\":1072:1078   */\n  0x00\n    /* \"#utility.yul\":1099:1119   */\n  tag_90\n  tag_35\n  jump\t// in\ntag_90:\n    /* \"#utility.yul\":1089:1119   */\n  swap1\n  pop\n    /* \"#utility.yul\":1128:1161   */\n  tag_91\n    /* \"#utility.yul\":1156:1160   */\n  dup3\n    /* \"#utility.yul\":1148:1154   */\n  dup3\n    /* \"#utility.yul\":1128:1161   */\n  tag_41\n  jump\t// in\ntag_91:\n    /* \"#utility.yul\":1038:1167   */\n  swap2\n  swap1\n  pop\n  jump\t// out\n    /* \"#utility.yul\":1173:1484   */\ntag_43:\n    /* \"#utility.yul\":1250:1254   */\n  0x00\n    /* \"#utility.yul\":1340:1358   */\n  0xffffffffffffffff\n    /* \"#utility.yul\":1332:1338   */\n  dup3\n    /* \"#utility.yul\":1329:1359   */\n  gt\n    /* \"#utility.yul\":1326:1382   */\n  iszero\n  tag_93\n  jumpi\n    /* \"#utility.yul\":1362:1380   */\n  tag_94\n  tag_40\n  jump\t// in\ntag_94:\n    /* \"#utility.yul\":1326:1382   */\ntag_93:\n    /* \"#utility.yul\":1412:1416   */\n  0x20\n    /* \"#utility.yul\":1404:1410   */\n  dup3\n    /* \"#utility.yul\":1400:1417   */\n  mul\n    /* \"#utility.yul\":1392:1417   */\n  swap1\n  pop\n    /* \"#utility.yul\":1472:1476   */\n  0x20\n    /* \"#utility.yul\":1466:1470   */\n  dup2\n    /* \"#utility.yul\":1462:1477   */\n  add\n    /* \"#utility.yul\":1454:1477   */\n  swap1\n  pop\n    /* \"#utility.yul\":1173:1484   */\n  swap2\n  swap1\n  pop\n  jump\t// out\n    /* \"#utility.yul\":1490:1607   */\ntag_44:\n    /* \"#utility.yul\":1599:1600   */\n  0x00\n    /* \"#utility.yul\":1596:1597   */\n  0x00\n    /* \"#utility.yul\":1589:1601   */\n  revert\n    /* \"#utility.yul\":1613:1739   */\ntag_45:\n    /* \"#utility.yul\":1650:1657   */\n  0x00\n    /* \"#utility.yul\":1690:1732   */\n  0xffffffffffffffffffffffffffffffffffffffff\n    /* \"#utility.yul\":1683:1688   */\n  dup3\n    /* \"#utility.yul\":1679:1733   */\n  and\n    /* \"#utility.yul\":1668:1733   */\n  swap1\n  pop\n    /* \"#utility.yul\":1613:1739   */\n  swap2\n  swap1\n  pop\n  jump\t// out\n    /* \"#utility.yul\":1745:1841   */\ntag_46:\n    /* \"#utility.yul\":1782:1789   */\n  0x00\n    /* \"#utility.yul\":1811:1835   */\n  tag_98\n    /* \"#utility.yul\":1829:1834   */\n  dup3\n    /* \"#utility.yul\":1811:1835   */\n  tag_45\n  jump\t// in\ntag_98:\n    /* \"#utility.yul\":1800:1835   */\n  swap1\n  pop\n    /* \"#utility.yul\":1745:1841   */\n  swap2\n  swap1\n  pop\n  jump\t// out\n    /* \"#utility.yul\":1847:1969   */\ntag_47:\n    /* \"#utility.yul\":1920:1944   */\n  tag_100\n    /* \"#utility.yul\":1938:1943   */\n  dup2\n    /* \"#utility.yul\":1920:1944   */\n  tag_46\n  jump\t// in\ntag_100:\n    /* \"#utility.yul\":1913:1918   */\n  dup2\n    /* \"#utility.yul\":1910:1945   */\n  eq\n    /* \"#utility.yul\":1900:1963   */\n  tag_101\n  jumpi\n    /* \"#utility.yul\":1959:1960   */\n  0x00\n    /* \"#utility.yul\":1956:1957   */\n  0x00\n    /* \"#utility.yul\":1949:1961   */\n  revert\n    /* \"#utility.yul\":1900:1963   */\ntag_101:\n    /* \"#utility.yul\":1847:1969   */\n  pop\n  jump\t// out\n    /* \"#utility.yul\":1975:2118   */\ntag_48:\n    /* \"#utility.yul\":2032:2037   */\n  0x00\n    /* \"#utility.yul\":2063:2069   */\n  dup2\n    /* \"#utility.yul\":2057:2070   */\n  mload\n    /* \"#utility.yul\":2048:2070   */\n  swap1\n  pop\n    /* \"#utility.yul\":2079:2112   */\n  tag_103\n    /* \"#utility.yul\":2106:2111   */\n  dup2\n    /* \"#utility.yul\":2079:2112   */\n  tag_47\n  jump\t// in\ntag_103:\n    /* \"#utility.yul\":1975:2118   */\n  swap3\n  swap2\n  pop\n  pop\n  jump\t// out\n    /* \"#utility.yul\":2141:2873   */\ntag_49:\n    /* \"#utility.yul\":2248:2253   */\n  0x00\n    /* \"#utility.yul\":2273:2354   */\n  tag_105\n    /* \"#utility.yul\":2289:2353   */\n  tag_106\n    /* \"#utility.yul\":2346:2352   */\n  dup5\n    /* \"#utility.yul\":2289:2353   */\n  tag_43\n  jump\t// in\ntag_106:\n    /* \"#utility.yul\":2273:2354   */\n  tag_42\n  jump\t// in\ntag_105:\n    /* \"#utility.yul\":2264:2354   */\n  swap1\n  pop\n    /* \"#utility.yul\":2374:2379   */\n  dup1\n    /* \"#utility.yul\":2403:2409   */\n  dup4\n    /* \"#utility.yul\":2396:2401   */\n  dup3\n    /* \"#utility.yul\":2389:2410   */\n  mstore\n    /* \"#utility.yul\":2437:2441   */\n  0x20\n    /* \"#utility.yul\":2430:2435   */\n  dup3\n    /* \"#utility.yul\":2426:2442   */\n  add\n    /* \"#utility.yul\":2419:2442   */\n  swap1\n  pop\n    /* \"#utility.yul\":2490:2494   */\n  0x20\n    /* \"#utility.yul\":2482:2488   */\n  dup5\n    /* \"#utility.yul\":2478:2495   */\n  mul\n    /* \"#utility.yul\":2470:2476   */\n  dup4\n    /* \"#utility.yul\":2466:2496   */\n  add\n    /* \"#utility.yul\":2519:2522   */\n  dup6\n    /* \"#utility.yul\":2511:2517   */\n  dup2\n    /* \"#utility.yul\":2508:2523   */\n  gt\n    /* \"#utility.yul\":2505:2627   */\n  iszero\n  tag_107\n  jumpi\n    /* \"#utility.yul\":2538:2617   */\n  tag_108\n  tag_44\n  jump\t// in\ntag_108:\n    /* \"#utility.yul\":2505:2627   */\ntag_107:\n    /* \"#utility.yul\":2653:2659   */\n  dup4\n    /* \"#utility.yul\":2636:2867   */\ntag_109:\n    /* \"#utility.yul\":2670:2676   */\n  dup2\n    /* \"#utility.yul\":2665:2668   */\n  dup2\n    /* \"#utility.yul\":2662:2677   */\n  lt\n    /* \"#utility.yul\":2636:2867   */\n  iszero\n  tag_111\n  jumpi\n    /* \"#utility.yul\":2745:2748   */\n  dup1\n    /* \"#utility.yul\":2774:2822   */\n  tag_112\n    /* \"#utility.yul\":2818:2821   */\n  dup9\n    /* \"#utility.yul\":2806:2816   */\n  dup3\n    /* \"#utility.yul\":2774:2822   */\n  tag_48\n  jump\t// in\ntag_112:\n    /* \"#utility.yul\":2769:2772   */\n  dup5\n    /* \"#utility.yul\":2762:2823   */\n  mstore\n    /* \"#utility.yul\":2852:2856   */\n  0x20\n    /* \"#utility.yul\":2847:2850   */\n  dup5\n    /* \"#utility.yul\":2843:2857   */\n  add\n    /* \"#utility.yul\":2836:2857   */\n  swap4\n  pop\n    /* \"#utility.yul\":2712:2867   */\n  pop\n    /* \"#utility.yul\":2696:2700   */\n  0x20\n    /* \"#utility.yul\":2691:2694   */\n  dup2\n    /* \"#utility.yul\":2687:2701   */\n  add\n    /* \"#utility.yul\":2680:2701   */\n  swap1\n  pop\n    /* \"#utility.yul\":2636:2867   */\n  jump(tag_109)\ntag_111:\n    /* \"#utility.yul\":2640:2661   */\n  pop\n    /* \"#utility.yul\":2254:2873   */\n  pop\n  pop\n    /* \"#utility.yul\":2141:2873   */\n  swap4\n  swap3\n  pop\n  pop\n  pop\n  jump\t// out\n    /* \"#utility.yul\":2896:3281   */\ntag_50:\n    /* \"#utility.yul\":2978:2983   */\n  0x00\n    /* \"#utility.yul\":3027:3030   */\n  dup3\n    /* \"#utility.yul\":3020:3024   */\n  0x1f\n    /* \"#utility.yul\":3012:3018   */\n  dup4\n    /* \"#utility.yul\":3008:3025   */\n  add\n    /* \"#utility.yul\":3004:3031   */\n  slt\n    /* \"#utility.yul\":2994:3116   */\n  tag_114\n  jumpi\n    /* \"#utility.yul\":3035:3114   */\n  tag_115\n  tag_38\n  jump\t// in\ntag_115:\n    /* \"#utility.yul\":2994:3116   */\ntag_114:\n    /* \"#utility.yul\":3145:3151   */\n  dup2\n    /* \"#utility.yul\":3139:3152   */\n  mload\n    /* \"#utility.yul\":3170:3275   */\n  tag_116\n    /* \"#utility.yul\":3271:3274   */\n  dup5\n    /* \"#utility.yul\":3263:3269   */\n  dup3\n    /* \"#utility.yul\":3256:3260   */\n  0x20\n    /* \"#utility.yul\":3248:3254   */\n  dup7\n    /* \"#utility.yul\":3244:3261   */\n  add\n    /* \"#utility.yul\":3170:3275   */\n  tag_49\n  jump\t// in\ntag_116:\n    /* \"#utility.yul\":3161:3275   */\n  swap2\n  pop\n    /* \"#utility.yul\":2984:3281   */\n  pop\n    /* \"#utility.yul\":2896:3281   */\n  swap3\n  swap2\n  pop\n  pop\n  jump\t// out\n    /* \"#utility.yul\":3287:4153   */\ntag_3:\n    /* \"#utility.yul\":3400:3406   */\n  0x00\n    /* \"#utility.yul\":3408:3414   */\n  0x00\n    /* \"#utility.yul\":3416:3422   */\n  0x00\n    /* \"#utility.yul\":3465:3467   */\n  0x60\n    /* \"#utility.yul\":3453:3462   */\n  dup5\n    /* \"#utility.yul\":3444:3451   */\n  dup7\n    /* \"#utility.yul\":3440:3463   */\n  sub\n    /* \"#utility.yul\":3436:3468   */\n  slt\n    /* \"#utility.yul\":3433:3552   */\n  iszero\n  tag_118\n  jumpi\n    /* \"#utility.yul\":3471:3550   */\n  tag_119\n  tag_36\n  jump\t// in\ntag_119:\n    /* \"#utility.yul\":3433:3552   */\ntag_118:\n    /* \"#utility.yul\":3612:3613   */\n  0x00\n    /* \"#utility.yul\":3601:3610   */\n  dup5\n    /* \"#utility.yul\":3597:3614   */\n  add\n    /* \"#utility.yul\":3591:3615   */\n  mload\n    /* \"#utility.yul\":3642:3660   */\n  0xffffffffffffffff\n    /* \"#utility.yul\":3634:3640   */\n  dup2\n    /* \"#utility.yul\":3631:3661   */\n  gt\n    /* \"#utility.yul\":3628:3745   */\n  iszero\n  tag_120\n  jumpi\n    /* \"#utility.yul\":3664:3743   */\n  tag_121\n  tag_37\n  jump\t// in\ntag_121:\n    /* \"#utility.yul\":3628:3745   */\ntag_120:\n    /* \"#utility.yul\":3769:3858   */\n  tag_122\n    /* \"#utility.yul\":3850:3857   */\n  dup7\n    /* \"#utility.yul\":3841:3847   */\n  dup3\n    /* \"#utility.yul\":3830:3839   */\n  dup8\n    /* \"#utility.yul\":3826:3848   */\n  add\n    /* \"#utility.yul\":3769:3858   */\n  tag_50\n  jump\t// in\ntag_122:\n    /* \"#utility.yul\":3759:3858   */\n  swap4\n  pop\n    /* \"#utility.yul\":3562:3868   */\n  pop\n    /* \"#utility.yul\":3907:3909   */\n  0x20\n    /* \"#utility.yul\":3933:3997   */\n  tag_123\n    /* \"#utility.yul\":3989:3996   */\n  dup7\n    /* \"#utility.yul\":3980:3986   */\n  dup3\n    /* \"#utility.yul\":3969:3978   */\n  dup8\n    /* \"#utility.yul\":3965:3987   */\n  add\n    /* \"#utility.yul\":3933:3997   */\n  tag_48\n  jump\t// in\ntag_123:\n    /* \"#utility.yul\":3923:3997   */\n  swap3\n  pop\n    /* \"#utility.yul\":3878:4007   */\n  pop\n    /* \"#utility.yul\":4046:4048   */\n  0x40\n    /* \"#utility.yul\":4072:4136   */\n  tag_124\n    /* \"#utility.yul\":4128:4135   */\n  dup7\n    /* \"#utility.yul\":4119:4125   */\n  dup3\n    /* \"#utility.yul\":4108:4117   */\n  dup8\n    /* \"#utility.yul\":4104:4126   */\n  add\n    /* \"#utility.yul\":4072:4136   */\n  tag_48\n  jump\t// in\ntag_124:\n    /* \"#utility.yul\":4062:4136   */\n  swap2\n  pop\n    /* \"#utility.yul\":4017:4146   */\n  pop\n    /* \"#utility.yul\":3287:4153   */\n  swap3\n  pop\n  swap3\n  pop\n  swap3\n  jump\t// out\n    /* \"#utility.yul\":4159:4258   */\ntag_51:\n    /* \"#utility.yul\":4211:4217   */\n  0x00\n    /* \"#utility.yul\":4245:4250   */\n  dup2\n    /* \"#utility.yul\":4239:4251   */\n  mload\n    /* \"#utility.yul\":4229:4251   */\n  swap1\n  pop\n    /* \"#utility.yul\":4159:4258   */\n  swap2\n  swap1\n  pop\n  jump\t// out\n    /* \"#utility.yul\":4264:4444   */\ntag_52:\n    /* \"#utility.yul\":4312:4389   */\n  0x4e487b7100000000000000000000000000000000000000000000000000000000\n    /* \"#utility.yul\":4309:4310   */\n  0x00\n    /* \"#utility.yul\":4302:4390   */\n  mstore\n    /* \"#utility.yul\":4409:4413   */\n  0x22\n    /* \"#utility.yul\":4406:4407   */\n  0x04\n    /* \"#utility.yul\":4399:4414   */\n  mstore\n    /* \"#utility.yul\":4433:4437   */\n  0x24\n    /* \"#utility.yul\":4430:4431   */\n  0x00\n    /* \"#utility.yul\":4423:4438   */\n  revert\n    /* \"#utility.yul\":4450:4770   */\ntag_53:\n    /* \"#utility.yul\":4494:4500   */\n  0x00\n    /* \"#utility.yul\":4531:4532   */\n  0x02\n    /* \"#utility.yul\":4525:4529   */\n  dup3\n    /* \"#utility.yul\":4521:4533   */\n  div\n    /* \"#utility.yul\":4511:4533   */\n  swap1\n  pop\n    /* \"#utility.yul\":4578:4579   */\n  0x01\n    /* \"#utility.yul\":4572:4576   */\n  dup3\n    /* \"#utility.yul\":4568:4580   */\n  and\n    /* \"#utility.yul\":4599:4617   */\n  dup1\n    /* \"#utility.yul\":4589:4670   */\n  tag_128\n  jumpi\n    /* \"#utility.yul\":4655:4659   */\n  0x7f\n    /* \"#utility.yul\":4647:4653   */\n  dup3\n    /* \"#utility.yul\":4643:4660   */\n  and\n    /* \"#utility.yul\":4633:4660   */\n  swap2\n  pop\n    /* \"#utility.yul\":4589:4670   */\ntag_128:\n    /* \"#utility.yul\":4717:4719   */\n  0x20\n    /* \"#utility.yul\":4709:4715   */\n  dup3\n    /* \"#utility.yul\":4706:4720   */\n  lt\n    /* \"#utility.yul\":4686:4704   */\n  dup2\n    /* \"#utility.yul\":4683:4721   */\n  sub\n    /* \"#utility.yul\":4680:4764   */\n  tag_129\n  jumpi\n    /* \"#utility.yul\":4736:4754   */\n  tag_130\n  tag_52\n  jump\t// in\ntag_130:\n    /* \"#utility.yul\":4680:4764   */\ntag_129:\n    /* \"#utility.yul\":4501:4770   */\n  pop\n    /* \"#utility.yul\":4450:4770   */\n  swap2\n  swap1\n  pop\n  jump\t// out\n    /* \"#utility.yul\":4776:4917   */\ntag_54:\n    /* \"#utility.yul\":4825:4829   */\n  0x00\n    /* \"#utility.yul\":4848:4851   */\n  dup2\n    /* \"#utility.yul\":4840:4851   */\n  swap1\n  pop\n    /* \"#utility.yul\":4871:4874   */\n  dup2\n    /* \"#utility.yul\":4868:4869   */\n  0x00\n    /* \"#utility.yul\":4861:4875   */\n  mstore\n    /* \"#utility.yul\":4905:4909   */\n  0x20\n    /* \"#utility.yul\":4902:4903   */\n  0x00\n    /* \"#utility.yul\":4892:4910   */\n  keccak256\n    /* \"#utility.yul\":4884:4910   */\n  swap1\n  pop\n    /* \"#utility.yul\":4776:4917   */\n  swap2\n  swap1\n  pop\n  jump\t// out\n    /* \"#utility.yul\":4923:5016   */\ntag_55:\n    /* \"#utility.yul\":4960:4966   */\n  0x00\n    /* \"#utility.yul\":5007:5009   */\n  0x20\n    /* \"#utility.yul\":5002:5004   */\n  0x1f\n    /* \"#utility.yul\":4995:5000   */\n  dup4\n    /* \"#utility.yul\":4991:5005   */\n  add\n    /* \"#utility.yul\":4987:5010   */\n  div\n    /* \"#utility.yul\":4977:5010   */\n  swap1\n  pop\n    /* \"#utility.yul\":4923:5016   */\n  swap2\n  swap1\n  pop\n  jump\t// out\n    /* \"#utility.yul\":5022:5129   */\ntag_56:\n    /* \"#utility.yul\":5066:5074   */\n  0x00\n    /* \"#utility.yul\":5116:5121   */\n  dup3\n    /* \"#utility.yul\":5110:5114   */\n  dup3\n    /* \"#utility.yul\":5106:5122   */\n  shl\n    /* \"#utility.yul\":5085:5122   */\n  swap1\n  pop\n    /* \"#utility.yul\":5022:5129   */\n  swap3\n  swap2\n  pop\n  pop\n  jump\t// out\n    /* \"#utility.yul\":5135:5528   */\ntag_57:\n    /* \"#utility.yul\":5204:5210   */\n  0x00\n    /* \"#utility.yul\":5254:5255   */\n  0x08\n    /* \"#utility.yul\":5242:5252   */\n  dup4\n    /* \"#utility.yul\":5238:5256   */\n  mul\n    /* \"#utility.yul\":5277:5374   */\n  tag_135\n    /* \"#utility.yul\":5307:5373   */\n  0xffffffffffffffffffffffffffffffffffffffffffffffffffffffffffffffff\n    /* \"#utility.yul\":5296:5305   */\n  dup3\n    /* \"#utility.yul\":5277:5374   */\n  tag_56\n  jump\t// in\ntag_135:\n    /* \"#utility.yul\":5395:5434   */\n  tag_136\n    /* \"#utility.yul\":5425:5433   */\n  dup7\n    /* \"#utility.yul\":5414:5423   */\n  dup4\n    /* \"#utility.yul\":5395:5434   */\n  tag_56\n  jump\t// in\ntag_136:\n    /* \"#utility.yul\":5383:5434   */\n  swap6\n  pop\n    /* \"#utility.yul\":5467:5471   */\n  dup1\n    /* \"#utility.yul\":5463:5472   */\n  not\n    /* \"#utility.yul\":5456:5461   */\n  dup5\n    /* \"#utility.yul\":5452:5473   */\n  and\n    /* \"#utility.yul\":5443:5473   */\n  swap4\n  pop\n    /* \"#utility.yul\":5516:5520   */\n  dup1\n    /* \"#utility.yul\":5506:5514   */\n  dup7\n    /* \"#utility.yul\":5502:5521   */\n  and\n    /* \"#utility.yul\":5495:5500   */\n  dup5\n    /* \"#utility.yul\":5492:5522   */\n  or\n    /* \"#utility.yul\":5482:5522   */\n  swap3\n  pop\n    /* \"#utility.yul\":5211:5528   */\n  pop\n  pop\n    /* \"#utility.yul\":5135:5528   */\n  swap4\n  swap3\n  pop\n  pop\n  pop\n  jump\t// out\n    /* \"#utility.yul\":5534:5611   */\ntag_58:\n    /* \"#utility.yul\":5571:5578   */\n  0x00\n    /* \"#utility.yul\":5600:5605   */\n  dup2\n    /* \"#utility.yul\":5589:5605   */\n  swap1\n  pop\n    /* \"#utility.yul\":5534:5611   */\n  swap2\n  swap1\n  pop\n  jump\t// out\n    /* \"#utility.yul\":5617:5677   */\ntag_59:\n    /* \"#utility.yul\":5645:5648   */\n  0x00\n    /* \"#utility.yul\":5666:5671   */\n  dup2\n    /* \"#utility.yul\":5659:5671   */\n  swap1\n  pop\n    /* \"#utility.yul\":5617:5677   */\n  swap2\n  swap1\n  pop\n  jump\t// out\n    /* \"#utility.yul\":5683:5825   */\ntag_60:\n    /* \"#utility.yul\":5733:5742   */\n  0x00\n    /* \"#utility.yul\":5766:5819   */\n  tag_140\n    /* \"#utility.yul\":5784:5818   */\n  tag_141\n    /* \"#utility.yul\":5793:5817   */\n  tag_142\n    /* \"#utility.yul\":5811:5816   */\n  dup5\n    /* \"#utility.yul\":5793:5817   */\n  tag_58\n  jump\t// in\ntag_142:\n    /* \"#utility.yul\":5784:5818   */\n  tag_59\n  jump\t// in\ntag_141:\n    /* \"#utility.yul\":5766:5819   */\n  tag_58\n  jump\t// in\ntag_140:\n    /* \"#utility.yul\":5753:5819   */\n  swap1\n  pop\n    /* \"#utility.yul\":5683:5825   */\n  swap2\n  swap1\n  pop\n  jump\t// out\n    /* \"#utility.yul\":5831:5906   */\ntag_61:\n    /* \"#utility.yul\":5874:5877   */\n  0x00\n    /* \"#utility.yul\":5895:5900   */\n  dup2\n    /* \"#utility.yul\":5888:5900   */\n  swap1\n  pop\n    /* \"#utility.yul\":5831:5906   */\n  swap2\n  swap1\n  pop\n  jump\t// out\n    /* \"#utility.yul\":5912:6181   */\ntag_62:\n    /* \"#utility.yul\":6022:6061   */\n  tag_145\n    /* \"#utility.yul\":6053:6060   */\n  dup4\n    /* \"#utility.yul\":6022:6061   */\n  tag_60\n  jump\t// in\ntag_145:\n    /* \"#utility.yul\":6083:6174   */\n  tag_146\n    /* \"#utility.yul\":6132:6173   */\n  tag_147\n    /* \"#utility.yul\":6156:6172   */\n  dup3\n    /* \"#utility.yul\":6132:6173   */\n  tag_61\n  jump\t// in\ntag_147:\n    /* \"#utility.yul\":6124:6130   */\n  dup5\n    /* \"#utility.yul\":6117:6121   */\n  dup5\n    /* \"#utility.yul\":6111:6122   */\n  sload\n    /* \"#utility.yul\":6083:6174   */\n  tag_57\n  jump\t// in\ntag_146:\n    /* \"#utility.yul\":6077:6081   */\n  dup3\n    /* \"#utility.yul\":6070:6175   */\n  sstore\n    /* \"#utility.yul\":5988:6181   */\n  pop\n    /* \"#utility.yul\":5912:6181   */\n  pop\n  pop\n  pop\n  jump\t// out\n    /* \"#utility.yul\":6187:6260   */\ntag_63:\n    /* \"#utility.yul\":6232:6235   */\n  0x00\n    /* \"#utility.yul\":6253:6254   */\n  0x00\n    /* \"#utility.yul\":6246:6254   */\n  swap1\n  pop\n    /* \"#utility.yul\":6187:6260   */\n  swap1\n  jump\t// out\n    /* \"#utility.yul\":6266:6455   */\ntag_64:\n    /* \"#utility.yul\":6343:6375   */\n  tag_150\n  tag_63\n  jump\t// in\ntag_150:\n    /* \"#utility.yul\":6384:6449   */\n  tag_151\n    /* \"#utility.yul\":6442:6448   */\n  dup2\n    /* \"#utility.yul\":6434:6440   */\n  dup5\n    /* \"#utility.yul\":6428:6432   */\n  dup5\n    /* \"#utility.yul\":6384:6449   */\n  tag_62\n  jump\t// in\ntag_151:\n    /* \"#utility.yul\":6319:6455   */\n  pop\n    /* \"#utility.yul\":6266:6455   */\n  pop\n  pop\n  jump\t// out\n    /* \"#utility.yul\":6461:6647   */\ntag_65:\n    /* \"#utility.yul\":6521:6641   */\ntag_153:\n    /* \"#utility.yul\":6538:6541   */\n  dup2\n    /* \"#utility.yul\":6531:6536   */\n  dup2\n    /* \"#utility.yul\":6528:6542   */\n  lt\n    /* \"#utility.yul\":6521:6641   */\n  iszero\n  tag_155\n  jumpi\n    /* \"#utility.yul\":6592:6631   */\n  tag_156\n    /* \"#utility.yul\":6629:6630   */\n  0x00\n    /* \"#utility.yul\":6622:6627   */\n  dup3\n    /* \"#utility.yul\":6592:6631   */\n  tag_64\n  jump\t// in\ntag_156:\n    /* \"#utility.yul\":6565:6566   */\n  0x01\n    /* \"#utility.yul\":6558:6563   */\n  dup2\n    /* \"#utility.yul\":6554:6567   */\n  add\n    /* \"#utility.yul\":6545:6567   */\n  swap1\n  pop\n    /* \"#utility.yul\":6521:6641   */\n  jump(tag_153)\ntag_155:\n    /* \"#utility.yul\":6461:6647   */\n  pop\n  pop\n  jump\t// out\n    /* \"#utility.yul\":6653:7196   */\ntag_66:\n    /* \"#utility.yul\":6754:6756   */\n  0x1f\n    /* \"#utility.yul\":6749:6752   */\n  dup3\n    /* \"#utility.yul\":6746:6757   */\n  gt\n    /* \"#utility.yul\":6743:7189   */\n  iszero\n  tag_158\n  jumpi\n    /* \"#utility.yul\":6788:6826   */\n  tag_159\n    /* \"#utility.yul\":6820:6825   */\n  dup2\n    /* \"#utility.yul\":6788:6826   */\n  tag_54\n  jump\t// in\ntag_159:\n    /* \"#utility.yul\":6872:6901   */\n  tag_160\n    /* \"#utility.yul\":6890:6900   */\n  dup5\n    /* \"#utility.yul\":6872:6901   */\n  tag_55\n  jump\t// in\ntag_160:\n    /* \"#utility.yul\":6862:6870   */\n  dup2\n    /* \"#utility.yul\":6858:6902   */\n  add\n    /* \"#utility.yul\":7055:7057   */\n  0x20\n    /* \"#utility.yul\":7043:7053   */\n  dup6\n    /* \"#utility.yul\":7040:7058   */\n  lt\n    /* \"#utility.yul\":7037:7086   */\n  iszero\n  tag_161\n  jumpi\n    /* \"#utility.yul\":7076:7084   */\n  dup2\n    /* \"#utility.yul\":7061:7084   */\n  swap1\n  pop\n    /* \"#utility.yul\":7037:7086   */\ntag_161:\n    /* \"#utility.yul\":7099:7179   */\n  tag_162\n    /* \"#utility.yul\":7155:7177   */\n  tag_163\n    /* \"#utility.yul\":7173:7176   */\n  dup6\n    /* \"#utility.yul\":7155:7177   */\n  tag_55\n  jump\t// in\ntag_163:\n    /* \"#utility.yul\":7145:7153   */\n  dup4\n    /* \"#utility.yul\":7141:7178   */\n  add\n    /* \"#utility.yul\":7128:7139   */\n  dup3\n    /* \"#utility.yul\":7099:7179   */\n  tag_65\n  jump\t// in\ntag_162:\n    /* \"#utility.yul\":6758:7189   */\n  pop\n  pop\n    /* \"#utility.yul\":6743:7189   */\ntag_158:\n    /* \"#utility.yul\":6653:7196   */\n  pop\n  pop\n  pop\n  jump\t// out\n    /* \"#utility.yul\":7202:7319   */\ntag_67:\n    /* \"#utility.yul\":7256:7264   */\n  0x00\n    /* \"#utility.yul\":7306:7311   */\n  dup3\n    /* \"#utility.yul\":7300:7304   */\n  dup3\n    /* \"#utility.yul\":7296:7312   */\n  shr\n    /* \"#utility.yul\":7275:7312   */\n  swap1\n  pop\n    /* \"#utility.yul\":7202:7319   */\n  swap3\n  swap2\n  pop\n  pop\n  jump\t// out\n    /* \"#utility.yul\":7325:7494   */\ntag_68:\n    /* \"#utility.yul\":7369:7375   */\n  0x00\n    /* \"#utility.yul\":7402:7453   */\n  tag_166\n    /* \"#utility.yul\":7450:7451   */\n  0x00\n    /* \"#utility.yul\":7446:7452   */\n  not\n    /* \"#utility.yul\":7438:7443   */\n  dup5\n    /* \"#utility.yul\":7435:7436   */\n  0x08\n    /* \"#utility.yul\":7431:7444   */\n  mul\n    /* \"#utility.yul\":7402:7453   */\n  tag_67\n  jump\t// in\ntag_166:\n    /* \"#utility.yul\":7398:7454   */\n  not\n    /* \"#utility.yul\":7483:7487   */\n  dup1\n    /* \"#utility.yul\":7477:7481   */\n  dup4\n    /* \"#utility.yul\":7473:7488   */\n  and\n    /* \"#utility.yul\":7463:7488   */\n  swap2\n  pop\n    /* \"#utility.yul\":7376:7494   */\n  pop\n    /* \"#utility.yul\":7325:7494   */\n  swap3\n  swap2\n  pop\n  pop\n  jump\t// out\n    /* \"#utility.yul\":7499:7794   */\ntag_69:\n    /* \"#utility.yul\":7575:7579   */\n  0x00\n    /* \"#utility.yul\":7721:7750   */\n  tag_168\n    /* \"#utility.yul\":7746:7749   */\n  dup4\n    /* \"#utility.yul\":7740:7744   */\n  dup4\n    /* \"#utility.yul\":7721:7750   */\n  tag_68\n  jump\t// in\ntag_168:\n    /* \"#utility.yul\":7713:7750   */\n  swap2\n  pop\n    /* \"#utility.yul\":7783:7786   */\n  dup3\n    /* \"#utility.yul\":7780:7781   */\n  0x02\n    /* \"#utility.yul\":7776:7787   */\n  mul\n    /* \"#utility.yul\":7770:7774   */\n  dup3\n    /* \"#utility.yul\":7767:7788   */\n  or\n    /* \"#utility.yul\":7759:7788   */\n  swap1\n  pop\n    /* \"#utility.yul\":7499:7794   */\n  swap3\n  swap2\n  pop\n  pop\n  jump\t// out\n    /* \"#utility.yul\":7799:9194   */\ntag_9:\n    /* \"#utility.yul\":7916:7953   */\n  tag_170\n    /* \"#utility.yul\":7949:7952   */\n  dup3\n    /* \"#utility.yul\":7916:7953   */\n  tag_51\n  jump\t// in\ntag_170:\n    /* \"#utility.yul\":8018:8036   */\n  0xffffffffffffffff\n    /* \"#utility.yul\":8010:8016   */\n  dup2\n    /* \"#utility.yul\":8007:8037   */\n  gt\n    /* \"#utility.yul\":8004:8060   */\n  iszero\n  tag_171\n  jumpi\n    /* \"#utility.yul\":8040:8058   */\n  tag_172\n  tag_40\n  jump\t// in\ntag_172:\n    /* \"#utility.yul\":8004:8060   */\ntag_171:\n    /* \"#utility.yul\":8084:8122   */\n  tag_173\n    /* \"#utility.yul\":8116:8120   */\n  dup3\n    /* \"#utility.yul\":8110:8121   */\n  sload\n    /* \"#utility.yul\":8084:8122   */\n  tag_53\n  jump\t// in\ntag_173:\n    /* \"#utility.yul\":8169:8236   */\n  tag_174\n    /* \"#utility.yul\":8229:8235   */\n  dup3\n    /* \"#utility.yul\":8221:8227   */\n  dup3\n    /* \"#utility.yul\":8215:8219   */\n  dup6\n    /* \"#utility.yul\":8169:8236   */\n  tag_66\n  jump\t// in\ntag_174:\n    /* \"#utility.yul\":8263:8264   */\n  0x00\n    /* \"#utility.yul\":8287:8291   */\n  0x20\n    /* \"#utility.yul\":8274:8291   */\n  swap1\n  pop\n    /* \"#utility.yul\":8319:8321   */\n  0x1f\n    /* \"#utility.yul\":8311:8317   */\n  dup4\n    /* \"#utility.yul\":8308:8322   */\n  gt\n    /* \"#utility.yul\":8336:8337   */\n  0x01\n    /* \"#utility.yul\":8331:8949   */\n  dup2\n  eq\n  tag_176\n  jumpi\n    /* \"#utility.yul\":8993:8994   */\n  0x00\n    /* \"#utility.yul\":9010:9016   */\n  dup5\n    /* \"#utility.yul\":9007:9084   */\n  iszero\n  tag_177\n  jumpi\n    /* \"#utility.yul\":9059:9068   */\n  dup3\n    /* \"#utility.yul\":9054:9057   */\n  dup8\n    /* \"#utility.yul\":9050:9069   */\n  add\n    /* \"#utility.yul\":9044:9070   */\n  mload\n    /* \"#utility.yul\":9035:9070   */\n  swap1\n  pop\n    /* \"#utility.yul\":9007:9084   */\ntag_177:\n    /* \"#utility.yul\":9110:9177   */\n  tag_178\n    /* \"#utility.yul\":9170:9176   */\n  dup6\n    /* \"#utility.yul\":9163:9168   */\n  dup3\n    /* \"#utility.yul\":9110:9177   */\n  tag_69\n  jump\t// in\ntag_178:\n    /* \"#utility.yul\":9104:9108   */\n  dup7\n    /* \"#utility.yul\":9097:9178   */\n  sstore\n    /* \"#utility.yul\":8966:9188   */\n  pop\n    /* \"#utility.yul\":8301:9188   */\n  jump(tag_175)\n    /* \"#utility.yul\":8331:8949   */\ntag_176:\n    /* \"#utility.yul\":8383:8387   */\n  0x1f\n    /* \"#utility.yul\":8379:8388   */\n  not\n    /* \"#utility.yul\":8371:8377   */\n  dup5\n    /* \"#utility.yul\":8367:8389   */\n  and\n    /* \"#utility.yul\":8417:8454   */\n  tag_179\n    /* \"#utility.yul\":8449:8453   */\n  dup7\n    /* \"#utility.yul\":8417:8454   */\n  tag_54\n  jump\t// in\ntag_179:\n    /* \"#utility.yul\":8476:8477   */\n  0x00\n    /* \"#utility.yul\":8490:8698   */\ntag_180:\n    /* \"#utility.yul\":8504:8511   */\n  dup3\n    /* \"#utility.yul\":8501:8502   */\n  dup2\n    /* \"#utility.yul\":8498:8512   */\n  lt\n    /* \"#utility.yul\":8490:8698   */\n  iszero\n  tag_182\n  jumpi\n    /* \"#utility.yul\":8583:8592   */\n  dup5\n    /* \"#utility.yul\":8578:8581   */\n  dup10\n    /* \"#utility.yul\":8574:8593   */\n  add\n    /* \"#utility.yul\":8568:8594   */\n  mload\n    /* \"#utility.yul\":8560:8566   */\n  dup3\n    /* \"#utility.yul\":8553:8595   */\n  sstore\n    /* \"#utility.yul\":8634:8635   */\n  0x01\n    /* \"#utility.yul\":8626:8632   */\n  dup3\n    /* \"#utility.yul\":8622:8636   */\n  add\n    /* \"#utility.yul\":8612:8636   */\n  swap2\n  pop\n    /* \"#utility.yul\":8681:8683   */\n  0x20\n    /* \"#utility.yul\":8670:8679   */\n  dup6\n    /* \"#utility.yul\":8666:8684   */\n  add\n    /* \"#utility.yul\":8653:8684   */\n  swap5\n  pop\n    /* \"#utility.yul\":8527:8531   */\n  0x20\n    /* \"#utility.yul\":8524:8525   */\n  dup2\n    /* \"#utility.yul\":8520:8532   */\n  add\n    /* \"#utility.yul\":8515:8532   */\n  swap1\n  pop\n    /* \"#utility.yul\":8490:8698   */\n  jump(tag_180)\ntag_182:\n    /* \"#utility.yul\":8726:8732   */\n  dup7\n    /* \"#utility.yul\":8717:8724   */\n  dup4\n    /* \"#utility.yul\":8714:8733   */\n  lt\n    /* \"#utility.yul\":8711:8890   */\n  iszero\n  tag_183\n  jumpi\n    /* \"#utility.yul\":8784:8793   */\n  dup5\n    /* \"#utility.yul\":8779:8782   */\n  dup10\n    /* \"#utility.yul\":8775:8794   */\n  add\n    /* \"#utility.yul\":8769:8795   */\n  mload\n    /* \"#utility.yul\":8827:8875   */\n  tag_184\n    /* \"#utility.yul\":8869:8873   */\n  0x1f\n    /* \"#utility.yul\":8861:8867   */\n  dup10\n    /* \"#utility.yul\":8857:8874   */\n  and\n    /* \"#utility.yul\":8846:8855   */\n  dup3\n    /* \"#utility.yul\":8827:8875   */\n  tag_68\n  jump\t// in\ntag_184:\n    /* \"#utility.yul\":8819:8825   */\n  dup4\n    /* \"#utility.yul\":8812:8876   */\n  sstore\n    /* \"#utility.yul\":8734:8890   */\n  pop\n    /* \"#utility.yul\":8711:8890   */\ntag_183:\n    /* \"#utility.yul\":8936:8937   */\n  0x01\n    /* \"#utility.yul\":8932:8933   */\n  0x02\n    /* \"#utility.yul\":8924:8930   */\n  dup9\n    /* \"#utility.yul\":8920:8934   */\n  mul\n    /* \"#utility.yul\":8916:8938   */\n  add\n    /* \"#utility.yul\":8910:8914   */\n  dup9\n    /* \"#utility.yul\":8903:8939   */\n  sstore\n    /* \"#utility.yul\":8338:8949   */\n  pop\n  pop\n  pop\n    /* \"#utility.yul\":8301:9188   */\ntag_175:\n  pop\n    /* \"#utility.yul\":7891:9194   */\n  pop\n  pop\n  pop\n    /* \"#utility.yul\":7799:9194   */\n  pop\n  pop\n  jump\t// out\n    /* \"#utility.yul\":9200:9318   */\ntag_70:\n    /* \"#utility.yul\":9287:9311   */\n  tag_186\n    /* \"#utility.yul\":9305:9310   */\n  dup2\n    /* \"#utility.yul\":9287:9311   */\n  tag_46\n  jump\t// in\ntag_186:\n    /* \"#utility.yul\":9282:9285   */\n  dup3\n    /* \"#utility.yul\":9275:9312   */\n  mstore\n    /* \"#utility.yul\":9200:9318   */\n  pop\n  pop\n  jump\t// out\n    /* \"#utility.yul\":9324:9546   */\ntag_14:\n    /* \"#utility.yul\":9417:9421   */\n  0x00\n    /* \"#utility.yul\":9455:9457   */\n  0x20\n    /* \"#utility.yul\":9444:9453   */\n  dup3\n    /* \"#utility.yul\":9440:9458   */\n  add\n    /* \"#utility.yul\":9432:9458   */\n  swap1\n  pop\n    /* \"#utility.yul\":9468:9539   */\n  tag_188\n    /* \"#utility.yul\":9536:9537   */\n  0x00\n    /* \"#utility.yul\":9525:9534   */\n  dup4\n    /* \"#utility.yul\":9521:9538   */\n  add\n    /* \"#utility.yul\":9512:9518   */\n  dup5\n    /* \"#utility.yul\":9468:9539   */\n  tag_70\n  jump\t// in\ntag_188:\n    /* \"#utility.yul\":9324:9546   */\n  swap3\n  swap2\n  pop\n  pop\n  jump\t// out\n    /* \"#utility.yul\":9552:9721   */\ntag_71:\n    /* \"#utility.yul\":9636:9647   */\n  0x00\n    /* \"#utility.yul\":9670:9676   */\n  dup3\n    /* \"#utility.yul\":9665:9668   */\n  dup3\n    /* \"#utility.yul\":9658:9677   */\n  mstore\n    /* \"#utility.yul\":9710:9714   */\n  0x20\n    /* \"#utility.yul\":9705:9708   */\n  dup3\n    /* \"#utility.yul\":9701:9715   */\n  add\n    /* \"#utility.yul\":9686:9715   */\n  swap1\n  pop\n    /* \"#utility.yul\":9552:9721   */\n  swap3\n  swap2\n  pop\n  pop\n  jump\t// out\n    /* \"#utility.yul\":9727:9955   */\ntag_72:\n    /* \"#utility.yul\":9867:9901   */\n  0x4174206c65617374206f6e652077686974656c69737465642061646472657373\n    /* \"#utility.yul\":9863:9864   */\n  0x00\n    /* \"#utility.yul\":9855:9861   */\n  dup3\n    /* \"#utility.yul\":9851:9865   */\n  add\n    /* \"#utility.yul\":9844:9902   */\n  mstore\n    /* \"#utility.yul\":9936:9947   */\n  0x2072657175697265640000000000000000000000000000000000000000000000\n    /* \"#utility.yul\":9931:9933   */\n  0x20\n    /* \"#utility.yul\":9923:9929   */\n  dup3\n    /* \"#utility.yul\":9919:9934   */\n  add\n    /* \"#utility.yul\":9912:9948   */\n  mstore\n    /* \"#utility.yul\":9727:9955   */\n  pop\n  jump\t// out\n    /* \"#utility.yul\":9961:10327   */\ntag_73:\n    /* \"#utility.yul\":10103:10106   */\n  0x00\n    /* \"#utility.yul\":10124:10191   */\n  tag_192\n    /* \"#utility.yul\":10188:10190   */\n  0x29\n    /* \"#utility.yul\":10183:10186   */\n  dup4\n    /* \"#utility.yul\":10124:10191   */\n  tag_71\n  jump\t// in\ntag_192:\n    /* \"#utility.yul\":10117:10191   */\n  swap2\n  pop\n    /* \"#utility.yul\":10200:10293   */\n  tag_193\n    /* \"#utility.yul\":10289:10292   */\n  dup3\n    /* \"#utility.yul\":10200:10293   */\n  tag_72\n  jump\t// in\ntag_193:\n    /* \"#utility.yul\":10318:10320   */\n  0x40\n    /* \"#utility.yul\":10313:10316   */\n  dup3\n    /* \"#utility.yul\":10309:10321   */\n  add\n    /* \"#utility.yul\":10302:10321   */\n  swap1\n  pop\n    /* \"#utility.yul\":9961:10327   */\n  swap2\n  swap1\n  pop\n  jump\t// out\n    /* \"#utility.yul\":10333:10752   */\ntag_20:\n    /* \"#utility.yul\":10499:10503   */\n  0x00\n    /* \"#utility.yul\":10537:10539   */\n  0x20\n    /* \"#utility.yul\":10526:10535   */\n  dup3\n    /* \"#utility.yul\":10522:10540   */\n  add\n    /* \"#utility.yul\":10514:10540   */\n  swap1\n  pop\n    /* \"#utility.yul\":10586:10595   */\n  dup2\n    /* \"#utility.yul\":10580:10584   */\n  dup2\n    /* \"#utility.yul\":10576:10596   */\n  sub\n    /* \"#utility.yul\":10572:10573   */\n  0x00\n    /* \"#utility.yul\":10561:10570   */\n  dup4\n    /* \"#utility.yul\":10557:10574   */\n  add\n    /* \"#utility.yul\":10550:10597   */\n  mstore\n    /* \"#utility.yul\":10614:10745   */\n  tag_195\n    /* \"#utility.yul\":10740:10744   */\n  dup2\n    /* \"#utility.yul\":10614:10745   */\n  tag_73\n  jump\t// in\ntag_195:\n    /* \"#utility.yul\":10606:10745   */\n  swap1\n  pop\n    /* \"#utility.yul\":10333:10752   */\n  swap2\n  swap1\n  pop\n  jump\t// out\n    /* \"#utility.yul\":10758:10932   */\ntag_74:\n    /* \"#utility.yul\":10898:10924   */\n  0x496e76616c696420726563656976657220616464726573730000000000000000\n    /* \"#utility.yul\":10894:10895   */\n  0x00\n    /* \"#utility.yul\":10886:10892   */\n  dup3\n    /* \"#utility.yul\":10882:10896   */\n  add\n    /* \"#utility.yul\":10875:10925   */\n  mstore\n    /* \"#utility.yul\":10758:10932   */\n  pop\n  jump\t// out\n    /* \"#utility.yul\":10938:11304   */\ntag_75:\n    /* \"#utility.yul\":11080:11083   */\n  0x00\n    /* \"#utility.yul\":11101:11168   */\n  tag_198\n    /* \"#utility.yul\":11165:11167   */\n  0x18\n    /* \"#utility.yul\":11160:11163   */\n  dup4\n    /* \"#utility.yul\":11101:11168   */\n  tag_71\n  jump\t// in\ntag_198:\n    /* \"#utility.yul\":11094:11168   */\n  swap2\n  pop\n    /* \"#utility.yul\":11177:11270   */\n  tag_199\n    /* \"#utility.yul\":11266:11269   */\n  dup3\n    /* \"#utility.yul\":11177:11270   */\n  tag_74\n  jump\t// in\ntag_199:\n    /* \"#utility.yul\":11295:11297   */\n  0x20\n    /* \"#utility.yul\":11290:11293   */\n  dup3\n    /* \"#utility.yul\":11286:11298   */\n  add\n    /* \"#utility.yul\":11279:11298   */\n  swap1\n  pop\n    /* \"#utility.yul\":10938:11304   */\n  swap2\n  swap1\n  pop\n  jump\t// out\n    /* \"#utility.yul\":11310:11729   */\ntag_23:\n    /* \"#utility.yul\":11476:11480   */\n  0x00\n    /* \"#utility.yul\":11514:11516   */\n  0x20\n    /* \"#utility.yul\":11503:11512   */\n  dup3\n    /* \"#utility.yul\":11499:11517   */\n  add\n    /* \"#utility.yul\":11491:11517   */\n  swap1\n  pop\n    /* \"#utility.yul\":11563:11572   */\n  dup2\n    /* \"#utility.yul\":11557:11561   */\n  dup2\n    /* \"#utility.yul\":11553:11573   */\n  sub\n    /* \"#utility.yul\":11549:11550   */\n  0x00\n    /* \"#utility.yul\":11538:11547   */\n  dup4\n    /* \"#utility.yul\":11534:11551   */\n  add\n    /* \"#utility.yul\":11527:11574   */\n  mstore\n    /* \"#utility.yul\":11591:11722   */\n  tag_201\n    /* \"#utility.yul\":11717:11721   */\n  dup2\n    /* \"#utility.yul\":11591:11722   */\n  tag_75\n  jump\t// in\ntag_201:\n    /* \"#utility.yul\":11583:11722   */\n  swap1\n  pop\n    /* \"#utility.yul\":11310:11729   */\n  swap2\n  swap1\n  pop\n  jump\t// out\n    /* \"#utility.yul\":11735:11906   */\ntag_76:\n    /* \"#utility.yul\":11875:11898   */\n  0x496e76616c696420746f6b656e20616464726573730000000000000000000000\n    /* \"#utility.yul\":11871:11872   */\n  0x00\n    /* \"#utility.yul\":11863:11869   */\n  dup3\n    /* \"#utility.yul\":11859:11873   */\n  add\n    /* \"#utility.yul\":11852:11899   */\n  mstore\n    /* \"#utility.yul\":11735:11906   */\n  pop\n  jump\t// out\n    /* \"#utility.yul\":11912:12278   */\ntag_77:\n    /* \"#utility.yul\":12054:12057   */\n  0x00\n    /* \"#utility.yul\":12075:12142   */\n  tag_204\n    /* \"#utility.yul\":12139:12141   */\n  0x15\n    /* \"#utility.yul\":12134:12137   */\n  dup4\n    /* \"#utility.yul\":12075:12142   */\n  tag_71\n  jump\t// in\ntag_204:\n    /* \"#utility.yul\":12068:12142   */\n  swap2\n  pop\n    /* \"#utility.yul\":12151:12244   */\n  tag_205\n    /* \"#utility.yul\":12240:12243   */\n  dup3\n    /* \"#utility.yul\":12151:12244   */\n  tag_76\n  jump\t// in\ntag_205:\n    /* \"#utility.yul\":12269:12271   */\n  0x20\n    /* \"#utility.yul\":12264:12267   */\n  dup3\n    /* \"#utility.yul\":12260:12272   */\n  add\n    /* \"#utility.yul\":12253:12272   */\n  swap1\n  pop\n    /* \"#utility.yul\":11912:12278   */\n  swap2\n  swap1\n  pop\n  jump\t// out\n    /* \"#utility.yul\":12284:12703   */\ntag_26:\n    /* \"#utility.yul\":12450:12454   */\n  0x00\n    /* \"#utility.yul\":12488:12490   */\n  0x20\n    /* \"#utility.yul\":12477:12486   */\n  dup3\n    /* \"#utility.yul\":12473:12491   */\n  add\n    /* \"#utility.yul\":12465:12491   */\n  swap1\n  pop\n    /* \"#utility.yul\":12537:12546   */\n  dup2\n    /* \"#utility.yul\":12531:12535   */\n  dup2\n    /* \"#utility.yul\":12527:12547   */\n  sub\n    /* \"#utility.yul\":12523:12524   */\n  0x00\n    /* \"#utility.yul\":12512:12521   */\n  dup4\n    /* \"#utility.yul\":12508:12525   */\n  add\n    /* \"#utility.yul\":12501:12548   */\n  mstore\n    /* \"#utility.yul\":12565:12696   */\n  tag_207\n    /* \"#utility.yul\":12691:12695   */\n  dup2\n    /* \"#utility.yul\":12565:12696   */\n  tag_77\n  jump\t// in\ntag_207:\n    /* \"#utility.yul\":12557:12696   */\n  swap1\n  pop\n    /* \"#utility.yul\":12284:12703   */\n  swap2\n  swap1\n  pop\n  jump\t// out\n    /* \"#utility.yul\":12709:12889   */\ntag_32:\n    /* \"#utility.yul\":12757:12834   */\n  0x4e487b7100000000000000000000000000000000000000000000000000000000\n    /* \"#utility.yul\":12754:12755   */\n  0x00\n    /* \"#utility.yul\":12747:12835   */\n  mstore\n    /* \"#utility.yul\":12854:12858   */\n  0x32\n    /* \"#utility.yul\":12851:12852   */\n  0x04\n    /* \"#utility.yul\":12844:12859   */\n  mstore\n    /* \"#utility.yul\":12878:12882   */\n  0x24\n    /* \"#utility.yul\":12875:12876   */\n  0x00\n    /* \"#utility.yul\":12868:12883   */\n  revert\n    /* \"contracts/CCK/CC2/b.sol\":337:6150  contract CCKToken is ERC20, Ownable, IERC3643 {... */\ntag_33:\n  mload(0x80)\n  mload(0xa0)\n  codecopy(0x00, dataOffset(sub_0), dataSize(sub_0))\n  0x00\n  assignImmutable(\"0x373ab5f6f5686eaf15420a778a209383e0ee0196a782fa3fd3ec96f326a92e6e\")\n  0x00\n  assignImmutable(\"0xa994c5983b61d271d018471a2bc76635c06f7e086ea7f835b905117f9d684d96\")\n  return(0x00, dataSize(sub_0))\nstop\n\nsub_0: assembly {\n        /* \"contracts/CCK/CC2/b.sol\":337:6150  contract CCKToken is ERC20, Ownable, IERC3643 {... */\n      mstore(0x40, 0x80)\n      callvalue\n      dup1\n      iszero\n      tag_1\n      jumpi\n      revert(0x00, 0x00)\n    tag_1:\n      pop\n      jumpi(tag_2, lt(calldatasize, 0x04))\n      shr(0xe0, calldataload(0x00))\n      dup1\n      0x95d89b41\n      gt\n      tag_39\n      jumpi\n      dup1\n      0xcefaaff6\n      gt\n      tag_40\n      jumpi\n      dup1\n      0xe08ba51a\n      gt\n      tag_41\n      jumpi\n      dup1\n      0xe08ba51a\n      eq\n      tag_34\n      jumpi\n      dup1\n      0xe43252d7\n      eq\n      tag_35\n      jumpi\n      dup1\n      0xe5839836\n      eq\n      tag_36\n      jumpi\n      dup1\n      0xeb91d37e\n      eq\n      tag_37\n      jumpi\n      dup1\n      0xf2fde38b\n      eq\n      tag_38\n      jumpi\n      jump(tag_2)\n    tag_41:\n      dup1\n      0xcefaaff6\n      eq\n      tag_30\n      jumpi\n      dup1\n      0xd0516650\n      eq\n      tag_31\n      jumpi\n      dup1\n      0xda0239a6\n      eq\n      tag_32\n      jumpi\n      dup1\n      0xdd62ed3e\n      eq\n      tag_33\n      jumpi\n      jump(tag_2)\n    tag_40:\n      dup1\n      0xa9059cbb\n      gt\n      tag_42\n      jumpi\n      dup1\n      0xa9059cbb\n      eq\n      tag_25\n      jumpi\n      dup1\n      0xaba63705\n      eq\n      tag_26\n      jumpi\n      dup1\n      0xbdd3d825\n      eq\n      tag_27\n      jumpi\n      dup1\n      0xc802e3cd\n      eq\n      tag_28\n      jumpi\n      dup1\n      0xcb4b73ab\n      eq\n      tag_29\n      jumpi\n      jump(tag_2)\n    tag_42:\n      dup1\n      0x95d89b41\n      eq\n      tag_21\n      jumpi\n      dup1\n      0x9b19251a\n      eq\n      tag_22\n      jumpi\n      dup1\n      0x9d76ea58\n      eq\n      tag_23\n      jumpi\n      dup1\n      0x9dc341d0\n      eq\n      tag_24\n      jumpi\n      jump(tag_2)\n    tag_39:\n      dup1\n      0x40c10f19\n      gt\n      tag_43\n      jumpi\n      dup1\n      0x70a08231\n      gt\n      tag_44\n      jumpi\n      dup1\n      0x70a08231\n      eq\n      tag_16\n      jumpi\n      dup1\n      0x715018a6\n      eq\n      tag_17\n      jumpi\n      dup1\n      0x8ab1d681\n      eq\n      tag_18\n      jumpi\n      dup1\n      0x8da5cb5b\n      eq\n      tag_19\n      jumpi\n      dup1\n      0x902d55a5\n      eq\n      tag_20\n      jumpi\n      jump(tag_2)\n    tag_44:\n      dup1\n      0x40c10f19\n      eq\n      tag_12\n      jumpi\n      dup1\n      0x54fd4d50\n      eq\n      tag_13\n      jumpi\n      dup1\n      0x5c975abb\n      eq\n      tag_14\n      jumpi\n      dup1\n      0x6290865d\n      eq\n      tag_15\n      jumpi\n      jump(tag_2)\n    tag_43:\n      dup1\n      0x158b1a57\n      gt\n      tag_45\n      jumpi\n      dup1\n      0x158b1a57\n      eq\n      tag_7\n      jumpi\n      dup1\n      0x18160ddd\n      eq\n      tag_8\n      jumpi\n      dup1\n      0x23b872dd\n      eq\n      tag_9\n      jumpi\n      dup1\n      0x2d380242\n      eq\n      tag_10\n      jumpi\n      dup1\n      0x313ce567\n      eq\n      tag_11\n      jumpi\n      jump(tag_2)\n    tag_45:\n      dup1\n      0x06fdde03\n      eq\n      tag_3\n      jumpi\n      dup1\n      0x095ea7b3\n      eq\n      tag_4\n      jumpi\n      dup1\n      0x12cae7af\n      eq\n      tag_5\n      jumpi\n      dup1\n      0x134e18f4\n      eq\n      tag_6\n      jumpi\n    tag_2:\n      revert(0x00, 0x00)\n        /* \"@openzeppelin/contracts/token/ERC20/ERC20.sol\":1760:1849  function name() public view virtual returns (string memory) {... */\n    tag_3:\n      tag_46\n      tag_47\n      jump\t// in\n    tag_46:\n      mload(0x40)\n      tag_48\n      swap2\n      swap1\n      tag_49\n      jump\t// in\n    tag_48:\n      mload(0x40)\n      dup1\n      swap2\n      sub\n      swap1\n      return\n        /* \"@openzeppelin/contracts/token/ERC20/ERC20.sol\":3979:4165  function approve(address spender, uint256 value) public virtual returns (bool) {... */\n    tag_4:\n      tag_50\n      0x04\n      dup1\n      calldatasize\n      sub\n      dup2\n      add\n      swap1\n      tag_51\n      swap2\n      swap1\n      tag_52\n      jump\t// in\n    tag_51:\n      tag_53\n      jump\t// in\n    tag_50:\n      mload(0x40)\n      tag_54\n      swap2\n      swap1\n      tag_55\n      jump\t// in\n    tag_54:\n      mload(0x40)\n      dup1\n      swap2\n      sub\n      swap1\n      return\n        /* \"contracts/CCK/CC2/b.sol\":4450:4560  function balanceOfUser(address user) external view returns (uint256) {... */\n    tag_5:\n      tag_56\n      0x04\n      dup1\n      calldatasize\n      sub\n      dup2\n      add\n      swap1\n      tag_57\n      swap2\n      swap1\n      tag_58\n      jump\t// in\n    tag_57:\n      tag_59\n      jump\t// in\n    tag_56:\n      mload(0x40)\n      tag_60\n      swap2\n      swap1\n      tag_61\n      jump\t// in\n    tag_60:\n      mload(0x40)\n      dup1\n      swap2\n      sub\n      swap1\n      return\n        /* \"contracts/CCK/CC2/b.sol\":2620:2725  function identityRegistry() external view override returns (address) {... */\n    tag_6:\n      tag_62\n      tag_63\n      jump\t// in\n    tag_62:\n      mload(0x40)\n      tag_64\n      swap2\n      swap1\n      tag_65\n      jump\t// in\n    tag_64:\n      mload(0x40)\n      dup1\n      swap2\n      sub\n      swap1\n      return\n        /* \"contracts/CCK/CC2/b.sol\":3065:3179  function getFrozenTokens(address userAddress) external view override returns (uint256) {... */\n    tag_7:\n      tag_66\n      0x04\n      dup1\n      calldatasize\n      sub\n      dup2\n      add\n      swap1\n      tag_67\n      swap2\n      swap1\n      tag_58\n      jump\t// in\n    tag_67:\n      tag_68\n      jump\t// in\n    tag_66:\n      mload(0x40)\n      tag_69\n      swap2\n      swap1\n      tag_61\n      jump\t// in\n    tag_69:\n      mload(0x40)\n      dup1\n      swap2\n      sub\n      swap1\n      return\n        /* \"@openzeppelin/contracts/token/ERC20/ERC20.sol\":2830:2927  function totalSupply() public view virtual returns (uint256) {... */\n    tag_8:\n      tag_70\n      tag_71\n      jump\t// in\n    tag_70:\n      mload(0x40)\n      tag_72\n      swap2\n      swap1\n      tag_61\n      jump\t// in\n    tag_72:\n      mload(0x40)\n      dup1\n      swap2\n      sub\n      swap1\n      return\n        /* \"contracts/CCK/CC2/b.sol\":3588:3904  function transferFrom(address sender, address recipient, uint256 amount) public override returns (bool) {... */\n    tag_9:\n      tag_73\n      0x04\n      dup1\n      calldatasize\n      sub\n      dup2\n      add\n      swap1\n      tag_74\n      swap2\n      swap1\n      tag_75\n      jump\t// in\n    tag_74:\n      tag_76\n      jump\t// in\n    tag_73:\n      mload(0x40)\n      tag_77\n      swap2\n      swap1\n      tag_55\n      jump\t// in\n    tag_77:\n      mload(0x40)\n      dup1\n      swap2\n      sub\n      swap1\n      return\n        /* \"contracts/CCK/CC2/b.sol\":677:704  uint256 public mintedAmount */\n    tag_10:\n      tag_78\n      tag_79\n      jump\t// in\n    tag_78:\n      mload(0x40)\n      tag_80\n      swap2\n      swap1\n      tag_61\n      jump\t// in\n    tag_80:\n      mload(0x40)\n      dup1\n      swap2\n      sub\n      swap1\n      return\n        /* \"contracts/CCK/CC2/b.sol\":4308:4400  function decimals() public view virtual override returns (uint8) {... */\n    tag_11:\n      tag_81\n      tag_82\n      jump\t// in\n    tag_81:\n      mload(0x40)\n      tag_83\n      swap2\n      swap1\n      tag_84\n      jump\t// in\n    tag_83:\n      mload(0x40)\n      dup1\n      swap2\n      sub\n      swap1\n      return\n        /* \"contracts/CCK/CC2/b.sol\":3954:4221  function mint(address to, uint256 amount) external onlyOwner {... */\n    tag_12:\n      tag_85\n      0x04\n      dup1\n      calldatasize\n      sub\n      dup2\n      add\n      swap1\n      tag_86\n      swap2\n      swap1\n      tag_52\n      jump\t// in\n    tag_86:\n      tag_87\n      jump\t// in\n    tag_85:\n      stop\n        /* \"contracts/CCK/CC2/b.sol\":2513:2612  function version() external view override returns (string memory) {... */\n    tag_13:\n      tag_88\n      tag_89\n      jump\t// in\n    tag_88:\n      mload(0x40)\n      tag_90\n      swap2\n      swap1\n      tag_49\n      jump\t// in\n    tag_90:\n      mload(0x40)\n      dup1\n      swap2\n      sub\n      swap1\n      return\n        /* \"contracts/CCK/CC2/b.sol\":2840:2927  function paused() external view override returns (bool) {... */\n    tag_14:\n      tag_91\n      tag_92\n      jump\t// in\n    tag_91:\n      mload(0x40)\n      tag_93\n      swap2\n      swap1\n      tag_55\n      jump\t// in\n    tag_93:\n      mload(0x40)\n      dup1\n      swap2\n      sub\n      swap1\n      return\n        /* \"contracts/CCK/CC2/b.sol\":2733:2832  function compliance() external view override returns (address) {... */\n    tag_15:\n      tag_94\n      tag_95\n      jump\t// in\n    tag_94:\n      mload(0x40)\n      tag_96\n      swap2\n      swap1\n      tag_65\n      jump\t// in\n    tag_96:\n      mload(0x40)\n      dup1\n      swap2\n      sub\n      swap1\n      return\n        /* \"@openzeppelin/contracts/token/ERC20/ERC20.sol\":2985:3101  function balanceOf(address account) public view virtual returns (uint256) {... */\n    tag_16:\n      tag_97\n      0x04\n      dup1\n      calldatasize\n      sub\n      dup2\n      add\n      swap1\n      tag_98\n      swap2\n      swap1\n      tag_58\n      jump\t// in\n    tag_98:\n      tag_99\n      jump\t// in\n    tag_97:\n      mload(0x40)\n      tag_100\n      swap2\n      swap1\n      tag_61\n      jump\t// in\n    tag_100:\n      mload(0x40)\n      dup1\n      swap2\n      sub\n      swap1\n      return\n        /* \"@openzeppelin/contracts/access/Ownable.sol\":2293:2394  function renounceOwnership() public virtual onlyOwner {... */\n    tag_17:\n      tag_101\n      tag_102\n      jump\t// in\n    tag_101:\n      stop\n        /* \"contracts/CCK/CC2/b.sol\":1845:1953  function removeFromWhitelist(address member) external onlyOwner {... */\n    tag_18:\n      tag_103\n      0x04\n      dup1\n      calldatasize\n      sub\n      dup2\n      add\n      swap1\n      tag_104\n      swap2\n      swap1\n      tag_58\n      jump\t// in\n    tag_104:\n      tag_105\n      jump\t// in\n    tag_103:\n      stop\n        /* \"@openzeppelin/contracts/access/Ownable.sol\":1638:1723  function owner() public view virtual returns (address) {... */\n    tag_19:\n      tag_106\n      tag_107\n      jump\t// in\n    tag_106:\n      mload(0x40)\n      tag_108\n      swap2\n      swap1\n      tag_65\n      jump\t// in\n    tag_108:\n      mload(0x40)\n      dup1\n      swap2\n      sub\n      swap1\n      return\n        /* \"contracts/CCK/CC2/b.sol\":390:444  uint256 public constant TOTAL_SUPPLY = 100_000_000_000 */\n    tag_20:\n      tag_109\n      tag_110\n      jump\t// in\n    tag_109:\n      mload(0x40)\n      tag_111\n      swap2\n      swap1\n      tag_61\n      jump\t// in\n    tag_111:\n      mload(0x40)\n      dup1\n      swap2\n      sub\n      swap1\n      return\n        /* \"@openzeppelin/contracts/token/ERC20/ERC20.sol\":1962:2055  function symbol() public view virtual returns (string memory) {... */\n    tag_21:\n      tag_112\n      tag_113\n      jump\t// in\n    tag_112:\n      mload(0x40)\n      tag_114\n      swap2\n      swap1\n      tag_49\n      jump\t// in\n    tag_114:\n      mload(0x40)\n      dup1\n      swap2\n      sub\n      swap1\n      return\n        /* \"contracts/CCK/CC2/b.sol\":498:539  mapping(address => bool) public whitelist */\n    tag_22:\n      tag_115\n      0x04\n      dup1\n      calldatasize\n      sub\n      dup2\n      add\n      swap1\n      tag_116\n      swap2\n      swap1\n      tag_58\n      jump\t// in\n    tag_116:\n      tag_117\n      jump\t// in\n    tag_115:\n      mload(0x40)\n      tag_118\n      swap2\n      swap1\n      tag_55\n      jump\t// in\n    tag_118:\n      mload(0x40)\n      dup1\n      swap2\n      sub\n      swap1\n      return\n        /* \"contracts/CCK/CC2/b.sol\":809:846  address public immutable tokenAddress */\n    tag_23:\n      tag_119\n      tag_120\n      jump\t// in\n    tag_119:\n      mload(0x40)\n      tag_121\n      swap2\n      swap1\n      tag_65\n      jump\t// in\n    tag_121:\n      mload(0x40)\n      dup1\n      swap2\n      sub\n      swap1\n      return\n        /* \"contracts/CCK/CC2/b.sol\":739:780  address public immutable transferReceiver */\n    tag_24:\n      tag_122\n      tag_123\n      jump\t// in\n    tag_122:\n      mload(0x40)\n      tag_124\n      swap2\n      swap1\n      tag_65\n      jump\t// in\n    tag_124:\n      mload(0x40)\n      dup1\n      swap2\n      sub\n      swap1\n      return\n        /* \"contracts/CCK/CC2/b.sol\":3259:3547  function transfer(address recipient, uint256 amount) public override returns (bool) {... */\n    tag_25:\n      tag_125\n      0x04\n      dup1\n      calldatasize\n      sub\n      dup2\n      add\n      swap1\n      tag_126\n      swap2\n      swap1\n      tag_52\n      jump\t// in\n    tag_126:\n      tag_127\n      jump\t// in\n    tag_125:\n      mload(0x40)\n      tag_128\n      swap2\n      swap1\n      tag_55\n      jump\t// in\n    tag_128:\n      mload(0x40)\n      dup1\n      swap2\n      sub\n      swap1\n      return\n        /* \"contracts/CCK/CC2/b.sol\":2404:2505  function onchainID() external view override returns (address) {... */\n    tag_26:\n      tag_129\n      tag_130\n      jump\t// in\n    tag_129:\n      mload(0x40)\n      tag_131\n      swap2\n      swap1\n      tag_65\n      jump\t// in\n    tag_131:\n      mload(0x40)\n      dup1\n      swap2\n      sub\n      swap1\n      return\n        /* \"contracts/CCK/CC2/b.sol\":620:646  address public uniswapPool */\n    tag_27:\n      tag_132\n      tag_133\n      jump\t// in\n    tag_132:\n      mload(0x40)\n      tag_134\n      swap2\n      swap1\n      tag_65\n      jump\t// in\n    tag_134:\n      mload(0x40)\n      dup1\n      swap2\n      sub\n      swap1\n      return\n        /* \"contracts/CCK/CC2/b.sol\":885:924  uint256 public constant MINT_RATIO = 20 */\n    tag_28:\n      tag_135\n      tag_136\n      jump\t// in\n    tag_135:\n      mload(0x40)\n      tag_137\n      swap2\n      swap1\n      tag_61\n      jump\t// in\n    tag_137:\n      mload(0x40)\n      dup1\n      swap2\n      sub\n      swap1\n      return\n        /* \"contracts/CCK/CC2/b.sol\":2102:2196  function unfreezeUser(address user) external onlyOwner {... */\n    tag_29:\n      tag_138\n      0x04\n      dup1\n      calldatasize\n      sub\n      dup2\n      add\n      swap1\n      tag_139\n      swap2\n      swap1\n      tag_58\n      jump\t// in\n    tag_139:\n      tag_140\n      jump\t// in\n    tag_138:\n      stop\n        /* \"contracts/CCK/CC2/b.sol\":4914:6036  function transferAndMint(uint256 amount) external {... */\n    tag_30:\n      tag_141\n      0x04\n      dup1\n      calldatasize\n      sub\n      dup2\n      add\n      swap1\n      tag_142\n      swap2\n      swap1\n      tag_143\n      jump\t// in\n    tag_142:\n      tag_144\n      jump\t// in\n    tag_141:\n      stop\n        /* \"contracts/CCK/CC2/b.sol\":559:597  mapping(address => bool) public frozen */\n    tag_31:\n      tag_145\n      0x04\n      dup1\n      calldatasize\n      sub\n      dup2\n      add\n      swap1\n      tag_146\n      swap2\n      swap1\n      tag_58\n      jump\t// in\n    tag_146:\n      tag_147\n      jump\t// in\n    tag_145:\n      mload(0x40)\n      tag_148\n      swap2\n      swap1\n      tag_55\n      jump\t// in\n    tag_148:\n      mload(0x40)\n      dup1\n      swap2\n      sub\n      swap1\n      return\n        /* \"contracts/CCK/CC2/b.sol\":2249:2361  function remainingSupply() external view returns (uint256) {... */\n    tag_32:\n      tag_149\n      tag_150\n      jump\t// in\n    tag_149:\n      mload(0x40)\n      tag_151\n      swap2\n      swap1\n      tag_61\n      jump\t// in\n    tag_151:\n      mload(0x40)\n      dup1\n      swap2\n      sub\n      swap1\n      return\n        /* \"@openzeppelin/contracts/token/ERC20/ERC20.sol\":3532:3672  function allowance(address owner, address spender) public view virtual returns (uint256) {... */\n    tag_33:\n      tag_152\n      0x04\n      dup1\n      calldatasize\n      sub\n      dup2\n      add\n      swap1\n      tag_153\n      swap2\n      swap1\n      tag_154\n      jump\t// in\n    tag_153:\n      tag_155\n      jump\t// in\n    tag_152:\n      mload(0x40)\n      tag_156\n      swap2\n      swap1\n      tag_61\n      jump\t// in\n    tag_156:\n      mload(0x40)\n      dup1\n      swap2\n      sub\n      swap1\n      return\n        /* \"contracts/CCK/CC2/b.sol\":1982:2073  function freezeUser(address user) external onlyOwner {... */\n    tag_34:\n      tag_157\n      0x04\n      dup1\n      calldatasize\n      sub\n      dup2\n      add\n      swap1\n      tag_158\n      swap2\n      swap1\n      tag_58\n      jump\t// in\n    tag_158:\n      tag_159\n      jump\t// in\n    tag_157:\n      stop\n        /* \"contracts/CCK/CC2/b.sol\":1705:1807  function addToWhitelist(address member) external onlyOwner {... */\n    tag_35:\n      tag_160\n      0x04\n      dup1\n      calldatasize\n      sub\n      dup2\n      add\n      swap1\n      tag_161\n      swap2\n      swap1\n      tag_58\n      jump\t// in\n    tag_161:\n      tag_162\n      jump\t// in\n    tag_160:\n      stop\n        /* \"contracts/CCK/CC2/b.sol\":2935:3057  function isFrozen(address userAddress) external view override returns (bool) {... */\n    tag_36:\n      tag_163\n      0x04\n      dup1\n      calldatasize\n      sub\n      dup2\n      add\n      swap1\n      tag_164\n      swap2\n      swap1\n      tag_58\n      jump\t// in\n    tag_164:\n      tag_165\n      jump\t// in\n    tag_163:\n      mload(0x40)\n      tag_166\n      swap2\n      swap1\n      tag_55\n      jump\t// in\n    tag_166:\n      mload(0x40)\n      dup1\n      swap2\n      sub\n      swap1\n      return\n        /* \"contracts/CCK/CC2/b.sol\":4595:4871  function getCurrentPrice() external view returns (uint256) {... */\n    tag_37:\n      tag_167\n      tag_168\n      jump\t// in\n    tag_167:\n      mload(0x40)\n      tag_169\n      swap2\n      swap1\n      tag_61\n      jump\t// in\n    tag_169:\n      mload(0x40)\n      dup1\n      swap2\n      sub\n      swap1\n      return\n        /* \"@openzeppelin/contracts/access/Ownable.sol\":2543:2758  function transferOwnership(address newOwner) public virtual onlyOwner {... */\n    tag_38:\n      tag_170\n      0x04\n      dup1\n      calldatasize\n      sub\n      dup2\n      add\n      swap1\n      tag_171\n      swap2\n      swap1\n      tag_58\n      jump\t// in\n    tag_171:\n      tag_172\n      jump\t// in\n    tag_170:\n      stop\n        /* \"@openzeppelin/contracts/token/ERC20/ERC20.sol\":1760:1849  function name() public view virtual returns (string memory) {... */\n    tag_47:\n        /* \"@openzeppelin/contracts/token/ERC20/ERC20.sol\":1805:1818  string memory */\n      0x60\n        /* \"@openzeppelin/contracts/token/ERC20/ERC20.sol\":1837:1842  _name */\n      0x03\n        /* \"@openzeppelin/contracts/token/ERC20/ERC20.sol\":1830:1842  return _name */\n      dup1\n      sload\n      tag_174\n      swap1\n      tag_175\n      jump\t// in\n    tag_174:\n      dup1\n      0x1f\n      add\n      0x20\n      dup1\n      swap2\n      div\n      mul\n      0x20\n      add\n      mload(0x40)\n      swap1\n      dup2\n      add\n      0x40\n      mstore\n      dup1\n      swap3\n      swap2\n      swap1\n      dup2\n      dup2\n      mstore\n      0x20\n      add\n      dup3\n      dup1\n      sload\n      tag_176\n      swap1\n      tag_175\n      jump\t// in\n    tag_176:\n      dup1\n      iszero\n      tag_177\n      jumpi\n      dup1\n      0x1f\n      lt\n      tag_178\n      jumpi\n      0x0100\n      dup1\n      dup4\n      sload\n      div\n      mul\n      dup4\n      mstore\n      swap2\n      0x20\n      add\n      swap2\n      jump(tag_177)\n    tag_178:\n      dup3\n      add\n      swap2\n      swap1\n      0x00\n      mstore\n      keccak256(0x00, 0x20)\n      swap1\n    tag_179:\n      dup2\n      sload\n      dup2\n      mstore\n      swap1\n      0x01\n      add\n      swap1\n      0x20\n      add\n      dup1\n      dup4\n      gt\n      tag_179\n      jumpi\n      dup3\n      swap1\n      sub\n      0x1f\n      and\n      dup3\n      add\n      swap2\n    tag_177:\n      pop\n      pop\n      pop\n      pop\n      pop\n      swap1\n      pop\n        /* \"@openzeppelin/contracts/token/ERC20/ERC20.sol\":1760:1849  function name() public view virtual returns (string memory) {... */\n      swap1\n      jump\t// out\n        /* \"@openzeppelin/contracts/token/ERC20/ERC20.sol\":3979:4165  function approve(address spender, uint256 value) public virtual returns (bool) {... */\n    tag_53:\n        /* \"@openzeppelin/contracts/token/ERC20/ERC20.sol\":4052:4056  bool */\n      0x00\n        /* \"@openzeppelin/contracts/token/ERC20/ERC20.sol\":4068:4081  address owner */\n      0x00\n        /* \"@openzeppelin/contracts/token/ERC20/ERC20.sol\":4084:4096  _msgSender() */\n      tag_181\n        /* \"@openzeppelin/contracts/token/ERC20/ERC20.sol\":4084:4094  _msgSender */\n      tag_182\n        /* \"@openzeppelin/contracts/token/ERC20/ERC20.sol\":4084:4096  _msgSender() */\n      jump\t// in\n    tag_181:\n        /* \"@openzeppelin/contracts/token/ERC20/ERC20.sol\":4068:4096  address owner = _msgSender() */\n      swap1\n      pop\n        /* \"@openzeppelin/contracts/token/ERC20/ERC20.sol\":4106:4137  _approve(owner, spender, value) */\n      tag_183\n        /* \"@openzeppelin/contracts/token/ERC20/ERC20.sol\":4115:4120  owner */\n      dup2\n        /* \"@openzeppelin/contracts/token/ERC20/ERC20.sol\":4122:4129  spender */\n      dup6\n        /* \"@openzeppelin/contracts/token/ERC20/ERC20.sol\":4131:4136  value */\n      dup6\n        /* \"@openzeppelin/contracts/token/ERC20/ERC20.sol\":4106:4114  _approve */\n      tag_184\n        /* \"@openzeppelin/contracts/token/ERC20/ERC20.sol\":4106:4137  _approve(owner, spender, value) */\n      jump\t// in\n    tag_183:\n        /* \"@openzeppelin/contracts/token/ERC20/ERC20.sol\":4154:4158  true */\n      0x01\n        /* \"@openzeppelin/contracts/token/ERC20/ERC20.sol\":4147:4158  return true */\n      swap2\n      pop\n      pop\n        /* \"@openzeppelin/contracts/token/ERC20/ERC20.sol\":3979:4165  function approve(address spender, uint256 value) public virtual returns (bool) {... */\n      swap3\n      swap2\n      pop\n      pop\n      jump\t// out\n        /* \"contracts/CCK/CC2/b.sol\":4450:4560  function balanceOfUser(address user) external view returns (uint256) {... */\n    tag_59:\n        /* \"contracts/CCK/CC2/b.sol\":4510:4517  uint256 */\n      0x00\n        /* \"contracts/CCK/CC2/b.sol\":4537:4552  balanceOf(user) */\n      tag_186\n        /* \"contracts/CCK/CC2/b.sol\":4547:4551  user */\n      dup3\n        /* \"contracts/CCK/CC2/b.sol\":4537:4546  balanceOf */\n      tag_99\n        /* \"contracts/CCK/CC2/b.sol\":4537:4552  balanceOf(user) */\n      jump\t// in\n    tag_186:\n        /* \"contracts/CCK/CC2/b.sol\":4530:4552  return balanceOf(user) */\n      swap1\n      pop\n        /* \"contracts/CCK/CC2/b.sol\":4450:4560  function balanceOfUser(address user) external view returns (uint256) {... */\n      swap2\n      swap1\n      pop\n      jump\t// out\n        /* \"contracts/CCK/CC2/b.sol\":2620:2725  function identityRegistry() external view override returns (address) {... */\n    tag_63:\n        /* \"contracts/CCK/CC2/b.sol\":2680:2687  address */\n      0x00\n        /* \"contracts/CCK/CC2/b.sol\":2715:2716  0 */\n      0x00\n        /* \"contracts/CCK/CC2/b.sol\":2700:2717  return address(0) */\n      swap1\n      pop\n        /* \"contracts/CCK/CC2/b.sol\":2620:2725  function identityRegistry() external view override returns (address) {... */\n      swap1\n      jump\t// out\n        /* \"contracts/CCK/CC2/b.sol\":3065:3179  function getFrozenTokens(address userAddress) external view override returns (uint256) {... */\n    tag_68:\n        /* \"contracts/CCK/CC2/b.sol\":3143:3150  uint256 */\n      0x00\n        /* \"contracts/CCK/CC2/b.sol\":3170:3171  0 */\n      0x00\n        /* \"contracts/CCK/CC2/b.sol\":3163:3171  return 0 */\n      swap1\n      pop\n        /* \"contracts/CCK/CC2/b.sol\":3065:3179  function getFrozenTokens(address userAddress) external view override returns (uint256) {... */\n      swap2\n      swap1\n      pop\n      jump\t// out\n        /* \"@openzeppelin/contracts/token/ERC20/ERC20.sol\":2830:2927  function totalSupply() public view virtual returns (uint256) {... */\n    tag_71:\n        /* \"@openzeppelin/contracts/token/ERC20/ERC20.sol\":2882:2889  uint256 */\n      0x00\n        /* \"@openzeppelin/contracts/token/ERC20/ERC20.sol\":2908:2920  _totalSupply */\n      sload(0x02)\n        /* \"@openzeppelin/contracts/token/ERC20/ERC20.sol\":2901:2920  return _totalSupply */\n      swap1\n      pop\n        /* \"@openzeppelin/contracts/token/ERC20/ERC20.sol\":2830:2927  function totalSupply() public view virtual returns (uint256) {... */\n      swap1\n      jump\t// out\n        /* \"contracts/CCK/CC2/b.sol\":3588:3904  function transferFrom(address sender, address recipient, uint256 amount) public override returns (bool) {... */\n    tag_76:\n        /* \"contracts/CCK/CC2/b.sol\":3686:3690  bool */\n      0x00\n        /* \"contracts/CCK/CC2/b.sol\":3795:3801  amount */\n      dup2\n        /* \"contracts/CCK/CC2/b.sol\":3779:3803  uint256(uint128(amount)) */\n      0xffffffffffffffffffffffffffffffff\n      and\n        /* \"contracts/CCK/CC2/b.sol\":3769:3775  amount */\n      dup3\n        /* \"contracts/CCK/CC2/b.sol\":3769:3803  amount == uint256(uint128(amount)) */\n      eq\n        /* \"contracts/CCK/CC2/b.sol\":3761:3833  require(amount == uint256(uint128(amount)), \"Amount must be an integer\") */\n      tag_191\n      jumpi\n      mload(0x40)\n      0x08c379a000000000000000000000000000000000000000000000000000000000\n      dup2\n      mstore\n      0x04\n      add\n      tag_192\n      swap1\n      tag_193\n      jump\t// in\n    tag_192:\n      mload(0x40)\n      dup1\n      swap2\n      sub\n      swap1\n      revert\n    tag_191:\n        /* \"contracts/CCK/CC2/b.sol\":3851:3896  super.transferFrom(sender, recipient, amount) */\n      tag_194\n        /* \"contracts/CCK/CC2/b.sol\":3870:3876  sender */\n      dup5\n        /* \"contracts/CCK/CC2/b.sol\":3878:3887  recipient */\n      dup5\n        /* \"contracts/CCK/CC2/b.sol\":3889:3895  amount */\n      dup5\n        /* \"contracts/CCK/CC2/b.sol\":3851:3869  super.transferFrom */\n      tag_195\n        /* \"contracts/CCK/CC2/b.sol\":3851:3896  super.transferFrom(sender, recipient, amount) */\n      jump\t// in\n    tag_194:\n        /* \"contracts/CCK/CC2/b.sol\":3844:3896  return super.transferFrom(sender, recipient, amount) */\n      swap1\n      pop\n        /* \"contracts/CCK/CC2/b.sol\":3588:3904  function transferFrom(address sender, address recipient, uint256 amount) public override returns (bool) {... */\n      swap4\n      swap3\n      pop\n      pop\n      pop\n      jump\t// out\n        /* \"contracts/CCK/CC2/b.sol\":677:704  uint256 public mintedAmount */\n    tag_79:\n      sload(0x09)\n      dup2\n      jump\t// out\n        /* \"contracts/CCK/CC2/b.sol\":4308:4400  function decimals() public view virtual override returns (uint8) {... */\n    tag_82:\n        /* \"contracts/CCK/CC2/b.sol\":4366:4371  uint8 */\n      0x00\n        /* \"contracts/CCK/CC2/b.sol\":4391:4392  0 */\n      0x00\n        /* \"contracts/CCK/CC2/b.sol\":4384:4392  return 0 */\n      swap1\n      pop\n        /* \"contracts/CCK/CC2/b.sol\":4308:4400  function decimals() public view virtual override returns (uint8) {... */\n      swap1\n      jump\t// out\n        /* \"contracts/CCK/CC2/b.sol\":3954:4221  function mint(address to, uint256 amount) external onlyOwner {... */\n    tag_87:\n        /* \"@openzeppelin/contracts/access/Ownable.sol\":1531:1544  _checkOwner() */\n      tag_198\n        /* \"@openzeppelin/contracts/access/Ownable.sol\":1531:1542  _checkOwner */\n      tag_199\n        /* \"@openzeppelin/contracts/access/Ownable.sol\":1531:1544  _checkOwner() */\n      jump\t// in\n    tag_198:\n        /* \"contracts/CCK/CC2/b.sol\":429:444  100_000_000_000 */\n      0x174876e800\n        /* \"contracts/CCK/CC2/b.sol\":4104:4110  amount */\n      dup2\n        /* \"contracts/CCK/CC2/b.sol\":4089:4101  mintedAmount */\n      sload(0x09)\n        /* \"contracts/CCK/CC2/b.sol\":4089:4110  mintedAmount + amount */\n      tag_201\n      swap2\n      swap1\n      tag_202\n      jump\t// in\n    tag_201:\n        /* \"contracts/CCK/CC2/b.sol\":4089:4126  mintedAmount + amount <= TOTAL_SUPPLY */\n      gt\n      iszero\n        /* \"contracts/CCK/CC2/b.sol\":4081:4152  require(mintedAmount + amount <= TOTAL_SUPPLY, \"Total supply exceeded\") */\n      tag_203\n      jumpi\n      mload(0x40)\n      0x08c379a000000000000000000000000000000000000000000000000000000000\n      dup2\n      mstore\n      0x04\n      add\n      tag_204\n      swap1\n      tag_205\n      jump\t// in\n    tag_204:\n      mload(0x40)\n      dup1\n      swap2\n      sub\n      swap1\n      revert\n    tag_203:\n        /* \"contracts/CCK/CC2/b.sol\":4163:4180  _mint(to, amount) */\n      tag_206\n        /* \"contracts/CCK/CC2/b.sol\":4169:4171  to */\n      dup3\n        /* \"contracts/CCK/CC2/b.sol\":4173:4179  amount */\n      dup3\n        /* \"contracts/CCK/CC2/b.sol\":4163:4168  _mint */\n      tag_207\n        /* \"contracts/CCK/CC2/b.sol\":4163:4180  _mint(to, amount) */\n      jump\t// in\n    tag_206:\n        /* \"contracts/CCK/CC2/b.sol\":4207:4213  amount */\n      dup1\n        /* \"contracts/CCK/CC2/b.sol\":4191:4203  mintedAmount */\n      0x09\n      0x00\n        /* \"contracts/CCK/CC2/b.sol\":4191:4213  mintedAmount += amount */\n      dup3\n      dup3\n      sload\n      tag_208\n      swap2\n      swap1\n      tag_202\n      jump\t// in\n    tag_208:\n      swap3\n      pop\n      pop\n      dup2\n      swap1\n      sstore\n      pop\n        /* \"contracts/CCK/CC2/b.sol\":3954:4221  function mint(address to, uint256 amount) external onlyOwner {... */\n      pop\n      pop\n      jump\t// out\n        /* \"contracts/CCK/CC2/b.sol\":2513:2612  function version() external view override returns (string memory) {... */\n    tag_89:\n        /* \"contracts/CCK/CC2/b.sol\":2564:2577  string memory */\n      0x60\n        /* \"contracts/CCK/CC2/b.sol\":2590:2604  return \"1.0.0\" */\n      mload(0x40)\n      dup1\n      0x40\n      add\n      0x40\n      mstore\n      dup1\n      0x05\n      dup2\n      mstore\n      0x20\n      add\n      0x312e302e30000000000000000000000000000000000000000000000000000000\n      dup2\n      mstore\n      pop\n      swap1\n      pop\n        /* \"contracts/CCK/CC2/b.sol\":2513:2612  function version() external view override returns (string memory) {... */\n      swap1\n      jump\t// out\n        /* \"contracts/CCK/CC2/b.sol\":2840:2927  function paused() external view override returns (bool) {... */\n    tag_92:\n        /* \"contracts/CCK/CC2/b.sol\":2890:2894  bool */\n      0x00\n        /* \"contracts/CCK/CC2/b.sol\":2914:2919  false */\n      0x00\n        /* \"contracts/CCK/CC2/b.sol\":2907:2919  return false */\n      swap1\n      pop\n        /* \"contracts/CCK/CC2/b.sol\":2840:2927  function paused() external view override returns (bool) {... */\n      swap1\n      jump\t// out\n        /* \"contracts/CCK/CC2/b.sol\":2733:2832  function compliance() external view override returns (address) {... */\n    tag_95:\n        /* \"contracts/CCK/CC2/b.sol\":2787:2794  address */\n      0x00\n        /* \"contracts/CCK/CC2/b.sol\":2822:2823  0 */\n      0x00\n        /* \"contracts/CCK/CC2/b.sol\":2807:2824  return address(0) */\n      swap1\n      pop\n        /* \"contracts/CCK/CC2/b.sol\":2733:2832  function compliance() external view override returns (address) {... */\n      swap1\n      jump\t// out\n        /* \"@openzeppelin/contracts/token/ERC20/ERC20.sol\":2985:3101  function balanceOf(address account) public view virtual returns (uint256) {... */\n    tag_99:\n        /* \"@openzeppelin/contracts/token/ERC20/ERC20.sol\":3050:3057  uint256 */\n      0x00\n        /* \"@openzeppelin/contracts/token/ERC20/ERC20.sol\":3076:3085  _balances */\n      0x00\n        /* \"@openzeppelin/contracts/token/ERC20/ERC20.sol\":3076:3094  _balances[account] */\n      0x00\n        /* \"@openzeppelin/contracts/token/ERC20/ERC20.sol\":3086:3093  account */\n      dup4\n        /* \"@openzeppelin/contracts/token/ERC20/ERC20.sol\":3076:3094  _balances[account] */\n      0xffffffffffffffffffffffffffffffffffffffff\n      and\n      0xffffffffffffffffffffffffffffffffffffffff\n      and\n      dup2\n      mstore\n      0x20\n      add\n      swap1\n      dup2\n      mstore\n      0x20\n      add\n      0x00\n      keccak256\n      sload\n        /* \"@openzeppelin/contracts/token/ERC20/ERC20.sol\":3069:3094  return _balances[account] */\n      swap1\n      pop\n        /* \"@openzeppelin/contracts/token/ERC20/ERC20.sol\":2985:3101  function balanceOf(address account) public view virtual returns (uint256) {... */\n      swap2\n      swap1\n      pop\n      jump\t// out\n        /* \"@openzeppelin/contracts/access/Ownable.sol\":2293:2394  function renounceOwnership() public virtual onlyOwner {... */\n    tag_102:\n        /* \"@openzeppelin/contracts/access/Ownable.sol\":1531:1544  _checkOwner() */\n      tag_214\n        /* \"@openzeppelin/contracts/access/Ownable.sol\":1531:1542  _checkOwner */\n      tag_199\n        /* \"@openzeppelin/contracts/access/Ownable.sol\":1531:1544  _checkOwner() */\n      jump\t// in\n    tag_214:\n        /* \"@openzeppelin/contracts/access/Ownable.sol\":2357:2387  _transferOwnership(address(0)) */\n      tag_216\n        /* \"@openzeppelin/contracts/access/Ownable.sol\":2384:2385  0 */\n      0x00\n        /* \"@openzeppelin/contracts/access/Ownable.sol\":2357:2375  _transferOwnership */\n      tag_217\n        /* \"@openzeppelin/contracts/access/Ownable.sol\":2357:2387  _transferOwnership(address(0)) */\n      jump\t// in\n    tag_216:\n        /* \"@openzeppelin/contracts/access/Ownable.sol\":2293:2394  function renounceOwnership() public virtual onlyOwner {... */\n      jump\t// out\n        /* \"contracts/CCK/CC2/b.sol\":1845:1953  function removeFromWhitelist(address member) external onlyOwner {... */\n    tag_105:\n        /* \"@openzeppelin/contracts/access/Ownable.sol\":1531:1544  _checkOwner() */\n      tag_219\n        /* \"@openzeppelin/contracts/access/Ownable.sol\":1531:1542  _checkOwner */\n      tag_199\n        /* \"@openzeppelin/contracts/access/Ownable.sol\":1531:1544  _checkOwner() */\n      jump\t// in\n    tag_219:\n        /* \"contracts/CCK/CC2/b.sol\":1940:1945  false */\n      0x00\n        /* \"contracts/CCK/CC2/b.sol\":1920:1929  whitelist */\n      0x06\n        /* \"contracts/CCK/CC2/b.sol\":1920:1937  whitelist[member] */\n      0x00\n        /* \"contracts/CCK/CC2/b.sol\":1930:1936  member */\n      dup4\n        /* \"contracts/CCK/CC2/b.sol\":1920:1937  whitelist[member] */\n      0xffffffffffffffffffffffffffffffffffffffff\n      and\n      0xffffffffffffffffffffffffffffffffffffffff\n      and\n      dup2\n      mstore\n      0x20\n      add\n      swap1\n      dup2\n      mstore\n      0x20\n      add\n      0x00\n      keccak256\n      0x00\n        /* \"contracts/CCK/CC2/b.sol\":1920:1945  whitelist[member] = false */\n      0x0100\n      exp\n      dup2\n      sload\n      dup2\n      0xff\n      mul\n      not\n      and\n      swap1\n      dup4\n      iszero\n      iszero\n      mul\n      or\n      swap1\n      sstore\n      pop\n        /* \"contracts/CCK/CC2/b.sol\":1845:1953  function removeFromWhitelist(address member) external onlyOwner {... */\n      pop\n      jump\t// out\n        /* \"@openzeppelin/contracts/access/Ownable.sol\":1638:1723  function owner() public view virtual returns (address) {... */\n    tag_107:\n        /* \"@openzeppelin/contracts/access/Ownable.sol\":1684:1691  address */\n      0x00\n        /* \"@openzeppelin/contracts/access/Ownable.sol\":1710:1716  _owner */\n      0x05\n      0x00\n      swap1\n      sload\n      swap1\n      0x0100\n      exp\n      swap1\n      div\n      0xffffffffffffffffffffffffffffffffffffffff\n      and\n        /* \"@openzeppelin/contracts/access/Ownable.sol\":1703:1716  return _owner */\n      swap1\n      pop\n        /* \"@openzeppelin/contracts/access/Ownable.sol\":1638:1723  function owner() public view virtual returns (address) {... */\n      swap1\n      jump\t// out\n        /* \"contracts/CCK/CC2/b.sol\":390:444  uint256 public constant TOTAL_SUPPLY = 100_000_000_000 */\n    tag_110:\n        /* \"contracts/CCK/CC2/b.sol\":429:444  100_000_000_000 */\n      0x174876e800\n        /* \"contracts/CCK/CC2/b.sol\":390:444  uint256 public constant TOTAL_SUPPLY = 100_000_000_000 */\n      dup2\n      jump\t// out\n        /* \"@openzeppelin/contracts/token/ERC20/ERC20.sol\":1962:2055  function symbol() public view virtual returns (string memory) {... */\n    tag_113:\n        /* \"@openzeppelin/contracts/token/ERC20/ERC20.sol\":2009:2022  string memory */\n      0x60\n        /* \"@openzeppelin/contracts/token/ERC20/ERC20.sol\":2041:2048  _symbol */\n      0x04\n        /* \"@openzeppelin/contracts/token/ERC20/ERC20.sol\":2034:2048  return _symbol */\n      dup1\n      sload\n      tag_223\n      swap1\n      tag_175\n      jump\t// in\n    tag_223:\n      dup1\n      0x1f\n      add\n      0x20\n      dup1\n      swap2\n      div\n      mul\n      0x20\n      add\n      mload(0x40)\n      swap1\n      dup2\n      add\n      0x40\n      mstore\n      dup1\n      swap3\n      swap2\n      swap1\n      dup2\n      dup2\n      mstore\n      0x20\n      add\n      dup3\n      dup1\n      sload\n      tag_224\n      swap1\n      tag_175\n      jump\t// in\n    tag_224:\n      dup1\n      iszero\n      tag_225\n      jumpi\n      dup1\n      0x1f\n      lt\n      tag_226\n      jumpi\n      0x0100\n      dup1\n      dup4\n      sload\n      div\n      mul\n      dup4\n      mstore\n      swap2\n      0x20\n      add\n      swap2\n      jump(tag_225)\n    tag_226:\n      dup3\n      add\n      swap2\n      swap1\n      0x00\n      mstore\n      keccak256(0x00, 0x20)\n      swap1\n    tag_227:\n      dup2\n      sload\n      dup2\n      mstore\n      swap1\n      0x01\n      add\n      swap1\n      0x20\n      add\n      dup1\n      dup4\n      gt\n      tag_227\n      jumpi\n      dup3\n      swap1\n      sub\n      0x1f\n      and\n      dup3\n      add\n      swap2\n    tag_225:\n      pop\n      pop\n      pop\n      pop\n      pop\n      swap1\n      pop\n        /* \"@openzeppelin/contracts/token/ERC20/ERC20.sol\":1962:2055  function symbol() public view virtual returns (string memory) {... */\n      swap1\n      jump\t// out\n        /* \"contracts/CCK/CC2/b.sol\":498:539  mapping(address => bool) public whitelist */\n    tag_117:\n      mstore(0x20, 0x06)\n      dup1\n      0x00\n      mstore\n      keccak256(0x00, 0x40)\n      0x00\n      swap2\n      pop\n      sload\n      swap1\n      0x0100\n      exp\n      swap1\n      div\n      0xff\n      and\n      dup2\n      jump\t// out\n        /* \"contracts/CCK/CC2/b.sol\":809:846  address public immutable tokenAddress */\n    tag_120:\n      immutable(\"0x373ab5f6f5686eaf15420a778a209383e0ee0196a782fa3fd3ec96f326a92e6e\")\n      dup2\n      jump\t// out\n        /* \"contracts/CCK/CC2/b.sol\":739:780  address public immutable transferReceiver */\n    tag_123:\n      immutable(\"0xa994c5983b61d271d018471a2bc76635c06f7e086ea7f835b905117f9d684d96\")\n      dup2\n      jump\t// out\n        /* \"contracts/CCK/CC2/b.sol\":3259:3547  function transfer(address recipient, uint256 amount) public override returns (bool) {... */\n    tag_127:\n        /* \"contracts/CCK/CC2/b.sol\":3337:3341  bool */\n      0x00\n        /* \"contracts/CCK/CC2/b.sol\":3450:3456  amount */\n      dup2\n        /* \"contracts/CCK/CC2/b.sol\":3434:3458  uint256(uint128(amount)) */\n      0xffffffffffffffffffffffffffffffff\n      and\n        /* \"contracts/CCK/CC2/b.sol\":3424:3430  amount */\n      dup3\n        /* \"contracts/CCK/CC2/b.sol\":3424:3458  amount == uint256(uint128(amount)) */\n      eq\n        /* \"contracts/CCK/CC2/b.sol\":3416:3488  require(amount == uint256(uint128(amount)), \"Amount must be an integer\") */\n      tag_229\n      jumpi\n      mload(0x40)\n      0x08c379a000000000000000000000000000000000000000000000000000000000\n      dup2\n      mstore\n      0x04\n      add\n      tag_230\n      swap1\n      tag_193\n      jump\t// in\n    tag_230:\n      mload(0x40)\n      dup1\n      swap2\n      sub\n      swap1\n      revert\n    tag_229:\n        /* \"contracts/CCK/CC2/b.sol\":3506:3539  super.transfer(recipient, amount) */\n      tag_231\n        /* \"contracts/CCK/CC2/b.sol\":3521:3530  recipient */\n      dup4\n        /* \"contracts/CCK/CC2/b.sol\":3532:3538  amount */\n      dup4\n        /* \"contracts/CCK/CC2/b.sol\":3506:3520  super.transfer */\n      tag_232\n        /* \"contracts/CCK/CC2/b.sol\":3506:3539  super.transfer(recipient, amount) */\n      jump\t// in\n    tag_231:\n        /* \"contracts/CCK/CC2/b.sol\":3499:3539  return super.transfer(recipient, amount) */\n      swap1\n      pop\n        /* \"contracts/CCK/CC2/b.sol\":3259:3547  function transfer(address recipient, uint256 amount) public override returns (bool) {... */\n      swap3\n      swap2\n      pop\n      pop\n      jump\t// out\n        /* \"contracts/CCK/CC2/b.sol\":2404:2505  function onchainID() external view override returns (address) {... */\n    tag_130:\n        /* \"contracts/CCK/CC2/b.sol\":2457:2464  address */\n      0x00\n        /* \"contracts/CCK/CC2/b.sol\":2492:2496  this */\n      address\n        /* \"contracts/CCK/CC2/b.sol\":2477:2497  return address(this) */\n      swap1\n      pop\n        /* \"contracts/CCK/CC2/b.sol\":2404:2505  function onchainID() external view override returns (address) {... */\n      swap1\n      jump\t// out\n        /* \"contracts/CCK/CC2/b.sol\":620:646  address public uniswapPool */\n    tag_133:\n      0x08\n      0x00\n      swap1\n      sload\n      swap1\n      0x0100\n      exp\n      swap1\n      div\n      0xffffffffffffffffffffffffffffffffffffffff\n      and\n      dup2\n      jump\t// out\n        /* \"contracts/CCK/CC2/b.sol\":885:924  uint256 public constant MINT_RATIO = 20 */\n    tag_136:\n        /* \"contracts/CCK/CC2/b.sol\":922:924  20 */\n      0x14\n        /* \"contracts/CCK/CC2/b.sol\":885:924  uint256 public constant MINT_RATIO = 20 */\n      dup2\n      jump\t// out\n        /* \"contracts/CCK/CC2/b.sol\":2102:2196  function unfreezeUser(address user) external onlyOwner {... */\n    tag_140:\n        /* \"@openzeppelin/contracts/access/Ownable.sol\":1531:1544  _checkOwner() */\n      tag_235\n        /* \"@openzeppelin/contracts/access/Ownable.sol\":1531:1542  _checkOwner */\n      tag_199\n        /* \"@openzeppelin/contracts/access/Ownable.sol\":1531:1544  _checkOwner() */\n      jump\t// in\n    tag_235:\n        /* \"contracts/CCK/CC2/b.sol\":2183:2188  false */\n      0x00\n        /* \"contracts/CCK/CC2/b.sol\":2168:2174  frozen */\n      0x07\n        /* \"contracts/CCK/CC2/b.sol\":2168:2180  frozen[user] */\n      0x00\n        /* \"contracts/CCK/CC2/b.sol\":2175:2179  user */\n      dup4\n        /* \"contracts/CCK/CC2/b.sol\":2168:2180  frozen[user] */\n      0xffffffffffffffffffffffffffffffffffffffff\n      and\n      0xffffffffffffffffffffffffffffffffffffffff\n      and\n      dup2\n      mstore\n      0x20\n      add\n      swap1\n      dup2\n      mstore\n      0x20\n      add\n      0x00\n      keccak256\n      0x00\n        /* \"contracts/CCK/CC2/b.sol\":2168:2188  frozen[user] = false */\n      0x0100\n      exp\n      dup2\n      sload\n      dup2\n      0xff\n      mul\n      not\n      and\n      swap1\n      dup4\n      iszero\n      iszero\n      mul\n      or\n      swap1\n      sstore\n      pop\n        /* \"contracts/CCK/CC2/b.sol\":2102:2196  function unfreezeUser(address user) external onlyOwner {... */\n      pop\n      jump\t// out\n        /* \"contracts/CCK/CC2/b.sol\":4914:6036  function transferAndMint(uint256 amount) external {... */\n    tag_144:\n        /* \"contracts/CCK/CC2/b.sol\":5054:5055  0 */\n      0x00\n        /* \"contracts/CCK/CC2/b.sol\":5045:5051  amount */\n      dup2\n        /* \"contracts/CCK/CC2/b.sol\":5045:5055  amount > 0 */\n      gt\n        /* \"contracts/CCK/CC2/b.sol\":5037:5089  require(amount > 0, \"Amount must be greater than 0\") */\n      tag_238\n      jumpi\n      mload(0x40)\n      0x08c379a000000000000000000000000000000000000000000000000000000000\n      dup2\n      mstore\n      0x04\n      add\n      tag_239\n      swap1\n      tag_240\n      jump\t// in\n    tag_239:\n      mload(0x40)\n      dup1\n      swap2\n      sub\n      swap1\n      revert\n    tag_238:\n        /* \"contracts/CCK/CC2/b.sol\":5316:5328  IERC20 token */\n      0x00\n        /* \"contracts/CCK/CC2/b.sol\":5338:5350  tokenAddress */\n      immutable(\"0x373ab5f6f5686eaf15420a778a209383e0ee0196a782fa3fd3ec96f326a92e6e\")\n        /* \"contracts/CCK/CC2/b.sol\":5316:5351  IERC20 token = IERC20(tokenAddress) */\n      swap1\n      pop\n        /* \"contracts/CCK/CC2/b.sol\":5542:5548  amount */\n      dup2\n        /* \"contracts/CCK/CC2/b.sol\":5496:5501  token */\n      dup2\n        /* \"contracts/CCK/CC2/b.sol\":5496:5511  token.allowance */\n      0xffffffffffffffffffffffffffffffffffffffff\n      and\n      0xdd62ed3e\n        /* \"contracts/CCK/CC2/b.sol\":5512:5522  msg.sender */\n      caller\n        /* \"contracts/CCK/CC2/b.sol\":5532:5536  this */\n      address\n        /* \"contracts/CCK/CC2/b.sol\":5496:5538  token.allowance(msg.sender, address(this)) */\n      mload(0x40)\n      dup4\n      0xffffffff\n      and\n      0xe0\n      shl\n      dup2\n      mstore\n      0x04\n      add\n      tag_241\n      swap3\n      swap2\n      swap1\n      tag_242\n      jump\t// in\n    tag_241:\n      0x20\n      mload(0x40)\n      dup1\n      dup4\n      sub\n      dup2\n      dup7\n      gas\n      staticcall\n      iszero\n      dup1\n      iszero\n      tag_244\n      jumpi\n      returndatacopy(0x00, 0x00, returndatasize)\n      revert(0x00, returndatasize)\n    tag_244:\n      pop\n      pop\n      pop\n      pop\n      mload(0x40)\n      returndatasize\n      not(0x1f)\n      0x1f\n      dup3\n      add\n      and\n      dup3\n      add\n      dup1\n      0x40\n      mstore\n      pop\n      dup2\n      add\n      swap1\n      tag_245\n      swap2\n      swap1\n      tag_246\n      jump\t// in\n    tag_245:\n        /* \"contracts/CCK/CC2/b.sol\":5496:5548  token.allowance(msg.sender, address(this)) >= amount */\n      lt\n      iszero\n        /* \"contracts/CCK/CC2/b.sol\":5488:5575  require(token.allowance(msg.sender, address(this)) >= amount, \"Insufficient allowance\") */\n      tag_247\n      jumpi\n      mload(0x40)\n      0x08c379a000000000000000000000000000000000000000000000000000000000\n      dup2\n      mstore\n      0x04\n      add\n      tag_248\n      swap1\n      tag_249\n      jump\t// in\n    tag_248:\n      mload(0x40)\n      dup1\n      swap2\n      sub\n      swap1\n      revert\n    tag_247:\n        /* \"contracts/CCK/CC2/b.sol\":5634:5646  bool success */\n      0x00\n        /* \"contracts/CCK/CC2/b.sol\":5649:5654  token */\n      dup2\n        /* \"contracts/CCK/CC2/b.sol\":5649:5667  token.transferFrom */\n      0xffffffffffffffffffffffffffffffffffffffff\n      and\n      0x23b872dd\n        /* \"contracts/CCK/CC2/b.sol\":5668:5678  msg.sender */\n      caller\n        /* \"contracts/CCK/CC2/b.sol\":5680:5696  transferReceiver */\n      immutable(\"0xa994c5983b61d271d018471a2bc76635c06f7e086ea7f835b905117f9d684d96\")\n        /* \"contracts/CCK/CC2/b.sol\":5698:5704  amount */\n      dup7\n        /* \"contracts/CCK/CC2/b.sol\":5649:5705  token.transferFrom(msg.sender, transferReceiver, amount) */\n      mload(0x40)\n      dup5\n      0xffffffff\n      and\n      0xe0\n      shl\n      dup2\n      mstore\n      0x04\n      add\n      tag_250\n      swap4\n      swap3\n      swap2\n      swap1\n      tag_251\n      jump\t// in\n    tag_250:\n      0x20\n      mload(0x40)\n      dup1\n      dup4\n      sub\n      dup2\n      0x00\n      dup8\n      gas\n      call\n      iszero\n      dup1\n      iszero\n      tag_253\n      jumpi\n      returndatacopy(0x00, 0x00, returndatasize)\n      revert(0x00, returndatasize)\n    tag_253:\n      pop\n      pop\n      pop\n      pop\n      mload(0x40)\n      returndatasize\n      not(0x1f)\n      0x1f\n      dup3\n      add\n      and\n      dup3\n      add\n      dup1\n      0x40\n      mstore\n      pop\n      dup2\n      add\n      swap1\n      tag_254\n      swap2\n      swap1\n      tag_255\n      jump\t// in\n    tag_254:\n        /* \"contracts/CCK/CC2/b.sol\":5634:5705  bool success = token.transferFrom(msg.sender, transferReceiver, amount) */\n      swap1\n      pop\n        /* \"contracts/CCK/CC2/b.sol\":5724:5731  success */\n      dup1\n        /* \"contracts/CCK/CC2/b.sol\":5716:5757  require(success, \"Token transfer failed\") */\n      tag_256\n      jumpi\n      mload(0x40)\n      0x08c379a000000000000000000000000000000000000000000000000000000000\n      dup2\n      mstore\n      0x04\n      add\n      tag_257\n      swap1\n      tag_258\n      jump\t// in\n    tag_257:\n      mload(0x40)\n      dup1\n      swap2\n      sub\n      swap1\n      revert\n    tag_256:\n        /* \"contracts/CCK/CC2/b.sol\":5815:5832  uint256 cckAmount */\n      0x00\n        /* \"contracts/CCK/CC2/b.sol\":922:924  20 */\n      0x14\n        /* \"contracts/CCK/CC2/b.sol\":5835:5841  amount */\n      dup5\n        /* \"contracts/CCK/CC2/b.sol\":5835:5854  amount * MINT_RATIO */\n      tag_259\n      swap2\n      swap1\n      tag_260\n      jump\t// in\n    tag_259:\n        /* \"contracts/CCK/CC2/b.sol\":5815:5854  uint256 cckAmount = amount * MINT_RATIO */\n      swap1\n      pop\n        /* \"contracts/CCK/CC2/b.sol\":5865:5893  _mint(msg.sender, cckAmount) */\n      tag_261\n        /* \"contracts/CCK/CC2/b.sol\":5871:5881  msg.sender */\n      caller\n        /* \"contracts/CCK/CC2/b.sol\":5883:5892  cckAmount */\n      dup3\n        /* \"contracts/CCK/CC2/b.sol\":5865:5870  _mint */\n      tag_207\n        /* \"contracts/CCK/CC2/b.sol\":5865:5893  _mint(msg.sender, cckAmount) */\n      jump\t// in\n    tag_261:\n        /* \"contracts/CCK/CC2/b.sol\":5920:5929  cckAmount */\n      dup1\n        /* \"contracts/CCK/CC2/b.sol\":5904:5916  mintedAmount */\n      0x09\n      0x00\n        /* \"contracts/CCK/CC2/b.sol\":5904:5929  mintedAmount += cckAmount */\n      dup3\n      dup3\n      sload\n      tag_262\n      swap2\n      swap1\n      tag_202\n      jump\t// in\n    tag_262:\n      swap3\n      pop\n      pop\n      dup2\n      swap1\n      sstore\n      pop\n        /* \"contracts/CCK/CC2/b.sol\":6003:6019  transferReceiver */\n      immutable(\"0xa994c5983b61d271d018471a2bc76635c06f7e086ea7f835b905117f9d684d96\")\n        /* \"contracts/CCK/CC2/b.sol\":5972:6028  TransferExecuted(tokenAddress, transferReceiver, amount) */\n      0xffffffffffffffffffffffffffffffffffffffff\n      and\n        /* \"contracts/CCK/CC2/b.sol\":5989:6001  tokenAddress */\n      immutable(\"0x373ab5f6f5686eaf15420a778a209383e0ee0196a782fa3fd3ec96f326a92e6e\")\n        /* \"contracts/CCK/CC2/b.sol\":5972:6028  TransferExecuted(tokenAddress, transferReceiver, amount) */\n      0xffffffffffffffffffffffffffffffffffffffff\n      and\n      0xc95d558e25335222b51e6424166172914e7ce4404a9647d3631ef320294081fd\n        /* \"contracts/CCK/CC2/b.sol\":6021:6027  amount */\n      dup7\n        /* \"contracts/CCK/CC2/b.sol\":5972:6028  TransferExecuted(tokenAddress, transferReceiver, amount) */\n      mload(0x40)\n      tag_263\n      swap2\n      swap1\n      tag_61\n      jump\t// in\n    tag_263:\n      mload(0x40)\n      dup1\n      swap2\n      sub\n      swap1\n      log3\n        /* \"contracts/CCK/CC2/b.sol\":4964:6036  {... */\n      pop\n      pop\n      pop\n        /* \"contracts/CCK/CC2/b.sol\":4914:6036  function transferAndMint(uint256 amount) external {... */\n      pop\n      jump\t// out\n        /* \"contracts/CCK/CC2/b.sol\":559:597  mapping(address => bool) public frozen */\n    tag_147:\n      mstore(0x20, 0x07)\n      dup1\n      0x00\n      mstore\n      keccak256(0x00, 0x40)\n      0x00\n      swap2\n      pop\n      sload\n      swap1\n      0x0100\n      exp\n      swap1\n      div\n      0xff\n      and\n      dup2\n      jump\t// out\n        /* \"contracts/CCK/CC2/b.sol\":2249:2361  function remainingSupply() external view returns (uint256) {... */\n    tag_150:\n        /* \"contracts/CCK/CC2/b.sol\":2299:2306  uint256 */\n      0x00\n        /* \"contracts/CCK/CC2/b.sol\":2341:2353  mintedAmount */\n      sload(0x09)\n        /* \"contracts/CCK/CC2/b.sol\":429:444  100_000_000_000 */\n      0x174876e800\n        /* \"contracts/CCK/CC2/b.sol\":2326:2353  TOTAL_SUPPLY - mintedAmount */\n      tag_265\n      swap2\n      swap1\n      tag_266\n      jump\t// in\n    tag_265:\n        /* \"contracts/CCK/CC2/b.sol\":2319:2353  return TOTAL_SUPPLY - mintedAmount */\n      swap1\n      pop\n        /* \"contracts/CCK/CC2/b.sol\":2249:2361  function remainingSupply() external view returns (uint256) {... */\n      swap1\n      jump\t// out\n        /* \"@openzeppelin/contracts/token/ERC20/ERC20.sol\":3532:3672  function allowance(address owner, address spender) public view virtual returns (uint256) {... */\n    tag_155:\n        /* \"@openzeppelin/contracts/token/ERC20/ERC20.sol\":3612:3619  uint256 */\n      0x00\n        /* \"@openzeppelin/contracts/token/ERC20/ERC20.sol\":3638:3649  _allowances */\n      0x01\n        /* \"@openzeppelin/contracts/token/ERC20/ERC20.sol\":3638:3656  _allowances[owner] */\n      0x00\n        /* \"@openzeppelin/contracts/token/ERC20/ERC20.sol\":3650:3655  owner */\n      dup5\n        /* \"@openzeppelin/contracts/token/ERC20/ERC20.sol\":3638:3656  _allowances[owner] */\n      0xffffffffffffffffffffffffffffffffffffffff\n      and\n      0xffffffffffffffffffffffffffffffffffffffff\n      and\n      dup2\n      mstore\n      0x20\n      add\n      swap1\n      dup2\n      mstore\n      0x20\n      add\n      0x00\n      keccak256\n        /* \"@openzeppelin/contracts/token/ERC20/ERC20.sol\":3638:3665  _allowances[owner][spender] */\n      0x00\n        /* \"@openzeppelin/contracts/token/ERC20/ERC20.sol\":3657:3664  spender */\n      dup4\n        /* \"@openzeppelin/contracts/token/ERC20/ERC20.sol\":3638:3665  _allowances[owner][spender] */\n      0xffffffffffffffffffffffffffffffffffffffff\n      and\n      0xffffffffffffffffffffffffffffffffffffffff\n      and\n      dup2\n      mstore\n      0x20\n      add\n      swap1\n      dup2\n      mstore\n      0x20\n      add\n      0x00\n      keccak256\n      sload\n        /* \"@openzeppelin/contracts/token/ERC20/ERC20.sol\":3631:3665  return _allowances[owner][spender] */\n      swap1\n      pop\n        /* \"@openzeppelin/contracts/token/ERC20/ERC20.sol\":3532:3672  function allowance(address owner, address spender) public view virtual returns (uint256) {... */\n      swap3\n      swap2\n      pop\n      pop\n      jump\t// out\n        /* \"contracts/CCK/CC2/b.sol\":1982:2073  function freezeUser(address user) external onlyOwner {... */\n    tag_159:\n        /* \"@openzeppelin/contracts/access/Ownable.sol\":1531:1544  _checkOwner() */\n      tag_269\n        /* \"@openzeppelin/contracts/access/Ownable.sol\":1531:1542  _checkOwner */\n      tag_199\n        /* \"@openzeppelin/contracts/access/Ownable.sol\":1531:1544  _checkOwner() */\n      jump\t// in\n    tag_269:\n        /* \"contracts/CCK/CC2/b.sol\":2061:2065  true */\n      0x01\n        /* \"contracts/CCK/CC2/b.sol\":2046:2052  frozen */\n      0x07\n        /* \"contracts/CCK/CC2/b.sol\":2046:2058  frozen[user] */\n      0x00\n        /* \"contracts/CCK/CC2/b.sol\":2053:2057  user */\n      dup4\n        /* \"contracts/CCK/CC2/b.sol\":2046:2058  frozen[user] */\n      0xffffffffffffffffffffffffffffffffffffffff\n      and\n      0xffffffffffffffffffffffffffffffffffffffff\n      and\n      dup2\n      mstore\n      0x20\n      add\n      swap1\n      dup2\n      mstore\n      0x20\n      add\n      0x00\n      keccak256\n      0x00\n        /* \"contracts/CCK/CC2/b.sol\":2046:2065  frozen[user] = true */\n      0x0100\n      exp\n      dup2\n      sload\n      dup2\n      0xff\n      mul\n      not\n      and\n      swap1\n      dup4\n      iszero\n      iszero\n      mul\n      or\n      swap1\n      sstore\n      pop\n        /* \"contracts/CCK/CC2/b.sol\":1982:2073  function freezeUser(address user) external onlyOwner {... */\n      pop\n      jump\t// out\n        /* \"contracts/CCK/CC2/b.sol\":1705:1807  function addToWhitelist(address member) external onlyOwner {... */\n    tag_162:\n        /* \"@openzeppelin/contracts/access/Ownable.sol\":1531:1544  _checkOwner() */\n      tag_272\n        /* \"@openzeppelin/contracts/access/Ownable.sol\":1531:1542  _checkOwner */\n      tag_199\n        /* \"@openzeppelin/contracts/access/Ownable.sol\":1531:1544  _checkOwner() */\n      jump\t// in\n    tag_272:\n        /* \"contracts/CCK/CC2/b.sol\":1795:1799  true */\n      0x01\n        /* \"contracts/CCK/CC2/b.sol\":1775:1784  whitelist */\n      0x06\n        /* \"contracts/CCK/CC2/b.sol\":1775:1792  whitelist[member] */\n      0x00\n        /* \"contracts/CCK/CC2/b.sol\":1785:1791  member */\n      dup4\n        /* \"contracts/CCK/CC2/b.sol\":1775:1792  whitelist[member] */\n      0xffffffffffffffffffffffffffffffffffffffff\n      and\n      0xffffffffffffffffffffffffffffffffffffffff\n      and\n      dup2\n      mstore\n      0x20\n      add\n      swap1\n      dup2\n      mstore\n      0x20\n      add\n      0x00\n      keccak256\n      0x00\n        /* \"contracts/CCK/CC2/b.sol\":1775:1799  whitelist[member] = true */\n      0x0100\n      exp\n      dup2\n      sload\n      dup2\n      0xff\n      mul\n      not\n      and\n      swap1\n      dup4\n      iszero\n      iszero\n      mul\n      or\n      swap1\n      sstore\n      pop\n        /* \"contracts/CCK/CC2/b.sol\":1705:1807  function addToWhitelist(address member) external onlyOwner {... */\n      pop\n      jump\t// out\n        /* \"contracts/CCK/CC2/b.sol\":2935:3057  function isFrozen(address userAddress) external view override returns (bool) {... */\n    tag_165:\n        /* \"contracts/CCK/CC2/b.sol\":3006:3010  bool */\n      0x00\n        /* \"contracts/CCK/CC2/b.sol\":3030:3036  frozen */\n      0x07\n        /* \"contracts/CCK/CC2/b.sol\":3030:3049  frozen[userAddress] */\n      0x00\n        /* \"contracts/CCK/CC2/b.sol\":3037:3048  userAddress */\n      dup4\n        /* \"contracts/CCK/CC2/b.sol\":3030:3049  frozen[userAddress] */\n      0xffffffffffffffffffffffffffffffffffffffff\n      and\n      0xffffffffffffffffffffffffffffffffffffffff\n      and\n      dup2\n      mstore\n      0x20\n      add\n      swap1\n      dup2\n      mstore\n      0x20\n      add\n      0x00\n      keccak256\n      0x00\n      swap1\n      sload\n      swap1\n      0x0100\n      exp\n      swap1\n      div\n      0xff\n      and\n        /* \"contracts/CCK/CC2/b.sol\":3023:3049  return frozen[userAddress] */\n      swap1\n      pop\n        /* \"contracts/CCK/CC2/b.sol\":2935:3057  function isFrozen(address userAddress) external view override returns (bool) {... */\n      swap2\n      swap1\n      pop\n      jump\t// out\n        /* \"contracts/CCK/CC2/b.sol\":4595:4871  function getCurrentPrice() external view returns (uint256) {... */\n    tag_168:\n        /* \"contracts/CCK/CC2/b.sol\":4645:4652  uint256 */\n      0x00\n        /* \"contracts/CCK/CC2/b.sol\":4665:4684  IUniswapV3Pool pool */\n      0x00\n        /* \"contracts/CCK/CC2/b.sol\":4702:4713  uniswapPool */\n      0x08\n      0x00\n      swap1\n      sload\n      swap1\n      0x0100\n      exp\n      swap1\n      div\n      0xffffffffffffffffffffffffffffffffffffffff\n      and\n        /* \"contracts/CCK/CC2/b.sol\":4665:4714  IUniswapV3Pool pool = IUniswapV3Pool(uniswapPool) */\n      swap1\n      pop\n        /* \"contracts/CCK/CC2/b.sol\":4726:4746  uint160 sqrtPriceX96 */\n      0x00\n        /* \"contracts/CCK/CC2/b.sol\":4762:4766  pool */\n      dup2\n        /* \"contracts/CCK/CC2/b.sol\":4762:4772  pool.slot0 */\n      0xffffffffffffffffffffffffffffffffffffffff\n      and\n      0x3850c7bd\n        /* \"contracts/CCK/CC2/b.sol\":4762:4774  pool.slot0() */\n      mload(0x40)\n      dup2\n      0xffffffff\n      and\n      0xe0\n      shl\n      dup2\n      mstore\n      0x04\n      add\n      0xe0\n      mload(0x40)\n      dup1\n      dup4\n      sub\n      dup2\n      dup7\n      gas\n      staticcall\n      iszero\n      dup1\n      iszero\n      tag_277\n      jumpi\n      returndatacopy(0x00, 0x00, returndatasize)\n      revert(0x00, returndatasize)\n    tag_277:\n      pop\n      pop\n      pop\n      pop\n      mload(0x40)\n      returndatasize\n      not(0x1f)\n      0x1f\n      dup3\n      add\n      and\n      dup3\n      add\n      dup1\n      0x40\n      mstore\n      pop\n      dup2\n      add\n      swap1\n      tag_278\n      swap2\n      swap1\n      tag_279\n      jump\t// in\n    tag_278:\n        /* \"contracts/CCK/CC2/b.sol\":4725:4774  (uint160 sqrtPriceX96, , , , , , ) = pool.slot0() */\n      pop\n      pop\n      pop\n      pop\n      pop\n      pop\n      swap1\n      pop\n        /* \"contracts/CCK/CC2/b.sol\":4785:4798  uint256 price */\n      0x00\n        /* \"contracts/CCK/CC2/b.sol\":4831:4839  2 ** 192 */\n      0x01000000000000000000000000000000000000000000000000\n        /* \"contracts/CCK/CC2/b.sol\":4826:4827  2 */\n      0x02\n        /* \"contracts/CCK/CC2/b.sol\":4809:4821  sqrtPriceX96 */\n      dup4\n        /* \"contracts/CCK/CC2/b.sol\":4801:4822  uint256(sqrtPriceX96) */\n      0xffffffffffffffffffffffffffffffffffffffff\n      and\n        /* \"contracts/CCK/CC2/b.sol\":4801:4827  uint256(sqrtPriceX96) ** 2 */\n      tag_280\n      swap2\n      swap1\n      tag_281\n      jump\t// in\n    tag_280:\n        /* \"contracts/CCK/CC2/b.sol\":4801:4840  uint256(sqrtPriceX96) ** 2 / (2 ** 192) */\n      tag_282\n      swap2\n      swap1\n      tag_283\n      jump\t// in\n    tag_282:\n        /* \"contracts/CCK/CC2/b.sol\":4785:4840  uint256 price = uint256(sqrtPriceX96) ** 2 / (2 ** 192) */\n      swap1\n      pop\n        /* \"contracts/CCK/CC2/b.sol\":4858:4863  price */\n      dup1\n        /* \"contracts/CCK/CC2/b.sol\":4851:4863  return price */\n      swap4\n      pop\n      pop\n      pop\n      pop\n        /* \"contracts/CCK/CC2/b.sol\":4595:4871  function getCurrentPrice() external view returns (uint256) {... */\n      swap1\n      jump\t// out\n        /* \"@openzeppelin/contracts/access/Ownable.sol\":2543:2758  function transferOwnership(address newOwner) public virtual onlyOwner {... */\n    tag_172:\n        /* \"@openzeppelin/contracts/access/Ownable.sol\":1531:1544  _checkOwner() */\n      tag_285\n        /* \"@openzeppelin/contracts/access/Ownable.sol\":1531:1542  _checkOwner */\n      tag_199\n        /* \"@openzeppelin/contracts/access/Ownable.sol\":1531:1544  _checkOwner() */\n      jump\t// in\n    tag_285:\n        /* \"@openzeppelin/contracts/access/Ownable.sol\":2647:2648  0 */\n      0x00\n        /* \"@openzeppelin/contracts/access/Ownable.sol\":2627:2649  newOwner == address(0) */\n      0xffffffffffffffffffffffffffffffffffffffff\n      and\n        /* \"@openzeppelin/contracts/access/Ownable.sol\":2627:2635  newOwner */\n      dup2\n        /* \"@openzeppelin/contracts/access/Ownable.sol\":2627:2649  newOwner == address(0) */\n      0xffffffffffffffffffffffffffffffffffffffff\n      and\n      sub\n        /* \"@openzeppelin/contracts/access/Ownable.sol\":2623:2714  if (newOwner == address(0)) {... */\n      tag_287\n      jumpi\n        /* \"@openzeppelin/contracts/access/Ownable.sol\":2700:2701  0 */\n      0x00\n        /* \"@openzeppelin/contracts/access/Ownable.sol\":2672:2703  OwnableInvalidOwner(address(0)) */\n      mload(0x40)\n      0x1e4fbdf700000000000000000000000000000000000000000000000000000000\n      dup2\n      mstore\n      0x04\n      add\n      tag_288\n      swap2\n      swap1\n      tag_65\n      jump\t// in\n    tag_288:\n      mload(0x40)\n      dup1\n      swap2\n      sub\n      swap1\n      revert\n        /* \"@openzeppelin/contracts/access/Ownable.sol\":2623:2714  if (newOwner == address(0)) {... */\n    tag_287:\n        /* \"@openzeppelin/contracts/access/Ownable.sol\":2723:2751  _transferOwnership(newOwner) */\n      tag_289\n        /* \"@openzeppelin/contracts/access/Ownable.sol\":2742:2750  newOwner */\n      dup2\n        /* \"@openzeppelin/contracts/access/Ownable.sol\":2723:2741  _transferOwnership */\n      tag_217\n        /* \"@openzeppelin/contracts/access/Ownable.sol\":2723:2751  _transferOwnership(newOwner) */\n      jump\t// in\n    tag_289:\n        /* \"@openzeppelin/contracts/access/Ownable.sol\":2543:2758  function transferOwnership(address newOwner) public virtual onlyOwner {... */\n      pop\n      jump\t// out\n        /* \"@openzeppelin/contracts/utils/Context.sol\":656:752  function _msgSender() internal view virtual returns (address) {... */\n    tag_182:\n        /* \"@openzeppelin/contracts/utils/Context.sol\":709:716  address */\n      0x00\n        /* \"@openzeppelin/contracts/utils/Context.sol\":735:745  msg.sender */\n      caller\n        /* \"@openzeppelin/contracts/utils/Context.sol\":728:745  return msg.sender */\n      swap1\n      pop\n        /* \"@openzeppelin/contracts/utils/Context.sol\":656:752  function _msgSender() internal view virtual returns (address) {... */\n      swap1\n      jump\t// out\n        /* \"@openzeppelin/contracts/token/ERC20/ERC20.sol\":8707:8835  function _approve(address owner, address spender, uint256 value) internal {... */\n    tag_184:\n        /* \"@openzeppelin/contracts/token/ERC20/ERC20.sol\":8791:8828  _approve(owner, spender, value, true) */\n      tag_292\n        /* \"@openzeppelin/contracts/token/ERC20/ERC20.sol\":8800:8805  owner */\n      dup4\n        /* \"@openzeppelin/contracts/token/ERC20/ERC20.sol\":8807:8814  spender */\n      dup4\n        /* \"@openzeppelin/contracts/token/ERC20/ERC20.sol\":8816:8821  value */\n      dup4\n        /* \"@openzeppelin/contracts/token/ERC20/ERC20.sol\":8823:8827  true */\n      0x01\n        /* \"@openzeppelin/contracts/token/ERC20/ERC20.sol\":8791:8799  _approve */\n      tag_293\n        /* \"@openzeppelin/contracts/token/ERC20/ERC20.sol\":8791:8828  _approve(owner, spender, value, true) */\n      jump\t// in\n    tag_292:\n        /* \"@openzeppelin/contracts/token/ERC20/ERC20.sol\":8707:8835  function _approve(address owner, address spender, uint256 value) internal {... */\n      pop\n      pop\n      pop\n      jump\t// out\n        /* \"@openzeppelin/contracts/token/ERC20/ERC20.sol\":4757:5001  function transferFrom(address from, address to, uint256 value) public virtual returns (bool) {... */\n    tag_195:\n        /* \"@openzeppelin/contracts/token/ERC20/ERC20.sol\":4844:4848  bool */\n      0x00\n        /* \"@openzeppelin/contracts/token/ERC20/ERC20.sol\":4860:4875  address spender */\n      0x00\n        /* \"@openzeppelin/contracts/token/ERC20/ERC20.sol\":4878:4890  _msgSender() */\n      tag_295\n        /* \"@openzeppelin/contracts/token/ERC20/ERC20.sol\":4878:4888  _msgSender */\n      tag_182\n        /* \"@openzeppelin/contracts/token/ERC20/ERC20.sol\":4878:4890  _msgSender() */\n      jump\t// in\n    tag_295:\n        /* \"@openzeppelin/contracts/token/ERC20/ERC20.sol\":4860:4890  address spender = _msgSender() */\n      swap1\n      pop\n        /* \"@openzeppelin/contracts/token/ERC20/ERC20.sol\":4900:4937  _spendAllowance(from, spender, value) */\n      tag_296\n        /* \"@openzeppelin/contracts/token/ERC20/ERC20.sol\":4916:4920  from */\n      dup6\n        /* \"@openzeppelin/contracts/token/ERC20/ERC20.sol\":4922:4929  spender */\n      dup3\n        /* \"@openzeppelin/contracts/token/ERC20/ERC20.sol\":4931:4936  value */\n      dup6\n        /* \"@openzeppelin/contracts/token/ERC20/ERC20.sol\":4900:4915  _spendAllowance */\n      tag_297\n        /* \"@openzeppelin/contracts/token/ERC20/ERC20.sol\":4900:4937  _spendAllowance(from, spender, value) */\n      jump\t// in\n    tag_296:\n        /* \"@openzeppelin/contracts/token/ERC20/ERC20.sol\":4947:4973  _transfer(from, to, value) */\n      tag_298\n        /* \"@openzeppelin/contracts/token/ERC20/ERC20.sol\":4957:4961  from */\n      dup6\n        /* \"@openzeppelin/contracts/token/ERC20/ERC20.sol\":4963:4965  to */\n      dup6\n        /* \"@openzeppelin/contracts/token/ERC20/ERC20.sol\":4967:4972  value */\n      dup6\n        /* \"@openzeppelin/contracts/token/ERC20/ERC20.sol\":4947:4956  _transfer */\n      tag_299\n        /* \"@openzeppelin/contracts/token/ERC20/ERC20.sol\":4947:4973  _transfer(from, to, value) */\n      jump\t// in\n    tag_298:\n        /* \"@openzeppelin/contracts/token/ERC20/ERC20.sol\":4990:4994  true */\n      0x01\n        /* \"@openzeppelin/contracts/token/ERC20/ERC20.sol\":4983:4994  return true */\n      swap2\n      pop\n      pop\n        /* \"@openzeppelin/contracts/token/ERC20/ERC20.sol\":4757:5001  function transferFrom(address from, address to, uint256 value) public virtual returns (bool) {... */\n      swap4\n      swap3\n      pop\n      pop\n      pop\n      jump\t// out\n        /* \"@openzeppelin/contracts/access/Ownable.sol\":1796:1958  function _checkOwner() internal view virtual {... */\n    tag_199:\n        /* \"@openzeppelin/contracts/access/Ownable.sol\":1866:1878  _msgSender() */\n      tag_301\n        /* \"@openzeppelin/contracts/access/Ownable.sol\":1866:1876  _msgSender */\n      tag_182\n        /* \"@openzeppelin/contracts/access/Ownable.sol\":1866:1878  _msgSender() */\n      jump\t// in\n    tag_301:\n        /* \"@openzeppelin/contracts/access/Ownable.sol\":1855:1878  owner() != _msgSender() */\n      0xffffffffffffffffffffffffffffffffffffffff\n      and\n        /* \"@openzeppelin/contracts/access/Ownable.sol\":1855:1862  owner() */\n      tag_302\n        /* \"@openzeppelin/contracts/access/Ownable.sol\":1855:1860  owner */\n      tag_107\n        /* \"@openzeppelin/contracts/access/Ownable.sol\":1855:1862  owner() */\n      jump\t// in\n    tag_302:\n        /* \"@openzeppelin/contracts/access/Ownable.sol\":1855:1878  owner() != _msgSender() */\n      0xffffffffffffffffffffffffffffffffffffffff\n      and\n      eq\n        /* \"@openzeppelin/contracts/access/Ownable.sol\":1851:1952  if (owner() != _msgSender()) {... */\n      tag_303\n      jumpi\n        /* \"@openzeppelin/contracts/access/Ownable.sol\":1928:1940  _msgSender() */\n      tag_304\n        /* \"@openzeppelin/contracts/access/Ownable.sol\":1928:1938  _msgSender */\n      tag_182\n        /* \"@openzeppelin/contracts/access/Ownable.sol\":1928:1940  _msgSender() */\n      jump\t// in\n    tag_304:\n        /* \"@openzeppelin/contracts/access/Ownable.sol\":1901:1941  OwnableUnauthorizedAccount(_msgSender()) */\n      mload(0x40)\n      0x118cdaa700000000000000000000000000000000000000000000000000000000\n      dup2\n      mstore\n      0x04\n      add\n      tag_305\n      swap2\n      swap1\n      tag_65\n      jump\t// in\n    tag_305:\n      mload(0x40)\n      dup1\n      swap2\n      sub\n      swap1\n      revert\n        /* \"@openzeppelin/contracts/access/Ownable.sol\":1851:1952  if (owner() != _msgSender()) {... */\n    tag_303:\n        /* \"@openzeppelin/contracts/access/Ownable.sol\":1796:1958  function _checkOwner() internal view virtual {... */\n      jump\t// out\n        /* \"@openzeppelin/contracts/token/ERC20/ERC20.sol\":7439:7647  function _mint(address account, uint256 value) internal {... */\n    tag_207:\n        /* \"@openzeppelin/contracts/token/ERC20/ERC20.sol\":7528:7529  0 */\n      0x00\n        /* \"@openzeppelin/contracts/token/ERC20/ERC20.sol\":7509:7530  account == address(0) */\n      0xffffffffffffffffffffffffffffffffffffffff\n      and\n        /* \"@openzeppelin/contracts/token/ERC20/ERC20.sol\":7509:7516  account */\n      dup3\n        /* \"@openzeppelin/contracts/token/ERC20/ERC20.sol\":7509:7530  account == address(0) */\n      0xffffffffffffffffffffffffffffffffffffffff\n      and\n      sub\n        /* \"@openzeppelin/contracts/token/ERC20/ERC20.sol\":7505:7596  if (account == address(0)) {... */\n      tag_307\n      jumpi\n        /* \"@openzeppelin/contracts/token/ERC20/ERC20.sol\":7582:7583  0 */\n      0x00\n        /* \"@openzeppelin/contracts/token/ERC20/ERC20.sol\":7553:7585  ERC20InvalidReceiver(address(0)) */\n      mload(0x40)\n      0xec442f0500000000000000000000000000000000000000000000000000000000\n      dup2\n      mstore\n      0x04\n      add\n      tag_308\n      swap2\n      swap1\n      tag_65\n      jump\t// in\n    tag_308:\n      mload(0x40)\n      dup1\n      swap2\n      sub\n      swap1\n      revert\n        /* \"@openzeppelin/contracts/token/ERC20/ERC20.sol\":7505:7596  if (account == address(0)) {... */\n    tag_307:\n        /* \"@openzeppelin/contracts/token/ERC20/ERC20.sol\":7605:7640  _update(address(0), account, value) */\n      tag_309\n        /* \"@openzeppelin/contracts/token/ERC20/ERC20.sol\":7621:7622  0 */\n      0x00\n        /* \"@openzeppelin/contracts/token/ERC20/ERC20.sol\":7625:7632  account */\n      dup4\n        /* \"@openzeppelin/contracts/token/ERC20/ERC20.sol\":7634:7639  value */\n      dup4\n        /* \"@openzeppelin/contracts/token/ERC20/ERC20.sol\":7605:7612  _update */\n      tag_310\n        /* \"@openzeppelin/contracts/token/ERC20/ERC20.sol\":7605:7640  _update(address(0), account, value) */\n      jump\t// in\n    tag_309:\n        /* \"@openzeppelin/contracts/token/ERC20/ERC20.sol\":7439:7647  function _mint(address account, uint256 value) internal {... */\n      pop\n      pop\n      jump\t// out\n        /* \"@openzeppelin/contracts/access/Ownable.sol\":2912:3099  function _transferOwnership(address newOwner) internal virtual {... */\n    tag_217:\n        /* \"@openzeppelin/contracts/access/Ownable.sol\":2985:3001  address oldOwner */\n      0x00\n        /* \"@openzeppelin/contracts/access/Ownable.sol\":3004:3010  _owner */\n      0x05\n      0x00\n      swap1\n      sload\n      swap1\n      0x0100\n      exp\n      swap1\n      div\n      0xffffffffffffffffffffffffffffffffffffffff\n      and\n        /* \"@openzeppelin/contracts/access/Ownable.sol\":2985:3010  address oldOwner = _owner */\n      swap1\n      pop\n        /* \"@openzeppelin/contracts/access/Ownable.sol\":3029:3037  newOwner */\n      dup2\n        /* \"@openzeppelin/contracts/access/Ownable.sol\":3020:3026  _owner */\n      0x05\n      0x00\n        /* \"@openzeppelin/contracts/access/Ownable.sol\":3020:3037  _owner = newOwner */\n      0x0100\n      exp\n      dup2\n      sload\n      dup2\n      0xffffffffffffffffffffffffffffffffffffffff\n      mul\n      not\n      and\n      swap1\n      dup4\n      0xffffffffffffffffffffffffffffffffffffffff\n      and\n      mul\n      or\n      swap1\n      sstore\n      pop\n        /* \"@openzeppelin/contracts/access/Ownable.sol\":3083:3091  newOwner */\n      dup2\n        /* \"@openzeppelin/contracts/access/Ownable.sol\":3052:3092  OwnershipTransferred(oldOwner, newOwner) */\n      0xffffffffffffffffffffffffffffffffffffffff\n      and\n        /* \"@openzeppelin/contracts/access/Ownable.sol\":3073:3081  oldOwner */\n      dup2\n        /* \"@openzeppelin/contracts/access/Ownable.sol\":3052:3092  OwnershipTransferred(oldOwner, newOwner) */\n      0xffffffffffffffffffffffffffffffffffffffff\n      and\n      0x8be0079c531659141344cd1fd0a4f28419497f9722a3daafe3b4186f6b6457e0\n      mload(0x40)\n      mload(0x40)\n      dup1\n      swap2\n      sub\n      swap1\n      log3\n        /* \"@openzeppelin/contracts/access/Ownable.sol\":2975:3099  {... */\n      pop\n        /* \"@openzeppelin/contracts/access/Ownable.sol\":2912:3099  function _transferOwnership(address newOwner) internal virtual {... */\n      pop\n      jump\t// out\n        /* \"@openzeppelin/contracts/token/ERC20/ERC20.sol\":3296:3474  function transfer(address to, uint256 value) public virtual returns (bool) {... */\n    tag_232:\n        /* \"@openzeppelin/contracts/token/ERC20/ERC20.sol\":3365:3369  bool */\n      0x00\n        /* \"@openzeppelin/contracts/token/ERC20/ERC20.sol\":3381:3394  address owner */\n      0x00\n        /* \"@openzeppelin/contracts/token/ERC20/ERC20.sol\":3397:3409  _msgSender() */\n      tag_313\n        /* \"@openzeppelin/contracts/token/ERC20/ERC20.sol\":3397:3407  _msgSender */\n      tag_182\n        /* \"@openzeppelin/contracts/token/ERC20/ERC20.sol\":3397:3409  _msgSender() */\n      jump\t// in\n    tag_313:\n        /* \"@openzeppelin/contracts/token/ERC20/ERC20.sol\":3381:3409  address owner = _msgSender() */\n      swap1\n      pop\n        /* \"@openzeppelin/contracts/token/ERC20/ERC20.sol\":3419:3446  _transfer(owner, to, value) */\n      tag_314\n        /* \"@openzeppelin/contracts/token/ERC20/ERC20.sol\":3429:3434  owner */\n      dup2\n        /* \"@openzeppelin/contracts/token/ERC20/ERC20.sol\":3436:3438  to */\n      dup6\n        /* \"@openzeppelin/contracts/token/ERC20/ERC20.sol\":3440:3445  value */\n      dup6\n        /* \"@openzeppelin/contracts/token/ERC20/ERC20.sol\":3419:3428  _transfer */\n      tag_299\n        /* \"@openzeppelin/contracts/token/ERC20/ERC20.sol\":3419:3446  _transfer(owner, to, value) */\n      jump\t// in\n    tag_314:\n        /* \"@openzeppelin/contracts/token/ERC20/ERC20.sol\":3463:3467  true */\n      0x01\n        /* \"@openzeppelin/contracts/token/ERC20/ERC20.sol\":3456:3467  return true */\n      swap2\n      pop\n      pop\n        /* \"@openzeppelin/contracts/token/ERC20/ERC20.sol\":3296:3474  function transfer(address to, uint256 value) public virtual returns (bool) {... */\n      swap3\n      swap2\n      pop\n      pop\n      jump\t// out\n        /* \"@openzeppelin/contracts/token/ERC20/ERC20.sol\":9682:10114  function _approve(address owner, address spender, uint256 value, bool emitEvent) internal virtual {... */\n    tag_293:\n        /* \"@openzeppelin/contracts/token/ERC20/ERC20.sol\":9811:9812  0 */\n      0x00\n        /* \"@openzeppelin/contracts/token/ERC20/ERC20.sol\":9794:9813  owner == address(0) */\n      0xffffffffffffffffffffffffffffffffffffffff\n      and\n        /* \"@openzeppelin/contracts/token/ERC20/ERC20.sol\":9794:9799  owner */\n      dup5\n        /* \"@openzeppelin/contracts/token/ERC20/ERC20.sol\":9794:9813  owner == address(0) */\n      0xffffffffffffffffffffffffffffffffffffffff\n      and\n      sub\n        /* \"@openzeppelin/contracts/token/ERC20/ERC20.sol\":9790:9879  if (owner == address(0)) {... */\n      tag_316\n      jumpi\n        /* \"@openzeppelin/contracts/token/ERC20/ERC20.sol\":9865:9866  0 */\n      0x00\n        /* \"@openzeppelin/contracts/token/ERC20/ERC20.sol\":9836:9868  ERC20InvalidApprover(address(0)) */\n      mload(0x40)\n      0xe602df0500000000000000000000000000000000000000000000000000000000\n      dup2\n      mstore\n      0x04\n      add\n      tag_317\n      swap2\n      swap1\n      tag_65\n      jump\t// in\n    tag_317:\n      mload(0x40)\n      dup1\n      swap2\n      sub\n      swap1\n      revert\n        /* \"@openzeppelin/contracts/token/ERC20/ERC20.sol\":9790:9879  if (owner == address(0)) {... */\n    tag_316:\n        /* \"@openzeppelin/contracts/token/ERC20/ERC20.sol\":9911:9912  0 */\n      0x00\n        /* \"@openzeppelin/contracts/token/ERC20/ERC20.sol\":9892:9913  spender == address(0) */\n      0xffffffffffffffffffffffffffffffffffffffff\n      and\n        /* \"@openzeppelin/contracts/token/ERC20/ERC20.sol\":9892:9899  spender */\n      dup4\n        /* \"@openzeppelin/contracts/token/ERC20/ERC20.sol\":9892:9913  spender == address(0) */\n      0xffffffffffffffffffffffffffffffffffffffff\n      and\n      sub\n        /* \"@openzeppelin/contracts/token/ERC20/ERC20.sol\":9888:9978  if (spender == address(0)) {... */\n      tag_318\n      jumpi\n        /* \"@openzeppelin/contracts/token/ERC20/ERC20.sol\":9964:9965  0 */\n      0x00\n        /* \"@openzeppelin/contracts/token/ERC20/ERC20.sol\":9936:9967  ERC20InvalidSpender(address(0)) */\n      mload(0x40)\n      0x94280d6200000000000000000000000000000000000000000000000000000000\n      dup2\n      mstore\n      0x04\n      add\n      tag_319\n      swap2\n      swap1\n      tag_65\n      jump\t// in\n    tag_319:\n      mload(0x40)\n      dup1\n      swap2\n      sub\n      swap1\n      revert\n        /* \"@openzeppelin/contracts/token/ERC20/ERC20.sol\":9888:9978  if (spender == address(0)) {... */\n    tag_318:\n        /* \"@openzeppelin/contracts/token/ERC20/ERC20.sol\":10017:10022  value */\n      dup2\n        /* \"@openzeppelin/contracts/token/ERC20/ERC20.sol\":9987:9998  _allowances */\n      0x01\n        /* \"@openzeppelin/contracts/token/ERC20/ERC20.sol\":9987:10005  _allowances[owner] */\n      0x00\n        /* \"@openzeppelin/contracts/token/ERC20/ERC20.sol\":9999:10004  owner */\n      dup7\n        /* \"@openzeppelin/contracts/token/ERC20/ERC20.sol\":9987:10005  _allowances[owner] */\n      0xffffffffffffffffffffffffffffffffffffffff\n      and\n      0xffffffffffffffffffffffffffffffffffffffff\n      and\n      dup2\n      mstore\n      0x20\n      add\n      swap1\n      dup2\n      mstore\n      0x20\n      add\n      0x00\n      keccak256\n        /* \"@openzeppelin/contracts/token/ERC20/ERC20.sol\":9987:10014  _allowances[owner][spender] */\n      0x00\n        /* \"@openzeppelin/contracts/token/ERC20/ERC20.sol\":10006:10013  spender */\n      dup6\n        /* \"@openzeppelin/contracts/token/ERC20/ERC20.sol\":9987:10014  _allowances[owner][spender] */\n      0xffffffffffffffffffffffffffffffffffffffff\n      and\n      0xffffffffffffffffffffffffffffffffffffffff\n      and\n      dup2\n      mstore\n      0x20\n      add\n      swap1\n      dup2\n      mstore\n      0x20\n      add\n      0x00\n      keccak256\n        /* \"@openzeppelin/contracts/token/ERC20/ERC20.sol\":9987:10022  _allowances[owner][spender] = value */\n      dup2\n      swap1\n      sstore\n      pop\n        /* \"@openzeppelin/contracts/token/ERC20/ERC20.sol\":10036:10045  emitEvent */\n      dup1\n        /* \"@openzeppelin/contracts/token/ERC20/ERC20.sol\":10032:10108  if (emitEvent) {... */\n      iszero\n      tag_320\n      jumpi\n        /* \"@openzeppelin/contracts/token/ERC20/ERC20.sol\":10082:10089  spender */\n      dup3\n        /* \"@openzeppelin/contracts/token/ERC20/ERC20.sol\":10066:10097  Approval(owner, spender, value) */\n      0xffffffffffffffffffffffffffffffffffffffff\n      and\n        /* \"@openzeppelin/contracts/token/ERC20/ERC20.sol\":10075:10080  owner */\n      dup5\n        /* \"@openzeppelin/contracts/token/ERC20/ERC20.sol\":10066:10097  Approval(owner, spender, value) */\n      0xffffffffffffffffffffffffffffffffffffffff\n      and\n      0x8c5be1e5ebec7d5bd14f71427d1e84f3dd0314c0f7b2291e5b200ac8c7c3b925\n        /* \"@openzeppelin/contracts/token/ERC20/ERC20.sol\":10091:10096  value */\n      dup5\n        /* \"@openzeppelin/contracts/token/ERC20/ERC20.sol\":10066:10097  Approval(owner, spender, value) */\n      mload(0x40)\n      tag_321\n      swap2\n      swap1\n      tag_61\n      jump\t// in\n    tag_321:\n      mload(0x40)\n      dup1\n      swap2\n      sub\n      swap1\n      log3\n        /* \"@openzeppelin/contracts/token/ERC20/ERC20.sol\":10032:10108  if (emitEvent) {... */\n    tag_320:\n        /* \"@openzeppelin/contracts/token/ERC20/ERC20.sol\":9682:10114  function _approve(address owner, address spender, uint256 value, bool emitEvent) internal virtual {... */\n      pop\n      pop\n      pop\n      pop\n      jump\t// out\n        /* \"@openzeppelin/contracts/token/ERC20/ERC20.sol\":10396:10872  function _spendAllowance(address owner, address spender, uint256 value) internal virtual {... */\n    tag_297:\n        /* \"@openzeppelin/contracts/token/ERC20/ERC20.sol\":10495:10519  uint256 currentAllowance */\n      0x00\n        /* \"@openzeppelin/contracts/token/ERC20/ERC20.sol\":10522:10547  allowance(owner, spender) */\n      tag_323\n        /* \"@openzeppelin/contracts/token/ERC20/ERC20.sol\":10532:10537  owner */\n      dup5\n        /* \"@openzeppelin/contracts/token/ERC20/ERC20.sol\":10539:10546  spender */\n      dup5\n        /* \"@openzeppelin/contracts/token/ERC20/ERC20.sol\":10522:10531  allowance */\n      tag_155\n        /* \"@openzeppelin/contracts/token/ERC20/ERC20.sol\":10522:10547  allowance(owner, spender) */\n      jump\t// in\n    tag_323:\n        /* \"@openzeppelin/contracts/token/ERC20/ERC20.sol\":10495:10547  uint256 currentAllowance = allowance(owner, spender) */\n      swap1\n      pop\n        /* \"@openzeppelin/contracts/token/ERC20/ERC20.sol\":10580:10597  type(uint256).max */\n      0xffffffffffffffffffffffffffffffffffffffffffffffffffffffffffffffff\n        /* \"@openzeppelin/contracts/token/ERC20/ERC20.sol\":10561:10577  currentAllowance */\n      dup2\n        /* \"@openzeppelin/contracts/token/ERC20/ERC20.sol\":10561:10597  currentAllowance < type(uint256).max */\n      lt\n        /* \"@openzeppelin/contracts/token/ERC20/ERC20.sol\":10557:10866  if (currentAllowance < type(uint256).max) {... */\n      iszero\n      tag_324\n      jumpi\n        /* \"@openzeppelin/contracts/token/ERC20/ERC20.sol\":10636:10641  value */\n      dup2\n        /* \"@openzeppelin/contracts/token/ERC20/ERC20.sol\":10617:10633  currentAllowance */\n      dup2\n        /* \"@openzeppelin/contracts/token/ERC20/ERC20.sol\":10617:10641  currentAllowance < value */\n      lt\n        /* \"@openzeppelin/contracts/token/ERC20/ERC20.sol\":10613:10743  if (currentAllowance < value) {... */\n      iszero\n      tag_325\n      jumpi\n        /* \"@openzeppelin/contracts/token/ERC20/ERC20.sol\":10695:10702  spender */\n      dup3\n        /* \"@openzeppelin/contracts/token/ERC20/ERC20.sol\":10704:10720  currentAllowance */\n      dup2\n        /* \"@openzeppelin/contracts/token/ERC20/ERC20.sol\":10722:10727  value */\n      dup4\n        /* \"@openzeppelin/contracts/token/ERC20/ERC20.sol\":10668:10728  ERC20InsufficientAllowance(spender, currentAllowance, value) */\n      mload(0x40)\n      0xfb8f41b200000000000000000000000000000000000000000000000000000000\n      dup2\n      mstore\n      0x04\n      add\n      tag_326\n      swap4\n      swap3\n      swap2\n      swap1\n      tag_327\n      jump\t// in\n    tag_326:\n      mload(0x40)\n      dup1\n      swap2\n      sub\n      swap1\n      revert\n        /* \"@openzeppelin/contracts/token/ERC20/ERC20.sol\":10613:10743  if (currentAllowance < value) {... */\n    tag_325:\n        /* \"@openzeppelin/contracts/token/ERC20/ERC20.sol\":10784:10841  _approve(owner, spender, currentAllowance - value, false) */\n      tag_328\n        /* \"@openzeppelin/contracts/token/ERC20/ERC20.sol\":10793:10798  owner */\n      dup5\n        /* \"@openzeppelin/contracts/token/ERC20/ERC20.sol\":10800:10807  spender */\n      dup5\n        /* \"@openzeppelin/contracts/token/ERC20/ERC20.sol\":10828:10833  value */\n      dup5\n        /* \"@openzeppelin/contracts/token/ERC20/ERC20.sol\":10809:10825  currentAllowance */\n      dup5\n        /* \"@openzeppelin/contracts/token/ERC20/ERC20.sol\":10809:10833  currentAllowance - value */\n      sub\n        /* \"@openzeppelin/contracts/token/ERC20/ERC20.sol\":10835:10840  false */\n      0x00\n        /* \"@openzeppelin/contracts/token/ERC20/ERC20.sol\":10784:10792  _approve */\n      tag_293\n        /* \"@openzeppelin/contracts/token/ERC20/ERC20.sol\":10784:10841  _approve(owner, spender, currentAllowance - value, false) */\n      jump\t// in\n    tag_328:\n        /* \"@openzeppelin/contracts/token/ERC20/ERC20.sol\":10557:10866  if (currentAllowance < type(uint256).max) {... */\n    tag_324:\n        /* \"@openzeppelin/contracts/token/ERC20/ERC20.sol\":10485:10872  {... */\n      pop\n        /* \"@openzeppelin/contracts/token/ERC20/ERC20.sol\":10396:10872  function _spendAllowance(address owner, address spender, uint256 value) internal virtual {... */\n      pop\n      pop\n      pop\n      jump\t// out\n        /* \"@openzeppelin/contracts/token/ERC20/ERC20.sol\":5374:5674  function _transfer(address from, address to, uint256 value) internal {... */\n    tag_299:\n        /* \"@openzeppelin/contracts/token/ERC20/ERC20.sol\":5473:5474  0 */\n      0x00\n        /* \"@openzeppelin/contracts/token/ERC20/ERC20.sol\":5457:5475  from == address(0) */\n      0xffffffffffffffffffffffffffffffffffffffff\n      and\n        /* \"@openzeppelin/contracts/token/ERC20/ERC20.sol\":5457:5461  from */\n      dup4\n        /* \"@openzeppelin/contracts/token/ERC20/ERC20.sol\":5457:5475  from == address(0) */\n      0xffffffffffffffffffffffffffffffffffffffff\n      and\n      sub\n        /* \"@openzeppelin/contracts/token/ERC20/ERC20.sol\":5453:5539  if (from == address(0)) {... */\n      tag_330\n      jumpi\n        /* \"@openzeppelin/contracts/token/ERC20/ERC20.sol\":5525:5526  0 */\n      0x00\n        /* \"@openzeppelin/contracts/token/ERC20/ERC20.sol\":5498:5528  ERC20InvalidSender(address(0)) */\n      mload(0x40)\n      0x96c6fd1e00000000000000000000000000000000000000000000000000000000\n      dup2\n      mstore\n      0x04\n      add\n      tag_331\n      swap2\n      swap1\n      tag_65\n      jump\t// in\n    tag_331:\n      mload(0x40)\n      dup1\n      swap2\n      sub\n      swap1\n      revert\n        /* \"@openzeppelin/contracts/token/ERC20/ERC20.sol\":5453:5539  if (from == address(0)) {... */\n    tag_330:\n        /* \"@openzeppelin/contracts/token/ERC20/ERC20.sol\":5566:5567  0 */\n      0x00\n        /* \"@openzeppelin/contracts/token/ERC20/ERC20.sol\":5552:5568  to == address(0) */\n      0xffffffffffffffffffffffffffffffffffffffff\n      and\n        /* \"@openzeppelin/contracts/token/ERC20/ERC20.sol\":5552:5554  to */\n      dup3\n        /* \"@openzeppelin/contracts/token/ERC20/ERC20.sol\":5552:5568  to == address(0) */\n      0xffffffffffffffffffffffffffffffffffffffff\n      and\n      sub\n        /* \"@openzeppelin/contracts/token/ERC20/ERC20.sol\":5548:5634  if (to == address(0)) {... */\n      tag_332\n      jumpi\n        /* \"@openzeppelin/contracts/token/ERC20/ERC20.sol\":5620:5621  0 */\n      0x00\n        /* \"@openzeppelin/contracts/token/ERC20/ERC20.sol\":5591:5623  ERC20InvalidReceiver(address(0)) */\n      mload(0x40)\n      0xec442f0500000000000000000000000000000000000000000000000000000000\n      dup2\n      mstore\n      0x04\n      add\n      tag_333\n      swap2\n      swap1\n      tag_65\n      jump\t// in\n    tag_333:\n      mload(0x40)\n      dup1\n      swap2\n      sub\n      swap1\n      revert\n        /* \"@openzeppelin/contracts/token/ERC20/ERC20.sol\":5548:5634  if (to == address(0)) {... */\n    tag_332:\n        /* \"@openzeppelin/contracts/token/ERC20/ERC20.sol\":5643:5667  _update(from, to, value) */\n      tag_334\n        /* \"@openzeppelin/contracts/token/ERC20/ERC20.sol\":5651:5655  from */\n      dup4\n        /* \"@openzeppelin/contracts/token/ERC20/ERC20.sol\":5657:5659  to */\n      dup4\n        /* \"@openzeppelin/contracts/token/ERC20/ERC20.sol\":5661:5666  value */\n      dup4\n        /* \"@openzeppelin/contracts/token/ERC20/ERC20.sol\":5643:5650  _update */\n      tag_310\n        /* \"@openzeppelin/contracts/token/ERC20/ERC20.sol\":5643:5667  _update(from, to, value) */\n      jump\t// in\n    tag_334:\n        /* \"@openzeppelin/contracts/token/ERC20/ERC20.sol\":5374:5674  function _transfer(address from, address to, uint256 value) internal {... */\n      pop\n      pop\n      pop\n      jump\t// out\n        /* \"@openzeppelin/contracts/token/ERC20/ERC20.sol\":5989:7096  function _update(address from, address to, uint256 value) internal virtual {... */\n    tag_310:\n        /* \"@openzeppelin/contracts/token/ERC20/ERC20.sol\":6094:6095  0 */\n      0x00\n        /* \"@openzeppelin/contracts/token/ERC20/ERC20.sol\":6078:6096  from == address(0) */\n      0xffffffffffffffffffffffffffffffffffffffff\n      and\n        /* \"@openzeppelin/contracts/token/ERC20/ERC20.sol\":6078:6082  from */\n      dup4\n        /* \"@openzeppelin/contracts/token/ERC20/ERC20.sol\":6078:6096  from == address(0) */\n      0xffffffffffffffffffffffffffffffffffffffff\n      and\n      sub\n        /* \"@openzeppelin/contracts/token/ERC20/ERC20.sol\":6074:6614  if (from == address(0)) {... */\n      tag_336\n      jumpi\n        /* \"@openzeppelin/contracts/token/ERC20/ERC20.sol\":6230:6235  value */\n      dup1\n        /* \"@openzeppelin/contracts/token/ERC20/ERC20.sol\":6214:6226  _totalSupply */\n      0x02\n      0x00\n        /* \"@openzeppelin/contracts/token/ERC20/ERC20.sol\":6214:6235  _totalSupply += value */\n      dup3\n      dup3\n      sload\n      tag_337\n      swap2\n      swap1\n      tag_202\n      jump\t// in\n    tag_337:\n      swap3\n      pop\n      pop\n      dup2\n      swap1\n      sstore\n      pop\n        /* \"@openzeppelin/contracts/token/ERC20/ERC20.sol\":6074:6614  if (from == address(0)) {... */\n      jump(tag_338)\n    tag_336:\n        /* \"@openzeppelin/contracts/token/ERC20/ERC20.sol\":6266:6285  uint256 fromBalance */\n      0x00\n        /* \"@openzeppelin/contracts/token/ERC20/ERC20.sol\":6288:6297  _balances */\n      0x00\n        /* \"@openzeppelin/contracts/token/ERC20/ERC20.sol\":6288:6303  _balances[from] */\n      0x00\n        /* \"@openzeppelin/contracts/token/ERC20/ERC20.sol\":6298:6302  from */\n      dup6\n        /* \"@openzeppelin/contracts/token/ERC20/ERC20.sol\":6288:6303  _balances[from] */\n      0xffffffffffffffffffffffffffffffffffffffff\n      and\n      0xffffffffffffffffffffffffffffffffffffffff\n      and\n      dup2\n      mstore\n      0x20\n      add\n      swap1\n      dup2\n      mstore\n      0x20\n      add\n      0x00\n      keccak256\n      sload\n        /* \"@openzeppelin/contracts/token/ERC20/ERC20.sol\":6266:6303  uint256 fromBalance = _balances[from] */\n      swap1\n      pop\n        /* \"@openzeppelin/contracts/token/ERC20/ERC20.sol\":6335:6340  value */\n      dup2\n        /* \"@openzeppelin/contracts/token/ERC20/ERC20.sol\":6321:6332  fromBalance */\n      dup2\n        /* \"@openzeppelin/contracts/token/ERC20/ERC20.sol\":6321:6340  fromBalance < value */\n      lt\n        /* \"@openzeppelin/contracts/token/ERC20/ERC20.sol\":6317:6432  if (fromBalance < value) {... */\n      iszero\n      tag_339\n      jumpi\n        /* \"@openzeppelin/contracts/token/ERC20/ERC20.sol\":6392:6396  from */\n      dup4\n        /* \"@openzeppelin/contracts/token/ERC20/ERC20.sol\":6398:6409  fromBalance */\n      dup2\n        /* \"@openzeppelin/contracts/token/ERC20/ERC20.sol\":6411:6416  value */\n      dup4\n        /* \"@openzeppelin/contracts/token/ERC20/ERC20.sol\":6367:6417  ERC20InsufficientBalance(from, fromBalance, value) */\n      mload(0x40)\n      0xe450d38c00000000000000000000000000000000000000000000000000000000\n      dup2\n      mstore\n      0x04\n      add\n      tag_340\n      swap4\n      swap3\n      swap2\n      swap1\n      tag_327\n      jump\t// in\n    tag_340:\n      mload(0x40)\n      dup1\n      swap2\n      sub\n      swap1\n      revert\n        /* \"@openzeppelin/contracts/token/ERC20/ERC20.sol\":6317:6432  if (fromBalance < value) {... */\n    tag_339:\n        /* \"@openzeppelin/contracts/token/ERC20/ERC20.sol\":6584:6589  value */\n      dup2\n        /* \"@openzeppelin/contracts/token/ERC20/ERC20.sol\":6570:6581  fromBalance */\n      dup2\n        /* \"@openzeppelin/contracts/token/ERC20/ERC20.sol\":6570:6589  fromBalance - value */\n      sub\n        /* \"@openzeppelin/contracts/token/ERC20/ERC20.sol\":6552:6561  _balances */\n      0x00\n        /* \"@openzeppelin/contracts/token/ERC20/ERC20.sol\":6552:6567  _balances[from] */\n      0x00\n        /* \"@openzeppelin/contracts/token/ERC20/ERC20.sol\":6562:6566  from */\n      dup7\n        /* \"@openzeppelin/contracts/token/ERC20/ERC20.sol\":6552:6567  _balances[from] */\n      0xffffffffffffffffffffffffffffffffffffffff\n      and\n      0xffffffffffffffffffffffffffffffffffffffff\n      and\n      dup2\n      mstore\n      0x20\n      add\n      swap1\n      dup2\n      mstore\n      0x20\n      add\n      0x00\n      keccak256\n        /* \"@openzeppelin/contracts/token/ERC20/ERC20.sol\":6552:6589  _balances[from] = fromBalance - value */\n      dup2\n      swap1\n      sstore\n      pop\n        /* \"@openzeppelin/contracts/token/ERC20/ERC20.sol\":6252:6614  {... */\n      pop\n        /* \"@openzeppelin/contracts/token/ERC20/ERC20.sol\":6074:6614  if (from == address(0)) {... */\n    tag_338:\n        /* \"@openzeppelin/contracts/token/ERC20/ERC20.sol\":6642:6643  0 */\n      0x00\n        /* \"@openzeppelin/contracts/token/ERC20/ERC20.sol\":6628:6644  to == address(0) */\n      0xffffffffffffffffffffffffffffffffffffffff\n      and\n        /* \"@openzeppelin/contracts/token/ERC20/ERC20.sol\":6628:6630  to */\n      dup3\n        /* \"@openzeppelin/contracts/token/ERC20/ERC20.sol\":6628:6644  to == address(0) */\n      0xffffffffffffffffffffffffffffffffffffffff\n      and\n      sub\n        /* \"@openzeppelin/contracts/token/ERC20/ERC20.sol\":6624:7049  if (to == address(0)) {... */\n      tag_341\n      jumpi\n        /* \"@openzeppelin/contracts/token/ERC20/ERC20.sol\":6807:6812  value */\n      dup1\n        /* \"@openzeppelin/contracts/token/ERC20/ERC20.sol\":6791:6803  _totalSupply */\n      0x02\n      0x00\n        /* \"@openzeppelin/contracts/token/ERC20/ERC20.sol\":6791:6812  _totalSupply -= value */\n      dup3\n      dup3\n      sload\n      sub\n      swap3\n      pop\n      pop\n      dup2\n      swap1\n      sstore\n      pop\n        /* \"@openzeppelin/contracts/token/ERC20/ERC20.sol\":6624:7049  if (to == address(0)) {... */\n      jump(tag_342)\n    tag_341:\n        /* \"@openzeppelin/contracts/token/ERC20/ERC20.sol\":7019:7024  value */\n      dup1\n        /* \"@openzeppelin/contracts/token/ERC20/ERC20.sol\":7002:7011  _balances */\n      0x00\n        /* \"@openzeppelin/contracts/token/ERC20/ERC20.sol\":7002:7015  _balances[to] */\n      0x00\n        /* \"@openzeppelin/contracts/token/ERC20/ERC20.sol\":7012:7014  to */\n      dup5\n        /* \"@openzeppelin/contracts/token/ERC20/ERC20.sol\":7002:7015  _balances[to] */\n      0xffffffffffffffffffffffffffffffffffffffff\n      and\n      0xffffffffffffffffffffffffffffffffffffffff\n      and\n      dup2\n      mstore\n      0x20\n      add\n      swap1\n      dup2\n      mstore\n      0x20\n      add\n      0x00\n      keccak256\n      0x00\n        /* \"@openzeppelin/contracts/token/ERC20/ERC20.sol\":7002:7024  _balances[to] += value */\n      dup3\n      dup3\n      sload\n      add\n      swap3\n      pop\n      pop\n      dup2\n      swap1\n      sstore\n      pop\n        /* \"@openzeppelin/contracts/token/ERC20/ERC20.sol\":6624:7049  if (to == address(0)) {... */\n    tag_342:\n        /* \"@openzeppelin/contracts/token/ERC20/ERC20.sol\":7079:7081  to */\n      dup2\n        /* \"@openzeppelin/contracts/token/ERC20/ERC20.sol\":7064:7089  Transfer(from, to, value) */\n      0xffffffffffffffffffffffffffffffffffffffff\n      and\n        /* \"@openzeppelin/contracts/token/ERC20/ERC20.sol\":7073:7077  from */\n      dup4\n        /* \"@openzeppelin/contracts/token/ERC20/ERC20.sol\":7064:7089  Transfer(from, to, value) */\n      0xffffffffffffffffffffffffffffffffffffffff\n      and\n      0xddf252ad1be2c89b69c2b068fc378daa952ba7f163c4a11628f55a4df523b3ef\n        /* \"@openzeppelin/contracts/token/ERC20/ERC20.sol\":7083:7088  value */\n      dup4\n        /* \"@openzeppelin/contracts/token/ERC20/ERC20.sol\":7064:7089  Transfer(from, to, value) */\n      mload(0x40)\n      tag_343\n      swap2\n      swap1\n      tag_61\n      jump\t// in\n    tag_343:\n      mload(0x40)\n      dup1\n      swap2\n      sub\n      swap1\n      log3\n        /* \"@openzeppelin/contracts/token/ERC20/ERC20.sol\":5989:7096  function _update(address from, address to, uint256 value) internal virtual {... */\n      pop\n      pop\n      pop\n      jump\t// out\n        /* \"#utility.yul\":7:106   */\n    tag_344:\n        /* \"#utility.yul\":59:65   */\n      0x00\n        /* \"#utility.yul\":93:98   */\n      dup2\n        /* \"#utility.yul\":87:99   */\n      mload\n        /* \"#utility.yul\":77:99   */\n      swap1\n      pop\n        /* \"#utility.yul\":7:106   */\n      swap2\n      swap1\n      pop\n      jump\t// out\n        /* \"#utility.yul\":112:281   */\n    tag_345:\n        /* \"#utility.yul\":196:207   */\n      0x00\n        /* \"#utility.yul\":230:236   */\n      dup3\n        /* \"#utility.yul\":225:228   */\n      dup3\n        /* \"#utility.yul\":218:237   */\n      mstore\n        /* \"#utility.yul\":270:274   */\n      0x20\n        /* \"#utility.yul\":265:268   */\n      dup3\n        /* \"#utility.yul\":261:275   */\n      add\n        /* \"#utility.yul\":246:275   */\n      swap1\n      pop\n        /* \"#utility.yul\":112:281   */\n      swap3\n      swap2\n      pop\n      pop\n      jump\t// out\n        /* \"#utility.yul\":287:426   */\n    tag_346:\n        /* \"#utility.yul\":376:382   */\n      dup3\n        /* \"#utility.yul\":371:374   */\n      dup2\n        /* \"#utility.yul\":366:369   */\n      dup4\n        /* \"#utility.yul\":360:383   */\n      mcopy\n        /* \"#utility.yul\":417:418   */\n      0x00\n        /* \"#utility.yul\":408:414   */\n      dup4\n        /* \"#utility.yul\":403:406   */\n      dup4\n        /* \"#utility.yul\":399:415   */\n      add\n        /* \"#utility.yul\":392:419   */\n      mstore\n        /* \"#utility.yul\":287:426   */\n      pop\n      pop\n      pop\n      jump\t// out\n        /* \"#utility.yul\":432:534   */\n    tag_347:\n        /* \"#utility.yul\":473:479   */\n      0x00\n        /* \"#utility.yul\":524:526   */\n      0x1f\n        /* \"#utility.yul\":520:527   */\n      not\n        /* \"#utility.yul\":515:517   */\n      0x1f\n        /* \"#utility.yul\":508:513   */\n      dup4\n        /* \"#utility.yul\":504:518   */\n      add\n        /* \"#utility.yul\":500:528   */\n      and\n        /* \"#utility.yul\":490:528   */\n      swap1\n      pop\n        /* \"#utility.yul\":432:534   */\n      swap2\n      swap1\n      pop\n      jump\t// out\n        /* \"#utility.yul\":540:917   */\n    tag_348:\n        /* \"#utility.yul\":628:631   */\n      0x00\n        /* \"#utility.yul\":656:695   */\n      tag_400\n        /* \"#utility.yul\":689:694   */\n      dup3\n        /* \"#utility.yul\":656:695   */\n      tag_344\n      jump\t// in\n    tag_400:\n        /* \"#utility.yul\":711:782   */\n      tag_401\n        /* \"#utility.yul\":775:781   */\n      dup2\n        /* \"#utility.yul\":770:773   */\n      dup6\n        /* \"#utility.yul\":711:782   */\n      tag_345\n      jump\t// in\n    tag_401:\n        /* \"#utility.yul\":704:782   */\n      swap4\n      pop\n        /* \"#utility.yul\":791:856   */\n      tag_402\n        /* \"#utility.yul\":849:855   */\n      dup2\n        /* \"#utility.yul\":844:847   */\n      dup6\n        /* \"#utility.yul\":837:841   */\n      0x20\n        /* \"#utility.yul\":830:835   */\n      dup7\n        /* \"#utility.yul\":826:842   */\n      add\n        /* \"#utility.yul\":791:856   */\n      tag_346\n      jump\t// in\n    tag_402:\n        /* \"#utility.yul\":881:910   */\n      tag_403\n        /* \"#utility.yul\":903:909   */\n      dup2\n        /* \"#utility.yul\":881:910   */\n      tag_347\n      jump\t// in\n    tag_403:\n        /* \"#utility.yul\":876:879   */\n      dup5\n        /* \"#utility.yul\":872:911   */\n      add\n        /* \"#utility.yul\":865:911   */\n      swap2\n      pop\n        /* \"#utility.yul\":632:917   */\n      pop\n        /* \"#utility.yul\":540:917   */\n      swap3\n      swap2\n      pop\n      pop\n      jump\t// out\n        /* \"#utility.yul\":923:1236   */\n    tag_49:\n        /* \"#utility.yul\":1036:1040   */\n      0x00\n        /* \"#utility.yul\":1074:1076   */\n      0x20\n        /* \"#utility.yul\":1063:1072   */\n      dup3\n        /* \"#utility.yul\":1059:1077   */\n      add\n        /* \"#utility.yul\":1051:1077   */\n      swap1\n      pop\n        /* \"#utility.yul\":1123:1132   */\n      dup2\n        /* \"#utility.yul\":1117:1121   */\n      dup2\n        /* \"#utility.yul\":1113:1133   */\n      sub\n        /* \"#utility.yul\":1109:1110   */\n      0x00\n        /* \"#utility.yul\":1098:1107   */\n      dup4\n        /* \"#utility.yul\":1094:1111   */\n      add\n        /* \"#utility.yul\":1087:1134   */\n      mstore\n        /* \"#utility.yul\":1151:1229   */\n      tag_405\n        /* \"#utility.yul\":1224:1228   */\n      dup2\n        /* \"#utility.yul\":1215:1221   */\n      dup5\n        /* \"#utility.yul\":1151:1229   */\n      tag_348\n      jump\t// in\n    tag_405:\n        /* \"#utility.yul\":1143:1229   */\n      swap1\n      pop\n        /* \"#utility.yul\":923:1236   */\n      swap3\n      swap2\n      pop\n      pop\n      jump\t// out\n        /* \"#utility.yul\":1323:1440   */\n    tag_350:\n        /* \"#utility.yul\":1432:1433   */\n      0x00\n        /* \"#utility.yul\":1429:1430   */\n      0x00\n        /* \"#utility.yul\":1422:1434   */\n      revert\n        /* \"#utility.yul\":1569:1695   */\n    tag_352:\n        /* \"#utility.yul\":1606:1613   */\n      0x00\n        /* \"#utility.yul\":1646:1688   */\n      0xffffffffffffffffffffffffffffffffffffffff\n        /* \"#utility.yul\":1639:1644   */\n      dup3\n        /* \"#utility.yul\":1635:1689   */\n      and\n        /* \"#utility.yul\":1624:1689   */\n      swap1\n      pop\n        /* \"#utility.yul\":1569:1695   */\n      swap2\n      swap1\n      pop\n      jump\t// out\n        /* \"#utility.yul\":1701:1797   */\n    tag_353:\n        /* \"#utility.yul\":1738:1745   */\n      0x00\n        /* \"#utility.yul\":1767:1791   */\n      tag_411\n        /* \"#utility.yul\":1785:1790   */\n      dup3\n        /* \"#utility.yul\":1767:1791   */\n      tag_352\n      jump\t// in\n    tag_411:\n        /* \"#utility.yul\":1756:1791   */\n      swap1\n      pop\n        /* \"#utility.yul\":1701:1797   */\n      swap2\n      swap1\n      pop\n      jump\t// out\n        /* \"#utility.yul\":1803:1925   */\n    tag_354:\n        /* \"#utility.yul\":1876:1900   */\n      tag_413\n        /* \"#utility.yul\":1894:1899   */\n      dup2\n        /* \"#utility.yul\":1876:1900   */\n      tag_353\n      jump\t// in\n    tag_413:\n        /* \"#utility.yul\":1869:1874   */\n      dup2\n        /* \"#utility.yul\":1866:1901   */\n      eq\n        /* \"#utility.yul\":1856:1919   */\n      tag_414\n      jumpi\n        /* \"#utility.yul\":1915:1916   */\n      0x00\n        /* \"#utility.yul\":1912:1913   */\n      0x00\n        /* \"#utility.yul\":1905:1917   */\n      revert\n        /* \"#utility.yul\":1856:1919   */\n    tag_414:\n        /* \"#utility.yul\":1803:1925   */\n      pop\n      jump\t// out\n        /* \"#utility.yul\":1931:2070   */\n    tag_355:\n        /* \"#utility.yul\":1977:1982   */\n      0x00\n        /* \"#utility.yul\":2015:2021   */\n      dup2\n        /* \"#utility.yul\":2002:2022   */\n      calldataload\n        /* \"#utility.yul\":1993:2022   */\n      swap1\n      pop\n        /* \"#utility.yul\":2031:2064   */\n      tag_416\n        /* \"#utility.yul\":2058:2063   */\n      dup2\n        /* \"#utility.yul\":2031:2064   */\n      tag_354\n      jump\t// in\n    tag_416:\n        /* \"#utility.yul\":1931:2070   */\n      swap3\n      swap2\n      pop\n      pop\n      jump\t// out\n        /* \"#utility.yul\":2076:2153   */\n    tag_356:\n        /* \"#utility.yul\":2113:2120   */\n      0x00\n        /* \"#utility.yul\":2142:2147   */\n      dup2\n        /* \"#utility.yul\":2131:2147   */\n      swap1\n      pop\n        /* \"#utility.yul\":2076:2153   */\n      swap2\n      swap1\n      pop\n      jump\t// out\n        /* \"#utility.yul\":2159:2281   */\n    tag_357:\n        /* \"#utility.yul\":2232:2256   */\n      tag_419\n        /* \"#utility.yul\":2250:2255   */\n      dup2\n        /* \"#utility.yul\":2232:2256   */\n      tag_356\n      jump\t// in\n    tag_419:\n        /* \"#utility.yul\":2225:2230   */\n      dup2\n        /* \"#utility.yul\":2222:2257   */\n      eq\n        /* \"#utility.yul\":2212:2275   */\n      tag_420\n      jumpi\n        /* \"#utility.yul\":2271:2272   */\n      0x00\n        /* \"#utility.yul\":2268:2269   */\n      0x00\n        /* \"#utility.yul\":2261:2273   */\n      revert\n        /* \"#utility.yul\":2212:2275   */\n    tag_420:\n        /* \"#utility.yul\":2159:2281   */\n      pop\n      jump\t// out\n        /* \"#utility.yul\":2287:2426   */\n    tag_358:\n        /* \"#utility.yul\":2333:2338   */\n      0x00\n        /* \"#utility.yul\":2371:2377   */\n      dup2\n        /* \"#utility.yul\":2358:2378   */\n      calldataload\n        /* \"#utility.yul\":2349:2378   */\n      swap1\n      pop\n        /* \"#utility.yul\":2387:2420   */\n      tag_422\n        /* \"#utility.yul\":2414:2419   */\n      dup2\n        /* \"#utility.yul\":2387:2420   */\n      tag_357\n      jump\t// in\n    tag_422:\n        /* \"#utility.yul\":2287:2426   */\n      swap3\n      swap2\n      pop\n      pop\n      jump\t// out\n        /* \"#utility.yul\":2432:2906   */\n    tag_52:\n        /* \"#utility.yul\":2500:2506   */\n      0x00\n        /* \"#utility.yul\":2508:2514   */\n      0x00\n        /* \"#utility.yul\":2557:2559   */\n      0x40\n        /* \"#utility.yul\":2545:2554   */\n      dup4\n        /* \"#utility.yul\":2536:2543   */\n      dup6\n        /* \"#utility.yul\":2532:2555   */\n      sub\n        /* \"#utility.yul\":2528:2560   */\n      slt\n        /* \"#utility.yul\":2525:2644   */\n      iszero\n      tag_424\n      jumpi\n        /* \"#utility.yul\":2563:2642   */\n      tag_425\n      tag_350\n      jump\t// in\n    tag_425:\n        /* \"#utility.yul\":2525:2644   */\n    tag_424:\n        /* \"#utility.yul\":2683:2684   */\n      0x00\n        /* \"#utility.yul\":2708:2761   */\n      tag_426\n        /* \"#utility.yul\":2753:2760   */\n      dup6\n        /* \"#utility.yul\":2744:2750   */\n      dup3\n        /* \"#utility.yul\":2733:2742   */\n      dup7\n        /* \"#utility.yul\":2729:2751   */\n      add\n        /* \"#utility.yul\":2708:2761   */\n      tag_355\n      jump\t// in\n    tag_426:\n        /* \"#utility.yul\":2698:2761   */\n      swap3\n      pop\n        /* \"#utility.yul\":2654:2771   */\n      pop\n        /* \"#utility.yul\":2810:2812   */\n      0x20\n        /* \"#utility.yul\":2836:2889   */\n      tag_427\n        /* \"#utility.yul\":2881:2888   */\n      dup6\n        /* \"#utility.yul\":2872:2878   */\n      dup3\n        /* \"#utility.yul\":2861:2870   */\n      dup7\n        /* \"#utility.yul\":2857:2879   */\n      add\n        /* \"#utility.yul\":2836:2889   */\n      tag_358\n      jump\t// in\n    tag_427:\n        /* \"#utility.yul\":2826:2889   */\n      swap2\n      pop\n        /* \"#utility.yul\":2781:2899   */\n      pop\n        /* \"#utility.yul\":2432:2906   */\n      swap3\n      pop\n      swap3\n      swap1\n      pop\n      jump\t// out\n        /* \"#utility.yul\":2912:3002   */\n    tag_359:\n        /* \"#utility.yul\":2946:2953   */\n      0x00\n        /* \"#utility.yul\":2989:2994   */\n      dup2\n        /* \"#utility.yul\":2982:2995   */\n      iszero\n        /* \"#utility.yul\":2975:2996   */\n      iszero\n        /* \"#utility.yul\":2964:2996   */\n      swap1\n      pop\n        /* \"#utility.yul\":2912:3002   */\n      swap2\n      swap1\n      pop\n      jump\t// out\n        /* \"#utility.yul\":3008:3117   */\n    tag_360:\n        /* \"#utility.yul\":3089:3110   */\n      tag_430\n        /* \"#utility.yul\":3104:3109   */\n      dup2\n        /* \"#utility.yul\":3089:3110   */\n      tag_359\n      jump\t// in\n    tag_430:\n        /* \"#utility.yul\":3084:3087   */\n      dup3\n        /* \"#utility.yul\":3077:3111   */\n      mstore\n        /* \"#utility.yul\":3008:3117   */\n      pop\n      pop\n      jump\t// out\n        /* \"#utility.yul\":3123:3333   */\n    tag_55:\n        /* \"#utility.yul\":3210:3214   */\n      0x00\n        /* \"#utility.yul\":3248:3250   */\n      0x20\n        /* \"#utility.yul\":3237:3246   */\n      dup3\n        /* \"#utility.yul\":3233:3251   */\n      add\n        /* \"#utility.yul\":3225:3251   */\n      swap1\n      pop\n        /* \"#utility.yul\":3261:3326   */\n      tag_432\n        /* \"#utility.yul\":3323:3324   */\n      0x00\n        /* \"#utility.yul\":3312:3321   */\n      dup4\n        /* \"#utility.yul\":3308:3325   */\n      add\n        /* \"#utility.yul\":3299:3305   */\n      dup5\n        /* \"#utility.yul\":3261:3326   */\n      tag_360\n      jump\t// in\n    tag_432:\n        /* \"#utility.yul\":3123:3333   */\n      swap3\n      swap2\n      pop\n      pop\n      jump\t// out\n        /* \"#utility.yul\":3339:3668   */\n    tag_58:\n        /* \"#utility.yul\":3398:3404   */\n      0x00\n        /* \"#utility.yul\":3447:3449   */\n      0x20\n        /* \"#utility.yul\":3435:3444   */\n      dup3\n        /* \"#utility.yul\":3426:3433   */\n      dup5\n        /* \"#utility.yul\":3422:3445   */\n      sub\n        /* \"#utility.yul\":3418:3450   */\n      slt\n        /* \"#utility.yul\":3415:3534   */\n      iszero\n      tag_434\n      jumpi\n        /* \"#utility.yul\":3453:3532   */\n      tag_435\n      tag_350\n      jump\t// in\n    tag_435:\n        /* \"#utility.yul\":3415:3534   */\n    tag_434:\n        /* \"#utility.yul\":3573:3574   */\n      0x00\n        /* \"#utility.yul\":3598:3651   */\n      tag_436\n        /* \"#utility.yul\":3643:3650   */\n      dup5\n        /* \"#utility.yul\":3634:3640   */\n      dup3\n        /* \"#utility.yul\":3623:3632   */\n      dup6\n        /* \"#utility.yul\":3619:3641   */\n      add\n        /* \"#utility.yul\":3598:3651   */\n      tag_355\n      jump\t// in\n    tag_436:\n        /* \"#utility.yul\":3588:3651   */\n      swap2\n      pop\n        /* \"#utility.yul\":3544:3661   */\n      pop\n        /* \"#utility.yul\":3339:3668   */\n      swap3\n      swap2\n      pop\n      pop\n      jump\t// out\n        /* \"#utility.yul\":3674:3792   */\n    tag_361:\n        /* \"#utility.yul\":3761:3785   */\n      tag_438\n        /* \"#utility.yul\":3779:3784   */\n      dup2\n        /* \"#utility.yul\":3761:3785   */\n      tag_356\n      jump\t// in\n    tag_438:\n        /* \"#utility.yul\":3756:3759   */\n      dup3\n        /* \"#utility.yul\":3749:3786   */\n      mstore\n        /* \"#utility.yul\":3674:3792   */\n      pop\n      pop\n      jump\t// out\n        /* \"#utility.yul\":3798:4020   */\n    tag_61:\n        /* \"#utility.yul\":3891:3895   */\n      0x00\n        /* \"#utility.yul\":3929:3931   */\n      0x20\n        /* \"#utility.yul\":3918:3927   */\n      dup3\n        /* \"#utility.yul\":3914:3932   */\n      add\n        /* \"#utility.yul\":3906:3932   */\n      swap1\n      pop\n        /* \"#utility.yul\":3942:4013   */\n      tag_440\n        /* \"#utility.yul\":4010:4011   */\n      0x00\n        /* \"#utility.yul\":3999:4008   */\n      dup4\n        /* \"#utility.yul\":3995:4012   */\n      add\n        /* \"#utility.yul\":3986:3992   */\n      dup5\n        /* \"#utility.yul\":3942:4013   */\n      tag_361\n      jump\t// in\n    tag_440:\n        /* \"#utility.yul\":3798:4020   */\n      swap3\n      swap2\n      pop\n      pop\n      jump\t// out\n        /* \"#utility.yul\":4026:4144   */\n    tag_362:\n        /* \"#utility.yul\":4113:4137   */\n      tag_442\n        /* \"#utility.yul\":4131:4136   */\n      dup2\n        /* \"#utility.yul\":4113:4137   */\n      tag_353\n      jump\t// in\n    tag_442:\n        /* \"#utility.yul\":4108:4111   */\n      dup3\n        /* \"#utility.yul\":4101:4138   */\n      mstore\n        /* \"#utility.yul\":4026:4144   */\n      pop\n      pop\n      jump\t// out\n        /* \"#utility.yul\":4150:4372   */\n    tag_65:\n        /* \"#utility.yul\":4243:4247   */\n      0x00\n        /* \"#utility.yul\":4281:4283   */\n      0x20\n        /* \"#utility.yul\":4270:4279   */\n      dup3\n        /* \"#utility.yul\":4266:4284   */\n      add\n        /* \"#utility.yul\":4258:4284   */\n      swap1\n      pop\n        /* \"#utility.yul\":4294:4365   */\n      tag_444\n        /* \"#utility.yul\":4362:4363   */\n      0x00\n        /* \"#utility.yul\":4351:4360   */\n      dup4\n        /* \"#utility.yul\":4347:4364   */\n      add\n        /* \"#utility.yul\":4338:4344   */\n      dup5\n        /* \"#utility.yul\":4294:4365   */\n      tag_362\n      jump\t// in\n    tag_444:\n        /* \"#utility.yul\":4150:4372   */\n      swap3\n      swap2\n      pop\n      pop\n      jump\t// out\n        /* \"#utility.yul\":4378:4997   */\n    tag_75:\n        /* \"#utility.yul\":4455:4461   */\n      0x00\n        /* \"#utility.yul\":4463:4469   */\n      0x00\n        /* \"#utility.yul\":4471:4477   */\n      0x00\n        /* \"#utility.yul\":4520:4522   */\n      0x60\n        /* \"#utility.yul\":4508:4517   */\n      dup5\n        /* \"#utility.yul\":4499:4506   */\n      dup7\n        /* \"#utility.yul\":4495:4518   */\n      sub\n        /* \"#utility.yul\":4491:4523   */\n      slt\n        /* \"#utility.yul\":4488:4607   */\n      iszero\n      tag_446\n      jumpi\n        /* \"#utility.yul\":4526:4605   */\n      tag_447\n      tag_350\n      jump\t// in\n    tag_447:\n        /* \"#utility.yul\":4488:4607   */\n    tag_446:\n        /* \"#utility.yul\":4646:4647   */\n      0x00\n        /* \"#utility.yul\":4671:4724   */\n      tag_448\n        /* \"#utility.yul\":4716:4723   */\n      dup7\n        /* \"#utility.yul\":4707:4713   */\n      dup3\n        /* \"#utility.yul\":4696:4705   */\n      dup8\n        /* \"#utility.yul\":4692:4714   */\n      add\n        /* \"#utility.yul\":4671:4724   */\n      tag_355\n      jump\t// in\n    tag_448:\n        /* \"#utility.yul\":4661:4724   */\n      swap4\n      pop\n        /* \"#utility.yul\":4617:4734   */\n      pop\n        /* \"#utility.yul\":4773:4775   */\n      0x20\n        /* \"#utility.yul\":4799:4852   */\n      tag_449\n        /* \"#utility.yul\":4844:4851   */\n      dup7\n        /* \"#utility.yul\":4835:4841   */\n      dup3\n        /* \"#utility.yul\":4824:4833   */\n      dup8\n        /* \"#utility.yul\":4820:4842   */\n      add\n        /* \"#utility.yul\":4799:4852   */\n      tag_355\n      jump\t// in\n    tag_449:\n        /* \"#utility.yul\":4789:4852   */\n      swap3\n      pop\n        /* \"#utility.yul\":4744:4862   */\n      pop\n        /* \"#utility.yul\":4901:4903   */\n      0x40\n        /* \"#utility.yul\":4927:4980   */\n      tag_450\n        /* \"#utility.yul\":4972:4979   */\n      dup7\n        /* \"#utility.yul\":4963:4969   */\n      dup3\n        /* \"#utility.yul\":4952:4961   */\n      dup8\n        /* \"#utility.yul\":4948:4970   */\n      add\n        /* \"#utility.yul\":4927:4980   */\n      tag_358\n      jump\t// in\n    tag_450:\n        /* \"#utility.yul\":4917:4980   */\n      swap2\n      pop\n        /* \"#utility.yul\":4872:4990   */\n      pop\n        /* \"#utility.yul\":4378:4997   */\n      swap3\n      pop\n      swap3\n      pop\n      swap3\n      jump\t// out\n        /* \"#utility.yul\":5003:5089   */\n    tag_363:\n        /* \"#utility.yul\":5038:5045   */\n      0x00\n        /* \"#utility.yul\":5078:5082   */\n      0xff\n        /* \"#utility.yul\":5071:5076   */\n      dup3\n        /* \"#utility.yul\":5067:5083   */\n      and\n        /* \"#utility.yul\":5056:5083   */\n      swap1\n      pop\n        /* \"#utility.yul\":5003:5089   */\n      swap2\n      swap1\n      pop\n      jump\t// out\n        /* \"#utility.yul\":5095:5207   */\n    tag_364:\n        /* \"#utility.yul\":5178:5200   */\n      tag_453\n        /* \"#utility.yul\":5194:5199   */\n      dup2\n        /* \"#utility.yul\":5178:5200   */\n      tag_363\n      jump\t// in\n    tag_453:\n        /* \"#utility.yul\":5173:5176   */\n      dup3\n        /* \"#utility.yul\":5166:5201   */\n      mstore\n        /* \"#utility.yul\":5095:5207   */\n      pop\n      pop\n      jump\t// out\n        /* \"#utility.yul\":5213:5427   */\n    tag_84:\n        /* \"#utility.yul\":5302:5306   */\n      0x00\n        /* \"#utility.yul\":5340:5342   */\n      0x20\n        /* \"#utility.yul\":5329:5338   */\n      dup3\n        /* \"#utility.yul\":5325:5343   */\n      add\n        /* \"#utility.yul\":5317:5343   */\n      swap1\n      pop\n        /* \"#utility.yul\":5353:5420   */\n      tag_455\n        /* \"#utility.yul\":5417:5418   */\n      0x00\n        /* \"#utility.yul\":5406:5415   */\n      dup4\n        /* \"#utility.yul\":5402:5419   */\n      add\n        /* \"#utility.yul\":5393:5399   */\n      dup5\n        /* \"#utility.yul\":5353:5420   */\n      tag_364\n      jump\t// in\n    tag_455:\n        /* \"#utility.yul\":5213:5427   */\n      swap3\n      swap2\n      pop\n      pop\n      jump\t// out\n        /* \"#utility.yul\":5433:5762   */\n    tag_143:\n        /* \"#utility.yul\":5492:5498   */\n      0x00\n        /* \"#utility.yul\":5541:5543   */\n      0x20\n        /* \"#utility.yul\":5529:5538   */\n      dup3\n        /* \"#utility.yul\":5520:5527   */\n      dup5\n        /* \"#utility.yul\":5516:5539   */\n      sub\n        /* \"#utility.yul\":5512:5544   */\n      slt\n        /* \"#utility.yul\":5509:5628   */\n      iszero\n      tag_457\n      jumpi\n        /* \"#utility.yul\":5547:5626   */\n      tag_458\n      tag_350\n      jump\t// in\n    tag_458:\n        /* \"#utility.yul\":5509:5628   */\n    tag_457:\n        /* \"#utility.yul\":5667:5668   */\n      0x00\n        /* \"#utility.yul\":5692:5745   */\n      tag_459\n        /* \"#utility.yul\":5737:5744   */\n      dup5\n        /* \"#utility.yul\":5728:5734   */\n      dup3\n        /* \"#utility.yul\":5717:5726   */\n      dup6\n        /* \"#utility.yul\":5713:5735   */\n      add\n        /* \"#utility.yul\":5692:5745   */\n      tag_358\n      jump\t// in\n    tag_459:\n        /* \"#utility.yul\":5682:5745   */\n      swap2\n      pop\n        /* \"#utility.yul\":5638:5755   */\n      pop\n        /* \"#utility.yul\":5433:5762   */\n      swap3\n      swap2\n      pop\n      pop\n      jump\t// out\n        /* \"#utility.yul\":5768:6242   */\n    tag_154:\n        /* \"#utility.yul\":5836:5842   */\n      0x00\n        /* \"#utility.yul\":5844:5850   */\n      0x00\n        /* \"#utility.yul\":5893:5895   */\n      0x40\n        /* \"#utility.yul\":5881:5890   */\n      dup4\n        /* \"#utility.yul\":5872:5879   */\n      dup6\n        /* \"#utility.yul\":5868:5891   */\n      sub\n        /* \"#utility.yul\":5864:5896   */\n      slt\n        /* \"#utility.yul\":5861:5980   */\n      iszero\n      tag_461\n      jumpi\n        /* \"#utility.yul\":5899:5978   */\n      tag_462\n      tag_350\n      jump\t// in\n    tag_462:\n        /* \"#utility.yul\":5861:5980   */\n    tag_461:\n        /* \"#utility.yul\":6019:6020   */\n      0x00\n        /* \"#utility.yul\":6044:6097   */\n      tag_463\n        /* \"#utility.yul\":6089:6096   */\n      dup6\n        /* \"#utility.yul\":6080:6086   */\n      dup3\n        /* \"#utility.yul\":6069:6078   */\n      dup7\n        /* \"#utility.yul\":6065:6087   */\n      add\n        /* \"#utility.yul\":6044:6097   */\n      tag_355\n      jump\t// in\n    tag_463:\n        /* \"#utility.yul\":6034:6097   */\n      swap3\n      pop\n        /* \"#utility.yul\":5990:6107   */\n      pop\n        /* \"#utility.yul\":6146:6148   */\n      0x20\n        /* \"#utility.yul\":6172:6225   */\n      tag_464\n        /* \"#utility.yul\":6217:6224   */\n      dup6\n        /* \"#utility.yul\":6208:6214   */\n      dup3\n        /* \"#utility.yul\":6197:6206   */\n      dup7\n        /* \"#utility.yul\":6193:6215   */\n      add\n        /* \"#utility.yul\":6172:6225   */\n      tag_355\n      jump\t// in\n    tag_464:\n        /* \"#utility.yul\":6162:6225   */\n      swap2\n      pop\n        /* \"#utility.yul\":6117:6235   */\n      pop\n        /* \"#utility.yul\":5768:6242   */\n      swap3\n      pop\n      swap3\n      swap1\n      pop\n      jump\t// out\n        /* \"#utility.yul\":6248:6428   */\n    tag_365:\n        /* \"#utility.yul\":6296:6373   */\n      0x4e487b7100000000000000000000000000000000000000000000000000000000\n        /* \"#utility.yul\":6293:6294   */\n      0x00\n        /* \"#utility.yul\":6286:6374   */\n      mstore\n        /* \"#utility.yul\":6393:6397   */\n      0x22\n        /* \"#utility.yul\":6390:6391   */\n      0x04\n        /* \"#utility.yul\":6383:6398   */\n      mstore\n        /* \"#utility.yul\":6417:6421   */\n      0x24\n        /* \"#utility.yul\":6414:6415   */\n      0x00\n        /* \"#utility.yul\":6407:6422   */\n      revert\n        /* \"#utility.yul\":6434:6754   */\n    tag_175:\n        /* \"#utility.yul\":6478:6484   */\n      0x00\n        /* \"#utility.yul\":6515:6516   */\n      0x02\n        /* \"#utility.yul\":6509:6513   */\n      dup3\n        /* \"#utility.yul\":6505:6517   */\n      div\n        /* \"#utility.yul\":6495:6517   */\n      swap1\n      pop\n        /* \"#utility.yul\":6562:6563   */\n      0x01\n        /* \"#utility.yul\":6556:6560   */\n      dup3\n        /* \"#utility.yul\":6552:6564   */\n      and\n        /* \"#utility.yul\":6583:6601   */\n      dup1\n        /* \"#utility.yul\":6573:6654   */\n      tag_467\n      jumpi\n        /* \"#utility.yul\":6639:6643   */\n      0x7f\n        /* \"#utility.yul\":6631:6637   */\n      dup3\n        /* \"#utility.yul\":6627:6644   */\n      and\n        /* \"#utility.yul\":6617:6644   */\n      swap2\n      pop\n        /* \"#utility.yul\":6573:6654   */\n    tag_467:\n        /* \"#utility.yul\":6701:6703   */\n      0x20\n        /* \"#utility.yul\":6693:6699   */\n      dup3\n        /* \"#utility.yul\":6690:6704   */\n      lt\n        /* \"#utility.yul\":6670:6688   */\n      dup2\n        /* \"#utility.yul\":6667:6705   */\n      sub\n        /* \"#utility.yul\":6664:6748   */\n      tag_468\n      jumpi\n        /* \"#utility.yul\":6720:6738   */\n      tag_469\n      tag_365\n      jump\t// in\n    tag_469:\n        /* \"#utility.yul\":6664:6748   */\n    tag_468:\n        /* \"#utility.yul\":6485:6754   */\n      pop\n        /* \"#utility.yul\":6434:6754   */\n      swap2\n      swap1\n      pop\n      jump\t// out\n        /* \"#utility.yul\":6760:6935   */\n    tag_366:\n        /* \"#utility.yul\":6900:6927   */\n      0x416d6f756e74206d75737420626520616e20696e746567657200000000000000\n        /* \"#utility.yul\":6896:6897   */\n      0x00\n        /* \"#utility.yul\":6888:6894   */\n      dup3\n        /* \"#utility.yul\":6884:6898   */\n      add\n        /* \"#utility.yul\":6877:6928   */\n      mstore\n        /* \"#utility.yul\":6760:6935   */\n      pop\n      jump\t// out\n        /* \"#utility.yul\":6941:7307   */\n    tag_367:\n        /* \"#utility.yul\":7083:7086   */\n      0x00\n        /* \"#utility.yul\":7104:7171   */\n      tag_472\n        /* \"#utility.yul\":7168:7170   */\n      0x19\n        /* \"#utility.yul\":7163:7166   */\n      dup4\n        /* \"#utility.yul\":7104:7171   */\n      tag_345\n      jump\t// in\n    tag_472:\n        /* \"#utility.yul\":7097:7171   */\n      swap2\n      pop\n        /* \"#utility.yul\":7180:7273   */\n      tag_473\n        /* \"#utility.yul\":7269:7272   */\n      dup3\n        /* \"#utility.yul\":7180:7273   */\n      tag_366\n      jump\t// in\n    tag_473:\n        /* \"#utility.yul\":7298:7300   */\n      0x20\n        /* \"#utility.yul\":7293:7296   */\n      dup3\n        /* \"#utility.yul\":7289:7301   */\n      add\n        /* \"#utility.yul\":7282:7301   */\n      swap1\n      pop\n        /* \"#utility.yul\":6941:7307   */\n      swap2\n      swap1\n      pop\n      jump\t// out\n        /* \"#utility.yul\":7313:7732   */\n    tag_193:\n        /* \"#utility.yul\":7479:7483   */\n      0x00\n        /* \"#utility.yul\":7517:7519   */\n      0x20\n        /* \"#utility.yul\":7506:7515   */\n      dup3\n        /* \"#utility.yul\":7502:7520   */\n      add\n        /* \"#utility.yul\":7494:7520   */\n      swap1\n      pop\n        /* \"#utility.yul\":7566:7575   */\n      dup2\n        /* \"#utility.yul\":7560:7564   */\n      dup2\n        /* \"#utility.yul\":7556:7576   */\n      sub\n        /* \"#utility.yul\":7552:7553   */\n      0x00\n        /* \"#utility.yul\":7541:7550   */\n      dup4\n        /* \"#utility.yul\":7537:7554   */\n      add\n        /* \"#utility.yul\":7530:7577   */\n      mstore\n        /* \"#utility.yul\":7594:7725   */\n      tag_475\n        /* \"#utility.yul\":7720:7724   */\n      dup2\n        /* \"#utility.yul\":7594:7725   */\n      tag_367\n      jump\t// in\n    tag_475:\n        /* \"#utility.yul\":7586:7725   */\n      swap1\n      pop\n        /* \"#utility.yul\":7313:7732   */\n      swap2\n      swap1\n      pop\n      jump\t// out\n        /* \"#utility.yul\":7738:7918   */\n    tag_368:\n        /* \"#utility.yul\":7786:7863   */\n      0x4e487b7100000000000000000000000000000000000000000000000000000000\n        /* \"#utility.yul\":7783:7784   */\n      0x00\n        /* \"#utility.yul\":7776:7864   */\n      mstore\n        /* \"#utility.yul\":7883:7887   */\n      0x11\n        /* \"#utility.yul\":7880:7881   */\n      0x04\n        /* \"#utility.yul\":7873:7888   */\n      mstore\n        /* \"#utility.yul\":7907:7911   */\n      0x24\n        /* \"#utility.yul\":7904:7905   */\n      0x00\n        /* \"#utility.yul\":7897:7912   */\n      revert\n        /* \"#utility.yul\":7924:8115   */\n    tag_202:\n        /* \"#utility.yul\":7964:7967   */\n      0x00\n        /* \"#utility.yul\":7983:8003   */\n      tag_478\n        /* \"#utility.yul\":8001:8002   */\n      dup3\n        /* \"#utility.yul\":7983:8003   */\n      tag_356\n      jump\t// in\n    tag_478:\n        /* \"#utility.yul\":7978:8003   */\n      swap2\n      pop\n        /* \"#utility.yul\":8017:8037   */\n      tag_479\n        /* \"#utility.yul\":8035:8036   */\n      dup4\n        /* \"#utility.yul\":8017:8037   */\n      tag_356\n      jump\t// in\n    tag_479:\n        /* \"#utility.yul\":8012:8037   */\n      swap3\n      pop\n        /* \"#utility.yul\":8060:8061   */\n      dup3\n        /* \"#utility.yul\":8057:8058   */\n      dup3\n        /* \"#utility.yul\":8053:8062   */\n      add\n        /* \"#utility.yul\":8046:8062   */\n      swap1\n      pop\n        /* \"#utility.yul\":8081:8084   */\n      dup1\n        /* \"#utility.yul\":8078:8079   */\n      dup3\n        /* \"#utility.yul\":8075:8085   */\n      gt\n        /* \"#utility.yul\":8072:8108   */\n      iszero\n      tag_480\n      jumpi\n        /* \"#utility.yul\":8088:8106   */\n      tag_481\n      tag_368\n      jump\t// in\n    tag_481:\n        /* \"#utility.yul\":8072:8108   */\n    tag_480:\n        /* \"#utility.yul\":7924:8115   */\n      swap3\n      swap2\n      pop\n      pop\n      jump\t// out\n        /* \"#utility.yul\":8121:8292   */\n    tag_369:\n        /* \"#utility.yul\":8261:8284   */\n      0x546f74616c20737570706c792065786365656465640000000000000000000000\n        /* \"#utility.yul\":8257:8258   */\n      0x00\n        /* \"#utility.yul\":8249:8255   */\n      dup3\n        /* \"#utility.yul\":8245:8259   */\n      add\n        /* \"#utility.yul\":8238:8285   */\n      mstore\n        /* \"#utility.yul\":8121:8292   */\n      pop\n      jump\t// out\n        /* \"#utility.yul\":8298:8664   */\n    tag_370:\n        /* \"#utility.yul\":8440:8443   */\n      0x00\n        /* \"#utility.yul\":8461:8528   */\n      tag_484\n        /* \"#utility.yul\":8525:8527   */\n      0x15\n        /* \"#utility.yul\":8520:8523   */\n      dup4\n        /* \"#utility.yul\":8461:8528   */\n      tag_345\n      jump\t// in\n    tag_484:\n        /* \"#utility.yul\":8454:8528   */\n      swap2\n      pop\n        /* \"#utility.yul\":8537:8630   */\n      tag_485\n        /* \"#utility.yul\":8626:8629   */\n      dup3\n        /* \"#utility.yul\":8537:8630   */\n      tag_369\n      jump\t// in\n    tag_485:\n        /* \"#utility.yul\":8655:8657   */\n      0x20\n        /* \"#utility.yul\":8650:8653   */\n      dup3\n        /* \"#utility.yul\":8646:8658   */\n      add\n        /* \"#utility.yul\":8639:8658   */\n      swap1\n      pop\n        /* \"#utility.yul\":8298:8664   */\n      swap2\n      swap1\n      pop\n      jump\t// out\n        /* \"#utility.yul\":8670:9089   */\n    tag_205:\n        /* \"#utility.yul\":8836:8840   */\n      0x00\n        /* \"#utility.yul\":8874:8876   */\n      0x20\n        /* \"#utility.yul\":8863:8872   */\n      dup3\n        /* \"#utility.yul\":8859:8877   */\n      add\n        /* \"#utility.yul\":8851:8877   */\n      swap1\n      pop\n        /* \"#utility.yul\":8923:8932   */\n      dup2\n        /* \"#utility.yul\":8917:8921   */\n      dup2\n        /* \"#utility.yul\":8913:8933   */\n      sub\n        /* \"#utility.yul\":8909:8910   */\n      0x00\n        /* \"#utility.yul\":8898:8907   */\n      dup4\n        /* \"#utility.yul\":8894:8911   */\n      add\n        /* \"#utility.yul\":8887:8934   */\n      mstore\n        /* \"#utility.yul\":8951:9082   */\n      tag_487\n        /* \"#utility.yul\":9077:9081   */\n      dup2\n        /* \"#utility.yul\":8951:9082   */\n      tag_370\n      jump\t// in\n    tag_487:\n        /* \"#utility.yul\":8943:9082   */\n      swap1\n      pop\n        /* \"#utility.yul\":8670:9089   */\n      swap2\n      swap1\n      pop\n      jump\t// out\n        /* \"#utility.yul\":9095:9274   */\n    tag_371:\n        /* \"#utility.yul\":9235:9266   */\n      0x416d6f756e74206d7573742062652067726561746572207468616e2030000000\n        /* \"#utility.yul\":9231:9232   */\n      0x00\n        /* \"#utility.yul\":9223:9229   */\n      dup3\n        /* \"#utility.yul\":9219:9233   */\n      add\n        /* \"#utility.yul\":9212:9267   */\n      mstore\n        /* \"#utility.yul\":9095:9274   */\n      pop\n      jump\t// out\n        /* \"#utility.yul\":9280:9646   */\n    tag_372:\n        /* \"#utility.yul\":9422:9425   */\n      0x00\n        /* \"#utility.yul\":9443:9510   */\n      tag_490\n        /* \"#utility.yul\":9507:9509   */\n      0x1d\n        /* \"#utility.yul\":9502:9505   */\n      dup4\n        /* \"#utility.yul\":9443:9510   */\n      tag_345\n      jump\t// in\n    tag_490:\n        /* \"#utility.yul\":9436:9510   */\n      swap2\n      pop\n        /* \"#utility.yul\":9519:9612   */\n      tag_491\n        /* \"#utility.yul\":9608:9611   */\n      dup3\n        /* \"#utility.yul\":9519:9612   */\n      tag_371\n      jump\t// in\n    tag_491:\n        /* \"#utility.yul\":9637:9639   */\n      0x20\n        /* \"#utility.yul\":9632:9635   */\n      dup3\n        /* \"#utility.yul\":9628:9640   */\n      add\n        /* \"#utility.yul\":9621:9640   */\n      swap1\n      pop\n        /* \"#utility.yul\":9280:9646   */\n      swap2\n      swap1\n      pop\n      jump\t// out\n        /* \"#utility.yul\":9652:10071   */\n    tag_240:\n        /* \"#utility.yul\":9818:9822   */\n      0x00\n        /* \"#utility.yul\":9856:9858   */\n      0x20\n        /* \"#utility.yul\":9845:9854   */\n      dup3\n        /* \"#utility.yul\":9841:9859   */\n      add\n        /* \"#utility.yul\":9833:9859   */\n      swap1\n      pop\n        /* \"#utility.yul\":9905:9914   */\n      dup2\n        /* \"#utility.yul\":9899:9903   */\n      dup2\n        /* \"#utility.yul\":9895:9915   */\n      sub\n        /* \"#utility.yul\":9891:9892   */\n      0x00\n        /* \"#utility.yul\":9880:9889   */\n      dup4\n        /* \"#utility.yul\":9876:9893   */\n      add\n        /* \"#utility.yul\":9869:9916   */\n      mstore\n        /* \"#utility.yul\":9933:10064   */\n      tag_493\n        /* \"#utility.yul\":10059:10063   */\n      dup2\n        /* \"#utility.yul\":9933:10064   */\n      tag_372\n      jump\t// in\n    tag_493:\n        /* \"#utility.yul\":9925:10064   */\n      swap1\n      pop\n        /* \"#utility.yul\":9652:10071   */\n      swap2\n      swap1\n      pop\n      jump\t// out\n        /* \"#utility.yul\":10077:10409   */\n    tag_242:\n        /* \"#utility.yul\":10198:10202   */\n      0x00\n        /* \"#utility.yul\":10236:10238   */\n      0x40\n        /* \"#utility.yul\":10225:10234   */\n      dup3\n        /* \"#utility.yul\":10221:10239   */\n      add\n        /* \"#utility.yul\":10213:10239   */\n      swap1\n      pop\n        /* \"#utility.yul\":10249:10320   */\n      tag_495\n        /* \"#utility.yul\":10317:10318   */\n      0x00\n        /* \"#utility.yul\":10306:10315   */\n      dup4\n        /* \"#utility.yul\":10302:10319   */\n      add\n        /* \"#utility.yul\":10293:10299   */\n      dup6\n        /* \"#utility.yul\":10249:10320   */\n      tag_362\n      jump\t// in\n    tag_495:\n        /* \"#utility.yul\":10330:10402   */\n      tag_496\n        /* \"#utility.yul\":10398:10400   */\n      0x20\n        /* \"#utility.yul\":10387:10396   */\n      dup4\n        /* \"#utility.yul\":10383:10401   */\n      add\n        /* \"#utility.yul\":10374:10380   */\n      dup5\n        /* \"#utility.yul\":10330:10402   */\n      tag_362\n      jump\t// in\n    tag_496:\n        /* \"#utility.yul\":10077:10409   */\n      swap4\n      swap3\n      pop\n      pop\n      pop\n      jump\t// out\n        /* \"#utility.yul\":10415:10558   */\n    tag_373:\n        /* \"#utility.yul\":10472:10477   */\n      0x00\n        /* \"#utility.yul\":10503:10509   */\n      dup2\n        /* \"#utility.yul\":10497:10510   */\n      mload\n        /* \"#utility.yul\":10488:10510   */\n      swap1\n      pop\n        /* \"#utility.yul\":10519:10552   */\n      tag_498\n        /* \"#utility.yul\":10546:10551   */\n      dup2\n        /* \"#utility.yul\":10519:10552   */\n      tag_357\n      jump\t// in\n    tag_498:\n        /* \"#utility.yul\":10415:10558   */\n      swap3\n      swap2\n      pop\n      pop\n      jump\t// out\n        /* \"#utility.yul\":10564:10915   */\n    tag_246:\n        /* \"#utility.yul\":10634:10640   */\n      0x00\n        /* \"#utility.yul\":10683:10685   */\n      0x20\n        /* \"#utility.yul\":10671:10680   */\n      dup3\n        /* \"#utility.yul\":10662:10669   */\n      dup5\n        /* \"#utility.yul\":10658:10681   */\n      sub\n        /* \"#utility.yul\":10654:10686   */\n      slt\n        /* \"#utility.yul\":10651:10770   */\n      iszero\n      tag_500\n      jumpi\n        /* \"#utility.yul\":10689:10768   */\n      tag_501\n      tag_350\n      jump\t// in\n    tag_501:\n        /* \"#utility.yul\":10651:10770   */\n    tag_500:\n        /* \"#utility.yul\":10809:10810   */\n      0x00\n        /* \"#utility.yul\":10834:10898   */\n      tag_502\n        /* \"#utility.yul\":10890:10897   */\n      dup5\n        /* \"#utility.yul\":10881:10887   */\n      dup3\n        /* \"#utility.yul\":10870:10879   */\n      dup6\n        /* \"#utility.yul\":10866:10888   */\n      add\n        /* \"#utility.yul\":10834:10898   */\n      tag_373\n      jump\t// in\n    tag_502:\n        /* \"#utility.yul\":10824:10898   */\n      swap2\n      pop\n        /* \"#utility.yul\":10780:10908   */\n      pop\n        /* \"#utility.yul\":10564:10915   */\n      swap3\n      swap2\n      pop\n      pop\n      jump\t// out\n        /* \"#utility.yul\":10921:11093   */\n    tag_374:\n        /* \"#utility.yul\":11061:11085   */\n      0x496e73756666696369656e7420616c6c6f77616e636500000000000000000000\n        /* \"#utility.yul\":11057:11058   */\n      0x00\n        /* \"#utility.yul\":11049:11055   */\n      dup3\n        /* \"#utility.yul\":11045:11059   */\n      add\n        /* \"#utility.yul\":11038:11086   */\n      mstore\n        /* \"#utility.yul\":10921:11093   */\n      pop\n      jump\t// out\n        /* \"#utility.yul\":11099:11465   */\n    tag_375:\n        /* \"#utility.yul\":11241:11244   */\n      0x00\n        /* \"#utility.yul\":11262:11329   */\n      tag_505\n        /* \"#utility.yul\":11326:11328   */\n      0x16\n        /* \"#utility.yul\":11321:11324   */\n      dup4\n        /* \"#utility.yul\":11262:11329   */\n      tag_345\n      jump\t// in\n    tag_505:\n        /* \"#utility.yul\":11255:11329   */\n      swap2\n      pop\n        /* \"#utility.yul\":11338:11431   */\n      tag_506\n        /* \"#utility.yul\":11427:11430   */\n      dup3\n        /* \"#utility.yul\":11338:11431   */\n      tag_374\n      jump\t// in\n    tag_506:\n        /* \"#utility.yul\":11456:11458   */\n      0x20\n        /* \"#utility.yul\":11451:11454   */\n      dup3\n        /* \"#utility.yul\":11447:11459   */\n      add\n        /* \"#utility.yul\":11440:11459   */\n      swap1\n      pop\n        /* \"#utility.yul\":11099:11465   */\n      swap2\n      swap1\n      pop\n      jump\t// out\n        /* \"#utility.yul\":11471:11890   */\n    tag_249:\n        /* \"#utility.yul\":11637:11641   */\n      0x00\n        /* \"#utility.yul\":11675:11677   */\n      0x20\n        /* \"#utility.yul\":11664:11673   */\n      dup3\n        /* \"#utility.yul\":11660:11678   */\n      add\n        /* \"#utility.yul\":11652:11678   */\n      swap1\n      pop\n        /* \"#utility.yul\":11724:11733   */\n      dup2\n        /* \"#utility.yul\":11718:11722   */\n      dup2\n        /* \"#utility.yul\":11714:11734   */\n      sub\n        /* \"#utility.yul\":11710:11711   */\n      0x00\n        /* \"#utility.yul\":11699:11708   */\n      dup4\n        /* \"#utility.yul\":11695:11712   */\n      add\n        /* \"#utility.yul\":11688:11735   */\n      mstore\n        /* \"#utility.yul\":11752:11883   */\n      tag_508\n        /* \"#utility.yul\":11878:11882   */\n      dup2\n        /* \"#utility.yul\":11752:11883   */\n      tag_375\n      jump\t// in\n    tag_508:\n        /* \"#utility.yul\":11744:11883   */\n      swap1\n      pop\n        /* \"#utility.yul\":11471:11890   */\n      swap2\n      swap1\n      pop\n      jump\t// out\n        /* \"#utility.yul\":11896:12338   */\n    tag_251:\n        /* \"#utility.yul\":12045:12049   */\n      0x00\n        /* \"#utility.yul\":12083:12085   */\n      0x60\n        /* \"#utility.yul\":12072:12081   */\n      dup3\n        /* \"#utility.yul\":12068:12086   */\n      add\n        /* \"#utility.yul\":12060:12086   */\n      swap1\n      pop\n        /* \"#utility.yul\":12096:12167   */\n      tag_510\n        /* \"#utility.yul\":12164:12165   */\n      0x00\n        /* \"#utility.yul\":12153:12162   */\n      dup4\n        /* \"#utility.yul\":12149:12166   */\n      add\n        /* \"#utility.yul\":12140:12146   */\n      dup7\n        /* \"#utility.yul\":12096:12167   */\n      tag_362\n      jump\t// in\n    tag_510:\n        /* \"#utility.yul\":12177:12249   */\n      tag_511\n        /* \"#utility.yul\":12245:12247   */\n      0x20\n        /* \"#utility.yul\":12234:12243   */\n      dup4\n        /* \"#utility.yul\":12230:12248   */\n      add\n        /* \"#utility.yul\":12221:12227   */\n      dup6\n        /* \"#utility.yul\":12177:12249   */\n      tag_362\n      jump\t// in\n    tag_511:\n        /* \"#utility.yul\":12259:12331   */\n      tag_512\n        /* \"#utility.yul\":12327:12329   */\n      0x40\n        /* \"#utility.yul\":12316:12325   */\n      dup4\n        /* \"#utility.yul\":12312:12330   */\n      add\n        /* \"#utility.yul\":12303:12309   */\n      dup5\n        /* \"#utility.yul\":12259:12331   */\n      tag_361\n      jump\t// in\n    tag_512:\n        /* \"#utility.yul\":11896:12338   */\n      swap5\n      swap4\n      pop\n      pop\n      pop\n      pop\n      jump\t// out\n        /* \"#utility.yul\":12344:12460   */\n    tag_376:\n        /* \"#utility.yul\":12414:12435   */\n      tag_514\n        /* \"#utility.yul\":12429:12434   */\n      dup2\n        /* \"#utility.yul\":12414:12435   */\n      tag_359\n      jump\t// in\n    tag_514:\n        /* \"#utility.yul\":12407:12412   */\n      dup2\n        /* \"#utility.yul\":12404:12436   */\n      eq\n        /* \"#utility.yul\":12394:12454   */\n      tag_515\n      jumpi\n        /* \"#utility.yul\":12450:12451   */\n      0x00\n        /* \"#utility.yul\":12447:12448   */\n      0x00\n        /* \"#utility.yul\":12440:12452   */\n      revert\n        /* \"#utility.yul\":12394:12454   */\n    tag_515:\n        /* \"#utility.yul\":12344:12460   */\n      pop\n      jump\t// out\n        /* \"#utility.yul\":12466:12603   */\n    tag_377:\n        /* \"#utility.yul\":12520:12525   */\n      0x00\n        /* \"#utility.yul\":12551:12557   */\n      dup2\n        /* \"#utility.yul\":12545:12558   */\n      mload\n        /* \"#utility.yul\":12536:12558   */\n      swap1\n      pop\n        /* \"#utility.yul\":12567:12597   */\n      tag_517\n        /* \"#utility.yul\":12591:12596   */\n      dup2\n        /* \"#utility.yul\":12567:12597   */\n      tag_376\n      jump\t// in\n    tag_517:\n        /* \"#utility.yul\":12466:12603   */\n      swap3\n      swap2\n      pop\n      pop\n      jump\t// out\n        /* \"#utility.yul\":12609:12954   */\n    tag_255:\n        /* \"#utility.yul\":12676:12682   */\n      0x00\n        /* \"#utility.yul\":12725:12727   */\n      0x20\n        /* \"#utility.yul\":12713:12722   */\n      dup3\n        /* \"#utility.yul\":12704:12711   */\n      dup5\n        /* \"#utility.yul\":12700:12723   */\n      sub\n        /* \"#utility.yul\":12696:12728   */\n      slt\n        /* \"#utility.yul\":12693:12812   */\n      iszero\n      tag_519\n      jumpi\n        /* \"#utility.yul\":12731:12810   */\n      tag_520\n      tag_350\n      jump\t// in\n    tag_520:\n        /* \"#utility.yul\":12693:12812   */\n    tag_519:\n        /* \"#utility.yul\":12851:12852   */\n      0x00\n        /* \"#utility.yul\":12876:12937   */\n      tag_521\n        /* \"#utility.yul\":12929:12936   */\n      dup5\n        /* \"#utility.yul\":12920:12926   */\n      dup3\n        /* \"#utility.yul\":12909:12918   */\n      dup6\n        /* \"#utility.yul\":12905:12927   */\n      add\n        /* \"#utility.yul\":12876:12937   */\n      tag_377\n      jump\t// in\n    tag_521:\n        /* \"#utility.yul\":12866:12937   */\n      swap2\n      pop\n        /* \"#utility.yul\":12822:12947   */\n      pop\n        /* \"#utility.yul\":12609:12954   */\n      swap3\n      swap2\n      pop\n      pop\n      jump\t// out\n        /* \"#utility.yul\":12960:13131   */\n    tag_378:\n        /* \"#utility.yul\":13100:13123   */\n      0x546f6b656e207472616e73666572206661696c65640000000000000000000000\n        /* \"#utility.yul\":13096:13097   */\n      0x00\n        /* \"#utility.yul\":13088:13094   */\n      dup3\n        /* \"#utility.yul\":13084:13098   */\n      add\n        /* \"#utility.yul\":13077:13124   */\n      mstore\n        /* \"#utility.yul\":12960:13131   */\n      pop\n      jump\t// out\n        /* \"#utility.yul\":13137:13503   */\n    tag_379:\n        /* \"#utility.yul\":13279:13282   */\n      0x00\n        /* \"#utility.yul\":13300:13367   */\n      tag_524\n        /* \"#utility.yul\":13364:13366   */\n      0x15\n        /* \"#utility.yul\":13359:13362   */\n      dup4\n        /* \"#utility.yul\":13300:13367   */\n      tag_345\n      jump\t// in\n    tag_524:\n        /* \"#utility.yul\":13293:13367   */\n      swap2\n      pop\n        /* \"#utility.yul\":13376:13469   */\n      tag_525\n        /* \"#utility.yul\":13465:13468   */\n      dup3\n        /* \"#utility.yul\":13376:13469   */\n      tag_378\n      jump\t// in\n    tag_525:\n        /* \"#utility.yul\":13494:13496   */\n      0x20\n        /* \"#utility.yul\":13489:13492   */\n      dup3\n        /* \"#utility.yul\":13485:13497   */\n      add\n        /* \"#utility.yul\":13478:13497   */\n      swap1\n      pop\n        /* \"#utility.yul\":13137:13503   */\n      swap2\n      swap1\n      pop\n      jump\t// out\n        /* \"#utility.yul\":13509:13928   */\n    tag_258:\n        /* \"#utility.yul\":13675:13679   */\n      0x00\n        /* \"#utility.yul\":13713:13715   */\n      0x20\n        /* \"#utility.yul\":13702:13711   */\n      dup3\n        /* \"#utility.yul\":13698:13716   */\n      add\n        /* \"#utility.yul\":13690:13716   */\n      swap1\n      pop\n        /* \"#utility.yul\":13762:13771   */\n      dup2\n        /* \"#utility.yul\":13756:13760   */\n      dup2\n        /* \"#utility.yul\":13752:13772   */\n      sub\n        /* \"#utility.yul\":13748:13749   */\n      0x00\n        /* \"#utility.yul\":13737:13746   */\n      dup4\n        /* \"#utility.yul\":13733:13750   */\n      add\n        /* \"#utility.yul\":13726:13773   */\n      mstore\n        /* \"#utility.yul\":13790:13921   */\n      tag_527\n        /* \"#utility.yul\":13916:13920   */\n      dup2\n        /* \"#utility.yul\":13790:13921   */\n      tag_379\n      jump\t// in\n    tag_527:\n        /* \"#utility.yul\":13782:13921   */\n      swap1\n      pop\n        /* \"#utility.yul\":13509:13928   */\n      swap2\n      swap1\n      pop\n      jump\t// out\n        /* \"#utility.yul\":13934:14344   */\n    tag_260:\n        /* \"#utility.yul\":13974:13981   */\n      0x00\n        /* \"#utility.yul\":13997:14017   */\n      tag_529\n        /* \"#utility.yul\":14015:14016   */\n      dup3\n        /* \"#utility.yul\":13997:14017   */\n      tag_356\n      jump\t// in\n    tag_529:\n        /* \"#utility.yul\":13992:14017   */\n      swap2\n      pop\n        /* \"#utility.yul\":14031:14051   */\n      tag_530\n        /* \"#utility.yul\":14049:14050   */\n      dup4\n        /* \"#utility.yul\":14031:14051   */\n      tag_356\n      jump\t// in\n    tag_530:\n        /* \"#utility.yul\":14026:14051   */\n      swap3\n      pop\n        /* \"#utility.yul\":14086:14087   */\n      dup3\n        /* \"#utility.yul\":14083:14084   */\n      dup3\n        /* \"#utility.yul\":14079:14088   */\n      mul\n        /* \"#utility.yul\":14108:14138   */\n      tag_531\n        /* \"#utility.yul\":14126:14137   */\n      dup2\n        /* \"#utility.yul\":14108:14138   */\n      tag_356\n      jump\t// in\n    tag_531:\n        /* \"#utility.yul\":14097:14138   */\n      swap2\n      pop\n        /* \"#utility.yul\":14287:14288   */\n      dup3\n        /* \"#utility.yul\":14278:14285   */\n      dup3\n        /* \"#utility.yul\":14274:14289   */\n      div\n        /* \"#utility.yul\":14271:14272   */\n      dup5\n        /* \"#utility.yul\":14268:14290   */\n      eq\n        /* \"#utility.yul\":14248:14249   */\n      dup4\n        /* \"#utility.yul\":14241:14250   */\n      iszero\n        /* \"#utility.yul\":14221:14304   */\n      or\n        /* \"#utility.yul\":14198:14337   */\n      tag_532\n      jumpi\n        /* \"#utility.yul\":14317:14335   */\n      tag_533\n      tag_368\n      jump\t// in\n    tag_533:\n        /* \"#utility.yul\":14198:14337   */\n    tag_532:\n        /* \"#utility.yul\":13982:14344   */\n      pop\n        /* \"#utility.yul\":13934:14344   */\n      swap3\n      swap2\n      pop\n      pop\n      jump\t// out\n        /* \"#utility.yul\":14350:14544   */\n    tag_266:\n        /* \"#utility.yul\":14390:14394   */\n      0x00\n        /* \"#utility.yul\":14410:14430   */\n      tag_535\n        /* \"#utility.yul\":14428:14429   */\n      dup3\n        /* \"#utility.yul\":14410:14430   */\n      tag_356\n      jump\t// in\n    tag_535:\n        /* \"#utility.yul\":14405:14430   */\n      swap2\n      pop\n        /* \"#utility.yul\":14444:14464   */\n      tag_536\n        /* \"#utility.yul\":14462:14463   */\n      dup4\n        /* \"#utility.yul\":14444:14464   */\n      tag_356\n      jump\t// in\n    tag_536:\n        /* \"#utility.yul\":14439:14464   */\n      swap3\n      pop\n        /* \"#utility.yul\":14488:14489   */\n      dup3\n        /* \"#utility.yul\":14485:14486   */\n      dup3\n        /* \"#utility.yul\":14481:14490   */\n      sub\n        /* \"#utility.yul\":14473:14490   */\n      swap1\n      pop\n        /* \"#utility.yul\":14512:14513   */\n      dup2\n        /* \"#utility.yul\":14506:14510   */\n      dup2\n        /* \"#utility.yul\":14503:14514   */\n      gt\n        /* \"#utility.yul\":14500:14537   */\n      iszero\n      tag_537\n      jumpi\n        /* \"#utility.yul\":14517:14535   */\n      tag_538\n      tag_368\n      jump\t// in\n    tag_538:\n        /* \"#utility.yul\":14500:14537   */\n    tag_537:\n        /* \"#utility.yul\":14350:14544   */\n      swap3\n      swap2\n      pop\n      pop\n      jump\t// out\n        /* \"#utility.yul\":14550:14672   */\n    tag_380:\n        /* \"#utility.yul\":14623:14647   */\n      tag_540\n        /* \"#utility.yul\":14641:14646   */\n      dup2\n        /* \"#utility.yul\":14623:14647   */\n      tag_352\n      jump\t// in\n    tag_540:\n        /* \"#utility.yul\":14616:14621   */\n      dup2\n        /* \"#utility.yul\":14613:14648   */\n      eq\n        /* \"#utility.yul\":14603:14666   */\n      tag_541\n      jumpi\n        /* \"#utility.yul\":14662:14663   */\n      0x00\n        /* \"#utility.yul\":14659:14660   */\n      0x00\n        /* \"#utility.yul\":14652:14664   */\n      revert\n        /* \"#utility.yul\":14603:14666   */\n    tag_541:\n        /* \"#utility.yul\":14550:14672   */\n      pop\n      jump\t// out\n        /* \"#utility.yul\":14678:14821   */\n    tag_381:\n        /* \"#utility.yul\":14735:14740   */\n      0x00\n        /* \"#utility.yul\":14766:14772   */\n      dup2\n        /* \"#utility.yul\":14760:14773   */\n      mload\n        /* \"#utility.yul\":14751:14773   */\n      swap1\n      pop\n        /* \"#utility.yul\":14782:14815   */\n      tag_543\n        /* \"#utility.yul\":14809:14814   */\n      dup2\n        /* \"#utility.yul\":14782:14815   */\n      tag_380\n      jump\t// in\n    tag_543:\n        /* \"#utility.yul\":14678:14821   */\n      swap3\n      swap2\n      pop\n      pop\n      jump\t// out\n        /* \"#utility.yul\":14827:14917   */\n    tag_382:\n        /* \"#utility.yul\":14862:14869   */\n      0x00\n        /* \"#utility.yul\":14905:14910   */\n      dup2\n        /* \"#utility.yul\":14902:14903   */\n      0x02\n        /* \"#utility.yul\":14891:14911   */\n      signextend\n        /* \"#utility.yul\":14880:14911   */\n      swap1\n      pop\n        /* \"#utility.yul\":14827:14917   */\n      swap2\n      swap1\n      pop\n      jump\t// out\n        /* \"#utility.yul\":14923:15041   */\n    tag_383:\n        /* \"#utility.yul\":14994:15016   */\n      tag_546\n        /* \"#utility.yul\":15010:15015   */\n      dup2\n        /* \"#utility.yul\":14994:15016   */\n      tag_382\n      jump\t// in\n    tag_546:\n        /* \"#utility.yul\":14987:14992   */\n      dup2\n        /* \"#utility.yul\":14984:15017   */\n      eq\n        /* \"#utility.yul\":14974:15035   */\n      tag_547\n      jumpi\n        /* \"#utility.yul\":15031:15032   */\n      0x00\n        /* \"#utility.yul\":15028:15029   */\n      0x00\n        /* \"#utility.yul\":15021:15033   */\n      revert\n        /* \"#utility.yul\":14974:15035   */\n    tag_547:\n        /* \"#utility.yul\":14923:15041   */\n      pop\n      jump\t// out\n        /* \"#utility.yul\":15047:15186   */\n    tag_384:\n        /* \"#utility.yul\":15102:15107   */\n      0x00\n        /* \"#utility.yul\":15133:15139   */\n      dup2\n        /* \"#utility.yul\":15127:15140   */\n      mload\n        /* \"#utility.yul\":15118:15140   */\n      swap1\n      pop\n        /* \"#utility.yul\":15149:15180   */\n      tag_549\n        /* \"#utility.yul\":15174:15179   */\n      dup2\n        /* \"#utility.yul\":15149:15180   */\n      tag_383\n      jump\t// in\n    tag_549:\n        /* \"#utility.yul\":15047:15186   */\n      swap3\n      swap2\n      pop\n      pop\n      jump\t// out\n        /* \"#utility.yul\":15192:15281   */\n    tag_385:\n        /* \"#utility.yul\":15228:15235   */\n      0x00\n        /* \"#utility.yul\":15268:15274   */\n      0xffff\n        /* \"#utility.yul\":15261:15266   */\n      dup3\n        /* \"#utility.yul\":15257:15275   */\n      and\n        /* \"#utility.yul\":15246:15275   */\n      swap1\n      pop\n        /* \"#utility.yul\":15192:15281   */\n      swap2\n      swap1\n      pop\n      jump\t// out\n        /* \"#utility.yul\":15287:15407   */\n    tag_386:\n        /* \"#utility.yul\":15359:15382   */\n      tag_552\n        /* \"#utility.yul\":15376:15381   */\n      dup2\n        /* \"#utility.yul\":15359:15382   */\n      tag_385\n      jump\t// in\n    tag_552:\n        /* \"#utility.yul\":15352:15357   */\n      dup2\n        /* \"#utility.yul\":15349:15383   */\n      eq\n        /* \"#utility.yul\":15339:15401   */\n      tag_553\n      jumpi\n        /* \"#utility.yul\":15397:15398   */\n      0x00\n        /* \"#utility.yul\":15394:15395   */\n      0x00\n        /* \"#utility.yul\":15387:15399   */\n      revert\n        /* \"#utility.yul\":15339:15401   */\n    tag_553:\n        /* \"#utility.yul\":15287:15407   */\n      pop\n      jump\t// out\n        /* \"#utility.yul\":15413:15554   */\n    tag_387:\n        /* \"#utility.yul\":15469:15474   */\n      0x00\n        /* \"#utility.yul\":15500:15506   */\n      dup2\n        /* \"#utility.yul\":15494:15507   */\n      mload\n        /* \"#utility.yul\":15485:15507   */\n      swap1\n      pop\n        /* \"#utility.yul\":15516:15548   */\n      tag_555\n        /* \"#utility.yul\":15542:15547   */\n      dup2\n        /* \"#utility.yul\":15516:15548   */\n      tag_386\n      jump\t// in\n    tag_555:\n        /* \"#utility.yul\":15413:15554   */\n      swap3\n      swap2\n      pop\n      pop\n      jump\t// out\n        /* \"#utility.yul\":15560:15678   */\n    tag_388:\n        /* \"#utility.yul\":15631:15653   */\n      tag_557\n        /* \"#utility.yul\":15647:15652   */\n      dup2\n        /* \"#utility.yul\":15631:15653   */\n      tag_363\n      jump\t// in\n    tag_557:\n        /* \"#utility.yul\":15624:15629   */\n      dup2\n        /* \"#utility.yul\":15621:15654   */\n      eq\n        /* \"#utility.yul\":15611:15672   */\n      tag_558\n      jumpi\n        /* \"#utility.yul\":15668:15669   */\n      0x00\n        /* \"#utility.yul\":15665:15666   */\n      0x00\n        /* \"#utility.yul\":15658:15670   */\n      revert\n        /* \"#utility.yul\":15611:15672   */\n    tag_558:\n        /* \"#utility.yul\":15560:15678   */\n      pop\n      jump\t// out\n        /* \"#utility.yul\":15684:15823   */\n    tag_389:\n        /* \"#utility.yul\":15739:15744   */\n      0x00\n        /* \"#utility.yul\":15770:15776   */\n      dup2\n        /* \"#utility.yul\":15764:15777   */\n      mload\n        /* \"#utility.yul\":15755:15777   */\n      swap1\n      pop\n        /* \"#utility.yul\":15786:15817   */\n      tag_560\n        /* \"#utility.yul\":15811:15816   */\n      dup2\n        /* \"#utility.yul\":15786:15817   */\n      tag_388\n      jump\t// in\n    tag_560:\n        /* \"#utility.yul\":15684:15823   */\n      swap3\n      swap2\n      pop\n      pop\n      jump\t// out\n        /* \"#utility.yul\":15829:17100   */\n    tag_279:\n        /* \"#utility.yul\":15943:15949   */\n      0x00\n        /* \"#utility.yul\":15951:15957   */\n      0x00\n        /* \"#utility.yul\":15959:15965   */\n      0x00\n        /* \"#utility.yul\":15967:15973   */\n      0x00\n        /* \"#utility.yul\":15975:15981   */\n      0x00\n        /* \"#utility.yul\":15983:15989   */\n      0x00\n        /* \"#utility.yul\":15991:15997   */\n      0x00\n        /* \"#utility.yul\":16040:16043   */\n      0xe0\n        /* \"#utility.yul\":16028:16037   */\n      dup9\n        /* \"#utility.yul\":16019:16026   */\n      dup11\n        /* \"#utility.yul\":16015:16038   */\n      sub\n        /* \"#utility.yul\":16011:16044   */\n      slt\n        /* \"#utility.yul\":16008:16128   */\n      iszero\n      tag_562\n      jumpi\n        /* \"#utility.yul\":16047:16126   */\n      tag_563\n      tag_350\n      jump\t// in\n    tag_563:\n        /* \"#utility.yul\":16008:16128   */\n    tag_562:\n        /* \"#utility.yul\":16167:16168   */\n      0x00\n        /* \"#utility.yul\":16192:16256   */\n      tag_564\n        /* \"#utility.yul\":16248:16255   */\n      dup11\n        /* \"#utility.yul\":16239:16245   */\n      dup3\n        /* \"#utility.yul\":16228:16237   */\n      dup12\n        /* \"#utility.yul\":16224:16246   */\n      add\n        /* \"#utility.yul\":16192:16256   */\n      tag_381\n      jump\t// in\n    tag_564:\n        /* \"#utility.yul\":16182:16256   */\n      swap8\n      pop\n        /* \"#utility.yul\":16138:16266   */\n      pop\n        /* \"#utility.yul\":16305:16307   */\n      0x20\n        /* \"#utility.yul\":16331:16393   */\n      tag_565\n        /* \"#utility.yul\":16385:16392   */\n      dup11\n        /* \"#utility.yul\":16376:16382   */\n      dup3\n        /* \"#utility.yul\":16365:16374   */\n      dup12\n        /* \"#utility.yul\":16361:16383   */\n      add\n        /* \"#utility.yul\":16331:16393   */\n      tag_384\n      jump\t// in\n    tag_565:\n        /* \"#utility.yul\":16321:16393   */\n      swap7\n      pop\n        /* \"#utility.yul\":16276:16403   */\n      pop\n        /* \"#utility.yul\":16442:16444   */\n      0x40\n        /* \"#utility.yul\":16468:16531   */\n      tag_566\n        /* \"#utility.yul\":16523:16530   */\n      dup11\n        /* \"#utility.yul\":16514:16520   */\n      dup3\n        /* \"#utility.yul\":16503:16512   */\n      dup12\n        /* \"#utility.yul\":16499:16521   */\n      add\n        /* \"#utility.yul\":16468:16531   */\n      tag_387\n      jump\t// in\n    tag_566:\n        /* \"#utility.yul\":16458:16531   */\n      swap6\n      pop\n        /* \"#utility.yul\":16413:16541   */\n      pop\n        /* \"#utility.yul\":16580:16582   */\n      0x60\n        /* \"#utility.yul\":16606:16669   */\n      tag_567\n        /* \"#utility.yul\":16661:16668   */\n      dup11\n        /* \"#utility.yul\":16652:16658   */\n      dup3\n        /* \"#utility.yul\":16641:16650   */\n      dup12\n        /* \"#utility.yul\":16637:16659   */\n      add\n        /* \"#utility.yul\":16606:16669   */\n      tag_387\n      jump\t// in\n    tag_567:\n        /* \"#utility.yul\":16596:16669   */\n      swap5\n      pop\n        /* \"#utility.yul\":16551:16679   */\n      pop\n        /* \"#utility.yul\":16718:16721   */\n      0x80\n        /* \"#utility.yul\":16745:16808   */\n      tag_568\n        /* \"#utility.yul\":16800:16807   */\n      dup11\n        /* \"#utility.yul\":16791:16797   */\n      dup3\n        /* \"#utility.yul\":16780:16789   */\n      dup12\n        /* \"#utility.yul\":16776:16798   */\n      add\n        /* \"#utility.yul\":16745:16808   */\n      tag_387\n      jump\t// in\n    tag_568:\n        /* \"#utility.yul\":16735:16808   */\n      swap4\n      pop\n        /* \"#utility.yul\":16689:16818   */\n      pop\n        /* \"#utility.yul\":16857:16860   */\n      0xa0\n        /* \"#utility.yul\":16884:16946   */\n      tag_569\n        /* \"#utility.yul\":16938:16945   */\n      dup11\n        /* \"#utility.yul\":16929:16935   */\n      dup3\n        /* \"#utility.yul\":16918:16927   */\n      dup12\n        /* \"#utility.yul\":16914:16936   */\n      add\n        /* \"#utility.yul\":16884:16946   */\n      tag_389\n      jump\t// in\n    tag_569:\n        /* \"#utility.yul\":16874:16946   */\n      swap3\n      pop\n        /* \"#utility.yul\":16828:16956   */\n      pop\n        /* \"#utility.yul\":16995:16998   */\n      0xc0\n        /* \"#utility.yul\":17022:17083   */\n      tag_570\n        /* \"#utility.yul\":17075:17082   */\n      dup11\n        /* \"#utility.yul\":17066:17072   */\n      dup3\n        /* \"#utility.yul\":17055:17064   */\n      dup12\n        /* \"#utility.yul\":17051:17073   */\n      add\n        /* \"#utility.yul\":17022:17083   */\n      tag_377\n      jump\t// in\n    tag_570:\n        /* \"#utility.yul\":17012:17083   */\n      swap2\n      pop\n        /* \"#utility.yul\":16966:17093   */\n      pop\n        /* \"#utility.yul\":15829:17100   */\n      swap3\n      swap6\n      swap9\n      swap2\n      swap5\n      swap8\n      pop\n      swap3\n      swap6\n      pop\n      jump\t// out\n        /* \"#utility.yul\":17106:17208   */\n    tag_390:\n        /* \"#utility.yul\":17148:17156   */\n      0x00\n        /* \"#utility.yul\":17195:17200   */\n      dup2\n        /* \"#utility.yul\":17192:17193   */\n      0x01\n        /* \"#utility.yul\":17188:17201   */\n      shr\n        /* \"#utility.yul\":17167:17201   */\n      swap1\n      pop\n        /* \"#utility.yul\":17106:17208   */\n      swap2\n      swap1\n      pop\n      jump\t// out\n        /* \"#utility.yul\":17214:18062   */\n    tag_391:\n        /* \"#utility.yul\":17275:17280   */\n      0x00\n        /* \"#utility.yul\":17282:17286   */\n      0x00\n        /* \"#utility.yul\":17306:17312   */\n      dup3\n        /* \"#utility.yul\":17297:17312   */\n      swap2\n      pop\n        /* \"#utility.yul\":17330:17335   */\n      dup4\n        /* \"#utility.yul\":17321:17335   */\n      swap1\n      pop\n        /* \"#utility.yul\":17344:18056   */\n    tag_573:\n        /* \"#utility.yul\":17365:17366   */\n      0x01\n        /* \"#utility.yul\":17355:17363   */\n      dup6\n        /* \"#utility.yul\":17352:17367   */\n      gt\n        /* \"#utility.yul\":17344:18056   */\n      iszero\n      tag_575\n      jumpi\n        /* \"#utility.yul\":17460:17464   */\n      dup1\n        /* \"#utility.yul\":17455:17458   */\n      dup7\n        /* \"#utility.yul\":17451:17465   */\n      div\n        /* \"#utility.yul\":17445:17449   */\n      dup2\n        /* \"#utility.yul\":17442:17466   */\n      gt\n        /* \"#utility.yul\":17439:17489   */\n      iszero\n      tag_576\n      jumpi\n        /* \"#utility.yul\":17469:17487   */\n      tag_577\n      tag_368\n      jump\t// in\n    tag_577:\n        /* \"#utility.yul\":17439:17489   */\n    tag_576:\n        /* \"#utility.yul\":17519:17520   */\n      0x01\n        /* \"#utility.yul\":17509:17517   */\n      dup6\n        /* \"#utility.yul\":17505:17521   */\n      and\n        /* \"#utility.yul\":17502:17953   */\n      iszero\n      tag_578\n      jumpi\n        /* \"#utility.yul\":17934:17938   */\n      dup1\n        /* \"#utility.yul\":17927:17932   */\n      dup3\n        /* \"#utility.yul\":17923:17939   */\n      mul\n        /* \"#utility.yul\":17914:17939   */\n      swap2\n      pop\n        /* \"#utility.yul\":17502:17953   */\n    tag_578:\n        /* \"#utility.yul\":17984:17988   */\n      dup1\n        /* \"#utility.yul\":17978:17982   */\n      dup2\n        /* \"#utility.yul\":17974:17989   */\n      mul\n        /* \"#utility.yul\":17966:17989   */\n      swap1\n      pop\n        /* \"#utility.yul\":18014:18046   */\n      tag_579\n        /* \"#utility.yul\":18037:18045   */\n      dup6\n        /* \"#utility.yul\":18014:18046   */\n      tag_390\n      jump\t// in\n    tag_579:\n        /* \"#utility.yul\":18002:18046   */\n      swap5\n      pop\n        /* \"#utility.yul\":17344:18056   */\n      jump(tag_573)\n    tag_575:\n        /* \"#utility.yul\":17214:18062   */\n      swap5\n      pop\n      swap5\n      swap3\n      pop\n      pop\n      pop\n      jump\t// out\n        /* \"#utility.yul\":18068:19141   */\n    tag_392:\n        /* \"#utility.yul\":18122:18127   */\n      0x00\n        /* \"#utility.yul\":18313:18321   */\n      dup3\n        /* \"#utility.yul\":18303:18343   */\n      tag_581\n      jumpi\n        /* \"#utility.yul\":18334:18335   */\n      0x01\n        /* \"#utility.yul\":18325:18335   */\n      swap1\n      pop\n        /* \"#utility.yul\":18336:18341   */\n      jump(tag_580)\n        /* \"#utility.yul\":18303:18343   */\n    tag_581:\n        /* \"#utility.yul\":18362:18366   */\n      dup2\n        /* \"#utility.yul\":18352:18388   */\n      tag_582\n      jumpi\n        /* \"#utility.yul\":18379:18380   */\n      0x00\n        /* \"#utility.yul\":18370:18380   */\n      swap1\n      pop\n        /* \"#utility.yul\":18381:18386   */\n      jump(tag_580)\n        /* \"#utility.yul\":18352:18388   */\n    tag_582:\n        /* \"#utility.yul\":18448:18452   */\n      dup2\n        /* \"#utility.yul\":18496:18497   */\n      0x01\n        /* \"#utility.yul\":18491:18518   */\n      dup2\n      eq\n      tag_584\n      jumpi\n        /* \"#utility.yul\":18532:18533   */\n      0x02\n        /* \"#utility.yul\":18527:18718   */\n      dup2\n      eq\n      tag_585\n      jumpi\n        /* \"#utility.yul\":18441:18718   */\n      jump(tag_583)\n        /* \"#utility.yul\":18491:18518   */\n    tag_584:\n        /* \"#utility.yul\":18509:18510   */\n      0x01\n        /* \"#utility.yul\":18500:18510   */\n      swap2\n      pop\n        /* \"#utility.yul\":18511:18516   */\n      pop\n      jump(tag_580)\n        /* \"#utility.yul\":18527:18718   */\n    tag_585:\n        /* \"#utility.yul\":18572:18575   */\n      0xff\n        /* \"#utility.yul\":18562:18570   */\n      dup5\n        /* \"#utility.yul\":18559:18576   */\n      gt\n        /* \"#utility.yul\":18556:18599   */\n      iszero\n      tag_586\n      jumpi\n        /* \"#utility.yul\":18579:18597   */\n      tag_587\n      tag_368\n      jump\t// in\n    tag_587:\n        /* \"#utility.yul\":18556:18599   */\n    tag_586:\n        /* \"#utility.yul\":18628:18636   */\n      dup4\n        /* \"#utility.yul\":18625:18626   */\n      0x02\n        /* \"#utility.yul\":18621:18637   */\n      exp\n        /* \"#utility.yul\":18612:18637   */\n      swap2\n      pop\n        /* \"#utility.yul\":18663:18666   */\n      dup5\n        /* \"#utility.yul\":18656:18661   */\n      dup3\n        /* \"#utility.yul\":18653:18667   */\n      gt\n        /* \"#utility.yul\":18650:18690   */\n      iszero\n      tag_588\n      jumpi\n        /* \"#utility.yul\":18670:18688   */\n      tag_589\n      tag_368\n      jump\t// in\n    tag_589:\n        /* \"#utility.yul\":18650:18690   */\n    tag_588:\n        /* \"#utility.yul\":18703:18708   */\n      pop\n      jump(tag_580)\n        /* \"#utility.yul\":18441:18718   */\n    tag_583:\n      pop\n        /* \"#utility.yul\":18827:18829   */\n      0x20\n        /* \"#utility.yul\":18817:18825   */\n      dup4\n        /* \"#utility.yul\":18814:18830   */\n      lt\n        /* \"#utility.yul\":18808:18811   */\n      0x0133\n        /* \"#utility.yul\":18802:18806   */\n      dup4\n        /* \"#utility.yul\":18799:18812   */\n      lt\n        /* \"#utility.yul\":18795:18831   */\n      and\n        /* \"#utility.yul\":18777:18779   */\n      0x4e\n        /* \"#utility.yul\":18767:18775   */\n      dup5\n        /* \"#utility.yul\":18764:18780   */\n      lt\n        /* \"#utility.yul\":18759:18761   */\n      0x0b\n        /* \"#utility.yul\":18753:18757   */\n      dup5\n        /* \"#utility.yul\":18750:18762   */\n      lt\n        /* \"#utility.yul\":18746:18781   */\n      and\n        /* \"#utility.yul\":18730:18841   */\n      or\n        /* \"#utility.yul\":18727:18973   */\n      iszero\n      tag_590\n      jumpi\n        /* \"#utility.yul\":18883:18891   */\n      dup3\n        /* \"#utility.yul\":18877:18881   */\n      dup3\n        /* \"#utility.yul\":18873:18892   */\n      exp\n        /* \"#utility.yul\":18864:18892   */\n      swap1\n      pop\n        /* \"#utility.yul\":18918:18921   */\n      dup4\n        /* \"#utility.yul\":18911:18916   */\n      dup2\n        /* \"#utility.yul\":18908:18922   */\n      gt\n        /* \"#utility.yul\":18905:18945   */\n      iszero\n      tag_591\n      jumpi\n        /* \"#utility.yul\":18925:18943   */\n      tag_592\n      tag_368\n      jump\t// in\n    tag_592:\n        /* \"#utility.yul\":18905:18945   */\n    tag_591:\n        /* \"#utility.yul\":18958:18963   */\n      jump(tag_580)\n        /* \"#utility.yul\":18727:18973   */\n    tag_590:\n        /* \"#utility.yul\":18998:19040   */\n      tag_593\n        /* \"#utility.yul\":19036:19039   */\n      dup5\n        /* \"#utility.yul\":19026:19034   */\n      dup5\n        /* \"#utility.yul\":19020:19024   */\n      dup5\n        /* \"#utility.yul\":19017:19018   */\n      0x01\n        /* \"#utility.yul\":18998:19040   */\n      tag_391\n      jump\t// in\n    tag_593:\n        /* \"#utility.yul\":18983:19040   */\n      swap3\n      pop\n      swap1\n      pop\n        /* \"#utility.yul\":19072:19076   */\n      dup2\n        /* \"#utility.yul\":19067:19070   */\n      dup5\n        /* \"#utility.yul\":19063:19077   */\n      div\n        /* \"#utility.yul\":19056:19061   */\n      dup2\n        /* \"#utility.yul\":19053:19078   */\n      gt\n        /* \"#utility.yul\":19050:19101   */\n      iszero\n      tag_594\n      jumpi\n        /* \"#utility.yul\":19081:19099   */\n      tag_595\n      tag_368\n      jump\t// in\n    tag_595:\n        /* \"#utility.yul\":19050:19101   */\n    tag_594:\n        /* \"#utility.yul\":19130:19134   */\n      dup2\n        /* \"#utility.yul\":19123:19128   */\n      dup2\n        /* \"#utility.yul\":19119:19135   */\n      mul\n        /* \"#utility.yul\":19110:19135   */\n      swap1\n      pop\n        /* \"#utility.yul\":18068:19141   */\n    tag_580:\n      swap4\n      swap3\n      pop\n      pop\n      pop\n      jump\t// out\n        /* \"#utility.yul\":19147:19428   */\n    tag_281:\n        /* \"#utility.yul\":19205:19210   */\n      0x00\n        /* \"#utility.yul\":19229:19252   */\n      tag_597\n        /* \"#utility.yul\":19247:19251   */\n      dup3\n        /* \"#utility.yul\":19229:19252   */\n      tag_356\n      jump\t// in\n    tag_597:\n        /* \"#utility.yul\":19221:19252   */\n      swap2\n      pop\n        /* \"#utility.yul\":19273:19298   */\n      tag_598\n        /* \"#utility.yul\":19289:19297   */\n      dup4\n        /* \"#utility.yul\":19273:19298   */\n      tag_363\n      jump\t// in\n    tag_598:\n        /* \"#utility.yul\":19261:19298   */\n      swap3\n      pop\n        /* \"#utility.yul\":19317:19421   */\n      tag_599\n        /* \"#utility.yul\":19354:19420   */\n      0xffffffffffffffffffffffffffffffffffffffffffffffffffffffffffffffff\n        /* \"#utility.yul\":19344:19352   */\n      dup5\n        /* \"#utility.yul\":19338:19342   */\n      dup5\n        /* \"#utility.yul\":19317:19421   */\n      tag_392\n      jump\t// in\n    tag_599:\n        /* \"#utility.yul\":19308:19421   */\n      swap1\n      pop\n        /* \"#utility.yul\":19147:19428   */\n      swap3\n      swap2\n      pop\n      pop\n      jump\t// out\n        /* \"#utility.yul\":19434:19614   */\n    tag_393:\n        /* \"#utility.yul\":19482:19559   */\n      0x4e487b7100000000000000000000000000000000000000000000000000000000\n        /* \"#utility.yul\":19479:19480   */\n      0x00\n        /* \"#utility.yul\":19472:19560   */\n      mstore\n        /* \"#utility.yul\":19579:19583   */\n      0x12\n        /* \"#utility.yul\":19576:19577   */\n      0x04\n        /* \"#utility.yul\":19569:19584   */\n      mstore\n        /* \"#utility.yul\":19603:19607   */\n      0x24\n        /* \"#utility.yul\":19600:19601   */\n      0x00\n        /* \"#utility.yul\":19593:19608   */\n      revert\n        /* \"#utility.yul\":19620:19805   */\n    tag_283:\n        /* \"#utility.yul\":19660:19661   */\n      0x00\n        /* \"#utility.yul\":19677:19697   */\n      tag_602\n        /* \"#utility.yul\":19695:19696   */\n      dup3\n        /* \"#utility.yul\":19677:19697   */\n      tag_356\n      jump\t// in\n    tag_602:\n        /* \"#utility.yul\":19672:19697   */\n      swap2\n      pop\n        /* \"#utility.yul\":19711:19731   */\n      tag_603\n        /* \"#utility.yul\":19729:19730   */\n      dup4\n        /* \"#utility.yul\":19711:19731   */\n      tag_356\n      jump\t// in\n    tag_603:\n        /* \"#utility.yul\":19706:19731   */\n      swap3\n      pop\n        /* \"#utility.yul\":19750:19751   */\n      dup3\n        /* \"#utility.yul\":19740:19775   */\n      tag_604\n      jumpi\n        /* \"#utility.yul\":19755:19773   */\n      tag_605\n      tag_393\n      jump\t// in\n    tag_605:\n        /* \"#utility.yul\":19740:19775   */\n    tag_604:\n        /* \"#utility.yul\":19797:19798   */\n      dup3\n        /* \"#utility.yul\":19794:19795   */\n      dup3\n        /* \"#utility.yul\":19790:19799   */\n      div\n        /* \"#utility.yul\":19785:19799   */\n      swap1\n      pop\n        /* \"#utility.yul\":19620:19805   */\n      swap3\n      swap2\n      pop\n      pop\n      jump\t// out\n        /* \"#utility.yul\":19811:20253   */\n    tag_327:\n        /* \"#utility.yul\":19960:19964   */\n      0x00\n        /* \"#utility.yul\":19998:20000   */\n      0x60\n        /* \"#utility.yul\":19987:19996   */\n      dup3\n        /* \"#utility.yul\":19983:20001   */\n      add\n        /* \"#utility.yul\":19975:20001   */\n      swap1\n      pop\n        /* \"#utility.yul\":20011:20082   */\n      tag_607\n        /* \"#utility.yul\":20079:20080   */\n      0x00\n        /* \"#utility.yul\":20068:20077   */\n      dup4\n        /* \"#utility.yul\":20064:20081   */\n      add\n        /* \"#utility.yul\":20055:20061   */\n      dup7\n        /* \"#utility.yul\":20011:20082   */\n      tag_362\n      jump\t// in\n    tag_607:\n        /* \"#utility.yul\":20092:20164   */\n      tag_608\n        /* \"#utility.yul\":20160:20162   */\n      0x20\n        /* \"#utility.yul\":20149:20158   */\n      dup4\n        /* \"#utility.yul\":20145:20163   */\n      add\n        /* \"#utility.yul\":20136:20142   */\n      dup6\n        /* \"#utility.yul\":20092:20164   */\n      tag_361\n      jump\t// in\n    tag_608:\n        /* \"#utility.yul\":20174:20246   */\n      tag_609\n        /* \"#utility.yul\":20242:20244   */\n      0x40\n        /* \"#utility.yul\":20231:20240   */\n      dup4\n        /* \"#utility.yul\":20227:20245   */\n      add\n        /* \"#utility.yul\":20218:20224   */\n      dup5\n        /* \"#utility.yul\":20174:20246   */\n      tag_361\n      jump\t// in\n    tag_609:\n        /* \"#utility.yul\":19811:20253   */\n      swap5\n      swap4\n      pop\n      pop\n      pop\n      pop\n      jump\t// out\n\n    auxdata: 0xa2646970667358221220b4c4abeed4a24a7f7be7d8d6f37e07b98b30a82fc06e80f791e8e821aec808f064736f6c634300081e0033\n}\n",
				"bytecode": {
					"linkReferences": {},
					"object": "60c060405234801561000f575f5ffd5b50604051612f7a380380612f7a833981810160405281019061003191906105d8565b336040518060400160405280600381526020017f43434b00000000000000000000000000000000000000000000000000000000008152506040518060400160405280600881526020017f43434b546f6b656e00000000000000000000000000000000000000000000000081525081600390816100ad9190610854565b5080600490816100bd9190610854565b5050505f73ffffffffffffffffffffffffffffffffffffffff168173ffffffffffffffffffffffffffffffffffffffff1603610130575f6040517f1e4fbdf70000000000000000000000000000000000000000000000000000000081526004016101279190610932565b60405180910390fd5b61013f8161035a60201b60201c565b505f835111610183576040517f08c379a000000000000000000000000000000000000000000000000000000000815260040161017a906109cb565b60405180910390fd5b5f73ffffffffffffffffffffffffffffffffffffffff168273ffffffffffffffffffffffffffffffffffffffff16036101f1576040517f08c379a00000000000000000000000000000000000000000000000000000000081526004016101e890610a33565b60405180910390fd5b5f73ffffffffffffffffffffffffffffffffffffffff168173ffffffffffffffffffffffffffffffffffffffff160361025f576040517f08c379a000000000000000000000000000000000000000000000000000000000815260040161025690610a9b565b60405180910390fd5b5f5f90505b83518110156102e957600160065f86848151811061028557610284610ab9565b5b602002602001015173ffffffffffffffffffffffffffffffffffffffff1673ffffffffffffffffffffffffffffffffffffffff1681526020019081526020015f205f6101000a81548160ff0219169083151502179055508080600101915050610264565b508173ffffffffffffffffffffffffffffffffffffffff1660808173ffffffffffffffffffffffffffffffffffffffff16815250508073ffffffffffffffffffffffffffffffffffffffff1660a08173ffffffffffffffffffffffffffffffffffffffff1681525050505050610ae6565b5f60055f9054906101000a900473ffffffffffffffffffffffffffffffffffffffff1690508160055f6101000a81548173ffffffffffffffffffffffffffffffffffffffff021916908373ffffffffffffffffffffffffffffffffffffffff1602179055508173ffffffffffffffffffffffffffffffffffffffff168173ffffffffffffffffffffffffffffffffffffffff167f8be0079c531659141344cd1fd0a4f28419497f9722a3daafe3b4186f6b6457e060405160405180910390a35050565b5f604051905090565b5f5ffd5b5f5ffd5b5f5ffd5b5f601f19601f8301169050919050565b7f4e487b71000000000000000000000000000000000000000000000000000000005f52604160045260245ffd5b61047882610432565b810181811067ffffffffffffffff8211171561049757610496610442565b5b80604052505050565b5f6104a961041d565b90506104b5828261046f565b919050565b5f67ffffffffffffffff8211156104d4576104d3610442565b5b602082029050602081019050919050565b5f5ffd5b5f73ffffffffffffffffffffffffffffffffffffffff82169050919050565b5f610512826104e9565b9050919050565b61052281610508565b811461052c575f5ffd5b50565b5f8151905061053d81610519565b92915050565b5f610555610550846104ba565b6104a0565b90508083825260208201905060208402830185811115610578576105776104e5565b5b835b818110156105a1578061058d888261052f565b84526020840193505060208101905061057a565b5050509392505050565b5f82601f8301126105bf576105be61042e565b5b81516105cf848260208601610543565b91505092915050565b5f5f5f606084860312156105ef576105ee610426565b5b5f84015167ffffffffffffffff81111561060c5761060b61042a565b5b610618868287016105ab565b93505060206106298682870161052f565b925050604061063a8682870161052f565b9150509250925092565b5f81519050919050565b7f4e487b71000000000000000000000000000000000000000000000000000000005f52602260045260245ffd5b5f600282049050600182168061069257607f821691505b6020821081036106a5576106a461064e565b5b50919050565b5f819050815f5260205f209050919050565b5f6020601f8301049050919050565b5f82821b905092915050565b5f600883026107077fffffffffffffffffffffffffffffffffffffffffffffffffffffffffffffffff826106cc565b61071186836106cc565b95508019841693508086168417925050509392505050565b5f819050919050565b5f819050919050565b5f61075561075061074b84610729565b610732565b610729565b9050919050565b5f819050919050565b61076e8361073b565b61078261077a8261075c565b8484546106d8565b825550505050565b5f5f905090565b61079961078a565b6107a4818484610765565b505050565b5b818110156107c7576107bc5f82610791565b6001810190506107aa565b5050565b601f82111561080c576107dd816106ab565b6107e6846106bd565b810160208510156107f5578190505b610809610801856106bd565b8301826107a9565b50505b505050565b5f82821c905092915050565b5f61082c5f1984600802610811565b1980831691505092915050565b5f610844838361081d565b9150826002028217905092915050565b61085d82610644565b67ffffffffffffffff81111561087657610875610442565b5b610880825461067b565b61088b8282856107cb565b5f60209050601f8311600181146108bc575f84156108aa578287015190505b6108b48582610839565b86555061091b565b601f1984166108ca866106ab565b5f5b828110156108f1578489015182556001820191506020850194506020810190506108cc565b8683101561090e578489015161090a601f89168261081d565b8355505b6001600288020188555050505b505050505050565b61092c81610508565b82525050565b5f6020820190506109455f830184610923565b92915050565b5f82825260208201905092915050565b7f4174206c65617374206f6e652077686974656c697374656420616464726573735f8201527f2072657175697265640000000000000000000000000000000000000000000000602082015250565b5f6109b560298361094b565b91506109c08261095b565b604082019050919050565b5f6020820190508181035f8301526109e2816109a9565b9050919050565b7f496e76616c6964207265636569766572206164647265737300000000000000005f82015250565b5f610a1d60188361094b565b9150610a28826109e9565b602082019050919050565b5f6020820190508181035f830152610a4a81610a11565b9050919050565b7f496e76616c696420746f6b656e206164647265737300000000000000000000005f82015250565b5f610a8560158361094b565b9150610a9082610a51565b602082019050919050565b5f6020820190508181035f830152610ab281610a79565b9050919050565b7f4e487b71000000000000000000000000000000000000000000000000000000005f52603260045260245ffd5b60805160a051612457610b235f395f8181610a9f01528181610c210152610e4901525f8181610ac301528181610d1e0152610e1201526124575ff3fe608060405234801561000f575f5ffd5b506004361061021a575f3560e01c806395d89b4111610123578063cefaaff6116100ab578063e08ba51a1161007a578063e08ba51a14610646578063e43252d714610662578063e58398361461067e578063eb91d37e146106ae578063f2fde38b146106cc5761021a565b8063cefaaff6146105ac578063d0516650146105c8578063da0239a6146105f8578063dd62ed3e146106165761021a565b8063a9059cbb116100f2578063a9059cbb14610506578063aba6370514610536578063bdd3d82514610554578063c802e3cd14610572578063cb4b73ab146105905761021a565b806395d89b411461047c5780639b19251a1461049a5780639d76ea58146104ca5780639dc341d0146104e85761021a565b806340c10f19116101a657806370a082311161017557806370a08231146103ea578063715018a61461041a5780638ab1d681146104245780638da5cb5b14610440578063902d55a51461045e5761021a565b806340c10f191461037457806354fd4d50146103905780635c975abb146103ae5780636290865d146103cc5761021a565b8063158b1a57116101ed578063158b1a57146102ba57806318160ddd146102ea57806323b872dd146103085780632d38024214610338578063313ce567146103565761021a565b806306fdde031461021e578063095ea7b31461023c57806312cae7af1461026c578063134e18f41461029c575b5f5ffd5b6102266106e8565b6040516102339190611a05565b60405180910390f35b61025660048036038101906102519190611ab6565b610778565b6040516102639190611b0e565b60405180910390f35b61028660048036038101906102819190611b27565b61079a565b6040516102939190611b61565b60405180910390f35b6102a46107ab565b6040516102b19190611b89565b60405180910390f35b6102d460048036038101906102cf9190611b27565b6107b2565b6040516102e19190611b61565b60405180910390f35b6102f26107bb565b6040516102ff9190611b61565b60405180910390f35b610322600480360381019061031d9190611ba2565b6107c4565b60405161032f9190611b0e565b60405180910390f35b61034061082d565b60405161034d9190611b61565b60405180910390f35b61035e610833565b60405161036b9190611c0d565b60405180910390f35b61038e60048036038101906103899190611ab6565b61083a565b005b6103986108bd565b6040516103a59190611a05565b60405180910390f35b6103b66108fa565b6040516103c39190611b0e565b60405180910390f35b6103d4610901565b6040516103e19190611b89565b60405180910390f35b61040460048036038101906103ff9190611b27565b610908565b6040516104119190611b61565b60405180910390f35b61042261094d565b005b61043e60048036038101906104399190611b27565b610960565b005b6104486109bf565b6040516104559190611b89565b60405180910390f35b6104666109e7565b6040516104739190611b61565b60405180910390f35b6104846109f0565b6040516104919190611a05565b60405180910390f35b6104b460048036038101906104af9190611b27565b610a80565b6040516104c19190611b0e565b60405180910390f35b6104d2610a9d565b6040516104df9190611b89565b60405180910390f35b6104f0610ac1565b6040516104fd9190611b89565b60405180910390f35b610520600480360381019061051b9190611ab6565b610ae5565b60405161052d9190611b0e565b60405180910390f35b61053e610b4c565b60405161054b9190611b89565b60405180910390f35b61055c610b53565b6040516105699190611b89565b60405180910390f35b61057a610b78565b6040516105879190611b61565b60405180910390f35b6105aa60048036038101906105a59190611b27565b610b7d565b005b6105c660048036038101906105c19190611c26565b610bdc565b005b6105e260048036038101906105dd9190611b27565b610ebb565b6040516105ef9190611b0e565b60405180910390f35b610600610ed8565b60405161060d9190611b61565b60405180910390f35b610630600480360381019061062b9190611c51565b610ef1565b60405161063d9190611b61565b60405180910390f35b610660600480360381019061065b9190611b27565b610f73565b005b61067c60048036038101906106779190611b27565b610fd3565b005b61069860048036038101906106939190611b27565b611033565b6040516106a59190611b0e565b60405180910390f35b6106b6611085565b6040516106c39190611b61565b60405180910390f35b6106e660048036038101906106e19190611b27565b611174565b005b6060600380546106f790611cbc565b80601f016020809104026020016040519081016040528092919081815260200182805461072390611cbc565b801561076e5780601f106107455761010080835404028352916020019161076e565b820191905f5260205f20905b81548152906001019060200180831161075157829003601f168201915b5050505050905090565b5f5f6107826111f8565b905061078f8185856111ff565b600191505092915050565b5f6107a482610908565b9050919050565b5f5f905090565b5f5f9050919050565b5f600254905090565b5f816fffffffffffffffffffffffffffffffff168214610819576040517f08c379a000000000000000000000000000000000000000000000000000000000815260040161081090611d36565b60405180910390fd5b610824848484611211565b90509392505050565b60095481565b5f5f905090565b61084261123f565b64174876e800816009546108569190611d81565b1115610897576040517f08c379a000000000000000000000000000000000000000000000000000000000815260040161088e90611dfe565b60405180910390fd5b6108a182826112c6565b8060095f8282546108b29190611d81565b925050819055505050565b60606040518060400160405280600581526020017f312e302e30000000000000000000000000000000000000000000000000000000815250905090565b5f5f905090565b5f5f905090565b5f5f5f8373ffffffffffffffffffffffffffffffffffffffff1673ffffffffffffffffffffffffffffffffffffffff1681526020019081526020015f20549050919050565b61095561123f565b61095e5f611345565b565b61096861123f565b5f60065f8373ffffffffffffffffffffffffffffffffffffffff1673ffffffffffffffffffffffffffffffffffffffff1681526020019081526020015f205f6101000a81548160ff02191690831515021790555050565b5f60055f9054906101000a900473ffffffffffffffffffffffffffffffffffffffff16905090565b64174876e80081565b6060600480546109ff90611cbc565b80601f0160208091040260200160405190810160405280929190818152602001828054610a2b90611cbc565b8015610a765780601f10610a4d57610100808354040283529160200191610a76565b820191905f5260205f20905b815481529060010190602001808311610a5957829003601f168201915b5050505050905090565b6006602052805f5260405f205f915054906101000a900460ff1681565b7f000000000000000000000000000000000000000000000000000000000000000081565b7f000000000000000000000000000000000000000000000000000000000000000081565b5f816fffffffffffffffffffffffffffffffff168214610b3a576040517f08c379a0000000000000000000000000000000000000000000000000000000008152600401610b3190611d36565b60405180910390fd5b610b448383611408565b905092915050565b5f30905090565b60085f9054906101000a900473ffffffffffffffffffffffffffffffffffffffff1681565b601481565b610b8561123f565b5f60075f8373ffffffffffffffffffffffffffffffffffffffff1673ffffffffffffffffffffffffffffffffffffffff1681526020019081526020015f205f6101000a81548160ff02191690831515021790555050565b5f8111610c1e576040517f08c379a0000000000000000000000000000000000000000000000000000000008152600401610c1590611e66565b60405180910390fd5b5f7f00000000000000000000000000000000000000000000000000000000000000009050818173ffffffffffffffffffffffffffffffffffffffff1663dd62ed3e33306040518363ffffffff1660e01b8152600401610c7e929190611e84565b602060405180830381865afa158015610c99573d5f5f3e3d5ffd5b505050506040513d601f19601f82011682018060405250810190610cbd9190611ebf565b1015610cfe576040517f08c379a0000000000000000000000000000000000000000000000000000000008152600401610cf590611f34565b60405180910390fd5b5f8173ffffffffffffffffffffffffffffffffffffffff166323b872dd337f0000000000000000000000000000000000000000000000000000000000000000866040518463ffffffff1660e01b8152600401610d5c93929190611f52565b6020604051808303815f875af1158015610d78573d5f5f3e3d5ffd5b505050506040513d601f19601f82011682018060405250810190610d9c9190611fb1565b905080610dde576040517f08c379a0000000000000000000000000000000000000000000000000000000008152600401610dd590612026565b60405180910390fd5b5f601484610dec9190612044565b9050610df833826112c6565b8060095f828254610e099190611d81565b925050819055507f000000000000000000000000000000000000000000000000000000000000000073ffffffffffffffffffffffffffffffffffffffff167f000000000000000000000000000000000000000000000000000000000000000073ffffffffffffffffffffffffffffffffffffffff167fc95d558e25335222b51e6424166172914e7ce4404a9647d3631ef320294081fd86604051610ead9190611b61565b60405180910390a350505050565b6007602052805f5260405f205f915054906101000a900460ff1681565b5f60095464174876e800610eec9190612085565b905090565b5f60015f8473ffffffffffffffffffffffffffffffffffffffff1673ffffffffffffffffffffffffffffffffffffffff1681526020019081526020015f205f8373ffffffffffffffffffffffffffffffffffffffff1673ffffffffffffffffffffffffffffffffffffffff1681526020019081526020015f2054905092915050565b610f7b61123f565b600160075f8373ffffffffffffffffffffffffffffffffffffffff1673ffffffffffffffffffffffffffffffffffffffff1681526020019081526020015f205f6101000a81548160ff02191690831515021790555050565b610fdb61123f565b600160065f8373ffffffffffffffffffffffffffffffffffffffff1673ffffffffffffffffffffffffffffffffffffffff1681526020019081526020015f205f6101000a81548160ff02191690831515021790555050565b5f60075f8373ffffffffffffffffffffffffffffffffffffffff1673ffffffffffffffffffffffffffffffffffffffff1681526020019081526020015f205f9054906101000a900460ff169050919050565b5f5f60085f9054906101000a900473ffffffffffffffffffffffffffffffffffffffff1690505f8173ffffffffffffffffffffffffffffffffffffffff16633850c7bd6040518163ffffffff1660e01b815260040160e060405180830381865afa1580156110f5573d5f5f3e3d5ffd5b505050506040513d601f19601f820116820180604052508101906111199190612179565b50505050505090505f780100000000000000000000000000000000000000000000000060028373ffffffffffffffffffffffffffffffffffffffff1661115f9190612345565b61116991906123bc565b905080935050505090565b61117c61123f565b5f73ffffffffffffffffffffffffffffffffffffffff168173ffffffffffffffffffffffffffffffffffffffff16036111ec575f6040517f1e4fbdf70000000000000000000000000000000000000000000000000000000081526004016111e39190611b89565b60405180910390fd5b6111f581611345565b50565b5f33905090565b61120c838383600161142a565b505050565b5f5f61121b6111f8565b90506112288582856115f9565b61123385858561168c565b60019150509392505050565b6112476111f8565b73ffffffffffffffffffffffffffffffffffffffff166112656109bf565b73ffffffffffffffffffffffffffffffffffffffff16146112c4576112886111f8565b6040517f118cdaa70000000000000000000000000000000000000000000000000000000081526004016112bb9190611b89565b60405180910390fd5b565b5f73ffffffffffffffffffffffffffffffffffffffff168273ffffffffffffffffffffffffffffffffffffffff1603611336575f6040517fec442f0500000000000000000000000000000000000000000000000000000000815260040161132d9190611b89565b60405180910390fd5b6113415f838361177c565b5050565b5f60055f9054906101000a900473ffffffffffffffffffffffffffffffffffffffff1690508160055f6101000a81548173ffffffffffffffffffffffffffffffffffffffff021916908373ffffffffffffffffffffffffffffffffffffffff1602179055508173ffffffffffffffffffffffffffffffffffffffff168173ffffffffffffffffffffffffffffffffffffffff167f8be0079c531659141344cd1fd0a4f28419497f9722a3daafe3b4186f6b6457e060405160405180910390a35050565b5f5f6114126111f8565b905061141f81858561168c565b600191505092915050565b5f73ffffffffffffffffffffffffffffffffffffffff168473ffffffffffffffffffffffffffffffffffffffff160361149a575f6040517fe602df050000000000000000000000000000000000000000000000000000000081526004016114919190611b89565b60405180910390fd5b5f73ffffffffffffffffffffffffffffffffffffffff168373ffffffffffffffffffffffffffffffffffffffff160361150a575f6040517f94280d620000000000000000000000000000000000000000000000000000000081526004016115019190611b89565b60405180910390fd5b8160015f8673ffffffffffffffffffffffffffffffffffffffff1673ffffffffffffffffffffffffffffffffffffffff1681526020019081526020015f205f8573ffffffffffffffffffffffffffffffffffffffff1673ffffffffffffffffffffffffffffffffffffffff1681526020019081526020015f208190555080156115f3578273ffffffffffffffffffffffffffffffffffffffff168473ffffffffffffffffffffffffffffffffffffffff167f8c5be1e5ebec7d5bd14f71427d1e84f3dd0314c0f7b2291e5b200ac8c7c3b925846040516115ea9190611b61565b60405180910390a35b50505050565b5f6116048484610ef1565b90507fffffffffffffffffffffffffffffffffffffffffffffffffffffffffffffffff8110156116865781811015611677578281836040517ffb8f41b200000000000000000000000000000000000000000000000000000000815260040161166e939291906123ec565b60405180910390fd5b61168584848484035f61142a565b5b50505050565b5f73ffffffffffffffffffffffffffffffffffffffff168373ffffffffffffffffffffffffffffffffffffffff16036116fc575f6040517f96c6fd1e0000000000000000000000000000000000000000000000000000000081526004016116f39190611b89565b60405180910390fd5b5f73ffffffffffffffffffffffffffffffffffffffff168273ffffffffffffffffffffffffffffffffffffffff160361176c575f6040517fec442f050000000000000000000000000000000000000000000000000000000081526004016117639190611b89565b60405180910390fd5b61177783838361177c565b505050565b5f73ffffffffffffffffffffffffffffffffffffffff168373ffffffffffffffffffffffffffffffffffffffff16036117cc578060025f8282546117c09190611d81565b9250508190555061189a565b5f5f5f8573ffffffffffffffffffffffffffffffffffffffff1673ffffffffffffffffffffffffffffffffffffffff1681526020019081526020015f2054905081811015611855578381836040517fe450d38c00000000000000000000000000000000000000000000000000000000815260040161184c939291906123ec565b60405180910390fd5b8181035f5f8673ffffffffffffffffffffffffffffffffffffffff1673ffffffffffffffffffffffffffffffffffffffff1681526020019081526020015f2081905550505b5f73ffffffffffffffffffffffffffffffffffffffff168273ffffffffffffffffffffffffffffffffffffffff16036118e1578060025f828254039250508190555061192b565b805f5f8473ffffffffffffffffffffffffffffffffffffffff1673ffffffffffffffffffffffffffffffffffffffff1681526020019081526020015f205f82825401925050819055505b8173ffffffffffffffffffffffffffffffffffffffff168373ffffffffffffffffffffffffffffffffffffffff167fddf252ad1be2c89b69c2b068fc378daa952ba7f163c4a11628f55a4df523b3ef836040516119889190611b61565b60405180910390a3505050565b5f81519050919050565b5f82825260208201905092915050565b8281835e5f83830152505050565b5f601f19601f8301169050919050565b5f6119d782611995565b6119e1818561199f565b93506119f18185602086016119af565b6119fa816119bd565b840191505092915050565b5f6020820190508181035f830152611a1d81846119cd565b905092915050565b5f5ffd5b5f73ffffffffffffffffffffffffffffffffffffffff82169050919050565b5f611a5282611a29565b9050919050565b611a6281611a48565b8114611a6c575f5ffd5b50565b5f81359050611a7d81611a59565b92915050565b5f819050919050565b611a9581611a83565b8114611a9f575f5ffd5b50565b5f81359050611ab081611a8c565b92915050565b5f5f60408385031215611acc57611acb611a25565b5b5f611ad985828601611a6f565b9250506020611aea85828601611aa2565b9150509250929050565b5f8115159050919050565b611b0881611af4565b82525050565b5f602082019050611b215f830184611aff565b92915050565b5f60208284031215611b3c57611b3b611a25565b5b5f611b4984828501611a6f565b91505092915050565b611b5b81611a83565b82525050565b5f602082019050611b745f830184611b52565b92915050565b611b8381611a48565b82525050565b5f602082019050611b9c5f830184611b7a565b92915050565b5f5f5f60608486031215611bb957611bb8611a25565b5b5f611bc686828701611a6f565b9350506020611bd786828701611a6f565b9250506040611be886828701611aa2565b9150509250925092565b5f60ff82169050919050565b611c0781611bf2565b82525050565b5f602082019050611c205f830184611bfe565b92915050565b5f60208284031215611c3b57611c3a611a25565b5b5f611c4884828501611aa2565b91505092915050565b5f5f60408385031215611c6757611c66611a25565b5b5f611c7485828601611a6f565b9250506020611c8585828601611a6f565b9150509250929050565b7f4e487b71000000000000000000000000000000000000000000000000000000005f52602260045260245ffd5b5f6002820490506001821680611cd357607f821691505b602082108103611ce657611ce5611c8f565b5b50919050565b7f416d6f756e74206d75737420626520616e20696e7465676572000000000000005f82015250565b5f611d2060198361199f565b9150611d2b82611cec565b602082019050919050565b5f6020820190508181035f830152611d4d81611d14565b9050919050565b7f4e487b71000000000000000000000000000000000000000000000000000000005f52601160045260245ffd5b5f611d8b82611a83565b9150611d9683611a83565b9250828201905080821115611dae57611dad611d54565b5b92915050565b7f546f74616c20737570706c7920657863656564656400000000000000000000005f82015250565b5f611de860158361199f565b9150611df382611db4565b602082019050919050565b5f6020820190508181035f830152611e1581611ddc565b9050919050565b7f416d6f756e74206d7573742062652067726561746572207468616e20300000005f82015250565b5f611e50601d8361199f565b9150611e5b82611e1c565b602082019050919050565b5f6020820190508181035f830152611e7d81611e44565b9050919050565b5f604082019050611e975f830185611b7a565b611ea46020830184611b7a565b9392505050565b5f81519050611eb981611a8c565b92915050565b5f60208284031215611ed457611ed3611a25565b5b5f611ee184828501611eab565b91505092915050565b7f496e73756666696369656e7420616c6c6f77616e6365000000000000000000005f82015250565b5f611f1e60168361199f565b9150611f2982611eea565b602082019050919050565b5f6020820190508181035f830152611f4b81611f12565b9050919050565b5f606082019050611f655f830186611b7a565b611f726020830185611b7a565b611f7f6040830184611b52565b949350505050565b611f9081611af4565b8114611f9a575f5ffd5b50565b5f81519050611fab81611f87565b92915050565b5f60208284031215611fc657611fc5611a25565b5b5f611fd384828501611f9d565b91505092915050565b7f546f6b656e207472616e73666572206661696c656400000000000000000000005f82015250565b5f61201060158361199f565b915061201b82611fdc565b602082019050919050565b5f6020820190508181035f83015261203d81612004565b9050919050565b5f61204e82611a83565b915061205983611a83565b925082820261206781611a83565b9150828204841483151761207e5761207d611d54565b5b5092915050565b5f61208f82611a83565b915061209a83611a83565b92508282039050818111156120b2576120b1611d54565b5b92915050565b6120c181611a29565b81146120cb575f5ffd5b50565b5f815190506120dc816120b8565b92915050565b5f8160020b9050919050565b6120f7816120e2565b8114612101575f5ffd5b50565b5f81519050612112816120ee565b92915050565b5f61ffff82169050919050565b61212e81612118565b8114612138575f5ffd5b50565b5f8151905061214981612125565b92915050565b61215881611bf2565b8114612162575f5ffd5b50565b5f815190506121738161214f565b92915050565b5f5f5f5f5f5f5f60e0888a03121561219457612193611a25565b5b5f6121a18a828b016120ce565b97505060206121b28a828b01612104565b96505060406121c38a828b0161213b565b95505060606121d48a828b0161213b565b94505060806121e58a828b0161213b565b93505060a06121f68a828b01612165565b92505060c06122078a828b01611f9d565b91505092959891949750929550565b5f8160011c9050919050565b5f5f8291508390505b600185111561226b5780860481111561224757612246611d54565b5b60018516156122565780820291505b808102905061226485612216565b945061222b565b94509492505050565b5f82612283576001905061233e565b81612290575f905061233e565b81600181146122a657600281146122b0576122df565b600191505061233e565b60ff8411156122c2576122c1611d54565b5b8360020a9150848211156122d9576122d8611d54565b5b5061233e565b5060208310610133831016604e8410600b84101617156123145782820a90508381111561230f5761230e611d54565b5b61233e565b6123218484846001612222565b9250905081840481111561233857612337611d54565b5b81810290505b9392505050565b5f61234f82611a83565b915061235a83611bf2565b92506123877fffffffffffffffffffffffffffffffffffffffffffffffffffffffffffffffff8484612274565b905092915050565b7f4e487b71000000000000000000000000000000000000000000000000000000005f52601260045260245ffd5b5f6123c682611a83565b91506123d183611a83565b9250826123e1576123e061238f565b5b828204905092915050565b5f6060820190506123ff5f830186611b7a565b61240c6020830185611b52565b6124196040830184611b52565b94935050505056fea2646970667358221220b4c4abeed4a24a7f7be7d8d6f37e07b98b30a82fc06e80f791e8e821aec808f064736f6c634300081e0033",
					"opcodes": "PUSH1 0xC0 PUSH1 0x40 MSTORE CALLVALUE DUP1 ISZERO PUSH2 0xF JUMPI PUSH0 PUSH0 REVERT JUMPDEST POP PUSH1 0x40 MLOAD PUSH2 0x2F7A CODESIZE SUB DUP1 PUSH2 0x2F7A DUP4 CODECOPY DUP2 DUP2 ADD PUSH1 0x40 MSTORE DUP2 ADD SWAP1 PUSH2 0x31 SWAP2 SWAP1 PUSH2 0x5D8 JUMP JUMPDEST CALLER PUSH1 0x40 MLOAD DUP1 PUSH1 0x40 ADD PUSH1 0x40 MSTORE DUP1 PUSH1 0x3 DUP2 MSTORE PUSH1 0x20 ADD PUSH32 0x43434B0000000000000000000000000000000000000000000000000000000000 DUP2 MSTORE POP PUSH1 0x40 MLOAD DUP1 PUSH1 0x40 ADD PUSH1 0x40 MSTORE DUP1 PUSH1 0x8 DUP2 MSTORE PUSH1 0x20 ADD PUSH32 0x43434B546F6B656E000000000000000000000000000000000000000000000000 DUP2 MSTORE POP DUP2 PUSH1 0x3 SWAP1 DUP2 PUSH2 0xAD SWAP2 SWAP1 PUSH2 0x854 JUMP JUMPDEST POP DUP1 PUSH1 0x4 SWAP1 DUP2 PUSH2 0xBD SWAP2 SWAP1 PUSH2 0x854 JUMP JUMPDEST POP POP POP PUSH0 PUSH20 0xFFFFFFFFFFFFFFFFFFFFFFFFFFFFFFFFFFFFFFFF AND DUP2 PUSH20 0xFFFFFFFFFFFFFFFFFFFFFFFFFFFFFFFFFFFFFFFF AND SUB PUSH2 0x130 JUMPI PUSH0 PUSH1 0x40 MLOAD PUSH32 0x1E4FBDF700000000000000000000000000000000000000000000000000000000 DUP2 MSTORE PUSH1 0x4 ADD PUSH2 0x127 SWAP2 SWAP1 PUSH2 0x932 JUMP JUMPDEST PUSH1 0x40 MLOAD DUP1 SWAP2 SUB SWAP1 REVERT JUMPDEST PUSH2 0x13F DUP2 PUSH2 0x35A PUSH1 0x20 SHL PUSH1 0x20 SHR JUMP JUMPDEST POP PUSH0 DUP4 MLOAD GT PUSH2 0x183 JUMPI PUSH1 0x40 MLOAD PUSH32 0x8C379A000000000000000000000000000000000000000000000000000000000 DUP2 MSTORE PUSH1 0x4 ADD PUSH2 0x17A SWAP1 PUSH2 0x9CB JUMP JUMPDEST PUSH1 0x40 MLOAD DUP1 SWAP2 SUB SWAP1 REVERT JUMPDEST PUSH0 PUSH20 0xFFFFFFFFFFFFFFFFFFFFFFFFFFFFFFFFFFFFFFFF AND DUP3 PUSH20 0xFFFFFFFFFFFFFFFFFFFFFFFFFFFFFFFFFFFFFFFF AND SUB PUSH2 0x1F1 JUMPI PUSH1 0x40 MLOAD PUSH32 0x8C379A000000000000000000000000000000000000000000000000000000000 DUP2 MSTORE PUSH1 0x4 ADD PUSH2 0x1E8 SWAP1 PUSH2 0xA33 JUMP JUMPDEST PUSH1 0x40 MLOAD DUP1 SWAP2 SUB SWAP1 REVERT JUMPDEST PUSH0 PUSH20 0xFFFFFFFFFFFFFFFFFFFFFFFFFFFFFFFFFFFFFFFF AND DUP2 PUSH20 0xFFFFFFFFFFFFFFFFFFFFFFFFFFFFFFFFFFFFFFFF AND SUB PUSH2 0x25F JUMPI PUSH1 0x40 MLOAD PUSH32 0x8C379A000000000000000000000000000000000000000000000000000000000 DUP2 MSTORE PUSH1 0x4 ADD PUSH2 0x256 SWAP1 PUSH2 0xA9B JUMP JUMPDEST PUSH1 0x40 MLOAD DUP1 SWAP2 SUB SWAP1 REVERT JUMPDEST PUSH0 PUSH0 SWAP1 POP JUMPDEST DUP4 MLOAD DUP2 LT ISZERO PUSH2 0x2E9 JUMPI PUSH1 0x1 PUSH1 0x6 PUSH0 DUP7 DUP5 DUP2 MLOAD DUP2 LT PUSH2 0x285 JUMPI PUSH2 0x284 PUSH2 0xAB9 JUMP JUMPDEST JUMPDEST PUSH1 0x20 MUL PUSH1 0x20 ADD ADD MLOAD PUSH20 0xFFFFFFFFFFFFFFFFFFFFFFFFFFFFFFFFFFFFFFFF AND PUSH20 0xFFFFFFFFFFFFFFFFFFFFFFFFFFFFFFFFFFFFFFFF AND DUP2 MSTORE PUSH1 0x20 ADD SWAP1 DUP2 MSTORE PUSH1 0x20 ADD PUSH0 KECCAK256 PUSH0 PUSH2 0x100 EXP DUP2 SLOAD DUP2 PUSH1 0xFF MUL NOT AND SWAP1 DUP4 ISZERO ISZERO MUL OR SWAP1 SSTORE POP DUP1 DUP1 PUSH1 0x1 ADD SWAP2 POP POP PUSH2 0x264 JUMP JUMPDEST POP DUP2 PUSH20 0xFFFFFFFFFFFFFFFFFFFFFFFFFFFFFFFFFFFFFFFF AND PUSH1 0x80 DUP2 PUSH20 0xFFFFFFFFFFFFFFFFFFFFFFFFFFFFFFFFFFFFFFFF AND DUP2 MSTORE POP POP DUP1 PUSH20 0xFFFFFFFFFFFFFFFFFFFFFFFFFFFFFFFFFFFFFFFF AND PUSH1 0xA0 DUP2 PUSH20 0xFFFFFFFFFFFFFFFFFFFFFFFFFFFFFFFFFFFFFFFF AND DUP2 MSTORE POP POP POP POP POP PUSH2 0xAE6 JUMP JUMPDEST PUSH0 PUSH1 0x5 PUSH0 SWAP1 SLOAD SWAP1 PUSH2 0x100 EXP SWAP1 DIV PUSH20 0xFFFFFFFFFFFFFFFFFFFFFFFFFFFFFFFFFFFFFFFF AND SWAP1 POP DUP2 PUSH1 0x5 PUSH0 PUSH2 0x100 EXP DUP2 SLOAD DUP2 PUSH20 0xFFFFFFFFFFFFFFFFFFFFFFFFFFFFFFFFFFFFFFFF MUL NOT AND SWAP1 DUP4 PUSH20 0xFFFFFFFFFFFFFFFFFFFFFFFFFFFFFFFFFFFFFFFF AND MUL OR SWAP1 SSTORE POP DUP2 PUSH20 0xFFFFFFFFFFFFFFFFFFFFFFFFFFFFFFFFFFFFFFFF AND DUP2 PUSH20 0xFFFFFFFFFFFFFFFFFFFFFFFFFFFFFFFFFFFFFFFF AND PUSH32 0x8BE0079C531659141344CD1FD0A4F28419497F9722A3DAAFE3B4186F6B6457E0 PUSH1 0x40 MLOAD PUSH1 0x40 MLOAD DUP1 SWAP2 SUB SWAP1 LOG3 POP POP JUMP JUMPDEST PUSH0 PUSH1 0x40 MLOAD SWAP1 POP SWAP1 JUMP JUMPDEST PUSH0 PUSH0 REVERT JUMPDEST PUSH0 PUSH0 REVERT JUMPDEST PUSH0 PUSH0 REVERT JUMPDEST PUSH0 PUSH1 0x1F NOT PUSH1 0x1F DUP4 ADD AND SWAP1 POP SWAP2 SWAP1 POP JUMP JUMPDEST PUSH32 0x4E487B7100000000000000000000000000000000000000000000000000000000 PUSH0 MSTORE PUSH1 0x41 PUSH1 0x4 MSTORE PUSH1 0x24 PUSH0 REVERT JUMPDEST PUSH2 0x478 DUP3 PUSH2 0x432 JUMP JUMPDEST DUP2 ADD DUP2 DUP2 LT PUSH8 0xFFFFFFFFFFFFFFFF DUP3 GT OR ISZERO PUSH2 0x497 JUMPI PUSH2 0x496 PUSH2 0x442 JUMP JUMPDEST JUMPDEST DUP1 PUSH1 0x40 MSTORE POP POP POP JUMP JUMPDEST PUSH0 PUSH2 0x4A9 PUSH2 0x41D JUMP JUMPDEST SWAP1 POP PUSH2 0x4B5 DUP3 DUP3 PUSH2 0x46F JUMP JUMPDEST SWAP2 SWAP1 POP JUMP JUMPDEST PUSH0 PUSH8 0xFFFFFFFFFFFFFFFF DUP3 GT ISZERO PUSH2 0x4D4 JUMPI PUSH2 0x4D3 PUSH2 0x442 JUMP JUMPDEST JUMPDEST PUSH1 0x20 DUP3 MUL SWAP1 POP PUSH1 0x20 DUP2 ADD SWAP1 POP SWAP2 SWAP1 POP JUMP JUMPDEST PUSH0 PUSH0 REVERT JUMPDEST PUSH0 PUSH20 0xFFFFFFFFFFFFFFFFFFFFFFFFFFFFFFFFFFFFFFFF DUP3 AND SWAP1 POP SWAP2 SWAP1 POP JUMP JUMPDEST PUSH0 PUSH2 0x512 DUP3 PUSH2 0x4E9 JUMP JUMPDEST SWAP1 POP SWAP2 SWAP1 POP JUMP JUMPDEST PUSH2 0x522 DUP2 PUSH2 0x508 JUMP JUMPDEST DUP2 EQ PUSH2 0x52C JUMPI PUSH0 PUSH0 REVERT JUMPDEST POP JUMP JUMPDEST PUSH0 DUP2 MLOAD SWAP1 POP PUSH2 0x53D DUP2 PUSH2 0x519 JUMP JUMPDEST SWAP3 SWAP2 POP POP JUMP JUMPDEST PUSH0 PUSH2 0x555 PUSH2 0x550 DUP5 PUSH2 0x4BA JUMP JUMPDEST PUSH2 0x4A0 JUMP JUMPDEST SWAP1 POP DUP1 DUP4 DUP3 MSTORE PUSH1 0x20 DUP3 ADD SWAP1 POP PUSH1 0x20 DUP5 MUL DUP4 ADD DUP6 DUP2 GT ISZERO PUSH2 0x578 JUMPI PUSH2 0x577 PUSH2 0x4E5 JUMP JUMPDEST JUMPDEST DUP4 JUMPDEST DUP2 DUP2 LT ISZERO PUSH2 0x5A1 JUMPI DUP1 PUSH2 0x58D DUP9 DUP3 PUSH2 0x52F JUMP JUMPDEST DUP5 MSTORE PUSH1 0x20 DUP5 ADD SWAP4 POP POP PUSH1 0x20 DUP2 ADD SWAP1 POP PUSH2 0x57A JUMP JUMPDEST POP POP POP SWAP4 SWAP3 POP POP POP JUMP JUMPDEST PUSH0 DUP3 PUSH1 0x1F DUP4 ADD SLT PUSH2 0x5BF JUMPI PUSH2 0x5BE PUSH2 0x42E JUMP JUMPDEST JUMPDEST DUP2 MLOAD PUSH2 0x5CF DUP5 DUP3 PUSH1 0x20 DUP7 ADD PUSH2 0x543 JUMP JUMPDEST SWAP2 POP POP SWAP3 SWAP2 POP POP JUMP JUMPDEST PUSH0 PUSH0 PUSH0 PUSH1 0x60 DUP5 DUP7 SUB SLT ISZERO PUSH2 0x5EF JUMPI PUSH2 0x5EE PUSH2 0x426 JUMP JUMPDEST JUMPDEST PUSH0 DUP5 ADD MLOAD PUSH8 0xFFFFFFFFFFFFFFFF DUP2 GT ISZERO PUSH2 0x60C JUMPI PUSH2 0x60B PUSH2 0x42A JUMP JUMPDEST JUMPDEST PUSH2 0x618 DUP7 DUP3 DUP8 ADD PUSH2 0x5AB JUMP JUMPDEST SWAP4 POP POP PUSH1 0x20 PUSH2 0x629 DUP7 DUP3 DUP8 ADD PUSH2 0x52F JUMP JUMPDEST SWAP3 POP POP PUSH1 0x40 PUSH2 0x63A DUP7 DUP3 DUP8 ADD PUSH2 0x52F JUMP JUMPDEST SWAP2 POP POP SWAP3 POP SWAP3 POP SWAP3 JUMP JUMPDEST PUSH0 DUP2 MLOAD SWAP1 POP SWAP2 SWAP1 POP JUMP JUMPDEST PUSH32 0x4E487B7100000000000000000000000000000000000000000000000000000000 PUSH0 MSTORE PUSH1 0x22 PUSH1 0x4 MSTORE PUSH1 0x24 PUSH0 REVERT JUMPDEST PUSH0 PUSH1 0x2 DUP3 DIV SWAP1 POP PUSH1 0x1 DUP3 AND DUP1 PUSH2 0x692 JUMPI PUSH1 0x7F DUP3 AND SWAP2 POP JUMPDEST PUSH1 0x20 DUP3 LT DUP2 SUB PUSH2 0x6A5 JUMPI PUSH2 0x6A4 PUSH2 0x64E JUMP JUMPDEST JUMPDEST POP SWAP2 SWAP1 POP JUMP JUMPDEST PUSH0 DUP2 SWAP1 POP DUP2 PUSH0 MSTORE PUSH1 0x20 PUSH0 KECCAK256 SWAP1 POP SWAP2 SWAP1 POP JUMP JUMPDEST PUSH0 PUSH1 0x20 PUSH1 0x1F DUP4 ADD DIV SWAP1 POP SWAP2 SWAP1 POP JUMP JUMPDEST PUSH0 DUP3 DUP3 SHL SWAP1 POP SWAP3 SWAP2 POP POP JUMP JUMPDEST PUSH0 PUSH1 0x8 DUP4 MUL PUSH2 0x707 PUSH32 0xFFFFFFFFFFFFFFFFFFFFFFFFFFFFFFFFFFFFFFFFFFFFFFFFFFFFFFFFFFFFFFFF DUP3 PUSH2 0x6CC JUMP JUMPDEST PUSH2 0x711 DUP7 DUP4 PUSH2 0x6CC JUMP JUMPDEST SWAP6 POP DUP1 NOT DUP5 AND SWAP4 POP DUP1 DUP7 AND DUP5 OR SWAP3 POP POP POP SWAP4 SWAP3 POP POP POP JUMP JUMPDEST PUSH0 DUP2 SWAP1 POP SWAP2 SWAP1 POP JUMP JUMPDEST PUSH0 DUP2 SWAP1 POP SWAP2 SWAP1 POP JUMP JUMPDEST PUSH0 PUSH2 0x755 PUSH2 0x750 PUSH2 0x74B DUP5 PUSH2 0x729 JUMP JUMPDEST PUSH2 0x732 JUMP JUMPDEST PUSH2 0x729 JUMP JUMPDEST SWAP1 POP SWAP2 SWAP1 POP JUMP JUMPDEST PUSH0 DUP2 SWAP1 POP SWAP2 SWAP1 POP JUMP JUMPDEST PUSH2 0x76E DUP4 PUSH2 0x73B JUMP JUMPDEST PUSH2 0x782 PUSH2 0x77A DUP3 PUSH2 0x75C JUMP JUMPDEST DUP5 DUP5 SLOAD PUSH2 0x6D8 JUMP JUMPDEST DUP3 SSTORE POP POP POP POP JUMP JUMPDEST PUSH0 PUSH0 SWAP1 POP SWAP1 JUMP JUMPDEST PUSH2 0x799 PUSH2 0x78A JUMP JUMPDEST PUSH2 0x7A4 DUP2 DUP5 DUP5 PUSH2 0x765 JUMP JUMPDEST POP POP POP JUMP JUMPDEST JUMPDEST DUP2 DUP2 LT ISZERO PUSH2 0x7C7 JUMPI PUSH2 0x7BC PUSH0 DUP3 PUSH2 0x791 JUMP JUMPDEST PUSH1 0x1 DUP2 ADD SWAP1 POP PUSH2 0x7AA JUMP JUMPDEST POP POP JUMP JUMPDEST PUSH1 0x1F DUP3 GT ISZERO PUSH2 0x80C JUMPI PUSH2 0x7DD DUP2 PUSH2 0x6AB JUMP JUMPDEST PUSH2 0x7E6 DUP5 PUSH2 0x6BD JUMP JUMPDEST DUP2 ADD PUSH1 0x20 DUP6 LT ISZERO PUSH2 0x7F5 JUMPI DUP2 SWAP1 POP JUMPDEST PUSH2 0x809 PUSH2 0x801 DUP6 PUSH2 0x6BD JUMP JUMPDEST DUP4 ADD DUP3 PUSH2 0x7A9 JUMP JUMPDEST POP POP JUMPDEST POP POP POP JUMP JUMPDEST PUSH0 DUP3 DUP3 SHR SWAP1 POP SWAP3 SWAP2 POP POP JUMP JUMPDEST PUSH0 PUSH2 0x82C PUSH0 NOT DUP5 PUSH1 0x8 MUL PUSH2 0x811 JUMP JUMPDEST NOT DUP1 DUP4 AND SWAP2 POP POP SWAP3 SWAP2 POP POP JUMP JUMPDEST PUSH0 PUSH2 0x844 DUP4 DUP4 PUSH2 0x81D JUMP JUMPDEST SWAP2 POP DUP3 PUSH1 0x2 MUL DUP3 OR SWAP1 POP SWAP3 SWAP2 POP POP JUMP JUMPDEST PUSH2 0x85D DUP3 PUSH2 0x644 JUMP JUMPDEST PUSH8 0xFFFFFFFFFFFFFFFF DUP2 GT ISZERO PUSH2 0x876 JUMPI PUSH2 0x875 PUSH2 0x442 JUMP JUMPDEST JUMPDEST PUSH2 0x880 DUP3 SLOAD PUSH2 0x67B JUMP JUMPDEST PUSH2 0x88B DUP3 DUP3 DUP6 PUSH2 0x7CB JUMP JUMPDEST PUSH0 PUSH1 0x20 SWAP1 POP PUSH1 0x1F DUP4 GT PUSH1 0x1 DUP2 EQ PUSH2 0x8BC JUMPI PUSH0 DUP5 ISZERO PUSH2 0x8AA JUMPI DUP3 DUP8 ADD MLOAD SWAP1 POP JUMPDEST PUSH2 0x8B4 DUP6 DUP3 PUSH2 0x839 JUMP JUMPDEST DUP7 SSTORE POP PUSH2 0x91B JUMP JUMPDEST PUSH1 0x1F NOT DUP5 AND PUSH2 0x8CA DUP7 PUSH2 0x6AB JUMP JUMPDEST PUSH0 JUMPDEST DUP3 DUP2 LT ISZERO PUSH2 0x8F1 JUMPI DUP5 DUP10 ADD MLOAD DUP3 SSTORE PUSH1 0x1 DUP3 ADD SWAP2 POP PUSH1 0x20 DUP6 ADD SWAP5 POP PUSH1 0x20 DUP2 ADD SWAP1 POP PUSH2 0x8CC JUMP JUMPDEST DUP7 DUP4 LT ISZERO PUSH2 0x90E JUMPI DUP5 DUP10 ADD MLOAD PUSH2 0x90A PUSH1 0x1F DUP10 AND DUP3 PUSH2 0x81D JUMP JUMPDEST DUP4 SSTORE POP JUMPDEST PUSH1 0x1 PUSH1 0x2 DUP9 MUL ADD DUP9 SSTORE POP POP POP JUMPDEST POP POP POP POP POP POP JUMP JUMPDEST PUSH2 0x92C DUP2 PUSH2 0x508 JUMP JUMPDEST DUP3 MSTORE POP POP JUMP JUMPDEST PUSH0 PUSH1 0x20 DUP3 ADD SWAP1 POP PUSH2 0x945 PUSH0 DUP4 ADD DUP5 PUSH2 0x923 JUMP JUMPDEST SWAP3 SWAP2 POP POP JUMP JUMPDEST PUSH0 DUP3 DUP3 MSTORE PUSH1 0x20 DUP3 ADD SWAP1 POP SWAP3 SWAP2 POP POP JUMP JUMPDEST PUSH32 0x4174206C65617374206F6E652077686974656C69737465642061646472657373 PUSH0 DUP3 ADD MSTORE PUSH32 0x2072657175697265640000000000000000000000000000000000000000000000 PUSH1 0x20 DUP3 ADD MSTORE POP JUMP JUMPDEST PUSH0 PUSH2 0x9B5 PUSH1 0x29 DUP4 PUSH2 0x94B JUMP JUMPDEST SWAP2 POP PUSH2 0x9C0 DUP3 PUSH2 0x95B JUMP JUMPDEST PUSH1 0x40 DUP3 ADD SWAP1 POP SWAP2 SWAP1 POP JUMP JUMPDEST PUSH0 PUSH1 0x20 DUP3 ADD SWAP1 POP DUP2 DUP2 SUB PUSH0 DUP4 ADD MSTORE PUSH2 0x9E2 DUP2 PUSH2 0x9A9 JUMP JUMPDEST SWAP1 POP SWAP2 SWAP1 POP JUMP JUMPDEST PUSH32 0x496E76616C696420726563656976657220616464726573730000000000000000 PUSH0 DUP3 ADD MSTORE POP JUMP JUMPDEST PUSH0 PUSH2 0xA1D PUSH1 0x18 DUP4 PUSH2 0x94B JUMP JUMPDEST SWAP2 POP PUSH2 0xA28 DUP3 PUSH2 0x9E9 JUMP JUMPDEST PUSH1 0x20 DUP3 ADD SWAP1 POP SWAP2 SWAP1 POP JUMP JUMPDEST PUSH0 PUSH1 0x20 DUP3 ADD SWAP1 POP DUP2 DUP2 SUB PUSH0 DUP4 ADD MSTORE PUSH2 0xA4A DUP2 PUSH2 0xA11 JUMP JUMPDEST SWAP1 POP SWAP2 SWAP1 POP JUMP JUMPDEST PUSH32 0x496E76616C696420746F6B656E20616464726573730000000000000000000000 PUSH0 DUP3 ADD MSTORE POP JUMP JUMPDEST PUSH0 PUSH2 0xA85 PUSH1 0x15 DUP4 PUSH2 0x94B JUMP JUMPDEST SWAP2 POP PUSH2 0xA90 DUP3 PUSH2 0xA51 JUMP JUMPDEST PUSH1 0x20 DUP3 ADD SWAP1 POP SWAP2 SWAP1 POP JUMP JUMPDEST PUSH0 PUSH1 0x20 DUP3 ADD SWAP1 POP DUP2 DUP2 SUB PUSH0 DUP4 ADD MSTORE PUSH2 0xAB2 DUP2 PUSH2 0xA79 JUMP JUMPDEST SWAP1 POP SWAP2 SWAP1 POP JUMP JUMPDEST PUSH32 0x4E487B7100000000000000000000000000000000000000000000000000000000 PUSH0 MSTORE PUSH1 0x32 PUSH1 0x4 MSTORE PUSH1 0x24 PUSH0 REVERT JUMPDEST PUSH1 0x80 MLOAD PUSH1 0xA0 MLOAD PUSH2 0x2457 PUSH2 0xB23 PUSH0 CODECOPY PUSH0 DUP2 DUP2 PUSH2 0xA9F ADD MSTORE DUP2 DUP2 PUSH2 0xC21 ADD MSTORE PUSH2 0xE49 ADD MSTORE PUSH0 DUP2 DUP2 PUSH2 0xAC3 ADD MSTORE DUP2 DUP2 PUSH2 0xD1E ADD MSTORE PUSH2 0xE12 ADD MSTORE PUSH2 0x2457 PUSH0 RETURN INVALID PUSH1 0x80 PUSH1 0x40 MSTORE CALLVALUE DUP1 ISZERO PUSH2 0xF JUMPI PUSH0 PUSH0 REVERT JUMPDEST POP PUSH1 0x4 CALLDATASIZE LT PUSH2 0x21A JUMPI PUSH0 CALLDATALOAD PUSH1 0xE0 SHR DUP1 PUSH4 0x95D89B41 GT PUSH2 0x123 JUMPI DUP1 PUSH4 0xCEFAAFF6 GT PUSH2 0xAB JUMPI DUP1 PUSH4 0xE08BA51A GT PUSH2 0x7A JUMPI DUP1 PUSH4 0xE08BA51A EQ PUSH2 0x646 JUMPI DUP1 PUSH4 0xE43252D7 EQ PUSH2 0x662 JUMPI DUP1 PUSH4 0xE5839836 EQ PUSH2 0x67E JUMPI DUP1 PUSH4 0xEB91D37E EQ PUSH2 0x6AE JUMPI DUP1 PUSH4 0xF2FDE38B EQ PUSH2 0x6CC JUMPI PUSH2 0x21A JUMP JUMPDEST DUP1 PUSH4 0xCEFAAFF6 EQ PUSH2 0x5AC JUMPI DUP1 PUSH4 0xD0516650 EQ PUSH2 0x5C8 JUMPI DUP1 PUSH4 0xDA0239A6 EQ PUSH2 0x5F8 JUMPI DUP1 PUSH4 0xDD62ED3E EQ PUSH2 0x616 JUMPI PUSH2 0x21A JUMP JUMPDEST DUP1 PUSH4 0xA9059CBB GT PUSH2 0xF2 JUMPI DUP1 PUSH4 0xA9059CBB EQ PUSH2 0x506 JUMPI DUP1 PUSH4 0xABA63705 EQ PUSH2 0x536 JUMPI DUP1 PUSH4 0xBDD3D825 EQ PUSH2 0x554 JUMPI DUP1 PUSH4 0xC802E3CD EQ PUSH2 0x572 JUMPI DUP1 PUSH4 0xCB4B73AB EQ PUSH2 0x590 JUMPI PUSH2 0x21A JUMP JUMPDEST DUP1 PUSH4 0x95D89B41 EQ PUSH2 0x47C JUMPI DUP1 PUSH4 0x9B19251A EQ PUSH2 0x49A JUMPI DUP1 PUSH4 0x9D76EA58 EQ PUSH2 0x4CA JUMPI DUP1 PUSH4 0x9DC341D0 EQ PUSH2 0x4E8 JUMPI PUSH2 0x21A JUMP JUMPDEST DUP1 PUSH4 0x40C10F19 GT PUSH2 0x1A6 JUMPI DUP1 PUSH4 0x70A08231 GT PUSH2 0x175 JUMPI DUP1 PUSH4 0x70A08231 EQ PUSH2 0x3EA JUMPI DUP1 PUSH4 0x715018A6 EQ PUSH2 0x41A JUMPI DUP1 PUSH4 0x8AB1D681 EQ PUSH2 0x424 JUMPI DUP1 PUSH4 0x8DA5CB5B EQ PUSH2 0x440 JUMPI DUP1 PUSH4 0x902D55A5 EQ PUSH2 0x45E JUMPI PUSH2 0x21A JUMP JUMPDEST DUP1 PUSH4 0x40C10F19 EQ PUSH2 0x374 JUMPI DUP1 PUSH4 0x54FD4D50 EQ PUSH2 0x390 JUMPI DUP1 PUSH4 0x5C975ABB EQ PUSH2 0x3AE JUMPI DUP1 PUSH4 0x6290865D EQ PUSH2 0x3CC JUMPI PUSH2 0x21A JUMP JUMPDEST DUP1 PUSH4 0x158B1A57 GT PUSH2 0x1ED JUMPI DUP1 PUSH4 0x158B1A57 EQ PUSH2 0x2BA JUMPI DUP1 PUSH4 0x18160DDD EQ PUSH2 0x2EA JUMPI DUP1 PUSH4 0x23B872DD EQ PUSH2 0x308 JUMPI DUP1 PUSH4 0x2D380242 EQ PUSH2 0x338 JUMPI DUP1 PUSH4 0x313CE567 EQ PUSH2 0x356 JUMPI PUSH2 0x21A JUMP JUMPDEST DUP1 PUSH4 0x6FDDE03 EQ PUSH2 0x21E JUMPI DUP1 PUSH4 0x95EA7B3 EQ PUSH2 0x23C JUMPI DUP1 PUSH4 0x12CAE7AF EQ PUSH2 0x26C JUMPI DUP1 PUSH4 0x134E18F4 EQ PUSH2 0x29C JUMPI JUMPDEST PUSH0 PUSH0 REVERT JUMPDEST PUSH2 0x226 PUSH2 0x6E8 JUMP JUMPDEST PUSH1 0x40 MLOAD PUSH2 0x233 SWAP2 SWAP1 PUSH2 0x1A05 JUMP JUMPDEST PUSH1 0x40 MLOAD DUP1 SWAP2 SUB SWAP1 RETURN JUMPDEST PUSH2 0x256 PUSH1 0x4 DUP1 CALLDATASIZE SUB DUP2 ADD SWAP1 PUSH2 0x251 SWAP2 SWAP1 PUSH2 0x1AB6 JUMP JUMPDEST PUSH2 0x778 JUMP JUMPDEST PUSH1 0x40 MLOAD PUSH2 0x263 SWAP2 SWAP1 PUSH2 0x1B0E JUMP JUMPDEST PUSH1 0x40 MLOAD DUP1 SWAP2 SUB SWAP1 RETURN JUMPDEST PUSH2 0x286 PUSH1 0x4 DUP1 CALLDATASIZE SUB DUP2 ADD SWAP1 PUSH2 0x281 SWAP2 SWAP1 PUSH2 0x1B27 JUMP JUMPDEST PUSH2 0x79A JUMP JUMPDEST PUSH1 0x40 MLOAD PUSH2 0x293 SWAP2 SWAP1 PUSH2 0x1B61 JUMP JUMPDEST PUSH1 0x40 MLOAD DUP1 SWAP2 SUB SWAP1 RETURN JUMPDEST PUSH2 0x2A4 PUSH2 0x7AB JUMP JUMPDEST PUSH1 0x40 MLOAD PUSH2 0x2B1 SWAP2 SWAP1 PUSH2 0x1B89 JUMP JUMPDEST PUSH1 0x40 MLOAD DUP1 SWAP2 SUB SWAP1 RETURN JUMPDEST PUSH2 0x2D4 PUSH1 0x4 DUP1 CALLDATASIZE SUB DUP2 ADD SWAP1 PUSH2 0x2CF SWAP2 SWAP1 PUSH2 0x1B27 JUMP JUMPDEST PUSH2 0x7B2 JUMP JUMPDEST PUSH1 0x40 MLOAD PUSH2 0x2E1 SWAP2 SWAP1 PUSH2 0x1B61 JUMP JUMPDEST PUSH1 0x40 MLOAD DUP1 SWAP2 SUB SWAP1 RETURN JUMPDEST PUSH2 0x2F2 PUSH2 0x7BB JUMP JUMPDEST PUSH1 0x40 MLOAD PUSH2 0x2FF SWAP2 SWAP1 PUSH2 0x1B61 JUMP JUMPDEST PUSH1 0x40 MLOAD DUP1 SWAP2 SUB SWAP1 RETURN JUMPDEST PUSH2 0x322 PUSH1 0x4 DUP1 CALLDATASIZE SUB DUP2 ADD SWAP1 PUSH2 0x31D SWAP2 SWAP1 PUSH2 0x1BA2 JUMP JUMPDEST PUSH2 0x7C4 JUMP JUMPDEST PUSH1 0x40 MLOAD PUSH2 0x32F SWAP2 SWAP1 PUSH2 0x1B0E JUMP JUMPDEST PUSH1 0x40 MLOAD DUP1 SWAP2 SUB SWAP1 RETURN JUMPDEST PUSH2 0x340 PUSH2 0x82D JUMP JUMPDEST PUSH1 0x40 MLOAD PUSH2 0x34D SWAP2 SWAP1 PUSH2 0x1B61 JUMP JUMPDEST PUSH1 0x40 MLOAD DUP1 SWAP2 SUB SWAP1 RETURN JUMPDEST PUSH2 0x35E PUSH2 0x833 JUMP JUMPDEST PUSH1 0x40 MLOAD PUSH2 0x36B SWAP2 SWAP1 PUSH2 0x1C0D JUMP JUMPDEST PUSH1 0x40 MLOAD DUP1 SWAP2 SUB SWAP1 RETURN JUMPDEST PUSH2 0x38E PUSH1 0x4 DUP1 CALLDATASIZE SUB DUP2 ADD SWAP1 PUSH2 0x389 SWAP2 SWAP1 PUSH2 0x1AB6 JUMP JUMPDEST PUSH2 0x83A JUMP JUMPDEST STOP JUMPDEST PUSH2 0x398 PUSH2 0x8BD JUMP JUMPDEST PUSH1 0x40 MLOAD PUSH2 0x3A5 SWAP2 SWAP1 PUSH2 0x1A05 JUMP JUMPDEST PUSH1 0x40 MLOAD DUP1 SWAP2 SUB SWAP1 RETURN JUMPDEST PUSH2 0x3B6 PUSH2 0x8FA JUMP JUMPDEST PUSH1 0x40 MLOAD PUSH2 0x3C3 SWAP2 SWAP1 PUSH2 0x1B0E JUMP JUMPDEST PUSH1 0x40 MLOAD DUP1 SWAP2 SUB SWAP1 RETURN JUMPDEST PUSH2 0x3D4 PUSH2 0x901 JUMP JUMPDEST PUSH1 0x40 MLOAD PUSH2 0x3E1 SWAP2 SWAP1 PUSH2 0x1B89 JUMP JUMPDEST PUSH1 0x40 MLOAD DUP1 SWAP2 SUB SWAP1 RETURN JUMPDEST PUSH2 0x404 PUSH1 0x4 DUP1 CALLDATASIZE SUB DUP2 ADD SWAP1 PUSH2 0x3FF SWAP2 SWAP1 PUSH2 0x1B27 JUMP JUMPDEST PUSH2 0x908 JUMP JUMPDEST PUSH1 0x40 MLOAD PUSH2 0x411 SWAP2 SWAP1 PUSH2 0x1B61 JUMP JUMPDEST PUSH1 0x40 MLOAD DUP1 SWAP2 SUB SWAP1 RETURN JUMPDEST PUSH2 0x422 PUSH2 0x94D JUMP JUMPDEST STOP JUMPDEST PUSH2 0x43E PUSH1 0x4 DUP1 CALLDATASIZE SUB DUP2 ADD SWAP1 PUSH2 0x439 SWAP2 SWAP1 PUSH2 0x1B27 JUMP JUMPDEST PUSH2 0x960 JUMP JUMPDEST STOP JUMPDEST PUSH2 0x448 PUSH2 0x9BF JUMP JUMPDEST PUSH1 0x40 MLOAD PUSH2 0x455 SWAP2 SWAP1 PUSH2 0x1B89 JUMP JUMPDEST PUSH1 0x40 MLOAD DUP1 SWAP2 SUB SWAP1 RETURN JUMPDEST PUSH2 0x466 PUSH2 0x9E7 JUMP JUMPDEST PUSH1 0x40 MLOAD PUSH2 0x473 SWAP2 SWAP1 PUSH2 0x1B61 JUMP JUMPDEST PUSH1 0x40 MLOAD DUP1 SWAP2 SUB SWAP1 RETURN JUMPDEST PUSH2 0x484 PUSH2 0x9F0 JUMP JUMPDEST PUSH1 0x40 MLOAD PUSH2 0x491 SWAP2 SWAP1 PUSH2 0x1A05 JUMP JUMPDEST PUSH1 0x40 MLOAD DUP1 SWAP2 SUB SWAP1 RETURN JUMPDEST PUSH2 0x4B4 PUSH1 0x4 DUP1 CALLDATASIZE SUB DUP2 ADD SWAP1 PUSH2 0x4AF SWAP2 SWAP1 PUSH2 0x1B27 JUMP JUMPDEST PUSH2 0xA80 JUMP JUMPDEST PUSH1 0x40 MLOAD PUSH2 0x4C1 SWAP2 SWAP1 PUSH2 0x1B0E JUMP JUMPDEST PUSH1 0x40 MLOAD DUP1 SWAP2 SUB SWAP1 RETURN JUMPDEST PUSH2 0x4D2 PUSH2 0xA9D JUMP JUMPDEST PUSH1 0x40 MLOAD PUSH2 0x4DF SWAP2 SWAP1 PUSH2 0x1B89 JUMP JUMPDEST PUSH1 0x40 MLOAD DUP1 SWAP2 SUB SWAP1 RETURN JUMPDEST PUSH2 0x4F0 PUSH2 0xAC1 JUMP JUMPDEST PUSH1 0x40 MLOAD PUSH2 0x4FD SWAP2 SWAP1 PUSH2 0x1B89 JUMP JUMPDEST PUSH1 0x40 MLOAD DUP1 SWAP2 SUB SWAP1 RETURN JUMPDEST PUSH2 0x520 PUSH1 0x4 DUP1 CALLDATASIZE SUB DUP2 ADD SWAP1 PUSH2 0x51B SWAP2 SWAP1 PUSH2 0x1AB6 JUMP JUMPDEST PUSH2 0xAE5 JUMP JUMPDEST PUSH1 0x40 MLOAD PUSH2 0x52D SWAP2 SWAP1 PUSH2 0x1B0E JUMP JUMPDEST PUSH1 0x40 MLOAD DUP1 SWAP2 SUB SWAP1 RETURN JUMPDEST PUSH2 0x53E PUSH2 0xB4C JUMP JUMPDEST PUSH1 0x40 MLOAD PUSH2 0x54B SWAP2 SWAP1 PUSH2 0x1B89 JUMP JUMPDEST PUSH1 0x40 MLOAD DUP1 SWAP2 SUB SWAP1 RETURN JUMPDEST PUSH2 0x55C PUSH2 0xB53 JUMP JUMPDEST PUSH1 0x40 MLOAD PUSH2 0x569 SWAP2 SWAP1 PUSH2 0x1B89 JUMP JUMPDEST PUSH1 0x40 MLOAD DUP1 SWAP2 SUB SWAP1 RETURN JUMPDEST PUSH2 0x57A PUSH2 0xB78 JUMP JUMPDEST PUSH1 0x40 MLOAD PUSH2 0x587 SWAP2 SWAP1 PUSH2 0x1B61 JUMP JUMPDEST PUSH1 0x40 MLOAD DUP1 SWAP2 SUB SWAP1 RETURN JUMPDEST PUSH2 0x5AA PUSH1 0x4 DUP1 CALLDATASIZE SUB DUP2 ADD SWAP1 PUSH2 0x5A5 SWAP2 SWAP1 PUSH2 0x1B27 JUMP JUMPDEST PUSH2 0xB7D JUMP JUMPDEST STOP JUMPDEST PUSH2 0x5C6 PUSH1 0x4 DUP1 CALLDATASIZE SUB DUP2 ADD SWAP1 PUSH2 0x5C1 SWAP2 SWAP1 PUSH2 0x1C26 JUMP JUMPDEST PUSH2 0xBDC JUMP JUMPDEST STOP JUMPDEST PUSH2 0x5E2 PUSH1 0x4 DUP1 CALLDATASIZE SUB DUP2 ADD SWAP1 PUSH2 0x5DD SWAP2 SWAP1 PUSH2 0x1B27 JUMP JUMPDEST PUSH2 0xEBB JUMP JUMPDEST PUSH1 0x40 MLOAD PUSH2 0x5EF SWAP2 SWAP1 PUSH2 0x1B0E JUMP JUMPDEST PUSH1 0x40 MLOAD DUP1 SWAP2 SUB SWAP1 RETURN JUMPDEST PUSH2 0x600 PUSH2 0xED8 JUMP JUMPDEST PUSH1 0x40 MLOAD PUSH2 0x60D SWAP2 SWAP1 PUSH2 0x1B61 JUMP JUMPDEST PUSH1 0x40 MLOAD DUP1 SWAP2 SUB SWAP1 RETURN JUMPDEST PUSH2 0x630 PUSH1 0x4 DUP1 CALLDATASIZE SUB DUP2 ADD SWAP1 PUSH2 0x62B SWAP2 SWAP1 PUSH2 0x1C51 JUMP JUMPDEST PUSH2 0xEF1 JUMP JUMPDEST PUSH1 0x40 MLOAD PUSH2 0x63D SWAP2 SWAP1 PUSH2 0x1B61 JUMP JUMPDEST PUSH1 0x40 MLOAD DUP1 SWAP2 SUB SWAP1 RETURN JUMPDEST PUSH2 0x660 PUSH1 0x4 DUP1 CALLDATASIZE SUB DUP2 ADD SWAP1 PUSH2 0x65B SWAP2 SWAP1 PUSH2 0x1B27 JUMP JUMPDEST PUSH2 0xF73 JUMP JUMPDEST STOP JUMPDEST PUSH2 0x67C PUSH1 0x4 DUP1 CALLDATASIZE SUB DUP2 ADD SWAP1 PUSH2 0x677 SWAP2 SWAP1 PUSH2 0x1B27 JUMP JUMPDEST PUSH2 0xFD3 JUMP JUMPDEST STOP JUMPDEST PUSH2 0x698 PUSH1 0x4 DUP1 CALLDATASIZE SUB DUP2 ADD SWAP1 PUSH2 0x693 SWAP2 SWAP1 PUSH2 0x1B27 JUMP JUMPDEST PUSH2 0x1033 JUMP JUMPDEST PUSH1 0x40 MLOAD PUSH2 0x6A5 SWAP2 SWAP1 PUSH2 0x1B0E JUMP JUMPDEST PUSH1 0x40 MLOAD DUP1 SWAP2 SUB SWAP1 RETURN JUMPDEST PUSH2 0x6B6 PUSH2 0x1085 JUMP JUMPDEST PUSH1 0x40 MLOAD PUSH2 0x6C3 SWAP2 SWAP1 PUSH2 0x1B61 JUMP JUMPDEST PUSH1 0x40 MLOAD DUP1 SWAP2 SUB SWAP1 RETURN JUMPDEST PUSH2 0x6E6 PUSH1 0x4 DUP1 CALLDATASIZE SUB DUP2 ADD SWAP1 PUSH2 0x6E1 SWAP2 SWAP1 PUSH2 0x1B27 JUMP JUMPDEST PUSH2 0x1174 JUMP JUMPDEST STOP JUMPDEST PUSH1 0x60 PUSH1 0x3 DUP1 SLOAD PUSH2 0x6F7 SWAP1 PUSH2 0x1CBC JUMP JUMPDEST DUP1 PUSH1 0x1F ADD PUSH1 0x20 DUP1 SWAP2 DIV MUL PUSH1 0x20 ADD PUSH1 0x40 MLOAD SWAP1 DUP2 ADD PUSH1 0x40 MSTORE DUP1 SWAP3 SWAP2 SWAP1 DUP2 DUP2 MSTORE PUSH1 0x20 ADD DUP3 DUP1 SLOAD PUSH2 0x723 SWAP1 PUSH2 0x1CBC JUMP JUMPDEST DUP1 ISZERO PUSH2 0x76E JUMPI DUP1 PUSH1 0x1F LT PUSH2 0x745 JUMPI PUSH2 0x100 DUP1 DUP4 SLOAD DIV MUL DUP4 MSTORE SWAP2 PUSH1 0x20 ADD SWAP2 PUSH2 0x76E JUMP JUMPDEST DUP3 ADD SWAP2 SWAP1 PUSH0 MSTORE PUSH1 0x20 PUSH0 KECCAK256 SWAP1 JUMPDEST DUP2 SLOAD DUP2 MSTORE SWAP1 PUSH1 0x1 ADD SWAP1 PUSH1 0x20 ADD DUP1 DUP4 GT PUSH2 0x751 JUMPI DUP3 SWAP1 SUB PUSH1 0x1F AND DUP3 ADD SWAP2 JUMPDEST POP POP POP POP POP SWAP1 POP SWAP1 JUMP JUMPDEST PUSH0 PUSH0 PUSH2 0x782 PUSH2 0x11F8 JUMP JUMPDEST SWAP1 POP PUSH2 0x78F DUP2 DUP6 DUP6 PUSH2 0x11FF JUMP JUMPDEST PUSH1 0x1 SWAP2 POP POP SWAP3 SWAP2 POP POP JUMP JUMPDEST PUSH0 PUSH2 0x7A4 DUP3 PUSH2 0x908 JUMP JUMPDEST SWAP1 POP SWAP2 SWAP1 POP JUMP JUMPDEST PUSH0 PUSH0 SWAP1 POP SWAP1 JUMP JUMPDEST PUSH0 PUSH0 SWAP1 POP SWAP2 SWAP1 POP JUMP JUMPDEST PUSH0 PUSH1 0x2 SLOAD SWAP1 POP SWAP1 JUMP JUMPDEST PUSH0 DUP2 PUSH16 0xFFFFFFFFFFFFFFFFFFFFFFFFFFFFFFFF AND DUP3 EQ PUSH2 0x819 JUMPI PUSH1 0x40 MLOAD PUSH32 0x8C379A000000000000000000000000000000000000000000000000000000000 DUP2 MSTORE PUSH1 0x4 ADD PUSH2 0x810 SWAP1 PUSH2 0x1D36 JUMP JUMPDEST PUSH1 0x40 MLOAD DUP1 SWAP2 SUB SWAP1 REVERT JUMPDEST PUSH2 0x824 DUP5 DUP5 DUP5 PUSH2 0x1211 JUMP JUMPDEST SWAP1 POP SWAP4 SWAP3 POP POP POP JUMP JUMPDEST PUSH1 0x9 SLOAD DUP2 JUMP JUMPDEST PUSH0 PUSH0 SWAP1 POP SWAP1 JUMP JUMPDEST PUSH2 0x842 PUSH2 0x123F JUMP JUMPDEST PUSH5 0x174876E800 DUP2 PUSH1 0x9 SLOAD PUSH2 0x856 SWAP2 SWAP1 PUSH2 0x1D81 JUMP JUMPDEST GT ISZERO PUSH2 0x897 JUMPI PUSH1 0x40 MLOAD PUSH32 0x8C379A000000000000000000000000000000000000000000000000000000000 DUP2 MSTORE PUSH1 0x4 ADD PUSH2 0x88E SWAP1 PUSH2 0x1DFE JUMP JUMPDEST PUSH1 0x40 MLOAD DUP1 SWAP2 SUB SWAP1 REVERT JUMPDEST PUSH2 0x8A1 DUP3 DUP3 PUSH2 0x12C6 JUMP JUMPDEST DUP1 PUSH1 0x9 PUSH0 DUP3 DUP3 SLOAD PUSH2 0x8B2 SWAP2 SWAP1 PUSH2 0x1D81 JUMP JUMPDEST SWAP3 POP POP DUP2 SWAP1 SSTORE POP POP POP JUMP JUMPDEST PUSH1 0x60 PUSH1 0x40 MLOAD DUP1 PUSH1 0x40 ADD PUSH1 0x40 MSTORE DUP1 PUSH1 0x5 DUP2 MSTORE PUSH1 0x20 ADD PUSH32 0x312E302E30000000000000000000000000000000000000000000000000000000 DUP2 MSTORE POP SWAP1 POP SWAP1 JUMP JUMPDEST PUSH0 PUSH0 SWAP1 POP SWAP1 JUMP JUMPDEST PUSH0 PUSH0 SWAP1 POP SWAP1 JUMP JUMPDEST PUSH0 PUSH0 PUSH0 DUP4 PUSH20 0xFFFFFFFFFFFFFFFFFFFFFFFFFFFFFFFFFFFFFFFF AND PUSH20 0xFFFFFFFFFFFFFFFFFFFFFFFFFFFFFFFFFFFFFFFF AND DUP2 MSTORE PUSH1 0x20 ADD SWAP1 DUP2 MSTORE PUSH1 0x20 ADD PUSH0 KECCAK256 SLOAD SWAP1 POP SWAP2 SWAP1 POP JUMP JUMPDEST PUSH2 0x955 PUSH2 0x123F JUMP JUMPDEST PUSH2 0x95E PUSH0 PUSH2 0x1345 JUMP JUMPDEST JUMP JUMPDEST PUSH2 0x968 PUSH2 0x123F JUMP JUMPDEST PUSH0 PUSH1 0x6 PUSH0 DUP4 PUSH20 0xFFFFFFFFFFFFFFFFFFFFFFFFFFFFFFFFFFFFFFFF AND PUSH20 0xFFFFFFFFFFFFFFFFFFFFFFFFFFFFFFFFFFFFFFFF AND DUP2 MSTORE PUSH1 0x20 ADD SWAP1 DUP2 MSTORE PUSH1 0x20 ADD PUSH0 KECCAK256 PUSH0 PUSH2 0x100 EXP DUP2 SLOAD DUP2 PUSH1 0xFF MUL NOT AND SWAP1 DUP4 ISZERO ISZERO MUL OR SWAP1 SSTORE POP POP JUMP JUMPDEST PUSH0 PUSH1 0x5 PUSH0 SWAP1 SLOAD SWAP1 PUSH2 0x100 EXP SWAP1 DIV PUSH20 0xFFFFFFFFFFFFFFFFFFFFFFFFFFFFFFFFFFFFFFFF AND SWAP1 POP SWAP1 JUMP JUMPDEST PUSH5 0x174876E800 DUP2 JUMP JUMPDEST PUSH1 0x60 PUSH1 0x4 DUP1 SLOAD PUSH2 0x9FF SWAP1 PUSH2 0x1CBC JUMP JUMPDEST DUP1 PUSH1 0x1F ADD PUSH1 0x20 DUP1 SWAP2 DIV MUL PUSH1 0x20 ADD PUSH1 0x40 MLOAD SWAP1 DUP2 ADD PUSH1 0x40 MSTORE DUP1 SWAP3 SWAP2 SWAP1 DUP2 DUP2 MSTORE PUSH1 0x20 ADD DUP3 DUP1 SLOAD PUSH2 0xA2B SWAP1 PUSH2 0x1CBC JUMP JUMPDEST DUP1 ISZERO PUSH2 0xA76 JUMPI DUP1 PUSH1 0x1F LT PUSH2 0xA4D JUMPI PUSH2 0x100 DUP1 DUP4 SLOAD DIV MUL DUP4 MSTORE SWAP2 PUSH1 0x20 ADD SWAP2 PUSH2 0xA76 JUMP JUMPDEST DUP3 ADD SWAP2 SWAP1 PUSH0 MSTORE PUSH1 0x20 PUSH0 KECCAK256 SWAP1 JUMPDEST DUP2 SLOAD DUP2 MSTORE SWAP1 PUSH1 0x1 ADD SWAP1 PUSH1 0x20 ADD DUP1 DUP4 GT PUSH2 0xA59 JUMPI DUP3 SWAP1 SUB PUSH1 0x1F AND DUP3 ADD SWAP2 JUMPDEST POP POP POP POP POP SWAP1 POP SWAP1 JUMP JUMPDEST PUSH1 0x6 PUSH1 0x20 MSTORE DUP1 PUSH0 MSTORE PUSH1 0x40 PUSH0 KECCAK256 PUSH0 SWAP2 POP SLOAD SWAP1 PUSH2 0x100 EXP SWAP1 DIV PUSH1 0xFF AND DUP2 JUMP JUMPDEST PUSH32 0x0 DUP2 JUMP JUMPDEST PUSH32 0x0 DUP2 JUMP JUMPDEST PUSH0 DUP2 PUSH16 0xFFFFFFFFFFFFFFFFFFFFFFFFFFFFFFFF AND DUP3 EQ PUSH2 0xB3A JUMPI PUSH1 0x40 MLOAD PUSH32 0x8C379A000000000000000000000000000000000000000000000000000000000 DUP2 MSTORE PUSH1 0x4 ADD PUSH2 0xB31 SWAP1 PUSH2 0x1D36 JUMP JUMPDEST PUSH1 0x40 MLOAD DUP1 SWAP2 SUB SWAP1 REVERT JUMPDEST PUSH2 0xB44 DUP4 DUP4 PUSH2 0x1408 JUMP JUMPDEST SWAP1 POP SWAP3 SWAP2 POP POP JUMP JUMPDEST PUSH0 ADDRESS SWAP1 POP SWAP1 JUMP JUMPDEST PUSH1 0x8 PUSH0 SWAP1 SLOAD SWAP1 PUSH2 0x100 EXP SWAP1 DIV PUSH20 0xFFFFFFFFFFFFFFFFFFFFFFFFFFFFFFFFFFFFFFFF AND DUP2 JUMP JUMPDEST PUSH1 0x14 DUP2 JUMP JUMPDEST PUSH2 0xB85 PUSH2 0x123F JUMP JUMPDEST PUSH0 PUSH1 0x7 PUSH0 DUP4 PUSH20 0xFFFFFFFFFFFFFFFFFFFFFFFFFFFFFFFFFFFFFFFF AND PUSH20 0xFFFFFFFFFFFFFFFFFFFFFFFFFFFFFFFFFFFFFFFF AND DUP2 MSTORE PUSH1 0x20 ADD SWAP1 DUP2 MSTORE PUSH1 0x20 ADD PUSH0 KECCAK256 PUSH0 PUSH2 0x100 EXP DUP2 SLOAD DUP2 PUSH1 0xFF MUL NOT AND SWAP1 DUP4 ISZERO ISZERO MUL OR SWAP1 SSTORE POP POP JUMP JUMPDEST PUSH0 DUP2 GT PUSH2 0xC1E JUMPI PUSH1 0x40 MLOAD PUSH32 0x8C379A000000000000000000000000000000000000000000000000000000000 DUP2 MSTORE PUSH1 0x4 ADD PUSH2 0xC15 SWAP1 PUSH2 0x1E66 JUMP JUMPDEST PUSH1 0x40 MLOAD DUP1 SWAP2 SUB SWAP1 REVERT JUMPDEST PUSH0 PUSH32 0x0 SWAP1 POP DUP2 DUP2 PUSH20 0xFFFFFFFFFFFFFFFFFFFFFFFFFFFFFFFFFFFFFFFF AND PUSH4 0xDD62ED3E CALLER ADDRESS PUSH1 0x40 MLOAD DUP4 PUSH4 0xFFFFFFFF AND PUSH1 0xE0 SHL DUP2 MSTORE PUSH1 0x4 ADD PUSH2 0xC7E SWAP3 SWAP2 SWAP1 PUSH2 0x1E84 JUMP JUMPDEST PUSH1 0x20 PUSH1 0x40 MLOAD DUP1 DUP4 SUB DUP2 DUP7 GAS STATICCALL ISZERO DUP1 ISZERO PUSH2 0xC99 JUMPI RETURNDATASIZE PUSH0 PUSH0 RETURNDATACOPY RETURNDATASIZE PUSH0 REVERT JUMPDEST POP POP POP POP PUSH1 0x40 MLOAD RETURNDATASIZE PUSH1 0x1F NOT PUSH1 0x1F DUP3 ADD AND DUP3 ADD DUP1 PUSH1 0x40 MSTORE POP DUP2 ADD SWAP1 PUSH2 0xCBD SWAP2 SWAP1 PUSH2 0x1EBF JUMP JUMPDEST LT ISZERO PUSH2 0xCFE JUMPI PUSH1 0x40 MLOAD PUSH32 0x8C379A000000000000000000000000000000000000000000000000000000000 DUP2 MSTORE PUSH1 0x4 ADD PUSH2 0xCF5 SWAP1 PUSH2 0x1F34 JUMP JUMPDEST PUSH1 0x40 MLOAD DUP1 SWAP2 SUB SWAP1 REVERT JUMPDEST PUSH0 DUP2 PUSH20 0xFFFFFFFFFFFFFFFFFFFFFFFFFFFFFFFFFFFFFFFF AND PUSH4 0x23B872DD CALLER PUSH32 0x0 DUP7 PUSH1 0x40 MLOAD DUP5 PUSH4 0xFFFFFFFF AND PUSH1 0xE0 SHL DUP2 MSTORE PUSH1 0x4 ADD PUSH2 0xD5C SWAP4 SWAP3 SWAP2 SWAP1 PUSH2 0x1F52 JUMP JUMPDEST PUSH1 0x20 PUSH1 0x40 MLOAD DUP1 DUP4 SUB DUP2 PUSH0 DUP8 GAS CALL ISZERO DUP1 ISZERO PUSH2 0xD78 JUMPI RETURNDATASIZE PUSH0 PUSH0 RETURNDATACOPY RETURNDATASIZE PUSH0 REVERT JUMPDEST POP POP POP POP PUSH1 0x40 MLOAD RETURNDATASIZE PUSH1 0x1F NOT PUSH1 0x1F DUP3 ADD AND DUP3 ADD DUP1 PUSH1 0x40 MSTORE POP DUP2 ADD SWAP1 PUSH2 0xD9C SWAP2 SWAP1 PUSH2 0x1FB1 JUMP JUMPDEST SWAP1 POP DUP1 PUSH2 0xDDE JUMPI PUSH1 0x40 MLOAD PUSH32 0x8C379A000000000000000000000000000000000000000000000000000000000 DUP2 MSTORE PUSH1 0x4 ADD PUSH2 0xDD5 SWAP1 PUSH2 0x2026 JUMP JUMPDEST PUSH1 0x40 MLOAD DUP1 SWAP2 SUB SWAP1 REVERT JUMPDEST PUSH0 PUSH1 0x14 DUP5 PUSH2 0xDEC SWAP2 SWAP1 PUSH2 0x2044 JUMP JUMPDEST SWAP1 POP PUSH2 0xDF8 CALLER DUP3 PUSH2 0x12C6 JUMP JUMPDEST DUP1 PUSH1 0x9 PUSH0 DUP3 DUP3 SLOAD PUSH2 0xE09 SWAP2 SWAP1 PUSH2 0x1D81 JUMP JUMPDEST SWAP3 POP POP DUP2 SWAP1 SSTORE POP PUSH32 0x0 PUSH20 0xFFFFFFFFFFFFFFFFFFFFFFFFFFFFFFFFFFFFFFFF AND PUSH32 0x0 PUSH20 0xFFFFFFFFFFFFFFFFFFFFFFFFFFFFFFFFFFFFFFFF AND PUSH32 0xC95D558E25335222B51E6424166172914E7CE4404A9647D3631EF320294081FD DUP7 PUSH1 0x40 MLOAD PUSH2 0xEAD SWAP2 SWAP1 PUSH2 0x1B61 JUMP JUMPDEST PUSH1 0x40 MLOAD DUP1 SWAP2 SUB SWAP1 LOG3 POP POP POP POP JUMP JUMPDEST PUSH1 0x7 PUSH1 0x20 MSTORE DUP1 PUSH0 MSTORE PUSH1 0x40 PUSH0 KECCAK256 PUSH0 SWAP2 POP SLOAD SWAP1 PUSH2 0x100 EXP SWAP1 DIV PUSH1 0xFF AND DUP2 JUMP JUMPDEST PUSH0 PUSH1 0x9 SLOAD PUSH5 0x174876E800 PUSH2 0xEEC SWAP2 SWAP1 PUSH2 0x2085 JUMP JUMPDEST SWAP1 POP SWAP1 JUMP JUMPDEST PUSH0 PUSH1 0x1 PUSH0 DUP5 PUSH20 0xFFFFFFFFFFFFFFFFFFFFFFFFFFFFFFFFFFFFFFFF AND PUSH20 0xFFFFFFFFFFFFFFFFFFFFFFFFFFFFFFFFFFFFFFFF AND DUP2 MSTORE PUSH1 0x20 ADD SWAP1 DUP2 MSTORE PUSH1 0x20 ADD PUSH0 KECCAK256 PUSH0 DUP4 PUSH20 0xFFFFFFFFFFFFFFFFFFFFFFFFFFFFFFFFFFFFFFFF AND PUSH20 0xFFFFFFFFFFFFFFFFFFFFFFFFFFFFFFFFFFFFFFFF AND DUP2 MSTORE PUSH1 0x20 ADD SWAP1 DUP2 MSTORE PUSH1 0x20 ADD PUSH0 KECCAK256 SLOAD SWAP1 POP SWAP3 SWAP2 POP POP JUMP JUMPDEST PUSH2 0xF7B PUSH2 0x123F JUMP JUMPDEST PUSH1 0x1 PUSH1 0x7 PUSH0 DUP4 PUSH20 0xFFFFFFFFFFFFFFFFFFFFFFFFFFFFFFFFFFFFFFFF AND PUSH20 0xFFFFFFFFFFFFFFFFFFFFFFFFFFFFFFFFFFFFFFFF AND DUP2 MSTORE PUSH1 0x20 ADD SWAP1 DUP2 MSTORE PUSH1 0x20 ADD PUSH0 KECCAK256 PUSH0 PUSH2 0x100 EXP DUP2 SLOAD DUP2 PUSH1 0xFF MUL NOT AND SWAP1 DUP4 ISZERO ISZERO MUL OR SWAP1 SSTORE POP POP JUMP JUMPDEST PUSH2 0xFDB PUSH2 0x123F JUMP JUMPDEST PUSH1 0x1 PUSH1 0x6 PUSH0 DUP4 PUSH20 0xFFFFFFFFFFFFFFFFFFFFFFFFFFFFFFFFFFFFFFFF AND PUSH20 0xFFFFFFFFFFFFFFFFFFFFFFFFFFFFFFFFFFFFFFFF AND DUP2 MSTORE PUSH1 0x20 ADD SWAP1 DUP2 MSTORE PUSH1 0x20 ADD PUSH0 KECCAK256 PUSH0 PUSH2 0x100 EXP DUP2 SLOAD DUP2 PUSH1 0xFF MUL NOT AND SWAP1 DUP4 ISZERO ISZERO MUL OR SWAP1 SSTORE POP POP JUMP JUMPDEST PUSH0 PUSH1 0x7 PUSH0 DUP4 PUSH20 0xFFFFFFFFFFFFFFFFFFFFFFFFFFFFFFFFFFFFFFFF AND PUSH20 0xFFFFFFFFFFFFFFFFFFFFFFFFFFFFFFFFFFFFFFFF AND DUP2 MSTORE PUSH1 0x20 ADD SWAP1 DUP2 MSTORE PUSH1 0x20 ADD PUSH0 KECCAK256 PUSH0 SWAP1 SLOAD SWAP1 PUSH2 0x100 EXP SWAP1 DIV PUSH1 0xFF AND SWAP1 POP SWAP2 SWAP1 POP JUMP JUMPDEST PUSH0 PUSH0 PUSH1 0x8 PUSH0 SWAP1 SLOAD SWAP1 PUSH2 0x100 EXP SWAP1 DIV PUSH20 0xFFFFFFFFFFFFFFFFFFFFFFFFFFFFFFFFFFFFFFFF AND SWAP1 POP PUSH0 DUP2 PUSH20 0xFFFFFFFFFFFFFFFFFFFFFFFFFFFFFFFFFFFFFFFF AND PUSH4 0x3850C7BD PUSH1 0x40 MLOAD DUP2 PUSH4 0xFFFFFFFF AND PUSH1 0xE0 SHL DUP2 MSTORE PUSH1 0x4 ADD PUSH1 0xE0 PUSH1 0x40 MLOAD DUP1 DUP4 SUB DUP2 DUP7 GAS STATICCALL ISZERO DUP1 ISZERO PUSH2 0x10F5 JUMPI RETURNDATASIZE PUSH0 PUSH0 RETURNDATACOPY RETURNDATASIZE PUSH0 REVERT JUMPDEST POP POP POP POP PUSH1 0x40 MLOAD RETURNDATASIZE PUSH1 0x1F NOT PUSH1 0x1F DUP3 ADD AND DUP3 ADD DUP1 PUSH1 0x40 MSTORE POP DUP2 ADD SWAP1 PUSH2 0x1119 SWAP2 SWAP1 PUSH2 0x2179 JUMP JUMPDEST POP POP POP POP POP POP SWAP1 POP PUSH0 PUSH25 0x1000000000000000000000000000000000000000000000000 PUSH1 0x2 DUP4 PUSH20 0xFFFFFFFFFFFFFFFFFFFFFFFFFFFFFFFFFFFFFFFF AND PUSH2 0x115F SWAP2 SWAP1 PUSH2 0x2345 JUMP JUMPDEST PUSH2 0x1169 SWAP2 SWAP1 PUSH2 0x23BC JUMP JUMPDEST SWAP1 POP DUP1 SWAP4 POP POP POP POP SWAP1 JUMP JUMPDEST PUSH2 0x117C PUSH2 0x123F JUMP JUMPDEST PUSH0 PUSH20 0xFFFFFFFFFFFFFFFFFFFFFFFFFFFFFFFFFFFFFFFF AND DUP2 PUSH20 0xFFFFFFFFFFFFFFFFFFFFFFFFFFFFFFFFFFFFFFFF AND SUB PUSH2 0x11EC JUMPI PUSH0 PUSH1 0x40 MLOAD PUSH32 0x1E4FBDF700000000000000000000000000000000000000000000000000000000 DUP2 MSTORE PUSH1 0x4 ADD PUSH2 0x11E3 SWAP2 SWAP1 PUSH2 0x1B89 JUMP JUMPDEST PUSH1 0x40 MLOAD DUP1 SWAP2 SUB SWAP1 REVERT JUMPDEST PUSH2 0x11F5 DUP2 PUSH2 0x1345 JUMP JUMPDEST POP JUMP JUMPDEST PUSH0 CALLER SWAP1 POP SWAP1 JUMP JUMPDEST PUSH2 0x120C DUP4 DUP4 DUP4 PUSH1 0x1 PUSH2 0x142A JUMP JUMPDEST POP POP POP JUMP JUMPDEST PUSH0 PUSH0 PUSH2 0x121B PUSH2 0x11F8 JUMP JUMPDEST SWAP1 POP PUSH2 0x1228 DUP6 DUP3 DUP6 PUSH2 0x15F9 JUMP JUMPDEST PUSH2 0x1233 DUP6 DUP6 DUP6 PUSH2 0x168C JUMP JUMPDEST PUSH1 0x1 SWAP2 POP POP SWAP4 SWAP3 POP POP POP JUMP JUMPDEST PUSH2 0x1247 PUSH2 0x11F8 JUMP JUMPDEST PUSH20 0xFFFFFFFFFFFFFFFFFFFFFFFFFFFFFFFFFFFFFFFF AND PUSH2 0x1265 PUSH2 0x9BF JUMP JUMPDEST PUSH20 0xFFFFFFFFFFFFFFFFFFFFFFFFFFFFFFFFFFFFFFFF AND EQ PUSH2 0x12C4 JUMPI PUSH2 0x1288 PUSH2 0x11F8 JUMP JUMPDEST PUSH1 0x40 MLOAD PUSH32 0x118CDAA700000000000000000000000000000000000000000000000000000000 DUP2 MSTORE PUSH1 0x4 ADD PUSH2 0x12BB SWAP2 SWAP1 PUSH2 0x1B89 JUMP JUMPDEST PUSH1 0x40 MLOAD DUP1 SWAP2 SUB SWAP1 REVERT JUMPDEST JUMP JUMPDEST PUSH0 PUSH20 0xFFFFFFFFFFFFFFFFFFFFFFFFFFFFFFFFFFFFFFFF AND DUP3 PUSH20 0xFFFFFFFFFFFFFFFFFFFFFFFFFFFFFFFFFFFFFFFF AND SUB PUSH2 0x1336 JUMPI PUSH0 PUSH1 0x40 MLOAD PUSH32 0xEC442F0500000000000000000000000000000000000000000000000000000000 DUP2 MSTORE PUSH1 0x4 ADD PUSH2 0x132D SWAP2 SWAP1 PUSH2 0x1B89 JUMP JUMPDEST PUSH1 0x40 MLOAD DUP1 SWAP2 SUB SWAP1 REVERT JUMPDEST PUSH2 0x1341 PUSH0 DUP4 DUP4 PUSH2 0x177C JUMP JUMPDEST POP POP JUMP JUMPDEST PUSH0 PUSH1 0x5 PUSH0 SWAP1 SLOAD SWAP1 PUSH2 0x100 EXP SWAP1 DIV PUSH20 0xFFFFFFFFFFFFFFFFFFFFFFFFFFFFFFFFFFFFFFFF AND SWAP1 POP DUP2 PUSH1 0x5 PUSH0 PUSH2 0x100 EXP DUP2 SLOAD DUP2 PUSH20 0xFFFFFFFFFFFFFFFFFFFFFFFFFFFFFFFFFFFFFFFF MUL NOT AND SWAP1 DUP4 PUSH20 0xFFFFFFFFFFFFFFFFFFFFFFFFFFFFFFFFFFFFFFFF AND MUL OR SWAP1 SSTORE POP DUP2 PUSH20 0xFFFFFFFFFFFFFFFFFFFFFFFFFFFFFFFFFFFFFFFF AND DUP2 PUSH20 0xFFFFFFFFFFFFFFFFFFFFFFFFFFFFFFFFFFFFFFFF AND PUSH32 0x8BE0079C531659141344CD1FD0A4F28419497F9722A3DAAFE3B4186F6B6457E0 PUSH1 0x40 MLOAD PUSH1 0x40 MLOAD DUP1 SWAP2 SUB SWAP1 LOG3 POP POP JUMP JUMPDEST PUSH0 PUSH0 PUSH2 0x1412 PUSH2 0x11F8 JUMP JUMPDEST SWAP1 POP PUSH2 0x141F DUP2 DUP6 DUP6 PUSH2 0x168C JUMP JUMPDEST PUSH1 0x1 SWAP2 POP POP SWAP3 SWAP2 POP POP JUMP JUMPDEST PUSH0 PUSH20 0xFFFFFFFFFFFFFFFFFFFFFFFFFFFFFFFFFFFFFFFF AND DUP5 PUSH20 0xFFFFFFFFFFFFFFFFFFFFFFFFFFFFFFFFFFFFFFFF AND SUB PUSH2 0x149A JUMPI PUSH0 PUSH1 0x40 MLOAD PUSH32 0xE602DF0500000000000000000000000000000000000000000000000000000000 DUP2 MSTORE PUSH1 0x4 ADD PUSH2 0x1491 SWAP2 SWAP1 PUSH2 0x1B89 JUMP JUMPDEST PUSH1 0x40 MLOAD DUP1 SWAP2 SUB SWAP1 REVERT JUMPDEST PUSH0 PUSH20 0xFFFFFFFFFFFFFFFFFFFFFFFFFFFFFFFFFFFFFFFF AND DUP4 PUSH20 0xFFFFFFFFFFFFFFFFFFFFFFFFFFFFFFFFFFFFFFFF AND SUB PUSH2 0x150A JUMPI PUSH0 PUSH1 0x40 MLOAD PUSH32 0x94280D6200000000000000000000000000000000000000000000000000000000 DUP2 MSTORE PUSH1 0x4 ADD PUSH2 0x1501 SWAP2 SWAP1 PUSH2 0x1B89 JUMP JUMPDEST PUSH1 0x40 MLOAD DUP1 SWAP2 SUB SWAP1 REVERT JUMPDEST DUP2 PUSH1 0x1 PUSH0 DUP7 PUSH20 0xFFFFFFFFFFFFFFFFFFFFFFFFFFFFFFFFFFFFFFFF AND PUSH20 0xFFFFFFFFFFFFFFFFFFFFFFFFFFFFFFFFFFFFFFFF AND DUP2 MSTORE PUSH1 0x20 ADD SWAP1 DUP2 MSTORE PUSH1 0x20 ADD PUSH0 KECCAK256 PUSH0 DUP6 PUSH20 0xFFFFFFFFFFFFFFFFFFFFFFFFFFFFFFFFFFFFFFFF AND PUSH20 0xFFFFFFFFFFFFFFFFFFFFFFFFFFFFFFFFFFFFFFFF AND DUP2 MSTORE PUSH1 0x20 ADD SWAP1 DUP2 MSTORE PUSH1 0x20 ADD PUSH0 KECCAK256 DUP2 SWAP1 SSTORE POP DUP1 ISZERO PUSH2 0x15F3 JUMPI DUP3 PUSH20 0xFFFFFFFFFFFFFFFFFFFFFFFFFFFFFFFFFFFFFFFF AND DUP5 PUSH20 0xFFFFFFFFFFFFFFFFFFFFFFFFFFFFFFFFFFFFFFFF AND PUSH32 0x8C5BE1E5EBEC7D5BD14F71427D1E84F3DD0314C0F7B2291E5B200AC8C7C3B925 DUP5 PUSH1 0x40 MLOAD PUSH2 0x15EA SWAP2 SWAP1 PUSH2 0x1B61 JUMP JUMPDEST PUSH1 0x40 MLOAD DUP1 SWAP2 SUB SWAP1 LOG3 JUMPDEST POP POP POP POP JUMP JUMPDEST PUSH0 PUSH2 0x1604 DUP5 DUP5 PUSH2 0xEF1 JUMP JUMPDEST SWAP1 POP PUSH32 0xFFFFFFFFFFFFFFFFFFFFFFFFFFFFFFFFFFFFFFFFFFFFFFFFFFFFFFFFFFFFFFFF DUP2 LT ISZERO PUSH2 0x1686 JUMPI DUP2 DUP2 LT ISZERO PUSH2 0x1677 JUMPI DUP3 DUP2 DUP4 PUSH1 0x40 MLOAD PUSH32 0xFB8F41B200000000000000000000000000000000000000000000000000000000 DUP2 MSTORE PUSH1 0x4 ADD PUSH2 0x166E SWAP4 SWAP3 SWAP2 SWAP1 PUSH2 0x23EC JUMP JUMPDEST PUSH1 0x40 MLOAD DUP1 SWAP2 SUB SWAP1 REVERT JUMPDEST PUSH2 0x1685 DUP5 DUP5 DUP5 DUP5 SUB PUSH0 PUSH2 0x142A JUMP JUMPDEST JUMPDEST POP POP POP POP JUMP JUMPDEST PUSH0 PUSH20 0xFFFFFFFFFFFFFFFFFFFFFFFFFFFFFFFFFFFFFFFF AND DUP4 PUSH20 0xFFFFFFFFFFFFFFFFFFFFFFFFFFFFFFFFFFFFFFFF AND SUB PUSH2 0x16FC JUMPI PUSH0 PUSH1 0x40 MLOAD PUSH32 0x96C6FD1E00000000000000000000000000000000000000000000000000000000 DUP2 MSTORE PUSH1 0x4 ADD PUSH2 0x16F3 SWAP2 SWAP1 PUSH2 0x1B89 JUMP JUMPDEST PUSH1 0x40 MLOAD DUP1 SWAP2 SUB SWAP1 REVERT JUMPDEST PUSH0 PUSH20 0xFFFFFFFFFFFFFFFFFFFFFFFFFFFFFFFFFFFFFFFF AND DUP3 PUSH20 0xFFFFFFFFFFFFFFFFFFFFFFFFFFFFFFFFFFFFFFFF AND SUB PUSH2 0x176C JUMPI PUSH0 PUSH1 0x40 MLOAD PUSH32 0xEC442F0500000000000000000000000000000000000000000000000000000000 DUP2 MSTORE PUSH1 0x4 ADD PUSH2 0x1763 SWAP2 SWAP1 PUSH2 0x1B89 JUMP JUMPDEST PUSH1 0x40 MLOAD DUP1 SWAP2 SUB SWAP1 REVERT JUMPDEST PUSH2 0x1777 DUP4 DUP4 DUP4 PUSH2 0x177C JUMP JUMPDEST POP POP POP JUMP JUMPDEST PUSH0 PUSH20 0xFFFFFFFFFFFFFFFFFFFFFFFFFFFFFFFFFFFFFFFF AND DUP4 PUSH20 0xFFFFFFFFFFFFFFFFFFFFFFFFFFFFFFFFFFFFFFFF AND SUB PUSH2 0x17CC JUMPI DUP1 PUSH1 0x2 PUSH0 DUP3 DUP3 SLOAD PUSH2 0x17C0 SWAP2 SWAP1 PUSH2 0x1D81 JUMP JUMPDEST SWAP3 POP POP DUP2 SWAP1 SSTORE POP PUSH2 0x189A JUMP JUMPDEST PUSH0 PUSH0 PUSH0 DUP6 PUSH20 0xFFFFFFFFFFFFFFFFFFFFFFFFFFFFFFFFFFFFFFFF AND PUSH20 0xFFFFFFFFFFFFFFFFFFFFFFFFFFFFFFFFFFFFFFFF AND DUP2 MSTORE PUSH1 0x20 ADD SWAP1 DUP2 MSTORE PUSH1 0x20 ADD PUSH0 KECCAK256 SLOAD SWAP1 POP DUP2 DUP2 LT ISZERO PUSH2 0x1855 JUMPI DUP4 DUP2 DUP4 PUSH1 0x40 MLOAD PUSH32 0xE450D38C00000000000000000000000000000000000000000000000000000000 DUP2 MSTORE PUSH1 0x4 ADD PUSH2 0x184C SWAP4 SWAP3 SWAP2 SWAP1 PUSH2 0x23EC JUMP JUMPDEST PUSH1 0x40 MLOAD DUP1 SWAP2 SUB SWAP1 REVERT JUMPDEST DUP2 DUP2 SUB PUSH0 PUSH0 DUP7 PUSH20 0xFFFFFFFFFFFFFFFFFFFFFFFFFFFFFFFFFFFFFFFF AND PUSH20 0xFFFFFFFFFFFFFFFFFFFFFFFFFFFFFFFFFFFFFFFF AND DUP2 MSTORE PUSH1 0x20 ADD SWAP1 DUP2 MSTORE PUSH1 0x20 ADD PUSH0 KECCAK256 DUP2 SWAP1 SSTORE POP POP JUMPDEST PUSH0 PUSH20 0xFFFFFFFFFFFFFFFFFFFFFFFFFFFFFFFFFFFFFFFF AND DUP3 PUSH20 0xFFFFFFFFFFFFFFFFFFFFFFFFFFFFFFFFFFFFFFFF AND SUB PUSH2 0x18E1 JUMPI DUP1 PUSH1 0x2 PUSH0 DUP3 DUP3 SLOAD SUB SWAP3 POP POP DUP2 SWAP1 SSTORE POP PUSH2 0x192B JUMP JUMPDEST DUP1 PUSH0 PUSH0 DUP5 PUSH20 0xFFFFFFFFFFFFFFFFFFFFFFFFFFFFFFFFFFFFFFFF AND PUSH20 0xFFFFFFFFFFFFFFFFFFFFFFFFFFFFFFFFFFFFFFFF AND DUP2 MSTORE PUSH1 0x20 ADD SWAP1 DUP2 MSTORE PUSH1 0x20 ADD PUSH0 KECCAK256 PUSH0 DUP3 DUP3 SLOAD ADD SWAP3 POP POP DUP2 SWAP1 SSTORE POP JUMPDEST DUP2 PUSH20 0xFFFFFFFFFFFFFFFFFFFFFFFFFFFFFFFFFFFFFFFF AND DUP4 PUSH20 0xFFFFFFFFFFFFFFFFFFFFFFFFFFFFFFFFFFFFFFFF AND PUSH32 0xDDF252AD1BE2C89B69C2B068FC378DAA952BA7F163C4A11628F55A4DF523B3EF DUP4 PUSH1 0x40 MLOAD PUSH2 0x1988 SWAP2 SWAP1 PUSH2 0x1B61 JUMP JUMPDEST PUSH1 0x40 MLOAD DUP1 SWAP2 SUB SWAP1 LOG3 POP POP POP JUMP JUMPDEST PUSH0 DUP2 MLOAD SWAP1 POP SWAP2 SWAP1 POP JUMP JUMPDEST PUSH0 DUP3 DUP3 MSTORE PUSH1 0x20 DUP3 ADD SWAP1 POP SWAP3 SWAP2 POP POP JUMP JUMPDEST DUP3 DUP2 DUP4 MCOPY PUSH0 DUP4 DUP4 ADD MSTORE POP POP POP JUMP JUMPDEST PUSH0 PUSH1 0x1F NOT PUSH1 0x1F DUP4 ADD AND SWAP1 POP SWAP2 SWAP1 POP JUMP JUMPDEST PUSH0 PUSH2 0x19D7 DUP3 PUSH2 0x1995 JUMP JUMPDEST PUSH2 0x19E1 DUP2 DUP6 PUSH2 0x199F JUMP JUMPDEST SWAP4 POP PUSH2 0x19F1 DUP2 DUP6 PUSH1 0x20 DUP7 ADD PUSH2 0x19AF JUMP JUMPDEST PUSH2 0x19FA DUP2 PUSH2 0x19BD JUMP JUMPDEST DUP5 ADD SWAP2 POP POP SWAP3 SWAP2 POP POP JUMP JUMPDEST PUSH0 PUSH1 0x20 DUP3 ADD SWAP1 POP DUP2 DUP2 SUB PUSH0 DUP4 ADD MSTORE PUSH2 0x1A1D DUP2 DUP5 PUSH2 0x19CD JUMP JUMPDEST SWAP1 POP SWAP3 SWAP2 POP POP JUMP JUMPDEST PUSH0 PUSH0 REVERT JUMPDEST PUSH0 PUSH20 0xFFFFFFFFFFFFFFFFFFFFFFFFFFFFFFFFFFFFFFFF DUP3 AND SWAP1 POP SWAP2 SWAP1 POP JUMP JUMPDEST PUSH0 PUSH2 0x1A52 DUP3 PUSH2 0x1A29 JUMP JUMPDEST SWAP1 POP SWAP2 SWAP1 POP JUMP JUMPDEST PUSH2 0x1A62 DUP2 PUSH2 0x1A48 JUMP JUMPDEST DUP2 EQ PUSH2 0x1A6C JUMPI PUSH0 PUSH0 REVERT JUMPDEST POP JUMP JUMPDEST PUSH0 DUP2 CALLDATALOAD SWAP1 POP PUSH2 0x1A7D DUP2 PUSH2 0x1A59 JUMP JUMPDEST SWAP3 SWAP2 POP POP JUMP JUMPDEST PUSH0 DUP2 SWAP1 POP SWAP2 SWAP1 POP JUMP JUMPDEST PUSH2 0x1A95 DUP2 PUSH2 0x1A83 JUMP JUMPDEST DUP2 EQ PUSH2 0x1A9F JUMPI PUSH0 PUSH0 REVERT JUMPDEST POP JUMP JUMPDEST PUSH0 DUP2 CALLDATALOAD SWAP1 POP PUSH2 0x1AB0 DUP2 PUSH2 0x1A8C JUMP JUMPDEST SWAP3 SWAP2 POP POP JUMP JUMPDEST PUSH0 PUSH0 PUSH1 0x40 DUP4 DUP6 SUB SLT ISZERO PUSH2 0x1ACC JUMPI PUSH2 0x1ACB PUSH2 0x1A25 JUMP JUMPDEST JUMPDEST PUSH0 PUSH2 0x1AD9 DUP6 DUP3 DUP7 ADD PUSH2 0x1A6F JUMP JUMPDEST SWAP3 POP POP PUSH1 0x20 PUSH2 0x1AEA DUP6 DUP3 DUP7 ADD PUSH2 0x1AA2 JUMP JUMPDEST SWAP2 POP POP SWAP3 POP SWAP3 SWAP1 POP JUMP JUMPDEST PUSH0 DUP2 ISZERO ISZERO SWAP1 POP SWAP2 SWAP1 POP JUMP JUMPDEST PUSH2 0x1B08 DUP2 PUSH2 0x1AF4 JUMP JUMPDEST DUP3 MSTORE POP POP JUMP JUMPDEST PUSH0 PUSH1 0x20 DUP3 ADD SWAP1 POP PUSH2 0x1B21 PUSH0 DUP4 ADD DUP5 PUSH2 0x1AFF JUMP JUMPDEST SWAP3 SWAP2 POP POP JUMP JUMPDEST PUSH0 PUSH1 0x20 DUP3 DUP5 SUB SLT ISZERO PUSH2 0x1B3C JUMPI PUSH2 0x1B3B PUSH2 0x1A25 JUMP JUMPDEST JUMPDEST PUSH0 PUSH2 0x1B49 DUP5 DUP3 DUP6 ADD PUSH2 0x1A6F JUMP JUMPDEST SWAP2 POP POP SWAP3 SWAP2 POP POP JUMP JUMPDEST PUSH2 0x1B5B DUP2 PUSH2 0x1A83 JUMP JUMPDEST DUP3 MSTORE POP POP JUMP JUMPDEST PUSH0 PUSH1 0x20 DUP3 ADD SWAP1 POP PUSH2 0x1B74 PUSH0 DUP4 ADD DUP5 PUSH2 0x1B52 JUMP JUMPDEST SWAP3 SWAP2 POP POP JUMP JUMPDEST PUSH2 0x1B83 DUP2 PUSH2 0x1A48 JUMP JUMPDEST DUP3 MSTORE POP POP JUMP JUMPDEST PUSH0 PUSH1 0x20 DUP3 ADD SWAP1 POP PUSH2 0x1B9C PUSH0 DUP4 ADD DUP5 PUSH2 0x1B7A JUMP JUMPDEST SWAP3 SWAP2 POP POP JUMP JUMPDEST PUSH0 PUSH0 PUSH0 PUSH1 0x60 DUP5 DUP7 SUB SLT ISZERO PUSH2 0x1BB9 JUMPI PUSH2 0x1BB8 PUSH2 0x1A25 JUMP JUMPDEST JUMPDEST PUSH0 PUSH2 0x1BC6 DUP7 DUP3 DUP8 ADD PUSH2 0x1A6F JUMP JUMPDEST SWAP4 POP POP PUSH1 0x20 PUSH2 0x1BD7 DUP7 DUP3 DUP8 ADD PUSH2 0x1A6F JUMP JUMPDEST SWAP3 POP POP PUSH1 0x40 PUSH2 0x1BE8 DUP7 DUP3 DUP8 ADD PUSH2 0x1AA2 JUMP JUMPDEST SWAP2 POP POP SWAP3 POP SWAP3 POP SWAP3 JUMP JUMPDEST PUSH0 PUSH1 0xFF DUP3 AND SWAP1 POP SWAP2 SWAP1 POP JUMP JUMPDEST PUSH2 0x1C07 DUP2 PUSH2 0x1BF2 JUMP JUMPDEST DUP3 MSTORE POP POP JUMP JUMPDEST PUSH0 PUSH1 0x20 DUP3 ADD SWAP1 POP PUSH2 0x1C20 PUSH0 DUP4 ADD DUP5 PUSH2 0x1BFE JUMP JUMPDEST SWAP3 SWAP2 POP POP JUMP JUMPDEST PUSH0 PUSH1 0x20 DUP3 DUP5 SUB SLT ISZERO PUSH2 0x1C3B JUMPI PUSH2 0x1C3A PUSH2 0x1A25 JUMP JUMPDEST JUMPDEST PUSH0 PUSH2 0x1C48 DUP5 DUP3 DUP6 ADD PUSH2 0x1AA2 JUMP JUMPDEST SWAP2 POP POP SWAP3 SWAP2 POP POP JUMP JUMPDEST PUSH0 PUSH0 PUSH1 0x40 DUP4 DUP6 SUB SLT ISZERO PUSH2 0x1C67 JUMPI PUSH2 0x1C66 PUSH2 0x1A25 JUMP JUMPDEST JUMPDEST PUSH0 PUSH2 0x1C74 DUP6 DUP3 DUP7 ADD PUSH2 0x1A6F JUMP JUMPDEST SWAP3 POP POP PUSH1 0x20 PUSH2 0x1C85 DUP6 DUP3 DUP7 ADD PUSH2 0x1A6F JUMP JUMPDEST SWAP2 POP POP SWAP3 POP SWAP3 SWAP1 POP JUMP JUMPDEST PUSH32 0x4E487B7100000000000000000000000000000000000000000000000000000000 PUSH0 MSTORE PUSH1 0x22 PUSH1 0x4 MSTORE PUSH1 0x24 PUSH0 REVERT JUMPDEST PUSH0 PUSH1 0x2 DUP3 DIV SWAP1 POP PUSH1 0x1 DUP3 AND DUP1 PUSH2 0x1CD3 JUMPI PUSH1 0x7F DUP3 AND SWAP2 POP JUMPDEST PUSH1 0x20 DUP3 LT DUP2 SUB PUSH2 0x1CE6 JUMPI PUSH2 0x1CE5 PUSH2 0x1C8F JUMP JUMPDEST JUMPDEST POP SWAP2 SWAP1 POP JUMP JUMPDEST PUSH32 0x416D6F756E74206D75737420626520616E20696E746567657200000000000000 PUSH0 DUP3 ADD MSTORE POP JUMP JUMPDEST PUSH0 PUSH2 0x1D20 PUSH1 0x19 DUP4 PUSH2 0x199F JUMP JUMPDEST SWAP2 POP PUSH2 0x1D2B DUP3 PUSH2 0x1CEC JUMP JUMPDEST PUSH1 0x20 DUP3 ADD SWAP1 POP SWAP2 SWAP1 POP JUMP JUMPDEST PUSH0 PUSH1 0x20 DUP3 ADD SWAP1 POP DUP2 DUP2 SUB PUSH0 DUP4 ADD MSTORE PUSH2 0x1D4D DUP2 PUSH2 0x1D14 JUMP JUMPDEST SWAP1 POP SWAP2 SWAP1 POP JUMP JUMPDEST PUSH32 0x4E487B7100000000000000000000000000000000000000000000000000000000 PUSH0 MSTORE PUSH1 0x11 PUSH1 0x4 MSTORE PUSH1 0x24 PUSH0 REVERT JUMPDEST PUSH0 PUSH2 0x1D8B DUP3 PUSH2 0x1A83 JUMP JUMPDEST SWAP2 POP PUSH2 0x1D96 DUP4 PUSH2 0x1A83 JUMP JUMPDEST SWAP3 POP DUP3 DUP3 ADD SWAP1 POP DUP1 DUP3 GT ISZERO PUSH2 0x1DAE JUMPI PUSH2 0x1DAD PUSH2 0x1D54 JUMP JUMPDEST JUMPDEST SWAP3 SWAP2 POP POP JUMP JUMPDEST PUSH32 0x546F74616C20737570706C792065786365656465640000000000000000000000 PUSH0 DUP3 ADD MSTORE POP JUMP JUMPDEST PUSH0 PUSH2 0x1DE8 PUSH1 0x15 DUP4 PUSH2 0x199F JUMP JUMPDEST SWAP2 POP PUSH2 0x1DF3 DUP3 PUSH2 0x1DB4 JUMP JUMPDEST PUSH1 0x20 DUP3 ADD SWAP1 POP SWAP2 SWAP1 POP JUMP JUMPDEST PUSH0 PUSH1 0x20 DUP3 ADD SWAP1 POP DUP2 DUP2 SUB PUSH0 DUP4 ADD MSTORE PUSH2 0x1E15 DUP2 PUSH2 0x1DDC JUMP JUMPDEST SWAP1 POP SWAP2 SWAP1 POP JUMP JUMPDEST PUSH32 0x416D6F756E74206D7573742062652067726561746572207468616E2030000000 PUSH0 DUP3 ADD MSTORE POP JUMP JUMPDEST PUSH0 PUSH2 0x1E50 PUSH1 0x1D DUP4 PUSH2 0x199F JUMP JUMPDEST SWAP2 POP PUSH2 0x1E5B DUP3 PUSH2 0x1E1C JUMP JUMPDEST PUSH1 0x20 DUP3 ADD SWAP1 POP SWAP2 SWAP1 POP JUMP JUMPDEST PUSH0 PUSH1 0x20 DUP3 ADD SWAP1 POP DUP2 DUP2 SUB PUSH0 DUP4 ADD MSTORE PUSH2 0x1E7D DUP2 PUSH2 0x1E44 JUMP JUMPDEST SWAP1 POP SWAP2 SWAP1 POP JUMP JUMPDEST PUSH0 PUSH1 0x40 DUP3 ADD SWAP1 POP PUSH2 0x1E97 PUSH0 DUP4 ADD DUP6 PUSH2 0x1B7A JUMP JUMPDEST PUSH2 0x1EA4 PUSH1 0x20 DUP4 ADD DUP5 PUSH2 0x1B7A JUMP JUMPDEST SWAP4 SWAP3 POP POP POP JUMP JUMPDEST PUSH0 DUP2 MLOAD SWAP1 POP PUSH2 0x1EB9 DUP2 PUSH2 0x1A8C JUMP JUMPDEST SWAP3 SWAP2 POP POP JUMP JUMPDEST PUSH0 PUSH1 0x20 DUP3 DUP5 SUB SLT ISZERO PUSH2 0x1ED4 JUMPI PUSH2 0x1ED3 PUSH2 0x1A25 JUMP JUMPDEST JUMPDEST PUSH0 PUSH2 0x1EE1 DUP5 DUP3 DUP6 ADD PUSH2 0x1EAB JUMP JUMPDEST SWAP2 POP POP SWAP3 SWAP2 POP POP JUMP JUMPDEST PUSH32 0x496E73756666696369656E7420616C6C6F77616E636500000000000000000000 PUSH0 DUP3 ADD MSTORE POP JUMP JUMPDEST PUSH0 PUSH2 0x1F1E PUSH1 0x16 DUP4 PUSH2 0x199F JUMP JUMPDEST SWAP2 POP PUSH2 0x1F29 DUP3 PUSH2 0x1EEA JUMP JUMPDEST PUSH1 0x20 DUP3 ADD SWAP1 POP SWAP2 SWAP1 POP JUMP JUMPDEST PUSH0 PUSH1 0x20 DUP3 ADD SWAP1 POP DUP2 DUP2 SUB PUSH0 DUP4 ADD MSTORE PUSH2 0x1F4B DUP2 PUSH2 0x1F12 JUMP JUMPDEST SWAP1 POP SWAP2 SWAP1 POP JUMP JUMPDEST PUSH0 PUSH1 0x60 DUP3 ADD SWAP1 POP PUSH2 0x1F65 PUSH0 DUP4 ADD DUP7 PUSH2 0x1B7A JUMP JUMPDEST PUSH2 0x1F72 PUSH1 0x20 DUP4 ADD DUP6 PUSH2 0x1B7A JUMP JUMPDEST PUSH2 0x1F7F PUSH1 0x40 DUP4 ADD DUP5 PUSH2 0x1B52 JUMP JUMPDEST SWAP5 SWAP4 POP POP POP POP JUMP JUMPDEST PUSH2 0x1F90 DUP2 PUSH2 0x1AF4 JUMP JUMPDEST DUP2 EQ PUSH2 0x1F9A JUMPI PUSH0 PUSH0 REVERT JUMPDEST POP JUMP JUMPDEST PUSH0 DUP2 MLOAD SWAP1 POP PUSH2 0x1FAB DUP2 PUSH2 0x1F87 JUMP JUMPDEST SWAP3 SWAP2 POP POP JUMP JUMPDEST PUSH0 PUSH1 0x20 DUP3 DUP5 SUB SLT ISZERO PUSH2 0x1FC6 JUMPI PUSH2 0x1FC5 PUSH2 0x1A25 JUMP JUMPDEST JUMPDEST PUSH0 PUSH2 0x1FD3 DUP5 DUP3 DUP6 ADD PUSH2 0x1F9D JUMP JUMPDEST SWAP2 POP POP SWAP3 SWAP2 POP POP JUMP JUMPDEST PUSH32 0x546F6B656E207472616E73666572206661696C65640000000000000000000000 PUSH0 DUP3 ADD MSTORE POP JUMP JUMPDEST PUSH0 PUSH2 0x2010 PUSH1 0x15 DUP4 PUSH2 0x199F JUMP JUMPDEST SWAP2 POP PUSH2 0x201B DUP3 PUSH2 0x1FDC JUMP JUMPDEST PUSH1 0x20 DUP3 ADD SWAP1 POP SWAP2 SWAP1 POP JUMP JUMPDEST PUSH0 PUSH1 0x20 DUP3 ADD SWAP1 POP DUP2 DUP2 SUB PUSH0 DUP4 ADD MSTORE PUSH2 0x203D DUP2 PUSH2 0x2004 JUMP JUMPDEST SWAP1 POP SWAP2 SWAP1 POP JUMP JUMPDEST PUSH0 PUSH2 0x204E DUP3 PUSH2 0x1A83 JUMP JUMPDEST SWAP2 POP PUSH2 0x2059 DUP4 PUSH2 0x1A83 JUMP JUMPDEST SWAP3 POP DUP3 DUP3 MUL PUSH2 0x2067 DUP2 PUSH2 0x1A83 JUMP JUMPDEST SWAP2 POP DUP3 DUP3 DIV DUP5 EQ DUP4 ISZERO OR PUSH2 0x207E JUMPI PUSH2 0x207D PUSH2 0x1D54 JUMP JUMPDEST JUMPDEST POP SWAP3 SWAP2 POP POP JUMP JUMPDEST PUSH0 PUSH2 0x208F DUP3 PUSH2 0x1A83 JUMP JUMPDEST SWAP2 POP PUSH2 0x209A DUP4 PUSH2 0x1A83 JUMP JUMPDEST SWAP3 POP DUP3 DUP3 SUB SWAP1 POP DUP2 DUP2 GT ISZERO PUSH2 0x20B2 JUMPI PUSH2 0x20B1 PUSH2 0x1D54 JUMP JUMPDEST JUMPDEST SWAP3 SWAP2 POP POP JUMP JUMPDEST PUSH2 0x20C1 DUP2 PUSH2 0x1A29 JUMP JUMPDEST DUP2 EQ PUSH2 0x20CB JUMPI PUSH0 PUSH0 REVERT JUMPDEST POP JUMP JUMPDEST PUSH0 DUP2 MLOAD SWAP1 POP PUSH2 0x20DC DUP2 PUSH2 0x20B8 JUMP JUMPDEST SWAP3 SWAP2 POP POP JUMP JUMPDEST PUSH0 DUP2 PUSH1 0x2 SIGNEXTEND SWAP1 POP SWAP2 SWAP1 POP JUMP JUMPDEST PUSH2 0x20F7 DUP2 PUSH2 0x20E2 JUMP JUMPDEST DUP2 EQ PUSH2 0x2101 JUMPI PUSH0 PUSH0 REVERT JUMPDEST POP JUMP JUMPDEST PUSH0 DUP2 MLOAD SWAP1 POP PUSH2 0x2112 DUP2 PUSH2 0x20EE JUMP JUMPDEST SWAP3 SWAP2 POP POP JUMP JUMPDEST PUSH0 PUSH2 0xFFFF DUP3 AND SWAP1 POP SWAP2 SWAP1 POP JUMP JUMPDEST PUSH2 0x212E DUP2 PUSH2 0x2118 JUMP JUMPDEST DUP2 EQ PUSH2 0x2138 JUMPI PUSH0 PUSH0 REVERT JUMPDEST POP JUMP JUMPDEST PUSH0 DUP2 MLOAD SWAP1 POP PUSH2 0x2149 DUP2 PUSH2 0x2125 JUMP JUMPDEST SWAP3 SWAP2 POP POP JUMP JUMPDEST PUSH2 0x2158 DUP2 PUSH2 0x1BF2 JUMP JUMPDEST DUP2 EQ PUSH2 0x2162 JUMPI PUSH0 PUSH0 REVERT JUMPDEST POP JUMP JUMPDEST PUSH0 DUP2 MLOAD SWAP1 POP PUSH2 0x2173 DUP2 PUSH2 0x214F JUMP JUMPDEST SWAP3 SWAP2 POP POP JUMP JUMPDEST PUSH0 PUSH0 PUSH0 PUSH0 PUSH0 PUSH0 PUSH0 PUSH1 0xE0 DUP9 DUP11 SUB SLT ISZERO PUSH2 0x2194 JUMPI PUSH2 0x2193 PUSH2 0x1A25 JUMP JUMPDEST JUMPDEST PUSH0 PUSH2 0x21A1 DUP11 DUP3 DUP12 ADD PUSH2 0x20CE JUMP JUMPDEST SWAP8 POP POP PUSH1 0x20 PUSH2 0x21B2 DUP11 DUP3 DUP12 ADD PUSH2 0x2104 JUMP JUMPDEST SWAP7 POP POP PUSH1 0x40 PUSH2 0x21C3 DUP11 DUP3 DUP12 ADD PUSH2 0x213B JUMP JUMPDEST SWAP6 POP POP PUSH1 0x60 PUSH2 0x21D4 DUP11 DUP3 DUP12 ADD PUSH2 0x213B JUMP JUMPDEST SWAP5 POP POP PUSH1 0x80 PUSH2 0x21E5 DUP11 DUP3 DUP12 ADD PUSH2 0x213B JUMP JUMPDEST SWAP4 POP POP PUSH1 0xA0 PUSH2 0x21F6 DUP11 DUP3 DUP12 ADD PUSH2 0x2165 JUMP JUMPDEST SWAP3 POP POP PUSH1 0xC0 PUSH2 0x2207 DUP11 DUP3 DUP12 ADD PUSH2 0x1F9D JUMP JUMPDEST SWAP2 POP POP SWAP3 SWAP6 SWAP9 SWAP2 SWAP5 SWAP8 POP SWAP3 SWAP6 POP JUMP JUMPDEST PUSH0 DUP2 PUSH1 0x1 SHR SWAP1 POP SWAP2 SWAP1 POP JUMP JUMPDEST PUSH0 PUSH0 DUP3 SWAP2 POP DUP4 SWAP1 POP JUMPDEST PUSH1 0x1 DUP6 GT ISZERO PUSH2 0x226B JUMPI DUP1 DUP7 DIV DUP2 GT ISZERO PUSH2 0x2247 JUMPI PUSH2 0x2246 PUSH2 0x1D54 JUMP JUMPDEST JUMPDEST PUSH1 0x1 DUP6 AND ISZERO PUSH2 0x2256 JUMPI DUP1 DUP3 MUL SWAP2 POP JUMPDEST DUP1 DUP2 MUL SWAP1 POP PUSH2 0x2264 DUP6 PUSH2 0x2216 JUMP JUMPDEST SWAP5 POP PUSH2 0x222B JUMP JUMPDEST SWAP5 POP SWAP5 SWAP3 POP POP POP JUMP JUMPDEST PUSH0 DUP3 PUSH2 0x2283 JUMPI PUSH1 0x1 SWAP1 POP PUSH2 0x233E JUMP JUMPDEST DUP2 PUSH2 0x2290 JUMPI PUSH0 SWAP1 POP PUSH2 0x233E JUMP JUMPDEST DUP2 PUSH1 0x1 DUP2 EQ PUSH2 0x22A6 JUMPI PUSH1 0x2 DUP2 EQ PUSH2 0x22B0 JUMPI PUSH2 0x22DF JUMP JUMPDEST PUSH1 0x1 SWAP2 POP POP PUSH2 0x233E JUMP JUMPDEST PUSH1 0xFF DUP5 GT ISZERO PUSH2 0x22C2 JUMPI PUSH2 0x22C1 PUSH2 0x1D54 JUMP JUMPDEST JUMPDEST DUP4 PUSH1 0x2 EXP SWAP2 POP DUP5 DUP3 GT ISZERO PUSH2 0x22D9 JUMPI PUSH2 0x22D8 PUSH2 0x1D54 JUMP JUMPDEST JUMPDEST POP PUSH2 0x233E JUMP JUMPDEST POP PUSH1 0x20 DUP4 LT PUSH2 0x133 DUP4 LT AND PUSH1 0x4E DUP5 LT PUSH1 0xB DUP5 LT AND OR ISZERO PUSH2 0x2314 JUMPI DUP3 DUP3 EXP SWAP1 POP DUP4 DUP2 GT ISZERO PUSH2 0x230F JUMPI PUSH2 0x230E PUSH2 0x1D54 JUMP JUMPDEST JUMPDEST PUSH2 0x233E JUMP JUMPDEST PUSH2 0x2321 DUP5 DUP5 DUP5 PUSH1 0x1 PUSH2 0x2222 JUMP JUMPDEST SWAP3 POP SWAP1 POP DUP2 DUP5 DIV DUP2 GT ISZERO PUSH2 0x2338 JUMPI PUSH2 0x2337 PUSH2 0x1D54 JUMP JUMPDEST JUMPDEST DUP2 DUP2 MUL SWAP1 POP JUMPDEST SWAP4 SWAP3 POP POP POP JUMP JUMPDEST PUSH0 PUSH2 0x234F DUP3 PUSH2 0x1A83 JUMP JUMPDEST SWAP2 POP PUSH2 0x235A DUP4 PUSH2 0x1BF2 JUMP JUMPDEST SWAP3 POP PUSH2 0x2387 PUSH32 0xFFFFFFFFFFFFFFFFFFFFFFFFFFFFFFFFFFFFFFFFFFFFFFFFFFFFFFFFFFFFFFFF DUP5 DUP5 PUSH2 0x2274 JUMP JUMPDEST SWAP1 POP SWAP3 SWAP2 POP POP JUMP JUMPDEST PUSH32 0x4E487B7100000000000000000000000000000000000000000000000000000000 PUSH0 MSTORE PUSH1 0x12 PUSH1 0x4 MSTORE PUSH1 0x24 PUSH0 REVERT JUMPDEST PUSH0 PUSH2 0x23C6 DUP3 PUSH2 0x1A83 JUMP JUMPDEST SWAP2 POP PUSH2 0x23D1 DUP4 PUSH2 0x1A83 JUMP JUMPDEST SWAP3 POP DUP3 PUSH2 0x23E1 JUMPI PUSH2 0x23E0 PUSH2 0x238F JUMP JUMPDEST JUMPDEST DUP3 DUP3 DIV SWAP1 POP SWAP3 SWAP2 POP POP JUMP JUMPDEST PUSH0 PUSH1 0x60 DUP3 ADD SWAP1 POP PUSH2 0x23FF PUSH0 DUP4 ADD DUP7 PUSH2 0x1B7A JUMP JUMPDEST PUSH2 0x240C PUSH1 0x20 DUP4 ADD DUP6 PUSH2 0x1B52 JUMP JUMPDEST PUSH2 0x2419 PUSH1 0x40 DUP4 ADD DUP5 PUSH2 0x1B52 JUMP JUMPDEST SWAP5 SWAP4 POP POP POP POP JUMP INVALID LOG2 PUSH5 0x6970667358 0x22 SLT KECCAK256 0xB4 0xC4 0xAB RETURNCONTRACT 0xD4 LOG2 BLOBBASEFEE PUSH32 0x7BE7D8D6F37E07B98B30A82FC06E80F791E8E821AEC808F064736F6C63430008 0x1E STOP CALLER "
				},
				"gasEstimates": {
					"creation": {
						"codeDepositCost": "1860600",
						"executionCost": "infinite",
						"totalCost": "infinite"
					},
					"external": {
						"MINT_RATIO()": "436",
						"TOTAL_SUPPLY()": "458",
						"addToWhitelist(address)": "infinite",
						"allowance(address,address)": "infinite",
						"approve(address,uint256)": "infinite",
						"balanceOf(address)": "2873",
						"balanceOfUser(address)": "2961",
						"compliance()": "491",
						"decimals()": "471",
						"freezeUser(address)": "infinite",
						"frozen(address)": "2900",
						"getCurrentPrice()": "infinite",
						"getFrozenTokens(address)": "686",
						"identityRegistry()": "492",
						"isFrozen(address)": "2958",
						"mint(address,uint256)": "infinite",
						"mintedAmount()": "2537",
						"name()": "infinite",
						"onchainID()": "446",
						"owner()": "2626",
						"paused()": "427",
						"remainingSupply()": "infinite",
						"removeFromWhitelist(address)": "infinite",
						"renounceOwnership()": "infinite",
						"symbol()": "infinite",
						"tokenAddress()": "infinite",
						"totalSupply()": "2500",
						"transfer(address,uint256)": "infinite",
						"transferAndMint(uint256)": "infinite",
						"transferFrom(address,address,uint256)": "infinite",
						"transferOwnership(address)": "infinite",
						"transferReceiver()": "infinite",
						"unfreezeUser(address)": "infinite",
						"uniswapPool()": "2597",
						"version()": "infinite",
						"whitelist(address)": "2901"
					}
				},
				"methodIdentifiers": {
					"MINT_RATIO()": "c802e3cd",
					"TOTAL_SUPPLY()": "902d55a5",
					"addToWhitelist(address)": "e43252d7",
					"allowance(address,address)": "dd62ed3e",
					"approve(address,uint256)": "095ea7b3",
					"balanceOf(address)": "70a08231",
					"balanceOfUser(address)": "12cae7af",
					"compliance()": "6290865d",
					"decimals()": "313ce567",
					"freezeUser(address)": "e08ba51a",
					"frozen(address)": "d0516650",
					"getCurrentPrice()": "eb91d37e",
					"getFrozenTokens(address)": "158b1a57",
					"identityRegistry()": "134e18f4",
					"isFrozen(address)": "e5839836",
					"mint(address,uint256)": "40c10f19",
					"mintedAmount()": "2d380242",
					"name()": "06fdde03",
					"onchainID()": "aba63705",
					"owner()": "8da5cb5b",
					"paused()": "5c975abb",
					"remainingSupply()": "da0239a6",
					"removeFromWhitelist(address)": "8ab1d681",
					"renounceOwnership()": "715018a6",
					"symbol()": "95d89b41",
					"tokenAddress()": "9d76ea58",
					"totalSupply()": "18160ddd",
					"transfer(address,uint256)": "a9059cbb",
					"transferAndMint(uint256)": "cefaaff6",
					"transferFrom(address,address,uint256)": "23b872dd",
					"transferOwnership(address)": "f2fde38b",
					"transferReceiver()": "9dc341d0",
					"unfreezeUser(address)": "cb4b73ab",
					"uniswapPool()": "bdd3d825",
					"version()": "54fd4d50",
					"whitelist(address)": "9b19251a"
				}
			},
			"storageLayout": {
				"storage": [
					{
						"astId": 307,
						"contract": "contracts/CCK/CC2/b.sol:CCKToken",
						"label": "_balances",
						"offset": 0,
						"slot": "0",
						"type": "t_mapping(t_address,t_uint256)"
					},
					{
						"astId": 313,
						"contract": "contracts/CCK/CC2/b.sol:CCKToken",
						"label": "_allowances",
						"offset": 0,
						"slot": "1",
						"type": "t_mapping(t_address,t_mapping(t_address,t_uint256))"
					},
					{
						"astId": 315,
						"contract": "contracts/CCK/CC2/b.sol:CCKToken",
						"label": "_totalSupply",
						"offset": 0,
						"slot": "2",
						"type": "t_uint256"
					},
					{
						"astId": 317,
						"contract": "contracts/CCK/CC2/b.sol:CCKToken",
						"label": "_name",
						"offset": 0,
						"slot": "3",
						"type": "t_string_storage"
					},
					{
						"astId": 319,
						"contract": "contracts/CCK/CC2/b.sol:CCKToken",
						"label": "_symbol",
						"offset": 0,
						"slot": "4",
						"type": "t_string_storage"
					},
					{
						"astId": 8,
						"contract": "contracts/CCK/CC2/b.sol:CCKToken",
						"label": "_owner",
						"offset": 0,
						"slot": "5",
						"type": "t_address"
					},
					{
						"astId": 1395,
						"contract": "contracts/CCK/CC2/b.sol:CCKToken",
						"label": "whitelist",
						"offset": 0,
						"slot": "6",
						"type": "t_mapping(t_address,t_bool)"
					},
					{
						"astId": 1399,
						"contract": "contracts/CCK/CC2/b.sol:CCKToken",
						"label": "frozen",
						"offset": 0,
						"slot": "7",
						"type": "t_mapping(t_address,t_bool)"
					},
					{
						"astId": 1401,
						"contract": "contracts/CCK/CC2/b.sol:CCKToken",
						"label": "uniswapPool",
						"offset": 0,
						"slot": "8",
						"type": "t_address"
					},
					{
						"astId": 1403,
						"contract": "contracts/CCK/CC2/b.sol:CCKToken",
						"label": "mintedAmount",
						"offset": 0,
						"slot": "9",
						"type": "t_uint256"
					}
				],
				"types": {
					"t_address": {
						"encoding": "inplace",
						"label": "address",
						"numberOfBytes": "20"
					},
					"t_bool": {
						"encoding": "inplace",
						"label": "bool",
						"numberOfBytes": "1"
					},
					"t_mapping(t_address,t_bool)": {
						"encoding": "mapping",
						"key": "t_address",
						"label": "mapping(address => bool)",
						"numberOfBytes": "32",
						"value": "t_bool"
					},
					"t_mapping(t_address,t_mapping(t_address,t_uint256))": {
						"encoding": "mapping",
						"key": "t_address",
						"label": "mapping(address => mapping(address => uint256))",
						"numberOfBytes": "32",
						"value": "t_mapping(t_address,t_uint256)"
					},
					"t_mapping(t_address,t_uint256)": {
						"encoding": "mapping",
						"key": "t_address",
						"label": "mapping(address => uint256)",
						"numberOfBytes": "32",
						"value": "t_uint256"
					},
					"t_string_storage": {
						"encoding": "bytes",
						"label": "string",
						"numberOfBytes": "32"
					},
					"t_uint256": {
						"encoding": "inplace",
						"label": "uint256",
						"numberOfBytes": "32"
					}
				}
			},
			"userdoc": {
				"kind": "user",
				"methods": {},
				"version": 1
			}
		}
	}
}