{
	"data": {
		"bytecode": {
			"linkReferences": {},
			"object": "60806040526969e10de76676d080000060075534801561001d575f5ffd5b50604051617af2380380617af2833981810160405281019061003f9190610721565b33836040518060400160405280600281526020017f4343000000000000000000000000000000000000000000000000000000000000815250816003908161008691906109d5565b50806004908161009691906109d5565b5050505f73ffffffffffffffffffffffffffffffffffffffff168173ffffffffffffffffffffffffffffffffffffffff1603610109575f6040517f1e4fbdf70000000000000000000000000000000000000000000000000000000081526004016101009190610ab3565b60405180910390fd5b610118816103f360201b60201c565b5060016006819055505f825111610164576040517f08c379a000000000000000000000000000000000000000000000000000000000815260040161015b90610b4c565b60405180910390fd5b5f8151116101a7576040517f08c379a000000000000000000000000000000000000000000000000000000000815260040161019e90610bb4565b60405180910390fd5b5f5f90505b82518110156102b9575f73ffffffffffffffffffffffffffffffffffffffff168382815181106101df576101de610bd2565b5b602002602001015173ffffffffffffffffffffffffffffffffffffffff160361023d576040517f08c379a000000000000000000000000000000000000000000000000000000000815260040161023490610c49565b60405180910390fd5b600160085f85848151811061025557610254610bd2565b5b602002602001015173ffffffffffffffffffffffffffffffffffffffff1673ffffffffffffffffffffffffffffffffffffffff1681526020019081526020015f205f6101000a81548160ff02191690831515021790555080806001019150506101ac565b505f5f90505b81518110156103cc575f73ffffffffffffffffffffffffffffffffffffffff168282815181106102f2576102f1610bd2565b5b602002602001015173ffffffffffffffffffffffffffffffffffffffff1603610350576040517f08c379a000000000000000000000000000000000000000000000000000000000815260040161034790610cb1565b60405180910390fd5b6001600d5f84848151811061036857610367610bd2565b5b602002602001015173ffffffffffffffffffffffffffffffffffffffff1673ffffffffffffffffffffffffffffffffffffffff1681526020019081526020015f205f6101000a81548160ff02191690831515021790555080806001019150506102bf565b5082600c90816103dc91906109d5565b504260128190555042601381905550505050610ccf565b5f60055f9054906101000a900473ffffffffffffffffffffffffffffffffffffffff1690508160055f6101000a81548173ffffffffffffffffffffffffffffffffffffffff021916908373ffffffffffffffffffffffffffffffffffffffff1602179055508173ffffffffffffffffffffffffffffffffffffffff168173ffffffffffffffffffffffffffffffffffffffff167f8be0079c531659141344cd1fd0a4f28419497f9722a3daafe3b4186f6b6457e060405160405180910390a35050565b5f604051905090565b5f5ffd5b5f5ffd5b5f5ffd5b5f5ffd5b5f601f19601f8301169050919050565b7f4e487b71000000000000000000000000000000000000000000000000000000005f52604160045260245ffd5b610515826104cf565b810181811067ffffffffffffffff82111715610534576105336104df565b5b80604052505050565b5f6105466104b6565b9050610552828261050c565b919050565b5f67ffffffffffffffff821115610571576105706104df565b5b61057a826104cf565b9050602081019050919050565b8281835e5f83830152505050565b5f6105a76105a284610557565b61053d565b9050828152602081018484840111156105c3576105c26104cb565b5b6105ce848285610587565b509392505050565b5f82601f8301126105ea576105e96104c7565b5b81516105fa848260208601610595565b91505092915050565b5f67ffffffffffffffff82111561061d5761061c6104df565b5b602082029050602081019050919050565b5f5ffd5b5f73ffffffffffffffffffffffffffffffffffffffff82169050919050565b5f61065b82610632565b9050919050565b61066b81610651565b8114610675575f5ffd5b50565b5f8151905061068681610662565b92915050565b5f61069e61069984610603565b61053d565b905080838252602082019050602084028301858111156106c1576106c061062e565b5b835b818110156106ea57806106d68882610678565b8452602084019350506020810190506106c3565b5050509392505050565b5f82601f830112610708576107076104c7565b5b815161071884826020860161068c565b91505092915050565b5f5f5f60608486031215610738576107376104bf565b5b5f84015167ffffffffffffffff811115610755576107546104c3565b5b610761868287016105d6565b935050602084015167ffffffffffffffff811115610782576107816104c3565b5b61078e868287016106f4565b925050604084015167ffffffffffffffff8111156107af576107ae6104c3565b5b6107bb868287016106f4565b9150509250925092565b5f81519050919050565b7f4e487b71000000000000000000000000000000000000000000000000000000005f52602260045260245ffd5b5f600282049050600182168061081357607f821691505b602082108103610826576108256107cf565b5b50919050565b5f819050815f5260205f209050919050565b5f6020601f8301049050919050565b5f82821b905092915050565b5f600883026108887fffffffffffffffffffffffffffffffffffffffffffffffffffffffffffffffff8261084d565b610892868361084d565b95508019841693508086168417925050509392505050565b5f819050919050565b5f819050919050565b5f6108d66108d16108cc846108aa565b6108b3565b6108aa565b9050919050565b5f819050919050565b6108ef836108bc565b6109036108fb826108dd565b848454610859565b825550505050565b5f5f905090565b61091a61090b565b6109258184846108e6565b505050565b5b818110156109485761093d5f82610912565b60018101905061092b565b5050565b601f82111561098d5761095e8161082c565b6109678461083e565b81016020851015610976578190505b61098a6109828561083e565b83018261092a565b50505b505050565b5f82821c905092915050565b5f6109ad5f1984600802610992565b1980831691505092915050565b5f6109c5838361099e565b9150826002028217905092915050565b6109de826107c5565b67ffffffffffffffff8111156109f7576109f66104df565b5b610a0182546107fc565b610a0c82828561094c565b5f60209050601f831160018114610a3d575f8415610a2b578287015190505b610a3585826109ba565b865550610a9c565b601f198416610a4b8661082c565b5f5b82811015610a7257848901518255600182019150602085019450602081019050610a4d565b86831015610a8f5784890151610a8b601f89168261099e565b8355505b6001600288020188555050505b505050505050565b610aad81610651565b82525050565b5f602082019050610ac65f830184610aa4565b92915050565b5f82825260208201905092915050565b7f4174206c65617374206f6e652077686974656c697374656420616464726573735f8201527f2069732072657175697265640000000000000000000000000000000000000000602082015250565b5f610b36602c83610acc565b9150610b4182610adc565b604082019050919050565b5f6020820190508181035f830152610b6381610b2a565b9050919050565b7f4174206c65617374206f6e6520766f74657220697320726571756972656400005f82015250565b5f610b9e601e83610acc565b9150610ba982610b6a565b602082019050919050565b5f6020820190508181035f830152610bcb81610b92565b9050919050565b7f4e487b71000000000000000000000000000000000000000000000000000000005f52603260045260245ffd5b7f496e76616c69642077686974656c6973742061646472657373000000000000005f82015250565b5f610c33601983610acc565b9150610c3e82610bff565b602082019050919050565b5f6020820190508181035f830152610c6081610c27565b9050919050565b7f496e76616c696420766f746572206164647265737300000000000000000000005f82015250565b5f610c9b601583610acc565b9150610ca682610c67565b602082019050919050565b5f6020820190508181035f830152610cc881610c8f565b9050919050565b616e1680610cdc5f395ff3fe608060405234801561000f575f5ffd5b5060043610610376575f3560e01c80637afdf93e116101d1578063bdd3d82511610102578063e0a8f6f5116100a0578063f2fde38b1161007a578063f2fde38b14610a11578063f36e32cc14610a2d578063f3cdcd1e14610a4b578063ff8f164f14610a5557610376565b8063e0a8f6f5146109a7578063e5839836146109c3578063eb91d37e146109f357610376565b8063d0516650116100dc578063d05166501461090b578063da0239a61461093b578063da35c66414610959578063dd62ed3e1461097757610376565b8063bdd3d825146108c7578063c4bc5da5146108e5578063cb7a11c2146108ef57610376565b80639b19251a1161016f578063aba6370511610149578063aba637051461084f578063aca9f4721461086d578063ae66c9ea1461088b578063b5fc35ce146108a957610376565b80639b19251a146107bf578063a3ec138d146107ef578063a9059cbb1461081f57610376565b80638a67456a116101ab5780638a67456a146107475780638da5cb5b14610765578063902d55a51461078357806395d89b41146107a157610376565b80637afdf93e146107155780637c224d641461071f57806380e79a361461073d57610376565b806320950933116102ab578063439766ce116102495780636290865d116102235780636290865d1461069f5780636c02a931146106bd57806370a08231146106db578063715018a61461070b57610376565b8063439766ce1461065957806354fd4d50146106635780635c975abb1461068157610376565b80632de56555116102855780632de56555146105cf578063302c464a146105ed578063313ce5671461060b578063438596321461062957610376565b8063209509331461056357806323b872dd146105815780632d380242146105b157610376565b80630d61b51911610318578063134e18f4116102f2578063134e18f4146104d957806314a8bd0d146104f7578063158b1a571461051557806318160ddd1461054557610376565b80630d61b519146104715780630fe2abcf1461048d57806312cae7af146104a957610376565b806306fdde031161035457806306fdde03146103e957806308b26b7514610407578063095ea7b3146104255780630d4efa4f1461045557610376565b80630121b93f1461037a578063013cf08b14610396578063051069e3146103cd575b5f5ffd5b610394600480360381019061038f9190614b16565b610a73565b005b6103b060048036038101906103ab9190614b16565b610e2c565b6040516103c4989796959493929190614c8c565b60405180910390f35b6103e760048036038101906103e29190614e79565b610f4c565b005b6103f1611299565b6040516103fe9190614ec0565b60405180910390f35b61040f611329565b60405161041c9190614ee0565b60405180910390f35b61043f600480360381019061043a9190614ef9565b61132f565b60405161044c9190614f37565b60405180910390f35b61046f600480360381019061046a9190615023565b611351565b005b61048b60048036038101906104869190614b16565b612045565b005b6104a760048036038101906104a29190615100565b612c0e565b005b6104c360048036038101906104be919061513e565b612e6b565b6040516104d09190614ee0565b60405180910390f35b6104e1612e7c565b6040516104ee9190615169565b60405180910390f35b6104ff612e83565b60405161050c9190614ee0565b60405180910390f35b61052f600480360381019061052a919061513e565b612e88565b60405161053c9190614ee0565b60405180910390f35b61054d612e91565b60405161055a9190614ee0565b60405180910390f35b61056b612e9a565b6040516105789190614ee0565b60405180910390f35b61059b60048036038101906105969190615182565b612ea0565b6040516105a89190614f37565b60405180910390f35b6105b9612fe3565b6040516105c69190614ee0565b60405180910390f35b6105d7612fe9565b6040516105e49190614ee0565b60405180910390f35b6105f5612fee565b6040516106029190614ee0565b60405180910390f35b610613612ff3565b60405161062091906151ed565b60405180910390f35b610643600480360381019061063e9190615100565b612ffa565b6040516106509190614f37565b60405180910390f35b610661613024565b005b61066b613146565b6040516106789190614ec0565b60405180910390f35b610689613183565b6040516106969190614f37565b60405180910390f35b6106a7613199565b6040516106b49190615169565b60405180910390f35b6106c56131a0565b6040516106d29190614ec0565b60405180910390f35b6106f560048036038101906106f0919061513e565b61322c565b6040516107029190614ee0565b60405180910390f35b610713613271565b005b61071d613284565b005b6107276132d3565b6040516107349190614ee0565b60405180910390f35b6107456132d9565b005b61074f6134a6565b60405161075c9190614f37565b60405180910390f35b61076d6134b9565b60405161077a9190615169565b60405180910390f35b61078b6134e1565b6040516107989190614ee0565b60405180910390f35b6107a96134e7565b6040516107b69190614ec0565b60405180910390f35b6107d960048036038101906107d4919061513e565b613577565b6040516107e69190614f37565b60405180910390f35b6108096004803603810190610804919061513e565b613594565b6040516108169190614f37565b60405180910390f35b61083960048036038101906108349190614ef9565b6135b1565b6040516108469190614f37565b60405180910390f35b6108576136f2565b6040516108649190615169565b60405180910390f35b6108756136f9565b6040516108829190614ee0565b60405180910390f35b6108936136ff565b6040516108a09190614f37565b60405180910390f35b6108b1613711565b6040516108be9190614ee0565b60405180910390f35b6108cf61371e565b6040516108dc9190615169565b60405180910390f35b6108ed613743565b005b61090960048036038101906109049190614e79565b613814565b005b6109256004803603810190610920919061513e565b613b32565b6040516109329190614f37565b60405180910390f35b610943613b4f565b6040516109509190614ee0565b60405180910390f35b610961613b65565b60405161096e9190614ee0565b60405180910390f35b610991600480360381019061098c9190615206565b613b6b565b60405161099e9190614ee0565b60405180910390f35b6109c160048036038101906109bc9190614b16565b613bed565b005b6109dd60048036038101906109d8919061513e565b613f57565b6040516109ea9190614f37565b60405180910390f35b6109fb613fa9565b604051610a089190614ee0565b60405180910390f35b610a2b6004803603810190610a26919061513e565b6140a8565b005b610a3561412c565b604051610a429190614ee0565b60405180910390f35b610a53614131565b005b610a5d614181565b604051610a6a9190614ee0565b60405180910390f35b600d5f3373ffffffffffffffffffffffffffffffffffffffff1673ffffffffffffffffffffffffffffffffffffffff1681526020019081526020015f205f9054906101000a900460ff16610afc576040517f08c379a0000000000000000000000000000000000000000000000000000000008152600401610af39061528e565b60405180910390fd5b601160019054906101000a900460ff1615610b4c576040517f08c379a0000000000000000000000000000000000000000000000000000000008152600401610b43906152f6565b60405180910390fd5b5f600f5f8381526020019081526020015f209050806008015f9054906101000a900460ff16610bb0576040517f08c379a0000000000000000000000000000000000000000000000000000000008152600401610ba79061535e565b60405180910390fd5b600e5f8381526020019081526020015f205f3373ffffffffffffffffffffffffffffffffffffffff1673ffffffffffffffffffffffffffffffffffffffff1681526020019081526020015f205f9054906101000a900460ff1615610c49576040517f08c379a0000000000000000000000000000000000000000000000000000000008152600401610c40906153c6565b60405180910390fd5b60115f9054906101000a900460ff1615610c98576040517f08c379a0000000000000000000000000000000000000000000000000000000008152600401610c8f9061542e565b60405180910390fd5b6001600e5f8481526020019081526020015f205f3373ffffffffffffffffffffffffffffffffffffffff1673ffffffffffffffffffffffffffffffffffffffff1681526020019081526020015f205f6101000a81548160ff021916908315150217905550806001015f815480929190610d1090615479565b91905055505f600780811115610d2957610d28614b41565b5b825f015f9054906101000a900460ff166007811115610d4b57610d4a614b41565b5b14610ddb5760036007811115610d6457610d63614b41565b5b825f015f9054906101000a900460ff166007811115610d8657610d85614b41565b5b10158015610dc8575060066007811115610da357610da2614b41565b5b825f015f9054906101000a900460ff166007811115610dc557610dc4614b41565b5b11155b610dd3576005610dd6565b60035b610dde565b60025b90508082600101541115610e27576040517f08c379a0000000000000000000000000000000000000000000000000000000008152600401610e1e9061550a565b60405180910390fd5b505050565b600f602052805f5260405f205f91509050805f015f9054906101000a900460ff1690805f0160019054906101000a900473ffffffffffffffffffffffffffffffffffffffff1690806001015490806002015490806003015f9054906101000a900473ffffffffffffffffffffffffffffffffffffffff1690806004015490806005018054610eb990615555565b80601f0160208091040260200160405190810160405280929190818152602001828054610ee590615555565b8015610f305780601f10610f0757610100808354040283529160200191610f30565b820191905f5260205f20905b815481529060010190602001808311610f1357829003601f168201915b505050505090806008015f9054906101000a900460ff16905088565b600d5f3373ffffffffffffffffffffffffffffffffffffffff1673ffffffffffffffffffffffffffffffffffffffff1681526020019081526020015f205f9054906101000a900460ff16610fd5576040517f08c379a0000000000000000000000000000000000000000000000000000000008152600401610fcc9061528e565b60405180910390fd5b601160019054906101000a900460ff1615611025576040517f08c379a000000000000000000000000000000000000000000000000000000000815260040161101c906152f6565b60405180910390fd5b61102d61418d565b5f815111611070576040517f08c379a0000000000000000000000000000000000000000000000000000000008152600401611067906155f5565b60405180910390fd5b5f68056bc75e2d6310000082516110879190615613565b905060075481600b5461109a9190615654565b11156110db576040517f08c379a00000000000000000000000000000000000000000000000000000000081526004016110d2906156d1565b60405180910390fd5b5f5f90505b825181101561121f575f8382815181106110fd576110fc6156ef565b5b602002602001015190505f73ffffffffffffffffffffffffffffffffffffffff168173ffffffffffffffffffffffffffffffffffffffff1603611175576040517f08c379a000000000000000000000000000000000000000000000000000000000815260040161116c90615766565b60405180910390fd5b60085f8273ffffffffffffffffffffffffffffffffffffffff1673ffffffffffffffffffffffffffffffffffffffff1681526020019081526020015f205f9054906101000a900460ff166111fe576040517f08c379a00000000000000000000000000000000000000000000000000000000081526004016111f5906157ce565b60405180910390fd5b6112118168056bc75e2d631000006141dc565b5080806001019150506110e0565b5080600b5f8282546112319190615654565b9250508190555081604051611246919061589d565b60405180910390207eace58c0296d0e51441fa0ae300a48b39bcc117727656a85c8631b51f33b59668056bc75e2d631000006040516112859190614ee0565b60405180910390a25061129661425b565b50565b6060600380546112a890615555565b80601f01602080910402602001604051908101604052809291908181526020018280546112d490615555565b801561131f5780601f106112f65761010080835404028352916020019161131f565b820191905f5260205f20905b81548152906001019060200180831161130257829003601f168201915b5050505050905090565b61012c81565b5f5f611339614265565b905061134681858561426c565b600191505092915050565b600d5f3373ffffffffffffffffffffffffffffffffffffffff1673ffffffffffffffffffffffffffffffffffffffff1681526020019081526020015f205f9054906101000a900460ff166113da576040517f08c379a00000000000000000000000000000000000000000000000000000000081526004016113d19061528e565b60405180910390fd5b601160019054906101000a900460ff161561142a576040517f08c379a0000000000000000000000000000000000000000000000000000000008152600401611421906152f6565b60405180910390fd5b5f1515600f5f60105481526020019081526020015f206008015f9054906101000a900460ff16151514611492576040517f08c379a0000000000000000000000000000000000000000000000000000000008152600401611489906158fd565b60405180910390fd5b5f60078111156114a5576114a4614b41565b5b8660078111156114b8576114b7614b41565b5b03611505575f835111611500576040517f08c379a00000000000000000000000000000000000000000000000000000000081526004016114f790615965565b60405180910390fd5b611dc5565b6001600781111561151957611518614b41565b5b86600781111561152c5761152b614b41565b5b0361161a575f8403611573576040517f08c379a000000000000000000000000000000000000000000000000000000000815260040161156a906159f3565b60405180910390fd5b600b54846007546115849190615a1a565b12156115c5576040517f08c379a00000000000000000000000000000000000000000000000000000000081526004016115bc90615acb565b60405180910390fd5b5f846007546115d49190615a1a565b1215611615576040517f08c379a000000000000000000000000000000000000000000000000000000000815260040161160c90615b33565b60405180910390fd5b611dc4565b6002600781111561162e5761162d614b41565b5b86600781111561164157611640614b41565b5b0361191a578051825114801561165757505f8251115b611696576040517f08c379a000000000000000000000000000000000000000000000000000000000815260040161168d90615b9b565b60405180910390fd5b5f5f90505b825181101561191457600d5f8483815181106116ba576116b96156ef565b5b602002602001015173ffffffffffffffffffffffffffffffffffffffff1673ffffffffffffffffffffffffffffffffffffffff1681526020019081526020015f205f9054906101000a900460ff16611747576040517f08c379a000000000000000000000000000000000000000000000000000000000815260040161173e90615c03565b60405180910390fd5b5f73ffffffffffffffffffffffffffffffffffffffff16828281518110611771576117706156ef565b5b602002602001015173ffffffffffffffffffffffffffffffffffffffff16141580156117fe5750600d5f8383815181106117ae576117ad6156ef565b5b602002602001015173ffffffffffffffffffffffffffffffffffffffff1673ffffffffffffffffffffffffffffffffffffffff1681526020019081526020015f205f9054906101000a900460ff16155b61183d576040517f08c379a000000000000000000000000000000000000000000000000000000000815260040161183490615c6b565b60405180910390fd5b5f60018261184b9190615654565b90505b82518110156119065782818151811061186a576118696156ef565b5b602002602001015173ffffffffffffffffffffffffffffffffffffffff1683838151811061189b5761189a6156ef565b5b602002602001015173ffffffffffffffffffffffffffffffffffffffff16036118f9576040517f08c379a00000000000000000000000000000000000000000000000000000000081526004016118f090615cd3565b60405180910390fd5b808060010191505061184e565b50808060010191505061169b565b50611dc3565b6003600781111561192e5761192d614b41565b5b86600781111561194157611940614b41565b5b03611a0d575f73ffffffffffffffffffffffffffffffffffffffff168573ffffffffffffffffffffffffffffffffffffffff16141580156119c9575060085f8673ffffffffffffffffffffffffffffffffffffffff1673ffffffffffffffffffffffffffffffffffffffff1681526020019081526020015f205f9054906101000a900460ff16155b611a08576040517f08c379a00000000000000000000000000000000000000000000000000000000081526004016119ff90615d3b565b60405180910390fd5b611dc2565b60046007811115611a2157611a20614b41565b5b866007811115611a3457611a33614b41565b5b03611ac75760085f8673ffffffffffffffffffffffffffffffffffffffff1673ffffffffffffffffffffffffffffffffffffffff1681526020019081526020015f205f9054906101000a900460ff16611ac2576040517f08c379a0000000000000000000000000000000000000000000000000000000008152600401611ab990615da3565b60405180910390fd5b611dc1565b60056007811115611adb57611ada614b41565b5b866007811115611aee57611aed614b41565b5b03611bba575f73ffffffffffffffffffffffffffffffffffffffff168573ffffffffffffffffffffffffffffffffffffffff1614158015611b76575060095f8673ffffffffffffffffffffffffffffffffffffffff1673ffffffffffffffffffffffffffffffffffffffff1681526020019081526020015f205f9054906101000a900460ff16155b611bb5576040517f08c379a0000000000000000000000000000000000000000000000000000000008152600401611bac90615e0b565b60405180910390fd5b611dc0565b60066007811115611bce57611bcd614b41565b5b866007811115611be157611be0614b41565b5b03611c745760095f8673ffffffffffffffffffffffffffffffffffffffff1673ffffffffffffffffffffffffffffffffffffffff1681526020019081526020015f205f9054906101000a900460ff16611c6f576040517f08c379a0000000000000000000000000000000000000000000000000000000008152600401611c6690615e73565b60405180910390fd5b611dbf565b600780811115611c8757611c86614b41565b5b866007811115611c9a57611c99614b41565b5b03611dbe5760085f8673ffffffffffffffffffffffffffffffffffffffff1673ffffffffffffffffffffffffffffffffffffffff1681526020019081526020015f205f9054906101000a900460ff168015611d2157505f73ffffffffffffffffffffffffffffffffffffffff168573ffffffffffffffffffffffffffffffffffffffff1614155b611d60576040517f08c379a0000000000000000000000000000000000000000000000000000000008152600401611d5790615edb565b60405180910390fd5b5f84118015611d7e575060075484600b54611d7b9190615654565b11155b611dbd576040517f08c379a0000000000000000000000000000000000000000000000000000000008152600401611db490615f43565b60405180910390fd5b5b5b5b5b5b5b5b5b604051806101400160405280876007811115611de457611de3614b41565b5b81526020013373ffffffffffffffffffffffffffffffffffffffff1681526020015f815260200160026007811115611e1f57611e1e614b41565b5b886007811115611e3257611e31614b41565b5b1115611e3e5742611e4c565b607842611e4b9190615654565b5b81526020018673ffffffffffffffffffffffffffffffffffffffff16815260200185815260200184815260200183815260200182815260200160011515815250600f5f60105481526020019081526020015f205f820151815f015f6101000a81548160ff02191690836007811115611ec757611ec6614b41565b5b02179055506020820151815f0160016101000a81548173ffffffffffffffffffffffffffffffffffffffff021916908373ffffffffffffffffffffffffffffffffffffffff16021790555060408201518160010155606082015181600201556080820151816003015f6101000a81548173ffffffffffffffffffffffffffffffffffffffff021916908373ffffffffffffffffffffffffffffffffffffffff16021790555060a0820151816004015560c0820151816005019081611f8b9190616101565b5060e0820151816006019080519060200190611fa89291906149d5565b50610100820151816007019080519060200190611fc69291906149d5565b50610120820151816008015f6101000a81548160ff0219169083151502179055509050506010547f3263432a41f78a4701cc9465f62411ed717ade32290c084135a3dd6b29f4bf28873360405161201e9291906161d0565b60405180910390a260105f81548092919061203890615479565b9190505550505050505050565b601160019054906101000a900460ff1615612095576040517f08c379a000000000000000000000000000000000000000000000000000000000815260040161208c906152f6565b60405180910390fd5b5f600f5f8381526020019081526020015f209050806008015f9054906101000a900460ff166120f9576040517f08c379a00000000000000000000000000000000000000000000000000000000081526004016120f09061535e565b60405180910390fd5b8060020154421015612140576040517f08c379a000000000000000000000000000000000000000000000000000000000815260040161213790616267565b60405180910390fd5b5f60078081111561215457612153614b41565b5b825f015f9054906101000a900460ff16600781111561217657612175614b41565b5b14612206576003600781111561218f5761218e614b41565b5b825f015f9054906101000a900460ff1660078111156121b1576121b0614b41565b5b101580156121f35750600660078111156121ce576121cd614b41565b5b825f015f9054906101000a900460ff1660078111156121f0576121ef614b41565b5b11155b6121fe576005612201565b60035b612209565b60025b90508082600101541015612252576040517f08c379a0000000000000000000000000000000000000000000000000000000008152600401612249906162cf565b60405180910390fd5b5f600781111561226557612264614b41565b5b825f015f9054906101000a900460ff16600781111561228757612286614b41565b5b0361235e5761231f82600501805461229e90615555565b80601f01602080910402602001604051908101604052809291908181526020018280546122ca90615555565b80156123155780601f106122ec57610100808354040283529160200191612315565b820191905f5260205f20905b8154815290600101906020018083116122f857829003601f168201915b505050505061427e565b7f4737457377f528cc8afd815f73ecb8b05df80d047dbffc41c17750a4033592bc82600501604051612351919061636e565b60405180910390a1612af2565b6001600781111561237257612371614b41565b5b825f015f9054906101000a900460ff16600781111561239457612393614b41565b5b036123ef5781600401546007546123ab9190615a1a565b6007819055507f0acd0677fad7be9ccaf6c91ebaaca5c9c91622ac0508242d2f8feca61a0da2496007546040516123e29190614ee0565b60405180910390a1612af1565b6002600781111561240357612402614b41565b5b825f015f9054906101000a900460ff16600781111561242557612424614b41565b5b036125b3575f5f90505b826006018054905081101561256e575f600d5f856006018481548110612458576124576156ef565b5b905f5260205f20015f9054906101000a900473ffffffffffffffffffffffffffffffffffffffff1673ffffffffffffffffffffffffffffffffffffffff1673ffffffffffffffffffffffffffffffffffffffff1681526020019081526020015f205f6101000a81548160ff0219169083151502179055506001600d5f8560070184815481106124ea576124e96156ef565b5b905f5260205f20015f9054906101000a900473ffffffffffffffffffffffffffffffffffffffff1673ffffffffffffffffffffffffffffffffffffffff1673ffffffffffffffffffffffffffffffffffffffff1681526020019081526020015f205f6101000a81548160ff021916908315150217905550808060010191505061242f565b507f765616ca75e38e63dcc130430614a01fa91bfe57744073b30bf8f4ba8fa31ffc82600601836007016040516125a69291906164a4565b60405180910390a1612af0565b600360078111156125c7576125c6614b41565b5b825f015f9054906101000a900460ff1660078111156125e9576125e8614b41565b5b036126c857600160085f846003015f9054906101000a900473ffffffffffffffffffffffffffffffffffffffff1673ffffffffffffffffffffffffffffffffffffffff1673ffffffffffffffffffffffffffffffffffffffff1681526020019081526020015f205f6101000a81548160ff0219169083151502179055507fb840a1dbd8b09a3dc45161bba92dfb9aba643c0e44c085a447f839d1d02cf13b826003015f9054906101000a900473ffffffffffffffffffffffffffffffffffffffff1660016040516126bb9291906164d9565b60405180910390a1612aef565b600460078111156126dc576126db614b41565b5b825f015f9054906101000a900460ff1660078111156126fe576126fd614b41565b5b036127db575f60085f846003015f9054906101000a900473ffffffffffffffffffffffffffffffffffffffff1673ffffffffffffffffffffffffffffffffffffffff1673ffffffffffffffffffffffffffffffffffffffff1681526020019081526020015f205f6101000a81548160ff0219169083151502179055507fb840a1dbd8b09a3dc45161bba92dfb9aba643c0e44c085a447f839d1d02cf13b826003015f9054906101000a900473ffffffffffffffffffffffffffffffffffffffff165f6040516127ce9291906164d9565b60405180910390a1612aee565b600560078111156127ef576127ee614b41565b5b825f015f9054906101000a900460ff16600781111561281157612810614b41565b5b036128f057600160095f846003015f9054906101000a900473ffffffffffffffffffffffffffffffffffffffff1673ffffffffffffffffffffffffffffffffffffffff1673ffffffffffffffffffffffffffffffffffffffff1681526020019081526020015f205f6101000a81548160ff0219169083151502179055507f59fb1497b038a34329a3a1f21130e86004671a8505bf21d1a8cf5239cd359f5d826003015f9054906101000a900473ffffffffffffffffffffffffffffffffffffffff1660016040516128e39291906164d9565b60405180910390a1612aed565b6006600781111561290457612903614b41565b5b825f015f9054906101000a900460ff16600781111561292657612925614b41565b5b03612a03575f60095f846003015f9054906101000a900473ffffffffffffffffffffffffffffffffffffffff1673ffffffffffffffffffffffffffffffffffffffff1673ffffffffffffffffffffffffffffffffffffffff1681526020019081526020015f205f6101000a81548160ff0219169083151502179055507f59fb1497b038a34329a3a1f21130e86004671a8505bf21d1a8cf5239cd359f5d826003015f9054906101000a900473ffffffffffffffffffffffffffffffffffffffff165f6040516129f69291906164d9565b60405180910390a1612aec565b600780811115612a1657612a15614b41565b5b825f015f9054906101000a900460ff166007811115612a3857612a37614b41565b5b03612aeb57612a6e826003015f9054906101000a900473ffffffffffffffffffffffffffffffffffffffff1683600401546141dc565b8160040154600b5f828254612a839190615654565b925050819055507f570563f436dc733c61d3863fd95e547272964f69d7b5cfe7461360a7a5643e3c826003015f9054906101000a900473ffffffffffffffffffffffffffffffffffffffff168360040154604051612ae2929190616500565b60405180910390a15b5b5b5b5b5b5b5b612afb83614291565b600f5f8481526020019081526020015f205f5f82015f6101000a81549060ff02191690555f820160016101000a81549073ffffffffffffffffffffffffffffffffffffffff0219169055600182015f9055600282015f9055600382015f6101000a81549073ffffffffffffffffffffffffffffffffffffffff0219169055600482015f9055600582015f612b8f9190614a5c565b600682015f612b9e9190614a99565b600782015f612bad9190614a99565b600882015f6101000a81549060ff02191690555050827f5b9614f21773d68c0b149bda804ff3d491c8bc8795f7ed236cc97804cd005389835f015f9054906101000a900460ff16604051612c019190616527565b60405180910390a2505050565b612c1661418d565b601160019054906101000a900460ff1615612c66576040517f08c379a0000000000000000000000000000000000000000000000000000000008152600401612c5d906152f6565b60405180910390fd5b60085f8273ffffffffffffffffffffffffffffffffffffffff1673ffffffffffffffffffffffffffffffffffffffff1681526020019081526020015f205f9054906101000a900460ff16612cef576040517f08c379a0000000000000000000000000000000000000000000000000000000008152600401612ce6906165b0565b60405180910390fd5b5f8211612d31576040517f08c379a0000000000000000000000000000000000000000000000000000000008152600401612d289061663e565b60405180910390fd5b5f601483612d3f9190615613565b90505f8111612d83576040517f08c379a0000000000000000000000000000000000000000000000000000000008152600401612d7a906166a6565b60405180910390fd5b60075481600b54612d949190615654565b1115612dd5576040517f08c379a0000000000000000000000000000000000000000000000000000000008152600401612dcc9061670e565b60405180910390fd5b612ddf82826141dc565b80600b5f828254612df09190615654565b925050819055508173ffffffffffffffffffffffffffffffffffffffff163373ffffffffffffffffffffffffffffffffffffffff167fbadb5a53e5a7f1f292f32f4ca0c78e80d05f213db774602acc6faca5aecdf6d78584604051612e5692919061672c565b60405180910390a350612e6761425b565b5050565b5f612e758261322c565b9050919050565b5f5f905090565b601481565b5f5f9050919050565b5f600254905090565b60125481565b5f601160019054906101000a900460ff1615612ef1576040517f08c379a0000000000000000000000000000000000000000000000000000000008152600401612ee8906152f6565b60405180910390fd5b60095f8573ffffffffffffffffffffffffffffffffffffffff1673ffffffffffffffffffffffffffffffffffffffff1681526020019081526020015f205f9054906101000a900460ff1615612f7b576040517f08c379a0000000000000000000000000000000000000000000000000000000008152600401612f729061679d565b60405180910390fd5b816fffffffffffffffffffffffffffffffff168214612fcf576040517f08c379a0000000000000000000000000000000000000000000000000000000008152600401612fc690616805565b60405180910390fd5b612fda8484846142d0565b90509392505050565b600b5481565b600381565b600581565b5f5f905090565b600e602052815f5260405f20602052805f5260405f205f915091509054906101000a900460ff1681565b600d5f3373ffffffffffffffffffffffffffffffffffffffff1673ffffffffffffffffffffffffffffffffffffffff1681526020019081526020015f205f9054906101000a900460ff166130ad576040517f08c379a00000000000000000000000000000000000000000000000000000000081526004016130a49061528e565b60405180910390fd5b601160019054906101000a900460ff16156130fd576040517f08c379a00000000000000000000000000000000000000000000000000000000081526004016130f4906152f6565b60405180910390fd5b6001601160016101000a81548160ff0219169083151502179055507fab35696f06e428ebc5ceba8cd17f8fed287baf43440206d1943af1ee53e6d26760405160405180910390a1565b60606040518060400160405280600581526020017f312e302e30000000000000000000000000000000000000000000000000000000815250905090565b5f601160019054906101000a900460ff16905090565b5f5f905090565b600c80546131ad90615555565b80601f01602080910402602001604051908101604052809291908181526020018280546131d990615555565b80156132245780601f106131fb57610100808354040283529160200191613224565b820191905f5260205f20905b81548152906001019060200180831161320757829003601f168201915b505050505081565b5f5f5f8373ffffffffffffffffffffffffffffffffffffffff1673ffffffffffffffffffffffffffffffffffffffff1681526020019081526020015f20549050919050565b6132796142fe565b6132825f614385565b565b61328c6142fe565b5f60115f6101000a81548160ff0219169083151502179055507f8f69ef9279bfb1fe5f4f75790947a23fa88774e98242b966bcaaf7d25e8b3c1660405160405180910390a1565b61038481565b600d5f3373ffffffffffffffffffffffffffffffffffffffff1673ffffffffffffffffffffffffffffffffffffffff1681526020019081526020015f205f9054906101000a900460ff16613362576040517f08c379a00000000000000000000000000000000000000000000000000000000081526004016133599061528e565b60405180910390fd5b601160019054906101000a900460ff16156133b2576040517f08c379a00000000000000000000000000000000000000000000000000000000081526004016133a9906152f6565b60405180910390fd5b61012c6012546133c29190615654565b421015613404576040517f08c379a00000000000000000000000000000000000000000000000000000000081526004016133fb90616893565b60405180910390fd5b600754670de0b6b3a7640000600b5461341d9190615654565b111561345e576040517f08c379a00000000000000000000000000000000000000000000000000000000081526004016134559061670e565b60405180910390fd5b426012819055507f90596ca0cb29ef99cd530e572920440d7d040408f92c28e46836fe9e048f59d8670de0b6b3a764000060405161349c9190614ee0565b60405180910390a1565b601160019054906101000a900460ff1681565b5f60055f9054906101000a900473ffffffffffffffffffffffffffffffffffffffff16905090565b60075481565b6060600480546134f690615555565b80601f016020809104026020016040519081016040528092919081815260200182805461352290615555565b801561356d5780601f106135445761010080835404028352916020019161356d565b820191905f5260205f20905b81548152906001019060200180831161355057829003601f168201915b5050505050905090565b6008602052805f5260405f205f915054906101000a900460ff1681565b600d602052805f5260405f205f915054906101000a900460ff1681565b5f601160019054906101000a900460ff1615613602576040517f08c379a00000000000000000000000000000000000000000000000000000000081526004016135f9906152f6565b60405180910390fd5b60095f3373ffffffffffffffffffffffffffffffffffffffff1673ffffffffffffffffffffffffffffffffffffffff1681526020019081526020015f205f9054906101000a900460ff161561368c576040517f08c379a00000000000000000000000000000000000000000000000000000000081526004016136839061679d565b60405180910390fd5b816fffffffffffffffffffffffffffffffff1682146136e0576040517f08c379a00000000000000000000000000000000000000000000000000000000081526004016136d790616805565b60405180910390fd5b6136ea8383614448565b905092915050565b5f30905090565b60135481565b60115f9054906101000a900460ff1681565b68056bc75e2d6310000081565b600a5f9054906101000a900473ffffffffffffffffffffffffffffffffffffffff1681565b600d5f3373ffffffffffffffffffffffffffffffffffffffff1673ffffffffffffffffffffffffffffffffffffffff1681526020019081526020015f205f9054906101000a900460ff166137cc576040517f08c379a00000000000000000000000000000000000000000000000000000000081526004016137c39061528e565b60405180910390fd5b5f601160016101000a81548160ff0219169083151502179055507fab5f6dacf93a267a93a533de8a56370de8341bbd8102017307e7be375c3dda6a60405160405180910390a1565b601160019054906101000a900460ff1615613864576040517f08c379a000000000000000000000000000000000000000000000000000000000815260040161385b906152f6565b60405180910390fd5b61386c61418d565b61038460135461387c9190615654565b4210156138be576040517f08c379a00000000000000000000000000000000000000000000000000000000081526004016138b590616921565b60405180910390fd5b5f815111613901576040517f08c379a00000000000000000000000000000000000000000000000000000000081526004016138f8906155f5565b60405180910390fd5b5f68056bc75e2d6310000082516139189190615613565b905060075481600b5461392b9190615654565b111561396c576040517f08c379a0000000000000000000000000000000000000000000000000000000008152600401613963906156d1565b60405180910390fd5b5f5f90505b8251811015613ab0575f83828151811061398e5761398d6156ef565b5b602002602001015190505f73ffffffffffffffffffffffffffffffffffffffff168173ffffffffffffffffffffffffffffffffffffffff1603613a06576040517f08c379a00000000000000000000000000000000000000000000000000000000081526004016139fd90615766565b60405180910390fd5b60085f8273ffffffffffffffffffffffffffffffffffffffff1673ffffffffffffffffffffffffffffffffffffffff1681526020019081526020015f205f9054906101000a900460ff16613a8f576040517f08c379a0000000000000000000000000000000000000000000000000000000008152600401613a86906157ce565b60405180910390fd5b613aa28168056bc75e2d631000006141dc565b508080600101915050613971565b5080600b5f828254613ac29190615654565b925050819055504260138190555081604051613ade919061589d565b60405180910390207f31b132428711df87f151486dee14555a717fc1bff73b44cee1e901aacb466ca968056bc75e2d63100000604051613b1e9190614ee0565b60405180910390a250613b2f61425b565b50565b6009602052805f5260405f205f915054906101000a900460ff1681565b5f600b54600754613b60919061693f565b905090565b60105481565b5f60015f8473ffffffffffffffffffffffffffffffffffffffff1673ffffffffffffffffffffffffffffffffffffffff1681526020019081526020015f205f8373ffffffffffffffffffffffffffffffffffffffff1673ffffffffffffffffffffffffffffffffffffffff1681526020019081526020015f2054905092915050565b601160019054906101000a900460ff1615613c3d576040517f08c379a0000000000000000000000000000000000000000000000000000000008152600401613c34906152f6565b60405180910390fd5b5f600f5f8381526020019081526020015f209050806008015f9054906101000a900460ff16613ca1576040517f08c379a0000000000000000000000000000000000000000000000000000000008152600401613c989061535e565b60405180910390fd5b805f0160019054906101000a900473ffffffffffffffffffffffffffffffffffffffff1673ffffffffffffffffffffffffffffffffffffffff163373ffffffffffffffffffffffffffffffffffffffff1614613d32576040517f08c379a0000000000000000000000000000000000000000000000000000000008152600401613d29906169bc565b60405180910390fd5b60026007811115613d4657613d45614b41565b5b815f015f9054906101000a900460ff166007811115613d6857613d67614b41565b5b1115613da9576040517f08c379a0000000000000000000000000000000000000000000000000000000008152600401613da090616a4a565b60405180910390fd5b600581600101541015613df1576040517f08c379a0000000000000000000000000000000000000000000000000000000008152600401613de890616ab2565b60405180910390fd5b80600201544210613e37576040517f08c379a0000000000000000000000000000000000000000000000000000000008152600401613e2e90616b40565b60405180910390fd5b613e4082614291565b5f815f015f9054906101000a900460ff169050600f5f8481526020019081526020015f205f5f82015f6101000a81549060ff02191690555f820160016101000a81549073ffffffffffffffffffffffffffffffffffffffff0219169055600182015f9055600282015f9055600382015f6101000a81549073ffffffffffffffffffffffffffffffffffffffff0219169055600482015f9055600582015f613ee79190614a5c565b600682015f613ef69190614a99565b600782015f613f059190614a99565b600882015f6101000a81549060ff02191690555050827f89616a339342f36e4dcecc713f695bcbfe35fea112c4c652da7e1656bd486ce882604051613f4a9190616527565b60405180910390a2505050565b5f60095f8373ffffffffffffffffffffffffffffffffffffffff1673ffffffffffffffffffffffffffffffffffffffff1681526020019081526020015f205f9054906101000a900460ff169050919050565b5f5f600a5f9054906101000a900473ffffffffffffffffffffffffffffffffffffffff1690505f8173ffffffffffffffffffffffffffffffffffffffff16633850c7bd6040518163ffffffff1660e01b815260040160e060405180830381865afa158015614019573d5f5f3e3d5ffd5b505050506040513d601f19601f8201168201806040525081019061403d9190616c49565b505050505050905078010000000000000000000000000000000000000000000000008173ffffffffffffffffffffffffffffffffffffffff168273ffffffffffffffffffffffffffffffffffffffff166140979190615613565b6140a19190616d13565b9250505090565b6140b06142fe565b5f73ffffffffffffffffffffffffffffffffffffffff168173ffffffffffffffffffffffffffffffffffffffff1603614120575f6040517f1e4fbdf70000000000000000000000000000000000000000000000000000000081526004016141179190615169565b60405180910390fd5b61412981614385565b50565b600281565b6141396142fe565b600160115f6101000a81548160ff0219169083151502179055507f20c53179fe7c6306d9d1c279d52bae5e736f5e1178137542d3a7a9d1752691be60405160405180910390a1565b670de0b6b3a764000081565b6002600654036141d2576040517f08c379a00000000000000000000000000000000000000000000000000000000081526004016141c990616d8d565b60405180910390fd5b6002600681905550565b5f73ffffffffffffffffffffffffffffffffffffffff168273ffffffffffffffffffffffffffffffffffffffff160361424c575f6040517fec442f050000000000000000000000000000000000000000000000000000000081526004016142439190615169565b60405180910390fd5b6142575f838361446a565b5050565b6001600681905550565b5f33905090565b6142798383836001614683565b505050565b80600c908161428d9190616101565b5050565b5f5f90505b6010548110156142cc57600f5f8281526020019081526020015f206008015f9054906101000a9050508080600101915050614296565b5050565b5f5f6142da614265565b90506142e7858285614852565b6142f28585856148e5565b60019150509392505050565b614306614265565b73ffffffffffffffffffffffffffffffffffffffff166143246134b9565b73ffffffffffffffffffffffffffffffffffffffff161461438357614347614265565b6040517f118cdaa700000000000000000000000000000000000000000000000000000000815260040161437a9190615169565b60405180910390fd5b565b5f60055f9054906101000a900473ffffffffffffffffffffffffffffffffffffffff1690508160055f6101000a81548173ffffffffffffffffffffffffffffffffffffffff021916908373ffffffffffffffffffffffffffffffffffffffff1602179055508173ffffffffffffffffffffffffffffffffffffffff168173ffffffffffffffffffffffffffffffffffffffff167f8be0079c531659141344cd1fd0a4f28419497f9722a3daafe3b4186f6b6457e060405160405180910390a35050565b5f5f614452614265565b905061445f8185856148e5565b600191505092915050565b5f73ffffffffffffffffffffffffffffffffffffffff168373ffffffffffffffffffffffffffffffffffffffff16036144ba578060025f8282546144ae9190615654565b92505081905550614588565b5f5f5f8573ffffffffffffffffffffffffffffffffffffffff1673ffffffffffffffffffffffffffffffffffffffff1681526020019081526020015f2054905081811015614543578381836040517fe450d38c00000000000000000000000000000000000000000000000000000000815260040161453a93929190616dab565b60405180910390fd5b8181035f5f8673ffffffffffffffffffffffffffffffffffffffff1673ffffffffffffffffffffffffffffffffffffffff1681526020019081526020015f2081905550505b5f73ffffffffffffffffffffffffffffffffffffffff168273ffffffffffffffffffffffffffffffffffffffff16036145cf578060025f8282540392505081905550614619565b805f5f8473ffffffffffffffffffffffffffffffffffffffff1673ffffffffffffffffffffffffffffffffffffffff1681526020019081526020015f205f82825401925050819055505b8173ffffffffffffffffffffffffffffffffffffffff168373ffffffffffffffffffffffffffffffffffffffff167fddf252ad1be2c89b69c2b068fc378daa952ba7f163c4a11628f55a4df523b3ef836040516146769190614ee0565b60405180910390a3505050565b5f73ffffffffffffffffffffffffffffffffffffffff168473ffffffffffffffffffffffffffffffffffffffff16036146f3575f6040517fe602df050000000000000000000000000000000000000000000000000000000081526004016146ea9190615169565b60405180910390fd5b5f73ffffffffffffffffffffffffffffffffffffffff168373ffffffffffffffffffffffffffffffffffffffff1603614763575f6040517f94280d6200000000000000000000000000000000000000000000000000000000815260040161475a9190615169565b60405180910390fd5b8160015f8673ffffffffffffffffffffffffffffffffffffffff1673ffffffffffffffffffffffffffffffffffffffff1681526020019081526020015f205f8573ffffffffffffffffffffffffffffffffffffffff1673ffffffffffffffffffffffffffffffffffffffff1681526020019081526020015f2081905550801561484c578273ffffffffffffffffffffffffffffffffffffffff168473ffffffffffffffffffffffffffffffffffffffff167f8c5be1e5ebec7d5bd14f71427d1e84f3dd0314c0f7b2291e5b200ac8c7c3b925846040516148439190614ee0565b60405180910390a35b50505050565b5f61485d8484613b6b565b90507fffffffffffffffffffffffffffffffffffffffffffffffffffffffffffffffff8110156148df57818110156148d0578281836040517ffb8f41b20000000000000000000000000000000000000000000000000000000081526004016148c793929190616dab565b60405180910390fd5b6148de84848484035f614683565b5b50505050565b5f73ffffffffffffffffffffffffffffffffffffffff168373ffffffffffffffffffffffffffffffffffffffff1603614955575f6040517f96c6fd1e00000000000000000000000000000000000000000000000000000000815260040161494c9190615169565b60405180910390fd5b5f73ffffffffffffffffffffffffffffffffffffffff168273ffffffffffffffffffffffffffffffffffffffff16036149c5575f6040517fec442f050000000000000000000000000000000000000000000000000000000081526004016149bc9190615169565b60405180910390fd5b6149d083838361446a565b505050565b828054828255905f5260205f20908101928215614a4b579160200282015b82811115614a4a578251825f6101000a81548173ffffffffffffffffffffffffffffffffffffffff021916908373ffffffffffffffffffffffffffffffffffffffff160217905550916020019190600101906149f3565b5b509050614a589190614ab7565b5090565b508054614a6890615555565b5f825580601f10614a795750614a96565b601f0160209004905f5260205f2090810190614a959190614ab7565b5b50565b5080545f8255905f5260205f2090810190614ab49190614ab7565b50565b5b80821115614ace575f815f905550600101614ab8565b5090565b5f604051905090565b5f5ffd5b5f5ffd5b5f819050919050565b614af581614ae3565b8114614aff575f5ffd5b50565b5f81359050614b1081614aec565b92915050565b5f60208284031215614b2b57614b2a614adb565b5b5f614b3884828501614b02565b91505092915050565b7f4e487b71000000000000000000000000000000000000000000000000000000005f52602160045260245ffd5b60088110614b7f57614b7e614b41565b5b50565b5f819050614b8f82614b6e565b919050565b5f614b9e82614b82565b9050919050565b614bae81614b94565b82525050565b5f73ffffffffffffffffffffffffffffffffffffffff82169050919050565b5f614bdd82614bb4565b9050919050565b614bed81614bd3565b82525050565b614bfc81614ae3565b82525050565b5f81519050919050565b5f82825260208201905092915050565b8281835e5f83830152505050565b5f601f19601f8301169050919050565b5f614c4482614c02565b614c4e8185614c0c565b9350614c5e818560208601614c1c565b614c6781614c2a565b840191505092915050565b5f8115159050919050565b614c8681614c72565b82525050565b5f61010082019050614ca05f83018b614ba5565b614cad602083018a614be4565b614cba6040830189614bf3565b614cc76060830188614bf3565b614cd46080830187614be4565b614ce160a0830186614bf3565b81810360c0830152614cf38185614c3a565b9050614d0260e0830184614c7d565b9998505050505050505050565b5f5ffd5b7f4e487b71000000000000000000000000000000000000000000000000000000005f52604160045260245ffd5b614d4982614c2a565b810181811067ffffffffffffffff82111715614d6857614d67614d13565b5b80604052505050565b5f614d7a614ad2565b9050614d868282614d40565b919050565b5f67ffffffffffffffff821115614da557614da4614d13565b5b602082029050602081019050919050565b5f5ffd5b614dc381614bd3565b8114614dcd575f5ffd5b50565b5f81359050614dde81614dba565b92915050565b5f614df6614df184614d8b565b614d71565b90508083825260208201905060208402830185811115614e1957614e18614db6565b5b835b81811015614e425780614e2e8882614dd0565b845260208401935050602081019050614e1b565b5050509392505050565b5f82601f830112614e6057614e5f614d0f565b5b8135614e70848260208601614de4565b91505092915050565b5f60208284031215614e8e57614e8d614adb565b5b5f82013567ffffffffffffffff811115614eab57614eaa614adf565b5b614eb784828501614e4c565b91505092915050565b5f6020820190508181035f830152614ed88184614c3a565b905092915050565b5f602082019050614ef35f830184614bf3565b92915050565b5f5f60408385031215614f0f57614f0e614adb565b5b5f614f1c85828601614dd0565b9250506020614f2d85828601614b02565b9150509250929050565b5f602082019050614f4a5f830184614c7d565b92915050565b60088110614f5c575f5ffd5b50565b5f81359050614f6d81614f50565b92915050565b5f5ffd5b5f67ffffffffffffffff821115614f9157614f90614d13565b5b614f9a82614c2a565b9050602081019050919050565b828183375f83830152505050565b5f614fc7614fc284614f77565b614d71565b905082815260208101848484011115614fe357614fe2614f73565b5b614fee848285614fa7565b509392505050565b5f82601f83011261500a57615009614d0f565b5b813561501a848260208601614fb5565b91505092915050565b5f5f5f5f5f5f60c0878903121561503d5761503c614adb565b5b5f61504a89828a01614f5f565b965050602061505b89828a01614dd0565b955050604061506c89828a01614b02565b945050606087013567ffffffffffffffff81111561508d5761508c614adf565b5b61509989828a01614ff6565b935050608087013567ffffffffffffffff8111156150ba576150b9614adf565b5b6150c689828a01614e4c565b92505060a087013567ffffffffffffffff8111156150e7576150e6614adf565b5b6150f389828a01614e4c565b9150509295509295509295565b5f5f6040838503121561511657615115614adb565b5b5f61512385828601614b02565b925050602061513485828601614dd0565b9150509250929050565b5f6020828403121561515357615152614adb565b5b5f61516084828501614dd0565b91505092915050565b5f60208201905061517c5f830184614be4565b92915050565b5f5f5f6060848603121561519957615198614adb565b5b5f6151a686828701614dd0565b93505060206151b786828701614dd0565b92505060406151c886828701614b02565b9150509250925092565b5f60ff82169050919050565b6151e7816151d2565b82525050565b5f6020820190506152005f8301846151de565b92915050565b5f5f6040838503121561521c5761521b614adb565b5b5f61522985828601614dd0565b925050602061523a85828601614dd0565b9150509250929050565b7f4e6f74206120766f7465720000000000000000000000000000000000000000005f82015250565b5f615278600b83614c0c565b915061528382615244565b602082019050919050565b5f6020820190508181035f8301526152a58161526c565b9050919050565b7f54686520636f6e747261637420686173206265656e2073757370656e646564005f82015250565b5f6152e0601f83614c0c565b91506152eb826152ac565b602082019050919050565b5f6020820190508181035f83015261530d816152d4565b9050919050565b7f4e6f206163746976652070726f706f73616c73000000000000000000000000005f82015250565b5f615348601383614c0c565b915061535382615314565b602082019050919050565b5f6020820190508181035f8301526153758161533c565b9050919050565b7f566f7465640000000000000000000000000000000000000000000000000000005f82015250565b5f6153b0600583614c0c565b91506153bb8261537c565b602082019050919050565b5f6020820190508181035f8301526153dd816153a4565b9050919050565b7f566f74696e6720686173206265656e2073757370656e646564000000000000005f82015250565b5f615418601983614c0c565b9150615423826153e4565b602082019050919050565b5f6020820190508181035f8301526154458161540c565b9050919050565b7f4e487b71000000000000000000000000000000000000000000000000000000005f52601160045260245ffd5b5f61548382614ae3565b91507fffffffffffffffffffffffffffffffffffffffffffffffffffffffffffffffff82036154b5576154b461544c565b5b600182019050919050565b7f546865206e756d626572206f6620766f746573206973206578636565646564005f82015250565b5f6154f4601f83614c0c565b91506154ff826154c0565b602082019050919050565b5f6020820190508181035f830152615521816154e8565b9050919050565b7f4e487b71000000000000000000000000000000000000000000000000000000005f52602260045260245ffd5b5f600282049050600182168061556c57607f821691505b60208210810361557f5761557e615528565b5b50919050565b7f57686974656c6973742061646472657373657320617272617920697320656d705f8201527f7479000000000000000000000000000000000000000000000000000000000000602082015250565b5f6155df602283614c0c565b91506155ea82615585565b604082019050919050565b5f6020820190508181035f83015261560c816155d3565b9050919050565b5f61561d82614ae3565b915061562883614ae3565b925082820261563681614ae3565b9150828204841483151761564d5761564c61544c565b5b5092915050565b5f61565e82614ae3565b915061566983614ae3565b92508282019050808211156156815761568061544c565b5b92915050565b7f4578636565647320746f74616c20737570706c790000000000000000000000005f82015250565b5f6156bb601483614c0c565b91506156c682615687565b602082019050919050565b5f6020820190508181035f8301526156e8816156af565b9050919050565b7f4e487b71000000000000000000000000000000000000000000000000000000005f52603260045260245ffd5b7f496e76616c696420726563697069656e742061646472657373000000000000005f82015250565b5f615750601983614c0c565b915061575b8261571c565b602082019050919050565b5f6020820190508181035f83015261577d81615744565b9050919050565b7f526563697069656e74206e6f7420696e2077686974656c6973740000000000005f82015250565b5f6157b8601a83614c0c565b91506157c382615784565b602082019050919050565b5f6020820190508181035f8301526157e5816157ac565b9050919050565b5f81519050919050565b5f81905092915050565b5f819050602082019050919050565b61581881614bd3565b82525050565b5f615829838361580f565b60208301905092915050565b5f602082019050919050565b5f61584b826157ec565b61585581856157f6565b935061586083615800565b805f5b83811015615890578151615877888261581e565b975061588283615835565b925050600181019050615863565b5085935050505092915050565b5f6158a88284615841565b915081905092915050565b7f546865726520617265206163746976652070726f706f73616c730000000000005f82015250565b5f6158e7601a83614c0c565b91506158f2826158b3565b602082019050919050565b5f6020820190508181035f830152615914816158db565b9050919050565b7f546865206e616d652063616e6e6f7420626520656d70747900000000000000005f82015250565b5f61594f601883614c0c565b915061595a8261591b565b602082019050919050565b5f6020820190508181035f83015261597c81615943565b9050919050565b7f5468652061646a7573746d656e7420616d6f756e742063616e6e6f74206265205f8201527f7a65726f00000000000000000000000000000000000000000000000000000000602082015250565b5f6159dd602483614c0c565b91506159e882615983565b604082019050919050565b5f6020820190508181035f830152615a0a816159d1565b9050919050565b5f819050919050565b5f615a2482615a11565b9150615a2f83615a11565b92508282019050828112155f8312168382125f841215161715615a5557615a5461544c565b5b92915050565b7f54686520737570706c792063616e6e6f74206265206c657373207468616e20745f8201527f6865206d696e74656420616d6f756e7400000000000000000000000000000000602082015250565b5f615ab5603083614c0c565b9150615ac082615a5b565b604082019050919050565b5f6020820190508181035f830152615ae281615aa9565b9050919050565b7f54686520737570706c792063616e6e6f74206265206e656761746976650000005f82015250565b5f615b1d601d83614c0c565b9150615b2882615ae9565b602082019050919050565b5f6020820190508181035f830152615b4a81615b11565b9050919050565b7f54686520766f74657220617272617920697320696e76616c69640000000000005f82015250565b5f615b85601a83614c0c565b9150615b9082615b51565b602082019050919050565b5f6020820190508181035f830152615bb281615b79565b9050919050565b7f4f6c6420766f746572732061726520696e76616c6964000000000000000000005f82015250565b5f615bed601683614c0c565b9150615bf882615bb9565b602082019050919050565b5f6020820190508181035f830152615c1a81615be1565b9050919050565b7f4e657720766f7465727320617265206e6f742076616c696400000000000000005f82015250565b5f615c55601883614c0c565b9150615c6082615c21565b602082019050919050565b5f6020820190508181035f830152615c8281615c49565b9050919050565b7f4e657720766f74657273207265706561740000000000000000000000000000005f82015250565b5f615cbd601183614c0c565b9150615cc882615c89565b602082019050919050565b5f6020820190508181035f830152615cea81615cb1565b9050919050565b7f496e76616c6964206f722077686974656c6973746564000000000000000000005f82015250565b5f615d25601683614c0c565b9150615d3082615cf1565b602082019050919050565b5f6020820190508181035f830152615d5281615d19565b9050919050565b7f4e6f74206f6e207468652077686974656c6973740000000000000000000000005f82015250565b5f615d8d601483614c0c565b9150615d9882615d59565b602082019050919050565b5f6020820190508181035f830152615dba81615d81565b9050919050565b7f496e76616c6964206f722066726f7a656e0000000000000000000000000000005f82015250565b5f615df5601183614c0c565b9150615e0082615dc1565b602082019050919050565b5f6020820190508181035f830152615e2281615de9565b9050919050565b7f4e6f742066726f7a656e000000000000000000000000000000000000000000005f82015250565b5f615e5d600a83614c0c565b9150615e6882615e29565b602082019050919050565b5f6020820190508181035f830152615e8a81615e51565b9050919050565b7f496e76616c696420726563697069656e747300000000000000000000000000005f82015250565b5f615ec5601283614c0c565b9150615ed082615e91565b602082019050919050565b5f6020820190508181035f830152615ef281615eb9565b9050919050565b7f4e756d626572206f6620696e76616c6964206d696e74730000000000000000005f82015250565b5f615f2d601783614c0c565b9150615f3882615ef9565b602082019050919050565b5f6020820190508181035f830152615f5a81615f21565b9050919050565b5f819050815f5260205f209050919050565b5f6020601f8301049050919050565b5f82821b905092915050565b5f60088302615fbd7fffffffffffffffffffffffffffffffffffffffffffffffffffffffffffffffff82615f82565b615fc78683615f82565b95508019841693508086168417925050509392505050565b5f819050919050565b5f616002615ffd615ff884614ae3565b615fdf565b614ae3565b9050919050565b5f819050919050565b61601b83615fe8565b61602f61602782616009565b848454615f8e565b825550505050565b5f5f905090565b616046616037565b616051818484616012565b505050565b5b81811015616074576160695f8261603e565b600181019050616057565b5050565b601f8211156160b95761608a81615f61565b61609384615f73565b810160208510156160a2578190505b6160b66160ae85615f73565b830182616056565b50505b505050565b5f82821c905092915050565b5f6160d95f19846008026160be565b1980831691505092915050565b5f6160f183836160ca565b9150826002028217905092915050565b61610a82614c02565b67ffffffffffffffff81111561612357616122614d13565b5b61612d8254615555565b616138828285616078565b5f60209050601f831160018114616169575f8415616157578287015190505b61616185826160e6565b8655506161c8565b601f19841661617786615f61565b5f5b8281101561619e57848901518255600182019150602085019450602081019050616179565b868310156161bb57848901516161b7601f8916826160ca565b8355505b6001600288020188555050505b505050505050565b5f6040820190506161e35f830185614ba5565b6161f06020830184614be4565b9392505050565b7f50726f706f73616c20657865637574696f6e2074696d65206e6f7420726561635f8201527f6865640000000000000000000000000000000000000000000000000000000000602082015250565b5f616251602383614c0c565b915061625c826161f7565b604082019050919050565b5f6020820190508181035f83015261627e81616245565b9050919050565b7f546865726520617265206e6f7420656e6f75676820766f7465730000000000005f82015250565b5f6162b9601a83614c0c565b91506162c482616285565b602082019050919050565b5f6020820190508181035f8301526162e6816162ad565b9050919050565b5f81546162f981615555565b6163038186614c0c565b9450600182165f811461631d576001811461633357616365565b60ff198316865281151560200286019350616365565b61633c85615f61565b5f5b8381101561635d5781548189015260018201915060208101905061633e565b808801955050505b50505092915050565b5f6020820190508181035f83015261638681846162ed565b905092915050565b5f81549050919050565b5f82825260208201905092915050565b5f819050815f5260205f209050919050565b6163c381614bd3565b82525050565b5f6163d483836163ba565b60208301905092915050565b5f815f1c9050919050565b5f73ffffffffffffffffffffffffffffffffffffffff82169050919050565b5f61641c616417836163e0565b6163eb565b9050919050565b5f61642e825461640a565b9050919050565b5f600182019050919050565b5f61644b8261638e565b6164558185616398565b9350616460836163a8565b805f5b838110156164975761647482616423565b61647e88826163c9565b975061648983616435565b925050600181019050616463565b5085935050505092915050565b5f6040820190508181035f8301526164bc8185616441565b905081810360208301526164d08184616441565b90509392505050565b5f6040820190506164ec5f830185614be4565b6164f96020830184614c7d565b9392505050565b5f6040820190506165135f830185614be4565b6165206020830184614bf3565b9392505050565b5f60208201905061653a5f830184614ba5565b92915050565b7f5468652064657374696e6174696f6e2061646472657373206973206e6f7420695f8201527f6e207468652077686974656c6973740000000000000000000000000000000000602082015250565b5f61659a602f83614c0c565b91506165a582616540565b604082019050919050565b5f6020820190508181035f8301526165c78161658e565b9050919050565b7f54686520696e707574207175616e74697479206d7573742062652067726561745f8201527f6572207468616e207a65726f0000000000000000000000000000000000000000602082015250565b5f616628602c83614c0c565b9150616633826165ce565b604082019050919050565b5f6020820190508181035f8301526166558161661c565b9050919050565b7f434320546865207175616e7469747920697320746f6f20736d616c6c000000005f82015250565b5f616690601c83614c0c565b915061669b8261665c565b602082019050919050565b5f6020820190508181035f8301526166bd81616684565b9050919050565b7f457863656564732074686520746f74616c20737570706c7900000000000000005f82015250565b5f6166f8601883614c0c565b9150616703826166c4565b602082019050919050565b5f6020820190508181035f830152616725816166ec565b9050919050565b5f60408201905061673f5f830185614bf3565b61674c6020830184614bf3565b9392505050565b7f5468652073656e6465722069732066726f7a656e0000000000000000000000005f82015250565b5f616787601483614c0c565b915061679282616753565b602082019050919050565b5f6020820190508181035f8301526167b48161677b565b9050919050565b7f546865207175616e74697479206d75737420626520616e20696e7465676572005f82015250565b5f6167ef601f83614c0c565b91506167fa826167bb565b602082019050919050565b5f6020820190508181035f83015261681c816167e3565b9050919050565b7f54686520646973747269627574696f6e20696e74657276616c20686173206e6f5f8201527f74206265656e2072656163686564000000000000000000000000000000000000602082015250565b5f61687d602e83614c0c565b915061688882616823565b604082019050919050565b5f6020820190508181035f8301526168aa81616871565b9050919050565b7f4175746f206261746368206d696e7420696e74657276616c206e6f74207265615f8201527f6368656400000000000000000000000000000000000000000000000000000000602082015250565b5f61690b602483614c0c565b9150616916826168b1565b604082019050919050565b5f6020820190508181035f830152616938816168ff565b9050919050565b5f61694982614ae3565b915061695483614ae3565b925082820390508181111561696c5761696b61544c565b5b92915050565b7f4f6e6c792074686520696e69746961746f722063616e2063616e63656c0000005f82015250565b5f6169a6601d83614c0c565b91506169b182616972565b602082019050919050565b5f6020820190508181035f8301526169d38161699a565b9050919050565b7f4f6e6c79206e616d652c20737570706c792c206f7220766f7465722070726f705f8201527f6f73616c732063616e2062652063616e63656c65640000000000000000000000602082015250565b5f616a34603583614c0c565b9150616a3f826169da565b604082019050919050565b5f6020820190508181035f830152616a6181616a28565b9050919050565b7f5468652070726f706f73616c20776173206e6f7420617070726f7665640000005f82015250565b5f616a9c601d83614c0c565b9150616aa782616a68565b602082019050919050565b5f6020820190508181035f830152616ac981616a90565b9050919050565b7f5468652063616e63656c6c6174696f6e2077696e646f7720697320636c6f73655f8201527f6400000000000000000000000000000000000000000000000000000000000000602082015250565b5f616b2a602183614c0c565b9150616b3582616ad0565b604082019050919050565b5f6020820190508181035f830152616b5781616b1e565b9050919050565b616b6781614bb4565b8114616b71575f5ffd5b50565b5f81519050616b8281616b5e565b92915050565b5f8160020b9050919050565b616b9d81616b88565b8114616ba7575f5ffd5b50565b5f81519050616bb881616b94565b92915050565b5f61ffff82169050919050565b616bd481616bbe565b8114616bde575f5ffd5b50565b5f81519050616bef81616bcb565b92915050565b616bfe816151d2565b8114616c08575f5ffd5b50565b5f81519050616c1981616bf5565b92915050565b616c2881614c72565b8114616c32575f5ffd5b50565b5f81519050616c4381616c1f565b92915050565b5f5f5f5f5f5f5f60e0888a031215616c6457616c63614adb565b5b5f616c718a828b01616b74565b9750506020616c828a828b01616baa565b9650506040616c938a828b01616be1565b9550506060616ca48a828b01616be1565b9450506080616cb58a828b01616be1565b93505060a0616cc68a828b01616c0b565b92505060c0616cd78a828b01616c35565b91505092959891949750929550565b7f4e487b71000000000000000000000000000000000000000000000000000000005f52601260045260245ffd5b5f616d1d82614ae3565b9150616d2883614ae3565b925082616d3857616d37616ce6565b5b828204905092915050565b7f5265656e7472616e637947756172643a207265656e7472616e742063616c6c005f82015250565b5f616d77601f83614c0c565b9150616d8282616d43565b602082019050919050565b5f6020820190508181035f830152616da481616d6b565b9050919050565b5f606082019050616dbe5f830186614be4565b616dcb6020830185614bf3565b616dd86040830184614bf3565b94935050505056fea264697066735822122002f1c759e665d28d60c5e94d0e625e848bf682515b5fb70fcbfc63d6461d0fd364736f6c634300081e0033",
			"opcodes": "PUSH1 0x80 PUSH1 0x40 MSTORE PUSH10 0x69E10DE76676D0800000 PUSH1 0x7 SSTORE CALLVALUE DUP1 ISZERO PUSH2 0x1D JUMPI PUSH0 PUSH0 REVERT JUMPDEST POP PUSH1 0x40 MLOAD PUSH2 0x7AF2 CODESIZE SUB DUP1 PUSH2 0x7AF2 DUP4 CODECOPY DUP2 DUP2 ADD PUSH1 0x40 MSTORE DUP2 ADD SWAP1 PUSH2 0x3F SWAP2 SWAP1 PUSH2 0x721 JUMP JUMPDEST CALLER DUP4 PUSH1 0x40 MLOAD DUP1 PUSH1 0x40 ADD PUSH1 0x40 MSTORE DUP1 PUSH1 0x2 DUP2 MSTORE PUSH1 0x20 ADD PUSH32 0x4343000000000000000000000000000000000000000000000000000000000000 DUP2 MSTORE POP DUP2 PUSH1 0x3 SWAP1 DUP2 PUSH2 0x86 SWAP2 SWAP1 PUSH2 0x9D5 JUMP JUMPDEST POP DUP1 PUSH1 0x4 SWAP1 DUP2 PUSH2 0x96 SWAP2 SWAP1 PUSH2 0x9D5 JUMP JUMPDEST POP POP POP PUSH0 PUSH20 0xFFFFFFFFFFFFFFFFFFFFFFFFFFFFFFFFFFFFFFFF AND DUP2 PUSH20 0xFFFFFFFFFFFFFFFFFFFFFFFFFFFFFFFFFFFFFFFF AND SUB PUSH2 0x109 JUMPI PUSH0 PUSH1 0x40 MLOAD PUSH32 0x1E4FBDF700000000000000000000000000000000000000000000000000000000 DUP2 MSTORE PUSH1 0x4 ADD PUSH2 0x100 SWAP2 SWAP1 PUSH2 0xAB3 JUMP JUMPDEST PUSH1 0x40 MLOAD DUP1 SWAP2 SUB SWAP1 REVERT JUMPDEST PUSH2 0x118 DUP2 PUSH2 0x3F3 PUSH1 0x20 SHL PUSH1 0x20 SHR JUMP JUMPDEST POP PUSH1 0x1 PUSH1 0x6 DUP2 SWAP1 SSTORE POP PUSH0 DUP3 MLOAD GT PUSH2 0x164 JUMPI PUSH1 0x40 MLOAD PUSH32 0x8C379A000000000000000000000000000000000000000000000000000000000 DUP2 MSTORE PUSH1 0x4 ADD PUSH2 0x15B SWAP1 PUSH2 0xB4C JUMP JUMPDEST PUSH1 0x40 MLOAD DUP1 SWAP2 SUB SWAP1 REVERT JUMPDEST PUSH0 DUP2 MLOAD GT PUSH2 0x1A7 JUMPI PUSH1 0x40 MLOAD PUSH32 0x8C379A000000000000000000000000000000000000000000000000000000000 DUP2 MSTORE PUSH1 0x4 ADD PUSH2 0x19E SWAP1 PUSH2 0xBB4 JUMP JUMPDEST PUSH1 0x40 MLOAD DUP1 SWAP2 SUB SWAP1 REVERT JUMPDEST PUSH0 PUSH0 SWAP1 POP JUMPDEST DUP3 MLOAD DUP2 LT ISZERO PUSH2 0x2B9 JUMPI PUSH0 PUSH20 0xFFFFFFFFFFFFFFFFFFFFFFFFFFFFFFFFFFFFFFFF AND DUP4 DUP3 DUP2 MLOAD DUP2 LT PUSH2 0x1DF JUMPI PUSH2 0x1DE PUSH2 0xBD2 JUMP JUMPDEST JUMPDEST PUSH1 0x20 MUL PUSH1 0x20 ADD ADD MLOAD PUSH20 0xFFFFFFFFFFFFFFFFFFFFFFFFFFFFFFFFFFFFFFFF AND SUB PUSH2 0x23D JUMPI PUSH1 0x40 MLOAD PUSH32 0x8C379A000000000000000000000000000000000000000000000000000000000 DUP2 MSTORE PUSH1 0x4 ADD PUSH2 0x234 SWAP1 PUSH2 0xC49 JUMP JUMPDEST PUSH1 0x40 MLOAD DUP1 SWAP2 SUB SWAP1 REVERT JUMPDEST PUSH1 0x1 PUSH1 0x8 PUSH0 DUP6 DUP5 DUP2 MLOAD DUP2 LT PUSH2 0x255 JUMPI PUSH2 0x254 PUSH2 0xBD2 JUMP JUMPDEST JUMPDEST PUSH1 0x20 MUL PUSH1 0x20 ADD ADD MLOAD PUSH20 0xFFFFFFFFFFFFFFFFFFFFFFFFFFFFFFFFFFFFFFFF AND PUSH20 0xFFFFFFFFFFFFFFFFFFFFFFFFFFFFFFFFFFFFFFFF AND DUP2 MSTORE PUSH1 0x20 ADD SWAP1 DUP2 MSTORE PUSH1 0x20 ADD PUSH0 KECCAK256 PUSH0 PUSH2 0x100 EXP DUP2 SLOAD DUP2 PUSH1 0xFF MUL NOT AND SWAP1 DUP4 ISZERO ISZERO MUL OR SWAP1 SSTORE POP DUP1 DUP1 PUSH1 0x1 ADD SWAP2 POP POP PUSH2 0x1AC JUMP JUMPDEST POP PUSH0 PUSH0 SWAP1 POP JUMPDEST DUP2 MLOAD DUP2 LT ISZERO PUSH2 0x3CC JUMPI PUSH0 PUSH20 0xFFFFFFFFFFFFFFFFFFFFFFFFFFFFFFFFFFFFFFFF AND DUP3 DUP3 DUP2 MLOAD DUP2 LT PUSH2 0x2F2 JUMPI PUSH2 0x2F1 PUSH2 0xBD2 JUMP JUMPDEST JUMPDEST PUSH1 0x20 MUL PUSH1 0x20 ADD ADD MLOAD PUSH20 0xFFFFFFFFFFFFFFFFFFFFFFFFFFFFFFFFFFFFFFFF AND SUB PUSH2 0x350 JUMPI PUSH1 0x40 MLOAD PUSH32 0x8C379A000000000000000000000000000000000000000000000000000000000 DUP2 MSTORE PUSH1 0x4 ADD PUSH2 0x347 SWAP1 PUSH2 0xCB1 JUMP JUMPDEST PUSH1 0x40 MLOAD DUP1 SWAP2 SUB SWAP1 REVERT JUMPDEST PUSH1 0x1 PUSH1 0xD PUSH0 DUP5 DUP5 DUP2 MLOAD DUP2 LT PUSH2 0x368 JUMPI PUSH2 0x367 PUSH2 0xBD2 JUMP JUMPDEST JUMPDEST PUSH1 0x20 MUL PUSH1 0x20 ADD ADD MLOAD PUSH20 0xFFFFFFFFFFFFFFFFFFFFFFFFFFFFFFFFFFFFFFFF AND PUSH20 0xFFFFFFFFFFFFFFFFFFFFFFFFFFFFFFFFFFFFFFFF AND DUP2 MSTORE PUSH1 0x20 ADD SWAP1 DUP2 MSTORE PUSH1 0x20 ADD PUSH0 KECCAK256 PUSH0 PUSH2 0x100 EXP DUP2 SLOAD DUP2 PUSH1 0xFF MUL NOT AND SWAP1 DUP4 ISZERO ISZERO MUL OR SWAP1 SSTORE POP DUP1 DUP1 PUSH1 0x1 ADD SWAP2 POP POP PUSH2 0x2BF JUMP JUMPDEST POP DUP3 PUSH1 0xC SWAP1 DUP2 PUSH2 0x3DC SWAP2 SWAP1 PUSH2 0x9D5 JUMP JUMPDEST POP TIMESTAMP PUSH1 0x12 DUP2 SWAP1 SSTORE POP TIMESTAMP PUSH1 0x13 DUP2 SWAP1 SSTORE POP POP POP POP PUSH2 0xCCF JUMP JUMPDEST PUSH0 PUSH1 0x5 PUSH0 SWAP1 SLOAD SWAP1 PUSH2 0x100 EXP SWAP1 DIV PUSH20 0xFFFFFFFFFFFFFFFFFFFFFFFFFFFFFFFFFFFFFFFF AND SWAP1 POP DUP2 PUSH1 0x5 PUSH0 PUSH2 0x100 EXP DUP2 SLOAD DUP2 PUSH20 0xFFFFFFFFFFFFFFFFFFFFFFFFFFFFFFFFFFFFFFFF MUL NOT AND SWAP1 DUP4 PUSH20 0xFFFFFFFFFFFFFFFFFFFFFFFFFFFFFFFFFFFFFFFF AND MUL OR SWAP1 SSTORE POP DUP2 PUSH20 0xFFFFFFFFFFFFFFFFFFFFFFFFFFFFFFFFFFFFFFFF AND DUP2 PUSH20 0xFFFFFFFFFFFFFFFFFFFFFFFFFFFFFFFFFFFFFFFF AND PUSH32 0x8BE0079C531659141344CD1FD0A4F28419497F9722A3DAAFE3B4186F6B6457E0 PUSH1 0x40 MLOAD PUSH1 0x40 MLOAD DUP1 SWAP2 SUB SWAP1 LOG3 POP POP JUMP JUMPDEST PUSH0 PUSH1 0x40 MLOAD SWAP1 POP SWAP1 JUMP JUMPDEST PUSH0 PUSH0 REVERT JUMPDEST PUSH0 PUSH0 REVERT JUMPDEST PUSH0 PUSH0 REVERT JUMPDEST PUSH0 PUSH0 REVERT JUMPDEST PUSH0 PUSH1 0x1F NOT PUSH1 0x1F DUP4 ADD AND SWAP1 POP SWAP2 SWAP1 POP JUMP JUMPDEST PUSH32 0x4E487B7100000000000000000000000000000000000000000000000000000000 PUSH0 MSTORE PUSH1 0x41 PUSH1 0x4 MSTORE PUSH1 0x24 PUSH0 REVERT JUMPDEST PUSH2 0x515 DUP3 PUSH2 0x4CF JUMP JUMPDEST DUP2 ADD DUP2 DUP2 LT PUSH8 0xFFFFFFFFFFFFFFFF DUP3 GT OR ISZERO PUSH2 0x534 JUMPI PUSH2 0x533 PUSH2 0x4DF JUMP JUMPDEST JUMPDEST DUP1 PUSH1 0x40 MSTORE POP POP POP JUMP JUMPDEST PUSH0 PUSH2 0x546 PUSH2 0x4B6 JUMP JUMPDEST SWAP1 POP PUSH2 0x552 DUP3 DUP3 PUSH2 0x50C JUMP JUMPDEST SWAP2 SWAP1 POP JUMP JUMPDEST PUSH0 PUSH8 0xFFFFFFFFFFFFFFFF DUP3 GT ISZERO PUSH2 0x571 JUMPI PUSH2 0x570 PUSH2 0x4DF JUMP JUMPDEST JUMPDEST PUSH2 0x57A DUP3 PUSH2 0x4CF JUMP JUMPDEST SWAP1 POP PUSH1 0x20 DUP2 ADD SWAP1 POP SWAP2 SWAP1 POP JUMP JUMPDEST DUP3 DUP2 DUP4 MCOPY PUSH0 DUP4 DUP4 ADD MSTORE POP POP POP JUMP JUMPDEST PUSH0 PUSH2 0x5A7 PUSH2 0x5A2 DUP5 PUSH2 0x557 JUMP JUMPDEST PUSH2 0x53D JUMP JUMPDEST SWAP1 POP DUP3 DUP2 MSTORE PUSH1 0x20 DUP2 ADD DUP5 DUP5 DUP5 ADD GT ISZERO PUSH2 0x5C3 JUMPI PUSH2 0x5C2 PUSH2 0x4CB JUMP JUMPDEST JUMPDEST PUSH2 0x5CE DUP5 DUP3 DUP6 PUSH2 0x587 JUMP JUMPDEST POP SWAP4 SWAP3 POP POP POP JUMP JUMPDEST PUSH0 DUP3 PUSH1 0x1F DUP4 ADD SLT PUSH2 0x5EA JUMPI PUSH2 0x5E9 PUSH2 0x4C7 JUMP JUMPDEST JUMPDEST DUP2 MLOAD PUSH2 0x5FA DUP5 DUP3 PUSH1 0x20 DUP7 ADD PUSH2 0x595 JUMP JUMPDEST SWAP2 POP POP SWAP3 SWAP2 POP POP JUMP JUMPDEST PUSH0 PUSH8 0xFFFFFFFFFFFFFFFF DUP3 GT ISZERO PUSH2 0x61D JUMPI PUSH2 0x61C PUSH2 0x4DF JUMP JUMPDEST JUMPDEST PUSH1 0x20 DUP3 MUL SWAP1 POP PUSH1 0x20 DUP2 ADD SWAP1 POP SWAP2 SWAP1 POP JUMP JUMPDEST PUSH0 PUSH0 REVERT JUMPDEST PUSH0 PUSH20 0xFFFFFFFFFFFFFFFFFFFFFFFFFFFFFFFFFFFFFFFF DUP3 AND SWAP1 POP SWAP2 SWAP1 POP JUMP JUMPDEST PUSH0 PUSH2 0x65B DUP3 PUSH2 0x632 JUMP JUMPDEST SWAP1 POP SWAP2 SWAP1 POP JUMP JUMPDEST PUSH2 0x66B DUP2 PUSH2 0x651 JUMP JUMPDEST DUP2 EQ PUSH2 0x675 JUMPI PUSH0 PUSH0 REVERT JUMPDEST POP JUMP JUMPDEST PUSH0 DUP2 MLOAD SWAP1 POP PUSH2 0x686 DUP2 PUSH2 0x662 JUMP JUMPDEST SWAP3 SWAP2 POP POP JUMP JUMPDEST PUSH0 PUSH2 0x69E PUSH2 0x699 DUP5 PUSH2 0x603 JUMP JUMPDEST PUSH2 0x53D JUMP JUMPDEST SWAP1 POP DUP1 DUP4 DUP3 MSTORE PUSH1 0x20 DUP3 ADD SWAP1 POP PUSH1 0x20 DUP5 MUL DUP4 ADD DUP6 DUP2 GT ISZERO PUSH2 0x6C1 JUMPI PUSH2 0x6C0 PUSH2 0x62E JUMP JUMPDEST JUMPDEST DUP4 JUMPDEST DUP2 DUP2 LT ISZERO PUSH2 0x6EA JUMPI DUP1 PUSH2 0x6D6 DUP9 DUP3 PUSH2 0x678 JUMP JUMPDEST DUP5 MSTORE PUSH1 0x20 DUP5 ADD SWAP4 POP POP PUSH1 0x20 DUP2 ADD SWAP1 POP PUSH2 0x6C3 JUMP JUMPDEST POP POP POP SWAP4 SWAP3 POP POP POP JUMP JUMPDEST PUSH0 DUP3 PUSH1 0x1F DUP4 ADD SLT PUSH2 0x708 JUMPI PUSH2 0x707 PUSH2 0x4C7 JUMP JUMPDEST JUMPDEST DUP2 MLOAD PUSH2 0x718 DUP5 DUP3 PUSH1 0x20 DUP7 ADD PUSH2 0x68C JUMP JUMPDEST SWAP2 POP POP SWAP3 SWAP2 POP POP JUMP JUMPDEST PUSH0 PUSH0 PUSH0 PUSH1 0x60 DUP5 DUP7 SUB SLT ISZERO PUSH2 0x738 JUMPI PUSH2 0x737 PUSH2 0x4BF JUMP JUMPDEST JUMPDEST PUSH0 DUP5 ADD MLOAD PUSH8 0xFFFFFFFFFFFFFFFF DUP2 GT ISZERO PUSH2 0x755 JUMPI PUSH2 0x754 PUSH2 0x4C3 JUMP JUMPDEST JUMPDEST PUSH2 0x761 DUP7 DUP3 DUP8 ADD PUSH2 0x5D6 JUMP JUMPDEST SWAP4 POP POP PUSH1 0x20 DUP5 ADD MLOAD PUSH8 0xFFFFFFFFFFFFFFFF DUP2 GT ISZERO PUSH2 0x782 JUMPI PUSH2 0x781 PUSH2 0x4C3 JUMP JUMPDEST JUMPDEST PUSH2 0x78E DUP7 DUP3 DUP8 ADD PUSH2 0x6F4 JUMP JUMPDEST SWAP3 POP POP PUSH1 0x40 DUP5 ADD MLOAD PUSH8 0xFFFFFFFFFFFFFFFF DUP2 GT ISZERO PUSH2 0x7AF JUMPI PUSH2 0x7AE PUSH2 0x4C3 JUMP JUMPDEST JUMPDEST PUSH2 0x7BB DUP7 DUP3 DUP8 ADD PUSH2 0x6F4 JUMP JUMPDEST SWAP2 POP POP SWAP3 POP SWAP3 POP SWAP3 JUMP JUMPDEST PUSH0 DUP2 MLOAD SWAP1 POP SWAP2 SWAP1 POP JUMP JUMPDEST PUSH32 0x4E487B7100000000000000000000000000000000000000000000000000000000 PUSH0 MSTORE PUSH1 0x22 PUSH1 0x4 MSTORE PUSH1 0x24 PUSH0 REVERT JUMPDEST PUSH0 PUSH1 0x2 DUP3 DIV SWAP1 POP PUSH1 0x1 DUP3 AND DUP1 PUSH2 0x813 JUMPI PUSH1 0x7F DUP3 AND SWAP2 POP JUMPDEST PUSH1 0x20 DUP3 LT DUP2 SUB PUSH2 0x826 JUMPI PUSH2 0x825 PUSH2 0x7CF JUMP JUMPDEST JUMPDEST POP SWAP2 SWAP1 POP JUMP JUMPDEST PUSH0 DUP2 SWAP1 POP DUP2 PUSH0 MSTORE PUSH1 0x20 PUSH0 KECCAK256 SWAP1 POP SWAP2 SWAP1 POP JUMP JUMPDEST PUSH0 PUSH1 0x20 PUSH1 0x1F DUP4 ADD DIV SWAP1 POP SWAP2 SWAP1 POP JUMP JUMPDEST PUSH0 DUP3 DUP3 SHL SWAP1 POP SWAP3 SWAP2 POP POP JUMP JUMPDEST PUSH0 PUSH1 0x8 DUP4 MUL PUSH2 0x888 PUSH32 0xFFFFFFFFFFFFFFFFFFFFFFFFFFFFFFFFFFFFFFFFFFFFFFFFFFFFFFFFFFFFFFFF DUP3 PUSH2 0x84D JUMP JUMPDEST PUSH2 0x892 DUP7 DUP4 PUSH2 0x84D JUMP JUMPDEST SWAP6 POP DUP1 NOT DUP5 AND SWAP4 POP DUP1 DUP7 AND DUP5 OR SWAP3 POP POP POP SWAP4 SWAP3 POP POP POP JUMP JUMPDEST PUSH0 DUP2 SWAP1 POP SWAP2 SWAP1 POP JUMP JUMPDEST PUSH0 DUP2 SWAP1 POP SWAP2 SWAP1 POP JUMP JUMPDEST PUSH0 PUSH2 0x8D6 PUSH2 0x8D1 PUSH2 0x8CC DUP5 PUSH2 0x8AA JUMP JUMPDEST PUSH2 0x8B3 JUMP JUMPDEST PUSH2 0x8AA JUMP JUMPDEST SWAP1 POP SWAP2 SWAP1 POP JUMP JUMPDEST PUSH0 DUP2 SWAP1 POP SWAP2 SWAP1 POP JUMP JUMPDEST PUSH2 0x8EF DUP4 PUSH2 0x8BC JUMP JUMPDEST PUSH2 0x903 PUSH2 0x8FB DUP3 PUSH2 0x8DD JUMP JUMPDEST DUP5 DUP5 SLOAD PUSH2 0x859 JUMP JUMPDEST DUP3 SSTORE POP POP POP POP JUMP JUMPDEST PUSH0 PUSH0 SWAP1 POP SWAP1 JUMP JUMPDEST PUSH2 0x91A PUSH2 0x90B JUMP JUMPDEST PUSH2 0x925 DUP2 DUP5 DUP5 PUSH2 0x8E6 JUMP JUMPDEST POP POP POP JUMP JUMPDEST JUMPDEST DUP2 DUP2 LT ISZERO PUSH2 0x948 JUMPI PUSH2 0x93D PUSH0 DUP3 PUSH2 0x912 JUMP JUMPDEST PUSH1 0x1 DUP2 ADD SWAP1 POP PUSH2 0x92B JUMP JUMPDEST POP POP JUMP JUMPDEST PUSH1 0x1F DUP3 GT ISZERO PUSH2 0x98D JUMPI PUSH2 0x95E DUP2 PUSH2 0x82C JUMP JUMPDEST PUSH2 0x967 DUP5 PUSH2 0x83E JUMP JUMPDEST DUP2 ADD PUSH1 0x20 DUP6 LT ISZERO PUSH2 0x976 JUMPI DUP2 SWAP1 POP JUMPDEST PUSH2 0x98A PUSH2 0x982 DUP6 PUSH2 0x83E JUMP JUMPDEST DUP4 ADD DUP3 PUSH2 0x92A JUMP JUMPDEST POP POP JUMPDEST POP POP POP JUMP JUMPDEST PUSH0 DUP3 DUP3 SHR SWAP1 POP SWAP3 SWAP2 POP POP JUMP JUMPDEST PUSH0 PUSH2 0x9AD PUSH0 NOT DUP5 PUSH1 0x8 MUL PUSH2 0x992 JUMP JUMPDEST NOT DUP1 DUP4 AND SWAP2 POP POP SWAP3 SWAP2 POP POP JUMP JUMPDEST PUSH0 PUSH2 0x9C5 DUP4 DUP4 PUSH2 0x99E JUMP JUMPDEST SWAP2 POP DUP3 PUSH1 0x2 MUL DUP3 OR SWAP1 POP SWAP3 SWAP2 POP POP JUMP JUMPDEST PUSH2 0x9DE DUP3 PUSH2 0x7C5 JUMP JUMPDEST PUSH8 0xFFFFFFFFFFFFFFFF DUP2 GT ISZERO PUSH2 0x9F7 JUMPI PUSH2 0x9F6 PUSH2 0x4DF JUMP JUMPDEST JUMPDEST PUSH2 0xA01 DUP3 SLOAD PUSH2 0x7FC JUMP JUMPDEST PUSH2 0xA0C DUP3 DUP3 DUP6 PUSH2 0x94C JUMP JUMPDEST PUSH0 PUSH1 0x20 SWAP1 POP PUSH1 0x1F DUP4 GT PUSH1 0x1 DUP2 EQ PUSH2 0xA3D JUMPI PUSH0 DUP5 ISZERO PUSH2 0xA2B JUMPI DUP3 DUP8 ADD MLOAD SWAP1 POP JUMPDEST PUSH2 0xA35 DUP6 DUP3 PUSH2 0x9BA JUMP JUMPDEST DUP7 SSTORE POP PUSH2 0xA9C JUMP JUMPDEST PUSH1 0x1F NOT DUP5 AND PUSH2 0xA4B DUP7 PUSH2 0x82C JUMP JUMPDEST PUSH0 JUMPDEST DUP3 DUP2 LT ISZERO PUSH2 0xA72 JUMPI DUP5 DUP10 ADD MLOAD DUP3 SSTORE PUSH1 0x1 DUP3 ADD SWAP2 POP PUSH1 0x20 DUP6 ADD SWAP5 POP PUSH1 0x20 DUP2 ADD SWAP1 POP PUSH2 0xA4D JUMP JUMPDEST DUP7 DUP4 LT ISZERO PUSH2 0xA8F JUMPI DUP5 DUP10 ADD MLOAD PUSH2 0xA8B PUSH1 0x1F DUP10 AND DUP3 PUSH2 0x99E JUMP JUMPDEST DUP4 SSTORE POP JUMPDEST PUSH1 0x1 PUSH1 0x2 DUP9 MUL ADD DUP9 SSTORE POP POP POP JUMPDEST POP POP POP POP POP POP JUMP JUMPDEST PUSH2 0xAAD DUP2 PUSH2 0x651 JUMP JUMPDEST DUP3 MSTORE POP POP JUMP JUMPDEST PUSH0 PUSH1 0x20 DUP3 ADD SWAP1 POP PUSH2 0xAC6 PUSH0 DUP4 ADD DUP5 PUSH2 0xAA4 JUMP JUMPDEST SWAP3 SWAP2 POP POP JUMP JUMPDEST PUSH0 DUP3 DUP3 MSTORE PUSH1 0x20 DUP3 ADD SWAP1 POP SWAP3 SWAP2 POP POP JUMP JUMPDEST PUSH32 0x4174206C65617374206F6E652077686974656C69737465642061646472657373 PUSH0 DUP3 ADD MSTORE PUSH32 0x2069732072657175697265640000000000000000000000000000000000000000 PUSH1 0x20 DUP3 ADD MSTORE POP JUMP JUMPDEST PUSH0 PUSH2 0xB36 PUSH1 0x2C DUP4 PUSH2 0xACC JUMP JUMPDEST SWAP2 POP PUSH2 0xB41 DUP3 PUSH2 0xADC JUMP JUMPDEST PUSH1 0x40 DUP3 ADD SWAP1 POP SWAP2 SWAP1 POP JUMP JUMPDEST PUSH0 PUSH1 0x20 DUP3 ADD SWAP1 POP DUP2 DUP2 SUB PUSH0 DUP4 ADD MSTORE PUSH2 0xB63 DUP2 PUSH2 0xB2A JUMP JUMPDEST SWAP1 POP SWAP2 SWAP1 POP JUMP JUMPDEST PUSH32 0x4174206C65617374206F6E6520766F7465722069732072657175697265640000 PUSH0 DUP3 ADD MSTORE POP JUMP JUMPDEST PUSH0 PUSH2 0xB9E PUSH1 0x1E DUP4 PUSH2 0xACC JUMP JUMPDEST SWAP2 POP PUSH2 0xBA9 DUP3 PUSH2 0xB6A JUMP JUMPDEST PUSH1 0x20 DUP3 ADD SWAP1 POP SWAP2 SWAP1 POP JUMP JUMPDEST PUSH0 PUSH1 0x20 DUP3 ADD SWAP1 POP DUP2 DUP2 SUB PUSH0 DUP4 ADD MSTORE PUSH2 0xBCB DUP2 PUSH2 0xB92 JUMP JUMPDEST SWAP1 POP SWAP2 SWAP1 POP JUMP JUMPDEST PUSH32 0x4E487B7100000000000000000000000000000000000000000000000000000000 PUSH0 MSTORE PUSH1 0x32 PUSH1 0x4 MSTORE PUSH1 0x24 PUSH0 REVERT JUMPDEST PUSH32 0x496E76616C69642077686974656C697374206164647265737300000000000000 PUSH0 DUP3 ADD MSTORE POP JUMP JUMPDEST PUSH0 PUSH2 0xC33 PUSH1 0x19 DUP4 PUSH2 0xACC JUMP JUMPDEST SWAP2 POP PUSH2 0xC3E DUP3 PUSH2 0xBFF JUMP JUMPDEST PUSH1 0x20 DUP3 ADD SWAP1 POP SWAP2 SWAP1 POP JUMP JUMPDEST PUSH0 PUSH1 0x20 DUP3 ADD SWAP1 POP DUP2 DUP2 SUB PUSH0 DUP4 ADD MSTORE PUSH2 0xC60 DUP2 PUSH2 0xC27 JUMP JUMPDEST SWAP1 POP SWAP2 SWAP1 POP JUMP JUMPDEST PUSH32 0x496E76616C696420766F74657220616464726573730000000000000000000000 PUSH0 DUP3 ADD MSTORE POP JUMP JUMPDEST PUSH0 PUSH2 0xC9B PUSH1 0x15 DUP4 PUSH2 0xACC JUMP JUMPDEST SWAP2 POP PUSH2 0xCA6 DUP3 PUSH2 0xC67 JUMP JUMPDEST PUSH1 0x20 DUP3 ADD SWAP1 POP SWAP2 SWAP1 POP JUMP JUMPDEST PUSH0 PUSH1 0x20 DUP3 ADD SWAP1 POP DUP2 DUP2 SUB PUSH0 DUP4 ADD MSTORE PUSH2 0xCC8 DUP2 PUSH2 0xC8F JUMP JUMPDEST SWAP1 POP SWAP2 SWAP1 POP JUMP JUMPDEST PUSH2 0x6E16 DUP1 PUSH2 0xCDC PUSH0 CODECOPY PUSH0 RETURN INVALID PUSH1 0x80 PUSH1 0x40 MSTORE CALLVALUE DUP1 ISZERO PUSH2 0xF JUMPI PUSH0 PUSH0 REVERT JUMPDEST POP PUSH1 0x4 CALLDATASIZE LT PUSH2 0x376 JUMPI PUSH0 CALLDATALOAD PUSH1 0xE0 SHR DUP1 PUSH4 0x7AFDF93E GT PUSH2 0x1D1 JUMPI DUP1 PUSH4 0xBDD3D825 GT PUSH2 0x102 JUMPI DUP1 PUSH4 0xE0A8F6F5 GT PUSH2 0xA0 JUMPI DUP1 PUSH4 0xF2FDE38B GT PUSH2 0x7A JUMPI DUP1 PUSH4 0xF2FDE38B EQ PUSH2 0xA11 JUMPI DUP1 PUSH4 0xF36E32CC EQ PUSH2 0xA2D JUMPI DUP1 PUSH4 0xF3CDCD1E EQ PUSH2 0xA4B JUMPI DUP1 PUSH4 0xFF8F164F EQ PUSH2 0xA55 JUMPI PUSH2 0x376 JUMP JUMPDEST DUP1 PUSH4 0xE0A8F6F5 EQ PUSH2 0x9A7 JUMPI DUP1 PUSH4 0xE5839836 EQ PUSH2 0x9C3 JUMPI DUP1 PUSH4 0xEB91D37E EQ PUSH2 0x9F3 JUMPI PUSH2 0x376 JUMP JUMPDEST DUP1 PUSH4 0xD0516650 GT PUSH2 0xDC JUMPI DUP1 PUSH4 0xD0516650 EQ PUSH2 0x90B JUMPI DUP1 PUSH4 0xDA0239A6 EQ PUSH2 0x93B JUMPI DUP1 PUSH4 0xDA35C664 EQ PUSH2 0x959 JUMPI DUP1 PUSH4 0xDD62ED3E EQ PUSH2 0x977 JUMPI PUSH2 0x376 JUMP JUMPDEST DUP1 PUSH4 0xBDD3D825 EQ PUSH2 0x8C7 JUMPI DUP1 PUSH4 0xC4BC5DA5 EQ PUSH2 0x8E5 JUMPI DUP1 PUSH4 0xCB7A11C2 EQ PUSH2 0x8EF JUMPI PUSH2 0x376 JUMP JUMPDEST DUP1 PUSH4 0x9B19251A GT PUSH2 0x16F JUMPI DUP1 PUSH4 0xABA63705 GT PUSH2 0x149 JUMPI DUP1 PUSH4 0xABA63705 EQ PUSH2 0x84F JUMPI DUP1 PUSH4 0xACA9F472 EQ PUSH2 0x86D JUMPI DUP1 PUSH4 0xAE66C9EA EQ PUSH2 0x88B JUMPI DUP1 PUSH4 0xB5FC35CE EQ PUSH2 0x8A9 JUMPI PUSH2 0x376 JUMP JUMPDEST DUP1 PUSH4 0x9B19251A EQ PUSH2 0x7BF JUMPI DUP1 PUSH4 0xA3EC138D EQ PUSH2 0x7EF JUMPI DUP1 PUSH4 0xA9059CBB EQ PUSH2 0x81F JUMPI PUSH2 0x376 JUMP JUMPDEST DUP1 PUSH4 0x8A67456A GT PUSH2 0x1AB JUMPI DUP1 PUSH4 0x8A67456A EQ PUSH2 0x747 JUMPI DUP1 PUSH4 0x8DA5CB5B EQ PUSH2 0x765 JUMPI DUP1 PUSH4 0x902D55A5 EQ PUSH2 0x783 JUMPI DUP1 PUSH4 0x95D89B41 EQ PUSH2 0x7A1 JUMPI PUSH2 0x376 JUMP JUMPDEST DUP1 PUSH4 0x7AFDF93E EQ PUSH2 0x715 JUMPI DUP1 PUSH4 0x7C224D64 EQ PUSH2 0x71F JUMPI DUP1 PUSH4 0x80E79A36 EQ PUSH2 0x73D JUMPI PUSH2 0x376 JUMP JUMPDEST DUP1 PUSH4 0x20950933 GT PUSH2 0x2AB JUMPI DUP1 PUSH4 0x439766CE GT PUSH2 0x249 JUMPI DUP1 PUSH4 0x6290865D GT PUSH2 0x223 JUMPI DUP1 PUSH4 0x6290865D EQ PUSH2 0x69F JUMPI DUP1 PUSH4 0x6C02A931 EQ PUSH2 0x6BD JUMPI DUP1 PUSH4 0x70A08231 EQ PUSH2 0x6DB JUMPI DUP1 PUSH4 0x715018A6 EQ PUSH2 0x70B JUMPI PUSH2 0x376 JUMP JUMPDEST DUP1 PUSH4 0x439766CE EQ PUSH2 0x659 JUMPI DUP1 PUSH4 0x54FD4D50 EQ PUSH2 0x663 JUMPI DUP1 PUSH4 0x5C975ABB EQ PUSH2 0x681 JUMPI PUSH2 0x376 JUMP JUMPDEST DUP1 PUSH4 0x2DE56555 GT PUSH2 0x285 JUMPI DUP1 PUSH4 0x2DE56555 EQ PUSH2 0x5CF JUMPI DUP1 PUSH4 0x302C464A EQ PUSH2 0x5ED JUMPI DUP1 PUSH4 0x313CE567 EQ PUSH2 0x60B JUMPI DUP1 PUSH4 0x43859632 EQ PUSH2 0x629 JUMPI PUSH2 0x376 JUMP JUMPDEST DUP1 PUSH4 0x20950933 EQ PUSH2 0x563 JUMPI DUP1 PUSH4 0x23B872DD EQ PUSH2 0x581 JUMPI DUP1 PUSH4 0x2D380242 EQ PUSH2 0x5B1 JUMPI PUSH2 0x376 JUMP JUMPDEST DUP1 PUSH4 0xD61B519 GT PUSH2 0x318 JUMPI DUP1 PUSH4 0x134E18F4 GT PUSH2 0x2F2 JUMPI DUP1 PUSH4 0x134E18F4 EQ PUSH2 0x4D9 JUMPI DUP1 PUSH4 0x14A8BD0D EQ PUSH2 0x4F7 JUMPI DUP1 PUSH4 0x158B1A57 EQ PUSH2 0x515 JUMPI DUP1 PUSH4 0x18160DDD EQ PUSH2 0x545 JUMPI PUSH2 0x376 JUMP JUMPDEST DUP1 PUSH4 0xD61B519 EQ PUSH2 0x471 JUMPI DUP1 PUSH4 0xFE2ABCF EQ PUSH2 0x48D JUMPI DUP1 PUSH4 0x12CAE7AF EQ PUSH2 0x4A9 JUMPI PUSH2 0x376 JUMP JUMPDEST DUP1 PUSH4 0x6FDDE03 GT PUSH2 0x354 JUMPI DUP1 PUSH4 0x6FDDE03 EQ PUSH2 0x3E9 JUMPI DUP1 PUSH4 0x8B26B75 EQ PUSH2 0x407 JUMPI DUP1 PUSH4 0x95EA7B3 EQ PUSH2 0x425 JUMPI DUP1 PUSH4 0xD4EFA4F EQ PUSH2 0x455 JUMPI PUSH2 0x376 JUMP JUMPDEST DUP1 PUSH4 0x121B93F EQ PUSH2 0x37A JUMPI DUP1 PUSH4 0x13CF08B EQ PUSH2 0x396 JUMPI DUP1 PUSH4 0x51069E3 EQ PUSH2 0x3CD JUMPI JUMPDEST PUSH0 PUSH0 REVERT JUMPDEST PUSH2 0x394 PUSH1 0x4 DUP1 CALLDATASIZE SUB DUP2 ADD SWAP1 PUSH2 0x38F SWAP2 SWAP1 PUSH2 0x4B16 JUMP JUMPDEST PUSH2 0xA73 JUMP JUMPDEST STOP JUMPDEST PUSH2 0x3B0 PUSH1 0x4 DUP1 CALLDATASIZE SUB DUP2 ADD SWAP1 PUSH2 0x3AB SWAP2 SWAP1 PUSH2 0x4B16 JUMP JUMPDEST PUSH2 0xE2C JUMP JUMPDEST PUSH1 0x40 MLOAD PUSH2 0x3C4 SWAP9 SWAP8 SWAP7 SWAP6 SWAP5 SWAP4 SWAP3 SWAP2 SWAP1 PUSH2 0x4C8C JUMP JUMPDEST PUSH1 0x40 MLOAD DUP1 SWAP2 SUB SWAP1 RETURN JUMPDEST PUSH2 0x3E7 PUSH1 0x4 DUP1 CALLDATASIZE SUB DUP2 ADD SWAP1 PUSH2 0x3E2 SWAP2 SWAP1 PUSH2 0x4E79 JUMP JUMPDEST PUSH2 0xF4C JUMP JUMPDEST STOP JUMPDEST PUSH2 0x3F1 PUSH2 0x1299 JUMP JUMPDEST PUSH1 0x40 MLOAD PUSH2 0x3FE SWAP2 SWAP1 PUSH2 0x4EC0 JUMP JUMPDEST PUSH1 0x40 MLOAD DUP1 SWAP2 SUB SWAP1 RETURN JUMPDEST PUSH2 0x40F PUSH2 0x1329 JUMP JUMPDEST PUSH1 0x40 MLOAD PUSH2 0x41C SWAP2 SWAP1 PUSH2 0x4EE0 JUMP JUMPDEST PUSH1 0x40 MLOAD DUP1 SWAP2 SUB SWAP1 RETURN JUMPDEST PUSH2 0x43F PUSH1 0x4 DUP1 CALLDATASIZE SUB DUP2 ADD SWAP1 PUSH2 0x43A SWAP2 SWAP1 PUSH2 0x4EF9 JUMP JUMPDEST PUSH2 0x132F JUMP JUMPDEST PUSH1 0x40 MLOAD PUSH2 0x44C SWAP2 SWAP1 PUSH2 0x4F37 JUMP JUMPDEST PUSH1 0x40 MLOAD DUP1 SWAP2 SUB SWAP1 RETURN JUMPDEST PUSH2 0x46F PUSH1 0x4 DUP1 CALLDATASIZE SUB DUP2 ADD SWAP1 PUSH2 0x46A SWAP2 SWAP1 PUSH2 0x5023 JUMP JUMPDEST PUSH2 0x1351 JUMP JUMPDEST STOP JUMPDEST PUSH2 0x48B PUSH1 0x4 DUP1 CALLDATASIZE SUB DUP2 ADD SWAP1 PUSH2 0x486 SWAP2 SWAP1 PUSH2 0x4B16 JUMP JUMPDEST PUSH2 0x2045 JUMP JUMPDEST STOP JUMPDEST PUSH2 0x4A7 PUSH1 0x4 DUP1 CALLDATASIZE SUB DUP2 ADD SWAP1 PUSH2 0x4A2 SWAP2 SWAP1 PUSH2 0x5100 JUMP JUMPDEST PUSH2 0x2C0E JUMP JUMPDEST STOP JUMPDEST PUSH2 0x4C3 PUSH1 0x4 DUP1 CALLDATASIZE SUB DUP2 ADD SWAP1 PUSH2 0x4BE SWAP2 SWAP1 PUSH2 0x513E JUMP JUMPDEST PUSH2 0x2E6B JUMP JUMPDEST PUSH1 0x40 MLOAD PUSH2 0x4D0 SWAP2 SWAP1 PUSH2 0x4EE0 JUMP JUMPDEST PUSH1 0x40 MLOAD DUP1 SWAP2 SUB SWAP1 RETURN JUMPDEST PUSH2 0x4E1 PUSH2 0x2E7C JUMP JUMPDEST PUSH1 0x40 MLOAD PUSH2 0x4EE SWAP2 SWAP1 PUSH2 0x5169 JUMP JUMPDEST PUSH1 0x40 MLOAD DUP1 SWAP2 SUB SWAP1 RETURN JUMPDEST PUSH2 0x4FF PUSH2 0x2E83 JUMP JUMPDEST PUSH1 0x40 MLOAD PUSH2 0x50C SWAP2 SWAP1 PUSH2 0x4EE0 JUMP JUMPDEST PUSH1 0x40 MLOAD DUP1 SWAP2 SUB SWAP1 RETURN JUMPDEST PUSH2 0x52F PUSH1 0x4 DUP1 CALLDATASIZE SUB DUP2 ADD SWAP1 PUSH2 0x52A SWAP2 SWAP1 PUSH2 0x513E JUMP JUMPDEST PUSH2 0x2E88 JUMP JUMPDEST PUSH1 0x40 MLOAD PUSH2 0x53C SWAP2 SWAP1 PUSH2 0x4EE0 JUMP JUMPDEST PUSH1 0x40 MLOAD DUP1 SWAP2 SUB SWAP1 RETURN JUMPDEST PUSH2 0x54D PUSH2 0x2E91 JUMP JUMPDEST PUSH1 0x40 MLOAD PUSH2 0x55A SWAP2 SWAP1 PUSH2 0x4EE0 JUMP JUMPDEST PUSH1 0x40 MLOAD DUP1 SWAP2 SUB SWAP1 RETURN JUMPDEST PUSH2 0x56B PUSH2 0x2E9A JUMP JUMPDEST PUSH1 0x40 MLOAD PUSH2 0x578 SWAP2 SWAP1 PUSH2 0x4EE0 JUMP JUMPDEST PUSH1 0x40 MLOAD DUP1 SWAP2 SUB SWAP1 RETURN JUMPDEST PUSH2 0x59B PUSH1 0x4 DUP1 CALLDATASIZE SUB DUP2 ADD SWAP1 PUSH2 0x596 SWAP2 SWAP1 PUSH2 0x5182 JUMP JUMPDEST PUSH2 0x2EA0 JUMP JUMPDEST PUSH1 0x40 MLOAD PUSH2 0x5A8 SWAP2 SWAP1 PUSH2 0x4F37 JUMP JUMPDEST PUSH1 0x40 MLOAD DUP1 SWAP2 SUB SWAP1 RETURN JUMPDEST PUSH2 0x5B9 PUSH2 0x2FE3 JUMP JUMPDEST PUSH1 0x40 MLOAD PUSH2 0x5C6 SWAP2 SWAP1 PUSH2 0x4EE0 JUMP JUMPDEST PUSH1 0x40 MLOAD DUP1 SWAP2 SUB SWAP1 RETURN JUMPDEST PUSH2 0x5D7 PUSH2 0x2FE9 JUMP JUMPDEST PUSH1 0x40 MLOAD PUSH2 0x5E4 SWAP2 SWAP1 PUSH2 0x4EE0 JUMP JUMPDEST PUSH1 0x40 MLOAD DUP1 SWAP2 SUB SWAP1 RETURN JUMPDEST PUSH2 0x5F5 PUSH2 0x2FEE JUMP JUMPDEST PUSH1 0x40 MLOAD PUSH2 0x602 SWAP2 SWAP1 PUSH2 0x4EE0 JUMP JUMPDEST PUSH1 0x40 MLOAD DUP1 SWAP2 SUB SWAP1 RETURN JUMPDEST PUSH2 0x613 PUSH2 0x2FF3 JUMP JUMPDEST PUSH1 0x40 MLOAD PUSH2 0x620 SWAP2 SWAP1 PUSH2 0x51ED JUMP JUMPDEST PUSH1 0x40 MLOAD DUP1 SWAP2 SUB SWAP1 RETURN JUMPDEST PUSH2 0x643 PUSH1 0x4 DUP1 CALLDATASIZE SUB DUP2 ADD SWAP1 PUSH2 0x63E SWAP2 SWAP1 PUSH2 0x5100 JUMP JUMPDEST PUSH2 0x2FFA JUMP JUMPDEST PUSH1 0x40 MLOAD PUSH2 0x650 SWAP2 SWAP1 PUSH2 0x4F37 JUMP JUMPDEST PUSH1 0x40 MLOAD DUP1 SWAP2 SUB SWAP1 RETURN JUMPDEST PUSH2 0x661 PUSH2 0x3024 JUMP JUMPDEST STOP JUMPDEST PUSH2 0x66B PUSH2 0x3146 JUMP JUMPDEST PUSH1 0x40 MLOAD PUSH2 0x678 SWAP2 SWAP1 PUSH2 0x4EC0 JUMP JUMPDEST PUSH1 0x40 MLOAD DUP1 SWAP2 SUB SWAP1 RETURN JUMPDEST PUSH2 0x689 PUSH2 0x3183 JUMP JUMPDEST PUSH1 0x40 MLOAD PUSH2 0x696 SWAP2 SWAP1 PUSH2 0x4F37 JUMP JUMPDEST PUSH1 0x40 MLOAD DUP1 SWAP2 SUB SWAP1 RETURN JUMPDEST PUSH2 0x6A7 PUSH2 0x3199 JUMP JUMPDEST PUSH1 0x40 MLOAD PUSH2 0x6B4 SWAP2 SWAP1 PUSH2 0x5169 JUMP JUMPDEST PUSH1 0x40 MLOAD DUP1 SWAP2 SUB SWAP1 RETURN JUMPDEST PUSH2 0x6C5 PUSH2 0x31A0 JUMP JUMPDEST PUSH1 0x40 MLOAD PUSH2 0x6D2 SWAP2 SWAP1 PUSH2 0x4EC0 JUMP JUMPDEST PUSH1 0x40 MLOAD DUP1 SWAP2 SUB SWAP1 RETURN JUMPDEST PUSH2 0x6F5 PUSH1 0x4 DUP1 CALLDATASIZE SUB DUP2 ADD SWAP1 PUSH2 0x6F0 SWAP2 SWAP1 PUSH2 0x513E JUMP JUMPDEST PUSH2 0x322C JUMP JUMPDEST PUSH1 0x40 MLOAD PUSH2 0x702 SWAP2 SWAP1 PUSH2 0x4EE0 JUMP JUMPDEST PUSH1 0x40 MLOAD DUP1 SWAP2 SUB SWAP1 RETURN JUMPDEST PUSH2 0x713 PUSH2 0x3271 JUMP JUMPDEST STOP JUMPDEST PUSH2 0x71D PUSH2 0x3284 JUMP JUMPDEST STOP JUMPDEST PUSH2 0x727 PUSH2 0x32D3 JUMP JUMPDEST PUSH1 0x40 MLOAD PUSH2 0x734 SWAP2 SWAP1 PUSH2 0x4EE0 JUMP JUMPDEST PUSH1 0x40 MLOAD DUP1 SWAP2 SUB SWAP1 RETURN JUMPDEST PUSH2 0x745 PUSH2 0x32D9 JUMP JUMPDEST STOP JUMPDEST PUSH2 0x74F PUSH2 0x34A6 JUMP JUMPDEST PUSH1 0x40 MLOAD PUSH2 0x75C SWAP2 SWAP1 PUSH2 0x4F37 JUMP JUMPDEST PUSH1 0x40 MLOAD DUP1 SWAP2 SUB SWAP1 RETURN JUMPDEST PUSH2 0x76D PUSH2 0x34B9 JUMP JUMPDEST PUSH1 0x40 MLOAD PUSH2 0x77A SWAP2 SWAP1 PUSH2 0x5169 JUMP JUMPDEST PUSH1 0x40 MLOAD DUP1 SWAP2 SUB SWAP1 RETURN JUMPDEST PUSH2 0x78B PUSH2 0x34E1 JUMP JUMPDEST PUSH1 0x40 MLOAD PUSH2 0x798 SWAP2 SWAP1 PUSH2 0x4EE0 JUMP JUMPDEST PUSH1 0x40 MLOAD DUP1 SWAP2 SUB SWAP1 RETURN JUMPDEST PUSH2 0x7A9 PUSH2 0x34E7 JUMP JUMPDEST PUSH1 0x40 MLOAD PUSH2 0x7B6 SWAP2 SWAP1 PUSH2 0x4EC0 JUMP JUMPDEST PUSH1 0x40 MLOAD DUP1 SWAP2 SUB SWAP1 RETURN JUMPDEST PUSH2 0x7D9 PUSH1 0x4 DUP1 CALLDATASIZE SUB DUP2 ADD SWAP1 PUSH2 0x7D4 SWAP2 SWAP1 PUSH2 0x513E JUMP JUMPDEST PUSH2 0x3577 JUMP JUMPDEST PUSH1 0x40 MLOAD PUSH2 0x7E6 SWAP2 SWAP1 PUSH2 0x4F37 JUMP JUMPDEST PUSH1 0x40 MLOAD DUP1 SWAP2 SUB SWAP1 RETURN JUMPDEST PUSH2 0x809 PUSH1 0x4 DUP1 CALLDATASIZE SUB DUP2 ADD SWAP1 PUSH2 0x804 SWAP2 SWAP1 PUSH2 0x513E JUMP JUMPDEST PUSH2 0x3594 JUMP JUMPDEST PUSH1 0x40 MLOAD PUSH2 0x816 SWAP2 SWAP1 PUSH2 0x4F37 JUMP JUMPDEST PUSH1 0x40 MLOAD DUP1 SWAP2 SUB SWAP1 RETURN JUMPDEST PUSH2 0x839 PUSH1 0x4 DUP1 CALLDATASIZE SUB DUP2 ADD SWAP1 PUSH2 0x834 SWAP2 SWAP1 PUSH2 0x4EF9 JUMP JUMPDEST PUSH2 0x35B1 JUMP JUMPDEST PUSH1 0x40 MLOAD PUSH2 0x846 SWAP2 SWAP1 PUSH2 0x4F37 JUMP JUMPDEST PUSH1 0x40 MLOAD DUP1 SWAP2 SUB SWAP1 RETURN JUMPDEST PUSH2 0x857 PUSH2 0x36F2 JUMP JUMPDEST PUSH1 0x40 MLOAD PUSH2 0x864 SWAP2 SWAP1 PUSH2 0x5169 JUMP JUMPDEST PUSH1 0x40 MLOAD DUP1 SWAP2 SUB SWAP1 RETURN JUMPDEST PUSH2 0x875 PUSH2 0x36F9 JUMP JUMPDEST PUSH1 0x40 MLOAD PUSH2 0x882 SWAP2 SWAP1 PUSH2 0x4EE0 JUMP JUMPDEST PUSH1 0x40 MLOAD DUP1 SWAP2 SUB SWAP1 RETURN JUMPDEST PUSH2 0x893 PUSH2 0x36FF JUMP JUMPDEST PUSH1 0x40 MLOAD PUSH2 0x8A0 SWAP2 SWAP1 PUSH2 0x4F37 JUMP JUMPDEST PUSH1 0x40 MLOAD DUP1 SWAP2 SUB SWAP1 RETURN JUMPDEST PUSH2 0x8B1 PUSH2 0x3711 JUMP JUMPDEST PUSH1 0x40 MLOAD PUSH2 0x8BE SWAP2 SWAP1 PUSH2 0x4EE0 JUMP JUMPDEST PUSH1 0x40 MLOAD DUP1 SWAP2 SUB SWAP1 RETURN JUMPDEST PUSH2 0x8CF PUSH2 0x371E JUMP JUMPDEST PUSH1 0x40 MLOAD PUSH2 0x8DC SWAP2 SWAP1 PUSH2 0x5169 JUMP JUMPDEST PUSH1 0x40 MLOAD DUP1 SWAP2 SUB SWAP1 RETURN JUMPDEST PUSH2 0x8ED PUSH2 0x3743 JUMP JUMPDEST STOP JUMPDEST PUSH2 0x909 PUSH1 0x4 DUP1 CALLDATASIZE SUB DUP2 ADD SWAP1 PUSH2 0x904 SWAP2 SWAP1 PUSH2 0x4E79 JUMP JUMPDEST PUSH2 0x3814 JUMP JUMPDEST STOP JUMPDEST PUSH2 0x925 PUSH1 0x4 DUP1 CALLDATASIZE SUB DUP2 ADD SWAP1 PUSH2 0x920 SWAP2 SWAP1 PUSH2 0x513E JUMP JUMPDEST PUSH2 0x3B32 JUMP JUMPDEST PUSH1 0x40 MLOAD PUSH2 0x932 SWAP2 SWAP1 PUSH2 0x4F37 JUMP JUMPDEST PUSH1 0x40 MLOAD DUP1 SWAP2 SUB SWAP1 RETURN JUMPDEST PUSH2 0x943 PUSH2 0x3B4F JUMP JUMPDEST PUSH1 0x40 MLOAD PUSH2 0x950 SWAP2 SWAP1 PUSH2 0x4EE0 JUMP JUMPDEST PUSH1 0x40 MLOAD DUP1 SWAP2 SUB SWAP1 RETURN JUMPDEST PUSH2 0x961 PUSH2 0x3B65 JUMP JUMPDEST PUSH1 0x40 MLOAD PUSH2 0x96E SWAP2 SWAP1 PUSH2 0x4EE0 JUMP JUMPDEST PUSH1 0x40 MLOAD DUP1 SWAP2 SUB SWAP1 RETURN JUMPDEST PUSH2 0x991 PUSH1 0x4 DUP1 CALLDATASIZE SUB DUP2 ADD SWAP1 PUSH2 0x98C SWAP2 SWAP1 PUSH2 0x5206 JUMP JUMPDEST PUSH2 0x3B6B JUMP JUMPDEST PUSH1 0x40 MLOAD PUSH2 0x99E SWAP2 SWAP1 PUSH2 0x4EE0 JUMP JUMPDEST PUSH1 0x40 MLOAD DUP1 SWAP2 SUB SWAP1 RETURN JUMPDEST PUSH2 0x9C1 PUSH1 0x4 DUP1 CALLDATASIZE SUB DUP2 ADD SWAP1 PUSH2 0x9BC SWAP2 SWAP1 PUSH2 0x4B16 JUMP JUMPDEST PUSH2 0x3BED JUMP JUMPDEST STOP JUMPDEST PUSH2 0x9DD PUSH1 0x4 DUP1 CALLDATASIZE SUB DUP2 ADD SWAP1 PUSH2 0x9D8 SWAP2 SWAP1 PUSH2 0x513E JUMP JUMPDEST PUSH2 0x3F57 JUMP JUMPDEST PUSH1 0x40 MLOAD PUSH2 0x9EA SWAP2 SWAP1 PUSH2 0x4F37 JUMP JUMPDEST PUSH1 0x40 MLOAD DUP1 SWAP2 SUB SWAP1 RETURN JUMPDEST PUSH2 0x9FB PUSH2 0x3FA9 JUMP JUMPDEST PUSH1 0x40 MLOAD PUSH2 0xA08 SWAP2 SWAP1 PUSH2 0x4EE0 JUMP JUMPDEST PUSH1 0x40 MLOAD DUP1 SWAP2 SUB SWAP1 RETURN JUMPDEST PUSH2 0xA2B PUSH1 0x4 DUP1 CALLDATASIZE SUB DUP2 ADD SWAP1 PUSH2 0xA26 SWAP2 SWAP1 PUSH2 0x513E JUMP JUMPDEST PUSH2 0x40A8 JUMP JUMPDEST STOP JUMPDEST PUSH2 0xA35 PUSH2 0x412C JUMP JUMPDEST PUSH1 0x40 MLOAD PUSH2 0xA42 SWAP2 SWAP1 PUSH2 0x4EE0 JUMP JUMPDEST PUSH1 0x40 MLOAD DUP1 SWAP2 SUB SWAP1 RETURN JUMPDEST PUSH2 0xA53 PUSH2 0x4131 JUMP JUMPDEST STOP JUMPDEST PUSH2 0xA5D PUSH2 0x4181 JUMP JUMPDEST PUSH1 0x40 MLOAD PUSH2 0xA6A SWAP2 SWAP1 PUSH2 0x4EE0 JUMP JUMPDEST PUSH1 0x40 MLOAD DUP1 SWAP2 SUB SWAP1 RETURN JUMPDEST PUSH1 0xD PUSH0 CALLER PUSH20 0xFFFFFFFFFFFFFFFFFFFFFFFFFFFFFFFFFFFFFFFF AND PUSH20 0xFFFFFFFFFFFFFFFFFFFFFFFFFFFFFFFFFFFFFFFF AND DUP2 MSTORE PUSH1 0x20 ADD SWAP1 DUP2 MSTORE PUSH1 0x20 ADD PUSH0 KECCAK256 PUSH0 SWAP1 SLOAD SWAP1 PUSH2 0x100 EXP SWAP1 DIV PUSH1 0xFF AND PUSH2 0xAFC JUMPI PUSH1 0x40 MLOAD PUSH32 0x8C379A000000000000000000000000000000000000000000000000000000000 DUP2 MSTORE PUSH1 0x4 ADD PUSH2 0xAF3 SWAP1 PUSH2 0x528E JUMP JUMPDEST PUSH1 0x40 MLOAD DUP1 SWAP2 SUB SWAP1 REVERT JUMPDEST PUSH1 0x11 PUSH1 0x1 SWAP1 SLOAD SWAP1 PUSH2 0x100 EXP SWAP1 DIV PUSH1 0xFF AND ISZERO PUSH2 0xB4C JUMPI PUSH1 0x40 MLOAD PUSH32 0x8C379A000000000000000000000000000000000000000000000000000000000 DUP2 MSTORE PUSH1 0x4 ADD PUSH2 0xB43 SWAP1 PUSH2 0x52F6 JUMP JUMPDEST PUSH1 0x40 MLOAD DUP1 SWAP2 SUB SWAP1 REVERT JUMPDEST PUSH0 PUSH1 0xF PUSH0 DUP4 DUP2 MSTORE PUSH1 0x20 ADD SWAP1 DUP2 MSTORE PUSH1 0x20 ADD PUSH0 KECCAK256 SWAP1 POP DUP1 PUSH1 0x8 ADD PUSH0 SWAP1 SLOAD SWAP1 PUSH2 0x100 EXP SWAP1 DIV PUSH1 0xFF AND PUSH2 0xBB0 JUMPI PUSH1 0x40 MLOAD PUSH32 0x8C379A000000000000000000000000000000000000000000000000000000000 DUP2 MSTORE PUSH1 0x4 ADD PUSH2 0xBA7 SWAP1 PUSH2 0x535E JUMP JUMPDEST PUSH1 0x40 MLOAD DUP1 SWAP2 SUB SWAP1 REVERT JUMPDEST PUSH1 0xE PUSH0 DUP4 DUP2 MSTORE PUSH1 0x20 ADD SWAP1 DUP2 MSTORE PUSH1 0x20 ADD PUSH0 KECCAK256 PUSH0 CALLER PUSH20 0xFFFFFFFFFFFFFFFFFFFFFFFFFFFFFFFFFFFFFFFF AND PUSH20 0xFFFFFFFFFFFFFFFFFFFFFFFFFFFFFFFFFFFFFFFF AND DUP2 MSTORE PUSH1 0x20 ADD SWAP1 DUP2 MSTORE PUSH1 0x20 ADD PUSH0 KECCAK256 PUSH0 SWAP1 SLOAD SWAP1 PUSH2 0x100 EXP SWAP1 DIV PUSH1 0xFF AND ISZERO PUSH2 0xC49 JUMPI PUSH1 0x40 MLOAD PUSH32 0x8C379A000000000000000000000000000000000000000000000000000000000 DUP2 MSTORE PUSH1 0x4 ADD PUSH2 0xC40 SWAP1 PUSH2 0x53C6 JUMP JUMPDEST PUSH1 0x40 MLOAD DUP1 SWAP2 SUB SWAP1 REVERT JUMPDEST PUSH1 0x11 PUSH0 SWAP1 SLOAD SWAP1 PUSH2 0x100 EXP SWAP1 DIV PUSH1 0xFF AND ISZERO PUSH2 0xC98 JUMPI PUSH1 0x40 MLOAD PUSH32 0x8C379A000000000000000000000000000000000000000000000000000000000 DUP2 MSTORE PUSH1 0x4 ADD PUSH2 0xC8F SWAP1 PUSH2 0x542E JUMP JUMPDEST PUSH1 0x40 MLOAD DUP1 SWAP2 SUB SWAP1 REVERT JUMPDEST PUSH1 0x1 PUSH1 0xE PUSH0 DUP5 DUP2 MSTORE PUSH1 0x20 ADD SWAP1 DUP2 MSTORE PUSH1 0x20 ADD PUSH0 KECCAK256 PUSH0 CALLER PUSH20 0xFFFFFFFFFFFFFFFFFFFFFFFFFFFFFFFFFFFFFFFF AND PUSH20 0xFFFFFFFFFFFFFFFFFFFFFFFFFFFFFFFFFFFFFFFF AND DUP2 MSTORE PUSH1 0x20 ADD SWAP1 DUP2 MSTORE PUSH1 0x20 ADD PUSH0 KECCAK256 PUSH0 PUSH2 0x100 EXP DUP2 SLOAD DUP2 PUSH1 0xFF MUL NOT AND SWAP1 DUP4 ISZERO ISZERO MUL OR SWAP1 SSTORE POP DUP1 PUSH1 0x1 ADD PUSH0 DUP2 SLOAD DUP1 SWAP3 SWAP2 SWAP1 PUSH2 0xD10 SWAP1 PUSH2 0x5479 JUMP JUMPDEST SWAP2 SWAP1 POP SSTORE POP PUSH0 PUSH1 0x7 DUP1 DUP2 GT ISZERO PUSH2 0xD29 JUMPI PUSH2 0xD28 PUSH2 0x4B41 JUMP JUMPDEST JUMPDEST DUP3 PUSH0 ADD PUSH0 SWAP1 SLOAD SWAP1 PUSH2 0x100 EXP SWAP1 DIV PUSH1 0xFF AND PUSH1 0x7 DUP2 GT ISZERO PUSH2 0xD4B JUMPI PUSH2 0xD4A PUSH2 0x4B41 JUMP JUMPDEST JUMPDEST EQ PUSH2 0xDDB JUMPI PUSH1 0x3 PUSH1 0x7 DUP2 GT ISZERO PUSH2 0xD64 JUMPI PUSH2 0xD63 PUSH2 0x4B41 JUMP JUMPDEST JUMPDEST DUP3 PUSH0 ADD PUSH0 SWAP1 SLOAD SWAP1 PUSH2 0x100 EXP SWAP1 DIV PUSH1 0xFF AND PUSH1 0x7 DUP2 GT ISZERO PUSH2 0xD86 JUMPI PUSH2 0xD85 PUSH2 0x4B41 JUMP JUMPDEST JUMPDEST LT ISZERO DUP1 ISZERO PUSH2 0xDC8 JUMPI POP PUSH1 0x6 PUSH1 0x7 DUP2 GT ISZERO PUSH2 0xDA3 JUMPI PUSH2 0xDA2 PUSH2 0x4B41 JUMP JUMPDEST JUMPDEST DUP3 PUSH0 ADD PUSH0 SWAP1 SLOAD SWAP1 PUSH2 0x100 EXP SWAP1 DIV PUSH1 0xFF AND PUSH1 0x7 DUP2 GT ISZERO PUSH2 0xDC5 JUMPI PUSH2 0xDC4 PUSH2 0x4B41 JUMP JUMPDEST JUMPDEST GT ISZERO JUMPDEST PUSH2 0xDD3 JUMPI PUSH1 0x5 PUSH2 0xDD6 JUMP JUMPDEST PUSH1 0x3 JUMPDEST PUSH2 0xDDE JUMP JUMPDEST PUSH1 0x2 JUMPDEST SWAP1 POP DUP1 DUP3 PUSH1 0x1 ADD SLOAD GT ISZERO PUSH2 0xE27 JUMPI PUSH1 0x40 MLOAD PUSH32 0x8C379A000000000000000000000000000000000000000000000000000000000 DUP2 MSTORE PUSH1 0x4 ADD PUSH2 0xE1E SWAP1 PUSH2 0x550A JUMP JUMPDEST PUSH1 0x40 MLOAD DUP1 SWAP2 SUB SWAP1 REVERT JUMPDEST POP POP POP JUMP JUMPDEST PUSH1 0xF PUSH1 0x20 MSTORE DUP1 PUSH0 MSTORE PUSH1 0x40 PUSH0 KECCAK256 PUSH0 SWAP2 POP SWAP1 POP DUP1 PUSH0 ADD PUSH0 SWAP1 SLOAD SWAP1 PUSH2 0x100 EXP SWAP1 DIV PUSH1 0xFF AND SWAP1 DUP1 PUSH0 ADD PUSH1 0x1 SWAP1 SLOAD SWAP1 PUSH2 0x100 EXP SWAP1 DIV PUSH20 0xFFFFFFFFFFFFFFFFFFFFFFFFFFFFFFFFFFFFFFFF AND SWAP1 DUP1 PUSH1 0x1 ADD SLOAD SWAP1 DUP1 PUSH1 0x2 ADD SLOAD SWAP1 DUP1 PUSH1 0x3 ADD PUSH0 SWAP1 SLOAD SWAP1 PUSH2 0x100 EXP SWAP1 DIV PUSH20 0xFFFFFFFFFFFFFFFFFFFFFFFFFFFFFFFFFFFFFFFF AND SWAP1 DUP1 PUSH1 0x4 ADD SLOAD SWAP1 DUP1 PUSH1 0x5 ADD DUP1 SLOAD PUSH2 0xEB9 SWAP1 PUSH2 0x5555 JUMP JUMPDEST DUP1 PUSH1 0x1F ADD PUSH1 0x20 DUP1 SWAP2 DIV MUL PUSH1 0x20 ADD PUSH1 0x40 MLOAD SWAP1 DUP2 ADD PUSH1 0x40 MSTORE DUP1 SWAP3 SWAP2 SWAP1 DUP2 DUP2 MSTORE PUSH1 0x20 ADD DUP3 DUP1 SLOAD PUSH2 0xEE5 SWAP1 PUSH2 0x5555 JUMP JUMPDEST DUP1 ISZERO PUSH2 0xF30 JUMPI DUP1 PUSH1 0x1F LT PUSH2 0xF07 JUMPI PUSH2 0x100 DUP1 DUP4 SLOAD DIV MUL DUP4 MSTORE SWAP2 PUSH1 0x20 ADD SWAP2 PUSH2 0xF30 JUMP JUMPDEST DUP3 ADD SWAP2 SWAP1 PUSH0 MSTORE PUSH1 0x20 PUSH0 KECCAK256 SWAP1 JUMPDEST DUP2 SLOAD DUP2 MSTORE SWAP1 PUSH1 0x1 ADD SWAP1 PUSH1 0x20 ADD DUP1 DUP4 GT PUSH2 0xF13 JUMPI DUP3 SWAP1 SUB PUSH1 0x1F AND DUP3 ADD SWAP2 JUMPDEST POP POP POP POP POP SWAP1 DUP1 PUSH1 0x8 ADD PUSH0 SWAP1 SLOAD SWAP1 PUSH2 0x100 EXP SWAP1 DIV PUSH1 0xFF AND SWAP1 POP DUP9 JUMP JUMPDEST PUSH1 0xD PUSH0 CALLER PUSH20 0xFFFFFFFFFFFFFFFFFFFFFFFFFFFFFFFFFFFFFFFF AND PUSH20 0xFFFFFFFFFFFFFFFFFFFFFFFFFFFFFFFFFFFFFFFF AND DUP2 MSTORE PUSH1 0x20 ADD SWAP1 DUP2 MSTORE PUSH1 0x20 ADD PUSH0 KECCAK256 PUSH0 SWAP1 SLOAD SWAP1 PUSH2 0x100 EXP SWAP1 DIV PUSH1 0xFF AND PUSH2 0xFD5 JUMPI PUSH1 0x40 MLOAD PUSH32 0x8C379A000000000000000000000000000000000000000000000000000000000 DUP2 MSTORE PUSH1 0x4 ADD PUSH2 0xFCC SWAP1 PUSH2 0x528E JUMP JUMPDEST PUSH1 0x40 MLOAD DUP1 SWAP2 SUB SWAP1 REVERT JUMPDEST PUSH1 0x11 PUSH1 0x1 SWAP1 SLOAD SWAP1 PUSH2 0x100 EXP SWAP1 DIV PUSH1 0xFF AND ISZERO PUSH2 0x1025 JUMPI PUSH1 0x40 MLOAD PUSH32 0x8C379A000000000000000000000000000000000000000000000000000000000 DUP2 MSTORE PUSH1 0x4 ADD PUSH2 0x101C SWAP1 PUSH2 0x52F6 JUMP JUMPDEST PUSH1 0x40 MLOAD DUP1 SWAP2 SUB SWAP1 REVERT JUMPDEST PUSH2 0x102D PUSH2 0x418D JUMP JUMPDEST PUSH0 DUP2 MLOAD GT PUSH2 0x1070 JUMPI PUSH1 0x40 MLOAD PUSH32 0x8C379A000000000000000000000000000000000000000000000000000000000 DUP2 MSTORE PUSH1 0x4 ADD PUSH2 0x1067 SWAP1 PUSH2 0x55F5 JUMP JUMPDEST PUSH1 0x40 MLOAD DUP1 SWAP2 SUB SWAP1 REVERT JUMPDEST PUSH0 PUSH9 0x56BC75E2D63100000 DUP3 MLOAD PUSH2 0x1087 SWAP2 SWAP1 PUSH2 0x5613 JUMP JUMPDEST SWAP1 POP PUSH1 0x7 SLOAD DUP2 PUSH1 0xB SLOAD PUSH2 0x109A SWAP2 SWAP1 PUSH2 0x5654 JUMP JUMPDEST GT ISZERO PUSH2 0x10DB JUMPI PUSH1 0x40 MLOAD PUSH32 0x8C379A000000000000000000000000000000000000000000000000000000000 DUP2 MSTORE PUSH1 0x4 ADD PUSH2 0x10D2 SWAP1 PUSH2 0x56D1 JUMP JUMPDEST PUSH1 0x40 MLOAD DUP1 SWAP2 SUB SWAP1 REVERT JUMPDEST PUSH0 PUSH0 SWAP1 POP JUMPDEST DUP3 MLOAD DUP2 LT ISZERO PUSH2 0x121F JUMPI PUSH0 DUP4 DUP3 DUP2 MLOAD DUP2 LT PUSH2 0x10FD JUMPI PUSH2 0x10FC PUSH2 0x56EF JUMP JUMPDEST JUMPDEST PUSH1 0x20 MUL PUSH1 0x20 ADD ADD MLOAD SWAP1 POP PUSH0 PUSH20 0xFFFFFFFFFFFFFFFFFFFFFFFFFFFFFFFFFFFFFFFF AND DUP2 PUSH20 0xFFFFFFFFFFFFFFFFFFFFFFFFFFFFFFFFFFFFFFFF AND SUB PUSH2 0x1175 JUMPI PUSH1 0x40 MLOAD PUSH32 0x8C379A000000000000000000000000000000000000000000000000000000000 DUP2 MSTORE PUSH1 0x4 ADD PUSH2 0x116C SWAP1 PUSH2 0x5766 JUMP JUMPDEST PUSH1 0x40 MLOAD DUP1 SWAP2 SUB SWAP1 REVERT JUMPDEST PUSH1 0x8 PUSH0 DUP3 PUSH20 0xFFFFFFFFFFFFFFFFFFFFFFFFFFFFFFFFFFFFFFFF AND PUSH20 0xFFFFFFFFFFFFFFFFFFFFFFFFFFFFFFFFFFFFFFFF AND DUP2 MSTORE PUSH1 0x20 ADD SWAP1 DUP2 MSTORE PUSH1 0x20 ADD PUSH0 KECCAK256 PUSH0 SWAP1 SLOAD SWAP1 PUSH2 0x100 EXP SWAP1 DIV PUSH1 0xFF AND PUSH2 0x11FE JUMPI PUSH1 0x40 MLOAD PUSH32 0x8C379A000000000000000000000000000000000000000000000000000000000 DUP2 MSTORE PUSH1 0x4 ADD PUSH2 0x11F5 SWAP1 PUSH2 0x57CE JUMP JUMPDEST PUSH1 0x40 MLOAD DUP1 SWAP2 SUB SWAP1 REVERT JUMPDEST PUSH2 0x1211 DUP2 PUSH9 0x56BC75E2D63100000 PUSH2 0x41DC JUMP JUMPDEST POP DUP1 DUP1 PUSH1 0x1 ADD SWAP2 POP POP PUSH2 0x10E0 JUMP JUMPDEST POP DUP1 PUSH1 0xB PUSH0 DUP3 DUP3 SLOAD PUSH2 0x1231 SWAP2 SWAP1 PUSH2 0x5654 JUMP JUMPDEST SWAP3 POP POP DUP2 SWAP1 SSTORE POP DUP2 PUSH1 0x40 MLOAD PUSH2 0x1246 SWAP2 SWAP1 PUSH2 0x589D JUMP JUMPDEST PUSH1 0x40 MLOAD DUP1 SWAP2 SUB SWAP1 KECCAK256 PUSH31 0xACE58C0296D0E51441FA0AE300A48B39BCC117727656A85C8631B51F33B596 PUSH9 0x56BC75E2D63100000 PUSH1 0x40 MLOAD PUSH2 0x1285 SWAP2 SWAP1 PUSH2 0x4EE0 JUMP JUMPDEST PUSH1 0x40 MLOAD DUP1 SWAP2 SUB SWAP1 LOG2 POP PUSH2 0x1296 PUSH2 0x425B JUMP JUMPDEST POP JUMP JUMPDEST PUSH1 0x60 PUSH1 0x3 DUP1 SLOAD PUSH2 0x12A8 SWAP1 PUSH2 0x5555 JUMP JUMPDEST DUP1 PUSH1 0x1F ADD PUSH1 0x20 DUP1 SWAP2 DIV MUL PUSH1 0x20 ADD PUSH1 0x40 MLOAD SWAP1 DUP2 ADD PUSH1 0x40 MSTORE DUP1 SWAP3 SWAP2 SWAP1 DUP2 DUP2 MSTORE PUSH1 0x20 ADD DUP3 DUP1 SLOAD PUSH2 0x12D4 SWAP1 PUSH2 0x5555 JUMP JUMPDEST DUP1 ISZERO PUSH2 0x131F JUMPI DUP1 PUSH1 0x1F LT PUSH2 0x12F6 JUMPI PUSH2 0x100 DUP1 DUP4 SLOAD DIV MUL DUP4 MSTORE SWAP2 PUSH1 0x20 ADD SWAP2 PUSH2 0x131F JUMP JUMPDEST DUP3 ADD SWAP2 SWAP1 PUSH0 MSTORE PUSH1 0x20 PUSH0 KECCAK256 SWAP1 JUMPDEST DUP2 SLOAD DUP2 MSTORE SWAP1 PUSH1 0x1 ADD SWAP1 PUSH1 0x20 ADD DUP1 DUP4 GT PUSH2 0x1302 JUMPI DUP3 SWAP1 SUB PUSH1 0x1F AND DUP3 ADD SWAP2 JUMPDEST POP POP POP POP POP SWAP1 POP SWAP1 JUMP JUMPDEST PUSH2 0x12C DUP2 JUMP JUMPDEST PUSH0 PUSH0 PUSH2 0x1339 PUSH2 0x4265 JUMP JUMPDEST SWAP1 POP PUSH2 0x1346 DUP2 DUP6 DUP6 PUSH2 0x426C JUMP JUMPDEST PUSH1 0x1 SWAP2 POP POP SWAP3 SWAP2 POP POP JUMP JUMPDEST PUSH1 0xD PUSH0 CALLER PUSH20 0xFFFFFFFFFFFFFFFFFFFFFFFFFFFFFFFFFFFFFFFF AND PUSH20 0xFFFFFFFFFFFFFFFFFFFFFFFFFFFFFFFFFFFFFFFF AND DUP2 MSTORE PUSH1 0x20 ADD SWAP1 DUP2 MSTORE PUSH1 0x20 ADD PUSH0 KECCAK256 PUSH0 SWAP1 SLOAD SWAP1 PUSH2 0x100 EXP SWAP1 DIV PUSH1 0xFF AND PUSH2 0x13DA JUMPI PUSH1 0x40 MLOAD PUSH32 0x8C379A000000000000000000000000000000000000000000000000000000000 DUP2 MSTORE PUSH1 0x4 ADD PUSH2 0x13D1 SWAP1 PUSH2 0x528E JUMP JUMPDEST PUSH1 0x40 MLOAD DUP1 SWAP2 SUB SWAP1 REVERT JUMPDEST PUSH1 0x11 PUSH1 0x1 SWAP1 SLOAD SWAP1 PUSH2 0x100 EXP SWAP1 DIV PUSH1 0xFF AND ISZERO PUSH2 0x142A JUMPI PUSH1 0x40 MLOAD PUSH32 0x8C379A000000000000000000000000000000000000000000000000000000000 DUP2 MSTORE PUSH1 0x4 ADD PUSH2 0x1421 SWAP1 PUSH2 0x52F6 JUMP JUMPDEST PUSH1 0x40 MLOAD DUP1 SWAP2 SUB SWAP1 REVERT JUMPDEST PUSH0 ISZERO ISZERO PUSH1 0xF PUSH0 PUSH1 0x10 SLOAD DUP2 MSTORE PUSH1 0x20 ADD SWAP1 DUP2 MSTORE PUSH1 0x20 ADD PUSH0 KECCAK256 PUSH1 0x8 ADD PUSH0 SWAP1 SLOAD SWAP1 PUSH2 0x100 EXP SWAP1 DIV PUSH1 0xFF AND ISZERO ISZERO EQ PUSH2 0x1492 JUMPI PUSH1 0x40 MLOAD PUSH32 0x8C379A000000000000000000000000000000000000000000000000000000000 DUP2 MSTORE PUSH1 0x4 ADD PUSH2 0x1489 SWAP1 PUSH2 0x58FD JUMP JUMPDEST PUSH1 0x40 MLOAD DUP1 SWAP2 SUB SWAP1 REVERT JUMPDEST PUSH0 PUSH1 0x7 DUP2 GT ISZERO PUSH2 0x14A5 JUMPI PUSH2 0x14A4 PUSH2 0x4B41 JUMP JUMPDEST JUMPDEST DUP7 PUSH1 0x7 DUP2 GT ISZERO PUSH2 0x14B8 JUMPI PUSH2 0x14B7 PUSH2 0x4B41 JUMP JUMPDEST JUMPDEST SUB PUSH2 0x1505 JUMPI PUSH0 DUP4 MLOAD GT PUSH2 0x1500 JUMPI PUSH1 0x40 MLOAD PUSH32 0x8C379A000000000000000000000000000000000000000000000000000000000 DUP2 MSTORE PUSH1 0x4 ADD PUSH2 0x14F7 SWAP1 PUSH2 0x5965 JUMP JUMPDEST PUSH1 0x40 MLOAD DUP1 SWAP2 SUB SWAP1 REVERT JUMPDEST PUSH2 0x1DC5 JUMP JUMPDEST PUSH1 0x1 PUSH1 0x7 DUP2 GT ISZERO PUSH2 0x1519 JUMPI PUSH2 0x1518 PUSH2 0x4B41 JUMP JUMPDEST JUMPDEST DUP7 PUSH1 0x7 DUP2 GT ISZERO PUSH2 0x152C JUMPI PUSH2 0x152B PUSH2 0x4B41 JUMP JUMPDEST JUMPDEST SUB PUSH2 0x161A JUMPI PUSH0 DUP5 SUB PUSH2 0x1573 JUMPI PUSH1 0x40 MLOAD PUSH32 0x8C379A000000000000000000000000000000000000000000000000000000000 DUP2 MSTORE PUSH1 0x4 ADD PUSH2 0x156A SWAP1 PUSH2 0x59F3 JUMP JUMPDEST PUSH1 0x40 MLOAD DUP1 SWAP2 SUB SWAP1 REVERT JUMPDEST PUSH1 0xB SLOAD DUP5 PUSH1 0x7 SLOAD PUSH2 0x1584 SWAP2 SWAP1 PUSH2 0x5A1A JUMP JUMPDEST SLT ISZERO PUSH2 0x15C5 JUMPI PUSH1 0x40 MLOAD PUSH32 0x8C379A000000000000000000000000000000000000000000000000000000000 DUP2 MSTORE PUSH1 0x4 ADD PUSH2 0x15BC SWAP1 PUSH2 0x5ACB JUMP JUMPDEST PUSH1 0x40 MLOAD DUP1 SWAP2 SUB SWAP1 REVERT JUMPDEST PUSH0 DUP5 PUSH1 0x7 SLOAD PUSH2 0x15D4 SWAP2 SWAP1 PUSH2 0x5A1A JUMP JUMPDEST SLT ISZERO PUSH2 0x1615 JUMPI PUSH1 0x40 MLOAD PUSH32 0x8C379A000000000000000000000000000000000000000000000000000000000 DUP2 MSTORE PUSH1 0x4 ADD PUSH2 0x160C SWAP1 PUSH2 0x5B33 JUMP JUMPDEST PUSH1 0x40 MLOAD DUP1 SWAP2 SUB SWAP1 REVERT JUMPDEST PUSH2 0x1DC4 JUMP JUMPDEST PUSH1 0x2 PUSH1 0x7 DUP2 GT ISZERO PUSH2 0x162E JUMPI PUSH2 0x162D PUSH2 0x4B41 JUMP JUMPDEST JUMPDEST DUP7 PUSH1 0x7 DUP2 GT ISZERO PUSH2 0x1641 JUMPI PUSH2 0x1640 PUSH2 0x4B41 JUMP JUMPDEST JUMPDEST SUB PUSH2 0x191A JUMPI DUP1 MLOAD DUP3 MLOAD EQ DUP1 ISZERO PUSH2 0x1657 JUMPI POP PUSH0 DUP3 MLOAD GT JUMPDEST PUSH2 0x1696 JUMPI PUSH1 0x40 MLOAD PUSH32 0x8C379A000000000000000000000000000000000000000000000000000000000 DUP2 MSTORE PUSH1 0x4 ADD PUSH2 0x168D SWAP1 PUSH2 0x5B9B JUMP JUMPDEST PUSH1 0x40 MLOAD DUP1 SWAP2 SUB SWAP1 REVERT JUMPDEST PUSH0 PUSH0 SWAP1 POP JUMPDEST DUP3 MLOAD DUP2 LT ISZERO PUSH2 0x1914 JUMPI PUSH1 0xD PUSH0 DUP5 DUP4 DUP2 MLOAD DUP2 LT PUSH2 0x16BA JUMPI PUSH2 0x16B9 PUSH2 0x56EF JUMP JUMPDEST JUMPDEST PUSH1 0x20 MUL PUSH1 0x20 ADD ADD MLOAD PUSH20 0xFFFFFFFFFFFFFFFFFFFFFFFFFFFFFFFFFFFFFFFF AND PUSH20 0xFFFFFFFFFFFFFFFFFFFFFFFFFFFFFFFFFFFFFFFF AND DUP2 MSTORE PUSH1 0x20 ADD SWAP1 DUP2 MSTORE PUSH1 0x20 ADD PUSH0 KECCAK256 PUSH0 SWAP1 SLOAD SWAP1 PUSH2 0x100 EXP SWAP1 DIV PUSH1 0xFF AND PUSH2 0x1747 JUMPI PUSH1 0x40 MLOAD PUSH32 0x8C379A000000000000000000000000000000000000000000000000000000000 DUP2 MSTORE PUSH1 0x4 ADD PUSH2 0x173E SWAP1 PUSH2 0x5C03 JUMP JUMPDEST PUSH1 0x40 MLOAD DUP1 SWAP2 SUB SWAP1 REVERT JUMPDEST PUSH0 PUSH20 0xFFFFFFFFFFFFFFFFFFFFFFFFFFFFFFFFFFFFFFFF AND DUP3 DUP3 DUP2 MLOAD DUP2 LT PUSH2 0x1771 JUMPI PUSH2 0x1770 PUSH2 0x56EF JUMP JUMPDEST JUMPDEST PUSH1 0x20 MUL PUSH1 0x20 ADD ADD MLOAD PUSH20 0xFFFFFFFFFFFFFFFFFFFFFFFFFFFFFFFFFFFFFFFF AND EQ ISZERO DUP1 ISZERO PUSH2 0x17FE JUMPI POP PUSH1 0xD PUSH0 DUP4 DUP4 DUP2 MLOAD DUP2 LT PUSH2 0x17AE JUMPI PUSH2 0x17AD PUSH2 0x56EF JUMP JUMPDEST JUMPDEST PUSH1 0x20 MUL PUSH1 0x20 ADD ADD MLOAD PUSH20 0xFFFFFFFFFFFFFFFFFFFFFFFFFFFFFFFFFFFFFFFF AND PUSH20 0xFFFFFFFFFFFFFFFFFFFFFFFFFFFFFFFFFFFFFFFF AND DUP2 MSTORE PUSH1 0x20 ADD SWAP1 DUP2 MSTORE PUSH1 0x20 ADD PUSH0 KECCAK256 PUSH0 SWAP1 SLOAD SWAP1 PUSH2 0x100 EXP SWAP1 DIV PUSH1 0xFF AND ISZERO JUMPDEST PUSH2 0x183D JUMPI PUSH1 0x40 MLOAD PUSH32 0x8C379A000000000000000000000000000000000000000000000000000000000 DUP2 MSTORE PUSH1 0x4 ADD PUSH2 0x1834 SWAP1 PUSH2 0x5C6B JUMP JUMPDEST PUSH1 0x40 MLOAD DUP1 SWAP2 SUB SWAP1 REVERT JUMPDEST PUSH0 PUSH1 0x1 DUP3 PUSH2 0x184B SWAP2 SWAP1 PUSH2 0x5654 JUMP JUMPDEST SWAP1 POP JUMPDEST DUP3 MLOAD DUP2 LT ISZERO PUSH2 0x1906 JUMPI DUP3 DUP2 DUP2 MLOAD DUP2 LT PUSH2 0x186A JUMPI PUSH2 0x1869 PUSH2 0x56EF JUMP JUMPDEST JUMPDEST PUSH1 0x20 MUL PUSH1 0x20 ADD ADD MLOAD PUSH20 0xFFFFFFFFFFFFFFFFFFFFFFFFFFFFFFFFFFFFFFFF AND DUP4 DUP4 DUP2 MLOAD DUP2 LT PUSH2 0x189B JUMPI PUSH2 0x189A PUSH2 0x56EF JUMP JUMPDEST JUMPDEST PUSH1 0x20 MUL PUSH1 0x20 ADD ADD MLOAD PUSH20 0xFFFFFFFFFFFFFFFFFFFFFFFFFFFFFFFFFFFFFFFF AND SUB PUSH2 0x18F9 JUMPI PUSH1 0x40 MLOAD PUSH32 0x8C379A000000000000000000000000000000000000000000000000000000000 DUP2 MSTORE PUSH1 0x4 ADD PUSH2 0x18F0 SWAP1 PUSH2 0x5CD3 JUMP JUMPDEST PUSH1 0x40 MLOAD DUP1 SWAP2 SUB SWAP1 REVERT JUMPDEST DUP1 DUP1 PUSH1 0x1 ADD SWAP2 POP POP PUSH2 0x184E JUMP JUMPDEST POP DUP1 DUP1 PUSH1 0x1 ADD SWAP2 POP POP PUSH2 0x169B JUMP JUMPDEST POP PUSH2 0x1DC3 JUMP JUMPDEST PUSH1 0x3 PUSH1 0x7 DUP2 GT ISZERO PUSH2 0x192E JUMPI PUSH2 0x192D PUSH2 0x4B41 JUMP JUMPDEST JUMPDEST DUP7 PUSH1 0x7 DUP2 GT ISZERO PUSH2 0x1941 JUMPI PUSH2 0x1940 PUSH2 0x4B41 JUMP JUMPDEST JUMPDEST SUB PUSH2 0x1A0D JUMPI PUSH0 PUSH20 0xFFFFFFFFFFFFFFFFFFFFFFFFFFFFFFFFFFFFFFFF AND DUP6 PUSH20 0xFFFFFFFFFFFFFFFFFFFFFFFFFFFFFFFFFFFFFFFF AND EQ ISZERO DUP1 ISZERO PUSH2 0x19C9 JUMPI POP PUSH1 0x8 PUSH0 DUP7 PUSH20 0xFFFFFFFFFFFFFFFFFFFFFFFFFFFFFFFFFFFFFFFF AND PUSH20 0xFFFFFFFFFFFFFFFFFFFFFFFFFFFFFFFFFFFFFFFF AND DUP2 MSTORE PUSH1 0x20 ADD SWAP1 DUP2 MSTORE PUSH1 0x20 ADD PUSH0 KECCAK256 PUSH0 SWAP1 SLOAD SWAP1 PUSH2 0x100 EXP SWAP1 DIV PUSH1 0xFF AND ISZERO JUMPDEST PUSH2 0x1A08 JUMPI PUSH1 0x40 MLOAD PUSH32 0x8C379A000000000000000000000000000000000000000000000000000000000 DUP2 MSTORE PUSH1 0x4 ADD PUSH2 0x19FF SWAP1 PUSH2 0x5D3B JUMP JUMPDEST PUSH1 0x40 MLOAD DUP1 SWAP2 SUB SWAP1 REVERT JUMPDEST PUSH2 0x1DC2 JUMP JUMPDEST PUSH1 0x4 PUSH1 0x7 DUP2 GT ISZERO PUSH2 0x1A21 JUMPI PUSH2 0x1A20 PUSH2 0x4B41 JUMP JUMPDEST JUMPDEST DUP7 PUSH1 0x7 DUP2 GT ISZERO PUSH2 0x1A34 JUMPI PUSH2 0x1A33 PUSH2 0x4B41 JUMP JUMPDEST JUMPDEST SUB PUSH2 0x1AC7 JUMPI PUSH1 0x8 PUSH0 DUP7 PUSH20 0xFFFFFFFFFFFFFFFFFFFFFFFFFFFFFFFFFFFFFFFF AND PUSH20 0xFFFFFFFFFFFFFFFFFFFFFFFFFFFFFFFFFFFFFFFF AND DUP2 MSTORE PUSH1 0x20 ADD SWAP1 DUP2 MSTORE PUSH1 0x20 ADD PUSH0 KECCAK256 PUSH0 SWAP1 SLOAD SWAP1 PUSH2 0x100 EXP SWAP1 DIV PUSH1 0xFF AND PUSH2 0x1AC2 JUMPI PUSH1 0x40 MLOAD PUSH32 0x8C379A000000000000000000000000000000000000000000000000000000000 DUP2 MSTORE PUSH1 0x4 ADD PUSH2 0x1AB9 SWAP1 PUSH2 0x5DA3 JUMP JUMPDEST PUSH1 0x40 MLOAD DUP1 SWAP2 SUB SWAP1 REVERT JUMPDEST PUSH2 0x1DC1 JUMP JUMPDEST PUSH1 0x5 PUSH1 0x7 DUP2 GT ISZERO PUSH2 0x1ADB JUMPI PUSH2 0x1ADA PUSH2 0x4B41 JUMP JUMPDEST JUMPDEST DUP7 PUSH1 0x7 DUP2 GT ISZERO PUSH2 0x1AEE JUMPI PUSH2 0x1AED PUSH2 0x4B41 JUMP JUMPDEST JUMPDEST SUB PUSH2 0x1BBA JUMPI PUSH0 PUSH20 0xFFFFFFFFFFFFFFFFFFFFFFFFFFFFFFFFFFFFFFFF AND DUP6 PUSH20 0xFFFFFFFFFFFFFFFFFFFFFFFFFFFFFFFFFFFFFFFF AND EQ ISZERO DUP1 ISZERO PUSH2 0x1B76 JUMPI POP PUSH1 0x9 PUSH0 DUP7 PUSH20 0xFFFFFFFFFFFFFFFFFFFFFFFFFFFFFFFFFFFFFFFF AND PUSH20 0xFFFFFFFFFFFFFFFFFFFFFFFFFFFFFFFFFFFFFFFF AND DUP2 MSTORE PUSH1 0x20 ADD SWAP1 DUP2 MSTORE PUSH1 0x20 ADD PUSH0 KECCAK256 PUSH0 SWAP1 SLOAD SWAP1 PUSH2 0x100 EXP SWAP1 DIV PUSH1 0xFF AND ISZERO JUMPDEST PUSH2 0x1BB5 JUMPI PUSH1 0x40 MLOAD PUSH32 0x8C379A000000000000000000000000000000000000000000000000000000000 DUP2 MSTORE PUSH1 0x4 ADD PUSH2 0x1BAC SWAP1 PUSH2 0x5E0B JUMP JUMPDEST PUSH1 0x40 MLOAD DUP1 SWAP2 SUB SWAP1 REVERT JUMPDEST PUSH2 0x1DC0 JUMP JUMPDEST PUSH1 0x6 PUSH1 0x7 DUP2 GT ISZERO PUSH2 0x1BCE JUMPI PUSH2 0x1BCD PUSH2 0x4B41 JUMP JUMPDEST JUMPDEST DUP7 PUSH1 0x7 DUP2 GT ISZERO PUSH2 0x1BE1 JUMPI PUSH2 0x1BE0 PUSH2 0x4B41 JUMP JUMPDEST JUMPDEST SUB PUSH2 0x1C74 JUMPI PUSH1 0x9 PUSH0 DUP7 PUSH20 0xFFFFFFFFFFFFFFFFFFFFFFFFFFFFFFFFFFFFFFFF AND PUSH20 0xFFFFFFFFFFFFFFFFFFFFFFFFFFFFFFFFFFFFFFFF AND DUP2 MSTORE PUSH1 0x20 ADD SWAP1 DUP2 MSTORE PUSH1 0x20 ADD PUSH0 KECCAK256 PUSH0 SWAP1 SLOAD SWAP1 PUSH2 0x100 EXP SWAP1 DIV PUSH1 0xFF AND PUSH2 0x1C6F JUMPI PUSH1 0x40 MLOAD PUSH32 0x8C379A000000000000000000000000000000000000000000000000000000000 DUP2 MSTORE PUSH1 0x4 ADD PUSH2 0x1C66 SWAP1 PUSH2 0x5E73 JUMP JUMPDEST PUSH1 0x40 MLOAD DUP1 SWAP2 SUB SWAP1 REVERT JUMPDEST PUSH2 0x1DBF JUMP JUMPDEST PUSH1 0x7 DUP1 DUP2 GT ISZERO PUSH2 0x1C87 JUMPI PUSH2 0x1C86 PUSH2 0x4B41 JUMP JUMPDEST JUMPDEST DUP7 PUSH1 0x7 DUP2 GT ISZERO PUSH2 0x1C9A JUMPI PUSH2 0x1C99 PUSH2 0x4B41 JUMP JUMPDEST JUMPDEST SUB PUSH2 0x1DBE JUMPI PUSH1 0x8 PUSH0 DUP7 PUSH20 0xFFFFFFFFFFFFFFFFFFFFFFFFFFFFFFFFFFFFFFFF AND PUSH20 0xFFFFFFFFFFFFFFFFFFFFFFFFFFFFFFFFFFFFFFFF AND DUP2 MSTORE PUSH1 0x20 ADD SWAP1 DUP2 MSTORE PUSH1 0x20 ADD PUSH0 KECCAK256 PUSH0 SWAP1 SLOAD SWAP1 PUSH2 0x100 EXP SWAP1 DIV PUSH1 0xFF AND DUP1 ISZERO PUSH2 0x1D21 JUMPI POP PUSH0 PUSH20 0xFFFFFFFFFFFFFFFFFFFFFFFFFFFFFFFFFFFFFFFF AND DUP6 PUSH20 0xFFFFFFFFFFFFFFFFFFFFFFFFFFFFFFFFFFFFFFFF AND EQ ISZERO JUMPDEST PUSH2 0x1D60 JUMPI PUSH1 0x40 MLOAD PUSH32 0x8C379A000000000000000000000000000000000000000000000000000000000 DUP2 MSTORE PUSH1 0x4 ADD PUSH2 0x1D57 SWAP1 PUSH2 0x5EDB JUMP JUMPDEST PUSH1 0x40 MLOAD DUP1 SWAP2 SUB SWAP1 REVERT JUMPDEST PUSH0 DUP5 GT DUP1 ISZERO PUSH2 0x1D7E JUMPI POP PUSH1 0x7 SLOAD DUP5 PUSH1 0xB SLOAD PUSH2 0x1D7B SWAP2 SWAP1 PUSH2 0x5654 JUMP JUMPDEST GT ISZERO JUMPDEST PUSH2 0x1DBD JUMPI PUSH1 0x40 MLOAD PUSH32 0x8C379A000000000000000000000000000000000000000000000000000000000 DUP2 MSTORE PUSH1 0x4 ADD PUSH2 0x1DB4 SWAP1 PUSH2 0x5F43 JUMP JUMPDEST PUSH1 0x40 MLOAD DUP1 SWAP2 SUB SWAP1 REVERT JUMPDEST JUMPDEST JUMPDEST JUMPDEST JUMPDEST JUMPDEST JUMPDEST JUMPDEST JUMPDEST PUSH1 0x40 MLOAD DUP1 PUSH2 0x140 ADD PUSH1 0x40 MSTORE DUP1 DUP8 PUSH1 0x7 DUP2 GT ISZERO PUSH2 0x1DE4 JUMPI PUSH2 0x1DE3 PUSH2 0x4B41 JUMP JUMPDEST JUMPDEST DUP2 MSTORE PUSH1 0x20 ADD CALLER PUSH20 0xFFFFFFFFFFFFFFFFFFFFFFFFFFFFFFFFFFFFFFFF AND DUP2 MSTORE PUSH1 0x20 ADD PUSH0 DUP2 MSTORE PUSH1 0x20 ADD PUSH1 0x2 PUSH1 0x7 DUP2 GT ISZERO PUSH2 0x1E1F JUMPI PUSH2 0x1E1E PUSH2 0x4B41 JUMP JUMPDEST JUMPDEST DUP9 PUSH1 0x7 DUP2 GT ISZERO PUSH2 0x1E32 JUMPI PUSH2 0x1E31 PUSH2 0x4B41 JUMP JUMPDEST JUMPDEST GT ISZERO PUSH2 0x1E3E JUMPI TIMESTAMP PUSH2 0x1E4C JUMP JUMPDEST PUSH1 0x78 TIMESTAMP PUSH2 0x1E4B SWAP2 SWAP1 PUSH2 0x5654 JUMP JUMPDEST JUMPDEST DUP2 MSTORE PUSH1 0x20 ADD DUP7 PUSH20 0xFFFFFFFFFFFFFFFFFFFFFFFFFFFFFFFFFFFFFFFF AND DUP2 MSTORE PUSH1 0x20 ADD DUP6 DUP2 MSTORE PUSH1 0x20 ADD DUP5 DUP2 MSTORE PUSH1 0x20 ADD DUP4 DUP2 MSTORE PUSH1 0x20 ADD DUP3 DUP2 MSTORE PUSH1 0x20 ADD PUSH1 0x1 ISZERO ISZERO DUP2 MSTORE POP PUSH1 0xF PUSH0 PUSH1 0x10 SLOAD DUP2 MSTORE PUSH1 0x20 ADD SWAP1 DUP2 MSTORE PUSH1 0x20 ADD PUSH0 KECCAK256 PUSH0 DUP3 ADD MLOAD DUP2 PUSH0 ADD PUSH0 PUSH2 0x100 EXP DUP2 SLOAD DUP2 PUSH1 0xFF MUL NOT AND SWAP1 DUP4 PUSH1 0x7 DUP2 GT ISZERO PUSH2 0x1EC7 JUMPI PUSH2 0x1EC6 PUSH2 0x4B41 JUMP JUMPDEST JUMPDEST MUL OR SWAP1 SSTORE POP PUSH1 0x20 DUP3 ADD MLOAD DUP2 PUSH0 ADD PUSH1 0x1 PUSH2 0x100 EXP DUP2 SLOAD DUP2 PUSH20 0xFFFFFFFFFFFFFFFFFFFFFFFFFFFFFFFFFFFFFFFF MUL NOT AND SWAP1 DUP4 PUSH20 0xFFFFFFFFFFFFFFFFFFFFFFFFFFFFFFFFFFFFFFFF AND MUL OR SWAP1 SSTORE POP PUSH1 0x40 DUP3 ADD MLOAD DUP2 PUSH1 0x1 ADD SSTORE PUSH1 0x60 DUP3 ADD MLOAD DUP2 PUSH1 0x2 ADD SSTORE PUSH1 0x80 DUP3 ADD MLOAD DUP2 PUSH1 0x3 ADD PUSH0 PUSH2 0x100 EXP DUP2 SLOAD DUP2 PUSH20 0xFFFFFFFFFFFFFFFFFFFFFFFFFFFFFFFFFFFFFFFF MUL NOT AND SWAP1 DUP4 PUSH20 0xFFFFFFFFFFFFFFFFFFFFFFFFFFFFFFFFFFFFFFFF AND MUL OR SWAP1 SSTORE POP PUSH1 0xA0 DUP3 ADD MLOAD DUP2 PUSH1 0x4 ADD SSTORE PUSH1 0xC0 DUP3 ADD MLOAD DUP2 PUSH1 0x5 ADD SWAP1 DUP2 PUSH2 0x1F8B SWAP2 SWAP1 PUSH2 0x6101 JUMP JUMPDEST POP PUSH1 0xE0 DUP3 ADD MLOAD DUP2 PUSH1 0x6 ADD SWAP1 DUP1 MLOAD SWAP1 PUSH1 0x20 ADD SWAP1 PUSH2 0x1FA8 SWAP3 SWAP2 SWAP1 PUSH2 0x49D5 JUMP JUMPDEST POP PUSH2 0x100 DUP3 ADD MLOAD DUP2 PUSH1 0x7 ADD SWAP1 DUP1 MLOAD SWAP1 PUSH1 0x20 ADD SWAP1 PUSH2 0x1FC6 SWAP3 SWAP2 SWAP1 PUSH2 0x49D5 JUMP JUMPDEST POP PUSH2 0x120 DUP3 ADD MLOAD DUP2 PUSH1 0x8 ADD PUSH0 PUSH2 0x100 EXP DUP2 SLOAD DUP2 PUSH1 0xFF MUL NOT AND SWAP1 DUP4 ISZERO ISZERO MUL OR SWAP1 SSTORE POP SWAP1 POP POP PUSH1 0x10 SLOAD PUSH32 0x3263432A41F78A4701CC9465F62411ED717ADE32290C084135A3DD6B29F4BF28 DUP8 CALLER PUSH1 0x40 MLOAD PUSH2 0x201E SWAP3 SWAP2 SWAP1 PUSH2 0x61D0 JUMP JUMPDEST PUSH1 0x40 MLOAD DUP1 SWAP2 SUB SWAP1 LOG2 PUSH1 0x10 PUSH0 DUP2 SLOAD DUP1 SWAP3 SWAP2 SWAP1 PUSH2 0x2038 SWAP1 PUSH2 0x5479 JUMP JUMPDEST SWAP2 SWAP1 POP SSTORE POP POP POP POP POP POP POP JUMP JUMPDEST PUSH1 0x11 PUSH1 0x1 SWAP1 SLOAD SWAP1 PUSH2 0x100 EXP SWAP1 DIV PUSH1 0xFF AND ISZERO PUSH2 0x2095 JUMPI PUSH1 0x40 MLOAD PUSH32 0x8C379A000000000000000000000000000000000000000000000000000000000 DUP2 MSTORE PUSH1 0x4 ADD PUSH2 0x208C SWAP1 PUSH2 0x52F6 JUMP JUMPDEST PUSH1 0x40 MLOAD DUP1 SWAP2 SUB SWAP1 REVERT JUMPDEST PUSH0 PUSH1 0xF PUSH0 DUP4 DUP2 MSTORE PUSH1 0x20 ADD SWAP1 DUP2 MSTORE PUSH1 0x20 ADD PUSH0 KECCAK256 SWAP1 POP DUP1 PUSH1 0x8 ADD PUSH0 SWAP1 SLOAD SWAP1 PUSH2 0x100 EXP SWAP1 DIV PUSH1 0xFF AND PUSH2 0x20F9 JUMPI PUSH1 0x40 MLOAD PUSH32 0x8C379A000000000000000000000000000000000000000000000000000000000 DUP2 MSTORE PUSH1 0x4 ADD PUSH2 0x20F0 SWAP1 PUSH2 0x535E JUMP JUMPDEST PUSH1 0x40 MLOAD DUP1 SWAP2 SUB SWAP1 REVERT JUMPDEST DUP1 PUSH1 0x2 ADD SLOAD TIMESTAMP LT ISZERO PUSH2 0x2140 JUMPI PUSH1 0x40 MLOAD PUSH32 0x8C379A000000000000000000000000000000000000000000000000000000000 DUP2 MSTORE PUSH1 0x4 ADD PUSH2 0x2137 SWAP1 PUSH2 0x6267 JUMP JUMPDEST PUSH1 0x40 MLOAD DUP1 SWAP2 SUB SWAP1 REVERT JUMPDEST PUSH0 PUSH1 0x7 DUP1 DUP2 GT ISZERO PUSH2 0x2154 JUMPI PUSH2 0x2153 PUSH2 0x4B41 JUMP JUMPDEST JUMPDEST DUP3 PUSH0 ADD PUSH0 SWAP1 SLOAD SWAP1 PUSH2 0x100 EXP SWAP1 DIV PUSH1 0xFF AND PUSH1 0x7 DUP2 GT ISZERO PUSH2 0x2176 JUMPI PUSH2 0x2175 PUSH2 0x4B41 JUMP JUMPDEST JUMPDEST EQ PUSH2 0x2206 JUMPI PUSH1 0x3 PUSH1 0x7 DUP2 GT ISZERO PUSH2 0x218F JUMPI PUSH2 0x218E PUSH2 0x4B41 JUMP JUMPDEST JUMPDEST DUP3 PUSH0 ADD PUSH0 SWAP1 SLOAD SWAP1 PUSH2 0x100 EXP SWAP1 DIV PUSH1 0xFF AND PUSH1 0x7 DUP2 GT ISZERO PUSH2 0x21B1 JUMPI PUSH2 0x21B0 PUSH2 0x4B41 JUMP JUMPDEST JUMPDEST LT ISZERO DUP1 ISZERO PUSH2 0x21F3 JUMPI POP PUSH1 0x6 PUSH1 0x7 DUP2 GT ISZERO PUSH2 0x21CE JUMPI PUSH2 0x21CD PUSH2 0x4B41 JUMP JUMPDEST JUMPDEST DUP3 PUSH0 ADD PUSH0 SWAP1 SLOAD SWAP1 PUSH2 0x100 EXP SWAP1 DIV PUSH1 0xFF AND PUSH1 0x7 DUP2 GT ISZERO PUSH2 0x21F0 JUMPI PUSH2 0x21EF PUSH2 0x4B41 JUMP JUMPDEST JUMPDEST GT ISZERO JUMPDEST PUSH2 0x21FE JUMPI PUSH1 0x5 PUSH2 0x2201 JUMP JUMPDEST PUSH1 0x3 JUMPDEST PUSH2 0x2209 JUMP JUMPDEST PUSH1 0x2 JUMPDEST SWAP1 POP DUP1 DUP3 PUSH1 0x1 ADD SLOAD LT ISZERO PUSH2 0x2252 JUMPI PUSH1 0x40 MLOAD PUSH32 0x8C379A000000000000000000000000000000000000000000000000000000000 DUP2 MSTORE PUSH1 0x4 ADD PUSH2 0x2249 SWAP1 PUSH2 0x62CF JUMP JUMPDEST PUSH1 0x40 MLOAD DUP1 SWAP2 SUB SWAP1 REVERT JUMPDEST PUSH0 PUSH1 0x7 DUP2 GT ISZERO PUSH2 0x2265 JUMPI PUSH2 0x2264 PUSH2 0x4B41 JUMP JUMPDEST JUMPDEST DUP3 PUSH0 ADD PUSH0 SWAP1 SLOAD SWAP1 PUSH2 0x100 EXP SWAP1 DIV PUSH1 0xFF AND PUSH1 0x7 DUP2 GT ISZERO PUSH2 0x2287 JUMPI PUSH2 0x2286 PUSH2 0x4B41 JUMP JUMPDEST JUMPDEST SUB PUSH2 0x235E JUMPI PUSH2 0x231F DUP3 PUSH1 0x5 ADD DUP1 SLOAD PUSH2 0x229E SWAP1 PUSH2 0x5555 JUMP JUMPDEST DUP1 PUSH1 0x1F ADD PUSH1 0x20 DUP1 SWAP2 DIV MUL PUSH1 0x20 ADD PUSH1 0x40 MLOAD SWAP1 DUP2 ADD PUSH1 0x40 MSTORE DUP1 SWAP3 SWAP2 SWAP1 DUP2 DUP2 MSTORE PUSH1 0x20 ADD DUP3 DUP1 SLOAD PUSH2 0x22CA SWAP1 PUSH2 0x5555 JUMP JUMPDEST DUP1 ISZERO PUSH2 0x2315 JUMPI DUP1 PUSH1 0x1F LT PUSH2 0x22EC JUMPI PUSH2 0x100 DUP1 DUP4 SLOAD DIV MUL DUP4 MSTORE SWAP2 PUSH1 0x20 ADD SWAP2 PUSH2 0x2315 JUMP JUMPDEST DUP3 ADD SWAP2 SWAP1 PUSH0 MSTORE PUSH1 0x20 PUSH0 KECCAK256 SWAP1 JUMPDEST DUP2 SLOAD DUP2 MSTORE SWAP1 PUSH1 0x1 ADD SWAP1 PUSH1 0x20 ADD DUP1 DUP4 GT PUSH2 0x22F8 JUMPI DUP3 SWAP1 SUB PUSH1 0x1F AND DUP3 ADD SWAP2 JUMPDEST POP POP POP POP POP PUSH2 0x427E JUMP JUMPDEST PUSH32 0x4737457377F528CC8AFD815F73ECB8B05DF80D047DBFFC41C17750A4033592BC DUP3 PUSH1 0x5 ADD PUSH1 0x40 MLOAD PUSH2 0x2351 SWAP2 SWAP1 PUSH2 0x636E JUMP JUMPDEST PUSH1 0x40 MLOAD DUP1 SWAP2 SUB SWAP1 LOG1 PUSH2 0x2AF2 JUMP JUMPDEST PUSH1 0x1 PUSH1 0x7 DUP2 GT ISZERO PUSH2 0x2372 JUMPI PUSH2 0x2371 PUSH2 0x4B41 JUMP JUMPDEST JUMPDEST DUP3 PUSH0 ADD PUSH0 SWAP1 SLOAD SWAP1 PUSH2 0x100 EXP SWAP1 DIV PUSH1 0xFF AND PUSH1 0x7 DUP2 GT ISZERO PUSH2 0x2394 JUMPI PUSH2 0x2393 PUSH2 0x4B41 JUMP JUMPDEST JUMPDEST SUB PUSH2 0x23EF JUMPI DUP2 PUSH1 0x4 ADD SLOAD PUSH1 0x7 SLOAD PUSH2 0x23AB SWAP2 SWAP1 PUSH2 0x5A1A JUMP JUMPDEST PUSH1 0x7 DUP2 SWAP1 SSTORE POP PUSH32 0xACD0677FAD7BE9CCAF6C91EBAACA5C9C91622AC0508242D2F8FECA61A0DA249 PUSH1 0x7 SLOAD PUSH1 0x40 MLOAD PUSH2 0x23E2 SWAP2 SWAP1 PUSH2 0x4EE0 JUMP JUMPDEST PUSH1 0x40 MLOAD DUP1 SWAP2 SUB SWAP1 LOG1 PUSH2 0x2AF1 JUMP JUMPDEST PUSH1 0x2 PUSH1 0x7 DUP2 GT ISZERO PUSH2 0x2403 JUMPI PUSH2 0x2402 PUSH2 0x4B41 JUMP JUMPDEST JUMPDEST DUP3 PUSH0 ADD PUSH0 SWAP1 SLOAD SWAP1 PUSH2 0x100 EXP SWAP1 DIV PUSH1 0xFF AND PUSH1 0x7 DUP2 GT ISZERO PUSH2 0x2425 JUMPI PUSH2 0x2424 PUSH2 0x4B41 JUMP JUMPDEST JUMPDEST SUB PUSH2 0x25B3 JUMPI PUSH0 PUSH0 SWAP1 POP JUMPDEST DUP3 PUSH1 0x6 ADD DUP1 SLOAD SWAP1 POP DUP2 LT ISZERO PUSH2 0x256E JUMPI PUSH0 PUSH1 0xD PUSH0 DUP6 PUSH1 0x6 ADD DUP5 DUP2 SLOAD DUP2 LT PUSH2 0x2458 JUMPI PUSH2 0x2457 PUSH2 0x56EF JUMP JUMPDEST JUMPDEST SWAP1 PUSH0 MSTORE PUSH1 0x20 PUSH0 KECCAK256 ADD PUSH0 SWAP1 SLOAD SWAP1 PUSH2 0x100 EXP SWAP1 DIV PUSH20 0xFFFFFFFFFFFFFFFFFFFFFFFFFFFFFFFFFFFFFFFF AND PUSH20 0xFFFFFFFFFFFFFFFFFFFFFFFFFFFFFFFFFFFFFFFF AND PUSH20 0xFFFFFFFFFFFFFFFFFFFFFFFFFFFFFFFFFFFFFFFF AND DUP2 MSTORE PUSH1 0x20 ADD SWAP1 DUP2 MSTORE PUSH1 0x20 ADD PUSH0 KECCAK256 PUSH0 PUSH2 0x100 EXP DUP2 SLOAD DUP2 PUSH1 0xFF MUL NOT AND SWAP1 DUP4 ISZERO ISZERO MUL OR SWAP1 SSTORE POP PUSH1 0x1 PUSH1 0xD PUSH0 DUP6 PUSH1 0x7 ADD DUP5 DUP2 SLOAD DUP2 LT PUSH2 0x24EA JUMPI PUSH2 0x24E9 PUSH2 0x56EF JUMP JUMPDEST JUMPDEST SWAP1 PUSH0 MSTORE PUSH1 0x20 PUSH0 KECCAK256 ADD PUSH0 SWAP1 SLOAD SWAP1 PUSH2 0x100 EXP SWAP1 DIV PUSH20 0xFFFFFFFFFFFFFFFFFFFFFFFFFFFFFFFFFFFFFFFF AND PUSH20 0xFFFFFFFFFFFFFFFFFFFFFFFFFFFFFFFFFFFFFFFF AND PUSH20 0xFFFFFFFFFFFFFFFFFFFFFFFFFFFFFFFFFFFFFFFF AND DUP2 MSTORE PUSH1 0x20 ADD SWAP1 DUP2 MSTORE PUSH1 0x20 ADD PUSH0 KECCAK256 PUSH0 PUSH2 0x100 EXP DUP2 SLOAD DUP2 PUSH1 0xFF MUL NOT AND SWAP1 DUP4 ISZERO ISZERO MUL OR SWAP1 SSTORE POP DUP1 DUP1 PUSH1 0x1 ADD SWAP2 POP POP PUSH2 0x242F JUMP JUMPDEST POP PUSH32 0x765616CA75E38E63DCC130430614A01FA91BFE57744073B30BF8F4BA8FA31FFC DUP3 PUSH1 0x6 ADD DUP4 PUSH1 0x7 ADD PUSH1 0x40 MLOAD PUSH2 0x25A6 SWAP3 SWAP2 SWAP1 PUSH2 0x64A4 JUMP JUMPDEST PUSH1 0x40 MLOAD DUP1 SWAP2 SUB SWAP1 LOG1 PUSH2 0x2AF0 JUMP JUMPDEST PUSH1 0x3 PUSH1 0x7 DUP2 GT ISZERO PUSH2 0x25C7 JUMPI PUSH2 0x25C6 PUSH2 0x4B41 JUMP JUMPDEST JUMPDEST DUP3 PUSH0 ADD PUSH0 SWAP1 SLOAD SWAP1 PUSH2 0x100 EXP SWAP1 DIV PUSH1 0xFF AND PUSH1 0x7 DUP2 GT ISZERO PUSH2 0x25E9 JUMPI PUSH2 0x25E8 PUSH2 0x4B41 JUMP JUMPDEST JUMPDEST SUB PUSH2 0x26C8 JUMPI PUSH1 0x1 PUSH1 0x8 PUSH0 DUP5 PUSH1 0x3 ADD PUSH0 SWAP1 SLOAD SWAP1 PUSH2 0x100 EXP SWAP1 DIV PUSH20 0xFFFFFFFFFFFFFFFFFFFFFFFFFFFFFFFFFFFFFFFF AND PUSH20 0xFFFFFFFFFFFFFFFFFFFFFFFFFFFFFFFFFFFFFFFF AND PUSH20 0xFFFFFFFFFFFFFFFFFFFFFFFFFFFFFFFFFFFFFFFF AND DUP2 MSTORE PUSH1 0x20 ADD SWAP1 DUP2 MSTORE PUSH1 0x20 ADD PUSH0 KECCAK256 PUSH0 PUSH2 0x100 EXP DUP2 SLOAD DUP2 PUSH1 0xFF MUL NOT AND SWAP1 DUP4 ISZERO ISZERO MUL OR SWAP1 SSTORE POP PUSH32 0xB840A1DBD8B09A3DC45161BBA92DFB9ABA643C0E44C085A447F839D1D02CF13B DUP3 PUSH1 0x3 ADD PUSH0 SWAP1 SLOAD SWAP1 PUSH2 0x100 EXP SWAP1 DIV PUSH20 0xFFFFFFFFFFFFFFFFFFFFFFFFFFFFFFFFFFFFFFFF AND PUSH1 0x1 PUSH1 0x40 MLOAD PUSH2 0x26BB SWAP3 SWAP2 SWAP1 PUSH2 0x64D9 JUMP JUMPDEST PUSH1 0x40 MLOAD DUP1 SWAP2 SUB SWAP1 LOG1 PUSH2 0x2AEF JUMP JUMPDEST PUSH1 0x4 PUSH1 0x7 DUP2 GT ISZERO PUSH2 0x26DC JUMPI PUSH2 0x26DB PUSH2 0x4B41 JUMP JUMPDEST JUMPDEST DUP3 PUSH0 ADD PUSH0 SWAP1 SLOAD SWAP1 PUSH2 0x100 EXP SWAP1 DIV PUSH1 0xFF AND PUSH1 0x7 DUP2 GT ISZERO PUSH2 0x26FE JUMPI PUSH2 0x26FD PUSH2 0x4B41 JUMP JUMPDEST JUMPDEST SUB PUSH2 0x27DB JUMPI PUSH0 PUSH1 0x8 PUSH0 DUP5 PUSH1 0x3 ADD PUSH0 SWAP1 SLOAD SWAP1 PUSH2 0x100 EXP SWAP1 DIV PUSH20 0xFFFFFFFFFFFFFFFFFFFFFFFFFFFFFFFFFFFFFFFF AND PUSH20 0xFFFFFFFFFFFFFFFFFFFFFFFFFFFFFFFFFFFFFFFF AND PUSH20 0xFFFFFFFFFFFFFFFFFFFFFFFFFFFFFFFFFFFFFFFF AND DUP2 MSTORE PUSH1 0x20 ADD SWAP1 DUP2 MSTORE PUSH1 0x20 ADD PUSH0 KECCAK256 PUSH0 PUSH2 0x100 EXP DUP2 SLOAD DUP2 PUSH1 0xFF MUL NOT AND SWAP1 DUP4 ISZERO ISZERO MUL OR SWAP1 SSTORE POP PUSH32 0xB840A1DBD8B09A3DC45161BBA92DFB9ABA643C0E44C085A447F839D1D02CF13B DUP3 PUSH1 0x3 ADD PUSH0 SWAP1 SLOAD SWAP1 PUSH2 0x100 EXP SWAP1 DIV PUSH20 0xFFFFFFFFFFFFFFFFFFFFFFFFFFFFFFFFFFFFFFFF AND PUSH0 PUSH1 0x40 MLOAD PUSH2 0x27CE SWAP3 SWAP2 SWAP1 PUSH2 0x64D9 JUMP JUMPDEST PUSH1 0x40 MLOAD DUP1 SWAP2 SUB SWAP1 LOG1 PUSH2 0x2AEE JUMP JUMPDEST PUSH1 0x5 PUSH1 0x7 DUP2 GT ISZERO PUSH2 0x27EF JUMPI PUSH2 0x27EE PUSH2 0x4B41 JUMP JUMPDEST JUMPDEST DUP3 PUSH0 ADD PUSH0 SWAP1 SLOAD SWAP1 PUSH2 0x100 EXP SWAP1 DIV PUSH1 0xFF AND PUSH1 0x7 DUP2 GT ISZERO PUSH2 0x2811 JUMPI PUSH2 0x2810 PUSH2 0x4B41 JUMP JUMPDEST JUMPDEST SUB PUSH2 0x28F0 JUMPI PUSH1 0x1 PUSH1 0x9 PUSH0 DUP5 PUSH1 0x3 ADD PUSH0 SWAP1 SLOAD SWAP1 PUSH2 0x100 EXP SWAP1 DIV PUSH20 0xFFFFFFFFFFFFFFFFFFFFFFFFFFFFFFFFFFFFFFFF AND PUSH20 0xFFFFFFFFFFFFFFFFFFFFFFFFFFFFFFFFFFFFFFFF AND PUSH20 0xFFFFFFFFFFFFFFFFFFFFFFFFFFFFFFFFFFFFFFFF AND DUP2 MSTORE PUSH1 0x20 ADD SWAP1 DUP2 MSTORE PUSH1 0x20 ADD PUSH0 KECCAK256 PUSH0 PUSH2 0x100 EXP DUP2 SLOAD DUP2 PUSH1 0xFF MUL NOT AND SWAP1 DUP4 ISZERO ISZERO MUL OR SWAP1 SSTORE POP PUSH32 0x59FB1497B038A34329A3A1F21130E86004671A8505BF21D1A8CF5239CD359F5D DUP3 PUSH1 0x3 ADD PUSH0 SWAP1 SLOAD SWAP1 PUSH2 0x100 EXP SWAP1 DIV PUSH20 0xFFFFFFFFFFFFFFFFFFFFFFFFFFFFFFFFFFFFFFFF AND PUSH1 0x1 PUSH1 0x40 MLOAD PUSH2 0x28E3 SWAP3 SWAP2 SWAP1 PUSH2 0x64D9 JUMP JUMPDEST PUSH1 0x40 MLOAD DUP1 SWAP2 SUB SWAP1 LOG1 PUSH2 0x2AED JUMP JUMPDEST PUSH1 0x6 PUSH1 0x7 DUP2 GT ISZERO PUSH2 0x2904 JUMPI PUSH2 0x2903 PUSH2 0x4B41 JUMP JUMPDEST JUMPDEST DUP3 PUSH0 ADD PUSH0 SWAP1 SLOAD SWAP1 PUSH2 0x100 EXP SWAP1 DIV PUSH1 0xFF AND PUSH1 0x7 DUP2 GT ISZERO PUSH2 0x2926 JUMPI PUSH2 0x2925 PUSH2 0x4B41 JUMP JUMPDEST JUMPDEST SUB PUSH2 0x2A03 JUMPI PUSH0 PUSH1 0x9 PUSH0 DUP5 PUSH1 0x3 ADD PUSH0 SWAP1 SLOAD SWAP1 PUSH2 0x100 EXP SWAP1 DIV PUSH20 0xFFFFFFFFFFFFFFFFFFFFFFFFFFFFFFFFFFFFFFFF AND PUSH20 0xFFFFFFFFFFFFFFFFFFFFFFFFFFFFFFFFFFFFFFFF AND PUSH20 0xFFFFFFFFFFFFFFFFFFFFFFFFFFFFFFFFFFFFFFFF AND DUP2 MSTORE PUSH1 0x20 ADD SWAP1 DUP2 MSTORE PUSH1 0x20 ADD PUSH0 KECCAK256 PUSH0 PUSH2 0x100 EXP DUP2 SLOAD DUP2 PUSH1 0xFF MUL NOT AND SWAP1 DUP4 ISZERO ISZERO MUL OR SWAP1 SSTORE POP PUSH32 0x59FB1497B038A34329A3A1F21130E86004671A8505BF21D1A8CF5239CD359F5D DUP3 PUSH1 0x3 ADD PUSH0 SWAP1 SLOAD SWAP1 PUSH2 0x100 EXP SWAP1 DIV PUSH20 0xFFFFFFFFFFFFFFFFFFFFFFFFFFFFFFFFFFFFFFFF AND PUSH0 PUSH1 0x40 MLOAD PUSH2 0x29F6 SWAP3 SWAP2 SWAP1 PUSH2 0x64D9 JUMP JUMPDEST PUSH1 0x40 MLOAD DUP1 SWAP2 SUB SWAP1 LOG1 PUSH2 0x2AEC JUMP JUMPDEST PUSH1 0x7 DUP1 DUP2 GT ISZERO PUSH2 0x2A16 JUMPI PUSH2 0x2A15 PUSH2 0x4B41 JUMP JUMPDEST JUMPDEST DUP3 PUSH0 ADD PUSH0 SWAP1 SLOAD SWAP1 PUSH2 0x100 EXP SWAP1 DIV PUSH1 0xFF AND PUSH1 0x7 DUP2 GT ISZERO PUSH2 0x2A38 JUMPI PUSH2 0x2A37 PUSH2 0x4B41 JUMP JUMPDEST JUMPDEST SUB PUSH2 0x2AEB JUMPI PUSH2 0x2A6E DUP3 PUSH1 0x3 ADD PUSH0 SWAP1 SLOAD SWAP1 PUSH2 0x100 EXP SWAP1 DIV PUSH20 0xFFFFFFFFFFFFFFFFFFFFFFFFFFFFFFFFFFFFFFFF AND DUP4 PUSH1 0x4 ADD SLOAD PUSH2 0x41DC JUMP JUMPDEST DUP2 PUSH1 0x4 ADD SLOAD PUSH1 0xB PUSH0 DUP3 DUP3 SLOAD PUSH2 0x2A83 SWAP2 SWAP1 PUSH2 0x5654 JUMP JUMPDEST SWAP3 POP POP DUP2 SWAP1 SSTORE POP PUSH32 0x570563F436DC733C61D3863FD95E547272964F69D7B5CFE7461360A7A5643E3C DUP3 PUSH1 0x3 ADD PUSH0 SWAP1 SLOAD SWAP1 PUSH2 0x100 EXP SWAP1 DIV PUSH20 0xFFFFFFFFFFFFFFFFFFFFFFFFFFFFFFFFFFFFFFFF AND DUP4 PUSH1 0x4 ADD SLOAD PUSH1 0x40 MLOAD PUSH2 0x2AE2 SWAP3 SWAP2 SWAP1 PUSH2 0x6500 JUMP JUMPDEST PUSH1 0x40 MLOAD DUP1 SWAP2 SUB SWAP1 LOG1 JUMPDEST JUMPDEST JUMPDEST JUMPDEST JUMPDEST JUMPDEST JUMPDEST JUMPDEST PUSH2 0x2AFB DUP4 PUSH2 0x4291 JUMP JUMPDEST PUSH1 0xF PUSH0 DUP5 DUP2 MSTORE PUSH1 0x20 ADD SWAP1 DUP2 MSTORE PUSH1 0x20 ADD PUSH0 KECCAK256 PUSH0 PUSH0 DUP3 ADD PUSH0 PUSH2 0x100 EXP DUP2 SLOAD SWAP1 PUSH1 0xFF MUL NOT AND SWAP1 SSTORE PUSH0 DUP3 ADD PUSH1 0x1 PUSH2 0x100 EXP DUP2 SLOAD SWAP1 PUSH20 0xFFFFFFFFFFFFFFFFFFFFFFFFFFFFFFFFFFFFFFFF MUL NOT AND SWAP1 SSTORE PUSH1 0x1 DUP3 ADD PUSH0 SWAP1 SSTORE PUSH1 0x2 DUP3 ADD PUSH0 SWAP1 SSTORE PUSH1 0x3 DUP3 ADD PUSH0 PUSH2 0x100 EXP DUP2 SLOAD SWAP1 PUSH20 0xFFFFFFFFFFFFFFFFFFFFFFFFFFFFFFFFFFFFFFFF MUL NOT AND SWAP1 SSTORE PUSH1 0x4 DUP3 ADD PUSH0 SWAP1 SSTORE PUSH1 0x5 DUP3 ADD PUSH0 PUSH2 0x2B8F SWAP2 SWAP1 PUSH2 0x4A5C JUMP JUMPDEST PUSH1 0x6 DUP3 ADD PUSH0 PUSH2 0x2B9E SWAP2 SWAP1 PUSH2 0x4A99 JUMP JUMPDEST PUSH1 0x7 DUP3 ADD PUSH0 PUSH2 0x2BAD SWAP2 SWAP1 PUSH2 0x4A99 JUMP JUMPDEST PUSH1 0x8 DUP3 ADD PUSH0 PUSH2 0x100 EXP DUP2 SLOAD SWAP1 PUSH1 0xFF MUL NOT AND SWAP1 SSTORE POP POP DUP3 PUSH32 0x5B9614F21773D68C0B149BDA804FF3D491C8BC8795F7ED236CC97804CD005389 DUP4 PUSH0 ADD PUSH0 SWAP1 SLOAD SWAP1 PUSH2 0x100 EXP SWAP1 DIV PUSH1 0xFF AND PUSH1 0x40 MLOAD PUSH2 0x2C01 SWAP2 SWAP1 PUSH2 0x6527 JUMP JUMPDEST PUSH1 0x40 MLOAD DUP1 SWAP2 SUB SWAP1 LOG2 POP POP POP JUMP JUMPDEST PUSH2 0x2C16 PUSH2 0x418D JUMP JUMPDEST PUSH1 0x11 PUSH1 0x1 SWAP1 SLOAD SWAP1 PUSH2 0x100 EXP SWAP1 DIV PUSH1 0xFF AND ISZERO PUSH2 0x2C66 JUMPI PUSH1 0x40 MLOAD PUSH32 0x8C379A000000000000000000000000000000000000000000000000000000000 DUP2 MSTORE PUSH1 0x4 ADD PUSH2 0x2C5D SWAP1 PUSH2 0x52F6 JUMP JUMPDEST PUSH1 0x40 MLOAD DUP1 SWAP2 SUB SWAP1 REVERT JUMPDEST PUSH1 0x8 PUSH0 DUP3 PUSH20 0xFFFFFFFFFFFFFFFFFFFFFFFFFFFFFFFFFFFFFFFF AND PUSH20 0xFFFFFFFFFFFFFFFFFFFFFFFFFFFFFFFFFFFFFFFF AND DUP2 MSTORE PUSH1 0x20 ADD SWAP1 DUP2 MSTORE PUSH1 0x20 ADD PUSH0 KECCAK256 PUSH0 SWAP1 SLOAD SWAP1 PUSH2 0x100 EXP SWAP1 DIV PUSH1 0xFF AND PUSH2 0x2CEF JUMPI PUSH1 0x40 MLOAD PUSH32 0x8C379A000000000000000000000000000000000000000000000000000000000 DUP2 MSTORE PUSH1 0x4 ADD PUSH2 0x2CE6 SWAP1 PUSH2 0x65B0 JUMP JUMPDEST PUSH1 0x40 MLOAD DUP1 SWAP2 SUB SWAP1 REVERT JUMPDEST PUSH0 DUP3 GT PUSH2 0x2D31 JUMPI PUSH1 0x40 MLOAD PUSH32 0x8C379A000000000000000000000000000000000000000000000000000000000 DUP2 MSTORE PUSH1 0x4 ADD PUSH2 0x2D28 SWAP1 PUSH2 0x663E JUMP JUMPDEST PUSH1 0x40 MLOAD DUP1 SWAP2 SUB SWAP1 REVERT JUMPDEST PUSH0 PUSH1 0x14 DUP4 PUSH2 0x2D3F SWAP2 SWAP1 PUSH2 0x5613 JUMP JUMPDEST SWAP1 POP PUSH0 DUP2 GT PUSH2 0x2D83 JUMPI PUSH1 0x40 MLOAD PUSH32 0x8C379A000000000000000000000000000000000000000000000000000000000 DUP2 MSTORE PUSH1 0x4 ADD PUSH2 0x2D7A SWAP1 PUSH2 0x66A6 JUMP JUMPDEST PUSH1 0x40 MLOAD DUP1 SWAP2 SUB SWAP1 REVERT JUMPDEST PUSH1 0x7 SLOAD DUP2 PUSH1 0xB SLOAD PUSH2 0x2D94 SWAP2 SWAP1 PUSH2 0x5654 JUMP JUMPDEST GT ISZERO PUSH2 0x2DD5 JUMPI PUSH1 0x40 MLOAD PUSH32 0x8C379A000000000000000000000000000000000000000000000000000000000 DUP2 MSTORE PUSH1 0x4 ADD PUSH2 0x2DCC SWAP1 PUSH2 0x670E JUMP JUMPDEST PUSH1 0x40 MLOAD DUP1 SWAP2 SUB SWAP1 REVERT JUMPDEST PUSH2 0x2DDF DUP3 DUP3 PUSH2 0x41DC JUMP JUMPDEST DUP1 PUSH1 0xB PUSH0 DUP3 DUP3 SLOAD PUSH2 0x2DF0 SWAP2 SWAP1 PUSH2 0x5654 JUMP JUMPDEST SWAP3 POP POP DUP2 SWAP1 SSTORE POP DUP2 PUSH20 0xFFFFFFFFFFFFFFFFFFFFFFFFFFFFFFFFFFFFFFFF AND CALLER PUSH20 0xFFFFFFFFFFFFFFFFFFFFFFFFFFFFFFFFFFFFFFFF AND PUSH32 0xBADB5A53E5A7F1F292F32F4CA0C78E80D05F213DB774602ACC6FACA5AECDF6D7 DUP6 DUP5 PUSH1 0x40 MLOAD PUSH2 0x2E56 SWAP3 SWAP2 SWAP1 PUSH2 0x672C JUMP JUMPDEST PUSH1 0x40 MLOAD DUP1 SWAP2 SUB SWAP1 LOG3 POP PUSH2 0x2E67 PUSH2 0x425B JUMP JUMPDEST POP POP JUMP JUMPDEST PUSH0 PUSH2 0x2E75 DUP3 PUSH2 0x322C JUMP JUMPDEST SWAP1 POP SWAP2 SWAP1 POP JUMP JUMPDEST PUSH0 PUSH0 SWAP1 POP SWAP1 JUMP JUMPDEST PUSH1 0x14 DUP2 JUMP JUMPDEST PUSH0 PUSH0 SWAP1 POP SWAP2 SWAP1 POP JUMP JUMPDEST PUSH0 PUSH1 0x2 SLOAD SWAP1 POP SWAP1 JUMP JUMPDEST PUSH1 0x12 SLOAD DUP2 JUMP JUMPDEST PUSH0 PUSH1 0x11 PUSH1 0x1 SWAP1 SLOAD SWAP1 PUSH2 0x100 EXP SWAP1 DIV PUSH1 0xFF AND ISZERO PUSH2 0x2EF1 JUMPI PUSH1 0x40 MLOAD PUSH32 0x8C379A000000000000000000000000000000000000000000000000000000000 DUP2 MSTORE PUSH1 0x4 ADD PUSH2 0x2EE8 SWAP1 PUSH2 0x52F6 JUMP JUMPDEST PUSH1 0x40 MLOAD DUP1 SWAP2 SUB SWAP1 REVERT JUMPDEST PUSH1 0x9 PUSH0 DUP6 PUSH20 0xFFFFFFFFFFFFFFFFFFFFFFFFFFFFFFFFFFFFFFFF AND PUSH20 0xFFFFFFFFFFFFFFFFFFFFFFFFFFFFFFFFFFFFFFFF AND DUP2 MSTORE PUSH1 0x20 ADD SWAP1 DUP2 MSTORE PUSH1 0x20 ADD PUSH0 KECCAK256 PUSH0 SWAP1 SLOAD SWAP1 PUSH2 0x100 EXP SWAP1 DIV PUSH1 0xFF AND ISZERO PUSH2 0x2F7B JUMPI PUSH1 0x40 MLOAD PUSH32 0x8C379A000000000000000000000000000000000000000000000000000000000 DUP2 MSTORE PUSH1 0x4 ADD PUSH2 0x2F72 SWAP1 PUSH2 0x679D JUMP JUMPDEST PUSH1 0x40 MLOAD DUP1 SWAP2 SUB SWAP1 REVERT JUMPDEST DUP2 PUSH16 0xFFFFFFFFFFFFFFFFFFFFFFFFFFFFFFFF AND DUP3 EQ PUSH2 0x2FCF JUMPI PUSH1 0x40 MLOAD PUSH32 0x8C379A000000000000000000000000000000000000000000000000000000000 DUP2 MSTORE PUSH1 0x4 ADD PUSH2 0x2FC6 SWAP1 PUSH2 0x6805 JUMP JUMPDEST PUSH1 0x40 MLOAD DUP1 SWAP2 SUB SWAP1 REVERT JUMPDEST PUSH2 0x2FDA DUP5 DUP5 DUP5 PUSH2 0x42D0 JUMP JUMPDEST SWAP1 POP SWAP4 SWAP3 POP POP POP JUMP JUMPDEST PUSH1 0xB SLOAD DUP2 JUMP JUMPDEST PUSH1 0x3 DUP2 JUMP JUMPDEST PUSH1 0x5 DUP2 JUMP JUMPDEST PUSH0 PUSH0 SWAP1 POP SWAP1 JUMP JUMPDEST PUSH1 0xE PUSH1 0x20 MSTORE DUP2 PUSH0 MSTORE PUSH1 0x40 PUSH0 KECCAK256 PUSH1 0x20 MSTORE DUP1 PUSH0 MSTORE PUSH1 0x40 PUSH0 KECCAK256 PUSH0 SWAP2 POP SWAP2 POP SWAP1 SLOAD SWAP1 PUSH2 0x100 EXP SWAP1 DIV PUSH1 0xFF AND DUP2 JUMP JUMPDEST PUSH1 0xD PUSH0 CALLER PUSH20 0xFFFFFFFFFFFFFFFFFFFFFFFFFFFFFFFFFFFFFFFF AND PUSH20 0xFFFFFFFFFFFFFFFFFFFFFFFFFFFFFFFFFFFFFFFF AND DUP2 MSTORE PUSH1 0x20 ADD SWAP1 DUP2 MSTORE PUSH1 0x20 ADD PUSH0 KECCAK256 PUSH0 SWAP1 SLOAD SWAP1 PUSH2 0x100 EXP SWAP1 DIV PUSH1 0xFF AND PUSH2 0x30AD JUMPI PUSH1 0x40 MLOAD PUSH32 0x8C379A000000000000000000000000000000000000000000000000000000000 DUP2 MSTORE PUSH1 0x4 ADD PUSH2 0x30A4 SWAP1 PUSH2 0x528E JUMP JUMPDEST PUSH1 0x40 MLOAD DUP1 SWAP2 SUB SWAP1 REVERT JUMPDEST PUSH1 0x11 PUSH1 0x1 SWAP1 SLOAD SWAP1 PUSH2 0x100 EXP SWAP1 DIV PUSH1 0xFF AND ISZERO PUSH2 0x30FD JUMPI PUSH1 0x40 MLOAD PUSH32 0x8C379A000000000000000000000000000000000000000000000000000000000 DUP2 MSTORE PUSH1 0x4 ADD PUSH2 0x30F4 SWAP1 PUSH2 0x52F6 JUMP JUMPDEST PUSH1 0x40 MLOAD DUP1 SWAP2 SUB SWAP1 REVERT JUMPDEST PUSH1 0x1 PUSH1 0x11 PUSH1 0x1 PUSH2 0x100 EXP DUP2 SLOAD DUP2 PUSH1 0xFF MUL NOT AND SWAP1 DUP4 ISZERO ISZERO MUL OR SWAP1 SSTORE POP PUSH32 0xAB35696F06E428EBC5CEBA8CD17F8FED287BAF43440206D1943AF1EE53E6D267 PUSH1 0x40 MLOAD PUSH1 0x40 MLOAD DUP1 SWAP2 SUB SWAP1 LOG1 JUMP JUMPDEST PUSH1 0x60 PUSH1 0x40 MLOAD DUP1 PUSH1 0x40 ADD PUSH1 0x40 MSTORE DUP1 PUSH1 0x5 DUP2 MSTORE PUSH1 0x20 ADD PUSH32 0x312E302E30000000000000000000000000000000000000000000000000000000 DUP2 MSTORE POP SWAP1 POP SWAP1 JUMP JUMPDEST PUSH0 PUSH1 0x11 PUSH1 0x1 SWAP1 SLOAD SWAP1 PUSH2 0x100 EXP SWAP1 DIV PUSH1 0xFF AND SWAP1 POP SWAP1 JUMP JUMPDEST PUSH0 PUSH0 SWAP1 POP SWAP1 JUMP JUMPDEST PUSH1 0xC DUP1 SLOAD PUSH2 0x31AD SWAP1 PUSH2 0x5555 JUMP JUMPDEST DUP1 PUSH1 0x1F ADD PUSH1 0x20 DUP1 SWAP2 DIV MUL PUSH1 0x20 ADD PUSH1 0x40 MLOAD SWAP1 DUP2 ADD PUSH1 0x40 MSTORE DUP1 SWAP3 SWAP2 SWAP1 DUP2 DUP2 MSTORE PUSH1 0x20 ADD DUP3 DUP1 SLOAD PUSH2 0x31D9 SWAP1 PUSH2 0x5555 JUMP JUMPDEST DUP1 ISZERO PUSH2 0x3224 JUMPI DUP1 PUSH1 0x1F LT PUSH2 0x31FB JUMPI PUSH2 0x100 DUP1 DUP4 SLOAD DIV MUL DUP4 MSTORE SWAP2 PUSH1 0x20 ADD SWAP2 PUSH2 0x3224 JUMP JUMPDEST DUP3 ADD SWAP2 SWAP1 PUSH0 MSTORE PUSH1 0x20 PUSH0 KECCAK256 SWAP1 JUMPDEST DUP2 SLOAD DUP2 MSTORE SWAP1 PUSH1 0x1 ADD SWAP1 PUSH1 0x20 ADD DUP1 DUP4 GT PUSH2 0x3207 JUMPI DUP3 SWAP1 SUB PUSH1 0x1F AND DUP3 ADD SWAP2 JUMPDEST POP POP POP POP POP DUP2 JUMP JUMPDEST PUSH0 PUSH0 PUSH0 DUP4 PUSH20 0xFFFFFFFFFFFFFFFFFFFFFFFFFFFFFFFFFFFFFFFF AND PUSH20 0xFFFFFFFFFFFFFFFFFFFFFFFFFFFFFFFFFFFFFFFF AND DUP2 MSTORE PUSH1 0x20 ADD SWAP1 DUP2 MSTORE PUSH1 0x20 ADD PUSH0 KECCAK256 SLOAD SWAP1 POP SWAP2 SWAP1 POP JUMP JUMPDEST PUSH2 0x3279 PUSH2 0x42FE JUMP JUMPDEST PUSH2 0x3282 PUSH0 PUSH2 0x4385 JUMP JUMPDEST JUMP JUMPDEST PUSH2 0x328C PUSH2 0x42FE JUMP JUMPDEST PUSH0 PUSH1 0x11 PUSH0 PUSH2 0x100 EXP DUP2 SLOAD DUP2 PUSH1 0xFF MUL NOT AND SWAP1 DUP4 ISZERO ISZERO MUL OR SWAP1 SSTORE POP PUSH32 0x8F69EF9279BFB1FE5F4F75790947A23FA88774E98242B966BCAAF7D25E8B3C16 PUSH1 0x40 MLOAD PUSH1 0x40 MLOAD DUP1 SWAP2 SUB SWAP1 LOG1 JUMP JUMPDEST PUSH2 0x384 DUP2 JUMP JUMPDEST PUSH1 0xD PUSH0 CALLER PUSH20 0xFFFFFFFFFFFFFFFFFFFFFFFFFFFFFFFFFFFFFFFF AND PUSH20 0xFFFFFFFFFFFFFFFFFFFFFFFFFFFFFFFFFFFFFFFF AND DUP2 MSTORE PUSH1 0x20 ADD SWAP1 DUP2 MSTORE PUSH1 0x20 ADD PUSH0 KECCAK256 PUSH0 SWAP1 SLOAD SWAP1 PUSH2 0x100 EXP SWAP1 DIV PUSH1 0xFF AND PUSH2 0x3362 JUMPI PUSH1 0x40 MLOAD PUSH32 0x8C379A000000000000000000000000000000000000000000000000000000000 DUP2 MSTORE PUSH1 0x4 ADD PUSH2 0x3359 SWAP1 PUSH2 0x528E JUMP JUMPDEST PUSH1 0x40 MLOAD DUP1 SWAP2 SUB SWAP1 REVERT JUMPDEST PUSH1 0x11 PUSH1 0x1 SWAP1 SLOAD SWAP1 PUSH2 0x100 EXP SWAP1 DIV PUSH1 0xFF AND ISZERO PUSH2 0x33B2 JUMPI PUSH1 0x40 MLOAD PUSH32 0x8C379A000000000000000000000000000000000000000000000000000000000 DUP2 MSTORE PUSH1 0x4 ADD PUSH2 0x33A9 SWAP1 PUSH2 0x52F6 JUMP JUMPDEST PUSH1 0x40 MLOAD DUP1 SWAP2 SUB SWAP1 REVERT JUMPDEST PUSH2 0x12C PUSH1 0x12 SLOAD PUSH2 0x33C2 SWAP2 SWAP1 PUSH2 0x5654 JUMP JUMPDEST TIMESTAMP LT ISZERO PUSH2 0x3404 JUMPI PUSH1 0x40 MLOAD PUSH32 0x8C379A000000000000000000000000000000000000000000000000000000000 DUP2 MSTORE PUSH1 0x4 ADD PUSH2 0x33FB SWAP1 PUSH2 0x6893 JUMP JUMPDEST PUSH1 0x40 MLOAD DUP1 SWAP2 SUB SWAP1 REVERT JUMPDEST PUSH1 0x7 SLOAD PUSH8 0xDE0B6B3A7640000 PUSH1 0xB SLOAD PUSH2 0x341D SWAP2 SWAP1 PUSH2 0x5654 JUMP JUMPDEST GT ISZERO PUSH2 0x345E JUMPI PUSH1 0x40 MLOAD PUSH32 0x8C379A000000000000000000000000000000000000000000000000000000000 DUP2 MSTORE PUSH1 0x4 ADD PUSH2 0x3455 SWAP1 PUSH2 0x670E JUMP JUMPDEST PUSH1 0x40 MLOAD DUP1 SWAP2 SUB SWAP1 REVERT JUMPDEST TIMESTAMP PUSH1 0x12 DUP2 SWAP1 SSTORE POP PUSH32 0x90596CA0CB29EF99CD530E572920440D7D040408F92C28E46836FE9E048F59D8 PUSH8 0xDE0B6B3A7640000 PUSH1 0x40 MLOAD PUSH2 0x349C SWAP2 SWAP1 PUSH2 0x4EE0 JUMP JUMPDEST PUSH1 0x40 MLOAD DUP1 SWAP2 SUB SWAP1 LOG1 JUMP JUMPDEST PUSH1 0x11 PUSH1 0x1 SWAP1 SLOAD SWAP1 PUSH2 0x100 EXP SWAP1 DIV PUSH1 0xFF AND DUP2 JUMP JUMPDEST PUSH0 PUSH1 0x5 PUSH0 SWAP1 SLOAD SWAP1 PUSH2 0x100 EXP SWAP1 DIV PUSH20 0xFFFFFFFFFFFFFFFFFFFFFFFFFFFFFFFFFFFFFFFF AND SWAP1 POP SWAP1 JUMP JUMPDEST PUSH1 0x7 SLOAD DUP2 JUMP JUMPDEST PUSH1 0x60 PUSH1 0x4 DUP1 SLOAD PUSH2 0x34F6 SWAP1 PUSH2 0x5555 JUMP JUMPDEST DUP1 PUSH1 0x1F ADD PUSH1 0x20 DUP1 SWAP2 DIV MUL PUSH1 0x20 ADD PUSH1 0x40 MLOAD SWAP1 DUP2 ADD PUSH1 0x40 MSTORE DUP1 SWAP3 SWAP2 SWAP1 DUP2 DUP2 MSTORE PUSH1 0x20 ADD DUP3 DUP1 SLOAD PUSH2 0x3522 SWAP1 PUSH2 0x5555 JUMP JUMPDEST DUP1 ISZERO PUSH2 0x356D JUMPI DUP1 PUSH1 0x1F LT PUSH2 0x3544 JUMPI PUSH2 0x100 DUP1 DUP4 SLOAD DIV MUL DUP4 MSTORE SWAP2 PUSH1 0x20 ADD SWAP2 PUSH2 0x356D JUMP JUMPDEST DUP3 ADD SWAP2 SWAP1 PUSH0 MSTORE PUSH1 0x20 PUSH0 KECCAK256 SWAP1 JUMPDEST DUP2 SLOAD DUP2 MSTORE SWAP1 PUSH1 0x1 ADD SWAP1 PUSH1 0x20 ADD DUP1 DUP4 GT PUSH2 0x3550 JUMPI DUP3 SWAP1 SUB PUSH1 0x1F AND DUP3 ADD SWAP2 JUMPDEST POP POP POP POP POP SWAP1 POP SWAP1 JUMP JUMPDEST PUSH1 0x8 PUSH1 0x20 MSTORE DUP1 PUSH0 MSTORE PUSH1 0x40 PUSH0 KECCAK256 PUSH0 SWAP2 POP SLOAD SWAP1 PUSH2 0x100 EXP SWAP1 DIV PUSH1 0xFF AND DUP2 JUMP JUMPDEST PUSH1 0xD PUSH1 0x20 MSTORE DUP1 PUSH0 MSTORE PUSH1 0x40 PUSH0 KECCAK256 PUSH0 SWAP2 POP SLOAD SWAP1 PUSH2 0x100 EXP SWAP1 DIV PUSH1 0xFF AND DUP2 JUMP JUMPDEST PUSH0 PUSH1 0x11 PUSH1 0x1 SWAP1 SLOAD SWAP1 PUSH2 0x100 EXP SWAP1 DIV PUSH1 0xFF AND ISZERO PUSH2 0x3602 JUMPI PUSH1 0x40 MLOAD PUSH32 0x8C379A000000000000000000000000000000000000000000000000000000000 DUP2 MSTORE PUSH1 0x4 ADD PUSH2 0x35F9 SWAP1 PUSH2 0x52F6 JUMP JUMPDEST PUSH1 0x40 MLOAD DUP1 SWAP2 SUB SWAP1 REVERT JUMPDEST PUSH1 0x9 PUSH0 CALLER PUSH20 0xFFFFFFFFFFFFFFFFFFFFFFFFFFFFFFFFFFFFFFFF AND PUSH20 0xFFFFFFFFFFFFFFFFFFFFFFFFFFFFFFFFFFFFFFFF AND DUP2 MSTORE PUSH1 0x20 ADD SWAP1 DUP2 MSTORE PUSH1 0x20 ADD PUSH0 KECCAK256 PUSH0 SWAP1 SLOAD SWAP1 PUSH2 0x100 EXP SWAP1 DIV PUSH1 0xFF AND ISZERO PUSH2 0x368C JUMPI PUSH1 0x40 MLOAD PUSH32 0x8C379A000000000000000000000000000000000000000000000000000000000 DUP2 MSTORE PUSH1 0x4 ADD PUSH2 0x3683 SWAP1 PUSH2 0x679D JUMP JUMPDEST PUSH1 0x40 MLOAD DUP1 SWAP2 SUB SWAP1 REVERT JUMPDEST DUP2 PUSH16 0xFFFFFFFFFFFFFFFFFFFFFFFFFFFFFFFF AND DUP3 EQ PUSH2 0x36E0 JUMPI PUSH1 0x40 MLOAD PUSH32 0x8C379A000000000000000000000000000000000000000000000000000000000 DUP2 MSTORE PUSH1 0x4 ADD PUSH2 0x36D7 SWAP1 PUSH2 0x6805 JUMP JUMPDEST PUSH1 0x40 MLOAD DUP1 SWAP2 SUB SWAP1 REVERT JUMPDEST PUSH2 0x36EA DUP4 DUP4 PUSH2 0x4448 JUMP JUMPDEST SWAP1 POP SWAP3 SWAP2 POP POP JUMP JUMPDEST PUSH0 ADDRESS SWAP1 POP SWAP1 JUMP JUMPDEST PUSH1 0x13 SLOAD DUP2 JUMP JUMPDEST PUSH1 0x11 PUSH0 SWAP1 SLOAD SWAP1 PUSH2 0x100 EXP SWAP1 DIV PUSH1 0xFF AND DUP2 JUMP JUMPDEST PUSH9 0x56BC75E2D63100000 DUP2 JUMP JUMPDEST PUSH1 0xA PUSH0 SWAP1 SLOAD SWAP1 PUSH2 0x100 EXP SWAP1 DIV PUSH20 0xFFFFFFFFFFFFFFFFFFFFFFFFFFFFFFFFFFFFFFFF AND DUP2 JUMP JUMPDEST PUSH1 0xD PUSH0 CALLER PUSH20 0xFFFFFFFFFFFFFFFFFFFFFFFFFFFFFFFFFFFFFFFF AND PUSH20 0xFFFFFFFFFFFFFFFFFFFFFFFFFFFFFFFFFFFFFFFF AND DUP2 MSTORE PUSH1 0x20 ADD SWAP1 DUP2 MSTORE PUSH1 0x20 ADD PUSH0 KECCAK256 PUSH0 SWAP1 SLOAD SWAP1 PUSH2 0x100 EXP SWAP1 DIV PUSH1 0xFF AND PUSH2 0x37CC JUMPI PUSH1 0x40 MLOAD PUSH32 0x8C379A000000000000000000000000000000000000000000000000000000000 DUP2 MSTORE PUSH1 0x4 ADD PUSH2 0x37C3 SWAP1 PUSH2 0x528E JUMP JUMPDEST PUSH1 0x40 MLOAD DUP1 SWAP2 SUB SWAP1 REVERT JUMPDEST PUSH0 PUSH1 0x11 PUSH1 0x1 PUSH2 0x100 EXP DUP2 SLOAD DUP2 PUSH1 0xFF MUL NOT AND SWAP1 DUP4 ISZERO ISZERO MUL OR SWAP1 SSTORE POP PUSH32 0xAB5F6DACF93A267A93A533DE8A56370DE8341BBD8102017307E7BE375C3DDA6A PUSH1 0x40 MLOAD PUSH1 0x40 MLOAD DUP1 SWAP2 SUB SWAP1 LOG1 JUMP JUMPDEST PUSH1 0x11 PUSH1 0x1 SWAP1 SLOAD SWAP1 PUSH2 0x100 EXP SWAP1 DIV PUSH1 0xFF AND ISZERO PUSH2 0x3864 JUMPI PUSH1 0x40 MLOAD PUSH32 0x8C379A000000000000000000000000000000000000000000000000000000000 DUP2 MSTORE PUSH1 0x4 ADD PUSH2 0x385B SWAP1 PUSH2 0x52F6 JUMP JUMPDEST PUSH1 0x40 MLOAD DUP1 SWAP2 SUB SWAP1 REVERT JUMPDEST PUSH2 0x386C PUSH2 0x418D JUMP JUMPDEST PUSH2 0x384 PUSH1 0x13 SLOAD PUSH2 0x387C SWAP2 SWAP1 PUSH2 0x5654 JUMP JUMPDEST TIMESTAMP LT ISZERO PUSH2 0x38BE JUMPI PUSH1 0x40 MLOAD PUSH32 0x8C379A000000000000000000000000000000000000000000000000000000000 DUP2 MSTORE PUSH1 0x4 ADD PUSH2 0x38B5 SWAP1 PUSH2 0x6921 JUMP JUMPDEST PUSH1 0x40 MLOAD DUP1 SWAP2 SUB SWAP1 REVERT JUMPDEST PUSH0 DUP2 MLOAD GT PUSH2 0x3901 JUMPI PUSH1 0x40 MLOAD PUSH32 0x8C379A000000000000000000000000000000000000000000000000000000000 DUP2 MSTORE PUSH1 0x4 ADD PUSH2 0x38F8 SWAP1 PUSH2 0x55F5 JUMP JUMPDEST PUSH1 0x40 MLOAD DUP1 SWAP2 SUB SWAP1 REVERT JUMPDEST PUSH0 PUSH9 0x56BC75E2D63100000 DUP3 MLOAD PUSH2 0x3918 SWAP2 SWAP1 PUSH2 0x5613 JUMP JUMPDEST SWAP1 POP PUSH1 0x7 SLOAD DUP2 PUSH1 0xB SLOAD PUSH2 0x392B SWAP2 SWAP1 PUSH2 0x5654 JUMP JUMPDEST GT ISZERO PUSH2 0x396C JUMPI PUSH1 0x40 MLOAD PUSH32 0x8C379A000000000000000000000000000000000000000000000000000000000 DUP2 MSTORE PUSH1 0x4 ADD PUSH2 0x3963 SWAP1 PUSH2 0x56D1 JUMP JUMPDEST PUSH1 0x40 MLOAD DUP1 SWAP2 SUB SWAP1 REVERT JUMPDEST PUSH0 PUSH0 SWAP1 POP JUMPDEST DUP3 MLOAD DUP2 LT ISZERO PUSH2 0x3AB0 JUMPI PUSH0 DUP4 DUP3 DUP2 MLOAD DUP2 LT PUSH2 0x398E JUMPI PUSH2 0x398D PUSH2 0x56EF JUMP JUMPDEST JUMPDEST PUSH1 0x20 MUL PUSH1 0x20 ADD ADD MLOAD SWAP1 POP PUSH0 PUSH20 0xFFFFFFFFFFFFFFFFFFFFFFFFFFFFFFFFFFFFFFFF AND DUP2 PUSH20 0xFFFFFFFFFFFFFFFFFFFFFFFFFFFFFFFFFFFFFFFF AND SUB PUSH2 0x3A06 JUMPI PUSH1 0x40 MLOAD PUSH32 0x8C379A000000000000000000000000000000000000000000000000000000000 DUP2 MSTORE PUSH1 0x4 ADD PUSH2 0x39FD SWAP1 PUSH2 0x5766 JUMP JUMPDEST PUSH1 0x40 MLOAD DUP1 SWAP2 SUB SWAP1 REVERT JUMPDEST PUSH1 0x8 PUSH0 DUP3 PUSH20 0xFFFFFFFFFFFFFFFFFFFFFFFFFFFFFFFFFFFFFFFF AND PUSH20 0xFFFFFFFFFFFFFFFFFFFFFFFFFFFFFFFFFFFFFFFF AND DUP2 MSTORE PUSH1 0x20 ADD SWAP1 DUP2 MSTORE PUSH1 0x20 ADD PUSH0 KECCAK256 PUSH0 SWAP1 SLOAD SWAP1 PUSH2 0x100 EXP SWAP1 DIV PUSH1 0xFF AND PUSH2 0x3A8F JUMPI PUSH1 0x40 MLOAD PUSH32 0x8C379A000000000000000000000000000000000000000000000000000000000 DUP2 MSTORE PUSH1 0x4 ADD PUSH2 0x3A86 SWAP1 PUSH2 0x57CE JUMP JUMPDEST PUSH1 0x40 MLOAD DUP1 SWAP2 SUB SWAP1 REVERT JUMPDEST PUSH2 0x3AA2 DUP2 PUSH9 0x56BC75E2D63100000 PUSH2 0x41DC JUMP JUMPDEST POP DUP1 DUP1 PUSH1 0x1 ADD SWAP2 POP POP PUSH2 0x3971 JUMP JUMPDEST POP DUP1 PUSH1 0xB PUSH0 DUP3 DUP3 SLOAD PUSH2 0x3AC2 SWAP2 SWAP1 PUSH2 0x5654 JUMP JUMPDEST SWAP3 POP POP DUP2 SWAP1 SSTORE POP TIMESTAMP PUSH1 0x13 DUP2 SWAP1 SSTORE POP DUP2 PUSH1 0x40 MLOAD PUSH2 0x3ADE SWAP2 SWAP1 PUSH2 0x589D JUMP JUMPDEST PUSH1 0x40 MLOAD DUP1 SWAP2 SUB SWAP1 KECCAK256 PUSH32 0x31B132428711DF87F151486DEE14555A717FC1BFF73B44CEE1E901AACB466CA9 PUSH9 0x56BC75E2D63100000 PUSH1 0x40 MLOAD PUSH2 0x3B1E SWAP2 SWAP1 PUSH2 0x4EE0 JUMP JUMPDEST PUSH1 0x40 MLOAD DUP1 SWAP2 SUB SWAP1 LOG2 POP PUSH2 0x3B2F PUSH2 0x425B JUMP JUMPDEST POP JUMP JUMPDEST PUSH1 0x9 PUSH1 0x20 MSTORE DUP1 PUSH0 MSTORE PUSH1 0x40 PUSH0 KECCAK256 PUSH0 SWAP2 POP SLOAD SWAP1 PUSH2 0x100 EXP SWAP1 DIV PUSH1 0xFF AND DUP2 JUMP JUMPDEST PUSH0 PUSH1 0xB SLOAD PUSH1 0x7 SLOAD PUSH2 0x3B60 SWAP2 SWAP1 PUSH2 0x693F JUMP JUMPDEST SWAP1 POP SWAP1 JUMP JUMPDEST PUSH1 0x10 SLOAD DUP2 JUMP JUMPDEST PUSH0 PUSH1 0x1 PUSH0 DUP5 PUSH20 0xFFFFFFFFFFFFFFFFFFFFFFFFFFFFFFFFFFFFFFFF AND PUSH20 0xFFFFFFFFFFFFFFFFFFFFFFFFFFFFFFFFFFFFFFFF AND DUP2 MSTORE PUSH1 0x20 ADD SWAP1 DUP2 MSTORE PUSH1 0x20 ADD PUSH0 KECCAK256 PUSH0 DUP4 PUSH20 0xFFFFFFFFFFFFFFFFFFFFFFFFFFFFFFFFFFFFFFFF AND PUSH20 0xFFFFFFFFFFFFFFFFFFFFFFFFFFFFFFFFFFFFFFFF AND DUP2 MSTORE PUSH1 0x20 ADD SWAP1 DUP2 MSTORE PUSH1 0x20 ADD PUSH0 KECCAK256 SLOAD SWAP1 POP SWAP3 SWAP2 POP POP JUMP JUMPDEST PUSH1 0x11 PUSH1 0x1 SWAP1 SLOAD SWAP1 PUSH2 0x100 EXP SWAP1 DIV PUSH1 0xFF AND ISZERO PUSH2 0x3C3D JUMPI PUSH1 0x40 MLOAD PUSH32 0x8C379A000000000000000000000000000000000000000000000000000000000 DUP2 MSTORE PUSH1 0x4 ADD PUSH2 0x3C34 SWAP1 PUSH2 0x52F6 JUMP JUMPDEST PUSH1 0x40 MLOAD DUP1 SWAP2 SUB SWAP1 REVERT JUMPDEST PUSH0 PUSH1 0xF PUSH0 DUP4 DUP2 MSTORE PUSH1 0x20 ADD SWAP1 DUP2 MSTORE PUSH1 0x20 ADD PUSH0 KECCAK256 SWAP1 POP DUP1 PUSH1 0x8 ADD PUSH0 SWAP1 SLOAD SWAP1 PUSH2 0x100 EXP SWAP1 DIV PUSH1 0xFF AND PUSH2 0x3CA1 JUMPI PUSH1 0x40 MLOAD PUSH32 0x8C379A000000000000000000000000000000000000000000000000000000000 DUP2 MSTORE PUSH1 0x4 ADD PUSH2 0x3C98 SWAP1 PUSH2 0x535E JUMP JUMPDEST PUSH1 0x40 MLOAD DUP1 SWAP2 SUB SWAP1 REVERT JUMPDEST DUP1 PUSH0 ADD PUSH1 0x1 SWAP1 SLOAD SWAP1 PUSH2 0x100 EXP SWAP1 DIV PUSH20 0xFFFFFFFFFFFFFFFFFFFFFFFFFFFFFFFFFFFFFFFF AND PUSH20 0xFFFFFFFFFFFFFFFFFFFFFFFFFFFFFFFFFFFFFFFF AND CALLER PUSH20 0xFFFFFFFFFFFFFFFFFFFFFFFFFFFFFFFFFFFFFFFF AND EQ PUSH2 0x3D32 JUMPI PUSH1 0x40 MLOAD PUSH32 0x8C379A000000000000000000000000000000000000000000000000000000000 DUP2 MSTORE PUSH1 0x4 ADD PUSH2 0x3D29 SWAP1 PUSH2 0x69BC JUMP JUMPDEST PUSH1 0x40 MLOAD DUP1 SWAP2 SUB SWAP1 REVERT JUMPDEST PUSH1 0x2 PUSH1 0x7 DUP2 GT ISZERO PUSH2 0x3D46 JUMPI PUSH2 0x3D45 PUSH2 0x4B41 JUMP JUMPDEST JUMPDEST DUP2 PUSH0 ADD PUSH0 SWAP1 SLOAD SWAP1 PUSH2 0x100 EXP SWAP1 DIV PUSH1 0xFF AND PUSH1 0x7 DUP2 GT ISZERO PUSH2 0x3D68 JUMPI PUSH2 0x3D67 PUSH2 0x4B41 JUMP JUMPDEST JUMPDEST GT ISZERO PUSH2 0x3DA9 JUMPI PUSH1 0x40 MLOAD PUSH32 0x8C379A000000000000000000000000000000000000000000000000000000000 DUP2 MSTORE PUSH1 0x4 ADD PUSH2 0x3DA0 SWAP1 PUSH2 0x6A4A JUMP JUMPDEST PUSH1 0x40 MLOAD DUP1 SWAP2 SUB SWAP1 REVERT JUMPDEST PUSH1 0x5 DUP2 PUSH1 0x1 ADD SLOAD LT ISZERO PUSH2 0x3DF1 JUMPI PUSH1 0x40 MLOAD PUSH32 0x8C379A000000000000000000000000000000000000000000000000000000000 DUP2 MSTORE PUSH1 0x4 ADD PUSH2 0x3DE8 SWAP1 PUSH2 0x6AB2 JUMP JUMPDEST PUSH1 0x40 MLOAD DUP1 SWAP2 SUB SWAP1 REVERT JUMPDEST DUP1 PUSH1 0x2 ADD SLOAD TIMESTAMP LT PUSH2 0x3E37 JUMPI PUSH1 0x40 MLOAD PUSH32 0x8C379A000000000000000000000000000000000000000000000000000000000 DUP2 MSTORE PUSH1 0x4 ADD PUSH2 0x3E2E SWAP1 PUSH2 0x6B40 JUMP JUMPDEST PUSH1 0x40 MLOAD DUP1 SWAP2 SUB SWAP1 REVERT JUMPDEST PUSH2 0x3E40 DUP3 PUSH2 0x4291 JUMP JUMPDEST PUSH0 DUP2 PUSH0 ADD PUSH0 SWAP1 SLOAD SWAP1 PUSH2 0x100 EXP SWAP1 DIV PUSH1 0xFF AND SWAP1 POP PUSH1 0xF PUSH0 DUP5 DUP2 MSTORE PUSH1 0x20 ADD SWAP1 DUP2 MSTORE PUSH1 0x20 ADD PUSH0 KECCAK256 PUSH0 PUSH0 DUP3 ADD PUSH0 PUSH2 0x100 EXP DUP2 SLOAD SWAP1 PUSH1 0xFF MUL NOT AND SWAP1 SSTORE PUSH0 DUP3 ADD PUSH1 0x1 PUSH2 0x100 EXP DUP2 SLOAD SWAP1 PUSH20 0xFFFFFFFFFFFFFFFFFFFFFFFFFFFFFFFFFFFFFFFF MUL NOT AND SWAP1 SSTORE PUSH1 0x1 DUP3 ADD PUSH0 SWAP1 SSTORE PUSH1 0x2 DUP3 ADD PUSH0 SWAP1 SSTORE PUSH1 0x3 DUP3 ADD PUSH0 PUSH2 0x100 EXP DUP2 SLOAD SWAP1 PUSH20 0xFFFFFFFFFFFFFFFFFFFFFFFFFFFFFFFFFFFFFFFF MUL NOT AND SWAP1 SSTORE PUSH1 0x4 DUP3 ADD PUSH0 SWAP1 SSTORE PUSH1 0x5 DUP3 ADD PUSH0 PUSH2 0x3EE7 SWAP2 SWAP1 PUSH2 0x4A5C JUMP JUMPDEST PUSH1 0x6 DUP3 ADD PUSH0 PUSH2 0x3EF6 SWAP2 SWAP1 PUSH2 0x4A99 JUMP JUMPDEST PUSH1 0x7 DUP3 ADD PUSH0 PUSH2 0x3F05 SWAP2 SWAP1 PUSH2 0x4A99 JUMP JUMPDEST PUSH1 0x8 DUP3 ADD PUSH0 PUSH2 0x100 EXP DUP2 SLOAD SWAP1 PUSH1 0xFF MUL NOT AND SWAP1 SSTORE POP POP DUP3 PUSH32 0x89616A339342F36E4DCECC713F695BCBFE35FEA112C4C652DA7E1656BD486CE8 DUP3 PUSH1 0x40 MLOAD PUSH2 0x3F4A SWAP2 SWAP1 PUSH2 0x6527 JUMP JUMPDEST PUSH1 0x40 MLOAD DUP1 SWAP2 SUB SWAP1 LOG2 POP POP POP JUMP JUMPDEST PUSH0 PUSH1 0x9 PUSH0 DUP4 PUSH20 0xFFFFFFFFFFFFFFFFFFFFFFFFFFFFFFFFFFFFFFFF AND PUSH20 0xFFFFFFFFFFFFFFFFFFFFFFFFFFFFFFFFFFFFFFFF AND DUP2 MSTORE PUSH1 0x20 ADD SWAP1 DUP2 MSTORE PUSH1 0x20 ADD PUSH0 KECCAK256 PUSH0 SWAP1 SLOAD SWAP1 PUSH2 0x100 EXP SWAP1 DIV PUSH1 0xFF AND SWAP1 POP SWAP2 SWAP1 POP JUMP JUMPDEST PUSH0 PUSH0 PUSH1 0xA PUSH0 SWAP1 SLOAD SWAP1 PUSH2 0x100 EXP SWAP1 DIV PUSH20 0xFFFFFFFFFFFFFFFFFFFFFFFFFFFFFFFFFFFFFFFF AND SWAP1 POP PUSH0 DUP2 PUSH20 0xFFFFFFFFFFFFFFFFFFFFFFFFFFFFFFFFFFFFFFFF AND PUSH4 0x3850C7BD PUSH1 0x40 MLOAD DUP2 PUSH4 0xFFFFFFFF AND PUSH1 0xE0 SHL DUP2 MSTORE PUSH1 0x4 ADD PUSH1 0xE0 PUSH1 0x40 MLOAD DUP1 DUP4 SUB DUP2 DUP7 GAS STATICCALL ISZERO DUP1 ISZERO PUSH2 0x4019 JUMPI RETURNDATASIZE PUSH0 PUSH0 RETURNDATACOPY RETURNDATASIZE PUSH0 REVERT JUMPDEST POP POP POP POP PUSH1 0x40 MLOAD RETURNDATASIZE PUSH1 0x1F NOT PUSH1 0x1F DUP3 ADD AND DUP3 ADD DUP1 PUSH1 0x40 MSTORE POP DUP2 ADD SWAP1 PUSH2 0x403D SWAP2 SWAP1 PUSH2 0x6C49 JUMP JUMPDEST POP POP POP POP POP POP SWAP1 POP PUSH25 0x1000000000000000000000000000000000000000000000000 DUP2 PUSH20 0xFFFFFFFFFFFFFFFFFFFFFFFFFFFFFFFFFFFFFFFF AND DUP3 PUSH20 0xFFFFFFFFFFFFFFFFFFFFFFFFFFFFFFFFFFFFFFFF AND PUSH2 0x4097 SWAP2 SWAP1 PUSH2 0x5613 JUMP JUMPDEST PUSH2 0x40A1 SWAP2 SWAP1 PUSH2 0x6D13 JUMP JUMPDEST SWAP3 POP POP POP SWAP1 JUMP JUMPDEST PUSH2 0x40B0 PUSH2 0x42FE JUMP JUMPDEST PUSH0 PUSH20 0xFFFFFFFFFFFFFFFFFFFFFFFFFFFFFFFFFFFFFFFF AND DUP2 PUSH20 0xFFFFFFFFFFFFFFFFFFFFFFFFFFFFFFFFFFFFFFFF AND SUB PUSH2 0x4120 JUMPI PUSH0 PUSH1 0x40 MLOAD PUSH32 0x1E4FBDF700000000000000000000000000000000000000000000000000000000 DUP2 MSTORE PUSH1 0x4 ADD PUSH2 0x4117 SWAP2 SWAP1 PUSH2 0x5169 JUMP JUMPDEST PUSH1 0x40 MLOAD DUP1 SWAP2 SUB SWAP1 REVERT JUMPDEST PUSH2 0x4129 DUP2 PUSH2 0x4385 JUMP JUMPDEST POP JUMP JUMPDEST PUSH1 0x2 DUP2 JUMP JUMPDEST PUSH2 0x4139 PUSH2 0x42FE JUMP JUMPDEST PUSH1 0x1 PUSH1 0x11 PUSH0 PUSH2 0x100 EXP DUP2 SLOAD DUP2 PUSH1 0xFF MUL NOT AND SWAP1 DUP4 ISZERO ISZERO MUL OR SWAP1 SSTORE POP PUSH32 0x20C53179FE7C6306D9D1C279D52BAE5E736F5E1178137542D3A7A9D1752691BE PUSH1 0x40 MLOAD PUSH1 0x40 MLOAD DUP1 SWAP2 SUB SWAP1 LOG1 JUMP JUMPDEST PUSH8 0xDE0B6B3A7640000 DUP2 JUMP JUMPDEST PUSH1 0x2 PUSH1 0x6 SLOAD SUB PUSH2 0x41D2 JUMPI PUSH1 0x40 MLOAD PUSH32 0x8C379A000000000000000000000000000000000000000000000000000000000 DUP2 MSTORE PUSH1 0x4 ADD PUSH2 0x41C9 SWAP1 PUSH2 0x6D8D JUMP JUMPDEST PUSH1 0x40 MLOAD DUP1 SWAP2 SUB SWAP1 REVERT JUMPDEST PUSH1 0x2 PUSH1 0x6 DUP2 SWAP1 SSTORE POP JUMP JUMPDEST PUSH0 PUSH20 0xFFFFFFFFFFFFFFFFFFFFFFFFFFFFFFFFFFFFFFFF AND DUP3 PUSH20 0xFFFFFFFFFFFFFFFFFFFFFFFFFFFFFFFFFFFFFFFF AND SUB PUSH2 0x424C JUMPI PUSH0 PUSH1 0x40 MLOAD PUSH32 0xEC442F0500000000000000000000000000000000000000000000000000000000 DUP2 MSTORE PUSH1 0x4 ADD PUSH2 0x4243 SWAP2 SWAP1 PUSH2 0x5169 JUMP JUMPDEST PUSH1 0x40 MLOAD DUP1 SWAP2 SUB SWAP1 REVERT JUMPDEST PUSH2 0x4257 PUSH0 DUP4 DUP4 PUSH2 0x446A JUMP JUMPDEST POP POP JUMP JUMPDEST PUSH1 0x1 PUSH1 0x6 DUP2 SWAP1 SSTORE POP JUMP JUMPDEST PUSH0 CALLER SWAP1 POP SWAP1 JUMP JUMPDEST PUSH2 0x4279 DUP4 DUP4 DUP4 PUSH1 0x1 PUSH2 0x4683 JUMP JUMPDEST POP POP POP JUMP JUMPDEST DUP1 PUSH1 0xC SWAP1 DUP2 PUSH2 0x428D SWAP2 SWAP1 PUSH2 0x6101 JUMP JUMPDEST POP POP JUMP JUMPDEST PUSH0 PUSH0 SWAP1 POP JUMPDEST PUSH1 0x10 SLOAD DUP2 LT ISZERO PUSH2 0x42CC JUMPI PUSH1 0xF PUSH0 DUP3 DUP2 MSTORE PUSH1 0x20 ADD SWAP1 DUP2 MSTORE PUSH1 0x20 ADD PUSH0 KECCAK256 PUSH1 0x8 ADD PUSH0 SWAP1 SLOAD SWAP1 PUSH2 0x100 EXP SWAP1 POP POP DUP1 DUP1 PUSH1 0x1 ADD SWAP2 POP POP PUSH2 0x4296 JUMP JUMPDEST POP POP JUMP JUMPDEST PUSH0 PUSH0 PUSH2 0x42DA PUSH2 0x4265 JUMP JUMPDEST SWAP1 POP PUSH2 0x42E7 DUP6 DUP3 DUP6 PUSH2 0x4852 JUMP JUMPDEST PUSH2 0x42F2 DUP6 DUP6 DUP6 PUSH2 0x48E5 JUMP JUMPDEST PUSH1 0x1 SWAP2 POP POP SWAP4 SWAP3 POP POP POP JUMP JUMPDEST PUSH2 0x4306 PUSH2 0x4265 JUMP JUMPDEST PUSH20 0xFFFFFFFFFFFFFFFFFFFFFFFFFFFFFFFFFFFFFFFF AND PUSH2 0x4324 PUSH2 0x34B9 JUMP JUMPDEST PUSH20 0xFFFFFFFFFFFFFFFFFFFFFFFFFFFFFFFFFFFFFFFF AND EQ PUSH2 0x4383 JUMPI PUSH2 0x4347 PUSH2 0x4265 JUMP JUMPDEST PUSH1 0x40 MLOAD PUSH32 0x118CDAA700000000000000000000000000000000000000000000000000000000 DUP2 MSTORE PUSH1 0x4 ADD PUSH2 0x437A SWAP2 SWAP1 PUSH2 0x5169 JUMP JUMPDEST PUSH1 0x40 MLOAD DUP1 SWAP2 SUB SWAP1 REVERT JUMPDEST JUMP JUMPDEST PUSH0 PUSH1 0x5 PUSH0 SWAP1 SLOAD SWAP1 PUSH2 0x100 EXP SWAP1 DIV PUSH20 0xFFFFFFFFFFFFFFFFFFFFFFFFFFFFFFFFFFFFFFFF AND SWAP1 POP DUP2 PUSH1 0x5 PUSH0 PUSH2 0x100 EXP DUP2 SLOAD DUP2 PUSH20 0xFFFFFFFFFFFFFFFFFFFFFFFFFFFFFFFFFFFFFFFF MUL NOT AND SWAP1 DUP4 PUSH20 0xFFFFFFFFFFFFFFFFFFFFFFFFFFFFFFFFFFFFFFFF AND MUL OR SWAP1 SSTORE POP DUP2 PUSH20 0xFFFFFFFFFFFFFFFFFFFFFFFFFFFFFFFFFFFFFFFF AND DUP2 PUSH20 0xFFFFFFFFFFFFFFFFFFFFFFFFFFFFFFFFFFFFFFFF AND PUSH32 0x8BE0079C531659141344CD1FD0A4F28419497F9722A3DAAFE3B4186F6B6457E0 PUSH1 0x40 MLOAD PUSH1 0x40 MLOAD DUP1 SWAP2 SUB SWAP1 LOG3 POP POP JUMP JUMPDEST PUSH0 PUSH0 PUSH2 0x4452 PUSH2 0x4265 JUMP JUMPDEST SWAP1 POP PUSH2 0x445F DUP2 DUP6 DUP6 PUSH2 0x48E5 JUMP JUMPDEST PUSH1 0x1 SWAP2 POP POP SWAP3 SWAP2 POP POP JUMP JUMPDEST PUSH0 PUSH20 0xFFFFFFFFFFFFFFFFFFFFFFFFFFFFFFFFFFFFFFFF AND DUP4 PUSH20 0xFFFFFFFFFFFFFFFFFFFFFFFFFFFFFFFFFFFFFFFF AND SUB PUSH2 0x44BA JUMPI DUP1 PUSH1 0x2 PUSH0 DUP3 DUP3 SLOAD PUSH2 0x44AE SWAP2 SWAP1 PUSH2 0x5654 JUMP JUMPDEST SWAP3 POP POP DUP2 SWAP1 SSTORE POP PUSH2 0x4588 JUMP JUMPDEST PUSH0 PUSH0 PUSH0 DUP6 PUSH20 0xFFFFFFFFFFFFFFFFFFFFFFFFFFFFFFFFFFFFFFFF AND PUSH20 0xFFFFFFFFFFFFFFFFFFFFFFFFFFFFFFFFFFFFFFFF AND DUP2 MSTORE PUSH1 0x20 ADD SWAP1 DUP2 MSTORE PUSH1 0x20 ADD PUSH0 KECCAK256 SLOAD SWAP1 POP DUP2 DUP2 LT ISZERO PUSH2 0x4543 JUMPI DUP4 DUP2 DUP4 PUSH1 0x40 MLOAD PUSH32 0xE450D38C00000000000000000000000000000000000000000000000000000000 DUP2 MSTORE PUSH1 0x4 ADD PUSH2 0x453A SWAP4 SWAP3 SWAP2 SWAP1 PUSH2 0x6DAB JUMP JUMPDEST PUSH1 0x40 MLOAD DUP1 SWAP2 SUB SWAP1 REVERT JUMPDEST DUP2 DUP2 SUB PUSH0 PUSH0 DUP7 PUSH20 0xFFFFFFFFFFFFFFFFFFFFFFFFFFFFFFFFFFFFFFFF AND PUSH20 0xFFFFFFFFFFFFFFFFFFFFFFFFFFFFFFFFFFFFFFFF AND DUP2 MSTORE PUSH1 0x20 ADD SWAP1 DUP2 MSTORE PUSH1 0x20 ADD PUSH0 KECCAK256 DUP2 SWAP1 SSTORE POP POP JUMPDEST PUSH0 PUSH20 0xFFFFFFFFFFFFFFFFFFFFFFFFFFFFFFFFFFFFFFFF AND DUP3 PUSH20 0xFFFFFFFFFFFFFFFFFFFFFFFFFFFFFFFFFFFFFFFF AND SUB PUSH2 0x45CF JUMPI DUP1 PUSH1 0x2 PUSH0 DUP3 DUP3 SLOAD SUB SWAP3 POP POP DUP2 SWAP1 SSTORE POP PUSH2 0x4619 JUMP JUMPDEST DUP1 PUSH0 PUSH0 DUP5 PUSH20 0xFFFFFFFFFFFFFFFFFFFFFFFFFFFFFFFFFFFFFFFF AND PUSH20 0xFFFFFFFFFFFFFFFFFFFFFFFFFFFFFFFFFFFFFFFF AND DUP2 MSTORE PUSH1 0x20 ADD SWAP1 DUP2 MSTORE PUSH1 0x20 ADD PUSH0 KECCAK256 PUSH0 DUP3 DUP3 SLOAD ADD SWAP3 POP POP DUP2 SWAP1 SSTORE POP JUMPDEST DUP2 PUSH20 0xFFFFFFFFFFFFFFFFFFFFFFFFFFFFFFFFFFFFFFFF AND DUP4 PUSH20 0xFFFFFFFFFFFFFFFFFFFFFFFFFFFFFFFFFFFFFFFF AND PUSH32 0xDDF252AD1BE2C89B69C2B068FC378DAA952BA7F163C4A11628F55A4DF523B3EF DUP4 PUSH1 0x40 MLOAD PUSH2 0x4676 SWAP2 SWAP1 PUSH2 0x4EE0 JUMP JUMPDEST PUSH1 0x40 MLOAD DUP1 SWAP2 SUB SWAP1 LOG3 POP POP POP JUMP JUMPDEST PUSH0 PUSH20 0xFFFFFFFFFFFFFFFFFFFFFFFFFFFFFFFFFFFFFFFF AND DUP5 PUSH20 0xFFFFFFFFFFFFFFFFFFFFFFFFFFFFFFFFFFFFFFFF AND SUB PUSH2 0x46F3 JUMPI PUSH0 PUSH1 0x40 MLOAD PUSH32 0xE602DF0500000000000000000000000000000000000000000000000000000000 DUP2 MSTORE PUSH1 0x4 ADD PUSH2 0x46EA SWAP2 SWAP1 PUSH2 0x5169 JUMP JUMPDEST PUSH1 0x40 MLOAD DUP1 SWAP2 SUB SWAP1 REVERT JUMPDEST PUSH0 PUSH20 0xFFFFFFFFFFFFFFFFFFFFFFFFFFFFFFFFFFFFFFFF AND DUP4 PUSH20 0xFFFFFFFFFFFFFFFFFFFFFFFFFFFFFFFFFFFFFFFF AND SUB PUSH2 0x4763 JUMPI PUSH0 PUSH1 0x40 MLOAD PUSH32 0x94280D6200000000000000000000000000000000000000000000000000000000 DUP2 MSTORE PUSH1 0x4 ADD PUSH2 0x475A SWAP2 SWAP1 PUSH2 0x5169 JUMP JUMPDEST PUSH1 0x40 MLOAD DUP1 SWAP2 SUB SWAP1 REVERT JUMPDEST DUP2 PUSH1 0x1 PUSH0 DUP7 PUSH20 0xFFFFFFFFFFFFFFFFFFFFFFFFFFFFFFFFFFFFFFFF AND PUSH20 0xFFFFFFFFFFFFFFFFFFFFFFFFFFFFFFFFFFFFFFFF AND DUP2 MSTORE PUSH1 0x20 ADD SWAP1 DUP2 MSTORE PUSH1 0x20 ADD PUSH0 KECCAK256 PUSH0 DUP6 PUSH20 0xFFFFFFFFFFFFFFFFFFFFFFFFFFFFFFFFFFFFFFFF AND PUSH20 0xFFFFFFFFFFFFFFFFFFFFFFFFFFFFFFFFFFFFFFFF AND DUP2 MSTORE PUSH1 0x20 ADD SWAP1 DUP2 MSTORE PUSH1 0x20 ADD PUSH0 KECCAK256 DUP2 SWAP1 SSTORE POP DUP1 ISZERO PUSH2 0x484C JUMPI DUP3 PUSH20 0xFFFFFFFFFFFFFFFFFFFFFFFFFFFFFFFFFFFFFFFF AND DUP5 PUSH20 0xFFFFFFFFFFFFFFFFFFFFFFFFFFFFFFFFFFFFFFFF AND PUSH32 0x8C5BE1E5EBEC7D5BD14F71427D1E84F3DD0314C0F7B2291E5B200AC8C7C3B925 DUP5 PUSH1 0x40 MLOAD PUSH2 0x4843 SWAP2 SWAP1 PUSH2 0x4EE0 JUMP JUMPDEST PUSH1 0x40 MLOAD DUP1 SWAP2 SUB SWAP1 LOG3 JUMPDEST POP POP POP POP JUMP JUMPDEST PUSH0 PUSH2 0x485D DUP5 DUP5 PUSH2 0x3B6B JUMP JUMPDEST SWAP1 POP PUSH32 0xFFFFFFFFFFFFFFFFFFFFFFFFFFFFFFFFFFFFFFFFFFFFFFFFFFFFFFFFFFFFFFFF DUP2 LT ISZERO PUSH2 0x48DF JUMPI DUP2 DUP2 LT ISZERO PUSH2 0x48D0 JUMPI DUP3 DUP2 DUP4 PUSH1 0x40 MLOAD PUSH32 0xFB8F41B200000000000000000000000000000000000000000000000000000000 DUP2 MSTORE PUSH1 0x4 ADD PUSH2 0x48C7 SWAP4 SWAP3 SWAP2 SWAP1 PUSH2 0x6DAB JUMP JUMPDEST PUSH1 0x40 MLOAD DUP1 SWAP2 SUB SWAP1 REVERT JUMPDEST PUSH2 0x48DE DUP5 DUP5 DUP5 DUP5 SUB PUSH0 PUSH2 0x4683 JUMP JUMPDEST JUMPDEST POP POP POP POP JUMP JUMPDEST PUSH0 PUSH20 0xFFFFFFFFFFFFFFFFFFFFFFFFFFFFFFFFFFFFFFFF AND DUP4 PUSH20 0xFFFFFFFFFFFFFFFFFFFFFFFFFFFFFFFFFFFFFFFF AND SUB PUSH2 0x4955 JUMPI PUSH0 PUSH1 0x40 MLOAD PUSH32 0x96C6FD1E00000000000000000000000000000000000000000000000000000000 DUP2 MSTORE PUSH1 0x4 ADD PUSH2 0x494C SWAP2 SWAP1 PUSH2 0x5169 JUMP JUMPDEST PUSH1 0x40 MLOAD DUP1 SWAP2 SUB SWAP1 REVERT JUMPDEST PUSH0 PUSH20 0xFFFFFFFFFFFFFFFFFFFFFFFFFFFFFFFFFFFFFFFF AND DUP3 PUSH20 0xFFFFFFFFFFFFFFFFFFFFFFFFFFFFFFFFFFFFFFFF AND SUB PUSH2 0x49C5 JUMPI PUSH0 PUSH1 0x40 MLOAD PUSH32 0xEC442F0500000000000000000000000000000000000000000000000000000000 DUP2 MSTORE PUSH1 0x4 ADD PUSH2 0x49BC SWAP2 SWAP1 PUSH2 0x5169 JUMP JUMPDEST PUSH1 0x40 MLOAD DUP1 SWAP2 SUB SWAP1 REVERT JUMPDEST PUSH2 0x49D0 DUP4 DUP4 DUP4 PUSH2 0x446A JUMP JUMPDEST POP POP POP JUMP JUMPDEST DUP3 DUP1 SLOAD DUP3 DUP3 SSTORE SWAP1 PUSH0 MSTORE PUSH1 0x20 PUSH0 KECCAK256 SWAP1 DUP2 ADD SWAP3 DUP3 ISZERO PUSH2 0x4A4B JUMPI SWAP2 PUSH1 0x20 MUL DUP3 ADD JUMPDEST DUP3 DUP2 GT ISZERO PUSH2 0x4A4A JUMPI DUP3 MLOAD DUP3 PUSH0 PUSH2 0x100 EXP DUP2 SLOAD DUP2 PUSH20 0xFFFFFFFFFFFFFFFFFFFFFFFFFFFFFFFFFFFFFFFF MUL NOT AND SWAP1 DUP4 PUSH20 0xFFFFFFFFFFFFFFFFFFFFFFFFFFFFFFFFFFFFFFFF AND MUL OR SWAP1 SSTORE POP SWAP2 PUSH1 0x20 ADD SWAP2 SWAP1 PUSH1 0x1 ADD SWAP1 PUSH2 0x49F3 JUMP JUMPDEST JUMPDEST POP SWAP1 POP PUSH2 0x4A58 SWAP2 SWAP1 PUSH2 0x4AB7 JUMP JUMPDEST POP SWAP1 JUMP JUMPDEST POP DUP1 SLOAD PUSH2 0x4A68 SWAP1 PUSH2 0x5555 JUMP JUMPDEST PUSH0 DUP3 SSTORE DUP1 PUSH1 0x1F LT PUSH2 0x4A79 JUMPI POP PUSH2 0x4A96 JUMP JUMPDEST PUSH1 0x1F ADD PUSH1 0x20 SWAP1 DIV SWAP1 PUSH0 MSTORE PUSH1 0x20 PUSH0 KECCAK256 SWAP1 DUP2 ADD SWAP1 PUSH2 0x4A95 SWAP2 SWAP1 PUSH2 0x4AB7 JUMP JUMPDEST JUMPDEST POP JUMP JUMPDEST POP DUP1 SLOAD PUSH0 DUP3 SSTORE SWAP1 PUSH0 MSTORE PUSH1 0x20 PUSH0 KECCAK256 SWAP1 DUP2 ADD SWAP1 PUSH2 0x4AB4 SWAP2 SWAP1 PUSH2 0x4AB7 JUMP JUMPDEST POP JUMP JUMPDEST JUMPDEST DUP1 DUP3 GT ISZERO PUSH2 0x4ACE JUMPI PUSH0 DUP2 PUSH0 SWAP1 SSTORE POP PUSH1 0x1 ADD PUSH2 0x4AB8 JUMP JUMPDEST POP SWAP1 JUMP JUMPDEST PUSH0 PUSH1 0x40 MLOAD SWAP1 POP SWAP1 JUMP JUMPDEST PUSH0 PUSH0 REVERT JUMPDEST PUSH0 PUSH0 REVERT JUMPDEST PUSH0 DUP2 SWAP1 POP SWAP2 SWAP1 POP JUMP JUMPDEST PUSH2 0x4AF5 DUP2 PUSH2 0x4AE3 JUMP JUMPDEST DUP2 EQ PUSH2 0x4AFF JUMPI PUSH0 PUSH0 REVERT JUMPDEST POP JUMP JUMPDEST PUSH0 DUP2 CALLDATALOAD SWAP1 POP PUSH2 0x4B10 DUP2 PUSH2 0x4AEC JUMP JUMPDEST SWAP3 SWAP2 POP POP JUMP JUMPDEST PUSH0 PUSH1 0x20 DUP3 DUP5 SUB SLT ISZERO PUSH2 0x4B2B JUMPI PUSH2 0x4B2A PUSH2 0x4ADB JUMP JUMPDEST JUMPDEST PUSH0 PUSH2 0x4B38 DUP5 DUP3 DUP6 ADD PUSH2 0x4B02 JUMP JUMPDEST SWAP2 POP POP SWAP3 SWAP2 POP POP JUMP JUMPDEST PUSH32 0x4E487B7100000000000000000000000000000000000000000000000000000000 PUSH0 MSTORE PUSH1 0x21 PUSH1 0x4 MSTORE PUSH1 0x24 PUSH0 REVERT JUMPDEST PUSH1 0x8 DUP2 LT PUSH2 0x4B7F JUMPI PUSH2 0x4B7E PUSH2 0x4B41 JUMP JUMPDEST JUMPDEST POP JUMP JUMPDEST PUSH0 DUP2 SWAP1 POP PUSH2 0x4B8F DUP3 PUSH2 0x4B6E JUMP JUMPDEST SWAP2 SWAP1 POP JUMP JUMPDEST PUSH0 PUSH2 0x4B9E DUP3 PUSH2 0x4B82 JUMP JUMPDEST SWAP1 POP SWAP2 SWAP1 POP JUMP JUMPDEST PUSH2 0x4BAE DUP2 PUSH2 0x4B94 JUMP JUMPDEST DUP3 MSTORE POP POP JUMP JUMPDEST PUSH0 PUSH20 0xFFFFFFFFFFFFFFFFFFFFFFFFFFFFFFFFFFFFFFFF DUP3 AND SWAP1 POP SWAP2 SWAP1 POP JUMP JUMPDEST PUSH0 PUSH2 0x4BDD DUP3 PUSH2 0x4BB4 JUMP JUMPDEST SWAP1 POP SWAP2 SWAP1 POP JUMP JUMPDEST PUSH2 0x4BED DUP2 PUSH2 0x4BD3 JUMP JUMPDEST DUP3 MSTORE POP POP JUMP JUMPDEST PUSH2 0x4BFC DUP2 PUSH2 0x4AE3 JUMP JUMPDEST DUP3 MSTORE POP POP JUMP JUMPDEST PUSH0 DUP2 MLOAD SWAP1 POP SWAP2 SWAP1 POP JUMP JUMPDEST PUSH0 DUP3 DUP3 MSTORE PUSH1 0x20 DUP3 ADD SWAP1 POP SWAP3 SWAP2 POP POP JUMP JUMPDEST DUP3 DUP2 DUP4 MCOPY PUSH0 DUP4 DUP4 ADD MSTORE POP POP POP JUMP JUMPDEST PUSH0 PUSH1 0x1F NOT PUSH1 0x1F DUP4 ADD AND SWAP1 POP SWAP2 SWAP1 POP JUMP JUMPDEST PUSH0 PUSH2 0x4C44 DUP3 PUSH2 0x4C02 JUMP JUMPDEST PUSH2 0x4C4E DUP2 DUP6 PUSH2 0x4C0C JUMP JUMPDEST SWAP4 POP PUSH2 0x4C5E DUP2 DUP6 PUSH1 0x20 DUP7 ADD PUSH2 0x4C1C JUMP JUMPDEST PUSH2 0x4C67 DUP2 PUSH2 0x4C2A JUMP JUMPDEST DUP5 ADD SWAP2 POP POP SWAP3 SWAP2 POP POP JUMP JUMPDEST PUSH0 DUP2 ISZERO ISZERO SWAP1 POP SWAP2 SWAP1 POP JUMP JUMPDEST PUSH2 0x4C86 DUP2 PUSH2 0x4C72 JUMP JUMPDEST DUP3 MSTORE POP POP JUMP JUMPDEST PUSH0 PUSH2 0x100 DUP3 ADD SWAP1 POP PUSH2 0x4CA0 PUSH0 DUP4 ADD DUP12 PUSH2 0x4BA5 JUMP JUMPDEST PUSH2 0x4CAD PUSH1 0x20 DUP4 ADD DUP11 PUSH2 0x4BE4 JUMP JUMPDEST PUSH2 0x4CBA PUSH1 0x40 DUP4 ADD DUP10 PUSH2 0x4BF3 JUMP JUMPDEST PUSH2 0x4CC7 PUSH1 0x60 DUP4 ADD DUP9 PUSH2 0x4BF3 JUMP JUMPDEST PUSH2 0x4CD4 PUSH1 0x80 DUP4 ADD DUP8 PUSH2 0x4BE4 JUMP JUMPDEST PUSH2 0x4CE1 PUSH1 0xA0 DUP4 ADD DUP7 PUSH2 0x4BF3 JUMP JUMPDEST DUP2 DUP2 SUB PUSH1 0xC0 DUP4 ADD MSTORE PUSH2 0x4CF3 DUP2 DUP6 PUSH2 0x4C3A JUMP JUMPDEST SWAP1 POP PUSH2 0x4D02 PUSH1 0xE0 DUP4 ADD DUP5 PUSH2 0x4C7D JUMP JUMPDEST SWAP10 SWAP9 POP POP POP POP POP POP POP POP POP JUMP JUMPDEST PUSH0 PUSH0 REVERT JUMPDEST PUSH32 0x4E487B7100000000000000000000000000000000000000000000000000000000 PUSH0 MSTORE PUSH1 0x41 PUSH1 0x4 MSTORE PUSH1 0x24 PUSH0 REVERT JUMPDEST PUSH2 0x4D49 DUP3 PUSH2 0x4C2A JUMP JUMPDEST DUP2 ADD DUP2 DUP2 LT PUSH8 0xFFFFFFFFFFFFFFFF DUP3 GT OR ISZERO PUSH2 0x4D68 JUMPI PUSH2 0x4D67 PUSH2 0x4D13 JUMP JUMPDEST JUMPDEST DUP1 PUSH1 0x40 MSTORE POP POP POP JUMP JUMPDEST PUSH0 PUSH2 0x4D7A PUSH2 0x4AD2 JUMP JUMPDEST SWAP1 POP PUSH2 0x4D86 DUP3 DUP3 PUSH2 0x4D40 JUMP JUMPDEST SWAP2 SWAP1 POP JUMP JUMPDEST PUSH0 PUSH8 0xFFFFFFFFFFFFFFFF DUP3 GT ISZERO PUSH2 0x4DA5 JUMPI PUSH2 0x4DA4 PUSH2 0x4D13 JUMP JUMPDEST JUMPDEST PUSH1 0x20 DUP3 MUL SWAP1 POP PUSH1 0x20 DUP2 ADD SWAP1 POP SWAP2 SWAP1 POP JUMP JUMPDEST PUSH0 PUSH0 REVERT JUMPDEST PUSH2 0x4DC3 DUP2 PUSH2 0x4BD3 JUMP JUMPDEST DUP2 EQ PUSH2 0x4DCD JUMPI PUSH0 PUSH0 REVERT JUMPDEST POP JUMP JUMPDEST PUSH0 DUP2 CALLDATALOAD SWAP1 POP PUSH2 0x4DDE DUP2 PUSH2 0x4DBA JUMP JUMPDEST SWAP3 SWAP2 POP POP JUMP JUMPDEST PUSH0 PUSH2 0x4DF6 PUSH2 0x4DF1 DUP5 PUSH2 0x4D8B JUMP JUMPDEST PUSH2 0x4D71 JUMP JUMPDEST SWAP1 POP DUP1 DUP4 DUP3 MSTORE PUSH1 0x20 DUP3 ADD SWAP1 POP PUSH1 0x20 DUP5 MUL DUP4 ADD DUP6 DUP2 GT ISZERO PUSH2 0x4E19 JUMPI PUSH2 0x4E18 PUSH2 0x4DB6 JUMP JUMPDEST JUMPDEST DUP4 JUMPDEST DUP2 DUP2 LT ISZERO PUSH2 0x4E42 JUMPI DUP1 PUSH2 0x4E2E DUP9 DUP3 PUSH2 0x4DD0 JUMP JUMPDEST DUP5 MSTORE PUSH1 0x20 DUP5 ADD SWAP4 POP POP PUSH1 0x20 DUP2 ADD SWAP1 POP PUSH2 0x4E1B JUMP JUMPDEST POP POP POP SWAP4 SWAP3 POP POP POP JUMP JUMPDEST PUSH0 DUP3 PUSH1 0x1F DUP4 ADD SLT PUSH2 0x4E60 JUMPI PUSH2 0x4E5F PUSH2 0x4D0F JUMP JUMPDEST JUMPDEST DUP2 CALLDATALOAD PUSH2 0x4E70 DUP5 DUP3 PUSH1 0x20 DUP7 ADD PUSH2 0x4DE4 JUMP JUMPDEST SWAP2 POP POP SWAP3 SWAP2 POP POP JUMP JUMPDEST PUSH0 PUSH1 0x20 DUP3 DUP5 SUB SLT ISZERO PUSH2 0x4E8E JUMPI PUSH2 0x4E8D PUSH2 0x4ADB JUMP JUMPDEST JUMPDEST PUSH0 DUP3 ADD CALLDATALOAD PUSH8 0xFFFFFFFFFFFFFFFF DUP2 GT ISZERO PUSH2 0x4EAB JUMPI PUSH2 0x4EAA PUSH2 0x4ADF JUMP JUMPDEST JUMPDEST PUSH2 0x4EB7 DUP5 DUP3 DUP6 ADD PUSH2 0x4E4C JUMP JUMPDEST SWAP2 POP POP SWAP3 SWAP2 POP POP JUMP JUMPDEST PUSH0 PUSH1 0x20 DUP3 ADD SWAP1 POP DUP2 DUP2 SUB PUSH0 DUP4 ADD MSTORE PUSH2 0x4ED8 DUP2 DUP5 PUSH2 0x4C3A JUMP JUMPDEST SWAP1 POP SWAP3 SWAP2 POP POP JUMP JUMPDEST PUSH0 PUSH1 0x20 DUP3 ADD SWAP1 POP PUSH2 0x4EF3 PUSH0 DUP4 ADD DUP5 PUSH2 0x4BF3 JUMP JUMPDEST SWAP3 SWAP2 POP POP JUMP JUMPDEST PUSH0 PUSH0 PUSH1 0x40 DUP4 DUP6 SUB SLT ISZERO PUSH2 0x4F0F JUMPI PUSH2 0x4F0E PUSH2 0x4ADB JUMP JUMPDEST JUMPDEST PUSH0 PUSH2 0x4F1C DUP6 DUP3 DUP7 ADD PUSH2 0x4DD0 JUMP JUMPDEST SWAP3 POP POP PUSH1 0x20 PUSH2 0x4F2D DUP6 DUP3 DUP7 ADD PUSH2 0x4B02 JUMP JUMPDEST SWAP2 POP POP SWAP3 POP SWAP3 SWAP1 POP JUMP JUMPDEST PUSH0 PUSH1 0x20 DUP3 ADD SWAP1 POP PUSH2 0x4F4A PUSH0 DUP4 ADD DUP5 PUSH2 0x4C7D JUMP JUMPDEST SWAP3 SWAP2 POP POP JUMP JUMPDEST PUSH1 0x8 DUP2 LT PUSH2 0x4F5C JUMPI PUSH0 PUSH0 REVERT JUMPDEST POP JUMP JUMPDEST PUSH0 DUP2 CALLDATALOAD SWAP1 POP PUSH2 0x4F6D DUP2 PUSH2 0x4F50 JUMP JUMPDEST SWAP3 SWAP2 POP POP JUMP JUMPDEST PUSH0 PUSH0 REVERT JUMPDEST PUSH0 PUSH8 0xFFFFFFFFFFFFFFFF DUP3 GT ISZERO PUSH2 0x4F91 JUMPI PUSH2 0x4F90 PUSH2 0x4D13 JUMP JUMPDEST JUMPDEST PUSH2 0x4F9A DUP3 PUSH2 0x4C2A JUMP JUMPDEST SWAP1 POP PUSH1 0x20 DUP2 ADD SWAP1 POP SWAP2 SWAP1 POP JUMP JUMPDEST DUP3 DUP2 DUP4 CALLDATACOPY PUSH0 DUP4 DUP4 ADD MSTORE POP POP POP JUMP JUMPDEST PUSH0 PUSH2 0x4FC7 PUSH2 0x4FC2 DUP5 PUSH2 0x4F77 JUMP JUMPDEST PUSH2 0x4D71 JUMP JUMPDEST SWAP1 POP DUP3 DUP2 MSTORE PUSH1 0x20 DUP2 ADD DUP5 DUP5 DUP5 ADD GT ISZERO PUSH2 0x4FE3 JUMPI PUSH2 0x4FE2 PUSH2 0x4F73 JUMP JUMPDEST JUMPDEST PUSH2 0x4FEE DUP5 DUP3 DUP6 PUSH2 0x4FA7 JUMP JUMPDEST POP SWAP4 SWAP3 POP POP POP JUMP JUMPDEST PUSH0 DUP3 PUSH1 0x1F DUP4 ADD SLT PUSH2 0x500A JUMPI PUSH2 0x5009 PUSH2 0x4D0F JUMP JUMPDEST JUMPDEST DUP2 CALLDATALOAD PUSH2 0x501A DUP5 DUP3 PUSH1 0x20 DUP7 ADD PUSH2 0x4FB5 JUMP JUMPDEST SWAP2 POP POP SWAP3 SWAP2 POP POP JUMP JUMPDEST PUSH0 PUSH0 PUSH0 PUSH0 PUSH0 PUSH0 PUSH1 0xC0 DUP8 DUP10 SUB SLT ISZERO PUSH2 0x503D JUMPI PUSH2 0x503C PUSH2 0x4ADB JUMP JUMPDEST JUMPDEST PUSH0 PUSH2 0x504A DUP10 DUP3 DUP11 ADD PUSH2 0x4F5F JUMP JUMPDEST SWAP7 POP POP PUSH1 0x20 PUSH2 0x505B DUP10 DUP3 DUP11 ADD PUSH2 0x4DD0 JUMP JUMPDEST SWAP6 POP POP PUSH1 0x40 PUSH2 0x506C DUP10 DUP3 DUP11 ADD PUSH2 0x4B02 JUMP JUMPDEST SWAP5 POP POP PUSH1 0x60 DUP8 ADD CALLDATALOAD PUSH8 0xFFFFFFFFFFFFFFFF DUP2 GT ISZERO PUSH2 0x508D JUMPI PUSH2 0x508C PUSH2 0x4ADF JUMP JUMPDEST JUMPDEST PUSH2 0x5099 DUP10 DUP3 DUP11 ADD PUSH2 0x4FF6 JUMP JUMPDEST SWAP4 POP POP PUSH1 0x80 DUP8 ADD CALLDATALOAD PUSH8 0xFFFFFFFFFFFFFFFF DUP2 GT ISZERO PUSH2 0x50BA JUMPI PUSH2 0x50B9 PUSH2 0x4ADF JUMP JUMPDEST JUMPDEST PUSH2 0x50C6 DUP10 DUP3 DUP11 ADD PUSH2 0x4E4C JUMP JUMPDEST SWAP3 POP POP PUSH1 0xA0 DUP8 ADD CALLDATALOAD PUSH8 0xFFFFFFFFFFFFFFFF DUP2 GT ISZERO PUSH2 0x50E7 JUMPI PUSH2 0x50E6 PUSH2 0x4ADF JUMP JUMPDEST JUMPDEST PUSH2 0x50F3 DUP10 DUP3 DUP11 ADD PUSH2 0x4E4C JUMP JUMPDEST SWAP2 POP POP SWAP3 SWAP6 POP SWAP3 SWAP6 POP SWAP3 SWAP6 JUMP JUMPDEST PUSH0 PUSH0 PUSH1 0x40 DUP4 DUP6 SUB SLT ISZERO PUSH2 0x5116 JUMPI PUSH2 0x5115 PUSH2 0x4ADB JUMP JUMPDEST JUMPDEST PUSH0 PUSH2 0x5123 DUP6 DUP3 DUP7 ADD PUSH2 0x4B02 JUMP JUMPDEST SWAP3 POP POP PUSH1 0x20 PUSH2 0x5134 DUP6 DUP3 DUP7 ADD PUSH2 0x4DD0 JUMP JUMPDEST SWAP2 POP POP SWAP3 POP SWAP3 SWAP1 POP JUMP JUMPDEST PUSH0 PUSH1 0x20 DUP3 DUP5 SUB SLT ISZERO PUSH2 0x5153 JUMPI PUSH2 0x5152 PUSH2 0x4ADB JUMP JUMPDEST JUMPDEST PUSH0 PUSH2 0x5160 DUP5 DUP3 DUP6 ADD PUSH2 0x4DD0 JUMP JUMPDEST SWAP2 POP POP SWAP3 SWAP2 POP POP JUMP JUMPDEST PUSH0 PUSH1 0x20 DUP3 ADD SWAP1 POP PUSH2 0x517C PUSH0 DUP4 ADD DUP5 PUSH2 0x4BE4 JUMP JUMPDEST SWAP3 SWAP2 POP POP JUMP JUMPDEST PUSH0 PUSH0 PUSH0 PUSH1 0x60 DUP5 DUP7 SUB SLT ISZERO PUSH2 0x5199 JUMPI PUSH2 0x5198 PUSH2 0x4ADB JUMP JUMPDEST JUMPDEST PUSH0 PUSH2 0x51A6 DUP7 DUP3 DUP8 ADD PUSH2 0x4DD0 JUMP JUMPDEST SWAP4 POP POP PUSH1 0x20 PUSH2 0x51B7 DUP7 DUP3 DUP8 ADD PUSH2 0x4DD0 JUMP JUMPDEST SWAP3 POP POP PUSH1 0x40 PUSH2 0x51C8 DUP7 DUP3 DUP8 ADD PUSH2 0x4B02 JUMP JUMPDEST SWAP2 POP POP SWAP3 POP SWAP3 POP SWAP3 JUMP JUMPDEST PUSH0 PUSH1 0xFF DUP3 AND SWAP1 POP SWAP2 SWAP1 POP JUMP JUMPDEST PUSH2 0x51E7 DUP2 PUSH2 0x51D2 JUMP JUMPDEST DUP3 MSTORE POP POP JUMP JUMPDEST PUSH0 PUSH1 0x20 DUP3 ADD SWAP1 POP PUSH2 0x5200 PUSH0 DUP4 ADD DUP5 PUSH2 0x51DE JUMP JUMPDEST SWAP3 SWAP2 POP POP JUMP JUMPDEST PUSH0 PUSH0 PUSH1 0x40 DUP4 DUP6 SUB SLT ISZERO PUSH2 0x521C JUMPI PUSH2 0x521B PUSH2 0x4ADB JUMP JUMPDEST JUMPDEST PUSH0 PUSH2 0x5229 DUP6 DUP3 DUP7 ADD PUSH2 0x4DD0 JUMP JUMPDEST SWAP3 POP POP PUSH1 0x20 PUSH2 0x523A DUP6 DUP3 DUP7 ADD PUSH2 0x4DD0 JUMP JUMPDEST SWAP2 POP POP SWAP3 POP SWAP3 SWAP1 POP JUMP JUMPDEST PUSH32 0x4E6F74206120766F746572000000000000000000000000000000000000000000 PUSH0 DUP3 ADD MSTORE POP JUMP JUMPDEST PUSH0 PUSH2 0x5278 PUSH1 0xB DUP4 PUSH2 0x4C0C JUMP JUMPDEST SWAP2 POP PUSH2 0x5283 DUP3 PUSH2 0x5244 JUMP JUMPDEST PUSH1 0x20 DUP3 ADD SWAP1 POP SWAP2 SWAP1 POP JUMP JUMPDEST PUSH0 PUSH1 0x20 DUP3 ADD SWAP1 POP DUP2 DUP2 SUB PUSH0 DUP4 ADD MSTORE PUSH2 0x52A5 DUP2 PUSH2 0x526C JUMP JUMPDEST SWAP1 POP SWAP2 SWAP1 POP JUMP JUMPDEST PUSH32 0x54686520636F6E747261637420686173206265656E2073757370656E64656400 PUSH0 DUP3 ADD MSTORE POP JUMP JUMPDEST PUSH0 PUSH2 0x52E0 PUSH1 0x1F DUP4 PUSH2 0x4C0C JUMP JUMPDEST SWAP2 POP PUSH2 0x52EB DUP3 PUSH2 0x52AC JUMP JUMPDEST PUSH1 0x20 DUP3 ADD SWAP1 POP SWAP2 SWAP1 POP JUMP JUMPDEST PUSH0 PUSH1 0x20 DUP3 ADD SWAP1 POP DUP2 DUP2 SUB PUSH0 DUP4 ADD MSTORE PUSH2 0x530D DUP2 PUSH2 0x52D4 JUMP JUMPDEST SWAP1 POP SWAP2 SWAP1 POP JUMP JUMPDEST PUSH32 0x4E6F206163746976652070726F706F73616C7300000000000000000000000000 PUSH0 DUP3 ADD MSTORE POP JUMP JUMPDEST PUSH0 PUSH2 0x5348 PUSH1 0x13 DUP4 PUSH2 0x4C0C JUMP JUMPDEST SWAP2 POP PUSH2 0x5353 DUP3 PUSH2 0x5314 JUMP JUMPDEST PUSH1 0x20 DUP3 ADD SWAP1 POP SWAP2 SWAP1 POP JUMP JUMPDEST PUSH0 PUSH1 0x20 DUP3 ADD SWAP1 POP DUP2 DUP2 SUB PUSH0 DUP4 ADD MSTORE PUSH2 0x5375 DUP2 PUSH2 0x533C JUMP JUMPDEST SWAP1 POP SWAP2 SWAP1 POP JUMP JUMPDEST PUSH32 0x566F746564000000000000000000000000000000000000000000000000000000 PUSH0 DUP3 ADD MSTORE POP JUMP JUMPDEST PUSH0 PUSH2 0x53B0 PUSH1 0x5 DUP4 PUSH2 0x4C0C JUMP JUMPDEST SWAP2 POP PUSH2 0x53BB DUP3 PUSH2 0x537C JUMP JUMPDEST PUSH1 0x20 DUP3 ADD SWAP1 POP SWAP2 SWAP1 POP JUMP JUMPDEST PUSH0 PUSH1 0x20 DUP3 ADD SWAP1 POP DUP2 DUP2 SUB PUSH0 DUP4 ADD MSTORE PUSH2 0x53DD DUP2 PUSH2 0x53A4 JUMP JUMPDEST SWAP1 POP SWAP2 SWAP1 POP JUMP JUMPDEST PUSH32 0x566F74696E6720686173206265656E2073757370656E64656400000000000000 PUSH0 DUP3 ADD MSTORE POP JUMP JUMPDEST PUSH0 PUSH2 0x5418 PUSH1 0x19 DUP4 PUSH2 0x4C0C JUMP JUMPDEST SWAP2 POP PUSH2 0x5423 DUP3 PUSH2 0x53E4 JUMP JUMPDEST PUSH1 0x20 DUP3 ADD SWAP1 POP SWAP2 SWAP1 POP JUMP JUMPDEST PUSH0 PUSH1 0x20 DUP3 ADD SWAP1 POP DUP2 DUP2 SUB PUSH0 DUP4 ADD MSTORE PUSH2 0x5445 DUP2 PUSH2 0x540C JUMP JUMPDEST SWAP1 POP SWAP2 SWAP1 POP JUMP JUMPDEST PUSH32 0x4E487B7100000000000000000000000000000000000000000000000000000000 PUSH0 MSTORE PUSH1 0x11 PUSH1 0x4 MSTORE PUSH1 0x24 PUSH0 REVERT JUMPDEST PUSH0 PUSH2 0x5483 DUP3 PUSH2 0x4AE3 JUMP JUMPDEST SWAP2 POP PUSH32 0xFFFFFFFFFFFFFFFFFFFFFFFFFFFFFFFFFFFFFFFFFFFFFFFFFFFFFFFFFFFFFFFF DUP3 SUB PUSH2 0x54B5 JUMPI PUSH2 0x54B4 PUSH2 0x544C JUMP JUMPDEST JUMPDEST PUSH1 0x1 DUP3 ADD SWAP1 POP SWAP2 SWAP1 POP JUMP JUMPDEST PUSH32 0x546865206E756D626572206F6620766F74657320697320657863656564656400 PUSH0 DUP3 ADD MSTORE POP JUMP JUMPDEST PUSH0 PUSH2 0x54F4 PUSH1 0x1F DUP4 PUSH2 0x4C0C JUMP JUMPDEST SWAP2 POP PUSH2 0x54FF DUP3 PUSH2 0x54C0 JUMP JUMPDEST PUSH1 0x20 DUP3 ADD SWAP1 POP SWAP2 SWAP1 POP JUMP JUMPDEST PUSH0 PUSH1 0x20 DUP3 ADD SWAP1 POP DUP2 DUP2 SUB PUSH0 DUP4 ADD MSTORE PUSH2 0x5521 DUP2 PUSH2 0x54E8 JUMP JUMPDEST SWAP1 POP SWAP2 SWAP1 POP JUMP JUMPDEST PUSH32 0x4E487B7100000000000000000000000000000000000000000000000000000000 PUSH0 MSTORE PUSH1 0x22 PUSH1 0x4 MSTORE PUSH1 0x24 PUSH0 REVERT JUMPDEST PUSH0 PUSH1 0x2 DUP3 DIV SWAP1 POP PUSH1 0x1 DUP3 AND DUP1 PUSH2 0x556C JUMPI PUSH1 0x7F DUP3 AND SWAP2 POP JUMPDEST PUSH1 0x20 DUP3 LT DUP2 SUB PUSH2 0x557F JUMPI PUSH2 0x557E PUSH2 0x5528 JUMP JUMPDEST JUMPDEST POP SWAP2 SWAP1 POP JUMP JUMPDEST PUSH32 0x57686974656C6973742061646472657373657320617272617920697320656D70 PUSH0 DUP3 ADD MSTORE PUSH32 0x7479000000000000000000000000000000000000000000000000000000000000 PUSH1 0x20 DUP3 ADD MSTORE POP JUMP JUMPDEST PUSH0 PUSH2 0x55DF PUSH1 0x22 DUP4 PUSH2 0x4C0C JUMP JUMPDEST SWAP2 POP PUSH2 0x55EA DUP3 PUSH2 0x5585 JUMP JUMPDEST PUSH1 0x40 DUP3 ADD SWAP1 POP SWAP2 SWAP1 POP JUMP JUMPDEST PUSH0 PUSH1 0x20 DUP3 ADD SWAP1 POP DUP2 DUP2 SUB PUSH0 DUP4 ADD MSTORE PUSH2 0x560C DUP2 PUSH2 0x55D3 JUMP JUMPDEST SWAP1 POP SWAP2 SWAP1 POP JUMP JUMPDEST PUSH0 PUSH2 0x561D DUP3 PUSH2 0x4AE3 JUMP JUMPDEST SWAP2 POP PUSH2 0x5628 DUP4 PUSH2 0x4AE3 JUMP JUMPDEST SWAP3 POP DUP3 DUP3 MUL PUSH2 0x5636 DUP2 PUSH2 0x4AE3 JUMP JUMPDEST SWAP2 POP DUP3 DUP3 DIV DUP5 EQ DUP4 ISZERO OR PUSH2 0x564D JUMPI PUSH2 0x564C PUSH2 0x544C JUMP JUMPDEST JUMPDEST POP SWAP3 SWAP2 POP POP JUMP JUMPDEST PUSH0 PUSH2 0x565E DUP3 PUSH2 0x4AE3 JUMP JUMPDEST SWAP2 POP PUSH2 0x5669 DUP4 PUSH2 0x4AE3 JUMP JUMPDEST SWAP3 POP DUP3 DUP3 ADD SWAP1 POP DUP1 DUP3 GT ISZERO PUSH2 0x5681 JUMPI PUSH2 0x5680 PUSH2 0x544C JUMP JUMPDEST JUMPDEST SWAP3 SWAP2 POP POP JUMP JUMPDEST PUSH32 0x4578636565647320746F74616C20737570706C79000000000000000000000000 PUSH0 DUP3 ADD MSTORE POP JUMP JUMPDEST PUSH0 PUSH2 0x56BB PUSH1 0x14 DUP4 PUSH2 0x4C0C JUMP JUMPDEST SWAP2 POP PUSH2 0x56C6 DUP3 PUSH2 0x5687 JUMP JUMPDEST PUSH1 0x20 DUP3 ADD SWAP1 POP SWAP2 SWAP1 POP JUMP JUMPDEST PUSH0 PUSH1 0x20 DUP3 ADD SWAP1 POP DUP2 DUP2 SUB PUSH0 DUP4 ADD MSTORE PUSH2 0x56E8 DUP2 PUSH2 0x56AF JUMP JUMPDEST SWAP1 POP SWAP2 SWAP1 POP JUMP JUMPDEST PUSH32 0x4E487B7100000000000000000000000000000000000000000000000000000000 PUSH0 MSTORE PUSH1 0x32 PUSH1 0x4 MSTORE PUSH1 0x24 PUSH0 REVERT JUMPDEST PUSH32 0x496E76616C696420726563697069656E74206164647265737300000000000000 PUSH0 DUP3 ADD MSTORE POP JUMP JUMPDEST PUSH0 PUSH2 0x5750 PUSH1 0x19 DUP4 PUSH2 0x4C0C JUMP JUMPDEST SWAP2 POP PUSH2 0x575B DUP3 PUSH2 0x571C JUMP JUMPDEST PUSH1 0x20 DUP3 ADD SWAP1 POP SWAP2 SWAP1 POP JUMP JUMPDEST PUSH0 PUSH1 0x20 DUP3 ADD SWAP1 POP DUP2 DUP2 SUB PUSH0 DUP4 ADD MSTORE PUSH2 0x577D DUP2 PUSH2 0x5744 JUMP JUMPDEST SWAP1 POP SWAP2 SWAP1 POP JUMP JUMPDEST PUSH32 0x526563697069656E74206E6F7420696E2077686974656C697374000000000000 PUSH0 DUP3 ADD MSTORE POP JUMP JUMPDEST PUSH0 PUSH2 0x57B8 PUSH1 0x1A DUP4 PUSH2 0x4C0C JUMP JUMPDEST SWAP2 POP PUSH2 0x57C3 DUP3 PUSH2 0x5784 JUMP JUMPDEST PUSH1 0x20 DUP3 ADD SWAP1 POP SWAP2 SWAP1 POP JUMP JUMPDEST PUSH0 PUSH1 0x20 DUP3 ADD SWAP1 POP DUP2 DUP2 SUB PUSH0 DUP4 ADD MSTORE PUSH2 0x57E5 DUP2 PUSH2 0x57AC JUMP JUMPDEST SWAP1 POP SWAP2 SWAP1 POP JUMP JUMPDEST PUSH0 DUP2 MLOAD SWAP1 POP SWAP2 SWAP1 POP JUMP JUMPDEST PUSH0 DUP2 SWAP1 POP SWAP3 SWAP2 POP POP JUMP JUMPDEST PUSH0 DUP2 SWAP1 POP PUSH1 0x20 DUP3 ADD SWAP1 POP SWAP2 SWAP1 POP JUMP JUMPDEST PUSH2 0x5818 DUP2 PUSH2 0x4BD3 JUMP JUMPDEST DUP3 MSTORE POP POP JUMP JUMPDEST PUSH0 PUSH2 0x5829 DUP4 DUP4 PUSH2 0x580F JUMP JUMPDEST PUSH1 0x20 DUP4 ADD SWAP1 POP SWAP3 SWAP2 POP POP JUMP JUMPDEST PUSH0 PUSH1 0x20 DUP3 ADD SWAP1 POP SWAP2 SWAP1 POP JUMP JUMPDEST PUSH0 PUSH2 0x584B DUP3 PUSH2 0x57EC JUMP JUMPDEST PUSH2 0x5855 DUP2 DUP6 PUSH2 0x57F6 JUMP JUMPDEST SWAP4 POP PUSH2 0x5860 DUP4 PUSH2 0x5800 JUMP JUMPDEST DUP1 PUSH0 JUMPDEST DUP4 DUP2 LT ISZERO PUSH2 0x5890 JUMPI DUP2 MLOAD PUSH2 0x5877 DUP9 DUP3 PUSH2 0x581E JUMP JUMPDEST SWAP8 POP PUSH2 0x5882 DUP4 PUSH2 0x5835 JUMP JUMPDEST SWAP3 POP POP PUSH1 0x1 DUP2 ADD SWAP1 POP PUSH2 0x5863 JUMP JUMPDEST POP DUP6 SWAP4 POP POP POP POP SWAP3 SWAP2 POP POP JUMP JUMPDEST PUSH0 PUSH2 0x58A8 DUP3 DUP5 PUSH2 0x5841 JUMP JUMPDEST SWAP2 POP DUP2 SWAP1 POP SWAP3 SWAP2 POP POP JUMP JUMPDEST PUSH32 0x546865726520617265206163746976652070726F706F73616C73000000000000 PUSH0 DUP3 ADD MSTORE POP JUMP JUMPDEST PUSH0 PUSH2 0x58E7 PUSH1 0x1A DUP4 PUSH2 0x4C0C JUMP JUMPDEST SWAP2 POP PUSH2 0x58F2 DUP3 PUSH2 0x58B3 JUMP JUMPDEST PUSH1 0x20 DUP3 ADD SWAP1 POP SWAP2 SWAP1 POP JUMP JUMPDEST PUSH0 PUSH1 0x20 DUP3 ADD SWAP1 POP DUP2 DUP2 SUB PUSH0 DUP4 ADD MSTORE PUSH2 0x5914 DUP2 PUSH2 0x58DB JUMP JUMPDEST SWAP1 POP SWAP2 SWAP1 POP JUMP JUMPDEST PUSH32 0x546865206E616D652063616E6E6F7420626520656D7074790000000000000000 PUSH0 DUP3 ADD MSTORE POP JUMP JUMPDEST PUSH0 PUSH2 0x594F PUSH1 0x18 DUP4 PUSH2 0x4C0C JUMP JUMPDEST SWAP2 POP PUSH2 0x595A DUP3 PUSH2 0x591B JUMP JUMPDEST PUSH1 0x20 DUP3 ADD SWAP1 POP SWAP2 SWAP1 POP JUMP JUMPDEST PUSH0 PUSH1 0x20 DUP3 ADD SWAP1 POP DUP2 DUP2 SUB PUSH0 DUP4 ADD MSTORE PUSH2 0x597C DUP2 PUSH2 0x5943 JUMP JUMPDEST SWAP1 POP SWAP2 SWAP1 POP JUMP JUMPDEST PUSH32 0x5468652061646A7573746D656E7420616D6F756E742063616E6E6F7420626520 PUSH0 DUP3 ADD MSTORE PUSH32 0x7A65726F00000000000000000000000000000000000000000000000000000000 PUSH1 0x20 DUP3 ADD MSTORE POP JUMP JUMPDEST PUSH0 PUSH2 0x59DD PUSH1 0x24 DUP4 PUSH2 0x4C0C JUMP JUMPDEST SWAP2 POP PUSH2 0x59E8 DUP3 PUSH2 0x5983 JUMP JUMPDEST PUSH1 0x40 DUP3 ADD SWAP1 POP SWAP2 SWAP1 POP JUMP JUMPDEST PUSH0 PUSH1 0x20 DUP3 ADD SWAP1 POP DUP2 DUP2 SUB PUSH0 DUP4 ADD MSTORE PUSH2 0x5A0A DUP2 PUSH2 0x59D1 JUMP JUMPDEST SWAP1 POP SWAP2 SWAP1 POP JUMP JUMPDEST PUSH0 DUP2 SWAP1 POP SWAP2 SWAP1 POP JUMP JUMPDEST PUSH0 PUSH2 0x5A24 DUP3 PUSH2 0x5A11 JUMP JUMPDEST SWAP2 POP PUSH2 0x5A2F DUP4 PUSH2 0x5A11 JUMP JUMPDEST SWAP3 POP DUP3 DUP3 ADD SWAP1 POP DUP3 DUP2 SLT ISZERO PUSH0 DUP4 SLT AND DUP4 DUP3 SLT PUSH0 DUP5 SLT ISZERO AND OR ISZERO PUSH2 0x5A55 JUMPI PUSH2 0x5A54 PUSH2 0x544C JUMP JUMPDEST JUMPDEST SWAP3 SWAP2 POP POP JUMP JUMPDEST PUSH32 0x54686520737570706C792063616E6E6F74206265206C657373207468616E2074 PUSH0 DUP3 ADD MSTORE PUSH32 0x6865206D696E74656420616D6F756E7400000000000000000000000000000000 PUSH1 0x20 DUP3 ADD MSTORE POP JUMP JUMPDEST PUSH0 PUSH2 0x5AB5 PUSH1 0x30 DUP4 PUSH2 0x4C0C JUMP JUMPDEST SWAP2 POP PUSH2 0x5AC0 DUP3 PUSH2 0x5A5B JUMP JUMPDEST PUSH1 0x40 DUP3 ADD SWAP1 POP SWAP2 SWAP1 POP JUMP JUMPDEST PUSH0 PUSH1 0x20 DUP3 ADD SWAP1 POP DUP2 DUP2 SUB PUSH0 DUP4 ADD MSTORE PUSH2 0x5AE2 DUP2 PUSH2 0x5AA9 JUMP JUMPDEST SWAP1 POP SWAP2 SWAP1 POP JUMP JUMPDEST PUSH32 0x54686520737570706C792063616E6E6F74206265206E65676174697665000000 PUSH0 DUP3 ADD MSTORE POP JUMP JUMPDEST PUSH0 PUSH2 0x5B1D PUSH1 0x1D DUP4 PUSH2 0x4C0C JUMP JUMPDEST SWAP2 POP PUSH2 0x5B28 DUP3 PUSH2 0x5AE9 JUMP JUMPDEST PUSH1 0x20 DUP3 ADD SWAP1 POP SWAP2 SWAP1 POP JUMP JUMPDEST PUSH0 PUSH1 0x20 DUP3 ADD SWAP1 POP DUP2 DUP2 SUB PUSH0 DUP4 ADD MSTORE PUSH2 0x5B4A DUP2 PUSH2 0x5B11 JUMP JUMPDEST SWAP1 POP SWAP2 SWAP1 POP JUMP JUMPDEST PUSH32 0x54686520766F74657220617272617920697320696E76616C6964000000000000 PUSH0 DUP3 ADD MSTORE POP JUMP JUMPDEST PUSH0 PUSH2 0x5B85 PUSH1 0x1A DUP4 PUSH2 0x4C0C JUMP JUMPDEST SWAP2 POP PUSH2 0x5B90 DUP3 PUSH2 0x5B51 JUMP JUMPDEST PUSH1 0x20 DUP3 ADD SWAP1 POP SWAP2 SWAP1 POP JUMP JUMPDEST PUSH0 PUSH1 0x20 DUP3 ADD SWAP1 POP DUP2 DUP2 SUB PUSH0 DUP4 ADD MSTORE PUSH2 0x5BB2 DUP2 PUSH2 0x5B79 JUMP JUMPDEST SWAP1 POP SWAP2 SWAP1 POP JUMP JUMPDEST PUSH32 0x4F6C6420766F746572732061726520696E76616C696400000000000000000000 PUSH0 DUP3 ADD MSTORE POP JUMP JUMPDEST PUSH0 PUSH2 0x5BED PUSH1 0x16 DUP4 PUSH2 0x4C0C JUMP JUMPDEST SWAP2 POP PUSH2 0x5BF8 DUP3 PUSH2 0x5BB9 JUMP JUMPDEST PUSH1 0x20 DUP3 ADD SWAP1 POP SWAP2 SWAP1 POP JUMP JUMPDEST PUSH0 PUSH1 0x20 DUP3 ADD SWAP1 POP DUP2 DUP2 SUB PUSH0 DUP4 ADD MSTORE PUSH2 0x5C1A DUP2 PUSH2 0x5BE1 JUMP JUMPDEST SWAP1 POP SWAP2 SWAP1 POP JUMP JUMPDEST PUSH32 0x4E657720766F7465727320617265206E6F742076616C69640000000000000000 PUSH0 DUP3 ADD MSTORE POP JUMP JUMPDEST PUSH0 PUSH2 0x5C55 PUSH1 0x18 DUP4 PUSH2 0x4C0C JUMP JUMPDEST SWAP2 POP PUSH2 0x5C60 DUP3 PUSH2 0x5C21 JUMP JUMPDEST PUSH1 0x20 DUP3 ADD SWAP1 POP SWAP2 SWAP1 POP JUMP JUMPDEST PUSH0 PUSH1 0x20 DUP3 ADD SWAP1 POP DUP2 DUP2 SUB PUSH0 DUP4 ADD MSTORE PUSH2 0x5C82 DUP2 PUSH2 0x5C49 JUMP JUMPDEST SWAP1 POP SWAP2 SWAP1 POP JUMP JUMPDEST PUSH32 0x4E657720766F7465727320726570656174000000000000000000000000000000 PUSH0 DUP3 ADD MSTORE POP JUMP JUMPDEST PUSH0 PUSH2 0x5CBD PUSH1 0x11 DUP4 PUSH2 0x4C0C JUMP JUMPDEST SWAP2 POP PUSH2 0x5CC8 DUP3 PUSH2 0x5C89 JUMP JUMPDEST PUSH1 0x20 DUP3 ADD SWAP1 POP SWAP2 SWAP1 POP JUMP JUMPDEST PUSH0 PUSH1 0x20 DUP3 ADD SWAP1 POP DUP2 DUP2 SUB PUSH0 DUP4 ADD MSTORE PUSH2 0x5CEA DUP2 PUSH2 0x5CB1 JUMP JUMPDEST SWAP1 POP SWAP2 SWAP1 POP JUMP JUMPDEST PUSH32 0x496E76616C6964206F722077686974656C697374656400000000000000000000 PUSH0 DUP3 ADD MSTORE POP JUMP JUMPDEST PUSH0 PUSH2 0x5D25 PUSH1 0x16 DUP4 PUSH2 0x4C0C JUMP JUMPDEST SWAP2 POP PUSH2 0x5D30 DUP3 PUSH2 0x5CF1 JUMP JUMPDEST PUSH1 0x20 DUP3 ADD SWAP1 POP SWAP2 SWAP1 POP JUMP JUMPDEST PUSH0 PUSH1 0x20 DUP3 ADD SWAP1 POP DUP2 DUP2 SUB PUSH0 DUP4 ADD MSTORE PUSH2 0x5D52 DUP2 PUSH2 0x5D19 JUMP JUMPDEST SWAP1 POP SWAP2 SWAP1 POP JUMP JUMPDEST PUSH32 0x4E6F74206F6E207468652077686974656C697374000000000000000000000000 PUSH0 DUP3 ADD MSTORE POP JUMP JUMPDEST PUSH0 PUSH2 0x5D8D PUSH1 0x14 DUP4 PUSH2 0x4C0C JUMP JUMPDEST SWAP2 POP PUSH2 0x5D98 DUP3 PUSH2 0x5D59 JUMP JUMPDEST PUSH1 0x20 DUP3 ADD SWAP1 POP SWAP2 SWAP1 POP JUMP JUMPDEST PUSH0 PUSH1 0x20 DUP3 ADD SWAP1 POP DUP2 DUP2 SUB PUSH0 DUP4 ADD MSTORE PUSH2 0x5DBA DUP2 PUSH2 0x5D81 JUMP JUMPDEST SWAP1 POP SWAP2 SWAP1 POP JUMP JUMPDEST PUSH32 0x496E76616C6964206F722066726F7A656E000000000000000000000000000000 PUSH0 DUP3 ADD MSTORE POP JUMP JUMPDEST PUSH0 PUSH2 0x5DF5 PUSH1 0x11 DUP4 PUSH2 0x4C0C JUMP JUMPDEST SWAP2 POP PUSH2 0x5E00 DUP3 PUSH2 0x5DC1 JUMP JUMPDEST PUSH1 0x20 DUP3 ADD SWAP1 POP SWAP2 SWAP1 POP JUMP JUMPDEST PUSH0 PUSH1 0x20 DUP3 ADD SWAP1 POP DUP2 DUP2 SUB PUSH0 DUP4 ADD MSTORE PUSH2 0x5E22 DUP2 PUSH2 0x5DE9 JUMP JUMPDEST SWAP1 POP SWAP2 SWAP1 POP JUMP JUMPDEST PUSH32 0x4E6F742066726F7A656E00000000000000000000000000000000000000000000 PUSH0 DUP3 ADD MSTORE POP JUMP JUMPDEST PUSH0 PUSH2 0x5E5D PUSH1 0xA DUP4 PUSH2 0x4C0C JUMP JUMPDEST SWAP2 POP PUSH2 0x5E68 DUP3 PUSH2 0x5E29 JUMP JUMPDEST PUSH1 0x20 DUP3 ADD SWAP1 POP SWAP2 SWAP1 POP JUMP JUMPDEST PUSH0 PUSH1 0x20 DUP3 ADD SWAP1 POP DUP2 DUP2 SUB PUSH0 DUP4 ADD MSTORE PUSH2 0x5E8A DUP2 PUSH2 0x5E51 JUMP JUMPDEST SWAP1 POP SWAP2 SWAP1 POP JUMP JUMPDEST PUSH32 0x496E76616C696420726563697069656E74730000000000000000000000000000 PUSH0 DUP3 ADD MSTORE POP JUMP JUMPDEST PUSH0 PUSH2 0x5EC5 PUSH1 0x12 DUP4 PUSH2 0x4C0C JUMP JUMPDEST SWAP2 POP PUSH2 0x5ED0 DUP3 PUSH2 0x5E91 JUMP JUMPDEST PUSH1 0x20 DUP3 ADD SWAP1 POP SWAP2 SWAP1 POP JUMP JUMPDEST PUSH0 PUSH1 0x20 DUP3 ADD SWAP1 POP DUP2 DUP2 SUB PUSH0 DUP4 ADD MSTORE PUSH2 0x5EF2 DUP2 PUSH2 0x5EB9 JUMP JUMPDEST SWAP1 POP SWAP2 SWAP1 POP JUMP JUMPDEST PUSH32 0x4E756D626572206F6620696E76616C6964206D696E7473000000000000000000 PUSH0 DUP3 ADD MSTORE POP JUMP JUMPDEST PUSH0 PUSH2 0x5F2D PUSH1 0x17 DUP4 PUSH2 0x4C0C JUMP JUMPDEST SWAP2 POP PUSH2 0x5F38 DUP3 PUSH2 0x5EF9 JUMP JUMPDEST PUSH1 0x20 DUP3 ADD SWAP1 POP SWAP2 SWAP1 POP JUMP JUMPDEST PUSH0 PUSH1 0x20 DUP3 ADD SWAP1 POP DUP2 DUP2 SUB PUSH0 DUP4 ADD MSTORE PUSH2 0x5F5A DUP2 PUSH2 0x5F21 JUMP JUMPDEST SWAP1 POP SWAP2 SWAP1 POP JUMP JUMPDEST PUSH0 DUP2 SWAP1 POP DUP2 PUSH0 MSTORE PUSH1 0x20 PUSH0 KECCAK256 SWAP1 POP SWAP2 SWAP1 POP JUMP JUMPDEST PUSH0 PUSH1 0x20 PUSH1 0x1F DUP4 ADD DIV SWAP1 POP SWAP2 SWAP1 POP JUMP JUMPDEST PUSH0 DUP3 DUP3 SHL SWAP1 POP SWAP3 SWAP2 POP POP JUMP JUMPDEST PUSH0 PUSH1 0x8 DUP4 MUL PUSH2 0x5FBD PUSH32 0xFFFFFFFFFFFFFFFFFFFFFFFFFFFFFFFFFFFFFFFFFFFFFFFFFFFFFFFFFFFFFFFF DUP3 PUSH2 0x5F82 JUMP JUMPDEST PUSH2 0x5FC7 DUP7 DUP4 PUSH2 0x5F82 JUMP JUMPDEST SWAP6 POP DUP1 NOT DUP5 AND SWAP4 POP DUP1 DUP7 AND DUP5 OR SWAP3 POP POP POP SWAP4 SWAP3 POP POP POP JUMP JUMPDEST PUSH0 DUP2 SWAP1 POP SWAP2 SWAP1 POP JUMP JUMPDEST PUSH0 PUSH2 0x6002 PUSH2 0x5FFD PUSH2 0x5FF8 DUP5 PUSH2 0x4AE3 JUMP JUMPDEST PUSH2 0x5FDF JUMP JUMPDEST PUSH2 0x4AE3 JUMP JUMPDEST SWAP1 POP SWAP2 SWAP1 POP JUMP JUMPDEST PUSH0 DUP2 SWAP1 POP SWAP2 SWAP1 POP JUMP JUMPDEST PUSH2 0x601B DUP4 PUSH2 0x5FE8 JUMP JUMPDEST PUSH2 0x602F PUSH2 0x6027 DUP3 PUSH2 0x6009 JUMP JUMPDEST DUP5 DUP5 SLOAD PUSH2 0x5F8E JUMP JUMPDEST DUP3 SSTORE POP POP POP POP JUMP JUMPDEST PUSH0 PUSH0 SWAP1 POP SWAP1 JUMP JUMPDEST PUSH2 0x6046 PUSH2 0x6037 JUMP JUMPDEST PUSH2 0x6051 DUP2 DUP5 DUP5 PUSH2 0x6012 JUMP JUMPDEST POP POP POP JUMP JUMPDEST JUMPDEST DUP2 DUP2 LT ISZERO PUSH2 0x6074 JUMPI PUSH2 0x6069 PUSH0 DUP3 PUSH2 0x603E JUMP JUMPDEST PUSH1 0x1 DUP2 ADD SWAP1 POP PUSH2 0x6057 JUMP JUMPDEST POP POP JUMP JUMPDEST PUSH1 0x1F DUP3 GT ISZERO PUSH2 0x60B9 JUMPI PUSH2 0x608A DUP2 PUSH2 0x5F61 JUMP JUMPDEST PUSH2 0x6093 DUP5 PUSH2 0x5F73 JUMP JUMPDEST DUP2 ADD PUSH1 0x20 DUP6 LT ISZERO PUSH2 0x60A2 JUMPI DUP2 SWAP1 POP JUMPDEST PUSH2 0x60B6 PUSH2 0x60AE DUP6 PUSH2 0x5F73 JUMP JUMPDEST DUP4 ADD DUP3 PUSH2 0x6056 JUMP JUMPDEST POP POP JUMPDEST POP POP POP JUMP JUMPDEST PUSH0 DUP3 DUP3 SHR SWAP1 POP SWAP3 SWAP2 POP POP JUMP JUMPDEST PUSH0 PUSH2 0x60D9 PUSH0 NOT DUP5 PUSH1 0x8 MUL PUSH2 0x60BE JUMP JUMPDEST NOT DUP1 DUP4 AND SWAP2 POP POP SWAP3 SWAP2 POP POP JUMP JUMPDEST PUSH0 PUSH2 0x60F1 DUP4 DUP4 PUSH2 0x60CA JUMP JUMPDEST SWAP2 POP DUP3 PUSH1 0x2 MUL DUP3 OR SWAP1 POP SWAP3 SWAP2 POP POP JUMP JUMPDEST PUSH2 0x610A DUP3 PUSH2 0x4C02 JUMP JUMPDEST PUSH8 0xFFFFFFFFFFFFFFFF DUP2 GT ISZERO PUSH2 0x6123 JUMPI PUSH2 0x6122 PUSH2 0x4D13 JUMP JUMPDEST JUMPDEST PUSH2 0x612D DUP3 SLOAD PUSH2 0x5555 JUMP JUMPDEST PUSH2 0x6138 DUP3 DUP3 DUP6 PUSH2 0x6078 JUMP JUMPDEST PUSH0 PUSH1 0x20 SWAP1 POP PUSH1 0x1F DUP4 GT PUSH1 0x1 DUP2 EQ PUSH2 0x6169 JUMPI PUSH0 DUP5 ISZERO PUSH2 0x6157 JUMPI DUP3 DUP8 ADD MLOAD SWAP1 POP JUMPDEST PUSH2 0x6161 DUP6 DUP3 PUSH2 0x60E6 JUMP JUMPDEST DUP7 SSTORE POP PUSH2 0x61C8 JUMP JUMPDEST PUSH1 0x1F NOT DUP5 AND PUSH2 0x6177 DUP7 PUSH2 0x5F61 JUMP JUMPDEST PUSH0 JUMPDEST DUP3 DUP2 LT ISZERO PUSH2 0x619E JUMPI DUP5 DUP10 ADD MLOAD DUP3 SSTORE PUSH1 0x1 DUP3 ADD SWAP2 POP PUSH1 0x20 DUP6 ADD SWAP5 POP PUSH1 0x20 DUP2 ADD SWAP1 POP PUSH2 0x6179 JUMP JUMPDEST DUP7 DUP4 LT ISZERO PUSH2 0x61BB JUMPI DUP5 DUP10 ADD MLOAD PUSH2 0x61B7 PUSH1 0x1F DUP10 AND DUP3 PUSH2 0x60CA JUMP JUMPDEST DUP4 SSTORE POP JUMPDEST PUSH1 0x1 PUSH1 0x2 DUP9 MUL ADD DUP9 SSTORE POP POP POP JUMPDEST POP POP POP POP POP POP JUMP JUMPDEST PUSH0 PUSH1 0x40 DUP3 ADD SWAP1 POP PUSH2 0x61E3 PUSH0 DUP4 ADD DUP6 PUSH2 0x4BA5 JUMP JUMPDEST PUSH2 0x61F0 PUSH1 0x20 DUP4 ADD DUP5 PUSH2 0x4BE4 JUMP JUMPDEST SWAP4 SWAP3 POP POP POP JUMP JUMPDEST PUSH32 0x50726F706F73616C20657865637574696F6E2074696D65206E6F742072656163 PUSH0 DUP3 ADD MSTORE PUSH32 0x6865640000000000000000000000000000000000000000000000000000000000 PUSH1 0x20 DUP3 ADD MSTORE POP JUMP JUMPDEST PUSH0 PUSH2 0x6251 PUSH1 0x23 DUP4 PUSH2 0x4C0C JUMP JUMPDEST SWAP2 POP PUSH2 0x625C DUP3 PUSH2 0x61F7 JUMP JUMPDEST PUSH1 0x40 DUP3 ADD SWAP1 POP SWAP2 SWAP1 POP JUMP JUMPDEST PUSH0 PUSH1 0x20 DUP3 ADD SWAP1 POP DUP2 DUP2 SUB PUSH0 DUP4 ADD MSTORE PUSH2 0x627E DUP2 PUSH2 0x6245 JUMP JUMPDEST SWAP1 POP SWAP2 SWAP1 POP JUMP JUMPDEST PUSH32 0x546865726520617265206E6F7420656E6F75676820766F746573000000000000 PUSH0 DUP3 ADD MSTORE POP JUMP JUMPDEST PUSH0 PUSH2 0x62B9 PUSH1 0x1A DUP4 PUSH2 0x4C0C JUMP JUMPDEST SWAP2 POP PUSH2 0x62C4 DUP3 PUSH2 0x6285 JUMP JUMPDEST PUSH1 0x20 DUP3 ADD SWAP1 POP SWAP2 SWAP1 POP JUMP JUMPDEST PUSH0 PUSH1 0x20 DUP3 ADD SWAP1 POP DUP2 DUP2 SUB PUSH0 DUP4 ADD MSTORE PUSH2 0x62E6 DUP2 PUSH2 0x62AD JUMP JUMPDEST SWAP1 POP SWAP2 SWAP1 POP JUMP JUMPDEST PUSH0 DUP2 SLOAD PUSH2 0x62F9 DUP2 PUSH2 0x5555 JUMP JUMPDEST PUSH2 0x6303 DUP2 DUP7 PUSH2 0x4C0C JUMP JUMPDEST SWAP5 POP PUSH1 0x1 DUP3 AND PUSH0 DUP2 EQ PUSH2 0x631D JUMPI PUSH1 0x1 DUP2 EQ PUSH2 0x6333 JUMPI PUSH2 0x6365 JUMP JUMPDEST PUSH1 0xFF NOT DUP4 AND DUP7 MSTORE DUP2 ISZERO ISZERO PUSH1 0x20 MUL DUP7 ADD SWAP4 POP PUSH2 0x6365 JUMP JUMPDEST PUSH2 0x633C DUP6 PUSH2 0x5F61 JUMP JUMPDEST PUSH0 JUMPDEST DUP4 DUP2 LT ISZERO PUSH2 0x635D JUMPI DUP2 SLOAD DUP2 DUP10 ADD MSTORE PUSH1 0x1 DUP3 ADD SWAP2 POP PUSH1 0x20 DUP2 ADD SWAP1 POP PUSH2 0x633E JUMP JUMPDEST DUP1 DUP9 ADD SWAP6 POP POP POP JUMPDEST POP POP POP SWAP3 SWAP2 POP POP JUMP JUMPDEST PUSH0 PUSH1 0x20 DUP3 ADD SWAP1 POP DUP2 DUP2 SUB PUSH0 DUP4 ADD MSTORE PUSH2 0x6386 DUP2 DUP5 PUSH2 0x62ED JUMP JUMPDEST SWAP1 POP SWAP3 SWAP2 POP POP JUMP JUMPDEST PUSH0 DUP2 SLOAD SWAP1 POP SWAP2 SWAP1 POP JUMP JUMPDEST PUSH0 DUP3 DUP3 MSTORE PUSH1 0x20 DUP3 ADD SWAP1 POP SWAP3 SWAP2 POP POP JUMP JUMPDEST PUSH0 DUP2 SWAP1 POP DUP2 PUSH0 MSTORE PUSH1 0x20 PUSH0 KECCAK256 SWAP1 POP SWAP2 SWAP1 POP JUMP JUMPDEST PUSH2 0x63C3 DUP2 PUSH2 0x4BD3 JUMP JUMPDEST DUP3 MSTORE POP POP JUMP JUMPDEST PUSH0 PUSH2 0x63D4 DUP4 DUP4 PUSH2 0x63BA JUMP JUMPDEST PUSH1 0x20 DUP4 ADD SWAP1 POP SWAP3 SWAP2 POP POP JUMP JUMPDEST PUSH0 DUP2 PUSH0 SHR SWAP1 POP SWAP2 SWAP1 POP JUMP JUMPDEST PUSH0 PUSH20 0xFFFFFFFFFFFFFFFFFFFFFFFFFFFFFFFFFFFFFFFF DUP3 AND SWAP1 POP SWAP2 SWAP1 POP JUMP JUMPDEST PUSH0 PUSH2 0x641C PUSH2 0x6417 DUP4 PUSH2 0x63E0 JUMP JUMPDEST PUSH2 0x63EB JUMP JUMPDEST SWAP1 POP SWAP2 SWAP1 POP JUMP JUMPDEST PUSH0 PUSH2 0x642E DUP3 SLOAD PUSH2 0x640A JUMP JUMPDEST SWAP1 POP SWAP2 SWAP1 POP JUMP JUMPDEST PUSH0 PUSH1 0x1 DUP3 ADD SWAP1 POP SWAP2 SWAP1 POP JUMP JUMPDEST PUSH0 PUSH2 0x644B DUP3 PUSH2 0x638E JUMP JUMPDEST PUSH2 0x6455 DUP2 DUP6 PUSH2 0x6398 JUMP JUMPDEST SWAP4 POP PUSH2 0x6460 DUP4 PUSH2 0x63A8 JUMP JUMPDEST DUP1 PUSH0 JUMPDEST DUP4 DUP2 LT ISZERO PUSH2 0x6497 JUMPI PUSH2 0x6474 DUP3 PUSH2 0x6423 JUMP JUMPDEST PUSH2 0x647E DUP9 DUP3 PUSH2 0x63C9 JUMP JUMPDEST SWAP8 POP PUSH2 0x6489 DUP4 PUSH2 0x6435 JUMP JUMPDEST SWAP3 POP POP PUSH1 0x1 DUP2 ADD SWAP1 POP PUSH2 0x6463 JUMP JUMPDEST POP DUP6 SWAP4 POP POP POP POP SWAP3 SWAP2 POP POP JUMP JUMPDEST PUSH0 PUSH1 0x40 DUP3 ADD SWAP1 POP DUP2 DUP2 SUB PUSH0 DUP4 ADD MSTORE PUSH2 0x64BC DUP2 DUP6 PUSH2 0x6441 JUMP JUMPDEST SWAP1 POP DUP2 DUP2 SUB PUSH1 0x20 DUP4 ADD MSTORE PUSH2 0x64D0 DUP2 DUP5 PUSH2 0x6441 JUMP JUMPDEST SWAP1 POP SWAP4 SWAP3 POP POP POP JUMP JUMPDEST PUSH0 PUSH1 0x40 DUP3 ADD SWAP1 POP PUSH2 0x64EC PUSH0 DUP4 ADD DUP6 PUSH2 0x4BE4 JUMP JUMPDEST PUSH2 0x64F9 PUSH1 0x20 DUP4 ADD DUP5 PUSH2 0x4C7D JUMP JUMPDEST SWAP4 SWAP3 POP POP POP JUMP JUMPDEST PUSH0 PUSH1 0x40 DUP3 ADD SWAP1 POP PUSH2 0x6513 PUSH0 DUP4 ADD DUP6 PUSH2 0x4BE4 JUMP JUMPDEST PUSH2 0x6520 PUSH1 0x20 DUP4 ADD DUP5 PUSH2 0x4BF3 JUMP JUMPDEST SWAP4 SWAP3 POP POP POP JUMP JUMPDEST PUSH0 PUSH1 0x20 DUP3 ADD SWAP1 POP PUSH2 0x653A PUSH0 DUP4 ADD DUP5 PUSH2 0x4BA5 JUMP JUMPDEST SWAP3 SWAP2 POP POP JUMP JUMPDEST PUSH32 0x5468652064657374696E6174696F6E2061646472657373206973206E6F742069 PUSH0 DUP3 ADD MSTORE PUSH32 0x6E207468652077686974656C6973740000000000000000000000000000000000 PUSH1 0x20 DUP3 ADD MSTORE POP JUMP JUMPDEST PUSH0 PUSH2 0x659A PUSH1 0x2F DUP4 PUSH2 0x4C0C JUMP JUMPDEST SWAP2 POP PUSH2 0x65A5 DUP3 PUSH2 0x6540 JUMP JUMPDEST PUSH1 0x40 DUP3 ADD SWAP1 POP SWAP2 SWAP1 POP JUMP JUMPDEST PUSH0 PUSH1 0x20 DUP3 ADD SWAP1 POP DUP2 DUP2 SUB PUSH0 DUP4 ADD MSTORE PUSH2 0x65C7 DUP2 PUSH2 0x658E JUMP JUMPDEST SWAP1 POP SWAP2 SWAP1 POP JUMP JUMPDEST PUSH32 0x54686520696E707574207175616E74697479206D757374206265206772656174 PUSH0 DUP3 ADD MSTORE PUSH32 0x6572207468616E207A65726F0000000000000000000000000000000000000000 PUSH1 0x20 DUP3 ADD MSTORE POP JUMP JUMPDEST PUSH0 PUSH2 0x6628 PUSH1 0x2C DUP4 PUSH2 0x4C0C JUMP JUMPDEST SWAP2 POP PUSH2 0x6633 DUP3 PUSH2 0x65CE JUMP JUMPDEST PUSH1 0x40 DUP3 ADD SWAP1 POP SWAP2 SWAP1 POP JUMP JUMPDEST PUSH0 PUSH1 0x20 DUP3 ADD SWAP1 POP DUP2 DUP2 SUB PUSH0 DUP4 ADD MSTORE PUSH2 0x6655 DUP2 PUSH2 0x661C JUMP JUMPDEST SWAP1 POP SWAP2 SWAP1 POP JUMP JUMPDEST PUSH32 0x434320546865207175616E7469747920697320746F6F20736D616C6C00000000 PUSH0 DUP3 ADD MSTORE POP JUMP JUMPDEST PUSH0 PUSH2 0x6690 PUSH1 0x1C DUP4 PUSH2 0x4C0C JUMP JUMPDEST SWAP2 POP PUSH2 0x669B DUP3 PUSH2 0x665C JUMP JUMPDEST PUSH1 0x20 DUP3 ADD SWAP1 POP SWAP2 SWAP1 POP JUMP JUMPDEST PUSH0 PUSH1 0x20 DUP3 ADD SWAP1 POP DUP2 DUP2 SUB PUSH0 DUP4 ADD MSTORE PUSH2 0x66BD DUP2 PUSH2 0x6684 JUMP JUMPDEST SWAP1 POP SWAP2 SWAP1 POP JUMP JUMPDEST PUSH32 0x457863656564732074686520746F74616C20737570706C790000000000000000 PUSH0 DUP3 ADD MSTORE POP JUMP JUMPDEST PUSH0 PUSH2 0x66F8 PUSH1 0x18 DUP4 PUSH2 0x4C0C JUMP JUMPDEST SWAP2 POP PUSH2 0x6703 DUP3 PUSH2 0x66C4 JUMP JUMPDEST PUSH1 0x20 DUP3 ADD SWAP1 POP SWAP2 SWAP1 POP JUMP JUMPDEST PUSH0 PUSH1 0x20 DUP3 ADD SWAP1 POP DUP2 DUP2 SUB PUSH0 DUP4 ADD MSTORE PUSH2 0x6725 DUP2 PUSH2 0x66EC JUMP JUMPDEST SWAP1 POP SWAP2 SWAP1 POP JUMP JUMPDEST PUSH0 PUSH1 0x40 DUP3 ADD SWAP1 POP PUSH2 0x673F PUSH0 DUP4 ADD DUP6 PUSH2 0x4BF3 JUMP JUMPDEST PUSH2 0x674C PUSH1 0x20 DUP4 ADD DUP5 PUSH2 0x4BF3 JUMP JUMPDEST SWAP4 SWAP3 POP POP POP JUMP JUMPDEST PUSH32 0x5468652073656E6465722069732066726F7A656E000000000000000000000000 PUSH0 DUP3 ADD MSTORE POP JUMP JUMPDEST PUSH0 PUSH2 0x6787 PUSH1 0x14 DUP4 PUSH2 0x4C0C JUMP JUMPDEST SWAP2 POP PUSH2 0x6792 DUP3 PUSH2 0x6753 JUMP JUMPDEST PUSH1 0x20 DUP3 ADD SWAP1 POP SWAP2 SWAP1 POP JUMP JUMPDEST PUSH0 PUSH1 0x20 DUP3 ADD SWAP1 POP DUP2 DUP2 SUB PUSH0 DUP4 ADD MSTORE PUSH2 0x67B4 DUP2 PUSH2 0x677B JUMP JUMPDEST SWAP1 POP SWAP2 SWAP1 POP JUMP JUMPDEST PUSH32 0x546865207175616E74697479206D75737420626520616E20696E746567657200 PUSH0 DUP3 ADD MSTORE POP JUMP JUMPDEST PUSH0 PUSH2 0x67EF PUSH1 0x1F DUP4 PUSH2 0x4C0C JUMP JUMPDEST SWAP2 POP PUSH2 0x67FA DUP3 PUSH2 0x67BB JUMP JUMPDEST PUSH1 0x20 DUP3 ADD SWAP1 POP SWAP2 SWAP1 POP JUMP JUMPDEST PUSH0 PUSH1 0x20 DUP3 ADD SWAP1 POP DUP2 DUP2 SUB PUSH0 DUP4 ADD MSTORE PUSH2 0x681C DUP2 PUSH2 0x67E3 JUMP JUMPDEST SWAP1 POP SWAP2 SWAP1 POP JUMP JUMPDEST PUSH32 0x54686520646973747269627574696F6E20696E74657276616C20686173206E6F PUSH0 DUP3 ADD MSTORE PUSH32 0x74206265656E2072656163686564000000000000000000000000000000000000 PUSH1 0x20 DUP3 ADD MSTORE POP JUMP JUMPDEST PUSH0 PUSH2 0x687D PUSH1 0x2E DUP4 PUSH2 0x4C0C JUMP JUMPDEST SWAP2 POP PUSH2 0x6888 DUP3 PUSH2 0x6823 JUMP JUMPDEST PUSH1 0x40 DUP3 ADD SWAP1 POP SWAP2 SWAP1 POP JUMP JUMPDEST PUSH0 PUSH1 0x20 DUP3 ADD SWAP1 POP DUP2 DUP2 SUB PUSH0 DUP4 ADD MSTORE PUSH2 0x68AA DUP2 PUSH2 0x6871 JUMP JUMPDEST SWAP1 POP SWAP2 SWAP1 POP JUMP JUMPDEST PUSH32 0x4175746F206261746368206D696E7420696E74657276616C206E6F7420726561 PUSH0 DUP3 ADD MSTORE PUSH32 0x6368656400000000000000000000000000000000000000000000000000000000 PUSH1 0x20 DUP3 ADD MSTORE POP JUMP JUMPDEST PUSH0 PUSH2 0x690B PUSH1 0x24 DUP4 PUSH2 0x4C0C JUMP JUMPDEST SWAP2 POP PUSH2 0x6916 DUP3 PUSH2 0x68B1 JUMP JUMPDEST PUSH1 0x40 DUP3 ADD SWAP1 POP SWAP2 SWAP1 POP JUMP JUMPDEST PUSH0 PUSH1 0x20 DUP3 ADD SWAP1 POP DUP2 DUP2 SUB PUSH0 DUP4 ADD MSTORE PUSH2 0x6938 DUP2 PUSH2 0x68FF JUMP JUMPDEST SWAP1 POP SWAP2 SWAP1 POP JUMP JUMPDEST PUSH0 PUSH2 0x6949 DUP3 PUSH2 0x4AE3 JUMP JUMPDEST SWAP2 POP PUSH2 0x6954 DUP4 PUSH2 0x4AE3 JUMP JUMPDEST SWAP3 POP DUP3 DUP3 SUB SWAP1 POP DUP2 DUP2 GT ISZERO PUSH2 0x696C JUMPI PUSH2 0x696B PUSH2 0x544C JUMP JUMPDEST JUMPDEST SWAP3 SWAP2 POP POP JUMP JUMPDEST PUSH32 0x4F6E6C792074686520696E69746961746F722063616E2063616E63656C000000 PUSH0 DUP3 ADD MSTORE POP JUMP JUMPDEST PUSH0 PUSH2 0x69A6 PUSH1 0x1D DUP4 PUSH2 0x4C0C JUMP JUMPDEST SWAP2 POP PUSH2 0x69B1 DUP3 PUSH2 0x6972 JUMP JUMPDEST PUSH1 0x20 DUP3 ADD SWAP1 POP SWAP2 SWAP1 POP JUMP JUMPDEST PUSH0 PUSH1 0x20 DUP3 ADD SWAP1 POP DUP2 DUP2 SUB PUSH0 DUP4 ADD MSTORE PUSH2 0x69D3 DUP2 PUSH2 0x699A JUMP JUMPDEST SWAP1 POP SWAP2 SWAP1 POP JUMP JUMPDEST PUSH32 0x4F6E6C79206E616D652C20737570706C792C206F7220766F7465722070726F70 PUSH0 DUP3 ADD MSTORE PUSH32 0x6F73616C732063616E2062652063616E63656C65640000000000000000000000 PUSH1 0x20 DUP3 ADD MSTORE POP JUMP JUMPDEST PUSH0 PUSH2 0x6A34 PUSH1 0x35 DUP4 PUSH2 0x4C0C JUMP JUMPDEST SWAP2 POP PUSH2 0x6A3F DUP3 PUSH2 0x69DA JUMP JUMPDEST PUSH1 0x40 DUP3 ADD SWAP1 POP SWAP2 SWAP1 POP JUMP JUMPDEST PUSH0 PUSH1 0x20 DUP3 ADD SWAP1 POP DUP2 DUP2 SUB PUSH0 DUP4 ADD MSTORE PUSH2 0x6A61 DUP2 PUSH2 0x6A28 JUMP JUMPDEST SWAP1 POP SWAP2 SWAP1 POP JUMP JUMPDEST PUSH32 0x5468652070726F706F73616C20776173206E6F7420617070726F766564000000 PUSH0 DUP3 ADD MSTORE POP JUMP JUMPDEST PUSH0 PUSH2 0x6A9C PUSH1 0x1D DUP4 PUSH2 0x4C0C JUMP JUMPDEST SWAP2 POP PUSH2 0x6AA7 DUP3 PUSH2 0x6A68 JUMP JUMPDEST PUSH1 0x20 DUP3 ADD SWAP1 POP SWAP2 SWAP1 POP JUMP JUMPDEST PUSH0 PUSH1 0x20 DUP3 ADD SWAP1 POP DUP2 DUP2 SUB PUSH0 DUP4 ADD MSTORE PUSH2 0x6AC9 DUP2 PUSH2 0x6A90 JUMP JUMPDEST SWAP1 POP SWAP2 SWAP1 POP JUMP JUMPDEST PUSH32 0x5468652063616E63656C6C6174696F6E2077696E646F7720697320636C6F7365 PUSH0 DUP3 ADD MSTORE PUSH32 0x6400000000000000000000000000000000000000000000000000000000000000 PUSH1 0x20 DUP3 ADD MSTORE POP JUMP JUMPDEST PUSH0 PUSH2 0x6B2A PUSH1 0x21 DUP4 PUSH2 0x4C0C JUMP JUMPDEST SWAP2 POP PUSH2 0x6B35 DUP3 PUSH2 0x6AD0 JUMP JUMPDEST PUSH1 0x40 DUP3 ADD SWAP1 POP SWAP2 SWAP1 POP JUMP JUMPDEST PUSH0 PUSH1 0x20 DUP3 ADD SWAP1 POP DUP2 DUP2 SUB PUSH0 DUP4 ADD MSTORE PUSH2 0x6B57 DUP2 PUSH2 0x6B1E JUMP JUMPDEST SWAP1 POP SWAP2 SWAP1 POP JUMP JUMPDEST PUSH2 0x6B67 DUP2 PUSH2 0x4BB4 JUMP JUMPDEST DUP2 EQ PUSH2 0x6B71 JUMPI PUSH0 PUSH0 REVERT JUMPDEST POP JUMP JUMPDEST PUSH0 DUP2 MLOAD SWAP1 POP PUSH2 0x6B82 DUP2 PUSH2 0x6B5E JUMP JUMPDEST SWAP3 SWAP2 POP POP JUMP JUMPDEST PUSH0 DUP2 PUSH1 0x2 SIGNEXTEND SWAP1 POP SWAP2 SWAP1 POP JUMP JUMPDEST PUSH2 0x6B9D DUP2 PUSH2 0x6B88 JUMP JUMPDEST DUP2 EQ PUSH2 0x6BA7 JUMPI PUSH0 PUSH0 REVERT JUMPDEST POP JUMP JUMPDEST PUSH0 DUP2 MLOAD SWAP1 POP PUSH2 0x6BB8 DUP2 PUSH2 0x6B94 JUMP JUMPDEST SWAP3 SWAP2 POP POP JUMP JUMPDEST PUSH0 PUSH2 0xFFFF DUP3 AND SWAP1 POP SWAP2 SWAP1 POP JUMP JUMPDEST PUSH2 0x6BD4 DUP2 PUSH2 0x6BBE JUMP JUMPDEST DUP2 EQ PUSH2 0x6BDE JUMPI PUSH0 PUSH0 REVERT JUMPDEST POP JUMP JUMPDEST PUSH0 DUP2 MLOAD SWAP1 POP PUSH2 0x6BEF DUP2 PUSH2 0x6BCB JUMP JUMPDEST SWAP3 SWAP2 POP POP JUMP JUMPDEST PUSH2 0x6BFE DUP2 PUSH2 0x51D2 JUMP JUMPDEST DUP2 EQ PUSH2 0x6C08 JUMPI PUSH0 PUSH0 REVERT JUMPDEST POP JUMP JUMPDEST PUSH0 DUP2 MLOAD SWAP1 POP PUSH2 0x6C19 DUP2 PUSH2 0x6BF5 JUMP JUMPDEST SWAP3 SWAP2 POP POP JUMP JUMPDEST PUSH2 0x6C28 DUP2 PUSH2 0x4C72 JUMP JUMPDEST DUP2 EQ PUSH2 0x6C32 JUMPI PUSH0 PUSH0 REVERT JUMPDEST POP JUMP JUMPDEST PUSH0 DUP2 MLOAD SWAP1 POP PUSH2 0x6C43 DUP2 PUSH2 0x6C1F JUMP JUMPDEST SWAP3 SWAP2 POP POP JUMP JUMPDEST PUSH0 PUSH0 PUSH0 PUSH0 PUSH0 PUSH0 PUSH0 PUSH1 0xE0 DUP9 DUP11 SUB SLT ISZERO PUSH2 0x6C64 JUMPI PUSH2 0x6C63 PUSH2 0x4ADB JUMP JUMPDEST JUMPDEST PUSH0 PUSH2 0x6C71 DUP11 DUP3 DUP12 ADD PUSH2 0x6B74 JUMP JUMPDEST SWAP8 POP POP PUSH1 0x20 PUSH2 0x6C82 DUP11 DUP3 DUP12 ADD PUSH2 0x6BAA JUMP JUMPDEST SWAP7 POP POP PUSH1 0x40 PUSH2 0x6C93 DUP11 DUP3 DUP12 ADD PUSH2 0x6BE1 JUMP JUMPDEST SWAP6 POP POP PUSH1 0x60 PUSH2 0x6CA4 DUP11 DUP3 DUP12 ADD PUSH2 0x6BE1 JUMP JUMPDEST SWAP5 POP POP PUSH1 0x80 PUSH2 0x6CB5 DUP11 DUP3 DUP12 ADD PUSH2 0x6BE1 JUMP JUMPDEST SWAP4 POP POP PUSH1 0xA0 PUSH2 0x6CC6 DUP11 DUP3 DUP12 ADD PUSH2 0x6C0B JUMP JUMPDEST SWAP3 POP POP PUSH1 0xC0 PUSH2 0x6CD7 DUP11 DUP3 DUP12 ADD PUSH2 0x6C35 JUMP JUMPDEST SWAP2 POP POP SWAP3 SWAP6 SWAP9 SWAP2 SWAP5 SWAP8 POP SWAP3 SWAP6 POP JUMP JUMPDEST PUSH32 0x4E487B7100000000000000000000000000000000000000000000000000000000 PUSH0 MSTORE PUSH1 0x12 PUSH1 0x4 MSTORE PUSH1 0x24 PUSH0 REVERT JUMPDEST PUSH0 PUSH2 0x6D1D DUP3 PUSH2 0x4AE3 JUMP JUMPDEST SWAP2 POP PUSH2 0x6D28 DUP4 PUSH2 0x4AE3 JUMP JUMPDEST SWAP3 POP DUP3 PUSH2 0x6D38 JUMPI PUSH2 0x6D37 PUSH2 0x6CE6 JUMP JUMPDEST JUMPDEST DUP3 DUP3 DIV SWAP1 POP SWAP3 SWAP2 POP POP JUMP JUMPDEST PUSH32 0x5265656E7472616E637947756172643A207265656E7472616E742063616C6C00 PUSH0 DUP3 ADD MSTORE POP JUMP JUMPDEST PUSH0 PUSH2 0x6D77 PUSH1 0x1F DUP4 PUSH2 0x4C0C JUMP JUMPDEST SWAP2 POP PUSH2 0x6D82 DUP3 PUSH2 0x6D43 JUMP JUMPDEST PUSH1 0x20 DUP3 ADD SWAP1 POP SWAP2 SWAP1 POP JUMP JUMPDEST PUSH0 PUSH1 0x20 DUP3 ADD SWAP1 POP DUP2 DUP2 SUB PUSH0 DUP4 ADD MSTORE PUSH2 0x6DA4 DUP2 PUSH2 0x6D6B JUMP JUMPDEST SWAP1 POP SWAP2 SWAP1 POP JUMP JUMPDEST PUSH0 PUSH1 0x60 DUP3 ADD SWAP1 POP PUSH2 0x6DBE PUSH0 DUP4 ADD DUP7 PUSH2 0x4BE4 JUMP JUMPDEST PUSH2 0x6DCB PUSH1 0x20 DUP4 ADD DUP6 PUSH2 0x4BF3 JUMP JUMPDEST PUSH2 0x6DD8 PUSH1 0x40 DUP4 ADD DUP5 PUSH2 0x4BF3 JUMP JUMPDEST SWAP5 SWAP4 POP POP POP POP JUMP INVALID LOG2 PUSH5 0x6970667358 0x22 SLT KECCAK256 MUL CALL 0xC7 MSIZE DUPN 0x65 0xD2 DUP14 PUSH1 0xC5 0xE9 0x4D 0xE PUSH3 0x5E848B 0xF6 DUP3 MLOAD JUMPDEST PUSH0 0xB7 0xF 0xCB 0xFC PUSH4 0xD6461D0F 0xD3 PUSH5 0x736F6C6343 STOP ADDMOD 0x1E STOP CALLER "
		},
		"gasEstimates": {
			"creation": {
				"codeDepositCost": "5636400",
				"executionCost": "infinite",
				"totalCost": "infinite"
			},
			"external": {
				"AUTO_BATCH_MINT_INTERVAL()": "416",
				"BATCH_MINT_AMOUNT()": "458",
				"DISTRIBUTION_AMOUNT()": "457",
				"DISTRIBUTION_INTERVAL()": "416",
				"EXCHANGE_RATE()": "415",
				"MIN_VOTES_FOR_MINT()": "413",
				"MIN_VOTES_FOR_USER_ACTIONS()": "393",
				"TOTAL_SUPPLY()": "2537",
				"TOTAL_VOTES_REQUIRED()": "415",
				"allowance(address,address)": "infinite",
				"approve(address,uint256)": "infinite",
				"autoBatchMintToWhitelist(address[])": "infinite",
				"balanceOf(address)": "2939",
				"balanceOfUser(address)": "2983",
				"cancelProposal(uint256)": "infinite",
				"compliance()": "446",
				"contractPaused()": "2585",
				"decimals()": "449",
				"distributeToWhitelist()": "infinite",
				"exchange(uint256,address)": "infinite",
				"executeProposal(uint256)": "infinite",
				"frozen(address)": "2900",
				"getCurrentPrice()": "infinite",
				"getFrozenTokens(address)": "752",
				"hasVoted(uint256,address)": "3204",
				"identityRegistry()": "447",
				"isFrozen(address)": "2959",
				"lastAutoBatchMintTimestamp()": "2514",
				"lastDistributionTimestamp()": "2494",
				"manualBatchMintToWhitelist(address[])": "infinite",
				"mintedAmount()": "2538",
				"name()": "infinite",
				"onchainID()": "446",
				"owner()": "2605",
				"pauseContract()": "29750",
				"pauseVoting()": "infinite",
				"paused()": "2636",
				"proposalCount()": "2536",
				"proposals(uint256)": "infinite",
				"propose(uint8,address,uint256,string,address[],address[])": "infinite",
				"remainingSupply()": "infinite",
				"renounceOwnership()": "infinite",
				"resumeContract()": "27565",
				"resumeVoting()": "infinite",
				"symbol()": "infinite",
				"tokenName()": "infinite",
				"totalSupply()": "2566",
				"transfer(address,uint256)": "infinite",
				"transferFrom(address,address,uint256)": "infinite",
				"transferOwnership(address)": "infinite",
				"uniswapPool()": "2576",
				"version()": "infinite",
				"vote(uint256)": "infinite",
				"voters(address)": "2923",
				"votingPaused()": "2577",
				"whitelist(address)": "2901"
			},
			"internal": {
				"_setName(string memory)": "infinite",
				"resetVotes(uint256)": "infinite"
			}
		},
		"methodIdentifiers": {
			"AUTO_BATCH_MINT_INTERVAL()": "7c224d64",
			"BATCH_MINT_AMOUNT()": "b5fc35ce",
			"DISTRIBUTION_AMOUNT()": "ff8f164f",
			"DISTRIBUTION_INTERVAL()": "08b26b75",
			"EXCHANGE_RATE()": "14a8bd0d",
			"MIN_VOTES_FOR_MINT()": "f36e32cc",
			"MIN_VOTES_FOR_USER_ACTIONS()": "2de56555",
			"TOTAL_SUPPLY()": "902d55a5",
			"TOTAL_VOTES_REQUIRED()": "302c464a",
			"allowance(address,address)": "dd62ed3e",
			"approve(address,uint256)": "095ea7b3",
			"autoBatchMintToWhitelist(address[])": "cb7a11c2",
			"balanceOf(address)": "70a08231",
			"balanceOfUser(address)": "12cae7af",
			"cancelProposal(uint256)": "e0a8f6f5",
			"compliance()": "6290865d",
			"contractPaused()": "8a67456a",
			"decimals()": "313ce567",
			"distributeToWhitelist()": "80e79a36",
			"exchange(uint256,address)": "0fe2abcf",
			"executeProposal(uint256)": "0d61b519",
			"frozen(address)": "d0516650",
			"getCurrentPrice()": "eb91d37e",
			"getFrozenTokens(address)": "158b1a57",
			"hasVoted(uint256,address)": "43859632",
			"identityRegistry()": "134e18f4",
			"isFrozen(address)": "e5839836",
			"lastAutoBatchMintTimestamp()": "aca9f472",
			"lastDistributionTimestamp()": "20950933",
			"manualBatchMintToWhitelist(address[])": "051069e3",
			"mintedAmount()": "2d380242",
			"name()": "06fdde03",
			"onchainID()": "aba63705",
			"owner()": "8da5cb5b",
			"pauseContract()": "439766ce",
			"pauseVoting()": "f3cdcd1e",
			"paused()": "5c975abb",
			"proposalCount()": "da35c664",
			"proposals(uint256)": "013cf08b",
			"propose(uint8,address,uint256,string,address[],address[])": "0d4efa4f",
			"remainingSupply()": "da0239a6",
			"renounceOwnership()": "715018a6",
			"resumeContract()": "c4bc5da5",
			"resumeVoting()": "7afdf93e",
			"symbol()": "95d89b41",
			"tokenName()": "6c02a931",
			"totalSupply()": "18160ddd",
			"transfer(address,uint256)": "a9059cbb",
			"transferFrom(address,address,uint256)": "23b872dd",
			"transferOwnership(address)": "f2fde38b",
			"uniswapPool()": "bdd3d825",
			"version()": "54fd4d50",
			"vote(uint256)": "0121b93f",
			"voters(address)": "a3ec138d",
			"votingPaused()": "ae66c9ea",
			"whitelist(address)": "9b19251a"
		}
	},
	"abi": [
		{
			"inputs": [
				{
					"internalType": "string",
					"name": "initialName",
					"type": "string"
				},
				{
					"internalType": "address[]",
					"name": "_whitelist",
					"type": "address[]"
				},
				{
					"internalType": "address[]",
					"name": "_voters",
					"type": "address[]"
				}
			],
			"stateMutability": "nonpayable",
			"type": "constructor"
		},
		{
			"inputs": [
				{
					"internalType": "address",
					"name": "spender",
					"type": "address"
				},
				{
					"internalType": "uint256",
					"name": "allowance",
					"type": "uint256"
				},
				{
					"internalType": "uint256",
					"name": "needed",
					"type": "uint256"
				}
			],
			"name": "ERC20InsufficientAllowance",
			"type": "error"
		},
		{
			"inputs": [
				{
					"internalType": "address",
					"name": "sender",
					"type": "address"
				},
				{
					"internalType": "uint256",
					"name": "balance",
					"type": "uint256"
				},
				{
					"internalType": "uint256",
					"name": "needed",
					"type": "uint256"
				}
			],
			"name": "ERC20InsufficientBalance",
			"type": "error"
		},
		{
			"inputs": [
				{
					"internalType": "address",
					"name": "approver",
					"type": "address"
				}
			],
			"name": "ERC20InvalidApprover",
			"type": "error"
		},
		{
			"inputs": [
				{
					"internalType": "address",
					"name": "receiver",
					"type": "address"
				}
			],
			"name": "ERC20InvalidReceiver",
			"type": "error"
		},
		{
			"inputs": [
				{
					"internalType": "address",
					"name": "sender",
					"type": "address"
				}
			],
			"name": "ERC20InvalidSender",
			"type": "error"
		},
		{
			"inputs": [
				{
					"internalType": "address",
					"name": "spender",
					"type": "address"
				}
			],
			"name": "ERC20InvalidSpender",
			"type": "error"
		},
		{
			"inputs": [
				{
					"internalType": "address",
					"name": "owner",
					"type": "address"
				}
			],
			"name": "OwnableInvalidOwner",
			"type": "error"
		},
		{
			"inputs": [
				{
					"internalType": "address",
					"name": "account",
					"type": "address"
				}
			],
			"name": "OwnableUnauthorizedAccount",
			"type": "error"
		},
		{
			"anonymous": false,
			"inputs": [
				{
					"indexed": true,
					"internalType": "address",
					"name": "owner",
					"type": "address"
				},
				{
					"indexed": true,
					"internalType": "address",
					"name": "spender",
					"type": "address"
				},
				{
					"indexed": false,
					"internalType": "uint256",
					"name": "value",
					"type": "uint256"
				}
			],
			"name": "Approval",
			"type": "event"
		},
		{
			"anonymous": false,
			"inputs": [
				{
					"indexed": true,
					"internalType": "address[]",
					"name": "recipients",
					"type": "address[]"
				},
				{
					"indexed": false,
					"internalType": "uint256",
					"name": "amountPerAddress",
					"type": "uint256"
				}
			],
			"name": "AutoBatchMintToWhitelist",
			"type": "event"
		},
		{
			"anonymous": false,
			"inputs": [],
			"name": "ContractPaused",
			"type": "event"
		},
		{
			"anonymous": false,
			"inputs": [],
			"name": "ContractResumed",
			"type": "event"
		},
		{
			"anonymous": false,
			"inputs": [
				{
					"indexed": true,
					"internalType": "address",
					"name": "user",
					"type": "address"
				},
				{
					"indexed": false,
					"internalType": "uint256",
					"name": "inputAmount",
					"type": "uint256"
				},
				{
					"indexed": false,
					"internalType": "uint256",
					"name": "cckAmount",
					"type": "uint256"
				},
				{
					"indexed": true,
					"internalType": "address",
					"name": "targetAddress",
					"type": "address"
				}
			],
			"name": "Exchange",
			"type": "event"
		},
		{
			"anonymous": false,
			"inputs": [
				{
					"indexed": false,
					"internalType": "address",
					"name": "user",
					"type": "address"
				},
				{
					"indexed": false,
					"internalType": "bool",
					"name": "frozen",
					"type": "bool"
				}
			],
			"name": "FreezeChanged",
			"type": "event"
		},
		{
			"anonymous": false,
			"inputs": [
				{
					"indexed": true,
					"internalType": "address[]",
					"name": "recipients",
					"type": "address[]"
				},
				{
					"indexed": false,
					"internalType": "uint256",
					"name": "amountPerAddress",
					"type": "uint256"
				}
			],
			"name": "ManualBatchMintToWhitelist",
			"type": "event"
		},
		{
			"anonymous": false,
			"inputs": [
				{
					"indexed": false,
					"internalType": "address",
					"name": "to",
					"type": "address"
				},
				{
					"indexed": false,
					"internalType": "uint256",
					"name": "amount",
					"type": "uint256"
				}
			],
			"name": "MintExecuted",
			"type": "event"
		},
		{
			"anonymous": false,
			"inputs": [
				{
					"indexed": false,
					"internalType": "string",
					"name": "newName",
					"type": "string"
				}
			],
			"name": "NameChanged",
			"type": "event"
		},
		{
			"anonymous": false,
			"inputs": [
				{
					"indexed": true,
					"internalType": "address",
					"name": "previousOwner",
					"type": "address"
				},
				{
					"indexed": true,
					"internalType": "address",
					"name": "newOwner",
					"type": "address"
				}
			],
			"name": "OwnershipTransferred",
			"type": "event"
		},
		{
			"anonymous": false,
			"inputs": [
				{
					"indexed": true,
					"internalType": "uint256",
					"name": "proposalId",
					"type": "uint256"
				},
				{
					"indexed": false,
					"internalType": "enum CCKToken.ProposalType",
					"name": "proposalType",
					"type": "uint8"
				}
			],
			"name": "ProposalCancelled",
			"type": "event"
		},
		{
			"anonymous": false,
			"inputs": [
				{
					"indexed": true,
					"internalType": "uint256",
					"name": "proposalId",
					"type": "uint256"
				},
				{
					"indexed": false,
					"internalType": "enum CCKToken.ProposalType",
					"name": "proposalType",
					"type": "uint8"
				},
				{
					"indexed": false,
					"internalType": "address",
					"name": "initiator",
					"type": "address"
				}
			],
			"name": "ProposalCreated",
			"type": "event"
		},
		{
			"anonymous": false,
			"inputs": [
				{
					"indexed": true,
					"internalType": "uint256",
					"name": "proposalId",
					"type": "uint256"
				},
				{
					"indexed": false,
					"internalType": "enum CCKToken.ProposalType",
					"name": "proposalType",
					"type": "uint8"
				}
			],
			"name": "ProposalExecuted",
			"type": "event"
		},
		{
			"anonymous": false,
			"inputs": [
				{
					"indexed": false,
					"internalType": "uint256",
					"name": "newTotalSupply",
					"type": "uint256"
				}
			],
			"name": "TotalSupplyAdjusted",
			"type": "event"
		},
		{
			"anonymous": false,
			"inputs": [
				{
					"indexed": true,
					"internalType": "address",
					"name": "from",
					"type": "address"
				},
				{
					"indexed": true,
					"internalType": "address",
					"name": "to",
					"type": "address"
				},
				{
					"indexed": false,
					"internalType": "uint256",
					"name": "value",
					"type": "uint256"
				}
			],
			"name": "Transfer",
			"type": "event"
		},
		{
			"anonymous": false,
			"inputs": [
				{
					"indexed": false,
					"internalType": "address[]",
					"name": "oldVoters",
					"type": "address[]"
				},
				{
					"indexed": false,
					"internalType": "address[]",
					"name": "newVoters",
					"type": "address[]"
				}
			],
			"name": "VotersChanged",
			"type": "event"
		},
		{
			"anonymous": false,
			"inputs": [],
			"name": "VotingPaused",
			"type": "event"
		},
		{
			"anonymous": false,
			"inputs": [],
			"name": "VotingResumed",
			"type": "event"
		},
		{
			"anonymous": false,
			"inputs": [
				{
					"indexed": false,
					"internalType": "address",
					"name": "member",
					"type": "address"
				},
				{
					"indexed": false,
					"internalType": "bool",
					"name": "added",
					"type": "bool"
				}
			],
			"name": "WhitelistChanged",
			"type": "event"
		},
		{
			"anonymous": false,
			"inputs": [
				{
					"indexed": false,
					"internalType": "uint256",
					"name": "amount",
					"type": "uint256"
				}
			],
			"name": "WhitelistDistribution",
			"type": "event"
		},
		{
			"inputs": [],
			"name": "AUTO_BATCH_MINT_INTERVAL",
			"outputs": [
				{
					"internalType": "uint256",
					"name": "",
					"type": "uint256"
				}
			],
			"stateMutability": "view",
			"type": "function"
		},
		{
			"inputs": [],
			"name": "BATCH_MINT_AMOUNT",
			"outputs": [
				{
					"internalType": "uint256",
					"name": "",
					"type": "uint256"
				}
			],
			"stateMutability": "view",
			"type": "function"
		},
		{
			"inputs": [],
			"name": "DISTRIBUTION_AMOUNT",
			"outputs": [
				{
					"internalType": "uint256",
					"name": "",
					"type": "uint256"
				}
			],
			"stateMutability": "view",
			"type": "function"
		},
		{
			"inputs": [],
			"name": "DISTRIBUTION_INTERVAL",
			"outputs": [
				{
					"internalType": "uint256",
					"name": "",
					"type": "uint256"
				}
			],
			"stateMutability": "view",
			"type": "function"
		},
		{
			"inputs": [],
			"name": "EXCHANGE_RATE",
			"outputs": [
				{
					"internalType": "uint256",
					"name": "",
					"type": "uint256"
				}
			],
			"stateMutability": "view",
			"type": "function"
		},
		{
			"inputs": [],
			"name": "MIN_VOTES_FOR_MINT",
			"outputs": [
				{
					"internalType": "uint256",
					"name": "",
					"type": "uint256"
				}
			],
			"stateMutability": "view",
			"type": "function"
		},
		{
			"inputs": [],
			"name": "MIN_VOTES_FOR_USER_ACTIONS",
			"outputs": [
				{
					"internalType": "uint256",
					"name": "",
					"type": "uint256"
				}
			],
			"stateMutability": "view",
			"type": "function"
		},
		{
			"inputs": [],
			"name": "TOTAL_SUPPLY",
			"outputs": [
				{
					"internalType": "uint256",
					"name": "",
					"type": "uint256"
				}
			],
			"stateMutability": "view",
			"type": "function"
		},
		{
			"inputs": [],
			"name": "TOTAL_VOTES_REQUIRED",
			"outputs": [
				{
					"internalType": "uint256",
					"name": "",
					"type": "uint256"
				}
			],
			"stateMutability": "view",
			"type": "function"
		},
		{
			"inputs": [
				{
					"internalType": "address",
					"name": "owner",
					"type": "address"
				},
				{
					"internalType": "address",
					"name": "spender",
					"type": "address"
				}
			],
			"name": "allowance",
			"outputs": [
				{
					"internalType": "uint256",
					"name": "",
					"type": "uint256"
				}
			],
			"stateMutability": "view",
			"type": "function"
		},
		{
			"inputs": [
				{
					"internalType": "address",
					"name": "spender",
					"type": "address"
				},
				{
					"internalType": "uint256",
					"name": "value",
					"type": "uint256"
				}
			],
			"name": "approve",
			"outputs": [
				{
					"internalType": "bool",
					"name": "",
					"type": "bool"
				}
			],
			"stateMutability": "nonpayable",
			"type": "function"
		},
		{
			"inputs": [
				{
					"internalType": "address[]",
					"name": "whitelistAddresses",
					"type": "address[]"
				}
			],
			"name": "autoBatchMintToWhitelist",
			"outputs": [],
			"stateMutability": "nonpayable",
			"type": "function"
		},
		{
			"inputs": [
				{
					"internalType": "address",
					"name": "account",
					"type": "address"
				}
			],
			"name": "balanceOf",
			"outputs": [
				{
					"internalType": "uint256",
					"name": "",
					"type": "uint256"
				}
			],
			"stateMutability": "view",
			"type": "function"
		},
		{
			"inputs": [
				{
					"internalType": "address",
					"name": "user",
					"type": "address"
				}
			],
			"name": "balanceOfUser",
			"outputs": [
				{
					"internalType": "uint256",
					"name": "",
					"type": "uint256"
				}
			],
			"stateMutability": "view",
			"type": "function"
		},
		{
			"inputs": [
				{
					"internalType": "uint256",
					"name": "proposalId",
					"type": "uint256"
				}
			],
			"name": "cancelProposal",
			"outputs": [],
			"stateMutability": "nonpayable",
			"type": "function"
		},
		{
			"inputs": [],
			"name": "compliance",
			"outputs": [
				{
					"internalType": "address",
					"name": "",
					"type": "address"
				}
			],
			"stateMutability": "view",
			"type": "function"
		},
		{
			"inputs": [],
			"name": "contractPaused",
			"outputs": [
				{
					"internalType": "bool",
					"name": "",
					"type": "bool"
				}
			],
			"stateMutability": "view",
			"type": "function"
		},
		{
			"inputs": [],
			"name": "decimals",
			"outputs": [
				{
					"internalType": "uint8",
					"name": "",
					"type": "uint8"
				}
			],
			"stateMutability": "view",
			"type": "function"
		},
		{
			"inputs": [],
			"name": "distributeToWhitelist",
			"outputs": [],
			"stateMutability": "nonpayable",
			"type": "function"
		},
		{
			"inputs": [
				{
					"internalType": "uint256",
					"name": "inputAmount",
					"type": "uint256"
				},
				{
					"internalType": "address",
					"name": "targetAddress",
					"type": "address"
				}
			],
			"name": "exchange",
			"outputs": [],
			"stateMutability": "nonpayable",
			"type": "function"
		},
		{
			"inputs": [
				{
					"internalType": "uint256",
					"name": "proposalId",
					"type": "uint256"
				}
			],
			"name": "executeProposal",
			"outputs": [],
			"stateMutability": "nonpayable",
			"type": "function"
		},
		{
			"inputs": [
				{
					"internalType": "address",
					"name": "",
					"type": "address"
				}
			],
			"name": "frozen",
			"outputs": [
				{
					"internalType": "bool",
					"name": "",
					"type": "bool"
				}
			],
			"stateMutability": "view",
			"type": "function"
		},
		{
			"inputs": [],
			"name": "getCurrentPrice",
			"outputs": [
				{
					"internalType": "uint256",
					"name": "price",
					"type": "uint256"
				}
			],
			"stateMutability": "view",
			"type": "function"
		},
		{
			"inputs": [
				{
					"internalType": "address",
					"name": "userAddress",
					"type": "address"
				}
			],
			"name": "getFrozenTokens",
			"outputs": [
				{
					"internalType": "uint256",
					"name": "",
					"type": "uint256"
				}
			],
			"stateMutability": "view",
			"type": "function"
		},
		{
			"inputs": [
				{
					"internalType": "uint256",
					"name": "",
					"type": "uint256"
				},
				{
					"internalType": "address",
					"name": "",
					"type": "address"
				}
			],
			"name": "hasVoted",
			"outputs": [
				{
					"internalType": "bool",
					"name": "",
					"type": "bool"
				}
			],
			"stateMutability": "view",
			"type": "function"
		},
		{
			"inputs": [],
			"name": "identityRegistry",
			"outputs": [
				{
					"internalType": "address",
					"name": "",
					"type": "address"
				}
			],
			"stateMutability": "view",
			"type": "function"
		},
		{
			"inputs": [
				{
					"internalType": "address",
					"name": "userAddress",
					"type": "address"
				}
			],
			"name": "isFrozen",
			"outputs": [
				{
					"internalType": "bool",
					"name": "",
					"type": "bool"
				}
			],
			"stateMutability": "view",
			"type": "function"
		},
		{
			"inputs": [],
			"name": "lastAutoBatchMintTimestamp",
			"outputs": [
				{
					"internalType": "uint256",
					"name": "",
					"type": "uint256"
				}
			],
			"stateMutability": "view",
			"type": "function"
		},
		{
			"inputs": [],
			"name": "lastDistributionTimestamp",
			"outputs": [
				{
					"internalType": "uint256",
					"name": "",
					"type": "uint256"
				}
			],
			"stateMutability": "view",
			"type": "function"
		},
		{
			"inputs": [
				{
					"internalType": "address[]",
					"name": "whitelistAddresses",
					"type": "address[]"
				}
			],
			"name": "manualBatchMintToWhitelist",
			"outputs": [],
			"stateMutability": "nonpayable",
			"type": "function"
		},
		{
			"inputs": [],
			"name": "mintedAmount",
			"outputs": [
				{
					"internalType": "uint256",
					"name": "",
					"type": "uint256"
				}
			],
			"stateMutability": "view",
			"type": "function"
		},
		{
			"inputs": [],
			"name": "name",
			"outputs": [
				{
					"internalType": "string",
					"name": "",
					"type": "string"
				}
			],
			"stateMutability": "view",
			"type": "function"
		},
		{
			"inputs": [],
			"name": "onchainID",
			"outputs": [
				{
					"internalType": "address",
					"name": "",
					"type": "address"
				}
			],
			"stateMutability": "view",
			"type": "function"
		},
		{
			"inputs": [],
			"name": "owner",
			"outputs": [
				{
					"internalType": "address",
					"name": "",
					"type": "address"
				}
			],
			"stateMutability": "view",
			"type": "function"
		},
		{
			"inputs": [],
			"name": "pauseContract",
			"outputs": [],
			"stateMutability": "nonpayable",
			"type": "function"
		},
		{
			"inputs": [],
			"name": "pauseVoting",
			"outputs": [],
			"stateMutability": "nonpayable",
			"type": "function"
		},
		{
			"inputs": [],
			"name": "paused",
			"outputs": [
				{
					"internalType": "bool",
					"name": "",
					"type": "bool"
				}
			],
			"stateMutability": "view",
			"type": "function"
		},
		{
			"inputs": [],
			"name": "proposalCount",
			"outputs": [
				{
					"internalType": "uint256",
					"name": "",
					"type": "uint256"
				}
			],
			"stateMutability": "view",
			"type": "function"
		},
		{
			"inputs": [
				{
					"internalType": "uint256",
					"name": "",
					"type": "uint256"
				}
			],
			"name": "proposals",
			"outputs": [
				{
					"internalType": "enum CCKToken.ProposalType",
					"name": "proposalType",
					"type": "uint8"
				},
				{
					"internalType": "address",
					"name": "initiator",
					"type": "address"
				},
				{
					"internalType": "uint256",
					"name": "voteCount",
					"type": "uint256"
				},
				{
					"internalType": "uint256",
					"name": "timestamp",
					"type": "uint256"
				},
				{
					"internalType": "address",
					"name": "target",
					"type": "address"
				},
				{
					"internalType": "uint256",
					"name": "value",
					"type": "uint256"
				},
				{
					"internalType": "string",
					"name": "name",
					"type": "string"
				},
				{
					"internalType": "bool",
					"name": "active",
					"type": "bool"
				}
			],
			"stateMutability": "view",
			"type": "function"
		},
		{
			"inputs": [
				{
					"internalType": "enum CCKToken.ProposalType",
					"name": "proposalType",
					"type": "uint8"
				},
				{
					"internalType": "address",
					"name": "target",
					"type": "address"
				},
				{
					"internalType": "uint256",
					"name": "value",
					"type": "uint256"
				},
				{
					"internalType": "string",
					"name": "name",
					"type": "string"
				},
				{
					"internalType": "address[]",
					"name": "oldVoters",
					"type": "address[]"
				},
				{
					"internalType": "address[]",
					"name": "newVoters",
					"type": "address[]"
				}
			],
			"name": "propose",
			"outputs": [],
			"stateMutability": "nonpayable",
			"type": "function"
		},
		{
			"inputs": [],
			"name": "remainingSupply",
			"outputs": [
				{
					"internalType": "uint256",
					"name": "",
					"type": "uint256"
				}
			],
			"stateMutability": "view",
			"type": "function"
		},
		{
			"inputs": [],
			"name": "renounceOwnership",
			"outputs": [],
			"stateMutability": "nonpayable",
			"type": "function"
		},
		{
			"inputs": [],
			"name": "resumeContract",
			"outputs": [],
			"stateMutability": "nonpayable",
			"type": "function"
		},
		{
			"inputs": [],
			"name": "resumeVoting",
			"outputs": [],
			"stateMutability": "nonpayable",
			"type": "function"
		},
		{
			"inputs": [],
			"name": "symbol",
			"outputs": [
				{
					"internalType": "string",
					"name": "",
					"type": "string"
				}
			],
			"stateMutability": "view",
			"type": "function"
		},
		{
			"inputs": [],
			"name": "tokenName",
			"outputs": [
				{
					"internalType": "string",
					"name": "",
					"type": "string"
				}
			],
			"stateMutability": "view",
			"type": "function"
		},
		{
			"inputs": [],
			"name": "totalSupply",
			"outputs": [
				{
					"internalType": "uint256",
					"name": "",
					"type": "uint256"
				}
			],
			"stateMutability": "view",
			"type": "function"
		},
		{
			"inputs": [
				{
					"internalType": "address",
					"name": "to",
					"type": "address"
				},
				{
					"internalType": "uint256",
					"name": "amount",
					"type": "uint256"
				}
			],
			"name": "transfer",
			"outputs": [
				{
					"internalType": "bool",
					"name": "",
					"type": "bool"
				}
			],
			"stateMutability": "nonpayable",
			"type": "function"
		},
		{
			"inputs": [
				{
					"internalType": "address",
					"name": "sender",
					"type": "address"
				},
				{
					"internalType": "address",
					"name": "recipient",
					"type": "address"
				},
				{
					"internalType": "uint256",
					"name": "amount",
					"type": "uint256"
				}
			],
			"name": "transferFrom",
			"outputs": [
				{
					"internalType": "bool",
					"name": "",
					"type": "bool"
				}
			],
			"stateMutability": "nonpayable",
			"type": "function"
		},
		{
			"inputs": [
				{
					"internalType": "address",
					"name": "newOwner",
					"type": "address"
				}
			],
			"name": "transferOwnership",
			"outputs": [],
			"stateMutability": "nonpayable",
			"type": "function"
		},
		{
			"inputs": [],
			"name": "uniswapPool",
			"outputs": [
				{
					"internalType": "address",
					"name": "",
					"type": "address"
				}
			],
			"stateMutability": "view",
			"type": "function"
		},
		{
			"inputs": [],
			"name": "version",
			"outputs": [
				{
					"internalType": "string",
					"name": "",
					"type": "string"
				}
			],
			"stateMutability": "view",
			"type": "function"
		},
		{
			"inputs": [
				{
					"internalType": "uint256",
					"name": "proposalId",
					"type": "uint256"
				}
			],
			"name": "vote",
			"outputs": [],
			"stateMutability": "nonpayable",
			"type": "function"
		},
		{
			"inputs": [
				{
					"internalType": "address",
					"name": "",
					"type": "address"
				}
			],
			"name": "voters",
			"outputs": [
				{
					"internalType": "bool",
					"name": "",
					"type": "bool"
				}
			],
			"stateMutability": "view",
			"type": "function"
		},
		{
			"inputs": [],
			"name": "votingPaused",
			"outputs": [
				{
					"internalType": "bool",
					"name": "",
					"type": "bool"
				}
			],
			"stateMutability": "view",
			"type": "function"
		},
		{
			"inputs": [
				{
					"internalType": "address",
					"name": "",
					"type": "address"
				}
			],
			"name": "whitelist",
			"outputs": [
				{
					"internalType": "bool",
					"name": "",
					"type": "bool"
				}
			],
			"stateMutability": "view",
			"type": "function"
		}
	]
}