{
	"contracts/CCK/CCKToken.sol": {
		"CCKToken": {
			"abi": [
				{
					"inputs": [
						{
							"internalType": "address[]",
							"name": "_whitelist",
							"type": "address[]"
						}
					],
					"stateMutability": "nonpayable",
					"type": "constructor"
				},
				{
					"inputs": [
						{
							"internalType": "address",
							"name": "spender",
							"type": "address"
						},
						{
							"internalType": "uint256",
							"name": "allowance",
							"type": "uint256"
						},
						{
							"internalType": "uint256",
							"name": "needed",
							"type": "uint256"
						}
					],
					"name": "ERC20InsufficientAllowance",
					"type": "error"
				},
				{
					"inputs": [
						{
							"internalType": "address",
							"name": "sender",
							"type": "address"
						},
						{
							"internalType": "uint256",
							"name": "balance",
							"type": "uint256"
						},
						{
							"internalType": "uint256",
							"name": "needed",
							"type": "uint256"
						}
					],
					"name": "ERC20InsufficientBalance",
					"type": "error"
				},
				{
					"inputs": [
						{
							"internalType": "address",
							"name": "approver",
							"type": "address"
						}
					],
					"name": "ERC20InvalidApprover",
					"type": "error"
				},
				{
					"inputs": [
						{
							"internalType": "address",
							"name": "receiver",
							"type": "address"
						}
					],
					"name": "ERC20InvalidReceiver",
					"type": "error"
				},
				{
					"inputs": [
						{
							"internalType": "address",
							"name": "sender",
							"type": "address"
						}
					],
					"name": "ERC20InvalidSender",
					"type": "error"
				},
				{
					"inputs": [
						{
							"internalType": "address",
							"name": "spender",
							"type": "address"
						}
					],
					"name": "ERC20InvalidSpender",
					"type": "error"
				},
				{
					"inputs": [
						{
							"internalType": "address",
							"name": "owner",
							"type": "address"
						}
					],
					"name": "OwnableInvalidOwner",
					"type": "error"
				},
				{
					"inputs": [
						{
							"internalType": "address",
							"name": "account",
							"type": "address"
						}
					],
					"name": "OwnableUnauthorizedAccount",
					"type": "error"
				},
				{
					"anonymous": false,
					"inputs": [
						{
							"indexed": true,
							"internalType": "address",
							"name": "owner",
							"type": "address"
						},
						{
							"indexed": true,
							"internalType": "address",
							"name": "spender",
							"type": "address"
						},
						{
							"indexed": false,
							"internalType": "uint256",
							"name": "value",
							"type": "uint256"
						}
					],
					"name": "Approval",
					"type": "event"
				},
				{
					"anonymous": false,
					"inputs": [
						{
							"indexed": true,
							"internalType": "address",
							"name": "previousOwner",
							"type": "address"
						},
						{
							"indexed": true,
							"internalType": "address",
							"name": "newOwner",
							"type": "address"
						}
					],
					"name": "OwnershipTransferred",
					"type": "event"
				},
				{
					"anonymous": false,
					"inputs": [
						{
							"indexed": true,
							"internalType": "address",
							"name": "from",
							"type": "address"
						},
						{
							"indexed": true,
							"internalType": "address",
							"name": "to",
							"type": "address"
						},
						{
							"indexed": false,
							"internalType": "uint256",
							"name": "value",
							"type": "uint256"
						}
					],
					"name": "Transfer",
					"type": "event"
				},
				{
					"inputs": [],
					"name": "TOTAL_SUPPLY",
					"outputs": [
						{
							"internalType": "uint256",
							"name": "",
							"type": "uint256"
						}
					],
					"stateMutability": "view",
					"type": "function"
				},
				{
					"inputs": [
						{
							"internalType": "address",
							"name": "member",
							"type": "address"
						}
					],
					"name": "addToWhitelist",
					"outputs": [],
					"stateMutability": "nonpayable",
					"type": "function"
				},
				{
					"inputs": [
						{
							"internalType": "address",
							"name": "owner",
							"type": "address"
						},
						{
							"internalType": "address",
							"name": "spender",
							"type": "address"
						}
					],
					"name": "allowance",
					"outputs": [
						{
							"internalType": "uint256",
							"name": "",
							"type": "uint256"
						}
					],
					"stateMutability": "view",
					"type": "function"
				},
				{
					"inputs": [
						{
							"internalType": "address",
							"name": "spender",
							"type": "address"
						},
						{
							"internalType": "uint256",
							"name": "value",
							"type": "uint256"
						}
					],
					"name": "approve",
					"outputs": [
						{
							"internalType": "bool",
							"name": "",
							"type": "bool"
						}
					],
					"stateMutability": "nonpayable",
					"type": "function"
				},
				{
					"inputs": [
						{
							"internalType": "address",
							"name": "account",
							"type": "address"
						}
					],
					"name": "balanceOf",
					"outputs": [
						{
							"internalType": "uint256",
							"name": "",
							"type": "uint256"
						}
					],
					"stateMutability": "view",
					"type": "function"
				},
				{
					"inputs": [
						{
							"internalType": "address",
							"name": "user",
							"type": "address"
						}
					],
					"name": "balanceOfUser",
					"outputs": [
						{
							"internalType": "uint256",
							"name": "",
							"type": "uint256"
						}
					],
					"stateMutability": "view",
					"type": "function"
				},
				{
					"inputs": [],
					"name": "compliance",
					"outputs": [
						{
							"internalType": "address",
							"name": "",
							"type": "address"
						}
					],
					"stateMutability": "view",
					"type": "function"
				},
				{
					"inputs": [],
					"name": "decimals",
					"outputs": [
						{
							"internalType": "uint8",
							"name": "",
							"type": "uint8"
						}
					],
					"stateMutability": "view",
					"type": "function"
				},
				{
					"inputs": [
						{
							"internalType": "address",
							"name": "user",
							"type": "address"
						}
					],
					"name": "freezeUser",
					"outputs": [],
					"stateMutability": "nonpayable",
					"type": "function"
				},
				{
					"inputs": [
						{
							"internalType": "address",
							"name": "",
							"type": "address"
						}
					],
					"name": "frozen",
					"outputs": [
						{
							"internalType": "bool",
							"name": "",
							"type": "bool"
						}
					],
					"stateMutability": "view",
					"type": "function"
				},
				{
					"inputs": [
						{
							"internalType": "address",
							"name": "userAddress",
							"type": "address"
						}
					],
					"name": "getFrozenTokens",
					"outputs": [
						{
							"internalType": "uint256",
							"name": "",
							"type": "uint256"
						}
					],
					"stateMutability": "view",
					"type": "function"
				},
				{
					"inputs": [],
					"name": "identityRegistry",
					"outputs": [
						{
							"internalType": "address",
							"name": "",
							"type": "address"
						}
					],
					"stateMutability": "view",
					"type": "function"
				},
				{
					"inputs": [
						{
							"internalType": "address",
							"name": "userAddress",
							"type": "address"
						}
					],
					"name": "isFrozen",
					"outputs": [
						{
							"internalType": "bool",
							"name": "",
							"type": "bool"
						}
					],
					"stateMutability": "view",
					"type": "function"
				},
				{
					"inputs": [
						{
							"internalType": "address",
							"name": "to",
							"type": "address"
						},
						{
							"internalType": "uint256",
							"name": "amount",
							"type": "uint256"
						}
					],
					"name": "mint",
					"outputs": [],
					"stateMutability": "nonpayable",
					"type": "function"
				},
				{
					"inputs": [],
					"name": "mintedAmount",
					"outputs": [
						{
							"internalType": "uint256",
							"name": "",
							"type": "uint256"
						}
					],
					"stateMutability": "view",
					"type": "function"
				},
				{
					"inputs": [],
					"name": "name",
					"outputs": [
						{
							"internalType": "string",
							"name": "",
							"type": "string"
						}
					],
					"stateMutability": "view",
					"type": "function"
				},
				{
					"inputs": [],
					"name": "onchainID",
					"outputs": [
						{
							"internalType": "address",
							"name": "",
							"type": "address"
						}
					],
					"stateMutability": "view",
					"type": "function"
				},
				{
					"inputs": [],
					"name": "owner",
					"outputs": [
						{
							"internalType": "address",
							"name": "",
							"type": "address"
						}
					],
					"stateMutability": "view",
					"type": "function"
				},
				{
					"inputs": [],
					"name": "paused",
					"outputs": [
						{
							"internalType": "bool",
							"name": "",
							"type": "bool"
						}
					],
					"stateMutability": "view",
					"type": "function"
				},
				{
					"inputs": [],
					"name": "remainingSupply",
					"outputs": [
						{
							"internalType": "uint256",
							"name": "",
							"type": "uint256"
						}
					],
					"stateMutability": "view",
					"type": "function"
				},
				{
					"inputs": [
						{
							"internalType": "address",
							"name": "member",
							"type": "address"
						}
					],
					"name": "removeFromWhitelist",
					"outputs": [],
					"stateMutability": "nonpayable",
					"type": "function"
				},
				{
					"inputs": [],
					"name": "renounceOwnership",
					"outputs": [],
					"stateMutability": "nonpayable",
					"type": "function"
				},
				{
					"inputs": [],
					"name": "symbol",
					"outputs": [
						{
							"internalType": "string",
							"name": "",
							"type": "string"
						}
					],
					"stateMutability": "view",
					"type": "function"
				},
				{
					"inputs": [],
					"name": "totalSupply",
					"outputs": [
						{
							"internalType": "uint256",
							"name": "",
							"type": "uint256"
						}
					],
					"stateMutability": "view",
					"type": "function"
				},
				{
					"inputs": [
						{
							"internalType": "address",
							"name": "recipient",
							"type": "address"
						},
						{
							"internalType": "uint256",
							"name": "amount",
							"type": "uint256"
						}
					],
					"name": "transfer",
					"outputs": [
						{
							"internalType": "bool",
							"name": "",
							"type": "bool"
						}
					],
					"stateMutability": "nonpayable",
					"type": "function"
				},
				{
					"inputs": [
						{
							"internalType": "address",
							"name": "sender",
							"type": "address"
						},
						{
							"internalType": "address",
							"name": "recipient",
							"type": "address"
						},
						{
							"internalType": "uint256",
							"name": "amount",
							"type": "uint256"
						}
					],
					"name": "transferFrom",
					"outputs": [
						{
							"internalType": "bool",
							"name": "",
							"type": "bool"
						}
					],
					"stateMutability": "nonpayable",
					"type": "function"
				},
				{
					"inputs": [
						{
							"internalType": "address",
							"name": "newOwner",
							"type": "address"
						}
					],
					"name": "transferOwnership",
					"outputs": [],
					"stateMutability": "nonpayable",
					"type": "function"
				},
				{
					"inputs": [
						{
							"internalType": "address",
							"name": "user",
							"type": "address"
						}
					],
					"name": "unfreezeUser",
					"outputs": [],
					"stateMutability": "nonpayable",
					"type": "function"
				},
				{
					"inputs": [],
					"name": "version",
					"outputs": [
						{
							"internalType": "string",
							"name": "",
							"type": "string"
						}
					],
					"stateMutability": "view",
					"type": "function"
				},
				{
					"inputs": [
						{
							"internalType": "address",
							"name": "",
							"type": "address"
						}
					],
					"name": "whitelist",
					"outputs": [
						{
							"internalType": "bool",
							"name": "",
							"type": "bool"
						}
					],
					"stateMutability": "view",
					"type": "function"
				}
			],
			"devdoc": {
				"errors": {
					"ERC20InsufficientAllowance(address,uint256,uint256)": [
						{
							"details": "Indicates a failure with the `spender`’s `allowance`. Used in transfers.",
							"params": {
								"allowance": "Amount of tokens a `spender` is allowed to operate with.",
								"needed": "Minimum amount required to perform a transfer.",
								"spender": "Address that may be allowed to operate on tokens without being their owner."
							}
						}
					],
					"ERC20InsufficientBalance(address,uint256,uint256)": [
						{
							"details": "Indicates an error related to the current `balance` of a `sender`. Used in transfers.",
							"params": {
								"balance": "Current balance for the interacting account.",
								"needed": "Minimum amount required to perform a transfer.",
								"sender": "Address whose tokens are being transferred."
							}
						}
					],
					"ERC20InvalidApprover(address)": [
						{
							"details": "Indicates a failure with the `approver` of a token to be approved. Used in approvals.",
							"params": {
								"approver": "Address initiating an approval operation."
							}
						}
					],
					"ERC20InvalidReceiver(address)": [
						{
							"details": "Indicates a failure with the token `receiver`. Used in transfers.",
							"params": {
								"receiver": "Address to which tokens are being transferred."
							}
						}
					],
					"ERC20InvalidSender(address)": [
						{
							"details": "Indicates a failure with the token `sender`. Used in transfers.",
							"params": {
								"sender": "Address whose tokens are being transferred."
							}
						}
					],
					"ERC20InvalidSpender(address)": [
						{
							"details": "Indicates a failure with the `spender` to be approved. Used in approvals.",
							"params": {
								"spender": "Address that may be allowed to operate on tokens without being their owner."
							}
						}
					],
					"OwnableInvalidOwner(address)": [
						{
							"details": "The owner is not a valid owner account. (eg. `address(0)`)"
						}
					],
					"OwnableUnauthorizedAccount(address)": [
						{
							"details": "The caller account is not authorized to perform an operation."
						}
					]
				},
				"events": {
					"Approval(address,address,uint256)": {
						"details": "Emitted when the allowance of a `spender` for an `owner` is set by a call to {approve}. `value` is the new allowance."
					},
					"Transfer(address,address,uint256)": {
						"details": "Emitted when `value` tokens are moved from one account (`from`) to another (`to`). Note that `value` may be zero."
					}
				},
				"kind": "dev",
				"methods": {
					"allowance(address,address)": {
						"details": "See {IERC20-allowance}."
					},
					"approve(address,uint256)": {
						"details": "See {IERC20-approve}. NOTE: If `value` is the maximum `uint256`, the allowance is not updated on `transferFrom`. This is semantically equivalent to an infinite approval. Requirements: - `spender` cannot be the zero address."
					},
					"balanceOf(address)": {
						"details": "See {IERC20-balanceOf}."
					},
					"decimals()": {
						"details": "Returns the number of decimals used to get its user representation. For example, if `decimals` equals `2`, a balance of `505` tokens should be displayed to a user as `5.05` (`505 / 10 ** 2`). Tokens usually opt for a value of 18, imitating the relationship between Ether and Wei. This is the default value returned by this function, unless it's overridden. NOTE: This information is only used for _display_ purposes: it in no way affects any of the arithmetic of the contract, including {IERC20-balanceOf} and {IERC20-transfer}."
					},
					"name()": {
						"details": "Returns the name of the token."
					},
					"owner()": {
						"details": "Returns the address of the current owner."
					},
					"renounceOwnership()": {
						"details": "Leaves the contract without owner. It will not be possible to call `onlyOwner` functions. Can only be called by the current owner. NOTE: Renouncing ownership will leave the contract without an owner, thereby disabling any functionality that is only available to the owner."
					},
					"symbol()": {
						"details": "Returns the symbol of the token, usually a shorter version of the name."
					},
					"totalSupply()": {
						"details": "See {IERC20-totalSupply}."
					},
					"transferOwnership(address)": {
						"details": "Transfers ownership of the contract to a new account (`newOwner`). Can only be called by the current owner."
					}
				},
				"version": 1
			},
			"evm": {
				"assembly": "    /* \"contracts/CCK/CCKToken.sol\":309:3939  contract CCKToken is ERC20, Ownable, IERC3643 {... */\n  mstore(0x40, 0x80)\n    /* \"contracts/CCK/CCKToken.sol\":626:1033  constructor(address[] memory _whitelist) ERC20(\"CCK\", \"CCK\") Ownable(msg.sender) {... */\n  callvalue\n  dup1\n  iszero\n  tag_1\n  jumpi\n  0x00\n  dup1\n  revert\ntag_1:\n  pop\n  mload(0x40)\n  sub(codesize, bytecodeSize)\n  dup1\n  bytecodeSize\n  dup4\n  codecopy\n  dup2\n  dup2\n  add\n  0x40\n  mstore\n  dup2\n  add\n  swap1\n  tag_2\n  swap2\n  swap1\n  tag_3\n  jump\t// in\ntag_2:\n    /* \"contracts/CCK/CCKToken.sol\":695:705  msg.sender */\n  caller\n    /* \"@openzeppelin/contracts/token/ERC20/ERC20.sol\":1582:1695  constructor(string memory name_, string memory symbol_) {... */\n  mload(0x40)\n  dup1\n  0x40\n  add\n  0x40\n  mstore\n  dup1\n  0x03\n  dup2\n  mstore\n  0x20\n  add\n  0x43434b0000000000000000000000000000000000000000000000000000000000\n  dup2\n  mstore\n  pop\n  mload(0x40)\n  dup1\n  0x40\n  add\n  0x40\n  mstore\n  dup1\n  0x03\n  dup2\n  mstore\n  0x20\n  add\n  0x43434b0000000000000000000000000000000000000000000000000000000000\n  dup2\n  mstore\n  pop\n    /* \"@openzeppelin/contracts/token/ERC20/ERC20.sol\":1656:1661  name_ */\n  dup2\n    /* \"@openzeppelin/contracts/token/ERC20/ERC20.sol\":1648:1653  _name */\n  0x03\n    /* \"@openzeppelin/contracts/token/ERC20/ERC20.sol\":1648:1661  _name = name_ */\n  swap1\n  dup2\n  tag_8\n  swap2\n  swap1\n  tag_9\n  jump\t// in\ntag_8:\n  pop\n    /* \"@openzeppelin/contracts/token/ERC20/ERC20.sol\":1681:1688  symbol_ */\n  dup1\n    /* \"@openzeppelin/contracts/token/ERC20/ERC20.sol\":1671:1678  _symbol */\n  0x04\n    /* \"@openzeppelin/contracts/token/ERC20/ERC20.sol\":1671:1688  _symbol = symbol_ */\n  swap1\n  dup2\n  tag_10\n  swap2\n  swap1\n  tag_9\n  jump\t// in\ntag_10:\n  pop\n    /* \"@openzeppelin/contracts/token/ERC20/ERC20.sol\":1582:1695  constructor(string memory name_, string memory symbol_) {... */\n  pop\n  pop\n    /* \"@openzeppelin/contracts/access/Ownable.sol\":1297:1298  0 */\n  0x00\n    /* \"@openzeppelin/contracts/access/Ownable.sol\":1273:1299  initialOwner == address(0) */\n  0xffffffffffffffffffffffffffffffffffffffff\n  and\n    /* \"@openzeppelin/contracts/access/Ownable.sol\":1273:1285  initialOwner */\n  dup2\n    /* \"@openzeppelin/contracts/access/Ownable.sol\":1273:1299  initialOwner == address(0) */\n  0xffffffffffffffffffffffffffffffffffffffff\n  and\n  sub\n    /* \"@openzeppelin/contracts/access/Ownable.sol\":1269:1364  if (initialOwner == address(0)) {... */\n  tag_12\n  jumpi\n    /* \"@openzeppelin/contracts/access/Ownable.sol\":1350:1351  0 */\n  0x00\n    /* \"@openzeppelin/contracts/access/Ownable.sol\":1322:1353  OwnableInvalidOwner(address(0)) */\n  mload(0x40)\n  0x1e4fbdf700000000000000000000000000000000000000000000000000000000\n  dup2\n  mstore\n  0x04\n  add\n  tag_13\n  swap2\n  swap1\n  tag_14\n  jump\t// in\ntag_13:\n  mload(0x40)\n  dup1\n  swap2\n  sub\n  swap1\n  revert\n    /* \"@openzeppelin/contracts/access/Ownable.sol\":1269:1364  if (initialOwner == address(0)) {... */\ntag_12:\n    /* \"@openzeppelin/contracts/access/Ownable.sol\":1373:1405  _transferOwnership(initialOwner) */\n  tag_15\n    /* \"@openzeppelin/contracts/access/Ownable.sol\":1392:1404  initialOwner */\n  dup2\n    /* \"@openzeppelin/contracts/access/Ownable.sol\":1373:1391  _transferOwnership */\n  shl(0x20, tag_16)\n    /* \"@openzeppelin/contracts/access/Ownable.sol\":1373:1405  _transferOwnership(initialOwner) */\n  0x20\n  shr\n  jump\t// in\ntag_15:\n    /* \"@openzeppelin/contracts/access/Ownable.sol\":1225:1412  constructor(address initialOwner) {... */\n  pop\n    /* \"contracts/CCK/CCKToken.sol\":746:747  0 */\n  0x00\n    /* \"contracts/CCK/CCKToken.sol\":726:736  _whitelist */\n  dup2\n    /* \"contracts/CCK/CCKToken.sol\":726:743  _whitelist.length */\n  mload\n    /* \"contracts/CCK/CCKToken.sol\":726:747  _whitelist.length > 0 */\n  gt\n    /* \"contracts/CCK/CCKToken.sol\":718:793  require(_whitelist.length > 0, \"At least one whitelisted address required\") */\n  tag_18\n  jumpi\n  mload(0x40)\n  0x08c379a000000000000000000000000000000000000000000000000000000000\n  dup2\n  mstore\n  0x04\n  add\n  tag_19\n  swap1\n  tag_20\n  jump\t// in\ntag_19:\n  mload(0x40)\n  dup1\n  swap2\n  sub\n  swap1\n  revert\ntag_18:\n    /* \"contracts/CCK/CCKToken.sol\":859:868  uint256 i */\n  0x00\n    /* \"contracts/CCK/CCKToken.sol\":854:960  for (uint256 i = 0; i < _whitelist.length; i++) {... */\ntag_21:\n    /* \"contracts/CCK/CCKToken.sol\":878:888  _whitelist */\n  dup2\n    /* \"contracts/CCK/CCKToken.sol\":878:895  _whitelist.length */\n  mload\n    /* \"contracts/CCK/CCKToken.sol\":874:875  i */\n  dup2\n    /* \"contracts/CCK/CCKToken.sol\":874:895  i < _whitelist.length */\n  lt\n    /* \"contracts/CCK/CCKToken.sol\":854:960  for (uint256 i = 0; i < _whitelist.length; i++) {... */\n  iszero\n  tag_22\n  jumpi\n    /* \"contracts/CCK/CCKToken.sol\":944:948  true */\n  0x01\n    /* \"contracts/CCK/CCKToken.sol\":917:926  whitelist */\n  0x06\n    /* \"contracts/CCK/CCKToken.sol\":917:941  whitelist[_whitelist[i]] */\n  0x00\n    /* \"contracts/CCK/CCKToken.sol\":927:937  _whitelist */\n  dup5\n    /* \"contracts/CCK/CCKToken.sol\":938:939  i */\n  dup5\n    /* \"contracts/CCK/CCKToken.sol\":927:940  _whitelist[i] */\n  dup2\n  mload\n  dup2\n  lt\n  tag_24\n  jumpi\n  tag_25\n  tag_26\n  jump\t// in\ntag_25:\ntag_24:\n  0x20\n  mul\n  0x20\n  add\n  add\n  mload\n    /* \"contracts/CCK/CCKToken.sol\":917:941  whitelist[_whitelist[i]] */\n  0xffffffffffffffffffffffffffffffffffffffff\n  and\n  0xffffffffffffffffffffffffffffffffffffffff\n  and\n  dup2\n  mstore\n  0x20\n  add\n  swap1\n  dup2\n  mstore\n  0x20\n  add\n  0x00\n  keccak256\n  0x00\n    /* \"contracts/CCK/CCKToken.sol\":917:948  whitelist[_whitelist[i]] = true */\n  0x0100\n  exp\n  dup2\n  sload\n  dup2\n  0xff\n  mul\n  not\n  and\n  swap1\n  dup4\n  iszero\n  iszero\n  mul\n  or\n  swap1\n  sstore\n  pop\n    /* \"contracts/CCK/CCKToken.sol\":897:900  i++ */\n  dup1\n  dup1\n  tag_27\n  swap1\n  tag_28\n  jump\t// in\ntag_27:\n  swap2\n  pop\n  pop\n    /* \"contracts/CCK/CCKToken.sol\":854:960  for (uint256 i = 0; i < _whitelist.length; i++) {... */\n  jump(tag_21)\ntag_22:\n  pop\n    /* \"contracts/CCK/CCKToken.sol\":972:1003  _mint(msg.sender, TOTAL_SUPPLY) */\n  tag_29\n    /* \"contracts/CCK/CCKToken.sol\":978:988  msg.sender */\n  caller\n    /* \"contracts/CCK/CCKToken.sol\":401:417  500_000 * 10**18 */\n  0x69e10de76676d0800000\n    /* \"contracts/CCK/CCKToken.sol\":972:977  _mint */\n  shl(0x20, tag_30)\n    /* \"contracts/CCK/CCKToken.sol\":972:1003  _mint(msg.sender, TOTAL_SUPPLY) */\n  0x20\n  shr\n  jump\t// in\ntag_29:\n    /* \"contracts/CCK/CCKToken.sol\":626:1033  constructor(address[] memory _whitelist) ERC20(\"CCK\", \"CCK\") Ownable(msg.sender) {... */\n  pop\n    /* \"contracts/CCK/CCKToken.sol\":309:3939  contract CCKToken is ERC20, Ownable, IERC3643 {... */\n  jump(tag_31)\n    /* \"@openzeppelin/contracts/access/Ownable.sol\":2912:3099  function _transferOwnership(address newOwner) internal virtual {... */\ntag_16:\n    /* \"@openzeppelin/contracts/access/Ownable.sol\":2985:3001  address oldOwner */\n  0x00\n    /* \"@openzeppelin/contracts/access/Ownable.sol\":3004:3010  _owner */\n  0x05\n  0x00\n  swap1\n  sload\n  swap1\n  0x0100\n  exp\n  swap1\n  div\n  0xffffffffffffffffffffffffffffffffffffffff\n  and\n    /* \"@openzeppelin/contracts/access/Ownable.sol\":2985:3010  address oldOwner = _owner */\n  swap1\n  pop\n    /* \"@openzeppelin/contracts/access/Ownable.sol\":3029:3037  newOwner */\n  dup2\n    /* \"@openzeppelin/contracts/access/Ownable.sol\":3020:3026  _owner */\n  0x05\n  0x00\n    /* \"@openzeppelin/contracts/access/Ownable.sol\":3020:3037  _owner = newOwner */\n  0x0100\n  exp\n  dup2\n  sload\n  dup2\n  0xffffffffffffffffffffffffffffffffffffffff\n  mul\n  not\n  and\n  swap1\n  dup4\n  0xffffffffffffffffffffffffffffffffffffffff\n  and\n  mul\n  or\n  swap1\n  sstore\n  pop\n    /* \"@openzeppelin/contracts/access/Ownable.sol\":3083:3091  newOwner */\n  dup2\n    /* \"@openzeppelin/contracts/access/Ownable.sol\":3052:3092  OwnershipTransferred(oldOwner, newOwner) */\n  0xffffffffffffffffffffffffffffffffffffffff\n  and\n    /* \"@openzeppelin/contracts/access/Ownable.sol\":3073:3081  oldOwner */\n  dup2\n    /* \"@openzeppelin/contracts/access/Ownable.sol\":3052:3092  OwnershipTransferred(oldOwner, newOwner) */\n  0xffffffffffffffffffffffffffffffffffffffff\n  and\n  0x8be0079c531659141344cd1fd0a4f28419497f9722a3daafe3b4186f6b6457e0\n  mload(0x40)\n  mload(0x40)\n  dup1\n  swap2\n  sub\n  swap1\n  log3\n    /* \"@openzeppelin/contracts/access/Ownable.sol\":2975:3099  {... */\n  pop\n    /* \"@openzeppelin/contracts/access/Ownable.sol\":2912:3099  function _transferOwnership(address newOwner) internal virtual {... */\n  pop\n  jump\t// out\n    /* \"@openzeppelin/contracts/token/ERC20/ERC20.sol\":7439:7647  function _mint(address account, uint256 value) internal {... */\ntag_30:\n    /* \"@openzeppelin/contracts/token/ERC20/ERC20.sol\":7528:7529  0 */\n  0x00\n    /* \"@openzeppelin/contracts/token/ERC20/ERC20.sol\":7509:7530  account == address(0) */\n  0xffffffffffffffffffffffffffffffffffffffff\n  and\n    /* \"@openzeppelin/contracts/token/ERC20/ERC20.sol\":7509:7516  account */\n  dup3\n    /* \"@openzeppelin/contracts/token/ERC20/ERC20.sol\":7509:7530  account == address(0) */\n  0xffffffffffffffffffffffffffffffffffffffff\n  and\n  sub\n    /* \"@openzeppelin/contracts/token/ERC20/ERC20.sol\":7505:7596  if (account == address(0)) {... */\n  tag_34\n  jumpi\n    /* \"@openzeppelin/contracts/token/ERC20/ERC20.sol\":7582:7583  0 */\n  0x00\n    /* \"@openzeppelin/contracts/token/ERC20/ERC20.sol\":7553:7585  ERC20InvalidReceiver(address(0)) */\n  mload(0x40)\n  0xec442f0500000000000000000000000000000000000000000000000000000000\n  dup2\n  mstore\n  0x04\n  add\n  tag_35\n  swap2\n  swap1\n  tag_14\n  jump\t// in\ntag_35:\n  mload(0x40)\n  dup1\n  swap2\n  sub\n  swap1\n  revert\n    /* \"@openzeppelin/contracts/token/ERC20/ERC20.sol\":7505:7596  if (account == address(0)) {... */\ntag_34:\n    /* \"@openzeppelin/contracts/token/ERC20/ERC20.sol\":7605:7640  _update(address(0), account, value) */\n  tag_36\n    /* \"@openzeppelin/contracts/token/ERC20/ERC20.sol\":7621:7622  0 */\n  0x00\n    /* \"@openzeppelin/contracts/token/ERC20/ERC20.sol\":7625:7632  account */\n  dup4\n    /* \"@openzeppelin/contracts/token/ERC20/ERC20.sol\":7634:7639  value */\n  dup4\n    /* \"@openzeppelin/contracts/token/ERC20/ERC20.sol\":7605:7612  _update */\n  shl(0x20, tag_37)\n    /* \"@openzeppelin/contracts/token/ERC20/ERC20.sol\":7605:7640  _update(address(0), account, value) */\n  0x20\n  shr\n  jump\t// in\ntag_36:\n    /* \"@openzeppelin/contracts/token/ERC20/ERC20.sol\":7439:7647  function _mint(address account, uint256 value) internal {... */\n  pop\n  pop\n  jump\t// out\n    /* \"@openzeppelin/contracts/token/ERC20/ERC20.sol\":5989:7096  function _update(address from, address to, uint256 value) internal virtual {... */\ntag_37:\n    /* \"@openzeppelin/contracts/token/ERC20/ERC20.sol\":6094:6095  0 */\n  0x00\n    /* \"@openzeppelin/contracts/token/ERC20/ERC20.sol\":6078:6096  from == address(0) */\n  0xffffffffffffffffffffffffffffffffffffffff\n  and\n    /* \"@openzeppelin/contracts/token/ERC20/ERC20.sol\":6078:6082  from */\n  dup4\n    /* \"@openzeppelin/contracts/token/ERC20/ERC20.sol\":6078:6096  from == address(0) */\n  0xffffffffffffffffffffffffffffffffffffffff\n  and\n  sub\n    /* \"@openzeppelin/contracts/token/ERC20/ERC20.sol\":6074:6614  if (from == address(0)) {... */\n  tag_39\n  jumpi\n    /* \"@openzeppelin/contracts/token/ERC20/ERC20.sol\":6230:6235  value */\n  dup1\n    /* \"@openzeppelin/contracts/token/ERC20/ERC20.sol\":6214:6226  _totalSupply */\n  0x02\n  0x00\n    /* \"@openzeppelin/contracts/token/ERC20/ERC20.sol\":6214:6235  _totalSupply += value */\n  dup3\n  dup3\n  sload\n  tag_40\n  swap2\n  swap1\n  tag_41\n  jump\t// in\ntag_40:\n  swap3\n  pop\n  pop\n  dup2\n  swap1\n  sstore\n  pop\n    /* \"@openzeppelin/contracts/token/ERC20/ERC20.sol\":6074:6614  if (from == address(0)) {... */\n  jump(tag_42)\ntag_39:\n    /* \"@openzeppelin/contracts/token/ERC20/ERC20.sol\":6266:6285  uint256 fromBalance */\n  0x00\n    /* \"@openzeppelin/contracts/token/ERC20/ERC20.sol\":6288:6297  _balances */\n  dup1\n    /* \"@openzeppelin/contracts/token/ERC20/ERC20.sol\":6288:6303  _balances[from] */\n  0x00\n    /* \"@openzeppelin/contracts/token/ERC20/ERC20.sol\":6298:6302  from */\n  dup6\n    /* \"@openzeppelin/contracts/token/ERC20/ERC20.sol\":6288:6303  _balances[from] */\n  0xffffffffffffffffffffffffffffffffffffffff\n  and\n  0xffffffffffffffffffffffffffffffffffffffff\n  and\n  dup2\n  mstore\n  0x20\n  add\n  swap1\n  dup2\n  mstore\n  0x20\n  add\n  0x00\n  keccak256\n  sload\n    /* \"@openzeppelin/contracts/token/ERC20/ERC20.sol\":6266:6303  uint256 fromBalance = _balances[from] */\n  swap1\n  pop\n    /* \"@openzeppelin/contracts/token/ERC20/ERC20.sol\":6335:6340  value */\n  dup2\n    /* \"@openzeppelin/contracts/token/ERC20/ERC20.sol\":6321:6332  fromBalance */\n  dup2\n    /* \"@openzeppelin/contracts/token/ERC20/ERC20.sol\":6321:6340  fromBalance < value */\n  lt\n    /* \"@openzeppelin/contracts/token/ERC20/ERC20.sol\":6317:6432  if (fromBalance < value) {... */\n  iszero\n  tag_43\n  jumpi\n    /* \"@openzeppelin/contracts/token/ERC20/ERC20.sol\":6392:6396  from */\n  dup4\n    /* \"@openzeppelin/contracts/token/ERC20/ERC20.sol\":6398:6409  fromBalance */\n  dup2\n    /* \"@openzeppelin/contracts/token/ERC20/ERC20.sol\":6411:6416  value */\n  dup4\n    /* \"@openzeppelin/contracts/token/ERC20/ERC20.sol\":6367:6417  ERC20InsufficientBalance(from, fromBalance, value) */\n  mload(0x40)\n  0xe450d38c00000000000000000000000000000000000000000000000000000000\n  dup2\n  mstore\n  0x04\n  add\n  tag_44\n  swap4\n  swap3\n  swap2\n  swap1\n  tag_45\n  jump\t// in\ntag_44:\n  mload(0x40)\n  dup1\n  swap2\n  sub\n  swap1\n  revert\n    /* \"@openzeppelin/contracts/token/ERC20/ERC20.sol\":6317:6432  if (fromBalance < value) {... */\ntag_43:\n    /* \"@openzeppelin/contracts/token/ERC20/ERC20.sol\":6584:6589  value */\n  dup2\n    /* \"@openzeppelin/contracts/token/ERC20/ERC20.sol\":6570:6581  fromBalance */\n  dup2\n    /* \"@openzeppelin/contracts/token/ERC20/ERC20.sol\":6570:6589  fromBalance - value */\n  sub\n    /* \"@openzeppelin/contracts/token/ERC20/ERC20.sol\":6552:6561  _balances */\n  0x00\n    /* \"@openzeppelin/contracts/token/ERC20/ERC20.sol\":6552:6567  _balances[from] */\n  dup1\n    /* \"@openzeppelin/contracts/token/ERC20/ERC20.sol\":6562:6566  from */\n  dup7\n    /* \"@openzeppelin/contracts/token/ERC20/ERC20.sol\":6552:6567  _balances[from] */\n  0xffffffffffffffffffffffffffffffffffffffff\n  and\n  0xffffffffffffffffffffffffffffffffffffffff\n  and\n  dup2\n  mstore\n  0x20\n  add\n  swap1\n  dup2\n  mstore\n  0x20\n  add\n  0x00\n  keccak256\n    /* \"@openzeppelin/contracts/token/ERC20/ERC20.sol\":6552:6589  _balances[from] = fromBalance - value */\n  dup2\n  swap1\n  sstore\n  pop\n    /* \"@openzeppelin/contracts/token/ERC20/ERC20.sol\":6252:6614  {... */\n  pop\n    /* \"@openzeppelin/contracts/token/ERC20/ERC20.sol\":6074:6614  if (from == address(0)) {... */\ntag_42:\n    /* \"@openzeppelin/contracts/token/ERC20/ERC20.sol\":6642:6643  0 */\n  0x00\n    /* \"@openzeppelin/contracts/token/ERC20/ERC20.sol\":6628:6644  to == address(0) */\n  0xffffffffffffffffffffffffffffffffffffffff\n  and\n    /* \"@openzeppelin/contracts/token/ERC20/ERC20.sol\":6628:6630  to */\n  dup3\n    /* \"@openzeppelin/contracts/token/ERC20/ERC20.sol\":6628:6644  to == address(0) */\n  0xffffffffffffffffffffffffffffffffffffffff\n  and\n  sub\n    /* \"@openzeppelin/contracts/token/ERC20/ERC20.sol\":6624:7049  if (to == address(0)) {... */\n  tag_46\n  jumpi\n    /* \"@openzeppelin/contracts/token/ERC20/ERC20.sol\":6807:6812  value */\n  dup1\n    /* \"@openzeppelin/contracts/token/ERC20/ERC20.sol\":6791:6803  _totalSupply */\n  0x02\n  0x00\n    /* \"@openzeppelin/contracts/token/ERC20/ERC20.sol\":6791:6812  _totalSupply -= value */\n  dup3\n  dup3\n  sload\n  sub\n  swap3\n  pop\n  pop\n  dup2\n  swap1\n  sstore\n  pop\n    /* \"@openzeppelin/contracts/token/ERC20/ERC20.sol\":6624:7049  if (to == address(0)) {... */\n  jump(tag_47)\ntag_46:\n    /* \"@openzeppelin/contracts/token/ERC20/ERC20.sol\":7019:7024  value */\n  dup1\n    /* \"@openzeppelin/contracts/token/ERC20/ERC20.sol\":7002:7011  _balances */\n  0x00\n    /* \"@openzeppelin/contracts/token/ERC20/ERC20.sol\":7002:7015  _balances[to] */\n  dup1\n    /* \"@openzeppelin/contracts/token/ERC20/ERC20.sol\":7012:7014  to */\n  dup5\n    /* \"@openzeppelin/contracts/token/ERC20/ERC20.sol\":7002:7015  _balances[to] */\n  0xffffffffffffffffffffffffffffffffffffffff\n  and\n  0xffffffffffffffffffffffffffffffffffffffff\n  and\n  dup2\n  mstore\n  0x20\n  add\n  swap1\n  dup2\n  mstore\n  0x20\n  add\n  0x00\n  keccak256\n  0x00\n    /* \"@openzeppelin/contracts/token/ERC20/ERC20.sol\":7002:7024  _balances[to] += value */\n  dup3\n  dup3\n  sload\n  add\n  swap3\n  pop\n  pop\n  dup2\n  swap1\n  sstore\n  pop\n    /* \"@openzeppelin/contracts/token/ERC20/ERC20.sol\":6624:7049  if (to == address(0)) {... */\ntag_47:\n    /* \"@openzeppelin/contracts/token/ERC20/ERC20.sol\":7079:7081  to */\n  dup2\n    /* \"@openzeppelin/contracts/token/ERC20/ERC20.sol\":7064:7089  Transfer(from, to, value) */\n  0xffffffffffffffffffffffffffffffffffffffff\n  and\n    /* \"@openzeppelin/contracts/token/ERC20/ERC20.sol\":7073:7077  from */\n  dup4\n    /* \"@openzeppelin/contracts/token/ERC20/ERC20.sol\":7064:7089  Transfer(from, to, value) */\n  0xffffffffffffffffffffffffffffffffffffffff\n  and\n  0xddf252ad1be2c89b69c2b068fc378daa952ba7f163c4a11628f55a4df523b3ef\n    /* \"@openzeppelin/contracts/token/ERC20/ERC20.sol\":7083:7088  value */\n  dup4\n    /* \"@openzeppelin/contracts/token/ERC20/ERC20.sol\":7064:7089  Transfer(from, to, value) */\n  mload(0x40)\n  tag_48\n  swap2\n  swap1\n  tag_49\n  jump\t// in\ntag_48:\n  mload(0x40)\n  dup1\n  swap2\n  sub\n  swap1\n  log3\n    /* \"@openzeppelin/contracts/token/ERC20/ERC20.sol\":5989:7096  function _update(address from, address to, uint256 value) internal virtual {... */\n  pop\n  pop\n  pop\n  jump\t// out\n    /* \"#utility.yul\":7:82   */\ntag_50:\n    /* \"#utility.yul\":40:46   */\n  0x00\n    /* \"#utility.yul\":73:75   */\n  0x40\n    /* \"#utility.yul\":67:76   */\n  mload\n    /* \"#utility.yul\":57:76   */\n  swap1\n  pop\n    /* \"#utility.yul\":7:82   */\n  swap1\n  jump\t// out\n    /* \"#utility.yul\":88:205   */\ntag_51:\n    /* \"#utility.yul\":197:198   */\n  0x00\n    /* \"#utility.yul\":194:195   */\n  dup1\n    /* \"#utility.yul\":187:199   */\n  revert\n    /* \"#utility.yul\":211:328   */\ntag_52:\n    /* \"#utility.yul\":320:321   */\n  0x00\n    /* \"#utility.yul\":317:318   */\n  dup1\n    /* \"#utility.yul\":310:322   */\n  revert\n    /* \"#utility.yul\":334:451   */\ntag_53:\n    /* \"#utility.yul\":443:444   */\n  0x00\n    /* \"#utility.yul\":440:441   */\n  dup1\n    /* \"#utility.yul\":433:445   */\n  revert\n    /* \"#utility.yul\":457:559   */\ntag_54:\n    /* \"#utility.yul\":498:504   */\n  0x00\n    /* \"#utility.yul\":549:551   */\n  0x1f\n    /* \"#utility.yul\":545:552   */\n  not\n    /* \"#utility.yul\":540:542   */\n  0x1f\n    /* \"#utility.yul\":533:538   */\n  dup4\n    /* \"#utility.yul\":529:543   */\n  add\n    /* \"#utility.yul\":525:553   */\n  and\n    /* \"#utility.yul\":515:553   */\n  swap1\n  pop\n    /* \"#utility.yul\":457:559   */\n  swap2\n  swap1\n  pop\n  jump\t// out\n    /* \"#utility.yul\":565:745   */\ntag_55:\n    /* \"#utility.yul\":613:690   */\n  0x4e487b7100000000000000000000000000000000000000000000000000000000\n    /* \"#utility.yul\":610:611   */\n  0x00\n    /* \"#utility.yul\":603:691   */\n  mstore\n    /* \"#utility.yul\":710:714   */\n  0x41\n    /* \"#utility.yul\":707:708   */\n  0x04\n    /* \"#utility.yul\":700:715   */\n  mstore\n    /* \"#utility.yul\":734:738   */\n  0x24\n    /* \"#utility.yul\":731:732   */\n  0x00\n    /* \"#utility.yul\":724:739   */\n  revert\n    /* \"#utility.yul\":751:1032   */\ntag_56:\n    /* \"#utility.yul\":834:861   */\n  tag_99\n    /* \"#utility.yul\":856:860   */\n  dup3\n    /* \"#utility.yul\":834:861   */\n  tag_54\n  jump\t// in\ntag_99:\n    /* \"#utility.yul\":826:832   */\n  dup2\n    /* \"#utility.yul\":822:862   */\n  add\n    /* \"#utility.yul\":964:970   */\n  dup2\n    /* \"#utility.yul\":952:962   */\n  dup2\n    /* \"#utility.yul\":949:971   */\n  lt\n    /* \"#utility.yul\":928:946   */\n  0xffffffffffffffff\n    /* \"#utility.yul\":916:926   */\n  dup3\n    /* \"#utility.yul\":913:947   */\n  gt\n    /* \"#utility.yul\":910:972   */\n  or\n    /* \"#utility.yul\":907:995   */\n  iszero\n  tag_100\n  jumpi\n    /* \"#utility.yul\":975:993   */\n  tag_101\n  tag_55\n  jump\t// in\ntag_101:\n    /* \"#utility.yul\":907:995   */\ntag_100:\n    /* \"#utility.yul\":1015:1025   */\n  dup1\n    /* \"#utility.yul\":1011:1013   */\n  0x40\n    /* \"#utility.yul\":1004:1026   */\n  mstore\n    /* \"#utility.yul\":794:1032   */\n  pop\n    /* \"#utility.yul\":751:1032   */\n  pop\n  pop\n  jump\t// out\n    /* \"#utility.yul\":1038:1167   */\ntag_57:\n    /* \"#utility.yul\":1072:1078   */\n  0x00\n    /* \"#utility.yul\":1099:1119   */\n  tag_103\n  tag_50\n  jump\t// in\ntag_103:\n    /* \"#utility.yul\":1089:1119   */\n  swap1\n  pop\n    /* \"#utility.yul\":1128:1161   */\n  tag_104\n    /* \"#utility.yul\":1156:1160   */\n  dup3\n    /* \"#utility.yul\":1148:1154   */\n  dup3\n    /* \"#utility.yul\":1128:1161   */\n  tag_56\n  jump\t// in\ntag_104:\n    /* \"#utility.yul\":1038:1167   */\n  swap2\n  swap1\n  pop\n  jump\t// out\n    /* \"#utility.yul\":1173:1484   */\ntag_58:\n    /* \"#utility.yul\":1250:1254   */\n  0x00\n    /* \"#utility.yul\":1340:1358   */\n  0xffffffffffffffff\n    /* \"#utility.yul\":1332:1338   */\n  dup3\n    /* \"#utility.yul\":1329:1359   */\n  gt\n    /* \"#utility.yul\":1326:1382   */\n  iszero\n  tag_106\n  jumpi\n    /* \"#utility.yul\":1362:1380   */\n  tag_107\n  tag_55\n  jump\t// in\ntag_107:\n    /* \"#utility.yul\":1326:1382   */\ntag_106:\n    /* \"#utility.yul\":1412:1416   */\n  0x20\n    /* \"#utility.yul\":1404:1410   */\n  dup3\n    /* \"#utility.yul\":1400:1417   */\n  mul\n    /* \"#utility.yul\":1392:1417   */\n  swap1\n  pop\n    /* \"#utility.yul\":1472:1476   */\n  0x20\n    /* \"#utility.yul\":1466:1470   */\n  dup2\n    /* \"#utility.yul\":1462:1477   */\n  add\n    /* \"#utility.yul\":1454:1477   */\n  swap1\n  pop\n    /* \"#utility.yul\":1173:1484   */\n  swap2\n  swap1\n  pop\n  jump\t// out\n    /* \"#utility.yul\":1490:1607   */\ntag_59:\n    /* \"#utility.yul\":1599:1600   */\n  0x00\n    /* \"#utility.yul\":1596:1597   */\n  dup1\n    /* \"#utility.yul\":1589:1601   */\n  revert\n    /* \"#utility.yul\":1613:1739   */\ntag_60:\n    /* \"#utility.yul\":1650:1657   */\n  0x00\n    /* \"#utility.yul\":1690:1732   */\n  0xffffffffffffffffffffffffffffffffffffffff\n    /* \"#utility.yul\":1683:1688   */\n  dup3\n    /* \"#utility.yul\":1679:1733   */\n  and\n    /* \"#utility.yul\":1668:1733   */\n  swap1\n  pop\n    /* \"#utility.yul\":1613:1739   */\n  swap2\n  swap1\n  pop\n  jump\t// out\n    /* \"#utility.yul\":1745:1841   */\ntag_61:\n    /* \"#utility.yul\":1782:1789   */\n  0x00\n    /* \"#utility.yul\":1811:1835   */\n  tag_111\n    /* \"#utility.yul\":1829:1834   */\n  dup3\n    /* \"#utility.yul\":1811:1835   */\n  tag_60\n  jump\t// in\ntag_111:\n    /* \"#utility.yul\":1800:1835   */\n  swap1\n  pop\n    /* \"#utility.yul\":1745:1841   */\n  swap2\n  swap1\n  pop\n  jump\t// out\n    /* \"#utility.yul\":1847:1969   */\ntag_62:\n    /* \"#utility.yul\":1920:1944   */\n  tag_113\n    /* \"#utility.yul\":1938:1943   */\n  dup2\n    /* \"#utility.yul\":1920:1944   */\n  tag_61\n  jump\t// in\ntag_113:\n    /* \"#utility.yul\":1913:1918   */\n  dup2\n    /* \"#utility.yul\":1910:1945   */\n  eq\n    /* \"#utility.yul\":1900:1963   */\n  tag_114\n  jumpi\n    /* \"#utility.yul\":1959:1960   */\n  0x00\n    /* \"#utility.yul\":1956:1957   */\n  dup1\n    /* \"#utility.yul\":1949:1961   */\n  revert\n    /* \"#utility.yul\":1900:1963   */\ntag_114:\n    /* \"#utility.yul\":1847:1969   */\n  pop\n  jump\t// out\n    /* \"#utility.yul\":1975:2118   */\ntag_63:\n    /* \"#utility.yul\":2032:2037   */\n  0x00\n    /* \"#utility.yul\":2063:2069   */\n  dup2\n    /* \"#utility.yul\":2057:2070   */\n  mload\n    /* \"#utility.yul\":2048:2070   */\n  swap1\n  pop\n    /* \"#utility.yul\":2079:2112   */\n  tag_116\n    /* \"#utility.yul\":2106:2111   */\n  dup2\n    /* \"#utility.yul\":2079:2112   */\n  tag_62\n  jump\t// in\ntag_116:\n    /* \"#utility.yul\":1975:2118   */\n  swap3\n  swap2\n  pop\n  pop\n  jump\t// out\n    /* \"#utility.yul\":2141:2873   */\ntag_64:\n    /* \"#utility.yul\":2248:2253   */\n  0x00\n    /* \"#utility.yul\":2273:2354   */\n  tag_118\n    /* \"#utility.yul\":2289:2353   */\n  tag_119\n    /* \"#utility.yul\":2346:2352   */\n  dup5\n    /* \"#utility.yul\":2289:2353   */\n  tag_58\n  jump\t// in\ntag_119:\n    /* \"#utility.yul\":2273:2354   */\n  tag_57\n  jump\t// in\ntag_118:\n    /* \"#utility.yul\":2264:2354   */\n  swap1\n  pop\n    /* \"#utility.yul\":2374:2379   */\n  dup1\n    /* \"#utility.yul\":2403:2409   */\n  dup4\n    /* \"#utility.yul\":2396:2401   */\n  dup3\n    /* \"#utility.yul\":2389:2410   */\n  mstore\n    /* \"#utility.yul\":2437:2441   */\n  0x20\n    /* \"#utility.yul\":2430:2435   */\n  dup3\n    /* \"#utility.yul\":2426:2442   */\n  add\n    /* \"#utility.yul\":2419:2442   */\n  swap1\n  pop\n    /* \"#utility.yul\":2490:2494   */\n  0x20\n    /* \"#utility.yul\":2482:2488   */\n  dup5\n    /* \"#utility.yul\":2478:2495   */\n  mul\n    /* \"#utility.yul\":2470:2476   */\n  dup4\n    /* \"#utility.yul\":2466:2496   */\n  add\n    /* \"#utility.yul\":2519:2522   */\n  dup6\n    /* \"#utility.yul\":2511:2517   */\n  dup2\n    /* \"#utility.yul\":2508:2523   */\n  gt\n    /* \"#utility.yul\":2505:2627   */\n  iszero\n  tag_120\n  jumpi\n    /* \"#utility.yul\":2538:2617   */\n  tag_121\n  tag_59\n  jump\t// in\ntag_121:\n    /* \"#utility.yul\":2505:2627   */\ntag_120:\n    /* \"#utility.yul\":2653:2659   */\n  dup4\n    /* \"#utility.yul\":2636:2867   */\ntag_122:\n    /* \"#utility.yul\":2670:2676   */\n  dup2\n    /* \"#utility.yul\":2665:2668   */\n  dup2\n    /* \"#utility.yul\":2662:2677   */\n  lt\n    /* \"#utility.yul\":2636:2867   */\n  iszero\n  tag_124\n  jumpi\n    /* \"#utility.yul\":2745:2748   */\n  dup1\n    /* \"#utility.yul\":2774:2822   */\n  tag_125\n    /* \"#utility.yul\":2818:2821   */\n  dup9\n    /* \"#utility.yul\":2806:2816   */\n  dup3\n    /* \"#utility.yul\":2774:2822   */\n  tag_63\n  jump\t// in\ntag_125:\n    /* \"#utility.yul\":2769:2772   */\n  dup5\n    /* \"#utility.yul\":2762:2823   */\n  mstore\n    /* \"#utility.yul\":2852:2856   */\n  0x20\n    /* \"#utility.yul\":2847:2850   */\n  dup5\n    /* \"#utility.yul\":2843:2857   */\n  add\n    /* \"#utility.yul\":2836:2857   */\n  swap4\n  pop\n    /* \"#utility.yul\":2712:2867   */\n  pop\n    /* \"#utility.yul\":2696:2700   */\n  0x20\n    /* \"#utility.yul\":2691:2694   */\n  dup2\n    /* \"#utility.yul\":2687:2701   */\n  add\n    /* \"#utility.yul\":2680:2701   */\n  swap1\n  pop\n    /* \"#utility.yul\":2636:2867   */\n  jump(tag_122)\ntag_124:\n    /* \"#utility.yul\":2640:2661   */\n  pop\n    /* \"#utility.yul\":2254:2873   */\n  pop\n  pop\n    /* \"#utility.yul\":2141:2873   */\n  swap4\n  swap3\n  pop\n  pop\n  pop\n  jump\t// out\n    /* \"#utility.yul\":2896:3281   */\ntag_65:\n    /* \"#utility.yul\":2978:2983   */\n  0x00\n    /* \"#utility.yul\":3027:3030   */\n  dup3\n    /* \"#utility.yul\":3020:3024   */\n  0x1f\n    /* \"#utility.yul\":3012:3018   */\n  dup4\n    /* \"#utility.yul\":3008:3025   */\n  add\n    /* \"#utility.yul\":3004:3031   */\n  slt\n    /* \"#utility.yul\":2994:3116   */\n  tag_127\n  jumpi\n    /* \"#utility.yul\":3035:3114   */\n  tag_128\n  tag_53\n  jump\t// in\ntag_128:\n    /* \"#utility.yul\":2994:3116   */\ntag_127:\n    /* \"#utility.yul\":3145:3151   */\n  dup2\n    /* \"#utility.yul\":3139:3152   */\n  mload\n    /* \"#utility.yul\":3170:3275   */\n  tag_129\n    /* \"#utility.yul\":3271:3274   */\n  dup5\n    /* \"#utility.yul\":3263:3269   */\n  dup3\n    /* \"#utility.yul\":3256:3260   */\n  0x20\n    /* \"#utility.yul\":3248:3254   */\n  dup7\n    /* \"#utility.yul\":3244:3261   */\n  add\n    /* \"#utility.yul\":3170:3275   */\n  tag_64\n  jump\t// in\ntag_129:\n    /* \"#utility.yul\":3161:3275   */\n  swap2\n  pop\n    /* \"#utility.yul\":2984:3281   */\n  pop\n    /* \"#utility.yul\":2896:3281   */\n  swap3\n  swap2\n  pop\n  pop\n  jump\t// out\n    /* \"#utility.yul\":3287:3841   */\ntag_3:\n    /* \"#utility.yul\":3382:3388   */\n  0x00\n    /* \"#utility.yul\":3431:3433   */\n  0x20\n    /* \"#utility.yul\":3419:3428   */\n  dup3\n    /* \"#utility.yul\":3410:3417   */\n  dup5\n    /* \"#utility.yul\":3406:3429   */\n  sub\n    /* \"#utility.yul\":3402:3434   */\n  slt\n    /* \"#utility.yul\":3399:3518   */\n  iszero\n  tag_131\n  jumpi\n    /* \"#utility.yul\":3437:3516   */\n  tag_132\n  tag_51\n  jump\t// in\ntag_132:\n    /* \"#utility.yul\":3399:3518   */\ntag_131:\n    /* \"#utility.yul\":3578:3579   */\n  0x00\n    /* \"#utility.yul\":3567:3576   */\n  dup3\n    /* \"#utility.yul\":3563:3580   */\n  add\n    /* \"#utility.yul\":3557:3581   */\n  mload\n    /* \"#utility.yul\":3608:3626   */\n  0xffffffffffffffff\n    /* \"#utility.yul\":3600:3606   */\n  dup2\n    /* \"#utility.yul\":3597:3627   */\n  gt\n    /* \"#utility.yul\":3594:3711   */\n  iszero\n  tag_133\n  jumpi\n    /* \"#utility.yul\":3630:3709   */\n  tag_134\n  tag_52\n  jump\t// in\ntag_134:\n    /* \"#utility.yul\":3594:3711   */\ntag_133:\n    /* \"#utility.yul\":3735:3824   */\n  tag_135\n    /* \"#utility.yul\":3816:3823   */\n  dup5\n    /* \"#utility.yul\":3807:3813   */\n  dup3\n    /* \"#utility.yul\":3796:3805   */\n  dup6\n    /* \"#utility.yul\":3792:3814   */\n  add\n    /* \"#utility.yul\":3735:3824   */\n  tag_65\n  jump\t// in\ntag_135:\n    /* \"#utility.yul\":3725:3824   */\n  swap2\n  pop\n    /* \"#utility.yul\":3528:3834   */\n  pop\n    /* \"#utility.yul\":3287:3841   */\n  swap3\n  swap2\n  pop\n  pop\n  jump\t// out\n    /* \"#utility.yul\":3847:3946   */\ntag_66:\n    /* \"#utility.yul\":3899:3905   */\n  0x00\n    /* \"#utility.yul\":3933:3938   */\n  dup2\n    /* \"#utility.yul\":3927:3939   */\n  mload\n    /* \"#utility.yul\":3917:3939   */\n  swap1\n  pop\n    /* \"#utility.yul\":3847:3946   */\n  swap2\n  swap1\n  pop\n  jump\t// out\n    /* \"#utility.yul\":3952:4132   */\ntag_67:\n    /* \"#utility.yul\":4000:4077   */\n  0x4e487b7100000000000000000000000000000000000000000000000000000000\n    /* \"#utility.yul\":3997:3998   */\n  0x00\n    /* \"#utility.yul\":3990:4078   */\n  mstore\n    /* \"#utility.yul\":4097:4101   */\n  0x22\n    /* \"#utility.yul\":4094:4095   */\n  0x04\n    /* \"#utility.yul\":4087:4102   */\n  mstore\n    /* \"#utility.yul\":4121:4125   */\n  0x24\n    /* \"#utility.yul\":4118:4119   */\n  0x00\n    /* \"#utility.yul\":4111:4126   */\n  revert\n    /* \"#utility.yul\":4138:4458   */\ntag_68:\n    /* \"#utility.yul\":4182:4188   */\n  0x00\n    /* \"#utility.yul\":4219:4220   */\n  0x02\n    /* \"#utility.yul\":4213:4217   */\n  dup3\n    /* \"#utility.yul\":4209:4221   */\n  div\n    /* \"#utility.yul\":4199:4221   */\n  swap1\n  pop\n    /* \"#utility.yul\":4266:4267   */\n  0x01\n    /* \"#utility.yul\":4260:4264   */\n  dup3\n    /* \"#utility.yul\":4256:4268   */\n  and\n    /* \"#utility.yul\":4287:4305   */\n  dup1\n    /* \"#utility.yul\":4277:4358   */\n  tag_139\n  jumpi\n    /* \"#utility.yul\":4343:4347   */\n  0x7f\n    /* \"#utility.yul\":4335:4341   */\n  dup3\n    /* \"#utility.yul\":4331:4348   */\n  and\n    /* \"#utility.yul\":4321:4348   */\n  swap2\n  pop\n    /* \"#utility.yul\":4277:4358   */\ntag_139:\n    /* \"#utility.yul\":4405:4407   */\n  0x20\n    /* \"#utility.yul\":4397:4403   */\n  dup3\n    /* \"#utility.yul\":4394:4408   */\n  lt\n    /* \"#utility.yul\":4374:4392   */\n  dup2\n    /* \"#utility.yul\":4371:4409   */\n  sub\n    /* \"#utility.yul\":4368:4452   */\n  tag_140\n  jumpi\n    /* \"#utility.yul\":4424:4442   */\n  tag_141\n  tag_67\n  jump\t// in\ntag_141:\n    /* \"#utility.yul\":4368:4452   */\ntag_140:\n    /* \"#utility.yul\":4189:4458   */\n  pop\n    /* \"#utility.yul\":4138:4458   */\n  swap2\n  swap1\n  pop\n  jump\t// out\n    /* \"#utility.yul\":4464:4605   */\ntag_69:\n    /* \"#utility.yul\":4513:4517   */\n  0x00\n    /* \"#utility.yul\":4536:4539   */\n  dup2\n    /* \"#utility.yul\":4528:4539   */\n  swap1\n  pop\n    /* \"#utility.yul\":4559:4562   */\n  dup2\n    /* \"#utility.yul\":4556:4557   */\n  0x00\n    /* \"#utility.yul\":4549:4563   */\n  mstore\n    /* \"#utility.yul\":4593:4597   */\n  0x20\n    /* \"#utility.yul\":4590:4591   */\n  0x00\n    /* \"#utility.yul\":4580:4598   */\n  keccak256\n    /* \"#utility.yul\":4572:4598   */\n  swap1\n  pop\n    /* \"#utility.yul\":4464:4605   */\n  swap2\n  swap1\n  pop\n  jump\t// out\n    /* \"#utility.yul\":4611:4704   */\ntag_70:\n    /* \"#utility.yul\":4648:4654   */\n  0x00\n    /* \"#utility.yul\":4695:4697   */\n  0x20\n    /* \"#utility.yul\":4690:4692   */\n  0x1f\n    /* \"#utility.yul\":4683:4688   */\n  dup4\n    /* \"#utility.yul\":4679:4693   */\n  add\n    /* \"#utility.yul\":4675:4698   */\n  div\n    /* \"#utility.yul\":4665:4698   */\n  swap1\n  pop\n    /* \"#utility.yul\":4611:4704   */\n  swap2\n  swap1\n  pop\n  jump\t// out\n    /* \"#utility.yul\":4710:4817   */\ntag_71:\n    /* \"#utility.yul\":4754:4762   */\n  0x00\n    /* \"#utility.yul\":4804:4809   */\n  dup3\n    /* \"#utility.yul\":4798:4802   */\n  dup3\n    /* \"#utility.yul\":4794:4810   */\n  shl\n    /* \"#utility.yul\":4773:4810   */\n  swap1\n  pop\n    /* \"#utility.yul\":4710:4817   */\n  swap3\n  swap2\n  pop\n  pop\n  jump\t// out\n    /* \"#utility.yul\":4823:5216   */\ntag_72:\n    /* \"#utility.yul\":4892:4898   */\n  0x00\n    /* \"#utility.yul\":4942:4943   */\n  0x08\n    /* \"#utility.yul\":4930:4940   */\n  dup4\n    /* \"#utility.yul\":4926:4944   */\n  mul\n    /* \"#utility.yul\":4965:5062   */\n  tag_146\n    /* \"#utility.yul\":4995:5061   */\n  0xffffffffffffffffffffffffffffffffffffffffffffffffffffffffffffffff\n    /* \"#utility.yul\":4984:4993   */\n  dup3\n    /* \"#utility.yul\":4965:5062   */\n  tag_71\n  jump\t// in\ntag_146:\n    /* \"#utility.yul\":5083:5122   */\n  tag_147\n    /* \"#utility.yul\":5113:5121   */\n  dup7\n    /* \"#utility.yul\":5102:5111   */\n  dup4\n    /* \"#utility.yul\":5083:5122   */\n  tag_71\n  jump\t// in\ntag_147:\n    /* \"#utility.yul\":5071:5122   */\n  swap6\n  pop\n    /* \"#utility.yul\":5155:5159   */\n  dup1\n    /* \"#utility.yul\":5151:5160   */\n  not\n    /* \"#utility.yul\":5144:5149   */\n  dup5\n    /* \"#utility.yul\":5140:5161   */\n  and\n    /* \"#utility.yul\":5131:5161   */\n  swap4\n  pop\n    /* \"#utility.yul\":5204:5208   */\n  dup1\n    /* \"#utility.yul\":5194:5202   */\n  dup7\n    /* \"#utility.yul\":5190:5209   */\n  and\n    /* \"#utility.yul\":5183:5188   */\n  dup5\n    /* \"#utility.yul\":5180:5210   */\n  or\n    /* \"#utility.yul\":5170:5210   */\n  swap3\n  pop\n    /* \"#utility.yul\":4899:5216   */\n  pop\n  pop\n    /* \"#utility.yul\":4823:5216   */\n  swap4\n  swap3\n  pop\n  pop\n  pop\n  jump\t// out\n    /* \"#utility.yul\":5222:5299   */\ntag_73:\n    /* \"#utility.yul\":5259:5266   */\n  0x00\n    /* \"#utility.yul\":5288:5293   */\n  dup2\n    /* \"#utility.yul\":5277:5293   */\n  swap1\n  pop\n    /* \"#utility.yul\":5222:5299   */\n  swap2\n  swap1\n  pop\n  jump\t// out\n    /* \"#utility.yul\":5305:5365   */\ntag_74:\n    /* \"#utility.yul\":5333:5336   */\n  0x00\n    /* \"#utility.yul\":5354:5359   */\n  dup2\n    /* \"#utility.yul\":5347:5359   */\n  swap1\n  pop\n    /* \"#utility.yul\":5305:5365   */\n  swap2\n  swap1\n  pop\n  jump\t// out\n    /* \"#utility.yul\":5371:5513   */\ntag_75:\n    /* \"#utility.yul\":5421:5430   */\n  0x00\n    /* \"#utility.yul\":5454:5507   */\n  tag_151\n    /* \"#utility.yul\":5472:5506   */\n  tag_152\n    /* \"#utility.yul\":5481:5505   */\n  tag_153\n    /* \"#utility.yul\":5499:5504   */\n  dup5\n    /* \"#utility.yul\":5481:5505   */\n  tag_73\n  jump\t// in\ntag_153:\n    /* \"#utility.yul\":5472:5506   */\n  tag_74\n  jump\t// in\ntag_152:\n    /* \"#utility.yul\":5454:5507   */\n  tag_73\n  jump\t// in\ntag_151:\n    /* \"#utility.yul\":5441:5507   */\n  swap1\n  pop\n    /* \"#utility.yul\":5371:5513   */\n  swap2\n  swap1\n  pop\n  jump\t// out\n    /* \"#utility.yul\":5519:5594   */\ntag_76:\n    /* \"#utility.yul\":5562:5565   */\n  0x00\n    /* \"#utility.yul\":5583:5588   */\n  dup2\n    /* \"#utility.yul\":5576:5588   */\n  swap1\n  pop\n    /* \"#utility.yul\":5519:5594   */\n  swap2\n  swap1\n  pop\n  jump\t// out\n    /* \"#utility.yul\":5600:5869   */\ntag_77:\n    /* \"#utility.yul\":5710:5749   */\n  tag_156\n    /* \"#utility.yul\":5741:5748   */\n  dup4\n    /* \"#utility.yul\":5710:5749   */\n  tag_75\n  jump\t// in\ntag_156:\n    /* \"#utility.yul\":5771:5862   */\n  tag_157\n    /* \"#utility.yul\":5820:5861   */\n  tag_158\n    /* \"#utility.yul\":5844:5860   */\n  dup3\n    /* \"#utility.yul\":5820:5861   */\n  tag_76\n  jump\t// in\ntag_158:\n    /* \"#utility.yul\":5812:5818   */\n  dup5\n    /* \"#utility.yul\":5805:5809   */\n  dup5\n    /* \"#utility.yul\":5799:5810   */\n  sload\n    /* \"#utility.yul\":5771:5862   */\n  tag_72\n  jump\t// in\ntag_157:\n    /* \"#utility.yul\":5765:5769   */\n  dup3\n    /* \"#utility.yul\":5758:5863   */\n  sstore\n    /* \"#utility.yul\":5676:5869   */\n  pop\n    /* \"#utility.yul\":5600:5869   */\n  pop\n  pop\n  pop\n  jump\t// out\n    /* \"#utility.yul\":5875:5948   */\ntag_78:\n    /* \"#utility.yul\":5920:5923   */\n  0x00\n    /* \"#utility.yul\":5875:5948   */\n  swap1\n  jump\t// out\n    /* \"#utility.yul\":5954:6143   */\ntag_79:\n    /* \"#utility.yul\":6031:6063   */\n  tag_161\n  tag_78\n  jump\t// in\ntag_161:\n    /* \"#utility.yul\":6072:6137   */\n  tag_162\n    /* \"#utility.yul\":6130:6136   */\n  dup2\n    /* \"#utility.yul\":6122:6128   */\n  dup5\n    /* \"#utility.yul\":6116:6120   */\n  dup5\n    /* \"#utility.yul\":6072:6137   */\n  tag_77\n  jump\t// in\ntag_162:\n    /* \"#utility.yul\":6007:6143   */\n  pop\n    /* \"#utility.yul\":5954:6143   */\n  pop\n  pop\n  jump\t// out\n    /* \"#utility.yul\":6149:6335   */\ntag_80:\n    /* \"#utility.yul\":6209:6329   */\ntag_164:\n    /* \"#utility.yul\":6226:6229   */\n  dup2\n    /* \"#utility.yul\":6219:6224   */\n  dup2\n    /* \"#utility.yul\":6216:6230   */\n  lt\n    /* \"#utility.yul\":6209:6329   */\n  iszero\n  tag_166\n  jumpi\n    /* \"#utility.yul\":6280:6319   */\n  tag_167\n    /* \"#utility.yul\":6317:6318   */\n  0x00\n    /* \"#utility.yul\":6310:6315   */\n  dup3\n    /* \"#utility.yul\":6280:6319   */\n  tag_79\n  jump\t// in\ntag_167:\n    /* \"#utility.yul\":6253:6254   */\n  0x01\n    /* \"#utility.yul\":6246:6251   */\n  dup2\n    /* \"#utility.yul\":6242:6255   */\n  add\n    /* \"#utility.yul\":6233:6255   */\n  swap1\n  pop\n    /* \"#utility.yul\":6209:6329   */\n  jump(tag_164)\ntag_166:\n    /* \"#utility.yul\":6149:6335   */\n  pop\n  pop\n  jump\t// out\n    /* \"#utility.yul\":6341:6884   */\ntag_81:\n    /* \"#utility.yul\":6442:6444   */\n  0x1f\n    /* \"#utility.yul\":6437:6440   */\n  dup3\n    /* \"#utility.yul\":6434:6445   */\n  gt\n    /* \"#utility.yul\":6431:6877   */\n  iszero\n  tag_169\n  jumpi\n    /* \"#utility.yul\":6476:6514   */\n  tag_170\n    /* \"#utility.yul\":6508:6513   */\n  dup2\n    /* \"#utility.yul\":6476:6514   */\n  tag_69\n  jump\t// in\ntag_170:\n    /* \"#utility.yul\":6560:6589   */\n  tag_171\n    /* \"#utility.yul\":6578:6588   */\n  dup5\n    /* \"#utility.yul\":6560:6589   */\n  tag_70\n  jump\t// in\ntag_171:\n    /* \"#utility.yul\":6550:6558   */\n  dup2\n    /* \"#utility.yul\":6546:6590   */\n  add\n    /* \"#utility.yul\":6743:6745   */\n  0x20\n    /* \"#utility.yul\":6731:6741   */\n  dup6\n    /* \"#utility.yul\":6728:6746   */\n  lt\n    /* \"#utility.yul\":6725:6774   */\n  iszero\n  tag_172\n  jumpi\n    /* \"#utility.yul\":6764:6772   */\n  dup2\n    /* \"#utility.yul\":6749:6772   */\n  swap1\n  pop\n    /* \"#utility.yul\":6725:6774   */\ntag_172:\n    /* \"#utility.yul\":6787:6867   */\n  tag_173\n    /* \"#utility.yul\":6843:6865   */\n  tag_174\n    /* \"#utility.yul\":6861:6864   */\n  dup6\n    /* \"#utility.yul\":6843:6865   */\n  tag_70\n  jump\t// in\ntag_174:\n    /* \"#utility.yul\":6833:6841   */\n  dup4\n    /* \"#utility.yul\":6829:6866   */\n  add\n    /* \"#utility.yul\":6816:6827   */\n  dup3\n    /* \"#utility.yul\":6787:6867   */\n  tag_80\n  jump\t// in\ntag_173:\n    /* \"#utility.yul\":6446:6877   */\n  pop\n  pop\n    /* \"#utility.yul\":6431:6877   */\ntag_169:\n    /* \"#utility.yul\":6341:6884   */\n  pop\n  pop\n  pop\n  jump\t// out\n    /* \"#utility.yul\":6890:7007   */\ntag_82:\n    /* \"#utility.yul\":6944:6952   */\n  0x00\n    /* \"#utility.yul\":6994:6999   */\n  dup3\n    /* \"#utility.yul\":6988:6992   */\n  dup3\n    /* \"#utility.yul\":6984:7000   */\n  shr\n    /* \"#utility.yul\":6963:7000   */\n  swap1\n  pop\n    /* \"#utility.yul\":6890:7007   */\n  swap3\n  swap2\n  pop\n  pop\n  jump\t// out\n    /* \"#utility.yul\":7013:7182   */\ntag_83:\n    /* \"#utility.yul\":7057:7063   */\n  0x00\n    /* \"#utility.yul\":7090:7141   */\n  tag_177\n    /* \"#utility.yul\":7138:7139   */\n  0x00\n    /* \"#utility.yul\":7134:7140   */\n  not\n    /* \"#utility.yul\":7126:7131   */\n  dup5\n    /* \"#utility.yul\":7123:7124   */\n  0x08\n    /* \"#utility.yul\":7119:7132   */\n  mul\n    /* \"#utility.yul\":7090:7141   */\n  tag_82\n  jump\t// in\ntag_177:\n    /* \"#utility.yul\":7086:7142   */\n  not\n    /* \"#utility.yul\":7171:7175   */\n  dup1\n    /* \"#utility.yul\":7165:7169   */\n  dup4\n    /* \"#utility.yul\":7161:7176   */\n  and\n    /* \"#utility.yul\":7151:7176   */\n  swap2\n  pop\n    /* \"#utility.yul\":7064:7182   */\n  pop\n    /* \"#utility.yul\":7013:7182   */\n  swap3\n  swap2\n  pop\n  pop\n  jump\t// out\n    /* \"#utility.yul\":7187:7482   */\ntag_84:\n    /* \"#utility.yul\":7263:7267   */\n  0x00\n    /* \"#utility.yul\":7409:7438   */\n  tag_179\n    /* \"#utility.yul\":7434:7437   */\n  dup4\n    /* \"#utility.yul\":7428:7432   */\n  dup4\n    /* \"#utility.yul\":7409:7438   */\n  tag_83\n  jump\t// in\ntag_179:\n    /* \"#utility.yul\":7401:7438   */\n  swap2\n  pop\n    /* \"#utility.yul\":7471:7474   */\n  dup3\n    /* \"#utility.yul\":7468:7469   */\n  0x02\n    /* \"#utility.yul\":7464:7475   */\n  mul\n    /* \"#utility.yul\":7458:7462   */\n  dup3\n    /* \"#utility.yul\":7455:7476   */\n  or\n    /* \"#utility.yul\":7447:7476   */\n  swap1\n  pop\n    /* \"#utility.yul\":7187:7482   */\n  swap3\n  swap2\n  pop\n  pop\n  jump\t// out\n    /* \"#utility.yul\":7487:8882   */\ntag_9:\n    /* \"#utility.yul\":7604:7641   */\n  tag_181\n    /* \"#utility.yul\":7637:7640   */\n  dup3\n    /* \"#utility.yul\":7604:7641   */\n  tag_66\n  jump\t// in\ntag_181:\n    /* \"#utility.yul\":7706:7724   */\n  0xffffffffffffffff\n    /* \"#utility.yul\":7698:7704   */\n  dup2\n    /* \"#utility.yul\":7695:7725   */\n  gt\n    /* \"#utility.yul\":7692:7748   */\n  iszero\n  tag_182\n  jumpi\n    /* \"#utility.yul\":7728:7746   */\n  tag_183\n  tag_55\n  jump\t// in\ntag_183:\n    /* \"#utility.yul\":7692:7748   */\ntag_182:\n    /* \"#utility.yul\":7772:7810   */\n  tag_184\n    /* \"#utility.yul\":7804:7808   */\n  dup3\n    /* \"#utility.yul\":7798:7809   */\n  sload\n    /* \"#utility.yul\":7772:7810   */\n  tag_68\n  jump\t// in\ntag_184:\n    /* \"#utility.yul\":7857:7924   */\n  tag_185\n    /* \"#utility.yul\":7917:7923   */\n  dup3\n    /* \"#utility.yul\":7909:7915   */\n  dup3\n    /* \"#utility.yul\":7903:7907   */\n  dup6\n    /* \"#utility.yul\":7857:7924   */\n  tag_81\n  jump\t// in\ntag_185:\n    /* \"#utility.yul\":7951:7952   */\n  0x00\n    /* \"#utility.yul\":7975:7979   */\n  0x20\n    /* \"#utility.yul\":7962:7979   */\n  swap1\n  pop\n    /* \"#utility.yul\":8007:8009   */\n  0x1f\n    /* \"#utility.yul\":7999:8005   */\n  dup4\n    /* \"#utility.yul\":7996:8010   */\n  gt\n    /* \"#utility.yul\":8024:8025   */\n  0x01\n    /* \"#utility.yul\":8019:8637   */\n  dup2\n  eq\n  tag_187\n  jumpi\n    /* \"#utility.yul\":8681:8682   */\n  0x00\n    /* \"#utility.yul\":8698:8704   */\n  dup5\n    /* \"#utility.yul\":8695:8772   */\n  iszero\n  tag_188\n  jumpi\n    /* \"#utility.yul\":8747:8756   */\n  dup3\n    /* \"#utility.yul\":8742:8745   */\n  dup8\n    /* \"#utility.yul\":8738:8757   */\n  add\n    /* \"#utility.yul\":8732:8758   */\n  mload\n    /* \"#utility.yul\":8723:8758   */\n  swap1\n  pop\n    /* \"#utility.yul\":8695:8772   */\ntag_188:\n    /* \"#utility.yul\":8798:8865   */\n  tag_189\n    /* \"#utility.yul\":8858:8864   */\n  dup6\n    /* \"#utility.yul\":8851:8856   */\n  dup3\n    /* \"#utility.yul\":8798:8865   */\n  tag_84\n  jump\t// in\ntag_189:\n    /* \"#utility.yul\":8792:8796   */\n  dup7\n    /* \"#utility.yul\":8785:8866   */\n  sstore\n    /* \"#utility.yul\":8654:8876   */\n  pop\n    /* \"#utility.yul\":7989:8876   */\n  jump(tag_186)\n    /* \"#utility.yul\":8019:8637   */\ntag_187:\n    /* \"#utility.yul\":8071:8075   */\n  0x1f\n    /* \"#utility.yul\":8067:8076   */\n  not\n    /* \"#utility.yul\":8059:8065   */\n  dup5\n    /* \"#utility.yul\":8055:8077   */\n  and\n    /* \"#utility.yul\":8105:8142   */\n  tag_190\n    /* \"#utility.yul\":8137:8141   */\n  dup7\n    /* \"#utility.yul\":8105:8142   */\n  tag_69\n  jump\t// in\ntag_190:\n    /* \"#utility.yul\":8164:8165   */\n  0x00\n    /* \"#utility.yul\":8178:8386   */\ntag_191:\n    /* \"#utility.yul\":8192:8199   */\n  dup3\n    /* \"#utility.yul\":8189:8190   */\n  dup2\n    /* \"#utility.yul\":8186:8200   */\n  lt\n    /* \"#utility.yul\":8178:8386   */\n  iszero\n  tag_193\n  jumpi\n    /* \"#utility.yul\":8271:8280   */\n  dup5\n    /* \"#utility.yul\":8266:8269   */\n  dup10\n    /* \"#utility.yul\":8262:8281   */\n  add\n    /* \"#utility.yul\":8256:8282   */\n  mload\n    /* \"#utility.yul\":8248:8254   */\n  dup3\n    /* \"#utility.yul\":8241:8283   */\n  sstore\n    /* \"#utility.yul\":8322:8323   */\n  0x01\n    /* \"#utility.yul\":8314:8320   */\n  dup3\n    /* \"#utility.yul\":8310:8324   */\n  add\n    /* \"#utility.yul\":8300:8324   */\n  swap2\n  pop\n    /* \"#utility.yul\":8369:8371   */\n  0x20\n    /* \"#utility.yul\":8358:8367   */\n  dup6\n    /* \"#utility.yul\":8354:8372   */\n  add\n    /* \"#utility.yul\":8341:8372   */\n  swap5\n  pop\n    /* \"#utility.yul\":8215:8219   */\n  0x20\n    /* \"#utility.yul\":8212:8213   */\n  dup2\n    /* \"#utility.yul\":8208:8220   */\n  add\n    /* \"#utility.yul\":8203:8220   */\n  swap1\n  pop\n    /* \"#utility.yul\":8178:8386   */\n  jump(tag_191)\ntag_193:\n    /* \"#utility.yul\":8414:8420   */\n  dup7\n    /* \"#utility.yul\":8405:8412   */\n  dup4\n    /* \"#utility.yul\":8402:8421   */\n  lt\n    /* \"#utility.yul\":8399:8578   */\n  iszero\n  tag_194\n  jumpi\n    /* \"#utility.yul\":8472:8481   */\n  dup5\n    /* \"#utility.yul\":8467:8470   */\n  dup10\n    /* \"#utility.yul\":8463:8482   */\n  add\n    /* \"#utility.yul\":8457:8483   */\n  mload\n    /* \"#utility.yul\":8515:8563   */\n  tag_195\n    /* \"#utility.yul\":8557:8561   */\n  0x1f\n    /* \"#utility.yul\":8549:8555   */\n  dup10\n    /* \"#utility.yul\":8545:8562   */\n  and\n    /* \"#utility.yul\":8534:8543   */\n  dup3\n    /* \"#utility.yul\":8515:8563   */\n  tag_83\n  jump\t// in\ntag_195:\n    /* \"#utility.yul\":8507:8513   */\n  dup4\n    /* \"#utility.yul\":8500:8564   */\n  sstore\n    /* \"#utility.yul\":8422:8578   */\n  pop\n    /* \"#utility.yul\":8399:8578   */\ntag_194:\n    /* \"#utility.yul\":8624:8625   */\n  0x01\n    /* \"#utility.yul\":8620:8621   */\n  0x02\n    /* \"#utility.yul\":8612:8618   */\n  dup9\n    /* \"#utility.yul\":8608:8622   */\n  mul\n    /* \"#utility.yul\":8604:8626   */\n  add\n    /* \"#utility.yul\":8598:8602   */\n  dup9\n    /* \"#utility.yul\":8591:8627   */\n  sstore\n    /* \"#utility.yul\":8026:8637   */\n  pop\n  pop\n  pop\n    /* \"#utility.yul\":7989:8876   */\ntag_186:\n  pop\n    /* \"#utility.yul\":7579:8882   */\n  pop\n  pop\n  pop\n    /* \"#utility.yul\":7487:8882   */\n  pop\n  pop\n  jump\t// out\n    /* \"#utility.yul\":8888:9006   */\ntag_85:\n    /* \"#utility.yul\":8975:8999   */\n  tag_197\n    /* \"#utility.yul\":8993:8998   */\n  dup2\n    /* \"#utility.yul\":8975:8999   */\n  tag_61\n  jump\t// in\ntag_197:\n    /* \"#utility.yul\":8970:8973   */\n  dup3\n    /* \"#utility.yul\":8963:9000   */\n  mstore\n    /* \"#utility.yul\":8888:9006   */\n  pop\n  pop\n  jump\t// out\n    /* \"#utility.yul\":9012:9234   */\ntag_14:\n    /* \"#utility.yul\":9105:9109   */\n  0x00\n    /* \"#utility.yul\":9143:9145   */\n  0x20\n    /* \"#utility.yul\":9132:9141   */\n  dup3\n    /* \"#utility.yul\":9128:9146   */\n  add\n    /* \"#utility.yul\":9120:9146   */\n  swap1\n  pop\n    /* \"#utility.yul\":9156:9227   */\n  tag_199\n    /* \"#utility.yul\":9224:9225   */\n  0x00\n    /* \"#utility.yul\":9213:9222   */\n  dup4\n    /* \"#utility.yul\":9209:9226   */\n  add\n    /* \"#utility.yul\":9200:9206   */\n  dup5\n    /* \"#utility.yul\":9156:9227   */\n  tag_85\n  jump\t// in\ntag_199:\n    /* \"#utility.yul\":9012:9234   */\n  swap3\n  swap2\n  pop\n  pop\n  jump\t// out\n    /* \"#utility.yul\":9240:9409   */\ntag_86:\n    /* \"#utility.yul\":9324:9335   */\n  0x00\n    /* \"#utility.yul\":9358:9364   */\n  dup3\n    /* \"#utility.yul\":9353:9356   */\n  dup3\n    /* \"#utility.yul\":9346:9365   */\n  mstore\n    /* \"#utility.yul\":9398:9402   */\n  0x20\n    /* \"#utility.yul\":9393:9396   */\n  dup3\n    /* \"#utility.yul\":9389:9403   */\n  add\n    /* \"#utility.yul\":9374:9403   */\n  swap1\n  pop\n    /* \"#utility.yul\":9240:9409   */\n  swap3\n  swap2\n  pop\n  pop\n  jump\t// out\n    /* \"#utility.yul\":9415:9643   */\ntag_87:\n    /* \"#utility.yul\":9555:9589   */\n  0x4174206c65617374206f6e652077686974656c69737465642061646472657373\n    /* \"#utility.yul\":9551:9552   */\n  0x00\n    /* \"#utility.yul\":9543:9549   */\n  dup3\n    /* \"#utility.yul\":9539:9553   */\n  add\n    /* \"#utility.yul\":9532:9590   */\n  mstore\n    /* \"#utility.yul\":9624:9635   */\n  0x2072657175697265640000000000000000000000000000000000000000000000\n    /* \"#utility.yul\":9619:9621   */\n  0x20\n    /* \"#utility.yul\":9611:9617   */\n  dup3\n    /* \"#utility.yul\":9607:9622   */\n  add\n    /* \"#utility.yul\":9600:9636   */\n  mstore\n    /* \"#utility.yul\":9415:9643   */\n  pop\n  jump\t// out\n    /* \"#utility.yul\":9649:10015   */\ntag_88:\n    /* \"#utility.yul\":9791:9794   */\n  0x00\n    /* \"#utility.yul\":9812:9879   */\n  tag_203\n    /* \"#utility.yul\":9876:9878   */\n  0x29\n    /* \"#utility.yul\":9871:9874   */\n  dup4\n    /* \"#utility.yul\":9812:9879   */\n  tag_86\n  jump\t// in\ntag_203:\n    /* \"#utility.yul\":9805:9879   */\n  swap2\n  pop\n    /* \"#utility.yul\":9888:9981   */\n  tag_204\n    /* \"#utility.yul\":9977:9980   */\n  dup3\n    /* \"#utility.yul\":9888:9981   */\n  tag_87\n  jump\t// in\ntag_204:\n    /* \"#utility.yul\":10006:10008   */\n  0x40\n    /* \"#utility.yul\":10001:10004   */\n  dup3\n    /* \"#utility.yul\":9997:10009   */\n  add\n    /* \"#utility.yul\":9990:10009   */\n  swap1\n  pop\n    /* \"#utility.yul\":9649:10015   */\n  swap2\n  swap1\n  pop\n  jump\t// out\n    /* \"#utility.yul\":10021:10440   */\ntag_20:\n    /* \"#utility.yul\":10187:10191   */\n  0x00\n    /* \"#utility.yul\":10225:10227   */\n  0x20\n    /* \"#utility.yul\":10214:10223   */\n  dup3\n    /* \"#utility.yul\":10210:10228   */\n  add\n    /* \"#utility.yul\":10202:10228   */\n  swap1\n  pop\n    /* \"#utility.yul\":10274:10283   */\n  dup2\n    /* \"#utility.yul\":10268:10272   */\n  dup2\n    /* \"#utility.yul\":10264:10284   */\n  sub\n    /* \"#utility.yul\":10260:10261   */\n  0x00\n    /* \"#utility.yul\":10249:10258   */\n  dup4\n    /* \"#utility.yul\":10245:10262   */\n  add\n    /* \"#utility.yul\":10238:10285   */\n  mstore\n    /* \"#utility.yul\":10302:10433   */\n  tag_206\n    /* \"#utility.yul\":10428:10432   */\n  dup2\n    /* \"#utility.yul\":10302:10433   */\n  tag_88\n  jump\t// in\ntag_206:\n    /* \"#utility.yul\":10294:10433   */\n  swap1\n  pop\n    /* \"#utility.yul\":10021:10440   */\n  swap2\n  swap1\n  pop\n  jump\t// out\n    /* \"#utility.yul\":10446:10626   */\ntag_26:\n    /* \"#utility.yul\":10494:10571   */\n  0x4e487b7100000000000000000000000000000000000000000000000000000000\n    /* \"#utility.yul\":10491:10492   */\n  0x00\n    /* \"#utility.yul\":10484:10572   */\n  mstore\n    /* \"#utility.yul\":10591:10595   */\n  0x32\n    /* \"#utility.yul\":10588:10589   */\n  0x04\n    /* \"#utility.yul\":10581:10596   */\n  mstore\n    /* \"#utility.yul\":10615:10619   */\n  0x24\n    /* \"#utility.yul\":10612:10613   */\n  0x00\n    /* \"#utility.yul\":10605:10620   */\n  revert\n    /* \"#utility.yul\":10632:10812   */\ntag_89:\n    /* \"#utility.yul\":10680:10757   */\n  0x4e487b7100000000000000000000000000000000000000000000000000000000\n    /* \"#utility.yul\":10677:10678   */\n  0x00\n    /* \"#utility.yul\":10670:10758   */\n  mstore\n    /* \"#utility.yul\":10777:10781   */\n  0x11\n    /* \"#utility.yul\":10774:10775   */\n  0x04\n    /* \"#utility.yul\":10767:10782   */\n  mstore\n    /* \"#utility.yul\":10801:10805   */\n  0x24\n    /* \"#utility.yul\":10798:10799   */\n  0x00\n    /* \"#utility.yul\":10791:10806   */\n  revert\n    /* \"#utility.yul\":10818:11051   */\ntag_28:\n    /* \"#utility.yul\":10857:10860   */\n  0x00\n    /* \"#utility.yul\":10880:10904   */\n  tag_210\n    /* \"#utility.yul\":10898:10903   */\n  dup3\n    /* \"#utility.yul\":10880:10904   */\n  tag_73\n  jump\t// in\ntag_210:\n    /* \"#utility.yul\":10871:10904   */\n  swap2\n  pop\n    /* \"#utility.yul\":10926:10992   */\n  0xffffffffffffffffffffffffffffffffffffffffffffffffffffffffffffffff\n    /* \"#utility.yul\":10919:10924   */\n  dup3\n    /* \"#utility.yul\":10916:10993   */\n  sub\n    /* \"#utility.yul\":10913:11016   */\n  tag_211\n  jumpi\n    /* \"#utility.yul\":10996:11014   */\n  tag_212\n  tag_89\n  jump\t// in\ntag_212:\n    /* \"#utility.yul\":10913:11016   */\ntag_211:\n    /* \"#utility.yul\":11043:11044   */\n  0x01\n    /* \"#utility.yul\":11036:11041   */\n  dup3\n    /* \"#utility.yul\":11032:11045   */\n  add\n    /* \"#utility.yul\":11025:11045   */\n  swap1\n  pop\n    /* \"#utility.yul\":10818:11051   */\n  swap2\n  swap1\n  pop\n  jump\t// out\n    /* \"#utility.yul\":11057:11248   */\ntag_41:\n    /* \"#utility.yul\":11097:11100   */\n  0x00\n    /* \"#utility.yul\":11116:11136   */\n  tag_214\n    /* \"#utility.yul\":11134:11135   */\n  dup3\n    /* \"#utility.yul\":11116:11136   */\n  tag_73\n  jump\t// in\ntag_214:\n    /* \"#utility.yul\":11111:11136   */\n  swap2\n  pop\n    /* \"#utility.yul\":11150:11170   */\n  tag_215\n    /* \"#utility.yul\":11168:11169   */\n  dup4\n    /* \"#utility.yul\":11150:11170   */\n  tag_73\n  jump\t// in\ntag_215:\n    /* \"#utility.yul\":11145:11170   */\n  swap3\n  pop\n    /* \"#utility.yul\":11193:11194   */\n  dup3\n    /* \"#utility.yul\":11190:11191   */\n  dup3\n    /* \"#utility.yul\":11186:11195   */\n  add\n    /* \"#utility.yul\":11179:11195   */\n  swap1\n  pop\n    /* \"#utility.yul\":11214:11217   */\n  dup1\n    /* \"#utility.yul\":11211:11212   */\n  dup3\n    /* \"#utility.yul\":11208:11218   */\n  gt\n    /* \"#utility.yul\":11205:11241   */\n  iszero\n  tag_216\n  jumpi\n    /* \"#utility.yul\":11221:11239   */\n  tag_217\n  tag_89\n  jump\t// in\ntag_217:\n    /* \"#utility.yul\":11205:11241   */\ntag_216:\n    /* \"#utility.yul\":11057:11248   */\n  swap3\n  swap2\n  pop\n  pop\n  jump\t// out\n    /* \"#utility.yul\":11254:11372   */\ntag_90:\n    /* \"#utility.yul\":11341:11365   */\n  tag_219\n    /* \"#utility.yul\":11359:11364   */\n  dup2\n    /* \"#utility.yul\":11341:11365   */\n  tag_73\n  jump\t// in\ntag_219:\n    /* \"#utility.yul\":11336:11339   */\n  dup3\n    /* \"#utility.yul\":11329:11366   */\n  mstore\n    /* \"#utility.yul\":11254:11372   */\n  pop\n  pop\n  jump\t// out\n    /* \"#utility.yul\":11378:11820   */\ntag_45:\n    /* \"#utility.yul\":11527:11531   */\n  0x00\n    /* \"#utility.yul\":11565:11567   */\n  0x60\n    /* \"#utility.yul\":11554:11563   */\n  dup3\n    /* \"#utility.yul\":11550:11568   */\n  add\n    /* \"#utility.yul\":11542:11568   */\n  swap1\n  pop\n    /* \"#utility.yul\":11578:11649   */\n  tag_221\n    /* \"#utility.yul\":11646:11647   */\n  0x00\n    /* \"#utility.yul\":11635:11644   */\n  dup4\n    /* \"#utility.yul\":11631:11648   */\n  add\n    /* \"#utility.yul\":11622:11628   */\n  dup7\n    /* \"#utility.yul\":11578:11649   */\n  tag_85\n  jump\t// in\ntag_221:\n    /* \"#utility.yul\":11659:11731   */\n  tag_222\n    /* \"#utility.yul\":11727:11729   */\n  0x20\n    /* \"#utility.yul\":11716:11725   */\n  dup4\n    /* \"#utility.yul\":11712:11730   */\n  add\n    /* \"#utility.yul\":11703:11709   */\n  dup6\n    /* \"#utility.yul\":11659:11731   */\n  tag_90\n  jump\t// in\ntag_222:\n    /* \"#utility.yul\":11741:11813   */\n  tag_223\n    /* \"#utility.yul\":11809:11811   */\n  0x40\n    /* \"#utility.yul\":11798:11807   */\n  dup4\n    /* \"#utility.yul\":11794:11812   */\n  add\n    /* \"#utility.yul\":11785:11791   */\n  dup5\n    /* \"#utility.yul\":11741:11813   */\n  tag_90\n  jump\t// in\ntag_223:\n    /* \"#utility.yul\":11378:11820   */\n  swap5\n  swap4\n  pop\n  pop\n  pop\n  pop\n  jump\t// out\n    /* \"#utility.yul\":11826:12048   */\ntag_49:\n    /* \"#utility.yul\":11919:11923   */\n  0x00\n    /* \"#utility.yul\":11957:11959   */\n  0x20\n    /* \"#utility.yul\":11946:11955   */\n  dup3\n    /* \"#utility.yul\":11942:11960   */\n  add\n    /* \"#utility.yul\":11934:11960   */\n  swap1\n  pop\n    /* \"#utility.yul\":11970:12041   */\n  tag_225\n    /* \"#utility.yul\":12038:12039   */\n  0x00\n    /* \"#utility.yul\":12027:12036   */\n  dup4\n    /* \"#utility.yul\":12023:12040   */\n  add\n    /* \"#utility.yul\":12014:12020   */\n  dup5\n    /* \"#utility.yul\":11970:12041   */\n  tag_90\n  jump\t// in\ntag_225:\n    /* \"#utility.yul\":11826:12048   */\n  swap3\n  swap2\n  pop\n  pop\n  jump\t// out\n    /* \"contracts/CCK/CCKToken.sol\":309:3939  contract CCKToken is ERC20, Ownable, IERC3643 {... */\ntag_31:\n  dataSize(sub_0)\n  dup1\n  dataOffset(sub_0)\n  0x00\n  codecopy\n  0x00\n  return\nstop\n\nsub_0: assembly {\n        /* \"contracts/CCK/CCKToken.sol\":309:3939  contract CCKToken is ERC20, Ownable, IERC3643 {... */\n      mstore(0x40, 0x80)\n      callvalue\n      dup1\n      iszero\n      tag_1\n      jumpi\n      0x00\n      dup1\n      revert\n    tag_1:\n      pop\n      jumpi(tag_2, lt(calldatasize, 0x04))\n      shr(0xe0, calldataload(0x00))\n      dup1\n      0x8ab1d681\n      gt\n      tag_33\n      jumpi\n      dup1\n      0xcb4b73ab\n      gt\n      tag_34\n      jumpi\n      dup1\n      0xe08ba51a\n      gt\n      tag_35\n      jumpi\n      dup1\n      0xe08ba51a\n      eq\n      tag_29\n      jumpi\n      dup1\n      0xe43252d7\n      eq\n      tag_30\n      jumpi\n      dup1\n      0xe5839836\n      eq\n      tag_31\n      jumpi\n      dup1\n      0xf2fde38b\n      eq\n      tag_32\n      jumpi\n      jump(tag_2)\n    tag_35:\n      dup1\n      0xcb4b73ab\n      eq\n      tag_25\n      jumpi\n      dup1\n      0xd0516650\n      eq\n      tag_26\n      jumpi\n      dup1\n      0xda0239a6\n      eq\n      tag_27\n      jumpi\n      dup1\n      0xdd62ed3e\n      eq\n      tag_28\n      jumpi\n      jump(tag_2)\n    tag_34:\n      dup1\n      0x95d89b41\n      gt\n      tag_36\n      jumpi\n      dup1\n      0x95d89b41\n      eq\n      tag_21\n      jumpi\n      dup1\n      0x9b19251a\n      eq\n      tag_22\n      jumpi\n      dup1\n      0xa9059cbb\n      eq\n      tag_23\n      jumpi\n      dup1\n      0xaba63705\n      eq\n      tag_24\n      jumpi\n      jump(tag_2)\n    tag_36:\n      dup1\n      0x8ab1d681\n      eq\n      tag_18\n      jumpi\n      dup1\n      0x8da5cb5b\n      eq\n      tag_19\n      jumpi\n      dup1\n      0x902d55a5\n      eq\n      tag_20\n      jumpi\n      jump(tag_2)\n    tag_33:\n      dup1\n      0x2d380242\n      gt\n      tag_37\n      jumpi\n      dup1\n      0x5c975abb\n      gt\n      tag_38\n      jumpi\n      dup1\n      0x5c975abb\n      eq\n      tag_14\n      jumpi\n      dup1\n      0x6290865d\n      eq\n      tag_15\n      jumpi\n      dup1\n      0x70a08231\n      eq\n      tag_16\n      jumpi\n      dup1\n      0x715018a6\n      eq\n      tag_17\n      jumpi\n      jump(tag_2)\n    tag_38:\n      dup1\n      0x2d380242\n      eq\n      tag_10\n      jumpi\n      dup1\n      0x313ce567\n      eq\n      tag_11\n      jumpi\n      dup1\n      0x40c10f19\n      eq\n      tag_12\n      jumpi\n      dup1\n      0x54fd4d50\n      eq\n      tag_13\n      jumpi\n      jump(tag_2)\n    tag_37:\n      dup1\n      0x134e18f4\n      gt\n      tag_39\n      jumpi\n      dup1\n      0x134e18f4\n      eq\n      tag_6\n      jumpi\n      dup1\n      0x158b1a57\n      eq\n      tag_7\n      jumpi\n      dup1\n      0x18160ddd\n      eq\n      tag_8\n      jumpi\n      dup1\n      0x23b872dd\n      eq\n      tag_9\n      jumpi\n      jump(tag_2)\n    tag_39:\n      dup1\n      0x06fdde03\n      eq\n      tag_3\n      jumpi\n      dup1\n      0x095ea7b3\n      eq\n      tag_4\n      jumpi\n      dup1\n      0x12cae7af\n      eq\n      tag_5\n      jumpi\n    tag_2:\n      0x00\n      dup1\n      revert\n        /* \"@openzeppelin/contracts/token/ERC20/ERC20.sol\":1760:1849  function name() public view virtual returns (string memory) {... */\n    tag_3:\n      tag_40\n      tag_41\n      jump\t// in\n    tag_40:\n      mload(0x40)\n      tag_42\n      swap2\n      swap1\n      tag_43\n      jump\t// in\n    tag_42:\n      mload(0x40)\n      dup1\n      swap2\n      sub\n      swap1\n      return\n        /* \"@openzeppelin/contracts/token/ERC20/ERC20.sol\":3979:4165  function approve(address spender, uint256 value) public virtual returns (bool) {... */\n    tag_4:\n      tag_44\n      0x04\n      dup1\n      calldatasize\n      sub\n      dup2\n      add\n      swap1\n      tag_45\n      swap2\n      swap1\n      tag_46\n      jump\t// in\n    tag_45:\n      tag_47\n      jump\t// in\n    tag_44:\n      mload(0x40)\n      tag_48\n      swap2\n      swap1\n      tag_49\n      jump\t// in\n    tag_48:\n      mload(0x40)\n      dup1\n      swap2\n      sub\n      swap1\n      return\n        /* \"contracts/CCK/CCKToken.sol\":3793:3936  function balanceOfUser(address user) external view returns (uint256) {... */\n    tag_5:\n      tag_50\n      0x04\n      dup1\n      calldatasize\n      sub\n      dup2\n      add\n      swap1\n      tag_51\n      swap2\n      swap1\n      tag_52\n      jump\t// in\n    tag_51:\n      tag_53\n      jump\t// in\n    tag_50:\n      mload(0x40)\n      tag_54\n      swap2\n      swap1\n      tag_55\n      jump\t// in\n    tag_54:\n      mload(0x40)\n      dup1\n      swap2\n      sub\n      swap1\n      return\n        /* \"contracts/CCK/CCKToken.sol\":2020:2159  function identityRegistry() external view override returns (address) {... */\n    tag_6:\n      tag_56\n      tag_57\n      jump\t// in\n    tag_56:\n      mload(0x40)\n      tag_58\n      swap2\n      swap1\n      tag_59\n      jump\t// in\n    tag_58:\n      mload(0x40)\n      dup1\n      swap2\n      sub\n      swap1\n      return\n        /* \"contracts/CCK/CCKToken.sol\":2559:2710  function getFrozenTokens(address userAddress) external view override returns (uint256) {... */\n    tag_7:\n      tag_60\n      0x04\n      dup1\n      calldatasize\n      sub\n      dup2\n      add\n      swap1\n      tag_61\n      swap2\n      swap1\n      tag_52\n      jump\t// in\n    tag_61:\n      tag_62\n      jump\t// in\n    tag_60:\n      mload(0x40)\n      tag_63\n      swap2\n      swap1\n      tag_55\n      jump\t// in\n    tag_63:\n      mload(0x40)\n      dup1\n      swap2\n      sub\n      swap1\n      return\n        /* \"@openzeppelin/contracts/token/ERC20/ERC20.sol\":2830:2927  function totalSupply() public view virtual returns (uint256) {... */\n    tag_8:\n      tag_64\n      tag_65\n      jump\t// in\n    tag_64:\n      mload(0x40)\n      tag_66\n      swap2\n      swap1\n      tag_55\n      jump\t// in\n    tag_66:\n      mload(0x40)\n      dup1\n      swap2\n      sub\n      swap1\n      return\n        /* \"contracts/CCK/CCKToken.sol\":3116:3429  function transferFrom(address sender, address recipient, uint256 amount) public override returns (bool) {... */\n    tag_9:\n      tag_67\n      0x04\n      dup1\n      calldatasize\n      sub\n      dup2\n      add\n      swap1\n      tag_68\n      swap2\n      swap1\n      tag_69\n      jump\t// in\n    tag_68:\n      tag_70\n      jump\t// in\n    tag_67:\n      mload(0x40)\n      tag_71\n      swap2\n      swap1\n      tag_49\n      jump\t// in\n    tag_71:\n      mload(0x40)\n      dup1\n      swap2\n      sub\n      swap1\n      return\n        /* \"contracts/CCK/CCKToken.sol\":562:589  uint256 public mintedAmount */\n    tag_10:\n      tag_72\n      tag_73\n      jump\t// in\n    tag_72:\n      mload(0x40)\n      tag_74\n      swap2\n      swap1\n      tag_55\n      jump\t// in\n    tag_74:\n      mload(0x40)\n      dup1\n      swap2\n      sub\n      swap1\n      return\n        /* \"@openzeppelin/contracts/token/ERC20/ERC20.sol\":2688:2770  function decimals() public view virtual returns (uint8) {... */\n    tag_11:\n      tag_75\n      tag_76\n      jump\t// in\n    tag_75:\n      mload(0x40)\n      tag_77\n      swap2\n      swap1\n      tag_78\n      jump\t// in\n    tag_77:\n      mload(0x40)\n      dup1\n      swap2\n      sub\n      swap1\n      return\n        /* \"contracts/CCK/CCKToken.sol\":3479:3743  function mint(address to, uint256 amount) external onlyOwner {... */\n    tag_12:\n      tag_79\n      0x04\n      dup1\n      calldatasize\n      sub\n      dup2\n      add\n      swap1\n      tag_80\n      swap2\n      swap1\n      tag_46\n      jump\t// in\n    tag_80:\n      tag_81\n      jump\t// in\n    tag_79:\n      stop\n        /* \"contracts/CCK/CCKToken.sol\":1913:2012  function version() external view override returns (string memory) {... */\n    tag_13:\n      tag_82\n      tag_83\n      jump\t// in\n    tag_82:\n      mload(0x40)\n      tag_84\n      swap2\n      swap1\n      tag_43\n      jump\t// in\n    tag_84:\n      mload(0x40)\n      dup1\n      swap2\n      sub\n      swap1\n      return\n        /* \"contracts/CCK/CCKToken.sol\":2305:2393  function paused() external view override returns (bool) {... */\n    tag_14:\n      tag_85\n      tag_86\n      jump\t// in\n    tag_85:\n      mload(0x40)\n      tag_87\n      swap2\n      swap1\n      tag_49\n      jump\t// in\n    tag_87:\n      mload(0x40)\n      dup1\n      swap2\n      sub\n      swap1\n      return\n        /* \"contracts/CCK/CCKToken.sol\":2167:2297  function compliance() external view override returns (address) {... */\n    tag_15:\n      tag_88\n      tag_89\n      jump\t// in\n    tag_88:\n      mload(0x40)\n      tag_90\n      swap2\n      swap1\n      tag_59\n      jump\t// in\n    tag_90:\n      mload(0x40)\n      dup1\n      swap2\n      sub\n      swap1\n      return\n        /* \"@openzeppelin/contracts/token/ERC20/ERC20.sol\":2985:3101  function balanceOf(address account) public view virtual returns (uint256) {... */\n    tag_16:\n      tag_91\n      0x04\n      dup1\n      calldatasize\n      sub\n      dup2\n      add\n      swap1\n      tag_92\n      swap2\n      swap1\n      tag_52\n      jump\t// in\n    tag_92:\n      tag_93\n      jump\t// in\n    tag_91:\n      mload(0x40)\n      tag_94\n      swap2\n      swap1\n      tag_55\n      jump\t// in\n    tag_94:\n      mload(0x40)\n      dup1\n      swap2\n      sub\n      swap1\n      return\n        /* \"@openzeppelin/contracts/access/Ownable.sol\":2293:2394  function renounceOwnership() public virtual onlyOwner {... */\n    tag_17:\n      tag_95\n      tag_96\n      jump\t// in\n    tag_95:\n      stop\n        /* \"contracts/CCK/CCKToken.sol\":1211:1319  function removeFromWhitelist(address member) external onlyOwner {... */\n    tag_18:\n      tag_97\n      0x04\n      dup1\n      calldatasize\n      sub\n      dup2\n      add\n      swap1\n      tag_98\n      swap2\n      swap1\n      tag_52\n      jump\t// in\n    tag_98:\n      tag_99\n      jump\t// in\n    tag_97:\n      stop\n        /* \"@openzeppelin/contracts/access/Ownable.sol\":1638:1723  function owner() public view virtual returns (address) {... */\n    tag_19:\n      tag_100\n      tag_101\n      jump\t// in\n    tag_100:\n      mload(0x40)\n      tag_102\n      swap2\n      swap1\n      tag_59\n      jump\t// in\n    tag_102:\n      mload(0x40)\n      dup1\n      swap2\n      sub\n      swap1\n      return\n        /* \"contracts/CCK/CCKToken.sol\":362:417  uint256 public constant TOTAL_SUPPLY = 500_000 * 10**18 */\n    tag_20:\n      tag_103\n      tag_104\n      jump\t// in\n    tag_103:\n      mload(0x40)\n      tag_105\n      swap2\n      swap1\n      tag_55\n      jump\t// in\n    tag_105:\n      mload(0x40)\n      dup1\n      swap2\n      sub\n      swap1\n      return\n        /* \"@openzeppelin/contracts/token/ERC20/ERC20.sol\":1962:2055  function symbol() public view virtual returns (string memory) {... */\n    tag_21:\n      tag_106\n      tag_107\n      jump\t// in\n    tag_106:\n      mload(0x40)\n      tag_108\n      swap2\n      swap1\n      tag_43\n      jump\t// in\n    tag_108:\n      mload(0x40)\n      dup1\n      swap2\n      sub\n      swap1\n      return\n        /* \"contracts/CCK/CCKToken.sol\":440:481  mapping(address => bool) public whitelist */\n    tag_22:\n      tag_109\n      0x04\n      dup1\n      calldatasize\n      sub\n      dup2\n      add\n      swap1\n      tag_110\n      swap2\n      swap1\n      tag_52\n      jump\t// in\n    tag_110:\n      tag_111\n      jump\t// in\n    tag_109:\n      mload(0x40)\n      tag_112\n      swap2\n      swap1\n      tag_49\n      jump\t// in\n    tag_112:\n      mload(0x40)\n      dup1\n      swap2\n      sub\n      swap1\n      return\n        /* \"contracts/CCK/CCKToken.sol\":2790:3075  function transfer(address recipient, uint256 amount) public override returns (bool) {... */\n    tag_23:\n      tag_113\n      0x04\n      dup1\n      calldatasize\n      sub\n      dup2\n      add\n      swap1\n      tag_114\n      swap2\n      swap1\n      tag_46\n      jump\t// in\n    tag_114:\n      tag_115\n      jump\t// in\n    tag_113:\n      mload(0x40)\n      tag_116\n      swap2\n      swap1\n      tag_49\n      jump\t// in\n    tag_116:\n      mload(0x40)\n      dup1\n      swap2\n      sub\n      swap1\n      return\n        /* \"contracts/CCK/CCKToken.sol\":1804:1905  function onchainID() external view override returns (address) {... */\n    tag_24:\n      tag_117\n      tag_118\n      jump\t// in\n    tag_117:\n      mload(0x40)\n      tag_119\n      swap2\n      swap1\n      tag_59\n      jump\t// in\n    tag_119:\n      mload(0x40)\n      dup1\n      swap2\n      sub\n      swap1\n      return\n        /* \"contracts/CCK/CCKToken.sol\":1468:1562  function unfreezeUser(address user) external onlyOwner {... */\n    tag_25:\n      tag_120\n      0x04\n      dup1\n      calldatasize\n      sub\n      dup2\n      add\n      swap1\n      tag_121\n      swap2\n      swap1\n      tag_52\n      jump\t// in\n    tag_121:\n      tag_122\n      jump\t// in\n    tag_120:\n      stop\n        /* \"contracts/CCK/CCKToken.sol\":501:539  mapping(address => bool) public frozen */\n    tag_26:\n      tag_123\n      0x04\n      dup1\n      calldatasize\n      sub\n      dup2\n      add\n      swap1\n      tag_124\n      swap2\n      swap1\n      tag_52\n      jump\t// in\n    tag_124:\n      tag_125\n      jump\t// in\n    tag_123:\n      mload(0x40)\n      tag_126\n      swap2\n      swap1\n      tag_49\n      jump\t// in\n    tag_126:\n      mload(0x40)\n      dup1\n      swap2\n      sub\n      swap1\n      return\n        /* \"contracts/CCK/CCKToken.sol\":1615:1761  function remainingSupply() external view returns (uint256) {... */\n    tag_27:\n      tag_127\n      tag_128\n      jump\t// in\n    tag_127:\n      mload(0x40)\n      tag_129\n      swap2\n      swap1\n      tag_55\n      jump\t// in\n    tag_129:\n      mload(0x40)\n      dup1\n      swap2\n      sub\n      swap1\n      return\n        /* \"@openzeppelin/contracts/token/ERC20/ERC20.sol\":3532:3672  function allowance(address owner, address spender) public view virtual returns (uint256) {... */\n    tag_28:\n      tag_130\n      0x04\n      dup1\n      calldatasize\n      sub\n      dup2\n      add\n      swap1\n      tag_131\n      swap2\n      swap1\n      tag_132\n      jump\t// in\n    tag_131:\n      tag_133\n      jump\t// in\n    tag_130:\n      mload(0x40)\n      tag_134\n      swap2\n      swap1\n      tag_55\n      jump\t// in\n    tag_134:\n      mload(0x40)\n      dup1\n      swap2\n      sub\n      swap1\n      return\n        /* \"contracts/CCK/CCKToken.sol\":1348:1439  function freezeUser(address user) external onlyOwner {... */\n    tag_29:\n      tag_135\n      0x04\n      dup1\n      calldatasize\n      sub\n      dup2\n      add\n      swap1\n      tag_136\n      swap2\n      swap1\n      tag_52\n      jump\t// in\n    tag_136:\n      tag_137\n      jump\t// in\n    tag_135:\n      stop\n        /* \"contracts/CCK/CCKToken.sol\":1071:1173  function addToWhitelist(address member) external onlyOwner {... */\n    tag_30:\n      tag_138\n      0x04\n      dup1\n      calldatasize\n      sub\n      dup2\n      add\n      swap1\n      tag_139\n      swap2\n      swap1\n      tag_52\n      jump\t// in\n    tag_139:\n      tag_140\n      jump\t// in\n    tag_138:\n      stop\n        /* \"contracts/CCK/CCKToken.sol\":2401:2551  function isFrozen(address userAddress) external view override returns (bool) {... */\n    tag_31:\n      tag_141\n      0x04\n      dup1\n      calldatasize\n      sub\n      dup2\n      add\n      swap1\n      tag_142\n      swap2\n      swap1\n      tag_52\n      jump\t// in\n    tag_142:\n      tag_143\n      jump\t// in\n    tag_141:\n      mload(0x40)\n      tag_144\n      swap2\n      swap1\n      tag_49\n      jump\t// in\n    tag_144:\n      mload(0x40)\n      dup1\n      swap2\n      sub\n      swap1\n      return\n        /* \"@openzeppelin/contracts/access/Ownable.sol\":2543:2758  function transferOwnership(address newOwner) public virtual onlyOwner {... */\n    tag_32:\n      tag_145\n      0x04\n      dup1\n      calldatasize\n      sub\n      dup2\n      add\n      swap1\n      tag_146\n      swap2\n      swap1\n      tag_52\n      jump\t// in\n    tag_146:\n      tag_147\n      jump\t// in\n    tag_145:\n      stop\n        /* \"@openzeppelin/contracts/token/ERC20/ERC20.sol\":1760:1849  function name() public view virtual returns (string memory) {... */\n    tag_41:\n        /* \"@openzeppelin/contracts/token/ERC20/ERC20.sol\":1805:1818  string memory */\n      0x60\n        /* \"@openzeppelin/contracts/token/ERC20/ERC20.sol\":1837:1842  _name */\n      0x03\n        /* \"@openzeppelin/contracts/token/ERC20/ERC20.sol\":1830:1842  return _name */\n      dup1\n      sload\n      tag_149\n      swap1\n      tag_150\n      jump\t// in\n    tag_149:\n      dup1\n      0x1f\n      add\n      0x20\n      dup1\n      swap2\n      div\n      mul\n      0x20\n      add\n      mload(0x40)\n      swap1\n      dup2\n      add\n      0x40\n      mstore\n      dup1\n      swap3\n      swap2\n      swap1\n      dup2\n      dup2\n      mstore\n      0x20\n      add\n      dup3\n      dup1\n      sload\n      tag_151\n      swap1\n      tag_150\n      jump\t// in\n    tag_151:\n      dup1\n      iszero\n      tag_152\n      jumpi\n      dup1\n      0x1f\n      lt\n      tag_153\n      jumpi\n      0x0100\n      dup1\n      dup4\n      sload\n      div\n      mul\n      dup4\n      mstore\n      swap2\n      0x20\n      add\n      swap2\n      jump(tag_152)\n    tag_153:\n      dup3\n      add\n      swap2\n      swap1\n      0x00\n      mstore\n      keccak256(0x00, 0x20)\n      swap1\n    tag_154:\n      dup2\n      sload\n      dup2\n      mstore\n      swap1\n      0x01\n      add\n      swap1\n      0x20\n      add\n      dup1\n      dup4\n      gt\n      tag_154\n      jumpi\n      dup3\n      swap1\n      sub\n      0x1f\n      and\n      dup3\n      add\n      swap2\n    tag_152:\n      pop\n      pop\n      pop\n      pop\n      pop\n      swap1\n      pop\n        /* \"@openzeppelin/contracts/token/ERC20/ERC20.sol\":1760:1849  function name() public view virtual returns (string memory) {... */\n      swap1\n      jump\t// out\n        /* \"@openzeppelin/contracts/token/ERC20/ERC20.sol\":3979:4165  function approve(address spender, uint256 value) public virtual returns (bool) {... */\n    tag_47:\n        /* \"@openzeppelin/contracts/token/ERC20/ERC20.sol\":4052:4056  bool */\n      0x00\n        /* \"@openzeppelin/contracts/token/ERC20/ERC20.sol\":4068:4081  address owner */\n      dup1\n        /* \"@openzeppelin/contracts/token/ERC20/ERC20.sol\":4084:4096  _msgSender() */\n      tag_156\n        /* \"@openzeppelin/contracts/token/ERC20/ERC20.sol\":4084:4094  _msgSender */\n      tag_157\n        /* \"@openzeppelin/contracts/token/ERC20/ERC20.sol\":4084:4096  _msgSender() */\n      jump\t// in\n    tag_156:\n        /* \"@openzeppelin/contracts/token/ERC20/ERC20.sol\":4068:4096  address owner = _msgSender() */\n      swap1\n      pop\n        /* \"@openzeppelin/contracts/token/ERC20/ERC20.sol\":4106:4137  _approve(owner, spender, value) */\n      tag_158\n        /* \"@openzeppelin/contracts/token/ERC20/ERC20.sol\":4115:4120  owner */\n      dup2\n        /* \"@openzeppelin/contracts/token/ERC20/ERC20.sol\":4122:4129  spender */\n      dup6\n        /* \"@openzeppelin/contracts/token/ERC20/ERC20.sol\":4131:4136  value */\n      dup6\n        /* \"@openzeppelin/contracts/token/ERC20/ERC20.sol\":4106:4114  _approve */\n      tag_159\n        /* \"@openzeppelin/contracts/token/ERC20/ERC20.sol\":4106:4137  _approve(owner, spender, value) */\n      jump\t// in\n    tag_158:\n        /* \"@openzeppelin/contracts/token/ERC20/ERC20.sol\":4154:4158  true */\n      0x01\n        /* \"@openzeppelin/contracts/token/ERC20/ERC20.sol\":4147:4158  return true */\n      swap2\n      pop\n      pop\n        /* \"@openzeppelin/contracts/token/ERC20/ERC20.sol\":3979:4165  function approve(address spender, uint256 value) public virtual returns (bool) {... */\n      swap3\n      swap2\n      pop\n      pop\n      jump\t// out\n        /* \"contracts/CCK/CCKToken.sol\":3793:3936  function balanceOfUser(address user) external view returns (uint256) {... */\n    tag_53:\n        /* \"contracts/CCK/CCKToken.sol\":3853:3860  uint256 */\n      0x00\n        /* \"contracts/CCK/CCKToken.sol\":3880:3895  balanceOf(user) */\n      tag_161\n        /* \"contracts/CCK/CCKToken.sol\":3890:3894  user */\n      dup3\n        /* \"contracts/CCK/CCKToken.sol\":3880:3889  balanceOf */\n      tag_93\n        /* \"contracts/CCK/CCKToken.sol\":3880:3895  balanceOf(user) */\n      jump\t// in\n    tag_161:\n        /* \"contracts/CCK/CCKToken.sol\":3873:3895  return balanceOf(user) */\n      swap1\n      pop\n        /* \"contracts/CCK/CCKToken.sol\":3793:3936  function balanceOfUser(address user) external view returns (uint256) {... */\n      swap2\n      swap1\n      pop\n      jump\t// out\n        /* \"contracts/CCK/CCKToken.sol\":2020:2159  function identityRegistry() external view override returns (address) {... */\n    tag_57:\n        /* \"contracts/CCK/CCKToken.sol\":2080:2087  address */\n      0x00\n        /* \"contracts/CCK/CCKToken.sol\":2020:2159  function identityRegistry() external view override returns (address) {... */\n      swap1\n      jump\t// out\n        /* \"contracts/CCK/CCKToken.sol\":2559:2710  function getFrozenTokens(address userAddress) external view override returns (uint256) {... */\n    tag_62:\n        /* \"contracts/CCK/CCKToken.sol\":2637:2644  uint256 */\n      0x00\n        /* \"contracts/CCK/CCKToken.sol\":2559:2710  function getFrozenTokens(address userAddress) external view override returns (uint256) {... */\n      swap2\n      swap1\n      pop\n      jump\t// out\n        /* \"@openzeppelin/contracts/token/ERC20/ERC20.sol\":2830:2927  function totalSupply() public view virtual returns (uint256) {... */\n    tag_65:\n        /* \"@openzeppelin/contracts/token/ERC20/ERC20.sol\":2882:2889  uint256 */\n      0x00\n        /* \"@openzeppelin/contracts/token/ERC20/ERC20.sol\":2908:2920  _totalSupply */\n      sload(0x02)\n        /* \"@openzeppelin/contracts/token/ERC20/ERC20.sol\":2901:2920  return _totalSupply */\n      swap1\n      pop\n        /* \"@openzeppelin/contracts/token/ERC20/ERC20.sol\":2830:2927  function totalSupply() public view virtual returns (uint256) {... */\n      swap1\n      jump\t// out\n        /* \"contracts/CCK/CCKToken.sol\":3116:3429  function transferFrom(address sender, address recipient, uint256 amount) public override returns (bool) {... */\n    tag_70:\n        /* \"contracts/CCK/CCKToken.sol\":3214:3218  bool */\n      0x00\n        /* \"contracts/CCK/CCKToken.sol\":3240:3246  frozen */\n      0x07\n        /* \"contracts/CCK/CCKToken.sol\":3240:3254  frozen[sender] */\n      0x00\n        /* \"contracts/CCK/CCKToken.sol\":3247:3253  sender */\n      dup6\n        /* \"contracts/CCK/CCKToken.sol\":3240:3254  frozen[sender] */\n      0xffffffffffffffffffffffffffffffffffffffff\n      and\n      0xffffffffffffffffffffffffffffffffffffffff\n      and\n      dup2\n      mstore\n      0x20\n      add\n      swap1\n      dup2\n      mstore\n      0x20\n      add\n      0x00\n      keccak256\n      0x00\n      swap1\n      sload\n      swap1\n      0x0100\n      exp\n      swap1\n      div\n      0xff\n      and\n        /* \"contracts/CCK/CCKToken.sol\":3239:3254  !frozen[sender] */\n      iszero\n        /* \"contracts/CCK/CCKToken.sol\":3231:3275  require(!frozen[sender], \"Sender is frozen\") */\n      tag_166\n      jumpi\n      mload(0x40)\n      0x08c379a000000000000000000000000000000000000000000000000000000000\n      dup2\n      mstore\n      0x04\n      add\n      tag_167\n      swap1\n      tag_168\n      jump\t// in\n    tag_167:\n      mload(0x40)\n      dup1\n      swap2\n      sub\n      swap1\n      revert\n    tag_166:\n        /* \"contracts/CCK/CCKToken.sol\":3320:3326  amount */\n      dup2\n        /* \"contracts/CCK/CCKToken.sol\":3304:3328  uint256(uint128(amount)) */\n      0xffffffffffffffffffffffffffffffff\n      and\n        /* \"contracts/CCK/CCKToken.sol\":3294:3300  amount */\n      dup3\n        /* \"contracts/CCK/CCKToken.sol\":3294:3328  amount == uint256(uint128(amount)) */\n      eq\n        /* \"contracts/CCK/CCKToken.sol\":3286:3358  require(amount == uint256(uint128(amount)), \"Amount must be an integer\") */\n      tag_169\n      jumpi\n      mload(0x40)\n      0x08c379a000000000000000000000000000000000000000000000000000000000\n      dup2\n      mstore\n      0x04\n      add\n      tag_170\n      swap1\n      tag_171\n      jump\t// in\n    tag_170:\n      mload(0x40)\n      dup1\n      swap2\n      sub\n      swap1\n      revert\n    tag_169:\n        /* \"contracts/CCK/CCKToken.sol\":3376:3421  super.transferFrom(sender, recipient, amount) */\n      tag_172\n        /* \"contracts/CCK/CCKToken.sol\":3395:3401  sender */\n      dup5\n        /* \"contracts/CCK/CCKToken.sol\":3403:3412  recipient */\n      dup5\n        /* \"contracts/CCK/CCKToken.sol\":3414:3420  amount */\n      dup5\n        /* \"contracts/CCK/CCKToken.sol\":3376:3394  super.transferFrom */\n      tag_173\n        /* \"contracts/CCK/CCKToken.sol\":3376:3421  super.transferFrom(sender, recipient, amount) */\n      jump\t// in\n    tag_172:\n        /* \"contracts/CCK/CCKToken.sol\":3369:3421  return super.transferFrom(sender, recipient, amount) */\n      swap1\n      pop\n        /* \"contracts/CCK/CCKToken.sol\":3116:3429  function transferFrom(address sender, address recipient, uint256 amount) public override returns (bool) {... */\n      swap4\n      swap3\n      pop\n      pop\n      pop\n      jump\t// out\n        /* \"contracts/CCK/CCKToken.sol\":562:589  uint256 public mintedAmount */\n    tag_73:\n      sload(0x08)\n      dup2\n      jump\t// out\n        /* \"@openzeppelin/contracts/token/ERC20/ERC20.sol\":2688:2770  function decimals() public view virtual returns (uint8) {... */\n    tag_76:\n        /* \"@openzeppelin/contracts/token/ERC20/ERC20.sol\":2737:2742  uint8 */\n      0x00\n        /* \"@openzeppelin/contracts/token/ERC20/ERC20.sol\":2761:2763  18 */\n      0x12\n        /* \"@openzeppelin/contracts/token/ERC20/ERC20.sol\":2754:2763  return 18 */\n      swap1\n      pop\n        /* \"@openzeppelin/contracts/token/ERC20/ERC20.sol\":2688:2770  function decimals() public view virtual returns (uint8) {... */\n      swap1\n      jump\t// out\n        /* \"contracts/CCK/CCKToken.sol\":3479:3743  function mint(address to, uint256 amount) external onlyOwner {... */\n    tag_81:\n        /* \"@openzeppelin/contracts/access/Ownable.sol\":1531:1544  _checkOwner() */\n      tag_176\n        /* \"@openzeppelin/contracts/access/Ownable.sol\":1531:1542  _checkOwner */\n      tag_177\n        /* \"@openzeppelin/contracts/access/Ownable.sol\":1531:1544  _checkOwner() */\n      jump\t// in\n    tag_176:\n        /* \"contracts/CCK/CCKToken.sol\":3559:3568  whitelist */\n      0x06\n        /* \"contracts/CCK/CCKToken.sol\":3559:3572  whitelist[to] */\n      0x00\n        /* \"contracts/CCK/CCKToken.sol\":3569:3571  to */\n      dup4\n        /* \"contracts/CCK/CCKToken.sol\":3559:3572  whitelist[to] */\n      0xffffffffffffffffffffffffffffffffffffffff\n      and\n      0xffffffffffffffffffffffffffffffffffffffff\n      and\n      dup2\n      mstore\n      0x20\n      add\n      swap1\n      dup2\n      mstore\n      0x20\n      add\n      0x00\n      keccak256\n      0x00\n      swap1\n      sload\n      swap1\n      0x0100\n      exp\n      swap1\n      div\n      0xff\n      and\n        /* \"contracts/CCK/CCKToken.sol\":3551:3592  require(whitelist[to], \"Not whitelisted\") */\n      tag_179\n      jumpi\n      mload(0x40)\n      0x08c379a000000000000000000000000000000000000000000000000000000000\n      dup2\n      mstore\n      0x04\n      add\n      tag_180\n      swap1\n      tag_181\n      jump\t// in\n    tag_180:\n      mload(0x40)\n      dup1\n      swap2\n      sub\n      swap1\n      revert\n    tag_179:\n        /* \"contracts/CCK/CCKToken.sol\":401:417  500_000 * 10**18 */\n      0x69e10de76676d0800000\n        /* \"contracts/CCK/CCKToken.sol\":3626:3632  amount */\n      dup2\n        /* \"contracts/CCK/CCKToken.sol\":3611:3623  mintedAmount */\n      sload(0x08)\n        /* \"contracts/CCK/CCKToken.sol\":3611:3632  mintedAmount + amount */\n      tag_182\n      swap2\n      swap1\n      tag_183\n      jump\t// in\n    tag_182:\n        /* \"contracts/CCK/CCKToken.sol\":3611:3648  mintedAmount + amount <= TOTAL_SUPPLY */\n      gt\n      iszero\n        /* \"contracts/CCK/CCKToken.sol\":3603:3674  require(mintedAmount + amount <= TOTAL_SUPPLY, \"Total supply exceeded\") */\n      tag_184\n      jumpi\n      mload(0x40)\n      0x08c379a000000000000000000000000000000000000000000000000000000000\n      dup2\n      mstore\n      0x04\n      add\n      tag_185\n      swap1\n      tag_186\n      jump\t// in\n    tag_185:\n      mload(0x40)\n      dup1\n      swap2\n      sub\n      swap1\n      revert\n    tag_184:\n        /* \"contracts/CCK/CCKToken.sol\":3685:3702  _mint(to, amount) */\n      tag_187\n        /* \"contracts/CCK/CCKToken.sol\":3691:3693  to */\n      dup3\n        /* \"contracts/CCK/CCKToken.sol\":3695:3701  amount */\n      dup3\n        /* \"contracts/CCK/CCKToken.sol\":3685:3690  _mint */\n      tag_188\n        /* \"contracts/CCK/CCKToken.sol\":3685:3702  _mint(to, amount) */\n      jump\t// in\n    tag_187:\n        /* \"contracts/CCK/CCKToken.sol\":3729:3735  amount */\n      dup1\n        /* \"contracts/CCK/CCKToken.sol\":3713:3725  mintedAmount */\n      0x08\n      0x00\n        /* \"contracts/CCK/CCKToken.sol\":3713:3735  mintedAmount += amount */\n      dup3\n      dup3\n      sload\n      tag_189\n      swap2\n      swap1\n      tag_183\n      jump\t// in\n    tag_189:\n      swap3\n      pop\n      pop\n      dup2\n      swap1\n      sstore\n      pop\n        /* \"contracts/CCK/CCKToken.sol\":3479:3743  function mint(address to, uint256 amount) external onlyOwner {... */\n      pop\n      pop\n      jump\t// out\n        /* \"contracts/CCK/CCKToken.sol\":1913:2012  function version() external view override returns (string memory) {... */\n    tag_83:\n        /* \"contracts/CCK/CCKToken.sol\":1964:1977  string memory */\n      0x60\n        /* \"contracts/CCK/CCKToken.sol\":1990:2004  return \"1.0.0\" */\n      mload(0x40)\n      dup1\n      0x40\n      add\n      0x40\n      mstore\n      dup1\n      0x05\n      dup2\n      mstore\n      0x20\n      add\n      0x312e302e30000000000000000000000000000000000000000000000000000000\n      dup2\n      mstore\n      pop\n      swap1\n      pop\n        /* \"contracts/CCK/CCKToken.sol\":1913:2012  function version() external view override returns (string memory) {... */\n      swap1\n      jump\t// out\n        /* \"contracts/CCK/CCKToken.sol\":2305:2393  function paused() external view override returns (bool) {... */\n    tag_86:\n        /* \"contracts/CCK/CCKToken.sol\":2355:2359  bool */\n      0x00\n        /* \"contracts/CCK/CCKToken.sol\":2305:2393  function paused() external view override returns (bool) {... */\n      swap1\n      jump\t// out\n        /* \"contracts/CCK/CCKToken.sol\":2167:2297  function compliance() external view override returns (address) {... */\n    tag_89:\n        /* \"contracts/CCK/CCKToken.sol\":2221:2228  address */\n      0x00\n        /* \"contracts/CCK/CCKToken.sol\":2167:2297  function compliance() external view override returns (address) {... */\n      swap1\n      jump\t// out\n        /* \"@openzeppelin/contracts/token/ERC20/ERC20.sol\":2985:3101  function balanceOf(address account) public view virtual returns (uint256) {... */\n    tag_93:\n        /* \"@openzeppelin/contracts/token/ERC20/ERC20.sol\":3050:3057  uint256 */\n      0x00\n        /* \"@openzeppelin/contracts/token/ERC20/ERC20.sol\":3076:3085  _balances */\n      dup1\n        /* \"@openzeppelin/contracts/token/ERC20/ERC20.sol\":3076:3094  _balances[account] */\n      0x00\n        /* \"@openzeppelin/contracts/token/ERC20/ERC20.sol\":3086:3093  account */\n      dup4\n        /* \"@openzeppelin/contracts/token/ERC20/ERC20.sol\":3076:3094  _balances[account] */\n      0xffffffffffffffffffffffffffffffffffffffff\n      and\n      0xffffffffffffffffffffffffffffffffffffffff\n      and\n      dup2\n      mstore\n      0x20\n      add\n      swap1\n      dup2\n      mstore\n      0x20\n      add\n      0x00\n      keccak256\n      sload\n        /* \"@openzeppelin/contracts/token/ERC20/ERC20.sol\":3069:3094  return _balances[account] */\n      swap1\n      pop\n        /* \"@openzeppelin/contracts/token/ERC20/ERC20.sol\":2985:3101  function balanceOf(address account) public view virtual returns (uint256) {... */\n      swap2\n      swap1\n      pop\n      jump\t// out\n        /* \"@openzeppelin/contracts/access/Ownable.sol\":2293:2394  function renounceOwnership() public virtual onlyOwner {... */\n    tag_96:\n        /* \"@openzeppelin/contracts/access/Ownable.sol\":1531:1544  _checkOwner() */\n      tag_195\n        /* \"@openzeppelin/contracts/access/Ownable.sol\":1531:1542  _checkOwner */\n      tag_177\n        /* \"@openzeppelin/contracts/access/Ownable.sol\":1531:1544  _checkOwner() */\n      jump\t// in\n    tag_195:\n        /* \"@openzeppelin/contracts/access/Ownable.sol\":2357:2387  _transferOwnership(address(0)) */\n      tag_197\n        /* \"@openzeppelin/contracts/access/Ownable.sol\":2384:2385  0 */\n      0x00\n        /* \"@openzeppelin/contracts/access/Ownable.sol\":2357:2375  _transferOwnership */\n      tag_198\n        /* \"@openzeppelin/contracts/access/Ownable.sol\":2357:2387  _transferOwnership(address(0)) */\n      jump\t// in\n    tag_197:\n        /* \"@openzeppelin/contracts/access/Ownable.sol\":2293:2394  function renounceOwnership() public virtual onlyOwner {... */\n      jump\t// out\n        /* \"contracts/CCK/CCKToken.sol\":1211:1319  function removeFromWhitelist(address member) external onlyOwner {... */\n    tag_99:\n        /* \"@openzeppelin/contracts/access/Ownable.sol\":1531:1544  _checkOwner() */\n      tag_200\n        /* \"@openzeppelin/contracts/access/Ownable.sol\":1531:1542  _checkOwner */\n      tag_177\n        /* \"@openzeppelin/contracts/access/Ownable.sol\":1531:1544  _checkOwner() */\n      jump\t// in\n    tag_200:\n        /* \"contracts/CCK/CCKToken.sol\":1306:1311  false */\n      0x00\n        /* \"contracts/CCK/CCKToken.sol\":1286:1295  whitelist */\n      0x06\n        /* \"contracts/CCK/CCKToken.sol\":1286:1303  whitelist[member] */\n      0x00\n        /* \"contracts/CCK/CCKToken.sol\":1296:1302  member */\n      dup4\n        /* \"contracts/CCK/CCKToken.sol\":1286:1303  whitelist[member] */\n      0xffffffffffffffffffffffffffffffffffffffff\n      and\n      0xffffffffffffffffffffffffffffffffffffffff\n      and\n      dup2\n      mstore\n      0x20\n      add\n      swap1\n      dup2\n      mstore\n      0x20\n      add\n      0x00\n      keccak256\n      0x00\n        /* \"contracts/CCK/CCKToken.sol\":1286:1311  whitelist[member] = false */\n      0x0100\n      exp\n      dup2\n      sload\n      dup2\n      0xff\n      mul\n      not\n      and\n      swap1\n      dup4\n      iszero\n      iszero\n      mul\n      or\n      swap1\n      sstore\n      pop\n        /* \"contracts/CCK/CCKToken.sol\":1211:1319  function removeFromWhitelist(address member) external onlyOwner {... */\n      pop\n      jump\t// out\n        /* \"@openzeppelin/contracts/access/Ownable.sol\":1638:1723  function owner() public view virtual returns (address) {... */\n    tag_101:\n        /* \"@openzeppelin/contracts/access/Ownable.sol\":1684:1691  address */\n      0x00\n        /* \"@openzeppelin/contracts/access/Ownable.sol\":1710:1716  _owner */\n      0x05\n      0x00\n      swap1\n      sload\n      swap1\n      0x0100\n      exp\n      swap1\n      div\n      0xffffffffffffffffffffffffffffffffffffffff\n      and\n        /* \"@openzeppelin/contracts/access/Ownable.sol\":1703:1716  return _owner */\n      swap1\n      pop\n        /* \"@openzeppelin/contracts/access/Ownable.sol\":1638:1723  function owner() public view virtual returns (address) {... */\n      swap1\n      jump\t// out\n        /* \"contracts/CCK/CCKToken.sol\":362:417  uint256 public constant TOTAL_SUPPLY = 500_000 * 10**18 */\n    tag_104:\n        /* \"contracts/CCK/CCKToken.sol\":401:417  500_000 * 10**18 */\n      0x69e10de76676d0800000\n        /* \"contracts/CCK/CCKToken.sol\":362:417  uint256 public constant TOTAL_SUPPLY = 500_000 * 10**18 */\n      dup2\n      jump\t// out\n        /* \"@openzeppelin/contracts/token/ERC20/ERC20.sol\":1962:2055  function symbol() public view virtual returns (string memory) {... */\n    tag_107:\n        /* \"@openzeppelin/contracts/token/ERC20/ERC20.sol\":2009:2022  string memory */\n      0x60\n        /* \"@openzeppelin/contracts/token/ERC20/ERC20.sol\":2041:2048  _symbol */\n      0x04\n        /* \"@openzeppelin/contracts/token/ERC20/ERC20.sol\":2034:2048  return _symbol */\n      dup1\n      sload\n      tag_204\n      swap1\n      tag_150\n      jump\t// in\n    tag_204:\n      dup1\n      0x1f\n      add\n      0x20\n      dup1\n      swap2\n      div\n      mul\n      0x20\n      add\n      mload(0x40)\n      swap1\n      dup2\n      add\n      0x40\n      mstore\n      dup1\n      swap3\n      swap2\n      swap1\n      dup2\n      dup2\n      mstore\n      0x20\n      add\n      dup3\n      dup1\n      sload\n      tag_205\n      swap1\n      tag_150\n      jump\t// in\n    tag_205:\n      dup1\n      iszero\n      tag_206\n      jumpi\n      dup1\n      0x1f\n      lt\n      tag_207\n      jumpi\n      0x0100\n      dup1\n      dup4\n      sload\n      div\n      mul\n      dup4\n      mstore\n      swap2\n      0x20\n      add\n      swap2\n      jump(tag_206)\n    tag_207:\n      dup3\n      add\n      swap2\n      swap1\n      0x00\n      mstore\n      keccak256(0x00, 0x20)\n      swap1\n    tag_208:\n      dup2\n      sload\n      dup2\n      mstore\n      swap1\n      0x01\n      add\n      swap1\n      0x20\n      add\n      dup1\n      dup4\n      gt\n      tag_208\n      jumpi\n      dup3\n      swap1\n      sub\n      0x1f\n      and\n      dup3\n      add\n      swap2\n    tag_206:\n      pop\n      pop\n      pop\n      pop\n      pop\n      swap1\n      pop\n        /* \"@openzeppelin/contracts/token/ERC20/ERC20.sol\":1962:2055  function symbol() public view virtual returns (string memory) {... */\n      swap1\n      jump\t// out\n        /* \"contracts/CCK/CCKToken.sol\":440:481  mapping(address => bool) public whitelist */\n    tag_111:\n      mstore(0x20, 0x06)\n      dup1\n      0x00\n      mstore\n      keccak256(0x00, 0x40)\n      0x00\n      swap2\n      pop\n      sload\n      swap1\n      0x0100\n      exp\n      swap1\n      div\n      0xff\n      and\n      dup2\n      jump\t// out\n        /* \"contracts/CCK/CCKToken.sol\":2790:3075  function transfer(address recipient, uint256 amount) public override returns (bool) {... */\n    tag_115:\n        /* \"contracts/CCK/CCKToken.sol\":2868:2872  bool */\n      0x00\n        /* \"contracts/CCK/CCKToken.sol\":2894:2900  frozen */\n      0x07\n        /* \"contracts/CCK/CCKToken.sol\":2894:2912  frozen[msg.sender] */\n      0x00\n        /* \"contracts/CCK/CCKToken.sol\":2901:2911  msg.sender */\n      caller\n        /* \"contracts/CCK/CCKToken.sol\":2894:2912  frozen[msg.sender] */\n      0xffffffffffffffffffffffffffffffffffffffff\n      and\n      0xffffffffffffffffffffffffffffffffffffffff\n      and\n      dup2\n      mstore\n      0x20\n      add\n      swap1\n      dup2\n      mstore\n      0x20\n      add\n      0x00\n      keccak256\n      0x00\n      swap1\n      sload\n      swap1\n      0x0100\n      exp\n      swap1\n      div\n      0xff\n      and\n        /* \"contracts/CCK/CCKToken.sol\":2893:2912  !frozen[msg.sender] */\n      iszero\n        /* \"contracts/CCK/CCKToken.sol\":2885:2933  require(!frozen[msg.sender], \"Sender is frozen\") */\n      tag_210\n      jumpi\n      mload(0x40)\n      0x08c379a000000000000000000000000000000000000000000000000000000000\n      dup2\n      mstore\n      0x04\n      add\n      tag_211\n      swap1\n      tag_168\n      jump\t// in\n    tag_211:\n      mload(0x40)\n      dup1\n      swap2\n      sub\n      swap1\n      revert\n    tag_210:\n        /* \"contracts/CCK/CCKToken.sol\":2978:2984  amount */\n      dup2\n        /* \"contracts/CCK/CCKToken.sol\":2962:2986  uint256(uint128(amount)) */\n      0xffffffffffffffffffffffffffffffff\n      and\n        /* \"contracts/CCK/CCKToken.sol\":2952:2958  amount */\n      dup3\n        /* \"contracts/CCK/CCKToken.sol\":2952:2986  amount == uint256(uint128(amount)) */\n      eq\n        /* \"contracts/CCK/CCKToken.sol\":2944:3016  require(amount == uint256(uint128(amount)), \"Amount must be an integer\") */\n      tag_212\n      jumpi\n      mload(0x40)\n      0x08c379a000000000000000000000000000000000000000000000000000000000\n      dup2\n      mstore\n      0x04\n      add\n      tag_213\n      swap1\n      tag_171\n      jump\t// in\n    tag_213:\n      mload(0x40)\n      dup1\n      swap2\n      sub\n      swap1\n      revert\n    tag_212:\n        /* \"contracts/CCK/CCKToken.sol\":3034:3067  super.transfer(recipient, amount) */\n      tag_214\n        /* \"contracts/CCK/CCKToken.sol\":3049:3058  recipient */\n      dup4\n        /* \"contracts/CCK/CCKToken.sol\":3060:3066  amount */\n      dup4\n        /* \"contracts/CCK/CCKToken.sol\":3034:3048  super.transfer */\n      tag_215\n        /* \"contracts/CCK/CCKToken.sol\":3034:3067  super.transfer(recipient, amount) */\n      jump\t// in\n    tag_214:\n        /* \"contracts/CCK/CCKToken.sol\":3027:3067  return super.transfer(recipient, amount) */\n      swap1\n      pop\n        /* \"contracts/CCK/CCKToken.sol\":2790:3075  function transfer(address recipient, uint256 amount) public override returns (bool) {... */\n      swap3\n      swap2\n      pop\n      pop\n      jump\t// out\n        /* \"contracts/CCK/CCKToken.sol\":1804:1905  function onchainID() external view override returns (address) {... */\n    tag_118:\n        /* \"contracts/CCK/CCKToken.sol\":1857:1864  address */\n      0x00\n        /* \"contracts/CCK/CCKToken.sol\":1892:1896  this */\n      address\n        /* \"contracts/CCK/CCKToken.sol\":1877:1897  return address(this) */\n      swap1\n      pop\n        /* \"contracts/CCK/CCKToken.sol\":1804:1905  function onchainID() external view override returns (address) {... */\n      swap1\n      jump\t// out\n        /* \"contracts/CCK/CCKToken.sol\":1468:1562  function unfreezeUser(address user) external onlyOwner {... */\n    tag_122:\n        /* \"@openzeppelin/contracts/access/Ownable.sol\":1531:1544  _checkOwner() */\n      tag_218\n        /* \"@openzeppelin/contracts/access/Ownable.sol\":1531:1542  _checkOwner */\n      tag_177\n        /* \"@openzeppelin/contracts/access/Ownable.sol\":1531:1544  _checkOwner() */\n      jump\t// in\n    tag_218:\n        /* \"contracts/CCK/CCKToken.sol\":1549:1554  false */\n      0x00\n        /* \"contracts/CCK/CCKToken.sol\":1534:1540  frozen */\n      0x07\n        /* \"contracts/CCK/CCKToken.sol\":1534:1546  frozen[user] */\n      0x00\n        /* \"contracts/CCK/CCKToken.sol\":1541:1545  user */\n      dup4\n        /* \"contracts/CCK/CCKToken.sol\":1534:1546  frozen[user] */\n      0xffffffffffffffffffffffffffffffffffffffff\n      and\n      0xffffffffffffffffffffffffffffffffffffffff\n      and\n      dup2\n      mstore\n      0x20\n      add\n      swap1\n      dup2\n      mstore\n      0x20\n      add\n      0x00\n      keccak256\n      0x00\n        /* \"contracts/CCK/CCKToken.sol\":1534:1554  frozen[user] = false */\n      0x0100\n      exp\n      dup2\n      sload\n      dup2\n      0xff\n      mul\n      not\n      and\n      swap1\n      dup4\n      iszero\n      iszero\n      mul\n      or\n      swap1\n      sstore\n      pop\n        /* \"contracts/CCK/CCKToken.sol\":1468:1562  function unfreezeUser(address user) external onlyOwner {... */\n      pop\n      jump\t// out\n        /* \"contracts/CCK/CCKToken.sol\":501:539  mapping(address => bool) public frozen */\n    tag_125:\n      mstore(0x20, 0x07)\n      dup1\n      0x00\n      mstore\n      keccak256(0x00, 0x40)\n      0x00\n      swap2\n      pop\n      sload\n      swap1\n      0x0100\n      exp\n      swap1\n      div\n      0xff\n      and\n      dup2\n      jump\t// out\n        /* \"contracts/CCK/CCKToken.sol\":1615:1761  function remainingSupply() external view returns (uint256) {... */\n    tag_128:\n        /* \"contracts/CCK/CCKToken.sol\":1665:1672  uint256 */\n      0x00\n        /* \"contracts/CCK/CCKToken.sol\":1707:1719  mintedAmount */\n      sload(0x08)\n        /* \"contracts/CCK/CCKToken.sol\":401:417  500_000 * 10**18 */\n      0x69e10de76676d0800000\n        /* \"contracts/CCK/CCKToken.sol\":1692:1719  TOTAL_SUPPLY - mintedAmount */\n      tag_221\n      swap2\n      swap1\n      tag_222\n      jump\t// in\n    tag_221:\n        /* \"contracts/CCK/CCKToken.sol\":1685:1719  return TOTAL_SUPPLY - mintedAmount */\n      swap1\n      pop\n        /* \"contracts/CCK/CCKToken.sol\":1615:1761  function remainingSupply() external view returns (uint256) {... */\n      swap1\n      jump\t// out\n        /* \"@openzeppelin/contracts/token/ERC20/ERC20.sol\":3532:3672  function allowance(address owner, address spender) public view virtual returns (uint256) {... */\n    tag_133:\n        /* \"@openzeppelin/contracts/token/ERC20/ERC20.sol\":3612:3619  uint256 */\n      0x00\n        /* \"@openzeppelin/contracts/token/ERC20/ERC20.sol\":3638:3649  _allowances */\n      0x01\n        /* \"@openzeppelin/contracts/token/ERC20/ERC20.sol\":3638:3656  _allowances[owner] */\n      0x00\n        /* \"@openzeppelin/contracts/token/ERC20/ERC20.sol\":3650:3655  owner */\n      dup5\n        /* \"@openzeppelin/contracts/token/ERC20/ERC20.sol\":3638:3656  _allowances[owner] */\n      0xffffffffffffffffffffffffffffffffffffffff\n      and\n      0xffffffffffffffffffffffffffffffffffffffff\n      and\n      dup2\n      mstore\n      0x20\n      add\n      swap1\n      dup2\n      mstore\n      0x20\n      add\n      0x00\n      keccak256\n        /* \"@openzeppelin/contracts/token/ERC20/ERC20.sol\":3638:3665  _allowances[owner][spender] */\n      0x00\n        /* \"@openzeppelin/contracts/token/ERC20/ERC20.sol\":3657:3664  spender */\n      dup4\n        /* \"@openzeppelin/contracts/token/ERC20/ERC20.sol\":3638:3665  _allowances[owner][spender] */\n      0xffffffffffffffffffffffffffffffffffffffff\n      and\n      0xffffffffffffffffffffffffffffffffffffffff\n      and\n      dup2\n      mstore\n      0x20\n      add\n      swap1\n      dup2\n      mstore\n      0x20\n      add\n      0x00\n      keccak256\n      sload\n        /* \"@openzeppelin/contracts/token/ERC20/ERC20.sol\":3631:3665  return _allowances[owner][spender] */\n      swap1\n      pop\n        /* \"@openzeppelin/contracts/token/ERC20/ERC20.sol\":3532:3672  function allowance(address owner, address spender) public view virtual returns (uint256) {... */\n      swap3\n      swap2\n      pop\n      pop\n      jump\t// out\n        /* \"contracts/CCK/CCKToken.sol\":1348:1439  function freezeUser(address user) external onlyOwner {... */\n    tag_137:\n        /* \"@openzeppelin/contracts/access/Ownable.sol\":1531:1544  _checkOwner() */\n      tag_225\n        /* \"@openzeppelin/contracts/access/Ownable.sol\":1531:1542  _checkOwner */\n      tag_177\n        /* \"@openzeppelin/contracts/access/Ownable.sol\":1531:1544  _checkOwner() */\n      jump\t// in\n    tag_225:\n        /* \"contracts/CCK/CCKToken.sol\":1427:1431  true */\n      0x01\n        /* \"contracts/CCK/CCKToken.sol\":1412:1418  frozen */\n      0x07\n        /* \"contracts/CCK/CCKToken.sol\":1412:1424  frozen[user] */\n      0x00\n        /* \"contracts/CCK/CCKToken.sol\":1419:1423  user */\n      dup4\n        /* \"contracts/CCK/CCKToken.sol\":1412:1424  frozen[user] */\n      0xffffffffffffffffffffffffffffffffffffffff\n      and\n      0xffffffffffffffffffffffffffffffffffffffff\n      and\n      dup2\n      mstore\n      0x20\n      add\n      swap1\n      dup2\n      mstore\n      0x20\n      add\n      0x00\n      keccak256\n      0x00\n        /* \"contracts/CCK/CCKToken.sol\":1412:1431  frozen[user] = true */\n      0x0100\n      exp\n      dup2\n      sload\n      dup2\n      0xff\n      mul\n      not\n      and\n      swap1\n      dup4\n      iszero\n      iszero\n      mul\n      or\n      swap1\n      sstore\n      pop\n        /* \"contracts/CCK/CCKToken.sol\":1348:1439  function freezeUser(address user) external onlyOwner {... */\n      pop\n      jump\t// out\n        /* \"contracts/CCK/CCKToken.sol\":1071:1173  function addToWhitelist(address member) external onlyOwner {... */\n    tag_140:\n        /* \"@openzeppelin/contracts/access/Ownable.sol\":1531:1544  _checkOwner() */\n      tag_228\n        /* \"@openzeppelin/contracts/access/Ownable.sol\":1531:1542  _checkOwner */\n      tag_177\n        /* \"@openzeppelin/contracts/access/Ownable.sol\":1531:1544  _checkOwner() */\n      jump\t// in\n    tag_228:\n        /* \"contracts/CCK/CCKToken.sol\":1161:1165  true */\n      0x01\n        /* \"contracts/CCK/CCKToken.sol\":1141:1150  whitelist */\n      0x06\n        /* \"contracts/CCK/CCKToken.sol\":1141:1158  whitelist[member] */\n      0x00\n        /* \"contracts/CCK/CCKToken.sol\":1151:1157  member */\n      dup4\n        /* \"contracts/CCK/CCKToken.sol\":1141:1158  whitelist[member] */\n      0xffffffffffffffffffffffffffffffffffffffff\n      and\n      0xffffffffffffffffffffffffffffffffffffffff\n      and\n      dup2\n      mstore\n      0x20\n      add\n      swap1\n      dup2\n      mstore\n      0x20\n      add\n      0x00\n      keccak256\n      0x00\n        /* \"contracts/CCK/CCKToken.sol\":1141:1165  whitelist[member] = true */\n      0x0100\n      exp\n      dup2\n      sload\n      dup2\n      0xff\n      mul\n      not\n      and\n      swap1\n      dup4\n      iszero\n      iszero\n      mul\n      or\n      swap1\n      sstore\n      pop\n        /* \"contracts/CCK/CCKToken.sol\":1071:1173  function addToWhitelist(address member) external onlyOwner {... */\n      pop\n      jump\t// out\n        /* \"contracts/CCK/CCKToken.sol\":2401:2551  function isFrozen(address userAddress) external view override returns (bool) {... */\n    tag_143:\n        /* \"contracts/CCK/CCKToken.sol\":2472:2476  bool */\n      0x00\n        /* \"contracts/CCK/CCKToken.sol\":2496:2502  frozen */\n      0x07\n        /* \"contracts/CCK/CCKToken.sol\":2496:2515  frozen[userAddress] */\n      0x00\n        /* \"contracts/CCK/CCKToken.sol\":2503:2514  userAddress */\n      dup4\n        /* \"contracts/CCK/CCKToken.sol\":2496:2515  frozen[userAddress] */\n      0xffffffffffffffffffffffffffffffffffffffff\n      and\n      0xffffffffffffffffffffffffffffffffffffffff\n      and\n      dup2\n      mstore\n      0x20\n      add\n      swap1\n      dup2\n      mstore\n      0x20\n      add\n      0x00\n      keccak256\n      0x00\n      swap1\n      sload\n      swap1\n      0x0100\n      exp\n      swap1\n      div\n      0xff\n      and\n        /* \"contracts/CCK/CCKToken.sol\":2489:2515  return frozen[userAddress] */\n      swap1\n      pop\n        /* \"contracts/CCK/CCKToken.sol\":2401:2551  function isFrozen(address userAddress) external view override returns (bool) {... */\n      swap2\n      swap1\n      pop\n      jump\t// out\n        /* \"@openzeppelin/contracts/access/Ownable.sol\":2543:2758  function transferOwnership(address newOwner) public virtual onlyOwner {... */\n    tag_147:\n        /* \"@openzeppelin/contracts/access/Ownable.sol\":1531:1544  _checkOwner() */\n      tag_232\n        /* \"@openzeppelin/contracts/access/Ownable.sol\":1531:1542  _checkOwner */\n      tag_177\n        /* \"@openzeppelin/contracts/access/Ownable.sol\":1531:1544  _checkOwner() */\n      jump\t// in\n    tag_232:\n        /* \"@openzeppelin/contracts/access/Ownable.sol\":2647:2648  0 */\n      0x00\n        /* \"@openzeppelin/contracts/access/Ownable.sol\":2627:2649  newOwner == address(0) */\n      0xffffffffffffffffffffffffffffffffffffffff\n      and\n        /* \"@openzeppelin/contracts/access/Ownable.sol\":2627:2635  newOwner */\n      dup2\n        /* \"@openzeppelin/contracts/access/Ownable.sol\":2627:2649  newOwner == address(0) */\n      0xffffffffffffffffffffffffffffffffffffffff\n      and\n      sub\n        /* \"@openzeppelin/contracts/access/Ownable.sol\":2623:2714  if (newOwner == address(0)) {... */\n      tag_234\n      jumpi\n        /* \"@openzeppelin/contracts/access/Ownable.sol\":2700:2701  0 */\n      0x00\n        /* \"@openzeppelin/contracts/access/Ownable.sol\":2672:2703  OwnableInvalidOwner(address(0)) */\n      mload(0x40)\n      0x1e4fbdf700000000000000000000000000000000000000000000000000000000\n      dup2\n      mstore\n      0x04\n      add\n      tag_235\n      swap2\n      swap1\n      tag_59\n      jump\t// in\n    tag_235:\n      mload(0x40)\n      dup1\n      swap2\n      sub\n      swap1\n      revert\n        /* \"@openzeppelin/contracts/access/Ownable.sol\":2623:2714  if (newOwner == address(0)) {... */\n    tag_234:\n        /* \"@openzeppelin/contracts/access/Ownable.sol\":2723:2751  _transferOwnership(newOwner) */\n      tag_236\n        /* \"@openzeppelin/contracts/access/Ownable.sol\":2742:2750  newOwner */\n      dup2\n        /* \"@openzeppelin/contracts/access/Ownable.sol\":2723:2741  _transferOwnership */\n      tag_198\n        /* \"@openzeppelin/contracts/access/Ownable.sol\":2723:2751  _transferOwnership(newOwner) */\n      jump\t// in\n    tag_236:\n        /* \"@openzeppelin/contracts/access/Ownable.sol\":2543:2758  function transferOwnership(address newOwner) public virtual onlyOwner {... */\n      pop\n      jump\t// out\n        /* \"@openzeppelin/contracts/utils/Context.sol\":656:752  function _msgSender() internal view virtual returns (address) {... */\n    tag_157:\n        /* \"@openzeppelin/contracts/utils/Context.sol\":709:716  address */\n      0x00\n        /* \"@openzeppelin/contracts/utils/Context.sol\":735:745  msg.sender */\n      caller\n        /* \"@openzeppelin/contracts/utils/Context.sol\":728:745  return msg.sender */\n      swap1\n      pop\n        /* \"@openzeppelin/contracts/utils/Context.sol\":656:752  function _msgSender() internal view virtual returns (address) {... */\n      swap1\n      jump\t// out\n        /* \"@openzeppelin/contracts/token/ERC20/ERC20.sol\":8707:8835  function _approve(address owner, address spender, uint256 value) internal {... */\n    tag_159:\n        /* \"@openzeppelin/contracts/token/ERC20/ERC20.sol\":8791:8828  _approve(owner, spender, value, true) */\n      tag_239\n        /* \"@openzeppelin/contracts/token/ERC20/ERC20.sol\":8800:8805  owner */\n      dup4\n        /* \"@openzeppelin/contracts/token/ERC20/ERC20.sol\":8807:8814  spender */\n      dup4\n        /* \"@openzeppelin/contracts/token/ERC20/ERC20.sol\":8816:8821  value */\n      dup4\n        /* \"@openzeppelin/contracts/token/ERC20/ERC20.sol\":8823:8827  true */\n      0x01\n        /* \"@openzeppelin/contracts/token/ERC20/ERC20.sol\":8791:8799  _approve */\n      tag_240\n        /* \"@openzeppelin/contracts/token/ERC20/ERC20.sol\":8791:8828  _approve(owner, spender, value, true) */\n      jump\t// in\n    tag_239:\n        /* \"@openzeppelin/contracts/token/ERC20/ERC20.sol\":8707:8835  function _approve(address owner, address spender, uint256 value) internal {... */\n      pop\n      pop\n      pop\n      jump\t// out\n        /* \"@openzeppelin/contracts/token/ERC20/ERC20.sol\":4757:5001  function transferFrom(address from, address to, uint256 value) public virtual returns (bool) {... */\n    tag_173:\n        /* \"@openzeppelin/contracts/token/ERC20/ERC20.sol\":4844:4848  bool */\n      0x00\n        /* \"@openzeppelin/contracts/token/ERC20/ERC20.sol\":4860:4875  address spender */\n      dup1\n        /* \"@openzeppelin/contracts/token/ERC20/ERC20.sol\":4878:4890  _msgSender() */\n      tag_242\n        /* \"@openzeppelin/contracts/token/ERC20/ERC20.sol\":4878:4888  _msgSender */\n      tag_157\n        /* \"@openzeppelin/contracts/token/ERC20/ERC20.sol\":4878:4890  _msgSender() */\n      jump\t// in\n    tag_242:\n        /* \"@openzeppelin/contracts/token/ERC20/ERC20.sol\":4860:4890  address spender = _msgSender() */\n      swap1\n      pop\n        /* \"@openzeppelin/contracts/token/ERC20/ERC20.sol\":4900:4937  _spendAllowance(from, spender, value) */\n      tag_243\n        /* \"@openzeppelin/contracts/token/ERC20/ERC20.sol\":4916:4920  from */\n      dup6\n        /* \"@openzeppelin/contracts/token/ERC20/ERC20.sol\":4922:4929  spender */\n      dup3\n        /* \"@openzeppelin/contracts/token/ERC20/ERC20.sol\":4931:4936  value */\n      dup6\n        /* \"@openzeppelin/contracts/token/ERC20/ERC20.sol\":4900:4915  _spendAllowance */\n      tag_244\n        /* \"@openzeppelin/contracts/token/ERC20/ERC20.sol\":4900:4937  _spendAllowance(from, spender, value) */\n      jump\t// in\n    tag_243:\n        /* \"@openzeppelin/contracts/token/ERC20/ERC20.sol\":4947:4973  _transfer(from, to, value) */\n      tag_245\n        /* \"@openzeppelin/contracts/token/ERC20/ERC20.sol\":4957:4961  from */\n      dup6\n        /* \"@openzeppelin/contracts/token/ERC20/ERC20.sol\":4963:4965  to */\n      dup6\n        /* \"@openzeppelin/contracts/token/ERC20/ERC20.sol\":4967:4972  value */\n      dup6\n        /* \"@openzeppelin/contracts/token/ERC20/ERC20.sol\":4947:4956  _transfer */\n      tag_246\n        /* \"@openzeppelin/contracts/token/ERC20/ERC20.sol\":4947:4973  _transfer(from, to, value) */\n      jump\t// in\n    tag_245:\n        /* \"@openzeppelin/contracts/token/ERC20/ERC20.sol\":4990:4994  true */\n      0x01\n        /* \"@openzeppelin/contracts/token/ERC20/ERC20.sol\":4983:4994  return true */\n      swap2\n      pop\n      pop\n        /* \"@openzeppelin/contracts/token/ERC20/ERC20.sol\":4757:5001  function transferFrom(address from, address to, uint256 value) public virtual returns (bool) {... */\n      swap4\n      swap3\n      pop\n      pop\n      pop\n      jump\t// out\n        /* \"@openzeppelin/contracts/access/Ownable.sol\":1796:1958  function _checkOwner() internal view virtual {... */\n    tag_177:\n        /* \"@openzeppelin/contracts/access/Ownable.sol\":1866:1878  _msgSender() */\n      tag_248\n        /* \"@openzeppelin/contracts/access/Ownable.sol\":1866:1876  _msgSender */\n      tag_157\n        /* \"@openzeppelin/contracts/access/Ownable.sol\":1866:1878  _msgSender() */\n      jump\t// in\n    tag_248:\n        /* \"@openzeppelin/contracts/access/Ownable.sol\":1855:1878  owner() != _msgSender() */\n      0xffffffffffffffffffffffffffffffffffffffff\n      and\n        /* \"@openzeppelin/contracts/access/Ownable.sol\":1855:1862  owner() */\n      tag_249\n        /* \"@openzeppelin/contracts/access/Ownable.sol\":1855:1860  owner */\n      tag_101\n        /* \"@openzeppelin/contracts/access/Ownable.sol\":1855:1862  owner() */\n      jump\t// in\n    tag_249:\n        /* \"@openzeppelin/contracts/access/Ownable.sol\":1855:1878  owner() != _msgSender() */\n      0xffffffffffffffffffffffffffffffffffffffff\n      and\n      eq\n        /* \"@openzeppelin/contracts/access/Ownable.sol\":1851:1952  if (owner() != _msgSender()) {... */\n      tag_250\n      jumpi\n        /* \"@openzeppelin/contracts/access/Ownable.sol\":1928:1940  _msgSender() */\n      tag_251\n        /* \"@openzeppelin/contracts/access/Ownable.sol\":1928:1938  _msgSender */\n      tag_157\n        /* \"@openzeppelin/contracts/access/Ownable.sol\":1928:1940  _msgSender() */\n      jump\t// in\n    tag_251:\n        /* \"@openzeppelin/contracts/access/Ownable.sol\":1901:1941  OwnableUnauthorizedAccount(_msgSender()) */\n      mload(0x40)\n      0x118cdaa700000000000000000000000000000000000000000000000000000000\n      dup2\n      mstore\n      0x04\n      add\n      tag_252\n      swap2\n      swap1\n      tag_59\n      jump\t// in\n    tag_252:\n      mload(0x40)\n      dup1\n      swap2\n      sub\n      swap1\n      revert\n        /* \"@openzeppelin/contracts/access/Ownable.sol\":1851:1952  if (owner() != _msgSender()) {... */\n    tag_250:\n        /* \"@openzeppelin/contracts/access/Ownable.sol\":1796:1958  function _checkOwner() internal view virtual {... */\n      jump\t// out\n        /* \"@openzeppelin/contracts/token/ERC20/ERC20.sol\":7439:7647  function _mint(address account, uint256 value) internal {... */\n    tag_188:\n        /* \"@openzeppelin/contracts/token/ERC20/ERC20.sol\":7528:7529  0 */\n      0x00\n        /* \"@openzeppelin/contracts/token/ERC20/ERC20.sol\":7509:7530  account == address(0) */\n      0xffffffffffffffffffffffffffffffffffffffff\n      and\n        /* \"@openzeppelin/contracts/token/ERC20/ERC20.sol\":7509:7516  account */\n      dup3\n        /* \"@openzeppelin/contracts/token/ERC20/ERC20.sol\":7509:7530  account == address(0) */\n      0xffffffffffffffffffffffffffffffffffffffff\n      and\n      sub\n        /* \"@openzeppelin/contracts/token/ERC20/ERC20.sol\":7505:7596  if (account == address(0)) {... */\n      tag_254\n      jumpi\n        /* \"@openzeppelin/contracts/token/ERC20/ERC20.sol\":7582:7583  0 */\n      0x00\n        /* \"@openzeppelin/contracts/token/ERC20/ERC20.sol\":7553:7585  ERC20InvalidReceiver(address(0)) */\n      mload(0x40)\n      0xec442f0500000000000000000000000000000000000000000000000000000000\n      dup2\n      mstore\n      0x04\n      add\n      tag_255\n      swap2\n      swap1\n      tag_59\n      jump\t// in\n    tag_255:\n      mload(0x40)\n      dup1\n      swap2\n      sub\n      swap1\n      revert\n        /* \"@openzeppelin/contracts/token/ERC20/ERC20.sol\":7505:7596  if (account == address(0)) {... */\n    tag_254:\n        /* \"@openzeppelin/contracts/token/ERC20/ERC20.sol\":7605:7640  _update(address(0), account, value) */\n      tag_256\n        /* \"@openzeppelin/contracts/token/ERC20/ERC20.sol\":7621:7622  0 */\n      0x00\n        /* \"@openzeppelin/contracts/token/ERC20/ERC20.sol\":7625:7632  account */\n      dup4\n        /* \"@openzeppelin/contracts/token/ERC20/ERC20.sol\":7634:7639  value */\n      dup4\n        /* \"@openzeppelin/contracts/token/ERC20/ERC20.sol\":7605:7612  _update */\n      tag_257\n        /* \"@openzeppelin/contracts/token/ERC20/ERC20.sol\":7605:7640  _update(address(0), account, value) */\n      jump\t// in\n    tag_256:\n        /* \"@openzeppelin/contracts/token/ERC20/ERC20.sol\":7439:7647  function _mint(address account, uint256 value) internal {... */\n      pop\n      pop\n      jump\t// out\n        /* \"@openzeppelin/contracts/access/Ownable.sol\":2912:3099  function _transferOwnership(address newOwner) internal virtual {... */\n    tag_198:\n        /* \"@openzeppelin/contracts/access/Ownable.sol\":2985:3001  address oldOwner */\n      0x00\n        /* \"@openzeppelin/contracts/access/Ownable.sol\":3004:3010  _owner */\n      0x05\n      0x00\n      swap1\n      sload\n      swap1\n      0x0100\n      exp\n      swap1\n      div\n      0xffffffffffffffffffffffffffffffffffffffff\n      and\n        /* \"@openzeppelin/contracts/access/Ownable.sol\":2985:3010  address oldOwner = _owner */\n      swap1\n      pop\n        /* \"@openzeppelin/contracts/access/Ownable.sol\":3029:3037  newOwner */\n      dup2\n        /* \"@openzeppelin/contracts/access/Ownable.sol\":3020:3026  _owner */\n      0x05\n      0x00\n        /* \"@openzeppelin/contracts/access/Ownable.sol\":3020:3037  _owner = newOwner */\n      0x0100\n      exp\n      dup2\n      sload\n      dup2\n      0xffffffffffffffffffffffffffffffffffffffff\n      mul\n      not\n      and\n      swap1\n      dup4\n      0xffffffffffffffffffffffffffffffffffffffff\n      and\n      mul\n      or\n      swap1\n      sstore\n      pop\n        /* \"@openzeppelin/contracts/access/Ownable.sol\":3083:3091  newOwner */\n      dup2\n        /* \"@openzeppelin/contracts/access/Ownable.sol\":3052:3092  OwnershipTransferred(oldOwner, newOwner) */\n      0xffffffffffffffffffffffffffffffffffffffff\n      and\n        /* \"@openzeppelin/contracts/access/Ownable.sol\":3073:3081  oldOwner */\n      dup2\n        /* \"@openzeppelin/contracts/access/Ownable.sol\":3052:3092  OwnershipTransferred(oldOwner, newOwner) */\n      0xffffffffffffffffffffffffffffffffffffffff\n      and\n      0x8be0079c531659141344cd1fd0a4f28419497f9722a3daafe3b4186f6b6457e0\n      mload(0x40)\n      mload(0x40)\n      dup1\n      swap2\n      sub\n      swap1\n      log3\n        /* \"@openzeppelin/contracts/access/Ownable.sol\":2975:3099  {... */\n      pop\n        /* \"@openzeppelin/contracts/access/Ownable.sol\":2912:3099  function _transferOwnership(address newOwner) internal virtual {... */\n      pop\n      jump\t// out\n        /* \"@openzeppelin/contracts/token/ERC20/ERC20.sol\":3296:3474  function transfer(address to, uint256 value) public virtual returns (bool) {... */\n    tag_215:\n        /* \"@openzeppelin/contracts/token/ERC20/ERC20.sol\":3365:3369  bool */\n      0x00\n        /* \"@openzeppelin/contracts/token/ERC20/ERC20.sol\":3381:3394  address owner */\n      dup1\n        /* \"@openzeppelin/contracts/token/ERC20/ERC20.sol\":3397:3409  _msgSender() */\n      tag_260\n        /* \"@openzeppelin/contracts/token/ERC20/ERC20.sol\":3397:3407  _msgSender */\n      tag_157\n        /* \"@openzeppelin/contracts/token/ERC20/ERC20.sol\":3397:3409  _msgSender() */\n      jump\t// in\n    tag_260:\n        /* \"@openzeppelin/contracts/token/ERC20/ERC20.sol\":3381:3409  address owner = _msgSender() */\n      swap1\n      pop\n        /* \"@openzeppelin/contracts/token/ERC20/ERC20.sol\":3419:3446  _transfer(owner, to, value) */\n      tag_261\n        /* \"@openzeppelin/contracts/token/ERC20/ERC20.sol\":3429:3434  owner */\n      dup2\n        /* \"@openzeppelin/contracts/token/ERC20/ERC20.sol\":3436:3438  to */\n      dup6\n        /* \"@openzeppelin/contracts/token/ERC20/ERC20.sol\":3440:3445  value */\n      dup6\n        /* \"@openzeppelin/contracts/token/ERC20/ERC20.sol\":3419:3428  _transfer */\n      tag_246\n        /* \"@openzeppelin/contracts/token/ERC20/ERC20.sol\":3419:3446  _transfer(owner, to, value) */\n      jump\t// in\n    tag_261:\n        /* \"@openzeppelin/contracts/token/ERC20/ERC20.sol\":3463:3467  true */\n      0x01\n        /* \"@openzeppelin/contracts/token/ERC20/ERC20.sol\":3456:3467  return true */\n      swap2\n      pop\n      pop\n        /* \"@openzeppelin/contracts/token/ERC20/ERC20.sol\":3296:3474  function transfer(address to, uint256 value) public virtual returns (bool) {... */\n      swap3\n      swap2\n      pop\n      pop\n      jump\t// out\n        /* \"@openzeppelin/contracts/token/ERC20/ERC20.sol\":9682:10114  function _approve(address owner, address spender, uint256 value, bool emitEvent) internal virtual {... */\n    tag_240:\n        /* \"@openzeppelin/contracts/token/ERC20/ERC20.sol\":9811:9812  0 */\n      0x00\n        /* \"@openzeppelin/contracts/token/ERC20/ERC20.sol\":9794:9813  owner == address(0) */\n      0xffffffffffffffffffffffffffffffffffffffff\n      and\n        /* \"@openzeppelin/contracts/token/ERC20/ERC20.sol\":9794:9799  owner */\n      dup5\n        /* \"@openzeppelin/contracts/token/ERC20/ERC20.sol\":9794:9813  owner == address(0) */\n      0xffffffffffffffffffffffffffffffffffffffff\n      and\n      sub\n        /* \"@openzeppelin/contracts/token/ERC20/ERC20.sol\":9790:9879  if (owner == address(0)) {... */\n      tag_263\n      jumpi\n        /* \"@openzeppelin/contracts/token/ERC20/ERC20.sol\":9865:9866  0 */\n      0x00\n        /* \"@openzeppelin/contracts/token/ERC20/ERC20.sol\":9836:9868  ERC20InvalidApprover(address(0)) */\n      mload(0x40)\n      0xe602df0500000000000000000000000000000000000000000000000000000000\n      dup2\n      mstore\n      0x04\n      add\n      tag_264\n      swap2\n      swap1\n      tag_59\n      jump\t// in\n    tag_264:\n      mload(0x40)\n      dup1\n      swap2\n      sub\n      swap1\n      revert\n        /* \"@openzeppelin/contracts/token/ERC20/ERC20.sol\":9790:9879  if (owner == address(0)) {... */\n    tag_263:\n        /* \"@openzeppelin/contracts/token/ERC20/ERC20.sol\":9911:9912  0 */\n      0x00\n        /* \"@openzeppelin/contracts/token/ERC20/ERC20.sol\":9892:9913  spender == address(0) */\n      0xffffffffffffffffffffffffffffffffffffffff\n      and\n        /* \"@openzeppelin/contracts/token/ERC20/ERC20.sol\":9892:9899  spender */\n      dup4\n        /* \"@openzeppelin/contracts/token/ERC20/ERC20.sol\":9892:9913  spender == address(0) */\n      0xffffffffffffffffffffffffffffffffffffffff\n      and\n      sub\n        /* \"@openzeppelin/contracts/token/ERC20/ERC20.sol\":9888:9978  if (spender == address(0)) {... */\n      tag_265\n      jumpi\n        /* \"@openzeppelin/contracts/token/ERC20/ERC20.sol\":9964:9965  0 */\n      0x00\n        /* \"@openzeppelin/contracts/token/ERC20/ERC20.sol\":9936:9967  ERC20InvalidSpender(address(0)) */\n      mload(0x40)\n      0x94280d6200000000000000000000000000000000000000000000000000000000\n      dup2\n      mstore\n      0x04\n      add\n      tag_266\n      swap2\n      swap1\n      tag_59\n      jump\t// in\n    tag_266:\n      mload(0x40)\n      dup1\n      swap2\n      sub\n      swap1\n      revert\n        /* \"@openzeppelin/contracts/token/ERC20/ERC20.sol\":9888:9978  if (spender == address(0)) {... */\n    tag_265:\n        /* \"@openzeppelin/contracts/token/ERC20/ERC20.sol\":10017:10022  value */\n      dup2\n        /* \"@openzeppelin/contracts/token/ERC20/ERC20.sol\":9987:9998  _allowances */\n      0x01\n        /* \"@openzeppelin/contracts/token/ERC20/ERC20.sol\":9987:10005  _allowances[owner] */\n      0x00\n        /* \"@openzeppelin/contracts/token/ERC20/ERC20.sol\":9999:10004  owner */\n      dup7\n        /* \"@openzeppelin/contracts/token/ERC20/ERC20.sol\":9987:10005  _allowances[owner] */\n      0xffffffffffffffffffffffffffffffffffffffff\n      and\n      0xffffffffffffffffffffffffffffffffffffffff\n      and\n      dup2\n      mstore\n      0x20\n      add\n      swap1\n      dup2\n      mstore\n      0x20\n      add\n      0x00\n      keccak256\n        /* \"@openzeppelin/contracts/token/ERC20/ERC20.sol\":9987:10014  _allowances[owner][spender] */\n      0x00\n        /* \"@openzeppelin/contracts/token/ERC20/ERC20.sol\":10006:10013  spender */\n      dup6\n        /* \"@openzeppelin/contracts/token/ERC20/ERC20.sol\":9987:10014  _allowances[owner][spender] */\n      0xffffffffffffffffffffffffffffffffffffffff\n      and\n      0xffffffffffffffffffffffffffffffffffffffff\n      and\n      dup2\n      mstore\n      0x20\n      add\n      swap1\n      dup2\n      mstore\n      0x20\n      add\n      0x00\n      keccak256\n        /* \"@openzeppelin/contracts/token/ERC20/ERC20.sol\":9987:10022  _allowances[owner][spender] = value */\n      dup2\n      swap1\n      sstore\n      pop\n        /* \"@openzeppelin/contracts/token/ERC20/ERC20.sol\":10036:10045  emitEvent */\n      dup1\n        /* \"@openzeppelin/contracts/token/ERC20/ERC20.sol\":10032:10108  if (emitEvent) {... */\n      iszero\n      tag_267\n      jumpi\n        /* \"@openzeppelin/contracts/token/ERC20/ERC20.sol\":10082:10089  spender */\n      dup3\n        /* \"@openzeppelin/contracts/token/ERC20/ERC20.sol\":10066:10097  Approval(owner, spender, value) */\n      0xffffffffffffffffffffffffffffffffffffffff\n      and\n        /* \"@openzeppelin/contracts/token/ERC20/ERC20.sol\":10075:10080  owner */\n      dup5\n        /* \"@openzeppelin/contracts/token/ERC20/ERC20.sol\":10066:10097  Approval(owner, spender, value) */\n      0xffffffffffffffffffffffffffffffffffffffff\n      and\n      0x8c5be1e5ebec7d5bd14f71427d1e84f3dd0314c0f7b2291e5b200ac8c7c3b925\n        /* \"@openzeppelin/contracts/token/ERC20/ERC20.sol\":10091:10096  value */\n      dup5\n        /* \"@openzeppelin/contracts/token/ERC20/ERC20.sol\":10066:10097  Approval(owner, spender, value) */\n      mload(0x40)\n      tag_268\n      swap2\n      swap1\n      tag_55\n      jump\t// in\n    tag_268:\n      mload(0x40)\n      dup1\n      swap2\n      sub\n      swap1\n      log3\n        /* \"@openzeppelin/contracts/token/ERC20/ERC20.sol\":10032:10108  if (emitEvent) {... */\n    tag_267:\n        /* \"@openzeppelin/contracts/token/ERC20/ERC20.sol\":9682:10114  function _approve(address owner, address spender, uint256 value, bool emitEvent) internal virtual {... */\n      pop\n      pop\n      pop\n      pop\n      jump\t// out\n        /* \"@openzeppelin/contracts/token/ERC20/ERC20.sol\":10396:10872  function _spendAllowance(address owner, address spender, uint256 value) internal virtual {... */\n    tag_244:\n        /* \"@openzeppelin/contracts/token/ERC20/ERC20.sol\":10495:10519  uint256 currentAllowance */\n      0x00\n        /* \"@openzeppelin/contracts/token/ERC20/ERC20.sol\":10522:10547  allowance(owner, spender) */\n      tag_270\n        /* \"@openzeppelin/contracts/token/ERC20/ERC20.sol\":10532:10537  owner */\n      dup5\n        /* \"@openzeppelin/contracts/token/ERC20/ERC20.sol\":10539:10546  spender */\n      dup5\n        /* \"@openzeppelin/contracts/token/ERC20/ERC20.sol\":10522:10531  allowance */\n      tag_133\n        /* \"@openzeppelin/contracts/token/ERC20/ERC20.sol\":10522:10547  allowance(owner, spender) */\n      jump\t// in\n    tag_270:\n        /* \"@openzeppelin/contracts/token/ERC20/ERC20.sol\":10495:10547  uint256 currentAllowance = allowance(owner, spender) */\n      swap1\n      pop\n        /* \"@openzeppelin/contracts/token/ERC20/ERC20.sol\":10580:10597  type(uint256).max */\n      0xffffffffffffffffffffffffffffffffffffffffffffffffffffffffffffffff\n        /* \"@openzeppelin/contracts/token/ERC20/ERC20.sol\":10561:10577  currentAllowance */\n      dup2\n        /* \"@openzeppelin/contracts/token/ERC20/ERC20.sol\":10561:10597  currentAllowance < type(uint256).max */\n      lt\n        /* \"@openzeppelin/contracts/token/ERC20/ERC20.sol\":10557:10866  if (currentAllowance < type(uint256).max) {... */\n      iszero\n      tag_271\n      jumpi\n        /* \"@openzeppelin/contracts/token/ERC20/ERC20.sol\":10636:10641  value */\n      dup2\n        /* \"@openzeppelin/contracts/token/ERC20/ERC20.sol\":10617:10633  currentAllowance */\n      dup2\n        /* \"@openzeppelin/contracts/token/ERC20/ERC20.sol\":10617:10641  currentAllowance < value */\n      lt\n        /* \"@openzeppelin/contracts/token/ERC20/ERC20.sol\":10613:10743  if (currentAllowance < value) {... */\n      iszero\n      tag_272\n      jumpi\n        /* \"@openzeppelin/contracts/token/ERC20/ERC20.sol\":10695:10702  spender */\n      dup3\n        /* \"@openzeppelin/contracts/token/ERC20/ERC20.sol\":10704:10720  currentAllowance */\n      dup2\n        /* \"@openzeppelin/contracts/token/ERC20/ERC20.sol\":10722:10727  value */\n      dup4\n        /* \"@openzeppelin/contracts/token/ERC20/ERC20.sol\":10668:10728  ERC20InsufficientAllowance(spender, currentAllowance, value) */\n      mload(0x40)\n      0xfb8f41b200000000000000000000000000000000000000000000000000000000\n      dup2\n      mstore\n      0x04\n      add\n      tag_273\n      swap4\n      swap3\n      swap2\n      swap1\n      tag_274\n      jump\t// in\n    tag_273:\n      mload(0x40)\n      dup1\n      swap2\n      sub\n      swap1\n      revert\n        /* \"@openzeppelin/contracts/token/ERC20/ERC20.sol\":10613:10743  if (currentAllowance < value) {... */\n    tag_272:\n        /* \"@openzeppelin/contracts/token/ERC20/ERC20.sol\":10784:10841  _approve(owner, spender, currentAllowance - value, false) */\n      tag_275\n        /* \"@openzeppelin/contracts/token/ERC20/ERC20.sol\":10793:10798  owner */\n      dup5\n        /* \"@openzeppelin/contracts/token/ERC20/ERC20.sol\":10800:10807  spender */\n      dup5\n        /* \"@openzeppelin/contracts/token/ERC20/ERC20.sol\":10828:10833  value */\n      dup5\n        /* \"@openzeppelin/contracts/token/ERC20/ERC20.sol\":10809:10825  currentAllowance */\n      dup5\n        /* \"@openzeppelin/contracts/token/ERC20/ERC20.sol\":10809:10833  currentAllowance - value */\n      sub\n        /* \"@openzeppelin/contracts/token/ERC20/ERC20.sol\":10835:10840  false */\n      0x00\n        /* \"@openzeppelin/contracts/token/ERC20/ERC20.sol\":10784:10792  _approve */\n      tag_240\n        /* \"@openzeppelin/contracts/token/ERC20/ERC20.sol\":10784:10841  _approve(owner, spender, currentAllowance - value, false) */\n      jump\t// in\n    tag_275:\n        /* \"@openzeppelin/contracts/token/ERC20/ERC20.sol\":10557:10866  if (currentAllowance < type(uint256).max) {... */\n    tag_271:\n        /* \"@openzeppelin/contracts/token/ERC20/ERC20.sol\":10485:10872  {... */\n      pop\n        /* \"@openzeppelin/contracts/token/ERC20/ERC20.sol\":10396:10872  function _spendAllowance(address owner, address spender, uint256 value) internal virtual {... */\n      pop\n      pop\n      pop\n      jump\t// out\n        /* \"@openzeppelin/contracts/token/ERC20/ERC20.sol\":5374:5674  function _transfer(address from, address to, uint256 value) internal {... */\n    tag_246:\n        /* \"@openzeppelin/contracts/token/ERC20/ERC20.sol\":5473:5474  0 */\n      0x00\n        /* \"@openzeppelin/contracts/token/ERC20/ERC20.sol\":5457:5475  from == address(0) */\n      0xffffffffffffffffffffffffffffffffffffffff\n      and\n        /* \"@openzeppelin/contracts/token/ERC20/ERC20.sol\":5457:5461  from */\n      dup4\n        /* \"@openzeppelin/contracts/token/ERC20/ERC20.sol\":5457:5475  from == address(0) */\n      0xffffffffffffffffffffffffffffffffffffffff\n      and\n      sub\n        /* \"@openzeppelin/contracts/token/ERC20/ERC20.sol\":5453:5539  if (from == address(0)) {... */\n      tag_277\n      jumpi\n        /* \"@openzeppelin/contracts/token/ERC20/ERC20.sol\":5525:5526  0 */\n      0x00\n        /* \"@openzeppelin/contracts/token/ERC20/ERC20.sol\":5498:5528  ERC20InvalidSender(address(0)) */\n      mload(0x40)\n      0x96c6fd1e00000000000000000000000000000000000000000000000000000000\n      dup2\n      mstore\n      0x04\n      add\n      tag_278\n      swap2\n      swap1\n      tag_59\n      jump\t// in\n    tag_278:\n      mload(0x40)\n      dup1\n      swap2\n      sub\n      swap1\n      revert\n        /* \"@openzeppelin/contracts/token/ERC20/ERC20.sol\":5453:5539  if (from == address(0)) {... */\n    tag_277:\n        /* \"@openzeppelin/contracts/token/ERC20/ERC20.sol\":5566:5567  0 */\n      0x00\n        /* \"@openzeppelin/contracts/token/ERC20/ERC20.sol\":5552:5568  to == address(0) */\n      0xffffffffffffffffffffffffffffffffffffffff\n      and\n        /* \"@openzeppelin/contracts/token/ERC20/ERC20.sol\":5552:5554  to */\n      dup3\n        /* \"@openzeppelin/contracts/token/ERC20/ERC20.sol\":5552:5568  to == address(0) */\n      0xffffffffffffffffffffffffffffffffffffffff\n      and\n      sub\n        /* \"@openzeppelin/contracts/token/ERC20/ERC20.sol\":5548:5634  if (to == address(0)) {... */\n      tag_279\n      jumpi\n        /* \"@openzeppelin/contracts/token/ERC20/ERC20.sol\":5620:5621  0 */\n      0x00\n        /* \"@openzeppelin/contracts/token/ERC20/ERC20.sol\":5591:5623  ERC20InvalidReceiver(address(0)) */\n      mload(0x40)\n      0xec442f0500000000000000000000000000000000000000000000000000000000\n      dup2\n      mstore\n      0x04\n      add\n      tag_280\n      swap2\n      swap1\n      tag_59\n      jump\t// in\n    tag_280:\n      mload(0x40)\n      dup1\n      swap2\n      sub\n      swap1\n      revert\n        /* \"@openzeppelin/contracts/token/ERC20/ERC20.sol\":5548:5634  if (to == address(0)) {... */\n    tag_279:\n        /* \"@openzeppelin/contracts/token/ERC20/ERC20.sol\":5643:5667  _update(from, to, value) */\n      tag_281\n        /* \"@openzeppelin/contracts/token/ERC20/ERC20.sol\":5651:5655  from */\n      dup4\n        /* \"@openzeppelin/contracts/token/ERC20/ERC20.sol\":5657:5659  to */\n      dup4\n        /* \"@openzeppelin/contracts/token/ERC20/ERC20.sol\":5661:5666  value */\n      dup4\n        /* \"@openzeppelin/contracts/token/ERC20/ERC20.sol\":5643:5650  _update */\n      tag_257\n        /* \"@openzeppelin/contracts/token/ERC20/ERC20.sol\":5643:5667  _update(from, to, value) */\n      jump\t// in\n    tag_281:\n        /* \"@openzeppelin/contracts/token/ERC20/ERC20.sol\":5374:5674  function _transfer(address from, address to, uint256 value) internal {... */\n      pop\n      pop\n      pop\n      jump\t// out\n        /* \"@openzeppelin/contracts/token/ERC20/ERC20.sol\":5989:7096  function _update(address from, address to, uint256 value) internal virtual {... */\n    tag_257:\n        /* \"@openzeppelin/contracts/token/ERC20/ERC20.sol\":6094:6095  0 */\n      0x00\n        /* \"@openzeppelin/contracts/token/ERC20/ERC20.sol\":6078:6096  from == address(0) */\n      0xffffffffffffffffffffffffffffffffffffffff\n      and\n        /* \"@openzeppelin/contracts/token/ERC20/ERC20.sol\":6078:6082  from */\n      dup4\n        /* \"@openzeppelin/contracts/token/ERC20/ERC20.sol\":6078:6096  from == address(0) */\n      0xffffffffffffffffffffffffffffffffffffffff\n      and\n      sub\n        /* \"@openzeppelin/contracts/token/ERC20/ERC20.sol\":6074:6614  if (from == address(0)) {... */\n      tag_283\n      jumpi\n        /* \"@openzeppelin/contracts/token/ERC20/ERC20.sol\":6230:6235  value */\n      dup1\n        /* \"@openzeppelin/contracts/token/ERC20/ERC20.sol\":6214:6226  _totalSupply */\n      0x02\n      0x00\n        /* \"@openzeppelin/contracts/token/ERC20/ERC20.sol\":6214:6235  _totalSupply += value */\n      dup3\n      dup3\n      sload\n      tag_284\n      swap2\n      swap1\n      tag_183\n      jump\t// in\n    tag_284:\n      swap3\n      pop\n      pop\n      dup2\n      swap1\n      sstore\n      pop\n        /* \"@openzeppelin/contracts/token/ERC20/ERC20.sol\":6074:6614  if (from == address(0)) {... */\n      jump(tag_285)\n    tag_283:\n        /* \"@openzeppelin/contracts/token/ERC20/ERC20.sol\":6266:6285  uint256 fromBalance */\n      0x00\n        /* \"@openzeppelin/contracts/token/ERC20/ERC20.sol\":6288:6297  _balances */\n      dup1\n        /* \"@openzeppelin/contracts/token/ERC20/ERC20.sol\":6288:6303  _balances[from] */\n      0x00\n        /* \"@openzeppelin/contracts/token/ERC20/ERC20.sol\":6298:6302  from */\n      dup6\n        /* \"@openzeppelin/contracts/token/ERC20/ERC20.sol\":6288:6303  _balances[from] */\n      0xffffffffffffffffffffffffffffffffffffffff\n      and\n      0xffffffffffffffffffffffffffffffffffffffff\n      and\n      dup2\n      mstore\n      0x20\n      add\n      swap1\n      dup2\n      mstore\n      0x20\n      add\n      0x00\n      keccak256\n      sload\n        /* \"@openzeppelin/contracts/token/ERC20/ERC20.sol\":6266:6303  uint256 fromBalance = _balances[from] */\n      swap1\n      pop\n        /* \"@openzeppelin/contracts/token/ERC20/ERC20.sol\":6335:6340  value */\n      dup2\n        /* \"@openzeppelin/contracts/token/ERC20/ERC20.sol\":6321:6332  fromBalance */\n      dup2\n        /* \"@openzeppelin/contracts/token/ERC20/ERC20.sol\":6321:6340  fromBalance < value */\n      lt\n        /* \"@openzeppelin/contracts/token/ERC20/ERC20.sol\":6317:6432  if (fromBalance < value) {... */\n      iszero\n      tag_286\n      jumpi\n        /* \"@openzeppelin/contracts/token/ERC20/ERC20.sol\":6392:6396  from */\n      dup4\n        /* \"@openzeppelin/contracts/token/ERC20/ERC20.sol\":6398:6409  fromBalance */\n      dup2\n        /* \"@openzeppelin/contracts/token/ERC20/ERC20.sol\":6411:6416  value */\n      dup4\n        /* \"@openzeppelin/contracts/token/ERC20/ERC20.sol\":6367:6417  ERC20InsufficientBalance(from, fromBalance, value) */\n      mload(0x40)\n      0xe450d38c00000000000000000000000000000000000000000000000000000000\n      dup2\n      mstore\n      0x04\n      add\n      tag_287\n      swap4\n      swap3\n      swap2\n      swap1\n      tag_274\n      jump\t// in\n    tag_287:\n      mload(0x40)\n      dup1\n      swap2\n      sub\n      swap1\n      revert\n        /* \"@openzeppelin/contracts/token/ERC20/ERC20.sol\":6317:6432  if (fromBalance < value) {... */\n    tag_286:\n        /* \"@openzeppelin/contracts/token/ERC20/ERC20.sol\":6584:6589  value */\n      dup2\n        /* \"@openzeppelin/contracts/token/ERC20/ERC20.sol\":6570:6581  fromBalance */\n      dup2\n        /* \"@openzeppelin/contracts/token/ERC20/ERC20.sol\":6570:6589  fromBalance - value */\n      sub\n        /* \"@openzeppelin/contracts/token/ERC20/ERC20.sol\":6552:6561  _balances */\n      0x00\n        /* \"@openzeppelin/contracts/token/ERC20/ERC20.sol\":6552:6567  _balances[from] */\n      dup1\n        /* \"@openzeppelin/contracts/token/ERC20/ERC20.sol\":6562:6566  from */\n      dup7\n        /* \"@openzeppelin/contracts/token/ERC20/ERC20.sol\":6552:6567  _balances[from] */\n      0xffffffffffffffffffffffffffffffffffffffff\n      and\n      0xffffffffffffffffffffffffffffffffffffffff\n      and\n      dup2\n      mstore\n      0x20\n      add\n      swap1\n      dup2\n      mstore\n      0x20\n      add\n      0x00\n      keccak256\n        /* \"@openzeppelin/contracts/token/ERC20/ERC20.sol\":6552:6589  _balances[from] = fromBalance - value */\n      dup2\n      swap1\n      sstore\n      pop\n        /* \"@openzeppelin/contracts/token/ERC20/ERC20.sol\":6252:6614  {... */\n      pop\n        /* \"@openzeppelin/contracts/token/ERC20/ERC20.sol\":6074:6614  if (from == address(0)) {... */\n    tag_285:\n        /* \"@openzeppelin/contracts/token/ERC20/ERC20.sol\":6642:6643  0 */\n      0x00\n        /* \"@openzeppelin/contracts/token/ERC20/ERC20.sol\":6628:6644  to == address(0) */\n      0xffffffffffffffffffffffffffffffffffffffff\n      and\n        /* \"@openzeppelin/contracts/token/ERC20/ERC20.sol\":6628:6630  to */\n      dup3\n        /* \"@openzeppelin/contracts/token/ERC20/ERC20.sol\":6628:6644  to == address(0) */\n      0xffffffffffffffffffffffffffffffffffffffff\n      and\n      sub\n        /* \"@openzeppelin/contracts/token/ERC20/ERC20.sol\":6624:7049  if (to == address(0)) {... */\n      tag_288\n      jumpi\n        /* \"@openzeppelin/contracts/token/ERC20/ERC20.sol\":6807:6812  value */\n      dup1\n        /* \"@openzeppelin/contracts/token/ERC20/ERC20.sol\":6791:6803  _totalSupply */\n      0x02\n      0x00\n        /* \"@openzeppelin/contracts/token/ERC20/ERC20.sol\":6791:6812  _totalSupply -= value */\n      dup3\n      dup3\n      sload\n      sub\n      swap3\n      pop\n      pop\n      dup2\n      swap1\n      sstore\n      pop\n        /* \"@openzeppelin/contracts/token/ERC20/ERC20.sol\":6624:7049  if (to == address(0)) {... */\n      jump(tag_289)\n    tag_288:\n        /* \"@openzeppelin/contracts/token/ERC20/ERC20.sol\":7019:7024  value */\n      dup1\n        /* \"@openzeppelin/contracts/token/ERC20/ERC20.sol\":7002:7011  _balances */\n      0x00\n        /* \"@openzeppelin/contracts/token/ERC20/ERC20.sol\":7002:7015  _balances[to] */\n      dup1\n        /* \"@openzeppelin/contracts/token/ERC20/ERC20.sol\":7012:7014  to */\n      dup5\n        /* \"@openzeppelin/contracts/token/ERC20/ERC20.sol\":7002:7015  _balances[to] */\n      0xffffffffffffffffffffffffffffffffffffffff\n      and\n      0xffffffffffffffffffffffffffffffffffffffff\n      and\n      dup2\n      mstore\n      0x20\n      add\n      swap1\n      dup2\n      mstore\n      0x20\n      add\n      0x00\n      keccak256\n      0x00\n        /* \"@openzeppelin/contracts/token/ERC20/ERC20.sol\":7002:7024  _balances[to] += value */\n      dup3\n      dup3\n      sload\n      add\n      swap3\n      pop\n      pop\n      dup2\n      swap1\n      sstore\n      pop\n        /* \"@openzeppelin/contracts/token/ERC20/ERC20.sol\":6624:7049  if (to == address(0)) {... */\n    tag_289:\n        /* \"@openzeppelin/contracts/token/ERC20/ERC20.sol\":7079:7081  to */\n      dup2\n        /* \"@openzeppelin/contracts/token/ERC20/ERC20.sol\":7064:7089  Transfer(from, to, value) */\n      0xffffffffffffffffffffffffffffffffffffffff\n      and\n        /* \"@openzeppelin/contracts/token/ERC20/ERC20.sol\":7073:7077  from */\n      dup4\n        /* \"@openzeppelin/contracts/token/ERC20/ERC20.sol\":7064:7089  Transfer(from, to, value) */\n      0xffffffffffffffffffffffffffffffffffffffff\n      and\n      0xddf252ad1be2c89b69c2b068fc378daa952ba7f163c4a11628f55a4df523b3ef\n        /* \"@openzeppelin/contracts/token/ERC20/ERC20.sol\":7083:7088  value */\n      dup4\n        /* \"@openzeppelin/contracts/token/ERC20/ERC20.sol\":7064:7089  Transfer(from, to, value) */\n      mload(0x40)\n      tag_290\n      swap2\n      swap1\n      tag_55\n      jump\t// in\n    tag_290:\n      mload(0x40)\n      dup1\n      swap2\n      sub\n      swap1\n      log3\n        /* \"@openzeppelin/contracts/token/ERC20/ERC20.sol\":5989:7096  function _update(address from, address to, uint256 value) internal virtual {... */\n      pop\n      pop\n      pop\n      jump\t// out\n        /* \"#utility.yul\":7:106   */\n    tag_291:\n        /* \"#utility.yul\":59:65   */\n      0x00\n        /* \"#utility.yul\":93:98   */\n      dup2\n        /* \"#utility.yul\":87:99   */\n      mload\n        /* \"#utility.yul\":77:99   */\n      swap1\n      pop\n        /* \"#utility.yul\":7:106   */\n      swap2\n      swap1\n      pop\n      jump\t// out\n        /* \"#utility.yul\":112:281   */\n    tag_292:\n        /* \"#utility.yul\":196:207   */\n      0x00\n        /* \"#utility.yul\":230:236   */\n      dup3\n        /* \"#utility.yul\":225:228   */\n      dup3\n        /* \"#utility.yul\":218:237   */\n      mstore\n        /* \"#utility.yul\":270:274   */\n      0x20\n        /* \"#utility.yul\":265:268   */\n      dup3\n        /* \"#utility.yul\":261:275   */\n      add\n        /* \"#utility.yul\":246:275   */\n      swap1\n      pop\n        /* \"#utility.yul\":112:281   */\n      swap3\n      swap2\n      pop\n      pop\n      jump\t// out\n        /* \"#utility.yul\":287:533   */\n    tag_293:\n        /* \"#utility.yul\":368:369   */\n      0x00\n        /* \"#utility.yul\":378:491   */\n    tag_326:\n        /* \"#utility.yul\":392:398   */\n      dup4\n        /* \"#utility.yul\":389:390   */\n      dup2\n        /* \"#utility.yul\":386:399   */\n      lt\n        /* \"#utility.yul\":378:491   */\n      iszero\n      tag_328\n      jumpi\n        /* \"#utility.yul\":477:478   */\n      dup1\n        /* \"#utility.yul\":472:475   */\n      dup3\n        /* \"#utility.yul\":468:479   */\n      add\n        /* \"#utility.yul\":462:480   */\n      mload\n        /* \"#utility.yul\":458:459   */\n      dup2\n        /* \"#utility.yul\":453:456   */\n      dup5\n        /* \"#utility.yul\":449:460   */\n      add\n        /* \"#utility.yul\":442:481   */\n      mstore\n        /* \"#utility.yul\":414:416   */\n      0x20\n        /* \"#utility.yul\":411:412   */\n      dup2\n        /* \"#utility.yul\":407:417   */\n      add\n        /* \"#utility.yul\":402:417   */\n      swap1\n      pop\n        /* \"#utility.yul\":378:491   */\n      jump(tag_326)\n    tag_328:\n        /* \"#utility.yul\":525:526   */\n      0x00\n        /* \"#utility.yul\":516:522   */\n      dup5\n        /* \"#utility.yul\":511:514   */\n      dup5\n        /* \"#utility.yul\":507:523   */\n      add\n        /* \"#utility.yul\":500:527   */\n      mstore\n        /* \"#utility.yul\":349:533   */\n      pop\n        /* \"#utility.yul\":287:533   */\n      pop\n      pop\n      pop\n      jump\t// out\n        /* \"#utility.yul\":539:641   */\n    tag_294:\n        /* \"#utility.yul\":580:586   */\n      0x00\n        /* \"#utility.yul\":631:633   */\n      0x1f\n        /* \"#utility.yul\":627:634   */\n      not\n        /* \"#utility.yul\":622:624   */\n      0x1f\n        /* \"#utility.yul\":615:620   */\n      dup4\n        /* \"#utility.yul\":611:625   */\n      add\n        /* \"#utility.yul\":607:635   */\n      and\n        /* \"#utility.yul\":597:635   */\n      swap1\n      pop\n        /* \"#utility.yul\":539:641   */\n      swap2\n      swap1\n      pop\n      jump\t// out\n        /* \"#utility.yul\":647:1024   */\n    tag_295:\n        /* \"#utility.yul\":735:738   */\n      0x00\n        /* \"#utility.yul\":763:802   */\n      tag_331\n        /* \"#utility.yul\":796:801   */\n      dup3\n        /* \"#utility.yul\":763:802   */\n      tag_291\n      jump\t// in\n    tag_331:\n        /* \"#utility.yul\":818:889   */\n      tag_332\n        /* \"#utility.yul\":882:888   */\n      dup2\n        /* \"#utility.yul\":877:880   */\n      dup6\n        /* \"#utility.yul\":818:889   */\n      tag_292\n      jump\t// in\n    tag_332:\n        /* \"#utility.yul\":811:889   */\n      swap4\n      pop\n        /* \"#utility.yul\":898:963   */\n      tag_333\n        /* \"#utility.yul\":956:962   */\n      dup2\n        /* \"#utility.yul\":951:954   */\n      dup6\n        /* \"#utility.yul\":944:948   */\n      0x20\n        /* \"#utility.yul\":937:942   */\n      dup7\n        /* \"#utility.yul\":933:949   */\n      add\n        /* \"#utility.yul\":898:963   */\n      tag_293\n      jump\t// in\n    tag_333:\n        /* \"#utility.yul\":988:1017   */\n      tag_334\n        /* \"#utility.yul\":1010:1016   */\n      dup2\n        /* \"#utility.yul\":988:1017   */\n      tag_294\n      jump\t// in\n    tag_334:\n        /* \"#utility.yul\":983:986   */\n      dup5\n        /* \"#utility.yul\":979:1018   */\n      add\n        /* \"#utility.yul\":972:1018   */\n      swap2\n      pop\n        /* \"#utility.yul\":739:1024   */\n      pop\n        /* \"#utility.yul\":647:1024   */\n      swap3\n      swap2\n      pop\n      pop\n      jump\t// out\n        /* \"#utility.yul\":1030:1343   */\n    tag_43:\n        /* \"#utility.yul\":1143:1147   */\n      0x00\n        /* \"#utility.yul\":1181:1183   */\n      0x20\n        /* \"#utility.yul\":1170:1179   */\n      dup3\n        /* \"#utility.yul\":1166:1184   */\n      add\n        /* \"#utility.yul\":1158:1184   */\n      swap1\n      pop\n        /* \"#utility.yul\":1230:1239   */\n      dup2\n        /* \"#utility.yul\":1224:1228   */\n      dup2\n        /* \"#utility.yul\":1220:1240   */\n      sub\n        /* \"#utility.yul\":1216:1217   */\n      0x00\n        /* \"#utility.yul\":1205:1214   */\n      dup4\n        /* \"#utility.yul\":1201:1218   */\n      add\n        /* \"#utility.yul\":1194:1241   */\n      mstore\n        /* \"#utility.yul\":1258:1336   */\n      tag_336\n        /* \"#utility.yul\":1331:1335   */\n      dup2\n        /* \"#utility.yul\":1322:1328   */\n      dup5\n        /* \"#utility.yul\":1258:1336   */\n      tag_295\n      jump\t// in\n    tag_336:\n        /* \"#utility.yul\":1250:1336   */\n      swap1\n      pop\n        /* \"#utility.yul\":1030:1343   */\n      swap3\n      swap2\n      pop\n      pop\n      jump\t// out\n        /* \"#utility.yul\":1430:1547   */\n    tag_297:\n        /* \"#utility.yul\":1539:1540   */\n      0x00\n        /* \"#utility.yul\":1536:1537   */\n      dup1\n        /* \"#utility.yul\":1529:1541   */\n      revert\n        /* \"#utility.yul\":1676:1802   */\n    tag_299:\n        /* \"#utility.yul\":1713:1720   */\n      0x00\n        /* \"#utility.yul\":1753:1795   */\n      0xffffffffffffffffffffffffffffffffffffffff\n        /* \"#utility.yul\":1746:1751   */\n      dup3\n        /* \"#utility.yul\":1742:1796   */\n      and\n        /* \"#utility.yul\":1731:1796   */\n      swap1\n      pop\n        /* \"#utility.yul\":1676:1802   */\n      swap2\n      swap1\n      pop\n      jump\t// out\n        /* \"#utility.yul\":1808:1904   */\n    tag_300:\n        /* \"#utility.yul\":1845:1852   */\n      0x00\n        /* \"#utility.yul\":1874:1898   */\n      tag_342\n        /* \"#utility.yul\":1892:1897   */\n      dup3\n        /* \"#utility.yul\":1874:1898   */\n      tag_299\n      jump\t// in\n    tag_342:\n        /* \"#utility.yul\":1863:1898   */\n      swap1\n      pop\n        /* \"#utility.yul\":1808:1904   */\n      swap2\n      swap1\n      pop\n      jump\t// out\n        /* \"#utility.yul\":1910:2032   */\n    tag_301:\n        /* \"#utility.yul\":1983:2007   */\n      tag_344\n        /* \"#utility.yul\":2001:2006   */\n      dup2\n        /* \"#utility.yul\":1983:2007   */\n      tag_300\n      jump\t// in\n    tag_344:\n        /* \"#utility.yul\":1976:1981   */\n      dup2\n        /* \"#utility.yul\":1973:2008   */\n      eq\n        /* \"#utility.yul\":1963:2026   */\n      tag_345\n      jumpi\n        /* \"#utility.yul\":2022:2023   */\n      0x00\n        /* \"#utility.yul\":2019:2020   */\n      dup1\n        /* \"#utility.yul\":2012:2024   */\n      revert\n        /* \"#utility.yul\":1963:2026   */\n    tag_345:\n        /* \"#utility.yul\":1910:2032   */\n      pop\n      jump\t// out\n        /* \"#utility.yul\":2038:2177   */\n    tag_302:\n        /* \"#utility.yul\":2084:2089   */\n      0x00\n        /* \"#utility.yul\":2122:2128   */\n      dup2\n        /* \"#utility.yul\":2109:2129   */\n      calldataload\n        /* \"#utility.yul\":2100:2129   */\n      swap1\n      pop\n        /* \"#utility.yul\":2138:2171   */\n      tag_347\n        /* \"#utility.yul\":2165:2170   */\n      dup2\n        /* \"#utility.yul\":2138:2171   */\n      tag_301\n      jump\t// in\n    tag_347:\n        /* \"#utility.yul\":2038:2177   */\n      swap3\n      swap2\n      pop\n      pop\n      jump\t// out\n        /* \"#utility.yul\":2183:2260   */\n    tag_303:\n        /* \"#utility.yul\":2220:2227   */\n      0x00\n        /* \"#utility.yul\":2249:2254   */\n      dup2\n        /* \"#utility.yul\":2238:2254   */\n      swap1\n      pop\n        /* \"#utility.yul\":2183:2260   */\n      swap2\n      swap1\n      pop\n      jump\t// out\n        /* \"#utility.yul\":2266:2388   */\n    tag_304:\n        /* \"#utility.yul\":2339:2363   */\n      tag_350\n        /* \"#utility.yul\":2357:2362   */\n      dup2\n        /* \"#utility.yul\":2339:2363   */\n      tag_303\n      jump\t// in\n    tag_350:\n        /* \"#utility.yul\":2332:2337   */\n      dup2\n        /* \"#utility.yul\":2329:2364   */\n      eq\n        /* \"#utility.yul\":2319:2382   */\n      tag_351\n      jumpi\n        /* \"#utility.yul\":2378:2379   */\n      0x00\n        /* \"#utility.yul\":2375:2376   */\n      dup1\n        /* \"#utility.yul\":2368:2380   */\n      revert\n        /* \"#utility.yul\":2319:2382   */\n    tag_351:\n        /* \"#utility.yul\":2266:2388   */\n      pop\n      jump\t// out\n        /* \"#utility.yul\":2394:2533   */\n    tag_305:\n        /* \"#utility.yul\":2440:2445   */\n      0x00\n        /* \"#utility.yul\":2478:2484   */\n      dup2\n        /* \"#utility.yul\":2465:2485   */\n      calldataload\n        /* \"#utility.yul\":2456:2485   */\n      swap1\n      pop\n        /* \"#utility.yul\":2494:2527   */\n      tag_353\n        /* \"#utility.yul\":2521:2526   */\n      dup2\n        /* \"#utility.yul\":2494:2527   */\n      tag_304\n      jump\t// in\n    tag_353:\n        /* \"#utility.yul\":2394:2533   */\n      swap3\n      swap2\n      pop\n      pop\n      jump\t// out\n        /* \"#utility.yul\":2539:3013   */\n    tag_46:\n        /* \"#utility.yul\":2607:2613   */\n      0x00\n        /* \"#utility.yul\":2615:2621   */\n      dup1\n        /* \"#utility.yul\":2664:2666   */\n      0x40\n        /* \"#utility.yul\":2652:2661   */\n      dup4\n        /* \"#utility.yul\":2643:2650   */\n      dup6\n        /* \"#utility.yul\":2639:2662   */\n      sub\n        /* \"#utility.yul\":2635:2667   */\n      slt\n        /* \"#utility.yul\":2632:2751   */\n      iszero\n      tag_355\n      jumpi\n        /* \"#utility.yul\":2670:2749   */\n      tag_356\n      tag_297\n      jump\t// in\n    tag_356:\n        /* \"#utility.yul\":2632:2751   */\n    tag_355:\n        /* \"#utility.yul\":2790:2791   */\n      0x00\n        /* \"#utility.yul\":2815:2868   */\n      tag_357\n        /* \"#utility.yul\":2860:2867   */\n      dup6\n        /* \"#utility.yul\":2851:2857   */\n      dup3\n        /* \"#utility.yul\":2840:2849   */\n      dup7\n        /* \"#utility.yul\":2836:2858   */\n      add\n        /* \"#utility.yul\":2815:2868   */\n      tag_302\n      jump\t// in\n    tag_357:\n        /* \"#utility.yul\":2805:2868   */\n      swap3\n      pop\n        /* \"#utility.yul\":2761:2878   */\n      pop\n        /* \"#utility.yul\":2917:2919   */\n      0x20\n        /* \"#utility.yul\":2943:2996   */\n      tag_358\n        /* \"#utility.yul\":2988:2995   */\n      dup6\n        /* \"#utility.yul\":2979:2985   */\n      dup3\n        /* \"#utility.yul\":2968:2977   */\n      dup7\n        /* \"#utility.yul\":2964:2986   */\n      add\n        /* \"#utility.yul\":2943:2996   */\n      tag_305\n      jump\t// in\n    tag_358:\n        /* \"#utility.yul\":2933:2996   */\n      swap2\n      pop\n        /* \"#utility.yul\":2888:3006   */\n      pop\n        /* \"#utility.yul\":2539:3013   */\n      swap3\n      pop\n      swap3\n      swap1\n      pop\n      jump\t// out\n        /* \"#utility.yul\":3019:3109   */\n    tag_306:\n        /* \"#utility.yul\":3053:3060   */\n      0x00\n        /* \"#utility.yul\":3096:3101   */\n      dup2\n        /* \"#utility.yul\":3089:3102   */\n      iszero\n        /* \"#utility.yul\":3082:3103   */\n      iszero\n        /* \"#utility.yul\":3071:3103   */\n      swap1\n      pop\n        /* \"#utility.yul\":3019:3109   */\n      swap2\n      swap1\n      pop\n      jump\t// out\n        /* \"#utility.yul\":3115:3224   */\n    tag_307:\n        /* \"#utility.yul\":3196:3217   */\n      tag_361\n        /* \"#utility.yul\":3211:3216   */\n      dup2\n        /* \"#utility.yul\":3196:3217   */\n      tag_306\n      jump\t// in\n    tag_361:\n        /* \"#utility.yul\":3191:3194   */\n      dup3\n        /* \"#utility.yul\":3184:3218   */\n      mstore\n        /* \"#utility.yul\":3115:3224   */\n      pop\n      pop\n      jump\t// out\n        /* \"#utility.yul\":3230:3440   */\n    tag_49:\n        /* \"#utility.yul\":3317:3321   */\n      0x00\n        /* \"#utility.yul\":3355:3357   */\n      0x20\n        /* \"#utility.yul\":3344:3353   */\n      dup3\n        /* \"#utility.yul\":3340:3358   */\n      add\n        /* \"#utility.yul\":3332:3358   */\n      swap1\n      pop\n        /* \"#utility.yul\":3368:3433   */\n      tag_363\n        /* \"#utility.yul\":3430:3431   */\n      0x00\n        /* \"#utility.yul\":3419:3428   */\n      dup4\n        /* \"#utility.yul\":3415:3432   */\n      add\n        /* \"#utility.yul\":3406:3412   */\n      dup5\n        /* \"#utility.yul\":3368:3433   */\n      tag_307\n      jump\t// in\n    tag_363:\n        /* \"#utility.yul\":3230:3440   */\n      swap3\n      swap2\n      pop\n      pop\n      jump\t// out\n        /* \"#utility.yul\":3446:3775   */\n    tag_52:\n        /* \"#utility.yul\":3505:3511   */\n      0x00\n        /* \"#utility.yul\":3554:3556   */\n      0x20\n        /* \"#utility.yul\":3542:3551   */\n      dup3\n        /* \"#utility.yul\":3533:3540   */\n      dup5\n        /* \"#utility.yul\":3529:3552   */\n      sub\n        /* \"#utility.yul\":3525:3557   */\n      slt\n        /* \"#utility.yul\":3522:3641   */\n      iszero\n      tag_365\n      jumpi\n        /* \"#utility.yul\":3560:3639   */\n      tag_366\n      tag_297\n      jump\t// in\n    tag_366:\n        /* \"#utility.yul\":3522:3641   */\n    tag_365:\n        /* \"#utility.yul\":3680:3681   */\n      0x00\n        /* \"#utility.yul\":3705:3758   */\n      tag_367\n        /* \"#utility.yul\":3750:3757   */\n      dup5\n        /* \"#utility.yul\":3741:3747   */\n      dup3\n        /* \"#utility.yul\":3730:3739   */\n      dup6\n        /* \"#utility.yul\":3726:3748   */\n      add\n        /* \"#utility.yul\":3705:3758   */\n      tag_302\n      jump\t// in\n    tag_367:\n        /* \"#utility.yul\":3695:3758   */\n      swap2\n      pop\n        /* \"#utility.yul\":3651:3768   */\n      pop\n        /* \"#utility.yul\":3446:3775   */\n      swap3\n      swap2\n      pop\n      pop\n      jump\t// out\n        /* \"#utility.yul\":3781:3899   */\n    tag_308:\n        /* \"#utility.yul\":3868:3892   */\n      tag_369\n        /* \"#utility.yul\":3886:3891   */\n      dup2\n        /* \"#utility.yul\":3868:3892   */\n      tag_303\n      jump\t// in\n    tag_369:\n        /* \"#utility.yul\":3863:3866   */\n      dup3\n        /* \"#utility.yul\":3856:3893   */\n      mstore\n        /* \"#utility.yul\":3781:3899   */\n      pop\n      pop\n      jump\t// out\n        /* \"#utility.yul\":3905:4127   */\n    tag_55:\n        /* \"#utility.yul\":3998:4002   */\n      0x00\n        /* \"#utility.yul\":4036:4038   */\n      0x20\n        /* \"#utility.yul\":4025:4034   */\n      dup3\n        /* \"#utility.yul\":4021:4039   */\n      add\n        /* \"#utility.yul\":4013:4039   */\n      swap1\n      pop\n        /* \"#utility.yul\":4049:4120   */\n      tag_371\n        /* \"#utility.yul\":4117:4118   */\n      0x00\n        /* \"#utility.yul\":4106:4115   */\n      dup4\n        /* \"#utility.yul\":4102:4119   */\n      add\n        /* \"#utility.yul\":4093:4099   */\n      dup5\n        /* \"#utility.yul\":4049:4120   */\n      tag_308\n      jump\t// in\n    tag_371:\n        /* \"#utility.yul\":3905:4127   */\n      swap3\n      swap2\n      pop\n      pop\n      jump\t// out\n        /* \"#utility.yul\":4133:4251   */\n    tag_309:\n        /* \"#utility.yul\":4220:4244   */\n      tag_373\n        /* \"#utility.yul\":4238:4243   */\n      dup2\n        /* \"#utility.yul\":4220:4244   */\n      tag_300\n      jump\t// in\n    tag_373:\n        /* \"#utility.yul\":4215:4218   */\n      dup3\n        /* \"#utility.yul\":4208:4245   */\n      mstore\n        /* \"#utility.yul\":4133:4251   */\n      pop\n      pop\n      jump\t// out\n        /* \"#utility.yul\":4257:4479   */\n    tag_59:\n        /* \"#utility.yul\":4350:4354   */\n      0x00\n        /* \"#utility.yul\":4388:4390   */\n      0x20\n        /* \"#utility.yul\":4377:4386   */\n      dup3\n        /* \"#utility.yul\":4373:4391   */\n      add\n        /* \"#utility.yul\":4365:4391   */\n      swap1\n      pop\n        /* \"#utility.yul\":4401:4472   */\n      tag_375\n        /* \"#utility.yul\":4469:4470   */\n      0x00\n        /* \"#utility.yul\":4458:4467   */\n      dup4\n        /* \"#utility.yul\":4454:4471   */\n      add\n        /* \"#utility.yul\":4445:4451   */\n      dup5\n        /* \"#utility.yul\":4401:4472   */\n      tag_309\n      jump\t// in\n    tag_375:\n        /* \"#utility.yul\":4257:4479   */\n      swap3\n      swap2\n      pop\n      pop\n      jump\t// out\n        /* \"#utility.yul\":4485:5104   */\n    tag_69:\n        /* \"#utility.yul\":4562:4568   */\n      0x00\n        /* \"#utility.yul\":4570:4576   */\n      dup1\n        /* \"#utility.yul\":4578:4584   */\n      0x00\n        /* \"#utility.yul\":4627:4629   */\n      0x60\n        /* \"#utility.yul\":4615:4624   */\n      dup5\n        /* \"#utility.yul\":4606:4613   */\n      dup7\n        /* \"#utility.yul\":4602:4625   */\n      sub\n        /* \"#utility.yul\":4598:4630   */\n      slt\n        /* \"#utility.yul\":4595:4714   */\n      iszero\n      tag_377\n      jumpi\n        /* \"#utility.yul\":4633:4712   */\n      tag_378\n      tag_297\n      jump\t// in\n    tag_378:\n        /* \"#utility.yul\":4595:4714   */\n    tag_377:\n        /* \"#utility.yul\":4753:4754   */\n      0x00\n        /* \"#utility.yul\":4778:4831   */\n      tag_379\n        /* \"#utility.yul\":4823:4830   */\n      dup7\n        /* \"#utility.yul\":4814:4820   */\n      dup3\n        /* \"#utility.yul\":4803:4812   */\n      dup8\n        /* \"#utility.yul\":4799:4821   */\n      add\n        /* \"#utility.yul\":4778:4831   */\n      tag_302\n      jump\t// in\n    tag_379:\n        /* \"#utility.yul\":4768:4831   */\n      swap4\n      pop\n        /* \"#utility.yul\":4724:4841   */\n      pop\n        /* \"#utility.yul\":4880:4882   */\n      0x20\n        /* \"#utility.yul\":4906:4959   */\n      tag_380\n        /* \"#utility.yul\":4951:4958   */\n      dup7\n        /* \"#utility.yul\":4942:4948   */\n      dup3\n        /* \"#utility.yul\":4931:4940   */\n      dup8\n        /* \"#utility.yul\":4927:4949   */\n      add\n        /* \"#utility.yul\":4906:4959   */\n      tag_302\n      jump\t// in\n    tag_380:\n        /* \"#utility.yul\":4896:4959   */\n      swap3\n      pop\n        /* \"#utility.yul\":4851:4969   */\n      pop\n        /* \"#utility.yul\":5008:5010   */\n      0x40\n        /* \"#utility.yul\":5034:5087   */\n      tag_381\n        /* \"#utility.yul\":5079:5086   */\n      dup7\n        /* \"#utility.yul\":5070:5076   */\n      dup3\n        /* \"#utility.yul\":5059:5068   */\n      dup8\n        /* \"#utility.yul\":5055:5077   */\n      add\n        /* \"#utility.yul\":5034:5087   */\n      tag_305\n      jump\t// in\n    tag_381:\n        /* \"#utility.yul\":5024:5087   */\n      swap2\n      pop\n        /* \"#utility.yul\":4979:5097   */\n      pop\n        /* \"#utility.yul\":4485:5104   */\n      swap3\n      pop\n      swap3\n      pop\n      swap3\n      jump\t// out\n        /* \"#utility.yul\":5110:5196   */\n    tag_310:\n        /* \"#utility.yul\":5145:5152   */\n      0x00\n        /* \"#utility.yul\":5185:5189   */\n      0xff\n        /* \"#utility.yul\":5178:5183   */\n      dup3\n        /* \"#utility.yul\":5174:5190   */\n      and\n        /* \"#utility.yul\":5163:5190   */\n      swap1\n      pop\n        /* \"#utility.yul\":5110:5196   */\n      swap2\n      swap1\n      pop\n      jump\t// out\n        /* \"#utility.yul\":5202:5314   */\n    tag_311:\n        /* \"#utility.yul\":5285:5307   */\n      tag_384\n        /* \"#utility.yul\":5301:5306   */\n      dup2\n        /* \"#utility.yul\":5285:5307   */\n      tag_310\n      jump\t// in\n    tag_384:\n        /* \"#utility.yul\":5280:5283   */\n      dup3\n        /* \"#utility.yul\":5273:5308   */\n      mstore\n        /* \"#utility.yul\":5202:5314   */\n      pop\n      pop\n      jump\t// out\n        /* \"#utility.yul\":5320:5534   */\n    tag_78:\n        /* \"#utility.yul\":5409:5413   */\n      0x00\n        /* \"#utility.yul\":5447:5449   */\n      0x20\n        /* \"#utility.yul\":5436:5445   */\n      dup3\n        /* \"#utility.yul\":5432:5450   */\n      add\n        /* \"#utility.yul\":5424:5450   */\n      swap1\n      pop\n        /* \"#utility.yul\":5460:5527   */\n      tag_386\n        /* \"#utility.yul\":5524:5525   */\n      0x00\n        /* \"#utility.yul\":5513:5522   */\n      dup4\n        /* \"#utility.yul\":5509:5526   */\n      add\n        /* \"#utility.yul\":5500:5506   */\n      dup5\n        /* \"#utility.yul\":5460:5527   */\n      tag_311\n      jump\t// in\n    tag_386:\n        /* \"#utility.yul\":5320:5534   */\n      swap3\n      swap2\n      pop\n      pop\n      jump\t// out\n        /* \"#utility.yul\":5540:6014   */\n    tag_132:\n        /* \"#utility.yul\":5608:5614   */\n      0x00\n        /* \"#utility.yul\":5616:5622   */\n      dup1\n        /* \"#utility.yul\":5665:5667   */\n      0x40\n        /* \"#utility.yul\":5653:5662   */\n      dup4\n        /* \"#utility.yul\":5644:5651   */\n      dup6\n        /* \"#utility.yul\":5640:5663   */\n      sub\n        /* \"#utility.yul\":5636:5668   */\n      slt\n        /* \"#utility.yul\":5633:5752   */\n      iszero\n      tag_388\n      jumpi\n        /* \"#utility.yul\":5671:5750   */\n      tag_389\n      tag_297\n      jump\t// in\n    tag_389:\n        /* \"#utility.yul\":5633:5752   */\n    tag_388:\n        /* \"#utility.yul\":5791:5792   */\n      0x00\n        /* \"#utility.yul\":5816:5869   */\n      tag_390\n        /* \"#utility.yul\":5861:5868   */\n      dup6\n        /* \"#utility.yul\":5852:5858   */\n      dup3\n        /* \"#utility.yul\":5841:5850   */\n      dup7\n        /* \"#utility.yul\":5837:5859   */\n      add\n        /* \"#utility.yul\":5816:5869   */\n      tag_302\n      jump\t// in\n    tag_390:\n        /* \"#utility.yul\":5806:5869   */\n      swap3\n      pop\n        /* \"#utility.yul\":5762:5879   */\n      pop\n        /* \"#utility.yul\":5918:5920   */\n      0x20\n        /* \"#utility.yul\":5944:5997   */\n      tag_391\n        /* \"#utility.yul\":5989:5996   */\n      dup6\n        /* \"#utility.yul\":5980:5986   */\n      dup3\n        /* \"#utility.yul\":5969:5978   */\n      dup7\n        /* \"#utility.yul\":5965:5987   */\n      add\n        /* \"#utility.yul\":5944:5997   */\n      tag_302\n      jump\t// in\n    tag_391:\n        /* \"#utility.yul\":5934:5997   */\n      swap2\n      pop\n        /* \"#utility.yul\":5889:6007   */\n      pop\n        /* \"#utility.yul\":5540:6014   */\n      swap3\n      pop\n      swap3\n      swap1\n      pop\n      jump\t// out\n        /* \"#utility.yul\":6020:6200   */\n    tag_312:\n        /* \"#utility.yul\":6068:6145   */\n      0x4e487b7100000000000000000000000000000000000000000000000000000000\n        /* \"#utility.yul\":6065:6066   */\n      0x00\n        /* \"#utility.yul\":6058:6146   */\n      mstore\n        /* \"#utility.yul\":6165:6169   */\n      0x22\n        /* \"#utility.yul\":6162:6163   */\n      0x04\n        /* \"#utility.yul\":6155:6170   */\n      mstore\n        /* \"#utility.yul\":6189:6193   */\n      0x24\n        /* \"#utility.yul\":6186:6187   */\n      0x00\n        /* \"#utility.yul\":6179:6194   */\n      revert\n        /* \"#utility.yul\":6206:6526   */\n    tag_150:\n        /* \"#utility.yul\":6250:6256   */\n      0x00\n        /* \"#utility.yul\":6287:6288   */\n      0x02\n        /* \"#utility.yul\":6281:6285   */\n      dup3\n        /* \"#utility.yul\":6277:6289   */\n      div\n        /* \"#utility.yul\":6267:6289   */\n      swap1\n      pop\n        /* \"#utility.yul\":6334:6335   */\n      0x01\n        /* \"#utility.yul\":6328:6332   */\n      dup3\n        /* \"#utility.yul\":6324:6336   */\n      and\n        /* \"#utility.yul\":6355:6373   */\n      dup1\n        /* \"#utility.yul\":6345:6426   */\n      tag_394\n      jumpi\n        /* \"#utility.yul\":6411:6415   */\n      0x7f\n        /* \"#utility.yul\":6403:6409   */\n      dup3\n        /* \"#utility.yul\":6399:6416   */\n      and\n        /* \"#utility.yul\":6389:6416   */\n      swap2\n      pop\n        /* \"#utility.yul\":6345:6426   */\n    tag_394:\n        /* \"#utility.yul\":6473:6475   */\n      0x20\n        /* \"#utility.yul\":6465:6471   */\n      dup3\n        /* \"#utility.yul\":6462:6476   */\n      lt\n        /* \"#utility.yul\":6442:6460   */\n      dup2\n        /* \"#utility.yul\":6439:6477   */\n      sub\n        /* \"#utility.yul\":6436:6520   */\n      tag_395\n      jumpi\n        /* \"#utility.yul\":6492:6510   */\n      tag_396\n      tag_312\n      jump\t// in\n    tag_396:\n        /* \"#utility.yul\":6436:6520   */\n    tag_395:\n        /* \"#utility.yul\":6257:6526   */\n      pop\n        /* \"#utility.yul\":6206:6526   */\n      swap2\n      swap1\n      pop\n      jump\t// out\n        /* \"#utility.yul\":6532:6698   */\n    tag_313:\n        /* \"#utility.yul\":6672:6690   */\n      0x53656e6465722069732066726f7a656e00000000000000000000000000000000\n        /* \"#utility.yul\":6668:6669   */\n      0x00\n        /* \"#utility.yul\":6660:6666   */\n      dup3\n        /* \"#utility.yul\":6656:6670   */\n      add\n        /* \"#utility.yul\":6649:6691   */\n      mstore\n        /* \"#utility.yul\":6532:6698   */\n      pop\n      jump\t// out\n        /* \"#utility.yul\":6704:7070   */\n    tag_314:\n        /* \"#utility.yul\":6846:6849   */\n      0x00\n        /* \"#utility.yul\":6867:6934   */\n      tag_399\n        /* \"#utility.yul\":6931:6933   */\n      0x10\n        /* \"#utility.yul\":6926:6929   */\n      dup4\n        /* \"#utility.yul\":6867:6934   */\n      tag_292\n      jump\t// in\n    tag_399:\n        /* \"#utility.yul\":6860:6934   */\n      swap2\n      pop\n        /* \"#utility.yul\":6943:7036   */\n      tag_400\n        /* \"#utility.yul\":7032:7035   */\n      dup3\n        /* \"#utility.yul\":6943:7036   */\n      tag_313\n      jump\t// in\n    tag_400:\n        /* \"#utility.yul\":7061:7063   */\n      0x20\n        /* \"#utility.yul\":7056:7059   */\n      dup3\n        /* \"#utility.yul\":7052:7064   */\n      add\n        /* \"#utility.yul\":7045:7064   */\n      swap1\n      pop\n        /* \"#utility.yul\":6704:7070   */\n      swap2\n      swap1\n      pop\n      jump\t// out\n        /* \"#utility.yul\":7076:7495   */\n    tag_168:\n        /* \"#utility.yul\":7242:7246   */\n      0x00\n        /* \"#utility.yul\":7280:7282   */\n      0x20\n        /* \"#utility.yul\":7269:7278   */\n      dup3\n        /* \"#utility.yul\":7265:7283   */\n      add\n        /* \"#utility.yul\":7257:7283   */\n      swap1\n      pop\n        /* \"#utility.yul\":7329:7338   */\n      dup2\n        /* \"#utility.yul\":7323:7327   */\n      dup2\n        /* \"#utility.yul\":7319:7339   */\n      sub\n        /* \"#utility.yul\":7315:7316   */\n      0x00\n        /* \"#utility.yul\":7304:7313   */\n      dup4\n        /* \"#utility.yul\":7300:7317   */\n      add\n        /* \"#utility.yul\":7293:7340   */\n      mstore\n        /* \"#utility.yul\":7357:7488   */\n      tag_402\n        /* \"#utility.yul\":7483:7487   */\n      dup2\n        /* \"#utility.yul\":7357:7488   */\n      tag_314\n      jump\t// in\n    tag_402:\n        /* \"#utility.yul\":7349:7488   */\n      swap1\n      pop\n        /* \"#utility.yul\":7076:7495   */\n      swap2\n      swap1\n      pop\n      jump\t// out\n        /* \"#utility.yul\":7501:7676   */\n    tag_315:\n        /* \"#utility.yul\":7641:7668   */\n      0x416d6f756e74206d75737420626520616e20696e746567657200000000000000\n        /* \"#utility.yul\":7637:7638   */\n      0x00\n        /* \"#utility.yul\":7629:7635   */\n      dup3\n        /* \"#utility.yul\":7625:7639   */\n      add\n        /* \"#utility.yul\":7618:7669   */\n      mstore\n        /* \"#utility.yul\":7501:7676   */\n      pop\n      jump\t// out\n        /* \"#utility.yul\":7682:8048   */\n    tag_316:\n        /* \"#utility.yul\":7824:7827   */\n      0x00\n        /* \"#utility.yul\":7845:7912   */\n      tag_405\n        /* \"#utility.yul\":7909:7911   */\n      0x19\n        /* \"#utility.yul\":7904:7907   */\n      dup4\n        /* \"#utility.yul\":7845:7912   */\n      tag_292\n      jump\t// in\n    tag_405:\n        /* \"#utility.yul\":7838:7912   */\n      swap2\n      pop\n        /* \"#utility.yul\":7921:8014   */\n      tag_406\n        /* \"#utility.yul\":8010:8013   */\n      dup3\n        /* \"#utility.yul\":7921:8014   */\n      tag_315\n      jump\t// in\n    tag_406:\n        /* \"#utility.yul\":8039:8041   */\n      0x20\n        /* \"#utility.yul\":8034:8037   */\n      dup3\n        /* \"#utility.yul\":8030:8042   */\n      add\n        /* \"#utility.yul\":8023:8042   */\n      swap1\n      pop\n        /* \"#utility.yul\":7682:8048   */\n      swap2\n      swap1\n      pop\n      jump\t// out\n        /* \"#utility.yul\":8054:8473   */\n    tag_171:\n        /* \"#utility.yul\":8220:8224   */\n      0x00\n        /* \"#utility.yul\":8258:8260   */\n      0x20\n        /* \"#utility.yul\":8247:8256   */\n      dup3\n        /* \"#utility.yul\":8243:8261   */\n      add\n        /* \"#utility.yul\":8235:8261   */\n      swap1\n      pop\n        /* \"#utility.yul\":8307:8316   */\n      dup2\n        /* \"#utility.yul\":8301:8305   */\n      dup2\n        /* \"#utility.yul\":8297:8317   */\n      sub\n        /* \"#utility.yul\":8293:8294   */\n      0x00\n        /* \"#utility.yul\":8282:8291   */\n      dup4\n        /* \"#utility.yul\":8278:8295   */\n      add\n        /* \"#utility.yul\":8271:8318   */\n      mstore\n        /* \"#utility.yul\":8335:8466   */\n      tag_408\n        /* \"#utility.yul\":8461:8465   */\n      dup2\n        /* \"#utility.yul\":8335:8466   */\n      tag_316\n      jump\t// in\n    tag_408:\n        /* \"#utility.yul\":8327:8466   */\n      swap1\n      pop\n        /* \"#utility.yul\":8054:8473   */\n      swap2\n      swap1\n      pop\n      jump\t// out\n        /* \"#utility.yul\":8479:8644   */\n    tag_317:\n        /* \"#utility.yul\":8619:8636   */\n      0x4e6f742077686974656c69737465640000000000000000000000000000000000\n        /* \"#utility.yul\":8615:8616   */\n      0x00\n        /* \"#utility.yul\":8607:8613   */\n      dup3\n        /* \"#utility.yul\":8603:8617   */\n      add\n        /* \"#utility.yul\":8596:8637   */\n      mstore\n        /* \"#utility.yul\":8479:8644   */\n      pop\n      jump\t// out\n        /* \"#utility.yul\":8650:9016   */\n    tag_318:\n        /* \"#utility.yul\":8792:8795   */\n      0x00\n        /* \"#utility.yul\":8813:8880   */\n      tag_411\n        /* \"#utility.yul\":8877:8879   */\n      0x0f\n        /* \"#utility.yul\":8872:8875   */\n      dup4\n        /* \"#utility.yul\":8813:8880   */\n      tag_292\n      jump\t// in\n    tag_411:\n        /* \"#utility.yul\":8806:8880   */\n      swap2\n      pop\n        /* \"#utility.yul\":8889:8982   */\n      tag_412\n        /* \"#utility.yul\":8978:8981   */\n      dup3\n        /* \"#utility.yul\":8889:8982   */\n      tag_317\n      jump\t// in\n    tag_412:\n        /* \"#utility.yul\":9007:9009   */\n      0x20\n        /* \"#utility.yul\":9002:9005   */\n      dup3\n        /* \"#utility.yul\":8998:9010   */\n      add\n        /* \"#utility.yul\":8991:9010   */\n      swap1\n      pop\n        /* \"#utility.yul\":8650:9016   */\n      swap2\n      swap1\n      pop\n      jump\t// out\n        /* \"#utility.yul\":9022:9441   */\n    tag_181:\n        /* \"#utility.yul\":9188:9192   */\n      0x00\n        /* \"#utility.yul\":9226:9228   */\n      0x20\n        /* \"#utility.yul\":9215:9224   */\n      dup3\n        /* \"#utility.yul\":9211:9229   */\n      add\n        /* \"#utility.yul\":9203:9229   */\n      swap1\n      pop\n        /* \"#utility.yul\":9275:9284   */\n      dup2\n        /* \"#utility.yul\":9269:9273   */\n      dup2\n        /* \"#utility.yul\":9265:9285   */\n      sub\n        /* \"#utility.yul\":9261:9262   */\n      0x00\n        /* \"#utility.yul\":9250:9259   */\n      dup4\n        /* \"#utility.yul\":9246:9263   */\n      add\n        /* \"#utility.yul\":9239:9286   */\n      mstore\n        /* \"#utility.yul\":9303:9434   */\n      tag_414\n        /* \"#utility.yul\":9429:9433   */\n      dup2\n        /* \"#utility.yul\":9303:9434   */\n      tag_318\n      jump\t// in\n    tag_414:\n        /* \"#utility.yul\":9295:9434   */\n      swap1\n      pop\n        /* \"#utility.yul\":9022:9441   */\n      swap2\n      swap1\n      pop\n      jump\t// out\n        /* \"#utility.yul\":9447:9627   */\n    tag_319:\n        /* \"#utility.yul\":9495:9572   */\n      0x4e487b7100000000000000000000000000000000000000000000000000000000\n        /* \"#utility.yul\":9492:9493   */\n      0x00\n        /* \"#utility.yul\":9485:9573   */\n      mstore\n        /* \"#utility.yul\":9592:9596   */\n      0x11\n        /* \"#utility.yul\":9589:9590   */\n      0x04\n        /* \"#utility.yul\":9582:9597   */\n      mstore\n        /* \"#utility.yul\":9616:9620   */\n      0x24\n        /* \"#utility.yul\":9613:9614   */\n      0x00\n        /* \"#utility.yul\":9606:9621   */\n      revert\n        /* \"#utility.yul\":9633:9824   */\n    tag_183:\n        /* \"#utility.yul\":9673:9676   */\n      0x00\n        /* \"#utility.yul\":9692:9712   */\n      tag_417\n        /* \"#utility.yul\":9710:9711   */\n      dup3\n        /* \"#utility.yul\":9692:9712   */\n      tag_303\n      jump\t// in\n    tag_417:\n        /* \"#utility.yul\":9687:9712   */\n      swap2\n      pop\n        /* \"#utility.yul\":9726:9746   */\n      tag_418\n        /* \"#utility.yul\":9744:9745   */\n      dup4\n        /* \"#utility.yul\":9726:9746   */\n      tag_303\n      jump\t// in\n    tag_418:\n        /* \"#utility.yul\":9721:9746   */\n      swap3\n      pop\n        /* \"#utility.yul\":9769:9770   */\n      dup3\n        /* \"#utility.yul\":9766:9767   */\n      dup3\n        /* \"#utility.yul\":9762:9771   */\n      add\n        /* \"#utility.yul\":9755:9771   */\n      swap1\n      pop\n        /* \"#utility.yul\":9790:9793   */\n      dup1\n        /* \"#utility.yul\":9787:9788   */\n      dup3\n        /* \"#utility.yul\":9784:9794   */\n      gt\n        /* \"#utility.yul\":9781:9817   */\n      iszero\n      tag_419\n      jumpi\n        /* \"#utility.yul\":9797:9815   */\n      tag_420\n      tag_319\n      jump\t// in\n    tag_420:\n        /* \"#utility.yul\":9781:9817   */\n    tag_419:\n        /* \"#utility.yul\":9633:9824   */\n      swap3\n      swap2\n      pop\n      pop\n      jump\t// out\n        /* \"#utility.yul\":9830:10001   */\n    tag_320:\n        /* \"#utility.yul\":9970:9993   */\n      0x546f74616c20737570706c792065786365656465640000000000000000000000\n        /* \"#utility.yul\":9966:9967   */\n      0x00\n        /* \"#utility.yul\":9958:9964   */\n      dup3\n        /* \"#utility.yul\":9954:9968   */\n      add\n        /* \"#utility.yul\":9947:9994   */\n      mstore\n        /* \"#utility.yul\":9830:10001   */\n      pop\n      jump\t// out\n        /* \"#utility.yul\":10007:10373   */\n    tag_321:\n        /* \"#utility.yul\":10149:10152   */\n      0x00\n        /* \"#utility.yul\":10170:10237   */\n      tag_423\n        /* \"#utility.yul\":10234:10236   */\n      0x15\n        /* \"#utility.yul\":10229:10232   */\n      dup4\n        /* \"#utility.yul\":10170:10237   */\n      tag_292\n      jump\t// in\n    tag_423:\n        /* \"#utility.yul\":10163:10237   */\n      swap2\n      pop\n        /* \"#utility.yul\":10246:10339   */\n      tag_424\n        /* \"#utility.yul\":10335:10338   */\n      dup3\n        /* \"#utility.yul\":10246:10339   */\n      tag_320\n      jump\t// in\n    tag_424:\n        /* \"#utility.yul\":10364:10366   */\n      0x20\n        /* \"#utility.yul\":10359:10362   */\n      dup3\n        /* \"#utility.yul\":10355:10367   */\n      add\n        /* \"#utility.yul\":10348:10367   */\n      swap1\n      pop\n        /* \"#utility.yul\":10007:10373   */\n      swap2\n      swap1\n      pop\n      jump\t// out\n        /* \"#utility.yul\":10379:10798   */\n    tag_186:\n        /* \"#utility.yul\":10545:10549   */\n      0x00\n        /* \"#utility.yul\":10583:10585   */\n      0x20\n        /* \"#utility.yul\":10572:10581   */\n      dup3\n        /* \"#utility.yul\":10568:10586   */\n      add\n        /* \"#utility.yul\":10560:10586   */\n      swap1\n      pop\n        /* \"#utility.yul\":10632:10641   */\n      dup2\n        /* \"#utility.yul\":10626:10630   */\n      dup2\n        /* \"#utility.yul\":10622:10642   */\n      sub\n        /* \"#utility.yul\":10618:10619   */\n      0x00\n        /* \"#utility.yul\":10607:10616   */\n      dup4\n        /* \"#utility.yul\":10603:10620   */\n      add\n        /* \"#utility.yul\":10596:10643   */\n      mstore\n        /* \"#utility.yul\":10660:10791   */\n      tag_426\n        /* \"#utility.yul\":10786:10790   */\n      dup2\n        /* \"#utility.yul\":10660:10791   */\n      tag_321\n      jump\t// in\n    tag_426:\n        /* \"#utility.yul\":10652:10791   */\n      swap1\n      pop\n        /* \"#utility.yul\":10379:10798   */\n      swap2\n      swap1\n      pop\n      jump\t// out\n        /* \"#utility.yul\":10804:10998   */\n    tag_222:\n        /* \"#utility.yul\":10844:10848   */\n      0x00\n        /* \"#utility.yul\":10864:10884   */\n      tag_428\n        /* \"#utility.yul\":10882:10883   */\n      dup3\n        /* \"#utility.yul\":10864:10884   */\n      tag_303\n      jump\t// in\n    tag_428:\n        /* \"#utility.yul\":10859:10884   */\n      swap2\n      pop\n        /* \"#utility.yul\":10898:10918   */\n      tag_429\n        /* \"#utility.yul\":10916:10917   */\n      dup4\n        /* \"#utility.yul\":10898:10918   */\n      tag_303\n      jump\t// in\n    tag_429:\n        /* \"#utility.yul\":10893:10918   */\n      swap3\n      pop\n        /* \"#utility.yul\":10942:10943   */\n      dup3\n        /* \"#utility.yul\":10939:10940   */\n      dup3\n        /* \"#utility.yul\":10935:10944   */\n      sub\n        /* \"#utility.yul\":10927:10944   */\n      swap1\n      pop\n        /* \"#utility.yul\":10966:10967   */\n      dup2\n        /* \"#utility.yul\":10960:10964   */\n      dup2\n        /* \"#utility.yul\":10957:10968   */\n      gt\n        /* \"#utility.yul\":10954:10991   */\n      iszero\n      tag_430\n      jumpi\n        /* \"#utility.yul\":10971:10989   */\n      tag_431\n      tag_319\n      jump\t// in\n    tag_431:\n        /* \"#utility.yul\":10954:10991   */\n    tag_430:\n        /* \"#utility.yul\":10804:10998   */\n      swap3\n      swap2\n      pop\n      pop\n      jump\t// out\n        /* \"#utility.yul\":11004:11446   */\n    tag_274:\n        /* \"#utility.yul\":11153:11157   */\n      0x00\n        /* \"#utility.yul\":11191:11193   */\n      0x60\n        /* \"#utility.yul\":11180:11189   */\n      dup3\n        /* \"#utility.yul\":11176:11194   */\n      add\n        /* \"#utility.yul\":11168:11194   */\n      swap1\n      pop\n        /* \"#utility.yul\":11204:11275   */\n      tag_433\n        /* \"#utility.yul\":11272:11273   */\n      0x00\n        /* \"#utility.yul\":11261:11270   */\n      dup4\n        /* \"#utility.yul\":11257:11274   */\n      add\n        /* \"#utility.yul\":11248:11254   */\n      dup7\n        /* \"#utility.yul\":11204:11275   */\n      tag_309\n      jump\t// in\n    tag_433:\n        /* \"#utility.yul\":11285:11357   */\n      tag_434\n        /* \"#utility.yul\":11353:11355   */\n      0x20\n        /* \"#utility.yul\":11342:11351   */\n      dup4\n        /* \"#utility.yul\":11338:11356   */\n      add\n        /* \"#utility.yul\":11329:11335   */\n      dup6\n        /* \"#utility.yul\":11285:11357   */\n      tag_308\n      jump\t// in\n    tag_434:\n        /* \"#utility.yul\":11367:11439   */\n      tag_435\n        /* \"#utility.yul\":11435:11437   */\n      0x40\n        /* \"#utility.yul\":11424:11433   */\n      dup4\n        /* \"#utility.yul\":11420:11438   */\n      add\n        /* \"#utility.yul\":11411:11417   */\n      dup5\n        /* \"#utility.yul\":11367:11439   */\n      tag_308\n      jump\t// in\n    tag_435:\n        /* \"#utility.yul\":11004:11446   */\n      swap5\n      swap4\n      pop\n      pop\n      pop\n      pop\n      jump\t// out\n\n    auxdata: 0xa26469706673582212200a9779c834c2e5c4e6a33710956e24698408e5eac42d0b651eaf673fd2a8ad6764736f6c63430008140033\n}\n",
				"bytecode": {
					"linkReferences": {},
					"object": "608060405234801562000010575f80fd5b50604051620029103803806200291083398181016040528101906200003691906200079b565b336040518060400160405280600381526020017f43434b00000000000000000000000000000000000000000000000000000000008152506040518060400160405280600381526020017f43434b00000000000000000000000000000000000000000000000000000000008152508160039081620000b4919062000a21565b508060049081620000c6919062000a21565b5050505f73ffffffffffffffffffffffffffffffffffffffff168173ffffffffffffffffffffffffffffffffffffffff16036200013c575f6040517f1e4fbdf700000000000000000000000000000000000000000000000000000000815260040162000133919062000b16565b60405180910390fd5b6200014d816200024c60201b60201c565b505f81511162000194576040517f08c379a00000000000000000000000000000000000000000000000000000000081526004016200018b9062000bb5565b60405180910390fd5b5f5b81518110156200022857600160065f848481518110620001bb57620001ba62000bd5565b5b602002602001015173ffffffffffffffffffffffffffffffffffffffff1673ffffffffffffffffffffffffffffffffffffffff1681526020019081526020015f205f6101000a81548160ff02191690831515021790555080806200021f9062000c2f565b91505062000196565b5062000245336969e10de76676d08000006200030f60201b60201c565b5062000d1c565b5f60055f9054906101000a900473ffffffffffffffffffffffffffffffffffffffff1690508160055f6101000a81548173ffffffffffffffffffffffffffffffffffffffff021916908373ffffffffffffffffffffffffffffffffffffffff1602179055508173ffffffffffffffffffffffffffffffffffffffff168173ffffffffffffffffffffffffffffffffffffffff167f8be0079c531659141344cd1fd0a4f28419497f9722a3daafe3b4186f6b6457e060405160405180910390a35050565b5f73ffffffffffffffffffffffffffffffffffffffff168273ffffffffffffffffffffffffffffffffffffffff160362000382575f6040517fec442f0500000000000000000000000000000000000000000000000000000000815260040162000379919062000b16565b60405180910390fd5b620003955f83836200039960201b60201c565b5050565b5f73ffffffffffffffffffffffffffffffffffffffff168373ffffffffffffffffffffffffffffffffffffffff1603620003ed578060025f828254620003e0919062000c7b565b92505081905550620004be565b5f805f8573ffffffffffffffffffffffffffffffffffffffff1673ffffffffffffffffffffffffffffffffffffffff1681526020019081526020015f205490508181101562000479578381836040517fe450d38c000000000000000000000000000000000000000000000000000000008152600401620004709392919062000cc6565b60405180910390fd5b8181035f808673ffffffffffffffffffffffffffffffffffffffff1673ffffffffffffffffffffffffffffffffffffffff1681526020019081526020015f2081905550505b5f73ffffffffffffffffffffffffffffffffffffffff168273ffffffffffffffffffffffffffffffffffffffff160362000507578060025f828254039250508190555062000551565b805f808473ffffffffffffffffffffffffffffffffffffffff1673ffffffffffffffffffffffffffffffffffffffff1681526020019081526020015f205f82825401925050819055505b8173ffffffffffffffffffffffffffffffffffffffff168373ffffffffffffffffffffffffffffffffffffffff167fddf252ad1be2c89b69c2b068fc378daa952ba7f163c4a11628f55a4df523b3ef83604051620005b0919062000d01565b60405180910390a3505050565b5f604051905090565b5f80fd5b5f80fd5b5f80fd5b5f601f19601f8301169050919050565b7f4e487b71000000000000000000000000000000000000000000000000000000005f52604160045260245ffd5b6200061a82620005d2565b810181811067ffffffffffffffff821117156200063c576200063b620005e2565b5b80604052505050565b5f62000650620005bd565b90506200065e82826200060f565b919050565b5f67ffffffffffffffff82111562000680576200067f620005e2565b5b602082029050602081019050919050565b5f80fd5b5f73ffffffffffffffffffffffffffffffffffffffff82169050919050565b5f620006c08262000695565b9050919050565b620006d281620006b4565b8114620006dd575f80fd5b50565b5f81519050620006f081620006c7565b92915050565b5f6200070c620007068462000663565b62000645565b9050808382526020820190506020840283018581111562000732576200073162000691565b5b835b818110156200075f57806200074a8882620006e0565b84526020840193505060208101905062000734565b5050509392505050565b5f82601f83011262000780576200077f620005ce565b5b815162000792848260208601620006f6565b91505092915050565b5f60208284031215620007b357620007b2620005c6565b5b5f82015167ffffffffffffffff811115620007d357620007d2620005ca565b5b620007e18482850162000769565b91505092915050565b5f81519050919050565b7f4e487b71000000000000000000000000000000000000000000000000000000005f52602260045260245ffd5b5f60028204905060018216806200083957607f821691505b6020821081036200084f576200084e620007f4565b5b50919050565b5f819050815f5260205f209050919050565b5f6020601f8301049050919050565b5f82821b905092915050565b5f60088302620008b37fffffffffffffffffffffffffffffffffffffffffffffffffffffffffffffffff8262000876565b620008bf868362000876565b95508019841693508086168417925050509392505050565b5f819050919050565b5f819050919050565b5f6200090962000903620008fd84620008d7565b620008e0565b620008d7565b9050919050565b5f819050919050565b6200092483620008e9565b6200093c620009338262000910565b84845462000882565b825550505050565b5f90565b6200095262000944565b6200095f81848462000919565b505050565b5b8181101562000986576200097a5f8262000948565b60018101905062000965565b5050565b601f821115620009d5576200099f8162000855565b620009aa8462000867565b81016020851015620009ba578190505b620009d2620009c98562000867565b83018262000964565b50505b505050565b5f82821c905092915050565b5f620009f75f1984600802620009da565b1980831691505092915050565b5f62000a118383620009e6565b9150826002028217905092915050565b62000a2c82620007ea565b67ffffffffffffffff81111562000a485762000a47620005e2565b5b62000a54825462000821565b62000a618282856200098a565b5f60209050601f83116001811462000a97575f841562000a82578287015190505b62000a8e858262000a04565b86555062000afd565b601f19841662000aa78662000855565b5f5b8281101562000ad05784890151825560018201915060208501945060208101905062000aa9565b8683101562000af0578489015162000aec601f891682620009e6565b8355505b6001600288020188555050505b505050505050565b62000b1081620006b4565b82525050565b5f60208201905062000b2b5f83018462000b05565b92915050565b5f82825260208201905092915050565b7f4174206c65617374206f6e652077686974656c697374656420616464726573735f8201527f2072657175697265640000000000000000000000000000000000000000000000602082015250565b5f62000b9d60298362000b31565b915062000baa8262000b41565b604082019050919050565b5f6020820190508181035f83015262000bce8162000b8f565b9050919050565b7f4e487b71000000000000000000000000000000000000000000000000000000005f52603260045260245ffd5b7f4e487b71000000000000000000000000000000000000000000000000000000005f52601160045260245ffd5b5f62000c3b82620008d7565b91507fffffffffffffffffffffffffffffffffffffffffffffffffffffffffffffffff820362000c705762000c6f62000c02565b5b600182019050919050565b5f62000c8782620008d7565b915062000c9483620008d7565b925082820190508082111562000caf5762000cae62000c02565b5b92915050565b62000cc081620008d7565b82525050565b5f60608201905062000cdb5f83018662000b05565b62000cea602083018562000cb5565b62000cf9604083018462000cb5565b949350505050565b5f60208201905062000d165f83018462000cb5565b92915050565b611be68062000d2a5f395ff3fe608060405234801561000f575f80fd5b50600436106101d8575f3560e01c80638ab1d68111610102578063cb4b73ab116100a0578063e08ba51a1161006f578063e08ba51a14610570578063e43252d71461058c578063e5839836146105a8578063f2fde38b146105d8576101d8565b8063cb4b73ab146104d6578063d0516650146104f2578063da0239a614610522578063dd62ed3e14610540576101d8565b806395d89b41116100dc57806395d89b411461043a5780639b19251a14610458578063a9059cbb14610488578063aba63705146104b8576101d8565b80638ab1d681146103e25780638da5cb5b146103fe578063902d55a51461041c576101d8565b80632d3802421161017a5780635c975abb116101495780635c975abb1461036c5780636290865d1461038a57806370a08231146103a8578063715018a6146103d8576101d8565b80632d380242146102f6578063313ce5671461031457806340c10f191461033257806354fd4d501461034e576101d8565b8063134e18f4116101b6578063134e18f41461025a578063158b1a571461027857806318160ddd146102a857806323b872dd146102c6576101d8565b806306fdde03146101dc578063095ea7b3146101fa57806312cae7af1461022a575b5f80fd5b6101e46105f4565b6040516101f1919061168c565b60405180910390f35b610214600480360381019061020f919061173d565b610684565b6040516102219190611795565b60405180910390f35b610244600480360381019061023f91906117ae565b6106a6565b60405161025191906117e8565b60405180910390f35b6102626106b7565b60405161026f9190611810565b60405180910390f35b610292600480360381019061028d91906117ae565b6106bb565b60405161029f91906117e8565b60405180910390f35b6102b06106c1565b6040516102bd91906117e8565b60405180910390f35b6102e060048036038101906102db9190611829565b6106ca565b6040516102ed9190611795565b60405180910390f35b6102fe6107bd565b60405161030b91906117e8565b60405180910390f35b61031c6107c3565b6040516103299190611894565b60405180910390f35b61034c6004803603810190610347919061173d565b6107cb565b005b6103566108dc565b604051610363919061168c565b60405180910390f35b610374610919565b6040516103819190611795565b60405180910390f35b61039261091d565b60405161039f9190611810565b60405180910390f35b6103c260048036038101906103bd91906117ae565b610921565b6040516103cf91906117e8565b60405180910390f35b6103e0610966565b005b6103fc60048036038101906103f791906117ae565b610979565b005b6104066109d8565b6040516104139190611810565b60405180910390f35b610424610a00565b60405161043191906117e8565b60405180910390f35b610442610a0e565b60405161044f919061168c565b60405180910390f35b610472600480360381019061046d91906117ae565b610a9e565b60405161047f9190611795565b60405180910390f35b6104a2600480360381019061049d919061173d565b610abb565b6040516104af9190611795565b60405180910390f35b6104c0610bac565b6040516104cd9190611810565b60405180910390f35b6104f060048036038101906104eb91906117ae565b610bb3565b005b61050c600480360381019061050791906117ae565b610c12565b6040516105199190611795565b60405180910390f35b61052a610c2f565b60405161053791906117e8565b60405180910390f35b61055a600480360381019061055591906118ad565b610c4d565b60405161056791906117e8565b60405180910390f35b61058a600480360381019061058591906117ae565b610ccf565b005b6105a660048036038101906105a191906117ae565b610d2f565b005b6105c260048036038101906105bd91906117ae565b610d8f565b6040516105cf9190611795565b60405180910390f35b6105f260048036038101906105ed91906117ae565b610de1565b005b60606003805461060390611918565b80601f016020809104026020016040519081016040528092919081815260200182805461062f90611918565b801561067a5780601f106106515761010080835404028352916020019161067a565b820191905f5260205f20905b81548152906001019060200180831161065d57829003601f168201915b5050505050905090565b5f8061068e610e65565b905061069b818585610e6c565b600191505092915050565b5f6106b082610921565b9050919050565b5f90565b5f919050565b5f600254905090565b5f60075f8573ffffffffffffffffffffffffffffffffffffffff1673ffffffffffffffffffffffffffffffffffffffff1681526020019081526020015f205f9054906101000a900460ff1615610755576040517f08c379a000000000000000000000000000000000000000000000000000000000815260040161074c90611992565b60405180910390fd5b816fffffffffffffffffffffffffffffffff1682146107a9576040517f08c379a00000000000000000000000000000000000000000000000000000000081526004016107a0906119fa565b60405180910390fd5b6107b4848484610e7e565b90509392505050565b60085481565b5f6012905090565b6107d3610eac565b60065f8373ffffffffffffffffffffffffffffffffffffffff1673ffffffffffffffffffffffffffffffffffffffff1681526020019081526020015f205f9054906101000a900460ff1661085c576040517f08c379a000000000000000000000000000000000000000000000000000000000815260040161085390611a62565b60405180910390fd5b6969e10de76676d0800000816008546108759190611aad565b11156108b6576040517f08c379a00000000000000000000000000000000000000000000000000000000081526004016108ad90611b2a565b60405180910390fd5b6108c08282610f33565b8060085f8282546108d19190611aad565b925050819055505050565b60606040518060400160405280600581526020017f312e302e30000000000000000000000000000000000000000000000000000000815250905090565b5f90565b5f90565b5f805f8373ffffffffffffffffffffffffffffffffffffffff1673ffffffffffffffffffffffffffffffffffffffff1681526020019081526020015f20549050919050565b61096e610eac565b6109775f610fb2565b565b610981610eac565b5f60065f8373ffffffffffffffffffffffffffffffffffffffff1673ffffffffffffffffffffffffffffffffffffffff1681526020019081526020015f205f6101000a81548160ff02191690831515021790555050565b5f60055f9054906101000a900473ffffffffffffffffffffffffffffffffffffffff16905090565b6969e10de76676d080000081565b606060048054610a1d90611918565b80601f0160208091040260200160405190810160405280929190818152602001828054610a4990611918565b8015610a945780601f10610a6b57610100808354040283529160200191610a94565b820191905f5260205f20905b815481529060010190602001808311610a7757829003601f168201915b5050505050905090565b6006602052805f5260405f205f915054906101000a900460ff1681565b5f60075f3373ffffffffffffffffffffffffffffffffffffffff1673ffffffffffffffffffffffffffffffffffffffff1681526020019081526020015f205f9054906101000a900460ff1615610b46576040517f08c379a0000000000000000000000000000000000000000000000000000000008152600401610b3d90611992565b60405180910390fd5b816fffffffffffffffffffffffffffffffff168214610b9a576040517f08c379a0000000000000000000000000000000000000000000000000000000008152600401610b91906119fa565b60405180910390fd5b610ba48383611075565b905092915050565b5f30905090565b610bbb610eac565b5f60075f8373ffffffffffffffffffffffffffffffffffffffff1673ffffffffffffffffffffffffffffffffffffffff1681526020019081526020015f205f6101000a81548160ff02191690831515021790555050565b6007602052805f5260405f205f915054906101000a900460ff1681565b5f6008546969e10de76676d0800000610c489190611b48565b905090565b5f60015f8473ffffffffffffffffffffffffffffffffffffffff1673ffffffffffffffffffffffffffffffffffffffff1681526020019081526020015f205f8373ffffffffffffffffffffffffffffffffffffffff1673ffffffffffffffffffffffffffffffffffffffff1681526020019081526020015f2054905092915050565b610cd7610eac565b600160075f8373ffffffffffffffffffffffffffffffffffffffff1673ffffffffffffffffffffffffffffffffffffffff1681526020019081526020015f205f6101000a81548160ff02191690831515021790555050565b610d37610eac565b600160065f8373ffffffffffffffffffffffffffffffffffffffff1673ffffffffffffffffffffffffffffffffffffffff1681526020019081526020015f205f6101000a81548160ff02191690831515021790555050565b5f60075f8373ffffffffffffffffffffffffffffffffffffffff1673ffffffffffffffffffffffffffffffffffffffff1681526020019081526020015f205f9054906101000a900460ff169050919050565b610de9610eac565b5f73ffffffffffffffffffffffffffffffffffffffff168173ffffffffffffffffffffffffffffffffffffffff1603610e59575f6040517f1e4fbdf7000000000000000000000000000000000000000000000000000000008152600401610e509190611810565b60405180910390fd5b610e6281610fb2565b50565b5f33905090565b610e798383836001611097565b505050565b5f80610e88610e65565b9050610e95858285611266565b610ea08585856112f9565b60019150509392505050565b610eb4610e65565b73ffffffffffffffffffffffffffffffffffffffff16610ed26109d8565b73ffffffffffffffffffffffffffffffffffffffff1614610f3157610ef5610e65565b6040517f118cdaa7000000000000000000000000000000000000000000000000000000008152600401610f289190611810565b60405180910390fd5b565b5f73ffffffffffffffffffffffffffffffffffffffff168273ffffffffffffffffffffffffffffffffffffffff1603610fa3575f6040517fec442f05000000000000000000000000000000000000000000000000000000008152600401610f9a9190611810565b60405180910390fd5b610fae5f83836113e9565b5050565b5f60055f9054906101000a900473ffffffffffffffffffffffffffffffffffffffff1690508160055f6101000a81548173ffffffffffffffffffffffffffffffffffffffff021916908373ffffffffffffffffffffffffffffffffffffffff1602179055508173ffffffffffffffffffffffffffffffffffffffff168173ffffffffffffffffffffffffffffffffffffffff167f8be0079c531659141344cd1fd0a4f28419497f9722a3daafe3b4186f6b6457e060405160405180910390a35050565b5f8061107f610e65565b905061108c8185856112f9565b600191505092915050565b5f73ffffffffffffffffffffffffffffffffffffffff168473ffffffffffffffffffffffffffffffffffffffff1603611107575f6040517fe602df050000000000000000000000000000000000000000000000000000000081526004016110fe9190611810565b60405180910390fd5b5f73ffffffffffffffffffffffffffffffffffffffff168373ffffffffffffffffffffffffffffffffffffffff1603611177575f6040517f94280d6200000000000000000000000000000000000000000000000000000000815260040161116e9190611810565b60405180910390fd5b8160015f8673ffffffffffffffffffffffffffffffffffffffff1673ffffffffffffffffffffffffffffffffffffffff1681526020019081526020015f205f8573ffffffffffffffffffffffffffffffffffffffff1673ffffffffffffffffffffffffffffffffffffffff1681526020019081526020015f20819055508015611260578273ffffffffffffffffffffffffffffffffffffffff168473ffffffffffffffffffffffffffffffffffffffff167f8c5be1e5ebec7d5bd14f71427d1e84f3dd0314c0f7b2291e5b200ac8c7c3b9258460405161125791906117e8565b60405180910390a35b50505050565b5f6112718484610c4d565b90507fffffffffffffffffffffffffffffffffffffffffffffffffffffffffffffffff8110156112f357818110156112e4578281836040517ffb8f41b20000000000000000000000000000000000000000000000000000000081526004016112db93929190611b7b565b60405180910390fd5b6112f284848484035f611097565b5b50505050565b5f73ffffffffffffffffffffffffffffffffffffffff168373ffffffffffffffffffffffffffffffffffffffff1603611369575f6040517f96c6fd1e0000000000000000000000000000000000000000000000000000000081526004016113609190611810565b60405180910390fd5b5f73ffffffffffffffffffffffffffffffffffffffff168273ffffffffffffffffffffffffffffffffffffffff16036113d9575f6040517fec442f050000000000000000000000000000000000000000000000000000000081526004016113d09190611810565b60405180910390fd5b6113e48383836113e9565b505050565b5f73ffffffffffffffffffffffffffffffffffffffff168373ffffffffffffffffffffffffffffffffffffffff1603611439578060025f82825461142d9190611aad565b92505081905550611507565b5f805f8573ffffffffffffffffffffffffffffffffffffffff1673ffffffffffffffffffffffffffffffffffffffff1681526020019081526020015f20549050818110156114c2578381836040517fe450d38c0000000000000000000000000000000000000000000000000000000081526004016114b993929190611b7b565b60405180910390fd5b8181035f808673ffffffffffffffffffffffffffffffffffffffff1673ffffffffffffffffffffffffffffffffffffffff1681526020019081526020015f2081905550505b5f73ffffffffffffffffffffffffffffffffffffffff168273ffffffffffffffffffffffffffffffffffffffff160361154e578060025f8282540392505081905550611598565b805f808473ffffffffffffffffffffffffffffffffffffffff1673ffffffffffffffffffffffffffffffffffffffff1681526020019081526020015f205f82825401925050819055505b8173ffffffffffffffffffffffffffffffffffffffff168373ffffffffffffffffffffffffffffffffffffffff167fddf252ad1be2c89b69c2b068fc378daa952ba7f163c4a11628f55a4df523b3ef836040516115f591906117e8565b60405180910390a3505050565b5f81519050919050565b5f82825260208201905092915050565b5f5b8381101561163957808201518184015260208101905061161e565b5f8484015250505050565b5f601f19601f8301169050919050565b5f61165e82611602565b611668818561160c565b935061167881856020860161161c565b61168181611644565b840191505092915050565b5f6020820190508181035f8301526116a48184611654565b905092915050565b5f80fd5b5f73ffffffffffffffffffffffffffffffffffffffff82169050919050565b5f6116d9826116b0565b9050919050565b6116e9816116cf565b81146116f3575f80fd5b50565b5f81359050611704816116e0565b92915050565b5f819050919050565b61171c8161170a565b8114611726575f80fd5b50565b5f8135905061173781611713565b92915050565b5f8060408385031215611753576117526116ac565b5b5f611760858286016116f6565b925050602061177185828601611729565b9150509250929050565b5f8115159050919050565b61178f8161177b565b82525050565b5f6020820190506117a85f830184611786565b92915050565b5f602082840312156117c3576117c26116ac565b5b5f6117d0848285016116f6565b91505092915050565b6117e28161170a565b82525050565b5f6020820190506117fb5f8301846117d9565b92915050565b61180a816116cf565b82525050565b5f6020820190506118235f830184611801565b92915050565b5f805f606084860312156118405761183f6116ac565b5b5f61184d868287016116f6565b935050602061185e868287016116f6565b925050604061186f86828701611729565b9150509250925092565b5f60ff82169050919050565b61188e81611879565b82525050565b5f6020820190506118a75f830184611885565b92915050565b5f80604083850312156118c3576118c26116ac565b5b5f6118d0858286016116f6565b92505060206118e1858286016116f6565b9150509250929050565b7f4e487b71000000000000000000000000000000000000000000000000000000005f52602260045260245ffd5b5f600282049050600182168061192f57607f821691505b602082108103611942576119416118eb565b5b50919050565b7f53656e6465722069732066726f7a656e000000000000000000000000000000005f82015250565b5f61197c60108361160c565b915061198782611948565b602082019050919050565b5f6020820190508181035f8301526119a981611970565b9050919050565b7f416d6f756e74206d75737420626520616e20696e7465676572000000000000005f82015250565b5f6119e460198361160c565b91506119ef826119b0565b602082019050919050565b5f6020820190508181035f830152611a11816119d8565b9050919050565b7f4e6f742077686974656c697374656400000000000000000000000000000000005f82015250565b5f611a4c600f8361160c565b9150611a5782611a18565b602082019050919050565b5f6020820190508181035f830152611a7981611a40565b9050919050565b7f4e487b71000000000000000000000000000000000000000000000000000000005f52601160045260245ffd5b5f611ab78261170a565b9150611ac28361170a565b9250828201905080821115611ada57611ad9611a80565b5b92915050565b7f546f74616c20737570706c7920657863656564656400000000000000000000005f82015250565b5f611b1460158361160c565b9150611b1f82611ae0565b602082019050919050565b5f6020820190508181035f830152611b4181611b08565b9050919050565b5f611b528261170a565b9150611b5d8361170a565b9250828203905081811115611b7557611b74611a80565b5b92915050565b5f606082019050611b8e5f830186611801565b611b9b60208301856117d9565b611ba860408301846117d9565b94935050505056fea26469706673582212200a9779c834c2e5c4e6a33710956e24698408e5eac42d0b651eaf673fd2a8ad6764736f6c63430008140033",
					"opcodes": "PUSH1 0x80 PUSH1 0x40 MSTORE CALLVALUE DUP1 ISZERO PUSH3 0x10 JUMPI PUSH0 DUP1 REVERT JUMPDEST POP PUSH1 0x40 MLOAD PUSH3 0x2910 CODESIZE SUB DUP1 PUSH3 0x2910 DUP4 CODECOPY DUP2 DUP2 ADD PUSH1 0x40 MSTORE DUP2 ADD SWAP1 PUSH3 0x36 SWAP2 SWAP1 PUSH3 0x79B JUMP JUMPDEST CALLER PUSH1 0x40 MLOAD DUP1 PUSH1 0x40 ADD PUSH1 0x40 MSTORE DUP1 PUSH1 0x3 DUP2 MSTORE PUSH1 0x20 ADD PUSH32 0x43434B0000000000000000000000000000000000000000000000000000000000 DUP2 MSTORE POP PUSH1 0x40 MLOAD DUP1 PUSH1 0x40 ADD PUSH1 0x40 MSTORE DUP1 PUSH1 0x3 DUP2 MSTORE PUSH1 0x20 ADD PUSH32 0x43434B0000000000000000000000000000000000000000000000000000000000 DUP2 MSTORE POP DUP2 PUSH1 0x3 SWAP1 DUP2 PUSH3 0xB4 SWAP2 SWAP1 PUSH3 0xA21 JUMP JUMPDEST POP DUP1 PUSH1 0x4 SWAP1 DUP2 PUSH3 0xC6 SWAP2 SWAP1 PUSH3 0xA21 JUMP JUMPDEST POP POP POP PUSH0 PUSH20 0xFFFFFFFFFFFFFFFFFFFFFFFFFFFFFFFFFFFFFFFF AND DUP2 PUSH20 0xFFFFFFFFFFFFFFFFFFFFFFFFFFFFFFFFFFFFFFFF AND SUB PUSH3 0x13C JUMPI PUSH0 PUSH1 0x40 MLOAD PUSH32 0x1E4FBDF700000000000000000000000000000000000000000000000000000000 DUP2 MSTORE PUSH1 0x4 ADD PUSH3 0x133 SWAP2 SWAP1 PUSH3 0xB16 JUMP JUMPDEST PUSH1 0x40 MLOAD DUP1 SWAP2 SUB SWAP1 REVERT JUMPDEST PUSH3 0x14D DUP2 PUSH3 0x24C PUSH1 0x20 SHL PUSH1 0x20 SHR JUMP JUMPDEST POP PUSH0 DUP2 MLOAD GT PUSH3 0x194 JUMPI PUSH1 0x40 MLOAD PUSH32 0x8C379A000000000000000000000000000000000000000000000000000000000 DUP2 MSTORE PUSH1 0x4 ADD PUSH3 0x18B SWAP1 PUSH3 0xBB5 JUMP JUMPDEST PUSH1 0x40 MLOAD DUP1 SWAP2 SUB SWAP1 REVERT JUMPDEST PUSH0 JUMPDEST DUP2 MLOAD DUP2 LT ISZERO PUSH3 0x228 JUMPI PUSH1 0x1 PUSH1 0x6 PUSH0 DUP5 DUP5 DUP2 MLOAD DUP2 LT PUSH3 0x1BB JUMPI PUSH3 0x1BA PUSH3 0xBD5 JUMP JUMPDEST JUMPDEST PUSH1 0x20 MUL PUSH1 0x20 ADD ADD MLOAD PUSH20 0xFFFFFFFFFFFFFFFFFFFFFFFFFFFFFFFFFFFFFFFF AND PUSH20 0xFFFFFFFFFFFFFFFFFFFFFFFFFFFFFFFFFFFFFFFF AND DUP2 MSTORE PUSH1 0x20 ADD SWAP1 DUP2 MSTORE PUSH1 0x20 ADD PUSH0 KECCAK256 PUSH0 PUSH2 0x100 EXP DUP2 SLOAD DUP2 PUSH1 0xFF MUL NOT AND SWAP1 DUP4 ISZERO ISZERO MUL OR SWAP1 SSTORE POP DUP1 DUP1 PUSH3 0x21F SWAP1 PUSH3 0xC2F JUMP JUMPDEST SWAP2 POP POP PUSH3 0x196 JUMP JUMPDEST POP PUSH3 0x245 CALLER PUSH10 0x69E10DE76676D0800000 PUSH3 0x30F PUSH1 0x20 SHL PUSH1 0x20 SHR JUMP JUMPDEST POP PUSH3 0xD1C JUMP JUMPDEST PUSH0 PUSH1 0x5 PUSH0 SWAP1 SLOAD SWAP1 PUSH2 0x100 EXP SWAP1 DIV PUSH20 0xFFFFFFFFFFFFFFFFFFFFFFFFFFFFFFFFFFFFFFFF AND SWAP1 POP DUP2 PUSH1 0x5 PUSH0 PUSH2 0x100 EXP DUP2 SLOAD DUP2 PUSH20 0xFFFFFFFFFFFFFFFFFFFFFFFFFFFFFFFFFFFFFFFF MUL NOT AND SWAP1 DUP4 PUSH20 0xFFFFFFFFFFFFFFFFFFFFFFFFFFFFFFFFFFFFFFFF AND MUL OR SWAP1 SSTORE POP DUP2 PUSH20 0xFFFFFFFFFFFFFFFFFFFFFFFFFFFFFFFFFFFFFFFF AND DUP2 PUSH20 0xFFFFFFFFFFFFFFFFFFFFFFFFFFFFFFFFFFFFFFFF AND PUSH32 0x8BE0079C531659141344CD1FD0A4F28419497F9722A3DAAFE3B4186F6B6457E0 PUSH1 0x40 MLOAD PUSH1 0x40 MLOAD DUP1 SWAP2 SUB SWAP1 LOG3 POP POP JUMP JUMPDEST PUSH0 PUSH20 0xFFFFFFFFFFFFFFFFFFFFFFFFFFFFFFFFFFFFFFFF AND DUP3 PUSH20 0xFFFFFFFFFFFFFFFFFFFFFFFFFFFFFFFFFFFFFFFF AND SUB PUSH3 0x382 JUMPI PUSH0 PUSH1 0x40 MLOAD PUSH32 0xEC442F0500000000000000000000000000000000000000000000000000000000 DUP2 MSTORE PUSH1 0x4 ADD PUSH3 0x379 SWAP2 SWAP1 PUSH3 0xB16 JUMP JUMPDEST PUSH1 0x40 MLOAD DUP1 SWAP2 SUB SWAP1 REVERT JUMPDEST PUSH3 0x395 PUSH0 DUP4 DUP4 PUSH3 0x399 PUSH1 0x20 SHL PUSH1 0x20 SHR JUMP JUMPDEST POP POP JUMP JUMPDEST PUSH0 PUSH20 0xFFFFFFFFFFFFFFFFFFFFFFFFFFFFFFFFFFFFFFFF AND DUP4 PUSH20 0xFFFFFFFFFFFFFFFFFFFFFFFFFFFFFFFFFFFFFFFF AND SUB PUSH3 0x3ED JUMPI DUP1 PUSH1 0x2 PUSH0 DUP3 DUP3 SLOAD PUSH3 0x3E0 SWAP2 SWAP1 PUSH3 0xC7B JUMP JUMPDEST SWAP3 POP POP DUP2 SWAP1 SSTORE POP PUSH3 0x4BE JUMP JUMPDEST PUSH0 DUP1 PUSH0 DUP6 PUSH20 0xFFFFFFFFFFFFFFFFFFFFFFFFFFFFFFFFFFFFFFFF AND PUSH20 0xFFFFFFFFFFFFFFFFFFFFFFFFFFFFFFFFFFFFFFFF AND DUP2 MSTORE PUSH1 0x20 ADD SWAP1 DUP2 MSTORE PUSH1 0x20 ADD PUSH0 KECCAK256 SLOAD SWAP1 POP DUP2 DUP2 LT ISZERO PUSH3 0x479 JUMPI DUP4 DUP2 DUP4 PUSH1 0x40 MLOAD PUSH32 0xE450D38C00000000000000000000000000000000000000000000000000000000 DUP2 MSTORE PUSH1 0x4 ADD PUSH3 0x470 SWAP4 SWAP3 SWAP2 SWAP1 PUSH3 0xCC6 JUMP JUMPDEST PUSH1 0x40 MLOAD DUP1 SWAP2 SUB SWAP1 REVERT JUMPDEST DUP2 DUP2 SUB PUSH0 DUP1 DUP7 PUSH20 0xFFFFFFFFFFFFFFFFFFFFFFFFFFFFFFFFFFFFFFFF AND PUSH20 0xFFFFFFFFFFFFFFFFFFFFFFFFFFFFFFFFFFFFFFFF AND DUP2 MSTORE PUSH1 0x20 ADD SWAP1 DUP2 MSTORE PUSH1 0x20 ADD PUSH0 KECCAK256 DUP2 SWAP1 SSTORE POP POP JUMPDEST PUSH0 PUSH20 0xFFFFFFFFFFFFFFFFFFFFFFFFFFFFFFFFFFFFFFFF AND DUP3 PUSH20 0xFFFFFFFFFFFFFFFFFFFFFFFFFFFFFFFFFFFFFFFF AND SUB PUSH3 0x507 JUMPI DUP1 PUSH1 0x2 PUSH0 DUP3 DUP3 SLOAD SUB SWAP3 POP POP DUP2 SWAP1 SSTORE POP PUSH3 0x551 JUMP JUMPDEST DUP1 PUSH0 DUP1 DUP5 PUSH20 0xFFFFFFFFFFFFFFFFFFFFFFFFFFFFFFFFFFFFFFFF AND PUSH20 0xFFFFFFFFFFFFFFFFFFFFFFFFFFFFFFFFFFFFFFFF AND DUP2 MSTORE PUSH1 0x20 ADD SWAP1 DUP2 MSTORE PUSH1 0x20 ADD PUSH0 KECCAK256 PUSH0 DUP3 DUP3 SLOAD ADD SWAP3 POP POP DUP2 SWAP1 SSTORE POP JUMPDEST DUP2 PUSH20 0xFFFFFFFFFFFFFFFFFFFFFFFFFFFFFFFFFFFFFFFF AND DUP4 PUSH20 0xFFFFFFFFFFFFFFFFFFFFFFFFFFFFFFFFFFFFFFFF AND PUSH32 0xDDF252AD1BE2C89B69C2B068FC378DAA952BA7F163C4A11628F55A4DF523B3EF DUP4 PUSH1 0x40 MLOAD PUSH3 0x5B0 SWAP2 SWAP1 PUSH3 0xD01 JUMP JUMPDEST PUSH1 0x40 MLOAD DUP1 SWAP2 SUB SWAP1 LOG3 POP POP POP JUMP JUMPDEST PUSH0 PUSH1 0x40 MLOAD SWAP1 POP SWAP1 JUMP JUMPDEST PUSH0 DUP1 REVERT JUMPDEST PUSH0 DUP1 REVERT JUMPDEST PUSH0 DUP1 REVERT JUMPDEST PUSH0 PUSH1 0x1F NOT PUSH1 0x1F DUP4 ADD AND SWAP1 POP SWAP2 SWAP1 POP JUMP JUMPDEST PUSH32 0x4E487B7100000000000000000000000000000000000000000000000000000000 PUSH0 MSTORE PUSH1 0x41 PUSH1 0x4 MSTORE PUSH1 0x24 PUSH0 REVERT JUMPDEST PUSH3 0x61A DUP3 PUSH3 0x5D2 JUMP JUMPDEST DUP2 ADD DUP2 DUP2 LT PUSH8 0xFFFFFFFFFFFFFFFF DUP3 GT OR ISZERO PUSH3 0x63C JUMPI PUSH3 0x63B PUSH3 0x5E2 JUMP JUMPDEST JUMPDEST DUP1 PUSH1 0x40 MSTORE POP POP POP JUMP JUMPDEST PUSH0 PUSH3 0x650 PUSH3 0x5BD JUMP JUMPDEST SWAP1 POP PUSH3 0x65E DUP3 DUP3 PUSH3 0x60F JUMP JUMPDEST SWAP2 SWAP1 POP JUMP JUMPDEST PUSH0 PUSH8 0xFFFFFFFFFFFFFFFF DUP3 GT ISZERO PUSH3 0x680 JUMPI PUSH3 0x67F PUSH3 0x5E2 JUMP JUMPDEST JUMPDEST PUSH1 0x20 DUP3 MUL SWAP1 POP PUSH1 0x20 DUP2 ADD SWAP1 POP SWAP2 SWAP1 POP JUMP JUMPDEST PUSH0 DUP1 REVERT JUMPDEST PUSH0 PUSH20 0xFFFFFFFFFFFFFFFFFFFFFFFFFFFFFFFFFFFFFFFF DUP3 AND SWAP1 POP SWAP2 SWAP1 POP JUMP JUMPDEST PUSH0 PUSH3 0x6C0 DUP3 PUSH3 0x695 JUMP JUMPDEST SWAP1 POP SWAP2 SWAP1 POP JUMP JUMPDEST PUSH3 0x6D2 DUP2 PUSH3 0x6B4 JUMP JUMPDEST DUP2 EQ PUSH3 0x6DD JUMPI PUSH0 DUP1 REVERT JUMPDEST POP JUMP JUMPDEST PUSH0 DUP2 MLOAD SWAP1 POP PUSH3 0x6F0 DUP2 PUSH3 0x6C7 JUMP JUMPDEST SWAP3 SWAP2 POP POP JUMP JUMPDEST PUSH0 PUSH3 0x70C PUSH3 0x706 DUP5 PUSH3 0x663 JUMP JUMPDEST PUSH3 0x645 JUMP JUMPDEST SWAP1 POP DUP1 DUP4 DUP3 MSTORE PUSH1 0x20 DUP3 ADD SWAP1 POP PUSH1 0x20 DUP5 MUL DUP4 ADD DUP6 DUP2 GT ISZERO PUSH3 0x732 JUMPI PUSH3 0x731 PUSH3 0x691 JUMP JUMPDEST JUMPDEST DUP4 JUMPDEST DUP2 DUP2 LT ISZERO PUSH3 0x75F JUMPI DUP1 PUSH3 0x74A DUP9 DUP3 PUSH3 0x6E0 JUMP JUMPDEST DUP5 MSTORE PUSH1 0x20 DUP5 ADD SWAP4 POP POP PUSH1 0x20 DUP2 ADD SWAP1 POP PUSH3 0x734 JUMP JUMPDEST POP POP POP SWAP4 SWAP3 POP POP POP JUMP JUMPDEST PUSH0 DUP3 PUSH1 0x1F DUP4 ADD SLT PUSH3 0x780 JUMPI PUSH3 0x77F PUSH3 0x5CE JUMP JUMPDEST JUMPDEST DUP2 MLOAD PUSH3 0x792 DUP5 DUP3 PUSH1 0x20 DUP7 ADD PUSH3 0x6F6 JUMP JUMPDEST SWAP2 POP POP SWAP3 SWAP2 POP POP JUMP JUMPDEST PUSH0 PUSH1 0x20 DUP3 DUP5 SUB SLT ISZERO PUSH3 0x7B3 JUMPI PUSH3 0x7B2 PUSH3 0x5C6 JUMP JUMPDEST JUMPDEST PUSH0 DUP3 ADD MLOAD PUSH8 0xFFFFFFFFFFFFFFFF DUP2 GT ISZERO PUSH3 0x7D3 JUMPI PUSH3 0x7D2 PUSH3 0x5CA JUMP JUMPDEST JUMPDEST PUSH3 0x7E1 DUP5 DUP3 DUP6 ADD PUSH3 0x769 JUMP JUMPDEST SWAP2 POP POP SWAP3 SWAP2 POP POP JUMP JUMPDEST PUSH0 DUP2 MLOAD SWAP1 POP SWAP2 SWAP1 POP JUMP JUMPDEST PUSH32 0x4E487B7100000000000000000000000000000000000000000000000000000000 PUSH0 MSTORE PUSH1 0x22 PUSH1 0x4 MSTORE PUSH1 0x24 PUSH0 REVERT JUMPDEST PUSH0 PUSH1 0x2 DUP3 DIV SWAP1 POP PUSH1 0x1 DUP3 AND DUP1 PUSH3 0x839 JUMPI PUSH1 0x7F DUP3 AND SWAP2 POP JUMPDEST PUSH1 0x20 DUP3 LT DUP2 SUB PUSH3 0x84F JUMPI PUSH3 0x84E PUSH3 0x7F4 JUMP JUMPDEST JUMPDEST POP SWAP2 SWAP1 POP JUMP JUMPDEST PUSH0 DUP2 SWAP1 POP DUP2 PUSH0 MSTORE PUSH1 0x20 PUSH0 KECCAK256 SWAP1 POP SWAP2 SWAP1 POP JUMP JUMPDEST PUSH0 PUSH1 0x20 PUSH1 0x1F DUP4 ADD DIV SWAP1 POP SWAP2 SWAP1 POP JUMP JUMPDEST PUSH0 DUP3 DUP3 SHL SWAP1 POP SWAP3 SWAP2 POP POP JUMP JUMPDEST PUSH0 PUSH1 0x8 DUP4 MUL PUSH3 0x8B3 PUSH32 0xFFFFFFFFFFFFFFFFFFFFFFFFFFFFFFFFFFFFFFFFFFFFFFFFFFFFFFFFFFFFFFFF DUP3 PUSH3 0x876 JUMP JUMPDEST PUSH3 0x8BF DUP7 DUP4 PUSH3 0x876 JUMP JUMPDEST SWAP6 POP DUP1 NOT DUP5 AND SWAP4 POP DUP1 DUP7 AND DUP5 OR SWAP3 POP POP POP SWAP4 SWAP3 POP POP POP JUMP JUMPDEST PUSH0 DUP2 SWAP1 POP SWAP2 SWAP1 POP JUMP JUMPDEST PUSH0 DUP2 SWAP1 POP SWAP2 SWAP1 POP JUMP JUMPDEST PUSH0 PUSH3 0x909 PUSH3 0x903 PUSH3 0x8FD DUP5 PUSH3 0x8D7 JUMP JUMPDEST PUSH3 0x8E0 JUMP JUMPDEST PUSH3 0x8D7 JUMP JUMPDEST SWAP1 POP SWAP2 SWAP1 POP JUMP JUMPDEST PUSH0 DUP2 SWAP1 POP SWAP2 SWAP1 POP JUMP JUMPDEST PUSH3 0x924 DUP4 PUSH3 0x8E9 JUMP JUMPDEST PUSH3 0x93C PUSH3 0x933 DUP3 PUSH3 0x910 JUMP JUMPDEST DUP5 DUP5 SLOAD PUSH3 0x882 JUMP JUMPDEST DUP3 SSTORE POP POP POP POP JUMP JUMPDEST PUSH0 SWAP1 JUMP JUMPDEST PUSH3 0x952 PUSH3 0x944 JUMP JUMPDEST PUSH3 0x95F DUP2 DUP5 DUP5 PUSH3 0x919 JUMP JUMPDEST POP POP POP JUMP JUMPDEST JUMPDEST DUP2 DUP2 LT ISZERO PUSH3 0x986 JUMPI PUSH3 0x97A PUSH0 DUP3 PUSH3 0x948 JUMP JUMPDEST PUSH1 0x1 DUP2 ADD SWAP1 POP PUSH3 0x965 JUMP JUMPDEST POP POP JUMP JUMPDEST PUSH1 0x1F DUP3 GT ISZERO PUSH3 0x9D5 JUMPI PUSH3 0x99F DUP2 PUSH3 0x855 JUMP JUMPDEST PUSH3 0x9AA DUP5 PUSH3 0x867 JUMP JUMPDEST DUP2 ADD PUSH1 0x20 DUP6 LT ISZERO PUSH3 0x9BA JUMPI DUP2 SWAP1 POP JUMPDEST PUSH3 0x9D2 PUSH3 0x9C9 DUP6 PUSH3 0x867 JUMP JUMPDEST DUP4 ADD DUP3 PUSH3 0x964 JUMP JUMPDEST POP POP JUMPDEST POP POP POP JUMP JUMPDEST PUSH0 DUP3 DUP3 SHR SWAP1 POP SWAP3 SWAP2 POP POP JUMP JUMPDEST PUSH0 PUSH3 0x9F7 PUSH0 NOT DUP5 PUSH1 0x8 MUL PUSH3 0x9DA JUMP JUMPDEST NOT DUP1 DUP4 AND SWAP2 POP POP SWAP3 SWAP2 POP POP JUMP JUMPDEST PUSH0 PUSH3 0xA11 DUP4 DUP4 PUSH3 0x9E6 JUMP JUMPDEST SWAP2 POP DUP3 PUSH1 0x2 MUL DUP3 OR SWAP1 POP SWAP3 SWAP2 POP POP JUMP JUMPDEST PUSH3 0xA2C DUP3 PUSH3 0x7EA JUMP JUMPDEST PUSH8 0xFFFFFFFFFFFFFFFF DUP2 GT ISZERO PUSH3 0xA48 JUMPI PUSH3 0xA47 PUSH3 0x5E2 JUMP JUMPDEST JUMPDEST PUSH3 0xA54 DUP3 SLOAD PUSH3 0x821 JUMP JUMPDEST PUSH3 0xA61 DUP3 DUP3 DUP6 PUSH3 0x98A JUMP JUMPDEST PUSH0 PUSH1 0x20 SWAP1 POP PUSH1 0x1F DUP4 GT PUSH1 0x1 DUP2 EQ PUSH3 0xA97 JUMPI PUSH0 DUP5 ISZERO PUSH3 0xA82 JUMPI DUP3 DUP8 ADD MLOAD SWAP1 POP JUMPDEST PUSH3 0xA8E DUP6 DUP3 PUSH3 0xA04 JUMP JUMPDEST DUP7 SSTORE POP PUSH3 0xAFD JUMP JUMPDEST PUSH1 0x1F NOT DUP5 AND PUSH3 0xAA7 DUP7 PUSH3 0x855 JUMP JUMPDEST PUSH0 JUMPDEST DUP3 DUP2 LT ISZERO PUSH3 0xAD0 JUMPI DUP5 DUP10 ADD MLOAD DUP3 SSTORE PUSH1 0x1 DUP3 ADD SWAP2 POP PUSH1 0x20 DUP6 ADD SWAP5 POP PUSH1 0x20 DUP2 ADD SWAP1 POP PUSH3 0xAA9 JUMP JUMPDEST DUP7 DUP4 LT ISZERO PUSH3 0xAF0 JUMPI DUP5 DUP10 ADD MLOAD PUSH3 0xAEC PUSH1 0x1F DUP10 AND DUP3 PUSH3 0x9E6 JUMP JUMPDEST DUP4 SSTORE POP JUMPDEST PUSH1 0x1 PUSH1 0x2 DUP9 MUL ADD DUP9 SSTORE POP POP POP JUMPDEST POP POP POP POP POP POP JUMP JUMPDEST PUSH3 0xB10 DUP2 PUSH3 0x6B4 JUMP JUMPDEST DUP3 MSTORE POP POP JUMP JUMPDEST PUSH0 PUSH1 0x20 DUP3 ADD SWAP1 POP PUSH3 0xB2B PUSH0 DUP4 ADD DUP5 PUSH3 0xB05 JUMP JUMPDEST SWAP3 SWAP2 POP POP JUMP JUMPDEST PUSH0 DUP3 DUP3 MSTORE PUSH1 0x20 DUP3 ADD SWAP1 POP SWAP3 SWAP2 POP POP JUMP JUMPDEST PUSH32 0x4174206C65617374206F6E652077686974656C69737465642061646472657373 PUSH0 DUP3 ADD MSTORE PUSH32 0x2072657175697265640000000000000000000000000000000000000000000000 PUSH1 0x20 DUP3 ADD MSTORE POP JUMP JUMPDEST PUSH0 PUSH3 0xB9D PUSH1 0x29 DUP4 PUSH3 0xB31 JUMP JUMPDEST SWAP2 POP PUSH3 0xBAA DUP3 PUSH3 0xB41 JUMP JUMPDEST PUSH1 0x40 DUP3 ADD SWAP1 POP SWAP2 SWAP1 POP JUMP JUMPDEST PUSH0 PUSH1 0x20 DUP3 ADD SWAP1 POP DUP2 DUP2 SUB PUSH0 DUP4 ADD MSTORE PUSH3 0xBCE DUP2 PUSH3 0xB8F JUMP JUMPDEST SWAP1 POP SWAP2 SWAP1 POP JUMP JUMPDEST PUSH32 0x4E487B7100000000000000000000000000000000000000000000000000000000 PUSH0 MSTORE PUSH1 0x32 PUSH1 0x4 MSTORE PUSH1 0x24 PUSH0 REVERT JUMPDEST PUSH32 0x4E487B7100000000000000000000000000000000000000000000000000000000 PUSH0 MSTORE PUSH1 0x11 PUSH1 0x4 MSTORE PUSH1 0x24 PUSH0 REVERT JUMPDEST PUSH0 PUSH3 0xC3B DUP3 PUSH3 0x8D7 JUMP JUMPDEST SWAP2 POP PUSH32 0xFFFFFFFFFFFFFFFFFFFFFFFFFFFFFFFFFFFFFFFFFFFFFFFFFFFFFFFFFFFFFFFF DUP3 SUB PUSH3 0xC70 JUMPI PUSH3 0xC6F PUSH3 0xC02 JUMP JUMPDEST JUMPDEST PUSH1 0x1 DUP3 ADD SWAP1 POP SWAP2 SWAP1 POP JUMP JUMPDEST PUSH0 PUSH3 0xC87 DUP3 PUSH3 0x8D7 JUMP JUMPDEST SWAP2 POP PUSH3 0xC94 DUP4 PUSH3 0x8D7 JUMP JUMPDEST SWAP3 POP DUP3 DUP3 ADD SWAP1 POP DUP1 DUP3 GT ISZERO PUSH3 0xCAF JUMPI PUSH3 0xCAE PUSH3 0xC02 JUMP JUMPDEST JUMPDEST SWAP3 SWAP2 POP POP JUMP JUMPDEST PUSH3 0xCC0 DUP2 PUSH3 0x8D7 JUMP JUMPDEST DUP3 MSTORE POP POP JUMP JUMPDEST PUSH0 PUSH1 0x60 DUP3 ADD SWAP1 POP PUSH3 0xCDB PUSH0 DUP4 ADD DUP7 PUSH3 0xB05 JUMP JUMPDEST PUSH3 0xCEA PUSH1 0x20 DUP4 ADD DUP6 PUSH3 0xCB5 JUMP JUMPDEST PUSH3 0xCF9 PUSH1 0x40 DUP4 ADD DUP5 PUSH3 0xCB5 JUMP JUMPDEST SWAP5 SWAP4 POP POP POP POP JUMP JUMPDEST PUSH0 PUSH1 0x20 DUP3 ADD SWAP1 POP PUSH3 0xD16 PUSH0 DUP4 ADD DUP5 PUSH3 0xCB5 JUMP JUMPDEST SWAP3 SWAP2 POP POP JUMP JUMPDEST PUSH2 0x1BE6 DUP1 PUSH3 0xD2A PUSH0 CODECOPY PUSH0 RETURN INVALID PUSH1 0x80 PUSH1 0x40 MSTORE CALLVALUE DUP1 ISZERO PUSH2 0xF JUMPI PUSH0 DUP1 REVERT JUMPDEST POP PUSH1 0x4 CALLDATASIZE LT PUSH2 0x1D8 JUMPI PUSH0 CALLDATALOAD PUSH1 0xE0 SHR DUP1 PUSH4 0x8AB1D681 GT PUSH2 0x102 JUMPI DUP1 PUSH4 0xCB4B73AB GT PUSH2 0xA0 JUMPI DUP1 PUSH4 0xE08BA51A GT PUSH2 0x6F JUMPI DUP1 PUSH4 0xE08BA51A EQ PUSH2 0x570 JUMPI DUP1 PUSH4 0xE43252D7 EQ PUSH2 0x58C JUMPI DUP1 PUSH4 0xE5839836 EQ PUSH2 0x5A8 JUMPI DUP1 PUSH4 0xF2FDE38B EQ PUSH2 0x5D8 JUMPI PUSH2 0x1D8 JUMP JUMPDEST DUP1 PUSH4 0xCB4B73AB EQ PUSH2 0x4D6 JUMPI DUP1 PUSH4 0xD0516650 EQ PUSH2 0x4F2 JUMPI DUP1 PUSH4 0xDA0239A6 EQ PUSH2 0x522 JUMPI DUP1 PUSH4 0xDD62ED3E EQ PUSH2 0x540 JUMPI PUSH2 0x1D8 JUMP JUMPDEST DUP1 PUSH4 0x95D89B41 GT PUSH2 0xDC JUMPI DUP1 PUSH4 0x95D89B41 EQ PUSH2 0x43A JUMPI DUP1 PUSH4 0x9B19251A EQ PUSH2 0x458 JUMPI DUP1 PUSH4 0xA9059CBB EQ PUSH2 0x488 JUMPI DUP1 PUSH4 0xABA63705 EQ PUSH2 0x4B8 JUMPI PUSH2 0x1D8 JUMP JUMPDEST DUP1 PUSH4 0x8AB1D681 EQ PUSH2 0x3E2 JUMPI DUP1 PUSH4 0x8DA5CB5B EQ PUSH2 0x3FE JUMPI DUP1 PUSH4 0x902D55A5 EQ PUSH2 0x41C JUMPI PUSH2 0x1D8 JUMP JUMPDEST DUP1 PUSH4 0x2D380242 GT PUSH2 0x17A JUMPI DUP1 PUSH4 0x5C975ABB GT PUSH2 0x149 JUMPI DUP1 PUSH4 0x5C975ABB EQ PUSH2 0x36C JUMPI DUP1 PUSH4 0x6290865D EQ PUSH2 0x38A JUMPI DUP1 PUSH4 0x70A08231 EQ PUSH2 0x3A8 JUMPI DUP1 PUSH4 0x715018A6 EQ PUSH2 0x3D8 JUMPI PUSH2 0x1D8 JUMP JUMPDEST DUP1 PUSH4 0x2D380242 EQ PUSH2 0x2F6 JUMPI DUP1 PUSH4 0x313CE567 EQ PUSH2 0x314 JUMPI DUP1 PUSH4 0x40C10F19 EQ PUSH2 0x332 JUMPI DUP1 PUSH4 0x54FD4D50 EQ PUSH2 0x34E JUMPI PUSH2 0x1D8 JUMP JUMPDEST DUP1 PUSH4 0x134E18F4 GT PUSH2 0x1B6 JUMPI DUP1 PUSH4 0x134E18F4 EQ PUSH2 0x25A JUMPI DUP1 PUSH4 0x158B1A57 EQ PUSH2 0x278 JUMPI DUP1 PUSH4 0x18160DDD EQ PUSH2 0x2A8 JUMPI DUP1 PUSH4 0x23B872DD EQ PUSH2 0x2C6 JUMPI PUSH2 0x1D8 JUMP JUMPDEST DUP1 PUSH4 0x6FDDE03 EQ PUSH2 0x1DC JUMPI DUP1 PUSH4 0x95EA7B3 EQ PUSH2 0x1FA JUMPI DUP1 PUSH4 0x12CAE7AF EQ PUSH2 0x22A JUMPI JUMPDEST PUSH0 DUP1 REVERT JUMPDEST PUSH2 0x1E4 PUSH2 0x5F4 JUMP JUMPDEST PUSH1 0x40 MLOAD PUSH2 0x1F1 SWAP2 SWAP1 PUSH2 0x168C JUMP JUMPDEST PUSH1 0x40 MLOAD DUP1 SWAP2 SUB SWAP1 RETURN JUMPDEST PUSH2 0x214 PUSH1 0x4 DUP1 CALLDATASIZE SUB DUP2 ADD SWAP1 PUSH2 0x20F SWAP2 SWAP1 PUSH2 0x173D JUMP JUMPDEST PUSH2 0x684 JUMP JUMPDEST PUSH1 0x40 MLOAD PUSH2 0x221 SWAP2 SWAP1 PUSH2 0x1795 JUMP JUMPDEST PUSH1 0x40 MLOAD DUP1 SWAP2 SUB SWAP1 RETURN JUMPDEST PUSH2 0x244 PUSH1 0x4 DUP1 CALLDATASIZE SUB DUP2 ADD SWAP1 PUSH2 0x23F SWAP2 SWAP1 PUSH2 0x17AE JUMP JUMPDEST PUSH2 0x6A6 JUMP JUMPDEST PUSH1 0x40 MLOAD PUSH2 0x251 SWAP2 SWAP1 PUSH2 0x17E8 JUMP JUMPDEST PUSH1 0x40 MLOAD DUP1 SWAP2 SUB SWAP1 RETURN JUMPDEST PUSH2 0x262 PUSH2 0x6B7 JUMP JUMPDEST PUSH1 0x40 MLOAD PUSH2 0x26F SWAP2 SWAP1 PUSH2 0x1810 JUMP JUMPDEST PUSH1 0x40 MLOAD DUP1 SWAP2 SUB SWAP1 RETURN JUMPDEST PUSH2 0x292 PUSH1 0x4 DUP1 CALLDATASIZE SUB DUP2 ADD SWAP1 PUSH2 0x28D SWAP2 SWAP1 PUSH2 0x17AE JUMP JUMPDEST PUSH2 0x6BB JUMP JUMPDEST PUSH1 0x40 MLOAD PUSH2 0x29F SWAP2 SWAP1 PUSH2 0x17E8 JUMP JUMPDEST PUSH1 0x40 MLOAD DUP1 SWAP2 SUB SWAP1 RETURN JUMPDEST PUSH2 0x2B0 PUSH2 0x6C1 JUMP JUMPDEST PUSH1 0x40 MLOAD PUSH2 0x2BD SWAP2 SWAP1 PUSH2 0x17E8 JUMP JUMPDEST PUSH1 0x40 MLOAD DUP1 SWAP2 SUB SWAP1 RETURN JUMPDEST PUSH2 0x2E0 PUSH1 0x4 DUP1 CALLDATASIZE SUB DUP2 ADD SWAP1 PUSH2 0x2DB SWAP2 SWAP1 PUSH2 0x1829 JUMP JUMPDEST PUSH2 0x6CA JUMP JUMPDEST PUSH1 0x40 MLOAD PUSH2 0x2ED SWAP2 SWAP1 PUSH2 0x1795 JUMP JUMPDEST PUSH1 0x40 MLOAD DUP1 SWAP2 SUB SWAP1 RETURN JUMPDEST PUSH2 0x2FE PUSH2 0x7BD JUMP JUMPDEST PUSH1 0x40 MLOAD PUSH2 0x30B SWAP2 SWAP1 PUSH2 0x17E8 JUMP JUMPDEST PUSH1 0x40 MLOAD DUP1 SWAP2 SUB SWAP1 RETURN JUMPDEST PUSH2 0x31C PUSH2 0x7C3 JUMP JUMPDEST PUSH1 0x40 MLOAD PUSH2 0x329 SWAP2 SWAP1 PUSH2 0x1894 JUMP JUMPDEST PUSH1 0x40 MLOAD DUP1 SWAP2 SUB SWAP1 RETURN JUMPDEST PUSH2 0x34C PUSH1 0x4 DUP1 CALLDATASIZE SUB DUP2 ADD SWAP1 PUSH2 0x347 SWAP2 SWAP1 PUSH2 0x173D JUMP JUMPDEST PUSH2 0x7CB JUMP JUMPDEST STOP JUMPDEST PUSH2 0x356 PUSH2 0x8DC JUMP JUMPDEST PUSH1 0x40 MLOAD PUSH2 0x363 SWAP2 SWAP1 PUSH2 0x168C JUMP JUMPDEST PUSH1 0x40 MLOAD DUP1 SWAP2 SUB SWAP1 RETURN JUMPDEST PUSH2 0x374 PUSH2 0x919 JUMP JUMPDEST PUSH1 0x40 MLOAD PUSH2 0x381 SWAP2 SWAP1 PUSH2 0x1795 JUMP JUMPDEST PUSH1 0x40 MLOAD DUP1 SWAP2 SUB SWAP1 RETURN JUMPDEST PUSH2 0x392 PUSH2 0x91D JUMP JUMPDEST PUSH1 0x40 MLOAD PUSH2 0x39F SWAP2 SWAP1 PUSH2 0x1810 JUMP JUMPDEST PUSH1 0x40 MLOAD DUP1 SWAP2 SUB SWAP1 RETURN JUMPDEST PUSH2 0x3C2 PUSH1 0x4 DUP1 CALLDATASIZE SUB DUP2 ADD SWAP1 PUSH2 0x3BD SWAP2 SWAP1 PUSH2 0x17AE JUMP JUMPDEST PUSH2 0x921 JUMP JUMPDEST PUSH1 0x40 MLOAD PUSH2 0x3CF SWAP2 SWAP1 PUSH2 0x17E8 JUMP JUMPDEST PUSH1 0x40 MLOAD DUP1 SWAP2 SUB SWAP1 RETURN JUMPDEST PUSH2 0x3E0 PUSH2 0x966 JUMP JUMPDEST STOP JUMPDEST PUSH2 0x3FC PUSH1 0x4 DUP1 CALLDATASIZE SUB DUP2 ADD SWAP1 PUSH2 0x3F7 SWAP2 SWAP1 PUSH2 0x17AE JUMP JUMPDEST PUSH2 0x979 JUMP JUMPDEST STOP JUMPDEST PUSH2 0x406 PUSH2 0x9D8 JUMP JUMPDEST PUSH1 0x40 MLOAD PUSH2 0x413 SWAP2 SWAP1 PUSH2 0x1810 JUMP JUMPDEST PUSH1 0x40 MLOAD DUP1 SWAP2 SUB SWAP1 RETURN JUMPDEST PUSH2 0x424 PUSH2 0xA00 JUMP JUMPDEST PUSH1 0x40 MLOAD PUSH2 0x431 SWAP2 SWAP1 PUSH2 0x17E8 JUMP JUMPDEST PUSH1 0x40 MLOAD DUP1 SWAP2 SUB SWAP1 RETURN JUMPDEST PUSH2 0x442 PUSH2 0xA0E JUMP JUMPDEST PUSH1 0x40 MLOAD PUSH2 0x44F SWAP2 SWAP1 PUSH2 0x168C JUMP JUMPDEST PUSH1 0x40 MLOAD DUP1 SWAP2 SUB SWAP1 RETURN JUMPDEST PUSH2 0x472 PUSH1 0x4 DUP1 CALLDATASIZE SUB DUP2 ADD SWAP1 PUSH2 0x46D SWAP2 SWAP1 PUSH2 0x17AE JUMP JUMPDEST PUSH2 0xA9E JUMP JUMPDEST PUSH1 0x40 MLOAD PUSH2 0x47F SWAP2 SWAP1 PUSH2 0x1795 JUMP JUMPDEST PUSH1 0x40 MLOAD DUP1 SWAP2 SUB SWAP1 RETURN JUMPDEST PUSH2 0x4A2 PUSH1 0x4 DUP1 CALLDATASIZE SUB DUP2 ADD SWAP1 PUSH2 0x49D SWAP2 SWAP1 PUSH2 0x173D JUMP JUMPDEST PUSH2 0xABB JUMP JUMPDEST PUSH1 0x40 MLOAD PUSH2 0x4AF SWAP2 SWAP1 PUSH2 0x1795 JUMP JUMPDEST PUSH1 0x40 MLOAD DUP1 SWAP2 SUB SWAP1 RETURN JUMPDEST PUSH2 0x4C0 PUSH2 0xBAC JUMP JUMPDEST PUSH1 0x40 MLOAD PUSH2 0x4CD SWAP2 SWAP1 PUSH2 0x1810 JUMP JUMPDEST PUSH1 0x40 MLOAD DUP1 SWAP2 SUB SWAP1 RETURN JUMPDEST PUSH2 0x4F0 PUSH1 0x4 DUP1 CALLDATASIZE SUB DUP2 ADD SWAP1 PUSH2 0x4EB SWAP2 SWAP1 PUSH2 0x17AE JUMP JUMPDEST PUSH2 0xBB3 JUMP JUMPDEST STOP JUMPDEST PUSH2 0x50C PUSH1 0x4 DUP1 CALLDATASIZE SUB DUP2 ADD SWAP1 PUSH2 0x507 SWAP2 SWAP1 PUSH2 0x17AE JUMP JUMPDEST PUSH2 0xC12 JUMP JUMPDEST PUSH1 0x40 MLOAD PUSH2 0x519 SWAP2 SWAP1 PUSH2 0x1795 JUMP JUMPDEST PUSH1 0x40 MLOAD DUP1 SWAP2 SUB SWAP1 RETURN JUMPDEST PUSH2 0x52A PUSH2 0xC2F JUMP JUMPDEST PUSH1 0x40 MLOAD PUSH2 0x537 SWAP2 SWAP1 PUSH2 0x17E8 JUMP JUMPDEST PUSH1 0x40 MLOAD DUP1 SWAP2 SUB SWAP1 RETURN JUMPDEST PUSH2 0x55A PUSH1 0x4 DUP1 CALLDATASIZE SUB DUP2 ADD SWAP1 PUSH2 0x555 SWAP2 SWAP1 PUSH2 0x18AD JUMP JUMPDEST PUSH2 0xC4D JUMP JUMPDEST PUSH1 0x40 MLOAD PUSH2 0x567 SWAP2 SWAP1 PUSH2 0x17E8 JUMP JUMPDEST PUSH1 0x40 MLOAD DUP1 SWAP2 SUB SWAP1 RETURN JUMPDEST PUSH2 0x58A PUSH1 0x4 DUP1 CALLDATASIZE SUB DUP2 ADD SWAP1 PUSH2 0x585 SWAP2 SWAP1 PUSH2 0x17AE JUMP JUMPDEST PUSH2 0xCCF JUMP JUMPDEST STOP JUMPDEST PUSH2 0x5A6 PUSH1 0x4 DUP1 CALLDATASIZE SUB DUP2 ADD SWAP1 PUSH2 0x5A1 SWAP2 SWAP1 PUSH2 0x17AE JUMP JUMPDEST PUSH2 0xD2F JUMP JUMPDEST STOP JUMPDEST PUSH2 0x5C2 PUSH1 0x4 DUP1 CALLDATASIZE SUB DUP2 ADD SWAP1 PUSH2 0x5BD SWAP2 SWAP1 PUSH2 0x17AE JUMP JUMPDEST PUSH2 0xD8F JUMP JUMPDEST PUSH1 0x40 MLOAD PUSH2 0x5CF SWAP2 SWAP1 PUSH2 0x1795 JUMP JUMPDEST PUSH1 0x40 MLOAD DUP1 SWAP2 SUB SWAP1 RETURN JUMPDEST PUSH2 0x5F2 PUSH1 0x4 DUP1 CALLDATASIZE SUB DUP2 ADD SWAP1 PUSH2 0x5ED SWAP2 SWAP1 PUSH2 0x17AE JUMP JUMPDEST PUSH2 0xDE1 JUMP JUMPDEST STOP JUMPDEST PUSH1 0x60 PUSH1 0x3 DUP1 SLOAD PUSH2 0x603 SWAP1 PUSH2 0x1918 JUMP JUMPDEST DUP1 PUSH1 0x1F ADD PUSH1 0x20 DUP1 SWAP2 DIV MUL PUSH1 0x20 ADD PUSH1 0x40 MLOAD SWAP1 DUP2 ADD PUSH1 0x40 MSTORE DUP1 SWAP3 SWAP2 SWAP1 DUP2 DUP2 MSTORE PUSH1 0x20 ADD DUP3 DUP1 SLOAD PUSH2 0x62F SWAP1 PUSH2 0x1918 JUMP JUMPDEST DUP1 ISZERO PUSH2 0x67A JUMPI DUP1 PUSH1 0x1F LT PUSH2 0x651 JUMPI PUSH2 0x100 DUP1 DUP4 SLOAD DIV MUL DUP4 MSTORE SWAP2 PUSH1 0x20 ADD SWAP2 PUSH2 0x67A JUMP JUMPDEST DUP3 ADD SWAP2 SWAP1 PUSH0 MSTORE PUSH1 0x20 PUSH0 KECCAK256 SWAP1 JUMPDEST DUP2 SLOAD DUP2 MSTORE SWAP1 PUSH1 0x1 ADD SWAP1 PUSH1 0x20 ADD DUP1 DUP4 GT PUSH2 0x65D JUMPI DUP3 SWAP1 SUB PUSH1 0x1F AND DUP3 ADD SWAP2 JUMPDEST POP POP POP POP POP SWAP1 POP SWAP1 JUMP JUMPDEST PUSH0 DUP1 PUSH2 0x68E PUSH2 0xE65 JUMP JUMPDEST SWAP1 POP PUSH2 0x69B DUP2 DUP6 DUP6 PUSH2 0xE6C JUMP JUMPDEST PUSH1 0x1 SWAP2 POP POP SWAP3 SWAP2 POP POP JUMP JUMPDEST PUSH0 PUSH2 0x6B0 DUP3 PUSH2 0x921 JUMP JUMPDEST SWAP1 POP SWAP2 SWAP1 POP JUMP JUMPDEST PUSH0 SWAP1 JUMP JUMPDEST PUSH0 SWAP2 SWAP1 POP JUMP JUMPDEST PUSH0 PUSH1 0x2 SLOAD SWAP1 POP SWAP1 JUMP JUMPDEST PUSH0 PUSH1 0x7 PUSH0 DUP6 PUSH20 0xFFFFFFFFFFFFFFFFFFFFFFFFFFFFFFFFFFFFFFFF AND PUSH20 0xFFFFFFFFFFFFFFFFFFFFFFFFFFFFFFFFFFFFFFFF AND DUP2 MSTORE PUSH1 0x20 ADD SWAP1 DUP2 MSTORE PUSH1 0x20 ADD PUSH0 KECCAK256 PUSH0 SWAP1 SLOAD SWAP1 PUSH2 0x100 EXP SWAP1 DIV PUSH1 0xFF AND ISZERO PUSH2 0x755 JUMPI PUSH1 0x40 MLOAD PUSH32 0x8C379A000000000000000000000000000000000000000000000000000000000 DUP2 MSTORE PUSH1 0x4 ADD PUSH2 0x74C SWAP1 PUSH2 0x1992 JUMP JUMPDEST PUSH1 0x40 MLOAD DUP1 SWAP2 SUB SWAP1 REVERT JUMPDEST DUP2 PUSH16 0xFFFFFFFFFFFFFFFFFFFFFFFFFFFFFFFF AND DUP3 EQ PUSH2 0x7A9 JUMPI PUSH1 0x40 MLOAD PUSH32 0x8C379A000000000000000000000000000000000000000000000000000000000 DUP2 MSTORE PUSH1 0x4 ADD PUSH2 0x7A0 SWAP1 PUSH2 0x19FA JUMP JUMPDEST PUSH1 0x40 MLOAD DUP1 SWAP2 SUB SWAP1 REVERT JUMPDEST PUSH2 0x7B4 DUP5 DUP5 DUP5 PUSH2 0xE7E JUMP JUMPDEST SWAP1 POP SWAP4 SWAP3 POP POP POP JUMP JUMPDEST PUSH1 0x8 SLOAD DUP2 JUMP JUMPDEST PUSH0 PUSH1 0x12 SWAP1 POP SWAP1 JUMP JUMPDEST PUSH2 0x7D3 PUSH2 0xEAC JUMP JUMPDEST PUSH1 0x6 PUSH0 DUP4 PUSH20 0xFFFFFFFFFFFFFFFFFFFFFFFFFFFFFFFFFFFFFFFF AND PUSH20 0xFFFFFFFFFFFFFFFFFFFFFFFFFFFFFFFFFFFFFFFF AND DUP2 MSTORE PUSH1 0x20 ADD SWAP1 DUP2 MSTORE PUSH1 0x20 ADD PUSH0 KECCAK256 PUSH0 SWAP1 SLOAD SWAP1 PUSH2 0x100 EXP SWAP1 DIV PUSH1 0xFF AND PUSH2 0x85C JUMPI PUSH1 0x40 MLOAD PUSH32 0x8C379A000000000000000000000000000000000000000000000000000000000 DUP2 MSTORE PUSH1 0x4 ADD PUSH2 0x853 SWAP1 PUSH2 0x1A62 JUMP JUMPDEST PUSH1 0x40 MLOAD DUP1 SWAP2 SUB SWAP1 REVERT JUMPDEST PUSH10 0x69E10DE76676D0800000 DUP2 PUSH1 0x8 SLOAD PUSH2 0x875 SWAP2 SWAP1 PUSH2 0x1AAD JUMP JUMPDEST GT ISZERO PUSH2 0x8B6 JUMPI PUSH1 0x40 MLOAD PUSH32 0x8C379A000000000000000000000000000000000000000000000000000000000 DUP2 MSTORE PUSH1 0x4 ADD PUSH2 0x8AD SWAP1 PUSH2 0x1B2A JUMP JUMPDEST PUSH1 0x40 MLOAD DUP1 SWAP2 SUB SWAP1 REVERT JUMPDEST PUSH2 0x8C0 DUP3 DUP3 PUSH2 0xF33 JUMP JUMPDEST DUP1 PUSH1 0x8 PUSH0 DUP3 DUP3 SLOAD PUSH2 0x8D1 SWAP2 SWAP1 PUSH2 0x1AAD JUMP JUMPDEST SWAP3 POP POP DUP2 SWAP1 SSTORE POP POP POP JUMP JUMPDEST PUSH1 0x60 PUSH1 0x40 MLOAD DUP1 PUSH1 0x40 ADD PUSH1 0x40 MSTORE DUP1 PUSH1 0x5 DUP2 MSTORE PUSH1 0x20 ADD PUSH32 0x312E302E30000000000000000000000000000000000000000000000000000000 DUP2 MSTORE POP SWAP1 POP SWAP1 JUMP JUMPDEST PUSH0 SWAP1 JUMP JUMPDEST PUSH0 SWAP1 JUMP JUMPDEST PUSH0 DUP1 PUSH0 DUP4 PUSH20 0xFFFFFFFFFFFFFFFFFFFFFFFFFFFFFFFFFFFFFFFF AND PUSH20 0xFFFFFFFFFFFFFFFFFFFFFFFFFFFFFFFFFFFFFFFF AND DUP2 MSTORE PUSH1 0x20 ADD SWAP1 DUP2 MSTORE PUSH1 0x20 ADD PUSH0 KECCAK256 SLOAD SWAP1 POP SWAP2 SWAP1 POP JUMP JUMPDEST PUSH2 0x96E PUSH2 0xEAC JUMP JUMPDEST PUSH2 0x977 PUSH0 PUSH2 0xFB2 JUMP JUMPDEST JUMP JUMPDEST PUSH2 0x981 PUSH2 0xEAC JUMP JUMPDEST PUSH0 PUSH1 0x6 PUSH0 DUP4 PUSH20 0xFFFFFFFFFFFFFFFFFFFFFFFFFFFFFFFFFFFFFFFF AND PUSH20 0xFFFFFFFFFFFFFFFFFFFFFFFFFFFFFFFFFFFFFFFF AND DUP2 MSTORE PUSH1 0x20 ADD SWAP1 DUP2 MSTORE PUSH1 0x20 ADD PUSH0 KECCAK256 PUSH0 PUSH2 0x100 EXP DUP2 SLOAD DUP2 PUSH1 0xFF MUL NOT AND SWAP1 DUP4 ISZERO ISZERO MUL OR SWAP1 SSTORE POP POP JUMP JUMPDEST PUSH0 PUSH1 0x5 PUSH0 SWAP1 SLOAD SWAP1 PUSH2 0x100 EXP SWAP1 DIV PUSH20 0xFFFFFFFFFFFFFFFFFFFFFFFFFFFFFFFFFFFFFFFF AND SWAP1 POP SWAP1 JUMP JUMPDEST PUSH10 0x69E10DE76676D0800000 DUP2 JUMP JUMPDEST PUSH1 0x60 PUSH1 0x4 DUP1 SLOAD PUSH2 0xA1D SWAP1 PUSH2 0x1918 JUMP JUMPDEST DUP1 PUSH1 0x1F ADD PUSH1 0x20 DUP1 SWAP2 DIV MUL PUSH1 0x20 ADD PUSH1 0x40 MLOAD SWAP1 DUP2 ADD PUSH1 0x40 MSTORE DUP1 SWAP3 SWAP2 SWAP1 DUP2 DUP2 MSTORE PUSH1 0x20 ADD DUP3 DUP1 SLOAD PUSH2 0xA49 SWAP1 PUSH2 0x1918 JUMP JUMPDEST DUP1 ISZERO PUSH2 0xA94 JUMPI DUP1 PUSH1 0x1F LT PUSH2 0xA6B JUMPI PUSH2 0x100 DUP1 DUP4 SLOAD DIV MUL DUP4 MSTORE SWAP2 PUSH1 0x20 ADD SWAP2 PUSH2 0xA94 JUMP JUMPDEST DUP3 ADD SWAP2 SWAP1 PUSH0 MSTORE PUSH1 0x20 PUSH0 KECCAK256 SWAP1 JUMPDEST DUP2 SLOAD DUP2 MSTORE SWAP1 PUSH1 0x1 ADD SWAP1 PUSH1 0x20 ADD DUP1 DUP4 GT PUSH2 0xA77 JUMPI DUP3 SWAP1 SUB PUSH1 0x1F AND DUP3 ADD SWAP2 JUMPDEST POP POP POP POP POP SWAP1 POP SWAP1 JUMP JUMPDEST PUSH1 0x6 PUSH1 0x20 MSTORE DUP1 PUSH0 MSTORE PUSH1 0x40 PUSH0 KECCAK256 PUSH0 SWAP2 POP SLOAD SWAP1 PUSH2 0x100 EXP SWAP1 DIV PUSH1 0xFF AND DUP2 JUMP JUMPDEST PUSH0 PUSH1 0x7 PUSH0 CALLER PUSH20 0xFFFFFFFFFFFFFFFFFFFFFFFFFFFFFFFFFFFFFFFF AND PUSH20 0xFFFFFFFFFFFFFFFFFFFFFFFFFFFFFFFFFFFFFFFF AND DUP2 MSTORE PUSH1 0x20 ADD SWAP1 DUP2 MSTORE PUSH1 0x20 ADD PUSH0 KECCAK256 PUSH0 SWAP1 SLOAD SWAP1 PUSH2 0x100 EXP SWAP1 DIV PUSH1 0xFF AND ISZERO PUSH2 0xB46 JUMPI PUSH1 0x40 MLOAD PUSH32 0x8C379A000000000000000000000000000000000000000000000000000000000 DUP2 MSTORE PUSH1 0x4 ADD PUSH2 0xB3D SWAP1 PUSH2 0x1992 JUMP JUMPDEST PUSH1 0x40 MLOAD DUP1 SWAP2 SUB SWAP1 REVERT JUMPDEST DUP2 PUSH16 0xFFFFFFFFFFFFFFFFFFFFFFFFFFFFFFFF AND DUP3 EQ PUSH2 0xB9A JUMPI PUSH1 0x40 MLOAD PUSH32 0x8C379A000000000000000000000000000000000000000000000000000000000 DUP2 MSTORE PUSH1 0x4 ADD PUSH2 0xB91 SWAP1 PUSH2 0x19FA JUMP JUMPDEST PUSH1 0x40 MLOAD DUP1 SWAP2 SUB SWAP1 REVERT JUMPDEST PUSH2 0xBA4 DUP4 DUP4 PUSH2 0x1075 JUMP JUMPDEST SWAP1 POP SWAP3 SWAP2 POP POP JUMP JUMPDEST PUSH0 ADDRESS SWAP1 POP SWAP1 JUMP JUMPDEST PUSH2 0xBBB PUSH2 0xEAC JUMP JUMPDEST PUSH0 PUSH1 0x7 PUSH0 DUP4 PUSH20 0xFFFFFFFFFFFFFFFFFFFFFFFFFFFFFFFFFFFFFFFF AND PUSH20 0xFFFFFFFFFFFFFFFFFFFFFFFFFFFFFFFFFFFFFFFF AND DUP2 MSTORE PUSH1 0x20 ADD SWAP1 DUP2 MSTORE PUSH1 0x20 ADD PUSH0 KECCAK256 PUSH0 PUSH2 0x100 EXP DUP2 SLOAD DUP2 PUSH1 0xFF MUL NOT AND SWAP1 DUP4 ISZERO ISZERO MUL OR SWAP1 SSTORE POP POP JUMP JUMPDEST PUSH1 0x7 PUSH1 0x20 MSTORE DUP1 PUSH0 MSTORE PUSH1 0x40 PUSH0 KECCAK256 PUSH0 SWAP2 POP SLOAD SWAP1 PUSH2 0x100 EXP SWAP1 DIV PUSH1 0xFF AND DUP2 JUMP JUMPDEST PUSH0 PUSH1 0x8 SLOAD PUSH10 0x69E10DE76676D0800000 PUSH2 0xC48 SWAP2 SWAP1 PUSH2 0x1B48 JUMP JUMPDEST SWAP1 POP SWAP1 JUMP JUMPDEST PUSH0 PUSH1 0x1 PUSH0 DUP5 PUSH20 0xFFFFFFFFFFFFFFFFFFFFFFFFFFFFFFFFFFFFFFFF AND PUSH20 0xFFFFFFFFFFFFFFFFFFFFFFFFFFFFFFFFFFFFFFFF AND DUP2 MSTORE PUSH1 0x20 ADD SWAP1 DUP2 MSTORE PUSH1 0x20 ADD PUSH0 KECCAK256 PUSH0 DUP4 PUSH20 0xFFFFFFFFFFFFFFFFFFFFFFFFFFFFFFFFFFFFFFFF AND PUSH20 0xFFFFFFFFFFFFFFFFFFFFFFFFFFFFFFFFFFFFFFFF AND DUP2 MSTORE PUSH1 0x20 ADD SWAP1 DUP2 MSTORE PUSH1 0x20 ADD PUSH0 KECCAK256 SLOAD SWAP1 POP SWAP3 SWAP2 POP POP JUMP JUMPDEST PUSH2 0xCD7 PUSH2 0xEAC JUMP JUMPDEST PUSH1 0x1 PUSH1 0x7 PUSH0 DUP4 PUSH20 0xFFFFFFFFFFFFFFFFFFFFFFFFFFFFFFFFFFFFFFFF AND PUSH20 0xFFFFFFFFFFFFFFFFFFFFFFFFFFFFFFFFFFFFFFFF AND DUP2 MSTORE PUSH1 0x20 ADD SWAP1 DUP2 MSTORE PUSH1 0x20 ADD PUSH0 KECCAK256 PUSH0 PUSH2 0x100 EXP DUP2 SLOAD DUP2 PUSH1 0xFF MUL NOT AND SWAP1 DUP4 ISZERO ISZERO MUL OR SWAP1 SSTORE POP POP JUMP JUMPDEST PUSH2 0xD37 PUSH2 0xEAC JUMP JUMPDEST PUSH1 0x1 PUSH1 0x6 PUSH0 DUP4 PUSH20 0xFFFFFFFFFFFFFFFFFFFFFFFFFFFFFFFFFFFFFFFF AND PUSH20 0xFFFFFFFFFFFFFFFFFFFFFFFFFFFFFFFFFFFFFFFF AND DUP2 MSTORE PUSH1 0x20 ADD SWAP1 DUP2 MSTORE PUSH1 0x20 ADD PUSH0 KECCAK256 PUSH0 PUSH2 0x100 EXP DUP2 SLOAD DUP2 PUSH1 0xFF MUL NOT AND SWAP1 DUP4 ISZERO ISZERO MUL OR SWAP1 SSTORE POP POP JUMP JUMPDEST PUSH0 PUSH1 0x7 PUSH0 DUP4 PUSH20 0xFFFFFFFFFFFFFFFFFFFFFFFFFFFFFFFFFFFFFFFF AND PUSH20 0xFFFFFFFFFFFFFFFFFFFFFFFFFFFFFFFFFFFFFFFF AND DUP2 MSTORE PUSH1 0x20 ADD SWAP1 DUP2 MSTORE PUSH1 0x20 ADD PUSH0 KECCAK256 PUSH0 SWAP1 SLOAD SWAP1 PUSH2 0x100 EXP SWAP1 DIV PUSH1 0xFF AND SWAP1 POP SWAP2 SWAP1 POP JUMP JUMPDEST PUSH2 0xDE9 PUSH2 0xEAC JUMP JUMPDEST PUSH0 PUSH20 0xFFFFFFFFFFFFFFFFFFFFFFFFFFFFFFFFFFFFFFFF AND DUP2 PUSH20 0xFFFFFFFFFFFFFFFFFFFFFFFFFFFFFFFFFFFFFFFF AND SUB PUSH2 0xE59 JUMPI PUSH0 PUSH1 0x40 MLOAD PUSH32 0x1E4FBDF700000000000000000000000000000000000000000000000000000000 DUP2 MSTORE PUSH1 0x4 ADD PUSH2 0xE50 SWAP2 SWAP1 PUSH2 0x1810 JUMP JUMPDEST PUSH1 0x40 MLOAD DUP1 SWAP2 SUB SWAP1 REVERT JUMPDEST PUSH2 0xE62 DUP2 PUSH2 0xFB2 JUMP JUMPDEST POP JUMP JUMPDEST PUSH0 CALLER SWAP1 POP SWAP1 JUMP JUMPDEST PUSH2 0xE79 DUP4 DUP4 DUP4 PUSH1 0x1 PUSH2 0x1097 JUMP JUMPDEST POP POP POP JUMP JUMPDEST PUSH0 DUP1 PUSH2 0xE88 PUSH2 0xE65 JUMP JUMPDEST SWAP1 POP PUSH2 0xE95 DUP6 DUP3 DUP6 PUSH2 0x1266 JUMP JUMPDEST PUSH2 0xEA0 DUP6 DUP6 DUP6 PUSH2 0x12F9 JUMP JUMPDEST PUSH1 0x1 SWAP2 POP POP SWAP4 SWAP3 POP POP POP JUMP JUMPDEST PUSH2 0xEB4 PUSH2 0xE65 JUMP JUMPDEST PUSH20 0xFFFFFFFFFFFFFFFFFFFFFFFFFFFFFFFFFFFFFFFF AND PUSH2 0xED2 PUSH2 0x9D8 JUMP JUMPDEST PUSH20 0xFFFFFFFFFFFFFFFFFFFFFFFFFFFFFFFFFFFFFFFF AND EQ PUSH2 0xF31 JUMPI PUSH2 0xEF5 PUSH2 0xE65 JUMP JUMPDEST PUSH1 0x40 MLOAD PUSH32 0x118CDAA700000000000000000000000000000000000000000000000000000000 DUP2 MSTORE PUSH1 0x4 ADD PUSH2 0xF28 SWAP2 SWAP1 PUSH2 0x1810 JUMP JUMPDEST PUSH1 0x40 MLOAD DUP1 SWAP2 SUB SWAP1 REVERT JUMPDEST JUMP JUMPDEST PUSH0 PUSH20 0xFFFFFFFFFFFFFFFFFFFFFFFFFFFFFFFFFFFFFFFF AND DUP3 PUSH20 0xFFFFFFFFFFFFFFFFFFFFFFFFFFFFFFFFFFFFFFFF AND SUB PUSH2 0xFA3 JUMPI PUSH0 PUSH1 0x40 MLOAD PUSH32 0xEC442F0500000000000000000000000000000000000000000000000000000000 DUP2 MSTORE PUSH1 0x4 ADD PUSH2 0xF9A SWAP2 SWAP1 PUSH2 0x1810 JUMP JUMPDEST PUSH1 0x40 MLOAD DUP1 SWAP2 SUB SWAP1 REVERT JUMPDEST PUSH2 0xFAE PUSH0 DUP4 DUP4 PUSH2 0x13E9 JUMP JUMPDEST POP POP JUMP JUMPDEST PUSH0 PUSH1 0x5 PUSH0 SWAP1 SLOAD SWAP1 PUSH2 0x100 EXP SWAP1 DIV PUSH20 0xFFFFFFFFFFFFFFFFFFFFFFFFFFFFFFFFFFFFFFFF AND SWAP1 POP DUP2 PUSH1 0x5 PUSH0 PUSH2 0x100 EXP DUP2 SLOAD DUP2 PUSH20 0xFFFFFFFFFFFFFFFFFFFFFFFFFFFFFFFFFFFFFFFF MUL NOT AND SWAP1 DUP4 PUSH20 0xFFFFFFFFFFFFFFFFFFFFFFFFFFFFFFFFFFFFFFFF AND MUL OR SWAP1 SSTORE POP DUP2 PUSH20 0xFFFFFFFFFFFFFFFFFFFFFFFFFFFFFFFFFFFFFFFF AND DUP2 PUSH20 0xFFFFFFFFFFFFFFFFFFFFFFFFFFFFFFFFFFFFFFFF AND PUSH32 0x8BE0079C531659141344CD1FD0A4F28419497F9722A3DAAFE3B4186F6B6457E0 PUSH1 0x40 MLOAD PUSH1 0x40 MLOAD DUP1 SWAP2 SUB SWAP1 LOG3 POP POP JUMP JUMPDEST PUSH0 DUP1 PUSH2 0x107F PUSH2 0xE65 JUMP JUMPDEST SWAP1 POP PUSH2 0x108C DUP2 DUP6 DUP6 PUSH2 0x12F9 JUMP JUMPDEST PUSH1 0x1 SWAP2 POP POP SWAP3 SWAP2 POP POP JUMP JUMPDEST PUSH0 PUSH20 0xFFFFFFFFFFFFFFFFFFFFFFFFFFFFFFFFFFFFFFFF AND DUP5 PUSH20 0xFFFFFFFFFFFFFFFFFFFFFFFFFFFFFFFFFFFFFFFF AND SUB PUSH2 0x1107 JUMPI PUSH0 PUSH1 0x40 MLOAD PUSH32 0xE602DF0500000000000000000000000000000000000000000000000000000000 DUP2 MSTORE PUSH1 0x4 ADD PUSH2 0x10FE SWAP2 SWAP1 PUSH2 0x1810 JUMP JUMPDEST PUSH1 0x40 MLOAD DUP1 SWAP2 SUB SWAP1 REVERT JUMPDEST PUSH0 PUSH20 0xFFFFFFFFFFFFFFFFFFFFFFFFFFFFFFFFFFFFFFFF AND DUP4 PUSH20 0xFFFFFFFFFFFFFFFFFFFFFFFFFFFFFFFFFFFFFFFF AND SUB PUSH2 0x1177 JUMPI PUSH0 PUSH1 0x40 MLOAD PUSH32 0x94280D6200000000000000000000000000000000000000000000000000000000 DUP2 MSTORE PUSH1 0x4 ADD PUSH2 0x116E SWAP2 SWAP1 PUSH2 0x1810 JUMP JUMPDEST PUSH1 0x40 MLOAD DUP1 SWAP2 SUB SWAP1 REVERT JUMPDEST DUP2 PUSH1 0x1 PUSH0 DUP7 PUSH20 0xFFFFFFFFFFFFFFFFFFFFFFFFFFFFFFFFFFFFFFFF AND PUSH20 0xFFFFFFFFFFFFFFFFFFFFFFFFFFFFFFFFFFFFFFFF AND DUP2 MSTORE PUSH1 0x20 ADD SWAP1 DUP2 MSTORE PUSH1 0x20 ADD PUSH0 KECCAK256 PUSH0 DUP6 PUSH20 0xFFFFFFFFFFFFFFFFFFFFFFFFFFFFFFFFFFFFFFFF AND PUSH20 0xFFFFFFFFFFFFFFFFFFFFFFFFFFFFFFFFFFFFFFFF AND DUP2 MSTORE PUSH1 0x20 ADD SWAP1 DUP2 MSTORE PUSH1 0x20 ADD PUSH0 KECCAK256 DUP2 SWAP1 SSTORE POP DUP1 ISZERO PUSH2 0x1260 JUMPI DUP3 PUSH20 0xFFFFFFFFFFFFFFFFFFFFFFFFFFFFFFFFFFFFFFFF AND DUP5 PUSH20 0xFFFFFFFFFFFFFFFFFFFFFFFFFFFFFFFFFFFFFFFF AND PUSH32 0x8C5BE1E5EBEC7D5BD14F71427D1E84F3DD0314C0F7B2291E5B200AC8C7C3B925 DUP5 PUSH1 0x40 MLOAD PUSH2 0x1257 SWAP2 SWAP1 PUSH2 0x17E8 JUMP JUMPDEST PUSH1 0x40 MLOAD DUP1 SWAP2 SUB SWAP1 LOG3 JUMPDEST POP POP POP POP JUMP JUMPDEST PUSH0 PUSH2 0x1271 DUP5 DUP5 PUSH2 0xC4D JUMP JUMPDEST SWAP1 POP PUSH32 0xFFFFFFFFFFFFFFFFFFFFFFFFFFFFFFFFFFFFFFFFFFFFFFFFFFFFFFFFFFFFFFFF DUP2 LT ISZERO PUSH2 0x12F3 JUMPI DUP2 DUP2 LT ISZERO PUSH2 0x12E4 JUMPI DUP3 DUP2 DUP4 PUSH1 0x40 MLOAD PUSH32 0xFB8F41B200000000000000000000000000000000000000000000000000000000 DUP2 MSTORE PUSH1 0x4 ADD PUSH2 0x12DB SWAP4 SWAP3 SWAP2 SWAP1 PUSH2 0x1B7B JUMP JUMPDEST PUSH1 0x40 MLOAD DUP1 SWAP2 SUB SWAP1 REVERT JUMPDEST PUSH2 0x12F2 DUP5 DUP5 DUP5 DUP5 SUB PUSH0 PUSH2 0x1097 JUMP JUMPDEST JUMPDEST POP POP POP POP JUMP JUMPDEST PUSH0 PUSH20 0xFFFFFFFFFFFFFFFFFFFFFFFFFFFFFFFFFFFFFFFF AND DUP4 PUSH20 0xFFFFFFFFFFFFFFFFFFFFFFFFFFFFFFFFFFFFFFFF AND SUB PUSH2 0x1369 JUMPI PUSH0 PUSH1 0x40 MLOAD PUSH32 0x96C6FD1E00000000000000000000000000000000000000000000000000000000 DUP2 MSTORE PUSH1 0x4 ADD PUSH2 0x1360 SWAP2 SWAP1 PUSH2 0x1810 JUMP JUMPDEST PUSH1 0x40 MLOAD DUP1 SWAP2 SUB SWAP1 REVERT JUMPDEST PUSH0 PUSH20 0xFFFFFFFFFFFFFFFFFFFFFFFFFFFFFFFFFFFFFFFF AND DUP3 PUSH20 0xFFFFFFFFFFFFFFFFFFFFFFFFFFFFFFFFFFFFFFFF AND SUB PUSH2 0x13D9 JUMPI PUSH0 PUSH1 0x40 MLOAD PUSH32 0xEC442F0500000000000000000000000000000000000000000000000000000000 DUP2 MSTORE PUSH1 0x4 ADD PUSH2 0x13D0 SWAP2 SWAP1 PUSH2 0x1810 JUMP JUMPDEST PUSH1 0x40 MLOAD DUP1 SWAP2 SUB SWAP1 REVERT JUMPDEST PUSH2 0x13E4 DUP4 DUP4 DUP4 PUSH2 0x13E9 JUMP JUMPDEST POP POP POP JUMP JUMPDEST PUSH0 PUSH20 0xFFFFFFFFFFFFFFFFFFFFFFFFFFFFFFFFFFFFFFFF AND DUP4 PUSH20 0xFFFFFFFFFFFFFFFFFFFFFFFFFFFFFFFFFFFFFFFF AND SUB PUSH2 0x1439 JUMPI DUP1 PUSH1 0x2 PUSH0 DUP3 DUP3 SLOAD PUSH2 0x142D SWAP2 SWAP1 PUSH2 0x1AAD JUMP JUMPDEST SWAP3 POP POP DUP2 SWAP1 SSTORE POP PUSH2 0x1507 JUMP JUMPDEST PUSH0 DUP1 PUSH0 DUP6 PUSH20 0xFFFFFFFFFFFFFFFFFFFFFFFFFFFFFFFFFFFFFFFF AND PUSH20 0xFFFFFFFFFFFFFFFFFFFFFFFFFFFFFFFFFFFFFFFF AND DUP2 MSTORE PUSH1 0x20 ADD SWAP1 DUP2 MSTORE PUSH1 0x20 ADD PUSH0 KECCAK256 SLOAD SWAP1 POP DUP2 DUP2 LT ISZERO PUSH2 0x14C2 JUMPI DUP4 DUP2 DUP4 PUSH1 0x40 MLOAD PUSH32 0xE450D38C00000000000000000000000000000000000000000000000000000000 DUP2 MSTORE PUSH1 0x4 ADD PUSH2 0x14B9 SWAP4 SWAP3 SWAP2 SWAP1 PUSH2 0x1B7B JUMP JUMPDEST PUSH1 0x40 MLOAD DUP1 SWAP2 SUB SWAP1 REVERT JUMPDEST DUP2 DUP2 SUB PUSH0 DUP1 DUP7 PUSH20 0xFFFFFFFFFFFFFFFFFFFFFFFFFFFFFFFFFFFFFFFF AND PUSH20 0xFFFFFFFFFFFFFFFFFFFFFFFFFFFFFFFFFFFFFFFF AND DUP2 MSTORE PUSH1 0x20 ADD SWAP1 DUP2 MSTORE PUSH1 0x20 ADD PUSH0 KECCAK256 DUP2 SWAP1 SSTORE POP POP JUMPDEST PUSH0 PUSH20 0xFFFFFFFFFFFFFFFFFFFFFFFFFFFFFFFFFFFFFFFF AND DUP3 PUSH20 0xFFFFFFFFFFFFFFFFFFFFFFFFFFFFFFFFFFFFFFFF AND SUB PUSH2 0x154E JUMPI DUP1 PUSH1 0x2 PUSH0 DUP3 DUP3 SLOAD SUB SWAP3 POP POP DUP2 SWAP1 SSTORE POP PUSH2 0x1598 JUMP JUMPDEST DUP1 PUSH0 DUP1 DUP5 PUSH20 0xFFFFFFFFFFFFFFFFFFFFFFFFFFFFFFFFFFFFFFFF AND PUSH20 0xFFFFFFFFFFFFFFFFFFFFFFFFFFFFFFFFFFFFFFFF AND DUP2 MSTORE PUSH1 0x20 ADD SWAP1 DUP2 MSTORE PUSH1 0x20 ADD PUSH0 KECCAK256 PUSH0 DUP3 DUP3 SLOAD ADD SWAP3 POP POP DUP2 SWAP1 SSTORE POP JUMPDEST DUP2 PUSH20 0xFFFFFFFFFFFFFFFFFFFFFFFFFFFFFFFFFFFFFFFF AND DUP4 PUSH20 0xFFFFFFFFFFFFFFFFFFFFFFFFFFFFFFFFFFFFFFFF AND PUSH32 0xDDF252AD1BE2C89B69C2B068FC378DAA952BA7F163C4A11628F55A4DF523B3EF DUP4 PUSH1 0x40 MLOAD PUSH2 0x15F5 SWAP2 SWAP1 PUSH2 0x17E8 JUMP JUMPDEST PUSH1 0x40 MLOAD DUP1 SWAP2 SUB SWAP1 LOG3 POP POP POP JUMP JUMPDEST PUSH0 DUP2 MLOAD SWAP1 POP SWAP2 SWAP1 POP JUMP JUMPDEST PUSH0 DUP3 DUP3 MSTORE PUSH1 0x20 DUP3 ADD SWAP1 POP SWAP3 SWAP2 POP POP JUMP JUMPDEST PUSH0 JUMPDEST DUP4 DUP2 LT ISZERO PUSH2 0x1639 JUMPI DUP1 DUP3 ADD MLOAD DUP2 DUP5 ADD MSTORE PUSH1 0x20 DUP2 ADD SWAP1 POP PUSH2 0x161E JUMP JUMPDEST PUSH0 DUP5 DUP5 ADD MSTORE POP POP POP POP JUMP JUMPDEST PUSH0 PUSH1 0x1F NOT PUSH1 0x1F DUP4 ADD AND SWAP1 POP SWAP2 SWAP1 POP JUMP JUMPDEST PUSH0 PUSH2 0x165E DUP3 PUSH2 0x1602 JUMP JUMPDEST PUSH2 0x1668 DUP2 DUP6 PUSH2 0x160C JUMP JUMPDEST SWAP4 POP PUSH2 0x1678 DUP2 DUP6 PUSH1 0x20 DUP7 ADD PUSH2 0x161C JUMP JUMPDEST PUSH2 0x1681 DUP2 PUSH2 0x1644 JUMP JUMPDEST DUP5 ADD SWAP2 POP POP SWAP3 SWAP2 POP POP JUMP JUMPDEST PUSH0 PUSH1 0x20 DUP3 ADD SWAP1 POP DUP2 DUP2 SUB PUSH0 DUP4 ADD MSTORE PUSH2 0x16A4 DUP2 DUP5 PUSH2 0x1654 JUMP JUMPDEST SWAP1 POP SWAP3 SWAP2 POP POP JUMP JUMPDEST PUSH0 DUP1 REVERT JUMPDEST PUSH0 PUSH20 0xFFFFFFFFFFFFFFFFFFFFFFFFFFFFFFFFFFFFFFFF DUP3 AND SWAP1 POP SWAP2 SWAP1 POP JUMP JUMPDEST PUSH0 PUSH2 0x16D9 DUP3 PUSH2 0x16B0 JUMP JUMPDEST SWAP1 POP SWAP2 SWAP1 POP JUMP JUMPDEST PUSH2 0x16E9 DUP2 PUSH2 0x16CF JUMP JUMPDEST DUP2 EQ PUSH2 0x16F3 JUMPI PUSH0 DUP1 REVERT JUMPDEST POP JUMP JUMPDEST PUSH0 DUP2 CALLDATALOAD SWAP1 POP PUSH2 0x1704 DUP2 PUSH2 0x16E0 JUMP JUMPDEST SWAP3 SWAP2 POP POP JUMP JUMPDEST PUSH0 DUP2 SWAP1 POP SWAP2 SWAP1 POP JUMP JUMPDEST PUSH2 0x171C DUP2 PUSH2 0x170A JUMP JUMPDEST DUP2 EQ PUSH2 0x1726 JUMPI PUSH0 DUP1 REVERT JUMPDEST POP JUMP JUMPDEST PUSH0 DUP2 CALLDATALOAD SWAP1 POP PUSH2 0x1737 DUP2 PUSH2 0x1713 JUMP JUMPDEST SWAP3 SWAP2 POP POP JUMP JUMPDEST PUSH0 DUP1 PUSH1 0x40 DUP4 DUP6 SUB SLT ISZERO PUSH2 0x1753 JUMPI PUSH2 0x1752 PUSH2 0x16AC JUMP JUMPDEST JUMPDEST PUSH0 PUSH2 0x1760 DUP6 DUP3 DUP7 ADD PUSH2 0x16F6 JUMP JUMPDEST SWAP3 POP POP PUSH1 0x20 PUSH2 0x1771 DUP6 DUP3 DUP7 ADD PUSH2 0x1729 JUMP JUMPDEST SWAP2 POP POP SWAP3 POP SWAP3 SWAP1 POP JUMP JUMPDEST PUSH0 DUP2 ISZERO ISZERO SWAP1 POP SWAP2 SWAP1 POP JUMP JUMPDEST PUSH2 0x178F DUP2 PUSH2 0x177B JUMP JUMPDEST DUP3 MSTORE POP POP JUMP JUMPDEST PUSH0 PUSH1 0x20 DUP3 ADD SWAP1 POP PUSH2 0x17A8 PUSH0 DUP4 ADD DUP5 PUSH2 0x1786 JUMP JUMPDEST SWAP3 SWAP2 POP POP JUMP JUMPDEST PUSH0 PUSH1 0x20 DUP3 DUP5 SUB SLT ISZERO PUSH2 0x17C3 JUMPI PUSH2 0x17C2 PUSH2 0x16AC JUMP JUMPDEST JUMPDEST PUSH0 PUSH2 0x17D0 DUP5 DUP3 DUP6 ADD PUSH2 0x16F6 JUMP JUMPDEST SWAP2 POP POP SWAP3 SWAP2 POP POP JUMP JUMPDEST PUSH2 0x17E2 DUP2 PUSH2 0x170A JUMP JUMPDEST DUP3 MSTORE POP POP JUMP JUMPDEST PUSH0 PUSH1 0x20 DUP3 ADD SWAP1 POP PUSH2 0x17FB PUSH0 DUP4 ADD DUP5 PUSH2 0x17D9 JUMP JUMPDEST SWAP3 SWAP2 POP POP JUMP JUMPDEST PUSH2 0x180A DUP2 PUSH2 0x16CF JUMP JUMPDEST DUP3 MSTORE POP POP JUMP JUMPDEST PUSH0 PUSH1 0x20 DUP3 ADD SWAP1 POP PUSH2 0x1823 PUSH0 DUP4 ADD DUP5 PUSH2 0x1801 JUMP JUMPDEST SWAP3 SWAP2 POP POP JUMP JUMPDEST PUSH0 DUP1 PUSH0 PUSH1 0x60 DUP5 DUP7 SUB SLT ISZERO PUSH2 0x1840 JUMPI PUSH2 0x183F PUSH2 0x16AC JUMP JUMPDEST JUMPDEST PUSH0 PUSH2 0x184D DUP7 DUP3 DUP8 ADD PUSH2 0x16F6 JUMP JUMPDEST SWAP4 POP POP PUSH1 0x20 PUSH2 0x185E DUP7 DUP3 DUP8 ADD PUSH2 0x16F6 JUMP JUMPDEST SWAP3 POP POP PUSH1 0x40 PUSH2 0x186F DUP7 DUP3 DUP8 ADD PUSH2 0x1729 JUMP JUMPDEST SWAP2 POP POP SWAP3 POP SWAP3 POP SWAP3 JUMP JUMPDEST PUSH0 PUSH1 0xFF DUP3 AND SWAP1 POP SWAP2 SWAP1 POP JUMP JUMPDEST PUSH2 0x188E DUP2 PUSH2 0x1879 JUMP JUMPDEST DUP3 MSTORE POP POP JUMP JUMPDEST PUSH0 PUSH1 0x20 DUP3 ADD SWAP1 POP PUSH2 0x18A7 PUSH0 DUP4 ADD DUP5 PUSH2 0x1885 JUMP JUMPDEST SWAP3 SWAP2 POP POP JUMP JUMPDEST PUSH0 DUP1 PUSH1 0x40 DUP4 DUP6 SUB SLT ISZERO PUSH2 0x18C3 JUMPI PUSH2 0x18C2 PUSH2 0x16AC JUMP JUMPDEST JUMPDEST PUSH0 PUSH2 0x18D0 DUP6 DUP3 DUP7 ADD PUSH2 0x16F6 JUMP JUMPDEST SWAP3 POP POP PUSH1 0x20 PUSH2 0x18E1 DUP6 DUP3 DUP7 ADD PUSH2 0x16F6 JUMP JUMPDEST SWAP2 POP POP SWAP3 POP SWAP3 SWAP1 POP JUMP JUMPDEST PUSH32 0x4E487B7100000000000000000000000000000000000000000000000000000000 PUSH0 MSTORE PUSH1 0x22 PUSH1 0x4 MSTORE PUSH1 0x24 PUSH0 REVERT JUMPDEST PUSH0 PUSH1 0x2 DUP3 DIV SWAP1 POP PUSH1 0x1 DUP3 AND DUP1 PUSH2 0x192F JUMPI PUSH1 0x7F DUP3 AND SWAP2 POP JUMPDEST PUSH1 0x20 DUP3 LT DUP2 SUB PUSH2 0x1942 JUMPI PUSH2 0x1941 PUSH2 0x18EB JUMP JUMPDEST JUMPDEST POP SWAP2 SWAP1 POP JUMP JUMPDEST PUSH32 0x53656E6465722069732066726F7A656E00000000000000000000000000000000 PUSH0 DUP3 ADD MSTORE POP JUMP JUMPDEST PUSH0 PUSH2 0x197C PUSH1 0x10 DUP4 PUSH2 0x160C JUMP JUMPDEST SWAP2 POP PUSH2 0x1987 DUP3 PUSH2 0x1948 JUMP JUMPDEST PUSH1 0x20 DUP3 ADD SWAP1 POP SWAP2 SWAP1 POP JUMP JUMPDEST PUSH0 PUSH1 0x20 DUP3 ADD SWAP1 POP DUP2 DUP2 SUB PUSH0 DUP4 ADD MSTORE PUSH2 0x19A9 DUP2 PUSH2 0x1970 JUMP JUMPDEST SWAP1 POP SWAP2 SWAP1 POP JUMP JUMPDEST PUSH32 0x416D6F756E74206D75737420626520616E20696E746567657200000000000000 PUSH0 DUP3 ADD MSTORE POP JUMP JUMPDEST PUSH0 PUSH2 0x19E4 PUSH1 0x19 DUP4 PUSH2 0x160C JUMP JUMPDEST SWAP2 POP PUSH2 0x19EF DUP3 PUSH2 0x19B0 JUMP JUMPDEST PUSH1 0x20 DUP3 ADD SWAP1 POP SWAP2 SWAP1 POP JUMP JUMPDEST PUSH0 PUSH1 0x20 DUP3 ADD SWAP1 POP DUP2 DUP2 SUB PUSH0 DUP4 ADD MSTORE PUSH2 0x1A11 DUP2 PUSH2 0x19D8 JUMP JUMPDEST SWAP1 POP SWAP2 SWAP1 POP JUMP JUMPDEST PUSH32 0x4E6F742077686974656C69737465640000000000000000000000000000000000 PUSH0 DUP3 ADD MSTORE POP JUMP JUMPDEST PUSH0 PUSH2 0x1A4C PUSH1 0xF DUP4 PUSH2 0x160C JUMP JUMPDEST SWAP2 POP PUSH2 0x1A57 DUP3 PUSH2 0x1A18 JUMP JUMPDEST PUSH1 0x20 DUP3 ADD SWAP1 POP SWAP2 SWAP1 POP JUMP JUMPDEST PUSH0 PUSH1 0x20 DUP3 ADD SWAP1 POP DUP2 DUP2 SUB PUSH0 DUP4 ADD MSTORE PUSH2 0x1A79 DUP2 PUSH2 0x1A40 JUMP JUMPDEST SWAP1 POP SWAP2 SWAP1 POP JUMP JUMPDEST PUSH32 0x4E487B7100000000000000000000000000000000000000000000000000000000 PUSH0 MSTORE PUSH1 0x11 PUSH1 0x4 MSTORE PUSH1 0x24 PUSH0 REVERT JUMPDEST PUSH0 PUSH2 0x1AB7 DUP3 PUSH2 0x170A JUMP JUMPDEST SWAP2 POP PUSH2 0x1AC2 DUP4 PUSH2 0x170A JUMP JUMPDEST SWAP3 POP DUP3 DUP3 ADD SWAP1 POP DUP1 DUP3 GT ISZERO PUSH2 0x1ADA JUMPI PUSH2 0x1AD9 PUSH2 0x1A80 JUMP JUMPDEST JUMPDEST SWAP3 SWAP2 POP POP JUMP JUMPDEST PUSH32 0x546F74616C20737570706C792065786365656465640000000000000000000000 PUSH0 DUP3 ADD MSTORE POP JUMP JUMPDEST PUSH0 PUSH2 0x1B14 PUSH1 0x15 DUP4 PUSH2 0x160C JUMP JUMPDEST SWAP2 POP PUSH2 0x1B1F DUP3 PUSH2 0x1AE0 JUMP JUMPDEST PUSH1 0x20 DUP3 ADD SWAP1 POP SWAP2 SWAP1 POP JUMP JUMPDEST PUSH0 PUSH1 0x20 DUP3 ADD SWAP1 POP DUP2 DUP2 SUB PUSH0 DUP4 ADD MSTORE PUSH2 0x1B41 DUP2 PUSH2 0x1B08 JUMP JUMPDEST SWAP1 POP SWAP2 SWAP1 POP JUMP JUMPDEST PUSH0 PUSH2 0x1B52 DUP3 PUSH2 0x170A JUMP JUMPDEST SWAP2 POP PUSH2 0x1B5D DUP4 PUSH2 0x170A JUMP JUMPDEST SWAP3 POP DUP3 DUP3 SUB SWAP1 POP DUP2 DUP2 GT ISZERO PUSH2 0x1B75 JUMPI PUSH2 0x1B74 PUSH2 0x1A80 JUMP JUMPDEST JUMPDEST SWAP3 SWAP2 POP POP JUMP JUMPDEST PUSH0 PUSH1 0x60 DUP3 ADD SWAP1 POP PUSH2 0x1B8E PUSH0 DUP4 ADD DUP7 PUSH2 0x1801 JUMP JUMPDEST PUSH2 0x1B9B PUSH1 0x20 DUP4 ADD DUP6 PUSH2 0x17D9 JUMP JUMPDEST PUSH2 0x1BA8 PUSH1 0x40 DUP4 ADD DUP5 PUSH2 0x17D9 JUMP JUMPDEST SWAP5 SWAP4 POP POP POP POP JUMP INVALID LOG2 PUSH5 0x6970667358 0x22 SLT KECCAK256 EXP SWAP8 PUSH26 0xC834C2E5C4E6A33710956E24698408E5EAC42D0B651EAF673FD2 0xA8 0xAD PUSH8 0x64736F6C63430008 EQ STOP CALLER "
				},
				"gasEstimates": {
					"creation": {
						"codeDepositCost": "1428400",
						"executionCost": "infinite",
						"totalCost": "infinite"
					},
					"external": {
						"TOTAL_SUPPLY()": "415",
						"addToWhitelist(address)": "infinite",
						"allowance(address,address)": "infinite",
						"approve(address,uint256)": "infinite",
						"balanceOf(address)": "2918",
						"balanceOfUser(address)": "2962",
						"compliance()": "439",
						"decimals()": "406",
						"freezeUser(address)": "infinite",
						"frozen(address)": "2900",
						"getFrozenTokens(address)": "701",
						"identityRegistry()": "418",
						"isFrozen(address)": "2958",
						"mint(address,uint256)": "infinite",
						"mintedAmount()": "2471",
						"name()": "infinite",
						"onchainID()": "490",
						"owner()": "2583",
						"paused()": "375",
						"remainingSupply()": "infinite",
						"removeFromWhitelist(address)": "infinite",
						"renounceOwnership()": "infinite",
						"symbol()": "infinite",
						"totalSupply()": "2522",
						"transfer(address,uint256)": "infinite",
						"transferFrom(address,address,uint256)": "infinite",
						"transferOwnership(address)": "infinite",
						"unfreezeUser(address)": "infinite",
						"version()": "infinite",
						"whitelist(address)": "2900"
					}
				},
				"methodIdentifiers": {
					"TOTAL_SUPPLY()": "902d55a5",
					"addToWhitelist(address)": "e43252d7",
					"allowance(address,address)": "dd62ed3e",
					"approve(address,uint256)": "095ea7b3",
					"balanceOf(address)": "70a08231",
					"balanceOfUser(address)": "12cae7af",
					"compliance()": "6290865d",
					"decimals()": "313ce567",
					"freezeUser(address)": "e08ba51a",
					"frozen(address)": "d0516650",
					"getFrozenTokens(address)": "158b1a57",
					"identityRegistry()": "134e18f4",
					"isFrozen(address)": "e5839836",
					"mint(address,uint256)": "40c10f19",
					"mintedAmount()": "2d380242",
					"name()": "06fdde03",
					"onchainID()": "aba63705",
					"owner()": "8da5cb5b",
					"paused()": "5c975abb",
					"remainingSupply()": "da0239a6",
					"removeFromWhitelist(address)": "8ab1d681",
					"renounceOwnership()": "715018a6",
					"symbol()": "95d89b41",
					"totalSupply()": "18160ddd",
					"transfer(address,uint256)": "a9059cbb",
					"transferFrom(address,address,uint256)": "23b872dd",
					"transferOwnership(address)": "f2fde38b",
					"unfreezeUser(address)": "cb4b73ab",
					"version()": "54fd4d50",
					"whitelist(address)": "9b19251a"
				}
			},
			"storageLayout": {
				"storage": [
					{
						"astId": 307,
						"contract": "contracts/CCK/CCKToken.sol:CCKToken",
						"label": "_balances",
						"offset": 0,
						"slot": "0",
						"type": "t_mapping(t_address,t_uint256)"
					},
					{
						"astId": 313,
						"contract": "contracts/CCK/CCKToken.sol:CCKToken",
						"label": "_allowances",
						"offset": 0,
						"slot": "1",
						"type": "t_mapping(t_address,t_mapping(t_address,t_uint256))"
					},
					{
						"astId": 315,
						"contract": "contracts/CCK/CCKToken.sol:CCKToken",
						"label": "_totalSupply",
						"offset": 0,
						"slot": "2",
						"type": "t_uint256"
					},
					{
						"astId": 317,
						"contract": "contracts/CCK/CCKToken.sol:CCKToken",
						"label": "_name",
						"offset": 0,
						"slot": "3",
						"type": "t_string_storage"
					},
					{
						"astId": 319,
						"contract": "contracts/CCK/CCKToken.sol:CCKToken",
						"label": "_symbol",
						"offset": 0,
						"slot": "4",
						"type": "t_string_storage"
					},
					{
						"astId": 8,
						"contract": "contracts/CCK/CCKToken.sol:CCKToken",
						"label": "_owner",
						"offset": 0,
						"slot": "5",
						"type": "t_address"
					},
					{
						"astId": 955,
						"contract": "contracts/CCK/CCKToken.sol:CCKToken",
						"label": "whitelist",
						"offset": 0,
						"slot": "6",
						"type": "t_mapping(t_address,t_bool)"
					},
					{
						"astId": 959,
						"contract": "contracts/CCK/CCKToken.sol:CCKToken",
						"label": "frozen",
						"offset": 0,
						"slot": "7",
						"type": "t_mapping(t_address,t_bool)"
					},
					{
						"astId": 961,
						"contract": "contracts/CCK/CCKToken.sol:CCKToken",
						"label": "mintedAmount",
						"offset": 0,
						"slot": "8",
						"type": "t_uint256"
					}
				],
				"types": {
					"t_address": {
						"encoding": "inplace",
						"label": "address",
						"numberOfBytes": "20"
					},
					"t_bool": {
						"encoding": "inplace",
						"label": "bool",
						"numberOfBytes": "1"
					},
					"t_mapping(t_address,t_bool)": {
						"encoding": "mapping",
						"key": "t_address",
						"label": "mapping(address => bool)",
						"numberOfBytes": "32",
						"value": "t_bool"
					},
					"t_mapping(t_address,t_mapping(t_address,t_uint256))": {
						"encoding": "mapping",
						"key": "t_address",
						"label": "mapping(address => mapping(address => uint256))",
						"numberOfBytes": "32",
						"value": "t_mapping(t_address,t_uint256)"
					},
					"t_mapping(t_address,t_uint256)": {
						"encoding": "mapping",
						"key": "t_address",
						"label": "mapping(address => uint256)",
						"numberOfBytes": "32",
						"value": "t_uint256"
					},
					"t_string_storage": {
						"encoding": "bytes",
						"label": "string",
						"numberOfBytes": "32"
					},
					"t_uint256": {
						"encoding": "inplace",
						"label": "uint256",
						"numberOfBytes": "32"
					}
				}
			},
			"userdoc": {
				"kind": "user",
				"methods": {},
				"version": 1
			}
		}
	}
}