{
	"contracts/CCK/CCKToken.sol": {
		"CCKToken": {
			"abi": [
				{
					"inputs": [
						{
							"internalType": "address[]",
							"name": "_whitelist",
							"type": "address[]"
						}
					],
					"stateMutability": "nonpayable",
					"type": "constructor"
				},
				{
					"inputs": [
						{
							"internalType": "address",
							"name": "spender",
							"type": "address"
						},
						{
							"internalType": "uint256",
							"name": "allowance",
							"type": "uint256"
						},
						{
							"internalType": "uint256",
							"name": "needed",
							"type": "uint256"
						}
					],
					"name": "ERC20InsufficientAllowance",
					"type": "error"
				},
				{
					"inputs": [
						{
							"internalType": "address",
							"name": "sender",
							"type": "address"
						},
						{
							"internalType": "uint256",
							"name": "balance",
							"type": "uint256"
						},
						{
							"internalType": "uint256",
							"name": "needed",
							"type": "uint256"
						}
					],
					"name": "ERC20InsufficientBalance",
					"type": "error"
				},
				{
					"inputs": [
						{
							"internalType": "address",
							"name": "approver",
							"type": "address"
						}
					],
					"name": "ERC20InvalidApprover",
					"type": "error"
				},
				{
					"inputs": [
						{
							"internalType": "address",
							"name": "receiver",
							"type": "address"
						}
					],
					"name": "ERC20InvalidReceiver",
					"type": "error"
				},
				{
					"inputs": [
						{
							"internalType": "address",
							"name": "sender",
							"type": "address"
						}
					],
					"name": "ERC20InvalidSender",
					"type": "error"
				},
				{
					"inputs": [
						{
							"internalType": "address",
							"name": "spender",
							"type": "address"
						}
					],
					"name": "ERC20InvalidSpender",
					"type": "error"
				},
				{
					"inputs": [
						{
							"internalType": "address",
							"name": "owner",
							"type": "address"
						}
					],
					"name": "OwnableInvalidOwner",
					"type": "error"
				},
				{
					"inputs": [
						{
							"internalType": "address",
							"name": "account",
							"type": "address"
						}
					],
					"name": "OwnableUnauthorizedAccount",
					"type": "error"
				},
				{
					"anonymous": false,
					"inputs": [
						{
							"indexed": true,
							"internalType": "address",
							"name": "owner",
							"type": "address"
						},
						{
							"indexed": true,
							"internalType": "address",
							"name": "spender",
							"type": "address"
						},
						{
							"indexed": false,
							"internalType": "uint256",
							"name": "value",
							"type": "uint256"
						}
					],
					"name": "Approval",
					"type": "event"
				},
				{
					"anonymous": false,
					"inputs": [
						{
							"indexed": true,
							"internalType": "address",
							"name": "previousOwner",
							"type": "address"
						},
						{
							"indexed": true,
							"internalType": "address",
							"name": "newOwner",
							"type": "address"
						}
					],
					"name": "OwnershipTransferred",
					"type": "event"
				},
				{
					"anonymous": false,
					"inputs": [
						{
							"indexed": true,
							"internalType": "address",
							"name": "from",
							"type": "address"
						},
						{
							"indexed": true,
							"internalType": "address",
							"name": "to",
							"type": "address"
						},
						{
							"indexed": false,
							"internalType": "uint256",
							"name": "value",
							"type": "uint256"
						}
					],
					"name": "Transfer",
					"type": "event"
				},
				{
					"inputs": [],
					"name": "TOTAL_SUPPLY",
					"outputs": [
						{
							"internalType": "uint256",
							"name": "",
							"type": "uint256"
						}
					],
					"stateMutability": "view",
					"type": "function"
				},
				{
					"inputs": [
						{
							"internalType": "address",
							"name": "member",
							"type": "address"
						}
					],
					"name": "addToWhitelist",
					"outputs": [],
					"stateMutability": "nonpayable",
					"type": "function"
				},
				{
					"inputs": [
						{
							"internalType": "address",
							"name": "owner",
							"type": "address"
						},
						{
							"internalType": "address",
							"name": "spender",
							"type": "address"
						}
					],
					"name": "allowance",
					"outputs": [
						{
							"internalType": "uint256",
							"name": "",
							"type": "uint256"
						}
					],
					"stateMutability": "view",
					"type": "function"
				},
				{
					"inputs": [
						{
							"internalType": "address",
							"name": "spender",
							"type": "address"
						},
						{
							"internalType": "uint256",
							"name": "value",
							"type": "uint256"
						}
					],
					"name": "approve",
					"outputs": [
						{
							"internalType": "bool",
							"name": "",
							"type": "bool"
						}
					],
					"stateMutability": "nonpayable",
					"type": "function"
				},
				{
					"inputs": [
						{
							"internalType": "address",
							"name": "account",
							"type": "address"
						}
					],
					"name": "balanceOf",
					"outputs": [
						{
							"internalType": "uint256",
							"name": "",
							"type": "uint256"
						}
					],
					"stateMutability": "view",
					"type": "function"
				},
				{
					"inputs": [
						{
							"internalType": "address",
							"name": "user",
							"type": "address"
						}
					],
					"name": "balanceOfUser",
					"outputs": [
						{
							"internalType": "uint256",
							"name": "",
							"type": "uint256"
						}
					],
					"stateMutability": "view",
					"type": "function"
				},
				{
					"inputs": [],
					"name": "compliance",
					"outputs": [
						{
							"internalType": "address",
							"name": "",
							"type": "address"
						}
					],
					"stateMutability": "view",
					"type": "function"
				},
				{
					"inputs": [],
					"name": "decimals",
					"outputs": [
						{
							"internalType": "uint8",
							"name": "",
							"type": "uint8"
						}
					],
					"stateMutability": "view",
					"type": "function"
				},
				{
					"inputs": [
						{
							"internalType": "address",
							"name": "user",
							"type": "address"
						}
					],
					"name": "freezeUser",
					"outputs": [],
					"stateMutability": "nonpayable",
					"type": "function"
				},
				{
					"inputs": [
						{
							"internalType": "address",
							"name": "",
							"type": "address"
						}
					],
					"name": "frozen",
					"outputs": [
						{
							"internalType": "bool",
							"name": "",
							"type": "bool"
						}
					],
					"stateMutability": "view",
					"type": "function"
				},
				{
					"inputs": [],
					"name": "getCurrentPrice",
					"outputs": [
						{
							"internalType": "uint256",
							"name": "",
							"type": "uint256"
						}
					],
					"stateMutability": "view",
					"type": "function"
				},
				{
					"inputs": [
						{
							"internalType": "address",
							"name": "userAddress",
							"type": "address"
						}
					],
					"name": "getFrozenTokens",
					"outputs": [
						{
							"internalType": "uint256",
							"name": "",
							"type": "uint256"
						}
					],
					"stateMutability": "view",
					"type": "function"
				},
				{
					"inputs": [],
					"name": "identityRegistry",
					"outputs": [
						{
							"internalType": "address",
							"name": "",
							"type": "address"
						}
					],
					"stateMutability": "view",
					"type": "function"
				},
				{
					"inputs": [
						{
							"internalType": "address",
							"name": "userAddress",
							"type": "address"
						}
					],
					"name": "isFrozen",
					"outputs": [
						{
							"internalType": "bool",
							"name": "",
							"type": "bool"
						}
					],
					"stateMutability": "view",
					"type": "function"
				},
				{
					"inputs": [
						{
							"internalType": "address",
							"name": "to",
							"type": "address"
						},
						{
							"internalType": "uint256",
							"name": "amount",
							"type": "uint256"
						}
					],
					"name": "mint",
					"outputs": [],
					"stateMutability": "nonpayable",
					"type": "function"
				},
				{
					"inputs": [],
					"name": "mintedAmount",
					"outputs": [
						{
							"internalType": "uint256",
							"name": "",
							"type": "uint256"
						}
					],
					"stateMutability": "view",
					"type": "function"
				},
				{
					"inputs": [],
					"name": "name",
					"outputs": [
						{
							"internalType": "string",
							"name": "",
							"type": "string"
						}
					],
					"stateMutability": "view",
					"type": "function"
				},
				{
					"inputs": [],
					"name": "onchainID",
					"outputs": [
						{
							"internalType": "address",
							"name": "",
							"type": "address"
						}
					],
					"stateMutability": "view",
					"type": "function"
				},
				{
					"inputs": [],
					"name": "owner",
					"outputs": [
						{
							"internalType": "address",
							"name": "",
							"type": "address"
						}
					],
					"stateMutability": "view",
					"type": "function"
				},
				{
					"inputs": [],
					"name": "paused",
					"outputs": [
						{
							"internalType": "bool",
							"name": "",
							"type": "bool"
						}
					],
					"stateMutability": "view",
					"type": "function"
				},
				{
					"inputs": [],
					"name": "remainingSupply",
					"outputs": [
						{
							"internalType": "uint256",
							"name": "",
							"type": "uint256"
						}
					],
					"stateMutability": "view",
					"type": "function"
				},
				{
					"inputs": [
						{
							"internalType": "address",
							"name": "member",
							"type": "address"
						}
					],
					"name": "removeFromWhitelist",
					"outputs": [],
					"stateMutability": "nonpayable",
					"type": "function"
				},
				{
					"inputs": [],
					"name": "renounceOwnership",
					"outputs": [],
					"stateMutability": "nonpayable",
					"type": "function"
				},
				{
					"inputs": [],
					"name": "symbol",
					"outputs": [
						{
							"internalType": "string",
							"name": "",
							"type": "string"
						}
					],
					"stateMutability": "view",
					"type": "function"
				},
				{
					"inputs": [],
					"name": "totalSupply",
					"outputs": [
						{
							"internalType": "uint256",
							"name": "",
							"type": "uint256"
						}
					],
					"stateMutability": "view",
					"type": "function"
				},
				{
					"inputs": [
						{
							"internalType": "address",
							"name": "recipient",
							"type": "address"
						},
						{
							"internalType": "uint256",
							"name": "amount",
							"type": "uint256"
						}
					],
					"name": "transfer",
					"outputs": [
						{
							"internalType": "bool",
							"name": "",
							"type": "bool"
						}
					],
					"stateMutability": "nonpayable",
					"type": "function"
				},
				{
					"inputs": [
						{
							"internalType": "address",
							"name": "sender",
							"type": "address"
						},
						{
							"internalType": "address",
							"name": "recipient",
							"type": "address"
						},
						{
							"internalType": "uint256",
							"name": "amount",
							"type": "uint256"
						}
					],
					"name": "transferFrom",
					"outputs": [
						{
							"internalType": "bool",
							"name": "",
							"type": "bool"
						}
					],
					"stateMutability": "nonpayable",
					"type": "function"
				},
				{
					"inputs": [
						{
							"internalType": "address",
							"name": "newOwner",
							"type": "address"
						}
					],
					"name": "transferOwnership",
					"outputs": [],
					"stateMutability": "nonpayable",
					"type": "function"
				},
				{
					"inputs": [
						{
							"internalType": "address",
							"name": "user",
							"type": "address"
						}
					],
					"name": "unfreezeUser",
					"outputs": [],
					"stateMutability": "nonpayable",
					"type": "function"
				},
				{
					"inputs": [],
					"name": "uniswapPool",
					"outputs": [
						{
							"internalType": "address",
							"name": "",
							"type": "address"
						}
					],
					"stateMutability": "view",
					"type": "function"
				},
				{
					"inputs": [],
					"name": "version",
					"outputs": [
						{
							"internalType": "string",
							"name": "",
							"type": "string"
						}
					],
					"stateMutability": "view",
					"type": "function"
				},
				{
					"inputs": [
						{
							"internalType": "address",
							"name": "",
							"type": "address"
						}
					],
					"name": "whitelist",
					"outputs": [
						{
							"internalType": "bool",
							"name": "",
							"type": "bool"
						}
					],
					"stateMutability": "view",
					"type": "function"
				}
			],
			"devdoc": {
				"errors": {
					"ERC20InsufficientAllowance(address,uint256,uint256)": [
						{
							"details": "Indicates a failure with the `spender`’s `allowance`. Used in transfers.",
							"params": {
								"allowance": "Amount of tokens a `spender` is allowed to operate with.",
								"needed": "Minimum amount required to perform a transfer.",
								"spender": "Address that may be allowed to operate on tokens without being their owner."
							}
						}
					],
					"ERC20InsufficientBalance(address,uint256,uint256)": [
						{
							"details": "Indicates an error related to the current `balance` of a `sender`. Used in transfers.",
							"params": {
								"balance": "Current balance for the interacting account.",
								"needed": "Minimum amount required to perform a transfer.",
								"sender": "Address whose tokens are being transferred."
							}
						}
					],
					"ERC20InvalidApprover(address)": [
						{
							"details": "Indicates a failure with the `approver` of a token to be approved. Used in approvals.",
							"params": {
								"approver": "Address initiating an approval operation."
							}
						}
					],
					"ERC20InvalidReceiver(address)": [
						{
							"details": "Indicates a failure with the token `receiver`. Used in transfers.",
							"params": {
								"receiver": "Address to which tokens are being transferred."
							}
						}
					],
					"ERC20InvalidSender(address)": [
						{
							"details": "Indicates a failure with the token `sender`. Used in transfers.",
							"params": {
								"sender": "Address whose tokens are being transferred."
							}
						}
					],
					"ERC20InvalidSpender(address)": [
						{
							"details": "Indicates a failure with the `spender` to be approved. Used in approvals.",
							"params": {
								"spender": "Address that may be allowed to operate on tokens without being their owner."
							}
						}
					],
					"OwnableInvalidOwner(address)": [
						{
							"details": "The owner is not a valid owner account. (eg. `address(0)`)"
						}
					],
					"OwnableUnauthorizedAccount(address)": [
						{
							"details": "The caller account is not authorized to perform an operation."
						}
					]
				},
				"events": {
					"Approval(address,address,uint256)": {
						"details": "Emitted when the allowance of a `spender` for an `owner` is set by a call to {approve}. `value` is the new allowance."
					},
					"Transfer(address,address,uint256)": {
						"details": "Emitted when `value` tokens are moved from one account (`from`) to another (`to`). Note that `value` may be zero."
					}
				},
				"kind": "dev",
				"methods": {
					"allowance(address,address)": {
						"details": "See {IERC20-allowance}."
					},
					"approve(address,uint256)": {
						"details": "See {IERC20-approve}. NOTE: If `value` is the maximum `uint256`, the allowance is not updated on `transferFrom`. This is semantically equivalent to an infinite approval. Requirements: - `spender` cannot be the zero address."
					},
					"balanceOf(address)": {
						"details": "See {IERC20-balanceOf}."
					},
					"compliance()": {
						"details": "Returns the compliance address.",
						"returns": {
							"_0": "address The compliance address."
						}
					},
					"decimals()": {
						"details": "Returns the number of decimals used to get its user representation. For example, if `decimals` equals `2`, a balance of `505` tokens should be displayed to a user as `5.05` (`505 / 10 ** 2`). Tokens usually opt for a value of 18, imitating the relationship between Ether and Wei. This is the default value returned by this function, unless it's overridden. NOTE: This information is only used for _display_ purposes: it in no way affects any of the arithmetic of the contract, including {IERC20-balanceOf} and {IERC20-transfer}."
					},
					"getFrozenTokens(address)": {
						"details": "Returns the number of frozen tokens for a user.",
						"params": {
							"userAddress": "Address of the user to check."
						},
						"returns": {
							"_0": "uint256 Amount of frozen tokens."
						}
					},
					"identityRegistry()": {
						"details": "Returns the identity registry address.",
						"returns": {
							"_0": "address The identity registry address."
						}
					},
					"isFrozen(address)": {
						"details": "Checks if a user is frozen.",
						"params": {
							"userAddress": "Address of the user to check."
						},
						"returns": {
							"_0": "bool Indicates if the user is frozen."
						}
					},
					"name()": {
						"details": "Returns the name of the token."
					},
					"onchainID()": {
						"details": "Returns the on-chain ID of the contract.",
						"returns": {
							"_0": "address The address of the contract."
						}
					},
					"owner()": {
						"details": "Returns the address of the current owner."
					},
					"paused()": {
						"details": "Checks if the contract is paused.",
						"returns": {
							"_0": "bool Indicates if the contract is paused."
						}
					},
					"renounceOwnership()": {
						"details": "Leaves the contract without owner. It will not be possible to call `onlyOwner` functions. Can only be called by the current owner. NOTE: Renouncing ownership will leave the contract without an owner, thereby disabling any functionality that is only available to the owner."
					},
					"symbol()": {
						"details": "Returns the symbol of the token, usually a shorter version of the name."
					},
					"totalSupply()": {
						"details": "See {IERC20-totalSupply}."
					},
					"transferOwnership(address)": {
						"details": "Transfers ownership of the contract to a new account (`newOwner`). Can only be called by the current owner."
					},
					"version()": {
						"details": "Returns the version of the contract.",
						"returns": {
							"_0": "string The version string."
						}
					}
				},
				"version": 1
			},
			"evm": {
				"assembly": "    /* \"contracts/CCK/CCKToken.sol\":378:4777  contract CCKToken is ERC20, Ownable, IERC3643 {... */\n  mstore(0x40, 0x80)\n    /* \"contracts/CCK/CCKToken.sol\":843:1250  constructor(address[] memory _whitelist) ERC20(\"CCK\", \"CCK\") Ownable(msg.sender) {... */\n  callvalue\n  dup1\n  iszero\n  tag_1\n  jumpi\n  revert(0x00, 0x00)\ntag_1:\n  pop\n  mload(0x40)\n  sub(codesize, bytecodeSize)\n  dup1\n  bytecodeSize\n  dup4\n  codecopy\n  dup2\n  dup2\n  add\n  0x40\n  mstore\n  dup2\n  add\n  swap1\n  tag_2\n  swap2\n  swap1\n  tag_3\n  jump\t// in\ntag_2:\n    /* \"contracts/CCK/CCKToken.sol\":912:922  msg.sender */\n  caller\n    /* \"@openzeppelin/contracts/token/ERC20/ERC20.sol\":1582:1695  constructor(string memory name_, string memory symbol_) {... */\n  mload(0x40)\n  dup1\n  0x40\n  add\n  0x40\n  mstore\n  dup1\n  0x03\n  dup2\n  mstore\n  0x20\n  add\n  0x43434b0000000000000000000000000000000000000000000000000000000000\n  dup2\n  mstore\n  pop\n  mload(0x40)\n  dup1\n  0x40\n  add\n  0x40\n  mstore\n  dup1\n  0x03\n  dup2\n  mstore\n  0x20\n  add\n  0x43434b0000000000000000000000000000000000000000000000000000000000\n  dup2\n  mstore\n  pop\n    /* \"@openzeppelin/contracts/token/ERC20/ERC20.sol\":1656:1661  name_ */\n  dup2\n    /* \"@openzeppelin/contracts/token/ERC20/ERC20.sol\":1648:1653  _name */\n  0x03\n    /* \"@openzeppelin/contracts/token/ERC20/ERC20.sol\":1648:1661  _name = name_ */\n  swap1\n  dup2\n  tag_8\n  swap2\n  swap1\n  tag_9\n  jump\t// in\ntag_8:\n  pop\n    /* \"@openzeppelin/contracts/token/ERC20/ERC20.sol\":1681:1688  symbol_ */\n  dup1\n    /* \"@openzeppelin/contracts/token/ERC20/ERC20.sol\":1671:1678  _symbol */\n  0x04\n    /* \"@openzeppelin/contracts/token/ERC20/ERC20.sol\":1671:1688  _symbol = symbol_ */\n  swap1\n  dup2\n  tag_10\n  swap2\n  swap1\n  tag_9\n  jump\t// in\ntag_10:\n  pop\n    /* \"@openzeppelin/contracts/token/ERC20/ERC20.sol\":1582:1695  constructor(string memory name_, string memory symbol_) {... */\n  pop\n  pop\n    /* \"@openzeppelin/contracts/access/Ownable.sol\":1297:1298  0 */\n  0x00\n    /* \"@openzeppelin/contracts/access/Ownable.sol\":1273:1299  initialOwner == address(0) */\n  0xffffffffffffffffffffffffffffffffffffffff\n  and\n    /* \"@openzeppelin/contracts/access/Ownable.sol\":1273:1285  initialOwner */\n  dup2\n    /* \"@openzeppelin/contracts/access/Ownable.sol\":1273:1299  initialOwner == address(0) */\n  0xffffffffffffffffffffffffffffffffffffffff\n  and\n  sub\n    /* \"@openzeppelin/contracts/access/Ownable.sol\":1269:1364  if (initialOwner == address(0)) {... */\n  tag_12\n  jumpi\n    /* \"@openzeppelin/contracts/access/Ownable.sol\":1350:1351  0 */\n  0x00\n    /* \"@openzeppelin/contracts/access/Ownable.sol\":1322:1353  OwnableInvalidOwner(address(0)) */\n  mload(0x40)\n  0x1e4fbdf700000000000000000000000000000000000000000000000000000000\n  dup2\n  mstore\n  0x04\n  add\n  tag_13\n  swap2\n  swap1\n  tag_14\n  jump\t// in\ntag_13:\n  mload(0x40)\n  dup1\n  swap2\n  sub\n  swap1\n  revert\n    /* \"@openzeppelin/contracts/access/Ownable.sol\":1269:1364  if (initialOwner == address(0)) {... */\ntag_12:\n    /* \"@openzeppelin/contracts/access/Ownable.sol\":1373:1405  _transferOwnership(initialOwner) */\n  tag_15\n    /* \"@openzeppelin/contracts/access/Ownable.sol\":1392:1404  initialOwner */\n  dup2\n    /* \"@openzeppelin/contracts/access/Ownable.sol\":1373:1391  _transferOwnership */\n  shl(0x20, tag_16)\n    /* \"@openzeppelin/contracts/access/Ownable.sol\":1373:1405  _transferOwnership(initialOwner) */\n  0x20\n  shr\n  jump\t// in\ntag_15:\n    /* \"@openzeppelin/contracts/access/Ownable.sol\":1225:1412  constructor(address initialOwner) {... */\n  pop\n    /* \"contracts/CCK/CCKToken.sol\":963:964  0 */\n  0x00\n    /* \"contracts/CCK/CCKToken.sol\":943:953  _whitelist */\n  dup2\n    /* \"contracts/CCK/CCKToken.sol\":943:960  _whitelist.length */\n  mload\n    /* \"contracts/CCK/CCKToken.sol\":943:964  _whitelist.length > 0 */\n  gt\n    /* \"contracts/CCK/CCKToken.sol\":935:1010  require(_whitelist.length > 0, \"At least one whitelisted address required\") */\n  tag_18\n  jumpi\n  mload(0x40)\n  0x08c379a000000000000000000000000000000000000000000000000000000000\n  dup2\n  mstore\n  0x04\n  add\n  tag_19\n  swap1\n  tag_20\n  jump\t// in\ntag_19:\n  mload(0x40)\n  dup1\n  swap2\n  sub\n  swap1\n  revert\ntag_18:\n    /* \"contracts/CCK/CCKToken.sol\":1076:1085  uint256 i */\n  0x00\n    /* \"contracts/CCK/CCKToken.sol\":1088:1089  0 */\n  0x00\n    /* \"contracts/CCK/CCKToken.sol\":1076:1089  uint256 i = 0 */\n  swap1\n  pop\n    /* \"contracts/CCK/CCKToken.sol\":1071:1177  for (uint256 i = 0; i < _whitelist.length; i++) {... */\ntag_21:\n    /* \"contracts/CCK/CCKToken.sol\":1095:1105  _whitelist */\n  dup2\n    /* \"contracts/CCK/CCKToken.sol\":1095:1112  _whitelist.length */\n  mload\n    /* \"contracts/CCK/CCKToken.sol\":1091:1092  i */\n  dup2\n    /* \"contracts/CCK/CCKToken.sol\":1091:1112  i < _whitelist.length */\n  lt\n    /* \"contracts/CCK/CCKToken.sol\":1071:1177  for (uint256 i = 0; i < _whitelist.length; i++) {... */\n  iszero\n  tag_22\n  jumpi\n    /* \"contracts/CCK/CCKToken.sol\":1161:1165  true */\n  0x01\n    /* \"contracts/CCK/CCKToken.sol\":1134:1143  whitelist */\n  0x06\n    /* \"contracts/CCK/CCKToken.sol\":1134:1158  whitelist[_whitelist[i]] */\n  0x00\n    /* \"contracts/CCK/CCKToken.sol\":1144:1154  _whitelist */\n  dup5\n    /* \"contracts/CCK/CCKToken.sol\":1155:1156  i */\n  dup5\n    /* \"contracts/CCK/CCKToken.sol\":1144:1157  _whitelist[i] */\n  dup2\n  mload\n  dup2\n  lt\n  tag_24\n  jumpi\n  tag_25\n  tag_26\n  jump\t// in\ntag_25:\ntag_24:\n  0x20\n  mul\n  0x20\n  add\n  add\n  mload\n    /* \"contracts/CCK/CCKToken.sol\":1134:1158  whitelist[_whitelist[i]] */\n  0xffffffffffffffffffffffffffffffffffffffff\n  and\n  0xffffffffffffffffffffffffffffffffffffffff\n  and\n  dup2\n  mstore\n  0x20\n  add\n  swap1\n  dup2\n  mstore\n  0x20\n  add\n  0x00\n  keccak256\n  0x00\n    /* \"contracts/CCK/CCKToken.sol\":1134:1165  whitelist[_whitelist[i]] = true */\n  0x0100\n  exp\n  dup2\n  sload\n  dup2\n  0xff\n  mul\n  not\n  and\n  swap1\n  dup4\n  iszero\n  iszero\n  mul\n  or\n  swap1\n  sstore\n  pop\n    /* \"contracts/CCK/CCKToken.sol\":1114:1117  i++ */\n  dup1\n  dup1\n  0x01\n  add\n  swap2\n  pop\n  pop\n    /* \"contracts/CCK/CCKToken.sol\":1071:1177  for (uint256 i = 0; i < _whitelist.length; i++) {... */\n  jump(tag_21)\ntag_22:\n  pop\n    /* \"contracts/CCK/CCKToken.sol\":1189:1220  _mint(msg.sender, TOTAL_SUPPLY) */\n  tag_27\n    /* \"contracts/CCK/CCKToken.sol\":1195:1205  msg.sender */\n  caller\n    /* \"contracts/CCK/CCKToken.sol\":561:577  500_000 * 10**18 */\n  0x69e10de76676d0800000\n    /* \"contracts/CCK/CCKToken.sol\":1189:1194  _mint */\n  shl(0x20, tag_28)\n    /* \"contracts/CCK/CCKToken.sol\":1189:1220  _mint(msg.sender, TOTAL_SUPPLY) */\n  0x20\n  shr\n  jump\t// in\ntag_27:\n    /* \"contracts/CCK/CCKToken.sol\":843:1250  constructor(address[] memory _whitelist) ERC20(\"CCK\", \"CCK\") Ownable(msg.sender) {... */\n  pop\n    /* \"contracts/CCK/CCKToken.sol\":378:4777  contract CCKToken is ERC20, Ownable, IERC3643 {... */\n  jump(tag_29)\n    /* \"@openzeppelin/contracts/access/Ownable.sol\":2912:3099  function _transferOwnership(address newOwner) internal virtual {... */\ntag_16:\n    /* \"@openzeppelin/contracts/access/Ownable.sol\":2985:3001  address oldOwner */\n  0x00\n    /* \"@openzeppelin/contracts/access/Ownable.sol\":3004:3010  _owner */\n  0x05\n  0x00\n  swap1\n  sload\n  swap1\n  0x0100\n  exp\n  swap1\n  div\n  0xffffffffffffffffffffffffffffffffffffffff\n  and\n    /* \"@openzeppelin/contracts/access/Ownable.sol\":2985:3010  address oldOwner = _owner */\n  swap1\n  pop\n    /* \"@openzeppelin/contracts/access/Ownable.sol\":3029:3037  newOwner */\n  dup2\n    /* \"@openzeppelin/contracts/access/Ownable.sol\":3020:3026  _owner */\n  0x05\n  0x00\n    /* \"@openzeppelin/contracts/access/Ownable.sol\":3020:3037  _owner = newOwner */\n  0x0100\n  exp\n  dup2\n  sload\n  dup2\n  0xffffffffffffffffffffffffffffffffffffffff\n  mul\n  not\n  and\n  swap1\n  dup4\n  0xffffffffffffffffffffffffffffffffffffffff\n  and\n  mul\n  or\n  swap1\n  sstore\n  pop\n    /* \"@openzeppelin/contracts/access/Ownable.sol\":3083:3091  newOwner */\n  dup2\n    /* \"@openzeppelin/contracts/access/Ownable.sol\":3052:3092  OwnershipTransferred(oldOwner, newOwner) */\n  0xffffffffffffffffffffffffffffffffffffffff\n  and\n    /* \"@openzeppelin/contracts/access/Ownable.sol\":3073:3081  oldOwner */\n  dup2\n    /* \"@openzeppelin/contracts/access/Ownable.sol\":3052:3092  OwnershipTransferred(oldOwner, newOwner) */\n  0xffffffffffffffffffffffffffffffffffffffff\n  and\n  0x8be0079c531659141344cd1fd0a4f28419497f9722a3daafe3b4186f6b6457e0\n  mload(0x40)\n  mload(0x40)\n  dup1\n  swap2\n  sub\n  swap1\n  log3\n    /* \"@openzeppelin/contracts/access/Ownable.sol\":2975:3099  {... */\n  pop\n    /* \"@openzeppelin/contracts/access/Ownable.sol\":2912:3099  function _transferOwnership(address newOwner) internal virtual {... */\n  pop\n  jump\t// out\n    /* \"@openzeppelin/contracts/token/ERC20/ERC20.sol\":7439:7647  function _mint(address account, uint256 value) internal {... */\ntag_28:\n    /* \"@openzeppelin/contracts/token/ERC20/ERC20.sol\":7528:7529  0 */\n  0x00\n    /* \"@openzeppelin/contracts/token/ERC20/ERC20.sol\":7509:7530  account == address(0) */\n  0xffffffffffffffffffffffffffffffffffffffff\n  and\n    /* \"@openzeppelin/contracts/token/ERC20/ERC20.sol\":7509:7516  account */\n  dup3\n    /* \"@openzeppelin/contracts/token/ERC20/ERC20.sol\":7509:7530  account == address(0) */\n  0xffffffffffffffffffffffffffffffffffffffff\n  and\n  sub\n    /* \"@openzeppelin/contracts/token/ERC20/ERC20.sol\":7505:7596  if (account == address(0)) {... */\n  tag_32\n  jumpi\n    /* \"@openzeppelin/contracts/token/ERC20/ERC20.sol\":7582:7583  0 */\n  0x00\n    /* \"@openzeppelin/contracts/token/ERC20/ERC20.sol\":7553:7585  ERC20InvalidReceiver(address(0)) */\n  mload(0x40)\n  0xec442f0500000000000000000000000000000000000000000000000000000000\n  dup2\n  mstore\n  0x04\n  add\n  tag_33\n  swap2\n  swap1\n  tag_14\n  jump\t// in\ntag_33:\n  mload(0x40)\n  dup1\n  swap2\n  sub\n  swap1\n  revert\n    /* \"@openzeppelin/contracts/token/ERC20/ERC20.sol\":7505:7596  if (account == address(0)) {... */\ntag_32:\n    /* \"@openzeppelin/contracts/token/ERC20/ERC20.sol\":7605:7640  _update(address(0), account, value) */\n  tag_34\n    /* \"@openzeppelin/contracts/token/ERC20/ERC20.sol\":7621:7622  0 */\n  0x00\n    /* \"@openzeppelin/contracts/token/ERC20/ERC20.sol\":7625:7632  account */\n  dup4\n    /* \"@openzeppelin/contracts/token/ERC20/ERC20.sol\":7634:7639  value */\n  dup4\n    /* \"@openzeppelin/contracts/token/ERC20/ERC20.sol\":7605:7612  _update */\n  shl(0x20, tag_35)\n    /* \"@openzeppelin/contracts/token/ERC20/ERC20.sol\":7605:7640  _update(address(0), account, value) */\n  0x20\n  shr\n  jump\t// in\ntag_34:\n    /* \"@openzeppelin/contracts/token/ERC20/ERC20.sol\":7439:7647  function _mint(address account, uint256 value) internal {... */\n  pop\n  pop\n  jump\t// out\n    /* \"@openzeppelin/contracts/token/ERC20/ERC20.sol\":5989:7096  function _update(address from, address to, uint256 value) internal virtual {... */\ntag_35:\n    /* \"@openzeppelin/contracts/token/ERC20/ERC20.sol\":6094:6095  0 */\n  0x00\n    /* \"@openzeppelin/contracts/token/ERC20/ERC20.sol\":6078:6096  from == address(0) */\n  0xffffffffffffffffffffffffffffffffffffffff\n  and\n    /* \"@openzeppelin/contracts/token/ERC20/ERC20.sol\":6078:6082  from */\n  dup4\n    /* \"@openzeppelin/contracts/token/ERC20/ERC20.sol\":6078:6096  from == address(0) */\n  0xffffffffffffffffffffffffffffffffffffffff\n  and\n  sub\n    /* \"@openzeppelin/contracts/token/ERC20/ERC20.sol\":6074:6614  if (from == address(0)) {... */\n  tag_37\n  jumpi\n    /* \"@openzeppelin/contracts/token/ERC20/ERC20.sol\":6230:6235  value */\n  dup1\n    /* \"@openzeppelin/contracts/token/ERC20/ERC20.sol\":6214:6226  _totalSupply */\n  0x02\n  0x00\n    /* \"@openzeppelin/contracts/token/ERC20/ERC20.sol\":6214:6235  _totalSupply += value */\n  dup3\n  dup3\n  sload\n  tag_38\n  swap2\n  swap1\n  tag_39\n  jump\t// in\ntag_38:\n  swap3\n  pop\n  pop\n  dup2\n  swap1\n  sstore\n  pop\n    /* \"@openzeppelin/contracts/token/ERC20/ERC20.sol\":6074:6614  if (from == address(0)) {... */\n  jump(tag_40)\ntag_37:\n    /* \"@openzeppelin/contracts/token/ERC20/ERC20.sol\":6266:6285  uint256 fromBalance */\n  0x00\n    /* \"@openzeppelin/contracts/token/ERC20/ERC20.sol\":6288:6297  _balances */\n  0x00\n    /* \"@openzeppelin/contracts/token/ERC20/ERC20.sol\":6288:6303  _balances[from] */\n  0x00\n    /* \"@openzeppelin/contracts/token/ERC20/ERC20.sol\":6298:6302  from */\n  dup6\n    /* \"@openzeppelin/contracts/token/ERC20/ERC20.sol\":6288:6303  _balances[from] */\n  0xffffffffffffffffffffffffffffffffffffffff\n  and\n  0xffffffffffffffffffffffffffffffffffffffff\n  and\n  dup2\n  mstore\n  0x20\n  add\n  swap1\n  dup2\n  mstore\n  0x20\n  add\n  0x00\n  keccak256\n  sload\n    /* \"@openzeppelin/contracts/token/ERC20/ERC20.sol\":6266:6303  uint256 fromBalance = _balances[from] */\n  swap1\n  pop\n    /* \"@openzeppelin/contracts/token/ERC20/ERC20.sol\":6335:6340  value */\n  dup2\n    /* \"@openzeppelin/contracts/token/ERC20/ERC20.sol\":6321:6332  fromBalance */\n  dup2\n    /* \"@openzeppelin/contracts/token/ERC20/ERC20.sol\":6321:6340  fromBalance < value */\n  lt\n    /* \"@openzeppelin/contracts/token/ERC20/ERC20.sol\":6317:6432  if (fromBalance < value) {... */\n  iszero\n  tag_41\n  jumpi\n    /* \"@openzeppelin/contracts/token/ERC20/ERC20.sol\":6392:6396  from */\n  dup4\n    /* \"@openzeppelin/contracts/token/ERC20/ERC20.sol\":6398:6409  fromBalance */\n  dup2\n    /* \"@openzeppelin/contracts/token/ERC20/ERC20.sol\":6411:6416  value */\n  dup4\n    /* \"@openzeppelin/contracts/token/ERC20/ERC20.sol\":6367:6417  ERC20InsufficientBalance(from, fromBalance, value) */\n  mload(0x40)\n  0xe450d38c00000000000000000000000000000000000000000000000000000000\n  dup2\n  mstore\n  0x04\n  add\n  tag_42\n  swap4\n  swap3\n  swap2\n  swap1\n  tag_43\n  jump\t// in\ntag_42:\n  mload(0x40)\n  dup1\n  swap2\n  sub\n  swap1\n  revert\n    /* \"@openzeppelin/contracts/token/ERC20/ERC20.sol\":6317:6432  if (fromBalance < value) {... */\ntag_41:\n    /* \"@openzeppelin/contracts/token/ERC20/ERC20.sol\":6584:6589  value */\n  dup2\n    /* \"@openzeppelin/contracts/token/ERC20/ERC20.sol\":6570:6581  fromBalance */\n  dup2\n    /* \"@openzeppelin/contracts/token/ERC20/ERC20.sol\":6570:6589  fromBalance - value */\n  sub\n    /* \"@openzeppelin/contracts/token/ERC20/ERC20.sol\":6552:6561  _balances */\n  0x00\n    /* \"@openzeppelin/contracts/token/ERC20/ERC20.sol\":6552:6567  _balances[from] */\n  0x00\n    /* \"@openzeppelin/contracts/token/ERC20/ERC20.sol\":6562:6566  from */\n  dup7\n    /* \"@openzeppelin/contracts/token/ERC20/ERC20.sol\":6552:6567  _balances[from] */\n  0xffffffffffffffffffffffffffffffffffffffff\n  and\n  0xffffffffffffffffffffffffffffffffffffffff\n  and\n  dup2\n  mstore\n  0x20\n  add\n  swap1\n  dup2\n  mstore\n  0x20\n  add\n  0x00\n  keccak256\n    /* \"@openzeppelin/contracts/token/ERC20/ERC20.sol\":6552:6589  _balances[from] = fromBalance - value */\n  dup2\n  swap1\n  sstore\n  pop\n    /* \"@openzeppelin/contracts/token/ERC20/ERC20.sol\":6252:6614  {... */\n  pop\n    /* \"@openzeppelin/contracts/token/ERC20/ERC20.sol\":6074:6614  if (from == address(0)) {... */\ntag_40:\n    /* \"@openzeppelin/contracts/token/ERC20/ERC20.sol\":6642:6643  0 */\n  0x00\n    /* \"@openzeppelin/contracts/token/ERC20/ERC20.sol\":6628:6644  to == address(0) */\n  0xffffffffffffffffffffffffffffffffffffffff\n  and\n    /* \"@openzeppelin/contracts/token/ERC20/ERC20.sol\":6628:6630  to */\n  dup3\n    /* \"@openzeppelin/contracts/token/ERC20/ERC20.sol\":6628:6644  to == address(0) */\n  0xffffffffffffffffffffffffffffffffffffffff\n  and\n  sub\n    /* \"@openzeppelin/contracts/token/ERC20/ERC20.sol\":6624:7049  if (to == address(0)) {... */\n  tag_44\n  jumpi\n    /* \"@openzeppelin/contracts/token/ERC20/ERC20.sol\":6807:6812  value */\n  dup1\n    /* \"@openzeppelin/contracts/token/ERC20/ERC20.sol\":6791:6803  _totalSupply */\n  0x02\n  0x00\n    /* \"@openzeppelin/contracts/token/ERC20/ERC20.sol\":6791:6812  _totalSupply -= value */\n  dup3\n  dup3\n  sload\n  sub\n  swap3\n  pop\n  pop\n  dup2\n  swap1\n  sstore\n  pop\n    /* \"@openzeppelin/contracts/token/ERC20/ERC20.sol\":6624:7049  if (to == address(0)) {... */\n  jump(tag_45)\ntag_44:\n    /* \"@openzeppelin/contracts/token/ERC20/ERC20.sol\":7019:7024  value */\n  dup1\n    /* \"@openzeppelin/contracts/token/ERC20/ERC20.sol\":7002:7011  _balances */\n  0x00\n    /* \"@openzeppelin/contracts/token/ERC20/ERC20.sol\":7002:7015  _balances[to] */\n  0x00\n    /* \"@openzeppelin/contracts/token/ERC20/ERC20.sol\":7012:7014  to */\n  dup5\n    /* \"@openzeppelin/contracts/token/ERC20/ERC20.sol\":7002:7015  _balances[to] */\n  0xffffffffffffffffffffffffffffffffffffffff\n  and\n  0xffffffffffffffffffffffffffffffffffffffff\n  and\n  dup2\n  mstore\n  0x20\n  add\n  swap1\n  dup2\n  mstore\n  0x20\n  add\n  0x00\n  keccak256\n  0x00\n    /* \"@openzeppelin/contracts/token/ERC20/ERC20.sol\":7002:7024  _balances[to] += value */\n  dup3\n  dup3\n  sload\n  add\n  swap3\n  pop\n  pop\n  dup2\n  swap1\n  sstore\n  pop\n    /* \"@openzeppelin/contracts/token/ERC20/ERC20.sol\":6624:7049  if (to == address(0)) {... */\ntag_45:\n    /* \"@openzeppelin/contracts/token/ERC20/ERC20.sol\":7079:7081  to */\n  dup2\n    /* \"@openzeppelin/contracts/token/ERC20/ERC20.sol\":7064:7089  Transfer(from, to, value) */\n  0xffffffffffffffffffffffffffffffffffffffff\n  and\n    /* \"@openzeppelin/contracts/token/ERC20/ERC20.sol\":7073:7077  from */\n  dup4\n    /* \"@openzeppelin/contracts/token/ERC20/ERC20.sol\":7064:7089  Transfer(from, to, value) */\n  0xffffffffffffffffffffffffffffffffffffffff\n  and\n  0xddf252ad1be2c89b69c2b068fc378daa952ba7f163c4a11628f55a4df523b3ef\n    /* \"@openzeppelin/contracts/token/ERC20/ERC20.sol\":7083:7088  value */\n  dup4\n    /* \"@openzeppelin/contracts/token/ERC20/ERC20.sol\":7064:7089  Transfer(from, to, value) */\n  mload(0x40)\n  tag_46\n  swap2\n  swap1\n  tag_47\n  jump\t// in\ntag_46:\n  mload(0x40)\n  dup1\n  swap2\n  sub\n  swap1\n  log3\n    /* \"@openzeppelin/contracts/token/ERC20/ERC20.sol\":5989:7096  function _update(address from, address to, uint256 value) internal virtual {... */\n  pop\n  pop\n  pop\n  jump\t// out\n    /* \"#utility.yul\":7:82   */\ntag_48:\n    /* \"#utility.yul\":40:46   */\n  0x00\n    /* \"#utility.yul\":73:75   */\n  0x40\n    /* \"#utility.yul\":67:76   */\n  mload\n    /* \"#utility.yul\":57:76   */\n  swap1\n  pop\n    /* \"#utility.yul\":7:82   */\n  swap1\n  jump\t// out\n    /* \"#utility.yul\":88:205   */\ntag_49:\n    /* \"#utility.yul\":197:198   */\n  0x00\n    /* \"#utility.yul\":194:195   */\n  0x00\n    /* \"#utility.yul\":187:199   */\n  revert\n    /* \"#utility.yul\":211:328   */\ntag_50:\n    /* \"#utility.yul\":320:321   */\n  0x00\n    /* \"#utility.yul\":317:318   */\n  0x00\n    /* \"#utility.yul\":310:322   */\n  revert\n    /* \"#utility.yul\":334:451   */\ntag_51:\n    /* \"#utility.yul\":443:444   */\n  0x00\n    /* \"#utility.yul\":440:441   */\n  0x00\n    /* \"#utility.yul\":433:445   */\n  revert\n    /* \"#utility.yul\":457:559   */\ntag_52:\n    /* \"#utility.yul\":498:504   */\n  0x00\n    /* \"#utility.yul\":549:551   */\n  0x1f\n    /* \"#utility.yul\":545:552   */\n  not\n    /* \"#utility.yul\":540:542   */\n  0x1f\n    /* \"#utility.yul\":533:538   */\n  dup4\n    /* \"#utility.yul\":529:543   */\n  add\n    /* \"#utility.yul\":525:553   */\n  and\n    /* \"#utility.yul\":515:553   */\n  swap1\n  pop\n    /* \"#utility.yul\":457:559   */\n  swap2\n  swap1\n  pop\n  jump\t// out\n    /* \"#utility.yul\":565:745   */\ntag_53:\n    /* \"#utility.yul\":613:690   */\n  0x4e487b7100000000000000000000000000000000000000000000000000000000\n    /* \"#utility.yul\":610:611   */\n  0x00\n    /* \"#utility.yul\":603:691   */\n  mstore\n    /* \"#utility.yul\":710:714   */\n  0x41\n    /* \"#utility.yul\":707:708   */\n  0x04\n    /* \"#utility.yul\":700:715   */\n  mstore\n    /* \"#utility.yul\":734:738   */\n  0x24\n    /* \"#utility.yul\":731:732   */\n  0x00\n    /* \"#utility.yul\":724:739   */\n  revert\n    /* \"#utility.yul\":751:1032   */\ntag_54:\n    /* \"#utility.yul\":834:861   */\n  tag_97\n    /* \"#utility.yul\":856:860   */\n  dup3\n    /* \"#utility.yul\":834:861   */\n  tag_52\n  jump\t// in\ntag_97:\n    /* \"#utility.yul\":826:832   */\n  dup2\n    /* \"#utility.yul\":822:862   */\n  add\n    /* \"#utility.yul\":964:970   */\n  dup2\n    /* \"#utility.yul\":952:962   */\n  dup2\n    /* \"#utility.yul\":949:971   */\n  lt\n    /* \"#utility.yul\":928:946   */\n  0xffffffffffffffff\n    /* \"#utility.yul\":916:926   */\n  dup3\n    /* \"#utility.yul\":913:947   */\n  gt\n    /* \"#utility.yul\":910:972   */\n  or\n    /* \"#utility.yul\":907:995   */\n  iszero\n  tag_98\n  jumpi\n    /* \"#utility.yul\":975:993   */\n  tag_99\n  tag_53\n  jump\t// in\ntag_99:\n    /* \"#utility.yul\":907:995   */\ntag_98:\n    /* \"#utility.yul\":1015:1025   */\n  dup1\n    /* \"#utility.yul\":1011:1013   */\n  0x40\n    /* \"#utility.yul\":1004:1026   */\n  mstore\n    /* \"#utility.yul\":794:1032   */\n  pop\n    /* \"#utility.yul\":751:1032   */\n  pop\n  pop\n  jump\t// out\n    /* \"#utility.yul\":1038:1167   */\ntag_55:\n    /* \"#utility.yul\":1072:1078   */\n  0x00\n    /* \"#utility.yul\":1099:1119   */\n  tag_101\n  tag_48\n  jump\t// in\ntag_101:\n    /* \"#utility.yul\":1089:1119   */\n  swap1\n  pop\n    /* \"#utility.yul\":1128:1161   */\n  tag_102\n    /* \"#utility.yul\":1156:1160   */\n  dup3\n    /* \"#utility.yul\":1148:1154   */\n  dup3\n    /* \"#utility.yul\":1128:1161   */\n  tag_54\n  jump\t// in\ntag_102:\n    /* \"#utility.yul\":1038:1167   */\n  swap2\n  swap1\n  pop\n  jump\t// out\n    /* \"#utility.yul\":1173:1484   */\ntag_56:\n    /* \"#utility.yul\":1250:1254   */\n  0x00\n    /* \"#utility.yul\":1340:1358   */\n  0xffffffffffffffff\n    /* \"#utility.yul\":1332:1338   */\n  dup3\n    /* \"#utility.yul\":1329:1359   */\n  gt\n    /* \"#utility.yul\":1326:1382   */\n  iszero\n  tag_104\n  jumpi\n    /* \"#utility.yul\":1362:1380   */\n  tag_105\n  tag_53\n  jump\t// in\ntag_105:\n    /* \"#utility.yul\":1326:1382   */\ntag_104:\n    /* \"#utility.yul\":1412:1416   */\n  0x20\n    /* \"#utility.yul\":1404:1410   */\n  dup3\n    /* \"#utility.yul\":1400:1417   */\n  mul\n    /* \"#utility.yul\":1392:1417   */\n  swap1\n  pop\n    /* \"#utility.yul\":1472:1476   */\n  0x20\n    /* \"#utility.yul\":1466:1470   */\n  dup2\n    /* \"#utility.yul\":1462:1477   */\n  add\n    /* \"#utility.yul\":1454:1477   */\n  swap1\n  pop\n    /* \"#utility.yul\":1173:1484   */\n  swap2\n  swap1\n  pop\n  jump\t// out\n    /* \"#utility.yul\":1490:1607   */\ntag_57:\n    /* \"#utility.yul\":1599:1600   */\n  0x00\n    /* \"#utility.yul\":1596:1597   */\n  0x00\n    /* \"#utility.yul\":1589:1601   */\n  revert\n    /* \"#utility.yul\":1613:1739   */\ntag_58:\n    /* \"#utility.yul\":1650:1657   */\n  0x00\n    /* \"#utility.yul\":1690:1732   */\n  0xffffffffffffffffffffffffffffffffffffffff\n    /* \"#utility.yul\":1683:1688   */\n  dup3\n    /* \"#utility.yul\":1679:1733   */\n  and\n    /* \"#utility.yul\":1668:1733   */\n  swap1\n  pop\n    /* \"#utility.yul\":1613:1739   */\n  swap2\n  swap1\n  pop\n  jump\t// out\n    /* \"#utility.yul\":1745:1841   */\ntag_59:\n    /* \"#utility.yul\":1782:1789   */\n  0x00\n    /* \"#utility.yul\":1811:1835   */\n  tag_109\n    /* \"#utility.yul\":1829:1834   */\n  dup3\n    /* \"#utility.yul\":1811:1835   */\n  tag_58\n  jump\t// in\ntag_109:\n    /* \"#utility.yul\":1800:1835   */\n  swap1\n  pop\n    /* \"#utility.yul\":1745:1841   */\n  swap2\n  swap1\n  pop\n  jump\t// out\n    /* \"#utility.yul\":1847:1969   */\ntag_60:\n    /* \"#utility.yul\":1920:1944   */\n  tag_111\n    /* \"#utility.yul\":1938:1943   */\n  dup2\n    /* \"#utility.yul\":1920:1944   */\n  tag_59\n  jump\t// in\ntag_111:\n    /* \"#utility.yul\":1913:1918   */\n  dup2\n    /* \"#utility.yul\":1910:1945   */\n  eq\n    /* \"#utility.yul\":1900:1963   */\n  tag_112\n  jumpi\n    /* \"#utility.yul\":1959:1960   */\n  0x00\n    /* \"#utility.yul\":1956:1957   */\n  0x00\n    /* \"#utility.yul\":1949:1961   */\n  revert\n    /* \"#utility.yul\":1900:1963   */\ntag_112:\n    /* \"#utility.yul\":1847:1969   */\n  pop\n  jump\t// out\n    /* \"#utility.yul\":1975:2118   */\ntag_61:\n    /* \"#utility.yul\":2032:2037   */\n  0x00\n    /* \"#utility.yul\":2063:2069   */\n  dup2\n    /* \"#utility.yul\":2057:2070   */\n  mload\n    /* \"#utility.yul\":2048:2070   */\n  swap1\n  pop\n    /* \"#utility.yul\":2079:2112   */\n  tag_114\n    /* \"#utility.yul\":2106:2111   */\n  dup2\n    /* \"#utility.yul\":2079:2112   */\n  tag_60\n  jump\t// in\ntag_114:\n    /* \"#utility.yul\":1975:2118   */\n  swap3\n  swap2\n  pop\n  pop\n  jump\t// out\n    /* \"#utility.yul\":2141:2873   */\ntag_62:\n    /* \"#utility.yul\":2248:2253   */\n  0x00\n    /* \"#utility.yul\":2273:2354   */\n  tag_116\n    /* \"#utility.yul\":2289:2353   */\n  tag_117\n    /* \"#utility.yul\":2346:2352   */\n  dup5\n    /* \"#utility.yul\":2289:2353   */\n  tag_56\n  jump\t// in\ntag_117:\n    /* \"#utility.yul\":2273:2354   */\n  tag_55\n  jump\t// in\ntag_116:\n    /* \"#utility.yul\":2264:2354   */\n  swap1\n  pop\n    /* \"#utility.yul\":2374:2379   */\n  dup1\n    /* \"#utility.yul\":2403:2409   */\n  dup4\n    /* \"#utility.yul\":2396:2401   */\n  dup3\n    /* \"#utility.yul\":2389:2410   */\n  mstore\n    /* \"#utility.yul\":2437:2441   */\n  0x20\n    /* \"#utility.yul\":2430:2435   */\n  dup3\n    /* \"#utility.yul\":2426:2442   */\n  add\n    /* \"#utility.yul\":2419:2442   */\n  swap1\n  pop\n    /* \"#utility.yul\":2490:2494   */\n  0x20\n    /* \"#utility.yul\":2482:2488   */\n  dup5\n    /* \"#utility.yul\":2478:2495   */\n  mul\n    /* \"#utility.yul\":2470:2476   */\n  dup4\n    /* \"#utility.yul\":2466:2496   */\n  add\n    /* \"#utility.yul\":2519:2522   */\n  dup6\n    /* \"#utility.yul\":2511:2517   */\n  dup2\n    /* \"#utility.yul\":2508:2523   */\n  gt\n    /* \"#utility.yul\":2505:2627   */\n  iszero\n  tag_118\n  jumpi\n    /* \"#utility.yul\":2538:2617   */\n  tag_119\n  tag_57\n  jump\t// in\ntag_119:\n    /* \"#utility.yul\":2505:2627   */\ntag_118:\n    /* \"#utility.yul\":2653:2659   */\n  dup4\n    /* \"#utility.yul\":2636:2867   */\ntag_120:\n    /* \"#utility.yul\":2670:2676   */\n  dup2\n    /* \"#utility.yul\":2665:2668   */\n  dup2\n    /* \"#utility.yul\":2662:2677   */\n  lt\n    /* \"#utility.yul\":2636:2867   */\n  iszero\n  tag_122\n  jumpi\n    /* \"#utility.yul\":2745:2748   */\n  dup1\n    /* \"#utility.yul\":2774:2822   */\n  tag_123\n    /* \"#utility.yul\":2818:2821   */\n  dup9\n    /* \"#utility.yul\":2806:2816   */\n  dup3\n    /* \"#utility.yul\":2774:2822   */\n  tag_61\n  jump\t// in\ntag_123:\n    /* \"#utility.yul\":2769:2772   */\n  dup5\n    /* \"#utility.yul\":2762:2823   */\n  mstore\n    /* \"#utility.yul\":2852:2856   */\n  0x20\n    /* \"#utility.yul\":2847:2850   */\n  dup5\n    /* \"#utility.yul\":2843:2857   */\n  add\n    /* \"#utility.yul\":2836:2857   */\n  swap4\n  pop\n    /* \"#utility.yul\":2712:2867   */\n  pop\n    /* \"#utility.yul\":2696:2700   */\n  0x20\n    /* \"#utility.yul\":2691:2694   */\n  dup2\n    /* \"#utility.yul\":2687:2701   */\n  add\n    /* \"#utility.yul\":2680:2701   */\n  swap1\n  pop\n    /* \"#utility.yul\":2636:2867   */\n  jump(tag_120)\ntag_122:\n    /* \"#utility.yul\":2640:2661   */\n  pop\n    /* \"#utility.yul\":2254:2873   */\n  pop\n  pop\n    /* \"#utility.yul\":2141:2873   */\n  swap4\n  swap3\n  pop\n  pop\n  pop\n  jump\t// out\n    /* \"#utility.yul\":2896:3281   */\ntag_63:\n    /* \"#utility.yul\":2978:2983   */\n  0x00\n    /* \"#utility.yul\":3027:3030   */\n  dup3\n    /* \"#utility.yul\":3020:3024   */\n  0x1f\n    /* \"#utility.yul\":3012:3018   */\n  dup4\n    /* \"#utility.yul\":3008:3025   */\n  add\n    /* \"#utility.yul\":3004:3031   */\n  slt\n    /* \"#utility.yul\":2994:3116   */\n  tag_125\n  jumpi\n    /* \"#utility.yul\":3035:3114   */\n  tag_126\n  tag_51\n  jump\t// in\ntag_126:\n    /* \"#utility.yul\":2994:3116   */\ntag_125:\n    /* \"#utility.yul\":3145:3151   */\n  dup2\n    /* \"#utility.yul\":3139:3152   */\n  mload\n    /* \"#utility.yul\":3170:3275   */\n  tag_127\n    /* \"#utility.yul\":3271:3274   */\n  dup5\n    /* \"#utility.yul\":3263:3269   */\n  dup3\n    /* \"#utility.yul\":3256:3260   */\n  0x20\n    /* \"#utility.yul\":3248:3254   */\n  dup7\n    /* \"#utility.yul\":3244:3261   */\n  add\n    /* \"#utility.yul\":3170:3275   */\n  tag_62\n  jump\t// in\ntag_127:\n    /* \"#utility.yul\":3161:3275   */\n  swap2\n  pop\n    /* \"#utility.yul\":2984:3281   */\n  pop\n    /* \"#utility.yul\":2896:3281   */\n  swap3\n  swap2\n  pop\n  pop\n  jump\t// out\n    /* \"#utility.yul\":3287:3841   */\ntag_3:\n    /* \"#utility.yul\":3382:3388   */\n  0x00\n    /* \"#utility.yul\":3431:3433   */\n  0x20\n    /* \"#utility.yul\":3419:3428   */\n  dup3\n    /* \"#utility.yul\":3410:3417   */\n  dup5\n    /* \"#utility.yul\":3406:3429   */\n  sub\n    /* \"#utility.yul\":3402:3434   */\n  slt\n    /* \"#utility.yul\":3399:3518   */\n  iszero\n  tag_129\n  jumpi\n    /* \"#utility.yul\":3437:3516   */\n  tag_130\n  tag_49\n  jump\t// in\ntag_130:\n    /* \"#utility.yul\":3399:3518   */\ntag_129:\n    /* \"#utility.yul\":3578:3579   */\n  0x00\n    /* \"#utility.yul\":3567:3576   */\n  dup3\n    /* \"#utility.yul\":3563:3580   */\n  add\n    /* \"#utility.yul\":3557:3581   */\n  mload\n    /* \"#utility.yul\":3608:3626   */\n  0xffffffffffffffff\n    /* \"#utility.yul\":3600:3606   */\n  dup2\n    /* \"#utility.yul\":3597:3627   */\n  gt\n    /* \"#utility.yul\":3594:3711   */\n  iszero\n  tag_131\n  jumpi\n    /* \"#utility.yul\":3630:3709   */\n  tag_132\n  tag_50\n  jump\t// in\ntag_132:\n    /* \"#utility.yul\":3594:3711   */\ntag_131:\n    /* \"#utility.yul\":3735:3824   */\n  tag_133\n    /* \"#utility.yul\":3816:3823   */\n  dup5\n    /* \"#utility.yul\":3807:3813   */\n  dup3\n    /* \"#utility.yul\":3796:3805   */\n  dup6\n    /* \"#utility.yul\":3792:3814   */\n  add\n    /* \"#utility.yul\":3735:3824   */\n  tag_63\n  jump\t// in\ntag_133:\n    /* \"#utility.yul\":3725:3824   */\n  swap2\n  pop\n    /* \"#utility.yul\":3528:3834   */\n  pop\n    /* \"#utility.yul\":3287:3841   */\n  swap3\n  swap2\n  pop\n  pop\n  jump\t// out\n    /* \"#utility.yul\":3847:3946   */\ntag_64:\n    /* \"#utility.yul\":3899:3905   */\n  0x00\n    /* \"#utility.yul\":3933:3938   */\n  dup2\n    /* \"#utility.yul\":3927:3939   */\n  mload\n    /* \"#utility.yul\":3917:3939   */\n  swap1\n  pop\n    /* \"#utility.yul\":3847:3946   */\n  swap2\n  swap1\n  pop\n  jump\t// out\n    /* \"#utility.yul\":3952:4132   */\ntag_65:\n    /* \"#utility.yul\":4000:4077   */\n  0x4e487b7100000000000000000000000000000000000000000000000000000000\n    /* \"#utility.yul\":3997:3998   */\n  0x00\n    /* \"#utility.yul\":3990:4078   */\n  mstore\n    /* \"#utility.yul\":4097:4101   */\n  0x22\n    /* \"#utility.yul\":4094:4095   */\n  0x04\n    /* \"#utility.yul\":4087:4102   */\n  mstore\n    /* \"#utility.yul\":4121:4125   */\n  0x24\n    /* \"#utility.yul\":4118:4119   */\n  0x00\n    /* \"#utility.yul\":4111:4126   */\n  revert\n    /* \"#utility.yul\":4138:4458   */\ntag_66:\n    /* \"#utility.yul\":4182:4188   */\n  0x00\n    /* \"#utility.yul\":4219:4220   */\n  0x02\n    /* \"#utility.yul\":4213:4217   */\n  dup3\n    /* \"#utility.yul\":4209:4221   */\n  div\n    /* \"#utility.yul\":4199:4221   */\n  swap1\n  pop\n    /* \"#utility.yul\":4266:4267   */\n  0x01\n    /* \"#utility.yul\":4260:4264   */\n  dup3\n    /* \"#utility.yul\":4256:4268   */\n  and\n    /* \"#utility.yul\":4287:4305   */\n  dup1\n    /* \"#utility.yul\":4277:4358   */\n  tag_137\n  jumpi\n    /* \"#utility.yul\":4343:4347   */\n  0x7f\n    /* \"#utility.yul\":4335:4341   */\n  dup3\n    /* \"#utility.yul\":4331:4348   */\n  and\n    /* \"#utility.yul\":4321:4348   */\n  swap2\n  pop\n    /* \"#utility.yul\":4277:4358   */\ntag_137:\n    /* \"#utility.yul\":4405:4407   */\n  0x20\n    /* \"#utility.yul\":4397:4403   */\n  dup3\n    /* \"#utility.yul\":4394:4408   */\n  lt\n    /* \"#utility.yul\":4374:4392   */\n  dup2\n    /* \"#utility.yul\":4371:4409   */\n  sub\n    /* \"#utility.yul\":4368:4452   */\n  tag_138\n  jumpi\n    /* \"#utility.yul\":4424:4442   */\n  tag_139\n  tag_65\n  jump\t// in\ntag_139:\n    /* \"#utility.yul\":4368:4452   */\ntag_138:\n    /* \"#utility.yul\":4189:4458   */\n  pop\n    /* \"#utility.yul\":4138:4458   */\n  swap2\n  swap1\n  pop\n  jump\t// out\n    /* \"#utility.yul\":4464:4605   */\ntag_67:\n    /* \"#utility.yul\":4513:4517   */\n  0x00\n    /* \"#utility.yul\":4536:4539   */\n  dup2\n    /* \"#utility.yul\":4528:4539   */\n  swap1\n  pop\n    /* \"#utility.yul\":4559:4562   */\n  dup2\n    /* \"#utility.yul\":4556:4557   */\n  0x00\n    /* \"#utility.yul\":4549:4563   */\n  mstore\n    /* \"#utility.yul\":4593:4597   */\n  0x20\n    /* \"#utility.yul\":4590:4591   */\n  0x00\n    /* \"#utility.yul\":4580:4598   */\n  keccak256\n    /* \"#utility.yul\":4572:4598   */\n  swap1\n  pop\n    /* \"#utility.yul\":4464:4605   */\n  swap2\n  swap1\n  pop\n  jump\t// out\n    /* \"#utility.yul\":4611:4704   */\ntag_68:\n    /* \"#utility.yul\":4648:4654   */\n  0x00\n    /* \"#utility.yul\":4695:4697   */\n  0x20\n    /* \"#utility.yul\":4690:4692   */\n  0x1f\n    /* \"#utility.yul\":4683:4688   */\n  dup4\n    /* \"#utility.yul\":4679:4693   */\n  add\n    /* \"#utility.yul\":4675:4698   */\n  div\n    /* \"#utility.yul\":4665:4698   */\n  swap1\n  pop\n    /* \"#utility.yul\":4611:4704   */\n  swap2\n  swap1\n  pop\n  jump\t// out\n    /* \"#utility.yul\":4710:4817   */\ntag_69:\n    /* \"#utility.yul\":4754:4762   */\n  0x00\n    /* \"#utility.yul\":4804:4809   */\n  dup3\n    /* \"#utility.yul\":4798:4802   */\n  dup3\n    /* \"#utility.yul\":4794:4810   */\n  shl\n    /* \"#utility.yul\":4773:4810   */\n  swap1\n  pop\n    /* \"#utility.yul\":4710:4817   */\n  swap3\n  swap2\n  pop\n  pop\n  jump\t// out\n    /* \"#utility.yul\":4823:5216   */\ntag_70:\n    /* \"#utility.yul\":4892:4898   */\n  0x00\n    /* \"#utility.yul\":4942:4943   */\n  0x08\n    /* \"#utility.yul\":4930:4940   */\n  dup4\n    /* \"#utility.yul\":4926:4944   */\n  mul\n    /* \"#utility.yul\":4965:5062   */\n  tag_144\n    /* \"#utility.yul\":4995:5061   */\n  0xffffffffffffffffffffffffffffffffffffffffffffffffffffffffffffffff\n    /* \"#utility.yul\":4984:4993   */\n  dup3\n    /* \"#utility.yul\":4965:5062   */\n  tag_69\n  jump\t// in\ntag_144:\n    /* \"#utility.yul\":5083:5122   */\n  tag_145\n    /* \"#utility.yul\":5113:5121   */\n  dup7\n    /* \"#utility.yul\":5102:5111   */\n  dup4\n    /* \"#utility.yul\":5083:5122   */\n  tag_69\n  jump\t// in\ntag_145:\n    /* \"#utility.yul\":5071:5122   */\n  swap6\n  pop\n    /* \"#utility.yul\":5155:5159   */\n  dup1\n    /* \"#utility.yul\":5151:5160   */\n  not\n    /* \"#utility.yul\":5144:5149   */\n  dup5\n    /* \"#utility.yul\":5140:5161   */\n  and\n    /* \"#utility.yul\":5131:5161   */\n  swap4\n  pop\n    /* \"#utility.yul\":5204:5208   */\n  dup1\n    /* \"#utility.yul\":5194:5202   */\n  dup7\n    /* \"#utility.yul\":5190:5209   */\n  and\n    /* \"#utility.yul\":5183:5188   */\n  dup5\n    /* \"#utility.yul\":5180:5210   */\n  or\n    /* \"#utility.yul\":5170:5210   */\n  swap3\n  pop\n    /* \"#utility.yul\":4899:5216   */\n  pop\n  pop\n    /* \"#utility.yul\":4823:5216   */\n  swap4\n  swap3\n  pop\n  pop\n  pop\n  jump\t// out\n    /* \"#utility.yul\":5222:5299   */\ntag_71:\n    /* \"#utility.yul\":5259:5266   */\n  0x00\n    /* \"#utility.yul\":5288:5293   */\n  dup2\n    /* \"#utility.yul\":5277:5293   */\n  swap1\n  pop\n    /* \"#utility.yul\":5222:5299   */\n  swap2\n  swap1\n  pop\n  jump\t// out\n    /* \"#utility.yul\":5305:5365   */\ntag_72:\n    /* \"#utility.yul\":5333:5336   */\n  0x00\n    /* \"#utility.yul\":5354:5359   */\n  dup2\n    /* \"#utility.yul\":5347:5359   */\n  swap1\n  pop\n    /* \"#utility.yul\":5305:5365   */\n  swap2\n  swap1\n  pop\n  jump\t// out\n    /* \"#utility.yul\":5371:5513   */\ntag_73:\n    /* \"#utility.yul\":5421:5430   */\n  0x00\n    /* \"#utility.yul\":5454:5507   */\n  tag_149\n    /* \"#utility.yul\":5472:5506   */\n  tag_150\n    /* \"#utility.yul\":5481:5505   */\n  tag_151\n    /* \"#utility.yul\":5499:5504   */\n  dup5\n    /* \"#utility.yul\":5481:5505   */\n  tag_71\n  jump\t// in\ntag_151:\n    /* \"#utility.yul\":5472:5506   */\n  tag_72\n  jump\t// in\ntag_150:\n    /* \"#utility.yul\":5454:5507   */\n  tag_71\n  jump\t// in\ntag_149:\n    /* \"#utility.yul\":5441:5507   */\n  swap1\n  pop\n    /* \"#utility.yul\":5371:5513   */\n  swap2\n  swap1\n  pop\n  jump\t// out\n    /* \"#utility.yul\":5519:5594   */\ntag_74:\n    /* \"#utility.yul\":5562:5565   */\n  0x00\n    /* \"#utility.yul\":5583:5588   */\n  dup2\n    /* \"#utility.yul\":5576:5588   */\n  swap1\n  pop\n    /* \"#utility.yul\":5519:5594   */\n  swap2\n  swap1\n  pop\n  jump\t// out\n    /* \"#utility.yul\":5600:5869   */\ntag_75:\n    /* \"#utility.yul\":5710:5749   */\n  tag_154\n    /* \"#utility.yul\":5741:5748   */\n  dup4\n    /* \"#utility.yul\":5710:5749   */\n  tag_73\n  jump\t// in\ntag_154:\n    /* \"#utility.yul\":5771:5862   */\n  tag_155\n    /* \"#utility.yul\":5820:5861   */\n  tag_156\n    /* \"#utility.yul\":5844:5860   */\n  dup3\n    /* \"#utility.yul\":5820:5861   */\n  tag_74\n  jump\t// in\ntag_156:\n    /* \"#utility.yul\":5812:5818   */\n  dup5\n    /* \"#utility.yul\":5805:5809   */\n  dup5\n    /* \"#utility.yul\":5799:5810   */\n  sload\n    /* \"#utility.yul\":5771:5862   */\n  tag_70\n  jump\t// in\ntag_155:\n    /* \"#utility.yul\":5765:5769   */\n  dup3\n    /* \"#utility.yul\":5758:5863   */\n  sstore\n    /* \"#utility.yul\":5676:5869   */\n  pop\n    /* \"#utility.yul\":5600:5869   */\n  pop\n  pop\n  pop\n  jump\t// out\n    /* \"#utility.yul\":5875:5948   */\ntag_76:\n    /* \"#utility.yul\":5920:5923   */\n  0x00\n    /* \"#utility.yul\":5941:5942   */\n  0x00\n    /* \"#utility.yul\":5934:5942   */\n  swap1\n  pop\n    /* \"#utility.yul\":5875:5948   */\n  swap1\n  jump\t// out\n    /* \"#utility.yul\":5954:6143   */\ntag_77:\n    /* \"#utility.yul\":6031:6063   */\n  tag_159\n  tag_76\n  jump\t// in\ntag_159:\n    /* \"#utility.yul\":6072:6137   */\n  tag_160\n    /* \"#utility.yul\":6130:6136   */\n  dup2\n    /* \"#utility.yul\":6122:6128   */\n  dup5\n    /* \"#utility.yul\":6116:6120   */\n  dup5\n    /* \"#utility.yul\":6072:6137   */\n  tag_75\n  jump\t// in\ntag_160:\n    /* \"#utility.yul\":6007:6143   */\n  pop\n    /* \"#utility.yul\":5954:6143   */\n  pop\n  pop\n  jump\t// out\n    /* \"#utility.yul\":6149:6335   */\ntag_78:\n    /* \"#utility.yul\":6209:6329   */\ntag_162:\n    /* \"#utility.yul\":6226:6229   */\n  dup2\n    /* \"#utility.yul\":6219:6224   */\n  dup2\n    /* \"#utility.yul\":6216:6230   */\n  lt\n    /* \"#utility.yul\":6209:6329   */\n  iszero\n  tag_164\n  jumpi\n    /* \"#utility.yul\":6280:6319   */\n  tag_165\n    /* \"#utility.yul\":6317:6318   */\n  0x00\n    /* \"#utility.yul\":6310:6315   */\n  dup3\n    /* \"#utility.yul\":6280:6319   */\n  tag_77\n  jump\t// in\ntag_165:\n    /* \"#utility.yul\":6253:6254   */\n  0x01\n    /* \"#utility.yul\":6246:6251   */\n  dup2\n    /* \"#utility.yul\":6242:6255   */\n  add\n    /* \"#utility.yul\":6233:6255   */\n  swap1\n  pop\n    /* \"#utility.yul\":6209:6329   */\n  jump(tag_162)\ntag_164:\n    /* \"#utility.yul\":6149:6335   */\n  pop\n  pop\n  jump\t// out\n    /* \"#utility.yul\":6341:6884   */\ntag_79:\n    /* \"#utility.yul\":6442:6444   */\n  0x1f\n    /* \"#utility.yul\":6437:6440   */\n  dup3\n    /* \"#utility.yul\":6434:6445   */\n  gt\n    /* \"#utility.yul\":6431:6877   */\n  iszero\n  tag_167\n  jumpi\n    /* \"#utility.yul\":6476:6514   */\n  tag_168\n    /* \"#utility.yul\":6508:6513   */\n  dup2\n    /* \"#utility.yul\":6476:6514   */\n  tag_67\n  jump\t// in\ntag_168:\n    /* \"#utility.yul\":6560:6589   */\n  tag_169\n    /* \"#utility.yul\":6578:6588   */\n  dup5\n    /* \"#utility.yul\":6560:6589   */\n  tag_68\n  jump\t// in\ntag_169:\n    /* \"#utility.yul\":6550:6558   */\n  dup2\n    /* \"#utility.yul\":6546:6590   */\n  add\n    /* \"#utility.yul\":6743:6745   */\n  0x20\n    /* \"#utility.yul\":6731:6741   */\n  dup6\n    /* \"#utility.yul\":6728:6746   */\n  lt\n    /* \"#utility.yul\":6725:6774   */\n  iszero\n  tag_170\n  jumpi\n    /* \"#utility.yul\":6764:6772   */\n  dup2\n    /* \"#utility.yul\":6749:6772   */\n  swap1\n  pop\n    /* \"#utility.yul\":6725:6774   */\ntag_170:\n    /* \"#utility.yul\":6787:6867   */\n  tag_171\n    /* \"#utility.yul\":6843:6865   */\n  tag_172\n    /* \"#utility.yul\":6861:6864   */\n  dup6\n    /* \"#utility.yul\":6843:6865   */\n  tag_68\n  jump\t// in\ntag_172:\n    /* \"#utility.yul\":6833:6841   */\n  dup4\n    /* \"#utility.yul\":6829:6866   */\n  add\n    /* \"#utility.yul\":6816:6827   */\n  dup3\n    /* \"#utility.yul\":6787:6867   */\n  tag_78\n  jump\t// in\ntag_171:\n    /* \"#utility.yul\":6446:6877   */\n  pop\n  pop\n    /* \"#utility.yul\":6431:6877   */\ntag_167:\n    /* \"#utility.yul\":6341:6884   */\n  pop\n  pop\n  pop\n  jump\t// out\n    /* \"#utility.yul\":6890:7007   */\ntag_80:\n    /* \"#utility.yul\":6944:6952   */\n  0x00\n    /* \"#utility.yul\":6994:6999   */\n  dup3\n    /* \"#utility.yul\":6988:6992   */\n  dup3\n    /* \"#utility.yul\":6984:7000   */\n  shr\n    /* \"#utility.yul\":6963:7000   */\n  swap1\n  pop\n    /* \"#utility.yul\":6890:7007   */\n  swap3\n  swap2\n  pop\n  pop\n  jump\t// out\n    /* \"#utility.yul\":7013:7182   */\ntag_81:\n    /* \"#utility.yul\":7057:7063   */\n  0x00\n    /* \"#utility.yul\":7090:7141   */\n  tag_175\n    /* \"#utility.yul\":7138:7139   */\n  0x00\n    /* \"#utility.yul\":7134:7140   */\n  not\n    /* \"#utility.yul\":7126:7131   */\n  dup5\n    /* \"#utility.yul\":7123:7124   */\n  0x08\n    /* \"#utility.yul\":7119:7132   */\n  mul\n    /* \"#utility.yul\":7090:7141   */\n  tag_80\n  jump\t// in\ntag_175:\n    /* \"#utility.yul\":7086:7142   */\n  not\n    /* \"#utility.yul\":7171:7175   */\n  dup1\n    /* \"#utility.yul\":7165:7169   */\n  dup4\n    /* \"#utility.yul\":7161:7176   */\n  and\n    /* \"#utility.yul\":7151:7176   */\n  swap2\n  pop\n    /* \"#utility.yul\":7064:7182   */\n  pop\n    /* \"#utility.yul\":7013:7182   */\n  swap3\n  swap2\n  pop\n  pop\n  jump\t// out\n    /* \"#utility.yul\":7187:7482   */\ntag_82:\n    /* \"#utility.yul\":7263:7267   */\n  0x00\n    /* \"#utility.yul\":7409:7438   */\n  tag_177\n    /* \"#utility.yul\":7434:7437   */\n  dup4\n    /* \"#utility.yul\":7428:7432   */\n  dup4\n    /* \"#utility.yul\":7409:7438   */\n  tag_81\n  jump\t// in\ntag_177:\n    /* \"#utility.yul\":7401:7438   */\n  swap2\n  pop\n    /* \"#utility.yul\":7471:7474   */\n  dup3\n    /* \"#utility.yul\":7468:7469   */\n  0x02\n    /* \"#utility.yul\":7464:7475   */\n  mul\n    /* \"#utility.yul\":7458:7462   */\n  dup3\n    /* \"#utility.yul\":7455:7476   */\n  or\n    /* \"#utility.yul\":7447:7476   */\n  swap1\n  pop\n    /* \"#utility.yul\":7187:7482   */\n  swap3\n  swap2\n  pop\n  pop\n  jump\t// out\n    /* \"#utility.yul\":7487:8882   */\ntag_9:\n    /* \"#utility.yul\":7604:7641   */\n  tag_179\n    /* \"#utility.yul\":7637:7640   */\n  dup3\n    /* \"#utility.yul\":7604:7641   */\n  tag_64\n  jump\t// in\ntag_179:\n    /* \"#utility.yul\":7706:7724   */\n  0xffffffffffffffff\n    /* \"#utility.yul\":7698:7704   */\n  dup2\n    /* \"#utility.yul\":7695:7725   */\n  gt\n    /* \"#utility.yul\":7692:7748   */\n  iszero\n  tag_180\n  jumpi\n    /* \"#utility.yul\":7728:7746   */\n  tag_181\n  tag_53\n  jump\t// in\ntag_181:\n    /* \"#utility.yul\":7692:7748   */\ntag_180:\n    /* \"#utility.yul\":7772:7810   */\n  tag_182\n    /* \"#utility.yul\":7804:7808   */\n  dup3\n    /* \"#utility.yul\":7798:7809   */\n  sload\n    /* \"#utility.yul\":7772:7810   */\n  tag_66\n  jump\t// in\ntag_182:\n    /* \"#utility.yul\":7857:7924   */\n  tag_183\n    /* \"#utility.yul\":7917:7923   */\n  dup3\n    /* \"#utility.yul\":7909:7915   */\n  dup3\n    /* \"#utility.yul\":7903:7907   */\n  dup6\n    /* \"#utility.yul\":7857:7924   */\n  tag_79\n  jump\t// in\ntag_183:\n    /* \"#utility.yul\":7951:7952   */\n  0x00\n    /* \"#utility.yul\":7975:7979   */\n  0x20\n    /* \"#utility.yul\":7962:7979   */\n  swap1\n  pop\n    /* \"#utility.yul\":8007:8009   */\n  0x1f\n    /* \"#utility.yul\":7999:8005   */\n  dup4\n    /* \"#utility.yul\":7996:8010   */\n  gt\n    /* \"#utility.yul\":8024:8025   */\n  0x01\n    /* \"#utility.yul\":8019:8637   */\n  dup2\n  eq\n  tag_185\n  jumpi\n    /* \"#utility.yul\":8681:8682   */\n  0x00\n    /* \"#utility.yul\":8698:8704   */\n  dup5\n    /* \"#utility.yul\":8695:8772   */\n  iszero\n  tag_186\n  jumpi\n    /* \"#utility.yul\":8747:8756   */\n  dup3\n    /* \"#utility.yul\":8742:8745   */\n  dup8\n    /* \"#utility.yul\":8738:8757   */\n  add\n    /* \"#utility.yul\":8732:8758   */\n  mload\n    /* \"#utility.yul\":8723:8758   */\n  swap1\n  pop\n    /* \"#utility.yul\":8695:8772   */\ntag_186:\n    /* \"#utility.yul\":8798:8865   */\n  tag_187\n    /* \"#utility.yul\":8858:8864   */\n  dup6\n    /* \"#utility.yul\":8851:8856   */\n  dup3\n    /* \"#utility.yul\":8798:8865   */\n  tag_82\n  jump\t// in\ntag_187:\n    /* \"#utility.yul\":8792:8796   */\n  dup7\n    /* \"#utility.yul\":8785:8866   */\n  sstore\n    /* \"#utility.yul\":8654:8876   */\n  pop\n    /* \"#utility.yul\":7989:8876   */\n  jump(tag_184)\n    /* \"#utility.yul\":8019:8637   */\ntag_185:\n    /* \"#utility.yul\":8071:8075   */\n  0x1f\n    /* \"#utility.yul\":8067:8076   */\n  not\n    /* \"#utility.yul\":8059:8065   */\n  dup5\n    /* \"#utility.yul\":8055:8077   */\n  and\n    /* \"#utility.yul\":8105:8142   */\n  tag_188\n    /* \"#utility.yul\":8137:8141   */\n  dup7\n    /* \"#utility.yul\":8105:8142   */\n  tag_67\n  jump\t// in\ntag_188:\n    /* \"#utility.yul\":8164:8165   */\n  0x00\n    /* \"#utility.yul\":8178:8386   */\ntag_189:\n    /* \"#utility.yul\":8192:8199   */\n  dup3\n    /* \"#utility.yul\":8189:8190   */\n  dup2\n    /* \"#utility.yul\":8186:8200   */\n  lt\n    /* \"#utility.yul\":8178:8386   */\n  iszero\n  tag_191\n  jumpi\n    /* \"#utility.yul\":8271:8280   */\n  dup5\n    /* \"#utility.yul\":8266:8269   */\n  dup10\n    /* \"#utility.yul\":8262:8281   */\n  add\n    /* \"#utility.yul\":8256:8282   */\n  mload\n    /* \"#utility.yul\":8248:8254   */\n  dup3\n    /* \"#utility.yul\":8241:8283   */\n  sstore\n    /* \"#utility.yul\":8322:8323   */\n  0x01\n    /* \"#utility.yul\":8314:8320   */\n  dup3\n    /* \"#utility.yul\":8310:8324   */\n  add\n    /* \"#utility.yul\":8300:8324   */\n  swap2\n  pop\n    /* \"#utility.yul\":8369:8371   */\n  0x20\n    /* \"#utility.yul\":8358:8367   */\n  dup6\n    /* \"#utility.yul\":8354:8372   */\n  add\n    /* \"#utility.yul\":8341:8372   */\n  swap5\n  pop\n    /* \"#utility.yul\":8215:8219   */\n  0x20\n    /* \"#utility.yul\":8212:8213   */\n  dup2\n    /* \"#utility.yul\":8208:8220   */\n  add\n    /* \"#utility.yul\":8203:8220   */\n  swap1\n  pop\n    /* \"#utility.yul\":8178:8386   */\n  jump(tag_189)\ntag_191:\n    /* \"#utility.yul\":8414:8420   */\n  dup7\n    /* \"#utility.yul\":8405:8412   */\n  dup4\n    /* \"#utility.yul\":8402:8421   */\n  lt\n    /* \"#utility.yul\":8399:8578   */\n  iszero\n  tag_192\n  jumpi\n    /* \"#utility.yul\":8472:8481   */\n  dup5\n    /* \"#utility.yul\":8467:8470   */\n  dup10\n    /* \"#utility.yul\":8463:8482   */\n  add\n    /* \"#utility.yul\":8457:8483   */\n  mload\n    /* \"#utility.yul\":8515:8563   */\n  tag_193\n    /* \"#utility.yul\":8557:8561   */\n  0x1f\n    /* \"#utility.yul\":8549:8555   */\n  dup10\n    /* \"#utility.yul\":8545:8562   */\n  and\n    /* \"#utility.yul\":8534:8543   */\n  dup3\n    /* \"#utility.yul\":8515:8563   */\n  tag_81\n  jump\t// in\ntag_193:\n    /* \"#utility.yul\":8507:8513   */\n  dup4\n    /* \"#utility.yul\":8500:8564   */\n  sstore\n    /* \"#utility.yul\":8422:8578   */\n  pop\n    /* \"#utility.yul\":8399:8578   */\ntag_192:\n    /* \"#utility.yul\":8624:8625   */\n  0x01\n    /* \"#utility.yul\":8620:8621   */\n  0x02\n    /* \"#utility.yul\":8612:8618   */\n  dup9\n    /* \"#utility.yul\":8608:8622   */\n  mul\n    /* \"#utility.yul\":8604:8626   */\n  add\n    /* \"#utility.yul\":8598:8602   */\n  dup9\n    /* \"#utility.yul\":8591:8627   */\n  sstore\n    /* \"#utility.yul\":8026:8637   */\n  pop\n  pop\n  pop\n    /* \"#utility.yul\":7989:8876   */\ntag_184:\n  pop\n    /* \"#utility.yul\":7579:8882   */\n  pop\n  pop\n  pop\n    /* \"#utility.yul\":7487:8882   */\n  pop\n  pop\n  jump\t// out\n    /* \"#utility.yul\":8888:9006   */\ntag_83:\n    /* \"#utility.yul\":8975:8999   */\n  tag_195\n    /* \"#utility.yul\":8993:8998   */\n  dup2\n    /* \"#utility.yul\":8975:8999   */\n  tag_59\n  jump\t// in\ntag_195:\n    /* \"#utility.yul\":8970:8973   */\n  dup3\n    /* \"#utility.yul\":8963:9000   */\n  mstore\n    /* \"#utility.yul\":8888:9006   */\n  pop\n  pop\n  jump\t// out\n    /* \"#utility.yul\":9012:9234   */\ntag_14:\n    /* \"#utility.yul\":9105:9109   */\n  0x00\n    /* \"#utility.yul\":9143:9145   */\n  0x20\n    /* \"#utility.yul\":9132:9141   */\n  dup3\n    /* \"#utility.yul\":9128:9146   */\n  add\n    /* \"#utility.yul\":9120:9146   */\n  swap1\n  pop\n    /* \"#utility.yul\":9156:9227   */\n  tag_197\n    /* \"#utility.yul\":9224:9225   */\n  0x00\n    /* \"#utility.yul\":9213:9222   */\n  dup4\n    /* \"#utility.yul\":9209:9226   */\n  add\n    /* \"#utility.yul\":9200:9206   */\n  dup5\n    /* \"#utility.yul\":9156:9227   */\n  tag_83\n  jump\t// in\ntag_197:\n    /* \"#utility.yul\":9012:9234   */\n  swap3\n  swap2\n  pop\n  pop\n  jump\t// out\n    /* \"#utility.yul\":9240:9409   */\ntag_84:\n    /* \"#utility.yul\":9324:9335   */\n  0x00\n    /* \"#utility.yul\":9358:9364   */\n  dup3\n    /* \"#utility.yul\":9353:9356   */\n  dup3\n    /* \"#utility.yul\":9346:9365   */\n  mstore\n    /* \"#utility.yul\":9398:9402   */\n  0x20\n    /* \"#utility.yul\":9393:9396   */\n  dup3\n    /* \"#utility.yul\":9389:9403   */\n  add\n    /* \"#utility.yul\":9374:9403   */\n  swap1\n  pop\n    /* \"#utility.yul\":9240:9409   */\n  swap3\n  swap2\n  pop\n  pop\n  jump\t// out\n    /* \"#utility.yul\":9415:9643   */\ntag_85:\n    /* \"#utility.yul\":9555:9589   */\n  0x4174206c65617374206f6e652077686974656c69737465642061646472657373\n    /* \"#utility.yul\":9551:9552   */\n  0x00\n    /* \"#utility.yul\":9543:9549   */\n  dup3\n    /* \"#utility.yul\":9539:9553   */\n  add\n    /* \"#utility.yul\":9532:9590   */\n  mstore\n    /* \"#utility.yul\":9624:9635   */\n  0x2072657175697265640000000000000000000000000000000000000000000000\n    /* \"#utility.yul\":9619:9621   */\n  0x20\n    /* \"#utility.yul\":9611:9617   */\n  dup3\n    /* \"#utility.yul\":9607:9622   */\n  add\n    /* \"#utility.yul\":9600:9636   */\n  mstore\n    /* \"#utility.yul\":9415:9643   */\n  pop\n  jump\t// out\n    /* \"#utility.yul\":9649:10015   */\ntag_86:\n    /* \"#utility.yul\":9791:9794   */\n  0x00\n    /* \"#utility.yul\":9812:9879   */\n  tag_201\n    /* \"#utility.yul\":9876:9878   */\n  0x29\n    /* \"#utility.yul\":9871:9874   */\n  dup4\n    /* \"#utility.yul\":9812:9879   */\n  tag_84\n  jump\t// in\ntag_201:\n    /* \"#utility.yul\":9805:9879   */\n  swap2\n  pop\n    /* \"#utility.yul\":9888:9981   */\n  tag_202\n    /* \"#utility.yul\":9977:9980   */\n  dup3\n    /* \"#utility.yul\":9888:9981   */\n  tag_85\n  jump\t// in\ntag_202:\n    /* \"#utility.yul\":10006:10008   */\n  0x40\n    /* \"#utility.yul\":10001:10004   */\n  dup3\n    /* \"#utility.yul\":9997:10009   */\n  add\n    /* \"#utility.yul\":9990:10009   */\n  swap1\n  pop\n    /* \"#utility.yul\":9649:10015   */\n  swap2\n  swap1\n  pop\n  jump\t// out\n    /* \"#utility.yul\":10021:10440   */\ntag_20:\n    /* \"#utility.yul\":10187:10191   */\n  0x00\n    /* \"#utility.yul\":10225:10227   */\n  0x20\n    /* \"#utility.yul\":10214:10223   */\n  dup3\n    /* \"#utility.yul\":10210:10228   */\n  add\n    /* \"#utility.yul\":10202:10228   */\n  swap1\n  pop\n    /* \"#utility.yul\":10274:10283   */\n  dup2\n    /* \"#utility.yul\":10268:10272   */\n  dup2\n    /* \"#utility.yul\":10264:10284   */\n  sub\n    /* \"#utility.yul\":10260:10261   */\n  0x00\n    /* \"#utility.yul\":10249:10258   */\n  dup4\n    /* \"#utility.yul\":10245:10262   */\n  add\n    /* \"#utility.yul\":10238:10285   */\n  mstore\n    /* \"#utility.yul\":10302:10433   */\n  tag_204\n    /* \"#utility.yul\":10428:10432   */\n  dup2\n    /* \"#utility.yul\":10302:10433   */\n  tag_86\n  jump\t// in\ntag_204:\n    /* \"#utility.yul\":10294:10433   */\n  swap1\n  pop\n    /* \"#utility.yul\":10021:10440   */\n  swap2\n  swap1\n  pop\n  jump\t// out\n    /* \"#utility.yul\":10446:10626   */\ntag_26:\n    /* \"#utility.yul\":10494:10571   */\n  0x4e487b7100000000000000000000000000000000000000000000000000000000\n    /* \"#utility.yul\":10491:10492   */\n  0x00\n    /* \"#utility.yul\":10484:10572   */\n  mstore\n    /* \"#utility.yul\":10591:10595   */\n  0x32\n    /* \"#utility.yul\":10588:10589   */\n  0x04\n    /* \"#utility.yul\":10581:10596   */\n  mstore\n    /* \"#utility.yul\":10615:10619   */\n  0x24\n    /* \"#utility.yul\":10612:10613   */\n  0x00\n    /* \"#utility.yul\":10605:10620   */\n  revert\n    /* \"#utility.yul\":10632:10812   */\ntag_87:\n    /* \"#utility.yul\":10680:10757   */\n  0x4e487b7100000000000000000000000000000000000000000000000000000000\n    /* \"#utility.yul\":10677:10678   */\n  0x00\n    /* \"#utility.yul\":10670:10758   */\n  mstore\n    /* \"#utility.yul\":10777:10781   */\n  0x11\n    /* \"#utility.yul\":10774:10775   */\n  0x04\n    /* \"#utility.yul\":10767:10782   */\n  mstore\n    /* \"#utility.yul\":10801:10805   */\n  0x24\n    /* \"#utility.yul\":10798:10799   */\n  0x00\n    /* \"#utility.yul\":10791:10806   */\n  revert\n    /* \"#utility.yul\":10818:11009   */\ntag_39:\n    /* \"#utility.yul\":10858:10861   */\n  0x00\n    /* \"#utility.yul\":10877:10897   */\n  tag_208\n    /* \"#utility.yul\":10895:10896   */\n  dup3\n    /* \"#utility.yul\":10877:10897   */\n  tag_71\n  jump\t// in\ntag_208:\n    /* \"#utility.yul\":10872:10897   */\n  swap2\n  pop\n    /* \"#utility.yul\":10911:10931   */\n  tag_209\n    /* \"#utility.yul\":10929:10930   */\n  dup4\n    /* \"#utility.yul\":10911:10931   */\n  tag_71\n  jump\t// in\ntag_209:\n    /* \"#utility.yul\":10906:10931   */\n  swap3\n  pop\n    /* \"#utility.yul\":10954:10955   */\n  dup3\n    /* \"#utility.yul\":10951:10952   */\n  dup3\n    /* \"#utility.yul\":10947:10956   */\n  add\n    /* \"#utility.yul\":10940:10956   */\n  swap1\n  pop\n    /* \"#utility.yul\":10975:10978   */\n  dup1\n    /* \"#utility.yul\":10972:10973   */\n  dup3\n    /* \"#utility.yul\":10969:10979   */\n  gt\n    /* \"#utility.yul\":10966:11002   */\n  iszero\n  tag_210\n  jumpi\n    /* \"#utility.yul\":10982:11000   */\n  tag_211\n  tag_87\n  jump\t// in\ntag_211:\n    /* \"#utility.yul\":10966:11002   */\ntag_210:\n    /* \"#utility.yul\":10818:11009   */\n  swap3\n  swap2\n  pop\n  pop\n  jump\t// out\n    /* \"#utility.yul\":11015:11133   */\ntag_88:\n    /* \"#utility.yul\":11102:11126   */\n  tag_213\n    /* \"#utility.yul\":11120:11125   */\n  dup2\n    /* \"#utility.yul\":11102:11126   */\n  tag_71\n  jump\t// in\ntag_213:\n    /* \"#utility.yul\":11097:11100   */\n  dup3\n    /* \"#utility.yul\":11090:11127   */\n  mstore\n    /* \"#utility.yul\":11015:11133   */\n  pop\n  pop\n  jump\t// out\n    /* \"#utility.yul\":11139:11581   */\ntag_43:\n    /* \"#utility.yul\":11288:11292   */\n  0x00\n    /* \"#utility.yul\":11326:11328   */\n  0x60\n    /* \"#utility.yul\":11315:11324   */\n  dup3\n    /* \"#utility.yul\":11311:11329   */\n  add\n    /* \"#utility.yul\":11303:11329   */\n  swap1\n  pop\n    /* \"#utility.yul\":11339:11410   */\n  tag_215\n    /* \"#utility.yul\":11407:11408   */\n  0x00\n    /* \"#utility.yul\":11396:11405   */\n  dup4\n    /* \"#utility.yul\":11392:11409   */\n  add\n    /* \"#utility.yul\":11383:11389   */\n  dup7\n    /* \"#utility.yul\":11339:11410   */\n  tag_83\n  jump\t// in\ntag_215:\n    /* \"#utility.yul\":11420:11492   */\n  tag_216\n    /* \"#utility.yul\":11488:11490   */\n  0x20\n    /* \"#utility.yul\":11477:11486   */\n  dup4\n    /* \"#utility.yul\":11473:11491   */\n  add\n    /* \"#utility.yul\":11464:11470   */\n  dup6\n    /* \"#utility.yul\":11420:11492   */\n  tag_88\n  jump\t// in\ntag_216:\n    /* \"#utility.yul\":11502:11574   */\n  tag_217\n    /* \"#utility.yul\":11570:11572   */\n  0x40\n    /* \"#utility.yul\":11559:11568   */\n  dup4\n    /* \"#utility.yul\":11555:11573   */\n  add\n    /* \"#utility.yul\":11546:11552   */\n  dup5\n    /* \"#utility.yul\":11502:11574   */\n  tag_88\n  jump\t// in\ntag_217:\n    /* \"#utility.yul\":11139:11581   */\n  swap5\n  swap4\n  pop\n  pop\n  pop\n  pop\n  jump\t// out\n    /* \"#utility.yul\":11587:11809   */\ntag_47:\n    /* \"#utility.yul\":11680:11684   */\n  0x00\n    /* \"#utility.yul\":11718:11720   */\n  0x20\n    /* \"#utility.yul\":11707:11716   */\n  dup3\n    /* \"#utility.yul\":11703:11721   */\n  add\n    /* \"#utility.yul\":11695:11721   */\n  swap1\n  pop\n    /* \"#utility.yul\":11731:11802   */\n  tag_219\n    /* \"#utility.yul\":11799:11800   */\n  0x00\n    /* \"#utility.yul\":11788:11797   */\n  dup4\n    /* \"#utility.yul\":11784:11801   */\n  add\n    /* \"#utility.yul\":11775:11781   */\n  dup5\n    /* \"#utility.yul\":11731:11802   */\n  tag_88\n  jump\t// in\ntag_219:\n    /* \"#utility.yul\":11587:11809   */\n  swap3\n  swap2\n  pop\n  pop\n  jump\t// out\n    /* \"contracts/CCK/CCKToken.sol\":378:4777  contract CCKToken is ERC20, Ownable, IERC3643 {... */\ntag_29:\n  dataSize(sub_0)\n  dup1\n  dataOffset(sub_0)\n  0x00\n  codecopy\n  0x00\n  return\nstop\n\nsub_0: assembly {\n        /* \"contracts/CCK/CCKToken.sol\":378:4777  contract CCKToken is ERC20, Ownable, IERC3643 {... */\n      mstore(0x40, 0x80)\n      callvalue\n      dup1\n      iszero\n      tag_1\n      jumpi\n      revert(0x00, 0x00)\n    tag_1:\n      pop\n      jumpi(tag_2, lt(calldatasize, 0x04))\n      shr(0xe0, calldataload(0x00))\n      dup1\n      0x8da5cb5b\n      gt\n      tag_35\n      jumpi\n      dup1\n      0xd0516650\n      gt\n      tag_36\n      jumpi\n      dup1\n      0xe43252d7\n      gt\n      tag_37\n      jumpi\n      dup1\n      0xe43252d7\n      eq\n      tag_31\n      jumpi\n      dup1\n      0xe5839836\n      eq\n      tag_32\n      jumpi\n      dup1\n      0xeb91d37e\n      eq\n      tag_33\n      jumpi\n      dup1\n      0xf2fde38b\n      eq\n      tag_34\n      jumpi\n      jump(tag_2)\n    tag_37:\n      dup1\n      0xd0516650\n      eq\n      tag_27\n      jumpi\n      dup1\n      0xda0239a6\n      eq\n      tag_28\n      jumpi\n      dup1\n      0xdd62ed3e\n      eq\n      tag_29\n      jumpi\n      dup1\n      0xe08ba51a\n      eq\n      tag_30\n      jumpi\n      jump(tag_2)\n    tag_36:\n      dup1\n      0xa9059cbb\n      gt\n      tag_38\n      jumpi\n      dup1\n      0xa9059cbb\n      eq\n      tag_23\n      jumpi\n      dup1\n      0xaba63705\n      eq\n      tag_24\n      jumpi\n      dup1\n      0xbdd3d825\n      eq\n      tag_25\n      jumpi\n      dup1\n      0xcb4b73ab\n      eq\n      tag_26\n      jumpi\n      jump(tag_2)\n    tag_38:\n      dup1\n      0x8da5cb5b\n      eq\n      tag_19\n      jumpi\n      dup1\n      0x902d55a5\n      eq\n      tag_20\n      jumpi\n      dup1\n      0x95d89b41\n      eq\n      tag_21\n      jumpi\n      dup1\n      0x9b19251a\n      eq\n      tag_22\n      jumpi\n      jump(tag_2)\n    tag_35:\n      dup1\n      0x313ce567\n      gt\n      tag_39\n      jumpi\n      dup1\n      0x6290865d\n      gt\n      tag_40\n      jumpi\n      dup1\n      0x6290865d\n      eq\n      tag_15\n      jumpi\n      dup1\n      0x70a08231\n      eq\n      tag_16\n      jumpi\n      dup1\n      0x715018a6\n      eq\n      tag_17\n      jumpi\n      dup1\n      0x8ab1d681\n      eq\n      tag_18\n      jumpi\n      jump(tag_2)\n    tag_40:\n      dup1\n      0x313ce567\n      eq\n      tag_11\n      jumpi\n      dup1\n      0x40c10f19\n      eq\n      tag_12\n      jumpi\n      dup1\n      0x54fd4d50\n      eq\n      tag_13\n      jumpi\n      dup1\n      0x5c975abb\n      eq\n      tag_14\n      jumpi\n      jump(tag_2)\n    tag_39:\n      dup1\n      0x158b1a57\n      gt\n      tag_41\n      jumpi\n      dup1\n      0x158b1a57\n      eq\n      tag_7\n      jumpi\n      dup1\n      0x18160ddd\n      eq\n      tag_8\n      jumpi\n      dup1\n      0x23b872dd\n      eq\n      tag_9\n      jumpi\n      dup1\n      0x2d380242\n      eq\n      tag_10\n      jumpi\n      jump(tag_2)\n    tag_41:\n      dup1\n      0x06fdde03\n      eq\n      tag_3\n      jumpi\n      dup1\n      0x095ea7b3\n      eq\n      tag_4\n      jumpi\n      dup1\n      0x12cae7af\n      eq\n      tag_5\n      jumpi\n      dup1\n      0x134e18f4\n      eq\n      tag_6\n      jumpi\n    tag_2:\n      revert(0x00, 0x00)\n        /* \"@openzeppelin/contracts/token/ERC20/ERC20.sol\":1760:1849  function name() public view virtual returns (string memory) {... */\n    tag_3:\n      tag_42\n      tag_43\n      jump\t// in\n    tag_42:\n      mload(0x40)\n      tag_44\n      swap2\n      swap1\n      tag_45\n      jump\t// in\n    tag_44:\n      mload(0x40)\n      dup1\n      swap2\n      sub\n      swap1\n      return\n        /* \"@openzeppelin/contracts/token/ERC20/ERC20.sol\":3979:4165  function approve(address spender, uint256 value) public virtual returns (bool) {... */\n    tag_4:\n      tag_46\n      0x04\n      dup1\n      calldatasize\n      sub\n      dup2\n      add\n      swap1\n      tag_47\n      swap2\n      swap1\n      tag_48\n      jump\t// in\n    tag_47:\n      tag_49\n      jump\t// in\n    tag_46:\n      mload(0x40)\n      tag_50\n      swap2\n      swap1\n      tag_51\n      jump\t// in\n    tag_50:\n      mload(0x40)\n      dup1\n      swap2\n      sub\n      swap1\n      return\n        /* \"contracts/CCK/CCKToken.sol\":4214:4357  function balanceOfUser(address user) external view returns (uint256) {... */\n    tag_5:\n      tag_52\n      0x04\n      dup1\n      calldatasize\n      sub\n      dup2\n      add\n      swap1\n      tag_53\n      swap2\n      swap1\n      tag_54\n      jump\t// in\n    tag_53:\n      tag_55\n      jump\t// in\n    tag_52:\n      mload(0x40)\n      tag_56\n      swap2\n      swap1\n      tag_57\n      jump\t// in\n    tag_56:\n      mload(0x40)\n      dup1\n      swap2\n      sub\n      swap1\n      return\n        /* \"contracts/CCK/CCKToken.sol\":2237:2376  function identityRegistry() external view override returns (address) {... */\n    tag_6:\n      tag_58\n      tag_59\n      jump\t// in\n    tag_58:\n      mload(0x40)\n      tag_60\n      swap2\n      swap1\n      tag_61\n      jump\t// in\n    tag_60:\n      mload(0x40)\n      dup1\n      swap2\n      sub\n      swap1\n      return\n        /* \"contracts/CCK/CCKToken.sol\":2776:2927  function getFrozenTokens(address userAddress) external view override returns (uint256) {... */\n    tag_7:\n      tag_62\n      0x04\n      dup1\n      calldatasize\n      sub\n      dup2\n      add\n      swap1\n      tag_63\n      swap2\n      swap1\n      tag_54\n      jump\t// in\n    tag_63:\n      tag_64\n      jump\t// in\n    tag_62:\n      mload(0x40)\n      tag_65\n      swap2\n      swap1\n      tag_57\n      jump\t// in\n    tag_65:\n      mload(0x40)\n      dup1\n      swap2\n      sub\n      swap1\n      return\n        /* \"@openzeppelin/contracts/token/ERC20/ERC20.sol\":2830:2927  function totalSupply() public view virtual returns (uint256) {... */\n    tag_8:\n      tag_66\n      tag_67\n      jump\t// in\n    tag_66:\n      mload(0x40)\n      tag_68\n      swap2\n      swap1\n      tag_57\n      jump\t// in\n    tag_68:\n      mload(0x40)\n      dup1\n      swap2\n      sub\n      swap1\n      return\n        /* \"contracts/CCK/CCKToken.sol\":3333:3646  function transferFrom(address sender, address recipient, uint256 amount) public override returns (bool) {... */\n    tag_9:\n      tag_69\n      0x04\n      dup1\n      calldatasize\n      sub\n      dup2\n      add\n      swap1\n      tag_70\n      swap2\n      swap1\n      tag_71\n      jump\t// in\n    tag_70:\n      tag_72\n      jump\t// in\n    tag_69:\n      mload(0x40)\n      tag_73\n      swap2\n      swap1\n      tag_51\n      jump\t// in\n    tag_73:\n      mload(0x40)\n      dup1\n      swap2\n      sub\n      swap1\n      return\n        /* \"contracts/CCK/CCKToken.sol\":779:806  uint256 public mintedAmount */\n    tag_10:\n      tag_74\n      tag_75\n      jump\t// in\n    tag_74:\n      mload(0x40)\n      tag_76\n      swap2\n      swap1\n      tag_57\n      jump\t// in\n    tag_76:\n      mload(0x40)\n      dup1\n      swap2\n      sub\n      swap1\n      return\n        /* \"contracts/CCK/CCKToken.sol\":4049:4160  function decimals() public view virtual override returns (uint8) {... */\n    tag_11:\n      tag_77\n      tag_78\n      jump\t// in\n    tag_77:\n      mload(0x40)\n      tag_79\n      swap2\n      swap1\n      tag_80\n      jump\t// in\n    tag_79:\n      mload(0x40)\n      dup1\n      swap2\n      sub\n      swap1\n      return\n        /* \"contracts/CCK/CCKToken.sol\":3696:3960  function mint(address to, uint256 amount) external onlyOwner {... */\n    tag_12:\n      tag_81\n      0x04\n      dup1\n      calldatasize\n      sub\n      dup2\n      add\n      swap1\n      tag_82\n      swap2\n      swap1\n      tag_48\n      jump\t// in\n    tag_82:\n      tag_83\n      jump\t// in\n    tag_81:\n      stop\n        /* \"contracts/CCK/CCKToken.sol\":2130:2229  function version() external view override returns (string memory) {... */\n    tag_13:\n      tag_84\n      tag_85\n      jump\t// in\n    tag_84:\n      mload(0x40)\n      tag_86\n      swap2\n      swap1\n      tag_45\n      jump\t// in\n    tag_86:\n      mload(0x40)\n      dup1\n      swap2\n      sub\n      swap1\n      return\n        /* \"contracts/CCK/CCKToken.sol\":2522:2610  function paused() external view override returns (bool) {... */\n    tag_14:\n      tag_87\n      tag_88\n      jump\t// in\n    tag_87:\n      mload(0x40)\n      tag_89\n      swap2\n      swap1\n      tag_51\n      jump\t// in\n    tag_89:\n      mload(0x40)\n      dup1\n      swap2\n      sub\n      swap1\n      return\n        /* \"contracts/CCK/CCKToken.sol\":2384:2514  function compliance() external view override returns (address) {... */\n    tag_15:\n      tag_90\n      tag_91\n      jump\t// in\n    tag_90:\n      mload(0x40)\n      tag_92\n      swap2\n      swap1\n      tag_61\n      jump\t// in\n    tag_92:\n      mload(0x40)\n      dup1\n      swap2\n      sub\n      swap1\n      return\n        /* \"@openzeppelin/contracts/token/ERC20/ERC20.sol\":2985:3101  function balanceOf(address account) public view virtual returns (uint256) {... */\n    tag_16:\n      tag_93\n      0x04\n      dup1\n      calldatasize\n      sub\n      dup2\n      add\n      swap1\n      tag_94\n      swap2\n      swap1\n      tag_54\n      jump\t// in\n    tag_94:\n      tag_95\n      jump\t// in\n    tag_93:\n      mload(0x40)\n      tag_96\n      swap2\n      swap1\n      tag_57\n      jump\t// in\n    tag_96:\n      mload(0x40)\n      dup1\n      swap2\n      sub\n      swap1\n      return\n        /* \"@openzeppelin/contracts/access/Ownable.sol\":2293:2394  function renounceOwnership() public virtual onlyOwner {... */\n    tag_17:\n      tag_97\n      tag_98\n      jump\t// in\n    tag_97:\n      stop\n        /* \"contracts/CCK/CCKToken.sol\":1428:1536  function removeFromWhitelist(address member) external onlyOwner {... */\n    tag_18:\n      tag_99\n      0x04\n      dup1\n      calldatasize\n      sub\n      dup2\n      add\n      swap1\n      tag_100\n      swap2\n      swap1\n      tag_54\n      jump\t// in\n    tag_100:\n      tag_101\n      jump\t// in\n    tag_99:\n      stop\n        /* \"@openzeppelin/contracts/access/Ownable.sol\":1638:1723  function owner() public view virtual returns (address) {... */\n    tag_19:\n      tag_102\n      tag_103\n      jump\t// in\n    tag_102:\n      mload(0x40)\n      tag_104\n      swap2\n      swap1\n      tag_61\n      jump\t// in\n    tag_104:\n      mload(0x40)\n      dup1\n      swap2\n      sub\n      swap1\n      return\n        /* \"contracts/CCK/CCKToken.sol\":522:577  uint256 public constant TOTAL_SUPPLY = 500_000 * 10**18 */\n    tag_20:\n      tag_105\n      tag_106\n      jump\t// in\n    tag_105:\n      mload(0x40)\n      tag_107\n      swap2\n      swap1\n      tag_57\n      jump\t// in\n    tag_107:\n      mload(0x40)\n      dup1\n      swap2\n      sub\n      swap1\n      return\n        /* \"@openzeppelin/contracts/token/ERC20/ERC20.sol\":1962:2055  function symbol() public view virtual returns (string memory) {... */\n    tag_21:\n      tag_108\n      tag_109\n      jump\t// in\n    tag_108:\n      mload(0x40)\n      tag_110\n      swap2\n      swap1\n      tag_45\n      jump\t// in\n    tag_110:\n      mload(0x40)\n      dup1\n      swap2\n      sub\n      swap1\n      return\n        /* \"contracts/CCK/CCKToken.sol\":600:641  mapping(address => bool) public whitelist */\n    tag_22:\n      tag_111\n      0x04\n      dup1\n      calldatasize\n      sub\n      dup2\n      add\n      swap1\n      tag_112\n      swap2\n      swap1\n      tag_54\n      jump\t// in\n    tag_112:\n      tag_113\n      jump\t// in\n    tag_111:\n      mload(0x40)\n      tag_114\n      swap2\n      swap1\n      tag_51\n      jump\t// in\n    tag_114:\n      mload(0x40)\n      dup1\n      swap2\n      sub\n      swap1\n      return\n        /* \"contracts/CCK/CCKToken.sol\":3007:3292  function transfer(address recipient, uint256 amount) public override returns (bool) {... */\n    tag_23:\n      tag_115\n      0x04\n      dup1\n      calldatasize\n      sub\n      dup2\n      add\n      swap1\n      tag_116\n      swap2\n      swap1\n      tag_48\n      jump\t// in\n    tag_116:\n      tag_117\n      jump\t// in\n    tag_115:\n      mload(0x40)\n      tag_118\n      swap2\n      swap1\n      tag_51\n      jump\t// in\n    tag_118:\n      mload(0x40)\n      dup1\n      swap2\n      sub\n      swap1\n      return\n        /* \"contracts/CCK/CCKToken.sol\":2021:2122  function onchainID() external view override returns (address) {... */\n    tag_24:\n      tag_119\n      tag_120\n      jump\t// in\n    tag_119:\n      mload(0x40)\n      tag_121\n      swap2\n      swap1\n      tag_61\n      jump\t// in\n    tag_121:\n      mload(0x40)\n      dup1\n      swap2\n      sub\n      swap1\n      return\n        /* \"contracts/CCK/CCKToken.sol\":722:748  address public uniswapPool */\n    tag_25:\n      tag_122\n      tag_123\n      jump\t// in\n    tag_122:\n      mload(0x40)\n      tag_124\n      swap2\n      swap1\n      tag_61\n      jump\t// in\n    tag_124:\n      mload(0x40)\n      dup1\n      swap2\n      sub\n      swap1\n      return\n        /* \"contracts/CCK/CCKToken.sol\":1685:1779  function unfreezeUser(address user) external onlyOwner {... */\n    tag_26:\n      tag_125\n      0x04\n      dup1\n      calldatasize\n      sub\n      dup2\n      add\n      swap1\n      tag_126\n      swap2\n      swap1\n      tag_54\n      jump\t// in\n    tag_126:\n      tag_127\n      jump\t// in\n    tag_125:\n      stop\n        /* \"contracts/CCK/CCKToken.sol\":661:699  mapping(address => bool) public frozen */\n    tag_27:\n      tag_128\n      0x04\n      dup1\n      calldatasize\n      sub\n      dup2\n      add\n      swap1\n      tag_129\n      swap2\n      swap1\n      tag_54\n      jump\t// in\n    tag_129:\n      tag_130\n      jump\t// in\n    tag_128:\n      mload(0x40)\n      tag_131\n      swap2\n      swap1\n      tag_51\n      jump\t// in\n    tag_131:\n      mload(0x40)\n      dup1\n      swap2\n      sub\n      swap1\n      return\n        /* \"contracts/CCK/CCKToken.sol\":1832:1978  function remainingSupply() external view returns (uint256) {... */\n    tag_28:\n      tag_132\n      tag_133\n      jump\t// in\n    tag_132:\n      mload(0x40)\n      tag_134\n      swap2\n      swap1\n      tag_57\n      jump\t// in\n    tag_134:\n      mload(0x40)\n      dup1\n      swap2\n      sub\n      swap1\n      return\n        /* \"@openzeppelin/contracts/token/ERC20/ERC20.sol\":3532:3672  function allowance(address owner, address spender) public view virtual returns (uint256) {... */\n    tag_29:\n      tag_135\n      0x04\n      dup1\n      calldatasize\n      sub\n      dup2\n      add\n      swap1\n      tag_136\n      swap2\n      swap1\n      tag_137\n      jump\t// in\n    tag_136:\n      tag_138\n      jump\t// in\n    tag_135:\n      mload(0x40)\n      tag_139\n      swap2\n      swap1\n      tag_57\n      jump\t// in\n    tag_139:\n      mload(0x40)\n      dup1\n      swap2\n      sub\n      swap1\n      return\n        /* \"contracts/CCK/CCKToken.sol\":1565:1656  function freezeUser(address user) external onlyOwner {... */\n    tag_30:\n      tag_140\n      0x04\n      dup1\n      calldatasize\n      sub\n      dup2\n      add\n      swap1\n      tag_141\n      swap2\n      swap1\n      tag_54\n      jump\t// in\n    tag_141:\n      tag_142\n      jump\t// in\n    tag_140:\n      stop\n        /* \"contracts/CCK/CCKToken.sol\":1288:1390  function addToWhitelist(address member) external onlyOwner {... */\n    tag_31:\n      tag_143\n      0x04\n      dup1\n      calldatasize\n      sub\n      dup2\n      add\n      swap1\n      tag_144\n      swap2\n      swap1\n      tag_54\n      jump\t// in\n    tag_144:\n      tag_145\n      jump\t// in\n    tag_143:\n      stop\n        /* \"contracts/CCK/CCKToken.sol\":2618:2768  function isFrozen(address userAddress) external view override returns (bool) {... */\n    tag_32:\n      tag_146\n      0x04\n      dup1\n      calldatasize\n      sub\n      dup2\n      add\n      swap1\n      tag_147\n      swap2\n      swap1\n      tag_54\n      jump\t// in\n    tag_147:\n      tag_148\n      jump\t// in\n    tag_146:\n      mload(0x40)\n      tag_149\n      swap2\n      swap1\n      tag_51\n      jump\t// in\n    tag_149:\n      mload(0x40)\n      dup1\n      swap2\n      sub\n      swap1\n      return\n        /* \"contracts/CCK/CCKToken.sol\":4396:4774  function getCurrentPrice() external view returns (uint256) {... */\n    tag_33:\n      tag_150\n      tag_151\n      jump\t// in\n    tag_150:\n      mload(0x40)\n      tag_152\n      swap2\n      swap1\n      tag_57\n      jump\t// in\n    tag_152:\n      mload(0x40)\n      dup1\n      swap2\n      sub\n      swap1\n      return\n        /* \"@openzeppelin/contracts/access/Ownable.sol\":2543:2758  function transferOwnership(address newOwner) public virtual onlyOwner {... */\n    tag_34:\n      tag_153\n      0x04\n      dup1\n      calldatasize\n      sub\n      dup2\n      add\n      swap1\n      tag_154\n      swap2\n      swap1\n      tag_54\n      jump\t// in\n    tag_154:\n      tag_155\n      jump\t// in\n    tag_153:\n      stop\n        /* \"@openzeppelin/contracts/token/ERC20/ERC20.sol\":1760:1849  function name() public view virtual returns (string memory) {... */\n    tag_43:\n        /* \"@openzeppelin/contracts/token/ERC20/ERC20.sol\":1805:1818  string memory */\n      0x60\n        /* \"@openzeppelin/contracts/token/ERC20/ERC20.sol\":1837:1842  _name */\n      0x03\n        /* \"@openzeppelin/contracts/token/ERC20/ERC20.sol\":1830:1842  return _name */\n      dup1\n      sload\n      tag_157\n      swap1\n      tag_158\n      jump\t// in\n    tag_157:\n      dup1\n      0x1f\n      add\n      0x20\n      dup1\n      swap2\n      div\n      mul\n      0x20\n      add\n      mload(0x40)\n      swap1\n      dup2\n      add\n      0x40\n      mstore\n      dup1\n      swap3\n      swap2\n      swap1\n      dup2\n      dup2\n      mstore\n      0x20\n      add\n      dup3\n      dup1\n      sload\n      tag_159\n      swap1\n      tag_158\n      jump\t// in\n    tag_159:\n      dup1\n      iszero\n      tag_160\n      jumpi\n      dup1\n      0x1f\n      lt\n      tag_161\n      jumpi\n      0x0100\n      dup1\n      dup4\n      sload\n      div\n      mul\n      dup4\n      mstore\n      swap2\n      0x20\n      add\n      swap2\n      jump(tag_160)\n    tag_161:\n      dup3\n      add\n      swap2\n      swap1\n      0x00\n      mstore\n      keccak256(0x00, 0x20)\n      swap1\n    tag_162:\n      dup2\n      sload\n      dup2\n      mstore\n      swap1\n      0x01\n      add\n      swap1\n      0x20\n      add\n      dup1\n      dup4\n      gt\n      tag_162\n      jumpi\n      dup3\n      swap1\n      sub\n      0x1f\n      and\n      dup3\n      add\n      swap2\n    tag_160:\n      pop\n      pop\n      pop\n      pop\n      pop\n      swap1\n      pop\n        /* \"@openzeppelin/contracts/token/ERC20/ERC20.sol\":1760:1849  function name() public view virtual returns (string memory) {... */\n      swap1\n      jump\t// out\n        /* \"@openzeppelin/contracts/token/ERC20/ERC20.sol\":3979:4165  function approve(address spender, uint256 value) public virtual returns (bool) {... */\n    tag_49:\n        /* \"@openzeppelin/contracts/token/ERC20/ERC20.sol\":4052:4056  bool */\n      0x00\n        /* \"@openzeppelin/contracts/token/ERC20/ERC20.sol\":4068:4081  address owner */\n      0x00\n        /* \"@openzeppelin/contracts/token/ERC20/ERC20.sol\":4084:4096  _msgSender() */\n      tag_164\n        /* \"@openzeppelin/contracts/token/ERC20/ERC20.sol\":4084:4094  _msgSender */\n      tag_165\n        /* \"@openzeppelin/contracts/token/ERC20/ERC20.sol\":4084:4096  _msgSender() */\n      jump\t// in\n    tag_164:\n        /* \"@openzeppelin/contracts/token/ERC20/ERC20.sol\":4068:4096  address owner = _msgSender() */\n      swap1\n      pop\n        /* \"@openzeppelin/contracts/token/ERC20/ERC20.sol\":4106:4137  _approve(owner, spender, value) */\n      tag_166\n        /* \"@openzeppelin/contracts/token/ERC20/ERC20.sol\":4115:4120  owner */\n      dup2\n        /* \"@openzeppelin/contracts/token/ERC20/ERC20.sol\":4122:4129  spender */\n      dup6\n        /* \"@openzeppelin/contracts/token/ERC20/ERC20.sol\":4131:4136  value */\n      dup6\n        /* \"@openzeppelin/contracts/token/ERC20/ERC20.sol\":4106:4114  _approve */\n      tag_167\n        /* \"@openzeppelin/contracts/token/ERC20/ERC20.sol\":4106:4137  _approve(owner, spender, value) */\n      jump\t// in\n    tag_166:\n        /* \"@openzeppelin/contracts/token/ERC20/ERC20.sol\":4154:4158  true */\n      0x01\n        /* \"@openzeppelin/contracts/token/ERC20/ERC20.sol\":4147:4158  return true */\n      swap2\n      pop\n      pop\n        /* \"@openzeppelin/contracts/token/ERC20/ERC20.sol\":3979:4165  function approve(address spender, uint256 value) public virtual returns (bool) {... */\n      swap3\n      swap2\n      pop\n      pop\n      jump\t// out\n        /* \"contracts/CCK/CCKToken.sol\":4214:4357  function balanceOfUser(address user) external view returns (uint256) {... */\n    tag_55:\n        /* \"contracts/CCK/CCKToken.sol\":4274:4281  uint256 */\n      0x00\n        /* \"contracts/CCK/CCKToken.sol\":4301:4316  balanceOf(user) */\n      tag_169\n        /* \"contracts/CCK/CCKToken.sol\":4311:4315  user */\n      dup3\n        /* \"contracts/CCK/CCKToken.sol\":4301:4310  balanceOf */\n      tag_95\n        /* \"contracts/CCK/CCKToken.sol\":4301:4316  balanceOf(user) */\n      jump\t// in\n    tag_169:\n        /* \"contracts/CCK/CCKToken.sol\":4294:4316  return balanceOf(user) */\n      swap1\n      pop\n        /* \"contracts/CCK/CCKToken.sol\":4214:4357  function balanceOfUser(address user) external view returns (uint256) {... */\n      swap2\n      swap1\n      pop\n      jump\t// out\n        /* \"contracts/CCK/CCKToken.sol\":2237:2376  function identityRegistry() external view override returns (address) {... */\n    tag_59:\n        /* \"contracts/CCK/CCKToken.sol\":2297:2304  address */\n      0x00\n        /* \"contracts/CCK/CCKToken.sol\":2332:2333  0 */\n      0x00\n        /* \"contracts/CCK/CCKToken.sol\":2317:2334  return address(0) */\n      swap1\n      pop\n        /* \"contracts/CCK/CCKToken.sol\":2237:2376  function identityRegistry() external view override returns (address) {... */\n      swap1\n      jump\t// out\n        /* \"contracts/CCK/CCKToken.sol\":2776:2927  function getFrozenTokens(address userAddress) external view override returns (uint256) {... */\n    tag_64:\n        /* \"contracts/CCK/CCKToken.sol\":2854:2861  uint256 */\n      0x00\n        /* \"contracts/CCK/CCKToken.sol\":2881:2882  0 */\n      0x00\n        /* \"contracts/CCK/CCKToken.sol\":2874:2882  return 0 */\n      swap1\n      pop\n        /* \"contracts/CCK/CCKToken.sol\":2776:2927  function getFrozenTokens(address userAddress) external view override returns (uint256) {... */\n      swap2\n      swap1\n      pop\n      jump\t// out\n        /* \"@openzeppelin/contracts/token/ERC20/ERC20.sol\":2830:2927  function totalSupply() public view virtual returns (uint256) {... */\n    tag_67:\n        /* \"@openzeppelin/contracts/token/ERC20/ERC20.sol\":2882:2889  uint256 */\n      0x00\n        /* \"@openzeppelin/contracts/token/ERC20/ERC20.sol\":2908:2920  _totalSupply */\n      sload(0x02)\n        /* \"@openzeppelin/contracts/token/ERC20/ERC20.sol\":2901:2920  return _totalSupply */\n      swap1\n      pop\n        /* \"@openzeppelin/contracts/token/ERC20/ERC20.sol\":2830:2927  function totalSupply() public view virtual returns (uint256) {... */\n      swap1\n      jump\t// out\n        /* \"contracts/CCK/CCKToken.sol\":3333:3646  function transferFrom(address sender, address recipient, uint256 amount) public override returns (bool) {... */\n    tag_72:\n        /* \"contracts/CCK/CCKToken.sol\":3431:3435  bool */\n      0x00\n        /* \"contracts/CCK/CCKToken.sol\":3457:3463  frozen */\n      0x07\n        /* \"contracts/CCK/CCKToken.sol\":3457:3471  frozen[sender] */\n      0x00\n        /* \"contracts/CCK/CCKToken.sol\":3464:3470  sender */\n      dup6\n        /* \"contracts/CCK/CCKToken.sol\":3457:3471  frozen[sender] */\n      0xffffffffffffffffffffffffffffffffffffffff\n      and\n      0xffffffffffffffffffffffffffffffffffffffff\n      and\n      dup2\n      mstore\n      0x20\n      add\n      swap1\n      dup2\n      mstore\n      0x20\n      add\n      0x00\n      keccak256\n      0x00\n      swap1\n      sload\n      swap1\n      0x0100\n      exp\n      swap1\n      div\n      0xff\n      and\n        /* \"contracts/CCK/CCKToken.sol\":3456:3471  !frozen[sender] */\n      iszero\n        /* \"contracts/CCK/CCKToken.sol\":3448:3492  require(!frozen[sender], \"Sender is frozen\") */\n      tag_174\n      jumpi\n      mload(0x40)\n      0x08c379a000000000000000000000000000000000000000000000000000000000\n      dup2\n      mstore\n      0x04\n      add\n      tag_175\n      swap1\n      tag_176\n      jump\t// in\n    tag_175:\n      mload(0x40)\n      dup1\n      swap2\n      sub\n      swap1\n      revert\n    tag_174:\n        /* \"contracts/CCK/CCKToken.sol\":3537:3543  amount */\n      dup2\n        /* \"contracts/CCK/CCKToken.sol\":3521:3545  uint256(uint128(amount)) */\n      0xffffffffffffffffffffffffffffffff\n      and\n        /* \"contracts/CCK/CCKToken.sol\":3511:3517  amount */\n      dup3\n        /* \"contracts/CCK/CCKToken.sol\":3511:3545  amount == uint256(uint128(amount)) */\n      eq\n        /* \"contracts/CCK/CCKToken.sol\":3503:3575  require(amount == uint256(uint128(amount)), \"Amount must be an integer\") */\n      tag_177\n      jumpi\n      mload(0x40)\n      0x08c379a000000000000000000000000000000000000000000000000000000000\n      dup2\n      mstore\n      0x04\n      add\n      tag_178\n      swap1\n      tag_179\n      jump\t// in\n    tag_178:\n      mload(0x40)\n      dup1\n      swap2\n      sub\n      swap1\n      revert\n    tag_177:\n        /* \"contracts/CCK/CCKToken.sol\":3593:3638  super.transferFrom(sender, recipient, amount) */\n      tag_180\n        /* \"contracts/CCK/CCKToken.sol\":3612:3618  sender */\n      dup5\n        /* \"contracts/CCK/CCKToken.sol\":3620:3629  recipient */\n      dup5\n        /* \"contracts/CCK/CCKToken.sol\":3631:3637  amount */\n      dup5\n        /* \"contracts/CCK/CCKToken.sol\":3593:3611  super.transferFrom */\n      tag_181\n        /* \"contracts/CCK/CCKToken.sol\":3593:3638  super.transferFrom(sender, recipient, amount) */\n      jump\t// in\n    tag_180:\n        /* \"contracts/CCK/CCKToken.sol\":3586:3638  return super.transferFrom(sender, recipient, amount) */\n      swap1\n      pop\n        /* \"contracts/CCK/CCKToken.sol\":3333:3646  function transferFrom(address sender, address recipient, uint256 amount) public override returns (bool) {... */\n      swap4\n      swap3\n      pop\n      pop\n      pop\n      jump\t// out\n        /* \"contracts/CCK/CCKToken.sol\":779:806  uint256 public mintedAmount */\n    tag_75:\n      sload(0x09)\n      dup2\n      jump\t// out\n        /* \"contracts/CCK/CCKToken.sol\":4049:4160  function decimals() public view virtual override returns (uint8) {... */\n    tag_78:\n        /* \"contracts/CCK/CCKToken.sol\":4107:4112  uint8 */\n      0x00\n        /* \"contracts/CCK/CCKToken.sol\":4132:4133  0 */\n      0x00\n        /* \"contracts/CCK/CCKToken.sol\":4125:4133  return 0 */\n      swap1\n      pop\n        /* \"contracts/CCK/CCKToken.sol\":4049:4160  function decimals() public view virtual override returns (uint8) {... */\n      swap1\n      jump\t// out\n        /* \"contracts/CCK/CCKToken.sol\":3696:3960  function mint(address to, uint256 amount) external onlyOwner {... */\n    tag_83:\n        /* \"@openzeppelin/contracts/access/Ownable.sol\":1531:1544  _checkOwner() */\n      tag_184\n        /* \"@openzeppelin/contracts/access/Ownable.sol\":1531:1542  _checkOwner */\n      tag_185\n        /* \"@openzeppelin/contracts/access/Ownable.sol\":1531:1544  _checkOwner() */\n      jump\t// in\n    tag_184:\n        /* \"contracts/CCK/CCKToken.sol\":3776:3785  whitelist */\n      0x06\n        /* \"contracts/CCK/CCKToken.sol\":3776:3789  whitelist[to] */\n      0x00\n        /* \"contracts/CCK/CCKToken.sol\":3786:3788  to */\n      dup4\n        /* \"contracts/CCK/CCKToken.sol\":3776:3789  whitelist[to] */\n      0xffffffffffffffffffffffffffffffffffffffff\n      and\n      0xffffffffffffffffffffffffffffffffffffffff\n      and\n      dup2\n      mstore\n      0x20\n      add\n      swap1\n      dup2\n      mstore\n      0x20\n      add\n      0x00\n      keccak256\n      0x00\n      swap1\n      sload\n      swap1\n      0x0100\n      exp\n      swap1\n      div\n      0xff\n      and\n        /* \"contracts/CCK/CCKToken.sol\":3768:3809  require(whitelist[to], \"Not whitelisted\") */\n      tag_187\n      jumpi\n      mload(0x40)\n      0x08c379a000000000000000000000000000000000000000000000000000000000\n      dup2\n      mstore\n      0x04\n      add\n      tag_188\n      swap1\n      tag_189\n      jump\t// in\n    tag_188:\n      mload(0x40)\n      dup1\n      swap2\n      sub\n      swap1\n      revert\n    tag_187:\n        /* \"contracts/CCK/CCKToken.sol\":561:577  500_000 * 10**18 */\n      0x69e10de76676d0800000\n        /* \"contracts/CCK/CCKToken.sol\":3843:3849  amount */\n      dup2\n        /* \"contracts/CCK/CCKToken.sol\":3828:3840  mintedAmount */\n      sload(0x09)\n        /* \"contracts/CCK/CCKToken.sol\":3828:3849  mintedAmount + amount */\n      tag_190\n      swap2\n      swap1\n      tag_191\n      jump\t// in\n    tag_190:\n        /* \"contracts/CCK/CCKToken.sol\":3828:3865  mintedAmount + amount <= TOTAL_SUPPLY */\n      gt\n      iszero\n        /* \"contracts/CCK/CCKToken.sol\":3820:3891  require(mintedAmount + amount <= TOTAL_SUPPLY, \"Total supply exceeded\") */\n      tag_192\n      jumpi\n      mload(0x40)\n      0x08c379a000000000000000000000000000000000000000000000000000000000\n      dup2\n      mstore\n      0x04\n      add\n      tag_193\n      swap1\n      tag_194\n      jump\t// in\n    tag_193:\n      mload(0x40)\n      dup1\n      swap2\n      sub\n      swap1\n      revert\n    tag_192:\n        /* \"contracts/CCK/CCKToken.sol\":3902:3919  _mint(to, amount) */\n      tag_195\n        /* \"contracts/CCK/CCKToken.sol\":3908:3910  to */\n      dup3\n        /* \"contracts/CCK/CCKToken.sol\":3912:3918  amount */\n      dup3\n        /* \"contracts/CCK/CCKToken.sol\":3902:3907  _mint */\n      tag_196\n        /* \"contracts/CCK/CCKToken.sol\":3902:3919  _mint(to, amount) */\n      jump\t// in\n    tag_195:\n        /* \"contracts/CCK/CCKToken.sol\":3946:3952  amount */\n      dup1\n        /* \"contracts/CCK/CCKToken.sol\":3930:3942  mintedAmount */\n      0x09\n      0x00\n        /* \"contracts/CCK/CCKToken.sol\":3930:3952  mintedAmount += amount */\n      dup3\n      dup3\n      sload\n      tag_197\n      swap2\n      swap1\n      tag_191\n      jump\t// in\n    tag_197:\n      swap3\n      pop\n      pop\n      dup2\n      swap1\n      sstore\n      pop\n        /* \"contracts/CCK/CCKToken.sol\":3696:3960  function mint(address to, uint256 amount) external onlyOwner {... */\n      pop\n      pop\n      jump\t// out\n        /* \"contracts/CCK/CCKToken.sol\":2130:2229  function version() external view override returns (string memory) {... */\n    tag_85:\n        /* \"contracts/CCK/CCKToken.sol\":2181:2194  string memory */\n      0x60\n        /* \"contracts/CCK/CCKToken.sol\":2207:2221  return \"1.0.0\" */\n      mload(0x40)\n      dup1\n      0x40\n      add\n      0x40\n      mstore\n      dup1\n      0x05\n      dup2\n      mstore\n      0x20\n      add\n      0x312e302e30000000000000000000000000000000000000000000000000000000\n      dup2\n      mstore\n      pop\n      swap1\n      pop\n        /* \"contracts/CCK/CCKToken.sol\":2130:2229  function version() external view override returns (string memory) {... */\n      swap1\n      jump\t// out\n        /* \"contracts/CCK/CCKToken.sol\":2522:2610  function paused() external view override returns (bool) {... */\n    tag_88:\n        /* \"contracts/CCK/CCKToken.sol\":2572:2576  bool */\n      0x00\n        /* \"contracts/CCK/CCKToken.sol\":2596:2601  false */\n      0x00\n        /* \"contracts/CCK/CCKToken.sol\":2589:2601  return false */\n      swap1\n      pop\n        /* \"contracts/CCK/CCKToken.sol\":2522:2610  function paused() external view override returns (bool) {... */\n      swap1\n      jump\t// out\n        /* \"contracts/CCK/CCKToken.sol\":2384:2514  function compliance() external view override returns (address) {... */\n    tag_91:\n        /* \"contracts/CCK/CCKToken.sol\":2438:2445  address */\n      0x00\n        /* \"contracts/CCK/CCKToken.sol\":2473:2474  0 */\n      0x00\n        /* \"contracts/CCK/CCKToken.sol\":2458:2475  return address(0) */\n      swap1\n      pop\n        /* \"contracts/CCK/CCKToken.sol\":2384:2514  function compliance() external view override returns (address) {... */\n      swap1\n      jump\t// out\n        /* \"@openzeppelin/contracts/token/ERC20/ERC20.sol\":2985:3101  function balanceOf(address account) public view virtual returns (uint256) {... */\n    tag_95:\n        /* \"@openzeppelin/contracts/token/ERC20/ERC20.sol\":3050:3057  uint256 */\n      0x00\n        /* \"@openzeppelin/contracts/token/ERC20/ERC20.sol\":3076:3085  _balances */\n      0x00\n        /* \"@openzeppelin/contracts/token/ERC20/ERC20.sol\":3076:3094  _balances[account] */\n      0x00\n        /* \"@openzeppelin/contracts/token/ERC20/ERC20.sol\":3086:3093  account */\n      dup4\n        /* \"@openzeppelin/contracts/token/ERC20/ERC20.sol\":3076:3094  _balances[account] */\n      0xffffffffffffffffffffffffffffffffffffffff\n      and\n      0xffffffffffffffffffffffffffffffffffffffff\n      and\n      dup2\n      mstore\n      0x20\n      add\n      swap1\n      dup2\n      mstore\n      0x20\n      add\n      0x00\n      keccak256\n      sload\n        /* \"@openzeppelin/contracts/token/ERC20/ERC20.sol\":3069:3094  return _balances[account] */\n      swap1\n      pop\n        /* \"@openzeppelin/contracts/token/ERC20/ERC20.sol\":2985:3101  function balanceOf(address account) public view virtual returns (uint256) {... */\n      swap2\n      swap1\n      pop\n      jump\t// out\n        /* \"@openzeppelin/contracts/access/Ownable.sol\":2293:2394  function renounceOwnership() public virtual onlyOwner {... */\n    tag_98:\n        /* \"@openzeppelin/contracts/access/Ownable.sol\":1531:1544  _checkOwner() */\n      tag_203\n        /* \"@openzeppelin/contracts/access/Ownable.sol\":1531:1542  _checkOwner */\n      tag_185\n        /* \"@openzeppelin/contracts/access/Ownable.sol\":1531:1544  _checkOwner() */\n      jump\t// in\n    tag_203:\n        /* \"@openzeppelin/contracts/access/Ownable.sol\":2357:2387  _transferOwnership(address(0)) */\n      tag_205\n        /* \"@openzeppelin/contracts/access/Ownable.sol\":2384:2385  0 */\n      0x00\n        /* \"@openzeppelin/contracts/access/Ownable.sol\":2357:2375  _transferOwnership */\n      tag_206\n        /* \"@openzeppelin/contracts/access/Ownable.sol\":2357:2387  _transferOwnership(address(0)) */\n      jump\t// in\n    tag_205:\n        /* \"@openzeppelin/contracts/access/Ownable.sol\":2293:2394  function renounceOwnership() public virtual onlyOwner {... */\n      jump\t// out\n        /* \"contracts/CCK/CCKToken.sol\":1428:1536  function removeFromWhitelist(address member) external onlyOwner {... */\n    tag_101:\n        /* \"@openzeppelin/contracts/access/Ownable.sol\":1531:1544  _checkOwner() */\n      tag_208\n        /* \"@openzeppelin/contracts/access/Ownable.sol\":1531:1542  _checkOwner */\n      tag_185\n        /* \"@openzeppelin/contracts/access/Ownable.sol\":1531:1544  _checkOwner() */\n      jump\t// in\n    tag_208:\n        /* \"contracts/CCK/CCKToken.sol\":1523:1528  false */\n      0x00\n        /* \"contracts/CCK/CCKToken.sol\":1503:1512  whitelist */\n      0x06\n        /* \"contracts/CCK/CCKToken.sol\":1503:1520  whitelist[member] */\n      0x00\n        /* \"contracts/CCK/CCKToken.sol\":1513:1519  member */\n      dup4\n        /* \"contracts/CCK/CCKToken.sol\":1503:1520  whitelist[member] */\n      0xffffffffffffffffffffffffffffffffffffffff\n      and\n      0xffffffffffffffffffffffffffffffffffffffff\n      and\n      dup2\n      mstore\n      0x20\n      add\n      swap1\n      dup2\n      mstore\n      0x20\n      add\n      0x00\n      keccak256\n      0x00\n        /* \"contracts/CCK/CCKToken.sol\":1503:1528  whitelist[member] = false */\n      0x0100\n      exp\n      dup2\n      sload\n      dup2\n      0xff\n      mul\n      not\n      and\n      swap1\n      dup4\n      iszero\n      iszero\n      mul\n      or\n      swap1\n      sstore\n      pop\n        /* \"contracts/CCK/CCKToken.sol\":1428:1536  function removeFromWhitelist(address member) external onlyOwner {... */\n      pop\n      jump\t// out\n        /* \"@openzeppelin/contracts/access/Ownable.sol\":1638:1723  function owner() public view virtual returns (address) {... */\n    tag_103:\n        /* \"@openzeppelin/contracts/access/Ownable.sol\":1684:1691  address */\n      0x00\n        /* \"@openzeppelin/contracts/access/Ownable.sol\":1710:1716  _owner */\n      0x05\n      0x00\n      swap1\n      sload\n      swap1\n      0x0100\n      exp\n      swap1\n      div\n      0xffffffffffffffffffffffffffffffffffffffff\n      and\n        /* \"@openzeppelin/contracts/access/Ownable.sol\":1703:1716  return _owner */\n      swap1\n      pop\n        /* \"@openzeppelin/contracts/access/Ownable.sol\":1638:1723  function owner() public view virtual returns (address) {... */\n      swap1\n      jump\t// out\n        /* \"contracts/CCK/CCKToken.sol\":522:577  uint256 public constant TOTAL_SUPPLY = 500_000 * 10**18 */\n    tag_106:\n        /* \"contracts/CCK/CCKToken.sol\":561:577  500_000 * 10**18 */\n      0x69e10de76676d0800000\n        /* \"contracts/CCK/CCKToken.sol\":522:577  uint256 public constant TOTAL_SUPPLY = 500_000 * 10**18 */\n      dup2\n      jump\t// out\n        /* \"@openzeppelin/contracts/token/ERC20/ERC20.sol\":1962:2055  function symbol() public view virtual returns (string memory) {... */\n    tag_109:\n        /* \"@openzeppelin/contracts/token/ERC20/ERC20.sol\":2009:2022  string memory */\n      0x60\n        /* \"@openzeppelin/contracts/token/ERC20/ERC20.sol\":2041:2048  _symbol */\n      0x04\n        /* \"@openzeppelin/contracts/token/ERC20/ERC20.sol\":2034:2048  return _symbol */\n      dup1\n      sload\n      tag_212\n      swap1\n      tag_158\n      jump\t// in\n    tag_212:\n      dup1\n      0x1f\n      add\n      0x20\n      dup1\n      swap2\n      div\n      mul\n      0x20\n      add\n      mload(0x40)\n      swap1\n      dup2\n      add\n      0x40\n      mstore\n      dup1\n      swap3\n      swap2\n      swap1\n      dup2\n      dup2\n      mstore\n      0x20\n      add\n      dup3\n      dup1\n      sload\n      tag_213\n      swap1\n      tag_158\n      jump\t// in\n    tag_213:\n      dup1\n      iszero\n      tag_214\n      jumpi\n      dup1\n      0x1f\n      lt\n      tag_215\n      jumpi\n      0x0100\n      dup1\n      dup4\n      sload\n      div\n      mul\n      dup4\n      mstore\n      swap2\n      0x20\n      add\n      swap2\n      jump(tag_214)\n    tag_215:\n      dup3\n      add\n      swap2\n      swap1\n      0x00\n      mstore\n      keccak256(0x00, 0x20)\n      swap1\n    tag_216:\n      dup2\n      sload\n      dup2\n      mstore\n      swap1\n      0x01\n      add\n      swap1\n      0x20\n      add\n      dup1\n      dup4\n      gt\n      tag_216\n      jumpi\n      dup3\n      swap1\n      sub\n      0x1f\n      and\n      dup3\n      add\n      swap2\n    tag_214:\n      pop\n      pop\n      pop\n      pop\n      pop\n      swap1\n      pop\n        /* \"@openzeppelin/contracts/token/ERC20/ERC20.sol\":1962:2055  function symbol() public view virtual returns (string memory) {... */\n      swap1\n      jump\t// out\n        /* \"contracts/CCK/CCKToken.sol\":600:641  mapping(address => bool) public whitelist */\n    tag_113:\n      mstore(0x20, 0x06)\n      dup1\n      0x00\n      mstore\n      keccak256(0x00, 0x40)\n      0x00\n      swap2\n      pop\n      sload\n      swap1\n      0x0100\n      exp\n      swap1\n      div\n      0xff\n      and\n      dup2\n      jump\t// out\n        /* \"contracts/CCK/CCKToken.sol\":3007:3292  function transfer(address recipient, uint256 amount) public override returns (bool) {... */\n    tag_117:\n        /* \"contracts/CCK/CCKToken.sol\":3085:3089  bool */\n      0x00\n        /* \"contracts/CCK/CCKToken.sol\":3111:3117  frozen */\n      0x07\n        /* \"contracts/CCK/CCKToken.sol\":3111:3129  frozen[msg.sender] */\n      0x00\n        /* \"contracts/CCK/CCKToken.sol\":3118:3128  msg.sender */\n      caller\n        /* \"contracts/CCK/CCKToken.sol\":3111:3129  frozen[msg.sender] */\n      0xffffffffffffffffffffffffffffffffffffffff\n      and\n      0xffffffffffffffffffffffffffffffffffffffff\n      and\n      dup2\n      mstore\n      0x20\n      add\n      swap1\n      dup2\n      mstore\n      0x20\n      add\n      0x00\n      keccak256\n      0x00\n      swap1\n      sload\n      swap1\n      0x0100\n      exp\n      swap1\n      div\n      0xff\n      and\n        /* \"contracts/CCK/CCKToken.sol\":3110:3129  !frozen[msg.sender] */\n      iszero\n        /* \"contracts/CCK/CCKToken.sol\":3102:3150  require(!frozen[msg.sender], \"Sender is frozen\") */\n      tag_218\n      jumpi\n      mload(0x40)\n      0x08c379a000000000000000000000000000000000000000000000000000000000\n      dup2\n      mstore\n      0x04\n      add\n      tag_219\n      swap1\n      tag_176\n      jump\t// in\n    tag_219:\n      mload(0x40)\n      dup1\n      swap2\n      sub\n      swap1\n      revert\n    tag_218:\n        /* \"contracts/CCK/CCKToken.sol\":3195:3201  amount */\n      dup2\n        /* \"contracts/CCK/CCKToken.sol\":3179:3203  uint256(uint128(amount)) */\n      0xffffffffffffffffffffffffffffffff\n      and\n        /* \"contracts/CCK/CCKToken.sol\":3169:3175  amount */\n      dup3\n        /* \"contracts/CCK/CCKToken.sol\":3169:3203  amount == uint256(uint128(amount)) */\n      eq\n        /* \"contracts/CCK/CCKToken.sol\":3161:3233  require(amount == uint256(uint128(amount)), \"Amount must be an integer\") */\n      tag_220\n      jumpi\n      mload(0x40)\n      0x08c379a000000000000000000000000000000000000000000000000000000000\n      dup2\n      mstore\n      0x04\n      add\n      tag_221\n      swap1\n      tag_179\n      jump\t// in\n    tag_221:\n      mload(0x40)\n      dup1\n      swap2\n      sub\n      swap1\n      revert\n    tag_220:\n        /* \"contracts/CCK/CCKToken.sol\":3251:3284  super.transfer(recipient, amount) */\n      tag_222\n        /* \"contracts/CCK/CCKToken.sol\":3266:3275  recipient */\n      dup4\n        /* \"contracts/CCK/CCKToken.sol\":3277:3283  amount */\n      dup4\n        /* \"contracts/CCK/CCKToken.sol\":3251:3265  super.transfer */\n      tag_223\n        /* \"contracts/CCK/CCKToken.sol\":3251:3284  super.transfer(recipient, amount) */\n      jump\t// in\n    tag_222:\n        /* \"contracts/CCK/CCKToken.sol\":3244:3284  return super.transfer(recipient, amount) */\n      swap1\n      pop\n        /* \"contracts/CCK/CCKToken.sol\":3007:3292  function transfer(address recipient, uint256 amount) public override returns (bool) {... */\n      swap3\n      swap2\n      pop\n      pop\n      jump\t// out\n        /* \"contracts/CCK/CCKToken.sol\":2021:2122  function onchainID() external view override returns (address) {... */\n    tag_120:\n        /* \"contracts/CCK/CCKToken.sol\":2074:2081  address */\n      0x00\n        /* \"contracts/CCK/CCKToken.sol\":2109:2113  this */\n      address\n        /* \"contracts/CCK/CCKToken.sol\":2094:2114  return address(this) */\n      swap1\n      pop\n        /* \"contracts/CCK/CCKToken.sol\":2021:2122  function onchainID() external view override returns (address) {... */\n      swap1\n      jump\t// out\n        /* \"contracts/CCK/CCKToken.sol\":722:748  address public uniswapPool */\n    tag_123:\n      0x08\n      0x00\n      swap1\n      sload\n      swap1\n      0x0100\n      exp\n      swap1\n      div\n      0xffffffffffffffffffffffffffffffffffffffff\n      and\n      dup2\n      jump\t// out\n        /* \"contracts/CCK/CCKToken.sol\":1685:1779  function unfreezeUser(address user) external onlyOwner {... */\n    tag_127:\n        /* \"@openzeppelin/contracts/access/Ownable.sol\":1531:1544  _checkOwner() */\n      tag_226\n        /* \"@openzeppelin/contracts/access/Ownable.sol\":1531:1542  _checkOwner */\n      tag_185\n        /* \"@openzeppelin/contracts/access/Ownable.sol\":1531:1544  _checkOwner() */\n      jump\t// in\n    tag_226:\n        /* \"contracts/CCK/CCKToken.sol\":1766:1771  false */\n      0x00\n        /* \"contracts/CCK/CCKToken.sol\":1751:1757  frozen */\n      0x07\n        /* \"contracts/CCK/CCKToken.sol\":1751:1763  frozen[user] */\n      0x00\n        /* \"contracts/CCK/CCKToken.sol\":1758:1762  user */\n      dup4\n        /* \"contracts/CCK/CCKToken.sol\":1751:1763  frozen[user] */\n      0xffffffffffffffffffffffffffffffffffffffff\n      and\n      0xffffffffffffffffffffffffffffffffffffffff\n      and\n      dup2\n      mstore\n      0x20\n      add\n      swap1\n      dup2\n      mstore\n      0x20\n      add\n      0x00\n      keccak256\n      0x00\n        /* \"contracts/CCK/CCKToken.sol\":1751:1771  frozen[user] = false */\n      0x0100\n      exp\n      dup2\n      sload\n      dup2\n      0xff\n      mul\n      not\n      and\n      swap1\n      dup4\n      iszero\n      iszero\n      mul\n      or\n      swap1\n      sstore\n      pop\n        /* \"contracts/CCK/CCKToken.sol\":1685:1779  function unfreezeUser(address user) external onlyOwner {... */\n      pop\n      jump\t// out\n        /* \"contracts/CCK/CCKToken.sol\":661:699  mapping(address => bool) public frozen */\n    tag_130:\n      mstore(0x20, 0x07)\n      dup1\n      0x00\n      mstore\n      keccak256(0x00, 0x40)\n      0x00\n      swap2\n      pop\n      sload\n      swap1\n      0x0100\n      exp\n      swap1\n      div\n      0xff\n      and\n      dup2\n      jump\t// out\n        /* \"contracts/CCK/CCKToken.sol\":1832:1978  function remainingSupply() external view returns (uint256) {... */\n    tag_133:\n        /* \"contracts/CCK/CCKToken.sol\":1882:1889  uint256 */\n      0x00\n        /* \"contracts/CCK/CCKToken.sol\":1924:1936  mintedAmount */\n      sload(0x09)\n        /* \"contracts/CCK/CCKToken.sol\":561:577  500_000 * 10**18 */\n      0x69e10de76676d0800000\n        /* \"contracts/CCK/CCKToken.sol\":1909:1936  TOTAL_SUPPLY - mintedAmount */\n      tag_229\n      swap2\n      swap1\n      tag_230\n      jump\t// in\n    tag_229:\n        /* \"contracts/CCK/CCKToken.sol\":1902:1936  return TOTAL_SUPPLY - mintedAmount */\n      swap1\n      pop\n        /* \"contracts/CCK/CCKToken.sol\":1832:1978  function remainingSupply() external view returns (uint256) {... */\n      swap1\n      jump\t// out\n        /* \"@openzeppelin/contracts/token/ERC20/ERC20.sol\":3532:3672  function allowance(address owner, address spender) public view virtual returns (uint256) {... */\n    tag_138:\n        /* \"@openzeppelin/contracts/token/ERC20/ERC20.sol\":3612:3619  uint256 */\n      0x00\n        /* \"@openzeppelin/contracts/token/ERC20/ERC20.sol\":3638:3649  _allowances */\n      0x01\n        /* \"@openzeppelin/contracts/token/ERC20/ERC20.sol\":3638:3656  _allowances[owner] */\n      0x00\n        /* \"@openzeppelin/contracts/token/ERC20/ERC20.sol\":3650:3655  owner */\n      dup5\n        /* \"@openzeppelin/contracts/token/ERC20/ERC20.sol\":3638:3656  _allowances[owner] */\n      0xffffffffffffffffffffffffffffffffffffffff\n      and\n      0xffffffffffffffffffffffffffffffffffffffff\n      and\n      dup2\n      mstore\n      0x20\n      add\n      swap1\n      dup2\n      mstore\n      0x20\n      add\n      0x00\n      keccak256\n        /* \"@openzeppelin/contracts/token/ERC20/ERC20.sol\":3638:3665  _allowances[owner][spender] */\n      0x00\n        /* \"@openzeppelin/contracts/token/ERC20/ERC20.sol\":3657:3664  spender */\n      dup4\n        /* \"@openzeppelin/contracts/token/ERC20/ERC20.sol\":3638:3665  _allowances[owner][spender] */\n      0xffffffffffffffffffffffffffffffffffffffff\n      and\n      0xffffffffffffffffffffffffffffffffffffffff\n      and\n      dup2\n      mstore\n      0x20\n      add\n      swap1\n      dup2\n      mstore\n      0x20\n      add\n      0x00\n      keccak256\n      sload\n        /* \"@openzeppelin/contracts/token/ERC20/ERC20.sol\":3631:3665  return _allowances[owner][spender] */\n      swap1\n      pop\n        /* \"@openzeppelin/contracts/token/ERC20/ERC20.sol\":3532:3672  function allowance(address owner, address spender) public view virtual returns (uint256) {... */\n      swap3\n      swap2\n      pop\n      pop\n      jump\t// out\n        /* \"contracts/CCK/CCKToken.sol\":1565:1656  function freezeUser(address user) external onlyOwner {... */\n    tag_142:\n        /* \"@openzeppelin/contracts/access/Ownable.sol\":1531:1544  _checkOwner() */\n      tag_233\n        /* \"@openzeppelin/contracts/access/Ownable.sol\":1531:1542  _checkOwner */\n      tag_185\n        /* \"@openzeppelin/contracts/access/Ownable.sol\":1531:1544  _checkOwner() */\n      jump\t// in\n    tag_233:\n        /* \"contracts/CCK/CCKToken.sol\":1644:1648  true */\n      0x01\n        /* \"contracts/CCK/CCKToken.sol\":1629:1635  frozen */\n      0x07\n        /* \"contracts/CCK/CCKToken.sol\":1629:1641  frozen[user] */\n      0x00\n        /* \"contracts/CCK/CCKToken.sol\":1636:1640  user */\n      dup4\n        /* \"contracts/CCK/CCKToken.sol\":1629:1641  frozen[user] */\n      0xffffffffffffffffffffffffffffffffffffffff\n      and\n      0xffffffffffffffffffffffffffffffffffffffff\n      and\n      dup2\n      mstore\n      0x20\n      add\n      swap1\n      dup2\n      mstore\n      0x20\n      add\n      0x00\n      keccak256\n      0x00\n        /* \"contracts/CCK/CCKToken.sol\":1629:1648  frozen[user] = true */\n      0x0100\n      exp\n      dup2\n      sload\n      dup2\n      0xff\n      mul\n      not\n      and\n      swap1\n      dup4\n      iszero\n      iszero\n      mul\n      or\n      swap1\n      sstore\n      pop\n        /* \"contracts/CCK/CCKToken.sol\":1565:1656  function freezeUser(address user) external onlyOwner {... */\n      pop\n      jump\t// out\n        /* \"contracts/CCK/CCKToken.sol\":1288:1390  function addToWhitelist(address member) external onlyOwner {... */\n    tag_145:\n        /* \"@openzeppelin/contracts/access/Ownable.sol\":1531:1544  _checkOwner() */\n      tag_236\n        /* \"@openzeppelin/contracts/access/Ownable.sol\":1531:1542  _checkOwner */\n      tag_185\n        /* \"@openzeppelin/contracts/access/Ownable.sol\":1531:1544  _checkOwner() */\n      jump\t// in\n    tag_236:\n        /* \"contracts/CCK/CCKToken.sol\":1378:1382  true */\n      0x01\n        /* \"contracts/CCK/CCKToken.sol\":1358:1367  whitelist */\n      0x06\n        /* \"contracts/CCK/CCKToken.sol\":1358:1375  whitelist[member] */\n      0x00\n        /* \"contracts/CCK/CCKToken.sol\":1368:1374  member */\n      dup4\n        /* \"contracts/CCK/CCKToken.sol\":1358:1375  whitelist[member] */\n      0xffffffffffffffffffffffffffffffffffffffff\n      and\n      0xffffffffffffffffffffffffffffffffffffffff\n      and\n      dup2\n      mstore\n      0x20\n      add\n      swap1\n      dup2\n      mstore\n      0x20\n      add\n      0x00\n      keccak256\n      0x00\n        /* \"contracts/CCK/CCKToken.sol\":1358:1382  whitelist[member] = true */\n      0x0100\n      exp\n      dup2\n      sload\n      dup2\n      0xff\n      mul\n      not\n      and\n      swap1\n      dup4\n      iszero\n      iszero\n      mul\n      or\n      swap1\n      sstore\n      pop\n        /* \"contracts/CCK/CCKToken.sol\":1288:1390  function addToWhitelist(address member) external onlyOwner {... */\n      pop\n      jump\t// out\n        /* \"contracts/CCK/CCKToken.sol\":2618:2768  function isFrozen(address userAddress) external view override returns (bool) {... */\n    tag_148:\n        /* \"contracts/CCK/CCKToken.sol\":2689:2693  bool */\n      0x00\n        /* \"contracts/CCK/CCKToken.sol\":2713:2719  frozen */\n      0x07\n        /* \"contracts/CCK/CCKToken.sol\":2713:2732  frozen[userAddress] */\n      0x00\n        /* \"contracts/CCK/CCKToken.sol\":2720:2731  userAddress */\n      dup4\n        /* \"contracts/CCK/CCKToken.sol\":2713:2732  frozen[userAddress] */\n      0xffffffffffffffffffffffffffffffffffffffff\n      and\n      0xffffffffffffffffffffffffffffffffffffffff\n      and\n      dup2\n      mstore\n      0x20\n      add\n      swap1\n      dup2\n      mstore\n      0x20\n      add\n      0x00\n      keccak256\n      0x00\n      swap1\n      sload\n      swap1\n      0x0100\n      exp\n      swap1\n      div\n      0xff\n      and\n        /* \"contracts/CCK/CCKToken.sol\":2706:2732  return frozen[userAddress] */\n      swap1\n      pop\n        /* \"contracts/CCK/CCKToken.sol\":2618:2768  function isFrozen(address userAddress) external view override returns (bool) {... */\n      swap2\n      swap1\n      pop\n      jump\t// out\n        /* \"contracts/CCK/CCKToken.sol\":4396:4774  function getCurrentPrice() external view returns (uint256) {... */\n    tag_151:\n        /* \"contracts/CCK/CCKToken.sol\":4446:4453  uint256 */\n      0x00\n        /* \"contracts/CCK/CCKToken.sol\":4466:4485  IUniswapV3Pool pool */\n      0x00\n        /* \"contracts/CCK/CCKToken.sol\":4503:4514  uniswapPool */\n      0x08\n      0x00\n      swap1\n      sload\n      swap1\n      0x0100\n      exp\n      swap1\n      div\n      0xffffffffffffffffffffffffffffffffffffffff\n      and\n        /* \"contracts/CCK/CCKToken.sol\":4466:4515  IUniswapV3Pool pool = IUniswapV3Pool(uniswapPool) */\n      swap1\n      pop\n        /* \"contracts/CCK/CCKToken.sol\":4527:4547  uint160 sqrtPriceX96 */\n      0x00\n        /* \"contracts/CCK/CCKToken.sol\":4563:4567  pool */\n      dup2\n        /* \"contracts/CCK/CCKToken.sol\":4563:4573  pool.slot0 */\n      0xffffffffffffffffffffffffffffffffffffffff\n      and\n      0x3850c7bd\n        /* \"contracts/CCK/CCKToken.sol\":4563:4575  pool.slot0() */\n      mload(0x40)\n      dup2\n      0xffffffff\n      and\n      0xe0\n      shl\n      dup2\n      mstore\n      0x04\n      add\n      0xe0\n      mload(0x40)\n      dup1\n      dup4\n      sub\n      dup2\n      dup7\n      gas\n      staticcall\n      iszero\n      dup1\n      iszero\n      tag_241\n      jumpi\n      returndatacopy(0x00, 0x00, returndatasize)\n      revert(0x00, returndatasize)\n    tag_241:\n      pop\n      pop\n      pop\n      pop\n      mload(0x40)\n      returndatasize\n      not(0x1f)\n      0x1f\n      dup3\n      add\n      and\n      dup3\n      add\n      dup1\n      0x40\n      mstore\n      pop\n      dup2\n      add\n      swap1\n      tag_242\n      swap2\n      swap1\n      tag_243\n      jump\t// in\n    tag_242:\n        /* \"contracts/CCK/CCKToken.sol\":4526:4575  (uint160 sqrtPriceX96, , , , , , ) = pool.slot0() */\n      pop\n      pop\n      pop\n      pop\n      pop\n      pop\n      swap1\n      pop\n        /* \"contracts/CCK/CCKToken.sol\":4642:4655  uint256 price */\n      0x00\n        /* \"contracts/CCK/CCKToken.sol\":4688:4698  2 ** (192) */\n      0x01000000000000000000000000000000000000000000000000\n        /* \"contracts/CCK/CCKToken.sol\":4683:4684  2 */\n      0x02\n        /* \"contracts/CCK/CCKToken.sol\":4666:4678  sqrtPriceX96 */\n      dup4\n        /* \"contracts/CCK/CCKToken.sol\":4658:4679  uint256(sqrtPriceX96) */\n      0xffffffffffffffffffffffffffffffffffffffff\n      and\n        /* \"contracts/CCK/CCKToken.sol\":4658:4684  uint256(sqrtPriceX96) ** 2 */\n      tag_244\n      swap2\n      swap1\n      tag_245\n      jump\t// in\n    tag_244:\n        /* \"contracts/CCK/CCKToken.sol\":4658:4699  uint256(sqrtPriceX96) ** 2 / (2 ** (192)) */\n      tag_246\n      swap2\n      swap1\n      tag_247\n      jump\t// in\n    tag_246:\n        /* \"contracts/CCK/CCKToken.sol\":4642:4699  uint256 price = uint256(sqrtPriceX96) ** 2 / (2 ** (192)) */\n      swap1\n      pop\n        /* \"contracts/CCK/CCKToken.sol\":4739:4744  price */\n      dup1\n        /* \"contracts/CCK/CCKToken.sol\":4732:4744  return price */\n      swap4\n      pop\n      pop\n      pop\n      pop\n        /* \"contracts/CCK/CCKToken.sol\":4396:4774  function getCurrentPrice() external view returns (uint256) {... */\n      swap1\n      jump\t// out\n        /* \"@openzeppelin/contracts/access/Ownable.sol\":2543:2758  function transferOwnership(address newOwner) public virtual onlyOwner {... */\n    tag_155:\n        /* \"@openzeppelin/contracts/access/Ownable.sol\":1531:1544  _checkOwner() */\n      tag_249\n        /* \"@openzeppelin/contracts/access/Ownable.sol\":1531:1542  _checkOwner */\n      tag_185\n        /* \"@openzeppelin/contracts/access/Ownable.sol\":1531:1544  _checkOwner() */\n      jump\t// in\n    tag_249:\n        /* \"@openzeppelin/contracts/access/Ownable.sol\":2647:2648  0 */\n      0x00\n        /* \"@openzeppelin/contracts/access/Ownable.sol\":2627:2649  newOwner == address(0) */\n      0xffffffffffffffffffffffffffffffffffffffff\n      and\n        /* \"@openzeppelin/contracts/access/Ownable.sol\":2627:2635  newOwner */\n      dup2\n        /* \"@openzeppelin/contracts/access/Ownable.sol\":2627:2649  newOwner == address(0) */\n      0xffffffffffffffffffffffffffffffffffffffff\n      and\n      sub\n        /* \"@openzeppelin/contracts/access/Ownable.sol\":2623:2714  if (newOwner == address(0)) {... */\n      tag_251\n      jumpi\n        /* \"@openzeppelin/contracts/access/Ownable.sol\":2700:2701  0 */\n      0x00\n        /* \"@openzeppelin/contracts/access/Ownable.sol\":2672:2703  OwnableInvalidOwner(address(0)) */\n      mload(0x40)\n      0x1e4fbdf700000000000000000000000000000000000000000000000000000000\n      dup2\n      mstore\n      0x04\n      add\n      tag_252\n      swap2\n      swap1\n      tag_61\n      jump\t// in\n    tag_252:\n      mload(0x40)\n      dup1\n      swap2\n      sub\n      swap1\n      revert\n        /* \"@openzeppelin/contracts/access/Ownable.sol\":2623:2714  if (newOwner == address(0)) {... */\n    tag_251:\n        /* \"@openzeppelin/contracts/access/Ownable.sol\":2723:2751  _transferOwnership(newOwner) */\n      tag_253\n        /* \"@openzeppelin/contracts/access/Ownable.sol\":2742:2750  newOwner */\n      dup2\n        /* \"@openzeppelin/contracts/access/Ownable.sol\":2723:2741  _transferOwnership */\n      tag_206\n        /* \"@openzeppelin/contracts/access/Ownable.sol\":2723:2751  _transferOwnership(newOwner) */\n      jump\t// in\n    tag_253:\n        /* \"@openzeppelin/contracts/access/Ownable.sol\":2543:2758  function transferOwnership(address newOwner) public virtual onlyOwner {... */\n      pop\n      jump\t// out\n        /* \"@openzeppelin/contracts/utils/Context.sol\":656:752  function _msgSender() internal view virtual returns (address) {... */\n    tag_165:\n        /* \"@openzeppelin/contracts/utils/Context.sol\":709:716  address */\n      0x00\n        /* \"@openzeppelin/contracts/utils/Context.sol\":735:745  msg.sender */\n      caller\n        /* \"@openzeppelin/contracts/utils/Context.sol\":728:745  return msg.sender */\n      swap1\n      pop\n        /* \"@openzeppelin/contracts/utils/Context.sol\":656:752  function _msgSender() internal view virtual returns (address) {... */\n      swap1\n      jump\t// out\n        /* \"@openzeppelin/contracts/token/ERC20/ERC20.sol\":8707:8835  function _approve(address owner, address spender, uint256 value) internal {... */\n    tag_167:\n        /* \"@openzeppelin/contracts/token/ERC20/ERC20.sol\":8791:8828  _approve(owner, spender, value, true) */\n      tag_256\n        /* \"@openzeppelin/contracts/token/ERC20/ERC20.sol\":8800:8805  owner */\n      dup4\n        /* \"@openzeppelin/contracts/token/ERC20/ERC20.sol\":8807:8814  spender */\n      dup4\n        /* \"@openzeppelin/contracts/token/ERC20/ERC20.sol\":8816:8821  value */\n      dup4\n        /* \"@openzeppelin/contracts/token/ERC20/ERC20.sol\":8823:8827  true */\n      0x01\n        /* \"@openzeppelin/contracts/token/ERC20/ERC20.sol\":8791:8799  _approve */\n      tag_257\n        /* \"@openzeppelin/contracts/token/ERC20/ERC20.sol\":8791:8828  _approve(owner, spender, value, true) */\n      jump\t// in\n    tag_256:\n        /* \"@openzeppelin/contracts/token/ERC20/ERC20.sol\":8707:8835  function _approve(address owner, address spender, uint256 value) internal {... */\n      pop\n      pop\n      pop\n      jump\t// out\n        /* \"@openzeppelin/contracts/token/ERC20/ERC20.sol\":4757:5001  function transferFrom(address from, address to, uint256 value) public virtual returns (bool) {... */\n    tag_181:\n        /* \"@openzeppelin/contracts/token/ERC20/ERC20.sol\":4844:4848  bool */\n      0x00\n        /* \"@openzeppelin/contracts/token/ERC20/ERC20.sol\":4860:4875  address spender */\n      0x00\n        /* \"@openzeppelin/contracts/token/ERC20/ERC20.sol\":4878:4890  _msgSender() */\n      tag_259\n        /* \"@openzeppelin/contracts/token/ERC20/ERC20.sol\":4878:4888  _msgSender */\n      tag_165\n        /* \"@openzeppelin/contracts/token/ERC20/ERC20.sol\":4878:4890  _msgSender() */\n      jump\t// in\n    tag_259:\n        /* \"@openzeppelin/contracts/token/ERC20/ERC20.sol\":4860:4890  address spender = _msgSender() */\n      swap1\n      pop\n        /* \"@openzeppelin/contracts/token/ERC20/ERC20.sol\":4900:4937  _spendAllowance(from, spender, value) */\n      tag_260\n        /* \"@openzeppelin/contracts/token/ERC20/ERC20.sol\":4916:4920  from */\n      dup6\n        /* \"@openzeppelin/contracts/token/ERC20/ERC20.sol\":4922:4929  spender */\n      dup3\n        /* \"@openzeppelin/contracts/token/ERC20/ERC20.sol\":4931:4936  value */\n      dup6\n        /* \"@openzeppelin/contracts/token/ERC20/ERC20.sol\":4900:4915  _spendAllowance */\n      tag_261\n        /* \"@openzeppelin/contracts/token/ERC20/ERC20.sol\":4900:4937  _spendAllowance(from, spender, value) */\n      jump\t// in\n    tag_260:\n        /* \"@openzeppelin/contracts/token/ERC20/ERC20.sol\":4947:4973  _transfer(from, to, value) */\n      tag_262\n        /* \"@openzeppelin/contracts/token/ERC20/ERC20.sol\":4957:4961  from */\n      dup6\n        /* \"@openzeppelin/contracts/token/ERC20/ERC20.sol\":4963:4965  to */\n      dup6\n        /* \"@openzeppelin/contracts/token/ERC20/ERC20.sol\":4967:4972  value */\n      dup6\n        /* \"@openzeppelin/contracts/token/ERC20/ERC20.sol\":4947:4956  _transfer */\n      tag_263\n        /* \"@openzeppelin/contracts/token/ERC20/ERC20.sol\":4947:4973  _transfer(from, to, value) */\n      jump\t// in\n    tag_262:\n        /* \"@openzeppelin/contracts/token/ERC20/ERC20.sol\":4990:4994  true */\n      0x01\n        /* \"@openzeppelin/contracts/token/ERC20/ERC20.sol\":4983:4994  return true */\n      swap2\n      pop\n      pop\n        /* \"@openzeppelin/contracts/token/ERC20/ERC20.sol\":4757:5001  function transferFrom(address from, address to, uint256 value) public virtual returns (bool) {... */\n      swap4\n      swap3\n      pop\n      pop\n      pop\n      jump\t// out\n        /* \"@openzeppelin/contracts/access/Ownable.sol\":1796:1958  function _checkOwner() internal view virtual {... */\n    tag_185:\n        /* \"@openzeppelin/contracts/access/Ownable.sol\":1866:1878  _msgSender() */\n      tag_265\n        /* \"@openzeppelin/contracts/access/Ownable.sol\":1866:1876  _msgSender */\n      tag_165\n        /* \"@openzeppelin/contracts/access/Ownable.sol\":1866:1878  _msgSender() */\n      jump\t// in\n    tag_265:\n        /* \"@openzeppelin/contracts/access/Ownable.sol\":1855:1878  owner() != _msgSender() */\n      0xffffffffffffffffffffffffffffffffffffffff\n      and\n        /* \"@openzeppelin/contracts/access/Ownable.sol\":1855:1862  owner() */\n      tag_266\n        /* \"@openzeppelin/contracts/access/Ownable.sol\":1855:1860  owner */\n      tag_103\n        /* \"@openzeppelin/contracts/access/Ownable.sol\":1855:1862  owner() */\n      jump\t// in\n    tag_266:\n        /* \"@openzeppelin/contracts/access/Ownable.sol\":1855:1878  owner() != _msgSender() */\n      0xffffffffffffffffffffffffffffffffffffffff\n      and\n      eq\n        /* \"@openzeppelin/contracts/access/Ownable.sol\":1851:1952  if (owner() != _msgSender()) {... */\n      tag_267\n      jumpi\n        /* \"@openzeppelin/contracts/access/Ownable.sol\":1928:1940  _msgSender() */\n      tag_268\n        /* \"@openzeppelin/contracts/access/Ownable.sol\":1928:1938  _msgSender */\n      tag_165\n        /* \"@openzeppelin/contracts/access/Ownable.sol\":1928:1940  _msgSender() */\n      jump\t// in\n    tag_268:\n        /* \"@openzeppelin/contracts/access/Ownable.sol\":1901:1941  OwnableUnauthorizedAccount(_msgSender()) */\n      mload(0x40)\n      0x118cdaa700000000000000000000000000000000000000000000000000000000\n      dup2\n      mstore\n      0x04\n      add\n      tag_269\n      swap2\n      swap1\n      tag_61\n      jump\t// in\n    tag_269:\n      mload(0x40)\n      dup1\n      swap2\n      sub\n      swap1\n      revert\n        /* \"@openzeppelin/contracts/access/Ownable.sol\":1851:1952  if (owner() != _msgSender()) {... */\n    tag_267:\n        /* \"@openzeppelin/contracts/access/Ownable.sol\":1796:1958  function _checkOwner() internal view virtual {... */\n      jump\t// out\n        /* \"@openzeppelin/contracts/token/ERC20/ERC20.sol\":7439:7647  function _mint(address account, uint256 value) internal {... */\n    tag_196:\n        /* \"@openzeppelin/contracts/token/ERC20/ERC20.sol\":7528:7529  0 */\n      0x00\n        /* \"@openzeppelin/contracts/token/ERC20/ERC20.sol\":7509:7530  account == address(0) */\n      0xffffffffffffffffffffffffffffffffffffffff\n      and\n        /* \"@openzeppelin/contracts/token/ERC20/ERC20.sol\":7509:7516  account */\n      dup3\n        /* \"@openzeppelin/contracts/token/ERC20/ERC20.sol\":7509:7530  account == address(0) */\n      0xffffffffffffffffffffffffffffffffffffffff\n      and\n      sub\n        /* \"@openzeppelin/contracts/token/ERC20/ERC20.sol\":7505:7596  if (account == address(0)) {... */\n      tag_271\n      jumpi\n        /* \"@openzeppelin/contracts/token/ERC20/ERC20.sol\":7582:7583  0 */\n      0x00\n        /* \"@openzeppelin/contracts/token/ERC20/ERC20.sol\":7553:7585  ERC20InvalidReceiver(address(0)) */\n      mload(0x40)\n      0xec442f0500000000000000000000000000000000000000000000000000000000\n      dup2\n      mstore\n      0x04\n      add\n      tag_272\n      swap2\n      swap1\n      tag_61\n      jump\t// in\n    tag_272:\n      mload(0x40)\n      dup1\n      swap2\n      sub\n      swap1\n      revert\n        /* \"@openzeppelin/contracts/token/ERC20/ERC20.sol\":7505:7596  if (account == address(0)) {... */\n    tag_271:\n        /* \"@openzeppelin/contracts/token/ERC20/ERC20.sol\":7605:7640  _update(address(0), account, value) */\n      tag_273\n        /* \"@openzeppelin/contracts/token/ERC20/ERC20.sol\":7621:7622  0 */\n      0x00\n        /* \"@openzeppelin/contracts/token/ERC20/ERC20.sol\":7625:7632  account */\n      dup4\n        /* \"@openzeppelin/contracts/token/ERC20/ERC20.sol\":7634:7639  value */\n      dup4\n        /* \"@openzeppelin/contracts/token/ERC20/ERC20.sol\":7605:7612  _update */\n      tag_274\n        /* \"@openzeppelin/contracts/token/ERC20/ERC20.sol\":7605:7640  _update(address(0), account, value) */\n      jump\t// in\n    tag_273:\n        /* \"@openzeppelin/contracts/token/ERC20/ERC20.sol\":7439:7647  function _mint(address account, uint256 value) internal {... */\n      pop\n      pop\n      jump\t// out\n        /* \"@openzeppelin/contracts/access/Ownable.sol\":2912:3099  function _transferOwnership(address newOwner) internal virtual {... */\n    tag_206:\n        /* \"@openzeppelin/contracts/access/Ownable.sol\":2985:3001  address oldOwner */\n      0x00\n        /* \"@openzeppelin/contracts/access/Ownable.sol\":3004:3010  _owner */\n      0x05\n      0x00\n      swap1\n      sload\n      swap1\n      0x0100\n      exp\n      swap1\n      div\n      0xffffffffffffffffffffffffffffffffffffffff\n      and\n        /* \"@openzeppelin/contracts/access/Ownable.sol\":2985:3010  address oldOwner = _owner */\n      swap1\n      pop\n        /* \"@openzeppelin/contracts/access/Ownable.sol\":3029:3037  newOwner */\n      dup2\n        /* \"@openzeppelin/contracts/access/Ownable.sol\":3020:3026  _owner */\n      0x05\n      0x00\n        /* \"@openzeppelin/contracts/access/Ownable.sol\":3020:3037  _owner = newOwner */\n      0x0100\n      exp\n      dup2\n      sload\n      dup2\n      0xffffffffffffffffffffffffffffffffffffffff\n      mul\n      not\n      and\n      swap1\n      dup4\n      0xffffffffffffffffffffffffffffffffffffffff\n      and\n      mul\n      or\n      swap1\n      sstore\n      pop\n        /* \"@openzeppelin/contracts/access/Ownable.sol\":3083:3091  newOwner */\n      dup2\n        /* \"@openzeppelin/contracts/access/Ownable.sol\":3052:3092  OwnershipTransferred(oldOwner, newOwner) */\n      0xffffffffffffffffffffffffffffffffffffffff\n      and\n        /* \"@openzeppelin/contracts/access/Ownable.sol\":3073:3081  oldOwner */\n      dup2\n        /* \"@openzeppelin/contracts/access/Ownable.sol\":3052:3092  OwnershipTransferred(oldOwner, newOwner) */\n      0xffffffffffffffffffffffffffffffffffffffff\n      and\n      0x8be0079c531659141344cd1fd0a4f28419497f9722a3daafe3b4186f6b6457e0\n      mload(0x40)\n      mload(0x40)\n      dup1\n      swap2\n      sub\n      swap1\n      log3\n        /* \"@openzeppelin/contracts/access/Ownable.sol\":2975:3099  {... */\n      pop\n        /* \"@openzeppelin/contracts/access/Ownable.sol\":2912:3099  function _transferOwnership(address newOwner) internal virtual {... */\n      pop\n      jump\t// out\n        /* \"@openzeppelin/contracts/token/ERC20/ERC20.sol\":3296:3474  function transfer(address to, uint256 value) public virtual returns (bool) {... */\n    tag_223:\n        /* \"@openzeppelin/contracts/token/ERC20/ERC20.sol\":3365:3369  bool */\n      0x00\n        /* \"@openzeppelin/contracts/token/ERC20/ERC20.sol\":3381:3394  address owner */\n      0x00\n        /* \"@openzeppelin/contracts/token/ERC20/ERC20.sol\":3397:3409  _msgSender() */\n      tag_277\n        /* \"@openzeppelin/contracts/token/ERC20/ERC20.sol\":3397:3407  _msgSender */\n      tag_165\n        /* \"@openzeppelin/contracts/token/ERC20/ERC20.sol\":3397:3409  _msgSender() */\n      jump\t// in\n    tag_277:\n        /* \"@openzeppelin/contracts/token/ERC20/ERC20.sol\":3381:3409  address owner = _msgSender() */\n      swap1\n      pop\n        /* \"@openzeppelin/contracts/token/ERC20/ERC20.sol\":3419:3446  _transfer(owner, to, value) */\n      tag_278\n        /* \"@openzeppelin/contracts/token/ERC20/ERC20.sol\":3429:3434  owner */\n      dup2\n        /* \"@openzeppelin/contracts/token/ERC20/ERC20.sol\":3436:3438  to */\n      dup6\n        /* \"@openzeppelin/contracts/token/ERC20/ERC20.sol\":3440:3445  value */\n      dup6\n        /* \"@openzeppelin/contracts/token/ERC20/ERC20.sol\":3419:3428  _transfer */\n      tag_263\n        /* \"@openzeppelin/contracts/token/ERC20/ERC20.sol\":3419:3446  _transfer(owner, to, value) */\n      jump\t// in\n    tag_278:\n        /* \"@openzeppelin/contracts/token/ERC20/ERC20.sol\":3463:3467  true */\n      0x01\n        /* \"@openzeppelin/contracts/token/ERC20/ERC20.sol\":3456:3467  return true */\n      swap2\n      pop\n      pop\n        /* \"@openzeppelin/contracts/token/ERC20/ERC20.sol\":3296:3474  function transfer(address to, uint256 value) public virtual returns (bool) {... */\n      swap3\n      swap2\n      pop\n      pop\n      jump\t// out\n        /* \"@openzeppelin/contracts/token/ERC20/ERC20.sol\":9682:10114  function _approve(address owner, address spender, uint256 value, bool emitEvent) internal virtual {... */\n    tag_257:\n        /* \"@openzeppelin/contracts/token/ERC20/ERC20.sol\":9811:9812  0 */\n      0x00\n        /* \"@openzeppelin/contracts/token/ERC20/ERC20.sol\":9794:9813  owner == address(0) */\n      0xffffffffffffffffffffffffffffffffffffffff\n      and\n        /* \"@openzeppelin/contracts/token/ERC20/ERC20.sol\":9794:9799  owner */\n      dup5\n        /* \"@openzeppelin/contracts/token/ERC20/ERC20.sol\":9794:9813  owner == address(0) */\n      0xffffffffffffffffffffffffffffffffffffffff\n      and\n      sub\n        /* \"@openzeppelin/contracts/token/ERC20/ERC20.sol\":9790:9879  if (owner == address(0)) {... */\n      tag_280\n      jumpi\n        /* \"@openzeppelin/contracts/token/ERC20/ERC20.sol\":9865:9866  0 */\n      0x00\n        /* \"@openzeppelin/contracts/token/ERC20/ERC20.sol\":9836:9868  ERC20InvalidApprover(address(0)) */\n      mload(0x40)\n      0xe602df0500000000000000000000000000000000000000000000000000000000\n      dup2\n      mstore\n      0x04\n      add\n      tag_281\n      swap2\n      swap1\n      tag_61\n      jump\t// in\n    tag_281:\n      mload(0x40)\n      dup1\n      swap2\n      sub\n      swap1\n      revert\n        /* \"@openzeppelin/contracts/token/ERC20/ERC20.sol\":9790:9879  if (owner == address(0)) {... */\n    tag_280:\n        /* \"@openzeppelin/contracts/token/ERC20/ERC20.sol\":9911:9912  0 */\n      0x00\n        /* \"@openzeppelin/contracts/token/ERC20/ERC20.sol\":9892:9913  spender == address(0) */\n      0xffffffffffffffffffffffffffffffffffffffff\n      and\n        /* \"@openzeppelin/contracts/token/ERC20/ERC20.sol\":9892:9899  spender */\n      dup4\n        /* \"@openzeppelin/contracts/token/ERC20/ERC20.sol\":9892:9913  spender == address(0) */\n      0xffffffffffffffffffffffffffffffffffffffff\n      and\n      sub\n        /* \"@openzeppelin/contracts/token/ERC20/ERC20.sol\":9888:9978  if (spender == address(0)) {... */\n      tag_282\n      jumpi\n        /* \"@openzeppelin/contracts/token/ERC20/ERC20.sol\":9964:9965  0 */\n      0x00\n        /* \"@openzeppelin/contracts/token/ERC20/ERC20.sol\":9936:9967  ERC20InvalidSpender(address(0)) */\n      mload(0x40)\n      0x94280d6200000000000000000000000000000000000000000000000000000000\n      dup2\n      mstore\n      0x04\n      add\n      tag_283\n      swap2\n      swap1\n      tag_61\n      jump\t// in\n    tag_283:\n      mload(0x40)\n      dup1\n      swap2\n      sub\n      swap1\n      revert\n        /* \"@openzeppelin/contracts/token/ERC20/ERC20.sol\":9888:9978  if (spender == address(0)) {... */\n    tag_282:\n        /* \"@openzeppelin/contracts/token/ERC20/ERC20.sol\":10017:10022  value */\n      dup2\n        /* \"@openzeppelin/contracts/token/ERC20/ERC20.sol\":9987:9998  _allowances */\n      0x01\n        /* \"@openzeppelin/contracts/token/ERC20/ERC20.sol\":9987:10005  _allowances[owner] */\n      0x00\n        /* \"@openzeppelin/contracts/token/ERC20/ERC20.sol\":9999:10004  owner */\n      dup7\n        /* \"@openzeppelin/contracts/token/ERC20/ERC20.sol\":9987:10005  _allowances[owner] */\n      0xffffffffffffffffffffffffffffffffffffffff\n      and\n      0xffffffffffffffffffffffffffffffffffffffff\n      and\n      dup2\n      mstore\n      0x20\n      add\n      swap1\n      dup2\n      mstore\n      0x20\n      add\n      0x00\n      keccak256\n        /* \"@openzeppelin/contracts/token/ERC20/ERC20.sol\":9987:10014  _allowances[owner][spender] */\n      0x00\n        /* \"@openzeppelin/contracts/token/ERC20/ERC20.sol\":10006:10013  spender */\n      dup6\n        /* \"@openzeppelin/contracts/token/ERC20/ERC20.sol\":9987:10014  _allowances[owner][spender] */\n      0xffffffffffffffffffffffffffffffffffffffff\n      and\n      0xffffffffffffffffffffffffffffffffffffffff\n      and\n      dup2\n      mstore\n      0x20\n      add\n      swap1\n      dup2\n      mstore\n      0x20\n      add\n      0x00\n      keccak256\n        /* \"@openzeppelin/contracts/token/ERC20/ERC20.sol\":9987:10022  _allowances[owner][spender] = value */\n      dup2\n      swap1\n      sstore\n      pop\n        /* \"@openzeppelin/contracts/token/ERC20/ERC20.sol\":10036:10045  emitEvent */\n      dup1\n        /* \"@openzeppelin/contracts/token/ERC20/ERC20.sol\":10032:10108  if (emitEvent) {... */\n      iszero\n      tag_284\n      jumpi\n        /* \"@openzeppelin/contracts/token/ERC20/ERC20.sol\":10082:10089  spender */\n      dup3\n        /* \"@openzeppelin/contracts/token/ERC20/ERC20.sol\":10066:10097  Approval(owner, spender, value) */\n      0xffffffffffffffffffffffffffffffffffffffff\n      and\n        /* \"@openzeppelin/contracts/token/ERC20/ERC20.sol\":10075:10080  owner */\n      dup5\n        /* \"@openzeppelin/contracts/token/ERC20/ERC20.sol\":10066:10097  Approval(owner, spender, value) */\n      0xffffffffffffffffffffffffffffffffffffffff\n      and\n      0x8c5be1e5ebec7d5bd14f71427d1e84f3dd0314c0f7b2291e5b200ac8c7c3b925\n        /* \"@openzeppelin/contracts/token/ERC20/ERC20.sol\":10091:10096  value */\n      dup5\n        /* \"@openzeppelin/contracts/token/ERC20/ERC20.sol\":10066:10097  Approval(owner, spender, value) */\n      mload(0x40)\n      tag_285\n      swap2\n      swap1\n      tag_57\n      jump\t// in\n    tag_285:\n      mload(0x40)\n      dup1\n      swap2\n      sub\n      swap1\n      log3\n        /* \"@openzeppelin/contracts/token/ERC20/ERC20.sol\":10032:10108  if (emitEvent) {... */\n    tag_284:\n        /* \"@openzeppelin/contracts/token/ERC20/ERC20.sol\":9682:10114  function _approve(address owner, address spender, uint256 value, bool emitEvent) internal virtual {... */\n      pop\n      pop\n      pop\n      pop\n      jump\t// out\n        /* \"@openzeppelin/contracts/token/ERC20/ERC20.sol\":10396:10872  function _spendAllowance(address owner, address spender, uint256 value) internal virtual {... */\n    tag_261:\n        /* \"@openzeppelin/contracts/token/ERC20/ERC20.sol\":10495:10519  uint256 currentAllowance */\n      0x00\n        /* \"@openzeppelin/contracts/token/ERC20/ERC20.sol\":10522:10547  allowance(owner, spender) */\n      tag_287\n        /* \"@openzeppelin/contracts/token/ERC20/ERC20.sol\":10532:10537  owner */\n      dup5\n        /* \"@openzeppelin/contracts/token/ERC20/ERC20.sol\":10539:10546  spender */\n      dup5\n        /* \"@openzeppelin/contracts/token/ERC20/ERC20.sol\":10522:10531  allowance */\n      tag_138\n        /* \"@openzeppelin/contracts/token/ERC20/ERC20.sol\":10522:10547  allowance(owner, spender) */\n      jump\t// in\n    tag_287:\n        /* \"@openzeppelin/contracts/token/ERC20/ERC20.sol\":10495:10547  uint256 currentAllowance = allowance(owner, spender) */\n      swap1\n      pop\n        /* \"@openzeppelin/contracts/token/ERC20/ERC20.sol\":10580:10597  type(uint256).max */\n      0xffffffffffffffffffffffffffffffffffffffffffffffffffffffffffffffff\n        /* \"@openzeppelin/contracts/token/ERC20/ERC20.sol\":10561:10577  currentAllowance */\n      dup2\n        /* \"@openzeppelin/contracts/token/ERC20/ERC20.sol\":10561:10597  currentAllowance < type(uint256).max */\n      lt\n        /* \"@openzeppelin/contracts/token/ERC20/ERC20.sol\":10557:10866  if (currentAllowance < type(uint256).max) {... */\n      iszero\n      tag_288\n      jumpi\n        /* \"@openzeppelin/contracts/token/ERC20/ERC20.sol\":10636:10641  value */\n      dup2\n        /* \"@openzeppelin/contracts/token/ERC20/ERC20.sol\":10617:10633  currentAllowance */\n      dup2\n        /* \"@openzeppelin/contracts/token/ERC20/ERC20.sol\":10617:10641  currentAllowance < value */\n      lt\n        /* \"@openzeppelin/contracts/token/ERC20/ERC20.sol\":10613:10743  if (currentAllowance < value) {... */\n      iszero\n      tag_289\n      jumpi\n        /* \"@openzeppelin/contracts/token/ERC20/ERC20.sol\":10695:10702  spender */\n      dup3\n        /* \"@openzeppelin/contracts/token/ERC20/ERC20.sol\":10704:10720  currentAllowance */\n      dup2\n        /* \"@openzeppelin/contracts/token/ERC20/ERC20.sol\":10722:10727  value */\n      dup4\n        /* \"@openzeppelin/contracts/token/ERC20/ERC20.sol\":10668:10728  ERC20InsufficientAllowance(spender, currentAllowance, value) */\n      mload(0x40)\n      0xfb8f41b200000000000000000000000000000000000000000000000000000000\n      dup2\n      mstore\n      0x04\n      add\n      tag_290\n      swap4\n      swap3\n      swap2\n      swap1\n      tag_291\n      jump\t// in\n    tag_290:\n      mload(0x40)\n      dup1\n      swap2\n      sub\n      swap1\n      revert\n        /* \"@openzeppelin/contracts/token/ERC20/ERC20.sol\":10613:10743  if (currentAllowance < value) {... */\n    tag_289:\n        /* \"@openzeppelin/contracts/token/ERC20/ERC20.sol\":10784:10841  _approve(owner, spender, currentAllowance - value, false) */\n      tag_292\n        /* \"@openzeppelin/contracts/token/ERC20/ERC20.sol\":10793:10798  owner */\n      dup5\n        /* \"@openzeppelin/contracts/token/ERC20/ERC20.sol\":10800:10807  spender */\n      dup5\n        /* \"@openzeppelin/contracts/token/ERC20/ERC20.sol\":10828:10833  value */\n      dup5\n        /* \"@openzeppelin/contracts/token/ERC20/ERC20.sol\":10809:10825  currentAllowance */\n      dup5\n        /* \"@openzeppelin/contracts/token/ERC20/ERC20.sol\":10809:10833  currentAllowance - value */\n      sub\n        /* \"@openzeppelin/contracts/token/ERC20/ERC20.sol\":10835:10840  false */\n      0x00\n        /* \"@openzeppelin/contracts/token/ERC20/ERC20.sol\":10784:10792  _approve */\n      tag_257\n        /* \"@openzeppelin/contracts/token/ERC20/ERC20.sol\":10784:10841  _approve(owner, spender, currentAllowance - value, false) */\n      jump\t// in\n    tag_292:\n        /* \"@openzeppelin/contracts/token/ERC20/ERC20.sol\":10557:10866  if (currentAllowance < type(uint256).max) {... */\n    tag_288:\n        /* \"@openzeppelin/contracts/token/ERC20/ERC20.sol\":10485:10872  {... */\n      pop\n        /* \"@openzeppelin/contracts/token/ERC20/ERC20.sol\":10396:10872  function _spendAllowance(address owner, address spender, uint256 value) internal virtual {... */\n      pop\n      pop\n      pop\n      jump\t// out\n        /* \"@openzeppelin/contracts/token/ERC20/ERC20.sol\":5374:5674  function _transfer(address from, address to, uint256 value) internal {... */\n    tag_263:\n        /* \"@openzeppelin/contracts/token/ERC20/ERC20.sol\":5473:5474  0 */\n      0x00\n        /* \"@openzeppelin/contracts/token/ERC20/ERC20.sol\":5457:5475  from == address(0) */\n      0xffffffffffffffffffffffffffffffffffffffff\n      and\n        /* \"@openzeppelin/contracts/token/ERC20/ERC20.sol\":5457:5461  from */\n      dup4\n        /* \"@openzeppelin/contracts/token/ERC20/ERC20.sol\":5457:5475  from == address(0) */\n      0xffffffffffffffffffffffffffffffffffffffff\n      and\n      sub\n        /* \"@openzeppelin/contracts/token/ERC20/ERC20.sol\":5453:5539  if (from == address(0)) {... */\n      tag_294\n      jumpi\n        /* \"@openzeppelin/contracts/token/ERC20/ERC20.sol\":5525:5526  0 */\n      0x00\n        /* \"@openzeppelin/contracts/token/ERC20/ERC20.sol\":5498:5528  ERC20InvalidSender(address(0)) */\n      mload(0x40)\n      0x96c6fd1e00000000000000000000000000000000000000000000000000000000\n      dup2\n      mstore\n      0x04\n      add\n      tag_295\n      swap2\n      swap1\n      tag_61\n      jump\t// in\n    tag_295:\n      mload(0x40)\n      dup1\n      swap2\n      sub\n      swap1\n      revert\n        /* \"@openzeppelin/contracts/token/ERC20/ERC20.sol\":5453:5539  if (from == address(0)) {... */\n    tag_294:\n        /* \"@openzeppelin/contracts/token/ERC20/ERC20.sol\":5566:5567  0 */\n      0x00\n        /* \"@openzeppelin/contracts/token/ERC20/ERC20.sol\":5552:5568  to == address(0) */\n      0xffffffffffffffffffffffffffffffffffffffff\n      and\n        /* \"@openzeppelin/contracts/token/ERC20/ERC20.sol\":5552:5554  to */\n      dup3\n        /* \"@openzeppelin/contracts/token/ERC20/ERC20.sol\":5552:5568  to == address(0) */\n      0xffffffffffffffffffffffffffffffffffffffff\n      and\n      sub\n        /* \"@openzeppelin/contracts/token/ERC20/ERC20.sol\":5548:5634  if (to == address(0)) {... */\n      tag_296\n      jumpi\n        /* \"@openzeppelin/contracts/token/ERC20/ERC20.sol\":5620:5621  0 */\n      0x00\n        /* \"@openzeppelin/contracts/token/ERC20/ERC20.sol\":5591:5623  ERC20InvalidReceiver(address(0)) */\n      mload(0x40)\n      0xec442f0500000000000000000000000000000000000000000000000000000000\n      dup2\n      mstore\n      0x04\n      add\n      tag_297\n      swap2\n      swap1\n      tag_61\n      jump\t// in\n    tag_297:\n      mload(0x40)\n      dup1\n      swap2\n      sub\n      swap1\n      revert\n        /* \"@openzeppelin/contracts/token/ERC20/ERC20.sol\":5548:5634  if (to == address(0)) {... */\n    tag_296:\n        /* \"@openzeppelin/contracts/token/ERC20/ERC20.sol\":5643:5667  _update(from, to, value) */\n      tag_298\n        /* \"@openzeppelin/contracts/token/ERC20/ERC20.sol\":5651:5655  from */\n      dup4\n        /* \"@openzeppelin/contracts/token/ERC20/ERC20.sol\":5657:5659  to */\n      dup4\n        /* \"@openzeppelin/contracts/token/ERC20/ERC20.sol\":5661:5666  value */\n      dup4\n        /* \"@openzeppelin/contracts/token/ERC20/ERC20.sol\":5643:5650  _update */\n      tag_274\n        /* \"@openzeppelin/contracts/token/ERC20/ERC20.sol\":5643:5667  _update(from, to, value) */\n      jump\t// in\n    tag_298:\n        /* \"@openzeppelin/contracts/token/ERC20/ERC20.sol\":5374:5674  function _transfer(address from, address to, uint256 value) internal {... */\n      pop\n      pop\n      pop\n      jump\t// out\n        /* \"@openzeppelin/contracts/token/ERC20/ERC20.sol\":5989:7096  function _update(address from, address to, uint256 value) internal virtual {... */\n    tag_274:\n        /* \"@openzeppelin/contracts/token/ERC20/ERC20.sol\":6094:6095  0 */\n      0x00\n        /* \"@openzeppelin/contracts/token/ERC20/ERC20.sol\":6078:6096  from == address(0) */\n      0xffffffffffffffffffffffffffffffffffffffff\n      and\n        /* \"@openzeppelin/contracts/token/ERC20/ERC20.sol\":6078:6082  from */\n      dup4\n        /* \"@openzeppelin/contracts/token/ERC20/ERC20.sol\":6078:6096  from == address(0) */\n      0xffffffffffffffffffffffffffffffffffffffff\n      and\n      sub\n        /* \"@openzeppelin/contracts/token/ERC20/ERC20.sol\":6074:6614  if (from == address(0)) {... */\n      tag_300\n      jumpi\n        /* \"@openzeppelin/contracts/token/ERC20/ERC20.sol\":6230:6235  value */\n      dup1\n        /* \"@openzeppelin/contracts/token/ERC20/ERC20.sol\":6214:6226  _totalSupply */\n      0x02\n      0x00\n        /* \"@openzeppelin/contracts/token/ERC20/ERC20.sol\":6214:6235  _totalSupply += value */\n      dup3\n      dup3\n      sload\n      tag_301\n      swap2\n      swap1\n      tag_191\n      jump\t// in\n    tag_301:\n      swap3\n      pop\n      pop\n      dup2\n      swap1\n      sstore\n      pop\n        /* \"@openzeppelin/contracts/token/ERC20/ERC20.sol\":6074:6614  if (from == address(0)) {... */\n      jump(tag_302)\n    tag_300:\n        /* \"@openzeppelin/contracts/token/ERC20/ERC20.sol\":6266:6285  uint256 fromBalance */\n      0x00\n        /* \"@openzeppelin/contracts/token/ERC20/ERC20.sol\":6288:6297  _balances */\n      0x00\n        /* \"@openzeppelin/contracts/token/ERC20/ERC20.sol\":6288:6303  _balances[from] */\n      0x00\n        /* \"@openzeppelin/contracts/token/ERC20/ERC20.sol\":6298:6302  from */\n      dup6\n        /* \"@openzeppelin/contracts/token/ERC20/ERC20.sol\":6288:6303  _balances[from] */\n      0xffffffffffffffffffffffffffffffffffffffff\n      and\n      0xffffffffffffffffffffffffffffffffffffffff\n      and\n      dup2\n      mstore\n      0x20\n      add\n      swap1\n      dup2\n      mstore\n      0x20\n      add\n      0x00\n      keccak256\n      sload\n        /* \"@openzeppelin/contracts/token/ERC20/ERC20.sol\":6266:6303  uint256 fromBalance = _balances[from] */\n      swap1\n      pop\n        /* \"@openzeppelin/contracts/token/ERC20/ERC20.sol\":6335:6340  value */\n      dup2\n        /* \"@openzeppelin/contracts/token/ERC20/ERC20.sol\":6321:6332  fromBalance */\n      dup2\n        /* \"@openzeppelin/contracts/token/ERC20/ERC20.sol\":6321:6340  fromBalance < value */\n      lt\n        /* \"@openzeppelin/contracts/token/ERC20/ERC20.sol\":6317:6432  if (fromBalance < value) {... */\n      iszero\n      tag_303\n      jumpi\n        /* \"@openzeppelin/contracts/token/ERC20/ERC20.sol\":6392:6396  from */\n      dup4\n        /* \"@openzeppelin/contracts/token/ERC20/ERC20.sol\":6398:6409  fromBalance */\n      dup2\n        /* \"@openzeppelin/contracts/token/ERC20/ERC20.sol\":6411:6416  value */\n      dup4\n        /* \"@openzeppelin/contracts/token/ERC20/ERC20.sol\":6367:6417  ERC20InsufficientBalance(from, fromBalance, value) */\n      mload(0x40)\n      0xe450d38c00000000000000000000000000000000000000000000000000000000\n      dup2\n      mstore\n      0x04\n      add\n      tag_304\n      swap4\n      swap3\n      swap2\n      swap1\n      tag_291\n      jump\t// in\n    tag_304:\n      mload(0x40)\n      dup1\n      swap2\n      sub\n      swap1\n      revert\n        /* \"@openzeppelin/contracts/token/ERC20/ERC20.sol\":6317:6432  if (fromBalance < value) {... */\n    tag_303:\n        /* \"@openzeppelin/contracts/token/ERC20/ERC20.sol\":6584:6589  value */\n      dup2\n        /* \"@openzeppelin/contracts/token/ERC20/ERC20.sol\":6570:6581  fromBalance */\n      dup2\n        /* \"@openzeppelin/contracts/token/ERC20/ERC20.sol\":6570:6589  fromBalance - value */\n      sub\n        /* \"@openzeppelin/contracts/token/ERC20/ERC20.sol\":6552:6561  _balances */\n      0x00\n        /* \"@openzeppelin/contracts/token/ERC20/ERC20.sol\":6552:6567  _balances[from] */\n      0x00\n        /* \"@openzeppelin/contracts/token/ERC20/ERC20.sol\":6562:6566  from */\n      dup7\n        /* \"@openzeppelin/contracts/token/ERC20/ERC20.sol\":6552:6567  _balances[from] */\n      0xffffffffffffffffffffffffffffffffffffffff\n      and\n      0xffffffffffffffffffffffffffffffffffffffff\n      and\n      dup2\n      mstore\n      0x20\n      add\n      swap1\n      dup2\n      mstore\n      0x20\n      add\n      0x00\n      keccak256\n        /* \"@openzeppelin/contracts/token/ERC20/ERC20.sol\":6552:6589  _balances[from] = fromBalance - value */\n      dup2\n      swap1\n      sstore\n      pop\n        /* \"@openzeppelin/contracts/token/ERC20/ERC20.sol\":6252:6614  {... */\n      pop\n        /* \"@openzeppelin/contracts/token/ERC20/ERC20.sol\":6074:6614  if (from == address(0)) {... */\n    tag_302:\n        /* \"@openzeppelin/contracts/token/ERC20/ERC20.sol\":6642:6643  0 */\n      0x00\n        /* \"@openzeppelin/contracts/token/ERC20/ERC20.sol\":6628:6644  to == address(0) */\n      0xffffffffffffffffffffffffffffffffffffffff\n      and\n        /* \"@openzeppelin/contracts/token/ERC20/ERC20.sol\":6628:6630  to */\n      dup3\n        /* \"@openzeppelin/contracts/token/ERC20/ERC20.sol\":6628:6644  to == address(0) */\n      0xffffffffffffffffffffffffffffffffffffffff\n      and\n      sub\n        /* \"@openzeppelin/contracts/token/ERC20/ERC20.sol\":6624:7049  if (to == address(0)) {... */\n      tag_305\n      jumpi\n        /* \"@openzeppelin/contracts/token/ERC20/ERC20.sol\":6807:6812  value */\n      dup1\n        /* \"@openzeppelin/contracts/token/ERC20/ERC20.sol\":6791:6803  _totalSupply */\n      0x02\n      0x00\n        /* \"@openzeppelin/contracts/token/ERC20/ERC20.sol\":6791:6812  _totalSupply -= value */\n      dup3\n      dup3\n      sload\n      sub\n      swap3\n      pop\n      pop\n      dup2\n      swap1\n      sstore\n      pop\n        /* \"@openzeppelin/contracts/token/ERC20/ERC20.sol\":6624:7049  if (to == address(0)) {... */\n      jump(tag_306)\n    tag_305:\n        /* \"@openzeppelin/contracts/token/ERC20/ERC20.sol\":7019:7024  value */\n      dup1\n        /* \"@openzeppelin/contracts/token/ERC20/ERC20.sol\":7002:7011  _balances */\n      0x00\n        /* \"@openzeppelin/contracts/token/ERC20/ERC20.sol\":7002:7015  _balances[to] */\n      0x00\n        /* \"@openzeppelin/contracts/token/ERC20/ERC20.sol\":7012:7014  to */\n      dup5\n        /* \"@openzeppelin/contracts/token/ERC20/ERC20.sol\":7002:7015  _balances[to] */\n      0xffffffffffffffffffffffffffffffffffffffff\n      and\n      0xffffffffffffffffffffffffffffffffffffffff\n      and\n      dup2\n      mstore\n      0x20\n      add\n      swap1\n      dup2\n      mstore\n      0x20\n      add\n      0x00\n      keccak256\n      0x00\n        /* \"@openzeppelin/contracts/token/ERC20/ERC20.sol\":7002:7024  _balances[to] += value */\n      dup3\n      dup3\n      sload\n      add\n      swap3\n      pop\n      pop\n      dup2\n      swap1\n      sstore\n      pop\n        /* \"@openzeppelin/contracts/token/ERC20/ERC20.sol\":6624:7049  if (to == address(0)) {... */\n    tag_306:\n        /* \"@openzeppelin/contracts/token/ERC20/ERC20.sol\":7079:7081  to */\n      dup2\n        /* \"@openzeppelin/contracts/token/ERC20/ERC20.sol\":7064:7089  Transfer(from, to, value) */\n      0xffffffffffffffffffffffffffffffffffffffff\n      and\n        /* \"@openzeppelin/contracts/token/ERC20/ERC20.sol\":7073:7077  from */\n      dup4\n        /* \"@openzeppelin/contracts/token/ERC20/ERC20.sol\":7064:7089  Transfer(from, to, value) */\n      0xffffffffffffffffffffffffffffffffffffffff\n      and\n      0xddf252ad1be2c89b69c2b068fc378daa952ba7f163c4a11628f55a4df523b3ef\n        /* \"@openzeppelin/contracts/token/ERC20/ERC20.sol\":7083:7088  value */\n      dup4\n        /* \"@openzeppelin/contracts/token/ERC20/ERC20.sol\":7064:7089  Transfer(from, to, value) */\n      mload(0x40)\n      tag_307\n      swap2\n      swap1\n      tag_57\n      jump\t// in\n    tag_307:\n      mload(0x40)\n      dup1\n      swap2\n      sub\n      swap1\n      log3\n        /* \"@openzeppelin/contracts/token/ERC20/ERC20.sol\":5989:7096  function _update(address from, address to, uint256 value) internal virtual {... */\n      pop\n      pop\n      pop\n      jump\t// out\n        /* \"#utility.yul\":7:106   */\n    tag_308:\n        /* \"#utility.yul\":59:65   */\n      0x00\n        /* \"#utility.yul\":93:98   */\n      dup2\n        /* \"#utility.yul\":87:99   */\n      mload\n        /* \"#utility.yul\":77:99   */\n      swap1\n      pop\n        /* \"#utility.yul\":7:106   */\n      swap2\n      swap1\n      pop\n      jump\t// out\n        /* \"#utility.yul\":112:281   */\n    tag_309:\n        /* \"#utility.yul\":196:207   */\n      0x00\n        /* \"#utility.yul\":230:236   */\n      dup3\n        /* \"#utility.yul\":225:228   */\n      dup3\n        /* \"#utility.yul\":218:237   */\n      mstore\n        /* \"#utility.yul\":270:274   */\n      0x20\n        /* \"#utility.yul\":265:268   */\n      dup3\n        /* \"#utility.yul\":261:275   */\n      add\n        /* \"#utility.yul\":246:275   */\n      swap1\n      pop\n        /* \"#utility.yul\":112:281   */\n      swap3\n      swap2\n      pop\n      pop\n      jump\t// out\n        /* \"#utility.yul\":287:426   */\n    tag_310:\n        /* \"#utility.yul\":376:382   */\n      dup3\n        /* \"#utility.yul\":371:374   */\n      dup2\n        /* \"#utility.yul\":366:369   */\n      dup4\n        /* \"#utility.yul\":360:383   */\n      mcopy\n        /* \"#utility.yul\":417:418   */\n      0x00\n        /* \"#utility.yul\":408:414   */\n      dup4\n        /* \"#utility.yul\":403:406   */\n      dup4\n        /* \"#utility.yul\":399:415   */\n      add\n        /* \"#utility.yul\":392:419   */\n      mstore\n        /* \"#utility.yul\":287:426   */\n      pop\n      pop\n      pop\n      jump\t// out\n        /* \"#utility.yul\":432:534   */\n    tag_311:\n        /* \"#utility.yul\":473:479   */\n      0x00\n        /* \"#utility.yul\":524:526   */\n      0x1f\n        /* \"#utility.yul\":520:527   */\n      not\n        /* \"#utility.yul\":515:517   */\n      0x1f\n        /* \"#utility.yul\":508:513   */\n      dup4\n        /* \"#utility.yul\":504:518   */\n      add\n        /* \"#utility.yul\":500:528   */\n      and\n        /* \"#utility.yul\":490:528   */\n      swap1\n      pop\n        /* \"#utility.yul\":432:534   */\n      swap2\n      swap1\n      pop\n      jump\t// out\n        /* \"#utility.yul\":540:917   */\n    tag_312:\n        /* \"#utility.yul\":628:631   */\n      0x00\n        /* \"#utility.yul\":656:695   */\n      tag_361\n        /* \"#utility.yul\":689:694   */\n      dup3\n        /* \"#utility.yul\":656:695   */\n      tag_308\n      jump\t// in\n    tag_361:\n        /* \"#utility.yul\":711:782   */\n      tag_362\n        /* \"#utility.yul\":775:781   */\n      dup2\n        /* \"#utility.yul\":770:773   */\n      dup6\n        /* \"#utility.yul\":711:782   */\n      tag_309\n      jump\t// in\n    tag_362:\n        /* \"#utility.yul\":704:782   */\n      swap4\n      pop\n        /* \"#utility.yul\":791:856   */\n      tag_363\n        /* \"#utility.yul\":849:855   */\n      dup2\n        /* \"#utility.yul\":844:847   */\n      dup6\n        /* \"#utility.yul\":837:841   */\n      0x20\n        /* \"#utility.yul\":830:835   */\n      dup7\n        /* \"#utility.yul\":826:842   */\n      add\n        /* \"#utility.yul\":791:856   */\n      tag_310\n      jump\t// in\n    tag_363:\n        /* \"#utility.yul\":881:910   */\n      tag_364\n        /* \"#utility.yul\":903:909   */\n      dup2\n        /* \"#utility.yul\":881:910   */\n      tag_311\n      jump\t// in\n    tag_364:\n        /* \"#utility.yul\":876:879   */\n      dup5\n        /* \"#utility.yul\":872:911   */\n      add\n        /* \"#utility.yul\":865:911   */\n      swap2\n      pop\n        /* \"#utility.yul\":632:917   */\n      pop\n        /* \"#utility.yul\":540:917   */\n      swap3\n      swap2\n      pop\n      pop\n      jump\t// out\n        /* \"#utility.yul\":923:1236   */\n    tag_45:\n        /* \"#utility.yul\":1036:1040   */\n      0x00\n        /* \"#utility.yul\":1074:1076   */\n      0x20\n        /* \"#utility.yul\":1063:1072   */\n      dup3\n        /* \"#utility.yul\":1059:1077   */\n      add\n        /* \"#utility.yul\":1051:1077   */\n      swap1\n      pop\n        /* \"#utility.yul\":1123:1132   */\n      dup2\n        /* \"#utility.yul\":1117:1121   */\n      dup2\n        /* \"#utility.yul\":1113:1133   */\n      sub\n        /* \"#utility.yul\":1109:1110   */\n      0x00\n        /* \"#utility.yul\":1098:1107   */\n      dup4\n        /* \"#utility.yul\":1094:1111   */\n      add\n        /* \"#utility.yul\":1087:1134   */\n      mstore\n        /* \"#utility.yul\":1151:1229   */\n      tag_366\n        /* \"#utility.yul\":1224:1228   */\n      dup2\n        /* \"#utility.yul\":1215:1221   */\n      dup5\n        /* \"#utility.yul\":1151:1229   */\n      tag_312\n      jump\t// in\n    tag_366:\n        /* \"#utility.yul\":1143:1229   */\n      swap1\n      pop\n        /* \"#utility.yul\":923:1236   */\n      swap3\n      swap2\n      pop\n      pop\n      jump\t// out\n        /* \"#utility.yul\":1323:1440   */\n    tag_314:\n        /* \"#utility.yul\":1432:1433   */\n      0x00\n        /* \"#utility.yul\":1429:1430   */\n      0x00\n        /* \"#utility.yul\":1422:1434   */\n      revert\n        /* \"#utility.yul\":1569:1695   */\n    tag_316:\n        /* \"#utility.yul\":1606:1613   */\n      0x00\n        /* \"#utility.yul\":1646:1688   */\n      0xffffffffffffffffffffffffffffffffffffffff\n        /* \"#utility.yul\":1639:1644   */\n      dup3\n        /* \"#utility.yul\":1635:1689   */\n      and\n        /* \"#utility.yul\":1624:1689   */\n      swap1\n      pop\n        /* \"#utility.yul\":1569:1695   */\n      swap2\n      swap1\n      pop\n      jump\t// out\n        /* \"#utility.yul\":1701:1797   */\n    tag_317:\n        /* \"#utility.yul\":1738:1745   */\n      0x00\n        /* \"#utility.yul\":1767:1791   */\n      tag_372\n        /* \"#utility.yul\":1785:1790   */\n      dup3\n        /* \"#utility.yul\":1767:1791   */\n      tag_316\n      jump\t// in\n    tag_372:\n        /* \"#utility.yul\":1756:1791   */\n      swap1\n      pop\n        /* \"#utility.yul\":1701:1797   */\n      swap2\n      swap1\n      pop\n      jump\t// out\n        /* \"#utility.yul\":1803:1925   */\n    tag_318:\n        /* \"#utility.yul\":1876:1900   */\n      tag_374\n        /* \"#utility.yul\":1894:1899   */\n      dup2\n        /* \"#utility.yul\":1876:1900   */\n      tag_317\n      jump\t// in\n    tag_374:\n        /* \"#utility.yul\":1869:1874   */\n      dup2\n        /* \"#utility.yul\":1866:1901   */\n      eq\n        /* \"#utility.yul\":1856:1919   */\n      tag_375\n      jumpi\n        /* \"#utility.yul\":1915:1916   */\n      0x00\n        /* \"#utility.yul\":1912:1913   */\n      0x00\n        /* \"#utility.yul\":1905:1917   */\n      revert\n        /* \"#utility.yul\":1856:1919   */\n    tag_375:\n        /* \"#utility.yul\":1803:1925   */\n      pop\n      jump\t// out\n        /* \"#utility.yul\":1931:2070   */\n    tag_319:\n        /* \"#utility.yul\":1977:1982   */\n      0x00\n        /* \"#utility.yul\":2015:2021   */\n      dup2\n        /* \"#utility.yul\":2002:2022   */\n      calldataload\n        /* \"#utility.yul\":1993:2022   */\n      swap1\n      pop\n        /* \"#utility.yul\":2031:2064   */\n      tag_377\n        /* \"#utility.yul\":2058:2063   */\n      dup2\n        /* \"#utility.yul\":2031:2064   */\n      tag_318\n      jump\t// in\n    tag_377:\n        /* \"#utility.yul\":1931:2070   */\n      swap3\n      swap2\n      pop\n      pop\n      jump\t// out\n        /* \"#utility.yul\":2076:2153   */\n    tag_320:\n        /* \"#utility.yul\":2113:2120   */\n      0x00\n        /* \"#utility.yul\":2142:2147   */\n      dup2\n        /* \"#utility.yul\":2131:2147   */\n      swap1\n      pop\n        /* \"#utility.yul\":2076:2153   */\n      swap2\n      swap1\n      pop\n      jump\t// out\n        /* \"#utility.yul\":2159:2281   */\n    tag_321:\n        /* \"#utility.yul\":2232:2256   */\n      tag_380\n        /* \"#utility.yul\":2250:2255   */\n      dup2\n        /* \"#utility.yul\":2232:2256   */\n      tag_320\n      jump\t// in\n    tag_380:\n        /* \"#utility.yul\":2225:2230   */\n      dup2\n        /* \"#utility.yul\":2222:2257   */\n      eq\n        /* \"#utility.yul\":2212:2275   */\n      tag_381\n      jumpi\n        /* \"#utility.yul\":2271:2272   */\n      0x00\n        /* \"#utility.yul\":2268:2269   */\n      0x00\n        /* \"#utility.yul\":2261:2273   */\n      revert\n        /* \"#utility.yul\":2212:2275   */\n    tag_381:\n        /* \"#utility.yul\":2159:2281   */\n      pop\n      jump\t// out\n        /* \"#utility.yul\":2287:2426   */\n    tag_322:\n        /* \"#utility.yul\":2333:2338   */\n      0x00\n        /* \"#utility.yul\":2371:2377   */\n      dup2\n        /* \"#utility.yul\":2358:2378   */\n      calldataload\n        /* \"#utility.yul\":2349:2378   */\n      swap1\n      pop\n        /* \"#utility.yul\":2387:2420   */\n      tag_383\n        /* \"#utility.yul\":2414:2419   */\n      dup2\n        /* \"#utility.yul\":2387:2420   */\n      tag_321\n      jump\t// in\n    tag_383:\n        /* \"#utility.yul\":2287:2426   */\n      swap3\n      swap2\n      pop\n      pop\n      jump\t// out\n        /* \"#utility.yul\":2432:2906   */\n    tag_48:\n        /* \"#utility.yul\":2500:2506   */\n      0x00\n        /* \"#utility.yul\":2508:2514   */\n      0x00\n        /* \"#utility.yul\":2557:2559   */\n      0x40\n        /* \"#utility.yul\":2545:2554   */\n      dup4\n        /* \"#utility.yul\":2536:2543   */\n      dup6\n        /* \"#utility.yul\":2532:2555   */\n      sub\n        /* \"#utility.yul\":2528:2560   */\n      slt\n        /* \"#utility.yul\":2525:2644   */\n      iszero\n      tag_385\n      jumpi\n        /* \"#utility.yul\":2563:2642   */\n      tag_386\n      tag_314\n      jump\t// in\n    tag_386:\n        /* \"#utility.yul\":2525:2644   */\n    tag_385:\n        /* \"#utility.yul\":2683:2684   */\n      0x00\n        /* \"#utility.yul\":2708:2761   */\n      tag_387\n        /* \"#utility.yul\":2753:2760   */\n      dup6\n        /* \"#utility.yul\":2744:2750   */\n      dup3\n        /* \"#utility.yul\":2733:2742   */\n      dup7\n        /* \"#utility.yul\":2729:2751   */\n      add\n        /* \"#utility.yul\":2708:2761   */\n      tag_319\n      jump\t// in\n    tag_387:\n        /* \"#utility.yul\":2698:2761   */\n      swap3\n      pop\n        /* \"#utility.yul\":2654:2771   */\n      pop\n        /* \"#utility.yul\":2810:2812   */\n      0x20\n        /* \"#utility.yul\":2836:2889   */\n      tag_388\n        /* \"#utility.yul\":2881:2888   */\n      dup6\n        /* \"#utility.yul\":2872:2878   */\n      dup3\n        /* \"#utility.yul\":2861:2870   */\n      dup7\n        /* \"#utility.yul\":2857:2879   */\n      add\n        /* \"#utility.yul\":2836:2889   */\n      tag_322\n      jump\t// in\n    tag_388:\n        /* \"#utility.yul\":2826:2889   */\n      swap2\n      pop\n        /* \"#utility.yul\":2781:2899   */\n      pop\n        /* \"#utility.yul\":2432:2906   */\n      swap3\n      pop\n      swap3\n      swap1\n      pop\n      jump\t// out\n        /* \"#utility.yul\":2912:3002   */\n    tag_323:\n        /* \"#utility.yul\":2946:2953   */\n      0x00\n        /* \"#utility.yul\":2989:2994   */\n      dup2\n        /* \"#utility.yul\":2982:2995   */\n      iszero\n        /* \"#utility.yul\":2975:2996   */\n      iszero\n        /* \"#utility.yul\":2964:2996   */\n      swap1\n      pop\n        /* \"#utility.yul\":2912:3002   */\n      swap2\n      swap1\n      pop\n      jump\t// out\n        /* \"#utility.yul\":3008:3117   */\n    tag_324:\n        /* \"#utility.yul\":3089:3110   */\n      tag_391\n        /* \"#utility.yul\":3104:3109   */\n      dup2\n        /* \"#utility.yul\":3089:3110   */\n      tag_323\n      jump\t// in\n    tag_391:\n        /* \"#utility.yul\":3084:3087   */\n      dup3\n        /* \"#utility.yul\":3077:3111   */\n      mstore\n        /* \"#utility.yul\":3008:3117   */\n      pop\n      pop\n      jump\t// out\n        /* \"#utility.yul\":3123:3333   */\n    tag_51:\n        /* \"#utility.yul\":3210:3214   */\n      0x00\n        /* \"#utility.yul\":3248:3250   */\n      0x20\n        /* \"#utility.yul\":3237:3246   */\n      dup3\n        /* \"#utility.yul\":3233:3251   */\n      add\n        /* \"#utility.yul\":3225:3251   */\n      swap1\n      pop\n        /* \"#utility.yul\":3261:3326   */\n      tag_393\n        /* \"#utility.yul\":3323:3324   */\n      0x00\n        /* \"#utility.yul\":3312:3321   */\n      dup4\n        /* \"#utility.yul\":3308:3325   */\n      add\n        /* \"#utility.yul\":3299:3305   */\n      dup5\n        /* \"#utility.yul\":3261:3326   */\n      tag_324\n      jump\t// in\n    tag_393:\n        /* \"#utility.yul\":3123:3333   */\n      swap3\n      swap2\n      pop\n      pop\n      jump\t// out\n        /* \"#utility.yul\":3339:3668   */\n    tag_54:\n        /* \"#utility.yul\":3398:3404   */\n      0x00\n        /* \"#utility.yul\":3447:3449   */\n      0x20\n        /* \"#utility.yul\":3435:3444   */\n      dup3\n        /* \"#utility.yul\":3426:3433   */\n      dup5\n        /* \"#utility.yul\":3422:3445   */\n      sub\n        /* \"#utility.yul\":3418:3450   */\n      slt\n        /* \"#utility.yul\":3415:3534   */\n      iszero\n      tag_395\n      jumpi\n        /* \"#utility.yul\":3453:3532   */\n      tag_396\n      tag_314\n      jump\t// in\n    tag_396:\n        /* \"#utility.yul\":3415:3534   */\n    tag_395:\n        /* \"#utility.yul\":3573:3574   */\n      0x00\n        /* \"#utility.yul\":3598:3651   */\n      tag_397\n        /* \"#utility.yul\":3643:3650   */\n      dup5\n        /* \"#utility.yul\":3634:3640   */\n      dup3\n        /* \"#utility.yul\":3623:3632   */\n      dup6\n        /* \"#utility.yul\":3619:3641   */\n      add\n        /* \"#utility.yul\":3598:3651   */\n      tag_319\n      jump\t// in\n    tag_397:\n        /* \"#utility.yul\":3588:3651   */\n      swap2\n      pop\n        /* \"#utility.yul\":3544:3661   */\n      pop\n        /* \"#utility.yul\":3339:3668   */\n      swap3\n      swap2\n      pop\n      pop\n      jump\t// out\n        /* \"#utility.yul\":3674:3792   */\n    tag_325:\n        /* \"#utility.yul\":3761:3785   */\n      tag_399\n        /* \"#utility.yul\":3779:3784   */\n      dup2\n        /* \"#utility.yul\":3761:3785   */\n      tag_320\n      jump\t// in\n    tag_399:\n        /* \"#utility.yul\":3756:3759   */\n      dup3\n        /* \"#utility.yul\":3749:3786   */\n      mstore\n        /* \"#utility.yul\":3674:3792   */\n      pop\n      pop\n      jump\t// out\n        /* \"#utility.yul\":3798:4020   */\n    tag_57:\n        /* \"#utility.yul\":3891:3895   */\n      0x00\n        /* \"#utility.yul\":3929:3931   */\n      0x20\n        /* \"#utility.yul\":3918:3927   */\n      dup3\n        /* \"#utility.yul\":3914:3932   */\n      add\n        /* \"#utility.yul\":3906:3932   */\n      swap1\n      pop\n        /* \"#utility.yul\":3942:4013   */\n      tag_401\n        /* \"#utility.yul\":4010:4011   */\n      0x00\n        /* \"#utility.yul\":3999:4008   */\n      dup4\n        /* \"#utility.yul\":3995:4012   */\n      add\n        /* \"#utility.yul\":3986:3992   */\n      dup5\n        /* \"#utility.yul\":3942:4013   */\n      tag_325\n      jump\t// in\n    tag_401:\n        /* \"#utility.yul\":3798:4020   */\n      swap3\n      swap2\n      pop\n      pop\n      jump\t// out\n        /* \"#utility.yul\":4026:4144   */\n    tag_326:\n        /* \"#utility.yul\":4113:4137   */\n      tag_403\n        /* \"#utility.yul\":4131:4136   */\n      dup2\n        /* \"#utility.yul\":4113:4137   */\n      tag_317\n      jump\t// in\n    tag_403:\n        /* \"#utility.yul\":4108:4111   */\n      dup3\n        /* \"#utility.yul\":4101:4138   */\n      mstore\n        /* \"#utility.yul\":4026:4144   */\n      pop\n      pop\n      jump\t// out\n        /* \"#utility.yul\":4150:4372   */\n    tag_61:\n        /* \"#utility.yul\":4243:4247   */\n      0x00\n        /* \"#utility.yul\":4281:4283   */\n      0x20\n        /* \"#utility.yul\":4270:4279   */\n      dup3\n        /* \"#utility.yul\":4266:4284   */\n      add\n        /* \"#utility.yul\":4258:4284   */\n      swap1\n      pop\n        /* \"#utility.yul\":4294:4365   */\n      tag_405\n        /* \"#utility.yul\":4362:4363   */\n      0x00\n        /* \"#utility.yul\":4351:4360   */\n      dup4\n        /* \"#utility.yul\":4347:4364   */\n      add\n        /* \"#utility.yul\":4338:4344   */\n      dup5\n        /* \"#utility.yul\":4294:4365   */\n      tag_326\n      jump\t// in\n    tag_405:\n        /* \"#utility.yul\":4150:4372   */\n      swap3\n      swap2\n      pop\n      pop\n      jump\t// out\n        /* \"#utility.yul\":4378:4997   */\n    tag_71:\n        /* \"#utility.yul\":4455:4461   */\n      0x00\n        /* \"#utility.yul\":4463:4469   */\n      0x00\n        /* \"#utility.yul\":4471:4477   */\n      0x00\n        /* \"#utility.yul\":4520:4522   */\n      0x60\n        /* \"#utility.yul\":4508:4517   */\n      dup5\n        /* \"#utility.yul\":4499:4506   */\n      dup7\n        /* \"#utility.yul\":4495:4518   */\n      sub\n        /* \"#utility.yul\":4491:4523   */\n      slt\n        /* \"#utility.yul\":4488:4607   */\n      iszero\n      tag_407\n      jumpi\n        /* \"#utility.yul\":4526:4605   */\n      tag_408\n      tag_314\n      jump\t// in\n    tag_408:\n        /* \"#utility.yul\":4488:4607   */\n    tag_407:\n        /* \"#utility.yul\":4646:4647   */\n      0x00\n        /* \"#utility.yul\":4671:4724   */\n      tag_409\n        /* \"#utility.yul\":4716:4723   */\n      dup7\n        /* \"#utility.yul\":4707:4713   */\n      dup3\n        /* \"#utility.yul\":4696:4705   */\n      dup8\n        /* \"#utility.yul\":4692:4714   */\n      add\n        /* \"#utility.yul\":4671:4724   */\n      tag_319\n      jump\t// in\n    tag_409:\n        /* \"#utility.yul\":4661:4724   */\n      swap4\n      pop\n        /* \"#utility.yul\":4617:4734   */\n      pop\n        /* \"#utility.yul\":4773:4775   */\n      0x20\n        /* \"#utility.yul\":4799:4852   */\n      tag_410\n        /* \"#utility.yul\":4844:4851   */\n      dup7\n        /* \"#utility.yul\":4835:4841   */\n      dup3\n        /* \"#utility.yul\":4824:4833   */\n      dup8\n        /* \"#utility.yul\":4820:4842   */\n      add\n        /* \"#utility.yul\":4799:4852   */\n      tag_319\n      jump\t// in\n    tag_410:\n        /* \"#utility.yul\":4789:4852   */\n      swap3\n      pop\n        /* \"#utility.yul\":4744:4862   */\n      pop\n        /* \"#utility.yul\":4901:4903   */\n      0x40\n        /* \"#utility.yul\":4927:4980   */\n      tag_411\n        /* \"#utility.yul\":4972:4979   */\n      dup7\n        /* \"#utility.yul\":4963:4969   */\n      dup3\n        /* \"#utility.yul\":4952:4961   */\n      dup8\n        /* \"#utility.yul\":4948:4970   */\n      add\n        /* \"#utility.yul\":4927:4980   */\n      tag_322\n      jump\t// in\n    tag_411:\n        /* \"#utility.yul\":4917:4980   */\n      swap2\n      pop\n        /* \"#utility.yul\":4872:4990   */\n      pop\n        /* \"#utility.yul\":4378:4997   */\n      swap3\n      pop\n      swap3\n      pop\n      swap3\n      jump\t// out\n        /* \"#utility.yul\":5003:5089   */\n    tag_327:\n        /* \"#utility.yul\":5038:5045   */\n      0x00\n        /* \"#utility.yul\":5078:5082   */\n      0xff\n        /* \"#utility.yul\":5071:5076   */\n      dup3\n        /* \"#utility.yul\":5067:5083   */\n      and\n        /* \"#utility.yul\":5056:5083   */\n      swap1\n      pop\n        /* \"#utility.yul\":5003:5089   */\n      swap2\n      swap1\n      pop\n      jump\t// out\n        /* \"#utility.yul\":5095:5207   */\n    tag_328:\n        /* \"#utility.yul\":5178:5200   */\n      tag_414\n        /* \"#utility.yul\":5194:5199   */\n      dup2\n        /* \"#utility.yul\":5178:5200   */\n      tag_327\n      jump\t// in\n    tag_414:\n        /* \"#utility.yul\":5173:5176   */\n      dup3\n        /* \"#utility.yul\":5166:5201   */\n      mstore\n        /* \"#utility.yul\":5095:5207   */\n      pop\n      pop\n      jump\t// out\n        /* \"#utility.yul\":5213:5427   */\n    tag_80:\n        /* \"#utility.yul\":5302:5306   */\n      0x00\n        /* \"#utility.yul\":5340:5342   */\n      0x20\n        /* \"#utility.yul\":5329:5338   */\n      dup3\n        /* \"#utility.yul\":5325:5343   */\n      add\n        /* \"#utility.yul\":5317:5343   */\n      swap1\n      pop\n        /* \"#utility.yul\":5353:5420   */\n      tag_416\n        /* \"#utility.yul\":5417:5418   */\n      0x00\n        /* \"#utility.yul\":5406:5415   */\n      dup4\n        /* \"#utility.yul\":5402:5419   */\n      add\n        /* \"#utility.yul\":5393:5399   */\n      dup5\n        /* \"#utility.yul\":5353:5420   */\n      tag_328\n      jump\t// in\n    tag_416:\n        /* \"#utility.yul\":5213:5427   */\n      swap3\n      swap2\n      pop\n      pop\n      jump\t// out\n        /* \"#utility.yul\":5433:5907   */\n    tag_137:\n        /* \"#utility.yul\":5501:5507   */\n      0x00\n        /* \"#utility.yul\":5509:5515   */\n      0x00\n        /* \"#utility.yul\":5558:5560   */\n      0x40\n        /* \"#utility.yul\":5546:5555   */\n      dup4\n        /* \"#utility.yul\":5537:5544   */\n      dup6\n        /* \"#utility.yul\":5533:5556   */\n      sub\n        /* \"#utility.yul\":5529:5561   */\n      slt\n        /* \"#utility.yul\":5526:5645   */\n      iszero\n      tag_418\n      jumpi\n        /* \"#utility.yul\":5564:5643   */\n      tag_419\n      tag_314\n      jump\t// in\n    tag_419:\n        /* \"#utility.yul\":5526:5645   */\n    tag_418:\n        /* \"#utility.yul\":5684:5685   */\n      0x00\n        /* \"#utility.yul\":5709:5762   */\n      tag_420\n        /* \"#utility.yul\":5754:5761   */\n      dup6\n        /* \"#utility.yul\":5745:5751   */\n      dup3\n        /* \"#utility.yul\":5734:5743   */\n      dup7\n        /* \"#utility.yul\":5730:5752   */\n      add\n        /* \"#utility.yul\":5709:5762   */\n      tag_319\n      jump\t// in\n    tag_420:\n        /* \"#utility.yul\":5699:5762   */\n      swap3\n      pop\n        /* \"#utility.yul\":5655:5772   */\n      pop\n        /* \"#utility.yul\":5811:5813   */\n      0x20\n        /* \"#utility.yul\":5837:5890   */\n      tag_421\n        /* \"#utility.yul\":5882:5889   */\n      dup6\n        /* \"#utility.yul\":5873:5879   */\n      dup3\n        /* \"#utility.yul\":5862:5871   */\n      dup7\n        /* \"#utility.yul\":5858:5880   */\n      add\n        /* \"#utility.yul\":5837:5890   */\n      tag_319\n      jump\t// in\n    tag_421:\n        /* \"#utility.yul\":5827:5890   */\n      swap2\n      pop\n        /* \"#utility.yul\":5782:5900   */\n      pop\n        /* \"#utility.yul\":5433:5907   */\n      swap3\n      pop\n      swap3\n      swap1\n      pop\n      jump\t// out\n        /* \"#utility.yul\":5913:6093   */\n    tag_329:\n        /* \"#utility.yul\":5961:6038   */\n      0x4e487b7100000000000000000000000000000000000000000000000000000000\n        /* \"#utility.yul\":5958:5959   */\n      0x00\n        /* \"#utility.yul\":5951:6039   */\n      mstore\n        /* \"#utility.yul\":6058:6062   */\n      0x22\n        /* \"#utility.yul\":6055:6056   */\n      0x04\n        /* \"#utility.yul\":6048:6063   */\n      mstore\n        /* \"#utility.yul\":6082:6086   */\n      0x24\n        /* \"#utility.yul\":6079:6080   */\n      0x00\n        /* \"#utility.yul\":6072:6087   */\n      revert\n        /* \"#utility.yul\":6099:6419   */\n    tag_158:\n        /* \"#utility.yul\":6143:6149   */\n      0x00\n        /* \"#utility.yul\":6180:6181   */\n      0x02\n        /* \"#utility.yul\":6174:6178   */\n      dup3\n        /* \"#utility.yul\":6170:6182   */\n      div\n        /* \"#utility.yul\":6160:6182   */\n      swap1\n      pop\n        /* \"#utility.yul\":6227:6228   */\n      0x01\n        /* \"#utility.yul\":6221:6225   */\n      dup3\n        /* \"#utility.yul\":6217:6229   */\n      and\n        /* \"#utility.yul\":6248:6266   */\n      dup1\n        /* \"#utility.yul\":6238:6319   */\n      tag_424\n      jumpi\n        /* \"#utility.yul\":6304:6308   */\n      0x7f\n        /* \"#utility.yul\":6296:6302   */\n      dup3\n        /* \"#utility.yul\":6292:6309   */\n      and\n        /* \"#utility.yul\":6282:6309   */\n      swap2\n      pop\n        /* \"#utility.yul\":6238:6319   */\n    tag_424:\n        /* \"#utility.yul\":6366:6368   */\n      0x20\n        /* \"#utility.yul\":6358:6364   */\n      dup3\n        /* \"#utility.yul\":6355:6369   */\n      lt\n        /* \"#utility.yul\":6335:6353   */\n      dup2\n        /* \"#utility.yul\":6332:6370   */\n      sub\n        /* \"#utility.yul\":6329:6413   */\n      tag_425\n      jumpi\n        /* \"#utility.yul\":6385:6403   */\n      tag_426\n      tag_329\n      jump\t// in\n    tag_426:\n        /* \"#utility.yul\":6329:6413   */\n    tag_425:\n        /* \"#utility.yul\":6150:6419   */\n      pop\n        /* \"#utility.yul\":6099:6419   */\n      swap2\n      swap1\n      pop\n      jump\t// out\n        /* \"#utility.yul\":6425:6591   */\n    tag_330:\n        /* \"#utility.yul\":6565:6583   */\n      0x53656e6465722069732066726f7a656e00000000000000000000000000000000\n        /* \"#utility.yul\":6561:6562   */\n      0x00\n        /* \"#utility.yul\":6553:6559   */\n      dup3\n        /* \"#utility.yul\":6549:6563   */\n      add\n        /* \"#utility.yul\":6542:6584   */\n      mstore\n        /* \"#utility.yul\":6425:6591   */\n      pop\n      jump\t// out\n        /* \"#utility.yul\":6597:6963   */\n    tag_331:\n        /* \"#utility.yul\":6739:6742   */\n      0x00\n        /* \"#utility.yul\":6760:6827   */\n      tag_429\n        /* \"#utility.yul\":6824:6826   */\n      0x10\n        /* \"#utility.yul\":6819:6822   */\n      dup4\n        /* \"#utility.yul\":6760:6827   */\n      tag_309\n      jump\t// in\n    tag_429:\n        /* \"#utility.yul\":6753:6827   */\n      swap2\n      pop\n        /* \"#utility.yul\":6836:6929   */\n      tag_430\n        /* \"#utility.yul\":6925:6928   */\n      dup3\n        /* \"#utility.yul\":6836:6929   */\n      tag_330\n      jump\t// in\n    tag_430:\n        /* \"#utility.yul\":6954:6956   */\n      0x20\n        /* \"#utility.yul\":6949:6952   */\n      dup3\n        /* \"#utility.yul\":6945:6957   */\n      add\n        /* \"#utility.yul\":6938:6957   */\n      swap1\n      pop\n        /* \"#utility.yul\":6597:6963   */\n      swap2\n      swap1\n      pop\n      jump\t// out\n        /* \"#utility.yul\":6969:7388   */\n    tag_176:\n        /* \"#utility.yul\":7135:7139   */\n      0x00\n        /* \"#utility.yul\":7173:7175   */\n      0x20\n        /* \"#utility.yul\":7162:7171   */\n      dup3\n        /* \"#utility.yul\":7158:7176   */\n      add\n        /* \"#utility.yul\":7150:7176   */\n      swap1\n      pop\n        /* \"#utility.yul\":7222:7231   */\n      dup2\n        /* \"#utility.yul\":7216:7220   */\n      dup2\n        /* \"#utility.yul\":7212:7232   */\n      sub\n        /* \"#utility.yul\":7208:7209   */\n      0x00\n        /* \"#utility.yul\":7197:7206   */\n      dup4\n        /* \"#utility.yul\":7193:7210   */\n      add\n        /* \"#utility.yul\":7186:7233   */\n      mstore\n        /* \"#utility.yul\":7250:7381   */\n      tag_432\n        /* \"#utility.yul\":7376:7380   */\n      dup2\n        /* \"#utility.yul\":7250:7381   */\n      tag_331\n      jump\t// in\n    tag_432:\n        /* \"#utility.yul\":7242:7381   */\n      swap1\n      pop\n        /* \"#utility.yul\":6969:7388   */\n      swap2\n      swap1\n      pop\n      jump\t// out\n        /* \"#utility.yul\":7394:7569   */\n    tag_332:\n        /* \"#utility.yul\":7534:7561   */\n      0x416d6f756e74206d75737420626520616e20696e746567657200000000000000\n        /* \"#utility.yul\":7530:7531   */\n      0x00\n        /* \"#utility.yul\":7522:7528   */\n      dup3\n        /* \"#utility.yul\":7518:7532   */\n      add\n        /* \"#utility.yul\":7511:7562   */\n      mstore\n        /* \"#utility.yul\":7394:7569   */\n      pop\n      jump\t// out\n        /* \"#utility.yul\":7575:7941   */\n    tag_333:\n        /* \"#utility.yul\":7717:7720   */\n      0x00\n        /* \"#utility.yul\":7738:7805   */\n      tag_435\n        /* \"#utility.yul\":7802:7804   */\n      0x19\n        /* \"#utility.yul\":7797:7800   */\n      dup4\n        /* \"#utility.yul\":7738:7805   */\n      tag_309\n      jump\t// in\n    tag_435:\n        /* \"#utility.yul\":7731:7805   */\n      swap2\n      pop\n        /* \"#utility.yul\":7814:7907   */\n      tag_436\n        /* \"#utility.yul\":7903:7906   */\n      dup3\n        /* \"#utility.yul\":7814:7907   */\n      tag_332\n      jump\t// in\n    tag_436:\n        /* \"#utility.yul\":7932:7934   */\n      0x20\n        /* \"#utility.yul\":7927:7930   */\n      dup3\n        /* \"#utility.yul\":7923:7935   */\n      add\n        /* \"#utility.yul\":7916:7935   */\n      swap1\n      pop\n        /* \"#utility.yul\":7575:7941   */\n      swap2\n      swap1\n      pop\n      jump\t// out\n        /* \"#utility.yul\":7947:8366   */\n    tag_179:\n        /* \"#utility.yul\":8113:8117   */\n      0x00\n        /* \"#utility.yul\":8151:8153   */\n      0x20\n        /* \"#utility.yul\":8140:8149   */\n      dup3\n        /* \"#utility.yul\":8136:8154   */\n      add\n        /* \"#utility.yul\":8128:8154   */\n      swap1\n      pop\n        /* \"#utility.yul\":8200:8209   */\n      dup2\n        /* \"#utility.yul\":8194:8198   */\n      dup2\n        /* \"#utility.yul\":8190:8210   */\n      sub\n        /* \"#utility.yul\":8186:8187   */\n      0x00\n        /* \"#utility.yul\":8175:8184   */\n      dup4\n        /* \"#utility.yul\":8171:8188   */\n      add\n        /* \"#utility.yul\":8164:8211   */\n      mstore\n        /* \"#utility.yul\":8228:8359   */\n      tag_438\n        /* \"#utility.yul\":8354:8358   */\n      dup2\n        /* \"#utility.yul\":8228:8359   */\n      tag_333\n      jump\t// in\n    tag_438:\n        /* \"#utility.yul\":8220:8359   */\n      swap1\n      pop\n        /* \"#utility.yul\":7947:8366   */\n      swap2\n      swap1\n      pop\n      jump\t// out\n        /* \"#utility.yul\":8372:8537   */\n    tag_334:\n        /* \"#utility.yul\":8512:8529   */\n      0x4e6f742077686974656c69737465640000000000000000000000000000000000\n        /* \"#utility.yul\":8508:8509   */\n      0x00\n        /* \"#utility.yul\":8500:8506   */\n      dup3\n        /* \"#utility.yul\":8496:8510   */\n      add\n        /* \"#utility.yul\":8489:8530   */\n      mstore\n        /* \"#utility.yul\":8372:8537   */\n      pop\n      jump\t// out\n        /* \"#utility.yul\":8543:8909   */\n    tag_335:\n        /* \"#utility.yul\":8685:8688   */\n      0x00\n        /* \"#utility.yul\":8706:8773   */\n      tag_441\n        /* \"#utility.yul\":8770:8772   */\n      0x0f\n        /* \"#utility.yul\":8765:8768   */\n      dup4\n        /* \"#utility.yul\":8706:8773   */\n      tag_309\n      jump\t// in\n    tag_441:\n        /* \"#utility.yul\":8699:8773   */\n      swap2\n      pop\n        /* \"#utility.yul\":8782:8875   */\n      tag_442\n        /* \"#utility.yul\":8871:8874   */\n      dup3\n        /* \"#utility.yul\":8782:8875   */\n      tag_334\n      jump\t// in\n    tag_442:\n        /* \"#utility.yul\":8900:8902   */\n      0x20\n        /* \"#utility.yul\":8895:8898   */\n      dup3\n        /* \"#utility.yul\":8891:8903   */\n      add\n        /* \"#utility.yul\":8884:8903   */\n      swap1\n      pop\n        /* \"#utility.yul\":8543:8909   */\n      swap2\n      swap1\n      pop\n      jump\t// out\n        /* \"#utility.yul\":8915:9334   */\n    tag_189:\n        /* \"#utility.yul\":9081:9085   */\n      0x00\n        /* \"#utility.yul\":9119:9121   */\n      0x20\n        /* \"#utility.yul\":9108:9117   */\n      dup3\n        /* \"#utility.yul\":9104:9122   */\n      add\n        /* \"#utility.yul\":9096:9122   */\n      swap1\n      pop\n        /* \"#utility.yul\":9168:9177   */\n      dup2\n        /* \"#utility.yul\":9162:9166   */\n      dup2\n        /* \"#utility.yul\":9158:9178   */\n      sub\n        /* \"#utility.yul\":9154:9155   */\n      0x00\n        /* \"#utility.yul\":9143:9152   */\n      dup4\n        /* \"#utility.yul\":9139:9156   */\n      add\n        /* \"#utility.yul\":9132:9179   */\n      mstore\n        /* \"#utility.yul\":9196:9327   */\n      tag_444\n        /* \"#utility.yul\":9322:9326   */\n      dup2\n        /* \"#utility.yul\":9196:9327   */\n      tag_335\n      jump\t// in\n    tag_444:\n        /* \"#utility.yul\":9188:9327   */\n      swap1\n      pop\n        /* \"#utility.yul\":8915:9334   */\n      swap2\n      swap1\n      pop\n      jump\t// out\n        /* \"#utility.yul\":9340:9520   */\n    tag_336:\n        /* \"#utility.yul\":9388:9465   */\n      0x4e487b7100000000000000000000000000000000000000000000000000000000\n        /* \"#utility.yul\":9385:9386   */\n      0x00\n        /* \"#utility.yul\":9378:9466   */\n      mstore\n        /* \"#utility.yul\":9485:9489   */\n      0x11\n        /* \"#utility.yul\":9482:9483   */\n      0x04\n        /* \"#utility.yul\":9475:9490   */\n      mstore\n        /* \"#utility.yul\":9509:9513   */\n      0x24\n        /* \"#utility.yul\":9506:9507   */\n      0x00\n        /* \"#utility.yul\":9499:9514   */\n      revert\n        /* \"#utility.yul\":9526:9717   */\n    tag_191:\n        /* \"#utility.yul\":9566:9569   */\n      0x00\n        /* \"#utility.yul\":9585:9605   */\n      tag_447\n        /* \"#utility.yul\":9603:9604   */\n      dup3\n        /* \"#utility.yul\":9585:9605   */\n      tag_320\n      jump\t// in\n    tag_447:\n        /* \"#utility.yul\":9580:9605   */\n      swap2\n      pop\n        /* \"#utility.yul\":9619:9639   */\n      tag_448\n        /* \"#utility.yul\":9637:9638   */\n      dup4\n        /* \"#utility.yul\":9619:9639   */\n      tag_320\n      jump\t// in\n    tag_448:\n        /* \"#utility.yul\":9614:9639   */\n      swap3\n      pop\n        /* \"#utility.yul\":9662:9663   */\n      dup3\n        /* \"#utility.yul\":9659:9660   */\n      dup3\n        /* \"#utility.yul\":9655:9664   */\n      add\n        /* \"#utility.yul\":9648:9664   */\n      swap1\n      pop\n        /* \"#utility.yul\":9683:9686   */\n      dup1\n        /* \"#utility.yul\":9680:9681   */\n      dup3\n        /* \"#utility.yul\":9677:9687   */\n      gt\n        /* \"#utility.yul\":9674:9710   */\n      iszero\n      tag_449\n      jumpi\n        /* \"#utility.yul\":9690:9708   */\n      tag_450\n      tag_336\n      jump\t// in\n    tag_450:\n        /* \"#utility.yul\":9674:9710   */\n    tag_449:\n        /* \"#utility.yul\":9526:9717   */\n      swap3\n      swap2\n      pop\n      pop\n      jump\t// out\n        /* \"#utility.yul\":9723:9894   */\n    tag_337:\n        /* \"#utility.yul\":9863:9886   */\n      0x546f74616c20737570706c792065786365656465640000000000000000000000\n        /* \"#utility.yul\":9859:9860   */\n      0x00\n        /* \"#utility.yul\":9851:9857   */\n      dup3\n        /* \"#utility.yul\":9847:9861   */\n      add\n        /* \"#utility.yul\":9840:9887   */\n      mstore\n        /* \"#utility.yul\":9723:9894   */\n      pop\n      jump\t// out\n        /* \"#utility.yul\":9900:10266   */\n    tag_338:\n        /* \"#utility.yul\":10042:10045   */\n      0x00\n        /* \"#utility.yul\":10063:10130   */\n      tag_453\n        /* \"#utility.yul\":10127:10129   */\n      0x15\n        /* \"#utility.yul\":10122:10125   */\n      dup4\n        /* \"#utility.yul\":10063:10130   */\n      tag_309\n      jump\t// in\n    tag_453:\n        /* \"#utility.yul\":10056:10130   */\n      swap2\n      pop\n        /* \"#utility.yul\":10139:10232   */\n      tag_454\n        /* \"#utility.yul\":10228:10231   */\n      dup3\n        /* \"#utility.yul\":10139:10232   */\n      tag_337\n      jump\t// in\n    tag_454:\n        /* \"#utility.yul\":10257:10259   */\n      0x20\n        /* \"#utility.yul\":10252:10255   */\n      dup3\n        /* \"#utility.yul\":10248:10260   */\n      add\n        /* \"#utility.yul\":10241:10260   */\n      swap1\n      pop\n        /* \"#utility.yul\":9900:10266   */\n      swap2\n      swap1\n      pop\n      jump\t// out\n        /* \"#utility.yul\":10272:10691   */\n    tag_194:\n        /* \"#utility.yul\":10438:10442   */\n      0x00\n        /* \"#utility.yul\":10476:10478   */\n      0x20\n        /* \"#utility.yul\":10465:10474   */\n      dup3\n        /* \"#utility.yul\":10461:10479   */\n      add\n        /* \"#utility.yul\":10453:10479   */\n      swap1\n      pop\n        /* \"#utility.yul\":10525:10534   */\n      dup2\n        /* \"#utility.yul\":10519:10523   */\n      dup2\n        /* \"#utility.yul\":10515:10535   */\n      sub\n        /* \"#utility.yul\":10511:10512   */\n      0x00\n        /* \"#utility.yul\":10500:10509   */\n      dup4\n        /* \"#utility.yul\":10496:10513   */\n      add\n        /* \"#utility.yul\":10489:10536   */\n      mstore\n        /* \"#utility.yul\":10553:10684   */\n      tag_456\n        /* \"#utility.yul\":10679:10683   */\n      dup2\n        /* \"#utility.yul\":10553:10684   */\n      tag_338\n      jump\t// in\n    tag_456:\n        /* \"#utility.yul\":10545:10684   */\n      swap1\n      pop\n        /* \"#utility.yul\":10272:10691   */\n      swap2\n      swap1\n      pop\n      jump\t// out\n        /* \"#utility.yul\":10697:10891   */\n    tag_230:\n        /* \"#utility.yul\":10737:10741   */\n      0x00\n        /* \"#utility.yul\":10757:10777   */\n      tag_458\n        /* \"#utility.yul\":10775:10776   */\n      dup3\n        /* \"#utility.yul\":10757:10777   */\n      tag_320\n      jump\t// in\n    tag_458:\n        /* \"#utility.yul\":10752:10777   */\n      swap2\n      pop\n        /* \"#utility.yul\":10791:10811   */\n      tag_459\n        /* \"#utility.yul\":10809:10810   */\n      dup4\n        /* \"#utility.yul\":10791:10811   */\n      tag_320\n      jump\t// in\n    tag_459:\n        /* \"#utility.yul\":10786:10811   */\n      swap3\n      pop\n        /* \"#utility.yul\":10835:10836   */\n      dup3\n        /* \"#utility.yul\":10832:10833   */\n      dup3\n        /* \"#utility.yul\":10828:10837   */\n      sub\n        /* \"#utility.yul\":10820:10837   */\n      swap1\n      pop\n        /* \"#utility.yul\":10859:10860   */\n      dup2\n        /* \"#utility.yul\":10853:10857   */\n      dup2\n        /* \"#utility.yul\":10850:10861   */\n      gt\n        /* \"#utility.yul\":10847:10884   */\n      iszero\n      tag_460\n      jumpi\n        /* \"#utility.yul\":10864:10882   */\n      tag_461\n      tag_336\n      jump\t// in\n    tag_461:\n        /* \"#utility.yul\":10847:10884   */\n    tag_460:\n        /* \"#utility.yul\":10697:10891   */\n      swap3\n      swap2\n      pop\n      pop\n      jump\t// out\n        /* \"#utility.yul\":10897:11019   */\n    tag_339:\n        /* \"#utility.yul\":10970:10994   */\n      tag_463\n        /* \"#utility.yul\":10988:10993   */\n      dup2\n        /* \"#utility.yul\":10970:10994   */\n      tag_316\n      jump\t// in\n    tag_463:\n        /* \"#utility.yul\":10963:10968   */\n      dup2\n        /* \"#utility.yul\":10960:10995   */\n      eq\n        /* \"#utility.yul\":10950:11013   */\n      tag_464\n      jumpi\n        /* \"#utility.yul\":11009:11010   */\n      0x00\n        /* \"#utility.yul\":11006:11007   */\n      0x00\n        /* \"#utility.yul\":10999:11011   */\n      revert\n        /* \"#utility.yul\":10950:11013   */\n    tag_464:\n        /* \"#utility.yul\":10897:11019   */\n      pop\n      jump\t// out\n        /* \"#utility.yul\":11025:11168   */\n    tag_340:\n        /* \"#utility.yul\":11082:11087   */\n      0x00\n        /* \"#utility.yul\":11113:11119   */\n      dup2\n        /* \"#utility.yul\":11107:11120   */\n      mload\n        /* \"#utility.yul\":11098:11120   */\n      swap1\n      pop\n        /* \"#utility.yul\":11129:11162   */\n      tag_466\n        /* \"#utility.yul\":11156:11161   */\n      dup2\n        /* \"#utility.yul\":11129:11162   */\n      tag_339\n      jump\t// in\n    tag_466:\n        /* \"#utility.yul\":11025:11168   */\n      swap3\n      swap2\n      pop\n      pop\n      jump\t// out\n        /* \"#utility.yul\":11174:11264   */\n    tag_341:\n        /* \"#utility.yul\":11209:11216   */\n      0x00\n        /* \"#utility.yul\":11252:11257   */\n      dup2\n        /* \"#utility.yul\":11249:11250   */\n      0x02\n        /* \"#utility.yul\":11238:11258   */\n      signextend\n        /* \"#utility.yul\":11227:11258   */\n      swap1\n      pop\n        /* \"#utility.yul\":11174:11264   */\n      swap2\n      swap1\n      pop\n      jump\t// out\n        /* \"#utility.yul\":11270:11388   */\n    tag_342:\n        /* \"#utility.yul\":11341:11363   */\n      tag_469\n        /* \"#utility.yul\":11357:11362   */\n      dup2\n        /* \"#utility.yul\":11341:11363   */\n      tag_341\n      jump\t// in\n    tag_469:\n        /* \"#utility.yul\":11334:11339   */\n      dup2\n        /* \"#utility.yul\":11331:11364   */\n      eq\n        /* \"#utility.yul\":11321:11382   */\n      tag_470\n      jumpi\n        /* \"#utility.yul\":11378:11379   */\n      0x00\n        /* \"#utility.yul\":11375:11376   */\n      0x00\n        /* \"#utility.yul\":11368:11380   */\n      revert\n        /* \"#utility.yul\":11321:11382   */\n    tag_470:\n        /* \"#utility.yul\":11270:11388   */\n      pop\n      jump\t// out\n        /* \"#utility.yul\":11394:11533   */\n    tag_343:\n        /* \"#utility.yul\":11449:11454   */\n      0x00\n        /* \"#utility.yul\":11480:11486   */\n      dup2\n        /* \"#utility.yul\":11474:11487   */\n      mload\n        /* \"#utility.yul\":11465:11487   */\n      swap1\n      pop\n        /* \"#utility.yul\":11496:11527   */\n      tag_472\n        /* \"#utility.yul\":11521:11526   */\n      dup2\n        /* \"#utility.yul\":11496:11527   */\n      tag_342\n      jump\t// in\n    tag_472:\n        /* \"#utility.yul\":11394:11533   */\n      swap3\n      swap2\n      pop\n      pop\n      jump\t// out\n        /* \"#utility.yul\":11539:11628   */\n    tag_344:\n        /* \"#utility.yul\":11575:11582   */\n      0x00\n        /* \"#utility.yul\":11615:11621   */\n      0xffff\n        /* \"#utility.yul\":11608:11613   */\n      dup3\n        /* \"#utility.yul\":11604:11622   */\n      and\n        /* \"#utility.yul\":11593:11622   */\n      swap1\n      pop\n        /* \"#utility.yul\":11539:11628   */\n      swap2\n      swap1\n      pop\n      jump\t// out\n        /* \"#utility.yul\":11634:11754   */\n    tag_345:\n        /* \"#utility.yul\":11706:11729   */\n      tag_475\n        /* \"#utility.yul\":11723:11728   */\n      dup2\n        /* \"#utility.yul\":11706:11729   */\n      tag_344\n      jump\t// in\n    tag_475:\n        /* \"#utility.yul\":11699:11704   */\n      dup2\n        /* \"#utility.yul\":11696:11730   */\n      eq\n        /* \"#utility.yul\":11686:11748   */\n      tag_476\n      jumpi\n        /* \"#utility.yul\":11744:11745   */\n      0x00\n        /* \"#utility.yul\":11741:11742   */\n      0x00\n        /* \"#utility.yul\":11734:11746   */\n      revert\n        /* \"#utility.yul\":11686:11748   */\n    tag_476:\n        /* \"#utility.yul\":11634:11754   */\n      pop\n      jump\t// out\n        /* \"#utility.yul\":11760:11901   */\n    tag_346:\n        /* \"#utility.yul\":11816:11821   */\n      0x00\n        /* \"#utility.yul\":11847:11853   */\n      dup2\n        /* \"#utility.yul\":11841:11854   */\n      mload\n        /* \"#utility.yul\":11832:11854   */\n      swap1\n      pop\n        /* \"#utility.yul\":11863:11895   */\n      tag_478\n        /* \"#utility.yul\":11889:11894   */\n      dup2\n        /* \"#utility.yul\":11863:11895   */\n      tag_345\n      jump\t// in\n    tag_478:\n        /* \"#utility.yul\":11760:11901   */\n      swap3\n      swap2\n      pop\n      pop\n      jump\t// out\n        /* \"#utility.yul\":11907:12025   */\n    tag_347:\n        /* \"#utility.yul\":11978:12000   */\n      tag_480\n        /* \"#utility.yul\":11994:11999   */\n      dup2\n        /* \"#utility.yul\":11978:12000   */\n      tag_327\n      jump\t// in\n    tag_480:\n        /* \"#utility.yul\":11971:11976   */\n      dup2\n        /* \"#utility.yul\":11968:12001   */\n      eq\n        /* \"#utility.yul\":11958:12019   */\n      tag_481\n      jumpi\n        /* \"#utility.yul\":12015:12016   */\n      0x00\n        /* \"#utility.yul\":12012:12013   */\n      0x00\n        /* \"#utility.yul\":12005:12017   */\n      revert\n        /* \"#utility.yul\":11958:12019   */\n    tag_481:\n        /* \"#utility.yul\":11907:12025   */\n      pop\n      jump\t// out\n        /* \"#utility.yul\":12031:12170   */\n    tag_348:\n        /* \"#utility.yul\":12086:12091   */\n      0x00\n        /* \"#utility.yul\":12117:12123   */\n      dup2\n        /* \"#utility.yul\":12111:12124   */\n      mload\n        /* \"#utility.yul\":12102:12124   */\n      swap1\n      pop\n        /* \"#utility.yul\":12133:12164   */\n      tag_483\n        /* \"#utility.yul\":12158:12163   */\n      dup2\n        /* \"#utility.yul\":12133:12164   */\n      tag_347\n      jump\t// in\n    tag_483:\n        /* \"#utility.yul\":12031:12170   */\n      swap3\n      swap2\n      pop\n      pop\n      jump\t// out\n        /* \"#utility.yul\":12176:12292   */\n    tag_349:\n        /* \"#utility.yul\":12246:12267   */\n      tag_485\n        /* \"#utility.yul\":12261:12266   */\n      dup2\n        /* \"#utility.yul\":12246:12267   */\n      tag_323\n      jump\t// in\n    tag_485:\n        /* \"#utility.yul\":12239:12244   */\n      dup2\n        /* \"#utility.yul\":12236:12268   */\n      eq\n        /* \"#utility.yul\":12226:12286   */\n      tag_486\n      jumpi\n        /* \"#utility.yul\":12282:12283   */\n      0x00\n        /* \"#utility.yul\":12279:12280   */\n      0x00\n        /* \"#utility.yul\":12272:12284   */\n      revert\n        /* \"#utility.yul\":12226:12286   */\n    tag_486:\n        /* \"#utility.yul\":12176:12292   */\n      pop\n      jump\t// out\n        /* \"#utility.yul\":12298:12435   */\n    tag_350:\n        /* \"#utility.yul\":12352:12357   */\n      0x00\n        /* \"#utility.yul\":12383:12389   */\n      dup2\n        /* \"#utility.yul\":12377:12390   */\n      mload\n        /* \"#utility.yul\":12368:12390   */\n      swap1\n      pop\n        /* \"#utility.yul\":12399:12429   */\n      tag_488\n        /* \"#utility.yul\":12423:12428   */\n      dup2\n        /* \"#utility.yul\":12399:12429   */\n      tag_349\n      jump\t// in\n    tag_488:\n        /* \"#utility.yul\":12298:12435   */\n      swap3\n      swap2\n      pop\n      pop\n      jump\t// out\n        /* \"#utility.yul\":12441:13712   */\n    tag_243:\n        /* \"#utility.yul\":12555:12561   */\n      0x00\n        /* \"#utility.yul\":12563:12569   */\n      0x00\n        /* \"#utility.yul\":12571:12577   */\n      0x00\n        /* \"#utility.yul\":12579:12585   */\n      0x00\n        /* \"#utility.yul\":12587:12593   */\n      0x00\n        /* \"#utility.yul\":12595:12601   */\n      0x00\n        /* \"#utility.yul\":12603:12609   */\n      0x00\n        /* \"#utility.yul\":12652:12655   */\n      0xe0\n        /* \"#utility.yul\":12640:12649   */\n      dup9\n        /* \"#utility.yul\":12631:12638   */\n      dup11\n        /* \"#utility.yul\":12627:12650   */\n      sub\n        /* \"#utility.yul\":12623:12656   */\n      slt\n        /* \"#utility.yul\":12620:12740   */\n      iszero\n      tag_490\n      jumpi\n        /* \"#utility.yul\":12659:12738   */\n      tag_491\n      tag_314\n      jump\t// in\n    tag_491:\n        /* \"#utility.yul\":12620:12740   */\n    tag_490:\n        /* \"#utility.yul\":12779:12780   */\n      0x00\n        /* \"#utility.yul\":12804:12868   */\n      tag_492\n        /* \"#utility.yul\":12860:12867   */\n      dup11\n        /* \"#utility.yul\":12851:12857   */\n      dup3\n        /* \"#utility.yul\":12840:12849   */\n      dup12\n        /* \"#utility.yul\":12836:12858   */\n      add\n        /* \"#utility.yul\":12804:12868   */\n      tag_340\n      jump\t// in\n    tag_492:\n        /* \"#utility.yul\":12794:12868   */\n      swap8\n      pop\n        /* \"#utility.yul\":12750:12878   */\n      pop\n        /* \"#utility.yul\":12917:12919   */\n      0x20\n        /* \"#utility.yul\":12943:13005   */\n      tag_493\n        /* \"#utility.yul\":12997:13004   */\n      dup11\n        /* \"#utility.yul\":12988:12994   */\n      dup3\n        /* \"#utility.yul\":12977:12986   */\n      dup12\n        /* \"#utility.yul\":12973:12995   */\n      add\n        /* \"#utility.yul\":12943:13005   */\n      tag_343\n      jump\t// in\n    tag_493:\n        /* \"#utility.yul\":12933:13005   */\n      swap7\n      pop\n        /* \"#utility.yul\":12888:13015   */\n      pop\n        /* \"#utility.yul\":13054:13056   */\n      0x40\n        /* \"#utility.yul\":13080:13143   */\n      tag_494\n        /* \"#utility.yul\":13135:13142   */\n      dup11\n        /* \"#utility.yul\":13126:13132   */\n      dup3\n        /* \"#utility.yul\":13115:13124   */\n      dup12\n        /* \"#utility.yul\":13111:13133   */\n      add\n        /* \"#utility.yul\":13080:13143   */\n      tag_346\n      jump\t// in\n    tag_494:\n        /* \"#utility.yul\":13070:13143   */\n      swap6\n      pop\n        /* \"#utility.yul\":13025:13153   */\n      pop\n        /* \"#utility.yul\":13192:13194   */\n      0x60\n        /* \"#utility.yul\":13218:13281   */\n      tag_495\n        /* \"#utility.yul\":13273:13280   */\n      dup11\n        /* \"#utility.yul\":13264:13270   */\n      dup3\n        /* \"#utility.yul\":13253:13262   */\n      dup12\n        /* \"#utility.yul\":13249:13271   */\n      add\n        /* \"#utility.yul\":13218:13281   */\n      tag_346\n      jump\t// in\n    tag_495:\n        /* \"#utility.yul\":13208:13281   */\n      swap5\n      pop\n        /* \"#utility.yul\":13163:13291   */\n      pop\n        /* \"#utility.yul\":13330:13333   */\n      0x80\n        /* \"#utility.yul\":13357:13420   */\n      tag_496\n        /* \"#utility.yul\":13412:13419   */\n      dup11\n        /* \"#utility.yul\":13403:13409   */\n      dup3\n        /* \"#utility.yul\":13392:13401   */\n      dup12\n        /* \"#utility.yul\":13388:13410   */\n      add\n        /* \"#utility.yul\":13357:13420   */\n      tag_346\n      jump\t// in\n    tag_496:\n        /* \"#utility.yul\":13347:13420   */\n      swap4\n      pop\n        /* \"#utility.yul\":13301:13430   */\n      pop\n        /* \"#utility.yul\":13469:13472   */\n      0xa0\n        /* \"#utility.yul\":13496:13558   */\n      tag_497\n        /* \"#utility.yul\":13550:13557   */\n      dup11\n        /* \"#utility.yul\":13541:13547   */\n      dup3\n        /* \"#utility.yul\":13530:13539   */\n      dup12\n        /* \"#utility.yul\":13526:13548   */\n      add\n        /* \"#utility.yul\":13496:13558   */\n      tag_348\n      jump\t// in\n    tag_497:\n        /* \"#utility.yul\":13486:13558   */\n      swap3\n      pop\n        /* \"#utility.yul\":13440:13568   */\n      pop\n        /* \"#utility.yul\":13607:13610   */\n      0xc0\n        /* \"#utility.yul\":13634:13695   */\n      tag_498\n        /* \"#utility.yul\":13687:13694   */\n      dup11\n        /* \"#utility.yul\":13678:13684   */\n      dup3\n        /* \"#utility.yul\":13667:13676   */\n      dup12\n        /* \"#utility.yul\":13663:13685   */\n      add\n        /* \"#utility.yul\":13634:13695   */\n      tag_350\n      jump\t// in\n    tag_498:\n        /* \"#utility.yul\":13624:13695   */\n      swap2\n      pop\n        /* \"#utility.yul\":13578:13705   */\n      pop\n        /* \"#utility.yul\":12441:13712   */\n      swap3\n      swap6\n      swap9\n      swap2\n      swap5\n      swap8\n      pop\n      swap3\n      swap6\n      pop\n      jump\t// out\n        /* \"#utility.yul\":13718:13820   */\n    tag_351:\n        /* \"#utility.yul\":13760:13768   */\n      0x00\n        /* \"#utility.yul\":13807:13812   */\n      dup2\n        /* \"#utility.yul\":13804:13805   */\n      0x01\n        /* \"#utility.yul\":13800:13813   */\n      shr\n        /* \"#utility.yul\":13779:13813   */\n      swap1\n      pop\n        /* \"#utility.yul\":13718:13820   */\n      swap2\n      swap1\n      pop\n      jump\t// out\n        /* \"#utility.yul\":13826:14674   */\n    tag_352:\n        /* \"#utility.yul\":13887:13892   */\n      0x00\n        /* \"#utility.yul\":13894:13898   */\n      0x00\n        /* \"#utility.yul\":13918:13924   */\n      dup3\n        /* \"#utility.yul\":13909:13924   */\n      swap2\n      pop\n        /* \"#utility.yul\":13942:13947   */\n      dup4\n        /* \"#utility.yul\":13933:13947   */\n      swap1\n      pop\n        /* \"#utility.yul\":13956:14668   */\n    tag_501:\n        /* \"#utility.yul\":13977:13978   */\n      0x01\n        /* \"#utility.yul\":13967:13975   */\n      dup6\n        /* \"#utility.yul\":13964:13979   */\n      gt\n        /* \"#utility.yul\":13956:14668   */\n      iszero\n      tag_503\n      jumpi\n        /* \"#utility.yul\":14072:14076   */\n      dup1\n        /* \"#utility.yul\":14067:14070   */\n      dup7\n        /* \"#utility.yul\":14063:14077   */\n      div\n        /* \"#utility.yul\":14057:14061   */\n      dup2\n        /* \"#utility.yul\":14054:14078   */\n      gt\n        /* \"#utility.yul\":14051:14101   */\n      iszero\n      tag_504\n      jumpi\n        /* \"#utility.yul\":14081:14099   */\n      tag_505\n      tag_336\n      jump\t// in\n    tag_505:\n        /* \"#utility.yul\":14051:14101   */\n    tag_504:\n        /* \"#utility.yul\":14131:14132   */\n      0x01\n        /* \"#utility.yul\":14121:14129   */\n      dup6\n        /* \"#utility.yul\":14117:14133   */\n      and\n        /* \"#utility.yul\":14114:14565   */\n      iszero\n      tag_506\n      jumpi\n        /* \"#utility.yul\":14546:14550   */\n      dup1\n        /* \"#utility.yul\":14539:14544   */\n      dup3\n        /* \"#utility.yul\":14535:14551   */\n      mul\n        /* \"#utility.yul\":14526:14551   */\n      swap2\n      pop\n        /* \"#utility.yul\":14114:14565   */\n    tag_506:\n        /* \"#utility.yul\":14596:14600   */\n      dup1\n        /* \"#utility.yul\":14590:14594   */\n      dup2\n        /* \"#utility.yul\":14586:14601   */\n      mul\n        /* \"#utility.yul\":14578:14601   */\n      swap1\n      pop\n        /* \"#utility.yul\":14626:14658   */\n      tag_507\n        /* \"#utility.yul\":14649:14657   */\n      dup6\n        /* \"#utility.yul\":14626:14658   */\n      tag_351\n      jump\t// in\n    tag_507:\n        /* \"#utility.yul\":14614:14658   */\n      swap5\n      pop\n        /* \"#utility.yul\":13956:14668   */\n      jump(tag_501)\n    tag_503:\n        /* \"#utility.yul\":13826:14674   */\n      swap5\n      pop\n      swap5\n      swap3\n      pop\n      pop\n      pop\n      jump\t// out\n        /* \"#utility.yul\":14680:15753   */\n    tag_353:\n        /* \"#utility.yul\":14734:14739   */\n      0x00\n        /* \"#utility.yul\":14925:14933   */\n      dup3\n        /* \"#utility.yul\":14915:14955   */\n      tag_509\n      jumpi\n        /* \"#utility.yul\":14946:14947   */\n      0x01\n        /* \"#utility.yul\":14937:14947   */\n      swap1\n      pop\n        /* \"#utility.yul\":14948:14953   */\n      jump(tag_508)\n        /* \"#utility.yul\":14915:14955   */\n    tag_509:\n        /* \"#utility.yul\":14974:14978   */\n      dup2\n        /* \"#utility.yul\":14964:15000   */\n      tag_510\n      jumpi\n        /* \"#utility.yul\":14991:14992   */\n      0x00\n        /* \"#utility.yul\":14982:14992   */\n      swap1\n      pop\n        /* \"#utility.yul\":14993:14998   */\n      jump(tag_508)\n        /* \"#utility.yul\":14964:15000   */\n    tag_510:\n        /* \"#utility.yul\":15060:15064   */\n      dup2\n        /* \"#utility.yul\":15108:15109   */\n      0x01\n        /* \"#utility.yul\":15103:15130   */\n      dup2\n      eq\n      tag_512\n      jumpi\n        /* \"#utility.yul\":15144:15145   */\n      0x02\n        /* \"#utility.yul\":15139:15330   */\n      dup2\n      eq\n      tag_513\n      jumpi\n        /* \"#utility.yul\":15053:15330   */\n      jump(tag_511)\n        /* \"#utility.yul\":15103:15130   */\n    tag_512:\n        /* \"#utility.yul\":15121:15122   */\n      0x01\n        /* \"#utility.yul\":15112:15122   */\n      swap2\n      pop\n        /* \"#utility.yul\":15123:15128   */\n      pop\n      jump(tag_508)\n        /* \"#utility.yul\":15139:15330   */\n    tag_513:\n        /* \"#utility.yul\":15184:15187   */\n      0xff\n        /* \"#utility.yul\":15174:15182   */\n      dup5\n        /* \"#utility.yul\":15171:15188   */\n      gt\n        /* \"#utility.yul\":15168:15211   */\n      iszero\n      tag_514\n      jumpi\n        /* \"#utility.yul\":15191:15209   */\n      tag_515\n      tag_336\n      jump\t// in\n    tag_515:\n        /* \"#utility.yul\":15168:15211   */\n    tag_514:\n        /* \"#utility.yul\":15240:15248   */\n      dup4\n        /* \"#utility.yul\":15237:15238   */\n      0x02\n        /* \"#utility.yul\":15233:15249   */\n      exp\n        /* \"#utility.yul\":15224:15249   */\n      swap2\n      pop\n        /* \"#utility.yul\":15275:15278   */\n      dup5\n        /* \"#utility.yul\":15268:15273   */\n      dup3\n        /* \"#utility.yul\":15265:15279   */\n      gt\n        /* \"#utility.yul\":15262:15302   */\n      iszero\n      tag_516\n      jumpi\n        /* \"#utility.yul\":15282:15300   */\n      tag_517\n      tag_336\n      jump\t// in\n    tag_517:\n        /* \"#utility.yul\":15262:15302   */\n    tag_516:\n        /* \"#utility.yul\":15315:15320   */\n      pop\n      jump(tag_508)\n        /* \"#utility.yul\":15053:15330   */\n    tag_511:\n      pop\n        /* \"#utility.yul\":15439:15441   */\n      0x20\n        /* \"#utility.yul\":15429:15437   */\n      dup4\n        /* \"#utility.yul\":15426:15442   */\n      lt\n        /* \"#utility.yul\":15420:15423   */\n      0x0133\n        /* \"#utility.yul\":15414:15418   */\n      dup4\n        /* \"#utility.yul\":15411:15424   */\n      lt\n        /* \"#utility.yul\":15407:15443   */\n      and\n        /* \"#utility.yul\":15389:15391   */\n      0x4e\n        /* \"#utility.yul\":15379:15387   */\n      dup5\n        /* \"#utility.yul\":15376:15392   */\n      lt\n        /* \"#utility.yul\":15371:15373   */\n      0x0b\n        /* \"#utility.yul\":15365:15369   */\n      dup5\n        /* \"#utility.yul\":15362:15374   */\n      lt\n        /* \"#utility.yul\":15358:15393   */\n      and\n        /* \"#utility.yul\":15342:15453   */\n      or\n        /* \"#utility.yul\":15339:15585   */\n      iszero\n      tag_518\n      jumpi\n        /* \"#utility.yul\":15495:15503   */\n      dup3\n        /* \"#utility.yul\":15489:15493   */\n      dup3\n        /* \"#utility.yul\":15485:15504   */\n      exp\n        /* \"#utility.yul\":15476:15504   */\n      swap1\n      pop\n        /* \"#utility.yul\":15530:15533   */\n      dup4\n        /* \"#utility.yul\":15523:15528   */\n      dup2\n        /* \"#utility.yul\":15520:15534   */\n      gt\n        /* \"#utility.yul\":15517:15557   */\n      iszero\n      tag_519\n      jumpi\n        /* \"#utility.yul\":15537:15555   */\n      tag_520\n      tag_336\n      jump\t// in\n    tag_520:\n        /* \"#utility.yul\":15517:15557   */\n    tag_519:\n        /* \"#utility.yul\":15570:15575   */\n      jump(tag_508)\n        /* \"#utility.yul\":15339:15585   */\n    tag_518:\n        /* \"#utility.yul\":15610:15652   */\n      tag_521\n        /* \"#utility.yul\":15648:15651   */\n      dup5\n        /* \"#utility.yul\":15638:15646   */\n      dup5\n        /* \"#utility.yul\":15632:15636   */\n      dup5\n        /* \"#utility.yul\":15629:15630   */\n      0x01\n        /* \"#utility.yul\":15610:15652   */\n      tag_352\n      jump\t// in\n    tag_521:\n        /* \"#utility.yul\":15595:15652   */\n      swap3\n      pop\n      swap1\n      pop\n        /* \"#utility.yul\":15684:15688   */\n      dup2\n        /* \"#utility.yul\":15679:15682   */\n      dup5\n        /* \"#utility.yul\":15675:15689   */\n      div\n        /* \"#utility.yul\":15668:15673   */\n      dup2\n        /* \"#utility.yul\":15665:15690   */\n      gt\n        /* \"#utility.yul\":15662:15713   */\n      iszero\n      tag_522\n      jumpi\n        /* \"#utility.yul\":15693:15711   */\n      tag_523\n      tag_336\n      jump\t// in\n    tag_523:\n        /* \"#utility.yul\":15662:15713   */\n    tag_522:\n        /* \"#utility.yul\":15742:15746   */\n      dup2\n        /* \"#utility.yul\":15735:15740   */\n      dup2\n        /* \"#utility.yul\":15731:15747   */\n      mul\n        /* \"#utility.yul\":15722:15747   */\n      swap1\n      pop\n        /* \"#utility.yul\":14680:15753   */\n    tag_508:\n      swap4\n      swap3\n      pop\n      pop\n      pop\n      jump\t// out\n        /* \"#utility.yul\":15759:16040   */\n    tag_245:\n        /* \"#utility.yul\":15817:15822   */\n      0x00\n        /* \"#utility.yul\":15841:15864   */\n      tag_525\n        /* \"#utility.yul\":15859:15863   */\n      dup3\n        /* \"#utility.yul\":15841:15864   */\n      tag_320\n      jump\t// in\n    tag_525:\n        /* \"#utility.yul\":15833:15864   */\n      swap2\n      pop\n        /* \"#utility.yul\":15885:15910   */\n      tag_526\n        /* \"#utility.yul\":15901:15909   */\n      dup4\n        /* \"#utility.yul\":15885:15910   */\n      tag_327\n      jump\t// in\n    tag_526:\n        /* \"#utility.yul\":15873:15910   */\n      swap3\n      pop\n        /* \"#utility.yul\":15929:16033   */\n      tag_527\n        /* \"#utility.yul\":15966:16032   */\n      0xffffffffffffffffffffffffffffffffffffffffffffffffffffffffffffffff\n        /* \"#utility.yul\":15956:15964   */\n      dup5\n        /* \"#utility.yul\":15950:15954   */\n      dup5\n        /* \"#utility.yul\":15929:16033   */\n      tag_353\n      jump\t// in\n    tag_527:\n        /* \"#utility.yul\":15920:16033   */\n      swap1\n      pop\n        /* \"#utility.yul\":15759:16040   */\n      swap3\n      swap2\n      pop\n      pop\n      jump\t// out\n        /* \"#utility.yul\":16046:16226   */\n    tag_354:\n        /* \"#utility.yul\":16094:16171   */\n      0x4e487b7100000000000000000000000000000000000000000000000000000000\n        /* \"#utility.yul\":16091:16092   */\n      0x00\n        /* \"#utility.yul\":16084:16172   */\n      mstore\n        /* \"#utility.yul\":16191:16195   */\n      0x12\n        /* \"#utility.yul\":16188:16189   */\n      0x04\n        /* \"#utility.yul\":16181:16196   */\n      mstore\n        /* \"#utility.yul\":16215:16219   */\n      0x24\n        /* \"#utility.yul\":16212:16213   */\n      0x00\n        /* \"#utility.yul\":16205:16220   */\n      revert\n        /* \"#utility.yul\":16232:16417   */\n    tag_247:\n        /* \"#utility.yul\":16272:16273   */\n      0x00\n        /* \"#utility.yul\":16289:16309   */\n      tag_530\n        /* \"#utility.yul\":16307:16308   */\n      dup3\n        /* \"#utility.yul\":16289:16309   */\n      tag_320\n      jump\t// in\n    tag_530:\n        /* \"#utility.yul\":16284:16309   */\n      swap2\n      pop\n        /* \"#utility.yul\":16323:16343   */\n      tag_531\n        /* \"#utility.yul\":16341:16342   */\n      dup4\n        /* \"#utility.yul\":16323:16343   */\n      tag_320\n      jump\t// in\n    tag_531:\n        /* \"#utility.yul\":16318:16343   */\n      swap3\n      pop\n        /* \"#utility.yul\":16362:16363   */\n      dup3\n        /* \"#utility.yul\":16352:16387   */\n      tag_532\n      jumpi\n        /* \"#utility.yul\":16367:16385   */\n      tag_533\n      tag_354\n      jump\t// in\n    tag_533:\n        /* \"#utility.yul\":16352:16387   */\n    tag_532:\n        /* \"#utility.yul\":16409:16410   */\n      dup3\n        /* \"#utility.yul\":16406:16407   */\n      dup3\n        /* \"#utility.yul\":16402:16411   */\n      div\n        /* \"#utility.yul\":16397:16411   */\n      swap1\n      pop\n        /* \"#utility.yul\":16232:16417   */\n      swap3\n      swap2\n      pop\n      pop\n      jump\t// out\n        /* \"#utility.yul\":16423:16865   */\n    tag_291:\n        /* \"#utility.yul\":16572:16576   */\n      0x00\n        /* \"#utility.yul\":16610:16612   */\n      0x60\n        /* \"#utility.yul\":16599:16608   */\n      dup3\n        /* \"#utility.yul\":16595:16613   */\n      add\n        /* \"#utility.yul\":16587:16613   */\n      swap1\n      pop\n        /* \"#utility.yul\":16623:16694   */\n      tag_535\n        /* \"#utility.yul\":16691:16692   */\n      0x00\n        /* \"#utility.yul\":16680:16689   */\n      dup4\n        /* \"#utility.yul\":16676:16693   */\n      add\n        /* \"#utility.yul\":16667:16673   */\n      dup7\n        /* \"#utility.yul\":16623:16694   */\n      tag_326\n      jump\t// in\n    tag_535:\n        /* \"#utility.yul\":16704:16776   */\n      tag_536\n        /* \"#utility.yul\":16772:16774   */\n      0x20\n        /* \"#utility.yul\":16761:16770   */\n      dup4\n        /* \"#utility.yul\":16757:16775   */\n      add\n        /* \"#utility.yul\":16748:16754   */\n      dup6\n        /* \"#utility.yul\":16704:16776   */\n      tag_325\n      jump\t// in\n    tag_536:\n        /* \"#utility.yul\":16786:16858   */\n      tag_537\n        /* \"#utility.yul\":16854:16856   */\n      0x40\n        /* \"#utility.yul\":16843:16852   */\n      dup4\n        /* \"#utility.yul\":16839:16857   */\n      add\n        /* \"#utility.yul\":16830:16836   */\n      dup5\n        /* \"#utility.yul\":16786:16858   */\n      tag_325\n      jump\t// in\n    tag_537:\n        /* \"#utility.yul\":16423:16865   */\n      swap5\n      swap4\n      pop\n      pop\n      pop\n      pop\n      jump\t// out\n\n    auxdata: 0xa2646970667358221220c170f3f79e9404792cff6951ad0d0bb678cf7b13539ae1f43a16b0baa21e5cc064736f6c634300081e0033\n}\n",
				"bytecode": {
					"linkReferences": {},
					"object": "608060405234801561000f575f5ffd5b50604051612cc8380380612cc88339818101604052810190610031919061074a565b336040518060400160405280600381526020017f43434b00000000000000000000000000000000000000000000000000000000008152506040518060400160405280600381526020017f43434b000000000000000000000000000000000000000000000000000000000081525081600390816100ad91906109a1565b5080600490816100bd91906109a1565b5050505f73ffffffffffffffffffffffffffffffffffffffff168173ffffffffffffffffffffffffffffffffffffffff1603610130575f6040517f1e4fbdf70000000000000000000000000000000000000000000000000000000081526004016101279190610a7f565b60405180910390fd5b61013f8161022e60201b60201c565b505f815111610183576040517f08c379a000000000000000000000000000000000000000000000000000000000815260040161017a90610b18565b60405180910390fd5b5f5f90505b815181101561020d57600160065f8484815181106101a9576101a8610b36565b5b602002602001015173ffffffffffffffffffffffffffffffffffffffff1673ffffffffffffffffffffffffffffffffffffffff1681526020019081526020015f205f6101000a81548160ff0219169083151502179055508080600101915050610188565b50610228336969e10de76676d08000006102f160201b60201c565b50610c20565b5f60055f9054906101000a900473ffffffffffffffffffffffffffffffffffffffff1690508160055f6101000a81548173ffffffffffffffffffffffffffffffffffffffff021916908373ffffffffffffffffffffffffffffffffffffffff1602179055508173ffffffffffffffffffffffffffffffffffffffff168173ffffffffffffffffffffffffffffffffffffffff167f8be0079c531659141344cd1fd0a4f28419497f9722a3daafe3b4186f6b6457e060405160405180910390a35050565b5f73ffffffffffffffffffffffffffffffffffffffff168273ffffffffffffffffffffffffffffffffffffffff1603610361575f6040517fec442f050000000000000000000000000000000000000000000000000000000081526004016103589190610a7f565b60405180910390fd5b6103725f838361037660201b60201c565b5050565b5f73ffffffffffffffffffffffffffffffffffffffff168373ffffffffffffffffffffffffffffffffffffffff16036103c6578060025f8282546103ba9190610b90565b92505081905550610494565b5f5f5f8573ffffffffffffffffffffffffffffffffffffffff1673ffffffffffffffffffffffffffffffffffffffff1681526020019081526020015f205490508181101561044f578381836040517fe450d38c00000000000000000000000000000000000000000000000000000000815260040161044693929190610bd2565b60405180910390fd5b8181035f5f8673ffffffffffffffffffffffffffffffffffffffff1673ffffffffffffffffffffffffffffffffffffffff1681526020019081526020015f2081905550505b5f73ffffffffffffffffffffffffffffffffffffffff168273ffffffffffffffffffffffffffffffffffffffff16036104db578060025f8282540392505081905550610525565b805f5f8473ffffffffffffffffffffffffffffffffffffffff1673ffffffffffffffffffffffffffffffffffffffff1681526020019081526020015f205f82825401925050819055505b8173ffffffffffffffffffffffffffffffffffffffff168373ffffffffffffffffffffffffffffffffffffffff167fddf252ad1be2c89b69c2b068fc378daa952ba7f163c4a11628f55a4df523b3ef836040516105829190610c07565b60405180910390a3505050565b5f604051905090565b5f5ffd5b5f5ffd5b5f5ffd5b5f601f19601f8301169050919050565b7f4e487b71000000000000000000000000000000000000000000000000000000005f52604160045260245ffd5b6105ea826105a4565b810181811067ffffffffffffffff82111715610609576106086105b4565b5b80604052505050565b5f61061b61058f565b905061062782826105e1565b919050565b5f67ffffffffffffffff821115610646576106456105b4565b5b602082029050602081019050919050565b5f5ffd5b5f73ffffffffffffffffffffffffffffffffffffffff82169050919050565b5f6106848261065b565b9050919050565b6106948161067a565b811461069e575f5ffd5b50565b5f815190506106af8161068b565b92915050565b5f6106c76106c28461062c565b610612565b905080838252602082019050602084028301858111156106ea576106e9610657565b5b835b8181101561071357806106ff88826106a1565b8452602084019350506020810190506106ec565b5050509392505050565b5f82601f830112610731576107306105a0565b5b81516107418482602086016106b5565b91505092915050565b5f6020828403121561075f5761075e610598565b5b5f82015167ffffffffffffffff81111561077c5761077b61059c565b5b6107888482850161071d565b91505092915050565b5f81519050919050565b7f4e487b71000000000000000000000000000000000000000000000000000000005f52602260045260245ffd5b5f60028204905060018216806107df57607f821691505b6020821081036107f2576107f161079b565b5b50919050565b5f819050815f5260205f209050919050565b5f6020601f8301049050919050565b5f82821b905092915050565b5f600883026108547fffffffffffffffffffffffffffffffffffffffffffffffffffffffffffffffff82610819565b61085e8683610819565b95508019841693508086168417925050509392505050565b5f819050919050565b5f819050919050565b5f6108a261089d61089884610876565b61087f565b610876565b9050919050565b5f819050919050565b6108bb83610888565b6108cf6108c7826108a9565b848454610825565b825550505050565b5f5f905090565b6108e66108d7565b6108f18184846108b2565b505050565b5b81811015610914576109095f826108de565b6001810190506108f7565b5050565b601f8211156109595761092a816107f8565b6109338461080a565b81016020851015610942578190505b61095661094e8561080a565b8301826108f6565b50505b505050565b5f82821c905092915050565b5f6109795f198460080261095e565b1980831691505092915050565b5f610991838361096a565b9150826002028217905092915050565b6109aa82610791565b67ffffffffffffffff8111156109c3576109c26105b4565b5b6109cd82546107c8565b6109d8828285610918565b5f60209050601f831160018114610a09575f84156109f7578287015190505b610a018582610986565b865550610a68565b601f198416610a17866107f8565b5f5b82811015610a3e57848901518255600182019150602085019450602081019050610a19565b86831015610a5b5784890151610a57601f89168261096a565b8355505b6001600288020188555050505b505050505050565b610a798161067a565b82525050565b5f602082019050610a925f830184610a70565b92915050565b5f82825260208201905092915050565b7f4174206c65617374206f6e652077686974656c697374656420616464726573735f8201527f2072657175697265640000000000000000000000000000000000000000000000602082015250565b5f610b02602983610a98565b9150610b0d82610aa8565b604082019050919050565b5f6020820190508181035f830152610b2f81610af6565b9050919050565b7f4e487b71000000000000000000000000000000000000000000000000000000005f52603260045260245ffd5b7f4e487b71000000000000000000000000000000000000000000000000000000005f52601160045260245ffd5b5f610b9a82610876565b9150610ba583610876565b9250828201905080821115610bbd57610bbc610b63565b5b92915050565b610bcc81610876565b82525050565b5f606082019050610be55f830186610a70565b610bf26020830185610bc3565b610bff6040830184610bc3565b949350505050565b5f602082019050610c1a5f830184610bc3565b92915050565b61209b80610c2d5f395ff3fe608060405234801561000f575f5ffd5b50600436106101ee575f3560e01c80638da5cb5b1161010d578063d0516650116100a0578063e43252d71161006f578063e43252d7146105c0578063e5839836146105dc578063eb91d37e1461060c578063f2fde38b1461062a576101ee565b8063d051665014610526578063da0239a614610556578063dd62ed3e14610574578063e08ba51a146105a4576101ee565b8063a9059cbb116100dc578063a9059cbb1461049e578063aba63705146104ce578063bdd3d825146104ec578063cb4b73ab1461050a576101ee565b80638da5cb5b14610414578063902d55a51461043257806395d89b41146104505780639b19251a1461046e576101ee565b8063313ce567116101855780636290865d116101545780636290865d146103a057806370a08231146103be578063715018a6146103ee5780638ab1d681146103f8576101ee565b8063313ce5671461032a57806340c10f191461034857806354fd4d50146103645780635c975abb14610382576101ee565b8063158b1a57116101c1578063158b1a571461028e57806318160ddd146102be57806323b872dd146102dc5780632d3802421461030c576101ee565b806306fdde03146101f2578063095ea7b31461021057806312cae7af14610240578063134e18f414610270575b5f5ffd5b6101fa610646565b60405161020791906117e3565b60405180910390f35b61022a60048036038101906102259190611894565b6106d6565b60405161023791906118ec565b60405180910390f35b61025a60048036038101906102559190611905565b6106f8565b604051610267919061193f565b60405180910390f35b610278610709565b6040516102859190611967565b60405180910390f35b6102a860048036038101906102a39190611905565b610710565b6040516102b5919061193f565b60405180910390f35b6102c6610719565b6040516102d3919061193f565b60405180910390f35b6102f660048036038101906102f19190611980565b610722565b60405161030391906118ec565b60405180910390f35b610314610815565b604051610321919061193f565b60405180910390f35b61033261081b565b60405161033f91906119eb565b60405180910390f35b610362600480360381019061035d9190611894565b610822565b005b61036c610933565b60405161037991906117e3565b60405180910390f35b61038a610970565b60405161039791906118ec565b60405180910390f35b6103a8610977565b6040516103b59190611967565b60405180910390f35b6103d860048036038101906103d39190611905565b61097e565b6040516103e5919061193f565b60405180910390f35b6103f66109c3565b005b610412600480360381019061040d9190611905565b6109d6565b005b61041c610a35565b6040516104299190611967565b60405180910390f35b61043a610a5d565b604051610447919061193f565b60405180910390f35b610458610a6b565b60405161046591906117e3565b60405180910390f35b61048860048036038101906104839190611905565b610afb565b60405161049591906118ec565b60405180910390f35b6104b860048036038101906104b39190611894565b610b18565b6040516104c591906118ec565b60405180910390f35b6104d6610c09565b6040516104e39190611967565b60405180910390f35b6104f4610c10565b6040516105019190611967565b60405180910390f35b610524600480360381019061051f9190611905565b610c35565b005b610540600480360381019061053b9190611905565b610c94565b60405161054d91906118ec565b60405180910390f35b61055e610cb1565b60405161056b919061193f565b60405180910390f35b61058e60048036038101906105899190611a04565b610ccf565b60405161059b919061193f565b60405180910390f35b6105be60048036038101906105b99190611905565b610d51565b005b6105da60048036038101906105d59190611905565b610db1565b005b6105f660048036038101906105f19190611905565b610e11565b60405161060391906118ec565b60405180910390f35b610614610e63565b604051610621919061193f565b60405180910390f35b610644600480360381019061063f9190611905565b610f52565b005b60606003805461065590611a6f565b80601f016020809104026020016040519081016040528092919081815260200182805461068190611a6f565b80156106cc5780601f106106a3576101008083540402835291602001916106cc565b820191905f5260205f20905b8154815290600101906020018083116106af57829003601f168201915b5050505050905090565b5f5f6106e0610fd6565b90506106ed818585610fdd565b600191505092915050565b5f6107028261097e565b9050919050565b5f5f905090565b5f5f9050919050565b5f600254905090565b5f60075f8573ffffffffffffffffffffffffffffffffffffffff1673ffffffffffffffffffffffffffffffffffffffff1681526020019081526020015f205f9054906101000a900460ff16156107ad576040517f08c379a00000000000000000000000000000000000000000000000000000000081526004016107a490611ae9565b60405180910390fd5b816fffffffffffffffffffffffffffffffff168214610801576040517f08c379a00000000000000000000000000000000000000000000000000000000081526004016107f890611b51565b60405180910390fd5b61080c848484610fef565b90509392505050565b60095481565b5f5f905090565b61082a61101d565b60065f8373ffffffffffffffffffffffffffffffffffffffff1673ffffffffffffffffffffffffffffffffffffffff1681526020019081526020015f205f9054906101000a900460ff166108b3576040517f08c379a00000000000000000000000000000000000000000000000000000000081526004016108aa90611bb9565b60405180910390fd5b6969e10de76676d0800000816009546108cc9190611c04565b111561090d576040517f08c379a000000000000000000000000000000000000000000000000000000000815260040161090490611c81565b60405180910390fd5b61091782826110a4565b8060095f8282546109289190611c04565b925050819055505050565b60606040518060400160405280600581526020017f312e302e30000000000000000000000000000000000000000000000000000000815250905090565b5f5f905090565b5f5f905090565b5f5f5f8373ffffffffffffffffffffffffffffffffffffffff1673ffffffffffffffffffffffffffffffffffffffff1681526020019081526020015f20549050919050565b6109cb61101d565b6109d45f611123565b565b6109de61101d565b5f60065f8373ffffffffffffffffffffffffffffffffffffffff1673ffffffffffffffffffffffffffffffffffffffff1681526020019081526020015f205f6101000a81548160ff02191690831515021790555050565b5f60055f9054906101000a900473ffffffffffffffffffffffffffffffffffffffff16905090565b6969e10de76676d080000081565b606060048054610a7a90611a6f565b80601f0160208091040260200160405190810160405280929190818152602001828054610aa690611a6f565b8015610af15780601f10610ac857610100808354040283529160200191610af1565b820191905f5260205f20905b815481529060010190602001808311610ad457829003601f168201915b5050505050905090565b6006602052805f5260405f205f915054906101000a900460ff1681565b5f60075f3373ffffffffffffffffffffffffffffffffffffffff1673ffffffffffffffffffffffffffffffffffffffff1681526020019081526020015f205f9054906101000a900460ff1615610ba3576040517f08c379a0000000000000000000000000000000000000000000000000000000008152600401610b9a90611ae9565b60405180910390fd5b816fffffffffffffffffffffffffffffffff168214610bf7576040517f08c379a0000000000000000000000000000000000000000000000000000000008152600401610bee90611b51565b60405180910390fd5b610c0183836111e6565b905092915050565b5f30905090565b60085f9054906101000a900473ffffffffffffffffffffffffffffffffffffffff1681565b610c3d61101d565b5f60075f8373ffffffffffffffffffffffffffffffffffffffff1673ffffffffffffffffffffffffffffffffffffffff1681526020019081526020015f205f6101000a81548160ff02191690831515021790555050565b6007602052805f5260405f205f915054906101000a900460ff1681565b5f6009546969e10de76676d0800000610cca9190611c9f565b905090565b5f60015f8473ffffffffffffffffffffffffffffffffffffffff1673ffffffffffffffffffffffffffffffffffffffff1681526020019081526020015f205f8373ffffffffffffffffffffffffffffffffffffffff1673ffffffffffffffffffffffffffffffffffffffff1681526020019081526020015f2054905092915050565b610d5961101d565b600160075f8373ffffffffffffffffffffffffffffffffffffffff1673ffffffffffffffffffffffffffffffffffffffff1681526020019081526020015f205f6101000a81548160ff02191690831515021790555050565b610db961101d565b600160065f8373ffffffffffffffffffffffffffffffffffffffff1673ffffffffffffffffffffffffffffffffffffffff1681526020019081526020015f205f6101000a81548160ff02191690831515021790555050565b5f60075f8373ffffffffffffffffffffffffffffffffffffffff1673ffffffffffffffffffffffffffffffffffffffff1681526020019081526020015f205f9054906101000a900460ff169050919050565b5f5f60085f9054906101000a900473ffffffffffffffffffffffffffffffffffffffff1690505f8173ffffffffffffffffffffffffffffffffffffffff16633850c7bd6040518163ffffffff1660e01b815260040160e060405180830381865afa158015610ed3573d5f5f3e3d5ffd5b505050506040513d601f19601f82011682018060405250810190610ef79190611dbd565b50505050505090505f780100000000000000000000000000000000000000000000000060028373ffffffffffffffffffffffffffffffffffffffff16610f3d9190611f89565b610f479190612000565b905080935050505090565b610f5a61101d565b5f73ffffffffffffffffffffffffffffffffffffffff168173ffffffffffffffffffffffffffffffffffffffff1603610fca575f6040517f1e4fbdf7000000000000000000000000000000000000000000000000000000008152600401610fc19190611967565b60405180910390fd5b610fd381611123565b50565b5f33905090565b610fea8383836001611208565b505050565b5f5f610ff9610fd6565b90506110068582856113d7565b61101185858561146a565b60019150509392505050565b611025610fd6565b73ffffffffffffffffffffffffffffffffffffffff16611043610a35565b73ffffffffffffffffffffffffffffffffffffffff16146110a257611066610fd6565b6040517f118cdaa70000000000000000000000000000000000000000000000000000000081526004016110999190611967565b60405180910390fd5b565b5f73ffffffffffffffffffffffffffffffffffffffff168273ffffffffffffffffffffffffffffffffffffffff1603611114575f6040517fec442f0500000000000000000000000000000000000000000000000000000000815260040161110b9190611967565b60405180910390fd5b61111f5f838361155a565b5050565b5f60055f9054906101000a900473ffffffffffffffffffffffffffffffffffffffff1690508160055f6101000a81548173ffffffffffffffffffffffffffffffffffffffff021916908373ffffffffffffffffffffffffffffffffffffffff1602179055508173ffffffffffffffffffffffffffffffffffffffff168173ffffffffffffffffffffffffffffffffffffffff167f8be0079c531659141344cd1fd0a4f28419497f9722a3daafe3b4186f6b6457e060405160405180910390a35050565b5f5f6111f0610fd6565b90506111fd81858561146a565b600191505092915050565b5f73ffffffffffffffffffffffffffffffffffffffff168473ffffffffffffffffffffffffffffffffffffffff1603611278575f6040517fe602df0500000000000000000000000000000000000000000000000000000000815260040161126f9190611967565b60405180910390fd5b5f73ffffffffffffffffffffffffffffffffffffffff168373ffffffffffffffffffffffffffffffffffffffff16036112e8575f6040517f94280d620000000000000000000000000000000000000000000000000000000081526004016112df9190611967565b60405180910390fd5b8160015f8673ffffffffffffffffffffffffffffffffffffffff1673ffffffffffffffffffffffffffffffffffffffff1681526020019081526020015f205f8573ffffffffffffffffffffffffffffffffffffffff1673ffffffffffffffffffffffffffffffffffffffff1681526020019081526020015f208190555080156113d1578273ffffffffffffffffffffffffffffffffffffffff168473ffffffffffffffffffffffffffffffffffffffff167f8c5be1e5ebec7d5bd14f71427d1e84f3dd0314c0f7b2291e5b200ac8c7c3b925846040516113c8919061193f565b60405180910390a35b50505050565b5f6113e28484610ccf565b90507fffffffffffffffffffffffffffffffffffffffffffffffffffffffffffffffff8110156114645781811015611455578281836040517ffb8f41b200000000000000000000000000000000000000000000000000000000815260040161144c93929190612030565b60405180910390fd5b61146384848484035f611208565b5b50505050565b5f73ffffffffffffffffffffffffffffffffffffffff168373ffffffffffffffffffffffffffffffffffffffff16036114da575f6040517f96c6fd1e0000000000000000000000000000000000000000000000000000000081526004016114d19190611967565b60405180910390fd5b5f73ffffffffffffffffffffffffffffffffffffffff168273ffffffffffffffffffffffffffffffffffffffff160361154a575f6040517fec442f050000000000000000000000000000000000000000000000000000000081526004016115419190611967565b60405180910390fd5b61155583838361155a565b505050565b5f73ffffffffffffffffffffffffffffffffffffffff168373ffffffffffffffffffffffffffffffffffffffff16036115aa578060025f82825461159e9190611c04565b92505081905550611678565b5f5f5f8573ffffffffffffffffffffffffffffffffffffffff1673ffffffffffffffffffffffffffffffffffffffff1681526020019081526020015f2054905081811015611633578381836040517fe450d38c00000000000000000000000000000000000000000000000000000000815260040161162a93929190612030565b60405180910390fd5b8181035f5f8673ffffffffffffffffffffffffffffffffffffffff1673ffffffffffffffffffffffffffffffffffffffff1681526020019081526020015f2081905550505b5f73ffffffffffffffffffffffffffffffffffffffff168273ffffffffffffffffffffffffffffffffffffffff16036116bf578060025f8282540392505081905550611709565b805f5f8473ffffffffffffffffffffffffffffffffffffffff1673ffffffffffffffffffffffffffffffffffffffff1681526020019081526020015f205f82825401925050819055505b8173ffffffffffffffffffffffffffffffffffffffff168373ffffffffffffffffffffffffffffffffffffffff167fddf252ad1be2c89b69c2b068fc378daa952ba7f163c4a11628f55a4df523b3ef83604051611766919061193f565b60405180910390a3505050565b5f81519050919050565b5f82825260208201905092915050565b8281835e5f83830152505050565b5f601f19601f8301169050919050565b5f6117b582611773565b6117bf818561177d565b93506117cf81856020860161178d565b6117d88161179b565b840191505092915050565b5f6020820190508181035f8301526117fb81846117ab565b905092915050565b5f5ffd5b5f73ffffffffffffffffffffffffffffffffffffffff82169050919050565b5f61183082611807565b9050919050565b61184081611826565b811461184a575f5ffd5b50565b5f8135905061185b81611837565b92915050565b5f819050919050565b61187381611861565b811461187d575f5ffd5b50565b5f8135905061188e8161186a565b92915050565b5f5f604083850312156118aa576118a9611803565b5b5f6118b78582860161184d565b92505060206118c885828601611880565b9150509250929050565b5f8115159050919050565b6118e6816118d2565b82525050565b5f6020820190506118ff5f8301846118dd565b92915050565b5f6020828403121561191a57611919611803565b5b5f6119278482850161184d565b91505092915050565b61193981611861565b82525050565b5f6020820190506119525f830184611930565b92915050565b61196181611826565b82525050565b5f60208201905061197a5f830184611958565b92915050565b5f5f5f6060848603121561199757611996611803565b5b5f6119a48682870161184d565b93505060206119b58682870161184d565b92505060406119c686828701611880565b9150509250925092565b5f60ff82169050919050565b6119e5816119d0565b82525050565b5f6020820190506119fe5f8301846119dc565b92915050565b5f5f60408385031215611a1a57611a19611803565b5b5f611a278582860161184d565b9250506020611a388582860161184d565b9150509250929050565b7f4e487b71000000000000000000000000000000000000000000000000000000005f52602260045260245ffd5b5f6002820490506001821680611a8657607f821691505b602082108103611a9957611a98611a42565b5b50919050565b7f53656e6465722069732066726f7a656e000000000000000000000000000000005f82015250565b5f611ad360108361177d565b9150611ade82611a9f565b602082019050919050565b5f6020820190508181035f830152611b0081611ac7565b9050919050565b7f416d6f756e74206d75737420626520616e20696e7465676572000000000000005f82015250565b5f611b3b60198361177d565b9150611b4682611b07565b602082019050919050565b5f6020820190508181035f830152611b6881611b2f565b9050919050565b7f4e6f742077686974656c697374656400000000000000000000000000000000005f82015250565b5f611ba3600f8361177d565b9150611bae82611b6f565b602082019050919050565b5f6020820190508181035f830152611bd081611b97565b9050919050565b7f4e487b71000000000000000000000000000000000000000000000000000000005f52601160045260245ffd5b5f611c0e82611861565b9150611c1983611861565b9250828201905080821115611c3157611c30611bd7565b5b92915050565b7f546f74616c20737570706c7920657863656564656400000000000000000000005f82015250565b5f611c6b60158361177d565b9150611c7682611c37565b602082019050919050565b5f6020820190508181035f830152611c9881611c5f565b9050919050565b5f611ca982611861565b9150611cb483611861565b9250828203905081811115611ccc57611ccb611bd7565b5b92915050565b611cdb81611807565b8114611ce5575f5ffd5b50565b5f81519050611cf681611cd2565b92915050565b5f8160020b9050919050565b611d1181611cfc565b8114611d1b575f5ffd5b50565b5f81519050611d2c81611d08565b92915050565b5f61ffff82169050919050565b611d4881611d32565b8114611d52575f5ffd5b50565b5f81519050611d6381611d3f565b92915050565b611d72816119d0565b8114611d7c575f5ffd5b50565b5f81519050611d8d81611d69565b92915050565b611d9c816118d2565b8114611da6575f5ffd5b50565b5f81519050611db781611d93565b92915050565b5f5f5f5f5f5f5f60e0888a031215611dd857611dd7611803565b5b5f611de58a828b01611ce8565b9750506020611df68a828b01611d1e565b9650506040611e078a828b01611d55565b9550506060611e188a828b01611d55565b9450506080611e298a828b01611d55565b93505060a0611e3a8a828b01611d7f565b92505060c0611e4b8a828b01611da9565b91505092959891949750929550565b5f8160011c9050919050565b5f5f8291508390505b6001851115611eaf57808604811115611e8b57611e8a611bd7565b5b6001851615611e9a5780820291505b8081029050611ea885611e5a565b9450611e6f565b94509492505050565b5f82611ec75760019050611f82565b81611ed4575f9050611f82565b8160018114611eea5760028114611ef457611f23565b6001915050611f82565b60ff841115611f0657611f05611bd7565b5b8360020a915084821115611f1d57611f1c611bd7565b5b50611f82565b5060208310610133831016604e8410600b8410161715611f585782820a905083811115611f5357611f52611bd7565b5b611f82565b611f658484846001611e66565b92509050818404811115611f7c57611f7b611bd7565b5b81810290505b9392505050565b5f611f9382611861565b9150611f9e836119d0565b9250611fcb7fffffffffffffffffffffffffffffffffffffffffffffffffffffffffffffffff8484611eb8565b905092915050565b7f4e487b71000000000000000000000000000000000000000000000000000000005f52601260045260245ffd5b5f61200a82611861565b915061201583611861565b92508261202557612024611fd3565b5b828204905092915050565b5f6060820190506120435f830186611958565b6120506020830185611930565b61205d6040830184611930565b94935050505056fea2646970667358221220c170f3f79e9404792cff6951ad0d0bb678cf7b13539ae1f43a16b0baa21e5cc064736f6c634300081e0033",
					"opcodes": "PUSH1 0x80 PUSH1 0x40 MSTORE CALLVALUE DUP1 ISZERO PUSH2 0xF JUMPI PUSH0 PUSH0 REVERT JUMPDEST POP PUSH1 0x40 MLOAD PUSH2 0x2CC8 CODESIZE SUB DUP1 PUSH2 0x2CC8 DUP4 CODECOPY DUP2 DUP2 ADD PUSH1 0x40 MSTORE DUP2 ADD SWAP1 PUSH2 0x31 SWAP2 SWAP1 PUSH2 0x74A JUMP JUMPDEST CALLER PUSH1 0x40 MLOAD DUP1 PUSH1 0x40 ADD PUSH1 0x40 MSTORE DUP1 PUSH1 0x3 DUP2 MSTORE PUSH1 0x20 ADD PUSH32 0x43434B0000000000000000000000000000000000000000000000000000000000 DUP2 MSTORE POP PUSH1 0x40 MLOAD DUP1 PUSH1 0x40 ADD PUSH1 0x40 MSTORE DUP1 PUSH1 0x3 DUP2 MSTORE PUSH1 0x20 ADD PUSH32 0x43434B0000000000000000000000000000000000000000000000000000000000 DUP2 MSTORE POP DUP2 PUSH1 0x3 SWAP1 DUP2 PUSH2 0xAD SWAP2 SWAP1 PUSH2 0x9A1 JUMP JUMPDEST POP DUP1 PUSH1 0x4 SWAP1 DUP2 PUSH2 0xBD SWAP2 SWAP1 PUSH2 0x9A1 JUMP JUMPDEST POP POP POP PUSH0 PUSH20 0xFFFFFFFFFFFFFFFFFFFFFFFFFFFFFFFFFFFFFFFF AND DUP2 PUSH20 0xFFFFFFFFFFFFFFFFFFFFFFFFFFFFFFFFFFFFFFFF AND SUB PUSH2 0x130 JUMPI PUSH0 PUSH1 0x40 MLOAD PUSH32 0x1E4FBDF700000000000000000000000000000000000000000000000000000000 DUP2 MSTORE PUSH1 0x4 ADD PUSH2 0x127 SWAP2 SWAP1 PUSH2 0xA7F JUMP JUMPDEST PUSH1 0x40 MLOAD DUP1 SWAP2 SUB SWAP1 REVERT JUMPDEST PUSH2 0x13F DUP2 PUSH2 0x22E PUSH1 0x20 SHL PUSH1 0x20 SHR JUMP JUMPDEST POP PUSH0 DUP2 MLOAD GT PUSH2 0x183 JUMPI PUSH1 0x40 MLOAD PUSH32 0x8C379A000000000000000000000000000000000000000000000000000000000 DUP2 MSTORE PUSH1 0x4 ADD PUSH2 0x17A SWAP1 PUSH2 0xB18 JUMP JUMPDEST PUSH1 0x40 MLOAD DUP1 SWAP2 SUB SWAP1 REVERT JUMPDEST PUSH0 PUSH0 SWAP1 POP JUMPDEST DUP2 MLOAD DUP2 LT ISZERO PUSH2 0x20D JUMPI PUSH1 0x1 PUSH1 0x6 PUSH0 DUP5 DUP5 DUP2 MLOAD DUP2 LT PUSH2 0x1A9 JUMPI PUSH2 0x1A8 PUSH2 0xB36 JUMP JUMPDEST JUMPDEST PUSH1 0x20 MUL PUSH1 0x20 ADD ADD MLOAD PUSH20 0xFFFFFFFFFFFFFFFFFFFFFFFFFFFFFFFFFFFFFFFF AND PUSH20 0xFFFFFFFFFFFFFFFFFFFFFFFFFFFFFFFFFFFFFFFF AND DUP2 MSTORE PUSH1 0x20 ADD SWAP1 DUP2 MSTORE PUSH1 0x20 ADD PUSH0 KECCAK256 PUSH0 PUSH2 0x100 EXP DUP2 SLOAD DUP2 PUSH1 0xFF MUL NOT AND SWAP1 DUP4 ISZERO ISZERO MUL OR SWAP1 SSTORE POP DUP1 DUP1 PUSH1 0x1 ADD SWAP2 POP POP PUSH2 0x188 JUMP JUMPDEST POP PUSH2 0x228 CALLER PUSH10 0x69E10DE76676D0800000 PUSH2 0x2F1 PUSH1 0x20 SHL PUSH1 0x20 SHR JUMP JUMPDEST POP PUSH2 0xC20 JUMP JUMPDEST PUSH0 PUSH1 0x5 PUSH0 SWAP1 SLOAD SWAP1 PUSH2 0x100 EXP SWAP1 DIV PUSH20 0xFFFFFFFFFFFFFFFFFFFFFFFFFFFFFFFFFFFFFFFF AND SWAP1 POP DUP2 PUSH1 0x5 PUSH0 PUSH2 0x100 EXP DUP2 SLOAD DUP2 PUSH20 0xFFFFFFFFFFFFFFFFFFFFFFFFFFFFFFFFFFFFFFFF MUL NOT AND SWAP1 DUP4 PUSH20 0xFFFFFFFFFFFFFFFFFFFFFFFFFFFFFFFFFFFFFFFF AND MUL OR SWAP1 SSTORE POP DUP2 PUSH20 0xFFFFFFFFFFFFFFFFFFFFFFFFFFFFFFFFFFFFFFFF AND DUP2 PUSH20 0xFFFFFFFFFFFFFFFFFFFFFFFFFFFFFFFFFFFFFFFF AND PUSH32 0x8BE0079C531659141344CD1FD0A4F28419497F9722A3DAAFE3B4186F6B6457E0 PUSH1 0x40 MLOAD PUSH1 0x40 MLOAD DUP1 SWAP2 SUB SWAP1 LOG3 POP POP JUMP JUMPDEST PUSH0 PUSH20 0xFFFFFFFFFFFFFFFFFFFFFFFFFFFFFFFFFFFFFFFF AND DUP3 PUSH20 0xFFFFFFFFFFFFFFFFFFFFFFFFFFFFFFFFFFFFFFFF AND SUB PUSH2 0x361 JUMPI PUSH0 PUSH1 0x40 MLOAD PUSH32 0xEC442F0500000000000000000000000000000000000000000000000000000000 DUP2 MSTORE PUSH1 0x4 ADD PUSH2 0x358 SWAP2 SWAP1 PUSH2 0xA7F JUMP JUMPDEST PUSH1 0x40 MLOAD DUP1 SWAP2 SUB SWAP1 REVERT JUMPDEST PUSH2 0x372 PUSH0 DUP4 DUP4 PUSH2 0x376 PUSH1 0x20 SHL PUSH1 0x20 SHR JUMP JUMPDEST POP POP JUMP JUMPDEST PUSH0 PUSH20 0xFFFFFFFFFFFFFFFFFFFFFFFFFFFFFFFFFFFFFFFF AND DUP4 PUSH20 0xFFFFFFFFFFFFFFFFFFFFFFFFFFFFFFFFFFFFFFFF AND SUB PUSH2 0x3C6 JUMPI DUP1 PUSH1 0x2 PUSH0 DUP3 DUP3 SLOAD PUSH2 0x3BA SWAP2 SWAP1 PUSH2 0xB90 JUMP JUMPDEST SWAP3 POP POP DUP2 SWAP1 SSTORE POP PUSH2 0x494 JUMP JUMPDEST PUSH0 PUSH0 PUSH0 DUP6 PUSH20 0xFFFFFFFFFFFFFFFFFFFFFFFFFFFFFFFFFFFFFFFF AND PUSH20 0xFFFFFFFFFFFFFFFFFFFFFFFFFFFFFFFFFFFFFFFF AND DUP2 MSTORE PUSH1 0x20 ADD SWAP1 DUP2 MSTORE PUSH1 0x20 ADD PUSH0 KECCAK256 SLOAD SWAP1 POP DUP2 DUP2 LT ISZERO PUSH2 0x44F JUMPI DUP4 DUP2 DUP4 PUSH1 0x40 MLOAD PUSH32 0xE450D38C00000000000000000000000000000000000000000000000000000000 DUP2 MSTORE PUSH1 0x4 ADD PUSH2 0x446 SWAP4 SWAP3 SWAP2 SWAP1 PUSH2 0xBD2 JUMP JUMPDEST PUSH1 0x40 MLOAD DUP1 SWAP2 SUB SWAP1 REVERT JUMPDEST DUP2 DUP2 SUB PUSH0 PUSH0 DUP7 PUSH20 0xFFFFFFFFFFFFFFFFFFFFFFFFFFFFFFFFFFFFFFFF AND PUSH20 0xFFFFFFFFFFFFFFFFFFFFFFFFFFFFFFFFFFFFFFFF AND DUP2 MSTORE PUSH1 0x20 ADD SWAP1 DUP2 MSTORE PUSH1 0x20 ADD PUSH0 KECCAK256 DUP2 SWAP1 SSTORE POP POP JUMPDEST PUSH0 PUSH20 0xFFFFFFFFFFFFFFFFFFFFFFFFFFFFFFFFFFFFFFFF AND DUP3 PUSH20 0xFFFFFFFFFFFFFFFFFFFFFFFFFFFFFFFFFFFFFFFF AND SUB PUSH2 0x4DB JUMPI DUP1 PUSH1 0x2 PUSH0 DUP3 DUP3 SLOAD SUB SWAP3 POP POP DUP2 SWAP1 SSTORE POP PUSH2 0x525 JUMP JUMPDEST DUP1 PUSH0 PUSH0 DUP5 PUSH20 0xFFFFFFFFFFFFFFFFFFFFFFFFFFFFFFFFFFFFFFFF AND PUSH20 0xFFFFFFFFFFFFFFFFFFFFFFFFFFFFFFFFFFFFFFFF AND DUP2 MSTORE PUSH1 0x20 ADD SWAP1 DUP2 MSTORE PUSH1 0x20 ADD PUSH0 KECCAK256 PUSH0 DUP3 DUP3 SLOAD ADD SWAP3 POP POP DUP2 SWAP1 SSTORE POP JUMPDEST DUP2 PUSH20 0xFFFFFFFFFFFFFFFFFFFFFFFFFFFFFFFFFFFFFFFF AND DUP4 PUSH20 0xFFFFFFFFFFFFFFFFFFFFFFFFFFFFFFFFFFFFFFFF AND PUSH32 0xDDF252AD1BE2C89B69C2B068FC378DAA952BA7F163C4A11628F55A4DF523B3EF DUP4 PUSH1 0x40 MLOAD PUSH2 0x582 SWAP2 SWAP1 PUSH2 0xC07 JUMP JUMPDEST PUSH1 0x40 MLOAD DUP1 SWAP2 SUB SWAP1 LOG3 POP POP POP JUMP JUMPDEST PUSH0 PUSH1 0x40 MLOAD SWAP1 POP SWAP1 JUMP JUMPDEST PUSH0 PUSH0 REVERT JUMPDEST PUSH0 PUSH0 REVERT JUMPDEST PUSH0 PUSH0 REVERT JUMPDEST PUSH0 PUSH1 0x1F NOT PUSH1 0x1F DUP4 ADD AND SWAP1 POP SWAP2 SWAP1 POP JUMP JUMPDEST PUSH32 0x4E487B7100000000000000000000000000000000000000000000000000000000 PUSH0 MSTORE PUSH1 0x41 PUSH1 0x4 MSTORE PUSH1 0x24 PUSH0 REVERT JUMPDEST PUSH2 0x5EA DUP3 PUSH2 0x5A4 JUMP JUMPDEST DUP2 ADD DUP2 DUP2 LT PUSH8 0xFFFFFFFFFFFFFFFF DUP3 GT OR ISZERO PUSH2 0x609 JUMPI PUSH2 0x608 PUSH2 0x5B4 JUMP JUMPDEST JUMPDEST DUP1 PUSH1 0x40 MSTORE POP POP POP JUMP JUMPDEST PUSH0 PUSH2 0x61B PUSH2 0x58F JUMP JUMPDEST SWAP1 POP PUSH2 0x627 DUP3 DUP3 PUSH2 0x5E1 JUMP JUMPDEST SWAP2 SWAP1 POP JUMP JUMPDEST PUSH0 PUSH8 0xFFFFFFFFFFFFFFFF DUP3 GT ISZERO PUSH2 0x646 JUMPI PUSH2 0x645 PUSH2 0x5B4 JUMP JUMPDEST JUMPDEST PUSH1 0x20 DUP3 MUL SWAP1 POP PUSH1 0x20 DUP2 ADD SWAP1 POP SWAP2 SWAP1 POP JUMP JUMPDEST PUSH0 PUSH0 REVERT JUMPDEST PUSH0 PUSH20 0xFFFFFFFFFFFFFFFFFFFFFFFFFFFFFFFFFFFFFFFF DUP3 AND SWAP1 POP SWAP2 SWAP1 POP JUMP JUMPDEST PUSH0 PUSH2 0x684 DUP3 PUSH2 0x65B JUMP JUMPDEST SWAP1 POP SWAP2 SWAP1 POP JUMP JUMPDEST PUSH2 0x694 DUP2 PUSH2 0x67A JUMP JUMPDEST DUP2 EQ PUSH2 0x69E JUMPI PUSH0 PUSH0 REVERT JUMPDEST POP JUMP JUMPDEST PUSH0 DUP2 MLOAD SWAP1 POP PUSH2 0x6AF DUP2 PUSH2 0x68B JUMP JUMPDEST SWAP3 SWAP2 POP POP JUMP JUMPDEST PUSH0 PUSH2 0x6C7 PUSH2 0x6C2 DUP5 PUSH2 0x62C JUMP JUMPDEST PUSH2 0x612 JUMP JUMPDEST SWAP1 POP DUP1 DUP4 DUP3 MSTORE PUSH1 0x20 DUP3 ADD SWAP1 POP PUSH1 0x20 DUP5 MUL DUP4 ADD DUP6 DUP2 GT ISZERO PUSH2 0x6EA JUMPI PUSH2 0x6E9 PUSH2 0x657 JUMP JUMPDEST JUMPDEST DUP4 JUMPDEST DUP2 DUP2 LT ISZERO PUSH2 0x713 JUMPI DUP1 PUSH2 0x6FF DUP9 DUP3 PUSH2 0x6A1 JUMP JUMPDEST DUP5 MSTORE PUSH1 0x20 DUP5 ADD SWAP4 POP POP PUSH1 0x20 DUP2 ADD SWAP1 POP PUSH2 0x6EC JUMP JUMPDEST POP POP POP SWAP4 SWAP3 POP POP POP JUMP JUMPDEST PUSH0 DUP3 PUSH1 0x1F DUP4 ADD SLT PUSH2 0x731 JUMPI PUSH2 0x730 PUSH2 0x5A0 JUMP JUMPDEST JUMPDEST DUP2 MLOAD PUSH2 0x741 DUP5 DUP3 PUSH1 0x20 DUP7 ADD PUSH2 0x6B5 JUMP JUMPDEST SWAP2 POP POP SWAP3 SWAP2 POP POP JUMP JUMPDEST PUSH0 PUSH1 0x20 DUP3 DUP5 SUB SLT ISZERO PUSH2 0x75F JUMPI PUSH2 0x75E PUSH2 0x598 JUMP JUMPDEST JUMPDEST PUSH0 DUP3 ADD MLOAD PUSH8 0xFFFFFFFFFFFFFFFF DUP2 GT ISZERO PUSH2 0x77C JUMPI PUSH2 0x77B PUSH2 0x59C JUMP JUMPDEST JUMPDEST PUSH2 0x788 DUP5 DUP3 DUP6 ADD PUSH2 0x71D JUMP JUMPDEST SWAP2 POP POP SWAP3 SWAP2 POP POP JUMP JUMPDEST PUSH0 DUP2 MLOAD SWAP1 POP SWAP2 SWAP1 POP JUMP JUMPDEST PUSH32 0x4E487B7100000000000000000000000000000000000000000000000000000000 PUSH0 MSTORE PUSH1 0x22 PUSH1 0x4 MSTORE PUSH1 0x24 PUSH0 REVERT JUMPDEST PUSH0 PUSH1 0x2 DUP3 DIV SWAP1 POP PUSH1 0x1 DUP3 AND DUP1 PUSH2 0x7DF JUMPI PUSH1 0x7F DUP3 AND SWAP2 POP JUMPDEST PUSH1 0x20 DUP3 LT DUP2 SUB PUSH2 0x7F2 JUMPI PUSH2 0x7F1 PUSH2 0x79B JUMP JUMPDEST JUMPDEST POP SWAP2 SWAP1 POP JUMP JUMPDEST PUSH0 DUP2 SWAP1 POP DUP2 PUSH0 MSTORE PUSH1 0x20 PUSH0 KECCAK256 SWAP1 POP SWAP2 SWAP1 POP JUMP JUMPDEST PUSH0 PUSH1 0x20 PUSH1 0x1F DUP4 ADD DIV SWAP1 POP SWAP2 SWAP1 POP JUMP JUMPDEST PUSH0 DUP3 DUP3 SHL SWAP1 POP SWAP3 SWAP2 POP POP JUMP JUMPDEST PUSH0 PUSH1 0x8 DUP4 MUL PUSH2 0x854 PUSH32 0xFFFFFFFFFFFFFFFFFFFFFFFFFFFFFFFFFFFFFFFFFFFFFFFFFFFFFFFFFFFFFFFF DUP3 PUSH2 0x819 JUMP JUMPDEST PUSH2 0x85E DUP7 DUP4 PUSH2 0x819 JUMP JUMPDEST SWAP6 POP DUP1 NOT DUP5 AND SWAP4 POP DUP1 DUP7 AND DUP5 OR SWAP3 POP POP POP SWAP4 SWAP3 POP POP POP JUMP JUMPDEST PUSH0 DUP2 SWAP1 POP SWAP2 SWAP1 POP JUMP JUMPDEST PUSH0 DUP2 SWAP1 POP SWAP2 SWAP1 POP JUMP JUMPDEST PUSH0 PUSH2 0x8A2 PUSH2 0x89D PUSH2 0x898 DUP5 PUSH2 0x876 JUMP JUMPDEST PUSH2 0x87F JUMP JUMPDEST PUSH2 0x876 JUMP JUMPDEST SWAP1 POP SWAP2 SWAP1 POP JUMP JUMPDEST PUSH0 DUP2 SWAP1 POP SWAP2 SWAP1 POP JUMP JUMPDEST PUSH2 0x8BB DUP4 PUSH2 0x888 JUMP JUMPDEST PUSH2 0x8CF PUSH2 0x8C7 DUP3 PUSH2 0x8A9 JUMP JUMPDEST DUP5 DUP5 SLOAD PUSH2 0x825 JUMP JUMPDEST DUP3 SSTORE POP POP POP POP JUMP JUMPDEST PUSH0 PUSH0 SWAP1 POP SWAP1 JUMP JUMPDEST PUSH2 0x8E6 PUSH2 0x8D7 JUMP JUMPDEST PUSH2 0x8F1 DUP2 DUP5 DUP5 PUSH2 0x8B2 JUMP JUMPDEST POP POP POP JUMP JUMPDEST JUMPDEST DUP2 DUP2 LT ISZERO PUSH2 0x914 JUMPI PUSH2 0x909 PUSH0 DUP3 PUSH2 0x8DE JUMP JUMPDEST PUSH1 0x1 DUP2 ADD SWAP1 POP PUSH2 0x8F7 JUMP JUMPDEST POP POP JUMP JUMPDEST PUSH1 0x1F DUP3 GT ISZERO PUSH2 0x959 JUMPI PUSH2 0x92A DUP2 PUSH2 0x7F8 JUMP JUMPDEST PUSH2 0x933 DUP5 PUSH2 0x80A JUMP JUMPDEST DUP2 ADD PUSH1 0x20 DUP6 LT ISZERO PUSH2 0x942 JUMPI DUP2 SWAP1 POP JUMPDEST PUSH2 0x956 PUSH2 0x94E DUP6 PUSH2 0x80A JUMP JUMPDEST DUP4 ADD DUP3 PUSH2 0x8F6 JUMP JUMPDEST POP POP JUMPDEST POP POP POP JUMP JUMPDEST PUSH0 DUP3 DUP3 SHR SWAP1 POP SWAP3 SWAP2 POP POP JUMP JUMPDEST PUSH0 PUSH2 0x979 PUSH0 NOT DUP5 PUSH1 0x8 MUL PUSH2 0x95E JUMP JUMPDEST NOT DUP1 DUP4 AND SWAP2 POP POP SWAP3 SWAP2 POP POP JUMP JUMPDEST PUSH0 PUSH2 0x991 DUP4 DUP4 PUSH2 0x96A JUMP JUMPDEST SWAP2 POP DUP3 PUSH1 0x2 MUL DUP3 OR SWAP1 POP SWAP3 SWAP2 POP POP JUMP JUMPDEST PUSH2 0x9AA DUP3 PUSH2 0x791 JUMP JUMPDEST PUSH8 0xFFFFFFFFFFFFFFFF DUP2 GT ISZERO PUSH2 0x9C3 JUMPI PUSH2 0x9C2 PUSH2 0x5B4 JUMP JUMPDEST JUMPDEST PUSH2 0x9CD DUP3 SLOAD PUSH2 0x7C8 JUMP JUMPDEST PUSH2 0x9D8 DUP3 DUP3 DUP6 PUSH2 0x918 JUMP JUMPDEST PUSH0 PUSH1 0x20 SWAP1 POP PUSH1 0x1F DUP4 GT PUSH1 0x1 DUP2 EQ PUSH2 0xA09 JUMPI PUSH0 DUP5 ISZERO PUSH2 0x9F7 JUMPI DUP3 DUP8 ADD MLOAD SWAP1 POP JUMPDEST PUSH2 0xA01 DUP6 DUP3 PUSH2 0x986 JUMP JUMPDEST DUP7 SSTORE POP PUSH2 0xA68 JUMP JUMPDEST PUSH1 0x1F NOT DUP5 AND PUSH2 0xA17 DUP7 PUSH2 0x7F8 JUMP JUMPDEST PUSH0 JUMPDEST DUP3 DUP2 LT ISZERO PUSH2 0xA3E JUMPI DUP5 DUP10 ADD MLOAD DUP3 SSTORE PUSH1 0x1 DUP3 ADD SWAP2 POP PUSH1 0x20 DUP6 ADD SWAP5 POP PUSH1 0x20 DUP2 ADD SWAP1 POP PUSH2 0xA19 JUMP JUMPDEST DUP7 DUP4 LT ISZERO PUSH2 0xA5B JUMPI DUP5 DUP10 ADD MLOAD PUSH2 0xA57 PUSH1 0x1F DUP10 AND DUP3 PUSH2 0x96A JUMP JUMPDEST DUP4 SSTORE POP JUMPDEST PUSH1 0x1 PUSH1 0x2 DUP9 MUL ADD DUP9 SSTORE POP POP POP JUMPDEST POP POP POP POP POP POP JUMP JUMPDEST PUSH2 0xA79 DUP2 PUSH2 0x67A JUMP JUMPDEST DUP3 MSTORE POP POP JUMP JUMPDEST PUSH0 PUSH1 0x20 DUP3 ADD SWAP1 POP PUSH2 0xA92 PUSH0 DUP4 ADD DUP5 PUSH2 0xA70 JUMP JUMPDEST SWAP3 SWAP2 POP POP JUMP JUMPDEST PUSH0 DUP3 DUP3 MSTORE PUSH1 0x20 DUP3 ADD SWAP1 POP SWAP3 SWAP2 POP POP JUMP JUMPDEST PUSH32 0x4174206C65617374206F6E652077686974656C69737465642061646472657373 PUSH0 DUP3 ADD MSTORE PUSH32 0x2072657175697265640000000000000000000000000000000000000000000000 PUSH1 0x20 DUP3 ADD MSTORE POP JUMP JUMPDEST PUSH0 PUSH2 0xB02 PUSH1 0x29 DUP4 PUSH2 0xA98 JUMP JUMPDEST SWAP2 POP PUSH2 0xB0D DUP3 PUSH2 0xAA8 JUMP JUMPDEST PUSH1 0x40 DUP3 ADD SWAP1 POP SWAP2 SWAP1 POP JUMP JUMPDEST PUSH0 PUSH1 0x20 DUP3 ADD SWAP1 POP DUP2 DUP2 SUB PUSH0 DUP4 ADD MSTORE PUSH2 0xB2F DUP2 PUSH2 0xAF6 JUMP JUMPDEST SWAP1 POP SWAP2 SWAP1 POP JUMP JUMPDEST PUSH32 0x4E487B7100000000000000000000000000000000000000000000000000000000 PUSH0 MSTORE PUSH1 0x32 PUSH1 0x4 MSTORE PUSH1 0x24 PUSH0 REVERT JUMPDEST PUSH32 0x4E487B7100000000000000000000000000000000000000000000000000000000 PUSH0 MSTORE PUSH1 0x11 PUSH1 0x4 MSTORE PUSH1 0x24 PUSH0 REVERT JUMPDEST PUSH0 PUSH2 0xB9A DUP3 PUSH2 0x876 JUMP JUMPDEST SWAP2 POP PUSH2 0xBA5 DUP4 PUSH2 0x876 JUMP JUMPDEST SWAP3 POP DUP3 DUP3 ADD SWAP1 POP DUP1 DUP3 GT ISZERO PUSH2 0xBBD JUMPI PUSH2 0xBBC PUSH2 0xB63 JUMP JUMPDEST JUMPDEST SWAP3 SWAP2 POP POP JUMP JUMPDEST PUSH2 0xBCC DUP2 PUSH2 0x876 JUMP JUMPDEST DUP3 MSTORE POP POP JUMP JUMPDEST PUSH0 PUSH1 0x60 DUP3 ADD SWAP1 POP PUSH2 0xBE5 PUSH0 DUP4 ADD DUP7 PUSH2 0xA70 JUMP JUMPDEST PUSH2 0xBF2 PUSH1 0x20 DUP4 ADD DUP6 PUSH2 0xBC3 JUMP JUMPDEST PUSH2 0xBFF PUSH1 0x40 DUP4 ADD DUP5 PUSH2 0xBC3 JUMP JUMPDEST SWAP5 SWAP4 POP POP POP POP JUMP JUMPDEST PUSH0 PUSH1 0x20 DUP3 ADD SWAP1 POP PUSH2 0xC1A PUSH0 DUP4 ADD DUP5 PUSH2 0xBC3 JUMP JUMPDEST SWAP3 SWAP2 POP POP JUMP JUMPDEST PUSH2 0x209B DUP1 PUSH2 0xC2D PUSH0 CODECOPY PUSH0 RETURN INVALID PUSH1 0x80 PUSH1 0x40 MSTORE CALLVALUE DUP1 ISZERO PUSH2 0xF JUMPI PUSH0 PUSH0 REVERT JUMPDEST POP PUSH1 0x4 CALLDATASIZE LT PUSH2 0x1EE JUMPI PUSH0 CALLDATALOAD PUSH1 0xE0 SHR DUP1 PUSH4 0x8DA5CB5B GT PUSH2 0x10D JUMPI DUP1 PUSH4 0xD0516650 GT PUSH2 0xA0 JUMPI DUP1 PUSH4 0xE43252D7 GT PUSH2 0x6F JUMPI DUP1 PUSH4 0xE43252D7 EQ PUSH2 0x5C0 JUMPI DUP1 PUSH4 0xE5839836 EQ PUSH2 0x5DC JUMPI DUP1 PUSH4 0xEB91D37E EQ PUSH2 0x60C JUMPI DUP1 PUSH4 0xF2FDE38B EQ PUSH2 0x62A JUMPI PUSH2 0x1EE JUMP JUMPDEST DUP1 PUSH4 0xD0516650 EQ PUSH2 0x526 JUMPI DUP1 PUSH4 0xDA0239A6 EQ PUSH2 0x556 JUMPI DUP1 PUSH4 0xDD62ED3E EQ PUSH2 0x574 JUMPI DUP1 PUSH4 0xE08BA51A EQ PUSH2 0x5A4 JUMPI PUSH2 0x1EE JUMP JUMPDEST DUP1 PUSH4 0xA9059CBB GT PUSH2 0xDC JUMPI DUP1 PUSH4 0xA9059CBB EQ PUSH2 0x49E JUMPI DUP1 PUSH4 0xABA63705 EQ PUSH2 0x4CE JUMPI DUP1 PUSH4 0xBDD3D825 EQ PUSH2 0x4EC JUMPI DUP1 PUSH4 0xCB4B73AB EQ PUSH2 0x50A JUMPI PUSH2 0x1EE JUMP JUMPDEST DUP1 PUSH4 0x8DA5CB5B EQ PUSH2 0x414 JUMPI DUP1 PUSH4 0x902D55A5 EQ PUSH2 0x432 JUMPI DUP1 PUSH4 0x95D89B41 EQ PUSH2 0x450 JUMPI DUP1 PUSH4 0x9B19251A EQ PUSH2 0x46E JUMPI PUSH2 0x1EE JUMP JUMPDEST DUP1 PUSH4 0x313CE567 GT PUSH2 0x185 JUMPI DUP1 PUSH4 0x6290865D GT PUSH2 0x154 JUMPI DUP1 PUSH4 0x6290865D EQ PUSH2 0x3A0 JUMPI DUP1 PUSH4 0x70A08231 EQ PUSH2 0x3BE JUMPI DUP1 PUSH4 0x715018A6 EQ PUSH2 0x3EE JUMPI DUP1 PUSH4 0x8AB1D681 EQ PUSH2 0x3F8 JUMPI PUSH2 0x1EE JUMP JUMPDEST DUP1 PUSH4 0x313CE567 EQ PUSH2 0x32A JUMPI DUP1 PUSH4 0x40C10F19 EQ PUSH2 0x348 JUMPI DUP1 PUSH4 0x54FD4D50 EQ PUSH2 0x364 JUMPI DUP1 PUSH4 0x5C975ABB EQ PUSH2 0x382 JUMPI PUSH2 0x1EE JUMP JUMPDEST DUP1 PUSH4 0x158B1A57 GT PUSH2 0x1C1 JUMPI DUP1 PUSH4 0x158B1A57 EQ PUSH2 0x28E JUMPI DUP1 PUSH4 0x18160DDD EQ PUSH2 0x2BE JUMPI DUP1 PUSH4 0x23B872DD EQ PUSH2 0x2DC JUMPI DUP1 PUSH4 0x2D380242 EQ PUSH2 0x30C JUMPI PUSH2 0x1EE JUMP JUMPDEST DUP1 PUSH4 0x6FDDE03 EQ PUSH2 0x1F2 JUMPI DUP1 PUSH4 0x95EA7B3 EQ PUSH2 0x210 JUMPI DUP1 PUSH4 0x12CAE7AF EQ PUSH2 0x240 JUMPI DUP1 PUSH4 0x134E18F4 EQ PUSH2 0x270 JUMPI JUMPDEST PUSH0 PUSH0 REVERT JUMPDEST PUSH2 0x1FA PUSH2 0x646 JUMP JUMPDEST PUSH1 0x40 MLOAD PUSH2 0x207 SWAP2 SWAP1 PUSH2 0x17E3 JUMP JUMPDEST PUSH1 0x40 MLOAD DUP1 SWAP2 SUB SWAP1 RETURN JUMPDEST PUSH2 0x22A PUSH1 0x4 DUP1 CALLDATASIZE SUB DUP2 ADD SWAP1 PUSH2 0x225 SWAP2 SWAP1 PUSH2 0x1894 JUMP JUMPDEST PUSH2 0x6D6 JUMP JUMPDEST PUSH1 0x40 MLOAD PUSH2 0x237 SWAP2 SWAP1 PUSH2 0x18EC JUMP JUMPDEST PUSH1 0x40 MLOAD DUP1 SWAP2 SUB SWAP1 RETURN JUMPDEST PUSH2 0x25A PUSH1 0x4 DUP1 CALLDATASIZE SUB DUP2 ADD SWAP1 PUSH2 0x255 SWAP2 SWAP1 PUSH2 0x1905 JUMP JUMPDEST PUSH2 0x6F8 JUMP JUMPDEST PUSH1 0x40 MLOAD PUSH2 0x267 SWAP2 SWAP1 PUSH2 0x193F JUMP JUMPDEST PUSH1 0x40 MLOAD DUP1 SWAP2 SUB SWAP1 RETURN JUMPDEST PUSH2 0x278 PUSH2 0x709 JUMP JUMPDEST PUSH1 0x40 MLOAD PUSH2 0x285 SWAP2 SWAP1 PUSH2 0x1967 JUMP JUMPDEST PUSH1 0x40 MLOAD DUP1 SWAP2 SUB SWAP1 RETURN JUMPDEST PUSH2 0x2A8 PUSH1 0x4 DUP1 CALLDATASIZE SUB DUP2 ADD SWAP1 PUSH2 0x2A3 SWAP2 SWAP1 PUSH2 0x1905 JUMP JUMPDEST PUSH2 0x710 JUMP JUMPDEST PUSH1 0x40 MLOAD PUSH2 0x2B5 SWAP2 SWAP1 PUSH2 0x193F JUMP JUMPDEST PUSH1 0x40 MLOAD DUP1 SWAP2 SUB SWAP1 RETURN JUMPDEST PUSH2 0x2C6 PUSH2 0x719 JUMP JUMPDEST PUSH1 0x40 MLOAD PUSH2 0x2D3 SWAP2 SWAP1 PUSH2 0x193F JUMP JUMPDEST PUSH1 0x40 MLOAD DUP1 SWAP2 SUB SWAP1 RETURN JUMPDEST PUSH2 0x2F6 PUSH1 0x4 DUP1 CALLDATASIZE SUB DUP2 ADD SWAP1 PUSH2 0x2F1 SWAP2 SWAP1 PUSH2 0x1980 JUMP JUMPDEST PUSH2 0x722 JUMP JUMPDEST PUSH1 0x40 MLOAD PUSH2 0x303 SWAP2 SWAP1 PUSH2 0x18EC JUMP JUMPDEST PUSH1 0x40 MLOAD DUP1 SWAP2 SUB SWAP1 RETURN JUMPDEST PUSH2 0x314 PUSH2 0x815 JUMP JUMPDEST PUSH1 0x40 MLOAD PUSH2 0x321 SWAP2 SWAP1 PUSH2 0x193F JUMP JUMPDEST PUSH1 0x40 MLOAD DUP1 SWAP2 SUB SWAP1 RETURN JUMPDEST PUSH2 0x332 PUSH2 0x81B JUMP JUMPDEST PUSH1 0x40 MLOAD PUSH2 0x33F SWAP2 SWAP1 PUSH2 0x19EB JUMP JUMPDEST PUSH1 0x40 MLOAD DUP1 SWAP2 SUB SWAP1 RETURN JUMPDEST PUSH2 0x362 PUSH1 0x4 DUP1 CALLDATASIZE SUB DUP2 ADD SWAP1 PUSH2 0x35D SWAP2 SWAP1 PUSH2 0x1894 JUMP JUMPDEST PUSH2 0x822 JUMP JUMPDEST STOP JUMPDEST PUSH2 0x36C PUSH2 0x933 JUMP JUMPDEST PUSH1 0x40 MLOAD PUSH2 0x379 SWAP2 SWAP1 PUSH2 0x17E3 JUMP JUMPDEST PUSH1 0x40 MLOAD DUP1 SWAP2 SUB SWAP1 RETURN JUMPDEST PUSH2 0x38A PUSH2 0x970 JUMP JUMPDEST PUSH1 0x40 MLOAD PUSH2 0x397 SWAP2 SWAP1 PUSH2 0x18EC JUMP JUMPDEST PUSH1 0x40 MLOAD DUP1 SWAP2 SUB SWAP1 RETURN JUMPDEST PUSH2 0x3A8 PUSH2 0x977 JUMP JUMPDEST PUSH1 0x40 MLOAD PUSH2 0x3B5 SWAP2 SWAP1 PUSH2 0x1967 JUMP JUMPDEST PUSH1 0x40 MLOAD DUP1 SWAP2 SUB SWAP1 RETURN JUMPDEST PUSH2 0x3D8 PUSH1 0x4 DUP1 CALLDATASIZE SUB DUP2 ADD SWAP1 PUSH2 0x3D3 SWAP2 SWAP1 PUSH2 0x1905 JUMP JUMPDEST PUSH2 0x97E JUMP JUMPDEST PUSH1 0x40 MLOAD PUSH2 0x3E5 SWAP2 SWAP1 PUSH2 0x193F JUMP JUMPDEST PUSH1 0x40 MLOAD DUP1 SWAP2 SUB SWAP1 RETURN JUMPDEST PUSH2 0x3F6 PUSH2 0x9C3 JUMP JUMPDEST STOP JUMPDEST PUSH2 0x412 PUSH1 0x4 DUP1 CALLDATASIZE SUB DUP2 ADD SWAP1 PUSH2 0x40D SWAP2 SWAP1 PUSH2 0x1905 JUMP JUMPDEST PUSH2 0x9D6 JUMP JUMPDEST STOP JUMPDEST PUSH2 0x41C PUSH2 0xA35 JUMP JUMPDEST PUSH1 0x40 MLOAD PUSH2 0x429 SWAP2 SWAP1 PUSH2 0x1967 JUMP JUMPDEST PUSH1 0x40 MLOAD DUP1 SWAP2 SUB SWAP1 RETURN JUMPDEST PUSH2 0x43A PUSH2 0xA5D JUMP JUMPDEST PUSH1 0x40 MLOAD PUSH2 0x447 SWAP2 SWAP1 PUSH2 0x193F JUMP JUMPDEST PUSH1 0x40 MLOAD DUP1 SWAP2 SUB SWAP1 RETURN JUMPDEST PUSH2 0x458 PUSH2 0xA6B JUMP JUMPDEST PUSH1 0x40 MLOAD PUSH2 0x465 SWAP2 SWAP1 PUSH2 0x17E3 JUMP JUMPDEST PUSH1 0x40 MLOAD DUP1 SWAP2 SUB SWAP1 RETURN JUMPDEST PUSH2 0x488 PUSH1 0x4 DUP1 CALLDATASIZE SUB DUP2 ADD SWAP1 PUSH2 0x483 SWAP2 SWAP1 PUSH2 0x1905 JUMP JUMPDEST PUSH2 0xAFB JUMP JUMPDEST PUSH1 0x40 MLOAD PUSH2 0x495 SWAP2 SWAP1 PUSH2 0x18EC JUMP JUMPDEST PUSH1 0x40 MLOAD DUP1 SWAP2 SUB SWAP1 RETURN JUMPDEST PUSH2 0x4B8 PUSH1 0x4 DUP1 CALLDATASIZE SUB DUP2 ADD SWAP1 PUSH2 0x4B3 SWAP2 SWAP1 PUSH2 0x1894 JUMP JUMPDEST PUSH2 0xB18 JUMP JUMPDEST PUSH1 0x40 MLOAD PUSH2 0x4C5 SWAP2 SWAP1 PUSH2 0x18EC JUMP JUMPDEST PUSH1 0x40 MLOAD DUP1 SWAP2 SUB SWAP1 RETURN JUMPDEST PUSH2 0x4D6 PUSH2 0xC09 JUMP JUMPDEST PUSH1 0x40 MLOAD PUSH2 0x4E3 SWAP2 SWAP1 PUSH2 0x1967 JUMP JUMPDEST PUSH1 0x40 MLOAD DUP1 SWAP2 SUB SWAP1 RETURN JUMPDEST PUSH2 0x4F4 PUSH2 0xC10 JUMP JUMPDEST PUSH1 0x40 MLOAD PUSH2 0x501 SWAP2 SWAP1 PUSH2 0x1967 JUMP JUMPDEST PUSH1 0x40 MLOAD DUP1 SWAP2 SUB SWAP1 RETURN JUMPDEST PUSH2 0x524 PUSH1 0x4 DUP1 CALLDATASIZE SUB DUP2 ADD SWAP1 PUSH2 0x51F SWAP2 SWAP1 PUSH2 0x1905 JUMP JUMPDEST PUSH2 0xC35 JUMP JUMPDEST STOP JUMPDEST PUSH2 0x540 PUSH1 0x4 DUP1 CALLDATASIZE SUB DUP2 ADD SWAP1 PUSH2 0x53B SWAP2 SWAP1 PUSH2 0x1905 JUMP JUMPDEST PUSH2 0xC94 JUMP JUMPDEST PUSH1 0x40 MLOAD PUSH2 0x54D SWAP2 SWAP1 PUSH2 0x18EC JUMP JUMPDEST PUSH1 0x40 MLOAD DUP1 SWAP2 SUB SWAP1 RETURN JUMPDEST PUSH2 0x55E PUSH2 0xCB1 JUMP JUMPDEST PUSH1 0x40 MLOAD PUSH2 0x56B SWAP2 SWAP1 PUSH2 0x193F JUMP JUMPDEST PUSH1 0x40 MLOAD DUP1 SWAP2 SUB SWAP1 RETURN JUMPDEST PUSH2 0x58E PUSH1 0x4 DUP1 CALLDATASIZE SUB DUP2 ADD SWAP1 PUSH2 0x589 SWAP2 SWAP1 PUSH2 0x1A04 JUMP JUMPDEST PUSH2 0xCCF JUMP JUMPDEST PUSH1 0x40 MLOAD PUSH2 0x59B SWAP2 SWAP1 PUSH2 0x193F JUMP JUMPDEST PUSH1 0x40 MLOAD DUP1 SWAP2 SUB SWAP1 RETURN JUMPDEST PUSH2 0x5BE PUSH1 0x4 DUP1 CALLDATASIZE SUB DUP2 ADD SWAP1 PUSH2 0x5B9 SWAP2 SWAP1 PUSH2 0x1905 JUMP JUMPDEST PUSH2 0xD51 JUMP JUMPDEST STOP JUMPDEST PUSH2 0x5DA PUSH1 0x4 DUP1 CALLDATASIZE SUB DUP2 ADD SWAP1 PUSH2 0x5D5 SWAP2 SWAP1 PUSH2 0x1905 JUMP JUMPDEST PUSH2 0xDB1 JUMP JUMPDEST STOP JUMPDEST PUSH2 0x5F6 PUSH1 0x4 DUP1 CALLDATASIZE SUB DUP2 ADD SWAP1 PUSH2 0x5F1 SWAP2 SWAP1 PUSH2 0x1905 JUMP JUMPDEST PUSH2 0xE11 JUMP JUMPDEST PUSH1 0x40 MLOAD PUSH2 0x603 SWAP2 SWAP1 PUSH2 0x18EC JUMP JUMPDEST PUSH1 0x40 MLOAD DUP1 SWAP2 SUB SWAP1 RETURN JUMPDEST PUSH2 0x614 PUSH2 0xE63 JUMP JUMPDEST PUSH1 0x40 MLOAD PUSH2 0x621 SWAP2 SWAP1 PUSH2 0x193F JUMP JUMPDEST PUSH1 0x40 MLOAD DUP1 SWAP2 SUB SWAP1 RETURN JUMPDEST PUSH2 0x644 PUSH1 0x4 DUP1 CALLDATASIZE SUB DUP2 ADD SWAP1 PUSH2 0x63F SWAP2 SWAP1 PUSH2 0x1905 JUMP JUMPDEST PUSH2 0xF52 JUMP JUMPDEST STOP JUMPDEST PUSH1 0x60 PUSH1 0x3 DUP1 SLOAD PUSH2 0x655 SWAP1 PUSH2 0x1A6F JUMP JUMPDEST DUP1 PUSH1 0x1F ADD PUSH1 0x20 DUP1 SWAP2 DIV MUL PUSH1 0x20 ADD PUSH1 0x40 MLOAD SWAP1 DUP2 ADD PUSH1 0x40 MSTORE DUP1 SWAP3 SWAP2 SWAP1 DUP2 DUP2 MSTORE PUSH1 0x20 ADD DUP3 DUP1 SLOAD PUSH2 0x681 SWAP1 PUSH2 0x1A6F JUMP JUMPDEST DUP1 ISZERO PUSH2 0x6CC JUMPI DUP1 PUSH1 0x1F LT PUSH2 0x6A3 JUMPI PUSH2 0x100 DUP1 DUP4 SLOAD DIV MUL DUP4 MSTORE SWAP2 PUSH1 0x20 ADD SWAP2 PUSH2 0x6CC JUMP JUMPDEST DUP3 ADD SWAP2 SWAP1 PUSH0 MSTORE PUSH1 0x20 PUSH0 KECCAK256 SWAP1 JUMPDEST DUP2 SLOAD DUP2 MSTORE SWAP1 PUSH1 0x1 ADD SWAP1 PUSH1 0x20 ADD DUP1 DUP4 GT PUSH2 0x6AF JUMPI DUP3 SWAP1 SUB PUSH1 0x1F AND DUP3 ADD SWAP2 JUMPDEST POP POP POP POP POP SWAP1 POP SWAP1 JUMP JUMPDEST PUSH0 PUSH0 PUSH2 0x6E0 PUSH2 0xFD6 JUMP JUMPDEST SWAP1 POP PUSH2 0x6ED DUP2 DUP6 DUP6 PUSH2 0xFDD JUMP JUMPDEST PUSH1 0x1 SWAP2 POP POP SWAP3 SWAP2 POP POP JUMP JUMPDEST PUSH0 PUSH2 0x702 DUP3 PUSH2 0x97E JUMP JUMPDEST SWAP1 POP SWAP2 SWAP1 POP JUMP JUMPDEST PUSH0 PUSH0 SWAP1 POP SWAP1 JUMP JUMPDEST PUSH0 PUSH0 SWAP1 POP SWAP2 SWAP1 POP JUMP JUMPDEST PUSH0 PUSH1 0x2 SLOAD SWAP1 POP SWAP1 JUMP JUMPDEST PUSH0 PUSH1 0x7 PUSH0 DUP6 PUSH20 0xFFFFFFFFFFFFFFFFFFFFFFFFFFFFFFFFFFFFFFFF AND PUSH20 0xFFFFFFFFFFFFFFFFFFFFFFFFFFFFFFFFFFFFFFFF AND DUP2 MSTORE PUSH1 0x20 ADD SWAP1 DUP2 MSTORE PUSH1 0x20 ADD PUSH0 KECCAK256 PUSH0 SWAP1 SLOAD SWAP1 PUSH2 0x100 EXP SWAP1 DIV PUSH1 0xFF AND ISZERO PUSH2 0x7AD JUMPI PUSH1 0x40 MLOAD PUSH32 0x8C379A000000000000000000000000000000000000000000000000000000000 DUP2 MSTORE PUSH1 0x4 ADD PUSH2 0x7A4 SWAP1 PUSH2 0x1AE9 JUMP JUMPDEST PUSH1 0x40 MLOAD DUP1 SWAP2 SUB SWAP1 REVERT JUMPDEST DUP2 PUSH16 0xFFFFFFFFFFFFFFFFFFFFFFFFFFFFFFFF AND DUP3 EQ PUSH2 0x801 JUMPI PUSH1 0x40 MLOAD PUSH32 0x8C379A000000000000000000000000000000000000000000000000000000000 DUP2 MSTORE PUSH1 0x4 ADD PUSH2 0x7F8 SWAP1 PUSH2 0x1B51 JUMP JUMPDEST PUSH1 0x40 MLOAD DUP1 SWAP2 SUB SWAP1 REVERT JUMPDEST PUSH2 0x80C DUP5 DUP5 DUP5 PUSH2 0xFEF JUMP JUMPDEST SWAP1 POP SWAP4 SWAP3 POP POP POP JUMP JUMPDEST PUSH1 0x9 SLOAD DUP2 JUMP JUMPDEST PUSH0 PUSH0 SWAP1 POP SWAP1 JUMP JUMPDEST PUSH2 0x82A PUSH2 0x101D JUMP JUMPDEST PUSH1 0x6 PUSH0 DUP4 PUSH20 0xFFFFFFFFFFFFFFFFFFFFFFFFFFFFFFFFFFFFFFFF AND PUSH20 0xFFFFFFFFFFFFFFFFFFFFFFFFFFFFFFFFFFFFFFFF AND DUP2 MSTORE PUSH1 0x20 ADD SWAP1 DUP2 MSTORE PUSH1 0x20 ADD PUSH0 KECCAK256 PUSH0 SWAP1 SLOAD SWAP1 PUSH2 0x100 EXP SWAP1 DIV PUSH1 0xFF AND PUSH2 0x8B3 JUMPI PUSH1 0x40 MLOAD PUSH32 0x8C379A000000000000000000000000000000000000000000000000000000000 DUP2 MSTORE PUSH1 0x4 ADD PUSH2 0x8AA SWAP1 PUSH2 0x1BB9 JUMP JUMPDEST PUSH1 0x40 MLOAD DUP1 SWAP2 SUB SWAP1 REVERT JUMPDEST PUSH10 0x69E10DE76676D0800000 DUP2 PUSH1 0x9 SLOAD PUSH2 0x8CC SWAP2 SWAP1 PUSH2 0x1C04 JUMP JUMPDEST GT ISZERO PUSH2 0x90D JUMPI PUSH1 0x40 MLOAD PUSH32 0x8C379A000000000000000000000000000000000000000000000000000000000 DUP2 MSTORE PUSH1 0x4 ADD PUSH2 0x904 SWAP1 PUSH2 0x1C81 JUMP JUMPDEST PUSH1 0x40 MLOAD DUP1 SWAP2 SUB SWAP1 REVERT JUMPDEST PUSH2 0x917 DUP3 DUP3 PUSH2 0x10A4 JUMP JUMPDEST DUP1 PUSH1 0x9 PUSH0 DUP3 DUP3 SLOAD PUSH2 0x928 SWAP2 SWAP1 PUSH2 0x1C04 JUMP JUMPDEST SWAP3 POP POP DUP2 SWAP1 SSTORE POP POP POP JUMP JUMPDEST PUSH1 0x60 PUSH1 0x40 MLOAD DUP1 PUSH1 0x40 ADD PUSH1 0x40 MSTORE DUP1 PUSH1 0x5 DUP2 MSTORE PUSH1 0x20 ADD PUSH32 0x312E302E30000000000000000000000000000000000000000000000000000000 DUP2 MSTORE POP SWAP1 POP SWAP1 JUMP JUMPDEST PUSH0 PUSH0 SWAP1 POP SWAP1 JUMP JUMPDEST PUSH0 PUSH0 SWAP1 POP SWAP1 JUMP JUMPDEST PUSH0 PUSH0 PUSH0 DUP4 PUSH20 0xFFFFFFFFFFFFFFFFFFFFFFFFFFFFFFFFFFFFFFFF AND PUSH20 0xFFFFFFFFFFFFFFFFFFFFFFFFFFFFFFFFFFFFFFFF AND DUP2 MSTORE PUSH1 0x20 ADD SWAP1 DUP2 MSTORE PUSH1 0x20 ADD PUSH0 KECCAK256 SLOAD SWAP1 POP SWAP2 SWAP1 POP JUMP JUMPDEST PUSH2 0x9CB PUSH2 0x101D JUMP JUMPDEST PUSH2 0x9D4 PUSH0 PUSH2 0x1123 JUMP JUMPDEST JUMP JUMPDEST PUSH2 0x9DE PUSH2 0x101D JUMP JUMPDEST PUSH0 PUSH1 0x6 PUSH0 DUP4 PUSH20 0xFFFFFFFFFFFFFFFFFFFFFFFFFFFFFFFFFFFFFFFF AND PUSH20 0xFFFFFFFFFFFFFFFFFFFFFFFFFFFFFFFFFFFFFFFF AND DUP2 MSTORE PUSH1 0x20 ADD SWAP1 DUP2 MSTORE PUSH1 0x20 ADD PUSH0 KECCAK256 PUSH0 PUSH2 0x100 EXP DUP2 SLOAD DUP2 PUSH1 0xFF MUL NOT AND SWAP1 DUP4 ISZERO ISZERO MUL OR SWAP1 SSTORE POP POP JUMP JUMPDEST PUSH0 PUSH1 0x5 PUSH0 SWAP1 SLOAD SWAP1 PUSH2 0x100 EXP SWAP1 DIV PUSH20 0xFFFFFFFFFFFFFFFFFFFFFFFFFFFFFFFFFFFFFFFF AND SWAP1 POP SWAP1 JUMP JUMPDEST PUSH10 0x69E10DE76676D0800000 DUP2 JUMP JUMPDEST PUSH1 0x60 PUSH1 0x4 DUP1 SLOAD PUSH2 0xA7A SWAP1 PUSH2 0x1A6F JUMP JUMPDEST DUP1 PUSH1 0x1F ADD PUSH1 0x20 DUP1 SWAP2 DIV MUL PUSH1 0x20 ADD PUSH1 0x40 MLOAD SWAP1 DUP2 ADD PUSH1 0x40 MSTORE DUP1 SWAP3 SWAP2 SWAP1 DUP2 DUP2 MSTORE PUSH1 0x20 ADD DUP3 DUP1 SLOAD PUSH2 0xAA6 SWAP1 PUSH2 0x1A6F JUMP JUMPDEST DUP1 ISZERO PUSH2 0xAF1 JUMPI DUP1 PUSH1 0x1F LT PUSH2 0xAC8 JUMPI PUSH2 0x100 DUP1 DUP4 SLOAD DIV MUL DUP4 MSTORE SWAP2 PUSH1 0x20 ADD SWAP2 PUSH2 0xAF1 JUMP JUMPDEST DUP3 ADD SWAP2 SWAP1 PUSH0 MSTORE PUSH1 0x20 PUSH0 KECCAK256 SWAP1 JUMPDEST DUP2 SLOAD DUP2 MSTORE SWAP1 PUSH1 0x1 ADD SWAP1 PUSH1 0x20 ADD DUP1 DUP4 GT PUSH2 0xAD4 JUMPI DUP3 SWAP1 SUB PUSH1 0x1F AND DUP3 ADD SWAP2 JUMPDEST POP POP POP POP POP SWAP1 POP SWAP1 JUMP JUMPDEST PUSH1 0x6 PUSH1 0x20 MSTORE DUP1 PUSH0 MSTORE PUSH1 0x40 PUSH0 KECCAK256 PUSH0 SWAP2 POP SLOAD SWAP1 PUSH2 0x100 EXP SWAP1 DIV PUSH1 0xFF AND DUP2 JUMP JUMPDEST PUSH0 PUSH1 0x7 PUSH0 CALLER PUSH20 0xFFFFFFFFFFFFFFFFFFFFFFFFFFFFFFFFFFFFFFFF AND PUSH20 0xFFFFFFFFFFFFFFFFFFFFFFFFFFFFFFFFFFFFFFFF AND DUP2 MSTORE PUSH1 0x20 ADD SWAP1 DUP2 MSTORE PUSH1 0x20 ADD PUSH0 KECCAK256 PUSH0 SWAP1 SLOAD SWAP1 PUSH2 0x100 EXP SWAP1 DIV PUSH1 0xFF AND ISZERO PUSH2 0xBA3 JUMPI PUSH1 0x40 MLOAD PUSH32 0x8C379A000000000000000000000000000000000000000000000000000000000 DUP2 MSTORE PUSH1 0x4 ADD PUSH2 0xB9A SWAP1 PUSH2 0x1AE9 JUMP JUMPDEST PUSH1 0x40 MLOAD DUP1 SWAP2 SUB SWAP1 REVERT JUMPDEST DUP2 PUSH16 0xFFFFFFFFFFFFFFFFFFFFFFFFFFFFFFFF AND DUP3 EQ PUSH2 0xBF7 JUMPI PUSH1 0x40 MLOAD PUSH32 0x8C379A000000000000000000000000000000000000000000000000000000000 DUP2 MSTORE PUSH1 0x4 ADD PUSH2 0xBEE SWAP1 PUSH2 0x1B51 JUMP JUMPDEST PUSH1 0x40 MLOAD DUP1 SWAP2 SUB SWAP1 REVERT JUMPDEST PUSH2 0xC01 DUP4 DUP4 PUSH2 0x11E6 JUMP JUMPDEST SWAP1 POP SWAP3 SWAP2 POP POP JUMP JUMPDEST PUSH0 ADDRESS SWAP1 POP SWAP1 JUMP JUMPDEST PUSH1 0x8 PUSH0 SWAP1 SLOAD SWAP1 PUSH2 0x100 EXP SWAP1 DIV PUSH20 0xFFFFFFFFFFFFFFFFFFFFFFFFFFFFFFFFFFFFFFFF AND DUP2 JUMP JUMPDEST PUSH2 0xC3D PUSH2 0x101D JUMP JUMPDEST PUSH0 PUSH1 0x7 PUSH0 DUP4 PUSH20 0xFFFFFFFFFFFFFFFFFFFFFFFFFFFFFFFFFFFFFFFF AND PUSH20 0xFFFFFFFFFFFFFFFFFFFFFFFFFFFFFFFFFFFFFFFF AND DUP2 MSTORE PUSH1 0x20 ADD SWAP1 DUP2 MSTORE PUSH1 0x20 ADD PUSH0 KECCAK256 PUSH0 PUSH2 0x100 EXP DUP2 SLOAD DUP2 PUSH1 0xFF MUL NOT AND SWAP1 DUP4 ISZERO ISZERO MUL OR SWAP1 SSTORE POP POP JUMP JUMPDEST PUSH1 0x7 PUSH1 0x20 MSTORE DUP1 PUSH0 MSTORE PUSH1 0x40 PUSH0 KECCAK256 PUSH0 SWAP2 POP SLOAD SWAP1 PUSH2 0x100 EXP SWAP1 DIV PUSH1 0xFF AND DUP2 JUMP JUMPDEST PUSH0 PUSH1 0x9 SLOAD PUSH10 0x69E10DE76676D0800000 PUSH2 0xCCA SWAP2 SWAP1 PUSH2 0x1C9F JUMP JUMPDEST SWAP1 POP SWAP1 JUMP JUMPDEST PUSH0 PUSH1 0x1 PUSH0 DUP5 PUSH20 0xFFFFFFFFFFFFFFFFFFFFFFFFFFFFFFFFFFFFFFFF AND PUSH20 0xFFFFFFFFFFFFFFFFFFFFFFFFFFFFFFFFFFFFFFFF AND DUP2 MSTORE PUSH1 0x20 ADD SWAP1 DUP2 MSTORE PUSH1 0x20 ADD PUSH0 KECCAK256 PUSH0 DUP4 PUSH20 0xFFFFFFFFFFFFFFFFFFFFFFFFFFFFFFFFFFFFFFFF AND PUSH20 0xFFFFFFFFFFFFFFFFFFFFFFFFFFFFFFFFFFFFFFFF AND DUP2 MSTORE PUSH1 0x20 ADD SWAP1 DUP2 MSTORE PUSH1 0x20 ADD PUSH0 KECCAK256 SLOAD SWAP1 POP SWAP3 SWAP2 POP POP JUMP JUMPDEST PUSH2 0xD59 PUSH2 0x101D JUMP JUMPDEST PUSH1 0x1 PUSH1 0x7 PUSH0 DUP4 PUSH20 0xFFFFFFFFFFFFFFFFFFFFFFFFFFFFFFFFFFFFFFFF AND PUSH20 0xFFFFFFFFFFFFFFFFFFFFFFFFFFFFFFFFFFFFFFFF AND DUP2 MSTORE PUSH1 0x20 ADD SWAP1 DUP2 MSTORE PUSH1 0x20 ADD PUSH0 KECCAK256 PUSH0 PUSH2 0x100 EXP DUP2 SLOAD DUP2 PUSH1 0xFF MUL NOT AND SWAP1 DUP4 ISZERO ISZERO MUL OR SWAP1 SSTORE POP POP JUMP JUMPDEST PUSH2 0xDB9 PUSH2 0x101D JUMP JUMPDEST PUSH1 0x1 PUSH1 0x6 PUSH0 DUP4 PUSH20 0xFFFFFFFFFFFFFFFFFFFFFFFFFFFFFFFFFFFFFFFF AND PUSH20 0xFFFFFFFFFFFFFFFFFFFFFFFFFFFFFFFFFFFFFFFF AND DUP2 MSTORE PUSH1 0x20 ADD SWAP1 DUP2 MSTORE PUSH1 0x20 ADD PUSH0 KECCAK256 PUSH0 PUSH2 0x100 EXP DUP2 SLOAD DUP2 PUSH1 0xFF MUL NOT AND SWAP1 DUP4 ISZERO ISZERO MUL OR SWAP1 SSTORE POP POP JUMP JUMPDEST PUSH0 PUSH1 0x7 PUSH0 DUP4 PUSH20 0xFFFFFFFFFFFFFFFFFFFFFFFFFFFFFFFFFFFFFFFF AND PUSH20 0xFFFFFFFFFFFFFFFFFFFFFFFFFFFFFFFFFFFFFFFF AND DUP2 MSTORE PUSH1 0x20 ADD SWAP1 DUP2 MSTORE PUSH1 0x20 ADD PUSH0 KECCAK256 PUSH0 SWAP1 SLOAD SWAP1 PUSH2 0x100 EXP SWAP1 DIV PUSH1 0xFF AND SWAP1 POP SWAP2 SWAP1 POP JUMP JUMPDEST PUSH0 PUSH0 PUSH1 0x8 PUSH0 SWAP1 SLOAD SWAP1 PUSH2 0x100 EXP SWAP1 DIV PUSH20 0xFFFFFFFFFFFFFFFFFFFFFFFFFFFFFFFFFFFFFFFF AND SWAP1 POP PUSH0 DUP2 PUSH20 0xFFFFFFFFFFFFFFFFFFFFFFFFFFFFFFFFFFFFFFFF AND PUSH4 0x3850C7BD PUSH1 0x40 MLOAD DUP2 PUSH4 0xFFFFFFFF AND PUSH1 0xE0 SHL DUP2 MSTORE PUSH1 0x4 ADD PUSH1 0xE0 PUSH1 0x40 MLOAD DUP1 DUP4 SUB DUP2 DUP7 GAS STATICCALL ISZERO DUP1 ISZERO PUSH2 0xED3 JUMPI RETURNDATASIZE PUSH0 PUSH0 RETURNDATACOPY RETURNDATASIZE PUSH0 REVERT JUMPDEST POP POP POP POP PUSH1 0x40 MLOAD RETURNDATASIZE PUSH1 0x1F NOT PUSH1 0x1F DUP3 ADD AND DUP3 ADD DUP1 PUSH1 0x40 MSTORE POP DUP2 ADD SWAP1 PUSH2 0xEF7 SWAP2 SWAP1 PUSH2 0x1DBD JUMP JUMPDEST POP POP POP POP POP POP SWAP1 POP PUSH0 PUSH25 0x1000000000000000000000000000000000000000000000000 PUSH1 0x2 DUP4 PUSH20 0xFFFFFFFFFFFFFFFFFFFFFFFFFFFFFFFFFFFFFFFF AND PUSH2 0xF3D SWAP2 SWAP1 PUSH2 0x1F89 JUMP JUMPDEST PUSH2 0xF47 SWAP2 SWAP1 PUSH2 0x2000 JUMP JUMPDEST SWAP1 POP DUP1 SWAP4 POP POP POP POP SWAP1 JUMP JUMPDEST PUSH2 0xF5A PUSH2 0x101D JUMP JUMPDEST PUSH0 PUSH20 0xFFFFFFFFFFFFFFFFFFFFFFFFFFFFFFFFFFFFFFFF AND DUP2 PUSH20 0xFFFFFFFFFFFFFFFFFFFFFFFFFFFFFFFFFFFFFFFF AND SUB PUSH2 0xFCA JUMPI PUSH0 PUSH1 0x40 MLOAD PUSH32 0x1E4FBDF700000000000000000000000000000000000000000000000000000000 DUP2 MSTORE PUSH1 0x4 ADD PUSH2 0xFC1 SWAP2 SWAP1 PUSH2 0x1967 JUMP JUMPDEST PUSH1 0x40 MLOAD DUP1 SWAP2 SUB SWAP1 REVERT JUMPDEST PUSH2 0xFD3 DUP2 PUSH2 0x1123 JUMP JUMPDEST POP JUMP JUMPDEST PUSH0 CALLER SWAP1 POP SWAP1 JUMP JUMPDEST PUSH2 0xFEA DUP4 DUP4 DUP4 PUSH1 0x1 PUSH2 0x1208 JUMP JUMPDEST POP POP POP JUMP JUMPDEST PUSH0 PUSH0 PUSH2 0xFF9 PUSH2 0xFD6 JUMP JUMPDEST SWAP1 POP PUSH2 0x1006 DUP6 DUP3 DUP6 PUSH2 0x13D7 JUMP JUMPDEST PUSH2 0x1011 DUP6 DUP6 DUP6 PUSH2 0x146A JUMP JUMPDEST PUSH1 0x1 SWAP2 POP POP SWAP4 SWAP3 POP POP POP JUMP JUMPDEST PUSH2 0x1025 PUSH2 0xFD6 JUMP JUMPDEST PUSH20 0xFFFFFFFFFFFFFFFFFFFFFFFFFFFFFFFFFFFFFFFF AND PUSH2 0x1043 PUSH2 0xA35 JUMP JUMPDEST PUSH20 0xFFFFFFFFFFFFFFFFFFFFFFFFFFFFFFFFFFFFFFFF AND EQ PUSH2 0x10A2 JUMPI PUSH2 0x1066 PUSH2 0xFD6 JUMP JUMPDEST PUSH1 0x40 MLOAD PUSH32 0x118CDAA700000000000000000000000000000000000000000000000000000000 DUP2 MSTORE PUSH1 0x4 ADD PUSH2 0x1099 SWAP2 SWAP1 PUSH2 0x1967 JUMP JUMPDEST PUSH1 0x40 MLOAD DUP1 SWAP2 SUB SWAP1 REVERT JUMPDEST JUMP JUMPDEST PUSH0 PUSH20 0xFFFFFFFFFFFFFFFFFFFFFFFFFFFFFFFFFFFFFFFF AND DUP3 PUSH20 0xFFFFFFFFFFFFFFFFFFFFFFFFFFFFFFFFFFFFFFFF AND SUB PUSH2 0x1114 JUMPI PUSH0 PUSH1 0x40 MLOAD PUSH32 0xEC442F0500000000000000000000000000000000000000000000000000000000 DUP2 MSTORE PUSH1 0x4 ADD PUSH2 0x110B SWAP2 SWAP1 PUSH2 0x1967 JUMP JUMPDEST PUSH1 0x40 MLOAD DUP1 SWAP2 SUB SWAP1 REVERT JUMPDEST PUSH2 0x111F PUSH0 DUP4 DUP4 PUSH2 0x155A JUMP JUMPDEST POP POP JUMP JUMPDEST PUSH0 PUSH1 0x5 PUSH0 SWAP1 SLOAD SWAP1 PUSH2 0x100 EXP SWAP1 DIV PUSH20 0xFFFFFFFFFFFFFFFFFFFFFFFFFFFFFFFFFFFFFFFF AND SWAP1 POP DUP2 PUSH1 0x5 PUSH0 PUSH2 0x100 EXP DUP2 SLOAD DUP2 PUSH20 0xFFFFFFFFFFFFFFFFFFFFFFFFFFFFFFFFFFFFFFFF MUL NOT AND SWAP1 DUP4 PUSH20 0xFFFFFFFFFFFFFFFFFFFFFFFFFFFFFFFFFFFFFFFF AND MUL OR SWAP1 SSTORE POP DUP2 PUSH20 0xFFFFFFFFFFFFFFFFFFFFFFFFFFFFFFFFFFFFFFFF AND DUP2 PUSH20 0xFFFFFFFFFFFFFFFFFFFFFFFFFFFFFFFFFFFFFFFF AND PUSH32 0x8BE0079C531659141344CD1FD0A4F28419497F9722A3DAAFE3B4186F6B6457E0 PUSH1 0x40 MLOAD PUSH1 0x40 MLOAD DUP1 SWAP2 SUB SWAP1 LOG3 POP POP JUMP JUMPDEST PUSH0 PUSH0 PUSH2 0x11F0 PUSH2 0xFD6 JUMP JUMPDEST SWAP1 POP PUSH2 0x11FD DUP2 DUP6 DUP6 PUSH2 0x146A JUMP JUMPDEST PUSH1 0x1 SWAP2 POP POP SWAP3 SWAP2 POP POP JUMP JUMPDEST PUSH0 PUSH20 0xFFFFFFFFFFFFFFFFFFFFFFFFFFFFFFFFFFFFFFFF AND DUP5 PUSH20 0xFFFFFFFFFFFFFFFFFFFFFFFFFFFFFFFFFFFFFFFF AND SUB PUSH2 0x1278 JUMPI PUSH0 PUSH1 0x40 MLOAD PUSH32 0xE602DF0500000000000000000000000000000000000000000000000000000000 DUP2 MSTORE PUSH1 0x4 ADD PUSH2 0x126F SWAP2 SWAP1 PUSH2 0x1967 JUMP JUMPDEST PUSH1 0x40 MLOAD DUP1 SWAP2 SUB SWAP1 REVERT JUMPDEST PUSH0 PUSH20 0xFFFFFFFFFFFFFFFFFFFFFFFFFFFFFFFFFFFFFFFF AND DUP4 PUSH20 0xFFFFFFFFFFFFFFFFFFFFFFFFFFFFFFFFFFFFFFFF AND SUB PUSH2 0x12E8 JUMPI PUSH0 PUSH1 0x40 MLOAD PUSH32 0x94280D6200000000000000000000000000000000000000000000000000000000 DUP2 MSTORE PUSH1 0x4 ADD PUSH2 0x12DF SWAP2 SWAP1 PUSH2 0x1967 JUMP JUMPDEST PUSH1 0x40 MLOAD DUP1 SWAP2 SUB SWAP1 REVERT JUMPDEST DUP2 PUSH1 0x1 PUSH0 DUP7 PUSH20 0xFFFFFFFFFFFFFFFFFFFFFFFFFFFFFFFFFFFFFFFF AND PUSH20 0xFFFFFFFFFFFFFFFFFFFFFFFFFFFFFFFFFFFFFFFF AND DUP2 MSTORE PUSH1 0x20 ADD SWAP1 DUP2 MSTORE PUSH1 0x20 ADD PUSH0 KECCAK256 PUSH0 DUP6 PUSH20 0xFFFFFFFFFFFFFFFFFFFFFFFFFFFFFFFFFFFFFFFF AND PUSH20 0xFFFFFFFFFFFFFFFFFFFFFFFFFFFFFFFFFFFFFFFF AND DUP2 MSTORE PUSH1 0x20 ADD SWAP1 DUP2 MSTORE PUSH1 0x20 ADD PUSH0 KECCAK256 DUP2 SWAP1 SSTORE POP DUP1 ISZERO PUSH2 0x13D1 JUMPI DUP3 PUSH20 0xFFFFFFFFFFFFFFFFFFFFFFFFFFFFFFFFFFFFFFFF AND DUP5 PUSH20 0xFFFFFFFFFFFFFFFFFFFFFFFFFFFFFFFFFFFFFFFF AND PUSH32 0x8C5BE1E5EBEC7D5BD14F71427D1E84F3DD0314C0F7B2291E5B200AC8C7C3B925 DUP5 PUSH1 0x40 MLOAD PUSH2 0x13C8 SWAP2 SWAP1 PUSH2 0x193F JUMP JUMPDEST PUSH1 0x40 MLOAD DUP1 SWAP2 SUB SWAP1 LOG3 JUMPDEST POP POP POP POP JUMP JUMPDEST PUSH0 PUSH2 0x13E2 DUP5 DUP5 PUSH2 0xCCF JUMP JUMPDEST SWAP1 POP PUSH32 0xFFFFFFFFFFFFFFFFFFFFFFFFFFFFFFFFFFFFFFFFFFFFFFFFFFFFFFFFFFFFFFFF DUP2 LT ISZERO PUSH2 0x1464 JUMPI DUP2 DUP2 LT ISZERO PUSH2 0x1455 JUMPI DUP3 DUP2 DUP4 PUSH1 0x40 MLOAD PUSH32 0xFB8F41B200000000000000000000000000000000000000000000000000000000 DUP2 MSTORE PUSH1 0x4 ADD PUSH2 0x144C SWAP4 SWAP3 SWAP2 SWAP1 PUSH2 0x2030 JUMP JUMPDEST PUSH1 0x40 MLOAD DUP1 SWAP2 SUB SWAP1 REVERT JUMPDEST PUSH2 0x1463 DUP5 DUP5 DUP5 DUP5 SUB PUSH0 PUSH2 0x1208 JUMP JUMPDEST JUMPDEST POP POP POP POP JUMP JUMPDEST PUSH0 PUSH20 0xFFFFFFFFFFFFFFFFFFFFFFFFFFFFFFFFFFFFFFFF AND DUP4 PUSH20 0xFFFFFFFFFFFFFFFFFFFFFFFFFFFFFFFFFFFFFFFF AND SUB PUSH2 0x14DA JUMPI PUSH0 PUSH1 0x40 MLOAD PUSH32 0x96C6FD1E00000000000000000000000000000000000000000000000000000000 DUP2 MSTORE PUSH1 0x4 ADD PUSH2 0x14D1 SWAP2 SWAP1 PUSH2 0x1967 JUMP JUMPDEST PUSH1 0x40 MLOAD DUP1 SWAP2 SUB SWAP1 REVERT JUMPDEST PUSH0 PUSH20 0xFFFFFFFFFFFFFFFFFFFFFFFFFFFFFFFFFFFFFFFF AND DUP3 PUSH20 0xFFFFFFFFFFFFFFFFFFFFFFFFFFFFFFFFFFFFFFFF AND SUB PUSH2 0x154A JUMPI PUSH0 PUSH1 0x40 MLOAD PUSH32 0xEC442F0500000000000000000000000000000000000000000000000000000000 DUP2 MSTORE PUSH1 0x4 ADD PUSH2 0x1541 SWAP2 SWAP1 PUSH2 0x1967 JUMP JUMPDEST PUSH1 0x40 MLOAD DUP1 SWAP2 SUB SWAP1 REVERT JUMPDEST PUSH2 0x1555 DUP4 DUP4 DUP4 PUSH2 0x155A JUMP JUMPDEST POP POP POP JUMP JUMPDEST PUSH0 PUSH20 0xFFFFFFFFFFFFFFFFFFFFFFFFFFFFFFFFFFFFFFFF AND DUP4 PUSH20 0xFFFFFFFFFFFFFFFFFFFFFFFFFFFFFFFFFFFFFFFF AND SUB PUSH2 0x15AA JUMPI DUP1 PUSH1 0x2 PUSH0 DUP3 DUP3 SLOAD PUSH2 0x159E SWAP2 SWAP1 PUSH2 0x1C04 JUMP JUMPDEST SWAP3 POP POP DUP2 SWAP1 SSTORE POP PUSH2 0x1678 JUMP JUMPDEST PUSH0 PUSH0 PUSH0 DUP6 PUSH20 0xFFFFFFFFFFFFFFFFFFFFFFFFFFFFFFFFFFFFFFFF AND PUSH20 0xFFFFFFFFFFFFFFFFFFFFFFFFFFFFFFFFFFFFFFFF AND DUP2 MSTORE PUSH1 0x20 ADD SWAP1 DUP2 MSTORE PUSH1 0x20 ADD PUSH0 KECCAK256 SLOAD SWAP1 POP DUP2 DUP2 LT ISZERO PUSH2 0x1633 JUMPI DUP4 DUP2 DUP4 PUSH1 0x40 MLOAD PUSH32 0xE450D38C00000000000000000000000000000000000000000000000000000000 DUP2 MSTORE PUSH1 0x4 ADD PUSH2 0x162A SWAP4 SWAP3 SWAP2 SWAP1 PUSH2 0x2030 JUMP JUMPDEST PUSH1 0x40 MLOAD DUP1 SWAP2 SUB SWAP1 REVERT JUMPDEST DUP2 DUP2 SUB PUSH0 PUSH0 DUP7 PUSH20 0xFFFFFFFFFFFFFFFFFFFFFFFFFFFFFFFFFFFFFFFF AND PUSH20 0xFFFFFFFFFFFFFFFFFFFFFFFFFFFFFFFFFFFFFFFF AND DUP2 MSTORE PUSH1 0x20 ADD SWAP1 DUP2 MSTORE PUSH1 0x20 ADD PUSH0 KECCAK256 DUP2 SWAP1 SSTORE POP POP JUMPDEST PUSH0 PUSH20 0xFFFFFFFFFFFFFFFFFFFFFFFFFFFFFFFFFFFFFFFF AND DUP3 PUSH20 0xFFFFFFFFFFFFFFFFFFFFFFFFFFFFFFFFFFFFFFFF AND SUB PUSH2 0x16BF JUMPI DUP1 PUSH1 0x2 PUSH0 DUP3 DUP3 SLOAD SUB SWAP3 POP POP DUP2 SWAP1 SSTORE POP PUSH2 0x1709 JUMP JUMPDEST DUP1 PUSH0 PUSH0 DUP5 PUSH20 0xFFFFFFFFFFFFFFFFFFFFFFFFFFFFFFFFFFFFFFFF AND PUSH20 0xFFFFFFFFFFFFFFFFFFFFFFFFFFFFFFFFFFFFFFFF AND DUP2 MSTORE PUSH1 0x20 ADD SWAP1 DUP2 MSTORE PUSH1 0x20 ADD PUSH0 KECCAK256 PUSH0 DUP3 DUP3 SLOAD ADD SWAP3 POP POP DUP2 SWAP1 SSTORE POP JUMPDEST DUP2 PUSH20 0xFFFFFFFFFFFFFFFFFFFFFFFFFFFFFFFFFFFFFFFF AND DUP4 PUSH20 0xFFFFFFFFFFFFFFFFFFFFFFFFFFFFFFFFFFFFFFFF AND PUSH32 0xDDF252AD1BE2C89B69C2B068FC378DAA952BA7F163C4A11628F55A4DF523B3EF DUP4 PUSH1 0x40 MLOAD PUSH2 0x1766 SWAP2 SWAP1 PUSH2 0x193F JUMP JUMPDEST PUSH1 0x40 MLOAD DUP1 SWAP2 SUB SWAP1 LOG3 POP POP POP JUMP JUMPDEST PUSH0 DUP2 MLOAD SWAP1 POP SWAP2 SWAP1 POP JUMP JUMPDEST PUSH0 DUP3 DUP3 MSTORE PUSH1 0x20 DUP3 ADD SWAP1 POP SWAP3 SWAP2 POP POP JUMP JUMPDEST DUP3 DUP2 DUP4 MCOPY PUSH0 DUP4 DUP4 ADD MSTORE POP POP POP JUMP JUMPDEST PUSH0 PUSH1 0x1F NOT PUSH1 0x1F DUP4 ADD AND SWAP1 POP SWAP2 SWAP1 POP JUMP JUMPDEST PUSH0 PUSH2 0x17B5 DUP3 PUSH2 0x1773 JUMP JUMPDEST PUSH2 0x17BF DUP2 DUP6 PUSH2 0x177D JUMP JUMPDEST SWAP4 POP PUSH2 0x17CF DUP2 DUP6 PUSH1 0x20 DUP7 ADD PUSH2 0x178D JUMP JUMPDEST PUSH2 0x17D8 DUP2 PUSH2 0x179B JUMP JUMPDEST DUP5 ADD SWAP2 POP POP SWAP3 SWAP2 POP POP JUMP JUMPDEST PUSH0 PUSH1 0x20 DUP3 ADD SWAP1 POP DUP2 DUP2 SUB PUSH0 DUP4 ADD MSTORE PUSH2 0x17FB DUP2 DUP5 PUSH2 0x17AB JUMP JUMPDEST SWAP1 POP SWAP3 SWAP2 POP POP JUMP JUMPDEST PUSH0 PUSH0 REVERT JUMPDEST PUSH0 PUSH20 0xFFFFFFFFFFFFFFFFFFFFFFFFFFFFFFFFFFFFFFFF DUP3 AND SWAP1 POP SWAP2 SWAP1 POP JUMP JUMPDEST PUSH0 PUSH2 0x1830 DUP3 PUSH2 0x1807 JUMP JUMPDEST SWAP1 POP SWAP2 SWAP1 POP JUMP JUMPDEST PUSH2 0x1840 DUP2 PUSH2 0x1826 JUMP JUMPDEST DUP2 EQ PUSH2 0x184A JUMPI PUSH0 PUSH0 REVERT JUMPDEST POP JUMP JUMPDEST PUSH0 DUP2 CALLDATALOAD SWAP1 POP PUSH2 0x185B DUP2 PUSH2 0x1837 JUMP JUMPDEST SWAP3 SWAP2 POP POP JUMP JUMPDEST PUSH0 DUP2 SWAP1 POP SWAP2 SWAP1 POP JUMP JUMPDEST PUSH2 0x1873 DUP2 PUSH2 0x1861 JUMP JUMPDEST DUP2 EQ PUSH2 0x187D JUMPI PUSH0 PUSH0 REVERT JUMPDEST POP JUMP JUMPDEST PUSH0 DUP2 CALLDATALOAD SWAP1 POP PUSH2 0x188E DUP2 PUSH2 0x186A JUMP JUMPDEST SWAP3 SWAP2 POP POP JUMP JUMPDEST PUSH0 PUSH0 PUSH1 0x40 DUP4 DUP6 SUB SLT ISZERO PUSH2 0x18AA JUMPI PUSH2 0x18A9 PUSH2 0x1803 JUMP JUMPDEST JUMPDEST PUSH0 PUSH2 0x18B7 DUP6 DUP3 DUP7 ADD PUSH2 0x184D JUMP JUMPDEST SWAP3 POP POP PUSH1 0x20 PUSH2 0x18C8 DUP6 DUP3 DUP7 ADD PUSH2 0x1880 JUMP JUMPDEST SWAP2 POP POP SWAP3 POP SWAP3 SWAP1 POP JUMP JUMPDEST PUSH0 DUP2 ISZERO ISZERO SWAP1 POP SWAP2 SWAP1 POP JUMP JUMPDEST PUSH2 0x18E6 DUP2 PUSH2 0x18D2 JUMP JUMPDEST DUP3 MSTORE POP POP JUMP JUMPDEST PUSH0 PUSH1 0x20 DUP3 ADD SWAP1 POP PUSH2 0x18FF PUSH0 DUP4 ADD DUP5 PUSH2 0x18DD JUMP JUMPDEST SWAP3 SWAP2 POP POP JUMP JUMPDEST PUSH0 PUSH1 0x20 DUP3 DUP5 SUB SLT ISZERO PUSH2 0x191A JUMPI PUSH2 0x1919 PUSH2 0x1803 JUMP JUMPDEST JUMPDEST PUSH0 PUSH2 0x1927 DUP5 DUP3 DUP6 ADD PUSH2 0x184D JUMP JUMPDEST SWAP2 POP POP SWAP3 SWAP2 POP POP JUMP JUMPDEST PUSH2 0x1939 DUP2 PUSH2 0x1861 JUMP JUMPDEST DUP3 MSTORE POP POP JUMP JUMPDEST PUSH0 PUSH1 0x20 DUP3 ADD SWAP1 POP PUSH2 0x1952 PUSH0 DUP4 ADD DUP5 PUSH2 0x1930 JUMP JUMPDEST SWAP3 SWAP2 POP POP JUMP JUMPDEST PUSH2 0x1961 DUP2 PUSH2 0x1826 JUMP JUMPDEST DUP3 MSTORE POP POP JUMP JUMPDEST PUSH0 PUSH1 0x20 DUP3 ADD SWAP1 POP PUSH2 0x197A PUSH0 DUP4 ADD DUP5 PUSH2 0x1958 JUMP JUMPDEST SWAP3 SWAP2 POP POP JUMP JUMPDEST PUSH0 PUSH0 PUSH0 PUSH1 0x60 DUP5 DUP7 SUB SLT ISZERO PUSH2 0x1997 JUMPI PUSH2 0x1996 PUSH2 0x1803 JUMP JUMPDEST JUMPDEST PUSH0 PUSH2 0x19A4 DUP7 DUP3 DUP8 ADD PUSH2 0x184D JUMP JUMPDEST SWAP4 POP POP PUSH1 0x20 PUSH2 0x19B5 DUP7 DUP3 DUP8 ADD PUSH2 0x184D JUMP JUMPDEST SWAP3 POP POP PUSH1 0x40 PUSH2 0x19C6 DUP7 DUP3 DUP8 ADD PUSH2 0x1880 JUMP JUMPDEST SWAP2 POP POP SWAP3 POP SWAP3 POP SWAP3 JUMP JUMPDEST PUSH0 PUSH1 0xFF DUP3 AND SWAP1 POP SWAP2 SWAP1 POP JUMP JUMPDEST PUSH2 0x19E5 DUP2 PUSH2 0x19D0 JUMP JUMPDEST DUP3 MSTORE POP POP JUMP JUMPDEST PUSH0 PUSH1 0x20 DUP3 ADD SWAP1 POP PUSH2 0x19FE PUSH0 DUP4 ADD DUP5 PUSH2 0x19DC JUMP JUMPDEST SWAP3 SWAP2 POP POP JUMP JUMPDEST PUSH0 PUSH0 PUSH1 0x40 DUP4 DUP6 SUB SLT ISZERO PUSH2 0x1A1A JUMPI PUSH2 0x1A19 PUSH2 0x1803 JUMP JUMPDEST JUMPDEST PUSH0 PUSH2 0x1A27 DUP6 DUP3 DUP7 ADD PUSH2 0x184D JUMP JUMPDEST SWAP3 POP POP PUSH1 0x20 PUSH2 0x1A38 DUP6 DUP3 DUP7 ADD PUSH2 0x184D JUMP JUMPDEST SWAP2 POP POP SWAP3 POP SWAP3 SWAP1 POP JUMP JUMPDEST PUSH32 0x4E487B7100000000000000000000000000000000000000000000000000000000 PUSH0 MSTORE PUSH1 0x22 PUSH1 0x4 MSTORE PUSH1 0x24 PUSH0 REVERT JUMPDEST PUSH0 PUSH1 0x2 DUP3 DIV SWAP1 POP PUSH1 0x1 DUP3 AND DUP1 PUSH2 0x1A86 JUMPI PUSH1 0x7F DUP3 AND SWAP2 POP JUMPDEST PUSH1 0x20 DUP3 LT DUP2 SUB PUSH2 0x1A99 JUMPI PUSH2 0x1A98 PUSH2 0x1A42 JUMP JUMPDEST JUMPDEST POP SWAP2 SWAP1 POP JUMP JUMPDEST PUSH32 0x53656E6465722069732066726F7A656E00000000000000000000000000000000 PUSH0 DUP3 ADD MSTORE POP JUMP JUMPDEST PUSH0 PUSH2 0x1AD3 PUSH1 0x10 DUP4 PUSH2 0x177D JUMP JUMPDEST SWAP2 POP PUSH2 0x1ADE DUP3 PUSH2 0x1A9F JUMP JUMPDEST PUSH1 0x20 DUP3 ADD SWAP1 POP SWAP2 SWAP1 POP JUMP JUMPDEST PUSH0 PUSH1 0x20 DUP3 ADD SWAP1 POP DUP2 DUP2 SUB PUSH0 DUP4 ADD MSTORE PUSH2 0x1B00 DUP2 PUSH2 0x1AC7 JUMP JUMPDEST SWAP1 POP SWAP2 SWAP1 POP JUMP JUMPDEST PUSH32 0x416D6F756E74206D75737420626520616E20696E746567657200000000000000 PUSH0 DUP3 ADD MSTORE POP JUMP JUMPDEST PUSH0 PUSH2 0x1B3B PUSH1 0x19 DUP4 PUSH2 0x177D JUMP JUMPDEST SWAP2 POP PUSH2 0x1B46 DUP3 PUSH2 0x1B07 JUMP JUMPDEST PUSH1 0x20 DUP3 ADD SWAP1 POP SWAP2 SWAP1 POP JUMP JUMPDEST PUSH0 PUSH1 0x20 DUP3 ADD SWAP1 POP DUP2 DUP2 SUB PUSH0 DUP4 ADD MSTORE PUSH2 0x1B68 DUP2 PUSH2 0x1B2F JUMP JUMPDEST SWAP1 POP SWAP2 SWAP1 POP JUMP JUMPDEST PUSH32 0x4E6F742077686974656C69737465640000000000000000000000000000000000 PUSH0 DUP3 ADD MSTORE POP JUMP JUMPDEST PUSH0 PUSH2 0x1BA3 PUSH1 0xF DUP4 PUSH2 0x177D JUMP JUMPDEST SWAP2 POP PUSH2 0x1BAE DUP3 PUSH2 0x1B6F JUMP JUMPDEST PUSH1 0x20 DUP3 ADD SWAP1 POP SWAP2 SWAP1 POP JUMP JUMPDEST PUSH0 PUSH1 0x20 DUP3 ADD SWAP1 POP DUP2 DUP2 SUB PUSH0 DUP4 ADD MSTORE PUSH2 0x1BD0 DUP2 PUSH2 0x1B97 JUMP JUMPDEST SWAP1 POP SWAP2 SWAP1 POP JUMP JUMPDEST PUSH32 0x4E487B7100000000000000000000000000000000000000000000000000000000 PUSH0 MSTORE PUSH1 0x11 PUSH1 0x4 MSTORE PUSH1 0x24 PUSH0 REVERT JUMPDEST PUSH0 PUSH2 0x1C0E DUP3 PUSH2 0x1861 JUMP JUMPDEST SWAP2 POP PUSH2 0x1C19 DUP4 PUSH2 0x1861 JUMP JUMPDEST SWAP3 POP DUP3 DUP3 ADD SWAP1 POP DUP1 DUP3 GT ISZERO PUSH2 0x1C31 JUMPI PUSH2 0x1C30 PUSH2 0x1BD7 JUMP JUMPDEST JUMPDEST SWAP3 SWAP2 POP POP JUMP JUMPDEST PUSH32 0x546F74616C20737570706C792065786365656465640000000000000000000000 PUSH0 DUP3 ADD MSTORE POP JUMP JUMPDEST PUSH0 PUSH2 0x1C6B PUSH1 0x15 DUP4 PUSH2 0x177D JUMP JUMPDEST SWAP2 POP PUSH2 0x1C76 DUP3 PUSH2 0x1C37 JUMP JUMPDEST PUSH1 0x20 DUP3 ADD SWAP1 POP SWAP2 SWAP1 POP JUMP JUMPDEST PUSH0 PUSH1 0x20 DUP3 ADD SWAP1 POP DUP2 DUP2 SUB PUSH0 DUP4 ADD MSTORE PUSH2 0x1C98 DUP2 PUSH2 0x1C5F JUMP JUMPDEST SWAP1 POP SWAP2 SWAP1 POP JUMP JUMPDEST PUSH0 PUSH2 0x1CA9 DUP3 PUSH2 0x1861 JUMP JUMPDEST SWAP2 POP PUSH2 0x1CB4 DUP4 PUSH2 0x1861 JUMP JUMPDEST SWAP3 POP DUP3 DUP3 SUB SWAP1 POP DUP2 DUP2 GT ISZERO PUSH2 0x1CCC JUMPI PUSH2 0x1CCB PUSH2 0x1BD7 JUMP JUMPDEST JUMPDEST SWAP3 SWAP2 POP POP JUMP JUMPDEST PUSH2 0x1CDB DUP2 PUSH2 0x1807 JUMP JUMPDEST DUP2 EQ PUSH2 0x1CE5 JUMPI PUSH0 PUSH0 REVERT JUMPDEST POP JUMP JUMPDEST PUSH0 DUP2 MLOAD SWAP1 POP PUSH2 0x1CF6 DUP2 PUSH2 0x1CD2 JUMP JUMPDEST SWAP3 SWAP2 POP POP JUMP JUMPDEST PUSH0 DUP2 PUSH1 0x2 SIGNEXTEND SWAP1 POP SWAP2 SWAP1 POP JUMP JUMPDEST PUSH2 0x1D11 DUP2 PUSH2 0x1CFC JUMP JUMPDEST DUP2 EQ PUSH2 0x1D1B JUMPI PUSH0 PUSH0 REVERT JUMPDEST POP JUMP JUMPDEST PUSH0 DUP2 MLOAD SWAP1 POP PUSH2 0x1D2C DUP2 PUSH2 0x1D08 JUMP JUMPDEST SWAP3 SWAP2 POP POP JUMP JUMPDEST PUSH0 PUSH2 0xFFFF DUP3 AND SWAP1 POP SWAP2 SWAP1 POP JUMP JUMPDEST PUSH2 0x1D48 DUP2 PUSH2 0x1D32 JUMP JUMPDEST DUP2 EQ PUSH2 0x1D52 JUMPI PUSH0 PUSH0 REVERT JUMPDEST POP JUMP JUMPDEST PUSH0 DUP2 MLOAD SWAP1 POP PUSH2 0x1D63 DUP2 PUSH2 0x1D3F JUMP JUMPDEST SWAP3 SWAP2 POP POP JUMP JUMPDEST PUSH2 0x1D72 DUP2 PUSH2 0x19D0 JUMP JUMPDEST DUP2 EQ PUSH2 0x1D7C JUMPI PUSH0 PUSH0 REVERT JUMPDEST POP JUMP JUMPDEST PUSH0 DUP2 MLOAD SWAP1 POP PUSH2 0x1D8D DUP2 PUSH2 0x1D69 JUMP JUMPDEST SWAP3 SWAP2 POP POP JUMP JUMPDEST PUSH2 0x1D9C DUP2 PUSH2 0x18D2 JUMP JUMPDEST DUP2 EQ PUSH2 0x1DA6 JUMPI PUSH0 PUSH0 REVERT JUMPDEST POP JUMP JUMPDEST PUSH0 DUP2 MLOAD SWAP1 POP PUSH2 0x1DB7 DUP2 PUSH2 0x1D93 JUMP JUMPDEST SWAP3 SWAP2 POP POP JUMP JUMPDEST PUSH0 PUSH0 PUSH0 PUSH0 PUSH0 PUSH0 PUSH0 PUSH1 0xE0 DUP9 DUP11 SUB SLT ISZERO PUSH2 0x1DD8 JUMPI PUSH2 0x1DD7 PUSH2 0x1803 JUMP JUMPDEST JUMPDEST PUSH0 PUSH2 0x1DE5 DUP11 DUP3 DUP12 ADD PUSH2 0x1CE8 JUMP JUMPDEST SWAP8 POP POP PUSH1 0x20 PUSH2 0x1DF6 DUP11 DUP3 DUP12 ADD PUSH2 0x1D1E JUMP JUMPDEST SWAP7 POP POP PUSH1 0x40 PUSH2 0x1E07 DUP11 DUP3 DUP12 ADD PUSH2 0x1D55 JUMP JUMPDEST SWAP6 POP POP PUSH1 0x60 PUSH2 0x1E18 DUP11 DUP3 DUP12 ADD PUSH2 0x1D55 JUMP JUMPDEST SWAP5 POP POP PUSH1 0x80 PUSH2 0x1E29 DUP11 DUP3 DUP12 ADD PUSH2 0x1D55 JUMP JUMPDEST SWAP4 POP POP PUSH1 0xA0 PUSH2 0x1E3A DUP11 DUP3 DUP12 ADD PUSH2 0x1D7F JUMP JUMPDEST SWAP3 POP POP PUSH1 0xC0 PUSH2 0x1E4B DUP11 DUP3 DUP12 ADD PUSH2 0x1DA9 JUMP JUMPDEST SWAP2 POP POP SWAP3 SWAP6 SWAP9 SWAP2 SWAP5 SWAP8 POP SWAP3 SWAP6 POP JUMP JUMPDEST PUSH0 DUP2 PUSH1 0x1 SHR SWAP1 POP SWAP2 SWAP1 POP JUMP JUMPDEST PUSH0 PUSH0 DUP3 SWAP2 POP DUP4 SWAP1 POP JUMPDEST PUSH1 0x1 DUP6 GT ISZERO PUSH2 0x1EAF JUMPI DUP1 DUP7 DIV DUP2 GT ISZERO PUSH2 0x1E8B JUMPI PUSH2 0x1E8A PUSH2 0x1BD7 JUMP JUMPDEST JUMPDEST PUSH1 0x1 DUP6 AND ISZERO PUSH2 0x1E9A JUMPI DUP1 DUP3 MUL SWAP2 POP JUMPDEST DUP1 DUP2 MUL SWAP1 POP PUSH2 0x1EA8 DUP6 PUSH2 0x1E5A JUMP JUMPDEST SWAP5 POP PUSH2 0x1E6F JUMP JUMPDEST SWAP5 POP SWAP5 SWAP3 POP POP POP JUMP JUMPDEST PUSH0 DUP3 PUSH2 0x1EC7 JUMPI PUSH1 0x1 SWAP1 POP PUSH2 0x1F82 JUMP JUMPDEST DUP2 PUSH2 0x1ED4 JUMPI PUSH0 SWAP1 POP PUSH2 0x1F82 JUMP JUMPDEST DUP2 PUSH1 0x1 DUP2 EQ PUSH2 0x1EEA JUMPI PUSH1 0x2 DUP2 EQ PUSH2 0x1EF4 JUMPI PUSH2 0x1F23 JUMP JUMPDEST PUSH1 0x1 SWAP2 POP POP PUSH2 0x1F82 JUMP JUMPDEST PUSH1 0xFF DUP5 GT ISZERO PUSH2 0x1F06 JUMPI PUSH2 0x1F05 PUSH2 0x1BD7 JUMP JUMPDEST JUMPDEST DUP4 PUSH1 0x2 EXP SWAP2 POP DUP5 DUP3 GT ISZERO PUSH2 0x1F1D JUMPI PUSH2 0x1F1C PUSH2 0x1BD7 JUMP JUMPDEST JUMPDEST POP PUSH2 0x1F82 JUMP JUMPDEST POP PUSH1 0x20 DUP4 LT PUSH2 0x133 DUP4 LT AND PUSH1 0x4E DUP5 LT PUSH1 0xB DUP5 LT AND OR ISZERO PUSH2 0x1F58 JUMPI DUP3 DUP3 EXP SWAP1 POP DUP4 DUP2 GT ISZERO PUSH2 0x1F53 JUMPI PUSH2 0x1F52 PUSH2 0x1BD7 JUMP JUMPDEST JUMPDEST PUSH2 0x1F82 JUMP JUMPDEST PUSH2 0x1F65 DUP5 DUP5 DUP5 PUSH1 0x1 PUSH2 0x1E66 JUMP JUMPDEST SWAP3 POP SWAP1 POP DUP2 DUP5 DIV DUP2 GT ISZERO PUSH2 0x1F7C JUMPI PUSH2 0x1F7B PUSH2 0x1BD7 JUMP JUMPDEST JUMPDEST DUP2 DUP2 MUL SWAP1 POP JUMPDEST SWAP4 SWAP3 POP POP POP JUMP JUMPDEST PUSH0 PUSH2 0x1F93 DUP3 PUSH2 0x1861 JUMP JUMPDEST SWAP2 POP PUSH2 0x1F9E DUP4 PUSH2 0x19D0 JUMP JUMPDEST SWAP3 POP PUSH2 0x1FCB PUSH32 0xFFFFFFFFFFFFFFFFFFFFFFFFFFFFFFFFFFFFFFFFFFFFFFFFFFFFFFFFFFFFFFFF DUP5 DUP5 PUSH2 0x1EB8 JUMP JUMPDEST SWAP1 POP SWAP3 SWAP2 POP POP JUMP JUMPDEST PUSH32 0x4E487B7100000000000000000000000000000000000000000000000000000000 PUSH0 MSTORE PUSH1 0x12 PUSH1 0x4 MSTORE PUSH1 0x24 PUSH0 REVERT JUMPDEST PUSH0 PUSH2 0x200A DUP3 PUSH2 0x1861 JUMP JUMPDEST SWAP2 POP PUSH2 0x2015 DUP4 PUSH2 0x1861 JUMP JUMPDEST SWAP3 POP DUP3 PUSH2 0x2025 JUMPI PUSH2 0x2024 PUSH2 0x1FD3 JUMP JUMPDEST JUMPDEST DUP3 DUP3 DIV SWAP1 POP SWAP3 SWAP2 POP POP JUMP JUMPDEST PUSH0 PUSH1 0x60 DUP3 ADD SWAP1 POP PUSH2 0x2043 PUSH0 DUP4 ADD DUP7 PUSH2 0x1958 JUMP JUMPDEST PUSH2 0x2050 PUSH1 0x20 DUP4 ADD DUP6 PUSH2 0x1930 JUMP JUMPDEST PUSH2 0x205D PUSH1 0x40 DUP4 ADD DUP5 PUSH2 0x1930 JUMP JUMPDEST SWAP5 SWAP4 POP POP POP POP JUMP INVALID LOG2 PUSH5 0x6970667358 0x22 SLT KECCAK256 0xC1 PUSH17 0xF3F79E9404792CFF6951AD0D0BB678CF7B SGT MSTORE8 SWAP11 RJUMPI 0xF43A AND 0xB0 0xBA LOG2 0x1E TLOAD 0xC0 PUSH5 0x736F6C6343 STOP ADDMOD 0x1E STOP CALLER "
				},
				"gasEstimates": {
					"creation": {
						"codeDepositCost": "1669400",
						"executionCost": "infinite",
						"totalCost": "infinite"
					},
					"external": {
						"TOTAL_SUPPLY()": "393",
						"addToWhitelist(address)": "infinite",
						"allowance(address,address)": "infinite",
						"approve(address,uint256)": "infinite",
						"balanceOf(address)": "2895",
						"balanceOfUser(address)": "2961",
						"compliance()": "424",
						"decimals()": "383",
						"freezeUser(address)": "infinite",
						"frozen(address)": "2878",
						"getCurrentPrice()": "infinite",
						"getFrozenTokens(address)": "686",
						"identityRegistry()": "492",
						"isFrozen(address)": "2936",
						"mint(address,uint256)": "infinite",
						"mintedAmount()": "2537",
						"name()": "infinite",
						"onchainID()": "446",
						"owner()": "2561",
						"paused()": "449",
						"remainingSupply()": "infinite",
						"removeFromWhitelist(address)": "infinite",
						"renounceOwnership()": "infinite",
						"symbol()": "infinite",
						"totalSupply()": "2500",
						"transfer(address,uint256)": "infinite",
						"transferFrom(address,address,uint256)": "infinite",
						"transferOwnership(address)": "infinite",
						"unfreezeUser(address)": "infinite",
						"uniswapPool()": "2597",
						"version()": "infinite",
						"whitelist(address)": "2945"
					}
				},
				"methodIdentifiers": {
					"TOTAL_SUPPLY()": "902d55a5",
					"addToWhitelist(address)": "e43252d7",
					"allowance(address,address)": "dd62ed3e",
					"approve(address,uint256)": "095ea7b3",
					"balanceOf(address)": "70a08231",
					"balanceOfUser(address)": "12cae7af",
					"compliance()": "6290865d",
					"decimals()": "313ce567",
					"freezeUser(address)": "e08ba51a",
					"frozen(address)": "d0516650",
					"getCurrentPrice()": "eb91d37e",
					"getFrozenTokens(address)": "158b1a57",
					"identityRegistry()": "134e18f4",
					"isFrozen(address)": "e5839836",
					"mint(address,uint256)": "40c10f19",
					"mintedAmount()": "2d380242",
					"name()": "06fdde03",
					"onchainID()": "aba63705",
					"owner()": "8da5cb5b",
					"paused()": "5c975abb",
					"remainingSupply()": "da0239a6",
					"removeFromWhitelist(address)": "8ab1d681",
					"renounceOwnership()": "715018a6",
					"symbol()": "95d89b41",
					"totalSupply()": "18160ddd",
					"transfer(address,uint256)": "a9059cbb",
					"transferFrom(address,address,uint256)": "23b872dd",
					"transferOwnership(address)": "f2fde38b",
					"unfreezeUser(address)": "cb4b73ab",
					"uniswapPool()": "bdd3d825",
					"version()": "54fd4d50",
					"whitelist(address)": "9b19251a"
				}
			},
			"storageLayout": {
				"storage": [
					{
						"astId": 307,
						"contract": "contracts/CCK/CCKToken.sol:CCKToken",
						"label": "_balances",
						"offset": 0,
						"slot": "0",
						"type": "t_mapping(t_address,t_uint256)"
					},
					{
						"astId": 313,
						"contract": "contracts/CCK/CCKToken.sol:CCKToken",
						"label": "_allowances",
						"offset": 0,
						"slot": "1",
						"type": "t_mapping(t_address,t_mapping(t_address,t_uint256))"
					},
					{
						"astId": 315,
						"contract": "contracts/CCK/CCKToken.sol:CCKToken",
						"label": "_totalSupply",
						"offset": 0,
						"slot": "2",
						"type": "t_uint256"
					},
					{
						"astId": 317,
						"contract": "contracts/CCK/CCKToken.sol:CCKToken",
						"label": "_name",
						"offset": 0,
						"slot": "3",
						"type": "t_string_storage"
					},
					{
						"astId": 319,
						"contract": "contracts/CCK/CCKToken.sol:CCKToken",
						"label": "_symbol",
						"offset": 0,
						"slot": "4",
						"type": "t_string_storage"
					},
					{
						"astId": 8,
						"contract": "contracts/CCK/CCKToken.sol:CCKToken",
						"label": "_owner",
						"offset": 0,
						"slot": "5",
						"type": "t_address"
					},
					{
						"astId": 1398,
						"contract": "contracts/CCK/CCKToken.sol:CCKToken",
						"label": "whitelist",
						"offset": 0,
						"slot": "6",
						"type": "t_mapping(t_address,t_bool)"
					},
					{
						"astId": 1402,
						"contract": "contracts/CCK/CCKToken.sol:CCKToken",
						"label": "frozen",
						"offset": 0,
						"slot": "7",
						"type": "t_mapping(t_address,t_bool)"
					},
					{
						"astId": 1404,
						"contract": "contracts/CCK/CCKToken.sol:CCKToken",
						"label": "uniswapPool",
						"offset": 0,
						"slot": "8",
						"type": "t_address"
					},
					{
						"astId": 1406,
						"contract": "contracts/CCK/CCKToken.sol:CCKToken",
						"label": "mintedAmount",
						"offset": 0,
						"slot": "9",
						"type": "t_uint256"
					}
				],
				"types": {
					"t_address": {
						"encoding": "inplace",
						"label": "address",
						"numberOfBytes": "20"
					},
					"t_bool": {
						"encoding": "inplace",
						"label": "bool",
						"numberOfBytes": "1"
					},
					"t_mapping(t_address,t_bool)": {
						"encoding": "mapping",
						"key": "t_address",
						"label": "mapping(address => bool)",
						"numberOfBytes": "32",
						"value": "t_bool"
					},
					"t_mapping(t_address,t_mapping(t_address,t_uint256))": {
						"encoding": "mapping",
						"key": "t_address",
						"label": "mapping(address => mapping(address => uint256))",
						"numberOfBytes": "32",
						"value": "t_mapping(t_address,t_uint256)"
					},
					"t_mapping(t_address,t_uint256)": {
						"encoding": "mapping",
						"key": "t_address",
						"label": "mapping(address => uint256)",
						"numberOfBytes": "32",
						"value": "t_uint256"
					},
					"t_string_storage": {
						"encoding": "bytes",
						"label": "string",
						"numberOfBytes": "32"
					},
					"t_uint256": {
						"encoding": "inplace",
						"label": "uint256",
						"numberOfBytes": "32"
					}
				}
			},
			"userdoc": {
				"kind": "user",
				"methods": {},
				"version": 1
			}
		}
	}
}