{
	"contracts/bbk/USDTTO.sol": {
		"MintableToken": {
			"abi": [
				{
					"inputs": [
						{
							"internalType": "uint256",
							"name": "initialSupply",
							"type": "uint256"
						}
					],
					"stateMutability": "nonpayable",
					"type": "constructor"
				},
				{
					"anonymous": false,
					"inputs": [
						{
							"indexed": true,
							"internalType": "address",
							"name": "owner",
							"type": "address"
						},
						{
							"indexed": true,
							"internalType": "address",
							"name": "spender",
							"type": "address"
						},
						{
							"indexed": false,
							"internalType": "uint256",
							"name": "value",
							"type": "uint256"
						}
					],
					"name": "Approval",
					"type": "event"
				},
				{
					"anonymous": false,
					"inputs": [
						{
							"indexed": true,
							"internalType": "address",
							"name": "from",
							"type": "address"
						},
						{
							"indexed": false,
							"internalType": "uint256",
							"name": "amount",
							"type": "uint256"
						}
					],
					"name": "Burn",
					"type": "event"
				},
				{
					"anonymous": false,
					"inputs": [
						{
							"indexed": true,
							"internalType": "address",
							"name": "from",
							"type": "address"
						},
						{
							"indexed": false,
							"internalType": "uint256",
							"name": "amount",
							"type": "uint256"
						}
					],
					"name": "Deposit",
					"type": "event"
				},
				{
					"anonymous": false,
					"inputs": [
						{
							"indexed": true,
							"internalType": "address",
							"name": "to",
							"type": "address"
						},
						{
							"indexed": false,
							"internalType": "uint256",
							"name": "amount",
							"type": "uint256"
						}
					],
					"name": "Mint",
					"type": "event"
				},
				{
					"anonymous": false,
					"inputs": [
						{
							"indexed": true,
							"internalType": "address",
							"name": "from",
							"type": "address"
						},
						{
							"indexed": true,
							"internalType": "address",
							"name": "to",
							"type": "address"
						},
						{
							"indexed": false,
							"internalType": "uint256",
							"name": "value",
							"type": "uint256"
						}
					],
					"name": "Transfer",
					"type": "event"
				},
				{
					"inputs": [
						{
							"internalType": "address",
							"name": "",
							"type": "address"
						},
						{
							"internalType": "address",
							"name": "",
							"type": "address"
						}
					],
					"name": "allowance",
					"outputs": [
						{
							"internalType": "uint256",
							"name": "",
							"type": "uint256"
						}
					],
					"stateMutability": "view",
					"type": "function"
				},
				{
					"inputs": [
						{
							"internalType": "address",
							"name": "spender",
							"type": "address"
						},
						{
							"internalType": "uint256",
							"name": "value",
							"type": "uint256"
						}
					],
					"name": "approve",
					"outputs": [
						{
							"internalType": "bool",
							"name": "success",
							"type": "bool"
						}
					],
					"stateMutability": "nonpayable",
					"type": "function"
				},
				{
					"inputs": [
						{
							"internalType": "address",
							"name": "",
							"type": "address"
						}
					],
					"name": "balanceOf",
					"outputs": [
						{
							"internalType": "uint256",
							"name": "",
							"type": "uint256"
						}
					],
					"stateMutability": "view",
					"type": "function"
				},
				{
					"inputs": [
						{
							"internalType": "uint256",
							"name": "amount",
							"type": "uint256"
						}
					],
					"name": "burn",
					"outputs": [
						{
							"internalType": "bool",
							"name": "success",
							"type": "bool"
						}
					],
					"stateMutability": "nonpayable",
					"type": "function"
				},
				{
					"inputs": [],
					"name": "decimals",
					"outputs": [
						{
							"internalType": "uint8",
							"name": "",
							"type": "uint8"
						}
					],
					"stateMutability": "view",
					"type": "function"
				},
				{
					"inputs": [
						{
							"internalType": "uint256",
							"name": "amount",
							"type": "uint256"
						}
					],
					"name": "deposit",
					"outputs": [
						{
							"internalType": "bool",
							"name": "success",
							"type": "bool"
						}
					],
					"stateMutability": "nonpayable",
					"type": "function"
				},
				{
					"inputs": [],
					"name": "externalToken",
					"outputs": [
						{
							"internalType": "address",
							"name": "",
							"type": "address"
						}
					],
					"stateMutability": "view",
					"type": "function"
				},
				{
					"inputs": [
						{
							"internalType": "address",
							"name": "to",
							"type": "address"
						},
						{
							"internalType": "uint256",
							"name": "amount",
							"type": "uint256"
						}
					],
					"name": "mint",
					"outputs": [
						{
							"internalType": "bool",
							"name": "success",
							"type": "bool"
						}
					],
					"stateMutability": "nonpayable",
					"type": "function"
				},
				{
					"inputs": [],
					"name": "name",
					"outputs": [
						{
							"internalType": "string",
							"name": "",
							"type": "string"
						}
					],
					"stateMutability": "view",
					"type": "function"
				},
				{
					"inputs": [],
					"name": "owner",
					"outputs": [
						{
							"internalType": "address",
							"name": "",
							"type": "address"
						}
					],
					"stateMutability": "view",
					"type": "function"
				},
				{
					"inputs": [],
					"name": "symbol",
					"outputs": [
						{
							"internalType": "string",
							"name": "",
							"type": "string"
						}
					],
					"stateMutability": "view",
					"type": "function"
				},
				{
					"inputs": [],
					"name": "totalSupply",
					"outputs": [
						{
							"internalType": "uint256",
							"name": "",
							"type": "uint256"
						}
					],
					"stateMutability": "view",
					"type": "function"
				},
				{
					"inputs": [
						{
							"internalType": "address",
							"name": "to",
							"type": "address"
						},
						{
							"internalType": "uint256",
							"name": "value",
							"type": "uint256"
						}
					],
					"name": "transfer",
					"outputs": [
						{
							"internalType": "bool",
							"name": "success",
							"type": "bool"
						}
					],
					"stateMutability": "nonpayable",
					"type": "function"
				},
				{
					"inputs": [
						{
							"internalType": "address",
							"name": "from",
							"type": "address"
						},
						{
							"internalType": "address",
							"name": "to",
							"type": "address"
						},
						{
							"internalType": "uint256",
							"name": "value",
							"type": "uint256"
						}
					],
					"name": "transferFrom",
					"outputs": [
						{
							"internalType": "bool",
							"name": "success",
							"type": "bool"
						}
					],
					"stateMutability": "nonpayable",
					"type": "function"
				}
			],
			"devdoc": {
				"kind": "dev",
				"methods": {},
				"version": 1
			},
			"evm": {
				"assembly": "    /* \"contracts/bbk/USDTTO.sol\":116:153  string public name = \"Mintable Token\" */\n  0xc0\n    /* \"contracts/bbk/USDTTO.sol\":87:4145  contract MintableToken{... */\n  0x40\n    /* \"contracts/bbk/USDTTO.sol\":116:153  string public name = \"Mintable Token\" */\n  mstore\n  0x0e\n    /* \"contracts/bbk/USDTTO.sol\":87:4145  contract MintableToken{... */\n  0x80\n    /* \"contracts/bbk/USDTTO.sol\":116:153  string public name = \"Mintable Token\" */\n  swap1\n  dup2\n  mstore\n  mstore(0xa0, shl(0x91, 0x26b4b73a30b13632902a37b5b2b7))\n  0x00\n  swap1\n  tag_1\n  swap1\n  dup3\n  tag_2\n  jump\t// in\ntag_1:\n  pop\n    /* \"contracts/bbk/USDTTO.sol\":160:188  string public symbol = \"MTK\" */\n  0x40\n  dup1\n  mload\n  dup1\n  dup3\n  add\n  swap1\n  swap2\n  mstore\n  0x03\n  dup2\n  mstore\n  shl(0xe8, 0x4d544b)\n  0x20\n  dup3\n  add\n  mstore\n  0x01\n  swap1\n  tag_3\n  swap1\n  dup3\n  tag_2\n  jump\t// in\ntag_3:\n  pop\n    /* \"contracts/bbk/USDTTO.sol\":195:221  uint8 public decimals = 18 */\n  0x02\n  dup1\n  sload\n  not(0xff)\n  and\n    /* \"contracts/bbk/USDTTO.sol\":219:221  18 */\n  0x12\n    /* \"contracts/bbk/USDTTO.sol\":195:221  uint8 public decimals = 18 */\n  or\n  swap1\n  sstore\n    /* \"contracts/bbk/USDTTO.sol\":422:495  address public externalToken = 0xf752BcA3378d95E6bFaa603A76bD9a0CaE776268 */\n  0x07\n  dup1\n  sload\n  not(sub(shl(0xa0, 0x01), 0x01))\n  and\n    /* \"contracts/bbk/USDTTO.sol\":453:495  0xf752BcA3378d95E6bFaa603A76bD9a0CaE776268 */\n  0xf752bca3378d95e6bfaa603a76bd9a0cae776268\n    /* \"contracts/bbk/USDTTO.sol\":422:495  address public externalToken = 0xf752BcA3378d95E6bFaa603A76bD9a0CaE776268 */\n  or\n  swap1\n  sstore\n    /* \"contracts/bbk/USDTTO.sol\":993:1220  constructor(uint256 initialSupply) {... */\n  callvalue\n  dup1\n  iszero\n  tag_4\n  jumpi\n  revert(0x00, 0x00)\ntag_4:\n  pop\n  mload(0x40)\n  sub(codesize, bytecodeSize)\n  dup1\n  bytecodeSize\n  dup4\n  codecopy\n  dup2\n  add\n  0x40\n  dup2\n  swap1\n  mstore\n  tag_5\n  swap2\n  tag_6\n  jump\t// in\ntag_5:\n    /* \"contracts/bbk/USDTTO.sol\":1039:1044  owner */\n  0x06\n    /* \"contracts/bbk/USDTTO.sol\":1039:1057  owner = msg.sender */\n  dup1\n  sload\n  not(sub(shl(0xa0, 0x01), 0x01))\n  and\n    /* \"contracts/bbk/USDTTO.sol\":1047:1057  msg.sender */\n  caller\n    /* \"contracts/bbk/USDTTO.sol\":1039:1057  owner = msg.sender */\n  or\n  swap1\n  sstore\n    /* \"contracts/bbk/USDTTO.sol\":1112:1120  decimals */\n  sload(0x02)\n    /* \"contracts/bbk/USDTTO.sol\":1098:1121  10 ** uint256(decimals) */\n  tag_9\n  swap1\n    /* \"contracts/bbk/USDTTO.sol\":1112:1120  decimals */\n  0xff\n  and\n    /* \"contracts/bbk/USDTTO.sol\":1098:1100  10 */\n  0x0a\n    /* \"contracts/bbk/USDTTO.sol\":1098:1121  10 ** uint256(decimals) */\n  tag_10\n  jump\t// in\ntag_9:\n    /* \"contracts/bbk/USDTTO.sol\":1082:1121  initialSupply * 10 ** uint256(decimals) */\n  tag_11\n  swap1\n    /* \"contracts/bbk/USDTTO.sol\":1082:1095  initialSupply */\n  dup3\n    /* \"contracts/bbk/USDTTO.sol\":1082:1121  initialSupply * 10 ** uint256(decimals) */\n  tag_12\n  jump\t// in\ntag_11:\n    /* \"contracts/bbk/USDTTO.sol\":1068:1079  totalSupply */\n  0x03\n    /* \"contracts/bbk/USDTTO.sol\":1068:1121  totalSupply = initialSupply * 10 ** uint256(decimals) */\n  dup2\n  swap1\n  sstore\n    /* \"contracts/bbk/USDTTO.sol\":1142:1152  msg.sender */\n  caller\n    /* \"contracts/bbk/USDTTO.sol\":1132:1153  balanceOf[msg.sender] */\n  0x00\n  dup2\n  dup2\n  mstore\n    /* \"contracts/bbk/USDTTO.sol\":1132:1141  balanceOf */\n  0x04\n    /* \"contracts/bbk/USDTTO.sol\":1132:1153  balanceOf[msg.sender] */\n  0x20\n  mstore\n  0x40\n  swap1\n  dup2\n  swap1\n  keccak256\n    /* \"contracts/bbk/USDTTO.sol\":1132:1167  balanceOf[msg.sender] = totalSupply */\n  dup4\n  swap1\n  sstore\n    /* \"contracts/bbk/USDTTO.sol\":1183:1212  Mint(msg.sender, totalSupply) */\n  mload\n    /* \"contracts/bbk/USDTTO.sol\":1142:1152  msg.sender */\n  swap1\n  swap2\n    /* \"contracts/bbk/USDTTO.sol\":1183:1212  Mint(msg.sender, totalSupply) */\n  0x0f6798a560793a54c3bcfe86a93cde1e73087d944c0ea20544137d4121396885\n  swap2\n  tag_13\n  swap2\n    /* \"#utility.yul\":4718:4743   */\n  dup2\n  mstore\n    /* \"#utility.yul\":4706:4708   */\n  0x20\n    /* \"#utility.yul\":4691:4709   */\n  add\n  swap1\n    /* \"#utility.yul\":4572:4749   */\n  jump\n    /* \"contracts/bbk/USDTTO.sol\":1183:1212  Mint(msg.sender, totalSupply) */\ntag_13:\n  mload(0x40)\n  dup1\n  swap2\n  sub\n  swap1\n  log2\n    /* \"contracts/bbk/USDTTO.sol\":993:1220  constructor(uint256 initialSupply) {... */\n  pop\n    /* \"contracts/bbk/USDTTO.sol\":87:4145  contract MintableToken{... */\n  jump(tag_24)\n    /* \"#utility.yul\":14:141   */\ntag_16:\n    /* \"#utility.yul\":75:85   */\n  0x4e487b71\n    /* \"#utility.yul\":70:73   */\n  0xe0\n    /* \"#utility.yul\":66:86   */\n  shl\n    /* \"#utility.yul\":63:64   */\n  0x00\n    /* \"#utility.yul\":56:87   */\n  mstore\n    /* \"#utility.yul\":106:110   */\n  0x41\n    /* \"#utility.yul\":103:104   */\n  0x04\n    /* \"#utility.yul\":96:111   */\n  mstore\n    /* \"#utility.yul\":130:134   */\n  0x24\n    /* \"#utility.yul\":127:128   */\n  0x00\n    /* \"#utility.yul\":120:135   */\n  revert\n    /* \"#utility.yul\":146:526   */\ntag_17:\n    /* \"#utility.yul\":225:226   */\n  0x01\n    /* \"#utility.yul\":221:233   */\n  dup2\n  dup2\n  shr\n  swap1\n    /* \"#utility.yul\":268:280   */\n  dup3\n  and\n  dup1\n    /* \"#utility.yul\":289:350   */\n  tag_27\n  jumpi\n    /* \"#utility.yul\":343:347   */\n  0x7f\n    /* \"#utility.yul\":335:341   */\n  dup3\n    /* \"#utility.yul\":331:348   */\n  and\n    /* \"#utility.yul\":321:348   */\n  swap2\n  pop\n    /* \"#utility.yul\":289:350   */\ntag_27:\n    /* \"#utility.yul\":396:398   */\n  0x20\n    /* \"#utility.yul\":388:394   */\n  dup3\n    /* \"#utility.yul\":385:399   */\n  lt\n    /* \"#utility.yul\":365:383   */\n  dup2\n    /* \"#utility.yul\":362:400   */\n  sub\n    /* \"#utility.yul\":359:520   */\n  tag_28\n  jumpi\n    /* \"#utility.yul\":442:452   */\n  0x4e487b71\n    /* \"#utility.yul\":437:440   */\n  0xe0\n    /* \"#utility.yul\":433:453   */\n  shl\n    /* \"#utility.yul\":430:431   */\n  0x00\n    /* \"#utility.yul\":423:454   */\n  mstore\n    /* \"#utility.yul\":477:481   */\n  0x22\n    /* \"#utility.yul\":474:475   */\n  0x04\n    /* \"#utility.yul\":467:482   */\n  mstore\n    /* \"#utility.yul\":505:509   */\n  0x24\n    /* \"#utility.yul\":502:503   */\n  0x00\n    /* \"#utility.yul\":495:510   */\n  revert\n    /* \"#utility.yul\":359:520   */\ntag_28:\n  pop\n    /* \"#utility.yul\":146:526   */\n  swap2\n  swap1\n  pop\n  jump\t// out\n    /* \"#utility.yul\":657:1175   */\ntag_19:\n    /* \"#utility.yul\":759:761   */\n  0x1f\n    /* \"#utility.yul\":754:757   */\n  dup3\n    /* \"#utility.yul\":751:762   */\n  gt\n    /* \"#utility.yul\":748:1169   */\n  iszero\n  tag_31\n  jumpi\n    /* \"#utility.yul\":795:800   */\n  dup1\n    /* \"#utility.yul\":792:793   */\n  0x00\n    /* \"#utility.yul\":785:801   */\n  mstore\n    /* \"#utility.yul\":839:843   */\n  0x20\n    /* \"#utility.yul\":836:837   */\n  0x00\n    /* \"#utility.yul\":826:844   */\n  keccak256\n    /* \"#utility.yul\":909:911   */\n  0x1f\n    /* \"#utility.yul\":897:907   */\n  dup5\n    /* \"#utility.yul\":893:912   */\n  add\n    /* \"#utility.yul\":890:891   */\n  0x05\n    /* \"#utility.yul\":886:913   */\n  shr\n    /* \"#utility.yul\":880:884   */\n  dup2\n    /* \"#utility.yul\":876:914   */\n  add\n    /* \"#utility.yul\":945:949   */\n  0x20\n    /* \"#utility.yul\":933:943   */\n  dup6\n    /* \"#utility.yul\":930:950   */\n  lt\n    /* \"#utility.yul\":927:974   */\n  iszero\n  tag_32\n  jumpi\n  pop\n    /* \"#utility.yul\":968:972   */\n  dup1\n    /* \"#utility.yul\":927:974   */\ntag_32:\n    /* \"#utility.yul\":1023:1025   */\n  0x1f\n    /* \"#utility.yul\":1018:1021   */\n  dup5\n    /* \"#utility.yul\":1014:1026   */\n  add\n    /* \"#utility.yul\":1011:1012   */\n  0x05\n    /* \"#utility.yul\":1007:1027   */\n  shr\n    /* \"#utility.yul\":1001:1005   */\n  dup3\n    /* \"#utility.yul\":997:1028   */\n  add\n    /* \"#utility.yul\":987:1028   */\n  swap2\n  pop\n    /* \"#utility.yul\":1078:1159   */\ntag_33:\n    /* \"#utility.yul\":1096:1098   */\n  dup2\n    /* \"#utility.yul\":1089:1094   */\n  dup2\n    /* \"#utility.yul\":1086:1099   */\n  lt\n    /* \"#utility.yul\":1078:1159   */\n  iszero\n  tag_35\n  jumpi\n    /* \"#utility.yul\":1155:1156   */\n  0x00\n    /* \"#utility.yul\":1141:1157   */\n  dup2\n  sstore\n    /* \"#utility.yul\":1122:1123   */\n  0x01\n    /* \"#utility.yul\":1111:1124   */\n  add\n    /* \"#utility.yul\":1078:1159   */\n  jump(tag_33)\ntag_35:\n    /* \"#utility.yul\":1082:1085   */\n  pop\n  pop\n    /* \"#utility.yul\":748:1169   */\ntag_31:\n    /* \"#utility.yul\":657:1175   */\n  pop\n  pop\n  pop\n  jump\t// out\n    /* \"#utility.yul\":1351:2650   */\ntag_2:\n    /* \"#utility.yul\":1471:1481   */\n  dup2\n  mload\n  sub(shl(0x40, 0x01), 0x01)\n    /* \"#utility.yul\":1493:1523   */\n  dup2\n  gt\n    /* \"#utility.yul\":1490:1546   */\n  iszero\n  tag_39\n  jumpi\n    /* \"#utility.yul\":1526:1544   */\n  tag_39\n  tag_16\n  jump\t// in\ntag_39:\n    /* \"#utility.yul\":1555:1652   */\n  tag_40\n    /* \"#utility.yul\":1645:1651   */\n  dup2\n    /* \"#utility.yul\":1605:1643   */\n  tag_41\n    /* \"#utility.yul\":1637:1641   */\n  dup5\n    /* \"#utility.yul\":1631:1642   */\n  sload\n    /* \"#utility.yul\":1605:1643   */\n  tag_17\n  jump\t// in\ntag_41:\n    /* \"#utility.yul\":1599:1603   */\n  dup5\n    /* \"#utility.yul\":1555:1652   */\n  tag_19\n  jump\t// in\ntag_40:\n    /* \"#utility.yul\":1701:1705   */\n  0x20\n    /* \"#utility.yul\":1732:1734   */\n  0x1f\n    /* \"#utility.yul\":1721:1735   */\n  dup3\n  gt\n    /* \"#utility.yul\":1749:1750   */\n  0x01\n    /* \"#utility.yul\":1744:2393   */\n  dup2\n  eq\n  tag_43\n  jumpi\n    /* \"#utility.yul\":2437:2438   */\n  0x00\n    /* \"#utility.yul\":2454:2460   */\n  dup4\n    /* \"#utility.yul\":2451:2540   */\n  iszero\n  tag_44\n  jumpi\n  pop\n    /* \"#utility.yul\":2506:2525   */\n  dup5\n  dup3\n  add\n    /* \"#utility.yul\":2500:2526   */\n  mload\n    /* \"#utility.yul\":2451:2540   */\ntag_44:\n  not(0x00)\n    /* \"#utility.yul\":1308:1309   */\n  0x03\n    /* \"#utility.yul\":1304:1315   */\n  dup6\n  swap1\n  shl\n    /* \"#utility.yul\":1300:1324   */\n  shr\n    /* \"#utility.yul\":1296:1325   */\n  not\n    /* \"#utility.yul\":1286:1326   */\n  and\n    /* \"#utility.yul\":1332:1333   */\n  0x01\n    /* \"#utility.yul\":1328:1339   */\n  dup5\n  swap1\n  shl\n    /* \"#utility.yul\":1283:1340   */\n  or\n    /* \"#utility.yul\":2553:2634   */\n  dup5\n  sstore\n    /* \"#utility.yul\":1714:2644   */\n  jump(tag_35)\n    /* \"#utility.yul\":1744:2393   */\ntag_43:\n    /* \"#utility.yul\":604:605   */\n  0x00\n    /* \"#utility.yul\":597:611   */\n  dup5\n  dup2\n  mstore\n    /* \"#utility.yul\":641:645   */\n  0x20\n    /* \"#utility.yul\":628:646   */\n  dup2\n  keccak256\n  not(0x1f)\n    /* \"#utility.yul\":1780:1800   */\n  dup6\n  and\n  swap2\n    /* \"#utility.yul\":1898:2120   */\ntag_47:\n    /* \"#utility.yul\":1912:1919   */\n  dup3\n    /* \"#utility.yul\":1909:1910   */\n  dup2\n    /* \"#utility.yul\":1906:1920   */\n  lt\n    /* \"#utility.yul\":1898:2120   */\n  iszero\n  tag_49\n  jumpi\n    /* \"#utility.yul\":1994:2013   */\n  dup8\n  dup6\n  add\n    /* \"#utility.yul\":1988:2014   */\n  mload\n    /* \"#utility.yul\":1973:2015   */\n  dup3\n  sstore\n    /* \"#utility.yul\":2101:2105   */\n  0x20\n    /* \"#utility.yul\":2086:2106   */\n  swap5\n  dup6\n  add\n  swap5\n    /* \"#utility.yul\":2054:2055   */\n  0x01\n    /* \"#utility.yul\":2042:2056   */\n  swap1\n  swap3\n  add\n  swap2\n    /* \"#utility.yul\":1928:1940   */\n  add\n    /* \"#utility.yul\":1898:2120   */\n  jump(tag_47)\ntag_49:\n    /* \"#utility.yul\":1902:1905   */\n  pop\n    /* \"#utility.yul\":2148:2154   */\n  dup5\n    /* \"#utility.yul\":2139:2146   */\n  dup3\n    /* \"#utility.yul\":2136:2155   */\n  lt\n    /* \"#utility.yul\":2133:2334   */\n  iszero\n  tag_50\n  jumpi\n    /* \"#utility.yul\":2209:2228   */\n  dup7\n  dup5\n  add\n    /* \"#utility.yul\":2203:2229   */\n  mload\n  not(0x00)\n    /* \"#utility.yul\":2292:2293   */\n  0x03\n    /* \"#utility.yul\":2288:2302   */\n  dup8\n  swap1\n  shl\n    /* \"#utility.yul\":2304:2307   */\n  0xf8\n    /* \"#utility.yul\":2284:2308   */\n  and\n    /* \"#utility.yul\":2280:2317   */\n  shr\n    /* \"#utility.yul\":2276:2318   */\n  not\n    /* \"#utility.yul\":2261:2319   */\n  and\n    /* \"#utility.yul\":2246:2320   */\n  dup2\n  sstore\n    /* \"#utility.yul\":2133:2334   */\ntag_50:\n  pop\n  pop\n  pop\n  pop\n    /* \"#utility.yul\":2380:2381   */\n  0x01\n    /* \"#utility.yul\":2364:2378   */\n  swap1\n  dup2\n  shl\n    /* \"#utility.yul\":2360:2382   */\n  add\n    /* \"#utility.yul\":2347:2383   */\n  swap1\n  sstore\n  pop\n    /* \"#utility.yul\":1351:2650   */\n  jump\t// out\n    /* \"#utility.yul\":2655:2839   */\ntag_6:\n    /* \"#utility.yul\":2725:2731   */\n  0x00\n    /* \"#utility.yul\":2778:2780   */\n  0x20\n    /* \"#utility.yul\":2766:2775   */\n  dup3\n    /* \"#utility.yul\":2757:2764   */\n  dup5\n    /* \"#utility.yul\":2753:2776   */\n  sub\n    /* \"#utility.yul\":2749:2781   */\n  slt\n    /* \"#utility.yul\":2746:2798   */\n  iszero\n  tag_52\n  jumpi\n    /* \"#utility.yul\":2794:2795   */\n  0x00\n    /* \"#utility.yul\":2791:2792   */\n  0x00\n    /* \"#utility.yul\":2784:2796   */\n  revert\n    /* \"#utility.yul\":2746:2798   */\ntag_52:\n  pop\n    /* \"#utility.yul\":2817:2833   */\n  mload\n  swap2\n    /* \"#utility.yul\":2655:2839   */\n  swap1\n  pop\n  jump\t// out\n    /* \"#utility.yul\":2844:2971   */\ntag_21:\n    /* \"#utility.yul\":2905:2915   */\n  0x4e487b71\n    /* \"#utility.yul\":2900:2903   */\n  0xe0\n    /* \"#utility.yul\":2896:2916   */\n  shl\n    /* \"#utility.yul\":2893:2894   */\n  0x00\n    /* \"#utility.yul\":2886:2917   */\n  mstore\n    /* \"#utility.yul\":2936:2940   */\n  0x11\n    /* \"#utility.yul\":2933:2934   */\n  0x04\n    /* \"#utility.yul\":2926:2941   */\n  mstore\n    /* \"#utility.yul\":2960:2964   */\n  0x24\n    /* \"#utility.yul\":2957:2958   */\n  0x00\n    /* \"#utility.yul\":2950:2965   */\n  revert\n    /* \"#utility.yul\":2976:3351   */\ntag_22:\n    /* \"#utility.yul\":3064:3065   */\n  0x01\n    /* \"#utility.yul\":3082:3087   */\n  dup2\n    /* \"#utility.yul\":3096:3345   */\ntag_55:\n    /* \"#utility.yul\":3117:3118   */\n  0x01\n    /* \"#utility.yul\":3107:3115   */\n  dup5\n    /* \"#utility.yul\":3104:3119   */\n  gt\n    /* \"#utility.yul\":3096:3345   */\n  iszero\n  tag_57\n  jumpi\n    /* \"#utility.yul\":3167:3171   */\n  dup1\n    /* \"#utility.yul\":3162:3165   */\n  dup6\n    /* \"#utility.yul\":3158:3172   */\n  div\n    /* \"#utility.yul\":3152:3156   */\n  dup2\n    /* \"#utility.yul\":3149:3173   */\n  gt\n    /* \"#utility.yul\":3146:3196   */\n  iszero\n  tag_59\n  jumpi\n    /* \"#utility.yul\":3176:3194   */\n  tag_59\n  tag_21\n  jump\t// in\ntag_59:\n    /* \"#utility.yul\":3226:3227   */\n  0x01\n    /* \"#utility.yul\":3216:3224   */\n  dup5\n    /* \"#utility.yul\":3212:3228   */\n  and\n    /* \"#utility.yul\":3209:3258   */\n  iszero\n  tag_60\n  jumpi\n    /* \"#utility.yul\":3240:3256   */\n  swap1\n  dup2\n  mul\n  swap1\n    /* \"#utility.yul\":3209:3258   */\ntag_60:\n    /* \"#utility.yul\":3323:3324   */\n  0x01\n    /* \"#utility.yul\":3319:3335   */\n  swap4\n  swap1\n  swap4\n  shr\n  swap3\n    /* \"#utility.yul\":3279:3294   */\n  dup1\n  mul\n    /* \"#utility.yul\":3096:3345   */\n  jump(tag_55)\ntag_57:\n    /* \"#utility.yul\":2976:3351   */\n  swap4\n  pop\n  swap4\n  swap2\n  pop\n  pop\n  jump\t// out\n    /* \"#utility.yul\":3356:4258   */\ntag_23:\n    /* \"#utility.yul\":3405:3410   */\n  0x00\n    /* \"#utility.yul\":3435:3443   */\n  dup3\n    /* \"#utility.yul\":3425:3505   */\n  tag_62\n  jumpi\n  pop\n    /* \"#utility.yul\":3476:3477   */\n  0x01\n    /* \"#utility.yul\":3490:3495   */\n  jump(tag_61)\n    /* \"#utility.yul\":3425:3505   */\ntag_62:\n    /* \"#utility.yul\":3524:3528   */\n  dup2\n    /* \"#utility.yul\":3514:3590   */\n  tag_63\n  jumpi\n  pop\n    /* \"#utility.yul\":3561:3562   */\n  0x00\n    /* \"#utility.yul\":3575:3580   */\n  jump(tag_61)\n    /* \"#utility.yul\":3514:3590   */\ntag_63:\n    /* \"#utility.yul\":3606:3610   */\n  dup2\n    /* \"#utility.yul\":3624:3625   */\n  0x01\n    /* \"#utility.yul\":3619:3678   */\n  dup2\n  eq\n  tag_65\n  jumpi\n    /* \"#utility.yul\":3692:3693   */\n  0x02\n    /* \"#utility.yul\":3687:3861   */\n  dup2\n  eq\n  tag_66\n  jumpi\n    /* \"#utility.yul\":3599:3861   */\n  jump(tag_64)\n    /* \"#utility.yul\":3619:3678   */\ntag_65:\n    /* \"#utility.yul\":3649:3650   */\n  0x01\n    /* \"#utility.yul\":3640:3650   */\n  swap2\n  pop\n    /* \"#utility.yul\":3663:3668   */\n  pop\n  jump(tag_61)\n    /* \"#utility.yul\":3687:3861   */\ntag_66:\n    /* \"#utility.yul\":3724:3727   */\n  0xff\n    /* \"#utility.yul\":3714:3722   */\n  dup5\n    /* \"#utility.yul\":3711:3728   */\n  gt\n    /* \"#utility.yul\":3708:3751   */\n  iszero\n  tag_68\n  jumpi\n    /* \"#utility.yul\":3731:3749   */\n  tag_68\n  tag_21\n  jump\t// in\ntag_68:\n  pop\n  pop\n    /* \"#utility.yul\":3787:3788   */\n  0x01\n    /* \"#utility.yul\":3773:3789   */\n  dup3\n  shl\n    /* \"#utility.yul\":3846:3851   */\n  jump(tag_61)\n    /* \"#utility.yul\":3599:3861   */\ntag_64:\n  pop\n    /* \"#utility.yul\":3945:3947   */\n  0x20\n    /* \"#utility.yul\":3935:3943   */\n  dup4\n    /* \"#utility.yul\":3932:3948   */\n  lt\n    /* \"#utility.yul\":3926:3929   */\n  0x0133\n    /* \"#utility.yul\":3920:3924   */\n  dup4\n    /* \"#utility.yul\":3917:3930   */\n  lt\n    /* \"#utility.yul\":3913:3949   */\n  and\n    /* \"#utility.yul\":3907:3909   */\n  0x4e\n    /* \"#utility.yul\":3897:3905   */\n  dup5\n    /* \"#utility.yul\":3894:3910   */\n  lt\n    /* \"#utility.yul\":3889:3891   */\n  0x0b\n    /* \"#utility.yul\":3883:3887   */\n  dup5\n    /* \"#utility.yul\":3880:3892   */\n  lt\n    /* \"#utility.yul\":3876:3911   */\n  and\n    /* \"#utility.yul\":3873:3950   */\n  or\n    /* \"#utility.yul\":3870:4073   */\n  iszero\n  tag_69\n  jumpi\n  pop\n    /* \"#utility.yul\":3982:4001   */\n  dup2\n  dup2\n  exp\n    /* \"#utility.yul\":4058:4063   */\n  jump(tag_61)\n    /* \"#utility.yul\":3870:4073   */\ntag_69:\n    /* \"#utility.yul\":4105:4147   */\n  tag_70\n  not(0x00)\n    /* \"#utility.yul\":4130:4138   */\n  dup5\n    /* \"#utility.yul\":4124:4128   */\n  dup5\n    /* \"#utility.yul\":4105:4147   */\n  tag_22\n  jump\t// in\ntag_70:\n    /* \"#utility.yul\":4183:4189   */\n  dup1\n    /* \"#utility.yul\":4179:4180   */\n  0x00\n    /* \"#utility.yul\":4175:4181   */\n  not\n    /* \"#utility.yul\":4171:4190   */\n  div\n    /* \"#utility.yul\":4162:4169   */\n  dup3\n    /* \"#utility.yul\":4159:4191   */\n  gt\n    /* \"#utility.yul\":4156:4214   */\n  iszero\n  tag_72\n  jumpi\n    /* \"#utility.yul\":4194:4212   */\n  tag_72\n  tag_21\n  jump\t// in\ntag_72:\n    /* \"#utility.yul\":4232:4252   */\n  mul\n  swap1\n  pop\n    /* \"#utility.yul\":3356:4258   */\ntag_61:\n  swap3\n  swap2\n  pop\n  pop\n  jump\t// out\n    /* \"#utility.yul\":4263:4394   */\ntag_10:\n    /* \"#utility.yul\":4323:4328   */\n  0x00\n    /* \"#utility.yul\":4352:4388   */\n  tag_74\n    /* \"#utility.yul\":4379:4387   */\n  dup4\n    /* \"#utility.yul\":4373:4377   */\n  dup4\n    /* \"#utility.yul\":4352:4388   */\n  tag_23\n  jump\t// in\ntag_74:\n    /* \"#utility.yul\":4343:4388   */\n  swap4\n    /* \"#utility.yul\":4263:4394   */\n  swap3\n  pop\n  pop\n  pop\n  jump\t// out\n    /* \"#utility.yul\":4399:4567   */\ntag_12:\n    /* \"#utility.yul\":4472:4481   */\n  dup1\n  dup3\n  mul\n    /* \"#utility.yul\":4503:4512   */\n  dup2\n  iszero\n    /* \"#utility.yul\":4520:4535   */\n  dup3\n  dup3\n  div\n    /* \"#utility.yul\":4514:4536   */\n  dup5\n  eq\n    /* \"#utility.yul\":4500:4537   */\n  or\n    /* \"#utility.yul\":4490:4561   */\n  tag_61\n  jumpi\n    /* \"#utility.yul\":4541:4559   */\n  tag_61\n  tag_21\n  jump\t// in\n    /* \"#utility.yul\":4572:4749   */\ntag_24:\n    /* \"contracts/bbk/USDTTO.sol\":87:4145  contract MintableToken{... */\n  dataSize(sub_0)\n  dup1\n  dataOffset(sub_0)\n  0x00\n  codecopy\n  0x00\n  return\nstop\n\nsub_0: assembly {\n        /* \"contracts/bbk/USDTTO.sol\":87:4145  contract MintableToken{... */\n      mstore(0x40, 0x80)\n      callvalue\n      dup1\n      iszero\n      tag_1\n      jumpi\n      revert(0x00, 0x00)\n    tag_1:\n      pop\n      jumpi(tag_2, lt(calldatasize, 0x04))\n      shr(0xe0, calldataload(0x00))\n      dup1\n      0x70a08231\n      gt\n      tag_17\n      jumpi\n      dup1\n      0xa9059cbb\n      gt\n      tag_18\n      jumpi\n      dup1\n      0xa9059cbb\n      eq\n      tag_13\n      jumpi\n      dup1\n      0xb6b55f25\n      eq\n      tag_14\n      jumpi\n      dup1\n      0xc9828ae0\n      eq\n      tag_15\n      jumpi\n      dup1\n      0xdd62ed3e\n      eq\n      tag_16\n      jumpi\n      revert(0x00, 0x00)\n    tag_18:\n      dup1\n      0x70a08231\n      eq\n      tag_10\n      jumpi\n      dup1\n      0x8da5cb5b\n      eq\n      tag_11\n      jumpi\n      dup1\n      0x95d89b41\n      eq\n      tag_12\n      jumpi\n      revert(0x00, 0x00)\n    tag_17:\n      dup1\n      0x23b872dd\n      gt\n      tag_19\n      jumpi\n      dup1\n      0x23b872dd\n      eq\n      tag_6\n      jumpi\n      dup1\n      0x313ce567\n      eq\n      tag_7\n      jumpi\n      dup1\n      0x40c10f19\n      eq\n      tag_8\n      jumpi\n      dup1\n      0x42966c68\n      eq\n      tag_9\n      jumpi\n      revert(0x00, 0x00)\n    tag_19:\n      dup1\n      0x06fdde03\n      eq\n      tag_3\n      jumpi\n      dup1\n      0x095ea7b3\n      eq\n      tag_4\n      jumpi\n      dup1\n      0x18160ddd\n      eq\n      tag_5\n      jumpi\n    tag_2:\n      revert(0x00, 0x00)\n        /* \"contracts/bbk/USDTTO.sol\":116:153  string public name = \"Mintable Token\" */\n    tag_3:\n      tag_20\n      tag_21\n      jump\t// in\n    tag_20:\n      mload(0x40)\n      tag_22\n      swap2\n      swap1\n      tag_23\n      jump\t// in\n    tag_22:\n      mload(0x40)\n      dup1\n      swap2\n      sub\n      swap1\n      return\n        /* \"contracts/bbk/USDTTO.sol\":1715:1925  function approve(address spender, uint256 value) public returns (bool success) {... */\n    tag_4:\n      tag_24\n      tag_25\n      calldatasize\n      0x04\n      tag_26\n      jump\t// in\n    tag_25:\n      tag_27\n      jump\t// in\n    tag_24:\n      mload(0x40)\n        /* \"#utility.yul\":1085:1099   */\n      swap1\n      iszero\n        /* \"#utility.yul\":1078:1100   */\n      iszero\n        /* \"#utility.yul\":1060:1101   */\n      dup2\n      mstore\n        /* \"#utility.yul\":1048:1050   */\n      0x20\n        /* \"#utility.yul\":1033:1051   */\n      add\n        /* \"contracts/bbk/USDTTO.sol\":1715:1925  function approve(address spender, uint256 value) public returns (bool success) {... */\n      tag_22\n        /* \"#utility.yul\":920:1107   */\n      jump\n        /* \"contracts/bbk/USDTTO.sol\":228:254  uint256 public totalSupply */\n    tag_5:\n      tag_30\n      sload(0x03)\n      dup2\n      jump\n    tag_30:\n      mload(0x40)\n        /* \"#utility.yul\":1258:1283   */\n      swap1\n      dup2\n      mstore\n        /* \"#utility.yul\":1246:1248   */\n      0x20\n        /* \"#utility.yul\":1231:1249   */\n      add\n        /* \"contracts/bbk/USDTTO.sol\":228:254  uint256 public totalSupply */\n      tag_22\n        /* \"#utility.yul\":1112:1289   */\n      jump\n        /* \"contracts/bbk/USDTTO.sol\":1937:2531  function transferFrom(address from, address to, uint256 value) public returns (bool success) {... */\n    tag_6:\n      tag_24\n      tag_35\n      calldatasize\n      0x04\n      tag_36\n      jump\t// in\n    tag_35:\n      tag_37\n      jump\t// in\n        /* \"contracts/bbk/USDTTO.sol\":195:221  uint8 public decimals = 18 */\n    tag_7:\n      sload(0x02)\n      tag_39\n      swap1\n      0xff\n      and\n      dup2\n      jump\n    tag_39:\n      mload(0x40)\n        /* \"#utility.yul\":1845:1849   */\n      0xff\n        /* \"#utility.yul\":1833:1850   */\n      swap1\n      swap2\n      and\n        /* \"#utility.yul\":1815:1851   */\n      dup2\n      mstore\n        /* \"#utility.yul\":1803:1805   */\n      0x20\n        /* \"#utility.yul\":1788:1806   */\n      add\n        /* \"contracts/bbk/USDTTO.sol\":195:221  uint8 public decimals = 18 */\n      tag_22\n        /* \"#utility.yul\":1673:1857   */\n      jump\n        /* \"contracts/bbk/USDTTO.sol\":2543:2694  function mint(address to, uint256 amount) public onlyOwner returns (bool success) {... */\n    tag_8:\n      tag_24\n      tag_44\n      calldatasize\n      0x04\n      tag_26\n      jump\t// in\n    tag_44:\n      tag_45\n      jump\t// in\n        /* \"contracts/bbk/USDTTO.sol\":3084:3539  function burn(uint256 amount) public returns (bool success) {... */\n    tag_9:\n      tag_24\n      tag_48\n      calldatasize\n      0x04\n      tag_49\n      jump\t// in\n    tag_48:\n      tag_50\n      jump\t// in\n        /* \"contracts/bbk/USDTTO.sol\":267:311  mapping(address => uint256) public balanceOf */\n    tag_10:\n      tag_30\n      tag_53\n      calldatasize\n      0x04\n      tag_54\n      jump\t// in\n    tag_53:\n      mstore(0x20, 0x04)\n      0x00\n      swap1\n      dup2\n      mstore\n      0x40\n      swap1\n      keccak256\n      sload\n      dup2\n      jump\n        /* \"contracts/bbk/USDTTO.sol\":395:415  address public owner */\n    tag_11:\n      sload(0x06)\n      tag_57\n      swap1\n      sub(shl(0xa0, 0x01), 0x01)\n      and\n      dup2\n      jump\n    tag_57:\n      mload(0x40)\n      sub(shl(0xa0, 0x01), 0x01)\n        /* \"#utility.yul\":2448:2480   */\n      swap1\n      swap2\n      and\n        /* \"#utility.yul\":2430:2481   */\n      dup2\n      mstore\n        /* \"#utility.yul\":2418:2420   */\n      0x20\n        /* \"#utility.yul\":2403:2421   */\n      add\n        /* \"contracts/bbk/USDTTO.sol\":395:415  address public owner */\n      tag_22\n        /* \"#utility.yul\":2284:2487   */\n      jump\n        /* \"contracts/bbk/USDTTO.sol\":160:188  string public symbol = \"MTK\" */\n    tag_12:\n      tag_20\n      tag_62\n      jump\t// in\n        /* \"contracts/bbk/USDTTO.sol\":1232:1703  function transfer(address to, uint256 value) public returns (bool success) {... */\n    tag_13:\n      tag_24\n      tag_65\n      calldatasize\n      0x04\n      tag_26\n      jump\t// in\n    tag_65:\n      tag_66\n      jump\t// in\n        /* \"contracts/bbk/USDTTO.sol\":3551:4142  function deposit(uint256 amount) public returns (bool success) {... */\n    tag_14:\n      tag_24\n      tag_69\n      calldatasize\n      0x04\n      tag_49\n      jump\t// in\n    tag_69:\n      tag_70\n      jump\t// in\n        /* \"contracts/bbk/USDTTO.sol\":422:495  address public externalToken = 0xf752BcA3378d95E6bFaa603A76bD9a0CaE776268 */\n    tag_15:\n      sload(0x07)\n      tag_57\n      swap1\n      sub(shl(0xa0, 0x01), 0x01)\n      and\n      dup2\n      jump\n        /* \"contracts/bbk/USDTTO.sol\":318:382  mapping(address => mapping(address => uint256)) public allowance */\n    tag_16:\n      tag_30\n      tag_76\n      calldatasize\n      0x04\n      tag_77\n      jump\t// in\n    tag_76:\n      0x05\n      0x20\n      swap1\n      dup2\n      mstore\n      0x00\n      swap3\n      dup4\n      mstore\n      0x40\n      dup1\n      dup5\n      keccak256\n      swap1\n      swap2\n      mstore\n      swap1\n      dup3\n      mstore\n      swap1\n      keccak256\n      sload\n      dup2\n      jump\n        /* \"contracts/bbk/USDTTO.sol\":116:153  string public name = \"Mintable Token\" */\n    tag_21:\n      0x00\n      dup1\n      sload\n      tag_80\n      swap1\n      tag_81\n      jump\t// in\n    tag_80:\n      dup1\n      0x1f\n      add\n      0x20\n      dup1\n      swap2\n      div\n      mul\n      0x20\n      add\n      mload(0x40)\n      swap1\n      dup2\n      add\n      0x40\n      mstore\n      dup1\n      swap3\n      swap2\n      swap1\n      dup2\n      dup2\n      mstore\n      0x20\n      add\n      dup3\n      dup1\n      sload\n      tag_82\n      swap1\n      tag_81\n      jump\t// in\n    tag_82:\n      dup1\n      iszero\n      tag_83\n      jumpi\n      dup1\n      0x1f\n      lt\n      tag_84\n      jumpi\n      0x0100\n      dup1\n      dup4\n      sload\n      div\n      mul\n      dup4\n      mstore\n      swap2\n      0x20\n      add\n      swap2\n      jump(tag_83)\n    tag_84:\n      dup3\n      add\n      swap2\n      swap1\n      0x00\n      mstore\n      keccak256(0x00, 0x20)\n      swap1\n    tag_85:\n      dup2\n      sload\n      dup2\n      mstore\n      swap1\n      0x01\n      add\n      swap1\n      0x20\n      add\n      dup1\n      dup4\n      gt\n      tag_85\n      jumpi\n      dup3\n      swap1\n      sub\n      0x1f\n      and\n      dup3\n      add\n      swap2\n    tag_83:\n      pop\n      pop\n      pop\n      pop\n      pop\n      dup2\n      jump\t// out\n        /* \"contracts/bbk/USDTTO.sol\":1715:1925  function approve(address spender, uint256 value) public returns (bool success) {... */\n    tag_27:\n        /* \"contracts/bbk/USDTTO.sol\":1815:1825  msg.sender */\n      caller\n        /* \"contracts/bbk/USDTTO.sol\":1780:1792  bool success */\n      0x00\n        /* \"contracts/bbk/USDTTO.sol\":1805:1826  allowance[msg.sender] */\n      dup2\n      dup2\n      mstore\n        /* \"contracts/bbk/USDTTO.sol\":1805:1814  allowance */\n      0x05\n        /* \"contracts/bbk/USDTTO.sol\":1805:1826  allowance[msg.sender] */\n      0x20\n      swap1\n      dup2\n      mstore\n      0x40\n      dup1\n      dup4\n      keccak256\n      sub(shl(0xa0, 0x01), 0x01)\n        /* \"contracts/bbk/USDTTO.sol\":1805:1835  allowance[msg.sender][spender] */\n      dup8\n      and\n      dup1\n      dup6\n      mstore\n      swap3\n      mstore\n      dup1\n      dup4\n      keccak256\n        /* \"contracts/bbk/USDTTO.sol\":1805:1843  allowance[msg.sender][spender] = value */\n      dup6\n      swap1\n      sstore\n        /* \"contracts/bbk/USDTTO.sol\":1859:1895  Approval(msg.sender, spender, value) */\n      mload\n        /* \"contracts/bbk/USDTTO.sol\":1780:1792  bool success */\n      swap2\n      swap3\n        /* \"contracts/bbk/USDTTO.sol\":1805:1835  allowance[msg.sender][spender] */\n      swap1\n      swap2\n        /* \"contracts/bbk/USDTTO.sol\":1859:1895  Approval(msg.sender, spender, value) */\n      0x8c5be1e5ebec7d5bd14f71427d1e84f3dd0314c0f7b2291e5b200ac8c7c3b925\n      swap1\n      tag_87\n      swap1\n        /* \"contracts/bbk/USDTTO.sol\":1838:1843  value */\n      dup7\n        /* \"#utility.yul\":1258:1283   */\n      dup2\n      mstore\n        /* \"#utility.yul\":1246:1248   */\n      0x20\n        /* \"#utility.yul\":1231:1249   */\n      add\n      swap1\n        /* \"#utility.yul\":1112:1289   */\n      jump\n        /* \"contracts/bbk/USDTTO.sol\":1859:1895  Approval(msg.sender, spender, value) */\n    tag_87:\n      mload(0x40)\n      dup1\n      swap2\n      sub\n      swap1\n      log3\n      pop\n        /* \"contracts/bbk/USDTTO.sol\":1913:1917  true */\n      0x01\n        /* \"contracts/bbk/USDTTO.sol\":1715:1925  function approve(address spender, uint256 value) public returns (bool success) {... */\n    tag_86:\n      swap3\n      swap2\n      pop\n      pop\n      jump\t// out\n        /* \"contracts/bbk/USDTTO.sol\":1937:2531  function transferFrom(address from, address to, uint256 value) public returns (bool success) {... */\n    tag_37:\n        /* \"contracts/bbk/USDTTO.sol\":2016:2028  bool success */\n      0x00\n      sub(shl(0xa0, 0x01), 0x01)\n        /* \"contracts/bbk/USDTTO.sol\":2049:2065  to != address(0) */\n      dup4\n      and\n        /* \"contracts/bbk/USDTTO.sol\":2041:2085  require(to != address(0), \"Invalid address\") */\n      tag_89\n      jumpi\n      mload(0x40)\n      shl(0xe5, 0x461bcd)\n      dup2\n      mstore\n      0x04\n      add\n      tag_90\n      swap1\n      tag_91\n      jump\t// in\n    tag_90:\n      mload(0x40)\n      dup1\n      swap2\n      sub\n      swap1\n      revert\n    tag_89:\n      sub(shl(0xa0, 0x01), 0x01)\n        /* \"contracts/bbk/USDTTO.sol\":2104:2119  balanceOf[from] */\n      dup5\n      and\n      0x00\n      swap1\n      dup2\n      mstore\n        /* \"contracts/bbk/USDTTO.sol\":2104:2113  balanceOf */\n      0x04\n        /* \"contracts/bbk/USDTTO.sol\":2104:2119  balanceOf[from] */\n      0x20\n      mstore\n      0x40\n      swap1\n      keccak256\n      sload\n        /* \"contracts/bbk/USDTTO.sol\":2104:2128  balanceOf[from] >= value */\n      dup3\n      gt\n      iszero\n        /* \"contracts/bbk/USDTTO.sol\":2096:2153  require(balanceOf[from] >= value, \"Insufficient balance\") */\n      tag_92\n      jumpi\n      mload(0x40)\n      shl(0xe5, 0x461bcd)\n      dup2\n      mstore\n      0x04\n      add\n      tag_90\n      swap1\n      tag_94\n      jump\t// in\n    tag_92:\n      sub(shl(0xa0, 0x01), 0x01)\n        /* \"contracts/bbk/USDTTO.sol\":2172:2187  allowance[from] */\n      dup5\n      and\n      0x00\n      swap1\n      dup2\n      mstore\n        /* \"contracts/bbk/USDTTO.sol\":2172:2181  allowance */\n      0x05\n        /* \"contracts/bbk/USDTTO.sol\":2172:2187  allowance[from] */\n      0x20\n      swap1\n      dup2\n      mstore\n      0x40\n      dup1\n      dup4\n      keccak256\n        /* \"contracts/bbk/USDTTO.sol\":2188:2198  msg.sender */\n      caller\n        /* \"contracts/bbk/USDTTO.sol\":2172:2199  allowance[from][msg.sender] */\n      dup5\n      mstore\n      swap1\n      swap2\n      mstore\n      swap1\n      keccak256\n      sload\n        /* \"contracts/bbk/USDTTO.sol\":2172:2208  allowance[from][msg.sender] >= value */\n      dup3\n      gt\n      iszero\n        /* \"contracts/bbk/USDTTO.sol\":2164:2235  require(allowance[from][msg.sender] >= value, \"Insufficient allowance\") */\n      tag_95\n      jumpi\n      mload(0x40)\n      shl(0xe5, 0x461bcd)\n      dup2\n      mstore\n        /* \"#utility.yul\":4037:4039   */\n      0x20\n        /* \"contracts/bbk/USDTTO.sol\":2164:2235  require(allowance[from][msg.sender] >= value, \"Insufficient allowance\") */\n      0x04\n      dup3\n      add\n        /* \"#utility.yul\":4019:4040   */\n      mstore\n        /* \"#utility.yul\":4076:4078   */\n      0x16\n        /* \"#utility.yul\":4056:4074   */\n      0x24\n      dup3\n      add\n        /* \"#utility.yul\":4049:4079   */\n      mstore\n      shl(0x50, 0x496e73756666696369656e7420616c6c6f77616e6365)\n        /* \"#utility.yul\":4095:4113   */\n      0x44\n      dup3\n      add\n        /* \"#utility.yul\":4088:4140   */\n      mstore\n        /* \"#utility.yul\":4157:4175   */\n      0x64\n      add\n        /* \"contracts/bbk/USDTTO.sol\":2164:2235  require(allowance[from][msg.sender] >= value, \"Insufficient allowance\") */\n      tag_90\n        /* \"#utility.yul\":3835:4181   */\n      jump\n        /* \"contracts/bbk/USDTTO.sol\":2164:2235  require(allowance[from][msg.sender] >= value, \"Insufficient allowance\") */\n    tag_95:\n      sub(shl(0xa0, 0x01), 0x01)\n        /* \"contracts/bbk/USDTTO.sol\":2256:2271  balanceOf[from] */\n      dup5\n      and\n      0x00\n      swap1\n      dup2\n      mstore\n        /* \"contracts/bbk/USDTTO.sol\":2256:2265  balanceOf */\n      0x04\n        /* \"contracts/bbk/USDTTO.sol\":2256:2271  balanceOf[from] */\n      0x20\n      mstore\n      0x40\n      dup2\n      keccak256\n        /* \"contracts/bbk/USDTTO.sol\":2256:2280  balanceOf[from] -= value */\n      dup1\n      sload\n        /* \"contracts/bbk/USDTTO.sol\":2275:2280  value */\n      dup5\n      swap3\n        /* \"contracts/bbk/USDTTO.sol\":2256:2271  balanceOf[from] */\n      swap1\n        /* \"contracts/bbk/USDTTO.sol\":2256:2280  balanceOf[from] -= value */\n      tag_98\n      swap1\n        /* \"contracts/bbk/USDTTO.sol\":2275:2280  value */\n      dup5\n      swap1\n        /* \"contracts/bbk/USDTTO.sol\":2256:2280  balanceOf[from] -= value */\n      tag_99\n      jump\t// in\n    tag_98:\n      swap1\n      swap2\n      sstore\n      pop\n      pop\n      sub(shl(0xa0, 0x01), 0x01)\n        /* \"contracts/bbk/USDTTO.sol\":2291:2304  balanceOf[to] */\n      dup4\n      and\n      0x00\n      swap1\n      dup2\n      mstore\n        /* \"contracts/bbk/USDTTO.sol\":2291:2300  balanceOf */\n      0x04\n        /* \"contracts/bbk/USDTTO.sol\":2291:2304  balanceOf[to] */\n      0x20\n      mstore\n      0x40\n      dup2\n      keccak256\n        /* \"contracts/bbk/USDTTO.sol\":2291:2313  balanceOf[to] += value */\n      dup1\n      sload\n        /* \"contracts/bbk/USDTTO.sol\":2308:2313  value */\n      dup5\n      swap3\n        /* \"contracts/bbk/USDTTO.sol\":2291:2304  balanceOf[to] */\n      swap1\n        /* \"contracts/bbk/USDTTO.sol\":2291:2313  balanceOf[to] += value */\n      tag_100\n      swap1\n        /* \"contracts/bbk/USDTTO.sol\":2308:2313  value */\n      dup5\n      swap1\n        /* \"contracts/bbk/USDTTO.sol\":2291:2313  balanceOf[to] += value */\n      tag_101\n      jump\t// in\n    tag_100:\n      swap1\n      swap2\n      sstore\n      pop\n      pop\n      sub(shl(0xa0, 0x01), 0x01)\n        /* \"contracts/bbk/USDTTO.sol\":2324:2339  allowance[from] */\n      dup5\n      and\n      0x00\n      swap1\n      dup2\n      mstore\n        /* \"contracts/bbk/USDTTO.sol\":2324:2333  allowance */\n      0x05\n        /* \"contracts/bbk/USDTTO.sol\":2324:2339  allowance[from] */\n      0x20\n      swap1\n      dup2\n      mstore\n      0x40\n      dup1\n      dup4\n      keccak256\n        /* \"contracts/bbk/USDTTO.sol\":2340:2350  msg.sender */\n      caller\n        /* \"contracts/bbk/USDTTO.sol\":2324:2351  allowance[from][msg.sender] */\n      dup5\n      mstore\n      swap1\n      swap2\n      mstore\n      dup2\n      keccak256\n        /* \"contracts/bbk/USDTTO.sol\":2324:2360  allowance[from][msg.sender] -= value */\n      dup1\n      sload\n        /* \"contracts/bbk/USDTTO.sol\":2355:2360  value */\n      dup5\n      swap3\n        /* \"contracts/bbk/USDTTO.sol\":2324:2339  allowance[from] */\n      swap1\n        /* \"contracts/bbk/USDTTO.sol\":2324:2360  allowance[from][msg.sender] -= value */\n      tag_102\n      swap1\n        /* \"contracts/bbk/USDTTO.sol\":2355:2360  value */\n      dup5\n      swap1\n        /* \"contracts/bbk/USDTTO.sol\":2324:2360  allowance[from][msg.sender] -= value */\n      tag_99\n      jump\t// in\n    tag_102:\n      swap1\n      swap2\n      sstore\n      pop\n      pop\n        /* \"contracts/bbk/USDTTO.sol\":2399:2403  this */\n      address\n      sub(shl(0xa0, 0x01), 0x01)\n        /* \"contracts/bbk/USDTTO.sol\":2385:2404  to == address(this) */\n      dup5\n      and\n      sub\n        /* \"contracts/bbk/USDTTO.sol\":2381:2451  if (to == address(this)) {... */\n      tag_103\n      jumpi\n        /* \"contracts/bbk/USDTTO.sol\":2421:2439  _mint(from, value) */\n      tag_104\n        /* \"contracts/bbk/USDTTO.sol\":2427:2431  from */\n      dup5\n        /* \"contracts/bbk/USDTTO.sol\":2433:2438  value */\n      dup4\n        /* \"contracts/bbk/USDTTO.sol\":2421:2426  _mint */\n      tag_105\n        /* \"contracts/bbk/USDTTO.sol\":2421:2439  _mint(from, value) */\n      jump\t// in\n    tag_104:\n      pop\n        /* \"contracts/bbk/USDTTO.sol\":2381:2451  if (to == address(this)) {... */\n    tag_103:\n        /* \"contracts/bbk/USDTTO.sol\":2491:2493  to */\n      dup3\n      sub(shl(0xa0, 0x01), 0x01)\n        /* \"contracts/bbk/USDTTO.sol\":2476:2501  Transfer(from, to, value) */\n      and\n        /* \"contracts/bbk/USDTTO.sol\":2485:2489  from */\n      dup5\n      sub(shl(0xa0, 0x01), 0x01)\n        /* \"contracts/bbk/USDTTO.sol\":2476:2501  Transfer(from, to, value) */\n      and\n      mload(0x00)\n      codecopy(0x00, data_ada389e1fc24a8587c776340efb91b36e675792ab631816100d55df0b5cf3cbc, 0x20)\n      mload(0x00)\n      swap1\n      0x00\n      mstore\n        /* \"contracts/bbk/USDTTO.sol\":2495:2500  value */\n      dup5\n        /* \"contracts/bbk/USDTTO.sol\":2476:2501  Transfer(from, to, value) */\n      mload(0x40)\n      tag_106\n      swap2\n        /* \"#utility.yul\":1258:1283   */\n      dup2\n      mstore\n        /* \"#utility.yul\":1246:1248   */\n      0x20\n        /* \"#utility.yul\":1231:1249   */\n      add\n      swap1\n        /* \"#utility.yul\":1112:1289   */\n      jump\n        /* \"contracts/bbk/USDTTO.sol\":2476:2501  Transfer(from, to, value) */\n    tag_106:\n      mload(0x40)\n      dup1\n      swap2\n      sub\n      swap1\n      log3\n      pop\n        /* \"contracts/bbk/USDTTO.sol\":2519:2523  true */\n      0x01\n        /* \"contracts/bbk/USDTTO.sol\":1937:2531  function transferFrom(address from, address to, uint256 value) public returns (bool success) {... */\n      swap4\n      swap3\n      pop\n      pop\n      pop\n      jump\t// out\n        /* \"contracts/bbk/USDTTO.sol\":2543:2694  function mint(address to, uint256 amount) public onlyOwner returns (bool success) {... */\n    tag_45:\n        /* \"contracts/bbk/USDTTO.sol\":918:923  owner */\n      sload(0x06)\n        /* \"contracts/bbk/USDTTO.sol\":2611:2623  bool success */\n      0x00\n      swap1\n      sub(shl(0xa0, 0x01), 0x01)\n        /* \"contracts/bbk/USDTTO.sol\":918:923  owner */\n      and\n        /* \"contracts/bbk/USDTTO.sol\":904:914  msg.sender */\n      caller\n        /* \"contracts/bbk/USDTTO.sol\":904:923  msg.sender == owner */\n      eq\n        /* \"contracts/bbk/USDTTO.sol\":896:961  require(msg.sender == owner, \"Only owner can call this function\") */\n      tag_108\n      jumpi\n      mload(0x40)\n      shl(0xe5, 0x461bcd)\n      dup2\n      mstore\n        /* \"#utility.yul\":4783:4785   */\n      0x20\n        /* \"contracts/bbk/USDTTO.sol\":896:961  require(msg.sender == owner, \"Only owner can call this function\") */\n      0x04\n      dup3\n      add\n        /* \"#utility.yul\":4765:4786   */\n      mstore\n        /* \"#utility.yul\":4822:4824   */\n      0x21\n        /* \"#utility.yul\":4802:4820   */\n      0x24\n      dup3\n      add\n        /* \"#utility.yul\":4795:4825   */\n      mstore\n        /* \"#utility.yul\":4861:4895   */\n      0x4f6e6c79206f776e65722063616e2063616c6c20746869732066756e6374696f\n        /* \"#utility.yul\":4841:4859   */\n      0x44\n      dup3\n      add\n        /* \"#utility.yul\":4834:4896   */\n      mstore\n      shl(0xf9, 0x37)\n        /* \"#utility.yul\":4912:4930   */\n      0x64\n      dup3\n      add\n        /* \"#utility.yul\":4905:4936   */\n      mstore\n        /* \"#utility.yul\":4953:4972   */\n      0x84\n      add\n        /* \"contracts/bbk/USDTTO.sol\":896:961  require(msg.sender == owner, \"Only owner can call this function\") */\n      tag_90\n        /* \"#utility.yul\":4581:4978   */\n      jump\n        /* \"contracts/bbk/USDTTO.sol\":896:961  require(msg.sender == owner, \"Only owner can call this function\") */\n    tag_108:\n        /* \"contracts/bbk/USDTTO.sol\":2676:2684  decimals */\n      sload(0x02)\n        /* \"contracts/bbk/USDTTO.sol\":2643:2686  _mint(to, amount * 10 ** uint256(decimals)) */\n      tag_112\n      swap1\n        /* \"contracts/bbk/USDTTO.sol\":2649:2651  to */\n      dup5\n      swap1\n        /* \"contracts/bbk/USDTTO.sol\":2662:2685  10 ** uint256(decimals) */\n      tag_113\n      swap1\n        /* \"contracts/bbk/USDTTO.sol\":2676:2684  decimals */\n      0xff\n      and\n        /* \"contracts/bbk/USDTTO.sol\":2662:2664  10 */\n      0x0a\n        /* \"contracts/bbk/USDTTO.sol\":2662:2685  10 ** uint256(decimals) */\n      tag_114\n      jump\t// in\n    tag_113:\n        /* \"contracts/bbk/USDTTO.sol\":2653:2685  amount * 10 ** uint256(decimals) */\n      tag_115\n      swap1\n        /* \"contracts/bbk/USDTTO.sol\":2653:2659  amount */\n      dup6\n        /* \"contracts/bbk/USDTTO.sol\":2653:2685  amount * 10 ** uint256(decimals) */\n      tag_116\n      jump\t// in\n    tag_115:\n        /* \"contracts/bbk/USDTTO.sol\":2643:2648  _mint */\n      tag_105\n        /* \"contracts/bbk/USDTTO.sol\":2643:2686  _mint(to, amount * 10 ** uint256(decimals)) */\n      jump\t// in\n    tag_112:\n        /* \"contracts/bbk/USDTTO.sol\":2636:2686  return _mint(to, amount * 10 ** uint256(decimals)) */\n      swap4\n        /* \"contracts/bbk/USDTTO.sol\":2543:2694  function mint(address to, uint256 amount) public onlyOwner returns (bool success) {... */\n      swap3\n      pop\n      pop\n      pop\n      jump\t// out\n        /* \"contracts/bbk/USDTTO.sol\":3084:3539  function burn(uint256 amount) public returns (bool success) {... */\n    tag_50:\n        /* \"contracts/bbk/USDTTO.sol\":3173:3183  msg.sender */\n      caller\n        /* \"contracts/bbk/USDTTO.sol\":3130:3142  bool success */\n      0x00\n        /* \"contracts/bbk/USDTTO.sol\":3163:3184  balanceOf[msg.sender] */\n      swap1\n      dup2\n      mstore\n        /* \"contracts/bbk/USDTTO.sol\":3163:3172  balanceOf */\n      0x04\n        /* \"contracts/bbk/USDTTO.sol\":3163:3184  balanceOf[msg.sender] */\n      0x20\n      mstore\n      0x40\n      dup2\n      keccak256\n      sload\n        /* \"contracts/bbk/USDTTO.sol\":3163:3194  balanceOf[msg.sender] >= amount */\n      dup3\n      gt\n      iszero\n        /* \"contracts/bbk/USDTTO.sol\":3155:3219  require(balanceOf[msg.sender] >= amount, \"Insufficient balance\") */\n      tag_118\n      jumpi\n      mload(0x40)\n      shl(0xe5, 0x461bcd)\n      dup2\n      mstore\n      0x04\n      add\n      tag_90\n      swap1\n      tag_94\n      jump\t// in\n    tag_118:\n        /* \"contracts/bbk/USDTTO.sol\":3282:3290  decimals */\n      sload(0x02)\n        /* \"contracts/bbk/USDTTO.sol\":3230:3256  uint256 amountWithDecimals */\n      0x00\n      swap1\n        /* \"contracts/bbk/USDTTO.sol\":3268:3291  10 ** uint256(decimals) */\n      tag_120\n      swap1\n        /* \"contracts/bbk/USDTTO.sol\":3282:3290  decimals */\n      0xff\n      and\n        /* \"contracts/bbk/USDTTO.sol\":3268:3270  10 */\n      0x0a\n        /* \"contracts/bbk/USDTTO.sol\":3268:3291  10 ** uint256(decimals) */\n      tag_114\n      jump\t// in\n    tag_120:\n        /* \"contracts/bbk/USDTTO.sol\":3259:3291  amount * 10 ** uint256(decimals) */\n      tag_121\n      swap1\n        /* \"contracts/bbk/USDTTO.sol\":3259:3265  amount */\n      dup5\n        /* \"contracts/bbk/USDTTO.sol\":3259:3291  amount * 10 ** uint256(decimals) */\n      tag_116\n      jump\t// in\n    tag_121:\n        /* \"contracts/bbk/USDTTO.sol\":3312:3322  msg.sender */\n      caller\n        /* \"contracts/bbk/USDTTO.sol\":3302:3323  balanceOf[msg.sender] */\n      0x00\n      swap1\n      dup2\n      mstore\n        /* \"contracts/bbk/USDTTO.sol\":3302:3311  balanceOf */\n      0x04\n        /* \"contracts/bbk/USDTTO.sol\":3302:3323  balanceOf[msg.sender] */\n      0x20\n      mstore\n      0x40\n      dup2\n      keccak256\n        /* \"contracts/bbk/USDTTO.sol\":3302:3345  balanceOf[msg.sender] -= amountWithDecimals */\n      dup1\n      sload\n        /* \"contracts/bbk/USDTTO.sol\":3230:3291  uint256 amountWithDecimals = amount * 10 ** uint256(decimals) */\n      swap3\n      swap4\n      pop\n      dup4\n      swap3\n        /* \"contracts/bbk/USDTTO.sol\":3302:3323  balanceOf[msg.sender] */\n      swap1\n      swap2\n      swap1\n        /* \"contracts/bbk/USDTTO.sol\":3302:3345  balanceOf[msg.sender] -= amountWithDecimals */\n      tag_122\n      swap1\n        /* \"contracts/bbk/USDTTO.sol\":3230:3291  uint256 amountWithDecimals = amount * 10 ** uint256(decimals) */\n      dup5\n      swap1\n        /* \"contracts/bbk/USDTTO.sol\":3302:3345  balanceOf[msg.sender] -= amountWithDecimals */\n      tag_99\n      jump\t// in\n    tag_122:\n      swap3\n      pop\n      pop\n      dup2\n      swap1\n      sstore\n      pop\n        /* \"contracts/bbk/USDTTO.sol\":3371:3389  amountWithDecimals */\n      dup1\n        /* \"contracts/bbk/USDTTO.sol\":3356:3367  totalSupply */\n      0x03\n      0x00\n        /* \"contracts/bbk/USDTTO.sol\":3356:3389  totalSupply -= amountWithDecimals */\n      dup3\n      dup3\n      sload\n      tag_123\n      swap2\n      swap1\n      tag_99\n      jump\t// in\n    tag_123:\n      swap1\n      swap2\n      sstore\n      pop\n      pop\n        /* \"contracts/bbk/USDTTO.sol\":3405:3441  Burn(msg.sender, amountWithDecimals) */\n      mload(0x40)\n        /* \"#utility.yul\":1258:1283   */\n      dup2\n      dup2\n      mstore\n        /* \"contracts/bbk/USDTTO.sol\":3410:3420  msg.sender */\n      caller\n      swap1\n        /* \"contracts/bbk/USDTTO.sol\":3405:3441  Burn(msg.sender, amountWithDecimals) */\n      0xcc16f5dbb4873280815c1ee09dbd06736cffcc184412cf7a71a0fdb75d397ca5\n      swap1\n        /* \"#utility.yul\":1246:1248   */\n      0x20\n        /* \"#utility.yul\":1231:1249   */\n      add\n        /* \"contracts/bbk/USDTTO.sol\":3405:3441  Burn(msg.sender, amountWithDecimals) */\n      mload(0x40)\n      dup1\n      swap2\n      sub\n      swap1\n      log2\n        /* \"contracts/bbk/USDTTO.sol\":3457:3509  Transfer(msg.sender, address(0), amountWithDecimals) */\n      mload(0x40)\n        /* \"#utility.yul\":1258:1283   */\n      dup2\n      dup2\n      mstore\n        /* \"contracts/bbk/USDTTO.sol\":3486:3487  0 */\n      0x00\n      swap1\n        /* \"contracts/bbk/USDTTO.sol\":3466:3476  msg.sender */\n      caller\n      swap1\n      mload(0x00)\n      codecopy(0x00, data_ada389e1fc24a8587c776340efb91b36e675792ab631816100d55df0b5cf3cbc, 0x20)\n      mload(0x00)\n      swap1\n      0x00\n      mstore\n        /* \"contracts/bbk/USDTTO.sol\":3457:3509  Transfer(msg.sender, address(0), amountWithDecimals) */\n      swap1\n        /* \"#utility.yul\":1246:1248   */\n      0x20\n        /* \"#utility.yul\":1231:1249   */\n      add\n        /* \"contracts/bbk/USDTTO.sol\":3457:3509  Transfer(msg.sender, address(0), amountWithDecimals) */\n      tag_87\n        /* \"#utility.yul\":1112:1289   */\n      jump\n        /* \"contracts/bbk/USDTTO.sol\":160:188  string public symbol = \"MTK\" */\n    tag_62:\n      0x01\n      dup1\n      sload\n      tag_80\n      swap1\n      tag_81\n      jump\t// in\n        /* \"contracts/bbk/USDTTO.sol\":1232:1703  function transfer(address to, uint256 value) public returns (bool success) {... */\n    tag_66:\n        /* \"contracts/bbk/USDTTO.sol\":1293:1305  bool success */\n      0x00\n      sub(shl(0xa0, 0x01), 0x01)\n        /* \"contracts/bbk/USDTTO.sol\":1326:1342  to != address(0) */\n      dup4\n      and\n        /* \"contracts/bbk/USDTTO.sol\":1318:1362  require(to != address(0), \"Invalid address\") */\n      tag_132\n      jumpi\n      mload(0x40)\n      shl(0xe5, 0x461bcd)\n      dup2\n      mstore\n      0x04\n      add\n      tag_90\n      swap1\n      tag_91\n      jump\t// in\n    tag_132:\n        /* \"contracts/bbk/USDTTO.sol\":1391:1401  msg.sender */\n      caller\n        /* \"contracts/bbk/USDTTO.sol\":1381:1402  balanceOf[msg.sender] */\n      0x00\n      swap1\n      dup2\n      mstore\n        /* \"contracts/bbk/USDTTO.sol\":1381:1390  balanceOf */\n      0x04\n        /* \"contracts/bbk/USDTTO.sol\":1381:1402  balanceOf[msg.sender] */\n      0x20\n      mstore\n      0x40\n      swap1\n      keccak256\n      sload\n        /* \"contracts/bbk/USDTTO.sol\":1381:1411  balanceOf[msg.sender] >= value */\n      dup3\n      gt\n      iszero\n        /* \"contracts/bbk/USDTTO.sol\":1373:1436  require(balanceOf[msg.sender] >= value, \"Insufficient balance\") */\n      tag_134\n      jumpi\n      mload(0x40)\n      shl(0xe5, 0x461bcd)\n      dup2\n      mstore\n      0x04\n      add\n      tag_90\n      swap1\n      tag_94\n      jump\t// in\n    tag_134:\n        /* \"contracts/bbk/USDTTO.sol\":1467:1477  msg.sender */\n      caller\n        /* \"contracts/bbk/USDTTO.sol\":1457:1478  balanceOf[msg.sender] */\n      0x00\n      swap1\n      dup2\n      mstore\n        /* \"contracts/bbk/USDTTO.sol\":1457:1466  balanceOf */\n      0x04\n        /* \"contracts/bbk/USDTTO.sol\":1457:1478  balanceOf[msg.sender] */\n      0x20\n      mstore\n      0x40\n      dup2\n      keccak256\n        /* \"contracts/bbk/USDTTO.sol\":1457:1487  balanceOf[msg.sender] -= value */\n      dup1\n      sload\n        /* \"contracts/bbk/USDTTO.sol\":1482:1487  value */\n      dup5\n      swap3\n        /* \"contracts/bbk/USDTTO.sol\":1457:1478  balanceOf[msg.sender] */\n      swap1\n        /* \"contracts/bbk/USDTTO.sol\":1457:1487  balanceOf[msg.sender] -= value */\n      tag_136\n      swap1\n        /* \"contracts/bbk/USDTTO.sol\":1482:1487  value */\n      dup5\n      swap1\n        /* \"contracts/bbk/USDTTO.sol\":1457:1487  balanceOf[msg.sender] -= value */\n      tag_99\n      jump\t// in\n    tag_136:\n      swap1\n      swap2\n      sstore\n      pop\n      pop\n      sub(shl(0xa0, 0x01), 0x01)\n        /* \"contracts/bbk/USDTTO.sol\":1498:1511  balanceOf[to] */\n      dup4\n      and\n      0x00\n      swap1\n      dup2\n      mstore\n        /* \"contracts/bbk/USDTTO.sol\":1498:1507  balanceOf */\n      0x04\n        /* \"contracts/bbk/USDTTO.sol\":1498:1511  balanceOf[to] */\n      0x20\n      mstore\n      0x40\n      dup2\n      keccak256\n        /* \"contracts/bbk/USDTTO.sol\":1498:1520  balanceOf[to] += value */\n      dup1\n      sload\n        /* \"contracts/bbk/USDTTO.sol\":1515:1520  value */\n      dup5\n      swap3\n        /* \"contracts/bbk/USDTTO.sol\":1498:1511  balanceOf[to] */\n      swap1\n        /* \"contracts/bbk/USDTTO.sol\":1498:1520  balanceOf[to] += value */\n      tag_137\n      swap1\n        /* \"contracts/bbk/USDTTO.sol\":1515:1520  value */\n      dup5\n      swap1\n        /* \"contracts/bbk/USDTTO.sol\":1498:1520  balanceOf[to] += value */\n      tag_101\n      jump\t// in\n    tag_137:\n      swap1\n      swap2\n      sstore\n      pop\n      pop\n        /* \"contracts/bbk/USDTTO.sol\":1559:1563  this */\n      address\n      sub(shl(0xa0, 0x01), 0x01)\n        /* \"contracts/bbk/USDTTO.sol\":1545:1564  to == address(this) */\n      dup5\n      and\n      sub\n        /* \"contracts/bbk/USDTTO.sol\":1541:1617  if (to == address(this)) {... */\n      tag_138\n      jumpi\n        /* \"contracts/bbk/USDTTO.sol\":1581:1605  _mint(msg.sender, value) */\n      tag_139\n        /* \"contracts/bbk/USDTTO.sol\":1587:1597  msg.sender */\n      caller\n        /* \"contracts/bbk/USDTTO.sol\":1599:1604  value */\n      dup4\n        /* \"contracts/bbk/USDTTO.sol\":1581:1586  _mint */\n      tag_105\n        /* \"contracts/bbk/USDTTO.sol\":1581:1605  _mint(msg.sender, value) */\n      jump\t// in\n    tag_139:\n      pop\n        /* \"contracts/bbk/USDTTO.sol\":1541:1617  if (to == address(this)) {... */\n    tag_138:\n        /* \"contracts/bbk/USDTTO.sol\":1642:1673  Transfer(msg.sender, to, value) */\n      mload(0x40)\n        /* \"#utility.yul\":1258:1283   */\n      dup3\n      dup2\n      mstore\n      sub(shl(0xa0, 0x01), 0x01)\n        /* \"contracts/bbk/USDTTO.sol\":1642:1673  Transfer(msg.sender, to, value) */\n      dup5\n      and\n      swap1\n        /* \"contracts/bbk/USDTTO.sol\":1651:1661  msg.sender */\n      caller\n      swap1\n      mload(0x00)\n      codecopy(0x00, data_ada389e1fc24a8587c776340efb91b36e675792ab631816100d55df0b5cf3cbc, 0x20)\n      mload(0x00)\n      swap1\n      0x00\n      mstore\n        /* \"contracts/bbk/USDTTO.sol\":1642:1673  Transfer(msg.sender, to, value) */\n      swap1\n        /* \"#utility.yul\":1246:1248   */\n      0x20\n        /* \"#utility.yul\":1231:1249   */\n      add\n        /* \"contracts/bbk/USDTTO.sol\":1642:1673  Transfer(msg.sender, to, value) */\n      tag_87\n        /* \"#utility.yul\":1112:1289   */\n      jump\n        /* \"contracts/bbk/USDTTO.sol\":3551:4142  function deposit(uint256 amount) public returns (bool success) {... */\n    tag_70:\n        /* \"contracts/bbk/USDTTO.sol\":3600:3612  bool success */\n      0x00\n        /* \"contracts/bbk/USDTTO.sol\":3642:3643  0 */\n      0x00\n        /* \"contracts/bbk/USDTTO.sol\":3633:3639  amount */\n      dup3\n        /* \"contracts/bbk/USDTTO.sol\":3633:3643  amount > 0 */\n      gt\n        /* \"contracts/bbk/USDTTO.sol\":3625:3677  require(amount > 0, \"Amount must be greater than 0\") */\n      tag_142\n      jumpi\n      mload(0x40)\n      shl(0xe5, 0x461bcd)\n      dup2\n      mstore\n        /* \"#utility.yul\":6781:6783   */\n      0x20\n        /* \"contracts/bbk/USDTTO.sol\":3625:3677  require(amount > 0, \"Amount must be greater than 0\") */\n      0x04\n      dup3\n      add\n        /* \"#utility.yul\":6763:6784   */\n      mstore\n        /* \"#utility.yul\":6820:6822   */\n      0x1d\n        /* \"#utility.yul\":6800:6818   */\n      0x24\n      dup3\n      add\n        /* \"#utility.yul\":6793:6823   */\n      mstore\n        /* \"#utility.yul\":6859:6890   */\n      0x416d6f756e74206d7573742062652067726561746572207468616e2030000000\n        /* \"#utility.yul\":6839:6857   */\n      0x44\n      dup3\n      add\n        /* \"#utility.yul\":6832:6891   */\n      mstore\n        /* \"#utility.yul\":6908:6926   */\n      0x64\n      add\n        /* \"contracts/bbk/USDTTO.sol\":3625:3677  require(amount > 0, \"Amount must be greater than 0\") */\n      tag_90\n        /* \"#utility.yul\":6579:6932   */\n      jump\n        /* \"contracts/bbk/USDTTO.sol\":3625:3677  require(amount > 0, \"Amount must be greater than 0\") */\n    tag_142:\n        /* \"contracts/bbk/USDTTO.sol\":3760:3773  externalToken */\n      sload(0x07)\n        /* \"contracts/bbk/USDTTO.sol\":3793:3846  token.transferFrom(msg.sender, address(this), amount) */\n      mload(0x40)\n      shl(0xe0, 0x23b872dd)\n      dup2\n      mstore\n        /* \"contracts/bbk/USDTTO.sol\":3812:3822  msg.sender */\n      caller\n        /* \"contracts/bbk/USDTTO.sol\":3793:3846  token.transferFrom(msg.sender, address(this), amount) */\n      0x04\n      dup3\n      add\n        /* \"#utility.yul\":7139:7190   */\n      mstore\n        /* \"contracts/bbk/USDTTO.sol\":3832:3836  this */\n      address\n        /* \"#utility.yul\":7206:7224   */\n      0x24\n      dup3\n      add\n        /* \"#utility.yul\":7199:7259   */\n      mstore\n        /* \"#utility.yul\":7275:7293   */\n      0x44\n      dup2\n      add\n        /* \"#utility.yul\":7268:7302   */\n      dup5\n      swap1\n      mstore\n      sub(shl(0xa0, 0x01), 0x01)\n        /* \"contracts/bbk/USDTTO.sol\":3760:3773  externalToken */\n      swap1\n      swap2\n      and\n      swap1\n      dup2\n      swap1\n        /* \"contracts/bbk/USDTTO.sol\":3793:3811  token.transferFrom */\n      0x23b872dd\n      swap1\n        /* \"#utility.yul\":7112:7130   */\n      0x64\n      add\n        /* \"contracts/bbk/USDTTO.sol\":3793:3846  token.transferFrom(msg.sender, address(this), amount) */\n      0x20\n      mload(0x40)\n      dup1\n      dup4\n      sub\n      dup2\n      0x00\n      dup8\n      gas\n      call\n      iszero\n      dup1\n      iszero\n      tag_148\n      jumpi\n      returndatacopy(0x00, 0x00, returndatasize)\n      revert(0x00, returndatasize)\n    tag_148:\n      pop\n      pop\n      pop\n      pop\n      mload(0x40)\n      returndatasize\n      not(0x1f)\n      0x1f\n      dup3\n      add\n      and\n      dup3\n      add\n      dup1\n      0x40\n      mstore\n      pop\n      dup2\n      add\n      swap1\n      tag_149\n      swap2\n      swap1\n      tag_150\n      jump\t// in\n    tag_149:\n        /* \"contracts/bbk/USDTTO.sol\":3785:3881  require(token.transferFrom(msg.sender, address(this), amount), \"External token transfer failed\") */\n      tag_151\n      jumpi\n      mload(0x40)\n      shl(0xe5, 0x461bcd)\n      dup2\n      mstore\n        /* \"#utility.yul\":7797:7799   */\n      0x20\n        /* \"contracts/bbk/USDTTO.sol\":3785:3881  require(token.transferFrom(msg.sender, address(this), amount), \"External token transfer failed\") */\n      0x04\n      dup3\n      add\n        /* \"#utility.yul\":7779:7800   */\n      mstore\n        /* \"#utility.yul\":7836:7838   */\n      0x1e\n        /* \"#utility.yul\":7816:7834   */\n      0x24\n      dup3\n      add\n        /* \"#utility.yul\":7809:7839   */\n      mstore\n        /* \"#utility.yul\":7875:7907   */\n      0x45787465726e616c20746f6b656e207472616e73666572206661696c65640000\n        /* \"#utility.yul\":7855:7873   */\n      0x44\n      dup3\n      add\n        /* \"#utility.yul\":7848:7908   */\n      mstore\n        /* \"#utility.yul\":7925:7943   */\n      0x64\n      add\n        /* \"contracts/bbk/USDTTO.sol\":3785:3881  require(token.transferFrom(msg.sender, address(this), amount), \"External token transfer failed\") */\n      tag_90\n        /* \"#utility.yul\":7595:7949   */\n      jump\n        /* \"contracts/bbk/USDTTO.sol\":3785:3881  require(token.transferFrom(msg.sender, address(this), amount), \"External token transfer failed\") */\n    tag_151:\n        /* \"contracts/bbk/USDTTO.sol\":3965:3971  amount */\n      dup3\n        /* \"contracts/bbk/USDTTO.sol\":4022:4059  _mint(msg.sender, amountWithDecimals) */\n      tag_154\n        /* \"contracts/bbk/USDTTO.sol\":4028:4038  msg.sender */\n      caller\n        /* \"contracts/bbk/USDTTO.sol\":3965:3971  amount */\n      dup3\n        /* \"contracts/bbk/USDTTO.sol\":4022:4027  _mint */\n      tag_105\n        /* \"contracts/bbk/USDTTO.sol\":4022:4059  _mint(msg.sender, amountWithDecimals) */\n      jump\t// in\n    tag_154:\n      pop\n        /* \"contracts/bbk/USDTTO.sol\":4085:4112  Deposit(msg.sender, amount) */\n      mload(0x40)\n        /* \"#utility.yul\":1258:1283   */\n      dup5\n      dup2\n      mstore\n        /* \"contracts/bbk/USDTTO.sol\":4093:4103  msg.sender */\n      caller\n      swap1\n        /* \"contracts/bbk/USDTTO.sol\":4085:4112  Deposit(msg.sender, amount) */\n      0xe1fffcc4923d04b559f4d29a8bfc6cda04eb5b0d3c460751c2402c5c5cc9109c\n      swap1\n        /* \"#utility.yul\":1246:1248   */\n      0x20\n        /* \"#utility.yul\":1231:1249   */\n      add\n        /* \"contracts/bbk/USDTTO.sol\":4085:4112  Deposit(msg.sender, amount) */\n      mload(0x40)\n      dup1\n      swap2\n      sub\n      swap1\n      log2\n      pop\n        /* \"contracts/bbk/USDTTO.sol\":4130:4134  true */\n      0x01\n      swap4\n        /* \"contracts/bbk/USDTTO.sol\":3551:4142  function deposit(uint256 amount) public returns (bool success) {... */\n      swap3\n      pop\n      pop\n      pop\n      jump\t// out\n        /* \"contracts/bbk/USDTTO.sol\":2706:3072  function _mint(address to, uint256 amountWithDecimals) internal returns (bool success) {... */\n    tag_105:\n        /* \"contracts/bbk/USDTTO.sol\":2779:2791  bool success */\n      0x00\n      sub(shl(0xa0, 0x01), 0x01)\n        /* \"contracts/bbk/USDTTO.sol\":2812:2828  to != address(0) */\n      dup4\n      and\n        /* \"contracts/bbk/USDTTO.sol\":2804:2848  require(to != address(0), \"Invalid address\") */\n      tag_157\n      jumpi\n      mload(0x40)\n      shl(0xe5, 0x461bcd)\n      dup2\n      mstore\n      0x04\n      add\n      tag_90\n      swap1\n      tag_91\n      jump\t// in\n    tag_157:\n        /* \"contracts/bbk/USDTTO.sol\":2874:2892  amountWithDecimals */\n      dup2\n        /* \"contracts/bbk/USDTTO.sol\":2859:2870  totalSupply */\n      0x03\n      0x00\n        /* \"contracts/bbk/USDTTO.sol\":2859:2892  totalSupply += amountWithDecimals */\n      dup3\n      dup3\n      sload\n      tag_159\n      swap2\n      swap1\n      tag_101\n      jump\t// in\n    tag_159:\n      swap1\n      swap2\n      sstore\n      pop\n      pop\n      sub(shl(0xa0, 0x01), 0x01)\n        /* \"contracts/bbk/USDTTO.sol\":2903:2916  balanceOf[to] */\n      dup4\n      and\n      0x00\n      swap1\n      dup2\n      mstore\n        /* \"contracts/bbk/USDTTO.sol\":2903:2912  balanceOf */\n      0x04\n        /* \"contracts/bbk/USDTTO.sol\":2903:2916  balanceOf[to] */\n      0x20\n      mstore\n      0x40\n      dup2\n      keccak256\n        /* \"contracts/bbk/USDTTO.sol\":2903:2938  balanceOf[to] += amountWithDecimals */\n      dup1\n      sload\n        /* \"contracts/bbk/USDTTO.sol\":2920:2938  amountWithDecimals */\n      dup5\n      swap3\n        /* \"contracts/bbk/USDTTO.sol\":2903:2916  balanceOf[to] */\n      swap1\n        /* \"contracts/bbk/USDTTO.sol\":2903:2938  balanceOf[to] += amountWithDecimals */\n      tag_160\n      swap1\n        /* \"contracts/bbk/USDTTO.sol\":2920:2938  amountWithDecimals */\n      dup5\n      swap1\n        /* \"contracts/bbk/USDTTO.sol\":2903:2938  balanceOf[to] += amountWithDecimals */\n      tag_101\n      jump\t// in\n    tag_160:\n      swap1\n      swap2\n      sstore\n      pop\n      pop\n        /* \"contracts/bbk/USDTTO.sol\":2954:2982  Mint(to, amountWithDecimals) */\n      mload(0x40)\n        /* \"#utility.yul\":1258:1283   */\n      dup3\n      dup2\n      mstore\n      sub(shl(0xa0, 0x01), 0x01)\n        /* \"contracts/bbk/USDTTO.sol\":2954:2982  Mint(to, amountWithDecimals) */\n      dup5\n      and\n      swap1\n      0x0f6798a560793a54c3bcfe86a93cde1e73087d944c0ea20544137d4121396885\n      swap1\n        /* \"#utility.yul\":1246:1248   */\n      0x20\n        /* \"#utility.yul\":1231:1249   */\n      add\n        /* \"contracts/bbk/USDTTO.sol\":2954:2982  Mint(to, amountWithDecimals) */\n      mload(0x40)\n      dup1\n      swap2\n      sub\n      swap1\n      log2\n        /* \"contracts/bbk/USDTTO.sol\":2998:3042  Transfer(address(0), to, amountWithDecimals) */\n      mload(0x40)\n        /* \"#utility.yul\":1258:1283   */\n      dup3\n      dup2\n      mstore\n      sub(shl(0xa0, 0x01), 0x01)\n        /* \"contracts/bbk/USDTTO.sol\":2998:3042  Transfer(address(0), to, amountWithDecimals) */\n      dup5\n      and\n      swap1\n        /* \"contracts/bbk/USDTTO.sol\":3015:3016  0 */\n      0x00\n      swap1\n      mload(0x00)\n      codecopy(0x00, data_ada389e1fc24a8587c776340efb91b36e675792ab631816100d55df0b5cf3cbc, 0x20)\n      mload(0x00)\n      swap1\n      0x00\n      mstore\n        /* \"contracts/bbk/USDTTO.sol\":2998:3042  Transfer(address(0), to, amountWithDecimals) */\n      swap1\n        /* \"#utility.yul\":1246:1248   */\n      0x20\n        /* \"#utility.yul\":1231:1249   */\n      add\n        /* \"contracts/bbk/USDTTO.sol\":2998:3042  Transfer(address(0), to, amountWithDecimals) */\n      tag_87\n        /* \"#utility.yul\":1112:1289   */\n      jump\n        /* \"#utility.yul\":14:432   */\n    tag_23:\n        /* \"#utility.yul\":163:165   */\n      0x20\n        /* \"#utility.yul\":152:161   */\n      dup2\n        /* \"#utility.yul\":145:166   */\n      mstore\n        /* \"#utility.yul\":126:130   */\n      0x00\n        /* \"#utility.yul\":195:201   */\n      dup3\n        /* \"#utility.yul\":189:202   */\n      mload\n        /* \"#utility.yul\":238:244   */\n      dup1\n        /* \"#utility.yul\":233:235   */\n      0x20\n        /* \"#utility.yul\":222:231   */\n      dup5\n        /* \"#utility.yul\":218:236   */\n      add\n        /* \"#utility.yul\":211:245   */\n      mstore\n        /* \"#utility.yul\":297:303   */\n      dup1\n        /* \"#utility.yul\":292:294   */\n      0x20\n        /* \"#utility.yul\":284:290   */\n      dup6\n        /* \"#utility.yul\":280:295   */\n      add\n        /* \"#utility.yul\":275:277   */\n      0x40\n        /* \"#utility.yul\":264:273   */\n      dup6\n        /* \"#utility.yul\":260:278   */\n      add\n        /* \"#utility.yul\":254:304   */\n      mcopy\n        /* \"#utility.yul\":353:354   */\n      0x00\n        /* \"#utility.yul\":348:350   */\n      0x40\n        /* \"#utility.yul\":339:345   */\n      dup3\n        /* \"#utility.yul\":328:337   */\n      dup6\n        /* \"#utility.yul\":324:346   */\n      add\n        /* \"#utility.yul\":320:351   */\n      add\n        /* \"#utility.yul\":313:355   */\n      mstore\n        /* \"#utility.yul\":423:425   */\n      0x40\n        /* \"#utility.yul\":416:418   */\n      0x1f\n        /* \"#utility.yul\":412:419   */\n      not\n        /* \"#utility.yul\":407:409   */\n      0x1f\n        /* \"#utility.yul\":399:405   */\n      dup4\n        /* \"#utility.yul\":395:410   */\n      add\n        /* \"#utility.yul\":391:420   */\n      and\n        /* \"#utility.yul\":380:389   */\n      dup5\n        /* \"#utility.yul\":376:421   */\n      add\n        /* \"#utility.yul\":372:426   */\n      add\n        /* \"#utility.yul\":364:426   */\n      swap2\n      pop\n      pop\n        /* \"#utility.yul\":14:432   */\n      swap3\n      swap2\n      pop\n      pop\n      jump\t// out\n        /* \"#utility.yul\":437:610   */\n    tag_163:\n        /* \"#utility.yul\":505:525   */\n      dup1\n      calldataload\n      sub(shl(0xa0, 0x01), 0x01)\n        /* \"#utility.yul\":554:585   */\n      dup2\n      and\n        /* \"#utility.yul\":544:586   */\n      dup2\n      eq\n        /* \"#utility.yul\":534:604   */\n      tag_170\n      jumpi\n        /* \"#utility.yul\":600:601   */\n      0x00\n        /* \"#utility.yul\":597:598   */\n      0x00\n        /* \"#utility.yul\":590:602   */\n      revert\n        /* \"#utility.yul\":534:604   */\n    tag_170:\n        /* \"#utility.yul\":437:610   */\n      swap2\n      swap1\n      pop\n      jump\t// out\n        /* \"#utility.yul\":615:915   */\n    tag_26:\n        /* \"#utility.yul\":683:689   */\n      0x00\n        /* \"#utility.yul\":691:697   */\n      0x00\n        /* \"#utility.yul\":744:746   */\n      0x40\n        /* \"#utility.yul\":732:741   */\n      dup4\n        /* \"#utility.yul\":723:730   */\n      dup6\n        /* \"#utility.yul\":719:742   */\n      sub\n        /* \"#utility.yul\":715:747   */\n      slt\n        /* \"#utility.yul\":712:764   */\n      iszero\n      tag_172\n      jumpi\n        /* \"#utility.yul\":760:761   */\n      0x00\n        /* \"#utility.yul\":757:758   */\n      0x00\n        /* \"#utility.yul\":750:762   */\n      revert\n        /* \"#utility.yul\":712:764   */\n    tag_172:\n        /* \"#utility.yul\":783:812   */\n      tag_173\n        /* \"#utility.yul\":802:811   */\n      dup4\n        /* \"#utility.yul\":783:812   */\n      tag_163\n      jump\t// in\n    tag_173:\n        /* \"#utility.yul\":773:812   */\n      swap5\n        /* \"#utility.yul\":881:883   */\n      0x20\n        /* \"#utility.yul\":866:884   */\n      swap4\n      swap1\n      swap4\n      add\n        /* \"#utility.yul\":853:885   */\n      calldataload\n      swap4\n      pop\n      pop\n      pop\n        /* \"#utility.yul\":615:915   */\n      jump\t// out\n        /* \"#utility.yul\":1294:1668   */\n    tag_36:\n        /* \"#utility.yul\":1371:1377   */\n      0x00\n        /* \"#utility.yul\":1379:1385   */\n      0x00\n        /* \"#utility.yul\":1387:1393   */\n      0x00\n        /* \"#utility.yul\":1440:1442   */\n      0x60\n        /* \"#utility.yul\":1428:1437   */\n      dup5\n        /* \"#utility.yul\":1419:1426   */\n      dup7\n        /* \"#utility.yul\":1415:1438   */\n      sub\n        /* \"#utility.yul\":1411:1443   */\n      slt\n        /* \"#utility.yul\":1408:1460   */\n      iszero\n      tag_177\n      jumpi\n        /* \"#utility.yul\":1456:1457   */\n      0x00\n        /* \"#utility.yul\":1453:1454   */\n      0x00\n        /* \"#utility.yul\":1446:1458   */\n      revert\n        /* \"#utility.yul\":1408:1460   */\n    tag_177:\n        /* \"#utility.yul\":1479:1508   */\n      tag_178\n        /* \"#utility.yul\":1498:1507   */\n      dup5\n        /* \"#utility.yul\":1479:1508   */\n      tag_163\n      jump\t// in\n    tag_178:\n        /* \"#utility.yul\":1469:1508   */\n      swap3\n      pop\n        /* \"#utility.yul\":1527:1565   */\n      tag_179\n        /* \"#utility.yul\":1561:1563   */\n      0x20\n        /* \"#utility.yul\":1550:1559   */\n      dup6\n        /* \"#utility.yul\":1546:1564   */\n      add\n        /* \"#utility.yul\":1527:1565   */\n      tag_163\n      jump\t// in\n    tag_179:\n        /* \"#utility.yul\":1294:1668   */\n      swap3\n      swap6\n        /* \"#utility.yul\":1517:1565   */\n      swap3\n      swap5\n      pop\n      pop\n      pop\n        /* \"#utility.yul\":1634:1636   */\n      0x40\n        /* \"#utility.yul\":1619:1637   */\n      swap2\n      swap1\n      swap2\n      add\n        /* \"#utility.yul\":1606:1638   */\n      calldataload\n      swap1\n        /* \"#utility.yul\":1294:1668   */\n      jump\t// out\n        /* \"#utility.yul\":1862:2088   */\n    tag_49:\n        /* \"#utility.yul\":1921:1927   */\n      0x00\n        /* \"#utility.yul\":1974:1976   */\n      0x20\n        /* \"#utility.yul\":1962:1971   */\n      dup3\n        /* \"#utility.yul\":1953:1960   */\n      dup5\n        /* \"#utility.yul\":1949:1972   */\n      sub\n        /* \"#utility.yul\":1945:1977   */\n      slt\n        /* \"#utility.yul\":1942:1994   */\n      iszero\n      tag_182\n      jumpi\n        /* \"#utility.yul\":1990:1991   */\n      0x00\n        /* \"#utility.yul\":1987:1988   */\n      0x00\n        /* \"#utility.yul\":1980:1992   */\n      revert\n        /* \"#utility.yul\":1942:1994   */\n    tag_182:\n      pop\n        /* \"#utility.yul\":2035:2058   */\n      calldataload\n      swap2\n        /* \"#utility.yul\":1862:2088   */\n      swap1\n      pop\n      jump\t// out\n        /* \"#utility.yul\":2093:2279   */\n    tag_54:\n        /* \"#utility.yul\":2152:2158   */\n      0x00\n        /* \"#utility.yul\":2205:2207   */\n      0x20\n        /* \"#utility.yul\":2193:2202   */\n      dup3\n        /* \"#utility.yul\":2184:2191   */\n      dup5\n        /* \"#utility.yul\":2180:2203   */\n      sub\n        /* \"#utility.yul\":2176:2208   */\n      slt\n        /* \"#utility.yul\":2173:2225   */\n      iszero\n      tag_184\n      jumpi\n        /* \"#utility.yul\":2221:2222   */\n      0x00\n        /* \"#utility.yul\":2218:2219   */\n      0x00\n        /* \"#utility.yul\":2211:2223   */\n      revert\n        /* \"#utility.yul\":2173:2225   */\n    tag_184:\n        /* \"#utility.yul\":2244:2273   */\n      tag_112\n        /* \"#utility.yul\":2263:2272   */\n      dup3\n        /* \"#utility.yul\":2244:2273   */\n      tag_163\n      jump\t// in\n        /* \"#utility.yul\":2492:2752   */\n    tag_77:\n        /* \"#utility.yul\":2560:2566   */\n      0x00\n        /* \"#utility.yul\":2568:2574   */\n      0x00\n        /* \"#utility.yul\":2621:2623   */\n      0x40\n        /* \"#utility.yul\":2609:2618   */\n      dup4\n        /* \"#utility.yul\":2600:2607   */\n      dup6\n        /* \"#utility.yul\":2596:2619   */\n      sub\n        /* \"#utility.yul\":2592:2624   */\n      slt\n        /* \"#utility.yul\":2589:2641   */\n      iszero\n      tag_188\n      jumpi\n        /* \"#utility.yul\":2637:2638   */\n      0x00\n        /* \"#utility.yul\":2634:2635   */\n      0x00\n        /* \"#utility.yul\":2627:2639   */\n      revert\n        /* \"#utility.yul\":2589:2641   */\n    tag_188:\n        /* \"#utility.yul\":2660:2689   */\n      tag_189\n        /* \"#utility.yul\":2679:2688   */\n      dup4\n        /* \"#utility.yul\":2660:2689   */\n      tag_163\n      jump\t// in\n    tag_189:\n        /* \"#utility.yul\":2650:2689   */\n      swap2\n      pop\n        /* \"#utility.yul\":2708:2746   */\n      tag_190\n        /* \"#utility.yul\":2742:2744   */\n      0x20\n        /* \"#utility.yul\":2731:2740   */\n      dup5\n        /* \"#utility.yul\":2727:2745   */\n      add\n        /* \"#utility.yul\":2708:2746   */\n      tag_163\n      jump\t// in\n    tag_190:\n        /* \"#utility.yul\":2698:2746   */\n      swap1\n      pop\n        /* \"#utility.yul\":2492:2752   */\n      swap3\n      pop\n      swap3\n      swap1\n      pop\n      jump\t// out\n        /* \"#utility.yul\":2757:3137   */\n    tag_81:\n        /* \"#utility.yul\":2836:2837   */\n      0x01\n        /* \"#utility.yul\":2832:2844   */\n      dup2\n      dup2\n      shr\n      swap1\n        /* \"#utility.yul\":2879:2891   */\n      dup3\n      and\n      dup1\n        /* \"#utility.yul\":2900:2961   */\n      tag_192\n      jumpi\n        /* \"#utility.yul\":2954:2958   */\n      0x7f\n        /* \"#utility.yul\":2946:2952   */\n      dup3\n        /* \"#utility.yul\":2942:2959   */\n      and\n        /* \"#utility.yul\":2932:2959   */\n      swap2\n      pop\n        /* \"#utility.yul\":2900:2961   */\n    tag_192:\n        /* \"#utility.yul\":3007:3009   */\n      0x20\n        /* \"#utility.yul\":2999:3005   */\n      dup3\n        /* \"#utility.yul\":2996:3010   */\n      lt\n        /* \"#utility.yul\":2976:2994   */\n      dup2\n        /* \"#utility.yul\":2973:3011   */\n      sub\n        /* \"#utility.yul\":2970:3131   */\n      tag_193\n      jumpi\n        /* \"#utility.yul\":3053:3063   */\n      0x4e487b71\n        /* \"#utility.yul\":3048:3051   */\n      0xe0\n        /* \"#utility.yul\":3044:3064   */\n      shl\n        /* \"#utility.yul\":3041:3042   */\n      0x00\n        /* \"#utility.yul\":3034:3065   */\n      mstore\n        /* \"#utility.yul\":3088:3092   */\n      0x22\n        /* \"#utility.yul\":3085:3086   */\n      0x04\n        /* \"#utility.yul\":3078:3093   */\n      mstore\n        /* \"#utility.yul\":3116:3120   */\n      0x24\n        /* \"#utility.yul\":3113:3114   */\n      0x00\n        /* \"#utility.yul\":3106:3121   */\n      revert\n        /* \"#utility.yul\":2970:3131   */\n    tag_193:\n      pop\n        /* \"#utility.yul\":2757:3137   */\n      swap2\n      swap1\n      pop\n      jump\t// out\n        /* \"#utility.yul\":3142:3481   */\n    tag_91:\n        /* \"#utility.yul\":3344:3346   */\n      0x20\n        /* \"#utility.yul\":3326:3347   */\n      dup1\n      dup3\n      mstore\n        /* \"#utility.yul\":3383:3385   */\n      0x0f\n        /* \"#utility.yul\":3363:3381   */\n      swap1\n      dup3\n      add\n        /* \"#utility.yul\":3356:3386   */\n      mstore\n      shl(0x88, 0x496e76616c69642061646472657373)\n        /* \"#utility.yul\":3417:3419   */\n      0x40\n        /* \"#utility.yul\":3402:3420   */\n      dup3\n      add\n        /* \"#utility.yul\":3395:3440   */\n      mstore\n        /* \"#utility.yul\":3472:3474   */\n      0x60\n        /* \"#utility.yul\":3457:3475   */\n      add\n      swap1\n        /* \"#utility.yul\":3142:3481   */\n      jump\t// out\n        /* \"#utility.yul\":3486:3830   */\n    tag_94:\n        /* \"#utility.yul\":3688:3690   */\n      0x20\n        /* \"#utility.yul\":3670:3691   */\n      dup1\n      dup3\n      mstore\n        /* \"#utility.yul\":3727:3729   */\n      0x14\n        /* \"#utility.yul\":3707:3725   */\n      swap1\n      dup3\n      add\n        /* \"#utility.yul\":3700:3730   */\n      mstore\n      shl(0x60, 0x496e73756666696369656e742062616c616e6365)\n        /* \"#utility.yul\":3761:3763   */\n      0x40\n        /* \"#utility.yul\":3746:3764   */\n      dup3\n      add\n        /* \"#utility.yul\":3739:3789   */\n      mstore\n        /* \"#utility.yul\":3821:3823   */\n      0x60\n        /* \"#utility.yul\":3806:3824   */\n      add\n      swap1\n        /* \"#utility.yul\":3486:3830   */\n      jump\t// out\n        /* \"#utility.yul\":4186:4313   */\n    tag_164:\n        /* \"#utility.yul\":4247:4257   */\n      0x4e487b71\n        /* \"#utility.yul\":4242:4245   */\n      0xe0\n        /* \"#utility.yul\":4238:4258   */\n      shl\n        /* \"#utility.yul\":4235:4236   */\n      0x00\n        /* \"#utility.yul\":4228:4259   */\n      mstore\n        /* \"#utility.yul\":4278:4282   */\n      0x11\n        /* \"#utility.yul\":4275:4276   */\n      0x04\n        /* \"#utility.yul\":4268:4283   */\n      mstore\n        /* \"#utility.yul\":4302:4306   */\n      0x24\n        /* \"#utility.yul\":4299:4300   */\n      0x00\n        /* \"#utility.yul\":4292:4307   */\n      revert\n        /* \"#utility.yul\":4318:4446   */\n    tag_99:\n        /* \"#utility.yul\":4385:4394   */\n      dup2\n      dup2\n      sub\n        /* \"#utility.yul\":4406:4417   */\n      dup2\n      dup2\n      gt\n        /* \"#utility.yul\":4403:4440   */\n      iszero\n      tag_86\n      jumpi\n        /* \"#utility.yul\":4420:4438   */\n      tag_86\n      tag_164\n      jump\t// in\n        /* \"#utility.yul\":4451:4576   */\n    tag_101:\n        /* \"#utility.yul\":4516:4525   */\n      dup1\n      dup3\n      add\n        /* \"#utility.yul\":4537:4547   */\n      dup1\n      dup3\n      gt\n        /* \"#utility.yul\":4534:4570   */\n      iszero\n      tag_86\n      jumpi\n        /* \"#utility.yul\":4550:4568   */\n      tag_86\n      tag_164\n      jump\t// in\n        /* \"#utility.yul\":4983:5358   */\n    tag_165:\n        /* \"#utility.yul\":5071:5072   */\n      0x01\n        /* \"#utility.yul\":5089:5094   */\n      dup2\n        /* \"#utility.yul\":5103:5352   */\n    tag_206:\n        /* \"#utility.yul\":5124:5125   */\n      0x01\n        /* \"#utility.yul\":5114:5122   */\n      dup5\n        /* \"#utility.yul\":5111:5126   */\n      gt\n        /* \"#utility.yul\":5103:5352   */\n      iszero\n      tag_208\n      jumpi\n        /* \"#utility.yul\":5174:5178   */\n      dup1\n        /* \"#utility.yul\":5169:5172   */\n      dup6\n        /* \"#utility.yul\":5165:5179   */\n      div\n        /* \"#utility.yul\":5159:5163   */\n      dup2\n        /* \"#utility.yul\":5156:5180   */\n      gt\n        /* \"#utility.yul\":5153:5203   */\n      iszero\n      tag_210\n      jumpi\n        /* \"#utility.yul\":5183:5201   */\n      tag_210\n      tag_164\n      jump\t// in\n    tag_210:\n        /* \"#utility.yul\":5233:5234   */\n      0x01\n        /* \"#utility.yul\":5223:5231   */\n      dup5\n        /* \"#utility.yul\":5219:5235   */\n      and\n        /* \"#utility.yul\":5216:5265   */\n      iszero\n      tag_211\n      jumpi\n        /* \"#utility.yul\":5247:5263   */\n      swap1\n      dup2\n      mul\n      swap1\n        /* \"#utility.yul\":5216:5265   */\n    tag_211:\n        /* \"#utility.yul\":5330:5331   */\n      0x01\n        /* \"#utility.yul\":5326:5342   */\n      swap4\n      swap1\n      swap4\n      shr\n      swap3\n        /* \"#utility.yul\":5286:5301   */\n      dup1\n      mul\n        /* \"#utility.yul\":5103:5352   */\n      jump(tag_206)\n    tag_208:\n        /* \"#utility.yul\":4983:5358   */\n      swap4\n      pop\n      swap4\n      swap2\n      pop\n      pop\n      jump\t// out\n        /* \"#utility.yul\":5363:6265   */\n    tag_166:\n        /* \"#utility.yul\":5412:5417   */\n      0x00\n        /* \"#utility.yul\":5442:5450   */\n      dup3\n        /* \"#utility.yul\":5432:5512   */\n      tag_213\n      jumpi\n      pop\n        /* \"#utility.yul\":5483:5484   */\n      0x01\n        /* \"#utility.yul\":5497:5502   */\n      jump(tag_86)\n        /* \"#utility.yul\":5432:5512   */\n    tag_213:\n        /* \"#utility.yul\":5531:5535   */\n      dup2\n        /* \"#utility.yul\":5521:5597   */\n      tag_214\n      jumpi\n      pop\n        /* \"#utility.yul\":5568:5569   */\n      0x00\n        /* \"#utility.yul\":5582:5587   */\n      jump(tag_86)\n        /* \"#utility.yul\":5521:5597   */\n    tag_214:\n        /* \"#utility.yul\":5613:5617   */\n      dup2\n        /* \"#utility.yul\":5631:5632   */\n      0x01\n        /* \"#utility.yul\":5626:5685   */\n      dup2\n      eq\n      tag_216\n      jumpi\n        /* \"#utility.yul\":5699:5700   */\n      0x02\n        /* \"#utility.yul\":5694:5868   */\n      dup2\n      eq\n      tag_217\n      jumpi\n        /* \"#utility.yul\":5606:5868   */\n      jump(tag_215)\n        /* \"#utility.yul\":5626:5685   */\n    tag_216:\n        /* \"#utility.yul\":5656:5657   */\n      0x01\n        /* \"#utility.yul\":5647:5657   */\n      swap2\n      pop\n        /* \"#utility.yul\":5670:5675   */\n      pop\n      jump(tag_86)\n        /* \"#utility.yul\":5694:5868   */\n    tag_217:\n        /* \"#utility.yul\":5731:5734   */\n      0xff\n        /* \"#utility.yul\":5721:5729   */\n      dup5\n        /* \"#utility.yul\":5718:5735   */\n      gt\n        /* \"#utility.yul\":5715:5758   */\n      iszero\n      tag_219\n      jumpi\n        /* \"#utility.yul\":5738:5756   */\n      tag_219\n      tag_164\n      jump\t// in\n    tag_219:\n      pop\n      pop\n        /* \"#utility.yul\":5794:5795   */\n      0x01\n        /* \"#utility.yul\":5780:5796   */\n      dup3\n      shl\n        /* \"#utility.yul\":5853:5858   */\n      jump(tag_86)\n        /* \"#utility.yul\":5606:5868   */\n    tag_215:\n      pop\n        /* \"#utility.yul\":5952:5954   */\n      0x20\n        /* \"#utility.yul\":5942:5950   */\n      dup4\n        /* \"#utility.yul\":5939:5955   */\n      lt\n        /* \"#utility.yul\":5933:5936   */\n      0x0133\n        /* \"#utility.yul\":5927:5931   */\n      dup4\n        /* \"#utility.yul\":5924:5937   */\n      lt\n        /* \"#utility.yul\":5920:5956   */\n      and\n        /* \"#utility.yul\":5914:5916   */\n      0x4e\n        /* \"#utility.yul\":5904:5912   */\n      dup5\n        /* \"#utility.yul\":5901:5917   */\n      lt\n        /* \"#utility.yul\":5896:5898   */\n      0x0b\n        /* \"#utility.yul\":5890:5894   */\n      dup5\n        /* \"#utility.yul\":5887:5899   */\n      lt\n        /* \"#utility.yul\":5883:5918   */\n      and\n        /* \"#utility.yul\":5880:5957   */\n      or\n        /* \"#utility.yul\":5877:6080   */\n      iszero\n      tag_220\n      jumpi\n      pop\n        /* \"#utility.yul\":5989:6008   */\n      dup2\n      dup2\n      exp\n        /* \"#utility.yul\":6065:6070   */\n      jump(tag_86)\n        /* \"#utility.yul\":5877:6080   */\n    tag_220:\n        /* \"#utility.yul\":6112:6154   */\n      tag_221\n      not(0x00)\n        /* \"#utility.yul\":6137:6145   */\n      dup5\n        /* \"#utility.yul\":6131:6135   */\n      dup5\n        /* \"#utility.yul\":6112:6154   */\n      tag_165\n      jump\t// in\n    tag_221:\n        /* \"#utility.yul\":6190:6196   */\n      dup1\n        /* \"#utility.yul\":6186:6187   */\n      0x00\n        /* \"#utility.yul\":6182:6188   */\n      not\n        /* \"#utility.yul\":6178:6197   */\n      div\n        /* \"#utility.yul\":6169:6176   */\n      dup3\n        /* \"#utility.yul\":6166:6198   */\n      gt\n        /* \"#utility.yul\":6163:6221   */\n      iszero\n      tag_223\n      jumpi\n        /* \"#utility.yul\":6201:6219   */\n      tag_223\n      tag_164\n      jump\t// in\n    tag_223:\n        /* \"#utility.yul\":6239:6259   */\n      mul\n      swap4\n        /* \"#utility.yul\":5363:6265   */\n      swap3\n      pop\n      pop\n      pop\n      jump\t// out\n        /* \"#utility.yul\":6270:6401   */\n    tag_114:\n        /* \"#utility.yul\":6330:6335   */\n      0x00\n        /* \"#utility.yul\":6359:6395   */\n      tag_112\n        /* \"#utility.yul\":6386:6394   */\n      dup4\n        /* \"#utility.yul\":6380:6384   */\n      dup4\n        /* \"#utility.yul\":6359:6395   */\n      tag_166\n      jump\t// in\n        /* \"#utility.yul\":6406:6574   */\n    tag_116:\n        /* \"#utility.yul\":6479:6488   */\n      dup1\n      dup3\n      mul\n        /* \"#utility.yul\":6510:6519   */\n      dup2\n      iszero\n        /* \"#utility.yul\":6527:6542   */\n      dup3\n      dup3\n      div\n        /* \"#utility.yul\":6521:6543   */\n      dup5\n      eq\n        /* \"#utility.yul\":6507:6544   */\n      or\n        /* \"#utility.yul\":6497:6568   */\n      tag_86\n      jumpi\n        /* \"#utility.yul\":6548:6566   */\n      tag_86\n      tag_164\n      jump\t// in\n        /* \"#utility.yul\":7313:7590   */\n    tag_150:\n        /* \"#utility.yul\":7380:7386   */\n      0x00\n        /* \"#utility.yul\":7433:7435   */\n      0x20\n        /* \"#utility.yul\":7421:7430   */\n      dup3\n        /* \"#utility.yul\":7412:7419   */\n      dup5\n        /* \"#utility.yul\":7408:7431   */\n      sub\n        /* \"#utility.yul\":7404:7436   */\n      slt\n        /* \"#utility.yul\":7401:7453   */\n      iszero\n      tag_232\n      jumpi\n        /* \"#utility.yul\":7449:7450   */\n      0x00\n        /* \"#utility.yul\":7446:7447   */\n      0x00\n        /* \"#utility.yul\":7439:7451   */\n      revert\n        /* \"#utility.yul\":7401:7453   */\n    tag_232:\n        /* \"#utility.yul\":7481:7490   */\n      dup2\n        /* \"#utility.yul\":7475:7491   */\n      mload\n        /* \"#utility.yul\":7534:7539   */\n      dup1\n        /* \"#utility.yul\":7527:7540   */\n      iszero\n        /* \"#utility.yul\":7520:7541   */\n      iszero\n        /* \"#utility.yul\":7513:7518   */\n      dup2\n        /* \"#utility.yul\":7510:7542   */\n      eq\n        /* \"#utility.yul\":7500:7560   */\n      tag_112\n      jumpi\n        /* \"#utility.yul\":7556:7557   */\n      0x00\n        /* \"#utility.yul\":7553:7554   */\n      0x00\n        /* \"#utility.yul\":7546:7558   */\n      revert\n    stop\n    data_ada389e1fc24a8587c776340efb91b36e675792ab631816100d55df0b5cf3cbc ddf252ad1be2c89b69c2b068fc378daa952ba7f163c4a11628f55a4df523b3ef\n\n    auxdata: 0xa26469706673582212209f867585074682703a836ca1ca74d6a5399b26144cca7cdc0468e185834e232e64736f6c634300081e0033\n}\n",
				"bytecode": {
					"linkReferences": {},
					"object": "60c0604052600e60809081526d26b4b73a30b13632902a37b5b2b760911b60a0525f9061002c90826101ce565b506040805180820190915260038152624d544b60e81b602082015260019061005490826101ce565b506002805460ff19166012179055600780546001600160a01b03191673f752bca3378d95e6bfaa603a76bd9a0cae776268179055348015610093575f5ffd5b506040516110c73803806110c78339810160408190526100b291610288565b600680546001600160a01b031916331790556002546100d59060ff16600a610398565b6100df90826103aa565b6003819055335f81815260046020526040908190208390555190917f0f6798a560793a54c3bcfe86a93cde1e73087d944c0ea20544137d41213968859161012891815260200190565b60405180910390a2506103c1565b634e487b7160e01b5f52604160045260245ffd5b600181811c9082168061015e57607f821691505b60208210810361017c57634e487b7160e01b5f52602260045260245ffd5b50919050565b601f8211156101c957805f5260205f20601f840160051c810160208510156101a75750805b601f840160051c820191505b818110156101c6575f81556001016101b3565b50505b505050565b81516001600160401b038111156101e7576101e7610136565b6101fb816101f5845461014a565b84610182565b6020601f82116001811461022d575f83156102165750848201515b5f19600385901b1c1916600184901b1784556101c6565b5f84815260208120601f198516915b8281101561025c578785015182556020948501946001909201910161023c565b508482101561027957868401515f19600387901b60f8161c191681555b50505050600190811b01905550565b5f60208284031215610298575f5ffd5b5051919050565b634e487b7160e01b5f52601160045260245ffd5b6001815b60018411156102ee578085048111156102d2576102d261029f565b60018416156102e057908102905b60019390931c9280026102b7565b935093915050565b5f8261030457506001610392565b8161031057505f610392565b816001811461032657600281146103305761034c565b6001915050610392565b60ff8411156103415761034161029f565b50506001821b610392565b5060208310610133831016604e8410600b841016171561036f575081810a610392565b61037b5f1984846102b3565b805f190482111561038e5761038e61029f565b0290505b92915050565b5f6103a383836102f6565b9392505050565b80820281158282048414176103925761039261029f565b610cf9806103ce5f395ff3fe608060405234801561000f575f5ffd5b50600436106100e5575f3560e01c806370a0823111610088578063a9059cbb11610063578063a9059cbb146101eb578063b6b55f25146101fe578063c9828ae014610211578063dd62ed3e14610224575f5ffd5b806370a08231146101995780638da5cb5b146101b857806395d89b41146101e3575f5ffd5b806323b872dd116100c357806323b872dd14610141578063313ce5671461015457806340c10f191461017357806342966c6814610186575f5ffd5b806306fdde03146100e9578063095ea7b31461010757806318160ddd1461012a575b5f5ffd5b6100f161024e565b6040516100fe91906109a3565b60405180910390f35b61011a6101153660046109f3565b6102d9565b60405190151581526020016100fe565b61013360035481565b6040519081526020016100fe565b61011a61014f366004610a1b565b610345565b6002546101619060ff1681565b60405160ff90911681526020016100fe565b61011a6101813660046109f3565b610506565b61011a610194366004610a55565b610599565b6101336101a7366004610a6c565b60046020525f908152604090205481565b6006546101cb906001600160a01b031681565b6040516001600160a01b0390911681526020016100fe565b6100f161067a565b61011a6101f93660046109f3565b610687565b61011a61020c366004610a55565b610771565b6007546101cb906001600160a01b031681565b610133610232366004610a85565b600560209081525f928352604080842090915290825290205481565b5f805461025a90610ab6565b80601f016020809104026020016040519081016040528092919081815260200182805461028690610ab6565b80156102d15780601f106102a8576101008083540402835291602001916102d1565b820191905f5260205f20905b8154815290600101906020018083116102b457829003601f168201915b505050505081565b335f8181526005602090815260408083206001600160a01b038716808552925280832085905551919290917f8c5be1e5ebec7d5bd14f71427d1e84f3dd0314c0f7b2291e5b200ac8c7c3b925906103339086815260200190565b60405180910390a35060015b92915050565b5f6001600160a01b0383166103755760405162461bcd60e51b815260040161036c90610aee565b60405180910390fd5b6001600160a01b0384165f908152600460205260409020548211156103ac5760405162461bcd60e51b815260040161036c90610b17565b6001600160a01b0384165f9081526005602090815260408083203384529091529020548211156104175760405162461bcd60e51b8152602060048201526016602482015275496e73756666696369656e7420616c6c6f77616e636560501b604482015260640161036c565b6001600160a01b0384165f908152600460205260408120805484929061043e908490610b59565b90915550506001600160a01b0383165f908152600460205260408120805484929061046a908490610b6c565b90915550506001600160a01b0384165f908152600560209081526040808320338452909152812080548492906104a1908490610b59565b9091555050306001600160a01b038416036104c2576104c084836108d2565b505b826001600160a01b0316846001600160a01b03165f516020610ca45f395f51905f52846040516104f491815260200190565b60405180910390a35060019392505050565b6006545f906001600160a01b0316331461056c5760405162461bcd60e51b815260206004820152602160248201527f4f6e6c79206f776e65722063616e2063616c6c20746869732066756e6374696f6044820152603760f91b606482015260840161036c565b6002546105929084906105839060ff16600a610c62565b61058d9085610c6d565b6108d2565b9392505050565b335f908152600460205260408120548211156105c75760405162461bcd60e51b815260040161036c90610b17565b6002545f906105da9060ff16600a610c62565b6105e49084610c6d565b335f90815260046020526040812080549293508392909190610607908490610b59565b925050819055508060035f82825461061f9190610b59565b909155505060405181815233907fcc16f5dbb4873280815c1ee09dbd06736cffcc184412cf7a71a0fdb75d397ca59060200160405180910390a26040518181525f9033905f516020610ca45f395f51905f5290602001610333565b6001805461025a90610ab6565b5f6001600160a01b0383166106ae5760405162461bcd60e51b815260040161036c90610aee565b335f908152600460205260409020548211156106dc5760405162461bcd60e51b815260040161036c90610b17565b335f90815260046020526040812080548492906106fa908490610b59565b90915550506001600160a01b0383165f9081526004602052604081208054849290610726908490610b6c565b9091555050306001600160a01b038416036107475761074533836108d2565b505b6040518281526001600160a01b0384169033905f516020610ca45f395f51905f5290602001610333565b5f5f82116107c15760405162461bcd60e51b815260206004820152601d60248201527f416d6f756e74206d7573742062652067726561746572207468616e2030000000604482015260640161036c565b6007546040516323b872dd60e01b8152336004820152306024820152604481018490526001600160a01b039091169081906323b872dd906064016020604051808303815f875af1158015610817573d5f5f3e3d5ffd5b505050506040513d601f19601f8201168201806040525081019061083b9190610c84565b6108875760405162461bcd60e51b815260206004820152601e60248201527f45787465726e616c20746f6b656e207472616e73666572206661696c65640000604482015260640161036c565b8261089233826108d2565b5060405184815233907fe1fffcc4923d04b559f4d29a8bfc6cda04eb5b0d3c460751c2402c5c5cc9109c9060200160405180910390a25060019392505050565b5f6001600160a01b0383166108f95760405162461bcd60e51b815260040161036c90610aee565b8160035f82825461090a9190610b6c565b90915550506001600160a01b0383165f9081526004602052604081208054849290610936908490610b6c565b90915550506040518281526001600160a01b038416907f0f6798a560793a54c3bcfe86a93cde1e73087d944c0ea20544137d41213968859060200160405180910390a26040518281526001600160a01b038416905f905f516020610ca45f395f51905f5290602001610333565b602081525f82518060208401528060208501604085015e5f604082850101526040601f19601f83011684010191505092915050565b80356001600160a01b03811681146109ee575f5ffd5b919050565b5f5f60408385031215610a04575f5ffd5b610a0d836109d8565b946020939093013593505050565b5f5f5f60608486031215610a2d575f5ffd5b610a36846109d8565b9250610a44602085016109d8565b929592945050506040919091013590565b5f60208284031215610a65575f5ffd5b5035919050565b5f60208284031215610a7c575f5ffd5b610592826109d8565b5f5f60408385031215610a96575f5ffd5b610a9f836109d8565b9150610aad602084016109d8565b90509250929050565b600181811c90821680610aca57607f821691505b602082108103610ae857634e487b7160e01b5f52602260045260245ffd5b50919050565b6020808252600f908201526e496e76616c6964206164647265737360881b604082015260600190565b602080825260149082015273496e73756666696369656e742062616c616e636560601b604082015260600190565b634e487b7160e01b5f52601160045260245ffd5b8181038181111561033f5761033f610b45565b8082018082111561033f5761033f610b45565b6001815b6001841115610bba57808504811115610b9e57610b9e610b45565b6001841615610bac57908102905b60019390931c928002610b83565b935093915050565b5f82610bd05750600161033f565b81610bdc57505f61033f565b8160018114610bf25760028114610bfc57610c18565b600191505061033f565b60ff841115610c0d57610c0d610b45565b50506001821b61033f565b5060208310610133831016604e8410600b8410161715610c3b575081810a61033f565b610c475f198484610b7f565b805f1904821115610c5a57610c5a610b45565b029392505050565b5f6105928383610bc2565b808202811582820484141761033f5761033f610b45565b5f60208284031215610c94575f5ffd5b81518015158114610592575f5ffdfeddf252ad1be2c89b69c2b068fc378daa952ba7f163c4a11628f55a4df523b3efa26469706673582212209f867585074682703a836ca1ca74d6a5399b26144cca7cdc0468e185834e232e64736f6c634300081e0033",
					"opcodes": "PUSH1 0xC0 PUSH1 0x40 MSTORE PUSH1 0xE PUSH1 0x80 SWAP1 DUP2 MSTORE PUSH14 0x26B4B73A30B13632902A37B5B2B7 PUSH1 0x91 SHL PUSH1 0xA0 MSTORE PUSH0 SWAP1 PUSH2 0x2C SWAP1 DUP3 PUSH2 0x1CE JUMP JUMPDEST POP PUSH1 0x40 DUP1 MLOAD DUP1 DUP3 ADD SWAP1 SWAP2 MSTORE PUSH1 0x3 DUP2 MSTORE PUSH3 0x4D544B PUSH1 0xE8 SHL PUSH1 0x20 DUP3 ADD MSTORE PUSH1 0x1 SWAP1 PUSH2 0x54 SWAP1 DUP3 PUSH2 0x1CE JUMP JUMPDEST POP PUSH1 0x2 DUP1 SLOAD PUSH1 0xFF NOT AND PUSH1 0x12 OR SWAP1 SSTORE PUSH1 0x7 DUP1 SLOAD PUSH1 0x1 PUSH1 0x1 PUSH1 0xA0 SHL SUB NOT AND PUSH20 0xF752BCA3378D95E6BFAA603A76BD9A0CAE776268 OR SWAP1 SSTORE CALLVALUE DUP1 ISZERO PUSH2 0x93 JUMPI PUSH0 PUSH0 REVERT JUMPDEST POP PUSH1 0x40 MLOAD PUSH2 0x10C7 CODESIZE SUB DUP1 PUSH2 0x10C7 DUP4 CODECOPY DUP2 ADD PUSH1 0x40 DUP2 SWAP1 MSTORE PUSH2 0xB2 SWAP2 PUSH2 0x288 JUMP JUMPDEST PUSH1 0x6 DUP1 SLOAD PUSH1 0x1 PUSH1 0x1 PUSH1 0xA0 SHL SUB NOT AND CALLER OR SWAP1 SSTORE PUSH1 0x2 SLOAD PUSH2 0xD5 SWAP1 PUSH1 0xFF AND PUSH1 0xA PUSH2 0x398 JUMP JUMPDEST PUSH2 0xDF SWAP1 DUP3 PUSH2 0x3AA JUMP JUMPDEST PUSH1 0x3 DUP2 SWAP1 SSTORE CALLER PUSH0 DUP2 DUP2 MSTORE PUSH1 0x4 PUSH1 0x20 MSTORE PUSH1 0x40 SWAP1 DUP2 SWAP1 KECCAK256 DUP4 SWAP1 SSTORE MLOAD SWAP1 SWAP2 PUSH32 0xF6798A560793A54C3BCFE86A93CDE1E73087D944C0EA20544137D4121396885 SWAP2 PUSH2 0x128 SWAP2 DUP2 MSTORE PUSH1 0x20 ADD SWAP1 JUMP JUMPDEST PUSH1 0x40 MLOAD DUP1 SWAP2 SUB SWAP1 LOG2 POP PUSH2 0x3C1 JUMP JUMPDEST PUSH4 0x4E487B71 PUSH1 0xE0 SHL PUSH0 MSTORE PUSH1 0x41 PUSH1 0x4 MSTORE PUSH1 0x24 PUSH0 REVERT JUMPDEST PUSH1 0x1 DUP2 DUP2 SHR SWAP1 DUP3 AND DUP1 PUSH2 0x15E JUMPI PUSH1 0x7F DUP3 AND SWAP2 POP JUMPDEST PUSH1 0x20 DUP3 LT DUP2 SUB PUSH2 0x17C JUMPI PUSH4 0x4E487B71 PUSH1 0xE0 SHL PUSH0 MSTORE PUSH1 0x22 PUSH1 0x4 MSTORE PUSH1 0x24 PUSH0 REVERT JUMPDEST POP SWAP2 SWAP1 POP JUMP JUMPDEST PUSH1 0x1F DUP3 GT ISZERO PUSH2 0x1C9 JUMPI DUP1 PUSH0 MSTORE PUSH1 0x20 PUSH0 KECCAK256 PUSH1 0x1F DUP5 ADD PUSH1 0x5 SHR DUP2 ADD PUSH1 0x20 DUP6 LT ISZERO PUSH2 0x1A7 JUMPI POP DUP1 JUMPDEST PUSH1 0x1F DUP5 ADD PUSH1 0x5 SHR DUP3 ADD SWAP2 POP JUMPDEST DUP2 DUP2 LT ISZERO PUSH2 0x1C6 JUMPI PUSH0 DUP2 SSTORE PUSH1 0x1 ADD PUSH2 0x1B3 JUMP JUMPDEST POP POP JUMPDEST POP POP POP JUMP JUMPDEST DUP2 MLOAD PUSH1 0x1 PUSH1 0x1 PUSH1 0x40 SHL SUB DUP2 GT ISZERO PUSH2 0x1E7 JUMPI PUSH2 0x1E7 PUSH2 0x136 JUMP JUMPDEST PUSH2 0x1FB DUP2 PUSH2 0x1F5 DUP5 SLOAD PUSH2 0x14A JUMP JUMPDEST DUP5 PUSH2 0x182 JUMP JUMPDEST PUSH1 0x20 PUSH1 0x1F DUP3 GT PUSH1 0x1 DUP2 EQ PUSH2 0x22D JUMPI PUSH0 DUP4 ISZERO PUSH2 0x216 JUMPI POP DUP5 DUP3 ADD MLOAD JUMPDEST PUSH0 NOT PUSH1 0x3 DUP6 SWAP1 SHL SHR NOT AND PUSH1 0x1 DUP5 SWAP1 SHL OR DUP5 SSTORE PUSH2 0x1C6 JUMP JUMPDEST PUSH0 DUP5 DUP2 MSTORE PUSH1 0x20 DUP2 KECCAK256 PUSH1 0x1F NOT DUP6 AND SWAP2 JUMPDEST DUP3 DUP2 LT ISZERO PUSH2 0x25C JUMPI DUP8 DUP6 ADD MLOAD DUP3 SSTORE PUSH1 0x20 SWAP5 DUP6 ADD SWAP5 PUSH1 0x1 SWAP1 SWAP3 ADD SWAP2 ADD PUSH2 0x23C JUMP JUMPDEST POP DUP5 DUP3 LT ISZERO PUSH2 0x279 JUMPI DUP7 DUP5 ADD MLOAD PUSH0 NOT PUSH1 0x3 DUP8 SWAP1 SHL PUSH1 0xF8 AND SHR NOT AND DUP2 SSTORE JUMPDEST POP POP POP POP PUSH1 0x1 SWAP1 DUP2 SHL ADD SWAP1 SSTORE POP JUMP JUMPDEST PUSH0 PUSH1 0x20 DUP3 DUP5 SUB SLT ISZERO PUSH2 0x298 JUMPI PUSH0 PUSH0 REVERT JUMPDEST POP MLOAD SWAP2 SWAP1 POP JUMP JUMPDEST PUSH4 0x4E487B71 PUSH1 0xE0 SHL PUSH0 MSTORE PUSH1 0x11 PUSH1 0x4 MSTORE PUSH1 0x24 PUSH0 REVERT JUMPDEST PUSH1 0x1 DUP2 JUMPDEST PUSH1 0x1 DUP5 GT ISZERO PUSH2 0x2EE JUMPI DUP1 DUP6 DIV DUP2 GT ISZERO PUSH2 0x2D2 JUMPI PUSH2 0x2D2 PUSH2 0x29F JUMP JUMPDEST PUSH1 0x1 DUP5 AND ISZERO PUSH2 0x2E0 JUMPI SWAP1 DUP2 MUL SWAP1 JUMPDEST PUSH1 0x1 SWAP4 SWAP1 SWAP4 SHR SWAP3 DUP1 MUL PUSH2 0x2B7 JUMP JUMPDEST SWAP4 POP SWAP4 SWAP2 POP POP JUMP JUMPDEST PUSH0 DUP3 PUSH2 0x304 JUMPI POP PUSH1 0x1 PUSH2 0x392 JUMP JUMPDEST DUP2 PUSH2 0x310 JUMPI POP PUSH0 PUSH2 0x392 JUMP JUMPDEST DUP2 PUSH1 0x1 DUP2 EQ PUSH2 0x326 JUMPI PUSH1 0x2 DUP2 EQ PUSH2 0x330 JUMPI PUSH2 0x34C JUMP JUMPDEST PUSH1 0x1 SWAP2 POP POP PUSH2 0x392 JUMP JUMPDEST PUSH1 0xFF DUP5 GT ISZERO PUSH2 0x341 JUMPI PUSH2 0x341 PUSH2 0x29F JUMP JUMPDEST POP POP PUSH1 0x1 DUP3 SHL PUSH2 0x392 JUMP JUMPDEST POP PUSH1 0x20 DUP4 LT PUSH2 0x133 DUP4 LT AND PUSH1 0x4E DUP5 LT PUSH1 0xB DUP5 LT AND OR ISZERO PUSH2 0x36F JUMPI POP DUP2 DUP2 EXP PUSH2 0x392 JUMP JUMPDEST PUSH2 0x37B PUSH0 NOT DUP5 DUP5 PUSH2 0x2B3 JUMP JUMPDEST DUP1 PUSH0 NOT DIV DUP3 GT ISZERO PUSH2 0x38E JUMPI PUSH2 0x38E PUSH2 0x29F JUMP JUMPDEST MUL SWAP1 POP JUMPDEST SWAP3 SWAP2 POP POP JUMP JUMPDEST PUSH0 PUSH2 0x3A3 DUP4 DUP4 PUSH2 0x2F6 JUMP JUMPDEST SWAP4 SWAP3 POP POP POP JUMP JUMPDEST DUP1 DUP3 MUL DUP2 ISZERO DUP3 DUP3 DIV DUP5 EQ OR PUSH2 0x392 JUMPI PUSH2 0x392 PUSH2 0x29F JUMP JUMPDEST PUSH2 0xCF9 DUP1 PUSH2 0x3CE PUSH0 CODECOPY PUSH0 RETURN INVALID PUSH1 0x80 PUSH1 0x40 MSTORE CALLVALUE DUP1 ISZERO PUSH2 0xF JUMPI PUSH0 PUSH0 REVERT JUMPDEST POP PUSH1 0x4 CALLDATASIZE LT PUSH2 0xE5 JUMPI PUSH0 CALLDATALOAD PUSH1 0xE0 SHR DUP1 PUSH4 0x70A08231 GT PUSH2 0x88 JUMPI DUP1 PUSH4 0xA9059CBB GT PUSH2 0x63 JUMPI DUP1 PUSH4 0xA9059CBB EQ PUSH2 0x1EB JUMPI DUP1 PUSH4 0xB6B55F25 EQ PUSH2 0x1FE JUMPI DUP1 PUSH4 0xC9828AE0 EQ PUSH2 0x211 JUMPI DUP1 PUSH4 0xDD62ED3E EQ PUSH2 0x224 JUMPI PUSH0 PUSH0 REVERT JUMPDEST DUP1 PUSH4 0x70A08231 EQ PUSH2 0x199 JUMPI DUP1 PUSH4 0x8DA5CB5B EQ PUSH2 0x1B8 JUMPI DUP1 PUSH4 0x95D89B41 EQ PUSH2 0x1E3 JUMPI PUSH0 PUSH0 REVERT JUMPDEST DUP1 PUSH4 0x23B872DD GT PUSH2 0xC3 JUMPI DUP1 PUSH4 0x23B872DD EQ PUSH2 0x141 JUMPI DUP1 PUSH4 0x313CE567 EQ PUSH2 0x154 JUMPI DUP1 PUSH4 0x40C10F19 EQ PUSH2 0x173 JUMPI DUP1 PUSH4 0x42966C68 EQ PUSH2 0x186 JUMPI PUSH0 PUSH0 REVERT JUMPDEST DUP1 PUSH4 0x6FDDE03 EQ PUSH2 0xE9 JUMPI DUP1 PUSH4 0x95EA7B3 EQ PUSH2 0x107 JUMPI DUP1 PUSH4 0x18160DDD EQ PUSH2 0x12A JUMPI JUMPDEST PUSH0 PUSH0 REVERT JUMPDEST PUSH2 0xF1 PUSH2 0x24E JUMP JUMPDEST PUSH1 0x40 MLOAD PUSH2 0xFE SWAP2 SWAP1 PUSH2 0x9A3 JUMP JUMPDEST PUSH1 0x40 MLOAD DUP1 SWAP2 SUB SWAP1 RETURN JUMPDEST PUSH2 0x11A PUSH2 0x115 CALLDATASIZE PUSH1 0x4 PUSH2 0x9F3 JUMP JUMPDEST PUSH2 0x2D9 JUMP JUMPDEST PUSH1 0x40 MLOAD SWAP1 ISZERO ISZERO DUP2 MSTORE PUSH1 0x20 ADD PUSH2 0xFE JUMP JUMPDEST PUSH2 0x133 PUSH1 0x3 SLOAD DUP2 JUMP JUMPDEST PUSH1 0x40 MLOAD SWAP1 DUP2 MSTORE PUSH1 0x20 ADD PUSH2 0xFE JUMP JUMPDEST PUSH2 0x11A PUSH2 0x14F CALLDATASIZE PUSH1 0x4 PUSH2 0xA1B JUMP JUMPDEST PUSH2 0x345 JUMP JUMPDEST PUSH1 0x2 SLOAD PUSH2 0x161 SWAP1 PUSH1 0xFF AND DUP2 JUMP JUMPDEST PUSH1 0x40 MLOAD PUSH1 0xFF SWAP1 SWAP2 AND DUP2 MSTORE PUSH1 0x20 ADD PUSH2 0xFE JUMP JUMPDEST PUSH2 0x11A PUSH2 0x181 CALLDATASIZE PUSH1 0x4 PUSH2 0x9F3 JUMP JUMPDEST PUSH2 0x506 JUMP JUMPDEST PUSH2 0x11A PUSH2 0x194 CALLDATASIZE PUSH1 0x4 PUSH2 0xA55 JUMP JUMPDEST PUSH2 0x599 JUMP JUMPDEST PUSH2 0x133 PUSH2 0x1A7 CALLDATASIZE PUSH1 0x4 PUSH2 0xA6C JUMP JUMPDEST PUSH1 0x4 PUSH1 0x20 MSTORE PUSH0 SWAP1 DUP2 MSTORE PUSH1 0x40 SWAP1 KECCAK256 SLOAD DUP2 JUMP JUMPDEST PUSH1 0x6 SLOAD PUSH2 0x1CB SWAP1 PUSH1 0x1 PUSH1 0x1 PUSH1 0xA0 SHL SUB AND DUP2 JUMP JUMPDEST PUSH1 0x40 MLOAD PUSH1 0x1 PUSH1 0x1 PUSH1 0xA0 SHL SUB SWAP1 SWAP2 AND DUP2 MSTORE PUSH1 0x20 ADD PUSH2 0xFE JUMP JUMPDEST PUSH2 0xF1 PUSH2 0x67A JUMP JUMPDEST PUSH2 0x11A PUSH2 0x1F9 CALLDATASIZE PUSH1 0x4 PUSH2 0x9F3 JUMP JUMPDEST PUSH2 0x687 JUMP JUMPDEST PUSH2 0x11A PUSH2 0x20C CALLDATASIZE PUSH1 0x4 PUSH2 0xA55 JUMP JUMPDEST PUSH2 0x771 JUMP JUMPDEST PUSH1 0x7 SLOAD PUSH2 0x1CB SWAP1 PUSH1 0x1 PUSH1 0x1 PUSH1 0xA0 SHL SUB AND DUP2 JUMP JUMPDEST PUSH2 0x133 PUSH2 0x232 CALLDATASIZE PUSH1 0x4 PUSH2 0xA85 JUMP JUMPDEST PUSH1 0x5 PUSH1 0x20 SWAP1 DUP2 MSTORE PUSH0 SWAP3 DUP4 MSTORE PUSH1 0x40 DUP1 DUP5 KECCAK256 SWAP1 SWAP2 MSTORE SWAP1 DUP3 MSTORE SWAP1 KECCAK256 SLOAD DUP2 JUMP JUMPDEST PUSH0 DUP1 SLOAD PUSH2 0x25A SWAP1 PUSH2 0xAB6 JUMP JUMPDEST DUP1 PUSH1 0x1F ADD PUSH1 0x20 DUP1 SWAP2 DIV MUL PUSH1 0x20 ADD PUSH1 0x40 MLOAD SWAP1 DUP2 ADD PUSH1 0x40 MSTORE DUP1 SWAP3 SWAP2 SWAP1 DUP2 DUP2 MSTORE PUSH1 0x20 ADD DUP3 DUP1 SLOAD PUSH2 0x286 SWAP1 PUSH2 0xAB6 JUMP JUMPDEST DUP1 ISZERO PUSH2 0x2D1 JUMPI DUP1 PUSH1 0x1F LT PUSH2 0x2A8 JUMPI PUSH2 0x100 DUP1 DUP4 SLOAD DIV MUL DUP4 MSTORE SWAP2 PUSH1 0x20 ADD SWAP2 PUSH2 0x2D1 JUMP JUMPDEST DUP3 ADD SWAP2 SWAP1 PUSH0 MSTORE PUSH1 0x20 PUSH0 KECCAK256 SWAP1 JUMPDEST DUP2 SLOAD DUP2 MSTORE SWAP1 PUSH1 0x1 ADD SWAP1 PUSH1 0x20 ADD DUP1 DUP4 GT PUSH2 0x2B4 JUMPI DUP3 SWAP1 SUB PUSH1 0x1F AND DUP3 ADD SWAP2 JUMPDEST POP POP POP POP POP DUP2 JUMP JUMPDEST CALLER PUSH0 DUP2 DUP2 MSTORE PUSH1 0x5 PUSH1 0x20 SWAP1 DUP2 MSTORE PUSH1 0x40 DUP1 DUP4 KECCAK256 PUSH1 0x1 PUSH1 0x1 PUSH1 0xA0 SHL SUB DUP8 AND DUP1 DUP6 MSTORE SWAP3 MSTORE DUP1 DUP4 KECCAK256 DUP6 SWAP1 SSTORE MLOAD SWAP2 SWAP3 SWAP1 SWAP2 PUSH32 0x8C5BE1E5EBEC7D5BD14F71427D1E84F3DD0314C0F7B2291E5B200AC8C7C3B925 SWAP1 PUSH2 0x333 SWAP1 DUP7 DUP2 MSTORE PUSH1 0x20 ADD SWAP1 JUMP JUMPDEST PUSH1 0x40 MLOAD DUP1 SWAP2 SUB SWAP1 LOG3 POP PUSH1 0x1 JUMPDEST SWAP3 SWAP2 POP POP JUMP JUMPDEST PUSH0 PUSH1 0x1 PUSH1 0x1 PUSH1 0xA0 SHL SUB DUP4 AND PUSH2 0x375 JUMPI PUSH1 0x40 MLOAD PUSH3 0x461BCD PUSH1 0xE5 SHL DUP2 MSTORE PUSH1 0x4 ADD PUSH2 0x36C SWAP1 PUSH2 0xAEE JUMP JUMPDEST PUSH1 0x40 MLOAD DUP1 SWAP2 SUB SWAP1 REVERT JUMPDEST PUSH1 0x1 PUSH1 0x1 PUSH1 0xA0 SHL SUB DUP5 AND PUSH0 SWAP1 DUP2 MSTORE PUSH1 0x4 PUSH1 0x20 MSTORE PUSH1 0x40 SWAP1 KECCAK256 SLOAD DUP3 GT ISZERO PUSH2 0x3AC JUMPI PUSH1 0x40 MLOAD PUSH3 0x461BCD PUSH1 0xE5 SHL DUP2 MSTORE PUSH1 0x4 ADD PUSH2 0x36C SWAP1 PUSH2 0xB17 JUMP JUMPDEST PUSH1 0x1 PUSH1 0x1 PUSH1 0xA0 SHL SUB DUP5 AND PUSH0 SWAP1 DUP2 MSTORE PUSH1 0x5 PUSH1 0x20 SWAP1 DUP2 MSTORE PUSH1 0x40 DUP1 DUP4 KECCAK256 CALLER DUP5 MSTORE SWAP1 SWAP2 MSTORE SWAP1 KECCAK256 SLOAD DUP3 GT ISZERO PUSH2 0x417 JUMPI PUSH1 0x40 MLOAD PUSH3 0x461BCD PUSH1 0xE5 SHL DUP2 MSTORE PUSH1 0x20 PUSH1 0x4 DUP3 ADD MSTORE PUSH1 0x16 PUSH1 0x24 DUP3 ADD MSTORE PUSH22 0x496E73756666696369656E7420616C6C6F77616E6365 PUSH1 0x50 SHL PUSH1 0x44 DUP3 ADD MSTORE PUSH1 0x64 ADD PUSH2 0x36C JUMP JUMPDEST PUSH1 0x1 PUSH1 0x1 PUSH1 0xA0 SHL SUB DUP5 AND PUSH0 SWAP1 DUP2 MSTORE PUSH1 0x4 PUSH1 0x20 MSTORE PUSH1 0x40 DUP2 KECCAK256 DUP1 SLOAD DUP5 SWAP3 SWAP1 PUSH2 0x43E SWAP1 DUP5 SWAP1 PUSH2 0xB59 JUMP JUMPDEST SWAP1 SWAP2 SSTORE POP POP PUSH1 0x1 PUSH1 0x1 PUSH1 0xA0 SHL SUB DUP4 AND PUSH0 SWAP1 DUP2 MSTORE PUSH1 0x4 PUSH1 0x20 MSTORE PUSH1 0x40 DUP2 KECCAK256 DUP1 SLOAD DUP5 SWAP3 SWAP1 PUSH2 0x46A SWAP1 DUP5 SWAP1 PUSH2 0xB6C JUMP JUMPDEST SWAP1 SWAP2 SSTORE POP POP PUSH1 0x1 PUSH1 0x1 PUSH1 0xA0 SHL SUB DUP5 AND PUSH0 SWAP1 DUP2 MSTORE PUSH1 0x5 PUSH1 0x20 SWAP1 DUP2 MSTORE PUSH1 0x40 DUP1 DUP4 KECCAK256 CALLER DUP5 MSTORE SWAP1 SWAP2 MSTORE DUP2 KECCAK256 DUP1 SLOAD DUP5 SWAP3 SWAP1 PUSH2 0x4A1 SWAP1 DUP5 SWAP1 PUSH2 0xB59 JUMP JUMPDEST SWAP1 SWAP2 SSTORE POP POP ADDRESS PUSH1 0x1 PUSH1 0x1 PUSH1 0xA0 SHL SUB DUP5 AND SUB PUSH2 0x4C2 JUMPI PUSH2 0x4C0 DUP5 DUP4 PUSH2 0x8D2 JUMP JUMPDEST POP JUMPDEST DUP3 PUSH1 0x1 PUSH1 0x1 PUSH1 0xA0 SHL SUB AND DUP5 PUSH1 0x1 PUSH1 0x1 PUSH1 0xA0 SHL SUB AND PUSH0 MLOAD PUSH1 0x20 PUSH2 0xCA4 PUSH0 CODECOPY PUSH0 MLOAD SWAP1 PUSH0 MSTORE DUP5 PUSH1 0x40 MLOAD PUSH2 0x4F4 SWAP2 DUP2 MSTORE PUSH1 0x20 ADD SWAP1 JUMP JUMPDEST PUSH1 0x40 MLOAD DUP1 SWAP2 SUB SWAP1 LOG3 POP PUSH1 0x1 SWAP4 SWAP3 POP POP POP JUMP JUMPDEST PUSH1 0x6 SLOAD PUSH0 SWAP1 PUSH1 0x1 PUSH1 0x1 PUSH1 0xA0 SHL SUB AND CALLER EQ PUSH2 0x56C JUMPI PUSH1 0x40 MLOAD PUSH3 0x461BCD PUSH1 0xE5 SHL DUP2 MSTORE PUSH1 0x20 PUSH1 0x4 DUP3 ADD MSTORE PUSH1 0x21 PUSH1 0x24 DUP3 ADD MSTORE PUSH32 0x4F6E6C79206F776E65722063616E2063616C6C20746869732066756E6374696F PUSH1 0x44 DUP3 ADD MSTORE PUSH1 0x37 PUSH1 0xF9 SHL PUSH1 0x64 DUP3 ADD MSTORE PUSH1 0x84 ADD PUSH2 0x36C JUMP JUMPDEST PUSH1 0x2 SLOAD PUSH2 0x592 SWAP1 DUP5 SWAP1 PUSH2 0x583 SWAP1 PUSH1 0xFF AND PUSH1 0xA PUSH2 0xC62 JUMP JUMPDEST PUSH2 0x58D SWAP1 DUP6 PUSH2 0xC6D JUMP JUMPDEST PUSH2 0x8D2 JUMP JUMPDEST SWAP4 SWAP3 POP POP POP JUMP JUMPDEST CALLER PUSH0 SWAP1 DUP2 MSTORE PUSH1 0x4 PUSH1 0x20 MSTORE PUSH1 0x40 DUP2 KECCAK256 SLOAD DUP3 GT ISZERO PUSH2 0x5C7 JUMPI PUSH1 0x40 MLOAD PUSH3 0x461BCD PUSH1 0xE5 SHL DUP2 MSTORE PUSH1 0x4 ADD PUSH2 0x36C SWAP1 PUSH2 0xB17 JUMP JUMPDEST PUSH1 0x2 SLOAD PUSH0 SWAP1 PUSH2 0x5DA SWAP1 PUSH1 0xFF AND PUSH1 0xA PUSH2 0xC62 JUMP JUMPDEST PUSH2 0x5E4 SWAP1 DUP5 PUSH2 0xC6D JUMP JUMPDEST CALLER PUSH0 SWAP1 DUP2 MSTORE PUSH1 0x4 PUSH1 0x20 MSTORE PUSH1 0x40 DUP2 KECCAK256 DUP1 SLOAD SWAP3 SWAP4 POP DUP4 SWAP3 SWAP1 SWAP2 SWAP1 PUSH2 0x607 SWAP1 DUP5 SWAP1 PUSH2 0xB59 JUMP JUMPDEST SWAP3 POP POP DUP2 SWAP1 SSTORE POP DUP1 PUSH1 0x3 PUSH0 DUP3 DUP3 SLOAD PUSH2 0x61F SWAP2 SWAP1 PUSH2 0xB59 JUMP JUMPDEST SWAP1 SWAP2 SSTORE POP POP PUSH1 0x40 MLOAD DUP2 DUP2 MSTORE CALLER SWAP1 PUSH32 0xCC16F5DBB4873280815C1EE09DBD06736CFFCC184412CF7A71A0FDB75D397CA5 SWAP1 PUSH1 0x20 ADD PUSH1 0x40 MLOAD DUP1 SWAP2 SUB SWAP1 LOG2 PUSH1 0x40 MLOAD DUP2 DUP2 MSTORE PUSH0 SWAP1 CALLER SWAP1 PUSH0 MLOAD PUSH1 0x20 PUSH2 0xCA4 PUSH0 CODECOPY PUSH0 MLOAD SWAP1 PUSH0 MSTORE SWAP1 PUSH1 0x20 ADD PUSH2 0x333 JUMP JUMPDEST PUSH1 0x1 DUP1 SLOAD PUSH2 0x25A SWAP1 PUSH2 0xAB6 JUMP JUMPDEST PUSH0 PUSH1 0x1 PUSH1 0x1 PUSH1 0xA0 SHL SUB DUP4 AND PUSH2 0x6AE JUMPI PUSH1 0x40 MLOAD PUSH3 0x461BCD PUSH1 0xE5 SHL DUP2 MSTORE PUSH1 0x4 ADD PUSH2 0x36C SWAP1 PUSH2 0xAEE JUMP JUMPDEST CALLER PUSH0 SWAP1 DUP2 MSTORE PUSH1 0x4 PUSH1 0x20 MSTORE PUSH1 0x40 SWAP1 KECCAK256 SLOAD DUP3 GT ISZERO PUSH2 0x6DC JUMPI PUSH1 0x40 MLOAD PUSH3 0x461BCD PUSH1 0xE5 SHL DUP2 MSTORE PUSH1 0x4 ADD PUSH2 0x36C SWAP1 PUSH2 0xB17 JUMP JUMPDEST CALLER PUSH0 SWAP1 DUP2 MSTORE PUSH1 0x4 PUSH1 0x20 MSTORE PUSH1 0x40 DUP2 KECCAK256 DUP1 SLOAD DUP5 SWAP3 SWAP1 PUSH2 0x6FA SWAP1 DUP5 SWAP1 PUSH2 0xB59 JUMP JUMPDEST SWAP1 SWAP2 SSTORE POP POP PUSH1 0x1 PUSH1 0x1 PUSH1 0xA0 SHL SUB DUP4 AND PUSH0 SWAP1 DUP2 MSTORE PUSH1 0x4 PUSH1 0x20 MSTORE PUSH1 0x40 DUP2 KECCAK256 DUP1 SLOAD DUP5 SWAP3 SWAP1 PUSH2 0x726 SWAP1 DUP5 SWAP1 PUSH2 0xB6C JUMP JUMPDEST SWAP1 SWAP2 SSTORE POP POP ADDRESS PUSH1 0x1 PUSH1 0x1 PUSH1 0xA0 SHL SUB DUP5 AND SUB PUSH2 0x747 JUMPI PUSH2 0x745 CALLER DUP4 PUSH2 0x8D2 JUMP JUMPDEST POP JUMPDEST PUSH1 0x40 MLOAD DUP3 DUP2 MSTORE PUSH1 0x1 PUSH1 0x1 PUSH1 0xA0 SHL SUB DUP5 AND SWAP1 CALLER SWAP1 PUSH0 MLOAD PUSH1 0x20 PUSH2 0xCA4 PUSH0 CODECOPY PUSH0 MLOAD SWAP1 PUSH0 MSTORE SWAP1 PUSH1 0x20 ADD PUSH2 0x333 JUMP JUMPDEST PUSH0 PUSH0 DUP3 GT PUSH2 0x7C1 JUMPI PUSH1 0x40 MLOAD PUSH3 0x461BCD PUSH1 0xE5 SHL DUP2 MSTORE PUSH1 0x20 PUSH1 0x4 DUP3 ADD MSTORE PUSH1 0x1D PUSH1 0x24 DUP3 ADD MSTORE PUSH32 0x416D6F756E74206D7573742062652067726561746572207468616E2030000000 PUSH1 0x44 DUP3 ADD MSTORE PUSH1 0x64 ADD PUSH2 0x36C JUMP JUMPDEST PUSH1 0x7 SLOAD PUSH1 0x40 MLOAD PUSH4 0x23B872DD PUSH1 0xE0 SHL DUP2 MSTORE CALLER PUSH1 0x4 DUP3 ADD MSTORE ADDRESS PUSH1 0x24 DUP3 ADD MSTORE PUSH1 0x44 DUP2 ADD DUP5 SWAP1 MSTORE PUSH1 0x1 PUSH1 0x1 PUSH1 0xA0 SHL SUB SWAP1 SWAP2 AND SWAP1 DUP2 SWAP1 PUSH4 0x23B872DD SWAP1 PUSH1 0x64 ADD PUSH1 0x20 PUSH1 0x40 MLOAD DUP1 DUP4 SUB DUP2 PUSH0 DUP8 GAS CALL ISZERO DUP1 ISZERO PUSH2 0x817 JUMPI RETURNDATASIZE PUSH0 PUSH0 RETURNDATACOPY RETURNDATASIZE PUSH0 REVERT JUMPDEST POP POP POP POP PUSH1 0x40 MLOAD RETURNDATASIZE PUSH1 0x1F NOT PUSH1 0x1F DUP3 ADD AND DUP3 ADD DUP1 PUSH1 0x40 MSTORE POP DUP2 ADD SWAP1 PUSH2 0x83B SWAP2 SWAP1 PUSH2 0xC84 JUMP JUMPDEST PUSH2 0x887 JUMPI PUSH1 0x40 MLOAD PUSH3 0x461BCD PUSH1 0xE5 SHL DUP2 MSTORE PUSH1 0x20 PUSH1 0x4 DUP3 ADD MSTORE PUSH1 0x1E PUSH1 0x24 DUP3 ADD MSTORE PUSH32 0x45787465726E616C20746F6B656E207472616E73666572206661696C65640000 PUSH1 0x44 DUP3 ADD MSTORE PUSH1 0x64 ADD PUSH2 0x36C JUMP JUMPDEST DUP3 PUSH2 0x892 CALLER DUP3 PUSH2 0x8D2 JUMP JUMPDEST POP PUSH1 0x40 MLOAD DUP5 DUP2 MSTORE CALLER SWAP1 PUSH32 0xE1FFFCC4923D04B559F4D29A8BFC6CDA04EB5B0D3C460751C2402C5C5CC9109C SWAP1 PUSH1 0x20 ADD PUSH1 0x40 MLOAD DUP1 SWAP2 SUB SWAP1 LOG2 POP PUSH1 0x1 SWAP4 SWAP3 POP POP POP JUMP JUMPDEST PUSH0 PUSH1 0x1 PUSH1 0x1 PUSH1 0xA0 SHL SUB DUP4 AND PUSH2 0x8F9 JUMPI PUSH1 0x40 MLOAD PUSH3 0x461BCD PUSH1 0xE5 SHL DUP2 MSTORE PUSH1 0x4 ADD PUSH2 0x36C SWAP1 PUSH2 0xAEE JUMP JUMPDEST DUP2 PUSH1 0x3 PUSH0 DUP3 DUP3 SLOAD PUSH2 0x90A SWAP2 SWAP1 PUSH2 0xB6C JUMP JUMPDEST SWAP1 SWAP2 SSTORE POP POP PUSH1 0x1 PUSH1 0x1 PUSH1 0xA0 SHL SUB DUP4 AND PUSH0 SWAP1 DUP2 MSTORE PUSH1 0x4 PUSH1 0x20 MSTORE PUSH1 0x40 DUP2 KECCAK256 DUP1 SLOAD DUP5 SWAP3 SWAP1 PUSH2 0x936 SWAP1 DUP5 SWAP1 PUSH2 0xB6C JUMP JUMPDEST SWAP1 SWAP2 SSTORE POP POP PUSH1 0x40 MLOAD DUP3 DUP2 MSTORE PUSH1 0x1 PUSH1 0x1 PUSH1 0xA0 SHL SUB DUP5 AND SWAP1 PUSH32 0xF6798A560793A54C3BCFE86A93CDE1E73087D944C0EA20544137D4121396885 SWAP1 PUSH1 0x20 ADD PUSH1 0x40 MLOAD DUP1 SWAP2 SUB SWAP1 LOG2 PUSH1 0x40 MLOAD DUP3 DUP2 MSTORE PUSH1 0x1 PUSH1 0x1 PUSH1 0xA0 SHL SUB DUP5 AND SWAP1 PUSH0 SWAP1 PUSH0 MLOAD PUSH1 0x20 PUSH2 0xCA4 PUSH0 CODECOPY PUSH0 MLOAD SWAP1 PUSH0 MSTORE SWAP1 PUSH1 0x20 ADD PUSH2 0x333 JUMP JUMPDEST PUSH1 0x20 DUP2 MSTORE PUSH0 DUP3 MLOAD DUP1 PUSH1 0x20 DUP5 ADD MSTORE DUP1 PUSH1 0x20 DUP6 ADD PUSH1 0x40 DUP6 ADD MCOPY PUSH0 PUSH1 0x40 DUP3 DUP6 ADD ADD MSTORE PUSH1 0x40 PUSH1 0x1F NOT PUSH1 0x1F DUP4 ADD AND DUP5 ADD ADD SWAP2 POP POP SWAP3 SWAP2 POP POP JUMP JUMPDEST DUP1 CALLDATALOAD PUSH1 0x1 PUSH1 0x1 PUSH1 0xA0 SHL SUB DUP2 AND DUP2 EQ PUSH2 0x9EE JUMPI PUSH0 PUSH0 REVERT JUMPDEST SWAP2 SWAP1 POP JUMP JUMPDEST PUSH0 PUSH0 PUSH1 0x40 DUP4 DUP6 SUB SLT ISZERO PUSH2 0xA04 JUMPI PUSH0 PUSH0 REVERT JUMPDEST PUSH2 0xA0D DUP4 PUSH2 0x9D8 JUMP JUMPDEST SWAP5 PUSH1 0x20 SWAP4 SWAP1 SWAP4 ADD CALLDATALOAD SWAP4 POP POP POP JUMP JUMPDEST PUSH0 PUSH0 PUSH0 PUSH1 0x60 DUP5 DUP7 SUB SLT ISZERO PUSH2 0xA2D JUMPI PUSH0 PUSH0 REVERT JUMPDEST PUSH2 0xA36 DUP5 PUSH2 0x9D8 JUMP JUMPDEST SWAP3 POP PUSH2 0xA44 PUSH1 0x20 DUP6 ADD PUSH2 0x9D8 JUMP JUMPDEST SWAP3 SWAP6 SWAP3 SWAP5 POP POP POP PUSH1 0x40 SWAP2 SWAP1 SWAP2 ADD CALLDATALOAD SWAP1 JUMP JUMPDEST PUSH0 PUSH1 0x20 DUP3 DUP5 SUB SLT ISZERO PUSH2 0xA65 JUMPI PUSH0 PUSH0 REVERT JUMPDEST POP CALLDATALOAD SWAP2 SWAP1 POP JUMP JUMPDEST PUSH0 PUSH1 0x20 DUP3 DUP5 SUB SLT ISZERO PUSH2 0xA7C JUMPI PUSH0 PUSH0 REVERT JUMPDEST PUSH2 0x592 DUP3 PUSH2 0x9D8 JUMP JUMPDEST PUSH0 PUSH0 PUSH1 0x40 DUP4 DUP6 SUB SLT ISZERO PUSH2 0xA96 JUMPI PUSH0 PUSH0 REVERT JUMPDEST PUSH2 0xA9F DUP4 PUSH2 0x9D8 JUMP JUMPDEST SWAP2 POP PUSH2 0xAAD PUSH1 0x20 DUP5 ADD PUSH2 0x9D8 JUMP JUMPDEST SWAP1 POP SWAP3 POP SWAP3 SWAP1 POP JUMP JUMPDEST PUSH1 0x1 DUP2 DUP2 SHR SWAP1 DUP3 AND DUP1 PUSH2 0xACA JUMPI PUSH1 0x7F DUP3 AND SWAP2 POP JUMPDEST PUSH1 0x20 DUP3 LT DUP2 SUB PUSH2 0xAE8 JUMPI PUSH4 0x4E487B71 PUSH1 0xE0 SHL PUSH0 MSTORE PUSH1 0x22 PUSH1 0x4 MSTORE PUSH1 0x24 PUSH0 REVERT JUMPDEST POP SWAP2 SWAP1 POP JUMP JUMPDEST PUSH1 0x20 DUP1 DUP3 MSTORE PUSH1 0xF SWAP1 DUP3 ADD MSTORE PUSH15 0x496E76616C69642061646472657373 PUSH1 0x88 SHL PUSH1 0x40 DUP3 ADD MSTORE PUSH1 0x60 ADD SWAP1 JUMP JUMPDEST PUSH1 0x20 DUP1 DUP3 MSTORE PUSH1 0x14 SWAP1 DUP3 ADD MSTORE PUSH20 0x496E73756666696369656E742062616C616E6365 PUSH1 0x60 SHL PUSH1 0x40 DUP3 ADD MSTORE PUSH1 0x60 ADD SWAP1 JUMP JUMPDEST PUSH4 0x4E487B71 PUSH1 0xE0 SHL PUSH0 MSTORE PUSH1 0x11 PUSH1 0x4 MSTORE PUSH1 0x24 PUSH0 REVERT JUMPDEST DUP2 DUP2 SUB DUP2 DUP2 GT ISZERO PUSH2 0x33F JUMPI PUSH2 0x33F PUSH2 0xB45 JUMP JUMPDEST DUP1 DUP3 ADD DUP1 DUP3 GT ISZERO PUSH2 0x33F JUMPI PUSH2 0x33F PUSH2 0xB45 JUMP JUMPDEST PUSH1 0x1 DUP2 JUMPDEST PUSH1 0x1 DUP5 GT ISZERO PUSH2 0xBBA JUMPI DUP1 DUP6 DIV DUP2 GT ISZERO PUSH2 0xB9E JUMPI PUSH2 0xB9E PUSH2 0xB45 JUMP JUMPDEST PUSH1 0x1 DUP5 AND ISZERO PUSH2 0xBAC JUMPI SWAP1 DUP2 MUL SWAP1 JUMPDEST PUSH1 0x1 SWAP4 SWAP1 SWAP4 SHR SWAP3 DUP1 MUL PUSH2 0xB83 JUMP JUMPDEST SWAP4 POP SWAP4 SWAP2 POP POP JUMP JUMPDEST PUSH0 DUP3 PUSH2 0xBD0 JUMPI POP PUSH1 0x1 PUSH2 0x33F JUMP JUMPDEST DUP2 PUSH2 0xBDC JUMPI POP PUSH0 PUSH2 0x33F JUMP JUMPDEST DUP2 PUSH1 0x1 DUP2 EQ PUSH2 0xBF2 JUMPI PUSH1 0x2 DUP2 EQ PUSH2 0xBFC JUMPI PUSH2 0xC18 JUMP JUMPDEST PUSH1 0x1 SWAP2 POP POP PUSH2 0x33F JUMP JUMPDEST PUSH1 0xFF DUP5 GT ISZERO PUSH2 0xC0D JUMPI PUSH2 0xC0D PUSH2 0xB45 JUMP JUMPDEST POP POP PUSH1 0x1 DUP3 SHL PUSH2 0x33F JUMP JUMPDEST POP PUSH1 0x20 DUP4 LT PUSH2 0x133 DUP4 LT AND PUSH1 0x4E DUP5 LT PUSH1 0xB DUP5 LT AND OR ISZERO PUSH2 0xC3B JUMPI POP DUP2 DUP2 EXP PUSH2 0x33F JUMP JUMPDEST PUSH2 0xC47 PUSH0 NOT DUP5 DUP5 PUSH2 0xB7F JUMP JUMPDEST DUP1 PUSH0 NOT DIV DUP3 GT ISZERO PUSH2 0xC5A JUMPI PUSH2 0xC5A PUSH2 0xB45 JUMP JUMPDEST MUL SWAP4 SWAP3 POP POP POP JUMP JUMPDEST PUSH0 PUSH2 0x592 DUP4 DUP4 PUSH2 0xBC2 JUMP JUMPDEST DUP1 DUP3 MUL DUP2 ISZERO DUP3 DUP3 DIV DUP5 EQ OR PUSH2 0x33F JUMPI PUSH2 0x33F PUSH2 0xB45 JUMP JUMPDEST PUSH0 PUSH1 0x20 DUP3 DUP5 SUB SLT ISZERO PUSH2 0xC94 JUMPI PUSH0 PUSH0 REVERT JUMPDEST DUP2 MLOAD DUP1 ISZERO ISZERO DUP2 EQ PUSH2 0x592 JUMPI PUSH0 PUSH0 REVERT INVALID 0xDD CALLCODE MSTORE 0xAD SHL 0xE2 0xC8 SWAP12 PUSH10 0xC2B068FC378DAA952BA7 CALL PUSH4 0xC4A11628 CREATE2 GAS 0x4D CREATE2 0x23 0xB3 0xEF LOG2 PUSH5 0x6970667358 0x22 SLT KECCAK256 SWAP16 DUP7 PUSH22 0x85074682703A836CA1CA74D6A5399B26144CCA7CDC04 PUSH9 0xE185834E232E64736F PUSH13 0x634300081E0033000000000000 "
				},
				"gasEstimates": {
					"creation": {
						"codeDepositCost": "664200",
						"executionCost": "infinite",
						"totalCost": "infinite"
					},
					"external": {
						"allowance(address,address)": "infinite",
						"approve(address,uint256)": "24542",
						"balanceOf(address)": "2539",
						"burn(uint256)": "infinite",
						"decimals()": "2357",
						"deposit(uint256)": "infinite",
						"externalToken()": "2402",
						"mint(address,uint256)": "infinite",
						"name()": "infinite",
						"owner()": "2381",
						"symbol()": "infinite",
						"totalSupply()": "2362",
						"transfer(address,uint256)": "infinite",
						"transferFrom(address,address,uint256)": "infinite"
					},
					"internal": {
						"_mint(address,uint256)": "infinite"
					}
				},
				"methodIdentifiers": {
					"allowance(address,address)": "dd62ed3e",
					"approve(address,uint256)": "095ea7b3",
					"balanceOf(address)": "70a08231",
					"burn(uint256)": "42966c68",
					"decimals()": "313ce567",
					"deposit(uint256)": "b6b55f25",
					"externalToken()": "c9828ae0",
					"mint(address,uint256)": "40c10f19",
					"name()": "06fdde03",
					"owner()": "8da5cb5b",
					"symbol()": "95d89b41",
					"totalSupply()": "18160ddd",
					"transfer(address,uint256)": "a9059cbb",
					"transferFrom(address,address,uint256)": "23b872dd"
				}
			},
			"storageLayout": {
				"storage": [
					{
						"astId": 83,
						"contract": "contracts/bbk/USDTTO.sol:MintableToken",
						"label": "name",
						"offset": 0,
						"slot": "0",
						"type": "t_string_storage"
					},
					{
						"astId": 86,
						"contract": "contracts/bbk/USDTTO.sol:MintableToken",
						"label": "symbol",
						"offset": 0,
						"slot": "1",
						"type": "t_string_storage"
					},
					{
						"astId": 89,
						"contract": "contracts/bbk/USDTTO.sol:MintableToken",
						"label": "decimals",
						"offset": 0,
						"slot": "2",
						"type": "t_uint8"
					},
					{
						"astId": 91,
						"contract": "contracts/bbk/USDTTO.sol:MintableToken",
						"label": "totalSupply",
						"offset": 0,
						"slot": "3",
						"type": "t_uint256"
					},
					{
						"astId": 95,
						"contract": "contracts/bbk/USDTTO.sol:MintableToken",
						"label": "balanceOf",
						"offset": 0,
						"slot": "4",
						"type": "t_mapping(t_address,t_uint256)"
					},
					{
						"astId": 101,
						"contract": "contracts/bbk/USDTTO.sol:MintableToken",
						"label": "allowance",
						"offset": 0,
						"slot": "5",
						"type": "t_mapping(t_address,t_mapping(t_address,t_uint256))"
					},
					{
						"astId": 103,
						"contract": "contracts/bbk/USDTTO.sol:MintableToken",
						"label": "owner",
						"offset": 0,
						"slot": "6",
						"type": "t_address"
					},
					{
						"astId": 106,
						"contract": "contracts/bbk/USDTTO.sol:MintableToken",
						"label": "externalToken",
						"offset": 0,
						"slot": "7",
						"type": "t_address"
					}
				],
				"types": {
					"t_address": {
						"encoding": "inplace",
						"label": "address",
						"numberOfBytes": "20"
					},
					"t_mapping(t_address,t_mapping(t_address,t_uint256))": {
						"encoding": "mapping",
						"key": "t_address",
						"label": "mapping(address => mapping(address => uint256))",
						"numberOfBytes": "32",
						"value": "t_mapping(t_address,t_uint256)"
					},
					"t_mapping(t_address,t_uint256)": {
						"encoding": "mapping",
						"key": "t_address",
						"label": "mapping(address => uint256)",
						"numberOfBytes": "32",
						"value": "t_uint256"
					},
					"t_string_storage": {
						"encoding": "bytes",
						"label": "string",
						"numberOfBytes": "32"
					},
					"t_uint256": {
						"encoding": "inplace",
						"label": "uint256",
						"numberOfBytes": "32"
					},
					"t_uint8": {
						"encoding": "inplace",
						"label": "uint8",
						"numberOfBytes": "1"
					}
				}
			},
			"userdoc": {
				"kind": "user",
				"methods": {},
				"version": 1
			}
		}
	}
}