{
	"data": {
		"bytecode": {
			"linkReferences": {},
			"object": "60806040526969e10de76676d080000060075534801561001d575f5ffd5b50604051616b73380380616b73833981810160405281019061003f919061079b565b33836040518060400160405280600281526020017f434300000000000000000000000000000000000000000000000000000000000081525081600390816100869190610a4f565b5080600490816100969190610a4f565b5050505f73ffffffffffffffffffffffffffffffffffffffff168173ffffffffffffffffffffffffffffffffffffffff1603610109575f6040517f1e4fbdf70000000000000000000000000000000000000000000000000000000081526004016101009190610b2d565b60405180910390fd5b6101188161046d60201b60201c565b5060016006819055505f825111610164576040517f08c379a000000000000000000000000000000000000000000000000000000000815260040161015b90610b79565b60405180910390fd5b5f8151116101a7576040517f08c379a000000000000000000000000000000000000000000000000000000000815260040161019e90610b79565b60405180910390fd5b5f5f90505b82518110156102b9575f73ffffffffffffffffffffffffffffffffffffffff168382815181106101df576101de610b97565b5b602002602001015173ffffffffffffffffffffffffffffffffffffffff160361023d576040517f08c379a000000000000000000000000000000000000000000000000000000000815260040161023490610b79565b60405180910390fd5b600160085f85848151811061025557610254610b97565b5b602002602001015173ffffffffffffffffffffffffffffffffffffffff1673ffffffffffffffffffffffffffffffffffffffff1681526020019081526020015f205f6101000a81548160ff02191690831515021790555080806001019150506101ac565b505f5f90505b8151811015610446575f73ffffffffffffffffffffffffffffffffffffffff168282815181106102f2576102f1610b97565b5b602002602001015173ffffffffffffffffffffffffffffffffffffffff1603610350576040517f08c379a000000000000000000000000000000000000000000000000000000000815260040161034790610b79565b60405180910390fd5b6001600c5f84848151811061036857610367610b97565b5b602002602001015173ffffffffffffffffffffffffffffffffffffffff1673ffffffffffffffffffffffffffffffffffffffff1681526020019081526020015f205f6101000a81548160ff021916908315150217905550600e8282815181106103d4576103d3610b97565b5b6020026020010151908060018154018082558091505060019003905f5260205f20015f9091909190916101000a81548173ffffffffffffffffffffffffffffffffffffffff021916908373ffffffffffffffffffffffffffffffffffffffff16021790555080806001019150506102bf565b5082600b90816104569190610a4f565b504260128190555042601381905550505050610bc4565b5f60055f9054906101000a900473ffffffffffffffffffffffffffffffffffffffff1690508160055f6101000a81548173ffffffffffffffffffffffffffffffffffffffff021916908373ffffffffffffffffffffffffffffffffffffffff1602179055508173ffffffffffffffffffffffffffffffffffffffff168173ffffffffffffffffffffffffffffffffffffffff167f8be0079c531659141344cd1fd0a4f28419497f9722a3daafe3b4186f6b6457e060405160405180910390a35050565b5f604051905090565b5f5ffd5b5f5ffd5b5f5ffd5b5f5ffd5b5f601f19601f8301169050919050565b7f4e487b71000000000000000000000000000000000000000000000000000000005f52604160045260245ffd5b61058f82610549565b810181811067ffffffffffffffff821117156105ae576105ad610559565b5b80604052505050565b5f6105c0610530565b90506105cc8282610586565b919050565b5f67ffffffffffffffff8211156105eb576105ea610559565b5b6105f482610549565b9050602081019050919050565b8281835e5f83830152505050565b5f61062161061c846105d1565b6105b7565b90508281526020810184848401111561063d5761063c610545565b5b610648848285610601565b509392505050565b5f82601f83011261066457610663610541565b5b815161067484826020860161060f565b91505092915050565b5f67ffffffffffffffff82111561069757610696610559565b5b602082029050602081019050919050565b5f5ffd5b5f73ffffffffffffffffffffffffffffffffffffffff82169050919050565b5f6106d5826106ac565b9050919050565b6106e5816106cb565b81146106ef575f5ffd5b50565b5f81519050610700816106dc565b92915050565b5f6107186107138461067d565b6105b7565b9050808382526020820190506020840283018581111561073b5761073a6106a8565b5b835b81811015610764578061075088826106f2565b84526020840193505060208101905061073d565b5050509392505050565b5f82601f83011261078257610781610541565b5b8151610792848260208601610706565b91505092915050565b5f5f5f606084860312156107b2576107b1610539565b5b5f84015167ffffffffffffffff8111156107cf576107ce61053d565b5b6107db86828701610650565b935050602084015167ffffffffffffffff8111156107fc576107fb61053d565b5b6108088682870161076e565b925050604084015167ffffffffffffffff8111156108295761082861053d565b5b6108358682870161076e565b9150509250925092565b5f81519050919050565b7f4e487b71000000000000000000000000000000000000000000000000000000005f52602260045260245ffd5b5f600282049050600182168061088d57607f821691505b6020821081036108a05761089f610849565b5b50919050565b5f819050815f5260205f209050919050565b5f6020601f8301049050919050565b5f82821b905092915050565b5f600883026109027fffffffffffffffffffffffffffffffffffffffffffffffffffffffffffffffff826108c7565b61090c86836108c7565b95508019841693508086168417925050509392505050565b5f819050919050565b5f819050919050565b5f61095061094b61094684610924565b61092d565b610924565b9050919050565b5f819050919050565b61096983610936565b61097d61097582610957565b8484546108d3565b825550505050565b5f5f905090565b610994610985565b61099f818484610960565b505050565b5b818110156109c2576109b75f8261098c565b6001810190506109a5565b5050565b601f821115610a07576109d8816108a6565b6109e1846108b8565b810160208510156109f0578190505b610a046109fc856108b8565b8301826109a4565b50505b505050565b5f82821c905092915050565b5f610a275f1984600802610a0c565b1980831691505092915050565b5f610a3f8383610a18565b9150826002028217905092915050565b610a588261083f565b67ffffffffffffffff811115610a7157610a70610559565b5b610a7b8254610876565b610a868282856109c6565b5f60209050601f831160018114610ab7575f8415610aa5578287015190505b610aaf8582610a34565b865550610b16565b601f198416610ac5866108a6565b5f5b82811015610aec57848901518255600182019150602085019450602081019050610ac7565b86831015610b095784890151610b05601f891682610a18565b8355505b6001600288020188555050505b505050505050565b610b27816106cb565b82525050565b5f602082019050610b405f830184610b1e565b92915050565b5f82825260208201905092915050565b50565b5f610b645f83610b46565b9150610b6f82610b56565b5f82019050919050565b5f6020820190508181035f830152610b9081610b59565b9050919050565b7f4e487b71000000000000000000000000000000000000000000000000000000005f52603260045260245ffd5b615fa280610bd15f395ff3fe608060405234801561000f575f5ffd5b506004361061035b575f3560e01c8063715018a6116101d1578063ae66c9ea11610102578063dd62ed3e116100a0578063f2fde38b1161007a578063f2fde38b146109d8578063f36e32cc146109f4578063f3cdcd1e14610a12578063ff8f164f14610a1c5761035b565b8063dd62ed3e1461095c578063e0a8f6f51461098c578063e5839836146109a85761035b565b8063c4bc5da5116100dc578063c4bc5da5146108e8578063cb7a11c2146108f2578063d05166501461090e578063da0239a61461093e5761035b565b8063ae66c9ea1461088e578063b5fc35ce146108ac578063c08cc02d146108ca5761035b565b8063902d55a51161016f578063a3ec138d11610149578063a3ec138d146107f2578063a9059cbb14610822578063aba6370514610852578063aca9f472146108705761035b565b8063902d55a51461078657806395d89b41146107a45780639b19251a146107c25761035b565b80637c224d64116101ab5780637c224d641461072257806380e79a36146107405780638a67456a1461074a5780638da5cb5b146107685761035b565b8063715018a6146106de57806372ce73ab146106e85780637afdf93e146107185761035b565b806320950933116102ab578063439766ce116102495780635c975abb116102235780635c975abb146106545780636290865d146106725780636c02a9311461069057806370a08231146106ae5761035b565b8063439766ce1461060e57806354fd4d50146106185780635584c4f9146106365761035b565b80632de56555116102855780632de5655514610584578063302c464a146105a2578063313ce567146105c057806343859632146105de5761035b565b8063209509331461051857806323b872dd146105365780632d380242146105665761035b565b80630d4efa4f1161031857806312cae7af116102f257806312cae7af1461048e578063134e18f4146104be57806314a8bd0d146104dc57806318160ddd146104fa5761035b565b80630d4efa4f1461043a5780630d61b519146104565780630fe2abcf146104725761035b565b80630121b93f1461035f578063013cf08b1461037b578063051069e3146103b257806306fdde03146103ce57806308b26b75146103ec578063095ea7b31461040a575b5f5ffd5b61037960048036038101906103749190614c9f565b610a3a565b005b61039560048036038101906103909190614c9f565b610e37565b6040516103a9989796959493929190614e15565b60405180910390f35b6103cc60048036038101906103c79190615002565b610f57565b005b6103d66110ae565b6040516103e39190615049565b60405180910390f35b6103f461113e565b6040516104019190615069565b60405180910390f35b610424600480360381019061041f9190615082565b611144565b60405161043191906150c0565b60405180910390f35b610454600480360381019061044f91906151ac565b611166565b005b610470600480360381019061046b9190614c9f565b611df2565b005b61048c60048036038101906104879190615289565b612a44565b005b6104a860048036038101906104a391906152c7565b612ca1565b6040516104b59190615069565b60405180910390f35b6104c6612cb2565b6040516104d391906152f2565b60405180910390f35b6104e4612cb9565b6040516104f19190615069565b60405180910390f35b610502612cbe565b60405161050f9190615069565b60405180910390f35b610520612cc7565b60405161052d9190615069565b60405180910390f35b610550600480360381019061054b919061530b565b612ccd565b60405161055d91906150c0565b60405180910390f35b61056e612e10565b60405161057b9190615069565b60405180910390f35b61058c612e16565b6040516105999190615069565b60405180910390f35b6105aa612e1b565b6040516105b79190615069565b60405180910390f35b6105c8612e20565b6040516105d59190615376565b60405180910390f35b6105f860048036038101906105f39190615289565b612e27565b60405161060591906150c0565b60405180910390f35b610616612e51565b005b610620612f73565b60405161062d9190615049565b60405180910390f35b61063e612fb0565b60405161064b9190615446565b60405180910390f35b61065c6130ce565b60405161066991906150c0565b60405180910390f35b61067a6130e4565b60405161068791906152f2565b60405180910390f35b6106986130eb565b6040516106a59190615049565b60405180910390f35b6106c860048036038101906106c391906152c7565b613177565b6040516106d59190615069565b60405180910390f35b6106e66131bc565b005b61070260048036038101906106fd9190614c9f565b6131cf565b60405161070f91906152f2565b60405180910390f35b61072061320a565b005b61072a613259565b6040516107379190615069565b60405180910390f35b61074861325f565b005b61075261342c565b60405161075f91906150c0565b60405180910390f35b61077061343f565b60405161077d91906152f2565b60405180910390f35b61078e613467565b60405161079b9190615069565b60405180910390f35b6107ac61346d565b6040516107b99190615049565b60405180910390f35b6107dc60048036038101906107d791906152c7565b6134fd565b6040516107e991906150c0565b60405180910390f35b61080c600480360381019061080791906152c7565b61351a565b60405161081991906150c0565b60405180910390f35b61083c60048036038101906108379190615082565b613537565b60405161084991906150c0565b60405180910390f35b61085a613678565b60405161086791906152f2565b60405180910390f35b61087861367f565b6040516108859190615069565b60405180910390f35b610896613685565b6040516108a391906150c0565b60405180910390f35b6108b4613697565b6040516108c19190615069565b60405180910390f35b6108d26136a4565b6040516108df9190615069565b60405180910390f35b6108f06136c9565b005b61090c60048036038101906109079190615002565b61379a565b005b610928600480360381019061092391906152c7565b6138c2565b60405161093591906150c0565b60405180910390f35b6109466138df565b6040516109539190615069565b60405180910390f35b61097660048036038101906109719190615466565b6138f5565b6040516109839190615069565b60405180910390f35b6109a660048036038101906109a19190614c9f565b613977565b005b6109c260048036038101906109bd91906152c7565b613c99565b6040516109cf91906150c0565b60405180910390f35b6109f260048036038101906109ed91906152c7565b613ceb565b005b6109fc613d6f565b604051610a099190615069565b60405180910390f35b610a1a613d74565b005b610a24613dc4565b604051610a319190615069565b60405180910390f35b601160019054906101000a900460ff1615610a8a576040517f08c379a0000000000000000000000000000000000000000000000000000000008152600401610a81906154c7565b60405180910390fd5b600c5f3373ffffffffffffffffffffffffffffffffffffffff1673ffffffffffffffffffffffffffffffffffffffff1681526020019081526020015f205f9054906101000a900460ff16610b13576040517f08c379a0000000000000000000000000000000000000000000000000000000008152600401610b0a906154c7565b60405180910390fd5b5f600f5f8381526020019081526020015f209050806008015f9054906101000a900460ff16610b77576040517f08c379a0000000000000000000000000000000000000000000000000000000008152600401610b6e906154c7565b60405180910390fd5b600d5f8381526020019081526020015f205f3373ffffffffffffffffffffffffffffffffffffffff1673ffffffffffffffffffffffffffffffffffffffff1681526020019081526020015f205f9054906101000a900460ff1615610c10576040517f08c379a0000000000000000000000000000000000000000000000000000000008152600401610c07906154c7565b60405180910390fd5b60115f9054906101000a900460ff1615610c5f576040517f08c379a0000000000000000000000000000000000000000000000000000000008152600401610c56906154c7565b60405180910390fd5b6001600d5f8481526020019081526020015f205f3373ffffffffffffffffffffffffffffffffffffffff1673ffffffffffffffffffffffffffffffffffffffff1681526020019081526020015f205f6101000a81548160ff021916908315150217905550806001015f815480929190610cd790615512565b91905055505f600780811115610cf057610cef614cca565b5b825f015f9054906101000a900460ff166007811115610d1257610d11614cca565b5b14610da25760036007811115610d2b57610d2a614cca565b5b825f015f9054906101000a900460ff166007811115610d4d57610d4c614cca565b5b10158015610d8f575060066007811115610d6a57610d69614cca565b5b825f015f9054906101000a900460ff166007811115610d8c57610d8b614cca565b5b11155b610d9a576005610d9d565b60035b610da5565b60025b90508082600101541115610dee576040517f08c379a0000000000000000000000000000000000000000000000000000000008152600401610de5906154c7565b60405180910390fd5b3373ffffffffffffffffffffffffffffffffffffffff16837ff1003b73c437642c0460aee9cd9628b0b8c447b66e6c7c905531b9c644214a1160405160405180910390a3505050565b600f602052805f5260405f205f91509050805f015f9054906101000a900460ff1690805f0160019054906101000a900473ffffffffffffffffffffffffffffffffffffffff1690806001015490806002015490806003015f9054906101000a900473ffffffffffffffffffffffffffffffffffffffff1690806004015490806005018054610ec490615586565b80601f0160208091040260200160405190810160405280929190818152602001828054610ef090615586565b8015610f3b5780601f10610f1257610100808354040283529160200191610f3b565b820191905f5260205f20905b815481529060010190602001808311610f1e57829003601f168201915b505050505090806008015f9054906101000a900460ff16905088565b610f5f613dd0565b601160019054906101000a900460ff1615610faf576040517f08c379a0000000000000000000000000000000000000000000000000000000008152600401610fa6906154c7565b60405180910390fd5b600c5f3373ffffffffffffffffffffffffffffffffffffffff1673ffffffffffffffffffffffffffffffffffffffff1681526020019081526020015f205f9054906101000a900460ff16611038576040517f08c379a000000000000000000000000000000000000000000000000000000000815260040161102f906154c7565b60405180910390fd5b61104b8168056bc75e2d63100000613e1f565b806040516110599190615667565b60405180910390207fc2aead9cf0ee95e5f48d316db6adcf05801aec50b3029bf8afcd0c2faf73b12d68056bc75e2d631000005f60405161109b92919061567d565b60405180910390a26110ab61401d565b50565b6060600380546110bd90615586565b80601f01602080910402602001604051908101604052809291908181526020018280546110e990615586565b80156111345780601f1061110b57610100808354040283529160200191611134565b820191905f5260205f20905b81548152906001019060200180831161111757829003601f168201915b5050505050905090565b61012c81565b5f5f61114e614027565b905061115b81858561402e565b600191505092915050565b601160019054906101000a900460ff16156111b6576040517f08c379a00000000000000000000000000000000000000000000000000000000081526004016111ad906154c7565b60405180910390fd5b600c5f3373ffffffffffffffffffffffffffffffffffffffff1673ffffffffffffffffffffffffffffffffffffffff1681526020019081526020015f205f9054906101000a900460ff1661123f576040517f08c379a0000000000000000000000000000000000000000000000000000000008152600401611236906154c7565b60405180910390fd5b5f600781111561125257611251614cca565b5b86600781111561126557611264614cca565b5b036112b2575f8351116112ad576040517f08c379a00000000000000000000000000000000000000000000000000000000081526004016112a4906154c7565b60405180910390fd5b611b72565b600160078111156112c6576112c5614cca565b5b8660078111156112d9576112d8614cca565b5b036113c7575f8403611320576040517f08c379a0000000000000000000000000000000000000000000000000000000008152600401611317906154c7565b60405180910390fd5b600a548460075461133191906156ad565b1215611372576040517f08c379a0000000000000000000000000000000000000000000000000000000008152600401611369906154c7565b60405180910390fd5b5f8460075461138191906156ad565b12156113c2576040517f08c379a00000000000000000000000000000000000000000000000000000000081526004016113b9906154c7565b60405180910390fd5b611b71565b600260078111156113db576113da614cca565b5b8660078111156113ee576113ed614cca565b5b036116c7578051825114801561140457505f8251115b611443576040517f08c379a000000000000000000000000000000000000000000000000000000000815260040161143a906154c7565b60405180910390fd5b5f5f90505b82518110156116c157600c5f848381518110611467576114666156ee565b5b602002602001015173ffffffffffffffffffffffffffffffffffffffff1673ffffffffffffffffffffffffffffffffffffffff1681526020019081526020015f205f9054906101000a900460ff166114f4576040517f08c379a00000000000000000000000000000000000000000000000000000000081526004016114eb906154c7565b60405180910390fd5b5f73ffffffffffffffffffffffffffffffffffffffff1682828151811061151e5761151d6156ee565b5b602002602001015173ffffffffffffffffffffffffffffffffffffffff16141580156115ab5750600c5f83838151811061155b5761155a6156ee565b5b602002602001015173ffffffffffffffffffffffffffffffffffffffff1673ffffffffffffffffffffffffffffffffffffffff1681526020019081526020015f205f9054906101000a900460ff16155b6115ea576040517f08c379a00000000000000000000000000000000000000000000000000000000081526004016115e1906154c7565b60405180910390fd5b5f6001826115f8919061571b565b90505b82518110156116b357828181518110611617576116166156ee565b5b602002602001015173ffffffffffffffffffffffffffffffffffffffff16838381518110611648576116476156ee565b5b602002602001015173ffffffffffffffffffffffffffffffffffffffff16036116a6576040517f08c379a000000000000000000000000000000000000000000000000000000000815260040161169d906154c7565b60405180910390fd5b80806001019150506115fb565b508080600101915050611448565b50611b70565b600360078111156116db576116da614cca565b5b8660078111156116ee576116ed614cca565b5b036117ba575f73ffffffffffffffffffffffffffffffffffffffff168573ffffffffffffffffffffffffffffffffffffffff1614158015611776575060085f8673ffffffffffffffffffffffffffffffffffffffff1673ffffffffffffffffffffffffffffffffffffffff1681526020019081526020015f205f9054906101000a900460ff16155b6117b5576040517f08c379a00000000000000000000000000000000000000000000000000000000081526004016117ac906154c7565b60405180910390fd5b611b6f565b600460078111156117ce576117cd614cca565b5b8660078111156117e1576117e0614cca565b5b036118745760085f8673ffffffffffffffffffffffffffffffffffffffff1673ffffffffffffffffffffffffffffffffffffffff1681526020019081526020015f205f9054906101000a900460ff1661186f576040517f08c379a000000000000000000000000000000000000000000000000000000000815260040161186690615798565b60405180910390fd5b611b6e565b6005600781111561188857611887614cca565b5b86600781111561189b5761189a614cca565b5b03611967575f73ffffffffffffffffffffffffffffffffffffffff168573ffffffffffffffffffffffffffffffffffffffff1614158015611923575060095f8673ffffffffffffffffffffffffffffffffffffffff1673ffffffffffffffffffffffffffffffffffffffff1681526020019081526020015f205f9054906101000a900460ff16155b611962576040517f08c379a0000000000000000000000000000000000000000000000000000000008152600401611959906154c7565b60405180910390fd5b611b6d565b6006600781111561197b5761197a614cca565b5b86600781111561198e5761198d614cca565b5b03611a215760095f8673ffffffffffffffffffffffffffffffffffffffff1673ffffffffffffffffffffffffffffffffffffffff1681526020019081526020015f205f9054906101000a900460ff16611a1c576040517f08c379a0000000000000000000000000000000000000000000000000000000008152600401611a1390615800565b60405180910390fd5b611b6c565b600780811115611a3457611a33614cca565b5b866007811115611a4757611a46614cca565b5b03611b6b5760085f8673ffffffffffffffffffffffffffffffffffffffff1673ffffffffffffffffffffffffffffffffffffffff1681526020019081526020015f205f9054906101000a900460ff168015611ace57505f73ffffffffffffffffffffffffffffffffffffffff168573ffffffffffffffffffffffffffffffffffffffff1614155b611b0d576040517f08c379a0000000000000000000000000000000000000000000000000000000008152600401611b04906154c7565b60405180910390fd5b5f84118015611b2b575060075484600a54611b28919061571b565b11155b611b6a576040517f08c379a0000000000000000000000000000000000000000000000000000000008152600401611b61906154c7565b60405180910390fd5b5b5b5b5b5b5b5b5b604051806101400160405280876007811115611b9157611b90614cca565b5b81526020013373ffffffffffffffffffffffffffffffffffffffff1681526020015f815260200160026007811115611bcc57611bcb614cca565b5b886007811115611bdf57611bde614cca565b5b1115611beb5742611bf9565b60b442611bf8919061571b565b5b81526020018673ffffffffffffffffffffffffffffffffffffffff16815260200185815260200184815260200183815260200182815260200160011515815250600f5f60105481526020019081526020015f205f820151815f015f6101000a81548160ff02191690836007811115611c7457611c73614cca565b5b02179055506020820151815f0160016101000a81548173ffffffffffffffffffffffffffffffffffffffff021916908373ffffffffffffffffffffffffffffffffffffffff16021790555060408201518160010155606082015181600201556080820151816003015f6101000a81548173ffffffffffffffffffffffffffffffffffffffff021916908373ffffffffffffffffffffffffffffffffffffffff16021790555060a0820151816004015560c0820151816005019081611d3891906159be565b5060e0820151816006019080519060200190611d55929190614b5e565b50610100820151816007019080519060200190611d73929190614b5e565b50610120820151816008015f6101000a81548160ff0219169083151502179055509050506010547f3263432a41f78a4701cc9465f62411ed717ade32290c084135a3dd6b29f4bf288733604051611dcb929190615a8d565b60405180910390a260105f815480929190611de590615512565b9190505550505050505050565b601160019054906101000a900460ff1615611e42576040517f08c379a0000000000000000000000000000000000000000000000000000000008152600401611e3990615afe565b60405180910390fd5b5f600f5f8381526020019081526020015f209050611e5f81614040565b505f6007811115611e7357611e72614cca565b5b815f015f9054906101000a900460ff166007811115611e9557611e94614cca565b5b03611f6c57611f2d816005018054611eac90615586565b80601f0160208091040260200160405190810160405280929190818152602001828054611ed890615586565b8015611f235780601f10611efa57610100808354040283529160200191611f23565b820191905f5260205f20905b815481529060010190602001808311611f0657829003601f168201915b505050505061426c565b7f4737457377f528cc8afd815f73ecb8b05df80d047dbffc41c17750a4033592bc81600501604051611f5f9190615b9d565b60405180910390a1612929565b60016007811115611f8057611f7f614cca565b5b815f015f9054906101000a900460ff166007811115611fa257611fa1614cca565b5b03611ffd578060040154600754611fb991906156ad565b6007819055507f0acd0677fad7be9ccaf6c91ebaaca5c9c91622ac0508242d2f8feca61a0da249600754604051611ff09190615069565b60405180910390a1612928565b6002600781111561201157612010614cca565b5b815f015f9054906101000a900460ff16600781111561203357612032614cca565b5b03612396575f600e8054806020026020016040519081016040528092919081815260200182805480156120b857602002820191905f5260205f20905b815f9054906101000a900473ffffffffffffffffffffffffffffffffffffffff1673ffffffffffffffffffffffffffffffffffffffff168152602001906001019080831161206f575b505050505090505f5f90505b8260060180549050811015612339575f600c5f8560060184815481106120ed576120ec6156ee565b5b905f5260205f20015f9054906101000a900473ffffffffffffffffffffffffffffffffffffffff1673ffffffffffffffffffffffffffffffffffffffff1673ffffffffffffffffffffffffffffffffffffffff1681526020019081526020015f205f6101000a81548160ff0219169083151502179055506001600c5f85600701848154811061217f5761217e6156ee565b5b905f5260205f20015f9054906101000a900473ffffffffffffffffffffffffffffffffffffffff1673ffffffffffffffffffffffffffffffffffffffff1673ffffffffffffffffffffffffffffffffffffffff1681526020019081526020015f205f6101000a81548160ff0219169083151502179055505f5f90505b825181101561232b5783600601828154811061221a576122196156ee565b5b905f5260205f20015f9054906101000a900473ffffffffffffffffffffffffffffffffffffffff1673ffffffffffffffffffffffffffffffffffffffff1683828151811061226b5761226a6156ee565b5b602002602001015173ffffffffffffffffffffffffffffffffffffffff160361231e578360070182815481106122a4576122a36156ee565b5b905f5260205f20015f9054906101000a900473ffffffffffffffffffffffffffffffffffffffff168382815181106122df576122de6156ee565b5b602002602001019073ffffffffffffffffffffffffffffffffffffffff16908173ffffffffffffffffffffffffffffffffffffffff168152505061232b565b80806001019150506121fb565b5080806001019150506120c4565b5080600e9080519060200190612350929190614b5e565b507f765616ca75e38e63dcc130430614a01fa91bfe57744073b30bf8f4ba8fa31ffc8260060183600701604051612388929190615cd3565b60405180910390a150612927565b600360078111156123aa576123a9614cca565b5b815f015f9054906101000a900460ff1660078111156123cc576123cb614cca565b5b036124c057600160085f836003015f9054906101000a900473ffffffffffffffffffffffffffffffffffffffff1673ffffffffffffffffffffffffffffffffffffffff1673ffffffffffffffffffffffffffffffffffffffff1681526020019081526020015f205f6101000a81548160ff021916908315150217905550806003015f9054906101000a900473ffffffffffffffffffffffffffffffffffffffff1673ffffffffffffffffffffffffffffffffffffffff167f708b4d521222bb27f0672d2839e6039075f625a31020905655afd928fc99234060016040516124b39190615d52565b60405180910390a2612926565b600460078111156124d4576124d3614cca565b5b815f015f9054906101000a900460ff1660078111156124f6576124f5614cca565b5b036125e8575f60085f836003015f9054906101000a900473ffffffffffffffffffffffffffffffffffffffff1673ffffffffffffffffffffffffffffffffffffffff1673ffffffffffffffffffffffffffffffffffffffff1681526020019081526020015f205f6101000a81548160ff021916908315150217905550806003015f9054906101000a900473ffffffffffffffffffffffffffffffffffffffff1673ffffffffffffffffffffffffffffffffffffffff167f708b4d521222bb27f0672d2839e6039075f625a31020905655afd928fc9923405f6040516125db9190615d52565b60405180910390a2612925565b600560078111156125fc576125fb614cca565b5b815f015f9054906101000a900460ff16600781111561261e5761261d614cca565b5b0361271257600160095f836003015f9054906101000a900473ffffffffffffffffffffffffffffffffffffffff1673ffffffffffffffffffffffffffffffffffffffff1673ffffffffffffffffffffffffffffffffffffffff1681526020019081526020015f205f6101000a81548160ff021916908315150217905550806003015f9054906101000a900473ffffffffffffffffffffffffffffffffffffffff1673ffffffffffffffffffffffffffffffffffffffff167f708b4d521222bb27f0672d2839e6039075f625a31020905655afd928fc99234060016040516127059190615dc8565b60405180910390a2612924565b6006600781111561272657612725614cca565b5b815f015f9054906101000a900460ff16600781111561274857612747614cca565b5b0361283a575f60095f836003015f9054906101000a900473ffffffffffffffffffffffffffffffffffffffff1673ffffffffffffffffffffffffffffffffffffffff1673ffffffffffffffffffffffffffffffffffffffff1681526020019081526020015f205f6101000a81548160ff021916908315150217905550806003015f9054906101000a900473ffffffffffffffffffffffffffffffffffffffff1673ffffffffffffffffffffffffffffffffffffffff167f708b4d521222bb27f0672d2839e6039075f625a31020905655afd928fc9923405f60405161282d9190615dc8565b60405180910390a2612923565b60078081111561284d5761284c614cca565b5b815f015f9054906101000a900460ff16600781111561286f5761286e614cca565b5b03612922576128a5816003015f9054906101000a900473ffffffffffffffffffffffffffffffffffffffff16826004015461427f565b8060040154600a5f8282546128ba919061571b565b925050819055507f570563f436dc733c61d3863fd95e547272964f69d7b5cfe7461360a7a5643e3c816003015f9054906101000a900473ffffffffffffffffffffffffffffffffffffffff168260040154604051612919929190615df4565b60405180910390a15b5b5b5b5b5b5b5b612932826142fe565b600f5f8381526020019081526020015f205f5f82015f6101000a81549060ff02191690555f820160016101000a81549073ffffffffffffffffffffffffffffffffffffffff0219169055600182015f9055600282015f9055600382015f6101000a81549073ffffffffffffffffffffffffffffffffffffffff0219169055600482015f9055600582015f6129c69190614be5565b600682015f6129d59190614c22565b600782015f6129e49190614c22565b600882015f6101000a81549060ff02191690555050817f5b9614f21773d68c0b149bda804ff3d491c8bc8795f7ed236cc97804cd005389825f015f9054906101000a900460ff16604051612a389190615e1b565b60405180910390a25050565b612a4c613dd0565b601160019054906101000a900460ff1615612a9c576040517f08c379a0000000000000000000000000000000000000000000000000000000008152600401612a93906154c7565b60405180910390fd5b60085f8273ffffffffffffffffffffffffffffffffffffffff1673ffffffffffffffffffffffffffffffffffffffff1681526020019081526020015f205f9054906101000a900460ff16612b25576040517f08c379a0000000000000000000000000000000000000000000000000000000008152600401612b1c906154c7565b60405180910390fd5b5f8211612b67576040517f08c379a0000000000000000000000000000000000000000000000000000000008152600401612b5e906154c7565b60405180910390fd5b5f601483612b759190615e34565b90505f8111612bb9576040517f08c379a0000000000000000000000000000000000000000000000000000000008152600401612bb0906154c7565b60405180910390fd5b60075481600a54612bca919061571b565b1115612c0b576040517f08c379a0000000000000000000000000000000000000000000000000000000008152600401612c02906154c7565b60405180910390fd5b612c15828261427f565b80600a5f828254612c26919061571b565b925050819055508173ffffffffffffffffffffffffffffffffffffffff163373ffffffffffffffffffffffffffffffffffffffff167fbadb5a53e5a7f1f292f32f4ca0c78e80d05f213db774602acc6faca5aecdf6d78584604051612c8c929190615e75565b60405180910390a350612c9d61401d565b5050565b5f612cab82613177565b9050919050565b5f5f905090565b601481565b5f600254905090565b60125481565b5f601160019054906101000a900460ff1615612d1e576040517f08c379a0000000000000000000000000000000000000000000000000000000008152600401612d15906154c7565b60405180910390fd5b60095f8573ffffffffffffffffffffffffffffffffffffffff1673ffffffffffffffffffffffffffffffffffffffff1681526020019081526020015f205f9054906101000a900460ff1615612da8576040517f08c379a0000000000000000000000000000000000000000000000000000000008152600401612d9f906154c7565b60405180910390fd5b816fffffffffffffffffffffffffffffffff168214612dfc576040517f08c379a0000000000000000000000000000000000000000000000000000000008152600401612df3906154c7565b60405180910390fd5b612e07848484614459565b90509392505050565b600a5481565b600381565b600581565b5f5f905090565b600d602052815f5260405f20602052805f5260405f205f915091509054906101000a900460ff1681565b600c5f3373ffffffffffffffffffffffffffffffffffffffff1673ffffffffffffffffffffffffffffffffffffffff1681526020019081526020015f205f9054906101000a900460ff16612eda576040517f08c379a0000000000000000000000000000000000000000000000000000000008152600401612ed1906154c7565b60405180910390fd5b601160019054906101000a900460ff1615612f2a576040517f08c379a0000000000000000000000000000000000000000000000000000000008152600401612f21906154c7565b60405180910390fd5b6001601160016101000a81548160ff0219169083151502179055507fab35696f06e428ebc5ceba8cd17f8fed287baf43440206d1943af1ee53e6d26760405160405180910390a1565b60606040518060400160405280600581526020017f312e302e30000000000000000000000000000000000000000000000000000000815250905090565b60605f5f90505f5f90505b60105481101561300757600f5f8281526020019081526020015f206008015f9054906101000a900460ff1615612ffa578180612ff690615512565b9250505b8080600101915050612fbb565b508067ffffffffffffffff81111561302257613021614e9c565b5b6040519080825280602002602001820160405280156130505781602001602082028036833780820191505090505b5091505f5f90505f5f90505b6010548110156130c857600f5f8281526020019081526020015f206008015f9054906101000a900460ff16156130bb57808483815181106130a05761309f6156ee565b5b60200260200101818152505081806130b790615512565b9250505b808060010191505061305c565b50505090565b5f601160019054906101000a900460ff16905090565b5f5f905090565b600b80546130f890615586565b80601f016020809104026020016040519081016040528092919081815260200182805461312490615586565b801561316f5780601f106131465761010080835404028352916020019161316f565b820191905f5260205f20905b81548152906001019060200180831161315257829003601f168201915b505050505081565b5f5f5f8373ffffffffffffffffffffffffffffffffffffffff1673ffffffffffffffffffffffffffffffffffffffff1681526020019081526020015f20549050919050565b6131c4614487565b6131cd5f61450e565b565b600e81815481106131de575f80fd5b905f5260205f20015f915054906101000a900473ffffffffffffffffffffffffffffffffffffffff1681565b613212614487565b5f60115f6101000a81548160ff0219169083151502179055507f8f69ef9279bfb1fe5f4f75790947a23fa88774e98242b966bcaaf7d25e8b3c1660405160405180910390a1565b61038481565b601160019054906101000a900460ff16156132af576040517f08c379a00000000000000000000000000000000000000000000000000000000081526004016132a6906154c7565b60405180910390fd5b600c5f3373ffffffffffffffffffffffffffffffffffffffff1673ffffffffffffffffffffffffffffffffffffffff1681526020019081526020015f205f9054906101000a900460ff16613338576040517f08c379a000000000000000000000000000000000000000000000000000000000815260040161332f906154c7565b60405180910390fd5b61012c601254613348919061571b565b42101561338a576040517f08c379a0000000000000000000000000000000000000000000000000000000008152600401613381906154c7565b60405180910390fd5b600754670de0b6b3a7640000600a546133a3919061571b565b11156133e4576040517f08c379a00000000000000000000000000000000000000000000000000000000081526004016133db906154c7565b60405180910390fd5b426012819055507f90596ca0cb29ef99cd530e572920440d7d040408f92c28e46836fe9e048f59d8670de0b6b3a76400006040516134229190615069565b60405180910390a1565b601160019054906101000a900460ff1681565b5f60055f9054906101000a900473ffffffffffffffffffffffffffffffffffffffff16905090565b60075481565b60606004805461347c90615586565b80601f01602080910402602001604051908101604052809291908181526020018280546134a890615586565b80156134f35780601f106134ca576101008083540402835291602001916134f3565b820191905f5260205f20905b8154815290600101906020018083116134d657829003601f168201915b5050505050905090565b6008602052805f5260405f205f915054906101000a900460ff1681565b600c602052805f5260405f205f915054906101000a900460ff1681565b5f601160019054906101000a900460ff1615613588576040517f08c379a000000000000000000000000000000000000000000000000000000000815260040161357f906154c7565b60405180910390fd5b60095f3373ffffffffffffffffffffffffffffffffffffffff1673ffffffffffffffffffffffffffffffffffffffff1681526020019081526020015f205f9054906101000a900460ff1615613612576040517f08c379a0000000000000000000000000000000000000000000000000000000008152600401613609906154c7565b60405180910390fd5b816fffffffffffffffffffffffffffffffff168214613666576040517f08c379a000000000000000000000000000000000000000000000000000000000815260040161365d906154c7565b60405180910390fd5b61367083836145d1565b905092915050565b5f30905090565b60135481565b60115f9054906101000a900460ff1681565b68056bc75e2d6310000081565b5f5f601054116136b4575f6136c4565b60016010546136c39190615e9c565b5b905090565b600c5f3373ffffffffffffffffffffffffffffffffffffffff1673ffffffffffffffffffffffffffffffffffffffff1681526020019081526020015f205f9054906101000a900460ff16613752576040517f08c379a0000000000000000000000000000000000000000000000000000000008152600401613749906154c7565b60405180910390fd5b5f601160016101000a81548160ff0219169083151502179055507fab5f6dacf93a267a93a533de8a56370de8341bbd8102017307e7be375c3dda6a60405160405180910390a1565b6137a2613dd0565b601160019054906101000a900460ff16156137f2576040517f08c379a00000000000000000000000000000000000000000000000000000000081526004016137e9906154c7565b60405180910390fd5b610384601354613802919061571b565b421015613844576040517f08c379a000000000000000000000000000000000000000000000000000000000815260040161383b906154c7565b60405180910390fd5b6138578168056bc75e2d63100000613e1f565b426013819055508060405161386c9190615667565b60405180910390207fc2aead9cf0ee95e5f48d316db6adcf05801aec50b3029bf8afcd0c2faf73b12d68056bc75e2d6310000060016040516138af92919061567d565b60405180910390a26138bf61401d565b50565b6009602052805f5260405f205f915054906101000a900460ff1681565b5f600a546007546138f09190615e9c565b905090565b5f60015f8473ffffffffffffffffffffffffffffffffffffffff1673ffffffffffffffffffffffffffffffffffffffff1681526020019081526020015f205f8373ffffffffffffffffffffffffffffffffffffffff1673ffffffffffffffffffffffffffffffffffffffff1681526020019081526020015f2054905092915050565b601160019054906101000a900460ff16156139c7576040517f08c379a00000000000000000000000000000000000000000000000000000000081526004016139be906154c7565b60405180910390fd5b5f600f5f8381526020019081526020015f209050806008015f9054906101000a900460ff16613a2b576040517f08c379a0000000000000000000000000000000000000000000000000000000008152600401613a22906154c7565b60405180910390fd5b805f0160019054906101000a900473ffffffffffffffffffffffffffffffffffffffff1673ffffffffffffffffffffffffffffffffffffffff163373ffffffffffffffffffffffffffffffffffffffff1614613abc576040517f08c379a0000000000000000000000000000000000000000000000000000000008152600401613ab3906154c7565b60405180910390fd5b60026007811115613ad057613acf614cca565b5b815f015f9054906101000a900460ff166007811115613af257613af1614cca565b5b1115613b33576040517f08c379a0000000000000000000000000000000000000000000000000000000008152600401613b2a906154c7565b60405180910390fd5b80600201544210613b79576040517f08c379a0000000000000000000000000000000000000000000000000000000008152600401613b70906154c7565b60405180910390fd5b613b82826142fe565b5f815f015f9054906101000a900460ff169050600f5f8481526020019081526020015f205f5f82015f6101000a81549060ff02191690555f820160016101000a81549073ffffffffffffffffffffffffffffffffffffffff0219169055600182015f9055600282015f9055600382015f6101000a81549073ffffffffffffffffffffffffffffffffffffffff0219169055600482015f9055600582015f613c299190614be5565b600682015f613c389190614c22565b600782015f613c479190614c22565b600882015f6101000a81549060ff02191690555050827f89616a339342f36e4dcecc713f695bcbfe35fea112c4c652da7e1656bd486ce882604051613c8c9190615e1b565b60405180910390a2505050565b5f60095f8373ffffffffffffffffffffffffffffffffffffffff1673ffffffffffffffffffffffffffffffffffffffff1681526020019081526020015f205f9054906101000a900460ff169050919050565b613cf3614487565b5f73ffffffffffffffffffffffffffffffffffffffff168173ffffffffffffffffffffffffffffffffffffffff1603613d63575f6040517f1e4fbdf7000000000000000000000000000000000000000000000000000000008152600401613d5a91906152f2565b60405180910390fd5b613d6c8161450e565b50565b600281565b613d7c614487565b600160115f6101000a81548160ff0219169083151502179055507f20c53179fe7c6306d9d1c279d52bae5e736f5e1178137542d3a7a9d1752691be60405160405180910390a1565b670de0b6b3a764000081565b600260065403613e15576040517f08c379a0000000000000000000000000000000000000000000000000000000008152600401613e0c90615f19565b60405180910390fd5b6002600681905550565b5f825111613e62576040517f08c379a0000000000000000000000000000000000000000000000000000000008152600401613e59906154c7565b60405180910390fd5b5f818351613e709190615e34565b905060075481600a54613e83919061571b565b1115613ec4576040517f08c379a0000000000000000000000000000000000000000000000000000000008152600401613ebb906154c7565b60405180910390fd5b5f5f90505b8351811015613fff575f848281518110613ee657613ee56156ee565b5b602002602001015190505f73ffffffffffffffffffffffffffffffffffffffff168173ffffffffffffffffffffffffffffffffffffffff1603613f5e576040517f08c379a0000000000000000000000000000000000000000000000000000000008152600401613f55906154c7565b60405180910390fd5b60085f8273ffffffffffffffffffffffffffffffffffffffff1673ffffffffffffffffffffffffffffffffffffffff1681526020019081526020015f205f9054906101000a900460ff16613fe7576040517f08c379a0000000000000000000000000000000000000000000000000000000008152600401613fde906154c7565b60405180910390fd5b613ff1818561427f565b508080600101915050613ec9565b5080600a5f828254614011919061571b565b92505081905550505050565b6001600681905550565b5f33905090565b61403b83838360016145f3565b505050565b5f816008015f9054906101000a900460ff16614091576040517f08c379a0000000000000000000000000000000000000000000000000000000008152600401614088906154c7565b60405180910390fd5b81600201544210156140d8576040517f08c379a00000000000000000000000000000000000000000000000000000000081526004016140cf906154c7565b60405180910390fd5b5f6007808111156140ec576140eb614cca565b5b835f015f9054906101000a900460ff16600781111561410e5761410d614cca565b5b14614217576003600781111561412757614126614cca565b5b835f015f9054906101000a900460ff16600781111561414957614148614cca565b5b148061418857506004600781111561416457614163614cca565b5b835f015f9054906101000a900460ff16600781111561418657614185614cca565b5b145b806141c65750600560078111156141a2576141a1614cca565b5b835f015f9054906101000a900460ff1660078111156141c4576141c3614cca565b5b145b806142045750600660078111156141e0576141df614cca565b5b835f015f9054906101000a900460ff16600781111561420257614201614cca565b5b145b61420f576005614212565b60035b61421a565b60025b90508083600101541015614263576040517f08c379a000000000000000000000000000000000000000000000000000000000815260040161425a906154c7565b60405180910390fd5b80915050919050565b80600b908161427b91906159be565b5050565b5f73ffffffffffffffffffffffffffffffffffffffff168273ffffffffffffffffffffffffffffffffffffffff16036142ef575f6040517fec442f050000000000000000000000000000000000000000000000000000000081526004016142e691906152f2565b60405180910390fd5b6142fa5f83836147c2565b5050565b5f5f90505b600e8054905081101561445557600d5f8381526020019081526020015f205f600e8381548110614336576143356156ee565b5b905f5260205f20015f9054906101000a900473ffffffffffffffffffffffffffffffffffffffff1673ffffffffffffffffffffffffffffffffffffffff1673ffffffffffffffffffffffffffffffffffffffff1681526020019081526020015f205f9054906101000a900460ff1615614448575f600d5f8481526020019081526020015f205f600e84815481106143d0576143cf6156ee565b5b905f5260205f20015f9054906101000a900473ffffffffffffffffffffffffffffffffffffffff1673ffffffffffffffffffffffffffffffffffffffff1673ffffffffffffffffffffffffffffffffffffffff1681526020019081526020015f205f6101000a81548160ff0219169083151502179055505b8080600101915050614303565b5050565b5f5f614463614027565b90506144708582856149db565b61447b858585614a6e565b60019150509392505050565b61448f614027565b73ffffffffffffffffffffffffffffffffffffffff166144ad61343f565b73ffffffffffffffffffffffffffffffffffffffff161461450c576144d0614027565b6040517f118cdaa700000000000000000000000000000000000000000000000000000000815260040161450391906152f2565b60405180910390fd5b565b5f60055f9054906101000a900473ffffffffffffffffffffffffffffffffffffffff1690508160055f6101000a81548173ffffffffffffffffffffffffffffffffffffffff021916908373ffffffffffffffffffffffffffffffffffffffff1602179055508173ffffffffffffffffffffffffffffffffffffffff168173ffffffffffffffffffffffffffffffffffffffff167f8be0079c531659141344cd1fd0a4f28419497f9722a3daafe3b4186f6b6457e060405160405180910390a35050565b5f5f6145db614027565b90506145e8818585614a6e565b600191505092915050565b5f73ffffffffffffffffffffffffffffffffffffffff168473ffffffffffffffffffffffffffffffffffffffff1603614663575f6040517fe602df0500000000000000000000000000000000000000000000000000000000815260040161465a91906152f2565b60405180910390fd5b5f73ffffffffffffffffffffffffffffffffffffffff168373ffffffffffffffffffffffffffffffffffffffff16036146d3575f6040517f94280d620000000000000000000000000000000000000000000000000000000081526004016146ca91906152f2565b60405180910390fd5b8160015f8673ffffffffffffffffffffffffffffffffffffffff1673ffffffffffffffffffffffffffffffffffffffff1681526020019081526020015f205f8573ffffffffffffffffffffffffffffffffffffffff1673ffffffffffffffffffffffffffffffffffffffff1681526020019081526020015f208190555080156147bc578273ffffffffffffffffffffffffffffffffffffffff168473ffffffffffffffffffffffffffffffffffffffff167f8c5be1e5ebec7d5bd14f71427d1e84f3dd0314c0f7b2291e5b200ac8c7c3b925846040516147b39190615069565b60405180910390a35b50505050565b5f73ffffffffffffffffffffffffffffffffffffffff168373ffffffffffffffffffffffffffffffffffffffff1603614812578060025f828254614806919061571b565b925050819055506148e0565b5f5f5f8573ffffffffffffffffffffffffffffffffffffffff1673ffffffffffffffffffffffffffffffffffffffff1681526020019081526020015f205490508181101561489b578381836040517fe450d38c00000000000000000000000000000000000000000000000000000000815260040161489293929190615f37565b60405180910390fd5b8181035f5f8673ffffffffffffffffffffffffffffffffffffffff1673ffffffffffffffffffffffffffffffffffffffff1681526020019081526020015f2081905550505b5f73ffffffffffffffffffffffffffffffffffffffff168273ffffffffffffffffffffffffffffffffffffffff1603614927578060025f8282540392505081905550614971565b805f5f8473ffffffffffffffffffffffffffffffffffffffff1673ffffffffffffffffffffffffffffffffffffffff1681526020019081526020015f205f82825401925050819055505b8173ffffffffffffffffffffffffffffffffffffffff168373ffffffffffffffffffffffffffffffffffffffff167fddf252ad1be2c89b69c2b068fc378daa952ba7f163c4a11628f55a4df523b3ef836040516149ce9190615069565b60405180910390a3505050565b5f6149e684846138f5565b90507fffffffffffffffffffffffffffffffffffffffffffffffffffffffffffffffff811015614a685781811015614a59578281836040517ffb8f41b2000000000000000000000000000000000000000000000000000000008152600401614a5093929190615f37565b60405180910390fd5b614a6784848484035f6145f3565b5b50505050565b5f73ffffffffffffffffffffffffffffffffffffffff168373ffffffffffffffffffffffffffffffffffffffff1603614ade575f6040517f96c6fd1e000000000000000000000000000000000000000000000000000000008152600401614ad591906152f2565b60405180910390fd5b5f73ffffffffffffffffffffffffffffffffffffffff168273ffffffffffffffffffffffffffffffffffffffff1603614b4e575f6040517fec442f05000000000000000000000000000000000000000000000000000000008152600401614b4591906152f2565b60405180910390fd5b614b598383836147c2565b505050565b828054828255905f5260205f20908101928215614bd4579160200282015b82811115614bd3578251825f6101000a81548173ffffffffffffffffffffffffffffffffffffffff021916908373ffffffffffffffffffffffffffffffffffffffff16021790555091602001919060010190614b7c565b5b509050614be19190614c40565b5090565b508054614bf190615586565b5f825580601f10614c025750614c1f565b601f0160209004905f5260205f2090810190614c1e9190614c40565b5b50565b5080545f8255905f5260205f2090810190614c3d9190614c40565b50565b5b80821115614c57575f815f905550600101614c41565b5090565b5f604051905090565b5f5ffd5b5f5ffd5b5f819050919050565b614c7e81614c6c565b8114614c88575f5ffd5b50565b5f81359050614c9981614c75565b92915050565b5f60208284031215614cb457614cb3614c64565b5b5f614cc184828501614c8b565b91505092915050565b7f4e487b71000000000000000000000000000000000000000000000000000000005f52602160045260245ffd5b60088110614d0857614d07614cca565b5b50565b5f819050614d1882614cf7565b919050565b5f614d2782614d0b565b9050919050565b614d3781614d1d565b82525050565b5f73ffffffffffffffffffffffffffffffffffffffff82169050919050565b5f614d6682614d3d565b9050919050565b614d7681614d5c565b82525050565b614d8581614c6c565b82525050565b5f81519050919050565b5f82825260208201905092915050565b8281835e5f83830152505050565b5f601f19601f8301169050919050565b5f614dcd82614d8b565b614dd78185614d95565b9350614de7818560208601614da5565b614df081614db3565b840191505092915050565b5f8115159050919050565b614e0f81614dfb565b82525050565b5f61010082019050614e295f83018b614d2e565b614e36602083018a614d6d565b614e436040830189614d7c565b614e506060830188614d7c565b614e5d6080830187614d6d565b614e6a60a0830186614d7c565b81810360c0830152614e7c8185614dc3565b9050614e8b60e0830184614e06565b9998505050505050505050565b5f5ffd5b7f4e487b71000000000000000000000000000000000000000000000000000000005f52604160045260245ffd5b614ed282614db3565b810181811067ffffffffffffffff82111715614ef157614ef0614e9c565b5b80604052505050565b5f614f03614c5b565b9050614f0f8282614ec9565b919050565b5f67ffffffffffffffff821115614f2e57614f2d614e9c565b5b602082029050602081019050919050565b5f5ffd5b614f4c81614d5c565b8114614f56575f5ffd5b50565b5f81359050614f6781614f43565b92915050565b5f614f7f614f7a84614f14565b614efa565b90508083825260208201905060208402830185811115614fa257614fa1614f3f565b5b835b81811015614fcb5780614fb78882614f59565b845260208401935050602081019050614fa4565b5050509392505050565b5f82601f830112614fe957614fe8614e98565b5b8135614ff9848260208601614f6d565b91505092915050565b5f6020828403121561501757615016614c64565b5b5f82013567ffffffffffffffff81111561503457615033614c68565b5b61504084828501614fd5565b91505092915050565b5f6020820190508181035f8301526150618184614dc3565b905092915050565b5f60208201905061507c5f830184614d7c565b92915050565b5f5f6040838503121561509857615097614c64565b5b5f6150a585828601614f59565b92505060206150b685828601614c8b565b9150509250929050565b5f6020820190506150d35f830184614e06565b92915050565b600881106150e5575f5ffd5b50565b5f813590506150f6816150d9565b92915050565b5f5ffd5b5f67ffffffffffffffff82111561511a57615119614e9c565b5b61512382614db3565b9050602081019050919050565b828183375f83830152505050565b5f61515061514b84615100565b614efa565b90508281526020810184848401111561516c5761516b6150fc565b5b615177848285615130565b509392505050565b5f82601f83011261519357615192614e98565b5b81356151a384826020860161513e565b91505092915050565b5f5f5f5f5f5f60c087890312156151c6576151c5614c64565b5b5f6151d389828a016150e8565b96505060206151e489828a01614f59565b95505060406151f589828a01614c8b565b945050606087013567ffffffffffffffff81111561521657615215614c68565b5b61522289828a0161517f565b935050608087013567ffffffffffffffff81111561524357615242614c68565b5b61524f89828a01614fd5565b92505060a087013567ffffffffffffffff8111156152705761526f614c68565b5b61527c89828a01614fd5565b9150509295509295509295565b5f5f6040838503121561529f5761529e614c64565b5b5f6152ac85828601614c8b565b92505060206152bd85828601614f59565b9150509250929050565b5f602082840312156152dc576152db614c64565b5b5f6152e984828501614f59565b91505092915050565b5f6020820190506153055f830184614d6d565b92915050565b5f5f5f6060848603121561532257615321614c64565b5b5f61532f86828701614f59565b935050602061534086828701614f59565b925050604061535186828701614c8b565b9150509250925092565b5f60ff82169050919050565b6153708161535b565b82525050565b5f6020820190506153895f830184615367565b92915050565b5f81519050919050565b5f82825260208201905092915050565b5f819050602082019050919050565b6153c181614c6c565b82525050565b5f6153d283836153b8565b60208301905092915050565b5f602082019050919050565b5f6153f48261538f565b6153fe8185615399565b9350615409836153a9565b805f5b8381101561543957815161542088826153c7565b975061542b836153de565b92505060018101905061540c565b5085935050505092915050565b5f6020820190508181035f83015261545e81846153ea565b905092915050565b5f5f6040838503121561547c5761547b614c64565b5b5f61548985828601614f59565b925050602061549a85828601614f59565b9150509250929050565b50565b5f6154b25f83614d95565b91506154bd826154a4565b5f82019050919050565b5f6020820190508181035f8301526154de816154a7565b9050919050565b7f4e487b71000000000000000000000000000000000000000000000000000000005f52601160045260245ffd5b5f61551c82614c6c565b91507fffffffffffffffffffffffffffffffffffffffffffffffffffffffffffffffff820361554e5761554d6154e5565b5b600182019050919050565b7f4e487b71000000000000000000000000000000000000000000000000000000005f52602260045260245ffd5b5f600282049050600182168061559d57607f821691505b6020821081036155b0576155af615559565b5b50919050565b5f81519050919050565b5f81905092915050565b5f819050602082019050919050565b6155e281614d5c565b82525050565b5f6155f383836155d9565b60208301905092915050565b5f602082019050919050565b5f615615826155b6565b61561f81856155c0565b935061562a836155ca565b805f5b8381101561565a57815161564188826155e8565b975061564c836155ff565b92505060018101905061562d565b5085935050505092915050565b5f615672828461560b565b915081905092915050565b5f6040820190506156905f830185614d7c565b61569d6020830184614e06565b9392505050565b5f819050919050565b5f6156b7826156a4565b91506156c2836156a4565b92508282019050828112155f8312168382125f8412151617156156e8576156e76154e5565b5b92915050565b7f4e487b71000000000000000000000000000000000000000000000000000000005f52603260045260245ffd5b5f61572582614c6c565b915061573083614c6c565b9250828201905080821115615748576157476154e5565b5b92915050565b7f546172676574206e6f742077686974656c6973746564000000000000000000005f82015250565b5f615782601683614d95565b915061578d8261574e565b602082019050919050565b5f6020820190508181035f8301526157af81615776565b9050919050565b7f546172676574206e6f742066726f7a656e0000000000000000000000000000005f82015250565b5f6157ea601183614d95565b91506157f5826157b6565b602082019050919050565b5f6020820190508181035f830152615817816157de565b9050919050565b5f819050815f5260205f209050919050565b5f6020601f8301049050919050565b5f82821b905092915050565b5f6008830261587a7fffffffffffffffffffffffffffffffffffffffffffffffffffffffffffffffff8261583f565b615884868361583f565b95508019841693508086168417925050509392505050565b5f819050919050565b5f6158bf6158ba6158b584614c6c565b61589c565b614c6c565b9050919050565b5f819050919050565b6158d8836158a5565b6158ec6158e4826158c6565b84845461584b565b825550505050565b5f5f905090565b6159036158f4565b61590e8184846158cf565b505050565b5b81811015615931576159265f826158fb565b600181019050615914565b5050565b601f821115615976576159478161581e565b61595084615830565b8101602085101561595f578190505b61597361596b85615830565b830182615913565b50505b505050565b5f82821c905092915050565b5f6159965f198460080261597b565b1980831691505092915050565b5f6159ae8383615987565b9150826002028217905092915050565b6159c782614d8b565b67ffffffffffffffff8111156159e0576159df614e9c565b5b6159ea8254615586565b6159f5828285615935565b5f60209050601f831160018114615a26575f8415615a14578287015190505b615a1e85826159a3565b865550615a85565b601f198416615a348661581e565b5f5b82811015615a5b57848901518255600182019150602085019450602081019050615a36565b86831015615a785784890151615a74601f891682615987565b8355505b6001600288020188555050505b505050505050565b5f604082019050615aa05f830185614d2e565b615aad6020830184614d6d565b9392505050565b7f436f6e74726163742070617573656400000000000000000000000000000000005f82015250565b5f615ae8600f83614d95565b9150615af382615ab4565b602082019050919050565b5f6020820190508181035f830152615b1581615adc565b9050919050565b5f8154615b2881615586565b615b328186614d95565b9450600182165f8114615b4c5760018114615b6257615b94565b60ff198316865281151560200286019350615b94565b615b6b8561581e565b5f5b83811015615b8c57815481890152600182019150602081019050615b6d565b808801955050505b50505092915050565b5f6020820190508181035f830152615bb58184615b1c565b905092915050565b5f81549050919050565b5f82825260208201905092915050565b5f819050815f5260205f209050919050565b615bf281614d5c565b82525050565b5f615c038383615be9565b60208301905092915050565b5f815f1c9050919050565b5f73ffffffffffffffffffffffffffffffffffffffff82169050919050565b5f615c4b615c4683615c0f565b615c1a565b9050919050565b5f615c5d8254615c39565b9050919050565b5f600182019050919050565b5f615c7a82615bbd565b615c848185615bc7565b9350615c8f83615bd7565b805f5b83811015615cc657615ca382615c52565b615cad8882615bf8565b9750615cb883615c64565b925050600181019050615c92565b5085935050505092915050565b5f6040820190508181035f830152615ceb8185615c70565b90508181036020830152615cff8184615c70565b90509392505050565b7f57686974656c69737400000000000000000000000000000000000000000000005f82015250565b5f615d3c600983614d95565b9150615d4782615d08565b602082019050919050565b5f6040820190508181035f830152615d6981615d30565b9050615d786020830184614e06565b92915050565b7f467265657a6500000000000000000000000000000000000000000000000000005f82015250565b5f615db2600683614d95565b9150615dbd82615d7e565b602082019050919050565b5f6040820190508181035f830152615ddf81615da6565b9050615dee6020830184614e06565b92915050565b5f604082019050615e075f830185614d6d565b615e146020830184614d7c565b9392505050565b5f602082019050615e2e5f830184614d2e565b92915050565b5f615e3e82614c6c565b9150615e4983614c6c565b9250828202615e5781614c6c565b91508282048414831517615e6e57615e6d6154e5565b5b5092915050565b5f604082019050615e885f830185614d7c565b615e956020830184614d7c565b9392505050565b5f615ea682614c6c565b9150615eb183614c6c565b9250828203905081811115615ec957615ec86154e5565b5b92915050565b7f5265656e7472616e637947756172643a207265656e7472616e742063616c6c005f82015250565b5f615f03601f83614d95565b9150615f0e82615ecf565b602082019050919050565b5f6020820190508181035f830152615f3081615ef7565b9050919050565b5f606082019050615f4a5f830186614d6d565b615f576020830185614d7c565b615f646040830184614d7c565b94935050505056fea264697066735822122061edb58321025ae03ba7696d1f2d71bd7dc757898060cc96d244c3908a88e37b64736f6c634300081e0033",
			"opcodes": "PUSH1 0x80 PUSH1 0x40 MSTORE PUSH10 0x69E10DE76676D0800000 PUSH1 0x7 SSTORE CALLVALUE DUP1 ISZERO PUSH2 0x1D JUMPI PUSH0 PUSH0 REVERT JUMPDEST POP PUSH1 0x40 MLOAD PUSH2 0x6B73 CODESIZE SUB DUP1 PUSH2 0x6B73 DUP4 CODECOPY DUP2 DUP2 ADD PUSH1 0x40 MSTORE DUP2 ADD SWAP1 PUSH2 0x3F SWAP2 SWAP1 PUSH2 0x79B JUMP JUMPDEST CALLER DUP4 PUSH1 0x40 MLOAD DUP1 PUSH1 0x40 ADD PUSH1 0x40 MSTORE DUP1 PUSH1 0x2 DUP2 MSTORE PUSH1 0x20 ADD PUSH32 0x4343000000000000000000000000000000000000000000000000000000000000 DUP2 MSTORE POP DUP2 PUSH1 0x3 SWAP1 DUP2 PUSH2 0x86 SWAP2 SWAP1 PUSH2 0xA4F JUMP JUMPDEST POP DUP1 PUSH1 0x4 SWAP1 DUP2 PUSH2 0x96 SWAP2 SWAP1 PUSH2 0xA4F JUMP JUMPDEST POP POP POP PUSH0 PUSH20 0xFFFFFFFFFFFFFFFFFFFFFFFFFFFFFFFFFFFFFFFF AND DUP2 PUSH20 0xFFFFFFFFFFFFFFFFFFFFFFFFFFFFFFFFFFFFFFFF AND SUB PUSH2 0x109 JUMPI PUSH0 PUSH1 0x40 MLOAD PUSH32 0x1E4FBDF700000000000000000000000000000000000000000000000000000000 DUP2 MSTORE PUSH1 0x4 ADD PUSH2 0x100 SWAP2 SWAP1 PUSH2 0xB2D JUMP JUMPDEST PUSH1 0x40 MLOAD DUP1 SWAP2 SUB SWAP1 REVERT JUMPDEST PUSH2 0x118 DUP2 PUSH2 0x46D PUSH1 0x20 SHL PUSH1 0x20 SHR JUMP JUMPDEST POP PUSH1 0x1 PUSH1 0x6 DUP2 SWAP1 SSTORE POP PUSH0 DUP3 MLOAD GT PUSH2 0x164 JUMPI PUSH1 0x40 MLOAD PUSH32 0x8C379A000000000000000000000000000000000000000000000000000000000 DUP2 MSTORE PUSH1 0x4 ADD PUSH2 0x15B SWAP1 PUSH2 0xB79 JUMP JUMPDEST PUSH1 0x40 MLOAD DUP1 SWAP2 SUB SWAP1 REVERT JUMPDEST PUSH0 DUP2 MLOAD GT PUSH2 0x1A7 JUMPI PUSH1 0x40 MLOAD PUSH32 0x8C379A000000000000000000000000000000000000000000000000000000000 DUP2 MSTORE PUSH1 0x4 ADD PUSH2 0x19E SWAP1 PUSH2 0xB79 JUMP JUMPDEST PUSH1 0x40 MLOAD DUP1 SWAP2 SUB SWAP1 REVERT JUMPDEST PUSH0 PUSH0 SWAP1 POP JUMPDEST DUP3 MLOAD DUP2 LT ISZERO PUSH2 0x2B9 JUMPI PUSH0 PUSH20 0xFFFFFFFFFFFFFFFFFFFFFFFFFFFFFFFFFFFFFFFF AND DUP4 DUP3 DUP2 MLOAD DUP2 LT PUSH2 0x1DF JUMPI PUSH2 0x1DE PUSH2 0xB97 JUMP JUMPDEST JUMPDEST PUSH1 0x20 MUL PUSH1 0x20 ADD ADD MLOAD PUSH20 0xFFFFFFFFFFFFFFFFFFFFFFFFFFFFFFFFFFFFFFFF AND SUB PUSH2 0x23D JUMPI PUSH1 0x40 MLOAD PUSH32 0x8C379A000000000000000000000000000000000000000000000000000000000 DUP2 MSTORE PUSH1 0x4 ADD PUSH2 0x234 SWAP1 PUSH2 0xB79 JUMP JUMPDEST PUSH1 0x40 MLOAD DUP1 SWAP2 SUB SWAP1 REVERT JUMPDEST PUSH1 0x1 PUSH1 0x8 PUSH0 DUP6 DUP5 DUP2 MLOAD DUP2 LT PUSH2 0x255 JUMPI PUSH2 0x254 PUSH2 0xB97 JUMP JUMPDEST JUMPDEST PUSH1 0x20 MUL PUSH1 0x20 ADD ADD MLOAD PUSH20 0xFFFFFFFFFFFFFFFFFFFFFFFFFFFFFFFFFFFFFFFF AND PUSH20 0xFFFFFFFFFFFFFFFFFFFFFFFFFFFFFFFFFFFFFFFF AND DUP2 MSTORE PUSH1 0x20 ADD SWAP1 DUP2 MSTORE PUSH1 0x20 ADD PUSH0 KECCAK256 PUSH0 PUSH2 0x100 EXP DUP2 SLOAD DUP2 PUSH1 0xFF MUL NOT AND SWAP1 DUP4 ISZERO ISZERO MUL OR SWAP1 SSTORE POP DUP1 DUP1 PUSH1 0x1 ADD SWAP2 POP POP PUSH2 0x1AC JUMP JUMPDEST POP PUSH0 PUSH0 SWAP1 POP JUMPDEST DUP2 MLOAD DUP2 LT ISZERO PUSH2 0x446 JUMPI PUSH0 PUSH20 0xFFFFFFFFFFFFFFFFFFFFFFFFFFFFFFFFFFFFFFFF AND DUP3 DUP3 DUP2 MLOAD DUP2 LT PUSH2 0x2F2 JUMPI PUSH2 0x2F1 PUSH2 0xB97 JUMP JUMPDEST JUMPDEST PUSH1 0x20 MUL PUSH1 0x20 ADD ADD MLOAD PUSH20 0xFFFFFFFFFFFFFFFFFFFFFFFFFFFFFFFFFFFFFFFF AND SUB PUSH2 0x350 JUMPI PUSH1 0x40 MLOAD PUSH32 0x8C379A000000000000000000000000000000000000000000000000000000000 DUP2 MSTORE PUSH1 0x4 ADD PUSH2 0x347 SWAP1 PUSH2 0xB79 JUMP JUMPDEST PUSH1 0x40 MLOAD DUP1 SWAP2 SUB SWAP1 REVERT JUMPDEST PUSH1 0x1 PUSH1 0xC PUSH0 DUP5 DUP5 DUP2 MLOAD DUP2 LT PUSH2 0x368 JUMPI PUSH2 0x367 PUSH2 0xB97 JUMP JUMPDEST JUMPDEST PUSH1 0x20 MUL PUSH1 0x20 ADD ADD MLOAD PUSH20 0xFFFFFFFFFFFFFFFFFFFFFFFFFFFFFFFFFFFFFFFF AND PUSH20 0xFFFFFFFFFFFFFFFFFFFFFFFFFFFFFFFFFFFFFFFF AND DUP2 MSTORE PUSH1 0x20 ADD SWAP1 DUP2 MSTORE PUSH1 0x20 ADD PUSH0 KECCAK256 PUSH0 PUSH2 0x100 EXP DUP2 SLOAD DUP2 PUSH1 0xFF MUL NOT AND SWAP1 DUP4 ISZERO ISZERO MUL OR SWAP1 SSTORE POP PUSH1 0xE DUP3 DUP3 DUP2 MLOAD DUP2 LT PUSH2 0x3D4 JUMPI PUSH2 0x3D3 PUSH2 0xB97 JUMP JUMPDEST JUMPDEST PUSH1 0x20 MUL PUSH1 0x20 ADD ADD MLOAD SWAP1 DUP1 PUSH1 0x1 DUP2 SLOAD ADD DUP1 DUP3 SSTORE DUP1 SWAP2 POP POP PUSH1 0x1 SWAP1 SUB SWAP1 PUSH0 MSTORE PUSH1 0x20 PUSH0 KECCAK256 ADD PUSH0 SWAP1 SWAP2 SWAP1 SWAP2 SWAP1 SWAP2 PUSH2 0x100 EXP DUP2 SLOAD DUP2 PUSH20 0xFFFFFFFFFFFFFFFFFFFFFFFFFFFFFFFFFFFFFFFF MUL NOT AND SWAP1 DUP4 PUSH20 0xFFFFFFFFFFFFFFFFFFFFFFFFFFFFFFFFFFFFFFFF AND MUL OR SWAP1 SSTORE POP DUP1 DUP1 PUSH1 0x1 ADD SWAP2 POP POP PUSH2 0x2BF JUMP JUMPDEST POP DUP3 PUSH1 0xB SWAP1 DUP2 PUSH2 0x456 SWAP2 SWAP1 PUSH2 0xA4F JUMP JUMPDEST POP TIMESTAMP PUSH1 0x12 DUP2 SWAP1 SSTORE POP TIMESTAMP PUSH1 0x13 DUP2 SWAP1 SSTORE POP POP POP POP PUSH2 0xBC4 JUMP JUMPDEST PUSH0 PUSH1 0x5 PUSH0 SWAP1 SLOAD SWAP1 PUSH2 0x100 EXP SWAP1 DIV PUSH20 0xFFFFFFFFFFFFFFFFFFFFFFFFFFFFFFFFFFFFFFFF AND SWAP1 POP DUP2 PUSH1 0x5 PUSH0 PUSH2 0x100 EXP DUP2 SLOAD DUP2 PUSH20 0xFFFFFFFFFFFFFFFFFFFFFFFFFFFFFFFFFFFFFFFF MUL NOT AND SWAP1 DUP4 PUSH20 0xFFFFFFFFFFFFFFFFFFFFFFFFFFFFFFFFFFFFFFFF AND MUL OR SWAP1 SSTORE POP DUP2 PUSH20 0xFFFFFFFFFFFFFFFFFFFFFFFFFFFFFFFFFFFFFFFF AND DUP2 PUSH20 0xFFFFFFFFFFFFFFFFFFFFFFFFFFFFFFFFFFFFFFFF AND PUSH32 0x8BE0079C531659141344CD1FD0A4F28419497F9722A3DAAFE3B4186F6B6457E0 PUSH1 0x40 MLOAD PUSH1 0x40 MLOAD DUP1 SWAP2 SUB SWAP1 LOG3 POP POP JUMP JUMPDEST PUSH0 PUSH1 0x40 MLOAD SWAP1 POP SWAP1 JUMP JUMPDEST PUSH0 PUSH0 REVERT JUMPDEST PUSH0 PUSH0 REVERT JUMPDEST PUSH0 PUSH0 REVERT JUMPDEST PUSH0 PUSH0 REVERT JUMPDEST PUSH0 PUSH1 0x1F NOT PUSH1 0x1F DUP4 ADD AND SWAP1 POP SWAP2 SWAP1 POP JUMP JUMPDEST PUSH32 0x4E487B7100000000000000000000000000000000000000000000000000000000 PUSH0 MSTORE PUSH1 0x41 PUSH1 0x4 MSTORE PUSH1 0x24 PUSH0 REVERT JUMPDEST PUSH2 0x58F DUP3 PUSH2 0x549 JUMP JUMPDEST DUP2 ADD DUP2 DUP2 LT PUSH8 0xFFFFFFFFFFFFFFFF DUP3 GT OR ISZERO PUSH2 0x5AE JUMPI PUSH2 0x5AD PUSH2 0x559 JUMP JUMPDEST JUMPDEST DUP1 PUSH1 0x40 MSTORE POP POP POP JUMP JUMPDEST PUSH0 PUSH2 0x5C0 PUSH2 0x530 JUMP JUMPDEST SWAP1 POP PUSH2 0x5CC DUP3 DUP3 PUSH2 0x586 JUMP JUMPDEST SWAP2 SWAP1 POP JUMP JUMPDEST PUSH0 PUSH8 0xFFFFFFFFFFFFFFFF DUP3 GT ISZERO PUSH2 0x5EB JUMPI PUSH2 0x5EA PUSH2 0x559 JUMP JUMPDEST JUMPDEST PUSH2 0x5F4 DUP3 PUSH2 0x549 JUMP JUMPDEST SWAP1 POP PUSH1 0x20 DUP2 ADD SWAP1 POP SWAP2 SWAP1 POP JUMP JUMPDEST DUP3 DUP2 DUP4 MCOPY PUSH0 DUP4 DUP4 ADD MSTORE POP POP POP JUMP JUMPDEST PUSH0 PUSH2 0x621 PUSH2 0x61C DUP5 PUSH2 0x5D1 JUMP JUMPDEST PUSH2 0x5B7 JUMP JUMPDEST SWAP1 POP DUP3 DUP2 MSTORE PUSH1 0x20 DUP2 ADD DUP5 DUP5 DUP5 ADD GT ISZERO PUSH2 0x63D JUMPI PUSH2 0x63C PUSH2 0x545 JUMP JUMPDEST JUMPDEST PUSH2 0x648 DUP5 DUP3 DUP6 PUSH2 0x601 JUMP JUMPDEST POP SWAP4 SWAP3 POP POP POP JUMP JUMPDEST PUSH0 DUP3 PUSH1 0x1F DUP4 ADD SLT PUSH2 0x664 JUMPI PUSH2 0x663 PUSH2 0x541 JUMP JUMPDEST JUMPDEST DUP2 MLOAD PUSH2 0x674 DUP5 DUP3 PUSH1 0x20 DUP7 ADD PUSH2 0x60F JUMP JUMPDEST SWAP2 POP POP SWAP3 SWAP2 POP POP JUMP JUMPDEST PUSH0 PUSH8 0xFFFFFFFFFFFFFFFF DUP3 GT ISZERO PUSH2 0x697 JUMPI PUSH2 0x696 PUSH2 0x559 JUMP JUMPDEST JUMPDEST PUSH1 0x20 DUP3 MUL SWAP1 POP PUSH1 0x20 DUP2 ADD SWAP1 POP SWAP2 SWAP1 POP JUMP JUMPDEST PUSH0 PUSH0 REVERT JUMPDEST PUSH0 PUSH20 0xFFFFFFFFFFFFFFFFFFFFFFFFFFFFFFFFFFFFFFFF DUP3 AND SWAP1 POP SWAP2 SWAP1 POP JUMP JUMPDEST PUSH0 PUSH2 0x6D5 DUP3 PUSH2 0x6AC JUMP JUMPDEST SWAP1 POP SWAP2 SWAP1 POP JUMP JUMPDEST PUSH2 0x6E5 DUP2 PUSH2 0x6CB JUMP JUMPDEST DUP2 EQ PUSH2 0x6EF JUMPI PUSH0 PUSH0 REVERT JUMPDEST POP JUMP JUMPDEST PUSH0 DUP2 MLOAD SWAP1 POP PUSH2 0x700 DUP2 PUSH2 0x6DC JUMP JUMPDEST SWAP3 SWAP2 POP POP JUMP JUMPDEST PUSH0 PUSH2 0x718 PUSH2 0x713 DUP5 PUSH2 0x67D JUMP JUMPDEST PUSH2 0x5B7 JUMP JUMPDEST SWAP1 POP DUP1 DUP4 DUP3 MSTORE PUSH1 0x20 DUP3 ADD SWAP1 POP PUSH1 0x20 DUP5 MUL DUP4 ADD DUP6 DUP2 GT ISZERO PUSH2 0x73B JUMPI PUSH2 0x73A PUSH2 0x6A8 JUMP JUMPDEST JUMPDEST DUP4 JUMPDEST DUP2 DUP2 LT ISZERO PUSH2 0x764 JUMPI DUP1 PUSH2 0x750 DUP9 DUP3 PUSH2 0x6F2 JUMP JUMPDEST DUP5 MSTORE PUSH1 0x20 DUP5 ADD SWAP4 POP POP PUSH1 0x20 DUP2 ADD SWAP1 POP PUSH2 0x73D JUMP JUMPDEST POP POP POP SWAP4 SWAP3 POP POP POP JUMP JUMPDEST PUSH0 DUP3 PUSH1 0x1F DUP4 ADD SLT PUSH2 0x782 JUMPI PUSH2 0x781 PUSH2 0x541 JUMP JUMPDEST JUMPDEST DUP2 MLOAD PUSH2 0x792 DUP5 DUP3 PUSH1 0x20 DUP7 ADD PUSH2 0x706 JUMP JUMPDEST SWAP2 POP POP SWAP3 SWAP2 POP POP JUMP JUMPDEST PUSH0 PUSH0 PUSH0 PUSH1 0x60 DUP5 DUP7 SUB SLT ISZERO PUSH2 0x7B2 JUMPI PUSH2 0x7B1 PUSH2 0x539 JUMP JUMPDEST JUMPDEST PUSH0 DUP5 ADD MLOAD PUSH8 0xFFFFFFFFFFFFFFFF DUP2 GT ISZERO PUSH2 0x7CF JUMPI PUSH2 0x7CE PUSH2 0x53D JUMP JUMPDEST JUMPDEST PUSH2 0x7DB DUP7 DUP3 DUP8 ADD PUSH2 0x650 JUMP JUMPDEST SWAP4 POP POP PUSH1 0x20 DUP5 ADD MLOAD PUSH8 0xFFFFFFFFFFFFFFFF DUP2 GT ISZERO PUSH2 0x7FC JUMPI PUSH2 0x7FB PUSH2 0x53D JUMP JUMPDEST JUMPDEST PUSH2 0x808 DUP7 DUP3 DUP8 ADD PUSH2 0x76E JUMP JUMPDEST SWAP3 POP POP PUSH1 0x40 DUP5 ADD MLOAD PUSH8 0xFFFFFFFFFFFFFFFF DUP2 GT ISZERO PUSH2 0x829 JUMPI PUSH2 0x828 PUSH2 0x53D JUMP JUMPDEST JUMPDEST PUSH2 0x835 DUP7 DUP3 DUP8 ADD PUSH2 0x76E JUMP JUMPDEST SWAP2 POP POP SWAP3 POP SWAP3 POP SWAP3 JUMP JUMPDEST PUSH0 DUP2 MLOAD SWAP1 POP SWAP2 SWAP1 POP JUMP JUMPDEST PUSH32 0x4E487B7100000000000000000000000000000000000000000000000000000000 PUSH0 MSTORE PUSH1 0x22 PUSH1 0x4 MSTORE PUSH1 0x24 PUSH0 REVERT JUMPDEST PUSH0 PUSH1 0x2 DUP3 DIV SWAP1 POP PUSH1 0x1 DUP3 AND DUP1 PUSH2 0x88D JUMPI PUSH1 0x7F DUP3 AND SWAP2 POP JUMPDEST PUSH1 0x20 DUP3 LT DUP2 SUB PUSH2 0x8A0 JUMPI PUSH2 0x89F PUSH2 0x849 JUMP JUMPDEST JUMPDEST POP SWAP2 SWAP1 POP JUMP JUMPDEST PUSH0 DUP2 SWAP1 POP DUP2 PUSH0 MSTORE PUSH1 0x20 PUSH0 KECCAK256 SWAP1 POP SWAP2 SWAP1 POP JUMP JUMPDEST PUSH0 PUSH1 0x20 PUSH1 0x1F DUP4 ADD DIV SWAP1 POP SWAP2 SWAP1 POP JUMP JUMPDEST PUSH0 DUP3 DUP3 SHL SWAP1 POP SWAP3 SWAP2 POP POP JUMP JUMPDEST PUSH0 PUSH1 0x8 DUP4 MUL PUSH2 0x902 PUSH32 0xFFFFFFFFFFFFFFFFFFFFFFFFFFFFFFFFFFFFFFFFFFFFFFFFFFFFFFFFFFFFFFFF DUP3 PUSH2 0x8C7 JUMP JUMPDEST PUSH2 0x90C DUP7 DUP4 PUSH2 0x8C7 JUMP JUMPDEST SWAP6 POP DUP1 NOT DUP5 AND SWAP4 POP DUP1 DUP7 AND DUP5 OR SWAP3 POP POP POP SWAP4 SWAP3 POP POP POP JUMP JUMPDEST PUSH0 DUP2 SWAP1 POP SWAP2 SWAP1 POP JUMP JUMPDEST PUSH0 DUP2 SWAP1 POP SWAP2 SWAP1 POP JUMP JUMPDEST PUSH0 PUSH2 0x950 PUSH2 0x94B PUSH2 0x946 DUP5 PUSH2 0x924 JUMP JUMPDEST PUSH2 0x92D JUMP JUMPDEST PUSH2 0x924 JUMP JUMPDEST SWAP1 POP SWAP2 SWAP1 POP JUMP JUMPDEST PUSH0 DUP2 SWAP1 POP SWAP2 SWAP1 POP JUMP JUMPDEST PUSH2 0x969 DUP4 PUSH2 0x936 JUMP JUMPDEST PUSH2 0x97D PUSH2 0x975 DUP3 PUSH2 0x957 JUMP JUMPDEST DUP5 DUP5 SLOAD PUSH2 0x8D3 JUMP JUMPDEST DUP3 SSTORE POP POP POP POP JUMP JUMPDEST PUSH0 PUSH0 SWAP1 POP SWAP1 JUMP JUMPDEST PUSH2 0x994 PUSH2 0x985 JUMP JUMPDEST PUSH2 0x99F DUP2 DUP5 DUP5 PUSH2 0x960 JUMP JUMPDEST POP POP POP JUMP JUMPDEST JUMPDEST DUP2 DUP2 LT ISZERO PUSH2 0x9C2 JUMPI PUSH2 0x9B7 PUSH0 DUP3 PUSH2 0x98C JUMP JUMPDEST PUSH1 0x1 DUP2 ADD SWAP1 POP PUSH2 0x9A5 JUMP JUMPDEST POP POP JUMP JUMPDEST PUSH1 0x1F DUP3 GT ISZERO PUSH2 0xA07 JUMPI PUSH2 0x9D8 DUP2 PUSH2 0x8A6 JUMP JUMPDEST PUSH2 0x9E1 DUP5 PUSH2 0x8B8 JUMP JUMPDEST DUP2 ADD PUSH1 0x20 DUP6 LT ISZERO PUSH2 0x9F0 JUMPI DUP2 SWAP1 POP JUMPDEST PUSH2 0xA04 PUSH2 0x9FC DUP6 PUSH2 0x8B8 JUMP JUMPDEST DUP4 ADD DUP3 PUSH2 0x9A4 JUMP JUMPDEST POP POP JUMPDEST POP POP POP JUMP JUMPDEST PUSH0 DUP3 DUP3 SHR SWAP1 POP SWAP3 SWAP2 POP POP JUMP JUMPDEST PUSH0 PUSH2 0xA27 PUSH0 NOT DUP5 PUSH1 0x8 MUL PUSH2 0xA0C JUMP JUMPDEST NOT DUP1 DUP4 AND SWAP2 POP POP SWAP3 SWAP2 POP POP JUMP JUMPDEST PUSH0 PUSH2 0xA3F DUP4 DUP4 PUSH2 0xA18 JUMP JUMPDEST SWAP2 POP DUP3 PUSH1 0x2 MUL DUP3 OR SWAP1 POP SWAP3 SWAP2 POP POP JUMP JUMPDEST PUSH2 0xA58 DUP3 PUSH2 0x83F JUMP JUMPDEST PUSH8 0xFFFFFFFFFFFFFFFF DUP2 GT ISZERO PUSH2 0xA71 JUMPI PUSH2 0xA70 PUSH2 0x559 JUMP JUMPDEST JUMPDEST PUSH2 0xA7B DUP3 SLOAD PUSH2 0x876 JUMP JUMPDEST PUSH2 0xA86 DUP3 DUP3 DUP6 PUSH2 0x9C6 JUMP JUMPDEST PUSH0 PUSH1 0x20 SWAP1 POP PUSH1 0x1F DUP4 GT PUSH1 0x1 DUP2 EQ PUSH2 0xAB7 JUMPI PUSH0 DUP5 ISZERO PUSH2 0xAA5 JUMPI DUP3 DUP8 ADD MLOAD SWAP1 POP JUMPDEST PUSH2 0xAAF DUP6 DUP3 PUSH2 0xA34 JUMP JUMPDEST DUP7 SSTORE POP PUSH2 0xB16 JUMP JUMPDEST PUSH1 0x1F NOT DUP5 AND PUSH2 0xAC5 DUP7 PUSH2 0x8A6 JUMP JUMPDEST PUSH0 JUMPDEST DUP3 DUP2 LT ISZERO PUSH2 0xAEC JUMPI DUP5 DUP10 ADD MLOAD DUP3 SSTORE PUSH1 0x1 DUP3 ADD SWAP2 POP PUSH1 0x20 DUP6 ADD SWAP5 POP PUSH1 0x20 DUP2 ADD SWAP1 POP PUSH2 0xAC7 JUMP JUMPDEST DUP7 DUP4 LT ISZERO PUSH2 0xB09 JUMPI DUP5 DUP10 ADD MLOAD PUSH2 0xB05 PUSH1 0x1F DUP10 AND DUP3 PUSH2 0xA18 JUMP JUMPDEST DUP4 SSTORE POP JUMPDEST PUSH1 0x1 PUSH1 0x2 DUP9 MUL ADD DUP9 SSTORE POP POP POP JUMPDEST POP POP POP POP POP POP JUMP JUMPDEST PUSH2 0xB27 DUP2 PUSH2 0x6CB JUMP JUMPDEST DUP3 MSTORE POP POP JUMP JUMPDEST PUSH0 PUSH1 0x20 DUP3 ADD SWAP1 POP PUSH2 0xB40 PUSH0 DUP4 ADD DUP5 PUSH2 0xB1E JUMP JUMPDEST SWAP3 SWAP2 POP POP JUMP JUMPDEST PUSH0 DUP3 DUP3 MSTORE PUSH1 0x20 DUP3 ADD SWAP1 POP SWAP3 SWAP2 POP POP JUMP JUMPDEST POP JUMP JUMPDEST PUSH0 PUSH2 0xB64 PUSH0 DUP4 PUSH2 0xB46 JUMP JUMPDEST SWAP2 POP PUSH2 0xB6F DUP3 PUSH2 0xB56 JUMP JUMPDEST PUSH0 DUP3 ADD SWAP1 POP SWAP2 SWAP1 POP JUMP JUMPDEST PUSH0 PUSH1 0x20 DUP3 ADD SWAP1 POP DUP2 DUP2 SUB PUSH0 DUP4 ADD MSTORE PUSH2 0xB90 DUP2 PUSH2 0xB59 JUMP JUMPDEST SWAP1 POP SWAP2 SWAP1 POP JUMP JUMPDEST PUSH32 0x4E487B7100000000000000000000000000000000000000000000000000000000 PUSH0 MSTORE PUSH1 0x32 PUSH1 0x4 MSTORE PUSH1 0x24 PUSH0 REVERT JUMPDEST PUSH2 0x5FA2 DUP1 PUSH2 0xBD1 PUSH0 CODECOPY PUSH0 RETURN INVALID PUSH1 0x80 PUSH1 0x40 MSTORE CALLVALUE DUP1 ISZERO PUSH2 0xF JUMPI PUSH0 PUSH0 REVERT JUMPDEST POP PUSH1 0x4 CALLDATASIZE LT PUSH2 0x35B JUMPI PUSH0 CALLDATALOAD PUSH1 0xE0 SHR DUP1 PUSH4 0x715018A6 GT PUSH2 0x1D1 JUMPI DUP1 PUSH4 0xAE66C9EA GT PUSH2 0x102 JUMPI DUP1 PUSH4 0xDD62ED3E GT PUSH2 0xA0 JUMPI DUP1 PUSH4 0xF2FDE38B GT PUSH2 0x7A JUMPI DUP1 PUSH4 0xF2FDE38B EQ PUSH2 0x9D8 JUMPI DUP1 PUSH4 0xF36E32CC EQ PUSH2 0x9F4 JUMPI DUP1 PUSH4 0xF3CDCD1E EQ PUSH2 0xA12 JUMPI DUP1 PUSH4 0xFF8F164F EQ PUSH2 0xA1C JUMPI PUSH2 0x35B JUMP JUMPDEST DUP1 PUSH4 0xDD62ED3E EQ PUSH2 0x95C JUMPI DUP1 PUSH4 0xE0A8F6F5 EQ PUSH2 0x98C JUMPI DUP1 PUSH4 0xE5839836 EQ PUSH2 0x9A8 JUMPI PUSH2 0x35B JUMP JUMPDEST DUP1 PUSH4 0xC4BC5DA5 GT PUSH2 0xDC JUMPI DUP1 PUSH4 0xC4BC5DA5 EQ PUSH2 0x8E8 JUMPI DUP1 PUSH4 0xCB7A11C2 EQ PUSH2 0x8F2 JUMPI DUP1 PUSH4 0xD0516650 EQ PUSH2 0x90E JUMPI DUP1 PUSH4 0xDA0239A6 EQ PUSH2 0x93E JUMPI PUSH2 0x35B JUMP JUMPDEST DUP1 PUSH4 0xAE66C9EA EQ PUSH2 0x88E JUMPI DUP1 PUSH4 0xB5FC35CE EQ PUSH2 0x8AC JUMPI DUP1 PUSH4 0xC08CC02D EQ PUSH2 0x8CA JUMPI PUSH2 0x35B JUMP JUMPDEST DUP1 PUSH4 0x902D55A5 GT PUSH2 0x16F JUMPI DUP1 PUSH4 0xA3EC138D GT PUSH2 0x149 JUMPI DUP1 PUSH4 0xA3EC138D EQ PUSH2 0x7F2 JUMPI DUP1 PUSH4 0xA9059CBB EQ PUSH2 0x822 JUMPI DUP1 PUSH4 0xABA63705 EQ PUSH2 0x852 JUMPI DUP1 PUSH4 0xACA9F472 EQ PUSH2 0x870 JUMPI PUSH2 0x35B JUMP JUMPDEST DUP1 PUSH4 0x902D55A5 EQ PUSH2 0x786 JUMPI DUP1 PUSH4 0x95D89B41 EQ PUSH2 0x7A4 JUMPI DUP1 PUSH4 0x9B19251A EQ PUSH2 0x7C2 JUMPI PUSH2 0x35B JUMP JUMPDEST DUP1 PUSH4 0x7C224D64 GT PUSH2 0x1AB JUMPI DUP1 PUSH4 0x7C224D64 EQ PUSH2 0x722 JUMPI DUP1 PUSH4 0x80E79A36 EQ PUSH2 0x740 JUMPI DUP1 PUSH4 0x8A67456A EQ PUSH2 0x74A JUMPI DUP1 PUSH4 0x8DA5CB5B EQ PUSH2 0x768 JUMPI PUSH2 0x35B JUMP JUMPDEST DUP1 PUSH4 0x715018A6 EQ PUSH2 0x6DE JUMPI DUP1 PUSH4 0x72CE73AB EQ PUSH2 0x6E8 JUMPI DUP1 PUSH4 0x7AFDF93E EQ PUSH2 0x718 JUMPI PUSH2 0x35B JUMP JUMPDEST DUP1 PUSH4 0x20950933 GT PUSH2 0x2AB JUMPI DUP1 PUSH4 0x439766CE GT PUSH2 0x249 JUMPI DUP1 PUSH4 0x5C975ABB GT PUSH2 0x223 JUMPI DUP1 PUSH4 0x5C975ABB EQ PUSH2 0x654 JUMPI DUP1 PUSH4 0x6290865D EQ PUSH2 0x672 JUMPI DUP1 PUSH4 0x6C02A931 EQ PUSH2 0x690 JUMPI DUP1 PUSH4 0x70A08231 EQ PUSH2 0x6AE JUMPI PUSH2 0x35B JUMP JUMPDEST DUP1 PUSH4 0x439766CE EQ PUSH2 0x60E JUMPI DUP1 PUSH4 0x54FD4D50 EQ PUSH2 0x618 JUMPI DUP1 PUSH4 0x5584C4F9 EQ PUSH2 0x636 JUMPI PUSH2 0x35B JUMP JUMPDEST DUP1 PUSH4 0x2DE56555 GT PUSH2 0x285 JUMPI DUP1 PUSH4 0x2DE56555 EQ PUSH2 0x584 JUMPI DUP1 PUSH4 0x302C464A EQ PUSH2 0x5A2 JUMPI DUP1 PUSH4 0x313CE567 EQ PUSH2 0x5C0 JUMPI DUP1 PUSH4 0x43859632 EQ PUSH2 0x5DE JUMPI PUSH2 0x35B JUMP JUMPDEST DUP1 PUSH4 0x20950933 EQ PUSH2 0x518 JUMPI DUP1 PUSH4 0x23B872DD EQ PUSH2 0x536 JUMPI DUP1 PUSH4 0x2D380242 EQ PUSH2 0x566 JUMPI PUSH2 0x35B JUMP JUMPDEST DUP1 PUSH4 0xD4EFA4F GT PUSH2 0x318 JUMPI DUP1 PUSH4 0x12CAE7AF GT PUSH2 0x2F2 JUMPI DUP1 PUSH4 0x12CAE7AF EQ PUSH2 0x48E JUMPI DUP1 PUSH4 0x134E18F4 EQ PUSH2 0x4BE JUMPI DUP1 PUSH4 0x14A8BD0D EQ PUSH2 0x4DC JUMPI DUP1 PUSH4 0x18160DDD EQ PUSH2 0x4FA JUMPI PUSH2 0x35B JUMP JUMPDEST DUP1 PUSH4 0xD4EFA4F EQ PUSH2 0x43A JUMPI DUP1 PUSH4 0xD61B519 EQ PUSH2 0x456 JUMPI DUP1 PUSH4 0xFE2ABCF EQ PUSH2 0x472 JUMPI PUSH2 0x35B JUMP JUMPDEST DUP1 PUSH4 0x121B93F EQ PUSH2 0x35F JUMPI DUP1 PUSH4 0x13CF08B EQ PUSH2 0x37B JUMPI DUP1 PUSH4 0x51069E3 EQ PUSH2 0x3B2 JUMPI DUP1 PUSH4 0x6FDDE03 EQ PUSH2 0x3CE JUMPI DUP1 PUSH4 0x8B26B75 EQ PUSH2 0x3EC JUMPI DUP1 PUSH4 0x95EA7B3 EQ PUSH2 0x40A JUMPI JUMPDEST PUSH0 PUSH0 REVERT JUMPDEST PUSH2 0x379 PUSH1 0x4 DUP1 CALLDATASIZE SUB DUP2 ADD SWAP1 PUSH2 0x374 SWAP2 SWAP1 PUSH2 0x4C9F JUMP JUMPDEST PUSH2 0xA3A JUMP JUMPDEST STOP JUMPDEST PUSH2 0x395 PUSH1 0x4 DUP1 CALLDATASIZE SUB DUP2 ADD SWAP1 PUSH2 0x390 SWAP2 SWAP1 PUSH2 0x4C9F JUMP JUMPDEST PUSH2 0xE37 JUMP JUMPDEST PUSH1 0x40 MLOAD PUSH2 0x3A9 SWAP9 SWAP8 SWAP7 SWAP6 SWAP5 SWAP4 SWAP3 SWAP2 SWAP1 PUSH2 0x4E15 JUMP JUMPDEST PUSH1 0x40 MLOAD DUP1 SWAP2 SUB SWAP1 RETURN JUMPDEST PUSH2 0x3CC PUSH1 0x4 DUP1 CALLDATASIZE SUB DUP2 ADD SWAP1 PUSH2 0x3C7 SWAP2 SWAP1 PUSH2 0x5002 JUMP JUMPDEST PUSH2 0xF57 JUMP JUMPDEST STOP JUMPDEST PUSH2 0x3D6 PUSH2 0x10AE JUMP JUMPDEST PUSH1 0x40 MLOAD PUSH2 0x3E3 SWAP2 SWAP1 PUSH2 0x5049 JUMP JUMPDEST PUSH1 0x40 MLOAD DUP1 SWAP2 SUB SWAP1 RETURN JUMPDEST PUSH2 0x3F4 PUSH2 0x113E JUMP JUMPDEST PUSH1 0x40 MLOAD PUSH2 0x401 SWAP2 SWAP1 PUSH2 0x5069 JUMP JUMPDEST PUSH1 0x40 MLOAD DUP1 SWAP2 SUB SWAP1 RETURN JUMPDEST PUSH2 0x424 PUSH1 0x4 DUP1 CALLDATASIZE SUB DUP2 ADD SWAP1 PUSH2 0x41F SWAP2 SWAP1 PUSH2 0x5082 JUMP JUMPDEST PUSH2 0x1144 JUMP JUMPDEST PUSH1 0x40 MLOAD PUSH2 0x431 SWAP2 SWAP1 PUSH2 0x50C0 JUMP JUMPDEST PUSH1 0x40 MLOAD DUP1 SWAP2 SUB SWAP1 RETURN JUMPDEST PUSH2 0x454 PUSH1 0x4 DUP1 CALLDATASIZE SUB DUP2 ADD SWAP1 PUSH2 0x44F SWAP2 SWAP1 PUSH2 0x51AC JUMP JUMPDEST PUSH2 0x1166 JUMP JUMPDEST STOP JUMPDEST PUSH2 0x470 PUSH1 0x4 DUP1 CALLDATASIZE SUB DUP2 ADD SWAP1 PUSH2 0x46B SWAP2 SWAP1 PUSH2 0x4C9F JUMP JUMPDEST PUSH2 0x1DF2 JUMP JUMPDEST STOP JUMPDEST PUSH2 0x48C PUSH1 0x4 DUP1 CALLDATASIZE SUB DUP2 ADD SWAP1 PUSH2 0x487 SWAP2 SWAP1 PUSH2 0x5289 JUMP JUMPDEST PUSH2 0x2A44 JUMP JUMPDEST STOP JUMPDEST PUSH2 0x4A8 PUSH1 0x4 DUP1 CALLDATASIZE SUB DUP2 ADD SWAP1 PUSH2 0x4A3 SWAP2 SWAP1 PUSH2 0x52C7 JUMP JUMPDEST PUSH2 0x2CA1 JUMP JUMPDEST PUSH1 0x40 MLOAD PUSH2 0x4B5 SWAP2 SWAP1 PUSH2 0x5069 JUMP JUMPDEST PUSH1 0x40 MLOAD DUP1 SWAP2 SUB SWAP1 RETURN JUMPDEST PUSH2 0x4C6 PUSH2 0x2CB2 JUMP JUMPDEST PUSH1 0x40 MLOAD PUSH2 0x4D3 SWAP2 SWAP1 PUSH2 0x52F2 JUMP JUMPDEST PUSH1 0x40 MLOAD DUP1 SWAP2 SUB SWAP1 RETURN JUMPDEST PUSH2 0x4E4 PUSH2 0x2CB9 JUMP JUMPDEST PUSH1 0x40 MLOAD PUSH2 0x4F1 SWAP2 SWAP1 PUSH2 0x5069 JUMP JUMPDEST PUSH1 0x40 MLOAD DUP1 SWAP2 SUB SWAP1 RETURN JUMPDEST PUSH2 0x502 PUSH2 0x2CBE JUMP JUMPDEST PUSH1 0x40 MLOAD PUSH2 0x50F SWAP2 SWAP1 PUSH2 0x5069 JUMP JUMPDEST PUSH1 0x40 MLOAD DUP1 SWAP2 SUB SWAP1 RETURN JUMPDEST PUSH2 0x520 PUSH2 0x2CC7 JUMP JUMPDEST PUSH1 0x40 MLOAD PUSH2 0x52D SWAP2 SWAP1 PUSH2 0x5069 JUMP JUMPDEST PUSH1 0x40 MLOAD DUP1 SWAP2 SUB SWAP1 RETURN JUMPDEST PUSH2 0x550 PUSH1 0x4 DUP1 CALLDATASIZE SUB DUP2 ADD SWAP1 PUSH2 0x54B SWAP2 SWAP1 PUSH2 0x530B JUMP JUMPDEST PUSH2 0x2CCD JUMP JUMPDEST PUSH1 0x40 MLOAD PUSH2 0x55D SWAP2 SWAP1 PUSH2 0x50C0 JUMP JUMPDEST PUSH1 0x40 MLOAD DUP1 SWAP2 SUB SWAP1 RETURN JUMPDEST PUSH2 0x56E PUSH2 0x2E10 JUMP JUMPDEST PUSH1 0x40 MLOAD PUSH2 0x57B SWAP2 SWAP1 PUSH2 0x5069 JUMP JUMPDEST PUSH1 0x40 MLOAD DUP1 SWAP2 SUB SWAP1 RETURN JUMPDEST PUSH2 0x58C PUSH2 0x2E16 JUMP JUMPDEST PUSH1 0x40 MLOAD PUSH2 0x599 SWAP2 SWAP1 PUSH2 0x5069 JUMP JUMPDEST PUSH1 0x40 MLOAD DUP1 SWAP2 SUB SWAP1 RETURN JUMPDEST PUSH2 0x5AA PUSH2 0x2E1B JUMP JUMPDEST PUSH1 0x40 MLOAD PUSH2 0x5B7 SWAP2 SWAP1 PUSH2 0x5069 JUMP JUMPDEST PUSH1 0x40 MLOAD DUP1 SWAP2 SUB SWAP1 RETURN JUMPDEST PUSH2 0x5C8 PUSH2 0x2E20 JUMP JUMPDEST PUSH1 0x40 MLOAD PUSH2 0x5D5 SWAP2 SWAP1 PUSH2 0x5376 JUMP JUMPDEST PUSH1 0x40 MLOAD DUP1 SWAP2 SUB SWAP1 RETURN JUMPDEST PUSH2 0x5F8 PUSH1 0x4 DUP1 CALLDATASIZE SUB DUP2 ADD SWAP1 PUSH2 0x5F3 SWAP2 SWAP1 PUSH2 0x5289 JUMP JUMPDEST PUSH2 0x2E27 JUMP JUMPDEST PUSH1 0x40 MLOAD PUSH2 0x605 SWAP2 SWAP1 PUSH2 0x50C0 JUMP JUMPDEST PUSH1 0x40 MLOAD DUP1 SWAP2 SUB SWAP1 RETURN JUMPDEST PUSH2 0x616 PUSH2 0x2E51 JUMP JUMPDEST STOP JUMPDEST PUSH2 0x620 PUSH2 0x2F73 JUMP JUMPDEST PUSH1 0x40 MLOAD PUSH2 0x62D SWAP2 SWAP1 PUSH2 0x5049 JUMP JUMPDEST PUSH1 0x40 MLOAD DUP1 SWAP2 SUB SWAP1 RETURN JUMPDEST PUSH2 0x63E PUSH2 0x2FB0 JUMP JUMPDEST PUSH1 0x40 MLOAD PUSH2 0x64B SWAP2 SWAP1 PUSH2 0x5446 JUMP JUMPDEST PUSH1 0x40 MLOAD DUP1 SWAP2 SUB SWAP1 RETURN JUMPDEST PUSH2 0x65C PUSH2 0x30CE JUMP JUMPDEST PUSH1 0x40 MLOAD PUSH2 0x669 SWAP2 SWAP1 PUSH2 0x50C0 JUMP JUMPDEST PUSH1 0x40 MLOAD DUP1 SWAP2 SUB SWAP1 RETURN JUMPDEST PUSH2 0x67A PUSH2 0x30E4 JUMP JUMPDEST PUSH1 0x40 MLOAD PUSH2 0x687 SWAP2 SWAP1 PUSH2 0x52F2 JUMP JUMPDEST PUSH1 0x40 MLOAD DUP1 SWAP2 SUB SWAP1 RETURN JUMPDEST PUSH2 0x698 PUSH2 0x30EB JUMP JUMPDEST PUSH1 0x40 MLOAD PUSH2 0x6A5 SWAP2 SWAP1 PUSH2 0x5049 JUMP JUMPDEST PUSH1 0x40 MLOAD DUP1 SWAP2 SUB SWAP1 RETURN JUMPDEST PUSH2 0x6C8 PUSH1 0x4 DUP1 CALLDATASIZE SUB DUP2 ADD SWAP1 PUSH2 0x6C3 SWAP2 SWAP1 PUSH2 0x52C7 JUMP JUMPDEST PUSH2 0x3177 JUMP JUMPDEST PUSH1 0x40 MLOAD PUSH2 0x6D5 SWAP2 SWAP1 PUSH2 0x5069 JUMP JUMPDEST PUSH1 0x40 MLOAD DUP1 SWAP2 SUB SWAP1 RETURN JUMPDEST PUSH2 0x6E6 PUSH2 0x31BC JUMP JUMPDEST STOP JUMPDEST PUSH2 0x702 PUSH1 0x4 DUP1 CALLDATASIZE SUB DUP2 ADD SWAP1 PUSH2 0x6FD SWAP2 SWAP1 PUSH2 0x4C9F JUMP JUMPDEST PUSH2 0x31CF JUMP JUMPDEST PUSH1 0x40 MLOAD PUSH2 0x70F SWAP2 SWAP1 PUSH2 0x52F2 JUMP JUMPDEST PUSH1 0x40 MLOAD DUP1 SWAP2 SUB SWAP1 RETURN JUMPDEST PUSH2 0x720 PUSH2 0x320A JUMP JUMPDEST STOP JUMPDEST PUSH2 0x72A PUSH2 0x3259 JUMP JUMPDEST PUSH1 0x40 MLOAD PUSH2 0x737 SWAP2 SWAP1 PUSH2 0x5069 JUMP JUMPDEST PUSH1 0x40 MLOAD DUP1 SWAP2 SUB SWAP1 RETURN JUMPDEST PUSH2 0x748 PUSH2 0x325F JUMP JUMPDEST STOP JUMPDEST PUSH2 0x752 PUSH2 0x342C JUMP JUMPDEST PUSH1 0x40 MLOAD PUSH2 0x75F SWAP2 SWAP1 PUSH2 0x50C0 JUMP JUMPDEST PUSH1 0x40 MLOAD DUP1 SWAP2 SUB SWAP1 RETURN JUMPDEST PUSH2 0x770 PUSH2 0x343F JUMP JUMPDEST PUSH1 0x40 MLOAD PUSH2 0x77D SWAP2 SWAP1 PUSH2 0x52F2 JUMP JUMPDEST PUSH1 0x40 MLOAD DUP1 SWAP2 SUB SWAP1 RETURN JUMPDEST PUSH2 0x78E PUSH2 0x3467 JUMP JUMPDEST PUSH1 0x40 MLOAD PUSH2 0x79B SWAP2 SWAP1 PUSH2 0x5069 JUMP JUMPDEST PUSH1 0x40 MLOAD DUP1 SWAP2 SUB SWAP1 RETURN JUMPDEST PUSH2 0x7AC PUSH2 0x346D JUMP JUMPDEST PUSH1 0x40 MLOAD PUSH2 0x7B9 SWAP2 SWAP1 PUSH2 0x5049 JUMP JUMPDEST PUSH1 0x40 MLOAD DUP1 SWAP2 SUB SWAP1 RETURN JUMPDEST PUSH2 0x7DC PUSH1 0x4 DUP1 CALLDATASIZE SUB DUP2 ADD SWAP1 PUSH2 0x7D7 SWAP2 SWAP1 PUSH2 0x52C7 JUMP JUMPDEST PUSH2 0x34FD JUMP JUMPDEST PUSH1 0x40 MLOAD PUSH2 0x7E9 SWAP2 SWAP1 PUSH2 0x50C0 JUMP JUMPDEST PUSH1 0x40 MLOAD DUP1 SWAP2 SUB SWAP1 RETURN JUMPDEST PUSH2 0x80C PUSH1 0x4 DUP1 CALLDATASIZE SUB DUP2 ADD SWAP1 PUSH2 0x807 SWAP2 SWAP1 PUSH2 0x52C7 JUMP JUMPDEST PUSH2 0x351A JUMP JUMPDEST PUSH1 0x40 MLOAD PUSH2 0x819 SWAP2 SWAP1 PUSH2 0x50C0 JUMP JUMPDEST PUSH1 0x40 MLOAD DUP1 SWAP2 SUB SWAP1 RETURN JUMPDEST PUSH2 0x83C PUSH1 0x4 DUP1 CALLDATASIZE SUB DUP2 ADD SWAP1 PUSH2 0x837 SWAP2 SWAP1 PUSH2 0x5082 JUMP JUMPDEST PUSH2 0x3537 JUMP JUMPDEST PUSH1 0x40 MLOAD PUSH2 0x849 SWAP2 SWAP1 PUSH2 0x50C0 JUMP JUMPDEST PUSH1 0x40 MLOAD DUP1 SWAP2 SUB SWAP1 RETURN JUMPDEST PUSH2 0x85A PUSH2 0x3678 JUMP JUMPDEST PUSH1 0x40 MLOAD PUSH2 0x867 SWAP2 SWAP1 PUSH2 0x52F2 JUMP JUMPDEST PUSH1 0x40 MLOAD DUP1 SWAP2 SUB SWAP1 RETURN JUMPDEST PUSH2 0x878 PUSH2 0x367F JUMP JUMPDEST PUSH1 0x40 MLOAD PUSH2 0x885 SWAP2 SWAP1 PUSH2 0x5069 JUMP JUMPDEST PUSH1 0x40 MLOAD DUP1 SWAP2 SUB SWAP1 RETURN JUMPDEST PUSH2 0x896 PUSH2 0x3685 JUMP JUMPDEST PUSH1 0x40 MLOAD PUSH2 0x8A3 SWAP2 SWAP1 PUSH2 0x50C0 JUMP JUMPDEST PUSH1 0x40 MLOAD DUP1 SWAP2 SUB SWAP1 RETURN JUMPDEST PUSH2 0x8B4 PUSH2 0x3697 JUMP JUMPDEST PUSH1 0x40 MLOAD PUSH2 0x8C1 SWAP2 SWAP1 PUSH2 0x5069 JUMP JUMPDEST PUSH1 0x40 MLOAD DUP1 SWAP2 SUB SWAP1 RETURN JUMPDEST PUSH2 0x8D2 PUSH2 0x36A4 JUMP JUMPDEST PUSH1 0x40 MLOAD PUSH2 0x8DF SWAP2 SWAP1 PUSH2 0x5069 JUMP JUMPDEST PUSH1 0x40 MLOAD DUP1 SWAP2 SUB SWAP1 RETURN JUMPDEST PUSH2 0x8F0 PUSH2 0x36C9 JUMP JUMPDEST STOP JUMPDEST PUSH2 0x90C PUSH1 0x4 DUP1 CALLDATASIZE SUB DUP2 ADD SWAP1 PUSH2 0x907 SWAP2 SWAP1 PUSH2 0x5002 JUMP JUMPDEST PUSH2 0x379A JUMP JUMPDEST STOP JUMPDEST PUSH2 0x928 PUSH1 0x4 DUP1 CALLDATASIZE SUB DUP2 ADD SWAP1 PUSH2 0x923 SWAP2 SWAP1 PUSH2 0x52C7 JUMP JUMPDEST PUSH2 0x38C2 JUMP JUMPDEST PUSH1 0x40 MLOAD PUSH2 0x935 SWAP2 SWAP1 PUSH2 0x50C0 JUMP JUMPDEST PUSH1 0x40 MLOAD DUP1 SWAP2 SUB SWAP1 RETURN JUMPDEST PUSH2 0x946 PUSH2 0x38DF JUMP JUMPDEST PUSH1 0x40 MLOAD PUSH2 0x953 SWAP2 SWAP1 PUSH2 0x5069 JUMP JUMPDEST PUSH1 0x40 MLOAD DUP1 SWAP2 SUB SWAP1 RETURN JUMPDEST PUSH2 0x976 PUSH1 0x4 DUP1 CALLDATASIZE SUB DUP2 ADD SWAP1 PUSH2 0x971 SWAP2 SWAP1 PUSH2 0x5466 JUMP JUMPDEST PUSH2 0x38F5 JUMP JUMPDEST PUSH1 0x40 MLOAD PUSH2 0x983 SWAP2 SWAP1 PUSH2 0x5069 JUMP JUMPDEST PUSH1 0x40 MLOAD DUP1 SWAP2 SUB SWAP1 RETURN JUMPDEST PUSH2 0x9A6 PUSH1 0x4 DUP1 CALLDATASIZE SUB DUP2 ADD SWAP1 PUSH2 0x9A1 SWAP2 SWAP1 PUSH2 0x4C9F JUMP JUMPDEST PUSH2 0x3977 JUMP JUMPDEST STOP JUMPDEST PUSH2 0x9C2 PUSH1 0x4 DUP1 CALLDATASIZE SUB DUP2 ADD SWAP1 PUSH2 0x9BD SWAP2 SWAP1 PUSH2 0x52C7 JUMP JUMPDEST PUSH2 0x3C99 JUMP JUMPDEST PUSH1 0x40 MLOAD PUSH2 0x9CF SWAP2 SWAP1 PUSH2 0x50C0 JUMP JUMPDEST PUSH1 0x40 MLOAD DUP1 SWAP2 SUB SWAP1 RETURN JUMPDEST PUSH2 0x9F2 PUSH1 0x4 DUP1 CALLDATASIZE SUB DUP2 ADD SWAP1 PUSH2 0x9ED SWAP2 SWAP1 PUSH2 0x52C7 JUMP JUMPDEST PUSH2 0x3CEB JUMP JUMPDEST STOP JUMPDEST PUSH2 0x9FC PUSH2 0x3D6F JUMP JUMPDEST PUSH1 0x40 MLOAD PUSH2 0xA09 SWAP2 SWAP1 PUSH2 0x5069 JUMP JUMPDEST PUSH1 0x40 MLOAD DUP1 SWAP2 SUB SWAP1 RETURN JUMPDEST PUSH2 0xA1A PUSH2 0x3D74 JUMP JUMPDEST STOP JUMPDEST PUSH2 0xA24 PUSH2 0x3DC4 JUMP JUMPDEST PUSH1 0x40 MLOAD PUSH2 0xA31 SWAP2 SWAP1 PUSH2 0x5069 JUMP JUMPDEST PUSH1 0x40 MLOAD DUP1 SWAP2 SUB SWAP1 RETURN JUMPDEST PUSH1 0x11 PUSH1 0x1 SWAP1 SLOAD SWAP1 PUSH2 0x100 EXP SWAP1 DIV PUSH1 0xFF AND ISZERO PUSH2 0xA8A JUMPI PUSH1 0x40 MLOAD PUSH32 0x8C379A000000000000000000000000000000000000000000000000000000000 DUP2 MSTORE PUSH1 0x4 ADD PUSH2 0xA81 SWAP1 PUSH2 0x54C7 JUMP JUMPDEST PUSH1 0x40 MLOAD DUP1 SWAP2 SUB SWAP1 REVERT JUMPDEST PUSH1 0xC PUSH0 CALLER PUSH20 0xFFFFFFFFFFFFFFFFFFFFFFFFFFFFFFFFFFFFFFFF AND PUSH20 0xFFFFFFFFFFFFFFFFFFFFFFFFFFFFFFFFFFFFFFFF AND DUP2 MSTORE PUSH1 0x20 ADD SWAP1 DUP2 MSTORE PUSH1 0x20 ADD PUSH0 KECCAK256 PUSH0 SWAP1 SLOAD SWAP1 PUSH2 0x100 EXP SWAP1 DIV PUSH1 0xFF AND PUSH2 0xB13 JUMPI PUSH1 0x40 MLOAD PUSH32 0x8C379A000000000000000000000000000000000000000000000000000000000 DUP2 MSTORE PUSH1 0x4 ADD PUSH2 0xB0A SWAP1 PUSH2 0x54C7 JUMP JUMPDEST PUSH1 0x40 MLOAD DUP1 SWAP2 SUB SWAP1 REVERT JUMPDEST PUSH0 PUSH1 0xF PUSH0 DUP4 DUP2 MSTORE PUSH1 0x20 ADD SWAP1 DUP2 MSTORE PUSH1 0x20 ADD PUSH0 KECCAK256 SWAP1 POP DUP1 PUSH1 0x8 ADD PUSH0 SWAP1 SLOAD SWAP1 PUSH2 0x100 EXP SWAP1 DIV PUSH1 0xFF AND PUSH2 0xB77 JUMPI PUSH1 0x40 MLOAD PUSH32 0x8C379A000000000000000000000000000000000000000000000000000000000 DUP2 MSTORE PUSH1 0x4 ADD PUSH2 0xB6E SWAP1 PUSH2 0x54C7 JUMP JUMPDEST PUSH1 0x40 MLOAD DUP1 SWAP2 SUB SWAP1 REVERT JUMPDEST PUSH1 0xD PUSH0 DUP4 DUP2 MSTORE PUSH1 0x20 ADD SWAP1 DUP2 MSTORE PUSH1 0x20 ADD PUSH0 KECCAK256 PUSH0 CALLER PUSH20 0xFFFFFFFFFFFFFFFFFFFFFFFFFFFFFFFFFFFFFFFF AND PUSH20 0xFFFFFFFFFFFFFFFFFFFFFFFFFFFFFFFFFFFFFFFF AND DUP2 MSTORE PUSH1 0x20 ADD SWAP1 DUP2 MSTORE PUSH1 0x20 ADD PUSH0 KECCAK256 PUSH0 SWAP1 SLOAD SWAP1 PUSH2 0x100 EXP SWAP1 DIV PUSH1 0xFF AND ISZERO PUSH2 0xC10 JUMPI PUSH1 0x40 MLOAD PUSH32 0x8C379A000000000000000000000000000000000000000000000000000000000 DUP2 MSTORE PUSH1 0x4 ADD PUSH2 0xC07 SWAP1 PUSH2 0x54C7 JUMP JUMPDEST PUSH1 0x40 MLOAD DUP1 SWAP2 SUB SWAP1 REVERT JUMPDEST PUSH1 0x11 PUSH0 SWAP1 SLOAD SWAP1 PUSH2 0x100 EXP SWAP1 DIV PUSH1 0xFF AND ISZERO PUSH2 0xC5F JUMPI PUSH1 0x40 MLOAD PUSH32 0x8C379A000000000000000000000000000000000000000000000000000000000 DUP2 MSTORE PUSH1 0x4 ADD PUSH2 0xC56 SWAP1 PUSH2 0x54C7 JUMP JUMPDEST PUSH1 0x40 MLOAD DUP1 SWAP2 SUB SWAP1 REVERT JUMPDEST PUSH1 0x1 PUSH1 0xD PUSH0 DUP5 DUP2 MSTORE PUSH1 0x20 ADD SWAP1 DUP2 MSTORE PUSH1 0x20 ADD PUSH0 KECCAK256 PUSH0 CALLER PUSH20 0xFFFFFFFFFFFFFFFFFFFFFFFFFFFFFFFFFFFFFFFF AND PUSH20 0xFFFFFFFFFFFFFFFFFFFFFFFFFFFFFFFFFFFFFFFF AND DUP2 MSTORE PUSH1 0x20 ADD SWAP1 DUP2 MSTORE PUSH1 0x20 ADD PUSH0 KECCAK256 PUSH0 PUSH2 0x100 EXP DUP2 SLOAD DUP2 PUSH1 0xFF MUL NOT AND SWAP1 DUP4 ISZERO ISZERO MUL OR SWAP1 SSTORE POP DUP1 PUSH1 0x1 ADD PUSH0 DUP2 SLOAD DUP1 SWAP3 SWAP2 SWAP1 PUSH2 0xCD7 SWAP1 PUSH2 0x5512 JUMP JUMPDEST SWAP2 SWAP1 POP SSTORE POP PUSH0 PUSH1 0x7 DUP1 DUP2 GT ISZERO PUSH2 0xCF0 JUMPI PUSH2 0xCEF PUSH2 0x4CCA JUMP JUMPDEST JUMPDEST DUP3 PUSH0 ADD PUSH0 SWAP1 SLOAD SWAP1 PUSH2 0x100 EXP SWAP1 DIV PUSH1 0xFF AND PUSH1 0x7 DUP2 GT ISZERO PUSH2 0xD12 JUMPI PUSH2 0xD11 PUSH2 0x4CCA JUMP JUMPDEST JUMPDEST EQ PUSH2 0xDA2 JUMPI PUSH1 0x3 PUSH1 0x7 DUP2 GT ISZERO PUSH2 0xD2B JUMPI PUSH2 0xD2A PUSH2 0x4CCA JUMP JUMPDEST JUMPDEST DUP3 PUSH0 ADD PUSH0 SWAP1 SLOAD SWAP1 PUSH2 0x100 EXP SWAP1 DIV PUSH1 0xFF AND PUSH1 0x7 DUP2 GT ISZERO PUSH2 0xD4D JUMPI PUSH2 0xD4C PUSH2 0x4CCA JUMP JUMPDEST JUMPDEST LT ISZERO DUP1 ISZERO PUSH2 0xD8F JUMPI POP PUSH1 0x6 PUSH1 0x7 DUP2 GT ISZERO PUSH2 0xD6A JUMPI PUSH2 0xD69 PUSH2 0x4CCA JUMP JUMPDEST JUMPDEST DUP3 PUSH0 ADD PUSH0 SWAP1 SLOAD SWAP1 PUSH2 0x100 EXP SWAP1 DIV PUSH1 0xFF AND PUSH1 0x7 DUP2 GT ISZERO PUSH2 0xD8C JUMPI PUSH2 0xD8B PUSH2 0x4CCA JUMP JUMPDEST JUMPDEST GT ISZERO JUMPDEST PUSH2 0xD9A JUMPI PUSH1 0x5 PUSH2 0xD9D JUMP JUMPDEST PUSH1 0x3 JUMPDEST PUSH2 0xDA5 JUMP JUMPDEST PUSH1 0x2 JUMPDEST SWAP1 POP DUP1 DUP3 PUSH1 0x1 ADD SLOAD GT ISZERO PUSH2 0xDEE JUMPI PUSH1 0x40 MLOAD PUSH32 0x8C379A000000000000000000000000000000000000000000000000000000000 DUP2 MSTORE PUSH1 0x4 ADD PUSH2 0xDE5 SWAP1 PUSH2 0x54C7 JUMP JUMPDEST PUSH1 0x40 MLOAD DUP1 SWAP2 SUB SWAP1 REVERT JUMPDEST CALLER PUSH20 0xFFFFFFFFFFFFFFFFFFFFFFFFFFFFFFFFFFFFFFFF AND DUP4 PUSH32 0xF1003B73C437642C0460AEE9CD9628B0B8C447B66E6C7C905531B9C644214A11 PUSH1 0x40 MLOAD PUSH1 0x40 MLOAD DUP1 SWAP2 SUB SWAP1 LOG3 POP POP POP JUMP JUMPDEST PUSH1 0xF PUSH1 0x20 MSTORE DUP1 PUSH0 MSTORE PUSH1 0x40 PUSH0 KECCAK256 PUSH0 SWAP2 POP SWAP1 POP DUP1 PUSH0 ADD PUSH0 SWAP1 SLOAD SWAP1 PUSH2 0x100 EXP SWAP1 DIV PUSH1 0xFF AND SWAP1 DUP1 PUSH0 ADD PUSH1 0x1 SWAP1 SLOAD SWAP1 PUSH2 0x100 EXP SWAP1 DIV PUSH20 0xFFFFFFFFFFFFFFFFFFFFFFFFFFFFFFFFFFFFFFFF AND SWAP1 DUP1 PUSH1 0x1 ADD SLOAD SWAP1 DUP1 PUSH1 0x2 ADD SLOAD SWAP1 DUP1 PUSH1 0x3 ADD PUSH0 SWAP1 SLOAD SWAP1 PUSH2 0x100 EXP SWAP1 DIV PUSH20 0xFFFFFFFFFFFFFFFFFFFFFFFFFFFFFFFFFFFFFFFF AND SWAP1 DUP1 PUSH1 0x4 ADD SLOAD SWAP1 DUP1 PUSH1 0x5 ADD DUP1 SLOAD PUSH2 0xEC4 SWAP1 PUSH2 0x5586 JUMP JUMPDEST DUP1 PUSH1 0x1F ADD PUSH1 0x20 DUP1 SWAP2 DIV MUL PUSH1 0x20 ADD PUSH1 0x40 MLOAD SWAP1 DUP2 ADD PUSH1 0x40 MSTORE DUP1 SWAP3 SWAP2 SWAP1 DUP2 DUP2 MSTORE PUSH1 0x20 ADD DUP3 DUP1 SLOAD PUSH2 0xEF0 SWAP1 PUSH2 0x5586 JUMP JUMPDEST DUP1 ISZERO PUSH2 0xF3B JUMPI DUP1 PUSH1 0x1F LT PUSH2 0xF12 JUMPI PUSH2 0x100 DUP1 DUP4 SLOAD DIV MUL DUP4 MSTORE SWAP2 PUSH1 0x20 ADD SWAP2 PUSH2 0xF3B JUMP JUMPDEST DUP3 ADD SWAP2 SWAP1 PUSH0 MSTORE PUSH1 0x20 PUSH0 KECCAK256 SWAP1 JUMPDEST DUP2 SLOAD DUP2 MSTORE SWAP1 PUSH1 0x1 ADD SWAP1 PUSH1 0x20 ADD DUP1 DUP4 GT PUSH2 0xF1E JUMPI DUP3 SWAP1 SUB PUSH1 0x1F AND DUP3 ADD SWAP2 JUMPDEST POP POP POP POP POP SWAP1 DUP1 PUSH1 0x8 ADD PUSH0 SWAP1 SLOAD SWAP1 PUSH2 0x100 EXP SWAP1 DIV PUSH1 0xFF AND SWAP1 POP DUP9 JUMP JUMPDEST PUSH2 0xF5F PUSH2 0x3DD0 JUMP JUMPDEST PUSH1 0x11 PUSH1 0x1 SWAP1 SLOAD SWAP1 PUSH2 0x100 EXP SWAP1 DIV PUSH1 0xFF AND ISZERO PUSH2 0xFAF JUMPI PUSH1 0x40 MLOAD PUSH32 0x8C379A000000000000000000000000000000000000000000000000000000000 DUP2 MSTORE PUSH1 0x4 ADD PUSH2 0xFA6 SWAP1 PUSH2 0x54C7 JUMP JUMPDEST PUSH1 0x40 MLOAD DUP1 SWAP2 SUB SWAP1 REVERT JUMPDEST PUSH1 0xC PUSH0 CALLER PUSH20 0xFFFFFFFFFFFFFFFFFFFFFFFFFFFFFFFFFFFFFFFF AND PUSH20 0xFFFFFFFFFFFFFFFFFFFFFFFFFFFFFFFFFFFFFFFF AND DUP2 MSTORE PUSH1 0x20 ADD SWAP1 DUP2 MSTORE PUSH1 0x20 ADD PUSH0 KECCAK256 PUSH0 SWAP1 SLOAD SWAP1 PUSH2 0x100 EXP SWAP1 DIV PUSH1 0xFF AND PUSH2 0x1038 JUMPI PUSH1 0x40 MLOAD PUSH32 0x8C379A000000000000000000000000000000000000000000000000000000000 DUP2 MSTORE PUSH1 0x4 ADD PUSH2 0x102F SWAP1 PUSH2 0x54C7 JUMP JUMPDEST PUSH1 0x40 MLOAD DUP1 SWAP2 SUB SWAP1 REVERT JUMPDEST PUSH2 0x104B DUP2 PUSH9 0x56BC75E2D63100000 PUSH2 0x3E1F JUMP JUMPDEST DUP1 PUSH1 0x40 MLOAD PUSH2 0x1059 SWAP2 SWAP1 PUSH2 0x5667 JUMP JUMPDEST PUSH1 0x40 MLOAD DUP1 SWAP2 SUB SWAP1 KECCAK256 PUSH32 0xC2AEAD9CF0EE95E5F48D316DB6ADCF05801AEC50B3029BF8AFCD0C2FAF73B12D PUSH9 0x56BC75E2D63100000 PUSH0 PUSH1 0x40 MLOAD PUSH2 0x109B SWAP3 SWAP2 SWAP1 PUSH2 0x567D JUMP JUMPDEST PUSH1 0x40 MLOAD DUP1 SWAP2 SUB SWAP1 LOG2 PUSH2 0x10AB PUSH2 0x401D JUMP JUMPDEST POP JUMP JUMPDEST PUSH1 0x60 PUSH1 0x3 DUP1 SLOAD PUSH2 0x10BD SWAP1 PUSH2 0x5586 JUMP JUMPDEST DUP1 PUSH1 0x1F ADD PUSH1 0x20 DUP1 SWAP2 DIV MUL PUSH1 0x20 ADD PUSH1 0x40 MLOAD SWAP1 DUP2 ADD PUSH1 0x40 MSTORE DUP1 SWAP3 SWAP2 SWAP1 DUP2 DUP2 MSTORE PUSH1 0x20 ADD DUP3 DUP1 SLOAD PUSH2 0x10E9 SWAP1 PUSH2 0x5586 JUMP JUMPDEST DUP1 ISZERO PUSH2 0x1134 JUMPI DUP1 PUSH1 0x1F LT PUSH2 0x110B JUMPI PUSH2 0x100 DUP1 DUP4 SLOAD DIV MUL DUP4 MSTORE SWAP2 PUSH1 0x20 ADD SWAP2 PUSH2 0x1134 JUMP JUMPDEST DUP3 ADD SWAP2 SWAP1 PUSH0 MSTORE PUSH1 0x20 PUSH0 KECCAK256 SWAP1 JUMPDEST DUP2 SLOAD DUP2 MSTORE SWAP1 PUSH1 0x1 ADD SWAP1 PUSH1 0x20 ADD DUP1 DUP4 GT PUSH2 0x1117 JUMPI DUP3 SWAP1 SUB PUSH1 0x1F AND DUP3 ADD SWAP2 JUMPDEST POP POP POP POP POP SWAP1 POP SWAP1 JUMP JUMPDEST PUSH2 0x12C DUP2 JUMP JUMPDEST PUSH0 PUSH0 PUSH2 0x114E PUSH2 0x4027 JUMP JUMPDEST SWAP1 POP PUSH2 0x115B DUP2 DUP6 DUP6 PUSH2 0x402E JUMP JUMPDEST PUSH1 0x1 SWAP2 POP POP SWAP3 SWAP2 POP POP JUMP JUMPDEST PUSH1 0x11 PUSH1 0x1 SWAP1 SLOAD SWAP1 PUSH2 0x100 EXP SWAP1 DIV PUSH1 0xFF AND ISZERO PUSH2 0x11B6 JUMPI PUSH1 0x40 MLOAD PUSH32 0x8C379A000000000000000000000000000000000000000000000000000000000 DUP2 MSTORE PUSH1 0x4 ADD PUSH2 0x11AD SWAP1 PUSH2 0x54C7 JUMP JUMPDEST PUSH1 0x40 MLOAD DUP1 SWAP2 SUB SWAP1 REVERT JUMPDEST PUSH1 0xC PUSH0 CALLER PUSH20 0xFFFFFFFFFFFFFFFFFFFFFFFFFFFFFFFFFFFFFFFF AND PUSH20 0xFFFFFFFFFFFFFFFFFFFFFFFFFFFFFFFFFFFFFFFF AND DUP2 MSTORE PUSH1 0x20 ADD SWAP1 DUP2 MSTORE PUSH1 0x20 ADD PUSH0 KECCAK256 PUSH0 SWAP1 SLOAD SWAP1 PUSH2 0x100 EXP SWAP1 DIV PUSH1 0xFF AND PUSH2 0x123F JUMPI PUSH1 0x40 MLOAD PUSH32 0x8C379A000000000000000000000000000000000000000000000000000000000 DUP2 MSTORE PUSH1 0x4 ADD PUSH2 0x1236 SWAP1 PUSH2 0x54C7 JUMP JUMPDEST PUSH1 0x40 MLOAD DUP1 SWAP2 SUB SWAP1 REVERT JUMPDEST PUSH0 PUSH1 0x7 DUP2 GT ISZERO PUSH2 0x1252 JUMPI PUSH2 0x1251 PUSH2 0x4CCA JUMP JUMPDEST JUMPDEST DUP7 PUSH1 0x7 DUP2 GT ISZERO PUSH2 0x1265 JUMPI PUSH2 0x1264 PUSH2 0x4CCA JUMP JUMPDEST JUMPDEST SUB PUSH2 0x12B2 JUMPI PUSH0 DUP4 MLOAD GT PUSH2 0x12AD JUMPI PUSH1 0x40 MLOAD PUSH32 0x8C379A000000000000000000000000000000000000000000000000000000000 DUP2 MSTORE PUSH1 0x4 ADD PUSH2 0x12A4 SWAP1 PUSH2 0x54C7 JUMP JUMPDEST PUSH1 0x40 MLOAD DUP1 SWAP2 SUB SWAP1 REVERT JUMPDEST PUSH2 0x1B72 JUMP JUMPDEST PUSH1 0x1 PUSH1 0x7 DUP2 GT ISZERO PUSH2 0x12C6 JUMPI PUSH2 0x12C5 PUSH2 0x4CCA JUMP JUMPDEST JUMPDEST DUP7 PUSH1 0x7 DUP2 GT ISZERO PUSH2 0x12D9 JUMPI PUSH2 0x12D8 PUSH2 0x4CCA JUMP JUMPDEST JUMPDEST SUB PUSH2 0x13C7 JUMPI PUSH0 DUP5 SUB PUSH2 0x1320 JUMPI PUSH1 0x40 MLOAD PUSH32 0x8C379A000000000000000000000000000000000000000000000000000000000 DUP2 MSTORE PUSH1 0x4 ADD PUSH2 0x1317 SWAP1 PUSH2 0x54C7 JUMP JUMPDEST PUSH1 0x40 MLOAD DUP1 SWAP2 SUB SWAP1 REVERT JUMPDEST PUSH1 0xA SLOAD DUP5 PUSH1 0x7 SLOAD PUSH2 0x1331 SWAP2 SWAP1 PUSH2 0x56AD JUMP JUMPDEST SLT ISZERO PUSH2 0x1372 JUMPI PUSH1 0x40 MLOAD PUSH32 0x8C379A000000000000000000000000000000000000000000000000000000000 DUP2 MSTORE PUSH1 0x4 ADD PUSH2 0x1369 SWAP1 PUSH2 0x54C7 JUMP JUMPDEST PUSH1 0x40 MLOAD DUP1 SWAP2 SUB SWAP1 REVERT JUMPDEST PUSH0 DUP5 PUSH1 0x7 SLOAD PUSH2 0x1381 SWAP2 SWAP1 PUSH2 0x56AD JUMP JUMPDEST SLT ISZERO PUSH2 0x13C2 JUMPI PUSH1 0x40 MLOAD PUSH32 0x8C379A000000000000000000000000000000000000000000000000000000000 DUP2 MSTORE PUSH1 0x4 ADD PUSH2 0x13B9 SWAP1 PUSH2 0x54C7 JUMP JUMPDEST PUSH1 0x40 MLOAD DUP1 SWAP2 SUB SWAP1 REVERT JUMPDEST PUSH2 0x1B71 JUMP JUMPDEST PUSH1 0x2 PUSH1 0x7 DUP2 GT ISZERO PUSH2 0x13DB JUMPI PUSH2 0x13DA PUSH2 0x4CCA JUMP JUMPDEST JUMPDEST DUP7 PUSH1 0x7 DUP2 GT ISZERO PUSH2 0x13EE JUMPI PUSH2 0x13ED PUSH2 0x4CCA JUMP JUMPDEST JUMPDEST SUB PUSH2 0x16C7 JUMPI DUP1 MLOAD DUP3 MLOAD EQ DUP1 ISZERO PUSH2 0x1404 JUMPI POP PUSH0 DUP3 MLOAD GT JUMPDEST PUSH2 0x1443 JUMPI PUSH1 0x40 MLOAD PUSH32 0x8C379A000000000000000000000000000000000000000000000000000000000 DUP2 MSTORE PUSH1 0x4 ADD PUSH2 0x143A SWAP1 PUSH2 0x54C7 JUMP JUMPDEST PUSH1 0x40 MLOAD DUP1 SWAP2 SUB SWAP1 REVERT JUMPDEST PUSH0 PUSH0 SWAP1 POP JUMPDEST DUP3 MLOAD DUP2 LT ISZERO PUSH2 0x16C1 JUMPI PUSH1 0xC PUSH0 DUP5 DUP4 DUP2 MLOAD DUP2 LT PUSH2 0x1467 JUMPI PUSH2 0x1466 PUSH2 0x56EE JUMP JUMPDEST JUMPDEST PUSH1 0x20 MUL PUSH1 0x20 ADD ADD MLOAD PUSH20 0xFFFFFFFFFFFFFFFFFFFFFFFFFFFFFFFFFFFFFFFF AND PUSH20 0xFFFFFFFFFFFFFFFFFFFFFFFFFFFFFFFFFFFFFFFF AND DUP2 MSTORE PUSH1 0x20 ADD SWAP1 DUP2 MSTORE PUSH1 0x20 ADD PUSH0 KECCAK256 PUSH0 SWAP1 SLOAD SWAP1 PUSH2 0x100 EXP SWAP1 DIV PUSH1 0xFF AND PUSH2 0x14F4 JUMPI PUSH1 0x40 MLOAD PUSH32 0x8C379A000000000000000000000000000000000000000000000000000000000 DUP2 MSTORE PUSH1 0x4 ADD PUSH2 0x14EB SWAP1 PUSH2 0x54C7 JUMP JUMPDEST PUSH1 0x40 MLOAD DUP1 SWAP2 SUB SWAP1 REVERT JUMPDEST PUSH0 PUSH20 0xFFFFFFFFFFFFFFFFFFFFFFFFFFFFFFFFFFFFFFFF AND DUP3 DUP3 DUP2 MLOAD DUP2 LT PUSH2 0x151E JUMPI PUSH2 0x151D PUSH2 0x56EE JUMP JUMPDEST JUMPDEST PUSH1 0x20 MUL PUSH1 0x20 ADD ADD MLOAD PUSH20 0xFFFFFFFFFFFFFFFFFFFFFFFFFFFFFFFFFFFFFFFF AND EQ ISZERO DUP1 ISZERO PUSH2 0x15AB JUMPI POP PUSH1 0xC PUSH0 DUP4 DUP4 DUP2 MLOAD DUP2 LT PUSH2 0x155B JUMPI PUSH2 0x155A PUSH2 0x56EE JUMP JUMPDEST JUMPDEST PUSH1 0x20 MUL PUSH1 0x20 ADD ADD MLOAD PUSH20 0xFFFFFFFFFFFFFFFFFFFFFFFFFFFFFFFFFFFFFFFF AND PUSH20 0xFFFFFFFFFFFFFFFFFFFFFFFFFFFFFFFFFFFFFFFF AND DUP2 MSTORE PUSH1 0x20 ADD SWAP1 DUP2 MSTORE PUSH1 0x20 ADD PUSH0 KECCAK256 PUSH0 SWAP1 SLOAD SWAP1 PUSH2 0x100 EXP SWAP1 DIV PUSH1 0xFF AND ISZERO JUMPDEST PUSH2 0x15EA JUMPI PUSH1 0x40 MLOAD PUSH32 0x8C379A000000000000000000000000000000000000000000000000000000000 DUP2 MSTORE PUSH1 0x4 ADD PUSH2 0x15E1 SWAP1 PUSH2 0x54C7 JUMP JUMPDEST PUSH1 0x40 MLOAD DUP1 SWAP2 SUB SWAP1 REVERT JUMPDEST PUSH0 PUSH1 0x1 DUP3 PUSH2 0x15F8 SWAP2 SWAP1 PUSH2 0x571B JUMP JUMPDEST SWAP1 POP JUMPDEST DUP3 MLOAD DUP2 LT ISZERO PUSH2 0x16B3 JUMPI DUP3 DUP2 DUP2 MLOAD DUP2 LT PUSH2 0x1617 JUMPI PUSH2 0x1616 PUSH2 0x56EE JUMP JUMPDEST JUMPDEST PUSH1 0x20 MUL PUSH1 0x20 ADD ADD MLOAD PUSH20 0xFFFFFFFFFFFFFFFFFFFFFFFFFFFFFFFFFFFFFFFF AND DUP4 DUP4 DUP2 MLOAD DUP2 LT PUSH2 0x1648 JUMPI PUSH2 0x1647 PUSH2 0x56EE JUMP JUMPDEST JUMPDEST PUSH1 0x20 MUL PUSH1 0x20 ADD ADD MLOAD PUSH20 0xFFFFFFFFFFFFFFFFFFFFFFFFFFFFFFFFFFFFFFFF AND SUB PUSH2 0x16A6 JUMPI PUSH1 0x40 MLOAD PUSH32 0x8C379A000000000000000000000000000000000000000000000000000000000 DUP2 MSTORE PUSH1 0x4 ADD PUSH2 0x169D SWAP1 PUSH2 0x54C7 JUMP JUMPDEST PUSH1 0x40 MLOAD DUP1 SWAP2 SUB SWAP1 REVERT JUMPDEST DUP1 DUP1 PUSH1 0x1 ADD SWAP2 POP POP PUSH2 0x15FB JUMP JUMPDEST POP DUP1 DUP1 PUSH1 0x1 ADD SWAP2 POP POP PUSH2 0x1448 JUMP JUMPDEST POP PUSH2 0x1B70 JUMP JUMPDEST PUSH1 0x3 PUSH1 0x7 DUP2 GT ISZERO PUSH2 0x16DB JUMPI PUSH2 0x16DA PUSH2 0x4CCA JUMP JUMPDEST JUMPDEST DUP7 PUSH1 0x7 DUP2 GT ISZERO PUSH2 0x16EE JUMPI PUSH2 0x16ED PUSH2 0x4CCA JUMP JUMPDEST JUMPDEST SUB PUSH2 0x17BA JUMPI PUSH0 PUSH20 0xFFFFFFFFFFFFFFFFFFFFFFFFFFFFFFFFFFFFFFFF AND DUP6 PUSH20 0xFFFFFFFFFFFFFFFFFFFFFFFFFFFFFFFFFFFFFFFF AND EQ ISZERO DUP1 ISZERO PUSH2 0x1776 JUMPI POP PUSH1 0x8 PUSH0 DUP7 PUSH20 0xFFFFFFFFFFFFFFFFFFFFFFFFFFFFFFFFFFFFFFFF AND PUSH20 0xFFFFFFFFFFFFFFFFFFFFFFFFFFFFFFFFFFFFFFFF AND DUP2 MSTORE PUSH1 0x20 ADD SWAP1 DUP2 MSTORE PUSH1 0x20 ADD PUSH0 KECCAK256 PUSH0 SWAP1 SLOAD SWAP1 PUSH2 0x100 EXP SWAP1 DIV PUSH1 0xFF AND ISZERO JUMPDEST PUSH2 0x17B5 JUMPI PUSH1 0x40 MLOAD PUSH32 0x8C379A000000000000000000000000000000000000000000000000000000000 DUP2 MSTORE PUSH1 0x4 ADD PUSH2 0x17AC SWAP1 PUSH2 0x54C7 JUMP JUMPDEST PUSH1 0x40 MLOAD DUP1 SWAP2 SUB SWAP1 REVERT JUMPDEST PUSH2 0x1B6F JUMP JUMPDEST PUSH1 0x4 PUSH1 0x7 DUP2 GT ISZERO PUSH2 0x17CE JUMPI PUSH2 0x17CD PUSH2 0x4CCA JUMP JUMPDEST JUMPDEST DUP7 PUSH1 0x7 DUP2 GT ISZERO PUSH2 0x17E1 JUMPI PUSH2 0x17E0 PUSH2 0x4CCA JUMP JUMPDEST JUMPDEST SUB PUSH2 0x1874 JUMPI PUSH1 0x8 PUSH0 DUP7 PUSH20 0xFFFFFFFFFFFFFFFFFFFFFFFFFFFFFFFFFFFFFFFF AND PUSH20 0xFFFFFFFFFFFFFFFFFFFFFFFFFFFFFFFFFFFFFFFF AND DUP2 MSTORE PUSH1 0x20 ADD SWAP1 DUP2 MSTORE PUSH1 0x20 ADD PUSH0 KECCAK256 PUSH0 SWAP1 SLOAD SWAP1 PUSH2 0x100 EXP SWAP1 DIV PUSH1 0xFF AND PUSH2 0x186F JUMPI PUSH1 0x40 MLOAD PUSH32 0x8C379A000000000000000000000000000000000000000000000000000000000 DUP2 MSTORE PUSH1 0x4 ADD PUSH2 0x1866 SWAP1 PUSH2 0x5798 JUMP JUMPDEST PUSH1 0x40 MLOAD DUP1 SWAP2 SUB SWAP1 REVERT JUMPDEST PUSH2 0x1B6E JUMP JUMPDEST PUSH1 0x5 PUSH1 0x7 DUP2 GT ISZERO PUSH2 0x1888 JUMPI PUSH2 0x1887 PUSH2 0x4CCA JUMP JUMPDEST JUMPDEST DUP7 PUSH1 0x7 DUP2 GT ISZERO PUSH2 0x189B JUMPI PUSH2 0x189A PUSH2 0x4CCA JUMP JUMPDEST JUMPDEST SUB PUSH2 0x1967 JUMPI PUSH0 PUSH20 0xFFFFFFFFFFFFFFFFFFFFFFFFFFFFFFFFFFFFFFFF AND DUP6 PUSH20 0xFFFFFFFFFFFFFFFFFFFFFFFFFFFFFFFFFFFFFFFF AND EQ ISZERO DUP1 ISZERO PUSH2 0x1923 JUMPI POP PUSH1 0x9 PUSH0 DUP7 PUSH20 0xFFFFFFFFFFFFFFFFFFFFFFFFFFFFFFFFFFFFFFFF AND PUSH20 0xFFFFFFFFFFFFFFFFFFFFFFFFFFFFFFFFFFFFFFFF AND DUP2 MSTORE PUSH1 0x20 ADD SWAP1 DUP2 MSTORE PUSH1 0x20 ADD PUSH0 KECCAK256 PUSH0 SWAP1 SLOAD SWAP1 PUSH2 0x100 EXP SWAP1 DIV PUSH1 0xFF AND ISZERO JUMPDEST PUSH2 0x1962 JUMPI PUSH1 0x40 MLOAD PUSH32 0x8C379A000000000000000000000000000000000000000000000000000000000 DUP2 MSTORE PUSH1 0x4 ADD PUSH2 0x1959 SWAP1 PUSH2 0x54C7 JUMP JUMPDEST PUSH1 0x40 MLOAD DUP1 SWAP2 SUB SWAP1 REVERT JUMPDEST PUSH2 0x1B6D JUMP JUMPDEST PUSH1 0x6 PUSH1 0x7 DUP2 GT ISZERO PUSH2 0x197B JUMPI PUSH2 0x197A PUSH2 0x4CCA JUMP JUMPDEST JUMPDEST DUP7 PUSH1 0x7 DUP2 GT ISZERO PUSH2 0x198E JUMPI PUSH2 0x198D PUSH2 0x4CCA JUMP JUMPDEST JUMPDEST SUB PUSH2 0x1A21 JUMPI PUSH1 0x9 PUSH0 DUP7 PUSH20 0xFFFFFFFFFFFFFFFFFFFFFFFFFFFFFFFFFFFFFFFF AND PUSH20 0xFFFFFFFFFFFFFFFFFFFFFFFFFFFFFFFFFFFFFFFF AND DUP2 MSTORE PUSH1 0x20 ADD SWAP1 DUP2 MSTORE PUSH1 0x20 ADD PUSH0 KECCAK256 PUSH0 SWAP1 SLOAD SWAP1 PUSH2 0x100 EXP SWAP1 DIV PUSH1 0xFF AND PUSH2 0x1A1C JUMPI PUSH1 0x40 MLOAD PUSH32 0x8C379A000000000000000000000000000000000000000000000000000000000 DUP2 MSTORE PUSH1 0x4 ADD PUSH2 0x1A13 SWAP1 PUSH2 0x5800 JUMP JUMPDEST PUSH1 0x40 MLOAD DUP1 SWAP2 SUB SWAP1 REVERT JUMPDEST PUSH2 0x1B6C JUMP JUMPDEST PUSH1 0x7 DUP1 DUP2 GT ISZERO PUSH2 0x1A34 JUMPI PUSH2 0x1A33 PUSH2 0x4CCA JUMP JUMPDEST JUMPDEST DUP7 PUSH1 0x7 DUP2 GT ISZERO PUSH2 0x1A47 JUMPI PUSH2 0x1A46 PUSH2 0x4CCA JUMP JUMPDEST JUMPDEST SUB PUSH2 0x1B6B JUMPI PUSH1 0x8 PUSH0 DUP7 PUSH20 0xFFFFFFFFFFFFFFFFFFFFFFFFFFFFFFFFFFFFFFFF AND PUSH20 0xFFFFFFFFFFFFFFFFFFFFFFFFFFFFFFFFFFFFFFFF AND DUP2 MSTORE PUSH1 0x20 ADD SWAP1 DUP2 MSTORE PUSH1 0x20 ADD PUSH0 KECCAK256 PUSH0 SWAP1 SLOAD SWAP1 PUSH2 0x100 EXP SWAP1 DIV PUSH1 0xFF AND DUP1 ISZERO PUSH2 0x1ACE JUMPI POP PUSH0 PUSH20 0xFFFFFFFFFFFFFFFFFFFFFFFFFFFFFFFFFFFFFFFF AND DUP6 PUSH20 0xFFFFFFFFFFFFFFFFFFFFFFFFFFFFFFFFFFFFFFFF AND EQ ISZERO JUMPDEST PUSH2 0x1B0D JUMPI PUSH1 0x40 MLOAD PUSH32 0x8C379A000000000000000000000000000000000000000000000000000000000 DUP2 MSTORE PUSH1 0x4 ADD PUSH2 0x1B04 SWAP1 PUSH2 0x54C7 JUMP JUMPDEST PUSH1 0x40 MLOAD DUP1 SWAP2 SUB SWAP1 REVERT JUMPDEST PUSH0 DUP5 GT DUP1 ISZERO PUSH2 0x1B2B JUMPI POP PUSH1 0x7 SLOAD DUP5 PUSH1 0xA SLOAD PUSH2 0x1B28 SWAP2 SWAP1 PUSH2 0x571B JUMP JUMPDEST GT ISZERO JUMPDEST PUSH2 0x1B6A JUMPI PUSH1 0x40 MLOAD PUSH32 0x8C379A000000000000000000000000000000000000000000000000000000000 DUP2 MSTORE PUSH1 0x4 ADD PUSH2 0x1B61 SWAP1 PUSH2 0x54C7 JUMP JUMPDEST PUSH1 0x40 MLOAD DUP1 SWAP2 SUB SWAP1 REVERT JUMPDEST JUMPDEST JUMPDEST JUMPDEST JUMPDEST JUMPDEST JUMPDEST JUMPDEST JUMPDEST PUSH1 0x40 MLOAD DUP1 PUSH2 0x140 ADD PUSH1 0x40 MSTORE DUP1 DUP8 PUSH1 0x7 DUP2 GT ISZERO PUSH2 0x1B91 JUMPI PUSH2 0x1B90 PUSH2 0x4CCA JUMP JUMPDEST JUMPDEST DUP2 MSTORE PUSH1 0x20 ADD CALLER PUSH20 0xFFFFFFFFFFFFFFFFFFFFFFFFFFFFFFFFFFFFFFFF AND DUP2 MSTORE PUSH1 0x20 ADD PUSH0 DUP2 MSTORE PUSH1 0x20 ADD PUSH1 0x2 PUSH1 0x7 DUP2 GT ISZERO PUSH2 0x1BCC JUMPI PUSH2 0x1BCB PUSH2 0x4CCA JUMP JUMPDEST JUMPDEST DUP9 PUSH1 0x7 DUP2 GT ISZERO PUSH2 0x1BDF JUMPI PUSH2 0x1BDE PUSH2 0x4CCA JUMP JUMPDEST JUMPDEST GT ISZERO PUSH2 0x1BEB JUMPI TIMESTAMP PUSH2 0x1BF9 JUMP JUMPDEST PUSH1 0xB4 TIMESTAMP PUSH2 0x1BF8 SWAP2 SWAP1 PUSH2 0x571B JUMP JUMPDEST JUMPDEST DUP2 MSTORE PUSH1 0x20 ADD DUP7 PUSH20 0xFFFFFFFFFFFFFFFFFFFFFFFFFFFFFFFFFFFFFFFF AND DUP2 MSTORE PUSH1 0x20 ADD DUP6 DUP2 MSTORE PUSH1 0x20 ADD DUP5 DUP2 MSTORE PUSH1 0x20 ADD DUP4 DUP2 MSTORE PUSH1 0x20 ADD DUP3 DUP2 MSTORE PUSH1 0x20 ADD PUSH1 0x1 ISZERO ISZERO DUP2 MSTORE POP PUSH1 0xF PUSH0 PUSH1 0x10 SLOAD DUP2 MSTORE PUSH1 0x20 ADD SWAP1 DUP2 MSTORE PUSH1 0x20 ADD PUSH0 KECCAK256 PUSH0 DUP3 ADD MLOAD DUP2 PUSH0 ADD PUSH0 PUSH2 0x100 EXP DUP2 SLOAD DUP2 PUSH1 0xFF MUL NOT AND SWAP1 DUP4 PUSH1 0x7 DUP2 GT ISZERO PUSH2 0x1C74 JUMPI PUSH2 0x1C73 PUSH2 0x4CCA JUMP JUMPDEST JUMPDEST MUL OR SWAP1 SSTORE POP PUSH1 0x20 DUP3 ADD MLOAD DUP2 PUSH0 ADD PUSH1 0x1 PUSH2 0x100 EXP DUP2 SLOAD DUP2 PUSH20 0xFFFFFFFFFFFFFFFFFFFFFFFFFFFFFFFFFFFFFFFF MUL NOT AND SWAP1 DUP4 PUSH20 0xFFFFFFFFFFFFFFFFFFFFFFFFFFFFFFFFFFFFFFFF AND MUL OR SWAP1 SSTORE POP PUSH1 0x40 DUP3 ADD MLOAD DUP2 PUSH1 0x1 ADD SSTORE PUSH1 0x60 DUP3 ADD MLOAD DUP2 PUSH1 0x2 ADD SSTORE PUSH1 0x80 DUP3 ADD MLOAD DUP2 PUSH1 0x3 ADD PUSH0 PUSH2 0x100 EXP DUP2 SLOAD DUP2 PUSH20 0xFFFFFFFFFFFFFFFFFFFFFFFFFFFFFFFFFFFFFFFF MUL NOT AND SWAP1 DUP4 PUSH20 0xFFFFFFFFFFFFFFFFFFFFFFFFFFFFFFFFFFFFFFFF AND MUL OR SWAP1 SSTORE POP PUSH1 0xA0 DUP3 ADD MLOAD DUP2 PUSH1 0x4 ADD SSTORE PUSH1 0xC0 DUP3 ADD MLOAD DUP2 PUSH1 0x5 ADD SWAP1 DUP2 PUSH2 0x1D38 SWAP2 SWAP1 PUSH2 0x59BE JUMP JUMPDEST POP PUSH1 0xE0 DUP3 ADD MLOAD DUP2 PUSH1 0x6 ADD SWAP1 DUP1 MLOAD SWAP1 PUSH1 0x20 ADD SWAP1 PUSH2 0x1D55 SWAP3 SWAP2 SWAP1 PUSH2 0x4B5E JUMP JUMPDEST POP PUSH2 0x100 DUP3 ADD MLOAD DUP2 PUSH1 0x7 ADD SWAP1 DUP1 MLOAD SWAP1 PUSH1 0x20 ADD SWAP1 PUSH2 0x1D73 SWAP3 SWAP2 SWAP1 PUSH2 0x4B5E JUMP JUMPDEST POP PUSH2 0x120 DUP3 ADD MLOAD DUP2 PUSH1 0x8 ADD PUSH0 PUSH2 0x100 EXP DUP2 SLOAD DUP2 PUSH1 0xFF MUL NOT AND SWAP1 DUP4 ISZERO ISZERO MUL OR SWAP1 SSTORE POP SWAP1 POP POP PUSH1 0x10 SLOAD PUSH32 0x3263432A41F78A4701CC9465F62411ED717ADE32290C084135A3DD6B29F4BF28 DUP8 CALLER PUSH1 0x40 MLOAD PUSH2 0x1DCB SWAP3 SWAP2 SWAP1 PUSH2 0x5A8D JUMP JUMPDEST PUSH1 0x40 MLOAD DUP1 SWAP2 SUB SWAP1 LOG2 PUSH1 0x10 PUSH0 DUP2 SLOAD DUP1 SWAP3 SWAP2 SWAP1 PUSH2 0x1DE5 SWAP1 PUSH2 0x5512 JUMP JUMPDEST SWAP2 SWAP1 POP SSTORE POP POP POP POP POP POP POP JUMP JUMPDEST PUSH1 0x11 PUSH1 0x1 SWAP1 SLOAD SWAP1 PUSH2 0x100 EXP SWAP1 DIV PUSH1 0xFF AND ISZERO PUSH2 0x1E42 JUMPI PUSH1 0x40 MLOAD PUSH32 0x8C379A000000000000000000000000000000000000000000000000000000000 DUP2 MSTORE PUSH1 0x4 ADD PUSH2 0x1E39 SWAP1 PUSH2 0x5AFE JUMP JUMPDEST PUSH1 0x40 MLOAD DUP1 SWAP2 SUB SWAP1 REVERT JUMPDEST PUSH0 PUSH1 0xF PUSH0 DUP4 DUP2 MSTORE PUSH1 0x20 ADD SWAP1 DUP2 MSTORE PUSH1 0x20 ADD PUSH0 KECCAK256 SWAP1 POP PUSH2 0x1E5F DUP2 PUSH2 0x4040 JUMP JUMPDEST POP PUSH0 PUSH1 0x7 DUP2 GT ISZERO PUSH2 0x1E73 JUMPI PUSH2 0x1E72 PUSH2 0x4CCA JUMP JUMPDEST JUMPDEST DUP2 PUSH0 ADD PUSH0 SWAP1 SLOAD SWAP1 PUSH2 0x100 EXP SWAP1 DIV PUSH1 0xFF AND PUSH1 0x7 DUP2 GT ISZERO PUSH2 0x1E95 JUMPI PUSH2 0x1E94 PUSH2 0x4CCA JUMP JUMPDEST JUMPDEST SUB PUSH2 0x1F6C JUMPI PUSH2 0x1F2D DUP2 PUSH1 0x5 ADD DUP1 SLOAD PUSH2 0x1EAC SWAP1 PUSH2 0x5586 JUMP JUMPDEST DUP1 PUSH1 0x1F ADD PUSH1 0x20 DUP1 SWAP2 DIV MUL PUSH1 0x20 ADD PUSH1 0x40 MLOAD SWAP1 DUP2 ADD PUSH1 0x40 MSTORE DUP1 SWAP3 SWAP2 SWAP1 DUP2 DUP2 MSTORE PUSH1 0x20 ADD DUP3 DUP1 SLOAD PUSH2 0x1ED8 SWAP1 PUSH2 0x5586 JUMP JUMPDEST DUP1 ISZERO PUSH2 0x1F23 JUMPI DUP1 PUSH1 0x1F LT PUSH2 0x1EFA JUMPI PUSH2 0x100 DUP1 DUP4 SLOAD DIV MUL DUP4 MSTORE SWAP2 PUSH1 0x20 ADD SWAP2 PUSH2 0x1F23 JUMP JUMPDEST DUP3 ADD SWAP2 SWAP1 PUSH0 MSTORE PUSH1 0x20 PUSH0 KECCAK256 SWAP1 JUMPDEST DUP2 SLOAD DUP2 MSTORE SWAP1 PUSH1 0x1 ADD SWAP1 PUSH1 0x20 ADD DUP1 DUP4 GT PUSH2 0x1F06 JUMPI DUP3 SWAP1 SUB PUSH1 0x1F AND DUP3 ADD SWAP2 JUMPDEST POP POP POP POP POP PUSH2 0x426C JUMP JUMPDEST PUSH32 0x4737457377F528CC8AFD815F73ECB8B05DF80D047DBFFC41C17750A4033592BC DUP2 PUSH1 0x5 ADD PUSH1 0x40 MLOAD PUSH2 0x1F5F SWAP2 SWAP1 PUSH2 0x5B9D JUMP JUMPDEST PUSH1 0x40 MLOAD DUP1 SWAP2 SUB SWAP1 LOG1 PUSH2 0x2929 JUMP JUMPDEST PUSH1 0x1 PUSH1 0x7 DUP2 GT ISZERO PUSH2 0x1F80 JUMPI PUSH2 0x1F7F PUSH2 0x4CCA JUMP JUMPDEST JUMPDEST DUP2 PUSH0 ADD PUSH0 SWAP1 SLOAD SWAP1 PUSH2 0x100 EXP SWAP1 DIV PUSH1 0xFF AND PUSH1 0x7 DUP2 GT ISZERO PUSH2 0x1FA2 JUMPI PUSH2 0x1FA1 PUSH2 0x4CCA JUMP JUMPDEST JUMPDEST SUB PUSH2 0x1FFD JUMPI DUP1 PUSH1 0x4 ADD SLOAD PUSH1 0x7 SLOAD PUSH2 0x1FB9 SWAP2 SWAP1 PUSH2 0x56AD JUMP JUMPDEST PUSH1 0x7 DUP2 SWAP1 SSTORE POP PUSH32 0xACD0677FAD7BE9CCAF6C91EBAACA5C9C91622AC0508242D2F8FECA61A0DA249 PUSH1 0x7 SLOAD PUSH1 0x40 MLOAD PUSH2 0x1FF0 SWAP2 SWAP1 PUSH2 0x5069 JUMP JUMPDEST PUSH1 0x40 MLOAD DUP1 SWAP2 SUB SWAP1 LOG1 PUSH2 0x2928 JUMP JUMPDEST PUSH1 0x2 PUSH1 0x7 DUP2 GT ISZERO PUSH2 0x2011 JUMPI PUSH2 0x2010 PUSH2 0x4CCA JUMP JUMPDEST JUMPDEST DUP2 PUSH0 ADD PUSH0 SWAP1 SLOAD SWAP1 PUSH2 0x100 EXP SWAP1 DIV PUSH1 0xFF AND PUSH1 0x7 DUP2 GT ISZERO PUSH2 0x2033 JUMPI PUSH2 0x2032 PUSH2 0x4CCA JUMP JUMPDEST JUMPDEST SUB PUSH2 0x2396 JUMPI PUSH0 PUSH1 0xE DUP1 SLOAD DUP1 PUSH1 0x20 MUL PUSH1 0x20 ADD PUSH1 0x40 MLOAD SWAP1 DUP2 ADD PUSH1 0x40 MSTORE DUP1 SWAP3 SWAP2 SWAP1 DUP2 DUP2 MSTORE PUSH1 0x20 ADD DUP3 DUP1 SLOAD DUP1 ISZERO PUSH2 0x20B8 JUMPI PUSH1 0x20 MUL DUP3 ADD SWAP2 SWAP1 PUSH0 MSTORE PUSH1 0x20 PUSH0 KECCAK256 SWAP1 JUMPDEST DUP2 PUSH0 SWAP1 SLOAD SWAP1 PUSH2 0x100 EXP SWAP1 DIV PUSH20 0xFFFFFFFFFFFFFFFFFFFFFFFFFFFFFFFFFFFFFFFF AND PUSH20 0xFFFFFFFFFFFFFFFFFFFFFFFFFFFFFFFFFFFFFFFF AND DUP2 MSTORE PUSH1 0x20 ADD SWAP1 PUSH1 0x1 ADD SWAP1 DUP1 DUP4 GT PUSH2 0x206F JUMPI JUMPDEST POP POP POP POP POP SWAP1 POP PUSH0 PUSH0 SWAP1 POP JUMPDEST DUP3 PUSH1 0x6 ADD DUP1 SLOAD SWAP1 POP DUP2 LT ISZERO PUSH2 0x2339 JUMPI PUSH0 PUSH1 0xC PUSH0 DUP6 PUSH1 0x6 ADD DUP5 DUP2 SLOAD DUP2 LT PUSH2 0x20ED JUMPI PUSH2 0x20EC PUSH2 0x56EE JUMP JUMPDEST JUMPDEST SWAP1 PUSH0 MSTORE PUSH1 0x20 PUSH0 KECCAK256 ADD PUSH0 SWAP1 SLOAD SWAP1 PUSH2 0x100 EXP SWAP1 DIV PUSH20 0xFFFFFFFFFFFFFFFFFFFFFFFFFFFFFFFFFFFFFFFF AND PUSH20 0xFFFFFFFFFFFFFFFFFFFFFFFFFFFFFFFFFFFFFFFF AND PUSH20 0xFFFFFFFFFFFFFFFFFFFFFFFFFFFFFFFFFFFFFFFF AND DUP2 MSTORE PUSH1 0x20 ADD SWAP1 DUP2 MSTORE PUSH1 0x20 ADD PUSH0 KECCAK256 PUSH0 PUSH2 0x100 EXP DUP2 SLOAD DUP2 PUSH1 0xFF MUL NOT AND SWAP1 DUP4 ISZERO ISZERO MUL OR SWAP1 SSTORE POP PUSH1 0x1 PUSH1 0xC PUSH0 DUP6 PUSH1 0x7 ADD DUP5 DUP2 SLOAD DUP2 LT PUSH2 0x217F JUMPI PUSH2 0x217E PUSH2 0x56EE JUMP JUMPDEST JUMPDEST SWAP1 PUSH0 MSTORE PUSH1 0x20 PUSH0 KECCAK256 ADD PUSH0 SWAP1 SLOAD SWAP1 PUSH2 0x100 EXP SWAP1 DIV PUSH20 0xFFFFFFFFFFFFFFFFFFFFFFFFFFFFFFFFFFFFFFFF AND PUSH20 0xFFFFFFFFFFFFFFFFFFFFFFFFFFFFFFFFFFFFFFFF AND PUSH20 0xFFFFFFFFFFFFFFFFFFFFFFFFFFFFFFFFFFFFFFFF AND DUP2 MSTORE PUSH1 0x20 ADD SWAP1 DUP2 MSTORE PUSH1 0x20 ADD PUSH0 KECCAK256 PUSH0 PUSH2 0x100 EXP DUP2 SLOAD DUP2 PUSH1 0xFF MUL NOT AND SWAP1 DUP4 ISZERO ISZERO MUL OR SWAP1 SSTORE POP PUSH0 PUSH0 SWAP1 POP JUMPDEST DUP3 MLOAD DUP2 LT ISZERO PUSH2 0x232B JUMPI DUP4 PUSH1 0x6 ADD DUP3 DUP2 SLOAD DUP2 LT PUSH2 0x221A JUMPI PUSH2 0x2219 PUSH2 0x56EE JUMP JUMPDEST JUMPDEST SWAP1 PUSH0 MSTORE PUSH1 0x20 PUSH0 KECCAK256 ADD PUSH0 SWAP1 SLOAD SWAP1 PUSH2 0x100 EXP SWAP1 DIV PUSH20 0xFFFFFFFFFFFFFFFFFFFFFFFFFFFFFFFFFFFFFFFF AND PUSH20 0xFFFFFFFFFFFFFFFFFFFFFFFFFFFFFFFFFFFFFFFF AND DUP4 DUP3 DUP2 MLOAD DUP2 LT PUSH2 0x226B JUMPI PUSH2 0x226A PUSH2 0x56EE JUMP JUMPDEST JUMPDEST PUSH1 0x20 MUL PUSH1 0x20 ADD ADD MLOAD PUSH20 0xFFFFFFFFFFFFFFFFFFFFFFFFFFFFFFFFFFFFFFFF AND SUB PUSH2 0x231E JUMPI DUP4 PUSH1 0x7 ADD DUP3 DUP2 SLOAD DUP2 LT PUSH2 0x22A4 JUMPI PUSH2 0x22A3 PUSH2 0x56EE JUMP JUMPDEST JUMPDEST SWAP1 PUSH0 MSTORE PUSH1 0x20 PUSH0 KECCAK256 ADD PUSH0 SWAP1 SLOAD SWAP1 PUSH2 0x100 EXP SWAP1 DIV PUSH20 0xFFFFFFFFFFFFFFFFFFFFFFFFFFFFFFFFFFFFFFFF AND DUP4 DUP3 DUP2 MLOAD DUP2 LT PUSH2 0x22DF JUMPI PUSH2 0x22DE PUSH2 0x56EE JUMP JUMPDEST JUMPDEST PUSH1 0x20 MUL PUSH1 0x20 ADD ADD SWAP1 PUSH20 0xFFFFFFFFFFFFFFFFFFFFFFFFFFFFFFFFFFFFFFFF AND SWAP1 DUP2 PUSH20 0xFFFFFFFFFFFFFFFFFFFFFFFFFFFFFFFFFFFFFFFF AND DUP2 MSTORE POP POP PUSH2 0x232B JUMP JUMPDEST DUP1 DUP1 PUSH1 0x1 ADD SWAP2 POP POP PUSH2 0x21FB JUMP JUMPDEST POP DUP1 DUP1 PUSH1 0x1 ADD SWAP2 POP POP PUSH2 0x20C4 JUMP JUMPDEST POP DUP1 PUSH1 0xE SWAP1 DUP1 MLOAD SWAP1 PUSH1 0x20 ADD SWAP1 PUSH2 0x2350 SWAP3 SWAP2 SWAP1 PUSH2 0x4B5E JUMP JUMPDEST POP PUSH32 0x765616CA75E38E63DCC130430614A01FA91BFE57744073B30BF8F4BA8FA31FFC DUP3 PUSH1 0x6 ADD DUP4 PUSH1 0x7 ADD PUSH1 0x40 MLOAD PUSH2 0x2388 SWAP3 SWAP2 SWAP1 PUSH2 0x5CD3 JUMP JUMPDEST PUSH1 0x40 MLOAD DUP1 SWAP2 SUB SWAP1 LOG1 POP PUSH2 0x2927 JUMP JUMPDEST PUSH1 0x3 PUSH1 0x7 DUP2 GT ISZERO PUSH2 0x23AA JUMPI PUSH2 0x23A9 PUSH2 0x4CCA JUMP JUMPDEST JUMPDEST DUP2 PUSH0 ADD PUSH0 SWAP1 SLOAD SWAP1 PUSH2 0x100 EXP SWAP1 DIV PUSH1 0xFF AND PUSH1 0x7 DUP2 GT ISZERO PUSH2 0x23CC JUMPI PUSH2 0x23CB PUSH2 0x4CCA JUMP JUMPDEST JUMPDEST SUB PUSH2 0x24C0 JUMPI PUSH1 0x1 PUSH1 0x8 PUSH0 DUP4 PUSH1 0x3 ADD PUSH0 SWAP1 SLOAD SWAP1 PUSH2 0x100 EXP SWAP1 DIV PUSH20 0xFFFFFFFFFFFFFFFFFFFFFFFFFFFFFFFFFFFFFFFF AND PUSH20 0xFFFFFFFFFFFFFFFFFFFFFFFFFFFFFFFFFFFFFFFF AND PUSH20 0xFFFFFFFFFFFFFFFFFFFFFFFFFFFFFFFFFFFFFFFF AND DUP2 MSTORE PUSH1 0x20 ADD SWAP1 DUP2 MSTORE PUSH1 0x20 ADD PUSH0 KECCAK256 PUSH0 PUSH2 0x100 EXP DUP2 SLOAD DUP2 PUSH1 0xFF MUL NOT AND SWAP1 DUP4 ISZERO ISZERO MUL OR SWAP1 SSTORE POP DUP1 PUSH1 0x3 ADD PUSH0 SWAP1 SLOAD SWAP1 PUSH2 0x100 EXP SWAP1 DIV PUSH20 0xFFFFFFFFFFFFFFFFFFFFFFFFFFFFFFFFFFFFFFFF AND PUSH20 0xFFFFFFFFFFFFFFFFFFFFFFFFFFFFFFFFFFFFFFFF AND PUSH32 0x708B4D521222BB27F0672D2839E6039075F625A31020905655AFD928FC992340 PUSH1 0x1 PUSH1 0x40 MLOAD PUSH2 0x24B3 SWAP2 SWAP1 PUSH2 0x5D52 JUMP JUMPDEST PUSH1 0x40 MLOAD DUP1 SWAP2 SUB SWAP1 LOG2 PUSH2 0x2926 JUMP JUMPDEST PUSH1 0x4 PUSH1 0x7 DUP2 GT ISZERO PUSH2 0x24D4 JUMPI PUSH2 0x24D3 PUSH2 0x4CCA JUMP JUMPDEST JUMPDEST DUP2 PUSH0 ADD PUSH0 SWAP1 SLOAD SWAP1 PUSH2 0x100 EXP SWAP1 DIV PUSH1 0xFF AND PUSH1 0x7 DUP2 GT ISZERO PUSH2 0x24F6 JUMPI PUSH2 0x24F5 PUSH2 0x4CCA JUMP JUMPDEST JUMPDEST SUB PUSH2 0x25E8 JUMPI PUSH0 PUSH1 0x8 PUSH0 DUP4 PUSH1 0x3 ADD PUSH0 SWAP1 SLOAD SWAP1 PUSH2 0x100 EXP SWAP1 DIV PUSH20 0xFFFFFFFFFFFFFFFFFFFFFFFFFFFFFFFFFFFFFFFF AND PUSH20 0xFFFFFFFFFFFFFFFFFFFFFFFFFFFFFFFFFFFFFFFF AND PUSH20 0xFFFFFFFFFFFFFFFFFFFFFFFFFFFFFFFFFFFFFFFF AND DUP2 MSTORE PUSH1 0x20 ADD SWAP1 DUP2 MSTORE PUSH1 0x20 ADD PUSH0 KECCAK256 PUSH0 PUSH2 0x100 EXP DUP2 SLOAD DUP2 PUSH1 0xFF MUL NOT AND SWAP1 DUP4 ISZERO ISZERO MUL OR SWAP1 SSTORE POP DUP1 PUSH1 0x3 ADD PUSH0 SWAP1 SLOAD SWAP1 PUSH2 0x100 EXP SWAP1 DIV PUSH20 0xFFFFFFFFFFFFFFFFFFFFFFFFFFFFFFFFFFFFFFFF AND PUSH20 0xFFFFFFFFFFFFFFFFFFFFFFFFFFFFFFFFFFFFFFFF AND PUSH32 0x708B4D521222BB27F0672D2839E6039075F625A31020905655AFD928FC992340 PUSH0 PUSH1 0x40 MLOAD PUSH2 0x25DB SWAP2 SWAP1 PUSH2 0x5D52 JUMP JUMPDEST PUSH1 0x40 MLOAD DUP1 SWAP2 SUB SWAP1 LOG2 PUSH2 0x2925 JUMP JUMPDEST PUSH1 0x5 PUSH1 0x7 DUP2 GT ISZERO PUSH2 0x25FC JUMPI PUSH2 0x25FB PUSH2 0x4CCA JUMP JUMPDEST JUMPDEST DUP2 PUSH0 ADD PUSH0 SWAP1 SLOAD SWAP1 PUSH2 0x100 EXP SWAP1 DIV PUSH1 0xFF AND PUSH1 0x7 DUP2 GT ISZERO PUSH2 0x261E JUMPI PUSH2 0x261D PUSH2 0x4CCA JUMP JUMPDEST JUMPDEST SUB PUSH2 0x2712 JUMPI PUSH1 0x1 PUSH1 0x9 PUSH0 DUP4 PUSH1 0x3 ADD PUSH0 SWAP1 SLOAD SWAP1 PUSH2 0x100 EXP SWAP1 DIV PUSH20 0xFFFFFFFFFFFFFFFFFFFFFFFFFFFFFFFFFFFFFFFF AND PUSH20 0xFFFFFFFFFFFFFFFFFFFFFFFFFFFFFFFFFFFFFFFF AND PUSH20 0xFFFFFFFFFFFFFFFFFFFFFFFFFFFFFFFFFFFFFFFF AND DUP2 MSTORE PUSH1 0x20 ADD SWAP1 DUP2 MSTORE PUSH1 0x20 ADD PUSH0 KECCAK256 PUSH0 PUSH2 0x100 EXP DUP2 SLOAD DUP2 PUSH1 0xFF MUL NOT AND SWAP1 DUP4 ISZERO ISZERO MUL OR SWAP1 SSTORE POP DUP1 PUSH1 0x3 ADD PUSH0 SWAP1 SLOAD SWAP1 PUSH2 0x100 EXP SWAP1 DIV PUSH20 0xFFFFFFFFFFFFFFFFFFFFFFFFFFFFFFFFFFFFFFFF AND PUSH20 0xFFFFFFFFFFFFFFFFFFFFFFFFFFFFFFFFFFFFFFFF AND PUSH32 0x708B4D521222BB27F0672D2839E6039075F625A31020905655AFD928FC992340 PUSH1 0x1 PUSH1 0x40 MLOAD PUSH2 0x2705 SWAP2 SWAP1 PUSH2 0x5DC8 JUMP JUMPDEST PUSH1 0x40 MLOAD DUP1 SWAP2 SUB SWAP1 LOG2 PUSH2 0x2924 JUMP JUMPDEST PUSH1 0x6 PUSH1 0x7 DUP2 GT ISZERO PUSH2 0x2726 JUMPI PUSH2 0x2725 PUSH2 0x4CCA JUMP JUMPDEST JUMPDEST DUP2 PUSH0 ADD PUSH0 SWAP1 SLOAD SWAP1 PUSH2 0x100 EXP SWAP1 DIV PUSH1 0xFF AND PUSH1 0x7 DUP2 GT ISZERO PUSH2 0x2748 JUMPI PUSH2 0x2747 PUSH2 0x4CCA JUMP JUMPDEST JUMPDEST SUB PUSH2 0x283A JUMPI PUSH0 PUSH1 0x9 PUSH0 DUP4 PUSH1 0x3 ADD PUSH0 SWAP1 SLOAD SWAP1 PUSH2 0x100 EXP SWAP1 DIV PUSH20 0xFFFFFFFFFFFFFFFFFFFFFFFFFFFFFFFFFFFFFFFF AND PUSH20 0xFFFFFFFFFFFFFFFFFFFFFFFFFFFFFFFFFFFFFFFF AND PUSH20 0xFFFFFFFFFFFFFFFFFFFFFFFFFFFFFFFFFFFFFFFF AND DUP2 MSTORE PUSH1 0x20 ADD SWAP1 DUP2 MSTORE PUSH1 0x20 ADD PUSH0 KECCAK256 PUSH0 PUSH2 0x100 EXP DUP2 SLOAD DUP2 PUSH1 0xFF MUL NOT AND SWAP1 DUP4 ISZERO ISZERO MUL OR SWAP1 SSTORE POP DUP1 PUSH1 0x3 ADD PUSH0 SWAP1 SLOAD SWAP1 PUSH2 0x100 EXP SWAP1 DIV PUSH20 0xFFFFFFFFFFFFFFFFFFFFFFFFFFFFFFFFFFFFFFFF AND PUSH20 0xFFFFFFFFFFFFFFFFFFFFFFFFFFFFFFFFFFFFFFFF AND PUSH32 0x708B4D521222BB27F0672D2839E6039075F625A31020905655AFD928FC992340 PUSH0 PUSH1 0x40 MLOAD PUSH2 0x282D SWAP2 SWAP1 PUSH2 0x5DC8 JUMP JUMPDEST PUSH1 0x40 MLOAD DUP1 SWAP2 SUB SWAP1 LOG2 PUSH2 0x2923 JUMP JUMPDEST PUSH1 0x7 DUP1 DUP2 GT ISZERO PUSH2 0x284D JUMPI PUSH2 0x284C PUSH2 0x4CCA JUMP JUMPDEST JUMPDEST DUP2 PUSH0 ADD PUSH0 SWAP1 SLOAD SWAP1 PUSH2 0x100 EXP SWAP1 DIV PUSH1 0xFF AND PUSH1 0x7 DUP2 GT ISZERO PUSH2 0x286F JUMPI PUSH2 0x286E PUSH2 0x4CCA JUMP JUMPDEST JUMPDEST SUB PUSH2 0x2922 JUMPI PUSH2 0x28A5 DUP2 PUSH1 0x3 ADD PUSH0 SWAP1 SLOAD SWAP1 PUSH2 0x100 EXP SWAP1 DIV PUSH20 0xFFFFFFFFFFFFFFFFFFFFFFFFFFFFFFFFFFFFFFFF AND DUP3 PUSH1 0x4 ADD SLOAD PUSH2 0x427F JUMP JUMPDEST DUP1 PUSH1 0x4 ADD SLOAD PUSH1 0xA PUSH0 DUP3 DUP3 SLOAD PUSH2 0x28BA SWAP2 SWAP1 PUSH2 0x571B JUMP JUMPDEST SWAP3 POP POP DUP2 SWAP1 SSTORE POP PUSH32 0x570563F436DC733C61D3863FD95E547272964F69D7B5CFE7461360A7A5643E3C DUP2 PUSH1 0x3 ADD PUSH0 SWAP1 SLOAD SWAP1 PUSH2 0x100 EXP SWAP1 DIV PUSH20 0xFFFFFFFFFFFFFFFFFFFFFFFFFFFFFFFFFFFFFFFF AND DUP3 PUSH1 0x4 ADD SLOAD PUSH1 0x40 MLOAD PUSH2 0x2919 SWAP3 SWAP2 SWAP1 PUSH2 0x5DF4 JUMP JUMPDEST PUSH1 0x40 MLOAD DUP1 SWAP2 SUB SWAP1 LOG1 JUMPDEST JUMPDEST JUMPDEST JUMPDEST JUMPDEST JUMPDEST JUMPDEST JUMPDEST PUSH2 0x2932 DUP3 PUSH2 0x42FE JUMP JUMPDEST PUSH1 0xF PUSH0 DUP4 DUP2 MSTORE PUSH1 0x20 ADD SWAP1 DUP2 MSTORE PUSH1 0x20 ADD PUSH0 KECCAK256 PUSH0 PUSH0 DUP3 ADD PUSH0 PUSH2 0x100 EXP DUP2 SLOAD SWAP1 PUSH1 0xFF MUL NOT AND SWAP1 SSTORE PUSH0 DUP3 ADD PUSH1 0x1 PUSH2 0x100 EXP DUP2 SLOAD SWAP1 PUSH20 0xFFFFFFFFFFFFFFFFFFFFFFFFFFFFFFFFFFFFFFFF MUL NOT AND SWAP1 SSTORE PUSH1 0x1 DUP3 ADD PUSH0 SWAP1 SSTORE PUSH1 0x2 DUP3 ADD PUSH0 SWAP1 SSTORE PUSH1 0x3 DUP3 ADD PUSH0 PUSH2 0x100 EXP DUP2 SLOAD SWAP1 PUSH20 0xFFFFFFFFFFFFFFFFFFFFFFFFFFFFFFFFFFFFFFFF MUL NOT AND SWAP1 SSTORE PUSH1 0x4 DUP3 ADD PUSH0 SWAP1 SSTORE PUSH1 0x5 DUP3 ADD PUSH0 PUSH2 0x29C6 SWAP2 SWAP1 PUSH2 0x4BE5 JUMP JUMPDEST PUSH1 0x6 DUP3 ADD PUSH0 PUSH2 0x29D5 SWAP2 SWAP1 PUSH2 0x4C22 JUMP JUMPDEST PUSH1 0x7 DUP3 ADD PUSH0 PUSH2 0x29E4 SWAP2 SWAP1 PUSH2 0x4C22 JUMP JUMPDEST PUSH1 0x8 DUP3 ADD PUSH0 PUSH2 0x100 EXP DUP2 SLOAD SWAP1 PUSH1 0xFF MUL NOT AND SWAP1 SSTORE POP POP DUP2 PUSH32 0x5B9614F21773D68C0B149BDA804FF3D491C8BC8795F7ED236CC97804CD005389 DUP3 PUSH0 ADD PUSH0 SWAP1 SLOAD SWAP1 PUSH2 0x100 EXP SWAP1 DIV PUSH1 0xFF AND PUSH1 0x40 MLOAD PUSH2 0x2A38 SWAP2 SWAP1 PUSH2 0x5E1B JUMP JUMPDEST PUSH1 0x40 MLOAD DUP1 SWAP2 SUB SWAP1 LOG2 POP POP JUMP JUMPDEST PUSH2 0x2A4C PUSH2 0x3DD0 JUMP JUMPDEST PUSH1 0x11 PUSH1 0x1 SWAP1 SLOAD SWAP1 PUSH2 0x100 EXP SWAP1 DIV PUSH1 0xFF AND ISZERO PUSH2 0x2A9C JUMPI PUSH1 0x40 MLOAD PUSH32 0x8C379A000000000000000000000000000000000000000000000000000000000 DUP2 MSTORE PUSH1 0x4 ADD PUSH2 0x2A93 SWAP1 PUSH2 0x54C7 JUMP JUMPDEST PUSH1 0x40 MLOAD DUP1 SWAP2 SUB SWAP1 REVERT JUMPDEST PUSH1 0x8 PUSH0 DUP3 PUSH20 0xFFFFFFFFFFFFFFFFFFFFFFFFFFFFFFFFFFFFFFFF AND PUSH20 0xFFFFFFFFFFFFFFFFFFFFFFFFFFFFFFFFFFFFFFFF AND DUP2 MSTORE PUSH1 0x20 ADD SWAP1 DUP2 MSTORE PUSH1 0x20 ADD PUSH0 KECCAK256 PUSH0 SWAP1 SLOAD SWAP1 PUSH2 0x100 EXP SWAP1 DIV PUSH1 0xFF AND PUSH2 0x2B25 JUMPI PUSH1 0x40 MLOAD PUSH32 0x8C379A000000000000000000000000000000000000000000000000000000000 DUP2 MSTORE PUSH1 0x4 ADD PUSH2 0x2B1C SWAP1 PUSH2 0x54C7 JUMP JUMPDEST PUSH1 0x40 MLOAD DUP1 SWAP2 SUB SWAP1 REVERT JUMPDEST PUSH0 DUP3 GT PUSH2 0x2B67 JUMPI PUSH1 0x40 MLOAD PUSH32 0x8C379A000000000000000000000000000000000000000000000000000000000 DUP2 MSTORE PUSH1 0x4 ADD PUSH2 0x2B5E SWAP1 PUSH2 0x54C7 JUMP JUMPDEST PUSH1 0x40 MLOAD DUP1 SWAP2 SUB SWAP1 REVERT JUMPDEST PUSH0 PUSH1 0x14 DUP4 PUSH2 0x2B75 SWAP2 SWAP1 PUSH2 0x5E34 JUMP JUMPDEST SWAP1 POP PUSH0 DUP2 GT PUSH2 0x2BB9 JUMPI PUSH1 0x40 MLOAD PUSH32 0x8C379A000000000000000000000000000000000000000000000000000000000 DUP2 MSTORE PUSH1 0x4 ADD PUSH2 0x2BB0 SWAP1 PUSH2 0x54C7 JUMP JUMPDEST PUSH1 0x40 MLOAD DUP1 SWAP2 SUB SWAP1 REVERT JUMPDEST PUSH1 0x7 SLOAD DUP2 PUSH1 0xA SLOAD PUSH2 0x2BCA SWAP2 SWAP1 PUSH2 0x571B JUMP JUMPDEST GT ISZERO PUSH2 0x2C0B JUMPI PUSH1 0x40 MLOAD PUSH32 0x8C379A000000000000000000000000000000000000000000000000000000000 DUP2 MSTORE PUSH1 0x4 ADD PUSH2 0x2C02 SWAP1 PUSH2 0x54C7 JUMP JUMPDEST PUSH1 0x40 MLOAD DUP1 SWAP2 SUB SWAP1 REVERT JUMPDEST PUSH2 0x2C15 DUP3 DUP3 PUSH2 0x427F JUMP JUMPDEST DUP1 PUSH1 0xA PUSH0 DUP3 DUP3 SLOAD PUSH2 0x2C26 SWAP2 SWAP1 PUSH2 0x571B JUMP JUMPDEST SWAP3 POP POP DUP2 SWAP1 SSTORE POP DUP2 PUSH20 0xFFFFFFFFFFFFFFFFFFFFFFFFFFFFFFFFFFFFFFFF AND CALLER PUSH20 0xFFFFFFFFFFFFFFFFFFFFFFFFFFFFFFFFFFFFFFFF AND PUSH32 0xBADB5A53E5A7F1F292F32F4CA0C78E80D05F213DB774602ACC6FACA5AECDF6D7 DUP6 DUP5 PUSH1 0x40 MLOAD PUSH2 0x2C8C SWAP3 SWAP2 SWAP1 PUSH2 0x5E75 JUMP JUMPDEST PUSH1 0x40 MLOAD DUP1 SWAP2 SUB SWAP1 LOG3 POP PUSH2 0x2C9D PUSH2 0x401D JUMP JUMPDEST POP POP JUMP JUMPDEST PUSH0 PUSH2 0x2CAB DUP3 PUSH2 0x3177 JUMP JUMPDEST SWAP1 POP SWAP2 SWAP1 POP JUMP JUMPDEST PUSH0 PUSH0 SWAP1 POP SWAP1 JUMP JUMPDEST PUSH1 0x14 DUP2 JUMP JUMPDEST PUSH0 PUSH1 0x2 SLOAD SWAP1 POP SWAP1 JUMP JUMPDEST PUSH1 0x12 SLOAD DUP2 JUMP JUMPDEST PUSH0 PUSH1 0x11 PUSH1 0x1 SWAP1 SLOAD SWAP1 PUSH2 0x100 EXP SWAP1 DIV PUSH1 0xFF AND ISZERO PUSH2 0x2D1E JUMPI PUSH1 0x40 MLOAD PUSH32 0x8C379A000000000000000000000000000000000000000000000000000000000 DUP2 MSTORE PUSH1 0x4 ADD PUSH2 0x2D15 SWAP1 PUSH2 0x54C7 JUMP JUMPDEST PUSH1 0x40 MLOAD DUP1 SWAP2 SUB SWAP1 REVERT JUMPDEST PUSH1 0x9 PUSH0 DUP6 PUSH20 0xFFFFFFFFFFFFFFFFFFFFFFFFFFFFFFFFFFFFFFFF AND PUSH20 0xFFFFFFFFFFFFFFFFFFFFFFFFFFFFFFFFFFFFFFFF AND DUP2 MSTORE PUSH1 0x20 ADD SWAP1 DUP2 MSTORE PUSH1 0x20 ADD PUSH0 KECCAK256 PUSH0 SWAP1 SLOAD SWAP1 PUSH2 0x100 EXP SWAP1 DIV PUSH1 0xFF AND ISZERO PUSH2 0x2DA8 JUMPI PUSH1 0x40 MLOAD PUSH32 0x8C379A000000000000000000000000000000000000000000000000000000000 DUP2 MSTORE PUSH1 0x4 ADD PUSH2 0x2D9F SWAP1 PUSH2 0x54C7 JUMP JUMPDEST PUSH1 0x40 MLOAD DUP1 SWAP2 SUB SWAP1 REVERT JUMPDEST DUP2 PUSH16 0xFFFFFFFFFFFFFFFFFFFFFFFFFFFFFFFF AND DUP3 EQ PUSH2 0x2DFC JUMPI PUSH1 0x40 MLOAD PUSH32 0x8C379A000000000000000000000000000000000000000000000000000000000 DUP2 MSTORE PUSH1 0x4 ADD PUSH2 0x2DF3 SWAP1 PUSH2 0x54C7 JUMP JUMPDEST PUSH1 0x40 MLOAD DUP1 SWAP2 SUB SWAP1 REVERT JUMPDEST PUSH2 0x2E07 DUP5 DUP5 DUP5 PUSH2 0x4459 JUMP JUMPDEST SWAP1 POP SWAP4 SWAP3 POP POP POP JUMP JUMPDEST PUSH1 0xA SLOAD DUP2 JUMP JUMPDEST PUSH1 0x3 DUP2 JUMP JUMPDEST PUSH1 0x5 DUP2 JUMP JUMPDEST PUSH0 PUSH0 SWAP1 POP SWAP1 JUMP JUMPDEST PUSH1 0xD PUSH1 0x20 MSTORE DUP2 PUSH0 MSTORE PUSH1 0x40 PUSH0 KECCAK256 PUSH1 0x20 MSTORE DUP1 PUSH0 MSTORE PUSH1 0x40 PUSH0 KECCAK256 PUSH0 SWAP2 POP SWAP2 POP SWAP1 SLOAD SWAP1 PUSH2 0x100 EXP SWAP1 DIV PUSH1 0xFF AND DUP2 JUMP JUMPDEST PUSH1 0xC PUSH0 CALLER PUSH20 0xFFFFFFFFFFFFFFFFFFFFFFFFFFFFFFFFFFFFFFFF AND PUSH20 0xFFFFFFFFFFFFFFFFFFFFFFFFFFFFFFFFFFFFFFFF AND DUP2 MSTORE PUSH1 0x20 ADD SWAP1 DUP2 MSTORE PUSH1 0x20 ADD PUSH0 KECCAK256 PUSH0 SWAP1 SLOAD SWAP1 PUSH2 0x100 EXP SWAP1 DIV PUSH1 0xFF AND PUSH2 0x2EDA JUMPI PUSH1 0x40 MLOAD PUSH32 0x8C379A000000000000000000000000000000000000000000000000000000000 DUP2 MSTORE PUSH1 0x4 ADD PUSH2 0x2ED1 SWAP1 PUSH2 0x54C7 JUMP JUMPDEST PUSH1 0x40 MLOAD DUP1 SWAP2 SUB SWAP1 REVERT JUMPDEST PUSH1 0x11 PUSH1 0x1 SWAP1 SLOAD SWAP1 PUSH2 0x100 EXP SWAP1 DIV PUSH1 0xFF AND ISZERO PUSH2 0x2F2A JUMPI PUSH1 0x40 MLOAD PUSH32 0x8C379A000000000000000000000000000000000000000000000000000000000 DUP2 MSTORE PUSH1 0x4 ADD PUSH2 0x2F21 SWAP1 PUSH2 0x54C7 JUMP JUMPDEST PUSH1 0x40 MLOAD DUP1 SWAP2 SUB SWAP1 REVERT JUMPDEST PUSH1 0x1 PUSH1 0x11 PUSH1 0x1 PUSH2 0x100 EXP DUP2 SLOAD DUP2 PUSH1 0xFF MUL NOT AND SWAP1 DUP4 ISZERO ISZERO MUL OR SWAP1 SSTORE POP PUSH32 0xAB35696F06E428EBC5CEBA8CD17F8FED287BAF43440206D1943AF1EE53E6D267 PUSH1 0x40 MLOAD PUSH1 0x40 MLOAD DUP1 SWAP2 SUB SWAP1 LOG1 JUMP JUMPDEST PUSH1 0x60 PUSH1 0x40 MLOAD DUP1 PUSH1 0x40 ADD PUSH1 0x40 MSTORE DUP1 PUSH1 0x5 DUP2 MSTORE PUSH1 0x20 ADD PUSH32 0x312E302E30000000000000000000000000000000000000000000000000000000 DUP2 MSTORE POP SWAP1 POP SWAP1 JUMP JUMPDEST PUSH1 0x60 PUSH0 PUSH0 SWAP1 POP PUSH0 PUSH0 SWAP1 POP JUMPDEST PUSH1 0x10 SLOAD DUP2 LT ISZERO PUSH2 0x3007 JUMPI PUSH1 0xF PUSH0 DUP3 DUP2 MSTORE PUSH1 0x20 ADD SWAP1 DUP2 MSTORE PUSH1 0x20 ADD PUSH0 KECCAK256 PUSH1 0x8 ADD PUSH0 SWAP1 SLOAD SWAP1 PUSH2 0x100 EXP SWAP1 DIV PUSH1 0xFF AND ISZERO PUSH2 0x2FFA JUMPI DUP2 DUP1 PUSH2 0x2FF6 SWAP1 PUSH2 0x5512 JUMP JUMPDEST SWAP3 POP POP JUMPDEST DUP1 DUP1 PUSH1 0x1 ADD SWAP2 POP POP PUSH2 0x2FBB JUMP JUMPDEST POP DUP1 PUSH8 0xFFFFFFFFFFFFFFFF DUP2 GT ISZERO PUSH2 0x3022 JUMPI PUSH2 0x3021 PUSH2 0x4E9C JUMP JUMPDEST JUMPDEST PUSH1 0x40 MLOAD SWAP1 DUP1 DUP3 MSTORE DUP1 PUSH1 0x20 MUL PUSH1 0x20 ADD DUP3 ADD PUSH1 0x40 MSTORE DUP1 ISZERO PUSH2 0x3050 JUMPI DUP2 PUSH1 0x20 ADD PUSH1 0x20 DUP3 MUL DUP1 CALLDATASIZE DUP4 CALLDATACOPY DUP1 DUP3 ADD SWAP2 POP POP SWAP1 POP JUMPDEST POP SWAP2 POP PUSH0 PUSH0 SWAP1 POP PUSH0 PUSH0 SWAP1 POP JUMPDEST PUSH1 0x10 SLOAD DUP2 LT ISZERO PUSH2 0x30C8 JUMPI PUSH1 0xF PUSH0 DUP3 DUP2 MSTORE PUSH1 0x20 ADD SWAP1 DUP2 MSTORE PUSH1 0x20 ADD PUSH0 KECCAK256 PUSH1 0x8 ADD PUSH0 SWAP1 SLOAD SWAP1 PUSH2 0x100 EXP SWAP1 DIV PUSH1 0xFF AND ISZERO PUSH2 0x30BB JUMPI DUP1 DUP5 DUP4 DUP2 MLOAD DUP2 LT PUSH2 0x30A0 JUMPI PUSH2 0x309F PUSH2 0x56EE JUMP JUMPDEST JUMPDEST PUSH1 0x20 MUL PUSH1 0x20 ADD ADD DUP2 DUP2 MSTORE POP POP DUP2 DUP1 PUSH2 0x30B7 SWAP1 PUSH2 0x5512 JUMP JUMPDEST SWAP3 POP POP JUMPDEST DUP1 DUP1 PUSH1 0x1 ADD SWAP2 POP POP PUSH2 0x305C JUMP JUMPDEST POP POP POP SWAP1 JUMP JUMPDEST PUSH0 PUSH1 0x11 PUSH1 0x1 SWAP1 SLOAD SWAP1 PUSH2 0x100 EXP SWAP1 DIV PUSH1 0xFF AND SWAP1 POP SWAP1 JUMP JUMPDEST PUSH0 PUSH0 SWAP1 POP SWAP1 JUMP JUMPDEST PUSH1 0xB DUP1 SLOAD PUSH2 0x30F8 SWAP1 PUSH2 0x5586 JUMP JUMPDEST DUP1 PUSH1 0x1F ADD PUSH1 0x20 DUP1 SWAP2 DIV MUL PUSH1 0x20 ADD PUSH1 0x40 MLOAD SWAP1 DUP2 ADD PUSH1 0x40 MSTORE DUP1 SWAP3 SWAP2 SWAP1 DUP2 DUP2 MSTORE PUSH1 0x20 ADD DUP3 DUP1 SLOAD PUSH2 0x3124 SWAP1 PUSH2 0x5586 JUMP JUMPDEST DUP1 ISZERO PUSH2 0x316F JUMPI DUP1 PUSH1 0x1F LT PUSH2 0x3146 JUMPI PUSH2 0x100 DUP1 DUP4 SLOAD DIV MUL DUP4 MSTORE SWAP2 PUSH1 0x20 ADD SWAP2 PUSH2 0x316F JUMP JUMPDEST DUP3 ADD SWAP2 SWAP1 PUSH0 MSTORE PUSH1 0x20 PUSH0 KECCAK256 SWAP1 JUMPDEST DUP2 SLOAD DUP2 MSTORE SWAP1 PUSH1 0x1 ADD SWAP1 PUSH1 0x20 ADD DUP1 DUP4 GT PUSH2 0x3152 JUMPI DUP3 SWAP1 SUB PUSH1 0x1F AND DUP3 ADD SWAP2 JUMPDEST POP POP POP POP POP DUP2 JUMP JUMPDEST PUSH0 PUSH0 PUSH0 DUP4 PUSH20 0xFFFFFFFFFFFFFFFFFFFFFFFFFFFFFFFFFFFFFFFF AND PUSH20 0xFFFFFFFFFFFFFFFFFFFFFFFFFFFFFFFFFFFFFFFF AND DUP2 MSTORE PUSH1 0x20 ADD SWAP1 DUP2 MSTORE PUSH1 0x20 ADD PUSH0 KECCAK256 SLOAD SWAP1 POP SWAP2 SWAP1 POP JUMP JUMPDEST PUSH2 0x31C4 PUSH2 0x4487 JUMP JUMPDEST PUSH2 0x31CD PUSH0 PUSH2 0x450E JUMP JUMPDEST JUMP JUMPDEST PUSH1 0xE DUP2 DUP2 SLOAD DUP2 LT PUSH2 0x31DE JUMPI PUSH0 DUP1 REVERT JUMPDEST SWAP1 PUSH0 MSTORE PUSH1 0x20 PUSH0 KECCAK256 ADD PUSH0 SWAP2 POP SLOAD SWAP1 PUSH2 0x100 EXP SWAP1 DIV PUSH20 0xFFFFFFFFFFFFFFFFFFFFFFFFFFFFFFFFFFFFFFFF AND DUP2 JUMP JUMPDEST PUSH2 0x3212 PUSH2 0x4487 JUMP JUMPDEST PUSH0 PUSH1 0x11 PUSH0 PUSH2 0x100 EXP DUP2 SLOAD DUP2 PUSH1 0xFF MUL NOT AND SWAP1 DUP4 ISZERO ISZERO MUL OR SWAP1 SSTORE POP PUSH32 0x8F69EF9279BFB1FE5F4F75790947A23FA88774E98242B966BCAAF7D25E8B3C16 PUSH1 0x40 MLOAD PUSH1 0x40 MLOAD DUP1 SWAP2 SUB SWAP1 LOG1 JUMP JUMPDEST PUSH2 0x384 DUP2 JUMP JUMPDEST PUSH1 0x11 PUSH1 0x1 SWAP1 SLOAD SWAP1 PUSH2 0x100 EXP SWAP1 DIV PUSH1 0xFF AND ISZERO PUSH2 0x32AF JUMPI PUSH1 0x40 MLOAD PUSH32 0x8C379A000000000000000000000000000000000000000000000000000000000 DUP2 MSTORE PUSH1 0x4 ADD PUSH2 0x32A6 SWAP1 PUSH2 0x54C7 JUMP JUMPDEST PUSH1 0x40 MLOAD DUP1 SWAP2 SUB SWAP1 REVERT JUMPDEST PUSH1 0xC PUSH0 CALLER PUSH20 0xFFFFFFFFFFFFFFFFFFFFFFFFFFFFFFFFFFFFFFFF AND PUSH20 0xFFFFFFFFFFFFFFFFFFFFFFFFFFFFFFFFFFFFFFFF AND DUP2 MSTORE PUSH1 0x20 ADD SWAP1 DUP2 MSTORE PUSH1 0x20 ADD PUSH0 KECCAK256 PUSH0 SWAP1 SLOAD SWAP1 PUSH2 0x100 EXP SWAP1 DIV PUSH1 0xFF AND PUSH2 0x3338 JUMPI PUSH1 0x40 MLOAD PUSH32 0x8C379A000000000000000000000000000000000000000000000000000000000 DUP2 MSTORE PUSH1 0x4 ADD PUSH2 0x332F SWAP1 PUSH2 0x54C7 JUMP JUMPDEST PUSH1 0x40 MLOAD DUP1 SWAP2 SUB SWAP1 REVERT JUMPDEST PUSH2 0x12C PUSH1 0x12 SLOAD PUSH2 0x3348 SWAP2 SWAP1 PUSH2 0x571B JUMP JUMPDEST TIMESTAMP LT ISZERO PUSH2 0x338A JUMPI PUSH1 0x40 MLOAD PUSH32 0x8C379A000000000000000000000000000000000000000000000000000000000 DUP2 MSTORE PUSH1 0x4 ADD PUSH2 0x3381 SWAP1 PUSH2 0x54C7 JUMP JUMPDEST PUSH1 0x40 MLOAD DUP1 SWAP2 SUB SWAP1 REVERT JUMPDEST PUSH1 0x7 SLOAD PUSH8 0xDE0B6B3A7640000 PUSH1 0xA SLOAD PUSH2 0x33A3 SWAP2 SWAP1 PUSH2 0x571B JUMP JUMPDEST GT ISZERO PUSH2 0x33E4 JUMPI PUSH1 0x40 MLOAD PUSH32 0x8C379A000000000000000000000000000000000000000000000000000000000 DUP2 MSTORE PUSH1 0x4 ADD PUSH2 0x33DB SWAP1 PUSH2 0x54C7 JUMP JUMPDEST PUSH1 0x40 MLOAD DUP1 SWAP2 SUB SWAP1 REVERT JUMPDEST TIMESTAMP PUSH1 0x12 DUP2 SWAP1 SSTORE POP PUSH32 0x90596CA0CB29EF99CD530E572920440D7D040408F92C28E46836FE9E048F59D8 PUSH8 0xDE0B6B3A7640000 PUSH1 0x40 MLOAD PUSH2 0x3422 SWAP2 SWAP1 PUSH2 0x5069 JUMP JUMPDEST PUSH1 0x40 MLOAD DUP1 SWAP2 SUB SWAP1 LOG1 JUMP JUMPDEST PUSH1 0x11 PUSH1 0x1 SWAP1 SLOAD SWAP1 PUSH2 0x100 EXP SWAP1 DIV PUSH1 0xFF AND DUP2 JUMP JUMPDEST PUSH0 PUSH1 0x5 PUSH0 SWAP1 SLOAD SWAP1 PUSH2 0x100 EXP SWAP1 DIV PUSH20 0xFFFFFFFFFFFFFFFFFFFFFFFFFFFFFFFFFFFFFFFF AND SWAP1 POP SWAP1 JUMP JUMPDEST PUSH1 0x7 SLOAD DUP2 JUMP JUMPDEST PUSH1 0x60 PUSH1 0x4 DUP1 SLOAD PUSH2 0x347C SWAP1 PUSH2 0x5586 JUMP JUMPDEST DUP1 PUSH1 0x1F ADD PUSH1 0x20 DUP1 SWAP2 DIV MUL PUSH1 0x20 ADD PUSH1 0x40 MLOAD SWAP1 DUP2 ADD PUSH1 0x40 MSTORE DUP1 SWAP3 SWAP2 SWAP1 DUP2 DUP2 MSTORE PUSH1 0x20 ADD DUP3 DUP1 SLOAD PUSH2 0x34A8 SWAP1 PUSH2 0x5586 JUMP JUMPDEST DUP1 ISZERO PUSH2 0x34F3 JUMPI DUP1 PUSH1 0x1F LT PUSH2 0x34CA JUMPI PUSH2 0x100 DUP1 DUP4 SLOAD DIV MUL DUP4 MSTORE SWAP2 PUSH1 0x20 ADD SWAP2 PUSH2 0x34F3 JUMP JUMPDEST DUP3 ADD SWAP2 SWAP1 PUSH0 MSTORE PUSH1 0x20 PUSH0 KECCAK256 SWAP1 JUMPDEST DUP2 SLOAD DUP2 MSTORE SWAP1 PUSH1 0x1 ADD SWAP1 PUSH1 0x20 ADD DUP1 DUP4 GT PUSH2 0x34D6 JUMPI DUP3 SWAP1 SUB PUSH1 0x1F AND DUP3 ADD SWAP2 JUMPDEST POP POP POP POP POP SWAP1 POP SWAP1 JUMP JUMPDEST PUSH1 0x8 PUSH1 0x20 MSTORE DUP1 PUSH0 MSTORE PUSH1 0x40 PUSH0 KECCAK256 PUSH0 SWAP2 POP SLOAD SWAP1 PUSH2 0x100 EXP SWAP1 DIV PUSH1 0xFF AND DUP2 JUMP JUMPDEST PUSH1 0xC PUSH1 0x20 MSTORE DUP1 PUSH0 MSTORE PUSH1 0x40 PUSH0 KECCAK256 PUSH0 SWAP2 POP SLOAD SWAP1 PUSH2 0x100 EXP SWAP1 DIV PUSH1 0xFF AND DUP2 JUMP JUMPDEST PUSH0 PUSH1 0x11 PUSH1 0x1 SWAP1 SLOAD SWAP1 PUSH2 0x100 EXP SWAP1 DIV PUSH1 0xFF AND ISZERO PUSH2 0x3588 JUMPI PUSH1 0x40 MLOAD PUSH32 0x8C379A000000000000000000000000000000000000000000000000000000000 DUP2 MSTORE PUSH1 0x4 ADD PUSH2 0x357F SWAP1 PUSH2 0x54C7 JUMP JUMPDEST PUSH1 0x40 MLOAD DUP1 SWAP2 SUB SWAP1 REVERT JUMPDEST PUSH1 0x9 PUSH0 CALLER PUSH20 0xFFFFFFFFFFFFFFFFFFFFFFFFFFFFFFFFFFFFFFFF AND PUSH20 0xFFFFFFFFFFFFFFFFFFFFFFFFFFFFFFFFFFFFFFFF AND DUP2 MSTORE PUSH1 0x20 ADD SWAP1 DUP2 MSTORE PUSH1 0x20 ADD PUSH0 KECCAK256 PUSH0 SWAP1 SLOAD SWAP1 PUSH2 0x100 EXP SWAP1 DIV PUSH1 0xFF AND ISZERO PUSH2 0x3612 JUMPI PUSH1 0x40 MLOAD PUSH32 0x8C379A000000000000000000000000000000000000000000000000000000000 DUP2 MSTORE PUSH1 0x4 ADD PUSH2 0x3609 SWAP1 PUSH2 0x54C7 JUMP JUMPDEST PUSH1 0x40 MLOAD DUP1 SWAP2 SUB SWAP1 REVERT JUMPDEST DUP2 PUSH16 0xFFFFFFFFFFFFFFFFFFFFFFFFFFFFFFFF AND DUP3 EQ PUSH2 0x3666 JUMPI PUSH1 0x40 MLOAD PUSH32 0x8C379A000000000000000000000000000000000000000000000000000000000 DUP2 MSTORE PUSH1 0x4 ADD PUSH2 0x365D SWAP1 PUSH2 0x54C7 JUMP JUMPDEST PUSH1 0x40 MLOAD DUP1 SWAP2 SUB SWAP1 REVERT JUMPDEST PUSH2 0x3670 DUP4 DUP4 PUSH2 0x45D1 JUMP JUMPDEST SWAP1 POP SWAP3 SWAP2 POP POP JUMP JUMPDEST PUSH0 ADDRESS SWAP1 POP SWAP1 JUMP JUMPDEST PUSH1 0x13 SLOAD DUP2 JUMP JUMPDEST PUSH1 0x11 PUSH0 SWAP1 SLOAD SWAP1 PUSH2 0x100 EXP SWAP1 DIV PUSH1 0xFF AND DUP2 JUMP JUMPDEST PUSH9 0x56BC75E2D63100000 DUP2 JUMP JUMPDEST PUSH0 PUSH0 PUSH1 0x10 SLOAD GT PUSH2 0x36B4 JUMPI PUSH0 PUSH2 0x36C4 JUMP JUMPDEST PUSH1 0x1 PUSH1 0x10 SLOAD PUSH2 0x36C3 SWAP2 SWAP1 PUSH2 0x5E9C JUMP JUMPDEST JUMPDEST SWAP1 POP SWAP1 JUMP JUMPDEST PUSH1 0xC PUSH0 CALLER PUSH20 0xFFFFFFFFFFFFFFFFFFFFFFFFFFFFFFFFFFFFFFFF AND PUSH20 0xFFFFFFFFFFFFFFFFFFFFFFFFFFFFFFFFFFFFFFFF AND DUP2 MSTORE PUSH1 0x20 ADD SWAP1 DUP2 MSTORE PUSH1 0x20 ADD PUSH0 KECCAK256 PUSH0 SWAP1 SLOAD SWAP1 PUSH2 0x100 EXP SWAP1 DIV PUSH1 0xFF AND PUSH2 0x3752 JUMPI PUSH1 0x40 MLOAD PUSH32 0x8C379A000000000000000000000000000000000000000000000000000000000 DUP2 MSTORE PUSH1 0x4 ADD PUSH2 0x3749 SWAP1 PUSH2 0x54C7 JUMP JUMPDEST PUSH1 0x40 MLOAD DUP1 SWAP2 SUB SWAP1 REVERT JUMPDEST PUSH0 PUSH1 0x11 PUSH1 0x1 PUSH2 0x100 EXP DUP2 SLOAD DUP2 PUSH1 0xFF MUL NOT AND SWAP1 DUP4 ISZERO ISZERO MUL OR SWAP1 SSTORE POP PUSH32 0xAB5F6DACF93A267A93A533DE8A56370DE8341BBD8102017307E7BE375C3DDA6A PUSH1 0x40 MLOAD PUSH1 0x40 MLOAD DUP1 SWAP2 SUB SWAP1 LOG1 JUMP JUMPDEST PUSH2 0x37A2 PUSH2 0x3DD0 JUMP JUMPDEST PUSH1 0x11 PUSH1 0x1 SWAP1 SLOAD SWAP1 PUSH2 0x100 EXP SWAP1 DIV PUSH1 0xFF AND ISZERO PUSH2 0x37F2 JUMPI PUSH1 0x40 MLOAD PUSH32 0x8C379A000000000000000000000000000000000000000000000000000000000 DUP2 MSTORE PUSH1 0x4 ADD PUSH2 0x37E9 SWAP1 PUSH2 0x54C7 JUMP JUMPDEST PUSH1 0x40 MLOAD DUP1 SWAP2 SUB SWAP1 REVERT JUMPDEST PUSH2 0x384 PUSH1 0x13 SLOAD PUSH2 0x3802 SWAP2 SWAP1 PUSH2 0x571B JUMP JUMPDEST TIMESTAMP LT ISZERO PUSH2 0x3844 JUMPI PUSH1 0x40 MLOAD PUSH32 0x8C379A000000000000000000000000000000000000000000000000000000000 DUP2 MSTORE PUSH1 0x4 ADD PUSH2 0x383B SWAP1 PUSH2 0x54C7 JUMP JUMPDEST PUSH1 0x40 MLOAD DUP1 SWAP2 SUB SWAP1 REVERT JUMPDEST PUSH2 0x3857 DUP2 PUSH9 0x56BC75E2D63100000 PUSH2 0x3E1F JUMP JUMPDEST TIMESTAMP PUSH1 0x13 DUP2 SWAP1 SSTORE POP DUP1 PUSH1 0x40 MLOAD PUSH2 0x386C SWAP2 SWAP1 PUSH2 0x5667 JUMP JUMPDEST PUSH1 0x40 MLOAD DUP1 SWAP2 SUB SWAP1 KECCAK256 PUSH32 0xC2AEAD9CF0EE95E5F48D316DB6ADCF05801AEC50B3029BF8AFCD0C2FAF73B12D PUSH9 0x56BC75E2D63100000 PUSH1 0x1 PUSH1 0x40 MLOAD PUSH2 0x38AF SWAP3 SWAP2 SWAP1 PUSH2 0x567D JUMP JUMPDEST PUSH1 0x40 MLOAD DUP1 SWAP2 SUB SWAP1 LOG2 PUSH2 0x38BF PUSH2 0x401D JUMP JUMPDEST POP JUMP JUMPDEST PUSH1 0x9 PUSH1 0x20 MSTORE DUP1 PUSH0 MSTORE PUSH1 0x40 PUSH0 KECCAK256 PUSH0 SWAP2 POP SLOAD SWAP1 PUSH2 0x100 EXP SWAP1 DIV PUSH1 0xFF AND DUP2 JUMP JUMPDEST PUSH0 PUSH1 0xA SLOAD PUSH1 0x7 SLOAD PUSH2 0x38F0 SWAP2 SWAP1 PUSH2 0x5E9C JUMP JUMPDEST SWAP1 POP SWAP1 JUMP JUMPDEST PUSH0 PUSH1 0x1 PUSH0 DUP5 PUSH20 0xFFFFFFFFFFFFFFFFFFFFFFFFFFFFFFFFFFFFFFFF AND PUSH20 0xFFFFFFFFFFFFFFFFFFFFFFFFFFFFFFFFFFFFFFFF AND DUP2 MSTORE PUSH1 0x20 ADD SWAP1 DUP2 MSTORE PUSH1 0x20 ADD PUSH0 KECCAK256 PUSH0 DUP4 PUSH20 0xFFFFFFFFFFFFFFFFFFFFFFFFFFFFFFFFFFFFFFFF AND PUSH20 0xFFFFFFFFFFFFFFFFFFFFFFFFFFFFFFFFFFFFFFFF AND DUP2 MSTORE PUSH1 0x20 ADD SWAP1 DUP2 MSTORE PUSH1 0x20 ADD PUSH0 KECCAK256 SLOAD SWAP1 POP SWAP3 SWAP2 POP POP JUMP JUMPDEST PUSH1 0x11 PUSH1 0x1 SWAP1 SLOAD SWAP1 PUSH2 0x100 EXP SWAP1 DIV PUSH1 0xFF AND ISZERO PUSH2 0x39C7 JUMPI PUSH1 0x40 MLOAD PUSH32 0x8C379A000000000000000000000000000000000000000000000000000000000 DUP2 MSTORE PUSH1 0x4 ADD PUSH2 0x39BE SWAP1 PUSH2 0x54C7 JUMP JUMPDEST PUSH1 0x40 MLOAD DUP1 SWAP2 SUB SWAP1 REVERT JUMPDEST PUSH0 PUSH1 0xF PUSH0 DUP4 DUP2 MSTORE PUSH1 0x20 ADD SWAP1 DUP2 MSTORE PUSH1 0x20 ADD PUSH0 KECCAK256 SWAP1 POP DUP1 PUSH1 0x8 ADD PUSH0 SWAP1 SLOAD SWAP1 PUSH2 0x100 EXP SWAP1 DIV PUSH1 0xFF AND PUSH2 0x3A2B JUMPI PUSH1 0x40 MLOAD PUSH32 0x8C379A000000000000000000000000000000000000000000000000000000000 DUP2 MSTORE PUSH1 0x4 ADD PUSH2 0x3A22 SWAP1 PUSH2 0x54C7 JUMP JUMPDEST PUSH1 0x40 MLOAD DUP1 SWAP2 SUB SWAP1 REVERT JUMPDEST DUP1 PUSH0 ADD PUSH1 0x1 SWAP1 SLOAD SWAP1 PUSH2 0x100 EXP SWAP1 DIV PUSH20 0xFFFFFFFFFFFFFFFFFFFFFFFFFFFFFFFFFFFFFFFF AND PUSH20 0xFFFFFFFFFFFFFFFFFFFFFFFFFFFFFFFFFFFFFFFF AND CALLER PUSH20 0xFFFFFFFFFFFFFFFFFFFFFFFFFFFFFFFFFFFFFFFF AND EQ PUSH2 0x3ABC JUMPI PUSH1 0x40 MLOAD PUSH32 0x8C379A000000000000000000000000000000000000000000000000000000000 DUP2 MSTORE PUSH1 0x4 ADD PUSH2 0x3AB3 SWAP1 PUSH2 0x54C7 JUMP JUMPDEST PUSH1 0x40 MLOAD DUP1 SWAP2 SUB SWAP1 REVERT JUMPDEST PUSH1 0x2 PUSH1 0x7 DUP2 GT ISZERO PUSH2 0x3AD0 JUMPI PUSH2 0x3ACF PUSH2 0x4CCA JUMP JUMPDEST JUMPDEST DUP2 PUSH0 ADD PUSH0 SWAP1 SLOAD SWAP1 PUSH2 0x100 EXP SWAP1 DIV PUSH1 0xFF AND PUSH1 0x7 DUP2 GT ISZERO PUSH2 0x3AF2 JUMPI PUSH2 0x3AF1 PUSH2 0x4CCA JUMP JUMPDEST JUMPDEST GT ISZERO PUSH2 0x3B33 JUMPI PUSH1 0x40 MLOAD PUSH32 0x8C379A000000000000000000000000000000000000000000000000000000000 DUP2 MSTORE PUSH1 0x4 ADD PUSH2 0x3B2A SWAP1 PUSH2 0x54C7 JUMP JUMPDEST PUSH1 0x40 MLOAD DUP1 SWAP2 SUB SWAP1 REVERT JUMPDEST DUP1 PUSH1 0x2 ADD SLOAD TIMESTAMP LT PUSH2 0x3B79 JUMPI PUSH1 0x40 MLOAD PUSH32 0x8C379A000000000000000000000000000000000000000000000000000000000 DUP2 MSTORE PUSH1 0x4 ADD PUSH2 0x3B70 SWAP1 PUSH2 0x54C7 JUMP JUMPDEST PUSH1 0x40 MLOAD DUP1 SWAP2 SUB SWAP1 REVERT JUMPDEST PUSH2 0x3B82 DUP3 PUSH2 0x42FE JUMP JUMPDEST PUSH0 DUP2 PUSH0 ADD PUSH0 SWAP1 SLOAD SWAP1 PUSH2 0x100 EXP SWAP1 DIV PUSH1 0xFF AND SWAP1 POP PUSH1 0xF PUSH0 DUP5 DUP2 MSTORE PUSH1 0x20 ADD SWAP1 DUP2 MSTORE PUSH1 0x20 ADD PUSH0 KECCAK256 PUSH0 PUSH0 DUP3 ADD PUSH0 PUSH2 0x100 EXP DUP2 SLOAD SWAP1 PUSH1 0xFF MUL NOT AND SWAP1 SSTORE PUSH0 DUP3 ADD PUSH1 0x1 PUSH2 0x100 EXP DUP2 SLOAD SWAP1 PUSH20 0xFFFFFFFFFFFFFFFFFFFFFFFFFFFFFFFFFFFFFFFF MUL NOT AND SWAP1 SSTORE PUSH1 0x1 DUP3 ADD PUSH0 SWAP1 SSTORE PUSH1 0x2 DUP3 ADD PUSH0 SWAP1 SSTORE PUSH1 0x3 DUP3 ADD PUSH0 PUSH2 0x100 EXP DUP2 SLOAD SWAP1 PUSH20 0xFFFFFFFFFFFFFFFFFFFFFFFFFFFFFFFFFFFFFFFF MUL NOT AND SWAP1 SSTORE PUSH1 0x4 DUP3 ADD PUSH0 SWAP1 SSTORE PUSH1 0x5 DUP3 ADD PUSH0 PUSH2 0x3C29 SWAP2 SWAP1 PUSH2 0x4BE5 JUMP JUMPDEST PUSH1 0x6 DUP3 ADD PUSH0 PUSH2 0x3C38 SWAP2 SWAP1 PUSH2 0x4C22 JUMP JUMPDEST PUSH1 0x7 DUP3 ADD PUSH0 PUSH2 0x3C47 SWAP2 SWAP1 PUSH2 0x4C22 JUMP JUMPDEST PUSH1 0x8 DUP3 ADD PUSH0 PUSH2 0x100 EXP DUP2 SLOAD SWAP1 PUSH1 0xFF MUL NOT AND SWAP1 SSTORE POP POP DUP3 PUSH32 0x89616A339342F36E4DCECC713F695BCBFE35FEA112C4C652DA7E1656BD486CE8 DUP3 PUSH1 0x40 MLOAD PUSH2 0x3C8C SWAP2 SWAP1 PUSH2 0x5E1B JUMP JUMPDEST PUSH1 0x40 MLOAD DUP1 SWAP2 SUB SWAP1 LOG2 POP POP POP JUMP JUMPDEST PUSH0 PUSH1 0x9 PUSH0 DUP4 PUSH20 0xFFFFFFFFFFFFFFFFFFFFFFFFFFFFFFFFFFFFFFFF AND PUSH20 0xFFFFFFFFFFFFFFFFFFFFFFFFFFFFFFFFFFFFFFFF AND DUP2 MSTORE PUSH1 0x20 ADD SWAP1 DUP2 MSTORE PUSH1 0x20 ADD PUSH0 KECCAK256 PUSH0 SWAP1 SLOAD SWAP1 PUSH2 0x100 EXP SWAP1 DIV PUSH1 0xFF AND SWAP1 POP SWAP2 SWAP1 POP JUMP JUMPDEST PUSH2 0x3CF3 PUSH2 0x4487 JUMP JUMPDEST PUSH0 PUSH20 0xFFFFFFFFFFFFFFFFFFFFFFFFFFFFFFFFFFFFFFFF AND DUP2 PUSH20 0xFFFFFFFFFFFFFFFFFFFFFFFFFFFFFFFFFFFFFFFF AND SUB PUSH2 0x3D63 JUMPI PUSH0 PUSH1 0x40 MLOAD PUSH32 0x1E4FBDF700000000000000000000000000000000000000000000000000000000 DUP2 MSTORE PUSH1 0x4 ADD PUSH2 0x3D5A SWAP2 SWAP1 PUSH2 0x52F2 JUMP JUMPDEST PUSH1 0x40 MLOAD DUP1 SWAP2 SUB SWAP1 REVERT JUMPDEST PUSH2 0x3D6C DUP2 PUSH2 0x450E JUMP JUMPDEST POP JUMP JUMPDEST PUSH1 0x2 DUP2 JUMP JUMPDEST PUSH2 0x3D7C PUSH2 0x4487 JUMP JUMPDEST PUSH1 0x1 PUSH1 0x11 PUSH0 PUSH2 0x100 EXP DUP2 SLOAD DUP2 PUSH1 0xFF MUL NOT AND SWAP1 DUP4 ISZERO ISZERO MUL OR SWAP1 SSTORE POP PUSH32 0x20C53179FE7C6306D9D1C279D52BAE5E736F5E1178137542D3A7A9D1752691BE PUSH1 0x40 MLOAD PUSH1 0x40 MLOAD DUP1 SWAP2 SUB SWAP1 LOG1 JUMP JUMPDEST PUSH8 0xDE0B6B3A7640000 DUP2 JUMP JUMPDEST PUSH1 0x2 PUSH1 0x6 SLOAD SUB PUSH2 0x3E15 JUMPI PUSH1 0x40 MLOAD PUSH32 0x8C379A000000000000000000000000000000000000000000000000000000000 DUP2 MSTORE PUSH1 0x4 ADD PUSH2 0x3E0C SWAP1 PUSH2 0x5F19 JUMP JUMPDEST PUSH1 0x40 MLOAD DUP1 SWAP2 SUB SWAP1 REVERT JUMPDEST PUSH1 0x2 PUSH1 0x6 DUP2 SWAP1 SSTORE POP JUMP JUMPDEST PUSH0 DUP3 MLOAD GT PUSH2 0x3E62 JUMPI PUSH1 0x40 MLOAD PUSH32 0x8C379A000000000000000000000000000000000000000000000000000000000 DUP2 MSTORE PUSH1 0x4 ADD PUSH2 0x3E59 SWAP1 PUSH2 0x54C7 JUMP JUMPDEST PUSH1 0x40 MLOAD DUP1 SWAP2 SUB SWAP1 REVERT JUMPDEST PUSH0 DUP2 DUP4 MLOAD PUSH2 0x3E70 SWAP2 SWAP1 PUSH2 0x5E34 JUMP JUMPDEST SWAP1 POP PUSH1 0x7 SLOAD DUP2 PUSH1 0xA SLOAD PUSH2 0x3E83 SWAP2 SWAP1 PUSH2 0x571B JUMP JUMPDEST GT ISZERO PUSH2 0x3EC4 JUMPI PUSH1 0x40 MLOAD PUSH32 0x8C379A000000000000000000000000000000000000000000000000000000000 DUP2 MSTORE PUSH1 0x4 ADD PUSH2 0x3EBB SWAP1 PUSH2 0x54C7 JUMP JUMPDEST PUSH1 0x40 MLOAD DUP1 SWAP2 SUB SWAP1 REVERT JUMPDEST PUSH0 PUSH0 SWAP1 POP JUMPDEST DUP4 MLOAD DUP2 LT ISZERO PUSH2 0x3FFF JUMPI PUSH0 DUP5 DUP3 DUP2 MLOAD DUP2 LT PUSH2 0x3EE6 JUMPI PUSH2 0x3EE5 PUSH2 0x56EE JUMP JUMPDEST JUMPDEST PUSH1 0x20 MUL PUSH1 0x20 ADD ADD MLOAD SWAP1 POP PUSH0 PUSH20 0xFFFFFFFFFFFFFFFFFFFFFFFFFFFFFFFFFFFFFFFF AND DUP2 PUSH20 0xFFFFFFFFFFFFFFFFFFFFFFFFFFFFFFFFFFFFFFFF AND SUB PUSH2 0x3F5E JUMPI PUSH1 0x40 MLOAD PUSH32 0x8C379A000000000000000000000000000000000000000000000000000000000 DUP2 MSTORE PUSH1 0x4 ADD PUSH2 0x3F55 SWAP1 PUSH2 0x54C7 JUMP JUMPDEST PUSH1 0x40 MLOAD DUP1 SWAP2 SUB SWAP1 REVERT JUMPDEST PUSH1 0x8 PUSH0 DUP3 PUSH20 0xFFFFFFFFFFFFFFFFFFFFFFFFFFFFFFFFFFFFFFFF AND PUSH20 0xFFFFFFFFFFFFFFFFFFFFFFFFFFFFFFFFFFFFFFFF AND DUP2 MSTORE PUSH1 0x20 ADD SWAP1 DUP2 MSTORE PUSH1 0x20 ADD PUSH0 KECCAK256 PUSH0 SWAP1 SLOAD SWAP1 PUSH2 0x100 EXP SWAP1 DIV PUSH1 0xFF AND PUSH2 0x3FE7 JUMPI PUSH1 0x40 MLOAD PUSH32 0x8C379A000000000000000000000000000000000000000000000000000000000 DUP2 MSTORE PUSH1 0x4 ADD PUSH2 0x3FDE SWAP1 PUSH2 0x54C7 JUMP JUMPDEST PUSH1 0x40 MLOAD DUP1 SWAP2 SUB SWAP1 REVERT JUMPDEST PUSH2 0x3FF1 DUP2 DUP6 PUSH2 0x427F JUMP JUMPDEST POP DUP1 DUP1 PUSH1 0x1 ADD SWAP2 POP POP PUSH2 0x3EC9 JUMP JUMPDEST POP DUP1 PUSH1 0xA PUSH0 DUP3 DUP3 SLOAD PUSH2 0x4011 SWAP2 SWAP1 PUSH2 0x571B JUMP JUMPDEST SWAP3 POP POP DUP2 SWAP1 SSTORE POP POP POP POP JUMP JUMPDEST PUSH1 0x1 PUSH1 0x6 DUP2 SWAP1 SSTORE POP JUMP JUMPDEST PUSH0 CALLER SWAP1 POP SWAP1 JUMP JUMPDEST PUSH2 0x403B DUP4 DUP4 DUP4 PUSH1 0x1 PUSH2 0x45F3 JUMP JUMPDEST POP POP POP JUMP JUMPDEST PUSH0 DUP2 PUSH1 0x8 ADD PUSH0 SWAP1 SLOAD SWAP1 PUSH2 0x100 EXP SWAP1 DIV PUSH1 0xFF AND PUSH2 0x4091 JUMPI PUSH1 0x40 MLOAD PUSH32 0x8C379A000000000000000000000000000000000000000000000000000000000 DUP2 MSTORE PUSH1 0x4 ADD PUSH2 0x4088 SWAP1 PUSH2 0x54C7 JUMP JUMPDEST PUSH1 0x40 MLOAD DUP1 SWAP2 SUB SWAP1 REVERT JUMPDEST DUP2 PUSH1 0x2 ADD SLOAD TIMESTAMP LT ISZERO PUSH2 0x40D8 JUMPI PUSH1 0x40 MLOAD PUSH32 0x8C379A000000000000000000000000000000000000000000000000000000000 DUP2 MSTORE PUSH1 0x4 ADD PUSH2 0x40CF SWAP1 PUSH2 0x54C7 JUMP JUMPDEST PUSH1 0x40 MLOAD DUP1 SWAP2 SUB SWAP1 REVERT JUMPDEST PUSH0 PUSH1 0x7 DUP1 DUP2 GT ISZERO PUSH2 0x40EC JUMPI PUSH2 0x40EB PUSH2 0x4CCA JUMP JUMPDEST JUMPDEST DUP4 PUSH0 ADD PUSH0 SWAP1 SLOAD SWAP1 PUSH2 0x100 EXP SWAP1 DIV PUSH1 0xFF AND PUSH1 0x7 DUP2 GT ISZERO PUSH2 0x410E JUMPI PUSH2 0x410D PUSH2 0x4CCA JUMP JUMPDEST JUMPDEST EQ PUSH2 0x4217 JUMPI PUSH1 0x3 PUSH1 0x7 DUP2 GT ISZERO PUSH2 0x4127 JUMPI PUSH2 0x4126 PUSH2 0x4CCA JUMP JUMPDEST JUMPDEST DUP4 PUSH0 ADD PUSH0 SWAP1 SLOAD SWAP1 PUSH2 0x100 EXP SWAP1 DIV PUSH1 0xFF AND PUSH1 0x7 DUP2 GT ISZERO PUSH2 0x4149 JUMPI PUSH2 0x4148 PUSH2 0x4CCA JUMP JUMPDEST JUMPDEST EQ DUP1 PUSH2 0x4188 JUMPI POP PUSH1 0x4 PUSH1 0x7 DUP2 GT ISZERO PUSH2 0x4164 JUMPI PUSH2 0x4163 PUSH2 0x4CCA JUMP JUMPDEST JUMPDEST DUP4 PUSH0 ADD PUSH0 SWAP1 SLOAD SWAP1 PUSH2 0x100 EXP SWAP1 DIV PUSH1 0xFF AND PUSH1 0x7 DUP2 GT ISZERO PUSH2 0x4186 JUMPI PUSH2 0x4185 PUSH2 0x4CCA JUMP JUMPDEST JUMPDEST EQ JUMPDEST DUP1 PUSH2 0x41C6 JUMPI POP PUSH1 0x5 PUSH1 0x7 DUP2 GT ISZERO PUSH2 0x41A2 JUMPI PUSH2 0x41A1 PUSH2 0x4CCA JUMP JUMPDEST JUMPDEST DUP4 PUSH0 ADD PUSH0 SWAP1 SLOAD SWAP1 PUSH2 0x100 EXP SWAP1 DIV PUSH1 0xFF AND PUSH1 0x7 DUP2 GT ISZERO PUSH2 0x41C4 JUMPI PUSH2 0x41C3 PUSH2 0x4CCA JUMP JUMPDEST JUMPDEST EQ JUMPDEST DUP1 PUSH2 0x4204 JUMPI POP PUSH1 0x6 PUSH1 0x7 DUP2 GT ISZERO PUSH2 0x41E0 JUMPI PUSH2 0x41DF PUSH2 0x4CCA JUMP JUMPDEST JUMPDEST DUP4 PUSH0 ADD PUSH0 SWAP1 SLOAD SWAP1 PUSH2 0x100 EXP SWAP1 DIV PUSH1 0xFF AND PUSH1 0x7 DUP2 GT ISZERO PUSH2 0x4202 JUMPI PUSH2 0x4201 PUSH2 0x4CCA JUMP JUMPDEST JUMPDEST EQ JUMPDEST PUSH2 0x420F JUMPI PUSH1 0x5 PUSH2 0x4212 JUMP JUMPDEST PUSH1 0x3 JUMPDEST PUSH2 0x421A JUMP JUMPDEST PUSH1 0x2 JUMPDEST SWAP1 POP DUP1 DUP4 PUSH1 0x1 ADD SLOAD LT ISZERO PUSH2 0x4263 JUMPI PUSH1 0x40 MLOAD PUSH32 0x8C379A000000000000000000000000000000000000000000000000000000000 DUP2 MSTORE PUSH1 0x4 ADD PUSH2 0x425A SWAP1 PUSH2 0x54C7 JUMP JUMPDEST PUSH1 0x40 MLOAD DUP1 SWAP2 SUB SWAP1 REVERT JUMPDEST DUP1 SWAP2 POP POP SWAP2 SWAP1 POP JUMP JUMPDEST DUP1 PUSH1 0xB SWAP1 DUP2 PUSH2 0x427B SWAP2 SWAP1 PUSH2 0x59BE JUMP JUMPDEST POP POP JUMP JUMPDEST PUSH0 PUSH20 0xFFFFFFFFFFFFFFFFFFFFFFFFFFFFFFFFFFFFFFFF AND DUP3 PUSH20 0xFFFFFFFFFFFFFFFFFFFFFFFFFFFFFFFFFFFFFFFF AND SUB PUSH2 0x42EF JUMPI PUSH0 PUSH1 0x40 MLOAD PUSH32 0xEC442F0500000000000000000000000000000000000000000000000000000000 DUP2 MSTORE PUSH1 0x4 ADD PUSH2 0x42E6 SWAP2 SWAP1 PUSH2 0x52F2 JUMP JUMPDEST PUSH1 0x40 MLOAD DUP1 SWAP2 SUB SWAP1 REVERT JUMPDEST PUSH2 0x42FA PUSH0 DUP4 DUP4 PUSH2 0x47C2 JUMP JUMPDEST POP POP JUMP JUMPDEST PUSH0 PUSH0 SWAP1 POP JUMPDEST PUSH1 0xE DUP1 SLOAD SWAP1 POP DUP2 LT ISZERO PUSH2 0x4455 JUMPI PUSH1 0xD PUSH0 DUP4 DUP2 MSTORE PUSH1 0x20 ADD SWAP1 DUP2 MSTORE PUSH1 0x20 ADD PUSH0 KECCAK256 PUSH0 PUSH1 0xE DUP4 DUP2 SLOAD DUP2 LT PUSH2 0x4336 JUMPI PUSH2 0x4335 PUSH2 0x56EE JUMP JUMPDEST JUMPDEST SWAP1 PUSH0 MSTORE PUSH1 0x20 PUSH0 KECCAK256 ADD PUSH0 SWAP1 SLOAD SWAP1 PUSH2 0x100 EXP SWAP1 DIV PUSH20 0xFFFFFFFFFFFFFFFFFFFFFFFFFFFFFFFFFFFFFFFF AND PUSH20 0xFFFFFFFFFFFFFFFFFFFFFFFFFFFFFFFFFFFFFFFF AND PUSH20 0xFFFFFFFFFFFFFFFFFFFFFFFFFFFFFFFFFFFFFFFF AND DUP2 MSTORE PUSH1 0x20 ADD SWAP1 DUP2 MSTORE PUSH1 0x20 ADD PUSH0 KECCAK256 PUSH0 SWAP1 SLOAD SWAP1 PUSH2 0x100 EXP SWAP1 DIV PUSH1 0xFF AND ISZERO PUSH2 0x4448 JUMPI PUSH0 PUSH1 0xD PUSH0 DUP5 DUP2 MSTORE PUSH1 0x20 ADD SWAP1 DUP2 MSTORE PUSH1 0x20 ADD PUSH0 KECCAK256 PUSH0 PUSH1 0xE DUP5 DUP2 SLOAD DUP2 LT PUSH2 0x43D0 JUMPI PUSH2 0x43CF PUSH2 0x56EE JUMP JUMPDEST JUMPDEST SWAP1 PUSH0 MSTORE PUSH1 0x20 PUSH0 KECCAK256 ADD PUSH0 SWAP1 SLOAD SWAP1 PUSH2 0x100 EXP SWAP1 DIV PUSH20 0xFFFFFFFFFFFFFFFFFFFFFFFFFFFFFFFFFFFFFFFF AND PUSH20 0xFFFFFFFFFFFFFFFFFFFFFFFFFFFFFFFFFFFFFFFF AND PUSH20 0xFFFFFFFFFFFFFFFFFFFFFFFFFFFFFFFFFFFFFFFF AND DUP2 MSTORE PUSH1 0x20 ADD SWAP1 DUP2 MSTORE PUSH1 0x20 ADD PUSH0 KECCAK256 PUSH0 PUSH2 0x100 EXP DUP2 SLOAD DUP2 PUSH1 0xFF MUL NOT AND SWAP1 DUP4 ISZERO ISZERO MUL OR SWAP1 SSTORE POP JUMPDEST DUP1 DUP1 PUSH1 0x1 ADD SWAP2 POP POP PUSH2 0x4303 JUMP JUMPDEST POP POP JUMP JUMPDEST PUSH0 PUSH0 PUSH2 0x4463 PUSH2 0x4027 JUMP JUMPDEST SWAP1 POP PUSH2 0x4470 DUP6 DUP3 DUP6 PUSH2 0x49DB JUMP JUMPDEST PUSH2 0x447B DUP6 DUP6 DUP6 PUSH2 0x4A6E JUMP JUMPDEST PUSH1 0x1 SWAP2 POP POP SWAP4 SWAP3 POP POP POP JUMP JUMPDEST PUSH2 0x448F PUSH2 0x4027 JUMP JUMPDEST PUSH20 0xFFFFFFFFFFFFFFFFFFFFFFFFFFFFFFFFFFFFFFFF AND PUSH2 0x44AD PUSH2 0x343F JUMP JUMPDEST PUSH20 0xFFFFFFFFFFFFFFFFFFFFFFFFFFFFFFFFFFFFFFFF AND EQ PUSH2 0x450C JUMPI PUSH2 0x44D0 PUSH2 0x4027 JUMP JUMPDEST PUSH1 0x40 MLOAD PUSH32 0x118CDAA700000000000000000000000000000000000000000000000000000000 DUP2 MSTORE PUSH1 0x4 ADD PUSH2 0x4503 SWAP2 SWAP1 PUSH2 0x52F2 JUMP JUMPDEST PUSH1 0x40 MLOAD DUP1 SWAP2 SUB SWAP1 REVERT JUMPDEST JUMP JUMPDEST PUSH0 PUSH1 0x5 PUSH0 SWAP1 SLOAD SWAP1 PUSH2 0x100 EXP SWAP1 DIV PUSH20 0xFFFFFFFFFFFFFFFFFFFFFFFFFFFFFFFFFFFFFFFF AND SWAP1 POP DUP2 PUSH1 0x5 PUSH0 PUSH2 0x100 EXP DUP2 SLOAD DUP2 PUSH20 0xFFFFFFFFFFFFFFFFFFFFFFFFFFFFFFFFFFFFFFFF MUL NOT AND SWAP1 DUP4 PUSH20 0xFFFFFFFFFFFFFFFFFFFFFFFFFFFFFFFFFFFFFFFF AND MUL OR SWAP1 SSTORE POP DUP2 PUSH20 0xFFFFFFFFFFFFFFFFFFFFFFFFFFFFFFFFFFFFFFFF AND DUP2 PUSH20 0xFFFFFFFFFFFFFFFFFFFFFFFFFFFFFFFFFFFFFFFF AND PUSH32 0x8BE0079C531659141344CD1FD0A4F28419497F9722A3DAAFE3B4186F6B6457E0 PUSH1 0x40 MLOAD PUSH1 0x40 MLOAD DUP1 SWAP2 SUB SWAP1 LOG3 POP POP JUMP JUMPDEST PUSH0 PUSH0 PUSH2 0x45DB PUSH2 0x4027 JUMP JUMPDEST SWAP1 POP PUSH2 0x45E8 DUP2 DUP6 DUP6 PUSH2 0x4A6E JUMP JUMPDEST PUSH1 0x1 SWAP2 POP POP SWAP3 SWAP2 POP POP JUMP JUMPDEST PUSH0 PUSH20 0xFFFFFFFFFFFFFFFFFFFFFFFFFFFFFFFFFFFFFFFF AND DUP5 PUSH20 0xFFFFFFFFFFFFFFFFFFFFFFFFFFFFFFFFFFFFFFFF AND SUB PUSH2 0x4663 JUMPI PUSH0 PUSH1 0x40 MLOAD PUSH32 0xE602DF0500000000000000000000000000000000000000000000000000000000 DUP2 MSTORE PUSH1 0x4 ADD PUSH2 0x465A SWAP2 SWAP1 PUSH2 0x52F2 JUMP JUMPDEST PUSH1 0x40 MLOAD DUP1 SWAP2 SUB SWAP1 REVERT JUMPDEST PUSH0 PUSH20 0xFFFFFFFFFFFFFFFFFFFFFFFFFFFFFFFFFFFFFFFF AND DUP4 PUSH20 0xFFFFFFFFFFFFFFFFFFFFFFFFFFFFFFFFFFFFFFFF AND SUB PUSH2 0x46D3 JUMPI PUSH0 PUSH1 0x40 MLOAD PUSH32 0x94280D6200000000000000000000000000000000000000000000000000000000 DUP2 MSTORE PUSH1 0x4 ADD PUSH2 0x46CA SWAP2 SWAP1 PUSH2 0x52F2 JUMP JUMPDEST PUSH1 0x40 MLOAD DUP1 SWAP2 SUB SWAP1 REVERT JUMPDEST DUP2 PUSH1 0x1 PUSH0 DUP7 PUSH20 0xFFFFFFFFFFFFFFFFFFFFFFFFFFFFFFFFFFFFFFFF AND PUSH20 0xFFFFFFFFFFFFFFFFFFFFFFFFFFFFFFFFFFFFFFFF AND DUP2 MSTORE PUSH1 0x20 ADD SWAP1 DUP2 MSTORE PUSH1 0x20 ADD PUSH0 KECCAK256 PUSH0 DUP6 PUSH20 0xFFFFFFFFFFFFFFFFFFFFFFFFFFFFFFFFFFFFFFFF AND PUSH20 0xFFFFFFFFFFFFFFFFFFFFFFFFFFFFFFFFFFFFFFFF AND DUP2 MSTORE PUSH1 0x20 ADD SWAP1 DUP2 MSTORE PUSH1 0x20 ADD PUSH0 KECCAK256 DUP2 SWAP1 SSTORE POP DUP1 ISZERO PUSH2 0x47BC JUMPI DUP3 PUSH20 0xFFFFFFFFFFFFFFFFFFFFFFFFFFFFFFFFFFFFFFFF AND DUP5 PUSH20 0xFFFFFFFFFFFFFFFFFFFFFFFFFFFFFFFFFFFFFFFF AND PUSH32 0x8C5BE1E5EBEC7D5BD14F71427D1E84F3DD0314C0F7B2291E5B200AC8C7C3B925 DUP5 PUSH1 0x40 MLOAD PUSH2 0x47B3 SWAP2 SWAP1 PUSH2 0x5069 JUMP JUMPDEST PUSH1 0x40 MLOAD DUP1 SWAP2 SUB SWAP1 LOG3 JUMPDEST POP POP POP POP JUMP JUMPDEST PUSH0 PUSH20 0xFFFFFFFFFFFFFFFFFFFFFFFFFFFFFFFFFFFFFFFF AND DUP4 PUSH20 0xFFFFFFFFFFFFFFFFFFFFFFFFFFFFFFFFFFFFFFFF AND SUB PUSH2 0x4812 JUMPI DUP1 PUSH1 0x2 PUSH0 DUP3 DUP3 SLOAD PUSH2 0x4806 SWAP2 SWAP1 PUSH2 0x571B JUMP JUMPDEST SWAP3 POP POP DUP2 SWAP1 SSTORE POP PUSH2 0x48E0 JUMP JUMPDEST PUSH0 PUSH0 PUSH0 DUP6 PUSH20 0xFFFFFFFFFFFFFFFFFFFFFFFFFFFFFFFFFFFFFFFF AND PUSH20 0xFFFFFFFFFFFFFFFFFFFFFFFFFFFFFFFFFFFFFFFF AND DUP2 MSTORE PUSH1 0x20 ADD SWAP1 DUP2 MSTORE PUSH1 0x20 ADD PUSH0 KECCAK256 SLOAD SWAP1 POP DUP2 DUP2 LT ISZERO PUSH2 0x489B JUMPI DUP4 DUP2 DUP4 PUSH1 0x40 MLOAD PUSH32 0xE450D38C00000000000000000000000000000000000000000000000000000000 DUP2 MSTORE PUSH1 0x4 ADD PUSH2 0x4892 SWAP4 SWAP3 SWAP2 SWAP1 PUSH2 0x5F37 JUMP JUMPDEST PUSH1 0x40 MLOAD DUP1 SWAP2 SUB SWAP1 REVERT JUMPDEST DUP2 DUP2 SUB PUSH0 PUSH0 DUP7 PUSH20 0xFFFFFFFFFFFFFFFFFFFFFFFFFFFFFFFFFFFFFFFF AND PUSH20 0xFFFFFFFFFFFFFFFFFFFFFFFFFFFFFFFFFFFFFFFF AND DUP2 MSTORE PUSH1 0x20 ADD SWAP1 DUP2 MSTORE PUSH1 0x20 ADD PUSH0 KECCAK256 DUP2 SWAP1 SSTORE POP POP JUMPDEST PUSH0 PUSH20 0xFFFFFFFFFFFFFFFFFFFFFFFFFFFFFFFFFFFFFFFF AND DUP3 PUSH20 0xFFFFFFFFFFFFFFFFFFFFFFFFFFFFFFFFFFFFFFFF AND SUB PUSH2 0x4927 JUMPI DUP1 PUSH1 0x2 PUSH0 DUP3 DUP3 SLOAD SUB SWAP3 POP POP DUP2 SWAP1 SSTORE POP PUSH2 0x4971 JUMP JUMPDEST DUP1 PUSH0 PUSH0 DUP5 PUSH20 0xFFFFFFFFFFFFFFFFFFFFFFFFFFFFFFFFFFFFFFFF AND PUSH20 0xFFFFFFFFFFFFFFFFFFFFFFFFFFFFFFFFFFFFFFFF AND DUP2 MSTORE PUSH1 0x20 ADD SWAP1 DUP2 MSTORE PUSH1 0x20 ADD PUSH0 KECCAK256 PUSH0 DUP3 DUP3 SLOAD ADD SWAP3 POP POP DUP2 SWAP1 SSTORE POP JUMPDEST DUP2 PUSH20 0xFFFFFFFFFFFFFFFFFFFFFFFFFFFFFFFFFFFFFFFF AND DUP4 PUSH20 0xFFFFFFFFFFFFFFFFFFFFFFFFFFFFFFFFFFFFFFFF AND PUSH32 0xDDF252AD1BE2C89B69C2B068FC378DAA952BA7F163C4A11628F55A4DF523B3EF DUP4 PUSH1 0x40 MLOAD PUSH2 0x49CE SWAP2 SWAP1 PUSH2 0x5069 JUMP JUMPDEST PUSH1 0x40 MLOAD DUP1 SWAP2 SUB SWAP1 LOG3 POP POP POP JUMP JUMPDEST PUSH0 PUSH2 0x49E6 DUP5 DUP5 PUSH2 0x38F5 JUMP JUMPDEST SWAP1 POP PUSH32 0xFFFFFFFFFFFFFFFFFFFFFFFFFFFFFFFFFFFFFFFFFFFFFFFFFFFFFFFFFFFFFFFF DUP2 LT ISZERO PUSH2 0x4A68 JUMPI DUP2 DUP2 LT ISZERO PUSH2 0x4A59 JUMPI DUP3 DUP2 DUP4 PUSH1 0x40 MLOAD PUSH32 0xFB8F41B200000000000000000000000000000000000000000000000000000000 DUP2 MSTORE PUSH1 0x4 ADD PUSH2 0x4A50 SWAP4 SWAP3 SWAP2 SWAP1 PUSH2 0x5F37 JUMP JUMPDEST PUSH1 0x40 MLOAD DUP1 SWAP2 SUB SWAP1 REVERT JUMPDEST PUSH2 0x4A67 DUP5 DUP5 DUP5 DUP5 SUB PUSH0 PUSH2 0x45F3 JUMP JUMPDEST JUMPDEST POP POP POP POP JUMP JUMPDEST PUSH0 PUSH20 0xFFFFFFFFFFFFFFFFFFFFFFFFFFFFFFFFFFFFFFFF AND DUP4 PUSH20 0xFFFFFFFFFFFFFFFFFFFFFFFFFFFFFFFFFFFFFFFF AND SUB PUSH2 0x4ADE JUMPI PUSH0 PUSH1 0x40 MLOAD PUSH32 0x96C6FD1E00000000000000000000000000000000000000000000000000000000 DUP2 MSTORE PUSH1 0x4 ADD PUSH2 0x4AD5 SWAP2 SWAP1 PUSH2 0x52F2 JUMP JUMPDEST PUSH1 0x40 MLOAD DUP1 SWAP2 SUB SWAP1 REVERT JUMPDEST PUSH0 PUSH20 0xFFFFFFFFFFFFFFFFFFFFFFFFFFFFFFFFFFFFFFFF AND DUP3 PUSH20 0xFFFFFFFFFFFFFFFFFFFFFFFFFFFFFFFFFFFFFFFF AND SUB PUSH2 0x4B4E JUMPI PUSH0 PUSH1 0x40 MLOAD PUSH32 0xEC442F0500000000000000000000000000000000000000000000000000000000 DUP2 MSTORE PUSH1 0x4 ADD PUSH2 0x4B45 SWAP2 SWAP1 PUSH2 0x52F2 JUMP JUMPDEST PUSH1 0x40 MLOAD DUP1 SWAP2 SUB SWAP1 REVERT JUMPDEST PUSH2 0x4B59 DUP4 DUP4 DUP4 PUSH2 0x47C2 JUMP JUMPDEST POP POP POP JUMP JUMPDEST DUP3 DUP1 SLOAD DUP3 DUP3 SSTORE SWAP1 PUSH0 MSTORE PUSH1 0x20 PUSH0 KECCAK256 SWAP1 DUP2 ADD SWAP3 DUP3 ISZERO PUSH2 0x4BD4 JUMPI SWAP2 PUSH1 0x20 MUL DUP3 ADD JUMPDEST DUP3 DUP2 GT ISZERO PUSH2 0x4BD3 JUMPI DUP3 MLOAD DUP3 PUSH0 PUSH2 0x100 EXP DUP2 SLOAD DUP2 PUSH20 0xFFFFFFFFFFFFFFFFFFFFFFFFFFFFFFFFFFFFFFFF MUL NOT AND SWAP1 DUP4 PUSH20 0xFFFFFFFFFFFFFFFFFFFFFFFFFFFFFFFFFFFFFFFF AND MUL OR SWAP1 SSTORE POP SWAP2 PUSH1 0x20 ADD SWAP2 SWAP1 PUSH1 0x1 ADD SWAP1 PUSH2 0x4B7C JUMP JUMPDEST JUMPDEST POP SWAP1 POP PUSH2 0x4BE1 SWAP2 SWAP1 PUSH2 0x4C40 JUMP JUMPDEST POP SWAP1 JUMP JUMPDEST POP DUP1 SLOAD PUSH2 0x4BF1 SWAP1 PUSH2 0x5586 JUMP JUMPDEST PUSH0 DUP3 SSTORE DUP1 PUSH1 0x1F LT PUSH2 0x4C02 JUMPI POP PUSH2 0x4C1F JUMP JUMPDEST PUSH1 0x1F ADD PUSH1 0x20 SWAP1 DIV SWAP1 PUSH0 MSTORE PUSH1 0x20 PUSH0 KECCAK256 SWAP1 DUP2 ADD SWAP1 PUSH2 0x4C1E SWAP2 SWAP1 PUSH2 0x4C40 JUMP JUMPDEST JUMPDEST POP JUMP JUMPDEST POP DUP1 SLOAD PUSH0 DUP3 SSTORE SWAP1 PUSH0 MSTORE PUSH1 0x20 PUSH0 KECCAK256 SWAP1 DUP2 ADD SWAP1 PUSH2 0x4C3D SWAP2 SWAP1 PUSH2 0x4C40 JUMP JUMPDEST POP JUMP JUMPDEST JUMPDEST DUP1 DUP3 GT ISZERO PUSH2 0x4C57 JUMPI PUSH0 DUP2 PUSH0 SWAP1 SSTORE POP PUSH1 0x1 ADD PUSH2 0x4C41 JUMP JUMPDEST POP SWAP1 JUMP JUMPDEST PUSH0 PUSH1 0x40 MLOAD SWAP1 POP SWAP1 JUMP JUMPDEST PUSH0 PUSH0 REVERT JUMPDEST PUSH0 PUSH0 REVERT JUMPDEST PUSH0 DUP2 SWAP1 POP SWAP2 SWAP1 POP JUMP JUMPDEST PUSH2 0x4C7E DUP2 PUSH2 0x4C6C JUMP JUMPDEST DUP2 EQ PUSH2 0x4C88 JUMPI PUSH0 PUSH0 REVERT JUMPDEST POP JUMP JUMPDEST PUSH0 DUP2 CALLDATALOAD SWAP1 POP PUSH2 0x4C99 DUP2 PUSH2 0x4C75 JUMP JUMPDEST SWAP3 SWAP2 POP POP JUMP JUMPDEST PUSH0 PUSH1 0x20 DUP3 DUP5 SUB SLT ISZERO PUSH2 0x4CB4 JUMPI PUSH2 0x4CB3 PUSH2 0x4C64 JUMP JUMPDEST JUMPDEST PUSH0 PUSH2 0x4CC1 DUP5 DUP3 DUP6 ADD PUSH2 0x4C8B JUMP JUMPDEST SWAP2 POP POP SWAP3 SWAP2 POP POP JUMP JUMPDEST PUSH32 0x4E487B7100000000000000000000000000000000000000000000000000000000 PUSH0 MSTORE PUSH1 0x21 PUSH1 0x4 MSTORE PUSH1 0x24 PUSH0 REVERT JUMPDEST PUSH1 0x8 DUP2 LT PUSH2 0x4D08 JUMPI PUSH2 0x4D07 PUSH2 0x4CCA JUMP JUMPDEST JUMPDEST POP JUMP JUMPDEST PUSH0 DUP2 SWAP1 POP PUSH2 0x4D18 DUP3 PUSH2 0x4CF7 JUMP JUMPDEST SWAP2 SWAP1 POP JUMP JUMPDEST PUSH0 PUSH2 0x4D27 DUP3 PUSH2 0x4D0B JUMP JUMPDEST SWAP1 POP SWAP2 SWAP1 POP JUMP JUMPDEST PUSH2 0x4D37 DUP2 PUSH2 0x4D1D JUMP JUMPDEST DUP3 MSTORE POP POP JUMP JUMPDEST PUSH0 PUSH20 0xFFFFFFFFFFFFFFFFFFFFFFFFFFFFFFFFFFFFFFFF DUP3 AND SWAP1 POP SWAP2 SWAP1 POP JUMP JUMPDEST PUSH0 PUSH2 0x4D66 DUP3 PUSH2 0x4D3D JUMP JUMPDEST SWAP1 POP SWAP2 SWAP1 POP JUMP JUMPDEST PUSH2 0x4D76 DUP2 PUSH2 0x4D5C JUMP JUMPDEST DUP3 MSTORE POP POP JUMP JUMPDEST PUSH2 0x4D85 DUP2 PUSH2 0x4C6C JUMP JUMPDEST DUP3 MSTORE POP POP JUMP JUMPDEST PUSH0 DUP2 MLOAD SWAP1 POP SWAP2 SWAP1 POP JUMP JUMPDEST PUSH0 DUP3 DUP3 MSTORE PUSH1 0x20 DUP3 ADD SWAP1 POP SWAP3 SWAP2 POP POP JUMP JUMPDEST DUP3 DUP2 DUP4 MCOPY PUSH0 DUP4 DUP4 ADD MSTORE POP POP POP JUMP JUMPDEST PUSH0 PUSH1 0x1F NOT PUSH1 0x1F DUP4 ADD AND SWAP1 POP SWAP2 SWAP1 POP JUMP JUMPDEST PUSH0 PUSH2 0x4DCD DUP3 PUSH2 0x4D8B JUMP JUMPDEST PUSH2 0x4DD7 DUP2 DUP6 PUSH2 0x4D95 JUMP JUMPDEST SWAP4 POP PUSH2 0x4DE7 DUP2 DUP6 PUSH1 0x20 DUP7 ADD PUSH2 0x4DA5 JUMP JUMPDEST PUSH2 0x4DF0 DUP2 PUSH2 0x4DB3 JUMP JUMPDEST DUP5 ADD SWAP2 POP POP SWAP3 SWAP2 POP POP JUMP JUMPDEST PUSH0 DUP2 ISZERO ISZERO SWAP1 POP SWAP2 SWAP1 POP JUMP JUMPDEST PUSH2 0x4E0F DUP2 PUSH2 0x4DFB JUMP JUMPDEST DUP3 MSTORE POP POP JUMP JUMPDEST PUSH0 PUSH2 0x100 DUP3 ADD SWAP1 POP PUSH2 0x4E29 PUSH0 DUP4 ADD DUP12 PUSH2 0x4D2E JUMP JUMPDEST PUSH2 0x4E36 PUSH1 0x20 DUP4 ADD DUP11 PUSH2 0x4D6D JUMP JUMPDEST PUSH2 0x4E43 PUSH1 0x40 DUP4 ADD DUP10 PUSH2 0x4D7C JUMP JUMPDEST PUSH2 0x4E50 PUSH1 0x60 DUP4 ADD DUP9 PUSH2 0x4D7C JUMP JUMPDEST PUSH2 0x4E5D PUSH1 0x80 DUP4 ADD DUP8 PUSH2 0x4D6D JUMP JUMPDEST PUSH2 0x4E6A PUSH1 0xA0 DUP4 ADD DUP7 PUSH2 0x4D7C JUMP JUMPDEST DUP2 DUP2 SUB PUSH1 0xC0 DUP4 ADD MSTORE PUSH2 0x4E7C DUP2 DUP6 PUSH2 0x4DC3 JUMP JUMPDEST SWAP1 POP PUSH2 0x4E8B PUSH1 0xE0 DUP4 ADD DUP5 PUSH2 0x4E06 JUMP JUMPDEST SWAP10 SWAP9 POP POP POP POP POP POP POP POP POP JUMP JUMPDEST PUSH0 PUSH0 REVERT JUMPDEST PUSH32 0x4E487B7100000000000000000000000000000000000000000000000000000000 PUSH0 MSTORE PUSH1 0x41 PUSH1 0x4 MSTORE PUSH1 0x24 PUSH0 REVERT JUMPDEST PUSH2 0x4ED2 DUP3 PUSH2 0x4DB3 JUMP JUMPDEST DUP2 ADD DUP2 DUP2 LT PUSH8 0xFFFFFFFFFFFFFFFF DUP3 GT OR ISZERO PUSH2 0x4EF1 JUMPI PUSH2 0x4EF0 PUSH2 0x4E9C JUMP JUMPDEST JUMPDEST DUP1 PUSH1 0x40 MSTORE POP POP POP JUMP JUMPDEST PUSH0 PUSH2 0x4F03 PUSH2 0x4C5B JUMP JUMPDEST SWAP1 POP PUSH2 0x4F0F DUP3 DUP3 PUSH2 0x4EC9 JUMP JUMPDEST SWAP2 SWAP1 POP JUMP JUMPDEST PUSH0 PUSH8 0xFFFFFFFFFFFFFFFF DUP3 GT ISZERO PUSH2 0x4F2E JUMPI PUSH2 0x4F2D PUSH2 0x4E9C JUMP JUMPDEST JUMPDEST PUSH1 0x20 DUP3 MUL SWAP1 POP PUSH1 0x20 DUP2 ADD SWAP1 POP SWAP2 SWAP1 POP JUMP JUMPDEST PUSH0 PUSH0 REVERT JUMPDEST PUSH2 0x4F4C DUP2 PUSH2 0x4D5C JUMP JUMPDEST DUP2 EQ PUSH2 0x4F56 JUMPI PUSH0 PUSH0 REVERT JUMPDEST POP JUMP JUMPDEST PUSH0 DUP2 CALLDATALOAD SWAP1 POP PUSH2 0x4F67 DUP2 PUSH2 0x4F43 JUMP JUMPDEST SWAP3 SWAP2 POP POP JUMP JUMPDEST PUSH0 PUSH2 0x4F7F PUSH2 0x4F7A DUP5 PUSH2 0x4F14 JUMP JUMPDEST PUSH2 0x4EFA JUMP JUMPDEST SWAP1 POP DUP1 DUP4 DUP3 MSTORE PUSH1 0x20 DUP3 ADD SWAP1 POP PUSH1 0x20 DUP5 MUL DUP4 ADD DUP6 DUP2 GT ISZERO PUSH2 0x4FA2 JUMPI PUSH2 0x4FA1 PUSH2 0x4F3F JUMP JUMPDEST JUMPDEST DUP4 JUMPDEST DUP2 DUP2 LT ISZERO PUSH2 0x4FCB JUMPI DUP1 PUSH2 0x4FB7 DUP9 DUP3 PUSH2 0x4F59 JUMP JUMPDEST DUP5 MSTORE PUSH1 0x20 DUP5 ADD SWAP4 POP POP PUSH1 0x20 DUP2 ADD SWAP1 POP PUSH2 0x4FA4 JUMP JUMPDEST POP POP POP SWAP4 SWAP3 POP POP POP JUMP JUMPDEST PUSH0 DUP3 PUSH1 0x1F DUP4 ADD SLT PUSH2 0x4FE9 JUMPI PUSH2 0x4FE8 PUSH2 0x4E98 JUMP JUMPDEST JUMPDEST DUP2 CALLDATALOAD PUSH2 0x4FF9 DUP5 DUP3 PUSH1 0x20 DUP7 ADD PUSH2 0x4F6D JUMP JUMPDEST SWAP2 POP POP SWAP3 SWAP2 POP POP JUMP JUMPDEST PUSH0 PUSH1 0x20 DUP3 DUP5 SUB SLT ISZERO PUSH2 0x5017 JUMPI PUSH2 0x5016 PUSH2 0x4C64 JUMP JUMPDEST JUMPDEST PUSH0 DUP3 ADD CALLDATALOAD PUSH8 0xFFFFFFFFFFFFFFFF DUP2 GT ISZERO PUSH2 0x5034 JUMPI PUSH2 0x5033 PUSH2 0x4C68 JUMP JUMPDEST JUMPDEST PUSH2 0x5040 DUP5 DUP3 DUP6 ADD PUSH2 0x4FD5 JUMP JUMPDEST SWAP2 POP POP SWAP3 SWAP2 POP POP JUMP JUMPDEST PUSH0 PUSH1 0x20 DUP3 ADD SWAP1 POP DUP2 DUP2 SUB PUSH0 DUP4 ADD MSTORE PUSH2 0x5061 DUP2 DUP5 PUSH2 0x4DC3 JUMP JUMPDEST SWAP1 POP SWAP3 SWAP2 POP POP JUMP JUMPDEST PUSH0 PUSH1 0x20 DUP3 ADD SWAP1 POP PUSH2 0x507C PUSH0 DUP4 ADD DUP5 PUSH2 0x4D7C JUMP JUMPDEST SWAP3 SWAP2 POP POP JUMP JUMPDEST PUSH0 PUSH0 PUSH1 0x40 DUP4 DUP6 SUB SLT ISZERO PUSH2 0x5098 JUMPI PUSH2 0x5097 PUSH2 0x4C64 JUMP JUMPDEST JUMPDEST PUSH0 PUSH2 0x50A5 DUP6 DUP3 DUP7 ADD PUSH2 0x4F59 JUMP JUMPDEST SWAP3 POP POP PUSH1 0x20 PUSH2 0x50B6 DUP6 DUP3 DUP7 ADD PUSH2 0x4C8B JUMP JUMPDEST SWAP2 POP POP SWAP3 POP SWAP3 SWAP1 POP JUMP JUMPDEST PUSH0 PUSH1 0x20 DUP3 ADD SWAP1 POP PUSH2 0x50D3 PUSH0 DUP4 ADD DUP5 PUSH2 0x4E06 JUMP JUMPDEST SWAP3 SWAP2 POP POP JUMP JUMPDEST PUSH1 0x8 DUP2 LT PUSH2 0x50E5 JUMPI PUSH0 PUSH0 REVERT JUMPDEST POP JUMP JUMPDEST PUSH0 DUP2 CALLDATALOAD SWAP1 POP PUSH2 0x50F6 DUP2 PUSH2 0x50D9 JUMP JUMPDEST SWAP3 SWAP2 POP POP JUMP JUMPDEST PUSH0 PUSH0 REVERT JUMPDEST PUSH0 PUSH8 0xFFFFFFFFFFFFFFFF DUP3 GT ISZERO PUSH2 0x511A JUMPI PUSH2 0x5119 PUSH2 0x4E9C JUMP JUMPDEST JUMPDEST PUSH2 0x5123 DUP3 PUSH2 0x4DB3 JUMP JUMPDEST SWAP1 POP PUSH1 0x20 DUP2 ADD SWAP1 POP SWAP2 SWAP1 POP JUMP JUMPDEST DUP3 DUP2 DUP4 CALLDATACOPY PUSH0 DUP4 DUP4 ADD MSTORE POP POP POP JUMP JUMPDEST PUSH0 PUSH2 0x5150 PUSH2 0x514B DUP5 PUSH2 0x5100 JUMP JUMPDEST PUSH2 0x4EFA JUMP JUMPDEST SWAP1 POP DUP3 DUP2 MSTORE PUSH1 0x20 DUP2 ADD DUP5 DUP5 DUP5 ADD GT ISZERO PUSH2 0x516C JUMPI PUSH2 0x516B PUSH2 0x50FC JUMP JUMPDEST JUMPDEST PUSH2 0x5177 DUP5 DUP3 DUP6 PUSH2 0x5130 JUMP JUMPDEST POP SWAP4 SWAP3 POP POP POP JUMP JUMPDEST PUSH0 DUP3 PUSH1 0x1F DUP4 ADD SLT PUSH2 0x5193 JUMPI PUSH2 0x5192 PUSH2 0x4E98 JUMP JUMPDEST JUMPDEST DUP2 CALLDATALOAD PUSH2 0x51A3 DUP5 DUP3 PUSH1 0x20 DUP7 ADD PUSH2 0x513E JUMP JUMPDEST SWAP2 POP POP SWAP3 SWAP2 POP POP JUMP JUMPDEST PUSH0 PUSH0 PUSH0 PUSH0 PUSH0 PUSH0 PUSH1 0xC0 DUP8 DUP10 SUB SLT ISZERO PUSH2 0x51C6 JUMPI PUSH2 0x51C5 PUSH2 0x4C64 JUMP JUMPDEST JUMPDEST PUSH0 PUSH2 0x51D3 DUP10 DUP3 DUP11 ADD PUSH2 0x50E8 JUMP JUMPDEST SWAP7 POP POP PUSH1 0x20 PUSH2 0x51E4 DUP10 DUP3 DUP11 ADD PUSH2 0x4F59 JUMP JUMPDEST SWAP6 POP POP PUSH1 0x40 PUSH2 0x51F5 DUP10 DUP3 DUP11 ADD PUSH2 0x4C8B JUMP JUMPDEST SWAP5 POP POP PUSH1 0x60 DUP8 ADD CALLDATALOAD PUSH8 0xFFFFFFFFFFFFFFFF DUP2 GT ISZERO PUSH2 0x5216 JUMPI PUSH2 0x5215 PUSH2 0x4C68 JUMP JUMPDEST JUMPDEST PUSH2 0x5222 DUP10 DUP3 DUP11 ADD PUSH2 0x517F JUMP JUMPDEST SWAP4 POP POP PUSH1 0x80 DUP8 ADD CALLDATALOAD PUSH8 0xFFFFFFFFFFFFFFFF DUP2 GT ISZERO PUSH2 0x5243 JUMPI PUSH2 0x5242 PUSH2 0x4C68 JUMP JUMPDEST JUMPDEST PUSH2 0x524F DUP10 DUP3 DUP11 ADD PUSH2 0x4FD5 JUMP JUMPDEST SWAP3 POP POP PUSH1 0xA0 DUP8 ADD CALLDATALOAD PUSH8 0xFFFFFFFFFFFFFFFF DUP2 GT ISZERO PUSH2 0x5270 JUMPI PUSH2 0x526F PUSH2 0x4C68 JUMP JUMPDEST JUMPDEST PUSH2 0x527C DUP10 DUP3 DUP11 ADD PUSH2 0x4FD5 JUMP JUMPDEST SWAP2 POP POP SWAP3 SWAP6 POP SWAP3 SWAP6 POP SWAP3 SWAP6 JUMP JUMPDEST PUSH0 PUSH0 PUSH1 0x40 DUP4 DUP6 SUB SLT ISZERO PUSH2 0x529F JUMPI PUSH2 0x529E PUSH2 0x4C64 JUMP JUMPDEST JUMPDEST PUSH0 PUSH2 0x52AC DUP6 DUP3 DUP7 ADD PUSH2 0x4C8B JUMP JUMPDEST SWAP3 POP POP PUSH1 0x20 PUSH2 0x52BD DUP6 DUP3 DUP7 ADD PUSH2 0x4F59 JUMP JUMPDEST SWAP2 POP POP SWAP3 POP SWAP3 SWAP1 POP JUMP JUMPDEST PUSH0 PUSH1 0x20 DUP3 DUP5 SUB SLT ISZERO PUSH2 0x52DC JUMPI PUSH2 0x52DB PUSH2 0x4C64 JUMP JUMPDEST JUMPDEST PUSH0 PUSH2 0x52E9 DUP5 DUP3 DUP6 ADD PUSH2 0x4F59 JUMP JUMPDEST SWAP2 POP POP SWAP3 SWAP2 POP POP JUMP JUMPDEST PUSH0 PUSH1 0x20 DUP3 ADD SWAP1 POP PUSH2 0x5305 PUSH0 DUP4 ADD DUP5 PUSH2 0x4D6D JUMP JUMPDEST SWAP3 SWAP2 POP POP JUMP JUMPDEST PUSH0 PUSH0 PUSH0 PUSH1 0x60 DUP5 DUP7 SUB SLT ISZERO PUSH2 0x5322 JUMPI PUSH2 0x5321 PUSH2 0x4C64 JUMP JUMPDEST JUMPDEST PUSH0 PUSH2 0x532F DUP7 DUP3 DUP8 ADD PUSH2 0x4F59 JUMP JUMPDEST SWAP4 POP POP PUSH1 0x20 PUSH2 0x5340 DUP7 DUP3 DUP8 ADD PUSH2 0x4F59 JUMP JUMPDEST SWAP3 POP POP PUSH1 0x40 PUSH2 0x5351 DUP7 DUP3 DUP8 ADD PUSH2 0x4C8B JUMP JUMPDEST SWAP2 POP POP SWAP3 POP SWAP3 POP SWAP3 JUMP JUMPDEST PUSH0 PUSH1 0xFF DUP3 AND SWAP1 POP SWAP2 SWAP1 POP JUMP JUMPDEST PUSH2 0x5370 DUP2 PUSH2 0x535B JUMP JUMPDEST DUP3 MSTORE POP POP JUMP JUMPDEST PUSH0 PUSH1 0x20 DUP3 ADD SWAP1 POP PUSH2 0x5389 PUSH0 DUP4 ADD DUP5 PUSH2 0x5367 JUMP JUMPDEST SWAP3 SWAP2 POP POP JUMP JUMPDEST PUSH0 DUP2 MLOAD SWAP1 POP SWAP2 SWAP1 POP JUMP JUMPDEST PUSH0 DUP3 DUP3 MSTORE PUSH1 0x20 DUP3 ADD SWAP1 POP SWAP3 SWAP2 POP POP JUMP JUMPDEST PUSH0 DUP2 SWAP1 POP PUSH1 0x20 DUP3 ADD SWAP1 POP SWAP2 SWAP1 POP JUMP JUMPDEST PUSH2 0x53C1 DUP2 PUSH2 0x4C6C JUMP JUMPDEST DUP3 MSTORE POP POP JUMP JUMPDEST PUSH0 PUSH2 0x53D2 DUP4 DUP4 PUSH2 0x53B8 JUMP JUMPDEST PUSH1 0x20 DUP4 ADD SWAP1 POP SWAP3 SWAP2 POP POP JUMP JUMPDEST PUSH0 PUSH1 0x20 DUP3 ADD SWAP1 POP SWAP2 SWAP1 POP JUMP JUMPDEST PUSH0 PUSH2 0x53F4 DUP3 PUSH2 0x538F JUMP JUMPDEST PUSH2 0x53FE DUP2 DUP6 PUSH2 0x5399 JUMP JUMPDEST SWAP4 POP PUSH2 0x5409 DUP4 PUSH2 0x53A9 JUMP JUMPDEST DUP1 PUSH0 JUMPDEST DUP4 DUP2 LT ISZERO PUSH2 0x5439 JUMPI DUP2 MLOAD PUSH2 0x5420 DUP9 DUP3 PUSH2 0x53C7 JUMP JUMPDEST SWAP8 POP PUSH2 0x542B DUP4 PUSH2 0x53DE JUMP JUMPDEST SWAP3 POP POP PUSH1 0x1 DUP2 ADD SWAP1 POP PUSH2 0x540C JUMP JUMPDEST POP DUP6 SWAP4 POP POP POP POP SWAP3 SWAP2 POP POP JUMP JUMPDEST PUSH0 PUSH1 0x20 DUP3 ADD SWAP1 POP DUP2 DUP2 SUB PUSH0 DUP4 ADD MSTORE PUSH2 0x545E DUP2 DUP5 PUSH2 0x53EA JUMP JUMPDEST SWAP1 POP SWAP3 SWAP2 POP POP JUMP JUMPDEST PUSH0 PUSH0 PUSH1 0x40 DUP4 DUP6 SUB SLT ISZERO PUSH2 0x547C JUMPI PUSH2 0x547B PUSH2 0x4C64 JUMP JUMPDEST JUMPDEST PUSH0 PUSH2 0x5489 DUP6 DUP3 DUP7 ADD PUSH2 0x4F59 JUMP JUMPDEST SWAP3 POP POP PUSH1 0x20 PUSH2 0x549A DUP6 DUP3 DUP7 ADD PUSH2 0x4F59 JUMP JUMPDEST SWAP2 POP POP SWAP3 POP SWAP3 SWAP1 POP JUMP JUMPDEST POP JUMP JUMPDEST PUSH0 PUSH2 0x54B2 PUSH0 DUP4 PUSH2 0x4D95 JUMP JUMPDEST SWAP2 POP PUSH2 0x54BD DUP3 PUSH2 0x54A4 JUMP JUMPDEST PUSH0 DUP3 ADD SWAP1 POP SWAP2 SWAP1 POP JUMP JUMPDEST PUSH0 PUSH1 0x20 DUP3 ADD SWAP1 POP DUP2 DUP2 SUB PUSH0 DUP4 ADD MSTORE PUSH2 0x54DE DUP2 PUSH2 0x54A7 JUMP JUMPDEST SWAP1 POP SWAP2 SWAP1 POP JUMP JUMPDEST PUSH32 0x4E487B7100000000000000000000000000000000000000000000000000000000 PUSH0 MSTORE PUSH1 0x11 PUSH1 0x4 MSTORE PUSH1 0x24 PUSH0 REVERT JUMPDEST PUSH0 PUSH2 0x551C DUP3 PUSH2 0x4C6C JUMP JUMPDEST SWAP2 POP PUSH32 0xFFFFFFFFFFFFFFFFFFFFFFFFFFFFFFFFFFFFFFFFFFFFFFFFFFFFFFFFFFFFFFFF DUP3 SUB PUSH2 0x554E JUMPI PUSH2 0x554D PUSH2 0x54E5 JUMP JUMPDEST JUMPDEST PUSH1 0x1 DUP3 ADD SWAP1 POP SWAP2 SWAP1 POP JUMP JUMPDEST PUSH32 0x4E487B7100000000000000000000000000000000000000000000000000000000 PUSH0 MSTORE PUSH1 0x22 PUSH1 0x4 MSTORE PUSH1 0x24 PUSH0 REVERT JUMPDEST PUSH0 PUSH1 0x2 DUP3 DIV SWAP1 POP PUSH1 0x1 DUP3 AND DUP1 PUSH2 0x559D JUMPI PUSH1 0x7F DUP3 AND SWAP2 POP JUMPDEST PUSH1 0x20 DUP3 LT DUP2 SUB PUSH2 0x55B0 JUMPI PUSH2 0x55AF PUSH2 0x5559 JUMP JUMPDEST JUMPDEST POP SWAP2 SWAP1 POP JUMP JUMPDEST PUSH0 DUP2 MLOAD SWAP1 POP SWAP2 SWAP1 POP JUMP JUMPDEST PUSH0 DUP2 SWAP1 POP SWAP3 SWAP2 POP POP JUMP JUMPDEST PUSH0 DUP2 SWAP1 POP PUSH1 0x20 DUP3 ADD SWAP1 POP SWAP2 SWAP1 POP JUMP JUMPDEST PUSH2 0x55E2 DUP2 PUSH2 0x4D5C JUMP JUMPDEST DUP3 MSTORE POP POP JUMP JUMPDEST PUSH0 PUSH2 0x55F3 DUP4 DUP4 PUSH2 0x55D9 JUMP JUMPDEST PUSH1 0x20 DUP4 ADD SWAP1 POP SWAP3 SWAP2 POP POP JUMP JUMPDEST PUSH0 PUSH1 0x20 DUP3 ADD SWAP1 POP SWAP2 SWAP1 POP JUMP JUMPDEST PUSH0 PUSH2 0x5615 DUP3 PUSH2 0x55B6 JUMP JUMPDEST PUSH2 0x561F DUP2 DUP6 PUSH2 0x55C0 JUMP JUMPDEST SWAP4 POP PUSH2 0x562A DUP4 PUSH2 0x55CA JUMP JUMPDEST DUP1 PUSH0 JUMPDEST DUP4 DUP2 LT ISZERO PUSH2 0x565A JUMPI DUP2 MLOAD PUSH2 0x5641 DUP9 DUP3 PUSH2 0x55E8 JUMP JUMPDEST SWAP8 POP PUSH2 0x564C DUP4 PUSH2 0x55FF JUMP JUMPDEST SWAP3 POP POP PUSH1 0x1 DUP2 ADD SWAP1 POP PUSH2 0x562D JUMP JUMPDEST POP DUP6 SWAP4 POP POP POP POP SWAP3 SWAP2 POP POP JUMP JUMPDEST PUSH0 PUSH2 0x5672 DUP3 DUP5 PUSH2 0x560B JUMP JUMPDEST SWAP2 POP DUP2 SWAP1 POP SWAP3 SWAP2 POP POP JUMP JUMPDEST PUSH0 PUSH1 0x40 DUP3 ADD SWAP1 POP PUSH2 0x5690 PUSH0 DUP4 ADD DUP6 PUSH2 0x4D7C JUMP JUMPDEST PUSH2 0x569D PUSH1 0x20 DUP4 ADD DUP5 PUSH2 0x4E06 JUMP JUMPDEST SWAP4 SWAP3 POP POP POP JUMP JUMPDEST PUSH0 DUP2 SWAP1 POP SWAP2 SWAP1 POP JUMP JUMPDEST PUSH0 PUSH2 0x56B7 DUP3 PUSH2 0x56A4 JUMP JUMPDEST SWAP2 POP PUSH2 0x56C2 DUP4 PUSH2 0x56A4 JUMP JUMPDEST SWAP3 POP DUP3 DUP3 ADD SWAP1 POP DUP3 DUP2 SLT ISZERO PUSH0 DUP4 SLT AND DUP4 DUP3 SLT PUSH0 DUP5 SLT ISZERO AND OR ISZERO PUSH2 0x56E8 JUMPI PUSH2 0x56E7 PUSH2 0x54E5 JUMP JUMPDEST JUMPDEST SWAP3 SWAP2 POP POP JUMP JUMPDEST PUSH32 0x4E487B7100000000000000000000000000000000000000000000000000000000 PUSH0 MSTORE PUSH1 0x32 PUSH1 0x4 MSTORE PUSH1 0x24 PUSH0 REVERT JUMPDEST PUSH0 PUSH2 0x5725 DUP3 PUSH2 0x4C6C JUMP JUMPDEST SWAP2 POP PUSH2 0x5730 DUP4 PUSH2 0x4C6C JUMP JUMPDEST SWAP3 POP DUP3 DUP3 ADD SWAP1 POP DUP1 DUP3 GT ISZERO PUSH2 0x5748 JUMPI PUSH2 0x5747 PUSH2 0x54E5 JUMP JUMPDEST JUMPDEST SWAP3 SWAP2 POP POP JUMP JUMPDEST PUSH32 0x546172676574206E6F742077686974656C697374656400000000000000000000 PUSH0 DUP3 ADD MSTORE POP JUMP JUMPDEST PUSH0 PUSH2 0x5782 PUSH1 0x16 DUP4 PUSH2 0x4D95 JUMP JUMPDEST SWAP2 POP PUSH2 0x578D DUP3 PUSH2 0x574E JUMP JUMPDEST PUSH1 0x20 DUP3 ADD SWAP1 POP SWAP2 SWAP1 POP JUMP JUMPDEST PUSH0 PUSH1 0x20 DUP3 ADD SWAP1 POP DUP2 DUP2 SUB PUSH0 DUP4 ADD MSTORE PUSH2 0x57AF DUP2 PUSH2 0x5776 JUMP JUMPDEST SWAP1 POP SWAP2 SWAP1 POP JUMP JUMPDEST PUSH32 0x546172676574206E6F742066726F7A656E000000000000000000000000000000 PUSH0 DUP3 ADD MSTORE POP JUMP JUMPDEST PUSH0 PUSH2 0x57EA PUSH1 0x11 DUP4 PUSH2 0x4D95 JUMP JUMPDEST SWAP2 POP PUSH2 0x57F5 DUP3 PUSH2 0x57B6 JUMP JUMPDEST PUSH1 0x20 DUP3 ADD SWAP1 POP SWAP2 SWAP1 POP JUMP JUMPDEST PUSH0 PUSH1 0x20 DUP3 ADD SWAP1 POP DUP2 DUP2 SUB PUSH0 DUP4 ADD MSTORE PUSH2 0x5817 DUP2 PUSH2 0x57DE JUMP JUMPDEST SWAP1 POP SWAP2 SWAP1 POP JUMP JUMPDEST PUSH0 DUP2 SWAP1 POP DUP2 PUSH0 MSTORE PUSH1 0x20 PUSH0 KECCAK256 SWAP1 POP SWAP2 SWAP1 POP JUMP JUMPDEST PUSH0 PUSH1 0x20 PUSH1 0x1F DUP4 ADD DIV SWAP1 POP SWAP2 SWAP1 POP JUMP JUMPDEST PUSH0 DUP3 DUP3 SHL SWAP1 POP SWAP3 SWAP2 POP POP JUMP JUMPDEST PUSH0 PUSH1 0x8 DUP4 MUL PUSH2 0x587A PUSH32 0xFFFFFFFFFFFFFFFFFFFFFFFFFFFFFFFFFFFFFFFFFFFFFFFFFFFFFFFFFFFFFFFF DUP3 PUSH2 0x583F JUMP JUMPDEST PUSH2 0x5884 DUP7 DUP4 PUSH2 0x583F JUMP JUMPDEST SWAP6 POP DUP1 NOT DUP5 AND SWAP4 POP DUP1 DUP7 AND DUP5 OR SWAP3 POP POP POP SWAP4 SWAP3 POP POP POP JUMP JUMPDEST PUSH0 DUP2 SWAP1 POP SWAP2 SWAP1 POP JUMP JUMPDEST PUSH0 PUSH2 0x58BF PUSH2 0x58BA PUSH2 0x58B5 DUP5 PUSH2 0x4C6C JUMP JUMPDEST PUSH2 0x589C JUMP JUMPDEST PUSH2 0x4C6C JUMP JUMPDEST SWAP1 POP SWAP2 SWAP1 POP JUMP JUMPDEST PUSH0 DUP2 SWAP1 POP SWAP2 SWAP1 POP JUMP JUMPDEST PUSH2 0x58D8 DUP4 PUSH2 0x58A5 JUMP JUMPDEST PUSH2 0x58EC PUSH2 0x58E4 DUP3 PUSH2 0x58C6 JUMP JUMPDEST DUP5 DUP5 SLOAD PUSH2 0x584B JUMP JUMPDEST DUP3 SSTORE POP POP POP POP JUMP JUMPDEST PUSH0 PUSH0 SWAP1 POP SWAP1 JUMP JUMPDEST PUSH2 0x5903 PUSH2 0x58F4 JUMP JUMPDEST PUSH2 0x590E DUP2 DUP5 DUP5 PUSH2 0x58CF JUMP JUMPDEST POP POP POP JUMP JUMPDEST JUMPDEST DUP2 DUP2 LT ISZERO PUSH2 0x5931 JUMPI PUSH2 0x5926 PUSH0 DUP3 PUSH2 0x58FB JUMP JUMPDEST PUSH1 0x1 DUP2 ADD SWAP1 POP PUSH2 0x5914 JUMP JUMPDEST POP POP JUMP JUMPDEST PUSH1 0x1F DUP3 GT ISZERO PUSH2 0x5976 JUMPI PUSH2 0x5947 DUP2 PUSH2 0x581E JUMP JUMPDEST PUSH2 0x5950 DUP5 PUSH2 0x5830 JUMP JUMPDEST DUP2 ADD PUSH1 0x20 DUP6 LT ISZERO PUSH2 0x595F JUMPI DUP2 SWAP1 POP JUMPDEST PUSH2 0x5973 PUSH2 0x596B DUP6 PUSH2 0x5830 JUMP JUMPDEST DUP4 ADD DUP3 PUSH2 0x5913 JUMP JUMPDEST POP POP JUMPDEST POP POP POP JUMP JUMPDEST PUSH0 DUP3 DUP3 SHR SWAP1 POP SWAP3 SWAP2 POP POP JUMP JUMPDEST PUSH0 PUSH2 0x5996 PUSH0 NOT DUP5 PUSH1 0x8 MUL PUSH2 0x597B JUMP JUMPDEST NOT DUP1 DUP4 AND SWAP2 POP POP SWAP3 SWAP2 POP POP JUMP JUMPDEST PUSH0 PUSH2 0x59AE DUP4 DUP4 PUSH2 0x5987 JUMP JUMPDEST SWAP2 POP DUP3 PUSH1 0x2 MUL DUP3 OR SWAP1 POP SWAP3 SWAP2 POP POP JUMP JUMPDEST PUSH2 0x59C7 DUP3 PUSH2 0x4D8B JUMP JUMPDEST PUSH8 0xFFFFFFFFFFFFFFFF DUP2 GT ISZERO PUSH2 0x59E0 JUMPI PUSH2 0x59DF PUSH2 0x4E9C JUMP JUMPDEST JUMPDEST PUSH2 0x59EA DUP3 SLOAD PUSH2 0x5586 JUMP JUMPDEST PUSH2 0x59F5 DUP3 DUP3 DUP6 PUSH2 0x5935 JUMP JUMPDEST PUSH0 PUSH1 0x20 SWAP1 POP PUSH1 0x1F DUP4 GT PUSH1 0x1 DUP2 EQ PUSH2 0x5A26 JUMPI PUSH0 DUP5 ISZERO PUSH2 0x5A14 JUMPI DUP3 DUP8 ADD MLOAD SWAP1 POP JUMPDEST PUSH2 0x5A1E DUP6 DUP3 PUSH2 0x59A3 JUMP JUMPDEST DUP7 SSTORE POP PUSH2 0x5A85 JUMP JUMPDEST PUSH1 0x1F NOT DUP5 AND PUSH2 0x5A34 DUP7 PUSH2 0x581E JUMP JUMPDEST PUSH0 JUMPDEST DUP3 DUP2 LT ISZERO PUSH2 0x5A5B JUMPI DUP5 DUP10 ADD MLOAD DUP3 SSTORE PUSH1 0x1 DUP3 ADD SWAP2 POP PUSH1 0x20 DUP6 ADD SWAP5 POP PUSH1 0x20 DUP2 ADD SWAP1 POP PUSH2 0x5A36 JUMP JUMPDEST DUP7 DUP4 LT ISZERO PUSH2 0x5A78 JUMPI DUP5 DUP10 ADD MLOAD PUSH2 0x5A74 PUSH1 0x1F DUP10 AND DUP3 PUSH2 0x5987 JUMP JUMPDEST DUP4 SSTORE POP JUMPDEST PUSH1 0x1 PUSH1 0x2 DUP9 MUL ADD DUP9 SSTORE POP POP POP JUMPDEST POP POP POP POP POP POP JUMP JUMPDEST PUSH0 PUSH1 0x40 DUP3 ADD SWAP1 POP PUSH2 0x5AA0 PUSH0 DUP4 ADD DUP6 PUSH2 0x4D2E JUMP JUMPDEST PUSH2 0x5AAD PUSH1 0x20 DUP4 ADD DUP5 PUSH2 0x4D6D JUMP JUMPDEST SWAP4 SWAP3 POP POP POP JUMP JUMPDEST PUSH32 0x436F6E7472616374207061757365640000000000000000000000000000000000 PUSH0 DUP3 ADD MSTORE POP JUMP JUMPDEST PUSH0 PUSH2 0x5AE8 PUSH1 0xF DUP4 PUSH2 0x4D95 JUMP JUMPDEST SWAP2 POP PUSH2 0x5AF3 DUP3 PUSH2 0x5AB4 JUMP JUMPDEST PUSH1 0x20 DUP3 ADD SWAP1 POP SWAP2 SWAP1 POP JUMP JUMPDEST PUSH0 PUSH1 0x20 DUP3 ADD SWAP1 POP DUP2 DUP2 SUB PUSH0 DUP4 ADD MSTORE PUSH2 0x5B15 DUP2 PUSH2 0x5ADC JUMP JUMPDEST SWAP1 POP SWAP2 SWAP1 POP JUMP JUMPDEST PUSH0 DUP2 SLOAD PUSH2 0x5B28 DUP2 PUSH2 0x5586 JUMP JUMPDEST PUSH2 0x5B32 DUP2 DUP7 PUSH2 0x4D95 JUMP JUMPDEST SWAP5 POP PUSH1 0x1 DUP3 AND PUSH0 DUP2 EQ PUSH2 0x5B4C JUMPI PUSH1 0x1 DUP2 EQ PUSH2 0x5B62 JUMPI PUSH2 0x5B94 JUMP JUMPDEST PUSH1 0xFF NOT DUP4 AND DUP7 MSTORE DUP2 ISZERO ISZERO PUSH1 0x20 MUL DUP7 ADD SWAP4 POP PUSH2 0x5B94 JUMP JUMPDEST PUSH2 0x5B6B DUP6 PUSH2 0x581E JUMP JUMPDEST PUSH0 JUMPDEST DUP4 DUP2 LT ISZERO PUSH2 0x5B8C JUMPI DUP2 SLOAD DUP2 DUP10 ADD MSTORE PUSH1 0x1 DUP3 ADD SWAP2 POP PUSH1 0x20 DUP2 ADD SWAP1 POP PUSH2 0x5B6D JUMP JUMPDEST DUP1 DUP9 ADD SWAP6 POP POP POP JUMPDEST POP POP POP SWAP3 SWAP2 POP POP JUMP JUMPDEST PUSH0 PUSH1 0x20 DUP3 ADD SWAP1 POP DUP2 DUP2 SUB PUSH0 DUP4 ADD MSTORE PUSH2 0x5BB5 DUP2 DUP5 PUSH2 0x5B1C JUMP JUMPDEST SWAP1 POP SWAP3 SWAP2 POP POP JUMP JUMPDEST PUSH0 DUP2 SLOAD SWAP1 POP SWAP2 SWAP1 POP JUMP JUMPDEST PUSH0 DUP3 DUP3 MSTORE PUSH1 0x20 DUP3 ADD SWAP1 POP SWAP3 SWAP2 POP POP JUMP JUMPDEST PUSH0 DUP2 SWAP1 POP DUP2 PUSH0 MSTORE PUSH1 0x20 PUSH0 KECCAK256 SWAP1 POP SWAP2 SWAP1 POP JUMP JUMPDEST PUSH2 0x5BF2 DUP2 PUSH2 0x4D5C JUMP JUMPDEST DUP3 MSTORE POP POP JUMP JUMPDEST PUSH0 PUSH2 0x5C03 DUP4 DUP4 PUSH2 0x5BE9 JUMP JUMPDEST PUSH1 0x20 DUP4 ADD SWAP1 POP SWAP3 SWAP2 POP POP JUMP JUMPDEST PUSH0 DUP2 PUSH0 SHR SWAP1 POP SWAP2 SWAP1 POP JUMP JUMPDEST PUSH0 PUSH20 0xFFFFFFFFFFFFFFFFFFFFFFFFFFFFFFFFFFFFFFFF DUP3 AND SWAP1 POP SWAP2 SWAP1 POP JUMP JUMPDEST PUSH0 PUSH2 0x5C4B PUSH2 0x5C46 DUP4 PUSH2 0x5C0F JUMP JUMPDEST PUSH2 0x5C1A JUMP JUMPDEST SWAP1 POP SWAP2 SWAP1 POP JUMP JUMPDEST PUSH0 PUSH2 0x5C5D DUP3 SLOAD PUSH2 0x5C39 JUMP JUMPDEST SWAP1 POP SWAP2 SWAP1 POP JUMP JUMPDEST PUSH0 PUSH1 0x1 DUP3 ADD SWAP1 POP SWAP2 SWAP1 POP JUMP JUMPDEST PUSH0 PUSH2 0x5C7A DUP3 PUSH2 0x5BBD JUMP JUMPDEST PUSH2 0x5C84 DUP2 DUP6 PUSH2 0x5BC7 JUMP JUMPDEST SWAP4 POP PUSH2 0x5C8F DUP4 PUSH2 0x5BD7 JUMP JUMPDEST DUP1 PUSH0 JUMPDEST DUP4 DUP2 LT ISZERO PUSH2 0x5CC6 JUMPI PUSH2 0x5CA3 DUP3 PUSH2 0x5C52 JUMP JUMPDEST PUSH2 0x5CAD DUP9 DUP3 PUSH2 0x5BF8 JUMP JUMPDEST SWAP8 POP PUSH2 0x5CB8 DUP4 PUSH2 0x5C64 JUMP JUMPDEST SWAP3 POP POP PUSH1 0x1 DUP2 ADD SWAP1 POP PUSH2 0x5C92 JUMP JUMPDEST POP DUP6 SWAP4 POP POP POP POP SWAP3 SWAP2 POP POP JUMP JUMPDEST PUSH0 PUSH1 0x40 DUP3 ADD SWAP1 POP DUP2 DUP2 SUB PUSH0 DUP4 ADD MSTORE PUSH2 0x5CEB DUP2 DUP6 PUSH2 0x5C70 JUMP JUMPDEST SWAP1 POP DUP2 DUP2 SUB PUSH1 0x20 DUP4 ADD MSTORE PUSH2 0x5CFF DUP2 DUP5 PUSH2 0x5C70 JUMP JUMPDEST SWAP1 POP SWAP4 SWAP3 POP POP POP JUMP JUMPDEST PUSH32 0x57686974656C6973740000000000000000000000000000000000000000000000 PUSH0 DUP3 ADD MSTORE POP JUMP JUMPDEST PUSH0 PUSH2 0x5D3C PUSH1 0x9 DUP4 PUSH2 0x4D95 JUMP JUMPDEST SWAP2 POP PUSH2 0x5D47 DUP3 PUSH2 0x5D08 JUMP JUMPDEST PUSH1 0x20 DUP3 ADD SWAP1 POP SWAP2 SWAP1 POP JUMP JUMPDEST PUSH0 PUSH1 0x40 DUP3 ADD SWAP1 POP DUP2 DUP2 SUB PUSH0 DUP4 ADD MSTORE PUSH2 0x5D69 DUP2 PUSH2 0x5D30 JUMP JUMPDEST SWAP1 POP PUSH2 0x5D78 PUSH1 0x20 DUP4 ADD DUP5 PUSH2 0x4E06 JUMP JUMPDEST SWAP3 SWAP2 POP POP JUMP JUMPDEST PUSH32 0x467265657A650000000000000000000000000000000000000000000000000000 PUSH0 DUP3 ADD MSTORE POP JUMP JUMPDEST PUSH0 PUSH2 0x5DB2 PUSH1 0x6 DUP4 PUSH2 0x4D95 JUMP JUMPDEST SWAP2 POP PUSH2 0x5DBD DUP3 PUSH2 0x5D7E JUMP JUMPDEST PUSH1 0x20 DUP3 ADD SWAP1 POP SWAP2 SWAP1 POP JUMP JUMPDEST PUSH0 PUSH1 0x40 DUP3 ADD SWAP1 POP DUP2 DUP2 SUB PUSH0 DUP4 ADD MSTORE PUSH2 0x5DDF DUP2 PUSH2 0x5DA6 JUMP JUMPDEST SWAP1 POP PUSH2 0x5DEE PUSH1 0x20 DUP4 ADD DUP5 PUSH2 0x4E06 JUMP JUMPDEST SWAP3 SWAP2 POP POP JUMP JUMPDEST PUSH0 PUSH1 0x40 DUP3 ADD SWAP1 POP PUSH2 0x5E07 PUSH0 DUP4 ADD DUP6 PUSH2 0x4D6D JUMP JUMPDEST PUSH2 0x5E14 PUSH1 0x20 DUP4 ADD DUP5 PUSH2 0x4D7C JUMP JUMPDEST SWAP4 SWAP3 POP POP POP JUMP JUMPDEST PUSH0 PUSH1 0x20 DUP3 ADD SWAP1 POP PUSH2 0x5E2E PUSH0 DUP4 ADD DUP5 PUSH2 0x4D2E JUMP JUMPDEST SWAP3 SWAP2 POP POP JUMP JUMPDEST PUSH0 PUSH2 0x5E3E DUP3 PUSH2 0x4C6C JUMP JUMPDEST SWAP2 POP PUSH2 0x5E49 DUP4 PUSH2 0x4C6C JUMP JUMPDEST SWAP3 POP DUP3 DUP3 MUL PUSH2 0x5E57 DUP2 PUSH2 0x4C6C JUMP JUMPDEST SWAP2 POP DUP3 DUP3 DIV DUP5 EQ DUP4 ISZERO OR PUSH2 0x5E6E JUMPI PUSH2 0x5E6D PUSH2 0x54E5 JUMP JUMPDEST JUMPDEST POP SWAP3 SWAP2 POP POP JUMP JUMPDEST PUSH0 PUSH1 0x40 DUP3 ADD SWAP1 POP PUSH2 0x5E88 PUSH0 DUP4 ADD DUP6 PUSH2 0x4D7C JUMP JUMPDEST PUSH2 0x5E95 PUSH1 0x20 DUP4 ADD DUP5 PUSH2 0x4D7C JUMP JUMPDEST SWAP4 SWAP3 POP POP POP JUMP JUMPDEST PUSH0 PUSH2 0x5EA6 DUP3 PUSH2 0x4C6C JUMP JUMPDEST SWAP2 POP PUSH2 0x5EB1 DUP4 PUSH2 0x4C6C JUMP JUMPDEST SWAP3 POP DUP3 DUP3 SUB SWAP1 POP DUP2 DUP2 GT ISZERO PUSH2 0x5EC9 JUMPI PUSH2 0x5EC8 PUSH2 0x54E5 JUMP JUMPDEST JUMPDEST SWAP3 SWAP2 POP POP JUMP JUMPDEST PUSH32 0x5265656E7472616E637947756172643A207265656E7472616E742063616C6C00 PUSH0 DUP3 ADD MSTORE POP JUMP JUMPDEST PUSH0 PUSH2 0x5F03 PUSH1 0x1F DUP4 PUSH2 0x4D95 JUMP JUMPDEST SWAP2 POP PUSH2 0x5F0E DUP3 PUSH2 0x5ECF JUMP JUMPDEST PUSH1 0x20 DUP3 ADD SWAP1 POP SWAP2 SWAP1 POP JUMP JUMPDEST PUSH0 PUSH1 0x20 DUP3 ADD SWAP1 POP DUP2 DUP2 SUB PUSH0 DUP4 ADD MSTORE PUSH2 0x5F30 DUP2 PUSH2 0x5EF7 JUMP JUMPDEST SWAP1 POP SWAP2 SWAP1 POP JUMP JUMPDEST PUSH0 PUSH1 0x60 DUP3 ADD SWAP1 POP PUSH2 0x5F4A PUSH0 DUP4 ADD DUP7 PUSH2 0x4D6D JUMP JUMPDEST PUSH2 0x5F57 PUSH1 0x20 DUP4 ADD DUP6 PUSH2 0x4D7C JUMP JUMPDEST PUSH2 0x5F64 PUSH1 0x40 DUP4 ADD DUP5 PUSH2 0x4D7C JUMP JUMPDEST SWAP5 SWAP4 POP POP POP POP JUMP INVALID LOG2 PUSH5 0x6970667358 0x22 SLT KECCAK256 PUSH2 0xEDB5 DUP4 0x21 MUL GAS RJUMP 0x3BA7 PUSH10 0x6D1F2D71BD7DC7578980 PUSH1 0xCC SWAP7 0xD2 PREVRANDAO 0xC3 SWAP1 DUP11 DUP9 CALLF 0x7B64 PUSH20 0x6F6C634300081E00330000000000000000000000 "
		},
		"gasEstimates": {
			"creation": {
				"codeDepositCost": "4896400",
				"executionCost": "infinite",
				"totalCost": "infinite"
			},
			"external": {
				"AUTO_BATCH_MINT_INTERVAL()": "393",
				"BATCH_MINT_AMOUNT()": "415",
				"DISTRIBUTION_AMOUNT()": "457",
				"DISTRIBUTION_INTERVAL()": "460",
				"EXCHANGE_RATE()": "437",
				"MIN_VOTES_FOR_MINT()": "413",
				"MIN_VOTES_FOR_USER_ACTIONS()": "393",
				"TOTAL_SUPPLY()": "2493",
				"TOTAL_VOTES_REQUIRED()": "415",
				"allowance(address,address)": "infinite",
				"approve(address,uint256)": "infinite",
				"autoBatchMintToWhitelist(address[])": "infinite",
				"balanceOf(address)": "2961",
				"balanceOfUser(address)": "2938",
				"cancelProposal(uint256)": "infinite",
				"compliance()": "468",
				"contractPaused()": "2629",
				"decimals()": "449",
				"distributeToWhitelist()": "infinite",
				"exchange(uint256,address)": "infinite",
				"executeProposal(uint256)": "infinite",
				"frozen(address)": "2944",
				"getActiveProposals()": "infinite",
				"getProposalCount()": "infinite",
				"hasVoted(uint256,address)": "3204",
				"identityRegistry()": "469",
				"isFrozen(address)": "2981",
				"lastAutoBatchMintTimestamp()": "2558",
				"lastDistributionTimestamp()": "2494",
				"manualBatchMintToWhitelist(address[])": "infinite",
				"mintedAmount()": "2538",
				"name()": "infinite",
				"onchainID()": "490",
				"owner()": "2649",
				"pauseContract()": "29750",
				"pauseVoting()": "infinite",
				"paused()": "2591",
				"proposals(uint256)": "infinite",
				"propose(uint8,address,uint256,string,address[],address[])": "infinite",
				"remainingSupply()": "infinite",
				"renounceOwnership()": "infinite",
				"resumeContract()": "27542",
				"resumeVoting()": "infinite",
				"symbol()": "infinite",
				"tokenName()": "infinite",
				"totalSupply()": "2566",
				"transfer(address,uint256)": "infinite",
				"transferFrom(address,address,uint256)": "infinite",
				"transferOwnership(address)": "infinite",
				"version()": "infinite",
				"vote(uint256)": "infinite",
				"voters(address)": "2900",
				"votersList(uint256)": "5035",
				"votingPaused()": "2534",
				"whitelist(address)": "2945"
			},
			"internal": {
				"_batchMintToWhitelist(address[] memory,uint256)": "infinite",
				"_checkProposalVotes(struct CCKToken.Proposal storage pointer)": "infinite",
				"_setName(string memory)": "infinite",
				"resetVotes(uint256)": "infinite"
			}
		},
		"methodIdentifiers": {
			"AUTO_BATCH_MINT_INTERVAL()": "7c224d64",
			"BATCH_MINT_AMOUNT()": "b5fc35ce",
			"DISTRIBUTION_AMOUNT()": "ff8f164f",
			"DISTRIBUTION_INTERVAL()": "08b26b75",
			"EXCHANGE_RATE()": "14a8bd0d",
			"MIN_VOTES_FOR_MINT()": "f36e32cc",
			"MIN_VOTES_FOR_USER_ACTIONS()": "2de56555",
			"TOTAL_SUPPLY()": "902d55a5",
			"TOTAL_VOTES_REQUIRED()": "302c464a",
			"allowance(address,address)": "dd62ed3e",
			"approve(address,uint256)": "095ea7b3",
			"autoBatchMintToWhitelist(address[])": "cb7a11c2",
			"balanceOf(address)": "70a08231",
			"balanceOfUser(address)": "12cae7af",
			"cancelProposal(uint256)": "e0a8f6f5",
			"compliance()": "6290865d",
			"contractPaused()": "8a67456a",
			"decimals()": "313ce567",
			"distributeToWhitelist()": "80e79a36",
			"exchange(uint256,address)": "0fe2abcf",
			"executeProposal(uint256)": "0d61b519",
			"frozen(address)": "d0516650",
			"getActiveProposals()": "5584c4f9",
			"getProposalCount()": "c08cc02d",
			"hasVoted(uint256,address)": "43859632",
			"identityRegistry()": "134e18f4",
			"isFrozen(address)": "e5839836",
			"lastAutoBatchMintTimestamp()": "aca9f472",
			"lastDistributionTimestamp()": "20950933",
			"manualBatchMintToWhitelist(address[])": "051069e3",
			"mintedAmount()": "2d380242",
			"name()": "06fdde03",
			"onchainID()": "aba63705",
			"owner()": "8da5cb5b",
			"pauseContract()": "439766ce",
			"pauseVoting()": "f3cdcd1e",
			"paused()": "5c975abb",
			"proposals(uint256)": "013cf08b",
			"propose(uint8,address,uint256,string,address[],address[])": "0d4efa4f",
			"remainingSupply()": "da0239a6",
			"renounceOwnership()": "715018a6",
			"resumeContract()": "c4bc5da5",
			"resumeVoting()": "7afdf93e",
			"symbol()": "95d89b41",
			"tokenName()": "6c02a931",
			"totalSupply()": "18160ddd",
			"transfer(address,uint256)": "a9059cbb",
			"transferFrom(address,address,uint256)": "23b872dd",
			"transferOwnership(address)": "f2fde38b",
			"version()": "54fd4d50",
			"vote(uint256)": "0121b93f",
			"voters(address)": "a3ec138d",
			"votersList(uint256)": "72ce73ab",
			"votingPaused()": "ae66c9ea",
			"whitelist(address)": "9b19251a"
		}
	},
	"abi": [
		{
			"inputs": [
				{
					"internalType": "string",
					"name": "initialName",
					"type": "string"
				},
				{
					"internalType": "address[]",
					"name": "_whitelist",
					"type": "address[]"
				},
				{
					"internalType": "address[]",
					"name": "_voters",
					"type": "address[]"
				}
			],
			"stateMutability": "nonpayable",
			"type": "constructor"
		},
		{
			"inputs": [
				{
					"internalType": "address",
					"name": "spender",
					"type": "address"
				},
				{
					"internalType": "uint256",
					"name": "allowance",
					"type": "uint256"
				},
				{
					"internalType": "uint256",
					"name": "needed",
					"type": "uint256"
				}
			],
			"name": "ERC20InsufficientAllowance",
			"type": "error"
		},
		{
			"inputs": [
				{
					"internalType": "address",
					"name": "sender",
					"type": "address"
				},
				{
					"internalType": "uint256",
					"name": "balance",
					"type": "uint256"
				},
				{
					"internalType": "uint256",
					"name": "needed",
					"type": "uint256"
				}
			],
			"name": "ERC20InsufficientBalance",
			"type": "error"
		},
		{
			"inputs": [
				{
					"internalType": "address",
					"name": "approver",
					"type": "address"
				}
			],
			"name": "ERC20InvalidApprover",
			"type": "error"
		},
		{
			"inputs": [
				{
					"internalType": "address",
					"name": "receiver",
					"type": "address"
				}
			],
			"name": "ERC20InvalidReceiver",
			"type": "error"
		},
		{
			"inputs": [
				{
					"internalType": "address",
					"name": "sender",
					"type": "address"
				}
			],
			"name": "ERC20InvalidSender",
			"type": "error"
		},
		{
			"inputs": [
				{
					"internalType": "address",
					"name": "spender",
					"type": "address"
				}
			],
			"name": "ERC20InvalidSpender",
			"type": "error"
		},
		{
			"inputs": [
				{
					"internalType": "address",
					"name": "owner",
					"type": "address"
				}
			],
			"name": "OwnableInvalidOwner",
			"type": "error"
		},
		{
			"inputs": [
				{
					"internalType": "address",
					"name": "account",
					"type": "address"
				}
			],
			"name": "OwnableUnauthorizedAccount",
			"type": "error"
		},
		{
			"anonymous": false,
			"inputs": [
				{
					"indexed": true,
					"internalType": "address",
					"name": "owner",
					"type": "address"
				},
				{
					"indexed": true,
					"internalType": "address",
					"name": "spender",
					"type": "address"
				},
				{
					"indexed": false,
					"internalType": "uint256",
					"name": "value",
					"type": "uint256"
				}
			],
			"name": "Approval",
			"type": "event"
		},
		{
			"anonymous": false,
			"inputs": [
				{
					"indexed": true,
					"internalType": "address[]",
					"name": "recipients",
					"type": "address[]"
				},
				{
					"indexed": false,
					"internalType": "uint256",
					"name": "amountPerAddress",
					"type": "uint256"
				},
				{
					"indexed": false,
					"internalType": "bool",
					"name": "isAuto",
					"type": "bool"
				}
			],
			"name": "BatchMint",
			"type": "event"
		},
		{
			"anonymous": false,
			"inputs": [],
			"name": "ContractPaused",
			"type": "event"
		},
		{
			"anonymous": false,
			"inputs": [],
			"name": "ContractResumed",
			"type": "event"
		},
		{
			"anonymous": false,
			"inputs": [
				{
					"indexed": true,
					"internalType": "address",
					"name": "user",
					"type": "address"
				},
				{
					"indexed": false,
					"internalType": "uint256",
					"name": "inputAmount",
					"type": "uint256"
				},
				{
					"indexed": false,
					"internalType": "uint256",
					"name": "cckAmount",
					"type": "uint256"
				},
				{
					"indexed": true,
					"internalType": "address",
					"name": "targetAddress",
					"type": "address"
				}
			],
			"name": "Exchange",
			"type": "event"
		},
		{
			"anonymous": false,
			"inputs": [
				{
					"indexed": false,
					"internalType": "address",
					"name": "to",
					"type": "address"
				},
				{
					"indexed": false,
					"internalType": "uint256",
					"name": "amount",
					"type": "uint256"
				}
			],
			"name": "MintExecuted",
			"type": "event"
		},
		{
			"anonymous": false,
			"inputs": [
				{
					"indexed": false,
					"internalType": "string",
					"name": "newName",
					"type": "string"
				}
			],
			"name": "NameChanged",
			"type": "event"
		},
		{
			"anonymous": false,
			"inputs": [
				{
					"indexed": true,
					"internalType": "address",
					"name": "previousOwner",
					"type": "address"
				},
				{
					"indexed": true,
					"internalType": "address",
					"name": "newOwner",
					"type": "address"
				}
			],
			"name": "OwnershipTransferred",
			"type": "event"
		},
		{
			"anonymous": false,
			"inputs": [
				{
					"indexed": true,
					"internalType": "uint256",
					"name": "proposalId",
					"type": "uint256"
				},
				{
					"indexed": false,
					"internalType": "enum CCKToken.ProposalType",
					"name": "proposalType",
					"type": "uint8"
				}
			],
			"name": "ProposalCancelled",
			"type": "event"
		},
		{
			"anonymous": false,
			"inputs": [
				{
					"indexed": true,
					"internalType": "uint256",
					"name": "proposalId",
					"type": "uint256"
				},
				{
					"indexed": false,
					"internalType": "enum CCKToken.ProposalType",
					"name": "proposalType",
					"type": "uint8"
				},
				{
					"indexed": false,
					"internalType": "address",
					"name": "initiator",
					"type": "address"
				}
			],
			"name": "ProposalCreated",
			"type": "event"
		},
		{
			"anonymous": false,
			"inputs": [
				{
					"indexed": true,
					"internalType": "uint256",
					"name": "proposalId",
					"type": "uint256"
				},
				{
					"indexed": false,
					"internalType": "enum CCKToken.ProposalType",
					"name": "proposalType",
					"type": "uint8"
				}
			],
			"name": "ProposalExecuted",
			"type": "event"
		},
		{
			"anonymous": false,
			"inputs": [
				{
					"indexed": true,
					"internalType": "address",
					"name": "target",
					"type": "address"
				},
				{
					"indexed": false,
					"internalType": "string",
					"name": "statusType",
					"type": "string"
				},
				{
					"indexed": false,
					"internalType": "bool",
					"name": "status",
					"type": "bool"
				}
			],
			"name": "StatusChanged",
			"type": "event"
		},
		{
			"anonymous": false,
			"inputs": [
				{
					"indexed": false,
					"internalType": "uint256",
					"name": "newTotalSupply",
					"type": "uint256"
				}
			],
			"name": "TotalSupplyAdjusted",
			"type": "event"
		},
		{
			"anonymous": false,
			"inputs": [
				{
					"indexed": true,
					"internalType": "address",
					"name": "from",
					"type": "address"
				},
				{
					"indexed": true,
					"internalType": "address",
					"name": "to",
					"type": "address"
				},
				{
					"indexed": false,
					"internalType": "uint256",
					"name": "value",
					"type": "uint256"
				}
			],
			"name": "Transfer",
			"type": "event"
		},
		{
			"anonymous": false,
			"inputs": [
				{
					"indexed": true,
					"internalType": "uint256",
					"name": "proposalId",
					"type": "uint256"
				},
				{
					"indexed": true,
					"internalType": "address",
					"name": "voter",
					"type": "address"
				}
			],
			"name": "VoteCast",
			"type": "event"
		},
		{
			"anonymous": false,
			"inputs": [
				{
					"indexed": false,
					"internalType": "address[]",
					"name": "oldVoters",
					"type": "address[]"
				},
				{
					"indexed": false,
					"internalType": "address[]",
					"name": "newVoters",
					"type": "address[]"
				}
			],
			"name": "VotersChanged",
			"type": "event"
		},
		{
			"anonymous": false,
			"inputs": [],
			"name": "VotingPaused",
			"type": "event"
		},
		{
			"anonymous": false,
			"inputs": [],
			"name": "VotingResumed",
			"type": "event"
		},
		{
			"anonymous": false,
			"inputs": [
				{
					"indexed": false,
					"internalType": "uint256",
					"name": "amount",
					"type": "uint256"
				}
			],
			"name": "WhitelistDistribution",
			"type": "event"
		},
		{
			"inputs": [],
			"name": "AUTO_BATCH_MINT_INTERVAL",
			"outputs": [
				{
					"internalType": "uint256",
					"name": "",
					"type": "uint256"
				}
			],
			"stateMutability": "view",
			"type": "function"
		},
		{
			"inputs": [],
			"name": "BATCH_MINT_AMOUNT",
			"outputs": [
				{
					"internalType": "uint256",
					"name": "",
					"type": "uint256"
				}
			],
			"stateMutability": "view",
			"type": "function"
		},
		{
			"inputs": [],
			"name": "DISTRIBUTION_AMOUNT",
			"outputs": [
				{
					"internalType": "uint256",
					"name": "",
					"type": "uint256"
				}
			],
			"stateMutability": "view",
			"type": "function"
		},
		{
			"inputs": [],
			"name": "DISTRIBUTION_INTERVAL",
			"outputs": [
				{
					"internalType": "uint256",
					"name": "",
					"type": "uint256"
				}
			],
			"stateMutability": "view",
			"type": "function"
		},
		{
			"inputs": [],
			"name": "EXCHANGE_RATE",
			"outputs": [
				{
					"internalType": "uint256",
					"name": "",
					"type": "uint256"
				}
			],
			"stateMutability": "view",
			"type": "function"
		},
		{
			"inputs": [],
			"name": "MIN_VOTES_FOR_MINT",
			"outputs": [
				{
					"internalType": "uint256",
					"name": "",
					"type": "uint256"
				}
			],
			"stateMutability": "view",
			"type": "function"
		},
		{
			"inputs": [],
			"name": "MIN_VOTES_FOR_USER_ACTIONS",
			"outputs": [
				{
					"internalType": "uint256",
					"name": "",
					"type": "uint256"
				}
			],
			"stateMutability": "view",
			"type": "function"
		},
		{
			"inputs": [],
			"name": "TOTAL_SUPPLY",
			"outputs": [
				{
					"internalType": "uint256",
					"name": "",
					"type": "uint256"
				}
			],
			"stateMutability": "view",
			"type": "function"
		},
		{
			"inputs": [],
			"name": "TOTAL_VOTES_REQUIRED",
			"outputs": [
				{
					"internalType": "uint256",
					"name": "",
					"type": "uint256"
				}
			],
			"stateMutability": "view",
			"type": "function"
		},
		{
			"inputs": [
				{
					"internalType": "address",
					"name": "owner",
					"type": "address"
				},
				{
					"internalType": "address",
					"name": "spender",
					"type": "address"
				}
			],
			"name": "allowance",
			"outputs": [
				{
					"internalType": "uint256",
					"name": "",
					"type": "uint256"
				}
			],
			"stateMutability": "view",
			"type": "function"
		},
		{
			"inputs": [
				{
					"internalType": "address",
					"name": "spender",
					"type": "address"
				},
				{
					"internalType": "uint256",
					"name": "value",
					"type": "uint256"
				}
			],
			"name": "approve",
			"outputs": [
				{
					"internalType": "bool",
					"name": "",
					"type": "bool"
				}
			],
			"stateMutability": "nonpayable",
			"type": "function"
		},
		{
			"inputs": [
				{
					"internalType": "address[]",
					"name": "whitelistAddresses",
					"type": "address[]"
				}
			],
			"name": "autoBatchMintToWhitelist",
			"outputs": [],
			"stateMutability": "nonpayable",
			"type": "function"
		},
		{
			"inputs": [
				{
					"internalType": "address",
					"name": "account",
					"type": "address"
				}
			],
			"name": "balanceOf",
			"outputs": [
				{
					"internalType": "uint256",
					"name": "",
					"type": "uint256"
				}
			],
			"stateMutability": "view",
			"type": "function"
		},
		{
			"inputs": [
				{
					"internalType": "address",
					"name": "user",
					"type": "address"
				}
			],
			"name": "balanceOfUser",
			"outputs": [
				{
					"internalType": "uint256",
					"name": "",
					"type": "uint256"
				}
			],
			"stateMutability": "view",
			"type": "function"
		},
		{
			"inputs": [
				{
					"internalType": "uint256",
					"name": "proposalId",
					"type": "uint256"
				}
			],
			"name": "cancelProposal",
			"outputs": [],
			"stateMutability": "nonpayable",
			"type": "function"
		},
		{
			"inputs": [],
			"name": "compliance",
			"outputs": [
				{
					"internalType": "address",
					"name": "",
					"type": "address"
				}
			],
			"stateMutability": "pure",
			"type": "function"
		},
		{
			"inputs": [],
			"name": "contractPaused",
			"outputs": [
				{
					"internalType": "bool",
					"name": "",
					"type": "bool"
				}
			],
			"stateMutability": "view",
			"type": "function"
		},
		{
			"inputs": [],
			"name": "decimals",
			"outputs": [
				{
					"internalType": "uint8",
					"name": "",
					"type": "uint8"
				}
			],
			"stateMutability": "view",
			"type": "function"
		},
		{
			"inputs": [],
			"name": "distributeToWhitelist",
			"outputs": [],
			"stateMutability": "nonpayable",
			"type": "function"
		},
		{
			"inputs": [
				{
					"internalType": "uint256",
					"name": "inputAmount",
					"type": "uint256"
				},
				{
					"internalType": "address",
					"name": "targetAddress",
					"type": "address"
				}
			],
			"name": "exchange",
			"outputs": [],
			"stateMutability": "nonpayable",
			"type": "function"
		},
		{
			"inputs": [
				{
					"internalType": "uint256",
					"name": "proposalId",
					"type": "uint256"
				}
			],
			"name": "executeProposal",
			"outputs": [],
			"stateMutability": "nonpayable",
			"type": "function"
		},
		{
			"inputs": [
				{
					"internalType": "address",
					"name": "",
					"type": "address"
				}
			],
			"name": "frozen",
			"outputs": [
				{
					"internalType": "bool",
					"name": "",
					"type": "bool"
				}
			],
			"stateMutability": "view",
			"type": "function"
		},
		{
			"inputs": [],
			"name": "getActiveProposals",
			"outputs": [
				{
					"internalType": "uint256[]",
					"name": "ids",
					"type": "uint256[]"
				}
			],
			"stateMutability": "view",
			"type": "function"
		},
		{
			"inputs": [],
			"name": "getProposalCount",
			"outputs": [
				{
					"internalType": "uint256",
					"name": "",
					"type": "uint256"
				}
			],
			"stateMutability": "view",
			"type": "function"
		},
		{
			"inputs": [
				{
					"internalType": "uint256",
					"name": "",
					"type": "uint256"
				},
				{
					"internalType": "address",
					"name": "",
					"type": "address"
				}
			],
			"name": "hasVoted",
			"outputs": [
				{
					"internalType": "bool",
					"name": "",
					"type": "bool"
				}
			],
			"stateMutability": "view",
			"type": "function"
		},
		{
			"inputs": [],
			"name": "identityRegistry",
			"outputs": [
				{
					"internalType": "address",
					"name": "",
					"type": "address"
				}
			],
			"stateMutability": "pure",
			"type": "function"
		},
		{
			"inputs": [
				{
					"internalType": "address",
					"name": "userAddress",
					"type": "address"
				}
			],
			"name": "isFrozen",
			"outputs": [
				{
					"internalType": "bool",
					"name": "",
					"type": "bool"
				}
			],
			"stateMutability": "view",
			"type": "function"
		},
		{
			"inputs": [],
			"name": "lastAutoBatchMintTimestamp",
			"outputs": [
				{
					"internalType": "uint256",
					"name": "",
					"type": "uint256"
				}
			],
			"stateMutability": "view",
			"type": "function"
		},
		{
			"inputs": [],
			"name": "lastDistributionTimestamp",
			"outputs": [
				{
					"internalType": "uint256",
					"name": "",
					"type": "uint256"
				}
			],
			"stateMutability": "view",
			"type": "function"
		},
		{
			"inputs": [
				{
					"internalType": "address[]",
					"name": "whitelistAddresses",
					"type": "address[]"
				}
			],
			"name": "manualBatchMintToWhitelist",
			"outputs": [],
			"stateMutability": "nonpayable",
			"type": "function"
		},
		{
			"inputs": [],
			"name": "mintedAmount",
			"outputs": [
				{
					"internalType": "uint256",
					"name": "",
					"type": "uint256"
				}
			],
			"stateMutability": "view",
			"type": "function"
		},
		{
			"inputs": [],
			"name": "name",
			"outputs": [
				{
					"internalType": "string",
					"name": "",
					"type": "string"
				}
			],
			"stateMutability": "view",
			"type": "function"
		},
		{
			"inputs": [],
			"name": "onchainID",
			"outputs": [
				{
					"internalType": "address",
					"name": "",
					"type": "address"
				}
			],
			"stateMutability": "view",
			"type": "function"
		},
		{
			"inputs": [],
			"name": "owner",
			"outputs": [
				{
					"internalType": "address",
					"name": "",
					"type": "address"
				}
			],
			"stateMutability": "view",
			"type": "function"
		},
		{
			"inputs": [],
			"name": "pauseContract",
			"outputs": [],
			"stateMutability": "nonpayable",
			"type": "function"
		},
		{
			"inputs": [],
			"name": "pauseVoting",
			"outputs": [],
			"stateMutability": "nonpayable",
			"type": "function"
		},
		{
			"inputs": [],
			"name": "paused",
			"outputs": [
				{
					"internalType": "bool",
					"name": "",
					"type": "bool"
				}
			],
			"stateMutability": "view",
			"type": "function"
		},
		{
			"inputs": [
				{
					"internalType": "uint256",
					"name": "",
					"type": "uint256"
				}
			],
			"name": "proposals",
			"outputs": [
				{
					"internalType": "enum CCKToken.ProposalType",
					"name": "proposalType",
					"type": "uint8"
				},
				{
					"internalType": "address",
					"name": "initiator",
					"type": "address"
				},
				{
					"internalType": "uint256",
					"name": "voteCount",
					"type": "uint256"
				},
				{
					"internalType": "uint256",
					"name": "timestamp",
					"type": "uint256"
				},
				{
					"internalType": "address",
					"name": "target",
					"type": "address"
				},
				{
					"internalType": "uint256",
					"name": "value",
					"type": "uint256"
				},
				{
					"internalType": "string",
					"name": "name",
					"type": "string"
				},
				{
					"internalType": "bool",
					"name": "active",
					"type": "bool"
				}
			],
			"stateMutability": "view",
			"type": "function"
		},
		{
			"inputs": [
				{
					"internalType": "enum CCKToken.ProposalType",
					"name": "proposalType",
					"type": "uint8"
				},
				{
					"internalType": "address",
					"name": "target",
					"type": "address"
				},
				{
					"internalType": "uint256",
					"name": "value",
					"type": "uint256"
				},
				{
					"internalType": "string",
					"name": "name",
					"type": "string"
				},
				{
					"internalType": "address[]",
					"name": "oldVoters",
					"type": "address[]"
				},
				{
					"internalType": "address[]",
					"name": "newVoters",
					"type": "address[]"
				}
			],
			"name": "propose",
			"outputs": [],
			"stateMutability": "nonpayable",
			"type": "function"
		},
		{
			"inputs": [],
			"name": "remainingSupply",
			"outputs": [
				{
					"internalType": "uint256",
					"name": "",
					"type": "uint256"
				}
			],
			"stateMutability": "view",
			"type": "function"
		},
		{
			"inputs": [],
			"name": "renounceOwnership",
			"outputs": [],
			"stateMutability": "nonpayable",
			"type": "function"
		},
		{
			"inputs": [],
			"name": "resumeContract",
			"outputs": [],
			"stateMutability": "nonpayable",
			"type": "function"
		},
		{
			"inputs": [],
			"name": "resumeVoting",
			"outputs": [],
			"stateMutability": "nonpayable",
			"type": "function"
		},
		{
			"inputs": [],
			"name": "symbol",
			"outputs": [
				{
					"internalType": "string",
					"name": "",
					"type": "string"
				}
			],
			"stateMutability": "view",
			"type": "function"
		},
		{
			"inputs": [],
			"name": "tokenName",
			"outputs": [
				{
					"internalType": "string",
					"name": "",
					"type": "string"
				}
			],
			"stateMutability": "view",
			"type": "function"
		},
		{
			"inputs": [],
			"name": "totalSupply",
			"outputs": [
				{
					"internalType": "uint256",
					"name": "",
					"type": "uint256"
				}
			],
			"stateMutability": "view",
			"type": "function"
		},
		{
			"inputs": [
				{
					"internalType": "address",
					"name": "to",
					"type": "address"
				},
				{
					"internalType": "uint256",
					"name": "amount",
					"type": "uint256"
				}
			],
			"name": "transfer",
			"outputs": [
				{
					"internalType": "bool",
					"name": "",
					"type": "bool"
				}
			],
			"stateMutability": "nonpayable",
			"type": "function"
		},
		{
			"inputs": [
				{
					"internalType": "address",
					"name": "sender",
					"type": "address"
				},
				{
					"internalType": "address",
					"name": "recipient",
					"type": "address"
				},
				{
					"internalType": "uint256",
					"name": "amount",
					"type": "uint256"
				}
			],
			"name": "transferFrom",
			"outputs": [
				{
					"internalType": "bool",
					"name": "",
					"type": "bool"
				}
			],
			"stateMutability": "nonpayable",
			"type": "function"
		},
		{
			"inputs": [
				{
					"internalType": "address",
					"name": "newOwner",
					"type": "address"
				}
			],
			"name": "transferOwnership",
			"outputs": [],
			"stateMutability": "nonpayable",
			"type": "function"
		},
		{
			"inputs": [],
			"name": "version",
			"outputs": [
				{
					"internalType": "string",
					"name": "",
					"type": "string"
				}
			],
			"stateMutability": "pure",
			"type": "function"
		},
		{
			"inputs": [
				{
					"internalType": "uint256",
					"name": "proposalId",
					"type": "uint256"
				}
			],
			"name": "vote",
			"outputs": [],
			"stateMutability": "nonpayable",
			"type": "function"
		},
		{
			"inputs": [
				{
					"internalType": "address",
					"name": "",
					"type": "address"
				}
			],
			"name": "voters",
			"outputs": [
				{
					"internalType": "bool",
					"name": "",
					"type": "bool"
				}
			],
			"stateMutability": "view",
			"type": "function"
		},
		{
			"inputs": [
				{
					"internalType": "uint256",
					"name": "",
					"type": "uint256"
				}
			],
			"name": "votersList",
			"outputs": [
				{
					"internalType": "address",
					"name": "",
					"type": "address"
				}
			],
			"stateMutability": "view",
			"type": "function"
		},
		{
			"inputs": [],
			"name": "votingPaused",
			"outputs": [
				{
					"internalType": "bool",
					"name": "",
					"type": "bool"
				}
			],
			"stateMutability": "view",
			"type": "function"
		},
		{
			"inputs": [
				{
					"internalType": "address",
					"name": "",
					"type": "address"
				}
			],
			"name": "whitelist",
			"outputs": [
				{
					"internalType": "bool",
					"name": "",
					"type": "bool"
				}
			],
			"stateMutability": "view",
			"type": "function"
		}
	]
}