{
	"data": {
		"bytecode": {
			"linkReferences": {},
			"object": "60806040526969e10de76676d080000060075534801561001d575f5ffd5b50604051617a0d380380617a0d833981810160405281019061003f919061079b565b33836040518060400160405280600281526020017f434300000000000000000000000000000000000000000000000000000000000081525081600390816100869190610a4f565b5080600490816100969190610a4f565b5050505f73ffffffffffffffffffffffffffffffffffffffff168173ffffffffffffffffffffffffffffffffffffffff1603610109575f6040517f1e4fbdf70000000000000000000000000000000000000000000000000000000081526004016101009190610b2d565b60405180910390fd5b6101188161046d60201b60201c565b5060016006819055505f825111610164576040517f08c379a000000000000000000000000000000000000000000000000000000000815260040161015b90610ba0565b60405180910390fd5b5f8151116101a7576040517f08c379a000000000000000000000000000000000000000000000000000000000815260040161019e90610c08565b60405180910390fd5b5f5f90505b82518110156102b9575f73ffffffffffffffffffffffffffffffffffffffff168382815181106101df576101de610c26565b5b602002602001015173ffffffffffffffffffffffffffffffffffffffff160361023d576040517f08c379a000000000000000000000000000000000000000000000000000000000815260040161023490610c9d565b60405180910390fd5b600160085f85848151811061025557610254610c26565b5b602002602001015173ffffffffffffffffffffffffffffffffffffffff1673ffffffffffffffffffffffffffffffffffffffff1681526020019081526020015f205f6101000a81548160ff02191690831515021790555080806001019150506101ac565b505f5f90505b8151811015610446575f73ffffffffffffffffffffffffffffffffffffffff168282815181106102f2576102f1610c26565b5b602002602001015173ffffffffffffffffffffffffffffffffffffffff1603610350576040517f08c379a000000000000000000000000000000000000000000000000000000000815260040161034790610d05565b60405180910390fd5b6001600c5f84848151811061036857610367610c26565b5b602002602001015173ffffffffffffffffffffffffffffffffffffffff1673ffffffffffffffffffffffffffffffffffffffff1681526020019081526020015f205f6101000a81548160ff021916908315150217905550600e8282815181106103d4576103d3610c26565b5b6020026020010151908060018154018082558091505060019003905f5260205f20015f9091909190916101000a81548173ffffffffffffffffffffffffffffffffffffffff021916908373ffffffffffffffffffffffffffffffffffffffff16021790555080806001019150506102bf565b5082600b90816104569190610a4f565b504260128190555042601381905550505050610d23565b5f60055f9054906101000a900473ffffffffffffffffffffffffffffffffffffffff1690508160055f6101000a81548173ffffffffffffffffffffffffffffffffffffffff021916908373ffffffffffffffffffffffffffffffffffffffff1602179055508173ffffffffffffffffffffffffffffffffffffffff168173ffffffffffffffffffffffffffffffffffffffff167f8be0079c531659141344cd1fd0a4f28419497f9722a3daafe3b4186f6b6457e060405160405180910390a35050565b5f604051905090565b5f5ffd5b5f5ffd5b5f5ffd5b5f5ffd5b5f601f19601f8301169050919050565b7f4e487b71000000000000000000000000000000000000000000000000000000005f52604160045260245ffd5b61058f82610549565b810181811067ffffffffffffffff821117156105ae576105ad610559565b5b80604052505050565b5f6105c0610530565b90506105cc8282610586565b919050565b5f67ffffffffffffffff8211156105eb576105ea610559565b5b6105f482610549565b9050602081019050919050565b8281835e5f83830152505050565b5f61062161061c846105d1565b6105b7565b90508281526020810184848401111561063d5761063c610545565b5b610648848285610601565b509392505050565b5f82601f83011261066457610663610541565b5b815161067484826020860161060f565b91505092915050565b5f67ffffffffffffffff82111561069757610696610559565b5b602082029050602081019050919050565b5f5ffd5b5f73ffffffffffffffffffffffffffffffffffffffff82169050919050565b5f6106d5826106ac565b9050919050565b6106e5816106cb565b81146106ef575f5ffd5b50565b5f81519050610700816106dc565b92915050565b5f6107186107138461067d565b6105b7565b9050808382526020820190506020840283018581111561073b5761073a6106a8565b5b835b81811015610764578061075088826106f2565b84526020840193505060208101905061073d565b5050509392505050565b5f82601f83011261078257610781610541565b5b8151610792848260208601610706565b91505092915050565b5f5f5f606084860312156107b2576107b1610539565b5b5f84015167ffffffffffffffff8111156107cf576107ce61053d565b5b6107db86828701610650565b935050602084015167ffffffffffffffff8111156107fc576107fb61053d565b5b6108088682870161076e565b925050604084015167ffffffffffffffff8111156108295761082861053d565b5b6108358682870161076e565b9150509250925092565b5f81519050919050565b7f4e487b71000000000000000000000000000000000000000000000000000000005f52602260045260245ffd5b5f600282049050600182168061088d57607f821691505b6020821081036108a05761089f610849565b5b50919050565b5f819050815f5260205f209050919050565b5f6020601f8301049050919050565b5f82821b905092915050565b5f600883026109027fffffffffffffffffffffffffffffffffffffffffffffffffffffffffffffffff826108c7565b61090c86836108c7565b95508019841693508086168417925050509392505050565b5f819050919050565b5f819050919050565b5f61095061094b61094684610924565b61092d565b610924565b9050919050565b5f819050919050565b61096983610936565b61097d61097582610957565b8484546108d3565b825550505050565b5f5f905090565b610994610985565b61099f818484610960565b505050565b5b818110156109c2576109b75f8261098c565b6001810190506109a5565b5050565b601f821115610a07576109d8816108a6565b6109e1846108b8565b810160208510156109f0578190505b610a046109fc856108b8565b8301826109a4565b50505b505050565b5f82821c905092915050565b5f610a275f1984600802610a0c565b1980831691505092915050565b5f610a3f8383610a18565b9150826002028217905092915050565b610a588261083f565b67ffffffffffffffff811115610a7157610a70610559565b5b610a7b8254610876565b610a868282856109c6565b5f60209050601f831160018114610ab7575f8415610aa5578287015190505b610aaf8582610a34565b865550610b16565b601f198416610ac5866108a6565b5f5b82811015610aec57848901518255600182019150602085019450602081019050610ac7565b86831015610b095784890151610b05601f891682610a18565b8355505b6001600288020188555050505b505050505050565b610b27816106cb565b82525050565b5f602082019050610b405f830184610b1e565b92915050565b5f82825260208201905092915050565b7f456d7074792077686974656c69737400000000000000000000000000000000005f82015250565b5f610b8a600f83610b46565b9150610b9582610b56565b602082019050919050565b5f6020820190508181035f830152610bb781610b7e565b9050919050565b7f456d70747920766f7465727300000000000000000000000000000000000000005f82015250565b5f610bf2600c83610b46565b9150610bfd82610bbe565b602082019050919050565b5f6020820190508181035f830152610c1f81610be6565b9050919050565b7f4e487b71000000000000000000000000000000000000000000000000000000005f52603260045260245ffd5b7f496e76616c69642077686974656c6973742061646472657373000000000000005f82015250565b5f610c87601983610b46565b9150610c9282610c53565b602082019050919050565b5f6020820190508181035f830152610cb481610c7b565b9050919050565b7f496e76616c696420766f746572206164647265737300000000000000000000005f82015250565b5f610cef601583610b46565b9150610cfa82610cbb565b602082019050919050565b5f6020820190508181035f830152610d1c81610ce3565b9050919050565b616cdd80610d305f395ff3fe608060405234801561000f575f5ffd5b5060043610610376575f3560e01c8063715018a6116101d1578063ae66c9ea11610102578063dd62ed3e116100a0578063f2fde38b1161007a578063f2fde38b14610a23578063f36e32cc14610a3f578063f3cdcd1e14610a5d578063ff8f164f14610a6757610376565b8063dd62ed3e146109a7578063e0a8f6f5146109d7578063e5839836146109f357610376565b8063c4bc5da5116100dc578063c4bc5da514610933578063cb7a11c21461093d578063d051665014610959578063da0239a61461098957610376565b8063ae66c9ea146108d9578063b5fc35ce146108f7578063c08cc02d1461091557610376565b8063902d55a51161016f578063a3ec138d11610149578063a3ec138d1461083d578063a9059cbb1461086d578063aba637051461089d578063aca9f472146108bb57610376565b8063902d55a5146107d157806395d89b41146107ef5780639b19251a1461080d57610376565b80637c224d64116101ab5780637c224d641461076d57806380e79a361461078b5780638a67456a146107955780638da5cb5b146107b357610376565b8063715018a61461072957806372ce73ab146107335780637afdf93e1461076357610376565b806320950933116102ab578063439766ce116102495780635c975abb116102235780635c975abb1461069f5780636290865d146106bd5780636c02a931146106db57806370a08231146106f957610376565b8063439766ce1461065957806354fd4d50146106635780635584c4f91461068157610376565b80632de56555116102855780632de56555146105cf578063302c464a146105ed578063313ce5671461060b578063438596321461062957610376565b8063209509331461056357806323b872dd146105815780632d380242146105b157610376565b80630d61b51911610318578063134e18f4116102f2578063134e18f4146104d957806314a8bd0d146104f7578063158b1a571461051557806318160ddd1461054557610376565b80630d61b519146104715780630fe2abcf1461048d57806312cae7af146104a957610376565b806306fdde031161035457806306fdde03146103e957806308b26b7514610407578063095ea7b3146104255780630d4efa4f1461045557610376565b80630121b93f1461037a578063013cf08b14610396578063051069e3146103cd575b5f5ffd5b610394600480360381019061038f9190614cf5565b610a85565b005b6103b060048036038101906103ab9190614cf5565b610e82565b6040516103c4989796959493929190614e6b565b60405180910390f35b6103e760048036038101906103e29190615058565b610fa2565b005b6103f16110f9565b6040516103fe919061509f565b60405180910390f35b61040f611189565b60405161041c91906150bf565b60405180910390f35b61043f600480360381019061043a91906150d8565b61118f565b60405161044c9190615116565b60405180910390f35b61046f600480360381019061046a9190615202565b6111b1565b005b61048b60048036038101906104869190614cf5565b611e3d565b005b6104a760048036038101906104a291906152df565b612a90565b005b6104c360048036038101906104be919061531d565b612ced565b6040516104d091906150bf565b60405180910390f35b6104e1612cfe565b6040516104ee9190615348565b60405180910390f35b6104ff612d05565b60405161050c91906150bf565b60405180910390f35b61052f600480360381019061052a919061531d565b612d0a565b60405161053c91906150bf565b60405180910390f35b61054d612d13565b60405161055a91906150bf565b60405180910390f35b61056b612d1c565b60405161057891906150bf565b60405180910390f35b61059b60048036038101906105969190615361565b612d22565b6040516105a89190615116565b60405180910390f35b6105b9612e65565b6040516105c691906150bf565b60405180910390f35b6105d7612e6b565b6040516105e491906150bf565b60405180910390f35b6105f5612e70565b60405161060291906150bf565b60405180910390f35b610613612e75565b60405161062091906153cc565b60405180910390f35b610643600480360381019061063e91906152df565b612e7c565b6040516106509190615116565b60405180910390f35b610661612ea6565b005b61066b612fc8565b604051610678919061509f565b60405180910390f35b610689613005565b604051610696919061549c565b60405180910390f35b6106a7613123565b6040516106b49190615116565b60405180910390f35b6106c5613139565b6040516106d29190615348565b60405180910390f35b6106e3613140565b6040516106f0919061509f565b60405180910390f35b610713600480360381019061070e919061531d565b6131cc565b60405161072091906150bf565b60405180910390f35b610731613211565b005b61074d60048036038101906107489190614cf5565b613224565b60405161075a9190615348565b60405180910390f35b61076b61325f565b005b6107756132ae565b60405161078291906150bf565b60405180910390f35b6107936132b4565b005b61079d613481565b6040516107aa9190615116565b60405180910390f35b6107bb613494565b6040516107c89190615348565b60405180910390f35b6107d96134bc565b6040516107e691906150bf565b60405180910390f35b6107f76134c2565b604051610804919061509f565b60405180910390f35b6108276004803603810190610822919061531d565b613552565b6040516108349190615116565b60405180910390f35b6108576004803603810190610852919061531d565b61356f565b6040516108649190615116565b60405180910390f35b610887600480360381019061088291906150d8565b61358c565b6040516108949190615116565b60405180910390f35b6108a56136cd565b6040516108b29190615348565b60405180910390f35b6108c36136d4565b6040516108d091906150bf565b60405180910390f35b6108e16136da565b6040516108ee9190615116565b60405180910390f35b6108ff6136ec565b60405161090c91906150bf565b60405180910390f35b61091d6136f9565b60405161092a91906150bf565b60405180910390f35b61093b61371e565b005b61095760048036038101906109529190615058565b6137ef565b005b610973600480360381019061096e919061531d565b613917565b6040516109809190615116565b60405180910390f35b610991613934565b60405161099e91906150bf565b60405180910390f35b6109c160048036038101906109bc91906154bc565b61394a565b6040516109ce91906150bf565b60405180910390f35b6109f160048036038101906109ec9190614cf5565b6139cc565b005b610a0d6004803603810190610a08919061531d565b613cee565b604051610a1a9190615116565b60405180910390f35b610a3d6004803603810190610a38919061531d565b613d40565b005b610a47613dc4565b604051610a5491906150bf565b60405180910390f35b610a65613dc9565b005b610a6f613e19565b604051610a7c91906150bf565b60405180910390f35b601160019054906101000a900460ff1615610ad5576040517f08c379a0000000000000000000000000000000000000000000000000000000008152600401610acc90615544565b60405180910390fd5b600c5f3373ffffffffffffffffffffffffffffffffffffffff1673ffffffffffffffffffffffffffffffffffffffff1681526020019081526020015f205f9054906101000a900460ff16610b5e576040517f08c379a0000000000000000000000000000000000000000000000000000000008152600401610b55906155ac565b60405180910390fd5b5f600f5f8381526020019081526020015f209050806008015f9054906101000a900460ff16610bc2576040517f08c379a0000000000000000000000000000000000000000000000000000000008152600401610bb990615614565b60405180910390fd5b600d5f8381526020019081526020015f205f3373ffffffffffffffffffffffffffffffffffffffff1673ffffffffffffffffffffffffffffffffffffffff1681526020019081526020015f205f9054906101000a900460ff1615610c5b576040517f08c379a0000000000000000000000000000000000000000000000000000000008152600401610c529061567c565b60405180910390fd5b60115f9054906101000a900460ff1615610caa576040517f08c379a0000000000000000000000000000000000000000000000000000000008152600401610ca1906156e4565b60405180910390fd5b6001600d5f8481526020019081526020015f205f3373ffffffffffffffffffffffffffffffffffffffff1673ffffffffffffffffffffffffffffffffffffffff1681526020019081526020015f205f6101000a81548160ff021916908315150217905550806001015f815480929190610d229061572f565b91905055505f600780811115610d3b57610d3a614d20565b5b825f015f9054906101000a900460ff166007811115610d5d57610d5c614d20565b5b14610ded5760036007811115610d7657610d75614d20565b5b825f015f9054906101000a900460ff166007811115610d9857610d97614d20565b5b10158015610dda575060066007811115610db557610db4614d20565b5b825f015f9054906101000a900460ff166007811115610dd757610dd6614d20565b5b11155b610de5576005610de8565b60035b610df0565b60025b90508082600101541115610e39576040517f08c379a0000000000000000000000000000000000000000000000000000000008152600401610e30906157c0565b60405180910390fd5b3373ffffffffffffffffffffffffffffffffffffffff16837ff1003b73c437642c0460aee9cd9628b0b8c447b66e6c7c905531b9c644214a1160405160405180910390a3505050565b600f602052805f5260405f205f91509050805f015f9054906101000a900460ff1690805f0160019054906101000a900473ffffffffffffffffffffffffffffffffffffffff1690806001015490806002015490806003015f9054906101000a900473ffffffffffffffffffffffffffffffffffffffff1690806004015490806005018054610f0f9061580b565b80601f0160208091040260200160405190810160405280929190818152602001828054610f3b9061580b565b8015610f865780601f10610f5d57610100808354040283529160200191610f86565b820191905f5260205f20905b815481529060010190602001808311610f6957829003601f168201915b505050505090806008015f9054906101000a900460ff16905088565b610faa613e25565b601160019054906101000a900460ff1615610ffa576040517f08c379a0000000000000000000000000000000000000000000000000000000008152600401610ff190615544565b60405180910390fd5b600c5f3373ffffffffffffffffffffffffffffffffffffffff1673ffffffffffffffffffffffffffffffffffffffff1681526020019081526020015f205f9054906101000a900460ff16611083576040517f08c379a000000000000000000000000000000000000000000000000000000000815260040161107a906155ac565b60405180910390fd5b6110968168056bc75e2d63100000613e74565b806040516110a491906158ec565b60405180910390207fc2aead9cf0ee95e5f48d316db6adcf05801aec50b3029bf8afcd0c2faf73b12d68056bc75e2d631000005f6040516110e6929190615902565b60405180910390a26110f6614072565b50565b6060600380546111089061580b565b80601f01602080910402602001604051908101604052809291908181526020018280546111349061580b565b801561117f5780601f106111565761010080835404028352916020019161117f565b820191905f5260205f20905b81548152906001019060200180831161116257829003601f168201915b5050505050905090565b61012c81565b5f5f61119961407c565b90506111a6818585614083565b600191505092915050565b601160019054906101000a900460ff1615611201576040517f08c379a00000000000000000000000000000000000000000000000000000000081526004016111f890615544565b60405180910390fd5b600c5f3373ffffffffffffffffffffffffffffffffffffffff1673ffffffffffffffffffffffffffffffffffffffff1681526020019081526020015f205f9054906101000a900460ff1661128a576040517f08c379a0000000000000000000000000000000000000000000000000000000008152600401611281906155ac565b60405180910390fd5b5f600781111561129d5761129c614d20565b5b8660078111156112b0576112af614d20565b5b036112fd575f8351116112f8576040517f08c379a00000000000000000000000000000000000000000000000000000000081526004016112ef90615973565b60405180910390fd5b611bbd565b6001600781111561131157611310614d20565b5b86600781111561132457611323614d20565b5b03611412575f840361136b576040517f08c379a0000000000000000000000000000000000000000000000000000000008152600401611362906159db565b60405180910390fd5b600a548460075461137c9190615a02565b12156113bd576040517f08c379a00000000000000000000000000000000000000000000000000000000081526004016113b490615a8d565b60405180910390fd5b5f846007546113cc9190615a02565b121561140d576040517f08c379a000000000000000000000000000000000000000000000000000000000815260040161140490615af5565b60405180910390fd5b611bbc565b6002600781111561142657611425614d20565b5b86600781111561143957611438614d20565b5b03611712578051825114801561144f57505f8251115b61148e576040517f08c379a000000000000000000000000000000000000000000000000000000000815260040161148590615b5d565b60405180910390fd5b5f5f90505b825181101561170c57600c5f8483815181106114b2576114b1615b7b565b5b602002602001015173ffffffffffffffffffffffffffffffffffffffff1673ffffffffffffffffffffffffffffffffffffffff1681526020019081526020015f205f9054906101000a900460ff1661153f576040517f08c379a000000000000000000000000000000000000000000000000000000000815260040161153690615bf2565b60405180910390fd5b5f73ffffffffffffffffffffffffffffffffffffffff1682828151811061156957611568615b7b565b5b602002602001015173ffffffffffffffffffffffffffffffffffffffff16141580156115f65750600c5f8383815181106115a6576115a5615b7b565b5b602002602001015173ffffffffffffffffffffffffffffffffffffffff1673ffffffffffffffffffffffffffffffffffffffff1681526020019081526020015f205f9054906101000a900460ff16155b611635576040517f08c379a000000000000000000000000000000000000000000000000000000000815260040161162c90615c5a565b60405180910390fd5b5f6001826116439190615c78565b90505b82518110156116fe5782818151811061166257611661615b7b565b5b602002602001015173ffffffffffffffffffffffffffffffffffffffff1683838151811061169357611692615b7b565b5b602002602001015173ffffffffffffffffffffffffffffffffffffffff16036116f1576040517f08c379a00000000000000000000000000000000000000000000000000000000081526004016116e890615cf5565b60405180910390fd5b8080600101915050611646565b508080600101915050611493565b50611bbb565b6003600781111561172657611725614d20565b5b86600781111561173957611738614d20565b5b03611805575f73ffffffffffffffffffffffffffffffffffffffff168573ffffffffffffffffffffffffffffffffffffffff16141580156117c1575060085f8673ffffffffffffffffffffffffffffffffffffffff1673ffffffffffffffffffffffffffffffffffffffff1681526020019081526020015f205f9054906101000a900460ff16155b611800576040517f08c379a00000000000000000000000000000000000000000000000000000000081526004016117f790615d5d565b60405180910390fd5b611bba565b6004600781111561181957611818614d20565b5b86600781111561182c5761182b614d20565b5b036118bf5760085f8673ffffffffffffffffffffffffffffffffffffffff1673ffffffffffffffffffffffffffffffffffffffff1681526020019081526020015f205f9054906101000a900460ff166118ba576040517f08c379a00000000000000000000000000000000000000000000000000000000081526004016118b190615dc5565b60405180910390fd5b611bb9565b600560078111156118d3576118d2614d20565b5b8660078111156118e6576118e5614d20565b5b036119b2575f73ffffffffffffffffffffffffffffffffffffffff168573ffffffffffffffffffffffffffffffffffffffff161415801561196e575060095f8673ffffffffffffffffffffffffffffffffffffffff1673ffffffffffffffffffffffffffffffffffffffff1681526020019081526020015f205f9054906101000a900460ff16155b6119ad576040517f08c379a00000000000000000000000000000000000000000000000000000000081526004016119a490615e2d565b60405180910390fd5b611bb8565b600660078111156119c6576119c5614d20565b5b8660078111156119d9576119d8614d20565b5b03611a6c5760095f8673ffffffffffffffffffffffffffffffffffffffff1673ffffffffffffffffffffffffffffffffffffffff1681526020019081526020015f205f9054906101000a900460ff16611a67576040517f08c379a0000000000000000000000000000000000000000000000000000000008152600401611a5e90615e95565b60405180910390fd5b611bb7565b600780811115611a7f57611a7e614d20565b5b866007811115611a9257611a91614d20565b5b03611bb65760085f8673ffffffffffffffffffffffffffffffffffffffff1673ffffffffffffffffffffffffffffffffffffffff1681526020019081526020015f205f9054906101000a900460ff168015611b1957505f73ffffffffffffffffffffffffffffffffffffffff168573ffffffffffffffffffffffffffffffffffffffff1614155b611b58576040517f08c379a0000000000000000000000000000000000000000000000000000000008152600401611b4f90615efd565b60405180910390fd5b5f84118015611b76575060075484600a54611b739190615c78565b11155b611bb5576040517f08c379a0000000000000000000000000000000000000000000000000000000008152600401611bac90615f65565b60405180910390fd5b5b5b5b5b5b5b5b5b604051806101400160405280876007811115611bdc57611bdb614d20565b5b81526020013373ffffffffffffffffffffffffffffffffffffffff1681526020015f815260200160026007811115611c1757611c16614d20565b5b886007811115611c2a57611c29614d20565b5b1115611c365742611c44565b60b442611c439190615c78565b5b81526020018673ffffffffffffffffffffffffffffffffffffffff16815260200185815260200184815260200183815260200182815260200160011515815250600f5f60105481526020019081526020015f205f820151815f015f6101000a81548160ff02191690836007811115611cbf57611cbe614d20565b5b02179055506020820151815f0160016101000a81548173ffffffffffffffffffffffffffffffffffffffff021916908373ffffffffffffffffffffffffffffffffffffffff16021790555060408201518160010155606082015181600201556080820151816003015f6101000a81548173ffffffffffffffffffffffffffffffffffffffff021916908373ffffffffffffffffffffffffffffffffffffffff16021790555060a0820151816004015560c0820151816005019081611d839190616123565b5060e0820151816006019080519060200190611da0929190614bb4565b50610100820151816007019080519060200190611dbe929190614bb4565b50610120820151816008015f6101000a81548160ff0219169083151502179055509050506010547f3263432a41f78a4701cc9465f62411ed717ade32290c084135a3dd6b29f4bf288733604051611e169291906161f2565b60405180910390a260105f815480929190611e309061572f565b9190505550505050505050565b601160019054906101000a900460ff1615611e8d576040517f08c379a0000000000000000000000000000000000000000000000000000000008152600401611e8490615544565b60405180910390fd5b5f600f5f8381526020019081526020015f209050611eab8183614095565b505f6007811115611ebf57611ebe614d20565b5b815f015f9054906101000a900460ff166007811115611ee157611ee0614d20565b5b03611fb857611f79816005018054611ef89061580b565b80601f0160208091040260200160405190810160405280929190818152602001828054611f249061580b565b8015611f6f5780601f10611f4657610100808354040283529160200191611f6f565b820191905f5260205f20905b815481529060010190602001808311611f5257829003601f168201915b50505050506142c2565b7f4737457377f528cc8afd815f73ecb8b05df80d047dbffc41c17750a4033592bc81600501604051611fab919061629a565b60405180910390a1612975565b60016007811115611fcc57611fcb614d20565b5b815f015f9054906101000a900460ff166007811115611fee57611fed614d20565b5b036120495780600401546007546120059190615a02565b6007819055507f0acd0677fad7be9ccaf6c91ebaaca5c9c91622ac0508242d2f8feca61a0da24960075460405161203c91906150bf565b60405180910390a1612974565b6002600781111561205d5761205c614d20565b5b815f015f9054906101000a900460ff16600781111561207f5761207e614d20565b5b036123e2575f600e80548060200260200160405190810160405280929190818152602001828054801561210457602002820191905f5260205f20905b815f9054906101000a900473ffffffffffffffffffffffffffffffffffffffff1673ffffffffffffffffffffffffffffffffffffffff16815260200190600101908083116120bb575b505050505090505f5f90505b8260060180549050811015612385575f600c5f85600601848154811061213957612138615b7b565b5b905f5260205f20015f9054906101000a900473ffffffffffffffffffffffffffffffffffffffff1673ffffffffffffffffffffffffffffffffffffffff1673ffffffffffffffffffffffffffffffffffffffff1681526020019081526020015f205f6101000a81548160ff0219169083151502179055506001600c5f8560070184815481106121cb576121ca615b7b565b5b905f5260205f20015f9054906101000a900473ffffffffffffffffffffffffffffffffffffffff1673ffffffffffffffffffffffffffffffffffffffff1673ffffffffffffffffffffffffffffffffffffffff1681526020019081526020015f205f6101000a81548160ff0219169083151502179055505f5f90505b82518110156123775783600601828154811061226657612265615b7b565b5b905f5260205f20015f9054906101000a900473ffffffffffffffffffffffffffffffffffffffff1673ffffffffffffffffffffffffffffffffffffffff168382815181106122b7576122b6615b7b565b5b602002602001015173ffffffffffffffffffffffffffffffffffffffff160361236a578360070182815481106122f0576122ef615b7b565b5b905f5260205f20015f9054906101000a900473ffffffffffffffffffffffffffffffffffffffff1683828151811061232b5761232a615b7b565b5b602002602001019073ffffffffffffffffffffffffffffffffffffffff16908173ffffffffffffffffffffffffffffffffffffffff1681525050612377565b8080600101915050612247565b508080600101915050612110565b5080600e908051906020019061239c929190614bb4565b507f765616ca75e38e63dcc130430614a01fa91bfe57744073b30bf8f4ba8fa31ffc82600601836007016040516123d49291906163d0565b60405180910390a150612973565b600360078111156123f6576123f5614d20565b5b815f015f9054906101000a900460ff16600781111561241857612417614d20565b5b0361250c57600160085f836003015f9054906101000a900473ffffffffffffffffffffffffffffffffffffffff1673ffffffffffffffffffffffffffffffffffffffff1673ffffffffffffffffffffffffffffffffffffffff1681526020019081526020015f205f6101000a81548160ff021916908315150217905550806003015f9054906101000a900473ffffffffffffffffffffffffffffffffffffffff1673ffffffffffffffffffffffffffffffffffffffff167f708b4d521222bb27f0672d2839e6039075f625a31020905655afd928fc99234060016040516124ff919061644f565b60405180910390a2612972565b600460078111156125205761251f614d20565b5b815f015f9054906101000a900460ff16600781111561254257612541614d20565b5b03612634575f60085f836003015f9054906101000a900473ffffffffffffffffffffffffffffffffffffffff1673ffffffffffffffffffffffffffffffffffffffff1673ffffffffffffffffffffffffffffffffffffffff1681526020019081526020015f205f6101000a81548160ff021916908315150217905550806003015f9054906101000a900473ffffffffffffffffffffffffffffffffffffffff1673ffffffffffffffffffffffffffffffffffffffff167f708b4d521222bb27f0672d2839e6039075f625a31020905655afd928fc9923405f604051612627919061644f565b60405180910390a2612971565b6005600781111561264857612647614d20565b5b815f015f9054906101000a900460ff16600781111561266a57612669614d20565b5b0361275e57600160095f836003015f9054906101000a900473ffffffffffffffffffffffffffffffffffffffff1673ffffffffffffffffffffffffffffffffffffffff1673ffffffffffffffffffffffffffffffffffffffff1681526020019081526020015f205f6101000a81548160ff021916908315150217905550806003015f9054906101000a900473ffffffffffffffffffffffffffffffffffffffff1673ffffffffffffffffffffffffffffffffffffffff167f708b4d521222bb27f0672d2839e6039075f625a31020905655afd928fc992340600160405161275191906164c5565b60405180910390a2612970565b6006600781111561277257612771614d20565b5b815f015f9054906101000a900460ff16600781111561279457612793614d20565b5b03612886575f60095f836003015f9054906101000a900473ffffffffffffffffffffffffffffffffffffffff1673ffffffffffffffffffffffffffffffffffffffff1673ffffffffffffffffffffffffffffffffffffffff1681526020019081526020015f205f6101000a81548160ff021916908315150217905550806003015f9054906101000a900473ffffffffffffffffffffffffffffffffffffffff1673ffffffffffffffffffffffffffffffffffffffff167f708b4d521222bb27f0672d2839e6039075f625a31020905655afd928fc9923405f60405161287991906164c5565b60405180910390a261296f565b60078081111561289957612898614d20565b5b815f015f9054906101000a900460ff1660078111156128bb576128ba614d20565b5b0361296e576128f1816003015f9054906101000a900473ffffffffffffffffffffffffffffffffffffffff1682600401546142d5565b8060040154600a5f8282546129069190615c78565b925050819055507f570563f436dc733c61d3863fd95e547272964f69d7b5cfe7461360a7a5643e3c816003015f9054906101000a900473ffffffffffffffffffffffffffffffffffffffff1682600401546040516129659291906164f1565b60405180910390a15b5b5b5b5b5b5b5b61297e82614354565b600f5f8381526020019081526020015f205f5f82015f6101000a81549060ff02191690555f820160016101000a81549073ffffffffffffffffffffffffffffffffffffffff0219169055600182015f9055600282015f9055600382015f6101000a81549073ffffffffffffffffffffffffffffffffffffffff0219169055600482015f9055600582015f612a129190614c3b565b600682015f612a219190614c78565b600782015f612a309190614c78565b600882015f6101000a81549060ff02191690555050817f5b9614f21773d68c0b149bda804ff3d491c8bc8795f7ed236cc97804cd005389825f015f9054906101000a900460ff16604051612a849190616518565b60405180910390a25050565b612a98613e25565b601160019054906101000a900460ff1615612ae8576040517f08c379a0000000000000000000000000000000000000000000000000000000008152600401612adf90615544565b60405180910390fd5b60085f8273ffffffffffffffffffffffffffffffffffffffff1673ffffffffffffffffffffffffffffffffffffffff1681526020019081526020015f205f9054906101000a900460ff16612b71576040517f08c379a0000000000000000000000000000000000000000000000000000000008152600401612b6890615dc5565b60405180910390fd5b5f8211612bb3576040517f08c379a0000000000000000000000000000000000000000000000000000000008152600401612baa9061657b565b60405180910390fd5b5f601483612bc19190616599565b90505f8111612c05576040517f08c379a0000000000000000000000000000000000000000000000000000000008152600401612bfc90616624565b60405180910390fd5b60075481600a54612c169190615c78565b1115612c57576040517f08c379a0000000000000000000000000000000000000000000000000000000008152600401612c4e9061668c565b60405180910390fd5b612c6182826142d5565b80600a5f828254612c729190615c78565b925050819055508173ffffffffffffffffffffffffffffffffffffffff163373ffffffffffffffffffffffffffffffffffffffff167fbadb5a53e5a7f1f292f32f4ca0c78e80d05f213db774602acc6faca5aecdf6d78584604051612cd89291906166aa565b60405180910390a350612ce9614072565b5050565b5f612cf7826131cc565b9050919050565b5f5f905090565b601481565b5f5f9050919050565b5f600254905090565b60125481565b5f601160019054906101000a900460ff1615612d73576040517f08c379a0000000000000000000000000000000000000000000000000000000008152600401612d6a90615544565b60405180910390fd5b60095f8573ffffffffffffffffffffffffffffffffffffffff1673ffffffffffffffffffffffffffffffffffffffff1681526020019081526020015f205f9054906101000a900460ff1615612dfd576040517f08c379a0000000000000000000000000000000000000000000000000000000008152600401612df49061671b565b60405180910390fd5b816fffffffffffffffffffffffffffffffff168214612e51576040517f08c379a0000000000000000000000000000000000000000000000000000000008152600401612e4890616783565b60405180910390fd5b612e5c8484846144af565b90509392505050565b600a5481565b600381565b600581565b5f5f905090565b600d602052815f5260405f20602052805f5260405f205f915091509054906101000a900460ff1681565b600c5f3373ffffffffffffffffffffffffffffffffffffffff1673ffffffffffffffffffffffffffffffffffffffff1681526020019081526020015f205f9054906101000a900460ff16612f2f576040517f08c379a0000000000000000000000000000000000000000000000000000000008152600401612f26906155ac565b60405180910390fd5b601160019054906101000a900460ff1615612f7f576040517f08c379a0000000000000000000000000000000000000000000000000000000008152600401612f7690615544565b60405180910390fd5b6001601160016101000a81548160ff0219169083151502179055507fab35696f06e428ebc5ceba8cd17f8fed287baf43440206d1943af1ee53e6d26760405160405180910390a1565b60606040518060400160405280600581526020017f312e302e30000000000000000000000000000000000000000000000000000000815250905090565b60605f5f90505f5f90505b60105481101561305c57600f5f8281526020019081526020015f206008015f9054906101000a900460ff161561304f57818061304b9061572f565b9250505b8080600101915050613010565b508067ffffffffffffffff81111561307757613076614ef2565b5b6040519080825280602002602001820160405280156130a55781602001602082028036833780820191505090505b5091505f5f90505f5f90505b60105481101561311d57600f5f8281526020019081526020015f206008015f9054906101000a900460ff161561311057808483815181106130f5576130f4615b7b565b5b602002602001018181525050818061310c9061572f565b9250505b80806001019150506130b1565b50505090565b5f601160019054906101000a900460ff16905090565b5f5f905090565b600b805461314d9061580b565b80601f01602080910402602001604051908101604052809291908181526020018280546131799061580b565b80156131c45780601f1061319b576101008083540402835291602001916131c4565b820191905f5260205f20905b8154815290600101906020018083116131a757829003601f168201915b505050505081565b5f5f5f8373ffffffffffffffffffffffffffffffffffffffff1673ffffffffffffffffffffffffffffffffffffffff1681526020019081526020015f20549050919050565b6132196144dd565b6132225f614564565b565b600e8181548110613233575f80fd5b905f5260205f20015f915054906101000a900473ffffffffffffffffffffffffffffffffffffffff1681565b6132676144dd565b5f60115f6101000a81548160ff0219169083151502179055507f8f69ef9279bfb1fe5f4f75790947a23fa88774e98242b966bcaaf7d25e8b3c1660405160405180910390a1565b61038481565b601160019054906101000a900460ff1615613304576040517f08c379a00000000000000000000000000000000000000000000000000000000081526004016132fb90615544565b60405180910390fd5b600c5f3373ffffffffffffffffffffffffffffffffffffffff1673ffffffffffffffffffffffffffffffffffffffff1681526020019081526020015f205f9054906101000a900460ff1661338d576040517f08c379a0000000000000000000000000000000000000000000000000000000008152600401613384906155ac565b60405180910390fd5b61012c60125461339d9190615c78565b4210156133df576040517f08c379a00000000000000000000000000000000000000000000000000000000081526004016133d6906167eb565b60405180910390fd5b600754670de0b6b3a7640000600a546133f89190615c78565b1115613439576040517f08c379a00000000000000000000000000000000000000000000000000000000081526004016134309061668c565b60405180910390fd5b426012819055507f90596ca0cb29ef99cd530e572920440d7d040408f92c28e46836fe9e048f59d8670de0b6b3a764000060405161347791906150bf565b60405180910390a1565b601160019054906101000a900460ff1681565b5f60055f9054906101000a900473ffffffffffffffffffffffffffffffffffffffff16905090565b60075481565b6060600480546134d19061580b565b80601f01602080910402602001604051908101604052809291908181526020018280546134fd9061580b565b80156135485780601f1061351f57610100808354040283529160200191613548565b820191905f5260205f20905b81548152906001019060200180831161352b57829003601f168201915b5050505050905090565b6008602052805f5260405f205f915054906101000a900460ff1681565b600c602052805f5260405f205f915054906101000a900460ff1681565b5f601160019054906101000a900460ff16156135dd576040517f08c379a00000000000000000000000000000000000000000000000000000000081526004016135d490615544565b60405180910390fd5b60095f3373ffffffffffffffffffffffffffffffffffffffff1673ffffffffffffffffffffffffffffffffffffffff1681526020019081526020015f205f9054906101000a900460ff1615613667576040517f08c379a000000000000000000000000000000000000000000000000000000000815260040161365e9061671b565b60405180910390fd5b816fffffffffffffffffffffffffffffffff1682146136bb576040517f08c379a00000000000000000000000000000000000000000000000000000000081526004016136b290616783565b60405180910390fd5b6136c58383614627565b905092915050565b5f30905090565b60135481565b60115f9054906101000a900460ff1681565b68056bc75e2d6310000081565b5f5f60105411613709575f613719565b60016010546137189190616809565b5b905090565b600c5f3373ffffffffffffffffffffffffffffffffffffffff1673ffffffffffffffffffffffffffffffffffffffff1681526020019081526020015f205f9054906101000a900460ff166137a7576040517f08c379a000000000000000000000000000000000000000000000000000000000815260040161379e906155ac565b60405180910390fd5b5f601160016101000a81548160ff0219169083151502179055507fab5f6dacf93a267a93a533de8a56370de8341bbd8102017307e7be375c3dda6a60405160405180910390a1565b6137f7613e25565b601160019054906101000a900460ff1615613847576040517f08c379a000000000000000000000000000000000000000000000000000000000815260040161383e90615544565b60405180910390fd5b6103846013546138579190615c78565b421015613899576040517f08c379a0000000000000000000000000000000000000000000000000000000008152600401613890906168ac565b60405180910390fd5b6138ac8168056bc75e2d63100000613e74565b42601381905550806040516138c191906158ec565b60405180910390207fc2aead9cf0ee95e5f48d316db6adcf05801aec50b3029bf8afcd0c2faf73b12d68056bc75e2d631000006001604051613904929190615902565b60405180910390a2613914614072565b50565b6009602052805f5260405f205f915054906101000a900460ff1681565b5f600a546007546139459190616809565b905090565b5f60015f8473ffffffffffffffffffffffffffffffffffffffff1673ffffffffffffffffffffffffffffffffffffffff1681526020019081526020015f205f8373ffffffffffffffffffffffffffffffffffffffff1673ffffffffffffffffffffffffffffffffffffffff1681526020019081526020015f2054905092915050565b601160019054906101000a900460ff1615613a1c576040517f08c379a0000000000000000000000000000000000000000000000000000000008152600401613a1390615544565b60405180910390fd5b5f600f5f8381526020019081526020015f209050806008015f9054906101000a900460ff16613a80576040517f08c379a0000000000000000000000000000000000000000000000000000000008152600401613a7790615614565b60405180910390fd5b805f0160019054906101000a900473ffffffffffffffffffffffffffffffffffffffff1673ffffffffffffffffffffffffffffffffffffffff163373ffffffffffffffffffffffffffffffffffffffff1614613b11576040517f08c379a0000000000000000000000000000000000000000000000000000000008152600401613b0890616914565b60405180910390fd5b60026007811115613b2557613b24614d20565b5b815f015f9054906101000a900460ff166007811115613b4757613b46614d20565b5b1115613b88576040517f08c379a0000000000000000000000000000000000000000000000000000000008152600401613b7f9061697c565b60405180910390fd5b80600201544210613bce576040517f08c379a0000000000000000000000000000000000000000000000000000000008152600401613bc5906169e4565b60405180910390fd5b613bd782614354565b5f815f015f9054906101000a900460ff169050600f5f8481526020019081526020015f205f5f82015f6101000a81549060ff02191690555f820160016101000a81549073ffffffffffffffffffffffffffffffffffffffff0219169055600182015f9055600282015f9055600382015f6101000a81549073ffffffffffffffffffffffffffffffffffffffff0219169055600482015f9055600582015f613c7e9190614c3b565b600682015f613c8d9190614c78565b600782015f613c9c9190614c78565b600882015f6101000a81549060ff02191690555050827f89616a339342f36e4dcecc713f695bcbfe35fea112c4c652da7e1656bd486ce882604051613ce19190616518565b60405180910390a2505050565b5f60095f8373ffffffffffffffffffffffffffffffffffffffff1673ffffffffffffffffffffffffffffffffffffffff1681526020019081526020015f205f9054906101000a900460ff169050919050565b613d486144dd565b5f73ffffffffffffffffffffffffffffffffffffffff168173ffffffffffffffffffffffffffffffffffffffff1603613db8575f6040517f1e4fbdf7000000000000000000000000000000000000000000000000000000008152600401613daf9190615348565b60405180910390fd5b613dc181614564565b50565b600281565b613dd16144dd565b600160115f6101000a81548160ff0219169083151502179055507f20c53179fe7c6306d9d1c279d52bae5e736f5e1178137542d3a7a9d1752691be60405160405180910390a1565b670de0b6b3a764000081565b600260065403613e6a576040517f08c379a0000000000000000000000000000000000000000000000000000000008152600401613e6190616a4c565b60405180910390fd5b6002600681905550565b5f825111613eb7576040517f08c379a0000000000000000000000000000000000000000000000000000000008152600401613eae90616ab4565b60405180910390fd5b5f818351613ec59190616599565b905060075481600a54613ed89190615c78565b1115613f19576040517f08c379a0000000000000000000000000000000000000000000000000000000008152600401613f109061668c565b60405180910390fd5b5f5f90505b8351811015614054575f848281518110613f3b57613f3a615b7b565b5b602002602001015190505f73ffffffffffffffffffffffffffffffffffffffff168173ffffffffffffffffffffffffffffffffffffffff1603613fb3576040517f08c379a0000000000000000000000000000000000000000000000000000000008152600401613faa90616b1c565b60405180910390fd5b60085f8273ffffffffffffffffffffffffffffffffffffffff1673ffffffffffffffffffffffffffffffffffffffff1681526020019081526020015f205f9054906101000a900460ff1661403c576040517f08c379a000000000000000000000000000000000000000000000000000000000815260040161403390616b84565b60405180910390fd5b61404681856142d5565b508080600101915050613f1e565b5080600a5f8282546140669190615c78565b92505081905550505050565b6001600681905550565b5f33905090565b6140908383836001614649565b505050565b5f826008015f9054906101000a900460ff166140e6576040517f08c379a00000000000000000000000000000000000000000000000000000000081526004016140dd90615614565b60405180910390fd5b826002015442101561412d576040517f08c379a000000000000000000000000000000000000000000000000000000000815260040161412490616bec565b60405180910390fd5b5f60078081111561414157614140614d20565b5b845f015f9054906101000a900460ff16600781111561416357614162614d20565b5b1461426c576003600781111561417c5761417b614d20565b5b845f015f9054906101000a900460ff16600781111561419e5761419d614d20565b5b14806141dd5750600460078111156141b9576141b8614d20565b5b845f015f9054906101000a900460ff1660078111156141db576141da614d20565b5b145b8061421b5750600560078111156141f7576141f6614d20565b5b845f015f9054906101000a900460ff16600781111561421957614218614d20565b5b145b8061425957506006600781111561423557614234614d20565b5b845f015f9054906101000a900460ff16600781111561425757614256614d20565b5b145b614264576005614267565b60035b61426f565b60025b905080846001015410156142b8576040517f08c379a00000000000000000000000000000000000000000000000000000000081526004016142af90616c54565b60405180910390fd5b8091505092915050565b80600b90816142d19190616123565b5050565b5f73ffffffffffffffffffffffffffffffffffffffff168273ffffffffffffffffffffffffffffffffffffffff1603614345575f6040517fec442f0500000000000000000000000000000000000000000000000000000000815260040161433c9190615348565b60405180910390fd5b6143505f8383614818565b5050565b5f5f90505b600e805490508110156144ab57600d5f8381526020019081526020015f205f600e838154811061438c5761438b615b7b565b5b905f5260205f20015f9054906101000a900473ffffffffffffffffffffffffffffffffffffffff1673ffffffffffffffffffffffffffffffffffffffff1673ffffffffffffffffffffffffffffffffffffffff1681526020019081526020015f205f9054906101000a900460ff161561449e575f600d5f8481526020019081526020015f205f600e848154811061442657614425615b7b565b5b905f5260205f20015f9054906101000a900473ffffffffffffffffffffffffffffffffffffffff1673ffffffffffffffffffffffffffffffffffffffff1673ffffffffffffffffffffffffffffffffffffffff1681526020019081526020015f205f6101000a81548160ff0219169083151502179055505b8080600101915050614359565b5050565b5f5f6144b961407c565b90506144c6858285614a31565b6144d1858585614ac4565b60019150509392505050565b6144e561407c565b73ffffffffffffffffffffffffffffffffffffffff16614503613494565b73ffffffffffffffffffffffffffffffffffffffff16146145625761452661407c565b6040517f118cdaa70000000000000000000000000000000000000000000000000000000081526004016145599190615348565b60405180910390fd5b565b5f60055f9054906101000a900473ffffffffffffffffffffffffffffffffffffffff1690508160055f6101000a81548173ffffffffffffffffffffffffffffffffffffffff021916908373ffffffffffffffffffffffffffffffffffffffff1602179055508173ffffffffffffffffffffffffffffffffffffffff168173ffffffffffffffffffffffffffffffffffffffff167f8be0079c531659141344cd1fd0a4f28419497f9722a3daafe3b4186f6b6457e060405160405180910390a35050565b5f5f61463161407c565b905061463e818585614ac4565b600191505092915050565b5f73ffffffffffffffffffffffffffffffffffffffff168473ffffffffffffffffffffffffffffffffffffffff16036146b9575f6040517fe602df050000000000000000000000000000000000000000000000000000000081526004016146b09190615348565b60405180910390fd5b5f73ffffffffffffffffffffffffffffffffffffffff168373ffffffffffffffffffffffffffffffffffffffff1603614729575f6040517f94280d620000000000000000000000000000000000000000000000000000000081526004016147209190615348565b60405180910390fd5b8160015f8673ffffffffffffffffffffffffffffffffffffffff1673ffffffffffffffffffffffffffffffffffffffff1681526020019081526020015f205f8573ffffffffffffffffffffffffffffffffffffffff1673ffffffffffffffffffffffffffffffffffffffff1681526020019081526020015f20819055508015614812578273ffffffffffffffffffffffffffffffffffffffff168473ffffffffffffffffffffffffffffffffffffffff167f8c5be1e5ebec7d5bd14f71427d1e84f3dd0314c0f7b2291e5b200ac8c7c3b9258460405161480991906150bf565b60405180910390a35b50505050565b5f73ffffffffffffffffffffffffffffffffffffffff168373ffffffffffffffffffffffffffffffffffffffff1603614868578060025f82825461485c9190615c78565b92505081905550614936565b5f5f5f8573ffffffffffffffffffffffffffffffffffffffff1673ffffffffffffffffffffffffffffffffffffffff1681526020019081526020015f20549050818110156148f1578381836040517fe450d38c0000000000000000000000000000000000000000000000000000000081526004016148e893929190616c72565b60405180910390fd5b8181035f5f8673ffffffffffffffffffffffffffffffffffffffff1673ffffffffffffffffffffffffffffffffffffffff1681526020019081526020015f2081905550505b5f73ffffffffffffffffffffffffffffffffffffffff168273ffffffffffffffffffffffffffffffffffffffff160361497d578060025f82825403925050819055506149c7565b805f5f8473ffffffffffffffffffffffffffffffffffffffff1673ffffffffffffffffffffffffffffffffffffffff1681526020019081526020015f205f82825401925050819055505b8173ffffffffffffffffffffffffffffffffffffffff168373ffffffffffffffffffffffffffffffffffffffff167fddf252ad1be2c89b69c2b068fc378daa952ba7f163c4a11628f55a4df523b3ef83604051614a2491906150bf565b60405180910390a3505050565b5f614a3c848461394a565b90507fffffffffffffffffffffffffffffffffffffffffffffffffffffffffffffffff811015614abe5781811015614aaf578281836040517ffb8f41b2000000000000000000000000000000000000000000000000000000008152600401614aa693929190616c72565b60405180910390fd5b614abd84848484035f614649565b5b50505050565b5f73ffffffffffffffffffffffffffffffffffffffff168373ffffffffffffffffffffffffffffffffffffffff1603614b34575f6040517f96c6fd1e000000000000000000000000000000000000000000000000000000008152600401614b2b9190615348565b60405180910390fd5b5f73ffffffffffffffffffffffffffffffffffffffff168273ffffffffffffffffffffffffffffffffffffffff1603614ba4575f6040517fec442f05000000000000000000000000000000000000000000000000000000008152600401614b9b9190615348565b60405180910390fd5b614baf838383614818565b505050565b828054828255905f5260205f20908101928215614c2a579160200282015b82811115614c29578251825f6101000a81548173ffffffffffffffffffffffffffffffffffffffff021916908373ffffffffffffffffffffffffffffffffffffffff16021790555091602001919060010190614bd2565b5b509050614c379190614c96565b5090565b508054614c479061580b565b5f825580601f10614c585750614c75565b601f0160209004905f5260205f2090810190614c749190614c96565b5b50565b5080545f8255905f5260205f2090810190614c939190614c96565b50565b5b80821115614cad575f815f905550600101614c97565b5090565b5f604051905090565b5f5ffd5b5f5ffd5b5f819050919050565b614cd481614cc2565b8114614cde575f5ffd5b50565b5f81359050614cef81614ccb565b92915050565b5f60208284031215614d0a57614d09614cba565b5b5f614d1784828501614ce1565b91505092915050565b7f4e487b71000000000000000000000000000000000000000000000000000000005f52602160045260245ffd5b60088110614d5e57614d5d614d20565b5b50565b5f819050614d6e82614d4d565b919050565b5f614d7d82614d61565b9050919050565b614d8d81614d73565b82525050565b5f73ffffffffffffffffffffffffffffffffffffffff82169050919050565b5f614dbc82614d93565b9050919050565b614dcc81614db2565b82525050565b614ddb81614cc2565b82525050565b5f81519050919050565b5f82825260208201905092915050565b8281835e5f83830152505050565b5f601f19601f8301169050919050565b5f614e2382614de1565b614e2d8185614deb565b9350614e3d818560208601614dfb565b614e4681614e09565b840191505092915050565b5f8115159050919050565b614e6581614e51565b82525050565b5f61010082019050614e7f5f83018b614d84565b614e8c602083018a614dc3565b614e996040830189614dd2565b614ea66060830188614dd2565b614eb36080830187614dc3565b614ec060a0830186614dd2565b81810360c0830152614ed28185614e19565b9050614ee160e0830184614e5c565b9998505050505050505050565b5f5ffd5b7f4e487b71000000000000000000000000000000000000000000000000000000005f52604160045260245ffd5b614f2882614e09565b810181811067ffffffffffffffff82111715614f4757614f46614ef2565b5b80604052505050565b5f614f59614cb1565b9050614f658282614f1f565b919050565b5f67ffffffffffffffff821115614f8457614f83614ef2565b5b602082029050602081019050919050565b5f5ffd5b614fa281614db2565b8114614fac575f5ffd5b50565b5f81359050614fbd81614f99565b92915050565b5f614fd5614fd084614f6a565b614f50565b90508083825260208201905060208402830185811115614ff857614ff7614f95565b5b835b81811015615021578061500d8882614faf565b845260208401935050602081019050614ffa565b5050509392505050565b5f82601f83011261503f5761503e614eee565b5b813561504f848260208601614fc3565b91505092915050565b5f6020828403121561506d5761506c614cba565b5b5f82013567ffffffffffffffff81111561508a57615089614cbe565b5b6150968482850161502b565b91505092915050565b5f6020820190508181035f8301526150b78184614e19565b905092915050565b5f6020820190506150d25f830184614dd2565b92915050565b5f5f604083850312156150ee576150ed614cba565b5b5f6150fb85828601614faf565b925050602061510c85828601614ce1565b9150509250929050565b5f6020820190506151295f830184614e5c565b92915050565b6008811061513b575f5ffd5b50565b5f8135905061514c8161512f565b92915050565b5f5ffd5b5f67ffffffffffffffff8211156151705761516f614ef2565b5b61517982614e09565b9050602081019050919050565b828183375f83830152505050565b5f6151a66151a184615156565b614f50565b9050828152602081018484840111156151c2576151c1615152565b5b6151cd848285615186565b509392505050565b5f82601f8301126151e9576151e8614eee565b5b81356151f9848260208601615194565b91505092915050565b5f5f5f5f5f5f60c0878903121561521c5761521b614cba565b5b5f61522989828a0161513e565b965050602061523a89828a01614faf565b955050604061524b89828a01614ce1565b945050606087013567ffffffffffffffff81111561526c5761526b614cbe565b5b61527889828a016151d5565b935050608087013567ffffffffffffffff81111561529957615298614cbe565b5b6152a589828a0161502b565b92505060a087013567ffffffffffffffff8111156152c6576152c5614cbe565b5b6152d289828a0161502b565b9150509295509295509295565b5f5f604083850312156152f5576152f4614cba565b5b5f61530285828601614ce1565b925050602061531385828601614faf565b9150509250929050565b5f6020828403121561533257615331614cba565b5b5f61533f84828501614faf565b91505092915050565b5f60208201905061535b5f830184614dc3565b92915050565b5f5f5f6060848603121561537857615377614cba565b5b5f61538586828701614faf565b935050602061539686828701614faf565b92505060406153a786828701614ce1565b9150509250925092565b5f60ff82169050919050565b6153c6816153b1565b82525050565b5f6020820190506153df5f8301846153bd565b92915050565b5f81519050919050565b5f82825260208201905092915050565b5f819050602082019050919050565b61541781614cc2565b82525050565b5f615428838361540e565b60208301905092915050565b5f602082019050919050565b5f61544a826153e5565b61545481856153ef565b935061545f836153ff565b805f5b8381101561548f578151615476888261541d565b975061548183615434565b925050600181019050615462565b5085935050505092915050565b5f6020820190508181035f8301526154b48184615440565b905092915050565b5f5f604083850312156154d2576154d1614cba565b5b5f6154df85828601614faf565b92505060206154f085828601614faf565b9150509250929050565b7f436f6e74726163742070617573656400000000000000000000000000000000005f82015250565b5f61552e600f83614deb565b9150615539826154fa565b602082019050919050565b5f6020820190508181035f83015261555b81615522565b9050919050565b7f4e6f74206120766f7465720000000000000000000000000000000000000000005f82015250565b5f615596600b83614deb565b91506155a182615562565b602082019050919050565b5f6020820190508181035f8301526155c38161558a565b9050919050565b7f4e6f206163746976652070726f706f73616c00000000000000000000000000005f82015250565b5f6155fe601283614deb565b9150615609826155ca565b602082019050919050565b5f6020820190508181035f83015261562b816155f2565b9050919050565b7f416c726561647920766f746564000000000000000000000000000000000000005f82015250565b5f615666600d83614deb565b915061567182615632565b602082019050919050565b5f6020820190508181035f8301526156938161565a565b9050919050565b7f566f74696e6720706175736564000000000000000000000000000000000000005f82015250565b5f6156ce600d83614deb565b91506156d98261569a565b602082019050919050565b5f6020820190508181035f8301526156fb816156c2565b9050919050565b7f4e487b71000000000000000000000000000000000000000000000000000000005f52601160045260245ffd5b5f61573982614cc2565b91507fffffffffffffffffffffffffffffffffffffffffffffffffffffffffffffffff820361576b5761576a615702565b5b600182019050919050565b7f566f746520636f756e742065786365656473206c696d697400000000000000005f82015250565b5f6157aa601883614deb565b91506157b582615776565b602082019050919050565b5f6020820190508181035f8301526157d78161579e565b9050919050565b7f4e487b71000000000000000000000000000000000000000000000000000000005f52602260045260245ffd5b5f600282049050600182168061582257607f821691505b602082108103615835576158346157de565b5b50919050565b5f81519050919050565b5f81905092915050565b5f819050602082019050919050565b61586781614db2565b82525050565b5f615878838361585e565b60208301905092915050565b5f602082019050919050565b5f61589a8261583b565b6158a48185615845565b93506158af8361584f565b805f5b838110156158df5781516158c6888261586d565b97506158d183615884565b9250506001810190506158b2565b5085935050505092915050565b5f6158f78284615890565b915081905092915050565b5f6040820190506159155f830185614dd2565b6159226020830184614e5c565b9392505050565b7f456d707479206e616d65000000000000000000000000000000000000000000005f82015250565b5f61595d600a83614deb565b915061596882615929565b602082019050919050565b5f6020820190508181035f83015261598a81615951565b9050919050565b7f496e76616c69642076616c7565000000000000000000000000000000000000005f82015250565b5f6159c5600d83614deb565b91506159d082615991565b602082019050919050565b5f6020820190508181035f8301526159f2816159b9565b9050919050565b5f819050919050565b5f615a0c826159f9565b9150615a17836159f9565b92508282019050828112155f8312168382125f841215161715615a3d57615a3c615702565b5b92915050565b7f537570706c792062656c6f77206d696e746564000000000000000000000000005f82015250565b5f615a77601383614deb565b9150615a8282615a43565b602082019050919050565b5f6020820190508181035f830152615aa481615a6b565b9050919050565b7f4e6567617469766520737570706c7900000000000000000000000000000000005f82015250565b5f615adf600f83614deb565b9150615aea82615aab565b602082019050919050565b5f6020820190508181035f830152615b0c81615ad3565b9050919050565b7f496e76616c696420766f746572206172726179730000000000000000000000005f82015250565b5f615b47601483614deb565b9150615b5282615b13565b602082019050919050565b5f6020820190508181035f830152615b7481615b3b565b9050919050565b7f4e487b71000000000000000000000000000000000000000000000000000000005f52603260045260245ffd5b7f496e76616c6964206f6c6420766f7465720000000000000000000000000000005f82015250565b5f615bdc601183614deb565b9150615be782615ba8565b602082019050919050565b5f6020820190508181035f830152615c0981615bd0565b9050919050565b7f496e76616c6964206e657720766f7465720000000000000000000000000000005f82015250565b5f615c44601183614deb565b9150615c4f82615c10565b602082019050919050565b5f6020820190508181035f830152615c7181615c38565b9050919050565b5f615c8282614cc2565b9150615c8d83614cc2565b9250828201905080821115615ca557615ca4615702565b5b92915050565b7f4475706c6963617465206e657720766f746572000000000000000000000000005f82015250565b5f615cdf601383614deb565b9150615cea82615cab565b602082019050919050565b5f6020820190508181035f830152615d0c81615cd3565b9050919050565b7f496e76616c6964206f722077686974656c6973746564207461726765740000005f82015250565b5f615d47601d83614deb565b9150615d5282615d13565b602082019050919050565b5f6020820190508181035f830152615d7481615d3b565b9050919050565b7f546172676574206e6f742077686974656c6973746564000000000000000000005f82015250565b5f615daf601683614deb565b9150615dba82615d7b565b602082019050919050565b5f6020820190508181035f830152615ddc81615da3565b9050919050565b7f496e76616c6964206f722066726f7a656e2074617267657400000000000000005f82015250565b5f615e17601883614deb565b9150615e2282615de3565b602082019050919050565b5f6020820190508181035f830152615e4481615e0b565b9050919050565b7f546172676574206e6f742066726f7a656e0000000000000000000000000000005f82015250565b5f615e7f601183614deb565b9150615e8a82615e4b565b602082019050919050565b5f6020820190508181035f830152615eac81615e73565b9050919050565b7f496e76616c696420726563697069656e740000000000000000000000000000005f82015250565b5f615ee7601183614deb565b9150615ef282615eb3565b602082019050919050565b5f6020820190508181035f830152615f1481615edb565b9050919050565b7f496e76616c6964206d696e7420616d6f756e74000000000000000000000000005f82015250565b5f615f4f601383614deb565b9150615f5a82615f1b565b602082019050919050565b5f6020820190508181035f830152615f7c81615f43565b9050919050565b5f819050815f5260205f209050919050565b5f6020601f8301049050919050565b5f82821b905092915050565b5f60088302615fdf7fffffffffffffffffffffffffffffffffffffffffffffffffffffffffffffffff82615fa4565b615fe98683615fa4565b95508019841693508086168417925050509392505050565b5f819050919050565b5f61602461601f61601a84614cc2565b616001565b614cc2565b9050919050565b5f819050919050565b61603d8361600a565b6160516160498261602b565b848454615fb0565b825550505050565b5f5f905090565b616068616059565b616073818484616034565b505050565b5b818110156160965761608b5f82616060565b600181019050616079565b5050565b601f8211156160db576160ac81615f83565b6160b584615f95565b810160208510156160c4578190505b6160d86160d085615f95565b830182616078565b50505b505050565b5f82821c905092915050565b5f6160fb5f19846008026160e0565b1980831691505092915050565b5f61611383836160ec565b9150826002028217905092915050565b61612c82614de1565b67ffffffffffffffff81111561614557616144614ef2565b5b61614f825461580b565b61615a82828561609a565b5f60209050601f83116001811461618b575f8415616179578287015190505b6161838582616108565b8655506161ea565b601f19841661619986615f83565b5f5b828110156161c05784890151825560018201915060208501945060208101905061619b565b868310156161dd57848901516161d9601f8916826160ec565b8355505b6001600288020188555050505b505050505050565b5f6040820190506162055f830185614d84565b6162126020830184614dc3565b9392505050565b5f81546162258161580b565b61622f8186614deb565b9450600182165f8114616249576001811461625f57616291565b60ff198316865281151560200286019350616291565b61626885615f83565b5f5b838110156162895781548189015260018201915060208101905061626a565b808801955050505b50505092915050565b5f6020820190508181035f8301526162b28184616219565b905092915050565b5f81549050919050565b5f82825260208201905092915050565b5f819050815f5260205f209050919050565b6162ef81614db2565b82525050565b5f61630083836162e6565b60208301905092915050565b5f815f1c9050919050565b5f73ffffffffffffffffffffffffffffffffffffffff82169050919050565b5f6163486163438361630c565b616317565b9050919050565b5f61635a8254616336565b9050919050565b5f600182019050919050565b5f616377826162ba565b61638181856162c4565b935061638c836162d4565b805f5b838110156163c3576163a08261634f565b6163aa88826162f5565b97506163b583616361565b92505060018101905061638f565b5085935050505092915050565b5f6040820190508181035f8301526163e8818561636d565b905081810360208301526163fc818461636d565b90509392505050565b7f57686974656c69737400000000000000000000000000000000000000000000005f82015250565b5f616439600983614deb565b915061644482616405565b602082019050919050565b5f6040820190508181035f8301526164668161642d565b90506164756020830184614e5c565b92915050565b7f467265657a6500000000000000000000000000000000000000000000000000005f82015250565b5f6164af600683614deb565b91506164ba8261647b565b602082019050919050565b5f6040820190508181035f8301526164dc816164a3565b90506164eb6020830184614e5c565b92915050565b5f6040820190506165045f830185614dc3565b6165116020830184614dd2565b9392505050565b5f60208201905061652b5f830184614d84565b92915050565b7f496e76616c696420696e70757420616d6f756e740000000000000000000000005f82015250565b5f616565601483614deb565b915061657082616531565b602082019050919050565b5f6020820190508181035f83015261659281616559565b9050919050565b5f6165a382614cc2565b91506165ae83614cc2565b92508282026165bc81614cc2565b915082820484148315176165d3576165d2615702565b5b5092915050565b7f416d6f756e7420746f6f20736d616c6c000000000000000000000000000000005f82015250565b5f61660e601083614deb565b9150616619826165da565b602082019050919050565b5f6020820190508181035f83015261663b81616602565b9050919050565b7f4578636565647320746f74616c20737570706c790000000000000000000000005f82015250565b5f616676601483614deb565b915061668182616642565b602082019050919050565b5f6020820190508181035f8301526166a38161666a565b9050919050565b5f6040820190506166bd5f830185614dd2565b6166ca6020830184614dd2565b9392505050565b7f53656e6465722066726f7a656e000000000000000000000000000000000000005f82015250565b5f616705600d83614deb565b9150616710826166d1565b602082019050919050565b5f6020820190508181035f830152616732816166f9565b9050919050565b7f496e76616c696420616d6f756e740000000000000000000000000000000000005f82015250565b5f61676d600e83614deb565b915061677882616739565b602082019050919050565b5f6020820190508181035f83015261679a81616761565b9050919050565b7f496e74657276616c206e6f7420726561636865640000000000000000000000005f82015250565b5f6167d5601483614deb565b91506167e0826167a1565b602082019050919050565b5f6020820190508181035f830152616802816167c9565b9050919050565b5f61681382614cc2565b915061681e83614cc2565b925082820390508181111561683657616835615702565b5b92915050565b7f4175746f206261746368206d696e7420696e74657276616c206e6f74207265615f8201527f6368656400000000000000000000000000000000000000000000000000000000602082015250565b5f616896602483614deb565b91506168a18261683c565b604082019050919050565b5f6020820190508181035f8301526168c38161688a565b9050919050565b7f4e6f7420696e69746961746f72000000000000000000000000000000000000005f82015250565b5f6168fe600d83614deb565b9150616909826168ca565b602082019050919050565b5f6020820190508181035f83015261692b816168f2565b9050919050565b7f496e76616c69642070726f706f73616c207479706500000000000000000000005f82015250565b5f616966601583614deb565b915061697182616932565b602082019050919050565b5f6020820190508181035f8301526169938161695a565b9050919050565b7f43616e63656c6c6174696f6e2077696e646f7720636c6f7365640000000000005f82015250565b5f6169ce601a83614deb565b91506169d98261699a565b602082019050919050565b5f6020820190508181035f8301526169fb816169c2565b9050919050565b7f5265656e7472616e637947756172643a207265656e7472616e742063616c6c005f82015250565b5f616a36601f83614deb565b9150616a4182616a02565b602082019050919050565b5f6020820190508181035f830152616a6381616a2a565b9050919050565b7f57686974656c6973742061646472657373657320617272617920656d707479005f82015250565b5f616a9e601f83614deb565b9150616aa982616a6a565b602082019050919050565b5f6020820190508181035f830152616acb81616a92565b9050919050565b7f496e76616c696420726563697069656e742061646472657373000000000000005f82015250565b5f616b06601983614deb565b9150616b1182616ad2565b602082019050919050565b5f6020820190508181035f830152616b3381616afa565b9050919050565b7f526563697069656e74206e6f7420696e2077686974656c6973740000000000005f82015250565b5f616b6e601a83614deb565b9150616b7982616b3a565b602082019050919050565b5f6020820190508181035f830152616b9b81616b62565b9050919050565b7f50726f706f73616c206e6f7420726561647900000000000000000000000000005f82015250565b5f616bd6601283614deb565b9150616be182616ba2565b602082019050919050565b5f6020820190508181035f830152616c0381616bca565b9050919050565b7f496e73756666696369656e7420766f74657300000000000000000000000000005f82015250565b5f616c3e601283614deb565b9150616c4982616c0a565b602082019050919050565b5f6020820190508181035f830152616c6b81616c32565b9050919050565b5f606082019050616c855f830186614dc3565b616c926020830185614dd2565b616c9f6040830184614dd2565b94935050505056fea264697066735822122040d0df10e3e1cabf929be569959f84752bb0efc72ae4b823be058d4b82c3e50a64736f6c634300081e0033",
			"opcodes": "PUSH1 0x80 PUSH1 0x40 MSTORE PUSH10 0x69E10DE76676D0800000 PUSH1 0x7 SSTORE CALLVALUE DUP1 ISZERO PUSH2 0x1D JUMPI PUSH0 PUSH0 REVERT JUMPDEST POP PUSH1 0x40 MLOAD PUSH2 0x7A0D CODESIZE SUB DUP1 PUSH2 0x7A0D DUP4 CODECOPY DUP2 DUP2 ADD PUSH1 0x40 MSTORE DUP2 ADD SWAP1 PUSH2 0x3F SWAP2 SWAP1 PUSH2 0x79B JUMP JUMPDEST CALLER DUP4 PUSH1 0x40 MLOAD DUP1 PUSH1 0x40 ADD PUSH1 0x40 MSTORE DUP1 PUSH1 0x2 DUP2 MSTORE PUSH1 0x20 ADD PUSH32 0x4343000000000000000000000000000000000000000000000000000000000000 DUP2 MSTORE POP DUP2 PUSH1 0x3 SWAP1 DUP2 PUSH2 0x86 SWAP2 SWAP1 PUSH2 0xA4F JUMP JUMPDEST POP DUP1 PUSH1 0x4 SWAP1 DUP2 PUSH2 0x96 SWAP2 SWAP1 PUSH2 0xA4F JUMP JUMPDEST POP POP POP PUSH0 PUSH20 0xFFFFFFFFFFFFFFFFFFFFFFFFFFFFFFFFFFFFFFFF AND DUP2 PUSH20 0xFFFFFFFFFFFFFFFFFFFFFFFFFFFFFFFFFFFFFFFF AND SUB PUSH2 0x109 JUMPI PUSH0 PUSH1 0x40 MLOAD PUSH32 0x1E4FBDF700000000000000000000000000000000000000000000000000000000 DUP2 MSTORE PUSH1 0x4 ADD PUSH2 0x100 SWAP2 SWAP1 PUSH2 0xB2D JUMP JUMPDEST PUSH1 0x40 MLOAD DUP1 SWAP2 SUB SWAP1 REVERT JUMPDEST PUSH2 0x118 DUP2 PUSH2 0x46D PUSH1 0x20 SHL PUSH1 0x20 SHR JUMP JUMPDEST POP PUSH1 0x1 PUSH1 0x6 DUP2 SWAP1 SSTORE POP PUSH0 DUP3 MLOAD GT PUSH2 0x164 JUMPI PUSH1 0x40 MLOAD PUSH32 0x8C379A000000000000000000000000000000000000000000000000000000000 DUP2 MSTORE PUSH1 0x4 ADD PUSH2 0x15B SWAP1 PUSH2 0xBA0 JUMP JUMPDEST PUSH1 0x40 MLOAD DUP1 SWAP2 SUB SWAP1 REVERT JUMPDEST PUSH0 DUP2 MLOAD GT PUSH2 0x1A7 JUMPI PUSH1 0x40 MLOAD PUSH32 0x8C379A000000000000000000000000000000000000000000000000000000000 DUP2 MSTORE PUSH1 0x4 ADD PUSH2 0x19E SWAP1 PUSH2 0xC08 JUMP JUMPDEST PUSH1 0x40 MLOAD DUP1 SWAP2 SUB SWAP1 REVERT JUMPDEST PUSH0 PUSH0 SWAP1 POP JUMPDEST DUP3 MLOAD DUP2 LT ISZERO PUSH2 0x2B9 JUMPI PUSH0 PUSH20 0xFFFFFFFFFFFFFFFFFFFFFFFFFFFFFFFFFFFFFFFF AND DUP4 DUP3 DUP2 MLOAD DUP2 LT PUSH2 0x1DF JUMPI PUSH2 0x1DE PUSH2 0xC26 JUMP JUMPDEST JUMPDEST PUSH1 0x20 MUL PUSH1 0x20 ADD ADD MLOAD PUSH20 0xFFFFFFFFFFFFFFFFFFFFFFFFFFFFFFFFFFFFFFFF AND SUB PUSH2 0x23D JUMPI PUSH1 0x40 MLOAD PUSH32 0x8C379A000000000000000000000000000000000000000000000000000000000 DUP2 MSTORE PUSH1 0x4 ADD PUSH2 0x234 SWAP1 PUSH2 0xC9D JUMP JUMPDEST PUSH1 0x40 MLOAD DUP1 SWAP2 SUB SWAP1 REVERT JUMPDEST PUSH1 0x1 PUSH1 0x8 PUSH0 DUP6 DUP5 DUP2 MLOAD DUP2 LT PUSH2 0x255 JUMPI PUSH2 0x254 PUSH2 0xC26 JUMP JUMPDEST JUMPDEST PUSH1 0x20 MUL PUSH1 0x20 ADD ADD MLOAD PUSH20 0xFFFFFFFFFFFFFFFFFFFFFFFFFFFFFFFFFFFFFFFF AND PUSH20 0xFFFFFFFFFFFFFFFFFFFFFFFFFFFFFFFFFFFFFFFF AND DUP2 MSTORE PUSH1 0x20 ADD SWAP1 DUP2 MSTORE PUSH1 0x20 ADD PUSH0 KECCAK256 PUSH0 PUSH2 0x100 EXP DUP2 SLOAD DUP2 PUSH1 0xFF MUL NOT AND SWAP1 DUP4 ISZERO ISZERO MUL OR SWAP1 SSTORE POP DUP1 DUP1 PUSH1 0x1 ADD SWAP2 POP POP PUSH2 0x1AC JUMP JUMPDEST POP PUSH0 PUSH0 SWAP1 POP JUMPDEST DUP2 MLOAD DUP2 LT ISZERO PUSH2 0x446 JUMPI PUSH0 PUSH20 0xFFFFFFFFFFFFFFFFFFFFFFFFFFFFFFFFFFFFFFFF AND DUP3 DUP3 DUP2 MLOAD DUP2 LT PUSH2 0x2F2 JUMPI PUSH2 0x2F1 PUSH2 0xC26 JUMP JUMPDEST JUMPDEST PUSH1 0x20 MUL PUSH1 0x20 ADD ADD MLOAD PUSH20 0xFFFFFFFFFFFFFFFFFFFFFFFFFFFFFFFFFFFFFFFF AND SUB PUSH2 0x350 JUMPI PUSH1 0x40 MLOAD PUSH32 0x8C379A000000000000000000000000000000000000000000000000000000000 DUP2 MSTORE PUSH1 0x4 ADD PUSH2 0x347 SWAP1 PUSH2 0xD05 JUMP JUMPDEST PUSH1 0x40 MLOAD DUP1 SWAP2 SUB SWAP1 REVERT JUMPDEST PUSH1 0x1 PUSH1 0xC PUSH0 DUP5 DUP5 DUP2 MLOAD DUP2 LT PUSH2 0x368 JUMPI PUSH2 0x367 PUSH2 0xC26 JUMP JUMPDEST JUMPDEST PUSH1 0x20 MUL PUSH1 0x20 ADD ADD MLOAD PUSH20 0xFFFFFFFFFFFFFFFFFFFFFFFFFFFFFFFFFFFFFFFF AND PUSH20 0xFFFFFFFFFFFFFFFFFFFFFFFFFFFFFFFFFFFFFFFF AND DUP2 MSTORE PUSH1 0x20 ADD SWAP1 DUP2 MSTORE PUSH1 0x20 ADD PUSH0 KECCAK256 PUSH0 PUSH2 0x100 EXP DUP2 SLOAD DUP2 PUSH1 0xFF MUL NOT AND SWAP1 DUP4 ISZERO ISZERO MUL OR SWAP1 SSTORE POP PUSH1 0xE DUP3 DUP3 DUP2 MLOAD DUP2 LT PUSH2 0x3D4 JUMPI PUSH2 0x3D3 PUSH2 0xC26 JUMP JUMPDEST JUMPDEST PUSH1 0x20 MUL PUSH1 0x20 ADD ADD MLOAD SWAP1 DUP1 PUSH1 0x1 DUP2 SLOAD ADD DUP1 DUP3 SSTORE DUP1 SWAP2 POP POP PUSH1 0x1 SWAP1 SUB SWAP1 PUSH0 MSTORE PUSH1 0x20 PUSH0 KECCAK256 ADD PUSH0 SWAP1 SWAP2 SWAP1 SWAP2 SWAP1 SWAP2 PUSH2 0x100 EXP DUP2 SLOAD DUP2 PUSH20 0xFFFFFFFFFFFFFFFFFFFFFFFFFFFFFFFFFFFFFFFF MUL NOT AND SWAP1 DUP4 PUSH20 0xFFFFFFFFFFFFFFFFFFFFFFFFFFFFFFFFFFFFFFFF AND MUL OR SWAP1 SSTORE POP DUP1 DUP1 PUSH1 0x1 ADD SWAP2 POP POP PUSH2 0x2BF JUMP JUMPDEST POP DUP3 PUSH1 0xB SWAP1 DUP2 PUSH2 0x456 SWAP2 SWAP1 PUSH2 0xA4F JUMP JUMPDEST POP TIMESTAMP PUSH1 0x12 DUP2 SWAP1 SSTORE POP TIMESTAMP PUSH1 0x13 DUP2 SWAP1 SSTORE POP POP POP POP PUSH2 0xD23 JUMP JUMPDEST PUSH0 PUSH1 0x5 PUSH0 SWAP1 SLOAD SWAP1 PUSH2 0x100 EXP SWAP1 DIV PUSH20 0xFFFFFFFFFFFFFFFFFFFFFFFFFFFFFFFFFFFFFFFF AND SWAP1 POP DUP2 PUSH1 0x5 PUSH0 PUSH2 0x100 EXP DUP2 SLOAD DUP2 PUSH20 0xFFFFFFFFFFFFFFFFFFFFFFFFFFFFFFFFFFFFFFFF MUL NOT AND SWAP1 DUP4 PUSH20 0xFFFFFFFFFFFFFFFFFFFFFFFFFFFFFFFFFFFFFFFF AND MUL OR SWAP1 SSTORE POP DUP2 PUSH20 0xFFFFFFFFFFFFFFFFFFFFFFFFFFFFFFFFFFFFFFFF AND DUP2 PUSH20 0xFFFFFFFFFFFFFFFFFFFFFFFFFFFFFFFFFFFFFFFF AND PUSH32 0x8BE0079C531659141344CD1FD0A4F28419497F9722A3DAAFE3B4186F6B6457E0 PUSH1 0x40 MLOAD PUSH1 0x40 MLOAD DUP1 SWAP2 SUB SWAP1 LOG3 POP POP JUMP JUMPDEST PUSH0 PUSH1 0x40 MLOAD SWAP1 POP SWAP1 JUMP JUMPDEST PUSH0 PUSH0 REVERT JUMPDEST PUSH0 PUSH0 REVERT JUMPDEST PUSH0 PUSH0 REVERT JUMPDEST PUSH0 PUSH0 REVERT JUMPDEST PUSH0 PUSH1 0x1F NOT PUSH1 0x1F DUP4 ADD AND SWAP1 POP SWAP2 SWAP1 POP JUMP JUMPDEST PUSH32 0x4E487B7100000000000000000000000000000000000000000000000000000000 PUSH0 MSTORE PUSH1 0x41 PUSH1 0x4 MSTORE PUSH1 0x24 PUSH0 REVERT JUMPDEST PUSH2 0x58F DUP3 PUSH2 0x549 JUMP JUMPDEST DUP2 ADD DUP2 DUP2 LT PUSH8 0xFFFFFFFFFFFFFFFF DUP3 GT OR ISZERO PUSH2 0x5AE JUMPI PUSH2 0x5AD PUSH2 0x559 JUMP JUMPDEST JUMPDEST DUP1 PUSH1 0x40 MSTORE POP POP POP JUMP JUMPDEST PUSH0 PUSH2 0x5C0 PUSH2 0x530 JUMP JUMPDEST SWAP1 POP PUSH2 0x5CC DUP3 DUP3 PUSH2 0x586 JUMP JUMPDEST SWAP2 SWAP1 POP JUMP JUMPDEST PUSH0 PUSH8 0xFFFFFFFFFFFFFFFF DUP3 GT ISZERO PUSH2 0x5EB JUMPI PUSH2 0x5EA PUSH2 0x559 JUMP JUMPDEST JUMPDEST PUSH2 0x5F4 DUP3 PUSH2 0x549 JUMP JUMPDEST SWAP1 POP PUSH1 0x20 DUP2 ADD SWAP1 POP SWAP2 SWAP1 POP JUMP JUMPDEST DUP3 DUP2 DUP4 MCOPY PUSH0 DUP4 DUP4 ADD MSTORE POP POP POP JUMP JUMPDEST PUSH0 PUSH2 0x621 PUSH2 0x61C DUP5 PUSH2 0x5D1 JUMP JUMPDEST PUSH2 0x5B7 JUMP JUMPDEST SWAP1 POP DUP3 DUP2 MSTORE PUSH1 0x20 DUP2 ADD DUP5 DUP5 DUP5 ADD GT ISZERO PUSH2 0x63D JUMPI PUSH2 0x63C PUSH2 0x545 JUMP JUMPDEST JUMPDEST PUSH2 0x648 DUP5 DUP3 DUP6 PUSH2 0x601 JUMP JUMPDEST POP SWAP4 SWAP3 POP POP POP JUMP JUMPDEST PUSH0 DUP3 PUSH1 0x1F DUP4 ADD SLT PUSH2 0x664 JUMPI PUSH2 0x663 PUSH2 0x541 JUMP JUMPDEST JUMPDEST DUP2 MLOAD PUSH2 0x674 DUP5 DUP3 PUSH1 0x20 DUP7 ADD PUSH2 0x60F JUMP JUMPDEST SWAP2 POP POP SWAP3 SWAP2 POP POP JUMP JUMPDEST PUSH0 PUSH8 0xFFFFFFFFFFFFFFFF DUP3 GT ISZERO PUSH2 0x697 JUMPI PUSH2 0x696 PUSH2 0x559 JUMP JUMPDEST JUMPDEST PUSH1 0x20 DUP3 MUL SWAP1 POP PUSH1 0x20 DUP2 ADD SWAP1 POP SWAP2 SWAP1 POP JUMP JUMPDEST PUSH0 PUSH0 REVERT JUMPDEST PUSH0 PUSH20 0xFFFFFFFFFFFFFFFFFFFFFFFFFFFFFFFFFFFFFFFF DUP3 AND SWAP1 POP SWAP2 SWAP1 POP JUMP JUMPDEST PUSH0 PUSH2 0x6D5 DUP3 PUSH2 0x6AC JUMP JUMPDEST SWAP1 POP SWAP2 SWAP1 POP JUMP JUMPDEST PUSH2 0x6E5 DUP2 PUSH2 0x6CB JUMP JUMPDEST DUP2 EQ PUSH2 0x6EF JUMPI PUSH0 PUSH0 REVERT JUMPDEST POP JUMP JUMPDEST PUSH0 DUP2 MLOAD SWAP1 POP PUSH2 0x700 DUP2 PUSH2 0x6DC JUMP JUMPDEST SWAP3 SWAP2 POP POP JUMP JUMPDEST PUSH0 PUSH2 0x718 PUSH2 0x713 DUP5 PUSH2 0x67D JUMP JUMPDEST PUSH2 0x5B7 JUMP JUMPDEST SWAP1 POP DUP1 DUP4 DUP3 MSTORE PUSH1 0x20 DUP3 ADD SWAP1 POP PUSH1 0x20 DUP5 MUL DUP4 ADD DUP6 DUP2 GT ISZERO PUSH2 0x73B JUMPI PUSH2 0x73A PUSH2 0x6A8 JUMP JUMPDEST JUMPDEST DUP4 JUMPDEST DUP2 DUP2 LT ISZERO PUSH2 0x764 JUMPI DUP1 PUSH2 0x750 DUP9 DUP3 PUSH2 0x6F2 JUMP JUMPDEST DUP5 MSTORE PUSH1 0x20 DUP5 ADD SWAP4 POP POP PUSH1 0x20 DUP2 ADD SWAP1 POP PUSH2 0x73D JUMP JUMPDEST POP POP POP SWAP4 SWAP3 POP POP POP JUMP JUMPDEST PUSH0 DUP3 PUSH1 0x1F DUP4 ADD SLT PUSH2 0x782 JUMPI PUSH2 0x781 PUSH2 0x541 JUMP JUMPDEST JUMPDEST DUP2 MLOAD PUSH2 0x792 DUP5 DUP3 PUSH1 0x20 DUP7 ADD PUSH2 0x706 JUMP JUMPDEST SWAP2 POP POP SWAP3 SWAP2 POP POP JUMP JUMPDEST PUSH0 PUSH0 PUSH0 PUSH1 0x60 DUP5 DUP7 SUB SLT ISZERO PUSH2 0x7B2 JUMPI PUSH2 0x7B1 PUSH2 0x539 JUMP JUMPDEST JUMPDEST PUSH0 DUP5 ADD MLOAD PUSH8 0xFFFFFFFFFFFFFFFF DUP2 GT ISZERO PUSH2 0x7CF JUMPI PUSH2 0x7CE PUSH2 0x53D JUMP JUMPDEST JUMPDEST PUSH2 0x7DB DUP7 DUP3 DUP8 ADD PUSH2 0x650 JUMP JUMPDEST SWAP4 POP POP PUSH1 0x20 DUP5 ADD MLOAD PUSH8 0xFFFFFFFFFFFFFFFF DUP2 GT ISZERO PUSH2 0x7FC JUMPI PUSH2 0x7FB PUSH2 0x53D JUMP JUMPDEST JUMPDEST PUSH2 0x808 DUP7 DUP3 DUP8 ADD PUSH2 0x76E JUMP JUMPDEST SWAP3 POP POP PUSH1 0x40 DUP5 ADD MLOAD PUSH8 0xFFFFFFFFFFFFFFFF DUP2 GT ISZERO PUSH2 0x829 JUMPI PUSH2 0x828 PUSH2 0x53D JUMP JUMPDEST JUMPDEST PUSH2 0x835 DUP7 DUP3 DUP8 ADD PUSH2 0x76E JUMP JUMPDEST SWAP2 POP POP SWAP3 POP SWAP3 POP SWAP3 JUMP JUMPDEST PUSH0 DUP2 MLOAD SWAP1 POP SWAP2 SWAP1 POP JUMP JUMPDEST PUSH32 0x4E487B7100000000000000000000000000000000000000000000000000000000 PUSH0 MSTORE PUSH1 0x22 PUSH1 0x4 MSTORE PUSH1 0x24 PUSH0 REVERT JUMPDEST PUSH0 PUSH1 0x2 DUP3 DIV SWAP1 POP PUSH1 0x1 DUP3 AND DUP1 PUSH2 0x88D JUMPI PUSH1 0x7F DUP3 AND SWAP2 POP JUMPDEST PUSH1 0x20 DUP3 LT DUP2 SUB PUSH2 0x8A0 JUMPI PUSH2 0x89F PUSH2 0x849 JUMP JUMPDEST JUMPDEST POP SWAP2 SWAP1 POP JUMP JUMPDEST PUSH0 DUP2 SWAP1 POP DUP2 PUSH0 MSTORE PUSH1 0x20 PUSH0 KECCAK256 SWAP1 POP SWAP2 SWAP1 POP JUMP JUMPDEST PUSH0 PUSH1 0x20 PUSH1 0x1F DUP4 ADD DIV SWAP1 POP SWAP2 SWAP1 POP JUMP JUMPDEST PUSH0 DUP3 DUP3 SHL SWAP1 POP SWAP3 SWAP2 POP POP JUMP JUMPDEST PUSH0 PUSH1 0x8 DUP4 MUL PUSH2 0x902 PUSH32 0xFFFFFFFFFFFFFFFFFFFFFFFFFFFFFFFFFFFFFFFFFFFFFFFFFFFFFFFFFFFFFFFF DUP3 PUSH2 0x8C7 JUMP JUMPDEST PUSH2 0x90C DUP7 DUP4 PUSH2 0x8C7 JUMP JUMPDEST SWAP6 POP DUP1 NOT DUP5 AND SWAP4 POP DUP1 DUP7 AND DUP5 OR SWAP3 POP POP POP SWAP4 SWAP3 POP POP POP JUMP JUMPDEST PUSH0 DUP2 SWAP1 POP SWAP2 SWAP1 POP JUMP JUMPDEST PUSH0 DUP2 SWAP1 POP SWAP2 SWAP1 POP JUMP JUMPDEST PUSH0 PUSH2 0x950 PUSH2 0x94B PUSH2 0x946 DUP5 PUSH2 0x924 JUMP JUMPDEST PUSH2 0x92D JUMP JUMPDEST PUSH2 0x924 JUMP JUMPDEST SWAP1 POP SWAP2 SWAP1 POP JUMP JUMPDEST PUSH0 DUP2 SWAP1 POP SWAP2 SWAP1 POP JUMP JUMPDEST PUSH2 0x969 DUP4 PUSH2 0x936 JUMP JUMPDEST PUSH2 0x97D PUSH2 0x975 DUP3 PUSH2 0x957 JUMP JUMPDEST DUP5 DUP5 SLOAD PUSH2 0x8D3 JUMP JUMPDEST DUP3 SSTORE POP POP POP POP JUMP JUMPDEST PUSH0 PUSH0 SWAP1 POP SWAP1 JUMP JUMPDEST PUSH2 0x994 PUSH2 0x985 JUMP JUMPDEST PUSH2 0x99F DUP2 DUP5 DUP5 PUSH2 0x960 JUMP JUMPDEST POP POP POP JUMP JUMPDEST JUMPDEST DUP2 DUP2 LT ISZERO PUSH2 0x9C2 JUMPI PUSH2 0x9B7 PUSH0 DUP3 PUSH2 0x98C JUMP JUMPDEST PUSH1 0x1 DUP2 ADD SWAP1 POP PUSH2 0x9A5 JUMP JUMPDEST POP POP JUMP JUMPDEST PUSH1 0x1F DUP3 GT ISZERO PUSH2 0xA07 JUMPI PUSH2 0x9D8 DUP2 PUSH2 0x8A6 JUMP JUMPDEST PUSH2 0x9E1 DUP5 PUSH2 0x8B8 JUMP JUMPDEST DUP2 ADD PUSH1 0x20 DUP6 LT ISZERO PUSH2 0x9F0 JUMPI DUP2 SWAP1 POP JUMPDEST PUSH2 0xA04 PUSH2 0x9FC DUP6 PUSH2 0x8B8 JUMP JUMPDEST DUP4 ADD DUP3 PUSH2 0x9A4 JUMP JUMPDEST POP POP JUMPDEST POP POP POP JUMP JUMPDEST PUSH0 DUP3 DUP3 SHR SWAP1 POP SWAP3 SWAP2 POP POP JUMP JUMPDEST PUSH0 PUSH2 0xA27 PUSH0 NOT DUP5 PUSH1 0x8 MUL PUSH2 0xA0C JUMP JUMPDEST NOT DUP1 DUP4 AND SWAP2 POP POP SWAP3 SWAP2 POP POP JUMP JUMPDEST PUSH0 PUSH2 0xA3F DUP4 DUP4 PUSH2 0xA18 JUMP JUMPDEST SWAP2 POP DUP3 PUSH1 0x2 MUL DUP3 OR SWAP1 POP SWAP3 SWAP2 POP POP JUMP JUMPDEST PUSH2 0xA58 DUP3 PUSH2 0x83F JUMP JUMPDEST PUSH8 0xFFFFFFFFFFFFFFFF DUP2 GT ISZERO PUSH2 0xA71 JUMPI PUSH2 0xA70 PUSH2 0x559 JUMP JUMPDEST JUMPDEST PUSH2 0xA7B DUP3 SLOAD PUSH2 0x876 JUMP JUMPDEST PUSH2 0xA86 DUP3 DUP3 DUP6 PUSH2 0x9C6 JUMP JUMPDEST PUSH0 PUSH1 0x20 SWAP1 POP PUSH1 0x1F DUP4 GT PUSH1 0x1 DUP2 EQ PUSH2 0xAB7 JUMPI PUSH0 DUP5 ISZERO PUSH2 0xAA5 JUMPI DUP3 DUP8 ADD MLOAD SWAP1 POP JUMPDEST PUSH2 0xAAF DUP6 DUP3 PUSH2 0xA34 JUMP JUMPDEST DUP7 SSTORE POP PUSH2 0xB16 JUMP JUMPDEST PUSH1 0x1F NOT DUP5 AND PUSH2 0xAC5 DUP7 PUSH2 0x8A6 JUMP JUMPDEST PUSH0 JUMPDEST DUP3 DUP2 LT ISZERO PUSH2 0xAEC JUMPI DUP5 DUP10 ADD MLOAD DUP3 SSTORE PUSH1 0x1 DUP3 ADD SWAP2 POP PUSH1 0x20 DUP6 ADD SWAP5 POP PUSH1 0x20 DUP2 ADD SWAP1 POP PUSH2 0xAC7 JUMP JUMPDEST DUP7 DUP4 LT ISZERO PUSH2 0xB09 JUMPI DUP5 DUP10 ADD MLOAD PUSH2 0xB05 PUSH1 0x1F DUP10 AND DUP3 PUSH2 0xA18 JUMP JUMPDEST DUP4 SSTORE POP JUMPDEST PUSH1 0x1 PUSH1 0x2 DUP9 MUL ADD DUP9 SSTORE POP POP POP JUMPDEST POP POP POP POP POP POP JUMP JUMPDEST PUSH2 0xB27 DUP2 PUSH2 0x6CB JUMP JUMPDEST DUP3 MSTORE POP POP JUMP JUMPDEST PUSH0 PUSH1 0x20 DUP3 ADD SWAP1 POP PUSH2 0xB40 PUSH0 DUP4 ADD DUP5 PUSH2 0xB1E JUMP JUMPDEST SWAP3 SWAP2 POP POP JUMP JUMPDEST PUSH0 DUP3 DUP3 MSTORE PUSH1 0x20 DUP3 ADD SWAP1 POP SWAP3 SWAP2 POP POP JUMP JUMPDEST PUSH32 0x456D7074792077686974656C6973740000000000000000000000000000000000 PUSH0 DUP3 ADD MSTORE POP JUMP JUMPDEST PUSH0 PUSH2 0xB8A PUSH1 0xF DUP4 PUSH2 0xB46 JUMP JUMPDEST SWAP2 POP PUSH2 0xB95 DUP3 PUSH2 0xB56 JUMP JUMPDEST PUSH1 0x20 DUP3 ADD SWAP1 POP SWAP2 SWAP1 POP JUMP JUMPDEST PUSH0 PUSH1 0x20 DUP3 ADD SWAP1 POP DUP2 DUP2 SUB PUSH0 DUP4 ADD MSTORE PUSH2 0xBB7 DUP2 PUSH2 0xB7E JUMP JUMPDEST SWAP1 POP SWAP2 SWAP1 POP JUMP JUMPDEST PUSH32 0x456D70747920766F746572730000000000000000000000000000000000000000 PUSH0 DUP3 ADD MSTORE POP JUMP JUMPDEST PUSH0 PUSH2 0xBF2 PUSH1 0xC DUP4 PUSH2 0xB46 JUMP JUMPDEST SWAP2 POP PUSH2 0xBFD DUP3 PUSH2 0xBBE JUMP JUMPDEST PUSH1 0x20 DUP3 ADD SWAP1 POP SWAP2 SWAP1 POP JUMP JUMPDEST PUSH0 PUSH1 0x20 DUP3 ADD SWAP1 POP DUP2 DUP2 SUB PUSH0 DUP4 ADD MSTORE PUSH2 0xC1F DUP2 PUSH2 0xBE6 JUMP JUMPDEST SWAP1 POP SWAP2 SWAP1 POP JUMP JUMPDEST PUSH32 0x4E487B7100000000000000000000000000000000000000000000000000000000 PUSH0 MSTORE PUSH1 0x32 PUSH1 0x4 MSTORE PUSH1 0x24 PUSH0 REVERT JUMPDEST PUSH32 0x496E76616C69642077686974656C697374206164647265737300000000000000 PUSH0 DUP3 ADD MSTORE POP JUMP JUMPDEST PUSH0 PUSH2 0xC87 PUSH1 0x19 DUP4 PUSH2 0xB46 JUMP JUMPDEST SWAP2 POP PUSH2 0xC92 DUP3 PUSH2 0xC53 JUMP JUMPDEST PUSH1 0x20 DUP3 ADD SWAP1 POP SWAP2 SWAP1 POP JUMP JUMPDEST PUSH0 PUSH1 0x20 DUP3 ADD SWAP1 POP DUP2 DUP2 SUB PUSH0 DUP4 ADD MSTORE PUSH2 0xCB4 DUP2 PUSH2 0xC7B JUMP JUMPDEST SWAP1 POP SWAP2 SWAP1 POP JUMP JUMPDEST PUSH32 0x496E76616C696420766F74657220616464726573730000000000000000000000 PUSH0 DUP3 ADD MSTORE POP JUMP JUMPDEST PUSH0 PUSH2 0xCEF PUSH1 0x15 DUP4 PUSH2 0xB46 JUMP JUMPDEST SWAP2 POP PUSH2 0xCFA DUP3 PUSH2 0xCBB JUMP JUMPDEST PUSH1 0x20 DUP3 ADD SWAP1 POP SWAP2 SWAP1 POP JUMP JUMPDEST PUSH0 PUSH1 0x20 DUP3 ADD SWAP1 POP DUP2 DUP2 SUB PUSH0 DUP4 ADD MSTORE PUSH2 0xD1C DUP2 PUSH2 0xCE3 JUMP JUMPDEST SWAP1 POP SWAP2 SWAP1 POP JUMP JUMPDEST PUSH2 0x6CDD DUP1 PUSH2 0xD30 PUSH0 CODECOPY PUSH0 RETURN INVALID PUSH1 0x80 PUSH1 0x40 MSTORE CALLVALUE DUP1 ISZERO PUSH2 0xF JUMPI PUSH0 PUSH0 REVERT JUMPDEST POP PUSH1 0x4 CALLDATASIZE LT PUSH2 0x376 JUMPI PUSH0 CALLDATALOAD PUSH1 0xE0 SHR DUP1 PUSH4 0x715018A6 GT PUSH2 0x1D1 JUMPI DUP1 PUSH4 0xAE66C9EA GT PUSH2 0x102 JUMPI DUP1 PUSH4 0xDD62ED3E GT PUSH2 0xA0 JUMPI DUP1 PUSH4 0xF2FDE38B GT PUSH2 0x7A JUMPI DUP1 PUSH4 0xF2FDE38B EQ PUSH2 0xA23 JUMPI DUP1 PUSH4 0xF36E32CC EQ PUSH2 0xA3F JUMPI DUP1 PUSH4 0xF3CDCD1E EQ PUSH2 0xA5D JUMPI DUP1 PUSH4 0xFF8F164F EQ PUSH2 0xA67 JUMPI PUSH2 0x376 JUMP JUMPDEST DUP1 PUSH4 0xDD62ED3E EQ PUSH2 0x9A7 JUMPI DUP1 PUSH4 0xE0A8F6F5 EQ PUSH2 0x9D7 JUMPI DUP1 PUSH4 0xE5839836 EQ PUSH2 0x9F3 JUMPI PUSH2 0x376 JUMP JUMPDEST DUP1 PUSH4 0xC4BC5DA5 GT PUSH2 0xDC JUMPI DUP1 PUSH4 0xC4BC5DA5 EQ PUSH2 0x933 JUMPI DUP1 PUSH4 0xCB7A11C2 EQ PUSH2 0x93D JUMPI DUP1 PUSH4 0xD0516650 EQ PUSH2 0x959 JUMPI DUP1 PUSH4 0xDA0239A6 EQ PUSH2 0x989 JUMPI PUSH2 0x376 JUMP JUMPDEST DUP1 PUSH4 0xAE66C9EA EQ PUSH2 0x8D9 JUMPI DUP1 PUSH4 0xB5FC35CE EQ PUSH2 0x8F7 JUMPI DUP1 PUSH4 0xC08CC02D EQ PUSH2 0x915 JUMPI PUSH2 0x376 JUMP JUMPDEST DUP1 PUSH4 0x902D55A5 GT PUSH2 0x16F JUMPI DUP1 PUSH4 0xA3EC138D GT PUSH2 0x149 JUMPI DUP1 PUSH4 0xA3EC138D EQ PUSH2 0x83D JUMPI DUP1 PUSH4 0xA9059CBB EQ PUSH2 0x86D JUMPI DUP1 PUSH4 0xABA63705 EQ PUSH2 0x89D JUMPI DUP1 PUSH4 0xACA9F472 EQ PUSH2 0x8BB JUMPI PUSH2 0x376 JUMP JUMPDEST DUP1 PUSH4 0x902D55A5 EQ PUSH2 0x7D1 JUMPI DUP1 PUSH4 0x95D89B41 EQ PUSH2 0x7EF JUMPI DUP1 PUSH4 0x9B19251A EQ PUSH2 0x80D JUMPI PUSH2 0x376 JUMP JUMPDEST DUP1 PUSH4 0x7C224D64 GT PUSH2 0x1AB JUMPI DUP1 PUSH4 0x7C224D64 EQ PUSH2 0x76D JUMPI DUP1 PUSH4 0x80E79A36 EQ PUSH2 0x78B JUMPI DUP1 PUSH4 0x8A67456A EQ PUSH2 0x795 JUMPI DUP1 PUSH4 0x8DA5CB5B EQ PUSH2 0x7B3 JUMPI PUSH2 0x376 JUMP JUMPDEST DUP1 PUSH4 0x715018A6 EQ PUSH2 0x729 JUMPI DUP1 PUSH4 0x72CE73AB EQ PUSH2 0x733 JUMPI DUP1 PUSH4 0x7AFDF93E EQ PUSH2 0x763 JUMPI PUSH2 0x376 JUMP JUMPDEST DUP1 PUSH4 0x20950933 GT PUSH2 0x2AB JUMPI DUP1 PUSH4 0x439766CE GT PUSH2 0x249 JUMPI DUP1 PUSH4 0x5C975ABB GT PUSH2 0x223 JUMPI DUP1 PUSH4 0x5C975ABB EQ PUSH2 0x69F JUMPI DUP1 PUSH4 0x6290865D EQ PUSH2 0x6BD JUMPI DUP1 PUSH4 0x6C02A931 EQ PUSH2 0x6DB JUMPI DUP1 PUSH4 0x70A08231 EQ PUSH2 0x6F9 JUMPI PUSH2 0x376 JUMP JUMPDEST DUP1 PUSH4 0x439766CE EQ PUSH2 0x659 JUMPI DUP1 PUSH4 0x54FD4D50 EQ PUSH2 0x663 JUMPI DUP1 PUSH4 0x5584C4F9 EQ PUSH2 0x681 JUMPI PUSH2 0x376 JUMP JUMPDEST DUP1 PUSH4 0x2DE56555 GT PUSH2 0x285 JUMPI DUP1 PUSH4 0x2DE56555 EQ PUSH2 0x5CF JUMPI DUP1 PUSH4 0x302C464A EQ PUSH2 0x5ED JUMPI DUP1 PUSH4 0x313CE567 EQ PUSH2 0x60B JUMPI DUP1 PUSH4 0x43859632 EQ PUSH2 0x629 JUMPI PUSH2 0x376 JUMP JUMPDEST DUP1 PUSH4 0x20950933 EQ PUSH2 0x563 JUMPI DUP1 PUSH4 0x23B872DD EQ PUSH2 0x581 JUMPI DUP1 PUSH4 0x2D380242 EQ PUSH2 0x5B1 JUMPI PUSH2 0x376 JUMP JUMPDEST DUP1 PUSH4 0xD61B519 GT PUSH2 0x318 JUMPI DUP1 PUSH4 0x134E18F4 GT PUSH2 0x2F2 JUMPI DUP1 PUSH4 0x134E18F4 EQ PUSH2 0x4D9 JUMPI DUP1 PUSH4 0x14A8BD0D EQ PUSH2 0x4F7 JUMPI DUP1 PUSH4 0x158B1A57 EQ PUSH2 0x515 JUMPI DUP1 PUSH4 0x18160DDD EQ PUSH2 0x545 JUMPI PUSH2 0x376 JUMP JUMPDEST DUP1 PUSH4 0xD61B519 EQ PUSH2 0x471 JUMPI DUP1 PUSH4 0xFE2ABCF EQ PUSH2 0x48D JUMPI DUP1 PUSH4 0x12CAE7AF EQ PUSH2 0x4A9 JUMPI PUSH2 0x376 JUMP JUMPDEST DUP1 PUSH4 0x6FDDE03 GT PUSH2 0x354 JUMPI DUP1 PUSH4 0x6FDDE03 EQ PUSH2 0x3E9 JUMPI DUP1 PUSH4 0x8B26B75 EQ PUSH2 0x407 JUMPI DUP1 PUSH4 0x95EA7B3 EQ PUSH2 0x425 JUMPI DUP1 PUSH4 0xD4EFA4F EQ PUSH2 0x455 JUMPI PUSH2 0x376 JUMP JUMPDEST DUP1 PUSH4 0x121B93F EQ PUSH2 0x37A JUMPI DUP1 PUSH4 0x13CF08B EQ PUSH2 0x396 JUMPI DUP1 PUSH4 0x51069E3 EQ PUSH2 0x3CD JUMPI JUMPDEST PUSH0 PUSH0 REVERT JUMPDEST PUSH2 0x394 PUSH1 0x4 DUP1 CALLDATASIZE SUB DUP2 ADD SWAP1 PUSH2 0x38F SWAP2 SWAP1 PUSH2 0x4CF5 JUMP JUMPDEST PUSH2 0xA85 JUMP JUMPDEST STOP JUMPDEST PUSH2 0x3B0 PUSH1 0x4 DUP1 CALLDATASIZE SUB DUP2 ADD SWAP1 PUSH2 0x3AB SWAP2 SWAP1 PUSH2 0x4CF5 JUMP JUMPDEST PUSH2 0xE82 JUMP JUMPDEST PUSH1 0x40 MLOAD PUSH2 0x3C4 SWAP9 SWAP8 SWAP7 SWAP6 SWAP5 SWAP4 SWAP3 SWAP2 SWAP1 PUSH2 0x4E6B JUMP JUMPDEST PUSH1 0x40 MLOAD DUP1 SWAP2 SUB SWAP1 RETURN JUMPDEST PUSH2 0x3E7 PUSH1 0x4 DUP1 CALLDATASIZE SUB DUP2 ADD SWAP1 PUSH2 0x3E2 SWAP2 SWAP1 PUSH2 0x5058 JUMP JUMPDEST PUSH2 0xFA2 JUMP JUMPDEST STOP JUMPDEST PUSH2 0x3F1 PUSH2 0x10F9 JUMP JUMPDEST PUSH1 0x40 MLOAD PUSH2 0x3FE SWAP2 SWAP1 PUSH2 0x509F JUMP JUMPDEST PUSH1 0x40 MLOAD DUP1 SWAP2 SUB SWAP1 RETURN JUMPDEST PUSH2 0x40F PUSH2 0x1189 JUMP JUMPDEST PUSH1 0x40 MLOAD PUSH2 0x41C SWAP2 SWAP1 PUSH2 0x50BF JUMP JUMPDEST PUSH1 0x40 MLOAD DUP1 SWAP2 SUB SWAP1 RETURN JUMPDEST PUSH2 0x43F PUSH1 0x4 DUP1 CALLDATASIZE SUB DUP2 ADD SWAP1 PUSH2 0x43A SWAP2 SWAP1 PUSH2 0x50D8 JUMP JUMPDEST PUSH2 0x118F JUMP JUMPDEST PUSH1 0x40 MLOAD PUSH2 0x44C SWAP2 SWAP1 PUSH2 0x5116 JUMP JUMPDEST PUSH1 0x40 MLOAD DUP1 SWAP2 SUB SWAP1 RETURN JUMPDEST PUSH2 0x46F PUSH1 0x4 DUP1 CALLDATASIZE SUB DUP2 ADD SWAP1 PUSH2 0x46A SWAP2 SWAP1 PUSH2 0x5202 JUMP JUMPDEST PUSH2 0x11B1 JUMP JUMPDEST STOP JUMPDEST PUSH2 0x48B PUSH1 0x4 DUP1 CALLDATASIZE SUB DUP2 ADD SWAP1 PUSH2 0x486 SWAP2 SWAP1 PUSH2 0x4CF5 JUMP JUMPDEST PUSH2 0x1E3D JUMP JUMPDEST STOP JUMPDEST PUSH2 0x4A7 PUSH1 0x4 DUP1 CALLDATASIZE SUB DUP2 ADD SWAP1 PUSH2 0x4A2 SWAP2 SWAP1 PUSH2 0x52DF JUMP JUMPDEST PUSH2 0x2A90 JUMP JUMPDEST STOP JUMPDEST PUSH2 0x4C3 PUSH1 0x4 DUP1 CALLDATASIZE SUB DUP2 ADD SWAP1 PUSH2 0x4BE SWAP2 SWAP1 PUSH2 0x531D JUMP JUMPDEST PUSH2 0x2CED JUMP JUMPDEST PUSH1 0x40 MLOAD PUSH2 0x4D0 SWAP2 SWAP1 PUSH2 0x50BF JUMP JUMPDEST PUSH1 0x40 MLOAD DUP1 SWAP2 SUB SWAP1 RETURN JUMPDEST PUSH2 0x4E1 PUSH2 0x2CFE JUMP JUMPDEST PUSH1 0x40 MLOAD PUSH2 0x4EE SWAP2 SWAP1 PUSH2 0x5348 JUMP JUMPDEST PUSH1 0x40 MLOAD DUP1 SWAP2 SUB SWAP1 RETURN JUMPDEST PUSH2 0x4FF PUSH2 0x2D05 JUMP JUMPDEST PUSH1 0x40 MLOAD PUSH2 0x50C SWAP2 SWAP1 PUSH2 0x50BF JUMP JUMPDEST PUSH1 0x40 MLOAD DUP1 SWAP2 SUB SWAP1 RETURN JUMPDEST PUSH2 0x52F PUSH1 0x4 DUP1 CALLDATASIZE SUB DUP2 ADD SWAP1 PUSH2 0x52A SWAP2 SWAP1 PUSH2 0x531D JUMP JUMPDEST PUSH2 0x2D0A JUMP JUMPDEST PUSH1 0x40 MLOAD PUSH2 0x53C SWAP2 SWAP1 PUSH2 0x50BF JUMP JUMPDEST PUSH1 0x40 MLOAD DUP1 SWAP2 SUB SWAP1 RETURN JUMPDEST PUSH2 0x54D PUSH2 0x2D13 JUMP JUMPDEST PUSH1 0x40 MLOAD PUSH2 0x55A SWAP2 SWAP1 PUSH2 0x50BF JUMP JUMPDEST PUSH1 0x40 MLOAD DUP1 SWAP2 SUB SWAP1 RETURN JUMPDEST PUSH2 0x56B PUSH2 0x2D1C JUMP JUMPDEST PUSH1 0x40 MLOAD PUSH2 0x578 SWAP2 SWAP1 PUSH2 0x50BF JUMP JUMPDEST PUSH1 0x40 MLOAD DUP1 SWAP2 SUB SWAP1 RETURN JUMPDEST PUSH2 0x59B PUSH1 0x4 DUP1 CALLDATASIZE SUB DUP2 ADD SWAP1 PUSH2 0x596 SWAP2 SWAP1 PUSH2 0x5361 JUMP JUMPDEST PUSH2 0x2D22 JUMP JUMPDEST PUSH1 0x40 MLOAD PUSH2 0x5A8 SWAP2 SWAP1 PUSH2 0x5116 JUMP JUMPDEST PUSH1 0x40 MLOAD DUP1 SWAP2 SUB SWAP1 RETURN JUMPDEST PUSH2 0x5B9 PUSH2 0x2E65 JUMP JUMPDEST PUSH1 0x40 MLOAD PUSH2 0x5C6 SWAP2 SWAP1 PUSH2 0x50BF JUMP JUMPDEST PUSH1 0x40 MLOAD DUP1 SWAP2 SUB SWAP1 RETURN JUMPDEST PUSH2 0x5D7 PUSH2 0x2E6B JUMP JUMPDEST PUSH1 0x40 MLOAD PUSH2 0x5E4 SWAP2 SWAP1 PUSH2 0x50BF JUMP JUMPDEST PUSH1 0x40 MLOAD DUP1 SWAP2 SUB SWAP1 RETURN JUMPDEST PUSH2 0x5F5 PUSH2 0x2E70 JUMP JUMPDEST PUSH1 0x40 MLOAD PUSH2 0x602 SWAP2 SWAP1 PUSH2 0x50BF JUMP JUMPDEST PUSH1 0x40 MLOAD DUP1 SWAP2 SUB SWAP1 RETURN JUMPDEST PUSH2 0x613 PUSH2 0x2E75 JUMP JUMPDEST PUSH1 0x40 MLOAD PUSH2 0x620 SWAP2 SWAP1 PUSH2 0x53CC JUMP JUMPDEST PUSH1 0x40 MLOAD DUP1 SWAP2 SUB SWAP1 RETURN JUMPDEST PUSH2 0x643 PUSH1 0x4 DUP1 CALLDATASIZE SUB DUP2 ADD SWAP1 PUSH2 0x63E SWAP2 SWAP1 PUSH2 0x52DF JUMP JUMPDEST PUSH2 0x2E7C JUMP JUMPDEST PUSH1 0x40 MLOAD PUSH2 0x650 SWAP2 SWAP1 PUSH2 0x5116 JUMP JUMPDEST PUSH1 0x40 MLOAD DUP1 SWAP2 SUB SWAP1 RETURN JUMPDEST PUSH2 0x661 PUSH2 0x2EA6 JUMP JUMPDEST STOP JUMPDEST PUSH2 0x66B PUSH2 0x2FC8 JUMP JUMPDEST PUSH1 0x40 MLOAD PUSH2 0x678 SWAP2 SWAP1 PUSH2 0x509F JUMP JUMPDEST PUSH1 0x40 MLOAD DUP1 SWAP2 SUB SWAP1 RETURN JUMPDEST PUSH2 0x689 PUSH2 0x3005 JUMP JUMPDEST PUSH1 0x40 MLOAD PUSH2 0x696 SWAP2 SWAP1 PUSH2 0x549C JUMP JUMPDEST PUSH1 0x40 MLOAD DUP1 SWAP2 SUB SWAP1 RETURN JUMPDEST PUSH2 0x6A7 PUSH2 0x3123 JUMP JUMPDEST PUSH1 0x40 MLOAD PUSH2 0x6B4 SWAP2 SWAP1 PUSH2 0x5116 JUMP JUMPDEST PUSH1 0x40 MLOAD DUP1 SWAP2 SUB SWAP1 RETURN JUMPDEST PUSH2 0x6C5 PUSH2 0x3139 JUMP JUMPDEST PUSH1 0x40 MLOAD PUSH2 0x6D2 SWAP2 SWAP1 PUSH2 0x5348 JUMP JUMPDEST PUSH1 0x40 MLOAD DUP1 SWAP2 SUB SWAP1 RETURN JUMPDEST PUSH2 0x6E3 PUSH2 0x3140 JUMP JUMPDEST PUSH1 0x40 MLOAD PUSH2 0x6F0 SWAP2 SWAP1 PUSH2 0x509F JUMP JUMPDEST PUSH1 0x40 MLOAD DUP1 SWAP2 SUB SWAP1 RETURN JUMPDEST PUSH2 0x713 PUSH1 0x4 DUP1 CALLDATASIZE SUB DUP2 ADD SWAP1 PUSH2 0x70E SWAP2 SWAP1 PUSH2 0x531D JUMP JUMPDEST PUSH2 0x31CC JUMP JUMPDEST PUSH1 0x40 MLOAD PUSH2 0x720 SWAP2 SWAP1 PUSH2 0x50BF JUMP JUMPDEST PUSH1 0x40 MLOAD DUP1 SWAP2 SUB SWAP1 RETURN JUMPDEST PUSH2 0x731 PUSH2 0x3211 JUMP JUMPDEST STOP JUMPDEST PUSH2 0x74D PUSH1 0x4 DUP1 CALLDATASIZE SUB DUP2 ADD SWAP1 PUSH2 0x748 SWAP2 SWAP1 PUSH2 0x4CF5 JUMP JUMPDEST PUSH2 0x3224 JUMP JUMPDEST PUSH1 0x40 MLOAD PUSH2 0x75A SWAP2 SWAP1 PUSH2 0x5348 JUMP JUMPDEST PUSH1 0x40 MLOAD DUP1 SWAP2 SUB SWAP1 RETURN JUMPDEST PUSH2 0x76B PUSH2 0x325F JUMP JUMPDEST STOP JUMPDEST PUSH2 0x775 PUSH2 0x32AE JUMP JUMPDEST PUSH1 0x40 MLOAD PUSH2 0x782 SWAP2 SWAP1 PUSH2 0x50BF JUMP JUMPDEST PUSH1 0x40 MLOAD DUP1 SWAP2 SUB SWAP1 RETURN JUMPDEST PUSH2 0x793 PUSH2 0x32B4 JUMP JUMPDEST STOP JUMPDEST PUSH2 0x79D PUSH2 0x3481 JUMP JUMPDEST PUSH1 0x40 MLOAD PUSH2 0x7AA SWAP2 SWAP1 PUSH2 0x5116 JUMP JUMPDEST PUSH1 0x40 MLOAD DUP1 SWAP2 SUB SWAP1 RETURN JUMPDEST PUSH2 0x7BB PUSH2 0x3494 JUMP JUMPDEST PUSH1 0x40 MLOAD PUSH2 0x7C8 SWAP2 SWAP1 PUSH2 0x5348 JUMP JUMPDEST PUSH1 0x40 MLOAD DUP1 SWAP2 SUB SWAP1 RETURN JUMPDEST PUSH2 0x7D9 PUSH2 0x34BC JUMP JUMPDEST PUSH1 0x40 MLOAD PUSH2 0x7E6 SWAP2 SWAP1 PUSH2 0x50BF JUMP JUMPDEST PUSH1 0x40 MLOAD DUP1 SWAP2 SUB SWAP1 RETURN JUMPDEST PUSH2 0x7F7 PUSH2 0x34C2 JUMP JUMPDEST PUSH1 0x40 MLOAD PUSH2 0x804 SWAP2 SWAP1 PUSH2 0x509F JUMP JUMPDEST PUSH1 0x40 MLOAD DUP1 SWAP2 SUB SWAP1 RETURN JUMPDEST PUSH2 0x827 PUSH1 0x4 DUP1 CALLDATASIZE SUB DUP2 ADD SWAP1 PUSH2 0x822 SWAP2 SWAP1 PUSH2 0x531D JUMP JUMPDEST PUSH2 0x3552 JUMP JUMPDEST PUSH1 0x40 MLOAD PUSH2 0x834 SWAP2 SWAP1 PUSH2 0x5116 JUMP JUMPDEST PUSH1 0x40 MLOAD DUP1 SWAP2 SUB SWAP1 RETURN JUMPDEST PUSH2 0x857 PUSH1 0x4 DUP1 CALLDATASIZE SUB DUP2 ADD SWAP1 PUSH2 0x852 SWAP2 SWAP1 PUSH2 0x531D JUMP JUMPDEST PUSH2 0x356F JUMP JUMPDEST PUSH1 0x40 MLOAD PUSH2 0x864 SWAP2 SWAP1 PUSH2 0x5116 JUMP JUMPDEST PUSH1 0x40 MLOAD DUP1 SWAP2 SUB SWAP1 RETURN JUMPDEST PUSH2 0x887 PUSH1 0x4 DUP1 CALLDATASIZE SUB DUP2 ADD SWAP1 PUSH2 0x882 SWAP2 SWAP1 PUSH2 0x50D8 JUMP JUMPDEST PUSH2 0x358C JUMP JUMPDEST PUSH1 0x40 MLOAD PUSH2 0x894 SWAP2 SWAP1 PUSH2 0x5116 JUMP JUMPDEST PUSH1 0x40 MLOAD DUP1 SWAP2 SUB SWAP1 RETURN JUMPDEST PUSH2 0x8A5 PUSH2 0x36CD JUMP JUMPDEST PUSH1 0x40 MLOAD PUSH2 0x8B2 SWAP2 SWAP1 PUSH2 0x5348 JUMP JUMPDEST PUSH1 0x40 MLOAD DUP1 SWAP2 SUB SWAP1 RETURN JUMPDEST PUSH2 0x8C3 PUSH2 0x36D4 JUMP JUMPDEST PUSH1 0x40 MLOAD PUSH2 0x8D0 SWAP2 SWAP1 PUSH2 0x50BF JUMP JUMPDEST PUSH1 0x40 MLOAD DUP1 SWAP2 SUB SWAP1 RETURN JUMPDEST PUSH2 0x8E1 PUSH2 0x36DA JUMP JUMPDEST PUSH1 0x40 MLOAD PUSH2 0x8EE SWAP2 SWAP1 PUSH2 0x5116 JUMP JUMPDEST PUSH1 0x40 MLOAD DUP1 SWAP2 SUB SWAP1 RETURN JUMPDEST PUSH2 0x8FF PUSH2 0x36EC JUMP JUMPDEST PUSH1 0x40 MLOAD PUSH2 0x90C SWAP2 SWAP1 PUSH2 0x50BF JUMP JUMPDEST PUSH1 0x40 MLOAD DUP1 SWAP2 SUB SWAP1 RETURN JUMPDEST PUSH2 0x91D PUSH2 0x36F9 JUMP JUMPDEST PUSH1 0x40 MLOAD PUSH2 0x92A SWAP2 SWAP1 PUSH2 0x50BF JUMP JUMPDEST PUSH1 0x40 MLOAD DUP1 SWAP2 SUB SWAP1 RETURN JUMPDEST PUSH2 0x93B PUSH2 0x371E JUMP JUMPDEST STOP JUMPDEST PUSH2 0x957 PUSH1 0x4 DUP1 CALLDATASIZE SUB DUP2 ADD SWAP1 PUSH2 0x952 SWAP2 SWAP1 PUSH2 0x5058 JUMP JUMPDEST PUSH2 0x37EF JUMP JUMPDEST STOP JUMPDEST PUSH2 0x973 PUSH1 0x4 DUP1 CALLDATASIZE SUB DUP2 ADD SWAP1 PUSH2 0x96E SWAP2 SWAP1 PUSH2 0x531D JUMP JUMPDEST PUSH2 0x3917 JUMP JUMPDEST PUSH1 0x40 MLOAD PUSH2 0x980 SWAP2 SWAP1 PUSH2 0x5116 JUMP JUMPDEST PUSH1 0x40 MLOAD DUP1 SWAP2 SUB SWAP1 RETURN JUMPDEST PUSH2 0x991 PUSH2 0x3934 JUMP JUMPDEST PUSH1 0x40 MLOAD PUSH2 0x99E SWAP2 SWAP1 PUSH2 0x50BF JUMP JUMPDEST PUSH1 0x40 MLOAD DUP1 SWAP2 SUB SWAP1 RETURN JUMPDEST PUSH2 0x9C1 PUSH1 0x4 DUP1 CALLDATASIZE SUB DUP2 ADD SWAP1 PUSH2 0x9BC SWAP2 SWAP1 PUSH2 0x54BC JUMP JUMPDEST PUSH2 0x394A JUMP JUMPDEST PUSH1 0x40 MLOAD PUSH2 0x9CE SWAP2 SWAP1 PUSH2 0x50BF JUMP JUMPDEST PUSH1 0x40 MLOAD DUP1 SWAP2 SUB SWAP1 RETURN JUMPDEST PUSH2 0x9F1 PUSH1 0x4 DUP1 CALLDATASIZE SUB DUP2 ADD SWAP1 PUSH2 0x9EC SWAP2 SWAP1 PUSH2 0x4CF5 JUMP JUMPDEST PUSH2 0x39CC JUMP JUMPDEST STOP JUMPDEST PUSH2 0xA0D PUSH1 0x4 DUP1 CALLDATASIZE SUB DUP2 ADD SWAP1 PUSH2 0xA08 SWAP2 SWAP1 PUSH2 0x531D JUMP JUMPDEST PUSH2 0x3CEE JUMP JUMPDEST PUSH1 0x40 MLOAD PUSH2 0xA1A SWAP2 SWAP1 PUSH2 0x5116 JUMP JUMPDEST PUSH1 0x40 MLOAD DUP1 SWAP2 SUB SWAP1 RETURN JUMPDEST PUSH2 0xA3D PUSH1 0x4 DUP1 CALLDATASIZE SUB DUP2 ADD SWAP1 PUSH2 0xA38 SWAP2 SWAP1 PUSH2 0x531D JUMP JUMPDEST PUSH2 0x3D40 JUMP JUMPDEST STOP JUMPDEST PUSH2 0xA47 PUSH2 0x3DC4 JUMP JUMPDEST PUSH1 0x40 MLOAD PUSH2 0xA54 SWAP2 SWAP1 PUSH2 0x50BF JUMP JUMPDEST PUSH1 0x40 MLOAD DUP1 SWAP2 SUB SWAP1 RETURN JUMPDEST PUSH2 0xA65 PUSH2 0x3DC9 JUMP JUMPDEST STOP JUMPDEST PUSH2 0xA6F PUSH2 0x3E19 JUMP JUMPDEST PUSH1 0x40 MLOAD PUSH2 0xA7C SWAP2 SWAP1 PUSH2 0x50BF JUMP JUMPDEST PUSH1 0x40 MLOAD DUP1 SWAP2 SUB SWAP1 RETURN JUMPDEST PUSH1 0x11 PUSH1 0x1 SWAP1 SLOAD SWAP1 PUSH2 0x100 EXP SWAP1 DIV PUSH1 0xFF AND ISZERO PUSH2 0xAD5 JUMPI PUSH1 0x40 MLOAD PUSH32 0x8C379A000000000000000000000000000000000000000000000000000000000 DUP2 MSTORE PUSH1 0x4 ADD PUSH2 0xACC SWAP1 PUSH2 0x5544 JUMP JUMPDEST PUSH1 0x40 MLOAD DUP1 SWAP2 SUB SWAP1 REVERT JUMPDEST PUSH1 0xC PUSH0 CALLER PUSH20 0xFFFFFFFFFFFFFFFFFFFFFFFFFFFFFFFFFFFFFFFF AND PUSH20 0xFFFFFFFFFFFFFFFFFFFFFFFFFFFFFFFFFFFFFFFF AND DUP2 MSTORE PUSH1 0x20 ADD SWAP1 DUP2 MSTORE PUSH1 0x20 ADD PUSH0 KECCAK256 PUSH0 SWAP1 SLOAD SWAP1 PUSH2 0x100 EXP SWAP1 DIV PUSH1 0xFF AND PUSH2 0xB5E JUMPI PUSH1 0x40 MLOAD PUSH32 0x8C379A000000000000000000000000000000000000000000000000000000000 DUP2 MSTORE PUSH1 0x4 ADD PUSH2 0xB55 SWAP1 PUSH2 0x55AC JUMP JUMPDEST PUSH1 0x40 MLOAD DUP1 SWAP2 SUB SWAP1 REVERT JUMPDEST PUSH0 PUSH1 0xF PUSH0 DUP4 DUP2 MSTORE PUSH1 0x20 ADD SWAP1 DUP2 MSTORE PUSH1 0x20 ADD PUSH0 KECCAK256 SWAP1 POP DUP1 PUSH1 0x8 ADD PUSH0 SWAP1 SLOAD SWAP1 PUSH2 0x100 EXP SWAP1 DIV PUSH1 0xFF AND PUSH2 0xBC2 JUMPI PUSH1 0x40 MLOAD PUSH32 0x8C379A000000000000000000000000000000000000000000000000000000000 DUP2 MSTORE PUSH1 0x4 ADD PUSH2 0xBB9 SWAP1 PUSH2 0x5614 JUMP JUMPDEST PUSH1 0x40 MLOAD DUP1 SWAP2 SUB SWAP1 REVERT JUMPDEST PUSH1 0xD PUSH0 DUP4 DUP2 MSTORE PUSH1 0x20 ADD SWAP1 DUP2 MSTORE PUSH1 0x20 ADD PUSH0 KECCAK256 PUSH0 CALLER PUSH20 0xFFFFFFFFFFFFFFFFFFFFFFFFFFFFFFFFFFFFFFFF AND PUSH20 0xFFFFFFFFFFFFFFFFFFFFFFFFFFFFFFFFFFFFFFFF AND DUP2 MSTORE PUSH1 0x20 ADD SWAP1 DUP2 MSTORE PUSH1 0x20 ADD PUSH0 KECCAK256 PUSH0 SWAP1 SLOAD SWAP1 PUSH2 0x100 EXP SWAP1 DIV PUSH1 0xFF AND ISZERO PUSH2 0xC5B JUMPI PUSH1 0x40 MLOAD PUSH32 0x8C379A000000000000000000000000000000000000000000000000000000000 DUP2 MSTORE PUSH1 0x4 ADD PUSH2 0xC52 SWAP1 PUSH2 0x567C JUMP JUMPDEST PUSH1 0x40 MLOAD DUP1 SWAP2 SUB SWAP1 REVERT JUMPDEST PUSH1 0x11 PUSH0 SWAP1 SLOAD SWAP1 PUSH2 0x100 EXP SWAP1 DIV PUSH1 0xFF AND ISZERO PUSH2 0xCAA JUMPI PUSH1 0x40 MLOAD PUSH32 0x8C379A000000000000000000000000000000000000000000000000000000000 DUP2 MSTORE PUSH1 0x4 ADD PUSH2 0xCA1 SWAP1 PUSH2 0x56E4 JUMP JUMPDEST PUSH1 0x40 MLOAD DUP1 SWAP2 SUB SWAP1 REVERT JUMPDEST PUSH1 0x1 PUSH1 0xD PUSH0 DUP5 DUP2 MSTORE PUSH1 0x20 ADD SWAP1 DUP2 MSTORE PUSH1 0x20 ADD PUSH0 KECCAK256 PUSH0 CALLER PUSH20 0xFFFFFFFFFFFFFFFFFFFFFFFFFFFFFFFFFFFFFFFF AND PUSH20 0xFFFFFFFFFFFFFFFFFFFFFFFFFFFFFFFFFFFFFFFF AND DUP2 MSTORE PUSH1 0x20 ADD SWAP1 DUP2 MSTORE PUSH1 0x20 ADD PUSH0 KECCAK256 PUSH0 PUSH2 0x100 EXP DUP2 SLOAD DUP2 PUSH1 0xFF MUL NOT AND SWAP1 DUP4 ISZERO ISZERO MUL OR SWAP1 SSTORE POP DUP1 PUSH1 0x1 ADD PUSH0 DUP2 SLOAD DUP1 SWAP3 SWAP2 SWAP1 PUSH2 0xD22 SWAP1 PUSH2 0x572F JUMP JUMPDEST SWAP2 SWAP1 POP SSTORE POP PUSH0 PUSH1 0x7 DUP1 DUP2 GT ISZERO PUSH2 0xD3B JUMPI PUSH2 0xD3A PUSH2 0x4D20 JUMP JUMPDEST JUMPDEST DUP3 PUSH0 ADD PUSH0 SWAP1 SLOAD SWAP1 PUSH2 0x100 EXP SWAP1 DIV PUSH1 0xFF AND PUSH1 0x7 DUP2 GT ISZERO PUSH2 0xD5D JUMPI PUSH2 0xD5C PUSH2 0x4D20 JUMP JUMPDEST JUMPDEST EQ PUSH2 0xDED JUMPI PUSH1 0x3 PUSH1 0x7 DUP2 GT ISZERO PUSH2 0xD76 JUMPI PUSH2 0xD75 PUSH2 0x4D20 JUMP JUMPDEST JUMPDEST DUP3 PUSH0 ADD PUSH0 SWAP1 SLOAD SWAP1 PUSH2 0x100 EXP SWAP1 DIV PUSH1 0xFF AND PUSH1 0x7 DUP2 GT ISZERO PUSH2 0xD98 JUMPI PUSH2 0xD97 PUSH2 0x4D20 JUMP JUMPDEST JUMPDEST LT ISZERO DUP1 ISZERO PUSH2 0xDDA JUMPI POP PUSH1 0x6 PUSH1 0x7 DUP2 GT ISZERO PUSH2 0xDB5 JUMPI PUSH2 0xDB4 PUSH2 0x4D20 JUMP JUMPDEST JUMPDEST DUP3 PUSH0 ADD PUSH0 SWAP1 SLOAD SWAP1 PUSH2 0x100 EXP SWAP1 DIV PUSH1 0xFF AND PUSH1 0x7 DUP2 GT ISZERO PUSH2 0xDD7 JUMPI PUSH2 0xDD6 PUSH2 0x4D20 JUMP JUMPDEST JUMPDEST GT ISZERO JUMPDEST PUSH2 0xDE5 JUMPI PUSH1 0x5 PUSH2 0xDE8 JUMP JUMPDEST PUSH1 0x3 JUMPDEST PUSH2 0xDF0 JUMP JUMPDEST PUSH1 0x2 JUMPDEST SWAP1 POP DUP1 DUP3 PUSH1 0x1 ADD SLOAD GT ISZERO PUSH2 0xE39 JUMPI PUSH1 0x40 MLOAD PUSH32 0x8C379A000000000000000000000000000000000000000000000000000000000 DUP2 MSTORE PUSH1 0x4 ADD PUSH2 0xE30 SWAP1 PUSH2 0x57C0 JUMP JUMPDEST PUSH1 0x40 MLOAD DUP1 SWAP2 SUB SWAP1 REVERT JUMPDEST CALLER PUSH20 0xFFFFFFFFFFFFFFFFFFFFFFFFFFFFFFFFFFFFFFFF AND DUP4 PUSH32 0xF1003B73C437642C0460AEE9CD9628B0B8C447B66E6C7C905531B9C644214A11 PUSH1 0x40 MLOAD PUSH1 0x40 MLOAD DUP1 SWAP2 SUB SWAP1 LOG3 POP POP POP JUMP JUMPDEST PUSH1 0xF PUSH1 0x20 MSTORE DUP1 PUSH0 MSTORE PUSH1 0x40 PUSH0 KECCAK256 PUSH0 SWAP2 POP SWAP1 POP DUP1 PUSH0 ADD PUSH0 SWAP1 SLOAD SWAP1 PUSH2 0x100 EXP SWAP1 DIV PUSH1 0xFF AND SWAP1 DUP1 PUSH0 ADD PUSH1 0x1 SWAP1 SLOAD SWAP1 PUSH2 0x100 EXP SWAP1 DIV PUSH20 0xFFFFFFFFFFFFFFFFFFFFFFFFFFFFFFFFFFFFFFFF AND SWAP1 DUP1 PUSH1 0x1 ADD SLOAD SWAP1 DUP1 PUSH1 0x2 ADD SLOAD SWAP1 DUP1 PUSH1 0x3 ADD PUSH0 SWAP1 SLOAD SWAP1 PUSH2 0x100 EXP SWAP1 DIV PUSH20 0xFFFFFFFFFFFFFFFFFFFFFFFFFFFFFFFFFFFFFFFF AND SWAP1 DUP1 PUSH1 0x4 ADD SLOAD SWAP1 DUP1 PUSH1 0x5 ADD DUP1 SLOAD PUSH2 0xF0F SWAP1 PUSH2 0x580B JUMP JUMPDEST DUP1 PUSH1 0x1F ADD PUSH1 0x20 DUP1 SWAP2 DIV MUL PUSH1 0x20 ADD PUSH1 0x40 MLOAD SWAP1 DUP2 ADD PUSH1 0x40 MSTORE DUP1 SWAP3 SWAP2 SWAP1 DUP2 DUP2 MSTORE PUSH1 0x20 ADD DUP3 DUP1 SLOAD PUSH2 0xF3B SWAP1 PUSH2 0x580B JUMP JUMPDEST DUP1 ISZERO PUSH2 0xF86 JUMPI DUP1 PUSH1 0x1F LT PUSH2 0xF5D JUMPI PUSH2 0x100 DUP1 DUP4 SLOAD DIV MUL DUP4 MSTORE SWAP2 PUSH1 0x20 ADD SWAP2 PUSH2 0xF86 JUMP JUMPDEST DUP3 ADD SWAP2 SWAP1 PUSH0 MSTORE PUSH1 0x20 PUSH0 KECCAK256 SWAP1 JUMPDEST DUP2 SLOAD DUP2 MSTORE SWAP1 PUSH1 0x1 ADD SWAP1 PUSH1 0x20 ADD DUP1 DUP4 GT PUSH2 0xF69 JUMPI DUP3 SWAP1 SUB PUSH1 0x1F AND DUP3 ADD SWAP2 JUMPDEST POP POP POP POP POP SWAP1 DUP1 PUSH1 0x8 ADD PUSH0 SWAP1 SLOAD SWAP1 PUSH2 0x100 EXP SWAP1 DIV PUSH1 0xFF AND SWAP1 POP DUP9 JUMP JUMPDEST PUSH2 0xFAA PUSH2 0x3E25 JUMP JUMPDEST PUSH1 0x11 PUSH1 0x1 SWAP1 SLOAD SWAP1 PUSH2 0x100 EXP SWAP1 DIV PUSH1 0xFF AND ISZERO PUSH2 0xFFA JUMPI PUSH1 0x40 MLOAD PUSH32 0x8C379A000000000000000000000000000000000000000000000000000000000 DUP2 MSTORE PUSH1 0x4 ADD PUSH2 0xFF1 SWAP1 PUSH2 0x5544 JUMP JUMPDEST PUSH1 0x40 MLOAD DUP1 SWAP2 SUB SWAP1 REVERT JUMPDEST PUSH1 0xC PUSH0 CALLER PUSH20 0xFFFFFFFFFFFFFFFFFFFFFFFFFFFFFFFFFFFFFFFF AND PUSH20 0xFFFFFFFFFFFFFFFFFFFFFFFFFFFFFFFFFFFFFFFF AND DUP2 MSTORE PUSH1 0x20 ADD SWAP1 DUP2 MSTORE PUSH1 0x20 ADD PUSH0 KECCAK256 PUSH0 SWAP1 SLOAD SWAP1 PUSH2 0x100 EXP SWAP1 DIV PUSH1 0xFF AND PUSH2 0x1083 JUMPI PUSH1 0x40 MLOAD PUSH32 0x8C379A000000000000000000000000000000000000000000000000000000000 DUP2 MSTORE PUSH1 0x4 ADD PUSH2 0x107A SWAP1 PUSH2 0x55AC JUMP JUMPDEST PUSH1 0x40 MLOAD DUP1 SWAP2 SUB SWAP1 REVERT JUMPDEST PUSH2 0x1096 DUP2 PUSH9 0x56BC75E2D63100000 PUSH2 0x3E74 JUMP JUMPDEST DUP1 PUSH1 0x40 MLOAD PUSH2 0x10A4 SWAP2 SWAP1 PUSH2 0x58EC JUMP JUMPDEST PUSH1 0x40 MLOAD DUP1 SWAP2 SUB SWAP1 KECCAK256 PUSH32 0xC2AEAD9CF0EE95E5F48D316DB6ADCF05801AEC50B3029BF8AFCD0C2FAF73B12D PUSH9 0x56BC75E2D63100000 PUSH0 PUSH1 0x40 MLOAD PUSH2 0x10E6 SWAP3 SWAP2 SWAP1 PUSH2 0x5902 JUMP JUMPDEST PUSH1 0x40 MLOAD DUP1 SWAP2 SUB SWAP1 LOG2 PUSH2 0x10F6 PUSH2 0x4072 JUMP JUMPDEST POP JUMP JUMPDEST PUSH1 0x60 PUSH1 0x3 DUP1 SLOAD PUSH2 0x1108 SWAP1 PUSH2 0x580B JUMP JUMPDEST DUP1 PUSH1 0x1F ADD PUSH1 0x20 DUP1 SWAP2 DIV MUL PUSH1 0x20 ADD PUSH1 0x40 MLOAD SWAP1 DUP2 ADD PUSH1 0x40 MSTORE DUP1 SWAP3 SWAP2 SWAP1 DUP2 DUP2 MSTORE PUSH1 0x20 ADD DUP3 DUP1 SLOAD PUSH2 0x1134 SWAP1 PUSH2 0x580B JUMP JUMPDEST DUP1 ISZERO PUSH2 0x117F JUMPI DUP1 PUSH1 0x1F LT PUSH2 0x1156 JUMPI PUSH2 0x100 DUP1 DUP4 SLOAD DIV MUL DUP4 MSTORE SWAP2 PUSH1 0x20 ADD SWAP2 PUSH2 0x117F JUMP JUMPDEST DUP3 ADD SWAP2 SWAP1 PUSH0 MSTORE PUSH1 0x20 PUSH0 KECCAK256 SWAP1 JUMPDEST DUP2 SLOAD DUP2 MSTORE SWAP1 PUSH1 0x1 ADD SWAP1 PUSH1 0x20 ADD DUP1 DUP4 GT PUSH2 0x1162 JUMPI DUP3 SWAP1 SUB PUSH1 0x1F AND DUP3 ADD SWAP2 JUMPDEST POP POP POP POP POP SWAP1 POP SWAP1 JUMP JUMPDEST PUSH2 0x12C DUP2 JUMP JUMPDEST PUSH0 PUSH0 PUSH2 0x1199 PUSH2 0x407C JUMP JUMPDEST SWAP1 POP PUSH2 0x11A6 DUP2 DUP6 DUP6 PUSH2 0x4083 JUMP JUMPDEST PUSH1 0x1 SWAP2 POP POP SWAP3 SWAP2 POP POP JUMP JUMPDEST PUSH1 0x11 PUSH1 0x1 SWAP1 SLOAD SWAP1 PUSH2 0x100 EXP SWAP1 DIV PUSH1 0xFF AND ISZERO PUSH2 0x1201 JUMPI PUSH1 0x40 MLOAD PUSH32 0x8C379A000000000000000000000000000000000000000000000000000000000 DUP2 MSTORE PUSH1 0x4 ADD PUSH2 0x11F8 SWAP1 PUSH2 0x5544 JUMP JUMPDEST PUSH1 0x40 MLOAD DUP1 SWAP2 SUB SWAP1 REVERT JUMPDEST PUSH1 0xC PUSH0 CALLER PUSH20 0xFFFFFFFFFFFFFFFFFFFFFFFFFFFFFFFFFFFFFFFF AND PUSH20 0xFFFFFFFFFFFFFFFFFFFFFFFFFFFFFFFFFFFFFFFF AND DUP2 MSTORE PUSH1 0x20 ADD SWAP1 DUP2 MSTORE PUSH1 0x20 ADD PUSH0 KECCAK256 PUSH0 SWAP1 SLOAD SWAP1 PUSH2 0x100 EXP SWAP1 DIV PUSH1 0xFF AND PUSH2 0x128A JUMPI PUSH1 0x40 MLOAD PUSH32 0x8C379A000000000000000000000000000000000000000000000000000000000 DUP2 MSTORE PUSH1 0x4 ADD PUSH2 0x1281 SWAP1 PUSH2 0x55AC JUMP JUMPDEST PUSH1 0x40 MLOAD DUP1 SWAP2 SUB SWAP1 REVERT JUMPDEST PUSH0 PUSH1 0x7 DUP2 GT ISZERO PUSH2 0x129D JUMPI PUSH2 0x129C PUSH2 0x4D20 JUMP JUMPDEST JUMPDEST DUP7 PUSH1 0x7 DUP2 GT ISZERO PUSH2 0x12B0 JUMPI PUSH2 0x12AF PUSH2 0x4D20 JUMP JUMPDEST JUMPDEST SUB PUSH2 0x12FD JUMPI PUSH0 DUP4 MLOAD GT PUSH2 0x12F8 JUMPI PUSH1 0x40 MLOAD PUSH32 0x8C379A000000000000000000000000000000000000000000000000000000000 DUP2 MSTORE PUSH1 0x4 ADD PUSH2 0x12EF SWAP1 PUSH2 0x5973 JUMP JUMPDEST PUSH1 0x40 MLOAD DUP1 SWAP2 SUB SWAP1 REVERT JUMPDEST PUSH2 0x1BBD JUMP JUMPDEST PUSH1 0x1 PUSH1 0x7 DUP2 GT ISZERO PUSH2 0x1311 JUMPI PUSH2 0x1310 PUSH2 0x4D20 JUMP JUMPDEST JUMPDEST DUP7 PUSH1 0x7 DUP2 GT ISZERO PUSH2 0x1324 JUMPI PUSH2 0x1323 PUSH2 0x4D20 JUMP JUMPDEST JUMPDEST SUB PUSH2 0x1412 JUMPI PUSH0 DUP5 SUB PUSH2 0x136B JUMPI PUSH1 0x40 MLOAD PUSH32 0x8C379A000000000000000000000000000000000000000000000000000000000 DUP2 MSTORE PUSH1 0x4 ADD PUSH2 0x1362 SWAP1 PUSH2 0x59DB JUMP JUMPDEST PUSH1 0x40 MLOAD DUP1 SWAP2 SUB SWAP1 REVERT JUMPDEST PUSH1 0xA SLOAD DUP5 PUSH1 0x7 SLOAD PUSH2 0x137C SWAP2 SWAP1 PUSH2 0x5A02 JUMP JUMPDEST SLT ISZERO PUSH2 0x13BD JUMPI PUSH1 0x40 MLOAD PUSH32 0x8C379A000000000000000000000000000000000000000000000000000000000 DUP2 MSTORE PUSH1 0x4 ADD PUSH2 0x13B4 SWAP1 PUSH2 0x5A8D JUMP JUMPDEST PUSH1 0x40 MLOAD DUP1 SWAP2 SUB SWAP1 REVERT JUMPDEST PUSH0 DUP5 PUSH1 0x7 SLOAD PUSH2 0x13CC SWAP2 SWAP1 PUSH2 0x5A02 JUMP JUMPDEST SLT ISZERO PUSH2 0x140D JUMPI PUSH1 0x40 MLOAD PUSH32 0x8C379A000000000000000000000000000000000000000000000000000000000 DUP2 MSTORE PUSH1 0x4 ADD PUSH2 0x1404 SWAP1 PUSH2 0x5AF5 JUMP JUMPDEST PUSH1 0x40 MLOAD DUP1 SWAP2 SUB SWAP1 REVERT JUMPDEST PUSH2 0x1BBC JUMP JUMPDEST PUSH1 0x2 PUSH1 0x7 DUP2 GT ISZERO PUSH2 0x1426 JUMPI PUSH2 0x1425 PUSH2 0x4D20 JUMP JUMPDEST JUMPDEST DUP7 PUSH1 0x7 DUP2 GT ISZERO PUSH2 0x1439 JUMPI PUSH2 0x1438 PUSH2 0x4D20 JUMP JUMPDEST JUMPDEST SUB PUSH2 0x1712 JUMPI DUP1 MLOAD DUP3 MLOAD EQ DUP1 ISZERO PUSH2 0x144F JUMPI POP PUSH0 DUP3 MLOAD GT JUMPDEST PUSH2 0x148E JUMPI PUSH1 0x40 MLOAD PUSH32 0x8C379A000000000000000000000000000000000000000000000000000000000 DUP2 MSTORE PUSH1 0x4 ADD PUSH2 0x1485 SWAP1 PUSH2 0x5B5D JUMP JUMPDEST PUSH1 0x40 MLOAD DUP1 SWAP2 SUB SWAP1 REVERT JUMPDEST PUSH0 PUSH0 SWAP1 POP JUMPDEST DUP3 MLOAD DUP2 LT ISZERO PUSH2 0x170C JUMPI PUSH1 0xC PUSH0 DUP5 DUP4 DUP2 MLOAD DUP2 LT PUSH2 0x14B2 JUMPI PUSH2 0x14B1 PUSH2 0x5B7B JUMP JUMPDEST JUMPDEST PUSH1 0x20 MUL PUSH1 0x20 ADD ADD MLOAD PUSH20 0xFFFFFFFFFFFFFFFFFFFFFFFFFFFFFFFFFFFFFFFF AND PUSH20 0xFFFFFFFFFFFFFFFFFFFFFFFFFFFFFFFFFFFFFFFF AND DUP2 MSTORE PUSH1 0x20 ADD SWAP1 DUP2 MSTORE PUSH1 0x20 ADD PUSH0 KECCAK256 PUSH0 SWAP1 SLOAD SWAP1 PUSH2 0x100 EXP SWAP1 DIV PUSH1 0xFF AND PUSH2 0x153F JUMPI PUSH1 0x40 MLOAD PUSH32 0x8C379A000000000000000000000000000000000000000000000000000000000 DUP2 MSTORE PUSH1 0x4 ADD PUSH2 0x1536 SWAP1 PUSH2 0x5BF2 JUMP JUMPDEST PUSH1 0x40 MLOAD DUP1 SWAP2 SUB SWAP1 REVERT JUMPDEST PUSH0 PUSH20 0xFFFFFFFFFFFFFFFFFFFFFFFFFFFFFFFFFFFFFFFF AND DUP3 DUP3 DUP2 MLOAD DUP2 LT PUSH2 0x1569 JUMPI PUSH2 0x1568 PUSH2 0x5B7B JUMP JUMPDEST JUMPDEST PUSH1 0x20 MUL PUSH1 0x20 ADD ADD MLOAD PUSH20 0xFFFFFFFFFFFFFFFFFFFFFFFFFFFFFFFFFFFFFFFF AND EQ ISZERO DUP1 ISZERO PUSH2 0x15F6 JUMPI POP PUSH1 0xC PUSH0 DUP4 DUP4 DUP2 MLOAD DUP2 LT PUSH2 0x15A6 JUMPI PUSH2 0x15A5 PUSH2 0x5B7B JUMP JUMPDEST JUMPDEST PUSH1 0x20 MUL PUSH1 0x20 ADD ADD MLOAD PUSH20 0xFFFFFFFFFFFFFFFFFFFFFFFFFFFFFFFFFFFFFFFF AND PUSH20 0xFFFFFFFFFFFFFFFFFFFFFFFFFFFFFFFFFFFFFFFF AND DUP2 MSTORE PUSH1 0x20 ADD SWAP1 DUP2 MSTORE PUSH1 0x20 ADD PUSH0 KECCAK256 PUSH0 SWAP1 SLOAD SWAP1 PUSH2 0x100 EXP SWAP1 DIV PUSH1 0xFF AND ISZERO JUMPDEST PUSH2 0x1635 JUMPI PUSH1 0x40 MLOAD PUSH32 0x8C379A000000000000000000000000000000000000000000000000000000000 DUP2 MSTORE PUSH1 0x4 ADD PUSH2 0x162C SWAP1 PUSH2 0x5C5A JUMP JUMPDEST PUSH1 0x40 MLOAD DUP1 SWAP2 SUB SWAP1 REVERT JUMPDEST PUSH0 PUSH1 0x1 DUP3 PUSH2 0x1643 SWAP2 SWAP1 PUSH2 0x5C78 JUMP JUMPDEST SWAP1 POP JUMPDEST DUP3 MLOAD DUP2 LT ISZERO PUSH2 0x16FE JUMPI DUP3 DUP2 DUP2 MLOAD DUP2 LT PUSH2 0x1662 JUMPI PUSH2 0x1661 PUSH2 0x5B7B JUMP JUMPDEST JUMPDEST PUSH1 0x20 MUL PUSH1 0x20 ADD ADD MLOAD PUSH20 0xFFFFFFFFFFFFFFFFFFFFFFFFFFFFFFFFFFFFFFFF AND DUP4 DUP4 DUP2 MLOAD DUP2 LT PUSH2 0x1693 JUMPI PUSH2 0x1692 PUSH2 0x5B7B JUMP JUMPDEST JUMPDEST PUSH1 0x20 MUL PUSH1 0x20 ADD ADD MLOAD PUSH20 0xFFFFFFFFFFFFFFFFFFFFFFFFFFFFFFFFFFFFFFFF AND SUB PUSH2 0x16F1 JUMPI PUSH1 0x40 MLOAD PUSH32 0x8C379A000000000000000000000000000000000000000000000000000000000 DUP2 MSTORE PUSH1 0x4 ADD PUSH2 0x16E8 SWAP1 PUSH2 0x5CF5 JUMP JUMPDEST PUSH1 0x40 MLOAD DUP1 SWAP2 SUB SWAP1 REVERT JUMPDEST DUP1 DUP1 PUSH1 0x1 ADD SWAP2 POP POP PUSH2 0x1646 JUMP JUMPDEST POP DUP1 DUP1 PUSH1 0x1 ADD SWAP2 POP POP PUSH2 0x1493 JUMP JUMPDEST POP PUSH2 0x1BBB JUMP JUMPDEST PUSH1 0x3 PUSH1 0x7 DUP2 GT ISZERO PUSH2 0x1726 JUMPI PUSH2 0x1725 PUSH2 0x4D20 JUMP JUMPDEST JUMPDEST DUP7 PUSH1 0x7 DUP2 GT ISZERO PUSH2 0x1739 JUMPI PUSH2 0x1738 PUSH2 0x4D20 JUMP JUMPDEST JUMPDEST SUB PUSH2 0x1805 JUMPI PUSH0 PUSH20 0xFFFFFFFFFFFFFFFFFFFFFFFFFFFFFFFFFFFFFFFF AND DUP6 PUSH20 0xFFFFFFFFFFFFFFFFFFFFFFFFFFFFFFFFFFFFFFFF AND EQ ISZERO DUP1 ISZERO PUSH2 0x17C1 JUMPI POP PUSH1 0x8 PUSH0 DUP7 PUSH20 0xFFFFFFFFFFFFFFFFFFFFFFFFFFFFFFFFFFFFFFFF AND PUSH20 0xFFFFFFFFFFFFFFFFFFFFFFFFFFFFFFFFFFFFFFFF AND DUP2 MSTORE PUSH1 0x20 ADD SWAP1 DUP2 MSTORE PUSH1 0x20 ADD PUSH0 KECCAK256 PUSH0 SWAP1 SLOAD SWAP1 PUSH2 0x100 EXP SWAP1 DIV PUSH1 0xFF AND ISZERO JUMPDEST PUSH2 0x1800 JUMPI PUSH1 0x40 MLOAD PUSH32 0x8C379A000000000000000000000000000000000000000000000000000000000 DUP2 MSTORE PUSH1 0x4 ADD PUSH2 0x17F7 SWAP1 PUSH2 0x5D5D JUMP JUMPDEST PUSH1 0x40 MLOAD DUP1 SWAP2 SUB SWAP1 REVERT JUMPDEST PUSH2 0x1BBA JUMP JUMPDEST PUSH1 0x4 PUSH1 0x7 DUP2 GT ISZERO PUSH2 0x1819 JUMPI PUSH2 0x1818 PUSH2 0x4D20 JUMP JUMPDEST JUMPDEST DUP7 PUSH1 0x7 DUP2 GT ISZERO PUSH2 0x182C JUMPI PUSH2 0x182B PUSH2 0x4D20 JUMP JUMPDEST JUMPDEST SUB PUSH2 0x18BF JUMPI PUSH1 0x8 PUSH0 DUP7 PUSH20 0xFFFFFFFFFFFFFFFFFFFFFFFFFFFFFFFFFFFFFFFF AND PUSH20 0xFFFFFFFFFFFFFFFFFFFFFFFFFFFFFFFFFFFFFFFF AND DUP2 MSTORE PUSH1 0x20 ADD SWAP1 DUP2 MSTORE PUSH1 0x20 ADD PUSH0 KECCAK256 PUSH0 SWAP1 SLOAD SWAP1 PUSH2 0x100 EXP SWAP1 DIV PUSH1 0xFF AND PUSH2 0x18BA JUMPI PUSH1 0x40 MLOAD PUSH32 0x8C379A000000000000000000000000000000000000000000000000000000000 DUP2 MSTORE PUSH1 0x4 ADD PUSH2 0x18B1 SWAP1 PUSH2 0x5DC5 JUMP JUMPDEST PUSH1 0x40 MLOAD DUP1 SWAP2 SUB SWAP1 REVERT JUMPDEST PUSH2 0x1BB9 JUMP JUMPDEST PUSH1 0x5 PUSH1 0x7 DUP2 GT ISZERO PUSH2 0x18D3 JUMPI PUSH2 0x18D2 PUSH2 0x4D20 JUMP JUMPDEST JUMPDEST DUP7 PUSH1 0x7 DUP2 GT ISZERO PUSH2 0x18E6 JUMPI PUSH2 0x18E5 PUSH2 0x4D20 JUMP JUMPDEST JUMPDEST SUB PUSH2 0x19B2 JUMPI PUSH0 PUSH20 0xFFFFFFFFFFFFFFFFFFFFFFFFFFFFFFFFFFFFFFFF AND DUP6 PUSH20 0xFFFFFFFFFFFFFFFFFFFFFFFFFFFFFFFFFFFFFFFF AND EQ ISZERO DUP1 ISZERO PUSH2 0x196E JUMPI POP PUSH1 0x9 PUSH0 DUP7 PUSH20 0xFFFFFFFFFFFFFFFFFFFFFFFFFFFFFFFFFFFFFFFF AND PUSH20 0xFFFFFFFFFFFFFFFFFFFFFFFFFFFFFFFFFFFFFFFF AND DUP2 MSTORE PUSH1 0x20 ADD SWAP1 DUP2 MSTORE PUSH1 0x20 ADD PUSH0 KECCAK256 PUSH0 SWAP1 SLOAD SWAP1 PUSH2 0x100 EXP SWAP1 DIV PUSH1 0xFF AND ISZERO JUMPDEST PUSH2 0x19AD JUMPI PUSH1 0x40 MLOAD PUSH32 0x8C379A000000000000000000000000000000000000000000000000000000000 DUP2 MSTORE PUSH1 0x4 ADD PUSH2 0x19A4 SWAP1 PUSH2 0x5E2D JUMP JUMPDEST PUSH1 0x40 MLOAD DUP1 SWAP2 SUB SWAP1 REVERT JUMPDEST PUSH2 0x1BB8 JUMP JUMPDEST PUSH1 0x6 PUSH1 0x7 DUP2 GT ISZERO PUSH2 0x19C6 JUMPI PUSH2 0x19C5 PUSH2 0x4D20 JUMP JUMPDEST JUMPDEST DUP7 PUSH1 0x7 DUP2 GT ISZERO PUSH2 0x19D9 JUMPI PUSH2 0x19D8 PUSH2 0x4D20 JUMP JUMPDEST JUMPDEST SUB PUSH2 0x1A6C JUMPI PUSH1 0x9 PUSH0 DUP7 PUSH20 0xFFFFFFFFFFFFFFFFFFFFFFFFFFFFFFFFFFFFFFFF AND PUSH20 0xFFFFFFFFFFFFFFFFFFFFFFFFFFFFFFFFFFFFFFFF AND DUP2 MSTORE PUSH1 0x20 ADD SWAP1 DUP2 MSTORE PUSH1 0x20 ADD PUSH0 KECCAK256 PUSH0 SWAP1 SLOAD SWAP1 PUSH2 0x100 EXP SWAP1 DIV PUSH1 0xFF AND PUSH2 0x1A67 JUMPI PUSH1 0x40 MLOAD PUSH32 0x8C379A000000000000000000000000000000000000000000000000000000000 DUP2 MSTORE PUSH1 0x4 ADD PUSH2 0x1A5E SWAP1 PUSH2 0x5E95 JUMP JUMPDEST PUSH1 0x40 MLOAD DUP1 SWAP2 SUB SWAP1 REVERT JUMPDEST PUSH2 0x1BB7 JUMP JUMPDEST PUSH1 0x7 DUP1 DUP2 GT ISZERO PUSH2 0x1A7F JUMPI PUSH2 0x1A7E PUSH2 0x4D20 JUMP JUMPDEST JUMPDEST DUP7 PUSH1 0x7 DUP2 GT ISZERO PUSH2 0x1A92 JUMPI PUSH2 0x1A91 PUSH2 0x4D20 JUMP JUMPDEST JUMPDEST SUB PUSH2 0x1BB6 JUMPI PUSH1 0x8 PUSH0 DUP7 PUSH20 0xFFFFFFFFFFFFFFFFFFFFFFFFFFFFFFFFFFFFFFFF AND PUSH20 0xFFFFFFFFFFFFFFFFFFFFFFFFFFFFFFFFFFFFFFFF AND DUP2 MSTORE PUSH1 0x20 ADD SWAP1 DUP2 MSTORE PUSH1 0x20 ADD PUSH0 KECCAK256 PUSH0 SWAP1 SLOAD SWAP1 PUSH2 0x100 EXP SWAP1 DIV PUSH1 0xFF AND DUP1 ISZERO PUSH2 0x1B19 JUMPI POP PUSH0 PUSH20 0xFFFFFFFFFFFFFFFFFFFFFFFFFFFFFFFFFFFFFFFF AND DUP6 PUSH20 0xFFFFFFFFFFFFFFFFFFFFFFFFFFFFFFFFFFFFFFFF AND EQ ISZERO JUMPDEST PUSH2 0x1B58 JUMPI PUSH1 0x40 MLOAD PUSH32 0x8C379A000000000000000000000000000000000000000000000000000000000 DUP2 MSTORE PUSH1 0x4 ADD PUSH2 0x1B4F SWAP1 PUSH2 0x5EFD JUMP JUMPDEST PUSH1 0x40 MLOAD DUP1 SWAP2 SUB SWAP1 REVERT JUMPDEST PUSH0 DUP5 GT DUP1 ISZERO PUSH2 0x1B76 JUMPI POP PUSH1 0x7 SLOAD DUP5 PUSH1 0xA SLOAD PUSH2 0x1B73 SWAP2 SWAP1 PUSH2 0x5C78 JUMP JUMPDEST GT ISZERO JUMPDEST PUSH2 0x1BB5 JUMPI PUSH1 0x40 MLOAD PUSH32 0x8C379A000000000000000000000000000000000000000000000000000000000 DUP2 MSTORE PUSH1 0x4 ADD PUSH2 0x1BAC SWAP1 PUSH2 0x5F65 JUMP JUMPDEST PUSH1 0x40 MLOAD DUP1 SWAP2 SUB SWAP1 REVERT JUMPDEST JUMPDEST JUMPDEST JUMPDEST JUMPDEST JUMPDEST JUMPDEST JUMPDEST JUMPDEST PUSH1 0x40 MLOAD DUP1 PUSH2 0x140 ADD PUSH1 0x40 MSTORE DUP1 DUP8 PUSH1 0x7 DUP2 GT ISZERO PUSH2 0x1BDC JUMPI PUSH2 0x1BDB PUSH2 0x4D20 JUMP JUMPDEST JUMPDEST DUP2 MSTORE PUSH1 0x20 ADD CALLER PUSH20 0xFFFFFFFFFFFFFFFFFFFFFFFFFFFFFFFFFFFFFFFF AND DUP2 MSTORE PUSH1 0x20 ADD PUSH0 DUP2 MSTORE PUSH1 0x20 ADD PUSH1 0x2 PUSH1 0x7 DUP2 GT ISZERO PUSH2 0x1C17 JUMPI PUSH2 0x1C16 PUSH2 0x4D20 JUMP JUMPDEST JUMPDEST DUP9 PUSH1 0x7 DUP2 GT ISZERO PUSH2 0x1C2A JUMPI PUSH2 0x1C29 PUSH2 0x4D20 JUMP JUMPDEST JUMPDEST GT ISZERO PUSH2 0x1C36 JUMPI TIMESTAMP PUSH2 0x1C44 JUMP JUMPDEST PUSH1 0xB4 TIMESTAMP PUSH2 0x1C43 SWAP2 SWAP1 PUSH2 0x5C78 JUMP JUMPDEST JUMPDEST DUP2 MSTORE PUSH1 0x20 ADD DUP7 PUSH20 0xFFFFFFFFFFFFFFFFFFFFFFFFFFFFFFFFFFFFFFFF AND DUP2 MSTORE PUSH1 0x20 ADD DUP6 DUP2 MSTORE PUSH1 0x20 ADD DUP5 DUP2 MSTORE PUSH1 0x20 ADD DUP4 DUP2 MSTORE PUSH1 0x20 ADD DUP3 DUP2 MSTORE PUSH1 0x20 ADD PUSH1 0x1 ISZERO ISZERO DUP2 MSTORE POP PUSH1 0xF PUSH0 PUSH1 0x10 SLOAD DUP2 MSTORE PUSH1 0x20 ADD SWAP1 DUP2 MSTORE PUSH1 0x20 ADD PUSH0 KECCAK256 PUSH0 DUP3 ADD MLOAD DUP2 PUSH0 ADD PUSH0 PUSH2 0x100 EXP DUP2 SLOAD DUP2 PUSH1 0xFF MUL NOT AND SWAP1 DUP4 PUSH1 0x7 DUP2 GT ISZERO PUSH2 0x1CBF JUMPI PUSH2 0x1CBE PUSH2 0x4D20 JUMP JUMPDEST JUMPDEST MUL OR SWAP1 SSTORE POP PUSH1 0x20 DUP3 ADD MLOAD DUP2 PUSH0 ADD PUSH1 0x1 PUSH2 0x100 EXP DUP2 SLOAD DUP2 PUSH20 0xFFFFFFFFFFFFFFFFFFFFFFFFFFFFFFFFFFFFFFFF MUL NOT AND SWAP1 DUP4 PUSH20 0xFFFFFFFFFFFFFFFFFFFFFFFFFFFFFFFFFFFFFFFF AND MUL OR SWAP1 SSTORE POP PUSH1 0x40 DUP3 ADD MLOAD DUP2 PUSH1 0x1 ADD SSTORE PUSH1 0x60 DUP3 ADD MLOAD DUP2 PUSH1 0x2 ADD SSTORE PUSH1 0x80 DUP3 ADD MLOAD DUP2 PUSH1 0x3 ADD PUSH0 PUSH2 0x100 EXP DUP2 SLOAD DUP2 PUSH20 0xFFFFFFFFFFFFFFFFFFFFFFFFFFFFFFFFFFFFFFFF MUL NOT AND SWAP1 DUP4 PUSH20 0xFFFFFFFFFFFFFFFFFFFFFFFFFFFFFFFFFFFFFFFF AND MUL OR SWAP1 SSTORE POP PUSH1 0xA0 DUP3 ADD MLOAD DUP2 PUSH1 0x4 ADD SSTORE PUSH1 0xC0 DUP3 ADD MLOAD DUP2 PUSH1 0x5 ADD SWAP1 DUP2 PUSH2 0x1D83 SWAP2 SWAP1 PUSH2 0x6123 JUMP JUMPDEST POP PUSH1 0xE0 DUP3 ADD MLOAD DUP2 PUSH1 0x6 ADD SWAP1 DUP1 MLOAD SWAP1 PUSH1 0x20 ADD SWAP1 PUSH2 0x1DA0 SWAP3 SWAP2 SWAP1 PUSH2 0x4BB4 JUMP JUMPDEST POP PUSH2 0x100 DUP3 ADD MLOAD DUP2 PUSH1 0x7 ADD SWAP1 DUP1 MLOAD SWAP1 PUSH1 0x20 ADD SWAP1 PUSH2 0x1DBE SWAP3 SWAP2 SWAP1 PUSH2 0x4BB4 JUMP JUMPDEST POP PUSH2 0x120 DUP3 ADD MLOAD DUP2 PUSH1 0x8 ADD PUSH0 PUSH2 0x100 EXP DUP2 SLOAD DUP2 PUSH1 0xFF MUL NOT AND SWAP1 DUP4 ISZERO ISZERO MUL OR SWAP1 SSTORE POP SWAP1 POP POP PUSH1 0x10 SLOAD PUSH32 0x3263432A41F78A4701CC9465F62411ED717ADE32290C084135A3DD6B29F4BF28 DUP8 CALLER PUSH1 0x40 MLOAD PUSH2 0x1E16 SWAP3 SWAP2 SWAP1 PUSH2 0x61F2 JUMP JUMPDEST PUSH1 0x40 MLOAD DUP1 SWAP2 SUB SWAP1 LOG2 PUSH1 0x10 PUSH0 DUP2 SLOAD DUP1 SWAP3 SWAP2 SWAP1 PUSH2 0x1E30 SWAP1 PUSH2 0x572F JUMP JUMPDEST SWAP2 SWAP1 POP SSTORE POP POP POP POP POP POP POP JUMP JUMPDEST PUSH1 0x11 PUSH1 0x1 SWAP1 SLOAD SWAP1 PUSH2 0x100 EXP SWAP1 DIV PUSH1 0xFF AND ISZERO PUSH2 0x1E8D JUMPI PUSH1 0x40 MLOAD PUSH32 0x8C379A000000000000000000000000000000000000000000000000000000000 DUP2 MSTORE PUSH1 0x4 ADD PUSH2 0x1E84 SWAP1 PUSH2 0x5544 JUMP JUMPDEST PUSH1 0x40 MLOAD DUP1 SWAP2 SUB SWAP1 REVERT JUMPDEST PUSH0 PUSH1 0xF PUSH0 DUP4 DUP2 MSTORE PUSH1 0x20 ADD SWAP1 DUP2 MSTORE PUSH1 0x20 ADD PUSH0 KECCAK256 SWAP1 POP PUSH2 0x1EAB DUP2 DUP4 PUSH2 0x4095 JUMP JUMPDEST POP PUSH0 PUSH1 0x7 DUP2 GT ISZERO PUSH2 0x1EBF JUMPI PUSH2 0x1EBE PUSH2 0x4D20 JUMP JUMPDEST JUMPDEST DUP2 PUSH0 ADD PUSH0 SWAP1 SLOAD SWAP1 PUSH2 0x100 EXP SWAP1 DIV PUSH1 0xFF AND PUSH1 0x7 DUP2 GT ISZERO PUSH2 0x1EE1 JUMPI PUSH2 0x1EE0 PUSH2 0x4D20 JUMP JUMPDEST JUMPDEST SUB PUSH2 0x1FB8 JUMPI PUSH2 0x1F79 DUP2 PUSH1 0x5 ADD DUP1 SLOAD PUSH2 0x1EF8 SWAP1 PUSH2 0x580B JUMP JUMPDEST DUP1 PUSH1 0x1F ADD PUSH1 0x20 DUP1 SWAP2 DIV MUL PUSH1 0x20 ADD PUSH1 0x40 MLOAD SWAP1 DUP2 ADD PUSH1 0x40 MSTORE DUP1 SWAP3 SWAP2 SWAP1 DUP2 DUP2 MSTORE PUSH1 0x20 ADD DUP3 DUP1 SLOAD PUSH2 0x1F24 SWAP1 PUSH2 0x580B JUMP JUMPDEST DUP1 ISZERO PUSH2 0x1F6F JUMPI DUP1 PUSH1 0x1F LT PUSH2 0x1F46 JUMPI PUSH2 0x100 DUP1 DUP4 SLOAD DIV MUL DUP4 MSTORE SWAP2 PUSH1 0x20 ADD SWAP2 PUSH2 0x1F6F JUMP JUMPDEST DUP3 ADD SWAP2 SWAP1 PUSH0 MSTORE PUSH1 0x20 PUSH0 KECCAK256 SWAP1 JUMPDEST DUP2 SLOAD DUP2 MSTORE SWAP1 PUSH1 0x1 ADD SWAP1 PUSH1 0x20 ADD DUP1 DUP4 GT PUSH2 0x1F52 JUMPI DUP3 SWAP1 SUB PUSH1 0x1F AND DUP3 ADD SWAP2 JUMPDEST POP POP POP POP POP PUSH2 0x42C2 JUMP JUMPDEST PUSH32 0x4737457377F528CC8AFD815F73ECB8B05DF80D047DBFFC41C17750A4033592BC DUP2 PUSH1 0x5 ADD PUSH1 0x40 MLOAD PUSH2 0x1FAB SWAP2 SWAP1 PUSH2 0x629A JUMP JUMPDEST PUSH1 0x40 MLOAD DUP1 SWAP2 SUB SWAP1 LOG1 PUSH2 0x2975 JUMP JUMPDEST PUSH1 0x1 PUSH1 0x7 DUP2 GT ISZERO PUSH2 0x1FCC JUMPI PUSH2 0x1FCB PUSH2 0x4D20 JUMP JUMPDEST JUMPDEST DUP2 PUSH0 ADD PUSH0 SWAP1 SLOAD SWAP1 PUSH2 0x100 EXP SWAP1 DIV PUSH1 0xFF AND PUSH1 0x7 DUP2 GT ISZERO PUSH2 0x1FEE JUMPI PUSH2 0x1FED PUSH2 0x4D20 JUMP JUMPDEST JUMPDEST SUB PUSH2 0x2049 JUMPI DUP1 PUSH1 0x4 ADD SLOAD PUSH1 0x7 SLOAD PUSH2 0x2005 SWAP2 SWAP1 PUSH2 0x5A02 JUMP JUMPDEST PUSH1 0x7 DUP2 SWAP1 SSTORE POP PUSH32 0xACD0677FAD7BE9CCAF6C91EBAACA5C9C91622AC0508242D2F8FECA61A0DA249 PUSH1 0x7 SLOAD PUSH1 0x40 MLOAD PUSH2 0x203C SWAP2 SWAP1 PUSH2 0x50BF JUMP JUMPDEST PUSH1 0x40 MLOAD DUP1 SWAP2 SUB SWAP1 LOG1 PUSH2 0x2974 JUMP JUMPDEST PUSH1 0x2 PUSH1 0x7 DUP2 GT ISZERO PUSH2 0x205D JUMPI PUSH2 0x205C PUSH2 0x4D20 JUMP JUMPDEST JUMPDEST DUP2 PUSH0 ADD PUSH0 SWAP1 SLOAD SWAP1 PUSH2 0x100 EXP SWAP1 DIV PUSH1 0xFF AND PUSH1 0x7 DUP2 GT ISZERO PUSH2 0x207F JUMPI PUSH2 0x207E PUSH2 0x4D20 JUMP JUMPDEST JUMPDEST SUB PUSH2 0x23E2 JUMPI PUSH0 PUSH1 0xE DUP1 SLOAD DUP1 PUSH1 0x20 MUL PUSH1 0x20 ADD PUSH1 0x40 MLOAD SWAP1 DUP2 ADD PUSH1 0x40 MSTORE DUP1 SWAP3 SWAP2 SWAP1 DUP2 DUP2 MSTORE PUSH1 0x20 ADD DUP3 DUP1 SLOAD DUP1 ISZERO PUSH2 0x2104 JUMPI PUSH1 0x20 MUL DUP3 ADD SWAP2 SWAP1 PUSH0 MSTORE PUSH1 0x20 PUSH0 KECCAK256 SWAP1 JUMPDEST DUP2 PUSH0 SWAP1 SLOAD SWAP1 PUSH2 0x100 EXP SWAP1 DIV PUSH20 0xFFFFFFFFFFFFFFFFFFFFFFFFFFFFFFFFFFFFFFFF AND PUSH20 0xFFFFFFFFFFFFFFFFFFFFFFFFFFFFFFFFFFFFFFFF AND DUP2 MSTORE PUSH1 0x20 ADD SWAP1 PUSH1 0x1 ADD SWAP1 DUP1 DUP4 GT PUSH2 0x20BB JUMPI JUMPDEST POP POP POP POP POP SWAP1 POP PUSH0 PUSH0 SWAP1 POP JUMPDEST DUP3 PUSH1 0x6 ADD DUP1 SLOAD SWAP1 POP DUP2 LT ISZERO PUSH2 0x2385 JUMPI PUSH0 PUSH1 0xC PUSH0 DUP6 PUSH1 0x6 ADD DUP5 DUP2 SLOAD DUP2 LT PUSH2 0x2139 JUMPI PUSH2 0x2138 PUSH2 0x5B7B JUMP JUMPDEST JUMPDEST SWAP1 PUSH0 MSTORE PUSH1 0x20 PUSH0 KECCAK256 ADD PUSH0 SWAP1 SLOAD SWAP1 PUSH2 0x100 EXP SWAP1 DIV PUSH20 0xFFFFFFFFFFFFFFFFFFFFFFFFFFFFFFFFFFFFFFFF AND PUSH20 0xFFFFFFFFFFFFFFFFFFFFFFFFFFFFFFFFFFFFFFFF AND PUSH20 0xFFFFFFFFFFFFFFFFFFFFFFFFFFFFFFFFFFFFFFFF AND DUP2 MSTORE PUSH1 0x20 ADD SWAP1 DUP2 MSTORE PUSH1 0x20 ADD PUSH0 KECCAK256 PUSH0 PUSH2 0x100 EXP DUP2 SLOAD DUP2 PUSH1 0xFF MUL NOT AND SWAP1 DUP4 ISZERO ISZERO MUL OR SWAP1 SSTORE POP PUSH1 0x1 PUSH1 0xC PUSH0 DUP6 PUSH1 0x7 ADD DUP5 DUP2 SLOAD DUP2 LT PUSH2 0x21CB JUMPI PUSH2 0x21CA PUSH2 0x5B7B JUMP JUMPDEST JUMPDEST SWAP1 PUSH0 MSTORE PUSH1 0x20 PUSH0 KECCAK256 ADD PUSH0 SWAP1 SLOAD SWAP1 PUSH2 0x100 EXP SWAP1 DIV PUSH20 0xFFFFFFFFFFFFFFFFFFFFFFFFFFFFFFFFFFFFFFFF AND PUSH20 0xFFFFFFFFFFFFFFFFFFFFFFFFFFFFFFFFFFFFFFFF AND PUSH20 0xFFFFFFFFFFFFFFFFFFFFFFFFFFFFFFFFFFFFFFFF AND DUP2 MSTORE PUSH1 0x20 ADD SWAP1 DUP2 MSTORE PUSH1 0x20 ADD PUSH0 KECCAK256 PUSH0 PUSH2 0x100 EXP DUP2 SLOAD DUP2 PUSH1 0xFF MUL NOT AND SWAP1 DUP4 ISZERO ISZERO MUL OR SWAP1 SSTORE POP PUSH0 PUSH0 SWAP1 POP JUMPDEST DUP3 MLOAD DUP2 LT ISZERO PUSH2 0x2377 JUMPI DUP4 PUSH1 0x6 ADD DUP3 DUP2 SLOAD DUP2 LT PUSH2 0x2266 JUMPI PUSH2 0x2265 PUSH2 0x5B7B JUMP JUMPDEST JUMPDEST SWAP1 PUSH0 MSTORE PUSH1 0x20 PUSH0 KECCAK256 ADD PUSH0 SWAP1 SLOAD SWAP1 PUSH2 0x100 EXP SWAP1 DIV PUSH20 0xFFFFFFFFFFFFFFFFFFFFFFFFFFFFFFFFFFFFFFFF AND PUSH20 0xFFFFFFFFFFFFFFFFFFFFFFFFFFFFFFFFFFFFFFFF AND DUP4 DUP3 DUP2 MLOAD DUP2 LT PUSH2 0x22B7 JUMPI PUSH2 0x22B6 PUSH2 0x5B7B JUMP JUMPDEST JUMPDEST PUSH1 0x20 MUL PUSH1 0x20 ADD ADD MLOAD PUSH20 0xFFFFFFFFFFFFFFFFFFFFFFFFFFFFFFFFFFFFFFFF AND SUB PUSH2 0x236A JUMPI DUP4 PUSH1 0x7 ADD DUP3 DUP2 SLOAD DUP2 LT PUSH2 0x22F0 JUMPI PUSH2 0x22EF PUSH2 0x5B7B JUMP JUMPDEST JUMPDEST SWAP1 PUSH0 MSTORE PUSH1 0x20 PUSH0 KECCAK256 ADD PUSH0 SWAP1 SLOAD SWAP1 PUSH2 0x100 EXP SWAP1 DIV PUSH20 0xFFFFFFFFFFFFFFFFFFFFFFFFFFFFFFFFFFFFFFFF AND DUP4 DUP3 DUP2 MLOAD DUP2 LT PUSH2 0x232B JUMPI PUSH2 0x232A PUSH2 0x5B7B JUMP JUMPDEST JUMPDEST PUSH1 0x20 MUL PUSH1 0x20 ADD ADD SWAP1 PUSH20 0xFFFFFFFFFFFFFFFFFFFFFFFFFFFFFFFFFFFFFFFF AND SWAP1 DUP2 PUSH20 0xFFFFFFFFFFFFFFFFFFFFFFFFFFFFFFFFFFFFFFFF AND DUP2 MSTORE POP POP PUSH2 0x2377 JUMP JUMPDEST DUP1 DUP1 PUSH1 0x1 ADD SWAP2 POP POP PUSH2 0x2247 JUMP JUMPDEST POP DUP1 DUP1 PUSH1 0x1 ADD SWAP2 POP POP PUSH2 0x2110 JUMP JUMPDEST POP DUP1 PUSH1 0xE SWAP1 DUP1 MLOAD SWAP1 PUSH1 0x20 ADD SWAP1 PUSH2 0x239C SWAP3 SWAP2 SWAP1 PUSH2 0x4BB4 JUMP JUMPDEST POP PUSH32 0x765616CA75E38E63DCC130430614A01FA91BFE57744073B30BF8F4BA8FA31FFC DUP3 PUSH1 0x6 ADD DUP4 PUSH1 0x7 ADD PUSH1 0x40 MLOAD PUSH2 0x23D4 SWAP3 SWAP2 SWAP1 PUSH2 0x63D0 JUMP JUMPDEST PUSH1 0x40 MLOAD DUP1 SWAP2 SUB SWAP1 LOG1 POP PUSH2 0x2973 JUMP JUMPDEST PUSH1 0x3 PUSH1 0x7 DUP2 GT ISZERO PUSH2 0x23F6 JUMPI PUSH2 0x23F5 PUSH2 0x4D20 JUMP JUMPDEST JUMPDEST DUP2 PUSH0 ADD PUSH0 SWAP1 SLOAD SWAP1 PUSH2 0x100 EXP SWAP1 DIV PUSH1 0xFF AND PUSH1 0x7 DUP2 GT ISZERO PUSH2 0x2418 JUMPI PUSH2 0x2417 PUSH2 0x4D20 JUMP JUMPDEST JUMPDEST SUB PUSH2 0x250C JUMPI PUSH1 0x1 PUSH1 0x8 PUSH0 DUP4 PUSH1 0x3 ADD PUSH0 SWAP1 SLOAD SWAP1 PUSH2 0x100 EXP SWAP1 DIV PUSH20 0xFFFFFFFFFFFFFFFFFFFFFFFFFFFFFFFFFFFFFFFF AND PUSH20 0xFFFFFFFFFFFFFFFFFFFFFFFFFFFFFFFFFFFFFFFF AND PUSH20 0xFFFFFFFFFFFFFFFFFFFFFFFFFFFFFFFFFFFFFFFF AND DUP2 MSTORE PUSH1 0x20 ADD SWAP1 DUP2 MSTORE PUSH1 0x20 ADD PUSH0 KECCAK256 PUSH0 PUSH2 0x100 EXP DUP2 SLOAD DUP2 PUSH1 0xFF MUL NOT AND SWAP1 DUP4 ISZERO ISZERO MUL OR SWAP1 SSTORE POP DUP1 PUSH1 0x3 ADD PUSH0 SWAP1 SLOAD SWAP1 PUSH2 0x100 EXP SWAP1 DIV PUSH20 0xFFFFFFFFFFFFFFFFFFFFFFFFFFFFFFFFFFFFFFFF AND PUSH20 0xFFFFFFFFFFFFFFFFFFFFFFFFFFFFFFFFFFFFFFFF AND PUSH32 0x708B4D521222BB27F0672D2839E6039075F625A31020905655AFD928FC992340 PUSH1 0x1 PUSH1 0x40 MLOAD PUSH2 0x24FF SWAP2 SWAP1 PUSH2 0x644F JUMP JUMPDEST PUSH1 0x40 MLOAD DUP1 SWAP2 SUB SWAP1 LOG2 PUSH2 0x2972 JUMP JUMPDEST PUSH1 0x4 PUSH1 0x7 DUP2 GT ISZERO PUSH2 0x2520 JUMPI PUSH2 0x251F PUSH2 0x4D20 JUMP JUMPDEST JUMPDEST DUP2 PUSH0 ADD PUSH0 SWAP1 SLOAD SWAP1 PUSH2 0x100 EXP SWAP1 DIV PUSH1 0xFF AND PUSH1 0x7 DUP2 GT ISZERO PUSH2 0x2542 JUMPI PUSH2 0x2541 PUSH2 0x4D20 JUMP JUMPDEST JUMPDEST SUB PUSH2 0x2634 JUMPI PUSH0 PUSH1 0x8 PUSH0 DUP4 PUSH1 0x3 ADD PUSH0 SWAP1 SLOAD SWAP1 PUSH2 0x100 EXP SWAP1 DIV PUSH20 0xFFFFFFFFFFFFFFFFFFFFFFFFFFFFFFFFFFFFFFFF AND PUSH20 0xFFFFFFFFFFFFFFFFFFFFFFFFFFFFFFFFFFFFFFFF AND PUSH20 0xFFFFFFFFFFFFFFFFFFFFFFFFFFFFFFFFFFFFFFFF AND DUP2 MSTORE PUSH1 0x20 ADD SWAP1 DUP2 MSTORE PUSH1 0x20 ADD PUSH0 KECCAK256 PUSH0 PUSH2 0x100 EXP DUP2 SLOAD DUP2 PUSH1 0xFF MUL NOT AND SWAP1 DUP4 ISZERO ISZERO MUL OR SWAP1 SSTORE POP DUP1 PUSH1 0x3 ADD PUSH0 SWAP1 SLOAD SWAP1 PUSH2 0x100 EXP SWAP1 DIV PUSH20 0xFFFFFFFFFFFFFFFFFFFFFFFFFFFFFFFFFFFFFFFF AND PUSH20 0xFFFFFFFFFFFFFFFFFFFFFFFFFFFFFFFFFFFFFFFF AND PUSH32 0x708B4D521222BB27F0672D2839E6039075F625A31020905655AFD928FC992340 PUSH0 PUSH1 0x40 MLOAD PUSH2 0x2627 SWAP2 SWAP1 PUSH2 0x644F JUMP JUMPDEST PUSH1 0x40 MLOAD DUP1 SWAP2 SUB SWAP1 LOG2 PUSH2 0x2971 JUMP JUMPDEST PUSH1 0x5 PUSH1 0x7 DUP2 GT ISZERO PUSH2 0x2648 JUMPI PUSH2 0x2647 PUSH2 0x4D20 JUMP JUMPDEST JUMPDEST DUP2 PUSH0 ADD PUSH0 SWAP1 SLOAD SWAP1 PUSH2 0x100 EXP SWAP1 DIV PUSH1 0xFF AND PUSH1 0x7 DUP2 GT ISZERO PUSH2 0x266A JUMPI PUSH2 0x2669 PUSH2 0x4D20 JUMP JUMPDEST JUMPDEST SUB PUSH2 0x275E JUMPI PUSH1 0x1 PUSH1 0x9 PUSH0 DUP4 PUSH1 0x3 ADD PUSH0 SWAP1 SLOAD SWAP1 PUSH2 0x100 EXP SWAP1 DIV PUSH20 0xFFFFFFFFFFFFFFFFFFFFFFFFFFFFFFFFFFFFFFFF AND PUSH20 0xFFFFFFFFFFFFFFFFFFFFFFFFFFFFFFFFFFFFFFFF AND PUSH20 0xFFFFFFFFFFFFFFFFFFFFFFFFFFFFFFFFFFFFFFFF AND DUP2 MSTORE PUSH1 0x20 ADD SWAP1 DUP2 MSTORE PUSH1 0x20 ADD PUSH0 KECCAK256 PUSH0 PUSH2 0x100 EXP DUP2 SLOAD DUP2 PUSH1 0xFF MUL NOT AND SWAP1 DUP4 ISZERO ISZERO MUL OR SWAP1 SSTORE POP DUP1 PUSH1 0x3 ADD PUSH0 SWAP1 SLOAD SWAP1 PUSH2 0x100 EXP SWAP1 DIV PUSH20 0xFFFFFFFFFFFFFFFFFFFFFFFFFFFFFFFFFFFFFFFF AND PUSH20 0xFFFFFFFFFFFFFFFFFFFFFFFFFFFFFFFFFFFFFFFF AND PUSH32 0x708B4D521222BB27F0672D2839E6039075F625A31020905655AFD928FC992340 PUSH1 0x1 PUSH1 0x40 MLOAD PUSH2 0x2751 SWAP2 SWAP1 PUSH2 0x64C5 JUMP JUMPDEST PUSH1 0x40 MLOAD DUP1 SWAP2 SUB SWAP1 LOG2 PUSH2 0x2970 JUMP JUMPDEST PUSH1 0x6 PUSH1 0x7 DUP2 GT ISZERO PUSH2 0x2772 JUMPI PUSH2 0x2771 PUSH2 0x4D20 JUMP JUMPDEST JUMPDEST DUP2 PUSH0 ADD PUSH0 SWAP1 SLOAD SWAP1 PUSH2 0x100 EXP SWAP1 DIV PUSH1 0xFF AND PUSH1 0x7 DUP2 GT ISZERO PUSH2 0x2794 JUMPI PUSH2 0x2793 PUSH2 0x4D20 JUMP JUMPDEST JUMPDEST SUB PUSH2 0x2886 JUMPI PUSH0 PUSH1 0x9 PUSH0 DUP4 PUSH1 0x3 ADD PUSH0 SWAP1 SLOAD SWAP1 PUSH2 0x100 EXP SWAP1 DIV PUSH20 0xFFFFFFFFFFFFFFFFFFFFFFFFFFFFFFFFFFFFFFFF AND PUSH20 0xFFFFFFFFFFFFFFFFFFFFFFFFFFFFFFFFFFFFFFFF AND PUSH20 0xFFFFFFFFFFFFFFFFFFFFFFFFFFFFFFFFFFFFFFFF AND DUP2 MSTORE PUSH1 0x20 ADD SWAP1 DUP2 MSTORE PUSH1 0x20 ADD PUSH0 KECCAK256 PUSH0 PUSH2 0x100 EXP DUP2 SLOAD DUP2 PUSH1 0xFF MUL NOT AND SWAP1 DUP4 ISZERO ISZERO MUL OR SWAP1 SSTORE POP DUP1 PUSH1 0x3 ADD PUSH0 SWAP1 SLOAD SWAP1 PUSH2 0x100 EXP SWAP1 DIV PUSH20 0xFFFFFFFFFFFFFFFFFFFFFFFFFFFFFFFFFFFFFFFF AND PUSH20 0xFFFFFFFFFFFFFFFFFFFFFFFFFFFFFFFFFFFFFFFF AND PUSH32 0x708B4D521222BB27F0672D2839E6039075F625A31020905655AFD928FC992340 PUSH0 PUSH1 0x40 MLOAD PUSH2 0x2879 SWAP2 SWAP1 PUSH2 0x64C5 JUMP JUMPDEST PUSH1 0x40 MLOAD DUP1 SWAP2 SUB SWAP1 LOG2 PUSH2 0x296F JUMP JUMPDEST PUSH1 0x7 DUP1 DUP2 GT ISZERO PUSH2 0x2899 JUMPI PUSH2 0x2898 PUSH2 0x4D20 JUMP JUMPDEST JUMPDEST DUP2 PUSH0 ADD PUSH0 SWAP1 SLOAD SWAP1 PUSH2 0x100 EXP SWAP1 DIV PUSH1 0xFF AND PUSH1 0x7 DUP2 GT ISZERO PUSH2 0x28BB JUMPI PUSH2 0x28BA PUSH2 0x4D20 JUMP JUMPDEST JUMPDEST SUB PUSH2 0x296E JUMPI PUSH2 0x28F1 DUP2 PUSH1 0x3 ADD PUSH0 SWAP1 SLOAD SWAP1 PUSH2 0x100 EXP SWAP1 DIV PUSH20 0xFFFFFFFFFFFFFFFFFFFFFFFFFFFFFFFFFFFFFFFF AND DUP3 PUSH1 0x4 ADD SLOAD PUSH2 0x42D5 JUMP JUMPDEST DUP1 PUSH1 0x4 ADD SLOAD PUSH1 0xA PUSH0 DUP3 DUP3 SLOAD PUSH2 0x2906 SWAP2 SWAP1 PUSH2 0x5C78 JUMP JUMPDEST SWAP3 POP POP DUP2 SWAP1 SSTORE POP PUSH32 0x570563F436DC733C61D3863FD95E547272964F69D7B5CFE7461360A7A5643E3C DUP2 PUSH1 0x3 ADD PUSH0 SWAP1 SLOAD SWAP1 PUSH2 0x100 EXP SWAP1 DIV PUSH20 0xFFFFFFFFFFFFFFFFFFFFFFFFFFFFFFFFFFFFFFFF AND DUP3 PUSH1 0x4 ADD SLOAD PUSH1 0x40 MLOAD PUSH2 0x2965 SWAP3 SWAP2 SWAP1 PUSH2 0x64F1 JUMP JUMPDEST PUSH1 0x40 MLOAD DUP1 SWAP2 SUB SWAP1 LOG1 JUMPDEST JUMPDEST JUMPDEST JUMPDEST JUMPDEST JUMPDEST JUMPDEST JUMPDEST PUSH2 0x297E DUP3 PUSH2 0x4354 JUMP JUMPDEST PUSH1 0xF PUSH0 DUP4 DUP2 MSTORE PUSH1 0x20 ADD SWAP1 DUP2 MSTORE PUSH1 0x20 ADD PUSH0 KECCAK256 PUSH0 PUSH0 DUP3 ADD PUSH0 PUSH2 0x100 EXP DUP2 SLOAD SWAP1 PUSH1 0xFF MUL NOT AND SWAP1 SSTORE PUSH0 DUP3 ADD PUSH1 0x1 PUSH2 0x100 EXP DUP2 SLOAD SWAP1 PUSH20 0xFFFFFFFFFFFFFFFFFFFFFFFFFFFFFFFFFFFFFFFF MUL NOT AND SWAP1 SSTORE PUSH1 0x1 DUP3 ADD PUSH0 SWAP1 SSTORE PUSH1 0x2 DUP3 ADD PUSH0 SWAP1 SSTORE PUSH1 0x3 DUP3 ADD PUSH0 PUSH2 0x100 EXP DUP2 SLOAD SWAP1 PUSH20 0xFFFFFFFFFFFFFFFFFFFFFFFFFFFFFFFFFFFFFFFF MUL NOT AND SWAP1 SSTORE PUSH1 0x4 DUP3 ADD PUSH0 SWAP1 SSTORE PUSH1 0x5 DUP3 ADD PUSH0 PUSH2 0x2A12 SWAP2 SWAP1 PUSH2 0x4C3B JUMP JUMPDEST PUSH1 0x6 DUP3 ADD PUSH0 PUSH2 0x2A21 SWAP2 SWAP1 PUSH2 0x4C78 JUMP JUMPDEST PUSH1 0x7 DUP3 ADD PUSH0 PUSH2 0x2A30 SWAP2 SWAP1 PUSH2 0x4C78 JUMP JUMPDEST PUSH1 0x8 DUP3 ADD PUSH0 PUSH2 0x100 EXP DUP2 SLOAD SWAP1 PUSH1 0xFF MUL NOT AND SWAP1 SSTORE POP POP DUP2 PUSH32 0x5B9614F21773D68C0B149BDA804FF3D491C8BC8795F7ED236CC97804CD005389 DUP3 PUSH0 ADD PUSH0 SWAP1 SLOAD SWAP1 PUSH2 0x100 EXP SWAP1 DIV PUSH1 0xFF AND PUSH1 0x40 MLOAD PUSH2 0x2A84 SWAP2 SWAP1 PUSH2 0x6518 JUMP JUMPDEST PUSH1 0x40 MLOAD DUP1 SWAP2 SUB SWAP1 LOG2 POP POP JUMP JUMPDEST PUSH2 0x2A98 PUSH2 0x3E25 JUMP JUMPDEST PUSH1 0x11 PUSH1 0x1 SWAP1 SLOAD SWAP1 PUSH2 0x100 EXP SWAP1 DIV PUSH1 0xFF AND ISZERO PUSH2 0x2AE8 JUMPI PUSH1 0x40 MLOAD PUSH32 0x8C379A000000000000000000000000000000000000000000000000000000000 DUP2 MSTORE PUSH1 0x4 ADD PUSH2 0x2ADF SWAP1 PUSH2 0x5544 JUMP JUMPDEST PUSH1 0x40 MLOAD DUP1 SWAP2 SUB SWAP1 REVERT JUMPDEST PUSH1 0x8 PUSH0 DUP3 PUSH20 0xFFFFFFFFFFFFFFFFFFFFFFFFFFFFFFFFFFFFFFFF AND PUSH20 0xFFFFFFFFFFFFFFFFFFFFFFFFFFFFFFFFFFFFFFFF AND DUP2 MSTORE PUSH1 0x20 ADD SWAP1 DUP2 MSTORE PUSH1 0x20 ADD PUSH0 KECCAK256 PUSH0 SWAP1 SLOAD SWAP1 PUSH2 0x100 EXP SWAP1 DIV PUSH1 0xFF AND PUSH2 0x2B71 JUMPI PUSH1 0x40 MLOAD PUSH32 0x8C379A000000000000000000000000000000000000000000000000000000000 DUP2 MSTORE PUSH1 0x4 ADD PUSH2 0x2B68 SWAP1 PUSH2 0x5DC5 JUMP JUMPDEST PUSH1 0x40 MLOAD DUP1 SWAP2 SUB SWAP1 REVERT JUMPDEST PUSH0 DUP3 GT PUSH2 0x2BB3 JUMPI PUSH1 0x40 MLOAD PUSH32 0x8C379A000000000000000000000000000000000000000000000000000000000 DUP2 MSTORE PUSH1 0x4 ADD PUSH2 0x2BAA SWAP1 PUSH2 0x657B JUMP JUMPDEST PUSH1 0x40 MLOAD DUP1 SWAP2 SUB SWAP1 REVERT JUMPDEST PUSH0 PUSH1 0x14 DUP4 PUSH2 0x2BC1 SWAP2 SWAP1 PUSH2 0x6599 JUMP JUMPDEST SWAP1 POP PUSH0 DUP2 GT PUSH2 0x2C05 JUMPI PUSH1 0x40 MLOAD PUSH32 0x8C379A000000000000000000000000000000000000000000000000000000000 DUP2 MSTORE PUSH1 0x4 ADD PUSH2 0x2BFC SWAP1 PUSH2 0x6624 JUMP JUMPDEST PUSH1 0x40 MLOAD DUP1 SWAP2 SUB SWAP1 REVERT JUMPDEST PUSH1 0x7 SLOAD DUP2 PUSH1 0xA SLOAD PUSH2 0x2C16 SWAP2 SWAP1 PUSH2 0x5C78 JUMP JUMPDEST GT ISZERO PUSH2 0x2C57 JUMPI PUSH1 0x40 MLOAD PUSH32 0x8C379A000000000000000000000000000000000000000000000000000000000 DUP2 MSTORE PUSH1 0x4 ADD PUSH2 0x2C4E SWAP1 PUSH2 0x668C JUMP JUMPDEST PUSH1 0x40 MLOAD DUP1 SWAP2 SUB SWAP1 REVERT JUMPDEST PUSH2 0x2C61 DUP3 DUP3 PUSH2 0x42D5 JUMP JUMPDEST DUP1 PUSH1 0xA PUSH0 DUP3 DUP3 SLOAD PUSH2 0x2C72 SWAP2 SWAP1 PUSH2 0x5C78 JUMP JUMPDEST SWAP3 POP POP DUP2 SWAP1 SSTORE POP DUP2 PUSH20 0xFFFFFFFFFFFFFFFFFFFFFFFFFFFFFFFFFFFFFFFF AND CALLER PUSH20 0xFFFFFFFFFFFFFFFFFFFFFFFFFFFFFFFFFFFFFFFF AND PUSH32 0xBADB5A53E5A7F1F292F32F4CA0C78E80D05F213DB774602ACC6FACA5AECDF6D7 DUP6 DUP5 PUSH1 0x40 MLOAD PUSH2 0x2CD8 SWAP3 SWAP2 SWAP1 PUSH2 0x66AA JUMP JUMPDEST PUSH1 0x40 MLOAD DUP1 SWAP2 SUB SWAP1 LOG3 POP PUSH2 0x2CE9 PUSH2 0x4072 JUMP JUMPDEST POP POP JUMP JUMPDEST PUSH0 PUSH2 0x2CF7 DUP3 PUSH2 0x31CC JUMP JUMPDEST SWAP1 POP SWAP2 SWAP1 POP JUMP JUMPDEST PUSH0 PUSH0 SWAP1 POP SWAP1 JUMP JUMPDEST PUSH1 0x14 DUP2 JUMP JUMPDEST PUSH0 PUSH0 SWAP1 POP SWAP2 SWAP1 POP JUMP JUMPDEST PUSH0 PUSH1 0x2 SLOAD SWAP1 POP SWAP1 JUMP JUMPDEST PUSH1 0x12 SLOAD DUP2 JUMP JUMPDEST PUSH0 PUSH1 0x11 PUSH1 0x1 SWAP1 SLOAD SWAP1 PUSH2 0x100 EXP SWAP1 DIV PUSH1 0xFF AND ISZERO PUSH2 0x2D73 JUMPI PUSH1 0x40 MLOAD PUSH32 0x8C379A000000000000000000000000000000000000000000000000000000000 DUP2 MSTORE PUSH1 0x4 ADD PUSH2 0x2D6A SWAP1 PUSH2 0x5544 JUMP JUMPDEST PUSH1 0x40 MLOAD DUP1 SWAP2 SUB SWAP1 REVERT JUMPDEST PUSH1 0x9 PUSH0 DUP6 PUSH20 0xFFFFFFFFFFFFFFFFFFFFFFFFFFFFFFFFFFFFFFFF AND PUSH20 0xFFFFFFFFFFFFFFFFFFFFFFFFFFFFFFFFFFFFFFFF AND DUP2 MSTORE PUSH1 0x20 ADD SWAP1 DUP2 MSTORE PUSH1 0x20 ADD PUSH0 KECCAK256 PUSH0 SWAP1 SLOAD SWAP1 PUSH2 0x100 EXP SWAP1 DIV PUSH1 0xFF AND ISZERO PUSH2 0x2DFD JUMPI PUSH1 0x40 MLOAD PUSH32 0x8C379A000000000000000000000000000000000000000000000000000000000 DUP2 MSTORE PUSH1 0x4 ADD PUSH2 0x2DF4 SWAP1 PUSH2 0x671B JUMP JUMPDEST PUSH1 0x40 MLOAD DUP1 SWAP2 SUB SWAP1 REVERT JUMPDEST DUP2 PUSH16 0xFFFFFFFFFFFFFFFFFFFFFFFFFFFFFFFF AND DUP3 EQ PUSH2 0x2E51 JUMPI PUSH1 0x40 MLOAD PUSH32 0x8C379A000000000000000000000000000000000000000000000000000000000 DUP2 MSTORE PUSH1 0x4 ADD PUSH2 0x2E48 SWAP1 PUSH2 0x6783 JUMP JUMPDEST PUSH1 0x40 MLOAD DUP1 SWAP2 SUB SWAP1 REVERT JUMPDEST PUSH2 0x2E5C DUP5 DUP5 DUP5 PUSH2 0x44AF JUMP JUMPDEST SWAP1 POP SWAP4 SWAP3 POP POP POP JUMP JUMPDEST PUSH1 0xA SLOAD DUP2 JUMP JUMPDEST PUSH1 0x3 DUP2 JUMP JUMPDEST PUSH1 0x5 DUP2 JUMP JUMPDEST PUSH0 PUSH0 SWAP1 POP SWAP1 JUMP JUMPDEST PUSH1 0xD PUSH1 0x20 MSTORE DUP2 PUSH0 MSTORE PUSH1 0x40 PUSH0 KECCAK256 PUSH1 0x20 MSTORE DUP1 PUSH0 MSTORE PUSH1 0x40 PUSH0 KECCAK256 PUSH0 SWAP2 POP SWAP2 POP SWAP1 SLOAD SWAP1 PUSH2 0x100 EXP SWAP1 DIV PUSH1 0xFF AND DUP2 JUMP JUMPDEST PUSH1 0xC PUSH0 CALLER PUSH20 0xFFFFFFFFFFFFFFFFFFFFFFFFFFFFFFFFFFFFFFFF AND PUSH20 0xFFFFFFFFFFFFFFFFFFFFFFFFFFFFFFFFFFFFFFFF AND DUP2 MSTORE PUSH1 0x20 ADD SWAP1 DUP2 MSTORE PUSH1 0x20 ADD PUSH0 KECCAK256 PUSH0 SWAP1 SLOAD SWAP1 PUSH2 0x100 EXP SWAP1 DIV PUSH1 0xFF AND PUSH2 0x2F2F JUMPI PUSH1 0x40 MLOAD PUSH32 0x8C379A000000000000000000000000000000000000000000000000000000000 DUP2 MSTORE PUSH1 0x4 ADD PUSH2 0x2F26 SWAP1 PUSH2 0x55AC JUMP JUMPDEST PUSH1 0x40 MLOAD DUP1 SWAP2 SUB SWAP1 REVERT JUMPDEST PUSH1 0x11 PUSH1 0x1 SWAP1 SLOAD SWAP1 PUSH2 0x100 EXP SWAP1 DIV PUSH1 0xFF AND ISZERO PUSH2 0x2F7F JUMPI PUSH1 0x40 MLOAD PUSH32 0x8C379A000000000000000000000000000000000000000000000000000000000 DUP2 MSTORE PUSH1 0x4 ADD PUSH2 0x2F76 SWAP1 PUSH2 0x5544 JUMP JUMPDEST PUSH1 0x40 MLOAD DUP1 SWAP2 SUB SWAP1 REVERT JUMPDEST PUSH1 0x1 PUSH1 0x11 PUSH1 0x1 PUSH2 0x100 EXP DUP2 SLOAD DUP2 PUSH1 0xFF MUL NOT AND SWAP1 DUP4 ISZERO ISZERO MUL OR SWAP1 SSTORE POP PUSH32 0xAB35696F06E428EBC5CEBA8CD17F8FED287BAF43440206D1943AF1EE53E6D267 PUSH1 0x40 MLOAD PUSH1 0x40 MLOAD DUP1 SWAP2 SUB SWAP1 LOG1 JUMP JUMPDEST PUSH1 0x60 PUSH1 0x40 MLOAD DUP1 PUSH1 0x40 ADD PUSH1 0x40 MSTORE DUP1 PUSH1 0x5 DUP2 MSTORE PUSH1 0x20 ADD PUSH32 0x312E302E30000000000000000000000000000000000000000000000000000000 DUP2 MSTORE POP SWAP1 POP SWAP1 JUMP JUMPDEST PUSH1 0x60 PUSH0 PUSH0 SWAP1 POP PUSH0 PUSH0 SWAP1 POP JUMPDEST PUSH1 0x10 SLOAD DUP2 LT ISZERO PUSH2 0x305C JUMPI PUSH1 0xF PUSH0 DUP3 DUP2 MSTORE PUSH1 0x20 ADD SWAP1 DUP2 MSTORE PUSH1 0x20 ADD PUSH0 KECCAK256 PUSH1 0x8 ADD PUSH0 SWAP1 SLOAD SWAP1 PUSH2 0x100 EXP SWAP1 DIV PUSH1 0xFF AND ISZERO PUSH2 0x304F JUMPI DUP2 DUP1 PUSH2 0x304B SWAP1 PUSH2 0x572F JUMP JUMPDEST SWAP3 POP POP JUMPDEST DUP1 DUP1 PUSH1 0x1 ADD SWAP2 POP POP PUSH2 0x3010 JUMP JUMPDEST POP DUP1 PUSH8 0xFFFFFFFFFFFFFFFF DUP2 GT ISZERO PUSH2 0x3077 JUMPI PUSH2 0x3076 PUSH2 0x4EF2 JUMP JUMPDEST JUMPDEST PUSH1 0x40 MLOAD SWAP1 DUP1 DUP3 MSTORE DUP1 PUSH1 0x20 MUL PUSH1 0x20 ADD DUP3 ADD PUSH1 0x40 MSTORE DUP1 ISZERO PUSH2 0x30A5 JUMPI DUP2 PUSH1 0x20 ADD PUSH1 0x20 DUP3 MUL DUP1 CALLDATASIZE DUP4 CALLDATACOPY DUP1 DUP3 ADD SWAP2 POP POP SWAP1 POP JUMPDEST POP SWAP2 POP PUSH0 PUSH0 SWAP1 POP PUSH0 PUSH0 SWAP1 POP JUMPDEST PUSH1 0x10 SLOAD DUP2 LT ISZERO PUSH2 0x311D JUMPI PUSH1 0xF PUSH0 DUP3 DUP2 MSTORE PUSH1 0x20 ADD SWAP1 DUP2 MSTORE PUSH1 0x20 ADD PUSH0 KECCAK256 PUSH1 0x8 ADD PUSH0 SWAP1 SLOAD SWAP1 PUSH2 0x100 EXP SWAP1 DIV PUSH1 0xFF AND ISZERO PUSH2 0x3110 JUMPI DUP1 DUP5 DUP4 DUP2 MLOAD DUP2 LT PUSH2 0x30F5 JUMPI PUSH2 0x30F4 PUSH2 0x5B7B JUMP JUMPDEST JUMPDEST PUSH1 0x20 MUL PUSH1 0x20 ADD ADD DUP2 DUP2 MSTORE POP POP DUP2 DUP1 PUSH2 0x310C SWAP1 PUSH2 0x572F JUMP JUMPDEST SWAP3 POP POP JUMPDEST DUP1 DUP1 PUSH1 0x1 ADD SWAP2 POP POP PUSH2 0x30B1 JUMP JUMPDEST POP POP POP SWAP1 JUMP JUMPDEST PUSH0 PUSH1 0x11 PUSH1 0x1 SWAP1 SLOAD SWAP1 PUSH2 0x100 EXP SWAP1 DIV PUSH1 0xFF AND SWAP1 POP SWAP1 JUMP JUMPDEST PUSH0 PUSH0 SWAP1 POP SWAP1 JUMP JUMPDEST PUSH1 0xB DUP1 SLOAD PUSH2 0x314D SWAP1 PUSH2 0x580B JUMP JUMPDEST DUP1 PUSH1 0x1F ADD PUSH1 0x20 DUP1 SWAP2 DIV MUL PUSH1 0x20 ADD PUSH1 0x40 MLOAD SWAP1 DUP2 ADD PUSH1 0x40 MSTORE DUP1 SWAP3 SWAP2 SWAP1 DUP2 DUP2 MSTORE PUSH1 0x20 ADD DUP3 DUP1 SLOAD PUSH2 0x3179 SWAP1 PUSH2 0x580B JUMP JUMPDEST DUP1 ISZERO PUSH2 0x31C4 JUMPI DUP1 PUSH1 0x1F LT PUSH2 0x319B JUMPI PUSH2 0x100 DUP1 DUP4 SLOAD DIV MUL DUP4 MSTORE SWAP2 PUSH1 0x20 ADD SWAP2 PUSH2 0x31C4 JUMP JUMPDEST DUP3 ADD SWAP2 SWAP1 PUSH0 MSTORE PUSH1 0x20 PUSH0 KECCAK256 SWAP1 JUMPDEST DUP2 SLOAD DUP2 MSTORE SWAP1 PUSH1 0x1 ADD SWAP1 PUSH1 0x20 ADD DUP1 DUP4 GT PUSH2 0x31A7 JUMPI DUP3 SWAP1 SUB PUSH1 0x1F AND DUP3 ADD SWAP2 JUMPDEST POP POP POP POP POP DUP2 JUMP JUMPDEST PUSH0 PUSH0 PUSH0 DUP4 PUSH20 0xFFFFFFFFFFFFFFFFFFFFFFFFFFFFFFFFFFFFFFFF AND PUSH20 0xFFFFFFFFFFFFFFFFFFFFFFFFFFFFFFFFFFFFFFFF AND DUP2 MSTORE PUSH1 0x20 ADD SWAP1 DUP2 MSTORE PUSH1 0x20 ADD PUSH0 KECCAK256 SLOAD SWAP1 POP SWAP2 SWAP1 POP JUMP JUMPDEST PUSH2 0x3219 PUSH2 0x44DD JUMP JUMPDEST PUSH2 0x3222 PUSH0 PUSH2 0x4564 JUMP JUMPDEST JUMP JUMPDEST PUSH1 0xE DUP2 DUP2 SLOAD DUP2 LT PUSH2 0x3233 JUMPI PUSH0 DUP1 REVERT JUMPDEST SWAP1 PUSH0 MSTORE PUSH1 0x20 PUSH0 KECCAK256 ADD PUSH0 SWAP2 POP SLOAD SWAP1 PUSH2 0x100 EXP SWAP1 DIV PUSH20 0xFFFFFFFFFFFFFFFFFFFFFFFFFFFFFFFFFFFFFFFF AND DUP2 JUMP JUMPDEST PUSH2 0x3267 PUSH2 0x44DD JUMP JUMPDEST PUSH0 PUSH1 0x11 PUSH0 PUSH2 0x100 EXP DUP2 SLOAD DUP2 PUSH1 0xFF MUL NOT AND SWAP1 DUP4 ISZERO ISZERO MUL OR SWAP1 SSTORE POP PUSH32 0x8F69EF9279BFB1FE5F4F75790947A23FA88774E98242B966BCAAF7D25E8B3C16 PUSH1 0x40 MLOAD PUSH1 0x40 MLOAD DUP1 SWAP2 SUB SWAP1 LOG1 JUMP JUMPDEST PUSH2 0x384 DUP2 JUMP JUMPDEST PUSH1 0x11 PUSH1 0x1 SWAP1 SLOAD SWAP1 PUSH2 0x100 EXP SWAP1 DIV PUSH1 0xFF AND ISZERO PUSH2 0x3304 JUMPI PUSH1 0x40 MLOAD PUSH32 0x8C379A000000000000000000000000000000000000000000000000000000000 DUP2 MSTORE PUSH1 0x4 ADD PUSH2 0x32FB SWAP1 PUSH2 0x5544 JUMP JUMPDEST PUSH1 0x40 MLOAD DUP1 SWAP2 SUB SWAP1 REVERT JUMPDEST PUSH1 0xC PUSH0 CALLER PUSH20 0xFFFFFFFFFFFFFFFFFFFFFFFFFFFFFFFFFFFFFFFF AND PUSH20 0xFFFFFFFFFFFFFFFFFFFFFFFFFFFFFFFFFFFFFFFF AND DUP2 MSTORE PUSH1 0x20 ADD SWAP1 DUP2 MSTORE PUSH1 0x20 ADD PUSH0 KECCAK256 PUSH0 SWAP1 SLOAD SWAP1 PUSH2 0x100 EXP SWAP1 DIV PUSH1 0xFF AND PUSH2 0x338D JUMPI PUSH1 0x40 MLOAD PUSH32 0x8C379A000000000000000000000000000000000000000000000000000000000 DUP2 MSTORE PUSH1 0x4 ADD PUSH2 0x3384 SWAP1 PUSH2 0x55AC JUMP JUMPDEST PUSH1 0x40 MLOAD DUP1 SWAP2 SUB SWAP1 REVERT JUMPDEST PUSH2 0x12C PUSH1 0x12 SLOAD PUSH2 0x339D SWAP2 SWAP1 PUSH2 0x5C78 JUMP JUMPDEST TIMESTAMP LT ISZERO PUSH2 0x33DF JUMPI PUSH1 0x40 MLOAD PUSH32 0x8C379A000000000000000000000000000000000000000000000000000000000 DUP2 MSTORE PUSH1 0x4 ADD PUSH2 0x33D6 SWAP1 PUSH2 0x67EB JUMP JUMPDEST PUSH1 0x40 MLOAD DUP1 SWAP2 SUB SWAP1 REVERT JUMPDEST PUSH1 0x7 SLOAD PUSH8 0xDE0B6B3A7640000 PUSH1 0xA SLOAD PUSH2 0x33F8 SWAP2 SWAP1 PUSH2 0x5C78 JUMP JUMPDEST GT ISZERO PUSH2 0x3439 JUMPI PUSH1 0x40 MLOAD PUSH32 0x8C379A000000000000000000000000000000000000000000000000000000000 DUP2 MSTORE PUSH1 0x4 ADD PUSH2 0x3430 SWAP1 PUSH2 0x668C JUMP JUMPDEST PUSH1 0x40 MLOAD DUP1 SWAP2 SUB SWAP1 REVERT JUMPDEST TIMESTAMP PUSH1 0x12 DUP2 SWAP1 SSTORE POP PUSH32 0x90596CA0CB29EF99CD530E572920440D7D040408F92C28E46836FE9E048F59D8 PUSH8 0xDE0B6B3A7640000 PUSH1 0x40 MLOAD PUSH2 0x3477 SWAP2 SWAP1 PUSH2 0x50BF JUMP JUMPDEST PUSH1 0x40 MLOAD DUP1 SWAP2 SUB SWAP1 LOG1 JUMP JUMPDEST PUSH1 0x11 PUSH1 0x1 SWAP1 SLOAD SWAP1 PUSH2 0x100 EXP SWAP1 DIV PUSH1 0xFF AND DUP2 JUMP JUMPDEST PUSH0 PUSH1 0x5 PUSH0 SWAP1 SLOAD SWAP1 PUSH2 0x100 EXP SWAP1 DIV PUSH20 0xFFFFFFFFFFFFFFFFFFFFFFFFFFFFFFFFFFFFFFFF AND SWAP1 POP SWAP1 JUMP JUMPDEST PUSH1 0x7 SLOAD DUP2 JUMP JUMPDEST PUSH1 0x60 PUSH1 0x4 DUP1 SLOAD PUSH2 0x34D1 SWAP1 PUSH2 0x580B JUMP JUMPDEST DUP1 PUSH1 0x1F ADD PUSH1 0x20 DUP1 SWAP2 DIV MUL PUSH1 0x20 ADD PUSH1 0x40 MLOAD SWAP1 DUP2 ADD PUSH1 0x40 MSTORE DUP1 SWAP3 SWAP2 SWAP1 DUP2 DUP2 MSTORE PUSH1 0x20 ADD DUP3 DUP1 SLOAD PUSH2 0x34FD SWAP1 PUSH2 0x580B JUMP JUMPDEST DUP1 ISZERO PUSH2 0x3548 JUMPI DUP1 PUSH1 0x1F LT PUSH2 0x351F JUMPI PUSH2 0x100 DUP1 DUP4 SLOAD DIV MUL DUP4 MSTORE SWAP2 PUSH1 0x20 ADD SWAP2 PUSH2 0x3548 JUMP JUMPDEST DUP3 ADD SWAP2 SWAP1 PUSH0 MSTORE PUSH1 0x20 PUSH0 KECCAK256 SWAP1 JUMPDEST DUP2 SLOAD DUP2 MSTORE SWAP1 PUSH1 0x1 ADD SWAP1 PUSH1 0x20 ADD DUP1 DUP4 GT PUSH2 0x352B JUMPI DUP3 SWAP1 SUB PUSH1 0x1F AND DUP3 ADD SWAP2 JUMPDEST POP POP POP POP POP SWAP1 POP SWAP1 JUMP JUMPDEST PUSH1 0x8 PUSH1 0x20 MSTORE DUP1 PUSH0 MSTORE PUSH1 0x40 PUSH0 KECCAK256 PUSH0 SWAP2 POP SLOAD SWAP1 PUSH2 0x100 EXP SWAP1 DIV PUSH1 0xFF AND DUP2 JUMP JUMPDEST PUSH1 0xC PUSH1 0x20 MSTORE DUP1 PUSH0 MSTORE PUSH1 0x40 PUSH0 KECCAK256 PUSH0 SWAP2 POP SLOAD SWAP1 PUSH2 0x100 EXP SWAP1 DIV PUSH1 0xFF AND DUP2 JUMP JUMPDEST PUSH0 PUSH1 0x11 PUSH1 0x1 SWAP1 SLOAD SWAP1 PUSH2 0x100 EXP SWAP1 DIV PUSH1 0xFF AND ISZERO PUSH2 0x35DD JUMPI PUSH1 0x40 MLOAD PUSH32 0x8C379A000000000000000000000000000000000000000000000000000000000 DUP2 MSTORE PUSH1 0x4 ADD PUSH2 0x35D4 SWAP1 PUSH2 0x5544 JUMP JUMPDEST PUSH1 0x40 MLOAD DUP1 SWAP2 SUB SWAP1 REVERT JUMPDEST PUSH1 0x9 PUSH0 CALLER PUSH20 0xFFFFFFFFFFFFFFFFFFFFFFFFFFFFFFFFFFFFFFFF AND PUSH20 0xFFFFFFFFFFFFFFFFFFFFFFFFFFFFFFFFFFFFFFFF AND DUP2 MSTORE PUSH1 0x20 ADD SWAP1 DUP2 MSTORE PUSH1 0x20 ADD PUSH0 KECCAK256 PUSH0 SWAP1 SLOAD SWAP1 PUSH2 0x100 EXP SWAP1 DIV PUSH1 0xFF AND ISZERO PUSH2 0x3667 JUMPI PUSH1 0x40 MLOAD PUSH32 0x8C379A000000000000000000000000000000000000000000000000000000000 DUP2 MSTORE PUSH1 0x4 ADD PUSH2 0x365E SWAP1 PUSH2 0x671B JUMP JUMPDEST PUSH1 0x40 MLOAD DUP1 SWAP2 SUB SWAP1 REVERT JUMPDEST DUP2 PUSH16 0xFFFFFFFFFFFFFFFFFFFFFFFFFFFFFFFF AND DUP3 EQ PUSH2 0x36BB JUMPI PUSH1 0x40 MLOAD PUSH32 0x8C379A000000000000000000000000000000000000000000000000000000000 DUP2 MSTORE PUSH1 0x4 ADD PUSH2 0x36B2 SWAP1 PUSH2 0x6783 JUMP JUMPDEST PUSH1 0x40 MLOAD DUP1 SWAP2 SUB SWAP1 REVERT JUMPDEST PUSH2 0x36C5 DUP4 DUP4 PUSH2 0x4627 JUMP JUMPDEST SWAP1 POP SWAP3 SWAP2 POP POP JUMP JUMPDEST PUSH0 ADDRESS SWAP1 POP SWAP1 JUMP JUMPDEST PUSH1 0x13 SLOAD DUP2 JUMP JUMPDEST PUSH1 0x11 PUSH0 SWAP1 SLOAD SWAP1 PUSH2 0x100 EXP SWAP1 DIV PUSH1 0xFF AND DUP2 JUMP JUMPDEST PUSH9 0x56BC75E2D63100000 DUP2 JUMP JUMPDEST PUSH0 PUSH0 PUSH1 0x10 SLOAD GT PUSH2 0x3709 JUMPI PUSH0 PUSH2 0x3719 JUMP JUMPDEST PUSH1 0x1 PUSH1 0x10 SLOAD PUSH2 0x3718 SWAP2 SWAP1 PUSH2 0x6809 JUMP JUMPDEST JUMPDEST SWAP1 POP SWAP1 JUMP JUMPDEST PUSH1 0xC PUSH0 CALLER PUSH20 0xFFFFFFFFFFFFFFFFFFFFFFFFFFFFFFFFFFFFFFFF AND PUSH20 0xFFFFFFFFFFFFFFFFFFFFFFFFFFFFFFFFFFFFFFFF AND DUP2 MSTORE PUSH1 0x20 ADD SWAP1 DUP2 MSTORE PUSH1 0x20 ADD PUSH0 KECCAK256 PUSH0 SWAP1 SLOAD SWAP1 PUSH2 0x100 EXP SWAP1 DIV PUSH1 0xFF AND PUSH2 0x37A7 JUMPI PUSH1 0x40 MLOAD PUSH32 0x8C379A000000000000000000000000000000000000000000000000000000000 DUP2 MSTORE PUSH1 0x4 ADD PUSH2 0x379E SWAP1 PUSH2 0x55AC JUMP JUMPDEST PUSH1 0x40 MLOAD DUP1 SWAP2 SUB SWAP1 REVERT JUMPDEST PUSH0 PUSH1 0x11 PUSH1 0x1 PUSH2 0x100 EXP DUP2 SLOAD DUP2 PUSH1 0xFF MUL NOT AND SWAP1 DUP4 ISZERO ISZERO MUL OR SWAP1 SSTORE POP PUSH32 0xAB5F6DACF93A267A93A533DE8A56370DE8341BBD8102017307E7BE375C3DDA6A PUSH1 0x40 MLOAD PUSH1 0x40 MLOAD DUP1 SWAP2 SUB SWAP1 LOG1 JUMP JUMPDEST PUSH2 0x37F7 PUSH2 0x3E25 JUMP JUMPDEST PUSH1 0x11 PUSH1 0x1 SWAP1 SLOAD SWAP1 PUSH2 0x100 EXP SWAP1 DIV PUSH1 0xFF AND ISZERO PUSH2 0x3847 JUMPI PUSH1 0x40 MLOAD PUSH32 0x8C379A000000000000000000000000000000000000000000000000000000000 DUP2 MSTORE PUSH1 0x4 ADD PUSH2 0x383E SWAP1 PUSH2 0x5544 JUMP JUMPDEST PUSH1 0x40 MLOAD DUP1 SWAP2 SUB SWAP1 REVERT JUMPDEST PUSH2 0x384 PUSH1 0x13 SLOAD PUSH2 0x3857 SWAP2 SWAP1 PUSH2 0x5C78 JUMP JUMPDEST TIMESTAMP LT ISZERO PUSH2 0x3899 JUMPI PUSH1 0x40 MLOAD PUSH32 0x8C379A000000000000000000000000000000000000000000000000000000000 DUP2 MSTORE PUSH1 0x4 ADD PUSH2 0x3890 SWAP1 PUSH2 0x68AC JUMP JUMPDEST PUSH1 0x40 MLOAD DUP1 SWAP2 SUB SWAP1 REVERT JUMPDEST PUSH2 0x38AC DUP2 PUSH9 0x56BC75E2D63100000 PUSH2 0x3E74 JUMP JUMPDEST TIMESTAMP PUSH1 0x13 DUP2 SWAP1 SSTORE POP DUP1 PUSH1 0x40 MLOAD PUSH2 0x38C1 SWAP2 SWAP1 PUSH2 0x58EC JUMP JUMPDEST PUSH1 0x40 MLOAD DUP1 SWAP2 SUB SWAP1 KECCAK256 PUSH32 0xC2AEAD9CF0EE95E5F48D316DB6ADCF05801AEC50B3029BF8AFCD0C2FAF73B12D PUSH9 0x56BC75E2D63100000 PUSH1 0x1 PUSH1 0x40 MLOAD PUSH2 0x3904 SWAP3 SWAP2 SWAP1 PUSH2 0x5902 JUMP JUMPDEST PUSH1 0x40 MLOAD DUP1 SWAP2 SUB SWAP1 LOG2 PUSH2 0x3914 PUSH2 0x4072 JUMP JUMPDEST POP JUMP JUMPDEST PUSH1 0x9 PUSH1 0x20 MSTORE DUP1 PUSH0 MSTORE PUSH1 0x40 PUSH0 KECCAK256 PUSH0 SWAP2 POP SLOAD SWAP1 PUSH2 0x100 EXP SWAP1 DIV PUSH1 0xFF AND DUP2 JUMP JUMPDEST PUSH0 PUSH1 0xA SLOAD PUSH1 0x7 SLOAD PUSH2 0x3945 SWAP2 SWAP1 PUSH2 0x6809 JUMP JUMPDEST SWAP1 POP SWAP1 JUMP JUMPDEST PUSH0 PUSH1 0x1 PUSH0 DUP5 PUSH20 0xFFFFFFFFFFFFFFFFFFFFFFFFFFFFFFFFFFFFFFFF AND PUSH20 0xFFFFFFFFFFFFFFFFFFFFFFFFFFFFFFFFFFFFFFFF AND DUP2 MSTORE PUSH1 0x20 ADD SWAP1 DUP2 MSTORE PUSH1 0x20 ADD PUSH0 KECCAK256 PUSH0 DUP4 PUSH20 0xFFFFFFFFFFFFFFFFFFFFFFFFFFFFFFFFFFFFFFFF AND PUSH20 0xFFFFFFFFFFFFFFFFFFFFFFFFFFFFFFFFFFFFFFFF AND DUP2 MSTORE PUSH1 0x20 ADD SWAP1 DUP2 MSTORE PUSH1 0x20 ADD PUSH0 KECCAK256 SLOAD SWAP1 POP SWAP3 SWAP2 POP POP JUMP JUMPDEST PUSH1 0x11 PUSH1 0x1 SWAP1 SLOAD SWAP1 PUSH2 0x100 EXP SWAP1 DIV PUSH1 0xFF AND ISZERO PUSH2 0x3A1C JUMPI PUSH1 0x40 MLOAD PUSH32 0x8C379A000000000000000000000000000000000000000000000000000000000 DUP2 MSTORE PUSH1 0x4 ADD PUSH2 0x3A13 SWAP1 PUSH2 0x5544 JUMP JUMPDEST PUSH1 0x40 MLOAD DUP1 SWAP2 SUB SWAP1 REVERT JUMPDEST PUSH0 PUSH1 0xF PUSH0 DUP4 DUP2 MSTORE PUSH1 0x20 ADD SWAP1 DUP2 MSTORE PUSH1 0x20 ADD PUSH0 KECCAK256 SWAP1 POP DUP1 PUSH1 0x8 ADD PUSH0 SWAP1 SLOAD SWAP1 PUSH2 0x100 EXP SWAP1 DIV PUSH1 0xFF AND PUSH2 0x3A80 JUMPI PUSH1 0x40 MLOAD PUSH32 0x8C379A000000000000000000000000000000000000000000000000000000000 DUP2 MSTORE PUSH1 0x4 ADD PUSH2 0x3A77 SWAP1 PUSH2 0x5614 JUMP JUMPDEST PUSH1 0x40 MLOAD DUP1 SWAP2 SUB SWAP1 REVERT JUMPDEST DUP1 PUSH0 ADD PUSH1 0x1 SWAP1 SLOAD SWAP1 PUSH2 0x100 EXP SWAP1 DIV PUSH20 0xFFFFFFFFFFFFFFFFFFFFFFFFFFFFFFFFFFFFFFFF AND PUSH20 0xFFFFFFFFFFFFFFFFFFFFFFFFFFFFFFFFFFFFFFFF AND CALLER PUSH20 0xFFFFFFFFFFFFFFFFFFFFFFFFFFFFFFFFFFFFFFFF AND EQ PUSH2 0x3B11 JUMPI PUSH1 0x40 MLOAD PUSH32 0x8C379A000000000000000000000000000000000000000000000000000000000 DUP2 MSTORE PUSH1 0x4 ADD PUSH2 0x3B08 SWAP1 PUSH2 0x6914 JUMP JUMPDEST PUSH1 0x40 MLOAD DUP1 SWAP2 SUB SWAP1 REVERT JUMPDEST PUSH1 0x2 PUSH1 0x7 DUP2 GT ISZERO PUSH2 0x3B25 JUMPI PUSH2 0x3B24 PUSH2 0x4D20 JUMP JUMPDEST JUMPDEST DUP2 PUSH0 ADD PUSH0 SWAP1 SLOAD SWAP1 PUSH2 0x100 EXP SWAP1 DIV PUSH1 0xFF AND PUSH1 0x7 DUP2 GT ISZERO PUSH2 0x3B47 JUMPI PUSH2 0x3B46 PUSH2 0x4D20 JUMP JUMPDEST JUMPDEST GT ISZERO PUSH2 0x3B88 JUMPI PUSH1 0x40 MLOAD PUSH32 0x8C379A000000000000000000000000000000000000000000000000000000000 DUP2 MSTORE PUSH1 0x4 ADD PUSH2 0x3B7F SWAP1 PUSH2 0x697C JUMP JUMPDEST PUSH1 0x40 MLOAD DUP1 SWAP2 SUB SWAP1 REVERT JUMPDEST DUP1 PUSH1 0x2 ADD SLOAD TIMESTAMP LT PUSH2 0x3BCE JUMPI PUSH1 0x40 MLOAD PUSH32 0x8C379A000000000000000000000000000000000000000000000000000000000 DUP2 MSTORE PUSH1 0x4 ADD PUSH2 0x3BC5 SWAP1 PUSH2 0x69E4 JUMP JUMPDEST PUSH1 0x40 MLOAD DUP1 SWAP2 SUB SWAP1 REVERT JUMPDEST PUSH2 0x3BD7 DUP3 PUSH2 0x4354 JUMP JUMPDEST PUSH0 DUP2 PUSH0 ADD PUSH0 SWAP1 SLOAD SWAP1 PUSH2 0x100 EXP SWAP1 DIV PUSH1 0xFF AND SWAP1 POP PUSH1 0xF PUSH0 DUP5 DUP2 MSTORE PUSH1 0x20 ADD SWAP1 DUP2 MSTORE PUSH1 0x20 ADD PUSH0 KECCAK256 PUSH0 PUSH0 DUP3 ADD PUSH0 PUSH2 0x100 EXP DUP2 SLOAD SWAP1 PUSH1 0xFF MUL NOT AND SWAP1 SSTORE PUSH0 DUP3 ADD PUSH1 0x1 PUSH2 0x100 EXP DUP2 SLOAD SWAP1 PUSH20 0xFFFFFFFFFFFFFFFFFFFFFFFFFFFFFFFFFFFFFFFF MUL NOT AND SWAP1 SSTORE PUSH1 0x1 DUP3 ADD PUSH0 SWAP1 SSTORE PUSH1 0x2 DUP3 ADD PUSH0 SWAP1 SSTORE PUSH1 0x3 DUP3 ADD PUSH0 PUSH2 0x100 EXP DUP2 SLOAD SWAP1 PUSH20 0xFFFFFFFFFFFFFFFFFFFFFFFFFFFFFFFFFFFFFFFF MUL NOT AND SWAP1 SSTORE PUSH1 0x4 DUP3 ADD PUSH0 SWAP1 SSTORE PUSH1 0x5 DUP3 ADD PUSH0 PUSH2 0x3C7E SWAP2 SWAP1 PUSH2 0x4C3B JUMP JUMPDEST PUSH1 0x6 DUP3 ADD PUSH0 PUSH2 0x3C8D SWAP2 SWAP1 PUSH2 0x4C78 JUMP JUMPDEST PUSH1 0x7 DUP3 ADD PUSH0 PUSH2 0x3C9C SWAP2 SWAP1 PUSH2 0x4C78 JUMP JUMPDEST PUSH1 0x8 DUP3 ADD PUSH0 PUSH2 0x100 EXP DUP2 SLOAD SWAP1 PUSH1 0xFF MUL NOT AND SWAP1 SSTORE POP POP DUP3 PUSH32 0x89616A339342F36E4DCECC713F695BCBFE35FEA112C4C652DA7E1656BD486CE8 DUP3 PUSH1 0x40 MLOAD PUSH2 0x3CE1 SWAP2 SWAP1 PUSH2 0x6518 JUMP JUMPDEST PUSH1 0x40 MLOAD DUP1 SWAP2 SUB SWAP1 LOG2 POP POP POP JUMP JUMPDEST PUSH0 PUSH1 0x9 PUSH0 DUP4 PUSH20 0xFFFFFFFFFFFFFFFFFFFFFFFFFFFFFFFFFFFFFFFF AND PUSH20 0xFFFFFFFFFFFFFFFFFFFFFFFFFFFFFFFFFFFFFFFF AND DUP2 MSTORE PUSH1 0x20 ADD SWAP1 DUP2 MSTORE PUSH1 0x20 ADD PUSH0 KECCAK256 PUSH0 SWAP1 SLOAD SWAP1 PUSH2 0x100 EXP SWAP1 DIV PUSH1 0xFF AND SWAP1 POP SWAP2 SWAP1 POP JUMP JUMPDEST PUSH2 0x3D48 PUSH2 0x44DD JUMP JUMPDEST PUSH0 PUSH20 0xFFFFFFFFFFFFFFFFFFFFFFFFFFFFFFFFFFFFFFFF AND DUP2 PUSH20 0xFFFFFFFFFFFFFFFFFFFFFFFFFFFFFFFFFFFFFFFF AND SUB PUSH2 0x3DB8 JUMPI PUSH0 PUSH1 0x40 MLOAD PUSH32 0x1E4FBDF700000000000000000000000000000000000000000000000000000000 DUP2 MSTORE PUSH1 0x4 ADD PUSH2 0x3DAF SWAP2 SWAP1 PUSH2 0x5348 JUMP JUMPDEST PUSH1 0x40 MLOAD DUP1 SWAP2 SUB SWAP1 REVERT JUMPDEST PUSH2 0x3DC1 DUP2 PUSH2 0x4564 JUMP JUMPDEST POP JUMP JUMPDEST PUSH1 0x2 DUP2 JUMP JUMPDEST PUSH2 0x3DD1 PUSH2 0x44DD JUMP JUMPDEST PUSH1 0x1 PUSH1 0x11 PUSH0 PUSH2 0x100 EXP DUP2 SLOAD DUP2 PUSH1 0xFF MUL NOT AND SWAP1 DUP4 ISZERO ISZERO MUL OR SWAP1 SSTORE POP PUSH32 0x20C53179FE7C6306D9D1C279D52BAE5E736F5E1178137542D3A7A9D1752691BE PUSH1 0x40 MLOAD PUSH1 0x40 MLOAD DUP1 SWAP2 SUB SWAP1 LOG1 JUMP JUMPDEST PUSH8 0xDE0B6B3A7640000 DUP2 JUMP JUMPDEST PUSH1 0x2 PUSH1 0x6 SLOAD SUB PUSH2 0x3E6A JUMPI PUSH1 0x40 MLOAD PUSH32 0x8C379A000000000000000000000000000000000000000000000000000000000 DUP2 MSTORE PUSH1 0x4 ADD PUSH2 0x3E61 SWAP1 PUSH2 0x6A4C JUMP JUMPDEST PUSH1 0x40 MLOAD DUP1 SWAP2 SUB SWAP1 REVERT JUMPDEST PUSH1 0x2 PUSH1 0x6 DUP2 SWAP1 SSTORE POP JUMP JUMPDEST PUSH0 DUP3 MLOAD GT PUSH2 0x3EB7 JUMPI PUSH1 0x40 MLOAD PUSH32 0x8C379A000000000000000000000000000000000000000000000000000000000 DUP2 MSTORE PUSH1 0x4 ADD PUSH2 0x3EAE SWAP1 PUSH2 0x6AB4 JUMP JUMPDEST PUSH1 0x40 MLOAD DUP1 SWAP2 SUB SWAP1 REVERT JUMPDEST PUSH0 DUP2 DUP4 MLOAD PUSH2 0x3EC5 SWAP2 SWAP1 PUSH2 0x6599 JUMP JUMPDEST SWAP1 POP PUSH1 0x7 SLOAD DUP2 PUSH1 0xA SLOAD PUSH2 0x3ED8 SWAP2 SWAP1 PUSH2 0x5C78 JUMP JUMPDEST GT ISZERO PUSH2 0x3F19 JUMPI PUSH1 0x40 MLOAD PUSH32 0x8C379A000000000000000000000000000000000000000000000000000000000 DUP2 MSTORE PUSH1 0x4 ADD PUSH2 0x3F10 SWAP1 PUSH2 0x668C JUMP JUMPDEST PUSH1 0x40 MLOAD DUP1 SWAP2 SUB SWAP1 REVERT JUMPDEST PUSH0 PUSH0 SWAP1 POP JUMPDEST DUP4 MLOAD DUP2 LT ISZERO PUSH2 0x4054 JUMPI PUSH0 DUP5 DUP3 DUP2 MLOAD DUP2 LT PUSH2 0x3F3B JUMPI PUSH2 0x3F3A PUSH2 0x5B7B JUMP JUMPDEST JUMPDEST PUSH1 0x20 MUL PUSH1 0x20 ADD ADD MLOAD SWAP1 POP PUSH0 PUSH20 0xFFFFFFFFFFFFFFFFFFFFFFFFFFFFFFFFFFFFFFFF AND DUP2 PUSH20 0xFFFFFFFFFFFFFFFFFFFFFFFFFFFFFFFFFFFFFFFF AND SUB PUSH2 0x3FB3 JUMPI PUSH1 0x40 MLOAD PUSH32 0x8C379A000000000000000000000000000000000000000000000000000000000 DUP2 MSTORE PUSH1 0x4 ADD PUSH2 0x3FAA SWAP1 PUSH2 0x6B1C JUMP JUMPDEST PUSH1 0x40 MLOAD DUP1 SWAP2 SUB SWAP1 REVERT JUMPDEST PUSH1 0x8 PUSH0 DUP3 PUSH20 0xFFFFFFFFFFFFFFFFFFFFFFFFFFFFFFFFFFFFFFFF AND PUSH20 0xFFFFFFFFFFFFFFFFFFFFFFFFFFFFFFFFFFFFFFFF AND DUP2 MSTORE PUSH1 0x20 ADD SWAP1 DUP2 MSTORE PUSH1 0x20 ADD PUSH0 KECCAK256 PUSH0 SWAP1 SLOAD SWAP1 PUSH2 0x100 EXP SWAP1 DIV PUSH1 0xFF AND PUSH2 0x403C JUMPI PUSH1 0x40 MLOAD PUSH32 0x8C379A000000000000000000000000000000000000000000000000000000000 DUP2 MSTORE PUSH1 0x4 ADD PUSH2 0x4033 SWAP1 PUSH2 0x6B84 JUMP JUMPDEST PUSH1 0x40 MLOAD DUP1 SWAP2 SUB SWAP1 REVERT JUMPDEST PUSH2 0x4046 DUP2 DUP6 PUSH2 0x42D5 JUMP JUMPDEST POP DUP1 DUP1 PUSH1 0x1 ADD SWAP2 POP POP PUSH2 0x3F1E JUMP JUMPDEST POP DUP1 PUSH1 0xA PUSH0 DUP3 DUP3 SLOAD PUSH2 0x4066 SWAP2 SWAP1 PUSH2 0x5C78 JUMP JUMPDEST SWAP3 POP POP DUP2 SWAP1 SSTORE POP POP POP POP JUMP JUMPDEST PUSH1 0x1 PUSH1 0x6 DUP2 SWAP1 SSTORE POP JUMP JUMPDEST PUSH0 CALLER SWAP1 POP SWAP1 JUMP JUMPDEST PUSH2 0x4090 DUP4 DUP4 DUP4 PUSH1 0x1 PUSH2 0x4649 JUMP JUMPDEST POP POP POP JUMP JUMPDEST PUSH0 DUP3 PUSH1 0x8 ADD PUSH0 SWAP1 SLOAD SWAP1 PUSH2 0x100 EXP SWAP1 DIV PUSH1 0xFF AND PUSH2 0x40E6 JUMPI PUSH1 0x40 MLOAD PUSH32 0x8C379A000000000000000000000000000000000000000000000000000000000 DUP2 MSTORE PUSH1 0x4 ADD PUSH2 0x40DD SWAP1 PUSH2 0x5614 JUMP JUMPDEST PUSH1 0x40 MLOAD DUP1 SWAP2 SUB SWAP1 REVERT JUMPDEST DUP3 PUSH1 0x2 ADD SLOAD TIMESTAMP LT ISZERO PUSH2 0x412D JUMPI PUSH1 0x40 MLOAD PUSH32 0x8C379A000000000000000000000000000000000000000000000000000000000 DUP2 MSTORE PUSH1 0x4 ADD PUSH2 0x4124 SWAP1 PUSH2 0x6BEC JUMP JUMPDEST PUSH1 0x40 MLOAD DUP1 SWAP2 SUB SWAP1 REVERT JUMPDEST PUSH0 PUSH1 0x7 DUP1 DUP2 GT ISZERO PUSH2 0x4141 JUMPI PUSH2 0x4140 PUSH2 0x4D20 JUMP JUMPDEST JUMPDEST DUP5 PUSH0 ADD PUSH0 SWAP1 SLOAD SWAP1 PUSH2 0x100 EXP SWAP1 DIV PUSH1 0xFF AND PUSH1 0x7 DUP2 GT ISZERO PUSH2 0x4163 JUMPI PUSH2 0x4162 PUSH2 0x4D20 JUMP JUMPDEST JUMPDEST EQ PUSH2 0x426C JUMPI PUSH1 0x3 PUSH1 0x7 DUP2 GT ISZERO PUSH2 0x417C JUMPI PUSH2 0x417B PUSH2 0x4D20 JUMP JUMPDEST JUMPDEST DUP5 PUSH0 ADD PUSH0 SWAP1 SLOAD SWAP1 PUSH2 0x100 EXP SWAP1 DIV PUSH1 0xFF AND PUSH1 0x7 DUP2 GT ISZERO PUSH2 0x419E JUMPI PUSH2 0x419D PUSH2 0x4D20 JUMP JUMPDEST JUMPDEST EQ DUP1 PUSH2 0x41DD JUMPI POP PUSH1 0x4 PUSH1 0x7 DUP2 GT ISZERO PUSH2 0x41B9 JUMPI PUSH2 0x41B8 PUSH2 0x4D20 JUMP JUMPDEST JUMPDEST DUP5 PUSH0 ADD PUSH0 SWAP1 SLOAD SWAP1 PUSH2 0x100 EXP SWAP1 DIV PUSH1 0xFF AND PUSH1 0x7 DUP2 GT ISZERO PUSH2 0x41DB JUMPI PUSH2 0x41DA PUSH2 0x4D20 JUMP JUMPDEST JUMPDEST EQ JUMPDEST DUP1 PUSH2 0x421B JUMPI POP PUSH1 0x5 PUSH1 0x7 DUP2 GT ISZERO PUSH2 0x41F7 JUMPI PUSH2 0x41F6 PUSH2 0x4D20 JUMP JUMPDEST JUMPDEST DUP5 PUSH0 ADD PUSH0 SWAP1 SLOAD SWAP1 PUSH2 0x100 EXP SWAP1 DIV PUSH1 0xFF AND PUSH1 0x7 DUP2 GT ISZERO PUSH2 0x4219 JUMPI PUSH2 0x4218 PUSH2 0x4D20 JUMP JUMPDEST JUMPDEST EQ JUMPDEST DUP1 PUSH2 0x4259 JUMPI POP PUSH1 0x6 PUSH1 0x7 DUP2 GT ISZERO PUSH2 0x4235 JUMPI PUSH2 0x4234 PUSH2 0x4D20 JUMP JUMPDEST JUMPDEST DUP5 PUSH0 ADD PUSH0 SWAP1 SLOAD SWAP1 PUSH2 0x100 EXP SWAP1 DIV PUSH1 0xFF AND PUSH1 0x7 DUP2 GT ISZERO PUSH2 0x4257 JUMPI PUSH2 0x4256 PUSH2 0x4D20 JUMP JUMPDEST JUMPDEST EQ JUMPDEST PUSH2 0x4264 JUMPI PUSH1 0x5 PUSH2 0x4267 JUMP JUMPDEST PUSH1 0x3 JUMPDEST PUSH2 0x426F JUMP JUMPDEST PUSH1 0x2 JUMPDEST SWAP1 POP DUP1 DUP5 PUSH1 0x1 ADD SLOAD LT ISZERO PUSH2 0x42B8 JUMPI PUSH1 0x40 MLOAD PUSH32 0x8C379A000000000000000000000000000000000000000000000000000000000 DUP2 MSTORE PUSH1 0x4 ADD PUSH2 0x42AF SWAP1 PUSH2 0x6C54 JUMP JUMPDEST PUSH1 0x40 MLOAD DUP1 SWAP2 SUB SWAP1 REVERT JUMPDEST DUP1 SWAP2 POP POP SWAP3 SWAP2 POP POP JUMP JUMPDEST DUP1 PUSH1 0xB SWAP1 DUP2 PUSH2 0x42D1 SWAP2 SWAP1 PUSH2 0x6123 JUMP JUMPDEST POP POP JUMP JUMPDEST PUSH0 PUSH20 0xFFFFFFFFFFFFFFFFFFFFFFFFFFFFFFFFFFFFFFFF AND DUP3 PUSH20 0xFFFFFFFFFFFFFFFFFFFFFFFFFFFFFFFFFFFFFFFF AND SUB PUSH2 0x4345 JUMPI PUSH0 PUSH1 0x40 MLOAD PUSH32 0xEC442F0500000000000000000000000000000000000000000000000000000000 DUP2 MSTORE PUSH1 0x4 ADD PUSH2 0x433C SWAP2 SWAP1 PUSH2 0x5348 JUMP JUMPDEST PUSH1 0x40 MLOAD DUP1 SWAP2 SUB SWAP1 REVERT JUMPDEST PUSH2 0x4350 PUSH0 DUP4 DUP4 PUSH2 0x4818 JUMP JUMPDEST POP POP JUMP JUMPDEST PUSH0 PUSH0 SWAP1 POP JUMPDEST PUSH1 0xE DUP1 SLOAD SWAP1 POP DUP2 LT ISZERO PUSH2 0x44AB JUMPI PUSH1 0xD PUSH0 DUP4 DUP2 MSTORE PUSH1 0x20 ADD SWAP1 DUP2 MSTORE PUSH1 0x20 ADD PUSH0 KECCAK256 PUSH0 PUSH1 0xE DUP4 DUP2 SLOAD DUP2 LT PUSH2 0x438C JUMPI PUSH2 0x438B PUSH2 0x5B7B JUMP JUMPDEST JUMPDEST SWAP1 PUSH0 MSTORE PUSH1 0x20 PUSH0 KECCAK256 ADD PUSH0 SWAP1 SLOAD SWAP1 PUSH2 0x100 EXP SWAP1 DIV PUSH20 0xFFFFFFFFFFFFFFFFFFFFFFFFFFFFFFFFFFFFFFFF AND PUSH20 0xFFFFFFFFFFFFFFFFFFFFFFFFFFFFFFFFFFFFFFFF AND PUSH20 0xFFFFFFFFFFFFFFFFFFFFFFFFFFFFFFFFFFFFFFFF AND DUP2 MSTORE PUSH1 0x20 ADD SWAP1 DUP2 MSTORE PUSH1 0x20 ADD PUSH0 KECCAK256 PUSH0 SWAP1 SLOAD SWAP1 PUSH2 0x100 EXP SWAP1 DIV PUSH1 0xFF AND ISZERO PUSH2 0x449E JUMPI PUSH0 PUSH1 0xD PUSH0 DUP5 DUP2 MSTORE PUSH1 0x20 ADD SWAP1 DUP2 MSTORE PUSH1 0x20 ADD PUSH0 KECCAK256 PUSH0 PUSH1 0xE DUP5 DUP2 SLOAD DUP2 LT PUSH2 0x4426 JUMPI PUSH2 0x4425 PUSH2 0x5B7B JUMP JUMPDEST JUMPDEST SWAP1 PUSH0 MSTORE PUSH1 0x20 PUSH0 KECCAK256 ADD PUSH0 SWAP1 SLOAD SWAP1 PUSH2 0x100 EXP SWAP1 DIV PUSH20 0xFFFFFFFFFFFFFFFFFFFFFFFFFFFFFFFFFFFFFFFF AND PUSH20 0xFFFFFFFFFFFFFFFFFFFFFFFFFFFFFFFFFFFFFFFF AND PUSH20 0xFFFFFFFFFFFFFFFFFFFFFFFFFFFFFFFFFFFFFFFF AND DUP2 MSTORE PUSH1 0x20 ADD SWAP1 DUP2 MSTORE PUSH1 0x20 ADD PUSH0 KECCAK256 PUSH0 PUSH2 0x100 EXP DUP2 SLOAD DUP2 PUSH1 0xFF MUL NOT AND SWAP1 DUP4 ISZERO ISZERO MUL OR SWAP1 SSTORE POP JUMPDEST DUP1 DUP1 PUSH1 0x1 ADD SWAP2 POP POP PUSH2 0x4359 JUMP JUMPDEST POP POP JUMP JUMPDEST PUSH0 PUSH0 PUSH2 0x44B9 PUSH2 0x407C JUMP JUMPDEST SWAP1 POP PUSH2 0x44C6 DUP6 DUP3 DUP6 PUSH2 0x4A31 JUMP JUMPDEST PUSH2 0x44D1 DUP6 DUP6 DUP6 PUSH2 0x4AC4 JUMP JUMPDEST PUSH1 0x1 SWAP2 POP POP SWAP4 SWAP3 POP POP POP JUMP JUMPDEST PUSH2 0x44E5 PUSH2 0x407C JUMP JUMPDEST PUSH20 0xFFFFFFFFFFFFFFFFFFFFFFFFFFFFFFFFFFFFFFFF AND PUSH2 0x4503 PUSH2 0x3494 JUMP JUMPDEST PUSH20 0xFFFFFFFFFFFFFFFFFFFFFFFFFFFFFFFFFFFFFFFF AND EQ PUSH2 0x4562 JUMPI PUSH2 0x4526 PUSH2 0x407C JUMP JUMPDEST PUSH1 0x40 MLOAD PUSH32 0x118CDAA700000000000000000000000000000000000000000000000000000000 DUP2 MSTORE PUSH1 0x4 ADD PUSH2 0x4559 SWAP2 SWAP1 PUSH2 0x5348 JUMP JUMPDEST PUSH1 0x40 MLOAD DUP1 SWAP2 SUB SWAP1 REVERT JUMPDEST JUMP JUMPDEST PUSH0 PUSH1 0x5 PUSH0 SWAP1 SLOAD SWAP1 PUSH2 0x100 EXP SWAP1 DIV PUSH20 0xFFFFFFFFFFFFFFFFFFFFFFFFFFFFFFFFFFFFFFFF AND SWAP1 POP DUP2 PUSH1 0x5 PUSH0 PUSH2 0x100 EXP DUP2 SLOAD DUP2 PUSH20 0xFFFFFFFFFFFFFFFFFFFFFFFFFFFFFFFFFFFFFFFF MUL NOT AND SWAP1 DUP4 PUSH20 0xFFFFFFFFFFFFFFFFFFFFFFFFFFFFFFFFFFFFFFFF AND MUL OR SWAP1 SSTORE POP DUP2 PUSH20 0xFFFFFFFFFFFFFFFFFFFFFFFFFFFFFFFFFFFFFFFF AND DUP2 PUSH20 0xFFFFFFFFFFFFFFFFFFFFFFFFFFFFFFFFFFFFFFFF AND PUSH32 0x8BE0079C531659141344CD1FD0A4F28419497F9722A3DAAFE3B4186F6B6457E0 PUSH1 0x40 MLOAD PUSH1 0x40 MLOAD DUP1 SWAP2 SUB SWAP1 LOG3 POP POP JUMP JUMPDEST PUSH0 PUSH0 PUSH2 0x4631 PUSH2 0x407C JUMP JUMPDEST SWAP1 POP PUSH2 0x463E DUP2 DUP6 DUP6 PUSH2 0x4AC4 JUMP JUMPDEST PUSH1 0x1 SWAP2 POP POP SWAP3 SWAP2 POP POP JUMP JUMPDEST PUSH0 PUSH20 0xFFFFFFFFFFFFFFFFFFFFFFFFFFFFFFFFFFFFFFFF AND DUP5 PUSH20 0xFFFFFFFFFFFFFFFFFFFFFFFFFFFFFFFFFFFFFFFF AND SUB PUSH2 0x46B9 JUMPI PUSH0 PUSH1 0x40 MLOAD PUSH32 0xE602DF0500000000000000000000000000000000000000000000000000000000 DUP2 MSTORE PUSH1 0x4 ADD PUSH2 0x46B0 SWAP2 SWAP1 PUSH2 0x5348 JUMP JUMPDEST PUSH1 0x40 MLOAD DUP1 SWAP2 SUB SWAP1 REVERT JUMPDEST PUSH0 PUSH20 0xFFFFFFFFFFFFFFFFFFFFFFFFFFFFFFFFFFFFFFFF AND DUP4 PUSH20 0xFFFFFFFFFFFFFFFFFFFFFFFFFFFFFFFFFFFFFFFF AND SUB PUSH2 0x4729 JUMPI PUSH0 PUSH1 0x40 MLOAD PUSH32 0x94280D6200000000000000000000000000000000000000000000000000000000 DUP2 MSTORE PUSH1 0x4 ADD PUSH2 0x4720 SWAP2 SWAP1 PUSH2 0x5348 JUMP JUMPDEST PUSH1 0x40 MLOAD DUP1 SWAP2 SUB SWAP1 REVERT JUMPDEST DUP2 PUSH1 0x1 PUSH0 DUP7 PUSH20 0xFFFFFFFFFFFFFFFFFFFFFFFFFFFFFFFFFFFFFFFF AND PUSH20 0xFFFFFFFFFFFFFFFFFFFFFFFFFFFFFFFFFFFFFFFF AND DUP2 MSTORE PUSH1 0x20 ADD SWAP1 DUP2 MSTORE PUSH1 0x20 ADD PUSH0 KECCAK256 PUSH0 DUP6 PUSH20 0xFFFFFFFFFFFFFFFFFFFFFFFFFFFFFFFFFFFFFFFF AND PUSH20 0xFFFFFFFFFFFFFFFFFFFFFFFFFFFFFFFFFFFFFFFF AND DUP2 MSTORE PUSH1 0x20 ADD SWAP1 DUP2 MSTORE PUSH1 0x20 ADD PUSH0 KECCAK256 DUP2 SWAP1 SSTORE POP DUP1 ISZERO PUSH2 0x4812 JUMPI DUP3 PUSH20 0xFFFFFFFFFFFFFFFFFFFFFFFFFFFFFFFFFFFFFFFF AND DUP5 PUSH20 0xFFFFFFFFFFFFFFFFFFFFFFFFFFFFFFFFFFFFFFFF AND PUSH32 0x8C5BE1E5EBEC7D5BD14F71427D1E84F3DD0314C0F7B2291E5B200AC8C7C3B925 DUP5 PUSH1 0x40 MLOAD PUSH2 0x4809 SWAP2 SWAP1 PUSH2 0x50BF JUMP JUMPDEST PUSH1 0x40 MLOAD DUP1 SWAP2 SUB SWAP1 LOG3 JUMPDEST POP POP POP POP JUMP JUMPDEST PUSH0 PUSH20 0xFFFFFFFFFFFFFFFFFFFFFFFFFFFFFFFFFFFFFFFF AND DUP4 PUSH20 0xFFFFFFFFFFFFFFFFFFFFFFFFFFFFFFFFFFFFFFFF AND SUB PUSH2 0x4868 JUMPI DUP1 PUSH1 0x2 PUSH0 DUP3 DUP3 SLOAD PUSH2 0x485C SWAP2 SWAP1 PUSH2 0x5C78 JUMP JUMPDEST SWAP3 POP POP DUP2 SWAP1 SSTORE POP PUSH2 0x4936 JUMP JUMPDEST PUSH0 PUSH0 PUSH0 DUP6 PUSH20 0xFFFFFFFFFFFFFFFFFFFFFFFFFFFFFFFFFFFFFFFF AND PUSH20 0xFFFFFFFFFFFFFFFFFFFFFFFFFFFFFFFFFFFFFFFF AND DUP2 MSTORE PUSH1 0x20 ADD SWAP1 DUP2 MSTORE PUSH1 0x20 ADD PUSH0 KECCAK256 SLOAD SWAP1 POP DUP2 DUP2 LT ISZERO PUSH2 0x48F1 JUMPI DUP4 DUP2 DUP4 PUSH1 0x40 MLOAD PUSH32 0xE450D38C00000000000000000000000000000000000000000000000000000000 DUP2 MSTORE PUSH1 0x4 ADD PUSH2 0x48E8 SWAP4 SWAP3 SWAP2 SWAP1 PUSH2 0x6C72 JUMP JUMPDEST PUSH1 0x40 MLOAD DUP1 SWAP2 SUB SWAP1 REVERT JUMPDEST DUP2 DUP2 SUB PUSH0 PUSH0 DUP7 PUSH20 0xFFFFFFFFFFFFFFFFFFFFFFFFFFFFFFFFFFFFFFFF AND PUSH20 0xFFFFFFFFFFFFFFFFFFFFFFFFFFFFFFFFFFFFFFFF AND DUP2 MSTORE PUSH1 0x20 ADD SWAP1 DUP2 MSTORE PUSH1 0x20 ADD PUSH0 KECCAK256 DUP2 SWAP1 SSTORE POP POP JUMPDEST PUSH0 PUSH20 0xFFFFFFFFFFFFFFFFFFFFFFFFFFFFFFFFFFFFFFFF AND DUP3 PUSH20 0xFFFFFFFFFFFFFFFFFFFFFFFFFFFFFFFFFFFFFFFF AND SUB PUSH2 0x497D JUMPI DUP1 PUSH1 0x2 PUSH0 DUP3 DUP3 SLOAD SUB SWAP3 POP POP DUP2 SWAP1 SSTORE POP PUSH2 0x49C7 JUMP JUMPDEST DUP1 PUSH0 PUSH0 DUP5 PUSH20 0xFFFFFFFFFFFFFFFFFFFFFFFFFFFFFFFFFFFFFFFF AND PUSH20 0xFFFFFFFFFFFFFFFFFFFFFFFFFFFFFFFFFFFFFFFF AND DUP2 MSTORE PUSH1 0x20 ADD SWAP1 DUP2 MSTORE PUSH1 0x20 ADD PUSH0 KECCAK256 PUSH0 DUP3 DUP3 SLOAD ADD SWAP3 POP POP DUP2 SWAP1 SSTORE POP JUMPDEST DUP2 PUSH20 0xFFFFFFFFFFFFFFFFFFFFFFFFFFFFFFFFFFFFFFFF AND DUP4 PUSH20 0xFFFFFFFFFFFFFFFFFFFFFFFFFFFFFFFFFFFFFFFF AND PUSH32 0xDDF252AD1BE2C89B69C2B068FC378DAA952BA7F163C4A11628F55A4DF523B3EF DUP4 PUSH1 0x40 MLOAD PUSH2 0x4A24 SWAP2 SWAP1 PUSH2 0x50BF JUMP JUMPDEST PUSH1 0x40 MLOAD DUP1 SWAP2 SUB SWAP1 LOG3 POP POP POP JUMP JUMPDEST PUSH0 PUSH2 0x4A3C DUP5 DUP5 PUSH2 0x394A JUMP JUMPDEST SWAP1 POP PUSH32 0xFFFFFFFFFFFFFFFFFFFFFFFFFFFFFFFFFFFFFFFFFFFFFFFFFFFFFFFFFFFFFFFF DUP2 LT ISZERO PUSH2 0x4ABE JUMPI DUP2 DUP2 LT ISZERO PUSH2 0x4AAF JUMPI DUP3 DUP2 DUP4 PUSH1 0x40 MLOAD PUSH32 0xFB8F41B200000000000000000000000000000000000000000000000000000000 DUP2 MSTORE PUSH1 0x4 ADD PUSH2 0x4AA6 SWAP4 SWAP3 SWAP2 SWAP1 PUSH2 0x6C72 JUMP JUMPDEST PUSH1 0x40 MLOAD DUP1 SWAP2 SUB SWAP1 REVERT JUMPDEST PUSH2 0x4ABD DUP5 DUP5 DUP5 DUP5 SUB PUSH0 PUSH2 0x4649 JUMP JUMPDEST JUMPDEST POP POP POP POP JUMP JUMPDEST PUSH0 PUSH20 0xFFFFFFFFFFFFFFFFFFFFFFFFFFFFFFFFFFFFFFFF AND DUP4 PUSH20 0xFFFFFFFFFFFFFFFFFFFFFFFFFFFFFFFFFFFFFFFF AND SUB PUSH2 0x4B34 JUMPI PUSH0 PUSH1 0x40 MLOAD PUSH32 0x96C6FD1E00000000000000000000000000000000000000000000000000000000 DUP2 MSTORE PUSH1 0x4 ADD PUSH2 0x4B2B SWAP2 SWAP1 PUSH2 0x5348 JUMP JUMPDEST PUSH1 0x40 MLOAD DUP1 SWAP2 SUB SWAP1 REVERT JUMPDEST PUSH0 PUSH20 0xFFFFFFFFFFFFFFFFFFFFFFFFFFFFFFFFFFFFFFFF AND DUP3 PUSH20 0xFFFFFFFFFFFFFFFFFFFFFFFFFFFFFFFFFFFFFFFF AND SUB PUSH2 0x4BA4 JUMPI PUSH0 PUSH1 0x40 MLOAD PUSH32 0xEC442F0500000000000000000000000000000000000000000000000000000000 DUP2 MSTORE PUSH1 0x4 ADD PUSH2 0x4B9B SWAP2 SWAP1 PUSH2 0x5348 JUMP JUMPDEST PUSH1 0x40 MLOAD DUP1 SWAP2 SUB SWAP1 REVERT JUMPDEST PUSH2 0x4BAF DUP4 DUP4 DUP4 PUSH2 0x4818 JUMP JUMPDEST POP POP POP JUMP JUMPDEST DUP3 DUP1 SLOAD DUP3 DUP3 SSTORE SWAP1 PUSH0 MSTORE PUSH1 0x20 PUSH0 KECCAK256 SWAP1 DUP2 ADD SWAP3 DUP3 ISZERO PUSH2 0x4C2A JUMPI SWAP2 PUSH1 0x20 MUL DUP3 ADD JUMPDEST DUP3 DUP2 GT ISZERO PUSH2 0x4C29 JUMPI DUP3 MLOAD DUP3 PUSH0 PUSH2 0x100 EXP DUP2 SLOAD DUP2 PUSH20 0xFFFFFFFFFFFFFFFFFFFFFFFFFFFFFFFFFFFFFFFF MUL NOT AND SWAP1 DUP4 PUSH20 0xFFFFFFFFFFFFFFFFFFFFFFFFFFFFFFFFFFFFFFFF AND MUL OR SWAP1 SSTORE POP SWAP2 PUSH1 0x20 ADD SWAP2 SWAP1 PUSH1 0x1 ADD SWAP1 PUSH2 0x4BD2 JUMP JUMPDEST JUMPDEST POP SWAP1 POP PUSH2 0x4C37 SWAP2 SWAP1 PUSH2 0x4C96 JUMP JUMPDEST POP SWAP1 JUMP JUMPDEST POP DUP1 SLOAD PUSH2 0x4C47 SWAP1 PUSH2 0x580B JUMP JUMPDEST PUSH0 DUP3 SSTORE DUP1 PUSH1 0x1F LT PUSH2 0x4C58 JUMPI POP PUSH2 0x4C75 JUMP JUMPDEST PUSH1 0x1F ADD PUSH1 0x20 SWAP1 DIV SWAP1 PUSH0 MSTORE PUSH1 0x20 PUSH0 KECCAK256 SWAP1 DUP2 ADD SWAP1 PUSH2 0x4C74 SWAP2 SWAP1 PUSH2 0x4C96 JUMP JUMPDEST JUMPDEST POP JUMP JUMPDEST POP DUP1 SLOAD PUSH0 DUP3 SSTORE SWAP1 PUSH0 MSTORE PUSH1 0x20 PUSH0 KECCAK256 SWAP1 DUP2 ADD SWAP1 PUSH2 0x4C93 SWAP2 SWAP1 PUSH2 0x4C96 JUMP JUMPDEST POP JUMP JUMPDEST JUMPDEST DUP1 DUP3 GT ISZERO PUSH2 0x4CAD JUMPI PUSH0 DUP2 PUSH0 SWAP1 SSTORE POP PUSH1 0x1 ADD PUSH2 0x4C97 JUMP JUMPDEST POP SWAP1 JUMP JUMPDEST PUSH0 PUSH1 0x40 MLOAD SWAP1 POP SWAP1 JUMP JUMPDEST PUSH0 PUSH0 REVERT JUMPDEST PUSH0 PUSH0 REVERT JUMPDEST PUSH0 DUP2 SWAP1 POP SWAP2 SWAP1 POP JUMP JUMPDEST PUSH2 0x4CD4 DUP2 PUSH2 0x4CC2 JUMP JUMPDEST DUP2 EQ PUSH2 0x4CDE JUMPI PUSH0 PUSH0 REVERT JUMPDEST POP JUMP JUMPDEST PUSH0 DUP2 CALLDATALOAD SWAP1 POP PUSH2 0x4CEF DUP2 PUSH2 0x4CCB JUMP JUMPDEST SWAP3 SWAP2 POP POP JUMP JUMPDEST PUSH0 PUSH1 0x20 DUP3 DUP5 SUB SLT ISZERO PUSH2 0x4D0A JUMPI PUSH2 0x4D09 PUSH2 0x4CBA JUMP JUMPDEST JUMPDEST PUSH0 PUSH2 0x4D17 DUP5 DUP3 DUP6 ADD PUSH2 0x4CE1 JUMP JUMPDEST SWAP2 POP POP SWAP3 SWAP2 POP POP JUMP JUMPDEST PUSH32 0x4E487B7100000000000000000000000000000000000000000000000000000000 PUSH0 MSTORE PUSH1 0x21 PUSH1 0x4 MSTORE PUSH1 0x24 PUSH0 REVERT JUMPDEST PUSH1 0x8 DUP2 LT PUSH2 0x4D5E JUMPI PUSH2 0x4D5D PUSH2 0x4D20 JUMP JUMPDEST JUMPDEST POP JUMP JUMPDEST PUSH0 DUP2 SWAP1 POP PUSH2 0x4D6E DUP3 PUSH2 0x4D4D JUMP JUMPDEST SWAP2 SWAP1 POP JUMP JUMPDEST PUSH0 PUSH2 0x4D7D DUP3 PUSH2 0x4D61 JUMP JUMPDEST SWAP1 POP SWAP2 SWAP1 POP JUMP JUMPDEST PUSH2 0x4D8D DUP2 PUSH2 0x4D73 JUMP JUMPDEST DUP3 MSTORE POP POP JUMP JUMPDEST PUSH0 PUSH20 0xFFFFFFFFFFFFFFFFFFFFFFFFFFFFFFFFFFFFFFFF DUP3 AND SWAP1 POP SWAP2 SWAP1 POP JUMP JUMPDEST PUSH0 PUSH2 0x4DBC DUP3 PUSH2 0x4D93 JUMP JUMPDEST SWAP1 POP SWAP2 SWAP1 POP JUMP JUMPDEST PUSH2 0x4DCC DUP2 PUSH2 0x4DB2 JUMP JUMPDEST DUP3 MSTORE POP POP JUMP JUMPDEST PUSH2 0x4DDB DUP2 PUSH2 0x4CC2 JUMP JUMPDEST DUP3 MSTORE POP POP JUMP JUMPDEST PUSH0 DUP2 MLOAD SWAP1 POP SWAP2 SWAP1 POP JUMP JUMPDEST PUSH0 DUP3 DUP3 MSTORE PUSH1 0x20 DUP3 ADD SWAP1 POP SWAP3 SWAP2 POP POP JUMP JUMPDEST DUP3 DUP2 DUP4 MCOPY PUSH0 DUP4 DUP4 ADD MSTORE POP POP POP JUMP JUMPDEST PUSH0 PUSH1 0x1F NOT PUSH1 0x1F DUP4 ADD AND SWAP1 POP SWAP2 SWAP1 POP JUMP JUMPDEST PUSH0 PUSH2 0x4E23 DUP3 PUSH2 0x4DE1 JUMP JUMPDEST PUSH2 0x4E2D DUP2 DUP6 PUSH2 0x4DEB JUMP JUMPDEST SWAP4 POP PUSH2 0x4E3D DUP2 DUP6 PUSH1 0x20 DUP7 ADD PUSH2 0x4DFB JUMP JUMPDEST PUSH2 0x4E46 DUP2 PUSH2 0x4E09 JUMP JUMPDEST DUP5 ADD SWAP2 POP POP SWAP3 SWAP2 POP POP JUMP JUMPDEST PUSH0 DUP2 ISZERO ISZERO SWAP1 POP SWAP2 SWAP1 POP JUMP JUMPDEST PUSH2 0x4E65 DUP2 PUSH2 0x4E51 JUMP JUMPDEST DUP3 MSTORE POP POP JUMP JUMPDEST PUSH0 PUSH2 0x100 DUP3 ADD SWAP1 POP PUSH2 0x4E7F PUSH0 DUP4 ADD DUP12 PUSH2 0x4D84 JUMP JUMPDEST PUSH2 0x4E8C PUSH1 0x20 DUP4 ADD DUP11 PUSH2 0x4DC3 JUMP JUMPDEST PUSH2 0x4E99 PUSH1 0x40 DUP4 ADD DUP10 PUSH2 0x4DD2 JUMP JUMPDEST PUSH2 0x4EA6 PUSH1 0x60 DUP4 ADD DUP9 PUSH2 0x4DD2 JUMP JUMPDEST PUSH2 0x4EB3 PUSH1 0x80 DUP4 ADD DUP8 PUSH2 0x4DC3 JUMP JUMPDEST PUSH2 0x4EC0 PUSH1 0xA0 DUP4 ADD DUP7 PUSH2 0x4DD2 JUMP JUMPDEST DUP2 DUP2 SUB PUSH1 0xC0 DUP4 ADD MSTORE PUSH2 0x4ED2 DUP2 DUP6 PUSH2 0x4E19 JUMP JUMPDEST SWAP1 POP PUSH2 0x4EE1 PUSH1 0xE0 DUP4 ADD DUP5 PUSH2 0x4E5C JUMP JUMPDEST SWAP10 SWAP9 POP POP POP POP POP POP POP POP POP JUMP JUMPDEST PUSH0 PUSH0 REVERT JUMPDEST PUSH32 0x4E487B7100000000000000000000000000000000000000000000000000000000 PUSH0 MSTORE PUSH1 0x41 PUSH1 0x4 MSTORE PUSH1 0x24 PUSH0 REVERT JUMPDEST PUSH2 0x4F28 DUP3 PUSH2 0x4E09 JUMP JUMPDEST DUP2 ADD DUP2 DUP2 LT PUSH8 0xFFFFFFFFFFFFFFFF DUP3 GT OR ISZERO PUSH2 0x4F47 JUMPI PUSH2 0x4F46 PUSH2 0x4EF2 JUMP JUMPDEST JUMPDEST DUP1 PUSH1 0x40 MSTORE POP POP POP JUMP JUMPDEST PUSH0 PUSH2 0x4F59 PUSH2 0x4CB1 JUMP JUMPDEST SWAP1 POP PUSH2 0x4F65 DUP3 DUP3 PUSH2 0x4F1F JUMP JUMPDEST SWAP2 SWAP1 POP JUMP JUMPDEST PUSH0 PUSH8 0xFFFFFFFFFFFFFFFF DUP3 GT ISZERO PUSH2 0x4F84 JUMPI PUSH2 0x4F83 PUSH2 0x4EF2 JUMP JUMPDEST JUMPDEST PUSH1 0x20 DUP3 MUL SWAP1 POP PUSH1 0x20 DUP2 ADD SWAP1 POP SWAP2 SWAP1 POP JUMP JUMPDEST PUSH0 PUSH0 REVERT JUMPDEST PUSH2 0x4FA2 DUP2 PUSH2 0x4DB2 JUMP JUMPDEST DUP2 EQ PUSH2 0x4FAC JUMPI PUSH0 PUSH0 REVERT JUMPDEST POP JUMP JUMPDEST PUSH0 DUP2 CALLDATALOAD SWAP1 POP PUSH2 0x4FBD DUP2 PUSH2 0x4F99 JUMP JUMPDEST SWAP3 SWAP2 POP POP JUMP JUMPDEST PUSH0 PUSH2 0x4FD5 PUSH2 0x4FD0 DUP5 PUSH2 0x4F6A JUMP JUMPDEST PUSH2 0x4F50 JUMP JUMPDEST SWAP1 POP DUP1 DUP4 DUP3 MSTORE PUSH1 0x20 DUP3 ADD SWAP1 POP PUSH1 0x20 DUP5 MUL DUP4 ADD DUP6 DUP2 GT ISZERO PUSH2 0x4FF8 JUMPI PUSH2 0x4FF7 PUSH2 0x4F95 JUMP JUMPDEST JUMPDEST DUP4 JUMPDEST DUP2 DUP2 LT ISZERO PUSH2 0x5021 JUMPI DUP1 PUSH2 0x500D DUP9 DUP3 PUSH2 0x4FAF JUMP JUMPDEST DUP5 MSTORE PUSH1 0x20 DUP5 ADD SWAP4 POP POP PUSH1 0x20 DUP2 ADD SWAP1 POP PUSH2 0x4FFA JUMP JUMPDEST POP POP POP SWAP4 SWAP3 POP POP POP JUMP JUMPDEST PUSH0 DUP3 PUSH1 0x1F DUP4 ADD SLT PUSH2 0x503F JUMPI PUSH2 0x503E PUSH2 0x4EEE JUMP JUMPDEST JUMPDEST DUP2 CALLDATALOAD PUSH2 0x504F DUP5 DUP3 PUSH1 0x20 DUP7 ADD PUSH2 0x4FC3 JUMP JUMPDEST SWAP2 POP POP SWAP3 SWAP2 POP POP JUMP JUMPDEST PUSH0 PUSH1 0x20 DUP3 DUP5 SUB SLT ISZERO PUSH2 0x506D JUMPI PUSH2 0x506C PUSH2 0x4CBA JUMP JUMPDEST JUMPDEST PUSH0 DUP3 ADD CALLDATALOAD PUSH8 0xFFFFFFFFFFFFFFFF DUP2 GT ISZERO PUSH2 0x508A JUMPI PUSH2 0x5089 PUSH2 0x4CBE JUMP JUMPDEST JUMPDEST PUSH2 0x5096 DUP5 DUP3 DUP6 ADD PUSH2 0x502B JUMP JUMPDEST SWAP2 POP POP SWAP3 SWAP2 POP POP JUMP JUMPDEST PUSH0 PUSH1 0x20 DUP3 ADD SWAP1 POP DUP2 DUP2 SUB PUSH0 DUP4 ADD MSTORE PUSH2 0x50B7 DUP2 DUP5 PUSH2 0x4E19 JUMP JUMPDEST SWAP1 POP SWAP3 SWAP2 POP POP JUMP JUMPDEST PUSH0 PUSH1 0x20 DUP3 ADD SWAP1 POP PUSH2 0x50D2 PUSH0 DUP4 ADD DUP5 PUSH2 0x4DD2 JUMP JUMPDEST SWAP3 SWAP2 POP POP JUMP JUMPDEST PUSH0 PUSH0 PUSH1 0x40 DUP4 DUP6 SUB SLT ISZERO PUSH2 0x50EE JUMPI PUSH2 0x50ED PUSH2 0x4CBA JUMP JUMPDEST JUMPDEST PUSH0 PUSH2 0x50FB DUP6 DUP3 DUP7 ADD PUSH2 0x4FAF JUMP JUMPDEST SWAP3 POP POP PUSH1 0x20 PUSH2 0x510C DUP6 DUP3 DUP7 ADD PUSH2 0x4CE1 JUMP JUMPDEST SWAP2 POP POP SWAP3 POP SWAP3 SWAP1 POP JUMP JUMPDEST PUSH0 PUSH1 0x20 DUP3 ADD SWAP1 POP PUSH2 0x5129 PUSH0 DUP4 ADD DUP5 PUSH2 0x4E5C JUMP JUMPDEST SWAP3 SWAP2 POP POP JUMP JUMPDEST PUSH1 0x8 DUP2 LT PUSH2 0x513B JUMPI PUSH0 PUSH0 REVERT JUMPDEST POP JUMP JUMPDEST PUSH0 DUP2 CALLDATALOAD SWAP1 POP PUSH2 0x514C DUP2 PUSH2 0x512F JUMP JUMPDEST SWAP3 SWAP2 POP POP JUMP JUMPDEST PUSH0 PUSH0 REVERT JUMPDEST PUSH0 PUSH8 0xFFFFFFFFFFFFFFFF DUP3 GT ISZERO PUSH2 0x5170 JUMPI PUSH2 0x516F PUSH2 0x4EF2 JUMP JUMPDEST JUMPDEST PUSH2 0x5179 DUP3 PUSH2 0x4E09 JUMP JUMPDEST SWAP1 POP PUSH1 0x20 DUP2 ADD SWAP1 POP SWAP2 SWAP1 POP JUMP JUMPDEST DUP3 DUP2 DUP4 CALLDATACOPY PUSH0 DUP4 DUP4 ADD MSTORE POP POP POP JUMP JUMPDEST PUSH0 PUSH2 0x51A6 PUSH2 0x51A1 DUP5 PUSH2 0x5156 JUMP JUMPDEST PUSH2 0x4F50 JUMP JUMPDEST SWAP1 POP DUP3 DUP2 MSTORE PUSH1 0x20 DUP2 ADD DUP5 DUP5 DUP5 ADD GT ISZERO PUSH2 0x51C2 JUMPI PUSH2 0x51C1 PUSH2 0x5152 JUMP JUMPDEST JUMPDEST PUSH2 0x51CD DUP5 DUP3 DUP6 PUSH2 0x5186 JUMP JUMPDEST POP SWAP4 SWAP3 POP POP POP JUMP JUMPDEST PUSH0 DUP3 PUSH1 0x1F DUP4 ADD SLT PUSH2 0x51E9 JUMPI PUSH2 0x51E8 PUSH2 0x4EEE JUMP JUMPDEST JUMPDEST DUP2 CALLDATALOAD PUSH2 0x51F9 DUP5 DUP3 PUSH1 0x20 DUP7 ADD PUSH2 0x5194 JUMP JUMPDEST SWAP2 POP POP SWAP3 SWAP2 POP POP JUMP JUMPDEST PUSH0 PUSH0 PUSH0 PUSH0 PUSH0 PUSH0 PUSH1 0xC0 DUP8 DUP10 SUB SLT ISZERO PUSH2 0x521C JUMPI PUSH2 0x521B PUSH2 0x4CBA JUMP JUMPDEST JUMPDEST PUSH0 PUSH2 0x5229 DUP10 DUP3 DUP11 ADD PUSH2 0x513E JUMP JUMPDEST SWAP7 POP POP PUSH1 0x20 PUSH2 0x523A DUP10 DUP3 DUP11 ADD PUSH2 0x4FAF JUMP JUMPDEST SWAP6 POP POP PUSH1 0x40 PUSH2 0x524B DUP10 DUP3 DUP11 ADD PUSH2 0x4CE1 JUMP JUMPDEST SWAP5 POP POP PUSH1 0x60 DUP8 ADD CALLDATALOAD PUSH8 0xFFFFFFFFFFFFFFFF DUP2 GT ISZERO PUSH2 0x526C JUMPI PUSH2 0x526B PUSH2 0x4CBE JUMP JUMPDEST JUMPDEST PUSH2 0x5278 DUP10 DUP3 DUP11 ADD PUSH2 0x51D5 JUMP JUMPDEST SWAP4 POP POP PUSH1 0x80 DUP8 ADD CALLDATALOAD PUSH8 0xFFFFFFFFFFFFFFFF DUP2 GT ISZERO PUSH2 0x5299 JUMPI PUSH2 0x5298 PUSH2 0x4CBE JUMP JUMPDEST JUMPDEST PUSH2 0x52A5 DUP10 DUP3 DUP11 ADD PUSH2 0x502B JUMP JUMPDEST SWAP3 POP POP PUSH1 0xA0 DUP8 ADD CALLDATALOAD PUSH8 0xFFFFFFFFFFFFFFFF DUP2 GT ISZERO PUSH2 0x52C6 JUMPI PUSH2 0x52C5 PUSH2 0x4CBE JUMP JUMPDEST JUMPDEST PUSH2 0x52D2 DUP10 DUP3 DUP11 ADD PUSH2 0x502B JUMP JUMPDEST SWAP2 POP POP SWAP3 SWAP6 POP SWAP3 SWAP6 POP SWAP3 SWAP6 JUMP JUMPDEST PUSH0 PUSH0 PUSH1 0x40 DUP4 DUP6 SUB SLT ISZERO PUSH2 0x52F5 JUMPI PUSH2 0x52F4 PUSH2 0x4CBA JUMP JUMPDEST JUMPDEST PUSH0 PUSH2 0x5302 DUP6 DUP3 DUP7 ADD PUSH2 0x4CE1 JUMP JUMPDEST SWAP3 POP POP PUSH1 0x20 PUSH2 0x5313 DUP6 DUP3 DUP7 ADD PUSH2 0x4FAF JUMP JUMPDEST SWAP2 POP POP SWAP3 POP SWAP3 SWAP1 POP JUMP JUMPDEST PUSH0 PUSH1 0x20 DUP3 DUP5 SUB SLT ISZERO PUSH2 0x5332 JUMPI PUSH2 0x5331 PUSH2 0x4CBA JUMP JUMPDEST JUMPDEST PUSH0 PUSH2 0x533F DUP5 DUP3 DUP6 ADD PUSH2 0x4FAF JUMP JUMPDEST SWAP2 POP POP SWAP3 SWAP2 POP POP JUMP JUMPDEST PUSH0 PUSH1 0x20 DUP3 ADD SWAP1 POP PUSH2 0x535B PUSH0 DUP4 ADD DUP5 PUSH2 0x4DC3 JUMP JUMPDEST SWAP3 SWAP2 POP POP JUMP JUMPDEST PUSH0 PUSH0 PUSH0 PUSH1 0x60 DUP5 DUP7 SUB SLT ISZERO PUSH2 0x5378 JUMPI PUSH2 0x5377 PUSH2 0x4CBA JUMP JUMPDEST JUMPDEST PUSH0 PUSH2 0x5385 DUP7 DUP3 DUP8 ADD PUSH2 0x4FAF JUMP JUMPDEST SWAP4 POP POP PUSH1 0x20 PUSH2 0x5396 DUP7 DUP3 DUP8 ADD PUSH2 0x4FAF JUMP JUMPDEST SWAP3 POP POP PUSH1 0x40 PUSH2 0x53A7 DUP7 DUP3 DUP8 ADD PUSH2 0x4CE1 JUMP JUMPDEST SWAP2 POP POP SWAP3 POP SWAP3 POP SWAP3 JUMP JUMPDEST PUSH0 PUSH1 0xFF DUP3 AND SWAP1 POP SWAP2 SWAP1 POP JUMP JUMPDEST PUSH2 0x53C6 DUP2 PUSH2 0x53B1 JUMP JUMPDEST DUP3 MSTORE POP POP JUMP JUMPDEST PUSH0 PUSH1 0x20 DUP3 ADD SWAP1 POP PUSH2 0x53DF PUSH0 DUP4 ADD DUP5 PUSH2 0x53BD JUMP JUMPDEST SWAP3 SWAP2 POP POP JUMP JUMPDEST PUSH0 DUP2 MLOAD SWAP1 POP SWAP2 SWAP1 POP JUMP JUMPDEST PUSH0 DUP3 DUP3 MSTORE PUSH1 0x20 DUP3 ADD SWAP1 POP SWAP3 SWAP2 POP POP JUMP JUMPDEST PUSH0 DUP2 SWAP1 POP PUSH1 0x20 DUP3 ADD SWAP1 POP SWAP2 SWAP1 POP JUMP JUMPDEST PUSH2 0x5417 DUP2 PUSH2 0x4CC2 JUMP JUMPDEST DUP3 MSTORE POP POP JUMP JUMPDEST PUSH0 PUSH2 0x5428 DUP4 DUP4 PUSH2 0x540E JUMP JUMPDEST PUSH1 0x20 DUP4 ADD SWAP1 POP SWAP3 SWAP2 POP POP JUMP JUMPDEST PUSH0 PUSH1 0x20 DUP3 ADD SWAP1 POP SWAP2 SWAP1 POP JUMP JUMPDEST PUSH0 PUSH2 0x544A DUP3 PUSH2 0x53E5 JUMP JUMPDEST PUSH2 0x5454 DUP2 DUP6 PUSH2 0x53EF JUMP JUMPDEST SWAP4 POP PUSH2 0x545F DUP4 PUSH2 0x53FF JUMP JUMPDEST DUP1 PUSH0 JUMPDEST DUP4 DUP2 LT ISZERO PUSH2 0x548F JUMPI DUP2 MLOAD PUSH2 0x5476 DUP9 DUP3 PUSH2 0x541D JUMP JUMPDEST SWAP8 POP PUSH2 0x5481 DUP4 PUSH2 0x5434 JUMP JUMPDEST SWAP3 POP POP PUSH1 0x1 DUP2 ADD SWAP1 POP PUSH2 0x5462 JUMP JUMPDEST POP DUP6 SWAP4 POP POP POP POP SWAP3 SWAP2 POP POP JUMP JUMPDEST PUSH0 PUSH1 0x20 DUP3 ADD SWAP1 POP DUP2 DUP2 SUB PUSH0 DUP4 ADD MSTORE PUSH2 0x54B4 DUP2 DUP5 PUSH2 0x5440 JUMP JUMPDEST SWAP1 POP SWAP3 SWAP2 POP POP JUMP JUMPDEST PUSH0 PUSH0 PUSH1 0x40 DUP4 DUP6 SUB SLT ISZERO PUSH2 0x54D2 JUMPI PUSH2 0x54D1 PUSH2 0x4CBA JUMP JUMPDEST JUMPDEST PUSH0 PUSH2 0x54DF DUP6 DUP3 DUP7 ADD PUSH2 0x4FAF JUMP JUMPDEST SWAP3 POP POP PUSH1 0x20 PUSH2 0x54F0 DUP6 DUP3 DUP7 ADD PUSH2 0x4FAF JUMP JUMPDEST SWAP2 POP POP SWAP3 POP SWAP3 SWAP1 POP JUMP JUMPDEST PUSH32 0x436F6E7472616374207061757365640000000000000000000000000000000000 PUSH0 DUP3 ADD MSTORE POP JUMP JUMPDEST PUSH0 PUSH2 0x552E PUSH1 0xF DUP4 PUSH2 0x4DEB JUMP JUMPDEST SWAP2 POP PUSH2 0x5539 DUP3 PUSH2 0x54FA JUMP JUMPDEST PUSH1 0x20 DUP3 ADD SWAP1 POP SWAP2 SWAP1 POP JUMP JUMPDEST PUSH0 PUSH1 0x20 DUP3 ADD SWAP1 POP DUP2 DUP2 SUB PUSH0 DUP4 ADD MSTORE PUSH2 0x555B DUP2 PUSH2 0x5522 JUMP JUMPDEST SWAP1 POP SWAP2 SWAP1 POP JUMP JUMPDEST PUSH32 0x4E6F74206120766F746572000000000000000000000000000000000000000000 PUSH0 DUP3 ADD MSTORE POP JUMP JUMPDEST PUSH0 PUSH2 0x5596 PUSH1 0xB DUP4 PUSH2 0x4DEB JUMP JUMPDEST SWAP2 POP PUSH2 0x55A1 DUP3 PUSH2 0x5562 JUMP JUMPDEST PUSH1 0x20 DUP3 ADD SWAP1 POP SWAP2 SWAP1 POP JUMP JUMPDEST PUSH0 PUSH1 0x20 DUP3 ADD SWAP1 POP DUP2 DUP2 SUB PUSH0 DUP4 ADD MSTORE PUSH2 0x55C3 DUP2 PUSH2 0x558A JUMP JUMPDEST SWAP1 POP SWAP2 SWAP1 POP JUMP JUMPDEST PUSH32 0x4E6F206163746976652070726F706F73616C0000000000000000000000000000 PUSH0 DUP3 ADD MSTORE POP JUMP JUMPDEST PUSH0 PUSH2 0x55FE PUSH1 0x12 DUP4 PUSH2 0x4DEB JUMP JUMPDEST SWAP2 POP PUSH2 0x5609 DUP3 PUSH2 0x55CA JUMP JUMPDEST PUSH1 0x20 DUP3 ADD SWAP1 POP SWAP2 SWAP1 POP JUMP JUMPDEST PUSH0 PUSH1 0x20 DUP3 ADD SWAP1 POP DUP2 DUP2 SUB PUSH0 DUP4 ADD MSTORE PUSH2 0x562B DUP2 PUSH2 0x55F2 JUMP JUMPDEST SWAP1 POP SWAP2 SWAP1 POP JUMP JUMPDEST PUSH32 0x416C726561647920766F74656400000000000000000000000000000000000000 PUSH0 DUP3 ADD MSTORE POP JUMP JUMPDEST PUSH0 PUSH2 0x5666 PUSH1 0xD DUP4 PUSH2 0x4DEB JUMP JUMPDEST SWAP2 POP PUSH2 0x5671 DUP3 PUSH2 0x5632 JUMP JUMPDEST PUSH1 0x20 DUP3 ADD SWAP1 POP SWAP2 SWAP1 POP JUMP JUMPDEST PUSH0 PUSH1 0x20 DUP3 ADD SWAP1 POP DUP2 DUP2 SUB PUSH0 DUP4 ADD MSTORE PUSH2 0x5693 DUP2 PUSH2 0x565A JUMP JUMPDEST SWAP1 POP SWAP2 SWAP1 POP JUMP JUMPDEST PUSH32 0x566F74696E672070617573656400000000000000000000000000000000000000 PUSH0 DUP3 ADD MSTORE POP JUMP JUMPDEST PUSH0 PUSH2 0x56CE PUSH1 0xD DUP4 PUSH2 0x4DEB JUMP JUMPDEST SWAP2 POP PUSH2 0x56D9 DUP3 PUSH2 0x569A JUMP JUMPDEST PUSH1 0x20 DUP3 ADD SWAP1 POP SWAP2 SWAP1 POP JUMP JUMPDEST PUSH0 PUSH1 0x20 DUP3 ADD SWAP1 POP DUP2 DUP2 SUB PUSH0 DUP4 ADD MSTORE PUSH2 0x56FB DUP2 PUSH2 0x56C2 JUMP JUMPDEST SWAP1 POP SWAP2 SWAP1 POP JUMP JUMPDEST PUSH32 0x4E487B7100000000000000000000000000000000000000000000000000000000 PUSH0 MSTORE PUSH1 0x11 PUSH1 0x4 MSTORE PUSH1 0x24 PUSH0 REVERT JUMPDEST PUSH0 PUSH2 0x5739 DUP3 PUSH2 0x4CC2 JUMP JUMPDEST SWAP2 POP PUSH32 0xFFFFFFFFFFFFFFFFFFFFFFFFFFFFFFFFFFFFFFFFFFFFFFFFFFFFFFFFFFFFFFFF DUP3 SUB PUSH2 0x576B JUMPI PUSH2 0x576A PUSH2 0x5702 JUMP JUMPDEST JUMPDEST PUSH1 0x1 DUP3 ADD SWAP1 POP SWAP2 SWAP1 POP JUMP JUMPDEST PUSH32 0x566F746520636F756E742065786365656473206C696D69740000000000000000 PUSH0 DUP3 ADD MSTORE POP JUMP JUMPDEST PUSH0 PUSH2 0x57AA PUSH1 0x18 DUP4 PUSH2 0x4DEB JUMP JUMPDEST SWAP2 POP PUSH2 0x57B5 DUP3 PUSH2 0x5776 JUMP JUMPDEST PUSH1 0x20 DUP3 ADD SWAP1 POP SWAP2 SWAP1 POP JUMP JUMPDEST PUSH0 PUSH1 0x20 DUP3 ADD SWAP1 POP DUP2 DUP2 SUB PUSH0 DUP4 ADD MSTORE PUSH2 0x57D7 DUP2 PUSH2 0x579E JUMP JUMPDEST SWAP1 POP SWAP2 SWAP1 POP JUMP JUMPDEST PUSH32 0x4E487B7100000000000000000000000000000000000000000000000000000000 PUSH0 MSTORE PUSH1 0x22 PUSH1 0x4 MSTORE PUSH1 0x24 PUSH0 REVERT JUMPDEST PUSH0 PUSH1 0x2 DUP3 DIV SWAP1 POP PUSH1 0x1 DUP3 AND DUP1 PUSH2 0x5822 JUMPI PUSH1 0x7F DUP3 AND SWAP2 POP JUMPDEST PUSH1 0x20 DUP3 LT DUP2 SUB PUSH2 0x5835 JUMPI PUSH2 0x5834 PUSH2 0x57DE JUMP JUMPDEST JUMPDEST POP SWAP2 SWAP1 POP JUMP JUMPDEST PUSH0 DUP2 MLOAD SWAP1 POP SWAP2 SWAP1 POP JUMP JUMPDEST PUSH0 DUP2 SWAP1 POP SWAP3 SWAP2 POP POP JUMP JUMPDEST PUSH0 DUP2 SWAP1 POP PUSH1 0x20 DUP3 ADD SWAP1 POP SWAP2 SWAP1 POP JUMP JUMPDEST PUSH2 0x5867 DUP2 PUSH2 0x4DB2 JUMP JUMPDEST DUP3 MSTORE POP POP JUMP JUMPDEST PUSH0 PUSH2 0x5878 DUP4 DUP4 PUSH2 0x585E JUMP JUMPDEST PUSH1 0x20 DUP4 ADD SWAP1 POP SWAP3 SWAP2 POP POP JUMP JUMPDEST PUSH0 PUSH1 0x20 DUP3 ADD SWAP1 POP SWAP2 SWAP1 POP JUMP JUMPDEST PUSH0 PUSH2 0x589A DUP3 PUSH2 0x583B JUMP JUMPDEST PUSH2 0x58A4 DUP2 DUP6 PUSH2 0x5845 JUMP JUMPDEST SWAP4 POP PUSH2 0x58AF DUP4 PUSH2 0x584F JUMP JUMPDEST DUP1 PUSH0 JUMPDEST DUP4 DUP2 LT ISZERO PUSH2 0x58DF JUMPI DUP2 MLOAD PUSH2 0x58C6 DUP9 DUP3 PUSH2 0x586D JUMP JUMPDEST SWAP8 POP PUSH2 0x58D1 DUP4 PUSH2 0x5884 JUMP JUMPDEST SWAP3 POP POP PUSH1 0x1 DUP2 ADD SWAP1 POP PUSH2 0x58B2 JUMP JUMPDEST POP DUP6 SWAP4 POP POP POP POP SWAP3 SWAP2 POP POP JUMP JUMPDEST PUSH0 PUSH2 0x58F7 DUP3 DUP5 PUSH2 0x5890 JUMP JUMPDEST SWAP2 POP DUP2 SWAP1 POP SWAP3 SWAP2 POP POP JUMP JUMPDEST PUSH0 PUSH1 0x40 DUP3 ADD SWAP1 POP PUSH2 0x5915 PUSH0 DUP4 ADD DUP6 PUSH2 0x4DD2 JUMP JUMPDEST PUSH2 0x5922 PUSH1 0x20 DUP4 ADD DUP5 PUSH2 0x4E5C JUMP JUMPDEST SWAP4 SWAP3 POP POP POP JUMP JUMPDEST PUSH32 0x456D707479206E616D6500000000000000000000000000000000000000000000 PUSH0 DUP3 ADD MSTORE POP JUMP JUMPDEST PUSH0 PUSH2 0x595D PUSH1 0xA DUP4 PUSH2 0x4DEB JUMP JUMPDEST SWAP2 POP PUSH2 0x5968 DUP3 PUSH2 0x5929 JUMP JUMPDEST PUSH1 0x20 DUP3 ADD SWAP1 POP SWAP2 SWAP1 POP JUMP JUMPDEST PUSH0 PUSH1 0x20 DUP3 ADD SWAP1 POP DUP2 DUP2 SUB PUSH0 DUP4 ADD MSTORE PUSH2 0x598A DUP2 PUSH2 0x5951 JUMP JUMPDEST SWAP1 POP SWAP2 SWAP1 POP JUMP JUMPDEST PUSH32 0x496E76616C69642076616C756500000000000000000000000000000000000000 PUSH0 DUP3 ADD MSTORE POP JUMP JUMPDEST PUSH0 PUSH2 0x59C5 PUSH1 0xD DUP4 PUSH2 0x4DEB JUMP JUMPDEST SWAP2 POP PUSH2 0x59D0 DUP3 PUSH2 0x5991 JUMP JUMPDEST PUSH1 0x20 DUP3 ADD SWAP1 POP SWAP2 SWAP1 POP JUMP JUMPDEST PUSH0 PUSH1 0x20 DUP3 ADD SWAP1 POP DUP2 DUP2 SUB PUSH0 DUP4 ADD MSTORE PUSH2 0x59F2 DUP2 PUSH2 0x59B9 JUMP JUMPDEST SWAP1 POP SWAP2 SWAP1 POP JUMP JUMPDEST PUSH0 DUP2 SWAP1 POP SWAP2 SWAP1 POP JUMP JUMPDEST PUSH0 PUSH2 0x5A0C DUP3 PUSH2 0x59F9 JUMP JUMPDEST SWAP2 POP PUSH2 0x5A17 DUP4 PUSH2 0x59F9 JUMP JUMPDEST SWAP3 POP DUP3 DUP3 ADD SWAP1 POP DUP3 DUP2 SLT ISZERO PUSH0 DUP4 SLT AND DUP4 DUP3 SLT PUSH0 DUP5 SLT ISZERO AND OR ISZERO PUSH2 0x5A3D JUMPI PUSH2 0x5A3C PUSH2 0x5702 JUMP JUMPDEST JUMPDEST SWAP3 SWAP2 POP POP JUMP JUMPDEST PUSH32 0x537570706C792062656C6F77206D696E74656400000000000000000000000000 PUSH0 DUP3 ADD MSTORE POP JUMP JUMPDEST PUSH0 PUSH2 0x5A77 PUSH1 0x13 DUP4 PUSH2 0x4DEB JUMP JUMPDEST SWAP2 POP PUSH2 0x5A82 DUP3 PUSH2 0x5A43 JUMP JUMPDEST PUSH1 0x20 DUP3 ADD SWAP1 POP SWAP2 SWAP1 POP JUMP JUMPDEST PUSH0 PUSH1 0x20 DUP3 ADD SWAP1 POP DUP2 DUP2 SUB PUSH0 DUP4 ADD MSTORE PUSH2 0x5AA4 DUP2 PUSH2 0x5A6B JUMP JUMPDEST SWAP1 POP SWAP2 SWAP1 POP JUMP JUMPDEST PUSH32 0x4E6567617469766520737570706C790000000000000000000000000000000000 PUSH0 DUP3 ADD MSTORE POP JUMP JUMPDEST PUSH0 PUSH2 0x5ADF PUSH1 0xF DUP4 PUSH2 0x4DEB JUMP JUMPDEST SWAP2 POP PUSH2 0x5AEA DUP3 PUSH2 0x5AAB JUMP JUMPDEST PUSH1 0x20 DUP3 ADD SWAP1 POP SWAP2 SWAP1 POP JUMP JUMPDEST PUSH0 PUSH1 0x20 DUP3 ADD SWAP1 POP DUP2 DUP2 SUB PUSH0 DUP4 ADD MSTORE PUSH2 0x5B0C DUP2 PUSH2 0x5AD3 JUMP JUMPDEST SWAP1 POP SWAP2 SWAP1 POP JUMP JUMPDEST PUSH32 0x496E76616C696420766F74657220617272617973000000000000000000000000 PUSH0 DUP3 ADD MSTORE POP JUMP JUMPDEST PUSH0 PUSH2 0x5B47 PUSH1 0x14 DUP4 PUSH2 0x4DEB JUMP JUMPDEST SWAP2 POP PUSH2 0x5B52 DUP3 PUSH2 0x5B13 JUMP JUMPDEST PUSH1 0x20 DUP3 ADD SWAP1 POP SWAP2 SWAP1 POP JUMP JUMPDEST PUSH0 PUSH1 0x20 DUP3 ADD SWAP1 POP DUP2 DUP2 SUB PUSH0 DUP4 ADD MSTORE PUSH2 0x5B74 DUP2 PUSH2 0x5B3B JUMP JUMPDEST SWAP1 POP SWAP2 SWAP1 POP JUMP JUMPDEST PUSH32 0x4E487B7100000000000000000000000000000000000000000000000000000000 PUSH0 MSTORE PUSH1 0x32 PUSH1 0x4 MSTORE PUSH1 0x24 PUSH0 REVERT JUMPDEST PUSH32 0x496E76616C6964206F6C6420766F746572000000000000000000000000000000 PUSH0 DUP3 ADD MSTORE POP JUMP JUMPDEST PUSH0 PUSH2 0x5BDC PUSH1 0x11 DUP4 PUSH2 0x4DEB JUMP JUMPDEST SWAP2 POP PUSH2 0x5BE7 DUP3 PUSH2 0x5BA8 JUMP JUMPDEST PUSH1 0x20 DUP3 ADD SWAP1 POP SWAP2 SWAP1 POP JUMP JUMPDEST PUSH0 PUSH1 0x20 DUP3 ADD SWAP1 POP DUP2 DUP2 SUB PUSH0 DUP4 ADD MSTORE PUSH2 0x5C09 DUP2 PUSH2 0x5BD0 JUMP JUMPDEST SWAP1 POP SWAP2 SWAP1 POP JUMP JUMPDEST PUSH32 0x496E76616C6964206E657720766F746572000000000000000000000000000000 PUSH0 DUP3 ADD MSTORE POP JUMP JUMPDEST PUSH0 PUSH2 0x5C44 PUSH1 0x11 DUP4 PUSH2 0x4DEB JUMP JUMPDEST SWAP2 POP PUSH2 0x5C4F DUP3 PUSH2 0x5C10 JUMP JUMPDEST PUSH1 0x20 DUP3 ADD SWAP1 POP SWAP2 SWAP1 POP JUMP JUMPDEST PUSH0 PUSH1 0x20 DUP3 ADD SWAP1 POP DUP2 DUP2 SUB PUSH0 DUP4 ADD MSTORE PUSH2 0x5C71 DUP2 PUSH2 0x5C38 JUMP JUMPDEST SWAP1 POP SWAP2 SWAP1 POP JUMP JUMPDEST PUSH0 PUSH2 0x5C82 DUP3 PUSH2 0x4CC2 JUMP JUMPDEST SWAP2 POP PUSH2 0x5C8D DUP4 PUSH2 0x4CC2 JUMP JUMPDEST SWAP3 POP DUP3 DUP3 ADD SWAP1 POP DUP1 DUP3 GT ISZERO PUSH2 0x5CA5 JUMPI PUSH2 0x5CA4 PUSH2 0x5702 JUMP JUMPDEST JUMPDEST SWAP3 SWAP2 POP POP JUMP JUMPDEST PUSH32 0x4475706C6963617465206E657720766F74657200000000000000000000000000 PUSH0 DUP3 ADD MSTORE POP JUMP JUMPDEST PUSH0 PUSH2 0x5CDF PUSH1 0x13 DUP4 PUSH2 0x4DEB JUMP JUMPDEST SWAP2 POP PUSH2 0x5CEA DUP3 PUSH2 0x5CAB JUMP JUMPDEST PUSH1 0x20 DUP3 ADD SWAP1 POP SWAP2 SWAP1 POP JUMP JUMPDEST PUSH0 PUSH1 0x20 DUP3 ADD SWAP1 POP DUP2 DUP2 SUB PUSH0 DUP4 ADD MSTORE PUSH2 0x5D0C DUP2 PUSH2 0x5CD3 JUMP JUMPDEST SWAP1 POP SWAP2 SWAP1 POP JUMP JUMPDEST PUSH32 0x496E76616C6964206F722077686974656C697374656420746172676574000000 PUSH0 DUP3 ADD MSTORE POP JUMP JUMPDEST PUSH0 PUSH2 0x5D47 PUSH1 0x1D DUP4 PUSH2 0x4DEB JUMP JUMPDEST SWAP2 POP PUSH2 0x5D52 DUP3 PUSH2 0x5D13 JUMP JUMPDEST PUSH1 0x20 DUP3 ADD SWAP1 POP SWAP2 SWAP1 POP JUMP JUMPDEST PUSH0 PUSH1 0x20 DUP3 ADD SWAP1 POP DUP2 DUP2 SUB PUSH0 DUP4 ADD MSTORE PUSH2 0x5D74 DUP2 PUSH2 0x5D3B JUMP JUMPDEST SWAP1 POP SWAP2 SWAP1 POP JUMP JUMPDEST PUSH32 0x546172676574206E6F742077686974656C697374656400000000000000000000 PUSH0 DUP3 ADD MSTORE POP JUMP JUMPDEST PUSH0 PUSH2 0x5DAF PUSH1 0x16 DUP4 PUSH2 0x4DEB JUMP JUMPDEST SWAP2 POP PUSH2 0x5DBA DUP3 PUSH2 0x5D7B JUMP JUMPDEST PUSH1 0x20 DUP3 ADD SWAP1 POP SWAP2 SWAP1 POP JUMP JUMPDEST PUSH0 PUSH1 0x20 DUP3 ADD SWAP1 POP DUP2 DUP2 SUB PUSH0 DUP4 ADD MSTORE PUSH2 0x5DDC DUP2 PUSH2 0x5DA3 JUMP JUMPDEST SWAP1 POP SWAP2 SWAP1 POP JUMP JUMPDEST PUSH32 0x496E76616C6964206F722066726F7A656E207461726765740000000000000000 PUSH0 DUP3 ADD MSTORE POP JUMP JUMPDEST PUSH0 PUSH2 0x5E17 PUSH1 0x18 DUP4 PUSH2 0x4DEB JUMP JUMPDEST SWAP2 POP PUSH2 0x5E22 DUP3 PUSH2 0x5DE3 JUMP JUMPDEST PUSH1 0x20 DUP3 ADD SWAP1 POP SWAP2 SWAP1 POP JUMP JUMPDEST PUSH0 PUSH1 0x20 DUP3 ADD SWAP1 POP DUP2 DUP2 SUB PUSH0 DUP4 ADD MSTORE PUSH2 0x5E44 DUP2 PUSH2 0x5E0B JUMP JUMPDEST SWAP1 POP SWAP2 SWAP1 POP JUMP JUMPDEST PUSH32 0x546172676574206E6F742066726F7A656E000000000000000000000000000000 PUSH0 DUP3 ADD MSTORE POP JUMP JUMPDEST PUSH0 PUSH2 0x5E7F PUSH1 0x11 DUP4 PUSH2 0x4DEB JUMP JUMPDEST SWAP2 POP PUSH2 0x5E8A DUP3 PUSH2 0x5E4B JUMP JUMPDEST PUSH1 0x20 DUP3 ADD SWAP1 POP SWAP2 SWAP1 POP JUMP JUMPDEST PUSH0 PUSH1 0x20 DUP3 ADD SWAP1 POP DUP2 DUP2 SUB PUSH0 DUP4 ADD MSTORE PUSH2 0x5EAC DUP2 PUSH2 0x5E73 JUMP JUMPDEST SWAP1 POP SWAP2 SWAP1 POP JUMP JUMPDEST PUSH32 0x496E76616C696420726563697069656E74000000000000000000000000000000 PUSH0 DUP3 ADD MSTORE POP JUMP JUMPDEST PUSH0 PUSH2 0x5EE7 PUSH1 0x11 DUP4 PUSH2 0x4DEB JUMP JUMPDEST SWAP2 POP PUSH2 0x5EF2 DUP3 PUSH2 0x5EB3 JUMP JUMPDEST PUSH1 0x20 DUP3 ADD SWAP1 POP SWAP2 SWAP1 POP JUMP JUMPDEST PUSH0 PUSH1 0x20 DUP3 ADD SWAP1 POP DUP2 DUP2 SUB PUSH0 DUP4 ADD MSTORE PUSH2 0x5F14 DUP2 PUSH2 0x5EDB JUMP JUMPDEST SWAP1 POP SWAP2 SWAP1 POP JUMP JUMPDEST PUSH32 0x496E76616C6964206D696E7420616D6F756E7400000000000000000000000000 PUSH0 DUP3 ADD MSTORE POP JUMP JUMPDEST PUSH0 PUSH2 0x5F4F PUSH1 0x13 DUP4 PUSH2 0x4DEB JUMP JUMPDEST SWAP2 POP PUSH2 0x5F5A DUP3 PUSH2 0x5F1B JUMP JUMPDEST PUSH1 0x20 DUP3 ADD SWAP1 POP SWAP2 SWAP1 POP JUMP JUMPDEST PUSH0 PUSH1 0x20 DUP3 ADD SWAP1 POP DUP2 DUP2 SUB PUSH0 DUP4 ADD MSTORE PUSH2 0x5F7C DUP2 PUSH2 0x5F43 JUMP JUMPDEST SWAP1 POP SWAP2 SWAP1 POP JUMP JUMPDEST PUSH0 DUP2 SWAP1 POP DUP2 PUSH0 MSTORE PUSH1 0x20 PUSH0 KECCAK256 SWAP1 POP SWAP2 SWAP1 POP JUMP JUMPDEST PUSH0 PUSH1 0x20 PUSH1 0x1F DUP4 ADD DIV SWAP1 POP SWAP2 SWAP1 POP JUMP JUMPDEST PUSH0 DUP3 DUP3 SHL SWAP1 POP SWAP3 SWAP2 POP POP JUMP JUMPDEST PUSH0 PUSH1 0x8 DUP4 MUL PUSH2 0x5FDF PUSH32 0xFFFFFFFFFFFFFFFFFFFFFFFFFFFFFFFFFFFFFFFFFFFFFFFFFFFFFFFFFFFFFFFF DUP3 PUSH2 0x5FA4 JUMP JUMPDEST PUSH2 0x5FE9 DUP7 DUP4 PUSH2 0x5FA4 JUMP JUMPDEST SWAP6 POP DUP1 NOT DUP5 AND SWAP4 POP DUP1 DUP7 AND DUP5 OR SWAP3 POP POP POP SWAP4 SWAP3 POP POP POP JUMP JUMPDEST PUSH0 DUP2 SWAP1 POP SWAP2 SWAP1 POP JUMP JUMPDEST PUSH0 PUSH2 0x6024 PUSH2 0x601F PUSH2 0x601A DUP5 PUSH2 0x4CC2 JUMP JUMPDEST PUSH2 0x6001 JUMP JUMPDEST PUSH2 0x4CC2 JUMP JUMPDEST SWAP1 POP SWAP2 SWAP1 POP JUMP JUMPDEST PUSH0 DUP2 SWAP1 POP SWAP2 SWAP1 POP JUMP JUMPDEST PUSH2 0x603D DUP4 PUSH2 0x600A JUMP JUMPDEST PUSH2 0x6051 PUSH2 0x6049 DUP3 PUSH2 0x602B JUMP JUMPDEST DUP5 DUP5 SLOAD PUSH2 0x5FB0 JUMP JUMPDEST DUP3 SSTORE POP POP POP POP JUMP JUMPDEST PUSH0 PUSH0 SWAP1 POP SWAP1 JUMP JUMPDEST PUSH2 0x6068 PUSH2 0x6059 JUMP JUMPDEST PUSH2 0x6073 DUP2 DUP5 DUP5 PUSH2 0x6034 JUMP JUMPDEST POP POP POP JUMP JUMPDEST JUMPDEST DUP2 DUP2 LT ISZERO PUSH2 0x6096 JUMPI PUSH2 0x608B PUSH0 DUP3 PUSH2 0x6060 JUMP JUMPDEST PUSH1 0x1 DUP2 ADD SWAP1 POP PUSH2 0x6079 JUMP JUMPDEST POP POP JUMP JUMPDEST PUSH1 0x1F DUP3 GT ISZERO PUSH2 0x60DB JUMPI PUSH2 0x60AC DUP2 PUSH2 0x5F83 JUMP JUMPDEST PUSH2 0x60B5 DUP5 PUSH2 0x5F95 JUMP JUMPDEST DUP2 ADD PUSH1 0x20 DUP6 LT ISZERO PUSH2 0x60C4 JUMPI DUP2 SWAP1 POP JUMPDEST PUSH2 0x60D8 PUSH2 0x60D0 DUP6 PUSH2 0x5F95 JUMP JUMPDEST DUP4 ADD DUP3 PUSH2 0x6078 JUMP JUMPDEST POP POP JUMPDEST POP POP POP JUMP JUMPDEST PUSH0 DUP3 DUP3 SHR SWAP1 POP SWAP3 SWAP2 POP POP JUMP JUMPDEST PUSH0 PUSH2 0x60FB PUSH0 NOT DUP5 PUSH1 0x8 MUL PUSH2 0x60E0 JUMP JUMPDEST NOT DUP1 DUP4 AND SWAP2 POP POP SWAP3 SWAP2 POP POP JUMP JUMPDEST PUSH0 PUSH2 0x6113 DUP4 DUP4 PUSH2 0x60EC JUMP JUMPDEST SWAP2 POP DUP3 PUSH1 0x2 MUL DUP3 OR SWAP1 POP SWAP3 SWAP2 POP POP JUMP JUMPDEST PUSH2 0x612C DUP3 PUSH2 0x4DE1 JUMP JUMPDEST PUSH8 0xFFFFFFFFFFFFFFFF DUP2 GT ISZERO PUSH2 0x6145 JUMPI PUSH2 0x6144 PUSH2 0x4EF2 JUMP JUMPDEST JUMPDEST PUSH2 0x614F DUP3 SLOAD PUSH2 0x580B JUMP JUMPDEST PUSH2 0x615A DUP3 DUP3 DUP6 PUSH2 0x609A JUMP JUMPDEST PUSH0 PUSH1 0x20 SWAP1 POP PUSH1 0x1F DUP4 GT PUSH1 0x1 DUP2 EQ PUSH2 0x618B JUMPI PUSH0 DUP5 ISZERO PUSH2 0x6179 JUMPI DUP3 DUP8 ADD MLOAD SWAP1 POP JUMPDEST PUSH2 0x6183 DUP6 DUP3 PUSH2 0x6108 JUMP JUMPDEST DUP7 SSTORE POP PUSH2 0x61EA JUMP JUMPDEST PUSH1 0x1F NOT DUP5 AND PUSH2 0x6199 DUP7 PUSH2 0x5F83 JUMP JUMPDEST PUSH0 JUMPDEST DUP3 DUP2 LT ISZERO PUSH2 0x61C0 JUMPI DUP5 DUP10 ADD MLOAD DUP3 SSTORE PUSH1 0x1 DUP3 ADD SWAP2 POP PUSH1 0x20 DUP6 ADD SWAP5 POP PUSH1 0x20 DUP2 ADD SWAP1 POP PUSH2 0x619B JUMP JUMPDEST DUP7 DUP4 LT ISZERO PUSH2 0x61DD JUMPI DUP5 DUP10 ADD MLOAD PUSH2 0x61D9 PUSH1 0x1F DUP10 AND DUP3 PUSH2 0x60EC JUMP JUMPDEST DUP4 SSTORE POP JUMPDEST PUSH1 0x1 PUSH1 0x2 DUP9 MUL ADD DUP9 SSTORE POP POP POP JUMPDEST POP POP POP POP POP POP JUMP JUMPDEST PUSH0 PUSH1 0x40 DUP3 ADD SWAP1 POP PUSH2 0x6205 PUSH0 DUP4 ADD DUP6 PUSH2 0x4D84 JUMP JUMPDEST PUSH2 0x6212 PUSH1 0x20 DUP4 ADD DUP5 PUSH2 0x4DC3 JUMP JUMPDEST SWAP4 SWAP3 POP POP POP JUMP JUMPDEST PUSH0 DUP2 SLOAD PUSH2 0x6225 DUP2 PUSH2 0x580B JUMP JUMPDEST PUSH2 0x622F DUP2 DUP7 PUSH2 0x4DEB JUMP JUMPDEST SWAP5 POP PUSH1 0x1 DUP3 AND PUSH0 DUP2 EQ PUSH2 0x6249 JUMPI PUSH1 0x1 DUP2 EQ PUSH2 0x625F JUMPI PUSH2 0x6291 JUMP JUMPDEST PUSH1 0xFF NOT DUP4 AND DUP7 MSTORE DUP2 ISZERO ISZERO PUSH1 0x20 MUL DUP7 ADD SWAP4 POP PUSH2 0x6291 JUMP JUMPDEST PUSH2 0x6268 DUP6 PUSH2 0x5F83 JUMP JUMPDEST PUSH0 JUMPDEST DUP4 DUP2 LT ISZERO PUSH2 0x6289 JUMPI DUP2 SLOAD DUP2 DUP10 ADD MSTORE PUSH1 0x1 DUP3 ADD SWAP2 POP PUSH1 0x20 DUP2 ADD SWAP1 POP PUSH2 0x626A JUMP JUMPDEST DUP1 DUP9 ADD SWAP6 POP POP POP JUMPDEST POP POP POP SWAP3 SWAP2 POP POP JUMP JUMPDEST PUSH0 PUSH1 0x20 DUP3 ADD SWAP1 POP DUP2 DUP2 SUB PUSH0 DUP4 ADD MSTORE PUSH2 0x62B2 DUP2 DUP5 PUSH2 0x6219 JUMP JUMPDEST SWAP1 POP SWAP3 SWAP2 POP POP JUMP JUMPDEST PUSH0 DUP2 SLOAD SWAP1 POP SWAP2 SWAP1 POP JUMP JUMPDEST PUSH0 DUP3 DUP3 MSTORE PUSH1 0x20 DUP3 ADD SWAP1 POP SWAP3 SWAP2 POP POP JUMP JUMPDEST PUSH0 DUP2 SWAP1 POP DUP2 PUSH0 MSTORE PUSH1 0x20 PUSH0 KECCAK256 SWAP1 POP SWAP2 SWAP1 POP JUMP JUMPDEST PUSH2 0x62EF DUP2 PUSH2 0x4DB2 JUMP JUMPDEST DUP3 MSTORE POP POP JUMP JUMPDEST PUSH0 PUSH2 0x6300 DUP4 DUP4 PUSH2 0x62E6 JUMP JUMPDEST PUSH1 0x20 DUP4 ADD SWAP1 POP SWAP3 SWAP2 POP POP JUMP JUMPDEST PUSH0 DUP2 PUSH0 SHR SWAP1 POP SWAP2 SWAP1 POP JUMP JUMPDEST PUSH0 PUSH20 0xFFFFFFFFFFFFFFFFFFFFFFFFFFFFFFFFFFFFFFFF DUP3 AND SWAP1 POP SWAP2 SWAP1 POP JUMP JUMPDEST PUSH0 PUSH2 0x6348 PUSH2 0x6343 DUP4 PUSH2 0x630C JUMP JUMPDEST PUSH2 0x6317 JUMP JUMPDEST SWAP1 POP SWAP2 SWAP1 POP JUMP JUMPDEST PUSH0 PUSH2 0x635A DUP3 SLOAD PUSH2 0x6336 JUMP JUMPDEST SWAP1 POP SWAP2 SWAP1 POP JUMP JUMPDEST PUSH0 PUSH1 0x1 DUP3 ADD SWAP1 POP SWAP2 SWAP1 POP JUMP JUMPDEST PUSH0 PUSH2 0x6377 DUP3 PUSH2 0x62BA JUMP JUMPDEST PUSH2 0x6381 DUP2 DUP6 PUSH2 0x62C4 JUMP JUMPDEST SWAP4 POP PUSH2 0x638C DUP4 PUSH2 0x62D4 JUMP JUMPDEST DUP1 PUSH0 JUMPDEST DUP4 DUP2 LT ISZERO PUSH2 0x63C3 JUMPI PUSH2 0x63A0 DUP3 PUSH2 0x634F JUMP JUMPDEST PUSH2 0x63AA DUP9 DUP3 PUSH2 0x62F5 JUMP JUMPDEST SWAP8 POP PUSH2 0x63B5 DUP4 PUSH2 0x6361 JUMP JUMPDEST SWAP3 POP POP PUSH1 0x1 DUP2 ADD SWAP1 POP PUSH2 0x638F JUMP JUMPDEST POP DUP6 SWAP4 POP POP POP POP SWAP3 SWAP2 POP POP JUMP JUMPDEST PUSH0 PUSH1 0x40 DUP3 ADD SWAP1 POP DUP2 DUP2 SUB PUSH0 DUP4 ADD MSTORE PUSH2 0x63E8 DUP2 DUP6 PUSH2 0x636D JUMP JUMPDEST SWAP1 POP DUP2 DUP2 SUB PUSH1 0x20 DUP4 ADD MSTORE PUSH2 0x63FC DUP2 DUP5 PUSH2 0x636D JUMP JUMPDEST SWAP1 POP SWAP4 SWAP3 POP POP POP JUMP JUMPDEST PUSH32 0x57686974656C6973740000000000000000000000000000000000000000000000 PUSH0 DUP3 ADD MSTORE POP JUMP JUMPDEST PUSH0 PUSH2 0x6439 PUSH1 0x9 DUP4 PUSH2 0x4DEB JUMP JUMPDEST SWAP2 POP PUSH2 0x6444 DUP3 PUSH2 0x6405 JUMP JUMPDEST PUSH1 0x20 DUP3 ADD SWAP1 POP SWAP2 SWAP1 POP JUMP JUMPDEST PUSH0 PUSH1 0x40 DUP3 ADD SWAP1 POP DUP2 DUP2 SUB PUSH0 DUP4 ADD MSTORE PUSH2 0x6466 DUP2 PUSH2 0x642D JUMP JUMPDEST SWAP1 POP PUSH2 0x6475 PUSH1 0x20 DUP4 ADD DUP5 PUSH2 0x4E5C JUMP JUMPDEST SWAP3 SWAP2 POP POP JUMP JUMPDEST PUSH32 0x467265657A650000000000000000000000000000000000000000000000000000 PUSH0 DUP3 ADD MSTORE POP JUMP JUMPDEST PUSH0 PUSH2 0x64AF PUSH1 0x6 DUP4 PUSH2 0x4DEB JUMP JUMPDEST SWAP2 POP PUSH2 0x64BA DUP3 PUSH2 0x647B JUMP JUMPDEST PUSH1 0x20 DUP3 ADD SWAP1 POP SWAP2 SWAP1 POP JUMP JUMPDEST PUSH0 PUSH1 0x40 DUP3 ADD SWAP1 POP DUP2 DUP2 SUB PUSH0 DUP4 ADD MSTORE PUSH2 0x64DC DUP2 PUSH2 0x64A3 JUMP JUMPDEST SWAP1 POP PUSH2 0x64EB PUSH1 0x20 DUP4 ADD DUP5 PUSH2 0x4E5C JUMP JUMPDEST SWAP3 SWAP2 POP POP JUMP JUMPDEST PUSH0 PUSH1 0x40 DUP3 ADD SWAP1 POP PUSH2 0x6504 PUSH0 DUP4 ADD DUP6 PUSH2 0x4DC3 JUMP JUMPDEST PUSH2 0x6511 PUSH1 0x20 DUP4 ADD DUP5 PUSH2 0x4DD2 JUMP JUMPDEST SWAP4 SWAP3 POP POP POP JUMP JUMPDEST PUSH0 PUSH1 0x20 DUP3 ADD SWAP1 POP PUSH2 0x652B PUSH0 DUP4 ADD DUP5 PUSH2 0x4D84 JUMP JUMPDEST SWAP3 SWAP2 POP POP JUMP JUMPDEST PUSH32 0x496E76616C696420696E70757420616D6F756E74000000000000000000000000 PUSH0 DUP3 ADD MSTORE POP JUMP JUMPDEST PUSH0 PUSH2 0x6565 PUSH1 0x14 DUP4 PUSH2 0x4DEB JUMP JUMPDEST SWAP2 POP PUSH2 0x6570 DUP3 PUSH2 0x6531 JUMP JUMPDEST PUSH1 0x20 DUP3 ADD SWAP1 POP SWAP2 SWAP1 POP JUMP JUMPDEST PUSH0 PUSH1 0x20 DUP3 ADD SWAP1 POP DUP2 DUP2 SUB PUSH0 DUP4 ADD MSTORE PUSH2 0x6592 DUP2 PUSH2 0x6559 JUMP JUMPDEST SWAP1 POP SWAP2 SWAP1 POP JUMP JUMPDEST PUSH0 PUSH2 0x65A3 DUP3 PUSH2 0x4CC2 JUMP JUMPDEST SWAP2 POP PUSH2 0x65AE DUP4 PUSH2 0x4CC2 JUMP JUMPDEST SWAP3 POP DUP3 DUP3 MUL PUSH2 0x65BC DUP2 PUSH2 0x4CC2 JUMP JUMPDEST SWAP2 POP DUP3 DUP3 DIV DUP5 EQ DUP4 ISZERO OR PUSH2 0x65D3 JUMPI PUSH2 0x65D2 PUSH2 0x5702 JUMP JUMPDEST JUMPDEST POP SWAP3 SWAP2 POP POP JUMP JUMPDEST PUSH32 0x416D6F756E7420746F6F20736D616C6C00000000000000000000000000000000 PUSH0 DUP3 ADD MSTORE POP JUMP JUMPDEST PUSH0 PUSH2 0x660E PUSH1 0x10 DUP4 PUSH2 0x4DEB JUMP JUMPDEST SWAP2 POP PUSH2 0x6619 DUP3 PUSH2 0x65DA JUMP JUMPDEST PUSH1 0x20 DUP3 ADD SWAP1 POP SWAP2 SWAP1 POP JUMP JUMPDEST PUSH0 PUSH1 0x20 DUP3 ADD SWAP1 POP DUP2 DUP2 SUB PUSH0 DUP4 ADD MSTORE PUSH2 0x663B DUP2 PUSH2 0x6602 JUMP JUMPDEST SWAP1 POP SWAP2 SWAP1 POP JUMP JUMPDEST PUSH32 0x4578636565647320746F74616C20737570706C79000000000000000000000000 PUSH0 DUP3 ADD MSTORE POP JUMP JUMPDEST PUSH0 PUSH2 0x6676 PUSH1 0x14 DUP4 PUSH2 0x4DEB JUMP JUMPDEST SWAP2 POP PUSH2 0x6681 DUP3 PUSH2 0x6642 JUMP JUMPDEST PUSH1 0x20 DUP3 ADD SWAP1 POP SWAP2 SWAP1 POP JUMP JUMPDEST PUSH0 PUSH1 0x20 DUP3 ADD SWAP1 POP DUP2 DUP2 SUB PUSH0 DUP4 ADD MSTORE PUSH2 0x66A3 DUP2 PUSH2 0x666A JUMP JUMPDEST SWAP1 POP SWAP2 SWAP1 POP JUMP JUMPDEST PUSH0 PUSH1 0x40 DUP3 ADD SWAP1 POP PUSH2 0x66BD PUSH0 DUP4 ADD DUP6 PUSH2 0x4DD2 JUMP JUMPDEST PUSH2 0x66CA PUSH1 0x20 DUP4 ADD DUP5 PUSH2 0x4DD2 JUMP JUMPDEST SWAP4 SWAP3 POP POP POP JUMP JUMPDEST PUSH32 0x53656E6465722066726F7A656E00000000000000000000000000000000000000 PUSH0 DUP3 ADD MSTORE POP JUMP JUMPDEST PUSH0 PUSH2 0x6705 PUSH1 0xD DUP4 PUSH2 0x4DEB JUMP JUMPDEST SWAP2 POP PUSH2 0x6710 DUP3 PUSH2 0x66D1 JUMP JUMPDEST PUSH1 0x20 DUP3 ADD SWAP1 POP SWAP2 SWAP1 POP JUMP JUMPDEST PUSH0 PUSH1 0x20 DUP3 ADD SWAP1 POP DUP2 DUP2 SUB PUSH0 DUP4 ADD MSTORE PUSH2 0x6732 DUP2 PUSH2 0x66F9 JUMP JUMPDEST SWAP1 POP SWAP2 SWAP1 POP JUMP JUMPDEST PUSH32 0x496E76616C696420616D6F756E74000000000000000000000000000000000000 PUSH0 DUP3 ADD MSTORE POP JUMP JUMPDEST PUSH0 PUSH2 0x676D PUSH1 0xE DUP4 PUSH2 0x4DEB JUMP JUMPDEST SWAP2 POP PUSH2 0x6778 DUP3 PUSH2 0x6739 JUMP JUMPDEST PUSH1 0x20 DUP3 ADD SWAP1 POP SWAP2 SWAP1 POP JUMP JUMPDEST PUSH0 PUSH1 0x20 DUP3 ADD SWAP1 POP DUP2 DUP2 SUB PUSH0 DUP4 ADD MSTORE PUSH2 0x679A DUP2 PUSH2 0x6761 JUMP JUMPDEST SWAP1 POP SWAP2 SWAP1 POP JUMP JUMPDEST PUSH32 0x496E74657276616C206E6F742072656163686564000000000000000000000000 PUSH0 DUP3 ADD MSTORE POP JUMP JUMPDEST PUSH0 PUSH2 0x67D5 PUSH1 0x14 DUP4 PUSH2 0x4DEB JUMP JUMPDEST SWAP2 POP PUSH2 0x67E0 DUP3 PUSH2 0x67A1 JUMP JUMPDEST PUSH1 0x20 DUP3 ADD SWAP1 POP SWAP2 SWAP1 POP JUMP JUMPDEST PUSH0 PUSH1 0x20 DUP3 ADD SWAP1 POP DUP2 DUP2 SUB PUSH0 DUP4 ADD MSTORE PUSH2 0x6802 DUP2 PUSH2 0x67C9 JUMP JUMPDEST SWAP1 POP SWAP2 SWAP1 POP JUMP JUMPDEST PUSH0 PUSH2 0x6813 DUP3 PUSH2 0x4CC2 JUMP JUMPDEST SWAP2 POP PUSH2 0x681E DUP4 PUSH2 0x4CC2 JUMP JUMPDEST SWAP3 POP DUP3 DUP3 SUB SWAP1 POP DUP2 DUP2 GT ISZERO PUSH2 0x6836 JUMPI PUSH2 0x6835 PUSH2 0x5702 JUMP JUMPDEST JUMPDEST SWAP3 SWAP2 POP POP JUMP JUMPDEST PUSH32 0x4175746F206261746368206D696E7420696E74657276616C206E6F7420726561 PUSH0 DUP3 ADD MSTORE PUSH32 0x6368656400000000000000000000000000000000000000000000000000000000 PUSH1 0x20 DUP3 ADD MSTORE POP JUMP JUMPDEST PUSH0 PUSH2 0x6896 PUSH1 0x24 DUP4 PUSH2 0x4DEB JUMP JUMPDEST SWAP2 POP PUSH2 0x68A1 DUP3 PUSH2 0x683C JUMP JUMPDEST PUSH1 0x40 DUP3 ADD SWAP1 POP SWAP2 SWAP1 POP JUMP JUMPDEST PUSH0 PUSH1 0x20 DUP3 ADD SWAP1 POP DUP2 DUP2 SUB PUSH0 DUP4 ADD MSTORE PUSH2 0x68C3 DUP2 PUSH2 0x688A JUMP JUMPDEST SWAP1 POP SWAP2 SWAP1 POP JUMP JUMPDEST PUSH32 0x4E6F7420696E69746961746F7200000000000000000000000000000000000000 PUSH0 DUP3 ADD MSTORE POP JUMP JUMPDEST PUSH0 PUSH2 0x68FE PUSH1 0xD DUP4 PUSH2 0x4DEB JUMP JUMPDEST SWAP2 POP PUSH2 0x6909 DUP3 PUSH2 0x68CA JUMP JUMPDEST PUSH1 0x20 DUP3 ADD SWAP1 POP SWAP2 SWAP1 POP JUMP JUMPDEST PUSH0 PUSH1 0x20 DUP3 ADD SWAP1 POP DUP2 DUP2 SUB PUSH0 DUP4 ADD MSTORE PUSH2 0x692B DUP2 PUSH2 0x68F2 JUMP JUMPDEST SWAP1 POP SWAP2 SWAP1 POP JUMP JUMPDEST PUSH32 0x496E76616C69642070726F706F73616C20747970650000000000000000000000 PUSH0 DUP3 ADD MSTORE POP JUMP JUMPDEST PUSH0 PUSH2 0x6966 PUSH1 0x15 DUP4 PUSH2 0x4DEB JUMP JUMPDEST SWAP2 POP PUSH2 0x6971 DUP3 PUSH2 0x6932 JUMP JUMPDEST PUSH1 0x20 DUP3 ADD SWAP1 POP SWAP2 SWAP1 POP JUMP JUMPDEST PUSH0 PUSH1 0x20 DUP3 ADD SWAP1 POP DUP2 DUP2 SUB PUSH0 DUP4 ADD MSTORE PUSH2 0x6993 DUP2 PUSH2 0x695A JUMP JUMPDEST SWAP1 POP SWAP2 SWAP1 POP JUMP JUMPDEST PUSH32 0x43616E63656C6C6174696F6E2077696E646F7720636C6F736564000000000000 PUSH0 DUP3 ADD MSTORE POP JUMP JUMPDEST PUSH0 PUSH2 0x69CE PUSH1 0x1A DUP4 PUSH2 0x4DEB JUMP JUMPDEST SWAP2 POP PUSH2 0x69D9 DUP3 PUSH2 0x699A JUMP JUMPDEST PUSH1 0x20 DUP3 ADD SWAP1 POP SWAP2 SWAP1 POP JUMP JUMPDEST PUSH0 PUSH1 0x20 DUP3 ADD SWAP1 POP DUP2 DUP2 SUB PUSH0 DUP4 ADD MSTORE PUSH2 0x69FB DUP2 PUSH2 0x69C2 JUMP JUMPDEST SWAP1 POP SWAP2 SWAP1 POP JUMP JUMPDEST PUSH32 0x5265656E7472616E637947756172643A207265656E7472616E742063616C6C00 PUSH0 DUP3 ADD MSTORE POP JUMP JUMPDEST PUSH0 PUSH2 0x6A36 PUSH1 0x1F DUP4 PUSH2 0x4DEB JUMP JUMPDEST SWAP2 POP PUSH2 0x6A41 DUP3 PUSH2 0x6A02 JUMP JUMPDEST PUSH1 0x20 DUP3 ADD SWAP1 POP SWAP2 SWAP1 POP JUMP JUMPDEST PUSH0 PUSH1 0x20 DUP3 ADD SWAP1 POP DUP2 DUP2 SUB PUSH0 DUP4 ADD MSTORE PUSH2 0x6A63 DUP2 PUSH2 0x6A2A JUMP JUMPDEST SWAP1 POP SWAP2 SWAP1 POP JUMP JUMPDEST PUSH32 0x57686974656C6973742061646472657373657320617272617920656D70747900 PUSH0 DUP3 ADD MSTORE POP JUMP JUMPDEST PUSH0 PUSH2 0x6A9E PUSH1 0x1F DUP4 PUSH2 0x4DEB JUMP JUMPDEST SWAP2 POP PUSH2 0x6AA9 DUP3 PUSH2 0x6A6A JUMP JUMPDEST PUSH1 0x20 DUP3 ADD SWAP1 POP SWAP2 SWAP1 POP JUMP JUMPDEST PUSH0 PUSH1 0x20 DUP3 ADD SWAP1 POP DUP2 DUP2 SUB PUSH0 DUP4 ADD MSTORE PUSH2 0x6ACB DUP2 PUSH2 0x6A92 JUMP JUMPDEST SWAP1 POP SWAP2 SWAP1 POP JUMP JUMPDEST PUSH32 0x496E76616C696420726563697069656E74206164647265737300000000000000 PUSH0 DUP3 ADD MSTORE POP JUMP JUMPDEST PUSH0 PUSH2 0x6B06 PUSH1 0x19 DUP4 PUSH2 0x4DEB JUMP JUMPDEST SWAP2 POP PUSH2 0x6B11 DUP3 PUSH2 0x6AD2 JUMP JUMPDEST PUSH1 0x20 DUP3 ADD SWAP1 POP SWAP2 SWAP1 POP JUMP JUMPDEST PUSH0 PUSH1 0x20 DUP3 ADD SWAP1 POP DUP2 DUP2 SUB PUSH0 DUP4 ADD MSTORE PUSH2 0x6B33 DUP2 PUSH2 0x6AFA JUMP JUMPDEST SWAP1 POP SWAP2 SWAP1 POP JUMP JUMPDEST PUSH32 0x526563697069656E74206E6F7420696E2077686974656C697374000000000000 PUSH0 DUP3 ADD MSTORE POP JUMP JUMPDEST PUSH0 PUSH2 0x6B6E PUSH1 0x1A DUP4 PUSH2 0x4DEB JUMP JUMPDEST SWAP2 POP PUSH2 0x6B79 DUP3 PUSH2 0x6B3A JUMP JUMPDEST PUSH1 0x20 DUP3 ADD SWAP1 POP SWAP2 SWAP1 POP JUMP JUMPDEST PUSH0 PUSH1 0x20 DUP3 ADD SWAP1 POP DUP2 DUP2 SUB PUSH0 DUP4 ADD MSTORE PUSH2 0x6B9B DUP2 PUSH2 0x6B62 JUMP JUMPDEST SWAP1 POP SWAP2 SWAP1 POP JUMP JUMPDEST PUSH32 0x50726F706F73616C206E6F742072656164790000000000000000000000000000 PUSH0 DUP3 ADD MSTORE POP JUMP JUMPDEST PUSH0 PUSH2 0x6BD6 PUSH1 0x12 DUP4 PUSH2 0x4DEB JUMP JUMPDEST SWAP2 POP PUSH2 0x6BE1 DUP3 PUSH2 0x6BA2 JUMP JUMPDEST PUSH1 0x20 DUP3 ADD SWAP1 POP SWAP2 SWAP1 POP JUMP JUMPDEST PUSH0 PUSH1 0x20 DUP3 ADD SWAP1 POP DUP2 DUP2 SUB PUSH0 DUP4 ADD MSTORE PUSH2 0x6C03 DUP2 PUSH2 0x6BCA JUMP JUMPDEST SWAP1 POP SWAP2 SWAP1 POP JUMP JUMPDEST PUSH32 0x496E73756666696369656E7420766F7465730000000000000000000000000000 PUSH0 DUP3 ADD MSTORE POP JUMP JUMPDEST PUSH0 PUSH2 0x6C3E PUSH1 0x12 DUP4 PUSH2 0x4DEB JUMP JUMPDEST SWAP2 POP PUSH2 0x6C49 DUP3 PUSH2 0x6C0A JUMP JUMPDEST PUSH1 0x20 DUP3 ADD SWAP1 POP SWAP2 SWAP1 POP JUMP JUMPDEST PUSH0 PUSH1 0x20 DUP3 ADD SWAP1 POP DUP2 DUP2 SUB PUSH0 DUP4 ADD MSTORE PUSH2 0x6C6B DUP2 PUSH2 0x6C32 JUMP JUMPDEST SWAP1 POP SWAP2 SWAP1 POP JUMP JUMPDEST PUSH0 PUSH1 0x60 DUP3 ADD SWAP1 POP PUSH2 0x6C85 PUSH0 DUP4 ADD DUP7 PUSH2 0x4DC3 JUMP JUMPDEST PUSH2 0x6C92 PUSH1 0x20 DUP4 ADD DUP6 PUSH2 0x4DD2 JUMP JUMPDEST PUSH2 0x6C9F PUSH1 0x40 DUP4 ADD DUP5 PUSH2 0x4DD2 JUMP JUMPDEST SWAP5 SWAP4 POP POP POP POP JUMP INVALID LOG2 PUSH5 0x6970667358 0x22 SLT KECCAK256 BLOCKHASH 0xD0 0xDF LT CALLF 0xE1CA 0xBF SWAP3 SWAP12 JUMPF 0x6995 SWAP16 DUP5 PUSH22 0x2BB0EFC72AE4B823BE058D4B82C3E50A64736F6C6343 STOP ADDMOD 0x1E STOP CALLER "
		},
		"gasEstimates": {
			"creation": {
				"codeDepositCost": "5573800",
				"executionCost": "infinite",
				"totalCost": "infinite"
			},
			"external": {
				"AUTO_BATCH_MINT_INTERVAL()": "393",
				"BATCH_MINT_AMOUNT()": "415",
				"DISTRIBUTION_AMOUNT()": "457",
				"DISTRIBUTION_INTERVAL()": "416",
				"EXCHANGE_RATE()": "415",
				"MIN_VOTES_FOR_MINT()": "413",
				"MIN_VOTES_FOR_USER_ACTIONS()": "393",
				"TOTAL_SUPPLY()": "2493",
				"TOTAL_VOTES_REQUIRED()": "415",
				"allowance(address,address)": "infinite",
				"approve(address,uint256)": "infinite",
				"autoBatchMintToWhitelist(address[])": "infinite",
				"balanceOf(address)": "2961",
				"balanceOfUser(address)": "2983",
				"cancelProposal(uint256)": "infinite",
				"compliance()": "468",
				"contractPaused()": "2629",
				"decimals()": "449",
				"distributeToWhitelist()": "infinite",
				"exchange(uint256,address)": "infinite",
				"executeProposal(uint256)": "infinite",
				"frozen(address)": "2944",
				"getActiveProposals()": "infinite",
				"getFrozenTokens(address)": "752",
				"getProposalCount()": "infinite",
				"hasVoted(uint256,address)": "3204",
				"identityRegistry()": "447",
				"isFrozen(address)": "2981",
				"lastAutoBatchMintTimestamp()": "2558",
				"lastDistributionTimestamp()": "2494",
				"manualBatchMintToWhitelist(address[])": "infinite",
				"mintedAmount()": "2538",
				"name()": "infinite",
				"onchainID()": "490",
				"owner()": "2649",
				"pauseContract()": "29750",
				"pauseVoting()": "infinite",
				"paused()": "2591",
				"proposals(uint256)": "infinite",
				"propose(uint8,address,uint256,string,address[],address[])": "infinite",
				"remainingSupply()": "infinite",
				"renounceOwnership()": "infinite",
				"resumeContract()": "27542",
				"resumeVoting()": "infinite",
				"symbol()": "infinite",
				"tokenName()": "infinite",
				"totalSupply()": "2566",
				"transfer(address,uint256)": "infinite",
				"transferFrom(address,address,uint256)": "infinite",
				"transferOwnership(address)": "infinite",
				"version()": "infinite",
				"vote(uint256)": "infinite",
				"voters(address)": "2900",
				"votersList(uint256)": "5035",
				"votingPaused()": "2534",
				"whitelist(address)": "2945"
			},
			"internal": {
				"_batchMintToWhitelist(address[] memory,uint256)": "infinite",
				"_checkProposalVotes(struct CCKToken.Proposal storage pointer,uint256)": "infinite",
				"_setName(string memory)": "infinite",
				"resetVotes(uint256)": "infinite"
			}
		},
		"methodIdentifiers": {
			"AUTO_BATCH_MINT_INTERVAL()": "7c224d64",
			"BATCH_MINT_AMOUNT()": "b5fc35ce",
			"DISTRIBUTION_AMOUNT()": "ff8f164f",
			"DISTRIBUTION_INTERVAL()": "08b26b75",
			"EXCHANGE_RATE()": "14a8bd0d",
			"MIN_VOTES_FOR_MINT()": "f36e32cc",
			"MIN_VOTES_FOR_USER_ACTIONS()": "2de56555",
			"TOTAL_SUPPLY()": "902d55a5",
			"TOTAL_VOTES_REQUIRED()": "302c464a",
			"allowance(address,address)": "dd62ed3e",
			"approve(address,uint256)": "095ea7b3",
			"autoBatchMintToWhitelist(address[])": "cb7a11c2",
			"balanceOf(address)": "70a08231",
			"balanceOfUser(address)": "12cae7af",
			"cancelProposal(uint256)": "e0a8f6f5",
			"compliance()": "6290865d",
			"contractPaused()": "8a67456a",
			"decimals()": "313ce567",
			"distributeToWhitelist()": "80e79a36",
			"exchange(uint256,address)": "0fe2abcf",
			"executeProposal(uint256)": "0d61b519",
			"frozen(address)": "d0516650",
			"getActiveProposals()": "5584c4f9",
			"getFrozenTokens(address)": "158b1a57",
			"getProposalCount()": "c08cc02d",
			"hasVoted(uint256,address)": "43859632",
			"identityRegistry()": "134e18f4",
			"isFrozen(address)": "e5839836",
			"lastAutoBatchMintTimestamp()": "aca9f472",
			"lastDistributionTimestamp()": "20950933",
			"manualBatchMintToWhitelist(address[])": "051069e3",
			"mintedAmount()": "2d380242",
			"name()": "06fdde03",
			"onchainID()": "aba63705",
			"owner()": "8da5cb5b",
			"pauseContract()": "439766ce",
			"pauseVoting()": "f3cdcd1e",
			"paused()": "5c975abb",
			"proposals(uint256)": "013cf08b",
			"propose(uint8,address,uint256,string,address[],address[])": "0d4efa4f",
			"remainingSupply()": "da0239a6",
			"renounceOwnership()": "715018a6",
			"resumeContract()": "c4bc5da5",
			"resumeVoting()": "7afdf93e",
			"symbol()": "95d89b41",
			"tokenName()": "6c02a931",
			"totalSupply()": "18160ddd",
			"transfer(address,uint256)": "a9059cbb",
			"transferFrom(address,address,uint256)": "23b872dd",
			"transferOwnership(address)": "f2fde38b",
			"version()": "54fd4d50",
			"vote(uint256)": "0121b93f",
			"voters(address)": "a3ec138d",
			"votersList(uint256)": "72ce73ab",
			"votingPaused()": "ae66c9ea",
			"whitelist(address)": "9b19251a"
		}
	},
	"abi": [
		{
			"inputs": [
				{
					"internalType": "string",
					"name": "initialName",
					"type": "string"
				},
				{
					"internalType": "address[]",
					"name": "_whitelist",
					"type": "address[]"
				},
				{
					"internalType": "address[]",
					"name": "_voters",
					"type": "address[]"
				}
			],
			"stateMutability": "nonpayable",
			"type": "constructor"
		},
		{
			"inputs": [
				{
					"internalType": "address",
					"name": "spender",
					"type": "address"
				},
				{
					"internalType": "uint256",
					"name": "allowance",
					"type": "uint256"
				},
				{
					"internalType": "uint256",
					"name": "needed",
					"type": "uint256"
				}
			],
			"name": "ERC20InsufficientAllowance",
			"type": "error"
		},
		{
			"inputs": [
				{
					"internalType": "address",
					"name": "sender",
					"type": "address"
				},
				{
					"internalType": "uint256",
					"name": "balance",
					"type": "uint256"
				},
				{
					"internalType": "uint256",
					"name": "needed",
					"type": "uint256"
				}
			],
			"name": "ERC20InsufficientBalance",
			"type": "error"
		},
		{
			"inputs": [
				{
					"internalType": "address",
					"name": "approver",
					"type": "address"
				}
			],
			"name": "ERC20InvalidApprover",
			"type": "error"
		},
		{
			"inputs": [
				{
					"internalType": "address",
					"name": "receiver",
					"type": "address"
				}
			],
			"name": "ERC20InvalidReceiver",
			"type": "error"
		},
		{
			"inputs": [
				{
					"internalType": "address",
					"name": "sender",
					"type": "address"
				}
			],
			"name": "ERC20InvalidSender",
			"type": "error"
		},
		{
			"inputs": [
				{
					"internalType": "address",
					"name": "spender",
					"type": "address"
				}
			],
			"name": "ERC20InvalidSpender",
			"type": "error"
		},
		{
			"inputs": [
				{
					"internalType": "address",
					"name": "owner",
					"type": "address"
				}
			],
			"name": "OwnableInvalidOwner",
			"type": "error"
		},
		{
			"inputs": [
				{
					"internalType": "address",
					"name": "account",
					"type": "address"
				}
			],
			"name": "OwnableUnauthorizedAccount",
			"type": "error"
		},
		{
			"anonymous": false,
			"inputs": [
				{
					"indexed": true,
					"internalType": "address",
					"name": "owner",
					"type": "address"
				},
				{
					"indexed": true,
					"internalType": "address",
					"name": "spender",
					"type": "address"
				},
				{
					"indexed": false,
					"internalType": "uint256",
					"name": "value",
					"type": "uint256"
				}
			],
			"name": "Approval",
			"type": "event"
		},
		{
			"anonymous": false,
			"inputs": [
				{
					"indexed": true,
					"internalType": "address[]",
					"name": "recipients",
					"type": "address[]"
				},
				{
					"indexed": false,
					"internalType": "uint256",
					"name": "amountPerAddress",
					"type": "uint256"
				},
				{
					"indexed": false,
					"internalType": "bool",
					"name": "isAuto",
					"type": "bool"
				}
			],
			"name": "BatchMint",
			"type": "event"
		},
		{
			"anonymous": false,
			"inputs": [],
			"name": "ContractPaused",
			"type": "event"
		},
		{
			"anonymous": false,
			"inputs": [],
			"name": "ContractResumed",
			"type": "event"
		},
		{
			"anonymous": false,
			"inputs": [
				{
					"indexed": true,
					"internalType": "address",
					"name": "user",
					"type": "address"
				},
				{
					"indexed": false,
					"internalType": "uint256",
					"name": "inputAmount",
					"type": "uint256"
				},
				{
					"indexed": false,
					"internalType": "uint256",
					"name": "cckAmount",
					"type": "uint256"
				},
				{
					"indexed": true,
					"internalType": "address",
					"name": "targetAddress",
					"type": "address"
				}
			],
			"name": "Exchange",
			"type": "event"
		},
		{
			"anonymous": false,
			"inputs": [
				{
					"indexed": false,
					"internalType": "address",
					"name": "to",
					"type": "address"
				},
				{
					"indexed": false,
					"internalType": "uint256",
					"name": "amount",
					"type": "uint256"
				}
			],
			"name": "MintExecuted",
			"type": "event"
		},
		{
			"anonymous": false,
			"inputs": [
				{
					"indexed": false,
					"internalType": "string",
					"name": "newName",
					"type": "string"
				}
			],
			"name": "NameChanged",
			"type": "event"
		},
		{
			"anonymous": false,
			"inputs": [
				{
					"indexed": true,
					"internalType": "address",
					"name": "previousOwner",
					"type": "address"
				},
				{
					"indexed": true,
					"internalType": "address",
					"name": "newOwner",
					"type": "address"
				}
			],
			"name": "OwnershipTransferred",
			"type": "event"
		},
		{
			"anonymous": false,
			"inputs": [
				{
					"indexed": true,
					"internalType": "uint256",
					"name": "proposalId",
					"type": "uint256"
				},
				{
					"indexed": false,
					"internalType": "enum CCKToken.ProposalType",
					"name": "proposalType",
					"type": "uint8"
				}
			],
			"name": "ProposalCancelled",
			"type": "event"
		},
		{
			"anonymous": false,
			"inputs": [
				{
					"indexed": true,
					"internalType": "uint256",
					"name": "proposalId",
					"type": "uint256"
				},
				{
					"indexed": false,
					"internalType": "enum CCKToken.ProposalType",
					"name": "proposalType",
					"type": "uint8"
				},
				{
					"indexed": false,
					"internalType": "address",
					"name": "initiator",
					"type": "address"
				}
			],
			"name": "ProposalCreated",
			"type": "event"
		},
		{
			"anonymous": false,
			"inputs": [
				{
					"indexed": true,
					"internalType": "uint256",
					"name": "proposalId",
					"type": "uint256"
				},
				{
					"indexed": false,
					"internalType": "enum CCKToken.ProposalType",
					"name": "proposalType",
					"type": "uint8"
				}
			],
			"name": "ProposalExecuted",
			"type": "event"
		},
		{
			"anonymous": false,
			"inputs": [
				{
					"indexed": true,
					"internalType": "address",
					"name": "target",
					"type": "address"
				},
				{
					"indexed": false,
					"internalType": "string",
					"name": "statusType",
					"type": "string"
				},
				{
					"indexed": false,
					"internalType": "bool",
					"name": "status",
					"type": "bool"
				}
			],
			"name": "StatusChanged",
			"type": "event"
		},
		{
			"anonymous": false,
			"inputs": [
				{
					"indexed": false,
					"internalType": "uint256",
					"name": "newTotalSupply",
					"type": "uint256"
				}
			],
			"name": "TotalSupplyAdjusted",
			"type": "event"
		},
		{
			"anonymous": false,
			"inputs": [
				{
					"indexed": true,
					"internalType": "address",
					"name": "from",
					"type": "address"
				},
				{
					"indexed": true,
					"internalType": "address",
					"name": "to",
					"type": "address"
				},
				{
					"indexed": false,
					"internalType": "uint256",
					"name": "value",
					"type": "uint256"
				}
			],
			"name": "Transfer",
			"type": "event"
		},
		{
			"anonymous": false,
			"inputs": [
				{
					"indexed": true,
					"internalType": "uint256",
					"name": "proposalId",
					"type": "uint256"
				},
				{
					"indexed": true,
					"internalType": "address",
					"name": "voter",
					"type": "address"
				}
			],
			"name": "VoteCast",
			"type": "event"
		},
		{
			"anonymous": false,
			"inputs": [
				{
					"indexed": false,
					"internalType": "address[]",
					"name": "oldVoters",
					"type": "address[]"
				},
				{
					"indexed": false,
					"internalType": "address[]",
					"name": "newVoters",
					"type": "address[]"
				}
			],
			"name": "VotersChanged",
			"type": "event"
		},
		{
			"anonymous": false,
			"inputs": [],
			"name": "VotingPaused",
			"type": "event"
		},
		{
			"anonymous": false,
			"inputs": [],
			"name": "VotingResumed",
			"type": "event"
		},
		{
			"anonymous": false,
			"inputs": [
				{
					"indexed": false,
					"internalType": "uint256",
					"name": "amount",
					"type": "uint256"
				}
			],
			"name": "WhitelistDistribution",
			"type": "event"
		},
		{
			"inputs": [],
			"name": "AUTO_BATCH_MINT_INTERVAL",
			"outputs": [
				{
					"internalType": "uint256",
					"name": "",
					"type": "uint256"
				}
			],
			"stateMutability": "view",
			"type": "function"
		},
		{
			"inputs": [],
			"name": "BATCH_MINT_AMOUNT",
			"outputs": [
				{
					"internalType": "uint256",
					"name": "",
					"type": "uint256"
				}
			],
			"stateMutability": "view",
			"type": "function"
		},
		{
			"inputs": [],
			"name": "DISTRIBUTION_AMOUNT",
			"outputs": [
				{
					"internalType": "uint256",
					"name": "",
					"type": "uint256"
				}
			],
			"stateMutability": "view",
			"type": "function"
		},
		{
			"inputs": [],
			"name": "DISTRIBUTION_INTERVAL",
			"outputs": [
				{
					"internalType": "uint256",
					"name": "",
					"type": "uint256"
				}
			],
			"stateMutability": "view",
			"type": "function"
		},
		{
			"inputs": [],
			"name": "EXCHANGE_RATE",
			"outputs": [
				{
					"internalType": "uint256",
					"name": "",
					"type": "uint256"
				}
			],
			"stateMutability": "view",
			"type": "function"
		},
		{
			"inputs": [],
			"name": "MIN_VOTES_FOR_MINT",
			"outputs": [
				{
					"internalType": "uint256",
					"name": "",
					"type": "uint256"
				}
			],
			"stateMutability": "view",
			"type": "function"
		},
		{
			"inputs": [],
			"name": "MIN_VOTES_FOR_USER_ACTIONS",
			"outputs": [
				{
					"internalType": "uint256",
					"name": "",
					"type": "uint256"
				}
			],
			"stateMutability": "view",
			"type": "function"
		},
		{
			"inputs": [],
			"name": "TOTAL_SUPPLY",
			"outputs": [
				{
					"internalType": "uint256",
					"name": "",
					"type": "uint256"
				}
			],
			"stateMutability": "view",
			"type": "function"
		},
		{
			"inputs": [],
			"name": "TOTAL_VOTES_REQUIRED",
			"outputs": [
				{
					"internalType": "uint256",
					"name": "",
					"type": "uint256"
				}
			],
			"stateMutability": "view",
			"type": "function"
		},
		{
			"inputs": [
				{
					"internalType": "address",
					"name": "owner",
					"type": "address"
				},
				{
					"internalType": "address",
					"name": "spender",
					"type": "address"
				}
			],
			"name": "allowance",
			"outputs": [
				{
					"internalType": "uint256",
					"name": "",
					"type": "uint256"
				}
			],
			"stateMutability": "view",
			"type": "function"
		},
		{
			"inputs": [
				{
					"internalType": "address",
					"name": "spender",
					"type": "address"
				},
				{
					"internalType": "uint256",
					"name": "value",
					"type": "uint256"
				}
			],
			"name": "approve",
			"outputs": [
				{
					"internalType": "bool",
					"name": "",
					"type": "bool"
				}
			],
			"stateMutability": "nonpayable",
			"type": "function"
		},
		{
			"inputs": [
				{
					"internalType": "address[]",
					"name": "whitelistAddresses",
					"type": "address[]"
				}
			],
			"name": "autoBatchMintToWhitelist",
			"outputs": [],
			"stateMutability": "nonpayable",
			"type": "function"
		},
		{
			"inputs": [
				{
					"internalType": "address",
					"name": "account",
					"type": "address"
				}
			],
			"name": "balanceOf",
			"outputs": [
				{
					"internalType": "uint256",
					"name": "",
					"type": "uint256"
				}
			],
			"stateMutability": "view",
			"type": "function"
		},
		{
			"inputs": [
				{
					"internalType": "address",
					"name": "user",
					"type": "address"
				}
			],
			"name": "balanceOfUser",
			"outputs": [
				{
					"internalType": "uint256",
					"name": "",
					"type": "uint256"
				}
			],
			"stateMutability": "view",
			"type": "function"
		},
		{
			"inputs": [
				{
					"internalType": "uint256",
					"name": "proposalId",
					"type": "uint256"
				}
			],
			"name": "cancelProposal",
			"outputs": [],
			"stateMutability": "nonpayable",
			"type": "function"
		},
		{
			"inputs": [],
			"name": "compliance",
			"outputs": [
				{
					"internalType": "address",
					"name": "",
					"type": "address"
				}
			],
			"stateMutability": "view",
			"type": "function"
		},
		{
			"inputs": [],
			"name": "contractPaused",
			"outputs": [
				{
					"internalType": "bool",
					"name": "",
					"type": "bool"
				}
			],
			"stateMutability": "view",
			"type": "function"
		},
		{
			"inputs": [],
			"name": "decimals",
			"outputs": [
				{
					"internalType": "uint8",
					"name": "",
					"type": "uint8"
				}
			],
			"stateMutability": "view",
			"type": "function"
		},
		{
			"inputs": [],
			"name": "distributeToWhitelist",
			"outputs": [],
			"stateMutability": "nonpayable",
			"type": "function"
		},
		{
			"inputs": [
				{
					"internalType": "uint256",
					"name": "inputAmount",
					"type": "uint256"
				},
				{
					"internalType": "address",
					"name": "targetAddress",
					"type": "address"
				}
			],
			"name": "exchange",
			"outputs": [],
			"stateMutability": "nonpayable",
			"type": "function"
		},
		{
			"inputs": [
				{
					"internalType": "uint256",
					"name": "proposalId",
					"type": "uint256"
				}
			],
			"name": "executeProposal",
			"outputs": [],
			"stateMutability": "nonpayable",
			"type": "function"
		},
		{
			"inputs": [
				{
					"internalType": "address",
					"name": "",
					"type": "address"
				}
			],
			"name": "frozen",
			"outputs": [
				{
					"internalType": "bool",
					"name": "",
					"type": "bool"
				}
			],
			"stateMutability": "view",
			"type": "function"
		},
		{
			"inputs": [],
			"name": "getActiveProposals",
			"outputs": [
				{
					"internalType": "uint256[]",
					"name": "ids",
					"type": "uint256[]"
				}
			],
			"stateMutability": "view",
			"type": "function"
		},
		{
			"inputs": [
				{
					"internalType": "address",
					"name": "userAddress",
					"type": "address"
				}
			],
			"name": "getFrozenTokens",
			"outputs": [
				{
					"internalType": "uint256",
					"name": "",
					"type": "uint256"
				}
			],
			"stateMutability": "view",
			"type": "function"
		},
		{
			"inputs": [],
			"name": "getProposalCount",
			"outputs": [
				{
					"internalType": "uint256",
					"name": "",
					"type": "uint256"
				}
			],
			"stateMutability": "view",
			"type": "function"
		},
		{
			"inputs": [
				{
					"internalType": "uint256",
					"name": "",
					"type": "uint256"
				},
				{
					"internalType": "address",
					"name": "",
					"type": "address"
				}
			],
			"name": "hasVoted",
			"outputs": [
				{
					"internalType": "bool",
					"name": "",
					"type": "bool"
				}
			],
			"stateMutability": "view",
			"type": "function"
		},
		{
			"inputs": [],
			"name": "identityRegistry",
			"outputs": [
				{
					"internalType": "address",
					"name": "",
					"type": "address"
				}
			],
			"stateMutability": "view",
			"type": "function"
		},
		{
			"inputs": [
				{
					"internalType": "address",
					"name": "userAddress",
					"type": "address"
				}
			],
			"name": "isFrozen",
			"outputs": [
				{
					"internalType": "bool",
					"name": "",
					"type": "bool"
				}
			],
			"stateMutability": "view",
			"type": "function"
		},
		{
			"inputs": [],
			"name": "lastAutoBatchMintTimestamp",
			"outputs": [
				{
					"internalType": "uint256",
					"name": "",
					"type": "uint256"
				}
			],
			"stateMutability": "view",
			"type": "function"
		},
		{
			"inputs": [],
			"name": "lastDistributionTimestamp",
			"outputs": [
				{
					"internalType": "uint256",
					"name": "",
					"type": "uint256"
				}
			],
			"stateMutability": "view",
			"type": "function"
		},
		{
			"inputs": [
				{
					"internalType": "address[]",
					"name": "whitelistAddresses",
					"type": "address[]"
				}
			],
			"name": "manualBatchMintToWhitelist",
			"outputs": [],
			"stateMutability": "nonpayable",
			"type": "function"
		},
		{
			"inputs": [],
			"name": "mintedAmount",
			"outputs": [
				{
					"internalType": "uint256",
					"name": "",
					"type": "uint256"
				}
			],
			"stateMutability": "view",
			"type": "function"
		},
		{
			"inputs": [],
			"name": "name",
			"outputs": [
				{
					"internalType": "string",
					"name": "",
					"type": "string"
				}
			],
			"stateMutability": "view",
			"type": "function"
		},
		{
			"inputs": [],
			"name": "onchainID",
			"outputs": [
				{
					"internalType": "address",
					"name": "",
					"type": "address"
				}
			],
			"stateMutability": "view",
			"type": "function"
		},
		{
			"inputs": [],
			"name": "owner",
			"outputs": [
				{
					"internalType": "address",
					"name": "",
					"type": "address"
				}
			],
			"stateMutability": "view",
			"type": "function"
		},
		{
			"inputs": [],
			"name": "pauseContract",
			"outputs": [],
			"stateMutability": "nonpayable",
			"type": "function"
		},
		{
			"inputs": [],
			"name": "pauseVoting",
			"outputs": [],
			"stateMutability": "nonpayable",
			"type": "function"
		},
		{
			"inputs": [],
			"name": "paused",
			"outputs": [
				{
					"internalType": "bool",
					"name": "",
					"type": "bool"
				}
			],
			"stateMutability": "view",
			"type": "function"
		},
		{
			"inputs": [
				{
					"internalType": "uint256",
					"name": "",
					"type": "uint256"
				}
			],
			"name": "proposals",
			"outputs": [
				{
					"internalType": "enum CCKToken.ProposalType",
					"name": "proposalType",
					"type": "uint8"
				},
				{
					"internalType": "address",
					"name": "initiator",
					"type": "address"
				},
				{
					"internalType": "uint256",
					"name": "voteCount",
					"type": "uint256"
				},
				{
					"internalType": "uint256",
					"name": "timestamp",
					"type": "uint256"
				},
				{
					"internalType": "address",
					"name": "target",
					"type": "address"
				},
				{
					"internalType": "uint256",
					"name": "value",
					"type": "uint256"
				},
				{
					"internalType": "string",
					"name": "name",
					"type": "string"
				},
				{
					"internalType": "bool",
					"name": "active",
					"type": "bool"
				}
			],
			"stateMutability": "view",
			"type": "function"
		},
		{
			"inputs": [
				{
					"internalType": "enum CCKToken.ProposalType",
					"name": "proposalType",
					"type": "uint8"
				},
				{
					"internalType": "address",
					"name": "target",
					"type": "address"
				},
				{
					"internalType": "uint256",
					"name": "value",
					"type": "uint256"
				},
				{
					"internalType": "string",
					"name": "name",
					"type": "string"
				},
				{
					"internalType": "address[]",
					"name": "oldVoters",
					"type": "address[]"
				},
				{
					"internalType": "address[]",
					"name": "newVoters",
					"type": "address[]"
				}
			],
			"name": "propose",
			"outputs": [],
			"stateMutability": "nonpayable",
			"type": "function"
		},
		{
			"inputs": [],
			"name": "remainingSupply",
			"outputs": [
				{
					"internalType": "uint256",
					"name": "",
					"type": "uint256"
				}
			],
			"stateMutability": "view",
			"type": "function"
		},
		{
			"inputs": [],
			"name": "renounceOwnership",
			"outputs": [],
			"stateMutability": "nonpayable",
			"type": "function"
		},
		{
			"inputs": [],
			"name": "resumeContract",
			"outputs": [],
			"stateMutability": "nonpayable",
			"type": "function"
		},
		{
			"inputs": [],
			"name": "resumeVoting",
			"outputs": [],
			"stateMutability": "nonpayable",
			"type": "function"
		},
		{
			"inputs": [],
			"name": "symbol",
			"outputs": [
				{
					"internalType": "string",
					"name": "",
					"type": "string"
				}
			],
			"stateMutability": "view",
			"type": "function"
		},
		{
			"inputs": [],
			"name": "tokenName",
			"outputs": [
				{
					"internalType": "string",
					"name": "",
					"type": "string"
				}
			],
			"stateMutability": "view",
			"type": "function"
		},
		{
			"inputs": [],
			"name": "totalSupply",
			"outputs": [
				{
					"internalType": "uint256",
					"name": "",
					"type": "uint256"
				}
			],
			"stateMutability": "view",
			"type": "function"
		},
		{
			"inputs": [
				{
					"internalType": "address",
					"name": "to",
					"type": "address"
				},
				{
					"internalType": "uint256",
					"name": "amount",
					"type": "uint256"
				}
			],
			"name": "transfer",
			"outputs": [
				{
					"internalType": "bool",
					"name": "",
					"type": "bool"
				}
			],
			"stateMutability": "nonpayable",
			"type": "function"
		},
		{
			"inputs": [
				{
					"internalType": "address",
					"name": "sender",
					"type": "address"
				},
				{
					"internalType": "address",
					"name": "recipient",
					"type": "address"
				},
				{
					"internalType": "uint256",
					"name": "amount",
					"type": "uint256"
				}
			],
			"name": "transferFrom",
			"outputs": [
				{
					"internalType": "bool",
					"name": "",
					"type": "bool"
				}
			],
			"stateMutability": "nonpayable",
			"type": "function"
		},
		{
			"inputs": [
				{
					"internalType": "address",
					"name": "newOwner",
					"type": "address"
				}
			],
			"name": "transferOwnership",
			"outputs": [],
			"stateMutability": "nonpayable",
			"type": "function"
		},
		{
			"inputs": [],
			"name": "version",
			"outputs": [
				{
					"internalType": "string",
					"name": "",
					"type": "string"
				}
			],
			"stateMutability": "view",
			"type": "function"
		},
		{
			"inputs": [
				{
					"internalType": "uint256",
					"name": "proposalId",
					"type": "uint256"
				}
			],
			"name": "vote",
			"outputs": [],
			"stateMutability": "nonpayable",
			"type": "function"
		},
		{
			"inputs": [
				{
					"internalType": "address",
					"name": "",
					"type": "address"
				}
			],
			"name": "voters",
			"outputs": [
				{
					"internalType": "bool",
					"name": "",
					"type": "bool"
				}
			],
			"stateMutability": "view",
			"type": "function"
		},
		{
			"inputs": [
				{
					"internalType": "uint256",
					"name": "",
					"type": "uint256"
				}
			],
			"name": "votersList",
			"outputs": [
				{
					"internalType": "address",
					"name": "",
					"type": "address"
				}
			],
			"stateMutability": "view",
			"type": "function"
		},
		{
			"inputs": [],
			"name": "votingPaused",
			"outputs": [
				{
					"internalType": "bool",
					"name": "",
					"type": "bool"
				}
			],
			"stateMutability": "view",
			"type": "function"
		},
		{
			"inputs": [
				{
					"internalType": "address",
					"name": "",
					"type": "address"
				}
			],
			"name": "whitelist",
			"outputs": [
				{
					"internalType": "bool",
					"name": "",
					"type": "bool"
				}
			],
			"stateMutability": "view",
			"type": "function"
		}
	]
}