{
	"data": {
		"bytecode": {
			"linkReferences": {},
			"object": "60806040526969e10de76676d080000060075534801561001d575f5ffd5b5060405161ae2a38038061ae2a833981810160405281019061003f91906108f7565b33836040518060400160405280600881526020017f43434b546f6b656e00000000000000000000000000000000000000000000000081525081600390816100869190610bab565b5080600490816100969190610bab565b5050505f73ffffffffffffffffffffffffffffffffffffffff168173ffffffffffffffffffffffffffffffffffffffff1603610109575f6040517f1e4fbdf70000000000000000000000000000000000000000000000000000000081526004016101009190610c89565b60405180910390fd5b6101188161052760201b60201c565b5060016006819055505f825111610164576040517f08c379a000000000000000000000000000000000000000000000000000000000815260040161015b90610d22565b60405180910390fd5b5f8151116101a7576040517f08c379a000000000000000000000000000000000000000000000000000000000815260040161019e90610d8a565b60405180910390fd5b7f3c5ad147104e56be34a9176a6692f7df8d2f4b29a5af06bc6b98970d329d657782516040516101d79190610e01565b60405180910390a15f5f90505b825181101561036b575f73ffffffffffffffffffffffffffffffffffffffff1683828151811061021757610216610e2d565b5b602002602001015173ffffffffffffffffffffffffffffffffffffffff1603610275576040517f08c379a000000000000000000000000000000000000000000000000000000000815260040161026c90610ea4565b60405180910390fd5b600160085f85848151811061028d5761028c610e2d565b5b602002602001015173ffffffffffffffffffffffffffffffffffffffff1673ffffffffffffffffffffffffffffffffffffffff1681526020019081526020015f205f6101000a81548160ff02191690831515021790555060098382815181106102f9576102f8610e2d565b5b6020026020010151908060018154018082558091505060019003905f5260205f20015f9091909190916101000a81548173ffffffffffffffffffffffffffffffffffffffff021916908373ffffffffffffffffffffffffffffffffffffffff16021790555080806001019150506101e4565b507f3c5ad147104e56be34a9176a6692f7df8d2f4b29a5af06bc6b98970d329d6577815160405161039c9190610f0c565b60405180910390a15f5f90505b8151811015610447575f73ffffffffffffffffffffffffffffffffffffffff168282815181106103dc576103db610e2d565b5b602002602001015173ffffffffffffffffffffffffffffffffffffffff160361043a576040517f08c379a000000000000000000000000000000000000000000000000000000000815260040161043190610f82565b60405180910390fd5b80806001019150506103a9565b5080600e908051906020019061045e9291906105ea565b505f60115f6101000a81548160ff0219169083151502179055505f6010819055505f601160016101000a81548160ff0219169083151502179055505f601160026101000a81548160ff02191690831515021790555082600d90816104c29190610bab565b5060405180602001604052805f815250601290816104e09190610bab565b50426021819055507f3c5ad147104e56be34a9176a6692f7df8d2f4b29a5af06bc6b98970d329d65775f6040516105179190611023565b60405180910390a150505061104f565b5f60055f9054906101000a900473ffffffffffffffffffffffffffffffffffffffff1690508160055f6101000a81548173ffffffffffffffffffffffffffffffffffffffff021916908373ffffffffffffffffffffffffffffffffffffffff1602179055508173ffffffffffffffffffffffffffffffffffffffff168173ffffffffffffffffffffffffffffffffffffffff167f8be0079c531659141344cd1fd0a4f28419497f9722a3daafe3b4186f6b6457e060405160405180910390a35050565b828054828255905f5260205f20908101928215610660579160200282015b8281111561065f578251825f6101000a81548173ffffffffffffffffffffffffffffffffffffffff021916908373ffffffffffffffffffffffffffffffffffffffff16021790555091602001919060010190610608565b5b50905061066d9190610671565b5090565b5b80821115610688575f815f905550600101610672565b5090565b5f604051905090565b5f5ffd5b5f5ffd5b5f5ffd5b5f5ffd5b5f601f19601f8301169050919050565b7f4e487b71000000000000000000000000000000000000000000000000000000005f52604160045260245ffd5b6106eb826106a5565b810181811067ffffffffffffffff8211171561070a576107096106b5565b5b80604052505050565b5f61071c61068c565b905061072882826106e2565b919050565b5f67ffffffffffffffff821115610747576107466106b5565b5b610750826106a5565b9050602081019050919050565b8281835e5f83830152505050565b5f61077d6107788461072d565b610713565b905082815260208101848484011115610799576107986106a1565b5b6107a484828561075d565b509392505050565b5f82601f8301126107c0576107bf61069d565b5b81516107d084826020860161076b565b91505092915050565b5f67ffffffffffffffff8211156107f3576107f26106b5565b5b602082029050602081019050919050565b5f5ffd5b5f73ffffffffffffffffffffffffffffffffffffffff82169050919050565b5f61083182610808565b9050919050565b61084181610827565b811461084b575f5ffd5b50565b5f8151905061085c81610838565b92915050565b5f61087461086f846107d9565b610713565b9050808382526020820190506020840283018581111561089757610896610804565b5b835b818110156108c057806108ac888261084e565b845260208401935050602081019050610899565b5050509392505050565b5f82601f8301126108de576108dd61069d565b5b81516108ee848260208601610862565b91505092915050565b5f5f5f6060848603121561090e5761090d610695565b5b5f84015167ffffffffffffffff81111561092b5761092a610699565b5b610937868287016107ac565b935050602084015167ffffffffffffffff81111561095857610957610699565b5b610964868287016108ca565b925050604084015167ffffffffffffffff81111561098557610984610699565b5b610991868287016108ca565b9150509250925092565b5f81519050919050565b7f4e487b71000000000000000000000000000000000000000000000000000000005f52602260045260245ffd5b5f60028204905060018216806109e957607f821691505b6020821081036109fc576109fb6109a5565b5b50919050565b5f819050815f5260205f209050919050565b5f6020601f8301049050919050565b5f82821b905092915050565b5f60088302610a5e7fffffffffffffffffffffffffffffffffffffffffffffffffffffffffffffffff82610a23565b610a688683610a23565b95508019841693508086168417925050509392505050565b5f819050919050565b5f819050919050565b5f610aac610aa7610aa284610a80565b610a89565b610a80565b9050919050565b5f819050919050565b610ac583610a92565b610ad9610ad182610ab3565b848454610a2f565b825550505050565b5f5f905090565b610af0610ae1565b610afb818484610abc565b505050565b5b81811015610b1e57610b135f82610ae8565b600181019050610b01565b5050565b601f821115610b6357610b3481610a02565b610b3d84610a14565b81016020851015610b4c578190505b610b60610b5885610a14565b830182610b00565b50505b505050565b5f82821c905092915050565b5f610b835f1984600802610b68565b1980831691505092915050565b5f610b9b8383610b74565b9150826002028217905092915050565b610bb48261099b565b67ffffffffffffffff811115610bcd57610bcc6106b5565b5b610bd782546109d2565b610be2828285610b22565b5f60209050601f831160018114610c13575f8415610c01578287015190505b610c0b8582610b90565b865550610c72565b601f198416610c2186610a02565b5f5b82811015610c4857848901518255600182019150602085019450602081019050610c23565b86831015610c655784890151610c61601f891682610b74565b8355505b6001600288020188555050505b505050505050565b610c8381610827565b82525050565b5f602082019050610c9c5f830184610c7a565b92915050565b5f82825260208201905092915050565b7f4174206c65617374206f6e652077686974656c697374656420616464726573735f8201527f2072657175697265640000000000000000000000000000000000000000000000602082015250565b5f610d0c602983610ca2565b9150610d1782610cb2565b604082019050919050565b5f6020820190508181035f830152610d3981610d00565b9050919050565b7f4174206c65617374206f6e6520766f74657220726571756972656400000000005f82015250565b5f610d74601b83610ca2565b9150610d7f82610d40565b602082019050919050565b5f6020820190508181035f830152610da181610d68565b9050919050565b7f496e697469616c697a696e672077686974656c697374000000000000000000005f82015250565b5f610ddc601683610ca2565b9150610de782610da8565b602082019050919050565b610dfb81610a80565b82525050565b5f6040820190508181035f830152610e1881610dd0565b9050610e276020830184610df2565b92915050565b7f4e487b71000000000000000000000000000000000000000000000000000000005f52603260045260245ffd5b7f496e76616c69642077686974656c6973742061646472657373000000000000005f82015250565b5f610e8e601983610ca2565b9150610e9982610e5a565b602082019050919050565b5f6020820190508181035f830152610ebb81610e82565b9050919050565b7f496e697469616c697a696e6720766f74657273000000000000000000000000005f82015250565b5f610ef6601383610ca2565b9150610f0182610ec2565b602082019050919050565b5f6040820190508181035f830152610f2381610eea565b9050610f326020830184610df2565b92915050565b7f496e76616c696420766f746572206164647265737300000000000000000000005f82015250565b5f610f6c601583610ca2565b9150610f7782610f38565b602082019050919050565b5f6020820190508181035f830152610f9981610f60565b9050919050565b7f436f6e7374727563746f7220636f6d706c6574656400000000000000000000005f82015250565b5f610fd4601583610ca2565b9150610fdf82610fa0565b602082019050919050565b5f819050919050565b5f61100d61100861100384610fea565b610a89565b610a80565b9050919050565b61101d81610ff3565b82525050565b5f6040820190508181035f83015261103a81610fc8565b90506110496020830184611014565b92915050565b619dce8061105c5f395ff3fe608060405234801561000f575f5ffd5b5060043610610489575f3560e01c806360b8594d11610260578063a9059cbb1161014f578063d9a7430e116100cc578063eb91d37e11610090578063eb91d37e14610d3b578063eeb79d4014610d59578063f2fde38b14610d63578063f36e32cc14610d7f578063f3cdcd1e14610d9d578063ff8f164f14610da757610489565b8063d9a7430e14610c83578063da0239a614610c8d578063da58c7d914610cab578063dd62ed3e14610cdb578063e583983614610d0b57610489565b8063bdd3d82511610113578063bdd3d82514610bef578063c20a25b514610c0d578063c4bc5da514610c2b578063c638407114610c35578063d051665014610c5357610489565b8063a9059cbb14610b5b578063aba6370514610b8b578063ae3877e014610ba9578063ae66c9ea14610bc7578063b0a9f28d14610be557610489565b8063850ae8a3116101dd578063902d55a5116101a1578063902d55a514610ac75780639070577f14610ae557806395d89b4114610aef57806396f6614414610b0d5780639b19251a14610b2b57610489565b8063850ae8a314610a0d578063884fa57b14610a3d5780638a67456a14610a6d5780638cdeefbd14610a8b5780638da5cb5b14610aa957610489565b80637094741d116102245780637094741d146109b557806370a08231146109bf578063715018a6146109ef5780637afdf93e146109f957806380e79a3614610a0357610489565b806360b8594d146109355780636290865d14610951578063632a9a521461096f578063697199c5146109795780636c02a9311461099757610489565b8063313ce5671161037c5780634bb91587116102f957806358105210116102bd57806358105210146108a3578063583007bd146108bf5780635aa15e6b146108dd5780635c975abb146108fb5780635fc6e6e61461091957610489565b80634bb91587146108235780634bc27b3c1461083f578063501d6b571461085d578063530304551461087b57806354fd4d501461088557610489565b80633f99075b116103405780633f99075b146107cb578063439766ce146107e757806345f4d2a5146107f15780634784bbed146107fb57806348a330821461080557610489565b8063313ce5671461074b578063351d9f961461076957806337d428eb146107875780633c9edeb2146107a35780633cf37361146107ad57610489565b8063158b1a571161040a5780632202cbfa116103ce5780632202cbfa1461069157806323b872dd146106c15780632d380242146106f15780632de565551461070f578063302c464a1461072d57610489565b8063158b1a57146105ed57806315d4c5d51461061d57806318160ddd1461063957806319a5ecd514610657578063209509331461067357610489565b806309eef43e1161045157806309eef43e146105355780630fe2abcf1461056557806312cae7af14610581578063134e18f4146105b157806314a8bd0d146105cf57610489565b806306854b2c1461048d57806306fdde03146104ab5780630811a0cf146104c957806308b26b75146104e7578063095ea7b314610505575b5f5ffd5b610495610dc5565b6040516104a2919061731c565b60405180910390f35b6104b3610e51565b6040516104c0919061731c565b60405180910390f35b6104d1610ee1565b6040516104de9190617354565b60405180910390f35b6104ef610ee7565b6040516104fc9190617354565b60405180910390f35b61051f600480360381019061051a9190617402565b610eed565b60405161052c919061745a565b60405180910390f35b61054f600480360381019061054a9190617473565b610f0f565b60405161055c919061745a565b60405180910390f35b61057f600480360381019061057a919061749e565b610f2c565b005b61059b60048036038101906105969190617473565b6111c2565b6040516105a89190617354565b60405180910390f35b6105b96111d3565b6040516105c691906174eb565b60405180910390f35b6105d76111da565b6040516105e49190617354565b60405180910390f35b61060760048036038101906106029190617473565b6111df565b6040516106149190617354565b60405180910390f35b61063760048036038101906106329190617402565b6111e8565b005b61064161154c565b60405161064e9190617354565b60405180910390f35b610671600480360381019061066c9190617473565b611555565b005b61067b6117f2565b6040516106889190617354565b60405180910390f35b6106ab60048036038101906106a69190617504565b6117f8565b6040516106b891906174eb565b60405180910390f35b6106db60048036038101906106d6919061752f565b611833565b6040516106e8919061745a565b60405180910390f35b6106f9611976565b6040516107069190617354565b60405180910390f35b61071761197c565b6040516107249190617354565b60405180910390f35b610735611981565b6040516107429190617354565b60405180910390f35b610753611986565b604051610760919061759a565b60405180910390f35b61077161198d565b60405161077e919061731c565b60405180910390f35b6107a1600480360381019061079c9190617473565b611a19565b005b6107ab611d25565b005b6107b5612106565b6040516107c29190617354565b60405180910390f35b6107e560048036038101906107e09190617473565b61210c565b005b6107ef6123a9565b005b6107f96124de565b005b610803612c11565b005b61080d612ff4565b60405161081a9190617354565b60405180910390f35b61083d600480360381019061083891906175e9565b612ffa565b005b6108476132e3565b604051610854919061731c565b60405180910390f35b61086561336f565b60405161087291906174eb565b60405180910390f35b610883613394565b005b61088d613913565b60405161089a919061731c565b60405180910390f35b6108bd60048036038101906108b89190617473565b613950565b005b6108c7613c5c565b6040516108d4919061745a565b60405180910390f35b6108e5613c6e565b6040516108f2919061731c565b60405180910390f35b610903613cfa565b604051610910919061745a565b60405180910390f35b610933600480360381019061092e9190617754565b613d10565b005b61094f600480360381019061094a919061787a565b6141cc565b005b6109596143ad565b60405161096691906174eb565b60405180910390f35b6109776143b4565b005b6109816147df565b60405161098e91906174eb565b60405180910390f35b61099f614804565b6040516109ac919061731c565b60405180910390f35b6109bd614890565b005b6109d960048036038101906109d49190617473565b614b3a565b6040516109e69190617354565b60405180910390f35b6109f7614b7f565b005b610a01614b92565b005b610a0b614be2565b005b610a276004803603810190610a229190617504565b614fba565b604051610a3491906174eb565b60405180910390f35b610a576004803603810190610a529190617504565b614ff5565b604051610a6491906174eb565b60405180910390f35b610a75615030565b604051610a82919061745a565b60405180910390f35b610a93615043565b604051610aa091906178d0565b60405180910390f35b610ab1615055565b604051610abe91906174eb565b60405180910390f35b610acf61507d565b604051610adc9190617354565b60405180910390f35b610aed615083565b005b610af7615668565b604051610b04919061731c565b60405180910390f35b610b156156f8565b604051610b2291906174eb565b60405180910390f35b610b456004803603810190610b409190617473565b61571d565b604051610b52919061745a565b60405180910390f35b610b756004803603810190610b709190617402565b61573a565b604051610b82919061745a565b60405180910390f35b610b9361587b565b604051610ba091906174eb565b60405180910390f35b610bb1615882565b604051610bbe91906174eb565b60405180910390f35b610bcf6158a7565b604051610bdc919061745a565b60405180910390f35b610bed6158ba565b005b610bf7615d1e565b604051610c0491906174eb565b60405180910390f35b610c15615d43565b604051610c229190617354565b60405180910390f35b610c33615d49565b005b610c3d615e7d565b604051610c4a9190617354565b60405180910390f35b610c6d6004803603810190610c689190617473565b615e83565b604051610c7a919061745a565b60405180910390f35b610c8b615ea0565b005b610c956161aa565b604051610ca29190617354565b60405180910390f35b610cc56004803603810190610cc09190617504565b6161c0565b604051610cd291906174eb565b60405180910390f35b610cf56004803603810190610cf091906178e9565b6161fb565b604051610d029190617354565b60405180910390f35b610d256004803603810190610d209190617473565b61627d565b604051610d32919061745a565b60405180910390f35b610d436162cf565b604051610d509190617354565b60405180910390f35b610d616163be565b005b610d7d6004803603810190610d789190617473565b61676d565b005b610d876167f1565b604051610d949190617354565b60405180910390f35b610da56167f6565b005b610daf616847565b604051610dbc9190617354565b60405180910390f35b601e8054610dd290617954565b80601f0160208091040260200160405190810160405280929190818152602001828054610dfe90617954565b8015610e495780601f10610e2057610100808354040283529160200191610e49565b820191905f5260205f20905b815481529060010190602001808311610e2c57829003601f168201915b505050505081565b6060600d8054610e6090617954565b80601f0160208091040260200160405190810160405280929190818152602001828054610e8c90617954565b8015610ed75780601f10610eae57610100808354040283529160200191610ed7565b820191905f5260205f20905b815481529060010190602001808311610eba57829003601f168201915b5050505050905090565b60145481565b61012c81565b5f5f610ef7616853565b9050610f0481858561685a565b600191505092915050565b600f602052805f5260405f205f915054906101000a900460ff1681565b610f3461686c565b601160029054906101000a900460ff1615610f84576040517f08c379a0000000000000000000000000000000000000000000000000000000008152600401610f7b906179ce565b60405180910390fd5b60085f8273ffffffffffffffffffffffffffffffffffffffff1673ffffffffffffffffffffffffffffffffffffffff1681526020019081526020015f205f9054906101000a900460ff1661100d576040517f08c379a000000000000000000000000000000000000000000000000000000000815260040161100490617a36565b60405180910390fd5b5f821161104f576040517f08c379a000000000000000000000000000000000000000000000000000000000815260040161104690617ac4565b60405180910390fd5b5f60148361105d9190617b0f565b90505f81116110a1576040517f08c379a000000000000000000000000000000000000000000000000000000000815260040161109890617b9a565b60405180910390fd5b600754670de0b6b3a7640000826110b89190617b0f565b600c546110c59190617bb8565b1115611106576040517f08c379a00000000000000000000000000000000000000000000000000000000081526004016110fd90617c35565b60405180910390fd5b61112382670de0b6b3a76400008361111e9190617b0f565b6168bb565b670de0b6b3a7640000816111379190617b0f565b600c5f8282546111479190617bb8565b925050819055508173ffffffffffffffffffffffffffffffffffffffff163373ffffffffffffffffffffffffffffffffffffffff167fbadb5a53e5a7f1f292f32f4ca0c78e80d05f213db774602acc6faca5aecdf6d785846040516111ad929190617c53565b60405180910390a3506111be61693a565b5050565b5f6111cc82614b3a565b9050919050565b5f5f905090565b601481565b5f5f9050919050565b6111f133616944565b611230576040517f08c379a000000000000000000000000000000000000000000000000000000000815260040161122790617cc4565b60405180910390fd5b601160029054906101000a900460ff1615611280576040517f08c379a0000000000000000000000000000000000000000000000000000000008152600401611277906179ce565b60405180910390fd5b60115f9054906101000a900460ff16156112cf576040517f08c379a00000000000000000000000000000000000000000000000000000000081526004016112c690617d2c565b60405180910390fd5b60085f8373ffffffffffffffffffffffffffffffffffffffff1673ffffffffffffffffffffffffffffffffffffffff1681526020019081526020015f205f9054906101000a900460ff16611358576040517f08c379a000000000000000000000000000000000000000000000000000000000815260040161134f90617d94565b60405180910390fd5b5f73ffffffffffffffffffffffffffffffffffffffff168273ffffffffffffffffffffffffffffffffffffffff16036113c6576040517f08c379a00000000000000000000000000000000000000000000000000000000081526004016113bd90617dfc565b60405180910390fd5b5f8111611408576040517f08c379a00000000000000000000000000000000000000000000000000000000081526004016113ff90617e64565b60405180910390fd5b60075481600c546114199190617bb8565b111561145a576040517f08c379a000000000000000000000000000000000000000000000000000000000815260040161145190617c35565b60405180910390fd5b6114626169e6565b5f60108190555081601f5f6101000a81548173ffffffffffffffffffffffffffffffffffffffff021916908373ffffffffffffffffffffffffffffffffffffffff16021790555080602081905550600160115f6101000a81548160ff0219169083151502179055506040518060400160405280600481526020017f6d696e74000000000000000000000000000000000000000000000000000000008152506012908161150e9190618022565b507f0116c43c83acf6cd8597ce110e50b139e8c85a1544440913be14f9043a24436182826040516115409291906180f1565b60405180910390a15050565b5f600254905090565b61155e33616944565b61159d576040517f08c379a000000000000000000000000000000000000000000000000000000000815260040161159490617cc4565b60405180910390fd5b601160029054906101000a900460ff16156115ed576040517f08c379a00000000000000000000000000000000000000000000000000000000081526004016115e4906179ce565b60405180910390fd5b60115f9054906101000a900460ff161561163c576040517f08c379a000000000000000000000000000000000000000000000000000000000815260040161163390617d2c565b60405180910390fd5b60085f8273ffffffffffffffffffffffffffffffffffffffff1673ffffffffffffffffffffffffffffffffffffffff1681526020019081526020015f205f9054906101000a900460ff166116c5576040517f08c379a00000000000000000000000000000000000000000000000000000000081526004016116bc90618162565b60405180910390fd5b6116cd6169e6565b5f60108190555080601b5f6101000a81548173ffffffffffffffffffffffffffffffffffffffff021916908373ffffffffffffffffffffffffffffffffffffffff1602179055506040518060400160405280600681526020017f72656d6f76650000000000000000000000000000000000000000000000000000815250601c90816117589190618022565b50600160115f6101000a81548160ff0219169083151502179055506040518060400160405280601081526020017f77686974656c6973745f72656d6f766500000000000000000000000000000000815250601290816117b79190618022565b507fc645160bca8c10087405a6bada7a56c33d99bc539c2a803d599e21cb6d4fa4ce816040516117e791906181ca565b60405180910390a150565b60215481565b60098181548110611807575f80fd5b905f5260205f20015f915054906101000a900473ffffffffffffffffffffffffffffffffffffffff1681565b5f601160029054906101000a900460ff1615611884576040517f08c379a000000000000000000000000000000000000000000000000000000000815260040161187b906179ce565b60405180910390fd5b600a5f8573ffffffffffffffffffffffffffffffffffffffff1673ffffffffffffffffffffffffffffffffffffffff1681526020019081526020015f205f9054906101000a900460ff161561190e576040517f08c379a000000000000000000000000000000000000000000000000000000000815260040161190590618240565b60405180910390fd5b816fffffffffffffffffffffffffffffffff168214611962576040517f08c379a0000000000000000000000000000000000000000000000000000000008152600401611959906182a8565b60405180910390fd5b61196d848484616a97565b90509392505050565b600c5481565b600381565b600581565b5f5f905090565b6012805461199a90617954565b80601f01602080910402602001604051908101604052809291908181526020018280546119c690617954565b8015611a115780601f106119e857610100808354040283529160200191611a11565b820191905f5260205f20905b8154815290600101906020018083116119f457829003601f168201915b505050505081565b611a2233616944565b611a61576040517f08c379a0000000000000000000000000000000000000000000000000000000008152600401611a5890617cc4565b60405180910390fd5b601160029054906101000a900460ff1615611ab1576040517f08c379a0000000000000000000000000000000000000000000000000000000008152600401611aa8906179ce565b60405180910390fd5b60115f9054906101000a900460ff1615611b00576040517f08c379a0000000000000000000000000000000000000000000000000000000008152600401611af790617d2c565b60405180910390fd5b5f73ffffffffffffffffffffffffffffffffffffffff168173ffffffffffffffffffffffffffffffffffffffff1603611b6e576040517f08c379a0000000000000000000000000000000000000000000000000000000008152600401611b6590618310565b60405180910390fd5b60085f8273ffffffffffffffffffffffffffffffffffffffff1673ffffffffffffffffffffffffffffffffffffffff1681526020019081526020015f205f9054906101000a900460ff1615611bf8576040517f08c379a0000000000000000000000000000000000000000000000000000000008152600401611bef90618378565b60405180910390fd5b611c006169e6565b5f60108190555080601b5f6101000a81548173ffffffffffffffffffffffffffffffffffffffff021916908373ffffffffffffffffffffffffffffffffffffffff1602179055506040518060400160405280600381526020017f6164640000000000000000000000000000000000000000000000000000000000815250601c9081611c8b9190618022565b50600160115f6101000a81548160ff0219169083151502179055506040518060400160405280600d81526020017f77686974656c6973745f6164640000000000000000000000000000000000000081525060129081611cea9190618022565b507fc645160bca8c10087405a6bada7a56c33d99bc539c2a803d599e21cb6d4fa4ce81604051611d1a91906183e0565b60405180910390a150565b601160029054906101000a900460ff1615611d75576040517f08c379a0000000000000000000000000000000000000000000000000000000008152600401611d6c906179ce565b60405180910390fd5b60115f9054906101000a900460ff16611dc3576040517f08c379a0000000000000000000000000000000000000000000000000000000008152600401611dba90618456565b60405180910390fd5b604051602001611dd2906184c8565b604051602081830303815290604052805190602001206012604051602001611dfa919061855c565b6040516020818303038152906040528051906020012014611e50576040517f08c379a0000000000000000000000000000000000000000000000000000000008152600401611e47906185bc565b60405180910390fd5b60036010541015611e96576040517f08c379a0000000000000000000000000000000000000000000000000000000008152600401611e8d90618624565b60405180910390fd5b5f73ffffffffffffffffffffffffffffffffffffffff16601d5f9054906101000a900473ffffffffffffffffffffffffffffffffffffffff1673ffffffffffffffffffffffffffffffffffffffff1603611f25576040517f08c379a0000000000000000000000000000000000000000000000000000000008152600401611f1c9061868c565b60405180910390fd5b600a5f601d5f9054906101000a900473ffffffffffffffffffffffffffffffffffffffff1673ffffffffffffffffffffffffffffffffffffffff1673ffffffffffffffffffffffffffffffffffffffff1681526020019081526020015f205f9054906101000a900460ff16611fcf576040517f08c379a0000000000000000000000000000000000000000000000000000000008152600401611fc6906186f4565b60405180910390fd5b5f600a5f601d5f9054906101000a900473ffffffffffffffffffffffffffffffffffffffff1673ffffffffffffffffffffffffffffffffffffffff1673ffffffffffffffffffffffffffffffffffffffff1681526020019081526020015f205f6101000a81548160ff0219169083151502179055505f60115f6101000a81548160ff02191690831515021790555060405180602001604052805f8152506012908161207a9190618022565b507f8f0390b9db2ebda5d3b655d41da7f064f9cda04183d9f8981ba63d951d0b9a44601d5f9054906101000a900473ffffffffffffffffffffffffffffffffffffffff166040516120cb9190618734565b60405180910390a1601d5f6101000a81549073ffffffffffffffffffffffffffffffffffffffff0219169055601e5f61210491906171af565b565b601a5481565b61211533616944565b612154576040517f08c379a000000000000000000000000000000000000000000000000000000000815260040161214b90617cc4565b60405180910390fd5b601160029054906101000a900460ff16156121a4576040517f08c379a000000000000000000000000000000000000000000000000000000000815260040161219b906179ce565b60405180910390fd5b60115f9054906101000a900460ff16156121f3576040517f08c379a00000000000000000000000000000000000000000000000000000000081526004016121ea90617d2c565b60405180910390fd5b600a5f8273ffffffffffffffffffffffffffffffffffffffff1673ffffffffffffffffffffffffffffffffffffffff1681526020019081526020015f205f9054906101000a900460ff1661227c576040517f08c379a0000000000000000000000000000000000000000000000000000000008152600401612273906186f4565b60405180910390fd5b6122846169e6565b5f60108190555080601d5f6101000a81548173ffffffffffffffffffffffffffffffffffffffff021916908373ffffffffffffffffffffffffffffffffffffffff1602179055506040518060400160405280600881526020017f756e667265657a65000000000000000000000000000000000000000000000000815250601e908161230f9190618022565b50600160115f6101000a81548160ff0219169083151502179055506040518060400160405280600881526020017f756e667265657a650000000000000000000000000000000000000000000000008152506012908161236e9190618022565b507f25c4e8317dc171f3714dca5948d811428a109c026192134ad8978a6b3623a3878160405161239e9190618734565b60405180910390a150565b6123b233616944565b6123f1576040517f08c379a00000000000000000000000000000000000000000000000000000000081526004016123e890617cc4565b60405180910390fd5b601160029054906101000a900460ff1615612441576040517f08c379a0000000000000000000000000000000000000000000000000000000008152600401612438906179ce565b60405180910390fd5b600560105410612486576040517f08c379a000000000000000000000000000000000000000000000000000000000815260040161247d906187aa565b60405180910390fd5b61248e6169e6565b5f6010819055506001601160026101000a81548160ff0219169083151502179055507fab35696f06e428ebc5ceba8cd17f8fed287baf43440206d1943af1ee53e6d26760405160405180910390a1565b601160029054906101000a900460ff161561252e576040517f08c379a0000000000000000000000000000000000000000000000000000000008152600401612525906179ce565b60405180910390fd5b60115f9054906101000a900460ff1661257c576040517f08c379a000000000000000000000000000000000000000000000000000000000815260040161257390618456565b60405180910390fd5b60405160200161258b90618812565b6040516020818303038152906040528051906020012060126040516020016125b3919061855c565b6040516020818303038152906040528051906020012014612609576040517f08c379a0000000000000000000000000000000000000000000000000000000008152600401612600906185bc565b60405180910390fd5b601a5442101561264e576040517f08c379a000000000000000000000000000000000000000000000000000000000815260040161264590618870565b60405180910390fd5b60056010541015612694576040517f08c379a000000000000000000000000000000000000000000000000000000000815260040161268b90618624565b60405180910390fd5b5f601880549050116126db576040517f08c379a00000000000000000000000000000000000000000000000000000000081526004016126d2906188d8565b60405180910390fd5b5f5f90505b6018805490508110156129ba5761273160188281548110612704576127036188f6565b5b905f5260205f20015f9054906101000a900473ffffffffffffffffffffffffffffffffffffffff16616944565b612770576040517f08c379a00000000000000000000000000000000000000000000000000000000081526004016127679061896d565b60405180910390fd5b5f73ffffffffffffffffffffffffffffffffffffffff166019828154811061279b5761279a6188f6565b5b905f5260205f20015f9054906101000a900473ffffffffffffffffffffffffffffffffffffffff1673ffffffffffffffffffffffffffffffffffffffff1603612819576040517f08c379a0000000000000000000000000000000000000000000000000000000008152600401612810906189d5565b60405180910390fd5b61285d601982815481106128305761282f6188f6565b5b905f5260205f20015f9054906101000a900473ffffffffffffffffffffffffffffffffffffffff16616944565b1561289d576040517f08c379a000000000000000000000000000000000000000000000000000000000815260040161289490618a3d565b60405180910390fd5b5f6001826128ab9190617bb8565b90505b6019805490508110156129ac57601981815481106128cf576128ce6188f6565b5b905f5260205f20015f9054906101000a900473ffffffffffffffffffffffffffffffffffffffff1673ffffffffffffffffffffffffffffffffffffffff1660198381548110612921576129206188f6565b5b905f5260205f20015f9054906101000a900473ffffffffffffffffffffffffffffffffffffffff1673ffffffffffffffffffffffffffffffffffffffff160361299f576040517f08c379a000000000000000000000000000000000000000000000000000000000815260040161299690618aa5565b60405180910390fd5b80806001019150506128ae565b5080806001019150506126e0565b505f5f90505b601880549050811015612b3d575f5f90505b600e80549050811015612b2f57601882815481106129f3576129f26188f6565b5b905f5260205f20015f9054906101000a900473ffffffffffffffffffffffffffffffffffffffff1673ffffffffffffffffffffffffffffffffffffffff16600e8281548110612a4557612a446188f6565b5b905f5260205f20015f9054906101000a900473ffffffffffffffffffffffffffffffffffffffff1673ffffffffffffffffffffffffffffffffffffffff1603612b225760198281548110612a9c57612a9b6188f6565b5b905f5260205f20015f9054906101000a900473ffffffffffffffffffffffffffffffffffffffff16600e8281548110612ad857612ad76188f6565b5b905f5260205f20015f6101000a81548173ffffffffffffffffffffffffffffffffffffffff021916908373ffffffffffffffffffffffffffffffffffffffff160217905550612b2f565b80806001019150506129d2565b5080806001019150506129c0565b505f60115f6101000a81548160ff02191690831515021790555060405180602001604052805f81525060129081612b749190618022565b505f60135f6101000a81548173ffffffffffffffffffffffffffffffffffffffff021916908373ffffffffffffffffffffffffffffffffffffffff1602179055507f765616ca75e38e63dcc130430614a01fa91bfe57744073b30bf8f4ba8fa31ffc60186019604051612be8929190618bd9565b60405180910390a160185f612bfd91906171ec565b60195f612c0a91906171ec565b601a5f9055565b601160029054906101000a900460ff1615612c61576040517f08c379a0000000000000000000000000000000000000000000000000000000008152600401612c58906179ce565b60405180910390fd5b60115f9054906101000a900460ff16612caf576040517f08c379a0000000000000000000000000000000000000000000000000000000008152600401612ca690618456565b60405180910390fd5b604051602001612cbe90618c58565b604051602081830303815290604052805190602001206012604051602001612ce6919061855c565b6040516020818303038152906040528051906020012014612d3c576040517f08c379a0000000000000000000000000000000000000000000000000000000008152600401612d33906185bc565b60405180910390fd5b60036010541015612d82576040517f08c379a0000000000000000000000000000000000000000000000000000000008152600401612d7990618624565b60405180910390fd5b5f73ffffffffffffffffffffffffffffffffffffffff16601d5f9054906101000a900473ffffffffffffffffffffffffffffffffffffffff1673ffffffffffffffffffffffffffffffffffffffff1603612e11576040517f08c379a0000000000000000000000000000000000000000000000000000000008152600401612e089061868c565b60405180910390fd5b600a5f601d5f9054906101000a900473ffffffffffffffffffffffffffffffffffffffff1673ffffffffffffffffffffffffffffffffffffffff1673ffffffffffffffffffffffffffffffffffffffff1681526020019081526020015f205f9054906101000a900460ff1615612ebc576040517f08c379a0000000000000000000000000000000000000000000000000000000008152600401612eb390618cb6565b60405180910390fd5b6001600a5f601d5f9054906101000a900473ffffffffffffffffffffffffffffffffffffffff1673ffffffffffffffffffffffffffffffffffffffff1673ffffffffffffffffffffffffffffffffffffffff1681526020019081526020015f205f6101000a81548160ff0219169083151502179055505f60115f6101000a81548160ff02191690831515021790555060405180602001604052805f81525060129081612f689190618022565b507f8f0390b9db2ebda5d3b655d41da7f064f9cda04183d9f8981ba63d951d0b9a44601d5f9054906101000a900473ffffffffffffffffffffffffffffffffffffffff16604051612fb99190618cf6565b60405180910390a1601d5f6101000a81549073ffffffffffffffffffffffffffffffffffffffff0219169055601e5f612ff291906171af565b565b60205481565b61300333616944565b613042576040517f08c379a000000000000000000000000000000000000000000000000000000000815260040161303990617cc4565b60405180910390fd5b601160029054906101000a900460ff1615613092576040517f08c379a0000000000000000000000000000000000000000000000000000000008152600401613089906179ce565b60405180910390fd5b60115f9054906101000a900460ff16156130e1576040517f08c379a00000000000000000000000000000000000000000000000000000000081526004016130d890617d2c565b60405180910390fd5b5f8160070b03613126576040517f08c379a000000000000000000000000000000000000000000000000000000000815260040161311d90618d92565b60405180910390fd5b600c548160070b60075461313a9190618db9565b121561317b576040517f08c379a000000000000000000000000000000000000000000000000000000000815260040161317290618e6a565b60405180910390fd5b5f8160070b60075461318d9190618db9565b12156131ce576040517f08c379a00000000000000000000000000000000000000000000000000000000081526004016131c590618ed2565b60405180910390fd5b6131d66169e6565b5f6010819055508060165f6101000a81548167ffffffffffffffff021916908360070b67ffffffffffffffff160217905550600160115f6101000a81548160ff0219169083151502179055506040518060400160405280601181526020017f61646a757374546f74616c537570706c79000000000000000000000000000000815250601290816132669190618022565b503360135f6101000a81548173ffffffffffffffffffffffffffffffffffffffff021916908373ffffffffffffffffffffffffffffffffffffffff1602179055507fd2f48a8ba1a2294122838a160554dc0dde0e0c57003527e53ffc207863953d3b81336040516132d8929190618ef0565b60405180910390a150565b601580546132f090617954565b80601f016020809104026020016040519081016040528092919081815260200182805461331c90617954565b80156133675780601f1061333e57610100808354040283529160200191613367565b820191905f5260205f20905b81548152906001019060200180831161334a57829003601f168201915b505050505081565b601f5f9054906101000a900473ffffffffffffffffffffffffffffffffffffffff1681565b601160029054906101000a900460ff16156133e4576040517f08c379a00000000000000000000000000000000000000000000000000000000081526004016133db906179ce565b60405180910390fd5b60115f9054906101000a900460ff16613432576040517f08c379a000000000000000000000000000000000000000000000000000000000815260040161342990618456565b60405180910390fd5b60405160200161344190618f61565b604051602081830303815290604052805190602001206012604051602001613469919061855c565b60405160208183030381529060405280519060200120146134bf576040517f08c379a00000000000000000000000000000000000000000000000000000000081526004016134b6906185bc565b60405180910390fd5b60036010541015613505576040517f08c379a00000000000000000000000000000000000000000000000000000000081526004016134fc90618624565b60405180910390fd5b5f73ffffffffffffffffffffffffffffffffffffffff16601b5f9054906101000a900473ffffffffffffffffffffffffffffffffffffffff1673ffffffffffffffffffffffffffffffffffffffff1603613594576040517f08c379a000000000000000000000000000000000000000000000000000000000815260040161358b90618fbf565b60405180910390fd5b60085f601b5f9054906101000a900473ffffffffffffffffffffffffffffffffffffffff1673ffffffffffffffffffffffffffffffffffffffff1673ffffffffffffffffffffffffffffffffffffffff1681526020019081526020015f205f9054906101000a900460ff1661363e576040517f08c379a000000000000000000000000000000000000000000000000000000000815260040161363590618162565b60405180910390fd5b5f60085f601b5f9054906101000a900473ffffffffffffffffffffffffffffffffffffffff1673ffffffffffffffffffffffffffffffffffffffff1673ffffffffffffffffffffffffffffffffffffffff1681526020019081526020015f205f6101000a81548160ff0219169083151502179055505f5f90505b60098054905081101561385057601b5f9054906101000a900473ffffffffffffffffffffffffffffffffffffffff1673ffffffffffffffffffffffffffffffffffffffff1660098281548110613711576137106188f6565b5b905f5260205f20015f9054906101000a900473ffffffffffffffffffffffffffffffffffffffff1673ffffffffffffffffffffffffffffffffffffffff160361384357600960016009805490506137689190618fdd565b81548110613779576137786188f6565b5b905f5260205f20015f9054906101000a900473ffffffffffffffffffffffffffffffffffffffff16600982815481106137b5576137b46188f6565b5b905f5260205f20015f6101000a81548173ffffffffffffffffffffffffffffffffffffffff021916908373ffffffffffffffffffffffffffffffffffffffff160217905550600980548061380c5761380b619010565b5b600190038181905f5260205f20015f6101000a81549073ffffffffffffffffffffffffffffffffffffffff02191690559055613850565b80806001019150506136b8565b505f60115f6101000a81548160ff02191690831515021790555060405180602001604052805f815250601290816138879190618022565b507f7008e45448ad5aa92d72ec64b89807038870139694f96be53e604aab0426844d601b5f9054906101000a900473ffffffffffffffffffffffffffffffffffffffff166040516138d891906181ca565b60405180910390a1601b5f6101000a81549073ffffffffffffffffffffffffffffffffffffffff0219169055601c5f61391191906171af565b565b60606040518060400160405280600581526020017f312e302e30000000000000000000000000000000000000000000000000000000815250905090565b61395933616944565b613998576040517f08c379a000000000000000000000000000000000000000000000000000000000815260040161398f90617cc4565b60405180910390fd5b601160029054906101000a900460ff16156139e8576040517f08c379a00000000000000000000000000000000000000000000000000000000081526004016139df906179ce565b60405180910390fd5b60115f9054906101000a900460ff1615613a37576040517f08c379a0000000000000000000000000000000000000000000000000000000008152600401613a2e90617d2c565b60405180910390fd5b5f73ffffffffffffffffffffffffffffffffffffffff168173ffffffffffffffffffffffffffffffffffffffff1603613aa5576040517f08c379a0000000000000000000000000000000000000000000000000000000008152600401613a9c90619087565b60405180910390fd5b600a5f8273ffffffffffffffffffffffffffffffffffffffff1673ffffffffffffffffffffffffffffffffffffffff1681526020019081526020015f205f9054906101000a900460ff1615613b2f576040517f08c379a0000000000000000000000000000000000000000000000000000000008152600401613b2690618cb6565b60405180910390fd5b613b376169e6565b5f60108190555080601d5f6101000a81548173ffffffffffffffffffffffffffffffffffffffff021916908373ffffffffffffffffffffffffffffffffffffffff1602179055506040518060400160405280600681526020017f667265657a650000000000000000000000000000000000000000000000000000815250601e9081613bc29190618022565b50600160115f6101000a81548160ff0219169083151502179055506040518060400160405280600681526020017f667265657a65000000000000000000000000000000000000000000000000000081525060129081613c219190618022565b507f25c4e8317dc171f3714dca5948d811428a109c026192134ad8978a6b3623a38781604051613c519190618cf6565b60405180910390a150565b60115f9054906101000a900460ff1681565b601c8054613c7b90617954565b80601f0160208091040260200160405190810160405280929190818152602001828054613ca790617954565b8015613cf25780601f10613cc957610100808354040283529160200191613cf2565b820191905f5260205f20905b815481529060010190602001808311613cd557829003601f168201915b505050505081565b5f601160029054906101000a900460ff16905090565b613d1933616944565b613d58576040517f08c379a0000000000000000000000000000000000000000000000000000000008152600401613d4f90617cc4565b60405180910390fd5b601160029054906101000a900460ff1615613da8576040517f08c379a0000000000000000000000000000000000000000000000000000000008152600401613d9f906179ce565b60405180910390fd5b60115f9054906101000a900460ff1615613df7576040517f08c379a0000000000000000000000000000000000000000000000000000000008152600401613dee90617d2c565b60405180910390fd5b8051825114613e3b576040517f08c379a0000000000000000000000000000000000000000000000000000000008152600401613e3290619115565b60405180910390fd5b5f825111613e7e576040517f08c379a0000000000000000000000000000000000000000000000000000000008152600401613e75906191a3565b60405180910390fd5b5f5f90505b82518110156140b057613eaf838281518110613ea257613ea16188f6565b5b6020026020010151616944565b613eee576040517f08c379a0000000000000000000000000000000000000000000000000000000008152600401613ee59061896d565b60405180910390fd5b5f73ffffffffffffffffffffffffffffffffffffffff16828281518110613f1857613f176188f6565b5b602002602001015173ffffffffffffffffffffffffffffffffffffffff1603613f76576040517f08c379a0000000000000000000000000000000000000000000000000000000008152600401613f6d906189d5565b60405180910390fd5b613f99828281518110613f8c57613f8b6188f6565b5b6020026020010151616944565b15613fd9576040517f08c379a0000000000000000000000000000000000000000000000000000000008152600401613fd090618a3d565b60405180910390fd5b5f600182613fe79190617bb8565b90505b82518110156140a257828181518110614006576140056188f6565b5b602002602001015173ffffffffffffffffffffffffffffffffffffffff16838381518110614037576140366188f6565b5b602002602001015173ffffffffffffffffffffffffffffffffffffffff1603614095576040517f08c379a000000000000000000000000000000000000000000000000000000000815260040161408c90618aa5565b60405180910390fd5b8080600101915050613fea565b508080600101915050613e83565b506140b96169e6565b5f60108190555081601890805190602001906140d692919061720a565b5080601990805190602001906140ed92919061720a565b50600160115f6101000a81548160ff0219169083151502179055506040518060400160405280600681526020017f766f7465727300000000000000000000000000000000000000000000000000008152506012908161414c9190618022565b503360135f6101000a81548173ffffffffffffffffffffffffffffffffffffffff021916908373ffffffffffffffffffffffffffffffffffffffff1602179055507f55745d7ec40b9509a889ae3c5c72fce1dec2260ecb5286b509dd4d63bc5d4bf38282336040516141c093929190619242565b60405180910390a15050565b6141d533616944565b614214576040517f08c379a000000000000000000000000000000000000000000000000000000000815260040161420b90617cc4565b60405180910390fd5b601160029054906101000a900460ff1615614264576040517f08c379a000000000000000000000000000000000000000000000000000000000815260040161425b906179ce565b60405180910390fd5b60115f9054906101000a900460ff16156142b3576040517f08c379a00000000000000000000000000000000000000000000000000000000081526004016142aa90617d2c565b60405180910390fd5b6142bb6169e6565b5f60108190555080601590816142d19190618022565b50600160115f6101000a81548160ff0219169083151502179055506040518060400160405280600481526020017f6e616d6500000000000000000000000000000000000000000000000000000000815250601290816143309190618022565b503360135f6101000a81548173ffffffffffffffffffffffffffffffffffffffff021916908373ffffffffffffffffffffffffffffffffffffffff1602179055507f41f966d26bc0339af48ac37ad87736e00ac40e9859cdf864a47f2a719b1bd9ac81336040516143a2929190619285565b60405180910390a150565b5f5f905090565b6143bd33616944565b6143fc576040517f08c379a00000000000000000000000000000000000000000000000000000000081526004016143f390617cc4565b60405180910390fd5b601160029054906101000a900460ff161561444c576040517f08c379a0000000000000000000000000000000000000000000000000000000008152600401614443906179ce565b60405180910390fd5b60115f9054906101000a900460ff1661449a576040517f08c379a000000000000000000000000000000000000000000000000000000000815260040161449190618456565b60405180910390fd5b600f5f3373ffffffffffffffffffffffffffffffffffffffff1673ffffffffffffffffffffffffffffffffffffffff1681526020019081526020015f205f9054906101000a900460ff1615614524576040517f08c379a000000000000000000000000000000000000000000000000000000000815260040161451b906192fd565b60405180910390fd5b601160019054906101000a900460ff1615614574576040517f08c379a000000000000000000000000000000000000000000000000000000000815260040161456b90619365565b60405180910390fd5b6001600f5f3373ffffffffffffffffffffffffffffffffffffffff1673ffffffffffffffffffffffffffffffffffffffff1681526020019081526020015f205f6101000a81548160ff02191690831515021790555060105f8154809291906145db90619383565b91905055505f60126040516020016145f3919061855c565b6040516020818303038152906040528051906020012090505f60405160200161461b90619414565b60405160208183030381529060405280519060200120821480614661575060405160200161464890618f61565b6040516020818303038152906040528051906020012082145b8061468f575060405160200161467690618c58565b6040516020818303038152906040528051906020012082145b806146bd57506040516020016146a4906184c8565b6040516020818303038152906040528051906020012082145b90505f6040516020016146cf90619472565b60405160208183030381529060405280519060200120831490505f8161470357826146fb5760056146fe565b60035b614706565b60025b905080601054106147d957604051602001614720906194d0565b604051602081830303815290604052805190602001208403614754576078426147499190617bb8565b6014819055506147d8565b6040516020016147639061952e565b6040516020818303038152906040528051906020012084036147975760784261478c9190617bb8565b6017819055506147d7565b6040516020016147a690618812565b6040516020818303038152906040528051906020012084036147d6576078426147cf9190617bb8565b601a819055505b5b5b5b50505050565b601d5f9054906101000a900473ffffffffffffffffffffffffffffffffffffffff1681565b600d805461481190617954565b80601f016020809104026020016040519081016040528092919081815260200182805461483d90617954565b80156148885780601f1061485f57610100808354040283529160200191614888565b820191905f5260205f20905b81548152906001019060200180831161486b57829003601f168201915b505050505081565b601160029054906101000a900460ff16156148e0576040517f08c379a00000000000000000000000000000000000000000000000000000000081526004016148d7906179ce565b60405180910390fd5b60115f9054906101000a900460ff1661492e576040517f08c379a000000000000000000000000000000000000000000000000000000000815260040161492590618456565b60405180910390fd5b60405160200161493d9061952e565b604051602081830303815290604052805190602001206012604051602001614965919061855c565b60405160208183030381529060405280519060200120146149bb576040517f08c379a00000000000000000000000000000000000000000000000000000000081526004016149b2906185bc565b60405180910390fd5b601754421015614a00576040517f08c379a00000000000000000000000000000000000000000000000000000000081526004016149f790618870565b60405180910390fd5b60056010541015614a46576040517f08c379a0000000000000000000000000000000000000000000000000000000008152600401614a3d90618624565b60405180910390fd5b60165f9054906101000a900460070b60070b600754614a659190618db9565b6007819055505f60115f6101000a81548160ff02191690831515021790555060405180602001604052805f81525060129081614aa19190618022565b505f60135f6101000a81548173ffffffffffffffffffffffffffffffffffffffff021916908373ffffffffffffffffffffffffffffffffffffffff16021790555060165f6101000a81549067ffffffffffffffff021916905560175f90557f0acd0677fad7be9ccaf6c91ebaaca5c9c91622ac0508242d2f8feca61a0da249600754604051614b309190617354565b60405180910390a1565b5f5f5f8373ffffffffffffffffffffffffffffffffffffffff1673ffffffffffffffffffffffffffffffffffffffff1681526020019081526020015f20549050919050565b614b87616ac5565b614b905f616b4c565b565b614b9a616ac5565b5f601160016101000a81548160ff0219169083151502179055507f8f69ef9279bfb1fe5f4f75790947a23fa88774e98242b966bcaaf7d25e8b3c1660405160405180910390a1565b614beb33616944565b614c2a576040517f08c379a0000000000000000000000000000000000000000000000000000000008152600401614c2190617cc4565b60405180910390fd5b601160029054906101000a900460ff1615614c7a576040517f08c379a0000000000000000000000000000000000000000000000000000000008152600401614c71906179ce565b60405180910390fd5b61012c602154614c8a9190617bb8565b421015614ccc576040517f08c379a0000000000000000000000000000000000000000000000000000000008152600401614cc3906195b2565b60405180910390fd5b5f60098054905011614d13576040517f08c379a0000000000000000000000000000000000000000000000000000000008152600401614d0a9061961a565b60405180910390fd5b600754670de0b6b3a7640000600980549050614d2f9190617b0f565b600c54614d3c9190617bb8565b1115614d7d576040517f08c379a0000000000000000000000000000000000000000000000000000000008152600401614d7490617c35565b60405180910390fd5b5f60098054905067ffffffffffffffff811115614d9d57614d9c617618565b5b604051908082528060200260200182016040528015614dcb5781602001602082028036833780820191505090505b5090505f5f90505b600980549050811015614f6e5760085f60098381548110614df757614df66188f6565b5b905f5260205f20015f9054906101000a900473ffffffffffffffffffffffffffffffffffffffff1673ffffffffffffffffffffffffffffffffffffffff1673ffffffffffffffffffffffffffffffffffffffff1681526020019081526020015f205f9054906101000a900460ff1615614f6157614eb760098281548110614e8157614e806188f6565b5b905f5260205f20015f9054906101000a900473ffffffffffffffffffffffffffffffffffffffff16670de0b6b3a76400006168bb565b670de0b6b3a7640000600c5f828254614ed09190617bb8565b9250508190555060098181548110614eeb57614eea6188f6565b5b905f5260205f20015f9054906101000a900473ffffffffffffffffffffffffffffffffffffffff16828281518110614f2657614f256188f6565b5b602002602001019073ffffffffffffffffffffffffffffffffffffffff16908173ffffffffffffffffffffffffffffffffffffffff16815250505b8080600101915050614dd3565b50426021819055507f2f4bfd5d5603381d5e4cccb9869dd2016a99dbb6044d5e3081f57ec1faba9e1181670de0b6b3a7640000604051614faf929190619638565b60405180910390a150565b60188181548110614fc9575f80fd5b905f5260205f20015f915054906101000a900473ffffffffffffffffffffffffffffffffffffffff1681565b60198181548110615004575f80fd5b905f5260205f20015f915054906101000a900473ffffffffffffffffffffffffffffffffffffffff1681565b601160029054906101000a900460ff1681565b60165f9054906101000a900460070b81565b5f60055f9054906101000a900473ffffffffffffffffffffffffffffffffffffffff16905090565b60075481565b601160029054906101000a900460ff16156150d3576040517f08c379a00000000000000000000000000000000000000000000000000000000081526004016150ca906179ce565b60405180910390fd5b60115f9054906101000a900460ff16615121576040517f08c379a000000000000000000000000000000000000000000000000000000000815260040161511890618456565b60405180910390fd5b60135f9054906101000a900473ffffffffffffffffffffffffffffffffffffffff1673ffffffffffffffffffffffffffffffffffffffff163373ffffffffffffffffffffffffffffffffffffffff16146151b0576040517f08c379a00000000000000000000000000000000000000000000000000000000081526004016151a7906196b0565b60405180910390fd5b5f60126040516020016151c3919061855c565b6040516020818303038152906040528051906020012090506040516020016151ea906194d0565b6040516020818303038152906040528051906020012081148061523057506040516020016152179061952e565b6040516020818303038152906040528051906020012081145b8061525e575060405160200161524590618812565b6040516020818303038152906040528051906020012081145b61529d576040517f08c379a00000000000000000000000000000000000000000000000000000000081526004016152949061973e565b60405180910390fd5b600560105410156152e3576040517f08c379a00000000000000000000000000000000000000000000000000000000081526004016152da906197a6565b60405180910390fd5b6040516020016152f2906194d0565b604051602081830303815290604052805190602001208103615357576014544210615352576040517f08c379a00000000000000000000000000000000000000000000000000000000081526004016153499061980e565b60405180910390fd5b61543d565b6040516020016153669061952e565b6040516020818303038152906040528051906020012081036153cb5760175442106153c6576040517f08c379a00000000000000000000000000000000000000000000000000000000081526004016153bd9061980e565b60405180910390fd5b61543c565b6040516020016153da90618812565b60405160208183030381529060405280519060200120810361543b57601a54421061543a576040517f08c379a00000000000000000000000000000000000000000000000000000000081526004016154319061980e565b60405180910390fd5b5b5b5b6154456169e6565b5f6010819055505f6012805461545a90617954565b80601f016020809104026020016040519081016040528092919081815260200182805461548690617954565b80156154d15780601f106154a8576101008083540402835291602001916154d1565b820191905f5260205f20905b8154815290600101906020018083116154b457829003601f168201915b505050505090505f60115f6101000a81548160ff02191690831515021790555060405180602001604052805f8152506012908161550e9190618022565b505f60135f6101000a81548173ffffffffffffffffffffffffffffffffffffffff021916908373ffffffffffffffffffffffffffffffffffffffff16021790555060405160200161555e906194d0565b6040516020818303038152906040528051906020012082036155915760155f61558791906171af565b60145f905561562b565b6040516020016155a09061952e565b6040516020818303038152906040528051906020012082036155de5760165f6101000a81549067ffffffffffffffff021916905560175f905561562a565b6040516020016155ed90618812565b6040516020818303038152906040528051906020012082036156295760185f61561691906171ec565b60195f61562391906171ec565b601a5f90555b5b5b7f7e9dd9661006e07d548ed10dc1fd44e54af530215c153ab93b4cdd0daba0f864813360405161565c929190619285565b60405180910390a15050565b60606004805461567790617954565b80601f01602080910402602001604051908101604052809291908181526020018280546156a390617954565b80156156ee5780601f106156c5576101008083540402835291602001916156ee565b820191905f5260205f20905b8154815290600101906020018083116156d157829003601f168201915b5050505050905090565b601b5f9054906101000a900473ffffffffffffffffffffffffffffffffffffffff1681565b6008602052805f5260405f205f915054906101000a900460ff1681565b5f601160029054906101000a900460ff161561578b576040517f08c379a0000000000000000000000000000000000000000000000000000000008152600401615782906179ce565b60405180910390fd5b600a5f3373ffffffffffffffffffffffffffffffffffffffff1673ffffffffffffffffffffffffffffffffffffffff1681526020019081526020015f205f9054906101000a900460ff1615615815576040517f08c379a000000000000000000000000000000000000000000000000000000000815260040161580c90618240565b60405180910390fd5b816fffffffffffffffffffffffffffffffff168214615869576040517f08c379a0000000000000000000000000000000000000000000000000000000008152600401615860906182a8565b60405180910390fd5b6158738383616c0f565b905092915050565b5f30905090565b60135f9054906101000a900473ffffffffffffffffffffffffffffffffffffffff1681565b601160019054906101000a900460ff1681565b601160029054906101000a900460ff161561590a576040517f08c379a0000000000000000000000000000000000000000000000000000000008152600401615901906179ce565b60405180910390fd5b60115f9054906101000a900460ff16615958576040517f08c379a000000000000000000000000000000000000000000000000000000000815260040161594f90618456565b60405180910390fd5b60405160200161596790619414565b60405160208183030381529060405280519060200120601260405160200161598f919061855c565b60405160208183030381529060405280519060200120146159e5576040517f08c379a00000000000000000000000000000000000000000000000000000000081526004016159dc906185bc565b60405180910390fd5b60036010541015615a2b576040517f08c379a0000000000000000000000000000000000000000000000000000000008152600401615a2290618624565b60405180910390fd5b5f73ffffffffffffffffffffffffffffffffffffffff16601b5f9054906101000a900473ffffffffffffffffffffffffffffffffffffffff1673ffffffffffffffffffffffffffffffffffffffff1603615aba576040517f08c379a0000000000000000000000000000000000000000000000000000000008152600401615ab190618fbf565b60405180910390fd5b60085f601b5f9054906101000a900473ffffffffffffffffffffffffffffffffffffffff1673ffffffffffffffffffffffffffffffffffffffff1673ffffffffffffffffffffffffffffffffffffffff1681526020019081526020015f205f9054906101000a900460ff1615615b65576040517f08c379a0000000000000000000000000000000000000000000000000000000008152600401615b5c90618378565b60405180910390fd5b600160085f601b5f9054906101000a900473ffffffffffffffffffffffffffffffffffffffff1673ffffffffffffffffffffffffffffffffffffffff1673ffffffffffffffffffffffffffffffffffffffff1681526020019081526020015f205f6101000a81548160ff0219169083151502179055506009601b5f9054906101000a900473ffffffffffffffffffffffffffffffffffffffff16908060018154018082558091505060019003905f5260205f20015f9091909190916101000a81548173ffffffffffffffffffffffffffffffffffffffff021916908373ffffffffffffffffffffffffffffffffffffffff1602179055505f60115f6101000a81548160ff02191690831515021790555060405180602001604052805f81525060129081615c929190618022565b507f7008e45448ad5aa92d72ec64b89807038870139694f96be53e604aab0426844d601b5f9054906101000a900473ffffffffffffffffffffffffffffffffffffffff16604051615ce391906183e0565b60405180910390a1601b5f6101000a81549073ffffffffffffffffffffffffffffffffffffffff0219169055601c5f615d1c91906171af565b565b600b5f9054906101000a900473ffffffffffffffffffffffffffffffffffffffff1681565b60175481565b615d5233616944565b615d91576040517f08c379a0000000000000000000000000000000000000000000000000000000008152600401615d8890617cc4565b60405180910390fd5b601160029054906101000a900460ff1615615de1576040517f08c379a0000000000000000000000000000000000000000000000000000000008152600401615dd8906179ce565b60405180910390fd5b600560105410615e26576040517f08c379a0000000000000000000000000000000000000000000000000000000008152600401615e1d90619876565b60405180910390fd5b615e2e6169e6565b5f6010819055505f601160026101000a81548160ff0219169083151502179055507fab5f6dacf93a267a93a533de8a56370de8341bbd8102017307e7be375c3dda6a60405160405180910390a1565b60105481565b600a602052805f5260405f205f915054906101000a900460ff1681565b601160029054906101000a900460ff1615615ef0576040517f08c379a0000000000000000000000000000000000000000000000000000000008152600401615ee7906179ce565b60405180910390fd5b60115f9054906101000a900460ff16615f3e576040517f08c379a0000000000000000000000000000000000000000000000000000000008152600401615f3590618456565b60405180910390fd5b604051602001615f4d906194d0565b604051602081830303815290604052805190602001206012604051602001615f75919061855c565b6040516020818303038152906040528051906020012014615fcb576040517f08c379a0000000000000000000000000000000000000000000000000000000008152600401615fc2906185bc565b60405180910390fd5b601454421015616010576040517f08c379a000000000000000000000000000000000000000000000000000000000815260040161600790618870565b60405180910390fd5b60056010541015616056576040517f08c379a000000000000000000000000000000000000000000000000000000000815260040161604d90618624565b60405180910390fd5b6160e76015805461606690617954565b80601f016020809104026020016040519081016040528092919081815260200182805461609290617954565b80156160dd5780601f106160b4576101008083540402835291602001916160dd565b820191905f5260205f20905b8154815290600101906020018083116160c057829003601f168201915b5050505050616c31565b5f60115f6101000a81548160ff02191690831515021790555060405180602001604052805f8152506012908161611d9190618022565b505f60135f6101000a81548173ffffffffffffffffffffffffffffffffffffffff021916908373ffffffffffffffffffffffffffffffffffffffff16021790555060155f61616b91906171af565b60145f90557f4737457377f528cc8afd815f73ecb8b05df80d047dbffc41c17750a4033592bc60156040516161a09190619915565b60405180910390a1565b5f600c546007546161bb9190618fdd565b905090565b600e81815481106161cf575f80fd5b905f5260205f20015f915054906101000a900473ffffffffffffffffffffffffffffffffffffffff1681565b5f60015f8473ffffffffffffffffffffffffffffffffffffffff1673ffffffffffffffffffffffffffffffffffffffff1681526020019081526020015f205f8373ffffffffffffffffffffffffffffffffffffffff1673ffffffffffffffffffffffffffffffffffffffff1681526020019081526020015f2054905092915050565b5f600a5f8373ffffffffffffffffffffffffffffffffffffffff1673ffffffffffffffffffffffffffffffffffffffff1681526020019081526020015f205f9054906101000a900460ff169050919050565b5f5f600b5f9054906101000a900473ffffffffffffffffffffffffffffffffffffffff1690505f8173ffffffffffffffffffffffffffffffffffffffff16633850c7bd6040518163ffffffff1660e01b815260040160e060405180830381865afa15801561633f573d5f5f3e3d5ffd5b505050506040513d601f19601f820116820180604052508101906163639190619a20565b50505050505090505f780100000000000000000000000000000000000000000000000060028373ffffffffffffffffffffffffffffffffffffffff166163a99190619bec565b6163b39190619c63565b905080935050505090565b601160029054906101000a900460ff161561640e576040517f08c379a0000000000000000000000000000000000000000000000000000000008152600401616405906179ce565b60405180910390fd5b60115f9054906101000a900460ff1661645c576040517f08c379a000000000000000000000000000000000000000000000000000000000815260040161645390618456565b60405180910390fd5b60405160200161646b90619472565b604051602081830303815290604052805190602001206012604051602001616493919061855c565b60405160208183030381529060405280519060200120146164e9576040517f08c379a00000000000000000000000000000000000000000000000000000000081526004016164e0906185bc565b60405180910390fd5b6002601054101561652f576040517f08c379a000000000000000000000000000000000000000000000000000000000815260040161652690618624565b60405180910390fd5b5f73ffffffffffffffffffffffffffffffffffffffff16601f5f9054906101000a900473ffffffffffffffffffffffffffffffffffffffff1673ffffffffffffffffffffffffffffffffffffffff16036165be576040517f08c379a00000000000000000000000000000000000000000000000000000000081526004016165b590619cdd565b60405180910390fd5b60085f601f5f9054906101000a900473ffffffffffffffffffffffffffffffffffffffff1673ffffffffffffffffffffffffffffffffffffffff1673ffffffffffffffffffffffffffffffffffffffff1681526020019081526020015f205f9054906101000a900460ff16616668576040517f08c379a000000000000000000000000000000000000000000000000000000000815260040161665f90617d94565b60405180910390fd5b616695601f5f9054906101000a900473ffffffffffffffffffffffffffffffffffffffff166020546168bb565b602054600c5f8282546166a89190617bb8565b925050819055505f60115f6101000a81548160ff02191690831515021790555060405180602001604052805f815250601290816166e59190618022565b507f570563f436dc733c61d3863fd95e547272964f69d7b5cfe7461360a7a5643e3c601f5f9054906101000a900473ffffffffffffffffffffffffffffffffffffffff1660205460405161673a9291906180f1565b60405180910390a1601f5f6101000a81549073ffffffffffffffffffffffffffffffffffffffff021916905560205f9055565b616775616ac5565b5f73ffffffffffffffffffffffffffffffffffffffff168173ffffffffffffffffffffffffffffffffffffffff16036167e5575f6040517f1e4fbdf70000000000000000000000000000000000000000000000000000000081526004016167dc91906174eb565b60405180910390fd5b6167ee81616b4c565b50565b600281565b6167fe616ac5565b6001601160016101000a81548160ff0219169083151502179055507f20c53179fe7c6306d9d1c279d52bae5e736f5e1178137542d3a7a9d1752691be60405160405180910390a1565b670de0b6b3a764000081565b5f33905090565b6168678383836001616c44565b505050565b6002600654036168b1576040517f08c379a00000000000000000000000000000000000000000000000000000000081526004016168a890619d45565b60405180910390fd5b6002600681905550565b5f73ffffffffffffffffffffffffffffffffffffffff168273ffffffffffffffffffffffffffffffffffffffff160361692b575f6040517fec442f0500000000000000000000000000000000000000000000000000000000815260040161692291906174eb565b60405180910390fd5b6169365f8383616e13565b5050565b6001600681905550565b5f5f5f90505b600e805490508110156169dc578273ffffffffffffffffffffffffffffffffffffffff16600e8281548110616982576169816188f6565b5b905f5260205f20015f9054906101000a900473ffffffffffffffffffffffffffffffffffffffff1673ffffffffffffffffffffffffffffffffffffffff16036169cf5760019150506169e1565b808060010191505061694a565b505f90505b919050565b5f5f90505b600e80549050811015616a94575f600f5f600e8481548110616a1057616a0f6188f6565b5b905f5260205f20015f9054906101000a900473ffffffffffffffffffffffffffffffffffffffff1673ffffffffffffffffffffffffffffffffffffffff1673ffffffffffffffffffffffffffffffffffffffff1681526020019081526020015f205f6101000a81548160ff02191690831515021790555080806001019150506169eb565b50565b5f5f616aa1616853565b9050616aae85828561702c565b616ab98585856170bf565b60019150509392505050565b616acd616853565b73ffffffffffffffffffffffffffffffffffffffff16616aeb615055565b73ffffffffffffffffffffffffffffffffffffffff1614616b4a57616b0e616853565b6040517f118cdaa7000000000000000000000000000000000000000000000000000000008152600401616b4191906174eb565b60405180910390fd5b565b5f60055f9054906101000a900473ffffffffffffffffffffffffffffffffffffffff1690508160055f6101000a81548173ffffffffffffffffffffffffffffffffffffffff021916908373ffffffffffffffffffffffffffffffffffffffff1602179055508173ffffffffffffffffffffffffffffffffffffffff168173ffffffffffffffffffffffffffffffffffffffff167f8be0079c531659141344cd1fd0a4f28419497f9722a3daafe3b4186f6b6457e060405160405180910390a35050565b5f5f616c19616853565b9050616c268185856170bf565b600191505092915050565b80600d9081616c409190618022565b5050565b5f73ffffffffffffffffffffffffffffffffffffffff168473ffffffffffffffffffffffffffffffffffffffff1603616cb4575f6040517fe602df05000000000000000000000000000000000000000000000000000000008152600401616cab91906174eb565b60405180910390fd5b5f73ffffffffffffffffffffffffffffffffffffffff168373ffffffffffffffffffffffffffffffffffffffff1603616d24575f6040517f94280d62000000000000000000000000000000000000000000000000000000008152600401616d1b91906174eb565b60405180910390fd5b8160015f8673ffffffffffffffffffffffffffffffffffffffff1673ffffffffffffffffffffffffffffffffffffffff1681526020019081526020015f205f8573ffffffffffffffffffffffffffffffffffffffff1673ffffffffffffffffffffffffffffffffffffffff1681526020019081526020015f20819055508015616e0d578273ffffffffffffffffffffffffffffffffffffffff168473ffffffffffffffffffffffffffffffffffffffff167f8c5be1e5ebec7d5bd14f71427d1e84f3dd0314c0f7b2291e5b200ac8c7c3b92584604051616e049190617354565b60405180910390a35b50505050565b5f73ffffffffffffffffffffffffffffffffffffffff168373ffffffffffffffffffffffffffffffffffffffff1603616e63578060025f828254616e579190617bb8565b92505081905550616f31565b5f5f5f8573ffffffffffffffffffffffffffffffffffffffff1673ffffffffffffffffffffffffffffffffffffffff1681526020019081526020015f2054905081811015616eec578381836040517fe450d38c000000000000000000000000000000000000000000000000000000008152600401616ee393929190619d63565b60405180910390fd5b8181035f5f8673ffffffffffffffffffffffffffffffffffffffff1673ffffffffffffffffffffffffffffffffffffffff1681526020019081526020015f2081905550505b5f73ffffffffffffffffffffffffffffffffffffffff168273ffffffffffffffffffffffffffffffffffffffff1603616f78578060025f8282540392505081905550616fc2565b805f5f8473ffffffffffffffffffffffffffffffffffffffff1673ffffffffffffffffffffffffffffffffffffffff1681526020019081526020015f205f82825401925050819055505b8173ffffffffffffffffffffffffffffffffffffffff168373ffffffffffffffffffffffffffffffffffffffff167fddf252ad1be2c89b69c2b068fc378daa952ba7f163c4a11628f55a4df523b3ef8360405161701f9190617354565b60405180910390a3505050565b5f61703784846161fb565b90507fffffffffffffffffffffffffffffffffffffffffffffffffffffffffffffffff8110156170b957818110156170aa578281836040517ffb8f41b20000000000000000000000000000000000000000000000000000000081526004016170a193929190619d63565b60405180910390fd5b6170b884848484035f616c44565b5b50505050565b5f73ffffffffffffffffffffffffffffffffffffffff168373ffffffffffffffffffffffffffffffffffffffff160361712f575f6040517f96c6fd1e00000000000000000000000000000000000000000000000000000000815260040161712691906174eb565b60405180910390fd5b5f73ffffffffffffffffffffffffffffffffffffffff168273ffffffffffffffffffffffffffffffffffffffff160361719f575f6040517fec442f0500000000000000000000000000000000000000000000000000000000815260040161719691906174eb565b60405180910390fd5b6171aa838383616e13565b505050565b5080546171bb90617954565b5f825580601f106171cc57506171e9565b601f0160209004905f5260205f20908101906171e89190617291565b5b50565b5080545f8255905f5260205f20908101906172079190617291565b50565b828054828255905f5260205f20908101928215617280579160200282015b8281111561727f578251825f6101000a81548173ffffffffffffffffffffffffffffffffffffffff021916908373ffffffffffffffffffffffffffffffffffffffff16021790555091602001919060010190617228565b5b50905061728d9190617291565b5090565b5b808211156172a8575f815f905550600101617292565b5090565b5f81519050919050565b5f82825260208201905092915050565b8281835e5f83830152505050565b5f601f19601f8301169050919050565b5f6172ee826172ac565b6172f881856172b6565b93506173088185602086016172c6565b617311816172d4565b840191505092915050565b5f6020820190508181035f83015261733481846172e4565b905092915050565b5f819050919050565b61734e8161733c565b82525050565b5f6020820190506173675f830184617345565b92915050565b5f604051905090565b5f5ffd5b5f5ffd5b5f73ffffffffffffffffffffffffffffffffffffffff82169050919050565b5f6173a78261737e565b9050919050565b6173b78161739d565b81146173c1575f5ffd5b50565b5f813590506173d2816173ae565b92915050565b6173e18161733c565b81146173eb575f5ffd5b50565b5f813590506173fc816173d8565b92915050565b5f5f6040838503121561741857617417617376565b5b5f617425858286016173c4565b9250506020617436858286016173ee565b9150509250929050565b5f8115159050919050565b61745481617440565b82525050565b5f60208201905061746d5f83018461744b565b92915050565b5f6020828403121561748857617487617376565b5b5f617495848285016173c4565b91505092915050565b5f5f604083850312156174b4576174b3617376565b5b5f6174c1858286016173ee565b92505060206174d2858286016173c4565b9150509250929050565b6174e58161739d565b82525050565b5f6020820190506174fe5f8301846174dc565b92915050565b5f6020828403121561751957617518617376565b5b5f617526848285016173ee565b91505092915050565b5f5f5f6060848603121561754657617545617376565b5b5f617553868287016173c4565b9350506020617564868287016173c4565b9250506040617575868287016173ee565b9150509250925092565b5f60ff82169050919050565b6175948161757f565b82525050565b5f6020820190506175ad5f83018461758b565b92915050565b5f8160070b9050919050565b6175c8816175b3565b81146175d2575f5ffd5b50565b5f813590506175e3816175bf565b92915050565b5f602082840312156175fe576175fd617376565b5b5f61760b848285016175d5565b91505092915050565b5f5ffd5b7f4e487b71000000000000000000000000000000000000000000000000000000005f52604160045260245ffd5b61764e826172d4565b810181811067ffffffffffffffff8211171561766d5761766c617618565b5b80604052505050565b5f61767f61736d565b905061768b8282617645565b919050565b5f67ffffffffffffffff8211156176aa576176a9617618565b5b602082029050602081019050919050565b5f5ffd5b5f6176d16176cc84617690565b617676565b905080838252602082019050602084028301858111156176f4576176f36176bb565b5b835b8181101561771d578061770988826173c4565b8452602084019350506020810190506176f6565b5050509392505050565b5f82601f83011261773b5761773a617614565b5b813561774b8482602086016176bf565b91505092915050565b5f5f6040838503121561776a57617769617376565b5b5f83013567ffffffffffffffff8111156177875761778661737a565b5b61779385828601617727565b925050602083013567ffffffffffffffff8111156177b4576177b361737a565b5b6177c085828601617727565b9150509250929050565b5f5ffd5b5f67ffffffffffffffff8211156177e8576177e7617618565b5b6177f1826172d4565b9050602081019050919050565b828183375f83830152505050565b5f61781e617819846177ce565b617676565b90508281526020810184848401111561783a576178396177ca565b5b6178458482856177fe565b509392505050565b5f82601f83011261786157617860617614565b5b813561787184826020860161780c565b91505092915050565b5f6020828403121561788f5761788e617376565b5b5f82013567ffffffffffffffff8111156178ac576178ab61737a565b5b6178b88482850161784d565b91505092915050565b6178ca816175b3565b82525050565b5f6020820190506178e35f8301846178c1565b92915050565b5f5f604083850312156178ff576178fe617376565b5b5f61790c858286016173c4565b925050602061791d858286016173c4565b9150509250929050565b7f4e487b71000000000000000000000000000000000000000000000000000000005f52602260045260245ffd5b5f600282049050600182168061796b57607f821691505b60208210810361797e5761797d617927565b5b50919050565b7f436f6e74726163742069732070617573656400000000000000000000000000005f82015250565b5f6179b86012836172b6565b91506179c382617984565b602082019050919050565b5f6020820190508181035f8301526179e5816179ac565b9050919050565b7f546172676574206e6f742077686974656c6973746564000000000000000000005f82015250565b5f617a206016836172b6565b9150617a2b826179ec565b602082019050919050565b5f6020820190508181035f830152617a4d81617a14565b9050919050565b7f496e70757420616d6f756e74206d7573742062652067726561746572207468615f8201527f6e207a65726f0000000000000000000000000000000000000000000000000000602082015250565b5f617aae6026836172b6565b9150617ab982617a54565b604082019050919050565b5f6020820190508181035f830152617adb81617aa2565b9050919050565b7f4e487b71000000000000000000000000000000000000000000000000000000005f52601160045260245ffd5b5f617b198261733c565b9150617b248361733c565b9250828202617b328161733c565b91508282048414831517617b4957617b48617ae2565b5b5092915050565b7f43434b20616d6f756e7420746f6f20736d616c6c0000000000000000000000005f82015250565b5f617b846014836172b6565b9150617b8f82617b50565b602082019050919050565b5f6020820190508181035f830152617bb181617b78565b9050919050565b5f617bc28261733c565b9150617bcd8361733c565b9250828201905080821115617be557617be4617ae2565b5b92915050565b7f546f74616c20737570706c7920657863656564656400000000000000000000005f82015250565b5f617c1f6015836172b6565b9150617c2a82617beb565b602082019050919050565b5f6020820190508181035f830152617c4c81617c13565b9050919050565b5f604082019050617c665f830185617345565b617c736020830184617345565b9392505050565b7f4e6f74206120766f7465720000000000000000000000000000000000000000005f82015250565b5f617cae600b836172b6565b9150617cb982617c7a565b602082019050919050565b5f6020820190508181035f830152617cdb81617ca2565b9050919050565b7f50726f706f73616c20616c7265616479206163746976650000000000000000005f82015250565b5f617d166017836172b6565b9150617d2182617ce2565b602082019050919050565b5f6020820190508181035f830152617d4381617d0a565b9050919050565b7f526563697069656e74206e6f742077686974656c6973746564000000000000005f82015250565b5f617d7e6019836172b6565b9150617d8982617d4a565b602082019050919050565b5f6020820190508181035f830152617dab81617d72565b9050919050565b7f526563697069656e742063616e6e6f74206265207a65726f20616464726573735f82015250565b5f617de66020836172b6565b9150617df182617db2565b602082019050919050565b5f6020820190508181035f830152617e1381617dda565b9050919050565b7f416d6f756e74206d7573742062652067726561746572207468616e207a65726f5f82015250565b5f617e4e6020836172b6565b9150617e5982617e1a565b602082019050919050565b5f6020820190508181035f830152617e7b81617e42565b9050919050565b5f819050815f5260205f209050919050565b5f6020601f8301049050919050565b5f82821b905092915050565b5f60088302617ede7fffffffffffffffffffffffffffffffffffffffffffffffffffffffffffffffff82617ea3565b617ee88683617ea3565b95508019841693508086168417925050509392505050565b5f819050919050565b5f617f23617f1e617f198461733c565b617f00565b61733c565b9050919050565b5f819050919050565b617f3c83617f09565b617f50617f4882617f2a565b848454617eaf565b825550505050565b5f5f905090565b617f67617f58565b617f72818484617f33565b505050565b5b81811015617f9557617f8a5f82617f5f565b600181019050617f78565b5050565b601f821115617fda57617fab81617e82565b617fb484617e94565b81016020851015617fc3578190505b617fd7617fcf85617e94565b830182617f77565b50505b505050565b5f82821c905092915050565b5f617ffa5f1984600802617fdf565b1980831691505092915050565b5f6180128383617feb565b9150826002028217905092915050565b61802b826172ac565b67ffffffffffffffff81111561804457618043617618565b5b61804e8254617954565b618059828285617f99565b5f60209050601f83116001811461808a575f8415618078578287015190505b6180828582618007565b8655506180e9565b601f19841661809886617e82565b5f5b828110156180bf5784890151825560018201915060208501945060208101905061809a565b868310156180dc57848901516180d8601f891682617feb565b8355505b6001600288020188555050505b505050505050565b5f6040820190506181045f8301856174dc565b6181116020830184617345565b9392505050565b7f4d656d626572206e6f742077686974656c6973746564000000000000000000005f82015250565b5f61814c6016836172b6565b915061815782618118565b602082019050919050565b5f6020820190508181035f83015261817981618140565b9050919050565b7f72656d6f766500000000000000000000000000000000000000000000000000005f82015250565b5f6181b46006836172b6565b91506181bf82618180565b602082019050919050565b5f6040820190506181dd5f8301846174dc565b81810360208301526181ee816181a8565b905092915050565b7f53656e6465722069732066726f7a656e000000000000000000000000000000005f82015250565b5f61822a6010836172b6565b9150618235826181f6565b602082019050919050565b5f6020820190508181035f8301526182578161821e565b9050919050565b7f416d6f756e74206d75737420626520616e20696e7465676572000000000000005f82015250565b5f6182926019836172b6565b915061829d8261825e565b602082019050919050565b5f6020820190508181035f8301526182bf81618286565b9050919050565b7f4d656d6265722063616e6e6f74206265207a65726f20616464726573730000005f82015250565b5f6182fa601d836172b6565b9150618305826182c6565b602082019050919050565b5f6020820190508181035f830152618327816182ee565b9050919050565b7f4d656d62657220616c72656164792077686974656c69737465640000000000005f82015250565b5f618362601a836172b6565b915061836d8261832e565b602082019050919050565b5f6020820190508181035f83015261838f81618356565b9050919050565b7f61646400000000000000000000000000000000000000000000000000000000005f82015250565b5f6183ca6003836172b6565b91506183d582618396565b602082019050919050565b5f6040820190506183f35f8301846174dc565b8181036020830152618404816183be565b905092915050565b7f4e6f206163746976652070726f706f73616c00000000000000000000000000005f82015250565b5f6184406012836172b6565b915061844b8261840c565b602082019050919050565b5f6020820190508181035f83015261846d81618434565b9050919050565b5f81905092915050565b7f756e667265657a650000000000000000000000000000000000000000000000005f82015250565b5f6184b2600883618474565b91506184bd8261847e565b600882019050919050565b5f6184d2826184a6565b9150819050919050565b5f81546184e881617954565b6184f28186618474565b9450600182165f811461850c576001811461852157618553565b60ff1983168652811515820286019350618553565b61852a85617e82565b5f5b8381101561854b5781548189015260018201915060208101905061852c565b838801955050505b50505092915050565b5f61856782846184dc565b915081905092915050565b7f496e76616c69642070726f706f73616c207479706500000000000000000000005f82015250565b5f6185a66015836172b6565b91506185b182618572565b602082019050919050565b5f6020820190508181035f8301526185d38161859a565b9050919050565b7f4e6f7420656e6f75676820766f746573000000000000000000000000000000005f82015250565b5f61860e6010836172b6565b9150618619826185da565b602082019050919050565b5f6020820190508181035f83015261863b81618602565b9050919050565b7f496e76616c6964207573657220616464726573730000000000000000000000005f82015250565b5f6186766014836172b6565b915061868182618642565b602082019050919050565b5f6020820190508181035f8301526186a38161866a565b9050919050565b7f55736572206e6f742066726f7a656e00000000000000000000000000000000005f82015250565b5f6186de600f836172b6565b91506186e9826186aa565b602082019050919050565b5f6020820190508181035f83015261870b816186d2565b9050919050565b5f61871e6008836172b6565b91506187298261847e565b602082019050919050565b5f6040820190506187475f8301846174dc565b818103602083015261875881618712565b905092915050565b7f416c726561647920656e6f75676820766f74657320746f2070617573650000005f82015250565b5f618794601d836172b6565b915061879f82618760565b602082019050919050565b5f6020820190508181035f8301526187c181618788565b9050919050565b7f766f7465727300000000000000000000000000000000000000000000000000005f82015250565b5f6187fc600683618474565b9150618807826187c8565b600682019050919050565b5f61881c826187f0565b9150819050919050565b7f4368616e6765206e6f7420616c6c6f77656420796574000000000000000000005f82015250565b5f61885a6016836172b6565b915061886582618826565b602082019050919050565b5f6020820190508181035f8301526188878161884e565b9050919050565b7f4e6f20766f746572207265706c6163656d656e742070726f706f7365640000005f82015250565b5f6188c2601d836172b6565b91506188cd8261888e565b602082019050919050565b5f6020820190508181035f8301526188ef816188b6565b9050919050565b7f4e487b71000000000000000000000000000000000000000000000000000000005f52603260045260245ffd5b7f4f6c6420766f746572206e6f7420696e20766f746572206c69737400000000005f82015250565b5f618957601b836172b6565b915061896282618923565b602082019050919050565b5f6020820190508181035f8301526189848161894b565b9050919050565b7f4e657720766f7465722063616e6e6f74206265207a65726f20616464726573735f82015250565b5f6189bf6020836172b6565b91506189ca8261898b565b602082019050919050565b5f6020820190508181035f8301526189ec816189b3565b9050919050565b7f4e657720766f74657220616c726561647920696e20766f746572206c697374005f82015250565b5f618a27601f836172b6565b9150618a32826189f3565b602082019050919050565b5f6020820190508181035f830152618a5481618a1b565b9050919050565b7f4475706c6963617465206e657720766f74657273206e6f7420616c6c6f7765645f82015250565b5f618a8f6020836172b6565b9150618a9a82618a5b565b602082019050919050565b5f6020820190508181035f830152618abc81618a83565b9050919050565b5f81549050919050565b5f82825260208201905092915050565b5f819050815f5260205f209050919050565b618af88161739d565b82525050565b5f618b098383618aef565b60208301905092915050565b5f815f1c9050919050565b5f73ffffffffffffffffffffffffffffffffffffffff82169050919050565b5f618b51618b4c83618b15565b618b20565b9050919050565b5f618b638254618b3f565b9050919050565b5f600182019050919050565b5f618b8082618ac3565b618b8a8185618acd565b9350618b9583618add565b805f5b83811015618bcc57618ba982618b58565b618bb38882618afe565b9750618bbe83618b6a565b925050600181019050618b98565b5085935050505092915050565b5f6040820190508181035f830152618bf18185618b76565b90508181036020830152618c058184618b76565b90509392505050565b7f667265657a6500000000000000000000000000000000000000000000000000005f82015250565b5f618c42600683618474565b9150618c4d82618c0e565b600682019050919050565b5f618c6282618c36565b9150819050919050565b7f5573657220616c72656164792066726f7a656e000000000000000000000000005f82015250565b5f618ca06013836172b6565b9150618cab82618c6c565b602082019050919050565b5f6020820190508181035f830152618ccd81618c94565b9050919050565b5f618ce06006836172b6565b9150618ceb82618c0e565b602082019050919050565b5f604082019050618d095f8301846174dc565b8181036020830152618d1a81618cd4565b905092915050565b7f41646a7573746d656e7420616d6f756e74206d757374206265206e6f6e2d7a655f8201527f726f000000000000000000000000000000000000000000000000000000000000602082015250565b5f618d7c6022836172b6565b9150618d8782618d22565b604082019050919050565b5f6020820190508181035f830152618da981618d70565b9050919050565b5f819050919050565b5f618dc382618db0565b9150618dce83618db0565b92508282019050828112155f8312168382125f841215161715618df457618df3617ae2565b5b92915050565b7f546f74616c20737570706c792063616e6e6f74206265206c657373207468616e5f8201527f206d696e74656420616d6f756e74000000000000000000000000000000000000602082015250565b5f618e54602e836172b6565b9150618e5f82618dfa565b604082019050919050565b5f6020820190508181035f830152618e8181618e48565b9050919050565b7f546f74616c20737570706c792063616e6e6f74206265206e65676174697665005f82015250565b5f618ebc601f836172b6565b9150618ec782618e88565b602082019050919050565b5f6020820190508181035f830152618ee981618eb0565b9050919050565b5f604082019050618f035f8301856178c1565b618f1060208301846174dc565b9392505050565b7f77686974656c6973745f72656d6f7665000000000000000000000000000000005f82015250565b5f618f4b601083618474565b9150618f5682618f17565b601082019050919050565b5f618f6b82618f3f565b9150819050919050565b7f496e76616c6964206d656d6265722061646472657373000000000000000000005f82015250565b5f618fa96016836172b6565b9150618fb482618f75565b602082019050919050565b5f6020820190508181035f830152618fd681618f9d565b9050919050565b5f618fe78261733c565b9150618ff28361733c565b925082820390508181111561900a57619009617ae2565b5b92915050565b7f4e487b71000000000000000000000000000000000000000000000000000000005f52603160045260245ffd5b7f557365722063616e6e6f74206265207a65726f206164647265737300000000005f82015250565b5f619071601b836172b6565b915061907c8261903d565b602082019050919050565b5f6020820190508181035f83015261909e81619065565b9050919050565b7f4f6c6420616e64206e657720766f7465727320617272617973206d75737420685f8201527f6176652073616d65206c656e6774680000000000000000000000000000000000602082015250565b5f6190ff602f836172b6565b915061910a826190a5565b604082019050919050565b5f6020820190508181035f83015261912c816190f3565b9050919050565b7f4174206c65617374206f6e6520766f746572207265706c6163656d656e7420725f8201527f6571756972656400000000000000000000000000000000000000000000000000602082015250565b5f61918d6027836172b6565b915061919882619133565b604082019050919050565b5f6020820190508181035f8301526191ba81619181565b9050919050565b5f81519050919050565b5f819050602082019050919050565b5f602082019050919050565b5f6191f0826191c1565b6191fa8185618acd565b9350619205836191cb565b805f5b8381101561923557815161921c8882618afe565b9750619227836191da565b925050600181019050619208565b5085935050505092915050565b5f6060820190508181035f83015261925a81866191e6565b9050818103602083015261926e81856191e6565b905061927d60408301846174dc565b949350505050565b5f6040820190508181035f83015261929d81856172e4565b90506192ac60208301846174dc565b9392505050565b7f416c726561647920766f746564000000000000000000000000000000000000005f82015250565b5f6192e7600d836172b6565b91506192f2826192b3565b602082019050919050565b5f6020820190508181035f830152619314816192db565b9050919050565b7f566f74696e6720697320706175736564000000000000000000000000000000005f82015250565b5f61934f6010836172b6565b915061935a8261931b565b602082019050919050565b5f6020820190508181035f83015261937c81619343565b9050919050565b5f61938d8261733c565b91507fffffffffffffffffffffffffffffffffffffffffffffffffffffffffffffffff82036193bf576193be617ae2565b5b600182019050919050565b7f77686974656c6973745f616464000000000000000000000000000000000000005f82015250565b5f6193fe600d83618474565b9150619409826193ca565b600d82019050919050565b5f61941e826193f2565b9150819050919050565b7f6d696e74000000000000000000000000000000000000000000000000000000005f82015250565b5f61945c600483618474565b915061946782619428565b600482019050919050565b5f61947c82619450565b9150819050919050565b7f6e616d65000000000000000000000000000000000000000000000000000000005f82015250565b5f6194ba600483618474565b91506194c582619486565b600482019050919050565b5f6194da826194ae565b9150819050919050565b7f61646a757374546f74616c537570706c790000000000000000000000000000005f82015250565b5f619518601183618474565b9150619523826194e4565b601182019050919050565b5f6195388261950c565b9150819050919050565b7f446973747269627574696f6e20696e74657276616c206e6f74207265616368655f8201527f6400000000000000000000000000000000000000000000000000000000000000602082015250565b5f61959c6021836172b6565b91506195a782619542565b604082019050919050565b5f6020820190508181035f8301526195c981619590565b9050919050565b7f4e6f2077686974656c697374206d656d626572730000000000000000000000005f82015250565b5f6196046014836172b6565b915061960f826195d0565b602082019050919050565b5f6020820190508181035f830152619631816195f8565b9050919050565b5f6040820190508181035f83015261965081856191e6565b905061965f6020830184617345565b9392505050565b7f4f6e6c7920696e69746961746f722063616e2063616e63656c000000000000005f82015250565b5f61969a6019836172b6565b91506196a582619666565b602082019050919050565b5f6020820190508181035f8301526196c78161968e565b9050919050565b7f496e76616c69642070726f706f73616c207479706520666f722063616e63656c5f8201527f6c6174696f6e0000000000000000000000000000000000000000000000000000602082015250565b5f6197286026836172b6565b9150619733826196ce565b604082019050919050565b5f6020820190508181035f8301526197558161971c565b9050919050565b7f50726f706f73616c206e6f742079657420617070726f766564000000000000005f82015250565b5f6197906019836172b6565b915061979b8261975c565b602082019050919050565b5f6020820190508181035f8301526197bd81619784565b9050919050565b7f43616e63656c6c6174696f6e2077696e646f7720636c6f7365640000000000005f82015250565b5f6197f8601a836172b6565b9150619803826197c4565b602082019050919050565b5f6020820190508181035f830152619825816197ec565b9050919050565b7f416c726561647920656e6f75676820766f74657320746f20726573756d6500005f82015250565b5f619860601e836172b6565b915061986b8261982c565b602082019050919050565b5f6020820190508181035f83015261988d81619854565b9050919050565b5f81546198a081617954565b6198aa81866172b6565b9450600182165f81146198c457600181146198da5761990c565b60ff19831686528115156020028601935061990c565b6198e385617e82565b5f5b83811015619904578154818901526001820191506020810190506198e5565b808801955050505b50505092915050565b5f6020820190508181035f83015261992d8184619894565b905092915050565b61993e8161737e565b8114619948575f5ffd5b50565b5f8151905061995981619935565b92915050565b5f8160020b9050919050565b6199748161995f565b811461997e575f5ffd5b50565b5f8151905061998f8161996b565b92915050565b5f61ffff82169050919050565b6199ab81619995565b81146199b5575f5ffd5b50565b5f815190506199c6816199a2565b92915050565b6199d58161757f565b81146199df575f5ffd5b50565b5f815190506199f0816199cc565b92915050565b6199ff81617440565b8114619a09575f5ffd5b50565b5f81519050619a1a816199f6565b92915050565b5f5f5f5f5f5f5f60e0888a031215619a3b57619a3a617376565b5b5f619a488a828b0161994b565b9750506020619a598a828b01619981565b9650506040619a6a8a828b016199b8565b9550506060619a7b8a828b016199b8565b9450506080619a8c8a828b016199b8565b93505060a0619a9d8a828b016199e2565b92505060c0619aae8a828b01619a0c565b91505092959891949750929550565b5f8160011c9050919050565b5f5f8291508390505b6001851115619b1257808604811115619aee57619aed617ae2565b5b6001851615619afd5780820291505b8081029050619b0b85619abd565b9450619ad2565b94509492505050565b5f82619b2a5760019050619be5565b81619b37575f9050619be5565b8160018114619b4d5760028114619b5757619b86565b6001915050619be5565b60ff841115619b6957619b68617ae2565b5b8360020a915084821115619b8057619b7f617ae2565b5b50619be5565b5060208310610133831016604e8410600b8410161715619bbb5782820a905083811115619bb657619bb5617ae2565b5b619be5565b619bc88484846001619ac9565b92509050818404811115619bdf57619bde617ae2565b5b81810290505b9392505050565b5f619bf68261733c565b9150619c018361757f565b9250619c2e7fffffffffffffffffffffffffffffffffffffffffffffffffffffffffffffffff8484619b1b565b905092915050565b7f4e487b71000000000000000000000000000000000000000000000000000000005f52601260045260245ffd5b5f619c6d8261733c565b9150619c788361733c565b925082619c8857619c87619c36565b5b828204905092915050565b7f496e76616c6964207265636569766572206164647265737300000000000000005f82015250565b5f619cc76018836172b6565b9150619cd282619c93565b602082019050919050565b5f6020820190508181035f830152619cf481619cbb565b9050919050565b7f5265656e7472616e637947756172643a207265656e7472616e742063616c6c005f82015250565b5f619d2f601f836172b6565b9150619d3a82619cfb565b602082019050919050565b5f6020820190508181035f830152619d5c81619d23565b9050919050565b5f606082019050619d765f8301866174dc565b619d836020830185617345565b619d906040830184617345565b94935050505056fea2646970667358221220cc3830a91fe8f57c3279d58350eb697b24c690c28b33d2a5ee0676ca7999e1fb64736f6c634300081e0033",
			"opcodes": "PUSH1 0x80 PUSH1 0x40 MSTORE PUSH10 0x69E10DE76676D0800000 PUSH1 0x7 SSTORE CALLVALUE DUP1 ISZERO PUSH2 0x1D JUMPI PUSH0 PUSH0 REVERT JUMPDEST POP PUSH1 0x40 MLOAD PUSH2 0xAE2A CODESIZE SUB DUP1 PUSH2 0xAE2A DUP4 CODECOPY DUP2 DUP2 ADD PUSH1 0x40 MSTORE DUP2 ADD SWAP1 PUSH2 0x3F SWAP2 SWAP1 PUSH2 0x8F7 JUMP JUMPDEST CALLER DUP4 PUSH1 0x40 MLOAD DUP1 PUSH1 0x40 ADD PUSH1 0x40 MSTORE DUP1 PUSH1 0x8 DUP2 MSTORE PUSH1 0x20 ADD PUSH32 0x43434B546F6B656E000000000000000000000000000000000000000000000000 DUP2 MSTORE POP DUP2 PUSH1 0x3 SWAP1 DUP2 PUSH2 0x86 SWAP2 SWAP1 PUSH2 0xBAB JUMP JUMPDEST POP DUP1 PUSH1 0x4 SWAP1 DUP2 PUSH2 0x96 SWAP2 SWAP1 PUSH2 0xBAB JUMP JUMPDEST POP POP POP PUSH0 PUSH20 0xFFFFFFFFFFFFFFFFFFFFFFFFFFFFFFFFFFFFFFFF AND DUP2 PUSH20 0xFFFFFFFFFFFFFFFFFFFFFFFFFFFFFFFFFFFFFFFF AND SUB PUSH2 0x109 JUMPI PUSH0 PUSH1 0x40 MLOAD PUSH32 0x1E4FBDF700000000000000000000000000000000000000000000000000000000 DUP2 MSTORE PUSH1 0x4 ADD PUSH2 0x100 SWAP2 SWAP1 PUSH2 0xC89 JUMP JUMPDEST PUSH1 0x40 MLOAD DUP1 SWAP2 SUB SWAP1 REVERT JUMPDEST PUSH2 0x118 DUP2 PUSH2 0x527 PUSH1 0x20 SHL PUSH1 0x20 SHR JUMP JUMPDEST POP PUSH1 0x1 PUSH1 0x6 DUP2 SWAP1 SSTORE POP PUSH0 DUP3 MLOAD GT PUSH2 0x164 JUMPI PUSH1 0x40 MLOAD PUSH32 0x8C379A000000000000000000000000000000000000000000000000000000000 DUP2 MSTORE PUSH1 0x4 ADD PUSH2 0x15B SWAP1 PUSH2 0xD22 JUMP JUMPDEST PUSH1 0x40 MLOAD DUP1 SWAP2 SUB SWAP1 REVERT JUMPDEST PUSH0 DUP2 MLOAD GT PUSH2 0x1A7 JUMPI PUSH1 0x40 MLOAD PUSH32 0x8C379A000000000000000000000000000000000000000000000000000000000 DUP2 MSTORE PUSH1 0x4 ADD PUSH2 0x19E SWAP1 PUSH2 0xD8A JUMP JUMPDEST PUSH1 0x40 MLOAD DUP1 SWAP2 SUB SWAP1 REVERT JUMPDEST PUSH32 0x3C5AD147104E56BE34A9176A6692F7DF8D2F4B29A5AF06BC6B98970D329D6577 DUP3 MLOAD PUSH1 0x40 MLOAD PUSH2 0x1D7 SWAP2 SWAP1 PUSH2 0xE01 JUMP JUMPDEST PUSH1 0x40 MLOAD DUP1 SWAP2 SUB SWAP1 LOG1 PUSH0 PUSH0 SWAP1 POP JUMPDEST DUP3 MLOAD DUP2 LT ISZERO PUSH2 0x36B JUMPI PUSH0 PUSH20 0xFFFFFFFFFFFFFFFFFFFFFFFFFFFFFFFFFFFFFFFF AND DUP4 DUP3 DUP2 MLOAD DUP2 LT PUSH2 0x217 JUMPI PUSH2 0x216 PUSH2 0xE2D JUMP JUMPDEST JUMPDEST PUSH1 0x20 MUL PUSH1 0x20 ADD ADD MLOAD PUSH20 0xFFFFFFFFFFFFFFFFFFFFFFFFFFFFFFFFFFFFFFFF AND SUB PUSH2 0x275 JUMPI PUSH1 0x40 MLOAD PUSH32 0x8C379A000000000000000000000000000000000000000000000000000000000 DUP2 MSTORE PUSH1 0x4 ADD PUSH2 0x26C SWAP1 PUSH2 0xEA4 JUMP JUMPDEST PUSH1 0x40 MLOAD DUP1 SWAP2 SUB SWAP1 REVERT JUMPDEST PUSH1 0x1 PUSH1 0x8 PUSH0 DUP6 DUP5 DUP2 MLOAD DUP2 LT PUSH2 0x28D JUMPI PUSH2 0x28C PUSH2 0xE2D JUMP JUMPDEST JUMPDEST PUSH1 0x20 MUL PUSH1 0x20 ADD ADD MLOAD PUSH20 0xFFFFFFFFFFFFFFFFFFFFFFFFFFFFFFFFFFFFFFFF AND PUSH20 0xFFFFFFFFFFFFFFFFFFFFFFFFFFFFFFFFFFFFFFFF AND DUP2 MSTORE PUSH1 0x20 ADD SWAP1 DUP2 MSTORE PUSH1 0x20 ADD PUSH0 KECCAK256 PUSH0 PUSH2 0x100 EXP DUP2 SLOAD DUP2 PUSH1 0xFF MUL NOT AND SWAP1 DUP4 ISZERO ISZERO MUL OR SWAP1 SSTORE POP PUSH1 0x9 DUP4 DUP3 DUP2 MLOAD DUP2 LT PUSH2 0x2F9 JUMPI PUSH2 0x2F8 PUSH2 0xE2D JUMP JUMPDEST JUMPDEST PUSH1 0x20 MUL PUSH1 0x20 ADD ADD MLOAD SWAP1 DUP1 PUSH1 0x1 DUP2 SLOAD ADD DUP1 DUP3 SSTORE DUP1 SWAP2 POP POP PUSH1 0x1 SWAP1 SUB SWAP1 PUSH0 MSTORE PUSH1 0x20 PUSH0 KECCAK256 ADD PUSH0 SWAP1 SWAP2 SWAP1 SWAP2 SWAP1 SWAP2 PUSH2 0x100 EXP DUP2 SLOAD DUP2 PUSH20 0xFFFFFFFFFFFFFFFFFFFFFFFFFFFFFFFFFFFFFFFF MUL NOT AND SWAP1 DUP4 PUSH20 0xFFFFFFFFFFFFFFFFFFFFFFFFFFFFFFFFFFFFFFFF AND MUL OR SWAP1 SSTORE POP DUP1 DUP1 PUSH1 0x1 ADD SWAP2 POP POP PUSH2 0x1E4 JUMP JUMPDEST POP PUSH32 0x3C5AD147104E56BE34A9176A6692F7DF8D2F4B29A5AF06BC6B98970D329D6577 DUP2 MLOAD PUSH1 0x40 MLOAD PUSH2 0x39C SWAP2 SWAP1 PUSH2 0xF0C JUMP JUMPDEST PUSH1 0x40 MLOAD DUP1 SWAP2 SUB SWAP1 LOG1 PUSH0 PUSH0 SWAP1 POP JUMPDEST DUP2 MLOAD DUP2 LT ISZERO PUSH2 0x447 JUMPI PUSH0 PUSH20 0xFFFFFFFFFFFFFFFFFFFFFFFFFFFFFFFFFFFFFFFF AND DUP3 DUP3 DUP2 MLOAD DUP2 LT PUSH2 0x3DC JUMPI PUSH2 0x3DB PUSH2 0xE2D JUMP JUMPDEST JUMPDEST PUSH1 0x20 MUL PUSH1 0x20 ADD ADD MLOAD PUSH20 0xFFFFFFFFFFFFFFFFFFFFFFFFFFFFFFFFFFFFFFFF AND SUB PUSH2 0x43A JUMPI PUSH1 0x40 MLOAD PUSH32 0x8C379A000000000000000000000000000000000000000000000000000000000 DUP2 MSTORE PUSH1 0x4 ADD PUSH2 0x431 SWAP1 PUSH2 0xF82 JUMP JUMPDEST PUSH1 0x40 MLOAD DUP1 SWAP2 SUB SWAP1 REVERT JUMPDEST DUP1 DUP1 PUSH1 0x1 ADD SWAP2 POP POP PUSH2 0x3A9 JUMP JUMPDEST POP DUP1 PUSH1 0xE SWAP1 DUP1 MLOAD SWAP1 PUSH1 0x20 ADD SWAP1 PUSH2 0x45E SWAP3 SWAP2 SWAP1 PUSH2 0x5EA JUMP JUMPDEST POP PUSH0 PUSH1 0x11 PUSH0 PUSH2 0x100 EXP DUP2 SLOAD DUP2 PUSH1 0xFF MUL NOT AND SWAP1 DUP4 ISZERO ISZERO MUL OR SWAP1 SSTORE POP PUSH0 PUSH1 0x10 DUP2 SWAP1 SSTORE POP PUSH0 PUSH1 0x11 PUSH1 0x1 PUSH2 0x100 EXP DUP2 SLOAD DUP2 PUSH1 0xFF MUL NOT AND SWAP1 DUP4 ISZERO ISZERO MUL OR SWAP1 SSTORE POP PUSH0 PUSH1 0x11 PUSH1 0x2 PUSH2 0x100 EXP DUP2 SLOAD DUP2 PUSH1 0xFF MUL NOT AND SWAP1 DUP4 ISZERO ISZERO MUL OR SWAP1 SSTORE POP DUP3 PUSH1 0xD SWAP1 DUP2 PUSH2 0x4C2 SWAP2 SWAP1 PUSH2 0xBAB JUMP JUMPDEST POP PUSH1 0x40 MLOAD DUP1 PUSH1 0x20 ADD PUSH1 0x40 MSTORE DUP1 PUSH0 DUP2 MSTORE POP PUSH1 0x12 SWAP1 DUP2 PUSH2 0x4E0 SWAP2 SWAP1 PUSH2 0xBAB JUMP JUMPDEST POP TIMESTAMP PUSH1 0x21 DUP2 SWAP1 SSTORE POP PUSH32 0x3C5AD147104E56BE34A9176A6692F7DF8D2F4B29A5AF06BC6B98970D329D6577 PUSH0 PUSH1 0x40 MLOAD PUSH2 0x517 SWAP2 SWAP1 PUSH2 0x1023 JUMP JUMPDEST PUSH1 0x40 MLOAD DUP1 SWAP2 SUB SWAP1 LOG1 POP POP POP PUSH2 0x104F JUMP JUMPDEST PUSH0 PUSH1 0x5 PUSH0 SWAP1 SLOAD SWAP1 PUSH2 0x100 EXP SWAP1 DIV PUSH20 0xFFFFFFFFFFFFFFFFFFFFFFFFFFFFFFFFFFFFFFFF AND SWAP1 POP DUP2 PUSH1 0x5 PUSH0 PUSH2 0x100 EXP DUP2 SLOAD DUP2 PUSH20 0xFFFFFFFFFFFFFFFFFFFFFFFFFFFFFFFFFFFFFFFF MUL NOT AND SWAP1 DUP4 PUSH20 0xFFFFFFFFFFFFFFFFFFFFFFFFFFFFFFFFFFFFFFFF AND MUL OR SWAP1 SSTORE POP DUP2 PUSH20 0xFFFFFFFFFFFFFFFFFFFFFFFFFFFFFFFFFFFFFFFF AND DUP2 PUSH20 0xFFFFFFFFFFFFFFFFFFFFFFFFFFFFFFFFFFFFFFFF AND PUSH32 0x8BE0079C531659141344CD1FD0A4F28419497F9722A3DAAFE3B4186F6B6457E0 PUSH1 0x40 MLOAD PUSH1 0x40 MLOAD DUP1 SWAP2 SUB SWAP1 LOG3 POP POP JUMP JUMPDEST DUP3 DUP1 SLOAD DUP3 DUP3 SSTORE SWAP1 PUSH0 MSTORE PUSH1 0x20 PUSH0 KECCAK256 SWAP1 DUP2 ADD SWAP3 DUP3 ISZERO PUSH2 0x660 JUMPI SWAP2 PUSH1 0x20 MUL DUP3 ADD JUMPDEST DUP3 DUP2 GT ISZERO PUSH2 0x65F JUMPI DUP3 MLOAD DUP3 PUSH0 PUSH2 0x100 EXP DUP2 SLOAD DUP2 PUSH20 0xFFFFFFFFFFFFFFFFFFFFFFFFFFFFFFFFFFFFFFFF MUL NOT AND SWAP1 DUP4 PUSH20 0xFFFFFFFFFFFFFFFFFFFFFFFFFFFFFFFFFFFFFFFF AND MUL OR SWAP1 SSTORE POP SWAP2 PUSH1 0x20 ADD SWAP2 SWAP1 PUSH1 0x1 ADD SWAP1 PUSH2 0x608 JUMP JUMPDEST JUMPDEST POP SWAP1 POP PUSH2 0x66D SWAP2 SWAP1 PUSH2 0x671 JUMP JUMPDEST POP SWAP1 JUMP JUMPDEST JUMPDEST DUP1 DUP3 GT ISZERO PUSH2 0x688 JUMPI PUSH0 DUP2 PUSH0 SWAP1 SSTORE POP PUSH1 0x1 ADD PUSH2 0x672 JUMP JUMPDEST POP SWAP1 JUMP JUMPDEST PUSH0 PUSH1 0x40 MLOAD SWAP1 POP SWAP1 JUMP JUMPDEST PUSH0 PUSH0 REVERT JUMPDEST PUSH0 PUSH0 REVERT JUMPDEST PUSH0 PUSH0 REVERT JUMPDEST PUSH0 PUSH0 REVERT JUMPDEST PUSH0 PUSH1 0x1F NOT PUSH1 0x1F DUP4 ADD AND SWAP1 POP SWAP2 SWAP1 POP JUMP JUMPDEST PUSH32 0x4E487B7100000000000000000000000000000000000000000000000000000000 PUSH0 MSTORE PUSH1 0x41 PUSH1 0x4 MSTORE PUSH1 0x24 PUSH0 REVERT JUMPDEST PUSH2 0x6EB DUP3 PUSH2 0x6A5 JUMP JUMPDEST DUP2 ADD DUP2 DUP2 LT PUSH8 0xFFFFFFFFFFFFFFFF DUP3 GT OR ISZERO PUSH2 0x70A JUMPI PUSH2 0x709 PUSH2 0x6B5 JUMP JUMPDEST JUMPDEST DUP1 PUSH1 0x40 MSTORE POP POP POP JUMP JUMPDEST PUSH0 PUSH2 0x71C PUSH2 0x68C JUMP JUMPDEST SWAP1 POP PUSH2 0x728 DUP3 DUP3 PUSH2 0x6E2 JUMP JUMPDEST SWAP2 SWAP1 POP JUMP JUMPDEST PUSH0 PUSH8 0xFFFFFFFFFFFFFFFF DUP3 GT ISZERO PUSH2 0x747 JUMPI PUSH2 0x746 PUSH2 0x6B5 JUMP JUMPDEST JUMPDEST PUSH2 0x750 DUP3 PUSH2 0x6A5 JUMP JUMPDEST SWAP1 POP PUSH1 0x20 DUP2 ADD SWAP1 POP SWAP2 SWAP1 POP JUMP JUMPDEST DUP3 DUP2 DUP4 MCOPY PUSH0 DUP4 DUP4 ADD MSTORE POP POP POP JUMP JUMPDEST PUSH0 PUSH2 0x77D PUSH2 0x778 DUP5 PUSH2 0x72D JUMP JUMPDEST PUSH2 0x713 JUMP JUMPDEST SWAP1 POP DUP3 DUP2 MSTORE PUSH1 0x20 DUP2 ADD DUP5 DUP5 DUP5 ADD GT ISZERO PUSH2 0x799 JUMPI PUSH2 0x798 PUSH2 0x6A1 JUMP JUMPDEST JUMPDEST PUSH2 0x7A4 DUP5 DUP3 DUP6 PUSH2 0x75D JUMP JUMPDEST POP SWAP4 SWAP3 POP POP POP JUMP JUMPDEST PUSH0 DUP3 PUSH1 0x1F DUP4 ADD SLT PUSH2 0x7C0 JUMPI PUSH2 0x7BF PUSH2 0x69D JUMP JUMPDEST JUMPDEST DUP2 MLOAD PUSH2 0x7D0 DUP5 DUP3 PUSH1 0x20 DUP7 ADD PUSH2 0x76B JUMP JUMPDEST SWAP2 POP POP SWAP3 SWAP2 POP POP JUMP JUMPDEST PUSH0 PUSH8 0xFFFFFFFFFFFFFFFF DUP3 GT ISZERO PUSH2 0x7F3 JUMPI PUSH2 0x7F2 PUSH2 0x6B5 JUMP JUMPDEST JUMPDEST PUSH1 0x20 DUP3 MUL SWAP1 POP PUSH1 0x20 DUP2 ADD SWAP1 POP SWAP2 SWAP1 POP JUMP JUMPDEST PUSH0 PUSH0 REVERT JUMPDEST PUSH0 PUSH20 0xFFFFFFFFFFFFFFFFFFFFFFFFFFFFFFFFFFFFFFFF DUP3 AND SWAP1 POP SWAP2 SWAP1 POP JUMP JUMPDEST PUSH0 PUSH2 0x831 DUP3 PUSH2 0x808 JUMP JUMPDEST SWAP1 POP SWAP2 SWAP1 POP JUMP JUMPDEST PUSH2 0x841 DUP2 PUSH2 0x827 JUMP JUMPDEST DUP2 EQ PUSH2 0x84B JUMPI PUSH0 PUSH0 REVERT JUMPDEST POP JUMP JUMPDEST PUSH0 DUP2 MLOAD SWAP1 POP PUSH2 0x85C DUP2 PUSH2 0x838 JUMP JUMPDEST SWAP3 SWAP2 POP POP JUMP JUMPDEST PUSH0 PUSH2 0x874 PUSH2 0x86F DUP5 PUSH2 0x7D9 JUMP JUMPDEST PUSH2 0x713 JUMP JUMPDEST SWAP1 POP DUP1 DUP4 DUP3 MSTORE PUSH1 0x20 DUP3 ADD SWAP1 POP PUSH1 0x20 DUP5 MUL DUP4 ADD DUP6 DUP2 GT ISZERO PUSH2 0x897 JUMPI PUSH2 0x896 PUSH2 0x804 JUMP JUMPDEST JUMPDEST DUP4 JUMPDEST DUP2 DUP2 LT ISZERO PUSH2 0x8C0 JUMPI DUP1 PUSH2 0x8AC DUP9 DUP3 PUSH2 0x84E JUMP JUMPDEST DUP5 MSTORE PUSH1 0x20 DUP5 ADD SWAP4 POP POP PUSH1 0x20 DUP2 ADD SWAP1 POP PUSH2 0x899 JUMP JUMPDEST POP POP POP SWAP4 SWAP3 POP POP POP JUMP JUMPDEST PUSH0 DUP3 PUSH1 0x1F DUP4 ADD SLT PUSH2 0x8DE JUMPI PUSH2 0x8DD PUSH2 0x69D JUMP JUMPDEST JUMPDEST DUP2 MLOAD PUSH2 0x8EE DUP5 DUP3 PUSH1 0x20 DUP7 ADD PUSH2 0x862 JUMP JUMPDEST SWAP2 POP POP SWAP3 SWAP2 POP POP JUMP JUMPDEST PUSH0 PUSH0 PUSH0 PUSH1 0x60 DUP5 DUP7 SUB SLT ISZERO PUSH2 0x90E JUMPI PUSH2 0x90D PUSH2 0x695 JUMP JUMPDEST JUMPDEST PUSH0 DUP5 ADD MLOAD PUSH8 0xFFFFFFFFFFFFFFFF DUP2 GT ISZERO PUSH2 0x92B JUMPI PUSH2 0x92A PUSH2 0x699 JUMP JUMPDEST JUMPDEST PUSH2 0x937 DUP7 DUP3 DUP8 ADD PUSH2 0x7AC JUMP JUMPDEST SWAP4 POP POP PUSH1 0x20 DUP5 ADD MLOAD PUSH8 0xFFFFFFFFFFFFFFFF DUP2 GT ISZERO PUSH2 0x958 JUMPI PUSH2 0x957 PUSH2 0x699 JUMP JUMPDEST JUMPDEST PUSH2 0x964 DUP7 DUP3 DUP8 ADD PUSH2 0x8CA JUMP JUMPDEST SWAP3 POP POP PUSH1 0x40 DUP5 ADD MLOAD PUSH8 0xFFFFFFFFFFFFFFFF DUP2 GT ISZERO PUSH2 0x985 JUMPI PUSH2 0x984 PUSH2 0x699 JUMP JUMPDEST JUMPDEST PUSH2 0x991 DUP7 DUP3 DUP8 ADD PUSH2 0x8CA JUMP JUMPDEST SWAP2 POP POP SWAP3 POP SWAP3 POP SWAP3 JUMP JUMPDEST PUSH0 DUP2 MLOAD SWAP1 POP SWAP2 SWAP1 POP JUMP JUMPDEST PUSH32 0x4E487B7100000000000000000000000000000000000000000000000000000000 PUSH0 MSTORE PUSH1 0x22 PUSH1 0x4 MSTORE PUSH1 0x24 PUSH0 REVERT JUMPDEST PUSH0 PUSH1 0x2 DUP3 DIV SWAP1 POP PUSH1 0x1 DUP3 AND DUP1 PUSH2 0x9E9 JUMPI PUSH1 0x7F DUP3 AND SWAP2 POP JUMPDEST PUSH1 0x20 DUP3 LT DUP2 SUB PUSH2 0x9FC JUMPI PUSH2 0x9FB PUSH2 0x9A5 JUMP JUMPDEST JUMPDEST POP SWAP2 SWAP1 POP JUMP JUMPDEST PUSH0 DUP2 SWAP1 POP DUP2 PUSH0 MSTORE PUSH1 0x20 PUSH0 KECCAK256 SWAP1 POP SWAP2 SWAP1 POP JUMP JUMPDEST PUSH0 PUSH1 0x20 PUSH1 0x1F DUP4 ADD DIV SWAP1 POP SWAP2 SWAP1 POP JUMP JUMPDEST PUSH0 DUP3 DUP3 SHL SWAP1 POP SWAP3 SWAP2 POP POP JUMP JUMPDEST PUSH0 PUSH1 0x8 DUP4 MUL PUSH2 0xA5E PUSH32 0xFFFFFFFFFFFFFFFFFFFFFFFFFFFFFFFFFFFFFFFFFFFFFFFFFFFFFFFFFFFFFFFF DUP3 PUSH2 0xA23 JUMP JUMPDEST PUSH2 0xA68 DUP7 DUP4 PUSH2 0xA23 JUMP JUMPDEST SWAP6 POP DUP1 NOT DUP5 AND SWAP4 POP DUP1 DUP7 AND DUP5 OR SWAP3 POP POP POP SWAP4 SWAP3 POP POP POP JUMP JUMPDEST PUSH0 DUP2 SWAP1 POP SWAP2 SWAP1 POP JUMP JUMPDEST PUSH0 DUP2 SWAP1 POP SWAP2 SWAP1 POP JUMP JUMPDEST PUSH0 PUSH2 0xAAC PUSH2 0xAA7 PUSH2 0xAA2 DUP5 PUSH2 0xA80 JUMP JUMPDEST PUSH2 0xA89 JUMP JUMPDEST PUSH2 0xA80 JUMP JUMPDEST SWAP1 POP SWAP2 SWAP1 POP JUMP JUMPDEST PUSH0 DUP2 SWAP1 POP SWAP2 SWAP1 POP JUMP JUMPDEST PUSH2 0xAC5 DUP4 PUSH2 0xA92 JUMP JUMPDEST PUSH2 0xAD9 PUSH2 0xAD1 DUP3 PUSH2 0xAB3 JUMP JUMPDEST DUP5 DUP5 SLOAD PUSH2 0xA2F JUMP JUMPDEST DUP3 SSTORE POP POP POP POP JUMP JUMPDEST PUSH0 PUSH0 SWAP1 POP SWAP1 JUMP JUMPDEST PUSH2 0xAF0 PUSH2 0xAE1 JUMP JUMPDEST PUSH2 0xAFB DUP2 DUP5 DUP5 PUSH2 0xABC JUMP JUMPDEST POP POP POP JUMP JUMPDEST JUMPDEST DUP2 DUP2 LT ISZERO PUSH2 0xB1E JUMPI PUSH2 0xB13 PUSH0 DUP3 PUSH2 0xAE8 JUMP JUMPDEST PUSH1 0x1 DUP2 ADD SWAP1 POP PUSH2 0xB01 JUMP JUMPDEST POP POP JUMP JUMPDEST PUSH1 0x1F DUP3 GT ISZERO PUSH2 0xB63 JUMPI PUSH2 0xB34 DUP2 PUSH2 0xA02 JUMP JUMPDEST PUSH2 0xB3D DUP5 PUSH2 0xA14 JUMP JUMPDEST DUP2 ADD PUSH1 0x20 DUP6 LT ISZERO PUSH2 0xB4C JUMPI DUP2 SWAP1 POP JUMPDEST PUSH2 0xB60 PUSH2 0xB58 DUP6 PUSH2 0xA14 JUMP JUMPDEST DUP4 ADD DUP3 PUSH2 0xB00 JUMP JUMPDEST POP POP JUMPDEST POP POP POP JUMP JUMPDEST PUSH0 DUP3 DUP3 SHR SWAP1 POP SWAP3 SWAP2 POP POP JUMP JUMPDEST PUSH0 PUSH2 0xB83 PUSH0 NOT DUP5 PUSH1 0x8 MUL PUSH2 0xB68 JUMP JUMPDEST NOT DUP1 DUP4 AND SWAP2 POP POP SWAP3 SWAP2 POP POP JUMP JUMPDEST PUSH0 PUSH2 0xB9B DUP4 DUP4 PUSH2 0xB74 JUMP JUMPDEST SWAP2 POP DUP3 PUSH1 0x2 MUL DUP3 OR SWAP1 POP SWAP3 SWAP2 POP POP JUMP JUMPDEST PUSH2 0xBB4 DUP3 PUSH2 0x99B JUMP JUMPDEST PUSH8 0xFFFFFFFFFFFFFFFF DUP2 GT ISZERO PUSH2 0xBCD JUMPI PUSH2 0xBCC PUSH2 0x6B5 JUMP JUMPDEST JUMPDEST PUSH2 0xBD7 DUP3 SLOAD PUSH2 0x9D2 JUMP JUMPDEST PUSH2 0xBE2 DUP3 DUP3 DUP6 PUSH2 0xB22 JUMP JUMPDEST PUSH0 PUSH1 0x20 SWAP1 POP PUSH1 0x1F DUP4 GT PUSH1 0x1 DUP2 EQ PUSH2 0xC13 JUMPI PUSH0 DUP5 ISZERO PUSH2 0xC01 JUMPI DUP3 DUP8 ADD MLOAD SWAP1 POP JUMPDEST PUSH2 0xC0B DUP6 DUP3 PUSH2 0xB90 JUMP JUMPDEST DUP7 SSTORE POP PUSH2 0xC72 JUMP JUMPDEST PUSH1 0x1F NOT DUP5 AND PUSH2 0xC21 DUP7 PUSH2 0xA02 JUMP JUMPDEST PUSH0 JUMPDEST DUP3 DUP2 LT ISZERO PUSH2 0xC48 JUMPI DUP5 DUP10 ADD MLOAD DUP3 SSTORE PUSH1 0x1 DUP3 ADD SWAP2 POP PUSH1 0x20 DUP6 ADD SWAP5 POP PUSH1 0x20 DUP2 ADD SWAP1 POP PUSH2 0xC23 JUMP JUMPDEST DUP7 DUP4 LT ISZERO PUSH2 0xC65 JUMPI DUP5 DUP10 ADD MLOAD PUSH2 0xC61 PUSH1 0x1F DUP10 AND DUP3 PUSH2 0xB74 JUMP JUMPDEST DUP4 SSTORE POP JUMPDEST PUSH1 0x1 PUSH1 0x2 DUP9 MUL ADD DUP9 SSTORE POP POP POP JUMPDEST POP POP POP POP POP POP JUMP JUMPDEST PUSH2 0xC83 DUP2 PUSH2 0x827 JUMP JUMPDEST DUP3 MSTORE POP POP JUMP JUMPDEST PUSH0 PUSH1 0x20 DUP3 ADD SWAP1 POP PUSH2 0xC9C PUSH0 DUP4 ADD DUP5 PUSH2 0xC7A JUMP JUMPDEST SWAP3 SWAP2 POP POP JUMP JUMPDEST PUSH0 DUP3 DUP3 MSTORE PUSH1 0x20 DUP3 ADD SWAP1 POP SWAP3 SWAP2 POP POP JUMP JUMPDEST PUSH32 0x4174206C65617374206F6E652077686974656C69737465642061646472657373 PUSH0 DUP3 ADD MSTORE PUSH32 0x2072657175697265640000000000000000000000000000000000000000000000 PUSH1 0x20 DUP3 ADD MSTORE POP JUMP JUMPDEST PUSH0 PUSH2 0xD0C PUSH1 0x29 DUP4 PUSH2 0xCA2 JUMP JUMPDEST SWAP2 POP PUSH2 0xD17 DUP3 PUSH2 0xCB2 JUMP JUMPDEST PUSH1 0x40 DUP3 ADD SWAP1 POP SWAP2 SWAP1 POP JUMP JUMPDEST PUSH0 PUSH1 0x20 DUP3 ADD SWAP1 POP DUP2 DUP2 SUB PUSH0 DUP4 ADD MSTORE PUSH2 0xD39 DUP2 PUSH2 0xD00 JUMP JUMPDEST SWAP1 POP SWAP2 SWAP1 POP JUMP JUMPDEST PUSH32 0x4174206C65617374206F6E6520766F7465722072657175697265640000000000 PUSH0 DUP3 ADD MSTORE POP JUMP JUMPDEST PUSH0 PUSH2 0xD74 PUSH1 0x1B DUP4 PUSH2 0xCA2 JUMP JUMPDEST SWAP2 POP PUSH2 0xD7F DUP3 PUSH2 0xD40 JUMP JUMPDEST PUSH1 0x20 DUP3 ADD SWAP1 POP SWAP2 SWAP1 POP JUMP JUMPDEST PUSH0 PUSH1 0x20 DUP3 ADD SWAP1 POP DUP2 DUP2 SUB PUSH0 DUP4 ADD MSTORE PUSH2 0xDA1 DUP2 PUSH2 0xD68 JUMP JUMPDEST SWAP1 POP SWAP2 SWAP1 POP JUMP JUMPDEST PUSH32 0x496E697469616C697A696E672077686974656C69737400000000000000000000 PUSH0 DUP3 ADD MSTORE POP JUMP JUMPDEST PUSH0 PUSH2 0xDDC PUSH1 0x16 DUP4 PUSH2 0xCA2 JUMP JUMPDEST SWAP2 POP PUSH2 0xDE7 DUP3 PUSH2 0xDA8 JUMP JUMPDEST PUSH1 0x20 DUP3 ADD SWAP1 POP SWAP2 SWAP1 POP JUMP JUMPDEST PUSH2 0xDFB DUP2 PUSH2 0xA80 JUMP JUMPDEST DUP3 MSTORE POP POP JUMP JUMPDEST PUSH0 PUSH1 0x40 DUP3 ADD SWAP1 POP DUP2 DUP2 SUB PUSH0 DUP4 ADD MSTORE PUSH2 0xE18 DUP2 PUSH2 0xDD0 JUMP JUMPDEST SWAP1 POP PUSH2 0xE27 PUSH1 0x20 DUP4 ADD DUP5 PUSH2 0xDF2 JUMP JUMPDEST SWAP3 SWAP2 POP POP JUMP JUMPDEST PUSH32 0x4E487B7100000000000000000000000000000000000000000000000000000000 PUSH0 MSTORE PUSH1 0x32 PUSH1 0x4 MSTORE PUSH1 0x24 PUSH0 REVERT JUMPDEST PUSH32 0x496E76616C69642077686974656C697374206164647265737300000000000000 PUSH0 DUP3 ADD MSTORE POP JUMP JUMPDEST PUSH0 PUSH2 0xE8E PUSH1 0x19 DUP4 PUSH2 0xCA2 JUMP JUMPDEST SWAP2 POP PUSH2 0xE99 DUP3 PUSH2 0xE5A JUMP JUMPDEST PUSH1 0x20 DUP3 ADD SWAP1 POP SWAP2 SWAP1 POP JUMP JUMPDEST PUSH0 PUSH1 0x20 DUP3 ADD SWAP1 POP DUP2 DUP2 SUB PUSH0 DUP4 ADD MSTORE PUSH2 0xEBB DUP2 PUSH2 0xE82 JUMP JUMPDEST SWAP1 POP SWAP2 SWAP1 POP JUMP JUMPDEST PUSH32 0x496E697469616C697A696E6720766F7465727300000000000000000000000000 PUSH0 DUP3 ADD MSTORE POP JUMP JUMPDEST PUSH0 PUSH2 0xEF6 PUSH1 0x13 DUP4 PUSH2 0xCA2 JUMP JUMPDEST SWAP2 POP PUSH2 0xF01 DUP3 PUSH2 0xEC2 JUMP JUMPDEST PUSH1 0x20 DUP3 ADD SWAP1 POP SWAP2 SWAP1 POP JUMP JUMPDEST PUSH0 PUSH1 0x40 DUP3 ADD SWAP1 POP DUP2 DUP2 SUB PUSH0 DUP4 ADD MSTORE PUSH2 0xF23 DUP2 PUSH2 0xEEA JUMP JUMPDEST SWAP1 POP PUSH2 0xF32 PUSH1 0x20 DUP4 ADD DUP5 PUSH2 0xDF2 JUMP JUMPDEST SWAP3 SWAP2 POP POP JUMP JUMPDEST PUSH32 0x496E76616C696420766F74657220616464726573730000000000000000000000 PUSH0 DUP3 ADD MSTORE POP JUMP JUMPDEST PUSH0 PUSH2 0xF6C PUSH1 0x15 DUP4 PUSH2 0xCA2 JUMP JUMPDEST SWAP2 POP PUSH2 0xF77 DUP3 PUSH2 0xF38 JUMP JUMPDEST PUSH1 0x20 DUP3 ADD SWAP1 POP SWAP2 SWAP1 POP JUMP JUMPDEST PUSH0 PUSH1 0x20 DUP3 ADD SWAP1 POP DUP2 DUP2 SUB PUSH0 DUP4 ADD MSTORE PUSH2 0xF99 DUP2 PUSH2 0xF60 JUMP JUMPDEST SWAP1 POP SWAP2 SWAP1 POP JUMP JUMPDEST PUSH32 0x436F6E7374727563746F7220636F6D706C657465640000000000000000000000 PUSH0 DUP3 ADD MSTORE POP JUMP JUMPDEST PUSH0 PUSH2 0xFD4 PUSH1 0x15 DUP4 PUSH2 0xCA2 JUMP JUMPDEST SWAP2 POP PUSH2 0xFDF DUP3 PUSH2 0xFA0 JUMP JUMPDEST PUSH1 0x20 DUP3 ADD SWAP1 POP SWAP2 SWAP1 POP JUMP JUMPDEST PUSH0 DUP2 SWAP1 POP SWAP2 SWAP1 POP JUMP JUMPDEST PUSH0 PUSH2 0x100D PUSH2 0x1008 PUSH2 0x1003 DUP5 PUSH2 0xFEA JUMP JUMPDEST PUSH2 0xA89 JUMP JUMPDEST PUSH2 0xA80 JUMP JUMPDEST SWAP1 POP SWAP2 SWAP1 POP JUMP JUMPDEST PUSH2 0x101D DUP2 PUSH2 0xFF3 JUMP JUMPDEST DUP3 MSTORE POP POP JUMP JUMPDEST PUSH0 PUSH1 0x40 DUP3 ADD SWAP1 POP DUP2 DUP2 SUB PUSH0 DUP4 ADD MSTORE PUSH2 0x103A DUP2 PUSH2 0xFC8 JUMP JUMPDEST SWAP1 POP PUSH2 0x1049 PUSH1 0x20 DUP4 ADD DUP5 PUSH2 0x1014 JUMP JUMPDEST SWAP3 SWAP2 POP POP JUMP JUMPDEST PUSH2 0x9DCE DUP1 PUSH2 0x105C PUSH0 CODECOPY PUSH0 RETURN INVALID PUSH1 0x80 PUSH1 0x40 MSTORE CALLVALUE DUP1 ISZERO PUSH2 0xF JUMPI PUSH0 PUSH0 REVERT JUMPDEST POP PUSH1 0x4 CALLDATASIZE LT PUSH2 0x489 JUMPI PUSH0 CALLDATALOAD PUSH1 0xE0 SHR DUP1 PUSH4 0x60B8594D GT PUSH2 0x260 JUMPI DUP1 PUSH4 0xA9059CBB GT PUSH2 0x14F JUMPI DUP1 PUSH4 0xD9A7430E GT PUSH2 0xCC JUMPI DUP1 PUSH4 0xEB91D37E GT PUSH2 0x90 JUMPI DUP1 PUSH4 0xEB91D37E EQ PUSH2 0xD3B JUMPI DUP1 PUSH4 0xEEB79D40 EQ PUSH2 0xD59 JUMPI DUP1 PUSH4 0xF2FDE38B EQ PUSH2 0xD63 JUMPI DUP1 PUSH4 0xF36E32CC EQ PUSH2 0xD7F JUMPI DUP1 PUSH4 0xF3CDCD1E EQ PUSH2 0xD9D JUMPI DUP1 PUSH4 0xFF8F164F EQ PUSH2 0xDA7 JUMPI PUSH2 0x489 JUMP JUMPDEST DUP1 PUSH4 0xD9A7430E EQ PUSH2 0xC83 JUMPI DUP1 PUSH4 0xDA0239A6 EQ PUSH2 0xC8D JUMPI DUP1 PUSH4 0xDA58C7D9 EQ PUSH2 0xCAB JUMPI DUP1 PUSH4 0xDD62ED3E EQ PUSH2 0xCDB JUMPI DUP1 PUSH4 0xE5839836 EQ PUSH2 0xD0B JUMPI PUSH2 0x489 JUMP JUMPDEST DUP1 PUSH4 0xBDD3D825 GT PUSH2 0x113 JUMPI DUP1 PUSH4 0xBDD3D825 EQ PUSH2 0xBEF JUMPI DUP1 PUSH4 0xC20A25B5 EQ PUSH2 0xC0D JUMPI DUP1 PUSH4 0xC4BC5DA5 EQ PUSH2 0xC2B JUMPI DUP1 PUSH4 0xC6384071 EQ PUSH2 0xC35 JUMPI DUP1 PUSH4 0xD0516650 EQ PUSH2 0xC53 JUMPI PUSH2 0x489 JUMP JUMPDEST DUP1 PUSH4 0xA9059CBB EQ PUSH2 0xB5B JUMPI DUP1 PUSH4 0xABA63705 EQ PUSH2 0xB8B JUMPI DUP1 PUSH4 0xAE3877E0 EQ PUSH2 0xBA9 JUMPI DUP1 PUSH4 0xAE66C9EA EQ PUSH2 0xBC7 JUMPI DUP1 PUSH4 0xB0A9F28D EQ PUSH2 0xBE5 JUMPI PUSH2 0x489 JUMP JUMPDEST DUP1 PUSH4 0x850AE8A3 GT PUSH2 0x1DD JUMPI DUP1 PUSH4 0x902D55A5 GT PUSH2 0x1A1 JUMPI DUP1 PUSH4 0x902D55A5 EQ PUSH2 0xAC7 JUMPI DUP1 PUSH4 0x9070577F EQ PUSH2 0xAE5 JUMPI DUP1 PUSH4 0x95D89B41 EQ PUSH2 0xAEF JUMPI DUP1 PUSH4 0x96F66144 EQ PUSH2 0xB0D JUMPI DUP1 PUSH4 0x9B19251A EQ PUSH2 0xB2B JUMPI PUSH2 0x489 JUMP JUMPDEST DUP1 PUSH4 0x850AE8A3 EQ PUSH2 0xA0D JUMPI DUP1 PUSH4 0x884FA57B EQ PUSH2 0xA3D JUMPI DUP1 PUSH4 0x8A67456A EQ PUSH2 0xA6D JUMPI DUP1 PUSH4 0x8CDEEFBD EQ PUSH2 0xA8B JUMPI DUP1 PUSH4 0x8DA5CB5B EQ PUSH2 0xAA9 JUMPI PUSH2 0x489 JUMP JUMPDEST DUP1 PUSH4 0x7094741D GT PUSH2 0x224 JUMPI DUP1 PUSH4 0x7094741D EQ PUSH2 0x9B5 JUMPI DUP1 PUSH4 0x70A08231 EQ PUSH2 0x9BF JUMPI DUP1 PUSH4 0x715018A6 EQ PUSH2 0x9EF JUMPI DUP1 PUSH4 0x7AFDF93E EQ PUSH2 0x9F9 JUMPI DUP1 PUSH4 0x80E79A36 EQ PUSH2 0xA03 JUMPI PUSH2 0x489 JUMP JUMPDEST DUP1 PUSH4 0x60B8594D EQ PUSH2 0x935 JUMPI DUP1 PUSH4 0x6290865D EQ PUSH2 0x951 JUMPI DUP1 PUSH4 0x632A9A52 EQ PUSH2 0x96F JUMPI DUP1 PUSH4 0x697199C5 EQ PUSH2 0x979 JUMPI DUP1 PUSH4 0x6C02A931 EQ PUSH2 0x997 JUMPI PUSH2 0x489 JUMP JUMPDEST DUP1 PUSH4 0x313CE567 GT PUSH2 0x37C JUMPI DUP1 PUSH4 0x4BB91587 GT PUSH2 0x2F9 JUMPI DUP1 PUSH4 0x58105210 GT PUSH2 0x2BD JUMPI DUP1 PUSH4 0x58105210 EQ PUSH2 0x8A3 JUMPI DUP1 PUSH4 0x583007BD EQ PUSH2 0x8BF JUMPI DUP1 PUSH4 0x5AA15E6B EQ PUSH2 0x8DD JUMPI DUP1 PUSH4 0x5C975ABB EQ PUSH2 0x8FB JUMPI DUP1 PUSH4 0x5FC6E6E6 EQ PUSH2 0x919 JUMPI PUSH2 0x489 JUMP JUMPDEST DUP1 PUSH4 0x4BB91587 EQ PUSH2 0x823 JUMPI DUP1 PUSH4 0x4BC27B3C EQ PUSH2 0x83F JUMPI DUP1 PUSH4 0x501D6B57 EQ PUSH2 0x85D JUMPI DUP1 PUSH4 0x53030455 EQ PUSH2 0x87B JUMPI DUP1 PUSH4 0x54FD4D50 EQ PUSH2 0x885 JUMPI PUSH2 0x489 JUMP JUMPDEST DUP1 PUSH4 0x3F99075B GT PUSH2 0x340 JUMPI DUP1 PUSH4 0x3F99075B EQ PUSH2 0x7CB JUMPI DUP1 PUSH4 0x439766CE EQ PUSH2 0x7E7 JUMPI DUP1 PUSH4 0x45F4D2A5 EQ PUSH2 0x7F1 JUMPI DUP1 PUSH4 0x4784BBED EQ PUSH2 0x7FB JUMPI DUP1 PUSH4 0x48A33082 EQ PUSH2 0x805 JUMPI PUSH2 0x489 JUMP JUMPDEST DUP1 PUSH4 0x313CE567 EQ PUSH2 0x74B JUMPI DUP1 PUSH4 0x351D9F96 EQ PUSH2 0x769 JUMPI DUP1 PUSH4 0x37D428EB EQ PUSH2 0x787 JUMPI DUP1 PUSH4 0x3C9EDEB2 EQ PUSH2 0x7A3 JUMPI DUP1 PUSH4 0x3CF37361 EQ PUSH2 0x7AD JUMPI PUSH2 0x489 JUMP JUMPDEST DUP1 PUSH4 0x158B1A57 GT PUSH2 0x40A JUMPI DUP1 PUSH4 0x2202CBFA GT PUSH2 0x3CE JUMPI DUP1 PUSH4 0x2202CBFA EQ PUSH2 0x691 JUMPI DUP1 PUSH4 0x23B872DD EQ PUSH2 0x6C1 JUMPI DUP1 PUSH4 0x2D380242 EQ PUSH2 0x6F1 JUMPI DUP1 PUSH4 0x2DE56555 EQ PUSH2 0x70F JUMPI DUP1 PUSH4 0x302C464A EQ PUSH2 0x72D JUMPI PUSH2 0x489 JUMP JUMPDEST DUP1 PUSH4 0x158B1A57 EQ PUSH2 0x5ED JUMPI DUP1 PUSH4 0x15D4C5D5 EQ PUSH2 0x61D JUMPI DUP1 PUSH4 0x18160DDD EQ PUSH2 0x639 JUMPI DUP1 PUSH4 0x19A5ECD5 EQ PUSH2 0x657 JUMPI DUP1 PUSH4 0x20950933 EQ PUSH2 0x673 JUMPI PUSH2 0x489 JUMP JUMPDEST DUP1 PUSH4 0x9EEF43E GT PUSH2 0x451 JUMPI DUP1 PUSH4 0x9EEF43E EQ PUSH2 0x535 JUMPI DUP1 PUSH4 0xFE2ABCF EQ PUSH2 0x565 JUMPI DUP1 PUSH4 0x12CAE7AF EQ PUSH2 0x581 JUMPI DUP1 PUSH4 0x134E18F4 EQ PUSH2 0x5B1 JUMPI DUP1 PUSH4 0x14A8BD0D EQ PUSH2 0x5CF JUMPI PUSH2 0x489 JUMP JUMPDEST DUP1 PUSH4 0x6854B2C EQ PUSH2 0x48D JUMPI DUP1 PUSH4 0x6FDDE03 EQ PUSH2 0x4AB JUMPI DUP1 PUSH4 0x811A0CF EQ PUSH2 0x4C9 JUMPI DUP1 PUSH4 0x8B26B75 EQ PUSH2 0x4E7 JUMPI DUP1 PUSH4 0x95EA7B3 EQ PUSH2 0x505 JUMPI JUMPDEST PUSH0 PUSH0 REVERT JUMPDEST PUSH2 0x495 PUSH2 0xDC5 JUMP JUMPDEST PUSH1 0x40 MLOAD PUSH2 0x4A2 SWAP2 SWAP1 PUSH2 0x731C JUMP JUMPDEST PUSH1 0x40 MLOAD DUP1 SWAP2 SUB SWAP1 RETURN JUMPDEST PUSH2 0x4B3 PUSH2 0xE51 JUMP JUMPDEST PUSH1 0x40 MLOAD PUSH2 0x4C0 SWAP2 SWAP1 PUSH2 0x731C JUMP JUMPDEST PUSH1 0x40 MLOAD DUP1 SWAP2 SUB SWAP1 RETURN JUMPDEST PUSH2 0x4D1 PUSH2 0xEE1 JUMP JUMPDEST PUSH1 0x40 MLOAD PUSH2 0x4DE SWAP2 SWAP1 PUSH2 0x7354 JUMP JUMPDEST PUSH1 0x40 MLOAD DUP1 SWAP2 SUB SWAP1 RETURN JUMPDEST PUSH2 0x4EF PUSH2 0xEE7 JUMP JUMPDEST PUSH1 0x40 MLOAD PUSH2 0x4FC SWAP2 SWAP1 PUSH2 0x7354 JUMP JUMPDEST PUSH1 0x40 MLOAD DUP1 SWAP2 SUB SWAP1 RETURN JUMPDEST PUSH2 0x51F PUSH1 0x4 DUP1 CALLDATASIZE SUB DUP2 ADD SWAP1 PUSH2 0x51A SWAP2 SWAP1 PUSH2 0x7402 JUMP JUMPDEST PUSH2 0xEED JUMP JUMPDEST PUSH1 0x40 MLOAD PUSH2 0x52C SWAP2 SWAP1 PUSH2 0x745A JUMP JUMPDEST PUSH1 0x40 MLOAD DUP1 SWAP2 SUB SWAP1 RETURN JUMPDEST PUSH2 0x54F PUSH1 0x4 DUP1 CALLDATASIZE SUB DUP2 ADD SWAP1 PUSH2 0x54A SWAP2 SWAP1 PUSH2 0x7473 JUMP JUMPDEST PUSH2 0xF0F JUMP JUMPDEST PUSH1 0x40 MLOAD PUSH2 0x55C SWAP2 SWAP1 PUSH2 0x745A JUMP JUMPDEST PUSH1 0x40 MLOAD DUP1 SWAP2 SUB SWAP1 RETURN JUMPDEST PUSH2 0x57F PUSH1 0x4 DUP1 CALLDATASIZE SUB DUP2 ADD SWAP1 PUSH2 0x57A SWAP2 SWAP1 PUSH2 0x749E JUMP JUMPDEST PUSH2 0xF2C JUMP JUMPDEST STOP JUMPDEST PUSH2 0x59B PUSH1 0x4 DUP1 CALLDATASIZE SUB DUP2 ADD SWAP1 PUSH2 0x596 SWAP2 SWAP1 PUSH2 0x7473 JUMP JUMPDEST PUSH2 0x11C2 JUMP JUMPDEST PUSH1 0x40 MLOAD PUSH2 0x5A8 SWAP2 SWAP1 PUSH2 0x7354 JUMP JUMPDEST PUSH1 0x40 MLOAD DUP1 SWAP2 SUB SWAP1 RETURN JUMPDEST PUSH2 0x5B9 PUSH2 0x11D3 JUMP JUMPDEST PUSH1 0x40 MLOAD PUSH2 0x5C6 SWAP2 SWAP1 PUSH2 0x74EB JUMP JUMPDEST PUSH1 0x40 MLOAD DUP1 SWAP2 SUB SWAP1 RETURN JUMPDEST PUSH2 0x5D7 PUSH2 0x11DA JUMP JUMPDEST PUSH1 0x40 MLOAD PUSH2 0x5E4 SWAP2 SWAP1 PUSH2 0x7354 JUMP JUMPDEST PUSH1 0x40 MLOAD DUP1 SWAP2 SUB SWAP1 RETURN JUMPDEST PUSH2 0x607 PUSH1 0x4 DUP1 CALLDATASIZE SUB DUP2 ADD SWAP1 PUSH2 0x602 SWAP2 SWAP1 PUSH2 0x7473 JUMP JUMPDEST PUSH2 0x11DF JUMP JUMPDEST PUSH1 0x40 MLOAD PUSH2 0x614 SWAP2 SWAP1 PUSH2 0x7354 JUMP JUMPDEST PUSH1 0x40 MLOAD DUP1 SWAP2 SUB SWAP1 RETURN JUMPDEST PUSH2 0x637 PUSH1 0x4 DUP1 CALLDATASIZE SUB DUP2 ADD SWAP1 PUSH2 0x632 SWAP2 SWAP1 PUSH2 0x7402 JUMP JUMPDEST PUSH2 0x11E8 JUMP JUMPDEST STOP JUMPDEST PUSH2 0x641 PUSH2 0x154C JUMP JUMPDEST PUSH1 0x40 MLOAD PUSH2 0x64E SWAP2 SWAP1 PUSH2 0x7354 JUMP JUMPDEST PUSH1 0x40 MLOAD DUP1 SWAP2 SUB SWAP1 RETURN JUMPDEST PUSH2 0x671 PUSH1 0x4 DUP1 CALLDATASIZE SUB DUP2 ADD SWAP1 PUSH2 0x66C SWAP2 SWAP1 PUSH2 0x7473 JUMP JUMPDEST PUSH2 0x1555 JUMP JUMPDEST STOP JUMPDEST PUSH2 0x67B PUSH2 0x17F2 JUMP JUMPDEST PUSH1 0x40 MLOAD PUSH2 0x688 SWAP2 SWAP1 PUSH2 0x7354 JUMP JUMPDEST PUSH1 0x40 MLOAD DUP1 SWAP2 SUB SWAP1 RETURN JUMPDEST PUSH2 0x6AB PUSH1 0x4 DUP1 CALLDATASIZE SUB DUP2 ADD SWAP1 PUSH2 0x6A6 SWAP2 SWAP1 PUSH2 0x7504 JUMP JUMPDEST PUSH2 0x17F8 JUMP JUMPDEST PUSH1 0x40 MLOAD PUSH2 0x6B8 SWAP2 SWAP1 PUSH2 0x74EB JUMP JUMPDEST PUSH1 0x40 MLOAD DUP1 SWAP2 SUB SWAP1 RETURN JUMPDEST PUSH2 0x6DB PUSH1 0x4 DUP1 CALLDATASIZE SUB DUP2 ADD SWAP1 PUSH2 0x6D6 SWAP2 SWAP1 PUSH2 0x752F JUMP JUMPDEST PUSH2 0x1833 JUMP JUMPDEST PUSH1 0x40 MLOAD PUSH2 0x6E8 SWAP2 SWAP1 PUSH2 0x745A JUMP JUMPDEST PUSH1 0x40 MLOAD DUP1 SWAP2 SUB SWAP1 RETURN JUMPDEST PUSH2 0x6F9 PUSH2 0x1976 JUMP JUMPDEST PUSH1 0x40 MLOAD PUSH2 0x706 SWAP2 SWAP1 PUSH2 0x7354 JUMP JUMPDEST PUSH1 0x40 MLOAD DUP1 SWAP2 SUB SWAP1 RETURN JUMPDEST PUSH2 0x717 PUSH2 0x197C JUMP JUMPDEST PUSH1 0x40 MLOAD PUSH2 0x724 SWAP2 SWAP1 PUSH2 0x7354 JUMP JUMPDEST PUSH1 0x40 MLOAD DUP1 SWAP2 SUB SWAP1 RETURN JUMPDEST PUSH2 0x735 PUSH2 0x1981 JUMP JUMPDEST PUSH1 0x40 MLOAD PUSH2 0x742 SWAP2 SWAP1 PUSH2 0x7354 JUMP JUMPDEST PUSH1 0x40 MLOAD DUP1 SWAP2 SUB SWAP1 RETURN JUMPDEST PUSH2 0x753 PUSH2 0x1986 JUMP JUMPDEST PUSH1 0x40 MLOAD PUSH2 0x760 SWAP2 SWAP1 PUSH2 0x759A JUMP JUMPDEST PUSH1 0x40 MLOAD DUP1 SWAP2 SUB SWAP1 RETURN JUMPDEST PUSH2 0x771 PUSH2 0x198D JUMP JUMPDEST PUSH1 0x40 MLOAD PUSH2 0x77E SWAP2 SWAP1 PUSH2 0x731C JUMP JUMPDEST PUSH1 0x40 MLOAD DUP1 SWAP2 SUB SWAP1 RETURN JUMPDEST PUSH2 0x7A1 PUSH1 0x4 DUP1 CALLDATASIZE SUB DUP2 ADD SWAP1 PUSH2 0x79C SWAP2 SWAP1 PUSH2 0x7473 JUMP JUMPDEST PUSH2 0x1A19 JUMP JUMPDEST STOP JUMPDEST PUSH2 0x7AB PUSH2 0x1D25 JUMP JUMPDEST STOP JUMPDEST PUSH2 0x7B5 PUSH2 0x2106 JUMP JUMPDEST PUSH1 0x40 MLOAD PUSH2 0x7C2 SWAP2 SWAP1 PUSH2 0x7354 JUMP JUMPDEST PUSH1 0x40 MLOAD DUP1 SWAP2 SUB SWAP1 RETURN JUMPDEST PUSH2 0x7E5 PUSH1 0x4 DUP1 CALLDATASIZE SUB DUP2 ADD SWAP1 PUSH2 0x7E0 SWAP2 SWAP1 PUSH2 0x7473 JUMP JUMPDEST PUSH2 0x210C JUMP JUMPDEST STOP JUMPDEST PUSH2 0x7EF PUSH2 0x23A9 JUMP JUMPDEST STOP JUMPDEST PUSH2 0x7F9 PUSH2 0x24DE JUMP JUMPDEST STOP JUMPDEST PUSH2 0x803 PUSH2 0x2C11 JUMP JUMPDEST STOP JUMPDEST PUSH2 0x80D PUSH2 0x2FF4 JUMP JUMPDEST PUSH1 0x40 MLOAD PUSH2 0x81A SWAP2 SWAP1 PUSH2 0x7354 JUMP JUMPDEST PUSH1 0x40 MLOAD DUP1 SWAP2 SUB SWAP1 RETURN JUMPDEST PUSH2 0x83D PUSH1 0x4 DUP1 CALLDATASIZE SUB DUP2 ADD SWAP1 PUSH2 0x838 SWAP2 SWAP1 PUSH2 0x75E9 JUMP JUMPDEST PUSH2 0x2FFA JUMP JUMPDEST STOP JUMPDEST PUSH2 0x847 PUSH2 0x32E3 JUMP JUMPDEST PUSH1 0x40 MLOAD PUSH2 0x854 SWAP2 SWAP1 PUSH2 0x731C JUMP JUMPDEST PUSH1 0x40 MLOAD DUP1 SWAP2 SUB SWAP1 RETURN JUMPDEST PUSH2 0x865 PUSH2 0x336F JUMP JUMPDEST PUSH1 0x40 MLOAD PUSH2 0x872 SWAP2 SWAP1 PUSH2 0x74EB JUMP JUMPDEST PUSH1 0x40 MLOAD DUP1 SWAP2 SUB SWAP1 RETURN JUMPDEST PUSH2 0x883 PUSH2 0x3394 JUMP JUMPDEST STOP JUMPDEST PUSH2 0x88D PUSH2 0x3913 JUMP JUMPDEST PUSH1 0x40 MLOAD PUSH2 0x89A SWAP2 SWAP1 PUSH2 0x731C JUMP JUMPDEST PUSH1 0x40 MLOAD DUP1 SWAP2 SUB SWAP1 RETURN JUMPDEST PUSH2 0x8BD PUSH1 0x4 DUP1 CALLDATASIZE SUB DUP2 ADD SWAP1 PUSH2 0x8B8 SWAP2 SWAP1 PUSH2 0x7473 JUMP JUMPDEST PUSH2 0x3950 JUMP JUMPDEST STOP JUMPDEST PUSH2 0x8C7 PUSH2 0x3C5C JUMP JUMPDEST PUSH1 0x40 MLOAD PUSH2 0x8D4 SWAP2 SWAP1 PUSH2 0x745A JUMP JUMPDEST PUSH1 0x40 MLOAD DUP1 SWAP2 SUB SWAP1 RETURN JUMPDEST PUSH2 0x8E5 PUSH2 0x3C6E JUMP JUMPDEST PUSH1 0x40 MLOAD PUSH2 0x8F2 SWAP2 SWAP1 PUSH2 0x731C JUMP JUMPDEST PUSH1 0x40 MLOAD DUP1 SWAP2 SUB SWAP1 RETURN JUMPDEST PUSH2 0x903 PUSH2 0x3CFA JUMP JUMPDEST PUSH1 0x40 MLOAD PUSH2 0x910 SWAP2 SWAP1 PUSH2 0x745A JUMP JUMPDEST PUSH1 0x40 MLOAD DUP1 SWAP2 SUB SWAP1 RETURN JUMPDEST PUSH2 0x933 PUSH1 0x4 DUP1 CALLDATASIZE SUB DUP2 ADD SWAP1 PUSH2 0x92E SWAP2 SWAP1 PUSH2 0x7754 JUMP JUMPDEST PUSH2 0x3D10 JUMP JUMPDEST STOP JUMPDEST PUSH2 0x94F PUSH1 0x4 DUP1 CALLDATASIZE SUB DUP2 ADD SWAP1 PUSH2 0x94A SWAP2 SWAP1 PUSH2 0x787A JUMP JUMPDEST PUSH2 0x41CC JUMP JUMPDEST STOP JUMPDEST PUSH2 0x959 PUSH2 0x43AD JUMP JUMPDEST PUSH1 0x40 MLOAD PUSH2 0x966 SWAP2 SWAP1 PUSH2 0x74EB JUMP JUMPDEST PUSH1 0x40 MLOAD DUP1 SWAP2 SUB SWAP1 RETURN JUMPDEST PUSH2 0x977 PUSH2 0x43B4 JUMP JUMPDEST STOP JUMPDEST PUSH2 0x981 PUSH2 0x47DF JUMP JUMPDEST PUSH1 0x40 MLOAD PUSH2 0x98E SWAP2 SWAP1 PUSH2 0x74EB JUMP JUMPDEST PUSH1 0x40 MLOAD DUP1 SWAP2 SUB SWAP1 RETURN JUMPDEST PUSH2 0x99F PUSH2 0x4804 JUMP JUMPDEST PUSH1 0x40 MLOAD PUSH2 0x9AC SWAP2 SWAP1 PUSH2 0x731C JUMP JUMPDEST PUSH1 0x40 MLOAD DUP1 SWAP2 SUB SWAP1 RETURN JUMPDEST PUSH2 0x9BD PUSH2 0x4890 JUMP JUMPDEST STOP JUMPDEST PUSH2 0x9D9 PUSH1 0x4 DUP1 CALLDATASIZE SUB DUP2 ADD SWAP1 PUSH2 0x9D4 SWAP2 SWAP1 PUSH2 0x7473 JUMP JUMPDEST PUSH2 0x4B3A JUMP JUMPDEST PUSH1 0x40 MLOAD PUSH2 0x9E6 SWAP2 SWAP1 PUSH2 0x7354 JUMP JUMPDEST PUSH1 0x40 MLOAD DUP1 SWAP2 SUB SWAP1 RETURN JUMPDEST PUSH2 0x9F7 PUSH2 0x4B7F JUMP JUMPDEST STOP JUMPDEST PUSH2 0xA01 PUSH2 0x4B92 JUMP JUMPDEST STOP JUMPDEST PUSH2 0xA0B PUSH2 0x4BE2 JUMP JUMPDEST STOP JUMPDEST PUSH2 0xA27 PUSH1 0x4 DUP1 CALLDATASIZE SUB DUP2 ADD SWAP1 PUSH2 0xA22 SWAP2 SWAP1 PUSH2 0x7504 JUMP JUMPDEST PUSH2 0x4FBA JUMP JUMPDEST PUSH1 0x40 MLOAD PUSH2 0xA34 SWAP2 SWAP1 PUSH2 0x74EB JUMP JUMPDEST PUSH1 0x40 MLOAD DUP1 SWAP2 SUB SWAP1 RETURN JUMPDEST PUSH2 0xA57 PUSH1 0x4 DUP1 CALLDATASIZE SUB DUP2 ADD SWAP1 PUSH2 0xA52 SWAP2 SWAP1 PUSH2 0x7504 JUMP JUMPDEST PUSH2 0x4FF5 JUMP JUMPDEST PUSH1 0x40 MLOAD PUSH2 0xA64 SWAP2 SWAP1 PUSH2 0x74EB JUMP JUMPDEST PUSH1 0x40 MLOAD DUP1 SWAP2 SUB SWAP1 RETURN JUMPDEST PUSH2 0xA75 PUSH2 0x5030 JUMP JUMPDEST PUSH1 0x40 MLOAD PUSH2 0xA82 SWAP2 SWAP1 PUSH2 0x745A JUMP JUMPDEST PUSH1 0x40 MLOAD DUP1 SWAP2 SUB SWAP1 RETURN JUMPDEST PUSH2 0xA93 PUSH2 0x5043 JUMP JUMPDEST PUSH1 0x40 MLOAD PUSH2 0xAA0 SWAP2 SWAP1 PUSH2 0x78D0 JUMP JUMPDEST PUSH1 0x40 MLOAD DUP1 SWAP2 SUB SWAP1 RETURN JUMPDEST PUSH2 0xAB1 PUSH2 0x5055 JUMP JUMPDEST PUSH1 0x40 MLOAD PUSH2 0xABE SWAP2 SWAP1 PUSH2 0x74EB JUMP JUMPDEST PUSH1 0x40 MLOAD DUP1 SWAP2 SUB SWAP1 RETURN JUMPDEST PUSH2 0xACF PUSH2 0x507D JUMP JUMPDEST PUSH1 0x40 MLOAD PUSH2 0xADC SWAP2 SWAP1 PUSH2 0x7354 JUMP JUMPDEST PUSH1 0x40 MLOAD DUP1 SWAP2 SUB SWAP1 RETURN JUMPDEST PUSH2 0xAED PUSH2 0x5083 JUMP JUMPDEST STOP JUMPDEST PUSH2 0xAF7 PUSH2 0x5668 JUMP JUMPDEST PUSH1 0x40 MLOAD PUSH2 0xB04 SWAP2 SWAP1 PUSH2 0x731C JUMP JUMPDEST PUSH1 0x40 MLOAD DUP1 SWAP2 SUB SWAP1 RETURN JUMPDEST PUSH2 0xB15 PUSH2 0x56F8 JUMP JUMPDEST PUSH1 0x40 MLOAD PUSH2 0xB22 SWAP2 SWAP1 PUSH2 0x74EB JUMP JUMPDEST PUSH1 0x40 MLOAD DUP1 SWAP2 SUB SWAP1 RETURN JUMPDEST PUSH2 0xB45 PUSH1 0x4 DUP1 CALLDATASIZE SUB DUP2 ADD SWAP1 PUSH2 0xB40 SWAP2 SWAP1 PUSH2 0x7473 JUMP JUMPDEST PUSH2 0x571D JUMP JUMPDEST PUSH1 0x40 MLOAD PUSH2 0xB52 SWAP2 SWAP1 PUSH2 0x745A JUMP JUMPDEST PUSH1 0x40 MLOAD DUP1 SWAP2 SUB SWAP1 RETURN JUMPDEST PUSH2 0xB75 PUSH1 0x4 DUP1 CALLDATASIZE SUB DUP2 ADD SWAP1 PUSH2 0xB70 SWAP2 SWAP1 PUSH2 0x7402 JUMP JUMPDEST PUSH2 0x573A JUMP JUMPDEST PUSH1 0x40 MLOAD PUSH2 0xB82 SWAP2 SWAP1 PUSH2 0x745A JUMP JUMPDEST PUSH1 0x40 MLOAD DUP1 SWAP2 SUB SWAP1 RETURN JUMPDEST PUSH2 0xB93 PUSH2 0x587B JUMP JUMPDEST PUSH1 0x40 MLOAD PUSH2 0xBA0 SWAP2 SWAP1 PUSH2 0x74EB JUMP JUMPDEST PUSH1 0x40 MLOAD DUP1 SWAP2 SUB SWAP1 RETURN JUMPDEST PUSH2 0xBB1 PUSH2 0x5882 JUMP JUMPDEST PUSH1 0x40 MLOAD PUSH2 0xBBE SWAP2 SWAP1 PUSH2 0x74EB JUMP JUMPDEST PUSH1 0x40 MLOAD DUP1 SWAP2 SUB SWAP1 RETURN JUMPDEST PUSH2 0xBCF PUSH2 0x58A7 JUMP JUMPDEST PUSH1 0x40 MLOAD PUSH2 0xBDC SWAP2 SWAP1 PUSH2 0x745A JUMP JUMPDEST PUSH1 0x40 MLOAD DUP1 SWAP2 SUB SWAP1 RETURN JUMPDEST PUSH2 0xBED PUSH2 0x58BA JUMP JUMPDEST STOP JUMPDEST PUSH2 0xBF7 PUSH2 0x5D1E JUMP JUMPDEST PUSH1 0x40 MLOAD PUSH2 0xC04 SWAP2 SWAP1 PUSH2 0x74EB JUMP JUMPDEST PUSH1 0x40 MLOAD DUP1 SWAP2 SUB SWAP1 RETURN JUMPDEST PUSH2 0xC15 PUSH2 0x5D43 JUMP JUMPDEST PUSH1 0x40 MLOAD PUSH2 0xC22 SWAP2 SWAP1 PUSH2 0x7354 JUMP JUMPDEST PUSH1 0x40 MLOAD DUP1 SWAP2 SUB SWAP1 RETURN JUMPDEST PUSH2 0xC33 PUSH2 0x5D49 JUMP JUMPDEST STOP JUMPDEST PUSH2 0xC3D PUSH2 0x5E7D JUMP JUMPDEST PUSH1 0x40 MLOAD PUSH2 0xC4A SWAP2 SWAP1 PUSH2 0x7354 JUMP JUMPDEST PUSH1 0x40 MLOAD DUP1 SWAP2 SUB SWAP1 RETURN JUMPDEST PUSH2 0xC6D PUSH1 0x4 DUP1 CALLDATASIZE SUB DUP2 ADD SWAP1 PUSH2 0xC68 SWAP2 SWAP1 PUSH2 0x7473 JUMP JUMPDEST PUSH2 0x5E83 JUMP JUMPDEST PUSH1 0x40 MLOAD PUSH2 0xC7A SWAP2 SWAP1 PUSH2 0x745A JUMP JUMPDEST PUSH1 0x40 MLOAD DUP1 SWAP2 SUB SWAP1 RETURN JUMPDEST PUSH2 0xC8B PUSH2 0x5EA0 JUMP JUMPDEST STOP JUMPDEST PUSH2 0xC95 PUSH2 0x61AA JUMP JUMPDEST PUSH1 0x40 MLOAD PUSH2 0xCA2 SWAP2 SWAP1 PUSH2 0x7354 JUMP JUMPDEST PUSH1 0x40 MLOAD DUP1 SWAP2 SUB SWAP1 RETURN JUMPDEST PUSH2 0xCC5 PUSH1 0x4 DUP1 CALLDATASIZE SUB DUP2 ADD SWAP1 PUSH2 0xCC0 SWAP2 SWAP1 PUSH2 0x7504 JUMP JUMPDEST PUSH2 0x61C0 JUMP JUMPDEST PUSH1 0x40 MLOAD PUSH2 0xCD2 SWAP2 SWAP1 PUSH2 0x74EB JUMP JUMPDEST PUSH1 0x40 MLOAD DUP1 SWAP2 SUB SWAP1 RETURN JUMPDEST PUSH2 0xCF5 PUSH1 0x4 DUP1 CALLDATASIZE SUB DUP2 ADD SWAP1 PUSH2 0xCF0 SWAP2 SWAP1 PUSH2 0x78E9 JUMP JUMPDEST PUSH2 0x61FB JUMP JUMPDEST PUSH1 0x40 MLOAD PUSH2 0xD02 SWAP2 SWAP1 PUSH2 0x7354 JUMP JUMPDEST PUSH1 0x40 MLOAD DUP1 SWAP2 SUB SWAP1 RETURN JUMPDEST PUSH2 0xD25 PUSH1 0x4 DUP1 CALLDATASIZE SUB DUP2 ADD SWAP1 PUSH2 0xD20 SWAP2 SWAP1 PUSH2 0x7473 JUMP JUMPDEST PUSH2 0x627D JUMP JUMPDEST PUSH1 0x40 MLOAD PUSH2 0xD32 SWAP2 SWAP1 PUSH2 0x745A JUMP JUMPDEST PUSH1 0x40 MLOAD DUP1 SWAP2 SUB SWAP1 RETURN JUMPDEST PUSH2 0xD43 PUSH2 0x62CF JUMP JUMPDEST PUSH1 0x40 MLOAD PUSH2 0xD50 SWAP2 SWAP1 PUSH2 0x7354 JUMP JUMPDEST PUSH1 0x40 MLOAD DUP1 SWAP2 SUB SWAP1 RETURN JUMPDEST PUSH2 0xD61 PUSH2 0x63BE JUMP JUMPDEST STOP JUMPDEST PUSH2 0xD7D PUSH1 0x4 DUP1 CALLDATASIZE SUB DUP2 ADD SWAP1 PUSH2 0xD78 SWAP2 SWAP1 PUSH2 0x7473 JUMP JUMPDEST PUSH2 0x676D JUMP JUMPDEST STOP JUMPDEST PUSH2 0xD87 PUSH2 0x67F1 JUMP JUMPDEST PUSH1 0x40 MLOAD PUSH2 0xD94 SWAP2 SWAP1 PUSH2 0x7354 JUMP JUMPDEST PUSH1 0x40 MLOAD DUP1 SWAP2 SUB SWAP1 RETURN JUMPDEST PUSH2 0xDA5 PUSH2 0x67F6 JUMP JUMPDEST STOP JUMPDEST PUSH2 0xDAF PUSH2 0x6847 JUMP JUMPDEST PUSH1 0x40 MLOAD PUSH2 0xDBC SWAP2 SWAP1 PUSH2 0x7354 JUMP JUMPDEST PUSH1 0x40 MLOAD DUP1 SWAP2 SUB SWAP1 RETURN JUMPDEST PUSH1 0x1E DUP1 SLOAD PUSH2 0xDD2 SWAP1 PUSH2 0x7954 JUMP JUMPDEST DUP1 PUSH1 0x1F ADD PUSH1 0x20 DUP1 SWAP2 DIV MUL PUSH1 0x20 ADD PUSH1 0x40 MLOAD SWAP1 DUP2 ADD PUSH1 0x40 MSTORE DUP1 SWAP3 SWAP2 SWAP1 DUP2 DUP2 MSTORE PUSH1 0x20 ADD DUP3 DUP1 SLOAD PUSH2 0xDFE SWAP1 PUSH2 0x7954 JUMP JUMPDEST DUP1 ISZERO PUSH2 0xE49 JUMPI DUP1 PUSH1 0x1F LT PUSH2 0xE20 JUMPI PUSH2 0x100 DUP1 DUP4 SLOAD DIV MUL DUP4 MSTORE SWAP2 PUSH1 0x20 ADD SWAP2 PUSH2 0xE49 JUMP JUMPDEST DUP3 ADD SWAP2 SWAP1 PUSH0 MSTORE PUSH1 0x20 PUSH0 KECCAK256 SWAP1 JUMPDEST DUP2 SLOAD DUP2 MSTORE SWAP1 PUSH1 0x1 ADD SWAP1 PUSH1 0x20 ADD DUP1 DUP4 GT PUSH2 0xE2C JUMPI DUP3 SWAP1 SUB PUSH1 0x1F AND DUP3 ADD SWAP2 JUMPDEST POP POP POP POP POP DUP2 JUMP JUMPDEST PUSH1 0x60 PUSH1 0xD DUP1 SLOAD PUSH2 0xE60 SWAP1 PUSH2 0x7954 JUMP JUMPDEST DUP1 PUSH1 0x1F ADD PUSH1 0x20 DUP1 SWAP2 DIV MUL PUSH1 0x20 ADD PUSH1 0x40 MLOAD SWAP1 DUP2 ADD PUSH1 0x40 MSTORE DUP1 SWAP3 SWAP2 SWAP1 DUP2 DUP2 MSTORE PUSH1 0x20 ADD DUP3 DUP1 SLOAD PUSH2 0xE8C SWAP1 PUSH2 0x7954 JUMP JUMPDEST DUP1 ISZERO PUSH2 0xED7 JUMPI DUP1 PUSH1 0x1F LT PUSH2 0xEAE JUMPI PUSH2 0x100 DUP1 DUP4 SLOAD DIV MUL DUP4 MSTORE SWAP2 PUSH1 0x20 ADD SWAP2 PUSH2 0xED7 JUMP JUMPDEST DUP3 ADD SWAP2 SWAP1 PUSH0 MSTORE PUSH1 0x20 PUSH0 KECCAK256 SWAP1 JUMPDEST DUP2 SLOAD DUP2 MSTORE SWAP1 PUSH1 0x1 ADD SWAP1 PUSH1 0x20 ADD DUP1 DUP4 GT PUSH2 0xEBA JUMPI DUP3 SWAP1 SUB PUSH1 0x1F AND DUP3 ADD SWAP2 JUMPDEST POP POP POP POP POP SWAP1 POP SWAP1 JUMP JUMPDEST PUSH1 0x14 SLOAD DUP2 JUMP JUMPDEST PUSH2 0x12C DUP2 JUMP JUMPDEST PUSH0 PUSH0 PUSH2 0xEF7 PUSH2 0x6853 JUMP JUMPDEST SWAP1 POP PUSH2 0xF04 DUP2 DUP6 DUP6 PUSH2 0x685A JUMP JUMPDEST PUSH1 0x1 SWAP2 POP POP SWAP3 SWAP2 POP POP JUMP JUMPDEST PUSH1 0xF PUSH1 0x20 MSTORE DUP1 PUSH0 MSTORE PUSH1 0x40 PUSH0 KECCAK256 PUSH0 SWAP2 POP SLOAD SWAP1 PUSH2 0x100 EXP SWAP1 DIV PUSH1 0xFF AND DUP2 JUMP JUMPDEST PUSH2 0xF34 PUSH2 0x686C JUMP JUMPDEST PUSH1 0x11 PUSH1 0x2 SWAP1 SLOAD SWAP1 PUSH2 0x100 EXP SWAP1 DIV PUSH1 0xFF AND ISZERO PUSH2 0xF84 JUMPI PUSH1 0x40 MLOAD PUSH32 0x8C379A000000000000000000000000000000000000000000000000000000000 DUP2 MSTORE PUSH1 0x4 ADD PUSH2 0xF7B SWAP1 PUSH2 0x79CE JUMP JUMPDEST PUSH1 0x40 MLOAD DUP1 SWAP2 SUB SWAP1 REVERT JUMPDEST PUSH1 0x8 PUSH0 DUP3 PUSH20 0xFFFFFFFFFFFFFFFFFFFFFFFFFFFFFFFFFFFFFFFF AND PUSH20 0xFFFFFFFFFFFFFFFFFFFFFFFFFFFFFFFFFFFFFFFF AND DUP2 MSTORE PUSH1 0x20 ADD SWAP1 DUP2 MSTORE PUSH1 0x20 ADD PUSH0 KECCAK256 PUSH0 SWAP1 SLOAD SWAP1 PUSH2 0x100 EXP SWAP1 DIV PUSH1 0xFF AND PUSH2 0x100D JUMPI PUSH1 0x40 MLOAD PUSH32 0x8C379A000000000000000000000000000000000000000000000000000000000 DUP2 MSTORE PUSH1 0x4 ADD PUSH2 0x1004 SWAP1 PUSH2 0x7A36 JUMP JUMPDEST PUSH1 0x40 MLOAD DUP1 SWAP2 SUB SWAP1 REVERT JUMPDEST PUSH0 DUP3 GT PUSH2 0x104F JUMPI PUSH1 0x40 MLOAD PUSH32 0x8C379A000000000000000000000000000000000000000000000000000000000 DUP2 MSTORE PUSH1 0x4 ADD PUSH2 0x1046 SWAP1 PUSH2 0x7AC4 JUMP JUMPDEST PUSH1 0x40 MLOAD DUP1 SWAP2 SUB SWAP1 REVERT JUMPDEST PUSH0 PUSH1 0x14 DUP4 PUSH2 0x105D SWAP2 SWAP1 PUSH2 0x7B0F JUMP JUMPDEST SWAP1 POP PUSH0 DUP2 GT PUSH2 0x10A1 JUMPI PUSH1 0x40 MLOAD PUSH32 0x8C379A000000000000000000000000000000000000000000000000000000000 DUP2 MSTORE PUSH1 0x4 ADD PUSH2 0x1098 SWAP1 PUSH2 0x7B9A JUMP JUMPDEST PUSH1 0x40 MLOAD DUP1 SWAP2 SUB SWAP1 REVERT JUMPDEST PUSH1 0x7 SLOAD PUSH8 0xDE0B6B3A7640000 DUP3 PUSH2 0x10B8 SWAP2 SWAP1 PUSH2 0x7B0F JUMP JUMPDEST PUSH1 0xC SLOAD PUSH2 0x10C5 SWAP2 SWAP1 PUSH2 0x7BB8 JUMP JUMPDEST GT ISZERO PUSH2 0x1106 JUMPI PUSH1 0x40 MLOAD PUSH32 0x8C379A000000000000000000000000000000000000000000000000000000000 DUP2 MSTORE PUSH1 0x4 ADD PUSH2 0x10FD SWAP1 PUSH2 0x7C35 JUMP JUMPDEST PUSH1 0x40 MLOAD DUP1 SWAP2 SUB SWAP1 REVERT JUMPDEST PUSH2 0x1123 DUP3 PUSH8 0xDE0B6B3A7640000 DUP4 PUSH2 0x111E SWAP2 SWAP1 PUSH2 0x7B0F JUMP JUMPDEST PUSH2 0x68BB JUMP JUMPDEST PUSH8 0xDE0B6B3A7640000 DUP2 PUSH2 0x1137 SWAP2 SWAP1 PUSH2 0x7B0F JUMP JUMPDEST PUSH1 0xC PUSH0 DUP3 DUP3 SLOAD PUSH2 0x1147 SWAP2 SWAP1 PUSH2 0x7BB8 JUMP JUMPDEST SWAP3 POP POP DUP2 SWAP1 SSTORE POP DUP2 PUSH20 0xFFFFFFFFFFFFFFFFFFFFFFFFFFFFFFFFFFFFFFFF AND CALLER PUSH20 0xFFFFFFFFFFFFFFFFFFFFFFFFFFFFFFFFFFFFFFFF AND PUSH32 0xBADB5A53E5A7F1F292F32F4CA0C78E80D05F213DB774602ACC6FACA5AECDF6D7 DUP6 DUP5 PUSH1 0x40 MLOAD PUSH2 0x11AD SWAP3 SWAP2 SWAP1 PUSH2 0x7C53 JUMP JUMPDEST PUSH1 0x40 MLOAD DUP1 SWAP2 SUB SWAP1 LOG3 POP PUSH2 0x11BE PUSH2 0x693A JUMP JUMPDEST POP POP JUMP JUMPDEST PUSH0 PUSH2 0x11CC DUP3 PUSH2 0x4B3A JUMP JUMPDEST SWAP1 POP SWAP2 SWAP1 POP JUMP JUMPDEST PUSH0 PUSH0 SWAP1 POP SWAP1 JUMP JUMPDEST PUSH1 0x14 DUP2 JUMP JUMPDEST PUSH0 PUSH0 SWAP1 POP SWAP2 SWAP1 POP JUMP JUMPDEST PUSH2 0x11F1 CALLER PUSH2 0x6944 JUMP JUMPDEST PUSH2 0x1230 JUMPI PUSH1 0x40 MLOAD PUSH32 0x8C379A000000000000000000000000000000000000000000000000000000000 DUP2 MSTORE PUSH1 0x4 ADD PUSH2 0x1227 SWAP1 PUSH2 0x7CC4 JUMP JUMPDEST PUSH1 0x40 MLOAD DUP1 SWAP2 SUB SWAP1 REVERT JUMPDEST PUSH1 0x11 PUSH1 0x2 SWAP1 SLOAD SWAP1 PUSH2 0x100 EXP SWAP1 DIV PUSH1 0xFF AND ISZERO PUSH2 0x1280 JUMPI PUSH1 0x40 MLOAD PUSH32 0x8C379A000000000000000000000000000000000000000000000000000000000 DUP2 MSTORE PUSH1 0x4 ADD PUSH2 0x1277 SWAP1 PUSH2 0x79CE JUMP JUMPDEST PUSH1 0x40 MLOAD DUP1 SWAP2 SUB SWAP1 REVERT JUMPDEST PUSH1 0x11 PUSH0 SWAP1 SLOAD SWAP1 PUSH2 0x100 EXP SWAP1 DIV PUSH1 0xFF AND ISZERO PUSH2 0x12CF JUMPI PUSH1 0x40 MLOAD PUSH32 0x8C379A000000000000000000000000000000000000000000000000000000000 DUP2 MSTORE PUSH1 0x4 ADD PUSH2 0x12C6 SWAP1 PUSH2 0x7D2C JUMP JUMPDEST PUSH1 0x40 MLOAD DUP1 SWAP2 SUB SWAP1 REVERT JUMPDEST PUSH1 0x8 PUSH0 DUP4 PUSH20 0xFFFFFFFFFFFFFFFFFFFFFFFFFFFFFFFFFFFFFFFF AND PUSH20 0xFFFFFFFFFFFFFFFFFFFFFFFFFFFFFFFFFFFFFFFF AND DUP2 MSTORE PUSH1 0x20 ADD SWAP1 DUP2 MSTORE PUSH1 0x20 ADD PUSH0 KECCAK256 PUSH0 SWAP1 SLOAD SWAP1 PUSH2 0x100 EXP SWAP1 DIV PUSH1 0xFF AND PUSH2 0x1358 JUMPI PUSH1 0x40 MLOAD PUSH32 0x8C379A000000000000000000000000000000000000000000000000000000000 DUP2 MSTORE PUSH1 0x4 ADD PUSH2 0x134F SWAP1 PUSH2 0x7D94 JUMP JUMPDEST PUSH1 0x40 MLOAD DUP1 SWAP2 SUB SWAP1 REVERT JUMPDEST PUSH0 PUSH20 0xFFFFFFFFFFFFFFFFFFFFFFFFFFFFFFFFFFFFFFFF AND DUP3 PUSH20 0xFFFFFFFFFFFFFFFFFFFFFFFFFFFFFFFFFFFFFFFF AND SUB PUSH2 0x13C6 JUMPI PUSH1 0x40 MLOAD PUSH32 0x8C379A000000000000000000000000000000000000000000000000000000000 DUP2 MSTORE PUSH1 0x4 ADD PUSH2 0x13BD SWAP1 PUSH2 0x7DFC JUMP JUMPDEST PUSH1 0x40 MLOAD DUP1 SWAP2 SUB SWAP1 REVERT JUMPDEST PUSH0 DUP2 GT PUSH2 0x1408 JUMPI PUSH1 0x40 MLOAD PUSH32 0x8C379A000000000000000000000000000000000000000000000000000000000 DUP2 MSTORE PUSH1 0x4 ADD PUSH2 0x13FF SWAP1 PUSH2 0x7E64 JUMP JUMPDEST PUSH1 0x40 MLOAD DUP1 SWAP2 SUB SWAP1 REVERT JUMPDEST PUSH1 0x7 SLOAD DUP2 PUSH1 0xC SLOAD PUSH2 0x1419 SWAP2 SWAP1 PUSH2 0x7BB8 JUMP JUMPDEST GT ISZERO PUSH2 0x145A JUMPI PUSH1 0x40 MLOAD PUSH32 0x8C379A000000000000000000000000000000000000000000000000000000000 DUP2 MSTORE PUSH1 0x4 ADD PUSH2 0x1451 SWAP1 PUSH2 0x7C35 JUMP JUMPDEST PUSH1 0x40 MLOAD DUP1 SWAP2 SUB SWAP1 REVERT JUMPDEST PUSH2 0x1462 PUSH2 0x69E6 JUMP JUMPDEST PUSH0 PUSH1 0x10 DUP2 SWAP1 SSTORE POP DUP2 PUSH1 0x1F PUSH0 PUSH2 0x100 EXP DUP2 SLOAD DUP2 PUSH20 0xFFFFFFFFFFFFFFFFFFFFFFFFFFFFFFFFFFFFFFFF MUL NOT AND SWAP1 DUP4 PUSH20 0xFFFFFFFFFFFFFFFFFFFFFFFFFFFFFFFFFFFFFFFF AND MUL OR SWAP1 SSTORE POP DUP1 PUSH1 0x20 DUP2 SWAP1 SSTORE POP PUSH1 0x1 PUSH1 0x11 PUSH0 PUSH2 0x100 EXP DUP2 SLOAD DUP2 PUSH1 0xFF MUL NOT AND SWAP1 DUP4 ISZERO ISZERO MUL OR SWAP1 SSTORE POP PUSH1 0x40 MLOAD DUP1 PUSH1 0x40 ADD PUSH1 0x40 MSTORE DUP1 PUSH1 0x4 DUP2 MSTORE PUSH1 0x20 ADD PUSH32 0x6D696E7400000000000000000000000000000000000000000000000000000000 DUP2 MSTORE POP PUSH1 0x12 SWAP1 DUP2 PUSH2 0x150E SWAP2 SWAP1 PUSH2 0x8022 JUMP JUMPDEST POP PUSH32 0x116C43C83ACF6CD8597CE110E50B139E8C85A1544440913BE14F9043A244361 DUP3 DUP3 PUSH1 0x40 MLOAD PUSH2 0x1540 SWAP3 SWAP2 SWAP1 PUSH2 0x80F1 JUMP JUMPDEST PUSH1 0x40 MLOAD DUP1 SWAP2 SUB SWAP1 LOG1 POP POP JUMP JUMPDEST PUSH0 PUSH1 0x2 SLOAD SWAP1 POP SWAP1 JUMP JUMPDEST PUSH2 0x155E CALLER PUSH2 0x6944 JUMP JUMPDEST PUSH2 0x159D JUMPI PUSH1 0x40 MLOAD PUSH32 0x8C379A000000000000000000000000000000000000000000000000000000000 DUP2 MSTORE PUSH1 0x4 ADD PUSH2 0x1594 SWAP1 PUSH2 0x7CC4 JUMP JUMPDEST PUSH1 0x40 MLOAD DUP1 SWAP2 SUB SWAP1 REVERT JUMPDEST PUSH1 0x11 PUSH1 0x2 SWAP1 SLOAD SWAP1 PUSH2 0x100 EXP SWAP1 DIV PUSH1 0xFF AND ISZERO PUSH2 0x15ED JUMPI PUSH1 0x40 MLOAD PUSH32 0x8C379A000000000000000000000000000000000000000000000000000000000 DUP2 MSTORE PUSH1 0x4 ADD PUSH2 0x15E4 SWAP1 PUSH2 0x79CE JUMP JUMPDEST PUSH1 0x40 MLOAD DUP1 SWAP2 SUB SWAP1 REVERT JUMPDEST PUSH1 0x11 PUSH0 SWAP1 SLOAD SWAP1 PUSH2 0x100 EXP SWAP1 DIV PUSH1 0xFF AND ISZERO PUSH2 0x163C JUMPI PUSH1 0x40 MLOAD PUSH32 0x8C379A000000000000000000000000000000000000000000000000000000000 DUP2 MSTORE PUSH1 0x4 ADD PUSH2 0x1633 SWAP1 PUSH2 0x7D2C JUMP JUMPDEST PUSH1 0x40 MLOAD DUP1 SWAP2 SUB SWAP1 REVERT JUMPDEST PUSH1 0x8 PUSH0 DUP3 PUSH20 0xFFFFFFFFFFFFFFFFFFFFFFFFFFFFFFFFFFFFFFFF AND PUSH20 0xFFFFFFFFFFFFFFFFFFFFFFFFFFFFFFFFFFFFFFFF AND DUP2 MSTORE PUSH1 0x20 ADD SWAP1 DUP2 MSTORE PUSH1 0x20 ADD PUSH0 KECCAK256 PUSH0 SWAP1 SLOAD SWAP1 PUSH2 0x100 EXP SWAP1 DIV PUSH1 0xFF AND PUSH2 0x16C5 JUMPI PUSH1 0x40 MLOAD PUSH32 0x8C379A000000000000000000000000000000000000000000000000000000000 DUP2 MSTORE PUSH1 0x4 ADD PUSH2 0x16BC SWAP1 PUSH2 0x8162 JUMP JUMPDEST PUSH1 0x40 MLOAD DUP1 SWAP2 SUB SWAP1 REVERT JUMPDEST PUSH2 0x16CD PUSH2 0x69E6 JUMP JUMPDEST PUSH0 PUSH1 0x10 DUP2 SWAP1 SSTORE POP DUP1 PUSH1 0x1B PUSH0 PUSH2 0x100 EXP DUP2 SLOAD DUP2 PUSH20 0xFFFFFFFFFFFFFFFFFFFFFFFFFFFFFFFFFFFFFFFF MUL NOT AND SWAP1 DUP4 PUSH20 0xFFFFFFFFFFFFFFFFFFFFFFFFFFFFFFFFFFFFFFFF AND MUL OR SWAP1 SSTORE POP PUSH1 0x40 MLOAD DUP1 PUSH1 0x40 ADD PUSH1 0x40 MSTORE DUP1 PUSH1 0x6 DUP2 MSTORE PUSH1 0x20 ADD PUSH32 0x72656D6F76650000000000000000000000000000000000000000000000000000 DUP2 MSTORE POP PUSH1 0x1C SWAP1 DUP2 PUSH2 0x1758 SWAP2 SWAP1 PUSH2 0x8022 JUMP JUMPDEST POP PUSH1 0x1 PUSH1 0x11 PUSH0 PUSH2 0x100 EXP DUP2 SLOAD DUP2 PUSH1 0xFF MUL NOT AND SWAP1 DUP4 ISZERO ISZERO MUL OR SWAP1 SSTORE POP PUSH1 0x40 MLOAD DUP1 PUSH1 0x40 ADD PUSH1 0x40 MSTORE DUP1 PUSH1 0x10 DUP2 MSTORE PUSH1 0x20 ADD PUSH32 0x77686974656C6973745F72656D6F766500000000000000000000000000000000 DUP2 MSTORE POP PUSH1 0x12 SWAP1 DUP2 PUSH2 0x17B7 SWAP2 SWAP1 PUSH2 0x8022 JUMP JUMPDEST POP PUSH32 0xC645160BCA8C10087405A6BADA7A56C33D99BC539C2A803D599E21CB6D4FA4CE DUP2 PUSH1 0x40 MLOAD PUSH2 0x17E7 SWAP2 SWAP1 PUSH2 0x81CA JUMP JUMPDEST PUSH1 0x40 MLOAD DUP1 SWAP2 SUB SWAP1 LOG1 POP JUMP JUMPDEST PUSH1 0x21 SLOAD DUP2 JUMP JUMPDEST PUSH1 0x9 DUP2 DUP2 SLOAD DUP2 LT PUSH2 0x1807 JUMPI PUSH0 DUP1 REVERT JUMPDEST SWAP1 PUSH0 MSTORE PUSH1 0x20 PUSH0 KECCAK256 ADD PUSH0 SWAP2 POP SLOAD SWAP1 PUSH2 0x100 EXP SWAP1 DIV PUSH20 0xFFFFFFFFFFFFFFFFFFFFFFFFFFFFFFFFFFFFFFFF AND DUP2 JUMP JUMPDEST PUSH0 PUSH1 0x11 PUSH1 0x2 SWAP1 SLOAD SWAP1 PUSH2 0x100 EXP SWAP1 DIV PUSH1 0xFF AND ISZERO PUSH2 0x1884 JUMPI PUSH1 0x40 MLOAD PUSH32 0x8C379A000000000000000000000000000000000000000000000000000000000 DUP2 MSTORE PUSH1 0x4 ADD PUSH2 0x187B SWAP1 PUSH2 0x79CE JUMP JUMPDEST PUSH1 0x40 MLOAD DUP1 SWAP2 SUB SWAP1 REVERT JUMPDEST PUSH1 0xA PUSH0 DUP6 PUSH20 0xFFFFFFFFFFFFFFFFFFFFFFFFFFFFFFFFFFFFFFFF AND PUSH20 0xFFFFFFFFFFFFFFFFFFFFFFFFFFFFFFFFFFFFFFFF AND DUP2 MSTORE PUSH1 0x20 ADD SWAP1 DUP2 MSTORE PUSH1 0x20 ADD PUSH0 KECCAK256 PUSH0 SWAP1 SLOAD SWAP1 PUSH2 0x100 EXP SWAP1 DIV PUSH1 0xFF AND ISZERO PUSH2 0x190E JUMPI PUSH1 0x40 MLOAD PUSH32 0x8C379A000000000000000000000000000000000000000000000000000000000 DUP2 MSTORE PUSH1 0x4 ADD PUSH2 0x1905 SWAP1 PUSH2 0x8240 JUMP JUMPDEST PUSH1 0x40 MLOAD DUP1 SWAP2 SUB SWAP1 REVERT JUMPDEST DUP2 PUSH16 0xFFFFFFFFFFFFFFFFFFFFFFFFFFFFFFFF AND DUP3 EQ PUSH2 0x1962 JUMPI PUSH1 0x40 MLOAD PUSH32 0x8C379A000000000000000000000000000000000000000000000000000000000 DUP2 MSTORE PUSH1 0x4 ADD PUSH2 0x1959 SWAP1 PUSH2 0x82A8 JUMP JUMPDEST PUSH1 0x40 MLOAD DUP1 SWAP2 SUB SWAP1 REVERT JUMPDEST PUSH2 0x196D DUP5 DUP5 DUP5 PUSH2 0x6A97 JUMP JUMPDEST SWAP1 POP SWAP4 SWAP3 POP POP POP JUMP JUMPDEST PUSH1 0xC SLOAD DUP2 JUMP JUMPDEST PUSH1 0x3 DUP2 JUMP JUMPDEST PUSH1 0x5 DUP2 JUMP JUMPDEST PUSH0 PUSH0 SWAP1 POP SWAP1 JUMP JUMPDEST PUSH1 0x12 DUP1 SLOAD PUSH2 0x199A SWAP1 PUSH2 0x7954 JUMP JUMPDEST DUP1 PUSH1 0x1F ADD PUSH1 0x20 DUP1 SWAP2 DIV MUL PUSH1 0x20 ADD PUSH1 0x40 MLOAD SWAP1 DUP2 ADD PUSH1 0x40 MSTORE DUP1 SWAP3 SWAP2 SWAP1 DUP2 DUP2 MSTORE PUSH1 0x20 ADD DUP3 DUP1 SLOAD PUSH2 0x19C6 SWAP1 PUSH2 0x7954 JUMP JUMPDEST DUP1 ISZERO PUSH2 0x1A11 JUMPI DUP1 PUSH1 0x1F LT PUSH2 0x19E8 JUMPI PUSH2 0x100 DUP1 DUP4 SLOAD DIV MUL DUP4 MSTORE SWAP2 PUSH1 0x20 ADD SWAP2 PUSH2 0x1A11 JUMP JUMPDEST DUP3 ADD SWAP2 SWAP1 PUSH0 MSTORE PUSH1 0x20 PUSH0 KECCAK256 SWAP1 JUMPDEST DUP2 SLOAD DUP2 MSTORE SWAP1 PUSH1 0x1 ADD SWAP1 PUSH1 0x20 ADD DUP1 DUP4 GT PUSH2 0x19F4 JUMPI DUP3 SWAP1 SUB PUSH1 0x1F AND DUP3 ADD SWAP2 JUMPDEST POP POP POP POP POP DUP2 JUMP JUMPDEST PUSH2 0x1A22 CALLER PUSH2 0x6944 JUMP JUMPDEST PUSH2 0x1A61 JUMPI PUSH1 0x40 MLOAD PUSH32 0x8C379A000000000000000000000000000000000000000000000000000000000 DUP2 MSTORE PUSH1 0x4 ADD PUSH2 0x1A58 SWAP1 PUSH2 0x7CC4 JUMP JUMPDEST PUSH1 0x40 MLOAD DUP1 SWAP2 SUB SWAP1 REVERT JUMPDEST PUSH1 0x11 PUSH1 0x2 SWAP1 SLOAD SWAP1 PUSH2 0x100 EXP SWAP1 DIV PUSH1 0xFF AND ISZERO PUSH2 0x1AB1 JUMPI PUSH1 0x40 MLOAD PUSH32 0x8C379A000000000000000000000000000000000000000000000000000000000 DUP2 MSTORE PUSH1 0x4 ADD PUSH2 0x1AA8 SWAP1 PUSH2 0x79CE JUMP JUMPDEST PUSH1 0x40 MLOAD DUP1 SWAP2 SUB SWAP1 REVERT JUMPDEST PUSH1 0x11 PUSH0 SWAP1 SLOAD SWAP1 PUSH2 0x100 EXP SWAP1 DIV PUSH1 0xFF AND ISZERO PUSH2 0x1B00 JUMPI PUSH1 0x40 MLOAD PUSH32 0x8C379A000000000000000000000000000000000000000000000000000000000 DUP2 MSTORE PUSH1 0x4 ADD PUSH2 0x1AF7 SWAP1 PUSH2 0x7D2C JUMP JUMPDEST PUSH1 0x40 MLOAD DUP1 SWAP2 SUB SWAP1 REVERT JUMPDEST PUSH0 PUSH20 0xFFFFFFFFFFFFFFFFFFFFFFFFFFFFFFFFFFFFFFFF AND DUP2 PUSH20 0xFFFFFFFFFFFFFFFFFFFFFFFFFFFFFFFFFFFFFFFF AND SUB PUSH2 0x1B6E JUMPI PUSH1 0x40 MLOAD PUSH32 0x8C379A000000000000000000000000000000000000000000000000000000000 DUP2 MSTORE PUSH1 0x4 ADD PUSH2 0x1B65 SWAP1 PUSH2 0x8310 JUMP JUMPDEST PUSH1 0x40 MLOAD DUP1 SWAP2 SUB SWAP1 REVERT JUMPDEST PUSH1 0x8 PUSH0 DUP3 PUSH20 0xFFFFFFFFFFFFFFFFFFFFFFFFFFFFFFFFFFFFFFFF AND PUSH20 0xFFFFFFFFFFFFFFFFFFFFFFFFFFFFFFFFFFFFFFFF AND DUP2 MSTORE PUSH1 0x20 ADD SWAP1 DUP2 MSTORE PUSH1 0x20 ADD PUSH0 KECCAK256 PUSH0 SWAP1 SLOAD SWAP1 PUSH2 0x100 EXP SWAP1 DIV PUSH1 0xFF AND ISZERO PUSH2 0x1BF8 JUMPI PUSH1 0x40 MLOAD PUSH32 0x8C379A000000000000000000000000000000000000000000000000000000000 DUP2 MSTORE PUSH1 0x4 ADD PUSH2 0x1BEF SWAP1 PUSH2 0x8378 JUMP JUMPDEST PUSH1 0x40 MLOAD DUP1 SWAP2 SUB SWAP1 REVERT JUMPDEST PUSH2 0x1C00 PUSH2 0x69E6 JUMP JUMPDEST PUSH0 PUSH1 0x10 DUP2 SWAP1 SSTORE POP DUP1 PUSH1 0x1B PUSH0 PUSH2 0x100 EXP DUP2 SLOAD DUP2 PUSH20 0xFFFFFFFFFFFFFFFFFFFFFFFFFFFFFFFFFFFFFFFF MUL NOT AND SWAP1 DUP4 PUSH20 0xFFFFFFFFFFFFFFFFFFFFFFFFFFFFFFFFFFFFFFFF AND MUL OR SWAP1 SSTORE POP PUSH1 0x40 MLOAD DUP1 PUSH1 0x40 ADD PUSH1 0x40 MSTORE DUP1 PUSH1 0x3 DUP2 MSTORE PUSH1 0x20 ADD PUSH32 0x6164640000000000000000000000000000000000000000000000000000000000 DUP2 MSTORE POP PUSH1 0x1C SWAP1 DUP2 PUSH2 0x1C8B SWAP2 SWAP1 PUSH2 0x8022 JUMP JUMPDEST POP PUSH1 0x1 PUSH1 0x11 PUSH0 PUSH2 0x100 EXP DUP2 SLOAD DUP2 PUSH1 0xFF MUL NOT AND SWAP1 DUP4 ISZERO ISZERO MUL OR SWAP1 SSTORE POP PUSH1 0x40 MLOAD DUP1 PUSH1 0x40 ADD PUSH1 0x40 MSTORE DUP1 PUSH1 0xD DUP2 MSTORE PUSH1 0x20 ADD PUSH32 0x77686974656C6973745F61646400000000000000000000000000000000000000 DUP2 MSTORE POP PUSH1 0x12 SWAP1 DUP2 PUSH2 0x1CEA SWAP2 SWAP1 PUSH2 0x8022 JUMP JUMPDEST POP PUSH32 0xC645160BCA8C10087405A6BADA7A56C33D99BC539C2A803D599E21CB6D4FA4CE DUP2 PUSH1 0x40 MLOAD PUSH2 0x1D1A SWAP2 SWAP1 PUSH2 0x83E0 JUMP JUMPDEST PUSH1 0x40 MLOAD DUP1 SWAP2 SUB SWAP1 LOG1 POP JUMP JUMPDEST PUSH1 0x11 PUSH1 0x2 SWAP1 SLOAD SWAP1 PUSH2 0x100 EXP SWAP1 DIV PUSH1 0xFF AND ISZERO PUSH2 0x1D75 JUMPI PUSH1 0x40 MLOAD PUSH32 0x8C379A000000000000000000000000000000000000000000000000000000000 DUP2 MSTORE PUSH1 0x4 ADD PUSH2 0x1D6C SWAP1 PUSH2 0x79CE JUMP JUMPDEST PUSH1 0x40 MLOAD DUP1 SWAP2 SUB SWAP1 REVERT JUMPDEST PUSH1 0x11 PUSH0 SWAP1 SLOAD SWAP1 PUSH2 0x100 EXP SWAP1 DIV PUSH1 0xFF AND PUSH2 0x1DC3 JUMPI PUSH1 0x40 MLOAD PUSH32 0x8C379A000000000000000000000000000000000000000000000000000000000 DUP2 MSTORE PUSH1 0x4 ADD PUSH2 0x1DBA SWAP1 PUSH2 0x8456 JUMP JUMPDEST PUSH1 0x40 MLOAD DUP1 SWAP2 SUB SWAP1 REVERT JUMPDEST PUSH1 0x40 MLOAD PUSH1 0x20 ADD PUSH2 0x1DD2 SWAP1 PUSH2 0x84C8 JUMP JUMPDEST PUSH1 0x40 MLOAD PUSH1 0x20 DUP2 DUP4 SUB SUB DUP2 MSTORE SWAP1 PUSH1 0x40 MSTORE DUP1 MLOAD SWAP1 PUSH1 0x20 ADD KECCAK256 PUSH1 0x12 PUSH1 0x40 MLOAD PUSH1 0x20 ADD PUSH2 0x1DFA SWAP2 SWAP1 PUSH2 0x855C JUMP JUMPDEST PUSH1 0x40 MLOAD PUSH1 0x20 DUP2 DUP4 SUB SUB DUP2 MSTORE SWAP1 PUSH1 0x40 MSTORE DUP1 MLOAD SWAP1 PUSH1 0x20 ADD KECCAK256 EQ PUSH2 0x1E50 JUMPI PUSH1 0x40 MLOAD PUSH32 0x8C379A000000000000000000000000000000000000000000000000000000000 DUP2 MSTORE PUSH1 0x4 ADD PUSH2 0x1E47 SWAP1 PUSH2 0x85BC JUMP JUMPDEST PUSH1 0x40 MLOAD DUP1 SWAP2 SUB SWAP1 REVERT JUMPDEST PUSH1 0x3 PUSH1 0x10 SLOAD LT ISZERO PUSH2 0x1E96 JUMPI PUSH1 0x40 MLOAD PUSH32 0x8C379A000000000000000000000000000000000000000000000000000000000 DUP2 MSTORE PUSH1 0x4 ADD PUSH2 0x1E8D SWAP1 PUSH2 0x8624 JUMP JUMPDEST PUSH1 0x40 MLOAD DUP1 SWAP2 SUB SWAP1 REVERT JUMPDEST PUSH0 PUSH20 0xFFFFFFFFFFFFFFFFFFFFFFFFFFFFFFFFFFFFFFFF AND PUSH1 0x1D PUSH0 SWAP1 SLOAD SWAP1 PUSH2 0x100 EXP SWAP1 DIV PUSH20 0xFFFFFFFFFFFFFFFFFFFFFFFFFFFFFFFFFFFFFFFF AND PUSH20 0xFFFFFFFFFFFFFFFFFFFFFFFFFFFFFFFFFFFFFFFF AND SUB PUSH2 0x1F25 JUMPI PUSH1 0x40 MLOAD PUSH32 0x8C379A000000000000000000000000000000000000000000000000000000000 DUP2 MSTORE PUSH1 0x4 ADD PUSH2 0x1F1C SWAP1 PUSH2 0x868C JUMP JUMPDEST PUSH1 0x40 MLOAD DUP1 SWAP2 SUB SWAP1 REVERT JUMPDEST PUSH1 0xA PUSH0 PUSH1 0x1D PUSH0 SWAP1 SLOAD SWAP1 PUSH2 0x100 EXP SWAP1 DIV PUSH20 0xFFFFFFFFFFFFFFFFFFFFFFFFFFFFFFFFFFFFFFFF AND PUSH20 0xFFFFFFFFFFFFFFFFFFFFFFFFFFFFFFFFFFFFFFFF AND PUSH20 0xFFFFFFFFFFFFFFFFFFFFFFFFFFFFFFFFFFFFFFFF AND DUP2 MSTORE PUSH1 0x20 ADD SWAP1 DUP2 MSTORE PUSH1 0x20 ADD PUSH0 KECCAK256 PUSH0 SWAP1 SLOAD SWAP1 PUSH2 0x100 EXP SWAP1 DIV PUSH1 0xFF AND PUSH2 0x1FCF JUMPI PUSH1 0x40 MLOAD PUSH32 0x8C379A000000000000000000000000000000000000000000000000000000000 DUP2 MSTORE PUSH1 0x4 ADD PUSH2 0x1FC6 SWAP1 PUSH2 0x86F4 JUMP JUMPDEST PUSH1 0x40 MLOAD DUP1 SWAP2 SUB SWAP1 REVERT JUMPDEST PUSH0 PUSH1 0xA PUSH0 PUSH1 0x1D PUSH0 SWAP1 SLOAD SWAP1 PUSH2 0x100 EXP SWAP1 DIV PUSH20 0xFFFFFFFFFFFFFFFFFFFFFFFFFFFFFFFFFFFFFFFF AND PUSH20 0xFFFFFFFFFFFFFFFFFFFFFFFFFFFFFFFFFFFFFFFF AND PUSH20 0xFFFFFFFFFFFFFFFFFFFFFFFFFFFFFFFFFFFFFFFF AND DUP2 MSTORE PUSH1 0x20 ADD SWAP1 DUP2 MSTORE PUSH1 0x20 ADD PUSH0 KECCAK256 PUSH0 PUSH2 0x100 EXP DUP2 SLOAD DUP2 PUSH1 0xFF MUL NOT AND SWAP1 DUP4 ISZERO ISZERO MUL OR SWAP1 SSTORE POP PUSH0 PUSH1 0x11 PUSH0 PUSH2 0x100 EXP DUP2 SLOAD DUP2 PUSH1 0xFF MUL NOT AND SWAP1 DUP4 ISZERO ISZERO MUL OR SWAP1 SSTORE POP PUSH1 0x40 MLOAD DUP1 PUSH1 0x20 ADD PUSH1 0x40 MSTORE DUP1 PUSH0 DUP2 MSTORE POP PUSH1 0x12 SWAP1 DUP2 PUSH2 0x207A SWAP2 SWAP1 PUSH2 0x8022 JUMP JUMPDEST POP PUSH32 0x8F0390B9DB2EBDA5D3B655D41DA7F064F9CDA04183D9F8981BA63D951D0B9A44 PUSH1 0x1D PUSH0 SWAP1 SLOAD SWAP1 PUSH2 0x100 EXP SWAP1 DIV PUSH20 0xFFFFFFFFFFFFFFFFFFFFFFFFFFFFFFFFFFFFFFFF AND PUSH1 0x40 MLOAD PUSH2 0x20CB SWAP2 SWAP1 PUSH2 0x8734 JUMP JUMPDEST PUSH1 0x40 MLOAD DUP1 SWAP2 SUB SWAP1 LOG1 PUSH1 0x1D PUSH0 PUSH2 0x100 EXP DUP2 SLOAD SWAP1 PUSH20 0xFFFFFFFFFFFFFFFFFFFFFFFFFFFFFFFFFFFFFFFF MUL NOT AND SWAP1 SSTORE PUSH1 0x1E PUSH0 PUSH2 0x2104 SWAP2 SWAP1 PUSH2 0x71AF JUMP JUMPDEST JUMP JUMPDEST PUSH1 0x1A SLOAD DUP2 JUMP JUMPDEST PUSH2 0x2115 CALLER PUSH2 0x6944 JUMP JUMPDEST PUSH2 0x2154 JUMPI PUSH1 0x40 MLOAD PUSH32 0x8C379A000000000000000000000000000000000000000000000000000000000 DUP2 MSTORE PUSH1 0x4 ADD PUSH2 0x214B SWAP1 PUSH2 0x7CC4 JUMP JUMPDEST PUSH1 0x40 MLOAD DUP1 SWAP2 SUB SWAP1 REVERT JUMPDEST PUSH1 0x11 PUSH1 0x2 SWAP1 SLOAD SWAP1 PUSH2 0x100 EXP SWAP1 DIV PUSH1 0xFF AND ISZERO PUSH2 0x21A4 JUMPI PUSH1 0x40 MLOAD PUSH32 0x8C379A000000000000000000000000000000000000000000000000000000000 DUP2 MSTORE PUSH1 0x4 ADD PUSH2 0x219B SWAP1 PUSH2 0x79CE JUMP JUMPDEST PUSH1 0x40 MLOAD DUP1 SWAP2 SUB SWAP1 REVERT JUMPDEST PUSH1 0x11 PUSH0 SWAP1 SLOAD SWAP1 PUSH2 0x100 EXP SWAP1 DIV PUSH1 0xFF AND ISZERO PUSH2 0x21F3 JUMPI PUSH1 0x40 MLOAD PUSH32 0x8C379A000000000000000000000000000000000000000000000000000000000 DUP2 MSTORE PUSH1 0x4 ADD PUSH2 0x21EA SWAP1 PUSH2 0x7D2C JUMP JUMPDEST PUSH1 0x40 MLOAD DUP1 SWAP2 SUB SWAP1 REVERT JUMPDEST PUSH1 0xA PUSH0 DUP3 PUSH20 0xFFFFFFFFFFFFFFFFFFFFFFFFFFFFFFFFFFFFFFFF AND PUSH20 0xFFFFFFFFFFFFFFFFFFFFFFFFFFFFFFFFFFFFFFFF AND DUP2 MSTORE PUSH1 0x20 ADD SWAP1 DUP2 MSTORE PUSH1 0x20 ADD PUSH0 KECCAK256 PUSH0 SWAP1 SLOAD SWAP1 PUSH2 0x100 EXP SWAP1 DIV PUSH1 0xFF AND PUSH2 0x227C JUMPI PUSH1 0x40 MLOAD PUSH32 0x8C379A000000000000000000000000000000000000000000000000000000000 DUP2 MSTORE PUSH1 0x4 ADD PUSH2 0x2273 SWAP1 PUSH2 0x86F4 JUMP JUMPDEST PUSH1 0x40 MLOAD DUP1 SWAP2 SUB SWAP1 REVERT JUMPDEST PUSH2 0x2284 PUSH2 0x69E6 JUMP JUMPDEST PUSH0 PUSH1 0x10 DUP2 SWAP1 SSTORE POP DUP1 PUSH1 0x1D PUSH0 PUSH2 0x100 EXP DUP2 SLOAD DUP2 PUSH20 0xFFFFFFFFFFFFFFFFFFFFFFFFFFFFFFFFFFFFFFFF MUL NOT AND SWAP1 DUP4 PUSH20 0xFFFFFFFFFFFFFFFFFFFFFFFFFFFFFFFFFFFFFFFF AND MUL OR SWAP1 SSTORE POP PUSH1 0x40 MLOAD DUP1 PUSH1 0x40 ADD PUSH1 0x40 MSTORE DUP1 PUSH1 0x8 DUP2 MSTORE PUSH1 0x20 ADD PUSH32 0x756E667265657A65000000000000000000000000000000000000000000000000 DUP2 MSTORE POP PUSH1 0x1E SWAP1 DUP2 PUSH2 0x230F SWAP2 SWAP1 PUSH2 0x8022 JUMP JUMPDEST POP PUSH1 0x1 PUSH1 0x11 PUSH0 PUSH2 0x100 EXP DUP2 SLOAD DUP2 PUSH1 0xFF MUL NOT AND SWAP1 DUP4 ISZERO ISZERO MUL OR SWAP1 SSTORE POP PUSH1 0x40 MLOAD DUP1 PUSH1 0x40 ADD PUSH1 0x40 MSTORE DUP1 PUSH1 0x8 DUP2 MSTORE PUSH1 0x20 ADD PUSH32 0x756E667265657A65000000000000000000000000000000000000000000000000 DUP2 MSTORE POP PUSH1 0x12 SWAP1 DUP2 PUSH2 0x236E SWAP2 SWAP1 PUSH2 0x8022 JUMP JUMPDEST POP PUSH32 0x25C4E8317DC171F3714DCA5948D811428A109C026192134AD8978A6B3623A387 DUP2 PUSH1 0x40 MLOAD PUSH2 0x239E SWAP2 SWAP1 PUSH2 0x8734 JUMP JUMPDEST PUSH1 0x40 MLOAD DUP1 SWAP2 SUB SWAP1 LOG1 POP JUMP JUMPDEST PUSH2 0x23B2 CALLER PUSH2 0x6944 JUMP JUMPDEST PUSH2 0x23F1 JUMPI PUSH1 0x40 MLOAD PUSH32 0x8C379A000000000000000000000000000000000000000000000000000000000 DUP2 MSTORE PUSH1 0x4 ADD PUSH2 0x23E8 SWAP1 PUSH2 0x7CC4 JUMP JUMPDEST PUSH1 0x40 MLOAD DUP1 SWAP2 SUB SWAP1 REVERT JUMPDEST PUSH1 0x11 PUSH1 0x2 SWAP1 SLOAD SWAP1 PUSH2 0x100 EXP SWAP1 DIV PUSH1 0xFF AND ISZERO PUSH2 0x2441 JUMPI PUSH1 0x40 MLOAD PUSH32 0x8C379A000000000000000000000000000000000000000000000000000000000 DUP2 MSTORE PUSH1 0x4 ADD PUSH2 0x2438 SWAP1 PUSH2 0x79CE JUMP JUMPDEST PUSH1 0x40 MLOAD DUP1 SWAP2 SUB SWAP1 REVERT JUMPDEST PUSH1 0x5 PUSH1 0x10 SLOAD LT PUSH2 0x2486 JUMPI PUSH1 0x40 MLOAD PUSH32 0x8C379A000000000000000000000000000000000000000000000000000000000 DUP2 MSTORE PUSH1 0x4 ADD PUSH2 0x247D SWAP1 PUSH2 0x87AA JUMP JUMPDEST PUSH1 0x40 MLOAD DUP1 SWAP2 SUB SWAP1 REVERT JUMPDEST PUSH2 0x248E PUSH2 0x69E6 JUMP JUMPDEST PUSH0 PUSH1 0x10 DUP2 SWAP1 SSTORE POP PUSH1 0x1 PUSH1 0x11 PUSH1 0x2 PUSH2 0x100 EXP DUP2 SLOAD DUP2 PUSH1 0xFF MUL NOT AND SWAP1 DUP4 ISZERO ISZERO MUL OR SWAP1 SSTORE POP PUSH32 0xAB35696F06E428EBC5CEBA8CD17F8FED287BAF43440206D1943AF1EE53E6D267 PUSH1 0x40 MLOAD PUSH1 0x40 MLOAD DUP1 SWAP2 SUB SWAP1 LOG1 JUMP JUMPDEST PUSH1 0x11 PUSH1 0x2 SWAP1 SLOAD SWAP1 PUSH2 0x100 EXP SWAP1 DIV PUSH1 0xFF AND ISZERO PUSH2 0x252E JUMPI PUSH1 0x40 MLOAD PUSH32 0x8C379A000000000000000000000000000000000000000000000000000000000 DUP2 MSTORE PUSH1 0x4 ADD PUSH2 0x2525 SWAP1 PUSH2 0x79CE JUMP JUMPDEST PUSH1 0x40 MLOAD DUP1 SWAP2 SUB SWAP1 REVERT JUMPDEST PUSH1 0x11 PUSH0 SWAP1 SLOAD SWAP1 PUSH2 0x100 EXP SWAP1 DIV PUSH1 0xFF AND PUSH2 0x257C JUMPI PUSH1 0x40 MLOAD PUSH32 0x8C379A000000000000000000000000000000000000000000000000000000000 DUP2 MSTORE PUSH1 0x4 ADD PUSH2 0x2573 SWAP1 PUSH2 0x8456 JUMP JUMPDEST PUSH1 0x40 MLOAD DUP1 SWAP2 SUB SWAP1 REVERT JUMPDEST PUSH1 0x40 MLOAD PUSH1 0x20 ADD PUSH2 0x258B SWAP1 PUSH2 0x8812 JUMP JUMPDEST PUSH1 0x40 MLOAD PUSH1 0x20 DUP2 DUP4 SUB SUB DUP2 MSTORE SWAP1 PUSH1 0x40 MSTORE DUP1 MLOAD SWAP1 PUSH1 0x20 ADD KECCAK256 PUSH1 0x12 PUSH1 0x40 MLOAD PUSH1 0x20 ADD PUSH2 0x25B3 SWAP2 SWAP1 PUSH2 0x855C JUMP JUMPDEST PUSH1 0x40 MLOAD PUSH1 0x20 DUP2 DUP4 SUB SUB DUP2 MSTORE SWAP1 PUSH1 0x40 MSTORE DUP1 MLOAD SWAP1 PUSH1 0x20 ADD KECCAK256 EQ PUSH2 0x2609 JUMPI PUSH1 0x40 MLOAD PUSH32 0x8C379A000000000000000000000000000000000000000000000000000000000 DUP2 MSTORE PUSH1 0x4 ADD PUSH2 0x2600 SWAP1 PUSH2 0x85BC JUMP JUMPDEST PUSH1 0x40 MLOAD DUP1 SWAP2 SUB SWAP1 REVERT JUMPDEST PUSH1 0x1A SLOAD TIMESTAMP LT ISZERO PUSH2 0x264E JUMPI PUSH1 0x40 MLOAD PUSH32 0x8C379A000000000000000000000000000000000000000000000000000000000 DUP2 MSTORE PUSH1 0x4 ADD PUSH2 0x2645 SWAP1 PUSH2 0x8870 JUMP JUMPDEST PUSH1 0x40 MLOAD DUP1 SWAP2 SUB SWAP1 REVERT JUMPDEST PUSH1 0x5 PUSH1 0x10 SLOAD LT ISZERO PUSH2 0x2694 JUMPI PUSH1 0x40 MLOAD PUSH32 0x8C379A000000000000000000000000000000000000000000000000000000000 DUP2 MSTORE PUSH1 0x4 ADD PUSH2 0x268B SWAP1 PUSH2 0x8624 JUMP JUMPDEST PUSH1 0x40 MLOAD DUP1 SWAP2 SUB SWAP1 REVERT JUMPDEST PUSH0 PUSH1 0x18 DUP1 SLOAD SWAP1 POP GT PUSH2 0x26DB JUMPI PUSH1 0x40 MLOAD PUSH32 0x8C379A000000000000000000000000000000000000000000000000000000000 DUP2 MSTORE PUSH1 0x4 ADD PUSH2 0x26D2 SWAP1 PUSH2 0x88D8 JUMP JUMPDEST PUSH1 0x40 MLOAD DUP1 SWAP2 SUB SWAP1 REVERT JUMPDEST PUSH0 PUSH0 SWAP1 POP JUMPDEST PUSH1 0x18 DUP1 SLOAD SWAP1 POP DUP2 LT ISZERO PUSH2 0x29BA JUMPI PUSH2 0x2731 PUSH1 0x18 DUP3 DUP2 SLOAD DUP2 LT PUSH2 0x2704 JUMPI PUSH2 0x2703 PUSH2 0x88F6 JUMP JUMPDEST JUMPDEST SWAP1 PUSH0 MSTORE PUSH1 0x20 PUSH0 KECCAK256 ADD PUSH0 SWAP1 SLOAD SWAP1 PUSH2 0x100 EXP SWAP1 DIV PUSH20 0xFFFFFFFFFFFFFFFFFFFFFFFFFFFFFFFFFFFFFFFF AND PUSH2 0x6944 JUMP JUMPDEST PUSH2 0x2770 JUMPI PUSH1 0x40 MLOAD PUSH32 0x8C379A000000000000000000000000000000000000000000000000000000000 DUP2 MSTORE PUSH1 0x4 ADD PUSH2 0x2767 SWAP1 PUSH2 0x896D JUMP JUMPDEST PUSH1 0x40 MLOAD DUP1 SWAP2 SUB SWAP1 REVERT JUMPDEST PUSH0 PUSH20 0xFFFFFFFFFFFFFFFFFFFFFFFFFFFFFFFFFFFFFFFF AND PUSH1 0x19 DUP3 DUP2 SLOAD DUP2 LT PUSH2 0x279B JUMPI PUSH2 0x279A PUSH2 0x88F6 JUMP JUMPDEST JUMPDEST SWAP1 PUSH0 MSTORE PUSH1 0x20 PUSH0 KECCAK256 ADD PUSH0 SWAP1 SLOAD SWAP1 PUSH2 0x100 EXP SWAP1 DIV PUSH20 0xFFFFFFFFFFFFFFFFFFFFFFFFFFFFFFFFFFFFFFFF AND PUSH20 0xFFFFFFFFFFFFFFFFFFFFFFFFFFFFFFFFFFFFFFFF AND SUB PUSH2 0x2819 JUMPI PUSH1 0x40 MLOAD PUSH32 0x8C379A000000000000000000000000000000000000000000000000000000000 DUP2 MSTORE PUSH1 0x4 ADD PUSH2 0x2810 SWAP1 PUSH2 0x89D5 JUMP JUMPDEST PUSH1 0x40 MLOAD DUP1 SWAP2 SUB SWAP1 REVERT JUMPDEST PUSH2 0x285D PUSH1 0x19 DUP3 DUP2 SLOAD DUP2 LT PUSH2 0x2830 JUMPI PUSH2 0x282F PUSH2 0x88F6 JUMP JUMPDEST JUMPDEST SWAP1 PUSH0 MSTORE PUSH1 0x20 PUSH0 KECCAK256 ADD PUSH0 SWAP1 SLOAD SWAP1 PUSH2 0x100 EXP SWAP1 DIV PUSH20 0xFFFFFFFFFFFFFFFFFFFFFFFFFFFFFFFFFFFFFFFF AND PUSH2 0x6944 JUMP JUMPDEST ISZERO PUSH2 0x289D JUMPI PUSH1 0x40 MLOAD PUSH32 0x8C379A000000000000000000000000000000000000000000000000000000000 DUP2 MSTORE PUSH1 0x4 ADD PUSH2 0x2894 SWAP1 PUSH2 0x8A3D JUMP JUMPDEST PUSH1 0x40 MLOAD DUP1 SWAP2 SUB SWAP1 REVERT JUMPDEST PUSH0 PUSH1 0x1 DUP3 PUSH2 0x28AB SWAP2 SWAP1 PUSH2 0x7BB8 JUMP JUMPDEST SWAP1 POP JUMPDEST PUSH1 0x19 DUP1 SLOAD SWAP1 POP DUP2 LT ISZERO PUSH2 0x29AC JUMPI PUSH1 0x19 DUP2 DUP2 SLOAD DUP2 LT PUSH2 0x28CF JUMPI PUSH2 0x28CE PUSH2 0x88F6 JUMP JUMPDEST JUMPDEST SWAP1 PUSH0 MSTORE PUSH1 0x20 PUSH0 KECCAK256 ADD PUSH0 SWAP1 SLOAD SWAP1 PUSH2 0x100 EXP SWAP1 DIV PUSH20 0xFFFFFFFFFFFFFFFFFFFFFFFFFFFFFFFFFFFFFFFF AND PUSH20 0xFFFFFFFFFFFFFFFFFFFFFFFFFFFFFFFFFFFFFFFF AND PUSH1 0x19 DUP4 DUP2 SLOAD DUP2 LT PUSH2 0x2921 JUMPI PUSH2 0x2920 PUSH2 0x88F6 JUMP JUMPDEST JUMPDEST SWAP1 PUSH0 MSTORE PUSH1 0x20 PUSH0 KECCAK256 ADD PUSH0 SWAP1 SLOAD SWAP1 PUSH2 0x100 EXP SWAP1 DIV PUSH20 0xFFFFFFFFFFFFFFFFFFFFFFFFFFFFFFFFFFFFFFFF AND PUSH20 0xFFFFFFFFFFFFFFFFFFFFFFFFFFFFFFFFFFFFFFFF AND SUB PUSH2 0x299F JUMPI PUSH1 0x40 MLOAD PUSH32 0x8C379A000000000000000000000000000000000000000000000000000000000 DUP2 MSTORE PUSH1 0x4 ADD PUSH2 0x2996 SWAP1 PUSH2 0x8AA5 JUMP JUMPDEST PUSH1 0x40 MLOAD DUP1 SWAP2 SUB SWAP1 REVERT JUMPDEST DUP1 DUP1 PUSH1 0x1 ADD SWAP2 POP POP PUSH2 0x28AE JUMP JUMPDEST POP DUP1 DUP1 PUSH1 0x1 ADD SWAP2 POP POP PUSH2 0x26E0 JUMP JUMPDEST POP PUSH0 PUSH0 SWAP1 POP JUMPDEST PUSH1 0x18 DUP1 SLOAD SWAP1 POP DUP2 LT ISZERO PUSH2 0x2B3D JUMPI PUSH0 PUSH0 SWAP1 POP JUMPDEST PUSH1 0xE DUP1 SLOAD SWAP1 POP DUP2 LT ISZERO PUSH2 0x2B2F JUMPI PUSH1 0x18 DUP3 DUP2 SLOAD DUP2 LT PUSH2 0x29F3 JUMPI PUSH2 0x29F2 PUSH2 0x88F6 JUMP JUMPDEST JUMPDEST SWAP1 PUSH0 MSTORE PUSH1 0x20 PUSH0 KECCAK256 ADD PUSH0 SWAP1 SLOAD SWAP1 PUSH2 0x100 EXP SWAP1 DIV PUSH20 0xFFFFFFFFFFFFFFFFFFFFFFFFFFFFFFFFFFFFFFFF AND PUSH20 0xFFFFFFFFFFFFFFFFFFFFFFFFFFFFFFFFFFFFFFFF AND PUSH1 0xE DUP3 DUP2 SLOAD DUP2 LT PUSH2 0x2A45 JUMPI PUSH2 0x2A44 PUSH2 0x88F6 JUMP JUMPDEST JUMPDEST SWAP1 PUSH0 MSTORE PUSH1 0x20 PUSH0 KECCAK256 ADD PUSH0 SWAP1 SLOAD SWAP1 PUSH2 0x100 EXP SWAP1 DIV PUSH20 0xFFFFFFFFFFFFFFFFFFFFFFFFFFFFFFFFFFFFFFFF AND PUSH20 0xFFFFFFFFFFFFFFFFFFFFFFFFFFFFFFFFFFFFFFFF AND SUB PUSH2 0x2B22 JUMPI PUSH1 0x19 DUP3 DUP2 SLOAD DUP2 LT PUSH2 0x2A9C JUMPI PUSH2 0x2A9B PUSH2 0x88F6 JUMP JUMPDEST JUMPDEST SWAP1 PUSH0 MSTORE PUSH1 0x20 PUSH0 KECCAK256 ADD PUSH0 SWAP1 SLOAD SWAP1 PUSH2 0x100 EXP SWAP1 DIV PUSH20 0xFFFFFFFFFFFFFFFFFFFFFFFFFFFFFFFFFFFFFFFF AND PUSH1 0xE DUP3 DUP2 SLOAD DUP2 LT PUSH2 0x2AD8 JUMPI PUSH2 0x2AD7 PUSH2 0x88F6 JUMP JUMPDEST JUMPDEST SWAP1 PUSH0 MSTORE PUSH1 0x20 PUSH0 KECCAK256 ADD PUSH0 PUSH2 0x100 EXP DUP2 SLOAD DUP2 PUSH20 0xFFFFFFFFFFFFFFFFFFFFFFFFFFFFFFFFFFFFFFFF MUL NOT AND SWAP1 DUP4 PUSH20 0xFFFFFFFFFFFFFFFFFFFFFFFFFFFFFFFFFFFFFFFF AND MUL OR SWAP1 SSTORE POP PUSH2 0x2B2F JUMP JUMPDEST DUP1 DUP1 PUSH1 0x1 ADD SWAP2 POP POP PUSH2 0x29D2 JUMP JUMPDEST POP DUP1 DUP1 PUSH1 0x1 ADD SWAP2 POP POP PUSH2 0x29C0 JUMP JUMPDEST POP PUSH0 PUSH1 0x11 PUSH0 PUSH2 0x100 EXP DUP2 SLOAD DUP2 PUSH1 0xFF MUL NOT AND SWAP1 DUP4 ISZERO ISZERO MUL OR SWAP1 SSTORE POP PUSH1 0x40 MLOAD DUP1 PUSH1 0x20 ADD PUSH1 0x40 MSTORE DUP1 PUSH0 DUP2 MSTORE POP PUSH1 0x12 SWAP1 DUP2 PUSH2 0x2B74 SWAP2 SWAP1 PUSH2 0x8022 JUMP JUMPDEST POP PUSH0 PUSH1 0x13 PUSH0 PUSH2 0x100 EXP DUP2 SLOAD DUP2 PUSH20 0xFFFFFFFFFFFFFFFFFFFFFFFFFFFFFFFFFFFFFFFF MUL NOT AND SWAP1 DUP4 PUSH20 0xFFFFFFFFFFFFFFFFFFFFFFFFFFFFFFFFFFFFFFFF AND MUL OR SWAP1 SSTORE POP PUSH32 0x765616CA75E38E63DCC130430614A01FA91BFE57744073B30BF8F4BA8FA31FFC PUSH1 0x18 PUSH1 0x19 PUSH1 0x40 MLOAD PUSH2 0x2BE8 SWAP3 SWAP2 SWAP1 PUSH2 0x8BD9 JUMP JUMPDEST PUSH1 0x40 MLOAD DUP1 SWAP2 SUB SWAP1 LOG1 PUSH1 0x18 PUSH0 PUSH2 0x2BFD SWAP2 SWAP1 PUSH2 0x71EC JUMP JUMPDEST PUSH1 0x19 PUSH0 PUSH2 0x2C0A SWAP2 SWAP1 PUSH2 0x71EC JUMP JUMPDEST PUSH1 0x1A PUSH0 SWAP1 SSTORE JUMP JUMPDEST PUSH1 0x11 PUSH1 0x2 SWAP1 SLOAD SWAP1 PUSH2 0x100 EXP SWAP1 DIV PUSH1 0xFF AND ISZERO PUSH2 0x2C61 JUMPI PUSH1 0x40 MLOAD PUSH32 0x8C379A000000000000000000000000000000000000000000000000000000000 DUP2 MSTORE PUSH1 0x4 ADD PUSH2 0x2C58 SWAP1 PUSH2 0x79CE JUMP JUMPDEST PUSH1 0x40 MLOAD DUP1 SWAP2 SUB SWAP1 REVERT JUMPDEST PUSH1 0x11 PUSH0 SWAP1 SLOAD SWAP1 PUSH2 0x100 EXP SWAP1 DIV PUSH1 0xFF AND PUSH2 0x2CAF JUMPI PUSH1 0x40 MLOAD PUSH32 0x8C379A000000000000000000000000000000000000000000000000000000000 DUP2 MSTORE PUSH1 0x4 ADD PUSH2 0x2CA6 SWAP1 PUSH2 0x8456 JUMP JUMPDEST PUSH1 0x40 MLOAD DUP1 SWAP2 SUB SWAP1 REVERT JUMPDEST PUSH1 0x40 MLOAD PUSH1 0x20 ADD PUSH2 0x2CBE SWAP1 PUSH2 0x8C58 JUMP JUMPDEST PUSH1 0x40 MLOAD PUSH1 0x20 DUP2 DUP4 SUB SUB DUP2 MSTORE SWAP1 PUSH1 0x40 MSTORE DUP1 MLOAD SWAP1 PUSH1 0x20 ADD KECCAK256 PUSH1 0x12 PUSH1 0x40 MLOAD PUSH1 0x20 ADD PUSH2 0x2CE6 SWAP2 SWAP1 PUSH2 0x855C JUMP JUMPDEST PUSH1 0x40 MLOAD PUSH1 0x20 DUP2 DUP4 SUB SUB DUP2 MSTORE SWAP1 PUSH1 0x40 MSTORE DUP1 MLOAD SWAP1 PUSH1 0x20 ADD KECCAK256 EQ PUSH2 0x2D3C JUMPI PUSH1 0x40 MLOAD PUSH32 0x8C379A000000000000000000000000000000000000000000000000000000000 DUP2 MSTORE PUSH1 0x4 ADD PUSH2 0x2D33 SWAP1 PUSH2 0x85BC JUMP JUMPDEST PUSH1 0x40 MLOAD DUP1 SWAP2 SUB SWAP1 REVERT JUMPDEST PUSH1 0x3 PUSH1 0x10 SLOAD LT ISZERO PUSH2 0x2D82 JUMPI PUSH1 0x40 MLOAD PUSH32 0x8C379A000000000000000000000000000000000000000000000000000000000 DUP2 MSTORE PUSH1 0x4 ADD PUSH2 0x2D79 SWAP1 PUSH2 0x8624 JUMP JUMPDEST PUSH1 0x40 MLOAD DUP1 SWAP2 SUB SWAP1 REVERT JUMPDEST PUSH0 PUSH20 0xFFFFFFFFFFFFFFFFFFFFFFFFFFFFFFFFFFFFFFFF AND PUSH1 0x1D PUSH0 SWAP1 SLOAD SWAP1 PUSH2 0x100 EXP SWAP1 DIV PUSH20 0xFFFFFFFFFFFFFFFFFFFFFFFFFFFFFFFFFFFFFFFF AND PUSH20 0xFFFFFFFFFFFFFFFFFFFFFFFFFFFFFFFFFFFFFFFF AND SUB PUSH2 0x2E11 JUMPI PUSH1 0x40 MLOAD PUSH32 0x8C379A000000000000000000000000000000000000000000000000000000000 DUP2 MSTORE PUSH1 0x4 ADD PUSH2 0x2E08 SWAP1 PUSH2 0x868C JUMP JUMPDEST PUSH1 0x40 MLOAD DUP1 SWAP2 SUB SWAP1 REVERT JUMPDEST PUSH1 0xA PUSH0 PUSH1 0x1D PUSH0 SWAP1 SLOAD SWAP1 PUSH2 0x100 EXP SWAP1 DIV PUSH20 0xFFFFFFFFFFFFFFFFFFFFFFFFFFFFFFFFFFFFFFFF AND PUSH20 0xFFFFFFFFFFFFFFFFFFFFFFFFFFFFFFFFFFFFFFFF AND PUSH20 0xFFFFFFFFFFFFFFFFFFFFFFFFFFFFFFFFFFFFFFFF AND DUP2 MSTORE PUSH1 0x20 ADD SWAP1 DUP2 MSTORE PUSH1 0x20 ADD PUSH0 KECCAK256 PUSH0 SWAP1 SLOAD SWAP1 PUSH2 0x100 EXP SWAP1 DIV PUSH1 0xFF AND ISZERO PUSH2 0x2EBC JUMPI PUSH1 0x40 MLOAD PUSH32 0x8C379A000000000000000000000000000000000000000000000000000000000 DUP2 MSTORE PUSH1 0x4 ADD PUSH2 0x2EB3 SWAP1 PUSH2 0x8CB6 JUMP JUMPDEST PUSH1 0x40 MLOAD DUP1 SWAP2 SUB SWAP1 REVERT JUMPDEST PUSH1 0x1 PUSH1 0xA PUSH0 PUSH1 0x1D PUSH0 SWAP1 SLOAD SWAP1 PUSH2 0x100 EXP SWAP1 DIV PUSH20 0xFFFFFFFFFFFFFFFFFFFFFFFFFFFFFFFFFFFFFFFF AND PUSH20 0xFFFFFFFFFFFFFFFFFFFFFFFFFFFFFFFFFFFFFFFF AND PUSH20 0xFFFFFFFFFFFFFFFFFFFFFFFFFFFFFFFFFFFFFFFF AND DUP2 MSTORE PUSH1 0x20 ADD SWAP1 DUP2 MSTORE PUSH1 0x20 ADD PUSH0 KECCAK256 PUSH0 PUSH2 0x100 EXP DUP2 SLOAD DUP2 PUSH1 0xFF MUL NOT AND SWAP1 DUP4 ISZERO ISZERO MUL OR SWAP1 SSTORE POP PUSH0 PUSH1 0x11 PUSH0 PUSH2 0x100 EXP DUP2 SLOAD DUP2 PUSH1 0xFF MUL NOT AND SWAP1 DUP4 ISZERO ISZERO MUL OR SWAP1 SSTORE POP PUSH1 0x40 MLOAD DUP1 PUSH1 0x20 ADD PUSH1 0x40 MSTORE DUP1 PUSH0 DUP2 MSTORE POP PUSH1 0x12 SWAP1 DUP2 PUSH2 0x2F68 SWAP2 SWAP1 PUSH2 0x8022 JUMP JUMPDEST POP PUSH32 0x8F0390B9DB2EBDA5D3B655D41DA7F064F9CDA04183D9F8981BA63D951D0B9A44 PUSH1 0x1D PUSH0 SWAP1 SLOAD SWAP1 PUSH2 0x100 EXP SWAP1 DIV PUSH20 0xFFFFFFFFFFFFFFFFFFFFFFFFFFFFFFFFFFFFFFFF AND PUSH1 0x40 MLOAD PUSH2 0x2FB9 SWAP2 SWAP1 PUSH2 0x8CF6 JUMP JUMPDEST PUSH1 0x40 MLOAD DUP1 SWAP2 SUB SWAP1 LOG1 PUSH1 0x1D PUSH0 PUSH2 0x100 EXP DUP2 SLOAD SWAP1 PUSH20 0xFFFFFFFFFFFFFFFFFFFFFFFFFFFFFFFFFFFFFFFF MUL NOT AND SWAP1 SSTORE PUSH1 0x1E PUSH0 PUSH2 0x2FF2 SWAP2 SWAP1 PUSH2 0x71AF JUMP JUMPDEST JUMP JUMPDEST PUSH1 0x20 SLOAD DUP2 JUMP JUMPDEST PUSH2 0x3003 CALLER PUSH2 0x6944 JUMP JUMPDEST PUSH2 0x3042 JUMPI PUSH1 0x40 MLOAD PUSH32 0x8C379A000000000000000000000000000000000000000000000000000000000 DUP2 MSTORE PUSH1 0x4 ADD PUSH2 0x3039 SWAP1 PUSH2 0x7CC4 JUMP JUMPDEST PUSH1 0x40 MLOAD DUP1 SWAP2 SUB SWAP1 REVERT JUMPDEST PUSH1 0x11 PUSH1 0x2 SWAP1 SLOAD SWAP1 PUSH2 0x100 EXP SWAP1 DIV PUSH1 0xFF AND ISZERO PUSH2 0x3092 JUMPI PUSH1 0x40 MLOAD PUSH32 0x8C379A000000000000000000000000000000000000000000000000000000000 DUP2 MSTORE PUSH1 0x4 ADD PUSH2 0x3089 SWAP1 PUSH2 0x79CE JUMP JUMPDEST PUSH1 0x40 MLOAD DUP1 SWAP2 SUB SWAP1 REVERT JUMPDEST PUSH1 0x11 PUSH0 SWAP1 SLOAD SWAP1 PUSH2 0x100 EXP SWAP1 DIV PUSH1 0xFF AND ISZERO PUSH2 0x30E1 JUMPI PUSH1 0x40 MLOAD PUSH32 0x8C379A000000000000000000000000000000000000000000000000000000000 DUP2 MSTORE PUSH1 0x4 ADD PUSH2 0x30D8 SWAP1 PUSH2 0x7D2C JUMP JUMPDEST PUSH1 0x40 MLOAD DUP1 SWAP2 SUB SWAP1 REVERT JUMPDEST PUSH0 DUP2 PUSH1 0x7 SIGNEXTEND SUB PUSH2 0x3126 JUMPI PUSH1 0x40 MLOAD PUSH32 0x8C379A000000000000000000000000000000000000000000000000000000000 DUP2 MSTORE PUSH1 0x4 ADD PUSH2 0x311D SWAP1 PUSH2 0x8D92 JUMP JUMPDEST PUSH1 0x40 MLOAD DUP1 SWAP2 SUB SWAP1 REVERT JUMPDEST PUSH1 0xC SLOAD DUP2 PUSH1 0x7 SIGNEXTEND PUSH1 0x7 SLOAD PUSH2 0x313A SWAP2 SWAP1 PUSH2 0x8DB9 JUMP JUMPDEST SLT ISZERO PUSH2 0x317B JUMPI PUSH1 0x40 MLOAD PUSH32 0x8C379A000000000000000000000000000000000000000000000000000000000 DUP2 MSTORE PUSH1 0x4 ADD PUSH2 0x3172 SWAP1 PUSH2 0x8E6A JUMP JUMPDEST PUSH1 0x40 MLOAD DUP1 SWAP2 SUB SWAP1 REVERT JUMPDEST PUSH0 DUP2 PUSH1 0x7 SIGNEXTEND PUSH1 0x7 SLOAD PUSH2 0x318D SWAP2 SWAP1 PUSH2 0x8DB9 JUMP JUMPDEST SLT ISZERO PUSH2 0x31CE JUMPI PUSH1 0x40 MLOAD PUSH32 0x8C379A000000000000000000000000000000000000000000000000000000000 DUP2 MSTORE PUSH1 0x4 ADD PUSH2 0x31C5 SWAP1 PUSH2 0x8ED2 JUMP JUMPDEST PUSH1 0x40 MLOAD DUP1 SWAP2 SUB SWAP1 REVERT JUMPDEST PUSH2 0x31D6 PUSH2 0x69E6 JUMP JUMPDEST PUSH0 PUSH1 0x10 DUP2 SWAP1 SSTORE POP DUP1 PUSH1 0x16 PUSH0 PUSH2 0x100 EXP DUP2 SLOAD DUP2 PUSH8 0xFFFFFFFFFFFFFFFF MUL NOT AND SWAP1 DUP4 PUSH1 0x7 SIGNEXTEND PUSH8 0xFFFFFFFFFFFFFFFF AND MUL OR SWAP1 SSTORE POP PUSH1 0x1 PUSH1 0x11 PUSH0 PUSH2 0x100 EXP DUP2 SLOAD DUP2 PUSH1 0xFF MUL NOT AND SWAP1 DUP4 ISZERO ISZERO MUL OR SWAP1 SSTORE POP PUSH1 0x40 MLOAD DUP1 PUSH1 0x40 ADD PUSH1 0x40 MSTORE DUP1 PUSH1 0x11 DUP2 MSTORE PUSH1 0x20 ADD PUSH32 0x61646A757374546F74616C537570706C79000000000000000000000000000000 DUP2 MSTORE POP PUSH1 0x12 SWAP1 DUP2 PUSH2 0x3266 SWAP2 SWAP1 PUSH2 0x8022 JUMP JUMPDEST POP CALLER PUSH1 0x13 PUSH0 PUSH2 0x100 EXP DUP2 SLOAD DUP2 PUSH20 0xFFFFFFFFFFFFFFFFFFFFFFFFFFFFFFFFFFFFFFFF MUL NOT AND SWAP1 DUP4 PUSH20 0xFFFFFFFFFFFFFFFFFFFFFFFFFFFFFFFFFFFFFFFF AND MUL OR SWAP1 SSTORE POP PUSH32 0xD2F48A8BA1A2294122838A160554DC0DDE0E0C57003527E53FFC207863953D3B DUP2 CALLER PUSH1 0x40 MLOAD PUSH2 0x32D8 SWAP3 SWAP2 SWAP1 PUSH2 0x8EF0 JUMP JUMPDEST PUSH1 0x40 MLOAD DUP1 SWAP2 SUB SWAP1 LOG1 POP JUMP JUMPDEST PUSH1 0x15 DUP1 SLOAD PUSH2 0x32F0 SWAP1 PUSH2 0x7954 JUMP JUMPDEST DUP1 PUSH1 0x1F ADD PUSH1 0x20 DUP1 SWAP2 DIV MUL PUSH1 0x20 ADD PUSH1 0x40 MLOAD SWAP1 DUP2 ADD PUSH1 0x40 MSTORE DUP1 SWAP3 SWAP2 SWAP1 DUP2 DUP2 MSTORE PUSH1 0x20 ADD DUP3 DUP1 SLOAD PUSH2 0x331C SWAP1 PUSH2 0x7954 JUMP JUMPDEST DUP1 ISZERO PUSH2 0x3367 JUMPI DUP1 PUSH1 0x1F LT PUSH2 0x333E JUMPI PUSH2 0x100 DUP1 DUP4 SLOAD DIV MUL DUP4 MSTORE SWAP2 PUSH1 0x20 ADD SWAP2 PUSH2 0x3367 JUMP JUMPDEST DUP3 ADD SWAP2 SWAP1 PUSH0 MSTORE PUSH1 0x20 PUSH0 KECCAK256 SWAP1 JUMPDEST DUP2 SLOAD DUP2 MSTORE SWAP1 PUSH1 0x1 ADD SWAP1 PUSH1 0x20 ADD DUP1 DUP4 GT PUSH2 0x334A JUMPI DUP3 SWAP1 SUB PUSH1 0x1F AND DUP3 ADD SWAP2 JUMPDEST POP POP POP POP POP DUP2 JUMP JUMPDEST PUSH1 0x1F PUSH0 SWAP1 SLOAD SWAP1 PUSH2 0x100 EXP SWAP1 DIV PUSH20 0xFFFFFFFFFFFFFFFFFFFFFFFFFFFFFFFFFFFFFFFF AND DUP2 JUMP JUMPDEST PUSH1 0x11 PUSH1 0x2 SWAP1 SLOAD SWAP1 PUSH2 0x100 EXP SWAP1 DIV PUSH1 0xFF AND ISZERO PUSH2 0x33E4 JUMPI PUSH1 0x40 MLOAD PUSH32 0x8C379A000000000000000000000000000000000000000000000000000000000 DUP2 MSTORE PUSH1 0x4 ADD PUSH2 0x33DB SWAP1 PUSH2 0x79CE JUMP JUMPDEST PUSH1 0x40 MLOAD DUP1 SWAP2 SUB SWAP1 REVERT JUMPDEST PUSH1 0x11 PUSH0 SWAP1 SLOAD SWAP1 PUSH2 0x100 EXP SWAP1 DIV PUSH1 0xFF AND PUSH2 0x3432 JUMPI PUSH1 0x40 MLOAD PUSH32 0x8C379A000000000000000000000000000000000000000000000000000000000 DUP2 MSTORE PUSH1 0x4 ADD PUSH2 0x3429 SWAP1 PUSH2 0x8456 JUMP JUMPDEST PUSH1 0x40 MLOAD DUP1 SWAP2 SUB SWAP1 REVERT JUMPDEST PUSH1 0x40 MLOAD PUSH1 0x20 ADD PUSH2 0x3441 SWAP1 PUSH2 0x8F61 JUMP JUMPDEST PUSH1 0x40 MLOAD PUSH1 0x20 DUP2 DUP4 SUB SUB DUP2 MSTORE SWAP1 PUSH1 0x40 MSTORE DUP1 MLOAD SWAP1 PUSH1 0x20 ADD KECCAK256 PUSH1 0x12 PUSH1 0x40 MLOAD PUSH1 0x20 ADD PUSH2 0x3469 SWAP2 SWAP1 PUSH2 0x855C JUMP JUMPDEST PUSH1 0x40 MLOAD PUSH1 0x20 DUP2 DUP4 SUB SUB DUP2 MSTORE SWAP1 PUSH1 0x40 MSTORE DUP1 MLOAD SWAP1 PUSH1 0x20 ADD KECCAK256 EQ PUSH2 0x34BF JUMPI PUSH1 0x40 MLOAD PUSH32 0x8C379A000000000000000000000000000000000000000000000000000000000 DUP2 MSTORE PUSH1 0x4 ADD PUSH2 0x34B6 SWAP1 PUSH2 0x85BC JUMP JUMPDEST PUSH1 0x40 MLOAD DUP1 SWAP2 SUB SWAP1 REVERT JUMPDEST PUSH1 0x3 PUSH1 0x10 SLOAD LT ISZERO PUSH2 0x3505 JUMPI PUSH1 0x40 MLOAD PUSH32 0x8C379A000000000000000000000000000000000000000000000000000000000 DUP2 MSTORE PUSH1 0x4 ADD PUSH2 0x34FC SWAP1 PUSH2 0x8624 JUMP JUMPDEST PUSH1 0x40 MLOAD DUP1 SWAP2 SUB SWAP1 REVERT JUMPDEST PUSH0 PUSH20 0xFFFFFFFFFFFFFFFFFFFFFFFFFFFFFFFFFFFFFFFF AND PUSH1 0x1B PUSH0 SWAP1 SLOAD SWAP1 PUSH2 0x100 EXP SWAP1 DIV PUSH20 0xFFFFFFFFFFFFFFFFFFFFFFFFFFFFFFFFFFFFFFFF AND PUSH20 0xFFFFFFFFFFFFFFFFFFFFFFFFFFFFFFFFFFFFFFFF AND SUB PUSH2 0x3594 JUMPI PUSH1 0x40 MLOAD PUSH32 0x8C379A000000000000000000000000000000000000000000000000000000000 DUP2 MSTORE PUSH1 0x4 ADD PUSH2 0x358B SWAP1 PUSH2 0x8FBF JUMP JUMPDEST PUSH1 0x40 MLOAD DUP1 SWAP2 SUB SWAP1 REVERT JUMPDEST PUSH1 0x8 PUSH0 PUSH1 0x1B PUSH0 SWAP1 SLOAD SWAP1 PUSH2 0x100 EXP SWAP1 DIV PUSH20 0xFFFFFFFFFFFFFFFFFFFFFFFFFFFFFFFFFFFFFFFF AND PUSH20 0xFFFFFFFFFFFFFFFFFFFFFFFFFFFFFFFFFFFFFFFF AND PUSH20 0xFFFFFFFFFFFFFFFFFFFFFFFFFFFFFFFFFFFFFFFF AND DUP2 MSTORE PUSH1 0x20 ADD SWAP1 DUP2 MSTORE PUSH1 0x20 ADD PUSH0 KECCAK256 PUSH0 SWAP1 SLOAD SWAP1 PUSH2 0x100 EXP SWAP1 DIV PUSH1 0xFF AND PUSH2 0x363E JUMPI PUSH1 0x40 MLOAD PUSH32 0x8C379A000000000000000000000000000000000000000000000000000000000 DUP2 MSTORE PUSH1 0x4 ADD PUSH2 0x3635 SWAP1 PUSH2 0x8162 JUMP JUMPDEST PUSH1 0x40 MLOAD DUP1 SWAP2 SUB SWAP1 REVERT JUMPDEST PUSH0 PUSH1 0x8 PUSH0 PUSH1 0x1B PUSH0 SWAP1 SLOAD SWAP1 PUSH2 0x100 EXP SWAP1 DIV PUSH20 0xFFFFFFFFFFFFFFFFFFFFFFFFFFFFFFFFFFFFFFFF AND PUSH20 0xFFFFFFFFFFFFFFFFFFFFFFFFFFFFFFFFFFFFFFFF AND PUSH20 0xFFFFFFFFFFFFFFFFFFFFFFFFFFFFFFFFFFFFFFFF AND DUP2 MSTORE PUSH1 0x20 ADD SWAP1 DUP2 MSTORE PUSH1 0x20 ADD PUSH0 KECCAK256 PUSH0 PUSH2 0x100 EXP DUP2 SLOAD DUP2 PUSH1 0xFF MUL NOT AND SWAP1 DUP4 ISZERO ISZERO MUL OR SWAP1 SSTORE POP PUSH0 PUSH0 SWAP1 POP JUMPDEST PUSH1 0x9 DUP1 SLOAD SWAP1 POP DUP2 LT ISZERO PUSH2 0x3850 JUMPI PUSH1 0x1B PUSH0 SWAP1 SLOAD SWAP1 PUSH2 0x100 EXP SWAP1 DIV PUSH20 0xFFFFFFFFFFFFFFFFFFFFFFFFFFFFFFFFFFFFFFFF AND PUSH20 0xFFFFFFFFFFFFFFFFFFFFFFFFFFFFFFFFFFFFFFFF AND PUSH1 0x9 DUP3 DUP2 SLOAD DUP2 LT PUSH2 0x3711 JUMPI PUSH2 0x3710 PUSH2 0x88F6 JUMP JUMPDEST JUMPDEST SWAP1 PUSH0 MSTORE PUSH1 0x20 PUSH0 KECCAK256 ADD PUSH0 SWAP1 SLOAD SWAP1 PUSH2 0x100 EXP SWAP1 DIV PUSH20 0xFFFFFFFFFFFFFFFFFFFFFFFFFFFFFFFFFFFFFFFF AND PUSH20 0xFFFFFFFFFFFFFFFFFFFFFFFFFFFFFFFFFFFFFFFF AND SUB PUSH2 0x3843 JUMPI PUSH1 0x9 PUSH1 0x1 PUSH1 0x9 DUP1 SLOAD SWAP1 POP PUSH2 0x3768 SWAP2 SWAP1 PUSH2 0x8FDD JUMP JUMPDEST DUP2 SLOAD DUP2 LT PUSH2 0x3779 JUMPI PUSH2 0x3778 PUSH2 0x88F6 JUMP JUMPDEST JUMPDEST SWAP1 PUSH0 MSTORE PUSH1 0x20 PUSH0 KECCAK256 ADD PUSH0 SWAP1 SLOAD SWAP1 PUSH2 0x100 EXP SWAP1 DIV PUSH20 0xFFFFFFFFFFFFFFFFFFFFFFFFFFFFFFFFFFFFFFFF AND PUSH1 0x9 DUP3 DUP2 SLOAD DUP2 LT PUSH2 0x37B5 JUMPI PUSH2 0x37B4 PUSH2 0x88F6 JUMP JUMPDEST JUMPDEST SWAP1 PUSH0 MSTORE PUSH1 0x20 PUSH0 KECCAK256 ADD PUSH0 PUSH2 0x100 EXP DUP2 SLOAD DUP2 PUSH20 0xFFFFFFFFFFFFFFFFFFFFFFFFFFFFFFFFFFFFFFFF MUL NOT AND SWAP1 DUP4 PUSH20 0xFFFFFFFFFFFFFFFFFFFFFFFFFFFFFFFFFFFFFFFF AND MUL OR SWAP1 SSTORE POP PUSH1 0x9 DUP1 SLOAD DUP1 PUSH2 0x380C JUMPI PUSH2 0x380B PUSH2 0x9010 JUMP JUMPDEST JUMPDEST PUSH1 0x1 SWAP1 SUB DUP2 DUP2 SWAP1 PUSH0 MSTORE PUSH1 0x20 PUSH0 KECCAK256 ADD PUSH0 PUSH2 0x100 EXP DUP2 SLOAD SWAP1 PUSH20 0xFFFFFFFFFFFFFFFFFFFFFFFFFFFFFFFFFFFFFFFF MUL NOT AND SWAP1 SSTORE SWAP1 SSTORE PUSH2 0x3850 JUMP JUMPDEST DUP1 DUP1 PUSH1 0x1 ADD SWAP2 POP POP PUSH2 0x36B8 JUMP JUMPDEST POP PUSH0 PUSH1 0x11 PUSH0 PUSH2 0x100 EXP DUP2 SLOAD DUP2 PUSH1 0xFF MUL NOT AND SWAP1 DUP4 ISZERO ISZERO MUL OR SWAP1 SSTORE POP PUSH1 0x40 MLOAD DUP1 PUSH1 0x20 ADD PUSH1 0x40 MSTORE DUP1 PUSH0 DUP2 MSTORE POP PUSH1 0x12 SWAP1 DUP2 PUSH2 0x3887 SWAP2 SWAP1 PUSH2 0x8022 JUMP JUMPDEST POP PUSH32 0x7008E45448AD5AA92D72EC64B89807038870139694F96BE53E604AAB0426844D PUSH1 0x1B PUSH0 SWAP1 SLOAD SWAP1 PUSH2 0x100 EXP SWAP1 DIV PUSH20 0xFFFFFFFFFFFFFFFFFFFFFFFFFFFFFFFFFFFFFFFF AND PUSH1 0x40 MLOAD PUSH2 0x38D8 SWAP2 SWAP1 PUSH2 0x81CA JUMP JUMPDEST PUSH1 0x40 MLOAD DUP1 SWAP2 SUB SWAP1 LOG1 PUSH1 0x1B PUSH0 PUSH2 0x100 EXP DUP2 SLOAD SWAP1 PUSH20 0xFFFFFFFFFFFFFFFFFFFFFFFFFFFFFFFFFFFFFFFF MUL NOT AND SWAP1 SSTORE PUSH1 0x1C PUSH0 PUSH2 0x3911 SWAP2 SWAP1 PUSH2 0x71AF JUMP JUMPDEST JUMP JUMPDEST PUSH1 0x60 PUSH1 0x40 MLOAD DUP1 PUSH1 0x40 ADD PUSH1 0x40 MSTORE DUP1 PUSH1 0x5 DUP2 MSTORE PUSH1 0x20 ADD PUSH32 0x312E302E30000000000000000000000000000000000000000000000000000000 DUP2 MSTORE POP SWAP1 POP SWAP1 JUMP JUMPDEST PUSH2 0x3959 CALLER PUSH2 0x6944 JUMP JUMPDEST PUSH2 0x3998 JUMPI PUSH1 0x40 MLOAD PUSH32 0x8C379A000000000000000000000000000000000000000000000000000000000 DUP2 MSTORE PUSH1 0x4 ADD PUSH2 0x398F SWAP1 PUSH2 0x7CC4 JUMP JUMPDEST PUSH1 0x40 MLOAD DUP1 SWAP2 SUB SWAP1 REVERT JUMPDEST PUSH1 0x11 PUSH1 0x2 SWAP1 SLOAD SWAP1 PUSH2 0x100 EXP SWAP1 DIV PUSH1 0xFF AND ISZERO PUSH2 0x39E8 JUMPI PUSH1 0x40 MLOAD PUSH32 0x8C379A000000000000000000000000000000000000000000000000000000000 DUP2 MSTORE PUSH1 0x4 ADD PUSH2 0x39DF SWAP1 PUSH2 0x79CE JUMP JUMPDEST PUSH1 0x40 MLOAD DUP1 SWAP2 SUB SWAP1 REVERT JUMPDEST PUSH1 0x11 PUSH0 SWAP1 SLOAD SWAP1 PUSH2 0x100 EXP SWAP1 DIV PUSH1 0xFF AND ISZERO PUSH2 0x3A37 JUMPI PUSH1 0x40 MLOAD PUSH32 0x8C379A000000000000000000000000000000000000000000000000000000000 DUP2 MSTORE PUSH1 0x4 ADD PUSH2 0x3A2E SWAP1 PUSH2 0x7D2C JUMP JUMPDEST PUSH1 0x40 MLOAD DUP1 SWAP2 SUB SWAP1 REVERT JUMPDEST PUSH0 PUSH20 0xFFFFFFFFFFFFFFFFFFFFFFFFFFFFFFFFFFFFFFFF AND DUP2 PUSH20 0xFFFFFFFFFFFFFFFFFFFFFFFFFFFFFFFFFFFFFFFF AND SUB PUSH2 0x3AA5 JUMPI PUSH1 0x40 MLOAD PUSH32 0x8C379A000000000000000000000000000000000000000000000000000000000 DUP2 MSTORE PUSH1 0x4 ADD PUSH2 0x3A9C SWAP1 PUSH2 0x9087 JUMP JUMPDEST PUSH1 0x40 MLOAD DUP1 SWAP2 SUB SWAP1 REVERT JUMPDEST PUSH1 0xA PUSH0 DUP3 PUSH20 0xFFFFFFFFFFFFFFFFFFFFFFFFFFFFFFFFFFFFFFFF AND PUSH20 0xFFFFFFFFFFFFFFFFFFFFFFFFFFFFFFFFFFFFFFFF AND DUP2 MSTORE PUSH1 0x20 ADD SWAP1 DUP2 MSTORE PUSH1 0x20 ADD PUSH0 KECCAK256 PUSH0 SWAP1 SLOAD SWAP1 PUSH2 0x100 EXP SWAP1 DIV PUSH1 0xFF AND ISZERO PUSH2 0x3B2F JUMPI PUSH1 0x40 MLOAD PUSH32 0x8C379A000000000000000000000000000000000000000000000000000000000 DUP2 MSTORE PUSH1 0x4 ADD PUSH2 0x3B26 SWAP1 PUSH2 0x8CB6 JUMP JUMPDEST PUSH1 0x40 MLOAD DUP1 SWAP2 SUB SWAP1 REVERT JUMPDEST PUSH2 0x3B37 PUSH2 0x69E6 JUMP JUMPDEST PUSH0 PUSH1 0x10 DUP2 SWAP1 SSTORE POP DUP1 PUSH1 0x1D PUSH0 PUSH2 0x100 EXP DUP2 SLOAD DUP2 PUSH20 0xFFFFFFFFFFFFFFFFFFFFFFFFFFFFFFFFFFFFFFFF MUL NOT AND SWAP1 DUP4 PUSH20 0xFFFFFFFFFFFFFFFFFFFFFFFFFFFFFFFFFFFFFFFF AND MUL OR SWAP1 SSTORE POP PUSH1 0x40 MLOAD DUP1 PUSH1 0x40 ADD PUSH1 0x40 MSTORE DUP1 PUSH1 0x6 DUP2 MSTORE PUSH1 0x20 ADD PUSH32 0x667265657A650000000000000000000000000000000000000000000000000000 DUP2 MSTORE POP PUSH1 0x1E SWAP1 DUP2 PUSH2 0x3BC2 SWAP2 SWAP1 PUSH2 0x8022 JUMP JUMPDEST POP PUSH1 0x1 PUSH1 0x11 PUSH0 PUSH2 0x100 EXP DUP2 SLOAD DUP2 PUSH1 0xFF MUL NOT AND SWAP1 DUP4 ISZERO ISZERO MUL OR SWAP1 SSTORE POP PUSH1 0x40 MLOAD DUP1 PUSH1 0x40 ADD PUSH1 0x40 MSTORE DUP1 PUSH1 0x6 DUP2 MSTORE PUSH1 0x20 ADD PUSH32 0x667265657A650000000000000000000000000000000000000000000000000000 DUP2 MSTORE POP PUSH1 0x12 SWAP1 DUP2 PUSH2 0x3C21 SWAP2 SWAP1 PUSH2 0x8022 JUMP JUMPDEST POP PUSH32 0x25C4E8317DC171F3714DCA5948D811428A109C026192134AD8978A6B3623A387 DUP2 PUSH1 0x40 MLOAD PUSH2 0x3C51 SWAP2 SWAP1 PUSH2 0x8CF6 JUMP JUMPDEST PUSH1 0x40 MLOAD DUP1 SWAP2 SUB SWAP1 LOG1 POP JUMP JUMPDEST PUSH1 0x11 PUSH0 SWAP1 SLOAD SWAP1 PUSH2 0x100 EXP SWAP1 DIV PUSH1 0xFF AND DUP2 JUMP JUMPDEST PUSH1 0x1C DUP1 SLOAD PUSH2 0x3C7B SWAP1 PUSH2 0x7954 JUMP JUMPDEST DUP1 PUSH1 0x1F ADD PUSH1 0x20 DUP1 SWAP2 DIV MUL PUSH1 0x20 ADD PUSH1 0x40 MLOAD SWAP1 DUP2 ADD PUSH1 0x40 MSTORE DUP1 SWAP3 SWAP2 SWAP1 DUP2 DUP2 MSTORE PUSH1 0x20 ADD DUP3 DUP1 SLOAD PUSH2 0x3CA7 SWAP1 PUSH2 0x7954 JUMP JUMPDEST DUP1 ISZERO PUSH2 0x3CF2 JUMPI DUP1 PUSH1 0x1F LT PUSH2 0x3CC9 JUMPI PUSH2 0x100 DUP1 DUP4 SLOAD DIV MUL DUP4 MSTORE SWAP2 PUSH1 0x20 ADD SWAP2 PUSH2 0x3CF2 JUMP JUMPDEST DUP3 ADD SWAP2 SWAP1 PUSH0 MSTORE PUSH1 0x20 PUSH0 KECCAK256 SWAP1 JUMPDEST DUP2 SLOAD DUP2 MSTORE SWAP1 PUSH1 0x1 ADD SWAP1 PUSH1 0x20 ADD DUP1 DUP4 GT PUSH2 0x3CD5 JUMPI DUP3 SWAP1 SUB PUSH1 0x1F AND DUP3 ADD SWAP2 JUMPDEST POP POP POP POP POP DUP2 JUMP JUMPDEST PUSH0 PUSH1 0x11 PUSH1 0x2 SWAP1 SLOAD SWAP1 PUSH2 0x100 EXP SWAP1 DIV PUSH1 0xFF AND SWAP1 POP SWAP1 JUMP JUMPDEST PUSH2 0x3D19 CALLER PUSH2 0x6944 JUMP JUMPDEST PUSH2 0x3D58 JUMPI PUSH1 0x40 MLOAD PUSH32 0x8C379A000000000000000000000000000000000000000000000000000000000 DUP2 MSTORE PUSH1 0x4 ADD PUSH2 0x3D4F SWAP1 PUSH2 0x7CC4 JUMP JUMPDEST PUSH1 0x40 MLOAD DUP1 SWAP2 SUB SWAP1 REVERT JUMPDEST PUSH1 0x11 PUSH1 0x2 SWAP1 SLOAD SWAP1 PUSH2 0x100 EXP SWAP1 DIV PUSH1 0xFF AND ISZERO PUSH2 0x3DA8 JUMPI PUSH1 0x40 MLOAD PUSH32 0x8C379A000000000000000000000000000000000000000000000000000000000 DUP2 MSTORE PUSH1 0x4 ADD PUSH2 0x3D9F SWAP1 PUSH2 0x79CE JUMP JUMPDEST PUSH1 0x40 MLOAD DUP1 SWAP2 SUB SWAP1 REVERT JUMPDEST PUSH1 0x11 PUSH0 SWAP1 SLOAD SWAP1 PUSH2 0x100 EXP SWAP1 DIV PUSH1 0xFF AND ISZERO PUSH2 0x3DF7 JUMPI PUSH1 0x40 MLOAD PUSH32 0x8C379A000000000000000000000000000000000000000000000000000000000 DUP2 MSTORE PUSH1 0x4 ADD PUSH2 0x3DEE SWAP1 PUSH2 0x7D2C JUMP JUMPDEST PUSH1 0x40 MLOAD DUP1 SWAP2 SUB SWAP1 REVERT JUMPDEST DUP1 MLOAD DUP3 MLOAD EQ PUSH2 0x3E3B JUMPI PUSH1 0x40 MLOAD PUSH32 0x8C379A000000000000000000000000000000000000000000000000000000000 DUP2 MSTORE PUSH1 0x4 ADD PUSH2 0x3E32 SWAP1 PUSH2 0x9115 JUMP JUMPDEST PUSH1 0x40 MLOAD DUP1 SWAP2 SUB SWAP1 REVERT JUMPDEST PUSH0 DUP3 MLOAD GT PUSH2 0x3E7E JUMPI PUSH1 0x40 MLOAD PUSH32 0x8C379A000000000000000000000000000000000000000000000000000000000 DUP2 MSTORE PUSH1 0x4 ADD PUSH2 0x3E75 SWAP1 PUSH2 0x91A3 JUMP JUMPDEST PUSH1 0x40 MLOAD DUP1 SWAP2 SUB SWAP1 REVERT JUMPDEST PUSH0 PUSH0 SWAP1 POP JUMPDEST DUP3 MLOAD DUP2 LT ISZERO PUSH2 0x40B0 JUMPI PUSH2 0x3EAF DUP4 DUP3 DUP2 MLOAD DUP2 LT PUSH2 0x3EA2 JUMPI PUSH2 0x3EA1 PUSH2 0x88F6 JUMP JUMPDEST JUMPDEST PUSH1 0x20 MUL PUSH1 0x20 ADD ADD MLOAD PUSH2 0x6944 JUMP JUMPDEST PUSH2 0x3EEE JUMPI PUSH1 0x40 MLOAD PUSH32 0x8C379A000000000000000000000000000000000000000000000000000000000 DUP2 MSTORE PUSH1 0x4 ADD PUSH2 0x3EE5 SWAP1 PUSH2 0x896D JUMP JUMPDEST PUSH1 0x40 MLOAD DUP1 SWAP2 SUB SWAP1 REVERT JUMPDEST PUSH0 PUSH20 0xFFFFFFFFFFFFFFFFFFFFFFFFFFFFFFFFFFFFFFFF AND DUP3 DUP3 DUP2 MLOAD DUP2 LT PUSH2 0x3F18 JUMPI PUSH2 0x3F17 PUSH2 0x88F6 JUMP JUMPDEST JUMPDEST PUSH1 0x20 MUL PUSH1 0x20 ADD ADD MLOAD PUSH20 0xFFFFFFFFFFFFFFFFFFFFFFFFFFFFFFFFFFFFFFFF AND SUB PUSH2 0x3F76 JUMPI PUSH1 0x40 MLOAD PUSH32 0x8C379A000000000000000000000000000000000000000000000000000000000 DUP2 MSTORE PUSH1 0x4 ADD PUSH2 0x3F6D SWAP1 PUSH2 0x89D5 JUMP JUMPDEST PUSH1 0x40 MLOAD DUP1 SWAP2 SUB SWAP1 REVERT JUMPDEST PUSH2 0x3F99 DUP3 DUP3 DUP2 MLOAD DUP2 LT PUSH2 0x3F8C JUMPI PUSH2 0x3F8B PUSH2 0x88F6 JUMP JUMPDEST JUMPDEST PUSH1 0x20 MUL PUSH1 0x20 ADD ADD MLOAD PUSH2 0x6944 JUMP JUMPDEST ISZERO PUSH2 0x3FD9 JUMPI PUSH1 0x40 MLOAD PUSH32 0x8C379A000000000000000000000000000000000000000000000000000000000 DUP2 MSTORE PUSH1 0x4 ADD PUSH2 0x3FD0 SWAP1 PUSH2 0x8A3D JUMP JUMPDEST PUSH1 0x40 MLOAD DUP1 SWAP2 SUB SWAP1 REVERT JUMPDEST PUSH0 PUSH1 0x1 DUP3 PUSH2 0x3FE7 SWAP2 SWAP1 PUSH2 0x7BB8 JUMP JUMPDEST SWAP1 POP JUMPDEST DUP3 MLOAD DUP2 LT ISZERO PUSH2 0x40A2 JUMPI DUP3 DUP2 DUP2 MLOAD DUP2 LT PUSH2 0x4006 JUMPI PUSH2 0x4005 PUSH2 0x88F6 JUMP JUMPDEST JUMPDEST PUSH1 0x20 MUL PUSH1 0x20 ADD ADD MLOAD PUSH20 0xFFFFFFFFFFFFFFFFFFFFFFFFFFFFFFFFFFFFFFFF AND DUP4 DUP4 DUP2 MLOAD DUP2 LT PUSH2 0x4037 JUMPI PUSH2 0x4036 PUSH2 0x88F6 JUMP JUMPDEST JUMPDEST PUSH1 0x20 MUL PUSH1 0x20 ADD ADD MLOAD PUSH20 0xFFFFFFFFFFFFFFFFFFFFFFFFFFFFFFFFFFFFFFFF AND SUB PUSH2 0x4095 JUMPI PUSH1 0x40 MLOAD PUSH32 0x8C379A000000000000000000000000000000000000000000000000000000000 DUP2 MSTORE PUSH1 0x4 ADD PUSH2 0x408C SWAP1 PUSH2 0x8AA5 JUMP JUMPDEST PUSH1 0x40 MLOAD DUP1 SWAP2 SUB SWAP1 REVERT JUMPDEST DUP1 DUP1 PUSH1 0x1 ADD SWAP2 POP POP PUSH2 0x3FEA JUMP JUMPDEST POP DUP1 DUP1 PUSH1 0x1 ADD SWAP2 POP POP PUSH2 0x3E83 JUMP JUMPDEST POP PUSH2 0x40B9 PUSH2 0x69E6 JUMP JUMPDEST PUSH0 PUSH1 0x10 DUP2 SWAP1 SSTORE POP DUP2 PUSH1 0x18 SWAP1 DUP1 MLOAD SWAP1 PUSH1 0x20 ADD SWAP1 PUSH2 0x40D6 SWAP3 SWAP2 SWAP1 PUSH2 0x720A JUMP JUMPDEST POP DUP1 PUSH1 0x19 SWAP1 DUP1 MLOAD SWAP1 PUSH1 0x20 ADD SWAP1 PUSH2 0x40ED SWAP3 SWAP2 SWAP1 PUSH2 0x720A JUMP JUMPDEST POP PUSH1 0x1 PUSH1 0x11 PUSH0 PUSH2 0x100 EXP DUP2 SLOAD DUP2 PUSH1 0xFF MUL NOT AND SWAP1 DUP4 ISZERO ISZERO MUL OR SWAP1 SSTORE POP PUSH1 0x40 MLOAD DUP1 PUSH1 0x40 ADD PUSH1 0x40 MSTORE DUP1 PUSH1 0x6 DUP2 MSTORE PUSH1 0x20 ADD PUSH32 0x766F746572730000000000000000000000000000000000000000000000000000 DUP2 MSTORE POP PUSH1 0x12 SWAP1 DUP2 PUSH2 0x414C SWAP2 SWAP1 PUSH2 0x8022 JUMP JUMPDEST POP CALLER PUSH1 0x13 PUSH0 PUSH2 0x100 EXP DUP2 SLOAD DUP2 PUSH20 0xFFFFFFFFFFFFFFFFFFFFFFFFFFFFFFFFFFFFFFFF MUL NOT AND SWAP1 DUP4 PUSH20 0xFFFFFFFFFFFFFFFFFFFFFFFFFFFFFFFFFFFFFFFF AND MUL OR SWAP1 SSTORE POP PUSH32 0x55745D7EC40B9509A889AE3C5C72FCE1DEC2260ECB5286B509DD4D63BC5D4BF3 DUP3 DUP3 CALLER PUSH1 0x40 MLOAD PUSH2 0x41C0 SWAP4 SWAP3 SWAP2 SWAP1 PUSH2 0x9242 JUMP JUMPDEST PUSH1 0x40 MLOAD DUP1 SWAP2 SUB SWAP1 LOG1 POP POP JUMP JUMPDEST PUSH2 0x41D5 CALLER PUSH2 0x6944 JUMP JUMPDEST PUSH2 0x4214 JUMPI PUSH1 0x40 MLOAD PUSH32 0x8C379A000000000000000000000000000000000000000000000000000000000 DUP2 MSTORE PUSH1 0x4 ADD PUSH2 0x420B SWAP1 PUSH2 0x7CC4 JUMP JUMPDEST PUSH1 0x40 MLOAD DUP1 SWAP2 SUB SWAP1 REVERT JUMPDEST PUSH1 0x11 PUSH1 0x2 SWAP1 SLOAD SWAP1 PUSH2 0x100 EXP SWAP1 DIV PUSH1 0xFF AND ISZERO PUSH2 0x4264 JUMPI PUSH1 0x40 MLOAD PUSH32 0x8C379A000000000000000000000000000000000000000000000000000000000 DUP2 MSTORE PUSH1 0x4 ADD PUSH2 0x425B SWAP1 PUSH2 0x79CE JUMP JUMPDEST PUSH1 0x40 MLOAD DUP1 SWAP2 SUB SWAP1 REVERT JUMPDEST PUSH1 0x11 PUSH0 SWAP1 SLOAD SWAP1 PUSH2 0x100 EXP SWAP1 DIV PUSH1 0xFF AND ISZERO PUSH2 0x42B3 JUMPI PUSH1 0x40 MLOAD PUSH32 0x8C379A000000000000000000000000000000000000000000000000000000000 DUP2 MSTORE PUSH1 0x4 ADD PUSH2 0x42AA SWAP1 PUSH2 0x7D2C JUMP JUMPDEST PUSH1 0x40 MLOAD DUP1 SWAP2 SUB SWAP1 REVERT JUMPDEST PUSH2 0x42BB PUSH2 0x69E6 JUMP JUMPDEST PUSH0 PUSH1 0x10 DUP2 SWAP1 SSTORE POP DUP1 PUSH1 0x15 SWAP1 DUP2 PUSH2 0x42D1 SWAP2 SWAP1 PUSH2 0x8022 JUMP JUMPDEST POP PUSH1 0x1 PUSH1 0x11 PUSH0 PUSH2 0x100 EXP DUP2 SLOAD DUP2 PUSH1 0xFF MUL NOT AND SWAP1 DUP4 ISZERO ISZERO MUL OR SWAP1 SSTORE POP PUSH1 0x40 MLOAD DUP1 PUSH1 0x40 ADD PUSH1 0x40 MSTORE DUP1 PUSH1 0x4 DUP2 MSTORE PUSH1 0x20 ADD PUSH32 0x6E616D6500000000000000000000000000000000000000000000000000000000 DUP2 MSTORE POP PUSH1 0x12 SWAP1 DUP2 PUSH2 0x4330 SWAP2 SWAP1 PUSH2 0x8022 JUMP JUMPDEST POP CALLER PUSH1 0x13 PUSH0 PUSH2 0x100 EXP DUP2 SLOAD DUP2 PUSH20 0xFFFFFFFFFFFFFFFFFFFFFFFFFFFFFFFFFFFFFFFF MUL NOT AND SWAP1 DUP4 PUSH20 0xFFFFFFFFFFFFFFFFFFFFFFFFFFFFFFFFFFFFFFFF AND MUL OR SWAP1 SSTORE POP PUSH32 0x41F966D26BC0339AF48AC37AD87736E00AC40E9859CDF864A47F2A719B1BD9AC DUP2 CALLER PUSH1 0x40 MLOAD PUSH2 0x43A2 SWAP3 SWAP2 SWAP1 PUSH2 0x9285 JUMP JUMPDEST PUSH1 0x40 MLOAD DUP1 SWAP2 SUB SWAP1 LOG1 POP JUMP JUMPDEST PUSH0 PUSH0 SWAP1 POP SWAP1 JUMP JUMPDEST PUSH2 0x43BD CALLER PUSH2 0x6944 JUMP JUMPDEST PUSH2 0x43FC JUMPI PUSH1 0x40 MLOAD PUSH32 0x8C379A000000000000000000000000000000000000000000000000000000000 DUP2 MSTORE PUSH1 0x4 ADD PUSH2 0x43F3 SWAP1 PUSH2 0x7CC4 JUMP JUMPDEST PUSH1 0x40 MLOAD DUP1 SWAP2 SUB SWAP1 REVERT JUMPDEST PUSH1 0x11 PUSH1 0x2 SWAP1 SLOAD SWAP1 PUSH2 0x100 EXP SWAP1 DIV PUSH1 0xFF AND ISZERO PUSH2 0x444C JUMPI PUSH1 0x40 MLOAD PUSH32 0x8C379A000000000000000000000000000000000000000000000000000000000 DUP2 MSTORE PUSH1 0x4 ADD PUSH2 0x4443 SWAP1 PUSH2 0x79CE JUMP JUMPDEST PUSH1 0x40 MLOAD DUP1 SWAP2 SUB SWAP1 REVERT JUMPDEST PUSH1 0x11 PUSH0 SWAP1 SLOAD SWAP1 PUSH2 0x100 EXP SWAP1 DIV PUSH1 0xFF AND PUSH2 0x449A JUMPI PUSH1 0x40 MLOAD PUSH32 0x8C379A000000000000000000000000000000000000000000000000000000000 DUP2 MSTORE PUSH1 0x4 ADD PUSH2 0x4491 SWAP1 PUSH2 0x8456 JUMP JUMPDEST PUSH1 0x40 MLOAD DUP1 SWAP2 SUB SWAP1 REVERT JUMPDEST PUSH1 0xF PUSH0 CALLER PUSH20 0xFFFFFFFFFFFFFFFFFFFFFFFFFFFFFFFFFFFFFFFF AND PUSH20 0xFFFFFFFFFFFFFFFFFFFFFFFFFFFFFFFFFFFFFFFF AND DUP2 MSTORE PUSH1 0x20 ADD SWAP1 DUP2 MSTORE PUSH1 0x20 ADD PUSH0 KECCAK256 PUSH0 SWAP1 SLOAD SWAP1 PUSH2 0x100 EXP SWAP1 DIV PUSH1 0xFF AND ISZERO PUSH2 0x4524 JUMPI PUSH1 0x40 MLOAD PUSH32 0x8C379A000000000000000000000000000000000000000000000000000000000 DUP2 MSTORE PUSH1 0x4 ADD PUSH2 0x451B SWAP1 PUSH2 0x92FD JUMP JUMPDEST PUSH1 0x40 MLOAD DUP1 SWAP2 SUB SWAP1 REVERT JUMPDEST PUSH1 0x11 PUSH1 0x1 SWAP1 SLOAD SWAP1 PUSH2 0x100 EXP SWAP1 DIV PUSH1 0xFF AND ISZERO PUSH2 0x4574 JUMPI PUSH1 0x40 MLOAD PUSH32 0x8C379A000000000000000000000000000000000000000000000000000000000 DUP2 MSTORE PUSH1 0x4 ADD PUSH2 0x456B SWAP1 PUSH2 0x9365 JUMP JUMPDEST PUSH1 0x40 MLOAD DUP1 SWAP2 SUB SWAP1 REVERT JUMPDEST PUSH1 0x1 PUSH1 0xF PUSH0 CALLER PUSH20 0xFFFFFFFFFFFFFFFFFFFFFFFFFFFFFFFFFFFFFFFF AND PUSH20 0xFFFFFFFFFFFFFFFFFFFFFFFFFFFFFFFFFFFFFFFF AND DUP2 MSTORE PUSH1 0x20 ADD SWAP1 DUP2 MSTORE PUSH1 0x20 ADD PUSH0 KECCAK256 PUSH0 PUSH2 0x100 EXP DUP2 SLOAD DUP2 PUSH1 0xFF MUL NOT AND SWAP1 DUP4 ISZERO ISZERO MUL OR SWAP1 SSTORE POP PUSH1 0x10 PUSH0 DUP2 SLOAD DUP1 SWAP3 SWAP2 SWAP1 PUSH2 0x45DB SWAP1 PUSH2 0x9383 JUMP JUMPDEST SWAP2 SWAP1 POP SSTORE POP PUSH0 PUSH1 0x12 PUSH1 0x40 MLOAD PUSH1 0x20 ADD PUSH2 0x45F3 SWAP2 SWAP1 PUSH2 0x855C JUMP JUMPDEST PUSH1 0x40 MLOAD PUSH1 0x20 DUP2 DUP4 SUB SUB DUP2 MSTORE SWAP1 PUSH1 0x40 MSTORE DUP1 MLOAD SWAP1 PUSH1 0x20 ADD KECCAK256 SWAP1 POP PUSH0 PUSH1 0x40 MLOAD PUSH1 0x20 ADD PUSH2 0x461B SWAP1 PUSH2 0x9414 JUMP JUMPDEST PUSH1 0x40 MLOAD PUSH1 0x20 DUP2 DUP4 SUB SUB DUP2 MSTORE SWAP1 PUSH1 0x40 MSTORE DUP1 MLOAD SWAP1 PUSH1 0x20 ADD KECCAK256 DUP3 EQ DUP1 PUSH2 0x4661 JUMPI POP PUSH1 0x40 MLOAD PUSH1 0x20 ADD PUSH2 0x4648 SWAP1 PUSH2 0x8F61 JUMP JUMPDEST PUSH1 0x40 MLOAD PUSH1 0x20 DUP2 DUP4 SUB SUB DUP2 MSTORE SWAP1 PUSH1 0x40 MSTORE DUP1 MLOAD SWAP1 PUSH1 0x20 ADD KECCAK256 DUP3 EQ JUMPDEST DUP1 PUSH2 0x468F JUMPI POP PUSH1 0x40 MLOAD PUSH1 0x20 ADD PUSH2 0x4676 SWAP1 PUSH2 0x8C58 JUMP JUMPDEST PUSH1 0x40 MLOAD PUSH1 0x20 DUP2 DUP4 SUB SUB DUP2 MSTORE SWAP1 PUSH1 0x40 MSTORE DUP1 MLOAD SWAP1 PUSH1 0x20 ADD KECCAK256 DUP3 EQ JUMPDEST DUP1 PUSH2 0x46BD JUMPI POP PUSH1 0x40 MLOAD PUSH1 0x20 ADD PUSH2 0x46A4 SWAP1 PUSH2 0x84C8 JUMP JUMPDEST PUSH1 0x40 MLOAD PUSH1 0x20 DUP2 DUP4 SUB SUB DUP2 MSTORE SWAP1 PUSH1 0x40 MSTORE DUP1 MLOAD SWAP1 PUSH1 0x20 ADD KECCAK256 DUP3 EQ JUMPDEST SWAP1 POP PUSH0 PUSH1 0x40 MLOAD PUSH1 0x20 ADD PUSH2 0x46CF SWAP1 PUSH2 0x9472 JUMP JUMPDEST PUSH1 0x40 MLOAD PUSH1 0x20 DUP2 DUP4 SUB SUB DUP2 MSTORE SWAP1 PUSH1 0x40 MSTORE DUP1 MLOAD SWAP1 PUSH1 0x20 ADD KECCAK256 DUP4 EQ SWAP1 POP PUSH0 DUP2 PUSH2 0x4703 JUMPI DUP3 PUSH2 0x46FB JUMPI PUSH1 0x5 PUSH2 0x46FE JUMP JUMPDEST PUSH1 0x3 JUMPDEST PUSH2 0x4706 JUMP JUMPDEST PUSH1 0x2 JUMPDEST SWAP1 POP DUP1 PUSH1 0x10 SLOAD LT PUSH2 0x47D9 JUMPI PUSH1 0x40 MLOAD PUSH1 0x20 ADD PUSH2 0x4720 SWAP1 PUSH2 0x94D0 JUMP JUMPDEST PUSH1 0x40 MLOAD PUSH1 0x20 DUP2 DUP4 SUB SUB DUP2 MSTORE SWAP1 PUSH1 0x40 MSTORE DUP1 MLOAD SWAP1 PUSH1 0x20 ADD KECCAK256 DUP5 SUB PUSH2 0x4754 JUMPI PUSH1 0x78 TIMESTAMP PUSH2 0x4749 SWAP2 SWAP1 PUSH2 0x7BB8 JUMP JUMPDEST PUSH1 0x14 DUP2 SWAP1 SSTORE POP PUSH2 0x47D8 JUMP JUMPDEST PUSH1 0x40 MLOAD PUSH1 0x20 ADD PUSH2 0x4763 SWAP1 PUSH2 0x952E JUMP JUMPDEST PUSH1 0x40 MLOAD PUSH1 0x20 DUP2 DUP4 SUB SUB DUP2 MSTORE SWAP1 PUSH1 0x40 MSTORE DUP1 MLOAD SWAP1 PUSH1 0x20 ADD KECCAK256 DUP5 SUB PUSH2 0x4797 JUMPI PUSH1 0x78 TIMESTAMP PUSH2 0x478C SWAP2 SWAP1 PUSH2 0x7BB8 JUMP JUMPDEST PUSH1 0x17 DUP2 SWAP1 SSTORE POP PUSH2 0x47D7 JUMP JUMPDEST PUSH1 0x40 MLOAD PUSH1 0x20 ADD PUSH2 0x47A6 SWAP1 PUSH2 0x8812 JUMP JUMPDEST PUSH1 0x40 MLOAD PUSH1 0x20 DUP2 DUP4 SUB SUB DUP2 MSTORE SWAP1 PUSH1 0x40 MSTORE DUP1 MLOAD SWAP1 PUSH1 0x20 ADD KECCAK256 DUP5 SUB PUSH2 0x47D6 JUMPI PUSH1 0x78 TIMESTAMP PUSH2 0x47CF SWAP2 SWAP1 PUSH2 0x7BB8 JUMP JUMPDEST PUSH1 0x1A DUP2 SWAP1 SSTORE POP JUMPDEST JUMPDEST JUMPDEST JUMPDEST POP POP POP POP JUMP JUMPDEST PUSH1 0x1D PUSH0 SWAP1 SLOAD SWAP1 PUSH2 0x100 EXP SWAP1 DIV PUSH20 0xFFFFFFFFFFFFFFFFFFFFFFFFFFFFFFFFFFFFFFFF AND DUP2 JUMP JUMPDEST PUSH1 0xD DUP1 SLOAD PUSH2 0x4811 SWAP1 PUSH2 0x7954 JUMP JUMPDEST DUP1 PUSH1 0x1F ADD PUSH1 0x20 DUP1 SWAP2 DIV MUL PUSH1 0x20 ADD PUSH1 0x40 MLOAD SWAP1 DUP2 ADD PUSH1 0x40 MSTORE DUP1 SWAP3 SWAP2 SWAP1 DUP2 DUP2 MSTORE PUSH1 0x20 ADD DUP3 DUP1 SLOAD PUSH2 0x483D SWAP1 PUSH2 0x7954 JUMP JUMPDEST DUP1 ISZERO PUSH2 0x4888 JUMPI DUP1 PUSH1 0x1F LT PUSH2 0x485F JUMPI PUSH2 0x100 DUP1 DUP4 SLOAD DIV MUL DUP4 MSTORE SWAP2 PUSH1 0x20 ADD SWAP2 PUSH2 0x4888 JUMP JUMPDEST DUP3 ADD SWAP2 SWAP1 PUSH0 MSTORE PUSH1 0x20 PUSH0 KECCAK256 SWAP1 JUMPDEST DUP2 SLOAD DUP2 MSTORE SWAP1 PUSH1 0x1 ADD SWAP1 PUSH1 0x20 ADD DUP1 DUP4 GT PUSH2 0x486B JUMPI DUP3 SWAP1 SUB PUSH1 0x1F AND DUP3 ADD SWAP2 JUMPDEST POP POP POP POP POP DUP2 JUMP JUMPDEST PUSH1 0x11 PUSH1 0x2 SWAP1 SLOAD SWAP1 PUSH2 0x100 EXP SWAP1 DIV PUSH1 0xFF AND ISZERO PUSH2 0x48E0 JUMPI PUSH1 0x40 MLOAD PUSH32 0x8C379A000000000000000000000000000000000000000000000000000000000 DUP2 MSTORE PUSH1 0x4 ADD PUSH2 0x48D7 SWAP1 PUSH2 0x79CE JUMP JUMPDEST PUSH1 0x40 MLOAD DUP1 SWAP2 SUB SWAP1 REVERT JUMPDEST PUSH1 0x11 PUSH0 SWAP1 SLOAD SWAP1 PUSH2 0x100 EXP SWAP1 DIV PUSH1 0xFF AND PUSH2 0x492E JUMPI PUSH1 0x40 MLOAD PUSH32 0x8C379A000000000000000000000000000000000000000000000000000000000 DUP2 MSTORE PUSH1 0x4 ADD PUSH2 0x4925 SWAP1 PUSH2 0x8456 JUMP JUMPDEST PUSH1 0x40 MLOAD DUP1 SWAP2 SUB SWAP1 REVERT JUMPDEST PUSH1 0x40 MLOAD PUSH1 0x20 ADD PUSH2 0x493D SWAP1 PUSH2 0x952E JUMP JUMPDEST PUSH1 0x40 MLOAD PUSH1 0x20 DUP2 DUP4 SUB SUB DUP2 MSTORE SWAP1 PUSH1 0x40 MSTORE DUP1 MLOAD SWAP1 PUSH1 0x20 ADD KECCAK256 PUSH1 0x12 PUSH1 0x40 MLOAD PUSH1 0x20 ADD PUSH2 0x4965 SWAP2 SWAP1 PUSH2 0x855C JUMP JUMPDEST PUSH1 0x40 MLOAD PUSH1 0x20 DUP2 DUP4 SUB SUB DUP2 MSTORE SWAP1 PUSH1 0x40 MSTORE DUP1 MLOAD SWAP1 PUSH1 0x20 ADD KECCAK256 EQ PUSH2 0x49BB JUMPI PUSH1 0x40 MLOAD PUSH32 0x8C379A000000000000000000000000000000000000000000000000000000000 DUP2 MSTORE PUSH1 0x4 ADD PUSH2 0x49B2 SWAP1 PUSH2 0x85BC JUMP JUMPDEST PUSH1 0x40 MLOAD DUP1 SWAP2 SUB SWAP1 REVERT JUMPDEST PUSH1 0x17 SLOAD TIMESTAMP LT ISZERO PUSH2 0x4A00 JUMPI PUSH1 0x40 MLOAD PUSH32 0x8C379A000000000000000000000000000000000000000000000000000000000 DUP2 MSTORE PUSH1 0x4 ADD PUSH2 0x49F7 SWAP1 PUSH2 0x8870 JUMP JUMPDEST PUSH1 0x40 MLOAD DUP1 SWAP2 SUB SWAP1 REVERT JUMPDEST PUSH1 0x5 PUSH1 0x10 SLOAD LT ISZERO PUSH2 0x4A46 JUMPI PUSH1 0x40 MLOAD PUSH32 0x8C379A000000000000000000000000000000000000000000000000000000000 DUP2 MSTORE PUSH1 0x4 ADD PUSH2 0x4A3D SWAP1 PUSH2 0x8624 JUMP JUMPDEST PUSH1 0x40 MLOAD DUP1 SWAP2 SUB SWAP1 REVERT JUMPDEST PUSH1 0x16 PUSH0 SWAP1 SLOAD SWAP1 PUSH2 0x100 EXP SWAP1 DIV PUSH1 0x7 SIGNEXTEND PUSH1 0x7 SIGNEXTEND PUSH1 0x7 SLOAD PUSH2 0x4A65 SWAP2 SWAP1 PUSH2 0x8DB9 JUMP JUMPDEST PUSH1 0x7 DUP2 SWAP1 SSTORE POP PUSH0 PUSH1 0x11 PUSH0 PUSH2 0x100 EXP DUP2 SLOAD DUP2 PUSH1 0xFF MUL NOT AND SWAP1 DUP4 ISZERO ISZERO MUL OR SWAP1 SSTORE POP PUSH1 0x40 MLOAD DUP1 PUSH1 0x20 ADD PUSH1 0x40 MSTORE DUP1 PUSH0 DUP2 MSTORE POP PUSH1 0x12 SWAP1 DUP2 PUSH2 0x4AA1 SWAP2 SWAP1 PUSH2 0x8022 JUMP JUMPDEST POP PUSH0 PUSH1 0x13 PUSH0 PUSH2 0x100 EXP DUP2 SLOAD DUP2 PUSH20 0xFFFFFFFFFFFFFFFFFFFFFFFFFFFFFFFFFFFFFFFF MUL NOT AND SWAP1 DUP4 PUSH20 0xFFFFFFFFFFFFFFFFFFFFFFFFFFFFFFFFFFFFFFFF AND MUL OR SWAP1 SSTORE POP PUSH1 0x16 PUSH0 PUSH2 0x100 EXP DUP2 SLOAD SWAP1 PUSH8 0xFFFFFFFFFFFFFFFF MUL NOT AND SWAP1 SSTORE PUSH1 0x17 PUSH0 SWAP1 SSTORE PUSH32 0xACD0677FAD7BE9CCAF6C91EBAACA5C9C91622AC0508242D2F8FECA61A0DA249 PUSH1 0x7 SLOAD PUSH1 0x40 MLOAD PUSH2 0x4B30 SWAP2 SWAP1 PUSH2 0x7354 JUMP JUMPDEST PUSH1 0x40 MLOAD DUP1 SWAP2 SUB SWAP1 LOG1 JUMP JUMPDEST PUSH0 PUSH0 PUSH0 DUP4 PUSH20 0xFFFFFFFFFFFFFFFFFFFFFFFFFFFFFFFFFFFFFFFF AND PUSH20 0xFFFFFFFFFFFFFFFFFFFFFFFFFFFFFFFFFFFFFFFF AND DUP2 MSTORE PUSH1 0x20 ADD SWAP1 DUP2 MSTORE PUSH1 0x20 ADD PUSH0 KECCAK256 SLOAD SWAP1 POP SWAP2 SWAP1 POP JUMP JUMPDEST PUSH2 0x4B87 PUSH2 0x6AC5 JUMP JUMPDEST PUSH2 0x4B90 PUSH0 PUSH2 0x6B4C JUMP JUMPDEST JUMP JUMPDEST PUSH2 0x4B9A PUSH2 0x6AC5 JUMP JUMPDEST PUSH0 PUSH1 0x11 PUSH1 0x1 PUSH2 0x100 EXP DUP2 SLOAD DUP2 PUSH1 0xFF MUL NOT AND SWAP1 DUP4 ISZERO ISZERO MUL OR SWAP1 SSTORE POP PUSH32 0x8F69EF9279BFB1FE5F4F75790947A23FA88774E98242B966BCAAF7D25E8B3C16 PUSH1 0x40 MLOAD PUSH1 0x40 MLOAD DUP1 SWAP2 SUB SWAP1 LOG1 JUMP JUMPDEST PUSH2 0x4BEB CALLER PUSH2 0x6944 JUMP JUMPDEST PUSH2 0x4C2A JUMPI PUSH1 0x40 MLOAD PUSH32 0x8C379A000000000000000000000000000000000000000000000000000000000 DUP2 MSTORE PUSH1 0x4 ADD PUSH2 0x4C21 SWAP1 PUSH2 0x7CC4 JUMP JUMPDEST PUSH1 0x40 MLOAD DUP1 SWAP2 SUB SWAP1 REVERT JUMPDEST PUSH1 0x11 PUSH1 0x2 SWAP1 SLOAD SWAP1 PUSH2 0x100 EXP SWAP1 DIV PUSH1 0xFF AND ISZERO PUSH2 0x4C7A JUMPI PUSH1 0x40 MLOAD PUSH32 0x8C379A000000000000000000000000000000000000000000000000000000000 DUP2 MSTORE PUSH1 0x4 ADD PUSH2 0x4C71 SWAP1 PUSH2 0x79CE JUMP JUMPDEST PUSH1 0x40 MLOAD DUP1 SWAP2 SUB SWAP1 REVERT JUMPDEST PUSH2 0x12C PUSH1 0x21 SLOAD PUSH2 0x4C8A SWAP2 SWAP1 PUSH2 0x7BB8 JUMP JUMPDEST TIMESTAMP LT ISZERO PUSH2 0x4CCC JUMPI PUSH1 0x40 MLOAD PUSH32 0x8C379A000000000000000000000000000000000000000000000000000000000 DUP2 MSTORE PUSH1 0x4 ADD PUSH2 0x4CC3 SWAP1 PUSH2 0x95B2 JUMP JUMPDEST PUSH1 0x40 MLOAD DUP1 SWAP2 SUB SWAP1 REVERT JUMPDEST PUSH0 PUSH1 0x9 DUP1 SLOAD SWAP1 POP GT PUSH2 0x4D13 JUMPI PUSH1 0x40 MLOAD PUSH32 0x8C379A000000000000000000000000000000000000000000000000000000000 DUP2 MSTORE PUSH1 0x4 ADD PUSH2 0x4D0A SWAP1 PUSH2 0x961A JUMP JUMPDEST PUSH1 0x40 MLOAD DUP1 SWAP2 SUB SWAP1 REVERT JUMPDEST PUSH1 0x7 SLOAD PUSH8 0xDE0B6B3A7640000 PUSH1 0x9 DUP1 SLOAD SWAP1 POP PUSH2 0x4D2F SWAP2 SWAP1 PUSH2 0x7B0F JUMP JUMPDEST PUSH1 0xC SLOAD PUSH2 0x4D3C SWAP2 SWAP1 PUSH2 0x7BB8 JUMP JUMPDEST GT ISZERO PUSH2 0x4D7D JUMPI PUSH1 0x40 MLOAD PUSH32 0x8C379A000000000000000000000000000000000000000000000000000000000 DUP2 MSTORE PUSH1 0x4 ADD PUSH2 0x4D74 SWAP1 PUSH2 0x7C35 JUMP JUMPDEST PUSH1 0x40 MLOAD DUP1 SWAP2 SUB SWAP1 REVERT JUMPDEST PUSH0 PUSH1 0x9 DUP1 SLOAD SWAP1 POP PUSH8 0xFFFFFFFFFFFFFFFF DUP2 GT ISZERO PUSH2 0x4D9D JUMPI PUSH2 0x4D9C PUSH2 0x7618 JUMP JUMPDEST JUMPDEST PUSH1 0x40 MLOAD SWAP1 DUP1 DUP3 MSTORE DUP1 PUSH1 0x20 MUL PUSH1 0x20 ADD DUP3 ADD PUSH1 0x40 MSTORE DUP1 ISZERO PUSH2 0x4DCB JUMPI DUP2 PUSH1 0x20 ADD PUSH1 0x20 DUP3 MUL DUP1 CALLDATASIZE DUP4 CALLDATACOPY DUP1 DUP3 ADD SWAP2 POP POP SWAP1 POP JUMPDEST POP SWAP1 POP PUSH0 PUSH0 SWAP1 POP JUMPDEST PUSH1 0x9 DUP1 SLOAD SWAP1 POP DUP2 LT ISZERO PUSH2 0x4F6E JUMPI PUSH1 0x8 PUSH0 PUSH1 0x9 DUP4 DUP2 SLOAD DUP2 LT PUSH2 0x4DF7 JUMPI PUSH2 0x4DF6 PUSH2 0x88F6 JUMP JUMPDEST JUMPDEST SWAP1 PUSH0 MSTORE PUSH1 0x20 PUSH0 KECCAK256 ADD PUSH0 SWAP1 SLOAD SWAP1 PUSH2 0x100 EXP SWAP1 DIV PUSH20 0xFFFFFFFFFFFFFFFFFFFFFFFFFFFFFFFFFFFFFFFF AND PUSH20 0xFFFFFFFFFFFFFFFFFFFFFFFFFFFFFFFFFFFFFFFF AND PUSH20 0xFFFFFFFFFFFFFFFFFFFFFFFFFFFFFFFFFFFFFFFF AND DUP2 MSTORE PUSH1 0x20 ADD SWAP1 DUP2 MSTORE PUSH1 0x20 ADD PUSH0 KECCAK256 PUSH0 SWAP1 SLOAD SWAP1 PUSH2 0x100 EXP SWAP1 DIV PUSH1 0xFF AND ISZERO PUSH2 0x4F61 JUMPI PUSH2 0x4EB7 PUSH1 0x9 DUP3 DUP2 SLOAD DUP2 LT PUSH2 0x4E81 JUMPI PUSH2 0x4E80 PUSH2 0x88F6 JUMP JUMPDEST JUMPDEST SWAP1 PUSH0 MSTORE PUSH1 0x20 PUSH0 KECCAK256 ADD PUSH0 SWAP1 SLOAD SWAP1 PUSH2 0x100 EXP SWAP1 DIV PUSH20 0xFFFFFFFFFFFFFFFFFFFFFFFFFFFFFFFFFFFFFFFF AND PUSH8 0xDE0B6B3A7640000 PUSH2 0x68BB JUMP JUMPDEST PUSH8 0xDE0B6B3A7640000 PUSH1 0xC PUSH0 DUP3 DUP3 SLOAD PUSH2 0x4ED0 SWAP2 SWAP1 PUSH2 0x7BB8 JUMP JUMPDEST SWAP3 POP POP DUP2 SWAP1 SSTORE POP PUSH1 0x9 DUP2 DUP2 SLOAD DUP2 LT PUSH2 0x4EEB JUMPI PUSH2 0x4EEA PUSH2 0x88F6 JUMP JUMPDEST JUMPDEST SWAP1 PUSH0 MSTORE PUSH1 0x20 PUSH0 KECCAK256 ADD PUSH0 SWAP1 SLOAD SWAP1 PUSH2 0x100 EXP SWAP1 DIV PUSH20 0xFFFFFFFFFFFFFFFFFFFFFFFFFFFFFFFFFFFFFFFF AND DUP3 DUP3 DUP2 MLOAD DUP2 LT PUSH2 0x4F26 JUMPI PUSH2 0x4F25 PUSH2 0x88F6 JUMP JUMPDEST JUMPDEST PUSH1 0x20 MUL PUSH1 0x20 ADD ADD SWAP1 PUSH20 0xFFFFFFFFFFFFFFFFFFFFFFFFFFFFFFFFFFFFFFFF AND SWAP1 DUP2 PUSH20 0xFFFFFFFFFFFFFFFFFFFFFFFFFFFFFFFFFFFFFFFF AND DUP2 MSTORE POP POP JUMPDEST DUP1 DUP1 PUSH1 0x1 ADD SWAP2 POP POP PUSH2 0x4DD3 JUMP JUMPDEST POP TIMESTAMP PUSH1 0x21 DUP2 SWAP1 SSTORE POP PUSH32 0x2F4BFD5D5603381D5E4CCCB9869DD2016A99DBB6044D5E3081F57EC1FABA9E11 DUP2 PUSH8 0xDE0B6B3A7640000 PUSH1 0x40 MLOAD PUSH2 0x4FAF SWAP3 SWAP2 SWAP1 PUSH2 0x9638 JUMP JUMPDEST PUSH1 0x40 MLOAD DUP1 SWAP2 SUB SWAP1 LOG1 POP JUMP JUMPDEST PUSH1 0x18 DUP2 DUP2 SLOAD DUP2 LT PUSH2 0x4FC9 JUMPI PUSH0 DUP1 REVERT JUMPDEST SWAP1 PUSH0 MSTORE PUSH1 0x20 PUSH0 KECCAK256 ADD PUSH0 SWAP2 POP SLOAD SWAP1 PUSH2 0x100 EXP SWAP1 DIV PUSH20 0xFFFFFFFFFFFFFFFFFFFFFFFFFFFFFFFFFFFFFFFF AND DUP2 JUMP JUMPDEST PUSH1 0x19 DUP2 DUP2 SLOAD DUP2 LT PUSH2 0x5004 JUMPI PUSH0 DUP1 REVERT JUMPDEST SWAP1 PUSH0 MSTORE PUSH1 0x20 PUSH0 KECCAK256 ADD PUSH0 SWAP2 POP SLOAD SWAP1 PUSH2 0x100 EXP SWAP1 DIV PUSH20 0xFFFFFFFFFFFFFFFFFFFFFFFFFFFFFFFFFFFFFFFF AND DUP2 JUMP JUMPDEST PUSH1 0x11 PUSH1 0x2 SWAP1 SLOAD SWAP1 PUSH2 0x100 EXP SWAP1 DIV PUSH1 0xFF AND DUP2 JUMP JUMPDEST PUSH1 0x16 PUSH0 SWAP1 SLOAD SWAP1 PUSH2 0x100 EXP SWAP1 DIV PUSH1 0x7 SIGNEXTEND DUP2 JUMP JUMPDEST PUSH0 PUSH1 0x5 PUSH0 SWAP1 SLOAD SWAP1 PUSH2 0x100 EXP SWAP1 DIV PUSH20 0xFFFFFFFFFFFFFFFFFFFFFFFFFFFFFFFFFFFFFFFF AND SWAP1 POP SWAP1 JUMP JUMPDEST PUSH1 0x7 SLOAD DUP2 JUMP JUMPDEST PUSH1 0x11 PUSH1 0x2 SWAP1 SLOAD SWAP1 PUSH2 0x100 EXP SWAP1 DIV PUSH1 0xFF AND ISZERO PUSH2 0x50D3 JUMPI PUSH1 0x40 MLOAD PUSH32 0x8C379A000000000000000000000000000000000000000000000000000000000 DUP2 MSTORE PUSH1 0x4 ADD PUSH2 0x50CA SWAP1 PUSH2 0x79CE JUMP JUMPDEST PUSH1 0x40 MLOAD DUP1 SWAP2 SUB SWAP1 REVERT JUMPDEST PUSH1 0x11 PUSH0 SWAP1 SLOAD SWAP1 PUSH2 0x100 EXP SWAP1 DIV PUSH1 0xFF AND PUSH2 0x5121 JUMPI PUSH1 0x40 MLOAD PUSH32 0x8C379A000000000000000000000000000000000000000000000000000000000 DUP2 MSTORE PUSH1 0x4 ADD PUSH2 0x5118 SWAP1 PUSH2 0x8456 JUMP JUMPDEST PUSH1 0x40 MLOAD DUP1 SWAP2 SUB SWAP1 REVERT JUMPDEST PUSH1 0x13 PUSH0 SWAP1 SLOAD SWAP1 PUSH2 0x100 EXP SWAP1 DIV PUSH20 0xFFFFFFFFFFFFFFFFFFFFFFFFFFFFFFFFFFFFFFFF AND PUSH20 0xFFFFFFFFFFFFFFFFFFFFFFFFFFFFFFFFFFFFFFFF AND CALLER PUSH20 0xFFFFFFFFFFFFFFFFFFFFFFFFFFFFFFFFFFFFFFFF AND EQ PUSH2 0x51B0 JUMPI PUSH1 0x40 MLOAD PUSH32 0x8C379A000000000000000000000000000000000000000000000000000000000 DUP2 MSTORE PUSH1 0x4 ADD PUSH2 0x51A7 SWAP1 PUSH2 0x96B0 JUMP JUMPDEST PUSH1 0x40 MLOAD DUP1 SWAP2 SUB SWAP1 REVERT JUMPDEST PUSH0 PUSH1 0x12 PUSH1 0x40 MLOAD PUSH1 0x20 ADD PUSH2 0x51C3 SWAP2 SWAP1 PUSH2 0x855C JUMP JUMPDEST PUSH1 0x40 MLOAD PUSH1 0x20 DUP2 DUP4 SUB SUB DUP2 MSTORE SWAP1 PUSH1 0x40 MSTORE DUP1 MLOAD SWAP1 PUSH1 0x20 ADD KECCAK256 SWAP1 POP PUSH1 0x40 MLOAD PUSH1 0x20 ADD PUSH2 0x51EA SWAP1 PUSH2 0x94D0 JUMP JUMPDEST PUSH1 0x40 MLOAD PUSH1 0x20 DUP2 DUP4 SUB SUB DUP2 MSTORE SWAP1 PUSH1 0x40 MSTORE DUP1 MLOAD SWAP1 PUSH1 0x20 ADD KECCAK256 DUP2 EQ DUP1 PUSH2 0x5230 JUMPI POP PUSH1 0x40 MLOAD PUSH1 0x20 ADD PUSH2 0x5217 SWAP1 PUSH2 0x952E JUMP JUMPDEST PUSH1 0x40 MLOAD PUSH1 0x20 DUP2 DUP4 SUB SUB DUP2 MSTORE SWAP1 PUSH1 0x40 MSTORE DUP1 MLOAD SWAP1 PUSH1 0x20 ADD KECCAK256 DUP2 EQ JUMPDEST DUP1 PUSH2 0x525E JUMPI POP PUSH1 0x40 MLOAD PUSH1 0x20 ADD PUSH2 0x5245 SWAP1 PUSH2 0x8812 JUMP JUMPDEST PUSH1 0x40 MLOAD PUSH1 0x20 DUP2 DUP4 SUB SUB DUP2 MSTORE SWAP1 PUSH1 0x40 MSTORE DUP1 MLOAD SWAP1 PUSH1 0x20 ADD KECCAK256 DUP2 EQ JUMPDEST PUSH2 0x529D JUMPI PUSH1 0x40 MLOAD PUSH32 0x8C379A000000000000000000000000000000000000000000000000000000000 DUP2 MSTORE PUSH1 0x4 ADD PUSH2 0x5294 SWAP1 PUSH2 0x973E JUMP JUMPDEST PUSH1 0x40 MLOAD DUP1 SWAP2 SUB SWAP1 REVERT JUMPDEST PUSH1 0x5 PUSH1 0x10 SLOAD LT ISZERO PUSH2 0x52E3 JUMPI PUSH1 0x40 MLOAD PUSH32 0x8C379A000000000000000000000000000000000000000000000000000000000 DUP2 MSTORE PUSH1 0x4 ADD PUSH2 0x52DA SWAP1 PUSH2 0x97A6 JUMP JUMPDEST PUSH1 0x40 MLOAD DUP1 SWAP2 SUB SWAP1 REVERT JUMPDEST PUSH1 0x40 MLOAD PUSH1 0x20 ADD PUSH2 0x52F2 SWAP1 PUSH2 0x94D0 JUMP JUMPDEST PUSH1 0x40 MLOAD PUSH1 0x20 DUP2 DUP4 SUB SUB DUP2 MSTORE SWAP1 PUSH1 0x40 MSTORE DUP1 MLOAD SWAP1 PUSH1 0x20 ADD KECCAK256 DUP2 SUB PUSH2 0x5357 JUMPI PUSH1 0x14 SLOAD TIMESTAMP LT PUSH2 0x5352 JUMPI PUSH1 0x40 MLOAD PUSH32 0x8C379A000000000000000000000000000000000000000000000000000000000 DUP2 MSTORE PUSH1 0x4 ADD PUSH2 0x5349 SWAP1 PUSH2 0x980E JUMP JUMPDEST PUSH1 0x40 MLOAD DUP1 SWAP2 SUB SWAP1 REVERT JUMPDEST PUSH2 0x543D JUMP JUMPDEST PUSH1 0x40 MLOAD PUSH1 0x20 ADD PUSH2 0x5366 SWAP1 PUSH2 0x952E JUMP JUMPDEST PUSH1 0x40 MLOAD PUSH1 0x20 DUP2 DUP4 SUB SUB DUP2 MSTORE SWAP1 PUSH1 0x40 MSTORE DUP1 MLOAD SWAP1 PUSH1 0x20 ADD KECCAK256 DUP2 SUB PUSH2 0x53CB JUMPI PUSH1 0x17 SLOAD TIMESTAMP LT PUSH2 0x53C6 JUMPI PUSH1 0x40 MLOAD PUSH32 0x8C379A000000000000000000000000000000000000000000000000000000000 DUP2 MSTORE PUSH1 0x4 ADD PUSH2 0x53BD SWAP1 PUSH2 0x980E JUMP JUMPDEST PUSH1 0x40 MLOAD DUP1 SWAP2 SUB SWAP1 REVERT JUMPDEST PUSH2 0x543C JUMP JUMPDEST PUSH1 0x40 MLOAD PUSH1 0x20 ADD PUSH2 0x53DA SWAP1 PUSH2 0x8812 JUMP JUMPDEST PUSH1 0x40 MLOAD PUSH1 0x20 DUP2 DUP4 SUB SUB DUP2 MSTORE SWAP1 PUSH1 0x40 MSTORE DUP1 MLOAD SWAP1 PUSH1 0x20 ADD KECCAK256 DUP2 SUB PUSH2 0x543B JUMPI PUSH1 0x1A SLOAD TIMESTAMP LT PUSH2 0x543A JUMPI PUSH1 0x40 MLOAD PUSH32 0x8C379A000000000000000000000000000000000000000000000000000000000 DUP2 MSTORE PUSH1 0x4 ADD PUSH2 0x5431 SWAP1 PUSH2 0x980E JUMP JUMPDEST PUSH1 0x40 MLOAD DUP1 SWAP2 SUB SWAP1 REVERT JUMPDEST JUMPDEST JUMPDEST JUMPDEST PUSH2 0x5445 PUSH2 0x69E6 JUMP JUMPDEST PUSH0 PUSH1 0x10 DUP2 SWAP1 SSTORE POP PUSH0 PUSH1 0x12 DUP1 SLOAD PUSH2 0x545A SWAP1 PUSH2 0x7954 JUMP JUMPDEST DUP1 PUSH1 0x1F ADD PUSH1 0x20 DUP1 SWAP2 DIV MUL PUSH1 0x20 ADD PUSH1 0x40 MLOAD SWAP1 DUP2 ADD PUSH1 0x40 MSTORE DUP1 SWAP3 SWAP2 SWAP1 DUP2 DUP2 MSTORE PUSH1 0x20 ADD DUP3 DUP1 SLOAD PUSH2 0x5486 SWAP1 PUSH2 0x7954 JUMP JUMPDEST DUP1 ISZERO PUSH2 0x54D1 JUMPI DUP1 PUSH1 0x1F LT PUSH2 0x54A8 JUMPI PUSH2 0x100 DUP1 DUP4 SLOAD DIV MUL DUP4 MSTORE SWAP2 PUSH1 0x20 ADD SWAP2 PUSH2 0x54D1 JUMP JUMPDEST DUP3 ADD SWAP2 SWAP1 PUSH0 MSTORE PUSH1 0x20 PUSH0 KECCAK256 SWAP1 JUMPDEST DUP2 SLOAD DUP2 MSTORE SWAP1 PUSH1 0x1 ADD SWAP1 PUSH1 0x20 ADD DUP1 DUP4 GT PUSH2 0x54B4 JUMPI DUP3 SWAP1 SUB PUSH1 0x1F AND DUP3 ADD SWAP2 JUMPDEST POP POP POP POP POP SWAP1 POP PUSH0 PUSH1 0x11 PUSH0 PUSH2 0x100 EXP DUP2 SLOAD DUP2 PUSH1 0xFF MUL NOT AND SWAP1 DUP4 ISZERO ISZERO MUL OR SWAP1 SSTORE POP PUSH1 0x40 MLOAD DUP1 PUSH1 0x20 ADD PUSH1 0x40 MSTORE DUP1 PUSH0 DUP2 MSTORE POP PUSH1 0x12 SWAP1 DUP2 PUSH2 0x550E SWAP2 SWAP1 PUSH2 0x8022 JUMP JUMPDEST POP PUSH0 PUSH1 0x13 PUSH0 PUSH2 0x100 EXP DUP2 SLOAD DUP2 PUSH20 0xFFFFFFFFFFFFFFFFFFFFFFFFFFFFFFFFFFFFFFFF MUL NOT AND SWAP1 DUP4 PUSH20 0xFFFFFFFFFFFFFFFFFFFFFFFFFFFFFFFFFFFFFFFF AND MUL OR SWAP1 SSTORE POP PUSH1 0x40 MLOAD PUSH1 0x20 ADD PUSH2 0x555E SWAP1 PUSH2 0x94D0 JUMP JUMPDEST PUSH1 0x40 MLOAD PUSH1 0x20 DUP2 DUP4 SUB SUB DUP2 MSTORE SWAP1 PUSH1 0x40 MSTORE DUP1 MLOAD SWAP1 PUSH1 0x20 ADD KECCAK256 DUP3 SUB PUSH2 0x5591 JUMPI PUSH1 0x15 PUSH0 PUSH2 0x5587 SWAP2 SWAP1 PUSH2 0x71AF JUMP JUMPDEST PUSH1 0x14 PUSH0 SWAP1 SSTORE PUSH2 0x562B JUMP JUMPDEST PUSH1 0x40 MLOAD PUSH1 0x20 ADD PUSH2 0x55A0 SWAP1 PUSH2 0x952E JUMP JUMPDEST PUSH1 0x40 MLOAD PUSH1 0x20 DUP2 DUP4 SUB SUB DUP2 MSTORE SWAP1 PUSH1 0x40 MSTORE DUP1 MLOAD SWAP1 PUSH1 0x20 ADD KECCAK256 DUP3 SUB PUSH2 0x55DE JUMPI PUSH1 0x16 PUSH0 PUSH2 0x100 EXP DUP2 SLOAD SWAP1 PUSH8 0xFFFFFFFFFFFFFFFF MUL NOT AND SWAP1 SSTORE PUSH1 0x17 PUSH0 SWAP1 SSTORE PUSH2 0x562A JUMP JUMPDEST PUSH1 0x40 MLOAD PUSH1 0x20 ADD PUSH2 0x55ED SWAP1 PUSH2 0x8812 JUMP JUMPDEST PUSH1 0x40 MLOAD PUSH1 0x20 DUP2 DUP4 SUB SUB DUP2 MSTORE SWAP1 PUSH1 0x40 MSTORE DUP1 MLOAD SWAP1 PUSH1 0x20 ADD KECCAK256 DUP3 SUB PUSH2 0x5629 JUMPI PUSH1 0x18 PUSH0 PUSH2 0x5616 SWAP2 SWAP1 PUSH2 0x71EC JUMP JUMPDEST PUSH1 0x19 PUSH0 PUSH2 0x5623 SWAP2 SWAP1 PUSH2 0x71EC JUMP JUMPDEST PUSH1 0x1A PUSH0 SWAP1 SSTORE JUMPDEST JUMPDEST JUMPDEST PUSH32 0x7E9DD9661006E07D548ED10DC1FD44E54AF530215C153AB93B4CDD0DABA0F864 DUP2 CALLER PUSH1 0x40 MLOAD PUSH2 0x565C SWAP3 SWAP2 SWAP1 PUSH2 0x9285 JUMP JUMPDEST PUSH1 0x40 MLOAD DUP1 SWAP2 SUB SWAP1 LOG1 POP POP JUMP JUMPDEST PUSH1 0x60 PUSH1 0x4 DUP1 SLOAD PUSH2 0x5677 SWAP1 PUSH2 0x7954 JUMP JUMPDEST DUP1 PUSH1 0x1F ADD PUSH1 0x20 DUP1 SWAP2 DIV MUL PUSH1 0x20 ADD PUSH1 0x40 MLOAD SWAP1 DUP2 ADD PUSH1 0x40 MSTORE DUP1 SWAP3 SWAP2 SWAP1 DUP2 DUP2 MSTORE PUSH1 0x20 ADD DUP3 DUP1 SLOAD PUSH2 0x56A3 SWAP1 PUSH2 0x7954 JUMP JUMPDEST DUP1 ISZERO PUSH2 0x56EE JUMPI DUP1 PUSH1 0x1F LT PUSH2 0x56C5 JUMPI PUSH2 0x100 DUP1 DUP4 SLOAD DIV MUL DUP4 MSTORE SWAP2 PUSH1 0x20 ADD SWAP2 PUSH2 0x56EE JUMP JUMPDEST DUP3 ADD SWAP2 SWAP1 PUSH0 MSTORE PUSH1 0x20 PUSH0 KECCAK256 SWAP1 JUMPDEST DUP2 SLOAD DUP2 MSTORE SWAP1 PUSH1 0x1 ADD SWAP1 PUSH1 0x20 ADD DUP1 DUP4 GT PUSH2 0x56D1 JUMPI DUP3 SWAP1 SUB PUSH1 0x1F AND DUP3 ADD SWAP2 JUMPDEST POP POP POP POP POP SWAP1 POP SWAP1 JUMP JUMPDEST PUSH1 0x1B PUSH0 SWAP1 SLOAD SWAP1 PUSH2 0x100 EXP SWAP1 DIV PUSH20 0xFFFFFFFFFFFFFFFFFFFFFFFFFFFFFFFFFFFFFFFF AND DUP2 JUMP JUMPDEST PUSH1 0x8 PUSH1 0x20 MSTORE DUP1 PUSH0 MSTORE PUSH1 0x40 PUSH0 KECCAK256 PUSH0 SWAP2 POP SLOAD SWAP1 PUSH2 0x100 EXP SWAP1 DIV PUSH1 0xFF AND DUP2 JUMP JUMPDEST PUSH0 PUSH1 0x11 PUSH1 0x2 SWAP1 SLOAD SWAP1 PUSH2 0x100 EXP SWAP1 DIV PUSH1 0xFF AND ISZERO PUSH2 0x578B JUMPI PUSH1 0x40 MLOAD PUSH32 0x8C379A000000000000000000000000000000000000000000000000000000000 DUP2 MSTORE PUSH1 0x4 ADD PUSH2 0x5782 SWAP1 PUSH2 0x79CE JUMP JUMPDEST PUSH1 0x40 MLOAD DUP1 SWAP2 SUB SWAP1 REVERT JUMPDEST PUSH1 0xA PUSH0 CALLER PUSH20 0xFFFFFFFFFFFFFFFFFFFFFFFFFFFFFFFFFFFFFFFF AND PUSH20 0xFFFFFFFFFFFFFFFFFFFFFFFFFFFFFFFFFFFFFFFF AND DUP2 MSTORE PUSH1 0x20 ADD SWAP1 DUP2 MSTORE PUSH1 0x20 ADD PUSH0 KECCAK256 PUSH0 SWAP1 SLOAD SWAP1 PUSH2 0x100 EXP SWAP1 DIV PUSH1 0xFF AND ISZERO PUSH2 0x5815 JUMPI PUSH1 0x40 MLOAD PUSH32 0x8C379A000000000000000000000000000000000000000000000000000000000 DUP2 MSTORE PUSH1 0x4 ADD PUSH2 0x580C SWAP1 PUSH2 0x8240 JUMP JUMPDEST PUSH1 0x40 MLOAD DUP1 SWAP2 SUB SWAP1 REVERT JUMPDEST DUP2 PUSH16 0xFFFFFFFFFFFFFFFFFFFFFFFFFFFFFFFF AND DUP3 EQ PUSH2 0x5869 JUMPI PUSH1 0x40 MLOAD PUSH32 0x8C379A000000000000000000000000000000000000000000000000000000000 DUP2 MSTORE PUSH1 0x4 ADD PUSH2 0x5860 SWAP1 PUSH2 0x82A8 JUMP JUMPDEST PUSH1 0x40 MLOAD DUP1 SWAP2 SUB SWAP1 REVERT JUMPDEST PUSH2 0x5873 DUP4 DUP4 PUSH2 0x6C0F JUMP JUMPDEST SWAP1 POP SWAP3 SWAP2 POP POP JUMP JUMPDEST PUSH0 ADDRESS SWAP1 POP SWAP1 JUMP JUMPDEST PUSH1 0x13 PUSH0 SWAP1 SLOAD SWAP1 PUSH2 0x100 EXP SWAP1 DIV PUSH20 0xFFFFFFFFFFFFFFFFFFFFFFFFFFFFFFFFFFFFFFFF AND DUP2 JUMP JUMPDEST PUSH1 0x11 PUSH1 0x1 SWAP1 SLOAD SWAP1 PUSH2 0x100 EXP SWAP1 DIV PUSH1 0xFF AND DUP2 JUMP JUMPDEST PUSH1 0x11 PUSH1 0x2 SWAP1 SLOAD SWAP1 PUSH2 0x100 EXP SWAP1 DIV PUSH1 0xFF AND ISZERO PUSH2 0x590A JUMPI PUSH1 0x40 MLOAD PUSH32 0x8C379A000000000000000000000000000000000000000000000000000000000 DUP2 MSTORE PUSH1 0x4 ADD PUSH2 0x5901 SWAP1 PUSH2 0x79CE JUMP JUMPDEST PUSH1 0x40 MLOAD DUP1 SWAP2 SUB SWAP1 REVERT JUMPDEST PUSH1 0x11 PUSH0 SWAP1 SLOAD SWAP1 PUSH2 0x100 EXP SWAP1 DIV PUSH1 0xFF AND PUSH2 0x5958 JUMPI PUSH1 0x40 MLOAD PUSH32 0x8C379A000000000000000000000000000000000000000000000000000000000 DUP2 MSTORE PUSH1 0x4 ADD PUSH2 0x594F SWAP1 PUSH2 0x8456 JUMP JUMPDEST PUSH1 0x40 MLOAD DUP1 SWAP2 SUB SWAP1 REVERT JUMPDEST PUSH1 0x40 MLOAD PUSH1 0x20 ADD PUSH2 0x5967 SWAP1 PUSH2 0x9414 JUMP JUMPDEST PUSH1 0x40 MLOAD PUSH1 0x20 DUP2 DUP4 SUB SUB DUP2 MSTORE SWAP1 PUSH1 0x40 MSTORE DUP1 MLOAD SWAP1 PUSH1 0x20 ADD KECCAK256 PUSH1 0x12 PUSH1 0x40 MLOAD PUSH1 0x20 ADD PUSH2 0x598F SWAP2 SWAP1 PUSH2 0x855C JUMP JUMPDEST PUSH1 0x40 MLOAD PUSH1 0x20 DUP2 DUP4 SUB SUB DUP2 MSTORE SWAP1 PUSH1 0x40 MSTORE DUP1 MLOAD SWAP1 PUSH1 0x20 ADD KECCAK256 EQ PUSH2 0x59E5 JUMPI PUSH1 0x40 MLOAD PUSH32 0x8C379A000000000000000000000000000000000000000000000000000000000 DUP2 MSTORE PUSH1 0x4 ADD PUSH2 0x59DC SWAP1 PUSH2 0x85BC JUMP JUMPDEST PUSH1 0x40 MLOAD DUP1 SWAP2 SUB SWAP1 REVERT JUMPDEST PUSH1 0x3 PUSH1 0x10 SLOAD LT ISZERO PUSH2 0x5A2B JUMPI PUSH1 0x40 MLOAD PUSH32 0x8C379A000000000000000000000000000000000000000000000000000000000 DUP2 MSTORE PUSH1 0x4 ADD PUSH2 0x5A22 SWAP1 PUSH2 0x8624 JUMP JUMPDEST PUSH1 0x40 MLOAD DUP1 SWAP2 SUB SWAP1 REVERT JUMPDEST PUSH0 PUSH20 0xFFFFFFFFFFFFFFFFFFFFFFFFFFFFFFFFFFFFFFFF AND PUSH1 0x1B PUSH0 SWAP1 SLOAD SWAP1 PUSH2 0x100 EXP SWAP1 DIV PUSH20 0xFFFFFFFFFFFFFFFFFFFFFFFFFFFFFFFFFFFFFFFF AND PUSH20 0xFFFFFFFFFFFFFFFFFFFFFFFFFFFFFFFFFFFFFFFF AND SUB PUSH2 0x5ABA JUMPI PUSH1 0x40 MLOAD PUSH32 0x8C379A000000000000000000000000000000000000000000000000000000000 DUP2 MSTORE PUSH1 0x4 ADD PUSH2 0x5AB1 SWAP1 PUSH2 0x8FBF JUMP JUMPDEST PUSH1 0x40 MLOAD DUP1 SWAP2 SUB SWAP1 REVERT JUMPDEST PUSH1 0x8 PUSH0 PUSH1 0x1B PUSH0 SWAP1 SLOAD SWAP1 PUSH2 0x100 EXP SWAP1 DIV PUSH20 0xFFFFFFFFFFFFFFFFFFFFFFFFFFFFFFFFFFFFFFFF AND PUSH20 0xFFFFFFFFFFFFFFFFFFFFFFFFFFFFFFFFFFFFFFFF AND PUSH20 0xFFFFFFFFFFFFFFFFFFFFFFFFFFFFFFFFFFFFFFFF AND DUP2 MSTORE PUSH1 0x20 ADD SWAP1 DUP2 MSTORE PUSH1 0x20 ADD PUSH0 KECCAK256 PUSH0 SWAP1 SLOAD SWAP1 PUSH2 0x100 EXP SWAP1 DIV PUSH1 0xFF AND ISZERO PUSH2 0x5B65 JUMPI PUSH1 0x40 MLOAD PUSH32 0x8C379A000000000000000000000000000000000000000000000000000000000 DUP2 MSTORE PUSH1 0x4 ADD PUSH2 0x5B5C SWAP1 PUSH2 0x8378 JUMP JUMPDEST PUSH1 0x40 MLOAD DUP1 SWAP2 SUB SWAP1 REVERT JUMPDEST PUSH1 0x1 PUSH1 0x8 PUSH0 PUSH1 0x1B PUSH0 SWAP1 SLOAD SWAP1 PUSH2 0x100 EXP SWAP1 DIV PUSH20 0xFFFFFFFFFFFFFFFFFFFFFFFFFFFFFFFFFFFFFFFF AND PUSH20 0xFFFFFFFFFFFFFFFFFFFFFFFFFFFFFFFFFFFFFFFF AND PUSH20 0xFFFFFFFFFFFFFFFFFFFFFFFFFFFFFFFFFFFFFFFF AND DUP2 MSTORE PUSH1 0x20 ADD SWAP1 DUP2 MSTORE PUSH1 0x20 ADD PUSH0 KECCAK256 PUSH0 PUSH2 0x100 EXP DUP2 SLOAD DUP2 PUSH1 0xFF MUL NOT AND SWAP1 DUP4 ISZERO ISZERO MUL OR SWAP1 SSTORE POP PUSH1 0x9 PUSH1 0x1B PUSH0 SWAP1 SLOAD SWAP1 PUSH2 0x100 EXP SWAP1 DIV PUSH20 0xFFFFFFFFFFFFFFFFFFFFFFFFFFFFFFFFFFFFFFFF AND SWAP1 DUP1 PUSH1 0x1 DUP2 SLOAD ADD DUP1 DUP3 SSTORE DUP1 SWAP2 POP POP PUSH1 0x1 SWAP1 SUB SWAP1 PUSH0 MSTORE PUSH1 0x20 PUSH0 KECCAK256 ADD PUSH0 SWAP1 SWAP2 SWAP1 SWAP2 SWAP1 SWAP2 PUSH2 0x100 EXP DUP2 SLOAD DUP2 PUSH20 0xFFFFFFFFFFFFFFFFFFFFFFFFFFFFFFFFFFFFFFFF MUL NOT AND SWAP1 DUP4 PUSH20 0xFFFFFFFFFFFFFFFFFFFFFFFFFFFFFFFFFFFFFFFF AND MUL OR SWAP1 SSTORE POP PUSH0 PUSH1 0x11 PUSH0 PUSH2 0x100 EXP DUP2 SLOAD DUP2 PUSH1 0xFF MUL NOT AND SWAP1 DUP4 ISZERO ISZERO MUL OR SWAP1 SSTORE POP PUSH1 0x40 MLOAD DUP1 PUSH1 0x20 ADD PUSH1 0x40 MSTORE DUP1 PUSH0 DUP2 MSTORE POP PUSH1 0x12 SWAP1 DUP2 PUSH2 0x5C92 SWAP2 SWAP1 PUSH2 0x8022 JUMP JUMPDEST POP PUSH32 0x7008E45448AD5AA92D72EC64B89807038870139694F96BE53E604AAB0426844D PUSH1 0x1B PUSH0 SWAP1 SLOAD SWAP1 PUSH2 0x100 EXP SWAP1 DIV PUSH20 0xFFFFFFFFFFFFFFFFFFFFFFFFFFFFFFFFFFFFFFFF AND PUSH1 0x40 MLOAD PUSH2 0x5CE3 SWAP2 SWAP1 PUSH2 0x83E0 JUMP JUMPDEST PUSH1 0x40 MLOAD DUP1 SWAP2 SUB SWAP1 LOG1 PUSH1 0x1B PUSH0 PUSH2 0x100 EXP DUP2 SLOAD SWAP1 PUSH20 0xFFFFFFFFFFFFFFFFFFFFFFFFFFFFFFFFFFFFFFFF MUL NOT AND SWAP1 SSTORE PUSH1 0x1C PUSH0 PUSH2 0x5D1C SWAP2 SWAP1 PUSH2 0x71AF JUMP JUMPDEST JUMP JUMPDEST PUSH1 0xB PUSH0 SWAP1 SLOAD SWAP1 PUSH2 0x100 EXP SWAP1 DIV PUSH20 0xFFFFFFFFFFFFFFFFFFFFFFFFFFFFFFFFFFFFFFFF AND DUP2 JUMP JUMPDEST PUSH1 0x17 SLOAD DUP2 JUMP JUMPDEST PUSH2 0x5D52 CALLER PUSH2 0x6944 JUMP JUMPDEST PUSH2 0x5D91 JUMPI PUSH1 0x40 MLOAD PUSH32 0x8C379A000000000000000000000000000000000000000000000000000000000 DUP2 MSTORE PUSH1 0x4 ADD PUSH2 0x5D88 SWAP1 PUSH2 0x7CC4 JUMP JUMPDEST PUSH1 0x40 MLOAD DUP1 SWAP2 SUB SWAP1 REVERT JUMPDEST PUSH1 0x11 PUSH1 0x2 SWAP1 SLOAD SWAP1 PUSH2 0x100 EXP SWAP1 DIV PUSH1 0xFF AND ISZERO PUSH2 0x5DE1 JUMPI PUSH1 0x40 MLOAD PUSH32 0x8C379A000000000000000000000000000000000000000000000000000000000 DUP2 MSTORE PUSH1 0x4 ADD PUSH2 0x5DD8 SWAP1 PUSH2 0x79CE JUMP JUMPDEST PUSH1 0x40 MLOAD DUP1 SWAP2 SUB SWAP1 REVERT JUMPDEST PUSH1 0x5 PUSH1 0x10 SLOAD LT PUSH2 0x5E26 JUMPI PUSH1 0x40 MLOAD PUSH32 0x8C379A000000000000000000000000000000000000000000000000000000000 DUP2 MSTORE PUSH1 0x4 ADD PUSH2 0x5E1D SWAP1 PUSH2 0x9876 JUMP JUMPDEST PUSH1 0x40 MLOAD DUP1 SWAP2 SUB SWAP1 REVERT JUMPDEST PUSH2 0x5E2E PUSH2 0x69E6 JUMP JUMPDEST PUSH0 PUSH1 0x10 DUP2 SWAP1 SSTORE POP PUSH0 PUSH1 0x11 PUSH1 0x2 PUSH2 0x100 EXP DUP2 SLOAD DUP2 PUSH1 0xFF MUL NOT AND SWAP1 DUP4 ISZERO ISZERO MUL OR SWAP1 SSTORE POP PUSH32 0xAB5F6DACF93A267A93A533DE8A56370DE8341BBD8102017307E7BE375C3DDA6A PUSH1 0x40 MLOAD PUSH1 0x40 MLOAD DUP1 SWAP2 SUB SWAP1 LOG1 JUMP JUMPDEST PUSH1 0x10 SLOAD DUP2 JUMP JUMPDEST PUSH1 0xA PUSH1 0x20 MSTORE DUP1 PUSH0 MSTORE PUSH1 0x40 PUSH0 KECCAK256 PUSH0 SWAP2 POP SLOAD SWAP1 PUSH2 0x100 EXP SWAP1 DIV PUSH1 0xFF AND DUP2 JUMP JUMPDEST PUSH1 0x11 PUSH1 0x2 SWAP1 SLOAD SWAP1 PUSH2 0x100 EXP SWAP1 DIV PUSH1 0xFF AND ISZERO PUSH2 0x5EF0 JUMPI PUSH1 0x40 MLOAD PUSH32 0x8C379A000000000000000000000000000000000000000000000000000000000 DUP2 MSTORE PUSH1 0x4 ADD PUSH2 0x5EE7 SWAP1 PUSH2 0x79CE JUMP JUMPDEST PUSH1 0x40 MLOAD DUP1 SWAP2 SUB SWAP1 REVERT JUMPDEST PUSH1 0x11 PUSH0 SWAP1 SLOAD SWAP1 PUSH2 0x100 EXP SWAP1 DIV PUSH1 0xFF AND PUSH2 0x5F3E JUMPI PUSH1 0x40 MLOAD PUSH32 0x8C379A000000000000000000000000000000000000000000000000000000000 DUP2 MSTORE PUSH1 0x4 ADD PUSH2 0x5F35 SWAP1 PUSH2 0x8456 JUMP JUMPDEST PUSH1 0x40 MLOAD DUP1 SWAP2 SUB SWAP1 REVERT JUMPDEST PUSH1 0x40 MLOAD PUSH1 0x20 ADD PUSH2 0x5F4D SWAP1 PUSH2 0x94D0 JUMP JUMPDEST PUSH1 0x40 MLOAD PUSH1 0x20 DUP2 DUP4 SUB SUB DUP2 MSTORE SWAP1 PUSH1 0x40 MSTORE DUP1 MLOAD SWAP1 PUSH1 0x20 ADD KECCAK256 PUSH1 0x12 PUSH1 0x40 MLOAD PUSH1 0x20 ADD PUSH2 0x5F75 SWAP2 SWAP1 PUSH2 0x855C JUMP JUMPDEST PUSH1 0x40 MLOAD PUSH1 0x20 DUP2 DUP4 SUB SUB DUP2 MSTORE SWAP1 PUSH1 0x40 MSTORE DUP1 MLOAD SWAP1 PUSH1 0x20 ADD KECCAK256 EQ PUSH2 0x5FCB JUMPI PUSH1 0x40 MLOAD PUSH32 0x8C379A000000000000000000000000000000000000000000000000000000000 DUP2 MSTORE PUSH1 0x4 ADD PUSH2 0x5FC2 SWAP1 PUSH2 0x85BC JUMP JUMPDEST PUSH1 0x40 MLOAD DUP1 SWAP2 SUB SWAP1 REVERT JUMPDEST PUSH1 0x14 SLOAD TIMESTAMP LT ISZERO PUSH2 0x6010 JUMPI PUSH1 0x40 MLOAD PUSH32 0x8C379A000000000000000000000000000000000000000000000000000000000 DUP2 MSTORE PUSH1 0x4 ADD PUSH2 0x6007 SWAP1 PUSH2 0x8870 JUMP JUMPDEST PUSH1 0x40 MLOAD DUP1 SWAP2 SUB SWAP1 REVERT JUMPDEST PUSH1 0x5 PUSH1 0x10 SLOAD LT ISZERO PUSH2 0x6056 JUMPI PUSH1 0x40 MLOAD PUSH32 0x8C379A000000000000000000000000000000000000000000000000000000000 DUP2 MSTORE PUSH1 0x4 ADD PUSH2 0x604D SWAP1 PUSH2 0x8624 JUMP JUMPDEST PUSH1 0x40 MLOAD DUP1 SWAP2 SUB SWAP1 REVERT JUMPDEST PUSH2 0x60E7 PUSH1 0x15 DUP1 SLOAD PUSH2 0x6066 SWAP1 PUSH2 0x7954 JUMP JUMPDEST DUP1 PUSH1 0x1F ADD PUSH1 0x20 DUP1 SWAP2 DIV MUL PUSH1 0x20 ADD PUSH1 0x40 MLOAD SWAP1 DUP2 ADD PUSH1 0x40 MSTORE DUP1 SWAP3 SWAP2 SWAP1 DUP2 DUP2 MSTORE PUSH1 0x20 ADD DUP3 DUP1 SLOAD PUSH2 0x6092 SWAP1 PUSH2 0x7954 JUMP JUMPDEST DUP1 ISZERO PUSH2 0x60DD JUMPI DUP1 PUSH1 0x1F LT PUSH2 0x60B4 JUMPI PUSH2 0x100 DUP1 DUP4 SLOAD DIV MUL DUP4 MSTORE SWAP2 PUSH1 0x20 ADD SWAP2 PUSH2 0x60DD JUMP JUMPDEST DUP3 ADD SWAP2 SWAP1 PUSH0 MSTORE PUSH1 0x20 PUSH0 KECCAK256 SWAP1 JUMPDEST DUP2 SLOAD DUP2 MSTORE SWAP1 PUSH1 0x1 ADD SWAP1 PUSH1 0x20 ADD DUP1 DUP4 GT PUSH2 0x60C0 JUMPI DUP3 SWAP1 SUB PUSH1 0x1F AND DUP3 ADD SWAP2 JUMPDEST POP POP POP POP POP PUSH2 0x6C31 JUMP JUMPDEST PUSH0 PUSH1 0x11 PUSH0 PUSH2 0x100 EXP DUP2 SLOAD DUP2 PUSH1 0xFF MUL NOT AND SWAP1 DUP4 ISZERO ISZERO MUL OR SWAP1 SSTORE POP PUSH1 0x40 MLOAD DUP1 PUSH1 0x20 ADD PUSH1 0x40 MSTORE DUP1 PUSH0 DUP2 MSTORE POP PUSH1 0x12 SWAP1 DUP2 PUSH2 0x611D SWAP2 SWAP1 PUSH2 0x8022 JUMP JUMPDEST POP PUSH0 PUSH1 0x13 PUSH0 PUSH2 0x100 EXP DUP2 SLOAD DUP2 PUSH20 0xFFFFFFFFFFFFFFFFFFFFFFFFFFFFFFFFFFFFFFFF MUL NOT AND SWAP1 DUP4 PUSH20 0xFFFFFFFFFFFFFFFFFFFFFFFFFFFFFFFFFFFFFFFF AND MUL OR SWAP1 SSTORE POP PUSH1 0x15 PUSH0 PUSH2 0x616B SWAP2 SWAP1 PUSH2 0x71AF JUMP JUMPDEST PUSH1 0x14 PUSH0 SWAP1 SSTORE PUSH32 0x4737457377F528CC8AFD815F73ECB8B05DF80D047DBFFC41C17750A4033592BC PUSH1 0x15 PUSH1 0x40 MLOAD PUSH2 0x61A0 SWAP2 SWAP1 PUSH2 0x9915 JUMP JUMPDEST PUSH1 0x40 MLOAD DUP1 SWAP2 SUB SWAP1 LOG1 JUMP JUMPDEST PUSH0 PUSH1 0xC SLOAD PUSH1 0x7 SLOAD PUSH2 0x61BB SWAP2 SWAP1 PUSH2 0x8FDD JUMP JUMPDEST SWAP1 POP SWAP1 JUMP JUMPDEST PUSH1 0xE DUP2 DUP2 SLOAD DUP2 LT PUSH2 0x61CF JUMPI PUSH0 DUP1 REVERT JUMPDEST SWAP1 PUSH0 MSTORE PUSH1 0x20 PUSH0 KECCAK256 ADD PUSH0 SWAP2 POP SLOAD SWAP1 PUSH2 0x100 EXP SWAP1 DIV PUSH20 0xFFFFFFFFFFFFFFFFFFFFFFFFFFFFFFFFFFFFFFFF AND DUP2 JUMP JUMPDEST PUSH0 PUSH1 0x1 PUSH0 DUP5 PUSH20 0xFFFFFFFFFFFFFFFFFFFFFFFFFFFFFFFFFFFFFFFF AND PUSH20 0xFFFFFFFFFFFFFFFFFFFFFFFFFFFFFFFFFFFFFFFF AND DUP2 MSTORE PUSH1 0x20 ADD SWAP1 DUP2 MSTORE PUSH1 0x20 ADD PUSH0 KECCAK256 PUSH0 DUP4 PUSH20 0xFFFFFFFFFFFFFFFFFFFFFFFFFFFFFFFFFFFFFFFF AND PUSH20 0xFFFFFFFFFFFFFFFFFFFFFFFFFFFFFFFFFFFFFFFF AND DUP2 MSTORE PUSH1 0x20 ADD SWAP1 DUP2 MSTORE PUSH1 0x20 ADD PUSH0 KECCAK256 SLOAD SWAP1 POP SWAP3 SWAP2 POP POP JUMP JUMPDEST PUSH0 PUSH1 0xA PUSH0 DUP4 PUSH20 0xFFFFFFFFFFFFFFFFFFFFFFFFFFFFFFFFFFFFFFFF AND PUSH20 0xFFFFFFFFFFFFFFFFFFFFFFFFFFFFFFFFFFFFFFFF AND DUP2 MSTORE PUSH1 0x20 ADD SWAP1 DUP2 MSTORE PUSH1 0x20 ADD PUSH0 KECCAK256 PUSH0 SWAP1 SLOAD SWAP1 PUSH2 0x100 EXP SWAP1 DIV PUSH1 0xFF AND SWAP1 POP SWAP2 SWAP1 POP JUMP JUMPDEST PUSH0 PUSH0 PUSH1 0xB PUSH0 SWAP1 SLOAD SWAP1 PUSH2 0x100 EXP SWAP1 DIV PUSH20 0xFFFFFFFFFFFFFFFFFFFFFFFFFFFFFFFFFFFFFFFF AND SWAP1 POP PUSH0 DUP2 PUSH20 0xFFFFFFFFFFFFFFFFFFFFFFFFFFFFFFFFFFFFFFFF AND PUSH4 0x3850C7BD PUSH1 0x40 MLOAD DUP2 PUSH4 0xFFFFFFFF AND PUSH1 0xE0 SHL DUP2 MSTORE PUSH1 0x4 ADD PUSH1 0xE0 PUSH1 0x40 MLOAD DUP1 DUP4 SUB DUP2 DUP7 GAS STATICCALL ISZERO DUP1 ISZERO PUSH2 0x633F JUMPI RETURNDATASIZE PUSH0 PUSH0 RETURNDATACOPY RETURNDATASIZE PUSH0 REVERT JUMPDEST POP POP POP POP PUSH1 0x40 MLOAD RETURNDATASIZE PUSH1 0x1F NOT PUSH1 0x1F DUP3 ADD AND DUP3 ADD DUP1 PUSH1 0x40 MSTORE POP DUP2 ADD SWAP1 PUSH2 0x6363 SWAP2 SWAP1 PUSH2 0x9A20 JUMP JUMPDEST POP POP POP POP POP POP SWAP1 POP PUSH0 PUSH25 0x1000000000000000000000000000000000000000000000000 PUSH1 0x2 DUP4 PUSH20 0xFFFFFFFFFFFFFFFFFFFFFFFFFFFFFFFFFFFFFFFF AND PUSH2 0x63A9 SWAP2 SWAP1 PUSH2 0x9BEC JUMP JUMPDEST PUSH2 0x63B3 SWAP2 SWAP1 PUSH2 0x9C63 JUMP JUMPDEST SWAP1 POP DUP1 SWAP4 POP POP POP POP SWAP1 JUMP JUMPDEST PUSH1 0x11 PUSH1 0x2 SWAP1 SLOAD SWAP1 PUSH2 0x100 EXP SWAP1 DIV PUSH1 0xFF AND ISZERO PUSH2 0x640E JUMPI PUSH1 0x40 MLOAD PUSH32 0x8C379A000000000000000000000000000000000000000000000000000000000 DUP2 MSTORE PUSH1 0x4 ADD PUSH2 0x6405 SWAP1 PUSH2 0x79CE JUMP JUMPDEST PUSH1 0x40 MLOAD DUP1 SWAP2 SUB SWAP1 REVERT JUMPDEST PUSH1 0x11 PUSH0 SWAP1 SLOAD SWAP1 PUSH2 0x100 EXP SWAP1 DIV PUSH1 0xFF AND PUSH2 0x645C JUMPI PUSH1 0x40 MLOAD PUSH32 0x8C379A000000000000000000000000000000000000000000000000000000000 DUP2 MSTORE PUSH1 0x4 ADD PUSH2 0x6453 SWAP1 PUSH2 0x8456 JUMP JUMPDEST PUSH1 0x40 MLOAD DUP1 SWAP2 SUB SWAP1 REVERT JUMPDEST PUSH1 0x40 MLOAD PUSH1 0x20 ADD PUSH2 0x646B SWAP1 PUSH2 0x9472 JUMP JUMPDEST PUSH1 0x40 MLOAD PUSH1 0x20 DUP2 DUP4 SUB SUB DUP2 MSTORE SWAP1 PUSH1 0x40 MSTORE DUP1 MLOAD SWAP1 PUSH1 0x20 ADD KECCAK256 PUSH1 0x12 PUSH1 0x40 MLOAD PUSH1 0x20 ADD PUSH2 0x6493 SWAP2 SWAP1 PUSH2 0x855C JUMP JUMPDEST PUSH1 0x40 MLOAD PUSH1 0x20 DUP2 DUP4 SUB SUB DUP2 MSTORE SWAP1 PUSH1 0x40 MSTORE DUP1 MLOAD SWAP1 PUSH1 0x20 ADD KECCAK256 EQ PUSH2 0x64E9 JUMPI PUSH1 0x40 MLOAD PUSH32 0x8C379A000000000000000000000000000000000000000000000000000000000 DUP2 MSTORE PUSH1 0x4 ADD PUSH2 0x64E0 SWAP1 PUSH2 0x85BC JUMP JUMPDEST PUSH1 0x40 MLOAD DUP1 SWAP2 SUB SWAP1 REVERT JUMPDEST PUSH1 0x2 PUSH1 0x10 SLOAD LT ISZERO PUSH2 0x652F JUMPI PUSH1 0x40 MLOAD PUSH32 0x8C379A000000000000000000000000000000000000000000000000000000000 DUP2 MSTORE PUSH1 0x4 ADD PUSH2 0x6526 SWAP1 PUSH2 0x8624 JUMP JUMPDEST PUSH1 0x40 MLOAD DUP1 SWAP2 SUB SWAP1 REVERT JUMPDEST PUSH0 PUSH20 0xFFFFFFFFFFFFFFFFFFFFFFFFFFFFFFFFFFFFFFFF AND PUSH1 0x1F PUSH0 SWAP1 SLOAD SWAP1 PUSH2 0x100 EXP SWAP1 DIV PUSH20 0xFFFFFFFFFFFFFFFFFFFFFFFFFFFFFFFFFFFFFFFF AND PUSH20 0xFFFFFFFFFFFFFFFFFFFFFFFFFFFFFFFFFFFFFFFF AND SUB PUSH2 0x65BE JUMPI PUSH1 0x40 MLOAD PUSH32 0x8C379A000000000000000000000000000000000000000000000000000000000 DUP2 MSTORE PUSH1 0x4 ADD PUSH2 0x65B5 SWAP1 PUSH2 0x9CDD JUMP JUMPDEST PUSH1 0x40 MLOAD DUP1 SWAP2 SUB SWAP1 REVERT JUMPDEST PUSH1 0x8 PUSH0 PUSH1 0x1F PUSH0 SWAP1 SLOAD SWAP1 PUSH2 0x100 EXP SWAP1 DIV PUSH20 0xFFFFFFFFFFFFFFFFFFFFFFFFFFFFFFFFFFFFFFFF AND PUSH20 0xFFFFFFFFFFFFFFFFFFFFFFFFFFFFFFFFFFFFFFFF AND PUSH20 0xFFFFFFFFFFFFFFFFFFFFFFFFFFFFFFFFFFFFFFFF AND DUP2 MSTORE PUSH1 0x20 ADD SWAP1 DUP2 MSTORE PUSH1 0x20 ADD PUSH0 KECCAK256 PUSH0 SWAP1 SLOAD SWAP1 PUSH2 0x100 EXP SWAP1 DIV PUSH1 0xFF AND PUSH2 0x6668 JUMPI PUSH1 0x40 MLOAD PUSH32 0x8C379A000000000000000000000000000000000000000000000000000000000 DUP2 MSTORE PUSH1 0x4 ADD PUSH2 0x665F SWAP1 PUSH2 0x7D94 JUMP JUMPDEST PUSH1 0x40 MLOAD DUP1 SWAP2 SUB SWAP1 REVERT JUMPDEST PUSH2 0x6695 PUSH1 0x1F PUSH0 SWAP1 SLOAD SWAP1 PUSH2 0x100 EXP SWAP1 DIV PUSH20 0xFFFFFFFFFFFFFFFFFFFFFFFFFFFFFFFFFFFFFFFF AND PUSH1 0x20 SLOAD PUSH2 0x68BB JUMP JUMPDEST PUSH1 0x20 SLOAD PUSH1 0xC PUSH0 DUP3 DUP3 SLOAD PUSH2 0x66A8 SWAP2 SWAP1 PUSH2 0x7BB8 JUMP JUMPDEST SWAP3 POP POP DUP2 SWAP1 SSTORE POP PUSH0 PUSH1 0x11 PUSH0 PUSH2 0x100 EXP DUP2 SLOAD DUP2 PUSH1 0xFF MUL NOT AND SWAP1 DUP4 ISZERO ISZERO MUL OR SWAP1 SSTORE POP PUSH1 0x40 MLOAD DUP1 PUSH1 0x20 ADD PUSH1 0x40 MSTORE DUP1 PUSH0 DUP2 MSTORE POP PUSH1 0x12 SWAP1 DUP2 PUSH2 0x66E5 SWAP2 SWAP1 PUSH2 0x8022 JUMP JUMPDEST POP PUSH32 0x570563F436DC733C61D3863FD95E547272964F69D7B5CFE7461360A7A5643E3C PUSH1 0x1F PUSH0 SWAP1 SLOAD SWAP1 PUSH2 0x100 EXP SWAP1 DIV PUSH20 0xFFFFFFFFFFFFFFFFFFFFFFFFFFFFFFFFFFFFFFFF AND PUSH1 0x20 SLOAD PUSH1 0x40 MLOAD PUSH2 0x673A SWAP3 SWAP2 SWAP1 PUSH2 0x80F1 JUMP JUMPDEST PUSH1 0x40 MLOAD DUP1 SWAP2 SUB SWAP1 LOG1 PUSH1 0x1F PUSH0 PUSH2 0x100 EXP DUP2 SLOAD SWAP1 PUSH20 0xFFFFFFFFFFFFFFFFFFFFFFFFFFFFFFFFFFFFFFFF MUL NOT AND SWAP1 SSTORE PUSH1 0x20 PUSH0 SWAP1 SSTORE JUMP JUMPDEST PUSH2 0x6775 PUSH2 0x6AC5 JUMP JUMPDEST PUSH0 PUSH20 0xFFFFFFFFFFFFFFFFFFFFFFFFFFFFFFFFFFFFFFFF AND DUP2 PUSH20 0xFFFFFFFFFFFFFFFFFFFFFFFFFFFFFFFFFFFFFFFF AND SUB PUSH2 0x67E5 JUMPI PUSH0 PUSH1 0x40 MLOAD PUSH32 0x1E4FBDF700000000000000000000000000000000000000000000000000000000 DUP2 MSTORE PUSH1 0x4 ADD PUSH2 0x67DC SWAP2 SWAP1 PUSH2 0x74EB JUMP JUMPDEST PUSH1 0x40 MLOAD DUP1 SWAP2 SUB SWAP1 REVERT JUMPDEST PUSH2 0x67EE DUP2 PUSH2 0x6B4C JUMP JUMPDEST POP JUMP JUMPDEST PUSH1 0x2 DUP2 JUMP JUMPDEST PUSH2 0x67FE PUSH2 0x6AC5 JUMP JUMPDEST PUSH1 0x1 PUSH1 0x11 PUSH1 0x1 PUSH2 0x100 EXP DUP2 SLOAD DUP2 PUSH1 0xFF MUL NOT AND SWAP1 DUP4 ISZERO ISZERO MUL OR SWAP1 SSTORE POP PUSH32 0x20C53179FE7C6306D9D1C279D52BAE5E736F5E1178137542D3A7A9D1752691BE PUSH1 0x40 MLOAD PUSH1 0x40 MLOAD DUP1 SWAP2 SUB SWAP1 LOG1 JUMP JUMPDEST PUSH8 0xDE0B6B3A7640000 DUP2 JUMP JUMPDEST PUSH0 CALLER SWAP1 POP SWAP1 JUMP JUMPDEST PUSH2 0x6867 DUP4 DUP4 DUP4 PUSH1 0x1 PUSH2 0x6C44 JUMP JUMPDEST POP POP POP JUMP JUMPDEST PUSH1 0x2 PUSH1 0x6 SLOAD SUB PUSH2 0x68B1 JUMPI PUSH1 0x40 MLOAD PUSH32 0x8C379A000000000000000000000000000000000000000000000000000000000 DUP2 MSTORE PUSH1 0x4 ADD PUSH2 0x68A8 SWAP1 PUSH2 0x9D45 JUMP JUMPDEST PUSH1 0x40 MLOAD DUP1 SWAP2 SUB SWAP1 REVERT JUMPDEST PUSH1 0x2 PUSH1 0x6 DUP2 SWAP1 SSTORE POP JUMP JUMPDEST PUSH0 PUSH20 0xFFFFFFFFFFFFFFFFFFFFFFFFFFFFFFFFFFFFFFFF AND DUP3 PUSH20 0xFFFFFFFFFFFFFFFFFFFFFFFFFFFFFFFFFFFFFFFF AND SUB PUSH2 0x692B JUMPI PUSH0 PUSH1 0x40 MLOAD PUSH32 0xEC442F0500000000000000000000000000000000000000000000000000000000 DUP2 MSTORE PUSH1 0x4 ADD PUSH2 0x6922 SWAP2 SWAP1 PUSH2 0x74EB JUMP JUMPDEST PUSH1 0x40 MLOAD DUP1 SWAP2 SUB SWAP1 REVERT JUMPDEST PUSH2 0x6936 PUSH0 DUP4 DUP4 PUSH2 0x6E13 JUMP JUMPDEST POP POP JUMP JUMPDEST PUSH1 0x1 PUSH1 0x6 DUP2 SWAP1 SSTORE POP JUMP JUMPDEST PUSH0 PUSH0 PUSH0 SWAP1 POP JUMPDEST PUSH1 0xE DUP1 SLOAD SWAP1 POP DUP2 LT ISZERO PUSH2 0x69DC JUMPI DUP3 PUSH20 0xFFFFFFFFFFFFFFFFFFFFFFFFFFFFFFFFFFFFFFFF AND PUSH1 0xE DUP3 DUP2 SLOAD DUP2 LT PUSH2 0x6982 JUMPI PUSH2 0x6981 PUSH2 0x88F6 JUMP JUMPDEST JUMPDEST SWAP1 PUSH0 MSTORE PUSH1 0x20 PUSH0 KECCAK256 ADD PUSH0 SWAP1 SLOAD SWAP1 PUSH2 0x100 EXP SWAP1 DIV PUSH20 0xFFFFFFFFFFFFFFFFFFFFFFFFFFFFFFFFFFFFFFFF AND PUSH20 0xFFFFFFFFFFFFFFFFFFFFFFFFFFFFFFFFFFFFFFFF AND SUB PUSH2 0x69CF JUMPI PUSH1 0x1 SWAP2 POP POP PUSH2 0x69E1 JUMP JUMPDEST DUP1 DUP1 PUSH1 0x1 ADD SWAP2 POP POP PUSH2 0x694A JUMP JUMPDEST POP PUSH0 SWAP1 POP JUMPDEST SWAP2 SWAP1 POP JUMP JUMPDEST PUSH0 PUSH0 SWAP1 POP JUMPDEST PUSH1 0xE DUP1 SLOAD SWAP1 POP DUP2 LT ISZERO PUSH2 0x6A94 JUMPI PUSH0 PUSH1 0xF PUSH0 PUSH1 0xE DUP5 DUP2 SLOAD DUP2 LT PUSH2 0x6A10 JUMPI PUSH2 0x6A0F PUSH2 0x88F6 JUMP JUMPDEST JUMPDEST SWAP1 PUSH0 MSTORE PUSH1 0x20 PUSH0 KECCAK256 ADD PUSH0 SWAP1 SLOAD SWAP1 PUSH2 0x100 EXP SWAP1 DIV PUSH20 0xFFFFFFFFFFFFFFFFFFFFFFFFFFFFFFFFFFFFFFFF AND PUSH20 0xFFFFFFFFFFFFFFFFFFFFFFFFFFFFFFFFFFFFFFFF AND PUSH20 0xFFFFFFFFFFFFFFFFFFFFFFFFFFFFFFFFFFFFFFFF AND DUP2 MSTORE PUSH1 0x20 ADD SWAP1 DUP2 MSTORE PUSH1 0x20 ADD PUSH0 KECCAK256 PUSH0 PUSH2 0x100 EXP DUP2 SLOAD DUP2 PUSH1 0xFF MUL NOT AND SWAP1 DUP4 ISZERO ISZERO MUL OR SWAP1 SSTORE POP DUP1 DUP1 PUSH1 0x1 ADD SWAP2 POP POP PUSH2 0x69EB JUMP JUMPDEST POP JUMP JUMPDEST PUSH0 PUSH0 PUSH2 0x6AA1 PUSH2 0x6853 JUMP JUMPDEST SWAP1 POP PUSH2 0x6AAE DUP6 DUP3 DUP6 PUSH2 0x702C JUMP JUMPDEST PUSH2 0x6AB9 DUP6 DUP6 DUP6 PUSH2 0x70BF JUMP JUMPDEST PUSH1 0x1 SWAP2 POP POP SWAP4 SWAP3 POP POP POP JUMP JUMPDEST PUSH2 0x6ACD PUSH2 0x6853 JUMP JUMPDEST PUSH20 0xFFFFFFFFFFFFFFFFFFFFFFFFFFFFFFFFFFFFFFFF AND PUSH2 0x6AEB PUSH2 0x5055 JUMP JUMPDEST PUSH20 0xFFFFFFFFFFFFFFFFFFFFFFFFFFFFFFFFFFFFFFFF AND EQ PUSH2 0x6B4A JUMPI PUSH2 0x6B0E PUSH2 0x6853 JUMP JUMPDEST PUSH1 0x40 MLOAD PUSH32 0x118CDAA700000000000000000000000000000000000000000000000000000000 DUP2 MSTORE PUSH1 0x4 ADD PUSH2 0x6B41 SWAP2 SWAP1 PUSH2 0x74EB JUMP JUMPDEST PUSH1 0x40 MLOAD DUP1 SWAP2 SUB SWAP1 REVERT JUMPDEST JUMP JUMPDEST PUSH0 PUSH1 0x5 PUSH0 SWAP1 SLOAD SWAP1 PUSH2 0x100 EXP SWAP1 DIV PUSH20 0xFFFFFFFFFFFFFFFFFFFFFFFFFFFFFFFFFFFFFFFF AND SWAP1 POP DUP2 PUSH1 0x5 PUSH0 PUSH2 0x100 EXP DUP2 SLOAD DUP2 PUSH20 0xFFFFFFFFFFFFFFFFFFFFFFFFFFFFFFFFFFFFFFFF MUL NOT AND SWAP1 DUP4 PUSH20 0xFFFFFFFFFFFFFFFFFFFFFFFFFFFFFFFFFFFFFFFF AND MUL OR SWAP1 SSTORE POP DUP2 PUSH20 0xFFFFFFFFFFFFFFFFFFFFFFFFFFFFFFFFFFFFFFFF AND DUP2 PUSH20 0xFFFFFFFFFFFFFFFFFFFFFFFFFFFFFFFFFFFFFFFF AND PUSH32 0x8BE0079C531659141344CD1FD0A4F28419497F9722A3DAAFE3B4186F6B6457E0 PUSH1 0x40 MLOAD PUSH1 0x40 MLOAD DUP1 SWAP2 SUB SWAP1 LOG3 POP POP JUMP JUMPDEST PUSH0 PUSH0 PUSH2 0x6C19 PUSH2 0x6853 JUMP JUMPDEST SWAP1 POP PUSH2 0x6C26 DUP2 DUP6 DUP6 PUSH2 0x70BF JUMP JUMPDEST PUSH1 0x1 SWAP2 POP POP SWAP3 SWAP2 POP POP JUMP JUMPDEST DUP1 PUSH1 0xD SWAP1 DUP2 PUSH2 0x6C40 SWAP2 SWAP1 PUSH2 0x8022 JUMP JUMPDEST POP POP JUMP JUMPDEST PUSH0 PUSH20 0xFFFFFFFFFFFFFFFFFFFFFFFFFFFFFFFFFFFFFFFF AND DUP5 PUSH20 0xFFFFFFFFFFFFFFFFFFFFFFFFFFFFFFFFFFFFFFFF AND SUB PUSH2 0x6CB4 JUMPI PUSH0 PUSH1 0x40 MLOAD PUSH32 0xE602DF0500000000000000000000000000000000000000000000000000000000 DUP2 MSTORE PUSH1 0x4 ADD PUSH2 0x6CAB SWAP2 SWAP1 PUSH2 0x74EB JUMP JUMPDEST PUSH1 0x40 MLOAD DUP1 SWAP2 SUB SWAP1 REVERT JUMPDEST PUSH0 PUSH20 0xFFFFFFFFFFFFFFFFFFFFFFFFFFFFFFFFFFFFFFFF AND DUP4 PUSH20 0xFFFFFFFFFFFFFFFFFFFFFFFFFFFFFFFFFFFFFFFF AND SUB PUSH2 0x6D24 JUMPI PUSH0 PUSH1 0x40 MLOAD PUSH32 0x94280D6200000000000000000000000000000000000000000000000000000000 DUP2 MSTORE PUSH1 0x4 ADD PUSH2 0x6D1B SWAP2 SWAP1 PUSH2 0x74EB JUMP JUMPDEST PUSH1 0x40 MLOAD DUP1 SWAP2 SUB SWAP1 REVERT JUMPDEST DUP2 PUSH1 0x1 PUSH0 DUP7 PUSH20 0xFFFFFFFFFFFFFFFFFFFFFFFFFFFFFFFFFFFFFFFF AND PUSH20 0xFFFFFFFFFFFFFFFFFFFFFFFFFFFFFFFFFFFFFFFF AND DUP2 MSTORE PUSH1 0x20 ADD SWAP1 DUP2 MSTORE PUSH1 0x20 ADD PUSH0 KECCAK256 PUSH0 DUP6 PUSH20 0xFFFFFFFFFFFFFFFFFFFFFFFFFFFFFFFFFFFFFFFF AND PUSH20 0xFFFFFFFFFFFFFFFFFFFFFFFFFFFFFFFFFFFFFFFF AND DUP2 MSTORE PUSH1 0x20 ADD SWAP1 DUP2 MSTORE PUSH1 0x20 ADD PUSH0 KECCAK256 DUP2 SWAP1 SSTORE POP DUP1 ISZERO PUSH2 0x6E0D JUMPI DUP3 PUSH20 0xFFFFFFFFFFFFFFFFFFFFFFFFFFFFFFFFFFFFFFFF AND DUP5 PUSH20 0xFFFFFFFFFFFFFFFFFFFFFFFFFFFFFFFFFFFFFFFF AND PUSH32 0x8C5BE1E5EBEC7D5BD14F71427D1E84F3DD0314C0F7B2291E5B200AC8C7C3B925 DUP5 PUSH1 0x40 MLOAD PUSH2 0x6E04 SWAP2 SWAP1 PUSH2 0x7354 JUMP JUMPDEST PUSH1 0x40 MLOAD DUP1 SWAP2 SUB SWAP1 LOG3 JUMPDEST POP POP POP POP JUMP JUMPDEST PUSH0 PUSH20 0xFFFFFFFFFFFFFFFFFFFFFFFFFFFFFFFFFFFFFFFF AND DUP4 PUSH20 0xFFFFFFFFFFFFFFFFFFFFFFFFFFFFFFFFFFFFFFFF AND SUB PUSH2 0x6E63 JUMPI DUP1 PUSH1 0x2 PUSH0 DUP3 DUP3 SLOAD PUSH2 0x6E57 SWAP2 SWAP1 PUSH2 0x7BB8 JUMP JUMPDEST SWAP3 POP POP DUP2 SWAP1 SSTORE POP PUSH2 0x6F31 JUMP JUMPDEST PUSH0 PUSH0 PUSH0 DUP6 PUSH20 0xFFFFFFFFFFFFFFFFFFFFFFFFFFFFFFFFFFFFFFFF AND PUSH20 0xFFFFFFFFFFFFFFFFFFFFFFFFFFFFFFFFFFFFFFFF AND DUP2 MSTORE PUSH1 0x20 ADD SWAP1 DUP2 MSTORE PUSH1 0x20 ADD PUSH0 KECCAK256 SLOAD SWAP1 POP DUP2 DUP2 LT ISZERO PUSH2 0x6EEC JUMPI DUP4 DUP2 DUP4 PUSH1 0x40 MLOAD PUSH32 0xE450D38C00000000000000000000000000000000000000000000000000000000 DUP2 MSTORE PUSH1 0x4 ADD PUSH2 0x6EE3 SWAP4 SWAP3 SWAP2 SWAP1 PUSH2 0x9D63 JUMP JUMPDEST PUSH1 0x40 MLOAD DUP1 SWAP2 SUB SWAP1 REVERT JUMPDEST DUP2 DUP2 SUB PUSH0 PUSH0 DUP7 PUSH20 0xFFFFFFFFFFFFFFFFFFFFFFFFFFFFFFFFFFFFFFFF AND PUSH20 0xFFFFFFFFFFFFFFFFFFFFFFFFFFFFFFFFFFFFFFFF AND DUP2 MSTORE PUSH1 0x20 ADD SWAP1 DUP2 MSTORE PUSH1 0x20 ADD PUSH0 KECCAK256 DUP2 SWAP1 SSTORE POP POP JUMPDEST PUSH0 PUSH20 0xFFFFFFFFFFFFFFFFFFFFFFFFFFFFFFFFFFFFFFFF AND DUP3 PUSH20 0xFFFFFFFFFFFFFFFFFFFFFFFFFFFFFFFFFFFFFFFF AND SUB PUSH2 0x6F78 JUMPI DUP1 PUSH1 0x2 PUSH0 DUP3 DUP3 SLOAD SUB SWAP3 POP POP DUP2 SWAP1 SSTORE POP PUSH2 0x6FC2 JUMP JUMPDEST DUP1 PUSH0 PUSH0 DUP5 PUSH20 0xFFFFFFFFFFFFFFFFFFFFFFFFFFFFFFFFFFFFFFFF AND PUSH20 0xFFFFFFFFFFFFFFFFFFFFFFFFFFFFFFFFFFFFFFFF AND DUP2 MSTORE PUSH1 0x20 ADD SWAP1 DUP2 MSTORE PUSH1 0x20 ADD PUSH0 KECCAK256 PUSH0 DUP3 DUP3 SLOAD ADD SWAP3 POP POP DUP2 SWAP1 SSTORE POP JUMPDEST DUP2 PUSH20 0xFFFFFFFFFFFFFFFFFFFFFFFFFFFFFFFFFFFFFFFF AND DUP4 PUSH20 0xFFFFFFFFFFFFFFFFFFFFFFFFFFFFFFFFFFFFFFFF AND PUSH32 0xDDF252AD1BE2C89B69C2B068FC378DAA952BA7F163C4A11628F55A4DF523B3EF DUP4 PUSH1 0x40 MLOAD PUSH2 0x701F SWAP2 SWAP1 PUSH2 0x7354 JUMP JUMPDEST PUSH1 0x40 MLOAD DUP1 SWAP2 SUB SWAP1 LOG3 POP POP POP JUMP JUMPDEST PUSH0 PUSH2 0x7037 DUP5 DUP5 PUSH2 0x61FB JUMP JUMPDEST SWAP1 POP PUSH32 0xFFFFFFFFFFFFFFFFFFFFFFFFFFFFFFFFFFFFFFFFFFFFFFFFFFFFFFFFFFFFFFFF DUP2 LT ISZERO PUSH2 0x70B9 JUMPI DUP2 DUP2 LT ISZERO PUSH2 0x70AA JUMPI DUP3 DUP2 DUP4 PUSH1 0x40 MLOAD PUSH32 0xFB8F41B200000000000000000000000000000000000000000000000000000000 DUP2 MSTORE PUSH1 0x4 ADD PUSH2 0x70A1 SWAP4 SWAP3 SWAP2 SWAP1 PUSH2 0x9D63 JUMP JUMPDEST PUSH1 0x40 MLOAD DUP1 SWAP2 SUB SWAP1 REVERT JUMPDEST PUSH2 0x70B8 DUP5 DUP5 DUP5 DUP5 SUB PUSH0 PUSH2 0x6C44 JUMP JUMPDEST JUMPDEST POP POP POP POP JUMP JUMPDEST PUSH0 PUSH20 0xFFFFFFFFFFFFFFFFFFFFFFFFFFFFFFFFFFFFFFFF AND DUP4 PUSH20 0xFFFFFFFFFFFFFFFFFFFFFFFFFFFFFFFFFFFFFFFF AND SUB PUSH2 0x712F JUMPI PUSH0 PUSH1 0x40 MLOAD PUSH32 0x96C6FD1E00000000000000000000000000000000000000000000000000000000 DUP2 MSTORE PUSH1 0x4 ADD PUSH2 0x7126 SWAP2 SWAP1 PUSH2 0x74EB JUMP JUMPDEST PUSH1 0x40 MLOAD DUP1 SWAP2 SUB SWAP1 REVERT JUMPDEST PUSH0 PUSH20 0xFFFFFFFFFFFFFFFFFFFFFFFFFFFFFFFFFFFFFFFF AND DUP3 PUSH20 0xFFFFFFFFFFFFFFFFFFFFFFFFFFFFFFFFFFFFFFFF AND SUB PUSH2 0x719F JUMPI PUSH0 PUSH1 0x40 MLOAD PUSH32 0xEC442F0500000000000000000000000000000000000000000000000000000000 DUP2 MSTORE PUSH1 0x4 ADD PUSH2 0x7196 SWAP2 SWAP1 PUSH2 0x74EB JUMP JUMPDEST PUSH1 0x40 MLOAD DUP1 SWAP2 SUB SWAP1 REVERT JUMPDEST PUSH2 0x71AA DUP4 DUP4 DUP4 PUSH2 0x6E13 JUMP JUMPDEST POP POP POP JUMP JUMPDEST POP DUP1 SLOAD PUSH2 0x71BB SWAP1 PUSH2 0x7954 JUMP JUMPDEST PUSH0 DUP3 SSTORE DUP1 PUSH1 0x1F LT PUSH2 0x71CC JUMPI POP PUSH2 0x71E9 JUMP JUMPDEST PUSH1 0x1F ADD PUSH1 0x20 SWAP1 DIV SWAP1 PUSH0 MSTORE PUSH1 0x20 PUSH0 KECCAK256 SWAP1 DUP2 ADD SWAP1 PUSH2 0x71E8 SWAP2 SWAP1 PUSH2 0x7291 JUMP JUMPDEST JUMPDEST POP JUMP JUMPDEST POP DUP1 SLOAD PUSH0 DUP3 SSTORE SWAP1 PUSH0 MSTORE PUSH1 0x20 PUSH0 KECCAK256 SWAP1 DUP2 ADD SWAP1 PUSH2 0x7207 SWAP2 SWAP1 PUSH2 0x7291 JUMP JUMPDEST POP JUMP JUMPDEST DUP3 DUP1 SLOAD DUP3 DUP3 SSTORE SWAP1 PUSH0 MSTORE PUSH1 0x20 PUSH0 KECCAK256 SWAP1 DUP2 ADD SWAP3 DUP3 ISZERO PUSH2 0x7280 JUMPI SWAP2 PUSH1 0x20 MUL DUP3 ADD JUMPDEST DUP3 DUP2 GT ISZERO PUSH2 0x727F JUMPI DUP3 MLOAD DUP3 PUSH0 PUSH2 0x100 EXP DUP2 SLOAD DUP2 PUSH20 0xFFFFFFFFFFFFFFFFFFFFFFFFFFFFFFFFFFFFFFFF MUL NOT AND SWAP1 DUP4 PUSH20 0xFFFFFFFFFFFFFFFFFFFFFFFFFFFFFFFFFFFFFFFF AND MUL OR SWAP1 SSTORE POP SWAP2 PUSH1 0x20 ADD SWAP2 SWAP1 PUSH1 0x1 ADD SWAP1 PUSH2 0x7228 JUMP JUMPDEST JUMPDEST POP SWAP1 POP PUSH2 0x728D SWAP2 SWAP1 PUSH2 0x7291 JUMP JUMPDEST POP SWAP1 JUMP JUMPDEST JUMPDEST DUP1 DUP3 GT ISZERO PUSH2 0x72A8 JUMPI PUSH0 DUP2 PUSH0 SWAP1 SSTORE POP PUSH1 0x1 ADD PUSH2 0x7292 JUMP JUMPDEST POP SWAP1 JUMP JUMPDEST PUSH0 DUP2 MLOAD SWAP1 POP SWAP2 SWAP1 POP JUMP JUMPDEST PUSH0 DUP3 DUP3 MSTORE PUSH1 0x20 DUP3 ADD SWAP1 POP SWAP3 SWAP2 POP POP JUMP JUMPDEST DUP3 DUP2 DUP4 MCOPY PUSH0 DUP4 DUP4 ADD MSTORE POP POP POP JUMP JUMPDEST PUSH0 PUSH1 0x1F NOT PUSH1 0x1F DUP4 ADD AND SWAP1 POP SWAP2 SWAP1 POP JUMP JUMPDEST PUSH0 PUSH2 0x72EE DUP3 PUSH2 0x72AC JUMP JUMPDEST PUSH2 0x72F8 DUP2 DUP6 PUSH2 0x72B6 JUMP JUMPDEST SWAP4 POP PUSH2 0x7308 DUP2 DUP6 PUSH1 0x20 DUP7 ADD PUSH2 0x72C6 JUMP JUMPDEST PUSH2 0x7311 DUP2 PUSH2 0x72D4 JUMP JUMPDEST DUP5 ADD SWAP2 POP POP SWAP3 SWAP2 POP POP JUMP JUMPDEST PUSH0 PUSH1 0x20 DUP3 ADD SWAP1 POP DUP2 DUP2 SUB PUSH0 DUP4 ADD MSTORE PUSH2 0x7334 DUP2 DUP5 PUSH2 0x72E4 JUMP JUMPDEST SWAP1 POP SWAP3 SWAP2 POP POP JUMP JUMPDEST PUSH0 DUP2 SWAP1 POP SWAP2 SWAP1 POP JUMP JUMPDEST PUSH2 0x734E DUP2 PUSH2 0x733C JUMP JUMPDEST DUP3 MSTORE POP POP JUMP JUMPDEST PUSH0 PUSH1 0x20 DUP3 ADD SWAP1 POP PUSH2 0x7367 PUSH0 DUP4 ADD DUP5 PUSH2 0x7345 JUMP JUMPDEST SWAP3 SWAP2 POP POP JUMP JUMPDEST PUSH0 PUSH1 0x40 MLOAD SWAP1 POP SWAP1 JUMP JUMPDEST PUSH0 PUSH0 REVERT JUMPDEST PUSH0 PUSH0 REVERT JUMPDEST PUSH0 PUSH20 0xFFFFFFFFFFFFFFFFFFFFFFFFFFFFFFFFFFFFFFFF DUP3 AND SWAP1 POP SWAP2 SWAP1 POP JUMP JUMPDEST PUSH0 PUSH2 0x73A7 DUP3 PUSH2 0x737E JUMP JUMPDEST SWAP1 POP SWAP2 SWAP1 POP JUMP JUMPDEST PUSH2 0x73B7 DUP2 PUSH2 0x739D JUMP JUMPDEST DUP2 EQ PUSH2 0x73C1 JUMPI PUSH0 PUSH0 REVERT JUMPDEST POP JUMP JUMPDEST PUSH0 DUP2 CALLDATALOAD SWAP1 POP PUSH2 0x73D2 DUP2 PUSH2 0x73AE JUMP JUMPDEST SWAP3 SWAP2 POP POP JUMP JUMPDEST PUSH2 0x73E1 DUP2 PUSH2 0x733C JUMP JUMPDEST DUP2 EQ PUSH2 0x73EB JUMPI PUSH0 PUSH0 REVERT JUMPDEST POP JUMP JUMPDEST PUSH0 DUP2 CALLDATALOAD SWAP1 POP PUSH2 0x73FC DUP2 PUSH2 0x73D8 JUMP JUMPDEST SWAP3 SWAP2 POP POP JUMP JUMPDEST PUSH0 PUSH0 PUSH1 0x40 DUP4 DUP6 SUB SLT ISZERO PUSH2 0x7418 JUMPI PUSH2 0x7417 PUSH2 0x7376 JUMP JUMPDEST JUMPDEST PUSH0 PUSH2 0x7425 DUP6 DUP3 DUP7 ADD PUSH2 0x73C4 JUMP JUMPDEST SWAP3 POP POP PUSH1 0x20 PUSH2 0x7436 DUP6 DUP3 DUP7 ADD PUSH2 0x73EE JUMP JUMPDEST SWAP2 POP POP SWAP3 POP SWAP3 SWAP1 POP JUMP JUMPDEST PUSH0 DUP2 ISZERO ISZERO SWAP1 POP SWAP2 SWAP1 POP JUMP JUMPDEST PUSH2 0x7454 DUP2 PUSH2 0x7440 JUMP JUMPDEST DUP3 MSTORE POP POP JUMP JUMPDEST PUSH0 PUSH1 0x20 DUP3 ADD SWAP1 POP PUSH2 0x746D PUSH0 DUP4 ADD DUP5 PUSH2 0x744B JUMP JUMPDEST SWAP3 SWAP2 POP POP JUMP JUMPDEST PUSH0 PUSH1 0x20 DUP3 DUP5 SUB SLT ISZERO PUSH2 0x7488 JUMPI PUSH2 0x7487 PUSH2 0x7376 JUMP JUMPDEST JUMPDEST PUSH0 PUSH2 0x7495 DUP5 DUP3 DUP6 ADD PUSH2 0x73C4 JUMP JUMPDEST SWAP2 POP POP SWAP3 SWAP2 POP POP JUMP JUMPDEST PUSH0 PUSH0 PUSH1 0x40 DUP4 DUP6 SUB SLT ISZERO PUSH2 0x74B4 JUMPI PUSH2 0x74B3 PUSH2 0x7376 JUMP JUMPDEST JUMPDEST PUSH0 PUSH2 0x74C1 DUP6 DUP3 DUP7 ADD PUSH2 0x73EE JUMP JUMPDEST SWAP3 POP POP PUSH1 0x20 PUSH2 0x74D2 DUP6 DUP3 DUP7 ADD PUSH2 0x73C4 JUMP JUMPDEST SWAP2 POP POP SWAP3 POP SWAP3 SWAP1 POP JUMP JUMPDEST PUSH2 0x74E5 DUP2 PUSH2 0x739D JUMP JUMPDEST DUP3 MSTORE POP POP JUMP JUMPDEST PUSH0 PUSH1 0x20 DUP3 ADD SWAP1 POP PUSH2 0x74FE PUSH0 DUP4 ADD DUP5 PUSH2 0x74DC JUMP JUMPDEST SWAP3 SWAP2 POP POP JUMP JUMPDEST PUSH0 PUSH1 0x20 DUP3 DUP5 SUB SLT ISZERO PUSH2 0x7519 JUMPI PUSH2 0x7518 PUSH2 0x7376 JUMP JUMPDEST JUMPDEST PUSH0 PUSH2 0x7526 DUP5 DUP3 DUP6 ADD PUSH2 0x73EE JUMP JUMPDEST SWAP2 POP POP SWAP3 SWAP2 POP POP JUMP JUMPDEST PUSH0 PUSH0 PUSH0 PUSH1 0x60 DUP5 DUP7 SUB SLT ISZERO PUSH2 0x7546 JUMPI PUSH2 0x7545 PUSH2 0x7376 JUMP JUMPDEST JUMPDEST PUSH0 PUSH2 0x7553 DUP7 DUP3 DUP8 ADD PUSH2 0x73C4 JUMP JUMPDEST SWAP4 POP POP PUSH1 0x20 PUSH2 0x7564 DUP7 DUP3 DUP8 ADD PUSH2 0x73C4 JUMP JUMPDEST SWAP3 POP POP PUSH1 0x40 PUSH2 0x7575 DUP7 DUP3 DUP8 ADD PUSH2 0x73EE JUMP JUMPDEST SWAP2 POP POP SWAP3 POP SWAP3 POP SWAP3 JUMP JUMPDEST PUSH0 PUSH1 0xFF DUP3 AND SWAP1 POP SWAP2 SWAP1 POP JUMP JUMPDEST PUSH2 0x7594 DUP2 PUSH2 0x757F JUMP JUMPDEST DUP3 MSTORE POP POP JUMP JUMPDEST PUSH0 PUSH1 0x20 DUP3 ADD SWAP1 POP PUSH2 0x75AD PUSH0 DUP4 ADD DUP5 PUSH2 0x758B JUMP JUMPDEST SWAP3 SWAP2 POP POP JUMP JUMPDEST PUSH0 DUP2 PUSH1 0x7 SIGNEXTEND SWAP1 POP SWAP2 SWAP1 POP JUMP JUMPDEST PUSH2 0x75C8 DUP2 PUSH2 0x75B3 JUMP JUMPDEST DUP2 EQ PUSH2 0x75D2 JUMPI PUSH0 PUSH0 REVERT JUMPDEST POP JUMP JUMPDEST PUSH0 DUP2 CALLDATALOAD SWAP1 POP PUSH2 0x75E3 DUP2 PUSH2 0x75BF JUMP JUMPDEST SWAP3 SWAP2 POP POP JUMP JUMPDEST PUSH0 PUSH1 0x20 DUP3 DUP5 SUB SLT ISZERO PUSH2 0x75FE JUMPI PUSH2 0x75FD PUSH2 0x7376 JUMP JUMPDEST JUMPDEST PUSH0 PUSH2 0x760B DUP5 DUP3 DUP6 ADD PUSH2 0x75D5 JUMP JUMPDEST SWAP2 POP POP SWAP3 SWAP2 POP POP JUMP JUMPDEST PUSH0 PUSH0 REVERT JUMPDEST PUSH32 0x4E487B7100000000000000000000000000000000000000000000000000000000 PUSH0 MSTORE PUSH1 0x41 PUSH1 0x4 MSTORE PUSH1 0x24 PUSH0 REVERT JUMPDEST PUSH2 0x764E DUP3 PUSH2 0x72D4 JUMP JUMPDEST DUP2 ADD DUP2 DUP2 LT PUSH8 0xFFFFFFFFFFFFFFFF DUP3 GT OR ISZERO PUSH2 0x766D JUMPI PUSH2 0x766C PUSH2 0x7618 JUMP JUMPDEST JUMPDEST DUP1 PUSH1 0x40 MSTORE POP POP POP JUMP JUMPDEST PUSH0 PUSH2 0x767F PUSH2 0x736D JUMP JUMPDEST SWAP1 POP PUSH2 0x768B DUP3 DUP3 PUSH2 0x7645 JUMP JUMPDEST SWAP2 SWAP1 POP JUMP JUMPDEST PUSH0 PUSH8 0xFFFFFFFFFFFFFFFF DUP3 GT ISZERO PUSH2 0x76AA JUMPI PUSH2 0x76A9 PUSH2 0x7618 JUMP JUMPDEST JUMPDEST PUSH1 0x20 DUP3 MUL SWAP1 POP PUSH1 0x20 DUP2 ADD SWAP1 POP SWAP2 SWAP1 POP JUMP JUMPDEST PUSH0 PUSH0 REVERT JUMPDEST PUSH0 PUSH2 0x76D1 PUSH2 0x76CC DUP5 PUSH2 0x7690 JUMP JUMPDEST PUSH2 0x7676 JUMP JUMPDEST SWAP1 POP DUP1 DUP4 DUP3 MSTORE PUSH1 0x20 DUP3 ADD SWAP1 POP PUSH1 0x20 DUP5 MUL DUP4 ADD DUP6 DUP2 GT ISZERO PUSH2 0x76F4 JUMPI PUSH2 0x76F3 PUSH2 0x76BB JUMP JUMPDEST JUMPDEST DUP4 JUMPDEST DUP2 DUP2 LT ISZERO PUSH2 0x771D JUMPI DUP1 PUSH2 0x7709 DUP9 DUP3 PUSH2 0x73C4 JUMP JUMPDEST DUP5 MSTORE PUSH1 0x20 DUP5 ADD SWAP4 POP POP PUSH1 0x20 DUP2 ADD SWAP1 POP PUSH2 0x76F6 JUMP JUMPDEST POP POP POP SWAP4 SWAP3 POP POP POP JUMP JUMPDEST PUSH0 DUP3 PUSH1 0x1F DUP4 ADD SLT PUSH2 0x773B JUMPI PUSH2 0x773A PUSH2 0x7614 JUMP JUMPDEST JUMPDEST DUP2 CALLDATALOAD PUSH2 0x774B DUP5 DUP3 PUSH1 0x20 DUP7 ADD PUSH2 0x76BF JUMP JUMPDEST SWAP2 POP POP SWAP3 SWAP2 POP POP JUMP JUMPDEST PUSH0 PUSH0 PUSH1 0x40 DUP4 DUP6 SUB SLT ISZERO PUSH2 0x776A JUMPI PUSH2 0x7769 PUSH2 0x7376 JUMP JUMPDEST JUMPDEST PUSH0 DUP4 ADD CALLDATALOAD PUSH8 0xFFFFFFFFFFFFFFFF DUP2 GT ISZERO PUSH2 0x7787 JUMPI PUSH2 0x7786 PUSH2 0x737A JUMP JUMPDEST JUMPDEST PUSH2 0x7793 DUP6 DUP3 DUP7 ADD PUSH2 0x7727 JUMP JUMPDEST SWAP3 POP POP PUSH1 0x20 DUP4 ADD CALLDATALOAD PUSH8 0xFFFFFFFFFFFFFFFF DUP2 GT ISZERO PUSH2 0x77B4 JUMPI PUSH2 0x77B3 PUSH2 0x737A JUMP JUMPDEST JUMPDEST PUSH2 0x77C0 DUP6 DUP3 DUP7 ADD PUSH2 0x7727 JUMP JUMPDEST SWAP2 POP POP SWAP3 POP SWAP3 SWAP1 POP JUMP JUMPDEST PUSH0 PUSH0 REVERT JUMPDEST PUSH0 PUSH8 0xFFFFFFFFFFFFFFFF DUP3 GT ISZERO PUSH2 0x77E8 JUMPI PUSH2 0x77E7 PUSH2 0x7618 JUMP JUMPDEST JUMPDEST PUSH2 0x77F1 DUP3 PUSH2 0x72D4 JUMP JUMPDEST SWAP1 POP PUSH1 0x20 DUP2 ADD SWAP1 POP SWAP2 SWAP1 POP JUMP JUMPDEST DUP3 DUP2 DUP4 CALLDATACOPY PUSH0 DUP4 DUP4 ADD MSTORE POP POP POP JUMP JUMPDEST PUSH0 PUSH2 0x781E PUSH2 0x7819 DUP5 PUSH2 0x77CE JUMP JUMPDEST PUSH2 0x7676 JUMP JUMPDEST SWAP1 POP DUP3 DUP2 MSTORE PUSH1 0x20 DUP2 ADD DUP5 DUP5 DUP5 ADD GT ISZERO PUSH2 0x783A JUMPI PUSH2 0x7839 PUSH2 0x77CA JUMP JUMPDEST JUMPDEST PUSH2 0x7845 DUP5 DUP3 DUP6 PUSH2 0x77FE JUMP JUMPDEST POP SWAP4 SWAP3 POP POP POP JUMP JUMPDEST PUSH0 DUP3 PUSH1 0x1F DUP4 ADD SLT PUSH2 0x7861 JUMPI PUSH2 0x7860 PUSH2 0x7614 JUMP JUMPDEST JUMPDEST DUP2 CALLDATALOAD PUSH2 0x7871 DUP5 DUP3 PUSH1 0x20 DUP7 ADD PUSH2 0x780C JUMP JUMPDEST SWAP2 POP POP SWAP3 SWAP2 POP POP JUMP JUMPDEST PUSH0 PUSH1 0x20 DUP3 DUP5 SUB SLT ISZERO PUSH2 0x788F JUMPI PUSH2 0x788E PUSH2 0x7376 JUMP JUMPDEST JUMPDEST PUSH0 DUP3 ADD CALLDATALOAD PUSH8 0xFFFFFFFFFFFFFFFF DUP2 GT ISZERO PUSH2 0x78AC JUMPI PUSH2 0x78AB PUSH2 0x737A JUMP JUMPDEST JUMPDEST PUSH2 0x78B8 DUP5 DUP3 DUP6 ADD PUSH2 0x784D JUMP JUMPDEST SWAP2 POP POP SWAP3 SWAP2 POP POP JUMP JUMPDEST PUSH2 0x78CA DUP2 PUSH2 0x75B3 JUMP JUMPDEST DUP3 MSTORE POP POP JUMP JUMPDEST PUSH0 PUSH1 0x20 DUP3 ADD SWAP1 POP PUSH2 0x78E3 PUSH0 DUP4 ADD DUP5 PUSH2 0x78C1 JUMP JUMPDEST SWAP3 SWAP2 POP POP JUMP JUMPDEST PUSH0 PUSH0 PUSH1 0x40 DUP4 DUP6 SUB SLT ISZERO PUSH2 0x78FF JUMPI PUSH2 0x78FE PUSH2 0x7376 JUMP JUMPDEST JUMPDEST PUSH0 PUSH2 0x790C DUP6 DUP3 DUP7 ADD PUSH2 0x73C4 JUMP JUMPDEST SWAP3 POP POP PUSH1 0x20 PUSH2 0x791D DUP6 DUP3 DUP7 ADD PUSH2 0x73C4 JUMP JUMPDEST SWAP2 POP POP SWAP3 POP SWAP3 SWAP1 POP JUMP JUMPDEST PUSH32 0x4E487B7100000000000000000000000000000000000000000000000000000000 PUSH0 MSTORE PUSH1 0x22 PUSH1 0x4 MSTORE PUSH1 0x24 PUSH0 REVERT JUMPDEST PUSH0 PUSH1 0x2 DUP3 DIV SWAP1 POP PUSH1 0x1 DUP3 AND DUP1 PUSH2 0x796B JUMPI PUSH1 0x7F DUP3 AND SWAP2 POP JUMPDEST PUSH1 0x20 DUP3 LT DUP2 SUB PUSH2 0x797E JUMPI PUSH2 0x797D PUSH2 0x7927 JUMP JUMPDEST JUMPDEST POP SWAP2 SWAP1 POP JUMP JUMPDEST PUSH32 0x436F6E7472616374206973207061757365640000000000000000000000000000 PUSH0 DUP3 ADD MSTORE POP JUMP JUMPDEST PUSH0 PUSH2 0x79B8 PUSH1 0x12 DUP4 PUSH2 0x72B6 JUMP JUMPDEST SWAP2 POP PUSH2 0x79C3 DUP3 PUSH2 0x7984 JUMP JUMPDEST PUSH1 0x20 DUP3 ADD SWAP1 POP SWAP2 SWAP1 POP JUMP JUMPDEST PUSH0 PUSH1 0x20 DUP3 ADD SWAP1 POP DUP2 DUP2 SUB PUSH0 DUP4 ADD MSTORE PUSH2 0x79E5 DUP2 PUSH2 0x79AC JUMP JUMPDEST SWAP1 POP SWAP2 SWAP1 POP JUMP JUMPDEST PUSH32 0x546172676574206E6F742077686974656C697374656400000000000000000000 PUSH0 DUP3 ADD MSTORE POP JUMP JUMPDEST PUSH0 PUSH2 0x7A20 PUSH1 0x16 DUP4 PUSH2 0x72B6 JUMP JUMPDEST SWAP2 POP PUSH2 0x7A2B DUP3 PUSH2 0x79EC JUMP JUMPDEST PUSH1 0x20 DUP3 ADD SWAP1 POP SWAP2 SWAP1 POP JUMP JUMPDEST PUSH0 PUSH1 0x20 DUP3 ADD SWAP1 POP DUP2 DUP2 SUB PUSH0 DUP4 ADD MSTORE PUSH2 0x7A4D DUP2 PUSH2 0x7A14 JUMP JUMPDEST SWAP1 POP SWAP2 SWAP1 POP JUMP JUMPDEST PUSH32 0x496E70757420616D6F756E74206D757374206265206772656174657220746861 PUSH0 DUP3 ADD MSTORE PUSH32 0x6E207A65726F0000000000000000000000000000000000000000000000000000 PUSH1 0x20 DUP3 ADD MSTORE POP JUMP JUMPDEST PUSH0 PUSH2 0x7AAE PUSH1 0x26 DUP4 PUSH2 0x72B6 JUMP JUMPDEST SWAP2 POP PUSH2 0x7AB9 DUP3 PUSH2 0x7A54 JUMP JUMPDEST PUSH1 0x40 DUP3 ADD SWAP1 POP SWAP2 SWAP1 POP JUMP JUMPDEST PUSH0 PUSH1 0x20 DUP3 ADD SWAP1 POP DUP2 DUP2 SUB PUSH0 DUP4 ADD MSTORE PUSH2 0x7ADB DUP2 PUSH2 0x7AA2 JUMP JUMPDEST SWAP1 POP SWAP2 SWAP1 POP JUMP JUMPDEST PUSH32 0x4E487B7100000000000000000000000000000000000000000000000000000000 PUSH0 MSTORE PUSH1 0x11 PUSH1 0x4 MSTORE PUSH1 0x24 PUSH0 REVERT JUMPDEST PUSH0 PUSH2 0x7B19 DUP3 PUSH2 0x733C JUMP JUMPDEST SWAP2 POP PUSH2 0x7B24 DUP4 PUSH2 0x733C JUMP JUMPDEST SWAP3 POP DUP3 DUP3 MUL PUSH2 0x7B32 DUP2 PUSH2 0x733C JUMP JUMPDEST SWAP2 POP DUP3 DUP3 DIV DUP5 EQ DUP4 ISZERO OR PUSH2 0x7B49 JUMPI PUSH2 0x7B48 PUSH2 0x7AE2 JUMP JUMPDEST JUMPDEST POP SWAP3 SWAP2 POP POP JUMP JUMPDEST PUSH32 0x43434B20616D6F756E7420746F6F20736D616C6C000000000000000000000000 PUSH0 DUP3 ADD MSTORE POP JUMP JUMPDEST PUSH0 PUSH2 0x7B84 PUSH1 0x14 DUP4 PUSH2 0x72B6 JUMP JUMPDEST SWAP2 POP PUSH2 0x7B8F DUP3 PUSH2 0x7B50 JUMP JUMPDEST PUSH1 0x20 DUP3 ADD SWAP1 POP SWAP2 SWAP1 POP JUMP JUMPDEST PUSH0 PUSH1 0x20 DUP3 ADD SWAP1 POP DUP2 DUP2 SUB PUSH0 DUP4 ADD MSTORE PUSH2 0x7BB1 DUP2 PUSH2 0x7B78 JUMP JUMPDEST SWAP1 POP SWAP2 SWAP1 POP JUMP JUMPDEST PUSH0 PUSH2 0x7BC2 DUP3 PUSH2 0x733C JUMP JUMPDEST SWAP2 POP PUSH2 0x7BCD DUP4 PUSH2 0x733C JUMP JUMPDEST SWAP3 POP DUP3 DUP3 ADD SWAP1 POP DUP1 DUP3 GT ISZERO PUSH2 0x7BE5 JUMPI PUSH2 0x7BE4 PUSH2 0x7AE2 JUMP JUMPDEST JUMPDEST SWAP3 SWAP2 POP POP JUMP JUMPDEST PUSH32 0x546F74616C20737570706C792065786365656465640000000000000000000000 PUSH0 DUP3 ADD MSTORE POP JUMP JUMPDEST PUSH0 PUSH2 0x7C1F PUSH1 0x15 DUP4 PUSH2 0x72B6 JUMP JUMPDEST SWAP2 POP PUSH2 0x7C2A DUP3 PUSH2 0x7BEB JUMP JUMPDEST PUSH1 0x20 DUP3 ADD SWAP1 POP SWAP2 SWAP1 POP JUMP JUMPDEST PUSH0 PUSH1 0x20 DUP3 ADD SWAP1 POP DUP2 DUP2 SUB PUSH0 DUP4 ADD MSTORE PUSH2 0x7C4C DUP2 PUSH2 0x7C13 JUMP JUMPDEST SWAP1 POP SWAP2 SWAP1 POP JUMP JUMPDEST PUSH0 PUSH1 0x40 DUP3 ADD SWAP1 POP PUSH2 0x7C66 PUSH0 DUP4 ADD DUP6 PUSH2 0x7345 JUMP JUMPDEST PUSH2 0x7C73 PUSH1 0x20 DUP4 ADD DUP5 PUSH2 0x7345 JUMP JUMPDEST SWAP4 SWAP3 POP POP POP JUMP JUMPDEST PUSH32 0x4E6F74206120766F746572000000000000000000000000000000000000000000 PUSH0 DUP3 ADD MSTORE POP JUMP JUMPDEST PUSH0 PUSH2 0x7CAE PUSH1 0xB DUP4 PUSH2 0x72B6 JUMP JUMPDEST SWAP2 POP PUSH2 0x7CB9 DUP3 PUSH2 0x7C7A JUMP JUMPDEST PUSH1 0x20 DUP3 ADD SWAP1 POP SWAP2 SWAP1 POP JUMP JUMPDEST PUSH0 PUSH1 0x20 DUP3 ADD SWAP1 POP DUP2 DUP2 SUB PUSH0 DUP4 ADD MSTORE PUSH2 0x7CDB DUP2 PUSH2 0x7CA2 JUMP JUMPDEST SWAP1 POP SWAP2 SWAP1 POP JUMP JUMPDEST PUSH32 0x50726F706F73616C20616C726561647920616374697665000000000000000000 PUSH0 DUP3 ADD MSTORE POP JUMP JUMPDEST PUSH0 PUSH2 0x7D16 PUSH1 0x17 DUP4 PUSH2 0x72B6 JUMP JUMPDEST SWAP2 POP PUSH2 0x7D21 DUP3 PUSH2 0x7CE2 JUMP JUMPDEST PUSH1 0x20 DUP3 ADD SWAP1 POP SWAP2 SWAP1 POP JUMP JUMPDEST PUSH0 PUSH1 0x20 DUP3 ADD SWAP1 POP DUP2 DUP2 SUB PUSH0 DUP4 ADD MSTORE PUSH2 0x7D43 DUP2 PUSH2 0x7D0A JUMP JUMPDEST SWAP1 POP SWAP2 SWAP1 POP JUMP JUMPDEST PUSH32 0x526563697069656E74206E6F742077686974656C697374656400000000000000 PUSH0 DUP3 ADD MSTORE POP JUMP JUMPDEST PUSH0 PUSH2 0x7D7E PUSH1 0x19 DUP4 PUSH2 0x72B6 JUMP JUMPDEST SWAP2 POP PUSH2 0x7D89 DUP3 PUSH2 0x7D4A JUMP JUMPDEST PUSH1 0x20 DUP3 ADD SWAP1 POP SWAP2 SWAP1 POP JUMP JUMPDEST PUSH0 PUSH1 0x20 DUP3 ADD SWAP1 POP DUP2 DUP2 SUB PUSH0 DUP4 ADD MSTORE PUSH2 0x7DAB DUP2 PUSH2 0x7D72 JUMP JUMPDEST SWAP1 POP SWAP2 SWAP1 POP JUMP JUMPDEST PUSH32 0x526563697069656E742063616E6E6F74206265207A65726F2061646472657373 PUSH0 DUP3 ADD MSTORE POP JUMP JUMPDEST PUSH0 PUSH2 0x7DE6 PUSH1 0x20 DUP4 PUSH2 0x72B6 JUMP JUMPDEST SWAP2 POP PUSH2 0x7DF1 DUP3 PUSH2 0x7DB2 JUMP JUMPDEST PUSH1 0x20 DUP3 ADD SWAP1 POP SWAP2 SWAP1 POP JUMP JUMPDEST PUSH0 PUSH1 0x20 DUP3 ADD SWAP1 POP DUP2 DUP2 SUB PUSH0 DUP4 ADD MSTORE PUSH2 0x7E13 DUP2 PUSH2 0x7DDA JUMP JUMPDEST SWAP1 POP SWAP2 SWAP1 POP JUMP JUMPDEST PUSH32 0x416D6F756E74206D7573742062652067726561746572207468616E207A65726F PUSH0 DUP3 ADD MSTORE POP JUMP JUMPDEST PUSH0 PUSH2 0x7E4E PUSH1 0x20 DUP4 PUSH2 0x72B6 JUMP JUMPDEST SWAP2 POP PUSH2 0x7E59 DUP3 PUSH2 0x7E1A JUMP JUMPDEST PUSH1 0x20 DUP3 ADD SWAP1 POP SWAP2 SWAP1 POP JUMP JUMPDEST PUSH0 PUSH1 0x20 DUP3 ADD SWAP1 POP DUP2 DUP2 SUB PUSH0 DUP4 ADD MSTORE PUSH2 0x7E7B DUP2 PUSH2 0x7E42 JUMP JUMPDEST SWAP1 POP SWAP2 SWAP1 POP JUMP JUMPDEST PUSH0 DUP2 SWAP1 POP DUP2 PUSH0 MSTORE PUSH1 0x20 PUSH0 KECCAK256 SWAP1 POP SWAP2 SWAP1 POP JUMP JUMPDEST PUSH0 PUSH1 0x20 PUSH1 0x1F DUP4 ADD DIV SWAP1 POP SWAP2 SWAP1 POP JUMP JUMPDEST PUSH0 DUP3 DUP3 SHL SWAP1 POP SWAP3 SWAP2 POP POP JUMP JUMPDEST PUSH0 PUSH1 0x8 DUP4 MUL PUSH2 0x7EDE PUSH32 0xFFFFFFFFFFFFFFFFFFFFFFFFFFFFFFFFFFFFFFFFFFFFFFFFFFFFFFFFFFFFFFFF DUP3 PUSH2 0x7EA3 JUMP JUMPDEST PUSH2 0x7EE8 DUP7 DUP4 PUSH2 0x7EA3 JUMP JUMPDEST SWAP6 POP DUP1 NOT DUP5 AND SWAP4 POP DUP1 DUP7 AND DUP5 OR SWAP3 POP POP POP SWAP4 SWAP3 POP POP POP JUMP JUMPDEST PUSH0 DUP2 SWAP1 POP SWAP2 SWAP1 POP JUMP JUMPDEST PUSH0 PUSH2 0x7F23 PUSH2 0x7F1E PUSH2 0x7F19 DUP5 PUSH2 0x733C JUMP JUMPDEST PUSH2 0x7F00 JUMP JUMPDEST PUSH2 0x733C JUMP JUMPDEST SWAP1 POP SWAP2 SWAP1 POP JUMP JUMPDEST PUSH0 DUP2 SWAP1 POP SWAP2 SWAP1 POP JUMP JUMPDEST PUSH2 0x7F3C DUP4 PUSH2 0x7F09 JUMP JUMPDEST PUSH2 0x7F50 PUSH2 0x7F48 DUP3 PUSH2 0x7F2A JUMP JUMPDEST DUP5 DUP5 SLOAD PUSH2 0x7EAF JUMP JUMPDEST DUP3 SSTORE POP POP POP POP JUMP JUMPDEST PUSH0 PUSH0 SWAP1 POP SWAP1 JUMP JUMPDEST PUSH2 0x7F67 PUSH2 0x7F58 JUMP JUMPDEST PUSH2 0x7F72 DUP2 DUP5 DUP5 PUSH2 0x7F33 JUMP JUMPDEST POP POP POP JUMP JUMPDEST JUMPDEST DUP2 DUP2 LT ISZERO PUSH2 0x7F95 JUMPI PUSH2 0x7F8A PUSH0 DUP3 PUSH2 0x7F5F JUMP JUMPDEST PUSH1 0x1 DUP2 ADD SWAP1 POP PUSH2 0x7F78 JUMP JUMPDEST POP POP JUMP JUMPDEST PUSH1 0x1F DUP3 GT ISZERO PUSH2 0x7FDA JUMPI PUSH2 0x7FAB DUP2 PUSH2 0x7E82 JUMP JUMPDEST PUSH2 0x7FB4 DUP5 PUSH2 0x7E94 JUMP JUMPDEST DUP2 ADD PUSH1 0x20 DUP6 LT ISZERO PUSH2 0x7FC3 JUMPI DUP2 SWAP1 POP JUMPDEST PUSH2 0x7FD7 PUSH2 0x7FCF DUP6 PUSH2 0x7E94 JUMP JUMPDEST DUP4 ADD DUP3 PUSH2 0x7F77 JUMP JUMPDEST POP POP JUMPDEST POP POP POP JUMP JUMPDEST PUSH0 DUP3 DUP3 SHR SWAP1 POP SWAP3 SWAP2 POP POP JUMP JUMPDEST PUSH0 PUSH2 0x7FFA PUSH0 NOT DUP5 PUSH1 0x8 MUL PUSH2 0x7FDF JUMP JUMPDEST NOT DUP1 DUP4 AND SWAP2 POP POP SWAP3 SWAP2 POP POP JUMP JUMPDEST PUSH0 PUSH2 0x8012 DUP4 DUP4 PUSH2 0x7FEB JUMP JUMPDEST SWAP2 POP DUP3 PUSH1 0x2 MUL DUP3 OR SWAP1 POP SWAP3 SWAP2 POP POP JUMP JUMPDEST PUSH2 0x802B DUP3 PUSH2 0x72AC JUMP JUMPDEST PUSH8 0xFFFFFFFFFFFFFFFF DUP2 GT ISZERO PUSH2 0x8044 JUMPI PUSH2 0x8043 PUSH2 0x7618 JUMP JUMPDEST JUMPDEST PUSH2 0x804E DUP3 SLOAD PUSH2 0x7954 JUMP JUMPDEST PUSH2 0x8059 DUP3 DUP3 DUP6 PUSH2 0x7F99 JUMP JUMPDEST PUSH0 PUSH1 0x20 SWAP1 POP PUSH1 0x1F DUP4 GT PUSH1 0x1 DUP2 EQ PUSH2 0x808A JUMPI PUSH0 DUP5 ISZERO PUSH2 0x8078 JUMPI DUP3 DUP8 ADD MLOAD SWAP1 POP JUMPDEST PUSH2 0x8082 DUP6 DUP3 PUSH2 0x8007 JUMP JUMPDEST DUP7 SSTORE POP PUSH2 0x80E9 JUMP JUMPDEST PUSH1 0x1F NOT DUP5 AND PUSH2 0x8098 DUP7 PUSH2 0x7E82 JUMP JUMPDEST PUSH0 JUMPDEST DUP3 DUP2 LT ISZERO PUSH2 0x80BF JUMPI DUP5 DUP10 ADD MLOAD DUP3 SSTORE PUSH1 0x1 DUP3 ADD SWAP2 POP PUSH1 0x20 DUP6 ADD SWAP5 POP PUSH1 0x20 DUP2 ADD SWAP1 POP PUSH2 0x809A JUMP JUMPDEST DUP7 DUP4 LT ISZERO PUSH2 0x80DC JUMPI DUP5 DUP10 ADD MLOAD PUSH2 0x80D8 PUSH1 0x1F DUP10 AND DUP3 PUSH2 0x7FEB JUMP JUMPDEST DUP4 SSTORE POP JUMPDEST PUSH1 0x1 PUSH1 0x2 DUP9 MUL ADD DUP9 SSTORE POP POP POP JUMPDEST POP POP POP POP POP POP JUMP JUMPDEST PUSH0 PUSH1 0x40 DUP3 ADD SWAP1 POP PUSH2 0x8104 PUSH0 DUP4 ADD DUP6 PUSH2 0x74DC JUMP JUMPDEST PUSH2 0x8111 PUSH1 0x20 DUP4 ADD DUP5 PUSH2 0x7345 JUMP JUMPDEST SWAP4 SWAP3 POP POP POP JUMP JUMPDEST PUSH32 0x4D656D626572206E6F742077686974656C697374656400000000000000000000 PUSH0 DUP3 ADD MSTORE POP JUMP JUMPDEST PUSH0 PUSH2 0x814C PUSH1 0x16 DUP4 PUSH2 0x72B6 JUMP JUMPDEST SWAP2 POP PUSH2 0x8157 DUP3 PUSH2 0x8118 JUMP JUMPDEST PUSH1 0x20 DUP3 ADD SWAP1 POP SWAP2 SWAP1 POP JUMP JUMPDEST PUSH0 PUSH1 0x20 DUP3 ADD SWAP1 POP DUP2 DUP2 SUB PUSH0 DUP4 ADD MSTORE PUSH2 0x8179 DUP2 PUSH2 0x8140 JUMP JUMPDEST SWAP1 POP SWAP2 SWAP1 POP JUMP JUMPDEST PUSH32 0x72656D6F76650000000000000000000000000000000000000000000000000000 PUSH0 DUP3 ADD MSTORE POP JUMP JUMPDEST PUSH0 PUSH2 0x81B4 PUSH1 0x6 DUP4 PUSH2 0x72B6 JUMP JUMPDEST SWAP2 POP PUSH2 0x81BF DUP3 PUSH2 0x8180 JUMP JUMPDEST PUSH1 0x20 DUP3 ADD SWAP1 POP SWAP2 SWAP1 POP JUMP JUMPDEST PUSH0 PUSH1 0x40 DUP3 ADD SWAP1 POP PUSH2 0x81DD PUSH0 DUP4 ADD DUP5 PUSH2 0x74DC JUMP JUMPDEST DUP2 DUP2 SUB PUSH1 0x20 DUP4 ADD MSTORE PUSH2 0x81EE DUP2 PUSH2 0x81A8 JUMP JUMPDEST SWAP1 POP SWAP3 SWAP2 POP POP JUMP JUMPDEST PUSH32 0x53656E6465722069732066726F7A656E00000000000000000000000000000000 PUSH0 DUP3 ADD MSTORE POP JUMP JUMPDEST PUSH0 PUSH2 0x822A PUSH1 0x10 DUP4 PUSH2 0x72B6 JUMP JUMPDEST SWAP2 POP PUSH2 0x8235 DUP3 PUSH2 0x81F6 JUMP JUMPDEST PUSH1 0x20 DUP3 ADD SWAP1 POP SWAP2 SWAP1 POP JUMP JUMPDEST PUSH0 PUSH1 0x20 DUP3 ADD SWAP1 POP DUP2 DUP2 SUB PUSH0 DUP4 ADD MSTORE PUSH2 0x8257 DUP2 PUSH2 0x821E JUMP JUMPDEST SWAP1 POP SWAP2 SWAP1 POP JUMP JUMPDEST PUSH32 0x416D6F756E74206D75737420626520616E20696E746567657200000000000000 PUSH0 DUP3 ADD MSTORE POP JUMP JUMPDEST PUSH0 PUSH2 0x8292 PUSH1 0x19 DUP4 PUSH2 0x72B6 JUMP JUMPDEST SWAP2 POP PUSH2 0x829D DUP3 PUSH2 0x825E JUMP JUMPDEST PUSH1 0x20 DUP3 ADD SWAP1 POP SWAP2 SWAP1 POP JUMP JUMPDEST PUSH0 PUSH1 0x20 DUP3 ADD SWAP1 POP DUP2 DUP2 SUB PUSH0 DUP4 ADD MSTORE PUSH2 0x82BF DUP2 PUSH2 0x8286 JUMP JUMPDEST SWAP1 POP SWAP2 SWAP1 POP JUMP JUMPDEST PUSH32 0x4D656D6265722063616E6E6F74206265207A65726F2061646472657373000000 PUSH0 DUP3 ADD MSTORE POP JUMP JUMPDEST PUSH0 PUSH2 0x82FA PUSH1 0x1D DUP4 PUSH2 0x72B6 JUMP JUMPDEST SWAP2 POP PUSH2 0x8305 DUP3 PUSH2 0x82C6 JUMP JUMPDEST PUSH1 0x20 DUP3 ADD SWAP1 POP SWAP2 SWAP1 POP JUMP JUMPDEST PUSH0 PUSH1 0x20 DUP3 ADD SWAP1 POP DUP2 DUP2 SUB PUSH0 DUP4 ADD MSTORE PUSH2 0x8327 DUP2 PUSH2 0x82EE JUMP JUMPDEST SWAP1 POP SWAP2 SWAP1 POP JUMP JUMPDEST PUSH32 0x4D656D62657220616C72656164792077686974656C6973746564000000000000 PUSH0 DUP3 ADD MSTORE POP JUMP JUMPDEST PUSH0 PUSH2 0x8362 PUSH1 0x1A DUP4 PUSH2 0x72B6 JUMP JUMPDEST SWAP2 POP PUSH2 0x836D DUP3 PUSH2 0x832E JUMP JUMPDEST PUSH1 0x20 DUP3 ADD SWAP1 POP SWAP2 SWAP1 POP JUMP JUMPDEST PUSH0 PUSH1 0x20 DUP3 ADD SWAP1 POP DUP2 DUP2 SUB PUSH0 DUP4 ADD MSTORE PUSH2 0x838F DUP2 PUSH2 0x8356 JUMP JUMPDEST SWAP1 POP SWAP2 SWAP1 POP JUMP JUMPDEST PUSH32 0x6164640000000000000000000000000000000000000000000000000000000000 PUSH0 DUP3 ADD MSTORE POP JUMP JUMPDEST PUSH0 PUSH2 0x83CA PUSH1 0x3 DUP4 PUSH2 0x72B6 JUMP JUMPDEST SWAP2 POP PUSH2 0x83D5 DUP3 PUSH2 0x8396 JUMP JUMPDEST PUSH1 0x20 DUP3 ADD SWAP1 POP SWAP2 SWAP1 POP JUMP JUMPDEST PUSH0 PUSH1 0x40 DUP3 ADD SWAP1 POP PUSH2 0x83F3 PUSH0 DUP4 ADD DUP5 PUSH2 0x74DC JUMP JUMPDEST DUP2 DUP2 SUB PUSH1 0x20 DUP4 ADD MSTORE PUSH2 0x8404 DUP2 PUSH2 0x83BE JUMP JUMPDEST SWAP1 POP SWAP3 SWAP2 POP POP JUMP JUMPDEST PUSH32 0x4E6F206163746976652070726F706F73616C0000000000000000000000000000 PUSH0 DUP3 ADD MSTORE POP JUMP JUMPDEST PUSH0 PUSH2 0x8440 PUSH1 0x12 DUP4 PUSH2 0x72B6 JUMP JUMPDEST SWAP2 POP PUSH2 0x844B DUP3 PUSH2 0x840C JUMP JUMPDEST PUSH1 0x20 DUP3 ADD SWAP1 POP SWAP2 SWAP1 POP JUMP JUMPDEST PUSH0 PUSH1 0x20 DUP3 ADD SWAP1 POP DUP2 DUP2 SUB PUSH0 DUP4 ADD MSTORE PUSH2 0x846D DUP2 PUSH2 0x8434 JUMP JUMPDEST SWAP1 POP SWAP2 SWAP1 POP JUMP JUMPDEST PUSH0 DUP2 SWAP1 POP SWAP3 SWAP2 POP POP JUMP JUMPDEST PUSH32 0x756E667265657A65000000000000000000000000000000000000000000000000 PUSH0 DUP3 ADD MSTORE POP JUMP JUMPDEST PUSH0 PUSH2 0x84B2 PUSH1 0x8 DUP4 PUSH2 0x8474 JUMP JUMPDEST SWAP2 POP PUSH2 0x84BD DUP3 PUSH2 0x847E JUMP JUMPDEST PUSH1 0x8 DUP3 ADD SWAP1 POP SWAP2 SWAP1 POP JUMP JUMPDEST PUSH0 PUSH2 0x84D2 DUP3 PUSH2 0x84A6 JUMP JUMPDEST SWAP2 POP DUP2 SWAP1 POP SWAP2 SWAP1 POP JUMP JUMPDEST PUSH0 DUP2 SLOAD PUSH2 0x84E8 DUP2 PUSH2 0x7954 JUMP JUMPDEST PUSH2 0x84F2 DUP2 DUP7 PUSH2 0x8474 JUMP JUMPDEST SWAP5 POP PUSH1 0x1 DUP3 AND PUSH0 DUP2 EQ PUSH2 0x850C JUMPI PUSH1 0x1 DUP2 EQ PUSH2 0x8521 JUMPI PUSH2 0x8553 JUMP JUMPDEST PUSH1 0xFF NOT DUP4 AND DUP7 MSTORE DUP2 ISZERO ISZERO DUP3 MUL DUP7 ADD SWAP4 POP PUSH2 0x8553 JUMP JUMPDEST PUSH2 0x852A DUP6 PUSH2 0x7E82 JUMP JUMPDEST PUSH0 JUMPDEST DUP4 DUP2 LT ISZERO PUSH2 0x854B JUMPI DUP2 SLOAD DUP2 DUP10 ADD MSTORE PUSH1 0x1 DUP3 ADD SWAP2 POP PUSH1 0x20 DUP2 ADD SWAP1 POP PUSH2 0x852C JUMP JUMPDEST DUP4 DUP9 ADD SWAP6 POP POP POP JUMPDEST POP POP POP SWAP3 SWAP2 POP POP JUMP JUMPDEST PUSH0 PUSH2 0x8567 DUP3 DUP5 PUSH2 0x84DC JUMP JUMPDEST SWAP2 POP DUP2 SWAP1 POP SWAP3 SWAP2 POP POP JUMP JUMPDEST PUSH32 0x496E76616C69642070726F706F73616C20747970650000000000000000000000 PUSH0 DUP3 ADD MSTORE POP JUMP JUMPDEST PUSH0 PUSH2 0x85A6 PUSH1 0x15 DUP4 PUSH2 0x72B6 JUMP JUMPDEST SWAP2 POP PUSH2 0x85B1 DUP3 PUSH2 0x8572 JUMP JUMPDEST PUSH1 0x20 DUP3 ADD SWAP1 POP SWAP2 SWAP1 POP JUMP JUMPDEST PUSH0 PUSH1 0x20 DUP3 ADD SWAP1 POP DUP2 DUP2 SUB PUSH0 DUP4 ADD MSTORE PUSH2 0x85D3 DUP2 PUSH2 0x859A JUMP JUMPDEST SWAP1 POP SWAP2 SWAP1 POP JUMP JUMPDEST PUSH32 0x4E6F7420656E6F75676820766F74657300000000000000000000000000000000 PUSH0 DUP3 ADD MSTORE POP JUMP JUMPDEST PUSH0 PUSH2 0x860E PUSH1 0x10 DUP4 PUSH2 0x72B6 JUMP JUMPDEST SWAP2 POP PUSH2 0x8619 DUP3 PUSH2 0x85DA JUMP JUMPDEST PUSH1 0x20 DUP3 ADD SWAP1 POP SWAP2 SWAP1 POP JUMP JUMPDEST PUSH0 PUSH1 0x20 DUP3 ADD SWAP1 POP DUP2 DUP2 SUB PUSH0 DUP4 ADD MSTORE PUSH2 0x863B DUP2 PUSH2 0x8602 JUMP JUMPDEST SWAP1 POP SWAP2 SWAP1 POP JUMP JUMPDEST PUSH32 0x496E76616C696420757365722061646472657373000000000000000000000000 PUSH0 DUP3 ADD MSTORE POP JUMP JUMPDEST PUSH0 PUSH2 0x8676 PUSH1 0x14 DUP4 PUSH2 0x72B6 JUMP JUMPDEST SWAP2 POP PUSH2 0x8681 DUP3 PUSH2 0x8642 JUMP JUMPDEST PUSH1 0x20 DUP3 ADD SWAP1 POP SWAP2 SWAP1 POP JUMP JUMPDEST PUSH0 PUSH1 0x20 DUP3 ADD SWAP1 POP DUP2 DUP2 SUB PUSH0 DUP4 ADD MSTORE PUSH2 0x86A3 DUP2 PUSH2 0x866A JUMP JUMPDEST SWAP1 POP SWAP2 SWAP1 POP JUMP JUMPDEST PUSH32 0x55736572206E6F742066726F7A656E0000000000000000000000000000000000 PUSH0 DUP3 ADD MSTORE POP JUMP JUMPDEST PUSH0 PUSH2 0x86DE PUSH1 0xF DUP4 PUSH2 0x72B6 JUMP JUMPDEST SWAP2 POP PUSH2 0x86E9 DUP3 PUSH2 0x86AA JUMP JUMPDEST PUSH1 0x20 DUP3 ADD SWAP1 POP SWAP2 SWAP1 POP JUMP JUMPDEST PUSH0 PUSH1 0x20 DUP3 ADD SWAP1 POP DUP2 DUP2 SUB PUSH0 DUP4 ADD MSTORE PUSH2 0x870B DUP2 PUSH2 0x86D2 JUMP JUMPDEST SWAP1 POP SWAP2 SWAP1 POP JUMP JUMPDEST PUSH0 PUSH2 0x871E PUSH1 0x8 DUP4 PUSH2 0x72B6 JUMP JUMPDEST SWAP2 POP PUSH2 0x8729 DUP3 PUSH2 0x847E JUMP JUMPDEST PUSH1 0x20 DUP3 ADD SWAP1 POP SWAP2 SWAP1 POP JUMP JUMPDEST PUSH0 PUSH1 0x40 DUP3 ADD SWAP1 POP PUSH2 0x8747 PUSH0 DUP4 ADD DUP5 PUSH2 0x74DC JUMP JUMPDEST DUP2 DUP2 SUB PUSH1 0x20 DUP4 ADD MSTORE PUSH2 0x8758 DUP2 PUSH2 0x8712 JUMP JUMPDEST SWAP1 POP SWAP3 SWAP2 POP POP JUMP JUMPDEST PUSH32 0x416C726561647920656E6F75676820766F74657320746F207061757365000000 PUSH0 DUP3 ADD MSTORE POP JUMP JUMPDEST PUSH0 PUSH2 0x8794 PUSH1 0x1D DUP4 PUSH2 0x72B6 JUMP JUMPDEST SWAP2 POP PUSH2 0x879F DUP3 PUSH2 0x8760 JUMP JUMPDEST PUSH1 0x20 DUP3 ADD SWAP1 POP SWAP2 SWAP1 POP JUMP JUMPDEST PUSH0 PUSH1 0x20 DUP3 ADD SWAP1 POP DUP2 DUP2 SUB PUSH0 DUP4 ADD MSTORE PUSH2 0x87C1 DUP2 PUSH2 0x8788 JUMP JUMPDEST SWAP1 POP SWAP2 SWAP1 POP JUMP JUMPDEST PUSH32 0x766F746572730000000000000000000000000000000000000000000000000000 PUSH0 DUP3 ADD MSTORE POP JUMP JUMPDEST PUSH0 PUSH2 0x87FC PUSH1 0x6 DUP4 PUSH2 0x8474 JUMP JUMPDEST SWAP2 POP PUSH2 0x8807 DUP3 PUSH2 0x87C8 JUMP JUMPDEST PUSH1 0x6 DUP3 ADD SWAP1 POP SWAP2 SWAP1 POP JUMP JUMPDEST PUSH0 PUSH2 0x881C DUP3 PUSH2 0x87F0 JUMP JUMPDEST SWAP2 POP DUP2 SWAP1 POP SWAP2 SWAP1 POP JUMP JUMPDEST PUSH32 0x4368616E6765206E6F7420616C6C6F7765642079657400000000000000000000 PUSH0 DUP3 ADD MSTORE POP JUMP JUMPDEST PUSH0 PUSH2 0x885A PUSH1 0x16 DUP4 PUSH2 0x72B6 JUMP JUMPDEST SWAP2 POP PUSH2 0x8865 DUP3 PUSH2 0x8826 JUMP JUMPDEST PUSH1 0x20 DUP3 ADD SWAP1 POP SWAP2 SWAP1 POP JUMP JUMPDEST PUSH0 PUSH1 0x20 DUP3 ADD SWAP1 POP DUP2 DUP2 SUB PUSH0 DUP4 ADD MSTORE PUSH2 0x8887 DUP2 PUSH2 0x884E JUMP JUMPDEST SWAP1 POP SWAP2 SWAP1 POP JUMP JUMPDEST PUSH32 0x4E6F20766F746572207265706C6163656D656E742070726F706F736564000000 PUSH0 DUP3 ADD MSTORE POP JUMP JUMPDEST PUSH0 PUSH2 0x88C2 PUSH1 0x1D DUP4 PUSH2 0x72B6 JUMP JUMPDEST SWAP2 POP PUSH2 0x88CD DUP3 PUSH2 0x888E JUMP JUMPDEST PUSH1 0x20 DUP3 ADD SWAP1 POP SWAP2 SWAP1 POP JUMP JUMPDEST PUSH0 PUSH1 0x20 DUP3 ADD SWAP1 POP DUP2 DUP2 SUB PUSH0 DUP4 ADD MSTORE PUSH2 0x88EF DUP2 PUSH2 0x88B6 JUMP JUMPDEST SWAP1 POP SWAP2 SWAP1 POP JUMP JUMPDEST PUSH32 0x4E487B7100000000000000000000000000000000000000000000000000000000 PUSH0 MSTORE PUSH1 0x32 PUSH1 0x4 MSTORE PUSH1 0x24 PUSH0 REVERT JUMPDEST PUSH32 0x4F6C6420766F746572206E6F7420696E20766F746572206C6973740000000000 PUSH0 DUP3 ADD MSTORE POP JUMP JUMPDEST PUSH0 PUSH2 0x8957 PUSH1 0x1B DUP4 PUSH2 0x72B6 JUMP JUMPDEST SWAP2 POP PUSH2 0x8962 DUP3 PUSH2 0x8923 JUMP JUMPDEST PUSH1 0x20 DUP3 ADD SWAP1 POP SWAP2 SWAP1 POP JUMP JUMPDEST PUSH0 PUSH1 0x20 DUP3 ADD SWAP1 POP DUP2 DUP2 SUB PUSH0 DUP4 ADD MSTORE PUSH2 0x8984 DUP2 PUSH2 0x894B JUMP JUMPDEST SWAP1 POP SWAP2 SWAP1 POP JUMP JUMPDEST PUSH32 0x4E657720766F7465722063616E6E6F74206265207A65726F2061646472657373 PUSH0 DUP3 ADD MSTORE POP JUMP JUMPDEST PUSH0 PUSH2 0x89BF PUSH1 0x20 DUP4 PUSH2 0x72B6 JUMP JUMPDEST SWAP2 POP PUSH2 0x89CA DUP3 PUSH2 0x898B JUMP JUMPDEST PUSH1 0x20 DUP3 ADD SWAP1 POP SWAP2 SWAP1 POP JUMP JUMPDEST PUSH0 PUSH1 0x20 DUP3 ADD SWAP1 POP DUP2 DUP2 SUB PUSH0 DUP4 ADD MSTORE PUSH2 0x89EC DUP2 PUSH2 0x89B3 JUMP JUMPDEST SWAP1 POP SWAP2 SWAP1 POP JUMP JUMPDEST PUSH32 0x4E657720766F74657220616C726561647920696E20766F746572206C69737400 PUSH0 DUP3 ADD MSTORE POP JUMP JUMPDEST PUSH0 PUSH2 0x8A27 PUSH1 0x1F DUP4 PUSH2 0x72B6 JUMP JUMPDEST SWAP2 POP PUSH2 0x8A32 DUP3 PUSH2 0x89F3 JUMP JUMPDEST PUSH1 0x20 DUP3 ADD SWAP1 POP SWAP2 SWAP1 POP JUMP JUMPDEST PUSH0 PUSH1 0x20 DUP3 ADD SWAP1 POP DUP2 DUP2 SUB PUSH0 DUP4 ADD MSTORE PUSH2 0x8A54 DUP2 PUSH2 0x8A1B JUMP JUMPDEST SWAP1 POP SWAP2 SWAP1 POP JUMP JUMPDEST PUSH32 0x4475706C6963617465206E657720766F74657273206E6F7420616C6C6F776564 PUSH0 DUP3 ADD MSTORE POP JUMP JUMPDEST PUSH0 PUSH2 0x8A8F PUSH1 0x20 DUP4 PUSH2 0x72B6 JUMP JUMPDEST SWAP2 POP PUSH2 0x8A9A DUP3 PUSH2 0x8A5B JUMP JUMPDEST PUSH1 0x20 DUP3 ADD SWAP1 POP SWAP2 SWAP1 POP JUMP JUMPDEST PUSH0 PUSH1 0x20 DUP3 ADD SWAP1 POP DUP2 DUP2 SUB PUSH0 DUP4 ADD MSTORE PUSH2 0x8ABC DUP2 PUSH2 0x8A83 JUMP JUMPDEST SWAP1 POP SWAP2 SWAP1 POP JUMP JUMPDEST PUSH0 DUP2 SLOAD SWAP1 POP SWAP2 SWAP1 POP JUMP JUMPDEST PUSH0 DUP3 DUP3 MSTORE PUSH1 0x20 DUP3 ADD SWAP1 POP SWAP3 SWAP2 POP POP JUMP JUMPDEST PUSH0 DUP2 SWAP1 POP DUP2 PUSH0 MSTORE PUSH1 0x20 PUSH0 KECCAK256 SWAP1 POP SWAP2 SWAP1 POP JUMP JUMPDEST PUSH2 0x8AF8 DUP2 PUSH2 0x739D JUMP JUMPDEST DUP3 MSTORE POP POP JUMP JUMPDEST PUSH0 PUSH2 0x8B09 DUP4 DUP4 PUSH2 0x8AEF JUMP JUMPDEST PUSH1 0x20 DUP4 ADD SWAP1 POP SWAP3 SWAP2 POP POP JUMP JUMPDEST PUSH0 DUP2 PUSH0 SHR SWAP1 POP SWAP2 SWAP1 POP JUMP JUMPDEST PUSH0 PUSH20 0xFFFFFFFFFFFFFFFFFFFFFFFFFFFFFFFFFFFFFFFF DUP3 AND SWAP1 POP SWAP2 SWAP1 POP JUMP JUMPDEST PUSH0 PUSH2 0x8B51 PUSH2 0x8B4C DUP4 PUSH2 0x8B15 JUMP JUMPDEST PUSH2 0x8B20 JUMP JUMPDEST SWAP1 POP SWAP2 SWAP1 POP JUMP JUMPDEST PUSH0 PUSH2 0x8B63 DUP3 SLOAD PUSH2 0x8B3F JUMP JUMPDEST SWAP1 POP SWAP2 SWAP1 POP JUMP JUMPDEST PUSH0 PUSH1 0x1 DUP3 ADD SWAP1 POP SWAP2 SWAP1 POP JUMP JUMPDEST PUSH0 PUSH2 0x8B80 DUP3 PUSH2 0x8AC3 JUMP JUMPDEST PUSH2 0x8B8A DUP2 DUP6 PUSH2 0x8ACD JUMP JUMPDEST SWAP4 POP PUSH2 0x8B95 DUP4 PUSH2 0x8ADD JUMP JUMPDEST DUP1 PUSH0 JUMPDEST DUP4 DUP2 LT ISZERO PUSH2 0x8BCC JUMPI PUSH2 0x8BA9 DUP3 PUSH2 0x8B58 JUMP JUMPDEST PUSH2 0x8BB3 DUP9 DUP3 PUSH2 0x8AFE JUMP JUMPDEST SWAP8 POP PUSH2 0x8BBE DUP4 PUSH2 0x8B6A JUMP JUMPDEST SWAP3 POP POP PUSH1 0x1 DUP2 ADD SWAP1 POP PUSH2 0x8B98 JUMP JUMPDEST POP DUP6 SWAP4 POP POP POP POP SWAP3 SWAP2 POP POP JUMP JUMPDEST PUSH0 PUSH1 0x40 DUP3 ADD SWAP1 POP DUP2 DUP2 SUB PUSH0 DUP4 ADD MSTORE PUSH2 0x8BF1 DUP2 DUP6 PUSH2 0x8B76 JUMP JUMPDEST SWAP1 POP DUP2 DUP2 SUB PUSH1 0x20 DUP4 ADD MSTORE PUSH2 0x8C05 DUP2 DUP5 PUSH2 0x8B76 JUMP JUMPDEST SWAP1 POP SWAP4 SWAP3 POP POP POP JUMP JUMPDEST PUSH32 0x667265657A650000000000000000000000000000000000000000000000000000 PUSH0 DUP3 ADD MSTORE POP JUMP JUMPDEST PUSH0 PUSH2 0x8C42 PUSH1 0x6 DUP4 PUSH2 0x8474 JUMP JUMPDEST SWAP2 POP PUSH2 0x8C4D DUP3 PUSH2 0x8C0E JUMP JUMPDEST PUSH1 0x6 DUP3 ADD SWAP1 POP SWAP2 SWAP1 POP JUMP JUMPDEST PUSH0 PUSH2 0x8C62 DUP3 PUSH2 0x8C36 JUMP JUMPDEST SWAP2 POP DUP2 SWAP1 POP SWAP2 SWAP1 POP JUMP JUMPDEST PUSH32 0x5573657220616C72656164792066726F7A656E00000000000000000000000000 PUSH0 DUP3 ADD MSTORE POP JUMP JUMPDEST PUSH0 PUSH2 0x8CA0 PUSH1 0x13 DUP4 PUSH2 0x72B6 JUMP JUMPDEST SWAP2 POP PUSH2 0x8CAB DUP3 PUSH2 0x8C6C JUMP JUMPDEST PUSH1 0x20 DUP3 ADD SWAP1 POP SWAP2 SWAP1 POP JUMP JUMPDEST PUSH0 PUSH1 0x20 DUP3 ADD SWAP1 POP DUP2 DUP2 SUB PUSH0 DUP4 ADD MSTORE PUSH2 0x8CCD DUP2 PUSH2 0x8C94 JUMP JUMPDEST SWAP1 POP SWAP2 SWAP1 POP JUMP JUMPDEST PUSH0 PUSH2 0x8CE0 PUSH1 0x6 DUP4 PUSH2 0x72B6 JUMP JUMPDEST SWAP2 POP PUSH2 0x8CEB DUP3 PUSH2 0x8C0E JUMP JUMPDEST PUSH1 0x20 DUP3 ADD SWAP1 POP SWAP2 SWAP1 POP JUMP JUMPDEST PUSH0 PUSH1 0x40 DUP3 ADD SWAP1 POP PUSH2 0x8D09 PUSH0 DUP4 ADD DUP5 PUSH2 0x74DC JUMP JUMPDEST DUP2 DUP2 SUB PUSH1 0x20 DUP4 ADD MSTORE PUSH2 0x8D1A DUP2 PUSH2 0x8CD4 JUMP JUMPDEST SWAP1 POP SWAP3 SWAP2 POP POP JUMP JUMPDEST PUSH32 0x41646A7573746D656E7420616D6F756E74206D757374206265206E6F6E2D7A65 PUSH0 DUP3 ADD MSTORE PUSH32 0x726F000000000000000000000000000000000000000000000000000000000000 PUSH1 0x20 DUP3 ADD MSTORE POP JUMP JUMPDEST PUSH0 PUSH2 0x8D7C PUSH1 0x22 DUP4 PUSH2 0x72B6 JUMP JUMPDEST SWAP2 POP PUSH2 0x8D87 DUP3 PUSH2 0x8D22 JUMP JUMPDEST PUSH1 0x40 DUP3 ADD SWAP1 POP SWAP2 SWAP1 POP JUMP JUMPDEST PUSH0 PUSH1 0x20 DUP3 ADD SWAP1 POP DUP2 DUP2 SUB PUSH0 DUP4 ADD MSTORE PUSH2 0x8DA9 DUP2 PUSH2 0x8D70 JUMP JUMPDEST SWAP1 POP SWAP2 SWAP1 POP JUMP JUMPDEST PUSH0 DUP2 SWAP1 POP SWAP2 SWAP1 POP JUMP JUMPDEST PUSH0 PUSH2 0x8DC3 DUP3 PUSH2 0x8DB0 JUMP JUMPDEST SWAP2 POP PUSH2 0x8DCE DUP4 PUSH2 0x8DB0 JUMP JUMPDEST SWAP3 POP DUP3 DUP3 ADD SWAP1 POP DUP3 DUP2 SLT ISZERO PUSH0 DUP4 SLT AND DUP4 DUP3 SLT PUSH0 DUP5 SLT ISZERO AND OR ISZERO PUSH2 0x8DF4 JUMPI PUSH2 0x8DF3 PUSH2 0x7AE2 JUMP JUMPDEST JUMPDEST SWAP3 SWAP2 POP POP JUMP JUMPDEST PUSH32 0x546F74616C20737570706C792063616E6E6F74206265206C657373207468616E PUSH0 DUP3 ADD MSTORE PUSH32 0x206D696E74656420616D6F756E74000000000000000000000000000000000000 PUSH1 0x20 DUP3 ADD MSTORE POP JUMP JUMPDEST PUSH0 PUSH2 0x8E54 PUSH1 0x2E DUP4 PUSH2 0x72B6 JUMP JUMPDEST SWAP2 POP PUSH2 0x8E5F DUP3 PUSH2 0x8DFA JUMP JUMPDEST PUSH1 0x40 DUP3 ADD SWAP1 POP SWAP2 SWAP1 POP JUMP JUMPDEST PUSH0 PUSH1 0x20 DUP3 ADD SWAP1 POP DUP2 DUP2 SUB PUSH0 DUP4 ADD MSTORE PUSH2 0x8E81 DUP2 PUSH2 0x8E48 JUMP JUMPDEST SWAP1 POP SWAP2 SWAP1 POP JUMP JUMPDEST PUSH32 0x546F74616C20737570706C792063616E6E6F74206265206E6567617469766500 PUSH0 DUP3 ADD MSTORE POP JUMP JUMPDEST PUSH0 PUSH2 0x8EBC PUSH1 0x1F DUP4 PUSH2 0x72B6 JUMP JUMPDEST SWAP2 POP PUSH2 0x8EC7 DUP3 PUSH2 0x8E88 JUMP JUMPDEST PUSH1 0x20 DUP3 ADD SWAP1 POP SWAP2 SWAP1 POP JUMP JUMPDEST PUSH0 PUSH1 0x20 DUP3 ADD SWAP1 POP DUP2 DUP2 SUB PUSH0 DUP4 ADD MSTORE PUSH2 0x8EE9 DUP2 PUSH2 0x8EB0 JUMP JUMPDEST SWAP1 POP SWAP2 SWAP1 POP JUMP JUMPDEST PUSH0 PUSH1 0x40 DUP3 ADD SWAP1 POP PUSH2 0x8F03 PUSH0 DUP4 ADD DUP6 PUSH2 0x78C1 JUMP JUMPDEST PUSH2 0x8F10 PUSH1 0x20 DUP4 ADD DUP5 PUSH2 0x74DC JUMP JUMPDEST SWAP4 SWAP3 POP POP POP JUMP JUMPDEST PUSH32 0x77686974656C6973745F72656D6F766500000000000000000000000000000000 PUSH0 DUP3 ADD MSTORE POP JUMP JUMPDEST PUSH0 PUSH2 0x8F4B PUSH1 0x10 DUP4 PUSH2 0x8474 JUMP JUMPDEST SWAP2 POP PUSH2 0x8F56 DUP3 PUSH2 0x8F17 JUMP JUMPDEST PUSH1 0x10 DUP3 ADD SWAP1 POP SWAP2 SWAP1 POP JUMP JUMPDEST PUSH0 PUSH2 0x8F6B DUP3 PUSH2 0x8F3F JUMP JUMPDEST SWAP2 POP DUP2 SWAP1 POP SWAP2 SWAP1 POP JUMP JUMPDEST PUSH32 0x496E76616C6964206D656D626572206164647265737300000000000000000000 PUSH0 DUP3 ADD MSTORE POP JUMP JUMPDEST PUSH0 PUSH2 0x8FA9 PUSH1 0x16 DUP4 PUSH2 0x72B6 JUMP JUMPDEST SWAP2 POP PUSH2 0x8FB4 DUP3 PUSH2 0x8F75 JUMP JUMPDEST PUSH1 0x20 DUP3 ADD SWAP1 POP SWAP2 SWAP1 POP JUMP JUMPDEST PUSH0 PUSH1 0x20 DUP3 ADD SWAP1 POP DUP2 DUP2 SUB PUSH0 DUP4 ADD MSTORE PUSH2 0x8FD6 DUP2 PUSH2 0x8F9D JUMP JUMPDEST SWAP1 POP SWAP2 SWAP1 POP JUMP JUMPDEST PUSH0 PUSH2 0x8FE7 DUP3 PUSH2 0x733C JUMP JUMPDEST SWAP2 POP PUSH2 0x8FF2 DUP4 PUSH2 0x733C JUMP JUMPDEST SWAP3 POP DUP3 DUP3 SUB SWAP1 POP DUP2 DUP2 GT ISZERO PUSH2 0x900A JUMPI PUSH2 0x9009 PUSH2 0x7AE2 JUMP JUMPDEST JUMPDEST SWAP3 SWAP2 POP POP JUMP JUMPDEST PUSH32 0x4E487B7100000000000000000000000000000000000000000000000000000000 PUSH0 MSTORE PUSH1 0x31 PUSH1 0x4 MSTORE PUSH1 0x24 PUSH0 REVERT JUMPDEST PUSH32 0x557365722063616E6E6F74206265207A65726F20616464726573730000000000 PUSH0 DUP3 ADD MSTORE POP JUMP JUMPDEST PUSH0 PUSH2 0x9071 PUSH1 0x1B DUP4 PUSH2 0x72B6 JUMP JUMPDEST SWAP2 POP PUSH2 0x907C DUP3 PUSH2 0x903D JUMP JUMPDEST PUSH1 0x20 DUP3 ADD SWAP1 POP SWAP2 SWAP1 POP JUMP JUMPDEST PUSH0 PUSH1 0x20 DUP3 ADD SWAP1 POP DUP2 DUP2 SUB PUSH0 DUP4 ADD MSTORE PUSH2 0x909E DUP2 PUSH2 0x9065 JUMP JUMPDEST SWAP1 POP SWAP2 SWAP1 POP JUMP JUMPDEST PUSH32 0x4F6C6420616E64206E657720766F7465727320617272617973206D7573742068 PUSH0 DUP3 ADD MSTORE PUSH32 0x6176652073616D65206C656E6774680000000000000000000000000000000000 PUSH1 0x20 DUP3 ADD MSTORE POP JUMP JUMPDEST PUSH0 PUSH2 0x90FF PUSH1 0x2F DUP4 PUSH2 0x72B6 JUMP JUMPDEST SWAP2 POP PUSH2 0x910A DUP3 PUSH2 0x90A5 JUMP JUMPDEST PUSH1 0x40 DUP3 ADD SWAP1 POP SWAP2 SWAP1 POP JUMP JUMPDEST PUSH0 PUSH1 0x20 DUP3 ADD SWAP1 POP DUP2 DUP2 SUB PUSH0 DUP4 ADD MSTORE PUSH2 0x912C DUP2 PUSH2 0x90F3 JUMP JUMPDEST SWAP1 POP SWAP2 SWAP1 POP JUMP JUMPDEST PUSH32 0x4174206C65617374206F6E6520766F746572207265706C6163656D656E742072 PUSH0 DUP3 ADD MSTORE PUSH32 0x6571756972656400000000000000000000000000000000000000000000000000 PUSH1 0x20 DUP3 ADD MSTORE POP JUMP JUMPDEST PUSH0 PUSH2 0x918D PUSH1 0x27 DUP4 PUSH2 0x72B6 JUMP JUMPDEST SWAP2 POP PUSH2 0x9198 DUP3 PUSH2 0x9133 JUMP JUMPDEST PUSH1 0x40 DUP3 ADD SWAP1 POP SWAP2 SWAP1 POP JUMP JUMPDEST PUSH0 PUSH1 0x20 DUP3 ADD SWAP1 POP DUP2 DUP2 SUB PUSH0 DUP4 ADD MSTORE PUSH2 0x91BA DUP2 PUSH2 0x9181 JUMP JUMPDEST SWAP1 POP SWAP2 SWAP1 POP JUMP JUMPDEST PUSH0 DUP2 MLOAD SWAP1 POP SWAP2 SWAP1 POP JUMP JUMPDEST PUSH0 DUP2 SWAP1 POP PUSH1 0x20 DUP3 ADD SWAP1 POP SWAP2 SWAP1 POP JUMP JUMPDEST PUSH0 PUSH1 0x20 DUP3 ADD SWAP1 POP SWAP2 SWAP1 POP JUMP JUMPDEST PUSH0 PUSH2 0x91F0 DUP3 PUSH2 0x91C1 JUMP JUMPDEST PUSH2 0x91FA DUP2 DUP6 PUSH2 0x8ACD JUMP JUMPDEST SWAP4 POP PUSH2 0x9205 DUP4 PUSH2 0x91CB JUMP JUMPDEST DUP1 PUSH0 JUMPDEST DUP4 DUP2 LT ISZERO PUSH2 0x9235 JUMPI DUP2 MLOAD PUSH2 0x921C DUP9 DUP3 PUSH2 0x8AFE JUMP JUMPDEST SWAP8 POP PUSH2 0x9227 DUP4 PUSH2 0x91DA JUMP JUMPDEST SWAP3 POP POP PUSH1 0x1 DUP2 ADD SWAP1 POP PUSH2 0x9208 JUMP JUMPDEST POP DUP6 SWAP4 POP POP POP POP SWAP3 SWAP2 POP POP JUMP JUMPDEST PUSH0 PUSH1 0x60 DUP3 ADD SWAP1 POP DUP2 DUP2 SUB PUSH0 DUP4 ADD MSTORE PUSH2 0x925A DUP2 DUP7 PUSH2 0x91E6 JUMP JUMPDEST SWAP1 POP DUP2 DUP2 SUB PUSH1 0x20 DUP4 ADD MSTORE PUSH2 0x926E DUP2 DUP6 PUSH2 0x91E6 JUMP JUMPDEST SWAP1 POP PUSH2 0x927D PUSH1 0x40 DUP4 ADD DUP5 PUSH2 0x74DC JUMP JUMPDEST SWAP5 SWAP4 POP POP POP POP JUMP JUMPDEST PUSH0 PUSH1 0x40 DUP3 ADD SWAP1 POP DUP2 DUP2 SUB PUSH0 DUP4 ADD MSTORE PUSH2 0x929D DUP2 DUP6 PUSH2 0x72E4 JUMP JUMPDEST SWAP1 POP PUSH2 0x92AC PUSH1 0x20 DUP4 ADD DUP5 PUSH2 0x74DC JUMP JUMPDEST SWAP4 SWAP3 POP POP POP JUMP JUMPDEST PUSH32 0x416C726561647920766F74656400000000000000000000000000000000000000 PUSH0 DUP3 ADD MSTORE POP JUMP JUMPDEST PUSH0 PUSH2 0x92E7 PUSH1 0xD DUP4 PUSH2 0x72B6 JUMP JUMPDEST SWAP2 POP PUSH2 0x92F2 DUP3 PUSH2 0x92B3 JUMP JUMPDEST PUSH1 0x20 DUP3 ADD SWAP1 POP SWAP2 SWAP1 POP JUMP JUMPDEST PUSH0 PUSH1 0x20 DUP3 ADD SWAP1 POP DUP2 DUP2 SUB PUSH0 DUP4 ADD MSTORE PUSH2 0x9314 DUP2 PUSH2 0x92DB JUMP JUMPDEST SWAP1 POP SWAP2 SWAP1 POP JUMP JUMPDEST PUSH32 0x566F74696E672069732070617573656400000000000000000000000000000000 PUSH0 DUP3 ADD MSTORE POP JUMP JUMPDEST PUSH0 PUSH2 0x934F PUSH1 0x10 DUP4 PUSH2 0x72B6 JUMP JUMPDEST SWAP2 POP PUSH2 0x935A DUP3 PUSH2 0x931B JUMP JUMPDEST PUSH1 0x20 DUP3 ADD SWAP1 POP SWAP2 SWAP1 POP JUMP JUMPDEST PUSH0 PUSH1 0x20 DUP3 ADD SWAP1 POP DUP2 DUP2 SUB PUSH0 DUP4 ADD MSTORE PUSH2 0x937C DUP2 PUSH2 0x9343 JUMP JUMPDEST SWAP1 POP SWAP2 SWAP1 POP JUMP JUMPDEST PUSH0 PUSH2 0x938D DUP3 PUSH2 0x733C JUMP JUMPDEST SWAP2 POP PUSH32 0xFFFFFFFFFFFFFFFFFFFFFFFFFFFFFFFFFFFFFFFFFFFFFFFFFFFFFFFFFFFFFFFF DUP3 SUB PUSH2 0x93BF JUMPI PUSH2 0x93BE PUSH2 0x7AE2 JUMP JUMPDEST JUMPDEST PUSH1 0x1 DUP3 ADD SWAP1 POP SWAP2 SWAP1 POP JUMP JUMPDEST PUSH32 0x77686974656C6973745F61646400000000000000000000000000000000000000 PUSH0 DUP3 ADD MSTORE POP JUMP JUMPDEST PUSH0 PUSH2 0x93FE PUSH1 0xD DUP4 PUSH2 0x8474 JUMP JUMPDEST SWAP2 POP PUSH2 0x9409 DUP3 PUSH2 0x93CA JUMP JUMPDEST PUSH1 0xD DUP3 ADD SWAP1 POP SWAP2 SWAP1 POP JUMP JUMPDEST PUSH0 PUSH2 0x941E DUP3 PUSH2 0x93F2 JUMP JUMPDEST SWAP2 POP DUP2 SWAP1 POP SWAP2 SWAP1 POP JUMP JUMPDEST PUSH32 0x6D696E7400000000000000000000000000000000000000000000000000000000 PUSH0 DUP3 ADD MSTORE POP JUMP JUMPDEST PUSH0 PUSH2 0x945C PUSH1 0x4 DUP4 PUSH2 0x8474 JUMP JUMPDEST SWAP2 POP PUSH2 0x9467 DUP3 PUSH2 0x9428 JUMP JUMPDEST PUSH1 0x4 DUP3 ADD SWAP1 POP SWAP2 SWAP1 POP JUMP JUMPDEST PUSH0 PUSH2 0x947C DUP3 PUSH2 0x9450 JUMP JUMPDEST SWAP2 POP DUP2 SWAP1 POP SWAP2 SWAP1 POP JUMP JUMPDEST PUSH32 0x6E616D6500000000000000000000000000000000000000000000000000000000 PUSH0 DUP3 ADD MSTORE POP JUMP JUMPDEST PUSH0 PUSH2 0x94BA PUSH1 0x4 DUP4 PUSH2 0x8474 JUMP JUMPDEST SWAP2 POP PUSH2 0x94C5 DUP3 PUSH2 0x9486 JUMP JUMPDEST PUSH1 0x4 DUP3 ADD SWAP1 POP SWAP2 SWAP1 POP JUMP JUMPDEST PUSH0 PUSH2 0x94DA DUP3 PUSH2 0x94AE JUMP JUMPDEST SWAP2 POP DUP2 SWAP1 POP SWAP2 SWAP1 POP JUMP JUMPDEST PUSH32 0x61646A757374546F74616C537570706C79000000000000000000000000000000 PUSH0 DUP3 ADD MSTORE POP JUMP JUMPDEST PUSH0 PUSH2 0x9518 PUSH1 0x11 DUP4 PUSH2 0x8474 JUMP JUMPDEST SWAP2 POP PUSH2 0x9523 DUP3 PUSH2 0x94E4 JUMP JUMPDEST PUSH1 0x11 DUP3 ADD SWAP1 POP SWAP2 SWAP1 POP JUMP JUMPDEST PUSH0 PUSH2 0x9538 DUP3 PUSH2 0x950C JUMP JUMPDEST SWAP2 POP DUP2 SWAP1 POP SWAP2 SWAP1 POP JUMP JUMPDEST PUSH32 0x446973747269627574696F6E20696E74657276616C206E6F7420726561636865 PUSH0 DUP3 ADD MSTORE PUSH32 0x6400000000000000000000000000000000000000000000000000000000000000 PUSH1 0x20 DUP3 ADD MSTORE POP JUMP JUMPDEST PUSH0 PUSH2 0x959C PUSH1 0x21 DUP4 PUSH2 0x72B6 JUMP JUMPDEST SWAP2 POP PUSH2 0x95A7 DUP3 PUSH2 0x9542 JUMP JUMPDEST PUSH1 0x40 DUP3 ADD SWAP1 POP SWAP2 SWAP1 POP JUMP JUMPDEST PUSH0 PUSH1 0x20 DUP3 ADD SWAP1 POP DUP2 DUP2 SUB PUSH0 DUP4 ADD MSTORE PUSH2 0x95C9 DUP2 PUSH2 0x9590 JUMP JUMPDEST SWAP1 POP SWAP2 SWAP1 POP JUMP JUMPDEST PUSH32 0x4E6F2077686974656C697374206D656D62657273000000000000000000000000 PUSH0 DUP3 ADD MSTORE POP JUMP JUMPDEST PUSH0 PUSH2 0x9604 PUSH1 0x14 DUP4 PUSH2 0x72B6 JUMP JUMPDEST SWAP2 POP PUSH2 0x960F DUP3 PUSH2 0x95D0 JUMP JUMPDEST PUSH1 0x20 DUP3 ADD SWAP1 POP SWAP2 SWAP1 POP JUMP JUMPDEST PUSH0 PUSH1 0x20 DUP3 ADD SWAP1 POP DUP2 DUP2 SUB PUSH0 DUP4 ADD MSTORE PUSH2 0x9631 DUP2 PUSH2 0x95F8 JUMP JUMPDEST SWAP1 POP SWAP2 SWAP1 POP JUMP JUMPDEST PUSH0 PUSH1 0x40 DUP3 ADD SWAP1 POP DUP2 DUP2 SUB PUSH0 DUP4 ADD MSTORE PUSH2 0x9650 DUP2 DUP6 PUSH2 0x91E6 JUMP JUMPDEST SWAP1 POP PUSH2 0x965F PUSH1 0x20 DUP4 ADD DUP5 PUSH2 0x7345 JUMP JUMPDEST SWAP4 SWAP3 POP POP POP JUMP JUMPDEST PUSH32 0x4F6E6C7920696E69746961746F722063616E2063616E63656C00000000000000 PUSH0 DUP3 ADD MSTORE POP JUMP JUMPDEST PUSH0 PUSH2 0x969A PUSH1 0x19 DUP4 PUSH2 0x72B6 JUMP JUMPDEST SWAP2 POP PUSH2 0x96A5 DUP3 PUSH2 0x9666 JUMP JUMPDEST PUSH1 0x20 DUP3 ADD SWAP1 POP SWAP2 SWAP1 POP JUMP JUMPDEST PUSH0 PUSH1 0x20 DUP3 ADD SWAP1 POP DUP2 DUP2 SUB PUSH0 DUP4 ADD MSTORE PUSH2 0x96C7 DUP2 PUSH2 0x968E JUMP JUMPDEST SWAP1 POP SWAP2 SWAP1 POP JUMP JUMPDEST PUSH32 0x496E76616C69642070726F706F73616C207479706520666F722063616E63656C PUSH0 DUP3 ADD MSTORE PUSH32 0x6C6174696F6E0000000000000000000000000000000000000000000000000000 PUSH1 0x20 DUP3 ADD MSTORE POP JUMP JUMPDEST PUSH0 PUSH2 0x9728 PUSH1 0x26 DUP4 PUSH2 0x72B6 JUMP JUMPDEST SWAP2 POP PUSH2 0x9733 DUP3 PUSH2 0x96CE JUMP JUMPDEST PUSH1 0x40 DUP3 ADD SWAP1 POP SWAP2 SWAP1 POP JUMP JUMPDEST PUSH0 PUSH1 0x20 DUP3 ADD SWAP1 POP DUP2 DUP2 SUB PUSH0 DUP4 ADD MSTORE PUSH2 0x9755 DUP2 PUSH2 0x971C JUMP JUMPDEST SWAP1 POP SWAP2 SWAP1 POP JUMP JUMPDEST PUSH32 0x50726F706F73616C206E6F742079657420617070726F76656400000000000000 PUSH0 DUP3 ADD MSTORE POP JUMP JUMPDEST PUSH0 PUSH2 0x9790 PUSH1 0x19 DUP4 PUSH2 0x72B6 JUMP JUMPDEST SWAP2 POP PUSH2 0x979B DUP3 PUSH2 0x975C JUMP JUMPDEST PUSH1 0x20 DUP3 ADD SWAP1 POP SWAP2 SWAP1 POP JUMP JUMPDEST PUSH0 PUSH1 0x20 DUP3 ADD SWAP1 POP DUP2 DUP2 SUB PUSH0 DUP4 ADD MSTORE PUSH2 0x97BD DUP2 PUSH2 0x9784 JUMP JUMPDEST SWAP1 POP SWAP2 SWAP1 POP JUMP JUMPDEST PUSH32 0x43616E63656C6C6174696F6E2077696E646F7720636C6F736564000000000000 PUSH0 DUP3 ADD MSTORE POP JUMP JUMPDEST PUSH0 PUSH2 0x97F8 PUSH1 0x1A DUP4 PUSH2 0x72B6 JUMP JUMPDEST SWAP2 POP PUSH2 0x9803 DUP3 PUSH2 0x97C4 JUMP JUMPDEST PUSH1 0x20 DUP3 ADD SWAP1 POP SWAP2 SWAP1 POP JUMP JUMPDEST PUSH0 PUSH1 0x20 DUP3 ADD SWAP1 POP DUP2 DUP2 SUB PUSH0 DUP4 ADD MSTORE PUSH2 0x9825 DUP2 PUSH2 0x97EC JUMP JUMPDEST SWAP1 POP SWAP2 SWAP1 POP JUMP JUMPDEST PUSH32 0x416C726561647920656E6F75676820766F74657320746F20726573756D650000 PUSH0 DUP3 ADD MSTORE POP JUMP JUMPDEST PUSH0 PUSH2 0x9860 PUSH1 0x1E DUP4 PUSH2 0x72B6 JUMP JUMPDEST SWAP2 POP PUSH2 0x986B DUP3 PUSH2 0x982C JUMP JUMPDEST PUSH1 0x20 DUP3 ADD SWAP1 POP SWAP2 SWAP1 POP JUMP JUMPDEST PUSH0 PUSH1 0x20 DUP3 ADD SWAP1 POP DUP2 DUP2 SUB PUSH0 DUP4 ADD MSTORE PUSH2 0x988D DUP2 PUSH2 0x9854 JUMP JUMPDEST SWAP1 POP SWAP2 SWAP1 POP JUMP JUMPDEST PUSH0 DUP2 SLOAD PUSH2 0x98A0 DUP2 PUSH2 0x7954 JUMP JUMPDEST PUSH2 0x98AA DUP2 DUP7 PUSH2 0x72B6 JUMP JUMPDEST SWAP5 POP PUSH1 0x1 DUP3 AND PUSH0 DUP2 EQ PUSH2 0x98C4 JUMPI PUSH1 0x1 DUP2 EQ PUSH2 0x98DA JUMPI PUSH2 0x990C JUMP JUMPDEST PUSH1 0xFF NOT DUP4 AND DUP7 MSTORE DUP2 ISZERO ISZERO PUSH1 0x20 MUL DUP7 ADD SWAP4 POP PUSH2 0x990C JUMP JUMPDEST PUSH2 0x98E3 DUP6 PUSH2 0x7E82 JUMP JUMPDEST PUSH0 JUMPDEST DUP4 DUP2 LT ISZERO PUSH2 0x9904 JUMPI DUP2 SLOAD DUP2 DUP10 ADD MSTORE PUSH1 0x1 DUP3 ADD SWAP2 POP PUSH1 0x20 DUP2 ADD SWAP1 POP PUSH2 0x98E5 JUMP JUMPDEST DUP1 DUP9 ADD SWAP6 POP POP POP JUMPDEST POP POP POP SWAP3 SWAP2 POP POP JUMP JUMPDEST PUSH0 PUSH1 0x20 DUP3 ADD SWAP1 POP DUP2 DUP2 SUB PUSH0 DUP4 ADD MSTORE PUSH2 0x992D DUP2 DUP5 PUSH2 0x9894 JUMP JUMPDEST SWAP1 POP SWAP3 SWAP2 POP POP JUMP JUMPDEST PUSH2 0x993E DUP2 PUSH2 0x737E JUMP JUMPDEST DUP2 EQ PUSH2 0x9948 JUMPI PUSH0 PUSH0 REVERT JUMPDEST POP JUMP JUMPDEST PUSH0 DUP2 MLOAD SWAP1 POP PUSH2 0x9959 DUP2 PUSH2 0x9935 JUMP JUMPDEST SWAP3 SWAP2 POP POP JUMP JUMPDEST PUSH0 DUP2 PUSH1 0x2 SIGNEXTEND SWAP1 POP SWAP2 SWAP1 POP JUMP JUMPDEST PUSH2 0x9974 DUP2 PUSH2 0x995F JUMP JUMPDEST DUP2 EQ PUSH2 0x997E JUMPI PUSH0 PUSH0 REVERT JUMPDEST POP JUMP JUMPDEST PUSH0 DUP2 MLOAD SWAP1 POP PUSH2 0x998F DUP2 PUSH2 0x996B JUMP JUMPDEST SWAP3 SWAP2 POP POP JUMP JUMPDEST PUSH0 PUSH2 0xFFFF DUP3 AND SWAP1 POP SWAP2 SWAP1 POP JUMP JUMPDEST PUSH2 0x99AB DUP2 PUSH2 0x9995 JUMP JUMPDEST DUP2 EQ PUSH2 0x99B5 JUMPI PUSH0 PUSH0 REVERT JUMPDEST POP JUMP JUMPDEST PUSH0 DUP2 MLOAD SWAP1 POP PUSH2 0x99C6 DUP2 PUSH2 0x99A2 JUMP JUMPDEST SWAP3 SWAP2 POP POP JUMP JUMPDEST PUSH2 0x99D5 DUP2 PUSH2 0x757F JUMP JUMPDEST DUP2 EQ PUSH2 0x99DF JUMPI PUSH0 PUSH0 REVERT JUMPDEST POP JUMP JUMPDEST PUSH0 DUP2 MLOAD SWAP1 POP PUSH2 0x99F0 DUP2 PUSH2 0x99CC JUMP JUMPDEST SWAP3 SWAP2 POP POP JUMP JUMPDEST PUSH2 0x99FF DUP2 PUSH2 0x7440 JUMP JUMPDEST DUP2 EQ PUSH2 0x9A09 JUMPI PUSH0 PUSH0 REVERT JUMPDEST POP JUMP JUMPDEST PUSH0 DUP2 MLOAD SWAP1 POP PUSH2 0x9A1A DUP2 PUSH2 0x99F6 JUMP JUMPDEST SWAP3 SWAP2 POP POP JUMP JUMPDEST PUSH0 PUSH0 PUSH0 PUSH0 PUSH0 PUSH0 PUSH0 PUSH1 0xE0 DUP9 DUP11 SUB SLT ISZERO PUSH2 0x9A3B JUMPI PUSH2 0x9A3A PUSH2 0x7376 JUMP JUMPDEST JUMPDEST PUSH0 PUSH2 0x9A48 DUP11 DUP3 DUP12 ADD PUSH2 0x994B JUMP JUMPDEST SWAP8 POP POP PUSH1 0x20 PUSH2 0x9A59 DUP11 DUP3 DUP12 ADD PUSH2 0x9981 JUMP JUMPDEST SWAP7 POP POP PUSH1 0x40 PUSH2 0x9A6A DUP11 DUP3 DUP12 ADD PUSH2 0x99B8 JUMP JUMPDEST SWAP6 POP POP PUSH1 0x60 PUSH2 0x9A7B DUP11 DUP3 DUP12 ADD PUSH2 0x99B8 JUMP JUMPDEST SWAP5 POP POP PUSH1 0x80 PUSH2 0x9A8C DUP11 DUP3 DUP12 ADD PUSH2 0x99B8 JUMP JUMPDEST SWAP4 POP POP PUSH1 0xA0 PUSH2 0x9A9D DUP11 DUP3 DUP12 ADD PUSH2 0x99E2 JUMP JUMPDEST SWAP3 POP POP PUSH1 0xC0 PUSH2 0x9AAE DUP11 DUP3 DUP12 ADD PUSH2 0x9A0C JUMP JUMPDEST SWAP2 POP POP SWAP3 SWAP6 SWAP9 SWAP2 SWAP5 SWAP8 POP SWAP3 SWAP6 POP JUMP JUMPDEST PUSH0 DUP2 PUSH1 0x1 SHR SWAP1 POP SWAP2 SWAP1 POP JUMP JUMPDEST PUSH0 PUSH0 DUP3 SWAP2 POP DUP4 SWAP1 POP JUMPDEST PUSH1 0x1 DUP6 GT ISZERO PUSH2 0x9B12 JUMPI DUP1 DUP7 DIV DUP2 GT ISZERO PUSH2 0x9AEE JUMPI PUSH2 0x9AED PUSH2 0x7AE2 JUMP JUMPDEST JUMPDEST PUSH1 0x1 DUP6 AND ISZERO PUSH2 0x9AFD JUMPI DUP1 DUP3 MUL SWAP2 POP JUMPDEST DUP1 DUP2 MUL SWAP1 POP PUSH2 0x9B0B DUP6 PUSH2 0x9ABD JUMP JUMPDEST SWAP5 POP PUSH2 0x9AD2 JUMP JUMPDEST SWAP5 POP SWAP5 SWAP3 POP POP POP JUMP JUMPDEST PUSH0 DUP3 PUSH2 0x9B2A JUMPI PUSH1 0x1 SWAP1 POP PUSH2 0x9BE5 JUMP JUMPDEST DUP2 PUSH2 0x9B37 JUMPI PUSH0 SWAP1 POP PUSH2 0x9BE5 JUMP JUMPDEST DUP2 PUSH1 0x1 DUP2 EQ PUSH2 0x9B4D JUMPI PUSH1 0x2 DUP2 EQ PUSH2 0x9B57 JUMPI PUSH2 0x9B86 JUMP JUMPDEST PUSH1 0x1 SWAP2 POP POP PUSH2 0x9BE5 JUMP JUMPDEST PUSH1 0xFF DUP5 GT ISZERO PUSH2 0x9B69 JUMPI PUSH2 0x9B68 PUSH2 0x7AE2 JUMP JUMPDEST JUMPDEST DUP4 PUSH1 0x2 EXP SWAP2 POP DUP5 DUP3 GT ISZERO PUSH2 0x9B80 JUMPI PUSH2 0x9B7F PUSH2 0x7AE2 JUMP JUMPDEST JUMPDEST POP PUSH2 0x9BE5 JUMP JUMPDEST POP PUSH1 0x20 DUP4 LT PUSH2 0x133 DUP4 LT AND PUSH1 0x4E DUP5 LT PUSH1 0xB DUP5 LT AND OR ISZERO PUSH2 0x9BBB JUMPI DUP3 DUP3 EXP SWAP1 POP DUP4 DUP2 GT ISZERO PUSH2 0x9BB6 JUMPI PUSH2 0x9BB5 PUSH2 0x7AE2 JUMP JUMPDEST JUMPDEST PUSH2 0x9BE5 JUMP JUMPDEST PUSH2 0x9BC8 DUP5 DUP5 DUP5 PUSH1 0x1 PUSH2 0x9AC9 JUMP JUMPDEST SWAP3 POP SWAP1 POP DUP2 DUP5 DIV DUP2 GT ISZERO PUSH2 0x9BDF JUMPI PUSH2 0x9BDE PUSH2 0x7AE2 JUMP JUMPDEST JUMPDEST DUP2 DUP2 MUL SWAP1 POP JUMPDEST SWAP4 SWAP3 POP POP POP JUMP JUMPDEST PUSH0 PUSH2 0x9BF6 DUP3 PUSH2 0x733C JUMP JUMPDEST SWAP2 POP PUSH2 0x9C01 DUP4 PUSH2 0x757F JUMP JUMPDEST SWAP3 POP PUSH2 0x9C2E PUSH32 0xFFFFFFFFFFFFFFFFFFFFFFFFFFFFFFFFFFFFFFFFFFFFFFFFFFFFFFFFFFFFFFFF DUP5 DUP5 PUSH2 0x9B1B JUMP JUMPDEST SWAP1 POP SWAP3 SWAP2 POP POP JUMP JUMPDEST PUSH32 0x4E487B7100000000000000000000000000000000000000000000000000000000 PUSH0 MSTORE PUSH1 0x12 PUSH1 0x4 MSTORE PUSH1 0x24 PUSH0 REVERT JUMPDEST PUSH0 PUSH2 0x9C6D DUP3 PUSH2 0x733C JUMP JUMPDEST SWAP2 POP PUSH2 0x9C78 DUP4 PUSH2 0x733C JUMP JUMPDEST SWAP3 POP DUP3 PUSH2 0x9C88 JUMPI PUSH2 0x9C87 PUSH2 0x9C36 JUMP JUMPDEST JUMPDEST DUP3 DUP3 DIV SWAP1 POP SWAP3 SWAP2 POP POP JUMP JUMPDEST PUSH32 0x496E76616C696420726563656976657220616464726573730000000000000000 PUSH0 DUP3 ADD MSTORE POP JUMP JUMPDEST PUSH0 PUSH2 0x9CC7 PUSH1 0x18 DUP4 PUSH2 0x72B6 JUMP JUMPDEST SWAP2 POP PUSH2 0x9CD2 DUP3 PUSH2 0x9C93 JUMP JUMPDEST PUSH1 0x20 DUP3 ADD SWAP1 POP SWAP2 SWAP1 POP JUMP JUMPDEST PUSH0 PUSH1 0x20 DUP3 ADD SWAP1 POP DUP2 DUP2 SUB PUSH0 DUP4 ADD MSTORE PUSH2 0x9CF4 DUP2 PUSH2 0x9CBB JUMP JUMPDEST SWAP1 POP SWAP2 SWAP1 POP JUMP JUMPDEST PUSH32 0x5265656E7472616E637947756172643A207265656E7472616E742063616C6C00 PUSH0 DUP3 ADD MSTORE POP JUMP JUMPDEST PUSH0 PUSH2 0x9D2F PUSH1 0x1F DUP4 PUSH2 0x72B6 JUMP JUMPDEST SWAP2 POP PUSH2 0x9D3A DUP3 PUSH2 0x9CFB JUMP JUMPDEST PUSH1 0x20 DUP3 ADD SWAP1 POP SWAP2 SWAP1 POP JUMP JUMPDEST PUSH0 PUSH1 0x20 DUP3 ADD SWAP1 POP DUP2 DUP2 SUB PUSH0 DUP4 ADD MSTORE PUSH2 0x9D5C DUP2 PUSH2 0x9D23 JUMP JUMPDEST SWAP1 POP SWAP2 SWAP1 POP JUMP JUMPDEST PUSH0 PUSH1 0x60 DUP3 ADD SWAP1 POP PUSH2 0x9D76 PUSH0 DUP4 ADD DUP7 PUSH2 0x74DC JUMP JUMPDEST PUSH2 0x9D83 PUSH1 0x20 DUP4 ADD DUP6 PUSH2 0x7345 JUMP JUMPDEST PUSH2 0x9D90 PUSH1 0x40 DUP4 ADD DUP5 PUSH2 0x7345 JUMP JUMPDEST SWAP5 SWAP4 POP POP POP POP JUMP INVALID LOG2 PUSH5 0x6970667358 0x22 SLT KECCAK256 0xCC CODESIZE ADDRESS 0xA9 0x1F 0xE8 CREATE2 PUSH29 0x3279D58350EB697B24C690C28B33D2A5EE0676CA7999E1FB64736F6C63 NUMBER STOP ADDMOD 0x1E STOP CALLER "
		},
		"gasEstimates": {
			"creation": {
				"codeDepositCost": "8079600",
				"executionCost": "infinite",
				"totalCost": "infinite"
			},
			"external": {
				"DISTRIBUTION_AMOUNT()": "501",
				"DISTRIBUTION_INTERVAL()": "461",
				"EXCHANGE_RATE()": "482",
				"MIN_VOTES_FOR_MINT()": "457",
				"MIN_VOTES_FOR_USER_ACTIONS()": "459",
				"TOTAL_SUPPLY()": "2492",
				"TOTAL_VOTES_REQUIRED()": "481",
				"adjustTotalSupply()": "infinite",
				"allowance(address,address)": "infinite",
				"approve(address,uint256)": "infinite",
				"balanceOf(address)": "2918",
				"balanceOfUser(address)": "2983",
				"cancelProposal()": "infinite",
				"changeFreezeUser()": "infinite",
				"changeMint()": "infinite",
				"changeName()": "infinite",
				"changeTimestamp()": "2539",
				"changeUnfreezeUser()": "infinite",
				"changeVoters()": "infinite",
				"changeWhitelistAdd()": "infinite",
				"changeWhitelistRemove()": "infinite",
				"compliance()": "470",
				"contractPaused()": "2629",
				"decimals()": "406",
				"distributeToWhitelist()": "infinite",
				"exchange(uint256,address)": "infinite",
				"frozen(address)": "2988",
				"getCurrentPrice()": "infinite",
				"getFrozenTokens(address)": "709",
				"hasVoted(address)": "2902",
				"identityRegistry()": "514",
				"isFrozen(address)": "3025",
				"lastDistributionTimestamp()": "2582",
				"mintedAmount()": "2537",
				"name()": "infinite",
				"newProposedName()": "infinite",
				"onchainID()": "469",
				"owner()": "2671",
				"pauseContract()": "infinite",
				"pauseVoting()": "infinite",
				"paused()": "2657",
				"proposalActive()": "2555",
				"proposalInitiator()": "2620",
				"proposalType()": "infinite",
				"proposeAddToWhitelist(address)": "infinite",
				"proposeAdjustTotalSupply(int64)": "infinite",
				"proposeFreezeUser(address)": "infinite",
				"proposeMint(address,uint256)": "infinite",
				"proposeNewName(string)": "infinite",
				"proposeNewVoters(address[],address[])": "infinite",
				"proposeRemoveFromWhitelist(address)": "infinite",
				"proposeUnfreezeUser(address)": "infinite",
				"proposedAdjustmentAmount()": "2604",
				"proposedFreezeAction()": "infinite",
				"proposedFreezeUser()": "2643",
				"proposedMintAmount()": "2581",
				"proposedMintRecipient()": "2620",
				"proposedNewVoters(uint256)": "5034",
				"proposedOldVoters(uint256)": "5012",
				"proposedWhitelistAction()": "infinite",
				"proposedWhitelistMember()": "2641",
				"remainingSupply()": "infinite",
				"renounceOwnership()": "infinite",
				"resumeContract()": "infinite",
				"resumeVoting()": "infinite",
				"symbol()": "infinite",
				"tokenName()": "infinite",
				"totalSupply()": "2545",
				"totalSupplyAdjustmentTimestamp()": "2514",
				"transfer(address,uint256)": "infinite",
				"transferFrom(address,address,uint256)": "infinite",
				"transferOwnership(address)": "infinite",
				"uniswapPool()": "2575",
				"version()": "infinite",
				"vote()": "infinite",
				"voteCount()": "2558",
				"voters(uint256)": "5055",
				"votersChangeTimestamp()": "2582",
				"votingPaused()": "2651",
				"whitelist(address)": "2988",
				"whitelistMembers(uint256)": "5012"
			},
			"internal": {
				"_setName(string memory)": "infinite",
				"isVoter(address)": "infinite",
				"resetVotes()": "infinite"
			}
		},
		"methodIdentifiers": {
			"DISTRIBUTION_AMOUNT()": "ff8f164f",
			"DISTRIBUTION_INTERVAL()": "08b26b75",
			"EXCHANGE_RATE()": "14a8bd0d",
			"MIN_VOTES_FOR_MINT()": "f36e32cc",
			"MIN_VOTES_FOR_USER_ACTIONS()": "2de56555",
			"TOTAL_SUPPLY()": "902d55a5",
			"TOTAL_VOTES_REQUIRED()": "302c464a",
			"adjustTotalSupply()": "7094741d",
			"allowance(address,address)": "dd62ed3e",
			"approve(address,uint256)": "095ea7b3",
			"balanceOf(address)": "70a08231",
			"balanceOfUser(address)": "12cae7af",
			"cancelProposal()": "9070577f",
			"changeFreezeUser()": "4784bbed",
			"changeMint()": "eeb79d40",
			"changeName()": "d9a7430e",
			"changeTimestamp()": "0811a0cf",
			"changeUnfreezeUser()": "3c9edeb2",
			"changeVoters()": "45f4d2a5",
			"changeWhitelistAdd()": "b0a9f28d",
			"changeWhitelistRemove()": "53030455",
			"compliance()": "6290865d",
			"contractPaused()": "8a67456a",
			"decimals()": "313ce567",
			"distributeToWhitelist()": "80e79a36",
			"exchange(uint256,address)": "0fe2abcf",
			"frozen(address)": "d0516650",
			"getCurrentPrice()": "eb91d37e",
			"getFrozenTokens(address)": "158b1a57",
			"hasVoted(address)": "09eef43e",
			"identityRegistry()": "134e18f4",
			"isFrozen(address)": "e5839836",
			"lastDistributionTimestamp()": "20950933",
			"mintedAmount()": "2d380242",
			"name()": "06fdde03",
			"newProposedName()": "4bc27b3c",
			"onchainID()": "aba63705",
			"owner()": "8da5cb5b",
			"pauseContract()": "439766ce",
			"pauseVoting()": "f3cdcd1e",
			"paused()": "5c975abb",
			"proposalActive()": "583007bd",
			"proposalInitiator()": "ae3877e0",
			"proposalType()": "351d9f96",
			"proposeAddToWhitelist(address)": "37d428eb",
			"proposeAdjustTotalSupply(int64)": "4bb91587",
			"proposeFreezeUser(address)": "58105210",
			"proposeMint(address,uint256)": "15d4c5d5",
			"proposeNewName(string)": "60b8594d",
			"proposeNewVoters(address[],address[])": "5fc6e6e6",
			"proposeRemoveFromWhitelist(address)": "19a5ecd5",
			"proposeUnfreezeUser(address)": "3f99075b",
			"proposedAdjustmentAmount()": "8cdeefbd",
			"proposedFreezeAction()": "06854b2c",
			"proposedFreezeUser()": "697199c5",
			"proposedMintAmount()": "48a33082",
			"proposedMintRecipient()": "501d6b57",
			"proposedNewVoters(uint256)": "884fa57b",
			"proposedOldVoters(uint256)": "850ae8a3",
			"proposedWhitelistAction()": "5aa15e6b",
			"proposedWhitelistMember()": "96f66144",
			"remainingSupply()": "da0239a6",
			"renounceOwnership()": "715018a6",
			"resumeContract()": "c4bc5da5",
			"resumeVoting()": "7afdf93e",
			"symbol()": "95d89b41",
			"tokenName()": "6c02a931",
			"totalSupply()": "18160ddd",
			"totalSupplyAdjustmentTimestamp()": "c20a25b5",
			"transfer(address,uint256)": "a9059cbb",
			"transferFrom(address,address,uint256)": "23b872dd",
			"transferOwnership(address)": "f2fde38b",
			"uniswapPool()": "bdd3d825",
			"version()": "54fd4d50",
			"vote()": "632a9a52",
			"voteCount()": "c6384071",
			"voters(uint256)": "da58c7d9",
			"votersChangeTimestamp()": "3cf37361",
			"votingPaused()": "ae66c9ea",
			"whitelist(address)": "9b19251a",
			"whitelistMembers(uint256)": "2202cbfa"
		}
	},
	"abi": [
		{
			"inputs": [
				{
					"internalType": "string",
					"name": "initialName",
					"type": "string"
				},
				{
					"internalType": "address[]",
					"name": "_whitelist",
					"type": "address[]"
				},
				{
					"internalType": "address[]",
					"name": "_voters",
					"type": "address[]"
				}
			],
			"stateMutability": "nonpayable",
			"type": "constructor"
		},
		{
			"inputs": [
				{
					"internalType": "address",
					"name": "spender",
					"type": "address"
				},
				{
					"internalType": "uint256",
					"name": "allowance",
					"type": "uint256"
				},
				{
					"internalType": "uint256",
					"name": "needed",
					"type": "uint256"
				}
			],
			"name": "ERC20InsufficientAllowance",
			"type": "error"
		},
		{
			"inputs": [
				{
					"internalType": "address",
					"name": "sender",
					"type": "address"
				},
				{
					"internalType": "uint256",
					"name": "balance",
					"type": "uint256"
				},
				{
					"internalType": "uint256",
					"name": "needed",
					"type": "uint256"
				}
			],
			"name": "ERC20InsufficientBalance",
			"type": "error"
		},
		{
			"inputs": [
				{
					"internalType": "address",
					"name": "approver",
					"type": "address"
				}
			],
			"name": "ERC20InvalidApprover",
			"type": "error"
		},
		{
			"inputs": [
				{
					"internalType": "address",
					"name": "receiver",
					"type": "address"
				}
			],
			"name": "ERC20InvalidReceiver",
			"type": "error"
		},
		{
			"inputs": [
				{
					"internalType": "address",
					"name": "sender",
					"type": "address"
				}
			],
			"name": "ERC20InvalidSender",
			"type": "error"
		},
		{
			"inputs": [
				{
					"internalType": "address",
					"name": "spender",
					"type": "address"
				}
			],
			"name": "ERC20InvalidSpender",
			"type": "error"
		},
		{
			"inputs": [
				{
					"internalType": "address",
					"name": "owner",
					"type": "address"
				}
			],
			"name": "OwnableInvalidOwner",
			"type": "error"
		},
		{
			"inputs": [
				{
					"internalType": "address",
					"name": "account",
					"type": "address"
				}
			],
			"name": "OwnableUnauthorizedAccount",
			"type": "error"
		},
		{
			"anonymous": false,
			"inputs": [
				{
					"indexed": false,
					"internalType": "int64",
					"name": "amount",
					"type": "int64"
				},
				{
					"indexed": false,
					"internalType": "address",
					"name": "initiator",
					"type": "address"
				}
			],
			"name": "AdjustTotalSupplyProposalCreated",
			"type": "event"
		},
		{
			"anonymous": false,
			"inputs": [
				{
					"indexed": true,
					"internalType": "address",
					"name": "owner",
					"type": "address"
				},
				{
					"indexed": true,
					"internalType": "address",
					"name": "spender",
					"type": "address"
				},
				{
					"indexed": false,
					"internalType": "uint256",
					"name": "value",
					"type": "uint256"
				}
			],
			"name": "Approval",
			"type": "event"
		},
		{
			"anonymous": false,
			"inputs": [],
			"name": "ContractPaused",
			"type": "event"
		},
		{
			"anonymous": false,
			"inputs": [],
			"name": "ContractResumed",
			"type": "event"
		},
		{
			"anonymous": false,
			"inputs": [
				{
					"indexed": false,
					"internalType": "string",
					"name": "message",
					"type": "string"
				},
				{
					"indexed": false,
					"internalType": "uint256",
					"name": "value",
					"type": "uint256"
				}
			],
			"name": "Debug",
			"type": "event"
		},
		{
			"anonymous": false,
			"inputs": [
				{
					"indexed": true,
					"internalType": "address",
					"name": "user",
					"type": "address"
				},
				{
					"indexed": false,
					"internalType": "uint256",
					"name": "inputAmount",
					"type": "uint256"
				},
				{
					"indexed": false,
					"internalType": "uint256",
					"name": "cckAmount",
					"type": "uint256"
				},
				{
					"indexed": true,
					"internalType": "address",
					"name": "targetAddress",
					"type": "address"
				}
			],
			"name": "Exchange",
			"type": "event"
		},
		{
			"anonymous": false,
			"inputs": [
				{
					"indexed": false,
					"internalType": "address",
					"name": "user",
					"type": "address"
				},
				{
					"indexed": false,
					"internalType": "string",
					"name": "action",
					"type": "string"
				}
			],
			"name": "FreezeChanged",
			"type": "event"
		},
		{
			"anonymous": false,
			"inputs": [
				{
					"indexed": false,
					"internalType": "address",
					"name": "user",
					"type": "address"
				},
				{
					"indexed": false,
					"internalType": "string",
					"name": "action",
					"type": "string"
				}
			],
			"name": "FreezeProposalCreated",
			"type": "event"
		},
		{
			"anonymous": false,
			"inputs": [
				{
					"indexed": false,
					"internalType": "address",
					"name": "to",
					"type": "address"
				},
				{
					"indexed": false,
					"internalType": "uint256",
					"name": "amount",
					"type": "uint256"
				}
			],
			"name": "MintExecuted",
			"type": "event"
		},
		{
			"anonymous": false,
			"inputs": [
				{
					"indexed": false,
					"internalType": "address",
					"name": "to",
					"type": "address"
				},
				{
					"indexed": false,
					"internalType": "uint256",
					"name": "amount",
					"type": "uint256"
				}
			],
			"name": "MintProposalCreated",
			"type": "event"
		},
		{
			"anonymous": false,
			"inputs": [
				{
					"indexed": false,
					"internalType": "string",
					"name": "newName",
					"type": "string"
				}
			],
			"name": "NameChanged",
			"type": "event"
		},
		{
			"anonymous": false,
			"inputs": [
				{
					"indexed": false,
					"internalType": "string",
					"name": "newName",
					"type": "string"
				},
				{
					"indexed": false,
					"internalType": "address",
					"name": "initiator",
					"type": "address"
				}
			],
			"name": "NameProposalCreated",
			"type": "event"
		},
		{
			"anonymous": false,
			"inputs": [
				{
					"indexed": true,
					"internalType": "address",
					"name": "previousOwner",
					"type": "address"
				},
				{
					"indexed": true,
					"internalType": "address",
					"name": "newOwner",
					"type": "address"
				}
			],
			"name": "OwnershipTransferred",
			"type": "event"
		},
		{
			"anonymous": false,
			"inputs": [
				{
					"indexed": false,
					"internalType": "string",
					"name": "proposalType",
					"type": "string"
				},
				{
					"indexed": false,
					"internalType": "address",
					"name": "initiator",
					"type": "address"
				}
			],
			"name": "ProposalCancelled",
			"type": "event"
		},
		{
			"anonymous": false,
			"inputs": [
				{
					"indexed": false,
					"internalType": "uint256",
					"name": "newTotalSupply",
					"type": "uint256"
				}
			],
			"name": "TotalSupplyAdjusted",
			"type": "event"
		},
		{
			"anonymous": false,
			"inputs": [
				{
					"indexed": true,
					"internalType": "address",
					"name": "from",
					"type": "address"
				},
				{
					"indexed": true,
					"internalType": "address",
					"name": "to",
					"type": "address"
				},
				{
					"indexed": false,
					"internalType": "uint256",
					"name": "value",
					"type": "uint256"
				}
			],
			"name": "Transfer",
			"type": "event"
		},
		{
			"anonymous": false,
			"inputs": [
				{
					"indexed": false,
					"internalType": "address[]",
					"name": "oldVoters",
					"type": "address[]"
				},
				{
					"indexed": false,
					"internalType": "address[]",
					"name": "newVoters",
					"type": "address[]"
				}
			],
			"name": "VotersChanged",
			"type": "event"
		},
		{
			"anonymous": false,
			"inputs": [
				{
					"indexed": false,
					"internalType": "address[]",
					"name": "oldVoters",
					"type": "address[]"
				},
				{
					"indexed": false,
					"internalType": "address[]",
					"name": "newVoters",
					"type": "address[]"
				},
				{
					"indexed": false,
					"internalType": "address",
					"name": "initiator",
					"type": "address"
				}
			],
			"name": "VotersProposalCreated",
			"type": "event"
		},
		{
			"anonymous": false,
			"inputs": [],
			"name": "VotingPaused",
			"type": "event"
		},
		{
			"anonymous": false,
			"inputs": [],
			"name": "VotingResumed",
			"type": "event"
		},
		{
			"anonymous": false,
			"inputs": [
				{
					"indexed": false,
					"internalType": "address",
					"name": "member",
					"type": "address"
				},
				{
					"indexed": false,
					"internalType": "string",
					"name": "action",
					"type": "string"
				}
			],
			"name": "WhitelistChanged",
			"type": "event"
		},
		{
			"anonymous": false,
			"inputs": [
				{
					"indexed": false,
					"internalType": "address[]",
					"name": "recipients",
					"type": "address[]"
				},
				{
					"indexed": false,
					"internalType": "uint256",
					"name": "amount",
					"type": "uint256"
				}
			],
			"name": "WhitelistDistribution",
			"type": "event"
		},
		{
			"anonymous": false,
			"inputs": [
				{
					"indexed": false,
					"internalType": "address",
					"name": "member",
					"type": "address"
				},
				{
					"indexed": false,
					"internalType": "string",
					"name": "action",
					"type": "string"
				}
			],
			"name": "WhitelistProposalCreated",
			"type": "event"
		},
		{
			"inputs": [],
			"name": "DISTRIBUTION_AMOUNT",
			"outputs": [
				{
					"internalType": "uint256",
					"name": "",
					"type": "uint256"
				}
			],
			"stateMutability": "view",
			"type": "function"
		},
		{
			"inputs": [],
			"name": "DISTRIBUTION_INTERVAL",
			"outputs": [
				{
					"internalType": "uint256",
					"name": "",
					"type": "uint256"
				}
			],
			"stateMutability": "view",
			"type": "function"
		},
		{
			"inputs": [],
			"name": "EXCHANGE_RATE",
			"outputs": [
				{
					"internalType": "uint256",
					"name": "",
					"type": "uint256"
				}
			],
			"stateMutability": "view",
			"type": "function"
		},
		{
			"inputs": [],
			"name": "MIN_VOTES_FOR_MINT",
			"outputs": [
				{
					"internalType": "uint256",
					"name": "",
					"type": "uint256"
				}
			],
			"stateMutability": "view",
			"type": "function"
		},
		{
			"inputs": [],
			"name": "MIN_VOTES_FOR_USER_ACTIONS",
			"outputs": [
				{
					"internalType": "uint256",
					"name": "",
					"type": "uint256"
				}
			],
			"stateMutability": "view",
			"type": "function"
		},
		{
			"inputs": [],
			"name": "TOTAL_SUPPLY",
			"outputs": [
				{
					"internalType": "uint256",
					"name": "",
					"type": "uint256"
				}
			],
			"stateMutability": "view",
			"type": "function"
		},
		{
			"inputs": [],
			"name": "TOTAL_VOTES_REQUIRED",
			"outputs": [
				{
					"internalType": "uint256",
					"name": "",
					"type": "uint256"
				}
			],
			"stateMutability": "view",
			"type": "function"
		},
		{
			"inputs": [],
			"name": "adjustTotalSupply",
			"outputs": [],
			"stateMutability": "nonpayable",
			"type": "function"
		},
		{
			"inputs": [
				{
					"internalType": "address",
					"name": "owner",
					"type": "address"
				},
				{
					"internalType": "address",
					"name": "spender",
					"type": "address"
				}
			],
			"name": "allowance",
			"outputs": [
				{
					"internalType": "uint256",
					"name": "",
					"type": "uint256"
				}
			],
			"stateMutability": "view",
			"type": "function"
		},
		{
			"inputs": [
				{
					"internalType": "address",
					"name": "spender",
					"type": "address"
				},
				{
					"internalType": "uint256",
					"name": "value",
					"type": "uint256"
				}
			],
			"name": "approve",
			"outputs": [
				{
					"internalType": "bool",
					"name": "",
					"type": "bool"
				}
			],
			"stateMutability": "nonpayable",
			"type": "function"
		},
		{
			"inputs": [
				{
					"internalType": "address",
					"name": "account",
					"type": "address"
				}
			],
			"name": "balanceOf",
			"outputs": [
				{
					"internalType": "uint256",
					"name": "",
					"type": "uint256"
				}
			],
			"stateMutability": "view",
			"type": "function"
		},
		{
			"inputs": [
				{
					"internalType": "address",
					"name": "user",
					"type": "address"
				}
			],
			"name": "balanceOfUser",
			"outputs": [
				{
					"internalType": "uint256",
					"name": "",
					"type": "uint256"
				}
			],
			"stateMutability": "view",
			"type": "function"
		},
		{
			"inputs": [],
			"name": "cancelProposal",
			"outputs": [],
			"stateMutability": "nonpayable",
			"type": "function"
		},
		{
			"inputs": [],
			"name": "changeFreezeUser",
			"outputs": [],
			"stateMutability": "nonpayable",
			"type": "function"
		},
		{
			"inputs": [],
			"name": "changeMint",
			"outputs": [],
			"stateMutability": "nonpayable",
			"type": "function"
		},
		{
			"inputs": [],
			"name": "changeName",
			"outputs": [],
			"stateMutability": "nonpayable",
			"type": "function"
		},
		{
			"inputs": [],
			"name": "changeTimestamp",
			"outputs": [
				{
					"internalType": "uint256",
					"name": "",
					"type": "uint256"
				}
			],
			"stateMutability": "view",
			"type": "function"
		},
		{
			"inputs": [],
			"name": "changeUnfreezeUser",
			"outputs": [],
			"stateMutability": "nonpayable",
			"type": "function"
		},
		{
			"inputs": [],
			"name": "changeVoters",
			"outputs": [],
			"stateMutability": "nonpayable",
			"type": "function"
		},
		{
			"inputs": [],
			"name": "changeWhitelistAdd",
			"outputs": [],
			"stateMutability": "nonpayable",
			"type": "function"
		},
		{
			"inputs": [],
			"name": "changeWhitelistRemove",
			"outputs": [],
			"stateMutability": "nonpayable",
			"type": "function"
		},
		{
			"inputs": [],
			"name": "compliance",
			"outputs": [
				{
					"internalType": "address",
					"name": "",
					"type": "address"
				}
			],
			"stateMutability": "view",
			"type": "function"
		},
		{
			"inputs": [],
			"name": "contractPaused",
			"outputs": [
				{
					"internalType": "bool",
					"name": "",
					"type": "bool"
				}
			],
			"stateMutability": "view",
			"type": "function"
		},
		{
			"inputs": [],
			"name": "decimals",
			"outputs": [
				{
					"internalType": "uint8",
					"name": "",
					"type": "uint8"
				}
			],
			"stateMutability": "view",
			"type": "function"
		},
		{
			"inputs": [],
			"name": "distributeToWhitelist",
			"outputs": [],
			"stateMutability": "nonpayable",
			"type": "function"
		},
		{
			"inputs": [
				{
					"internalType": "uint256",
					"name": "inputAmount",
					"type": "uint256"
				},
				{
					"internalType": "address",
					"name": "targetAddress",
					"type": "address"
				}
			],
			"name": "exchange",
			"outputs": [],
			"stateMutability": "nonpayable",
			"type": "function"
		},
		{
			"inputs": [
				{
					"internalType": "address",
					"name": "",
					"type": "address"
				}
			],
			"name": "frozen",
			"outputs": [
				{
					"internalType": "bool",
					"name": "",
					"type": "bool"
				}
			],
			"stateMutability": "view",
			"type": "function"
		},
		{
			"inputs": [],
			"name": "getCurrentPrice",
			"outputs": [
				{
					"internalType": "uint256",
					"name": "",
					"type": "uint256"
				}
			],
			"stateMutability": "view",
			"type": "function"
		},
		{
			"inputs": [
				{
					"internalType": "address",
					"name": "userAddress",
					"type": "address"
				}
			],
			"name": "getFrozenTokens",
			"outputs": [
				{
					"internalType": "uint256",
					"name": "",
					"type": "uint256"
				}
			],
			"stateMutability": "view",
			"type": "function"
		},
		{
			"inputs": [
				{
					"internalType": "address",
					"name": "",
					"type": "address"
				}
			],
			"name": "hasVoted",
			"outputs": [
				{
					"internalType": "bool",
					"name": "",
					"type": "bool"
				}
			],
			"stateMutability": "view",
			"type": "function"
		},
		{
			"inputs": [],
			"name": "identityRegistry",
			"outputs": [
				{
					"internalType": "address",
					"name": "",
					"type": "address"
				}
			],
			"stateMutability": "view",
			"type": "function"
		},
		{
			"inputs": [
				{
					"internalType": "address",
					"name": "userAddress",
					"type": "address"
				}
			],
			"name": "isFrozen",
			"outputs": [
				{
					"internalType": "bool",
					"name": "",
					"type": "bool"
				}
			],
			"stateMutability": "view",
			"type": "function"
		},
		{
			"inputs": [],
			"name": "lastDistributionTimestamp",
			"outputs": [
				{
					"internalType": "uint256",
					"name": "",
					"type": "uint256"
				}
			],
			"stateMutability": "view",
			"type": "function"
		},
		{
			"inputs": [],
			"name": "mintedAmount",
			"outputs": [
				{
					"internalType": "uint256",
					"name": "",
					"type": "uint256"
				}
			],
			"stateMutability": "view",
			"type": "function"
		},
		{
			"inputs": [],
			"name": "name",
			"outputs": [
				{
					"internalType": "string",
					"name": "",
					"type": "string"
				}
			],
			"stateMutability": "view",
			"type": "function"
		},
		{
			"inputs": [],
			"name": "newProposedName",
			"outputs": [
				{
					"internalType": "string",
					"name": "",
					"type": "string"
				}
			],
			"stateMutability": "view",
			"type": "function"
		},
		{
			"inputs": [],
			"name": "onchainID",
			"outputs": [
				{
					"internalType": "address",
					"name": "",
					"type": "address"
				}
			],
			"stateMutability": "view",
			"type": "function"
		},
		{
			"inputs": [],
			"name": "owner",
			"outputs": [
				{
					"internalType": "address",
					"name": "",
					"type": "address"
				}
			],
			"stateMutability": "view",
			"type": "function"
		},
		{
			"inputs": [],
			"name": "pauseContract",
			"outputs": [],
			"stateMutability": "nonpayable",
			"type": "function"
		},
		{
			"inputs": [],
			"name": "pauseVoting",
			"outputs": [],
			"stateMutability": "nonpayable",
			"type": "function"
		},
		{
			"inputs": [],
			"name": "paused",
			"outputs": [
				{
					"internalType": "bool",
					"name": "",
					"type": "bool"
				}
			],
			"stateMutability": "view",
			"type": "function"
		},
		{
			"inputs": [],
			"name": "proposalActive",
			"outputs": [
				{
					"internalType": "bool",
					"name": "",
					"type": "bool"
				}
			],
			"stateMutability": "view",
			"type": "function"
		},
		{
			"inputs": [],
			"name": "proposalInitiator",
			"outputs": [
				{
					"internalType": "address",
					"name": "",
					"type": "address"
				}
			],
			"stateMutability": "view",
			"type": "function"
		},
		{
			"inputs": [],
			"name": "proposalType",
			"outputs": [
				{
					"internalType": "string",
					"name": "",
					"type": "string"
				}
			],
			"stateMutability": "view",
			"type": "function"
		},
		{
			"inputs": [
				{
					"internalType": "address",
					"name": "member",
					"type": "address"
				}
			],
			"name": "proposeAddToWhitelist",
			"outputs": [],
			"stateMutability": "nonpayable",
			"type": "function"
		},
		{
			"inputs": [
				{
					"internalType": "int64",
					"name": "amount",
					"type": "int64"
				}
			],
			"name": "proposeAdjustTotalSupply",
			"outputs": [],
			"stateMutability": "nonpayable",
			"type": "function"
		},
		{
			"inputs": [
				{
					"internalType": "address",
					"name": "user",
					"type": "address"
				}
			],
			"name": "proposeFreezeUser",
			"outputs": [],
			"stateMutability": "nonpayable",
			"type": "function"
		},
		{
			"inputs": [
				{
					"internalType": "address",
					"name": "to",
					"type": "address"
				},
				{
					"internalType": "uint256",
					"name": "amount",
					"type": "uint256"
				}
			],
			"name": "proposeMint",
			"outputs": [],
			"stateMutability": "nonpayable",
			"type": "function"
		},
		{
			"inputs": [
				{
					"internalType": "string",
					"name": "newName",
					"type": "string"
				}
			],
			"name": "proposeNewName",
			"outputs": [],
			"stateMutability": "nonpayable",
			"type": "function"
		},
		{
			"inputs": [
				{
					"internalType": "address[]",
					"name": "_oldVoters",
					"type": "address[]"
				},
				{
					"internalType": "address[]",
					"name": "_newVoters",
					"type": "address[]"
				}
			],
			"name": "proposeNewVoters",
			"outputs": [],
			"stateMutability": "nonpayable",
			"type": "function"
		},
		{
			"inputs": [
				{
					"internalType": "address",
					"name": "member",
					"type": "address"
				}
			],
			"name": "proposeRemoveFromWhitelist",
			"outputs": [],
			"stateMutability": "nonpayable",
			"type": "function"
		},
		{
			"inputs": [
				{
					"internalType": "address",
					"name": "user",
					"type": "address"
				}
			],
			"name": "proposeUnfreezeUser",
			"outputs": [],
			"stateMutability": "nonpayable",
			"type": "function"
		},
		{
			"inputs": [],
			"name": "proposedAdjustmentAmount",
			"outputs": [
				{
					"internalType": "int64",
					"name": "",
					"type": "int64"
				}
			],
			"stateMutability": "view",
			"type": "function"
		},
		{
			"inputs": [],
			"name": "proposedFreezeAction",
			"outputs": [
				{
					"internalType": "string",
					"name": "",
					"type": "string"
				}
			],
			"stateMutability": "view",
			"type": "function"
		},
		{
			"inputs": [],
			"name": "proposedFreezeUser",
			"outputs": [
				{
					"internalType": "address",
					"name": "",
					"type": "address"
				}
			],
			"stateMutability": "view",
			"type": "function"
		},
		{
			"inputs": [],
			"name": "proposedMintAmount",
			"outputs": [
				{
					"internalType": "uint256",
					"name": "",
					"type": "uint256"
				}
			],
			"stateMutability": "view",
			"type": "function"
		},
		{
			"inputs": [],
			"name": "proposedMintRecipient",
			"outputs": [
				{
					"internalType": "address",
					"name": "",
					"type": "address"
				}
			],
			"stateMutability": "view",
			"type": "function"
		},
		{
			"inputs": [
				{
					"internalType": "uint256",
					"name": "",
					"type": "uint256"
				}
			],
			"name": "proposedNewVoters",
			"outputs": [
				{
					"internalType": "address",
					"name": "",
					"type": "address"
				}
			],
			"stateMutability": "view",
			"type": "function"
		},
		{
			"inputs": [
				{
					"internalType": "uint256",
					"name": "",
					"type": "uint256"
				}
			],
			"name": "proposedOldVoters",
			"outputs": [
				{
					"internalType": "address",
					"name": "",
					"type": "address"
				}
			],
			"stateMutability": "view",
			"type": "function"
		},
		{
			"inputs": [],
			"name": "proposedWhitelistAction",
			"outputs": [
				{
					"internalType": "string",
					"name": "",
					"type": "string"
				}
			],
			"stateMutability": "view",
			"type": "function"
		},
		{
			"inputs": [],
			"name": "proposedWhitelistMember",
			"outputs": [
				{
					"internalType": "address",
					"name": "",
					"type": "address"
				}
			],
			"stateMutability": "view",
			"type": "function"
		},
		{
			"inputs": [],
			"name": "remainingSupply",
			"outputs": [
				{
					"internalType": "uint256",
					"name": "",
					"type": "uint256"
				}
			],
			"stateMutability": "view",
			"type": "function"
		},
		{
			"inputs": [],
			"name": "renounceOwnership",
			"outputs": [],
			"stateMutability": "nonpayable",
			"type": "function"
		},
		{
			"inputs": [],
			"name": "resumeContract",
			"outputs": [],
			"stateMutability": "nonpayable",
			"type": "function"
		},
		{
			"inputs": [],
			"name": "resumeVoting",
			"outputs": [],
			"stateMutability": "nonpayable",
			"type": "function"
		},
		{
			"inputs": [],
			"name": "symbol",
			"outputs": [
				{
					"internalType": "string",
					"name": "",
					"type": "string"
				}
			],
			"stateMutability": "view",
			"type": "function"
		},
		{
			"inputs": [],
			"name": "tokenName",
			"outputs": [
				{
					"internalType": "string",
					"name": "",
					"type": "string"
				}
			],
			"stateMutability": "view",
			"type": "function"
		},
		{
			"inputs": [],
			"name": "totalSupply",
			"outputs": [
				{
					"internalType": "uint256",
					"name": "",
					"type": "uint256"
				}
			],
			"stateMutability": "view",
			"type": "function"
		},
		{
			"inputs": [],
			"name": "totalSupplyAdjustmentTimestamp",
			"outputs": [
				{
					"internalType": "uint256",
					"name": "",
					"type": "uint256"
				}
			],
			"stateMutability": "view",
			"type": "function"
		},
		{
			"inputs": [
				{
					"internalType": "address",
					"name": "to",
					"type": "address"
				},
				{
					"internalType": "uint256",
					"name": "amount",
					"type": "uint256"
				}
			],
			"name": "transfer",
			"outputs": [
				{
					"internalType": "bool",
					"name": "",
					"type": "bool"
				}
			],
			"stateMutability": "nonpayable",
			"type": "function"
		},
		{
			"inputs": [
				{
					"internalType": "address",
					"name": "sender",
					"type": "address"
				},
				{
					"internalType": "address",
					"name": "recipient",
					"type": "address"
				},
				{
					"internalType": "uint256",
					"name": "amount",
					"type": "uint256"
				}
			],
			"name": "transferFrom",
			"outputs": [
				{
					"internalType": "bool",
					"name": "",
					"type": "bool"
				}
			],
			"stateMutability": "nonpayable",
			"type": "function"
		},
		{
			"inputs": [
				{
					"internalType": "address",
					"name": "newOwner",
					"type": "address"
				}
			],
			"name": "transferOwnership",
			"outputs": [],
			"stateMutability": "nonpayable",
			"type": "function"
		},
		{
			"inputs": [],
			"name": "uniswapPool",
			"outputs": [
				{
					"internalType": "address",
					"name": "",
					"type": "address"
				}
			],
			"stateMutability": "view",
			"type": "function"
		},
		{
			"inputs": [],
			"name": "version",
			"outputs": [
				{
					"internalType": "string",
					"name": "",
					"type": "string"
				}
			],
			"stateMutability": "view",
			"type": "function"
		},
		{
			"inputs": [],
			"name": "vote",
			"outputs": [],
			"stateMutability": "nonpayable",
			"type": "function"
		},
		{
			"inputs": [],
			"name": "voteCount",
			"outputs": [
				{
					"internalType": "uint256",
					"name": "",
					"type": "uint256"
				}
			],
			"stateMutability": "view",
			"type": "function"
		},
		{
			"inputs": [
				{
					"internalType": "uint256",
					"name": "",
					"type": "uint256"
				}
			],
			"name": "voters",
			"outputs": [
				{
					"internalType": "address",
					"name": "",
					"type": "address"
				}
			],
			"stateMutability": "view",
			"type": "function"
		},
		{
			"inputs": [],
			"name": "votersChangeTimestamp",
			"outputs": [
				{
					"internalType": "uint256",
					"name": "",
					"type": "uint256"
				}
			],
			"stateMutability": "view",
			"type": "function"
		},
		{
			"inputs": [],
			"name": "votingPaused",
			"outputs": [
				{
					"internalType": "bool",
					"name": "",
					"type": "bool"
				}
			],
			"stateMutability": "view",
			"type": "function"
		},
		{
			"inputs": [
				{
					"internalType": "address",
					"name": "",
					"type": "address"
				}
			],
			"name": "whitelist",
			"outputs": [
				{
					"internalType": "bool",
					"name": "",
					"type": "bool"
				}
			],
			"stateMutability": "view",
			"type": "function"
		},
		{
			"inputs": [
				{
					"internalType": "uint256",
					"name": "",
					"type": "uint256"
				}
			],
			"name": "whitelistMembers",
			"outputs": [
				{
					"internalType": "address",
					"name": "",
					"type": "address"
				}
			],
			"stateMutability": "view",
			"type": "function"
		}
	]
}