{
	"data": {
		"bytecode": {
			"linkReferences": {},
			"object": "60806040526969e10de76676d080000060065534801561001d575f5ffd5b5060405161a35738038061a357833981810160405281019061003f919061075d565b33846040518060400160405280600881526020017f43434b546f6b656e00000000000000000000000000000000000000000000000081525081600390816100869190610a25565b5080600490816100969190610a25565b5050505f73ffffffffffffffffffffffffffffffffffffffff168173ffffffffffffffffffffffffffffffffffffffff1603610109575f6040517f1e4fbdf70000000000000000000000000000000000000000000000000000000081526004016101009190610b03565b60405180910390fd5b6101188161038d60201b60201c565b505f83511161015c576040517f08c379a000000000000000000000000000000000000000000000000000000000815260040161015390610b9c565b60405180910390fd5b5f82511161019f576040517f08c379a000000000000000000000000000000000000000000000000000000000815260040161019690610c04565b60405180910390fd5b5f5f90505b83518110156102a357600160075f8684815181106101c5576101c4610c22565b5b602002602001015173ffffffffffffffffffffffffffffffffffffffff1673ffffffffffffffffffffffffffffffffffffffff1681526020019081526020015f205f6101000a81548160ff021916908315150217905550600884828151811061023157610230610c22565b5b6020026020010151908060018154018082558091505060019003905f5260205f20015f9091909190916101000a81548173ffffffffffffffffffffffffffffffffffffffff021916908373ffffffffffffffffffffffffffffffffffffffff16021790555080806001019150506101a4565b5081600d90805190602001906102ba929190610450565b505f60105f6101000a81548160ff0219169083151502179055505f600f819055505f601060016101000a81548160ff0219169083151502179055505f601060026101000a81548160ff02191690831515021790555080600a5f6101000a81548173ffffffffffffffffffffffffffffffffffffffff021916908373ffffffffffffffffffffffffffffffffffffffff16021790555083600c908161035e9190610a25565b5060405180602001604052805f8152506011908161037c9190610a25565b504260208190555050505050610c4f565b5f60055f9054906101000a900473ffffffffffffffffffffffffffffffffffffffff1690508160055f6101000a81548173ffffffffffffffffffffffffffffffffffffffff021916908373ffffffffffffffffffffffffffffffffffffffff1602179055508173ffffffffffffffffffffffffffffffffffffffff168173ffffffffffffffffffffffffffffffffffffffff167f8be0079c531659141344cd1fd0a4f28419497f9722a3daafe3b4186f6b6457e060405160405180910390a35050565b828054828255905f5260205f209081019282156104c6579160200282015b828111156104c5578251825f6101000a81548173ffffffffffffffffffffffffffffffffffffffff021916908373ffffffffffffffffffffffffffffffffffffffff1602179055509160200191906001019061046e565b5b5090506104d391906104d7565b5090565b5b808211156104ee575f815f9055506001016104d8565b5090565b5f604051905090565b5f5ffd5b5f5ffd5b5f5ffd5b5f5ffd5b5f601f19601f8301169050919050565b7f4e487b71000000000000000000000000000000000000000000000000000000005f52604160045260245ffd5b6105518261050b565b810181811067ffffffffffffffff821117156105705761056f61051b565b5b80604052505050565b5f6105826104f2565b905061058e8282610548565b919050565b5f67ffffffffffffffff8211156105ad576105ac61051b565b5b6105b68261050b565b9050602081019050919050565b8281835e5f83830152505050565b5f6105e36105de84610593565b610579565b9050828152602081018484840111156105ff576105fe610507565b5b61060a8482856105c3565b509392505050565b5f82601f83011261062657610625610503565b5b81516106368482602086016105d1565b91505092915050565b5f67ffffffffffffffff8211156106595761065861051b565b5b602082029050602081019050919050565b5f5ffd5b5f73ffffffffffffffffffffffffffffffffffffffff82169050919050565b5f6106978261066e565b9050919050565b6106a78161068d565b81146106b1575f5ffd5b50565b5f815190506106c28161069e565b92915050565b5f6106da6106d58461063f565b610579565b905080838252602082019050602084028301858111156106fd576106fc61066a565b5b835b81811015610726578061071288826106b4565b8452602084019350506020810190506106ff565b5050509392505050565b5f82601f83011261074457610743610503565b5b81516107548482602086016106c8565b91505092915050565b5f5f5f5f60808587031215610775576107746104fb565b5b5f85015167ffffffffffffffff811115610792576107916104ff565b5b61079e87828801610612565b945050602085015167ffffffffffffffff8111156107bf576107be6104ff565b5b6107cb87828801610730565b935050604085015167ffffffffffffffff8111156107ec576107eb6104ff565b5b6107f887828801610730565b9250506060610809878288016106b4565b91505092959194509250565b5f81519050919050565b7f4e487b71000000000000000000000000000000000000000000000000000000005f52602260045260245ffd5b5f600282049050600182168061086357607f821691505b6020821081036108765761087561081f565b5b50919050565b5f819050815f5260205f209050919050565b5f6020601f8301049050919050565b5f82821b905092915050565b5f600883026108d87fffffffffffffffffffffffffffffffffffffffffffffffffffffffffffffffff8261089d565b6108e2868361089d565b95508019841693508086168417925050509392505050565b5f819050919050565b5f819050919050565b5f61092661092161091c846108fa565b610903565b6108fa565b9050919050565b5f819050919050565b61093f8361090c565b61095361094b8261092d565b8484546108a9565b825550505050565b5f5f905090565b61096a61095b565b610975818484610936565b505050565b5b818110156109985761098d5f82610962565b60018101905061097b565b5050565b601f8211156109dd576109ae8161087c565b6109b78461088e565b810160208510156109c6578190505b6109da6109d28561088e565b83018261097a565b50505b505050565b5f82821c905092915050565b5f6109fd5f19846008026109e2565b1980831691505092915050565b5f610a1583836109ee565b9150826002028217905092915050565b610a2e82610815565b67ffffffffffffffff811115610a4757610a4661051b565b5b610a51825461084c565b610a5c82828561099c565b5f60209050601f831160018114610a8d575f8415610a7b578287015190505b610a858582610a0a565b865550610aec565b601f198416610a9b8661087c565b5f5b82811015610ac257848901518255600182019150602085019450602081019050610a9d565b86831015610adf5784890151610adb601f8916826109ee565b8355505b6001600288020188555050505b505050505050565b610afd8161068d565b82525050565b5f602082019050610b165f830184610af4565b92915050565b5f82825260208201905092915050565b7f4174206c65617374206f6e652077686974656c697374656420616464726573735f8201527f2072657175697265640000000000000000000000000000000000000000000000602082015250565b5f610b86602983610b1c565b9150610b9182610b2c565b604082019050919050565b5f6020820190508181035f830152610bb381610b7a565b9050919050565b7f4174206c65617374206f6e6520766f74657220726571756972656400000000005f82015250565b5f610bee601b83610b1c565b9150610bf982610bba565b602082019050919050565b5f6020820190508181035f830152610c1b81610be2565b9050919050565b7f4e487b71000000000000000000000000000000000000000000000000000000005f52603260045260245ffd5b6196fb80610c5c5f395ff3fe608060405234801561000f575f5ffd5b5060043610610473575f3560e01c80636290865d11610255578063aba6370511610144578063da0239a6116100c1578063eeb79d4011610085578063eeb79d4014610d09578063f2fde38b14610d13578063f36e32cc14610d2f578063f3cdcd1e14610d4d578063ff8f164f14610d5757610473565b8063da0239a614610c3d578063da58c7d914610c5b578063dd62ed3e14610c8b578063e583983614610cbb578063eb91d37e14610ceb57610473565b8063c20a25b511610108578063c20a25b514610bbd578063c4bc5da514610bdb578063c638407114610be5578063d051665014610c03578063d9a7430e14610c3357610473565b8063aba6370514610b3b578063ae3877e014610b59578063ae66c9ea14610b77578063b0a9f28d14610b95578063bdd3d82514610b9f57610473565b8063884fa57b116101d25780639070577f116101965780639070577f14610a9557806395d89b4114610a9f57806396f6614414610abd5780639b19251a14610adb578063a9059cbb14610b0b57610473565b8063884fa57b146109ed5780638a67456a14610a1d5780638cdeefbd14610a3b5780638da5cb5b14610a59578063902d55a514610a7757610473565b806370a082311161021957806370a082311461096f578063715018a61461099f5780637afdf93e146109a957806380e79a36146109b3578063850ae8a3146109bd57610473565b80636290865d14610901578063632a9a521461091f578063697199c5146109295780636c02a931146109475780637094741d1461096557610473565b8063351d9f96116103715780634bc27b3c116102ee578063583007bd116102b2578063583007bd1461086f5780635aa15e6b1461088d5780635c975abb146108ab5780635fc6e6e6146108c957806360b8594d146108e557610473565b80634bc27b3c146107ef578063501d6b571461080d578063530304551461082b57806354fd4d5014610835578063581052101461085357610473565b8063439766ce11610335578063439766ce1461079757806345f4d2a5146107a15780634784bbed146107ab57806348a33082146107b55780634bb91587146107d357610473565b8063351d9f961461071957806337d428eb146107375780633c9edeb2146107535780633cf373611461075d5780633f99075b1461077b57610473565b806315d4c5d5116103ff57806323b872dd116103c357806323b872dd146106715780632d380242146106a15780632de56555146106bf578063302c464a146106dd578063313ce567146106fb57610473565b806315d4c5d5146105cd57806318160ddd146105e957806319a5ecd51461060757806320950933146106235780632202cbfa1461064157610473565b8063095ea7b311610446578063095ea7b3146104ef57806309eef43e1461051f57806312cae7af1461054f578063134e18f41461057f578063158b1a571461059d57610473565b806306854b2c1461047757806306fdde03146104955780630811a0cf146104b357806308b26b75146104d1575b5f5ffd5b61047f610d75565b60405161048c9190616fed565b60405180910390f35b61049d610e01565b6040516104aa9190616fed565b60405180910390f35b6104bb610e91565b6040516104c89190617025565b60405180910390f35b6104d9610e97565b6040516104e69190617025565b60405180910390f35b610509600480360381019061050491906170d3565b610e9d565b604051610516919061712b565b60405180910390f35b61053960048036038101906105349190617144565b610ebf565b604051610546919061712b565b60405180910390f35b61056960048036038101906105649190617144565b610edc565b6040516105769190617025565b60405180910390f35b610587610eed565b604051610594919061717e565b60405180910390f35b6105b760048036038101906105b29190617144565b610ef4565b6040516105c49190617025565b60405180910390f35b6105e760048036038101906105e291906170d3565b610efd565b005b6105f1611261565b6040516105fe9190617025565b60405180910390f35b610621600480360381019061061c9190617144565b61126a565b005b61062b611507565b6040516106389190617025565b60405180910390f35b61065b60048036038101906106569190617197565b61150d565b604051610668919061717e565b60405180910390f35b61068b600480360381019061068691906171c2565b611548565b604051610698919061712b565b60405180910390f35b6106a961168b565b6040516106b69190617025565b60405180910390f35b6106c7611691565b6040516106d49190617025565b60405180910390f35b6106e5611696565b6040516106f29190617025565b60405180910390f35b61070361169b565b604051610710919061722d565b60405180910390f35b6107216116a2565b60405161072e9190616fed565b60405180910390f35b610751600480360381019061074c9190617144565b61172e565b005b61075b611a3a565b005b610765611e1b565b6040516107729190617025565b60405180910390f35b61079560048036038101906107909190617144565b611e21565b005b61079f6120be565b005b6107a96121f3565b005b6107b3612926565b005b6107bd612d09565b6040516107ca9190617025565b60405180910390f35b6107ed60048036038101906107e8919061727c565b612d0f565b005b6107f7612ff8565b6040516108049190616fed565b60405180910390f35b610815613084565b604051610822919061717e565b60405180910390f35b6108336130a9565b005b61083d613628565b60405161084a9190616fed565b60405180910390f35b61086d60048036038101906108689190617144565b613665565b005b610877613971565b604051610884919061712b565b60405180910390f35b610895613983565b6040516108a29190616fed565b60405180910390f35b6108b3613a0f565b6040516108c0919061712b565b60405180910390f35b6108e360048036038101906108de91906173e7565b613a25565b005b6108ff60048036038101906108fa919061750d565b613ee1565b005b6109096140c2565b604051610916919061717e565b60405180910390f35b6109276140c9565b005b6109316144f4565b60405161093e919061717e565b60405180910390f35b61094f614519565b60405161095c9190616fed565b60405180910390f35b61096d6145a5565b005b61098960048036038101906109849190617144565b61484f565b6040516109969190617025565b60405180910390f35b6109a7614894565b005b6109b16148a7565b005b6109bb6148f7565b005b6109d760048036038101906109d29190617197565b614ccf565b6040516109e4919061717e565b60405180910390f35b610a076004803603810190610a029190617197565b614d0a565b604051610a14919061717e565b60405180910390f35b610a25614d45565b604051610a32919061712b565b60405180910390f35b610a43614d58565b604051610a509190617563565b60405180910390f35b610a61614d6a565b604051610a6e919061717e565b60405180910390f35b610a7f614d92565b604051610a8c9190617025565b60405180910390f35b610a9d614d98565b005b610aa761537d565b604051610ab49190616fed565b60405180910390f35b610ac561540d565b604051610ad2919061717e565b60405180910390f35b610af56004803603810190610af09190617144565b615432565b604051610b02919061712b565b60405180910390f35b610b256004803603810190610b2091906170d3565b61544f565b604051610b32919061712b565b60405180910390f35b610b43615590565b604051610b50919061717e565b60405180910390f35b610b61615597565b604051610b6e919061717e565b60405180910390f35b610b7f6155bc565b604051610b8c919061712b565b60405180910390f35b610b9d6155cf565b005b610ba7615a33565b604051610bb4919061717e565b60405180910390f35b610bc5615a58565b604051610bd29190617025565b60405180910390f35b610be3615a5e565b005b610bed615b92565b604051610bfa9190617025565b60405180910390f35b610c1d6004803603810190610c189190617144565b615b98565b604051610c2a919061712b565b60405180910390f35b610c3b615bb5565b005b610c45615ebf565b604051610c529190617025565b60405180910390f35b610c756004803603810190610c709190617197565b615ed5565b604051610c82919061717e565b60405180910390f35b610ca56004803603810190610ca0919061757c565b615f10565b604051610cb29190617025565b60405180910390f35b610cd56004803603810190610cd09190617144565b615f92565b604051610ce2919061712b565b60405180910390f35b610cf3615fe4565b604051610d009190617025565b60405180910390f35b610d116160e8565b005b610d2d6004803603810190610d289190617144565b616497565b005b610d3761651b565b604051610d449190617025565b60405180910390f35b610d55616520565b005b610d5f616571565b604051610d6c9190617025565b60405180910390f35b601d8054610d82906175e7565b80601f0160208091040260200160405190810160405280929190818152602001828054610dae906175e7565b8015610df95780601f10610dd057610100808354040283529160200191610df9565b820191905f5260205f20905b815481529060010190602001808311610ddc57829003601f168201915b505050505081565b6060600c8054610e10906175e7565b80601f0160208091040260200160405190810160405280929190818152602001828054610e3c906175e7565b8015610e875780601f10610e5e57610100808354040283529160200191610e87565b820191905f5260205f20905b815481529060010190602001808311610e6a57829003601f168201915b5050505050905090565b60135481565b61012c81565b5f5f610ea761657d565b9050610eb4818585616584565b600191505092915050565b600e602052805f5260405f205f915054906101000a900460ff1681565b5f610ee68261484f565b9050919050565b5f5f905090565b5f5f9050919050565b610f0633616596565b610f45576040517f08c379a0000000000000000000000000000000000000000000000000000000008152600401610f3c90617661565b60405180910390fd5b601060029054906101000a900460ff1615610f95576040517f08c379a0000000000000000000000000000000000000000000000000000000008152600401610f8c906176c9565b60405180910390fd5b60105f9054906101000a900460ff1615610fe4576040517f08c379a0000000000000000000000000000000000000000000000000000000008152600401610fdb90617731565b60405180910390fd5b60075f8373ffffffffffffffffffffffffffffffffffffffff1673ffffffffffffffffffffffffffffffffffffffff1681526020019081526020015f205f9054906101000a900460ff1661106d576040517f08c379a000000000000000000000000000000000000000000000000000000000815260040161106490617799565b60405180910390fd5b5f73ffffffffffffffffffffffffffffffffffffffff168273ffffffffffffffffffffffffffffffffffffffff16036110db576040517f08c379a00000000000000000000000000000000000000000000000000000000081526004016110d290617801565b60405180910390fd5b5f811161111d576040517f08c379a000000000000000000000000000000000000000000000000000000000815260040161111490617869565b60405180910390fd5b60065481600b5461112e91906178b4565b111561116f576040517f08c379a000000000000000000000000000000000000000000000000000000000815260040161116690617931565b60405180910390fd5b611177616638565b5f600f8190555081601e5f6101000a81548173ffffffffffffffffffffffffffffffffffffffff021916908373ffffffffffffffffffffffffffffffffffffffff16021790555080601f81905550600160105f6101000a81548160ff0219169083151502179055506040518060400160405280600481526020017f6d696e7400000000000000000000000000000000000000000000000000000000815250601190816112239190617aef565b507f0116c43c83acf6cd8597ce110e50b139e8c85a1544440913be14f9043a2443618282604051611255929190617bbe565b60405180910390a15050565b5f600254905090565b61127333616596565b6112b2576040517f08c379a00000000000000000000000000000000000000000000000000000000081526004016112a990617661565b60405180910390fd5b601060029054906101000a900460ff1615611302576040517f08c379a00000000000000000000000000000000000000000000000000000000081526004016112f9906176c9565b60405180910390fd5b60105f9054906101000a900460ff1615611351576040517f08c379a000000000000000000000000000000000000000000000000000000000815260040161134890617731565b60405180910390fd5b60075f8273ffffffffffffffffffffffffffffffffffffffff1673ffffffffffffffffffffffffffffffffffffffff1681526020019081526020015f205f9054906101000a900460ff166113da576040517f08c379a00000000000000000000000000000000000000000000000000000000081526004016113d190617c2f565b60405180910390fd5b6113e2616638565b5f600f8190555080601a5f6101000a81548173ffffffffffffffffffffffffffffffffffffffff021916908373ffffffffffffffffffffffffffffffffffffffff1602179055506040518060400160405280600681526020017f72656d6f76650000000000000000000000000000000000000000000000000000815250601b908161146d9190617aef565b50600160105f6101000a81548160ff0219169083151502179055506040518060400160405280601081526020017f77686974656c6973745f72656d6f766500000000000000000000000000000000815250601190816114cc9190617aef565b507fc645160bca8c10087405a6bada7a56c33d99bc539c2a803d599e21cb6d4fa4ce816040516114fc9190617c97565b60405180910390a150565b60205481565b6008818154811061151c575f80fd5b905f5260205f20015f915054906101000a900473ffffffffffffffffffffffffffffffffffffffff1681565b5f601060029054906101000a900460ff1615611599576040517f08c379a0000000000000000000000000000000000000000000000000000000008152600401611590906176c9565b60405180910390fd5b60095f8573ffffffffffffffffffffffffffffffffffffffff1673ffffffffffffffffffffffffffffffffffffffff1681526020019081526020015f205f9054906101000a900460ff1615611623576040517f08c379a000000000000000000000000000000000000000000000000000000000815260040161161a90617d0d565b60405180910390fd5b816fffffffffffffffffffffffffffffffff168214611677576040517f08c379a000000000000000000000000000000000000000000000000000000000815260040161166e90617d75565b60405180910390fd5b6116828484846166e9565b90509392505050565b600b5481565b600381565b600581565b5f5f905090565b601180546116af906175e7565b80601f01602080910402602001604051908101604052809291908181526020018280546116db906175e7565b80156117265780601f106116fd57610100808354040283529160200191611726565b820191905f5260205f20905b81548152906001019060200180831161170957829003601f168201915b505050505081565b61173733616596565b611776576040517f08c379a000000000000000000000000000000000000000000000000000000000815260040161176d90617661565b60405180910390fd5b601060029054906101000a900460ff16156117c6576040517f08c379a00000000000000000000000000000000000000000000000000000000081526004016117bd906176c9565b60405180910390fd5b60105f9054906101000a900460ff1615611815576040517f08c379a000000000000000000000000000000000000000000000000000000000815260040161180c90617731565b60405180910390fd5b5f73ffffffffffffffffffffffffffffffffffffffff168173ffffffffffffffffffffffffffffffffffffffff1603611883576040517f08c379a000000000000000000000000000000000000000000000000000000000815260040161187a90617ddd565b60405180910390fd5b60075f8273ffffffffffffffffffffffffffffffffffffffff1673ffffffffffffffffffffffffffffffffffffffff1681526020019081526020015f205f9054906101000a900460ff161561190d576040517f08c379a000000000000000000000000000000000000000000000000000000000815260040161190490617e45565b60405180910390fd5b611915616638565b5f600f8190555080601a5f6101000a81548173ffffffffffffffffffffffffffffffffffffffff021916908373ffffffffffffffffffffffffffffffffffffffff1602179055506040518060400160405280600381526020017f6164640000000000000000000000000000000000000000000000000000000000815250601b90816119a09190617aef565b50600160105f6101000a81548160ff0219169083151502179055506040518060400160405280600d81526020017f77686974656c6973745f61646400000000000000000000000000000000000000815250601190816119ff9190617aef565b507fc645160bca8c10087405a6bada7a56c33d99bc539c2a803d599e21cb6d4fa4ce81604051611a2f9190617ead565b60405180910390a150565b601060029054906101000a900460ff1615611a8a576040517f08c379a0000000000000000000000000000000000000000000000000000000008152600401611a81906176c9565b60405180910390fd5b60105f9054906101000a900460ff16611ad8576040517f08c379a0000000000000000000000000000000000000000000000000000000008152600401611acf90617f23565b60405180910390fd5b604051602001611ae790617f95565b604051602081830303815290604052805190602001206011604051602001611b0f9190618029565b6040516020818303038152906040528051906020012014611b65576040517f08c379a0000000000000000000000000000000000000000000000000000000008152600401611b5c90618089565b60405180910390fd5b6003600f541015611bab576040517f08c379a0000000000000000000000000000000000000000000000000000000008152600401611ba2906180f1565b60405180910390fd5b5f73ffffffffffffffffffffffffffffffffffffffff16601c5f9054906101000a900473ffffffffffffffffffffffffffffffffffffffff1673ffffffffffffffffffffffffffffffffffffffff1603611c3a576040517f08c379a0000000000000000000000000000000000000000000000000000000008152600401611c3190618159565b60405180910390fd5b60095f601c5f9054906101000a900473ffffffffffffffffffffffffffffffffffffffff1673ffffffffffffffffffffffffffffffffffffffff1673ffffffffffffffffffffffffffffffffffffffff1681526020019081526020015f205f9054906101000a900460ff16611ce4576040517f08c379a0000000000000000000000000000000000000000000000000000000008152600401611cdb906181c1565b60405180910390fd5b5f60095f601c5f9054906101000a900473ffffffffffffffffffffffffffffffffffffffff1673ffffffffffffffffffffffffffffffffffffffff1673ffffffffffffffffffffffffffffffffffffffff1681526020019081526020015f205f6101000a81548160ff0219169083151502179055505f60105f6101000a81548160ff02191690831515021790555060405180602001604052805f81525060119081611d8f9190617aef565b507f8f0390b9db2ebda5d3b655d41da7f064f9cda04183d9f8981ba63d951d0b9a44601c5f9054906101000a900473ffffffffffffffffffffffffffffffffffffffff16604051611de09190618201565b60405180910390a1601c5f6101000a81549073ffffffffffffffffffffffffffffffffffffffff0219169055601d5f611e199190616e80565b565b60195481565b611e2a33616596565b611e69576040517f08c379a0000000000000000000000000000000000000000000000000000000008152600401611e6090617661565b60405180910390fd5b601060029054906101000a900460ff1615611eb9576040517f08c379a0000000000000000000000000000000000000000000000000000000008152600401611eb0906176c9565b60405180910390fd5b60105f9054906101000a900460ff1615611f08576040517f08c379a0000000000000000000000000000000000000000000000000000000008152600401611eff90617731565b60405180910390fd5b60095f8273ffffffffffffffffffffffffffffffffffffffff1673ffffffffffffffffffffffffffffffffffffffff1681526020019081526020015f205f9054906101000a900460ff16611f91576040517f08c379a0000000000000000000000000000000000000000000000000000000008152600401611f88906181c1565b60405180910390fd5b611f99616638565b5f600f8190555080601c5f6101000a81548173ffffffffffffffffffffffffffffffffffffffff021916908373ffffffffffffffffffffffffffffffffffffffff1602179055506040518060400160405280600881526020017f756e667265657a65000000000000000000000000000000000000000000000000815250601d90816120249190617aef565b50600160105f6101000a81548160ff0219169083151502179055506040518060400160405280600881526020017f756e667265657a65000000000000000000000000000000000000000000000000815250601190816120839190617aef565b507f25c4e8317dc171f3714dca5948d811428a109c026192134ad8978a6b3623a387816040516120b39190618201565b60405180910390a150565b6120c733616596565b612106576040517f08c379a00000000000000000000000000000000000000000000000000000000081526004016120fd90617661565b60405180910390fd5b601060029054906101000a900460ff1615612156576040517f08c379a000000000000000000000000000000000000000000000000000000000815260040161214d906176c9565b60405180910390fd5b6005600f541061219b576040517f08c379a000000000000000000000000000000000000000000000000000000000815260040161219290618277565b60405180910390fd5b6121a3616638565b5f600f819055506001601060026101000a81548160ff0219169083151502179055507fab35696f06e428ebc5ceba8cd17f8fed287baf43440206d1943af1ee53e6d26760405160405180910390a1565b601060029054906101000a900460ff1615612243576040517f08c379a000000000000000000000000000000000000000000000000000000000815260040161223a906176c9565b60405180910390fd5b60105f9054906101000a900460ff16612291576040517f08c379a000000000000000000000000000000000000000000000000000000000815260040161228890617f23565b60405180910390fd5b6040516020016122a0906182df565b6040516020818303038152906040528051906020012060116040516020016122c89190618029565b604051602081830303815290604052805190602001201461231e576040517f08c379a000000000000000000000000000000000000000000000000000000000815260040161231590618089565b60405180910390fd5b601954421015612363576040517f08c379a000000000000000000000000000000000000000000000000000000000815260040161235a9061833d565b60405180910390fd5b6005600f5410156123a9576040517f08c379a00000000000000000000000000000000000000000000000000000000081526004016123a0906180f1565b60405180910390fd5b5f601780549050116123f0576040517f08c379a00000000000000000000000000000000000000000000000000000000081526004016123e7906183a5565b60405180910390fd5b5f5f90505b6017805490508110156126cf5761244660178281548110612419576124186183c3565b5b905f5260205f20015f9054906101000a900473ffffffffffffffffffffffffffffffffffffffff16616596565b612485576040517f08c379a000000000000000000000000000000000000000000000000000000000815260040161247c9061843a565b60405180910390fd5b5f73ffffffffffffffffffffffffffffffffffffffff16601882815481106124b0576124af6183c3565b5b905f5260205f20015f9054906101000a900473ffffffffffffffffffffffffffffffffffffffff1673ffffffffffffffffffffffffffffffffffffffff160361252e576040517f08c379a0000000000000000000000000000000000000000000000000000000008152600401612525906184a2565b60405180910390fd5b61257260188281548110612545576125446183c3565b5b905f5260205f20015f9054906101000a900473ffffffffffffffffffffffffffffffffffffffff16616596565b156125b2576040517f08c379a00000000000000000000000000000000000000000000000000000000081526004016125a99061850a565b60405180910390fd5b5f6001826125c091906178b4565b90505b6018805490508110156126c157601881815481106125e4576125e36183c3565b5b905f5260205f20015f9054906101000a900473ffffffffffffffffffffffffffffffffffffffff1673ffffffffffffffffffffffffffffffffffffffff1660188381548110612636576126356183c3565b5b905f5260205f20015f9054906101000a900473ffffffffffffffffffffffffffffffffffffffff1673ffffffffffffffffffffffffffffffffffffffff16036126b4576040517f08c379a00000000000000000000000000000000000000000000000000000000081526004016126ab90618572565b60405180910390fd5b80806001019150506125c3565b5080806001019150506123f5565b505f5f90505b601780549050811015612852575f5f90505b600d805490508110156128445760178281548110612708576127076183c3565b5b905f5260205f20015f9054906101000a900473ffffffffffffffffffffffffffffffffffffffff1673ffffffffffffffffffffffffffffffffffffffff16600d828154811061275a576127596183c3565b5b905f5260205f20015f9054906101000a900473ffffffffffffffffffffffffffffffffffffffff1673ffffffffffffffffffffffffffffffffffffffff160361283757601882815481106127b1576127b06183c3565b5b905f5260205f20015f9054906101000a900473ffffffffffffffffffffffffffffffffffffffff16600d82815481106127ed576127ec6183c3565b5b905f5260205f20015f6101000a81548173ffffffffffffffffffffffffffffffffffffffff021916908373ffffffffffffffffffffffffffffffffffffffff160217905550612844565b80806001019150506126e7565b5080806001019150506126d5565b505f60105f6101000a81548160ff02191690831515021790555060405180602001604052805f815250601190816128899190617aef565b505f60125f6101000a81548173ffffffffffffffffffffffffffffffffffffffff021916908373ffffffffffffffffffffffffffffffffffffffff1602179055507f765616ca75e38e63dcc130430614a01fa91bfe57744073b30bf8f4ba8fa31ffc601760186040516128fd9291906186a6565b60405180910390a160175f6129129190616ebd565b60185f61291f9190616ebd565b60195f9055565b601060029054906101000a900460ff1615612976576040517f08c379a000000000000000000000000000000000000000000000000000000000815260040161296d906176c9565b60405180910390fd5b60105f9054906101000a900460ff166129c4576040517f08c379a00000000000000000000000000000000000000000000000000000000081526004016129bb90617f23565b60405180910390fd5b6040516020016129d390618725565b6040516020818303038152906040528051906020012060116040516020016129fb9190618029565b6040516020818303038152906040528051906020012014612a51576040517f08c379a0000000000000000000000000000000000000000000000000000000008152600401612a4890618089565b60405180910390fd5b6003600f541015612a97576040517f08c379a0000000000000000000000000000000000000000000000000000000008152600401612a8e906180f1565b60405180910390fd5b5f73ffffffffffffffffffffffffffffffffffffffff16601c5f9054906101000a900473ffffffffffffffffffffffffffffffffffffffff1673ffffffffffffffffffffffffffffffffffffffff1603612b26576040517f08c379a0000000000000000000000000000000000000000000000000000000008152600401612b1d90618159565b60405180910390fd5b60095f601c5f9054906101000a900473ffffffffffffffffffffffffffffffffffffffff1673ffffffffffffffffffffffffffffffffffffffff1673ffffffffffffffffffffffffffffffffffffffff1681526020019081526020015f205f9054906101000a900460ff1615612bd1576040517f08c379a0000000000000000000000000000000000000000000000000000000008152600401612bc890618783565b60405180910390fd5b600160095f601c5f9054906101000a900473ffffffffffffffffffffffffffffffffffffffff1673ffffffffffffffffffffffffffffffffffffffff1673ffffffffffffffffffffffffffffffffffffffff1681526020019081526020015f205f6101000a81548160ff0219169083151502179055505f60105f6101000a81548160ff02191690831515021790555060405180602001604052805f81525060119081612c7d9190617aef565b507f8f0390b9db2ebda5d3b655d41da7f064f9cda04183d9f8981ba63d951d0b9a44601c5f9054906101000a900473ffffffffffffffffffffffffffffffffffffffff16604051612cce91906187c3565b60405180910390a1601c5f6101000a81549073ffffffffffffffffffffffffffffffffffffffff0219169055601d5f612d079190616e80565b565b601f5481565b612d1833616596565b612d57576040517f08c379a0000000000000000000000000000000000000000000000000000000008152600401612d4e90617661565b60405180910390fd5b601060029054906101000a900460ff1615612da7576040517f08c379a0000000000000000000000000000000000000000000000000000000008152600401612d9e906176c9565b60405180910390fd5b60105f9054906101000a900460ff1615612df6576040517f08c379a0000000000000000000000000000000000000000000000000000000008152600401612ded90617731565b60405180910390fd5b5f8160070b03612e3b576040517f08c379a0000000000000000000000000000000000000000000000000000000008152600401612e329061885f565b60405180910390fd5b600b548160070b600654612e4f9190618886565b1215612e90576040517f08c379a0000000000000000000000000000000000000000000000000000000008152600401612e8790618937565b60405180910390fd5b5f8160070b600654612ea29190618886565b1215612ee3576040517f08c379a0000000000000000000000000000000000000000000000000000000008152600401612eda9061899f565b60405180910390fd5b612eeb616638565b5f600f819055508060155f6101000a81548167ffffffffffffffff021916908360070b67ffffffffffffffff160217905550600160105f6101000a81548160ff0219169083151502179055506040518060400160405280601181526020017f61646a757374546f74616c537570706c7900000000000000000000000000000081525060119081612f7b9190617aef565b503360125f6101000a81548173ffffffffffffffffffffffffffffffffffffffff021916908373ffffffffffffffffffffffffffffffffffffffff1602179055507fd2f48a8ba1a2294122838a160554dc0dde0e0c57003527e53ffc207863953d3b8133604051612fed9291906189bd565b60405180910390a150565b60148054613005906175e7565b80601f0160208091040260200160405190810160405280929190818152602001828054613031906175e7565b801561307c5780601f106130535761010080835404028352916020019161307c565b820191905f5260205f20905b81548152906001019060200180831161305f57829003601f168201915b505050505081565b601e5f9054906101000a900473ffffffffffffffffffffffffffffffffffffffff1681565b601060029054906101000a900460ff16156130f9576040517f08c379a00000000000000000000000000000000000000000000000000000000081526004016130f0906176c9565b60405180910390fd5b60105f9054906101000a900460ff16613147576040517f08c379a000000000000000000000000000000000000000000000000000000000815260040161313e90617f23565b60405180910390fd5b60405160200161315690618a2e565b60405160208183030381529060405280519060200120601160405160200161317e9190618029565b60405160208183030381529060405280519060200120146131d4576040517f08c379a00000000000000000000000000000000000000000000000000000000081526004016131cb90618089565b60405180910390fd5b6003600f54101561321a576040517f08c379a0000000000000000000000000000000000000000000000000000000008152600401613211906180f1565b60405180910390fd5b5f73ffffffffffffffffffffffffffffffffffffffff16601a5f9054906101000a900473ffffffffffffffffffffffffffffffffffffffff1673ffffffffffffffffffffffffffffffffffffffff16036132a9576040517f08c379a00000000000000000000000000000000000000000000000000000000081526004016132a090618a8c565b60405180910390fd5b60075f601a5f9054906101000a900473ffffffffffffffffffffffffffffffffffffffff1673ffffffffffffffffffffffffffffffffffffffff1673ffffffffffffffffffffffffffffffffffffffff1681526020019081526020015f205f9054906101000a900460ff16613353576040517f08c379a000000000000000000000000000000000000000000000000000000000815260040161334a90617c2f565b60405180910390fd5b5f60075f601a5f9054906101000a900473ffffffffffffffffffffffffffffffffffffffff1673ffffffffffffffffffffffffffffffffffffffff1673ffffffffffffffffffffffffffffffffffffffff1681526020019081526020015f205f6101000a81548160ff0219169083151502179055505f5f90505b60088054905081101561356557601a5f9054906101000a900473ffffffffffffffffffffffffffffffffffffffff1673ffffffffffffffffffffffffffffffffffffffff1660088281548110613426576134256183c3565b5b905f5260205f20015f9054906101000a900473ffffffffffffffffffffffffffffffffffffffff1673ffffffffffffffffffffffffffffffffffffffff1603613558576008600160088054905061347d9190618aaa565b8154811061348e5761348d6183c3565b5b905f5260205f20015f9054906101000a900473ffffffffffffffffffffffffffffffffffffffff16600882815481106134ca576134c96183c3565b5b905f5260205f20015f6101000a81548173ffffffffffffffffffffffffffffffffffffffff021916908373ffffffffffffffffffffffffffffffffffffffff160217905550600880548061352157613520618add565b5b600190038181905f5260205f20015f6101000a81549073ffffffffffffffffffffffffffffffffffffffff02191690559055613565565b80806001019150506133cd565b505f60105f6101000a81548160ff02191690831515021790555060405180602001604052805f8152506011908161359c9190617aef565b507f7008e45448ad5aa92d72ec64b89807038870139694f96be53e604aab0426844d601a5f9054906101000a900473ffffffffffffffffffffffffffffffffffffffff166040516135ed9190617c97565b60405180910390a1601a5f6101000a81549073ffffffffffffffffffffffffffffffffffffffff0219169055601b5f6136269190616e80565b565b60606040518060400160405280600581526020017f312e302e30000000000000000000000000000000000000000000000000000000815250905090565b61366e33616596565b6136ad576040517f08c379a00000000000000000000000000000000000000000000000000000000081526004016136a490617661565b60405180910390fd5b601060029054906101000a900460ff16156136fd576040517f08c379a00000000000000000000000000000000000000000000000000000000081526004016136f4906176c9565b60405180910390fd5b60105f9054906101000a900460ff161561374c576040517f08c379a000000000000000000000000000000000000000000000000000000000815260040161374390617731565b60405180910390fd5b5f73ffffffffffffffffffffffffffffffffffffffff168173ffffffffffffffffffffffffffffffffffffffff16036137ba576040517f08c379a00000000000000000000000000000000000000000000000000000000081526004016137b190618b54565b60405180910390fd5b60095f8273ffffffffffffffffffffffffffffffffffffffff1673ffffffffffffffffffffffffffffffffffffffff1681526020019081526020015f205f9054906101000a900460ff1615613844576040517f08c379a000000000000000000000000000000000000000000000000000000000815260040161383b90618783565b60405180910390fd5b61384c616638565b5f600f8190555080601c5f6101000a81548173ffffffffffffffffffffffffffffffffffffffff021916908373ffffffffffffffffffffffffffffffffffffffff1602179055506040518060400160405280600681526020017f667265657a650000000000000000000000000000000000000000000000000000815250601d90816138d79190617aef565b50600160105f6101000a81548160ff0219169083151502179055506040518060400160405280600681526020017f667265657a650000000000000000000000000000000000000000000000000000815250601190816139369190617aef565b507f25c4e8317dc171f3714dca5948d811428a109c026192134ad8978a6b3623a3878160405161396691906187c3565b60405180910390a150565b60105f9054906101000a900460ff1681565b601b8054613990906175e7565b80601f01602080910402602001604051908101604052809291908181526020018280546139bc906175e7565b8015613a075780601f106139de57610100808354040283529160200191613a07565b820191905f5260205f20905b8154815290600101906020018083116139ea57829003601f168201915b505050505081565b5f601060029054906101000a900460ff16905090565b613a2e33616596565b613a6d576040517f08c379a0000000000000000000000000000000000000000000000000000000008152600401613a6490617661565b60405180910390fd5b601060029054906101000a900460ff1615613abd576040517f08c379a0000000000000000000000000000000000000000000000000000000008152600401613ab4906176c9565b60405180910390fd5b60105f9054906101000a900460ff1615613b0c576040517f08c379a0000000000000000000000000000000000000000000000000000000008152600401613b0390617731565b60405180910390fd5b8051825114613b50576040517f08c379a0000000000000000000000000000000000000000000000000000000008152600401613b4790618be2565b60405180910390fd5b5f825111613b93576040517f08c379a0000000000000000000000000000000000000000000000000000000008152600401613b8a90618c70565b60405180910390fd5b5f5f90505b8251811015613dc557613bc4838281518110613bb757613bb66183c3565b5b6020026020010151616596565b613c03576040517f08c379a0000000000000000000000000000000000000000000000000000000008152600401613bfa9061843a565b60405180910390fd5b5f73ffffffffffffffffffffffffffffffffffffffff16828281518110613c2d57613c2c6183c3565b5b602002602001015173ffffffffffffffffffffffffffffffffffffffff1603613c8b576040517f08c379a0000000000000000000000000000000000000000000000000000000008152600401613c82906184a2565b60405180910390fd5b613cae828281518110613ca157613ca06183c3565b5b6020026020010151616596565b15613cee576040517f08c379a0000000000000000000000000000000000000000000000000000000008152600401613ce59061850a565b60405180910390fd5b5f600182613cfc91906178b4565b90505b8251811015613db757828181518110613d1b57613d1a6183c3565b5b602002602001015173ffffffffffffffffffffffffffffffffffffffff16838381518110613d4c57613d4b6183c3565b5b602002602001015173ffffffffffffffffffffffffffffffffffffffff1603613daa576040517f08c379a0000000000000000000000000000000000000000000000000000000008152600401613da190618572565b60405180910390fd5b8080600101915050613cff565b508080600101915050613b98565b50613dce616638565b5f600f819055508160179080519060200190613deb929190616edb565b508060189080519060200190613e02929190616edb565b50600160105f6101000a81548160ff0219169083151502179055506040518060400160405280600681526020017f766f74657273000000000000000000000000000000000000000000000000000081525060119081613e619190617aef565b503360125f6101000a81548173ffffffffffffffffffffffffffffffffffffffff021916908373ffffffffffffffffffffffffffffffffffffffff1602179055507f55745d7ec40b9509a889ae3c5c72fce1dec2260ecb5286b509dd4d63bc5d4bf3828233604051613ed593929190618d0f565b60405180910390a15050565b613eea33616596565b613f29576040517f08c379a0000000000000000000000000000000000000000000000000000000008152600401613f2090617661565b60405180910390fd5b601060029054906101000a900460ff1615613f79576040517f08c379a0000000000000000000000000000000000000000000000000000000008152600401613f70906176c9565b60405180910390fd5b60105f9054906101000a900460ff1615613fc8576040517f08c379a0000000000000000000000000000000000000000000000000000000008152600401613fbf90617731565b60405180910390fd5b613fd0616638565b5f600f819055508060149081613fe69190617aef565b50600160105f6101000a81548160ff0219169083151502179055506040518060400160405280600481526020017f6e616d6500000000000000000000000000000000000000000000000000000000815250601190816140459190617aef565b503360125f6101000a81548173ffffffffffffffffffffffffffffffffffffffff021916908373ffffffffffffffffffffffffffffffffffffffff1602179055507f41f966d26bc0339af48ac37ad87736e00ac40e9859cdf864a47f2a719b1bd9ac81336040516140b7929190618d52565b60405180910390a150565b5f5f905090565b6140d233616596565b614111576040517f08c379a000000000000000000000000000000000000000000000000000000000815260040161410890617661565b60405180910390fd5b601060029054906101000a900460ff1615614161576040517f08c379a0000000000000000000000000000000000000000000000000000000008152600401614158906176c9565b60405180910390fd5b60105f9054906101000a900460ff166141af576040517f08c379a00000000000000000000000000000000000000000000000000000000081526004016141a690617f23565b60405180910390fd5b600e5f3373ffffffffffffffffffffffffffffffffffffffff1673ffffffffffffffffffffffffffffffffffffffff1681526020019081526020015f205f9054906101000a900460ff1615614239576040517f08c379a000000000000000000000000000000000000000000000000000000000815260040161423090618dca565b60405180910390fd5b601060019054906101000a900460ff1615614289576040517f08c379a000000000000000000000000000000000000000000000000000000000815260040161428090618e32565b60405180910390fd5b6001600e5f3373ffffffffffffffffffffffffffffffffffffffff1673ffffffffffffffffffffffffffffffffffffffff1681526020019081526020015f205f6101000a81548160ff021916908315150217905550600f5f8154809291906142f090618e50565b91905055505f60116040516020016143089190618029565b6040516020818303038152906040528051906020012090505f60405160200161433090618ee1565b60405160208183030381529060405280519060200120821480614376575060405160200161435d90618a2e565b6040516020818303038152906040528051906020012082145b806143a4575060405160200161438b90618725565b6040516020818303038152906040528051906020012082145b806143d257506040516020016143b990617f95565b6040516020818303038152906040528051906020012082145b90505f6040516020016143e490618f3f565b60405160208183030381529060405280519060200120831490505f816144185782614410576005614413565b60035b61441b565b60025b905080600f54106144ee5760405160200161443590618f9d565b6040516020818303038152906040528051906020012084036144695760784261445e91906178b4565b6013819055506144ed565b60405160200161447890618ffb565b6040516020818303038152906040528051906020012084036144ac576078426144a191906178b4565b6016819055506144ec565b6040516020016144bb906182df565b6040516020818303038152906040528051906020012084036144eb576078426144e491906178b4565b6019819055505b5b5b5b50505050565b601c5f9054906101000a900473ffffffffffffffffffffffffffffffffffffffff1681565b600c8054614526906175e7565b80601f0160208091040260200160405190810160405280929190818152602001828054614552906175e7565b801561459d5780601f106145745761010080835404028352916020019161459d565b820191905f5260205f20905b81548152906001019060200180831161458057829003601f168201915b505050505081565b601060029054906101000a900460ff16156145f5576040517f08c379a00000000000000000000000000000000000000000000000000000000081526004016145ec906176c9565b60405180910390fd5b60105f9054906101000a900460ff16614643576040517f08c379a000000000000000000000000000000000000000000000000000000000815260040161463a90617f23565b60405180910390fd5b60405160200161465290618ffb565b60405160208183030381529060405280519060200120601160405160200161467a9190618029565b60405160208183030381529060405280519060200120146146d0576040517f08c379a00000000000000000000000000000000000000000000000000000000081526004016146c790618089565b60405180910390fd5b601654421015614715576040517f08c379a000000000000000000000000000000000000000000000000000000000815260040161470c9061833d565b60405180910390fd5b6005600f54101561475b576040517f08c379a0000000000000000000000000000000000000000000000000000000008152600401614752906180f1565b60405180910390fd5b60155f9054906101000a900460070b60070b60065461477a9190618886565b6006819055505f60105f6101000a81548160ff02191690831515021790555060405180602001604052805f815250601190816147b69190617aef565b505f60125f6101000a81548173ffffffffffffffffffffffffffffffffffffffff021916908373ffffffffffffffffffffffffffffffffffffffff16021790555060155f6101000a81549067ffffffffffffffff021916905560165f90557f0acd0677fad7be9ccaf6c91ebaaca5c9c91622ac0508242d2f8feca61a0da2496006546040516148459190617025565b60405180910390a1565b5f5f5f8373ffffffffffffffffffffffffffffffffffffffff1673ffffffffffffffffffffffffffffffffffffffff1681526020019081526020015f20549050919050565b61489c616717565b6148a55f61679e565b565b6148af616717565b5f601060016101000a81548160ff0219169083151502179055507f8f69ef9279bfb1fe5f4f75790947a23fa88774e98242b966bcaaf7d25e8b3c1660405160405180910390a1565b61490033616596565b61493f576040517f08c379a000000000000000000000000000000000000000000000000000000000815260040161493690617661565b60405180910390fd5b601060029054906101000a900460ff161561498f576040517f08c379a0000000000000000000000000000000000000000000000000000000008152600401614986906176c9565b60405180910390fd5b61012c60205461499f91906178b4565b4210156149e1576040517f08c379a00000000000000000000000000000000000000000000000000000000081526004016149d89061907f565b60405180910390fd5b5f60088054905011614a28576040517f08c379a0000000000000000000000000000000000000000000000000000000008152600401614a1f906190e7565b60405180910390fd5b600654670de0b6b3a7640000600880549050614a449190619105565b600b54614a5191906178b4565b1115614a92576040517f08c379a0000000000000000000000000000000000000000000000000000000008152600401614a8990617931565b60405180910390fd5b5f60088054905067ffffffffffffffff811115614ab257614ab16172ab565b5b604051908082528060200260200182016040528015614ae05781602001602082028036833780820191505090505b5090505f5f90505b600880549050811015614c835760075f60088381548110614b0c57614b0b6183c3565b5b905f5260205f20015f9054906101000a900473ffffffffffffffffffffffffffffffffffffffff1673ffffffffffffffffffffffffffffffffffffffff1673ffffffffffffffffffffffffffffffffffffffff1681526020019081526020015f205f9054906101000a900460ff1615614c7657614bcc60088281548110614b9657614b956183c3565b5b905f5260205f20015f9054906101000a900473ffffffffffffffffffffffffffffffffffffffff16670de0b6b3a7640000616861565b670de0b6b3a7640000600b5f828254614be591906178b4565b9250508190555060088181548110614c0057614bff6183c3565b5b905f5260205f20015f9054906101000a900473ffffffffffffffffffffffffffffffffffffffff16828281518110614c3b57614c3a6183c3565b5b602002602001019073ffffffffffffffffffffffffffffffffffffffff16908173ffffffffffffffffffffffffffffffffffffffff16815250505b8080600101915050614ae8565b50426020819055507f2f4bfd5d5603381d5e4cccb9869dd2016a99dbb6044d5e3081f57ec1faba9e1181670de0b6b3a7640000604051614cc4929190619146565b60405180910390a150565b60178181548110614cde575f80fd5b905f5260205f20015f915054906101000a900473ffffffffffffffffffffffffffffffffffffffff1681565b60188181548110614d19575f80fd5b905f5260205f20015f915054906101000a900473ffffffffffffffffffffffffffffffffffffffff1681565b601060029054906101000a900460ff1681565b60155f9054906101000a900460070b81565b5f60055f9054906101000a900473ffffffffffffffffffffffffffffffffffffffff16905090565b60065481565b601060029054906101000a900460ff1615614de8576040517f08c379a0000000000000000000000000000000000000000000000000000000008152600401614ddf906176c9565b60405180910390fd5b60105f9054906101000a900460ff16614e36576040517f08c379a0000000000000000000000000000000000000000000000000000000008152600401614e2d90617f23565b60405180910390fd5b60125f9054906101000a900473ffffffffffffffffffffffffffffffffffffffff1673ffffffffffffffffffffffffffffffffffffffff163373ffffffffffffffffffffffffffffffffffffffff1614614ec5576040517f08c379a0000000000000000000000000000000000000000000000000000000008152600401614ebc906191be565b60405180910390fd5b5f6011604051602001614ed89190618029565b604051602081830303815290604052805190602001209050604051602001614eff90618f9d565b60405160208183030381529060405280519060200120811480614f455750604051602001614f2c90618ffb565b6040516020818303038152906040528051906020012081145b80614f735750604051602001614f5a906182df565b6040516020818303038152906040528051906020012081145b614fb2576040517f08c379a0000000000000000000000000000000000000000000000000000000008152600401614fa99061924c565b60405180910390fd5b6005600f541015614ff8576040517f08c379a0000000000000000000000000000000000000000000000000000000008152600401614fef906192b4565b60405180910390fd5b60405160200161500790618f9d565b60405160208183030381529060405280519060200120810361506c576013544210615067576040517f08c379a000000000000000000000000000000000000000000000000000000000815260040161505e9061931c565b60405180910390fd5b615152565b60405160200161507b90618ffb565b6040516020818303038152906040528051906020012081036150e05760165442106150db576040517f08c379a00000000000000000000000000000000000000000000000000000000081526004016150d29061931c565b60405180910390fd5b615151565b6040516020016150ef906182df565b60405160208183030381529060405280519060200120810361515057601954421061514f576040517f08c379a00000000000000000000000000000000000000000000000000000000081526004016151469061931c565b60405180910390fd5b5b5b5b61515a616638565b5f600f819055505f6011805461516f906175e7565b80601f016020809104026020016040519081016040528092919081815260200182805461519b906175e7565b80156151e65780601f106151bd576101008083540402835291602001916151e6565b820191905f5260205f20905b8154815290600101906020018083116151c957829003601f168201915b505050505090505f60105f6101000a81548160ff02191690831515021790555060405180602001604052805f815250601190816152239190617aef565b505f60125f6101000a81548173ffffffffffffffffffffffffffffffffffffffff021916908373ffffffffffffffffffffffffffffffffffffffff16021790555060405160200161527390618f9d565b6040516020818303038152906040528051906020012082036152a65760145f61529c9190616e80565b60135f9055615340565b6040516020016152b590618ffb565b6040516020818303038152906040528051906020012082036152f35760155f6101000a81549067ffffffffffffffff021916905560165f905561533f565b604051602001615302906182df565b60405160208183030381529060405280519060200120820361533e5760175f61532b9190616ebd565b60185f6153389190616ebd565b60195f90555b5b5b7f7e9dd9661006e07d548ed10dc1fd44e54af530215c153ab93b4cdd0daba0f8648133604051615371929190618d52565b60405180910390a15050565b60606004805461538c906175e7565b80601f01602080910402602001604051908101604052809291908181526020018280546153b8906175e7565b80156154035780601f106153da57610100808354040283529160200191615403565b820191905f5260205f20905b8154815290600101906020018083116153e657829003601f168201915b5050505050905090565b601a5f9054906101000a900473ffffffffffffffffffffffffffffffffffffffff1681565b6007602052805f5260405f205f915054906101000a900460ff1681565b5f601060029054906101000a900460ff16156154a0576040517f08c379a0000000000000000000000000000000000000000000000000000000008152600401615497906176c9565b60405180910390fd5b60095f3373ffffffffffffffffffffffffffffffffffffffff1673ffffffffffffffffffffffffffffffffffffffff1681526020019081526020015f205f9054906101000a900460ff161561552a576040517f08c379a000000000000000000000000000000000000000000000000000000000815260040161552190617d0d565b60405180910390fd5b816fffffffffffffffffffffffffffffffff16821461557e576040517f08c379a000000000000000000000000000000000000000000000000000000000815260040161557590617d75565b60405180910390fd5b61558883836168e0565b905092915050565b5f30905090565b60125f9054906101000a900473ffffffffffffffffffffffffffffffffffffffff1681565b601060019054906101000a900460ff1681565b601060029054906101000a900460ff161561561f576040517f08c379a0000000000000000000000000000000000000000000000000000000008152600401615616906176c9565b60405180910390fd5b60105f9054906101000a900460ff1661566d576040517f08c379a000000000000000000000000000000000000000000000000000000000815260040161566490617f23565b60405180910390fd5b60405160200161567c90618ee1565b6040516020818303038152906040528051906020012060116040516020016156a49190618029565b60405160208183030381529060405280519060200120146156fa576040517f08c379a00000000000000000000000000000000000000000000000000000000081526004016156f190618089565b60405180910390fd5b6003600f541015615740576040517f08c379a0000000000000000000000000000000000000000000000000000000008152600401615737906180f1565b60405180910390fd5b5f73ffffffffffffffffffffffffffffffffffffffff16601a5f9054906101000a900473ffffffffffffffffffffffffffffffffffffffff1673ffffffffffffffffffffffffffffffffffffffff16036157cf576040517f08c379a00000000000000000000000000000000000000000000000000000000081526004016157c690618a8c565b60405180910390fd5b60075f601a5f9054906101000a900473ffffffffffffffffffffffffffffffffffffffff1673ffffffffffffffffffffffffffffffffffffffff1673ffffffffffffffffffffffffffffffffffffffff1681526020019081526020015f205f9054906101000a900460ff161561587a576040517f08c379a000000000000000000000000000000000000000000000000000000000815260040161587190617e45565b60405180910390fd5b600160075f601a5f9054906101000a900473ffffffffffffffffffffffffffffffffffffffff1673ffffffffffffffffffffffffffffffffffffffff1673ffffffffffffffffffffffffffffffffffffffff1681526020019081526020015f205f6101000a81548160ff0219169083151502179055506008601a5f9054906101000a900473ffffffffffffffffffffffffffffffffffffffff16908060018154018082558091505060019003905f5260205f20015f9091909190916101000a81548173ffffffffffffffffffffffffffffffffffffffff021916908373ffffffffffffffffffffffffffffffffffffffff1602179055505f60105f6101000a81548160ff02191690831515021790555060405180602001604052805f815250601190816159a79190617aef565b507f7008e45448ad5aa92d72ec64b89807038870139694f96be53e604aab0426844d601a5f9054906101000a900473ffffffffffffffffffffffffffffffffffffffff166040516159f89190617ead565b60405180910390a1601a5f6101000a81549073ffffffffffffffffffffffffffffffffffffffff0219169055601b5f615a319190616e80565b565b600a5f9054906101000a900473ffffffffffffffffffffffffffffffffffffffff1681565b60165481565b615a6733616596565b615aa6576040517f08c379a0000000000000000000000000000000000000000000000000000000008152600401615a9d90617661565b60405180910390fd5b601060029054906101000a900460ff1615615af6576040517f08c379a0000000000000000000000000000000000000000000000000000000008152600401615aed906176c9565b60405180910390fd5b6005600f5410615b3b576040517f08c379a0000000000000000000000000000000000000000000000000000000008152600401615b3290619384565b60405180910390fd5b615b43616638565b5f600f819055505f601060026101000a81548160ff0219169083151502179055507fab5f6dacf93a267a93a533de8a56370de8341bbd8102017307e7be375c3dda6a60405160405180910390a1565b600f5481565b6009602052805f5260405f205f915054906101000a900460ff1681565b601060029054906101000a900460ff1615615c05576040517f08c379a0000000000000000000000000000000000000000000000000000000008152600401615bfc906176c9565b60405180910390fd5b60105f9054906101000a900460ff16615c53576040517f08c379a0000000000000000000000000000000000000000000000000000000008152600401615c4a90617f23565b60405180910390fd5b604051602001615c6290618f9d565b604051602081830303815290604052805190602001206011604051602001615c8a9190618029565b6040516020818303038152906040528051906020012014615ce0576040517f08c379a0000000000000000000000000000000000000000000000000000000008152600401615cd790618089565b60405180910390fd5b601354421015615d25576040517f08c379a0000000000000000000000000000000000000000000000000000000008152600401615d1c9061833d565b60405180910390fd5b6005600f541015615d6b576040517f08c379a0000000000000000000000000000000000000000000000000000000008152600401615d62906180f1565b60405180910390fd5b615dfc60148054615d7b906175e7565b80601f0160208091040260200160405190810160405280929190818152602001828054615da7906175e7565b8015615df25780601f10615dc957610100808354040283529160200191615df2565b820191905f5260205f20905b815481529060010190602001808311615dd557829003601f168201915b5050505050616902565b5f60105f6101000a81548160ff02191690831515021790555060405180602001604052805f81525060119081615e329190617aef565b505f60125f6101000a81548173ffffffffffffffffffffffffffffffffffffffff021916908373ffffffffffffffffffffffffffffffffffffffff16021790555060145f615e809190616e80565b60135f90557f4737457377f528cc8afd815f73ecb8b05df80d047dbffc41c17750a4033592bc6014604051615eb59190619423565b60405180910390a1565b5f600b54600654615ed09190618aaa565b905090565b600d8181548110615ee4575f80fd5b905f5260205f20015f915054906101000a900473ffffffffffffffffffffffffffffffffffffffff1681565b5f60015f8473ffffffffffffffffffffffffffffffffffffffff1673ffffffffffffffffffffffffffffffffffffffff1681526020019081526020015f205f8373ffffffffffffffffffffffffffffffffffffffff1673ffffffffffffffffffffffffffffffffffffffff1681526020019081526020015f2054905092915050565b5f60095f8373ffffffffffffffffffffffffffffffffffffffff1673ffffffffffffffffffffffffffffffffffffffff1681526020019081526020015f205f9054906101000a900460ff169050919050565b5f5f600a5f9054906101000a900473ffffffffffffffffffffffffffffffffffffffff1690505f8173ffffffffffffffffffffffffffffffffffffffff16633850c7bd6040518163ffffffff1660e01b815260040160e060405180830381865afa158015616054573d5f5f3e3d5ffd5b505050506040513d601f19601f82011682018060405250810190616078919061952e565b50505050505090505f78010000000000000000000000000000000000000000000000008273ffffffffffffffffffffffffffffffffffffffff168373ffffffffffffffffffffffffffffffffffffffff166160d39190619105565b6160dd91906195f8565b905080935050505090565b601060029054906101000a900460ff1615616138576040517f08c379a000000000000000000000000000000000000000000000000000000000815260040161612f906176c9565b60405180910390fd5b60105f9054906101000a900460ff16616186576040517f08c379a000000000000000000000000000000000000000000000000000000000815260040161617d90617f23565b60405180910390fd5b60405160200161619590618f3f565b6040516020818303038152906040528051906020012060116040516020016161bd9190618029565b6040516020818303038152906040528051906020012014616213576040517f08c379a000000000000000000000000000000000000000000000000000000000815260040161620a90618089565b60405180910390fd5b6002600f541015616259576040517f08c379a0000000000000000000000000000000000000000000000000000000008152600401616250906180f1565b60405180910390fd5b5f73ffffffffffffffffffffffffffffffffffffffff16601e5f9054906101000a900473ffffffffffffffffffffffffffffffffffffffff1673ffffffffffffffffffffffffffffffffffffffff16036162e8576040517f08c379a00000000000000000000000000000000000000000000000000000000081526004016162df90619672565b60405180910390fd5b60075f601e5f9054906101000a900473ffffffffffffffffffffffffffffffffffffffff1673ffffffffffffffffffffffffffffffffffffffff1673ffffffffffffffffffffffffffffffffffffffff1681526020019081526020015f205f9054906101000a900460ff16616392576040517f08c379a000000000000000000000000000000000000000000000000000000000815260040161638990617799565b60405180910390fd5b6163bf601e5f9054906101000a900473ffffffffffffffffffffffffffffffffffffffff16601f54616861565b601f54600b5f8282546163d291906178b4565b925050819055505f60105f6101000a81548160ff02191690831515021790555060405180602001604052805f8152506011908161640f9190617aef565b507f570563f436dc733c61d3863fd95e547272964f69d7b5cfe7461360a7a5643e3c601e5f9054906101000a900473ffffffffffffffffffffffffffffffffffffffff16601f54604051616464929190617bbe565b60405180910390a1601e5f6101000a81549073ffffffffffffffffffffffffffffffffffffffff0219169055601f5f9055565b61649f616717565b5f73ffffffffffffffffffffffffffffffffffffffff168173ffffffffffffffffffffffffffffffffffffffff160361650f575f6040517f1e4fbdf7000000000000000000000000000000000000000000000000000000008152600401616506919061717e565b60405180910390fd5b6165188161679e565b50565b600281565b616528616717565b6001601060016101000a81548160ff0219169083151502179055507f20c53179fe7c6306d9d1c279d52bae5e736f5e1178137542d3a7a9d1752691be60405160405180910390a1565b670de0b6b3a764000081565b5f33905090565b6165918383836001616915565b505050565b5f5f5f90505b600d8054905081101561662e578273ffffffffffffffffffffffffffffffffffffffff16600d82815481106165d4576165d36183c3565b5b905f5260205f20015f9054906101000a900473ffffffffffffffffffffffffffffffffffffffff1673ffffffffffffffffffffffffffffffffffffffff1603616621576001915050616633565b808060010191505061659c565b505f90505b919050565b5f5f90505b600d805490508110156166e6575f600e5f600d8481548110616662576166616183c3565b5b905f5260205f20015f9054906101000a900473ffffffffffffffffffffffffffffffffffffffff1673ffffffffffffffffffffffffffffffffffffffff1673ffffffffffffffffffffffffffffffffffffffff1681526020019081526020015f205f6101000a81548160ff021916908315150217905550808060010191505061663d565b50565b5f5f6166f361657d565b9050616700858285616ae4565b61670b858585616b77565b60019150509392505050565b61671f61657d565b73ffffffffffffffffffffffffffffffffffffffff1661673d614d6a565b73ffffffffffffffffffffffffffffffffffffffff161461679c5761676061657d565b6040517f118cdaa7000000000000000000000000000000000000000000000000000000008152600401616793919061717e565b60405180910390fd5b565b5f60055f9054906101000a900473ffffffffffffffffffffffffffffffffffffffff1690508160055f6101000a81548173ffffffffffffffffffffffffffffffffffffffff021916908373ffffffffffffffffffffffffffffffffffffffff1602179055508173ffffffffffffffffffffffffffffffffffffffff168173ffffffffffffffffffffffffffffffffffffffff167f8be0079c531659141344cd1fd0a4f28419497f9722a3daafe3b4186f6b6457e060405160405180910390a35050565b5f73ffffffffffffffffffffffffffffffffffffffff168273ffffffffffffffffffffffffffffffffffffffff16036168d1575f6040517fec442f050000000000000000000000000000000000000000000000000000000081526004016168c8919061717e565b60405180910390fd5b6168dc5f8383616c67565b5050565b5f5f6168ea61657d565b90506168f7818585616b77565b600191505092915050565b80600c90816169119190617aef565b5050565b5f73ffffffffffffffffffffffffffffffffffffffff168473ffffffffffffffffffffffffffffffffffffffff1603616985575f6040517fe602df0500000000000000000000000000000000000000000000000000000000815260040161697c919061717e565b60405180910390fd5b5f73ffffffffffffffffffffffffffffffffffffffff168373ffffffffffffffffffffffffffffffffffffffff16036169f5575f6040517f94280d620000000000000000000000000000000000000000000000000000000081526004016169ec919061717e565b60405180910390fd5b8160015f8673ffffffffffffffffffffffffffffffffffffffff1673ffffffffffffffffffffffffffffffffffffffff1681526020019081526020015f205f8573ffffffffffffffffffffffffffffffffffffffff1673ffffffffffffffffffffffffffffffffffffffff1681526020019081526020015f20819055508015616ade578273ffffffffffffffffffffffffffffffffffffffff168473ffffffffffffffffffffffffffffffffffffffff167f8c5be1e5ebec7d5bd14f71427d1e84f3dd0314c0f7b2291e5b200ac8c7c3b92584604051616ad59190617025565b60405180910390a35b50505050565b5f616aef8484615f10565b90507fffffffffffffffffffffffffffffffffffffffffffffffffffffffffffffffff811015616b715781811015616b62578281836040517ffb8f41b2000000000000000000000000000000000000000000000000000000008152600401616b5993929190619690565b60405180910390fd5b616b7084848484035f616915565b5b50505050565b5f73ffffffffffffffffffffffffffffffffffffffff168373ffffffffffffffffffffffffffffffffffffffff1603616be7575f6040517f96c6fd1e000000000000000000000000000000000000000000000000000000008152600401616bde919061717e565b60405180910390fd5b5f73ffffffffffffffffffffffffffffffffffffffff168273ffffffffffffffffffffffffffffffffffffffff1603616c57575f6040517fec442f05000000000000000000000000000000000000000000000000000000008152600401616c4e919061717e565b60405180910390fd5b616c62838383616c67565b505050565b5f73ffffffffffffffffffffffffffffffffffffffff168373ffffffffffffffffffffffffffffffffffffffff1603616cb7578060025f828254616cab91906178b4565b92505081905550616d85565b5f5f5f8573ffffffffffffffffffffffffffffffffffffffff1673ffffffffffffffffffffffffffffffffffffffff1681526020019081526020015f2054905081811015616d40578381836040517fe450d38c000000000000000000000000000000000000000000000000000000008152600401616d3793929190619690565b60405180910390fd5b8181035f5f8673ffffffffffffffffffffffffffffffffffffffff1673ffffffffffffffffffffffffffffffffffffffff1681526020019081526020015f2081905550505b5f73ffffffffffffffffffffffffffffffffffffffff168273ffffffffffffffffffffffffffffffffffffffff1603616dcc578060025f8282540392505081905550616e16565b805f5f8473ffffffffffffffffffffffffffffffffffffffff1673ffffffffffffffffffffffffffffffffffffffff1681526020019081526020015f205f82825401925050819055505b8173ffffffffffffffffffffffffffffffffffffffff168373ffffffffffffffffffffffffffffffffffffffff167fddf252ad1be2c89b69c2b068fc378daa952ba7f163c4a11628f55a4df523b3ef83604051616e739190617025565b60405180910390a3505050565b508054616e8c906175e7565b5f825580601f10616e9d5750616eba565b601f0160209004905f5260205f2090810190616eb99190616f62565b5b50565b5080545f8255905f5260205f2090810190616ed89190616f62565b50565b828054828255905f5260205f20908101928215616f51579160200282015b82811115616f50578251825f6101000a81548173ffffffffffffffffffffffffffffffffffffffff021916908373ffffffffffffffffffffffffffffffffffffffff16021790555091602001919060010190616ef9565b5b509050616f5e9190616f62565b5090565b5b80821115616f79575f815f905550600101616f63565b5090565b5f81519050919050565b5f82825260208201905092915050565b8281835e5f83830152505050565b5f601f19601f8301169050919050565b5f616fbf82616f7d565b616fc98185616f87565b9350616fd9818560208601616f97565b616fe281616fa5565b840191505092915050565b5f6020820190508181035f8301526170058184616fb5565b905092915050565b5f819050919050565b61701f8161700d565b82525050565b5f6020820190506170385f830184617016565b92915050565b5f604051905090565b5f5ffd5b5f5ffd5b5f73ffffffffffffffffffffffffffffffffffffffff82169050919050565b5f6170788261704f565b9050919050565b6170888161706e565b8114617092575f5ffd5b50565b5f813590506170a38161707f565b92915050565b6170b28161700d565b81146170bc575f5ffd5b50565b5f813590506170cd816170a9565b92915050565b5f5f604083850312156170e9576170e8617047565b5b5f6170f685828601617095565b9250506020617107858286016170bf565b9150509250929050565b5f8115159050919050565b61712581617111565b82525050565b5f60208201905061713e5f83018461711c565b92915050565b5f6020828403121561715957617158617047565b5b5f61716684828501617095565b91505092915050565b6171788161706e565b82525050565b5f6020820190506171915f83018461716f565b92915050565b5f602082840312156171ac576171ab617047565b5b5f6171b9848285016170bf565b91505092915050565b5f5f5f606084860312156171d9576171d8617047565b5b5f6171e686828701617095565b93505060206171f786828701617095565b9250506040617208868287016170bf565b9150509250925092565b5f60ff82169050919050565b61722781617212565b82525050565b5f6020820190506172405f83018461721e565b92915050565b5f8160070b9050919050565b61725b81617246565b8114617265575f5ffd5b50565b5f8135905061727681617252565b92915050565b5f6020828403121561729157617290617047565b5b5f61729e84828501617268565b91505092915050565b5f5ffd5b7f4e487b71000000000000000000000000000000000000000000000000000000005f52604160045260245ffd5b6172e182616fa5565b810181811067ffffffffffffffff82111715617300576172ff6172ab565b5b80604052505050565b5f61731261703e565b905061731e82826172d8565b919050565b5f67ffffffffffffffff82111561733d5761733c6172ab565b5b602082029050602081019050919050565b5f5ffd5b5f61736461735f84617323565b617309565b905080838252602082019050602084028301858111156173875761738661734e565b5b835b818110156173b0578061739c8882617095565b845260208401935050602081019050617389565b5050509392505050565b5f82601f8301126173ce576173cd6172a7565b5b81356173de848260208601617352565b91505092915050565b5f5f604083850312156173fd576173fc617047565b5b5f83013567ffffffffffffffff81111561741a5761741961704b565b5b617426858286016173ba565b925050602083013567ffffffffffffffff8111156174475761744661704b565b5b617453858286016173ba565b9150509250929050565b5f5ffd5b5f67ffffffffffffffff82111561747b5761747a6172ab565b5b61748482616fa5565b9050602081019050919050565b828183375f83830152505050565b5f6174b16174ac84617461565b617309565b9050828152602081018484840111156174cd576174cc61745d565b5b6174d8848285617491565b509392505050565b5f82601f8301126174f4576174f36172a7565b5b813561750484826020860161749f565b91505092915050565b5f6020828403121561752257617521617047565b5b5f82013567ffffffffffffffff81111561753f5761753e61704b565b5b61754b848285016174e0565b91505092915050565b61755d81617246565b82525050565b5f6020820190506175765f830184617554565b92915050565b5f5f6040838503121561759257617591617047565b5b5f61759f85828601617095565b92505060206175b085828601617095565b9150509250929050565b7f4e487b71000000000000000000000000000000000000000000000000000000005f52602260045260245ffd5b5f60028204905060018216806175fe57607f821691505b602082108103617611576176106175ba565b5b50919050565b7f4e6f74206120766f7465720000000000000000000000000000000000000000005f82015250565b5f61764b600b83616f87565b915061765682617617565b602082019050919050565b5f6020820190508181035f8301526176788161763f565b9050919050565b7f436f6e74726163742069732070617573656400000000000000000000000000005f82015250565b5f6176b3601283616f87565b91506176be8261767f565b602082019050919050565b5f6020820190508181035f8301526176e0816176a7565b9050919050565b7f50726f706f73616c20616c7265616479206163746976650000000000000000005f82015250565b5f61771b601783616f87565b9150617726826176e7565b602082019050919050565b5f6020820190508181035f8301526177488161770f565b9050919050565b7f526563697069656e74206e6f742077686974656c6973746564000000000000005f82015250565b5f617783601983616f87565b915061778e8261774f565b602082019050919050565b5f6020820190508181035f8301526177b081617777565b9050919050565b7f526563697069656e742063616e6e6f74206265207a65726f20616464726573735f82015250565b5f6177eb602083616f87565b91506177f6826177b7565b602082019050919050565b5f6020820190508181035f830152617818816177df565b9050919050565b7f416d6f756e74206d7573742062652067726561746572207468616e207a65726f5f82015250565b5f617853602083616f87565b915061785e8261781f565b602082019050919050565b5f6020820190508181035f83015261788081617847565b9050919050565b7f4e487b71000000000000000000000000000000000000000000000000000000005f52601160045260245ffd5b5f6178be8261700d565b91506178c98361700d565b92508282019050808211156178e1576178e0617887565b5b92915050565b7f546f74616c20737570706c7920657863656564656400000000000000000000005f82015250565b5f61791b601583616f87565b9150617926826178e7565b602082019050919050565b5f6020820190508181035f8301526179488161790f565b9050919050565b5f819050815f5260205f209050919050565b5f6020601f8301049050919050565b5f82821b905092915050565b5f600883026179ab7fffffffffffffffffffffffffffffffffffffffffffffffffffffffffffffffff82617970565b6179b58683617970565b95508019841693508086168417925050509392505050565b5f819050919050565b5f6179f06179eb6179e68461700d565b6179cd565b61700d565b9050919050565b5f819050919050565b617a09836179d6565b617a1d617a15826179f7565b84845461797c565b825550505050565b5f5f905090565b617a34617a25565b617a3f818484617a00565b505050565b5b81811015617a6257617a575f82617a2c565b600181019050617a45565b5050565b601f821115617aa757617a788161794f565b617a8184617961565b81016020851015617a90578190505b617aa4617a9c85617961565b830182617a44565b50505b505050565b5f82821c905092915050565b5f617ac75f1984600802617aac565b1980831691505092915050565b5f617adf8383617ab8565b9150826002028217905092915050565b617af882616f7d565b67ffffffffffffffff811115617b1157617b106172ab565b5b617b1b82546175e7565b617b26828285617a66565b5f60209050601f831160018114617b57575f8415617b45578287015190505b617b4f8582617ad4565b865550617bb6565b601f198416617b658661794f565b5f5b82811015617b8c57848901518255600182019150602085019450602081019050617b67565b86831015617ba95784890151617ba5601f891682617ab8565b8355505b6001600288020188555050505b505050505050565b5f604082019050617bd15f83018561716f565b617bde6020830184617016565b9392505050565b7f4d656d626572206e6f742077686974656c6973746564000000000000000000005f82015250565b5f617c19601683616f87565b9150617c2482617be5565b602082019050919050565b5f6020820190508181035f830152617c4681617c0d565b9050919050565b7f72656d6f766500000000000000000000000000000000000000000000000000005f82015250565b5f617c81600683616f87565b9150617c8c82617c4d565b602082019050919050565b5f604082019050617caa5f83018461716f565b8181036020830152617cbb81617c75565b905092915050565b7f53656e6465722069732066726f7a656e000000000000000000000000000000005f82015250565b5f617cf7601083616f87565b9150617d0282617cc3565b602082019050919050565b5f6020820190508181035f830152617d2481617ceb565b9050919050565b7f416d6f756e74206d75737420626520616e20696e7465676572000000000000005f82015250565b5f617d5f601983616f87565b9150617d6a82617d2b565b602082019050919050565b5f6020820190508181035f830152617d8c81617d53565b9050919050565b7f4d656d6265722063616e6e6f74206265207a65726f20616464726573730000005f82015250565b5f617dc7601d83616f87565b9150617dd282617d93565b602082019050919050565b5f6020820190508181035f830152617df481617dbb565b9050919050565b7f4d656d62657220616c72656164792077686974656c69737465640000000000005f82015250565b5f617e2f601a83616f87565b9150617e3a82617dfb565b602082019050919050565b5f6020820190508181035f830152617e5c81617e23565b9050919050565b7f61646400000000000000000000000000000000000000000000000000000000005f82015250565b5f617e97600383616f87565b9150617ea282617e63565b602082019050919050565b5f604082019050617ec05f83018461716f565b8181036020830152617ed181617e8b565b905092915050565b7f4e6f206163746976652070726f706f73616c00000000000000000000000000005f82015250565b5f617f0d601283616f87565b9150617f1882617ed9565b602082019050919050565b5f6020820190508181035f830152617f3a81617f01565b9050919050565b5f81905092915050565b7f756e667265657a650000000000000000000000000000000000000000000000005f82015250565b5f617f7f600883617f41565b9150617f8a82617f4b565b600882019050919050565b5f617f9f82617f73565b9150819050919050565b5f8154617fb5816175e7565b617fbf8186617f41565b9450600182165f8114617fd95760018114617fee57618020565b60ff1983168652811515820286019350618020565b617ff78561794f565b5f5b8381101561801857815481890152600182019150602081019050617ff9565b838801955050505b50505092915050565b5f6180348284617fa9565b915081905092915050565b7f496e76616c69642070726f706f73616c207479706500000000000000000000005f82015250565b5f618073601583616f87565b915061807e8261803f565b602082019050919050565b5f6020820190508181035f8301526180a081618067565b9050919050565b7f4e6f7420656e6f75676820766f746573000000000000000000000000000000005f82015250565b5f6180db601083616f87565b91506180e6826180a7565b602082019050919050565b5f6020820190508181035f830152618108816180cf565b9050919050565b7f496e76616c6964207573657220616464726573730000000000000000000000005f82015250565b5f618143601483616f87565b915061814e8261810f565b602082019050919050565b5f6020820190508181035f83015261817081618137565b9050919050565b7f55736572206e6f742066726f7a656e00000000000000000000000000000000005f82015250565b5f6181ab600f83616f87565b91506181b682618177565b602082019050919050565b5f6020820190508181035f8301526181d88161819f565b9050919050565b5f6181eb600883616f87565b91506181f682617f4b565b602082019050919050565b5f6040820190506182145f83018461716f565b8181036020830152618225816181df565b905092915050565b7f416c726561647920656e6f75676820766f74657320746f2070617573650000005f82015250565b5f618261601d83616f87565b915061826c8261822d565b602082019050919050565b5f6020820190508181035f83015261828e81618255565b9050919050565b7f766f7465727300000000000000000000000000000000000000000000000000005f82015250565b5f6182c9600683617f41565b91506182d482618295565b600682019050919050565b5f6182e9826182bd565b9150819050919050565b7f4368616e6765206e6f7420616c6c6f77656420796574000000000000000000005f82015250565b5f618327601683616f87565b9150618332826182f3565b602082019050919050565b5f6020820190508181035f8301526183548161831b565b9050919050565b7f4e6f20766f746572207265706c6163656d656e742070726f706f7365640000005f82015250565b5f61838f601d83616f87565b915061839a8261835b565b602082019050919050565b5f6020820190508181035f8301526183bc81618383565b9050919050565b7f4e487b71000000000000000000000000000000000000000000000000000000005f52603260045260245ffd5b7f4f6c6420766f746572206e6f7420696e20766f746572206c69737400000000005f82015250565b5f618424601b83616f87565b915061842f826183f0565b602082019050919050565b5f6020820190508181035f83015261845181618418565b9050919050565b7f4e657720766f7465722063616e6e6f74206265207a65726f20616464726573735f82015250565b5f61848c602083616f87565b915061849782618458565b602082019050919050565b5f6020820190508181035f8301526184b981618480565b9050919050565b7f4e657720766f74657220616c726561647920696e20766f746572206c697374005f82015250565b5f6184f4601f83616f87565b91506184ff826184c0565b602082019050919050565b5f6020820190508181035f830152618521816184e8565b9050919050565b7f4475706c6963617465206e657720766f74657273206e6f7420616c6c6f7765645f82015250565b5f61855c602083616f87565b915061856782618528565b602082019050919050565b5f6020820190508181035f83015261858981618550565b9050919050565b5f81549050919050565b5f82825260208201905092915050565b5f819050815f5260205f209050919050565b6185c58161706e565b82525050565b5f6185d683836185bc565b60208301905092915050565b5f815f1c9050919050565b5f73ffffffffffffffffffffffffffffffffffffffff82169050919050565b5f61861e618619836185e2565b6185ed565b9050919050565b5f618630825461860c565b9050919050565b5f600182019050919050565b5f61864d82618590565b618657818561859a565b9350618662836185aa565b805f5b838110156186995761867682618625565b61868088826185cb565b975061868b83618637565b925050600181019050618665565b5085935050505092915050565b5f6040820190508181035f8301526186be8185618643565b905081810360208301526186d28184618643565b90509392505050565b7f667265657a6500000000000000000000000000000000000000000000000000005f82015250565b5f61870f600683617f41565b915061871a826186db565b600682019050919050565b5f61872f82618703565b9150819050919050565b7f5573657220616c72656164792066726f7a656e000000000000000000000000005f82015250565b5f61876d601383616f87565b915061877882618739565b602082019050919050565b5f6020820190508181035f83015261879a81618761565b9050919050565b5f6187ad600683616f87565b91506187b8826186db565b602082019050919050565b5f6040820190506187d65f83018461716f565b81810360208301526187e7816187a1565b905092915050565b7f41646a7573746d656e7420616d6f756e74206d757374206265206e6f6e2d7a655f8201527f726f000000000000000000000000000000000000000000000000000000000000602082015250565b5f618849602283616f87565b9150618854826187ef565b604082019050919050565b5f6020820190508181035f8301526188768161883d565b9050919050565b5f819050919050565b5f6188908261887d565b915061889b8361887d565b92508282019050828112155f8312168382125f8412151617156188c1576188c0617887565b5b92915050565b7f546f74616c20737570706c792063616e6e6f74206265206c657373207468616e5f8201527f206d696e74656420616d6f756e74000000000000000000000000000000000000602082015250565b5f618921602e83616f87565b915061892c826188c7565b604082019050919050565b5f6020820190508181035f83015261894e81618915565b9050919050565b7f546f74616c20737570706c792063616e6e6f74206265206e65676174697665005f82015250565b5f618989601f83616f87565b915061899482618955565b602082019050919050565b5f6020820190508181035f8301526189b68161897d565b9050919050565b5f6040820190506189d05f830185617554565b6189dd602083018461716f565b9392505050565b7f77686974656c6973745f72656d6f7665000000000000000000000000000000005f82015250565b5f618a18601083617f41565b9150618a23826189e4565b601082019050919050565b5f618a3882618a0c565b9150819050919050565b7f496e76616c6964206d656d6265722061646472657373000000000000000000005f82015250565b5f618a76601683616f87565b9150618a8182618a42565b602082019050919050565b5f6020820190508181035f830152618aa381618a6a565b9050919050565b5f618ab48261700d565b9150618abf8361700d565b9250828203905081811115618ad757618ad6617887565b5b92915050565b7f4e487b71000000000000000000000000000000000000000000000000000000005f52603160045260245ffd5b7f557365722063616e6e6f74206265207a65726f206164647265737300000000005f82015250565b5f618b3e601b83616f87565b9150618b4982618b0a565b602082019050919050565b5f6020820190508181035f830152618b6b81618b32565b9050919050565b7f4f6c6420616e64206e657720766f7465727320617272617973206d75737420685f8201527f6176652073616d65206c656e6774680000000000000000000000000000000000602082015250565b5f618bcc602f83616f87565b9150618bd782618b72565b604082019050919050565b5f6020820190508181035f830152618bf981618bc0565b9050919050565b7f4174206c65617374206f6e6520766f746572207265706c6163656d656e7420725f8201527f6571756972656400000000000000000000000000000000000000000000000000602082015250565b5f618c5a602783616f87565b9150618c6582618c00565b604082019050919050565b5f6020820190508181035f830152618c8781618c4e565b9050919050565b5f81519050919050565b5f819050602082019050919050565b5f602082019050919050565b5f618cbd82618c8e565b618cc7818561859a565b9350618cd283618c98565b805f5b83811015618d02578151618ce988826185cb565b9750618cf483618ca7565b925050600181019050618cd5565b5085935050505092915050565b5f6060820190508181035f830152618d278186618cb3565b90508181036020830152618d3b8185618cb3565b9050618d4a604083018461716f565b949350505050565b5f6040820190508181035f830152618d6a8185616fb5565b9050618d79602083018461716f565b9392505050565b7f416c726561647920766f746564000000000000000000000000000000000000005f82015250565b5f618db4600d83616f87565b9150618dbf82618d80565b602082019050919050565b5f6020820190508181035f830152618de181618da8565b9050919050565b7f566f74696e6720697320706175736564000000000000000000000000000000005f82015250565b5f618e1c601083616f87565b9150618e2782618de8565b602082019050919050565b5f6020820190508181035f830152618e4981618e10565b9050919050565b5f618e5a8261700d565b91507fffffffffffffffffffffffffffffffffffffffffffffffffffffffffffffffff8203618e8c57618e8b617887565b5b600182019050919050565b7f77686974656c6973745f616464000000000000000000000000000000000000005f82015250565b5f618ecb600d83617f41565b9150618ed682618e97565b600d82019050919050565b5f618eeb82618ebf565b9150819050919050565b7f6d696e74000000000000000000000000000000000000000000000000000000005f82015250565b5f618f29600483617f41565b9150618f3482618ef5565b600482019050919050565b5f618f4982618f1d565b9150819050919050565b7f6e616d65000000000000000000000000000000000000000000000000000000005f82015250565b5f618f87600483617f41565b9150618f9282618f53565b600482019050919050565b5f618fa782618f7b565b9150819050919050565b7f61646a757374546f74616c537570706c790000000000000000000000000000005f82015250565b5f618fe5601183617f41565b9150618ff082618fb1565b601182019050919050565b5f61900582618fd9565b9150819050919050565b7f446973747269627574696f6e20696e74657276616c206e6f74207265616368655f8201527f6400000000000000000000000000000000000000000000000000000000000000602082015250565b5f619069602183616f87565b91506190748261900f565b604082019050919050565b5f6020820190508181035f8301526190968161905d565b9050919050565b7f4e6f2077686974656c697374206d656d626572730000000000000000000000005f82015250565b5f6190d1601483616f87565b91506190dc8261909d565b602082019050919050565b5f6020820190508181035f8301526190fe816190c5565b9050919050565b5f61910f8261700d565b915061911a8361700d565b92508282026191288161700d565b9150828204841483151761913f5761913e617887565b5b5092915050565b5f6040820190508181035f83015261915e8185618cb3565b905061916d6020830184617016565b9392505050565b7f4f6e6c7920696e69746961746f722063616e2063616e63656c000000000000005f82015250565b5f6191a8601983616f87565b91506191b382619174565b602082019050919050565b5f6020820190508181035f8301526191d58161919c565b9050919050565b7f496e76616c69642070726f706f73616c207479706520666f722063616e63656c5f8201527f6c6174696f6e0000000000000000000000000000000000000000000000000000602082015250565b5f619236602683616f87565b9150619241826191dc565b604082019050919050565b5f6020820190508181035f8301526192638161922a565b9050919050565b7f50726f706f73616c206e6f742079657420617070726f766564000000000000005f82015250565b5f61929e601983616f87565b91506192a98261926a565b602082019050919050565b5f6020820190508181035f8301526192cb81619292565b9050919050565b7f43616e63656c6c6174696f6e2077696e646f7720636c6f7365640000000000005f82015250565b5f619306601a83616f87565b9150619311826192d2565b602082019050919050565b5f6020820190508181035f830152619333816192fa565b9050919050565b7f416c726561647920656e6f75676820766f74657320746f20726573756d6500005f82015250565b5f61936e601e83616f87565b91506193798261933a565b602082019050919050565b5f6020820190508181035f83015261939b81619362565b9050919050565b5f81546193ae816175e7565b6193b88186616f87565b9450600182165f81146193d257600181146193e85761941a565b60ff19831686528115156020028601935061941a565b6193f18561794f565b5f5b83811015619412578154818901526001820191506020810190506193f3565b808801955050505b50505092915050565b5f6020820190508181035f83015261943b81846193a2565b905092915050565b61944c8161704f565b8114619456575f5ffd5b50565b5f8151905061946781619443565b92915050565b5f8160020b9050919050565b6194828161946d565b811461948c575f5ffd5b50565b5f8151905061949d81619479565b92915050565b5f61ffff82169050919050565b6194b9816194a3565b81146194c3575f5ffd5b50565b5f815190506194d4816194b0565b92915050565b6194e381617212565b81146194ed575f5ffd5b50565b5f815190506194fe816194da565b92915050565b61950d81617111565b8114619517575f5ffd5b50565b5f8151905061952881619504565b92915050565b5f5f5f5f5f5f5f60e0888a03121561954957619548617047565b5b5f6195568a828b01619459565b97505060206195678a828b0161948f565b96505060406195788a828b016194c6565b95505060606195898a828b016194c6565b945050608061959a8a828b016194c6565b93505060a06195ab8a828b016194f0565b92505060c06195bc8a828b0161951a565b91505092959891949750929550565b7f4e487b71000000000000000000000000000000000000000000000000000000005f52601260045260245ffd5b5f6196028261700d565b915061960d8361700d565b92508261961d5761961c6195cb565b5b828204905092915050565b7f496e76616c696420726563697069656e742061646472657373000000000000005f82015250565b5f61965c601983616f87565b915061966782619628565b602082019050919050565b5f6020820190508181035f83015261968981619650565b9050919050565b5f6060820190506196a35f83018661716f565b6196b06020830185617016565b6196bd6040830184617016565b94935050505056fea2646970667358221220b8bf644be258edb1a30dfce9c3644046276eeaec160782847e4f9bab254b623064736f6c634300081e0033",
			"opcodes": "PUSH1 0x80 PUSH1 0x40 MSTORE PUSH10 0x69E10DE76676D0800000 PUSH1 0x6 SSTORE CALLVALUE DUP1 ISZERO PUSH2 0x1D JUMPI PUSH0 PUSH0 REVERT JUMPDEST POP PUSH1 0x40 MLOAD PUSH2 0xA357 CODESIZE SUB DUP1 PUSH2 0xA357 DUP4 CODECOPY DUP2 DUP2 ADD PUSH1 0x40 MSTORE DUP2 ADD SWAP1 PUSH2 0x3F SWAP2 SWAP1 PUSH2 0x75D JUMP JUMPDEST CALLER DUP5 PUSH1 0x40 MLOAD DUP1 PUSH1 0x40 ADD PUSH1 0x40 MSTORE DUP1 PUSH1 0x8 DUP2 MSTORE PUSH1 0x20 ADD PUSH32 0x43434B546F6B656E000000000000000000000000000000000000000000000000 DUP2 MSTORE POP DUP2 PUSH1 0x3 SWAP1 DUP2 PUSH2 0x86 SWAP2 SWAP1 PUSH2 0xA25 JUMP JUMPDEST POP DUP1 PUSH1 0x4 SWAP1 DUP2 PUSH2 0x96 SWAP2 SWAP1 PUSH2 0xA25 JUMP JUMPDEST POP POP POP PUSH0 PUSH20 0xFFFFFFFFFFFFFFFFFFFFFFFFFFFFFFFFFFFFFFFF AND DUP2 PUSH20 0xFFFFFFFFFFFFFFFFFFFFFFFFFFFFFFFFFFFFFFFF AND SUB PUSH2 0x109 JUMPI PUSH0 PUSH1 0x40 MLOAD PUSH32 0x1E4FBDF700000000000000000000000000000000000000000000000000000000 DUP2 MSTORE PUSH1 0x4 ADD PUSH2 0x100 SWAP2 SWAP1 PUSH2 0xB03 JUMP JUMPDEST PUSH1 0x40 MLOAD DUP1 SWAP2 SUB SWAP1 REVERT JUMPDEST PUSH2 0x118 DUP2 PUSH2 0x38D PUSH1 0x20 SHL PUSH1 0x20 SHR JUMP JUMPDEST POP PUSH0 DUP4 MLOAD GT PUSH2 0x15C JUMPI PUSH1 0x40 MLOAD PUSH32 0x8C379A000000000000000000000000000000000000000000000000000000000 DUP2 MSTORE PUSH1 0x4 ADD PUSH2 0x153 SWAP1 PUSH2 0xB9C JUMP JUMPDEST PUSH1 0x40 MLOAD DUP1 SWAP2 SUB SWAP1 REVERT JUMPDEST PUSH0 DUP3 MLOAD GT PUSH2 0x19F JUMPI PUSH1 0x40 MLOAD PUSH32 0x8C379A000000000000000000000000000000000000000000000000000000000 DUP2 MSTORE PUSH1 0x4 ADD PUSH2 0x196 SWAP1 PUSH2 0xC04 JUMP JUMPDEST PUSH1 0x40 MLOAD DUP1 SWAP2 SUB SWAP1 REVERT JUMPDEST PUSH0 PUSH0 SWAP1 POP JUMPDEST DUP4 MLOAD DUP2 LT ISZERO PUSH2 0x2A3 JUMPI PUSH1 0x1 PUSH1 0x7 PUSH0 DUP7 DUP5 DUP2 MLOAD DUP2 LT PUSH2 0x1C5 JUMPI PUSH2 0x1C4 PUSH2 0xC22 JUMP JUMPDEST JUMPDEST PUSH1 0x20 MUL PUSH1 0x20 ADD ADD MLOAD PUSH20 0xFFFFFFFFFFFFFFFFFFFFFFFFFFFFFFFFFFFFFFFF AND PUSH20 0xFFFFFFFFFFFFFFFFFFFFFFFFFFFFFFFFFFFFFFFF AND DUP2 MSTORE PUSH1 0x20 ADD SWAP1 DUP2 MSTORE PUSH1 0x20 ADD PUSH0 KECCAK256 PUSH0 PUSH2 0x100 EXP DUP2 SLOAD DUP2 PUSH1 0xFF MUL NOT AND SWAP1 DUP4 ISZERO ISZERO MUL OR SWAP1 SSTORE POP PUSH1 0x8 DUP5 DUP3 DUP2 MLOAD DUP2 LT PUSH2 0x231 JUMPI PUSH2 0x230 PUSH2 0xC22 JUMP JUMPDEST JUMPDEST PUSH1 0x20 MUL PUSH1 0x20 ADD ADD MLOAD SWAP1 DUP1 PUSH1 0x1 DUP2 SLOAD ADD DUP1 DUP3 SSTORE DUP1 SWAP2 POP POP PUSH1 0x1 SWAP1 SUB SWAP1 PUSH0 MSTORE PUSH1 0x20 PUSH0 KECCAK256 ADD PUSH0 SWAP1 SWAP2 SWAP1 SWAP2 SWAP1 SWAP2 PUSH2 0x100 EXP DUP2 SLOAD DUP2 PUSH20 0xFFFFFFFFFFFFFFFFFFFFFFFFFFFFFFFFFFFFFFFF MUL NOT AND SWAP1 DUP4 PUSH20 0xFFFFFFFFFFFFFFFFFFFFFFFFFFFFFFFFFFFFFFFF AND MUL OR SWAP1 SSTORE POP DUP1 DUP1 PUSH1 0x1 ADD SWAP2 POP POP PUSH2 0x1A4 JUMP JUMPDEST POP DUP2 PUSH1 0xD SWAP1 DUP1 MLOAD SWAP1 PUSH1 0x20 ADD SWAP1 PUSH2 0x2BA SWAP3 SWAP2 SWAP1 PUSH2 0x450 JUMP JUMPDEST POP PUSH0 PUSH1 0x10 PUSH0 PUSH2 0x100 EXP DUP2 SLOAD DUP2 PUSH1 0xFF MUL NOT AND SWAP1 DUP4 ISZERO ISZERO MUL OR SWAP1 SSTORE POP PUSH0 PUSH1 0xF DUP2 SWAP1 SSTORE POP PUSH0 PUSH1 0x10 PUSH1 0x1 PUSH2 0x100 EXP DUP2 SLOAD DUP2 PUSH1 0xFF MUL NOT AND SWAP1 DUP4 ISZERO ISZERO MUL OR SWAP1 SSTORE POP PUSH0 PUSH1 0x10 PUSH1 0x2 PUSH2 0x100 EXP DUP2 SLOAD DUP2 PUSH1 0xFF MUL NOT AND SWAP1 DUP4 ISZERO ISZERO MUL OR SWAP1 SSTORE POP DUP1 PUSH1 0xA PUSH0 PUSH2 0x100 EXP DUP2 SLOAD DUP2 PUSH20 0xFFFFFFFFFFFFFFFFFFFFFFFFFFFFFFFFFFFFFFFF MUL NOT AND SWAP1 DUP4 PUSH20 0xFFFFFFFFFFFFFFFFFFFFFFFFFFFFFFFFFFFFFFFF AND MUL OR SWAP1 SSTORE POP DUP4 PUSH1 0xC SWAP1 DUP2 PUSH2 0x35E SWAP2 SWAP1 PUSH2 0xA25 JUMP JUMPDEST POP PUSH1 0x40 MLOAD DUP1 PUSH1 0x20 ADD PUSH1 0x40 MSTORE DUP1 PUSH0 DUP2 MSTORE POP PUSH1 0x11 SWAP1 DUP2 PUSH2 0x37C SWAP2 SWAP1 PUSH2 0xA25 JUMP JUMPDEST POP TIMESTAMP PUSH1 0x20 DUP2 SWAP1 SSTORE POP POP POP POP POP PUSH2 0xC4F JUMP JUMPDEST PUSH0 PUSH1 0x5 PUSH0 SWAP1 SLOAD SWAP1 PUSH2 0x100 EXP SWAP1 DIV PUSH20 0xFFFFFFFFFFFFFFFFFFFFFFFFFFFFFFFFFFFFFFFF AND SWAP1 POP DUP2 PUSH1 0x5 PUSH0 PUSH2 0x100 EXP DUP2 SLOAD DUP2 PUSH20 0xFFFFFFFFFFFFFFFFFFFFFFFFFFFFFFFFFFFFFFFF MUL NOT AND SWAP1 DUP4 PUSH20 0xFFFFFFFFFFFFFFFFFFFFFFFFFFFFFFFFFFFFFFFF AND MUL OR SWAP1 SSTORE POP DUP2 PUSH20 0xFFFFFFFFFFFFFFFFFFFFFFFFFFFFFFFFFFFFFFFF AND DUP2 PUSH20 0xFFFFFFFFFFFFFFFFFFFFFFFFFFFFFFFFFFFFFFFF AND PUSH32 0x8BE0079C531659141344CD1FD0A4F28419497F9722A3DAAFE3B4186F6B6457E0 PUSH1 0x40 MLOAD PUSH1 0x40 MLOAD DUP1 SWAP2 SUB SWAP1 LOG3 POP POP JUMP JUMPDEST DUP3 DUP1 SLOAD DUP3 DUP3 SSTORE SWAP1 PUSH0 MSTORE PUSH1 0x20 PUSH0 KECCAK256 SWAP1 DUP2 ADD SWAP3 DUP3 ISZERO PUSH2 0x4C6 JUMPI SWAP2 PUSH1 0x20 MUL DUP3 ADD JUMPDEST DUP3 DUP2 GT ISZERO PUSH2 0x4C5 JUMPI DUP3 MLOAD DUP3 PUSH0 PUSH2 0x100 EXP DUP2 SLOAD DUP2 PUSH20 0xFFFFFFFFFFFFFFFFFFFFFFFFFFFFFFFFFFFFFFFF MUL NOT AND SWAP1 DUP4 PUSH20 0xFFFFFFFFFFFFFFFFFFFFFFFFFFFFFFFFFFFFFFFF AND MUL OR SWAP1 SSTORE POP SWAP2 PUSH1 0x20 ADD SWAP2 SWAP1 PUSH1 0x1 ADD SWAP1 PUSH2 0x46E JUMP JUMPDEST JUMPDEST POP SWAP1 POP PUSH2 0x4D3 SWAP2 SWAP1 PUSH2 0x4D7 JUMP JUMPDEST POP SWAP1 JUMP JUMPDEST JUMPDEST DUP1 DUP3 GT ISZERO PUSH2 0x4EE JUMPI PUSH0 DUP2 PUSH0 SWAP1 SSTORE POP PUSH1 0x1 ADD PUSH2 0x4D8 JUMP JUMPDEST POP SWAP1 JUMP JUMPDEST PUSH0 PUSH1 0x40 MLOAD SWAP1 POP SWAP1 JUMP JUMPDEST PUSH0 PUSH0 REVERT JUMPDEST PUSH0 PUSH0 REVERT JUMPDEST PUSH0 PUSH0 REVERT JUMPDEST PUSH0 PUSH0 REVERT JUMPDEST PUSH0 PUSH1 0x1F NOT PUSH1 0x1F DUP4 ADD AND SWAP1 POP SWAP2 SWAP1 POP JUMP JUMPDEST PUSH32 0x4E487B7100000000000000000000000000000000000000000000000000000000 PUSH0 MSTORE PUSH1 0x41 PUSH1 0x4 MSTORE PUSH1 0x24 PUSH0 REVERT JUMPDEST PUSH2 0x551 DUP3 PUSH2 0x50B JUMP JUMPDEST DUP2 ADD DUP2 DUP2 LT PUSH8 0xFFFFFFFFFFFFFFFF DUP3 GT OR ISZERO PUSH2 0x570 JUMPI PUSH2 0x56F PUSH2 0x51B JUMP JUMPDEST JUMPDEST DUP1 PUSH1 0x40 MSTORE POP POP POP JUMP JUMPDEST PUSH0 PUSH2 0x582 PUSH2 0x4F2 JUMP JUMPDEST SWAP1 POP PUSH2 0x58E DUP3 DUP3 PUSH2 0x548 JUMP JUMPDEST SWAP2 SWAP1 POP JUMP JUMPDEST PUSH0 PUSH8 0xFFFFFFFFFFFFFFFF DUP3 GT ISZERO PUSH2 0x5AD JUMPI PUSH2 0x5AC PUSH2 0x51B JUMP JUMPDEST JUMPDEST PUSH2 0x5B6 DUP3 PUSH2 0x50B JUMP JUMPDEST SWAP1 POP PUSH1 0x20 DUP2 ADD SWAP1 POP SWAP2 SWAP1 POP JUMP JUMPDEST DUP3 DUP2 DUP4 MCOPY PUSH0 DUP4 DUP4 ADD MSTORE POP POP POP JUMP JUMPDEST PUSH0 PUSH2 0x5E3 PUSH2 0x5DE DUP5 PUSH2 0x593 JUMP JUMPDEST PUSH2 0x579 JUMP JUMPDEST SWAP1 POP DUP3 DUP2 MSTORE PUSH1 0x20 DUP2 ADD DUP5 DUP5 DUP5 ADD GT ISZERO PUSH2 0x5FF JUMPI PUSH2 0x5FE PUSH2 0x507 JUMP JUMPDEST JUMPDEST PUSH2 0x60A DUP5 DUP3 DUP6 PUSH2 0x5C3 JUMP JUMPDEST POP SWAP4 SWAP3 POP POP POP JUMP JUMPDEST PUSH0 DUP3 PUSH1 0x1F DUP4 ADD SLT PUSH2 0x626 JUMPI PUSH2 0x625 PUSH2 0x503 JUMP JUMPDEST JUMPDEST DUP2 MLOAD PUSH2 0x636 DUP5 DUP3 PUSH1 0x20 DUP7 ADD PUSH2 0x5D1 JUMP JUMPDEST SWAP2 POP POP SWAP3 SWAP2 POP POP JUMP JUMPDEST PUSH0 PUSH8 0xFFFFFFFFFFFFFFFF DUP3 GT ISZERO PUSH2 0x659 JUMPI PUSH2 0x658 PUSH2 0x51B JUMP JUMPDEST JUMPDEST PUSH1 0x20 DUP3 MUL SWAP1 POP PUSH1 0x20 DUP2 ADD SWAP1 POP SWAP2 SWAP1 POP JUMP JUMPDEST PUSH0 PUSH0 REVERT JUMPDEST PUSH0 PUSH20 0xFFFFFFFFFFFFFFFFFFFFFFFFFFFFFFFFFFFFFFFF DUP3 AND SWAP1 POP SWAP2 SWAP1 POP JUMP JUMPDEST PUSH0 PUSH2 0x697 DUP3 PUSH2 0x66E JUMP JUMPDEST SWAP1 POP SWAP2 SWAP1 POP JUMP JUMPDEST PUSH2 0x6A7 DUP2 PUSH2 0x68D JUMP JUMPDEST DUP2 EQ PUSH2 0x6B1 JUMPI PUSH0 PUSH0 REVERT JUMPDEST POP JUMP JUMPDEST PUSH0 DUP2 MLOAD SWAP1 POP PUSH2 0x6C2 DUP2 PUSH2 0x69E JUMP JUMPDEST SWAP3 SWAP2 POP POP JUMP JUMPDEST PUSH0 PUSH2 0x6DA PUSH2 0x6D5 DUP5 PUSH2 0x63F JUMP JUMPDEST PUSH2 0x579 JUMP JUMPDEST SWAP1 POP DUP1 DUP4 DUP3 MSTORE PUSH1 0x20 DUP3 ADD SWAP1 POP PUSH1 0x20 DUP5 MUL DUP4 ADD DUP6 DUP2 GT ISZERO PUSH2 0x6FD JUMPI PUSH2 0x6FC PUSH2 0x66A JUMP JUMPDEST JUMPDEST DUP4 JUMPDEST DUP2 DUP2 LT ISZERO PUSH2 0x726 JUMPI DUP1 PUSH2 0x712 DUP9 DUP3 PUSH2 0x6B4 JUMP JUMPDEST DUP5 MSTORE PUSH1 0x20 DUP5 ADD SWAP4 POP POP PUSH1 0x20 DUP2 ADD SWAP1 POP PUSH2 0x6FF JUMP JUMPDEST POP POP POP SWAP4 SWAP3 POP POP POP JUMP JUMPDEST PUSH0 DUP3 PUSH1 0x1F DUP4 ADD SLT PUSH2 0x744 JUMPI PUSH2 0x743 PUSH2 0x503 JUMP JUMPDEST JUMPDEST DUP2 MLOAD PUSH2 0x754 DUP5 DUP3 PUSH1 0x20 DUP7 ADD PUSH2 0x6C8 JUMP JUMPDEST SWAP2 POP POP SWAP3 SWAP2 POP POP JUMP JUMPDEST PUSH0 PUSH0 PUSH0 PUSH0 PUSH1 0x80 DUP6 DUP8 SUB SLT ISZERO PUSH2 0x775 JUMPI PUSH2 0x774 PUSH2 0x4FB JUMP JUMPDEST JUMPDEST PUSH0 DUP6 ADD MLOAD PUSH8 0xFFFFFFFFFFFFFFFF DUP2 GT ISZERO PUSH2 0x792 JUMPI PUSH2 0x791 PUSH2 0x4FF JUMP JUMPDEST JUMPDEST PUSH2 0x79E DUP8 DUP3 DUP9 ADD PUSH2 0x612 JUMP JUMPDEST SWAP5 POP POP PUSH1 0x20 DUP6 ADD MLOAD PUSH8 0xFFFFFFFFFFFFFFFF DUP2 GT ISZERO PUSH2 0x7BF JUMPI PUSH2 0x7BE PUSH2 0x4FF JUMP JUMPDEST JUMPDEST PUSH2 0x7CB DUP8 DUP3 DUP9 ADD PUSH2 0x730 JUMP JUMPDEST SWAP4 POP POP PUSH1 0x40 DUP6 ADD MLOAD PUSH8 0xFFFFFFFFFFFFFFFF DUP2 GT ISZERO PUSH2 0x7EC JUMPI PUSH2 0x7EB PUSH2 0x4FF JUMP JUMPDEST JUMPDEST PUSH2 0x7F8 DUP8 DUP3 DUP9 ADD PUSH2 0x730 JUMP JUMPDEST SWAP3 POP POP PUSH1 0x60 PUSH2 0x809 DUP8 DUP3 DUP9 ADD PUSH2 0x6B4 JUMP JUMPDEST SWAP2 POP POP SWAP3 SWAP6 SWAP2 SWAP5 POP SWAP3 POP JUMP JUMPDEST PUSH0 DUP2 MLOAD SWAP1 POP SWAP2 SWAP1 POP JUMP JUMPDEST PUSH32 0x4E487B7100000000000000000000000000000000000000000000000000000000 PUSH0 MSTORE PUSH1 0x22 PUSH1 0x4 MSTORE PUSH1 0x24 PUSH0 REVERT JUMPDEST PUSH0 PUSH1 0x2 DUP3 DIV SWAP1 POP PUSH1 0x1 DUP3 AND DUP1 PUSH2 0x863 JUMPI PUSH1 0x7F DUP3 AND SWAP2 POP JUMPDEST PUSH1 0x20 DUP3 LT DUP2 SUB PUSH2 0x876 JUMPI PUSH2 0x875 PUSH2 0x81F JUMP JUMPDEST JUMPDEST POP SWAP2 SWAP1 POP JUMP JUMPDEST PUSH0 DUP2 SWAP1 POP DUP2 PUSH0 MSTORE PUSH1 0x20 PUSH0 KECCAK256 SWAP1 POP SWAP2 SWAP1 POP JUMP JUMPDEST PUSH0 PUSH1 0x20 PUSH1 0x1F DUP4 ADD DIV SWAP1 POP SWAP2 SWAP1 POP JUMP JUMPDEST PUSH0 DUP3 DUP3 SHL SWAP1 POP SWAP3 SWAP2 POP POP JUMP JUMPDEST PUSH0 PUSH1 0x8 DUP4 MUL PUSH2 0x8D8 PUSH32 0xFFFFFFFFFFFFFFFFFFFFFFFFFFFFFFFFFFFFFFFFFFFFFFFFFFFFFFFFFFFFFFFF DUP3 PUSH2 0x89D JUMP JUMPDEST PUSH2 0x8E2 DUP7 DUP4 PUSH2 0x89D JUMP JUMPDEST SWAP6 POP DUP1 NOT DUP5 AND SWAP4 POP DUP1 DUP7 AND DUP5 OR SWAP3 POP POP POP SWAP4 SWAP3 POP POP POP JUMP JUMPDEST PUSH0 DUP2 SWAP1 POP SWAP2 SWAP1 POP JUMP JUMPDEST PUSH0 DUP2 SWAP1 POP SWAP2 SWAP1 POP JUMP JUMPDEST PUSH0 PUSH2 0x926 PUSH2 0x921 PUSH2 0x91C DUP5 PUSH2 0x8FA JUMP JUMPDEST PUSH2 0x903 JUMP JUMPDEST PUSH2 0x8FA JUMP JUMPDEST SWAP1 POP SWAP2 SWAP1 POP JUMP JUMPDEST PUSH0 DUP2 SWAP1 POP SWAP2 SWAP1 POP JUMP JUMPDEST PUSH2 0x93F DUP4 PUSH2 0x90C JUMP JUMPDEST PUSH2 0x953 PUSH2 0x94B DUP3 PUSH2 0x92D JUMP JUMPDEST DUP5 DUP5 SLOAD PUSH2 0x8A9 JUMP JUMPDEST DUP3 SSTORE POP POP POP POP JUMP JUMPDEST PUSH0 PUSH0 SWAP1 POP SWAP1 JUMP JUMPDEST PUSH2 0x96A PUSH2 0x95B JUMP JUMPDEST PUSH2 0x975 DUP2 DUP5 DUP5 PUSH2 0x936 JUMP JUMPDEST POP POP POP JUMP JUMPDEST JUMPDEST DUP2 DUP2 LT ISZERO PUSH2 0x998 JUMPI PUSH2 0x98D PUSH0 DUP3 PUSH2 0x962 JUMP JUMPDEST PUSH1 0x1 DUP2 ADD SWAP1 POP PUSH2 0x97B JUMP JUMPDEST POP POP JUMP JUMPDEST PUSH1 0x1F DUP3 GT ISZERO PUSH2 0x9DD JUMPI PUSH2 0x9AE DUP2 PUSH2 0x87C JUMP JUMPDEST PUSH2 0x9B7 DUP5 PUSH2 0x88E JUMP JUMPDEST DUP2 ADD PUSH1 0x20 DUP6 LT ISZERO PUSH2 0x9C6 JUMPI DUP2 SWAP1 POP JUMPDEST PUSH2 0x9DA PUSH2 0x9D2 DUP6 PUSH2 0x88E JUMP JUMPDEST DUP4 ADD DUP3 PUSH2 0x97A JUMP JUMPDEST POP POP JUMPDEST POP POP POP JUMP JUMPDEST PUSH0 DUP3 DUP3 SHR SWAP1 POP SWAP3 SWAP2 POP POP JUMP JUMPDEST PUSH0 PUSH2 0x9FD PUSH0 NOT DUP5 PUSH1 0x8 MUL PUSH2 0x9E2 JUMP JUMPDEST NOT DUP1 DUP4 AND SWAP2 POP POP SWAP3 SWAP2 POP POP JUMP JUMPDEST PUSH0 PUSH2 0xA15 DUP4 DUP4 PUSH2 0x9EE JUMP JUMPDEST SWAP2 POP DUP3 PUSH1 0x2 MUL DUP3 OR SWAP1 POP SWAP3 SWAP2 POP POP JUMP JUMPDEST PUSH2 0xA2E DUP3 PUSH2 0x815 JUMP JUMPDEST PUSH8 0xFFFFFFFFFFFFFFFF DUP2 GT ISZERO PUSH2 0xA47 JUMPI PUSH2 0xA46 PUSH2 0x51B JUMP JUMPDEST JUMPDEST PUSH2 0xA51 DUP3 SLOAD PUSH2 0x84C JUMP JUMPDEST PUSH2 0xA5C DUP3 DUP3 DUP6 PUSH2 0x99C JUMP JUMPDEST PUSH0 PUSH1 0x20 SWAP1 POP PUSH1 0x1F DUP4 GT PUSH1 0x1 DUP2 EQ PUSH2 0xA8D JUMPI PUSH0 DUP5 ISZERO PUSH2 0xA7B JUMPI DUP3 DUP8 ADD MLOAD SWAP1 POP JUMPDEST PUSH2 0xA85 DUP6 DUP3 PUSH2 0xA0A JUMP JUMPDEST DUP7 SSTORE POP PUSH2 0xAEC JUMP JUMPDEST PUSH1 0x1F NOT DUP5 AND PUSH2 0xA9B DUP7 PUSH2 0x87C JUMP JUMPDEST PUSH0 JUMPDEST DUP3 DUP2 LT ISZERO PUSH2 0xAC2 JUMPI DUP5 DUP10 ADD MLOAD DUP3 SSTORE PUSH1 0x1 DUP3 ADD SWAP2 POP PUSH1 0x20 DUP6 ADD SWAP5 POP PUSH1 0x20 DUP2 ADD SWAP1 POP PUSH2 0xA9D JUMP JUMPDEST DUP7 DUP4 LT ISZERO PUSH2 0xADF JUMPI DUP5 DUP10 ADD MLOAD PUSH2 0xADB PUSH1 0x1F DUP10 AND DUP3 PUSH2 0x9EE JUMP JUMPDEST DUP4 SSTORE POP JUMPDEST PUSH1 0x1 PUSH1 0x2 DUP9 MUL ADD DUP9 SSTORE POP POP POP JUMPDEST POP POP POP POP POP POP JUMP JUMPDEST PUSH2 0xAFD DUP2 PUSH2 0x68D JUMP JUMPDEST DUP3 MSTORE POP POP JUMP JUMPDEST PUSH0 PUSH1 0x20 DUP3 ADD SWAP1 POP PUSH2 0xB16 PUSH0 DUP4 ADD DUP5 PUSH2 0xAF4 JUMP JUMPDEST SWAP3 SWAP2 POP POP JUMP JUMPDEST PUSH0 DUP3 DUP3 MSTORE PUSH1 0x20 DUP3 ADD SWAP1 POP SWAP3 SWAP2 POP POP JUMP JUMPDEST PUSH32 0x4174206C65617374206F6E652077686974656C69737465642061646472657373 PUSH0 DUP3 ADD MSTORE PUSH32 0x2072657175697265640000000000000000000000000000000000000000000000 PUSH1 0x20 DUP3 ADD MSTORE POP JUMP JUMPDEST PUSH0 PUSH2 0xB86 PUSH1 0x29 DUP4 PUSH2 0xB1C JUMP JUMPDEST SWAP2 POP PUSH2 0xB91 DUP3 PUSH2 0xB2C JUMP JUMPDEST PUSH1 0x40 DUP3 ADD SWAP1 POP SWAP2 SWAP1 POP JUMP JUMPDEST PUSH0 PUSH1 0x20 DUP3 ADD SWAP1 POP DUP2 DUP2 SUB PUSH0 DUP4 ADD MSTORE PUSH2 0xBB3 DUP2 PUSH2 0xB7A JUMP JUMPDEST SWAP1 POP SWAP2 SWAP1 POP JUMP JUMPDEST PUSH32 0x4174206C65617374206F6E6520766F7465722072657175697265640000000000 PUSH0 DUP3 ADD MSTORE POP JUMP JUMPDEST PUSH0 PUSH2 0xBEE PUSH1 0x1B DUP4 PUSH2 0xB1C JUMP JUMPDEST SWAP2 POP PUSH2 0xBF9 DUP3 PUSH2 0xBBA JUMP JUMPDEST PUSH1 0x20 DUP3 ADD SWAP1 POP SWAP2 SWAP1 POP JUMP JUMPDEST PUSH0 PUSH1 0x20 DUP3 ADD SWAP1 POP DUP2 DUP2 SUB PUSH0 DUP4 ADD MSTORE PUSH2 0xC1B DUP2 PUSH2 0xBE2 JUMP JUMPDEST SWAP1 POP SWAP2 SWAP1 POP JUMP JUMPDEST PUSH32 0x4E487B7100000000000000000000000000000000000000000000000000000000 PUSH0 MSTORE PUSH1 0x32 PUSH1 0x4 MSTORE PUSH1 0x24 PUSH0 REVERT JUMPDEST PUSH2 0x96FB DUP1 PUSH2 0xC5C PUSH0 CODECOPY PUSH0 RETURN INVALID PUSH1 0x80 PUSH1 0x40 MSTORE CALLVALUE DUP1 ISZERO PUSH2 0xF JUMPI PUSH0 PUSH0 REVERT JUMPDEST POP PUSH1 0x4 CALLDATASIZE LT PUSH2 0x473 JUMPI PUSH0 CALLDATALOAD PUSH1 0xE0 SHR DUP1 PUSH4 0x6290865D GT PUSH2 0x255 JUMPI DUP1 PUSH4 0xABA63705 GT PUSH2 0x144 JUMPI DUP1 PUSH4 0xDA0239A6 GT PUSH2 0xC1 JUMPI DUP1 PUSH4 0xEEB79D40 GT PUSH2 0x85 JUMPI DUP1 PUSH4 0xEEB79D40 EQ PUSH2 0xD09 JUMPI DUP1 PUSH4 0xF2FDE38B EQ PUSH2 0xD13 JUMPI DUP1 PUSH4 0xF36E32CC EQ PUSH2 0xD2F JUMPI DUP1 PUSH4 0xF3CDCD1E EQ PUSH2 0xD4D JUMPI DUP1 PUSH4 0xFF8F164F EQ PUSH2 0xD57 JUMPI PUSH2 0x473 JUMP JUMPDEST DUP1 PUSH4 0xDA0239A6 EQ PUSH2 0xC3D JUMPI DUP1 PUSH4 0xDA58C7D9 EQ PUSH2 0xC5B JUMPI DUP1 PUSH4 0xDD62ED3E EQ PUSH2 0xC8B JUMPI DUP1 PUSH4 0xE5839836 EQ PUSH2 0xCBB JUMPI DUP1 PUSH4 0xEB91D37E EQ PUSH2 0xCEB JUMPI PUSH2 0x473 JUMP JUMPDEST DUP1 PUSH4 0xC20A25B5 GT PUSH2 0x108 JUMPI DUP1 PUSH4 0xC20A25B5 EQ PUSH2 0xBBD JUMPI DUP1 PUSH4 0xC4BC5DA5 EQ PUSH2 0xBDB JUMPI DUP1 PUSH4 0xC6384071 EQ PUSH2 0xBE5 JUMPI DUP1 PUSH4 0xD0516650 EQ PUSH2 0xC03 JUMPI DUP1 PUSH4 0xD9A7430E EQ PUSH2 0xC33 JUMPI PUSH2 0x473 JUMP JUMPDEST DUP1 PUSH4 0xABA63705 EQ PUSH2 0xB3B JUMPI DUP1 PUSH4 0xAE3877E0 EQ PUSH2 0xB59 JUMPI DUP1 PUSH4 0xAE66C9EA EQ PUSH2 0xB77 JUMPI DUP1 PUSH4 0xB0A9F28D EQ PUSH2 0xB95 JUMPI DUP1 PUSH4 0xBDD3D825 EQ PUSH2 0xB9F JUMPI PUSH2 0x473 JUMP JUMPDEST DUP1 PUSH4 0x884FA57B GT PUSH2 0x1D2 JUMPI DUP1 PUSH4 0x9070577F GT PUSH2 0x196 JUMPI DUP1 PUSH4 0x9070577F EQ PUSH2 0xA95 JUMPI DUP1 PUSH4 0x95D89B41 EQ PUSH2 0xA9F JUMPI DUP1 PUSH4 0x96F66144 EQ PUSH2 0xABD JUMPI DUP1 PUSH4 0x9B19251A EQ PUSH2 0xADB JUMPI DUP1 PUSH4 0xA9059CBB EQ PUSH2 0xB0B JUMPI PUSH2 0x473 JUMP JUMPDEST DUP1 PUSH4 0x884FA57B EQ PUSH2 0x9ED JUMPI DUP1 PUSH4 0x8A67456A EQ PUSH2 0xA1D JUMPI DUP1 PUSH4 0x8CDEEFBD EQ PUSH2 0xA3B JUMPI DUP1 PUSH4 0x8DA5CB5B EQ PUSH2 0xA59 JUMPI DUP1 PUSH4 0x902D55A5 EQ PUSH2 0xA77 JUMPI PUSH2 0x473 JUMP JUMPDEST DUP1 PUSH4 0x70A08231 GT PUSH2 0x219 JUMPI DUP1 PUSH4 0x70A08231 EQ PUSH2 0x96F JUMPI DUP1 PUSH4 0x715018A6 EQ PUSH2 0x99F JUMPI DUP1 PUSH4 0x7AFDF93E EQ PUSH2 0x9A9 JUMPI DUP1 PUSH4 0x80E79A36 EQ PUSH2 0x9B3 JUMPI DUP1 PUSH4 0x850AE8A3 EQ PUSH2 0x9BD JUMPI PUSH2 0x473 JUMP JUMPDEST DUP1 PUSH4 0x6290865D EQ PUSH2 0x901 JUMPI DUP1 PUSH4 0x632A9A52 EQ PUSH2 0x91F JUMPI DUP1 PUSH4 0x697199C5 EQ PUSH2 0x929 JUMPI DUP1 PUSH4 0x6C02A931 EQ PUSH2 0x947 JUMPI DUP1 PUSH4 0x7094741D EQ PUSH2 0x965 JUMPI PUSH2 0x473 JUMP JUMPDEST DUP1 PUSH4 0x351D9F96 GT PUSH2 0x371 JUMPI DUP1 PUSH4 0x4BC27B3C GT PUSH2 0x2EE JUMPI DUP1 PUSH4 0x583007BD GT PUSH2 0x2B2 JUMPI DUP1 PUSH4 0x583007BD EQ PUSH2 0x86F JUMPI DUP1 PUSH4 0x5AA15E6B EQ PUSH2 0x88D JUMPI DUP1 PUSH4 0x5C975ABB EQ PUSH2 0x8AB JUMPI DUP1 PUSH4 0x5FC6E6E6 EQ PUSH2 0x8C9 JUMPI DUP1 PUSH4 0x60B8594D EQ PUSH2 0x8E5 JUMPI PUSH2 0x473 JUMP JUMPDEST DUP1 PUSH4 0x4BC27B3C EQ PUSH2 0x7EF JUMPI DUP1 PUSH4 0x501D6B57 EQ PUSH2 0x80D JUMPI DUP1 PUSH4 0x53030455 EQ PUSH2 0x82B JUMPI DUP1 PUSH4 0x54FD4D50 EQ PUSH2 0x835 JUMPI DUP1 PUSH4 0x58105210 EQ PUSH2 0x853 JUMPI PUSH2 0x473 JUMP JUMPDEST DUP1 PUSH4 0x439766CE GT PUSH2 0x335 JUMPI DUP1 PUSH4 0x439766CE EQ PUSH2 0x797 JUMPI DUP1 PUSH4 0x45F4D2A5 EQ PUSH2 0x7A1 JUMPI DUP1 PUSH4 0x4784BBED EQ PUSH2 0x7AB JUMPI DUP1 PUSH4 0x48A33082 EQ PUSH2 0x7B5 JUMPI DUP1 PUSH4 0x4BB91587 EQ PUSH2 0x7D3 JUMPI PUSH2 0x473 JUMP JUMPDEST DUP1 PUSH4 0x351D9F96 EQ PUSH2 0x719 JUMPI DUP1 PUSH4 0x37D428EB EQ PUSH2 0x737 JUMPI DUP1 PUSH4 0x3C9EDEB2 EQ PUSH2 0x753 JUMPI DUP1 PUSH4 0x3CF37361 EQ PUSH2 0x75D JUMPI DUP1 PUSH4 0x3F99075B EQ PUSH2 0x77B JUMPI PUSH2 0x473 JUMP JUMPDEST DUP1 PUSH4 0x15D4C5D5 GT PUSH2 0x3FF JUMPI DUP1 PUSH4 0x23B872DD GT PUSH2 0x3C3 JUMPI DUP1 PUSH4 0x23B872DD EQ PUSH2 0x671 JUMPI DUP1 PUSH4 0x2D380242 EQ PUSH2 0x6A1 JUMPI DUP1 PUSH4 0x2DE56555 EQ PUSH2 0x6BF JUMPI DUP1 PUSH4 0x302C464A EQ PUSH2 0x6DD JUMPI DUP1 PUSH4 0x313CE567 EQ PUSH2 0x6FB JUMPI PUSH2 0x473 JUMP JUMPDEST DUP1 PUSH4 0x15D4C5D5 EQ PUSH2 0x5CD JUMPI DUP1 PUSH4 0x18160DDD EQ PUSH2 0x5E9 JUMPI DUP1 PUSH4 0x19A5ECD5 EQ PUSH2 0x607 JUMPI DUP1 PUSH4 0x20950933 EQ PUSH2 0x623 JUMPI DUP1 PUSH4 0x2202CBFA EQ PUSH2 0x641 JUMPI PUSH2 0x473 JUMP JUMPDEST DUP1 PUSH4 0x95EA7B3 GT PUSH2 0x446 JUMPI DUP1 PUSH4 0x95EA7B3 EQ PUSH2 0x4EF JUMPI DUP1 PUSH4 0x9EEF43E EQ PUSH2 0x51F JUMPI DUP1 PUSH4 0x12CAE7AF EQ PUSH2 0x54F JUMPI DUP1 PUSH4 0x134E18F4 EQ PUSH2 0x57F JUMPI DUP1 PUSH4 0x158B1A57 EQ PUSH2 0x59D JUMPI PUSH2 0x473 JUMP JUMPDEST DUP1 PUSH4 0x6854B2C EQ PUSH2 0x477 JUMPI DUP1 PUSH4 0x6FDDE03 EQ PUSH2 0x495 JUMPI DUP1 PUSH4 0x811A0CF EQ PUSH2 0x4B3 JUMPI DUP1 PUSH4 0x8B26B75 EQ PUSH2 0x4D1 JUMPI JUMPDEST PUSH0 PUSH0 REVERT JUMPDEST PUSH2 0x47F PUSH2 0xD75 JUMP JUMPDEST PUSH1 0x40 MLOAD PUSH2 0x48C SWAP2 SWAP1 PUSH2 0x6FED JUMP JUMPDEST PUSH1 0x40 MLOAD DUP1 SWAP2 SUB SWAP1 RETURN JUMPDEST PUSH2 0x49D PUSH2 0xE01 JUMP JUMPDEST PUSH1 0x40 MLOAD PUSH2 0x4AA SWAP2 SWAP1 PUSH2 0x6FED JUMP JUMPDEST PUSH1 0x40 MLOAD DUP1 SWAP2 SUB SWAP1 RETURN JUMPDEST PUSH2 0x4BB PUSH2 0xE91 JUMP JUMPDEST PUSH1 0x40 MLOAD PUSH2 0x4C8 SWAP2 SWAP1 PUSH2 0x7025 JUMP JUMPDEST PUSH1 0x40 MLOAD DUP1 SWAP2 SUB SWAP1 RETURN JUMPDEST PUSH2 0x4D9 PUSH2 0xE97 JUMP JUMPDEST PUSH1 0x40 MLOAD PUSH2 0x4E6 SWAP2 SWAP1 PUSH2 0x7025 JUMP JUMPDEST PUSH1 0x40 MLOAD DUP1 SWAP2 SUB SWAP1 RETURN JUMPDEST PUSH2 0x509 PUSH1 0x4 DUP1 CALLDATASIZE SUB DUP2 ADD SWAP1 PUSH2 0x504 SWAP2 SWAP1 PUSH2 0x70D3 JUMP JUMPDEST PUSH2 0xE9D JUMP JUMPDEST PUSH1 0x40 MLOAD PUSH2 0x516 SWAP2 SWAP1 PUSH2 0x712B JUMP JUMPDEST PUSH1 0x40 MLOAD DUP1 SWAP2 SUB SWAP1 RETURN JUMPDEST PUSH2 0x539 PUSH1 0x4 DUP1 CALLDATASIZE SUB DUP2 ADD SWAP1 PUSH2 0x534 SWAP2 SWAP1 PUSH2 0x7144 JUMP JUMPDEST PUSH2 0xEBF JUMP JUMPDEST PUSH1 0x40 MLOAD PUSH2 0x546 SWAP2 SWAP1 PUSH2 0x712B JUMP JUMPDEST PUSH1 0x40 MLOAD DUP1 SWAP2 SUB SWAP1 RETURN JUMPDEST PUSH2 0x569 PUSH1 0x4 DUP1 CALLDATASIZE SUB DUP2 ADD SWAP1 PUSH2 0x564 SWAP2 SWAP1 PUSH2 0x7144 JUMP JUMPDEST PUSH2 0xEDC JUMP JUMPDEST PUSH1 0x40 MLOAD PUSH2 0x576 SWAP2 SWAP1 PUSH2 0x7025 JUMP JUMPDEST PUSH1 0x40 MLOAD DUP1 SWAP2 SUB SWAP1 RETURN JUMPDEST PUSH2 0x587 PUSH2 0xEED JUMP JUMPDEST PUSH1 0x40 MLOAD PUSH2 0x594 SWAP2 SWAP1 PUSH2 0x717E JUMP JUMPDEST PUSH1 0x40 MLOAD DUP1 SWAP2 SUB SWAP1 RETURN JUMPDEST PUSH2 0x5B7 PUSH1 0x4 DUP1 CALLDATASIZE SUB DUP2 ADD SWAP1 PUSH2 0x5B2 SWAP2 SWAP1 PUSH2 0x7144 JUMP JUMPDEST PUSH2 0xEF4 JUMP JUMPDEST PUSH1 0x40 MLOAD PUSH2 0x5C4 SWAP2 SWAP1 PUSH2 0x7025 JUMP JUMPDEST PUSH1 0x40 MLOAD DUP1 SWAP2 SUB SWAP1 RETURN JUMPDEST PUSH2 0x5E7 PUSH1 0x4 DUP1 CALLDATASIZE SUB DUP2 ADD SWAP1 PUSH2 0x5E2 SWAP2 SWAP1 PUSH2 0x70D3 JUMP JUMPDEST PUSH2 0xEFD JUMP JUMPDEST STOP JUMPDEST PUSH2 0x5F1 PUSH2 0x1261 JUMP JUMPDEST PUSH1 0x40 MLOAD PUSH2 0x5FE SWAP2 SWAP1 PUSH2 0x7025 JUMP JUMPDEST PUSH1 0x40 MLOAD DUP1 SWAP2 SUB SWAP1 RETURN JUMPDEST PUSH2 0x621 PUSH1 0x4 DUP1 CALLDATASIZE SUB DUP2 ADD SWAP1 PUSH2 0x61C SWAP2 SWAP1 PUSH2 0x7144 JUMP JUMPDEST PUSH2 0x126A JUMP JUMPDEST STOP JUMPDEST PUSH2 0x62B PUSH2 0x1507 JUMP JUMPDEST PUSH1 0x40 MLOAD PUSH2 0x638 SWAP2 SWAP1 PUSH2 0x7025 JUMP JUMPDEST PUSH1 0x40 MLOAD DUP1 SWAP2 SUB SWAP1 RETURN JUMPDEST PUSH2 0x65B PUSH1 0x4 DUP1 CALLDATASIZE SUB DUP2 ADD SWAP1 PUSH2 0x656 SWAP2 SWAP1 PUSH2 0x7197 JUMP JUMPDEST PUSH2 0x150D JUMP JUMPDEST PUSH1 0x40 MLOAD PUSH2 0x668 SWAP2 SWAP1 PUSH2 0x717E JUMP JUMPDEST PUSH1 0x40 MLOAD DUP1 SWAP2 SUB SWAP1 RETURN JUMPDEST PUSH2 0x68B PUSH1 0x4 DUP1 CALLDATASIZE SUB DUP2 ADD SWAP1 PUSH2 0x686 SWAP2 SWAP1 PUSH2 0x71C2 JUMP JUMPDEST PUSH2 0x1548 JUMP JUMPDEST PUSH1 0x40 MLOAD PUSH2 0x698 SWAP2 SWAP1 PUSH2 0x712B JUMP JUMPDEST PUSH1 0x40 MLOAD DUP1 SWAP2 SUB SWAP1 RETURN JUMPDEST PUSH2 0x6A9 PUSH2 0x168B JUMP JUMPDEST PUSH1 0x40 MLOAD PUSH2 0x6B6 SWAP2 SWAP1 PUSH2 0x7025 JUMP JUMPDEST PUSH1 0x40 MLOAD DUP1 SWAP2 SUB SWAP1 RETURN JUMPDEST PUSH2 0x6C7 PUSH2 0x1691 JUMP JUMPDEST PUSH1 0x40 MLOAD PUSH2 0x6D4 SWAP2 SWAP1 PUSH2 0x7025 JUMP JUMPDEST PUSH1 0x40 MLOAD DUP1 SWAP2 SUB SWAP1 RETURN JUMPDEST PUSH2 0x6E5 PUSH2 0x1696 JUMP JUMPDEST PUSH1 0x40 MLOAD PUSH2 0x6F2 SWAP2 SWAP1 PUSH2 0x7025 JUMP JUMPDEST PUSH1 0x40 MLOAD DUP1 SWAP2 SUB SWAP1 RETURN JUMPDEST PUSH2 0x703 PUSH2 0x169B JUMP JUMPDEST PUSH1 0x40 MLOAD PUSH2 0x710 SWAP2 SWAP1 PUSH2 0x722D JUMP JUMPDEST PUSH1 0x40 MLOAD DUP1 SWAP2 SUB SWAP1 RETURN JUMPDEST PUSH2 0x721 PUSH2 0x16A2 JUMP JUMPDEST PUSH1 0x40 MLOAD PUSH2 0x72E SWAP2 SWAP1 PUSH2 0x6FED JUMP JUMPDEST PUSH1 0x40 MLOAD DUP1 SWAP2 SUB SWAP1 RETURN JUMPDEST PUSH2 0x751 PUSH1 0x4 DUP1 CALLDATASIZE SUB DUP2 ADD SWAP1 PUSH2 0x74C SWAP2 SWAP1 PUSH2 0x7144 JUMP JUMPDEST PUSH2 0x172E JUMP JUMPDEST STOP JUMPDEST PUSH2 0x75B PUSH2 0x1A3A JUMP JUMPDEST STOP JUMPDEST PUSH2 0x765 PUSH2 0x1E1B JUMP JUMPDEST PUSH1 0x40 MLOAD PUSH2 0x772 SWAP2 SWAP1 PUSH2 0x7025 JUMP JUMPDEST PUSH1 0x40 MLOAD DUP1 SWAP2 SUB SWAP1 RETURN JUMPDEST PUSH2 0x795 PUSH1 0x4 DUP1 CALLDATASIZE SUB DUP2 ADD SWAP1 PUSH2 0x790 SWAP2 SWAP1 PUSH2 0x7144 JUMP JUMPDEST PUSH2 0x1E21 JUMP JUMPDEST STOP JUMPDEST PUSH2 0x79F PUSH2 0x20BE JUMP JUMPDEST STOP JUMPDEST PUSH2 0x7A9 PUSH2 0x21F3 JUMP JUMPDEST STOP JUMPDEST PUSH2 0x7B3 PUSH2 0x2926 JUMP JUMPDEST STOP JUMPDEST PUSH2 0x7BD PUSH2 0x2D09 JUMP JUMPDEST PUSH1 0x40 MLOAD PUSH2 0x7CA SWAP2 SWAP1 PUSH2 0x7025 JUMP JUMPDEST PUSH1 0x40 MLOAD DUP1 SWAP2 SUB SWAP1 RETURN JUMPDEST PUSH2 0x7ED PUSH1 0x4 DUP1 CALLDATASIZE SUB DUP2 ADD SWAP1 PUSH2 0x7E8 SWAP2 SWAP1 PUSH2 0x727C JUMP JUMPDEST PUSH2 0x2D0F JUMP JUMPDEST STOP JUMPDEST PUSH2 0x7F7 PUSH2 0x2FF8 JUMP JUMPDEST PUSH1 0x40 MLOAD PUSH2 0x804 SWAP2 SWAP1 PUSH2 0x6FED JUMP JUMPDEST PUSH1 0x40 MLOAD DUP1 SWAP2 SUB SWAP1 RETURN JUMPDEST PUSH2 0x815 PUSH2 0x3084 JUMP JUMPDEST PUSH1 0x40 MLOAD PUSH2 0x822 SWAP2 SWAP1 PUSH2 0x717E JUMP JUMPDEST PUSH1 0x40 MLOAD DUP1 SWAP2 SUB SWAP1 RETURN JUMPDEST PUSH2 0x833 PUSH2 0x30A9 JUMP JUMPDEST STOP JUMPDEST PUSH2 0x83D PUSH2 0x3628 JUMP JUMPDEST PUSH1 0x40 MLOAD PUSH2 0x84A SWAP2 SWAP1 PUSH2 0x6FED JUMP JUMPDEST PUSH1 0x40 MLOAD DUP1 SWAP2 SUB SWAP1 RETURN JUMPDEST PUSH2 0x86D PUSH1 0x4 DUP1 CALLDATASIZE SUB DUP2 ADD SWAP1 PUSH2 0x868 SWAP2 SWAP1 PUSH2 0x7144 JUMP JUMPDEST PUSH2 0x3665 JUMP JUMPDEST STOP JUMPDEST PUSH2 0x877 PUSH2 0x3971 JUMP JUMPDEST PUSH1 0x40 MLOAD PUSH2 0x884 SWAP2 SWAP1 PUSH2 0x712B JUMP JUMPDEST PUSH1 0x40 MLOAD DUP1 SWAP2 SUB SWAP1 RETURN JUMPDEST PUSH2 0x895 PUSH2 0x3983 JUMP JUMPDEST PUSH1 0x40 MLOAD PUSH2 0x8A2 SWAP2 SWAP1 PUSH2 0x6FED JUMP JUMPDEST PUSH1 0x40 MLOAD DUP1 SWAP2 SUB SWAP1 RETURN JUMPDEST PUSH2 0x8B3 PUSH2 0x3A0F JUMP JUMPDEST PUSH1 0x40 MLOAD PUSH2 0x8C0 SWAP2 SWAP1 PUSH2 0x712B JUMP JUMPDEST PUSH1 0x40 MLOAD DUP1 SWAP2 SUB SWAP1 RETURN JUMPDEST PUSH2 0x8E3 PUSH1 0x4 DUP1 CALLDATASIZE SUB DUP2 ADD SWAP1 PUSH2 0x8DE SWAP2 SWAP1 PUSH2 0x73E7 JUMP JUMPDEST PUSH2 0x3A25 JUMP JUMPDEST STOP JUMPDEST PUSH2 0x8FF PUSH1 0x4 DUP1 CALLDATASIZE SUB DUP2 ADD SWAP1 PUSH2 0x8FA SWAP2 SWAP1 PUSH2 0x750D JUMP JUMPDEST PUSH2 0x3EE1 JUMP JUMPDEST STOP JUMPDEST PUSH2 0x909 PUSH2 0x40C2 JUMP JUMPDEST PUSH1 0x40 MLOAD PUSH2 0x916 SWAP2 SWAP1 PUSH2 0x717E JUMP JUMPDEST PUSH1 0x40 MLOAD DUP1 SWAP2 SUB SWAP1 RETURN JUMPDEST PUSH2 0x927 PUSH2 0x40C9 JUMP JUMPDEST STOP JUMPDEST PUSH2 0x931 PUSH2 0x44F4 JUMP JUMPDEST PUSH1 0x40 MLOAD PUSH2 0x93E SWAP2 SWAP1 PUSH2 0x717E JUMP JUMPDEST PUSH1 0x40 MLOAD DUP1 SWAP2 SUB SWAP1 RETURN JUMPDEST PUSH2 0x94F PUSH2 0x4519 JUMP JUMPDEST PUSH1 0x40 MLOAD PUSH2 0x95C SWAP2 SWAP1 PUSH2 0x6FED JUMP JUMPDEST PUSH1 0x40 MLOAD DUP1 SWAP2 SUB SWAP1 RETURN JUMPDEST PUSH2 0x96D PUSH2 0x45A5 JUMP JUMPDEST STOP JUMPDEST PUSH2 0x989 PUSH1 0x4 DUP1 CALLDATASIZE SUB DUP2 ADD SWAP1 PUSH2 0x984 SWAP2 SWAP1 PUSH2 0x7144 JUMP JUMPDEST PUSH2 0x484F JUMP JUMPDEST PUSH1 0x40 MLOAD PUSH2 0x996 SWAP2 SWAP1 PUSH2 0x7025 JUMP JUMPDEST PUSH1 0x40 MLOAD DUP1 SWAP2 SUB SWAP1 RETURN JUMPDEST PUSH2 0x9A7 PUSH2 0x4894 JUMP JUMPDEST STOP JUMPDEST PUSH2 0x9B1 PUSH2 0x48A7 JUMP JUMPDEST STOP JUMPDEST PUSH2 0x9BB PUSH2 0x48F7 JUMP JUMPDEST STOP JUMPDEST PUSH2 0x9D7 PUSH1 0x4 DUP1 CALLDATASIZE SUB DUP2 ADD SWAP1 PUSH2 0x9D2 SWAP2 SWAP1 PUSH2 0x7197 JUMP JUMPDEST PUSH2 0x4CCF JUMP JUMPDEST PUSH1 0x40 MLOAD PUSH2 0x9E4 SWAP2 SWAP1 PUSH2 0x717E JUMP JUMPDEST PUSH1 0x40 MLOAD DUP1 SWAP2 SUB SWAP1 RETURN JUMPDEST PUSH2 0xA07 PUSH1 0x4 DUP1 CALLDATASIZE SUB DUP2 ADD SWAP1 PUSH2 0xA02 SWAP2 SWAP1 PUSH2 0x7197 JUMP JUMPDEST PUSH2 0x4D0A JUMP JUMPDEST PUSH1 0x40 MLOAD PUSH2 0xA14 SWAP2 SWAP1 PUSH2 0x717E JUMP JUMPDEST PUSH1 0x40 MLOAD DUP1 SWAP2 SUB SWAP1 RETURN JUMPDEST PUSH2 0xA25 PUSH2 0x4D45 JUMP JUMPDEST PUSH1 0x40 MLOAD PUSH2 0xA32 SWAP2 SWAP1 PUSH2 0x712B JUMP JUMPDEST PUSH1 0x40 MLOAD DUP1 SWAP2 SUB SWAP1 RETURN JUMPDEST PUSH2 0xA43 PUSH2 0x4D58 JUMP JUMPDEST PUSH1 0x40 MLOAD PUSH2 0xA50 SWAP2 SWAP1 PUSH2 0x7563 JUMP JUMPDEST PUSH1 0x40 MLOAD DUP1 SWAP2 SUB SWAP1 RETURN JUMPDEST PUSH2 0xA61 PUSH2 0x4D6A JUMP JUMPDEST PUSH1 0x40 MLOAD PUSH2 0xA6E SWAP2 SWAP1 PUSH2 0x717E JUMP JUMPDEST PUSH1 0x40 MLOAD DUP1 SWAP2 SUB SWAP1 RETURN JUMPDEST PUSH2 0xA7F PUSH2 0x4D92 JUMP JUMPDEST PUSH1 0x40 MLOAD PUSH2 0xA8C SWAP2 SWAP1 PUSH2 0x7025 JUMP JUMPDEST PUSH1 0x40 MLOAD DUP1 SWAP2 SUB SWAP1 RETURN JUMPDEST PUSH2 0xA9D PUSH2 0x4D98 JUMP JUMPDEST STOP JUMPDEST PUSH2 0xAA7 PUSH2 0x537D JUMP JUMPDEST PUSH1 0x40 MLOAD PUSH2 0xAB4 SWAP2 SWAP1 PUSH2 0x6FED JUMP JUMPDEST PUSH1 0x40 MLOAD DUP1 SWAP2 SUB SWAP1 RETURN JUMPDEST PUSH2 0xAC5 PUSH2 0x540D JUMP JUMPDEST PUSH1 0x40 MLOAD PUSH2 0xAD2 SWAP2 SWAP1 PUSH2 0x717E JUMP JUMPDEST PUSH1 0x40 MLOAD DUP1 SWAP2 SUB SWAP1 RETURN JUMPDEST PUSH2 0xAF5 PUSH1 0x4 DUP1 CALLDATASIZE SUB DUP2 ADD SWAP1 PUSH2 0xAF0 SWAP2 SWAP1 PUSH2 0x7144 JUMP JUMPDEST PUSH2 0x5432 JUMP JUMPDEST PUSH1 0x40 MLOAD PUSH2 0xB02 SWAP2 SWAP1 PUSH2 0x712B JUMP JUMPDEST PUSH1 0x40 MLOAD DUP1 SWAP2 SUB SWAP1 RETURN JUMPDEST PUSH2 0xB25 PUSH1 0x4 DUP1 CALLDATASIZE SUB DUP2 ADD SWAP1 PUSH2 0xB20 SWAP2 SWAP1 PUSH2 0x70D3 JUMP JUMPDEST PUSH2 0x544F JUMP JUMPDEST PUSH1 0x40 MLOAD PUSH2 0xB32 SWAP2 SWAP1 PUSH2 0x712B JUMP JUMPDEST PUSH1 0x40 MLOAD DUP1 SWAP2 SUB SWAP1 RETURN JUMPDEST PUSH2 0xB43 PUSH2 0x5590 JUMP JUMPDEST PUSH1 0x40 MLOAD PUSH2 0xB50 SWAP2 SWAP1 PUSH2 0x717E JUMP JUMPDEST PUSH1 0x40 MLOAD DUP1 SWAP2 SUB SWAP1 RETURN JUMPDEST PUSH2 0xB61 PUSH2 0x5597 JUMP JUMPDEST PUSH1 0x40 MLOAD PUSH2 0xB6E SWAP2 SWAP1 PUSH2 0x717E JUMP JUMPDEST PUSH1 0x40 MLOAD DUP1 SWAP2 SUB SWAP1 RETURN JUMPDEST PUSH2 0xB7F PUSH2 0x55BC JUMP JUMPDEST PUSH1 0x40 MLOAD PUSH2 0xB8C SWAP2 SWAP1 PUSH2 0x712B JUMP JUMPDEST PUSH1 0x40 MLOAD DUP1 SWAP2 SUB SWAP1 RETURN JUMPDEST PUSH2 0xB9D PUSH2 0x55CF JUMP JUMPDEST STOP JUMPDEST PUSH2 0xBA7 PUSH2 0x5A33 JUMP JUMPDEST PUSH1 0x40 MLOAD PUSH2 0xBB4 SWAP2 SWAP1 PUSH2 0x717E JUMP JUMPDEST PUSH1 0x40 MLOAD DUP1 SWAP2 SUB SWAP1 RETURN JUMPDEST PUSH2 0xBC5 PUSH2 0x5A58 JUMP JUMPDEST PUSH1 0x40 MLOAD PUSH2 0xBD2 SWAP2 SWAP1 PUSH2 0x7025 JUMP JUMPDEST PUSH1 0x40 MLOAD DUP1 SWAP2 SUB SWAP1 RETURN JUMPDEST PUSH2 0xBE3 PUSH2 0x5A5E JUMP JUMPDEST STOP JUMPDEST PUSH2 0xBED PUSH2 0x5B92 JUMP JUMPDEST PUSH1 0x40 MLOAD PUSH2 0xBFA SWAP2 SWAP1 PUSH2 0x7025 JUMP JUMPDEST PUSH1 0x40 MLOAD DUP1 SWAP2 SUB SWAP1 RETURN JUMPDEST PUSH2 0xC1D PUSH1 0x4 DUP1 CALLDATASIZE SUB DUP2 ADD SWAP1 PUSH2 0xC18 SWAP2 SWAP1 PUSH2 0x7144 JUMP JUMPDEST PUSH2 0x5B98 JUMP JUMPDEST PUSH1 0x40 MLOAD PUSH2 0xC2A SWAP2 SWAP1 PUSH2 0x712B JUMP JUMPDEST PUSH1 0x40 MLOAD DUP1 SWAP2 SUB SWAP1 RETURN JUMPDEST PUSH2 0xC3B PUSH2 0x5BB5 JUMP JUMPDEST STOP JUMPDEST PUSH2 0xC45 PUSH2 0x5EBF JUMP JUMPDEST PUSH1 0x40 MLOAD PUSH2 0xC52 SWAP2 SWAP1 PUSH2 0x7025 JUMP JUMPDEST PUSH1 0x40 MLOAD DUP1 SWAP2 SUB SWAP1 RETURN JUMPDEST PUSH2 0xC75 PUSH1 0x4 DUP1 CALLDATASIZE SUB DUP2 ADD SWAP1 PUSH2 0xC70 SWAP2 SWAP1 PUSH2 0x7197 JUMP JUMPDEST PUSH2 0x5ED5 JUMP JUMPDEST PUSH1 0x40 MLOAD PUSH2 0xC82 SWAP2 SWAP1 PUSH2 0x717E JUMP JUMPDEST PUSH1 0x40 MLOAD DUP1 SWAP2 SUB SWAP1 RETURN JUMPDEST PUSH2 0xCA5 PUSH1 0x4 DUP1 CALLDATASIZE SUB DUP2 ADD SWAP1 PUSH2 0xCA0 SWAP2 SWAP1 PUSH2 0x757C JUMP JUMPDEST PUSH2 0x5F10 JUMP JUMPDEST PUSH1 0x40 MLOAD PUSH2 0xCB2 SWAP2 SWAP1 PUSH2 0x7025 JUMP JUMPDEST PUSH1 0x40 MLOAD DUP1 SWAP2 SUB SWAP1 RETURN JUMPDEST PUSH2 0xCD5 PUSH1 0x4 DUP1 CALLDATASIZE SUB DUP2 ADD SWAP1 PUSH2 0xCD0 SWAP2 SWAP1 PUSH2 0x7144 JUMP JUMPDEST PUSH2 0x5F92 JUMP JUMPDEST PUSH1 0x40 MLOAD PUSH2 0xCE2 SWAP2 SWAP1 PUSH2 0x712B JUMP JUMPDEST PUSH1 0x40 MLOAD DUP1 SWAP2 SUB SWAP1 RETURN JUMPDEST PUSH2 0xCF3 PUSH2 0x5FE4 JUMP JUMPDEST PUSH1 0x40 MLOAD PUSH2 0xD00 SWAP2 SWAP1 PUSH2 0x7025 JUMP JUMPDEST PUSH1 0x40 MLOAD DUP1 SWAP2 SUB SWAP1 RETURN JUMPDEST PUSH2 0xD11 PUSH2 0x60E8 JUMP JUMPDEST STOP JUMPDEST PUSH2 0xD2D PUSH1 0x4 DUP1 CALLDATASIZE SUB DUP2 ADD SWAP1 PUSH2 0xD28 SWAP2 SWAP1 PUSH2 0x7144 JUMP JUMPDEST PUSH2 0x6497 JUMP JUMPDEST STOP JUMPDEST PUSH2 0xD37 PUSH2 0x651B JUMP JUMPDEST PUSH1 0x40 MLOAD PUSH2 0xD44 SWAP2 SWAP1 PUSH2 0x7025 JUMP JUMPDEST PUSH1 0x40 MLOAD DUP1 SWAP2 SUB SWAP1 RETURN JUMPDEST PUSH2 0xD55 PUSH2 0x6520 JUMP JUMPDEST STOP JUMPDEST PUSH2 0xD5F PUSH2 0x6571 JUMP JUMPDEST PUSH1 0x40 MLOAD PUSH2 0xD6C SWAP2 SWAP1 PUSH2 0x7025 JUMP JUMPDEST PUSH1 0x40 MLOAD DUP1 SWAP2 SUB SWAP1 RETURN JUMPDEST PUSH1 0x1D DUP1 SLOAD PUSH2 0xD82 SWAP1 PUSH2 0x75E7 JUMP JUMPDEST DUP1 PUSH1 0x1F ADD PUSH1 0x20 DUP1 SWAP2 DIV MUL PUSH1 0x20 ADD PUSH1 0x40 MLOAD SWAP1 DUP2 ADD PUSH1 0x40 MSTORE DUP1 SWAP3 SWAP2 SWAP1 DUP2 DUP2 MSTORE PUSH1 0x20 ADD DUP3 DUP1 SLOAD PUSH2 0xDAE SWAP1 PUSH2 0x75E7 JUMP JUMPDEST DUP1 ISZERO PUSH2 0xDF9 JUMPI DUP1 PUSH1 0x1F LT PUSH2 0xDD0 JUMPI PUSH2 0x100 DUP1 DUP4 SLOAD DIV MUL DUP4 MSTORE SWAP2 PUSH1 0x20 ADD SWAP2 PUSH2 0xDF9 JUMP JUMPDEST DUP3 ADD SWAP2 SWAP1 PUSH0 MSTORE PUSH1 0x20 PUSH0 KECCAK256 SWAP1 JUMPDEST DUP2 SLOAD DUP2 MSTORE SWAP1 PUSH1 0x1 ADD SWAP1 PUSH1 0x20 ADD DUP1 DUP4 GT PUSH2 0xDDC JUMPI DUP3 SWAP1 SUB PUSH1 0x1F AND DUP3 ADD SWAP2 JUMPDEST POP POP POP POP POP DUP2 JUMP JUMPDEST PUSH1 0x60 PUSH1 0xC DUP1 SLOAD PUSH2 0xE10 SWAP1 PUSH2 0x75E7 JUMP JUMPDEST DUP1 PUSH1 0x1F ADD PUSH1 0x20 DUP1 SWAP2 DIV MUL PUSH1 0x20 ADD PUSH1 0x40 MLOAD SWAP1 DUP2 ADD PUSH1 0x40 MSTORE DUP1 SWAP3 SWAP2 SWAP1 DUP2 DUP2 MSTORE PUSH1 0x20 ADD DUP3 DUP1 SLOAD PUSH2 0xE3C SWAP1 PUSH2 0x75E7 JUMP JUMPDEST DUP1 ISZERO PUSH2 0xE87 JUMPI DUP1 PUSH1 0x1F LT PUSH2 0xE5E JUMPI PUSH2 0x100 DUP1 DUP4 SLOAD DIV MUL DUP4 MSTORE SWAP2 PUSH1 0x20 ADD SWAP2 PUSH2 0xE87 JUMP JUMPDEST DUP3 ADD SWAP2 SWAP1 PUSH0 MSTORE PUSH1 0x20 PUSH0 KECCAK256 SWAP1 JUMPDEST DUP2 SLOAD DUP2 MSTORE SWAP1 PUSH1 0x1 ADD SWAP1 PUSH1 0x20 ADD DUP1 DUP4 GT PUSH2 0xE6A JUMPI DUP3 SWAP1 SUB PUSH1 0x1F AND DUP3 ADD SWAP2 JUMPDEST POP POP POP POP POP SWAP1 POP SWAP1 JUMP JUMPDEST PUSH1 0x13 SLOAD DUP2 JUMP JUMPDEST PUSH2 0x12C DUP2 JUMP JUMPDEST PUSH0 PUSH0 PUSH2 0xEA7 PUSH2 0x657D JUMP JUMPDEST SWAP1 POP PUSH2 0xEB4 DUP2 DUP6 DUP6 PUSH2 0x6584 JUMP JUMPDEST PUSH1 0x1 SWAP2 POP POP SWAP3 SWAP2 POP POP JUMP JUMPDEST PUSH1 0xE PUSH1 0x20 MSTORE DUP1 PUSH0 MSTORE PUSH1 0x40 PUSH0 KECCAK256 PUSH0 SWAP2 POP SLOAD SWAP1 PUSH2 0x100 EXP SWAP1 DIV PUSH1 0xFF AND DUP2 JUMP JUMPDEST PUSH0 PUSH2 0xEE6 DUP3 PUSH2 0x484F JUMP JUMPDEST SWAP1 POP SWAP2 SWAP1 POP JUMP JUMPDEST PUSH0 PUSH0 SWAP1 POP SWAP1 JUMP JUMPDEST PUSH0 PUSH0 SWAP1 POP SWAP2 SWAP1 POP JUMP JUMPDEST PUSH2 0xF06 CALLER PUSH2 0x6596 JUMP JUMPDEST PUSH2 0xF45 JUMPI PUSH1 0x40 MLOAD PUSH32 0x8C379A000000000000000000000000000000000000000000000000000000000 DUP2 MSTORE PUSH1 0x4 ADD PUSH2 0xF3C SWAP1 PUSH2 0x7661 JUMP JUMPDEST PUSH1 0x40 MLOAD DUP1 SWAP2 SUB SWAP1 REVERT JUMPDEST PUSH1 0x10 PUSH1 0x2 SWAP1 SLOAD SWAP1 PUSH2 0x100 EXP SWAP1 DIV PUSH1 0xFF AND ISZERO PUSH2 0xF95 JUMPI PUSH1 0x40 MLOAD PUSH32 0x8C379A000000000000000000000000000000000000000000000000000000000 DUP2 MSTORE PUSH1 0x4 ADD PUSH2 0xF8C SWAP1 PUSH2 0x76C9 JUMP JUMPDEST PUSH1 0x40 MLOAD DUP1 SWAP2 SUB SWAP1 REVERT JUMPDEST PUSH1 0x10 PUSH0 SWAP1 SLOAD SWAP1 PUSH2 0x100 EXP SWAP1 DIV PUSH1 0xFF AND ISZERO PUSH2 0xFE4 JUMPI PUSH1 0x40 MLOAD PUSH32 0x8C379A000000000000000000000000000000000000000000000000000000000 DUP2 MSTORE PUSH1 0x4 ADD PUSH2 0xFDB SWAP1 PUSH2 0x7731 JUMP JUMPDEST PUSH1 0x40 MLOAD DUP1 SWAP2 SUB SWAP1 REVERT JUMPDEST PUSH1 0x7 PUSH0 DUP4 PUSH20 0xFFFFFFFFFFFFFFFFFFFFFFFFFFFFFFFFFFFFFFFF AND PUSH20 0xFFFFFFFFFFFFFFFFFFFFFFFFFFFFFFFFFFFFFFFF AND DUP2 MSTORE PUSH1 0x20 ADD SWAP1 DUP2 MSTORE PUSH1 0x20 ADD PUSH0 KECCAK256 PUSH0 SWAP1 SLOAD SWAP1 PUSH2 0x100 EXP SWAP1 DIV PUSH1 0xFF AND PUSH2 0x106D JUMPI PUSH1 0x40 MLOAD PUSH32 0x8C379A000000000000000000000000000000000000000000000000000000000 DUP2 MSTORE PUSH1 0x4 ADD PUSH2 0x1064 SWAP1 PUSH2 0x7799 JUMP JUMPDEST PUSH1 0x40 MLOAD DUP1 SWAP2 SUB SWAP1 REVERT JUMPDEST PUSH0 PUSH20 0xFFFFFFFFFFFFFFFFFFFFFFFFFFFFFFFFFFFFFFFF AND DUP3 PUSH20 0xFFFFFFFFFFFFFFFFFFFFFFFFFFFFFFFFFFFFFFFF AND SUB PUSH2 0x10DB JUMPI PUSH1 0x40 MLOAD PUSH32 0x8C379A000000000000000000000000000000000000000000000000000000000 DUP2 MSTORE PUSH1 0x4 ADD PUSH2 0x10D2 SWAP1 PUSH2 0x7801 JUMP JUMPDEST PUSH1 0x40 MLOAD DUP1 SWAP2 SUB SWAP1 REVERT JUMPDEST PUSH0 DUP2 GT PUSH2 0x111D JUMPI PUSH1 0x40 MLOAD PUSH32 0x8C379A000000000000000000000000000000000000000000000000000000000 DUP2 MSTORE PUSH1 0x4 ADD PUSH2 0x1114 SWAP1 PUSH2 0x7869 JUMP JUMPDEST PUSH1 0x40 MLOAD DUP1 SWAP2 SUB SWAP1 REVERT JUMPDEST PUSH1 0x6 SLOAD DUP2 PUSH1 0xB SLOAD PUSH2 0x112E SWAP2 SWAP1 PUSH2 0x78B4 JUMP JUMPDEST GT ISZERO PUSH2 0x116F JUMPI PUSH1 0x40 MLOAD PUSH32 0x8C379A000000000000000000000000000000000000000000000000000000000 DUP2 MSTORE PUSH1 0x4 ADD PUSH2 0x1166 SWAP1 PUSH2 0x7931 JUMP JUMPDEST PUSH1 0x40 MLOAD DUP1 SWAP2 SUB SWAP1 REVERT JUMPDEST PUSH2 0x1177 PUSH2 0x6638 JUMP JUMPDEST PUSH0 PUSH1 0xF DUP2 SWAP1 SSTORE POP DUP2 PUSH1 0x1E PUSH0 PUSH2 0x100 EXP DUP2 SLOAD DUP2 PUSH20 0xFFFFFFFFFFFFFFFFFFFFFFFFFFFFFFFFFFFFFFFF MUL NOT AND SWAP1 DUP4 PUSH20 0xFFFFFFFFFFFFFFFFFFFFFFFFFFFFFFFFFFFFFFFF AND MUL OR SWAP1 SSTORE POP DUP1 PUSH1 0x1F DUP2 SWAP1 SSTORE POP PUSH1 0x1 PUSH1 0x10 PUSH0 PUSH2 0x100 EXP DUP2 SLOAD DUP2 PUSH1 0xFF MUL NOT AND SWAP1 DUP4 ISZERO ISZERO MUL OR SWAP1 SSTORE POP PUSH1 0x40 MLOAD DUP1 PUSH1 0x40 ADD PUSH1 0x40 MSTORE DUP1 PUSH1 0x4 DUP2 MSTORE PUSH1 0x20 ADD PUSH32 0x6D696E7400000000000000000000000000000000000000000000000000000000 DUP2 MSTORE POP PUSH1 0x11 SWAP1 DUP2 PUSH2 0x1223 SWAP2 SWAP1 PUSH2 0x7AEF JUMP JUMPDEST POP PUSH32 0x116C43C83ACF6CD8597CE110E50B139E8C85A1544440913BE14F9043A244361 DUP3 DUP3 PUSH1 0x40 MLOAD PUSH2 0x1255 SWAP3 SWAP2 SWAP1 PUSH2 0x7BBE JUMP JUMPDEST PUSH1 0x40 MLOAD DUP1 SWAP2 SUB SWAP1 LOG1 POP POP JUMP JUMPDEST PUSH0 PUSH1 0x2 SLOAD SWAP1 POP SWAP1 JUMP JUMPDEST PUSH2 0x1273 CALLER PUSH2 0x6596 JUMP JUMPDEST PUSH2 0x12B2 JUMPI PUSH1 0x40 MLOAD PUSH32 0x8C379A000000000000000000000000000000000000000000000000000000000 DUP2 MSTORE PUSH1 0x4 ADD PUSH2 0x12A9 SWAP1 PUSH2 0x7661 JUMP JUMPDEST PUSH1 0x40 MLOAD DUP1 SWAP2 SUB SWAP1 REVERT JUMPDEST PUSH1 0x10 PUSH1 0x2 SWAP1 SLOAD SWAP1 PUSH2 0x100 EXP SWAP1 DIV PUSH1 0xFF AND ISZERO PUSH2 0x1302 JUMPI PUSH1 0x40 MLOAD PUSH32 0x8C379A000000000000000000000000000000000000000000000000000000000 DUP2 MSTORE PUSH1 0x4 ADD PUSH2 0x12F9 SWAP1 PUSH2 0x76C9 JUMP JUMPDEST PUSH1 0x40 MLOAD DUP1 SWAP2 SUB SWAP1 REVERT JUMPDEST PUSH1 0x10 PUSH0 SWAP1 SLOAD SWAP1 PUSH2 0x100 EXP SWAP1 DIV PUSH1 0xFF AND ISZERO PUSH2 0x1351 JUMPI PUSH1 0x40 MLOAD PUSH32 0x8C379A000000000000000000000000000000000000000000000000000000000 DUP2 MSTORE PUSH1 0x4 ADD PUSH2 0x1348 SWAP1 PUSH2 0x7731 JUMP JUMPDEST PUSH1 0x40 MLOAD DUP1 SWAP2 SUB SWAP1 REVERT JUMPDEST PUSH1 0x7 PUSH0 DUP3 PUSH20 0xFFFFFFFFFFFFFFFFFFFFFFFFFFFFFFFFFFFFFFFF AND PUSH20 0xFFFFFFFFFFFFFFFFFFFFFFFFFFFFFFFFFFFFFFFF AND DUP2 MSTORE PUSH1 0x20 ADD SWAP1 DUP2 MSTORE PUSH1 0x20 ADD PUSH0 KECCAK256 PUSH0 SWAP1 SLOAD SWAP1 PUSH2 0x100 EXP SWAP1 DIV PUSH1 0xFF AND PUSH2 0x13DA JUMPI PUSH1 0x40 MLOAD PUSH32 0x8C379A000000000000000000000000000000000000000000000000000000000 DUP2 MSTORE PUSH1 0x4 ADD PUSH2 0x13D1 SWAP1 PUSH2 0x7C2F JUMP JUMPDEST PUSH1 0x40 MLOAD DUP1 SWAP2 SUB SWAP1 REVERT JUMPDEST PUSH2 0x13E2 PUSH2 0x6638 JUMP JUMPDEST PUSH0 PUSH1 0xF DUP2 SWAP1 SSTORE POP DUP1 PUSH1 0x1A PUSH0 PUSH2 0x100 EXP DUP2 SLOAD DUP2 PUSH20 0xFFFFFFFFFFFFFFFFFFFFFFFFFFFFFFFFFFFFFFFF MUL NOT AND SWAP1 DUP4 PUSH20 0xFFFFFFFFFFFFFFFFFFFFFFFFFFFFFFFFFFFFFFFF AND MUL OR SWAP1 SSTORE POP PUSH1 0x40 MLOAD DUP1 PUSH1 0x40 ADD PUSH1 0x40 MSTORE DUP1 PUSH1 0x6 DUP2 MSTORE PUSH1 0x20 ADD PUSH32 0x72656D6F76650000000000000000000000000000000000000000000000000000 DUP2 MSTORE POP PUSH1 0x1B SWAP1 DUP2 PUSH2 0x146D SWAP2 SWAP1 PUSH2 0x7AEF JUMP JUMPDEST POP PUSH1 0x1 PUSH1 0x10 PUSH0 PUSH2 0x100 EXP DUP2 SLOAD DUP2 PUSH1 0xFF MUL NOT AND SWAP1 DUP4 ISZERO ISZERO MUL OR SWAP1 SSTORE POP PUSH1 0x40 MLOAD DUP1 PUSH1 0x40 ADD PUSH1 0x40 MSTORE DUP1 PUSH1 0x10 DUP2 MSTORE PUSH1 0x20 ADD PUSH32 0x77686974656C6973745F72656D6F766500000000000000000000000000000000 DUP2 MSTORE POP PUSH1 0x11 SWAP1 DUP2 PUSH2 0x14CC SWAP2 SWAP1 PUSH2 0x7AEF JUMP JUMPDEST POP PUSH32 0xC645160BCA8C10087405A6BADA7A56C33D99BC539C2A803D599E21CB6D4FA4CE DUP2 PUSH1 0x40 MLOAD PUSH2 0x14FC SWAP2 SWAP1 PUSH2 0x7C97 JUMP JUMPDEST PUSH1 0x40 MLOAD DUP1 SWAP2 SUB SWAP1 LOG1 POP JUMP JUMPDEST PUSH1 0x20 SLOAD DUP2 JUMP JUMPDEST PUSH1 0x8 DUP2 DUP2 SLOAD DUP2 LT PUSH2 0x151C JUMPI PUSH0 DUP1 REVERT JUMPDEST SWAP1 PUSH0 MSTORE PUSH1 0x20 PUSH0 KECCAK256 ADD PUSH0 SWAP2 POP SLOAD SWAP1 PUSH2 0x100 EXP SWAP1 DIV PUSH20 0xFFFFFFFFFFFFFFFFFFFFFFFFFFFFFFFFFFFFFFFF AND DUP2 JUMP JUMPDEST PUSH0 PUSH1 0x10 PUSH1 0x2 SWAP1 SLOAD SWAP1 PUSH2 0x100 EXP SWAP1 DIV PUSH1 0xFF AND ISZERO PUSH2 0x1599 JUMPI PUSH1 0x40 MLOAD PUSH32 0x8C379A000000000000000000000000000000000000000000000000000000000 DUP2 MSTORE PUSH1 0x4 ADD PUSH2 0x1590 SWAP1 PUSH2 0x76C9 JUMP JUMPDEST PUSH1 0x40 MLOAD DUP1 SWAP2 SUB SWAP1 REVERT JUMPDEST PUSH1 0x9 PUSH0 DUP6 PUSH20 0xFFFFFFFFFFFFFFFFFFFFFFFFFFFFFFFFFFFFFFFF AND PUSH20 0xFFFFFFFFFFFFFFFFFFFFFFFFFFFFFFFFFFFFFFFF AND DUP2 MSTORE PUSH1 0x20 ADD SWAP1 DUP2 MSTORE PUSH1 0x20 ADD PUSH0 KECCAK256 PUSH0 SWAP1 SLOAD SWAP1 PUSH2 0x100 EXP SWAP1 DIV PUSH1 0xFF AND ISZERO PUSH2 0x1623 JUMPI PUSH1 0x40 MLOAD PUSH32 0x8C379A000000000000000000000000000000000000000000000000000000000 DUP2 MSTORE PUSH1 0x4 ADD PUSH2 0x161A SWAP1 PUSH2 0x7D0D JUMP JUMPDEST PUSH1 0x40 MLOAD DUP1 SWAP2 SUB SWAP1 REVERT JUMPDEST DUP2 PUSH16 0xFFFFFFFFFFFFFFFFFFFFFFFFFFFFFFFF AND DUP3 EQ PUSH2 0x1677 JUMPI PUSH1 0x40 MLOAD PUSH32 0x8C379A000000000000000000000000000000000000000000000000000000000 DUP2 MSTORE PUSH1 0x4 ADD PUSH2 0x166E SWAP1 PUSH2 0x7D75 JUMP JUMPDEST PUSH1 0x40 MLOAD DUP1 SWAP2 SUB SWAP1 REVERT JUMPDEST PUSH2 0x1682 DUP5 DUP5 DUP5 PUSH2 0x66E9 JUMP JUMPDEST SWAP1 POP SWAP4 SWAP3 POP POP POP JUMP JUMPDEST PUSH1 0xB SLOAD DUP2 JUMP JUMPDEST PUSH1 0x3 DUP2 JUMP JUMPDEST PUSH1 0x5 DUP2 JUMP JUMPDEST PUSH0 PUSH0 SWAP1 POP SWAP1 JUMP JUMPDEST PUSH1 0x11 DUP1 SLOAD PUSH2 0x16AF SWAP1 PUSH2 0x75E7 JUMP JUMPDEST DUP1 PUSH1 0x1F ADD PUSH1 0x20 DUP1 SWAP2 DIV MUL PUSH1 0x20 ADD PUSH1 0x40 MLOAD SWAP1 DUP2 ADD PUSH1 0x40 MSTORE DUP1 SWAP3 SWAP2 SWAP1 DUP2 DUP2 MSTORE PUSH1 0x20 ADD DUP3 DUP1 SLOAD PUSH2 0x16DB SWAP1 PUSH2 0x75E7 JUMP JUMPDEST DUP1 ISZERO PUSH2 0x1726 JUMPI DUP1 PUSH1 0x1F LT PUSH2 0x16FD JUMPI PUSH2 0x100 DUP1 DUP4 SLOAD DIV MUL DUP4 MSTORE SWAP2 PUSH1 0x20 ADD SWAP2 PUSH2 0x1726 JUMP JUMPDEST DUP3 ADD SWAP2 SWAP1 PUSH0 MSTORE PUSH1 0x20 PUSH0 KECCAK256 SWAP1 JUMPDEST DUP2 SLOAD DUP2 MSTORE SWAP1 PUSH1 0x1 ADD SWAP1 PUSH1 0x20 ADD DUP1 DUP4 GT PUSH2 0x1709 JUMPI DUP3 SWAP1 SUB PUSH1 0x1F AND DUP3 ADD SWAP2 JUMPDEST POP POP POP POP POP DUP2 JUMP JUMPDEST PUSH2 0x1737 CALLER PUSH2 0x6596 JUMP JUMPDEST PUSH2 0x1776 JUMPI PUSH1 0x40 MLOAD PUSH32 0x8C379A000000000000000000000000000000000000000000000000000000000 DUP2 MSTORE PUSH1 0x4 ADD PUSH2 0x176D SWAP1 PUSH2 0x7661 JUMP JUMPDEST PUSH1 0x40 MLOAD DUP1 SWAP2 SUB SWAP1 REVERT JUMPDEST PUSH1 0x10 PUSH1 0x2 SWAP1 SLOAD SWAP1 PUSH2 0x100 EXP SWAP1 DIV PUSH1 0xFF AND ISZERO PUSH2 0x17C6 JUMPI PUSH1 0x40 MLOAD PUSH32 0x8C379A000000000000000000000000000000000000000000000000000000000 DUP2 MSTORE PUSH1 0x4 ADD PUSH2 0x17BD SWAP1 PUSH2 0x76C9 JUMP JUMPDEST PUSH1 0x40 MLOAD DUP1 SWAP2 SUB SWAP1 REVERT JUMPDEST PUSH1 0x10 PUSH0 SWAP1 SLOAD SWAP1 PUSH2 0x100 EXP SWAP1 DIV PUSH1 0xFF AND ISZERO PUSH2 0x1815 JUMPI PUSH1 0x40 MLOAD PUSH32 0x8C379A000000000000000000000000000000000000000000000000000000000 DUP2 MSTORE PUSH1 0x4 ADD PUSH2 0x180C SWAP1 PUSH2 0x7731 JUMP JUMPDEST PUSH1 0x40 MLOAD DUP1 SWAP2 SUB SWAP1 REVERT JUMPDEST PUSH0 PUSH20 0xFFFFFFFFFFFFFFFFFFFFFFFFFFFFFFFFFFFFFFFF AND DUP2 PUSH20 0xFFFFFFFFFFFFFFFFFFFFFFFFFFFFFFFFFFFFFFFF AND SUB PUSH2 0x1883 JUMPI PUSH1 0x40 MLOAD PUSH32 0x8C379A000000000000000000000000000000000000000000000000000000000 DUP2 MSTORE PUSH1 0x4 ADD PUSH2 0x187A SWAP1 PUSH2 0x7DDD JUMP JUMPDEST PUSH1 0x40 MLOAD DUP1 SWAP2 SUB SWAP1 REVERT JUMPDEST PUSH1 0x7 PUSH0 DUP3 PUSH20 0xFFFFFFFFFFFFFFFFFFFFFFFFFFFFFFFFFFFFFFFF AND PUSH20 0xFFFFFFFFFFFFFFFFFFFFFFFFFFFFFFFFFFFFFFFF AND DUP2 MSTORE PUSH1 0x20 ADD SWAP1 DUP2 MSTORE PUSH1 0x20 ADD PUSH0 KECCAK256 PUSH0 SWAP1 SLOAD SWAP1 PUSH2 0x100 EXP SWAP1 DIV PUSH1 0xFF AND ISZERO PUSH2 0x190D JUMPI PUSH1 0x40 MLOAD PUSH32 0x8C379A000000000000000000000000000000000000000000000000000000000 DUP2 MSTORE PUSH1 0x4 ADD PUSH2 0x1904 SWAP1 PUSH2 0x7E45 JUMP JUMPDEST PUSH1 0x40 MLOAD DUP1 SWAP2 SUB SWAP1 REVERT JUMPDEST PUSH2 0x1915 PUSH2 0x6638 JUMP JUMPDEST PUSH0 PUSH1 0xF DUP2 SWAP1 SSTORE POP DUP1 PUSH1 0x1A PUSH0 PUSH2 0x100 EXP DUP2 SLOAD DUP2 PUSH20 0xFFFFFFFFFFFFFFFFFFFFFFFFFFFFFFFFFFFFFFFF MUL NOT AND SWAP1 DUP4 PUSH20 0xFFFFFFFFFFFFFFFFFFFFFFFFFFFFFFFFFFFFFFFF AND MUL OR SWAP1 SSTORE POP PUSH1 0x40 MLOAD DUP1 PUSH1 0x40 ADD PUSH1 0x40 MSTORE DUP1 PUSH1 0x3 DUP2 MSTORE PUSH1 0x20 ADD PUSH32 0x6164640000000000000000000000000000000000000000000000000000000000 DUP2 MSTORE POP PUSH1 0x1B SWAP1 DUP2 PUSH2 0x19A0 SWAP2 SWAP1 PUSH2 0x7AEF JUMP JUMPDEST POP PUSH1 0x1 PUSH1 0x10 PUSH0 PUSH2 0x100 EXP DUP2 SLOAD DUP2 PUSH1 0xFF MUL NOT AND SWAP1 DUP4 ISZERO ISZERO MUL OR SWAP1 SSTORE POP PUSH1 0x40 MLOAD DUP1 PUSH1 0x40 ADD PUSH1 0x40 MSTORE DUP1 PUSH1 0xD DUP2 MSTORE PUSH1 0x20 ADD PUSH32 0x77686974656C6973745F61646400000000000000000000000000000000000000 DUP2 MSTORE POP PUSH1 0x11 SWAP1 DUP2 PUSH2 0x19FF SWAP2 SWAP1 PUSH2 0x7AEF JUMP JUMPDEST POP PUSH32 0xC645160BCA8C10087405A6BADA7A56C33D99BC539C2A803D599E21CB6D4FA4CE DUP2 PUSH1 0x40 MLOAD PUSH2 0x1A2F SWAP2 SWAP1 PUSH2 0x7EAD JUMP JUMPDEST PUSH1 0x40 MLOAD DUP1 SWAP2 SUB SWAP1 LOG1 POP JUMP JUMPDEST PUSH1 0x10 PUSH1 0x2 SWAP1 SLOAD SWAP1 PUSH2 0x100 EXP SWAP1 DIV PUSH1 0xFF AND ISZERO PUSH2 0x1A8A JUMPI PUSH1 0x40 MLOAD PUSH32 0x8C379A000000000000000000000000000000000000000000000000000000000 DUP2 MSTORE PUSH1 0x4 ADD PUSH2 0x1A81 SWAP1 PUSH2 0x76C9 JUMP JUMPDEST PUSH1 0x40 MLOAD DUP1 SWAP2 SUB SWAP1 REVERT JUMPDEST PUSH1 0x10 PUSH0 SWAP1 SLOAD SWAP1 PUSH2 0x100 EXP SWAP1 DIV PUSH1 0xFF AND PUSH2 0x1AD8 JUMPI PUSH1 0x40 MLOAD PUSH32 0x8C379A000000000000000000000000000000000000000000000000000000000 DUP2 MSTORE PUSH1 0x4 ADD PUSH2 0x1ACF SWAP1 PUSH2 0x7F23 JUMP JUMPDEST PUSH1 0x40 MLOAD DUP1 SWAP2 SUB SWAP1 REVERT JUMPDEST PUSH1 0x40 MLOAD PUSH1 0x20 ADD PUSH2 0x1AE7 SWAP1 PUSH2 0x7F95 JUMP JUMPDEST PUSH1 0x40 MLOAD PUSH1 0x20 DUP2 DUP4 SUB SUB DUP2 MSTORE SWAP1 PUSH1 0x40 MSTORE DUP1 MLOAD SWAP1 PUSH1 0x20 ADD KECCAK256 PUSH1 0x11 PUSH1 0x40 MLOAD PUSH1 0x20 ADD PUSH2 0x1B0F SWAP2 SWAP1 PUSH2 0x8029 JUMP JUMPDEST PUSH1 0x40 MLOAD PUSH1 0x20 DUP2 DUP4 SUB SUB DUP2 MSTORE SWAP1 PUSH1 0x40 MSTORE DUP1 MLOAD SWAP1 PUSH1 0x20 ADD KECCAK256 EQ PUSH2 0x1B65 JUMPI PUSH1 0x40 MLOAD PUSH32 0x8C379A000000000000000000000000000000000000000000000000000000000 DUP2 MSTORE PUSH1 0x4 ADD PUSH2 0x1B5C SWAP1 PUSH2 0x8089 JUMP JUMPDEST PUSH1 0x40 MLOAD DUP1 SWAP2 SUB SWAP1 REVERT JUMPDEST PUSH1 0x3 PUSH1 0xF SLOAD LT ISZERO PUSH2 0x1BAB JUMPI PUSH1 0x40 MLOAD PUSH32 0x8C379A000000000000000000000000000000000000000000000000000000000 DUP2 MSTORE PUSH1 0x4 ADD PUSH2 0x1BA2 SWAP1 PUSH2 0x80F1 JUMP JUMPDEST PUSH1 0x40 MLOAD DUP1 SWAP2 SUB SWAP1 REVERT JUMPDEST PUSH0 PUSH20 0xFFFFFFFFFFFFFFFFFFFFFFFFFFFFFFFFFFFFFFFF AND PUSH1 0x1C PUSH0 SWAP1 SLOAD SWAP1 PUSH2 0x100 EXP SWAP1 DIV PUSH20 0xFFFFFFFFFFFFFFFFFFFFFFFFFFFFFFFFFFFFFFFF AND PUSH20 0xFFFFFFFFFFFFFFFFFFFFFFFFFFFFFFFFFFFFFFFF AND SUB PUSH2 0x1C3A JUMPI PUSH1 0x40 MLOAD PUSH32 0x8C379A000000000000000000000000000000000000000000000000000000000 DUP2 MSTORE PUSH1 0x4 ADD PUSH2 0x1C31 SWAP1 PUSH2 0x8159 JUMP JUMPDEST PUSH1 0x40 MLOAD DUP1 SWAP2 SUB SWAP1 REVERT JUMPDEST PUSH1 0x9 PUSH0 PUSH1 0x1C PUSH0 SWAP1 SLOAD SWAP1 PUSH2 0x100 EXP SWAP1 DIV PUSH20 0xFFFFFFFFFFFFFFFFFFFFFFFFFFFFFFFFFFFFFFFF AND PUSH20 0xFFFFFFFFFFFFFFFFFFFFFFFFFFFFFFFFFFFFFFFF AND PUSH20 0xFFFFFFFFFFFFFFFFFFFFFFFFFFFFFFFFFFFFFFFF AND DUP2 MSTORE PUSH1 0x20 ADD SWAP1 DUP2 MSTORE PUSH1 0x20 ADD PUSH0 KECCAK256 PUSH0 SWAP1 SLOAD SWAP1 PUSH2 0x100 EXP SWAP1 DIV PUSH1 0xFF AND PUSH2 0x1CE4 JUMPI PUSH1 0x40 MLOAD PUSH32 0x8C379A000000000000000000000000000000000000000000000000000000000 DUP2 MSTORE PUSH1 0x4 ADD PUSH2 0x1CDB SWAP1 PUSH2 0x81C1 JUMP JUMPDEST PUSH1 0x40 MLOAD DUP1 SWAP2 SUB SWAP1 REVERT JUMPDEST PUSH0 PUSH1 0x9 PUSH0 PUSH1 0x1C PUSH0 SWAP1 SLOAD SWAP1 PUSH2 0x100 EXP SWAP1 DIV PUSH20 0xFFFFFFFFFFFFFFFFFFFFFFFFFFFFFFFFFFFFFFFF AND PUSH20 0xFFFFFFFFFFFFFFFFFFFFFFFFFFFFFFFFFFFFFFFF AND PUSH20 0xFFFFFFFFFFFFFFFFFFFFFFFFFFFFFFFFFFFFFFFF AND DUP2 MSTORE PUSH1 0x20 ADD SWAP1 DUP2 MSTORE PUSH1 0x20 ADD PUSH0 KECCAK256 PUSH0 PUSH2 0x100 EXP DUP2 SLOAD DUP2 PUSH1 0xFF MUL NOT AND SWAP1 DUP4 ISZERO ISZERO MUL OR SWAP1 SSTORE POP PUSH0 PUSH1 0x10 PUSH0 PUSH2 0x100 EXP DUP2 SLOAD DUP2 PUSH1 0xFF MUL NOT AND SWAP1 DUP4 ISZERO ISZERO MUL OR SWAP1 SSTORE POP PUSH1 0x40 MLOAD DUP1 PUSH1 0x20 ADD PUSH1 0x40 MSTORE DUP1 PUSH0 DUP2 MSTORE POP PUSH1 0x11 SWAP1 DUP2 PUSH2 0x1D8F SWAP2 SWAP1 PUSH2 0x7AEF JUMP JUMPDEST POP PUSH32 0x8F0390B9DB2EBDA5D3B655D41DA7F064F9CDA04183D9F8981BA63D951D0B9A44 PUSH1 0x1C PUSH0 SWAP1 SLOAD SWAP1 PUSH2 0x100 EXP SWAP1 DIV PUSH20 0xFFFFFFFFFFFFFFFFFFFFFFFFFFFFFFFFFFFFFFFF AND PUSH1 0x40 MLOAD PUSH2 0x1DE0 SWAP2 SWAP1 PUSH2 0x8201 JUMP JUMPDEST PUSH1 0x40 MLOAD DUP1 SWAP2 SUB SWAP1 LOG1 PUSH1 0x1C PUSH0 PUSH2 0x100 EXP DUP2 SLOAD SWAP1 PUSH20 0xFFFFFFFFFFFFFFFFFFFFFFFFFFFFFFFFFFFFFFFF MUL NOT AND SWAP1 SSTORE PUSH1 0x1D PUSH0 PUSH2 0x1E19 SWAP2 SWAP1 PUSH2 0x6E80 JUMP JUMPDEST JUMP JUMPDEST PUSH1 0x19 SLOAD DUP2 JUMP JUMPDEST PUSH2 0x1E2A CALLER PUSH2 0x6596 JUMP JUMPDEST PUSH2 0x1E69 JUMPI PUSH1 0x40 MLOAD PUSH32 0x8C379A000000000000000000000000000000000000000000000000000000000 DUP2 MSTORE PUSH1 0x4 ADD PUSH2 0x1E60 SWAP1 PUSH2 0x7661 JUMP JUMPDEST PUSH1 0x40 MLOAD DUP1 SWAP2 SUB SWAP1 REVERT JUMPDEST PUSH1 0x10 PUSH1 0x2 SWAP1 SLOAD SWAP1 PUSH2 0x100 EXP SWAP1 DIV PUSH1 0xFF AND ISZERO PUSH2 0x1EB9 JUMPI PUSH1 0x40 MLOAD PUSH32 0x8C379A000000000000000000000000000000000000000000000000000000000 DUP2 MSTORE PUSH1 0x4 ADD PUSH2 0x1EB0 SWAP1 PUSH2 0x76C9 JUMP JUMPDEST PUSH1 0x40 MLOAD DUP1 SWAP2 SUB SWAP1 REVERT JUMPDEST PUSH1 0x10 PUSH0 SWAP1 SLOAD SWAP1 PUSH2 0x100 EXP SWAP1 DIV PUSH1 0xFF AND ISZERO PUSH2 0x1F08 JUMPI PUSH1 0x40 MLOAD PUSH32 0x8C379A000000000000000000000000000000000000000000000000000000000 DUP2 MSTORE PUSH1 0x4 ADD PUSH2 0x1EFF SWAP1 PUSH2 0x7731 JUMP JUMPDEST PUSH1 0x40 MLOAD DUP1 SWAP2 SUB SWAP1 REVERT JUMPDEST PUSH1 0x9 PUSH0 DUP3 PUSH20 0xFFFFFFFFFFFFFFFFFFFFFFFFFFFFFFFFFFFFFFFF AND PUSH20 0xFFFFFFFFFFFFFFFFFFFFFFFFFFFFFFFFFFFFFFFF AND DUP2 MSTORE PUSH1 0x20 ADD SWAP1 DUP2 MSTORE PUSH1 0x20 ADD PUSH0 KECCAK256 PUSH0 SWAP1 SLOAD SWAP1 PUSH2 0x100 EXP SWAP1 DIV PUSH1 0xFF AND PUSH2 0x1F91 JUMPI PUSH1 0x40 MLOAD PUSH32 0x8C379A000000000000000000000000000000000000000000000000000000000 DUP2 MSTORE PUSH1 0x4 ADD PUSH2 0x1F88 SWAP1 PUSH2 0x81C1 JUMP JUMPDEST PUSH1 0x40 MLOAD DUP1 SWAP2 SUB SWAP1 REVERT JUMPDEST PUSH2 0x1F99 PUSH2 0x6638 JUMP JUMPDEST PUSH0 PUSH1 0xF DUP2 SWAP1 SSTORE POP DUP1 PUSH1 0x1C PUSH0 PUSH2 0x100 EXP DUP2 SLOAD DUP2 PUSH20 0xFFFFFFFFFFFFFFFFFFFFFFFFFFFFFFFFFFFFFFFF MUL NOT AND SWAP1 DUP4 PUSH20 0xFFFFFFFFFFFFFFFFFFFFFFFFFFFFFFFFFFFFFFFF AND MUL OR SWAP1 SSTORE POP PUSH1 0x40 MLOAD DUP1 PUSH1 0x40 ADD PUSH1 0x40 MSTORE DUP1 PUSH1 0x8 DUP2 MSTORE PUSH1 0x20 ADD PUSH32 0x756E667265657A65000000000000000000000000000000000000000000000000 DUP2 MSTORE POP PUSH1 0x1D SWAP1 DUP2 PUSH2 0x2024 SWAP2 SWAP1 PUSH2 0x7AEF JUMP JUMPDEST POP PUSH1 0x1 PUSH1 0x10 PUSH0 PUSH2 0x100 EXP DUP2 SLOAD DUP2 PUSH1 0xFF MUL NOT AND SWAP1 DUP4 ISZERO ISZERO MUL OR SWAP1 SSTORE POP PUSH1 0x40 MLOAD DUP1 PUSH1 0x40 ADD PUSH1 0x40 MSTORE DUP1 PUSH1 0x8 DUP2 MSTORE PUSH1 0x20 ADD PUSH32 0x756E667265657A65000000000000000000000000000000000000000000000000 DUP2 MSTORE POP PUSH1 0x11 SWAP1 DUP2 PUSH2 0x2083 SWAP2 SWAP1 PUSH2 0x7AEF JUMP JUMPDEST POP PUSH32 0x25C4E8317DC171F3714DCA5948D811428A109C026192134AD8978A6B3623A387 DUP2 PUSH1 0x40 MLOAD PUSH2 0x20B3 SWAP2 SWAP1 PUSH2 0x8201 JUMP JUMPDEST PUSH1 0x40 MLOAD DUP1 SWAP2 SUB SWAP1 LOG1 POP JUMP JUMPDEST PUSH2 0x20C7 CALLER PUSH2 0x6596 JUMP JUMPDEST PUSH2 0x2106 JUMPI PUSH1 0x40 MLOAD PUSH32 0x8C379A000000000000000000000000000000000000000000000000000000000 DUP2 MSTORE PUSH1 0x4 ADD PUSH2 0x20FD SWAP1 PUSH2 0x7661 JUMP JUMPDEST PUSH1 0x40 MLOAD DUP1 SWAP2 SUB SWAP1 REVERT JUMPDEST PUSH1 0x10 PUSH1 0x2 SWAP1 SLOAD SWAP1 PUSH2 0x100 EXP SWAP1 DIV PUSH1 0xFF AND ISZERO PUSH2 0x2156 JUMPI PUSH1 0x40 MLOAD PUSH32 0x8C379A000000000000000000000000000000000000000000000000000000000 DUP2 MSTORE PUSH1 0x4 ADD PUSH2 0x214D SWAP1 PUSH2 0x76C9 JUMP JUMPDEST PUSH1 0x40 MLOAD DUP1 SWAP2 SUB SWAP1 REVERT JUMPDEST PUSH1 0x5 PUSH1 0xF SLOAD LT PUSH2 0x219B JUMPI PUSH1 0x40 MLOAD PUSH32 0x8C379A000000000000000000000000000000000000000000000000000000000 DUP2 MSTORE PUSH1 0x4 ADD PUSH2 0x2192 SWAP1 PUSH2 0x8277 JUMP JUMPDEST PUSH1 0x40 MLOAD DUP1 SWAP2 SUB SWAP1 REVERT JUMPDEST PUSH2 0x21A3 PUSH2 0x6638 JUMP JUMPDEST PUSH0 PUSH1 0xF DUP2 SWAP1 SSTORE POP PUSH1 0x1 PUSH1 0x10 PUSH1 0x2 PUSH2 0x100 EXP DUP2 SLOAD DUP2 PUSH1 0xFF MUL NOT AND SWAP1 DUP4 ISZERO ISZERO MUL OR SWAP1 SSTORE POP PUSH32 0xAB35696F06E428EBC5CEBA8CD17F8FED287BAF43440206D1943AF1EE53E6D267 PUSH1 0x40 MLOAD PUSH1 0x40 MLOAD DUP1 SWAP2 SUB SWAP1 LOG1 JUMP JUMPDEST PUSH1 0x10 PUSH1 0x2 SWAP1 SLOAD SWAP1 PUSH2 0x100 EXP SWAP1 DIV PUSH1 0xFF AND ISZERO PUSH2 0x2243 JUMPI PUSH1 0x40 MLOAD PUSH32 0x8C379A000000000000000000000000000000000000000000000000000000000 DUP2 MSTORE PUSH1 0x4 ADD PUSH2 0x223A SWAP1 PUSH2 0x76C9 JUMP JUMPDEST PUSH1 0x40 MLOAD DUP1 SWAP2 SUB SWAP1 REVERT JUMPDEST PUSH1 0x10 PUSH0 SWAP1 SLOAD SWAP1 PUSH2 0x100 EXP SWAP1 DIV PUSH1 0xFF AND PUSH2 0x2291 JUMPI PUSH1 0x40 MLOAD PUSH32 0x8C379A000000000000000000000000000000000000000000000000000000000 DUP2 MSTORE PUSH1 0x4 ADD PUSH2 0x2288 SWAP1 PUSH2 0x7F23 JUMP JUMPDEST PUSH1 0x40 MLOAD DUP1 SWAP2 SUB SWAP1 REVERT JUMPDEST PUSH1 0x40 MLOAD PUSH1 0x20 ADD PUSH2 0x22A0 SWAP1 PUSH2 0x82DF JUMP JUMPDEST PUSH1 0x40 MLOAD PUSH1 0x20 DUP2 DUP4 SUB SUB DUP2 MSTORE SWAP1 PUSH1 0x40 MSTORE DUP1 MLOAD SWAP1 PUSH1 0x20 ADD KECCAK256 PUSH1 0x11 PUSH1 0x40 MLOAD PUSH1 0x20 ADD PUSH2 0x22C8 SWAP2 SWAP1 PUSH2 0x8029 JUMP JUMPDEST PUSH1 0x40 MLOAD PUSH1 0x20 DUP2 DUP4 SUB SUB DUP2 MSTORE SWAP1 PUSH1 0x40 MSTORE DUP1 MLOAD SWAP1 PUSH1 0x20 ADD KECCAK256 EQ PUSH2 0x231E JUMPI PUSH1 0x40 MLOAD PUSH32 0x8C379A000000000000000000000000000000000000000000000000000000000 DUP2 MSTORE PUSH1 0x4 ADD PUSH2 0x2315 SWAP1 PUSH2 0x8089 JUMP JUMPDEST PUSH1 0x40 MLOAD DUP1 SWAP2 SUB SWAP1 REVERT JUMPDEST PUSH1 0x19 SLOAD TIMESTAMP LT ISZERO PUSH2 0x2363 JUMPI PUSH1 0x40 MLOAD PUSH32 0x8C379A000000000000000000000000000000000000000000000000000000000 DUP2 MSTORE PUSH1 0x4 ADD PUSH2 0x235A SWAP1 PUSH2 0x833D JUMP JUMPDEST PUSH1 0x40 MLOAD DUP1 SWAP2 SUB SWAP1 REVERT JUMPDEST PUSH1 0x5 PUSH1 0xF SLOAD LT ISZERO PUSH2 0x23A9 JUMPI PUSH1 0x40 MLOAD PUSH32 0x8C379A000000000000000000000000000000000000000000000000000000000 DUP2 MSTORE PUSH1 0x4 ADD PUSH2 0x23A0 SWAP1 PUSH2 0x80F1 JUMP JUMPDEST PUSH1 0x40 MLOAD DUP1 SWAP2 SUB SWAP1 REVERT JUMPDEST PUSH0 PUSH1 0x17 DUP1 SLOAD SWAP1 POP GT PUSH2 0x23F0 JUMPI PUSH1 0x40 MLOAD PUSH32 0x8C379A000000000000000000000000000000000000000000000000000000000 DUP2 MSTORE PUSH1 0x4 ADD PUSH2 0x23E7 SWAP1 PUSH2 0x83A5 JUMP JUMPDEST PUSH1 0x40 MLOAD DUP1 SWAP2 SUB SWAP1 REVERT JUMPDEST PUSH0 PUSH0 SWAP1 POP JUMPDEST PUSH1 0x17 DUP1 SLOAD SWAP1 POP DUP2 LT ISZERO PUSH2 0x26CF JUMPI PUSH2 0x2446 PUSH1 0x17 DUP3 DUP2 SLOAD DUP2 LT PUSH2 0x2419 JUMPI PUSH2 0x2418 PUSH2 0x83C3 JUMP JUMPDEST JUMPDEST SWAP1 PUSH0 MSTORE PUSH1 0x20 PUSH0 KECCAK256 ADD PUSH0 SWAP1 SLOAD SWAP1 PUSH2 0x100 EXP SWAP1 DIV PUSH20 0xFFFFFFFFFFFFFFFFFFFFFFFFFFFFFFFFFFFFFFFF AND PUSH2 0x6596 JUMP JUMPDEST PUSH2 0x2485 JUMPI PUSH1 0x40 MLOAD PUSH32 0x8C379A000000000000000000000000000000000000000000000000000000000 DUP2 MSTORE PUSH1 0x4 ADD PUSH2 0x247C SWAP1 PUSH2 0x843A JUMP JUMPDEST PUSH1 0x40 MLOAD DUP1 SWAP2 SUB SWAP1 REVERT JUMPDEST PUSH0 PUSH20 0xFFFFFFFFFFFFFFFFFFFFFFFFFFFFFFFFFFFFFFFF AND PUSH1 0x18 DUP3 DUP2 SLOAD DUP2 LT PUSH2 0x24B0 JUMPI PUSH2 0x24AF PUSH2 0x83C3 JUMP JUMPDEST JUMPDEST SWAP1 PUSH0 MSTORE PUSH1 0x20 PUSH0 KECCAK256 ADD PUSH0 SWAP1 SLOAD SWAP1 PUSH2 0x100 EXP SWAP1 DIV PUSH20 0xFFFFFFFFFFFFFFFFFFFFFFFFFFFFFFFFFFFFFFFF AND PUSH20 0xFFFFFFFFFFFFFFFFFFFFFFFFFFFFFFFFFFFFFFFF AND SUB PUSH2 0x252E JUMPI PUSH1 0x40 MLOAD PUSH32 0x8C379A000000000000000000000000000000000000000000000000000000000 DUP2 MSTORE PUSH1 0x4 ADD PUSH2 0x2525 SWAP1 PUSH2 0x84A2 JUMP JUMPDEST PUSH1 0x40 MLOAD DUP1 SWAP2 SUB SWAP1 REVERT JUMPDEST PUSH2 0x2572 PUSH1 0x18 DUP3 DUP2 SLOAD DUP2 LT PUSH2 0x2545 JUMPI PUSH2 0x2544 PUSH2 0x83C3 JUMP JUMPDEST JUMPDEST SWAP1 PUSH0 MSTORE PUSH1 0x20 PUSH0 KECCAK256 ADD PUSH0 SWAP1 SLOAD SWAP1 PUSH2 0x100 EXP SWAP1 DIV PUSH20 0xFFFFFFFFFFFFFFFFFFFFFFFFFFFFFFFFFFFFFFFF AND PUSH2 0x6596 JUMP JUMPDEST ISZERO PUSH2 0x25B2 JUMPI PUSH1 0x40 MLOAD PUSH32 0x8C379A000000000000000000000000000000000000000000000000000000000 DUP2 MSTORE PUSH1 0x4 ADD PUSH2 0x25A9 SWAP1 PUSH2 0x850A JUMP JUMPDEST PUSH1 0x40 MLOAD DUP1 SWAP2 SUB SWAP1 REVERT JUMPDEST PUSH0 PUSH1 0x1 DUP3 PUSH2 0x25C0 SWAP2 SWAP1 PUSH2 0x78B4 JUMP JUMPDEST SWAP1 POP JUMPDEST PUSH1 0x18 DUP1 SLOAD SWAP1 POP DUP2 LT ISZERO PUSH2 0x26C1 JUMPI PUSH1 0x18 DUP2 DUP2 SLOAD DUP2 LT PUSH2 0x25E4 JUMPI PUSH2 0x25E3 PUSH2 0x83C3 JUMP JUMPDEST JUMPDEST SWAP1 PUSH0 MSTORE PUSH1 0x20 PUSH0 KECCAK256 ADD PUSH0 SWAP1 SLOAD SWAP1 PUSH2 0x100 EXP SWAP1 DIV PUSH20 0xFFFFFFFFFFFFFFFFFFFFFFFFFFFFFFFFFFFFFFFF AND PUSH20 0xFFFFFFFFFFFFFFFFFFFFFFFFFFFFFFFFFFFFFFFF AND PUSH1 0x18 DUP4 DUP2 SLOAD DUP2 LT PUSH2 0x2636 JUMPI PUSH2 0x2635 PUSH2 0x83C3 JUMP JUMPDEST JUMPDEST SWAP1 PUSH0 MSTORE PUSH1 0x20 PUSH0 KECCAK256 ADD PUSH0 SWAP1 SLOAD SWAP1 PUSH2 0x100 EXP SWAP1 DIV PUSH20 0xFFFFFFFFFFFFFFFFFFFFFFFFFFFFFFFFFFFFFFFF AND PUSH20 0xFFFFFFFFFFFFFFFFFFFFFFFFFFFFFFFFFFFFFFFF AND SUB PUSH2 0x26B4 JUMPI PUSH1 0x40 MLOAD PUSH32 0x8C379A000000000000000000000000000000000000000000000000000000000 DUP2 MSTORE PUSH1 0x4 ADD PUSH2 0x26AB SWAP1 PUSH2 0x8572 JUMP JUMPDEST PUSH1 0x40 MLOAD DUP1 SWAP2 SUB SWAP1 REVERT JUMPDEST DUP1 DUP1 PUSH1 0x1 ADD SWAP2 POP POP PUSH2 0x25C3 JUMP JUMPDEST POP DUP1 DUP1 PUSH1 0x1 ADD SWAP2 POP POP PUSH2 0x23F5 JUMP JUMPDEST POP PUSH0 PUSH0 SWAP1 POP JUMPDEST PUSH1 0x17 DUP1 SLOAD SWAP1 POP DUP2 LT ISZERO PUSH2 0x2852 JUMPI PUSH0 PUSH0 SWAP1 POP JUMPDEST PUSH1 0xD DUP1 SLOAD SWAP1 POP DUP2 LT ISZERO PUSH2 0x2844 JUMPI PUSH1 0x17 DUP3 DUP2 SLOAD DUP2 LT PUSH2 0x2708 JUMPI PUSH2 0x2707 PUSH2 0x83C3 JUMP JUMPDEST JUMPDEST SWAP1 PUSH0 MSTORE PUSH1 0x20 PUSH0 KECCAK256 ADD PUSH0 SWAP1 SLOAD SWAP1 PUSH2 0x100 EXP SWAP1 DIV PUSH20 0xFFFFFFFFFFFFFFFFFFFFFFFFFFFFFFFFFFFFFFFF AND PUSH20 0xFFFFFFFFFFFFFFFFFFFFFFFFFFFFFFFFFFFFFFFF AND PUSH1 0xD DUP3 DUP2 SLOAD DUP2 LT PUSH2 0x275A JUMPI PUSH2 0x2759 PUSH2 0x83C3 JUMP JUMPDEST JUMPDEST SWAP1 PUSH0 MSTORE PUSH1 0x20 PUSH0 KECCAK256 ADD PUSH0 SWAP1 SLOAD SWAP1 PUSH2 0x100 EXP SWAP1 DIV PUSH20 0xFFFFFFFFFFFFFFFFFFFFFFFFFFFFFFFFFFFFFFFF AND PUSH20 0xFFFFFFFFFFFFFFFFFFFFFFFFFFFFFFFFFFFFFFFF AND SUB PUSH2 0x2837 JUMPI PUSH1 0x18 DUP3 DUP2 SLOAD DUP2 LT PUSH2 0x27B1 JUMPI PUSH2 0x27B0 PUSH2 0x83C3 JUMP JUMPDEST JUMPDEST SWAP1 PUSH0 MSTORE PUSH1 0x20 PUSH0 KECCAK256 ADD PUSH0 SWAP1 SLOAD SWAP1 PUSH2 0x100 EXP SWAP1 DIV PUSH20 0xFFFFFFFFFFFFFFFFFFFFFFFFFFFFFFFFFFFFFFFF AND PUSH1 0xD DUP3 DUP2 SLOAD DUP2 LT PUSH2 0x27ED JUMPI PUSH2 0x27EC PUSH2 0x83C3 JUMP JUMPDEST JUMPDEST SWAP1 PUSH0 MSTORE PUSH1 0x20 PUSH0 KECCAK256 ADD PUSH0 PUSH2 0x100 EXP DUP2 SLOAD DUP2 PUSH20 0xFFFFFFFFFFFFFFFFFFFFFFFFFFFFFFFFFFFFFFFF MUL NOT AND SWAP1 DUP4 PUSH20 0xFFFFFFFFFFFFFFFFFFFFFFFFFFFFFFFFFFFFFFFF AND MUL OR SWAP1 SSTORE POP PUSH2 0x2844 JUMP JUMPDEST DUP1 DUP1 PUSH1 0x1 ADD SWAP2 POP POP PUSH2 0x26E7 JUMP JUMPDEST POP DUP1 DUP1 PUSH1 0x1 ADD SWAP2 POP POP PUSH2 0x26D5 JUMP JUMPDEST POP PUSH0 PUSH1 0x10 PUSH0 PUSH2 0x100 EXP DUP2 SLOAD DUP2 PUSH1 0xFF MUL NOT AND SWAP1 DUP4 ISZERO ISZERO MUL OR SWAP1 SSTORE POP PUSH1 0x40 MLOAD DUP1 PUSH1 0x20 ADD PUSH1 0x40 MSTORE DUP1 PUSH0 DUP2 MSTORE POP PUSH1 0x11 SWAP1 DUP2 PUSH2 0x2889 SWAP2 SWAP1 PUSH2 0x7AEF JUMP JUMPDEST POP PUSH0 PUSH1 0x12 PUSH0 PUSH2 0x100 EXP DUP2 SLOAD DUP2 PUSH20 0xFFFFFFFFFFFFFFFFFFFFFFFFFFFFFFFFFFFFFFFF MUL NOT AND SWAP1 DUP4 PUSH20 0xFFFFFFFFFFFFFFFFFFFFFFFFFFFFFFFFFFFFFFFF AND MUL OR SWAP1 SSTORE POP PUSH32 0x765616CA75E38E63DCC130430614A01FA91BFE57744073B30BF8F4BA8FA31FFC PUSH1 0x17 PUSH1 0x18 PUSH1 0x40 MLOAD PUSH2 0x28FD SWAP3 SWAP2 SWAP1 PUSH2 0x86A6 JUMP JUMPDEST PUSH1 0x40 MLOAD DUP1 SWAP2 SUB SWAP1 LOG1 PUSH1 0x17 PUSH0 PUSH2 0x2912 SWAP2 SWAP1 PUSH2 0x6EBD JUMP JUMPDEST PUSH1 0x18 PUSH0 PUSH2 0x291F SWAP2 SWAP1 PUSH2 0x6EBD JUMP JUMPDEST PUSH1 0x19 PUSH0 SWAP1 SSTORE JUMP JUMPDEST PUSH1 0x10 PUSH1 0x2 SWAP1 SLOAD SWAP1 PUSH2 0x100 EXP SWAP1 DIV PUSH1 0xFF AND ISZERO PUSH2 0x2976 JUMPI PUSH1 0x40 MLOAD PUSH32 0x8C379A000000000000000000000000000000000000000000000000000000000 DUP2 MSTORE PUSH1 0x4 ADD PUSH2 0x296D SWAP1 PUSH2 0x76C9 JUMP JUMPDEST PUSH1 0x40 MLOAD DUP1 SWAP2 SUB SWAP1 REVERT JUMPDEST PUSH1 0x10 PUSH0 SWAP1 SLOAD SWAP1 PUSH2 0x100 EXP SWAP1 DIV PUSH1 0xFF AND PUSH2 0x29C4 JUMPI PUSH1 0x40 MLOAD PUSH32 0x8C379A000000000000000000000000000000000000000000000000000000000 DUP2 MSTORE PUSH1 0x4 ADD PUSH2 0x29BB SWAP1 PUSH2 0x7F23 JUMP JUMPDEST PUSH1 0x40 MLOAD DUP1 SWAP2 SUB SWAP1 REVERT JUMPDEST PUSH1 0x40 MLOAD PUSH1 0x20 ADD PUSH2 0x29D3 SWAP1 PUSH2 0x8725 JUMP JUMPDEST PUSH1 0x40 MLOAD PUSH1 0x20 DUP2 DUP4 SUB SUB DUP2 MSTORE SWAP1 PUSH1 0x40 MSTORE DUP1 MLOAD SWAP1 PUSH1 0x20 ADD KECCAK256 PUSH1 0x11 PUSH1 0x40 MLOAD PUSH1 0x20 ADD PUSH2 0x29FB SWAP2 SWAP1 PUSH2 0x8029 JUMP JUMPDEST PUSH1 0x40 MLOAD PUSH1 0x20 DUP2 DUP4 SUB SUB DUP2 MSTORE SWAP1 PUSH1 0x40 MSTORE DUP1 MLOAD SWAP1 PUSH1 0x20 ADD KECCAK256 EQ PUSH2 0x2A51 JUMPI PUSH1 0x40 MLOAD PUSH32 0x8C379A000000000000000000000000000000000000000000000000000000000 DUP2 MSTORE PUSH1 0x4 ADD PUSH2 0x2A48 SWAP1 PUSH2 0x8089 JUMP JUMPDEST PUSH1 0x40 MLOAD DUP1 SWAP2 SUB SWAP1 REVERT JUMPDEST PUSH1 0x3 PUSH1 0xF SLOAD LT ISZERO PUSH2 0x2A97 JUMPI PUSH1 0x40 MLOAD PUSH32 0x8C379A000000000000000000000000000000000000000000000000000000000 DUP2 MSTORE PUSH1 0x4 ADD PUSH2 0x2A8E SWAP1 PUSH2 0x80F1 JUMP JUMPDEST PUSH1 0x40 MLOAD DUP1 SWAP2 SUB SWAP1 REVERT JUMPDEST PUSH0 PUSH20 0xFFFFFFFFFFFFFFFFFFFFFFFFFFFFFFFFFFFFFFFF AND PUSH1 0x1C PUSH0 SWAP1 SLOAD SWAP1 PUSH2 0x100 EXP SWAP1 DIV PUSH20 0xFFFFFFFFFFFFFFFFFFFFFFFFFFFFFFFFFFFFFFFF AND PUSH20 0xFFFFFFFFFFFFFFFFFFFFFFFFFFFFFFFFFFFFFFFF AND SUB PUSH2 0x2B26 JUMPI PUSH1 0x40 MLOAD PUSH32 0x8C379A000000000000000000000000000000000000000000000000000000000 DUP2 MSTORE PUSH1 0x4 ADD PUSH2 0x2B1D SWAP1 PUSH2 0x8159 JUMP JUMPDEST PUSH1 0x40 MLOAD DUP1 SWAP2 SUB SWAP1 REVERT JUMPDEST PUSH1 0x9 PUSH0 PUSH1 0x1C PUSH0 SWAP1 SLOAD SWAP1 PUSH2 0x100 EXP SWAP1 DIV PUSH20 0xFFFFFFFFFFFFFFFFFFFFFFFFFFFFFFFFFFFFFFFF AND PUSH20 0xFFFFFFFFFFFFFFFFFFFFFFFFFFFFFFFFFFFFFFFF AND PUSH20 0xFFFFFFFFFFFFFFFFFFFFFFFFFFFFFFFFFFFFFFFF AND DUP2 MSTORE PUSH1 0x20 ADD SWAP1 DUP2 MSTORE PUSH1 0x20 ADD PUSH0 KECCAK256 PUSH0 SWAP1 SLOAD SWAP1 PUSH2 0x100 EXP SWAP1 DIV PUSH1 0xFF AND ISZERO PUSH2 0x2BD1 JUMPI PUSH1 0x40 MLOAD PUSH32 0x8C379A000000000000000000000000000000000000000000000000000000000 DUP2 MSTORE PUSH1 0x4 ADD PUSH2 0x2BC8 SWAP1 PUSH2 0x8783 JUMP JUMPDEST PUSH1 0x40 MLOAD DUP1 SWAP2 SUB SWAP1 REVERT JUMPDEST PUSH1 0x1 PUSH1 0x9 PUSH0 PUSH1 0x1C PUSH0 SWAP1 SLOAD SWAP1 PUSH2 0x100 EXP SWAP1 DIV PUSH20 0xFFFFFFFFFFFFFFFFFFFFFFFFFFFFFFFFFFFFFFFF AND PUSH20 0xFFFFFFFFFFFFFFFFFFFFFFFFFFFFFFFFFFFFFFFF AND PUSH20 0xFFFFFFFFFFFFFFFFFFFFFFFFFFFFFFFFFFFFFFFF AND DUP2 MSTORE PUSH1 0x20 ADD SWAP1 DUP2 MSTORE PUSH1 0x20 ADD PUSH0 KECCAK256 PUSH0 PUSH2 0x100 EXP DUP2 SLOAD DUP2 PUSH1 0xFF MUL NOT AND SWAP1 DUP4 ISZERO ISZERO MUL OR SWAP1 SSTORE POP PUSH0 PUSH1 0x10 PUSH0 PUSH2 0x100 EXP DUP2 SLOAD DUP2 PUSH1 0xFF MUL NOT AND SWAP1 DUP4 ISZERO ISZERO MUL OR SWAP1 SSTORE POP PUSH1 0x40 MLOAD DUP1 PUSH1 0x20 ADD PUSH1 0x40 MSTORE DUP1 PUSH0 DUP2 MSTORE POP PUSH1 0x11 SWAP1 DUP2 PUSH2 0x2C7D SWAP2 SWAP1 PUSH2 0x7AEF JUMP JUMPDEST POP PUSH32 0x8F0390B9DB2EBDA5D3B655D41DA7F064F9CDA04183D9F8981BA63D951D0B9A44 PUSH1 0x1C PUSH0 SWAP1 SLOAD SWAP1 PUSH2 0x100 EXP SWAP1 DIV PUSH20 0xFFFFFFFFFFFFFFFFFFFFFFFFFFFFFFFFFFFFFFFF AND PUSH1 0x40 MLOAD PUSH2 0x2CCE SWAP2 SWAP1 PUSH2 0x87C3 JUMP JUMPDEST PUSH1 0x40 MLOAD DUP1 SWAP2 SUB SWAP1 LOG1 PUSH1 0x1C PUSH0 PUSH2 0x100 EXP DUP2 SLOAD SWAP1 PUSH20 0xFFFFFFFFFFFFFFFFFFFFFFFFFFFFFFFFFFFFFFFF MUL NOT AND SWAP1 SSTORE PUSH1 0x1D PUSH0 PUSH2 0x2D07 SWAP2 SWAP1 PUSH2 0x6E80 JUMP JUMPDEST JUMP JUMPDEST PUSH1 0x1F SLOAD DUP2 JUMP JUMPDEST PUSH2 0x2D18 CALLER PUSH2 0x6596 JUMP JUMPDEST PUSH2 0x2D57 JUMPI PUSH1 0x40 MLOAD PUSH32 0x8C379A000000000000000000000000000000000000000000000000000000000 DUP2 MSTORE PUSH1 0x4 ADD PUSH2 0x2D4E SWAP1 PUSH2 0x7661 JUMP JUMPDEST PUSH1 0x40 MLOAD DUP1 SWAP2 SUB SWAP1 REVERT JUMPDEST PUSH1 0x10 PUSH1 0x2 SWAP1 SLOAD SWAP1 PUSH2 0x100 EXP SWAP1 DIV PUSH1 0xFF AND ISZERO PUSH2 0x2DA7 JUMPI PUSH1 0x40 MLOAD PUSH32 0x8C379A000000000000000000000000000000000000000000000000000000000 DUP2 MSTORE PUSH1 0x4 ADD PUSH2 0x2D9E SWAP1 PUSH2 0x76C9 JUMP JUMPDEST PUSH1 0x40 MLOAD DUP1 SWAP2 SUB SWAP1 REVERT JUMPDEST PUSH1 0x10 PUSH0 SWAP1 SLOAD SWAP1 PUSH2 0x100 EXP SWAP1 DIV PUSH1 0xFF AND ISZERO PUSH2 0x2DF6 JUMPI PUSH1 0x40 MLOAD PUSH32 0x8C379A000000000000000000000000000000000000000000000000000000000 DUP2 MSTORE PUSH1 0x4 ADD PUSH2 0x2DED SWAP1 PUSH2 0x7731 JUMP JUMPDEST PUSH1 0x40 MLOAD DUP1 SWAP2 SUB SWAP1 REVERT JUMPDEST PUSH0 DUP2 PUSH1 0x7 SIGNEXTEND SUB PUSH2 0x2E3B JUMPI PUSH1 0x40 MLOAD PUSH32 0x8C379A000000000000000000000000000000000000000000000000000000000 DUP2 MSTORE PUSH1 0x4 ADD PUSH2 0x2E32 SWAP1 PUSH2 0x885F JUMP JUMPDEST PUSH1 0x40 MLOAD DUP1 SWAP2 SUB SWAP1 REVERT JUMPDEST PUSH1 0xB SLOAD DUP2 PUSH1 0x7 SIGNEXTEND PUSH1 0x6 SLOAD PUSH2 0x2E4F SWAP2 SWAP1 PUSH2 0x8886 JUMP JUMPDEST SLT ISZERO PUSH2 0x2E90 JUMPI PUSH1 0x40 MLOAD PUSH32 0x8C379A000000000000000000000000000000000000000000000000000000000 DUP2 MSTORE PUSH1 0x4 ADD PUSH2 0x2E87 SWAP1 PUSH2 0x8937 JUMP JUMPDEST PUSH1 0x40 MLOAD DUP1 SWAP2 SUB SWAP1 REVERT JUMPDEST PUSH0 DUP2 PUSH1 0x7 SIGNEXTEND PUSH1 0x6 SLOAD PUSH2 0x2EA2 SWAP2 SWAP1 PUSH2 0x8886 JUMP JUMPDEST SLT ISZERO PUSH2 0x2EE3 JUMPI PUSH1 0x40 MLOAD PUSH32 0x8C379A000000000000000000000000000000000000000000000000000000000 DUP2 MSTORE PUSH1 0x4 ADD PUSH2 0x2EDA SWAP1 PUSH2 0x899F JUMP JUMPDEST PUSH1 0x40 MLOAD DUP1 SWAP2 SUB SWAP1 REVERT JUMPDEST PUSH2 0x2EEB PUSH2 0x6638 JUMP JUMPDEST PUSH0 PUSH1 0xF DUP2 SWAP1 SSTORE POP DUP1 PUSH1 0x15 PUSH0 PUSH2 0x100 EXP DUP2 SLOAD DUP2 PUSH8 0xFFFFFFFFFFFFFFFF MUL NOT AND SWAP1 DUP4 PUSH1 0x7 SIGNEXTEND PUSH8 0xFFFFFFFFFFFFFFFF AND MUL OR SWAP1 SSTORE POP PUSH1 0x1 PUSH1 0x10 PUSH0 PUSH2 0x100 EXP DUP2 SLOAD DUP2 PUSH1 0xFF MUL NOT AND SWAP1 DUP4 ISZERO ISZERO MUL OR SWAP1 SSTORE POP PUSH1 0x40 MLOAD DUP1 PUSH1 0x40 ADD PUSH1 0x40 MSTORE DUP1 PUSH1 0x11 DUP2 MSTORE PUSH1 0x20 ADD PUSH32 0x61646A757374546F74616C537570706C79000000000000000000000000000000 DUP2 MSTORE POP PUSH1 0x11 SWAP1 DUP2 PUSH2 0x2F7B SWAP2 SWAP1 PUSH2 0x7AEF JUMP JUMPDEST POP CALLER PUSH1 0x12 PUSH0 PUSH2 0x100 EXP DUP2 SLOAD DUP2 PUSH20 0xFFFFFFFFFFFFFFFFFFFFFFFFFFFFFFFFFFFFFFFF MUL NOT AND SWAP1 DUP4 PUSH20 0xFFFFFFFFFFFFFFFFFFFFFFFFFFFFFFFFFFFFFFFF AND MUL OR SWAP1 SSTORE POP PUSH32 0xD2F48A8BA1A2294122838A160554DC0DDE0E0C57003527E53FFC207863953D3B DUP2 CALLER PUSH1 0x40 MLOAD PUSH2 0x2FED SWAP3 SWAP2 SWAP1 PUSH2 0x89BD JUMP JUMPDEST PUSH1 0x40 MLOAD DUP1 SWAP2 SUB SWAP1 LOG1 POP JUMP JUMPDEST PUSH1 0x14 DUP1 SLOAD PUSH2 0x3005 SWAP1 PUSH2 0x75E7 JUMP JUMPDEST DUP1 PUSH1 0x1F ADD PUSH1 0x20 DUP1 SWAP2 DIV MUL PUSH1 0x20 ADD PUSH1 0x40 MLOAD SWAP1 DUP2 ADD PUSH1 0x40 MSTORE DUP1 SWAP3 SWAP2 SWAP1 DUP2 DUP2 MSTORE PUSH1 0x20 ADD DUP3 DUP1 SLOAD PUSH2 0x3031 SWAP1 PUSH2 0x75E7 JUMP JUMPDEST DUP1 ISZERO PUSH2 0x307C JUMPI DUP1 PUSH1 0x1F LT PUSH2 0x3053 JUMPI PUSH2 0x100 DUP1 DUP4 SLOAD DIV MUL DUP4 MSTORE SWAP2 PUSH1 0x20 ADD SWAP2 PUSH2 0x307C JUMP JUMPDEST DUP3 ADD SWAP2 SWAP1 PUSH0 MSTORE PUSH1 0x20 PUSH0 KECCAK256 SWAP1 JUMPDEST DUP2 SLOAD DUP2 MSTORE SWAP1 PUSH1 0x1 ADD SWAP1 PUSH1 0x20 ADD DUP1 DUP4 GT PUSH2 0x305F JUMPI DUP3 SWAP1 SUB PUSH1 0x1F AND DUP3 ADD SWAP2 JUMPDEST POP POP POP POP POP DUP2 JUMP JUMPDEST PUSH1 0x1E PUSH0 SWAP1 SLOAD SWAP1 PUSH2 0x100 EXP SWAP1 DIV PUSH20 0xFFFFFFFFFFFFFFFFFFFFFFFFFFFFFFFFFFFFFFFF AND DUP2 JUMP JUMPDEST PUSH1 0x10 PUSH1 0x2 SWAP1 SLOAD SWAP1 PUSH2 0x100 EXP SWAP1 DIV PUSH1 0xFF AND ISZERO PUSH2 0x30F9 JUMPI PUSH1 0x40 MLOAD PUSH32 0x8C379A000000000000000000000000000000000000000000000000000000000 DUP2 MSTORE PUSH1 0x4 ADD PUSH2 0x30F0 SWAP1 PUSH2 0x76C9 JUMP JUMPDEST PUSH1 0x40 MLOAD DUP1 SWAP2 SUB SWAP1 REVERT JUMPDEST PUSH1 0x10 PUSH0 SWAP1 SLOAD SWAP1 PUSH2 0x100 EXP SWAP1 DIV PUSH1 0xFF AND PUSH2 0x3147 JUMPI PUSH1 0x40 MLOAD PUSH32 0x8C379A000000000000000000000000000000000000000000000000000000000 DUP2 MSTORE PUSH1 0x4 ADD PUSH2 0x313E SWAP1 PUSH2 0x7F23 JUMP JUMPDEST PUSH1 0x40 MLOAD DUP1 SWAP2 SUB SWAP1 REVERT JUMPDEST PUSH1 0x40 MLOAD PUSH1 0x20 ADD PUSH2 0x3156 SWAP1 PUSH2 0x8A2E JUMP JUMPDEST PUSH1 0x40 MLOAD PUSH1 0x20 DUP2 DUP4 SUB SUB DUP2 MSTORE SWAP1 PUSH1 0x40 MSTORE DUP1 MLOAD SWAP1 PUSH1 0x20 ADD KECCAK256 PUSH1 0x11 PUSH1 0x40 MLOAD PUSH1 0x20 ADD PUSH2 0x317E SWAP2 SWAP1 PUSH2 0x8029 JUMP JUMPDEST PUSH1 0x40 MLOAD PUSH1 0x20 DUP2 DUP4 SUB SUB DUP2 MSTORE SWAP1 PUSH1 0x40 MSTORE DUP1 MLOAD SWAP1 PUSH1 0x20 ADD KECCAK256 EQ PUSH2 0x31D4 JUMPI PUSH1 0x40 MLOAD PUSH32 0x8C379A000000000000000000000000000000000000000000000000000000000 DUP2 MSTORE PUSH1 0x4 ADD PUSH2 0x31CB SWAP1 PUSH2 0x8089 JUMP JUMPDEST PUSH1 0x40 MLOAD DUP1 SWAP2 SUB SWAP1 REVERT JUMPDEST PUSH1 0x3 PUSH1 0xF SLOAD LT ISZERO PUSH2 0x321A JUMPI PUSH1 0x40 MLOAD PUSH32 0x8C379A000000000000000000000000000000000000000000000000000000000 DUP2 MSTORE PUSH1 0x4 ADD PUSH2 0x3211 SWAP1 PUSH2 0x80F1 JUMP JUMPDEST PUSH1 0x40 MLOAD DUP1 SWAP2 SUB SWAP1 REVERT JUMPDEST PUSH0 PUSH20 0xFFFFFFFFFFFFFFFFFFFFFFFFFFFFFFFFFFFFFFFF AND PUSH1 0x1A PUSH0 SWAP1 SLOAD SWAP1 PUSH2 0x100 EXP SWAP1 DIV PUSH20 0xFFFFFFFFFFFFFFFFFFFFFFFFFFFFFFFFFFFFFFFF AND PUSH20 0xFFFFFFFFFFFFFFFFFFFFFFFFFFFFFFFFFFFFFFFF AND SUB PUSH2 0x32A9 JUMPI PUSH1 0x40 MLOAD PUSH32 0x8C379A000000000000000000000000000000000000000000000000000000000 DUP2 MSTORE PUSH1 0x4 ADD PUSH2 0x32A0 SWAP1 PUSH2 0x8A8C JUMP JUMPDEST PUSH1 0x40 MLOAD DUP1 SWAP2 SUB SWAP1 REVERT JUMPDEST PUSH1 0x7 PUSH0 PUSH1 0x1A PUSH0 SWAP1 SLOAD SWAP1 PUSH2 0x100 EXP SWAP1 DIV PUSH20 0xFFFFFFFFFFFFFFFFFFFFFFFFFFFFFFFFFFFFFFFF AND PUSH20 0xFFFFFFFFFFFFFFFFFFFFFFFFFFFFFFFFFFFFFFFF AND PUSH20 0xFFFFFFFFFFFFFFFFFFFFFFFFFFFFFFFFFFFFFFFF AND DUP2 MSTORE PUSH1 0x20 ADD SWAP1 DUP2 MSTORE PUSH1 0x20 ADD PUSH0 KECCAK256 PUSH0 SWAP1 SLOAD SWAP1 PUSH2 0x100 EXP SWAP1 DIV PUSH1 0xFF AND PUSH2 0x3353 JUMPI PUSH1 0x40 MLOAD PUSH32 0x8C379A000000000000000000000000000000000000000000000000000000000 DUP2 MSTORE PUSH1 0x4 ADD PUSH2 0x334A SWAP1 PUSH2 0x7C2F JUMP JUMPDEST PUSH1 0x40 MLOAD DUP1 SWAP2 SUB SWAP1 REVERT JUMPDEST PUSH0 PUSH1 0x7 PUSH0 PUSH1 0x1A PUSH0 SWAP1 SLOAD SWAP1 PUSH2 0x100 EXP SWAP1 DIV PUSH20 0xFFFFFFFFFFFFFFFFFFFFFFFFFFFFFFFFFFFFFFFF AND PUSH20 0xFFFFFFFFFFFFFFFFFFFFFFFFFFFFFFFFFFFFFFFF AND PUSH20 0xFFFFFFFFFFFFFFFFFFFFFFFFFFFFFFFFFFFFFFFF AND DUP2 MSTORE PUSH1 0x20 ADD SWAP1 DUP2 MSTORE PUSH1 0x20 ADD PUSH0 KECCAK256 PUSH0 PUSH2 0x100 EXP DUP2 SLOAD DUP2 PUSH1 0xFF MUL NOT AND SWAP1 DUP4 ISZERO ISZERO MUL OR SWAP1 SSTORE POP PUSH0 PUSH0 SWAP1 POP JUMPDEST PUSH1 0x8 DUP1 SLOAD SWAP1 POP DUP2 LT ISZERO PUSH2 0x3565 JUMPI PUSH1 0x1A PUSH0 SWAP1 SLOAD SWAP1 PUSH2 0x100 EXP SWAP1 DIV PUSH20 0xFFFFFFFFFFFFFFFFFFFFFFFFFFFFFFFFFFFFFFFF AND PUSH20 0xFFFFFFFFFFFFFFFFFFFFFFFFFFFFFFFFFFFFFFFF AND PUSH1 0x8 DUP3 DUP2 SLOAD DUP2 LT PUSH2 0x3426 JUMPI PUSH2 0x3425 PUSH2 0x83C3 JUMP JUMPDEST JUMPDEST SWAP1 PUSH0 MSTORE PUSH1 0x20 PUSH0 KECCAK256 ADD PUSH0 SWAP1 SLOAD SWAP1 PUSH2 0x100 EXP SWAP1 DIV PUSH20 0xFFFFFFFFFFFFFFFFFFFFFFFFFFFFFFFFFFFFFFFF AND PUSH20 0xFFFFFFFFFFFFFFFFFFFFFFFFFFFFFFFFFFFFFFFF AND SUB PUSH2 0x3558 JUMPI PUSH1 0x8 PUSH1 0x1 PUSH1 0x8 DUP1 SLOAD SWAP1 POP PUSH2 0x347D SWAP2 SWAP1 PUSH2 0x8AAA JUMP JUMPDEST DUP2 SLOAD DUP2 LT PUSH2 0x348E JUMPI PUSH2 0x348D PUSH2 0x83C3 JUMP JUMPDEST JUMPDEST SWAP1 PUSH0 MSTORE PUSH1 0x20 PUSH0 KECCAK256 ADD PUSH0 SWAP1 SLOAD SWAP1 PUSH2 0x100 EXP SWAP1 DIV PUSH20 0xFFFFFFFFFFFFFFFFFFFFFFFFFFFFFFFFFFFFFFFF AND PUSH1 0x8 DUP3 DUP2 SLOAD DUP2 LT PUSH2 0x34CA JUMPI PUSH2 0x34C9 PUSH2 0x83C3 JUMP JUMPDEST JUMPDEST SWAP1 PUSH0 MSTORE PUSH1 0x20 PUSH0 KECCAK256 ADD PUSH0 PUSH2 0x100 EXP DUP2 SLOAD DUP2 PUSH20 0xFFFFFFFFFFFFFFFFFFFFFFFFFFFFFFFFFFFFFFFF MUL NOT AND SWAP1 DUP4 PUSH20 0xFFFFFFFFFFFFFFFFFFFFFFFFFFFFFFFFFFFFFFFF AND MUL OR SWAP1 SSTORE POP PUSH1 0x8 DUP1 SLOAD DUP1 PUSH2 0x3521 JUMPI PUSH2 0x3520 PUSH2 0x8ADD JUMP JUMPDEST JUMPDEST PUSH1 0x1 SWAP1 SUB DUP2 DUP2 SWAP1 PUSH0 MSTORE PUSH1 0x20 PUSH0 KECCAK256 ADD PUSH0 PUSH2 0x100 EXP DUP2 SLOAD SWAP1 PUSH20 0xFFFFFFFFFFFFFFFFFFFFFFFFFFFFFFFFFFFFFFFF MUL NOT AND SWAP1 SSTORE SWAP1 SSTORE PUSH2 0x3565 JUMP JUMPDEST DUP1 DUP1 PUSH1 0x1 ADD SWAP2 POP POP PUSH2 0x33CD JUMP JUMPDEST POP PUSH0 PUSH1 0x10 PUSH0 PUSH2 0x100 EXP DUP2 SLOAD DUP2 PUSH1 0xFF MUL NOT AND SWAP1 DUP4 ISZERO ISZERO MUL OR SWAP1 SSTORE POP PUSH1 0x40 MLOAD DUP1 PUSH1 0x20 ADD PUSH1 0x40 MSTORE DUP1 PUSH0 DUP2 MSTORE POP PUSH1 0x11 SWAP1 DUP2 PUSH2 0x359C SWAP2 SWAP1 PUSH2 0x7AEF JUMP JUMPDEST POP PUSH32 0x7008E45448AD5AA92D72EC64B89807038870139694F96BE53E604AAB0426844D PUSH1 0x1A PUSH0 SWAP1 SLOAD SWAP1 PUSH2 0x100 EXP SWAP1 DIV PUSH20 0xFFFFFFFFFFFFFFFFFFFFFFFFFFFFFFFFFFFFFFFF AND PUSH1 0x40 MLOAD PUSH2 0x35ED SWAP2 SWAP1 PUSH2 0x7C97 JUMP JUMPDEST PUSH1 0x40 MLOAD DUP1 SWAP2 SUB SWAP1 LOG1 PUSH1 0x1A PUSH0 PUSH2 0x100 EXP DUP2 SLOAD SWAP1 PUSH20 0xFFFFFFFFFFFFFFFFFFFFFFFFFFFFFFFFFFFFFFFF MUL NOT AND SWAP1 SSTORE PUSH1 0x1B PUSH0 PUSH2 0x3626 SWAP2 SWAP1 PUSH2 0x6E80 JUMP JUMPDEST JUMP JUMPDEST PUSH1 0x60 PUSH1 0x40 MLOAD DUP1 PUSH1 0x40 ADD PUSH1 0x40 MSTORE DUP1 PUSH1 0x5 DUP2 MSTORE PUSH1 0x20 ADD PUSH32 0x312E302E30000000000000000000000000000000000000000000000000000000 DUP2 MSTORE POP SWAP1 POP SWAP1 JUMP JUMPDEST PUSH2 0x366E CALLER PUSH2 0x6596 JUMP JUMPDEST PUSH2 0x36AD JUMPI PUSH1 0x40 MLOAD PUSH32 0x8C379A000000000000000000000000000000000000000000000000000000000 DUP2 MSTORE PUSH1 0x4 ADD PUSH2 0x36A4 SWAP1 PUSH2 0x7661 JUMP JUMPDEST PUSH1 0x40 MLOAD DUP1 SWAP2 SUB SWAP1 REVERT JUMPDEST PUSH1 0x10 PUSH1 0x2 SWAP1 SLOAD SWAP1 PUSH2 0x100 EXP SWAP1 DIV PUSH1 0xFF AND ISZERO PUSH2 0x36FD JUMPI PUSH1 0x40 MLOAD PUSH32 0x8C379A000000000000000000000000000000000000000000000000000000000 DUP2 MSTORE PUSH1 0x4 ADD PUSH2 0x36F4 SWAP1 PUSH2 0x76C9 JUMP JUMPDEST PUSH1 0x40 MLOAD DUP1 SWAP2 SUB SWAP1 REVERT JUMPDEST PUSH1 0x10 PUSH0 SWAP1 SLOAD SWAP1 PUSH2 0x100 EXP SWAP1 DIV PUSH1 0xFF AND ISZERO PUSH2 0x374C JUMPI PUSH1 0x40 MLOAD PUSH32 0x8C379A000000000000000000000000000000000000000000000000000000000 DUP2 MSTORE PUSH1 0x4 ADD PUSH2 0x3743 SWAP1 PUSH2 0x7731 JUMP JUMPDEST PUSH1 0x40 MLOAD DUP1 SWAP2 SUB SWAP1 REVERT JUMPDEST PUSH0 PUSH20 0xFFFFFFFFFFFFFFFFFFFFFFFFFFFFFFFFFFFFFFFF AND DUP2 PUSH20 0xFFFFFFFFFFFFFFFFFFFFFFFFFFFFFFFFFFFFFFFF AND SUB PUSH2 0x37BA JUMPI PUSH1 0x40 MLOAD PUSH32 0x8C379A000000000000000000000000000000000000000000000000000000000 DUP2 MSTORE PUSH1 0x4 ADD PUSH2 0x37B1 SWAP1 PUSH2 0x8B54 JUMP JUMPDEST PUSH1 0x40 MLOAD DUP1 SWAP2 SUB SWAP1 REVERT JUMPDEST PUSH1 0x9 PUSH0 DUP3 PUSH20 0xFFFFFFFFFFFFFFFFFFFFFFFFFFFFFFFFFFFFFFFF AND PUSH20 0xFFFFFFFFFFFFFFFFFFFFFFFFFFFFFFFFFFFFFFFF AND DUP2 MSTORE PUSH1 0x20 ADD SWAP1 DUP2 MSTORE PUSH1 0x20 ADD PUSH0 KECCAK256 PUSH0 SWAP1 SLOAD SWAP1 PUSH2 0x100 EXP SWAP1 DIV PUSH1 0xFF AND ISZERO PUSH2 0x3844 JUMPI PUSH1 0x40 MLOAD PUSH32 0x8C379A000000000000000000000000000000000000000000000000000000000 DUP2 MSTORE PUSH1 0x4 ADD PUSH2 0x383B SWAP1 PUSH2 0x8783 JUMP JUMPDEST PUSH1 0x40 MLOAD DUP1 SWAP2 SUB SWAP1 REVERT JUMPDEST PUSH2 0x384C PUSH2 0x6638 JUMP JUMPDEST PUSH0 PUSH1 0xF DUP2 SWAP1 SSTORE POP DUP1 PUSH1 0x1C PUSH0 PUSH2 0x100 EXP DUP2 SLOAD DUP2 PUSH20 0xFFFFFFFFFFFFFFFFFFFFFFFFFFFFFFFFFFFFFFFF MUL NOT AND SWAP1 DUP4 PUSH20 0xFFFFFFFFFFFFFFFFFFFFFFFFFFFFFFFFFFFFFFFF AND MUL OR SWAP1 SSTORE POP PUSH1 0x40 MLOAD DUP1 PUSH1 0x40 ADD PUSH1 0x40 MSTORE DUP1 PUSH1 0x6 DUP2 MSTORE PUSH1 0x20 ADD PUSH32 0x667265657A650000000000000000000000000000000000000000000000000000 DUP2 MSTORE POP PUSH1 0x1D SWAP1 DUP2 PUSH2 0x38D7 SWAP2 SWAP1 PUSH2 0x7AEF JUMP JUMPDEST POP PUSH1 0x1 PUSH1 0x10 PUSH0 PUSH2 0x100 EXP DUP2 SLOAD DUP2 PUSH1 0xFF MUL NOT AND SWAP1 DUP4 ISZERO ISZERO MUL OR SWAP1 SSTORE POP PUSH1 0x40 MLOAD DUP1 PUSH1 0x40 ADD PUSH1 0x40 MSTORE DUP1 PUSH1 0x6 DUP2 MSTORE PUSH1 0x20 ADD PUSH32 0x667265657A650000000000000000000000000000000000000000000000000000 DUP2 MSTORE POP PUSH1 0x11 SWAP1 DUP2 PUSH2 0x3936 SWAP2 SWAP1 PUSH2 0x7AEF JUMP JUMPDEST POP PUSH32 0x25C4E8317DC171F3714DCA5948D811428A109C026192134AD8978A6B3623A387 DUP2 PUSH1 0x40 MLOAD PUSH2 0x3966 SWAP2 SWAP1 PUSH2 0x87C3 JUMP JUMPDEST PUSH1 0x40 MLOAD DUP1 SWAP2 SUB SWAP1 LOG1 POP JUMP JUMPDEST PUSH1 0x10 PUSH0 SWAP1 SLOAD SWAP1 PUSH2 0x100 EXP SWAP1 DIV PUSH1 0xFF AND DUP2 JUMP JUMPDEST PUSH1 0x1B DUP1 SLOAD PUSH2 0x3990 SWAP1 PUSH2 0x75E7 JUMP JUMPDEST DUP1 PUSH1 0x1F ADD PUSH1 0x20 DUP1 SWAP2 DIV MUL PUSH1 0x20 ADD PUSH1 0x40 MLOAD SWAP1 DUP2 ADD PUSH1 0x40 MSTORE DUP1 SWAP3 SWAP2 SWAP1 DUP2 DUP2 MSTORE PUSH1 0x20 ADD DUP3 DUP1 SLOAD PUSH2 0x39BC SWAP1 PUSH2 0x75E7 JUMP JUMPDEST DUP1 ISZERO PUSH2 0x3A07 JUMPI DUP1 PUSH1 0x1F LT PUSH2 0x39DE JUMPI PUSH2 0x100 DUP1 DUP4 SLOAD DIV MUL DUP4 MSTORE SWAP2 PUSH1 0x20 ADD SWAP2 PUSH2 0x3A07 JUMP JUMPDEST DUP3 ADD SWAP2 SWAP1 PUSH0 MSTORE PUSH1 0x20 PUSH0 KECCAK256 SWAP1 JUMPDEST DUP2 SLOAD DUP2 MSTORE SWAP1 PUSH1 0x1 ADD SWAP1 PUSH1 0x20 ADD DUP1 DUP4 GT PUSH2 0x39EA JUMPI DUP3 SWAP1 SUB PUSH1 0x1F AND DUP3 ADD SWAP2 JUMPDEST POP POP POP POP POP DUP2 JUMP JUMPDEST PUSH0 PUSH1 0x10 PUSH1 0x2 SWAP1 SLOAD SWAP1 PUSH2 0x100 EXP SWAP1 DIV PUSH1 0xFF AND SWAP1 POP SWAP1 JUMP JUMPDEST PUSH2 0x3A2E CALLER PUSH2 0x6596 JUMP JUMPDEST PUSH2 0x3A6D JUMPI PUSH1 0x40 MLOAD PUSH32 0x8C379A000000000000000000000000000000000000000000000000000000000 DUP2 MSTORE PUSH1 0x4 ADD PUSH2 0x3A64 SWAP1 PUSH2 0x7661 JUMP JUMPDEST PUSH1 0x40 MLOAD DUP1 SWAP2 SUB SWAP1 REVERT JUMPDEST PUSH1 0x10 PUSH1 0x2 SWAP1 SLOAD SWAP1 PUSH2 0x100 EXP SWAP1 DIV PUSH1 0xFF AND ISZERO PUSH2 0x3ABD JUMPI PUSH1 0x40 MLOAD PUSH32 0x8C379A000000000000000000000000000000000000000000000000000000000 DUP2 MSTORE PUSH1 0x4 ADD PUSH2 0x3AB4 SWAP1 PUSH2 0x76C9 JUMP JUMPDEST PUSH1 0x40 MLOAD DUP1 SWAP2 SUB SWAP1 REVERT JUMPDEST PUSH1 0x10 PUSH0 SWAP1 SLOAD SWAP1 PUSH2 0x100 EXP SWAP1 DIV PUSH1 0xFF AND ISZERO PUSH2 0x3B0C JUMPI PUSH1 0x40 MLOAD PUSH32 0x8C379A000000000000000000000000000000000000000000000000000000000 DUP2 MSTORE PUSH1 0x4 ADD PUSH2 0x3B03 SWAP1 PUSH2 0x7731 JUMP JUMPDEST PUSH1 0x40 MLOAD DUP1 SWAP2 SUB SWAP1 REVERT JUMPDEST DUP1 MLOAD DUP3 MLOAD EQ PUSH2 0x3B50 JUMPI PUSH1 0x40 MLOAD PUSH32 0x8C379A000000000000000000000000000000000000000000000000000000000 DUP2 MSTORE PUSH1 0x4 ADD PUSH2 0x3B47 SWAP1 PUSH2 0x8BE2 JUMP JUMPDEST PUSH1 0x40 MLOAD DUP1 SWAP2 SUB SWAP1 REVERT JUMPDEST PUSH0 DUP3 MLOAD GT PUSH2 0x3B93 JUMPI PUSH1 0x40 MLOAD PUSH32 0x8C379A000000000000000000000000000000000000000000000000000000000 DUP2 MSTORE PUSH1 0x4 ADD PUSH2 0x3B8A SWAP1 PUSH2 0x8C70 JUMP JUMPDEST PUSH1 0x40 MLOAD DUP1 SWAP2 SUB SWAP1 REVERT JUMPDEST PUSH0 PUSH0 SWAP1 POP JUMPDEST DUP3 MLOAD DUP2 LT ISZERO PUSH2 0x3DC5 JUMPI PUSH2 0x3BC4 DUP4 DUP3 DUP2 MLOAD DUP2 LT PUSH2 0x3BB7 JUMPI PUSH2 0x3BB6 PUSH2 0x83C3 JUMP JUMPDEST JUMPDEST PUSH1 0x20 MUL PUSH1 0x20 ADD ADD MLOAD PUSH2 0x6596 JUMP JUMPDEST PUSH2 0x3C03 JUMPI PUSH1 0x40 MLOAD PUSH32 0x8C379A000000000000000000000000000000000000000000000000000000000 DUP2 MSTORE PUSH1 0x4 ADD PUSH2 0x3BFA SWAP1 PUSH2 0x843A JUMP JUMPDEST PUSH1 0x40 MLOAD DUP1 SWAP2 SUB SWAP1 REVERT JUMPDEST PUSH0 PUSH20 0xFFFFFFFFFFFFFFFFFFFFFFFFFFFFFFFFFFFFFFFF AND DUP3 DUP3 DUP2 MLOAD DUP2 LT PUSH2 0x3C2D JUMPI PUSH2 0x3C2C PUSH2 0x83C3 JUMP JUMPDEST JUMPDEST PUSH1 0x20 MUL PUSH1 0x20 ADD ADD MLOAD PUSH20 0xFFFFFFFFFFFFFFFFFFFFFFFFFFFFFFFFFFFFFFFF AND SUB PUSH2 0x3C8B JUMPI PUSH1 0x40 MLOAD PUSH32 0x8C379A000000000000000000000000000000000000000000000000000000000 DUP2 MSTORE PUSH1 0x4 ADD PUSH2 0x3C82 SWAP1 PUSH2 0x84A2 JUMP JUMPDEST PUSH1 0x40 MLOAD DUP1 SWAP2 SUB SWAP1 REVERT JUMPDEST PUSH2 0x3CAE DUP3 DUP3 DUP2 MLOAD DUP2 LT PUSH2 0x3CA1 JUMPI PUSH2 0x3CA0 PUSH2 0x83C3 JUMP JUMPDEST JUMPDEST PUSH1 0x20 MUL PUSH1 0x20 ADD ADD MLOAD PUSH2 0x6596 JUMP JUMPDEST ISZERO PUSH2 0x3CEE JUMPI PUSH1 0x40 MLOAD PUSH32 0x8C379A000000000000000000000000000000000000000000000000000000000 DUP2 MSTORE PUSH1 0x4 ADD PUSH2 0x3CE5 SWAP1 PUSH2 0x850A JUMP JUMPDEST PUSH1 0x40 MLOAD DUP1 SWAP2 SUB SWAP1 REVERT JUMPDEST PUSH0 PUSH1 0x1 DUP3 PUSH2 0x3CFC SWAP2 SWAP1 PUSH2 0x78B4 JUMP JUMPDEST SWAP1 POP JUMPDEST DUP3 MLOAD DUP2 LT ISZERO PUSH2 0x3DB7 JUMPI DUP3 DUP2 DUP2 MLOAD DUP2 LT PUSH2 0x3D1B JUMPI PUSH2 0x3D1A PUSH2 0x83C3 JUMP JUMPDEST JUMPDEST PUSH1 0x20 MUL PUSH1 0x20 ADD ADD MLOAD PUSH20 0xFFFFFFFFFFFFFFFFFFFFFFFFFFFFFFFFFFFFFFFF AND DUP4 DUP4 DUP2 MLOAD DUP2 LT PUSH2 0x3D4C JUMPI PUSH2 0x3D4B PUSH2 0x83C3 JUMP JUMPDEST JUMPDEST PUSH1 0x20 MUL PUSH1 0x20 ADD ADD MLOAD PUSH20 0xFFFFFFFFFFFFFFFFFFFFFFFFFFFFFFFFFFFFFFFF AND SUB PUSH2 0x3DAA JUMPI PUSH1 0x40 MLOAD PUSH32 0x8C379A000000000000000000000000000000000000000000000000000000000 DUP2 MSTORE PUSH1 0x4 ADD PUSH2 0x3DA1 SWAP1 PUSH2 0x8572 JUMP JUMPDEST PUSH1 0x40 MLOAD DUP1 SWAP2 SUB SWAP1 REVERT JUMPDEST DUP1 DUP1 PUSH1 0x1 ADD SWAP2 POP POP PUSH2 0x3CFF JUMP JUMPDEST POP DUP1 DUP1 PUSH1 0x1 ADD SWAP2 POP POP PUSH2 0x3B98 JUMP JUMPDEST POP PUSH2 0x3DCE PUSH2 0x6638 JUMP JUMPDEST PUSH0 PUSH1 0xF DUP2 SWAP1 SSTORE POP DUP2 PUSH1 0x17 SWAP1 DUP1 MLOAD SWAP1 PUSH1 0x20 ADD SWAP1 PUSH2 0x3DEB SWAP3 SWAP2 SWAP1 PUSH2 0x6EDB JUMP JUMPDEST POP DUP1 PUSH1 0x18 SWAP1 DUP1 MLOAD SWAP1 PUSH1 0x20 ADD SWAP1 PUSH2 0x3E02 SWAP3 SWAP2 SWAP1 PUSH2 0x6EDB JUMP JUMPDEST POP PUSH1 0x1 PUSH1 0x10 PUSH0 PUSH2 0x100 EXP DUP2 SLOAD DUP2 PUSH1 0xFF MUL NOT AND SWAP1 DUP4 ISZERO ISZERO MUL OR SWAP1 SSTORE POP PUSH1 0x40 MLOAD DUP1 PUSH1 0x40 ADD PUSH1 0x40 MSTORE DUP1 PUSH1 0x6 DUP2 MSTORE PUSH1 0x20 ADD PUSH32 0x766F746572730000000000000000000000000000000000000000000000000000 DUP2 MSTORE POP PUSH1 0x11 SWAP1 DUP2 PUSH2 0x3E61 SWAP2 SWAP1 PUSH2 0x7AEF JUMP JUMPDEST POP CALLER PUSH1 0x12 PUSH0 PUSH2 0x100 EXP DUP2 SLOAD DUP2 PUSH20 0xFFFFFFFFFFFFFFFFFFFFFFFFFFFFFFFFFFFFFFFF MUL NOT AND SWAP1 DUP4 PUSH20 0xFFFFFFFFFFFFFFFFFFFFFFFFFFFFFFFFFFFFFFFF AND MUL OR SWAP1 SSTORE POP PUSH32 0x55745D7EC40B9509A889AE3C5C72FCE1DEC2260ECB5286B509DD4D63BC5D4BF3 DUP3 DUP3 CALLER PUSH1 0x40 MLOAD PUSH2 0x3ED5 SWAP4 SWAP3 SWAP2 SWAP1 PUSH2 0x8D0F JUMP JUMPDEST PUSH1 0x40 MLOAD DUP1 SWAP2 SUB SWAP1 LOG1 POP POP JUMP JUMPDEST PUSH2 0x3EEA CALLER PUSH2 0x6596 JUMP JUMPDEST PUSH2 0x3F29 JUMPI PUSH1 0x40 MLOAD PUSH32 0x8C379A000000000000000000000000000000000000000000000000000000000 DUP2 MSTORE PUSH1 0x4 ADD PUSH2 0x3F20 SWAP1 PUSH2 0x7661 JUMP JUMPDEST PUSH1 0x40 MLOAD DUP1 SWAP2 SUB SWAP1 REVERT JUMPDEST PUSH1 0x10 PUSH1 0x2 SWAP1 SLOAD SWAP1 PUSH2 0x100 EXP SWAP1 DIV PUSH1 0xFF AND ISZERO PUSH2 0x3F79 JUMPI PUSH1 0x40 MLOAD PUSH32 0x8C379A000000000000000000000000000000000000000000000000000000000 DUP2 MSTORE PUSH1 0x4 ADD PUSH2 0x3F70 SWAP1 PUSH2 0x76C9 JUMP JUMPDEST PUSH1 0x40 MLOAD DUP1 SWAP2 SUB SWAP1 REVERT JUMPDEST PUSH1 0x10 PUSH0 SWAP1 SLOAD SWAP1 PUSH2 0x100 EXP SWAP1 DIV PUSH1 0xFF AND ISZERO PUSH2 0x3FC8 JUMPI PUSH1 0x40 MLOAD PUSH32 0x8C379A000000000000000000000000000000000000000000000000000000000 DUP2 MSTORE PUSH1 0x4 ADD PUSH2 0x3FBF SWAP1 PUSH2 0x7731 JUMP JUMPDEST PUSH1 0x40 MLOAD DUP1 SWAP2 SUB SWAP1 REVERT JUMPDEST PUSH2 0x3FD0 PUSH2 0x6638 JUMP JUMPDEST PUSH0 PUSH1 0xF DUP2 SWAP1 SSTORE POP DUP1 PUSH1 0x14 SWAP1 DUP2 PUSH2 0x3FE6 SWAP2 SWAP1 PUSH2 0x7AEF JUMP JUMPDEST POP PUSH1 0x1 PUSH1 0x10 PUSH0 PUSH2 0x100 EXP DUP2 SLOAD DUP2 PUSH1 0xFF MUL NOT AND SWAP1 DUP4 ISZERO ISZERO MUL OR SWAP1 SSTORE POP PUSH1 0x40 MLOAD DUP1 PUSH1 0x40 ADD PUSH1 0x40 MSTORE DUP1 PUSH1 0x4 DUP2 MSTORE PUSH1 0x20 ADD PUSH32 0x6E616D6500000000000000000000000000000000000000000000000000000000 DUP2 MSTORE POP PUSH1 0x11 SWAP1 DUP2 PUSH2 0x4045 SWAP2 SWAP1 PUSH2 0x7AEF JUMP JUMPDEST POP CALLER PUSH1 0x12 PUSH0 PUSH2 0x100 EXP DUP2 SLOAD DUP2 PUSH20 0xFFFFFFFFFFFFFFFFFFFFFFFFFFFFFFFFFFFFFFFF MUL NOT AND SWAP1 DUP4 PUSH20 0xFFFFFFFFFFFFFFFFFFFFFFFFFFFFFFFFFFFFFFFF AND MUL OR SWAP1 SSTORE POP PUSH32 0x41F966D26BC0339AF48AC37AD87736E00AC40E9859CDF864A47F2A719B1BD9AC DUP2 CALLER PUSH1 0x40 MLOAD PUSH2 0x40B7 SWAP3 SWAP2 SWAP1 PUSH2 0x8D52 JUMP JUMPDEST PUSH1 0x40 MLOAD DUP1 SWAP2 SUB SWAP1 LOG1 POP JUMP JUMPDEST PUSH0 PUSH0 SWAP1 POP SWAP1 JUMP JUMPDEST PUSH2 0x40D2 CALLER PUSH2 0x6596 JUMP JUMPDEST PUSH2 0x4111 JUMPI PUSH1 0x40 MLOAD PUSH32 0x8C379A000000000000000000000000000000000000000000000000000000000 DUP2 MSTORE PUSH1 0x4 ADD PUSH2 0x4108 SWAP1 PUSH2 0x7661 JUMP JUMPDEST PUSH1 0x40 MLOAD DUP1 SWAP2 SUB SWAP1 REVERT JUMPDEST PUSH1 0x10 PUSH1 0x2 SWAP1 SLOAD SWAP1 PUSH2 0x100 EXP SWAP1 DIV PUSH1 0xFF AND ISZERO PUSH2 0x4161 JUMPI PUSH1 0x40 MLOAD PUSH32 0x8C379A000000000000000000000000000000000000000000000000000000000 DUP2 MSTORE PUSH1 0x4 ADD PUSH2 0x4158 SWAP1 PUSH2 0x76C9 JUMP JUMPDEST PUSH1 0x40 MLOAD DUP1 SWAP2 SUB SWAP1 REVERT JUMPDEST PUSH1 0x10 PUSH0 SWAP1 SLOAD SWAP1 PUSH2 0x100 EXP SWAP1 DIV PUSH1 0xFF AND PUSH2 0x41AF JUMPI PUSH1 0x40 MLOAD PUSH32 0x8C379A000000000000000000000000000000000000000000000000000000000 DUP2 MSTORE PUSH1 0x4 ADD PUSH2 0x41A6 SWAP1 PUSH2 0x7F23 JUMP JUMPDEST PUSH1 0x40 MLOAD DUP1 SWAP2 SUB SWAP1 REVERT JUMPDEST PUSH1 0xE PUSH0 CALLER PUSH20 0xFFFFFFFFFFFFFFFFFFFFFFFFFFFFFFFFFFFFFFFF AND PUSH20 0xFFFFFFFFFFFFFFFFFFFFFFFFFFFFFFFFFFFFFFFF AND DUP2 MSTORE PUSH1 0x20 ADD SWAP1 DUP2 MSTORE PUSH1 0x20 ADD PUSH0 KECCAK256 PUSH0 SWAP1 SLOAD SWAP1 PUSH2 0x100 EXP SWAP1 DIV PUSH1 0xFF AND ISZERO PUSH2 0x4239 JUMPI PUSH1 0x40 MLOAD PUSH32 0x8C379A000000000000000000000000000000000000000000000000000000000 DUP2 MSTORE PUSH1 0x4 ADD PUSH2 0x4230 SWAP1 PUSH2 0x8DCA JUMP JUMPDEST PUSH1 0x40 MLOAD DUP1 SWAP2 SUB SWAP1 REVERT JUMPDEST PUSH1 0x10 PUSH1 0x1 SWAP1 SLOAD SWAP1 PUSH2 0x100 EXP SWAP1 DIV PUSH1 0xFF AND ISZERO PUSH2 0x4289 JUMPI PUSH1 0x40 MLOAD PUSH32 0x8C379A000000000000000000000000000000000000000000000000000000000 DUP2 MSTORE PUSH1 0x4 ADD PUSH2 0x4280 SWAP1 PUSH2 0x8E32 JUMP JUMPDEST PUSH1 0x40 MLOAD DUP1 SWAP2 SUB SWAP1 REVERT JUMPDEST PUSH1 0x1 PUSH1 0xE PUSH0 CALLER PUSH20 0xFFFFFFFFFFFFFFFFFFFFFFFFFFFFFFFFFFFFFFFF AND PUSH20 0xFFFFFFFFFFFFFFFFFFFFFFFFFFFFFFFFFFFFFFFF AND DUP2 MSTORE PUSH1 0x20 ADD SWAP1 DUP2 MSTORE PUSH1 0x20 ADD PUSH0 KECCAK256 PUSH0 PUSH2 0x100 EXP DUP2 SLOAD DUP2 PUSH1 0xFF MUL NOT AND SWAP1 DUP4 ISZERO ISZERO MUL OR SWAP1 SSTORE POP PUSH1 0xF PUSH0 DUP2 SLOAD DUP1 SWAP3 SWAP2 SWAP1 PUSH2 0x42F0 SWAP1 PUSH2 0x8E50 JUMP JUMPDEST SWAP2 SWAP1 POP SSTORE POP PUSH0 PUSH1 0x11 PUSH1 0x40 MLOAD PUSH1 0x20 ADD PUSH2 0x4308 SWAP2 SWAP1 PUSH2 0x8029 JUMP JUMPDEST PUSH1 0x40 MLOAD PUSH1 0x20 DUP2 DUP4 SUB SUB DUP2 MSTORE SWAP1 PUSH1 0x40 MSTORE DUP1 MLOAD SWAP1 PUSH1 0x20 ADD KECCAK256 SWAP1 POP PUSH0 PUSH1 0x40 MLOAD PUSH1 0x20 ADD PUSH2 0x4330 SWAP1 PUSH2 0x8EE1 JUMP JUMPDEST PUSH1 0x40 MLOAD PUSH1 0x20 DUP2 DUP4 SUB SUB DUP2 MSTORE SWAP1 PUSH1 0x40 MSTORE DUP1 MLOAD SWAP1 PUSH1 0x20 ADD KECCAK256 DUP3 EQ DUP1 PUSH2 0x4376 JUMPI POP PUSH1 0x40 MLOAD PUSH1 0x20 ADD PUSH2 0x435D SWAP1 PUSH2 0x8A2E JUMP JUMPDEST PUSH1 0x40 MLOAD PUSH1 0x20 DUP2 DUP4 SUB SUB DUP2 MSTORE SWAP1 PUSH1 0x40 MSTORE DUP1 MLOAD SWAP1 PUSH1 0x20 ADD KECCAK256 DUP3 EQ JUMPDEST DUP1 PUSH2 0x43A4 JUMPI POP PUSH1 0x40 MLOAD PUSH1 0x20 ADD PUSH2 0x438B SWAP1 PUSH2 0x8725 JUMP JUMPDEST PUSH1 0x40 MLOAD PUSH1 0x20 DUP2 DUP4 SUB SUB DUP2 MSTORE SWAP1 PUSH1 0x40 MSTORE DUP1 MLOAD SWAP1 PUSH1 0x20 ADD KECCAK256 DUP3 EQ JUMPDEST DUP1 PUSH2 0x43D2 JUMPI POP PUSH1 0x40 MLOAD PUSH1 0x20 ADD PUSH2 0x43B9 SWAP1 PUSH2 0x7F95 JUMP JUMPDEST PUSH1 0x40 MLOAD PUSH1 0x20 DUP2 DUP4 SUB SUB DUP2 MSTORE SWAP1 PUSH1 0x40 MSTORE DUP1 MLOAD SWAP1 PUSH1 0x20 ADD KECCAK256 DUP3 EQ JUMPDEST SWAP1 POP PUSH0 PUSH1 0x40 MLOAD PUSH1 0x20 ADD PUSH2 0x43E4 SWAP1 PUSH2 0x8F3F JUMP JUMPDEST PUSH1 0x40 MLOAD PUSH1 0x20 DUP2 DUP4 SUB SUB DUP2 MSTORE SWAP1 PUSH1 0x40 MSTORE DUP1 MLOAD SWAP1 PUSH1 0x20 ADD KECCAK256 DUP4 EQ SWAP1 POP PUSH0 DUP2 PUSH2 0x4418 JUMPI DUP3 PUSH2 0x4410 JUMPI PUSH1 0x5 PUSH2 0x4413 JUMP JUMPDEST PUSH1 0x3 JUMPDEST PUSH2 0x441B JUMP JUMPDEST PUSH1 0x2 JUMPDEST SWAP1 POP DUP1 PUSH1 0xF SLOAD LT PUSH2 0x44EE JUMPI PUSH1 0x40 MLOAD PUSH1 0x20 ADD PUSH2 0x4435 SWAP1 PUSH2 0x8F9D JUMP JUMPDEST PUSH1 0x40 MLOAD PUSH1 0x20 DUP2 DUP4 SUB SUB DUP2 MSTORE SWAP1 PUSH1 0x40 MSTORE DUP1 MLOAD SWAP1 PUSH1 0x20 ADD KECCAK256 DUP5 SUB PUSH2 0x4469 JUMPI PUSH1 0x78 TIMESTAMP PUSH2 0x445E SWAP2 SWAP1 PUSH2 0x78B4 JUMP JUMPDEST PUSH1 0x13 DUP2 SWAP1 SSTORE POP PUSH2 0x44ED JUMP JUMPDEST PUSH1 0x40 MLOAD PUSH1 0x20 ADD PUSH2 0x4478 SWAP1 PUSH2 0x8FFB JUMP JUMPDEST PUSH1 0x40 MLOAD PUSH1 0x20 DUP2 DUP4 SUB SUB DUP2 MSTORE SWAP1 PUSH1 0x40 MSTORE DUP1 MLOAD SWAP1 PUSH1 0x20 ADD KECCAK256 DUP5 SUB PUSH2 0x44AC JUMPI PUSH1 0x78 TIMESTAMP PUSH2 0x44A1 SWAP2 SWAP1 PUSH2 0x78B4 JUMP JUMPDEST PUSH1 0x16 DUP2 SWAP1 SSTORE POP PUSH2 0x44EC JUMP JUMPDEST PUSH1 0x40 MLOAD PUSH1 0x20 ADD PUSH2 0x44BB SWAP1 PUSH2 0x82DF JUMP JUMPDEST PUSH1 0x40 MLOAD PUSH1 0x20 DUP2 DUP4 SUB SUB DUP2 MSTORE SWAP1 PUSH1 0x40 MSTORE DUP1 MLOAD SWAP1 PUSH1 0x20 ADD KECCAK256 DUP5 SUB PUSH2 0x44EB JUMPI PUSH1 0x78 TIMESTAMP PUSH2 0x44E4 SWAP2 SWAP1 PUSH2 0x78B4 JUMP JUMPDEST PUSH1 0x19 DUP2 SWAP1 SSTORE POP JUMPDEST JUMPDEST JUMPDEST JUMPDEST POP POP POP POP JUMP JUMPDEST PUSH1 0x1C PUSH0 SWAP1 SLOAD SWAP1 PUSH2 0x100 EXP SWAP1 DIV PUSH20 0xFFFFFFFFFFFFFFFFFFFFFFFFFFFFFFFFFFFFFFFF AND DUP2 JUMP JUMPDEST PUSH1 0xC DUP1 SLOAD PUSH2 0x4526 SWAP1 PUSH2 0x75E7 JUMP JUMPDEST DUP1 PUSH1 0x1F ADD PUSH1 0x20 DUP1 SWAP2 DIV MUL PUSH1 0x20 ADD PUSH1 0x40 MLOAD SWAP1 DUP2 ADD PUSH1 0x40 MSTORE DUP1 SWAP3 SWAP2 SWAP1 DUP2 DUP2 MSTORE PUSH1 0x20 ADD DUP3 DUP1 SLOAD PUSH2 0x4552 SWAP1 PUSH2 0x75E7 JUMP JUMPDEST DUP1 ISZERO PUSH2 0x459D JUMPI DUP1 PUSH1 0x1F LT PUSH2 0x4574 JUMPI PUSH2 0x100 DUP1 DUP4 SLOAD DIV MUL DUP4 MSTORE SWAP2 PUSH1 0x20 ADD SWAP2 PUSH2 0x459D JUMP JUMPDEST DUP3 ADD SWAP2 SWAP1 PUSH0 MSTORE PUSH1 0x20 PUSH0 KECCAK256 SWAP1 JUMPDEST DUP2 SLOAD DUP2 MSTORE SWAP1 PUSH1 0x1 ADD SWAP1 PUSH1 0x20 ADD DUP1 DUP4 GT PUSH2 0x4580 JUMPI DUP3 SWAP1 SUB PUSH1 0x1F AND DUP3 ADD SWAP2 JUMPDEST POP POP POP POP POP DUP2 JUMP JUMPDEST PUSH1 0x10 PUSH1 0x2 SWAP1 SLOAD SWAP1 PUSH2 0x100 EXP SWAP1 DIV PUSH1 0xFF AND ISZERO PUSH2 0x45F5 JUMPI PUSH1 0x40 MLOAD PUSH32 0x8C379A000000000000000000000000000000000000000000000000000000000 DUP2 MSTORE PUSH1 0x4 ADD PUSH2 0x45EC SWAP1 PUSH2 0x76C9 JUMP JUMPDEST PUSH1 0x40 MLOAD DUP1 SWAP2 SUB SWAP1 REVERT JUMPDEST PUSH1 0x10 PUSH0 SWAP1 SLOAD SWAP1 PUSH2 0x100 EXP SWAP1 DIV PUSH1 0xFF AND PUSH2 0x4643 JUMPI PUSH1 0x40 MLOAD PUSH32 0x8C379A000000000000000000000000000000000000000000000000000000000 DUP2 MSTORE PUSH1 0x4 ADD PUSH2 0x463A SWAP1 PUSH2 0x7F23 JUMP JUMPDEST PUSH1 0x40 MLOAD DUP1 SWAP2 SUB SWAP1 REVERT JUMPDEST PUSH1 0x40 MLOAD PUSH1 0x20 ADD PUSH2 0x4652 SWAP1 PUSH2 0x8FFB JUMP JUMPDEST PUSH1 0x40 MLOAD PUSH1 0x20 DUP2 DUP4 SUB SUB DUP2 MSTORE SWAP1 PUSH1 0x40 MSTORE DUP1 MLOAD SWAP1 PUSH1 0x20 ADD KECCAK256 PUSH1 0x11 PUSH1 0x40 MLOAD PUSH1 0x20 ADD PUSH2 0x467A SWAP2 SWAP1 PUSH2 0x8029 JUMP JUMPDEST PUSH1 0x40 MLOAD PUSH1 0x20 DUP2 DUP4 SUB SUB DUP2 MSTORE SWAP1 PUSH1 0x40 MSTORE DUP1 MLOAD SWAP1 PUSH1 0x20 ADD KECCAK256 EQ PUSH2 0x46D0 JUMPI PUSH1 0x40 MLOAD PUSH32 0x8C379A000000000000000000000000000000000000000000000000000000000 DUP2 MSTORE PUSH1 0x4 ADD PUSH2 0x46C7 SWAP1 PUSH2 0x8089 JUMP JUMPDEST PUSH1 0x40 MLOAD DUP1 SWAP2 SUB SWAP1 REVERT JUMPDEST PUSH1 0x16 SLOAD TIMESTAMP LT ISZERO PUSH2 0x4715 JUMPI PUSH1 0x40 MLOAD PUSH32 0x8C379A000000000000000000000000000000000000000000000000000000000 DUP2 MSTORE PUSH1 0x4 ADD PUSH2 0x470C SWAP1 PUSH2 0x833D JUMP JUMPDEST PUSH1 0x40 MLOAD DUP1 SWAP2 SUB SWAP1 REVERT JUMPDEST PUSH1 0x5 PUSH1 0xF SLOAD LT ISZERO PUSH2 0x475B JUMPI PUSH1 0x40 MLOAD PUSH32 0x8C379A000000000000000000000000000000000000000000000000000000000 DUP2 MSTORE PUSH1 0x4 ADD PUSH2 0x4752 SWAP1 PUSH2 0x80F1 JUMP JUMPDEST PUSH1 0x40 MLOAD DUP1 SWAP2 SUB SWAP1 REVERT JUMPDEST PUSH1 0x15 PUSH0 SWAP1 SLOAD SWAP1 PUSH2 0x100 EXP SWAP1 DIV PUSH1 0x7 SIGNEXTEND PUSH1 0x7 SIGNEXTEND PUSH1 0x6 SLOAD PUSH2 0x477A SWAP2 SWAP1 PUSH2 0x8886 JUMP JUMPDEST PUSH1 0x6 DUP2 SWAP1 SSTORE POP PUSH0 PUSH1 0x10 PUSH0 PUSH2 0x100 EXP DUP2 SLOAD DUP2 PUSH1 0xFF MUL NOT AND SWAP1 DUP4 ISZERO ISZERO MUL OR SWAP1 SSTORE POP PUSH1 0x40 MLOAD DUP1 PUSH1 0x20 ADD PUSH1 0x40 MSTORE DUP1 PUSH0 DUP2 MSTORE POP PUSH1 0x11 SWAP1 DUP2 PUSH2 0x47B6 SWAP2 SWAP1 PUSH2 0x7AEF JUMP JUMPDEST POP PUSH0 PUSH1 0x12 PUSH0 PUSH2 0x100 EXP DUP2 SLOAD DUP2 PUSH20 0xFFFFFFFFFFFFFFFFFFFFFFFFFFFFFFFFFFFFFFFF MUL NOT AND SWAP1 DUP4 PUSH20 0xFFFFFFFFFFFFFFFFFFFFFFFFFFFFFFFFFFFFFFFF AND MUL OR SWAP1 SSTORE POP PUSH1 0x15 PUSH0 PUSH2 0x100 EXP DUP2 SLOAD SWAP1 PUSH8 0xFFFFFFFFFFFFFFFF MUL NOT AND SWAP1 SSTORE PUSH1 0x16 PUSH0 SWAP1 SSTORE PUSH32 0xACD0677FAD7BE9CCAF6C91EBAACA5C9C91622AC0508242D2F8FECA61A0DA249 PUSH1 0x6 SLOAD PUSH1 0x40 MLOAD PUSH2 0x4845 SWAP2 SWAP1 PUSH2 0x7025 JUMP JUMPDEST PUSH1 0x40 MLOAD DUP1 SWAP2 SUB SWAP1 LOG1 JUMP JUMPDEST PUSH0 PUSH0 PUSH0 DUP4 PUSH20 0xFFFFFFFFFFFFFFFFFFFFFFFFFFFFFFFFFFFFFFFF AND PUSH20 0xFFFFFFFFFFFFFFFFFFFFFFFFFFFFFFFFFFFFFFFF AND DUP2 MSTORE PUSH1 0x20 ADD SWAP1 DUP2 MSTORE PUSH1 0x20 ADD PUSH0 KECCAK256 SLOAD SWAP1 POP SWAP2 SWAP1 POP JUMP JUMPDEST PUSH2 0x489C PUSH2 0x6717 JUMP JUMPDEST PUSH2 0x48A5 PUSH0 PUSH2 0x679E JUMP JUMPDEST JUMP JUMPDEST PUSH2 0x48AF PUSH2 0x6717 JUMP JUMPDEST PUSH0 PUSH1 0x10 PUSH1 0x1 PUSH2 0x100 EXP DUP2 SLOAD DUP2 PUSH1 0xFF MUL NOT AND SWAP1 DUP4 ISZERO ISZERO MUL OR SWAP1 SSTORE POP PUSH32 0x8F69EF9279BFB1FE5F4F75790947A23FA88774E98242B966BCAAF7D25E8B3C16 PUSH1 0x40 MLOAD PUSH1 0x40 MLOAD DUP1 SWAP2 SUB SWAP1 LOG1 JUMP JUMPDEST PUSH2 0x4900 CALLER PUSH2 0x6596 JUMP JUMPDEST PUSH2 0x493F JUMPI PUSH1 0x40 MLOAD PUSH32 0x8C379A000000000000000000000000000000000000000000000000000000000 DUP2 MSTORE PUSH1 0x4 ADD PUSH2 0x4936 SWAP1 PUSH2 0x7661 JUMP JUMPDEST PUSH1 0x40 MLOAD DUP1 SWAP2 SUB SWAP1 REVERT JUMPDEST PUSH1 0x10 PUSH1 0x2 SWAP1 SLOAD SWAP1 PUSH2 0x100 EXP SWAP1 DIV PUSH1 0xFF AND ISZERO PUSH2 0x498F JUMPI PUSH1 0x40 MLOAD PUSH32 0x8C379A000000000000000000000000000000000000000000000000000000000 DUP2 MSTORE PUSH1 0x4 ADD PUSH2 0x4986 SWAP1 PUSH2 0x76C9 JUMP JUMPDEST PUSH1 0x40 MLOAD DUP1 SWAP2 SUB SWAP1 REVERT JUMPDEST PUSH2 0x12C PUSH1 0x20 SLOAD PUSH2 0x499F SWAP2 SWAP1 PUSH2 0x78B4 JUMP JUMPDEST TIMESTAMP LT ISZERO PUSH2 0x49E1 JUMPI PUSH1 0x40 MLOAD PUSH32 0x8C379A000000000000000000000000000000000000000000000000000000000 DUP2 MSTORE PUSH1 0x4 ADD PUSH2 0x49D8 SWAP1 PUSH2 0x907F JUMP JUMPDEST PUSH1 0x40 MLOAD DUP1 SWAP2 SUB SWAP1 REVERT JUMPDEST PUSH0 PUSH1 0x8 DUP1 SLOAD SWAP1 POP GT PUSH2 0x4A28 JUMPI PUSH1 0x40 MLOAD PUSH32 0x8C379A000000000000000000000000000000000000000000000000000000000 DUP2 MSTORE PUSH1 0x4 ADD PUSH2 0x4A1F SWAP1 PUSH2 0x90E7 JUMP JUMPDEST PUSH1 0x40 MLOAD DUP1 SWAP2 SUB SWAP1 REVERT JUMPDEST PUSH1 0x6 SLOAD PUSH8 0xDE0B6B3A7640000 PUSH1 0x8 DUP1 SLOAD SWAP1 POP PUSH2 0x4A44 SWAP2 SWAP1 PUSH2 0x9105 JUMP JUMPDEST PUSH1 0xB SLOAD PUSH2 0x4A51 SWAP2 SWAP1 PUSH2 0x78B4 JUMP JUMPDEST GT ISZERO PUSH2 0x4A92 JUMPI PUSH1 0x40 MLOAD PUSH32 0x8C379A000000000000000000000000000000000000000000000000000000000 DUP2 MSTORE PUSH1 0x4 ADD PUSH2 0x4A89 SWAP1 PUSH2 0x7931 JUMP JUMPDEST PUSH1 0x40 MLOAD DUP1 SWAP2 SUB SWAP1 REVERT JUMPDEST PUSH0 PUSH1 0x8 DUP1 SLOAD SWAP1 POP PUSH8 0xFFFFFFFFFFFFFFFF DUP2 GT ISZERO PUSH2 0x4AB2 JUMPI PUSH2 0x4AB1 PUSH2 0x72AB JUMP JUMPDEST JUMPDEST PUSH1 0x40 MLOAD SWAP1 DUP1 DUP3 MSTORE DUP1 PUSH1 0x20 MUL PUSH1 0x20 ADD DUP3 ADD PUSH1 0x40 MSTORE DUP1 ISZERO PUSH2 0x4AE0 JUMPI DUP2 PUSH1 0x20 ADD PUSH1 0x20 DUP3 MUL DUP1 CALLDATASIZE DUP4 CALLDATACOPY DUP1 DUP3 ADD SWAP2 POP POP SWAP1 POP JUMPDEST POP SWAP1 POP PUSH0 PUSH0 SWAP1 POP JUMPDEST PUSH1 0x8 DUP1 SLOAD SWAP1 POP DUP2 LT ISZERO PUSH2 0x4C83 JUMPI PUSH1 0x7 PUSH0 PUSH1 0x8 DUP4 DUP2 SLOAD DUP2 LT PUSH2 0x4B0C JUMPI PUSH2 0x4B0B PUSH2 0x83C3 JUMP JUMPDEST JUMPDEST SWAP1 PUSH0 MSTORE PUSH1 0x20 PUSH0 KECCAK256 ADD PUSH0 SWAP1 SLOAD SWAP1 PUSH2 0x100 EXP SWAP1 DIV PUSH20 0xFFFFFFFFFFFFFFFFFFFFFFFFFFFFFFFFFFFFFFFF AND PUSH20 0xFFFFFFFFFFFFFFFFFFFFFFFFFFFFFFFFFFFFFFFF AND PUSH20 0xFFFFFFFFFFFFFFFFFFFFFFFFFFFFFFFFFFFFFFFF AND DUP2 MSTORE PUSH1 0x20 ADD SWAP1 DUP2 MSTORE PUSH1 0x20 ADD PUSH0 KECCAK256 PUSH0 SWAP1 SLOAD SWAP1 PUSH2 0x100 EXP SWAP1 DIV PUSH1 0xFF AND ISZERO PUSH2 0x4C76 JUMPI PUSH2 0x4BCC PUSH1 0x8 DUP3 DUP2 SLOAD DUP2 LT PUSH2 0x4B96 JUMPI PUSH2 0x4B95 PUSH2 0x83C3 JUMP JUMPDEST JUMPDEST SWAP1 PUSH0 MSTORE PUSH1 0x20 PUSH0 KECCAK256 ADD PUSH0 SWAP1 SLOAD SWAP1 PUSH2 0x100 EXP SWAP1 DIV PUSH20 0xFFFFFFFFFFFFFFFFFFFFFFFFFFFFFFFFFFFFFFFF AND PUSH8 0xDE0B6B3A7640000 PUSH2 0x6861 JUMP JUMPDEST PUSH8 0xDE0B6B3A7640000 PUSH1 0xB PUSH0 DUP3 DUP3 SLOAD PUSH2 0x4BE5 SWAP2 SWAP1 PUSH2 0x78B4 JUMP JUMPDEST SWAP3 POP POP DUP2 SWAP1 SSTORE POP PUSH1 0x8 DUP2 DUP2 SLOAD DUP2 LT PUSH2 0x4C00 JUMPI PUSH2 0x4BFF PUSH2 0x83C3 JUMP JUMPDEST JUMPDEST SWAP1 PUSH0 MSTORE PUSH1 0x20 PUSH0 KECCAK256 ADD PUSH0 SWAP1 SLOAD SWAP1 PUSH2 0x100 EXP SWAP1 DIV PUSH20 0xFFFFFFFFFFFFFFFFFFFFFFFFFFFFFFFFFFFFFFFF AND DUP3 DUP3 DUP2 MLOAD DUP2 LT PUSH2 0x4C3B JUMPI PUSH2 0x4C3A PUSH2 0x83C3 JUMP JUMPDEST JUMPDEST PUSH1 0x20 MUL PUSH1 0x20 ADD ADD SWAP1 PUSH20 0xFFFFFFFFFFFFFFFFFFFFFFFFFFFFFFFFFFFFFFFF AND SWAP1 DUP2 PUSH20 0xFFFFFFFFFFFFFFFFFFFFFFFFFFFFFFFFFFFFFFFF AND DUP2 MSTORE POP POP JUMPDEST DUP1 DUP1 PUSH1 0x1 ADD SWAP2 POP POP PUSH2 0x4AE8 JUMP JUMPDEST POP TIMESTAMP PUSH1 0x20 DUP2 SWAP1 SSTORE POP PUSH32 0x2F4BFD5D5603381D5E4CCCB9869DD2016A99DBB6044D5E3081F57EC1FABA9E11 DUP2 PUSH8 0xDE0B6B3A7640000 PUSH1 0x40 MLOAD PUSH2 0x4CC4 SWAP3 SWAP2 SWAP1 PUSH2 0x9146 JUMP JUMPDEST PUSH1 0x40 MLOAD DUP1 SWAP2 SUB SWAP1 LOG1 POP JUMP JUMPDEST PUSH1 0x17 DUP2 DUP2 SLOAD DUP2 LT PUSH2 0x4CDE JUMPI PUSH0 DUP1 REVERT JUMPDEST SWAP1 PUSH0 MSTORE PUSH1 0x20 PUSH0 KECCAK256 ADD PUSH0 SWAP2 POP SLOAD SWAP1 PUSH2 0x100 EXP SWAP1 DIV PUSH20 0xFFFFFFFFFFFFFFFFFFFFFFFFFFFFFFFFFFFFFFFF AND DUP2 JUMP JUMPDEST PUSH1 0x18 DUP2 DUP2 SLOAD DUP2 LT PUSH2 0x4D19 JUMPI PUSH0 DUP1 REVERT JUMPDEST SWAP1 PUSH0 MSTORE PUSH1 0x20 PUSH0 KECCAK256 ADD PUSH0 SWAP2 POP SLOAD SWAP1 PUSH2 0x100 EXP SWAP1 DIV PUSH20 0xFFFFFFFFFFFFFFFFFFFFFFFFFFFFFFFFFFFFFFFF AND DUP2 JUMP JUMPDEST PUSH1 0x10 PUSH1 0x2 SWAP1 SLOAD SWAP1 PUSH2 0x100 EXP SWAP1 DIV PUSH1 0xFF AND DUP2 JUMP JUMPDEST PUSH1 0x15 PUSH0 SWAP1 SLOAD SWAP1 PUSH2 0x100 EXP SWAP1 DIV PUSH1 0x7 SIGNEXTEND DUP2 JUMP JUMPDEST PUSH0 PUSH1 0x5 PUSH0 SWAP1 SLOAD SWAP1 PUSH2 0x100 EXP SWAP1 DIV PUSH20 0xFFFFFFFFFFFFFFFFFFFFFFFFFFFFFFFFFFFFFFFF AND SWAP1 POP SWAP1 JUMP JUMPDEST PUSH1 0x6 SLOAD DUP2 JUMP JUMPDEST PUSH1 0x10 PUSH1 0x2 SWAP1 SLOAD SWAP1 PUSH2 0x100 EXP SWAP1 DIV PUSH1 0xFF AND ISZERO PUSH2 0x4DE8 JUMPI PUSH1 0x40 MLOAD PUSH32 0x8C379A000000000000000000000000000000000000000000000000000000000 DUP2 MSTORE PUSH1 0x4 ADD PUSH2 0x4DDF SWAP1 PUSH2 0x76C9 JUMP JUMPDEST PUSH1 0x40 MLOAD DUP1 SWAP2 SUB SWAP1 REVERT JUMPDEST PUSH1 0x10 PUSH0 SWAP1 SLOAD SWAP1 PUSH2 0x100 EXP SWAP1 DIV PUSH1 0xFF AND PUSH2 0x4E36 JUMPI PUSH1 0x40 MLOAD PUSH32 0x8C379A000000000000000000000000000000000000000000000000000000000 DUP2 MSTORE PUSH1 0x4 ADD PUSH2 0x4E2D SWAP1 PUSH2 0x7F23 JUMP JUMPDEST PUSH1 0x40 MLOAD DUP1 SWAP2 SUB SWAP1 REVERT JUMPDEST PUSH1 0x12 PUSH0 SWAP1 SLOAD SWAP1 PUSH2 0x100 EXP SWAP1 DIV PUSH20 0xFFFFFFFFFFFFFFFFFFFFFFFFFFFFFFFFFFFFFFFF AND PUSH20 0xFFFFFFFFFFFFFFFFFFFFFFFFFFFFFFFFFFFFFFFF AND CALLER PUSH20 0xFFFFFFFFFFFFFFFFFFFFFFFFFFFFFFFFFFFFFFFF AND EQ PUSH2 0x4EC5 JUMPI PUSH1 0x40 MLOAD PUSH32 0x8C379A000000000000000000000000000000000000000000000000000000000 DUP2 MSTORE PUSH1 0x4 ADD PUSH2 0x4EBC SWAP1 PUSH2 0x91BE JUMP JUMPDEST PUSH1 0x40 MLOAD DUP1 SWAP2 SUB SWAP1 REVERT JUMPDEST PUSH0 PUSH1 0x11 PUSH1 0x40 MLOAD PUSH1 0x20 ADD PUSH2 0x4ED8 SWAP2 SWAP1 PUSH2 0x8029 JUMP JUMPDEST PUSH1 0x40 MLOAD PUSH1 0x20 DUP2 DUP4 SUB SUB DUP2 MSTORE SWAP1 PUSH1 0x40 MSTORE DUP1 MLOAD SWAP1 PUSH1 0x20 ADD KECCAK256 SWAP1 POP PUSH1 0x40 MLOAD PUSH1 0x20 ADD PUSH2 0x4EFF SWAP1 PUSH2 0x8F9D JUMP JUMPDEST PUSH1 0x40 MLOAD PUSH1 0x20 DUP2 DUP4 SUB SUB DUP2 MSTORE SWAP1 PUSH1 0x40 MSTORE DUP1 MLOAD SWAP1 PUSH1 0x20 ADD KECCAK256 DUP2 EQ DUP1 PUSH2 0x4F45 JUMPI POP PUSH1 0x40 MLOAD PUSH1 0x20 ADD PUSH2 0x4F2C SWAP1 PUSH2 0x8FFB JUMP JUMPDEST PUSH1 0x40 MLOAD PUSH1 0x20 DUP2 DUP4 SUB SUB DUP2 MSTORE SWAP1 PUSH1 0x40 MSTORE DUP1 MLOAD SWAP1 PUSH1 0x20 ADD KECCAK256 DUP2 EQ JUMPDEST DUP1 PUSH2 0x4F73 JUMPI POP PUSH1 0x40 MLOAD PUSH1 0x20 ADD PUSH2 0x4F5A SWAP1 PUSH2 0x82DF JUMP JUMPDEST PUSH1 0x40 MLOAD PUSH1 0x20 DUP2 DUP4 SUB SUB DUP2 MSTORE SWAP1 PUSH1 0x40 MSTORE DUP1 MLOAD SWAP1 PUSH1 0x20 ADD KECCAK256 DUP2 EQ JUMPDEST PUSH2 0x4FB2 JUMPI PUSH1 0x40 MLOAD PUSH32 0x8C379A000000000000000000000000000000000000000000000000000000000 DUP2 MSTORE PUSH1 0x4 ADD PUSH2 0x4FA9 SWAP1 PUSH2 0x924C JUMP JUMPDEST PUSH1 0x40 MLOAD DUP1 SWAP2 SUB SWAP1 REVERT JUMPDEST PUSH1 0x5 PUSH1 0xF SLOAD LT ISZERO PUSH2 0x4FF8 JUMPI PUSH1 0x40 MLOAD PUSH32 0x8C379A000000000000000000000000000000000000000000000000000000000 DUP2 MSTORE PUSH1 0x4 ADD PUSH2 0x4FEF SWAP1 PUSH2 0x92B4 JUMP JUMPDEST PUSH1 0x40 MLOAD DUP1 SWAP2 SUB SWAP1 REVERT JUMPDEST PUSH1 0x40 MLOAD PUSH1 0x20 ADD PUSH2 0x5007 SWAP1 PUSH2 0x8F9D JUMP JUMPDEST PUSH1 0x40 MLOAD PUSH1 0x20 DUP2 DUP4 SUB SUB DUP2 MSTORE SWAP1 PUSH1 0x40 MSTORE DUP1 MLOAD SWAP1 PUSH1 0x20 ADD KECCAK256 DUP2 SUB PUSH2 0x506C JUMPI PUSH1 0x13 SLOAD TIMESTAMP LT PUSH2 0x5067 JUMPI PUSH1 0x40 MLOAD PUSH32 0x8C379A000000000000000000000000000000000000000000000000000000000 DUP2 MSTORE PUSH1 0x4 ADD PUSH2 0x505E SWAP1 PUSH2 0x931C JUMP JUMPDEST PUSH1 0x40 MLOAD DUP1 SWAP2 SUB SWAP1 REVERT JUMPDEST PUSH2 0x5152 JUMP JUMPDEST PUSH1 0x40 MLOAD PUSH1 0x20 ADD PUSH2 0x507B SWAP1 PUSH2 0x8FFB JUMP JUMPDEST PUSH1 0x40 MLOAD PUSH1 0x20 DUP2 DUP4 SUB SUB DUP2 MSTORE SWAP1 PUSH1 0x40 MSTORE DUP1 MLOAD SWAP1 PUSH1 0x20 ADD KECCAK256 DUP2 SUB PUSH2 0x50E0 JUMPI PUSH1 0x16 SLOAD TIMESTAMP LT PUSH2 0x50DB JUMPI PUSH1 0x40 MLOAD PUSH32 0x8C379A000000000000000000000000000000000000000000000000000000000 DUP2 MSTORE PUSH1 0x4 ADD PUSH2 0x50D2 SWAP1 PUSH2 0x931C JUMP JUMPDEST PUSH1 0x40 MLOAD DUP1 SWAP2 SUB SWAP1 REVERT JUMPDEST PUSH2 0x5151 JUMP JUMPDEST PUSH1 0x40 MLOAD PUSH1 0x20 ADD PUSH2 0x50EF SWAP1 PUSH2 0x82DF JUMP JUMPDEST PUSH1 0x40 MLOAD PUSH1 0x20 DUP2 DUP4 SUB SUB DUP2 MSTORE SWAP1 PUSH1 0x40 MSTORE DUP1 MLOAD SWAP1 PUSH1 0x20 ADD KECCAK256 DUP2 SUB PUSH2 0x5150 JUMPI PUSH1 0x19 SLOAD TIMESTAMP LT PUSH2 0x514F JUMPI PUSH1 0x40 MLOAD PUSH32 0x8C379A000000000000000000000000000000000000000000000000000000000 DUP2 MSTORE PUSH1 0x4 ADD PUSH2 0x5146 SWAP1 PUSH2 0x931C JUMP JUMPDEST PUSH1 0x40 MLOAD DUP1 SWAP2 SUB SWAP1 REVERT JUMPDEST JUMPDEST JUMPDEST JUMPDEST PUSH2 0x515A PUSH2 0x6638 JUMP JUMPDEST PUSH0 PUSH1 0xF DUP2 SWAP1 SSTORE POP PUSH0 PUSH1 0x11 DUP1 SLOAD PUSH2 0x516F SWAP1 PUSH2 0x75E7 JUMP JUMPDEST DUP1 PUSH1 0x1F ADD PUSH1 0x20 DUP1 SWAP2 DIV MUL PUSH1 0x20 ADD PUSH1 0x40 MLOAD SWAP1 DUP2 ADD PUSH1 0x40 MSTORE DUP1 SWAP3 SWAP2 SWAP1 DUP2 DUP2 MSTORE PUSH1 0x20 ADD DUP3 DUP1 SLOAD PUSH2 0x519B SWAP1 PUSH2 0x75E7 JUMP JUMPDEST DUP1 ISZERO PUSH2 0x51E6 JUMPI DUP1 PUSH1 0x1F LT PUSH2 0x51BD JUMPI PUSH2 0x100 DUP1 DUP4 SLOAD DIV MUL DUP4 MSTORE SWAP2 PUSH1 0x20 ADD SWAP2 PUSH2 0x51E6 JUMP JUMPDEST DUP3 ADD SWAP2 SWAP1 PUSH0 MSTORE PUSH1 0x20 PUSH0 KECCAK256 SWAP1 JUMPDEST DUP2 SLOAD DUP2 MSTORE SWAP1 PUSH1 0x1 ADD SWAP1 PUSH1 0x20 ADD DUP1 DUP4 GT PUSH2 0x51C9 JUMPI DUP3 SWAP1 SUB PUSH1 0x1F AND DUP3 ADD SWAP2 JUMPDEST POP POP POP POP POP SWAP1 POP PUSH0 PUSH1 0x10 PUSH0 PUSH2 0x100 EXP DUP2 SLOAD DUP2 PUSH1 0xFF MUL NOT AND SWAP1 DUP4 ISZERO ISZERO MUL OR SWAP1 SSTORE POP PUSH1 0x40 MLOAD DUP1 PUSH1 0x20 ADD PUSH1 0x40 MSTORE DUP1 PUSH0 DUP2 MSTORE POP PUSH1 0x11 SWAP1 DUP2 PUSH2 0x5223 SWAP2 SWAP1 PUSH2 0x7AEF JUMP JUMPDEST POP PUSH0 PUSH1 0x12 PUSH0 PUSH2 0x100 EXP DUP2 SLOAD DUP2 PUSH20 0xFFFFFFFFFFFFFFFFFFFFFFFFFFFFFFFFFFFFFFFF MUL NOT AND SWAP1 DUP4 PUSH20 0xFFFFFFFFFFFFFFFFFFFFFFFFFFFFFFFFFFFFFFFF AND MUL OR SWAP1 SSTORE POP PUSH1 0x40 MLOAD PUSH1 0x20 ADD PUSH2 0x5273 SWAP1 PUSH2 0x8F9D JUMP JUMPDEST PUSH1 0x40 MLOAD PUSH1 0x20 DUP2 DUP4 SUB SUB DUP2 MSTORE SWAP1 PUSH1 0x40 MSTORE DUP1 MLOAD SWAP1 PUSH1 0x20 ADD KECCAK256 DUP3 SUB PUSH2 0x52A6 JUMPI PUSH1 0x14 PUSH0 PUSH2 0x529C SWAP2 SWAP1 PUSH2 0x6E80 JUMP JUMPDEST PUSH1 0x13 PUSH0 SWAP1 SSTORE PUSH2 0x5340 JUMP JUMPDEST PUSH1 0x40 MLOAD PUSH1 0x20 ADD PUSH2 0x52B5 SWAP1 PUSH2 0x8FFB JUMP JUMPDEST PUSH1 0x40 MLOAD PUSH1 0x20 DUP2 DUP4 SUB SUB DUP2 MSTORE SWAP1 PUSH1 0x40 MSTORE DUP1 MLOAD SWAP1 PUSH1 0x20 ADD KECCAK256 DUP3 SUB PUSH2 0x52F3 JUMPI PUSH1 0x15 PUSH0 PUSH2 0x100 EXP DUP2 SLOAD SWAP1 PUSH8 0xFFFFFFFFFFFFFFFF MUL NOT AND SWAP1 SSTORE PUSH1 0x16 PUSH0 SWAP1 SSTORE PUSH2 0x533F JUMP JUMPDEST PUSH1 0x40 MLOAD PUSH1 0x20 ADD PUSH2 0x5302 SWAP1 PUSH2 0x82DF JUMP JUMPDEST PUSH1 0x40 MLOAD PUSH1 0x20 DUP2 DUP4 SUB SUB DUP2 MSTORE SWAP1 PUSH1 0x40 MSTORE DUP1 MLOAD SWAP1 PUSH1 0x20 ADD KECCAK256 DUP3 SUB PUSH2 0x533E JUMPI PUSH1 0x17 PUSH0 PUSH2 0x532B SWAP2 SWAP1 PUSH2 0x6EBD JUMP JUMPDEST PUSH1 0x18 PUSH0 PUSH2 0x5338 SWAP2 SWAP1 PUSH2 0x6EBD JUMP JUMPDEST PUSH1 0x19 PUSH0 SWAP1 SSTORE JUMPDEST JUMPDEST JUMPDEST PUSH32 0x7E9DD9661006E07D548ED10DC1FD44E54AF530215C153AB93B4CDD0DABA0F864 DUP2 CALLER PUSH1 0x40 MLOAD PUSH2 0x5371 SWAP3 SWAP2 SWAP1 PUSH2 0x8D52 JUMP JUMPDEST PUSH1 0x40 MLOAD DUP1 SWAP2 SUB SWAP1 LOG1 POP POP JUMP JUMPDEST PUSH1 0x60 PUSH1 0x4 DUP1 SLOAD PUSH2 0x538C SWAP1 PUSH2 0x75E7 JUMP JUMPDEST DUP1 PUSH1 0x1F ADD PUSH1 0x20 DUP1 SWAP2 DIV MUL PUSH1 0x20 ADD PUSH1 0x40 MLOAD SWAP1 DUP2 ADD PUSH1 0x40 MSTORE DUP1 SWAP3 SWAP2 SWAP1 DUP2 DUP2 MSTORE PUSH1 0x20 ADD DUP3 DUP1 SLOAD PUSH2 0x53B8 SWAP1 PUSH2 0x75E7 JUMP JUMPDEST DUP1 ISZERO PUSH2 0x5403 JUMPI DUP1 PUSH1 0x1F LT PUSH2 0x53DA JUMPI PUSH2 0x100 DUP1 DUP4 SLOAD DIV MUL DUP4 MSTORE SWAP2 PUSH1 0x20 ADD SWAP2 PUSH2 0x5403 JUMP JUMPDEST DUP3 ADD SWAP2 SWAP1 PUSH0 MSTORE PUSH1 0x20 PUSH0 KECCAK256 SWAP1 JUMPDEST DUP2 SLOAD DUP2 MSTORE SWAP1 PUSH1 0x1 ADD SWAP1 PUSH1 0x20 ADD DUP1 DUP4 GT PUSH2 0x53E6 JUMPI DUP3 SWAP1 SUB PUSH1 0x1F AND DUP3 ADD SWAP2 JUMPDEST POP POP POP POP POP SWAP1 POP SWAP1 JUMP JUMPDEST PUSH1 0x1A PUSH0 SWAP1 SLOAD SWAP1 PUSH2 0x100 EXP SWAP1 DIV PUSH20 0xFFFFFFFFFFFFFFFFFFFFFFFFFFFFFFFFFFFFFFFF AND DUP2 JUMP JUMPDEST PUSH1 0x7 PUSH1 0x20 MSTORE DUP1 PUSH0 MSTORE PUSH1 0x40 PUSH0 KECCAK256 PUSH0 SWAP2 POP SLOAD SWAP1 PUSH2 0x100 EXP SWAP1 DIV PUSH1 0xFF AND DUP2 JUMP JUMPDEST PUSH0 PUSH1 0x10 PUSH1 0x2 SWAP1 SLOAD SWAP1 PUSH2 0x100 EXP SWAP1 DIV PUSH1 0xFF AND ISZERO PUSH2 0x54A0 JUMPI PUSH1 0x40 MLOAD PUSH32 0x8C379A000000000000000000000000000000000000000000000000000000000 DUP2 MSTORE PUSH1 0x4 ADD PUSH2 0x5497 SWAP1 PUSH2 0x76C9 JUMP JUMPDEST PUSH1 0x40 MLOAD DUP1 SWAP2 SUB SWAP1 REVERT JUMPDEST PUSH1 0x9 PUSH0 CALLER PUSH20 0xFFFFFFFFFFFFFFFFFFFFFFFFFFFFFFFFFFFFFFFF AND PUSH20 0xFFFFFFFFFFFFFFFFFFFFFFFFFFFFFFFFFFFFFFFF AND DUP2 MSTORE PUSH1 0x20 ADD SWAP1 DUP2 MSTORE PUSH1 0x20 ADD PUSH0 KECCAK256 PUSH0 SWAP1 SLOAD SWAP1 PUSH2 0x100 EXP SWAP1 DIV PUSH1 0xFF AND ISZERO PUSH2 0x552A JUMPI PUSH1 0x40 MLOAD PUSH32 0x8C379A000000000000000000000000000000000000000000000000000000000 DUP2 MSTORE PUSH1 0x4 ADD PUSH2 0x5521 SWAP1 PUSH2 0x7D0D JUMP JUMPDEST PUSH1 0x40 MLOAD DUP1 SWAP2 SUB SWAP1 REVERT JUMPDEST DUP2 PUSH16 0xFFFFFFFFFFFFFFFFFFFFFFFFFFFFFFFF AND DUP3 EQ PUSH2 0x557E JUMPI PUSH1 0x40 MLOAD PUSH32 0x8C379A000000000000000000000000000000000000000000000000000000000 DUP2 MSTORE PUSH1 0x4 ADD PUSH2 0x5575 SWAP1 PUSH2 0x7D75 JUMP JUMPDEST PUSH1 0x40 MLOAD DUP1 SWAP2 SUB SWAP1 REVERT JUMPDEST PUSH2 0x5588 DUP4 DUP4 PUSH2 0x68E0 JUMP JUMPDEST SWAP1 POP SWAP3 SWAP2 POP POP JUMP JUMPDEST PUSH0 ADDRESS SWAP1 POP SWAP1 JUMP JUMPDEST PUSH1 0x12 PUSH0 SWAP1 SLOAD SWAP1 PUSH2 0x100 EXP SWAP1 DIV PUSH20 0xFFFFFFFFFFFFFFFFFFFFFFFFFFFFFFFFFFFFFFFF AND DUP2 JUMP JUMPDEST PUSH1 0x10 PUSH1 0x1 SWAP1 SLOAD SWAP1 PUSH2 0x100 EXP SWAP1 DIV PUSH1 0xFF AND DUP2 JUMP JUMPDEST PUSH1 0x10 PUSH1 0x2 SWAP1 SLOAD SWAP1 PUSH2 0x100 EXP SWAP1 DIV PUSH1 0xFF AND ISZERO PUSH2 0x561F JUMPI PUSH1 0x40 MLOAD PUSH32 0x8C379A000000000000000000000000000000000000000000000000000000000 DUP2 MSTORE PUSH1 0x4 ADD PUSH2 0x5616 SWAP1 PUSH2 0x76C9 JUMP JUMPDEST PUSH1 0x40 MLOAD DUP1 SWAP2 SUB SWAP1 REVERT JUMPDEST PUSH1 0x10 PUSH0 SWAP1 SLOAD SWAP1 PUSH2 0x100 EXP SWAP1 DIV PUSH1 0xFF AND PUSH2 0x566D JUMPI PUSH1 0x40 MLOAD PUSH32 0x8C379A000000000000000000000000000000000000000000000000000000000 DUP2 MSTORE PUSH1 0x4 ADD PUSH2 0x5664 SWAP1 PUSH2 0x7F23 JUMP JUMPDEST PUSH1 0x40 MLOAD DUP1 SWAP2 SUB SWAP1 REVERT JUMPDEST PUSH1 0x40 MLOAD PUSH1 0x20 ADD PUSH2 0x567C SWAP1 PUSH2 0x8EE1 JUMP JUMPDEST PUSH1 0x40 MLOAD PUSH1 0x20 DUP2 DUP4 SUB SUB DUP2 MSTORE SWAP1 PUSH1 0x40 MSTORE DUP1 MLOAD SWAP1 PUSH1 0x20 ADD KECCAK256 PUSH1 0x11 PUSH1 0x40 MLOAD PUSH1 0x20 ADD PUSH2 0x56A4 SWAP2 SWAP1 PUSH2 0x8029 JUMP JUMPDEST PUSH1 0x40 MLOAD PUSH1 0x20 DUP2 DUP4 SUB SUB DUP2 MSTORE SWAP1 PUSH1 0x40 MSTORE DUP1 MLOAD SWAP1 PUSH1 0x20 ADD KECCAK256 EQ PUSH2 0x56FA JUMPI PUSH1 0x40 MLOAD PUSH32 0x8C379A000000000000000000000000000000000000000000000000000000000 DUP2 MSTORE PUSH1 0x4 ADD PUSH2 0x56F1 SWAP1 PUSH2 0x8089 JUMP JUMPDEST PUSH1 0x40 MLOAD DUP1 SWAP2 SUB SWAP1 REVERT JUMPDEST PUSH1 0x3 PUSH1 0xF SLOAD LT ISZERO PUSH2 0x5740 JUMPI PUSH1 0x40 MLOAD PUSH32 0x8C379A000000000000000000000000000000000000000000000000000000000 DUP2 MSTORE PUSH1 0x4 ADD PUSH2 0x5737 SWAP1 PUSH2 0x80F1 JUMP JUMPDEST PUSH1 0x40 MLOAD DUP1 SWAP2 SUB SWAP1 REVERT JUMPDEST PUSH0 PUSH20 0xFFFFFFFFFFFFFFFFFFFFFFFFFFFFFFFFFFFFFFFF AND PUSH1 0x1A PUSH0 SWAP1 SLOAD SWAP1 PUSH2 0x100 EXP SWAP1 DIV PUSH20 0xFFFFFFFFFFFFFFFFFFFFFFFFFFFFFFFFFFFFFFFF AND PUSH20 0xFFFFFFFFFFFFFFFFFFFFFFFFFFFFFFFFFFFFFFFF AND SUB PUSH2 0x57CF JUMPI PUSH1 0x40 MLOAD PUSH32 0x8C379A000000000000000000000000000000000000000000000000000000000 DUP2 MSTORE PUSH1 0x4 ADD PUSH2 0x57C6 SWAP1 PUSH2 0x8A8C JUMP JUMPDEST PUSH1 0x40 MLOAD DUP1 SWAP2 SUB SWAP1 REVERT JUMPDEST PUSH1 0x7 PUSH0 PUSH1 0x1A PUSH0 SWAP1 SLOAD SWAP1 PUSH2 0x100 EXP SWAP1 DIV PUSH20 0xFFFFFFFFFFFFFFFFFFFFFFFFFFFFFFFFFFFFFFFF AND PUSH20 0xFFFFFFFFFFFFFFFFFFFFFFFFFFFFFFFFFFFFFFFF AND PUSH20 0xFFFFFFFFFFFFFFFFFFFFFFFFFFFFFFFFFFFFFFFF AND DUP2 MSTORE PUSH1 0x20 ADD SWAP1 DUP2 MSTORE PUSH1 0x20 ADD PUSH0 KECCAK256 PUSH0 SWAP1 SLOAD SWAP1 PUSH2 0x100 EXP SWAP1 DIV PUSH1 0xFF AND ISZERO PUSH2 0x587A JUMPI PUSH1 0x40 MLOAD PUSH32 0x8C379A000000000000000000000000000000000000000000000000000000000 DUP2 MSTORE PUSH1 0x4 ADD PUSH2 0x5871 SWAP1 PUSH2 0x7E45 JUMP JUMPDEST PUSH1 0x40 MLOAD DUP1 SWAP2 SUB SWAP1 REVERT JUMPDEST PUSH1 0x1 PUSH1 0x7 PUSH0 PUSH1 0x1A PUSH0 SWAP1 SLOAD SWAP1 PUSH2 0x100 EXP SWAP1 DIV PUSH20 0xFFFFFFFFFFFFFFFFFFFFFFFFFFFFFFFFFFFFFFFF AND PUSH20 0xFFFFFFFFFFFFFFFFFFFFFFFFFFFFFFFFFFFFFFFF AND PUSH20 0xFFFFFFFFFFFFFFFFFFFFFFFFFFFFFFFFFFFFFFFF AND DUP2 MSTORE PUSH1 0x20 ADD SWAP1 DUP2 MSTORE PUSH1 0x20 ADD PUSH0 KECCAK256 PUSH0 PUSH2 0x100 EXP DUP2 SLOAD DUP2 PUSH1 0xFF MUL NOT AND SWAP1 DUP4 ISZERO ISZERO MUL OR SWAP1 SSTORE POP PUSH1 0x8 PUSH1 0x1A PUSH0 SWAP1 SLOAD SWAP1 PUSH2 0x100 EXP SWAP1 DIV PUSH20 0xFFFFFFFFFFFFFFFFFFFFFFFFFFFFFFFFFFFFFFFF AND SWAP1 DUP1 PUSH1 0x1 DUP2 SLOAD ADD DUP1 DUP3 SSTORE DUP1 SWAP2 POP POP PUSH1 0x1 SWAP1 SUB SWAP1 PUSH0 MSTORE PUSH1 0x20 PUSH0 KECCAK256 ADD PUSH0 SWAP1 SWAP2 SWAP1 SWAP2 SWAP1 SWAP2 PUSH2 0x100 EXP DUP2 SLOAD DUP2 PUSH20 0xFFFFFFFFFFFFFFFFFFFFFFFFFFFFFFFFFFFFFFFF MUL NOT AND SWAP1 DUP4 PUSH20 0xFFFFFFFFFFFFFFFFFFFFFFFFFFFFFFFFFFFFFFFF AND MUL OR SWAP1 SSTORE POP PUSH0 PUSH1 0x10 PUSH0 PUSH2 0x100 EXP DUP2 SLOAD DUP2 PUSH1 0xFF MUL NOT AND SWAP1 DUP4 ISZERO ISZERO MUL OR SWAP1 SSTORE POP PUSH1 0x40 MLOAD DUP1 PUSH1 0x20 ADD PUSH1 0x40 MSTORE DUP1 PUSH0 DUP2 MSTORE POP PUSH1 0x11 SWAP1 DUP2 PUSH2 0x59A7 SWAP2 SWAP1 PUSH2 0x7AEF JUMP JUMPDEST POP PUSH32 0x7008E45448AD5AA92D72EC64B89807038870139694F96BE53E604AAB0426844D PUSH1 0x1A PUSH0 SWAP1 SLOAD SWAP1 PUSH2 0x100 EXP SWAP1 DIV PUSH20 0xFFFFFFFFFFFFFFFFFFFFFFFFFFFFFFFFFFFFFFFF AND PUSH1 0x40 MLOAD PUSH2 0x59F8 SWAP2 SWAP1 PUSH2 0x7EAD JUMP JUMPDEST PUSH1 0x40 MLOAD DUP1 SWAP2 SUB SWAP1 LOG1 PUSH1 0x1A PUSH0 PUSH2 0x100 EXP DUP2 SLOAD SWAP1 PUSH20 0xFFFFFFFFFFFFFFFFFFFFFFFFFFFFFFFFFFFFFFFF MUL NOT AND SWAP1 SSTORE PUSH1 0x1B PUSH0 PUSH2 0x5A31 SWAP2 SWAP1 PUSH2 0x6E80 JUMP JUMPDEST JUMP JUMPDEST PUSH1 0xA PUSH0 SWAP1 SLOAD SWAP1 PUSH2 0x100 EXP SWAP1 DIV PUSH20 0xFFFFFFFFFFFFFFFFFFFFFFFFFFFFFFFFFFFFFFFF AND DUP2 JUMP JUMPDEST PUSH1 0x16 SLOAD DUP2 JUMP JUMPDEST PUSH2 0x5A67 CALLER PUSH2 0x6596 JUMP JUMPDEST PUSH2 0x5AA6 JUMPI PUSH1 0x40 MLOAD PUSH32 0x8C379A000000000000000000000000000000000000000000000000000000000 DUP2 MSTORE PUSH1 0x4 ADD PUSH2 0x5A9D SWAP1 PUSH2 0x7661 JUMP JUMPDEST PUSH1 0x40 MLOAD DUP1 SWAP2 SUB SWAP1 REVERT JUMPDEST PUSH1 0x10 PUSH1 0x2 SWAP1 SLOAD SWAP1 PUSH2 0x100 EXP SWAP1 DIV PUSH1 0xFF AND ISZERO PUSH2 0x5AF6 JUMPI PUSH1 0x40 MLOAD PUSH32 0x8C379A000000000000000000000000000000000000000000000000000000000 DUP2 MSTORE PUSH1 0x4 ADD PUSH2 0x5AED SWAP1 PUSH2 0x76C9 JUMP JUMPDEST PUSH1 0x40 MLOAD DUP1 SWAP2 SUB SWAP1 REVERT JUMPDEST PUSH1 0x5 PUSH1 0xF SLOAD LT PUSH2 0x5B3B JUMPI PUSH1 0x40 MLOAD PUSH32 0x8C379A000000000000000000000000000000000000000000000000000000000 DUP2 MSTORE PUSH1 0x4 ADD PUSH2 0x5B32 SWAP1 PUSH2 0x9384 JUMP JUMPDEST PUSH1 0x40 MLOAD DUP1 SWAP2 SUB SWAP1 REVERT JUMPDEST PUSH2 0x5B43 PUSH2 0x6638 JUMP JUMPDEST PUSH0 PUSH1 0xF DUP2 SWAP1 SSTORE POP PUSH0 PUSH1 0x10 PUSH1 0x2 PUSH2 0x100 EXP DUP2 SLOAD DUP2 PUSH1 0xFF MUL NOT AND SWAP1 DUP4 ISZERO ISZERO MUL OR SWAP1 SSTORE POP PUSH32 0xAB5F6DACF93A267A93A533DE8A56370DE8341BBD8102017307E7BE375C3DDA6A PUSH1 0x40 MLOAD PUSH1 0x40 MLOAD DUP1 SWAP2 SUB SWAP1 LOG1 JUMP JUMPDEST PUSH1 0xF SLOAD DUP2 JUMP JUMPDEST PUSH1 0x9 PUSH1 0x20 MSTORE DUP1 PUSH0 MSTORE PUSH1 0x40 PUSH0 KECCAK256 PUSH0 SWAP2 POP SLOAD SWAP1 PUSH2 0x100 EXP SWAP1 DIV PUSH1 0xFF AND DUP2 JUMP JUMPDEST PUSH1 0x10 PUSH1 0x2 SWAP1 SLOAD SWAP1 PUSH2 0x100 EXP SWAP1 DIV PUSH1 0xFF AND ISZERO PUSH2 0x5C05 JUMPI PUSH1 0x40 MLOAD PUSH32 0x8C379A000000000000000000000000000000000000000000000000000000000 DUP2 MSTORE PUSH1 0x4 ADD PUSH2 0x5BFC SWAP1 PUSH2 0x76C9 JUMP JUMPDEST PUSH1 0x40 MLOAD DUP1 SWAP2 SUB SWAP1 REVERT JUMPDEST PUSH1 0x10 PUSH0 SWAP1 SLOAD SWAP1 PUSH2 0x100 EXP SWAP1 DIV PUSH1 0xFF AND PUSH2 0x5C53 JUMPI PUSH1 0x40 MLOAD PUSH32 0x8C379A000000000000000000000000000000000000000000000000000000000 DUP2 MSTORE PUSH1 0x4 ADD PUSH2 0x5C4A SWAP1 PUSH2 0x7F23 JUMP JUMPDEST PUSH1 0x40 MLOAD DUP1 SWAP2 SUB SWAP1 REVERT JUMPDEST PUSH1 0x40 MLOAD PUSH1 0x20 ADD PUSH2 0x5C62 SWAP1 PUSH2 0x8F9D JUMP JUMPDEST PUSH1 0x40 MLOAD PUSH1 0x20 DUP2 DUP4 SUB SUB DUP2 MSTORE SWAP1 PUSH1 0x40 MSTORE DUP1 MLOAD SWAP1 PUSH1 0x20 ADD KECCAK256 PUSH1 0x11 PUSH1 0x40 MLOAD PUSH1 0x20 ADD PUSH2 0x5C8A SWAP2 SWAP1 PUSH2 0x8029 JUMP JUMPDEST PUSH1 0x40 MLOAD PUSH1 0x20 DUP2 DUP4 SUB SUB DUP2 MSTORE SWAP1 PUSH1 0x40 MSTORE DUP1 MLOAD SWAP1 PUSH1 0x20 ADD KECCAK256 EQ PUSH2 0x5CE0 JUMPI PUSH1 0x40 MLOAD PUSH32 0x8C379A000000000000000000000000000000000000000000000000000000000 DUP2 MSTORE PUSH1 0x4 ADD PUSH2 0x5CD7 SWAP1 PUSH2 0x8089 JUMP JUMPDEST PUSH1 0x40 MLOAD DUP1 SWAP2 SUB SWAP1 REVERT JUMPDEST PUSH1 0x13 SLOAD TIMESTAMP LT ISZERO PUSH2 0x5D25 JUMPI PUSH1 0x40 MLOAD PUSH32 0x8C379A000000000000000000000000000000000000000000000000000000000 DUP2 MSTORE PUSH1 0x4 ADD PUSH2 0x5D1C SWAP1 PUSH2 0x833D JUMP JUMPDEST PUSH1 0x40 MLOAD DUP1 SWAP2 SUB SWAP1 REVERT JUMPDEST PUSH1 0x5 PUSH1 0xF SLOAD LT ISZERO PUSH2 0x5D6B JUMPI PUSH1 0x40 MLOAD PUSH32 0x8C379A000000000000000000000000000000000000000000000000000000000 DUP2 MSTORE PUSH1 0x4 ADD PUSH2 0x5D62 SWAP1 PUSH2 0x80F1 JUMP JUMPDEST PUSH1 0x40 MLOAD DUP1 SWAP2 SUB SWAP1 REVERT JUMPDEST PUSH2 0x5DFC PUSH1 0x14 DUP1 SLOAD PUSH2 0x5D7B SWAP1 PUSH2 0x75E7 JUMP JUMPDEST DUP1 PUSH1 0x1F ADD PUSH1 0x20 DUP1 SWAP2 DIV MUL PUSH1 0x20 ADD PUSH1 0x40 MLOAD SWAP1 DUP2 ADD PUSH1 0x40 MSTORE DUP1 SWAP3 SWAP2 SWAP1 DUP2 DUP2 MSTORE PUSH1 0x20 ADD DUP3 DUP1 SLOAD PUSH2 0x5DA7 SWAP1 PUSH2 0x75E7 JUMP JUMPDEST DUP1 ISZERO PUSH2 0x5DF2 JUMPI DUP1 PUSH1 0x1F LT PUSH2 0x5DC9 JUMPI PUSH2 0x100 DUP1 DUP4 SLOAD DIV MUL DUP4 MSTORE SWAP2 PUSH1 0x20 ADD SWAP2 PUSH2 0x5DF2 JUMP JUMPDEST DUP3 ADD SWAP2 SWAP1 PUSH0 MSTORE PUSH1 0x20 PUSH0 KECCAK256 SWAP1 JUMPDEST DUP2 SLOAD DUP2 MSTORE SWAP1 PUSH1 0x1 ADD SWAP1 PUSH1 0x20 ADD DUP1 DUP4 GT PUSH2 0x5DD5 JUMPI DUP3 SWAP1 SUB PUSH1 0x1F AND DUP3 ADD SWAP2 JUMPDEST POP POP POP POP POP PUSH2 0x6902 JUMP JUMPDEST PUSH0 PUSH1 0x10 PUSH0 PUSH2 0x100 EXP DUP2 SLOAD DUP2 PUSH1 0xFF MUL NOT AND SWAP1 DUP4 ISZERO ISZERO MUL OR SWAP1 SSTORE POP PUSH1 0x40 MLOAD DUP1 PUSH1 0x20 ADD PUSH1 0x40 MSTORE DUP1 PUSH0 DUP2 MSTORE POP PUSH1 0x11 SWAP1 DUP2 PUSH2 0x5E32 SWAP2 SWAP1 PUSH2 0x7AEF JUMP JUMPDEST POP PUSH0 PUSH1 0x12 PUSH0 PUSH2 0x100 EXP DUP2 SLOAD DUP2 PUSH20 0xFFFFFFFFFFFFFFFFFFFFFFFFFFFFFFFFFFFFFFFF MUL NOT AND SWAP1 DUP4 PUSH20 0xFFFFFFFFFFFFFFFFFFFFFFFFFFFFFFFFFFFFFFFF AND MUL OR SWAP1 SSTORE POP PUSH1 0x14 PUSH0 PUSH2 0x5E80 SWAP2 SWAP1 PUSH2 0x6E80 JUMP JUMPDEST PUSH1 0x13 PUSH0 SWAP1 SSTORE PUSH32 0x4737457377F528CC8AFD815F73ECB8B05DF80D047DBFFC41C17750A4033592BC PUSH1 0x14 PUSH1 0x40 MLOAD PUSH2 0x5EB5 SWAP2 SWAP1 PUSH2 0x9423 JUMP JUMPDEST PUSH1 0x40 MLOAD DUP1 SWAP2 SUB SWAP1 LOG1 JUMP JUMPDEST PUSH0 PUSH1 0xB SLOAD PUSH1 0x6 SLOAD PUSH2 0x5ED0 SWAP2 SWAP1 PUSH2 0x8AAA JUMP JUMPDEST SWAP1 POP SWAP1 JUMP JUMPDEST PUSH1 0xD DUP2 DUP2 SLOAD DUP2 LT PUSH2 0x5EE4 JUMPI PUSH0 DUP1 REVERT JUMPDEST SWAP1 PUSH0 MSTORE PUSH1 0x20 PUSH0 KECCAK256 ADD PUSH0 SWAP2 POP SLOAD SWAP1 PUSH2 0x100 EXP SWAP1 DIV PUSH20 0xFFFFFFFFFFFFFFFFFFFFFFFFFFFFFFFFFFFFFFFF AND DUP2 JUMP JUMPDEST PUSH0 PUSH1 0x1 PUSH0 DUP5 PUSH20 0xFFFFFFFFFFFFFFFFFFFFFFFFFFFFFFFFFFFFFFFF AND PUSH20 0xFFFFFFFFFFFFFFFFFFFFFFFFFFFFFFFFFFFFFFFF AND DUP2 MSTORE PUSH1 0x20 ADD SWAP1 DUP2 MSTORE PUSH1 0x20 ADD PUSH0 KECCAK256 PUSH0 DUP4 PUSH20 0xFFFFFFFFFFFFFFFFFFFFFFFFFFFFFFFFFFFFFFFF AND PUSH20 0xFFFFFFFFFFFFFFFFFFFFFFFFFFFFFFFFFFFFFFFF AND DUP2 MSTORE PUSH1 0x20 ADD SWAP1 DUP2 MSTORE PUSH1 0x20 ADD PUSH0 KECCAK256 SLOAD SWAP1 POP SWAP3 SWAP2 POP POP JUMP JUMPDEST PUSH0 PUSH1 0x9 PUSH0 DUP4 PUSH20 0xFFFFFFFFFFFFFFFFFFFFFFFFFFFFFFFFFFFFFFFF AND PUSH20 0xFFFFFFFFFFFFFFFFFFFFFFFFFFFFFFFFFFFFFFFF AND DUP2 MSTORE PUSH1 0x20 ADD SWAP1 DUP2 MSTORE PUSH1 0x20 ADD PUSH0 KECCAK256 PUSH0 SWAP1 SLOAD SWAP1 PUSH2 0x100 EXP SWAP1 DIV PUSH1 0xFF AND SWAP1 POP SWAP2 SWAP1 POP JUMP JUMPDEST PUSH0 PUSH0 PUSH1 0xA PUSH0 SWAP1 SLOAD SWAP1 PUSH2 0x100 EXP SWAP1 DIV PUSH20 0xFFFFFFFFFFFFFFFFFFFFFFFFFFFFFFFFFFFFFFFF AND SWAP1 POP PUSH0 DUP2 PUSH20 0xFFFFFFFFFFFFFFFFFFFFFFFFFFFFFFFFFFFFFFFF AND PUSH4 0x3850C7BD PUSH1 0x40 MLOAD DUP2 PUSH4 0xFFFFFFFF AND PUSH1 0xE0 SHL DUP2 MSTORE PUSH1 0x4 ADD PUSH1 0xE0 PUSH1 0x40 MLOAD DUP1 DUP4 SUB DUP2 DUP7 GAS STATICCALL ISZERO DUP1 ISZERO PUSH2 0x6054 JUMPI RETURNDATASIZE PUSH0 PUSH0 RETURNDATACOPY RETURNDATASIZE PUSH0 REVERT JUMPDEST POP POP POP POP PUSH1 0x40 MLOAD RETURNDATASIZE PUSH1 0x1F NOT PUSH1 0x1F DUP3 ADD AND DUP3 ADD DUP1 PUSH1 0x40 MSTORE POP DUP2 ADD SWAP1 PUSH2 0x6078 SWAP2 SWAP1 PUSH2 0x952E JUMP JUMPDEST POP POP POP POP POP POP SWAP1 POP PUSH0 PUSH25 0x1000000000000000000000000000000000000000000000000 DUP3 PUSH20 0xFFFFFFFFFFFFFFFFFFFFFFFFFFFFFFFFFFFFFFFF AND DUP4 PUSH20 0xFFFFFFFFFFFFFFFFFFFFFFFFFFFFFFFFFFFFFFFF AND PUSH2 0x60D3 SWAP2 SWAP1 PUSH2 0x9105 JUMP JUMPDEST PUSH2 0x60DD SWAP2 SWAP1 PUSH2 0x95F8 JUMP JUMPDEST SWAP1 POP DUP1 SWAP4 POP POP POP POP SWAP1 JUMP JUMPDEST PUSH1 0x10 PUSH1 0x2 SWAP1 SLOAD SWAP1 PUSH2 0x100 EXP SWAP1 DIV PUSH1 0xFF AND ISZERO PUSH2 0x6138 JUMPI PUSH1 0x40 MLOAD PUSH32 0x8C379A000000000000000000000000000000000000000000000000000000000 DUP2 MSTORE PUSH1 0x4 ADD PUSH2 0x612F SWAP1 PUSH2 0x76C9 JUMP JUMPDEST PUSH1 0x40 MLOAD DUP1 SWAP2 SUB SWAP1 REVERT JUMPDEST PUSH1 0x10 PUSH0 SWAP1 SLOAD SWAP1 PUSH2 0x100 EXP SWAP1 DIV PUSH1 0xFF AND PUSH2 0x6186 JUMPI PUSH1 0x40 MLOAD PUSH32 0x8C379A000000000000000000000000000000000000000000000000000000000 DUP2 MSTORE PUSH1 0x4 ADD PUSH2 0x617D SWAP1 PUSH2 0x7F23 JUMP JUMPDEST PUSH1 0x40 MLOAD DUP1 SWAP2 SUB SWAP1 REVERT JUMPDEST PUSH1 0x40 MLOAD PUSH1 0x20 ADD PUSH2 0x6195 SWAP1 PUSH2 0x8F3F JUMP JUMPDEST PUSH1 0x40 MLOAD PUSH1 0x20 DUP2 DUP4 SUB SUB DUP2 MSTORE SWAP1 PUSH1 0x40 MSTORE DUP1 MLOAD SWAP1 PUSH1 0x20 ADD KECCAK256 PUSH1 0x11 PUSH1 0x40 MLOAD PUSH1 0x20 ADD PUSH2 0x61BD SWAP2 SWAP1 PUSH2 0x8029 JUMP JUMPDEST PUSH1 0x40 MLOAD PUSH1 0x20 DUP2 DUP4 SUB SUB DUP2 MSTORE SWAP1 PUSH1 0x40 MSTORE DUP1 MLOAD SWAP1 PUSH1 0x20 ADD KECCAK256 EQ PUSH2 0x6213 JUMPI PUSH1 0x40 MLOAD PUSH32 0x8C379A000000000000000000000000000000000000000000000000000000000 DUP2 MSTORE PUSH1 0x4 ADD PUSH2 0x620A SWAP1 PUSH2 0x8089 JUMP JUMPDEST PUSH1 0x40 MLOAD DUP1 SWAP2 SUB SWAP1 REVERT JUMPDEST PUSH1 0x2 PUSH1 0xF SLOAD LT ISZERO PUSH2 0x6259 JUMPI PUSH1 0x40 MLOAD PUSH32 0x8C379A000000000000000000000000000000000000000000000000000000000 DUP2 MSTORE PUSH1 0x4 ADD PUSH2 0x6250 SWAP1 PUSH2 0x80F1 JUMP JUMPDEST PUSH1 0x40 MLOAD DUP1 SWAP2 SUB SWAP1 REVERT JUMPDEST PUSH0 PUSH20 0xFFFFFFFFFFFFFFFFFFFFFFFFFFFFFFFFFFFFFFFF AND PUSH1 0x1E PUSH0 SWAP1 SLOAD SWAP1 PUSH2 0x100 EXP SWAP1 DIV PUSH20 0xFFFFFFFFFFFFFFFFFFFFFFFFFFFFFFFFFFFFFFFF AND PUSH20 0xFFFFFFFFFFFFFFFFFFFFFFFFFFFFFFFFFFFFFFFF AND SUB PUSH2 0x62E8 JUMPI PUSH1 0x40 MLOAD PUSH32 0x8C379A000000000000000000000000000000000000000000000000000000000 DUP2 MSTORE PUSH1 0x4 ADD PUSH2 0x62DF SWAP1 PUSH2 0x9672 JUMP JUMPDEST PUSH1 0x40 MLOAD DUP1 SWAP2 SUB SWAP1 REVERT JUMPDEST PUSH1 0x7 PUSH0 PUSH1 0x1E PUSH0 SWAP1 SLOAD SWAP1 PUSH2 0x100 EXP SWAP1 DIV PUSH20 0xFFFFFFFFFFFFFFFFFFFFFFFFFFFFFFFFFFFFFFFF AND PUSH20 0xFFFFFFFFFFFFFFFFFFFFFFFFFFFFFFFFFFFFFFFF AND PUSH20 0xFFFFFFFFFFFFFFFFFFFFFFFFFFFFFFFFFFFFFFFF AND DUP2 MSTORE PUSH1 0x20 ADD SWAP1 DUP2 MSTORE PUSH1 0x20 ADD PUSH0 KECCAK256 PUSH0 SWAP1 SLOAD SWAP1 PUSH2 0x100 EXP SWAP1 DIV PUSH1 0xFF AND PUSH2 0x6392 JUMPI PUSH1 0x40 MLOAD PUSH32 0x8C379A000000000000000000000000000000000000000000000000000000000 DUP2 MSTORE PUSH1 0x4 ADD PUSH2 0x6389 SWAP1 PUSH2 0x7799 JUMP JUMPDEST PUSH1 0x40 MLOAD DUP1 SWAP2 SUB SWAP1 REVERT JUMPDEST PUSH2 0x63BF PUSH1 0x1E PUSH0 SWAP1 SLOAD SWAP1 PUSH2 0x100 EXP SWAP1 DIV PUSH20 0xFFFFFFFFFFFFFFFFFFFFFFFFFFFFFFFFFFFFFFFF AND PUSH1 0x1F SLOAD PUSH2 0x6861 JUMP JUMPDEST PUSH1 0x1F SLOAD PUSH1 0xB PUSH0 DUP3 DUP3 SLOAD PUSH2 0x63D2 SWAP2 SWAP1 PUSH2 0x78B4 JUMP JUMPDEST SWAP3 POP POP DUP2 SWAP1 SSTORE POP PUSH0 PUSH1 0x10 PUSH0 PUSH2 0x100 EXP DUP2 SLOAD DUP2 PUSH1 0xFF MUL NOT AND SWAP1 DUP4 ISZERO ISZERO MUL OR SWAP1 SSTORE POP PUSH1 0x40 MLOAD DUP1 PUSH1 0x20 ADD PUSH1 0x40 MSTORE DUP1 PUSH0 DUP2 MSTORE POP PUSH1 0x11 SWAP1 DUP2 PUSH2 0x640F SWAP2 SWAP1 PUSH2 0x7AEF JUMP JUMPDEST POP PUSH32 0x570563F436DC733C61D3863FD95E547272964F69D7B5CFE7461360A7A5643E3C PUSH1 0x1E PUSH0 SWAP1 SLOAD SWAP1 PUSH2 0x100 EXP SWAP1 DIV PUSH20 0xFFFFFFFFFFFFFFFFFFFFFFFFFFFFFFFFFFFFFFFF AND PUSH1 0x1F SLOAD PUSH1 0x40 MLOAD PUSH2 0x6464 SWAP3 SWAP2 SWAP1 PUSH2 0x7BBE JUMP JUMPDEST PUSH1 0x40 MLOAD DUP1 SWAP2 SUB SWAP1 LOG1 PUSH1 0x1E PUSH0 PUSH2 0x100 EXP DUP2 SLOAD SWAP1 PUSH20 0xFFFFFFFFFFFFFFFFFFFFFFFFFFFFFFFFFFFFFFFF MUL NOT AND SWAP1 SSTORE PUSH1 0x1F PUSH0 SWAP1 SSTORE JUMP JUMPDEST PUSH2 0x649F PUSH2 0x6717 JUMP JUMPDEST PUSH0 PUSH20 0xFFFFFFFFFFFFFFFFFFFFFFFFFFFFFFFFFFFFFFFF AND DUP2 PUSH20 0xFFFFFFFFFFFFFFFFFFFFFFFFFFFFFFFFFFFFFFFF AND SUB PUSH2 0x650F JUMPI PUSH0 PUSH1 0x40 MLOAD PUSH32 0x1E4FBDF700000000000000000000000000000000000000000000000000000000 DUP2 MSTORE PUSH1 0x4 ADD PUSH2 0x6506 SWAP2 SWAP1 PUSH2 0x717E JUMP JUMPDEST PUSH1 0x40 MLOAD DUP1 SWAP2 SUB SWAP1 REVERT JUMPDEST PUSH2 0x6518 DUP2 PUSH2 0x679E JUMP JUMPDEST POP JUMP JUMPDEST PUSH1 0x2 DUP2 JUMP JUMPDEST PUSH2 0x6528 PUSH2 0x6717 JUMP JUMPDEST PUSH1 0x1 PUSH1 0x10 PUSH1 0x1 PUSH2 0x100 EXP DUP2 SLOAD DUP2 PUSH1 0xFF MUL NOT AND SWAP1 DUP4 ISZERO ISZERO MUL OR SWAP1 SSTORE POP PUSH32 0x20C53179FE7C6306D9D1C279D52BAE5E736F5E1178137542D3A7A9D1752691BE PUSH1 0x40 MLOAD PUSH1 0x40 MLOAD DUP1 SWAP2 SUB SWAP1 LOG1 JUMP JUMPDEST PUSH8 0xDE0B6B3A7640000 DUP2 JUMP JUMPDEST PUSH0 CALLER SWAP1 POP SWAP1 JUMP JUMPDEST PUSH2 0x6591 DUP4 DUP4 DUP4 PUSH1 0x1 PUSH2 0x6915 JUMP JUMPDEST POP POP POP JUMP JUMPDEST PUSH0 PUSH0 PUSH0 SWAP1 POP JUMPDEST PUSH1 0xD DUP1 SLOAD SWAP1 POP DUP2 LT ISZERO PUSH2 0x662E JUMPI DUP3 PUSH20 0xFFFFFFFFFFFFFFFFFFFFFFFFFFFFFFFFFFFFFFFF AND PUSH1 0xD DUP3 DUP2 SLOAD DUP2 LT PUSH2 0x65D4 JUMPI PUSH2 0x65D3 PUSH2 0x83C3 JUMP JUMPDEST JUMPDEST SWAP1 PUSH0 MSTORE PUSH1 0x20 PUSH0 KECCAK256 ADD PUSH0 SWAP1 SLOAD SWAP1 PUSH2 0x100 EXP SWAP1 DIV PUSH20 0xFFFFFFFFFFFFFFFFFFFFFFFFFFFFFFFFFFFFFFFF AND PUSH20 0xFFFFFFFFFFFFFFFFFFFFFFFFFFFFFFFFFFFFFFFF AND SUB PUSH2 0x6621 JUMPI PUSH1 0x1 SWAP2 POP POP PUSH2 0x6633 JUMP JUMPDEST DUP1 DUP1 PUSH1 0x1 ADD SWAP2 POP POP PUSH2 0x659C JUMP JUMPDEST POP PUSH0 SWAP1 POP JUMPDEST SWAP2 SWAP1 POP JUMP JUMPDEST PUSH0 PUSH0 SWAP1 POP JUMPDEST PUSH1 0xD DUP1 SLOAD SWAP1 POP DUP2 LT ISZERO PUSH2 0x66E6 JUMPI PUSH0 PUSH1 0xE PUSH0 PUSH1 0xD DUP5 DUP2 SLOAD DUP2 LT PUSH2 0x6662 JUMPI PUSH2 0x6661 PUSH2 0x83C3 JUMP JUMPDEST JUMPDEST SWAP1 PUSH0 MSTORE PUSH1 0x20 PUSH0 KECCAK256 ADD PUSH0 SWAP1 SLOAD SWAP1 PUSH2 0x100 EXP SWAP1 DIV PUSH20 0xFFFFFFFFFFFFFFFFFFFFFFFFFFFFFFFFFFFFFFFF AND PUSH20 0xFFFFFFFFFFFFFFFFFFFFFFFFFFFFFFFFFFFFFFFF AND PUSH20 0xFFFFFFFFFFFFFFFFFFFFFFFFFFFFFFFFFFFFFFFF AND DUP2 MSTORE PUSH1 0x20 ADD SWAP1 DUP2 MSTORE PUSH1 0x20 ADD PUSH0 KECCAK256 PUSH0 PUSH2 0x100 EXP DUP2 SLOAD DUP2 PUSH1 0xFF MUL NOT AND SWAP1 DUP4 ISZERO ISZERO MUL OR SWAP1 SSTORE POP DUP1 DUP1 PUSH1 0x1 ADD SWAP2 POP POP PUSH2 0x663D JUMP JUMPDEST POP JUMP JUMPDEST PUSH0 PUSH0 PUSH2 0x66F3 PUSH2 0x657D JUMP JUMPDEST SWAP1 POP PUSH2 0x6700 DUP6 DUP3 DUP6 PUSH2 0x6AE4 JUMP JUMPDEST PUSH2 0x670B DUP6 DUP6 DUP6 PUSH2 0x6B77 JUMP JUMPDEST PUSH1 0x1 SWAP2 POP POP SWAP4 SWAP3 POP POP POP JUMP JUMPDEST PUSH2 0x671F PUSH2 0x657D JUMP JUMPDEST PUSH20 0xFFFFFFFFFFFFFFFFFFFFFFFFFFFFFFFFFFFFFFFF AND PUSH2 0x673D PUSH2 0x4D6A JUMP JUMPDEST PUSH20 0xFFFFFFFFFFFFFFFFFFFFFFFFFFFFFFFFFFFFFFFF AND EQ PUSH2 0x679C JUMPI PUSH2 0x6760 PUSH2 0x657D JUMP JUMPDEST PUSH1 0x40 MLOAD PUSH32 0x118CDAA700000000000000000000000000000000000000000000000000000000 DUP2 MSTORE PUSH1 0x4 ADD PUSH2 0x6793 SWAP2 SWAP1 PUSH2 0x717E JUMP JUMPDEST PUSH1 0x40 MLOAD DUP1 SWAP2 SUB SWAP1 REVERT JUMPDEST JUMP JUMPDEST PUSH0 PUSH1 0x5 PUSH0 SWAP1 SLOAD SWAP1 PUSH2 0x100 EXP SWAP1 DIV PUSH20 0xFFFFFFFFFFFFFFFFFFFFFFFFFFFFFFFFFFFFFFFF AND SWAP1 POP DUP2 PUSH1 0x5 PUSH0 PUSH2 0x100 EXP DUP2 SLOAD DUP2 PUSH20 0xFFFFFFFFFFFFFFFFFFFFFFFFFFFFFFFFFFFFFFFF MUL NOT AND SWAP1 DUP4 PUSH20 0xFFFFFFFFFFFFFFFFFFFFFFFFFFFFFFFFFFFFFFFF AND MUL OR SWAP1 SSTORE POP DUP2 PUSH20 0xFFFFFFFFFFFFFFFFFFFFFFFFFFFFFFFFFFFFFFFF AND DUP2 PUSH20 0xFFFFFFFFFFFFFFFFFFFFFFFFFFFFFFFFFFFFFFFF AND PUSH32 0x8BE0079C531659141344CD1FD0A4F28419497F9722A3DAAFE3B4186F6B6457E0 PUSH1 0x40 MLOAD PUSH1 0x40 MLOAD DUP1 SWAP2 SUB SWAP1 LOG3 POP POP JUMP JUMPDEST PUSH0 PUSH20 0xFFFFFFFFFFFFFFFFFFFFFFFFFFFFFFFFFFFFFFFF AND DUP3 PUSH20 0xFFFFFFFFFFFFFFFFFFFFFFFFFFFFFFFFFFFFFFFF AND SUB PUSH2 0x68D1 JUMPI PUSH0 PUSH1 0x40 MLOAD PUSH32 0xEC442F0500000000000000000000000000000000000000000000000000000000 DUP2 MSTORE PUSH1 0x4 ADD PUSH2 0x68C8 SWAP2 SWAP1 PUSH2 0x717E JUMP JUMPDEST PUSH1 0x40 MLOAD DUP1 SWAP2 SUB SWAP1 REVERT JUMPDEST PUSH2 0x68DC PUSH0 DUP4 DUP4 PUSH2 0x6C67 JUMP JUMPDEST POP POP JUMP JUMPDEST PUSH0 PUSH0 PUSH2 0x68EA PUSH2 0x657D JUMP JUMPDEST SWAP1 POP PUSH2 0x68F7 DUP2 DUP6 DUP6 PUSH2 0x6B77 JUMP JUMPDEST PUSH1 0x1 SWAP2 POP POP SWAP3 SWAP2 POP POP JUMP JUMPDEST DUP1 PUSH1 0xC SWAP1 DUP2 PUSH2 0x6911 SWAP2 SWAP1 PUSH2 0x7AEF JUMP JUMPDEST POP POP JUMP JUMPDEST PUSH0 PUSH20 0xFFFFFFFFFFFFFFFFFFFFFFFFFFFFFFFFFFFFFFFF AND DUP5 PUSH20 0xFFFFFFFFFFFFFFFFFFFFFFFFFFFFFFFFFFFFFFFF AND SUB PUSH2 0x6985 JUMPI PUSH0 PUSH1 0x40 MLOAD PUSH32 0xE602DF0500000000000000000000000000000000000000000000000000000000 DUP2 MSTORE PUSH1 0x4 ADD PUSH2 0x697C SWAP2 SWAP1 PUSH2 0x717E JUMP JUMPDEST PUSH1 0x40 MLOAD DUP1 SWAP2 SUB SWAP1 REVERT JUMPDEST PUSH0 PUSH20 0xFFFFFFFFFFFFFFFFFFFFFFFFFFFFFFFFFFFFFFFF AND DUP4 PUSH20 0xFFFFFFFFFFFFFFFFFFFFFFFFFFFFFFFFFFFFFFFF AND SUB PUSH2 0x69F5 JUMPI PUSH0 PUSH1 0x40 MLOAD PUSH32 0x94280D6200000000000000000000000000000000000000000000000000000000 DUP2 MSTORE PUSH1 0x4 ADD PUSH2 0x69EC SWAP2 SWAP1 PUSH2 0x717E JUMP JUMPDEST PUSH1 0x40 MLOAD DUP1 SWAP2 SUB SWAP1 REVERT JUMPDEST DUP2 PUSH1 0x1 PUSH0 DUP7 PUSH20 0xFFFFFFFFFFFFFFFFFFFFFFFFFFFFFFFFFFFFFFFF AND PUSH20 0xFFFFFFFFFFFFFFFFFFFFFFFFFFFFFFFFFFFFFFFF AND DUP2 MSTORE PUSH1 0x20 ADD SWAP1 DUP2 MSTORE PUSH1 0x20 ADD PUSH0 KECCAK256 PUSH0 DUP6 PUSH20 0xFFFFFFFFFFFFFFFFFFFFFFFFFFFFFFFFFFFFFFFF AND PUSH20 0xFFFFFFFFFFFFFFFFFFFFFFFFFFFFFFFFFFFFFFFF AND DUP2 MSTORE PUSH1 0x20 ADD SWAP1 DUP2 MSTORE PUSH1 0x20 ADD PUSH0 KECCAK256 DUP2 SWAP1 SSTORE POP DUP1 ISZERO PUSH2 0x6ADE JUMPI DUP3 PUSH20 0xFFFFFFFFFFFFFFFFFFFFFFFFFFFFFFFFFFFFFFFF AND DUP5 PUSH20 0xFFFFFFFFFFFFFFFFFFFFFFFFFFFFFFFFFFFFFFFF AND PUSH32 0x8C5BE1E5EBEC7D5BD14F71427D1E84F3DD0314C0F7B2291E5B200AC8C7C3B925 DUP5 PUSH1 0x40 MLOAD PUSH2 0x6AD5 SWAP2 SWAP1 PUSH2 0x7025 JUMP JUMPDEST PUSH1 0x40 MLOAD DUP1 SWAP2 SUB SWAP1 LOG3 JUMPDEST POP POP POP POP JUMP JUMPDEST PUSH0 PUSH2 0x6AEF DUP5 DUP5 PUSH2 0x5F10 JUMP JUMPDEST SWAP1 POP PUSH32 0xFFFFFFFFFFFFFFFFFFFFFFFFFFFFFFFFFFFFFFFFFFFFFFFFFFFFFFFFFFFFFFFF DUP2 LT ISZERO PUSH2 0x6B71 JUMPI DUP2 DUP2 LT ISZERO PUSH2 0x6B62 JUMPI DUP3 DUP2 DUP4 PUSH1 0x40 MLOAD PUSH32 0xFB8F41B200000000000000000000000000000000000000000000000000000000 DUP2 MSTORE PUSH1 0x4 ADD PUSH2 0x6B59 SWAP4 SWAP3 SWAP2 SWAP1 PUSH2 0x9690 JUMP JUMPDEST PUSH1 0x40 MLOAD DUP1 SWAP2 SUB SWAP1 REVERT JUMPDEST PUSH2 0x6B70 DUP5 DUP5 DUP5 DUP5 SUB PUSH0 PUSH2 0x6915 JUMP JUMPDEST JUMPDEST POP POP POP POP JUMP JUMPDEST PUSH0 PUSH20 0xFFFFFFFFFFFFFFFFFFFFFFFFFFFFFFFFFFFFFFFF AND DUP4 PUSH20 0xFFFFFFFFFFFFFFFFFFFFFFFFFFFFFFFFFFFFFFFF AND SUB PUSH2 0x6BE7 JUMPI PUSH0 PUSH1 0x40 MLOAD PUSH32 0x96C6FD1E00000000000000000000000000000000000000000000000000000000 DUP2 MSTORE PUSH1 0x4 ADD PUSH2 0x6BDE SWAP2 SWAP1 PUSH2 0x717E JUMP JUMPDEST PUSH1 0x40 MLOAD DUP1 SWAP2 SUB SWAP1 REVERT JUMPDEST PUSH0 PUSH20 0xFFFFFFFFFFFFFFFFFFFFFFFFFFFFFFFFFFFFFFFF AND DUP3 PUSH20 0xFFFFFFFFFFFFFFFFFFFFFFFFFFFFFFFFFFFFFFFF AND SUB PUSH2 0x6C57 JUMPI PUSH0 PUSH1 0x40 MLOAD PUSH32 0xEC442F0500000000000000000000000000000000000000000000000000000000 DUP2 MSTORE PUSH1 0x4 ADD PUSH2 0x6C4E SWAP2 SWAP1 PUSH2 0x717E JUMP JUMPDEST PUSH1 0x40 MLOAD DUP1 SWAP2 SUB SWAP1 REVERT JUMPDEST PUSH2 0x6C62 DUP4 DUP4 DUP4 PUSH2 0x6C67 JUMP JUMPDEST POP POP POP JUMP JUMPDEST PUSH0 PUSH20 0xFFFFFFFFFFFFFFFFFFFFFFFFFFFFFFFFFFFFFFFF AND DUP4 PUSH20 0xFFFFFFFFFFFFFFFFFFFFFFFFFFFFFFFFFFFFFFFF AND SUB PUSH2 0x6CB7 JUMPI DUP1 PUSH1 0x2 PUSH0 DUP3 DUP3 SLOAD PUSH2 0x6CAB SWAP2 SWAP1 PUSH2 0x78B4 JUMP JUMPDEST SWAP3 POP POP DUP2 SWAP1 SSTORE POP PUSH2 0x6D85 JUMP JUMPDEST PUSH0 PUSH0 PUSH0 DUP6 PUSH20 0xFFFFFFFFFFFFFFFFFFFFFFFFFFFFFFFFFFFFFFFF AND PUSH20 0xFFFFFFFFFFFFFFFFFFFFFFFFFFFFFFFFFFFFFFFF AND DUP2 MSTORE PUSH1 0x20 ADD SWAP1 DUP2 MSTORE PUSH1 0x20 ADD PUSH0 KECCAK256 SLOAD SWAP1 POP DUP2 DUP2 LT ISZERO PUSH2 0x6D40 JUMPI DUP4 DUP2 DUP4 PUSH1 0x40 MLOAD PUSH32 0xE450D38C00000000000000000000000000000000000000000000000000000000 DUP2 MSTORE PUSH1 0x4 ADD PUSH2 0x6D37 SWAP4 SWAP3 SWAP2 SWAP1 PUSH2 0x9690 JUMP JUMPDEST PUSH1 0x40 MLOAD DUP1 SWAP2 SUB SWAP1 REVERT JUMPDEST DUP2 DUP2 SUB PUSH0 PUSH0 DUP7 PUSH20 0xFFFFFFFFFFFFFFFFFFFFFFFFFFFFFFFFFFFFFFFF AND PUSH20 0xFFFFFFFFFFFFFFFFFFFFFFFFFFFFFFFFFFFFFFFF AND DUP2 MSTORE PUSH1 0x20 ADD SWAP1 DUP2 MSTORE PUSH1 0x20 ADD PUSH0 KECCAK256 DUP2 SWAP1 SSTORE POP POP JUMPDEST PUSH0 PUSH20 0xFFFFFFFFFFFFFFFFFFFFFFFFFFFFFFFFFFFFFFFF AND DUP3 PUSH20 0xFFFFFFFFFFFFFFFFFFFFFFFFFFFFFFFFFFFFFFFF AND SUB PUSH2 0x6DCC JUMPI DUP1 PUSH1 0x2 PUSH0 DUP3 DUP3 SLOAD SUB SWAP3 POP POP DUP2 SWAP1 SSTORE POP PUSH2 0x6E16 JUMP JUMPDEST DUP1 PUSH0 PUSH0 DUP5 PUSH20 0xFFFFFFFFFFFFFFFFFFFFFFFFFFFFFFFFFFFFFFFF AND PUSH20 0xFFFFFFFFFFFFFFFFFFFFFFFFFFFFFFFFFFFFFFFF AND DUP2 MSTORE PUSH1 0x20 ADD SWAP1 DUP2 MSTORE PUSH1 0x20 ADD PUSH0 KECCAK256 PUSH0 DUP3 DUP3 SLOAD ADD SWAP3 POP POP DUP2 SWAP1 SSTORE POP JUMPDEST DUP2 PUSH20 0xFFFFFFFFFFFFFFFFFFFFFFFFFFFFFFFFFFFFFFFF AND DUP4 PUSH20 0xFFFFFFFFFFFFFFFFFFFFFFFFFFFFFFFFFFFFFFFF AND PUSH32 0xDDF252AD1BE2C89B69C2B068FC378DAA952BA7F163C4A11628F55A4DF523B3EF DUP4 PUSH1 0x40 MLOAD PUSH2 0x6E73 SWAP2 SWAP1 PUSH2 0x7025 JUMP JUMPDEST PUSH1 0x40 MLOAD DUP1 SWAP2 SUB SWAP1 LOG3 POP POP POP JUMP JUMPDEST POP DUP1 SLOAD PUSH2 0x6E8C SWAP1 PUSH2 0x75E7 JUMP JUMPDEST PUSH0 DUP3 SSTORE DUP1 PUSH1 0x1F LT PUSH2 0x6E9D JUMPI POP PUSH2 0x6EBA JUMP JUMPDEST PUSH1 0x1F ADD PUSH1 0x20 SWAP1 DIV SWAP1 PUSH0 MSTORE PUSH1 0x20 PUSH0 KECCAK256 SWAP1 DUP2 ADD SWAP1 PUSH2 0x6EB9 SWAP2 SWAP1 PUSH2 0x6F62 JUMP JUMPDEST JUMPDEST POP JUMP JUMPDEST POP DUP1 SLOAD PUSH0 DUP3 SSTORE SWAP1 PUSH0 MSTORE PUSH1 0x20 PUSH0 KECCAK256 SWAP1 DUP2 ADD SWAP1 PUSH2 0x6ED8 SWAP2 SWAP1 PUSH2 0x6F62 JUMP JUMPDEST POP JUMP JUMPDEST DUP3 DUP1 SLOAD DUP3 DUP3 SSTORE SWAP1 PUSH0 MSTORE PUSH1 0x20 PUSH0 KECCAK256 SWAP1 DUP2 ADD SWAP3 DUP3 ISZERO PUSH2 0x6F51 JUMPI SWAP2 PUSH1 0x20 MUL DUP3 ADD JUMPDEST DUP3 DUP2 GT ISZERO PUSH2 0x6F50 JUMPI DUP3 MLOAD DUP3 PUSH0 PUSH2 0x100 EXP DUP2 SLOAD DUP2 PUSH20 0xFFFFFFFFFFFFFFFFFFFFFFFFFFFFFFFFFFFFFFFF MUL NOT AND SWAP1 DUP4 PUSH20 0xFFFFFFFFFFFFFFFFFFFFFFFFFFFFFFFFFFFFFFFF AND MUL OR SWAP1 SSTORE POP SWAP2 PUSH1 0x20 ADD SWAP2 SWAP1 PUSH1 0x1 ADD SWAP1 PUSH2 0x6EF9 JUMP JUMPDEST JUMPDEST POP SWAP1 POP PUSH2 0x6F5E SWAP2 SWAP1 PUSH2 0x6F62 JUMP JUMPDEST POP SWAP1 JUMP JUMPDEST JUMPDEST DUP1 DUP3 GT ISZERO PUSH2 0x6F79 JUMPI PUSH0 DUP2 PUSH0 SWAP1 SSTORE POP PUSH1 0x1 ADD PUSH2 0x6F63 JUMP JUMPDEST POP SWAP1 JUMP JUMPDEST PUSH0 DUP2 MLOAD SWAP1 POP SWAP2 SWAP1 POP JUMP JUMPDEST PUSH0 DUP3 DUP3 MSTORE PUSH1 0x20 DUP3 ADD SWAP1 POP SWAP3 SWAP2 POP POP JUMP JUMPDEST DUP3 DUP2 DUP4 MCOPY PUSH0 DUP4 DUP4 ADD MSTORE POP POP POP JUMP JUMPDEST PUSH0 PUSH1 0x1F NOT PUSH1 0x1F DUP4 ADD AND SWAP1 POP SWAP2 SWAP1 POP JUMP JUMPDEST PUSH0 PUSH2 0x6FBF DUP3 PUSH2 0x6F7D JUMP JUMPDEST PUSH2 0x6FC9 DUP2 DUP6 PUSH2 0x6F87 JUMP JUMPDEST SWAP4 POP PUSH2 0x6FD9 DUP2 DUP6 PUSH1 0x20 DUP7 ADD PUSH2 0x6F97 JUMP JUMPDEST PUSH2 0x6FE2 DUP2 PUSH2 0x6FA5 JUMP JUMPDEST DUP5 ADD SWAP2 POP POP SWAP3 SWAP2 POP POP JUMP JUMPDEST PUSH0 PUSH1 0x20 DUP3 ADD SWAP1 POP DUP2 DUP2 SUB PUSH0 DUP4 ADD MSTORE PUSH2 0x7005 DUP2 DUP5 PUSH2 0x6FB5 JUMP JUMPDEST SWAP1 POP SWAP3 SWAP2 POP POP JUMP JUMPDEST PUSH0 DUP2 SWAP1 POP SWAP2 SWAP1 POP JUMP JUMPDEST PUSH2 0x701F DUP2 PUSH2 0x700D JUMP JUMPDEST DUP3 MSTORE POP POP JUMP JUMPDEST PUSH0 PUSH1 0x20 DUP3 ADD SWAP1 POP PUSH2 0x7038 PUSH0 DUP4 ADD DUP5 PUSH2 0x7016 JUMP JUMPDEST SWAP3 SWAP2 POP POP JUMP JUMPDEST PUSH0 PUSH1 0x40 MLOAD SWAP1 POP SWAP1 JUMP JUMPDEST PUSH0 PUSH0 REVERT JUMPDEST PUSH0 PUSH0 REVERT JUMPDEST PUSH0 PUSH20 0xFFFFFFFFFFFFFFFFFFFFFFFFFFFFFFFFFFFFFFFF DUP3 AND SWAP1 POP SWAP2 SWAP1 POP JUMP JUMPDEST PUSH0 PUSH2 0x7078 DUP3 PUSH2 0x704F JUMP JUMPDEST SWAP1 POP SWAP2 SWAP1 POP JUMP JUMPDEST PUSH2 0x7088 DUP2 PUSH2 0x706E JUMP JUMPDEST DUP2 EQ PUSH2 0x7092 JUMPI PUSH0 PUSH0 REVERT JUMPDEST POP JUMP JUMPDEST PUSH0 DUP2 CALLDATALOAD SWAP1 POP PUSH2 0x70A3 DUP2 PUSH2 0x707F JUMP JUMPDEST SWAP3 SWAP2 POP POP JUMP JUMPDEST PUSH2 0x70B2 DUP2 PUSH2 0x700D JUMP JUMPDEST DUP2 EQ PUSH2 0x70BC JUMPI PUSH0 PUSH0 REVERT JUMPDEST POP JUMP JUMPDEST PUSH0 DUP2 CALLDATALOAD SWAP1 POP PUSH2 0x70CD DUP2 PUSH2 0x70A9 JUMP JUMPDEST SWAP3 SWAP2 POP POP JUMP JUMPDEST PUSH0 PUSH0 PUSH1 0x40 DUP4 DUP6 SUB SLT ISZERO PUSH2 0x70E9 JUMPI PUSH2 0x70E8 PUSH2 0x7047 JUMP JUMPDEST JUMPDEST PUSH0 PUSH2 0x70F6 DUP6 DUP3 DUP7 ADD PUSH2 0x7095 JUMP JUMPDEST SWAP3 POP POP PUSH1 0x20 PUSH2 0x7107 DUP6 DUP3 DUP7 ADD PUSH2 0x70BF JUMP JUMPDEST SWAP2 POP POP SWAP3 POP SWAP3 SWAP1 POP JUMP JUMPDEST PUSH0 DUP2 ISZERO ISZERO SWAP1 POP SWAP2 SWAP1 POP JUMP JUMPDEST PUSH2 0x7125 DUP2 PUSH2 0x7111 JUMP JUMPDEST DUP3 MSTORE POP POP JUMP JUMPDEST PUSH0 PUSH1 0x20 DUP3 ADD SWAP1 POP PUSH2 0x713E PUSH0 DUP4 ADD DUP5 PUSH2 0x711C JUMP JUMPDEST SWAP3 SWAP2 POP POP JUMP JUMPDEST PUSH0 PUSH1 0x20 DUP3 DUP5 SUB SLT ISZERO PUSH2 0x7159 JUMPI PUSH2 0x7158 PUSH2 0x7047 JUMP JUMPDEST JUMPDEST PUSH0 PUSH2 0x7166 DUP5 DUP3 DUP6 ADD PUSH2 0x7095 JUMP JUMPDEST SWAP2 POP POP SWAP3 SWAP2 POP POP JUMP JUMPDEST PUSH2 0x7178 DUP2 PUSH2 0x706E JUMP JUMPDEST DUP3 MSTORE POP POP JUMP JUMPDEST PUSH0 PUSH1 0x20 DUP3 ADD SWAP1 POP PUSH2 0x7191 PUSH0 DUP4 ADD DUP5 PUSH2 0x716F JUMP JUMPDEST SWAP3 SWAP2 POP POP JUMP JUMPDEST PUSH0 PUSH1 0x20 DUP3 DUP5 SUB SLT ISZERO PUSH2 0x71AC JUMPI PUSH2 0x71AB PUSH2 0x7047 JUMP JUMPDEST JUMPDEST PUSH0 PUSH2 0x71B9 DUP5 DUP3 DUP6 ADD PUSH2 0x70BF JUMP JUMPDEST SWAP2 POP POP SWAP3 SWAP2 POP POP JUMP JUMPDEST PUSH0 PUSH0 PUSH0 PUSH1 0x60 DUP5 DUP7 SUB SLT ISZERO PUSH2 0x71D9 JUMPI PUSH2 0x71D8 PUSH2 0x7047 JUMP JUMPDEST JUMPDEST PUSH0 PUSH2 0x71E6 DUP7 DUP3 DUP8 ADD PUSH2 0x7095 JUMP JUMPDEST SWAP4 POP POP PUSH1 0x20 PUSH2 0x71F7 DUP7 DUP3 DUP8 ADD PUSH2 0x7095 JUMP JUMPDEST SWAP3 POP POP PUSH1 0x40 PUSH2 0x7208 DUP7 DUP3 DUP8 ADD PUSH2 0x70BF JUMP JUMPDEST SWAP2 POP POP SWAP3 POP SWAP3 POP SWAP3 JUMP JUMPDEST PUSH0 PUSH1 0xFF DUP3 AND SWAP1 POP SWAP2 SWAP1 POP JUMP JUMPDEST PUSH2 0x7227 DUP2 PUSH2 0x7212 JUMP JUMPDEST DUP3 MSTORE POP POP JUMP JUMPDEST PUSH0 PUSH1 0x20 DUP3 ADD SWAP1 POP PUSH2 0x7240 PUSH0 DUP4 ADD DUP5 PUSH2 0x721E JUMP JUMPDEST SWAP3 SWAP2 POP POP JUMP JUMPDEST PUSH0 DUP2 PUSH1 0x7 SIGNEXTEND SWAP1 POP SWAP2 SWAP1 POP JUMP JUMPDEST PUSH2 0x725B DUP2 PUSH2 0x7246 JUMP JUMPDEST DUP2 EQ PUSH2 0x7265 JUMPI PUSH0 PUSH0 REVERT JUMPDEST POP JUMP JUMPDEST PUSH0 DUP2 CALLDATALOAD SWAP1 POP PUSH2 0x7276 DUP2 PUSH2 0x7252 JUMP JUMPDEST SWAP3 SWAP2 POP POP JUMP JUMPDEST PUSH0 PUSH1 0x20 DUP3 DUP5 SUB SLT ISZERO PUSH2 0x7291 JUMPI PUSH2 0x7290 PUSH2 0x7047 JUMP JUMPDEST JUMPDEST PUSH0 PUSH2 0x729E DUP5 DUP3 DUP6 ADD PUSH2 0x7268 JUMP JUMPDEST SWAP2 POP POP SWAP3 SWAP2 POP POP JUMP JUMPDEST PUSH0 PUSH0 REVERT JUMPDEST PUSH32 0x4E487B7100000000000000000000000000000000000000000000000000000000 PUSH0 MSTORE PUSH1 0x41 PUSH1 0x4 MSTORE PUSH1 0x24 PUSH0 REVERT JUMPDEST PUSH2 0x72E1 DUP3 PUSH2 0x6FA5 JUMP JUMPDEST DUP2 ADD DUP2 DUP2 LT PUSH8 0xFFFFFFFFFFFFFFFF DUP3 GT OR ISZERO PUSH2 0x7300 JUMPI PUSH2 0x72FF PUSH2 0x72AB JUMP JUMPDEST JUMPDEST DUP1 PUSH1 0x40 MSTORE POP POP POP JUMP JUMPDEST PUSH0 PUSH2 0x7312 PUSH2 0x703E JUMP JUMPDEST SWAP1 POP PUSH2 0x731E DUP3 DUP3 PUSH2 0x72D8 JUMP JUMPDEST SWAP2 SWAP1 POP JUMP JUMPDEST PUSH0 PUSH8 0xFFFFFFFFFFFFFFFF DUP3 GT ISZERO PUSH2 0x733D JUMPI PUSH2 0x733C PUSH2 0x72AB JUMP JUMPDEST JUMPDEST PUSH1 0x20 DUP3 MUL SWAP1 POP PUSH1 0x20 DUP2 ADD SWAP1 POP SWAP2 SWAP1 POP JUMP JUMPDEST PUSH0 PUSH0 REVERT JUMPDEST PUSH0 PUSH2 0x7364 PUSH2 0x735F DUP5 PUSH2 0x7323 JUMP JUMPDEST PUSH2 0x7309 JUMP JUMPDEST SWAP1 POP DUP1 DUP4 DUP3 MSTORE PUSH1 0x20 DUP3 ADD SWAP1 POP PUSH1 0x20 DUP5 MUL DUP4 ADD DUP6 DUP2 GT ISZERO PUSH2 0x7387 JUMPI PUSH2 0x7386 PUSH2 0x734E JUMP JUMPDEST JUMPDEST DUP4 JUMPDEST DUP2 DUP2 LT ISZERO PUSH2 0x73B0 JUMPI DUP1 PUSH2 0x739C DUP9 DUP3 PUSH2 0x7095 JUMP JUMPDEST DUP5 MSTORE PUSH1 0x20 DUP5 ADD SWAP4 POP POP PUSH1 0x20 DUP2 ADD SWAP1 POP PUSH2 0x7389 JUMP JUMPDEST POP POP POP SWAP4 SWAP3 POP POP POP JUMP JUMPDEST PUSH0 DUP3 PUSH1 0x1F DUP4 ADD SLT PUSH2 0x73CE JUMPI PUSH2 0x73CD PUSH2 0x72A7 JUMP JUMPDEST JUMPDEST DUP2 CALLDATALOAD PUSH2 0x73DE DUP5 DUP3 PUSH1 0x20 DUP7 ADD PUSH2 0x7352 JUMP JUMPDEST SWAP2 POP POP SWAP3 SWAP2 POP POP JUMP JUMPDEST PUSH0 PUSH0 PUSH1 0x40 DUP4 DUP6 SUB SLT ISZERO PUSH2 0x73FD JUMPI PUSH2 0x73FC PUSH2 0x7047 JUMP JUMPDEST JUMPDEST PUSH0 DUP4 ADD CALLDATALOAD PUSH8 0xFFFFFFFFFFFFFFFF DUP2 GT ISZERO PUSH2 0x741A JUMPI PUSH2 0x7419 PUSH2 0x704B JUMP JUMPDEST JUMPDEST PUSH2 0x7426 DUP6 DUP3 DUP7 ADD PUSH2 0x73BA JUMP JUMPDEST SWAP3 POP POP PUSH1 0x20 DUP4 ADD CALLDATALOAD PUSH8 0xFFFFFFFFFFFFFFFF DUP2 GT ISZERO PUSH2 0x7447 JUMPI PUSH2 0x7446 PUSH2 0x704B JUMP JUMPDEST JUMPDEST PUSH2 0x7453 DUP6 DUP3 DUP7 ADD PUSH2 0x73BA JUMP JUMPDEST SWAP2 POP POP SWAP3 POP SWAP3 SWAP1 POP JUMP JUMPDEST PUSH0 PUSH0 REVERT JUMPDEST PUSH0 PUSH8 0xFFFFFFFFFFFFFFFF DUP3 GT ISZERO PUSH2 0x747B JUMPI PUSH2 0x747A PUSH2 0x72AB JUMP JUMPDEST JUMPDEST PUSH2 0x7484 DUP3 PUSH2 0x6FA5 JUMP JUMPDEST SWAP1 POP PUSH1 0x20 DUP2 ADD SWAP1 POP SWAP2 SWAP1 POP JUMP JUMPDEST DUP3 DUP2 DUP4 CALLDATACOPY PUSH0 DUP4 DUP4 ADD MSTORE POP POP POP JUMP JUMPDEST PUSH0 PUSH2 0x74B1 PUSH2 0x74AC DUP5 PUSH2 0x7461 JUMP JUMPDEST PUSH2 0x7309 JUMP JUMPDEST SWAP1 POP DUP3 DUP2 MSTORE PUSH1 0x20 DUP2 ADD DUP5 DUP5 DUP5 ADD GT ISZERO PUSH2 0x74CD JUMPI PUSH2 0x74CC PUSH2 0x745D JUMP JUMPDEST JUMPDEST PUSH2 0x74D8 DUP5 DUP3 DUP6 PUSH2 0x7491 JUMP JUMPDEST POP SWAP4 SWAP3 POP POP POP JUMP JUMPDEST PUSH0 DUP3 PUSH1 0x1F DUP4 ADD SLT PUSH2 0x74F4 JUMPI PUSH2 0x74F3 PUSH2 0x72A7 JUMP JUMPDEST JUMPDEST DUP2 CALLDATALOAD PUSH2 0x7504 DUP5 DUP3 PUSH1 0x20 DUP7 ADD PUSH2 0x749F JUMP JUMPDEST SWAP2 POP POP SWAP3 SWAP2 POP POP JUMP JUMPDEST PUSH0 PUSH1 0x20 DUP3 DUP5 SUB SLT ISZERO PUSH2 0x7522 JUMPI PUSH2 0x7521 PUSH2 0x7047 JUMP JUMPDEST JUMPDEST PUSH0 DUP3 ADD CALLDATALOAD PUSH8 0xFFFFFFFFFFFFFFFF DUP2 GT ISZERO PUSH2 0x753F JUMPI PUSH2 0x753E PUSH2 0x704B JUMP JUMPDEST JUMPDEST PUSH2 0x754B DUP5 DUP3 DUP6 ADD PUSH2 0x74E0 JUMP JUMPDEST SWAP2 POP POP SWAP3 SWAP2 POP POP JUMP JUMPDEST PUSH2 0x755D DUP2 PUSH2 0x7246 JUMP JUMPDEST DUP3 MSTORE POP POP JUMP JUMPDEST PUSH0 PUSH1 0x20 DUP3 ADD SWAP1 POP PUSH2 0x7576 PUSH0 DUP4 ADD DUP5 PUSH2 0x7554 JUMP JUMPDEST SWAP3 SWAP2 POP POP JUMP JUMPDEST PUSH0 PUSH0 PUSH1 0x40 DUP4 DUP6 SUB SLT ISZERO PUSH2 0x7592 JUMPI PUSH2 0x7591 PUSH2 0x7047 JUMP JUMPDEST JUMPDEST PUSH0 PUSH2 0x759F DUP6 DUP3 DUP7 ADD PUSH2 0x7095 JUMP JUMPDEST SWAP3 POP POP PUSH1 0x20 PUSH2 0x75B0 DUP6 DUP3 DUP7 ADD PUSH2 0x7095 JUMP JUMPDEST SWAP2 POP POP SWAP3 POP SWAP3 SWAP1 POP JUMP JUMPDEST PUSH32 0x4E487B7100000000000000000000000000000000000000000000000000000000 PUSH0 MSTORE PUSH1 0x22 PUSH1 0x4 MSTORE PUSH1 0x24 PUSH0 REVERT JUMPDEST PUSH0 PUSH1 0x2 DUP3 DIV SWAP1 POP PUSH1 0x1 DUP3 AND DUP1 PUSH2 0x75FE JUMPI PUSH1 0x7F DUP3 AND SWAP2 POP JUMPDEST PUSH1 0x20 DUP3 LT DUP2 SUB PUSH2 0x7611 JUMPI PUSH2 0x7610 PUSH2 0x75BA JUMP JUMPDEST JUMPDEST POP SWAP2 SWAP1 POP JUMP JUMPDEST PUSH32 0x4E6F74206120766F746572000000000000000000000000000000000000000000 PUSH0 DUP3 ADD MSTORE POP JUMP JUMPDEST PUSH0 PUSH2 0x764B PUSH1 0xB DUP4 PUSH2 0x6F87 JUMP JUMPDEST SWAP2 POP PUSH2 0x7656 DUP3 PUSH2 0x7617 JUMP JUMPDEST PUSH1 0x20 DUP3 ADD SWAP1 POP SWAP2 SWAP1 POP JUMP JUMPDEST PUSH0 PUSH1 0x20 DUP3 ADD SWAP1 POP DUP2 DUP2 SUB PUSH0 DUP4 ADD MSTORE PUSH2 0x7678 DUP2 PUSH2 0x763F JUMP JUMPDEST SWAP1 POP SWAP2 SWAP1 POP JUMP JUMPDEST PUSH32 0x436F6E7472616374206973207061757365640000000000000000000000000000 PUSH0 DUP3 ADD MSTORE POP JUMP JUMPDEST PUSH0 PUSH2 0x76B3 PUSH1 0x12 DUP4 PUSH2 0x6F87 JUMP JUMPDEST SWAP2 POP PUSH2 0x76BE DUP3 PUSH2 0x767F JUMP JUMPDEST PUSH1 0x20 DUP3 ADD SWAP1 POP SWAP2 SWAP1 POP JUMP JUMPDEST PUSH0 PUSH1 0x20 DUP3 ADD SWAP1 POP DUP2 DUP2 SUB PUSH0 DUP4 ADD MSTORE PUSH2 0x76E0 DUP2 PUSH2 0x76A7 JUMP JUMPDEST SWAP1 POP SWAP2 SWAP1 POP JUMP JUMPDEST PUSH32 0x50726F706F73616C20616C726561647920616374697665000000000000000000 PUSH0 DUP3 ADD MSTORE POP JUMP JUMPDEST PUSH0 PUSH2 0x771B PUSH1 0x17 DUP4 PUSH2 0x6F87 JUMP JUMPDEST SWAP2 POP PUSH2 0x7726 DUP3 PUSH2 0x76E7 JUMP JUMPDEST PUSH1 0x20 DUP3 ADD SWAP1 POP SWAP2 SWAP1 POP JUMP JUMPDEST PUSH0 PUSH1 0x20 DUP3 ADD SWAP1 POP DUP2 DUP2 SUB PUSH0 DUP4 ADD MSTORE PUSH2 0x7748 DUP2 PUSH2 0x770F JUMP JUMPDEST SWAP1 POP SWAP2 SWAP1 POP JUMP JUMPDEST PUSH32 0x526563697069656E74206E6F742077686974656C697374656400000000000000 PUSH0 DUP3 ADD MSTORE POP JUMP JUMPDEST PUSH0 PUSH2 0x7783 PUSH1 0x19 DUP4 PUSH2 0x6F87 JUMP JUMPDEST SWAP2 POP PUSH2 0x778E DUP3 PUSH2 0x774F JUMP JUMPDEST PUSH1 0x20 DUP3 ADD SWAP1 POP SWAP2 SWAP1 POP JUMP JUMPDEST PUSH0 PUSH1 0x20 DUP3 ADD SWAP1 POP DUP2 DUP2 SUB PUSH0 DUP4 ADD MSTORE PUSH2 0x77B0 DUP2 PUSH2 0x7777 JUMP JUMPDEST SWAP1 POP SWAP2 SWAP1 POP JUMP JUMPDEST PUSH32 0x526563697069656E742063616E6E6F74206265207A65726F2061646472657373 PUSH0 DUP3 ADD MSTORE POP JUMP JUMPDEST PUSH0 PUSH2 0x77EB PUSH1 0x20 DUP4 PUSH2 0x6F87 JUMP JUMPDEST SWAP2 POP PUSH2 0x77F6 DUP3 PUSH2 0x77B7 JUMP JUMPDEST PUSH1 0x20 DUP3 ADD SWAP1 POP SWAP2 SWAP1 POP JUMP JUMPDEST PUSH0 PUSH1 0x20 DUP3 ADD SWAP1 POP DUP2 DUP2 SUB PUSH0 DUP4 ADD MSTORE PUSH2 0x7818 DUP2 PUSH2 0x77DF JUMP JUMPDEST SWAP1 POP SWAP2 SWAP1 POP JUMP JUMPDEST PUSH32 0x416D6F756E74206D7573742062652067726561746572207468616E207A65726F PUSH0 DUP3 ADD MSTORE POP JUMP JUMPDEST PUSH0 PUSH2 0x7853 PUSH1 0x20 DUP4 PUSH2 0x6F87 JUMP JUMPDEST SWAP2 POP PUSH2 0x785E DUP3 PUSH2 0x781F JUMP JUMPDEST PUSH1 0x20 DUP3 ADD SWAP1 POP SWAP2 SWAP1 POP JUMP JUMPDEST PUSH0 PUSH1 0x20 DUP3 ADD SWAP1 POP DUP2 DUP2 SUB PUSH0 DUP4 ADD MSTORE PUSH2 0x7880 DUP2 PUSH2 0x7847 JUMP JUMPDEST SWAP1 POP SWAP2 SWAP1 POP JUMP JUMPDEST PUSH32 0x4E487B7100000000000000000000000000000000000000000000000000000000 PUSH0 MSTORE PUSH1 0x11 PUSH1 0x4 MSTORE PUSH1 0x24 PUSH0 REVERT JUMPDEST PUSH0 PUSH2 0x78BE DUP3 PUSH2 0x700D JUMP JUMPDEST SWAP2 POP PUSH2 0x78C9 DUP4 PUSH2 0x700D JUMP JUMPDEST SWAP3 POP DUP3 DUP3 ADD SWAP1 POP DUP1 DUP3 GT ISZERO PUSH2 0x78E1 JUMPI PUSH2 0x78E0 PUSH2 0x7887 JUMP JUMPDEST JUMPDEST SWAP3 SWAP2 POP POP JUMP JUMPDEST PUSH32 0x546F74616C20737570706C792065786365656465640000000000000000000000 PUSH0 DUP3 ADD MSTORE POP JUMP JUMPDEST PUSH0 PUSH2 0x791B PUSH1 0x15 DUP4 PUSH2 0x6F87 JUMP JUMPDEST SWAP2 POP PUSH2 0x7926 DUP3 PUSH2 0x78E7 JUMP JUMPDEST PUSH1 0x20 DUP3 ADD SWAP1 POP SWAP2 SWAP1 POP JUMP JUMPDEST PUSH0 PUSH1 0x20 DUP3 ADD SWAP1 POP DUP2 DUP2 SUB PUSH0 DUP4 ADD MSTORE PUSH2 0x7948 DUP2 PUSH2 0x790F JUMP JUMPDEST SWAP1 POP SWAP2 SWAP1 POP JUMP JUMPDEST PUSH0 DUP2 SWAP1 POP DUP2 PUSH0 MSTORE PUSH1 0x20 PUSH0 KECCAK256 SWAP1 POP SWAP2 SWAP1 POP JUMP JUMPDEST PUSH0 PUSH1 0x20 PUSH1 0x1F DUP4 ADD DIV SWAP1 POP SWAP2 SWAP1 POP JUMP JUMPDEST PUSH0 DUP3 DUP3 SHL SWAP1 POP SWAP3 SWAP2 POP POP JUMP JUMPDEST PUSH0 PUSH1 0x8 DUP4 MUL PUSH2 0x79AB PUSH32 0xFFFFFFFFFFFFFFFFFFFFFFFFFFFFFFFFFFFFFFFFFFFFFFFFFFFFFFFFFFFFFFFF DUP3 PUSH2 0x7970 JUMP JUMPDEST PUSH2 0x79B5 DUP7 DUP4 PUSH2 0x7970 JUMP JUMPDEST SWAP6 POP DUP1 NOT DUP5 AND SWAP4 POP DUP1 DUP7 AND DUP5 OR SWAP3 POP POP POP SWAP4 SWAP3 POP POP POP JUMP JUMPDEST PUSH0 DUP2 SWAP1 POP SWAP2 SWAP1 POP JUMP JUMPDEST PUSH0 PUSH2 0x79F0 PUSH2 0x79EB PUSH2 0x79E6 DUP5 PUSH2 0x700D JUMP JUMPDEST PUSH2 0x79CD JUMP JUMPDEST PUSH2 0x700D JUMP JUMPDEST SWAP1 POP SWAP2 SWAP1 POP JUMP JUMPDEST PUSH0 DUP2 SWAP1 POP SWAP2 SWAP1 POP JUMP JUMPDEST PUSH2 0x7A09 DUP4 PUSH2 0x79D6 JUMP JUMPDEST PUSH2 0x7A1D PUSH2 0x7A15 DUP3 PUSH2 0x79F7 JUMP JUMPDEST DUP5 DUP5 SLOAD PUSH2 0x797C JUMP JUMPDEST DUP3 SSTORE POP POP POP POP JUMP JUMPDEST PUSH0 PUSH0 SWAP1 POP SWAP1 JUMP JUMPDEST PUSH2 0x7A34 PUSH2 0x7A25 JUMP JUMPDEST PUSH2 0x7A3F DUP2 DUP5 DUP5 PUSH2 0x7A00 JUMP JUMPDEST POP POP POP JUMP JUMPDEST JUMPDEST DUP2 DUP2 LT ISZERO PUSH2 0x7A62 JUMPI PUSH2 0x7A57 PUSH0 DUP3 PUSH2 0x7A2C JUMP JUMPDEST PUSH1 0x1 DUP2 ADD SWAP1 POP PUSH2 0x7A45 JUMP JUMPDEST POP POP JUMP JUMPDEST PUSH1 0x1F DUP3 GT ISZERO PUSH2 0x7AA7 JUMPI PUSH2 0x7A78 DUP2 PUSH2 0x794F JUMP JUMPDEST PUSH2 0x7A81 DUP5 PUSH2 0x7961 JUMP JUMPDEST DUP2 ADD PUSH1 0x20 DUP6 LT ISZERO PUSH2 0x7A90 JUMPI DUP2 SWAP1 POP JUMPDEST PUSH2 0x7AA4 PUSH2 0x7A9C DUP6 PUSH2 0x7961 JUMP JUMPDEST DUP4 ADD DUP3 PUSH2 0x7A44 JUMP JUMPDEST POP POP JUMPDEST POP POP POP JUMP JUMPDEST PUSH0 DUP3 DUP3 SHR SWAP1 POP SWAP3 SWAP2 POP POP JUMP JUMPDEST PUSH0 PUSH2 0x7AC7 PUSH0 NOT DUP5 PUSH1 0x8 MUL PUSH2 0x7AAC JUMP JUMPDEST NOT DUP1 DUP4 AND SWAP2 POP POP SWAP3 SWAP2 POP POP JUMP JUMPDEST PUSH0 PUSH2 0x7ADF DUP4 DUP4 PUSH2 0x7AB8 JUMP JUMPDEST SWAP2 POP DUP3 PUSH1 0x2 MUL DUP3 OR SWAP1 POP SWAP3 SWAP2 POP POP JUMP JUMPDEST PUSH2 0x7AF8 DUP3 PUSH2 0x6F7D JUMP JUMPDEST PUSH8 0xFFFFFFFFFFFFFFFF DUP2 GT ISZERO PUSH2 0x7B11 JUMPI PUSH2 0x7B10 PUSH2 0x72AB JUMP JUMPDEST JUMPDEST PUSH2 0x7B1B DUP3 SLOAD PUSH2 0x75E7 JUMP JUMPDEST PUSH2 0x7B26 DUP3 DUP3 DUP6 PUSH2 0x7A66 JUMP JUMPDEST PUSH0 PUSH1 0x20 SWAP1 POP PUSH1 0x1F DUP4 GT PUSH1 0x1 DUP2 EQ PUSH2 0x7B57 JUMPI PUSH0 DUP5 ISZERO PUSH2 0x7B45 JUMPI DUP3 DUP8 ADD MLOAD SWAP1 POP JUMPDEST PUSH2 0x7B4F DUP6 DUP3 PUSH2 0x7AD4 JUMP JUMPDEST DUP7 SSTORE POP PUSH2 0x7BB6 JUMP JUMPDEST PUSH1 0x1F NOT DUP5 AND PUSH2 0x7B65 DUP7 PUSH2 0x794F JUMP JUMPDEST PUSH0 JUMPDEST DUP3 DUP2 LT ISZERO PUSH2 0x7B8C JUMPI DUP5 DUP10 ADD MLOAD DUP3 SSTORE PUSH1 0x1 DUP3 ADD SWAP2 POP PUSH1 0x20 DUP6 ADD SWAP5 POP PUSH1 0x20 DUP2 ADD SWAP1 POP PUSH2 0x7B67 JUMP JUMPDEST DUP7 DUP4 LT ISZERO PUSH2 0x7BA9 JUMPI DUP5 DUP10 ADD MLOAD PUSH2 0x7BA5 PUSH1 0x1F DUP10 AND DUP3 PUSH2 0x7AB8 JUMP JUMPDEST DUP4 SSTORE POP JUMPDEST PUSH1 0x1 PUSH1 0x2 DUP9 MUL ADD DUP9 SSTORE POP POP POP JUMPDEST POP POP POP POP POP POP JUMP JUMPDEST PUSH0 PUSH1 0x40 DUP3 ADD SWAP1 POP PUSH2 0x7BD1 PUSH0 DUP4 ADD DUP6 PUSH2 0x716F JUMP JUMPDEST PUSH2 0x7BDE PUSH1 0x20 DUP4 ADD DUP5 PUSH2 0x7016 JUMP JUMPDEST SWAP4 SWAP3 POP POP POP JUMP JUMPDEST PUSH32 0x4D656D626572206E6F742077686974656C697374656400000000000000000000 PUSH0 DUP3 ADD MSTORE POP JUMP JUMPDEST PUSH0 PUSH2 0x7C19 PUSH1 0x16 DUP4 PUSH2 0x6F87 JUMP JUMPDEST SWAP2 POP PUSH2 0x7C24 DUP3 PUSH2 0x7BE5 JUMP JUMPDEST PUSH1 0x20 DUP3 ADD SWAP1 POP SWAP2 SWAP1 POP JUMP JUMPDEST PUSH0 PUSH1 0x20 DUP3 ADD SWAP1 POP DUP2 DUP2 SUB PUSH0 DUP4 ADD MSTORE PUSH2 0x7C46 DUP2 PUSH2 0x7C0D JUMP JUMPDEST SWAP1 POP SWAP2 SWAP1 POP JUMP JUMPDEST PUSH32 0x72656D6F76650000000000000000000000000000000000000000000000000000 PUSH0 DUP3 ADD MSTORE POP JUMP JUMPDEST PUSH0 PUSH2 0x7C81 PUSH1 0x6 DUP4 PUSH2 0x6F87 JUMP JUMPDEST SWAP2 POP PUSH2 0x7C8C DUP3 PUSH2 0x7C4D JUMP JUMPDEST PUSH1 0x20 DUP3 ADD SWAP1 POP SWAP2 SWAP1 POP JUMP JUMPDEST PUSH0 PUSH1 0x40 DUP3 ADD SWAP1 POP PUSH2 0x7CAA PUSH0 DUP4 ADD DUP5 PUSH2 0x716F JUMP JUMPDEST DUP2 DUP2 SUB PUSH1 0x20 DUP4 ADD MSTORE PUSH2 0x7CBB DUP2 PUSH2 0x7C75 JUMP JUMPDEST SWAP1 POP SWAP3 SWAP2 POP POP JUMP JUMPDEST PUSH32 0x53656E6465722069732066726F7A656E00000000000000000000000000000000 PUSH0 DUP3 ADD MSTORE POP JUMP JUMPDEST PUSH0 PUSH2 0x7CF7 PUSH1 0x10 DUP4 PUSH2 0x6F87 JUMP JUMPDEST SWAP2 POP PUSH2 0x7D02 DUP3 PUSH2 0x7CC3 JUMP JUMPDEST PUSH1 0x20 DUP3 ADD SWAP1 POP SWAP2 SWAP1 POP JUMP JUMPDEST PUSH0 PUSH1 0x20 DUP3 ADD SWAP1 POP DUP2 DUP2 SUB PUSH0 DUP4 ADD MSTORE PUSH2 0x7D24 DUP2 PUSH2 0x7CEB JUMP JUMPDEST SWAP1 POP SWAP2 SWAP1 POP JUMP JUMPDEST PUSH32 0x416D6F756E74206D75737420626520616E20696E746567657200000000000000 PUSH0 DUP3 ADD MSTORE POP JUMP JUMPDEST PUSH0 PUSH2 0x7D5F PUSH1 0x19 DUP4 PUSH2 0x6F87 JUMP JUMPDEST SWAP2 POP PUSH2 0x7D6A DUP3 PUSH2 0x7D2B JUMP JUMPDEST PUSH1 0x20 DUP3 ADD SWAP1 POP SWAP2 SWAP1 POP JUMP JUMPDEST PUSH0 PUSH1 0x20 DUP3 ADD SWAP1 POP DUP2 DUP2 SUB PUSH0 DUP4 ADD MSTORE PUSH2 0x7D8C DUP2 PUSH2 0x7D53 JUMP JUMPDEST SWAP1 POP SWAP2 SWAP1 POP JUMP JUMPDEST PUSH32 0x4D656D6265722063616E6E6F74206265207A65726F2061646472657373000000 PUSH0 DUP3 ADD MSTORE POP JUMP JUMPDEST PUSH0 PUSH2 0x7DC7 PUSH1 0x1D DUP4 PUSH2 0x6F87 JUMP JUMPDEST SWAP2 POP PUSH2 0x7DD2 DUP3 PUSH2 0x7D93 JUMP JUMPDEST PUSH1 0x20 DUP3 ADD SWAP1 POP SWAP2 SWAP1 POP JUMP JUMPDEST PUSH0 PUSH1 0x20 DUP3 ADD SWAP1 POP DUP2 DUP2 SUB PUSH0 DUP4 ADD MSTORE PUSH2 0x7DF4 DUP2 PUSH2 0x7DBB JUMP JUMPDEST SWAP1 POP SWAP2 SWAP1 POP JUMP JUMPDEST PUSH32 0x4D656D62657220616C72656164792077686974656C6973746564000000000000 PUSH0 DUP3 ADD MSTORE POP JUMP JUMPDEST PUSH0 PUSH2 0x7E2F PUSH1 0x1A DUP4 PUSH2 0x6F87 JUMP JUMPDEST SWAP2 POP PUSH2 0x7E3A DUP3 PUSH2 0x7DFB JUMP JUMPDEST PUSH1 0x20 DUP3 ADD SWAP1 POP SWAP2 SWAP1 POP JUMP JUMPDEST PUSH0 PUSH1 0x20 DUP3 ADD SWAP1 POP DUP2 DUP2 SUB PUSH0 DUP4 ADD MSTORE PUSH2 0x7E5C DUP2 PUSH2 0x7E23 JUMP JUMPDEST SWAP1 POP SWAP2 SWAP1 POP JUMP JUMPDEST PUSH32 0x6164640000000000000000000000000000000000000000000000000000000000 PUSH0 DUP3 ADD MSTORE POP JUMP JUMPDEST PUSH0 PUSH2 0x7E97 PUSH1 0x3 DUP4 PUSH2 0x6F87 JUMP JUMPDEST SWAP2 POP PUSH2 0x7EA2 DUP3 PUSH2 0x7E63 JUMP JUMPDEST PUSH1 0x20 DUP3 ADD SWAP1 POP SWAP2 SWAP1 POP JUMP JUMPDEST PUSH0 PUSH1 0x40 DUP3 ADD SWAP1 POP PUSH2 0x7EC0 PUSH0 DUP4 ADD DUP5 PUSH2 0x716F JUMP JUMPDEST DUP2 DUP2 SUB PUSH1 0x20 DUP4 ADD MSTORE PUSH2 0x7ED1 DUP2 PUSH2 0x7E8B JUMP JUMPDEST SWAP1 POP SWAP3 SWAP2 POP POP JUMP JUMPDEST PUSH32 0x4E6F206163746976652070726F706F73616C0000000000000000000000000000 PUSH0 DUP3 ADD MSTORE POP JUMP JUMPDEST PUSH0 PUSH2 0x7F0D PUSH1 0x12 DUP4 PUSH2 0x6F87 JUMP JUMPDEST SWAP2 POP PUSH2 0x7F18 DUP3 PUSH2 0x7ED9 JUMP JUMPDEST PUSH1 0x20 DUP3 ADD SWAP1 POP SWAP2 SWAP1 POP JUMP JUMPDEST PUSH0 PUSH1 0x20 DUP3 ADD SWAP1 POP DUP2 DUP2 SUB PUSH0 DUP4 ADD MSTORE PUSH2 0x7F3A DUP2 PUSH2 0x7F01 JUMP JUMPDEST SWAP1 POP SWAP2 SWAP1 POP JUMP JUMPDEST PUSH0 DUP2 SWAP1 POP SWAP3 SWAP2 POP POP JUMP JUMPDEST PUSH32 0x756E667265657A65000000000000000000000000000000000000000000000000 PUSH0 DUP3 ADD MSTORE POP JUMP JUMPDEST PUSH0 PUSH2 0x7F7F PUSH1 0x8 DUP4 PUSH2 0x7F41 JUMP JUMPDEST SWAP2 POP PUSH2 0x7F8A DUP3 PUSH2 0x7F4B JUMP JUMPDEST PUSH1 0x8 DUP3 ADD SWAP1 POP SWAP2 SWAP1 POP JUMP JUMPDEST PUSH0 PUSH2 0x7F9F DUP3 PUSH2 0x7F73 JUMP JUMPDEST SWAP2 POP DUP2 SWAP1 POP SWAP2 SWAP1 POP JUMP JUMPDEST PUSH0 DUP2 SLOAD PUSH2 0x7FB5 DUP2 PUSH2 0x75E7 JUMP JUMPDEST PUSH2 0x7FBF DUP2 DUP7 PUSH2 0x7F41 JUMP JUMPDEST SWAP5 POP PUSH1 0x1 DUP3 AND PUSH0 DUP2 EQ PUSH2 0x7FD9 JUMPI PUSH1 0x1 DUP2 EQ PUSH2 0x7FEE JUMPI PUSH2 0x8020 JUMP JUMPDEST PUSH1 0xFF NOT DUP4 AND DUP7 MSTORE DUP2 ISZERO ISZERO DUP3 MUL DUP7 ADD SWAP4 POP PUSH2 0x8020 JUMP JUMPDEST PUSH2 0x7FF7 DUP6 PUSH2 0x794F JUMP JUMPDEST PUSH0 JUMPDEST DUP4 DUP2 LT ISZERO PUSH2 0x8018 JUMPI DUP2 SLOAD DUP2 DUP10 ADD MSTORE PUSH1 0x1 DUP3 ADD SWAP2 POP PUSH1 0x20 DUP2 ADD SWAP1 POP PUSH2 0x7FF9 JUMP JUMPDEST DUP4 DUP9 ADD SWAP6 POP POP POP JUMPDEST POP POP POP SWAP3 SWAP2 POP POP JUMP JUMPDEST PUSH0 PUSH2 0x8034 DUP3 DUP5 PUSH2 0x7FA9 JUMP JUMPDEST SWAP2 POP DUP2 SWAP1 POP SWAP3 SWAP2 POP POP JUMP JUMPDEST PUSH32 0x496E76616C69642070726F706F73616C20747970650000000000000000000000 PUSH0 DUP3 ADD MSTORE POP JUMP JUMPDEST PUSH0 PUSH2 0x8073 PUSH1 0x15 DUP4 PUSH2 0x6F87 JUMP JUMPDEST SWAP2 POP PUSH2 0x807E DUP3 PUSH2 0x803F JUMP JUMPDEST PUSH1 0x20 DUP3 ADD SWAP1 POP SWAP2 SWAP1 POP JUMP JUMPDEST PUSH0 PUSH1 0x20 DUP3 ADD SWAP1 POP DUP2 DUP2 SUB PUSH0 DUP4 ADD MSTORE PUSH2 0x80A0 DUP2 PUSH2 0x8067 JUMP JUMPDEST SWAP1 POP SWAP2 SWAP1 POP JUMP JUMPDEST PUSH32 0x4E6F7420656E6F75676820766F74657300000000000000000000000000000000 PUSH0 DUP3 ADD MSTORE POP JUMP JUMPDEST PUSH0 PUSH2 0x80DB PUSH1 0x10 DUP4 PUSH2 0x6F87 JUMP JUMPDEST SWAP2 POP PUSH2 0x80E6 DUP3 PUSH2 0x80A7 JUMP JUMPDEST PUSH1 0x20 DUP3 ADD SWAP1 POP SWAP2 SWAP1 POP JUMP JUMPDEST PUSH0 PUSH1 0x20 DUP3 ADD SWAP1 POP DUP2 DUP2 SUB PUSH0 DUP4 ADD MSTORE PUSH2 0x8108 DUP2 PUSH2 0x80CF JUMP JUMPDEST SWAP1 POP SWAP2 SWAP1 POP JUMP JUMPDEST PUSH32 0x496E76616C696420757365722061646472657373000000000000000000000000 PUSH0 DUP3 ADD MSTORE POP JUMP JUMPDEST PUSH0 PUSH2 0x8143 PUSH1 0x14 DUP4 PUSH2 0x6F87 JUMP JUMPDEST SWAP2 POP PUSH2 0x814E DUP3 PUSH2 0x810F JUMP JUMPDEST PUSH1 0x20 DUP3 ADD SWAP1 POP SWAP2 SWAP1 POP JUMP JUMPDEST PUSH0 PUSH1 0x20 DUP3 ADD SWAP1 POP DUP2 DUP2 SUB PUSH0 DUP4 ADD MSTORE PUSH2 0x8170 DUP2 PUSH2 0x8137 JUMP JUMPDEST SWAP1 POP SWAP2 SWAP1 POP JUMP JUMPDEST PUSH32 0x55736572206E6F742066726F7A656E0000000000000000000000000000000000 PUSH0 DUP3 ADD MSTORE POP JUMP JUMPDEST PUSH0 PUSH2 0x81AB PUSH1 0xF DUP4 PUSH2 0x6F87 JUMP JUMPDEST SWAP2 POP PUSH2 0x81B6 DUP3 PUSH2 0x8177 JUMP JUMPDEST PUSH1 0x20 DUP3 ADD SWAP1 POP SWAP2 SWAP1 POP JUMP JUMPDEST PUSH0 PUSH1 0x20 DUP3 ADD SWAP1 POP DUP2 DUP2 SUB PUSH0 DUP4 ADD MSTORE PUSH2 0x81D8 DUP2 PUSH2 0x819F JUMP JUMPDEST SWAP1 POP SWAP2 SWAP1 POP JUMP JUMPDEST PUSH0 PUSH2 0x81EB PUSH1 0x8 DUP4 PUSH2 0x6F87 JUMP JUMPDEST SWAP2 POP PUSH2 0x81F6 DUP3 PUSH2 0x7F4B JUMP JUMPDEST PUSH1 0x20 DUP3 ADD SWAP1 POP SWAP2 SWAP1 POP JUMP JUMPDEST PUSH0 PUSH1 0x40 DUP3 ADD SWAP1 POP PUSH2 0x8214 PUSH0 DUP4 ADD DUP5 PUSH2 0x716F JUMP JUMPDEST DUP2 DUP2 SUB PUSH1 0x20 DUP4 ADD MSTORE PUSH2 0x8225 DUP2 PUSH2 0x81DF JUMP JUMPDEST SWAP1 POP SWAP3 SWAP2 POP POP JUMP JUMPDEST PUSH32 0x416C726561647920656E6F75676820766F74657320746F207061757365000000 PUSH0 DUP3 ADD MSTORE POP JUMP JUMPDEST PUSH0 PUSH2 0x8261 PUSH1 0x1D DUP4 PUSH2 0x6F87 JUMP JUMPDEST SWAP2 POP PUSH2 0x826C DUP3 PUSH2 0x822D JUMP JUMPDEST PUSH1 0x20 DUP3 ADD SWAP1 POP SWAP2 SWAP1 POP JUMP JUMPDEST PUSH0 PUSH1 0x20 DUP3 ADD SWAP1 POP DUP2 DUP2 SUB PUSH0 DUP4 ADD MSTORE PUSH2 0x828E DUP2 PUSH2 0x8255 JUMP JUMPDEST SWAP1 POP SWAP2 SWAP1 POP JUMP JUMPDEST PUSH32 0x766F746572730000000000000000000000000000000000000000000000000000 PUSH0 DUP3 ADD MSTORE POP JUMP JUMPDEST PUSH0 PUSH2 0x82C9 PUSH1 0x6 DUP4 PUSH2 0x7F41 JUMP JUMPDEST SWAP2 POP PUSH2 0x82D4 DUP3 PUSH2 0x8295 JUMP JUMPDEST PUSH1 0x6 DUP3 ADD SWAP1 POP SWAP2 SWAP1 POP JUMP JUMPDEST PUSH0 PUSH2 0x82E9 DUP3 PUSH2 0x82BD JUMP JUMPDEST SWAP2 POP DUP2 SWAP1 POP SWAP2 SWAP1 POP JUMP JUMPDEST PUSH32 0x4368616E6765206E6F7420616C6C6F7765642079657400000000000000000000 PUSH0 DUP3 ADD MSTORE POP JUMP JUMPDEST PUSH0 PUSH2 0x8327 PUSH1 0x16 DUP4 PUSH2 0x6F87 JUMP JUMPDEST SWAP2 POP PUSH2 0x8332 DUP3 PUSH2 0x82F3 JUMP JUMPDEST PUSH1 0x20 DUP3 ADD SWAP1 POP SWAP2 SWAP1 POP JUMP JUMPDEST PUSH0 PUSH1 0x20 DUP3 ADD SWAP1 POP DUP2 DUP2 SUB PUSH0 DUP4 ADD MSTORE PUSH2 0x8354 DUP2 PUSH2 0x831B JUMP JUMPDEST SWAP1 POP SWAP2 SWAP1 POP JUMP JUMPDEST PUSH32 0x4E6F20766F746572207265706C6163656D656E742070726F706F736564000000 PUSH0 DUP3 ADD MSTORE POP JUMP JUMPDEST PUSH0 PUSH2 0x838F PUSH1 0x1D DUP4 PUSH2 0x6F87 JUMP JUMPDEST SWAP2 POP PUSH2 0x839A DUP3 PUSH2 0x835B JUMP JUMPDEST PUSH1 0x20 DUP3 ADD SWAP1 POP SWAP2 SWAP1 POP JUMP JUMPDEST PUSH0 PUSH1 0x20 DUP3 ADD SWAP1 POP DUP2 DUP2 SUB PUSH0 DUP4 ADD MSTORE PUSH2 0x83BC DUP2 PUSH2 0x8383 JUMP JUMPDEST SWAP1 POP SWAP2 SWAP1 POP JUMP JUMPDEST PUSH32 0x4E487B7100000000000000000000000000000000000000000000000000000000 PUSH0 MSTORE PUSH1 0x32 PUSH1 0x4 MSTORE PUSH1 0x24 PUSH0 REVERT JUMPDEST PUSH32 0x4F6C6420766F746572206E6F7420696E20766F746572206C6973740000000000 PUSH0 DUP3 ADD MSTORE POP JUMP JUMPDEST PUSH0 PUSH2 0x8424 PUSH1 0x1B DUP4 PUSH2 0x6F87 JUMP JUMPDEST SWAP2 POP PUSH2 0x842F DUP3 PUSH2 0x83F0 JUMP JUMPDEST PUSH1 0x20 DUP3 ADD SWAP1 POP SWAP2 SWAP1 POP JUMP JUMPDEST PUSH0 PUSH1 0x20 DUP3 ADD SWAP1 POP DUP2 DUP2 SUB PUSH0 DUP4 ADD MSTORE PUSH2 0x8451 DUP2 PUSH2 0x8418 JUMP JUMPDEST SWAP1 POP SWAP2 SWAP1 POP JUMP JUMPDEST PUSH32 0x4E657720766F7465722063616E6E6F74206265207A65726F2061646472657373 PUSH0 DUP3 ADD MSTORE POP JUMP JUMPDEST PUSH0 PUSH2 0x848C PUSH1 0x20 DUP4 PUSH2 0x6F87 JUMP JUMPDEST SWAP2 POP PUSH2 0x8497 DUP3 PUSH2 0x8458 JUMP JUMPDEST PUSH1 0x20 DUP3 ADD SWAP1 POP SWAP2 SWAP1 POP JUMP JUMPDEST PUSH0 PUSH1 0x20 DUP3 ADD SWAP1 POP DUP2 DUP2 SUB PUSH0 DUP4 ADD MSTORE PUSH2 0x84B9 DUP2 PUSH2 0x8480 JUMP JUMPDEST SWAP1 POP SWAP2 SWAP1 POP JUMP JUMPDEST PUSH32 0x4E657720766F74657220616C726561647920696E20766F746572206C69737400 PUSH0 DUP3 ADD MSTORE POP JUMP JUMPDEST PUSH0 PUSH2 0x84F4 PUSH1 0x1F DUP4 PUSH2 0x6F87 JUMP JUMPDEST SWAP2 POP PUSH2 0x84FF DUP3 PUSH2 0x84C0 JUMP JUMPDEST PUSH1 0x20 DUP3 ADD SWAP1 POP SWAP2 SWAP1 POP JUMP JUMPDEST PUSH0 PUSH1 0x20 DUP3 ADD SWAP1 POP DUP2 DUP2 SUB PUSH0 DUP4 ADD MSTORE PUSH2 0x8521 DUP2 PUSH2 0x84E8 JUMP JUMPDEST SWAP1 POP SWAP2 SWAP1 POP JUMP JUMPDEST PUSH32 0x4475706C6963617465206E657720766F74657273206E6F7420616C6C6F776564 PUSH0 DUP3 ADD MSTORE POP JUMP JUMPDEST PUSH0 PUSH2 0x855C PUSH1 0x20 DUP4 PUSH2 0x6F87 JUMP JUMPDEST SWAP2 POP PUSH2 0x8567 DUP3 PUSH2 0x8528 JUMP JUMPDEST PUSH1 0x20 DUP3 ADD SWAP1 POP SWAP2 SWAP1 POP JUMP JUMPDEST PUSH0 PUSH1 0x20 DUP3 ADD SWAP1 POP DUP2 DUP2 SUB PUSH0 DUP4 ADD MSTORE PUSH2 0x8589 DUP2 PUSH2 0x8550 JUMP JUMPDEST SWAP1 POP SWAP2 SWAP1 POP JUMP JUMPDEST PUSH0 DUP2 SLOAD SWAP1 POP SWAP2 SWAP1 POP JUMP JUMPDEST PUSH0 DUP3 DUP3 MSTORE PUSH1 0x20 DUP3 ADD SWAP1 POP SWAP3 SWAP2 POP POP JUMP JUMPDEST PUSH0 DUP2 SWAP1 POP DUP2 PUSH0 MSTORE PUSH1 0x20 PUSH0 KECCAK256 SWAP1 POP SWAP2 SWAP1 POP JUMP JUMPDEST PUSH2 0x85C5 DUP2 PUSH2 0x706E JUMP JUMPDEST DUP3 MSTORE POP POP JUMP JUMPDEST PUSH0 PUSH2 0x85D6 DUP4 DUP4 PUSH2 0x85BC JUMP JUMPDEST PUSH1 0x20 DUP4 ADD SWAP1 POP SWAP3 SWAP2 POP POP JUMP JUMPDEST PUSH0 DUP2 PUSH0 SHR SWAP1 POP SWAP2 SWAP1 POP JUMP JUMPDEST PUSH0 PUSH20 0xFFFFFFFFFFFFFFFFFFFFFFFFFFFFFFFFFFFFFFFF DUP3 AND SWAP1 POP SWAP2 SWAP1 POP JUMP JUMPDEST PUSH0 PUSH2 0x861E PUSH2 0x8619 DUP4 PUSH2 0x85E2 JUMP JUMPDEST PUSH2 0x85ED JUMP JUMPDEST SWAP1 POP SWAP2 SWAP1 POP JUMP JUMPDEST PUSH0 PUSH2 0x8630 DUP3 SLOAD PUSH2 0x860C JUMP JUMPDEST SWAP1 POP SWAP2 SWAP1 POP JUMP JUMPDEST PUSH0 PUSH1 0x1 DUP3 ADD SWAP1 POP SWAP2 SWAP1 POP JUMP JUMPDEST PUSH0 PUSH2 0x864D DUP3 PUSH2 0x8590 JUMP JUMPDEST PUSH2 0x8657 DUP2 DUP6 PUSH2 0x859A JUMP JUMPDEST SWAP4 POP PUSH2 0x8662 DUP4 PUSH2 0x85AA JUMP JUMPDEST DUP1 PUSH0 JUMPDEST DUP4 DUP2 LT ISZERO PUSH2 0x8699 JUMPI PUSH2 0x8676 DUP3 PUSH2 0x8625 JUMP JUMPDEST PUSH2 0x8680 DUP9 DUP3 PUSH2 0x85CB JUMP JUMPDEST SWAP8 POP PUSH2 0x868B DUP4 PUSH2 0x8637 JUMP JUMPDEST SWAP3 POP POP PUSH1 0x1 DUP2 ADD SWAP1 POP PUSH2 0x8665 JUMP JUMPDEST POP DUP6 SWAP4 POP POP POP POP SWAP3 SWAP2 POP POP JUMP JUMPDEST PUSH0 PUSH1 0x40 DUP3 ADD SWAP1 POP DUP2 DUP2 SUB PUSH0 DUP4 ADD MSTORE PUSH2 0x86BE DUP2 DUP6 PUSH2 0x8643 JUMP JUMPDEST SWAP1 POP DUP2 DUP2 SUB PUSH1 0x20 DUP4 ADD MSTORE PUSH2 0x86D2 DUP2 DUP5 PUSH2 0x8643 JUMP JUMPDEST SWAP1 POP SWAP4 SWAP3 POP POP POP JUMP JUMPDEST PUSH32 0x667265657A650000000000000000000000000000000000000000000000000000 PUSH0 DUP3 ADD MSTORE POP JUMP JUMPDEST PUSH0 PUSH2 0x870F PUSH1 0x6 DUP4 PUSH2 0x7F41 JUMP JUMPDEST SWAP2 POP PUSH2 0x871A DUP3 PUSH2 0x86DB JUMP JUMPDEST PUSH1 0x6 DUP3 ADD SWAP1 POP SWAP2 SWAP1 POP JUMP JUMPDEST PUSH0 PUSH2 0x872F DUP3 PUSH2 0x8703 JUMP JUMPDEST SWAP2 POP DUP2 SWAP1 POP SWAP2 SWAP1 POP JUMP JUMPDEST PUSH32 0x5573657220616C72656164792066726F7A656E00000000000000000000000000 PUSH0 DUP3 ADD MSTORE POP JUMP JUMPDEST PUSH0 PUSH2 0x876D PUSH1 0x13 DUP4 PUSH2 0x6F87 JUMP JUMPDEST SWAP2 POP PUSH2 0x8778 DUP3 PUSH2 0x8739 JUMP JUMPDEST PUSH1 0x20 DUP3 ADD SWAP1 POP SWAP2 SWAP1 POP JUMP JUMPDEST PUSH0 PUSH1 0x20 DUP3 ADD SWAP1 POP DUP2 DUP2 SUB PUSH0 DUP4 ADD MSTORE PUSH2 0x879A DUP2 PUSH2 0x8761 JUMP JUMPDEST SWAP1 POP SWAP2 SWAP1 POP JUMP JUMPDEST PUSH0 PUSH2 0x87AD PUSH1 0x6 DUP4 PUSH2 0x6F87 JUMP JUMPDEST SWAP2 POP PUSH2 0x87B8 DUP3 PUSH2 0x86DB JUMP JUMPDEST PUSH1 0x20 DUP3 ADD SWAP1 POP SWAP2 SWAP1 POP JUMP JUMPDEST PUSH0 PUSH1 0x40 DUP3 ADD SWAP1 POP PUSH2 0x87D6 PUSH0 DUP4 ADD DUP5 PUSH2 0x716F JUMP JUMPDEST DUP2 DUP2 SUB PUSH1 0x20 DUP4 ADD MSTORE PUSH2 0x87E7 DUP2 PUSH2 0x87A1 JUMP JUMPDEST SWAP1 POP SWAP3 SWAP2 POP POP JUMP JUMPDEST PUSH32 0x41646A7573746D656E7420616D6F756E74206D757374206265206E6F6E2D7A65 PUSH0 DUP3 ADD MSTORE PUSH32 0x726F000000000000000000000000000000000000000000000000000000000000 PUSH1 0x20 DUP3 ADD MSTORE POP JUMP JUMPDEST PUSH0 PUSH2 0x8849 PUSH1 0x22 DUP4 PUSH2 0x6F87 JUMP JUMPDEST SWAP2 POP PUSH2 0x8854 DUP3 PUSH2 0x87EF JUMP JUMPDEST PUSH1 0x40 DUP3 ADD SWAP1 POP SWAP2 SWAP1 POP JUMP JUMPDEST PUSH0 PUSH1 0x20 DUP3 ADD SWAP1 POP DUP2 DUP2 SUB PUSH0 DUP4 ADD MSTORE PUSH2 0x8876 DUP2 PUSH2 0x883D JUMP JUMPDEST SWAP1 POP SWAP2 SWAP1 POP JUMP JUMPDEST PUSH0 DUP2 SWAP1 POP SWAP2 SWAP1 POP JUMP JUMPDEST PUSH0 PUSH2 0x8890 DUP3 PUSH2 0x887D JUMP JUMPDEST SWAP2 POP PUSH2 0x889B DUP4 PUSH2 0x887D JUMP JUMPDEST SWAP3 POP DUP3 DUP3 ADD SWAP1 POP DUP3 DUP2 SLT ISZERO PUSH0 DUP4 SLT AND DUP4 DUP3 SLT PUSH0 DUP5 SLT ISZERO AND OR ISZERO PUSH2 0x88C1 JUMPI PUSH2 0x88C0 PUSH2 0x7887 JUMP JUMPDEST JUMPDEST SWAP3 SWAP2 POP POP JUMP JUMPDEST PUSH32 0x546F74616C20737570706C792063616E6E6F74206265206C657373207468616E PUSH0 DUP3 ADD MSTORE PUSH32 0x206D696E74656420616D6F756E74000000000000000000000000000000000000 PUSH1 0x20 DUP3 ADD MSTORE POP JUMP JUMPDEST PUSH0 PUSH2 0x8921 PUSH1 0x2E DUP4 PUSH2 0x6F87 JUMP JUMPDEST SWAP2 POP PUSH2 0x892C DUP3 PUSH2 0x88C7 JUMP JUMPDEST PUSH1 0x40 DUP3 ADD SWAP1 POP SWAP2 SWAP1 POP JUMP JUMPDEST PUSH0 PUSH1 0x20 DUP3 ADD SWAP1 POP DUP2 DUP2 SUB PUSH0 DUP4 ADD MSTORE PUSH2 0x894E DUP2 PUSH2 0x8915 JUMP JUMPDEST SWAP1 POP SWAP2 SWAP1 POP JUMP JUMPDEST PUSH32 0x546F74616C20737570706C792063616E6E6F74206265206E6567617469766500 PUSH0 DUP3 ADD MSTORE POP JUMP JUMPDEST PUSH0 PUSH2 0x8989 PUSH1 0x1F DUP4 PUSH2 0x6F87 JUMP JUMPDEST SWAP2 POP PUSH2 0x8994 DUP3 PUSH2 0x8955 JUMP JUMPDEST PUSH1 0x20 DUP3 ADD SWAP1 POP SWAP2 SWAP1 POP JUMP JUMPDEST PUSH0 PUSH1 0x20 DUP3 ADD SWAP1 POP DUP2 DUP2 SUB PUSH0 DUP4 ADD MSTORE PUSH2 0x89B6 DUP2 PUSH2 0x897D JUMP JUMPDEST SWAP1 POP SWAP2 SWAP1 POP JUMP JUMPDEST PUSH0 PUSH1 0x40 DUP3 ADD SWAP1 POP PUSH2 0x89D0 PUSH0 DUP4 ADD DUP6 PUSH2 0x7554 JUMP JUMPDEST PUSH2 0x89DD PUSH1 0x20 DUP4 ADD DUP5 PUSH2 0x716F JUMP JUMPDEST SWAP4 SWAP3 POP POP POP JUMP JUMPDEST PUSH32 0x77686974656C6973745F72656D6F766500000000000000000000000000000000 PUSH0 DUP3 ADD MSTORE POP JUMP JUMPDEST PUSH0 PUSH2 0x8A18 PUSH1 0x10 DUP4 PUSH2 0x7F41 JUMP JUMPDEST SWAP2 POP PUSH2 0x8A23 DUP3 PUSH2 0x89E4 JUMP JUMPDEST PUSH1 0x10 DUP3 ADD SWAP1 POP SWAP2 SWAP1 POP JUMP JUMPDEST PUSH0 PUSH2 0x8A38 DUP3 PUSH2 0x8A0C JUMP JUMPDEST SWAP2 POP DUP2 SWAP1 POP SWAP2 SWAP1 POP JUMP JUMPDEST PUSH32 0x496E76616C6964206D656D626572206164647265737300000000000000000000 PUSH0 DUP3 ADD MSTORE POP JUMP JUMPDEST PUSH0 PUSH2 0x8A76 PUSH1 0x16 DUP4 PUSH2 0x6F87 JUMP JUMPDEST SWAP2 POP PUSH2 0x8A81 DUP3 PUSH2 0x8A42 JUMP JUMPDEST PUSH1 0x20 DUP3 ADD SWAP1 POP SWAP2 SWAP1 POP JUMP JUMPDEST PUSH0 PUSH1 0x20 DUP3 ADD SWAP1 POP DUP2 DUP2 SUB PUSH0 DUP4 ADD MSTORE PUSH2 0x8AA3 DUP2 PUSH2 0x8A6A JUMP JUMPDEST SWAP1 POP SWAP2 SWAP1 POP JUMP JUMPDEST PUSH0 PUSH2 0x8AB4 DUP3 PUSH2 0x700D JUMP JUMPDEST SWAP2 POP PUSH2 0x8ABF DUP4 PUSH2 0x700D JUMP JUMPDEST SWAP3 POP DUP3 DUP3 SUB SWAP1 POP DUP2 DUP2 GT ISZERO PUSH2 0x8AD7 JUMPI PUSH2 0x8AD6 PUSH2 0x7887 JUMP JUMPDEST JUMPDEST SWAP3 SWAP2 POP POP JUMP JUMPDEST PUSH32 0x4E487B7100000000000000000000000000000000000000000000000000000000 PUSH0 MSTORE PUSH1 0x31 PUSH1 0x4 MSTORE PUSH1 0x24 PUSH0 REVERT JUMPDEST PUSH32 0x557365722063616E6E6F74206265207A65726F20616464726573730000000000 PUSH0 DUP3 ADD MSTORE POP JUMP JUMPDEST PUSH0 PUSH2 0x8B3E PUSH1 0x1B DUP4 PUSH2 0x6F87 JUMP JUMPDEST SWAP2 POP PUSH2 0x8B49 DUP3 PUSH2 0x8B0A JUMP JUMPDEST PUSH1 0x20 DUP3 ADD SWAP1 POP SWAP2 SWAP1 POP JUMP JUMPDEST PUSH0 PUSH1 0x20 DUP3 ADD SWAP1 POP DUP2 DUP2 SUB PUSH0 DUP4 ADD MSTORE PUSH2 0x8B6B DUP2 PUSH2 0x8B32 JUMP JUMPDEST SWAP1 POP SWAP2 SWAP1 POP JUMP JUMPDEST PUSH32 0x4F6C6420616E64206E657720766F7465727320617272617973206D7573742068 PUSH0 DUP3 ADD MSTORE PUSH32 0x6176652073616D65206C656E6774680000000000000000000000000000000000 PUSH1 0x20 DUP3 ADD MSTORE POP JUMP JUMPDEST PUSH0 PUSH2 0x8BCC PUSH1 0x2F DUP4 PUSH2 0x6F87 JUMP JUMPDEST SWAP2 POP PUSH2 0x8BD7 DUP3 PUSH2 0x8B72 JUMP JUMPDEST PUSH1 0x40 DUP3 ADD SWAP1 POP SWAP2 SWAP1 POP JUMP JUMPDEST PUSH0 PUSH1 0x20 DUP3 ADD SWAP1 POP DUP2 DUP2 SUB PUSH0 DUP4 ADD MSTORE PUSH2 0x8BF9 DUP2 PUSH2 0x8BC0 JUMP JUMPDEST SWAP1 POP SWAP2 SWAP1 POP JUMP JUMPDEST PUSH32 0x4174206C65617374206F6E6520766F746572207265706C6163656D656E742072 PUSH0 DUP3 ADD MSTORE PUSH32 0x6571756972656400000000000000000000000000000000000000000000000000 PUSH1 0x20 DUP3 ADD MSTORE POP JUMP JUMPDEST PUSH0 PUSH2 0x8C5A PUSH1 0x27 DUP4 PUSH2 0x6F87 JUMP JUMPDEST SWAP2 POP PUSH2 0x8C65 DUP3 PUSH2 0x8C00 JUMP JUMPDEST PUSH1 0x40 DUP3 ADD SWAP1 POP SWAP2 SWAP1 POP JUMP JUMPDEST PUSH0 PUSH1 0x20 DUP3 ADD SWAP1 POP DUP2 DUP2 SUB PUSH0 DUP4 ADD MSTORE PUSH2 0x8C87 DUP2 PUSH2 0x8C4E JUMP JUMPDEST SWAP1 POP SWAP2 SWAP1 POP JUMP JUMPDEST PUSH0 DUP2 MLOAD SWAP1 POP SWAP2 SWAP1 POP JUMP JUMPDEST PUSH0 DUP2 SWAP1 POP PUSH1 0x20 DUP3 ADD SWAP1 POP SWAP2 SWAP1 POP JUMP JUMPDEST PUSH0 PUSH1 0x20 DUP3 ADD SWAP1 POP SWAP2 SWAP1 POP JUMP JUMPDEST PUSH0 PUSH2 0x8CBD DUP3 PUSH2 0x8C8E JUMP JUMPDEST PUSH2 0x8CC7 DUP2 DUP6 PUSH2 0x859A JUMP JUMPDEST SWAP4 POP PUSH2 0x8CD2 DUP4 PUSH2 0x8C98 JUMP JUMPDEST DUP1 PUSH0 JUMPDEST DUP4 DUP2 LT ISZERO PUSH2 0x8D02 JUMPI DUP2 MLOAD PUSH2 0x8CE9 DUP9 DUP3 PUSH2 0x85CB JUMP JUMPDEST SWAP8 POP PUSH2 0x8CF4 DUP4 PUSH2 0x8CA7 JUMP JUMPDEST SWAP3 POP POP PUSH1 0x1 DUP2 ADD SWAP1 POP PUSH2 0x8CD5 JUMP JUMPDEST POP DUP6 SWAP4 POP POP POP POP SWAP3 SWAP2 POP POP JUMP JUMPDEST PUSH0 PUSH1 0x60 DUP3 ADD SWAP1 POP DUP2 DUP2 SUB PUSH0 DUP4 ADD MSTORE PUSH2 0x8D27 DUP2 DUP7 PUSH2 0x8CB3 JUMP JUMPDEST SWAP1 POP DUP2 DUP2 SUB PUSH1 0x20 DUP4 ADD MSTORE PUSH2 0x8D3B DUP2 DUP6 PUSH2 0x8CB3 JUMP JUMPDEST SWAP1 POP PUSH2 0x8D4A PUSH1 0x40 DUP4 ADD DUP5 PUSH2 0x716F JUMP JUMPDEST SWAP5 SWAP4 POP POP POP POP JUMP JUMPDEST PUSH0 PUSH1 0x40 DUP3 ADD SWAP1 POP DUP2 DUP2 SUB PUSH0 DUP4 ADD MSTORE PUSH2 0x8D6A DUP2 DUP6 PUSH2 0x6FB5 JUMP JUMPDEST SWAP1 POP PUSH2 0x8D79 PUSH1 0x20 DUP4 ADD DUP5 PUSH2 0x716F JUMP JUMPDEST SWAP4 SWAP3 POP POP POP JUMP JUMPDEST PUSH32 0x416C726561647920766F74656400000000000000000000000000000000000000 PUSH0 DUP3 ADD MSTORE POP JUMP JUMPDEST PUSH0 PUSH2 0x8DB4 PUSH1 0xD DUP4 PUSH2 0x6F87 JUMP JUMPDEST SWAP2 POP PUSH2 0x8DBF DUP3 PUSH2 0x8D80 JUMP JUMPDEST PUSH1 0x20 DUP3 ADD SWAP1 POP SWAP2 SWAP1 POP JUMP JUMPDEST PUSH0 PUSH1 0x20 DUP3 ADD SWAP1 POP DUP2 DUP2 SUB PUSH0 DUP4 ADD MSTORE PUSH2 0x8DE1 DUP2 PUSH2 0x8DA8 JUMP JUMPDEST SWAP1 POP SWAP2 SWAP1 POP JUMP JUMPDEST PUSH32 0x566F74696E672069732070617573656400000000000000000000000000000000 PUSH0 DUP3 ADD MSTORE POP JUMP JUMPDEST PUSH0 PUSH2 0x8E1C PUSH1 0x10 DUP4 PUSH2 0x6F87 JUMP JUMPDEST SWAP2 POP PUSH2 0x8E27 DUP3 PUSH2 0x8DE8 JUMP JUMPDEST PUSH1 0x20 DUP3 ADD SWAP1 POP SWAP2 SWAP1 POP JUMP JUMPDEST PUSH0 PUSH1 0x20 DUP3 ADD SWAP1 POP DUP2 DUP2 SUB PUSH0 DUP4 ADD MSTORE PUSH2 0x8E49 DUP2 PUSH2 0x8E10 JUMP JUMPDEST SWAP1 POP SWAP2 SWAP1 POP JUMP JUMPDEST PUSH0 PUSH2 0x8E5A DUP3 PUSH2 0x700D JUMP JUMPDEST SWAP2 POP PUSH32 0xFFFFFFFFFFFFFFFFFFFFFFFFFFFFFFFFFFFFFFFFFFFFFFFFFFFFFFFFFFFFFFFF DUP3 SUB PUSH2 0x8E8C JUMPI PUSH2 0x8E8B PUSH2 0x7887 JUMP JUMPDEST JUMPDEST PUSH1 0x1 DUP3 ADD SWAP1 POP SWAP2 SWAP1 POP JUMP JUMPDEST PUSH32 0x77686974656C6973745F61646400000000000000000000000000000000000000 PUSH0 DUP3 ADD MSTORE POP JUMP JUMPDEST PUSH0 PUSH2 0x8ECB PUSH1 0xD DUP4 PUSH2 0x7F41 JUMP JUMPDEST SWAP2 POP PUSH2 0x8ED6 DUP3 PUSH2 0x8E97 JUMP JUMPDEST PUSH1 0xD DUP3 ADD SWAP1 POP SWAP2 SWAP1 POP JUMP JUMPDEST PUSH0 PUSH2 0x8EEB DUP3 PUSH2 0x8EBF JUMP JUMPDEST SWAP2 POP DUP2 SWAP1 POP SWAP2 SWAP1 POP JUMP JUMPDEST PUSH32 0x6D696E7400000000000000000000000000000000000000000000000000000000 PUSH0 DUP3 ADD MSTORE POP JUMP JUMPDEST PUSH0 PUSH2 0x8F29 PUSH1 0x4 DUP4 PUSH2 0x7F41 JUMP JUMPDEST SWAP2 POP PUSH2 0x8F34 DUP3 PUSH2 0x8EF5 JUMP JUMPDEST PUSH1 0x4 DUP3 ADD SWAP1 POP SWAP2 SWAP1 POP JUMP JUMPDEST PUSH0 PUSH2 0x8F49 DUP3 PUSH2 0x8F1D JUMP JUMPDEST SWAP2 POP DUP2 SWAP1 POP SWAP2 SWAP1 POP JUMP JUMPDEST PUSH32 0x6E616D6500000000000000000000000000000000000000000000000000000000 PUSH0 DUP3 ADD MSTORE POP JUMP JUMPDEST PUSH0 PUSH2 0x8F87 PUSH1 0x4 DUP4 PUSH2 0x7F41 JUMP JUMPDEST SWAP2 POP PUSH2 0x8F92 DUP3 PUSH2 0x8F53 JUMP JUMPDEST PUSH1 0x4 DUP3 ADD SWAP1 POP SWAP2 SWAP1 POP JUMP JUMPDEST PUSH0 PUSH2 0x8FA7 DUP3 PUSH2 0x8F7B JUMP JUMPDEST SWAP2 POP DUP2 SWAP1 POP SWAP2 SWAP1 POP JUMP JUMPDEST PUSH32 0x61646A757374546F74616C537570706C79000000000000000000000000000000 PUSH0 DUP3 ADD MSTORE POP JUMP JUMPDEST PUSH0 PUSH2 0x8FE5 PUSH1 0x11 DUP4 PUSH2 0x7F41 JUMP JUMPDEST SWAP2 POP PUSH2 0x8FF0 DUP3 PUSH2 0x8FB1 JUMP JUMPDEST PUSH1 0x11 DUP3 ADD SWAP1 POP SWAP2 SWAP1 POP JUMP JUMPDEST PUSH0 PUSH2 0x9005 DUP3 PUSH2 0x8FD9 JUMP JUMPDEST SWAP2 POP DUP2 SWAP1 POP SWAP2 SWAP1 POP JUMP JUMPDEST PUSH32 0x446973747269627574696F6E20696E74657276616C206E6F7420726561636865 PUSH0 DUP3 ADD MSTORE PUSH32 0x6400000000000000000000000000000000000000000000000000000000000000 PUSH1 0x20 DUP3 ADD MSTORE POP JUMP JUMPDEST PUSH0 PUSH2 0x9069 PUSH1 0x21 DUP4 PUSH2 0x6F87 JUMP JUMPDEST SWAP2 POP PUSH2 0x9074 DUP3 PUSH2 0x900F JUMP JUMPDEST PUSH1 0x40 DUP3 ADD SWAP1 POP SWAP2 SWAP1 POP JUMP JUMPDEST PUSH0 PUSH1 0x20 DUP3 ADD SWAP1 POP DUP2 DUP2 SUB PUSH0 DUP4 ADD MSTORE PUSH2 0x9096 DUP2 PUSH2 0x905D JUMP JUMPDEST SWAP1 POP SWAP2 SWAP1 POP JUMP JUMPDEST PUSH32 0x4E6F2077686974656C697374206D656D62657273000000000000000000000000 PUSH0 DUP3 ADD MSTORE POP JUMP JUMPDEST PUSH0 PUSH2 0x90D1 PUSH1 0x14 DUP4 PUSH2 0x6F87 JUMP JUMPDEST SWAP2 POP PUSH2 0x90DC DUP3 PUSH2 0x909D JUMP JUMPDEST PUSH1 0x20 DUP3 ADD SWAP1 POP SWAP2 SWAP1 POP JUMP JUMPDEST PUSH0 PUSH1 0x20 DUP3 ADD SWAP1 POP DUP2 DUP2 SUB PUSH0 DUP4 ADD MSTORE PUSH2 0x90FE DUP2 PUSH2 0x90C5 JUMP JUMPDEST SWAP1 POP SWAP2 SWAP1 POP JUMP JUMPDEST PUSH0 PUSH2 0x910F DUP3 PUSH2 0x700D JUMP JUMPDEST SWAP2 POP PUSH2 0x911A DUP4 PUSH2 0x700D JUMP JUMPDEST SWAP3 POP DUP3 DUP3 MUL PUSH2 0x9128 DUP2 PUSH2 0x700D JUMP JUMPDEST SWAP2 POP DUP3 DUP3 DIV DUP5 EQ DUP4 ISZERO OR PUSH2 0x913F JUMPI PUSH2 0x913E PUSH2 0x7887 JUMP JUMPDEST JUMPDEST POP SWAP3 SWAP2 POP POP JUMP JUMPDEST PUSH0 PUSH1 0x40 DUP3 ADD SWAP1 POP DUP2 DUP2 SUB PUSH0 DUP4 ADD MSTORE PUSH2 0x915E DUP2 DUP6 PUSH2 0x8CB3 JUMP JUMPDEST SWAP1 POP PUSH2 0x916D PUSH1 0x20 DUP4 ADD DUP5 PUSH2 0x7016 JUMP JUMPDEST SWAP4 SWAP3 POP POP POP JUMP JUMPDEST PUSH32 0x4F6E6C7920696E69746961746F722063616E2063616E63656C00000000000000 PUSH0 DUP3 ADD MSTORE POP JUMP JUMPDEST PUSH0 PUSH2 0x91A8 PUSH1 0x19 DUP4 PUSH2 0x6F87 JUMP JUMPDEST SWAP2 POP PUSH2 0x91B3 DUP3 PUSH2 0x9174 JUMP JUMPDEST PUSH1 0x20 DUP3 ADD SWAP1 POP SWAP2 SWAP1 POP JUMP JUMPDEST PUSH0 PUSH1 0x20 DUP3 ADD SWAP1 POP DUP2 DUP2 SUB PUSH0 DUP4 ADD MSTORE PUSH2 0x91D5 DUP2 PUSH2 0x919C JUMP JUMPDEST SWAP1 POP SWAP2 SWAP1 POP JUMP JUMPDEST PUSH32 0x496E76616C69642070726F706F73616C207479706520666F722063616E63656C PUSH0 DUP3 ADD MSTORE PUSH32 0x6C6174696F6E0000000000000000000000000000000000000000000000000000 PUSH1 0x20 DUP3 ADD MSTORE POP JUMP JUMPDEST PUSH0 PUSH2 0x9236 PUSH1 0x26 DUP4 PUSH2 0x6F87 JUMP JUMPDEST SWAP2 POP PUSH2 0x9241 DUP3 PUSH2 0x91DC JUMP JUMPDEST PUSH1 0x40 DUP3 ADD SWAP1 POP SWAP2 SWAP1 POP JUMP JUMPDEST PUSH0 PUSH1 0x20 DUP3 ADD SWAP1 POP DUP2 DUP2 SUB PUSH0 DUP4 ADD MSTORE PUSH2 0x9263 DUP2 PUSH2 0x922A JUMP JUMPDEST SWAP1 POP SWAP2 SWAP1 POP JUMP JUMPDEST PUSH32 0x50726F706F73616C206E6F742079657420617070726F76656400000000000000 PUSH0 DUP3 ADD MSTORE POP JUMP JUMPDEST PUSH0 PUSH2 0x929E PUSH1 0x19 DUP4 PUSH2 0x6F87 JUMP JUMPDEST SWAP2 POP PUSH2 0x92A9 DUP3 PUSH2 0x926A JUMP JUMPDEST PUSH1 0x20 DUP3 ADD SWAP1 POP SWAP2 SWAP1 POP JUMP JUMPDEST PUSH0 PUSH1 0x20 DUP3 ADD SWAP1 POP DUP2 DUP2 SUB PUSH0 DUP4 ADD MSTORE PUSH2 0x92CB DUP2 PUSH2 0x9292 JUMP JUMPDEST SWAP1 POP SWAP2 SWAP1 POP JUMP JUMPDEST PUSH32 0x43616E63656C6C6174696F6E2077696E646F7720636C6F736564000000000000 PUSH0 DUP3 ADD MSTORE POP JUMP JUMPDEST PUSH0 PUSH2 0x9306 PUSH1 0x1A DUP4 PUSH2 0x6F87 JUMP JUMPDEST SWAP2 POP PUSH2 0x9311 DUP3 PUSH2 0x92D2 JUMP JUMPDEST PUSH1 0x20 DUP3 ADD SWAP1 POP SWAP2 SWAP1 POP JUMP JUMPDEST PUSH0 PUSH1 0x20 DUP3 ADD SWAP1 POP DUP2 DUP2 SUB PUSH0 DUP4 ADD MSTORE PUSH2 0x9333 DUP2 PUSH2 0x92FA JUMP JUMPDEST SWAP1 POP SWAP2 SWAP1 POP JUMP JUMPDEST PUSH32 0x416C726561647920656E6F75676820766F74657320746F20726573756D650000 PUSH0 DUP3 ADD MSTORE POP JUMP JUMPDEST PUSH0 PUSH2 0x936E PUSH1 0x1E DUP4 PUSH2 0x6F87 JUMP JUMPDEST SWAP2 POP PUSH2 0x9379 DUP3 PUSH2 0x933A JUMP JUMPDEST PUSH1 0x20 DUP3 ADD SWAP1 POP SWAP2 SWAP1 POP JUMP JUMPDEST PUSH0 PUSH1 0x20 DUP3 ADD SWAP1 POP DUP2 DUP2 SUB PUSH0 DUP4 ADD MSTORE PUSH2 0x939B DUP2 PUSH2 0x9362 JUMP JUMPDEST SWAP1 POP SWAP2 SWAP1 POP JUMP JUMPDEST PUSH0 DUP2 SLOAD PUSH2 0x93AE DUP2 PUSH2 0x75E7 JUMP JUMPDEST PUSH2 0x93B8 DUP2 DUP7 PUSH2 0x6F87 JUMP JUMPDEST SWAP5 POP PUSH1 0x1 DUP3 AND PUSH0 DUP2 EQ PUSH2 0x93D2 JUMPI PUSH1 0x1 DUP2 EQ PUSH2 0x93E8 JUMPI PUSH2 0x941A JUMP JUMPDEST PUSH1 0xFF NOT DUP4 AND DUP7 MSTORE DUP2 ISZERO ISZERO PUSH1 0x20 MUL DUP7 ADD SWAP4 POP PUSH2 0x941A JUMP JUMPDEST PUSH2 0x93F1 DUP6 PUSH2 0x794F JUMP JUMPDEST PUSH0 JUMPDEST DUP4 DUP2 LT ISZERO PUSH2 0x9412 JUMPI DUP2 SLOAD DUP2 DUP10 ADD MSTORE PUSH1 0x1 DUP3 ADD SWAP2 POP PUSH1 0x20 DUP2 ADD SWAP1 POP PUSH2 0x93F3 JUMP JUMPDEST DUP1 DUP9 ADD SWAP6 POP POP POP JUMPDEST POP POP POP SWAP3 SWAP2 POP POP JUMP JUMPDEST PUSH0 PUSH1 0x20 DUP3 ADD SWAP1 POP DUP2 DUP2 SUB PUSH0 DUP4 ADD MSTORE PUSH2 0x943B DUP2 DUP5 PUSH2 0x93A2 JUMP JUMPDEST SWAP1 POP SWAP3 SWAP2 POP POP JUMP JUMPDEST PUSH2 0x944C DUP2 PUSH2 0x704F JUMP JUMPDEST DUP2 EQ PUSH2 0x9456 JUMPI PUSH0 PUSH0 REVERT JUMPDEST POP JUMP JUMPDEST PUSH0 DUP2 MLOAD SWAP1 POP PUSH2 0x9467 DUP2 PUSH2 0x9443 JUMP JUMPDEST SWAP3 SWAP2 POP POP JUMP JUMPDEST PUSH0 DUP2 PUSH1 0x2 SIGNEXTEND SWAP1 POP SWAP2 SWAP1 POP JUMP JUMPDEST PUSH2 0x9482 DUP2 PUSH2 0x946D JUMP JUMPDEST DUP2 EQ PUSH2 0x948C JUMPI PUSH0 PUSH0 REVERT JUMPDEST POP JUMP JUMPDEST PUSH0 DUP2 MLOAD SWAP1 POP PUSH2 0x949D DUP2 PUSH2 0x9479 JUMP JUMPDEST SWAP3 SWAP2 POP POP JUMP JUMPDEST PUSH0 PUSH2 0xFFFF DUP3 AND SWAP1 POP SWAP2 SWAP1 POP JUMP JUMPDEST PUSH2 0x94B9 DUP2 PUSH2 0x94A3 JUMP JUMPDEST DUP2 EQ PUSH2 0x94C3 JUMPI PUSH0 PUSH0 REVERT JUMPDEST POP JUMP JUMPDEST PUSH0 DUP2 MLOAD SWAP1 POP PUSH2 0x94D4 DUP2 PUSH2 0x94B0 JUMP JUMPDEST SWAP3 SWAP2 POP POP JUMP JUMPDEST PUSH2 0x94E3 DUP2 PUSH2 0x7212 JUMP JUMPDEST DUP2 EQ PUSH2 0x94ED JUMPI PUSH0 PUSH0 REVERT JUMPDEST POP JUMP JUMPDEST PUSH0 DUP2 MLOAD SWAP1 POP PUSH2 0x94FE DUP2 PUSH2 0x94DA JUMP JUMPDEST SWAP3 SWAP2 POP POP JUMP JUMPDEST PUSH2 0x950D DUP2 PUSH2 0x7111 JUMP JUMPDEST DUP2 EQ PUSH2 0x9517 JUMPI PUSH0 PUSH0 REVERT JUMPDEST POP JUMP JUMPDEST PUSH0 DUP2 MLOAD SWAP1 POP PUSH2 0x9528 DUP2 PUSH2 0x9504 JUMP JUMPDEST SWAP3 SWAP2 POP POP JUMP JUMPDEST PUSH0 PUSH0 PUSH0 PUSH0 PUSH0 PUSH0 PUSH0 PUSH1 0xE0 DUP9 DUP11 SUB SLT ISZERO PUSH2 0x9549 JUMPI PUSH2 0x9548 PUSH2 0x7047 JUMP JUMPDEST JUMPDEST PUSH0 PUSH2 0x9556 DUP11 DUP3 DUP12 ADD PUSH2 0x9459 JUMP JUMPDEST SWAP8 POP POP PUSH1 0x20 PUSH2 0x9567 DUP11 DUP3 DUP12 ADD PUSH2 0x948F JUMP JUMPDEST SWAP7 POP POP PUSH1 0x40 PUSH2 0x9578 DUP11 DUP3 DUP12 ADD PUSH2 0x94C6 JUMP JUMPDEST SWAP6 POP POP PUSH1 0x60 PUSH2 0x9589 DUP11 DUP3 DUP12 ADD PUSH2 0x94C6 JUMP JUMPDEST SWAP5 POP POP PUSH1 0x80 PUSH2 0x959A DUP11 DUP3 DUP12 ADD PUSH2 0x94C6 JUMP JUMPDEST SWAP4 POP POP PUSH1 0xA0 PUSH2 0x95AB DUP11 DUP3 DUP12 ADD PUSH2 0x94F0 JUMP JUMPDEST SWAP3 POP POP PUSH1 0xC0 PUSH2 0x95BC DUP11 DUP3 DUP12 ADD PUSH2 0x951A JUMP JUMPDEST SWAP2 POP POP SWAP3 SWAP6 SWAP9 SWAP2 SWAP5 SWAP8 POP SWAP3 SWAP6 POP JUMP JUMPDEST PUSH32 0x4E487B7100000000000000000000000000000000000000000000000000000000 PUSH0 MSTORE PUSH1 0x12 PUSH1 0x4 MSTORE PUSH1 0x24 PUSH0 REVERT JUMPDEST PUSH0 PUSH2 0x9602 DUP3 PUSH2 0x700D JUMP JUMPDEST SWAP2 POP PUSH2 0x960D DUP4 PUSH2 0x700D JUMP JUMPDEST SWAP3 POP DUP3 PUSH2 0x961D JUMPI PUSH2 0x961C PUSH2 0x95CB JUMP JUMPDEST JUMPDEST DUP3 DUP3 DIV SWAP1 POP SWAP3 SWAP2 POP POP JUMP JUMPDEST PUSH32 0x496E76616C696420726563697069656E74206164647265737300000000000000 PUSH0 DUP3 ADD MSTORE POP JUMP JUMPDEST PUSH0 PUSH2 0x965C PUSH1 0x19 DUP4 PUSH2 0x6F87 JUMP JUMPDEST SWAP2 POP PUSH2 0x9667 DUP3 PUSH2 0x9628 JUMP JUMPDEST PUSH1 0x20 DUP3 ADD SWAP1 POP SWAP2 SWAP1 POP JUMP JUMPDEST PUSH0 PUSH1 0x20 DUP3 ADD SWAP1 POP DUP2 DUP2 SUB PUSH0 DUP4 ADD MSTORE PUSH2 0x9689 DUP2 PUSH2 0x9650 JUMP JUMPDEST SWAP1 POP SWAP2 SWAP1 POP JUMP JUMPDEST PUSH0 PUSH1 0x60 DUP3 ADD SWAP1 POP PUSH2 0x96A3 PUSH0 DUP4 ADD DUP7 PUSH2 0x716F JUMP JUMPDEST PUSH2 0x96B0 PUSH1 0x20 DUP4 ADD DUP6 PUSH2 0x7016 JUMP JUMPDEST PUSH2 0x96BD PUSH1 0x40 DUP4 ADD DUP5 PUSH2 0x7016 JUMP JUMPDEST SWAP5 SWAP4 POP POP POP POP JUMP INVALID LOG2 PUSH5 0x6970667358 0x22 SLT KECCAK256 0xB8 0xBF PUSH5 0x4BE258EDB1 LOG3 0xD 0xFC 0xE9 0xC3 PUSH5 0x4046276EEA EOFCREATE 0x16 SMOD DUP3 DUP5 PUSH31 0x4F9BAB254B623064736F6C634300081E003300000000000000000000000000 "
		},
		"gasEstimates": {
			"creation": {
				"codeDepositCost": "7730200",
				"executionCost": "infinite",
				"totalCost": "infinite"
			},
			"external": {
				"DISTRIBUTION_AMOUNT()": "479",
				"DISTRIBUTION_INTERVAL()": "461",
				"MIN_VOTES_FOR_MINT()": "435",
				"MIN_VOTES_FOR_USER_ACTIONS()": "437",
				"TOTAL_SUPPLY()": "2581",
				"TOTAL_VOTES_REQUIRED()": "459",
				"adjustTotalSupply()": "infinite",
				"allowance(address,address)": "infinite",
				"approve(address,uint256)": "infinite",
				"balanceOf(address)": "2896",
				"balanceOfUser(address)": "2983",
				"cancelProposal()": "infinite",
				"changeFreezeUser()": "infinite",
				"changeMint()": "infinite",
				"changeName()": "infinite",
				"changeTimestamp()": "2539",
				"changeUnfreezeUser()": "infinite",
				"changeVoters()": "infinite",
				"changeWhitelistAdd()": "infinite",
				"changeWhitelistRemove()": "infinite",
				"compliance()": "448",
				"contractPaused()": "2607",
				"decimals()": "493",
				"distributeToWhitelist()": "infinite",
				"frozen(address)": "2966",
				"getCurrentPrice()": "infinite",
				"getFrozenTokens(address)": "797",
				"hasVoted(address)": "2924",
				"identityRegistry()": "514",
				"isFrozen(address)": "3003",
				"lastDistributionTimestamp()": "2560",
				"mintedAmount()": "2515",
				"name()": "infinite",
				"newProposedName()": "infinite",
				"onchainID()": "447",
				"owner()": "2649",
				"pauseContract()": "infinite",
				"pauseVoting()": "infinite",
				"paused()": "2635",
				"proposalActive()": "2533",
				"proposalInitiator()": "2598",
				"proposalType()": "infinite",
				"proposeAddToWhitelist(address)": "infinite",
				"proposeAdjustTotalSupply(int64)": "infinite",
				"proposeFreezeUser(address)": "infinite",
				"proposeMint(address,uint256)": "infinite",
				"proposeNewName(string)": "infinite",
				"proposeNewVoters(address[],address[])": "infinite",
				"proposeRemoveFromWhitelist(address)": "infinite",
				"proposeUnfreezeUser(address)": "infinite",
				"proposedAdjustmentAmount()": "2582",
				"proposedFreezeAction()": "infinite",
				"proposedFreezeUser()": "2621",
				"proposedMintAmount()": "2559",
				"proposedMintRecipient()": "2598",
				"proposedNewVoters(uint256)": "5012",
				"proposedOldVoters(uint256)": "5100",
				"proposedWhitelistAction()": "infinite",
				"proposedWhitelistMember()": "2619",
				"remainingSupply()": "infinite",
				"renounceOwnership()": "infinite",
				"resumeContract()": "infinite",
				"resumeVoting()": "infinite",
				"symbol()": "infinite",
				"tokenName()": "infinite",
				"totalSupply()": "2523",
				"totalSupplyAdjustmentTimestamp()": "2492",
				"transfer(address,uint256)": "infinite",
				"transferFrom(address,address,uint256)": "infinite",
				"transferOwnership(address)": "infinite",
				"uniswapPool()": "2664",
				"version()": "infinite",
				"vote()": "infinite",
				"voteCount()": "2536",
				"voters(uint256)": "5033",
				"votersChangeTimestamp()": "2560",
				"votingPaused()": "2629",
				"whitelist(address)": "2966",
				"whitelistMembers(uint256)": "5101"
			},
			"internal": {
				"_setName(string memory)": "infinite",
				"isVoter(address)": "infinite",
				"resetVotes()": "infinite"
			}
		},
		"methodIdentifiers": {
			"DISTRIBUTION_AMOUNT()": "ff8f164f",
			"DISTRIBUTION_INTERVAL()": "08b26b75",
			"MIN_VOTES_FOR_MINT()": "f36e32cc",
			"MIN_VOTES_FOR_USER_ACTIONS()": "2de56555",
			"TOTAL_SUPPLY()": "902d55a5",
			"TOTAL_VOTES_REQUIRED()": "302c464a",
			"adjustTotalSupply()": "7094741d",
			"allowance(address,address)": "dd62ed3e",
			"approve(address,uint256)": "095ea7b3",
			"balanceOf(address)": "70a08231",
			"balanceOfUser(address)": "12cae7af",
			"cancelProposal()": "9070577f",
			"changeFreezeUser()": "4784bbed",
			"changeMint()": "eeb79d40",
			"changeName()": "d9a7430e",
			"changeTimestamp()": "0811a0cf",
			"changeUnfreezeUser()": "3c9edeb2",
			"changeVoters()": "45f4d2a5",
			"changeWhitelistAdd()": "b0a9f28d",
			"changeWhitelistRemove()": "53030455",
			"compliance()": "6290865d",
			"contractPaused()": "8a67456a",
			"decimals()": "313ce567",
			"distributeToWhitelist()": "80e79a36",
			"frozen(address)": "d0516650",
			"getCurrentPrice()": "eb91d37e",
			"getFrozenTokens(address)": "158b1a57",
			"hasVoted(address)": "09eef43e",
			"identityRegistry()": "134e18f4",
			"isFrozen(address)": "e5839836",
			"lastDistributionTimestamp()": "20950933",
			"mintedAmount()": "2d380242",
			"name()": "06fdde03",
			"newProposedName()": "4bc27b3c",
			"onchainID()": "aba63705",
			"owner()": "8da5cb5b",
			"pauseContract()": "439766ce",
			"pauseVoting()": "f3cdcd1e",
			"paused()": "5c975abb",
			"proposalActive()": "583007bd",
			"proposalInitiator()": "ae3877e0",
			"proposalType()": "351d9f96",
			"proposeAddToWhitelist(address)": "37d428eb",
			"proposeAdjustTotalSupply(int64)": "4bb91587",
			"proposeFreezeUser(address)": "58105210",
			"proposeMint(address,uint256)": "15d4c5d5",
			"proposeNewName(string)": "60b8594d",
			"proposeNewVoters(address[],address[])": "5fc6e6e6",
			"proposeRemoveFromWhitelist(address)": "19a5ecd5",
			"proposeUnfreezeUser(address)": "3f99075b",
			"proposedAdjustmentAmount()": "8cdeefbd",
			"proposedFreezeAction()": "06854b2c",
			"proposedFreezeUser()": "697199c5",
			"proposedMintAmount()": "48a33082",
			"proposedMintRecipient()": "501d6b57",
			"proposedNewVoters(uint256)": "884fa57b",
			"proposedOldVoters(uint256)": "850ae8a3",
			"proposedWhitelistAction()": "5aa15e6b",
			"proposedWhitelistMember()": "96f66144",
			"remainingSupply()": "da0239a6",
			"renounceOwnership()": "715018a6",
			"resumeContract()": "c4bc5da5",
			"resumeVoting()": "7afdf93e",
			"symbol()": "95d89b41",
			"tokenName()": "6c02a931",
			"totalSupply()": "18160ddd",
			"totalSupplyAdjustmentTimestamp()": "c20a25b5",
			"transfer(address,uint256)": "a9059cbb",
			"transferFrom(address,address,uint256)": "23b872dd",
			"transferOwnership(address)": "f2fde38b",
			"uniswapPool()": "bdd3d825",
			"version()": "54fd4d50",
			"vote()": "632a9a52",
			"voteCount()": "c6384071",
			"voters(uint256)": "da58c7d9",
			"votersChangeTimestamp()": "3cf37361",
			"votingPaused()": "ae66c9ea",
			"whitelist(address)": "9b19251a",
			"whitelistMembers(uint256)": "2202cbfa"
		}
	},
	"abi": [
		{
			"inputs": [
				{
					"internalType": "string",
					"name": "initialName",
					"type": "string"
				},
				{
					"internalType": "address[]",
					"name": "_whitelist",
					"type": "address[]"
				},
				{
					"internalType": "address[]",
					"name": "_voters",
					"type": "address[]"
				},
				{
					"internalType": "address",
					"name": "_uniswapPool",
					"type": "address"
				}
			],
			"stateMutability": "nonpayable",
			"type": "constructor"
		},
		{
			"inputs": [
				{
					"internalType": "address",
					"name": "spender",
					"type": "address"
				},
				{
					"internalType": "uint256",
					"name": "allowance",
					"type": "uint256"
				},
				{
					"internalType": "uint256",
					"name": "needed",
					"type": "uint256"
				}
			],
			"name": "ERC20InsufficientAllowance",
			"type": "error"
		},
		{
			"inputs": [
				{
					"internalType": "address",
					"name": "sender",
					"type": "address"
				},
				{
					"internalType": "uint256",
					"name": "balance",
					"type": "uint256"
				},
				{
					"internalType": "uint256",
					"name": "needed",
					"type": "uint256"
				}
			],
			"name": "ERC20InsufficientBalance",
			"type": "error"
		},
		{
			"inputs": [
				{
					"internalType": "address",
					"name": "approver",
					"type": "address"
				}
			],
			"name": "ERC20InvalidApprover",
			"type": "error"
		},
		{
			"inputs": [
				{
					"internalType": "address",
					"name": "receiver",
					"type": "address"
				}
			],
			"name": "ERC20InvalidReceiver",
			"type": "error"
		},
		{
			"inputs": [
				{
					"internalType": "address",
					"name": "sender",
					"type": "address"
				}
			],
			"name": "ERC20InvalidSender",
			"type": "error"
		},
		{
			"inputs": [
				{
					"internalType": "address",
					"name": "spender",
					"type": "address"
				}
			],
			"name": "ERC20InvalidSpender",
			"type": "error"
		},
		{
			"inputs": [
				{
					"internalType": "address",
					"name": "owner",
					"type": "address"
				}
			],
			"name": "OwnableInvalidOwner",
			"type": "error"
		},
		{
			"inputs": [
				{
					"internalType": "address",
					"name": "account",
					"type": "address"
				}
			],
			"name": "OwnableUnauthorizedAccount",
			"type": "error"
		},
		{
			"anonymous": false,
			"inputs": [
				{
					"indexed": false,
					"internalType": "int64",
					"name": "amount",
					"type": "int64"
				},
				{
					"indexed": false,
					"internalType": "address",
					"name": "initiator",
					"type": "address"
				}
			],
			"name": "AdjustTotalSupplyProposalCreated",
			"type": "event"
		},
		{
			"anonymous": false,
			"inputs": [
				{
					"indexed": true,
					"internalType": "address",
					"name": "owner",
					"type": "address"
				},
				{
					"indexed": true,
					"internalType": "address",
					"name": "spender",
					"type": "address"
				},
				{
					"indexed": false,
					"internalType": "uint256",
					"name": "value",
					"type": "uint256"
				}
			],
			"name": "Approval",
			"type": "event"
		},
		{
			"anonymous": false,
			"inputs": [],
			"name": "ContractPaused",
			"type": "event"
		},
		{
			"anonymous": false,
			"inputs": [],
			"name": "ContractResumed",
			"type": "event"
		},
		{
			"anonymous": false,
			"inputs": [
				{
					"indexed": false,
					"internalType": "address",
					"name": "user",
					"type": "address"
				},
				{
					"indexed": false,
					"internalType": "string",
					"name": "action",
					"type": "string"
				}
			],
			"name": "FreezeChanged",
			"type": "event"
		},
		{
			"anonymous": false,
			"inputs": [
				{
					"indexed": false,
					"internalType": "address",
					"name": "user",
					"type": "address"
				},
				{
					"indexed": false,
					"internalType": "string",
					"name": "action",
					"type": "string"
				}
			],
			"name": "FreezeProposalCreated",
			"type": "event"
		},
		{
			"anonymous": false,
			"inputs": [
				{
					"indexed": false,
					"internalType": "address",
					"name": "to",
					"type": "address"
				},
				{
					"indexed": false,
					"internalType": "uint256",
					"name": "amount",
					"type": "uint256"
				}
			],
			"name": "MintExecuted",
			"type": "event"
		},
		{
			"anonymous": false,
			"inputs": [
				{
					"indexed": false,
					"internalType": "address",
					"name": "to",
					"type": "address"
				},
				{
					"indexed": false,
					"internalType": "uint256",
					"name": "amount",
					"type": "uint256"
				}
			],
			"name": "MintProposalCreated",
			"type": "event"
		},
		{
			"anonymous": false,
			"inputs": [
				{
					"indexed": false,
					"internalType": "string",
					"name": "newName",
					"type": "string"
				}
			],
			"name": "NameChanged",
			"type": "event"
		},
		{
			"anonymous": false,
			"inputs": [
				{
					"indexed": false,
					"internalType": "string",
					"name": "newName",
					"type": "string"
				},
				{
					"indexed": false,
					"internalType": "address",
					"name": "initiator",
					"type": "address"
				}
			],
			"name": "NameProposalCreated",
			"type": "event"
		},
		{
			"anonymous": false,
			"inputs": [
				{
					"indexed": true,
					"internalType": "address",
					"name": "previousOwner",
					"type": "address"
				},
				{
					"indexed": true,
					"internalType": "address",
					"name": "newOwner",
					"type": "address"
				}
			],
			"name": "OwnershipTransferred",
			"type": "event"
		},
		{
			"anonymous": false,
			"inputs": [
				{
					"indexed": false,
					"internalType": "string",
					"name": "proposalType",
					"type": "string"
				},
				{
					"indexed": false,
					"internalType": "address",
					"name": "initiator",
					"type": "address"
				}
			],
			"name": "ProposalCancelled",
			"type": "event"
		},
		{
			"anonymous": false,
			"inputs": [
				{
					"indexed": false,
					"internalType": "uint256",
					"name": "newTotalSupply",
					"type": "uint256"
				}
			],
			"name": "TotalSupplyAdjusted",
			"type": "event"
		},
		{
			"anonymous": false,
			"inputs": [
				{
					"indexed": true,
					"internalType": "address",
					"name": "from",
					"type": "address"
				},
				{
					"indexed": true,
					"internalType": "address",
					"name": "to",
					"type": "address"
				},
				{
					"indexed": false,
					"internalType": "uint256",
					"name": "value",
					"type": "uint256"
				}
			],
			"name": "Transfer",
			"type": "event"
		},
		{
			"anonymous": false,
			"inputs": [
				{
					"indexed": false,
					"internalType": "address[]",
					"name": "oldVoters",
					"type": "address[]"
				},
				{
					"indexed": false,
					"internalType": "address[]",
					"name": "newVoters",
					"type": "address[]"
				}
			],
			"name": "VotersChanged",
			"type": "event"
		},
		{
			"anonymous": false,
			"inputs": [
				{
					"indexed": false,
					"internalType": "address[]",
					"name": "oldVoters",
					"type": "address[]"
				},
				{
					"indexed": false,
					"internalType": "address[]",
					"name": "newVoters",
					"type": "address[]"
				},
				{
					"indexed": false,
					"internalType": "address",
					"name": "initiator",
					"type": "address"
				}
			],
			"name": "VotersProposalCreated",
			"type": "event"
		},
		{
			"anonymous": false,
			"inputs": [],
			"name": "VotingPaused",
			"type": "event"
		},
		{
			"anonymous": false,
			"inputs": [],
			"name": "VotingResumed",
			"type": "event"
		},
		{
			"anonymous": false,
			"inputs": [
				{
					"indexed": false,
					"internalType": "address",
					"name": "member",
					"type": "address"
				},
				{
					"indexed": false,
					"internalType": "string",
					"name": "action",
					"type": "string"
				}
			],
			"name": "WhitelistChanged",
			"type": "event"
		},
		{
			"anonymous": false,
			"inputs": [
				{
					"indexed": false,
					"internalType": "address[]",
					"name": "recipients",
					"type": "address[]"
				},
				{
					"indexed": false,
					"internalType": "uint256",
					"name": "amount",
					"type": "uint256"
				}
			],
			"name": "WhitelistDistribution",
			"type": "event"
		},
		{
			"anonymous": false,
			"inputs": [
				{
					"indexed": false,
					"internalType": "address",
					"name": "member",
					"type": "address"
				},
				{
					"indexed": false,
					"internalType": "string",
					"name": "action",
					"type": "string"
				}
			],
			"name": "WhitelistProposalCreated",
			"type": "event"
		},
		{
			"inputs": [],
			"name": "DISTRIBUTION_AMOUNT",
			"outputs": [
				{
					"internalType": "uint256",
					"name": "",
					"type": "uint256"
				}
			],
			"stateMutability": "view",
			"type": "function"
		},
		{
			"inputs": [],
			"name": "DISTRIBUTION_INTERVAL",
			"outputs": [
				{
					"internalType": "uint256",
					"name": "",
					"type": "uint256"
				}
			],
			"stateMutability": "view",
			"type": "function"
		},
		{
			"inputs": [],
			"name": "MIN_VOTES_FOR_MINT",
			"outputs": [
				{
					"internalType": "uint256",
					"name": "",
					"type": "uint256"
				}
			],
			"stateMutability": "view",
			"type": "function"
		},
		{
			"inputs": [],
			"name": "MIN_VOTES_FOR_USER_ACTIONS",
			"outputs": [
				{
					"internalType": "uint256",
					"name": "",
					"type": "uint256"
				}
			],
			"stateMutability": "view",
			"type": "function"
		},
		{
			"inputs": [],
			"name": "TOTAL_SUPPLY",
			"outputs": [
				{
					"internalType": "uint256",
					"name": "",
					"type": "uint256"
				}
			],
			"stateMutability": "view",
			"type": "function"
		},
		{
			"inputs": [],
			"name": "TOTAL_VOTES_REQUIRED",
			"outputs": [
				{
					"internalType": "uint256",
					"name": "",
					"type": "uint256"
				}
			],
			"stateMutability": "view",
			"type": "function"
		},
		{
			"inputs": [],
			"name": "adjustTotalSupply",
			"outputs": [],
			"stateMutability": "nonpayable",
			"type": "function"
		},
		{
			"inputs": [
				{
					"internalType": "address",
					"name": "owner",
					"type": "address"
				},
				{
					"internalType": "address",
					"name": "spender",
					"type": "address"
				}
			],
			"name": "allowance",
			"outputs": [
				{
					"internalType": "uint256",
					"name": "",
					"type": "uint256"
				}
			],
			"stateMutability": "view",
			"type": "function"
		},
		{
			"inputs": [
				{
					"internalType": "address",
					"name": "spender",
					"type": "address"
				},
				{
					"internalType": "uint256",
					"name": "value",
					"type": "uint256"
				}
			],
			"name": "approve",
			"outputs": [
				{
					"internalType": "bool",
					"name": "",
					"type": "bool"
				}
			],
			"stateMutability": "nonpayable",
			"type": "function"
		},
		{
			"inputs": [
				{
					"internalType": "address",
					"name": "account",
					"type": "address"
				}
			],
			"name": "balanceOf",
			"outputs": [
				{
					"internalType": "uint256",
					"name": "",
					"type": "uint256"
				}
			],
			"stateMutability": "view",
			"type": "function"
		},
		{
			"inputs": [
				{
					"internalType": "address",
					"name": "user",
					"type": "address"
				}
			],
			"name": "balanceOfUser",
			"outputs": [
				{
					"internalType": "uint256",
					"name": "",
					"type": "uint256"
				}
			],
			"stateMutability": "view",
			"type": "function"
		},
		{
			"inputs": [],
			"name": "cancelProposal",
			"outputs": [],
			"stateMutability": "nonpayable",
			"type": "function"
		},
		{
			"inputs": [],
			"name": "changeFreezeUser",
			"outputs": [],
			"stateMutability": "nonpayable",
			"type": "function"
		},
		{
			"inputs": [],
			"name": "changeMint",
			"outputs": [],
			"stateMutability": "nonpayable",
			"type": "function"
		},
		{
			"inputs": [],
			"name": "changeName",
			"outputs": [],
			"stateMutability": "nonpayable",
			"type": "function"
		},
		{
			"inputs": [],
			"name": "changeTimestamp",
			"outputs": [
				{
					"internalType": "uint256",
					"name": "",
					"type": "uint256"
				}
			],
			"stateMutability": "view",
			"type": "function"
		},
		{
			"inputs": [],
			"name": "changeUnfreezeUser",
			"outputs": [],
			"stateMutability": "nonpayable",
			"type": "function"
		},
		{
			"inputs": [],
			"name": "changeVoters",
			"outputs": [],
			"stateMutability": "nonpayable",
			"type": "function"
		},
		{
			"inputs": [],
			"name": "changeWhitelistAdd",
			"outputs": [],
			"stateMutability": "nonpayable",
			"type": "function"
		},
		{
			"inputs": [],
			"name": "changeWhitelistRemove",
			"outputs": [],
			"stateMutability": "nonpayable",
			"type": "function"
		},
		{
			"inputs": [],
			"name": "compliance",
			"outputs": [
				{
					"internalType": "address",
					"name": "",
					"type": "address"
				}
			],
			"stateMutability": "view",
			"type": "function"
		},
		{
			"inputs": [],
			"name": "contractPaused",
			"outputs": [
				{
					"internalType": "bool",
					"name": "",
					"type": "bool"
				}
			],
			"stateMutability": "view",
			"type": "function"
		},
		{
			"inputs": [],
			"name": "decimals",
			"outputs": [
				{
					"internalType": "uint8",
					"name": "",
					"type": "uint8"
				}
			],
			"stateMutability": "view",
			"type": "function"
		},
		{
			"inputs": [],
			"name": "distributeToWhitelist",
			"outputs": [],
			"stateMutability": "nonpayable",
			"type": "function"
		},
		{
			"inputs": [
				{
					"internalType": "address",
					"name": "",
					"type": "address"
				}
			],
			"name": "frozen",
			"outputs": [
				{
					"internalType": "bool",
					"name": "",
					"type": "bool"
				}
			],
			"stateMutability": "view",
			"type": "function"
		},
		{
			"inputs": [],
			"name": "getCurrentPrice",
			"outputs": [
				{
					"internalType": "uint256",
					"name": "",
					"type": "uint256"
				}
			],
			"stateMutability": "view",
			"type": "function"
		},
		{
			"inputs": [
				{
					"internalType": "address",
					"name": "userAddress",
					"type": "address"
				}
			],
			"name": "getFrozenTokens",
			"outputs": [
				{
					"internalType": "uint256",
					"name": "",
					"type": "uint256"
				}
			],
			"stateMutability": "view",
			"type": "function"
		},
		{
			"inputs": [
				{
					"internalType": "address",
					"name": "",
					"type": "address"
				}
			],
			"name": "hasVoted",
			"outputs": [
				{
					"internalType": "bool",
					"name": "",
					"type": "bool"
				}
			],
			"stateMutability": "view",
			"type": "function"
		},
		{
			"inputs": [],
			"name": "identityRegistry",
			"outputs": [
				{
					"internalType": "address",
					"name": "",
					"type": "address"
				}
			],
			"stateMutability": "view",
			"type": "function"
		},
		{
			"inputs": [
				{
					"internalType": "address",
					"name": "userAddress",
					"type": "address"
				}
			],
			"name": "isFrozen",
			"outputs": [
				{
					"internalType": "bool",
					"name": "",
					"type": "bool"
				}
			],
			"stateMutability": "view",
			"type": "function"
		},
		{
			"inputs": [],
			"name": "lastDistributionTimestamp",
			"outputs": [
				{
					"internalType": "uint256",
					"name": "",
					"type": "uint256"
				}
			],
			"stateMutability": "view",
			"type": "function"
		},
		{
			"inputs": [],
			"name": "mintedAmount",
			"outputs": [
				{
					"internalType": "uint256",
					"name": "",
					"type": "uint256"
				}
			],
			"stateMutability": "view",
			"type": "function"
		},
		{
			"inputs": [],
			"name": "name",
			"outputs": [
				{
					"internalType": "string",
					"name": "",
					"type": "string"
				}
			],
			"stateMutability": "view",
			"type": "function"
		},
		{
			"inputs": [],
			"name": "newProposedName",
			"outputs": [
				{
					"internalType": "string",
					"name": "",
					"type": "string"
				}
			],
			"stateMutability": "view",
			"type": "function"
		},
		{
			"inputs": [],
			"name": "onchainID",
			"outputs": [
				{
					"internalType": "address",
					"name": "",
					"type": "address"
				}
			],
			"stateMutability": "view",
			"type": "function"
		},
		{
			"inputs": [],
			"name": "owner",
			"outputs": [
				{
					"internalType": "address",
					"name": "",
					"type": "address"
				}
			],
			"stateMutability": "view",
			"type": "function"
		},
		{
			"inputs": [],
			"name": "pauseContract",
			"outputs": [],
			"stateMutability": "nonpayable",
			"type": "function"
		},
		{
			"inputs": [],
			"name": "pauseVoting",
			"outputs": [],
			"stateMutability": "nonpayable",
			"type": "function"
		},
		{
			"inputs": [],
			"name": "paused",
			"outputs": [
				{
					"internalType": "bool",
					"name": "",
					"type": "bool"
				}
			],
			"stateMutability": "view",
			"type": "function"
		},
		{
			"inputs": [],
			"name": "proposalActive",
			"outputs": [
				{
					"internalType": "bool",
					"name": "",
					"type": "bool"
				}
			],
			"stateMutability": "view",
			"type": "function"
		},
		{
			"inputs": [],
			"name": "proposalInitiator",
			"outputs": [
				{
					"internalType": "address",
					"name": "",
					"type": "address"
				}
			],
			"stateMutability": "view",
			"type": "function"
		},
		{
			"inputs": [],
			"name": "proposalType",
			"outputs": [
				{
					"internalType": "string",
					"name": "",
					"type": "string"
				}
			],
			"stateMutability": "view",
			"type": "function"
		},
		{
			"inputs": [
				{
					"internalType": "address",
					"name": "member",
					"type": "address"
				}
			],
			"name": "proposeAddToWhitelist",
			"outputs": [],
			"stateMutability": "nonpayable",
			"type": "function"
		},
		{
			"inputs": [
				{
					"internalType": "int64",
					"name": "amount",
					"type": "int64"
				}
			],
			"name": "proposeAdjustTotalSupply",
			"outputs": [],
			"stateMutability": "nonpayable",
			"type": "function"
		},
		{
			"inputs": [
				{
					"internalType": "address",
					"name": "user",
					"type": "address"
				}
			],
			"name": "proposeFreezeUser",
			"outputs": [],
			"stateMutability": "nonpayable",
			"type": "function"
		},
		{
			"inputs": [
				{
					"internalType": "address",
					"name": "to",
					"type": "address"
				},
				{
					"internalType": "uint256",
					"name": "amount",
					"type": "uint256"
				}
			],
			"name": "proposeMint",
			"outputs": [],
			"stateMutability": "nonpayable",
			"type": "function"
		},
		{
			"inputs": [
				{
					"internalType": "string",
					"name": "newName",
					"type": "string"
				}
			],
			"name": "proposeNewName",
			"outputs": [],
			"stateMutability": "nonpayable",
			"type": "function"
		},
		{
			"inputs": [
				{
					"internalType": "address[]",
					"name": "_oldVoters",
					"type": "address[]"
				},
				{
					"internalType": "address[]",
					"name": "_newVoters",
					"type": "address[]"
				}
			],
			"name": "proposeNewVoters",
			"outputs": [],
			"stateMutability": "nonpayable",
			"type": "function"
		},
		{
			"inputs": [
				{
					"internalType": "address",
					"name": "member",
					"type": "address"
				}
			],
			"name": "proposeRemoveFromWhitelist",
			"outputs": [],
			"stateMutability": "nonpayable",
			"type": "function"
		},
		{
			"inputs": [
				{
					"internalType": "address",
					"name": "user",
					"type": "address"
				}
			],
			"name": "proposeUnfreezeUser",
			"outputs": [],
			"stateMutability": "nonpayable",
			"type": "function"
		},
		{
			"inputs": [],
			"name": "proposedAdjustmentAmount",
			"outputs": [
				{
					"internalType": "int64",
					"name": "",
					"type": "int64"
				}
			],
			"stateMutability": "view",
			"type": "function"
		},
		{
			"inputs": [],
			"name": "proposedFreezeAction",
			"outputs": [
				{
					"internalType": "string",
					"name": "",
					"type": "string"
				}
			],
			"stateMutability": "view",
			"type": "function"
		},
		{
			"inputs": [],
			"name": "proposedFreezeUser",
			"outputs": [
				{
					"internalType": "address",
					"name": "",
					"type": "address"
				}
			],
			"stateMutability": "view",
			"type": "function"
		},
		{
			"inputs": [],
			"name": "proposedMintAmount",
			"outputs": [
				{
					"internalType": "uint256",
					"name": "",
					"type": "uint256"
				}
			],
			"stateMutability": "view",
			"type": "function"
		},
		{
			"inputs": [],
			"name": "proposedMintRecipient",
			"outputs": [
				{
					"internalType": "address",
					"name": "",
					"type": "address"
				}
			],
			"stateMutability": "view",
			"type": "function"
		},
		{
			"inputs": [
				{
					"internalType": "uint256",
					"name": "",
					"type": "uint256"
				}
			],
			"name": "proposedNewVoters",
			"outputs": [
				{
					"internalType": "address",
					"name": "",
					"type": "address"
				}
			],
			"stateMutability": "view",
			"type": "function"
		},
		{
			"inputs": [
				{
					"internalType": "uint256",
					"name": "",
					"type": "uint256"
				}
			],
			"name": "proposedOldVoters",
			"outputs": [
				{
					"internalType": "address",
					"name": "",
					"type": "address"
				}
			],
			"stateMutability": "view",
			"type": "function"
		},
		{
			"inputs": [],
			"name": "proposedWhitelistAction",
			"outputs": [
				{
					"internalType": "string",
					"name": "",
					"type": "string"
				}
			],
			"stateMutability": "view",
			"type": "function"
		},
		{
			"inputs": [],
			"name": "proposedWhitelistMember",
			"outputs": [
				{
					"internalType": "address",
					"name": "",
					"type": "address"
				}
			],
			"stateMutability": "view",
			"type": "function"
		},
		{
			"inputs": [],
			"name": "remainingSupply",
			"outputs": [
				{
					"internalType": "uint256",
					"name": "",
					"type": "uint256"
				}
			],
			"stateMutability": "view",
			"type": "function"
		},
		{
			"inputs": [],
			"name": "renounceOwnership",
			"outputs": [],
			"stateMutability": "nonpayable",
			"type": "function"
		},
		{
			"inputs": [],
			"name": "resumeContract",
			"outputs": [],
			"stateMutability": "nonpayable",
			"type": "function"
		},
		{
			"inputs": [],
			"name": "resumeVoting",
			"outputs": [],
			"stateMutability": "nonpayable",
			"type": "function"
		},
		{
			"inputs": [],
			"name": "symbol",
			"outputs": [
				{
					"internalType": "string",
					"name": "",
					"type": "string"
				}
			],
			"stateMutability": "view",
			"type": "function"
		},
		{
			"inputs": [],
			"name": "tokenName",
			"outputs": [
				{
					"internalType": "string",
					"name": "",
					"type": "string"
				}
			],
			"stateMutability": "view",
			"type": "function"
		},
		{
			"inputs": [],
			"name": "totalSupply",
			"outputs": [
				{
					"internalType": "uint256",
					"name": "",
					"type": "uint256"
				}
			],
			"stateMutability": "view",
			"type": "function"
		},
		{
			"inputs": [],
			"name": "totalSupplyAdjustmentTimestamp",
			"outputs": [
				{
					"internalType": "uint256",
					"name": "",
					"type": "uint256"
				}
			],
			"stateMutability": "view",
			"type": "function"
		},
		{
			"inputs": [
				{
					"internalType": "address",
					"name": "to",
					"type": "address"
				},
				{
					"internalType": "uint256",
					"name": "amount",
					"type": "uint256"
				}
			],
			"name": "transfer",
			"outputs": [
				{
					"internalType": "bool",
					"name": "",
					"type": "bool"
				}
			],
			"stateMutability": "nonpayable",
			"type": "function"
		},
		{
			"inputs": [
				{
					"internalType": "address",
					"name": "sender",
					"type": "address"
				},
				{
					"internalType": "address",
					"name": "recipient",
					"type": "address"
				},
				{
					"internalType": "uint256",
					"name": "amount",
					"type": "uint256"
				}
			],
			"name": "transferFrom",
			"outputs": [
				{
					"internalType": "bool",
					"name": "",
					"type": "bool"
				}
			],
			"stateMutability": "nonpayable",
			"type": "function"
		},
		{
			"inputs": [
				{
					"internalType": "address",
					"name": "newOwner",
					"type": "address"
				}
			],
			"name": "transferOwnership",
			"outputs": [],
			"stateMutability": "nonpayable",
			"type": "function"
		},
		{
			"inputs": [],
			"name": "uniswapPool",
			"outputs": [
				{
					"internalType": "address",
					"name": "",
					"type": "address"
				}
			],
			"stateMutability": "view",
			"type": "function"
		},
		{
			"inputs": [],
			"name": "version",
			"outputs": [
				{
					"internalType": "string",
					"name": "",
					"type": "string"
				}
			],
			"stateMutability": "view",
			"type": "function"
		},
		{
			"inputs": [],
			"name": "vote",
			"outputs": [],
			"stateMutability": "nonpayable",
			"type": "function"
		},
		{
			"inputs": [],
			"name": "voteCount",
			"outputs": [
				{
					"internalType": "uint256",
					"name": "",
					"type": "uint256"
				}
			],
			"stateMutability": "view",
			"type": "function"
		},
		{
			"inputs": [
				{
					"internalType": "uint256",
					"name": "",
					"type": "uint256"
				}
			],
			"name": "voters",
			"outputs": [
				{
					"internalType": "address",
					"name": "",
					"type": "address"
				}
			],
			"stateMutability": "view",
			"type": "function"
		},
		{
			"inputs": [],
			"name": "votersChangeTimestamp",
			"outputs": [
				{
					"internalType": "uint256",
					"name": "",
					"type": "uint256"
				}
			],
			"stateMutability": "view",
			"type": "function"
		},
		{
			"inputs": [],
			"name": "votingPaused",
			"outputs": [
				{
					"internalType": "bool",
					"name": "",
					"type": "bool"
				}
			],
			"stateMutability": "view",
			"type": "function"
		},
		{
			"inputs": [
				{
					"internalType": "address",
					"name": "",
					"type": "address"
				}
			],
			"name": "whitelist",
			"outputs": [
				{
					"internalType": "bool",
					"name": "",
					"type": "bool"
				}
			],
			"stateMutability": "view",
			"type": "function"
		},
		{
			"inputs": [
				{
					"internalType": "uint256",
					"name": "",
					"type": "uint256"
				}
			],
			"name": "whitelistMembers",
			"outputs": [
				{
					"internalType": "address",
					"name": "",
					"type": "address"
				}
			],
			"stateMutability": "view",
			"type": "function"
		}
	]
}