{
	"contracts/CCK/Token/PriceOracle.sol": {
		"PriceOracle": {
			"abi": [
				{
					"inputs": [
						{
							"internalType": "address",
							"name": "_uniswapPool",
							"type": "address"
						}
					],
					"stateMutability": "nonpayable",
					"type": "constructor"
				},
				{
					"inputs": [],
					"name": "getCurrentPrice",
					"outputs": [
						{
							"internalType": "uint256",
							"name": "",
							"type": "uint256"
						}
					],
					"stateMutability": "view",
					"type": "function"
				},
				{
					"inputs": [],
					"name": "uniswapPool",
					"outputs": [
						{
							"internalType": "address",
							"name": "",
							"type": "address"
						}
					],
					"stateMutability": "view",
					"type": "function"
				}
			],
			"devdoc": {
				"details": "A contract for retrieving the current price from a Uniswap V3 pool.",
				"kind": "dev",
				"methods": {
					"constructor": {
						"details": "Constructor to set the Uniswap V3 pool address.",
						"params": {
							"_uniswapPool": "Address of the Uniswap V3 pool to be used for price retrieval."
						}
					},
					"getCurrentPrice()": {
						"details": "Retrieves the current price from the Uniswap V3 pool.",
						"returns": {
							"_0": "uint256 The current price calculated from the pool's sqrtPriceX96."
						}
					}
				},
				"title": "PriceOracle",
				"version": 1
			},
			"evm": {
				"assembly": "    /* \"contracts/CCK/Token/PriceOracle.sol\":240:1062  contract PriceOracle {... */\n  mstore(0x40, 0x80)\n    /* \"contracts/CCK/Token/PriceOracle.sol\":507:586  constructor(address _uniswapPool) {... */\n  callvalue\n  dup1\n  iszero\n  tag_1\n  jumpi\n  revert(0x00, 0x00)\ntag_1:\n  pop\n  mload(0x40)\n  sub(codesize, bytecodeSize)\n  dup1\n  bytecodeSize\n  dup4\n  codecopy\n  dup2\n  dup2\n  add\n  0x40\n  mstore\n  dup2\n  add\n  swap1\n  tag_2\n  swap2\n  swap1\n  tag_3\n  jump\t// in\ntag_2:\n    /* \"contracts/CCK/Token/PriceOracle.sol\":566:578  _uniswapPool */\n  dup1\n    /* \"contracts/CCK/Token/PriceOracle.sol\":552:563  uniswapPool */\n  0x00\n  0x00\n    /* \"contracts/CCK/Token/PriceOracle.sol\":552:578  uniswapPool = _uniswapPool */\n  0x0100\n  exp\n  dup2\n  sload\n  dup2\n  0xffffffffffffffffffffffffffffffffffffffff\n  mul\n  not\n  and\n  swap1\n  dup4\n  0xffffffffffffffffffffffffffffffffffffffff\n  and\n  mul\n  or\n  swap1\n  sstore\n  pop\n    /* \"contracts/CCK/Token/PriceOracle.sol\":507:586  constructor(address _uniswapPool) {... */\n  pop\n    /* \"contracts/CCK/Token/PriceOracle.sol\":240:1062  contract PriceOracle {... */\n  jump(tag_6)\n    /* \"#utility.yul\":88:205   */\ntag_8:\n    /* \"#utility.yul\":197:198   */\n  0x00\n    /* \"#utility.yul\":194:195   */\n  0x00\n    /* \"#utility.yul\":187:199   */\n  revert\n    /* \"#utility.yul\":334:460   */\ntag_10:\n    /* \"#utility.yul\":371:378   */\n  0x00\n    /* \"#utility.yul\":411:453   */\n  0xffffffffffffffffffffffffffffffffffffffff\n    /* \"#utility.yul\":404:409   */\n  dup3\n    /* \"#utility.yul\":400:454   */\n  and\n    /* \"#utility.yul\":389:454   */\n  swap1\n  pop\n    /* \"#utility.yul\":334:460   */\n  swap2\n  swap1\n  pop\n  jump\t// out\n    /* \"#utility.yul\":466:562   */\ntag_11:\n    /* \"#utility.yul\":503:510   */\n  0x00\n    /* \"#utility.yul\":532:556   */\n  tag_20\n    /* \"#utility.yul\":550:555   */\n  dup3\n    /* \"#utility.yul\":532:556   */\n  tag_10\n  jump\t// in\ntag_20:\n    /* \"#utility.yul\":521:556   */\n  swap1\n  pop\n    /* \"#utility.yul\":466:562   */\n  swap2\n  swap1\n  pop\n  jump\t// out\n    /* \"#utility.yul\":568:690   */\ntag_12:\n    /* \"#utility.yul\":641:665   */\n  tag_22\n    /* \"#utility.yul\":659:664   */\n  dup2\n    /* \"#utility.yul\":641:665   */\n  tag_11\n  jump\t// in\ntag_22:\n    /* \"#utility.yul\":634:639   */\n  dup2\n    /* \"#utility.yul\":631:666   */\n  eq\n    /* \"#utility.yul\":621:684   */\n  tag_23\n  jumpi\n    /* \"#utility.yul\":680:681   */\n  0x00\n    /* \"#utility.yul\":677:678   */\n  0x00\n    /* \"#utility.yul\":670:682   */\n  revert\n    /* \"#utility.yul\":621:684   */\ntag_23:\n    /* \"#utility.yul\":568:690   */\n  pop\n  jump\t// out\n    /* \"#utility.yul\":696:839   */\ntag_13:\n    /* \"#utility.yul\":753:758   */\n  0x00\n    /* \"#utility.yul\":784:790   */\n  dup2\n    /* \"#utility.yul\":778:791   */\n  mload\n    /* \"#utility.yul\":769:791   */\n  swap1\n  pop\n    /* \"#utility.yul\":800:833   */\n  tag_25\n    /* \"#utility.yul\":827:832   */\n  dup2\n    /* \"#utility.yul\":800:833   */\n  tag_12\n  jump\t// in\ntag_25:\n    /* \"#utility.yul\":696:839   */\n  swap3\n  swap2\n  pop\n  pop\n  jump\t// out\n    /* \"#utility.yul\":845:1196   */\ntag_3:\n    /* \"#utility.yul\":915:921   */\n  0x00\n    /* \"#utility.yul\":964:966   */\n  0x20\n    /* \"#utility.yul\":952:961   */\n  dup3\n    /* \"#utility.yul\":943:950   */\n  dup5\n    /* \"#utility.yul\":939:962   */\n  sub\n    /* \"#utility.yul\":935:967   */\n  slt\n    /* \"#utility.yul\":932:1051   */\n  iszero\n  tag_27\n  jumpi\n    /* \"#utility.yul\":970:1049   */\n  tag_28\n  tag_8\n  jump\t// in\ntag_28:\n    /* \"#utility.yul\":932:1051   */\ntag_27:\n    /* \"#utility.yul\":1090:1091   */\n  0x00\n    /* \"#utility.yul\":1115:1179   */\n  tag_29\n    /* \"#utility.yul\":1171:1178   */\n  dup5\n    /* \"#utility.yul\":1162:1168   */\n  dup3\n    /* \"#utility.yul\":1151:1160   */\n  dup6\n    /* \"#utility.yul\":1147:1169   */\n  add\n    /* \"#utility.yul\":1115:1179   */\n  tag_13\n  jump\t// in\ntag_29:\n    /* \"#utility.yul\":1105:1179   */\n  swap2\n  pop\n    /* \"#utility.yul\":1061:1189   */\n  pop\n    /* \"#utility.yul\":845:1196   */\n  swap3\n  swap2\n  pop\n  pop\n  jump\t// out\n    /* \"contracts/CCK/Token/PriceOracle.sol\":240:1062  contract PriceOracle {... */\ntag_6:\n  dataSize(sub_0)\n  dup1\n  dataOffset(sub_0)\n  0x00\n  codecopy\n  0x00\n  return\nstop\n\nsub_0: assembly {\n        /* \"contracts/CCK/Token/PriceOracle.sol\":240:1062  contract PriceOracle {... */\n      mstore(0x40, 0x80)\n      callvalue\n      dup1\n      iszero\n      tag_1\n      jumpi\n      revert(0x00, 0x00)\n    tag_1:\n      pop\n      jumpi(tag_2, lt(calldatasize, 0x04))\n      shr(0xe0, calldataload(0x00))\n      dup1\n      0xbdd3d825\n      eq\n      tag_3\n      jumpi\n      dup1\n      0xeb91d37e\n      eq\n      tag_4\n      jumpi\n    tag_2:\n      revert(0x00, 0x00)\n        /* \"contracts/CCK/Token/PriceOracle.sol\":268:294  address public uniswapPool */\n    tag_3:\n      tag_5\n      tag_6\n      jump\t// in\n    tag_5:\n      mload(0x40)\n      tag_7\n      swap2\n      swap1\n      tag_8\n      jump\t// in\n    tag_7:\n      mload(0x40)\n      dup1\n      swap2\n      sub\n      swap1\n      return\n        /* \"contracts/CCK/Token/PriceOracle.sol\":762:1059  function getCurrentPrice() external view returns (uint256) {... */\n    tag_4:\n      tag_9\n      tag_10\n      jump\t// in\n    tag_9:\n      mload(0x40)\n      tag_11\n      swap2\n      swap1\n      tag_12\n      jump\t// in\n    tag_11:\n      mload(0x40)\n      dup1\n      swap2\n      sub\n      swap1\n      return\n        /* \"contracts/CCK/Token/PriceOracle.sol\":268:294  address public uniswapPool */\n    tag_6:\n      0x00\n      0x00\n      swap1\n      sload\n      swap1\n      0x0100\n      exp\n      swap1\n      div\n      0xffffffffffffffffffffffffffffffffffffffff\n      and\n      dup2\n      jump\t// out\n        /* \"contracts/CCK/Token/PriceOracle.sol\":762:1059  function getCurrentPrice() external view returns (uint256) {... */\n    tag_10:\n        /* \"contracts/CCK/Token/PriceOracle.sol\":812:819  uint256 */\n      0x00\n        /* \"contracts/CCK/Token/PriceOracle.sol\":832:851  IUniswapV3Pool pool */\n      0x00\n        /* \"contracts/CCK/Token/PriceOracle.sol\":869:880  uniswapPool */\n      0x00\n      0x00\n      swap1\n      sload\n      swap1\n      0x0100\n      exp\n      swap1\n      div\n      0xffffffffffffffffffffffffffffffffffffffff\n      and\n        /* \"contracts/CCK/Token/PriceOracle.sol\":832:881  IUniswapV3Pool pool = IUniswapV3Pool(uniswapPool) */\n      swap1\n      pop\n        /* \"contracts/CCK/Token/PriceOracle.sol\":893:913  uint160 sqrtPriceX96 */\n      0x00\n        /* \"contracts/CCK/Token/PriceOracle.sol\":929:933  pool */\n      dup2\n        /* \"contracts/CCK/Token/PriceOracle.sol\":929:939  pool.slot0 */\n      0xffffffffffffffffffffffffffffffffffffffff\n      and\n      0x3850c7bd\n        /* \"contracts/CCK/Token/PriceOracle.sol\":929:941  pool.slot0() */\n      mload(0x40)\n      dup2\n      0xffffffff\n      and\n      0xe0\n      shl\n      dup2\n      mstore\n      0x04\n      add\n      0xe0\n      mload(0x40)\n      dup1\n      dup4\n      sub\n      dup2\n      dup7\n      gas\n      staticcall\n      iszero\n      dup1\n      iszero\n      tag_15\n      jumpi\n      returndatacopy(0x00, 0x00, returndatasize)\n      revert(0x00, returndatasize)\n    tag_15:\n      pop\n      pop\n      pop\n      pop\n      mload(0x40)\n      returndatasize\n      not(0x1f)\n      0x1f\n      dup3\n      add\n      and\n      dup3\n      add\n      dup1\n      0x40\n      mstore\n      pop\n      dup2\n      add\n      swap1\n      tag_16\n      swap2\n      swap1\n      tag_17\n      jump\t// in\n    tag_16:\n        /* \"contracts/CCK/Token/PriceOracle.sol\":892:941  (uint160 sqrtPriceX96, , , , , , ) = pool.slot0() */\n      pop\n      pop\n      pop\n      pop\n      pop\n      pop\n      swap1\n      pop\n        /* \"contracts/CCK/Token/PriceOracle.sol\":952:965  uint256 price */\n      0x00\n        /* \"contracts/CCK/Token/PriceOracle.sol\":998:1006  2 ** 192 */\n      0x01000000000000000000000000000000000000000000000000\n        /* \"contracts/CCK/Token/PriceOracle.sol\":993:994  2 */\n      0x02\n        /* \"contracts/CCK/Token/PriceOracle.sol\":976:988  sqrtPriceX96 */\n      dup4\n        /* \"contracts/CCK/Token/PriceOracle.sol\":968:989  uint256(sqrtPriceX96) */\n      0xffffffffffffffffffffffffffffffffffffffff\n      and\n        /* \"contracts/CCK/Token/PriceOracle.sol\":968:994  uint256(sqrtPriceX96) ** 2 */\n      tag_18\n      swap2\n      swap1\n      tag_19\n      jump\t// in\n    tag_18:\n        /* \"contracts/CCK/Token/PriceOracle.sol\":968:1007  uint256(sqrtPriceX96) ** 2 / (2 ** 192) */\n      tag_20\n      swap2\n      swap1\n      tag_21\n      jump\t// in\n    tag_20:\n        /* \"contracts/CCK/Token/PriceOracle.sol\":952:1007  uint256 price = uint256(sqrtPriceX96) ** 2 / (2 ** 192) */\n      swap1\n      pop\n        /* \"contracts/CCK/Token/PriceOracle.sol\":1046:1051  price */\n      dup1\n        /* \"contracts/CCK/Token/PriceOracle.sol\":1039:1051  return price */\n      swap4\n      pop\n      pop\n      pop\n      pop\n        /* \"contracts/CCK/Token/PriceOracle.sol\":762:1059  function getCurrentPrice() external view returns (uint256) {... */\n      swap1\n      jump\t// out\n        /* \"#utility.yul\":7:133   */\n    tag_22:\n        /* \"#utility.yul\":44:51   */\n      0x00\n        /* \"#utility.yul\":84:126   */\n      0xffffffffffffffffffffffffffffffffffffffff\n        /* \"#utility.yul\":77:82   */\n      dup3\n        /* \"#utility.yul\":73:127   */\n      and\n        /* \"#utility.yul\":62:127   */\n      swap1\n      pop\n        /* \"#utility.yul\":7:133   */\n      swap2\n      swap1\n      pop\n      jump\t// out\n        /* \"#utility.yul\":139:235   */\n    tag_23:\n        /* \"#utility.yul\":176:183   */\n      0x00\n        /* \"#utility.yul\":205:229   */\n      tag_52\n        /* \"#utility.yul\":223:228   */\n      dup3\n        /* \"#utility.yul\":205:229   */\n      tag_22\n      jump\t// in\n    tag_52:\n        /* \"#utility.yul\":194:229   */\n      swap1\n      pop\n        /* \"#utility.yul\":139:235   */\n      swap2\n      swap1\n      pop\n      jump\t// out\n        /* \"#utility.yul\":241:359   */\n    tag_24:\n        /* \"#utility.yul\":328:352   */\n      tag_54\n        /* \"#utility.yul\":346:351   */\n      dup2\n        /* \"#utility.yul\":328:352   */\n      tag_23\n      jump\t// in\n    tag_54:\n        /* \"#utility.yul\":323:326   */\n      dup3\n        /* \"#utility.yul\":316:353   */\n      mstore\n        /* \"#utility.yul\":241:359   */\n      pop\n      pop\n      jump\t// out\n        /* \"#utility.yul\":365:587   */\n    tag_8:\n        /* \"#utility.yul\":458:462   */\n      0x00\n        /* \"#utility.yul\":496:498   */\n      0x20\n        /* \"#utility.yul\":485:494   */\n      dup3\n        /* \"#utility.yul\":481:499   */\n      add\n        /* \"#utility.yul\":473:499   */\n      swap1\n      pop\n        /* \"#utility.yul\":509:580   */\n      tag_56\n        /* \"#utility.yul\":577:578   */\n      0x00\n        /* \"#utility.yul\":566:575   */\n      dup4\n        /* \"#utility.yul\":562:579   */\n      add\n        /* \"#utility.yul\":553:559   */\n      dup5\n        /* \"#utility.yul\":509:580   */\n      tag_24\n      jump\t// in\n    tag_56:\n        /* \"#utility.yul\":365:587   */\n      swap3\n      swap2\n      pop\n      pop\n      jump\t// out\n        /* \"#utility.yul\":593:670   */\n    tag_25:\n        /* \"#utility.yul\":630:637   */\n      0x00\n        /* \"#utility.yul\":659:664   */\n      dup2\n        /* \"#utility.yul\":648:664   */\n      swap1\n      pop\n        /* \"#utility.yul\":593:670   */\n      swap2\n      swap1\n      pop\n      jump\t// out\n        /* \"#utility.yul\":676:794   */\n    tag_26:\n        /* \"#utility.yul\":763:787   */\n      tag_59\n        /* \"#utility.yul\":781:786   */\n      dup2\n        /* \"#utility.yul\":763:787   */\n      tag_25\n      jump\t// in\n    tag_59:\n        /* \"#utility.yul\":758:761   */\n      dup3\n        /* \"#utility.yul\":751:788   */\n      mstore\n        /* \"#utility.yul\":676:794   */\n      pop\n      pop\n      jump\t// out\n        /* \"#utility.yul\":800:1022   */\n    tag_12:\n        /* \"#utility.yul\":893:897   */\n      0x00\n        /* \"#utility.yul\":931:933   */\n      0x20\n        /* \"#utility.yul\":920:929   */\n      dup3\n        /* \"#utility.yul\":916:934   */\n      add\n        /* \"#utility.yul\":908:934   */\n      swap1\n      pop\n        /* \"#utility.yul\":944:1015   */\n      tag_61\n        /* \"#utility.yul\":1012:1013   */\n      0x00\n        /* \"#utility.yul\":1001:1010   */\n      dup4\n        /* \"#utility.yul\":997:1014   */\n      add\n        /* \"#utility.yul\":988:994   */\n      dup5\n        /* \"#utility.yul\":944:1015   */\n      tag_26\n      jump\t// in\n    tag_61:\n        /* \"#utility.yul\":800:1022   */\n      swap3\n      swap2\n      pop\n      pop\n      jump\t// out\n        /* \"#utility.yul\":1109:1226   */\n    tag_28:\n        /* \"#utility.yul\":1218:1219   */\n      0x00\n        /* \"#utility.yul\":1215:1216   */\n      0x00\n        /* \"#utility.yul\":1208:1220   */\n      revert\n        /* \"#utility.yul\":1355:1477   */\n    tag_30:\n        /* \"#utility.yul\":1428:1452   */\n      tag_66\n        /* \"#utility.yul\":1446:1451   */\n      dup2\n        /* \"#utility.yul\":1428:1452   */\n      tag_22\n      jump\t// in\n    tag_66:\n        /* \"#utility.yul\":1421:1426   */\n      dup2\n        /* \"#utility.yul\":1418:1453   */\n      eq\n        /* \"#utility.yul\":1408:1471   */\n      tag_67\n      jumpi\n        /* \"#utility.yul\":1467:1468   */\n      0x00\n        /* \"#utility.yul\":1464:1465   */\n      0x00\n        /* \"#utility.yul\":1457:1469   */\n      revert\n        /* \"#utility.yul\":1408:1471   */\n    tag_67:\n        /* \"#utility.yul\":1355:1477   */\n      pop\n      jump\t// out\n        /* \"#utility.yul\":1483:1626   */\n    tag_31:\n        /* \"#utility.yul\":1540:1545   */\n      0x00\n        /* \"#utility.yul\":1571:1577   */\n      dup2\n        /* \"#utility.yul\":1565:1578   */\n      mload\n        /* \"#utility.yul\":1556:1578   */\n      swap1\n      pop\n        /* \"#utility.yul\":1587:1620   */\n      tag_69\n        /* \"#utility.yul\":1614:1619   */\n      dup2\n        /* \"#utility.yul\":1587:1620   */\n      tag_30\n      jump\t// in\n    tag_69:\n        /* \"#utility.yul\":1483:1626   */\n      swap3\n      swap2\n      pop\n      pop\n      jump\t// out\n        /* \"#utility.yul\":1632:1722   */\n    tag_32:\n        /* \"#utility.yul\":1667:1674   */\n      0x00\n        /* \"#utility.yul\":1710:1715   */\n      dup2\n        /* \"#utility.yul\":1707:1708   */\n      0x02\n        /* \"#utility.yul\":1696:1716   */\n      signextend\n        /* \"#utility.yul\":1685:1716   */\n      swap1\n      pop\n        /* \"#utility.yul\":1632:1722   */\n      swap2\n      swap1\n      pop\n      jump\t// out\n        /* \"#utility.yul\":1728:1846   */\n    tag_33:\n        /* \"#utility.yul\":1799:1821   */\n      tag_72\n        /* \"#utility.yul\":1815:1820   */\n      dup2\n        /* \"#utility.yul\":1799:1821   */\n      tag_32\n      jump\t// in\n    tag_72:\n        /* \"#utility.yul\":1792:1797   */\n      dup2\n        /* \"#utility.yul\":1789:1822   */\n      eq\n        /* \"#utility.yul\":1779:1840   */\n      tag_73\n      jumpi\n        /* \"#utility.yul\":1836:1837   */\n      0x00\n        /* \"#utility.yul\":1833:1834   */\n      0x00\n        /* \"#utility.yul\":1826:1838   */\n      revert\n        /* \"#utility.yul\":1779:1840   */\n    tag_73:\n        /* \"#utility.yul\":1728:1846   */\n      pop\n      jump\t// out\n        /* \"#utility.yul\":1852:1991   */\n    tag_34:\n        /* \"#utility.yul\":1907:1912   */\n      0x00\n        /* \"#utility.yul\":1938:1944   */\n      dup2\n        /* \"#utility.yul\":1932:1945   */\n      mload\n        /* \"#utility.yul\":1923:1945   */\n      swap1\n      pop\n        /* \"#utility.yul\":1954:1985   */\n      tag_75\n        /* \"#utility.yul\":1979:1984   */\n      dup2\n        /* \"#utility.yul\":1954:1985   */\n      tag_33\n      jump\t// in\n    tag_75:\n        /* \"#utility.yul\":1852:1991   */\n      swap3\n      swap2\n      pop\n      pop\n      jump\t// out\n        /* \"#utility.yul\":1997:2086   */\n    tag_35:\n        /* \"#utility.yul\":2033:2040   */\n      0x00\n        /* \"#utility.yul\":2073:2079   */\n      0xffff\n        /* \"#utility.yul\":2066:2071   */\n      dup3\n        /* \"#utility.yul\":2062:2080   */\n      and\n        /* \"#utility.yul\":2051:2080   */\n      swap1\n      pop\n        /* \"#utility.yul\":1997:2086   */\n      swap2\n      swap1\n      pop\n      jump\t// out\n        /* \"#utility.yul\":2092:2212   */\n    tag_36:\n        /* \"#utility.yul\":2164:2187   */\n      tag_78\n        /* \"#utility.yul\":2181:2186   */\n      dup2\n        /* \"#utility.yul\":2164:2187   */\n      tag_35\n      jump\t// in\n    tag_78:\n        /* \"#utility.yul\":2157:2162   */\n      dup2\n        /* \"#utility.yul\":2154:2188   */\n      eq\n        /* \"#utility.yul\":2144:2206   */\n      tag_79\n      jumpi\n        /* \"#utility.yul\":2202:2203   */\n      0x00\n        /* \"#utility.yul\":2199:2200   */\n      0x00\n        /* \"#utility.yul\":2192:2204   */\n      revert\n        /* \"#utility.yul\":2144:2206   */\n    tag_79:\n        /* \"#utility.yul\":2092:2212   */\n      pop\n      jump\t// out\n        /* \"#utility.yul\":2218:2359   */\n    tag_37:\n        /* \"#utility.yul\":2274:2279   */\n      0x00\n        /* \"#utility.yul\":2305:2311   */\n      dup2\n        /* \"#utility.yul\":2299:2312   */\n      mload\n        /* \"#utility.yul\":2290:2312   */\n      swap1\n      pop\n        /* \"#utility.yul\":2321:2353   */\n      tag_81\n        /* \"#utility.yul\":2347:2352   */\n      dup2\n        /* \"#utility.yul\":2321:2353   */\n      tag_36\n      jump\t// in\n    tag_81:\n        /* \"#utility.yul\":2218:2359   */\n      swap3\n      swap2\n      pop\n      pop\n      jump\t// out\n        /* \"#utility.yul\":2365:2451   */\n    tag_38:\n        /* \"#utility.yul\":2400:2407   */\n      0x00\n        /* \"#utility.yul\":2440:2444   */\n      0xff\n        /* \"#utility.yul\":2433:2438   */\n      dup3\n        /* \"#utility.yul\":2429:2445   */\n      and\n        /* \"#utility.yul\":2418:2445   */\n      swap1\n      pop\n        /* \"#utility.yul\":2365:2451   */\n      swap2\n      swap1\n      pop\n      jump\t// out\n        /* \"#utility.yul\":2457:2575   */\n    tag_39:\n        /* \"#utility.yul\":2528:2550   */\n      tag_84\n        /* \"#utility.yul\":2544:2549   */\n      dup2\n        /* \"#utility.yul\":2528:2550   */\n      tag_38\n      jump\t// in\n    tag_84:\n        /* \"#utility.yul\":2521:2526   */\n      dup2\n        /* \"#utility.yul\":2518:2551   */\n      eq\n        /* \"#utility.yul\":2508:2569   */\n      tag_85\n      jumpi\n        /* \"#utility.yul\":2565:2566   */\n      0x00\n        /* \"#utility.yul\":2562:2563   */\n      0x00\n        /* \"#utility.yul\":2555:2567   */\n      revert\n        /* \"#utility.yul\":2508:2569   */\n    tag_85:\n        /* \"#utility.yul\":2457:2575   */\n      pop\n      jump\t// out\n        /* \"#utility.yul\":2581:2720   */\n    tag_40:\n        /* \"#utility.yul\":2636:2641   */\n      0x00\n        /* \"#utility.yul\":2667:2673   */\n      dup2\n        /* \"#utility.yul\":2661:2674   */\n      mload\n        /* \"#utility.yul\":2652:2674   */\n      swap1\n      pop\n        /* \"#utility.yul\":2683:2714   */\n      tag_87\n        /* \"#utility.yul\":2708:2713   */\n      dup2\n        /* \"#utility.yul\":2683:2714   */\n      tag_39\n      jump\t// in\n    tag_87:\n        /* \"#utility.yul\":2581:2720   */\n      swap3\n      swap2\n      pop\n      pop\n      jump\t// out\n        /* \"#utility.yul\":2726:2816   */\n    tag_41:\n        /* \"#utility.yul\":2760:2767   */\n      0x00\n        /* \"#utility.yul\":2803:2808   */\n      dup2\n        /* \"#utility.yul\":2796:2809   */\n      iszero\n        /* \"#utility.yul\":2789:2810   */\n      iszero\n        /* \"#utility.yul\":2778:2810   */\n      swap1\n      pop\n        /* \"#utility.yul\":2726:2816   */\n      swap2\n      swap1\n      pop\n      jump\t// out\n        /* \"#utility.yul\":2822:2938   */\n    tag_42:\n        /* \"#utility.yul\":2892:2913   */\n      tag_90\n        /* \"#utility.yul\":2907:2912   */\n      dup2\n        /* \"#utility.yul\":2892:2913   */\n      tag_41\n      jump\t// in\n    tag_90:\n        /* \"#utility.yul\":2885:2890   */\n      dup2\n        /* \"#utility.yul\":2882:2914   */\n      eq\n        /* \"#utility.yul\":2872:2932   */\n      tag_91\n      jumpi\n        /* \"#utility.yul\":2928:2929   */\n      0x00\n        /* \"#utility.yul\":2925:2926   */\n      0x00\n        /* \"#utility.yul\":2918:2930   */\n      revert\n        /* \"#utility.yul\":2872:2932   */\n    tag_91:\n        /* \"#utility.yul\":2822:2938   */\n      pop\n      jump\t// out\n        /* \"#utility.yul\":2944:3081   */\n    tag_43:\n        /* \"#utility.yul\":2998:3003   */\n      0x00\n        /* \"#utility.yul\":3029:3035   */\n      dup2\n        /* \"#utility.yul\":3023:3036   */\n      mload\n        /* \"#utility.yul\":3014:3036   */\n      swap1\n      pop\n        /* \"#utility.yul\":3045:3075   */\n      tag_93\n        /* \"#utility.yul\":3069:3074   */\n      dup2\n        /* \"#utility.yul\":3045:3075   */\n      tag_42\n      jump\t// in\n    tag_93:\n        /* \"#utility.yul\":2944:3081   */\n      swap3\n      swap2\n      pop\n      pop\n      jump\t// out\n        /* \"#utility.yul\":3087:4358   */\n    tag_17:\n        /* \"#utility.yul\":3201:3207   */\n      0x00\n        /* \"#utility.yul\":3209:3215   */\n      0x00\n        /* \"#utility.yul\":3217:3223   */\n      0x00\n        /* \"#utility.yul\":3225:3231   */\n      0x00\n        /* \"#utility.yul\":3233:3239   */\n      0x00\n        /* \"#utility.yul\":3241:3247   */\n      0x00\n        /* \"#utility.yul\":3249:3255   */\n      0x00\n        /* \"#utility.yul\":3298:3301   */\n      0xe0\n        /* \"#utility.yul\":3286:3295   */\n      dup9\n        /* \"#utility.yul\":3277:3284   */\n      dup11\n        /* \"#utility.yul\":3273:3296   */\n      sub\n        /* \"#utility.yul\":3269:3302   */\n      slt\n        /* \"#utility.yul\":3266:3386   */\n      iszero\n      tag_95\n      jumpi\n        /* \"#utility.yul\":3305:3384   */\n      tag_96\n      tag_28\n      jump\t// in\n    tag_96:\n        /* \"#utility.yul\":3266:3386   */\n    tag_95:\n        /* \"#utility.yul\":3425:3426   */\n      0x00\n        /* \"#utility.yul\":3450:3514   */\n      tag_97\n        /* \"#utility.yul\":3506:3513   */\n      dup11\n        /* \"#utility.yul\":3497:3503   */\n      dup3\n        /* \"#utility.yul\":3486:3495   */\n      dup12\n        /* \"#utility.yul\":3482:3504   */\n      add\n        /* \"#utility.yul\":3450:3514   */\n      tag_31\n      jump\t// in\n    tag_97:\n        /* \"#utility.yul\":3440:3514   */\n      swap8\n      pop\n        /* \"#utility.yul\":3396:3524   */\n      pop\n        /* \"#utility.yul\":3563:3565   */\n      0x20\n        /* \"#utility.yul\":3589:3651   */\n      tag_98\n        /* \"#utility.yul\":3643:3650   */\n      dup11\n        /* \"#utility.yul\":3634:3640   */\n      dup3\n        /* \"#utility.yul\":3623:3632   */\n      dup12\n        /* \"#utility.yul\":3619:3641   */\n      add\n        /* \"#utility.yul\":3589:3651   */\n      tag_34\n      jump\t// in\n    tag_98:\n        /* \"#utility.yul\":3579:3651   */\n      swap7\n      pop\n        /* \"#utility.yul\":3534:3661   */\n      pop\n        /* \"#utility.yul\":3700:3702   */\n      0x40\n        /* \"#utility.yul\":3726:3789   */\n      tag_99\n        /* \"#utility.yul\":3781:3788   */\n      dup11\n        /* \"#utility.yul\":3772:3778   */\n      dup3\n        /* \"#utility.yul\":3761:3770   */\n      dup12\n        /* \"#utility.yul\":3757:3779   */\n      add\n        /* \"#utility.yul\":3726:3789   */\n      tag_37\n      jump\t// in\n    tag_99:\n        /* \"#utility.yul\":3716:3789   */\n      swap6\n      pop\n        /* \"#utility.yul\":3671:3799   */\n      pop\n        /* \"#utility.yul\":3838:3840   */\n      0x60\n        /* \"#utility.yul\":3864:3927   */\n      tag_100\n        /* \"#utility.yul\":3919:3926   */\n      dup11\n        /* \"#utility.yul\":3910:3916   */\n      dup3\n        /* \"#utility.yul\":3899:3908   */\n      dup12\n        /* \"#utility.yul\":3895:3917   */\n      add\n        /* \"#utility.yul\":3864:3927   */\n      tag_37\n      jump\t// in\n    tag_100:\n        /* \"#utility.yul\":3854:3927   */\n      swap5\n      pop\n        /* \"#utility.yul\":3809:3937   */\n      pop\n        /* \"#utility.yul\":3976:3979   */\n      0x80\n        /* \"#utility.yul\":4003:4066   */\n      tag_101\n        /* \"#utility.yul\":4058:4065   */\n      dup11\n        /* \"#utility.yul\":4049:4055   */\n      dup3\n        /* \"#utility.yul\":4038:4047   */\n      dup12\n        /* \"#utility.yul\":4034:4056   */\n      add\n        /* \"#utility.yul\":4003:4066   */\n      tag_37\n      jump\t// in\n    tag_101:\n        /* \"#utility.yul\":3993:4066   */\n      swap4\n      pop\n        /* \"#utility.yul\":3947:4076   */\n      pop\n        /* \"#utility.yul\":4115:4118   */\n      0xa0\n        /* \"#utility.yul\":4142:4204   */\n      tag_102\n        /* \"#utility.yul\":4196:4203   */\n      dup11\n        /* \"#utility.yul\":4187:4193   */\n      dup3\n        /* \"#utility.yul\":4176:4185   */\n      dup12\n        /* \"#utility.yul\":4172:4194   */\n      add\n        /* \"#utility.yul\":4142:4204   */\n      tag_40\n      jump\t// in\n    tag_102:\n        /* \"#utility.yul\":4132:4204   */\n      swap3\n      pop\n        /* \"#utility.yul\":4086:4214   */\n      pop\n        /* \"#utility.yul\":4253:4256   */\n      0xc0\n        /* \"#utility.yul\":4280:4341   */\n      tag_103\n        /* \"#utility.yul\":4333:4340   */\n      dup11\n        /* \"#utility.yul\":4324:4330   */\n      dup3\n        /* \"#utility.yul\":4313:4322   */\n      dup12\n        /* \"#utility.yul\":4309:4331   */\n      add\n        /* \"#utility.yul\":4280:4341   */\n      tag_43\n      jump\t// in\n    tag_103:\n        /* \"#utility.yul\":4270:4341   */\n      swap2\n      pop\n        /* \"#utility.yul\":4224:4351   */\n      pop\n        /* \"#utility.yul\":3087:4358   */\n      swap3\n      swap6\n      swap9\n      swap2\n      swap5\n      swap8\n      pop\n      swap3\n      swap6\n      pop\n      jump\t// out\n        /* \"#utility.yul\":4364:4544   */\n    tag_44:\n        /* \"#utility.yul\":4412:4489   */\n      0x4e487b7100000000000000000000000000000000000000000000000000000000\n        /* \"#utility.yul\":4409:4410   */\n      0x00\n        /* \"#utility.yul\":4402:4490   */\n      mstore\n        /* \"#utility.yul\":4509:4513   */\n      0x11\n        /* \"#utility.yul\":4506:4507   */\n      0x04\n        /* \"#utility.yul\":4499:4514   */\n      mstore\n        /* \"#utility.yul\":4533:4537   */\n      0x24\n        /* \"#utility.yul\":4530:4531   */\n      0x00\n        /* \"#utility.yul\":4523:4538   */\n      revert\n        /* \"#utility.yul\":4550:4652   */\n    tag_45:\n        /* \"#utility.yul\":4592:4600   */\n      0x00\n        /* \"#utility.yul\":4639:4644   */\n      dup2\n        /* \"#utility.yul\":4636:4637   */\n      0x01\n        /* \"#utility.yul\":4632:4645   */\n      shr\n        /* \"#utility.yul\":4611:4645   */\n      swap1\n      pop\n        /* \"#utility.yul\":4550:4652   */\n      swap2\n      swap1\n      pop\n      jump\t// out\n        /* \"#utility.yul\":4658:5506   */\n    tag_46:\n        /* \"#utility.yul\":4719:4724   */\n      0x00\n        /* \"#utility.yul\":4726:4730   */\n      0x00\n        /* \"#utility.yul\":4750:4756   */\n      dup3\n        /* \"#utility.yul\":4741:4756   */\n      swap2\n      pop\n        /* \"#utility.yul\":4774:4779   */\n      dup4\n        /* \"#utility.yul\":4765:4779   */\n      swap1\n      pop\n        /* \"#utility.yul\":4788:5500   */\n    tag_107:\n        /* \"#utility.yul\":4809:4810   */\n      0x01\n        /* \"#utility.yul\":4799:4807   */\n      dup6\n        /* \"#utility.yul\":4796:4811   */\n      gt\n        /* \"#utility.yul\":4788:5500   */\n      iszero\n      tag_109\n      jumpi\n        /* \"#utility.yul\":4904:4908   */\n      dup1\n        /* \"#utility.yul\":4899:4902   */\n      dup7\n        /* \"#utility.yul\":4895:4909   */\n      div\n        /* \"#utility.yul\":4889:4893   */\n      dup2\n        /* \"#utility.yul\":4886:4910   */\n      gt\n        /* \"#utility.yul\":4883:4933   */\n      iszero\n      tag_110\n      jumpi\n        /* \"#utility.yul\":4913:4931   */\n      tag_111\n      tag_44\n      jump\t// in\n    tag_111:\n        /* \"#utility.yul\":4883:4933   */\n    tag_110:\n        /* \"#utility.yul\":4963:4964   */\n      0x01\n        /* \"#utility.yul\":4953:4961   */\n      dup6\n        /* \"#utility.yul\":4949:4965   */\n      and\n        /* \"#utility.yul\":4946:5397   */\n      iszero\n      tag_112\n      jumpi\n        /* \"#utility.yul\":5378:5382   */\n      dup1\n        /* \"#utility.yul\":5371:5376   */\n      dup3\n        /* \"#utility.yul\":5367:5383   */\n      mul\n        /* \"#utility.yul\":5358:5383   */\n      swap2\n      pop\n        /* \"#utility.yul\":4946:5397   */\n    tag_112:\n        /* \"#utility.yul\":5428:5432   */\n      dup1\n        /* \"#utility.yul\":5422:5426   */\n      dup2\n        /* \"#utility.yul\":5418:5433   */\n      mul\n        /* \"#utility.yul\":5410:5433   */\n      swap1\n      pop\n        /* \"#utility.yul\":5458:5490   */\n      tag_113\n        /* \"#utility.yul\":5481:5489   */\n      dup6\n        /* \"#utility.yul\":5458:5490   */\n      tag_45\n      jump\t// in\n    tag_113:\n        /* \"#utility.yul\":5446:5490   */\n      swap5\n      pop\n        /* \"#utility.yul\":4788:5500   */\n      jump(tag_107)\n    tag_109:\n        /* \"#utility.yul\":4658:5506   */\n      swap5\n      pop\n      swap5\n      swap3\n      pop\n      pop\n      pop\n      jump\t// out\n        /* \"#utility.yul\":5512:6585   */\n    tag_47:\n        /* \"#utility.yul\":5566:5571   */\n      0x00\n        /* \"#utility.yul\":5757:5765   */\n      dup3\n        /* \"#utility.yul\":5747:5787   */\n      tag_115\n      jumpi\n        /* \"#utility.yul\":5778:5779   */\n      0x01\n        /* \"#utility.yul\":5769:5779   */\n      swap1\n      pop\n        /* \"#utility.yul\":5780:5785   */\n      jump(tag_114)\n        /* \"#utility.yul\":5747:5787   */\n    tag_115:\n        /* \"#utility.yul\":5806:5810   */\n      dup2\n        /* \"#utility.yul\":5796:5832   */\n      tag_116\n      jumpi\n        /* \"#utility.yul\":5823:5824   */\n      0x00\n        /* \"#utility.yul\":5814:5824   */\n      swap1\n      pop\n        /* \"#utility.yul\":5825:5830   */\n      jump(tag_114)\n        /* \"#utility.yul\":5796:5832   */\n    tag_116:\n        /* \"#utility.yul\":5892:5896   */\n      dup2\n        /* \"#utility.yul\":5940:5941   */\n      0x01\n        /* \"#utility.yul\":5935:5962   */\n      dup2\n      eq\n      tag_118\n      jumpi\n        /* \"#utility.yul\":5976:5977   */\n      0x02\n        /* \"#utility.yul\":5971:6162   */\n      dup2\n      eq\n      tag_119\n      jumpi\n        /* \"#utility.yul\":5885:6162   */\n      jump(tag_117)\n        /* \"#utility.yul\":5935:5962   */\n    tag_118:\n        /* \"#utility.yul\":5953:5954   */\n      0x01\n        /* \"#utility.yul\":5944:5954   */\n      swap2\n      pop\n        /* \"#utility.yul\":5955:5960   */\n      pop\n      jump(tag_114)\n        /* \"#utility.yul\":5971:6162   */\n    tag_119:\n        /* \"#utility.yul\":6016:6019   */\n      0xff\n        /* \"#utility.yul\":6006:6014   */\n      dup5\n        /* \"#utility.yul\":6003:6020   */\n      gt\n        /* \"#utility.yul\":6000:6043   */\n      iszero\n      tag_120\n      jumpi\n        /* \"#utility.yul\":6023:6041   */\n      tag_121\n      tag_44\n      jump\t// in\n    tag_121:\n        /* \"#utility.yul\":6000:6043   */\n    tag_120:\n        /* \"#utility.yul\":6072:6080   */\n      dup4\n        /* \"#utility.yul\":6069:6070   */\n      0x02\n        /* \"#utility.yul\":6065:6081   */\n      exp\n        /* \"#utility.yul\":6056:6081   */\n      swap2\n      pop\n        /* \"#utility.yul\":6107:6110   */\n      dup5\n        /* \"#utility.yul\":6100:6105   */\n      dup3\n        /* \"#utility.yul\":6097:6111   */\n      gt\n        /* \"#utility.yul\":6094:6134   */\n      iszero\n      tag_122\n      jumpi\n        /* \"#utility.yul\":6114:6132   */\n      tag_123\n      tag_44\n      jump\t// in\n    tag_123:\n        /* \"#utility.yul\":6094:6134   */\n    tag_122:\n        /* \"#utility.yul\":6147:6152   */\n      pop\n      jump(tag_114)\n        /* \"#utility.yul\":5885:6162   */\n    tag_117:\n      pop\n        /* \"#utility.yul\":6271:6273   */\n      0x20\n        /* \"#utility.yul\":6261:6269   */\n      dup4\n        /* \"#utility.yul\":6258:6274   */\n      lt\n        /* \"#utility.yul\":6252:6255   */\n      0x0133\n        /* \"#utility.yul\":6246:6250   */\n      dup4\n        /* \"#utility.yul\":6243:6256   */\n      lt\n        /* \"#utility.yul\":6239:6275   */\n      and\n        /* \"#utility.yul\":6221:6223   */\n      0x4e\n        /* \"#utility.yul\":6211:6219   */\n      dup5\n        /* \"#utility.yul\":6208:6224   */\n      lt\n        /* \"#utility.yul\":6203:6205   */\n      0x0b\n        /* \"#utility.yul\":6197:6201   */\n      dup5\n        /* \"#utility.yul\":6194:6206   */\n      lt\n        /* \"#utility.yul\":6190:6225   */\n      and\n        /* \"#utility.yul\":6174:6285   */\n      or\n        /* \"#utility.yul\":6171:6417   */\n      iszero\n      tag_124\n      jumpi\n        /* \"#utility.yul\":6327:6335   */\n      dup3\n        /* \"#utility.yul\":6321:6325   */\n      dup3\n        /* \"#utility.yul\":6317:6336   */\n      exp\n        /* \"#utility.yul\":6308:6336   */\n      swap1\n      pop\n        /* \"#utility.yul\":6362:6365   */\n      dup4\n        /* \"#utility.yul\":6355:6360   */\n      dup2\n        /* \"#utility.yul\":6352:6366   */\n      gt\n        /* \"#utility.yul\":6349:6389   */\n      iszero\n      tag_125\n      jumpi\n        /* \"#utility.yul\":6369:6387   */\n      tag_126\n      tag_44\n      jump\t// in\n    tag_126:\n        /* \"#utility.yul\":6349:6389   */\n    tag_125:\n        /* \"#utility.yul\":6402:6407   */\n      jump(tag_114)\n        /* \"#utility.yul\":6171:6417   */\n    tag_124:\n        /* \"#utility.yul\":6442:6484   */\n      tag_127\n        /* \"#utility.yul\":6480:6483   */\n      dup5\n        /* \"#utility.yul\":6470:6478   */\n      dup5\n        /* \"#utility.yul\":6464:6468   */\n      dup5\n        /* \"#utility.yul\":6461:6462   */\n      0x01\n        /* \"#utility.yul\":6442:6484   */\n      tag_46\n      jump\t// in\n    tag_127:\n        /* \"#utility.yul\":6427:6484   */\n      swap3\n      pop\n      swap1\n      pop\n        /* \"#utility.yul\":6516:6520   */\n      dup2\n        /* \"#utility.yul\":6511:6514   */\n      dup5\n        /* \"#utility.yul\":6507:6521   */\n      div\n        /* \"#utility.yul\":6500:6505   */\n      dup2\n        /* \"#utility.yul\":6497:6522   */\n      gt\n        /* \"#utility.yul\":6494:6545   */\n      iszero\n      tag_128\n      jumpi\n        /* \"#utility.yul\":6525:6543   */\n      tag_129\n      tag_44\n      jump\t// in\n    tag_129:\n        /* \"#utility.yul\":6494:6545   */\n    tag_128:\n        /* \"#utility.yul\":6574:6578   */\n      dup2\n        /* \"#utility.yul\":6567:6572   */\n      dup2\n        /* \"#utility.yul\":6563:6579   */\n      mul\n        /* \"#utility.yul\":6554:6579   */\n      swap1\n      pop\n        /* \"#utility.yul\":5512:6585   */\n    tag_114:\n      swap4\n      swap3\n      pop\n      pop\n      pop\n      jump\t// out\n        /* \"#utility.yul\":6591:6872   */\n    tag_19:\n        /* \"#utility.yul\":6649:6654   */\n      0x00\n        /* \"#utility.yul\":6673:6696   */\n      tag_131\n        /* \"#utility.yul\":6691:6695   */\n      dup3\n        /* \"#utility.yul\":6673:6696   */\n      tag_25\n      jump\t// in\n    tag_131:\n        /* \"#utility.yul\":6665:6696   */\n      swap2\n      pop\n        /* \"#utility.yul\":6717:6742   */\n      tag_132\n        /* \"#utility.yul\":6733:6741   */\n      dup4\n        /* \"#utility.yul\":6717:6742   */\n      tag_38\n      jump\t// in\n    tag_132:\n        /* \"#utility.yul\":6705:6742   */\n      swap3\n      pop\n        /* \"#utility.yul\":6761:6865   */\n      tag_133\n        /* \"#utility.yul\":6798:6864   */\n      0xffffffffffffffffffffffffffffffffffffffffffffffffffffffffffffffff\n        /* \"#utility.yul\":6788:6796   */\n      dup5\n        /* \"#utility.yul\":6782:6786   */\n      dup5\n        /* \"#utility.yul\":6761:6865   */\n      tag_47\n      jump\t// in\n    tag_133:\n        /* \"#utility.yul\":6752:6865   */\n      swap1\n      pop\n        /* \"#utility.yul\":6591:6872   */\n      swap3\n      swap2\n      pop\n      pop\n      jump\t// out\n        /* \"#utility.yul\":6878:7058   */\n    tag_48:\n        /* \"#utility.yul\":6926:7003   */\n      0x4e487b7100000000000000000000000000000000000000000000000000000000\n        /* \"#utility.yul\":6923:6924   */\n      0x00\n        /* \"#utility.yul\":6916:7004   */\n      mstore\n        /* \"#utility.yul\":7023:7027   */\n      0x12\n        /* \"#utility.yul\":7020:7021   */\n      0x04\n        /* \"#utility.yul\":7013:7028   */\n      mstore\n        /* \"#utility.yul\":7047:7051   */\n      0x24\n        /* \"#utility.yul\":7044:7045   */\n      0x00\n        /* \"#utility.yul\":7037:7052   */\n      revert\n        /* \"#utility.yul\":7064:7249   */\n    tag_21:\n        /* \"#utility.yul\":7104:7105   */\n      0x00\n        /* \"#utility.yul\":7121:7141   */\n      tag_136\n        /* \"#utility.yul\":7139:7140   */\n      dup3\n        /* \"#utility.yul\":7121:7141   */\n      tag_25\n      jump\t// in\n    tag_136:\n        /* \"#utility.yul\":7116:7141   */\n      swap2\n      pop\n        /* \"#utility.yul\":7155:7175   */\n      tag_137\n        /* \"#utility.yul\":7173:7174   */\n      dup4\n        /* \"#utility.yul\":7155:7175   */\n      tag_25\n      jump\t// in\n    tag_137:\n        /* \"#utility.yul\":7150:7175   */\n      swap3\n      pop\n        /* \"#utility.yul\":7194:7195   */\n      dup3\n        /* \"#utility.yul\":7184:7219   */\n      tag_138\n      jumpi\n        /* \"#utility.yul\":7199:7217   */\n      tag_139\n      tag_48\n      jump\t// in\n    tag_139:\n        /* \"#utility.yul\":7184:7219   */\n    tag_138:\n        /* \"#utility.yul\":7241:7242   */\n      dup3\n        /* \"#utility.yul\":7238:7239   */\n      dup3\n        /* \"#utility.yul\":7234:7243   */\n      div\n        /* \"#utility.yul\":7229:7243   */\n      swap1\n      pop\n        /* \"#utility.yul\":7064:7249   */\n      swap3\n      swap2\n      pop\n      pop\n      jump\t// out\n\n    auxdata: 0xa2646970667358221220a89926a180d169840de35fb29d24565d87c5328108b309290310560abd2cbb3964736f6c634300081e0033\n}\n",
				"bytecode": {
					"linkReferences": {},
					"object": "608060405234801561000f575f5ffd5b506040516106f73803806106f7833981810160405281019061003191906100d4565b805f5f6101000a81548173ffffffffffffffffffffffffffffffffffffffff021916908373ffffffffffffffffffffffffffffffffffffffff160217905550506100ff565b5f5ffd5b5f73ffffffffffffffffffffffffffffffffffffffff82169050919050565b5f6100a38261007a565b9050919050565b6100b381610099565b81146100bd575f5ffd5b50565b5f815190506100ce816100aa565b92915050565b5f602082840312156100e9576100e8610076565b5b5f6100f6848285016100c0565b91505092915050565b6105eb8061010c5f395ff3fe608060405234801561000f575f5ffd5b5060043610610034575f3560e01c8063bdd3d82514610038578063eb91d37e14610056575b5f5ffd5b610040610074565b60405161004d91906101c5565b60405180910390f35b61005e610098565b60405161006b91906101f6565b60405180910390f35b5f5f9054906101000a900473ffffffffffffffffffffffffffffffffffffffff1681565b5f5f5f5f9054906101000a900473ffffffffffffffffffffffffffffffffffffffff1690505f8173ffffffffffffffffffffffffffffffffffffffff16633850c7bd6040518163ffffffff1660e01b815260040160e060405180830381865afa158015610107573d5f5f3e3d5ffd5b505050506040513d601f19601f8201168201806040525081019061012b9190610315565b50505050505090505f780100000000000000000000000000000000000000000000000060028373ffffffffffffffffffffffffffffffffffffffff16610171919061050e565b61017b9190610585565b905080935050505090565b5f73ffffffffffffffffffffffffffffffffffffffff82169050919050565b5f6101af82610186565b9050919050565b6101bf816101a5565b82525050565b5f6020820190506101d85f8301846101b6565b92915050565b5f819050919050565b6101f0816101de565b82525050565b5f6020820190506102095f8301846101e7565b92915050565b5f5ffd5b61021c81610186565b8114610226575f5ffd5b50565b5f8151905061023781610213565b92915050565b5f8160020b9050919050565b6102528161023d565b811461025c575f5ffd5b50565b5f8151905061026d81610249565b92915050565b5f61ffff82169050919050565b61028981610273565b8114610293575f5ffd5b50565b5f815190506102a481610280565b92915050565b5f60ff82169050919050565b6102bf816102aa565b81146102c9575f5ffd5b50565b5f815190506102da816102b6565b92915050565b5f8115159050919050565b6102f4816102e0565b81146102fe575f5ffd5b50565b5f8151905061030f816102eb565b92915050565b5f5f5f5f5f5f5f60e0888a0312156103305761032f61020f565b5b5f61033d8a828b01610229565b975050602061034e8a828b0161025f565b965050604061035f8a828b01610296565b95505060606103708a828b01610296565b94505060806103818a828b01610296565b93505060a06103928a828b016102cc565b92505060c06103a38a828b01610301565b91505092959891949750929550565b7f4e487b71000000000000000000000000000000000000000000000000000000005f52601160045260245ffd5b5f8160011c9050919050565b5f5f8291508390505b6001851115610434578086048111156104105761040f6103b2565b5b600185161561041f5780820291505b808102905061042d856103df565b94506103f4565b94509492505050565b5f8261044c5760019050610507565b81610459575f9050610507565b816001811461046f5760028114610479576104a8565b6001915050610507565b60ff84111561048b5761048a6103b2565b5b8360020a9150848211156104a2576104a16103b2565b5b50610507565b5060208310610133831016604e8410600b84101617156104dd5782820a9050838111156104d8576104d76103b2565b5b610507565b6104ea84848460016103eb565b92509050818404811115610501576105006103b2565b5b81810290505b9392505050565b5f610518826101de565b9150610523836102aa565b92506105507fffffffffffffffffffffffffffffffffffffffffffffffffffffffffffffffff848461043d565b905092915050565b7f4e487b71000000000000000000000000000000000000000000000000000000005f52601260045260245ffd5b5f61058f826101de565b915061059a836101de565b9250826105aa576105a9610558565b5b82820490509291505056fea2646970667358221220a89926a180d169840de35fb29d24565d87c5328108b309290310560abd2cbb3964736f6c634300081e0033",
					"opcodes": "PUSH1 0x80 PUSH1 0x40 MSTORE CALLVALUE DUP1 ISZERO PUSH2 0xF JUMPI PUSH0 PUSH0 REVERT JUMPDEST POP PUSH1 0x40 MLOAD PUSH2 0x6F7 CODESIZE SUB DUP1 PUSH2 0x6F7 DUP4 CODECOPY DUP2 DUP2 ADD PUSH1 0x40 MSTORE DUP2 ADD SWAP1 PUSH2 0x31 SWAP2 SWAP1 PUSH2 0xD4 JUMP JUMPDEST DUP1 PUSH0 PUSH0 PUSH2 0x100 EXP DUP2 SLOAD DUP2 PUSH20 0xFFFFFFFFFFFFFFFFFFFFFFFFFFFFFFFFFFFFFFFF MUL NOT AND SWAP1 DUP4 PUSH20 0xFFFFFFFFFFFFFFFFFFFFFFFFFFFFFFFFFFFFFFFF AND MUL OR SWAP1 SSTORE POP POP PUSH2 0xFF JUMP JUMPDEST PUSH0 PUSH0 REVERT JUMPDEST PUSH0 PUSH20 0xFFFFFFFFFFFFFFFFFFFFFFFFFFFFFFFFFFFFFFFF DUP3 AND SWAP1 POP SWAP2 SWAP1 POP JUMP JUMPDEST PUSH0 PUSH2 0xA3 DUP3 PUSH2 0x7A JUMP JUMPDEST SWAP1 POP SWAP2 SWAP1 POP JUMP JUMPDEST PUSH2 0xB3 DUP2 PUSH2 0x99 JUMP JUMPDEST DUP2 EQ PUSH2 0xBD JUMPI PUSH0 PUSH0 REVERT JUMPDEST POP JUMP JUMPDEST PUSH0 DUP2 MLOAD SWAP1 POP PUSH2 0xCE DUP2 PUSH2 0xAA JUMP JUMPDEST SWAP3 SWAP2 POP POP JUMP JUMPDEST PUSH0 PUSH1 0x20 DUP3 DUP5 SUB SLT ISZERO PUSH2 0xE9 JUMPI PUSH2 0xE8 PUSH2 0x76 JUMP JUMPDEST JUMPDEST PUSH0 PUSH2 0xF6 DUP5 DUP3 DUP6 ADD PUSH2 0xC0 JUMP JUMPDEST SWAP2 POP POP SWAP3 SWAP2 POP POP JUMP JUMPDEST PUSH2 0x5EB DUP1 PUSH2 0x10C PUSH0 CODECOPY PUSH0 RETURN INVALID PUSH1 0x80 PUSH1 0x40 MSTORE CALLVALUE DUP1 ISZERO PUSH2 0xF JUMPI PUSH0 PUSH0 REVERT JUMPDEST POP PUSH1 0x4 CALLDATASIZE LT PUSH2 0x34 JUMPI PUSH0 CALLDATALOAD PUSH1 0xE0 SHR DUP1 PUSH4 0xBDD3D825 EQ PUSH2 0x38 JUMPI DUP1 PUSH4 0xEB91D37E EQ PUSH2 0x56 JUMPI JUMPDEST PUSH0 PUSH0 REVERT JUMPDEST PUSH2 0x40 PUSH2 0x74 JUMP JUMPDEST PUSH1 0x40 MLOAD PUSH2 0x4D SWAP2 SWAP1 PUSH2 0x1C5 JUMP JUMPDEST PUSH1 0x40 MLOAD DUP1 SWAP2 SUB SWAP1 RETURN JUMPDEST PUSH2 0x5E PUSH2 0x98 JUMP JUMPDEST PUSH1 0x40 MLOAD PUSH2 0x6B SWAP2 SWAP1 PUSH2 0x1F6 JUMP JUMPDEST PUSH1 0x40 MLOAD DUP1 SWAP2 SUB SWAP1 RETURN JUMPDEST PUSH0 PUSH0 SWAP1 SLOAD SWAP1 PUSH2 0x100 EXP SWAP1 DIV PUSH20 0xFFFFFFFFFFFFFFFFFFFFFFFFFFFFFFFFFFFFFFFF AND DUP2 JUMP JUMPDEST PUSH0 PUSH0 PUSH0 PUSH0 SWAP1 SLOAD SWAP1 PUSH2 0x100 EXP SWAP1 DIV PUSH20 0xFFFFFFFFFFFFFFFFFFFFFFFFFFFFFFFFFFFFFFFF AND SWAP1 POP PUSH0 DUP2 PUSH20 0xFFFFFFFFFFFFFFFFFFFFFFFFFFFFFFFFFFFFFFFF AND PUSH4 0x3850C7BD PUSH1 0x40 MLOAD DUP2 PUSH4 0xFFFFFFFF AND PUSH1 0xE0 SHL DUP2 MSTORE PUSH1 0x4 ADD PUSH1 0xE0 PUSH1 0x40 MLOAD DUP1 DUP4 SUB DUP2 DUP7 GAS STATICCALL ISZERO DUP1 ISZERO PUSH2 0x107 JUMPI RETURNDATASIZE PUSH0 PUSH0 RETURNDATACOPY RETURNDATASIZE PUSH0 REVERT JUMPDEST POP POP POP POP PUSH1 0x40 MLOAD RETURNDATASIZE PUSH1 0x1F NOT PUSH1 0x1F DUP3 ADD AND DUP3 ADD DUP1 PUSH1 0x40 MSTORE POP DUP2 ADD SWAP1 PUSH2 0x12B SWAP2 SWAP1 PUSH2 0x315 JUMP JUMPDEST POP POP POP POP POP POP SWAP1 POP PUSH0 PUSH25 0x1000000000000000000000000000000000000000000000000 PUSH1 0x2 DUP4 PUSH20 0xFFFFFFFFFFFFFFFFFFFFFFFFFFFFFFFFFFFFFFFF AND PUSH2 0x171 SWAP2 SWAP1 PUSH2 0x50E JUMP JUMPDEST PUSH2 0x17B SWAP2 SWAP1 PUSH2 0x585 JUMP JUMPDEST SWAP1 POP DUP1 SWAP4 POP POP POP POP SWAP1 JUMP JUMPDEST PUSH0 PUSH20 0xFFFFFFFFFFFFFFFFFFFFFFFFFFFFFFFFFFFFFFFF DUP3 AND SWAP1 POP SWAP2 SWAP1 POP JUMP JUMPDEST PUSH0 PUSH2 0x1AF DUP3 PUSH2 0x186 JUMP JUMPDEST SWAP1 POP SWAP2 SWAP1 POP JUMP JUMPDEST PUSH2 0x1BF DUP2 PUSH2 0x1A5 JUMP JUMPDEST DUP3 MSTORE POP POP JUMP JUMPDEST PUSH0 PUSH1 0x20 DUP3 ADD SWAP1 POP PUSH2 0x1D8 PUSH0 DUP4 ADD DUP5 PUSH2 0x1B6 JUMP JUMPDEST SWAP3 SWAP2 POP POP JUMP JUMPDEST PUSH0 DUP2 SWAP1 POP SWAP2 SWAP1 POP JUMP JUMPDEST PUSH2 0x1F0 DUP2 PUSH2 0x1DE JUMP JUMPDEST DUP3 MSTORE POP POP JUMP JUMPDEST PUSH0 PUSH1 0x20 DUP3 ADD SWAP1 POP PUSH2 0x209 PUSH0 DUP4 ADD DUP5 PUSH2 0x1E7 JUMP JUMPDEST SWAP3 SWAP2 POP POP JUMP JUMPDEST PUSH0 PUSH0 REVERT JUMPDEST PUSH2 0x21C DUP2 PUSH2 0x186 JUMP JUMPDEST DUP2 EQ PUSH2 0x226 JUMPI PUSH0 PUSH0 REVERT JUMPDEST POP JUMP JUMPDEST PUSH0 DUP2 MLOAD SWAP1 POP PUSH2 0x237 DUP2 PUSH2 0x213 JUMP JUMPDEST SWAP3 SWAP2 POP POP JUMP JUMPDEST PUSH0 DUP2 PUSH1 0x2 SIGNEXTEND SWAP1 POP SWAP2 SWAP1 POP JUMP JUMPDEST PUSH2 0x252 DUP2 PUSH2 0x23D JUMP JUMPDEST DUP2 EQ PUSH2 0x25C JUMPI PUSH0 PUSH0 REVERT JUMPDEST POP JUMP JUMPDEST PUSH0 DUP2 MLOAD SWAP1 POP PUSH2 0x26D DUP2 PUSH2 0x249 JUMP JUMPDEST SWAP3 SWAP2 POP POP JUMP JUMPDEST PUSH0 PUSH2 0xFFFF DUP3 AND SWAP1 POP SWAP2 SWAP1 POP JUMP JUMPDEST PUSH2 0x289 DUP2 PUSH2 0x273 JUMP JUMPDEST DUP2 EQ PUSH2 0x293 JUMPI PUSH0 PUSH0 REVERT JUMPDEST POP JUMP JUMPDEST PUSH0 DUP2 MLOAD SWAP1 POP PUSH2 0x2A4 DUP2 PUSH2 0x280 JUMP JUMPDEST SWAP3 SWAP2 POP POP JUMP JUMPDEST PUSH0 PUSH1 0xFF DUP3 AND SWAP1 POP SWAP2 SWAP1 POP JUMP JUMPDEST PUSH2 0x2BF DUP2 PUSH2 0x2AA JUMP JUMPDEST DUP2 EQ PUSH2 0x2C9 JUMPI PUSH0 PUSH0 REVERT JUMPDEST POP JUMP JUMPDEST PUSH0 DUP2 MLOAD SWAP1 POP PUSH2 0x2DA DUP2 PUSH2 0x2B6 JUMP JUMPDEST SWAP3 SWAP2 POP POP JUMP JUMPDEST PUSH0 DUP2 ISZERO ISZERO SWAP1 POP SWAP2 SWAP1 POP JUMP JUMPDEST PUSH2 0x2F4 DUP2 PUSH2 0x2E0 JUMP JUMPDEST DUP2 EQ PUSH2 0x2FE JUMPI PUSH0 PUSH0 REVERT JUMPDEST POP JUMP JUMPDEST PUSH0 DUP2 MLOAD SWAP1 POP PUSH2 0x30F DUP2 PUSH2 0x2EB JUMP JUMPDEST SWAP3 SWAP2 POP POP JUMP JUMPDEST PUSH0 PUSH0 PUSH0 PUSH0 PUSH0 PUSH0 PUSH0 PUSH1 0xE0 DUP9 DUP11 SUB SLT ISZERO PUSH2 0x330 JUMPI PUSH2 0x32F PUSH2 0x20F JUMP JUMPDEST JUMPDEST PUSH0 PUSH2 0x33D DUP11 DUP3 DUP12 ADD PUSH2 0x229 JUMP JUMPDEST SWAP8 POP POP PUSH1 0x20 PUSH2 0x34E DUP11 DUP3 DUP12 ADD PUSH2 0x25F JUMP JUMPDEST SWAP7 POP POP PUSH1 0x40 PUSH2 0x35F DUP11 DUP3 DUP12 ADD PUSH2 0x296 JUMP JUMPDEST SWAP6 POP POP PUSH1 0x60 PUSH2 0x370 DUP11 DUP3 DUP12 ADD PUSH2 0x296 JUMP JUMPDEST SWAP5 POP POP PUSH1 0x80 PUSH2 0x381 DUP11 DUP3 DUP12 ADD PUSH2 0x296 JUMP JUMPDEST SWAP4 POP POP PUSH1 0xA0 PUSH2 0x392 DUP11 DUP3 DUP12 ADD PUSH2 0x2CC JUMP JUMPDEST SWAP3 POP POP PUSH1 0xC0 PUSH2 0x3A3 DUP11 DUP3 DUP12 ADD PUSH2 0x301 JUMP JUMPDEST SWAP2 POP POP SWAP3 SWAP6 SWAP9 SWAP2 SWAP5 SWAP8 POP SWAP3 SWAP6 POP JUMP JUMPDEST PUSH32 0x4E487B7100000000000000000000000000000000000000000000000000000000 PUSH0 MSTORE PUSH1 0x11 PUSH1 0x4 MSTORE PUSH1 0x24 PUSH0 REVERT JUMPDEST PUSH0 DUP2 PUSH1 0x1 SHR SWAP1 POP SWAP2 SWAP1 POP JUMP JUMPDEST PUSH0 PUSH0 DUP3 SWAP2 POP DUP4 SWAP1 POP JUMPDEST PUSH1 0x1 DUP6 GT ISZERO PUSH2 0x434 JUMPI DUP1 DUP7 DIV DUP2 GT ISZERO PUSH2 0x410 JUMPI PUSH2 0x40F PUSH2 0x3B2 JUMP JUMPDEST JUMPDEST PUSH1 0x1 DUP6 AND ISZERO PUSH2 0x41F JUMPI DUP1 DUP3 MUL SWAP2 POP JUMPDEST DUP1 DUP2 MUL SWAP1 POP PUSH2 0x42D DUP6 PUSH2 0x3DF JUMP JUMPDEST SWAP5 POP PUSH2 0x3F4 JUMP JUMPDEST SWAP5 POP SWAP5 SWAP3 POP POP POP JUMP JUMPDEST PUSH0 DUP3 PUSH2 0x44C JUMPI PUSH1 0x1 SWAP1 POP PUSH2 0x507 JUMP JUMPDEST DUP2 PUSH2 0x459 JUMPI PUSH0 SWAP1 POP PUSH2 0x507 JUMP JUMPDEST DUP2 PUSH1 0x1 DUP2 EQ PUSH2 0x46F JUMPI PUSH1 0x2 DUP2 EQ PUSH2 0x479 JUMPI PUSH2 0x4A8 JUMP JUMPDEST PUSH1 0x1 SWAP2 POP POP PUSH2 0x507 JUMP JUMPDEST PUSH1 0xFF DUP5 GT ISZERO PUSH2 0x48B JUMPI PUSH2 0x48A PUSH2 0x3B2 JUMP JUMPDEST JUMPDEST DUP4 PUSH1 0x2 EXP SWAP2 POP DUP5 DUP3 GT ISZERO PUSH2 0x4A2 JUMPI PUSH2 0x4A1 PUSH2 0x3B2 JUMP JUMPDEST JUMPDEST POP PUSH2 0x507 JUMP JUMPDEST POP PUSH1 0x20 DUP4 LT PUSH2 0x133 DUP4 LT AND PUSH1 0x4E DUP5 LT PUSH1 0xB DUP5 LT AND OR ISZERO PUSH2 0x4DD JUMPI DUP3 DUP3 EXP SWAP1 POP DUP4 DUP2 GT ISZERO PUSH2 0x4D8 JUMPI PUSH2 0x4D7 PUSH2 0x3B2 JUMP JUMPDEST JUMPDEST PUSH2 0x507 JUMP JUMPDEST PUSH2 0x4EA DUP5 DUP5 DUP5 PUSH1 0x1 PUSH2 0x3EB JUMP JUMPDEST SWAP3 POP SWAP1 POP DUP2 DUP5 DIV DUP2 GT ISZERO PUSH2 0x501 JUMPI PUSH2 0x500 PUSH2 0x3B2 JUMP JUMPDEST JUMPDEST DUP2 DUP2 MUL SWAP1 POP JUMPDEST SWAP4 SWAP3 POP POP POP JUMP JUMPDEST PUSH0 PUSH2 0x518 DUP3 PUSH2 0x1DE JUMP JUMPDEST SWAP2 POP PUSH2 0x523 DUP4 PUSH2 0x2AA JUMP JUMPDEST SWAP3 POP PUSH2 0x550 PUSH32 0xFFFFFFFFFFFFFFFFFFFFFFFFFFFFFFFFFFFFFFFFFFFFFFFFFFFFFFFFFFFFFFFF DUP5 DUP5 PUSH2 0x43D JUMP JUMPDEST SWAP1 POP SWAP3 SWAP2 POP POP JUMP JUMPDEST PUSH32 0x4E487B7100000000000000000000000000000000000000000000000000000000 PUSH0 MSTORE PUSH1 0x12 PUSH1 0x4 MSTORE PUSH1 0x24 PUSH0 REVERT JUMPDEST PUSH0 PUSH2 0x58F DUP3 PUSH2 0x1DE JUMP JUMPDEST SWAP2 POP PUSH2 0x59A DUP4 PUSH2 0x1DE JUMP JUMPDEST SWAP3 POP DUP3 PUSH2 0x5AA JUMPI PUSH2 0x5A9 PUSH2 0x558 JUMP JUMPDEST JUMPDEST DUP3 DUP3 DIV SWAP1 POP SWAP3 SWAP2 POP POP JUMP INVALID LOG2 PUSH5 0x6970667358 0x22 SLT KECCAK256 0xA8 SWAP10 0x26 LOG1 DUP1 DATALOADN 0x6984 0xD CALLF 0x5FB2 SWAP14 0x24 JUMP TSTORE DUP8 0xC5 ORIGIN DUP2 ADDMOD 0xB3 MULMOD 0x29 SUB LT JUMP EXP 0xBD 0x2C 0xBB CODECOPY PUSH5 0x736F6C6343 STOP ADDMOD 0x1E STOP CALLER "
				},
				"gasEstimates": {
					"creation": {
						"codeDepositCost": "303000",
						"executionCost": "infinite",
						"totalCost": "infinite"
					},
					"external": {
						"getCurrentPrice()": "infinite",
						"uniswapPool()": "2485"
					}
				},
				"methodIdentifiers": {
					"getCurrentPrice()": "eb91d37e",
					"uniswapPool()": "bdd3d825"
				}
			},
			"storageLayout": {
				"storage": [
					{
						"astId": 1822,
						"contract": "contracts/CCK/Token/PriceOracle.sol:PriceOracle",
						"label": "uniswapPool",
						"offset": 0,
						"slot": "0",
						"type": "t_address"
					}
				],
				"types": {
					"t_address": {
						"encoding": "inplace",
						"label": "address",
						"numberOfBytes": "20"
					}
				}
			},
			"userdoc": {
				"kind": "user",
				"methods": {},
				"version": 1
			}
		}
	}
}