{
	"contracts/CCK/Token/CCKToken_flattened.sol": {
		"CCKToken": {
			"abi": [
				{
					"inputs": [
						{
							"internalType": "address[]",
							"name": "_whitelist",
							"type": "address[]"
						},
						{
							"internalType": "address",
							"name": "_uniswapPool",
							"type": "address"
						}
					],
					"stateMutability": "nonpayable",
					"type": "constructor"
				},
				{
					"inputs": [
						{
							"internalType": "address",
							"name": "spender",
							"type": "address"
						},
						{
							"internalType": "uint256",
							"name": "allowance",
							"type": "uint256"
						},
						{
							"internalType": "uint256",
							"name": "needed",
							"type": "uint256"
						}
					],
					"name": "ERC20InsufficientAllowance",
					"type": "error"
				},
				{
					"inputs": [
						{
							"internalType": "address",
							"name": "sender",
							"type": "address"
						},
						{
							"internalType": "uint256",
							"name": "balance",
							"type": "uint256"
						},
						{
							"internalType": "uint256",
							"name": "needed",
							"type": "uint256"
						}
					],
					"name": "ERC20InsufficientBalance",
					"type": "error"
				},
				{
					"inputs": [
						{
							"internalType": "address",
							"name": "approver",
							"type": "address"
						}
					],
					"name": "ERC20InvalidApprover",
					"type": "error"
				},
				{
					"inputs": [
						{
							"internalType": "address",
							"name": "receiver",
							"type": "address"
						}
					],
					"name": "ERC20InvalidReceiver",
					"type": "error"
				},
				{
					"inputs": [
						{
							"internalType": "address",
							"name": "sender",
							"type": "address"
						}
					],
					"name": "ERC20InvalidSender",
					"type": "error"
				},
				{
					"inputs": [
						{
							"internalType": "address",
							"name": "spender",
							"type": "address"
						}
					],
					"name": "ERC20InvalidSpender",
					"type": "error"
				},
				{
					"inputs": [
						{
							"internalType": "address",
							"name": "owner",
							"type": "address"
						}
					],
					"name": "OwnableInvalidOwner",
					"type": "error"
				},
				{
					"inputs": [
						{
							"internalType": "address",
							"name": "account",
							"type": "address"
						}
					],
					"name": "OwnableUnauthorizedAccount",
					"type": "error"
				},
				{
					"anonymous": false,
					"inputs": [
						{
							"indexed": true,
							"internalType": "address",
							"name": "owner",
							"type": "address"
						},
						{
							"indexed": true,
							"internalType": "address",
							"name": "spender",
							"type": "address"
						},
						{
							"indexed": false,
							"internalType": "uint256",
							"name": "value",
							"type": "uint256"
						}
					],
					"name": "Approval",
					"type": "event"
				},
				{
					"anonymous": false,
					"inputs": [
						{
							"indexed": true,
							"internalType": "address",
							"name": "previousOwner",
							"type": "address"
						},
						{
							"indexed": true,
							"internalType": "address",
							"name": "newOwner",
							"type": "address"
						}
					],
					"name": "OwnershipTransferred",
					"type": "event"
				},
				{
					"anonymous": false,
					"inputs": [
						{
							"indexed": true,
							"internalType": "address",
							"name": "from",
							"type": "address"
						},
						{
							"indexed": true,
							"internalType": "address",
							"name": "to",
							"type": "address"
						},
						{
							"indexed": false,
							"internalType": "uint256",
							"name": "value",
							"type": "uint256"
						}
					],
					"name": "Transfer",
					"type": "event"
				},
				{
					"inputs": [],
					"name": "TOTAL_SUPPLY",
					"outputs": [
						{
							"internalType": "uint256",
							"name": "",
							"type": "uint256"
						}
					],
					"stateMutability": "view",
					"type": "function"
				},
				{
					"inputs": [
						{
							"internalType": "address",
							"name": "owner",
							"type": "address"
						},
						{
							"internalType": "address",
							"name": "spender",
							"type": "address"
						}
					],
					"name": "allowance",
					"outputs": [
						{
							"internalType": "uint256",
							"name": "",
							"type": "uint256"
						}
					],
					"stateMutability": "view",
					"type": "function"
				},
				{
					"inputs": [
						{
							"internalType": "address",
							"name": "spender",
							"type": "address"
						},
						{
							"internalType": "uint256",
							"name": "value",
							"type": "uint256"
						}
					],
					"name": "approve",
					"outputs": [
						{
							"internalType": "bool",
							"name": "",
							"type": "bool"
						}
					],
					"stateMutability": "nonpayable",
					"type": "function"
				},
				{
					"inputs": [
						{
							"internalType": "address",
							"name": "account",
							"type": "address"
						}
					],
					"name": "balanceOf",
					"outputs": [
						{
							"internalType": "uint256",
							"name": "",
							"type": "uint256"
						}
					],
					"stateMutability": "view",
					"type": "function"
				},
				{
					"inputs": [
						{
							"internalType": "address",
							"name": "user",
							"type": "address"
						}
					],
					"name": "balanceOfUser",
					"outputs": [
						{
							"internalType": "uint256",
							"name": "",
							"type": "uint256"
						}
					],
					"stateMutability": "view",
					"type": "function"
				},
				{
					"inputs": [],
					"name": "compliance",
					"outputs": [
						{
							"internalType": "address",
							"name": "",
							"type": "address"
						}
					],
					"stateMutability": "view",
					"type": "function"
				},
				{
					"inputs": [],
					"name": "decimals",
					"outputs": [
						{
							"internalType": "uint8",
							"name": "",
							"type": "uint8"
						}
					],
					"stateMutability": "view",
					"type": "function"
				},
				{
					"inputs": [],
					"name": "freezableContract",
					"outputs": [
						{
							"internalType": "contract Freezable",
							"name": "",
							"type": "address"
						}
					],
					"stateMutability": "view",
					"type": "function"
				},
				{
					"inputs": [],
					"name": "getCurrentPrice",
					"outputs": [
						{
							"internalType": "uint256",
							"name": "",
							"type": "uint256"
						}
					],
					"stateMutability": "view",
					"type": "function"
				},
				{
					"inputs": [
						{
							"internalType": "address",
							"name": "userAddress",
							"type": "address"
						}
					],
					"name": "getFrozenTokens",
					"outputs": [
						{
							"internalType": "uint256",
							"name": "",
							"type": "uint256"
						}
					],
					"stateMutability": "view",
					"type": "function"
				},
				{
					"inputs": [],
					"name": "identityRegistry",
					"outputs": [
						{
							"internalType": "address",
							"name": "",
							"type": "address"
						}
					],
					"stateMutability": "view",
					"type": "function"
				},
				{
					"inputs": [
						{
							"internalType": "address",
							"name": "userAddress",
							"type": "address"
						}
					],
					"name": "isFrozen",
					"outputs": [
						{
							"internalType": "bool",
							"name": "",
							"type": "bool"
						}
					],
					"stateMutability": "view",
					"type": "function"
				},
				{
					"inputs": [
						{
							"internalType": "address",
							"name": "to",
							"type": "address"
						},
						{
							"internalType": "uint256",
							"name": "amount",
							"type": "uint256"
						}
					],
					"name": "mint",
					"outputs": [],
					"stateMutability": "nonpayable",
					"type": "function"
				},
				{
					"inputs": [],
					"name": "mintedAmount",
					"outputs": [
						{
							"internalType": "uint256",
							"name": "",
							"type": "uint256"
						}
					],
					"stateMutability": "view",
					"type": "function"
				},
				{
					"inputs": [],
					"name": "name",
					"outputs": [
						{
							"internalType": "string",
							"name": "",
							"type": "string"
						}
					],
					"stateMutability": "view",
					"type": "function"
				},
				{
					"inputs": [],
					"name": "onchainID",
					"outputs": [
						{
							"internalType": "address",
							"name": "",
							"type": "address"
						}
					],
					"stateMutability": "view",
					"type": "function"
				},
				{
					"inputs": [],
					"name": "owner",
					"outputs": [
						{
							"internalType": "address",
							"name": "",
							"type": "address"
						}
					],
					"stateMutability": "view",
					"type": "function"
				},
				{
					"inputs": [],
					"name": "paused",
					"outputs": [
						{
							"internalType": "bool",
							"name": "",
							"type": "bool"
						}
					],
					"stateMutability": "view",
					"type": "function"
				},
				{
					"inputs": [],
					"name": "priceOracle",
					"outputs": [
						{
							"internalType": "contract PriceOracle",
							"name": "",
							"type": "address"
						}
					],
					"stateMutability": "view",
					"type": "function"
				},
				{
					"inputs": [],
					"name": "renounceOwnership",
					"outputs": [],
					"stateMutability": "nonpayable",
					"type": "function"
				},
				{
					"inputs": [],
					"name": "symbol",
					"outputs": [
						{
							"internalType": "string",
							"name": "",
							"type": "string"
						}
					],
					"stateMutability": "view",
					"type": "function"
				},
				{
					"inputs": [],
					"name": "totalSupply",
					"outputs": [
						{
							"internalType": "uint256",
							"name": "",
							"type": "uint256"
						}
					],
					"stateMutability": "view",
					"type": "function"
				},
				{
					"inputs": [
						{
							"internalType": "address",
							"name": "recipient",
							"type": "address"
						},
						{
							"internalType": "uint256",
							"name": "amount",
							"type": "uint256"
						}
					],
					"name": "transfer",
					"outputs": [
						{
							"internalType": "bool",
							"name": "",
							"type": "bool"
						}
					],
					"stateMutability": "nonpayable",
					"type": "function"
				},
				{
					"inputs": [
						{
							"internalType": "address",
							"name": "sender",
							"type": "address"
						},
						{
							"internalType": "address",
							"name": "recipient",
							"type": "address"
						},
						{
							"internalType": "uint256",
							"name": "amount",
							"type": "uint256"
						}
					],
					"name": "transferFrom",
					"outputs": [
						{
							"internalType": "bool",
							"name": "",
							"type": "bool"
						}
					],
					"stateMutability": "nonpayable",
					"type": "function"
				},
				{
					"inputs": [
						{
							"internalType": "address",
							"name": "newOwner",
							"type": "address"
						}
					],
					"name": "transferOwnership",
					"outputs": [],
					"stateMutability": "nonpayable",
					"type": "function"
				},
				{
					"inputs": [],
					"name": "version",
					"outputs": [
						{
							"internalType": "string",
							"name": "",
							"type": "string"
						}
					],
					"stateMutability": "view",
					"type": "function"
				},
				{
					"inputs": [],
					"name": "whitelistContract",
					"outputs": [
						{
							"internalType": "contract Whitelist",
							"name": "",
							"type": "address"
						}
					],
					"stateMutability": "view",
					"type": "function"
				}
			],
			"devdoc": {
				"details": "ERC20 token implementation with additional features such as whitelisting, freezing accounts, and price retrieval from Uniswap V3.",
				"errors": {
					"ERC20InsufficientAllowance(address,uint256,uint256)": [
						{
							"details": "Indicates a failure with the `spender`’s `allowance`. Used in transfers.",
							"params": {
								"allowance": "Amount of tokens a `spender` is allowed to operate with.",
								"needed": "Minimum amount required to perform a transfer.",
								"spender": "Address that may be allowed to operate on tokens without being their owner."
							}
						}
					],
					"ERC20InsufficientBalance(address,uint256,uint256)": [
						{
							"details": "Indicates an error related to the current `balance` of a `sender`. Used in transfers.",
							"params": {
								"balance": "Current balance for the interacting account.",
								"needed": "Minimum amount required to perform a transfer.",
								"sender": "Address whose tokens are being transferred."
							}
						}
					],
					"ERC20InvalidApprover(address)": [
						{
							"details": "Indicates a failure with the `approver` of a token to be approved. Used in approvals.",
							"params": {
								"approver": "Address initiating an approval operation."
							}
						}
					],
					"ERC20InvalidReceiver(address)": [
						{
							"details": "Indicates a failure with the token `receiver`. Used in transfers.",
							"params": {
								"receiver": "Address to which tokens are being transferred."
							}
						}
					],
					"ERC20InvalidSender(address)": [
						{
							"details": "Indicates a failure with the token `sender`. Used in transfers.",
							"params": {
								"sender": "Address whose tokens are being transferred."
							}
						}
					],
					"ERC20InvalidSpender(address)": [
						{
							"details": "Indicates a failure with the `spender` to be approved. Used in approvals.",
							"params": {
								"spender": "Address that may be allowed to operate on tokens without being their owner."
							}
						}
					],
					"OwnableInvalidOwner(address)": [
						{
							"details": "The owner is not a valid owner account. (eg. `address(0)`)"
						}
					],
					"OwnableUnauthorizedAccount(address)": [
						{
							"details": "The caller account is not authorized to perform an operation."
						}
					]
				},
				"events": {
					"Approval(address,address,uint256)": {
						"details": "Emitted when the allowance of a `spender` for an `owner` is set by a call to {approve}. `value` is the new allowance."
					},
					"Transfer(address,address,uint256)": {
						"details": "Emitted when `value` tokens are moved from one account (`from`) to another (`to`). Note that `value` may be zero."
					}
				},
				"kind": "dev",
				"methods": {
					"allowance(address,address)": {
						"details": "See {IERC20-allowance}."
					},
					"approve(address,uint256)": {
						"details": "See {IERC20-approve}. NOTE: If `value` is the maximum `uint256`, the allowance is not updated on `transferFrom`. This is semantically equivalent to an infinite approval. Requirements: - `spender` cannot be the zero address."
					},
					"balanceOf(address)": {
						"details": "See {IERC20-balanceOf}."
					},
					"balanceOfUser(address)": {
						"details": "Returns the balance of a specified user.",
						"params": {
							"user": "Address of the user to check balance"
						},
						"returns": {
							"_0": "balance Amount of tokens held by the user"
						}
					},
					"compliance()": {
						"details": "Returns the compliance address.",
						"returns": {
							"_0": "address The compliance address (currently returns zero)"
						}
					},
					"constructor": {
						"details": "Constructor to initialize the token and its associated contracts.",
						"params": {
							"_uniswapPool": "Address of the Uniswap V3 pool for price retrieval",
							"_whitelist": "Array of addresses to be added to the whitelist"
						}
					},
					"decimals()": {
						"details": "Returns the number of decimal places used by the token.",
						"returns": {
							"_0": "uint8 The number of decimal places (always returns 0 for this token)."
						}
					},
					"getCurrentPrice()": {
						"details": "Retrieves the current price from the price oracle.",
						"returns": {
							"_0": "price Current price of the token"
						}
					},
					"getFrozenTokens(address)": {
						"details": "Returns the number of frozen tokens for a user.",
						"params": {
							"userAddress": "Address of the user to check"
						},
						"returns": {
							"_0": "frozenTokens Amount of frozen tokens (currently returns zero)"
						}
					},
					"identityRegistry()": {
						"details": "Returns the identity registry address.",
						"returns": {
							"_0": "address The identity registry address (currently returns zero)"
						}
					},
					"isFrozen(address)": {
						"details": "Checks if a user is frozen.",
						"params": {
							"userAddress": "Address of the user to check"
						},
						"returns": {
							"_0": "frozen Indicates if the user is frozen"
						}
					},
					"mint(address,uint256)": {
						"details": "Mints new tokens to a specified address, if the address is whitelisted.",
						"params": {
							"amount": "Amount of tokens to mint",
							"to": "Address to receive the minted tokens"
						}
					},
					"name()": {
						"details": "Returns the name of the token."
					},
					"onchainID()": {
						"details": "Returns the on-chain ID of the contract.",
						"returns": {
							"_0": "address The address of the contract"
						}
					},
					"owner()": {
						"details": "Returns the address of the current owner."
					},
					"paused()": {
						"details": "Checks if the contract is paused.",
						"returns": {
							"_0": "paused Indicates if the contract is paused (always returns false)"
						}
					},
					"renounceOwnership()": {
						"details": "Leaves the contract without owner. It will not be possible to call `onlyOwner` functions. Can only be called by the current owner. NOTE: Renouncing ownership will leave the contract without an owner, thereby disabling any functionality that is only available to the owner."
					},
					"symbol()": {
						"details": "Returns the symbol of the token, usually a shorter version of the name."
					},
					"totalSupply()": {
						"details": "See {IERC20-totalSupply}."
					},
					"transfer(address,uint256)": {
						"details": "Transfers tokens to a specified address.",
						"params": {
							"amount": "Amount of tokens to transfer",
							"recipient": "Address to receive the tokens"
						},
						"returns": {
							"_0": "success Indicates if the transfer was successful"
						}
					},
					"transferFrom(address,address,uint256)": {
						"details": "Transfers tokens from one address to another.",
						"params": {
							"amount": "Amount of tokens to transfer",
							"recipient": "Address to receive the tokens",
							"sender": "Address to send tokens from"
						},
						"returns": {
							"_0": "success Indicates if the transfer was successful"
						}
					},
					"transferOwnership(address)": {
						"details": "Transfers ownership of the contract to a new account (`newOwner`). Can only be called by the current owner."
					},
					"version()": {
						"details": "Returns the version of the contract.",
						"returns": {
							"_0": "version The version string"
						}
					}
				},
				"title": "CCKToken",
				"version": 1
			},
			"evm": {
				"assembly": "    /* \"contracts/CCK/Token/CCKToken_flattened.sol\":54898:60430  contract CCKToken is ERC20, Ownable, IERC3643 {... */\n  mstore(0x40, 0x80)\n    /* \"contracts/CCK/Token/CCKToken_flattened.sol\":55589:56168  constructor(address[] memory _whitelist, address _uniswapPool) ... */\n  callvalue\n  dup1\n  iszero\n  tag_1\n  jumpi\n  revert(0x00, 0x00)\ntag_1:\n  pop\n  mload(0x40)\n  sub(codesize, bytecodeSize)\n  dup1\n  bytecodeSize\n  dup4\n  codecopy\n  dup2\n  dup2\n  add\n  0x40\n  mstore\n  dup2\n  add\n  swap1\n  tag_2\n  swap2\n  swap1\n  tag_3\n  jump\t// in\ntag_2:\n    /* \"contracts/CCK/Token/CCKToken_flattened.sol\":55698:55708  msg.sender */\n  caller\n    /* \"contracts/CCK/Token/CCKToken_flattened.sol\":12451:12564  constructor(string memory name_, string memory symbol_) {... */\n  mload(0x40)\n  dup1\n  0x40\n  add\n  0x40\n  mstore\n  dup1\n  0x03\n  dup2\n  mstore\n  0x20\n  add\n  0x43434b0000000000000000000000000000000000000000000000000000000000\n  dup2\n  mstore\n  pop\n  mload(0x40)\n  dup1\n  0x40\n  add\n  0x40\n  mstore\n  dup1\n  0x03\n  dup2\n  mstore\n  0x20\n  add\n  0x43434b0000000000000000000000000000000000000000000000000000000000\n  dup2\n  mstore\n  pop\n    /* \"contracts/CCK/Token/CCKToken_flattened.sol\":12525:12530  name_ */\n  dup2\n    /* \"contracts/CCK/Token/CCKToken_flattened.sol\":12517:12522  _name */\n  0x03\n    /* \"contracts/CCK/Token/CCKToken_flattened.sol\":12517:12530  _name = name_ */\n  swap1\n  dup2\n  tag_8\n  swap2\n  swap1\n  tag_9\n  jump\t// in\ntag_8:\n  pop\n    /* \"contracts/CCK/Token/CCKToken_flattened.sol\":12550:12557  symbol_ */\n  dup1\n    /* \"contracts/CCK/Token/CCKToken_flattened.sol\":12540:12547  _symbol */\n  0x04\n    /* \"contracts/CCK/Token/CCKToken_flattened.sol\":12540:12557  _symbol = symbol_ */\n  swap1\n  dup2\n  tag_10\n  swap2\n  swap1\n  tag_9\n  jump\t// in\ntag_10:\n  pop\n    /* \"contracts/CCK/Token/CCKToken_flattened.sol\":12451:12564  constructor(string memory name_, string memory symbol_) {... */\n  pop\n  pop\n    /* \"contracts/CCK/Token/CCKToken_flattened.sol\":23018:23019  0 */\n  0x00\n    /* \"contracts/CCK/Token/CCKToken_flattened.sol\":22994:23020  initialOwner == address(0) */\n  0xffffffffffffffffffffffffffffffffffffffff\n  and\n    /* \"contracts/CCK/Token/CCKToken_flattened.sol\":22994:23006  initialOwner */\n  dup2\n    /* \"contracts/CCK/Token/CCKToken_flattened.sol\":22994:23020  initialOwner == address(0) */\n  0xffffffffffffffffffffffffffffffffffffffff\n  and\n  sub\n    /* \"contracts/CCK/Token/CCKToken_flattened.sol\":22990:23085  if (initialOwner == address(0)) {... */\n  tag_12\n  jumpi\n    /* \"contracts/CCK/Token/CCKToken_flattened.sol\":23071:23072  0 */\n  0x00\n    /* \"contracts/CCK/Token/CCKToken_flattened.sol\":23043:23074  OwnableInvalidOwner(address(0)) */\n  mload(0x40)\n  0x1e4fbdf700000000000000000000000000000000000000000000000000000000\n  dup2\n  mstore\n  0x04\n  add\n  tag_13\n  swap2\n  swap1\n  tag_14\n  jump\t// in\ntag_13:\n  mload(0x40)\n  dup1\n  swap2\n  sub\n  swap1\n  revert\n    /* \"contracts/CCK/Token/CCKToken_flattened.sol\":22990:23085  if (initialOwner == address(0)) {... */\ntag_12:\n    /* \"contracts/CCK/Token/CCKToken_flattened.sol\":23094:23126  _transferOwnership(initialOwner) */\n  tag_15\n    /* \"contracts/CCK/Token/CCKToken_flattened.sol\":23113:23125  initialOwner */\n  dup2\n    /* \"contracts/CCK/Token/CCKToken_flattened.sol\":23094:23112  _transferOwnership */\n  shl(0x20, tag_16)\n    /* \"contracts/CCK/Token/CCKToken_flattened.sol\":23094:23126  _transferOwnership(initialOwner) */\n  0x20\n  shr\n  jump\t// in\ntag_15:\n    /* \"contracts/CCK/Token/CCKToken_flattened.sol\":22946:23133  constructor(address initialOwner) {... */\n  pop\n    /* \"contracts/CCK/Token/CCKToken_flattened.sol\":55745:55760  new Whitelist() */\n  mload(0x40)\n  tag_18\n  swap1\n  tag_19\n  jump\t// in\ntag_18:\n  mload(0x40)\n  dup1\n  swap2\n  sub\n  swap1\n  0x00\n  create\n  dup1\n  iszero\n  dup1\n  iszero\n  tag_20\n  jumpi\n  returndatacopy(0x00, 0x00, returndatasize)\n  revert(0x00, returndatasize)\ntag_20:\n  pop\n    /* \"contracts/CCK/Token/CCKToken_flattened.sol\":55725:55742  whitelistContract */\n  0x07\n  0x00\n    /* \"contracts/CCK/Token/CCKToken_flattened.sol\":55725:55760  whitelistContract = new Whitelist() */\n  0x0100\n  exp\n  dup2\n  sload\n  dup2\n  0xffffffffffffffffffffffffffffffffffffffff\n  mul\n  not\n  and\n  swap1\n  dup4\n  0xffffffffffffffffffffffffffffffffffffffff\n  and\n  mul\n  or\n  swap1\n  sstore\n  pop\n    /* \"contracts/CCK/Token/CCKToken_flattened.sol\":55790:55805  new Freezable() */\n  mload(0x40)\n  tag_21\n  swap1\n  tag_22\n  jump\t// in\ntag_21:\n  mload(0x40)\n  dup1\n  swap2\n  sub\n  swap1\n  0x00\n  create\n  dup1\n  iszero\n  dup1\n  iszero\n  tag_23\n  jumpi\n  returndatacopy(0x00, 0x00, returndatasize)\n  revert(0x00, returndatasize)\ntag_23:\n  pop\n    /* \"contracts/CCK/Token/CCKToken_flattened.sol\":55770:55787  freezableContract */\n  0x08\n  0x00\n    /* \"contracts/CCK/Token/CCKToken_flattened.sol\":55770:55805  freezableContract = new Freezable() */\n  0x0100\n  exp\n  dup2\n  sload\n  dup2\n  0xffffffffffffffffffffffffffffffffffffffff\n  mul\n  not\n  and\n  swap1\n  dup4\n  0xffffffffffffffffffffffffffffffffffffffff\n  and\n  mul\n  or\n  swap1\n  sstore\n  pop\n    /* \"contracts/CCK/Token/CCKToken_flattened.sol\":55845:55857  _uniswapPool */\n  dup1\n    /* \"contracts/CCK/Token/CCKToken_flattened.sol\":55829:55858  new PriceOracle(_uniswapPool) */\n  mload(0x40)\n  tag_24\n  swap1\n  tag_25\n  jump\t// in\ntag_24:\n  tag_26\n  swap2\n  swap1\n  tag_14\n  jump\t// in\ntag_26:\n  mload(0x40)\n  dup1\n  swap2\n  sub\n  swap1\n  0x00\n  create\n  dup1\n  iszero\n  dup1\n  iszero\n  tag_27\n  jumpi\n  returndatacopy(0x00, 0x00, returndatasize)\n  revert(0x00, returndatasize)\ntag_27:\n  pop\n    /* \"contracts/CCK/Token/CCKToken_flattened.sol\":55815:55826  priceOracle */\n  0x09\n  0x00\n    /* \"contracts/CCK/Token/CCKToken_flattened.sol\":55815:55858  priceOracle = new PriceOracle(_uniswapPool) */\n  0x0100\n  exp\n  dup2\n  sload\n  dup2\n  0xffffffffffffffffffffffffffffffffffffffff\n  mul\n  not\n  and\n  swap1\n  dup4\n  0xffffffffffffffffffffffffffffffffffffffff\n  and\n  mul\n  or\n  swap1\n  sstore\n  pop\n    /* \"contracts/CCK/Token/CCKToken_flattened.sol\":55897:55898  0 */\n  0x00\n    /* \"contracts/CCK/Token/CCKToken_flattened.sol\":55877:55887  _whitelist */\n  dup3\n    /* \"contracts/CCK/Token/CCKToken_flattened.sol\":55877:55894  _whitelist.length */\n  mload\n    /* \"contracts/CCK/Token/CCKToken_flattened.sol\":55877:55898  _whitelist.length > 0 */\n  gt\n    /* \"contracts/CCK/Token/CCKToken_flattened.sol\":55869:55944  require(_whitelist.length > 0, \"At least one whitelisted address required\") */\n  tag_28\n  jumpi\n  mload(0x40)\n  0x08c379a000000000000000000000000000000000000000000000000000000000\n  dup2\n  mstore\n  0x04\n  add\n  tag_29\n  swap1\n  tag_30\n  jump\t// in\ntag_29:\n  mload(0x40)\n  dup1\n  swap2\n  sub\n  swap1\n  revert\ntag_28:\n    /* \"contracts/CCK/Token/CCKToken_flattened.sol\":55959:55968  uint256 i */\n  0x00\n    /* \"contracts/CCK/Token/CCKToken_flattened.sol\":55971:55972  0 */\n  0x00\n    /* \"contracts/CCK/Token/CCKToken_flattened.sol\":55959:55972  uint256 i = 0 */\n  swap1\n  pop\n    /* \"contracts/CCK/Token/CCKToken_flattened.sol\":55954:56074  for (uint256 i = 0; i < _whitelist.length; i++) {... */\ntag_31:\n    /* \"contracts/CCK/Token/CCKToken_flattened.sol\":55978:55988  _whitelist */\n  dup3\n    /* \"contracts/CCK/Token/CCKToken_flattened.sol\":55978:55995  _whitelist.length */\n  mload\n    /* \"contracts/CCK/Token/CCKToken_flattened.sol\":55974:55975  i */\n  dup2\n    /* \"contracts/CCK/Token/CCKToken_flattened.sol\":55974:55995  i < _whitelist.length */\n  lt\n    /* \"contracts/CCK/Token/CCKToken_flattened.sol\":55954:56074  for (uint256 i = 0; i < _whitelist.length; i++) {... */\n  iszero\n  tag_32\n  jumpi\n    /* \"contracts/CCK/Token/CCKToken_flattened.sol\":56016:56033  whitelistContract */\n  0x07\n  0x00\n  swap1\n  sload\n  swap1\n  0x0100\n  exp\n  swap1\n  div\n  0xffffffffffffffffffffffffffffffffffffffff\n  and\n    /* \"contracts/CCK/Token/CCKToken_flattened.sol\":56016:56048  whitelistContract.addToWhitelist */\n  0xffffffffffffffffffffffffffffffffffffffff\n  and\n  0xe43252d7\n    /* \"contracts/CCK/Token/CCKToken_flattened.sol\":56049:56059  _whitelist */\n  dup5\n    /* \"contracts/CCK/Token/CCKToken_flattened.sol\":56060:56061  i */\n  dup4\n    /* \"contracts/CCK/Token/CCKToken_flattened.sol\":56049:56062  _whitelist[i] */\n  dup2\n  mload\n  dup2\n  lt\n  tag_34\n  jumpi\n  tag_35\n  tag_36\n  jump\t// in\ntag_35:\ntag_34:\n  0x20\n  mul\n  0x20\n  add\n  add\n  mload\n    /* \"contracts/CCK/Token/CCKToken_flattened.sol\":56016:56063  whitelistContract.addToWhitelist(_whitelist[i]) */\n  mload(0x40)\n  dup3\n  0xffffffff\n  and\n  0xe0\n  shl\n  dup2\n  mstore\n  0x04\n  add\n  tag_37\n  swap2\n  swap1\n  tag_14\n  jump\t// in\ntag_37:\n  0x00\n  mload(0x40)\n  dup1\n  dup4\n  sub\n  dup2\n  0x00\n  dup8\n  dup1\n  extcodesize\n  iszero\n  dup1\n  iszero\n  tag_38\n  jumpi\n  revert(0x00, 0x00)\ntag_38:\n  pop\n  gas\n  call\n  iszero\n  dup1\n  iszero\n  tag_40\n  jumpi\n  returndatacopy(0x00, 0x00, returndatasize)\n  revert(0x00, returndatasize)\ntag_40:\n  pop\n  pop\n  pop\n  pop\n    /* \"contracts/CCK/Token/CCKToken_flattened.sol\":55997:56000  i++ */\n  dup1\n  dup1\n  0x01\n  add\n  swap2\n  pop\n  pop\n    /* \"contracts/CCK/Token/CCKToken_flattened.sol\":55954:56074  for (uint256 i = 0; i < _whitelist.length; i++) {... */\n  jump(tag_31)\ntag_32:\n  pop\n    /* \"contracts/CCK/Token/CCKToken_flattened.sol\":56084:56115  _mint(msg.sender, TOTAL_SUPPLY) */\n  tag_41\n    /* \"contracts/CCK/Token/CCKToken_flattened.sol\":56090:56100  msg.sender */\n  caller\n    /* \"contracts/CCK/Token/CCKToken_flattened.sol\":54989:55005  500_000 * 10**18 */\n  0x69e10de76676d0800000\n    /* \"contracts/CCK/Token/CCKToken_flattened.sol\":56084:56089  _mint */\n  shl(0x20, tag_42)\n    /* \"contracts/CCK/Token/CCKToken_flattened.sol\":56084:56115  _mint(msg.sender, TOTAL_SUPPLY) */\n  0x20\n  shr\n  jump\t// in\ntag_41:\n    /* \"contracts/CCK/Token/CCKToken_flattened.sol\":55589:56168  constructor(address[] memory _whitelist, address _uniswapPool) ... */\n  pop\n  pop\n    /* \"contracts/CCK/Token/CCKToken_flattened.sol\":54898:60430  contract CCKToken is ERC20, Ownable, IERC3643 {... */\n  jump(tag_43)\n    /* \"contracts/CCK/Token/CCKToken_flattened.sol\":24633:24820  function _transferOwnership(address newOwner) internal virtual {... */\ntag_16:\n    /* \"contracts/CCK/Token/CCKToken_flattened.sol\":24706:24722  address oldOwner */\n  0x00\n    /* \"contracts/CCK/Token/CCKToken_flattened.sol\":24725:24731  _owner */\n  0x05\n  0x00\n  swap1\n  sload\n  swap1\n  0x0100\n  exp\n  swap1\n  div\n  0xffffffffffffffffffffffffffffffffffffffff\n  and\n    /* \"contracts/CCK/Token/CCKToken_flattened.sol\":24706:24731  address oldOwner = _owner */\n  swap1\n  pop\n    /* \"contracts/CCK/Token/CCKToken_flattened.sol\":24750:24758  newOwner */\n  dup2\n    /* \"contracts/CCK/Token/CCKToken_flattened.sol\":24741:24747  _owner */\n  0x05\n  0x00\n    /* \"contracts/CCK/Token/CCKToken_flattened.sol\":24741:24758  _owner = newOwner */\n  0x0100\n  exp\n  dup2\n  sload\n  dup2\n  0xffffffffffffffffffffffffffffffffffffffff\n  mul\n  not\n  and\n  swap1\n  dup4\n  0xffffffffffffffffffffffffffffffffffffffff\n  and\n  mul\n  or\n  swap1\n  sstore\n  pop\n    /* \"contracts/CCK/Token/CCKToken_flattened.sol\":24804:24812  newOwner */\n  dup2\n    /* \"contracts/CCK/Token/CCKToken_flattened.sol\":24773:24813  OwnershipTransferred(oldOwner, newOwner) */\n  0xffffffffffffffffffffffffffffffffffffffff\n  and\n    /* \"contracts/CCK/Token/CCKToken_flattened.sol\":24794:24802  oldOwner */\n  dup2\n    /* \"contracts/CCK/Token/CCKToken_flattened.sol\":24773:24813  OwnershipTransferred(oldOwner, newOwner) */\n  0xffffffffffffffffffffffffffffffffffffffff\n  and\n  0x8be0079c531659141344cd1fd0a4f28419497f9722a3daafe3b4186f6b6457e0\n  mload(0x40)\n  mload(0x40)\n  dup1\n  swap2\n  sub\n  swap1\n  log3\n    /* \"contracts/CCK/Token/CCKToken_flattened.sol\":24696:24820  {... */\n  pop\n    /* \"contracts/CCK/Token/CCKToken_flattened.sol\":24633:24820  function _transferOwnership(address newOwner) internal virtual {... */\n  pop\n  jump\t// out\n    /* \"contracts/CCK/Token/CCKToken_flattened.sol\":18308:18516  function _mint(address account, uint256 value) internal {... */\ntag_42:\n    /* \"contracts/CCK/Token/CCKToken_flattened.sol\":18397:18398  0 */\n  0x00\n    /* \"contracts/CCK/Token/CCKToken_flattened.sol\":18378:18399  account == address(0) */\n  0xffffffffffffffffffffffffffffffffffffffff\n  and\n    /* \"contracts/CCK/Token/CCKToken_flattened.sol\":18378:18385  account */\n  dup3\n    /* \"contracts/CCK/Token/CCKToken_flattened.sol\":18378:18399  account == address(0) */\n  0xffffffffffffffffffffffffffffffffffffffff\n  and\n  sub\n    /* \"contracts/CCK/Token/CCKToken_flattened.sol\":18374:18465  if (account == address(0)) {... */\n  tag_46\n  jumpi\n    /* \"contracts/CCK/Token/CCKToken_flattened.sol\":18451:18452  0 */\n  0x00\n    /* \"contracts/CCK/Token/CCKToken_flattened.sol\":18422:18454  ERC20InvalidReceiver(address(0)) */\n  mload(0x40)\n  0xec442f0500000000000000000000000000000000000000000000000000000000\n  dup2\n  mstore\n  0x04\n  add\n  tag_47\n  swap2\n  swap1\n  tag_14\n  jump\t// in\ntag_47:\n  mload(0x40)\n  dup1\n  swap2\n  sub\n  swap1\n  revert\n    /* \"contracts/CCK/Token/CCKToken_flattened.sol\":18374:18465  if (account == address(0)) {... */\ntag_46:\n    /* \"contracts/CCK/Token/CCKToken_flattened.sol\":18474:18509  _update(address(0), account, value) */\n  tag_48\n    /* \"contracts/CCK/Token/CCKToken_flattened.sol\":18490:18491  0 */\n  0x00\n    /* \"contracts/CCK/Token/CCKToken_flattened.sol\":18494:18501  account */\n  dup4\n    /* \"contracts/CCK/Token/CCKToken_flattened.sol\":18503:18508  value */\n  dup4\n    /* \"contracts/CCK/Token/CCKToken_flattened.sol\":18474:18481  _update */\n  shl(0x20, tag_49)\n    /* \"contracts/CCK/Token/CCKToken_flattened.sol\":18474:18509  _update(address(0), account, value) */\n  0x20\n  shr\n  jump\t// in\ntag_48:\n    /* \"contracts/CCK/Token/CCKToken_flattened.sol\":18308:18516  function _mint(address account, uint256 value) internal {... */\n  pop\n  pop\n  jump\t// out\n    /* \"contracts/CCK/Token/CCKToken_flattened.sol\":16858:17965  function _update(address from, address to, uint256 value) internal virtual {... */\ntag_49:\n    /* \"contracts/CCK/Token/CCKToken_flattened.sol\":16963:16964  0 */\n  0x00\n    /* \"contracts/CCK/Token/CCKToken_flattened.sol\":16947:16965  from == address(0) */\n  0xffffffffffffffffffffffffffffffffffffffff\n  and\n    /* \"contracts/CCK/Token/CCKToken_flattened.sol\":16947:16951  from */\n  dup4\n    /* \"contracts/CCK/Token/CCKToken_flattened.sol\":16947:16965  from == address(0) */\n  0xffffffffffffffffffffffffffffffffffffffff\n  and\n  sub\n    /* \"contracts/CCK/Token/CCKToken_flattened.sol\":16943:17483  if (from == address(0)) {... */\n  tag_51\n  jumpi\n    /* \"contracts/CCK/Token/CCKToken_flattened.sol\":17099:17104  value */\n  dup1\n    /* \"contracts/CCK/Token/CCKToken_flattened.sol\":17083:17095  _totalSupply */\n  0x02\n  0x00\n    /* \"contracts/CCK/Token/CCKToken_flattened.sol\":17083:17104  _totalSupply += value */\n  dup3\n  dup3\n  sload\n  tag_52\n  swap2\n  swap1\n  tag_53\n  jump\t// in\ntag_52:\n  swap3\n  pop\n  pop\n  dup2\n  swap1\n  sstore\n  pop\n    /* \"contracts/CCK/Token/CCKToken_flattened.sol\":16943:17483  if (from == address(0)) {... */\n  jump(tag_54)\ntag_51:\n    /* \"contracts/CCK/Token/CCKToken_flattened.sol\":17135:17154  uint256 fromBalance */\n  0x00\n    /* \"contracts/CCK/Token/CCKToken_flattened.sol\":17157:17166  _balances */\n  0x00\n    /* \"contracts/CCK/Token/CCKToken_flattened.sol\":17157:17172  _balances[from] */\n  0x00\n    /* \"contracts/CCK/Token/CCKToken_flattened.sol\":17167:17171  from */\n  dup6\n    /* \"contracts/CCK/Token/CCKToken_flattened.sol\":17157:17172  _balances[from] */\n  0xffffffffffffffffffffffffffffffffffffffff\n  and\n  0xffffffffffffffffffffffffffffffffffffffff\n  and\n  dup2\n  mstore\n  0x20\n  add\n  swap1\n  dup2\n  mstore\n  0x20\n  add\n  0x00\n  keccak256\n  sload\n    /* \"contracts/CCK/Token/CCKToken_flattened.sol\":17135:17172  uint256 fromBalance = _balances[from] */\n  swap1\n  pop\n    /* \"contracts/CCK/Token/CCKToken_flattened.sol\":17204:17209  value */\n  dup2\n    /* \"contracts/CCK/Token/CCKToken_flattened.sol\":17190:17201  fromBalance */\n  dup2\n    /* \"contracts/CCK/Token/CCKToken_flattened.sol\":17190:17209  fromBalance < value */\n  lt\n    /* \"contracts/CCK/Token/CCKToken_flattened.sol\":17186:17301  if (fromBalance < value) {... */\n  iszero\n  tag_55\n  jumpi\n    /* \"contracts/CCK/Token/CCKToken_flattened.sol\":17261:17265  from */\n  dup4\n    /* \"contracts/CCK/Token/CCKToken_flattened.sol\":17267:17278  fromBalance */\n  dup2\n    /* \"contracts/CCK/Token/CCKToken_flattened.sol\":17280:17285  value */\n  dup4\n    /* \"contracts/CCK/Token/CCKToken_flattened.sol\":17236:17286  ERC20InsufficientBalance(from, fromBalance, value) */\n  mload(0x40)\n  0xe450d38c00000000000000000000000000000000000000000000000000000000\n  dup2\n  mstore\n  0x04\n  add\n  tag_56\n  swap4\n  swap3\n  swap2\n  swap1\n  tag_57\n  jump\t// in\ntag_56:\n  mload(0x40)\n  dup1\n  swap2\n  sub\n  swap1\n  revert\n    /* \"contracts/CCK/Token/CCKToken_flattened.sol\":17186:17301  if (fromBalance < value) {... */\ntag_55:\n    /* \"contracts/CCK/Token/CCKToken_flattened.sol\":17453:17458  value */\n  dup2\n    /* \"contracts/CCK/Token/CCKToken_flattened.sol\":17439:17450  fromBalance */\n  dup2\n    /* \"contracts/CCK/Token/CCKToken_flattened.sol\":17439:17458  fromBalance - value */\n  sub\n    /* \"contracts/CCK/Token/CCKToken_flattened.sol\":17421:17430  _balances */\n  0x00\n    /* \"contracts/CCK/Token/CCKToken_flattened.sol\":17421:17436  _balances[from] */\n  0x00\n    /* \"contracts/CCK/Token/CCKToken_flattened.sol\":17431:17435  from */\n  dup7\n    /* \"contracts/CCK/Token/CCKToken_flattened.sol\":17421:17436  _balances[from] */\n  0xffffffffffffffffffffffffffffffffffffffff\n  and\n  0xffffffffffffffffffffffffffffffffffffffff\n  and\n  dup2\n  mstore\n  0x20\n  add\n  swap1\n  dup2\n  mstore\n  0x20\n  add\n  0x00\n  keccak256\n    /* \"contracts/CCK/Token/CCKToken_flattened.sol\":17421:17458  _balances[from] = fromBalance - value */\n  dup2\n  swap1\n  sstore\n  pop\n    /* \"contracts/CCK/Token/CCKToken_flattened.sol\":17121:17483  {... */\n  pop\n    /* \"contracts/CCK/Token/CCKToken_flattened.sol\":16943:17483  if (from == address(0)) {... */\ntag_54:\n    /* \"contracts/CCK/Token/CCKToken_flattened.sol\":17511:17512  0 */\n  0x00\n    /* \"contracts/CCK/Token/CCKToken_flattened.sol\":17497:17513  to == address(0) */\n  0xffffffffffffffffffffffffffffffffffffffff\n  and\n    /* \"contracts/CCK/Token/CCKToken_flattened.sol\":17497:17499  to */\n  dup3\n    /* \"contracts/CCK/Token/CCKToken_flattened.sol\":17497:17513  to == address(0) */\n  0xffffffffffffffffffffffffffffffffffffffff\n  and\n  sub\n    /* \"contracts/CCK/Token/CCKToken_flattened.sol\":17493:17918  if (to == address(0)) {... */\n  tag_58\n  jumpi\n    /* \"contracts/CCK/Token/CCKToken_flattened.sol\":17676:17681  value */\n  dup1\n    /* \"contracts/CCK/Token/CCKToken_flattened.sol\":17660:17672  _totalSupply */\n  0x02\n  0x00\n    /* \"contracts/CCK/Token/CCKToken_flattened.sol\":17660:17681  _totalSupply -= value */\n  dup3\n  dup3\n  sload\n  sub\n  swap3\n  pop\n  pop\n  dup2\n  swap1\n  sstore\n  pop\n    /* \"contracts/CCK/Token/CCKToken_flattened.sol\":17493:17918  if (to == address(0)) {... */\n  jump(tag_59)\ntag_58:\n    /* \"contracts/CCK/Token/CCKToken_flattened.sol\":17888:17893  value */\n  dup1\n    /* \"contracts/CCK/Token/CCKToken_flattened.sol\":17871:17880  _balances */\n  0x00\n    /* \"contracts/CCK/Token/CCKToken_flattened.sol\":17871:17884  _balances[to] */\n  0x00\n    /* \"contracts/CCK/Token/CCKToken_flattened.sol\":17881:17883  to */\n  dup5\n    /* \"contracts/CCK/Token/CCKToken_flattened.sol\":17871:17884  _balances[to] */\n  0xffffffffffffffffffffffffffffffffffffffff\n  and\n  0xffffffffffffffffffffffffffffffffffffffff\n  and\n  dup2\n  mstore\n  0x20\n  add\n  swap1\n  dup2\n  mstore\n  0x20\n  add\n  0x00\n  keccak256\n  0x00\n    /* \"contracts/CCK/Token/CCKToken_flattened.sol\":17871:17893  _balances[to] += value */\n  dup3\n  dup3\n  sload\n  add\n  swap3\n  pop\n  pop\n  dup2\n  swap1\n  sstore\n  pop\n    /* \"contracts/CCK/Token/CCKToken_flattened.sol\":17493:17918  if (to == address(0)) {... */\ntag_59:\n    /* \"contracts/CCK/Token/CCKToken_flattened.sol\":17948:17950  to */\n  dup2\n    /* \"contracts/CCK/Token/CCKToken_flattened.sol\":17933:17958  Transfer(from, to, value) */\n  0xffffffffffffffffffffffffffffffffffffffff\n  and\n    /* \"contracts/CCK/Token/CCKToken_flattened.sol\":17942:17946  from */\n  dup4\n    /* \"contracts/CCK/Token/CCKToken_flattened.sol\":17933:17958  Transfer(from, to, value) */\n  0xffffffffffffffffffffffffffffffffffffffff\n  and\n  0xddf252ad1be2c89b69c2b068fc378daa952ba7f163c4a11628f55a4df523b3ef\n    /* \"contracts/CCK/Token/CCKToken_flattened.sol\":17952:17957  value */\n  dup4\n    /* \"contracts/CCK/Token/CCKToken_flattened.sol\":17933:17958  Transfer(from, to, value) */\n  mload(0x40)\n  tag_60\n  swap2\n  swap1\n  tag_61\n  jump\t// in\ntag_60:\n  mload(0x40)\n  dup1\n  swap2\n  sub\n  swap1\n  log3\n    /* \"contracts/CCK/Token/CCKToken_flattened.sol\":16858:17965  function _update(address from, address to, uint256 value) internal virtual {... */\n  pop\n  pop\n  pop\n  jump\t// out\n    /* \"contracts/CCK/Token/CCKToken_flattened.sol\":54898:60430  contract CCKToken is ERC20, Ownable, IERC3643 {... */\ntag_19:\n  dataSize(sub_1)\n  dup1\n  dataOffset(sub_1)\n  dup4\n  codecopy\n  add\n  swap1\n  jump\t// out\ntag_22:\n  dataSize(sub_2)\n  dup1\n  dataOffset(sub_2)\n  dup4\n  codecopy\n  add\n  swap1\n  jump\t// out\ntag_25:\n  dataSize(sub_3)\n  dup1\n  dataOffset(sub_3)\n  dup4\n  codecopy\n  add\n  swap1\n  jump\t// out\n    /* \"#utility.yul\":7:82   */\ntag_62:\n    /* \"#utility.yul\":40:46   */\n  0x00\n    /* \"#utility.yul\":73:75   */\n  0x40\n    /* \"#utility.yul\":67:76   */\n  mload\n    /* \"#utility.yul\":57:76   */\n  swap1\n  pop\n    /* \"#utility.yul\":7:82   */\n  swap1\n  jump\t// out\n    /* \"#utility.yul\":88:205   */\ntag_63:\n    /* \"#utility.yul\":197:198   */\n  0x00\n    /* \"#utility.yul\":194:195   */\n  0x00\n    /* \"#utility.yul\":187:199   */\n  revert\n    /* \"#utility.yul\":211:328   */\ntag_64:\n    /* \"#utility.yul\":320:321   */\n  0x00\n    /* \"#utility.yul\":317:318   */\n  0x00\n    /* \"#utility.yul\":310:322   */\n  revert\n    /* \"#utility.yul\":334:451   */\ntag_65:\n    /* \"#utility.yul\":443:444   */\n  0x00\n    /* \"#utility.yul\":440:441   */\n  0x00\n    /* \"#utility.yul\":433:445   */\n  revert\n    /* \"#utility.yul\":457:559   */\ntag_66:\n    /* \"#utility.yul\":498:504   */\n  0x00\n    /* \"#utility.yul\":549:551   */\n  0x1f\n    /* \"#utility.yul\":545:552   */\n  not\n    /* \"#utility.yul\":540:542   */\n  0x1f\n    /* \"#utility.yul\":533:538   */\n  dup4\n    /* \"#utility.yul\":529:543   */\n  add\n    /* \"#utility.yul\":525:553   */\n  and\n    /* \"#utility.yul\":515:553   */\n  swap1\n  pop\n    /* \"#utility.yul\":457:559   */\n  swap2\n  swap1\n  pop\n  jump\t// out\n    /* \"#utility.yul\":565:745   */\ntag_67:\n    /* \"#utility.yul\":613:690   */\n  0x4e487b7100000000000000000000000000000000000000000000000000000000\n    /* \"#utility.yul\":610:611   */\n  0x00\n    /* \"#utility.yul\":603:691   */\n  mstore\n    /* \"#utility.yul\":710:714   */\n  0x41\n    /* \"#utility.yul\":707:708   */\n  0x04\n    /* \"#utility.yul\":700:715   */\n  mstore\n    /* \"#utility.yul\":734:738   */\n  0x24\n    /* \"#utility.yul\":731:732   */\n  0x00\n    /* \"#utility.yul\":724:739   */\n  revert\n    /* \"#utility.yul\":751:1032   */\ntag_68:\n    /* \"#utility.yul\":834:861   */\n  tag_111\n    /* \"#utility.yul\":856:860   */\n  dup3\n    /* \"#utility.yul\":834:861   */\n  tag_66\n  jump\t// in\ntag_111:\n    /* \"#utility.yul\":826:832   */\n  dup2\n    /* \"#utility.yul\":822:862   */\n  add\n    /* \"#utility.yul\":964:970   */\n  dup2\n    /* \"#utility.yul\":952:962   */\n  dup2\n    /* \"#utility.yul\":949:971   */\n  lt\n    /* \"#utility.yul\":928:946   */\n  0xffffffffffffffff\n    /* \"#utility.yul\":916:926   */\n  dup3\n    /* \"#utility.yul\":913:947   */\n  gt\n    /* \"#utility.yul\":910:972   */\n  or\n    /* \"#utility.yul\":907:995   */\n  iszero\n  tag_112\n  jumpi\n    /* \"#utility.yul\":975:993   */\n  tag_113\n  tag_67\n  jump\t// in\ntag_113:\n    /* \"#utility.yul\":907:995   */\ntag_112:\n    /* \"#utility.yul\":1015:1025   */\n  dup1\n    /* \"#utility.yul\":1011:1013   */\n  0x40\n    /* \"#utility.yul\":1004:1026   */\n  mstore\n    /* \"#utility.yul\":794:1032   */\n  pop\n    /* \"#utility.yul\":751:1032   */\n  pop\n  pop\n  jump\t// out\n    /* \"#utility.yul\":1038:1167   */\ntag_69:\n    /* \"#utility.yul\":1072:1078   */\n  0x00\n    /* \"#utility.yul\":1099:1119   */\n  tag_115\n  tag_62\n  jump\t// in\ntag_115:\n    /* \"#utility.yul\":1089:1119   */\n  swap1\n  pop\n    /* \"#utility.yul\":1128:1161   */\n  tag_116\n    /* \"#utility.yul\":1156:1160   */\n  dup3\n    /* \"#utility.yul\":1148:1154   */\n  dup3\n    /* \"#utility.yul\":1128:1161   */\n  tag_68\n  jump\t// in\ntag_116:\n    /* \"#utility.yul\":1038:1167   */\n  swap2\n  swap1\n  pop\n  jump\t// out\n    /* \"#utility.yul\":1173:1484   */\ntag_70:\n    /* \"#utility.yul\":1250:1254   */\n  0x00\n    /* \"#utility.yul\":1340:1358   */\n  0xffffffffffffffff\n    /* \"#utility.yul\":1332:1338   */\n  dup3\n    /* \"#utility.yul\":1329:1359   */\n  gt\n    /* \"#utility.yul\":1326:1382   */\n  iszero\n  tag_118\n  jumpi\n    /* \"#utility.yul\":1362:1380   */\n  tag_119\n  tag_67\n  jump\t// in\ntag_119:\n    /* \"#utility.yul\":1326:1382   */\ntag_118:\n    /* \"#utility.yul\":1412:1416   */\n  0x20\n    /* \"#utility.yul\":1404:1410   */\n  dup3\n    /* \"#utility.yul\":1400:1417   */\n  mul\n    /* \"#utility.yul\":1392:1417   */\n  swap1\n  pop\n    /* \"#utility.yul\":1472:1476   */\n  0x20\n    /* \"#utility.yul\":1466:1470   */\n  dup2\n    /* \"#utility.yul\":1462:1477   */\n  add\n    /* \"#utility.yul\":1454:1477   */\n  swap1\n  pop\n    /* \"#utility.yul\":1173:1484   */\n  swap2\n  swap1\n  pop\n  jump\t// out\n    /* \"#utility.yul\":1490:1607   */\ntag_71:\n    /* \"#utility.yul\":1599:1600   */\n  0x00\n    /* \"#utility.yul\":1596:1597   */\n  0x00\n    /* \"#utility.yul\":1589:1601   */\n  revert\n    /* \"#utility.yul\":1613:1739   */\ntag_72:\n    /* \"#utility.yul\":1650:1657   */\n  0x00\n    /* \"#utility.yul\":1690:1732   */\n  0xffffffffffffffffffffffffffffffffffffffff\n    /* \"#utility.yul\":1683:1688   */\n  dup3\n    /* \"#utility.yul\":1679:1733   */\n  and\n    /* \"#utility.yul\":1668:1733   */\n  swap1\n  pop\n    /* \"#utility.yul\":1613:1739   */\n  swap2\n  swap1\n  pop\n  jump\t// out\n    /* \"#utility.yul\":1745:1841   */\ntag_73:\n    /* \"#utility.yul\":1782:1789   */\n  0x00\n    /* \"#utility.yul\":1811:1835   */\n  tag_123\n    /* \"#utility.yul\":1829:1834   */\n  dup3\n    /* \"#utility.yul\":1811:1835   */\n  tag_72\n  jump\t// in\ntag_123:\n    /* \"#utility.yul\":1800:1835   */\n  swap1\n  pop\n    /* \"#utility.yul\":1745:1841   */\n  swap2\n  swap1\n  pop\n  jump\t// out\n    /* \"#utility.yul\":1847:1969   */\ntag_74:\n    /* \"#utility.yul\":1920:1944   */\n  tag_125\n    /* \"#utility.yul\":1938:1943   */\n  dup2\n    /* \"#utility.yul\":1920:1944   */\n  tag_73\n  jump\t// in\ntag_125:\n    /* \"#utility.yul\":1913:1918   */\n  dup2\n    /* \"#utility.yul\":1910:1945   */\n  eq\n    /* \"#utility.yul\":1900:1963   */\n  tag_126\n  jumpi\n    /* \"#utility.yul\":1959:1960   */\n  0x00\n    /* \"#utility.yul\":1956:1957   */\n  0x00\n    /* \"#utility.yul\":1949:1961   */\n  revert\n    /* \"#utility.yul\":1900:1963   */\ntag_126:\n    /* \"#utility.yul\":1847:1969   */\n  pop\n  jump\t// out\n    /* \"#utility.yul\":1975:2118   */\ntag_75:\n    /* \"#utility.yul\":2032:2037   */\n  0x00\n    /* \"#utility.yul\":2063:2069   */\n  dup2\n    /* \"#utility.yul\":2057:2070   */\n  mload\n    /* \"#utility.yul\":2048:2070   */\n  swap1\n  pop\n    /* \"#utility.yul\":2079:2112   */\n  tag_128\n    /* \"#utility.yul\":2106:2111   */\n  dup2\n    /* \"#utility.yul\":2079:2112   */\n  tag_74\n  jump\t// in\ntag_128:\n    /* \"#utility.yul\":1975:2118   */\n  swap3\n  swap2\n  pop\n  pop\n  jump\t// out\n    /* \"#utility.yul\":2141:2873   */\ntag_76:\n    /* \"#utility.yul\":2248:2253   */\n  0x00\n    /* \"#utility.yul\":2273:2354   */\n  tag_130\n    /* \"#utility.yul\":2289:2353   */\n  tag_131\n    /* \"#utility.yul\":2346:2352   */\n  dup5\n    /* \"#utility.yul\":2289:2353   */\n  tag_70\n  jump\t// in\ntag_131:\n    /* \"#utility.yul\":2273:2354   */\n  tag_69\n  jump\t// in\ntag_130:\n    /* \"#utility.yul\":2264:2354   */\n  swap1\n  pop\n    /* \"#utility.yul\":2374:2379   */\n  dup1\n    /* \"#utility.yul\":2403:2409   */\n  dup4\n    /* \"#utility.yul\":2396:2401   */\n  dup3\n    /* \"#utility.yul\":2389:2410   */\n  mstore\n    /* \"#utility.yul\":2437:2441   */\n  0x20\n    /* \"#utility.yul\":2430:2435   */\n  dup3\n    /* \"#utility.yul\":2426:2442   */\n  add\n    /* \"#utility.yul\":2419:2442   */\n  swap1\n  pop\n    /* \"#utility.yul\":2490:2494   */\n  0x20\n    /* \"#utility.yul\":2482:2488   */\n  dup5\n    /* \"#utility.yul\":2478:2495   */\n  mul\n    /* \"#utility.yul\":2470:2476   */\n  dup4\n    /* \"#utility.yul\":2466:2496   */\n  add\n    /* \"#utility.yul\":2519:2522   */\n  dup6\n    /* \"#utility.yul\":2511:2517   */\n  dup2\n    /* \"#utility.yul\":2508:2523   */\n  gt\n    /* \"#utility.yul\":2505:2627   */\n  iszero\n  tag_132\n  jumpi\n    /* \"#utility.yul\":2538:2617   */\n  tag_133\n  tag_71\n  jump\t// in\ntag_133:\n    /* \"#utility.yul\":2505:2627   */\ntag_132:\n    /* \"#utility.yul\":2653:2659   */\n  dup4\n    /* \"#utility.yul\":2636:2867   */\ntag_134:\n    /* \"#utility.yul\":2670:2676   */\n  dup2\n    /* \"#utility.yul\":2665:2668   */\n  dup2\n    /* \"#utility.yul\":2662:2677   */\n  lt\n    /* \"#utility.yul\":2636:2867   */\n  iszero\n  tag_136\n  jumpi\n    /* \"#utility.yul\":2745:2748   */\n  dup1\n    /* \"#utility.yul\":2774:2822   */\n  tag_137\n    /* \"#utility.yul\":2818:2821   */\n  dup9\n    /* \"#utility.yul\":2806:2816   */\n  dup3\n    /* \"#utility.yul\":2774:2822   */\n  tag_75\n  jump\t// in\ntag_137:\n    /* \"#utility.yul\":2769:2772   */\n  dup5\n    /* \"#utility.yul\":2762:2823   */\n  mstore\n    /* \"#utility.yul\":2852:2856   */\n  0x20\n    /* \"#utility.yul\":2847:2850   */\n  dup5\n    /* \"#utility.yul\":2843:2857   */\n  add\n    /* \"#utility.yul\":2836:2857   */\n  swap4\n  pop\n    /* \"#utility.yul\":2712:2867   */\n  pop\n    /* \"#utility.yul\":2696:2700   */\n  0x20\n    /* \"#utility.yul\":2691:2694   */\n  dup2\n    /* \"#utility.yul\":2687:2701   */\n  add\n    /* \"#utility.yul\":2680:2701   */\n  swap1\n  pop\n    /* \"#utility.yul\":2636:2867   */\n  jump(tag_134)\ntag_136:\n    /* \"#utility.yul\":2640:2661   */\n  pop\n    /* \"#utility.yul\":2254:2873   */\n  pop\n  pop\n    /* \"#utility.yul\":2141:2873   */\n  swap4\n  swap3\n  pop\n  pop\n  pop\n  jump\t// out\n    /* \"#utility.yul\":2896:3281   */\ntag_77:\n    /* \"#utility.yul\":2978:2983   */\n  0x00\n    /* \"#utility.yul\":3027:3030   */\n  dup3\n    /* \"#utility.yul\":3020:3024   */\n  0x1f\n    /* \"#utility.yul\":3012:3018   */\n  dup4\n    /* \"#utility.yul\":3008:3025   */\n  add\n    /* \"#utility.yul\":3004:3031   */\n  slt\n    /* \"#utility.yul\":2994:3116   */\n  tag_139\n  jumpi\n    /* \"#utility.yul\":3035:3114   */\n  tag_140\n  tag_65\n  jump\t// in\ntag_140:\n    /* \"#utility.yul\":2994:3116   */\ntag_139:\n    /* \"#utility.yul\":3145:3151   */\n  dup2\n    /* \"#utility.yul\":3139:3152   */\n  mload\n    /* \"#utility.yul\":3170:3275   */\n  tag_141\n    /* \"#utility.yul\":3271:3274   */\n  dup5\n    /* \"#utility.yul\":3263:3269   */\n  dup3\n    /* \"#utility.yul\":3256:3260   */\n  0x20\n    /* \"#utility.yul\":3248:3254   */\n  dup7\n    /* \"#utility.yul\":3244:3261   */\n  add\n    /* \"#utility.yul\":3170:3275   */\n  tag_76\n  jump\t// in\ntag_141:\n    /* \"#utility.yul\":3161:3275   */\n  swap2\n  pop\n    /* \"#utility.yul\":2984:3281   */\n  pop\n    /* \"#utility.yul\":2896:3281   */\n  swap3\n  swap2\n  pop\n  pop\n  jump\t// out\n    /* \"#utility.yul\":3287:3997   */\ntag_3:\n    /* \"#utility.yul\":3391:3397   */\n  0x00\n    /* \"#utility.yul\":3399:3405   */\n  0x00\n    /* \"#utility.yul\":3448:3450   */\n  0x40\n    /* \"#utility.yul\":3436:3445   */\n  dup4\n    /* \"#utility.yul\":3427:3434   */\n  dup6\n    /* \"#utility.yul\":3423:3446   */\n  sub\n    /* \"#utility.yul\":3419:3451   */\n  slt\n    /* \"#utility.yul\":3416:3535   */\n  iszero\n  tag_143\n  jumpi\n    /* \"#utility.yul\":3454:3533   */\n  tag_144\n  tag_63\n  jump\t// in\ntag_144:\n    /* \"#utility.yul\":3416:3535   */\ntag_143:\n    /* \"#utility.yul\":3595:3596   */\n  0x00\n    /* \"#utility.yul\":3584:3593   */\n  dup4\n    /* \"#utility.yul\":3580:3597   */\n  add\n    /* \"#utility.yul\":3574:3598   */\n  mload\n    /* \"#utility.yul\":3625:3643   */\n  0xffffffffffffffff\n    /* \"#utility.yul\":3617:3623   */\n  dup2\n    /* \"#utility.yul\":3614:3644   */\n  gt\n    /* \"#utility.yul\":3611:3728   */\n  iszero\n  tag_145\n  jumpi\n    /* \"#utility.yul\":3647:3726   */\n  tag_146\n  tag_64\n  jump\t// in\ntag_146:\n    /* \"#utility.yul\":3611:3728   */\ntag_145:\n    /* \"#utility.yul\":3752:3841   */\n  tag_147\n    /* \"#utility.yul\":3833:3840   */\n  dup6\n    /* \"#utility.yul\":3824:3830   */\n  dup3\n    /* \"#utility.yul\":3813:3822   */\n  dup7\n    /* \"#utility.yul\":3809:3831   */\n  add\n    /* \"#utility.yul\":3752:3841   */\n  tag_77\n  jump\t// in\ntag_147:\n    /* \"#utility.yul\":3742:3841   */\n  swap3\n  pop\n    /* \"#utility.yul\":3545:3851   */\n  pop\n    /* \"#utility.yul\":3890:3892   */\n  0x20\n    /* \"#utility.yul\":3916:3980   */\n  tag_148\n    /* \"#utility.yul\":3972:3979   */\n  dup6\n    /* \"#utility.yul\":3963:3969   */\n  dup3\n    /* \"#utility.yul\":3952:3961   */\n  dup7\n    /* \"#utility.yul\":3948:3970   */\n  add\n    /* \"#utility.yul\":3916:3980   */\n  tag_75\n  jump\t// in\ntag_148:\n    /* \"#utility.yul\":3906:3980   */\n  swap2\n  pop\n    /* \"#utility.yul\":3861:3990   */\n  pop\n    /* \"#utility.yul\":3287:3997   */\n  swap3\n  pop\n  swap3\n  swap1\n  pop\n  jump\t// out\n    /* \"#utility.yul\":4003:4102   */\ntag_78:\n    /* \"#utility.yul\":4055:4061   */\n  0x00\n    /* \"#utility.yul\":4089:4094   */\n  dup2\n    /* \"#utility.yul\":4083:4095   */\n  mload\n    /* \"#utility.yul\":4073:4095   */\n  swap1\n  pop\n    /* \"#utility.yul\":4003:4102   */\n  swap2\n  swap1\n  pop\n  jump\t// out\n    /* \"#utility.yul\":4108:4288   */\ntag_79:\n    /* \"#utility.yul\":4156:4233   */\n  0x4e487b7100000000000000000000000000000000000000000000000000000000\n    /* \"#utility.yul\":4153:4154   */\n  0x00\n    /* \"#utility.yul\":4146:4234   */\n  mstore\n    /* \"#utility.yul\":4253:4257   */\n  0x22\n    /* \"#utility.yul\":4250:4251   */\n  0x04\n    /* \"#utility.yul\":4243:4258   */\n  mstore\n    /* \"#utility.yul\":4277:4281   */\n  0x24\n    /* \"#utility.yul\":4274:4275   */\n  0x00\n    /* \"#utility.yul\":4267:4282   */\n  revert\n    /* \"#utility.yul\":4294:4614   */\ntag_80:\n    /* \"#utility.yul\":4338:4344   */\n  0x00\n    /* \"#utility.yul\":4375:4376   */\n  0x02\n    /* \"#utility.yul\":4369:4373   */\n  dup3\n    /* \"#utility.yul\":4365:4377   */\n  div\n    /* \"#utility.yul\":4355:4377   */\n  swap1\n  pop\n    /* \"#utility.yul\":4422:4423   */\n  0x01\n    /* \"#utility.yul\":4416:4420   */\n  dup3\n    /* \"#utility.yul\":4412:4424   */\n  and\n    /* \"#utility.yul\":4443:4461   */\n  dup1\n    /* \"#utility.yul\":4433:4514   */\n  tag_152\n  jumpi\n    /* \"#utility.yul\":4499:4503   */\n  0x7f\n    /* \"#utility.yul\":4491:4497   */\n  dup3\n    /* \"#utility.yul\":4487:4504   */\n  and\n    /* \"#utility.yul\":4477:4504   */\n  swap2\n  pop\n    /* \"#utility.yul\":4433:4514   */\ntag_152:\n    /* \"#utility.yul\":4561:4563   */\n  0x20\n    /* \"#utility.yul\":4553:4559   */\n  dup3\n    /* \"#utility.yul\":4550:4564   */\n  lt\n    /* \"#utility.yul\":4530:4548   */\n  dup2\n    /* \"#utility.yul\":4527:4565   */\n  sub\n    /* \"#utility.yul\":4524:4608   */\n  tag_153\n  jumpi\n    /* \"#utility.yul\":4580:4598   */\n  tag_154\n  tag_79\n  jump\t// in\ntag_154:\n    /* \"#utility.yul\":4524:4608   */\ntag_153:\n    /* \"#utility.yul\":4345:4614   */\n  pop\n    /* \"#utility.yul\":4294:4614   */\n  swap2\n  swap1\n  pop\n  jump\t// out\n    /* \"#utility.yul\":4620:4761   */\ntag_81:\n    /* \"#utility.yul\":4669:4673   */\n  0x00\n    /* \"#utility.yul\":4692:4695   */\n  dup2\n    /* \"#utility.yul\":4684:4695   */\n  swap1\n  pop\n    /* \"#utility.yul\":4715:4718   */\n  dup2\n    /* \"#utility.yul\":4712:4713   */\n  0x00\n    /* \"#utility.yul\":4705:4719   */\n  mstore\n    /* \"#utility.yul\":4749:4753   */\n  0x20\n    /* \"#utility.yul\":4746:4747   */\n  0x00\n    /* \"#utility.yul\":4736:4754   */\n  keccak256\n    /* \"#utility.yul\":4728:4754   */\n  swap1\n  pop\n    /* \"#utility.yul\":4620:4761   */\n  swap2\n  swap1\n  pop\n  jump\t// out\n    /* \"#utility.yul\":4767:4860   */\ntag_82:\n    /* \"#utility.yul\":4804:4810   */\n  0x00\n    /* \"#utility.yul\":4851:4853   */\n  0x20\n    /* \"#utility.yul\":4846:4848   */\n  0x1f\n    /* \"#utility.yul\":4839:4844   */\n  dup4\n    /* \"#utility.yul\":4835:4849   */\n  add\n    /* \"#utility.yul\":4831:4854   */\n  div\n    /* \"#utility.yul\":4821:4854   */\n  swap1\n  pop\n    /* \"#utility.yul\":4767:4860   */\n  swap2\n  swap1\n  pop\n  jump\t// out\n    /* \"#utility.yul\":4866:4973   */\ntag_83:\n    /* \"#utility.yul\":4910:4918   */\n  0x00\n    /* \"#utility.yul\":4960:4965   */\n  dup3\n    /* \"#utility.yul\":4954:4958   */\n  dup3\n    /* \"#utility.yul\":4950:4966   */\n  shl\n    /* \"#utility.yul\":4929:4966   */\n  swap1\n  pop\n    /* \"#utility.yul\":4866:4973   */\n  swap3\n  swap2\n  pop\n  pop\n  jump\t// out\n    /* \"#utility.yul\":4979:5372   */\ntag_84:\n    /* \"#utility.yul\":5048:5054   */\n  0x00\n    /* \"#utility.yul\":5098:5099   */\n  0x08\n    /* \"#utility.yul\":5086:5096   */\n  dup4\n    /* \"#utility.yul\":5082:5100   */\n  mul\n    /* \"#utility.yul\":5121:5218   */\n  tag_159\n    /* \"#utility.yul\":5151:5217   */\n  0xffffffffffffffffffffffffffffffffffffffffffffffffffffffffffffffff\n    /* \"#utility.yul\":5140:5149   */\n  dup3\n    /* \"#utility.yul\":5121:5218   */\n  tag_83\n  jump\t// in\ntag_159:\n    /* \"#utility.yul\":5239:5278   */\n  tag_160\n    /* \"#utility.yul\":5269:5277   */\n  dup7\n    /* \"#utility.yul\":5258:5267   */\n  dup4\n    /* \"#utility.yul\":5239:5278   */\n  tag_83\n  jump\t// in\ntag_160:\n    /* \"#utility.yul\":5227:5278   */\n  swap6\n  pop\n    /* \"#utility.yul\":5311:5315   */\n  dup1\n    /* \"#utility.yul\":5307:5316   */\n  not\n    /* \"#utility.yul\":5300:5305   */\n  dup5\n    /* \"#utility.yul\":5296:5317   */\n  and\n    /* \"#utility.yul\":5287:5317   */\n  swap4\n  pop\n    /* \"#utility.yul\":5360:5364   */\n  dup1\n    /* \"#utility.yul\":5350:5358   */\n  dup7\n    /* \"#utility.yul\":5346:5365   */\n  and\n    /* \"#utility.yul\":5339:5344   */\n  dup5\n    /* \"#utility.yul\":5336:5366   */\n  or\n    /* \"#utility.yul\":5326:5366   */\n  swap3\n  pop\n    /* \"#utility.yul\":5055:5372   */\n  pop\n  pop\n    /* \"#utility.yul\":4979:5372   */\n  swap4\n  swap3\n  pop\n  pop\n  pop\n  jump\t// out\n    /* \"#utility.yul\":5378:5455   */\ntag_85:\n    /* \"#utility.yul\":5415:5422   */\n  0x00\n    /* \"#utility.yul\":5444:5449   */\n  dup2\n    /* \"#utility.yul\":5433:5449   */\n  swap1\n  pop\n    /* \"#utility.yul\":5378:5455   */\n  swap2\n  swap1\n  pop\n  jump\t// out\n    /* \"#utility.yul\":5461:5521   */\ntag_86:\n    /* \"#utility.yul\":5489:5492   */\n  0x00\n    /* \"#utility.yul\":5510:5515   */\n  dup2\n    /* \"#utility.yul\":5503:5515   */\n  swap1\n  pop\n    /* \"#utility.yul\":5461:5521   */\n  swap2\n  swap1\n  pop\n  jump\t// out\n    /* \"#utility.yul\":5527:5669   */\ntag_87:\n    /* \"#utility.yul\":5577:5586   */\n  0x00\n    /* \"#utility.yul\":5610:5663   */\n  tag_164\n    /* \"#utility.yul\":5628:5662   */\n  tag_165\n    /* \"#utility.yul\":5637:5661   */\n  tag_166\n    /* \"#utility.yul\":5655:5660   */\n  dup5\n    /* \"#utility.yul\":5637:5661   */\n  tag_85\n  jump\t// in\ntag_166:\n    /* \"#utility.yul\":5628:5662   */\n  tag_86\n  jump\t// in\ntag_165:\n    /* \"#utility.yul\":5610:5663   */\n  tag_85\n  jump\t// in\ntag_164:\n    /* \"#utility.yul\":5597:5663   */\n  swap1\n  pop\n    /* \"#utility.yul\":5527:5669   */\n  swap2\n  swap1\n  pop\n  jump\t// out\n    /* \"#utility.yul\":5675:5750   */\ntag_88:\n    /* \"#utility.yul\":5718:5721   */\n  0x00\n    /* \"#utility.yul\":5739:5744   */\n  dup2\n    /* \"#utility.yul\":5732:5744   */\n  swap1\n  pop\n    /* \"#utility.yul\":5675:5750   */\n  swap2\n  swap1\n  pop\n  jump\t// out\n    /* \"#utility.yul\":5756:6025   */\ntag_89:\n    /* \"#utility.yul\":5866:5905   */\n  tag_169\n    /* \"#utility.yul\":5897:5904   */\n  dup4\n    /* \"#utility.yul\":5866:5905   */\n  tag_87\n  jump\t// in\ntag_169:\n    /* \"#utility.yul\":5927:6018   */\n  tag_170\n    /* \"#utility.yul\":5976:6017   */\n  tag_171\n    /* \"#utility.yul\":6000:6016   */\n  dup3\n    /* \"#utility.yul\":5976:6017   */\n  tag_88\n  jump\t// in\ntag_171:\n    /* \"#utility.yul\":5968:5974   */\n  dup5\n    /* \"#utility.yul\":5961:5965   */\n  dup5\n    /* \"#utility.yul\":5955:5966   */\n  sload\n    /* \"#utility.yul\":5927:6018   */\n  tag_84\n  jump\t// in\ntag_170:\n    /* \"#utility.yul\":5921:5925   */\n  dup3\n    /* \"#utility.yul\":5914:6019   */\n  sstore\n    /* \"#utility.yul\":5832:6025   */\n  pop\n    /* \"#utility.yul\":5756:6025   */\n  pop\n  pop\n  pop\n  jump\t// out\n    /* \"#utility.yul\":6031:6104   */\ntag_90:\n    /* \"#utility.yul\":6076:6079   */\n  0x00\n    /* \"#utility.yul\":6097:6098   */\n  0x00\n    /* \"#utility.yul\":6090:6098   */\n  swap1\n  pop\n    /* \"#utility.yul\":6031:6104   */\n  swap1\n  jump\t// out\n    /* \"#utility.yul\":6110:6299   */\ntag_91:\n    /* \"#utility.yul\":6187:6219   */\n  tag_174\n  tag_90\n  jump\t// in\ntag_174:\n    /* \"#utility.yul\":6228:6293   */\n  tag_175\n    /* \"#utility.yul\":6286:6292   */\n  dup2\n    /* \"#utility.yul\":6278:6284   */\n  dup5\n    /* \"#utility.yul\":6272:6276   */\n  dup5\n    /* \"#utility.yul\":6228:6293   */\n  tag_89\n  jump\t// in\ntag_175:\n    /* \"#utility.yul\":6163:6299   */\n  pop\n    /* \"#utility.yul\":6110:6299   */\n  pop\n  pop\n  jump\t// out\n    /* \"#utility.yul\":6305:6491   */\ntag_92:\n    /* \"#utility.yul\":6365:6485   */\ntag_177:\n    /* \"#utility.yul\":6382:6385   */\n  dup2\n    /* \"#utility.yul\":6375:6380   */\n  dup2\n    /* \"#utility.yul\":6372:6386   */\n  lt\n    /* \"#utility.yul\":6365:6485   */\n  iszero\n  tag_179\n  jumpi\n    /* \"#utility.yul\":6436:6475   */\n  tag_180\n    /* \"#utility.yul\":6473:6474   */\n  0x00\n    /* \"#utility.yul\":6466:6471   */\n  dup3\n    /* \"#utility.yul\":6436:6475   */\n  tag_91\n  jump\t// in\ntag_180:\n    /* \"#utility.yul\":6409:6410   */\n  0x01\n    /* \"#utility.yul\":6402:6407   */\n  dup2\n    /* \"#utility.yul\":6398:6411   */\n  add\n    /* \"#utility.yul\":6389:6411   */\n  swap1\n  pop\n    /* \"#utility.yul\":6365:6485   */\n  jump(tag_177)\ntag_179:\n    /* \"#utility.yul\":6305:6491   */\n  pop\n  pop\n  jump\t// out\n    /* \"#utility.yul\":6497:7040   */\ntag_93:\n    /* \"#utility.yul\":6598:6600   */\n  0x1f\n    /* \"#utility.yul\":6593:6596   */\n  dup3\n    /* \"#utility.yul\":6590:6601   */\n  gt\n    /* \"#utility.yul\":6587:7033   */\n  iszero\n  tag_182\n  jumpi\n    /* \"#utility.yul\":6632:6670   */\n  tag_183\n    /* \"#utility.yul\":6664:6669   */\n  dup2\n    /* \"#utility.yul\":6632:6670   */\n  tag_81\n  jump\t// in\ntag_183:\n    /* \"#utility.yul\":6716:6745   */\n  tag_184\n    /* \"#utility.yul\":6734:6744   */\n  dup5\n    /* \"#utility.yul\":6716:6745   */\n  tag_82\n  jump\t// in\ntag_184:\n    /* \"#utility.yul\":6706:6714   */\n  dup2\n    /* \"#utility.yul\":6702:6746   */\n  add\n    /* \"#utility.yul\":6899:6901   */\n  0x20\n    /* \"#utility.yul\":6887:6897   */\n  dup6\n    /* \"#utility.yul\":6884:6902   */\n  lt\n    /* \"#utility.yul\":6881:6930   */\n  iszero\n  tag_185\n  jumpi\n    /* \"#utility.yul\":6920:6928   */\n  dup2\n    /* \"#utility.yul\":6905:6928   */\n  swap1\n  pop\n    /* \"#utility.yul\":6881:6930   */\ntag_185:\n    /* \"#utility.yul\":6943:7023   */\n  tag_186\n    /* \"#utility.yul\":6999:7021   */\n  tag_187\n    /* \"#utility.yul\":7017:7020   */\n  dup6\n    /* \"#utility.yul\":6999:7021   */\n  tag_82\n  jump\t// in\ntag_187:\n    /* \"#utility.yul\":6989:6997   */\n  dup4\n    /* \"#utility.yul\":6985:7022   */\n  add\n    /* \"#utility.yul\":6972:6983   */\n  dup3\n    /* \"#utility.yul\":6943:7023   */\n  tag_92\n  jump\t// in\ntag_186:\n    /* \"#utility.yul\":6602:7033   */\n  pop\n  pop\n    /* \"#utility.yul\":6587:7033   */\ntag_182:\n    /* \"#utility.yul\":6497:7040   */\n  pop\n  pop\n  pop\n  jump\t// out\n    /* \"#utility.yul\":7046:7163   */\ntag_94:\n    /* \"#utility.yul\":7100:7108   */\n  0x00\n    /* \"#utility.yul\":7150:7155   */\n  dup3\n    /* \"#utility.yul\":7144:7148   */\n  dup3\n    /* \"#utility.yul\":7140:7156   */\n  shr\n    /* \"#utility.yul\":7119:7156   */\n  swap1\n  pop\n    /* \"#utility.yul\":7046:7163   */\n  swap3\n  swap2\n  pop\n  pop\n  jump\t// out\n    /* \"#utility.yul\":7169:7338   */\ntag_95:\n    /* \"#utility.yul\":7213:7219   */\n  0x00\n    /* \"#utility.yul\":7246:7297   */\n  tag_190\n    /* \"#utility.yul\":7294:7295   */\n  0x00\n    /* \"#utility.yul\":7290:7296   */\n  not\n    /* \"#utility.yul\":7282:7287   */\n  dup5\n    /* \"#utility.yul\":7279:7280   */\n  0x08\n    /* \"#utility.yul\":7275:7288   */\n  mul\n    /* \"#utility.yul\":7246:7297   */\n  tag_94\n  jump\t// in\ntag_190:\n    /* \"#utility.yul\":7242:7298   */\n  not\n    /* \"#utility.yul\":7327:7331   */\n  dup1\n    /* \"#utility.yul\":7321:7325   */\n  dup4\n    /* \"#utility.yul\":7317:7332   */\n  and\n    /* \"#utility.yul\":7307:7332   */\n  swap2\n  pop\n    /* \"#utility.yul\":7220:7338   */\n  pop\n    /* \"#utility.yul\":7169:7338   */\n  swap3\n  swap2\n  pop\n  pop\n  jump\t// out\n    /* \"#utility.yul\":7343:7638   */\ntag_96:\n    /* \"#utility.yul\":7419:7423   */\n  0x00\n    /* \"#utility.yul\":7565:7594   */\n  tag_192\n    /* \"#utility.yul\":7590:7593   */\n  dup4\n    /* \"#utility.yul\":7584:7588   */\n  dup4\n    /* \"#utility.yul\":7565:7594   */\n  tag_95\n  jump\t// in\ntag_192:\n    /* \"#utility.yul\":7557:7594   */\n  swap2\n  pop\n    /* \"#utility.yul\":7627:7630   */\n  dup3\n    /* \"#utility.yul\":7624:7625   */\n  0x02\n    /* \"#utility.yul\":7620:7631   */\n  mul\n    /* \"#utility.yul\":7614:7618   */\n  dup3\n    /* \"#utility.yul\":7611:7632   */\n  or\n    /* \"#utility.yul\":7603:7632   */\n  swap1\n  pop\n    /* \"#utility.yul\":7343:7638   */\n  swap3\n  swap2\n  pop\n  pop\n  jump\t// out\n    /* \"#utility.yul\":7643:9038   */\ntag_9:\n    /* \"#utility.yul\":7760:7797   */\n  tag_194\n    /* \"#utility.yul\":7793:7796   */\n  dup3\n    /* \"#utility.yul\":7760:7797   */\n  tag_78\n  jump\t// in\ntag_194:\n    /* \"#utility.yul\":7862:7880   */\n  0xffffffffffffffff\n    /* \"#utility.yul\":7854:7860   */\n  dup2\n    /* \"#utility.yul\":7851:7881   */\n  gt\n    /* \"#utility.yul\":7848:7904   */\n  iszero\n  tag_195\n  jumpi\n    /* \"#utility.yul\":7884:7902   */\n  tag_196\n  tag_67\n  jump\t// in\ntag_196:\n    /* \"#utility.yul\":7848:7904   */\ntag_195:\n    /* \"#utility.yul\":7928:7966   */\n  tag_197\n    /* \"#utility.yul\":7960:7964   */\n  dup3\n    /* \"#utility.yul\":7954:7965   */\n  sload\n    /* \"#utility.yul\":7928:7966   */\n  tag_80\n  jump\t// in\ntag_197:\n    /* \"#utility.yul\":8013:8080   */\n  tag_198\n    /* \"#utility.yul\":8073:8079   */\n  dup3\n    /* \"#utility.yul\":8065:8071   */\n  dup3\n    /* \"#utility.yul\":8059:8063   */\n  dup6\n    /* \"#utility.yul\":8013:8080   */\n  tag_93\n  jump\t// in\ntag_198:\n    /* \"#utility.yul\":8107:8108   */\n  0x00\n    /* \"#utility.yul\":8131:8135   */\n  0x20\n    /* \"#utility.yul\":8118:8135   */\n  swap1\n  pop\n    /* \"#utility.yul\":8163:8165   */\n  0x1f\n    /* \"#utility.yul\":8155:8161   */\n  dup4\n    /* \"#utility.yul\":8152:8166   */\n  gt\n    /* \"#utility.yul\":8180:8181   */\n  0x01\n    /* \"#utility.yul\":8175:8793   */\n  dup2\n  eq\n  tag_200\n  jumpi\n    /* \"#utility.yul\":8837:8838   */\n  0x00\n    /* \"#utility.yul\":8854:8860   */\n  dup5\n    /* \"#utility.yul\":8851:8928   */\n  iszero\n  tag_201\n  jumpi\n    /* \"#utility.yul\":8903:8912   */\n  dup3\n    /* \"#utility.yul\":8898:8901   */\n  dup8\n    /* \"#utility.yul\":8894:8913   */\n  add\n    /* \"#utility.yul\":8888:8914   */\n  mload\n    /* \"#utility.yul\":8879:8914   */\n  swap1\n  pop\n    /* \"#utility.yul\":8851:8928   */\ntag_201:\n    /* \"#utility.yul\":8954:9021   */\n  tag_202\n    /* \"#utility.yul\":9014:9020   */\n  dup6\n    /* \"#utility.yul\":9007:9012   */\n  dup3\n    /* \"#utility.yul\":8954:9021   */\n  tag_96\n  jump\t// in\ntag_202:\n    /* \"#utility.yul\":8948:8952   */\n  dup7\n    /* \"#utility.yul\":8941:9022   */\n  sstore\n    /* \"#utility.yul\":8810:9032   */\n  pop\n    /* \"#utility.yul\":8145:9032   */\n  jump(tag_199)\n    /* \"#utility.yul\":8175:8793   */\ntag_200:\n    /* \"#utility.yul\":8227:8231   */\n  0x1f\n    /* \"#utility.yul\":8223:8232   */\n  not\n    /* \"#utility.yul\":8215:8221   */\n  dup5\n    /* \"#utility.yul\":8211:8233   */\n  and\n    /* \"#utility.yul\":8261:8298   */\n  tag_203\n    /* \"#utility.yul\":8293:8297   */\n  dup7\n    /* \"#utility.yul\":8261:8298   */\n  tag_81\n  jump\t// in\ntag_203:\n    /* \"#utility.yul\":8320:8321   */\n  0x00\n    /* \"#utility.yul\":8334:8542   */\ntag_204:\n    /* \"#utility.yul\":8348:8355   */\n  dup3\n    /* \"#utility.yul\":8345:8346   */\n  dup2\n    /* \"#utility.yul\":8342:8356   */\n  lt\n    /* \"#utility.yul\":8334:8542   */\n  iszero\n  tag_206\n  jumpi\n    /* \"#utility.yul\":8427:8436   */\n  dup5\n    /* \"#utility.yul\":8422:8425   */\n  dup10\n    /* \"#utility.yul\":8418:8437   */\n  add\n    /* \"#utility.yul\":8412:8438   */\n  mload\n    /* \"#utility.yul\":8404:8410   */\n  dup3\n    /* \"#utility.yul\":8397:8439   */\n  sstore\n    /* \"#utility.yul\":8478:8479   */\n  0x01\n    /* \"#utility.yul\":8470:8476   */\n  dup3\n    /* \"#utility.yul\":8466:8480   */\n  add\n    /* \"#utility.yul\":8456:8480   */\n  swap2\n  pop\n    /* \"#utility.yul\":8525:8527   */\n  0x20\n    /* \"#utility.yul\":8514:8523   */\n  dup6\n    /* \"#utility.yul\":8510:8528   */\n  add\n    /* \"#utility.yul\":8497:8528   */\n  swap5\n  pop\n    /* \"#utility.yul\":8371:8375   */\n  0x20\n    /* \"#utility.yul\":8368:8369   */\n  dup2\n    /* \"#utility.yul\":8364:8376   */\n  add\n    /* \"#utility.yul\":8359:8376   */\n  swap1\n  pop\n    /* \"#utility.yul\":8334:8542   */\n  jump(tag_204)\ntag_206:\n    /* \"#utility.yul\":8570:8576   */\n  dup7\n    /* \"#utility.yul\":8561:8568   */\n  dup4\n    /* \"#utility.yul\":8558:8577   */\n  lt\n    /* \"#utility.yul\":8555:8734   */\n  iszero\n  tag_207\n  jumpi\n    /* \"#utility.yul\":8628:8637   */\n  dup5\n    /* \"#utility.yul\":8623:8626   */\n  dup10\n    /* \"#utility.yul\":8619:8638   */\n  add\n    /* \"#utility.yul\":8613:8639   */\n  mload\n    /* \"#utility.yul\":8671:8719   */\n  tag_208\n    /* \"#utility.yul\":8713:8717   */\n  0x1f\n    /* \"#utility.yul\":8705:8711   */\n  dup10\n    /* \"#utility.yul\":8701:8718   */\n  and\n    /* \"#utility.yul\":8690:8699   */\n  dup3\n    /* \"#utility.yul\":8671:8719   */\n  tag_95\n  jump\t// in\ntag_208:\n    /* \"#utility.yul\":8663:8669   */\n  dup4\n    /* \"#utility.yul\":8656:8720   */\n  sstore\n    /* \"#utility.yul\":8578:8734   */\n  pop\n    /* \"#utility.yul\":8555:8734   */\ntag_207:\n    /* \"#utility.yul\":8780:8781   */\n  0x01\n    /* \"#utility.yul\":8776:8777   */\n  0x02\n    /* \"#utility.yul\":8768:8774   */\n  dup9\n    /* \"#utility.yul\":8764:8778   */\n  mul\n    /* \"#utility.yul\":8760:8782   */\n  add\n    /* \"#utility.yul\":8754:8758   */\n  dup9\n    /* \"#utility.yul\":8747:8783   */\n  sstore\n    /* \"#utility.yul\":8182:8793   */\n  pop\n  pop\n  pop\n    /* \"#utility.yul\":8145:9032   */\ntag_199:\n  pop\n    /* \"#utility.yul\":7735:9038   */\n  pop\n  pop\n  pop\n    /* \"#utility.yul\":7643:9038   */\n  pop\n  pop\n  jump\t// out\n    /* \"#utility.yul\":9044:9162   */\ntag_97:\n    /* \"#utility.yul\":9131:9155   */\n  tag_210\n    /* \"#utility.yul\":9149:9154   */\n  dup2\n    /* \"#utility.yul\":9131:9155   */\n  tag_73\n  jump\t// in\ntag_210:\n    /* \"#utility.yul\":9126:9129   */\n  dup3\n    /* \"#utility.yul\":9119:9156   */\n  mstore\n    /* \"#utility.yul\":9044:9162   */\n  pop\n  pop\n  jump\t// out\n    /* \"#utility.yul\":9168:9390   */\ntag_14:\n    /* \"#utility.yul\":9261:9265   */\n  0x00\n    /* \"#utility.yul\":9299:9301   */\n  0x20\n    /* \"#utility.yul\":9288:9297   */\n  dup3\n    /* \"#utility.yul\":9284:9302   */\n  add\n    /* \"#utility.yul\":9276:9302   */\n  swap1\n  pop\n    /* \"#utility.yul\":9312:9383   */\n  tag_212\n    /* \"#utility.yul\":9380:9381   */\n  0x00\n    /* \"#utility.yul\":9369:9378   */\n  dup4\n    /* \"#utility.yul\":9365:9382   */\n  add\n    /* \"#utility.yul\":9356:9362   */\n  dup5\n    /* \"#utility.yul\":9312:9383   */\n  tag_97\n  jump\t// in\ntag_212:\n    /* \"#utility.yul\":9168:9390   */\n  swap3\n  swap2\n  pop\n  pop\n  jump\t// out\n    /* \"#utility.yul\":9396:9565   */\ntag_98:\n    /* \"#utility.yul\":9480:9491   */\n  0x00\n    /* \"#utility.yul\":9514:9520   */\n  dup3\n    /* \"#utility.yul\":9509:9512   */\n  dup3\n    /* \"#utility.yul\":9502:9521   */\n  mstore\n    /* \"#utility.yul\":9554:9558   */\n  0x20\n    /* \"#utility.yul\":9549:9552   */\n  dup3\n    /* \"#utility.yul\":9545:9559   */\n  add\n    /* \"#utility.yul\":9530:9559   */\n  swap1\n  pop\n    /* \"#utility.yul\":9396:9565   */\n  swap3\n  swap2\n  pop\n  pop\n  jump\t// out\n    /* \"#utility.yul\":9571:9799   */\ntag_99:\n    /* \"#utility.yul\":9711:9745   */\n  0x4174206c65617374206f6e652077686974656c69737465642061646472657373\n    /* \"#utility.yul\":9707:9708   */\n  0x00\n    /* \"#utility.yul\":9699:9705   */\n  dup3\n    /* \"#utility.yul\":9695:9709   */\n  add\n    /* \"#utility.yul\":9688:9746   */\n  mstore\n    /* \"#utility.yul\":9780:9791   */\n  0x2072657175697265640000000000000000000000000000000000000000000000\n    /* \"#utility.yul\":9775:9777   */\n  0x20\n    /* \"#utility.yul\":9767:9773   */\n  dup3\n    /* \"#utility.yul\":9763:9778   */\n  add\n    /* \"#utility.yul\":9756:9792   */\n  mstore\n    /* \"#utility.yul\":9571:9799   */\n  pop\n  jump\t// out\n    /* \"#utility.yul\":9805:10171   */\ntag_100:\n    /* \"#utility.yul\":9947:9950   */\n  0x00\n    /* \"#utility.yul\":9968:10035   */\n  tag_216\n    /* \"#utility.yul\":10032:10034   */\n  0x29\n    /* \"#utility.yul\":10027:10030   */\n  dup4\n    /* \"#utility.yul\":9968:10035   */\n  tag_98\n  jump\t// in\ntag_216:\n    /* \"#utility.yul\":9961:10035   */\n  swap2\n  pop\n    /* \"#utility.yul\":10044:10137   */\n  tag_217\n    /* \"#utility.yul\":10133:10136   */\n  dup3\n    /* \"#utility.yul\":10044:10137   */\n  tag_99\n  jump\t// in\ntag_217:\n    /* \"#utility.yul\":10162:10164   */\n  0x40\n    /* \"#utility.yul\":10157:10160   */\n  dup3\n    /* \"#utility.yul\":10153:10165   */\n  add\n    /* \"#utility.yul\":10146:10165   */\n  swap1\n  pop\n    /* \"#utility.yul\":9805:10171   */\n  swap2\n  swap1\n  pop\n  jump\t// out\n    /* \"#utility.yul\":10177:10596   */\ntag_30:\n    /* \"#utility.yul\":10343:10347   */\n  0x00\n    /* \"#utility.yul\":10381:10383   */\n  0x20\n    /* \"#utility.yul\":10370:10379   */\n  dup3\n    /* \"#utility.yul\":10366:10384   */\n  add\n    /* \"#utility.yul\":10358:10384   */\n  swap1\n  pop\n    /* \"#utility.yul\":10430:10439   */\n  dup2\n    /* \"#utility.yul\":10424:10428   */\n  dup2\n    /* \"#utility.yul\":10420:10440   */\n  sub\n    /* \"#utility.yul\":10416:10417   */\n  0x00\n    /* \"#utility.yul\":10405:10414   */\n  dup4\n    /* \"#utility.yul\":10401:10418   */\n  add\n    /* \"#utility.yul\":10394:10441   */\n  mstore\n    /* \"#utility.yul\":10458:10589   */\n  tag_219\n    /* \"#utility.yul\":10584:10588   */\n  dup2\n    /* \"#utility.yul\":10458:10589   */\n  tag_100\n  jump\t// in\ntag_219:\n    /* \"#utility.yul\":10450:10589   */\n  swap1\n  pop\n    /* \"#utility.yul\":10177:10596   */\n  swap2\n  swap1\n  pop\n  jump\t// out\n    /* \"#utility.yul\":10602:10782   */\ntag_36:\n    /* \"#utility.yul\":10650:10727   */\n  0x4e487b7100000000000000000000000000000000000000000000000000000000\n    /* \"#utility.yul\":10647:10648   */\n  0x00\n    /* \"#utility.yul\":10640:10728   */\n  mstore\n    /* \"#utility.yul\":10747:10751   */\n  0x32\n    /* \"#utility.yul\":10744:10745   */\n  0x04\n    /* \"#utility.yul\":10737:10752   */\n  mstore\n    /* \"#utility.yul\":10771:10775   */\n  0x24\n    /* \"#utility.yul\":10768:10769   */\n  0x00\n    /* \"#utility.yul\":10761:10776   */\n  revert\n    /* \"#utility.yul\":10788:10968   */\ntag_101:\n    /* \"#utility.yul\":10836:10913   */\n  0x4e487b7100000000000000000000000000000000000000000000000000000000\n    /* \"#utility.yul\":10833:10834   */\n  0x00\n    /* \"#utility.yul\":10826:10914   */\n  mstore\n    /* \"#utility.yul\":10933:10937   */\n  0x11\n    /* \"#utility.yul\":10930:10931   */\n  0x04\n    /* \"#utility.yul\":10923:10938   */\n  mstore\n    /* \"#utility.yul\":10957:10961   */\n  0x24\n    /* \"#utility.yul\":10954:10955   */\n  0x00\n    /* \"#utility.yul\":10947:10962   */\n  revert\n    /* \"#utility.yul\":10974:11165   */\ntag_53:\n    /* \"#utility.yul\":11014:11017   */\n  0x00\n    /* \"#utility.yul\":11033:11053   */\n  tag_223\n    /* \"#utility.yul\":11051:11052   */\n  dup3\n    /* \"#utility.yul\":11033:11053   */\n  tag_85\n  jump\t// in\ntag_223:\n    /* \"#utility.yul\":11028:11053   */\n  swap2\n  pop\n    /* \"#utility.yul\":11067:11087   */\n  tag_224\n    /* \"#utility.yul\":11085:11086   */\n  dup4\n    /* \"#utility.yul\":11067:11087   */\n  tag_85\n  jump\t// in\ntag_224:\n    /* \"#utility.yul\":11062:11087   */\n  swap3\n  pop\n    /* \"#utility.yul\":11110:11111   */\n  dup3\n    /* \"#utility.yul\":11107:11108   */\n  dup3\n    /* \"#utility.yul\":11103:11112   */\n  add\n    /* \"#utility.yul\":11096:11112   */\n  swap1\n  pop\n    /* \"#utility.yul\":11131:11134   */\n  dup1\n    /* \"#utility.yul\":11128:11129   */\n  dup3\n    /* \"#utility.yul\":11125:11135   */\n  gt\n    /* \"#utility.yul\":11122:11158   */\n  iszero\n  tag_225\n  jumpi\n    /* \"#utility.yul\":11138:11156   */\n  tag_226\n  tag_101\n  jump\t// in\ntag_226:\n    /* \"#utility.yul\":11122:11158   */\ntag_225:\n    /* \"#utility.yul\":10974:11165   */\n  swap3\n  swap2\n  pop\n  pop\n  jump\t// out\n    /* \"#utility.yul\":11171:11289   */\ntag_102:\n    /* \"#utility.yul\":11258:11282   */\n  tag_228\n    /* \"#utility.yul\":11276:11281   */\n  dup2\n    /* \"#utility.yul\":11258:11282   */\n  tag_85\n  jump\t// in\ntag_228:\n    /* \"#utility.yul\":11253:11256   */\n  dup3\n    /* \"#utility.yul\":11246:11283   */\n  mstore\n    /* \"#utility.yul\":11171:11289   */\n  pop\n  pop\n  jump\t// out\n    /* \"#utility.yul\":11295:11737   */\ntag_57:\n    /* \"#utility.yul\":11444:11448   */\n  0x00\n    /* \"#utility.yul\":11482:11484   */\n  0x60\n    /* \"#utility.yul\":11471:11480   */\n  dup3\n    /* \"#utility.yul\":11467:11485   */\n  add\n    /* \"#utility.yul\":11459:11485   */\n  swap1\n  pop\n    /* \"#utility.yul\":11495:11566   */\n  tag_230\n    /* \"#utility.yul\":11563:11564   */\n  0x00\n    /* \"#utility.yul\":11552:11561   */\n  dup4\n    /* \"#utility.yul\":11548:11565   */\n  add\n    /* \"#utility.yul\":11539:11545   */\n  dup7\n    /* \"#utility.yul\":11495:11566   */\n  tag_97\n  jump\t// in\ntag_230:\n    /* \"#utility.yul\":11576:11648   */\n  tag_231\n    /* \"#utility.yul\":11644:11646   */\n  0x20\n    /* \"#utility.yul\":11633:11642   */\n  dup4\n    /* \"#utility.yul\":11629:11647   */\n  add\n    /* \"#utility.yul\":11620:11626   */\n  dup6\n    /* \"#utility.yul\":11576:11648   */\n  tag_102\n  jump\t// in\ntag_231:\n    /* \"#utility.yul\":11658:11730   */\n  tag_232\n    /* \"#utility.yul\":11726:11728   */\n  0x40\n    /* \"#utility.yul\":11715:11724   */\n  dup4\n    /* \"#utility.yul\":11711:11729   */\n  add\n    /* \"#utility.yul\":11702:11708   */\n  dup5\n    /* \"#utility.yul\":11658:11730   */\n  tag_102\n  jump\t// in\ntag_232:\n    /* \"#utility.yul\":11295:11737   */\n  swap5\n  swap4\n  pop\n  pop\n  pop\n  pop\n  jump\t// out\n    /* \"#utility.yul\":11743:11965   */\ntag_61:\n    /* \"#utility.yul\":11836:11840   */\n  0x00\n    /* \"#utility.yul\":11874:11876   */\n  0x20\n    /* \"#utility.yul\":11863:11872   */\n  dup3\n    /* \"#utility.yul\":11859:11877   */\n  add\n    /* \"#utility.yul\":11851:11877   */\n  swap1\n  pop\n    /* \"#utility.yul\":11887:11958   */\n  tag_234\n    /* \"#utility.yul\":11955:11956   */\n  0x00\n    /* \"#utility.yul\":11944:11953   */\n  dup4\n    /* \"#utility.yul\":11940:11957   */\n  add\n    /* \"#utility.yul\":11931:11937   */\n  dup5\n    /* \"#utility.yul\":11887:11958   */\n  tag_102\n  jump\t// in\ntag_234:\n    /* \"#utility.yul\":11743:11965   */\n  swap3\n  swap2\n  pop\n  pop\n  jump\t// out\n    /* \"contracts/CCK/Token/CCKToken_flattened.sol\":54898:60430  contract CCKToken is ERC20, Ownable, IERC3643 {... */\ntag_43:\n  dataSize(sub_0)\n  dup1\n  dataOffset(sub_0)\n  0x00\n  codecopy\n  0x00\n  return\nstop\n\nsub_0: assembly {\n        /* \"contracts/CCK/Token/CCKToken_flattened.sol\":54898:60430  contract CCKToken is ERC20, Ownable, IERC3643 {... */\n      mstore(0x40, 0x80)\n      callvalue\n      dup1\n      iszero\n      tag_1\n      jumpi\n      revert(0x00, 0x00)\n    tag_1:\n      pop\n      jumpi(tag_2, lt(calldatasize, 0x04))\n      shr(0xe0, calldataload(0x00))\n      dup1\n      0x5c975abb\n      gt\n      tag_30\n      jumpi\n      dup1\n      0x95d89b41\n      gt\n      tag_31\n      jumpi\n      dup1\n      0xdd62ed3e\n      gt\n      tag_32\n      jumpi\n      dup1\n      0xdd62ed3e\n      eq\n      tag_26\n      jumpi\n      dup1\n      0xe5839836\n      eq\n      tag_27\n      jumpi\n      dup1\n      0xeb91d37e\n      eq\n      tag_28\n      jumpi\n      dup1\n      0xf2fde38b\n      eq\n      tag_29\n      jumpi\n      jump(tag_2)\n    tag_32:\n      dup1\n      0x95d89b41\n      eq\n      tag_23\n      jumpi\n      dup1\n      0xa9059cbb\n      eq\n      tag_24\n      jumpi\n      dup1\n      0xaba63705\n      eq\n      tag_25\n      jumpi\n      jump(tag_2)\n    tag_31:\n      dup1\n      0x715018a6\n      gt\n      tag_33\n      jumpi\n      dup1\n      0x715018a6\n      eq\n      tag_19\n      jumpi\n      dup1\n      0x84900b04\n      eq\n      tag_20\n      jumpi\n      dup1\n      0x8da5cb5b\n      eq\n      tag_21\n      jumpi\n      dup1\n      0x902d55a5\n      eq\n      tag_22\n      jumpi\n      jump(tag_2)\n    tag_33:\n      dup1\n      0x5c975abb\n      eq\n      tag_16\n      jumpi\n      dup1\n      0x6290865d\n      eq\n      tag_17\n      jumpi\n      dup1\n      0x70a08231\n      eq\n      tag_18\n      jumpi\n      jump(tag_2)\n    tag_30:\n      dup1\n      0x23b872dd\n      gt\n      tag_34\n      jumpi\n      dup1\n      0x313ce567\n      gt\n      tag_35\n      jumpi\n      dup1\n      0x313ce567\n      eq\n      tag_12\n      jumpi\n      dup1\n      0x40c10f19\n      eq\n      tag_13\n      jumpi\n      dup1\n      0x54fd4d50\n      eq\n      tag_14\n      jumpi\n      dup1\n      0x56dd475a\n      eq\n      tag_15\n      jumpi\n      jump(tag_2)\n    tag_35:\n      dup1\n      0x23b872dd\n      eq\n      tag_9\n      jumpi\n      dup1\n      0x2630c12f\n      eq\n      tag_10\n      jumpi\n      dup1\n      0x2d380242\n      eq\n      tag_11\n      jumpi\n      jump(tag_2)\n    tag_34:\n      dup1\n      0x06fdde03\n      eq\n      tag_3\n      jumpi\n      dup1\n      0x095ea7b3\n      eq\n      tag_4\n      jumpi\n      dup1\n      0x12cae7af\n      eq\n      tag_5\n      jumpi\n      dup1\n      0x134e18f4\n      eq\n      tag_6\n      jumpi\n      dup1\n      0x158b1a57\n      eq\n      tag_7\n      jumpi\n      dup1\n      0x18160ddd\n      eq\n      tag_8\n      jumpi\n    tag_2:\n      revert(0x00, 0x00)\n        /* \"contracts/CCK/Token/CCKToken_flattened.sol\":12629:12718  function name() public view virtual returns (string memory) {... */\n    tag_3:\n      tag_36\n      tag_37\n      jump\t// in\n    tag_36:\n      mload(0x40)\n      tag_38\n      swap2\n      swap1\n      tag_39\n      jump\t// in\n    tag_38:\n      mload(0x40)\n      dup1\n      swap2\n      sub\n      swap1\n      return\n        /* \"contracts/CCK/Token/CCKToken_flattened.sol\":14848:15034  function approve(address spender, uint256 value) public virtual returns (bool) {... */\n    tag_4:\n      tag_40\n      0x04\n      dup1\n      calldatasize\n      sub\n      dup2\n      add\n      swap1\n      tag_41\n      swap2\n      swap1\n      tag_42\n      jump\t// in\n    tag_41:\n      tag_43\n      jump\t// in\n    tag_40:\n      mload(0x40)\n      tag_44\n      swap2\n      swap1\n      tag_45\n      jump\t// in\n    tag_44:\n      mload(0x40)\n      dup1\n      swap2\n      sub\n      swap1\n      return\n        /* \"contracts/CCK/Token/CCKToken_flattened.sol\":58013:58121  function balanceOfUser(address user) external view returns (uint256) {... */\n    tag_5:\n      tag_46\n      0x04\n      dup1\n      calldatasize\n      sub\n      dup2\n      add\n      swap1\n      tag_47\n      swap2\n      swap1\n      tag_48\n      jump\t// in\n    tag_47:\n      tag_49\n      jump\t// in\n    tag_46:\n      mload(0x40)\n      tag_50\n      swap2\n      swap1\n      tag_51\n      jump\t// in\n    tag_50:\n      mload(0x40)\n      dup1\n      swap2\n      sub\n      swap1\n      return\n        /* \"contracts/CCK/Token/CCKToken_flattened.sol\":58707:58810  function identityRegistry() external view override returns (address) {... */\n    tag_6:\n      tag_52\n      tag_53\n      jump\t// in\n    tag_52:\n      mload(0x40)\n      tag_54\n      swap2\n      swap1\n      tag_55\n      jump\t// in\n    tag_54:\n      mload(0x40)\n      dup1\n      swap2\n      sub\n      swap1\n      return\n        /* \"contracts/CCK/Token/CCKToken_flattened.sol\":59804:59916  function getFrozenTokens(address userAddress) external view override returns (uint256) {... */\n    tag_7:\n      tag_56\n      0x04\n      dup1\n      calldatasize\n      sub\n      dup2\n      add\n      swap1\n      tag_57\n      swap2\n      swap1\n      tag_48\n      jump\t// in\n    tag_57:\n      tag_58\n      jump\t// in\n    tag_56:\n      mload(0x40)\n      tag_59\n      swap2\n      swap1\n      tag_51\n      jump\t// in\n    tag_59:\n      mload(0x40)\n      dup1\n      swap2\n      sub\n      swap1\n      return\n        /* \"contracts/CCK/Token/CCKToken_flattened.sol\":13699:13796  function totalSupply() public view virtual returns (uint256) {... */\n    tag_8:\n      tag_60\n      tag_61\n      jump\t// in\n    tag_60:\n      mload(0x40)\n      tag_62\n      swap2\n      swap1\n      tag_51\n      jump\t// in\n    tag_62:\n      mload(0x40)\n      dup1\n      swap2\n      sub\n      swap1\n      return\n        /* \"contracts/CCK/Token/CCKToken_flattened.sol\":57496:57825  function transferFrom(address sender, address recipient, uint256 amount) public override returns (bool) {... */\n    tag_9:\n      tag_63\n      0x04\n      dup1\n      calldatasize\n      sub\n      dup2\n      add\n      swap1\n      tag_64\n      swap2\n      swap1\n      tag_65\n      jump\t// in\n    tag_64:\n      tag_66\n      jump\t// in\n    tag_63:\n      mload(0x40)\n      tag_67\n      swap2\n      swap1\n      tag_45\n      jump\t// in\n    tag_67:\n      mload(0x40)\n      dup1\n      swap2\n      sub\n      swap1\n      return\n        /* \"contracts/CCK/Token/CCKToken_flattened.sol\":55266:55296  PriceOracle public priceOracle */\n    tag_10:\n      tag_68\n      tag_69\n      jump\t// in\n    tag_68:\n      mload(0x40)\n      tag_70\n      swap2\n      swap1\n      tag_71\n      jump\t// in\n    tag_70:\n      mload(0x40)\n      dup1\n      swap2\n      sub\n      swap1\n      return\n        /* \"contracts/CCK/Token/CCKToken_flattened.sol\":55037:55064  uint256 public mintedAmount */\n    tag_11:\n      tag_72\n      tag_73\n      jump\t// in\n    tag_72:\n      mload(0x40)\n      tag_74\n      swap2\n      swap1\n      tag_51\n      jump\t// in\n    tag_74:\n      mload(0x40)\n      dup1\n      swap2\n      sub\n      swap1\n      return\n        /* \"contracts/CCK/Token/CCKToken_flattened.sol\":60338:60428  function decimals() public view virtual override returns (uint8) {... */\n    tag_12:\n      tag_75\n      tag_76\n      jump\t// in\n    tag_75:\n      mload(0x40)\n      tag_77\n      swap2\n      swap1\n      tag_78\n      jump\t// in\n    tag_77:\n      mload(0x40)\n      dup1\n      swap2\n      sub\n      swap1\n      return\n        /* \"contracts/CCK/Token/CCKToken_flattened.sol\":56374:56655  function mint(address to, uint256 amount) external onlyOwner {... */\n    tag_13:\n      tag_79\n      0x04\n      dup1\n      calldatasize\n      sub\n      dup2\n      add\n      swap1\n      tag_80\n      swap2\n      swap1\n      tag_42\n      jump\t// in\n    tag_80:\n      tag_81\n      jump\t// in\n    tag_79:\n      stop\n        /* \"contracts/CCK/Token/CCKToken_flattened.sol\":58459:58556  function version() external view override returns (string memory) {... */\n    tag_14:\n      tag_82\n      tag_83\n      jump\t// in\n    tag_82:\n      mload(0x40)\n      tag_84\n      swap2\n      swap1\n      tag_39\n      jump\t// in\n    tag_84:\n      mload(0x40)\n      dup1\n      swap2\n      sub\n      swap1\n      return\n        /* \"contracts/CCK/Token/CCKToken_flattened.sol\":55188:55222  Freezable public freezableContract */\n    tag_15:\n      tag_85\n      tag_86\n      jump\t// in\n    tag_85:\n      mload(0x40)\n      tag_87\n      swap2\n      swap1\n      tag_88\n      jump\t// in\n    tag_87:\n      mload(0x40)\n      dup1\n      swap2\n      sub\n      swap1\n      return\n        /* \"contracts/CCK/Token/CCKToken_flattened.sol\":59193:59279  function paused() external view override returns (bool) {... */\n    tag_16:\n      tag_89\n      tag_90\n      jump\t// in\n    tag_89:\n      mload(0x40)\n      tag_91\n      swap2\n      swap1\n      tag_45\n      jump\t// in\n    tag_91:\n      mload(0x40)\n      dup1\n      swap2\n      sub\n      swap1\n      return\n        /* \"contracts/CCK/Token/CCKToken_flattened.sol\":58947:59044  function compliance() external view override returns (address) {... */\n    tag_17:\n      tag_92\n      tag_93\n      jump\t// in\n    tag_92:\n      mload(0x40)\n      tag_94\n      swap2\n      swap1\n      tag_55\n      jump\t// in\n    tag_94:\n      mload(0x40)\n      dup1\n      swap2\n      sub\n      swap1\n      return\n        /* \"contracts/CCK/Token/CCKToken_flattened.sol\":13854:13970  function balanceOf(address account) public view virtual returns (uint256) {... */\n    tag_18:\n      tag_95\n      0x04\n      dup1\n      calldatasize\n      sub\n      dup2\n      add\n      swap1\n      tag_96\n      swap2\n      swap1\n      tag_48\n      jump\t// in\n    tag_96:\n      tag_97\n      jump\t// in\n    tag_95:\n      mload(0x40)\n      tag_98\n      swap2\n      swap1\n      tag_51\n      jump\t// in\n    tag_98:\n      mload(0x40)\n      dup1\n      swap2\n      sub\n      swap1\n      return\n        /* \"contracts/CCK/Token/CCKToken_flattened.sol\":24014:24115  function renounceOwnership() public virtual onlyOwner {... */\n    tag_19:\n      tag_99\n      tag_100\n      jump\t// in\n    tag_99:\n      stop\n        /* \"contracts/CCK/Token/CCKToken_flattened.sol\":55110:55144  Whitelist public whitelistContract */\n    tag_20:\n      tag_101\n      tag_102\n      jump\t// in\n    tag_101:\n      mload(0x40)\n      tag_103\n      swap2\n      swap1\n      tag_104\n      jump\t// in\n    tag_103:\n      mload(0x40)\n      dup1\n      swap2\n      sub\n      swap1\n      return\n        /* \"contracts/CCK/Token/CCKToken_flattened.sol\":23359:23444  function owner() public view virtual returns (address) {... */\n    tag_21:\n      tag_105\n      tag_106\n      jump\t// in\n    tag_105:\n      mload(0x40)\n      tag_107\n      swap2\n      swap1\n      tag_55\n      jump\t// in\n    tag_107:\n      mload(0x40)\n      dup1\n      swap2\n      sub\n      swap1\n      return\n        /* \"contracts/CCK/Token/CCKToken_flattened.sol\":54950:55005  uint256 public constant TOTAL_SUPPLY = 500_000 * 10**18 */\n    tag_22:\n      tag_108\n      tag_109\n      jump\t// in\n    tag_108:\n      mload(0x40)\n      tag_110\n      swap2\n      swap1\n      tag_51\n      jump\t// in\n    tag_110:\n      mload(0x40)\n      dup1\n      swap2\n      sub\n      swap1\n      return\n        /* \"contracts/CCK/Token/CCKToken_flattened.sol\":12831:12924  function symbol() public view virtual returns (string memory) {... */\n    tag_23:\n      tag_111\n      tag_112\n      jump\t// in\n    tag_111:\n      mload(0x40)\n      tag_113\n      swap2\n      swap1\n      tag_39\n      jump\t// in\n    tag_113:\n      mload(0x40)\n      dup1\n      swap2\n      sub\n      swap1\n      return\n        /* \"contracts/CCK/Token/CCKToken_flattened.sol\":56898:57199  function transfer(address recipient, uint256 amount) public override returns (bool) {... */\n    tag_24:\n      tag_114\n      0x04\n      dup1\n      calldatasize\n      sub\n      dup2\n      add\n      swap1\n      tag_115\n      swap2\n      swap1\n      tag_42\n      jump\t// in\n    tag_115:\n      tag_116\n      jump\t// in\n    tag_114:\n      mload(0x40)\n      tag_117\n      swap2\n      swap1\n      tag_45\n      jump\t// in\n    tag_117:\n      mload(0x40)\n      dup1\n      swap2\n      sub\n      swap1\n      return\n        /* \"contracts/CCK/Token/CCKToken_flattened.sol\":58247:58346  function onchainID() external view override returns (address) {... */\n    tag_25:\n      tag_118\n      tag_119\n      jump\t// in\n    tag_118:\n      mload(0x40)\n      tag_120\n      swap2\n      swap1\n      tag_55\n      jump\t// in\n    tag_120:\n      mload(0x40)\n      dup1\n      swap2\n      sub\n      swap1\n      return\n        /* \"contracts/CCK/Token/CCKToken_flattened.sol\":14401:14541  function allowance(address owner, address spender) public view virtual returns (uint256) {... */\n    tag_26:\n      tag_121\n      0x04\n      dup1\n      calldatasize\n      sub\n      dup2\n      add\n      swap1\n      tag_122\n      swap2\n      swap1\n      tag_123\n      jump\t// in\n    tag_122:\n      tag_124\n      jump\t// in\n    tag_121:\n      mload(0x40)\n      tag_125\n      swap2\n      swap1\n      tag_51\n      jump\t// in\n    tag_125:\n      mload(0x40)\n      dup1\n      swap2\n      sub\n      swap1\n      return\n        /* \"contracts/CCK/Token/CCKToken_flattened.sol\":59450:59590  function isFrozen(address userAddress) external view override returns (bool) {... */\n    tag_27:\n      tag_126\n      0x04\n      dup1\n      calldatasize\n      sub\n      dup2\n      add\n      swap1\n      tag_127\n      swap2\n      swap1\n      tag_48\n      jump\t// in\n    tag_127:\n      tag_128\n      jump\t// in\n    tag_126:\n      mload(0x40)\n      tag_129\n      swap2\n      swap1\n      tag_45\n      jump\t// in\n    tag_129:\n      mload(0x40)\n      dup1\n      swap2\n      sub\n      swap1\n      return\n        /* \"contracts/CCK/Token/CCKToken_flattened.sol\":60049:60161  function getCurrentPrice() external view returns (uint256) {... */\n    tag_28:\n      tag_130\n      tag_131\n      jump\t// in\n    tag_130:\n      mload(0x40)\n      tag_132\n      swap2\n      swap1\n      tag_51\n      jump\t// in\n    tag_132:\n      mload(0x40)\n      dup1\n      swap2\n      sub\n      swap1\n      return\n        /* \"contracts/CCK/Token/CCKToken_flattened.sol\":24264:24479  function transferOwnership(address newOwner) public virtual onlyOwner {... */\n    tag_29:\n      tag_133\n      0x04\n      dup1\n      calldatasize\n      sub\n      dup2\n      add\n      swap1\n      tag_134\n      swap2\n      swap1\n      tag_48\n      jump\t// in\n    tag_134:\n      tag_135\n      jump\t// in\n    tag_133:\n      stop\n        /* \"contracts/CCK/Token/CCKToken_flattened.sol\":12629:12718  function name() public view virtual returns (string memory) {... */\n    tag_37:\n        /* \"contracts/CCK/Token/CCKToken_flattened.sol\":12674:12687  string memory */\n      0x60\n        /* \"contracts/CCK/Token/CCKToken_flattened.sol\":12706:12711  _name */\n      0x03\n        /* \"contracts/CCK/Token/CCKToken_flattened.sol\":12699:12711  return _name */\n      dup1\n      sload\n      tag_137\n      swap1\n      tag_138\n      jump\t// in\n    tag_137:\n      dup1\n      0x1f\n      add\n      0x20\n      dup1\n      swap2\n      div\n      mul\n      0x20\n      add\n      mload(0x40)\n      swap1\n      dup2\n      add\n      0x40\n      mstore\n      dup1\n      swap3\n      swap2\n      swap1\n      dup2\n      dup2\n      mstore\n      0x20\n      add\n      dup3\n      dup1\n      sload\n      tag_139\n      swap1\n      tag_138\n      jump\t// in\n    tag_139:\n      dup1\n      iszero\n      tag_140\n      jumpi\n      dup1\n      0x1f\n      lt\n      tag_141\n      jumpi\n      0x0100\n      dup1\n      dup4\n      sload\n      div\n      mul\n      dup4\n      mstore\n      swap2\n      0x20\n      add\n      swap2\n      jump(tag_140)\n    tag_141:\n      dup3\n      add\n      swap2\n      swap1\n      0x00\n      mstore\n      keccak256(0x00, 0x20)\n      swap1\n    tag_142:\n      dup2\n      sload\n      dup2\n      mstore\n      swap1\n      0x01\n      add\n      swap1\n      0x20\n      add\n      dup1\n      dup4\n      gt\n      tag_142\n      jumpi\n      dup3\n      swap1\n      sub\n      0x1f\n      and\n      dup3\n      add\n      swap2\n    tag_140:\n      pop\n      pop\n      pop\n      pop\n      pop\n      swap1\n      pop\n        /* \"contracts/CCK/Token/CCKToken_flattened.sol\":12629:12718  function name() public view virtual returns (string memory) {... */\n      swap1\n      jump\t// out\n        /* \"contracts/CCK/Token/CCKToken_flattened.sol\":14848:15034  function approve(address spender, uint256 value) public virtual returns (bool) {... */\n    tag_43:\n        /* \"contracts/CCK/Token/CCKToken_flattened.sol\":14921:14925  bool */\n      0x00\n        /* \"contracts/CCK/Token/CCKToken_flattened.sol\":14937:14950  address owner */\n      0x00\n        /* \"contracts/CCK/Token/CCKToken_flattened.sol\":14953:14965  _msgSender() */\n      tag_144\n        /* \"contracts/CCK/Token/CCKToken_flattened.sol\":14953:14963  _msgSender */\n      tag_145\n        /* \"contracts/CCK/Token/CCKToken_flattened.sol\":14953:14965  _msgSender() */\n      jump\t// in\n    tag_144:\n        /* \"contracts/CCK/Token/CCKToken_flattened.sol\":14937:14965  address owner = _msgSender() */\n      swap1\n      pop\n        /* \"contracts/CCK/Token/CCKToken_flattened.sol\":14975:15006  _approve(owner, spender, value) */\n      tag_146\n        /* \"contracts/CCK/Token/CCKToken_flattened.sol\":14984:14989  owner */\n      dup2\n        /* \"contracts/CCK/Token/CCKToken_flattened.sol\":14991:14998  spender */\n      dup6\n        /* \"contracts/CCK/Token/CCKToken_flattened.sol\":15000:15005  value */\n      dup6\n        /* \"contracts/CCK/Token/CCKToken_flattened.sol\":14975:14983  _approve */\n      tag_147\n        /* \"contracts/CCK/Token/CCKToken_flattened.sol\":14975:15006  _approve(owner, spender, value) */\n      jump\t// in\n    tag_146:\n        /* \"contracts/CCK/Token/CCKToken_flattened.sol\":15023:15027  true */\n      0x01\n        /* \"contracts/CCK/Token/CCKToken_flattened.sol\":15016:15027  return true */\n      swap2\n      pop\n      pop\n        /* \"contracts/CCK/Token/CCKToken_flattened.sol\":14848:15034  function approve(address spender, uint256 value) public virtual returns (bool) {... */\n      swap3\n      swap2\n      pop\n      pop\n      jump\t// out\n        /* \"contracts/CCK/Token/CCKToken_flattened.sol\":58013:58121  function balanceOfUser(address user) external view returns (uint256) {... */\n    tag_49:\n        /* \"contracts/CCK/Token/CCKToken_flattened.sol\":58073:58080  uint256 */\n      0x00\n        /* \"contracts/CCK/Token/CCKToken_flattened.sol\":58099:58114  balanceOf(user) */\n      tag_149\n        /* \"contracts/CCK/Token/CCKToken_flattened.sol\":58109:58113  user */\n      dup3\n        /* \"contracts/CCK/Token/CCKToken_flattened.sol\":58099:58108  balanceOf */\n      tag_97\n        /* \"contracts/CCK/Token/CCKToken_flattened.sol\":58099:58114  balanceOf(user) */\n      jump\t// in\n    tag_149:\n        /* \"contracts/CCK/Token/CCKToken_flattened.sol\":58092:58114  return balanceOf(user) */\n      swap1\n      pop\n        /* \"contracts/CCK/Token/CCKToken_flattened.sol\":58013:58121  function balanceOfUser(address user) external view returns (uint256) {... */\n      swap2\n      swap1\n      pop\n      jump\t// out\n        /* \"contracts/CCK/Token/CCKToken_flattened.sol\":58707:58810  function identityRegistry() external view override returns (address) {... */\n    tag_53:\n        /* \"contracts/CCK/Token/CCKToken_flattened.sol\":58767:58774  address */\n      0x00\n        /* \"contracts/CCK/Token/CCKToken_flattened.sol\":58801:58802  0 */\n      0x00\n        /* \"contracts/CCK/Token/CCKToken_flattened.sol\":58786:58803  return address(0) */\n      swap1\n      pop\n        /* \"contracts/CCK/Token/CCKToken_flattened.sol\":58707:58810  function identityRegistry() external view override returns (address) {... */\n      swap1\n      jump\t// out\n        /* \"contracts/CCK/Token/CCKToken_flattened.sol\":59804:59916  function getFrozenTokens(address userAddress) external view override returns (uint256) {... */\n    tag_58:\n        /* \"contracts/CCK/Token/CCKToken_flattened.sol\":59882:59889  uint256 */\n      0x00\n        /* \"contracts/CCK/Token/CCKToken_flattened.sol\":59908:59909  0 */\n      0x00\n        /* \"contracts/CCK/Token/CCKToken_flattened.sol\":59901:59909  return 0 */\n      swap1\n      pop\n        /* \"contracts/CCK/Token/CCKToken_flattened.sol\":59804:59916  function getFrozenTokens(address userAddress) external view override returns (uint256) {... */\n      swap2\n      swap1\n      pop\n      jump\t// out\n        /* \"contracts/CCK/Token/CCKToken_flattened.sol\":13699:13796  function totalSupply() public view virtual returns (uint256) {... */\n    tag_61:\n        /* \"contracts/CCK/Token/CCKToken_flattened.sol\":13751:13758  uint256 */\n      0x00\n        /* \"contracts/CCK/Token/CCKToken_flattened.sol\":13777:13789  _totalSupply */\n      sload(0x02)\n        /* \"contracts/CCK/Token/CCKToken_flattened.sol\":13770:13789  return _totalSupply */\n      swap1\n      pop\n        /* \"contracts/CCK/Token/CCKToken_flattened.sol\":13699:13796  function totalSupply() public view virtual returns (uint256) {... */\n      swap1\n      jump\t// out\n        /* \"contracts/CCK/Token/CCKToken_flattened.sol\":57496:57825  function transferFrom(address sender, address recipient, uint256 amount) public override returns (bool) {... */\n    tag_66:\n        /* \"contracts/CCK/Token/CCKToken_flattened.sol\":57594:57598  bool */\n      0x00\n        /* \"contracts/CCK/Token/CCKToken_flattened.sol\":57619:57636  freezableContract */\n      0x08\n      0x00\n      swap1\n      sload\n      swap1\n      0x0100\n      exp\n      swap1\n      div\n      0xffffffffffffffffffffffffffffffffffffffff\n      and\n        /* \"contracts/CCK/Token/CCKToken_flattened.sol\":57619:57645  freezableContract.isFrozen */\n      0xffffffffffffffffffffffffffffffffffffffff\n      and\n      0xe5839836\n        /* \"contracts/CCK/Token/CCKToken_flattened.sol\":57646:57652  sender */\n      dup6\n        /* \"contracts/CCK/Token/CCKToken_flattened.sol\":57619:57653  freezableContract.isFrozen(sender) */\n      mload(0x40)\n      dup3\n      0xffffffff\n      and\n      0xe0\n      shl\n      dup2\n      mstore\n      0x04\n      add\n      tag_154\n      swap2\n      swap1\n      tag_55\n      jump\t// in\n    tag_154:\n      0x20\n      mload(0x40)\n      dup1\n      dup4\n      sub\n      dup2\n      dup7\n      gas\n      staticcall\n      iszero\n      dup1\n      iszero\n      tag_156\n      jumpi\n      returndatacopy(0x00, 0x00, returndatasize)\n      revert(0x00, returndatasize)\n    tag_156:\n      pop\n      pop\n      pop\n      pop\n      mload(0x40)\n      returndatasize\n      not(0x1f)\n      0x1f\n      dup3\n      add\n      and\n      dup3\n      add\n      dup1\n      0x40\n      mstore\n      pop\n      dup2\n      add\n      swap1\n      tag_157\n      swap2\n      swap1\n      tag_158\n      jump\t// in\n    tag_157:\n        /* \"contracts/CCK/Token/CCKToken_flattened.sol\":57618:57653  !freezableContract.isFrozen(sender) */\n      iszero\n        /* \"contracts/CCK/Token/CCKToken_flattened.sol\":57610:57674  require(!freezableContract.isFrozen(sender), \"Sender is frozen\") */\n      tag_159\n      jumpi\n      mload(0x40)\n      0x08c379a000000000000000000000000000000000000000000000000000000000\n      dup2\n      mstore\n      0x04\n      add\n      tag_160\n      swap1\n      tag_161\n      jump\t// in\n    tag_160:\n      mload(0x40)\n      dup1\n      swap2\n      sub\n      swap1\n      revert\n    tag_159:\n        /* \"contracts/CCK/Token/CCKToken_flattened.sol\":57718:57724  amount */\n      dup2\n        /* \"contracts/CCK/Token/CCKToken_flattened.sol\":57702:57726  uint256(uint128(amount)) */\n      0xffffffffffffffffffffffffffffffff\n      and\n        /* \"contracts/CCK/Token/CCKToken_flattened.sol\":57692:57698  amount */\n      dup3\n        /* \"contracts/CCK/Token/CCKToken_flattened.sol\":57692:57726  amount == uint256(uint128(amount)) */\n      eq\n        /* \"contracts/CCK/Token/CCKToken_flattened.sol\":57684:57756  require(amount == uint256(uint128(amount)), \"Amount must be an integer\") */\n      tag_162\n      jumpi\n      mload(0x40)\n      0x08c379a000000000000000000000000000000000000000000000000000000000\n      dup2\n      mstore\n      0x04\n      add\n      tag_163\n      swap1\n      tag_164\n      jump\t// in\n    tag_163:\n      mload(0x40)\n      dup1\n      swap2\n      sub\n      swap1\n      revert\n    tag_162:\n        /* \"contracts/CCK/Token/CCKToken_flattened.sol\":57773:57818  super.transferFrom(sender, recipient, amount) */\n      tag_165\n        /* \"contracts/CCK/Token/CCKToken_flattened.sol\":57792:57798  sender */\n      dup5\n        /* \"contracts/CCK/Token/CCKToken_flattened.sol\":57800:57809  recipient */\n      dup5\n        /* \"contracts/CCK/Token/CCKToken_flattened.sol\":57811:57817  amount */\n      dup5\n        /* \"contracts/CCK/Token/CCKToken_flattened.sol\":57773:57791  super.transferFrom */\n      tag_166\n        /* \"contracts/CCK/Token/CCKToken_flattened.sol\":57773:57818  super.transferFrom(sender, recipient, amount) */\n      jump\t// in\n    tag_165:\n        /* \"contracts/CCK/Token/CCKToken_flattened.sol\":57766:57818  return super.transferFrom(sender, recipient, amount) */\n      swap1\n      pop\n        /* \"contracts/CCK/Token/CCKToken_flattened.sol\":57496:57825  function transferFrom(address sender, address recipient, uint256 amount) public override returns (bool) {... */\n      swap4\n      swap3\n      pop\n      pop\n      pop\n      jump\t// out\n        /* \"contracts/CCK/Token/CCKToken_flattened.sol\":55266:55296  PriceOracle public priceOracle */\n    tag_69:\n      0x09\n      0x00\n      swap1\n      sload\n      swap1\n      0x0100\n      exp\n      swap1\n      div\n      0xffffffffffffffffffffffffffffffffffffffff\n      and\n      dup2\n      jump\t// out\n        /* \"contracts/CCK/Token/CCKToken_flattened.sol\":55037:55064  uint256 public mintedAmount */\n    tag_73:\n      sload(0x06)\n      dup2\n      jump\t// out\n        /* \"contracts/CCK/Token/CCKToken_flattened.sol\":60338:60428  function decimals() public view virtual override returns (uint8) {... */\n    tag_76:\n        /* \"contracts/CCK/Token/CCKToken_flattened.sol\":60396:60401  uint8 */\n      0x00\n        /* \"contracts/CCK/Token/CCKToken_flattened.sol\":60420:60421  0 */\n      0x00\n        /* \"contracts/CCK/Token/CCKToken_flattened.sol\":60413:60421  return 0 */\n      swap1\n      pop\n        /* \"contracts/CCK/Token/CCKToken_flattened.sol\":60338:60428  function decimals() public view virtual override returns (uint8) {... */\n      swap1\n      jump\t// out\n        /* \"contracts/CCK/Token/CCKToken_flattened.sol\":56374:56655  function mint(address to, uint256 amount) external onlyOwner {... */\n    tag_81:\n        /* \"contracts/CCK/Token/CCKToken_flattened.sol\":23252:23265  _checkOwner() */\n      tag_169\n        /* \"contracts/CCK/Token/CCKToken_flattened.sol\":23252:23263  _checkOwner */\n      tag_170\n        /* \"contracts/CCK/Token/CCKToken_flattened.sol\":23252:23265  _checkOwner() */\n      jump\t// in\n    tag_169:\n        /* \"contracts/CCK/Token/CCKToken_flattened.sol\":56453:56470  whitelistContract */\n      0x07\n      0x00\n      swap1\n      sload\n      swap1\n      0x0100\n      exp\n      swap1\n      div\n      0xffffffffffffffffffffffffffffffffffffffff\n      and\n        /* \"contracts/CCK/Token/CCKToken_flattened.sol\":56453:56484  whitelistContract.isWhitelisted */\n      0xffffffffffffffffffffffffffffffffffffffff\n      and\n      0x3af32abf\n        /* \"contracts/CCK/Token/CCKToken_flattened.sol\":56485:56487  to */\n      dup4\n        /* \"contracts/CCK/Token/CCKToken_flattened.sol\":56453:56488  whitelistContract.isWhitelisted(to) */\n      mload(0x40)\n      dup3\n      0xffffffff\n      and\n      0xe0\n      shl\n      dup2\n      mstore\n      0x04\n      add\n      tag_172\n      swap2\n      swap1\n      tag_55\n      jump\t// in\n    tag_172:\n      0x20\n      mload(0x40)\n      dup1\n      dup4\n      sub\n      dup2\n      dup7\n      gas\n      staticcall\n      iszero\n      dup1\n      iszero\n      tag_174\n      jumpi\n      returndatacopy(0x00, 0x00, returndatasize)\n      revert(0x00, returndatasize)\n    tag_174:\n      pop\n      pop\n      pop\n      pop\n      mload(0x40)\n      returndatasize\n      not(0x1f)\n      0x1f\n      dup3\n      add\n      and\n      dup3\n      add\n      dup1\n      0x40\n      mstore\n      pop\n      dup2\n      add\n      swap1\n      tag_175\n      swap2\n      swap1\n      tag_158\n      jump\t// in\n    tag_175:\n        /* \"contracts/CCK/Token/CCKToken_flattened.sol\":56445:56508  require(whitelistContract.isWhitelisted(to), \"Not whitelisted\") */\n      tag_176\n      jumpi\n      mload(0x40)\n      0x08c379a000000000000000000000000000000000000000000000000000000000\n      dup2\n      mstore\n      0x04\n      add\n      tag_177\n      swap1\n      tag_178\n      jump\t// in\n    tag_177:\n      mload(0x40)\n      dup1\n      swap2\n      sub\n      swap1\n      revert\n    tag_176:\n        /* \"contracts/CCK/Token/CCKToken_flattened.sol\":54989:55005  500_000 * 10**18 */\n      0x69e10de76676d0800000\n        /* \"contracts/CCK/Token/CCKToken_flattened.sol\":56541:56547  amount */\n      dup2\n        /* \"contracts/CCK/Token/CCKToken_flattened.sol\":56526:56538  mintedAmount */\n      sload(0x06)\n        /* \"contracts/CCK/Token/CCKToken_flattened.sol\":56526:56547  mintedAmount + amount */\n      tag_179\n      swap2\n      swap1\n      tag_180\n      jump\t// in\n    tag_179:\n        /* \"contracts/CCK/Token/CCKToken_flattened.sol\":56526:56563  mintedAmount + amount <= TOTAL_SUPPLY */\n      gt\n      iszero\n        /* \"contracts/CCK/Token/CCKToken_flattened.sol\":56518:56589  require(mintedAmount + amount <= TOTAL_SUPPLY, \"Total supply exceeded\") */\n      tag_181\n      jumpi\n      mload(0x40)\n      0x08c379a000000000000000000000000000000000000000000000000000000000\n      dup2\n      mstore\n      0x04\n      add\n      tag_182\n      swap1\n      tag_183\n      jump\t// in\n    tag_182:\n      mload(0x40)\n      dup1\n      swap2\n      sub\n      swap1\n      revert\n    tag_181:\n        /* \"contracts/CCK/Token/CCKToken_flattened.sol\":56599:56616  _mint(to, amount) */\n      tag_184\n        /* \"contracts/CCK/Token/CCKToken_flattened.sol\":56605:56607  to */\n      dup3\n        /* \"contracts/CCK/Token/CCKToken_flattened.sol\":56609:56615  amount */\n      dup3\n        /* \"contracts/CCK/Token/CCKToken_flattened.sol\":56599:56604  _mint */\n      tag_185\n        /* \"contracts/CCK/Token/CCKToken_flattened.sol\":56599:56616  _mint(to, amount) */\n      jump\t// in\n    tag_184:\n        /* \"contracts/CCK/Token/CCKToken_flattened.sol\":56642:56648  amount */\n      dup1\n        /* \"contracts/CCK/Token/CCKToken_flattened.sol\":56626:56638  mintedAmount */\n      0x06\n      0x00\n        /* \"contracts/CCK/Token/CCKToken_flattened.sol\":56626:56648  mintedAmount += amount */\n      dup3\n      dup3\n      sload\n      tag_186\n      swap2\n      swap1\n      tag_180\n      jump\t// in\n    tag_186:\n      swap3\n      pop\n      pop\n      dup2\n      swap1\n      sstore\n      pop\n        /* \"contracts/CCK/Token/CCKToken_flattened.sol\":56374:56655  function mint(address to, uint256 amount) external onlyOwner {... */\n      pop\n      pop\n      jump\t// out\n        /* \"contracts/CCK/Token/CCKToken_flattened.sol\":58459:58556  function version() external view override returns (string memory) {... */\n    tag_83:\n        /* \"contracts/CCK/Token/CCKToken_flattened.sol\":58510:58523  string memory */\n      0x60\n        /* \"contracts/CCK/Token/CCKToken_flattened.sol\":58535:58549  return \"1.0.0\" */\n      mload(0x40)\n      dup1\n      0x40\n      add\n      0x40\n      mstore\n      dup1\n      0x05\n      dup2\n      mstore\n      0x20\n      add\n      0x312e302e30000000000000000000000000000000000000000000000000000000\n      dup2\n      mstore\n      pop\n      swap1\n      pop\n        /* \"contracts/CCK/Token/CCKToken_flattened.sol\":58459:58556  function version() external view override returns (string memory) {... */\n      swap1\n      jump\t// out\n        /* \"contracts/CCK/Token/CCKToken_flattened.sol\":55188:55222  Freezable public freezableContract */\n    tag_86:\n      0x08\n      0x00\n      swap1\n      sload\n      swap1\n      0x0100\n      exp\n      swap1\n      div\n      0xffffffffffffffffffffffffffffffffffffffff\n      and\n      dup2\n      jump\t// out\n        /* \"contracts/CCK/Token/CCKToken_flattened.sol\":59193:59279  function paused() external view override returns (bool) {... */\n    tag_90:\n        /* \"contracts/CCK/Token/CCKToken_flattened.sol\":59243:59247  bool */\n      0x00\n        /* \"contracts/CCK/Token/CCKToken_flattened.sol\":59266:59271  false */\n      0x00\n        /* \"contracts/CCK/Token/CCKToken_flattened.sol\":59259:59271  return false */\n      swap1\n      pop\n        /* \"contracts/CCK/Token/CCKToken_flattened.sol\":59193:59279  function paused() external view override returns (bool) {... */\n      swap1\n      jump\t// out\n        /* \"contracts/CCK/Token/CCKToken_flattened.sol\":58947:59044  function compliance() external view override returns (address) {... */\n    tag_93:\n        /* \"contracts/CCK/Token/CCKToken_flattened.sol\":59001:59008  address */\n      0x00\n        /* \"contracts/CCK/Token/CCKToken_flattened.sol\":59035:59036  0 */\n      0x00\n        /* \"contracts/CCK/Token/CCKToken_flattened.sol\":59020:59037  return address(0) */\n      swap1\n      pop\n        /* \"contracts/CCK/Token/CCKToken_flattened.sol\":58947:59044  function compliance() external view override returns (address) {... */\n      swap1\n      jump\t// out\n        /* \"contracts/CCK/Token/CCKToken_flattened.sol\":13854:13970  function balanceOf(address account) public view virtual returns (uint256) {... */\n    tag_97:\n        /* \"contracts/CCK/Token/CCKToken_flattened.sol\":13919:13926  uint256 */\n      0x00\n        /* \"contracts/CCK/Token/CCKToken_flattened.sol\":13945:13954  _balances */\n      0x00\n        /* \"contracts/CCK/Token/CCKToken_flattened.sol\":13945:13963  _balances[account] */\n      0x00\n        /* \"contracts/CCK/Token/CCKToken_flattened.sol\":13955:13962  account */\n      dup4\n        /* \"contracts/CCK/Token/CCKToken_flattened.sol\":13945:13963  _balances[account] */\n      0xffffffffffffffffffffffffffffffffffffffff\n      and\n      0xffffffffffffffffffffffffffffffffffffffff\n      and\n      dup2\n      mstore\n      0x20\n      add\n      swap1\n      dup2\n      mstore\n      0x20\n      add\n      0x00\n      keccak256\n      sload\n        /* \"contracts/CCK/Token/CCKToken_flattened.sol\":13938:13963  return _balances[account] */\n      swap1\n      pop\n        /* \"contracts/CCK/Token/CCKToken_flattened.sol\":13854:13970  function balanceOf(address account) public view virtual returns (uint256) {... */\n      swap2\n      swap1\n      pop\n      jump\t// out\n        /* \"contracts/CCK/Token/CCKToken_flattened.sol\":24014:24115  function renounceOwnership() public virtual onlyOwner {... */\n    tag_100:\n        /* \"contracts/CCK/Token/CCKToken_flattened.sol\":23252:23265  _checkOwner() */\n      tag_192\n        /* \"contracts/CCK/Token/CCKToken_flattened.sol\":23252:23263  _checkOwner */\n      tag_170\n        /* \"contracts/CCK/Token/CCKToken_flattened.sol\":23252:23265  _checkOwner() */\n      jump\t// in\n    tag_192:\n        /* \"contracts/CCK/Token/CCKToken_flattened.sol\":24078:24108  _transferOwnership(address(0)) */\n      tag_194\n        /* \"contracts/CCK/Token/CCKToken_flattened.sol\":24105:24106  0 */\n      0x00\n        /* \"contracts/CCK/Token/CCKToken_flattened.sol\":24078:24096  _transferOwnership */\n      tag_195\n        /* \"contracts/CCK/Token/CCKToken_flattened.sol\":24078:24108  _transferOwnership(address(0)) */\n      jump\t// in\n    tag_194:\n        /* \"contracts/CCK/Token/CCKToken_flattened.sol\":24014:24115  function renounceOwnership() public virtual onlyOwner {... */\n      jump\t// out\n        /* \"contracts/CCK/Token/CCKToken_flattened.sol\":55110:55144  Whitelist public whitelistContract */\n    tag_102:\n      0x07\n      0x00\n      swap1\n      sload\n      swap1\n      0x0100\n      exp\n      swap1\n      div\n      0xffffffffffffffffffffffffffffffffffffffff\n      and\n      dup2\n      jump\t// out\n        /* \"contracts/CCK/Token/CCKToken_flattened.sol\":23359:23444  function owner() public view virtual returns (address) {... */\n    tag_106:\n        /* \"contracts/CCK/Token/CCKToken_flattened.sol\":23405:23412  address */\n      0x00\n        /* \"contracts/CCK/Token/CCKToken_flattened.sol\":23431:23437  _owner */\n      0x05\n      0x00\n      swap1\n      sload\n      swap1\n      0x0100\n      exp\n      swap1\n      div\n      0xffffffffffffffffffffffffffffffffffffffff\n      and\n        /* \"contracts/CCK/Token/CCKToken_flattened.sol\":23424:23437  return _owner */\n      swap1\n      pop\n        /* \"contracts/CCK/Token/CCKToken_flattened.sol\":23359:23444  function owner() public view virtual returns (address) {... */\n      swap1\n      jump\t// out\n        /* \"contracts/CCK/Token/CCKToken_flattened.sol\":54950:55005  uint256 public constant TOTAL_SUPPLY = 500_000 * 10**18 */\n    tag_109:\n        /* \"contracts/CCK/Token/CCKToken_flattened.sol\":54989:55005  500_000 * 10**18 */\n      0x69e10de76676d0800000\n        /* \"contracts/CCK/Token/CCKToken_flattened.sol\":54950:55005  uint256 public constant TOTAL_SUPPLY = 500_000 * 10**18 */\n      dup2\n      jump\t// out\n        /* \"contracts/CCK/Token/CCKToken_flattened.sol\":12831:12924  function symbol() public view virtual returns (string memory) {... */\n    tag_112:\n        /* \"contracts/CCK/Token/CCKToken_flattened.sol\":12878:12891  string memory */\n      0x60\n        /* \"contracts/CCK/Token/CCKToken_flattened.sol\":12910:12917  _symbol */\n      0x04\n        /* \"contracts/CCK/Token/CCKToken_flattened.sol\":12903:12917  return _symbol */\n      dup1\n      sload\n      tag_198\n      swap1\n      tag_138\n      jump\t// in\n    tag_198:\n      dup1\n      0x1f\n      add\n      0x20\n      dup1\n      swap2\n      div\n      mul\n      0x20\n      add\n      mload(0x40)\n      swap1\n      dup2\n      add\n      0x40\n      mstore\n      dup1\n      swap3\n      swap2\n      swap1\n      dup2\n      dup2\n      mstore\n      0x20\n      add\n      dup3\n      dup1\n      sload\n      tag_199\n      swap1\n      tag_138\n      jump\t// in\n    tag_199:\n      dup1\n      iszero\n      tag_200\n      jumpi\n      dup1\n      0x1f\n      lt\n      tag_201\n      jumpi\n      0x0100\n      dup1\n      dup4\n      sload\n      div\n      mul\n      dup4\n      mstore\n      swap2\n      0x20\n      add\n      swap2\n      jump(tag_200)\n    tag_201:\n      dup3\n      add\n      swap2\n      swap1\n      0x00\n      mstore\n      keccak256(0x00, 0x20)\n      swap1\n    tag_202:\n      dup2\n      sload\n      dup2\n      mstore\n      swap1\n      0x01\n      add\n      swap1\n      0x20\n      add\n      dup1\n      dup4\n      gt\n      tag_202\n      jumpi\n      dup3\n      swap1\n      sub\n      0x1f\n      and\n      dup3\n      add\n      swap2\n    tag_200:\n      pop\n      pop\n      pop\n      pop\n      pop\n      swap1\n      pop\n        /* \"contracts/CCK/Token/CCKToken_flattened.sol\":12831:12924  function symbol() public view virtual returns (string memory) {... */\n      swap1\n      jump\t// out\n        /* \"contracts/CCK/Token/CCKToken_flattened.sol\":56898:57199  function transfer(address recipient, uint256 amount) public override returns (bool) {... */\n    tag_116:\n        /* \"contracts/CCK/Token/CCKToken_flattened.sol\":56976:56980  bool */\n      0x00\n        /* \"contracts/CCK/Token/CCKToken_flattened.sol\":57001:57018  freezableContract */\n      0x08\n      0x00\n      swap1\n      sload\n      swap1\n      0x0100\n      exp\n      swap1\n      div\n      0xffffffffffffffffffffffffffffffffffffffff\n      and\n        /* \"contracts/CCK/Token/CCKToken_flattened.sol\":57001:57027  freezableContract.isFrozen */\n      0xffffffffffffffffffffffffffffffffffffffff\n      and\n      0xe5839836\n        /* \"contracts/CCK/Token/CCKToken_flattened.sol\":57028:57038  msg.sender */\n      caller\n        /* \"contracts/CCK/Token/CCKToken_flattened.sol\":57001:57039  freezableContract.isFrozen(msg.sender) */\n      mload(0x40)\n      dup3\n      0xffffffff\n      and\n      0xe0\n      shl\n      dup2\n      mstore\n      0x04\n      add\n      tag_204\n      swap2\n      swap1\n      tag_55\n      jump\t// in\n    tag_204:\n      0x20\n      mload(0x40)\n      dup1\n      dup4\n      sub\n      dup2\n      dup7\n      gas\n      staticcall\n      iszero\n      dup1\n      iszero\n      tag_206\n      jumpi\n      returndatacopy(0x00, 0x00, returndatasize)\n      revert(0x00, returndatasize)\n    tag_206:\n      pop\n      pop\n      pop\n      pop\n      mload(0x40)\n      returndatasize\n      not(0x1f)\n      0x1f\n      dup3\n      add\n      and\n      dup3\n      add\n      dup1\n      0x40\n      mstore\n      pop\n      dup2\n      add\n      swap1\n      tag_207\n      swap2\n      swap1\n      tag_158\n      jump\t// in\n    tag_207:\n        /* \"contracts/CCK/Token/CCKToken_flattened.sol\":57000:57039  !freezableContract.isFrozen(msg.sender) */\n      iszero\n        /* \"contracts/CCK/Token/CCKToken_flattened.sol\":56992:57060  require(!freezableContract.isFrozen(msg.sender), \"Sender is frozen\") */\n      tag_208\n      jumpi\n      mload(0x40)\n      0x08c379a000000000000000000000000000000000000000000000000000000000\n      dup2\n      mstore\n      0x04\n      add\n      tag_209\n      swap1\n      tag_161\n      jump\t// in\n    tag_209:\n      mload(0x40)\n      dup1\n      swap2\n      sub\n      swap1\n      revert\n    tag_208:\n        /* \"contracts/CCK/Token/CCKToken_flattened.sol\":57104:57110  amount */\n      dup2\n        /* \"contracts/CCK/Token/CCKToken_flattened.sol\":57088:57112  uint256(uint128(amount)) */\n      0xffffffffffffffffffffffffffffffff\n      and\n        /* \"contracts/CCK/Token/CCKToken_flattened.sol\":57078:57084  amount */\n      dup3\n        /* \"contracts/CCK/Token/CCKToken_flattened.sol\":57078:57112  amount == uint256(uint128(amount)) */\n      eq\n        /* \"contracts/CCK/Token/CCKToken_flattened.sol\":57070:57142  require(amount == uint256(uint128(amount)), \"Amount must be an integer\") */\n      tag_210\n      jumpi\n      mload(0x40)\n      0x08c379a000000000000000000000000000000000000000000000000000000000\n      dup2\n      mstore\n      0x04\n      add\n      tag_211\n      swap1\n      tag_164\n      jump\t// in\n    tag_211:\n      mload(0x40)\n      dup1\n      swap2\n      sub\n      swap1\n      revert\n    tag_210:\n        /* \"contracts/CCK/Token/CCKToken_flattened.sol\":57159:57192  super.transfer(recipient, amount) */\n      tag_212\n        /* \"contracts/CCK/Token/CCKToken_flattened.sol\":57174:57183  recipient */\n      dup4\n        /* \"contracts/CCK/Token/CCKToken_flattened.sol\":57185:57191  amount */\n      dup4\n        /* \"contracts/CCK/Token/CCKToken_flattened.sol\":57159:57173  super.transfer */\n      tag_213\n        /* \"contracts/CCK/Token/CCKToken_flattened.sol\":57159:57192  super.transfer(recipient, amount) */\n      jump\t// in\n    tag_212:\n        /* \"contracts/CCK/Token/CCKToken_flattened.sol\":57152:57192  return super.transfer(recipient, amount) */\n      swap1\n      pop\n        /* \"contracts/CCK/Token/CCKToken_flattened.sol\":56898:57199  function transfer(address recipient, uint256 amount) public override returns (bool) {... */\n      swap3\n      swap2\n      pop\n      pop\n      jump\t// out\n        /* \"contracts/CCK/Token/CCKToken_flattened.sol\":58247:58346  function onchainID() external view override returns (address) {... */\n    tag_119:\n        /* \"contracts/CCK/Token/CCKToken_flattened.sol\":58300:58307  address */\n      0x00\n        /* \"contracts/CCK/Token/CCKToken_flattened.sol\":58334:58338  this */\n      address\n        /* \"contracts/CCK/Token/CCKToken_flattened.sol\":58319:58339  return address(this) */\n      swap1\n      pop\n        /* \"contracts/CCK/Token/CCKToken_flattened.sol\":58247:58346  function onchainID() external view override returns (address) {... */\n      swap1\n      jump\t// out\n        /* \"contracts/CCK/Token/CCKToken_flattened.sol\":14401:14541  function allowance(address owner, address spender) public view virtual returns (uint256) {... */\n    tag_124:\n        /* \"contracts/CCK/Token/CCKToken_flattened.sol\":14481:14488  uint256 */\n      0x00\n        /* \"contracts/CCK/Token/CCKToken_flattened.sol\":14507:14518  _allowances */\n      0x01\n        /* \"contracts/CCK/Token/CCKToken_flattened.sol\":14507:14525  _allowances[owner] */\n      0x00\n        /* \"contracts/CCK/Token/CCKToken_flattened.sol\":14519:14524  owner */\n      dup5\n        /* \"contracts/CCK/Token/CCKToken_flattened.sol\":14507:14525  _allowances[owner] */\n      0xffffffffffffffffffffffffffffffffffffffff\n      and\n      0xffffffffffffffffffffffffffffffffffffffff\n      and\n      dup2\n      mstore\n      0x20\n      add\n      swap1\n      dup2\n      mstore\n      0x20\n      add\n      0x00\n      keccak256\n        /* \"contracts/CCK/Token/CCKToken_flattened.sol\":14507:14534  _allowances[owner][spender] */\n      0x00\n        /* \"contracts/CCK/Token/CCKToken_flattened.sol\":14526:14533  spender */\n      dup4\n        /* \"contracts/CCK/Token/CCKToken_flattened.sol\":14507:14534  _allowances[owner][spender] */\n      0xffffffffffffffffffffffffffffffffffffffff\n      and\n      0xffffffffffffffffffffffffffffffffffffffff\n      and\n      dup2\n      mstore\n      0x20\n      add\n      swap1\n      dup2\n      mstore\n      0x20\n      add\n      0x00\n      keccak256\n      sload\n        /* \"contracts/CCK/Token/CCKToken_flattened.sol\":14500:14534  return _allowances[owner][spender] */\n      swap1\n      pop\n        /* \"contracts/CCK/Token/CCKToken_flattened.sol\":14401:14541  function allowance(address owner, address spender) public view virtual returns (uint256) {... */\n      swap3\n      swap2\n      pop\n      pop\n      jump\t// out\n        /* \"contracts/CCK/Token/CCKToken_flattened.sol\":59450:59590  function isFrozen(address userAddress) external view override returns (bool) {... */\n    tag_128:\n        /* \"contracts/CCK/Token/CCKToken_flattened.sol\":59521:59525  bool */\n      0x00\n        /* \"contracts/CCK/Token/CCKToken_flattened.sol\":59544:59561  freezableContract */\n      0x08\n      0x00\n      swap1\n      sload\n      swap1\n      0x0100\n      exp\n      swap1\n      div\n      0xffffffffffffffffffffffffffffffffffffffff\n      and\n        /* \"contracts/CCK/Token/CCKToken_flattened.sol\":59544:59570  freezableContract.isFrozen */\n      0xffffffffffffffffffffffffffffffffffffffff\n      and\n      0xe5839836\n        /* \"contracts/CCK/Token/CCKToken_flattened.sol\":59571:59582  userAddress */\n      dup4\n        /* \"contracts/CCK/Token/CCKToken_flattened.sol\":59544:59583  freezableContract.isFrozen(userAddress) */\n      mload(0x40)\n      dup3\n      0xffffffff\n      and\n      0xe0\n      shl\n      dup2\n      mstore\n      0x04\n      add\n      tag_217\n      swap2\n      swap1\n      tag_55\n      jump\t// in\n    tag_217:\n      0x20\n      mload(0x40)\n      dup1\n      dup4\n      sub\n      dup2\n      dup7\n      gas\n      staticcall\n      iszero\n      dup1\n      iszero\n      tag_219\n      jumpi\n      returndatacopy(0x00, 0x00, returndatasize)\n      revert(0x00, returndatasize)\n    tag_219:\n      pop\n      pop\n      pop\n      pop\n      mload(0x40)\n      returndatasize\n      not(0x1f)\n      0x1f\n      dup3\n      add\n      and\n      dup3\n      add\n      dup1\n      0x40\n      mstore\n      pop\n      dup2\n      add\n      swap1\n      tag_220\n      swap2\n      swap1\n      tag_158\n      jump\t// in\n    tag_220:\n        /* \"contracts/CCK/Token/CCKToken_flattened.sol\":59537:59583  return freezableContract.isFrozen(userAddress) */\n      swap1\n      pop\n        /* \"contracts/CCK/Token/CCKToken_flattened.sol\":59450:59590  function isFrozen(address userAddress) external view override returns (bool) {... */\n      swap2\n      swap1\n      pop\n      jump\t// out\n        /* \"contracts/CCK/Token/CCKToken_flattened.sol\":60049:60161  function getCurrentPrice() external view returns (uint256) {... */\n    tag_131:\n        /* \"contracts/CCK/Token/CCKToken_flattened.sol\":60099:60106  uint256 */\n      0x00\n        /* \"contracts/CCK/Token/CCKToken_flattened.sol\":60125:60136  priceOracle */\n      0x09\n      0x00\n      swap1\n      sload\n      swap1\n      0x0100\n      exp\n      swap1\n      div\n      0xffffffffffffffffffffffffffffffffffffffff\n      and\n        /* \"contracts/CCK/Token/CCKToken_flattened.sol\":60125:60152  priceOracle.getCurrentPrice */\n      0xffffffffffffffffffffffffffffffffffffffff\n      and\n      0xeb91d37e\n        /* \"contracts/CCK/Token/CCKToken_flattened.sol\":60125:60154  priceOracle.getCurrentPrice() */\n      mload(0x40)\n      dup2\n      0xffffffff\n      and\n      0xe0\n      shl\n      dup2\n      mstore\n      0x04\n      add\n      0x20\n      mload(0x40)\n      dup1\n      dup4\n      sub\n      dup2\n      dup7\n      gas\n      staticcall\n      iszero\n      dup1\n      iszero\n      tag_223\n      jumpi\n      returndatacopy(0x00, 0x00, returndatasize)\n      revert(0x00, returndatasize)\n    tag_223:\n      pop\n      pop\n      pop\n      pop\n      mload(0x40)\n      returndatasize\n      not(0x1f)\n      0x1f\n      dup3\n      add\n      and\n      dup3\n      add\n      dup1\n      0x40\n      mstore\n      pop\n      dup2\n      add\n      swap1\n      tag_224\n      swap2\n      swap1\n      tag_225\n      jump\t// in\n    tag_224:\n        /* \"contracts/CCK/Token/CCKToken_flattened.sol\":60118:60154  return priceOracle.getCurrentPrice() */\n      swap1\n      pop\n        /* \"contracts/CCK/Token/CCKToken_flattened.sol\":60049:60161  function getCurrentPrice() external view returns (uint256) {... */\n      swap1\n      jump\t// out\n        /* \"contracts/CCK/Token/CCKToken_flattened.sol\":24264:24479  function transferOwnership(address newOwner) public virtual onlyOwner {... */\n    tag_135:\n        /* \"contracts/CCK/Token/CCKToken_flattened.sol\":23252:23265  _checkOwner() */\n      tag_227\n        /* \"contracts/CCK/Token/CCKToken_flattened.sol\":23252:23263  _checkOwner */\n      tag_170\n        /* \"contracts/CCK/Token/CCKToken_flattened.sol\":23252:23265  _checkOwner() */\n      jump\t// in\n    tag_227:\n        /* \"contracts/CCK/Token/CCKToken_flattened.sol\":24368:24369  0 */\n      0x00\n        /* \"contracts/CCK/Token/CCKToken_flattened.sol\":24348:24370  newOwner == address(0) */\n      0xffffffffffffffffffffffffffffffffffffffff\n      and\n        /* \"contracts/CCK/Token/CCKToken_flattened.sol\":24348:24356  newOwner */\n      dup2\n        /* \"contracts/CCK/Token/CCKToken_flattened.sol\":24348:24370  newOwner == address(0) */\n      0xffffffffffffffffffffffffffffffffffffffff\n      and\n      sub\n        /* \"contracts/CCK/Token/CCKToken_flattened.sol\":24344:24435  if (newOwner == address(0)) {... */\n      tag_229\n      jumpi\n        /* \"contracts/CCK/Token/CCKToken_flattened.sol\":24421:24422  0 */\n      0x00\n        /* \"contracts/CCK/Token/CCKToken_flattened.sol\":24393:24424  OwnableInvalidOwner(address(0)) */\n      mload(0x40)\n      0x1e4fbdf700000000000000000000000000000000000000000000000000000000\n      dup2\n      mstore\n      0x04\n      add\n      tag_230\n      swap2\n      swap1\n      tag_55\n      jump\t// in\n    tag_230:\n      mload(0x40)\n      dup1\n      swap2\n      sub\n      swap1\n      revert\n        /* \"contracts/CCK/Token/CCKToken_flattened.sol\":24344:24435  if (newOwner == address(0)) {... */\n    tag_229:\n        /* \"contracts/CCK/Token/CCKToken_flattened.sol\":24444:24472  _transferOwnership(newOwner) */\n      tag_231\n        /* \"contracts/CCK/Token/CCKToken_flattened.sol\":24463:24471  newOwner */\n      dup2\n        /* \"contracts/CCK/Token/CCKToken_flattened.sol\":24444:24462  _transferOwnership */\n      tag_195\n        /* \"contracts/CCK/Token/CCKToken_flattened.sol\":24444:24472  _transferOwnership(newOwner) */\n      jump\t// in\n    tag_231:\n        /* \"contracts/CCK/Token/CCKToken_flattened.sol\":24264:24479  function transferOwnership(address newOwner) public virtual onlyOwner {... */\n      pop\n      jump\t// out\n        /* \"contracts/CCK/Token/CCKToken_flattened.sol\":4177:4273  function _msgSender() internal view virtual returns (address) {... */\n    tag_145:\n        /* \"contracts/CCK/Token/CCKToken_flattened.sol\":4230:4237  address */\n      0x00\n        /* \"contracts/CCK/Token/CCKToken_flattened.sol\":4256:4266  msg.sender */\n      caller\n        /* \"contracts/CCK/Token/CCKToken_flattened.sol\":4249:4266  return msg.sender */\n      swap1\n      pop\n        /* \"contracts/CCK/Token/CCKToken_flattened.sol\":4177:4273  function _msgSender() internal view virtual returns (address) {... */\n      swap1\n      jump\t// out\n        /* \"contracts/CCK/Token/CCKToken_flattened.sol\":19576:19704  function _approve(address owner, address spender, uint256 value) internal {... */\n    tag_147:\n        /* \"contracts/CCK/Token/CCKToken_flattened.sol\":19660:19697  _approve(owner, spender, value, true) */\n      tag_234\n        /* \"contracts/CCK/Token/CCKToken_flattened.sol\":19669:19674  owner */\n      dup4\n        /* \"contracts/CCK/Token/CCKToken_flattened.sol\":19676:19683  spender */\n      dup4\n        /* \"contracts/CCK/Token/CCKToken_flattened.sol\":19685:19690  value */\n      dup4\n        /* \"contracts/CCK/Token/CCKToken_flattened.sol\":19692:19696  true */\n      0x01\n        /* \"contracts/CCK/Token/CCKToken_flattened.sol\":19660:19668  _approve */\n      tag_235\n        /* \"contracts/CCK/Token/CCKToken_flattened.sol\":19660:19697  _approve(owner, spender, value, true) */\n      jump\t// in\n    tag_234:\n        /* \"contracts/CCK/Token/CCKToken_flattened.sol\":19576:19704  function _approve(address owner, address spender, uint256 value) internal {... */\n      pop\n      pop\n      pop\n      jump\t// out\n        /* \"contracts/CCK/Token/CCKToken_flattened.sol\":15626:15870  function transferFrom(address from, address to, uint256 value) public virtual returns (bool) {... */\n    tag_166:\n        /* \"contracts/CCK/Token/CCKToken_flattened.sol\":15713:15717  bool */\n      0x00\n        /* \"contracts/CCK/Token/CCKToken_flattened.sol\":15729:15744  address spender */\n      0x00\n        /* \"contracts/CCK/Token/CCKToken_flattened.sol\":15747:15759  _msgSender() */\n      tag_237\n        /* \"contracts/CCK/Token/CCKToken_flattened.sol\":15747:15757  _msgSender */\n      tag_145\n        /* \"contracts/CCK/Token/CCKToken_flattened.sol\":15747:15759  _msgSender() */\n      jump\t// in\n    tag_237:\n        /* \"contracts/CCK/Token/CCKToken_flattened.sol\":15729:15759  address spender = _msgSender() */\n      swap1\n      pop\n        /* \"contracts/CCK/Token/CCKToken_flattened.sol\":15769:15806  _spendAllowance(from, spender, value) */\n      tag_238\n        /* \"contracts/CCK/Token/CCKToken_flattened.sol\":15785:15789  from */\n      dup6\n        /* \"contracts/CCK/Token/CCKToken_flattened.sol\":15791:15798  spender */\n      dup3\n        /* \"contracts/CCK/Token/CCKToken_flattened.sol\":15800:15805  value */\n      dup6\n        /* \"contracts/CCK/Token/CCKToken_flattened.sol\":15769:15784  _spendAllowance */\n      tag_239\n        /* \"contracts/CCK/Token/CCKToken_flattened.sol\":15769:15806  _spendAllowance(from, spender, value) */\n      jump\t// in\n    tag_238:\n        /* \"contracts/CCK/Token/CCKToken_flattened.sol\":15816:15842  _transfer(from, to, value) */\n      tag_240\n        /* \"contracts/CCK/Token/CCKToken_flattened.sol\":15826:15830  from */\n      dup6\n        /* \"contracts/CCK/Token/CCKToken_flattened.sol\":15832:15834  to */\n      dup6\n        /* \"contracts/CCK/Token/CCKToken_flattened.sol\":15836:15841  value */\n      dup6\n        /* \"contracts/CCK/Token/CCKToken_flattened.sol\":15816:15825  _transfer */\n      tag_241\n        /* \"contracts/CCK/Token/CCKToken_flattened.sol\":15816:15842  _transfer(from, to, value) */\n      jump\t// in\n    tag_240:\n        /* \"contracts/CCK/Token/CCKToken_flattened.sol\":15859:15863  true */\n      0x01\n        /* \"contracts/CCK/Token/CCKToken_flattened.sol\":15852:15863  return true */\n      swap2\n      pop\n      pop\n        /* \"contracts/CCK/Token/CCKToken_flattened.sol\":15626:15870  function transferFrom(address from, address to, uint256 value) public virtual returns (bool) {... */\n      swap4\n      swap3\n      pop\n      pop\n      pop\n      jump\t// out\n        /* \"contracts/CCK/Token/CCKToken_flattened.sol\":23517:23679  function _checkOwner() internal view virtual {... */\n    tag_170:\n        /* \"contracts/CCK/Token/CCKToken_flattened.sol\":23587:23599  _msgSender() */\n      tag_243\n        /* \"contracts/CCK/Token/CCKToken_flattened.sol\":23587:23597  _msgSender */\n      tag_145\n        /* \"contracts/CCK/Token/CCKToken_flattened.sol\":23587:23599  _msgSender() */\n      jump\t// in\n    tag_243:\n        /* \"contracts/CCK/Token/CCKToken_flattened.sol\":23576:23599  owner() != _msgSender() */\n      0xffffffffffffffffffffffffffffffffffffffff\n      and\n        /* \"contracts/CCK/Token/CCKToken_flattened.sol\":23576:23583  owner() */\n      tag_244\n        /* \"contracts/CCK/Token/CCKToken_flattened.sol\":23576:23581  owner */\n      tag_106\n        /* \"contracts/CCK/Token/CCKToken_flattened.sol\":23576:23583  owner() */\n      jump\t// in\n    tag_244:\n        /* \"contracts/CCK/Token/CCKToken_flattened.sol\":23576:23599  owner() != _msgSender() */\n      0xffffffffffffffffffffffffffffffffffffffff\n      and\n      eq\n        /* \"contracts/CCK/Token/CCKToken_flattened.sol\":23572:23673  if (owner() != _msgSender()) {... */\n      tag_245\n      jumpi\n        /* \"contracts/CCK/Token/CCKToken_flattened.sol\":23649:23661  _msgSender() */\n      tag_246\n        /* \"contracts/CCK/Token/CCKToken_flattened.sol\":23649:23659  _msgSender */\n      tag_145\n        /* \"contracts/CCK/Token/CCKToken_flattened.sol\":23649:23661  _msgSender() */\n      jump\t// in\n    tag_246:\n        /* \"contracts/CCK/Token/CCKToken_flattened.sol\":23622:23662  OwnableUnauthorizedAccount(_msgSender()) */\n      mload(0x40)\n      0x118cdaa700000000000000000000000000000000000000000000000000000000\n      dup2\n      mstore\n      0x04\n      add\n      tag_247\n      swap2\n      swap1\n      tag_55\n      jump\t// in\n    tag_247:\n      mload(0x40)\n      dup1\n      swap2\n      sub\n      swap1\n      revert\n        /* \"contracts/CCK/Token/CCKToken_flattened.sol\":23572:23673  if (owner() != _msgSender()) {... */\n    tag_245:\n        /* \"contracts/CCK/Token/CCKToken_flattened.sol\":23517:23679  function _checkOwner() internal view virtual {... */\n      jump\t// out\n        /* \"contracts/CCK/Token/CCKToken_flattened.sol\":18308:18516  function _mint(address account, uint256 value) internal {... */\n    tag_185:\n        /* \"contracts/CCK/Token/CCKToken_flattened.sol\":18397:18398  0 */\n      0x00\n        /* \"contracts/CCK/Token/CCKToken_flattened.sol\":18378:18399  account == address(0) */\n      0xffffffffffffffffffffffffffffffffffffffff\n      and\n        /* \"contracts/CCK/Token/CCKToken_flattened.sol\":18378:18385  account */\n      dup3\n        /* \"contracts/CCK/Token/CCKToken_flattened.sol\":18378:18399  account == address(0) */\n      0xffffffffffffffffffffffffffffffffffffffff\n      and\n      sub\n        /* \"contracts/CCK/Token/CCKToken_flattened.sol\":18374:18465  if (account == address(0)) {... */\n      tag_249\n      jumpi\n        /* \"contracts/CCK/Token/CCKToken_flattened.sol\":18451:18452  0 */\n      0x00\n        /* \"contracts/CCK/Token/CCKToken_flattened.sol\":18422:18454  ERC20InvalidReceiver(address(0)) */\n      mload(0x40)\n      0xec442f0500000000000000000000000000000000000000000000000000000000\n      dup2\n      mstore\n      0x04\n      add\n      tag_250\n      swap2\n      swap1\n      tag_55\n      jump\t// in\n    tag_250:\n      mload(0x40)\n      dup1\n      swap2\n      sub\n      swap1\n      revert\n        /* \"contracts/CCK/Token/CCKToken_flattened.sol\":18374:18465  if (account == address(0)) {... */\n    tag_249:\n        /* \"contracts/CCK/Token/CCKToken_flattened.sol\":18474:18509  _update(address(0), account, value) */\n      tag_251\n        /* \"contracts/CCK/Token/CCKToken_flattened.sol\":18490:18491  0 */\n      0x00\n        /* \"contracts/CCK/Token/CCKToken_flattened.sol\":18494:18501  account */\n      dup4\n        /* \"contracts/CCK/Token/CCKToken_flattened.sol\":18503:18508  value */\n      dup4\n        /* \"contracts/CCK/Token/CCKToken_flattened.sol\":18474:18481  _update */\n      tag_252\n        /* \"contracts/CCK/Token/CCKToken_flattened.sol\":18474:18509  _update(address(0), account, value) */\n      jump\t// in\n    tag_251:\n        /* \"contracts/CCK/Token/CCKToken_flattened.sol\":18308:18516  function _mint(address account, uint256 value) internal {... */\n      pop\n      pop\n      jump\t// out\n        /* \"contracts/CCK/Token/CCKToken_flattened.sol\":24633:24820  function _transferOwnership(address newOwner) internal virtual {... */\n    tag_195:\n        /* \"contracts/CCK/Token/CCKToken_flattened.sol\":24706:24722  address oldOwner */\n      0x00\n        /* \"contracts/CCK/Token/CCKToken_flattened.sol\":24725:24731  _owner */\n      0x05\n      0x00\n      swap1\n      sload\n      swap1\n      0x0100\n      exp\n      swap1\n      div\n      0xffffffffffffffffffffffffffffffffffffffff\n      and\n        /* \"contracts/CCK/Token/CCKToken_flattened.sol\":24706:24731  address oldOwner = _owner */\n      swap1\n      pop\n        /* \"contracts/CCK/Token/CCKToken_flattened.sol\":24750:24758  newOwner */\n      dup2\n        /* \"contracts/CCK/Token/CCKToken_flattened.sol\":24741:24747  _owner */\n      0x05\n      0x00\n        /* \"contracts/CCK/Token/CCKToken_flattened.sol\":24741:24758  _owner = newOwner */\n      0x0100\n      exp\n      dup2\n      sload\n      dup2\n      0xffffffffffffffffffffffffffffffffffffffff\n      mul\n      not\n      and\n      swap1\n      dup4\n      0xffffffffffffffffffffffffffffffffffffffff\n      and\n      mul\n      or\n      swap1\n      sstore\n      pop\n        /* \"contracts/CCK/Token/CCKToken_flattened.sol\":24804:24812  newOwner */\n      dup2\n        /* \"contracts/CCK/Token/CCKToken_flattened.sol\":24773:24813  OwnershipTransferred(oldOwner, newOwner) */\n      0xffffffffffffffffffffffffffffffffffffffff\n      and\n        /* \"contracts/CCK/Token/CCKToken_flattened.sol\":24794:24802  oldOwner */\n      dup2\n        /* \"contracts/CCK/Token/CCKToken_flattened.sol\":24773:24813  OwnershipTransferred(oldOwner, newOwner) */\n      0xffffffffffffffffffffffffffffffffffffffff\n      and\n      0x8be0079c531659141344cd1fd0a4f28419497f9722a3daafe3b4186f6b6457e0\n      mload(0x40)\n      mload(0x40)\n      dup1\n      swap2\n      sub\n      swap1\n      log3\n        /* \"contracts/CCK/Token/CCKToken_flattened.sol\":24696:24820  {... */\n      pop\n        /* \"contracts/CCK/Token/CCKToken_flattened.sol\":24633:24820  function _transferOwnership(address newOwner) internal virtual {... */\n      pop\n      jump\t// out\n        /* \"contracts/CCK/Token/CCKToken_flattened.sol\":14165:14343  function transfer(address to, uint256 value) public virtual returns (bool) {... */\n    tag_213:\n        /* \"contracts/CCK/Token/CCKToken_flattened.sol\":14234:14238  bool */\n      0x00\n        /* \"contracts/CCK/Token/CCKToken_flattened.sol\":14250:14263  address owner */\n      0x00\n        /* \"contracts/CCK/Token/CCKToken_flattened.sol\":14266:14278  _msgSender() */\n      tag_255\n        /* \"contracts/CCK/Token/CCKToken_flattened.sol\":14266:14276  _msgSender */\n      tag_145\n        /* \"contracts/CCK/Token/CCKToken_flattened.sol\":14266:14278  _msgSender() */\n      jump\t// in\n    tag_255:\n        /* \"contracts/CCK/Token/CCKToken_flattened.sol\":14250:14278  address owner = _msgSender() */\n      swap1\n      pop\n        /* \"contracts/CCK/Token/CCKToken_flattened.sol\":14288:14315  _transfer(owner, to, value) */\n      tag_256\n        /* \"contracts/CCK/Token/CCKToken_flattened.sol\":14298:14303  owner */\n      dup2\n        /* \"contracts/CCK/Token/CCKToken_flattened.sol\":14305:14307  to */\n      dup6\n        /* \"contracts/CCK/Token/CCKToken_flattened.sol\":14309:14314  value */\n      dup6\n        /* \"contracts/CCK/Token/CCKToken_flattened.sol\":14288:14297  _transfer */\n      tag_241\n        /* \"contracts/CCK/Token/CCKToken_flattened.sol\":14288:14315  _transfer(owner, to, value) */\n      jump\t// in\n    tag_256:\n        /* \"contracts/CCK/Token/CCKToken_flattened.sol\":14332:14336  true */\n      0x01\n        /* \"contracts/CCK/Token/CCKToken_flattened.sol\":14325:14336  return true */\n      swap2\n      pop\n      pop\n        /* \"contracts/CCK/Token/CCKToken_flattened.sol\":14165:14343  function transfer(address to, uint256 value) public virtual returns (bool) {... */\n      swap3\n      swap2\n      pop\n      pop\n      jump\t// out\n        /* \"contracts/CCK/Token/CCKToken_flattened.sol\":20551:20983  function _approve(address owner, address spender, uint256 value, bool emitEvent) internal virtual {... */\n    tag_235:\n        /* \"contracts/CCK/Token/CCKToken_flattened.sol\":20680:20681  0 */\n      0x00\n        /* \"contracts/CCK/Token/CCKToken_flattened.sol\":20663:20682  owner == address(0) */\n      0xffffffffffffffffffffffffffffffffffffffff\n      and\n        /* \"contracts/CCK/Token/CCKToken_flattened.sol\":20663:20668  owner */\n      dup5\n        /* \"contracts/CCK/Token/CCKToken_flattened.sol\":20663:20682  owner == address(0) */\n      0xffffffffffffffffffffffffffffffffffffffff\n      and\n      sub\n        /* \"contracts/CCK/Token/CCKToken_flattened.sol\":20659:20748  if (owner == address(0)) {... */\n      tag_258\n      jumpi\n        /* \"contracts/CCK/Token/CCKToken_flattened.sol\":20734:20735  0 */\n      0x00\n        /* \"contracts/CCK/Token/CCKToken_flattened.sol\":20705:20737  ERC20InvalidApprover(address(0)) */\n      mload(0x40)\n      0xe602df0500000000000000000000000000000000000000000000000000000000\n      dup2\n      mstore\n      0x04\n      add\n      tag_259\n      swap2\n      swap1\n      tag_55\n      jump\t// in\n    tag_259:\n      mload(0x40)\n      dup1\n      swap2\n      sub\n      swap1\n      revert\n        /* \"contracts/CCK/Token/CCKToken_flattened.sol\":20659:20748  if (owner == address(0)) {... */\n    tag_258:\n        /* \"contracts/CCK/Token/CCKToken_flattened.sol\":20780:20781  0 */\n      0x00\n        /* \"contracts/CCK/Token/CCKToken_flattened.sol\":20761:20782  spender == address(0) */\n      0xffffffffffffffffffffffffffffffffffffffff\n      and\n        /* \"contracts/CCK/Token/CCKToken_flattened.sol\":20761:20768  spender */\n      dup4\n        /* \"contracts/CCK/Token/CCKToken_flattened.sol\":20761:20782  spender == address(0) */\n      0xffffffffffffffffffffffffffffffffffffffff\n      and\n      sub\n        /* \"contracts/CCK/Token/CCKToken_flattened.sol\":20757:20847  if (spender == address(0)) {... */\n      tag_260\n      jumpi\n        /* \"contracts/CCK/Token/CCKToken_flattened.sol\":20833:20834  0 */\n      0x00\n        /* \"contracts/CCK/Token/CCKToken_flattened.sol\":20805:20836  ERC20InvalidSpender(address(0)) */\n      mload(0x40)\n      0x94280d6200000000000000000000000000000000000000000000000000000000\n      dup2\n      mstore\n      0x04\n      add\n      tag_261\n      swap2\n      swap1\n      tag_55\n      jump\t// in\n    tag_261:\n      mload(0x40)\n      dup1\n      swap2\n      sub\n      swap1\n      revert\n        /* \"contracts/CCK/Token/CCKToken_flattened.sol\":20757:20847  if (spender == address(0)) {... */\n    tag_260:\n        /* \"contracts/CCK/Token/CCKToken_flattened.sol\":20886:20891  value */\n      dup2\n        /* \"contracts/CCK/Token/CCKToken_flattened.sol\":20856:20867  _allowances */\n      0x01\n        /* \"contracts/CCK/Token/CCKToken_flattened.sol\":20856:20874  _allowances[owner] */\n      0x00\n        /* \"contracts/CCK/Token/CCKToken_flattened.sol\":20868:20873  owner */\n      dup7\n        /* \"contracts/CCK/Token/CCKToken_flattened.sol\":20856:20874  _allowances[owner] */\n      0xffffffffffffffffffffffffffffffffffffffff\n      and\n      0xffffffffffffffffffffffffffffffffffffffff\n      and\n      dup2\n      mstore\n      0x20\n      add\n      swap1\n      dup2\n      mstore\n      0x20\n      add\n      0x00\n      keccak256\n        /* \"contracts/CCK/Token/CCKToken_flattened.sol\":20856:20883  _allowances[owner][spender] */\n      0x00\n        /* \"contracts/CCK/Token/CCKToken_flattened.sol\":20875:20882  spender */\n      dup6\n        /* \"contracts/CCK/Token/CCKToken_flattened.sol\":20856:20883  _allowances[owner][spender] */\n      0xffffffffffffffffffffffffffffffffffffffff\n      and\n      0xffffffffffffffffffffffffffffffffffffffff\n      and\n      dup2\n      mstore\n      0x20\n      add\n      swap1\n      dup2\n      mstore\n      0x20\n      add\n      0x00\n      keccak256\n        /* \"contracts/CCK/Token/CCKToken_flattened.sol\":20856:20891  _allowances[owner][spender] = value */\n      dup2\n      swap1\n      sstore\n      pop\n        /* \"contracts/CCK/Token/CCKToken_flattened.sol\":20905:20914  emitEvent */\n      dup1\n        /* \"contracts/CCK/Token/CCKToken_flattened.sol\":20901:20977  if (emitEvent) {... */\n      iszero\n      tag_262\n      jumpi\n        /* \"contracts/CCK/Token/CCKToken_flattened.sol\":20951:20958  spender */\n      dup3\n        /* \"contracts/CCK/Token/CCKToken_flattened.sol\":20935:20966  Approval(owner, spender, value) */\n      0xffffffffffffffffffffffffffffffffffffffff\n      and\n        /* \"contracts/CCK/Token/CCKToken_flattened.sol\":20944:20949  owner */\n      dup5\n        /* \"contracts/CCK/Token/CCKToken_flattened.sol\":20935:20966  Approval(owner, spender, value) */\n      0xffffffffffffffffffffffffffffffffffffffff\n      and\n      0x8c5be1e5ebec7d5bd14f71427d1e84f3dd0314c0f7b2291e5b200ac8c7c3b925\n        /* \"contracts/CCK/Token/CCKToken_flattened.sol\":20960:20965  value */\n      dup5\n        /* \"contracts/CCK/Token/CCKToken_flattened.sol\":20935:20966  Approval(owner, spender, value) */\n      mload(0x40)\n      tag_263\n      swap2\n      swap1\n      tag_51\n      jump\t// in\n    tag_263:\n      mload(0x40)\n      dup1\n      swap2\n      sub\n      swap1\n      log3\n        /* \"contracts/CCK/Token/CCKToken_flattened.sol\":20901:20977  if (emitEvent) {... */\n    tag_262:\n        /* \"contracts/CCK/Token/CCKToken_flattened.sol\":20551:20983  function _approve(address owner, address spender, uint256 value, bool emitEvent) internal virtual {... */\n      pop\n      pop\n      pop\n      pop\n      jump\t// out\n        /* \"contracts/CCK/Token/CCKToken_flattened.sol\":21265:21741  function _spendAllowance(address owner, address spender, uint256 value) internal virtual {... */\n    tag_239:\n        /* \"contracts/CCK/Token/CCKToken_flattened.sol\":21364:21388  uint256 currentAllowance */\n      0x00\n        /* \"contracts/CCK/Token/CCKToken_flattened.sol\":21391:21416  allowance(owner, spender) */\n      tag_265\n        /* \"contracts/CCK/Token/CCKToken_flattened.sol\":21401:21406  owner */\n      dup5\n        /* \"contracts/CCK/Token/CCKToken_flattened.sol\":21408:21415  spender */\n      dup5\n        /* \"contracts/CCK/Token/CCKToken_flattened.sol\":21391:21400  allowance */\n      tag_124\n        /* \"contracts/CCK/Token/CCKToken_flattened.sol\":21391:21416  allowance(owner, spender) */\n      jump\t// in\n    tag_265:\n        /* \"contracts/CCK/Token/CCKToken_flattened.sol\":21364:21416  uint256 currentAllowance = allowance(owner, spender) */\n      swap1\n      pop\n        /* \"contracts/CCK/Token/CCKToken_flattened.sol\":21449:21466  type(uint256).max */\n      0xffffffffffffffffffffffffffffffffffffffffffffffffffffffffffffffff\n        /* \"contracts/CCK/Token/CCKToken_flattened.sol\":21430:21446  currentAllowance */\n      dup2\n        /* \"contracts/CCK/Token/CCKToken_flattened.sol\":21430:21466  currentAllowance < type(uint256).max */\n      lt\n        /* \"contracts/CCK/Token/CCKToken_flattened.sol\":21426:21735  if (currentAllowance < type(uint256).max) {... */\n      iszero\n      tag_266\n      jumpi\n        /* \"contracts/CCK/Token/CCKToken_flattened.sol\":21505:21510  value */\n      dup2\n        /* \"contracts/CCK/Token/CCKToken_flattened.sol\":21486:21502  currentAllowance */\n      dup2\n        /* \"contracts/CCK/Token/CCKToken_flattened.sol\":21486:21510  currentAllowance < value */\n      lt\n        /* \"contracts/CCK/Token/CCKToken_flattened.sol\":21482:21612  if (currentAllowance < value) {... */\n      iszero\n      tag_267\n      jumpi\n        /* \"contracts/CCK/Token/CCKToken_flattened.sol\":21564:21571  spender */\n      dup3\n        /* \"contracts/CCK/Token/CCKToken_flattened.sol\":21573:21589  currentAllowance */\n      dup2\n        /* \"contracts/CCK/Token/CCKToken_flattened.sol\":21591:21596  value */\n      dup4\n        /* \"contracts/CCK/Token/CCKToken_flattened.sol\":21537:21597  ERC20InsufficientAllowance(spender, currentAllowance, value) */\n      mload(0x40)\n      0xfb8f41b200000000000000000000000000000000000000000000000000000000\n      dup2\n      mstore\n      0x04\n      add\n      tag_268\n      swap4\n      swap3\n      swap2\n      swap1\n      tag_269\n      jump\t// in\n    tag_268:\n      mload(0x40)\n      dup1\n      swap2\n      sub\n      swap1\n      revert\n        /* \"contracts/CCK/Token/CCKToken_flattened.sol\":21482:21612  if (currentAllowance < value) {... */\n    tag_267:\n        /* \"contracts/CCK/Token/CCKToken_flattened.sol\":21653:21710  _approve(owner, spender, currentAllowance - value, false) */\n      tag_270\n        /* \"contracts/CCK/Token/CCKToken_flattened.sol\":21662:21667  owner */\n      dup5\n        /* \"contracts/CCK/Token/CCKToken_flattened.sol\":21669:21676  spender */\n      dup5\n        /* \"contracts/CCK/Token/CCKToken_flattened.sol\":21697:21702  value */\n      dup5\n        /* \"contracts/CCK/Token/CCKToken_flattened.sol\":21678:21694  currentAllowance */\n      dup5\n        /* \"contracts/CCK/Token/CCKToken_flattened.sol\":21678:21702  currentAllowance - value */\n      sub\n        /* \"contracts/CCK/Token/CCKToken_flattened.sol\":21704:21709  false */\n      0x00\n        /* \"contracts/CCK/Token/CCKToken_flattened.sol\":21653:21661  _approve */\n      tag_235\n        /* \"contracts/CCK/Token/CCKToken_flattened.sol\":21653:21710  _approve(owner, spender, currentAllowance - value, false) */\n      jump\t// in\n    tag_270:\n        /* \"contracts/CCK/Token/CCKToken_flattened.sol\":21426:21735  if (currentAllowance < type(uint256).max) {... */\n    tag_266:\n        /* \"contracts/CCK/Token/CCKToken_flattened.sol\":21354:21741  {... */\n      pop\n        /* \"contracts/CCK/Token/CCKToken_flattened.sol\":21265:21741  function _spendAllowance(address owner, address spender, uint256 value) internal virtual {... */\n      pop\n      pop\n      pop\n      jump\t// out\n        /* \"contracts/CCK/Token/CCKToken_flattened.sol\":16243:16543  function _transfer(address from, address to, uint256 value) internal {... */\n    tag_241:\n        /* \"contracts/CCK/Token/CCKToken_flattened.sol\":16342:16343  0 */\n      0x00\n        /* \"contracts/CCK/Token/CCKToken_flattened.sol\":16326:16344  from == address(0) */\n      0xffffffffffffffffffffffffffffffffffffffff\n      and\n        /* \"contracts/CCK/Token/CCKToken_flattened.sol\":16326:16330  from */\n      dup4\n        /* \"contracts/CCK/Token/CCKToken_flattened.sol\":16326:16344  from == address(0) */\n      0xffffffffffffffffffffffffffffffffffffffff\n      and\n      sub\n        /* \"contracts/CCK/Token/CCKToken_flattened.sol\":16322:16408  if (from == address(0)) {... */\n      tag_272\n      jumpi\n        /* \"contracts/CCK/Token/CCKToken_flattened.sol\":16394:16395  0 */\n      0x00\n        /* \"contracts/CCK/Token/CCKToken_flattened.sol\":16367:16397  ERC20InvalidSender(address(0)) */\n      mload(0x40)\n      0x96c6fd1e00000000000000000000000000000000000000000000000000000000\n      dup2\n      mstore\n      0x04\n      add\n      tag_273\n      swap2\n      swap1\n      tag_55\n      jump\t// in\n    tag_273:\n      mload(0x40)\n      dup1\n      swap2\n      sub\n      swap1\n      revert\n        /* \"contracts/CCK/Token/CCKToken_flattened.sol\":16322:16408  if (from == address(0)) {... */\n    tag_272:\n        /* \"contracts/CCK/Token/CCKToken_flattened.sol\":16435:16436  0 */\n      0x00\n        /* \"contracts/CCK/Token/CCKToken_flattened.sol\":16421:16437  to == address(0) */\n      0xffffffffffffffffffffffffffffffffffffffff\n      and\n        /* \"contracts/CCK/Token/CCKToken_flattened.sol\":16421:16423  to */\n      dup3\n        /* \"contracts/CCK/Token/CCKToken_flattened.sol\":16421:16437  to == address(0) */\n      0xffffffffffffffffffffffffffffffffffffffff\n      and\n      sub\n        /* \"contracts/CCK/Token/CCKToken_flattened.sol\":16417:16503  if (to == address(0)) {... */\n      tag_274\n      jumpi\n        /* \"contracts/CCK/Token/CCKToken_flattened.sol\":16489:16490  0 */\n      0x00\n        /* \"contracts/CCK/Token/CCKToken_flattened.sol\":16460:16492  ERC20InvalidReceiver(address(0)) */\n      mload(0x40)\n      0xec442f0500000000000000000000000000000000000000000000000000000000\n      dup2\n      mstore\n      0x04\n      add\n      tag_275\n      swap2\n      swap1\n      tag_55\n      jump\t// in\n    tag_275:\n      mload(0x40)\n      dup1\n      swap2\n      sub\n      swap1\n      revert\n        /* \"contracts/CCK/Token/CCKToken_flattened.sol\":16417:16503  if (to == address(0)) {... */\n    tag_274:\n        /* \"contracts/CCK/Token/CCKToken_flattened.sol\":16512:16536  _update(from, to, value) */\n      tag_276\n        /* \"contracts/CCK/Token/CCKToken_flattened.sol\":16520:16524  from */\n      dup4\n        /* \"contracts/CCK/Token/CCKToken_flattened.sol\":16526:16528  to */\n      dup4\n        /* \"contracts/CCK/Token/CCKToken_flattened.sol\":16530:16535  value */\n      dup4\n        /* \"contracts/CCK/Token/CCKToken_flattened.sol\":16512:16519  _update */\n      tag_252\n        /* \"contracts/CCK/Token/CCKToken_flattened.sol\":16512:16536  _update(from, to, value) */\n      jump\t// in\n    tag_276:\n        /* \"contracts/CCK/Token/CCKToken_flattened.sol\":16243:16543  function _transfer(address from, address to, uint256 value) internal {... */\n      pop\n      pop\n      pop\n      jump\t// out\n        /* \"contracts/CCK/Token/CCKToken_flattened.sol\":16858:17965  function _update(address from, address to, uint256 value) internal virtual {... */\n    tag_252:\n        /* \"contracts/CCK/Token/CCKToken_flattened.sol\":16963:16964  0 */\n      0x00\n        /* \"contracts/CCK/Token/CCKToken_flattened.sol\":16947:16965  from == address(0) */\n      0xffffffffffffffffffffffffffffffffffffffff\n      and\n        /* \"contracts/CCK/Token/CCKToken_flattened.sol\":16947:16951  from */\n      dup4\n        /* \"contracts/CCK/Token/CCKToken_flattened.sol\":16947:16965  from == address(0) */\n      0xffffffffffffffffffffffffffffffffffffffff\n      and\n      sub\n        /* \"contracts/CCK/Token/CCKToken_flattened.sol\":16943:17483  if (from == address(0)) {... */\n      tag_278\n      jumpi\n        /* \"contracts/CCK/Token/CCKToken_flattened.sol\":17099:17104  value */\n      dup1\n        /* \"contracts/CCK/Token/CCKToken_flattened.sol\":17083:17095  _totalSupply */\n      0x02\n      0x00\n        /* \"contracts/CCK/Token/CCKToken_flattened.sol\":17083:17104  _totalSupply += value */\n      dup3\n      dup3\n      sload\n      tag_279\n      swap2\n      swap1\n      tag_180\n      jump\t// in\n    tag_279:\n      swap3\n      pop\n      pop\n      dup2\n      swap1\n      sstore\n      pop\n        /* \"contracts/CCK/Token/CCKToken_flattened.sol\":16943:17483  if (from == address(0)) {... */\n      jump(tag_280)\n    tag_278:\n        /* \"contracts/CCK/Token/CCKToken_flattened.sol\":17135:17154  uint256 fromBalance */\n      0x00\n        /* \"contracts/CCK/Token/CCKToken_flattened.sol\":17157:17166  _balances */\n      0x00\n        /* \"contracts/CCK/Token/CCKToken_flattened.sol\":17157:17172  _balances[from] */\n      0x00\n        /* \"contracts/CCK/Token/CCKToken_flattened.sol\":17167:17171  from */\n      dup6\n        /* \"contracts/CCK/Token/CCKToken_flattened.sol\":17157:17172  _balances[from] */\n      0xffffffffffffffffffffffffffffffffffffffff\n      and\n      0xffffffffffffffffffffffffffffffffffffffff\n      and\n      dup2\n      mstore\n      0x20\n      add\n      swap1\n      dup2\n      mstore\n      0x20\n      add\n      0x00\n      keccak256\n      sload\n        /* \"contracts/CCK/Token/CCKToken_flattened.sol\":17135:17172  uint256 fromBalance = _balances[from] */\n      swap1\n      pop\n        /* \"contracts/CCK/Token/CCKToken_flattened.sol\":17204:17209  value */\n      dup2\n        /* \"contracts/CCK/Token/CCKToken_flattened.sol\":17190:17201  fromBalance */\n      dup2\n        /* \"contracts/CCK/Token/CCKToken_flattened.sol\":17190:17209  fromBalance < value */\n      lt\n        /* \"contracts/CCK/Token/CCKToken_flattened.sol\":17186:17301  if (fromBalance < value) {... */\n      iszero\n      tag_281\n      jumpi\n        /* \"contracts/CCK/Token/CCKToken_flattened.sol\":17261:17265  from */\n      dup4\n        /* \"contracts/CCK/Token/CCKToken_flattened.sol\":17267:17278  fromBalance */\n      dup2\n        /* \"contracts/CCK/Token/CCKToken_flattened.sol\":17280:17285  value */\n      dup4\n        /* \"contracts/CCK/Token/CCKToken_flattened.sol\":17236:17286  ERC20InsufficientBalance(from, fromBalance, value) */\n      mload(0x40)\n      0xe450d38c00000000000000000000000000000000000000000000000000000000\n      dup2\n      mstore\n      0x04\n      add\n      tag_282\n      swap4\n      swap3\n      swap2\n      swap1\n      tag_269\n      jump\t// in\n    tag_282:\n      mload(0x40)\n      dup1\n      swap2\n      sub\n      swap1\n      revert\n        /* \"contracts/CCK/Token/CCKToken_flattened.sol\":17186:17301  if (fromBalance < value) {... */\n    tag_281:\n        /* \"contracts/CCK/Token/CCKToken_flattened.sol\":17453:17458  value */\n      dup2\n        /* \"contracts/CCK/Token/CCKToken_flattened.sol\":17439:17450  fromBalance */\n      dup2\n        /* \"contracts/CCK/Token/CCKToken_flattened.sol\":17439:17458  fromBalance - value */\n      sub\n        /* \"contracts/CCK/Token/CCKToken_flattened.sol\":17421:17430  _balances */\n      0x00\n        /* \"contracts/CCK/Token/CCKToken_flattened.sol\":17421:17436  _balances[from] */\n      0x00\n        /* \"contracts/CCK/Token/CCKToken_flattened.sol\":17431:17435  from */\n      dup7\n        /* \"contracts/CCK/Token/CCKToken_flattened.sol\":17421:17436  _balances[from] */\n      0xffffffffffffffffffffffffffffffffffffffff\n      and\n      0xffffffffffffffffffffffffffffffffffffffff\n      and\n      dup2\n      mstore\n      0x20\n      add\n      swap1\n      dup2\n      mstore\n      0x20\n      add\n      0x00\n      keccak256\n        /* \"contracts/CCK/Token/CCKToken_flattened.sol\":17421:17458  _balances[from] = fromBalance - value */\n      dup2\n      swap1\n      sstore\n      pop\n        /* \"contracts/CCK/Token/CCKToken_flattened.sol\":17121:17483  {... */\n      pop\n        /* \"contracts/CCK/Token/CCKToken_flattened.sol\":16943:17483  if (from == address(0)) {... */\n    tag_280:\n        /* \"contracts/CCK/Token/CCKToken_flattened.sol\":17511:17512  0 */\n      0x00\n        /* \"contracts/CCK/Token/CCKToken_flattened.sol\":17497:17513  to == address(0) */\n      0xffffffffffffffffffffffffffffffffffffffff\n      and\n        /* \"contracts/CCK/Token/CCKToken_flattened.sol\":17497:17499  to */\n      dup3\n        /* \"contracts/CCK/Token/CCKToken_flattened.sol\":17497:17513  to == address(0) */\n      0xffffffffffffffffffffffffffffffffffffffff\n      and\n      sub\n        /* \"contracts/CCK/Token/CCKToken_flattened.sol\":17493:17918  if (to == address(0)) {... */\n      tag_283\n      jumpi\n        /* \"contracts/CCK/Token/CCKToken_flattened.sol\":17676:17681  value */\n      dup1\n        /* \"contracts/CCK/Token/CCKToken_flattened.sol\":17660:17672  _totalSupply */\n      0x02\n      0x00\n        /* \"contracts/CCK/Token/CCKToken_flattened.sol\":17660:17681  _totalSupply -= value */\n      dup3\n      dup3\n      sload\n      sub\n      swap3\n      pop\n      pop\n      dup2\n      swap1\n      sstore\n      pop\n        /* \"contracts/CCK/Token/CCKToken_flattened.sol\":17493:17918  if (to == address(0)) {... */\n      jump(tag_284)\n    tag_283:\n        /* \"contracts/CCK/Token/CCKToken_flattened.sol\":17888:17893  value */\n      dup1\n        /* \"contracts/CCK/Token/CCKToken_flattened.sol\":17871:17880  _balances */\n      0x00\n        /* \"contracts/CCK/Token/CCKToken_flattened.sol\":17871:17884  _balances[to] */\n      0x00\n        /* \"contracts/CCK/Token/CCKToken_flattened.sol\":17881:17883  to */\n      dup5\n        /* \"contracts/CCK/Token/CCKToken_flattened.sol\":17871:17884  _balances[to] */\n      0xffffffffffffffffffffffffffffffffffffffff\n      and\n      0xffffffffffffffffffffffffffffffffffffffff\n      and\n      dup2\n      mstore\n      0x20\n      add\n      swap1\n      dup2\n      mstore\n      0x20\n      add\n      0x00\n      keccak256\n      0x00\n        /* \"contracts/CCK/Token/CCKToken_flattened.sol\":17871:17893  _balances[to] += value */\n      dup3\n      dup3\n      sload\n      add\n      swap3\n      pop\n      pop\n      dup2\n      swap1\n      sstore\n      pop\n        /* \"contracts/CCK/Token/CCKToken_flattened.sol\":17493:17918  if (to == address(0)) {... */\n    tag_284:\n        /* \"contracts/CCK/Token/CCKToken_flattened.sol\":17948:17950  to */\n      dup2\n        /* \"contracts/CCK/Token/CCKToken_flattened.sol\":17933:17958  Transfer(from, to, value) */\n      0xffffffffffffffffffffffffffffffffffffffff\n      and\n        /* \"contracts/CCK/Token/CCKToken_flattened.sol\":17942:17946  from */\n      dup4\n        /* \"contracts/CCK/Token/CCKToken_flattened.sol\":17933:17958  Transfer(from, to, value) */\n      0xffffffffffffffffffffffffffffffffffffffff\n      and\n      0xddf252ad1be2c89b69c2b068fc378daa952ba7f163c4a11628f55a4df523b3ef\n        /* \"contracts/CCK/Token/CCKToken_flattened.sol\":17952:17957  value */\n      dup4\n        /* \"contracts/CCK/Token/CCKToken_flattened.sol\":17933:17958  Transfer(from, to, value) */\n      mload(0x40)\n      tag_285\n      swap2\n      swap1\n      tag_51\n      jump\t// in\n    tag_285:\n      mload(0x40)\n      dup1\n      swap2\n      sub\n      swap1\n      log3\n        /* \"contracts/CCK/Token/CCKToken_flattened.sol\":16858:17965  function _update(address from, address to, uint256 value) internal virtual {... */\n      pop\n      pop\n      pop\n      jump\t// out\n        /* \"#utility.yul\":7:106   */\n    tag_286:\n        /* \"#utility.yul\":59:65   */\n      0x00\n        /* \"#utility.yul\":93:98   */\n      dup2\n        /* \"#utility.yul\":87:99   */\n      mload\n        /* \"#utility.yul\":77:99   */\n      swap1\n      pop\n        /* \"#utility.yul\":7:106   */\n      swap2\n      swap1\n      pop\n      jump\t// out\n        /* \"#utility.yul\":112:281   */\n    tag_287:\n        /* \"#utility.yul\":196:207   */\n      0x00\n        /* \"#utility.yul\":230:236   */\n      dup3\n        /* \"#utility.yul\":225:228   */\n      dup3\n        /* \"#utility.yul\":218:237   */\n      mstore\n        /* \"#utility.yul\":270:274   */\n      0x20\n        /* \"#utility.yul\":265:268   */\n      dup3\n        /* \"#utility.yul\":261:275   */\n      add\n        /* \"#utility.yul\":246:275   */\n      swap1\n      pop\n        /* \"#utility.yul\":112:281   */\n      swap3\n      swap2\n      pop\n      pop\n      jump\t// out\n        /* \"#utility.yul\":287:426   */\n    tag_288:\n        /* \"#utility.yul\":376:382   */\n      dup3\n        /* \"#utility.yul\":371:374   */\n      dup2\n        /* \"#utility.yul\":366:369   */\n      dup4\n        /* \"#utility.yul\":360:383   */\n      mcopy\n        /* \"#utility.yul\":417:418   */\n      0x00\n        /* \"#utility.yul\":408:414   */\n      dup4\n        /* \"#utility.yul\":403:406   */\n      dup4\n        /* \"#utility.yul\":399:415   */\n      add\n        /* \"#utility.yul\":392:419   */\n      mstore\n        /* \"#utility.yul\":287:426   */\n      pop\n      pop\n      pop\n      jump\t// out\n        /* \"#utility.yul\":432:534   */\n    tag_289:\n        /* \"#utility.yul\":473:479   */\n      0x00\n        /* \"#utility.yul\":524:526   */\n      0x1f\n        /* \"#utility.yul\":520:527   */\n      not\n        /* \"#utility.yul\":515:517   */\n      0x1f\n        /* \"#utility.yul\":508:513   */\n      dup4\n        /* \"#utility.yul\":504:518   */\n      add\n        /* \"#utility.yul\":500:528   */\n      and\n        /* \"#utility.yul\":490:528   */\n      swap1\n      pop\n        /* \"#utility.yul\":432:534   */\n      swap2\n      swap1\n      pop\n      jump\t// out\n        /* \"#utility.yul\":540:917   */\n    tag_290:\n        /* \"#utility.yul\":628:631   */\n      0x00\n        /* \"#utility.yul\":656:695   */\n      tag_335\n        /* \"#utility.yul\":689:694   */\n      dup3\n        /* \"#utility.yul\":656:695   */\n      tag_286\n      jump\t// in\n    tag_335:\n        /* \"#utility.yul\":711:782   */\n      tag_336\n        /* \"#utility.yul\":775:781   */\n      dup2\n        /* \"#utility.yul\":770:773   */\n      dup6\n        /* \"#utility.yul\":711:782   */\n      tag_287\n      jump\t// in\n    tag_336:\n        /* \"#utility.yul\":704:782   */\n      swap4\n      pop\n        /* \"#utility.yul\":791:856   */\n      tag_337\n        /* \"#utility.yul\":849:855   */\n      dup2\n        /* \"#utility.yul\":844:847   */\n      dup6\n        /* \"#utility.yul\":837:841   */\n      0x20\n        /* \"#utility.yul\":830:835   */\n      dup7\n        /* \"#utility.yul\":826:842   */\n      add\n        /* \"#utility.yul\":791:856   */\n      tag_288\n      jump\t// in\n    tag_337:\n        /* \"#utility.yul\":881:910   */\n      tag_338\n        /* \"#utility.yul\":903:909   */\n      dup2\n        /* \"#utility.yul\":881:910   */\n      tag_289\n      jump\t// in\n    tag_338:\n        /* \"#utility.yul\":876:879   */\n      dup5\n        /* \"#utility.yul\":872:911   */\n      add\n        /* \"#utility.yul\":865:911   */\n      swap2\n      pop\n        /* \"#utility.yul\":632:917   */\n      pop\n        /* \"#utility.yul\":540:917   */\n      swap3\n      swap2\n      pop\n      pop\n      jump\t// out\n        /* \"#utility.yul\":923:1236   */\n    tag_39:\n        /* \"#utility.yul\":1036:1040   */\n      0x00\n        /* \"#utility.yul\":1074:1076   */\n      0x20\n        /* \"#utility.yul\":1063:1072   */\n      dup3\n        /* \"#utility.yul\":1059:1077   */\n      add\n        /* \"#utility.yul\":1051:1077   */\n      swap1\n      pop\n        /* \"#utility.yul\":1123:1132   */\n      dup2\n        /* \"#utility.yul\":1117:1121   */\n      dup2\n        /* \"#utility.yul\":1113:1133   */\n      sub\n        /* \"#utility.yul\":1109:1110   */\n      0x00\n        /* \"#utility.yul\":1098:1107   */\n      dup4\n        /* \"#utility.yul\":1094:1111   */\n      add\n        /* \"#utility.yul\":1087:1134   */\n      mstore\n        /* \"#utility.yul\":1151:1229   */\n      tag_340\n        /* \"#utility.yul\":1224:1228   */\n      dup2\n        /* \"#utility.yul\":1215:1221   */\n      dup5\n        /* \"#utility.yul\":1151:1229   */\n      tag_290\n      jump\t// in\n    tag_340:\n        /* \"#utility.yul\":1143:1229   */\n      swap1\n      pop\n        /* \"#utility.yul\":923:1236   */\n      swap3\n      swap2\n      pop\n      pop\n      jump\t// out\n        /* \"#utility.yul\":1323:1440   */\n    tag_292:\n        /* \"#utility.yul\":1432:1433   */\n      0x00\n        /* \"#utility.yul\":1429:1430   */\n      0x00\n        /* \"#utility.yul\":1422:1434   */\n      revert\n        /* \"#utility.yul\":1569:1695   */\n    tag_294:\n        /* \"#utility.yul\":1606:1613   */\n      0x00\n        /* \"#utility.yul\":1646:1688   */\n      0xffffffffffffffffffffffffffffffffffffffff\n        /* \"#utility.yul\":1639:1644   */\n      dup3\n        /* \"#utility.yul\":1635:1689   */\n      and\n        /* \"#utility.yul\":1624:1689   */\n      swap1\n      pop\n        /* \"#utility.yul\":1569:1695   */\n      swap2\n      swap1\n      pop\n      jump\t// out\n        /* \"#utility.yul\":1701:1797   */\n    tag_295:\n        /* \"#utility.yul\":1738:1745   */\n      0x00\n        /* \"#utility.yul\":1767:1791   */\n      tag_346\n        /* \"#utility.yul\":1785:1790   */\n      dup3\n        /* \"#utility.yul\":1767:1791   */\n      tag_294\n      jump\t// in\n    tag_346:\n        /* \"#utility.yul\":1756:1791   */\n      swap1\n      pop\n        /* \"#utility.yul\":1701:1797   */\n      swap2\n      swap1\n      pop\n      jump\t// out\n        /* \"#utility.yul\":1803:1925   */\n    tag_296:\n        /* \"#utility.yul\":1876:1900   */\n      tag_348\n        /* \"#utility.yul\":1894:1899   */\n      dup2\n        /* \"#utility.yul\":1876:1900   */\n      tag_295\n      jump\t// in\n    tag_348:\n        /* \"#utility.yul\":1869:1874   */\n      dup2\n        /* \"#utility.yul\":1866:1901   */\n      eq\n        /* \"#utility.yul\":1856:1919   */\n      tag_349\n      jumpi\n        /* \"#utility.yul\":1915:1916   */\n      0x00\n        /* \"#utility.yul\":1912:1913   */\n      0x00\n        /* \"#utility.yul\":1905:1917   */\n      revert\n        /* \"#utility.yul\":1856:1919   */\n    tag_349:\n        /* \"#utility.yul\":1803:1925   */\n      pop\n      jump\t// out\n        /* \"#utility.yul\":1931:2070   */\n    tag_297:\n        /* \"#utility.yul\":1977:1982   */\n      0x00\n        /* \"#utility.yul\":2015:2021   */\n      dup2\n        /* \"#utility.yul\":2002:2022   */\n      calldataload\n        /* \"#utility.yul\":1993:2022   */\n      swap1\n      pop\n        /* \"#utility.yul\":2031:2064   */\n      tag_351\n        /* \"#utility.yul\":2058:2063   */\n      dup2\n        /* \"#utility.yul\":2031:2064   */\n      tag_296\n      jump\t// in\n    tag_351:\n        /* \"#utility.yul\":1931:2070   */\n      swap3\n      swap2\n      pop\n      pop\n      jump\t// out\n        /* \"#utility.yul\":2076:2153   */\n    tag_298:\n        /* \"#utility.yul\":2113:2120   */\n      0x00\n        /* \"#utility.yul\":2142:2147   */\n      dup2\n        /* \"#utility.yul\":2131:2147   */\n      swap1\n      pop\n        /* \"#utility.yul\":2076:2153   */\n      swap2\n      swap1\n      pop\n      jump\t// out\n        /* \"#utility.yul\":2159:2281   */\n    tag_299:\n        /* \"#utility.yul\":2232:2256   */\n      tag_354\n        /* \"#utility.yul\":2250:2255   */\n      dup2\n        /* \"#utility.yul\":2232:2256   */\n      tag_298\n      jump\t// in\n    tag_354:\n        /* \"#utility.yul\":2225:2230   */\n      dup2\n        /* \"#utility.yul\":2222:2257   */\n      eq\n        /* \"#utility.yul\":2212:2275   */\n      tag_355\n      jumpi\n        /* \"#utility.yul\":2271:2272   */\n      0x00\n        /* \"#utility.yul\":2268:2269   */\n      0x00\n        /* \"#utility.yul\":2261:2273   */\n      revert\n        /* \"#utility.yul\":2212:2275   */\n    tag_355:\n        /* \"#utility.yul\":2159:2281   */\n      pop\n      jump\t// out\n        /* \"#utility.yul\":2287:2426   */\n    tag_300:\n        /* \"#utility.yul\":2333:2338   */\n      0x00\n        /* \"#utility.yul\":2371:2377   */\n      dup2\n        /* \"#utility.yul\":2358:2378   */\n      calldataload\n        /* \"#utility.yul\":2349:2378   */\n      swap1\n      pop\n        /* \"#utility.yul\":2387:2420   */\n      tag_357\n        /* \"#utility.yul\":2414:2419   */\n      dup2\n        /* \"#utility.yul\":2387:2420   */\n      tag_299\n      jump\t// in\n    tag_357:\n        /* \"#utility.yul\":2287:2426   */\n      swap3\n      swap2\n      pop\n      pop\n      jump\t// out\n        /* \"#utility.yul\":2432:2906   */\n    tag_42:\n        /* \"#utility.yul\":2500:2506   */\n      0x00\n        /* \"#utility.yul\":2508:2514   */\n      0x00\n        /* \"#utility.yul\":2557:2559   */\n      0x40\n        /* \"#utility.yul\":2545:2554   */\n      dup4\n        /* \"#utility.yul\":2536:2543   */\n      dup6\n        /* \"#utility.yul\":2532:2555   */\n      sub\n        /* \"#utility.yul\":2528:2560   */\n      slt\n        /* \"#utility.yul\":2525:2644   */\n      iszero\n      tag_359\n      jumpi\n        /* \"#utility.yul\":2563:2642   */\n      tag_360\n      tag_292\n      jump\t// in\n    tag_360:\n        /* \"#utility.yul\":2525:2644   */\n    tag_359:\n        /* \"#utility.yul\":2683:2684   */\n      0x00\n        /* \"#utility.yul\":2708:2761   */\n      tag_361\n        /* \"#utility.yul\":2753:2760   */\n      dup6\n        /* \"#utility.yul\":2744:2750   */\n      dup3\n        /* \"#utility.yul\":2733:2742   */\n      dup7\n        /* \"#utility.yul\":2729:2751   */\n      add\n        /* \"#utility.yul\":2708:2761   */\n      tag_297\n      jump\t// in\n    tag_361:\n        /* \"#utility.yul\":2698:2761   */\n      swap3\n      pop\n        /* \"#utility.yul\":2654:2771   */\n      pop\n        /* \"#utility.yul\":2810:2812   */\n      0x20\n        /* \"#utility.yul\":2836:2889   */\n      tag_362\n        /* \"#utility.yul\":2881:2888   */\n      dup6\n        /* \"#utility.yul\":2872:2878   */\n      dup3\n        /* \"#utility.yul\":2861:2870   */\n      dup7\n        /* \"#utility.yul\":2857:2879   */\n      add\n        /* \"#utility.yul\":2836:2889   */\n      tag_300\n      jump\t// in\n    tag_362:\n        /* \"#utility.yul\":2826:2889   */\n      swap2\n      pop\n        /* \"#utility.yul\":2781:2899   */\n      pop\n        /* \"#utility.yul\":2432:2906   */\n      swap3\n      pop\n      swap3\n      swap1\n      pop\n      jump\t// out\n        /* \"#utility.yul\":2912:3002   */\n    tag_301:\n        /* \"#utility.yul\":2946:2953   */\n      0x00\n        /* \"#utility.yul\":2989:2994   */\n      dup2\n        /* \"#utility.yul\":2982:2995   */\n      iszero\n        /* \"#utility.yul\":2975:2996   */\n      iszero\n        /* \"#utility.yul\":2964:2996   */\n      swap1\n      pop\n        /* \"#utility.yul\":2912:3002   */\n      swap2\n      swap1\n      pop\n      jump\t// out\n        /* \"#utility.yul\":3008:3117   */\n    tag_302:\n        /* \"#utility.yul\":3089:3110   */\n      tag_365\n        /* \"#utility.yul\":3104:3109   */\n      dup2\n        /* \"#utility.yul\":3089:3110   */\n      tag_301\n      jump\t// in\n    tag_365:\n        /* \"#utility.yul\":3084:3087   */\n      dup3\n        /* \"#utility.yul\":3077:3111   */\n      mstore\n        /* \"#utility.yul\":3008:3117   */\n      pop\n      pop\n      jump\t// out\n        /* \"#utility.yul\":3123:3333   */\n    tag_45:\n        /* \"#utility.yul\":3210:3214   */\n      0x00\n        /* \"#utility.yul\":3248:3250   */\n      0x20\n        /* \"#utility.yul\":3237:3246   */\n      dup3\n        /* \"#utility.yul\":3233:3251   */\n      add\n        /* \"#utility.yul\":3225:3251   */\n      swap1\n      pop\n        /* \"#utility.yul\":3261:3326   */\n      tag_367\n        /* \"#utility.yul\":3323:3324   */\n      0x00\n        /* \"#utility.yul\":3312:3321   */\n      dup4\n        /* \"#utility.yul\":3308:3325   */\n      add\n        /* \"#utility.yul\":3299:3305   */\n      dup5\n        /* \"#utility.yul\":3261:3326   */\n      tag_302\n      jump\t// in\n    tag_367:\n        /* \"#utility.yul\":3123:3333   */\n      swap3\n      swap2\n      pop\n      pop\n      jump\t// out\n        /* \"#utility.yul\":3339:3668   */\n    tag_48:\n        /* \"#utility.yul\":3398:3404   */\n      0x00\n        /* \"#utility.yul\":3447:3449   */\n      0x20\n        /* \"#utility.yul\":3435:3444   */\n      dup3\n        /* \"#utility.yul\":3426:3433   */\n      dup5\n        /* \"#utility.yul\":3422:3445   */\n      sub\n        /* \"#utility.yul\":3418:3450   */\n      slt\n        /* \"#utility.yul\":3415:3534   */\n      iszero\n      tag_369\n      jumpi\n        /* \"#utility.yul\":3453:3532   */\n      tag_370\n      tag_292\n      jump\t// in\n    tag_370:\n        /* \"#utility.yul\":3415:3534   */\n    tag_369:\n        /* \"#utility.yul\":3573:3574   */\n      0x00\n        /* \"#utility.yul\":3598:3651   */\n      tag_371\n        /* \"#utility.yul\":3643:3650   */\n      dup5\n        /* \"#utility.yul\":3634:3640   */\n      dup3\n        /* \"#utility.yul\":3623:3632   */\n      dup6\n        /* \"#utility.yul\":3619:3641   */\n      add\n        /* \"#utility.yul\":3598:3651   */\n      tag_297\n      jump\t// in\n    tag_371:\n        /* \"#utility.yul\":3588:3651   */\n      swap2\n      pop\n        /* \"#utility.yul\":3544:3661   */\n      pop\n        /* \"#utility.yul\":3339:3668   */\n      swap3\n      swap2\n      pop\n      pop\n      jump\t// out\n        /* \"#utility.yul\":3674:3792   */\n    tag_303:\n        /* \"#utility.yul\":3761:3785   */\n      tag_373\n        /* \"#utility.yul\":3779:3784   */\n      dup2\n        /* \"#utility.yul\":3761:3785   */\n      tag_298\n      jump\t// in\n    tag_373:\n        /* \"#utility.yul\":3756:3759   */\n      dup3\n        /* \"#utility.yul\":3749:3786   */\n      mstore\n        /* \"#utility.yul\":3674:3792   */\n      pop\n      pop\n      jump\t// out\n        /* \"#utility.yul\":3798:4020   */\n    tag_51:\n        /* \"#utility.yul\":3891:3895   */\n      0x00\n        /* \"#utility.yul\":3929:3931   */\n      0x20\n        /* \"#utility.yul\":3918:3927   */\n      dup3\n        /* \"#utility.yul\":3914:3932   */\n      add\n        /* \"#utility.yul\":3906:3932   */\n      swap1\n      pop\n        /* \"#utility.yul\":3942:4013   */\n      tag_375\n        /* \"#utility.yul\":4010:4011   */\n      0x00\n        /* \"#utility.yul\":3999:4008   */\n      dup4\n        /* \"#utility.yul\":3995:4012   */\n      add\n        /* \"#utility.yul\":3986:3992   */\n      dup5\n        /* \"#utility.yul\":3942:4013   */\n      tag_303\n      jump\t// in\n    tag_375:\n        /* \"#utility.yul\":3798:4020   */\n      swap3\n      swap2\n      pop\n      pop\n      jump\t// out\n        /* \"#utility.yul\":4026:4144   */\n    tag_304:\n        /* \"#utility.yul\":4113:4137   */\n      tag_377\n        /* \"#utility.yul\":4131:4136   */\n      dup2\n        /* \"#utility.yul\":4113:4137   */\n      tag_295\n      jump\t// in\n    tag_377:\n        /* \"#utility.yul\":4108:4111   */\n      dup3\n        /* \"#utility.yul\":4101:4138   */\n      mstore\n        /* \"#utility.yul\":4026:4144   */\n      pop\n      pop\n      jump\t// out\n        /* \"#utility.yul\":4150:4372   */\n    tag_55:\n        /* \"#utility.yul\":4243:4247   */\n      0x00\n        /* \"#utility.yul\":4281:4283   */\n      0x20\n        /* \"#utility.yul\":4270:4279   */\n      dup3\n        /* \"#utility.yul\":4266:4284   */\n      add\n        /* \"#utility.yul\":4258:4284   */\n      swap1\n      pop\n        /* \"#utility.yul\":4294:4365   */\n      tag_379\n        /* \"#utility.yul\":4362:4363   */\n      0x00\n        /* \"#utility.yul\":4351:4360   */\n      dup4\n        /* \"#utility.yul\":4347:4364   */\n      add\n        /* \"#utility.yul\":4338:4344   */\n      dup5\n        /* \"#utility.yul\":4294:4365   */\n      tag_304\n      jump\t// in\n    tag_379:\n        /* \"#utility.yul\":4150:4372   */\n      swap3\n      swap2\n      pop\n      pop\n      jump\t// out\n        /* \"#utility.yul\":4378:4997   */\n    tag_65:\n        /* \"#utility.yul\":4455:4461   */\n      0x00\n        /* \"#utility.yul\":4463:4469   */\n      0x00\n        /* \"#utility.yul\":4471:4477   */\n      0x00\n        /* \"#utility.yul\":4520:4522   */\n      0x60\n        /* \"#utility.yul\":4508:4517   */\n      dup5\n        /* \"#utility.yul\":4499:4506   */\n      dup7\n        /* \"#utility.yul\":4495:4518   */\n      sub\n        /* \"#utility.yul\":4491:4523   */\n      slt\n        /* \"#utility.yul\":4488:4607   */\n      iszero\n      tag_381\n      jumpi\n        /* \"#utility.yul\":4526:4605   */\n      tag_382\n      tag_292\n      jump\t// in\n    tag_382:\n        /* \"#utility.yul\":4488:4607   */\n    tag_381:\n        /* \"#utility.yul\":4646:4647   */\n      0x00\n        /* \"#utility.yul\":4671:4724   */\n      tag_383\n        /* \"#utility.yul\":4716:4723   */\n      dup7\n        /* \"#utility.yul\":4707:4713   */\n      dup3\n        /* \"#utility.yul\":4696:4705   */\n      dup8\n        /* \"#utility.yul\":4692:4714   */\n      add\n        /* \"#utility.yul\":4671:4724   */\n      tag_297\n      jump\t// in\n    tag_383:\n        /* \"#utility.yul\":4661:4724   */\n      swap4\n      pop\n        /* \"#utility.yul\":4617:4734   */\n      pop\n        /* \"#utility.yul\":4773:4775   */\n      0x20\n        /* \"#utility.yul\":4799:4852   */\n      tag_384\n        /* \"#utility.yul\":4844:4851   */\n      dup7\n        /* \"#utility.yul\":4835:4841   */\n      dup3\n        /* \"#utility.yul\":4824:4833   */\n      dup8\n        /* \"#utility.yul\":4820:4842   */\n      add\n        /* \"#utility.yul\":4799:4852   */\n      tag_297\n      jump\t// in\n    tag_384:\n        /* \"#utility.yul\":4789:4852   */\n      swap3\n      pop\n        /* \"#utility.yul\":4744:4862   */\n      pop\n        /* \"#utility.yul\":4901:4903   */\n      0x40\n        /* \"#utility.yul\":4927:4980   */\n      tag_385\n        /* \"#utility.yul\":4972:4979   */\n      dup7\n        /* \"#utility.yul\":4963:4969   */\n      dup3\n        /* \"#utility.yul\":4952:4961   */\n      dup8\n        /* \"#utility.yul\":4948:4970   */\n      add\n        /* \"#utility.yul\":4927:4980   */\n      tag_300\n      jump\t// in\n    tag_385:\n        /* \"#utility.yul\":4917:4980   */\n      swap2\n      pop\n        /* \"#utility.yul\":4872:4990   */\n      pop\n        /* \"#utility.yul\":4378:4997   */\n      swap3\n      pop\n      swap3\n      pop\n      swap3\n      jump\t// out\n        /* \"#utility.yul\":5003:5063   */\n    tag_305:\n        /* \"#utility.yul\":5031:5034   */\n      0x00\n        /* \"#utility.yul\":5052:5057   */\n      dup2\n        /* \"#utility.yul\":5045:5057   */\n      swap1\n      pop\n        /* \"#utility.yul\":5003:5063   */\n      swap2\n      swap1\n      pop\n      jump\t// out\n        /* \"#utility.yul\":5069:5211   */\n    tag_306:\n        /* \"#utility.yul\":5119:5128   */\n      0x00\n        /* \"#utility.yul\":5152:5205   */\n      tag_388\n        /* \"#utility.yul\":5170:5204   */\n      tag_389\n        /* \"#utility.yul\":5179:5203   */\n      tag_390\n        /* \"#utility.yul\":5197:5202   */\n      dup5\n        /* \"#utility.yul\":5179:5203   */\n      tag_294\n      jump\t// in\n    tag_390:\n        /* \"#utility.yul\":5170:5204   */\n      tag_305\n      jump\t// in\n    tag_389:\n        /* \"#utility.yul\":5152:5205   */\n      tag_294\n      jump\t// in\n    tag_388:\n        /* \"#utility.yul\":5139:5205   */\n      swap1\n      pop\n        /* \"#utility.yul\":5069:5211   */\n      swap2\n      swap1\n      pop\n      jump\t// out\n        /* \"#utility.yul\":5217:5343   */\n    tag_307:\n        /* \"#utility.yul\":5267:5276   */\n      0x00\n        /* \"#utility.yul\":5300:5337   */\n      tag_392\n        /* \"#utility.yul\":5331:5336   */\n      dup3\n        /* \"#utility.yul\":5300:5337   */\n      tag_306\n      jump\t// in\n    tag_392:\n        /* \"#utility.yul\":5287:5337   */\n      swap1\n      pop\n        /* \"#utility.yul\":5217:5343   */\n      swap2\n      swap1\n      pop\n      jump\t// out\n        /* \"#utility.yul\":5349:5495   */\n    tag_308:\n        /* \"#utility.yul\":5419:5428   */\n      0x00\n        /* \"#utility.yul\":5452:5489   */\n      tag_394\n        /* \"#utility.yul\":5483:5488   */\n      dup3\n        /* \"#utility.yul\":5452:5489   */\n      tag_307\n      jump\t// in\n    tag_394:\n        /* \"#utility.yul\":5439:5489   */\n      swap1\n      pop\n        /* \"#utility.yul\":5349:5495   */\n      swap2\n      swap1\n      pop\n      jump\t// out\n        /* \"#utility.yul\":5501:5672   */\n    tag_309:\n        /* \"#utility.yul\":5608:5665   */\n      tag_396\n        /* \"#utility.yul\":5659:5664   */\n      dup2\n        /* \"#utility.yul\":5608:5665   */\n      tag_308\n      jump\t// in\n    tag_396:\n        /* \"#utility.yul\":5603:5606   */\n      dup3\n        /* \"#utility.yul\":5596:5666   */\n      mstore\n        /* \"#utility.yul\":5501:5672   */\n      pop\n      pop\n      jump\t// out\n        /* \"#utility.yul\":5678:5940   */\n    tag_71:\n        /* \"#utility.yul\":5791:5795   */\n      0x00\n        /* \"#utility.yul\":5829:5831   */\n      0x20\n        /* \"#utility.yul\":5818:5827   */\n      dup3\n        /* \"#utility.yul\":5814:5832   */\n      add\n        /* \"#utility.yul\":5806:5832   */\n      swap1\n      pop\n        /* \"#utility.yul\":5842:5933   */\n      tag_398\n        /* \"#utility.yul\":5930:5931   */\n      0x00\n        /* \"#utility.yul\":5919:5928   */\n      dup4\n        /* \"#utility.yul\":5915:5932   */\n      add\n        /* \"#utility.yul\":5906:5912   */\n      dup5\n        /* \"#utility.yul\":5842:5933   */\n      tag_309\n      jump\t// in\n    tag_398:\n        /* \"#utility.yul\":5678:5940   */\n      swap3\n      swap2\n      pop\n      pop\n      jump\t// out\n        /* \"#utility.yul\":5946:6032   */\n    tag_310:\n        /* \"#utility.yul\":5981:5988   */\n      0x00\n        /* \"#utility.yul\":6021:6025   */\n      0xff\n        /* \"#utility.yul\":6014:6019   */\n      dup3\n        /* \"#utility.yul\":6010:6026   */\n      and\n        /* \"#utility.yul\":5999:6026   */\n      swap1\n      pop\n        /* \"#utility.yul\":5946:6032   */\n      swap2\n      swap1\n      pop\n      jump\t// out\n        /* \"#utility.yul\":6038:6150   */\n    tag_311:\n        /* \"#utility.yul\":6121:6143   */\n      tag_401\n        /* \"#utility.yul\":6137:6142   */\n      dup2\n        /* \"#utility.yul\":6121:6143   */\n      tag_310\n      jump\t// in\n    tag_401:\n        /* \"#utility.yul\":6116:6119   */\n      dup3\n        /* \"#utility.yul\":6109:6144   */\n      mstore\n        /* \"#utility.yul\":6038:6150   */\n      pop\n      pop\n      jump\t// out\n        /* \"#utility.yul\":6156:6370   */\n    tag_78:\n        /* \"#utility.yul\":6245:6249   */\n      0x00\n        /* \"#utility.yul\":6283:6285   */\n      0x20\n        /* \"#utility.yul\":6272:6281   */\n      dup3\n        /* \"#utility.yul\":6268:6286   */\n      add\n        /* \"#utility.yul\":6260:6286   */\n      swap1\n      pop\n        /* \"#utility.yul\":6296:6363   */\n      tag_403\n        /* \"#utility.yul\":6360:6361   */\n      0x00\n        /* \"#utility.yul\":6349:6358   */\n      dup4\n        /* \"#utility.yul\":6345:6362   */\n      add\n        /* \"#utility.yul\":6336:6342   */\n      dup5\n        /* \"#utility.yul\":6296:6363   */\n      tag_311\n      jump\t// in\n    tag_403:\n        /* \"#utility.yul\":6156:6370   */\n      swap3\n      swap2\n      pop\n      pop\n      jump\t// out\n        /* \"#utility.yul\":6376:6520   */\n    tag_312:\n        /* \"#utility.yul\":6444:6453   */\n      0x00\n        /* \"#utility.yul\":6477:6514   */\n      tag_405\n        /* \"#utility.yul\":6508:6513   */\n      dup3\n        /* \"#utility.yul\":6477:6514   */\n      tag_307\n      jump\t// in\n    tag_405:\n        /* \"#utility.yul\":6464:6514   */\n      swap1\n      pop\n        /* \"#utility.yul\":6376:6520   */\n      swap2\n      swap1\n      pop\n      jump\t// out\n        /* \"#utility.yul\":6526:6693   */\n    tag_313:\n        /* \"#utility.yul\":6631:6686   */\n      tag_407\n        /* \"#utility.yul\":6680:6685   */\n      dup2\n        /* \"#utility.yul\":6631:6686   */\n      tag_312\n      jump\t// in\n    tag_407:\n        /* \"#utility.yul\":6626:6629   */\n      dup3\n        /* \"#utility.yul\":6619:6687   */\n      mstore\n        /* \"#utility.yul\":6526:6693   */\n      pop\n      pop\n      jump\t// out\n        /* \"#utility.yul\":6699:6957   */\n    tag_88:\n        /* \"#utility.yul\":6810:6814   */\n      0x00\n        /* \"#utility.yul\":6848:6850   */\n      0x20\n        /* \"#utility.yul\":6837:6846   */\n      dup3\n        /* \"#utility.yul\":6833:6851   */\n      add\n        /* \"#utility.yul\":6825:6851   */\n      swap1\n      pop\n        /* \"#utility.yul\":6861:6950   */\n      tag_409\n        /* \"#utility.yul\":6947:6948   */\n      0x00\n        /* \"#utility.yul\":6936:6945   */\n      dup4\n        /* \"#utility.yul\":6932:6949   */\n      add\n        /* \"#utility.yul\":6923:6929   */\n      dup5\n        /* \"#utility.yul\":6861:6950   */\n      tag_313\n      jump\t// in\n    tag_409:\n        /* \"#utility.yul\":6699:6957   */\n      swap3\n      swap2\n      pop\n      pop\n      jump\t// out\n        /* \"#utility.yul\":6963:7106   */\n    tag_314:\n        /* \"#utility.yul\":7030:7039   */\n      0x00\n        /* \"#utility.yul\":7063:7100   */\n      tag_411\n        /* \"#utility.yul\":7094:7099   */\n      dup3\n        /* \"#utility.yul\":7063:7100   */\n      tag_307\n      jump\t// in\n    tag_411:\n        /* \"#utility.yul\":7050:7100   */\n      swap1\n      pop\n        /* \"#utility.yul\":6963:7106   */\n      swap2\n      swap1\n      pop\n      jump\t// out\n        /* \"#utility.yul\":7112:7277   */\n    tag_315:\n        /* \"#utility.yul\":7216:7270   */\n      tag_413\n        /* \"#utility.yul\":7264:7269   */\n      dup2\n        /* \"#utility.yul\":7216:7270   */\n      tag_314\n      jump\t// in\n    tag_413:\n        /* \"#utility.yul\":7211:7214   */\n      dup3\n        /* \"#utility.yul\":7204:7271   */\n      mstore\n        /* \"#utility.yul\":7112:7277   */\n      pop\n      pop\n      jump\t// out\n        /* \"#utility.yul\":7283:7539   */\n    tag_104:\n        /* \"#utility.yul\":7393:7397   */\n      0x00\n        /* \"#utility.yul\":7431:7433   */\n      0x20\n        /* \"#utility.yul\":7420:7429   */\n      dup3\n        /* \"#utility.yul\":7416:7434   */\n      add\n        /* \"#utility.yul\":7408:7434   */\n      swap1\n      pop\n        /* \"#utility.yul\":7444:7532   */\n      tag_415\n        /* \"#utility.yul\":7529:7530   */\n      0x00\n        /* \"#utility.yul\":7518:7527   */\n      dup4\n        /* \"#utility.yul\":7514:7531   */\n      add\n        /* \"#utility.yul\":7505:7511   */\n      dup5\n        /* \"#utility.yul\":7444:7532   */\n      tag_315\n      jump\t// in\n    tag_415:\n        /* \"#utility.yul\":7283:7539   */\n      swap3\n      swap2\n      pop\n      pop\n      jump\t// out\n        /* \"#utility.yul\":7545:8019   */\n    tag_123:\n        /* \"#utility.yul\":7613:7619   */\n      0x00\n        /* \"#utility.yul\":7621:7627   */\n      0x00\n        /* \"#utility.yul\":7670:7672   */\n      0x40\n        /* \"#utility.yul\":7658:7667   */\n      dup4\n        /* \"#utility.yul\":7649:7656   */\n      dup6\n        /* \"#utility.yul\":7645:7668   */\n      sub\n        /* \"#utility.yul\":7641:7673   */\n      slt\n        /* \"#utility.yul\":7638:7757   */\n      iszero\n      tag_417\n      jumpi\n        /* \"#utility.yul\":7676:7755   */\n      tag_418\n      tag_292\n      jump\t// in\n    tag_418:\n        /* \"#utility.yul\":7638:7757   */\n    tag_417:\n        /* \"#utility.yul\":7796:7797   */\n      0x00\n        /* \"#utility.yul\":7821:7874   */\n      tag_419\n        /* \"#utility.yul\":7866:7873   */\n      dup6\n        /* \"#utility.yul\":7857:7863   */\n      dup3\n        /* \"#utility.yul\":7846:7855   */\n      dup7\n        /* \"#utility.yul\":7842:7864   */\n      add\n        /* \"#utility.yul\":7821:7874   */\n      tag_297\n      jump\t// in\n    tag_419:\n        /* \"#utility.yul\":7811:7874   */\n      swap3\n      pop\n        /* \"#utility.yul\":7767:7884   */\n      pop\n        /* \"#utility.yul\":7923:7925   */\n      0x20\n        /* \"#utility.yul\":7949:8002   */\n      tag_420\n        /* \"#utility.yul\":7994:8001   */\n      dup6\n        /* \"#utility.yul\":7985:7991   */\n      dup3\n        /* \"#utility.yul\":7974:7983   */\n      dup7\n        /* \"#utility.yul\":7970:7992   */\n      add\n        /* \"#utility.yul\":7949:8002   */\n      tag_297\n      jump\t// in\n    tag_420:\n        /* \"#utility.yul\":7939:8002   */\n      swap2\n      pop\n        /* \"#utility.yul\":7894:8012   */\n      pop\n        /* \"#utility.yul\":7545:8019   */\n      swap3\n      pop\n      swap3\n      swap1\n      pop\n      jump\t// out\n        /* \"#utility.yul\":8025:8205   */\n    tag_316:\n        /* \"#utility.yul\":8073:8150   */\n      0x4e487b7100000000000000000000000000000000000000000000000000000000\n        /* \"#utility.yul\":8070:8071   */\n      0x00\n        /* \"#utility.yul\":8063:8151   */\n      mstore\n        /* \"#utility.yul\":8170:8174   */\n      0x22\n        /* \"#utility.yul\":8167:8168   */\n      0x04\n        /* \"#utility.yul\":8160:8175   */\n      mstore\n        /* \"#utility.yul\":8194:8198   */\n      0x24\n        /* \"#utility.yul\":8191:8192   */\n      0x00\n        /* \"#utility.yul\":8184:8199   */\n      revert\n        /* \"#utility.yul\":8211:8531   */\n    tag_138:\n        /* \"#utility.yul\":8255:8261   */\n      0x00\n        /* \"#utility.yul\":8292:8293   */\n      0x02\n        /* \"#utility.yul\":8286:8290   */\n      dup3\n        /* \"#utility.yul\":8282:8294   */\n      div\n        /* \"#utility.yul\":8272:8294   */\n      swap1\n      pop\n        /* \"#utility.yul\":8339:8340   */\n      0x01\n        /* \"#utility.yul\":8333:8337   */\n      dup3\n        /* \"#utility.yul\":8329:8341   */\n      and\n        /* \"#utility.yul\":8360:8378   */\n      dup1\n        /* \"#utility.yul\":8350:8431   */\n      tag_423\n      jumpi\n        /* \"#utility.yul\":8416:8420   */\n      0x7f\n        /* \"#utility.yul\":8408:8414   */\n      dup3\n        /* \"#utility.yul\":8404:8421   */\n      and\n        /* \"#utility.yul\":8394:8421   */\n      swap2\n      pop\n        /* \"#utility.yul\":8350:8431   */\n    tag_423:\n        /* \"#utility.yul\":8478:8480   */\n      0x20\n        /* \"#utility.yul\":8470:8476   */\n      dup3\n        /* \"#utility.yul\":8467:8481   */\n      lt\n        /* \"#utility.yul\":8447:8465   */\n      dup2\n        /* \"#utility.yul\":8444:8482   */\n      sub\n        /* \"#utility.yul\":8441:8525   */\n      tag_424\n      jumpi\n        /* \"#utility.yul\":8497:8515   */\n      tag_425\n      tag_316\n      jump\t// in\n    tag_425:\n        /* \"#utility.yul\":8441:8525   */\n    tag_424:\n        /* \"#utility.yul\":8262:8531   */\n      pop\n        /* \"#utility.yul\":8211:8531   */\n      swap2\n      swap1\n      pop\n      jump\t// out\n        /* \"#utility.yul\":8537:8653   */\n    tag_317:\n        /* \"#utility.yul\":8607:8628   */\n      tag_427\n        /* \"#utility.yul\":8622:8627   */\n      dup2\n        /* \"#utility.yul\":8607:8628   */\n      tag_301\n      jump\t// in\n    tag_427:\n        /* \"#utility.yul\":8600:8605   */\n      dup2\n        /* \"#utility.yul\":8597:8629   */\n      eq\n        /* \"#utility.yul\":8587:8647   */\n      tag_428\n      jumpi\n        /* \"#utility.yul\":8643:8644   */\n      0x00\n        /* \"#utility.yul\":8640:8641   */\n      0x00\n        /* \"#utility.yul\":8633:8645   */\n      revert\n        /* \"#utility.yul\":8587:8647   */\n    tag_428:\n        /* \"#utility.yul\":8537:8653   */\n      pop\n      jump\t// out\n        /* \"#utility.yul\":8659:8796   */\n    tag_318:\n        /* \"#utility.yul\":8713:8718   */\n      0x00\n        /* \"#utility.yul\":8744:8750   */\n      dup2\n        /* \"#utility.yul\":8738:8751   */\n      mload\n        /* \"#utility.yul\":8729:8751   */\n      swap1\n      pop\n        /* \"#utility.yul\":8760:8790   */\n      tag_430\n        /* \"#utility.yul\":8784:8789   */\n      dup2\n        /* \"#utility.yul\":8760:8790   */\n      tag_317\n      jump\t// in\n    tag_430:\n        /* \"#utility.yul\":8659:8796   */\n      swap3\n      swap2\n      pop\n      pop\n      jump\t// out\n        /* \"#utility.yul\":8802:9147   */\n    tag_158:\n        /* \"#utility.yul\":8869:8875   */\n      0x00\n        /* \"#utility.yul\":8918:8920   */\n      0x20\n        /* \"#utility.yul\":8906:8915   */\n      dup3\n        /* \"#utility.yul\":8897:8904   */\n      dup5\n        /* \"#utility.yul\":8893:8916   */\n      sub\n        /* \"#utility.yul\":8889:8921   */\n      slt\n        /* \"#utility.yul\":8886:9005   */\n      iszero\n      tag_432\n      jumpi\n        /* \"#utility.yul\":8924:9003   */\n      tag_433\n      tag_292\n      jump\t// in\n    tag_433:\n        /* \"#utility.yul\":8886:9005   */\n    tag_432:\n        /* \"#utility.yul\":9044:9045   */\n      0x00\n        /* \"#utility.yul\":9069:9130   */\n      tag_434\n        /* \"#utility.yul\":9122:9129   */\n      dup5\n        /* \"#utility.yul\":9113:9119   */\n      dup3\n        /* \"#utility.yul\":9102:9111   */\n      dup6\n        /* \"#utility.yul\":9098:9120   */\n      add\n        /* \"#utility.yul\":9069:9130   */\n      tag_318\n      jump\t// in\n    tag_434:\n        /* \"#utility.yul\":9059:9130   */\n      swap2\n      pop\n        /* \"#utility.yul\":9015:9140   */\n      pop\n        /* \"#utility.yul\":8802:9147   */\n      swap3\n      swap2\n      pop\n      pop\n      jump\t// out\n        /* \"#utility.yul\":9153:9319   */\n    tag_319:\n        /* \"#utility.yul\":9293:9311   */\n      0x53656e6465722069732066726f7a656e00000000000000000000000000000000\n        /* \"#utility.yul\":9289:9290   */\n      0x00\n        /* \"#utility.yul\":9281:9287   */\n      dup3\n        /* \"#utility.yul\":9277:9291   */\n      add\n        /* \"#utility.yul\":9270:9312   */\n      mstore\n        /* \"#utility.yul\":9153:9319   */\n      pop\n      jump\t// out\n        /* \"#utility.yul\":9325:9691   */\n    tag_320:\n        /* \"#utility.yul\":9467:9470   */\n      0x00\n        /* \"#utility.yul\":9488:9555   */\n      tag_437\n        /* \"#utility.yul\":9552:9554   */\n      0x10\n        /* \"#utility.yul\":9547:9550   */\n      dup4\n        /* \"#utility.yul\":9488:9555   */\n      tag_287\n      jump\t// in\n    tag_437:\n        /* \"#utility.yul\":9481:9555   */\n      swap2\n      pop\n        /* \"#utility.yul\":9564:9657   */\n      tag_438\n        /* \"#utility.yul\":9653:9656   */\n      dup3\n        /* \"#utility.yul\":9564:9657   */\n      tag_319\n      jump\t// in\n    tag_438:\n        /* \"#utility.yul\":9682:9684   */\n      0x20\n        /* \"#utility.yul\":9677:9680   */\n      dup3\n        /* \"#utility.yul\":9673:9685   */\n      add\n        /* \"#utility.yul\":9666:9685   */\n      swap1\n      pop\n        /* \"#utility.yul\":9325:9691   */\n      swap2\n      swap1\n      pop\n      jump\t// out\n        /* \"#utility.yul\":9697:10116   */\n    tag_161:\n        /* \"#utility.yul\":9863:9867   */\n      0x00\n        /* \"#utility.yul\":9901:9903   */\n      0x20\n        /* \"#utility.yul\":9890:9899   */\n      dup3\n        /* \"#utility.yul\":9886:9904   */\n      add\n        /* \"#utility.yul\":9878:9904   */\n      swap1\n      pop\n        /* \"#utility.yul\":9950:9959   */\n      dup2\n        /* \"#utility.yul\":9944:9948   */\n      dup2\n        /* \"#utility.yul\":9940:9960   */\n      sub\n        /* \"#utility.yul\":9936:9937   */\n      0x00\n        /* \"#utility.yul\":9925:9934   */\n      dup4\n        /* \"#utility.yul\":9921:9938   */\n      add\n        /* \"#utility.yul\":9914:9961   */\n      mstore\n        /* \"#utility.yul\":9978:10109   */\n      tag_440\n        /* \"#utility.yul\":10104:10108   */\n      dup2\n        /* \"#utility.yul\":9978:10109   */\n      tag_320\n      jump\t// in\n    tag_440:\n        /* \"#utility.yul\":9970:10109   */\n      swap1\n      pop\n        /* \"#utility.yul\":9697:10116   */\n      swap2\n      swap1\n      pop\n      jump\t// out\n        /* \"#utility.yul\":10122:10297   */\n    tag_321:\n        /* \"#utility.yul\":10262:10289   */\n      0x416d6f756e74206d75737420626520616e20696e746567657200000000000000\n        /* \"#utility.yul\":10258:10259   */\n      0x00\n        /* \"#utility.yul\":10250:10256   */\n      dup3\n        /* \"#utility.yul\":10246:10260   */\n      add\n        /* \"#utility.yul\":10239:10290   */\n      mstore\n        /* \"#utility.yul\":10122:10297   */\n      pop\n      jump\t// out\n        /* \"#utility.yul\":10303:10669   */\n    tag_322:\n        /* \"#utility.yul\":10445:10448   */\n      0x00\n        /* \"#utility.yul\":10466:10533   */\n      tag_443\n        /* \"#utility.yul\":10530:10532   */\n      0x19\n        /* \"#utility.yul\":10525:10528   */\n      dup4\n        /* \"#utility.yul\":10466:10533   */\n      tag_287\n      jump\t// in\n    tag_443:\n        /* \"#utility.yul\":10459:10533   */\n      swap2\n      pop\n        /* \"#utility.yul\":10542:10635   */\n      tag_444\n        /* \"#utility.yul\":10631:10634   */\n      dup3\n        /* \"#utility.yul\":10542:10635   */\n      tag_321\n      jump\t// in\n    tag_444:\n        /* \"#utility.yul\":10660:10662   */\n      0x20\n        /* \"#utility.yul\":10655:10658   */\n      dup3\n        /* \"#utility.yul\":10651:10663   */\n      add\n        /* \"#utility.yul\":10644:10663   */\n      swap1\n      pop\n        /* \"#utility.yul\":10303:10669   */\n      swap2\n      swap1\n      pop\n      jump\t// out\n        /* \"#utility.yul\":10675:11094   */\n    tag_164:\n        /* \"#utility.yul\":10841:10845   */\n      0x00\n        /* \"#utility.yul\":10879:10881   */\n      0x20\n        /* \"#utility.yul\":10868:10877   */\n      dup3\n        /* \"#utility.yul\":10864:10882   */\n      add\n        /* \"#utility.yul\":10856:10882   */\n      swap1\n      pop\n        /* \"#utility.yul\":10928:10937   */\n      dup2\n        /* \"#utility.yul\":10922:10926   */\n      dup2\n        /* \"#utility.yul\":10918:10938   */\n      sub\n        /* \"#utility.yul\":10914:10915   */\n      0x00\n        /* \"#utility.yul\":10903:10912   */\n      dup4\n        /* \"#utility.yul\":10899:10916   */\n      add\n        /* \"#utility.yul\":10892:10939   */\n      mstore\n        /* \"#utility.yul\":10956:11087   */\n      tag_446\n        /* \"#utility.yul\":11082:11086   */\n      dup2\n        /* \"#utility.yul\":10956:11087   */\n      tag_322\n      jump\t// in\n    tag_446:\n        /* \"#utility.yul\":10948:11087   */\n      swap1\n      pop\n        /* \"#utility.yul\":10675:11094   */\n      swap2\n      swap1\n      pop\n      jump\t// out\n        /* \"#utility.yul\":11100:11265   */\n    tag_323:\n        /* \"#utility.yul\":11240:11257   */\n      0x4e6f742077686974656c69737465640000000000000000000000000000000000\n        /* \"#utility.yul\":11236:11237   */\n      0x00\n        /* \"#utility.yul\":11228:11234   */\n      dup3\n        /* \"#utility.yul\":11224:11238   */\n      add\n        /* \"#utility.yul\":11217:11258   */\n      mstore\n        /* \"#utility.yul\":11100:11265   */\n      pop\n      jump\t// out\n        /* \"#utility.yul\":11271:11637   */\n    tag_324:\n        /* \"#utility.yul\":11413:11416   */\n      0x00\n        /* \"#utility.yul\":11434:11501   */\n      tag_449\n        /* \"#utility.yul\":11498:11500   */\n      0x0f\n        /* \"#utility.yul\":11493:11496   */\n      dup4\n        /* \"#utility.yul\":11434:11501   */\n      tag_287\n      jump\t// in\n    tag_449:\n        /* \"#utility.yul\":11427:11501   */\n      swap2\n      pop\n        /* \"#utility.yul\":11510:11603   */\n      tag_450\n        /* \"#utility.yul\":11599:11602   */\n      dup3\n        /* \"#utility.yul\":11510:11603   */\n      tag_323\n      jump\t// in\n    tag_450:\n        /* \"#utility.yul\":11628:11630   */\n      0x20\n        /* \"#utility.yul\":11623:11626   */\n      dup3\n        /* \"#utility.yul\":11619:11631   */\n      add\n        /* \"#utility.yul\":11612:11631   */\n      swap1\n      pop\n        /* \"#utility.yul\":11271:11637   */\n      swap2\n      swap1\n      pop\n      jump\t// out\n        /* \"#utility.yul\":11643:12062   */\n    tag_178:\n        /* \"#utility.yul\":11809:11813   */\n      0x00\n        /* \"#utility.yul\":11847:11849   */\n      0x20\n        /* \"#utility.yul\":11836:11845   */\n      dup3\n        /* \"#utility.yul\":11832:11850   */\n      add\n        /* \"#utility.yul\":11824:11850   */\n      swap1\n      pop\n        /* \"#utility.yul\":11896:11905   */\n      dup2\n        /* \"#utility.yul\":11890:11894   */\n      dup2\n        /* \"#utility.yul\":11886:11906   */\n      sub\n        /* \"#utility.yul\":11882:11883   */\n      0x00\n        /* \"#utility.yul\":11871:11880   */\n      dup4\n        /* \"#utility.yul\":11867:11884   */\n      add\n        /* \"#utility.yul\":11860:11907   */\n      mstore\n        /* \"#utility.yul\":11924:12055   */\n      tag_452\n        /* \"#utility.yul\":12050:12054   */\n      dup2\n        /* \"#utility.yul\":11924:12055   */\n      tag_324\n      jump\t// in\n    tag_452:\n        /* \"#utility.yul\":11916:12055   */\n      swap1\n      pop\n        /* \"#utility.yul\":11643:12062   */\n      swap2\n      swap1\n      pop\n      jump\t// out\n        /* \"#utility.yul\":12068:12248   */\n    tag_325:\n        /* \"#utility.yul\":12116:12193   */\n      0x4e487b7100000000000000000000000000000000000000000000000000000000\n        /* \"#utility.yul\":12113:12114   */\n      0x00\n        /* \"#utility.yul\":12106:12194   */\n      mstore\n        /* \"#utility.yul\":12213:12217   */\n      0x11\n        /* \"#utility.yul\":12210:12211   */\n      0x04\n        /* \"#utility.yul\":12203:12218   */\n      mstore\n        /* \"#utility.yul\":12237:12241   */\n      0x24\n        /* \"#utility.yul\":12234:12235   */\n      0x00\n        /* \"#utility.yul\":12227:12242   */\n      revert\n        /* \"#utility.yul\":12254:12445   */\n    tag_180:\n        /* \"#utility.yul\":12294:12297   */\n      0x00\n        /* \"#utility.yul\":12313:12333   */\n      tag_455\n        /* \"#utility.yul\":12331:12332   */\n      dup3\n        /* \"#utility.yul\":12313:12333   */\n      tag_298\n      jump\t// in\n    tag_455:\n        /* \"#utility.yul\":12308:12333   */\n      swap2\n      pop\n        /* \"#utility.yul\":12347:12367   */\n      tag_456\n        /* \"#utility.yul\":12365:12366   */\n      dup4\n        /* \"#utility.yul\":12347:12367   */\n      tag_298\n      jump\t// in\n    tag_456:\n        /* \"#utility.yul\":12342:12367   */\n      swap3\n      pop\n        /* \"#utility.yul\":12390:12391   */\n      dup3\n        /* \"#utility.yul\":12387:12388   */\n      dup3\n        /* \"#utility.yul\":12383:12392   */\n      add\n        /* \"#utility.yul\":12376:12392   */\n      swap1\n      pop\n        /* \"#utility.yul\":12411:12414   */\n      dup1\n        /* \"#utility.yul\":12408:12409   */\n      dup3\n        /* \"#utility.yul\":12405:12415   */\n      gt\n        /* \"#utility.yul\":12402:12438   */\n      iszero\n      tag_457\n      jumpi\n        /* \"#utility.yul\":12418:12436   */\n      tag_458\n      tag_325\n      jump\t// in\n    tag_458:\n        /* \"#utility.yul\":12402:12438   */\n    tag_457:\n        /* \"#utility.yul\":12254:12445   */\n      swap3\n      swap2\n      pop\n      pop\n      jump\t// out\n        /* \"#utility.yul\":12451:12622   */\n    tag_326:\n        /* \"#utility.yul\":12591:12614   */\n      0x546f74616c20737570706c792065786365656465640000000000000000000000\n        /* \"#utility.yul\":12587:12588   */\n      0x00\n        /* \"#utility.yul\":12579:12585   */\n      dup3\n        /* \"#utility.yul\":12575:12589   */\n      add\n        /* \"#utility.yul\":12568:12615   */\n      mstore\n        /* \"#utility.yul\":12451:12622   */\n      pop\n      jump\t// out\n        /* \"#utility.yul\":12628:12994   */\n    tag_327:\n        /* \"#utility.yul\":12770:12773   */\n      0x00\n        /* \"#utility.yul\":12791:12858   */\n      tag_461\n        /* \"#utility.yul\":12855:12857   */\n      0x15\n        /* \"#utility.yul\":12850:12853   */\n      dup4\n        /* \"#utility.yul\":12791:12858   */\n      tag_287\n      jump\t// in\n    tag_461:\n        /* \"#utility.yul\":12784:12858   */\n      swap2\n      pop\n        /* \"#utility.yul\":12867:12960   */\n      tag_462\n        /* \"#utility.yul\":12956:12959   */\n      dup3\n        /* \"#utility.yul\":12867:12960   */\n      tag_326\n      jump\t// in\n    tag_462:\n        /* \"#utility.yul\":12985:12987   */\n      0x20\n        /* \"#utility.yul\":12980:12983   */\n      dup3\n        /* \"#utility.yul\":12976:12988   */\n      add\n        /* \"#utility.yul\":12969:12988   */\n      swap1\n      pop\n        /* \"#utility.yul\":12628:12994   */\n      swap2\n      swap1\n      pop\n      jump\t// out\n        /* \"#utility.yul\":13000:13419   */\n    tag_183:\n        /* \"#utility.yul\":13166:13170   */\n      0x00\n        /* \"#utility.yul\":13204:13206   */\n      0x20\n        /* \"#utility.yul\":13193:13202   */\n      dup3\n        /* \"#utility.yul\":13189:13207   */\n      add\n        /* \"#utility.yul\":13181:13207   */\n      swap1\n      pop\n        /* \"#utility.yul\":13253:13262   */\n      dup2\n        /* \"#utility.yul\":13247:13251   */\n      dup2\n        /* \"#utility.yul\":13243:13263   */\n      sub\n        /* \"#utility.yul\":13239:13240   */\n      0x00\n        /* \"#utility.yul\":13228:13237   */\n      dup4\n        /* \"#utility.yul\":13224:13241   */\n      add\n        /* \"#utility.yul\":13217:13264   */\n      mstore\n        /* \"#utility.yul\":13281:13412   */\n      tag_464\n        /* \"#utility.yul\":13407:13411   */\n      dup2\n        /* \"#utility.yul\":13281:13412   */\n      tag_327\n      jump\t// in\n    tag_464:\n        /* \"#utility.yul\":13273:13412   */\n      swap1\n      pop\n        /* \"#utility.yul\":13000:13419   */\n      swap2\n      swap1\n      pop\n      jump\t// out\n        /* \"#utility.yul\":13425:13568   */\n    tag_328:\n        /* \"#utility.yul\":13482:13487   */\n      0x00\n        /* \"#utility.yul\":13513:13519   */\n      dup2\n        /* \"#utility.yul\":13507:13520   */\n      mload\n        /* \"#utility.yul\":13498:13520   */\n      swap1\n      pop\n        /* \"#utility.yul\":13529:13562   */\n      tag_466\n        /* \"#utility.yul\":13556:13561   */\n      dup2\n        /* \"#utility.yul\":13529:13562   */\n      tag_299\n      jump\t// in\n    tag_466:\n        /* \"#utility.yul\":13425:13568   */\n      swap3\n      swap2\n      pop\n      pop\n      jump\t// out\n        /* \"#utility.yul\":13574:13925   */\n    tag_225:\n        /* \"#utility.yul\":13644:13650   */\n      0x00\n        /* \"#utility.yul\":13693:13695   */\n      0x20\n        /* \"#utility.yul\":13681:13690   */\n      dup3\n        /* \"#utility.yul\":13672:13679   */\n      dup5\n        /* \"#utility.yul\":13668:13691   */\n      sub\n        /* \"#utility.yul\":13664:13696   */\n      slt\n        /* \"#utility.yul\":13661:13780   */\n      iszero\n      tag_468\n      jumpi\n        /* \"#utility.yul\":13699:13778   */\n      tag_469\n      tag_292\n      jump\t// in\n    tag_469:\n        /* \"#utility.yul\":13661:13780   */\n    tag_468:\n        /* \"#utility.yul\":13819:13820   */\n      0x00\n        /* \"#utility.yul\":13844:13908   */\n      tag_470\n        /* \"#utility.yul\":13900:13907   */\n      dup5\n        /* \"#utility.yul\":13891:13897   */\n      dup3\n        /* \"#utility.yul\":13880:13889   */\n      dup6\n        /* \"#utility.yul\":13876:13898   */\n      add\n        /* \"#utility.yul\":13844:13908   */\n      tag_328\n      jump\t// in\n    tag_470:\n        /* \"#utility.yul\":13834:13908   */\n      swap2\n      pop\n        /* \"#utility.yul\":13790:13918   */\n      pop\n        /* \"#utility.yul\":13574:13925   */\n      swap3\n      swap2\n      pop\n      pop\n      jump\t// out\n        /* \"#utility.yul\":13931:14373   */\n    tag_269:\n        /* \"#utility.yul\":14080:14084   */\n      0x00\n        /* \"#utility.yul\":14118:14120   */\n      0x60\n        /* \"#utility.yul\":14107:14116   */\n      dup3\n        /* \"#utility.yul\":14103:14121   */\n      add\n        /* \"#utility.yul\":14095:14121   */\n      swap1\n      pop\n        /* \"#utility.yul\":14131:14202   */\n      tag_472\n        /* \"#utility.yul\":14199:14200   */\n      0x00\n        /* \"#utility.yul\":14188:14197   */\n      dup4\n        /* \"#utility.yul\":14184:14201   */\n      add\n        /* \"#utility.yul\":14175:14181   */\n      dup7\n        /* \"#utility.yul\":14131:14202   */\n      tag_304\n      jump\t// in\n    tag_472:\n        /* \"#utility.yul\":14212:14284   */\n      tag_473\n        /* \"#utility.yul\":14280:14282   */\n      0x20\n        /* \"#utility.yul\":14269:14278   */\n      dup4\n        /* \"#utility.yul\":14265:14283   */\n      add\n        /* \"#utility.yul\":14256:14262   */\n      dup6\n        /* \"#utility.yul\":14212:14284   */\n      tag_303\n      jump\t// in\n    tag_473:\n        /* \"#utility.yul\":14294:14366   */\n      tag_474\n        /* \"#utility.yul\":14362:14364   */\n      0x40\n        /* \"#utility.yul\":14351:14360   */\n      dup4\n        /* \"#utility.yul\":14347:14365   */\n      add\n        /* \"#utility.yul\":14338:14344   */\n      dup5\n        /* \"#utility.yul\":14294:14366   */\n      tag_303\n      jump\t// in\n    tag_474:\n        /* \"#utility.yul\":13931:14373   */\n      swap5\n      swap4\n      pop\n      pop\n      pop\n      pop\n      jump\t// out\n\n    auxdata: 0xa264697066735822122071f06dd889a253c53401ead606c64d3bcefb97a1fcab2428ba5cb243c29c98a664736f6c634300081e0033\n}\n\nsub_1: assembly {\n        /* \"contracts/CCK/Token/CCKToken_flattened.sol\":24980:25856  contract Whitelist {... */\n      mstore(0x40, 0x80)\n      callvalue\n      dup1\n      iszero\n      tag_1\n      jumpi\n      revert(0x00, 0x00)\n    tag_1:\n      pop\n      dataSize(sub_0)\n      dup1\n      dataOffset(sub_0)\n      0x00\n      codecopy\n      0x00\n      return\n    stop\n\n    sub_0: assembly {\n            /* \"contracts/CCK/Token/CCKToken_flattened.sol\":24980:25856  contract Whitelist {... */\n          mstore(0x40, 0x80)\n          callvalue\n          dup1\n          iszero\n          tag_1\n          jumpi\n          revert(0x00, 0x00)\n        tag_1:\n          pop\n          jumpi(tag_2, lt(calldatasize, 0x04))\n          shr(0xe0, calldataload(0x00))\n          dup1\n          0x3af32abf\n          eq\n          tag_3\n          jumpi\n          dup1\n          0x8ab1d681\n          eq\n          tag_4\n          jumpi\n          dup1\n          0x9b19251a\n          eq\n          tag_5\n          jumpi\n          dup1\n          0xe43252d7\n          eq\n          tag_6\n          jumpi\n        tag_2:\n          revert(0x00, 0x00)\n            /* \"contracts/CCK/Token/CCKToken_flattened.sol\":25745:25854  function isWhitelisted(address member) external view returns (bool) {... */\n        tag_3:\n          tag_7\n          0x04\n          dup1\n          calldatasize\n          sub\n          dup2\n          add\n          swap1\n          tag_8\n          swap2\n          swap1\n          tag_9\n          jump\t// in\n        tag_8:\n          tag_10\n          jump\t// in\n        tag_7:\n          mload(0x40)\n          tag_11\n          swap2\n          swap1\n          tag_12\n          jump\t// in\n        tag_11:\n          mload(0x40)\n          dup1\n          swap2\n          sub\n          swap1\n          return\n            /* \"contracts/CCK/Token/CCKToken_flattened.sol\":25466:25562  function removeFromWhitelist(address member) external {... */\n        tag_4:\n          tag_13\n          0x04\n          dup1\n          calldatasize\n          sub\n          dup2\n          add\n          swap1\n          tag_14\n          swap2\n          swap1\n          tag_9\n          jump\t// in\n        tag_14:\n          tag_15\n          jump\t// in\n        tag_13:\n          stop\n            /* \"contracts/CCK/Token/CCKToken_flattened.sol\":25051:25092  mapping(address => bool) public whitelist */\n        tag_5:\n          tag_16\n          0x04\n          dup1\n          calldatasize\n          sub\n          dup2\n          add\n          swap1\n          tag_17\n          swap2\n          swap1\n          tag_9\n          jump\t// in\n        tag_17:\n          tag_18\n          jump\t// in\n        tag_16:\n          mload(0x40)\n          tag_19\n          swap2\n          swap1\n          tag_12\n          jump\t// in\n        tag_19:\n          mload(0x40)\n          dup1\n          swap2\n          sub\n          swap1\n          return\n            /* \"contracts/CCK/Token/CCKToken_flattened.sol\":25230:25320  function addToWhitelist(address member) external {... */\n        tag_6:\n          tag_20\n          0x04\n          dup1\n          calldatasize\n          sub\n          dup2\n          add\n          swap1\n          tag_21\n          swap2\n          swap1\n          tag_9\n          jump\t// in\n        tag_21:\n          tag_22\n          jump\t// in\n        tag_20:\n          stop\n            /* \"contracts/CCK/Token/CCKToken_flattened.sol\":25745:25854  function isWhitelisted(address member) external view returns (bool) {... */\n        tag_10:\n            /* \"contracts/CCK/Token/CCKToken_flattened.sol\":25807:25811  bool */\n          0x00\n            /* \"contracts/CCK/Token/CCKToken_flattened.sol\":25830:25839  whitelist */\n          0x00\n            /* \"contracts/CCK/Token/CCKToken_flattened.sol\":25830:25847  whitelist[member] */\n          0x00\n            /* \"contracts/CCK/Token/CCKToken_flattened.sol\":25840:25846  member */\n          dup4\n            /* \"contracts/CCK/Token/CCKToken_flattened.sol\":25830:25847  whitelist[member] */\n          0xffffffffffffffffffffffffffffffffffffffff\n          and\n          0xffffffffffffffffffffffffffffffffffffffff\n          and\n          dup2\n          mstore\n          0x20\n          add\n          swap1\n          dup2\n          mstore\n          0x20\n          add\n          0x00\n          keccak256\n          0x00\n          swap1\n          sload\n          swap1\n          0x0100\n          exp\n          swap1\n          div\n          0xff\n          and\n            /* \"contracts/CCK/Token/CCKToken_flattened.sol\":25823:25847  return whitelist[member] */\n          swap1\n          pop\n            /* \"contracts/CCK/Token/CCKToken_flattened.sol\":25745:25854  function isWhitelisted(address member) external view returns (bool) {... */\n          swap2\n          swap1\n          pop\n          jump\t// out\n            /* \"contracts/CCK/Token/CCKToken_flattened.sol\":25466:25562  function removeFromWhitelist(address member) external {... */\n        tag_15:\n            /* \"contracts/CCK/Token/CCKToken_flattened.sol\":25550:25555  false */\n          0x00\n            /* \"contracts/CCK/Token/CCKToken_flattened.sol\":25530:25539  whitelist */\n          0x00\n            /* \"contracts/CCK/Token/CCKToken_flattened.sol\":25530:25547  whitelist[member] */\n          0x00\n            /* \"contracts/CCK/Token/CCKToken_flattened.sol\":25540:25546  member */\n          dup4\n            /* \"contracts/CCK/Token/CCKToken_flattened.sol\":25530:25547  whitelist[member] */\n          0xffffffffffffffffffffffffffffffffffffffff\n          and\n          0xffffffffffffffffffffffffffffffffffffffff\n          and\n          dup2\n          mstore\n          0x20\n          add\n          swap1\n          dup2\n          mstore\n          0x20\n          add\n          0x00\n          keccak256\n          0x00\n            /* \"contracts/CCK/Token/CCKToken_flattened.sol\":25530:25555  whitelist[member] = false */\n          0x0100\n          exp\n          dup2\n          sload\n          dup2\n          0xff\n          mul\n          not\n          and\n          swap1\n          dup4\n          iszero\n          iszero\n          mul\n          or\n          swap1\n          sstore\n          pop\n            /* \"contracts/CCK/Token/CCKToken_flattened.sol\":25466:25562  function removeFromWhitelist(address member) external {... */\n          pop\n          jump\t// out\n            /* \"contracts/CCK/Token/CCKToken_flattened.sol\":25051:25092  mapping(address => bool) public whitelist */\n        tag_18:\n          mstore(0x20, 0x00)\n          dup1\n          0x00\n          mstore\n          keccak256(0x00, 0x40)\n          0x00\n          swap2\n          pop\n          sload\n          swap1\n          0x0100\n          exp\n          swap1\n          div\n          0xff\n          and\n          dup2\n          jump\t// out\n            /* \"contracts/CCK/Token/CCKToken_flattened.sol\":25230:25320  function addToWhitelist(address member) external {... */\n        tag_22:\n            /* \"contracts/CCK/Token/CCKToken_flattened.sol\":25309:25313  true */\n          0x01\n            /* \"contracts/CCK/Token/CCKToken_flattened.sol\":25289:25298  whitelist */\n          0x00\n            /* \"contracts/CCK/Token/CCKToken_flattened.sol\":25289:25306  whitelist[member] */\n          0x00\n            /* \"contracts/CCK/Token/CCKToken_flattened.sol\":25299:25305  member */\n          dup4\n            /* \"contracts/CCK/Token/CCKToken_flattened.sol\":25289:25306  whitelist[member] */\n          0xffffffffffffffffffffffffffffffffffffffff\n          and\n          0xffffffffffffffffffffffffffffffffffffffff\n          and\n          dup2\n          mstore\n          0x20\n          add\n          swap1\n          dup2\n          mstore\n          0x20\n          add\n          0x00\n          keccak256\n          0x00\n            /* \"contracts/CCK/Token/CCKToken_flattened.sol\":25289:25313  whitelist[member] = true */\n          0x0100\n          exp\n          dup2\n          sload\n          dup2\n          0xff\n          mul\n          not\n          and\n          swap1\n          dup4\n          iszero\n          iszero\n          mul\n          or\n          swap1\n          sstore\n          pop\n            /* \"contracts/CCK/Token/CCKToken_flattened.sol\":25230:25320  function addToWhitelist(address member) external {... */\n          pop\n          jump\t// out\n            /* \"#utility.yul\":88:205   */\n        tag_27:\n            /* \"#utility.yul\":197:198   */\n          0x00\n            /* \"#utility.yul\":194:195   */\n          0x00\n            /* \"#utility.yul\":187:199   */\n          revert\n            /* \"#utility.yul\":334:460   */\n        tag_29:\n            /* \"#utility.yul\":371:378   */\n          0x00\n            /* \"#utility.yul\":411:453   */\n          0xffffffffffffffffffffffffffffffffffffffff\n            /* \"#utility.yul\":404:409   */\n          dup3\n            /* \"#utility.yul\":400:454   */\n          and\n            /* \"#utility.yul\":389:454   */\n          swap1\n          pop\n            /* \"#utility.yul\":334:460   */\n          swap2\n          swap1\n          pop\n          jump\t// out\n            /* \"#utility.yul\":466:562   */\n        tag_30:\n            /* \"#utility.yul\":503:510   */\n          0x00\n            /* \"#utility.yul\":532:556   */\n          tag_41\n            /* \"#utility.yul\":550:555   */\n          dup3\n            /* \"#utility.yul\":532:556   */\n          tag_29\n          jump\t// in\n        tag_41:\n            /* \"#utility.yul\":521:556   */\n          swap1\n          pop\n            /* \"#utility.yul\":466:562   */\n          swap2\n          swap1\n          pop\n          jump\t// out\n            /* \"#utility.yul\":568:690   */\n        tag_31:\n            /* \"#utility.yul\":641:665   */\n          tag_43\n            /* \"#utility.yul\":659:664   */\n          dup2\n            /* \"#utility.yul\":641:665   */\n          tag_30\n          jump\t// in\n        tag_43:\n            /* \"#utility.yul\":634:639   */\n          dup2\n            /* \"#utility.yul\":631:666   */\n          eq\n            /* \"#utility.yul\":621:684   */\n          tag_44\n          jumpi\n            /* \"#utility.yul\":680:681   */\n          0x00\n            /* \"#utility.yul\":677:678   */\n          0x00\n            /* \"#utility.yul\":670:682   */\n          revert\n            /* \"#utility.yul\":621:684   */\n        tag_44:\n            /* \"#utility.yul\":568:690   */\n          pop\n          jump\t// out\n            /* \"#utility.yul\":696:835   */\n        tag_32:\n            /* \"#utility.yul\":742:747   */\n          0x00\n            /* \"#utility.yul\":780:786   */\n          dup2\n            /* \"#utility.yul\":767:787   */\n          calldataload\n            /* \"#utility.yul\":758:787   */\n          swap1\n          pop\n            /* \"#utility.yul\":796:829   */\n          tag_46\n            /* \"#utility.yul\":823:828   */\n          dup2\n            /* \"#utility.yul\":796:829   */\n          tag_31\n          jump\t// in\n        tag_46:\n            /* \"#utility.yul\":696:835   */\n          swap3\n          swap2\n          pop\n          pop\n          jump\t// out\n            /* \"#utility.yul\":841:1170   */\n        tag_9:\n            /* \"#utility.yul\":900:906   */\n          0x00\n            /* \"#utility.yul\":949:951   */\n          0x20\n            /* \"#utility.yul\":937:946   */\n          dup3\n            /* \"#utility.yul\":928:935   */\n          dup5\n            /* \"#utility.yul\":924:947   */\n          sub\n            /* \"#utility.yul\":920:952   */\n          slt\n            /* \"#utility.yul\":917:1036   */\n          iszero\n          tag_48\n          jumpi\n            /* \"#utility.yul\":955:1034   */\n          tag_49\n          tag_27\n          jump\t// in\n        tag_49:\n            /* \"#utility.yul\":917:1036   */\n        tag_48:\n            /* \"#utility.yul\":1075:1076   */\n          0x00\n            /* \"#utility.yul\":1100:1153   */\n          tag_50\n            /* \"#utility.yul\":1145:1152   */\n          dup5\n            /* \"#utility.yul\":1136:1142   */\n          dup3\n            /* \"#utility.yul\":1125:1134   */\n          dup6\n            /* \"#utility.yul\":1121:1143   */\n          add\n            /* \"#utility.yul\":1100:1153   */\n          tag_32\n          jump\t// in\n        tag_50:\n            /* \"#utility.yul\":1090:1153   */\n          swap2\n          pop\n            /* \"#utility.yul\":1046:1163   */\n          pop\n            /* \"#utility.yul\":841:1170   */\n          swap3\n          swap2\n          pop\n          pop\n          jump\t// out\n            /* \"#utility.yul\":1176:1266   */\n        tag_33:\n            /* \"#utility.yul\":1210:1217   */\n          0x00\n            /* \"#utility.yul\":1253:1258   */\n          dup2\n            /* \"#utility.yul\":1246:1259   */\n          iszero\n            /* \"#utility.yul\":1239:1260   */\n          iszero\n            /* \"#utility.yul\":1228:1260   */\n          swap1\n          pop\n            /* \"#utility.yul\":1176:1266   */\n          swap2\n          swap1\n          pop\n          jump\t// out\n            /* \"#utility.yul\":1272:1381   */\n        tag_34:\n            /* \"#utility.yul\":1353:1374   */\n          tag_53\n            /* \"#utility.yul\":1368:1373   */\n          dup2\n            /* \"#utility.yul\":1353:1374   */\n          tag_33\n          jump\t// in\n        tag_53:\n            /* \"#utility.yul\":1348:1351   */\n          dup3\n            /* \"#utility.yul\":1341:1375   */\n          mstore\n            /* \"#utility.yul\":1272:1381   */\n          pop\n          pop\n          jump\t// out\n            /* \"#utility.yul\":1387:1597   */\n        tag_12:\n            /* \"#utility.yul\":1474:1478   */\n          0x00\n            /* \"#utility.yul\":1512:1514   */\n          0x20\n            /* \"#utility.yul\":1501:1510   */\n          dup3\n            /* \"#utility.yul\":1497:1515   */\n          add\n            /* \"#utility.yul\":1489:1515   */\n          swap1\n          pop\n            /* \"#utility.yul\":1525:1590   */\n          tag_55\n            /* \"#utility.yul\":1587:1588   */\n          0x00\n            /* \"#utility.yul\":1576:1585   */\n          dup4\n            /* \"#utility.yul\":1572:1589   */\n          add\n            /* \"#utility.yul\":1563:1569   */\n          dup5\n            /* \"#utility.yul\":1525:1590   */\n          tag_34\n          jump\t// in\n        tag_55:\n            /* \"#utility.yul\":1387:1597   */\n          swap3\n          swap2\n          pop\n          pop\n          jump\t// out\n\n        auxdata: 0xa2646970667358221220057ca57a84cc7c4601190dc4c1f111229efafb7710b6b5c7fd335271704493f164736f6c634300081e0033\n    }\n}\n\nsub_2: assembly {\n        /* \"contracts/CCK/Token/CCKToken_flattened.sol\":26026:26917  contract Freezable {... */\n      mstore(0x40, 0x80)\n      callvalue\n      dup1\n      iszero\n      tag_1\n      jumpi\n      revert(0x00, 0x00)\n    tag_1:\n      pop\n      dataSize(sub_0)\n      dup1\n      dataOffset(sub_0)\n      0x00\n      codecopy\n      0x00\n      return\n    stop\n\n    sub_0: assembly {\n            /* \"contracts/CCK/Token/CCKToken_flattened.sol\":26026:26917  contract Freezable {... */\n          mstore(0x40, 0x80)\n          callvalue\n          dup1\n          iszero\n          tag_1\n          jumpi\n          revert(0x00, 0x00)\n        tag_1:\n          pop\n          jumpi(tag_2, lt(calldatasize, 0x04))\n          shr(0xe0, calldataload(0x00))\n          dup1\n          0xcb4b73ab\n          eq\n          tag_3\n          jumpi\n          dup1\n          0xd0516650\n          eq\n          tag_4\n          jumpi\n          dup1\n          0xe08ba51a\n          eq\n          tag_5\n          jumpi\n          dup1\n          0xe5839836\n          eq\n          tag_6\n          jumpi\n        tag_2:\n          revert(0x00, 0x00)\n            /* \"contracts/CCK/Token/CCKToken_flattened.sol\":26535:26617  function unfreezeUser(address user) external {... */\n        tag_3:\n          tag_7\n          0x04\n          dup1\n          calldatasize\n          sub\n          dup2\n          add\n          swap1\n          tag_8\n          swap2\n          swap1\n          tag_9\n          jump\t// in\n        tag_8:\n          tag_10\n          jump\t// in\n        tag_7:\n          stop\n            /* \"contracts/CCK/Token/CCKToken_flattened.sol\":26106:26144  mapping(address => bool) public frozen */\n        tag_4:\n          tag_11\n          0x04\n          dup1\n          calldatasize\n          sub\n          dup2\n          add\n          swap1\n          tag_12\n          swap2\n          swap1\n          tag_9\n          jump\t// in\n        tag_12:\n          tag_13\n          jump\t// in\n        tag_11:\n          mload(0x40)\n          tag_14\n          swap2\n          swap1\n          tag_15\n          jump\t// in\n        tag_14:\n          mload(0x40)\n          dup1\n          swap2\n          sub\n          swap1\n          return\n            /* \"contracts/CCK/Token/CCKToken_flattened.sol\":26303:26382  function freezeUser(address user) external {... */\n        tag_5:\n          tag_16\n          0x04\n          dup1\n          calldatasize\n          sub\n          dup2\n          add\n          swap1\n          tag_17\n          swap2\n          swap1\n          tag_9\n          jump\t// in\n        tag_17:\n          tag_18\n          jump\t// in\n        tag_16:\n          stop\n            /* \"contracts/CCK/Token/CCKToken_flattened.sol\":26804:26915  function isFrozen(address userAddress) external view returns (bool) {... */\n        tag_6:\n          tag_19\n          0x04\n          dup1\n          calldatasize\n          sub\n          dup2\n          add\n          swap1\n          tag_20\n          swap2\n          swap1\n          tag_9\n          jump\t// in\n        tag_20:\n          tag_21\n          jump\t// in\n        tag_19:\n          mload(0x40)\n          tag_22\n          swap2\n          swap1\n          tag_15\n          jump\t// in\n        tag_22:\n          mload(0x40)\n          dup1\n          swap2\n          sub\n          swap1\n          return\n            /* \"contracts/CCK/Token/CCKToken_flattened.sol\":26535:26617  function unfreezeUser(address user) external {... */\n        tag_10:\n            /* \"contracts/CCK/Token/CCKToken_flattened.sol\":26605:26610  false */\n          0x00\n            /* \"contracts/CCK/Token/CCKToken_flattened.sol\":26590:26596  frozen */\n          0x00\n            /* \"contracts/CCK/Token/CCKToken_flattened.sol\":26590:26602  frozen[user] */\n          0x00\n            /* \"contracts/CCK/Token/CCKToken_flattened.sol\":26597:26601  user */\n          dup4\n            /* \"contracts/CCK/Token/CCKToken_flattened.sol\":26590:26602  frozen[user] */\n          0xffffffffffffffffffffffffffffffffffffffff\n          and\n          0xffffffffffffffffffffffffffffffffffffffff\n          and\n          dup2\n          mstore\n          0x20\n          add\n          swap1\n          dup2\n          mstore\n          0x20\n          add\n          0x00\n          keccak256\n          0x00\n            /* \"contracts/CCK/Token/CCKToken_flattened.sol\":26590:26610  frozen[user] = false */\n          0x0100\n          exp\n          dup2\n          sload\n          dup2\n          0xff\n          mul\n          not\n          and\n          swap1\n          dup4\n          iszero\n          iszero\n          mul\n          or\n          swap1\n          sstore\n          pop\n            /* \"contracts/CCK/Token/CCKToken_flattened.sol\":26535:26617  function unfreezeUser(address user) external {... */\n          pop\n          jump\t// out\n            /* \"contracts/CCK/Token/CCKToken_flattened.sol\":26106:26144  mapping(address => bool) public frozen */\n        tag_13:\n          mstore(0x20, 0x00)\n          dup1\n          0x00\n          mstore\n          keccak256(0x00, 0x40)\n          0x00\n          swap2\n          pop\n          sload\n          swap1\n          0x0100\n          exp\n          swap1\n          div\n          0xff\n          and\n          dup2\n          jump\t// out\n            /* \"contracts/CCK/Token/CCKToken_flattened.sol\":26303:26382  function freezeUser(address user) external {... */\n        tag_18:\n            /* \"contracts/CCK/Token/CCKToken_flattened.sol\":26371:26375  true */\n          0x01\n            /* \"contracts/CCK/Token/CCKToken_flattened.sol\":26356:26362  frozen */\n          0x00\n            /* \"contracts/CCK/Token/CCKToken_flattened.sol\":26356:26368  frozen[user] */\n          0x00\n            /* \"contracts/CCK/Token/CCKToken_flattened.sol\":26363:26367  user */\n          dup4\n            /* \"contracts/CCK/Token/CCKToken_flattened.sol\":26356:26368  frozen[user] */\n          0xffffffffffffffffffffffffffffffffffffffff\n          and\n          0xffffffffffffffffffffffffffffffffffffffff\n          and\n          dup2\n          mstore\n          0x20\n          add\n          swap1\n          dup2\n          mstore\n          0x20\n          add\n          0x00\n          keccak256\n          0x00\n            /* \"contracts/CCK/Token/CCKToken_flattened.sol\":26356:26375  frozen[user] = true */\n          0x0100\n          exp\n          dup2\n          sload\n          dup2\n          0xff\n          mul\n          not\n          and\n          swap1\n          dup4\n          iszero\n          iszero\n          mul\n          or\n          swap1\n          sstore\n          pop\n            /* \"contracts/CCK/Token/CCKToken_flattened.sol\":26303:26382  function freezeUser(address user) external {... */\n          pop\n          jump\t// out\n            /* \"contracts/CCK/Token/CCKToken_flattened.sol\":26804:26915  function isFrozen(address userAddress) external view returns (bool) {... */\n        tag_21:\n            /* \"contracts/CCK/Token/CCKToken_flattened.sol\":26866:26870  bool */\n          0x00\n            /* \"contracts/CCK/Token/CCKToken_flattened.sol\":26889:26895  frozen */\n          0x00\n            /* \"contracts/CCK/Token/CCKToken_flattened.sol\":26889:26908  frozen[userAddress] */\n          0x00\n            /* \"contracts/CCK/Token/CCKToken_flattened.sol\":26896:26907  userAddress */\n          dup4\n            /* \"contracts/CCK/Token/CCKToken_flattened.sol\":26889:26908  frozen[userAddress] */\n          0xffffffffffffffffffffffffffffffffffffffff\n          and\n          0xffffffffffffffffffffffffffffffffffffffff\n          and\n          dup2\n          mstore\n          0x20\n          add\n          swap1\n          dup2\n          mstore\n          0x20\n          add\n          0x00\n          keccak256\n          0x00\n          swap1\n          sload\n          swap1\n          0x0100\n          exp\n          swap1\n          div\n          0xff\n          and\n            /* \"contracts/CCK/Token/CCKToken_flattened.sol\":26882:26908  return frozen[userAddress] */\n          swap1\n          pop\n            /* \"contracts/CCK/Token/CCKToken_flattened.sol\":26804:26915  function isFrozen(address userAddress) external view returns (bool) {... */\n          swap2\n          swap1\n          pop\n          jump\t// out\n            /* \"#utility.yul\":88:205   */\n        tag_27:\n            /* \"#utility.yul\":197:198   */\n          0x00\n            /* \"#utility.yul\":194:195   */\n          0x00\n            /* \"#utility.yul\":187:199   */\n          revert\n            /* \"#utility.yul\":334:460   */\n        tag_29:\n            /* \"#utility.yul\":371:378   */\n          0x00\n            /* \"#utility.yul\":411:453   */\n          0xffffffffffffffffffffffffffffffffffffffff\n            /* \"#utility.yul\":404:409   */\n          dup3\n            /* \"#utility.yul\":400:454   */\n          and\n            /* \"#utility.yul\":389:454   */\n          swap1\n          pop\n            /* \"#utility.yul\":334:460   */\n          swap2\n          swap1\n          pop\n          jump\t// out\n            /* \"#utility.yul\":466:562   */\n        tag_30:\n            /* \"#utility.yul\":503:510   */\n          0x00\n            /* \"#utility.yul\":532:556   */\n          tag_41\n            /* \"#utility.yul\":550:555   */\n          dup3\n            /* \"#utility.yul\":532:556   */\n          tag_29\n          jump\t// in\n        tag_41:\n            /* \"#utility.yul\":521:556   */\n          swap1\n          pop\n            /* \"#utility.yul\":466:562   */\n          swap2\n          swap1\n          pop\n          jump\t// out\n            /* \"#utility.yul\":568:690   */\n        tag_31:\n            /* \"#utility.yul\":641:665   */\n          tag_43\n            /* \"#utility.yul\":659:664   */\n          dup2\n            /* \"#utility.yul\":641:665   */\n          tag_30\n          jump\t// in\n        tag_43:\n            /* \"#utility.yul\":634:639   */\n          dup2\n            /* \"#utility.yul\":631:666   */\n          eq\n            /* \"#utility.yul\":621:684   */\n          tag_44\n          jumpi\n            /* \"#utility.yul\":680:681   */\n          0x00\n            /* \"#utility.yul\":677:678   */\n          0x00\n            /* \"#utility.yul\":670:682   */\n          revert\n            /* \"#utility.yul\":621:684   */\n        tag_44:\n            /* \"#utility.yul\":568:690   */\n          pop\n          jump\t// out\n            /* \"#utility.yul\":696:835   */\n        tag_32:\n            /* \"#utility.yul\":742:747   */\n          0x00\n            /* \"#utility.yul\":780:786   */\n          dup2\n            /* \"#utility.yul\":767:787   */\n          calldataload\n            /* \"#utility.yul\":758:787   */\n          swap1\n          pop\n            /* \"#utility.yul\":796:829   */\n          tag_46\n            /* \"#utility.yul\":823:828   */\n          dup2\n            /* \"#utility.yul\":796:829   */\n          tag_31\n          jump\t// in\n        tag_46:\n            /* \"#utility.yul\":696:835   */\n          swap3\n          swap2\n          pop\n          pop\n          jump\t// out\n            /* \"#utility.yul\":841:1170   */\n        tag_9:\n            /* \"#utility.yul\":900:906   */\n          0x00\n            /* \"#utility.yul\":949:951   */\n          0x20\n            /* \"#utility.yul\":937:946   */\n          dup3\n            /* \"#utility.yul\":928:935   */\n          dup5\n            /* \"#utility.yul\":924:947   */\n          sub\n            /* \"#utility.yul\":920:952   */\n          slt\n            /* \"#utility.yul\":917:1036   */\n          iszero\n          tag_48\n          jumpi\n            /* \"#utility.yul\":955:1034   */\n          tag_49\n          tag_27\n          jump\t// in\n        tag_49:\n            /* \"#utility.yul\":917:1036   */\n        tag_48:\n            /* \"#utility.yul\":1075:1076   */\n          0x00\n            /* \"#utility.yul\":1100:1153   */\n          tag_50\n            /* \"#utility.yul\":1145:1152   */\n          dup5\n            /* \"#utility.yul\":1136:1142   */\n          dup3\n            /* \"#utility.yul\":1125:1134   */\n          dup6\n            /* \"#utility.yul\":1121:1143   */\n          add\n            /* \"#utility.yul\":1100:1153   */\n          tag_32\n          jump\t// in\n        tag_50:\n            /* \"#utility.yul\":1090:1153   */\n          swap2\n          pop\n            /* \"#utility.yul\":1046:1163   */\n          pop\n            /* \"#utility.yul\":841:1170   */\n          swap3\n          swap2\n          pop\n          pop\n          jump\t// out\n            /* \"#utility.yul\":1176:1266   */\n        tag_33:\n            /* \"#utility.yul\":1210:1217   */\n          0x00\n            /* \"#utility.yul\":1253:1258   */\n          dup2\n            /* \"#utility.yul\":1246:1259   */\n          iszero\n            /* \"#utility.yul\":1239:1260   */\n          iszero\n            /* \"#utility.yul\":1228:1260   */\n          swap1\n          pop\n            /* \"#utility.yul\":1176:1266   */\n          swap2\n          swap1\n          pop\n          jump\t// out\n            /* \"#utility.yul\":1272:1381   */\n        tag_34:\n            /* \"#utility.yul\":1353:1374   */\n          tag_53\n            /* \"#utility.yul\":1368:1373   */\n          dup2\n            /* \"#utility.yul\":1353:1374   */\n          tag_33\n          jump\t// in\n        tag_53:\n            /* \"#utility.yul\":1348:1351   */\n          dup3\n            /* \"#utility.yul\":1341:1375   */\n          mstore\n            /* \"#utility.yul\":1272:1381   */\n          pop\n          pop\n          jump\t// out\n            /* \"#utility.yul\":1387:1597   */\n        tag_15:\n            /* \"#utility.yul\":1474:1478   */\n          0x00\n            /* \"#utility.yul\":1512:1514   */\n          0x20\n            /* \"#utility.yul\":1501:1510   */\n          dup3\n            /* \"#utility.yul\":1497:1515   */\n          add\n            /* \"#utility.yul\":1489:1515   */\n          swap1\n          pop\n            /* \"#utility.yul\":1525:1590   */\n          tag_55\n            /* \"#utility.yul\":1587:1588   */\n          0x00\n            /* \"#utility.yul\":1576:1585   */\n          dup4\n            /* \"#utility.yul\":1572:1589   */\n          add\n            /* \"#utility.yul\":1563:1569   */\n          dup5\n            /* \"#utility.yul\":1525:1590   */\n          tag_34\n          jump\t// in\n        tag_55:\n            /* \"#utility.yul\":1387:1597   */\n          swap3\n          swap2\n          pop\n          pop\n          jump\t// out\n\n        auxdata: 0xa26469706673582212203db33e2f33a36fff689b7507a3e99cb9ac8d696bcc58991fe7c238de656a0b7a64736f6c634300081e0033\n    }\n}\n\nsub_3: assembly {\n        /* \"contracts/CCK/Token/CCKToken_flattened.sol\":52272:53073  contract PriceOracle {... */\n      mstore(0x40, 0x80)\n        /* \"contracts/CCK/Token/CCKToken_flattened.sol\":52532:52609  constructor(address _uniswapPool) {... */\n      callvalue\n      dup1\n      iszero\n      tag_1\n      jumpi\n      revert(0x00, 0x00)\n    tag_1:\n      pop\n      mload(0x40)\n      sub(codesize, bytecodeSize)\n      dup1\n      bytecodeSize\n      dup4\n      codecopy\n      dup2\n      dup2\n      add\n      0x40\n      mstore\n      dup2\n      add\n      swap1\n      tag_2\n      swap2\n      swap1\n      tag_3\n      jump\t// in\n    tag_2:\n        /* \"contracts/CCK/Token/CCKToken_flattened.sol\":52590:52602  _uniswapPool */\n      dup1\n        /* \"contracts/CCK/Token/CCKToken_flattened.sol\":52576:52587  uniswapPool */\n      0x00\n      0x00\n        /* \"contracts/CCK/Token/CCKToken_flattened.sol\":52576:52602  uniswapPool = _uniswapPool */\n      0x0100\n      exp\n      dup2\n      sload\n      dup2\n      0xffffffffffffffffffffffffffffffffffffffff\n      mul\n      not\n      and\n      swap1\n      dup4\n      0xffffffffffffffffffffffffffffffffffffffff\n      and\n      mul\n      or\n      swap1\n      sstore\n      pop\n        /* \"contracts/CCK/Token/CCKToken_flattened.sol\":52532:52609  constructor(address _uniswapPool) {... */\n      pop\n        /* \"contracts/CCK/Token/CCKToken_flattened.sol\":52272:53073  contract PriceOracle {... */\n      jump(tag_6)\n        /* \"#utility.yul\":88:205   */\n    tag_8:\n        /* \"#utility.yul\":197:198   */\n      0x00\n        /* \"#utility.yul\":194:195   */\n      0x00\n        /* \"#utility.yul\":187:199   */\n      revert\n        /* \"#utility.yul\":334:460   */\n    tag_10:\n        /* \"#utility.yul\":371:378   */\n      0x00\n        /* \"#utility.yul\":411:453   */\n      0xffffffffffffffffffffffffffffffffffffffff\n        /* \"#utility.yul\":404:409   */\n      dup3\n        /* \"#utility.yul\":400:454   */\n      and\n        /* \"#utility.yul\":389:454   */\n      swap1\n      pop\n        /* \"#utility.yul\":334:460   */\n      swap2\n      swap1\n      pop\n      jump\t// out\n        /* \"#utility.yul\":466:562   */\n    tag_11:\n        /* \"#utility.yul\":503:510   */\n      0x00\n        /* \"#utility.yul\":532:556   */\n      tag_20\n        /* \"#utility.yul\":550:555   */\n      dup3\n        /* \"#utility.yul\":532:556   */\n      tag_10\n      jump\t// in\n    tag_20:\n        /* \"#utility.yul\":521:556   */\n      swap1\n      pop\n        /* \"#utility.yul\":466:562   */\n      swap2\n      swap1\n      pop\n      jump\t// out\n        /* \"#utility.yul\":568:690   */\n    tag_12:\n        /* \"#utility.yul\":641:665   */\n      tag_22\n        /* \"#utility.yul\":659:664   */\n      dup2\n        /* \"#utility.yul\":641:665   */\n      tag_11\n      jump\t// in\n    tag_22:\n        /* \"#utility.yul\":634:639   */\n      dup2\n        /* \"#utility.yul\":631:666   */\n      eq\n        /* \"#utility.yul\":621:684   */\n      tag_23\n      jumpi\n        /* \"#utility.yul\":680:681   */\n      0x00\n        /* \"#utility.yul\":677:678   */\n      0x00\n        /* \"#utility.yul\":670:682   */\n      revert\n        /* \"#utility.yul\":621:684   */\n    tag_23:\n        /* \"#utility.yul\":568:690   */\n      pop\n      jump\t// out\n        /* \"#utility.yul\":696:839   */\n    tag_13:\n        /* \"#utility.yul\":753:758   */\n      0x00\n        /* \"#utility.yul\":784:790   */\n      dup2\n        /* \"#utility.yul\":778:791   */\n      mload\n        /* \"#utility.yul\":769:791   */\n      swap1\n      pop\n        /* \"#utility.yul\":800:833   */\n      tag_25\n        /* \"#utility.yul\":827:832   */\n      dup2\n        /* \"#utility.yul\":800:833   */\n      tag_12\n      jump\t// in\n    tag_25:\n        /* \"#utility.yul\":696:839   */\n      swap3\n      swap2\n      pop\n      pop\n      jump\t// out\n        /* \"#utility.yul\":845:1196   */\n    tag_3:\n        /* \"#utility.yul\":915:921   */\n      0x00\n        /* \"#utility.yul\":964:966   */\n      0x20\n        /* \"#utility.yul\":952:961   */\n      dup3\n        /* \"#utility.yul\":943:950   */\n      dup5\n        /* \"#utility.yul\":939:962   */\n      sub\n        /* \"#utility.yul\":935:967   */\n      slt\n        /* \"#utility.yul\":932:1051   */\n      iszero\n      tag_27\n      jumpi\n        /* \"#utility.yul\":970:1049   */\n      tag_28\n      tag_8\n      jump\t// in\n    tag_28:\n        /* \"#utility.yul\":932:1051   */\n    tag_27:\n        /* \"#utility.yul\":1090:1091   */\n      0x00\n        /* \"#utility.yul\":1115:1179   */\n      tag_29\n        /* \"#utility.yul\":1171:1178   */\n      dup5\n        /* \"#utility.yul\":1162:1168   */\n      dup3\n        /* \"#utility.yul\":1151:1160   */\n      dup6\n        /* \"#utility.yul\":1147:1169   */\n      add\n        /* \"#utility.yul\":1115:1179   */\n      tag_13\n      jump\t// in\n    tag_29:\n        /* \"#utility.yul\":1105:1179   */\n      swap2\n      pop\n        /* \"#utility.yul\":1061:1189   */\n      pop\n        /* \"#utility.yul\":845:1196   */\n      swap3\n      swap2\n      pop\n      pop\n      jump\t// out\n        /* \"contracts/CCK/Token/CCKToken_flattened.sol\":52272:53073  contract PriceOracle {... */\n    tag_6:\n      dataSize(sub_0)\n      dup1\n      dataOffset(sub_0)\n      0x00\n      codecopy\n      0x00\n      return\n    stop\n\n    sub_0: assembly {\n            /* \"contracts/CCK/Token/CCKToken_flattened.sol\":52272:53073  contract PriceOracle {... */\n          mstore(0x40, 0x80)\n          callvalue\n          dup1\n          iszero\n          tag_1\n          jumpi\n          revert(0x00, 0x00)\n        tag_1:\n          pop\n          jumpi(tag_2, lt(calldatasize, 0x04))\n          shr(0xe0, calldataload(0x00))\n          dup1\n          0xbdd3d825\n          eq\n          tag_3\n          jumpi\n          dup1\n          0xeb91d37e\n          eq\n          tag_4\n          jumpi\n        tag_2:\n          revert(0x00, 0x00)\n            /* \"contracts/CCK/Token/CCKToken_flattened.sol\":52299:52325  address public uniswapPool */\n        tag_3:\n          tag_5\n          tag_6\n          jump\t// in\n        tag_5:\n          mload(0x40)\n          tag_7\n          swap2\n          swap1\n          tag_8\n          jump\t// in\n        tag_7:\n          mload(0x40)\n          dup1\n          swap2\n          sub\n          swap1\n          return\n            /* \"contracts/CCK/Token/CCKToken_flattened.sol\":52779:53071  function getCurrentPrice() external view returns (uint256) {... */\n        tag_4:\n          tag_9\n          tag_10\n          jump\t// in\n        tag_9:\n          mload(0x40)\n          tag_11\n          swap2\n          swap1\n          tag_12\n          jump\t// in\n        tag_11:\n          mload(0x40)\n          dup1\n          swap2\n          sub\n          swap1\n          return\n            /* \"contracts/CCK/Token/CCKToken_flattened.sol\":52299:52325  address public uniswapPool */\n        tag_6:\n          0x00\n          0x00\n          swap1\n          sload\n          swap1\n          0x0100\n          exp\n          swap1\n          div\n          0xffffffffffffffffffffffffffffffffffffffff\n          and\n          dup2\n          jump\t// out\n            /* \"contracts/CCK/Token/CCKToken_flattened.sol\":52779:53071  function getCurrentPrice() external view returns (uint256) {... */\n        tag_10:\n            /* \"contracts/CCK/Token/CCKToken_flattened.sol\":52829:52836  uint256 */\n          0x00\n            /* \"contracts/CCK/Token/CCKToken_flattened.sol\":52848:52867  IUniswapV3Pool pool */\n          0x00\n            /* \"contracts/CCK/Token/CCKToken_flattened.sol\":52885:52896  uniswapPool */\n          0x00\n          0x00\n          swap1\n          sload\n          swap1\n          0x0100\n          exp\n          swap1\n          div\n          0xffffffffffffffffffffffffffffffffffffffff\n          and\n            /* \"contracts/CCK/Token/CCKToken_flattened.sol\":52848:52897  IUniswapV3Pool pool = IUniswapV3Pool(uniswapPool) */\n          swap1\n          pop\n            /* \"contracts/CCK/Token/CCKToken_flattened.sol\":52908:52928  uint160 sqrtPriceX96 */\n          0x00\n            /* \"contracts/CCK/Token/CCKToken_flattened.sol\":52944:52948  pool */\n          dup2\n            /* \"contracts/CCK/Token/CCKToken_flattened.sol\":52944:52954  pool.slot0 */\n          0xffffffffffffffffffffffffffffffffffffffff\n          and\n          0x3850c7bd\n            /* \"contracts/CCK/Token/CCKToken_flattened.sol\":52944:52956  pool.slot0() */\n          mload(0x40)\n          dup2\n          0xffffffff\n          and\n          0xe0\n          shl\n          dup2\n          mstore\n          0x04\n          add\n          0xe0\n          mload(0x40)\n          dup1\n          dup4\n          sub\n          dup2\n          dup7\n          gas\n          staticcall\n          iszero\n          dup1\n          iszero\n          tag_15\n          jumpi\n          returndatacopy(0x00, 0x00, returndatasize)\n          revert(0x00, returndatasize)\n        tag_15:\n          pop\n          pop\n          pop\n          pop\n          mload(0x40)\n          returndatasize\n          not(0x1f)\n          0x1f\n          dup3\n          add\n          and\n          dup3\n          add\n          dup1\n          0x40\n          mstore\n          pop\n          dup2\n          add\n          swap1\n          tag_16\n          swap2\n          swap1\n          tag_17\n          jump\t// in\n        tag_16:\n            /* \"contracts/CCK/Token/CCKToken_flattened.sol\":52907:52956  (uint160 sqrtPriceX96, , , , , , ) = pool.slot0() */\n          pop\n          pop\n          pop\n          pop\n          pop\n          pop\n          swap1\n          pop\n            /* \"contracts/CCK/Token/CCKToken_flattened.sol\":52966:52979  uint256 price */\n          0x00\n            /* \"contracts/CCK/Token/CCKToken_flattened.sol\":53012:53020  2 ** 192 */\n          0x01000000000000000000000000000000000000000000000000\n            /* \"contracts/CCK/Token/CCKToken_flattened.sol\":53007:53008  2 */\n          0x02\n            /* \"contracts/CCK/Token/CCKToken_flattened.sol\":52990:53002  sqrtPriceX96 */\n          dup4\n            /* \"contracts/CCK/Token/CCKToken_flattened.sol\":52982:53003  uint256(sqrtPriceX96) */\n          0xffffffffffffffffffffffffffffffffffffffff\n          and\n            /* \"contracts/CCK/Token/CCKToken_flattened.sol\":52982:53008  uint256(sqrtPriceX96) ** 2 */\n          tag_18\n          swap2\n          swap1\n          tag_19\n          jump\t// in\n        tag_18:\n            /* \"contracts/CCK/Token/CCKToken_flattened.sol\":52982:53021  uint256(sqrtPriceX96) ** 2 / (2 ** 192) */\n          tag_20\n          swap2\n          swap1\n          tag_21\n          jump\t// in\n        tag_20:\n            /* \"contracts/CCK/Token/CCKToken_flattened.sol\":52966:53021  uint256 price = uint256(sqrtPriceX96) ** 2 / (2 ** 192) */\n          swap1\n          pop\n            /* \"contracts/CCK/Token/CCKToken_flattened.sol\":53059:53064  price */\n          dup1\n            /* \"contracts/CCK/Token/CCKToken_flattened.sol\":53052:53064  return price */\n          swap4\n          pop\n          pop\n          pop\n          pop\n            /* \"contracts/CCK/Token/CCKToken_flattened.sol\":52779:53071  function getCurrentPrice() external view returns (uint256) {... */\n          swap1\n          jump\t// out\n            /* \"#utility.yul\":7:133   */\n        tag_22:\n            /* \"#utility.yul\":44:51   */\n          0x00\n            /* \"#utility.yul\":84:126   */\n          0xffffffffffffffffffffffffffffffffffffffff\n            /* \"#utility.yul\":77:82   */\n          dup3\n            /* \"#utility.yul\":73:127   */\n          and\n            /* \"#utility.yul\":62:127   */\n          swap1\n          pop\n            /* \"#utility.yul\":7:133   */\n          swap2\n          swap1\n          pop\n          jump\t// out\n            /* \"#utility.yul\":139:235   */\n        tag_23:\n            /* \"#utility.yul\":176:183   */\n          0x00\n            /* \"#utility.yul\":205:229   */\n          tag_52\n            /* \"#utility.yul\":223:228   */\n          dup3\n            /* \"#utility.yul\":205:229   */\n          tag_22\n          jump\t// in\n        tag_52:\n            /* \"#utility.yul\":194:229   */\n          swap1\n          pop\n            /* \"#utility.yul\":139:235   */\n          swap2\n          swap1\n          pop\n          jump\t// out\n            /* \"#utility.yul\":241:359   */\n        tag_24:\n            /* \"#utility.yul\":328:352   */\n          tag_54\n            /* \"#utility.yul\":346:351   */\n          dup2\n            /* \"#utility.yul\":328:352   */\n          tag_23\n          jump\t// in\n        tag_54:\n            /* \"#utility.yul\":323:326   */\n          dup3\n            /* \"#utility.yul\":316:353   */\n          mstore\n            /* \"#utility.yul\":241:359   */\n          pop\n          pop\n          jump\t// out\n            /* \"#utility.yul\":365:587   */\n        tag_8:\n            /* \"#utility.yul\":458:462   */\n          0x00\n            /* \"#utility.yul\":496:498   */\n          0x20\n            /* \"#utility.yul\":485:494   */\n          dup3\n            /* \"#utility.yul\":481:499   */\n          add\n            /* \"#utility.yul\":473:499   */\n          swap1\n          pop\n            /* \"#utility.yul\":509:580   */\n          tag_56\n            /* \"#utility.yul\":577:578   */\n          0x00\n            /* \"#utility.yul\":566:575   */\n          dup4\n            /* \"#utility.yul\":562:579   */\n          add\n            /* \"#utility.yul\":553:559   */\n          dup5\n            /* \"#utility.yul\":509:580   */\n          tag_24\n          jump\t// in\n        tag_56:\n            /* \"#utility.yul\":365:587   */\n          swap3\n          swap2\n          pop\n          pop\n          jump\t// out\n            /* \"#utility.yul\":593:670   */\n        tag_25:\n            /* \"#utility.yul\":630:637   */\n          0x00\n            /* \"#utility.yul\":659:664   */\n          dup2\n            /* \"#utility.yul\":648:664   */\n          swap1\n          pop\n            /* \"#utility.yul\":593:670   */\n          swap2\n          swap1\n          pop\n          jump\t// out\n            /* \"#utility.yul\":676:794   */\n        tag_26:\n            /* \"#utility.yul\":763:787   */\n          tag_59\n            /* \"#utility.yul\":781:786   */\n          dup2\n            /* \"#utility.yul\":763:787   */\n          tag_25\n          jump\t// in\n        tag_59:\n            /* \"#utility.yul\":758:761   */\n          dup3\n            /* \"#utility.yul\":751:788   */\n          mstore\n            /* \"#utility.yul\":676:794   */\n          pop\n          pop\n          jump\t// out\n            /* \"#utility.yul\":800:1022   */\n        tag_12:\n            /* \"#utility.yul\":893:897   */\n          0x00\n            /* \"#utility.yul\":931:933   */\n          0x20\n            /* \"#utility.yul\":920:929   */\n          dup3\n            /* \"#utility.yul\":916:934   */\n          add\n            /* \"#utility.yul\":908:934   */\n          swap1\n          pop\n            /* \"#utility.yul\":944:1015   */\n          tag_61\n            /* \"#utility.yul\":1012:1013   */\n          0x00\n            /* \"#utility.yul\":1001:1010   */\n          dup4\n            /* \"#utility.yul\":997:1014   */\n          add\n            /* \"#utility.yul\":988:994   */\n          dup5\n            /* \"#utility.yul\":944:1015   */\n          tag_26\n          jump\t// in\n        tag_61:\n            /* \"#utility.yul\":800:1022   */\n          swap3\n          swap2\n          pop\n          pop\n          jump\t// out\n            /* \"#utility.yul\":1109:1226   */\n        tag_28:\n            /* \"#utility.yul\":1218:1219   */\n          0x00\n            /* \"#utility.yul\":1215:1216   */\n          0x00\n            /* \"#utility.yul\":1208:1220   */\n          revert\n            /* \"#utility.yul\":1355:1477   */\n        tag_30:\n            /* \"#utility.yul\":1428:1452   */\n          tag_66\n            /* \"#utility.yul\":1446:1451   */\n          dup2\n            /* \"#utility.yul\":1428:1452   */\n          tag_22\n          jump\t// in\n        tag_66:\n            /* \"#utility.yul\":1421:1426   */\n          dup2\n            /* \"#utility.yul\":1418:1453   */\n          eq\n            /* \"#utility.yul\":1408:1471   */\n          tag_67\n          jumpi\n            /* \"#utility.yul\":1467:1468   */\n          0x00\n            /* \"#utility.yul\":1464:1465   */\n          0x00\n            /* \"#utility.yul\":1457:1469   */\n          revert\n            /* \"#utility.yul\":1408:1471   */\n        tag_67:\n            /* \"#utility.yul\":1355:1477   */\n          pop\n          jump\t// out\n            /* \"#utility.yul\":1483:1626   */\n        tag_31:\n            /* \"#utility.yul\":1540:1545   */\n          0x00\n            /* \"#utility.yul\":1571:1577   */\n          dup2\n            /* \"#utility.yul\":1565:1578   */\n          mload\n            /* \"#utility.yul\":1556:1578   */\n          swap1\n          pop\n            /* \"#utility.yul\":1587:1620   */\n          tag_69\n            /* \"#utility.yul\":1614:1619   */\n          dup2\n            /* \"#utility.yul\":1587:1620   */\n          tag_30\n          jump\t// in\n        tag_69:\n            /* \"#utility.yul\":1483:1626   */\n          swap3\n          swap2\n          pop\n          pop\n          jump\t// out\n            /* \"#utility.yul\":1632:1722   */\n        tag_32:\n            /* \"#utility.yul\":1667:1674   */\n          0x00\n            /* \"#utility.yul\":1710:1715   */\n          dup2\n            /* \"#utility.yul\":1707:1708   */\n          0x02\n            /* \"#utility.yul\":1696:1716   */\n          signextend\n            /* \"#utility.yul\":1685:1716   */\n          swap1\n          pop\n            /* \"#utility.yul\":1632:1722   */\n          swap2\n          swap1\n          pop\n          jump\t// out\n            /* \"#utility.yul\":1728:1846   */\n        tag_33:\n            /* \"#utility.yul\":1799:1821   */\n          tag_72\n            /* \"#utility.yul\":1815:1820   */\n          dup2\n            /* \"#utility.yul\":1799:1821   */\n          tag_32\n          jump\t// in\n        tag_72:\n            /* \"#utility.yul\":1792:1797   */\n          dup2\n            /* \"#utility.yul\":1789:1822   */\n          eq\n            /* \"#utility.yul\":1779:1840   */\n          tag_73\n          jumpi\n            /* \"#utility.yul\":1836:1837   */\n          0x00\n            /* \"#utility.yul\":1833:1834   */\n          0x00\n            /* \"#utility.yul\":1826:1838   */\n          revert\n            /* \"#utility.yul\":1779:1840   */\n        tag_73:\n            /* \"#utility.yul\":1728:1846   */\n          pop\n          jump\t// out\n            /* \"#utility.yul\":1852:1991   */\n        tag_34:\n            /* \"#utility.yul\":1907:1912   */\n          0x00\n            /* \"#utility.yul\":1938:1944   */\n          dup2\n            /* \"#utility.yul\":1932:1945   */\n          mload\n            /* \"#utility.yul\":1923:1945   */\n          swap1\n          pop\n            /* \"#utility.yul\":1954:1985   */\n          tag_75\n            /* \"#utility.yul\":1979:1984   */\n          dup2\n            /* \"#utility.yul\":1954:1985   */\n          tag_33\n          jump\t// in\n        tag_75:\n            /* \"#utility.yul\":1852:1991   */\n          swap3\n          swap2\n          pop\n          pop\n          jump\t// out\n            /* \"#utility.yul\":1997:2086   */\n        tag_35:\n            /* \"#utility.yul\":2033:2040   */\n          0x00\n            /* \"#utility.yul\":2073:2079   */\n          0xffff\n            /* \"#utility.yul\":2066:2071   */\n          dup3\n            /* \"#utility.yul\":2062:2080   */\n          and\n            /* \"#utility.yul\":2051:2080   */\n          swap1\n          pop\n            /* \"#utility.yul\":1997:2086   */\n          swap2\n          swap1\n          pop\n          jump\t// out\n            /* \"#utility.yul\":2092:2212   */\n        tag_36:\n            /* \"#utility.yul\":2164:2187   */\n          tag_78\n            /* \"#utility.yul\":2181:2186   */\n          dup2\n            /* \"#utility.yul\":2164:2187   */\n          tag_35\n          jump\t// in\n        tag_78:\n            /* \"#utility.yul\":2157:2162   */\n          dup2\n            /* \"#utility.yul\":2154:2188   */\n          eq\n            /* \"#utility.yul\":2144:2206   */\n          tag_79\n          jumpi\n            /* \"#utility.yul\":2202:2203   */\n          0x00\n            /* \"#utility.yul\":2199:2200   */\n          0x00\n            /* \"#utility.yul\":2192:2204   */\n          revert\n            /* \"#utility.yul\":2144:2206   */\n        tag_79:\n            /* \"#utility.yul\":2092:2212   */\n          pop\n          jump\t// out\n            /* \"#utility.yul\":2218:2359   */\n        tag_37:\n            /* \"#utility.yul\":2274:2279   */\n          0x00\n            /* \"#utility.yul\":2305:2311   */\n          dup2\n            /* \"#utility.yul\":2299:2312   */\n          mload\n            /* \"#utility.yul\":2290:2312   */\n          swap1\n          pop\n            /* \"#utility.yul\":2321:2353   */\n          tag_81\n            /* \"#utility.yul\":2347:2352   */\n          dup2\n            /* \"#utility.yul\":2321:2353   */\n          tag_36\n          jump\t// in\n        tag_81:\n            /* \"#utility.yul\":2218:2359   */\n          swap3\n          swap2\n          pop\n          pop\n          jump\t// out\n            /* \"#utility.yul\":2365:2451   */\n        tag_38:\n            /* \"#utility.yul\":2400:2407   */\n          0x00\n            /* \"#utility.yul\":2440:2444   */\n          0xff\n            /* \"#utility.yul\":2433:2438   */\n          dup3\n            /* \"#utility.yul\":2429:2445   */\n          and\n            /* \"#utility.yul\":2418:2445   */\n          swap1\n          pop\n            /* \"#utility.yul\":2365:2451   */\n          swap2\n          swap1\n          pop\n          jump\t// out\n            /* \"#utility.yul\":2457:2575   */\n        tag_39:\n            /* \"#utility.yul\":2528:2550   */\n          tag_84\n            /* \"#utility.yul\":2544:2549   */\n          dup2\n            /* \"#utility.yul\":2528:2550   */\n          tag_38\n          jump\t// in\n        tag_84:\n            /* \"#utility.yul\":2521:2526   */\n          dup2\n            /* \"#utility.yul\":2518:2551   */\n          eq\n            /* \"#utility.yul\":2508:2569   */\n          tag_85\n          jumpi\n            /* \"#utility.yul\":2565:2566   */\n          0x00\n            /* \"#utility.yul\":2562:2563   */\n          0x00\n            /* \"#utility.yul\":2555:2567   */\n          revert\n            /* \"#utility.yul\":2508:2569   */\n        tag_85:\n            /* \"#utility.yul\":2457:2575   */\n          pop\n          jump\t// out\n            /* \"#utility.yul\":2581:2720   */\n        tag_40:\n            /* \"#utility.yul\":2636:2641   */\n          0x00\n            /* \"#utility.yul\":2667:2673   */\n          dup2\n            /* \"#utility.yul\":2661:2674   */\n          mload\n            /* \"#utility.yul\":2652:2674   */\n          swap1\n          pop\n            /* \"#utility.yul\":2683:2714   */\n          tag_87\n            /* \"#utility.yul\":2708:2713   */\n          dup2\n            /* \"#utility.yul\":2683:2714   */\n          tag_39\n          jump\t// in\n        tag_87:\n            /* \"#utility.yul\":2581:2720   */\n          swap3\n          swap2\n          pop\n          pop\n          jump\t// out\n            /* \"#utility.yul\":2726:2816   */\n        tag_41:\n            /* \"#utility.yul\":2760:2767   */\n          0x00\n            /* \"#utility.yul\":2803:2808   */\n          dup2\n            /* \"#utility.yul\":2796:2809   */\n          iszero\n            /* \"#utility.yul\":2789:2810   */\n          iszero\n            /* \"#utility.yul\":2778:2810   */\n          swap1\n          pop\n            /* \"#utility.yul\":2726:2816   */\n          swap2\n          swap1\n          pop\n          jump\t// out\n            /* \"#utility.yul\":2822:2938   */\n        tag_42:\n            /* \"#utility.yul\":2892:2913   */\n          tag_90\n            /* \"#utility.yul\":2907:2912   */\n          dup2\n            /* \"#utility.yul\":2892:2913   */\n          tag_41\n          jump\t// in\n        tag_90:\n            /* \"#utility.yul\":2885:2890   */\n          dup2\n            /* \"#utility.yul\":2882:2914   */\n          eq\n            /* \"#utility.yul\":2872:2932   */\n          tag_91\n          jumpi\n            /* \"#utility.yul\":2928:2929   */\n          0x00\n            /* \"#utility.yul\":2925:2926   */\n          0x00\n            /* \"#utility.yul\":2918:2930   */\n          revert\n            /* \"#utility.yul\":2872:2932   */\n        tag_91:\n            /* \"#utility.yul\":2822:2938   */\n          pop\n          jump\t// out\n            /* \"#utility.yul\":2944:3081   */\n        tag_43:\n            /* \"#utility.yul\":2998:3003   */\n          0x00\n            /* \"#utility.yul\":3029:3035   */\n          dup2\n            /* \"#utility.yul\":3023:3036   */\n          mload\n            /* \"#utility.yul\":3014:3036   */\n          swap1\n          pop\n            /* \"#utility.yul\":3045:3075   */\n          tag_93\n            /* \"#utility.yul\":3069:3074   */\n          dup2\n            /* \"#utility.yul\":3045:3075   */\n          tag_42\n          jump\t// in\n        tag_93:\n            /* \"#utility.yul\":2944:3081   */\n          swap3\n          swap2\n          pop\n          pop\n          jump\t// out\n            /* \"#utility.yul\":3087:4358   */\n        tag_17:\n            /* \"#utility.yul\":3201:3207   */\n          0x00\n            /* \"#utility.yul\":3209:3215   */\n          0x00\n            /* \"#utility.yul\":3217:3223   */\n          0x00\n            /* \"#utility.yul\":3225:3231   */\n          0x00\n            /* \"#utility.yul\":3233:3239   */\n          0x00\n            /* \"#utility.yul\":3241:3247   */\n          0x00\n            /* \"#utility.yul\":3249:3255   */\n          0x00\n            /* \"#utility.yul\":3298:3301   */\n          0xe0\n            /* \"#utility.yul\":3286:3295   */\n          dup9\n            /* \"#utility.yul\":3277:3284   */\n          dup11\n            /* \"#utility.yul\":3273:3296   */\n          sub\n            /* \"#utility.yul\":3269:3302   */\n          slt\n            /* \"#utility.yul\":3266:3386   */\n          iszero\n          tag_95\n          jumpi\n            /* \"#utility.yul\":3305:3384   */\n          tag_96\n          tag_28\n          jump\t// in\n        tag_96:\n            /* \"#utility.yul\":3266:3386   */\n        tag_95:\n            /* \"#utility.yul\":3425:3426   */\n          0x00\n            /* \"#utility.yul\":3450:3514   */\n          tag_97\n            /* \"#utility.yul\":3506:3513   */\n          dup11\n            /* \"#utility.yul\":3497:3503   */\n          dup3\n            /* \"#utility.yul\":3486:3495   */\n          dup12\n            /* \"#utility.yul\":3482:3504   */\n          add\n            /* \"#utility.yul\":3450:3514   */\n          tag_31\n          jump\t// in\n        tag_97:\n            /* \"#utility.yul\":3440:3514   */\n          swap8\n          pop\n            /* \"#utility.yul\":3396:3524   */\n          pop\n            /* \"#utility.yul\":3563:3565   */\n          0x20\n            /* \"#utility.yul\":3589:3651   */\n          tag_98\n            /* \"#utility.yul\":3643:3650   */\n          dup11\n            /* \"#utility.yul\":3634:3640   */\n          dup3\n            /* \"#utility.yul\":3623:3632   */\n          dup12\n            /* \"#utility.yul\":3619:3641   */\n          add\n            /* \"#utility.yul\":3589:3651   */\n          tag_34\n          jump\t// in\n        tag_98:\n            /* \"#utility.yul\":3579:3651   */\n          swap7\n          pop\n            /* \"#utility.yul\":3534:3661   */\n          pop\n            /* \"#utility.yul\":3700:3702   */\n          0x40\n            /* \"#utility.yul\":3726:3789   */\n          tag_99\n            /* \"#utility.yul\":3781:3788   */\n          dup11\n            /* \"#utility.yul\":3772:3778   */\n          dup3\n            /* \"#utility.yul\":3761:3770   */\n          dup12\n            /* \"#utility.yul\":3757:3779   */\n          add\n            /* \"#utility.yul\":3726:3789   */\n          tag_37\n          jump\t// in\n        tag_99:\n            /* \"#utility.yul\":3716:3789   */\n          swap6\n          pop\n            /* \"#utility.yul\":3671:3799   */\n          pop\n            /* \"#utility.yul\":3838:3840   */\n          0x60\n            /* \"#utility.yul\":3864:3927   */\n          tag_100\n            /* \"#utility.yul\":3919:3926   */\n          dup11\n            /* \"#utility.yul\":3910:3916   */\n          dup3\n            /* \"#utility.yul\":3899:3908   */\n          dup12\n            /* \"#utility.yul\":3895:3917   */\n          add\n            /* \"#utility.yul\":3864:3927   */\n          tag_37\n          jump\t// in\n        tag_100:\n            /* \"#utility.yul\":3854:3927   */\n          swap5\n          pop\n            /* \"#utility.yul\":3809:3937   */\n          pop\n            /* \"#utility.yul\":3976:3979   */\n          0x80\n            /* \"#utility.yul\":4003:4066   */\n          tag_101\n            /* \"#utility.yul\":4058:4065   */\n          dup11\n            /* \"#utility.yul\":4049:4055   */\n          dup3\n            /* \"#utility.yul\":4038:4047   */\n          dup12\n            /* \"#utility.yul\":4034:4056   */\n          add\n            /* \"#utility.yul\":4003:4066   */\n          tag_37\n          jump\t// in\n        tag_101:\n            /* \"#utility.yul\":3993:4066   */\n          swap4\n          pop\n            /* \"#utility.yul\":3947:4076   */\n          pop\n            /* \"#utility.yul\":4115:4118   */\n          0xa0\n            /* \"#utility.yul\":4142:4204   */\n          tag_102\n            /* \"#utility.yul\":4196:4203   */\n          dup11\n            /* \"#utility.yul\":4187:4193   */\n          dup3\n            /* \"#utility.yul\":4176:4185   */\n          dup12\n            /* \"#utility.yul\":4172:4194   */\n          add\n            /* \"#utility.yul\":4142:4204   */\n          tag_40\n          jump\t// in\n        tag_102:\n            /* \"#utility.yul\":4132:4204   */\n          swap3\n          pop\n            /* \"#utility.yul\":4086:4214   */\n          pop\n            /* \"#utility.yul\":4253:4256   */\n          0xc0\n            /* \"#utility.yul\":4280:4341   */\n          tag_103\n            /* \"#utility.yul\":4333:4340   */\n          dup11\n            /* \"#utility.yul\":4324:4330   */\n          dup3\n            /* \"#utility.yul\":4313:4322   */\n          dup12\n            /* \"#utility.yul\":4309:4331   */\n          add\n            /* \"#utility.yul\":4280:4341   */\n          tag_43\n          jump\t// in\n        tag_103:\n            /* \"#utility.yul\":4270:4341   */\n          swap2\n          pop\n            /* \"#utility.yul\":4224:4351   */\n          pop\n            /* \"#utility.yul\":3087:4358   */\n          swap3\n          swap6\n          swap9\n          swap2\n          swap5\n          swap8\n          pop\n          swap3\n          swap6\n          pop\n          jump\t// out\n            /* \"#utility.yul\":4364:4544   */\n        tag_44:\n            /* \"#utility.yul\":4412:4489   */\n          0x4e487b7100000000000000000000000000000000000000000000000000000000\n            /* \"#utility.yul\":4409:4410   */\n          0x00\n            /* \"#utility.yul\":4402:4490   */\n          mstore\n            /* \"#utility.yul\":4509:4513   */\n          0x11\n            /* \"#utility.yul\":4506:4507   */\n          0x04\n            /* \"#utility.yul\":4499:4514   */\n          mstore\n            /* \"#utility.yul\":4533:4537   */\n          0x24\n            /* \"#utility.yul\":4530:4531   */\n          0x00\n            /* \"#utility.yul\":4523:4538   */\n          revert\n            /* \"#utility.yul\":4550:4652   */\n        tag_45:\n            /* \"#utility.yul\":4592:4600   */\n          0x00\n            /* \"#utility.yul\":4639:4644   */\n          dup2\n            /* \"#utility.yul\":4636:4637   */\n          0x01\n            /* \"#utility.yul\":4632:4645   */\n          shr\n            /* \"#utility.yul\":4611:4645   */\n          swap1\n          pop\n            /* \"#utility.yul\":4550:4652   */\n          swap2\n          swap1\n          pop\n          jump\t// out\n            /* \"#utility.yul\":4658:5506   */\n        tag_46:\n            /* \"#utility.yul\":4719:4724   */\n          0x00\n            /* \"#utility.yul\":4726:4730   */\n          0x00\n            /* \"#utility.yul\":4750:4756   */\n          dup3\n            /* \"#utility.yul\":4741:4756   */\n          swap2\n          pop\n            /* \"#utility.yul\":4774:4779   */\n          dup4\n            /* \"#utility.yul\":4765:4779   */\n          swap1\n          pop\n            /* \"#utility.yul\":4788:5500   */\n        tag_107:\n            /* \"#utility.yul\":4809:4810   */\n          0x01\n            /* \"#utility.yul\":4799:4807   */\n          dup6\n            /* \"#utility.yul\":4796:4811   */\n          gt\n            /* \"#utility.yul\":4788:5500   */\n          iszero\n          tag_109\n          jumpi\n            /* \"#utility.yul\":4904:4908   */\n          dup1\n            /* \"#utility.yul\":4899:4902   */\n          dup7\n            /* \"#utility.yul\":4895:4909   */\n          div\n            /* \"#utility.yul\":4889:4893   */\n          dup2\n            /* \"#utility.yul\":4886:4910   */\n          gt\n            /* \"#utility.yul\":4883:4933   */\n          iszero\n          tag_110\n          jumpi\n            /* \"#utility.yul\":4913:4931   */\n          tag_111\n          tag_44\n          jump\t// in\n        tag_111:\n            /* \"#utility.yul\":4883:4933   */\n        tag_110:\n            /* \"#utility.yul\":4963:4964   */\n          0x01\n            /* \"#utility.yul\":4953:4961   */\n          dup6\n            /* \"#utility.yul\":4949:4965   */\n          and\n            /* \"#utility.yul\":4946:5397   */\n          iszero\n          tag_112\n          jumpi\n            /* \"#utility.yul\":5378:5382   */\n          dup1\n            /* \"#utility.yul\":5371:5376   */\n          dup3\n            /* \"#utility.yul\":5367:5383   */\n          mul\n            /* \"#utility.yul\":5358:5383   */\n          swap2\n          pop\n            /* \"#utility.yul\":4946:5397   */\n        tag_112:\n            /* \"#utility.yul\":5428:5432   */\n          dup1\n            /* \"#utility.yul\":5422:5426   */\n          dup2\n            /* \"#utility.yul\":5418:5433   */\n          mul\n            /* \"#utility.yul\":5410:5433   */\n          swap1\n          pop\n            /* \"#utility.yul\":5458:5490   */\n          tag_113\n            /* \"#utility.yul\":5481:5489   */\n          dup6\n            /* \"#utility.yul\":5458:5490   */\n          tag_45\n          jump\t// in\n        tag_113:\n            /* \"#utility.yul\":5446:5490   */\n          swap5\n          pop\n            /* \"#utility.yul\":4788:5500   */\n          jump(tag_107)\n        tag_109:\n            /* \"#utility.yul\":4658:5506   */\n          swap5\n          pop\n          swap5\n          swap3\n          pop\n          pop\n          pop\n          jump\t// out\n            /* \"#utility.yul\":5512:6585   */\n        tag_47:\n            /* \"#utility.yul\":5566:5571   */\n          0x00\n            /* \"#utility.yul\":5757:5765   */\n          dup3\n            /* \"#utility.yul\":5747:5787   */\n          tag_115\n          jumpi\n            /* \"#utility.yul\":5778:5779   */\n          0x01\n            /* \"#utility.yul\":5769:5779   */\n          swap1\n          pop\n            /* \"#utility.yul\":5780:5785   */\n          jump(tag_114)\n            /* \"#utility.yul\":5747:5787   */\n        tag_115:\n            /* \"#utility.yul\":5806:5810   */\n          dup2\n            /* \"#utility.yul\":5796:5832   */\n          tag_116\n          jumpi\n            /* \"#utility.yul\":5823:5824   */\n          0x00\n            /* \"#utility.yul\":5814:5824   */\n          swap1\n          pop\n            /* \"#utility.yul\":5825:5830   */\n          jump(tag_114)\n            /* \"#utility.yul\":5796:5832   */\n        tag_116:\n            /* \"#utility.yul\":5892:5896   */\n          dup2\n            /* \"#utility.yul\":5940:5941   */\n          0x01\n            /* \"#utility.yul\":5935:5962   */\n          dup2\n          eq\n          tag_118\n          jumpi\n            /* \"#utility.yul\":5976:5977   */\n          0x02\n            /* \"#utility.yul\":5971:6162   */\n          dup2\n          eq\n          tag_119\n          jumpi\n            /* \"#utility.yul\":5885:6162   */\n          jump(tag_117)\n            /* \"#utility.yul\":5935:5962   */\n        tag_118:\n            /* \"#utility.yul\":5953:5954   */\n          0x01\n            /* \"#utility.yul\":5944:5954   */\n          swap2\n          pop\n            /* \"#utility.yul\":5955:5960   */\n          pop\n          jump(tag_114)\n            /* \"#utility.yul\":5971:6162   */\n        tag_119:\n            /* \"#utility.yul\":6016:6019   */\n          0xff\n            /* \"#utility.yul\":6006:6014   */\n          dup5\n            /* \"#utility.yul\":6003:6020   */\n          gt\n            /* \"#utility.yul\":6000:6043   */\n          iszero\n          tag_120\n          jumpi\n            /* \"#utility.yul\":6023:6041   */\n          tag_121\n          tag_44\n          jump\t// in\n        tag_121:\n            /* \"#utility.yul\":6000:6043   */\n        tag_120:\n            /* \"#utility.yul\":6072:6080   */\n          dup4\n            /* \"#utility.yul\":6069:6070   */\n          0x02\n            /* \"#utility.yul\":6065:6081   */\n          exp\n            /* \"#utility.yul\":6056:6081   */\n          swap2\n          pop\n            /* \"#utility.yul\":6107:6110   */\n          dup5\n            /* \"#utility.yul\":6100:6105   */\n          dup3\n            /* \"#utility.yul\":6097:6111   */\n          gt\n            /* \"#utility.yul\":6094:6134   */\n          iszero\n          tag_122\n          jumpi\n            /* \"#utility.yul\":6114:6132   */\n          tag_123\n          tag_44\n          jump\t// in\n        tag_123:\n            /* \"#utility.yul\":6094:6134   */\n        tag_122:\n            /* \"#utility.yul\":6147:6152   */\n          pop\n          jump(tag_114)\n            /* \"#utility.yul\":5885:6162   */\n        tag_117:\n          pop\n            /* \"#utility.yul\":6271:6273   */\n          0x20\n            /* \"#utility.yul\":6261:6269   */\n          dup4\n            /* \"#utility.yul\":6258:6274   */\n          lt\n            /* \"#utility.yul\":6252:6255   */\n          0x0133\n            /* \"#utility.yul\":6246:6250   */\n          dup4\n            /* \"#utility.yul\":6243:6256   */\n          lt\n            /* \"#utility.yul\":6239:6275   */\n          and\n            /* \"#utility.yul\":6221:6223   */\n          0x4e\n            /* \"#utility.yul\":6211:6219   */\n          dup5\n            /* \"#utility.yul\":6208:6224   */\n          lt\n            /* \"#utility.yul\":6203:6205   */\n          0x0b\n            /* \"#utility.yul\":6197:6201   */\n          dup5\n            /* \"#utility.yul\":6194:6206   */\n          lt\n            /* \"#utility.yul\":6190:6225   */\n          and\n            /* \"#utility.yul\":6174:6285   */\n          or\n            /* \"#utility.yul\":6171:6417   */\n          iszero\n          tag_124\n          jumpi\n            /* \"#utility.yul\":6327:6335   */\n          dup3\n            /* \"#utility.yul\":6321:6325   */\n          dup3\n            /* \"#utility.yul\":6317:6336   */\n          exp\n            /* \"#utility.yul\":6308:6336   */\n          swap1\n          pop\n            /* \"#utility.yul\":6362:6365   */\n          dup4\n            /* \"#utility.yul\":6355:6360   */\n          dup2\n            /* \"#utility.yul\":6352:6366   */\n          gt\n            /* \"#utility.yul\":6349:6389   */\n          iszero\n          tag_125\n          jumpi\n            /* \"#utility.yul\":6369:6387   */\n          tag_126\n          tag_44\n          jump\t// in\n        tag_126:\n            /* \"#utility.yul\":6349:6389   */\n        tag_125:\n            /* \"#utility.yul\":6402:6407   */\n          jump(tag_114)\n            /* \"#utility.yul\":6171:6417   */\n        tag_124:\n            /* \"#utility.yul\":6442:6484   */\n          tag_127\n            /* \"#utility.yul\":6480:6483   */\n          dup5\n            /* \"#utility.yul\":6470:6478   */\n          dup5\n            /* \"#utility.yul\":6464:6468   */\n          dup5\n            /* \"#utility.yul\":6461:6462   */\n          0x01\n            /* \"#utility.yul\":6442:6484   */\n          tag_46\n          jump\t// in\n        tag_127:\n            /* \"#utility.yul\":6427:6484   */\n          swap3\n          pop\n          swap1\n          pop\n            /* \"#utility.yul\":6516:6520   */\n          dup2\n            /* \"#utility.yul\":6511:6514   */\n          dup5\n            /* \"#utility.yul\":6507:6521   */\n          div\n            /* \"#utility.yul\":6500:6505   */\n          dup2\n            /* \"#utility.yul\":6497:6522   */\n          gt\n            /* \"#utility.yul\":6494:6545   */\n          iszero\n          tag_128\n          jumpi\n            /* \"#utility.yul\":6525:6543   */\n          tag_129\n          tag_44\n          jump\t// in\n        tag_129:\n            /* \"#utility.yul\":6494:6545   */\n        tag_128:\n            /* \"#utility.yul\":6574:6578   */\n          dup2\n            /* \"#utility.yul\":6567:6572   */\n          dup2\n            /* \"#utility.yul\":6563:6579   */\n          mul\n            /* \"#utility.yul\":6554:6579   */\n          swap1\n          pop\n            /* \"#utility.yul\":5512:6585   */\n        tag_114:\n          swap4\n          swap3\n          pop\n          pop\n          pop\n          jump\t// out\n            /* \"#utility.yul\":6591:6872   */\n        tag_19:\n            /* \"#utility.yul\":6649:6654   */\n          0x00\n            /* \"#utility.yul\":6673:6696   */\n          tag_131\n            /* \"#utility.yul\":6691:6695   */\n          dup3\n            /* \"#utility.yul\":6673:6696   */\n          tag_25\n          jump\t// in\n        tag_131:\n            /* \"#utility.yul\":6665:6696   */\n          swap2\n          pop\n            /* \"#utility.yul\":6717:6742   */\n          tag_132\n            /* \"#utility.yul\":6733:6741   */\n          dup4\n            /* \"#utility.yul\":6717:6742   */\n          tag_38\n          jump\t// in\n        tag_132:\n            /* \"#utility.yul\":6705:6742   */\n          swap3\n          pop\n            /* \"#utility.yul\":6761:6865   */\n          tag_133\n            /* \"#utility.yul\":6798:6864   */\n          0xffffffffffffffffffffffffffffffffffffffffffffffffffffffffffffffff\n            /* \"#utility.yul\":6788:6796   */\n          dup5\n            /* \"#utility.yul\":6782:6786   */\n          dup5\n            /* \"#utility.yul\":6761:6865   */\n          tag_47\n          jump\t// in\n        tag_133:\n            /* \"#utility.yul\":6752:6865   */\n          swap1\n          pop\n            /* \"#utility.yul\":6591:6872   */\n          swap3\n          swap2\n          pop\n          pop\n          jump\t// out\n            /* \"#utility.yul\":6878:7058   */\n        tag_48:\n            /* \"#utility.yul\":6926:7003   */\n          0x4e487b7100000000000000000000000000000000000000000000000000000000\n            /* \"#utility.yul\":6923:6924   */\n          0x00\n            /* \"#utility.yul\":6916:7004   */\n          mstore\n            /* \"#utility.yul\":7023:7027   */\n          0x12\n            /* \"#utility.yul\":7020:7021   */\n          0x04\n            /* \"#utility.yul\":7013:7028   */\n          mstore\n            /* \"#utility.yul\":7047:7051   */\n          0x24\n            /* \"#utility.yul\":7044:7045   */\n          0x00\n            /* \"#utility.yul\":7037:7052   */\n          revert\n            /* \"#utility.yul\":7064:7249   */\n        tag_21:\n            /* \"#utility.yul\":7104:7105   */\n          0x00\n            /* \"#utility.yul\":7121:7141   */\n          tag_136\n            /* \"#utility.yul\":7139:7140   */\n          dup3\n            /* \"#utility.yul\":7121:7141   */\n          tag_25\n          jump\t// in\n        tag_136:\n            /* \"#utility.yul\":7116:7141   */\n          swap2\n          pop\n            /* \"#utility.yul\":7155:7175   */\n          tag_137\n            /* \"#utility.yul\":7173:7174   */\n          dup4\n            /* \"#utility.yul\":7155:7175   */\n          tag_25\n          jump\t// in\n        tag_137:\n            /* \"#utility.yul\":7150:7175   */\n          swap3\n          pop\n            /* \"#utility.yul\":7194:7195   */\n          dup3\n            /* \"#utility.yul\":7184:7219   */\n          tag_138\n          jumpi\n            /* \"#utility.yul\":7199:7217   */\n          tag_139\n          tag_48\n          jump\t// in\n        tag_139:\n            /* \"#utility.yul\":7184:7219   */\n        tag_138:\n            /* \"#utility.yul\":7241:7242   */\n          dup3\n            /* \"#utility.yul\":7238:7239   */\n          dup3\n            /* \"#utility.yul\":7234:7243   */\n          div\n            /* \"#utility.yul\":7229:7243   */\n          swap1\n          pop\n            /* \"#utility.yul\":7064:7249   */\n          swap3\n          swap2\n          pop\n          pop\n          jump\t// out\n\n        auxdata: 0xa26469706673582212202d3fe8923cc735ca2ac3bb3d2febfc337407247ed18e8b191a596dbd301f92e164736f6c634300081e0033\n    }\n}\n",
				"bytecode": {
					"linkReferences": {},
					"object": "608060405234801561000f575f5ffd5b506040516137c73803806137c7833981810160405281019061003191906108de565b336040518060400160405280600381526020017f43434b00000000000000000000000000000000000000000000000000000000008152506040518060400160405280600381526020017f43434b000000000000000000000000000000000000000000000000000000000081525081600390816100ad9190610b48565b5080600490816100bd9190610b48565b5050505f73ffffffffffffffffffffffffffffffffffffffff168173ffffffffffffffffffffffffffffffffffffffff1603610130575f6040517f1e4fbdf70000000000000000000000000000000000000000000000000000000081526004016101279190610c26565b60405180910390fd5b61013f8161039b60201b60201c565b5060405161014c906106fc565b604051809103905ff080158015610165573d5f5f3e3d5ffd5b5060075f6101000a81548173ffffffffffffffffffffffffffffffffffffffff021916908373ffffffffffffffffffffffffffffffffffffffff1602179055506040516101b190610709565b604051809103905ff0801580156101ca573d5f5f3e3d5ffd5b5060085f6101000a81548173ffffffffffffffffffffffffffffffffffffffff021916908373ffffffffffffffffffffffffffffffffffffffff1602179055508060405161021790610716565b6102219190610c26565b604051809103905ff08015801561023a573d5f5f3e3d5ffd5b5060095f6101000a81548173ffffffffffffffffffffffffffffffffffffffff021916908373ffffffffffffffffffffffffffffffffffffffff1602179055505f8251116102bd576040517f08c379a00000000000000000000000000000000000000000000000000000000081526004016102b490610cbf565b60405180910390fd5b5f5f90505b82518110156103795760075f9054906101000a900473ffffffffffffffffffffffffffffffffffffffff1673ffffffffffffffffffffffffffffffffffffffff1663e43252d784838151811061031b5761031a610cdd565b5b60200260200101516040518263ffffffff1660e01b815260040161033f9190610c26565b5f604051808303815f87803b158015610356575f5ffd5b505af1158015610368573d5f5f3e3d5ffd5b5050505080806001019150506102c2565b50610394336969e10de76676d080000061045e60201b60201c565b5050610dc7565b5f60055f9054906101000a900473ffffffffffffffffffffffffffffffffffffffff1690508160055f6101000a81548173ffffffffffffffffffffffffffffffffffffffff021916908373ffffffffffffffffffffffffffffffffffffffff1602179055508173ffffffffffffffffffffffffffffffffffffffff168173ffffffffffffffffffffffffffffffffffffffff167f8be0079c531659141344cd1fd0a4f28419497f9722a3daafe3b4186f6b6457e060405160405180910390a35050565b5f73ffffffffffffffffffffffffffffffffffffffff168273ffffffffffffffffffffffffffffffffffffffff16036104ce575f6040517fec442f050000000000000000000000000000000000000000000000000000000081526004016104c59190610c26565b60405180910390fd5b6104df5f83836104e360201b60201c565b5050565b5f73ffffffffffffffffffffffffffffffffffffffff168373ffffffffffffffffffffffffffffffffffffffff1603610533578060025f8282546105279190610d37565b92505081905550610601565b5f5f5f8573ffffffffffffffffffffffffffffffffffffffff1673ffffffffffffffffffffffffffffffffffffffff1681526020019081526020015f20549050818110156105bc578381836040517fe450d38c0000000000000000000000000000000000000000000000000000000081526004016105b393929190610d79565b60405180910390fd5b8181035f5f8673ffffffffffffffffffffffffffffffffffffffff1673ffffffffffffffffffffffffffffffffffffffff1681526020019081526020015f2081905550505b5f73ffffffffffffffffffffffffffffffffffffffff168273ffffffffffffffffffffffffffffffffffffffff1603610648578060025f8282540392505081905550610692565b805f5f8473ffffffffffffffffffffffffffffffffffffffff1673ffffffffffffffffffffffffffffffffffffffff1681526020019081526020015f205f82825401925050819055505b8173ffffffffffffffffffffffffffffffffffffffff168373ffffffffffffffffffffffffffffffffffffffff167fddf252ad1be2c89b69c2b068fc378daa952ba7f163c4a11628f55a4df523b3ef836040516106ef9190610dae565b60405180910390a3505050565b61030e80612ab483390190565b61030e80612dc283390190565b6106f7806130d083390190565b5f604051905090565b5f5ffd5b5f5ffd5b5f5ffd5b5f601f19601f8301169050919050565b7f4e487b71000000000000000000000000000000000000000000000000000000005f52604160045260245ffd5b61077e82610738565b810181811067ffffffffffffffff8211171561079d5761079c610748565b5b80604052505050565b5f6107af610723565b90506107bb8282610775565b919050565b5f67ffffffffffffffff8211156107da576107d9610748565b5b602082029050602081019050919050565b5f5ffd5b5f73ffffffffffffffffffffffffffffffffffffffff82169050919050565b5f610818826107ef565b9050919050565b6108288161080e565b8114610832575f5ffd5b50565b5f815190506108438161081f565b92915050565b5f61085b610856846107c0565b6107a6565b9050808382526020820190506020840283018581111561087e5761087d6107eb565b5b835b818110156108a757806108938882610835565b845260208401935050602081019050610880565b5050509392505050565b5f82601f8301126108c5576108c4610734565b5b81516108d5848260208601610849565b91505092915050565b5f5f604083850312156108f4576108f361072c565b5b5f83015167ffffffffffffffff81111561091157610910610730565b5b61091d858286016108b1565b925050602061092e85828601610835565b9150509250929050565b5f81519050919050565b7f4e487b71000000000000000000000000000000000000000000000000000000005f52602260045260245ffd5b5f600282049050600182168061098657607f821691505b60208210810361099957610998610942565b5b50919050565b5f819050815f5260205f209050919050565b5f6020601f8301049050919050565b5f82821b905092915050565b5f600883026109fb7fffffffffffffffffffffffffffffffffffffffffffffffffffffffffffffffff826109c0565b610a0586836109c0565b95508019841693508086168417925050509392505050565b5f819050919050565b5f819050919050565b5f610a49610a44610a3f84610a1d565b610a26565b610a1d565b9050919050565b5f819050919050565b610a6283610a2f565b610a76610a6e82610a50565b8484546109cc565b825550505050565b5f5f905090565b610a8d610a7e565b610a98818484610a59565b505050565b5b81811015610abb57610ab05f82610a85565b600181019050610a9e565b5050565b601f821115610b0057610ad18161099f565b610ada846109b1565b81016020851015610ae9578190505b610afd610af5856109b1565b830182610a9d565b50505b505050565b5f82821c905092915050565b5f610b205f1984600802610b05565b1980831691505092915050565b5f610b388383610b11565b9150826002028217905092915050565b610b5182610938565b67ffffffffffffffff811115610b6a57610b69610748565b5b610b74825461096f565b610b7f828285610abf565b5f60209050601f831160018114610bb0575f8415610b9e578287015190505b610ba88582610b2d565b865550610c0f565b601f198416610bbe8661099f565b5f5b82811015610be557848901518255600182019150602085019450602081019050610bc0565b86831015610c025784890151610bfe601f891682610b11565b8355505b6001600288020188555050505b505050505050565b610c208161080e565b82525050565b5f602082019050610c395f830184610c17565b92915050565b5f82825260208201905092915050565b7f4174206c65617374206f6e652077686974656c697374656420616464726573735f8201527f2072657175697265640000000000000000000000000000000000000000000000602082015250565b5f610ca9602983610c3f565b9150610cb482610c4f565b604082019050919050565b5f6020820190508181035f830152610cd681610c9d565b9050919050565b7f4e487b71000000000000000000000000000000000000000000000000000000005f52603260045260245ffd5b7f4e487b71000000000000000000000000000000000000000000000000000000005f52601160045260245ffd5b5f610d4182610a1d565b9150610d4c83610a1d565b9250828201905080821115610d6457610d63610d0a565b5b92915050565b610d7381610a1d565b82525050565b5f606082019050610d8c5f830186610c17565b610d996020830185610d6a565b610da66040830184610d6a565b949350505050565b5f602082019050610dc15f830184610d6a565b92915050565b611ce080610dd45f395ff3fe608060405234801561000f575f5ffd5b50600436106101a7575f3560e01c80635c975abb116100f757806395d89b4111610095578063dd62ed3e1161006f578063dd62ed3e146104b3578063e5839836146104e3578063eb91d37e14610513578063f2fde38b14610531576101a7565b806395d89b4114610447578063a9059cbb14610465578063aba6370514610495576101a7565b8063715018a6116100d1578063715018a6146103e357806384900b04146103ed5780638da5cb5b1461040b578063902d55a514610429576101a7565b80635c975abb146103775780636290865d1461039557806370a08231146103b3576101a7565b806323b872dd11610164578063313ce5671161013e578063313ce5671461030157806340c10f191461031f57806354fd4d501461033b57806356dd475a14610359576101a7565b806323b872dd146102955780632630c12f146102c55780632d380242146102e3576101a7565b806306fdde03146101ab578063095ea7b3146101c957806312cae7af146101f9578063134e18f414610229578063158b1a571461024757806318160ddd14610277575b5f5ffd5b6101b361054d565b6040516101c0919061163f565b60405180910390f35b6101e360048036038101906101de91906116f0565b6105dd565b6040516101f09190611748565b60405180910390f35b610213600480360381019061020e9190611761565b6105ff565b604051610220919061179b565b60405180910390f35b610231610610565b60405161023e91906117c3565b60405180910390f35b610261600480360381019061025c9190611761565b610617565b60405161026e919061179b565b60405180910390f35b61027f610620565b60405161028c919061179b565b60405180910390f35b6102af60048036038101906102aa91906117dc565b610629565b6040516102bc9190611748565b60405180910390f35b6102cd61076b565b6040516102da9190611887565b60405180910390f35b6102eb610790565b6040516102f8919061179b565b60405180910390f35b610309610796565b60405161031691906118bb565b60405180910390f35b610339600480360381019061033491906116f0565b61079d565b005b6103436108fd565b604051610350919061163f565b60405180910390f35b61036161093a565b60405161036e91906118f4565b60405180910390f35b61037f61095f565b60405161038c9190611748565b60405180910390f35b61039d610966565b6040516103aa91906117c3565b60405180910390f35b6103cd60048036038101906103c89190611761565b61096d565b6040516103da919061179b565b60405180910390f35b6103eb6109b2565b005b6103f56109c5565b604051610402919061192d565b60405180910390f35b6104136109ea565b60405161042091906117c3565b60405180910390f35b610431610a12565b60405161043e919061179b565b60405180910390f35b61044f610a20565b60405161045c919061163f565b60405180910390f35b61047f600480360381019061047a91906116f0565b610ab0565b60405161048c9190611748565b60405180910390f35b61049d610bf0565b6040516104aa91906117c3565b60405180910390f35b6104cd60048036038101906104c89190611946565b610bf7565b6040516104da919061179b565b60405180910390f35b6104fd60048036038101906104f89190611761565b610c79565b60405161050a9190611748565b60405180910390f35b61051b610d1a565b604051610528919061179b565b60405180910390f35b61054b60048036038101906105469190611761565b610dae565b005b60606003805461055c906119b1565b80601f0160208091040260200160405190810160405280929190818152602001828054610588906119b1565b80156105d35780601f106105aa576101008083540402835291602001916105d3565b820191905f5260205f20905b8154815290600101906020018083116105b657829003601f168201915b5050505050905090565b5f5f6105e7610e32565b90506105f4818585610e39565b600191505092915050565b5f6106098261096d565b9050919050565b5f5f905090565b5f5f9050919050565b5f600254905090565b5f60085f9054906101000a900473ffffffffffffffffffffffffffffffffffffffff1673ffffffffffffffffffffffffffffffffffffffff1663e5839836856040518263ffffffff1660e01b815260040161068491906117c3565b602060405180830381865afa15801561069f573d5f5f3e3d5ffd5b505050506040513d601f19601f820116820180604052508101906106c39190611a0b565b15610703576040517f08c379a00000000000000000000000000000000000000000000000000000000081526004016106fa90611a80565b60405180910390fd5b816fffffffffffffffffffffffffffffffff168214610757576040517f08c379a000000000000000000000000000000000000000000000000000000000815260040161074e90611ae8565b60405180910390fd5b610762848484610e4b565b90509392505050565b60095f9054906101000a900473ffffffffffffffffffffffffffffffffffffffff1681565b60065481565b5f5f905090565b6107a5610e79565b60075f9054906101000a900473ffffffffffffffffffffffffffffffffffffffff1673ffffffffffffffffffffffffffffffffffffffff16633af32abf836040518263ffffffff1660e01b81526004016107ff91906117c3565b602060405180830381865afa15801561081a573d5f5f3e3d5ffd5b505050506040513d601f19601f8201168201806040525081019061083e9190611a0b565b61087d576040517f08c379a000000000000000000000000000000000000000000000000000000000815260040161087490611b50565b60405180910390fd5b6969e10de76676d0800000816006546108969190611b9b565b11156108d7576040517f08c379a00000000000000000000000000000000000000000000000000000000081526004016108ce90611c18565b60405180910390fd5b6108e18282610f00565b8060065f8282546108f29190611b9b565b925050819055505050565b60606040518060400160405280600581526020017f312e302e30000000000000000000000000000000000000000000000000000000815250905090565b60085f9054906101000a900473ffffffffffffffffffffffffffffffffffffffff1681565b5f5f905090565b5f5f905090565b5f5f5f8373ffffffffffffffffffffffffffffffffffffffff1673ffffffffffffffffffffffffffffffffffffffff1681526020019081526020015f20549050919050565b6109ba610e79565b6109c35f610f7f565b565b60075f9054906101000a900473ffffffffffffffffffffffffffffffffffffffff1681565b5f60055f9054906101000a900473ffffffffffffffffffffffffffffffffffffffff16905090565b6969e10de76676d080000081565b606060048054610a2f906119b1565b80601f0160208091040260200160405190810160405280929190818152602001828054610a5b906119b1565b8015610aa65780601f10610a7d57610100808354040283529160200191610aa6565b820191905f5260205f20905b815481529060010190602001808311610a8957829003601f168201915b5050505050905090565b5f60085f9054906101000a900473ffffffffffffffffffffffffffffffffffffffff1673ffffffffffffffffffffffffffffffffffffffff1663e5839836336040518263ffffffff1660e01b8152600401610b0b91906117c3565b602060405180830381865afa158015610b26573d5f5f3e3d5ffd5b505050506040513d601f19601f82011682018060405250810190610b4a9190611a0b565b15610b8a576040517f08c379a0000000000000000000000000000000000000000000000000000000008152600401610b8190611a80565b60405180910390fd5b816fffffffffffffffffffffffffffffffff168214610bde576040517f08c379a0000000000000000000000000000000000000000000000000000000008152600401610bd590611ae8565b60405180910390fd5b610be88383611042565b905092915050565b5f30905090565b5f60015f8473ffffffffffffffffffffffffffffffffffffffff1673ffffffffffffffffffffffffffffffffffffffff1681526020019081526020015f205f8373ffffffffffffffffffffffffffffffffffffffff1673ffffffffffffffffffffffffffffffffffffffff1681526020019081526020015f2054905092915050565b5f60085f9054906101000a900473ffffffffffffffffffffffffffffffffffffffff1673ffffffffffffffffffffffffffffffffffffffff1663e5839836836040518263ffffffff1660e01b8152600401610cd491906117c3565b602060405180830381865afa158015610cef573d5f5f3e3d5ffd5b505050506040513d601f19601f82011682018060405250810190610d139190611a0b565b9050919050565b5f60095f9054906101000a900473ffffffffffffffffffffffffffffffffffffffff1673ffffffffffffffffffffffffffffffffffffffff1663eb91d37e6040518163ffffffff1660e01b8152600401602060405180830381865afa158015610d85573d5f5f3e3d5ffd5b505050506040513d601f19601f82011682018060405250810190610da99190611c4a565b905090565b610db6610e79565b5f73ffffffffffffffffffffffffffffffffffffffff168173ffffffffffffffffffffffffffffffffffffffff1603610e26575f6040517f1e4fbdf7000000000000000000000000000000000000000000000000000000008152600401610e1d91906117c3565b60405180910390fd5b610e2f81610f7f565b50565b5f33905090565b610e468383836001611064565b505050565b5f5f610e55610e32565b9050610e62858285611233565b610e6d8585856112c6565b60019150509392505050565b610e81610e32565b73ffffffffffffffffffffffffffffffffffffffff16610e9f6109ea565b73ffffffffffffffffffffffffffffffffffffffff1614610efe57610ec2610e32565b6040517f118cdaa7000000000000000000000000000000000000000000000000000000008152600401610ef591906117c3565b60405180910390fd5b565b5f73ffffffffffffffffffffffffffffffffffffffff168273ffffffffffffffffffffffffffffffffffffffff1603610f70575f6040517fec442f05000000000000000000000000000000000000000000000000000000008152600401610f6791906117c3565b60405180910390fd5b610f7b5f83836113b6565b5050565b5f60055f9054906101000a900473ffffffffffffffffffffffffffffffffffffffff1690508160055f6101000a81548173ffffffffffffffffffffffffffffffffffffffff021916908373ffffffffffffffffffffffffffffffffffffffff1602179055508173ffffffffffffffffffffffffffffffffffffffff168173ffffffffffffffffffffffffffffffffffffffff167f8be0079c531659141344cd1fd0a4f28419497f9722a3daafe3b4186f6b6457e060405160405180910390a35050565b5f5f61104c610e32565b90506110598185856112c6565b600191505092915050565b5f73ffffffffffffffffffffffffffffffffffffffff168473ffffffffffffffffffffffffffffffffffffffff16036110d4575f6040517fe602df050000000000000000000000000000000000000000000000000000000081526004016110cb91906117c3565b60405180910390fd5b5f73ffffffffffffffffffffffffffffffffffffffff168373ffffffffffffffffffffffffffffffffffffffff1603611144575f6040517f94280d6200000000000000000000000000000000000000000000000000000000815260040161113b91906117c3565b60405180910390fd5b8160015f8673ffffffffffffffffffffffffffffffffffffffff1673ffffffffffffffffffffffffffffffffffffffff1681526020019081526020015f205f8573ffffffffffffffffffffffffffffffffffffffff1673ffffffffffffffffffffffffffffffffffffffff1681526020019081526020015f2081905550801561122d578273ffffffffffffffffffffffffffffffffffffffff168473ffffffffffffffffffffffffffffffffffffffff167f8c5be1e5ebec7d5bd14f71427d1e84f3dd0314c0f7b2291e5b200ac8c7c3b92584604051611224919061179b565b60405180910390a35b50505050565b5f61123e8484610bf7565b90507fffffffffffffffffffffffffffffffffffffffffffffffffffffffffffffffff8110156112c057818110156112b1578281836040517ffb8f41b20000000000000000000000000000000000000000000000000000000081526004016112a893929190611c75565b60405180910390fd5b6112bf84848484035f611064565b5b50505050565b5f73ffffffffffffffffffffffffffffffffffffffff168373ffffffffffffffffffffffffffffffffffffffff1603611336575f6040517f96c6fd1e00000000000000000000000000000000000000000000000000000000815260040161132d91906117c3565b60405180910390fd5b5f73ffffffffffffffffffffffffffffffffffffffff168273ffffffffffffffffffffffffffffffffffffffff16036113a6575f6040517fec442f0500000000000000000000000000000000000000000000000000000000815260040161139d91906117c3565b60405180910390fd5b6113b18383836113b6565b505050565b5f73ffffffffffffffffffffffffffffffffffffffff168373ffffffffffffffffffffffffffffffffffffffff1603611406578060025f8282546113fa9190611b9b565b925050819055506114d4565b5f5f5f8573ffffffffffffffffffffffffffffffffffffffff1673ffffffffffffffffffffffffffffffffffffffff1681526020019081526020015f205490508181101561148f578381836040517fe450d38c00000000000000000000000000000000000000000000000000000000815260040161148693929190611c75565b60405180910390fd5b8181035f5f8673ffffffffffffffffffffffffffffffffffffffff1673ffffffffffffffffffffffffffffffffffffffff1681526020019081526020015f2081905550505b5f73ffffffffffffffffffffffffffffffffffffffff168273ffffffffffffffffffffffffffffffffffffffff160361151b578060025f8282540392505081905550611565565b805f5f8473ffffffffffffffffffffffffffffffffffffffff1673ffffffffffffffffffffffffffffffffffffffff1681526020019081526020015f205f82825401925050819055505b8173ffffffffffffffffffffffffffffffffffffffff168373ffffffffffffffffffffffffffffffffffffffff167fddf252ad1be2c89b69c2b068fc378daa952ba7f163c4a11628f55a4df523b3ef836040516115c2919061179b565b60405180910390a3505050565b5f81519050919050565b5f82825260208201905092915050565b8281835e5f83830152505050565b5f601f19601f8301169050919050565b5f611611826115cf565b61161b81856115d9565b935061162b8185602086016115e9565b611634816115f7565b840191505092915050565b5f6020820190508181035f8301526116578184611607565b905092915050565b5f5ffd5b5f73ffffffffffffffffffffffffffffffffffffffff82169050919050565b5f61168c82611663565b9050919050565b61169c81611682565b81146116a6575f5ffd5b50565b5f813590506116b781611693565b92915050565b5f819050919050565b6116cf816116bd565b81146116d9575f5ffd5b50565b5f813590506116ea816116c6565b92915050565b5f5f604083850312156117065761170561165f565b5b5f611713858286016116a9565b9250506020611724858286016116dc565b9150509250929050565b5f8115159050919050565b6117428161172e565b82525050565b5f60208201905061175b5f830184611739565b92915050565b5f602082840312156117765761177561165f565b5b5f611783848285016116a9565b91505092915050565b611795816116bd565b82525050565b5f6020820190506117ae5f83018461178c565b92915050565b6117bd81611682565b82525050565b5f6020820190506117d65f8301846117b4565b92915050565b5f5f5f606084860312156117f3576117f261165f565b5b5f611800868287016116a9565b9350506020611811868287016116a9565b9250506040611822868287016116dc565b9150509250925092565b5f819050919050565b5f61184f61184a61184584611663565b61182c565b611663565b9050919050565b5f61186082611835565b9050919050565b5f61187182611856565b9050919050565b61188181611867565b82525050565b5f60208201905061189a5f830184611878565b92915050565b5f60ff82169050919050565b6118b5816118a0565b82525050565b5f6020820190506118ce5f8301846118ac565b92915050565b5f6118de82611856565b9050919050565b6118ee816118d4565b82525050565b5f6020820190506119075f8301846118e5565b92915050565b5f61191782611856565b9050919050565b6119278161190d565b82525050565b5f6020820190506119405f83018461191e565b92915050565b5f5f6040838503121561195c5761195b61165f565b5b5f611969858286016116a9565b925050602061197a858286016116a9565b9150509250929050565b7f4e487b71000000000000000000000000000000000000000000000000000000005f52602260045260245ffd5b5f60028204905060018216806119c857607f821691505b6020821081036119db576119da611984565b5b50919050565b6119ea8161172e565b81146119f4575f5ffd5b50565b5f81519050611a05816119e1565b92915050565b5f60208284031215611a2057611a1f61165f565b5b5f611a2d848285016119f7565b91505092915050565b7f53656e6465722069732066726f7a656e000000000000000000000000000000005f82015250565b5f611a6a6010836115d9565b9150611a7582611a36565b602082019050919050565b5f6020820190508181035f830152611a9781611a5e565b9050919050565b7f416d6f756e74206d75737420626520616e20696e7465676572000000000000005f82015250565b5f611ad26019836115d9565b9150611add82611a9e565b602082019050919050565b5f6020820190508181035f830152611aff81611ac6565b9050919050565b7f4e6f742077686974656c697374656400000000000000000000000000000000005f82015250565b5f611b3a600f836115d9565b9150611b4582611b06565b602082019050919050565b5f6020820190508181035f830152611b6781611b2e565b9050919050565b7f4e487b71000000000000000000000000000000000000000000000000000000005f52601160045260245ffd5b5f611ba5826116bd565b9150611bb0836116bd565b9250828201905080821115611bc857611bc7611b6e565b5b92915050565b7f546f74616c20737570706c7920657863656564656400000000000000000000005f82015250565b5f611c026015836115d9565b9150611c0d82611bce565b602082019050919050565b5f6020820190508181035f830152611c2f81611bf6565b9050919050565b5f81519050611c44816116c6565b92915050565b5f60208284031215611c5f57611c5e61165f565b5b5f611c6c84828501611c36565b91505092915050565b5f606082019050611c885f8301866117b4565b611c95602083018561178c565b611ca2604083018461178c565b94935050505056fea264697066735822122071f06dd889a253c53401ead606c64d3bcefb97a1fcab2428ba5cb243c29c98a664736f6c634300081e00336080604052348015600e575f5ffd5b506102f28061001c5f395ff3fe608060405234801561000f575f5ffd5b506004361061004a575f3560e01c80633af32abf1461004e5780638ab1d6811461007e5780639b19251a1461009a578063e43252d7146100ca575b5f5ffd5b6100686004803603810190610063919061025e565b6100e6565b60405161007591906102a3565b60405180910390f35b6100986004803603810190610093919061025e565b610137565b005b6100b460048036038101906100af919061025e565b61018d565b6040516100c191906102a3565b60405180910390f35b6100e460048036038101906100df919061025e565b6101a9565b005b5f5f5f8373ffffffffffffffffffffffffffffffffffffffff1673ffffffffffffffffffffffffffffffffffffffff1681526020019081526020015f205f9054906101000a900460ff169050919050565b5f5f5f8373ffffffffffffffffffffffffffffffffffffffff1673ffffffffffffffffffffffffffffffffffffffff1681526020019081526020015f205f6101000a81548160ff02191690831515021790555050565b5f602052805f5260405f205f915054906101000a900460ff1681565b60015f5f8373ffffffffffffffffffffffffffffffffffffffff1673ffffffffffffffffffffffffffffffffffffffff1681526020019081526020015f205f6101000a81548160ff02191690831515021790555050565b5f5ffd5b5f73ffffffffffffffffffffffffffffffffffffffff82169050919050565b5f61022d82610204565b9050919050565b61023d81610223565b8114610247575f5ffd5b50565b5f8135905061025881610234565b92915050565b5f6020828403121561027357610272610200565b5b5f6102808482850161024a565b91505092915050565b5f8115159050919050565b61029d81610289565b82525050565b5f6020820190506102b65f830184610294565b9291505056fea2646970667358221220057ca57a84cc7c4601190dc4c1f111229efafb7710b6b5c7fd335271704493f164736f6c634300081e00336080604052348015600e575f5ffd5b506102f28061001c5f395ff3fe608060405234801561000f575f5ffd5b506004361061004a575f3560e01c8063cb4b73ab1461004e578063d05166501461006a578063e08ba51a1461009a578063e5839836146100b6575b5f5ffd5b6100686004803603810190610063919061025e565b6100e6565b005b610084600480360381019061007f919061025e565b61013c565b60405161009191906102a3565b60405180910390f35b6100b460048036038101906100af919061025e565b610158565b005b6100d060048036038101906100cb919061025e565b6101af565b6040516100dd91906102a3565b60405180910390f35b5f5f5f8373ffffffffffffffffffffffffffffffffffffffff1673ffffffffffffffffffffffffffffffffffffffff1681526020019081526020015f205f6101000a81548160ff02191690831515021790555050565b5f602052805f5260405f205f915054906101000a900460ff1681565b60015f5f8373ffffffffffffffffffffffffffffffffffffffff1673ffffffffffffffffffffffffffffffffffffffff1681526020019081526020015f205f6101000a81548160ff02191690831515021790555050565b5f5f5f8373ffffffffffffffffffffffffffffffffffffffff1673ffffffffffffffffffffffffffffffffffffffff1681526020019081526020015f205f9054906101000a900460ff169050919050565b5f5ffd5b5f73ffffffffffffffffffffffffffffffffffffffff82169050919050565b5f61022d82610204565b9050919050565b61023d81610223565b8114610247575f5ffd5b50565b5f8135905061025881610234565b92915050565b5f6020828403121561027357610272610200565b5b5f6102808482850161024a565b91505092915050565b5f8115159050919050565b61029d81610289565b82525050565b5f6020820190506102b65f830184610294565b9291505056fea26469706673582212203db33e2f33a36fff689b7507a3e99cb9ac8d696bcc58991fe7c238de656a0b7a64736f6c634300081e0033608060405234801561000f575f5ffd5b506040516106f73803806106f7833981810160405281019061003191906100d4565b805f5f6101000a81548173ffffffffffffffffffffffffffffffffffffffff021916908373ffffffffffffffffffffffffffffffffffffffff160217905550506100ff565b5f5ffd5b5f73ffffffffffffffffffffffffffffffffffffffff82169050919050565b5f6100a38261007a565b9050919050565b6100b381610099565b81146100bd575f5ffd5b50565b5f815190506100ce816100aa565b92915050565b5f602082840312156100e9576100e8610076565b5b5f6100f6848285016100c0565b91505092915050565b6105eb8061010c5f395ff3fe608060405234801561000f575f5ffd5b5060043610610034575f3560e01c8063bdd3d82514610038578063eb91d37e14610056575b5f5ffd5b610040610074565b60405161004d91906101c5565b60405180910390f35b61005e610098565b60405161006b91906101f6565b60405180910390f35b5f5f9054906101000a900473ffffffffffffffffffffffffffffffffffffffff1681565b5f5f5f5f9054906101000a900473ffffffffffffffffffffffffffffffffffffffff1690505f8173ffffffffffffffffffffffffffffffffffffffff16633850c7bd6040518163ffffffff1660e01b815260040160e060405180830381865afa158015610107573d5f5f3e3d5ffd5b505050506040513d601f19601f8201168201806040525081019061012b9190610315565b50505050505090505f780100000000000000000000000000000000000000000000000060028373ffffffffffffffffffffffffffffffffffffffff16610171919061050e565b61017b9190610585565b905080935050505090565b5f73ffffffffffffffffffffffffffffffffffffffff82169050919050565b5f6101af82610186565b9050919050565b6101bf816101a5565b82525050565b5f6020820190506101d85f8301846101b6565b92915050565b5f819050919050565b6101f0816101de565b82525050565b5f6020820190506102095f8301846101e7565b92915050565b5f5ffd5b61021c81610186565b8114610226575f5ffd5b50565b5f8151905061023781610213565b92915050565b5f8160020b9050919050565b6102528161023d565b811461025c575f5ffd5b50565b5f8151905061026d81610249565b92915050565b5f61ffff82169050919050565b61028981610273565b8114610293575f5ffd5b50565b5f815190506102a481610280565b92915050565b5f60ff82169050919050565b6102bf816102aa565b81146102c9575f5ffd5b50565b5f815190506102da816102b6565b92915050565b5f8115159050919050565b6102f4816102e0565b81146102fe575f5ffd5b50565b5f8151905061030f816102eb565b92915050565b5f5f5f5f5f5f5f60e0888a0312156103305761032f61020f565b5b5f61033d8a828b01610229565b975050602061034e8a828b0161025f565b965050604061035f8a828b01610296565b95505060606103708a828b01610296565b94505060806103818a828b01610296565b93505060a06103928a828b016102cc565b92505060c06103a38a828b01610301565b91505092959891949750929550565b7f4e487b71000000000000000000000000000000000000000000000000000000005f52601160045260245ffd5b5f8160011c9050919050565b5f5f8291508390505b6001851115610434578086048111156104105761040f6103b2565b5b600185161561041f5780820291505b808102905061042d856103df565b94506103f4565b94509492505050565b5f8261044c5760019050610507565b81610459575f9050610507565b816001811461046f5760028114610479576104a8565b6001915050610507565b60ff84111561048b5761048a6103b2565b5b8360020a9150848211156104a2576104a16103b2565b5b50610507565b5060208310610133831016604e8410600b84101617156104dd5782820a9050838111156104d8576104d76103b2565b5b610507565b6104ea84848460016103eb565b92509050818404811115610501576105006103b2565b5b81810290505b9392505050565b5f610518826101de565b9150610523836102aa565b92506105507fffffffffffffffffffffffffffffffffffffffffffffffffffffffffffffffff848461043d565b905092915050565b7f4e487b71000000000000000000000000000000000000000000000000000000005f52601260045260245ffd5b5f61058f826101de565b915061059a836101de565b9250826105aa576105a9610558565b5b82820490509291505056fea26469706673582212202d3fe8923cc735ca2ac3bb3d2febfc337407247ed18e8b191a596dbd301f92e164736f6c634300081e0033",
					"opcodes": "PUSH1 0x80 PUSH1 0x40 MSTORE CALLVALUE DUP1 ISZERO PUSH2 0xF JUMPI PUSH0 PUSH0 REVERT JUMPDEST POP PUSH1 0x40 MLOAD PUSH2 0x37C7 CODESIZE SUB DUP1 PUSH2 0x37C7 DUP4 CODECOPY DUP2 DUP2 ADD PUSH1 0x40 MSTORE DUP2 ADD SWAP1 PUSH2 0x31 SWAP2 SWAP1 PUSH2 0x8DE JUMP JUMPDEST CALLER PUSH1 0x40 MLOAD DUP1 PUSH1 0x40 ADD PUSH1 0x40 MSTORE DUP1 PUSH1 0x3 DUP2 MSTORE PUSH1 0x20 ADD PUSH32 0x43434B0000000000000000000000000000000000000000000000000000000000 DUP2 MSTORE POP PUSH1 0x40 MLOAD DUP1 PUSH1 0x40 ADD PUSH1 0x40 MSTORE DUP1 PUSH1 0x3 DUP2 MSTORE PUSH1 0x20 ADD PUSH32 0x43434B0000000000000000000000000000000000000000000000000000000000 DUP2 MSTORE POP DUP2 PUSH1 0x3 SWAP1 DUP2 PUSH2 0xAD SWAP2 SWAP1 PUSH2 0xB48 JUMP JUMPDEST POP DUP1 PUSH1 0x4 SWAP1 DUP2 PUSH2 0xBD SWAP2 SWAP1 PUSH2 0xB48 JUMP JUMPDEST POP POP POP PUSH0 PUSH20 0xFFFFFFFFFFFFFFFFFFFFFFFFFFFFFFFFFFFFFFFF AND DUP2 PUSH20 0xFFFFFFFFFFFFFFFFFFFFFFFFFFFFFFFFFFFFFFFF AND SUB PUSH2 0x130 JUMPI PUSH0 PUSH1 0x40 MLOAD PUSH32 0x1E4FBDF700000000000000000000000000000000000000000000000000000000 DUP2 MSTORE PUSH1 0x4 ADD PUSH2 0x127 SWAP2 SWAP1 PUSH2 0xC26 JUMP JUMPDEST PUSH1 0x40 MLOAD DUP1 SWAP2 SUB SWAP1 REVERT JUMPDEST PUSH2 0x13F DUP2 PUSH2 0x39B PUSH1 0x20 SHL PUSH1 0x20 SHR JUMP JUMPDEST POP PUSH1 0x40 MLOAD PUSH2 0x14C SWAP1 PUSH2 0x6FC JUMP JUMPDEST PUSH1 0x40 MLOAD DUP1 SWAP2 SUB SWAP1 PUSH0 CREATE DUP1 ISZERO DUP1 ISZERO PUSH2 0x165 JUMPI RETURNDATASIZE PUSH0 PUSH0 RETURNDATACOPY RETURNDATASIZE PUSH0 REVERT JUMPDEST POP PUSH1 0x7 PUSH0 PUSH2 0x100 EXP DUP2 SLOAD DUP2 PUSH20 0xFFFFFFFFFFFFFFFFFFFFFFFFFFFFFFFFFFFFFFFF MUL NOT AND SWAP1 DUP4 PUSH20 0xFFFFFFFFFFFFFFFFFFFFFFFFFFFFFFFFFFFFFFFF AND MUL OR SWAP1 SSTORE POP PUSH1 0x40 MLOAD PUSH2 0x1B1 SWAP1 PUSH2 0x709 JUMP JUMPDEST PUSH1 0x40 MLOAD DUP1 SWAP2 SUB SWAP1 PUSH0 CREATE DUP1 ISZERO DUP1 ISZERO PUSH2 0x1CA JUMPI RETURNDATASIZE PUSH0 PUSH0 RETURNDATACOPY RETURNDATASIZE PUSH0 REVERT JUMPDEST POP PUSH1 0x8 PUSH0 PUSH2 0x100 EXP DUP2 SLOAD DUP2 PUSH20 0xFFFFFFFFFFFFFFFFFFFFFFFFFFFFFFFFFFFFFFFF MUL NOT AND SWAP1 DUP4 PUSH20 0xFFFFFFFFFFFFFFFFFFFFFFFFFFFFFFFFFFFFFFFF AND MUL OR SWAP1 SSTORE POP DUP1 PUSH1 0x40 MLOAD PUSH2 0x217 SWAP1 PUSH2 0x716 JUMP JUMPDEST PUSH2 0x221 SWAP2 SWAP1 PUSH2 0xC26 JUMP JUMPDEST PUSH1 0x40 MLOAD DUP1 SWAP2 SUB SWAP1 PUSH0 CREATE DUP1 ISZERO DUP1 ISZERO PUSH2 0x23A JUMPI RETURNDATASIZE PUSH0 PUSH0 RETURNDATACOPY RETURNDATASIZE PUSH0 REVERT JUMPDEST POP PUSH1 0x9 PUSH0 PUSH2 0x100 EXP DUP2 SLOAD DUP2 PUSH20 0xFFFFFFFFFFFFFFFFFFFFFFFFFFFFFFFFFFFFFFFF MUL NOT AND SWAP1 DUP4 PUSH20 0xFFFFFFFFFFFFFFFFFFFFFFFFFFFFFFFFFFFFFFFF AND MUL OR SWAP1 SSTORE POP PUSH0 DUP3 MLOAD GT PUSH2 0x2BD JUMPI PUSH1 0x40 MLOAD PUSH32 0x8C379A000000000000000000000000000000000000000000000000000000000 DUP2 MSTORE PUSH1 0x4 ADD PUSH2 0x2B4 SWAP1 PUSH2 0xCBF JUMP JUMPDEST PUSH1 0x40 MLOAD DUP1 SWAP2 SUB SWAP1 REVERT JUMPDEST PUSH0 PUSH0 SWAP1 POP JUMPDEST DUP3 MLOAD DUP2 LT ISZERO PUSH2 0x379 JUMPI PUSH1 0x7 PUSH0 SWAP1 SLOAD SWAP1 PUSH2 0x100 EXP SWAP1 DIV PUSH20 0xFFFFFFFFFFFFFFFFFFFFFFFFFFFFFFFFFFFFFFFF AND PUSH20 0xFFFFFFFFFFFFFFFFFFFFFFFFFFFFFFFFFFFFFFFF AND PUSH4 0xE43252D7 DUP5 DUP4 DUP2 MLOAD DUP2 LT PUSH2 0x31B JUMPI PUSH2 0x31A PUSH2 0xCDD JUMP JUMPDEST JUMPDEST PUSH1 0x20 MUL PUSH1 0x20 ADD ADD MLOAD PUSH1 0x40 MLOAD DUP3 PUSH4 0xFFFFFFFF AND PUSH1 0xE0 SHL DUP2 MSTORE PUSH1 0x4 ADD PUSH2 0x33F SWAP2 SWAP1 PUSH2 0xC26 JUMP JUMPDEST PUSH0 PUSH1 0x40 MLOAD DUP1 DUP4 SUB DUP2 PUSH0 DUP8 DUP1 EXTCODESIZE ISZERO DUP1 ISZERO PUSH2 0x356 JUMPI PUSH0 PUSH0 REVERT JUMPDEST POP GAS CALL ISZERO DUP1 ISZERO PUSH2 0x368 JUMPI RETURNDATASIZE PUSH0 PUSH0 RETURNDATACOPY RETURNDATASIZE PUSH0 REVERT JUMPDEST POP POP POP POP DUP1 DUP1 PUSH1 0x1 ADD SWAP2 POP POP PUSH2 0x2C2 JUMP JUMPDEST POP PUSH2 0x394 CALLER PUSH10 0x69E10DE76676D0800000 PUSH2 0x45E PUSH1 0x20 SHL PUSH1 0x20 SHR JUMP JUMPDEST POP POP PUSH2 0xDC7 JUMP JUMPDEST PUSH0 PUSH1 0x5 PUSH0 SWAP1 SLOAD SWAP1 PUSH2 0x100 EXP SWAP1 DIV PUSH20 0xFFFFFFFFFFFFFFFFFFFFFFFFFFFFFFFFFFFFFFFF AND SWAP1 POP DUP2 PUSH1 0x5 PUSH0 PUSH2 0x100 EXP DUP2 SLOAD DUP2 PUSH20 0xFFFFFFFFFFFFFFFFFFFFFFFFFFFFFFFFFFFFFFFF MUL NOT AND SWAP1 DUP4 PUSH20 0xFFFFFFFFFFFFFFFFFFFFFFFFFFFFFFFFFFFFFFFF AND MUL OR SWAP1 SSTORE POP DUP2 PUSH20 0xFFFFFFFFFFFFFFFFFFFFFFFFFFFFFFFFFFFFFFFF AND DUP2 PUSH20 0xFFFFFFFFFFFFFFFFFFFFFFFFFFFFFFFFFFFFFFFF AND PUSH32 0x8BE0079C531659141344CD1FD0A4F28419497F9722A3DAAFE3B4186F6B6457E0 PUSH1 0x40 MLOAD PUSH1 0x40 MLOAD DUP1 SWAP2 SUB SWAP1 LOG3 POP POP JUMP JUMPDEST PUSH0 PUSH20 0xFFFFFFFFFFFFFFFFFFFFFFFFFFFFFFFFFFFFFFFF AND DUP3 PUSH20 0xFFFFFFFFFFFFFFFFFFFFFFFFFFFFFFFFFFFFFFFF AND SUB PUSH2 0x4CE JUMPI PUSH0 PUSH1 0x40 MLOAD PUSH32 0xEC442F0500000000000000000000000000000000000000000000000000000000 DUP2 MSTORE PUSH1 0x4 ADD PUSH2 0x4C5 SWAP2 SWAP1 PUSH2 0xC26 JUMP JUMPDEST PUSH1 0x40 MLOAD DUP1 SWAP2 SUB SWAP1 REVERT JUMPDEST PUSH2 0x4DF PUSH0 DUP4 DUP4 PUSH2 0x4E3 PUSH1 0x20 SHL PUSH1 0x20 SHR JUMP JUMPDEST POP POP JUMP JUMPDEST PUSH0 PUSH20 0xFFFFFFFFFFFFFFFFFFFFFFFFFFFFFFFFFFFFFFFF AND DUP4 PUSH20 0xFFFFFFFFFFFFFFFFFFFFFFFFFFFFFFFFFFFFFFFF AND SUB PUSH2 0x533 JUMPI DUP1 PUSH1 0x2 PUSH0 DUP3 DUP3 SLOAD PUSH2 0x527 SWAP2 SWAP1 PUSH2 0xD37 JUMP JUMPDEST SWAP3 POP POP DUP2 SWAP1 SSTORE POP PUSH2 0x601 JUMP JUMPDEST PUSH0 PUSH0 PUSH0 DUP6 PUSH20 0xFFFFFFFFFFFFFFFFFFFFFFFFFFFFFFFFFFFFFFFF AND PUSH20 0xFFFFFFFFFFFFFFFFFFFFFFFFFFFFFFFFFFFFFFFF AND DUP2 MSTORE PUSH1 0x20 ADD SWAP1 DUP2 MSTORE PUSH1 0x20 ADD PUSH0 KECCAK256 SLOAD SWAP1 POP DUP2 DUP2 LT ISZERO PUSH2 0x5BC JUMPI DUP4 DUP2 DUP4 PUSH1 0x40 MLOAD PUSH32 0xE450D38C00000000000000000000000000000000000000000000000000000000 DUP2 MSTORE PUSH1 0x4 ADD PUSH2 0x5B3 SWAP4 SWAP3 SWAP2 SWAP1 PUSH2 0xD79 JUMP JUMPDEST PUSH1 0x40 MLOAD DUP1 SWAP2 SUB SWAP1 REVERT JUMPDEST DUP2 DUP2 SUB PUSH0 PUSH0 DUP7 PUSH20 0xFFFFFFFFFFFFFFFFFFFFFFFFFFFFFFFFFFFFFFFF AND PUSH20 0xFFFFFFFFFFFFFFFFFFFFFFFFFFFFFFFFFFFFFFFF AND DUP2 MSTORE PUSH1 0x20 ADD SWAP1 DUP2 MSTORE PUSH1 0x20 ADD PUSH0 KECCAK256 DUP2 SWAP1 SSTORE POP POP JUMPDEST PUSH0 PUSH20 0xFFFFFFFFFFFFFFFFFFFFFFFFFFFFFFFFFFFFFFFF AND DUP3 PUSH20 0xFFFFFFFFFFFFFFFFFFFFFFFFFFFFFFFFFFFFFFFF AND SUB PUSH2 0x648 JUMPI DUP1 PUSH1 0x2 PUSH0 DUP3 DUP3 SLOAD SUB SWAP3 POP POP DUP2 SWAP1 SSTORE POP PUSH2 0x692 JUMP JUMPDEST DUP1 PUSH0 PUSH0 DUP5 PUSH20 0xFFFFFFFFFFFFFFFFFFFFFFFFFFFFFFFFFFFFFFFF AND PUSH20 0xFFFFFFFFFFFFFFFFFFFFFFFFFFFFFFFFFFFFFFFF AND DUP2 MSTORE PUSH1 0x20 ADD SWAP1 DUP2 MSTORE PUSH1 0x20 ADD PUSH0 KECCAK256 PUSH0 DUP3 DUP3 SLOAD ADD SWAP3 POP POP DUP2 SWAP1 SSTORE POP JUMPDEST DUP2 PUSH20 0xFFFFFFFFFFFFFFFFFFFFFFFFFFFFFFFFFFFFFFFF AND DUP4 PUSH20 0xFFFFFFFFFFFFFFFFFFFFFFFFFFFFFFFFFFFFFFFF AND PUSH32 0xDDF252AD1BE2C89B69C2B068FC378DAA952BA7F163C4A11628F55A4DF523B3EF DUP4 PUSH1 0x40 MLOAD PUSH2 0x6EF SWAP2 SWAP1 PUSH2 0xDAE JUMP JUMPDEST PUSH1 0x40 MLOAD DUP1 SWAP2 SUB SWAP1 LOG3 POP POP POP JUMP JUMPDEST PUSH2 0x30E DUP1 PUSH2 0x2AB4 DUP4 CODECOPY ADD SWAP1 JUMP JUMPDEST PUSH2 0x30E DUP1 PUSH2 0x2DC2 DUP4 CODECOPY ADD SWAP1 JUMP JUMPDEST PUSH2 0x6F7 DUP1 PUSH2 0x30D0 DUP4 CODECOPY ADD SWAP1 JUMP JUMPDEST PUSH0 PUSH1 0x40 MLOAD SWAP1 POP SWAP1 JUMP JUMPDEST PUSH0 PUSH0 REVERT JUMPDEST PUSH0 PUSH0 REVERT JUMPDEST PUSH0 PUSH0 REVERT JUMPDEST PUSH0 PUSH1 0x1F NOT PUSH1 0x1F DUP4 ADD AND SWAP1 POP SWAP2 SWAP1 POP JUMP JUMPDEST PUSH32 0x4E487B7100000000000000000000000000000000000000000000000000000000 PUSH0 MSTORE PUSH1 0x41 PUSH1 0x4 MSTORE PUSH1 0x24 PUSH0 REVERT JUMPDEST PUSH2 0x77E DUP3 PUSH2 0x738 JUMP JUMPDEST DUP2 ADD DUP2 DUP2 LT PUSH8 0xFFFFFFFFFFFFFFFF DUP3 GT OR ISZERO PUSH2 0x79D JUMPI PUSH2 0x79C PUSH2 0x748 JUMP JUMPDEST JUMPDEST DUP1 PUSH1 0x40 MSTORE POP POP POP JUMP JUMPDEST PUSH0 PUSH2 0x7AF PUSH2 0x723 JUMP JUMPDEST SWAP1 POP PUSH2 0x7BB DUP3 DUP3 PUSH2 0x775 JUMP JUMPDEST SWAP2 SWAP1 POP JUMP JUMPDEST PUSH0 PUSH8 0xFFFFFFFFFFFFFFFF DUP3 GT ISZERO PUSH2 0x7DA JUMPI PUSH2 0x7D9 PUSH2 0x748 JUMP JUMPDEST JUMPDEST PUSH1 0x20 DUP3 MUL SWAP1 POP PUSH1 0x20 DUP2 ADD SWAP1 POP SWAP2 SWAP1 POP JUMP JUMPDEST PUSH0 PUSH0 REVERT JUMPDEST PUSH0 PUSH20 0xFFFFFFFFFFFFFFFFFFFFFFFFFFFFFFFFFFFFFFFF DUP3 AND SWAP1 POP SWAP2 SWAP1 POP JUMP JUMPDEST PUSH0 PUSH2 0x818 DUP3 PUSH2 0x7EF JUMP JUMPDEST SWAP1 POP SWAP2 SWAP1 POP JUMP JUMPDEST PUSH2 0x828 DUP2 PUSH2 0x80E JUMP JUMPDEST DUP2 EQ PUSH2 0x832 JUMPI PUSH0 PUSH0 REVERT JUMPDEST POP JUMP JUMPDEST PUSH0 DUP2 MLOAD SWAP1 POP PUSH2 0x843 DUP2 PUSH2 0x81F JUMP JUMPDEST SWAP3 SWAP2 POP POP JUMP JUMPDEST PUSH0 PUSH2 0x85B PUSH2 0x856 DUP5 PUSH2 0x7C0 JUMP JUMPDEST PUSH2 0x7A6 JUMP JUMPDEST SWAP1 POP DUP1 DUP4 DUP3 MSTORE PUSH1 0x20 DUP3 ADD SWAP1 POP PUSH1 0x20 DUP5 MUL DUP4 ADD DUP6 DUP2 GT ISZERO PUSH2 0x87E JUMPI PUSH2 0x87D PUSH2 0x7EB JUMP JUMPDEST JUMPDEST DUP4 JUMPDEST DUP2 DUP2 LT ISZERO PUSH2 0x8A7 JUMPI DUP1 PUSH2 0x893 DUP9 DUP3 PUSH2 0x835 JUMP JUMPDEST DUP5 MSTORE PUSH1 0x20 DUP5 ADD SWAP4 POP POP PUSH1 0x20 DUP2 ADD SWAP1 POP PUSH2 0x880 JUMP JUMPDEST POP POP POP SWAP4 SWAP3 POP POP POP JUMP JUMPDEST PUSH0 DUP3 PUSH1 0x1F DUP4 ADD SLT PUSH2 0x8C5 JUMPI PUSH2 0x8C4 PUSH2 0x734 JUMP JUMPDEST JUMPDEST DUP2 MLOAD PUSH2 0x8D5 DUP5 DUP3 PUSH1 0x20 DUP7 ADD PUSH2 0x849 JUMP JUMPDEST SWAP2 POP POP SWAP3 SWAP2 POP POP JUMP JUMPDEST PUSH0 PUSH0 PUSH1 0x40 DUP4 DUP6 SUB SLT ISZERO PUSH2 0x8F4 JUMPI PUSH2 0x8F3 PUSH2 0x72C JUMP JUMPDEST JUMPDEST PUSH0 DUP4 ADD MLOAD PUSH8 0xFFFFFFFFFFFFFFFF DUP2 GT ISZERO PUSH2 0x911 JUMPI PUSH2 0x910 PUSH2 0x730 JUMP JUMPDEST JUMPDEST PUSH2 0x91D DUP6 DUP3 DUP7 ADD PUSH2 0x8B1 JUMP JUMPDEST SWAP3 POP POP PUSH1 0x20 PUSH2 0x92E DUP6 DUP3 DUP7 ADD PUSH2 0x835 JUMP JUMPDEST SWAP2 POP POP SWAP3 POP SWAP3 SWAP1 POP JUMP JUMPDEST PUSH0 DUP2 MLOAD SWAP1 POP SWAP2 SWAP1 POP JUMP JUMPDEST PUSH32 0x4E487B7100000000000000000000000000000000000000000000000000000000 PUSH0 MSTORE PUSH1 0x22 PUSH1 0x4 MSTORE PUSH1 0x24 PUSH0 REVERT JUMPDEST PUSH0 PUSH1 0x2 DUP3 DIV SWAP1 POP PUSH1 0x1 DUP3 AND DUP1 PUSH2 0x986 JUMPI PUSH1 0x7F DUP3 AND SWAP2 POP JUMPDEST PUSH1 0x20 DUP3 LT DUP2 SUB PUSH2 0x999 JUMPI PUSH2 0x998 PUSH2 0x942 JUMP JUMPDEST JUMPDEST POP SWAP2 SWAP1 POP JUMP JUMPDEST PUSH0 DUP2 SWAP1 POP DUP2 PUSH0 MSTORE PUSH1 0x20 PUSH0 KECCAK256 SWAP1 POP SWAP2 SWAP1 POP JUMP JUMPDEST PUSH0 PUSH1 0x20 PUSH1 0x1F DUP4 ADD DIV SWAP1 POP SWAP2 SWAP1 POP JUMP JUMPDEST PUSH0 DUP3 DUP3 SHL SWAP1 POP SWAP3 SWAP2 POP POP JUMP JUMPDEST PUSH0 PUSH1 0x8 DUP4 MUL PUSH2 0x9FB PUSH32 0xFFFFFFFFFFFFFFFFFFFFFFFFFFFFFFFFFFFFFFFFFFFFFFFFFFFFFFFFFFFFFFFF DUP3 PUSH2 0x9C0 JUMP JUMPDEST PUSH2 0xA05 DUP7 DUP4 PUSH2 0x9C0 JUMP JUMPDEST SWAP6 POP DUP1 NOT DUP5 AND SWAP4 POP DUP1 DUP7 AND DUP5 OR SWAP3 POP POP POP SWAP4 SWAP3 POP POP POP JUMP JUMPDEST PUSH0 DUP2 SWAP1 POP SWAP2 SWAP1 POP JUMP JUMPDEST PUSH0 DUP2 SWAP1 POP SWAP2 SWAP1 POP JUMP JUMPDEST PUSH0 PUSH2 0xA49 PUSH2 0xA44 PUSH2 0xA3F DUP5 PUSH2 0xA1D JUMP JUMPDEST PUSH2 0xA26 JUMP JUMPDEST PUSH2 0xA1D JUMP JUMPDEST SWAP1 POP SWAP2 SWAP1 POP JUMP JUMPDEST PUSH0 DUP2 SWAP1 POP SWAP2 SWAP1 POP JUMP JUMPDEST PUSH2 0xA62 DUP4 PUSH2 0xA2F JUMP JUMPDEST PUSH2 0xA76 PUSH2 0xA6E DUP3 PUSH2 0xA50 JUMP JUMPDEST DUP5 DUP5 SLOAD PUSH2 0x9CC JUMP JUMPDEST DUP3 SSTORE POP POP POP POP JUMP JUMPDEST PUSH0 PUSH0 SWAP1 POP SWAP1 JUMP JUMPDEST PUSH2 0xA8D PUSH2 0xA7E JUMP JUMPDEST PUSH2 0xA98 DUP2 DUP5 DUP5 PUSH2 0xA59 JUMP JUMPDEST POP POP POP JUMP JUMPDEST JUMPDEST DUP2 DUP2 LT ISZERO PUSH2 0xABB JUMPI PUSH2 0xAB0 PUSH0 DUP3 PUSH2 0xA85 JUMP JUMPDEST PUSH1 0x1 DUP2 ADD SWAP1 POP PUSH2 0xA9E JUMP JUMPDEST POP POP JUMP JUMPDEST PUSH1 0x1F DUP3 GT ISZERO PUSH2 0xB00 JUMPI PUSH2 0xAD1 DUP2 PUSH2 0x99F JUMP JUMPDEST PUSH2 0xADA DUP5 PUSH2 0x9B1 JUMP JUMPDEST DUP2 ADD PUSH1 0x20 DUP6 LT ISZERO PUSH2 0xAE9 JUMPI DUP2 SWAP1 POP JUMPDEST PUSH2 0xAFD PUSH2 0xAF5 DUP6 PUSH2 0x9B1 JUMP JUMPDEST DUP4 ADD DUP3 PUSH2 0xA9D JUMP JUMPDEST POP POP JUMPDEST POP POP POP JUMP JUMPDEST PUSH0 DUP3 DUP3 SHR SWAP1 POP SWAP3 SWAP2 POP POP JUMP JUMPDEST PUSH0 PUSH2 0xB20 PUSH0 NOT DUP5 PUSH1 0x8 MUL PUSH2 0xB05 JUMP JUMPDEST NOT DUP1 DUP4 AND SWAP2 POP POP SWAP3 SWAP2 POP POP JUMP JUMPDEST PUSH0 PUSH2 0xB38 DUP4 DUP4 PUSH2 0xB11 JUMP JUMPDEST SWAP2 POP DUP3 PUSH1 0x2 MUL DUP3 OR SWAP1 POP SWAP3 SWAP2 POP POP JUMP JUMPDEST PUSH2 0xB51 DUP3 PUSH2 0x938 JUMP JUMPDEST PUSH8 0xFFFFFFFFFFFFFFFF DUP2 GT ISZERO PUSH2 0xB6A JUMPI PUSH2 0xB69 PUSH2 0x748 JUMP JUMPDEST JUMPDEST PUSH2 0xB74 DUP3 SLOAD PUSH2 0x96F JUMP JUMPDEST PUSH2 0xB7F DUP3 DUP3 DUP6 PUSH2 0xABF JUMP JUMPDEST PUSH0 PUSH1 0x20 SWAP1 POP PUSH1 0x1F DUP4 GT PUSH1 0x1 DUP2 EQ PUSH2 0xBB0 JUMPI PUSH0 DUP5 ISZERO PUSH2 0xB9E JUMPI DUP3 DUP8 ADD MLOAD SWAP1 POP JUMPDEST PUSH2 0xBA8 DUP6 DUP3 PUSH2 0xB2D JUMP JUMPDEST DUP7 SSTORE POP PUSH2 0xC0F JUMP JUMPDEST PUSH1 0x1F NOT DUP5 AND PUSH2 0xBBE DUP7 PUSH2 0x99F JUMP JUMPDEST PUSH0 JUMPDEST DUP3 DUP2 LT ISZERO PUSH2 0xBE5 JUMPI DUP5 DUP10 ADD MLOAD DUP3 SSTORE PUSH1 0x1 DUP3 ADD SWAP2 POP PUSH1 0x20 DUP6 ADD SWAP5 POP PUSH1 0x20 DUP2 ADD SWAP1 POP PUSH2 0xBC0 JUMP JUMPDEST DUP7 DUP4 LT ISZERO PUSH2 0xC02 JUMPI DUP5 DUP10 ADD MLOAD PUSH2 0xBFE PUSH1 0x1F DUP10 AND DUP3 PUSH2 0xB11 JUMP JUMPDEST DUP4 SSTORE POP JUMPDEST PUSH1 0x1 PUSH1 0x2 DUP9 MUL ADD DUP9 SSTORE POP POP POP JUMPDEST POP POP POP POP POP POP JUMP JUMPDEST PUSH2 0xC20 DUP2 PUSH2 0x80E JUMP JUMPDEST DUP3 MSTORE POP POP JUMP JUMPDEST PUSH0 PUSH1 0x20 DUP3 ADD SWAP1 POP PUSH2 0xC39 PUSH0 DUP4 ADD DUP5 PUSH2 0xC17 JUMP JUMPDEST SWAP3 SWAP2 POP POP JUMP JUMPDEST PUSH0 DUP3 DUP3 MSTORE PUSH1 0x20 DUP3 ADD SWAP1 POP SWAP3 SWAP2 POP POP JUMP JUMPDEST PUSH32 0x4174206C65617374206F6E652077686974656C69737465642061646472657373 PUSH0 DUP3 ADD MSTORE PUSH32 0x2072657175697265640000000000000000000000000000000000000000000000 PUSH1 0x20 DUP3 ADD MSTORE POP JUMP JUMPDEST PUSH0 PUSH2 0xCA9 PUSH1 0x29 DUP4 PUSH2 0xC3F JUMP JUMPDEST SWAP2 POP PUSH2 0xCB4 DUP3 PUSH2 0xC4F JUMP JUMPDEST PUSH1 0x40 DUP3 ADD SWAP1 POP SWAP2 SWAP1 POP JUMP JUMPDEST PUSH0 PUSH1 0x20 DUP3 ADD SWAP1 POP DUP2 DUP2 SUB PUSH0 DUP4 ADD MSTORE PUSH2 0xCD6 DUP2 PUSH2 0xC9D JUMP JUMPDEST SWAP1 POP SWAP2 SWAP1 POP JUMP JUMPDEST PUSH32 0x4E487B7100000000000000000000000000000000000000000000000000000000 PUSH0 MSTORE PUSH1 0x32 PUSH1 0x4 MSTORE PUSH1 0x24 PUSH0 REVERT JUMPDEST PUSH32 0x4E487B7100000000000000000000000000000000000000000000000000000000 PUSH0 MSTORE PUSH1 0x11 PUSH1 0x4 MSTORE PUSH1 0x24 PUSH0 REVERT JUMPDEST PUSH0 PUSH2 0xD41 DUP3 PUSH2 0xA1D JUMP JUMPDEST SWAP2 POP PUSH2 0xD4C DUP4 PUSH2 0xA1D JUMP JUMPDEST SWAP3 POP DUP3 DUP3 ADD SWAP1 POP DUP1 DUP3 GT ISZERO PUSH2 0xD64 JUMPI PUSH2 0xD63 PUSH2 0xD0A JUMP JUMPDEST JUMPDEST SWAP3 SWAP2 POP POP JUMP JUMPDEST PUSH2 0xD73 DUP2 PUSH2 0xA1D JUMP JUMPDEST DUP3 MSTORE POP POP JUMP JUMPDEST PUSH0 PUSH1 0x60 DUP3 ADD SWAP1 POP PUSH2 0xD8C PUSH0 DUP4 ADD DUP7 PUSH2 0xC17 JUMP JUMPDEST PUSH2 0xD99 PUSH1 0x20 DUP4 ADD DUP6 PUSH2 0xD6A JUMP JUMPDEST PUSH2 0xDA6 PUSH1 0x40 DUP4 ADD DUP5 PUSH2 0xD6A JUMP JUMPDEST SWAP5 SWAP4 POP POP POP POP JUMP JUMPDEST PUSH0 PUSH1 0x20 DUP3 ADD SWAP1 POP PUSH2 0xDC1 PUSH0 DUP4 ADD DUP5 PUSH2 0xD6A JUMP JUMPDEST SWAP3 SWAP2 POP POP JUMP JUMPDEST PUSH2 0x1CE0 DUP1 PUSH2 0xDD4 PUSH0 CODECOPY PUSH0 RETURN INVALID PUSH1 0x80 PUSH1 0x40 MSTORE CALLVALUE DUP1 ISZERO PUSH2 0xF JUMPI PUSH0 PUSH0 REVERT JUMPDEST POP PUSH1 0x4 CALLDATASIZE LT PUSH2 0x1A7 JUMPI PUSH0 CALLDATALOAD PUSH1 0xE0 SHR DUP1 PUSH4 0x5C975ABB GT PUSH2 0xF7 JUMPI DUP1 PUSH4 0x95D89B41 GT PUSH2 0x95 JUMPI DUP1 PUSH4 0xDD62ED3E GT PUSH2 0x6F JUMPI DUP1 PUSH4 0xDD62ED3E EQ PUSH2 0x4B3 JUMPI DUP1 PUSH4 0xE5839836 EQ PUSH2 0x4E3 JUMPI DUP1 PUSH4 0xEB91D37E EQ PUSH2 0x513 JUMPI DUP1 PUSH4 0xF2FDE38B EQ PUSH2 0x531 JUMPI PUSH2 0x1A7 JUMP JUMPDEST DUP1 PUSH4 0x95D89B41 EQ PUSH2 0x447 JUMPI DUP1 PUSH4 0xA9059CBB EQ PUSH2 0x465 JUMPI DUP1 PUSH4 0xABA63705 EQ PUSH2 0x495 JUMPI PUSH2 0x1A7 JUMP JUMPDEST DUP1 PUSH4 0x715018A6 GT PUSH2 0xD1 JUMPI DUP1 PUSH4 0x715018A6 EQ PUSH2 0x3E3 JUMPI DUP1 PUSH4 0x84900B04 EQ PUSH2 0x3ED JUMPI DUP1 PUSH4 0x8DA5CB5B EQ PUSH2 0x40B JUMPI DUP1 PUSH4 0x902D55A5 EQ PUSH2 0x429 JUMPI PUSH2 0x1A7 JUMP JUMPDEST DUP1 PUSH4 0x5C975ABB EQ PUSH2 0x377 JUMPI DUP1 PUSH4 0x6290865D EQ PUSH2 0x395 JUMPI DUP1 PUSH4 0x70A08231 EQ PUSH2 0x3B3 JUMPI PUSH2 0x1A7 JUMP JUMPDEST DUP1 PUSH4 0x23B872DD GT PUSH2 0x164 JUMPI DUP1 PUSH4 0x313CE567 GT PUSH2 0x13E JUMPI DUP1 PUSH4 0x313CE567 EQ PUSH2 0x301 JUMPI DUP1 PUSH4 0x40C10F19 EQ PUSH2 0x31F JUMPI DUP1 PUSH4 0x54FD4D50 EQ PUSH2 0x33B JUMPI DUP1 PUSH4 0x56DD475A EQ PUSH2 0x359 JUMPI PUSH2 0x1A7 JUMP JUMPDEST DUP1 PUSH4 0x23B872DD EQ PUSH2 0x295 JUMPI DUP1 PUSH4 0x2630C12F EQ PUSH2 0x2C5 JUMPI DUP1 PUSH4 0x2D380242 EQ PUSH2 0x2E3 JUMPI PUSH2 0x1A7 JUMP JUMPDEST DUP1 PUSH4 0x6FDDE03 EQ PUSH2 0x1AB JUMPI DUP1 PUSH4 0x95EA7B3 EQ PUSH2 0x1C9 JUMPI DUP1 PUSH4 0x12CAE7AF EQ PUSH2 0x1F9 JUMPI DUP1 PUSH4 0x134E18F4 EQ PUSH2 0x229 JUMPI DUP1 PUSH4 0x158B1A57 EQ PUSH2 0x247 JUMPI DUP1 PUSH4 0x18160DDD EQ PUSH2 0x277 JUMPI JUMPDEST PUSH0 PUSH0 REVERT JUMPDEST PUSH2 0x1B3 PUSH2 0x54D JUMP JUMPDEST PUSH1 0x40 MLOAD PUSH2 0x1C0 SWAP2 SWAP1 PUSH2 0x163F JUMP JUMPDEST PUSH1 0x40 MLOAD DUP1 SWAP2 SUB SWAP1 RETURN JUMPDEST PUSH2 0x1E3 PUSH1 0x4 DUP1 CALLDATASIZE SUB DUP2 ADD SWAP1 PUSH2 0x1DE SWAP2 SWAP1 PUSH2 0x16F0 JUMP JUMPDEST PUSH2 0x5DD JUMP JUMPDEST PUSH1 0x40 MLOAD PUSH2 0x1F0 SWAP2 SWAP1 PUSH2 0x1748 JUMP JUMPDEST PUSH1 0x40 MLOAD DUP1 SWAP2 SUB SWAP1 RETURN JUMPDEST PUSH2 0x213 PUSH1 0x4 DUP1 CALLDATASIZE SUB DUP2 ADD SWAP1 PUSH2 0x20E SWAP2 SWAP1 PUSH2 0x1761 JUMP JUMPDEST PUSH2 0x5FF JUMP JUMPDEST PUSH1 0x40 MLOAD PUSH2 0x220 SWAP2 SWAP1 PUSH2 0x179B JUMP JUMPDEST PUSH1 0x40 MLOAD DUP1 SWAP2 SUB SWAP1 RETURN JUMPDEST PUSH2 0x231 PUSH2 0x610 JUMP JUMPDEST PUSH1 0x40 MLOAD PUSH2 0x23E SWAP2 SWAP1 PUSH2 0x17C3 JUMP JUMPDEST PUSH1 0x40 MLOAD DUP1 SWAP2 SUB SWAP1 RETURN JUMPDEST PUSH2 0x261 PUSH1 0x4 DUP1 CALLDATASIZE SUB DUP2 ADD SWAP1 PUSH2 0x25C SWAP2 SWAP1 PUSH2 0x1761 JUMP JUMPDEST PUSH2 0x617 JUMP JUMPDEST PUSH1 0x40 MLOAD PUSH2 0x26E SWAP2 SWAP1 PUSH2 0x179B JUMP JUMPDEST PUSH1 0x40 MLOAD DUP1 SWAP2 SUB SWAP1 RETURN JUMPDEST PUSH2 0x27F PUSH2 0x620 JUMP JUMPDEST PUSH1 0x40 MLOAD PUSH2 0x28C SWAP2 SWAP1 PUSH2 0x179B JUMP JUMPDEST PUSH1 0x40 MLOAD DUP1 SWAP2 SUB SWAP1 RETURN JUMPDEST PUSH2 0x2AF PUSH1 0x4 DUP1 CALLDATASIZE SUB DUP2 ADD SWAP1 PUSH2 0x2AA SWAP2 SWAP1 PUSH2 0x17DC JUMP JUMPDEST PUSH2 0x629 JUMP JUMPDEST PUSH1 0x40 MLOAD PUSH2 0x2BC SWAP2 SWAP1 PUSH2 0x1748 JUMP JUMPDEST PUSH1 0x40 MLOAD DUP1 SWAP2 SUB SWAP1 RETURN JUMPDEST PUSH2 0x2CD PUSH2 0x76B JUMP JUMPDEST PUSH1 0x40 MLOAD PUSH2 0x2DA SWAP2 SWAP1 PUSH2 0x1887 JUMP JUMPDEST PUSH1 0x40 MLOAD DUP1 SWAP2 SUB SWAP1 RETURN JUMPDEST PUSH2 0x2EB PUSH2 0x790 JUMP JUMPDEST PUSH1 0x40 MLOAD PUSH2 0x2F8 SWAP2 SWAP1 PUSH2 0x179B JUMP JUMPDEST PUSH1 0x40 MLOAD DUP1 SWAP2 SUB SWAP1 RETURN JUMPDEST PUSH2 0x309 PUSH2 0x796 JUMP JUMPDEST PUSH1 0x40 MLOAD PUSH2 0x316 SWAP2 SWAP1 PUSH2 0x18BB JUMP JUMPDEST PUSH1 0x40 MLOAD DUP1 SWAP2 SUB SWAP1 RETURN JUMPDEST PUSH2 0x339 PUSH1 0x4 DUP1 CALLDATASIZE SUB DUP2 ADD SWAP1 PUSH2 0x334 SWAP2 SWAP1 PUSH2 0x16F0 JUMP JUMPDEST PUSH2 0x79D JUMP JUMPDEST STOP JUMPDEST PUSH2 0x343 PUSH2 0x8FD JUMP JUMPDEST PUSH1 0x40 MLOAD PUSH2 0x350 SWAP2 SWAP1 PUSH2 0x163F JUMP JUMPDEST PUSH1 0x40 MLOAD DUP1 SWAP2 SUB SWAP1 RETURN JUMPDEST PUSH2 0x361 PUSH2 0x93A JUMP JUMPDEST PUSH1 0x40 MLOAD PUSH2 0x36E SWAP2 SWAP1 PUSH2 0x18F4 JUMP JUMPDEST PUSH1 0x40 MLOAD DUP1 SWAP2 SUB SWAP1 RETURN JUMPDEST PUSH2 0x37F PUSH2 0x95F JUMP JUMPDEST PUSH1 0x40 MLOAD PUSH2 0x38C SWAP2 SWAP1 PUSH2 0x1748 JUMP JUMPDEST PUSH1 0x40 MLOAD DUP1 SWAP2 SUB SWAP1 RETURN JUMPDEST PUSH2 0x39D PUSH2 0x966 JUMP JUMPDEST PUSH1 0x40 MLOAD PUSH2 0x3AA SWAP2 SWAP1 PUSH2 0x17C3 JUMP JUMPDEST PUSH1 0x40 MLOAD DUP1 SWAP2 SUB SWAP1 RETURN JUMPDEST PUSH2 0x3CD PUSH1 0x4 DUP1 CALLDATASIZE SUB DUP2 ADD SWAP1 PUSH2 0x3C8 SWAP2 SWAP1 PUSH2 0x1761 JUMP JUMPDEST PUSH2 0x96D JUMP JUMPDEST PUSH1 0x40 MLOAD PUSH2 0x3DA SWAP2 SWAP1 PUSH2 0x179B JUMP JUMPDEST PUSH1 0x40 MLOAD DUP1 SWAP2 SUB SWAP1 RETURN JUMPDEST PUSH2 0x3EB PUSH2 0x9B2 JUMP JUMPDEST STOP JUMPDEST PUSH2 0x3F5 PUSH2 0x9C5 JUMP JUMPDEST PUSH1 0x40 MLOAD PUSH2 0x402 SWAP2 SWAP1 PUSH2 0x192D JUMP JUMPDEST PUSH1 0x40 MLOAD DUP1 SWAP2 SUB SWAP1 RETURN JUMPDEST PUSH2 0x413 PUSH2 0x9EA JUMP JUMPDEST PUSH1 0x40 MLOAD PUSH2 0x420 SWAP2 SWAP1 PUSH2 0x17C3 JUMP JUMPDEST PUSH1 0x40 MLOAD DUP1 SWAP2 SUB SWAP1 RETURN JUMPDEST PUSH2 0x431 PUSH2 0xA12 JUMP JUMPDEST PUSH1 0x40 MLOAD PUSH2 0x43E SWAP2 SWAP1 PUSH2 0x179B JUMP JUMPDEST PUSH1 0x40 MLOAD DUP1 SWAP2 SUB SWAP1 RETURN JUMPDEST PUSH2 0x44F PUSH2 0xA20 JUMP JUMPDEST PUSH1 0x40 MLOAD PUSH2 0x45C SWAP2 SWAP1 PUSH2 0x163F JUMP JUMPDEST PUSH1 0x40 MLOAD DUP1 SWAP2 SUB SWAP1 RETURN JUMPDEST PUSH2 0x47F PUSH1 0x4 DUP1 CALLDATASIZE SUB DUP2 ADD SWAP1 PUSH2 0x47A SWAP2 SWAP1 PUSH2 0x16F0 JUMP JUMPDEST PUSH2 0xAB0 JUMP JUMPDEST PUSH1 0x40 MLOAD PUSH2 0x48C SWAP2 SWAP1 PUSH2 0x1748 JUMP JUMPDEST PUSH1 0x40 MLOAD DUP1 SWAP2 SUB SWAP1 RETURN JUMPDEST PUSH2 0x49D PUSH2 0xBF0 JUMP JUMPDEST PUSH1 0x40 MLOAD PUSH2 0x4AA SWAP2 SWAP1 PUSH2 0x17C3 JUMP JUMPDEST PUSH1 0x40 MLOAD DUP1 SWAP2 SUB SWAP1 RETURN JUMPDEST PUSH2 0x4CD PUSH1 0x4 DUP1 CALLDATASIZE SUB DUP2 ADD SWAP1 PUSH2 0x4C8 SWAP2 SWAP1 PUSH2 0x1946 JUMP JUMPDEST PUSH2 0xBF7 JUMP JUMPDEST PUSH1 0x40 MLOAD PUSH2 0x4DA SWAP2 SWAP1 PUSH2 0x179B JUMP JUMPDEST PUSH1 0x40 MLOAD DUP1 SWAP2 SUB SWAP1 RETURN JUMPDEST PUSH2 0x4FD PUSH1 0x4 DUP1 CALLDATASIZE SUB DUP2 ADD SWAP1 PUSH2 0x4F8 SWAP2 SWAP1 PUSH2 0x1761 JUMP JUMPDEST PUSH2 0xC79 JUMP JUMPDEST PUSH1 0x40 MLOAD PUSH2 0x50A SWAP2 SWAP1 PUSH2 0x1748 JUMP JUMPDEST PUSH1 0x40 MLOAD DUP1 SWAP2 SUB SWAP1 RETURN JUMPDEST PUSH2 0x51B PUSH2 0xD1A JUMP JUMPDEST PUSH1 0x40 MLOAD PUSH2 0x528 SWAP2 SWAP1 PUSH2 0x179B JUMP JUMPDEST PUSH1 0x40 MLOAD DUP1 SWAP2 SUB SWAP1 RETURN JUMPDEST PUSH2 0x54B PUSH1 0x4 DUP1 CALLDATASIZE SUB DUP2 ADD SWAP1 PUSH2 0x546 SWAP2 SWAP1 PUSH2 0x1761 JUMP JUMPDEST PUSH2 0xDAE JUMP JUMPDEST STOP JUMPDEST PUSH1 0x60 PUSH1 0x3 DUP1 SLOAD PUSH2 0x55C SWAP1 PUSH2 0x19B1 JUMP JUMPDEST DUP1 PUSH1 0x1F ADD PUSH1 0x20 DUP1 SWAP2 DIV MUL PUSH1 0x20 ADD PUSH1 0x40 MLOAD SWAP1 DUP2 ADD PUSH1 0x40 MSTORE DUP1 SWAP3 SWAP2 SWAP1 DUP2 DUP2 MSTORE PUSH1 0x20 ADD DUP3 DUP1 SLOAD PUSH2 0x588 SWAP1 PUSH2 0x19B1 JUMP JUMPDEST DUP1 ISZERO PUSH2 0x5D3 JUMPI DUP1 PUSH1 0x1F LT PUSH2 0x5AA JUMPI PUSH2 0x100 DUP1 DUP4 SLOAD DIV MUL DUP4 MSTORE SWAP2 PUSH1 0x20 ADD SWAP2 PUSH2 0x5D3 JUMP JUMPDEST DUP3 ADD SWAP2 SWAP1 PUSH0 MSTORE PUSH1 0x20 PUSH0 KECCAK256 SWAP1 JUMPDEST DUP2 SLOAD DUP2 MSTORE SWAP1 PUSH1 0x1 ADD SWAP1 PUSH1 0x20 ADD DUP1 DUP4 GT PUSH2 0x5B6 JUMPI DUP3 SWAP1 SUB PUSH1 0x1F AND DUP3 ADD SWAP2 JUMPDEST POP POP POP POP POP SWAP1 POP SWAP1 JUMP JUMPDEST PUSH0 PUSH0 PUSH2 0x5E7 PUSH2 0xE32 JUMP JUMPDEST SWAP1 POP PUSH2 0x5F4 DUP2 DUP6 DUP6 PUSH2 0xE39 JUMP JUMPDEST PUSH1 0x1 SWAP2 POP POP SWAP3 SWAP2 POP POP JUMP JUMPDEST PUSH0 PUSH2 0x609 DUP3 PUSH2 0x96D JUMP JUMPDEST SWAP1 POP SWAP2 SWAP1 POP JUMP JUMPDEST PUSH0 PUSH0 SWAP1 POP SWAP1 JUMP JUMPDEST PUSH0 PUSH0 SWAP1 POP SWAP2 SWAP1 POP JUMP JUMPDEST PUSH0 PUSH1 0x2 SLOAD SWAP1 POP SWAP1 JUMP JUMPDEST PUSH0 PUSH1 0x8 PUSH0 SWAP1 SLOAD SWAP1 PUSH2 0x100 EXP SWAP1 DIV PUSH20 0xFFFFFFFFFFFFFFFFFFFFFFFFFFFFFFFFFFFFFFFF AND PUSH20 0xFFFFFFFFFFFFFFFFFFFFFFFFFFFFFFFFFFFFFFFF AND PUSH4 0xE5839836 DUP6 PUSH1 0x40 MLOAD DUP3 PUSH4 0xFFFFFFFF AND PUSH1 0xE0 SHL DUP2 MSTORE PUSH1 0x4 ADD PUSH2 0x684 SWAP2 SWAP1 PUSH2 0x17C3 JUMP JUMPDEST PUSH1 0x20 PUSH1 0x40 MLOAD DUP1 DUP4 SUB DUP2 DUP7 GAS STATICCALL ISZERO DUP1 ISZERO PUSH2 0x69F JUMPI RETURNDATASIZE PUSH0 PUSH0 RETURNDATACOPY RETURNDATASIZE PUSH0 REVERT JUMPDEST POP POP POP POP PUSH1 0x40 MLOAD RETURNDATASIZE PUSH1 0x1F NOT PUSH1 0x1F DUP3 ADD AND DUP3 ADD DUP1 PUSH1 0x40 MSTORE POP DUP2 ADD SWAP1 PUSH2 0x6C3 SWAP2 SWAP1 PUSH2 0x1A0B JUMP JUMPDEST ISZERO PUSH2 0x703 JUMPI PUSH1 0x40 MLOAD PUSH32 0x8C379A000000000000000000000000000000000000000000000000000000000 DUP2 MSTORE PUSH1 0x4 ADD PUSH2 0x6FA SWAP1 PUSH2 0x1A80 JUMP JUMPDEST PUSH1 0x40 MLOAD DUP1 SWAP2 SUB SWAP1 REVERT JUMPDEST DUP2 PUSH16 0xFFFFFFFFFFFFFFFFFFFFFFFFFFFFFFFF AND DUP3 EQ PUSH2 0x757 JUMPI PUSH1 0x40 MLOAD PUSH32 0x8C379A000000000000000000000000000000000000000000000000000000000 DUP2 MSTORE PUSH1 0x4 ADD PUSH2 0x74E SWAP1 PUSH2 0x1AE8 JUMP JUMPDEST PUSH1 0x40 MLOAD DUP1 SWAP2 SUB SWAP1 REVERT JUMPDEST PUSH2 0x762 DUP5 DUP5 DUP5 PUSH2 0xE4B JUMP JUMPDEST SWAP1 POP SWAP4 SWAP3 POP POP POP JUMP JUMPDEST PUSH1 0x9 PUSH0 SWAP1 SLOAD SWAP1 PUSH2 0x100 EXP SWAP1 DIV PUSH20 0xFFFFFFFFFFFFFFFFFFFFFFFFFFFFFFFFFFFFFFFF AND DUP2 JUMP JUMPDEST PUSH1 0x6 SLOAD DUP2 JUMP JUMPDEST PUSH0 PUSH0 SWAP1 POP SWAP1 JUMP JUMPDEST PUSH2 0x7A5 PUSH2 0xE79 JUMP JUMPDEST PUSH1 0x7 PUSH0 SWAP1 SLOAD SWAP1 PUSH2 0x100 EXP SWAP1 DIV PUSH20 0xFFFFFFFFFFFFFFFFFFFFFFFFFFFFFFFFFFFFFFFF AND PUSH20 0xFFFFFFFFFFFFFFFFFFFFFFFFFFFFFFFFFFFFFFFF AND PUSH4 0x3AF32ABF DUP4 PUSH1 0x40 MLOAD DUP3 PUSH4 0xFFFFFFFF AND PUSH1 0xE0 SHL DUP2 MSTORE PUSH1 0x4 ADD PUSH2 0x7FF SWAP2 SWAP1 PUSH2 0x17C3 JUMP JUMPDEST PUSH1 0x20 PUSH1 0x40 MLOAD DUP1 DUP4 SUB DUP2 DUP7 GAS STATICCALL ISZERO DUP1 ISZERO PUSH2 0x81A JUMPI RETURNDATASIZE PUSH0 PUSH0 RETURNDATACOPY RETURNDATASIZE PUSH0 REVERT JUMPDEST POP POP POP POP PUSH1 0x40 MLOAD RETURNDATASIZE PUSH1 0x1F NOT PUSH1 0x1F DUP3 ADD AND DUP3 ADD DUP1 PUSH1 0x40 MSTORE POP DUP2 ADD SWAP1 PUSH2 0x83E SWAP2 SWAP1 PUSH2 0x1A0B JUMP JUMPDEST PUSH2 0x87D JUMPI PUSH1 0x40 MLOAD PUSH32 0x8C379A000000000000000000000000000000000000000000000000000000000 DUP2 MSTORE PUSH1 0x4 ADD PUSH2 0x874 SWAP1 PUSH2 0x1B50 JUMP JUMPDEST PUSH1 0x40 MLOAD DUP1 SWAP2 SUB SWAP1 REVERT JUMPDEST PUSH10 0x69E10DE76676D0800000 DUP2 PUSH1 0x6 SLOAD PUSH2 0x896 SWAP2 SWAP1 PUSH2 0x1B9B JUMP JUMPDEST GT ISZERO PUSH2 0x8D7 JUMPI PUSH1 0x40 MLOAD PUSH32 0x8C379A000000000000000000000000000000000000000000000000000000000 DUP2 MSTORE PUSH1 0x4 ADD PUSH2 0x8CE SWAP1 PUSH2 0x1C18 JUMP JUMPDEST PUSH1 0x40 MLOAD DUP1 SWAP2 SUB SWAP1 REVERT JUMPDEST PUSH2 0x8E1 DUP3 DUP3 PUSH2 0xF00 JUMP JUMPDEST DUP1 PUSH1 0x6 PUSH0 DUP3 DUP3 SLOAD PUSH2 0x8F2 SWAP2 SWAP1 PUSH2 0x1B9B JUMP JUMPDEST SWAP3 POP POP DUP2 SWAP1 SSTORE POP POP POP JUMP JUMPDEST PUSH1 0x60 PUSH1 0x40 MLOAD DUP1 PUSH1 0x40 ADD PUSH1 0x40 MSTORE DUP1 PUSH1 0x5 DUP2 MSTORE PUSH1 0x20 ADD PUSH32 0x312E302E30000000000000000000000000000000000000000000000000000000 DUP2 MSTORE POP SWAP1 POP SWAP1 JUMP JUMPDEST PUSH1 0x8 PUSH0 SWAP1 SLOAD SWAP1 PUSH2 0x100 EXP SWAP1 DIV PUSH20 0xFFFFFFFFFFFFFFFFFFFFFFFFFFFFFFFFFFFFFFFF AND DUP2 JUMP JUMPDEST PUSH0 PUSH0 SWAP1 POP SWAP1 JUMP JUMPDEST PUSH0 PUSH0 SWAP1 POP SWAP1 JUMP JUMPDEST PUSH0 PUSH0 PUSH0 DUP4 PUSH20 0xFFFFFFFFFFFFFFFFFFFFFFFFFFFFFFFFFFFFFFFF AND PUSH20 0xFFFFFFFFFFFFFFFFFFFFFFFFFFFFFFFFFFFFFFFF AND DUP2 MSTORE PUSH1 0x20 ADD SWAP1 DUP2 MSTORE PUSH1 0x20 ADD PUSH0 KECCAK256 SLOAD SWAP1 POP SWAP2 SWAP1 POP JUMP JUMPDEST PUSH2 0x9BA PUSH2 0xE79 JUMP JUMPDEST PUSH2 0x9C3 PUSH0 PUSH2 0xF7F JUMP JUMPDEST JUMP JUMPDEST PUSH1 0x7 PUSH0 SWAP1 SLOAD SWAP1 PUSH2 0x100 EXP SWAP1 DIV PUSH20 0xFFFFFFFFFFFFFFFFFFFFFFFFFFFFFFFFFFFFFFFF AND DUP2 JUMP JUMPDEST PUSH0 PUSH1 0x5 PUSH0 SWAP1 SLOAD SWAP1 PUSH2 0x100 EXP SWAP1 DIV PUSH20 0xFFFFFFFFFFFFFFFFFFFFFFFFFFFFFFFFFFFFFFFF AND SWAP1 POP SWAP1 JUMP JUMPDEST PUSH10 0x69E10DE76676D0800000 DUP2 JUMP JUMPDEST PUSH1 0x60 PUSH1 0x4 DUP1 SLOAD PUSH2 0xA2F SWAP1 PUSH2 0x19B1 JUMP JUMPDEST DUP1 PUSH1 0x1F ADD PUSH1 0x20 DUP1 SWAP2 DIV MUL PUSH1 0x20 ADD PUSH1 0x40 MLOAD SWAP1 DUP2 ADD PUSH1 0x40 MSTORE DUP1 SWAP3 SWAP2 SWAP1 DUP2 DUP2 MSTORE PUSH1 0x20 ADD DUP3 DUP1 SLOAD PUSH2 0xA5B SWAP1 PUSH2 0x19B1 JUMP JUMPDEST DUP1 ISZERO PUSH2 0xAA6 JUMPI DUP1 PUSH1 0x1F LT PUSH2 0xA7D JUMPI PUSH2 0x100 DUP1 DUP4 SLOAD DIV MUL DUP4 MSTORE SWAP2 PUSH1 0x20 ADD SWAP2 PUSH2 0xAA6 JUMP JUMPDEST DUP3 ADD SWAP2 SWAP1 PUSH0 MSTORE PUSH1 0x20 PUSH0 KECCAK256 SWAP1 JUMPDEST DUP2 SLOAD DUP2 MSTORE SWAP1 PUSH1 0x1 ADD SWAP1 PUSH1 0x20 ADD DUP1 DUP4 GT PUSH2 0xA89 JUMPI DUP3 SWAP1 SUB PUSH1 0x1F AND DUP3 ADD SWAP2 JUMPDEST POP POP POP POP POP SWAP1 POP SWAP1 JUMP JUMPDEST PUSH0 PUSH1 0x8 PUSH0 SWAP1 SLOAD SWAP1 PUSH2 0x100 EXP SWAP1 DIV PUSH20 0xFFFFFFFFFFFFFFFFFFFFFFFFFFFFFFFFFFFFFFFF AND PUSH20 0xFFFFFFFFFFFFFFFFFFFFFFFFFFFFFFFFFFFFFFFF AND PUSH4 0xE5839836 CALLER PUSH1 0x40 MLOAD DUP3 PUSH4 0xFFFFFFFF AND PUSH1 0xE0 SHL DUP2 MSTORE PUSH1 0x4 ADD PUSH2 0xB0B SWAP2 SWAP1 PUSH2 0x17C3 JUMP JUMPDEST PUSH1 0x20 PUSH1 0x40 MLOAD DUP1 DUP4 SUB DUP2 DUP7 GAS STATICCALL ISZERO DUP1 ISZERO PUSH2 0xB26 JUMPI RETURNDATASIZE PUSH0 PUSH0 RETURNDATACOPY RETURNDATASIZE PUSH0 REVERT JUMPDEST POP POP POP POP PUSH1 0x40 MLOAD RETURNDATASIZE PUSH1 0x1F NOT PUSH1 0x1F DUP3 ADD AND DUP3 ADD DUP1 PUSH1 0x40 MSTORE POP DUP2 ADD SWAP1 PUSH2 0xB4A SWAP2 SWAP1 PUSH2 0x1A0B JUMP JUMPDEST ISZERO PUSH2 0xB8A JUMPI PUSH1 0x40 MLOAD PUSH32 0x8C379A000000000000000000000000000000000000000000000000000000000 DUP2 MSTORE PUSH1 0x4 ADD PUSH2 0xB81 SWAP1 PUSH2 0x1A80 JUMP JUMPDEST PUSH1 0x40 MLOAD DUP1 SWAP2 SUB SWAP1 REVERT JUMPDEST DUP2 PUSH16 0xFFFFFFFFFFFFFFFFFFFFFFFFFFFFFFFF AND DUP3 EQ PUSH2 0xBDE JUMPI PUSH1 0x40 MLOAD PUSH32 0x8C379A000000000000000000000000000000000000000000000000000000000 DUP2 MSTORE PUSH1 0x4 ADD PUSH2 0xBD5 SWAP1 PUSH2 0x1AE8 JUMP JUMPDEST PUSH1 0x40 MLOAD DUP1 SWAP2 SUB SWAP1 REVERT JUMPDEST PUSH2 0xBE8 DUP4 DUP4 PUSH2 0x1042 JUMP JUMPDEST SWAP1 POP SWAP3 SWAP2 POP POP JUMP JUMPDEST PUSH0 ADDRESS SWAP1 POP SWAP1 JUMP JUMPDEST PUSH0 PUSH1 0x1 PUSH0 DUP5 PUSH20 0xFFFFFFFFFFFFFFFFFFFFFFFFFFFFFFFFFFFFFFFF AND PUSH20 0xFFFFFFFFFFFFFFFFFFFFFFFFFFFFFFFFFFFFFFFF AND DUP2 MSTORE PUSH1 0x20 ADD SWAP1 DUP2 MSTORE PUSH1 0x20 ADD PUSH0 KECCAK256 PUSH0 DUP4 PUSH20 0xFFFFFFFFFFFFFFFFFFFFFFFFFFFFFFFFFFFFFFFF AND PUSH20 0xFFFFFFFFFFFFFFFFFFFFFFFFFFFFFFFFFFFFFFFF AND DUP2 MSTORE PUSH1 0x20 ADD SWAP1 DUP2 MSTORE PUSH1 0x20 ADD PUSH0 KECCAK256 SLOAD SWAP1 POP SWAP3 SWAP2 POP POP JUMP JUMPDEST PUSH0 PUSH1 0x8 PUSH0 SWAP1 SLOAD SWAP1 PUSH2 0x100 EXP SWAP1 DIV PUSH20 0xFFFFFFFFFFFFFFFFFFFFFFFFFFFFFFFFFFFFFFFF AND PUSH20 0xFFFFFFFFFFFFFFFFFFFFFFFFFFFFFFFFFFFFFFFF AND PUSH4 0xE5839836 DUP4 PUSH1 0x40 MLOAD DUP3 PUSH4 0xFFFFFFFF AND PUSH1 0xE0 SHL DUP2 MSTORE PUSH1 0x4 ADD PUSH2 0xCD4 SWAP2 SWAP1 PUSH2 0x17C3 JUMP JUMPDEST PUSH1 0x20 PUSH1 0x40 MLOAD DUP1 DUP4 SUB DUP2 DUP7 GAS STATICCALL ISZERO DUP1 ISZERO PUSH2 0xCEF JUMPI RETURNDATASIZE PUSH0 PUSH0 RETURNDATACOPY RETURNDATASIZE PUSH0 REVERT JUMPDEST POP POP POP POP PUSH1 0x40 MLOAD RETURNDATASIZE PUSH1 0x1F NOT PUSH1 0x1F DUP3 ADD AND DUP3 ADD DUP1 PUSH1 0x40 MSTORE POP DUP2 ADD SWAP1 PUSH2 0xD13 SWAP2 SWAP1 PUSH2 0x1A0B JUMP JUMPDEST SWAP1 POP SWAP2 SWAP1 POP JUMP JUMPDEST PUSH0 PUSH1 0x9 PUSH0 SWAP1 SLOAD SWAP1 PUSH2 0x100 EXP SWAP1 DIV PUSH20 0xFFFFFFFFFFFFFFFFFFFFFFFFFFFFFFFFFFFFFFFF AND PUSH20 0xFFFFFFFFFFFFFFFFFFFFFFFFFFFFFFFFFFFFFFFF AND PUSH4 0xEB91D37E PUSH1 0x40 MLOAD DUP2 PUSH4 0xFFFFFFFF AND PUSH1 0xE0 SHL DUP2 MSTORE PUSH1 0x4 ADD PUSH1 0x20 PUSH1 0x40 MLOAD DUP1 DUP4 SUB DUP2 DUP7 GAS STATICCALL ISZERO DUP1 ISZERO PUSH2 0xD85 JUMPI RETURNDATASIZE PUSH0 PUSH0 RETURNDATACOPY RETURNDATASIZE PUSH0 REVERT JUMPDEST POP POP POP POP PUSH1 0x40 MLOAD RETURNDATASIZE PUSH1 0x1F NOT PUSH1 0x1F DUP3 ADD AND DUP3 ADD DUP1 PUSH1 0x40 MSTORE POP DUP2 ADD SWAP1 PUSH2 0xDA9 SWAP2 SWAP1 PUSH2 0x1C4A JUMP JUMPDEST SWAP1 POP SWAP1 JUMP JUMPDEST PUSH2 0xDB6 PUSH2 0xE79 JUMP JUMPDEST PUSH0 PUSH20 0xFFFFFFFFFFFFFFFFFFFFFFFFFFFFFFFFFFFFFFFF AND DUP2 PUSH20 0xFFFFFFFFFFFFFFFFFFFFFFFFFFFFFFFFFFFFFFFF AND SUB PUSH2 0xE26 JUMPI PUSH0 PUSH1 0x40 MLOAD PUSH32 0x1E4FBDF700000000000000000000000000000000000000000000000000000000 DUP2 MSTORE PUSH1 0x4 ADD PUSH2 0xE1D SWAP2 SWAP1 PUSH2 0x17C3 JUMP JUMPDEST PUSH1 0x40 MLOAD DUP1 SWAP2 SUB SWAP1 REVERT JUMPDEST PUSH2 0xE2F DUP2 PUSH2 0xF7F JUMP JUMPDEST POP JUMP JUMPDEST PUSH0 CALLER SWAP1 POP SWAP1 JUMP JUMPDEST PUSH2 0xE46 DUP4 DUP4 DUP4 PUSH1 0x1 PUSH2 0x1064 JUMP JUMPDEST POP POP POP JUMP JUMPDEST PUSH0 PUSH0 PUSH2 0xE55 PUSH2 0xE32 JUMP JUMPDEST SWAP1 POP PUSH2 0xE62 DUP6 DUP3 DUP6 PUSH2 0x1233 JUMP JUMPDEST PUSH2 0xE6D DUP6 DUP6 DUP6 PUSH2 0x12C6 JUMP JUMPDEST PUSH1 0x1 SWAP2 POP POP SWAP4 SWAP3 POP POP POP JUMP JUMPDEST PUSH2 0xE81 PUSH2 0xE32 JUMP JUMPDEST PUSH20 0xFFFFFFFFFFFFFFFFFFFFFFFFFFFFFFFFFFFFFFFF AND PUSH2 0xE9F PUSH2 0x9EA JUMP JUMPDEST PUSH20 0xFFFFFFFFFFFFFFFFFFFFFFFFFFFFFFFFFFFFFFFF AND EQ PUSH2 0xEFE JUMPI PUSH2 0xEC2 PUSH2 0xE32 JUMP JUMPDEST PUSH1 0x40 MLOAD PUSH32 0x118CDAA700000000000000000000000000000000000000000000000000000000 DUP2 MSTORE PUSH1 0x4 ADD PUSH2 0xEF5 SWAP2 SWAP1 PUSH2 0x17C3 JUMP JUMPDEST PUSH1 0x40 MLOAD DUP1 SWAP2 SUB SWAP1 REVERT JUMPDEST JUMP JUMPDEST PUSH0 PUSH20 0xFFFFFFFFFFFFFFFFFFFFFFFFFFFFFFFFFFFFFFFF AND DUP3 PUSH20 0xFFFFFFFFFFFFFFFFFFFFFFFFFFFFFFFFFFFFFFFF AND SUB PUSH2 0xF70 JUMPI PUSH0 PUSH1 0x40 MLOAD PUSH32 0xEC442F0500000000000000000000000000000000000000000000000000000000 DUP2 MSTORE PUSH1 0x4 ADD PUSH2 0xF67 SWAP2 SWAP1 PUSH2 0x17C3 JUMP JUMPDEST PUSH1 0x40 MLOAD DUP1 SWAP2 SUB SWAP1 REVERT JUMPDEST PUSH2 0xF7B PUSH0 DUP4 DUP4 PUSH2 0x13B6 JUMP JUMPDEST POP POP JUMP JUMPDEST PUSH0 PUSH1 0x5 PUSH0 SWAP1 SLOAD SWAP1 PUSH2 0x100 EXP SWAP1 DIV PUSH20 0xFFFFFFFFFFFFFFFFFFFFFFFFFFFFFFFFFFFFFFFF AND SWAP1 POP DUP2 PUSH1 0x5 PUSH0 PUSH2 0x100 EXP DUP2 SLOAD DUP2 PUSH20 0xFFFFFFFFFFFFFFFFFFFFFFFFFFFFFFFFFFFFFFFF MUL NOT AND SWAP1 DUP4 PUSH20 0xFFFFFFFFFFFFFFFFFFFFFFFFFFFFFFFFFFFFFFFF AND MUL OR SWAP1 SSTORE POP DUP2 PUSH20 0xFFFFFFFFFFFFFFFFFFFFFFFFFFFFFFFFFFFFFFFF AND DUP2 PUSH20 0xFFFFFFFFFFFFFFFFFFFFFFFFFFFFFFFFFFFFFFFF AND PUSH32 0x8BE0079C531659141344CD1FD0A4F28419497F9722A3DAAFE3B4186F6B6457E0 PUSH1 0x40 MLOAD PUSH1 0x40 MLOAD DUP1 SWAP2 SUB SWAP1 LOG3 POP POP JUMP JUMPDEST PUSH0 PUSH0 PUSH2 0x104C PUSH2 0xE32 JUMP JUMPDEST SWAP1 POP PUSH2 0x1059 DUP2 DUP6 DUP6 PUSH2 0x12C6 JUMP JUMPDEST PUSH1 0x1 SWAP2 POP POP SWAP3 SWAP2 POP POP JUMP JUMPDEST PUSH0 PUSH20 0xFFFFFFFFFFFFFFFFFFFFFFFFFFFFFFFFFFFFFFFF AND DUP5 PUSH20 0xFFFFFFFFFFFFFFFFFFFFFFFFFFFFFFFFFFFFFFFF AND SUB PUSH2 0x10D4 JUMPI PUSH0 PUSH1 0x40 MLOAD PUSH32 0xE602DF0500000000000000000000000000000000000000000000000000000000 DUP2 MSTORE PUSH1 0x4 ADD PUSH2 0x10CB SWAP2 SWAP1 PUSH2 0x17C3 JUMP JUMPDEST PUSH1 0x40 MLOAD DUP1 SWAP2 SUB SWAP1 REVERT JUMPDEST PUSH0 PUSH20 0xFFFFFFFFFFFFFFFFFFFFFFFFFFFFFFFFFFFFFFFF AND DUP4 PUSH20 0xFFFFFFFFFFFFFFFFFFFFFFFFFFFFFFFFFFFFFFFF AND SUB PUSH2 0x1144 JUMPI PUSH0 PUSH1 0x40 MLOAD PUSH32 0x94280D6200000000000000000000000000000000000000000000000000000000 DUP2 MSTORE PUSH1 0x4 ADD PUSH2 0x113B SWAP2 SWAP1 PUSH2 0x17C3 JUMP JUMPDEST PUSH1 0x40 MLOAD DUP1 SWAP2 SUB SWAP1 REVERT JUMPDEST DUP2 PUSH1 0x1 PUSH0 DUP7 PUSH20 0xFFFFFFFFFFFFFFFFFFFFFFFFFFFFFFFFFFFFFFFF AND PUSH20 0xFFFFFFFFFFFFFFFFFFFFFFFFFFFFFFFFFFFFFFFF AND DUP2 MSTORE PUSH1 0x20 ADD SWAP1 DUP2 MSTORE PUSH1 0x20 ADD PUSH0 KECCAK256 PUSH0 DUP6 PUSH20 0xFFFFFFFFFFFFFFFFFFFFFFFFFFFFFFFFFFFFFFFF AND PUSH20 0xFFFFFFFFFFFFFFFFFFFFFFFFFFFFFFFFFFFFFFFF AND DUP2 MSTORE PUSH1 0x20 ADD SWAP1 DUP2 MSTORE PUSH1 0x20 ADD PUSH0 KECCAK256 DUP2 SWAP1 SSTORE POP DUP1 ISZERO PUSH2 0x122D JUMPI DUP3 PUSH20 0xFFFFFFFFFFFFFFFFFFFFFFFFFFFFFFFFFFFFFFFF AND DUP5 PUSH20 0xFFFFFFFFFFFFFFFFFFFFFFFFFFFFFFFFFFFFFFFF AND PUSH32 0x8C5BE1E5EBEC7D5BD14F71427D1E84F3DD0314C0F7B2291E5B200AC8C7C3B925 DUP5 PUSH1 0x40 MLOAD PUSH2 0x1224 SWAP2 SWAP1 PUSH2 0x179B JUMP JUMPDEST PUSH1 0x40 MLOAD DUP1 SWAP2 SUB SWAP1 LOG3 JUMPDEST POP POP POP POP JUMP JUMPDEST PUSH0 PUSH2 0x123E DUP5 DUP5 PUSH2 0xBF7 JUMP JUMPDEST SWAP1 POP PUSH32 0xFFFFFFFFFFFFFFFFFFFFFFFFFFFFFFFFFFFFFFFFFFFFFFFFFFFFFFFFFFFFFFFF DUP2 LT ISZERO PUSH2 0x12C0 JUMPI DUP2 DUP2 LT ISZERO PUSH2 0x12B1 JUMPI DUP3 DUP2 DUP4 PUSH1 0x40 MLOAD PUSH32 0xFB8F41B200000000000000000000000000000000000000000000000000000000 DUP2 MSTORE PUSH1 0x4 ADD PUSH2 0x12A8 SWAP4 SWAP3 SWAP2 SWAP1 PUSH2 0x1C75 JUMP JUMPDEST PUSH1 0x40 MLOAD DUP1 SWAP2 SUB SWAP1 REVERT JUMPDEST PUSH2 0x12BF DUP5 DUP5 DUP5 DUP5 SUB PUSH0 PUSH2 0x1064 JUMP JUMPDEST JUMPDEST POP POP POP POP JUMP JUMPDEST PUSH0 PUSH20 0xFFFFFFFFFFFFFFFFFFFFFFFFFFFFFFFFFFFFFFFF AND DUP4 PUSH20 0xFFFFFFFFFFFFFFFFFFFFFFFFFFFFFFFFFFFFFFFF AND SUB PUSH2 0x1336 JUMPI PUSH0 PUSH1 0x40 MLOAD PUSH32 0x96C6FD1E00000000000000000000000000000000000000000000000000000000 DUP2 MSTORE PUSH1 0x4 ADD PUSH2 0x132D SWAP2 SWAP1 PUSH2 0x17C3 JUMP JUMPDEST PUSH1 0x40 MLOAD DUP1 SWAP2 SUB SWAP1 REVERT JUMPDEST PUSH0 PUSH20 0xFFFFFFFFFFFFFFFFFFFFFFFFFFFFFFFFFFFFFFFF AND DUP3 PUSH20 0xFFFFFFFFFFFFFFFFFFFFFFFFFFFFFFFFFFFFFFFF AND SUB PUSH2 0x13A6 JUMPI PUSH0 PUSH1 0x40 MLOAD PUSH32 0xEC442F0500000000000000000000000000000000000000000000000000000000 DUP2 MSTORE PUSH1 0x4 ADD PUSH2 0x139D SWAP2 SWAP1 PUSH2 0x17C3 JUMP JUMPDEST PUSH1 0x40 MLOAD DUP1 SWAP2 SUB SWAP1 REVERT JUMPDEST PUSH2 0x13B1 DUP4 DUP4 DUP4 PUSH2 0x13B6 JUMP JUMPDEST POP POP POP JUMP JUMPDEST PUSH0 PUSH20 0xFFFFFFFFFFFFFFFFFFFFFFFFFFFFFFFFFFFFFFFF AND DUP4 PUSH20 0xFFFFFFFFFFFFFFFFFFFFFFFFFFFFFFFFFFFFFFFF AND SUB PUSH2 0x1406 JUMPI DUP1 PUSH1 0x2 PUSH0 DUP3 DUP3 SLOAD PUSH2 0x13FA SWAP2 SWAP1 PUSH2 0x1B9B JUMP JUMPDEST SWAP3 POP POP DUP2 SWAP1 SSTORE POP PUSH2 0x14D4 JUMP JUMPDEST PUSH0 PUSH0 PUSH0 DUP6 PUSH20 0xFFFFFFFFFFFFFFFFFFFFFFFFFFFFFFFFFFFFFFFF AND PUSH20 0xFFFFFFFFFFFFFFFFFFFFFFFFFFFFFFFFFFFFFFFF AND DUP2 MSTORE PUSH1 0x20 ADD SWAP1 DUP2 MSTORE PUSH1 0x20 ADD PUSH0 KECCAK256 SLOAD SWAP1 POP DUP2 DUP2 LT ISZERO PUSH2 0x148F JUMPI DUP4 DUP2 DUP4 PUSH1 0x40 MLOAD PUSH32 0xE450D38C00000000000000000000000000000000000000000000000000000000 DUP2 MSTORE PUSH1 0x4 ADD PUSH2 0x1486 SWAP4 SWAP3 SWAP2 SWAP1 PUSH2 0x1C75 JUMP JUMPDEST PUSH1 0x40 MLOAD DUP1 SWAP2 SUB SWAP1 REVERT JUMPDEST DUP2 DUP2 SUB PUSH0 PUSH0 DUP7 PUSH20 0xFFFFFFFFFFFFFFFFFFFFFFFFFFFFFFFFFFFFFFFF AND PUSH20 0xFFFFFFFFFFFFFFFFFFFFFFFFFFFFFFFFFFFFFFFF AND DUP2 MSTORE PUSH1 0x20 ADD SWAP1 DUP2 MSTORE PUSH1 0x20 ADD PUSH0 KECCAK256 DUP2 SWAP1 SSTORE POP POP JUMPDEST PUSH0 PUSH20 0xFFFFFFFFFFFFFFFFFFFFFFFFFFFFFFFFFFFFFFFF AND DUP3 PUSH20 0xFFFFFFFFFFFFFFFFFFFFFFFFFFFFFFFFFFFFFFFF AND SUB PUSH2 0x151B JUMPI DUP1 PUSH1 0x2 PUSH0 DUP3 DUP3 SLOAD SUB SWAP3 POP POP DUP2 SWAP1 SSTORE POP PUSH2 0x1565 JUMP JUMPDEST DUP1 PUSH0 PUSH0 DUP5 PUSH20 0xFFFFFFFFFFFFFFFFFFFFFFFFFFFFFFFFFFFFFFFF AND PUSH20 0xFFFFFFFFFFFFFFFFFFFFFFFFFFFFFFFFFFFFFFFF AND DUP2 MSTORE PUSH1 0x20 ADD SWAP1 DUP2 MSTORE PUSH1 0x20 ADD PUSH0 KECCAK256 PUSH0 DUP3 DUP3 SLOAD ADD SWAP3 POP POP DUP2 SWAP1 SSTORE POP JUMPDEST DUP2 PUSH20 0xFFFFFFFFFFFFFFFFFFFFFFFFFFFFFFFFFFFFFFFF AND DUP4 PUSH20 0xFFFFFFFFFFFFFFFFFFFFFFFFFFFFFFFFFFFFFFFF AND PUSH32 0xDDF252AD1BE2C89B69C2B068FC378DAA952BA7F163C4A11628F55A4DF523B3EF DUP4 PUSH1 0x40 MLOAD PUSH2 0x15C2 SWAP2 SWAP1 PUSH2 0x179B JUMP JUMPDEST PUSH1 0x40 MLOAD DUP1 SWAP2 SUB SWAP1 LOG3 POP POP POP JUMP JUMPDEST PUSH0 DUP2 MLOAD SWAP1 POP SWAP2 SWAP1 POP JUMP JUMPDEST PUSH0 DUP3 DUP3 MSTORE PUSH1 0x20 DUP3 ADD SWAP1 POP SWAP3 SWAP2 POP POP JUMP JUMPDEST DUP3 DUP2 DUP4 MCOPY PUSH0 DUP4 DUP4 ADD MSTORE POP POP POP JUMP JUMPDEST PUSH0 PUSH1 0x1F NOT PUSH1 0x1F DUP4 ADD AND SWAP1 POP SWAP2 SWAP1 POP JUMP JUMPDEST PUSH0 PUSH2 0x1611 DUP3 PUSH2 0x15CF JUMP JUMPDEST PUSH2 0x161B DUP2 DUP6 PUSH2 0x15D9 JUMP JUMPDEST SWAP4 POP PUSH2 0x162B DUP2 DUP6 PUSH1 0x20 DUP7 ADD PUSH2 0x15E9 JUMP JUMPDEST PUSH2 0x1634 DUP2 PUSH2 0x15F7 JUMP JUMPDEST DUP5 ADD SWAP2 POP POP SWAP3 SWAP2 POP POP JUMP JUMPDEST PUSH0 PUSH1 0x20 DUP3 ADD SWAP1 POP DUP2 DUP2 SUB PUSH0 DUP4 ADD MSTORE PUSH2 0x1657 DUP2 DUP5 PUSH2 0x1607 JUMP JUMPDEST SWAP1 POP SWAP3 SWAP2 POP POP JUMP JUMPDEST PUSH0 PUSH0 REVERT JUMPDEST PUSH0 PUSH20 0xFFFFFFFFFFFFFFFFFFFFFFFFFFFFFFFFFFFFFFFF DUP3 AND SWAP1 POP SWAP2 SWAP1 POP JUMP JUMPDEST PUSH0 PUSH2 0x168C DUP3 PUSH2 0x1663 JUMP JUMPDEST SWAP1 POP SWAP2 SWAP1 POP JUMP JUMPDEST PUSH2 0x169C DUP2 PUSH2 0x1682 JUMP JUMPDEST DUP2 EQ PUSH2 0x16A6 JUMPI PUSH0 PUSH0 REVERT JUMPDEST POP JUMP JUMPDEST PUSH0 DUP2 CALLDATALOAD SWAP1 POP PUSH2 0x16B7 DUP2 PUSH2 0x1693 JUMP JUMPDEST SWAP3 SWAP2 POP POP JUMP JUMPDEST PUSH0 DUP2 SWAP1 POP SWAP2 SWAP1 POP JUMP JUMPDEST PUSH2 0x16CF DUP2 PUSH2 0x16BD JUMP JUMPDEST DUP2 EQ PUSH2 0x16D9 JUMPI PUSH0 PUSH0 REVERT JUMPDEST POP JUMP JUMPDEST PUSH0 DUP2 CALLDATALOAD SWAP1 POP PUSH2 0x16EA DUP2 PUSH2 0x16C6 JUMP JUMPDEST SWAP3 SWAP2 POP POP JUMP JUMPDEST PUSH0 PUSH0 PUSH1 0x40 DUP4 DUP6 SUB SLT ISZERO PUSH2 0x1706 JUMPI PUSH2 0x1705 PUSH2 0x165F JUMP JUMPDEST JUMPDEST PUSH0 PUSH2 0x1713 DUP6 DUP3 DUP7 ADD PUSH2 0x16A9 JUMP JUMPDEST SWAP3 POP POP PUSH1 0x20 PUSH2 0x1724 DUP6 DUP3 DUP7 ADD PUSH2 0x16DC JUMP JUMPDEST SWAP2 POP POP SWAP3 POP SWAP3 SWAP1 POP JUMP JUMPDEST PUSH0 DUP2 ISZERO ISZERO SWAP1 POP SWAP2 SWAP1 POP JUMP JUMPDEST PUSH2 0x1742 DUP2 PUSH2 0x172E JUMP JUMPDEST DUP3 MSTORE POP POP JUMP JUMPDEST PUSH0 PUSH1 0x20 DUP3 ADD SWAP1 POP PUSH2 0x175B PUSH0 DUP4 ADD DUP5 PUSH2 0x1739 JUMP JUMPDEST SWAP3 SWAP2 POP POP JUMP JUMPDEST PUSH0 PUSH1 0x20 DUP3 DUP5 SUB SLT ISZERO PUSH2 0x1776 JUMPI PUSH2 0x1775 PUSH2 0x165F JUMP JUMPDEST JUMPDEST PUSH0 PUSH2 0x1783 DUP5 DUP3 DUP6 ADD PUSH2 0x16A9 JUMP JUMPDEST SWAP2 POP POP SWAP3 SWAP2 POP POP JUMP JUMPDEST PUSH2 0x1795 DUP2 PUSH2 0x16BD JUMP JUMPDEST DUP3 MSTORE POP POP JUMP JUMPDEST PUSH0 PUSH1 0x20 DUP3 ADD SWAP1 POP PUSH2 0x17AE PUSH0 DUP4 ADD DUP5 PUSH2 0x178C JUMP JUMPDEST SWAP3 SWAP2 POP POP JUMP JUMPDEST PUSH2 0x17BD DUP2 PUSH2 0x1682 JUMP JUMPDEST DUP3 MSTORE POP POP JUMP JUMPDEST PUSH0 PUSH1 0x20 DUP3 ADD SWAP1 POP PUSH2 0x17D6 PUSH0 DUP4 ADD DUP5 PUSH2 0x17B4 JUMP JUMPDEST SWAP3 SWAP2 POP POP JUMP JUMPDEST PUSH0 PUSH0 PUSH0 PUSH1 0x60 DUP5 DUP7 SUB SLT ISZERO PUSH2 0x17F3 JUMPI PUSH2 0x17F2 PUSH2 0x165F JUMP JUMPDEST JUMPDEST PUSH0 PUSH2 0x1800 DUP7 DUP3 DUP8 ADD PUSH2 0x16A9 JUMP JUMPDEST SWAP4 POP POP PUSH1 0x20 PUSH2 0x1811 DUP7 DUP3 DUP8 ADD PUSH2 0x16A9 JUMP JUMPDEST SWAP3 POP POP PUSH1 0x40 PUSH2 0x1822 DUP7 DUP3 DUP8 ADD PUSH2 0x16DC JUMP JUMPDEST SWAP2 POP POP SWAP3 POP SWAP3 POP SWAP3 JUMP JUMPDEST PUSH0 DUP2 SWAP1 POP SWAP2 SWAP1 POP JUMP JUMPDEST PUSH0 PUSH2 0x184F PUSH2 0x184A PUSH2 0x1845 DUP5 PUSH2 0x1663 JUMP JUMPDEST PUSH2 0x182C JUMP JUMPDEST PUSH2 0x1663 JUMP JUMPDEST SWAP1 POP SWAP2 SWAP1 POP JUMP JUMPDEST PUSH0 PUSH2 0x1860 DUP3 PUSH2 0x1835 JUMP JUMPDEST SWAP1 POP SWAP2 SWAP1 POP JUMP JUMPDEST PUSH0 PUSH2 0x1871 DUP3 PUSH2 0x1856 JUMP JUMPDEST SWAP1 POP SWAP2 SWAP1 POP JUMP JUMPDEST PUSH2 0x1881 DUP2 PUSH2 0x1867 JUMP JUMPDEST DUP3 MSTORE POP POP JUMP JUMPDEST PUSH0 PUSH1 0x20 DUP3 ADD SWAP1 POP PUSH2 0x189A PUSH0 DUP4 ADD DUP5 PUSH2 0x1878 JUMP JUMPDEST SWAP3 SWAP2 POP POP JUMP JUMPDEST PUSH0 PUSH1 0xFF DUP3 AND SWAP1 POP SWAP2 SWAP1 POP JUMP JUMPDEST PUSH2 0x18B5 DUP2 PUSH2 0x18A0 JUMP JUMPDEST DUP3 MSTORE POP POP JUMP JUMPDEST PUSH0 PUSH1 0x20 DUP3 ADD SWAP1 POP PUSH2 0x18CE PUSH0 DUP4 ADD DUP5 PUSH2 0x18AC JUMP JUMPDEST SWAP3 SWAP2 POP POP JUMP JUMPDEST PUSH0 PUSH2 0x18DE DUP3 PUSH2 0x1856 JUMP JUMPDEST SWAP1 POP SWAP2 SWAP1 POP JUMP JUMPDEST PUSH2 0x18EE DUP2 PUSH2 0x18D4 JUMP JUMPDEST DUP3 MSTORE POP POP JUMP JUMPDEST PUSH0 PUSH1 0x20 DUP3 ADD SWAP1 POP PUSH2 0x1907 PUSH0 DUP4 ADD DUP5 PUSH2 0x18E5 JUMP JUMPDEST SWAP3 SWAP2 POP POP JUMP JUMPDEST PUSH0 PUSH2 0x1917 DUP3 PUSH2 0x1856 JUMP JUMPDEST SWAP1 POP SWAP2 SWAP1 POP JUMP JUMPDEST PUSH2 0x1927 DUP2 PUSH2 0x190D JUMP JUMPDEST DUP3 MSTORE POP POP JUMP JUMPDEST PUSH0 PUSH1 0x20 DUP3 ADD SWAP1 POP PUSH2 0x1940 PUSH0 DUP4 ADD DUP5 PUSH2 0x191E JUMP JUMPDEST SWAP3 SWAP2 POP POP JUMP JUMPDEST PUSH0 PUSH0 PUSH1 0x40 DUP4 DUP6 SUB SLT ISZERO PUSH2 0x195C JUMPI PUSH2 0x195B PUSH2 0x165F JUMP JUMPDEST JUMPDEST PUSH0 PUSH2 0x1969 DUP6 DUP3 DUP7 ADD PUSH2 0x16A9 JUMP JUMPDEST SWAP3 POP POP PUSH1 0x20 PUSH2 0x197A DUP6 DUP3 DUP7 ADD PUSH2 0x16A9 JUMP JUMPDEST SWAP2 POP POP SWAP3 POP SWAP3 SWAP1 POP JUMP JUMPDEST PUSH32 0x4E487B7100000000000000000000000000000000000000000000000000000000 PUSH0 MSTORE PUSH1 0x22 PUSH1 0x4 MSTORE PUSH1 0x24 PUSH0 REVERT JUMPDEST PUSH0 PUSH1 0x2 DUP3 DIV SWAP1 POP PUSH1 0x1 DUP3 AND DUP1 PUSH2 0x19C8 JUMPI PUSH1 0x7F DUP3 AND SWAP2 POP JUMPDEST PUSH1 0x20 DUP3 LT DUP2 SUB PUSH2 0x19DB JUMPI PUSH2 0x19DA PUSH2 0x1984 JUMP JUMPDEST JUMPDEST POP SWAP2 SWAP1 POP JUMP JUMPDEST PUSH2 0x19EA DUP2 PUSH2 0x172E JUMP JUMPDEST DUP2 EQ PUSH2 0x19F4 JUMPI PUSH0 PUSH0 REVERT JUMPDEST POP JUMP JUMPDEST PUSH0 DUP2 MLOAD SWAP1 POP PUSH2 0x1A05 DUP2 PUSH2 0x19E1 JUMP JUMPDEST SWAP3 SWAP2 POP POP JUMP JUMPDEST PUSH0 PUSH1 0x20 DUP3 DUP5 SUB SLT ISZERO PUSH2 0x1A20 JUMPI PUSH2 0x1A1F PUSH2 0x165F JUMP JUMPDEST JUMPDEST PUSH0 PUSH2 0x1A2D DUP5 DUP3 DUP6 ADD PUSH2 0x19F7 JUMP JUMPDEST SWAP2 POP POP SWAP3 SWAP2 POP POP JUMP JUMPDEST PUSH32 0x53656E6465722069732066726F7A656E00000000000000000000000000000000 PUSH0 DUP3 ADD MSTORE POP JUMP JUMPDEST PUSH0 PUSH2 0x1A6A PUSH1 0x10 DUP4 PUSH2 0x15D9 JUMP JUMPDEST SWAP2 POP PUSH2 0x1A75 DUP3 PUSH2 0x1A36 JUMP JUMPDEST PUSH1 0x20 DUP3 ADD SWAP1 POP SWAP2 SWAP1 POP JUMP JUMPDEST PUSH0 PUSH1 0x20 DUP3 ADD SWAP1 POP DUP2 DUP2 SUB PUSH0 DUP4 ADD MSTORE PUSH2 0x1A97 DUP2 PUSH2 0x1A5E JUMP JUMPDEST SWAP1 POP SWAP2 SWAP1 POP JUMP JUMPDEST PUSH32 0x416D6F756E74206D75737420626520616E20696E746567657200000000000000 PUSH0 DUP3 ADD MSTORE POP JUMP JUMPDEST PUSH0 PUSH2 0x1AD2 PUSH1 0x19 DUP4 PUSH2 0x15D9 JUMP JUMPDEST SWAP2 POP PUSH2 0x1ADD DUP3 PUSH2 0x1A9E JUMP JUMPDEST PUSH1 0x20 DUP3 ADD SWAP1 POP SWAP2 SWAP1 POP JUMP JUMPDEST PUSH0 PUSH1 0x20 DUP3 ADD SWAP1 POP DUP2 DUP2 SUB PUSH0 DUP4 ADD MSTORE PUSH2 0x1AFF DUP2 PUSH2 0x1AC6 JUMP JUMPDEST SWAP1 POP SWAP2 SWAP1 POP JUMP JUMPDEST PUSH32 0x4E6F742077686974656C69737465640000000000000000000000000000000000 PUSH0 DUP3 ADD MSTORE POP JUMP JUMPDEST PUSH0 PUSH2 0x1B3A PUSH1 0xF DUP4 PUSH2 0x15D9 JUMP JUMPDEST SWAP2 POP PUSH2 0x1B45 DUP3 PUSH2 0x1B06 JUMP JUMPDEST PUSH1 0x20 DUP3 ADD SWAP1 POP SWAP2 SWAP1 POP JUMP JUMPDEST PUSH0 PUSH1 0x20 DUP3 ADD SWAP1 POP DUP2 DUP2 SUB PUSH0 DUP4 ADD MSTORE PUSH2 0x1B67 DUP2 PUSH2 0x1B2E JUMP JUMPDEST SWAP1 POP SWAP2 SWAP1 POP JUMP JUMPDEST PUSH32 0x4E487B7100000000000000000000000000000000000000000000000000000000 PUSH0 MSTORE PUSH1 0x11 PUSH1 0x4 MSTORE PUSH1 0x24 PUSH0 REVERT JUMPDEST PUSH0 PUSH2 0x1BA5 DUP3 PUSH2 0x16BD JUMP JUMPDEST SWAP2 POP PUSH2 0x1BB0 DUP4 PUSH2 0x16BD JUMP JUMPDEST SWAP3 POP DUP3 DUP3 ADD SWAP1 POP DUP1 DUP3 GT ISZERO PUSH2 0x1BC8 JUMPI PUSH2 0x1BC7 PUSH2 0x1B6E JUMP JUMPDEST JUMPDEST SWAP3 SWAP2 POP POP JUMP JUMPDEST PUSH32 0x546F74616C20737570706C792065786365656465640000000000000000000000 PUSH0 DUP3 ADD MSTORE POP JUMP JUMPDEST PUSH0 PUSH2 0x1C02 PUSH1 0x15 DUP4 PUSH2 0x15D9 JUMP JUMPDEST SWAP2 POP PUSH2 0x1C0D DUP3 PUSH2 0x1BCE JUMP JUMPDEST PUSH1 0x20 DUP3 ADD SWAP1 POP SWAP2 SWAP1 POP JUMP JUMPDEST PUSH0 PUSH1 0x20 DUP3 ADD SWAP1 POP DUP2 DUP2 SUB PUSH0 DUP4 ADD MSTORE PUSH2 0x1C2F DUP2 PUSH2 0x1BF6 JUMP JUMPDEST SWAP1 POP SWAP2 SWAP1 POP JUMP JUMPDEST PUSH0 DUP2 MLOAD SWAP1 POP PUSH2 0x1C44 DUP2 PUSH2 0x16C6 JUMP JUMPDEST SWAP3 SWAP2 POP POP JUMP JUMPDEST PUSH0 PUSH1 0x20 DUP3 DUP5 SUB SLT ISZERO PUSH2 0x1C5F JUMPI PUSH2 0x1C5E PUSH2 0x165F JUMP JUMPDEST JUMPDEST PUSH0 PUSH2 0x1C6C DUP5 DUP3 DUP6 ADD PUSH2 0x1C36 JUMP JUMPDEST SWAP2 POP POP SWAP3 SWAP2 POP POP JUMP JUMPDEST PUSH0 PUSH1 0x60 DUP3 ADD SWAP1 POP PUSH2 0x1C88 PUSH0 DUP4 ADD DUP7 PUSH2 0x17B4 JUMP JUMPDEST PUSH2 0x1C95 PUSH1 0x20 DUP4 ADD DUP6 PUSH2 0x178C JUMP JUMPDEST PUSH2 0x1CA2 PUSH1 0x40 DUP4 ADD DUP5 PUSH2 0x178C JUMP JUMPDEST SWAP5 SWAP4 POP POP POP POP JUMP INVALID LOG2 PUSH5 0x6970667358 0x22 SLT KECCAK256 PUSH18 0xF06DD889A253C53401EAD606C64D3BCEFB97 LOG1 0xFC 0xAB 0x24 0x28 0xBA TLOAD 0xB2 NUMBER 0xC2 SWAP13 SWAP9 0xA6 PUSH5 0x736F6C6343 STOP ADDMOD 0x1E STOP CALLER PUSH1 0x80 PUSH1 0x40 MSTORE CALLVALUE DUP1 ISZERO PUSH1 0xE JUMPI PUSH0 PUSH0 REVERT JUMPDEST POP PUSH2 0x2F2 DUP1 PUSH2 0x1C PUSH0 CODECOPY PUSH0 RETURN INVALID PUSH1 0x80 PUSH1 0x40 MSTORE CALLVALUE DUP1 ISZERO PUSH2 0xF JUMPI PUSH0 PUSH0 REVERT JUMPDEST POP PUSH1 0x4 CALLDATASIZE LT PUSH2 0x4A JUMPI PUSH0 CALLDATALOAD PUSH1 0xE0 SHR DUP1 PUSH4 0x3AF32ABF EQ PUSH2 0x4E JUMPI DUP1 PUSH4 0x8AB1D681 EQ PUSH2 0x7E JUMPI DUP1 PUSH4 0x9B19251A EQ PUSH2 0x9A JUMPI DUP1 PUSH4 0xE43252D7 EQ PUSH2 0xCA JUMPI JUMPDEST PUSH0 PUSH0 REVERT JUMPDEST PUSH2 0x68 PUSH1 0x4 DUP1 CALLDATASIZE SUB DUP2 ADD SWAP1 PUSH2 0x63 SWAP2 SWAP1 PUSH2 0x25E JUMP JUMPDEST PUSH2 0xE6 JUMP JUMPDEST PUSH1 0x40 MLOAD PUSH2 0x75 SWAP2 SWAP1 PUSH2 0x2A3 JUMP JUMPDEST PUSH1 0x40 MLOAD DUP1 SWAP2 SUB SWAP1 RETURN JUMPDEST PUSH2 0x98 PUSH1 0x4 DUP1 CALLDATASIZE SUB DUP2 ADD SWAP1 PUSH2 0x93 SWAP2 SWAP1 PUSH2 0x25E JUMP JUMPDEST PUSH2 0x137 JUMP JUMPDEST STOP JUMPDEST PUSH2 0xB4 PUSH1 0x4 DUP1 CALLDATASIZE SUB DUP2 ADD SWAP1 PUSH2 0xAF SWAP2 SWAP1 PUSH2 0x25E JUMP JUMPDEST PUSH2 0x18D JUMP JUMPDEST PUSH1 0x40 MLOAD PUSH2 0xC1 SWAP2 SWAP1 PUSH2 0x2A3 JUMP JUMPDEST PUSH1 0x40 MLOAD DUP1 SWAP2 SUB SWAP1 RETURN JUMPDEST PUSH2 0xE4 PUSH1 0x4 DUP1 CALLDATASIZE SUB DUP2 ADD SWAP1 PUSH2 0xDF SWAP2 SWAP1 PUSH2 0x25E JUMP JUMPDEST PUSH2 0x1A9 JUMP JUMPDEST STOP JUMPDEST PUSH0 PUSH0 PUSH0 DUP4 PUSH20 0xFFFFFFFFFFFFFFFFFFFFFFFFFFFFFFFFFFFFFFFF AND PUSH20 0xFFFFFFFFFFFFFFFFFFFFFFFFFFFFFFFFFFFFFFFF AND DUP2 MSTORE PUSH1 0x20 ADD SWAP1 DUP2 MSTORE PUSH1 0x20 ADD PUSH0 KECCAK256 PUSH0 SWAP1 SLOAD SWAP1 PUSH2 0x100 EXP SWAP1 DIV PUSH1 0xFF AND SWAP1 POP SWAP2 SWAP1 POP JUMP JUMPDEST PUSH0 PUSH0 PUSH0 DUP4 PUSH20 0xFFFFFFFFFFFFFFFFFFFFFFFFFFFFFFFFFFFFFFFF AND PUSH20 0xFFFFFFFFFFFFFFFFFFFFFFFFFFFFFFFFFFFFFFFF AND DUP2 MSTORE PUSH1 0x20 ADD SWAP1 DUP2 MSTORE PUSH1 0x20 ADD PUSH0 KECCAK256 PUSH0 PUSH2 0x100 EXP DUP2 SLOAD DUP2 PUSH1 0xFF MUL NOT AND SWAP1 DUP4 ISZERO ISZERO MUL OR SWAP1 SSTORE POP POP JUMP JUMPDEST PUSH0 PUSH1 0x20 MSTORE DUP1 PUSH0 MSTORE PUSH1 0x40 PUSH0 KECCAK256 PUSH0 SWAP2 POP SLOAD SWAP1 PUSH2 0x100 EXP SWAP1 DIV PUSH1 0xFF AND DUP2 JUMP JUMPDEST PUSH1 0x1 PUSH0 PUSH0 DUP4 PUSH20 0xFFFFFFFFFFFFFFFFFFFFFFFFFFFFFFFFFFFFFFFF AND PUSH20 0xFFFFFFFFFFFFFFFFFFFFFFFFFFFFFFFFFFFFFFFF AND DUP2 MSTORE PUSH1 0x20 ADD SWAP1 DUP2 MSTORE PUSH1 0x20 ADD PUSH0 KECCAK256 PUSH0 PUSH2 0x100 EXP DUP2 SLOAD DUP2 PUSH1 0xFF MUL NOT AND SWAP1 DUP4 ISZERO ISZERO MUL OR SWAP1 SSTORE POP POP JUMP JUMPDEST PUSH0 PUSH0 REVERT JUMPDEST PUSH0 PUSH20 0xFFFFFFFFFFFFFFFFFFFFFFFFFFFFFFFFFFFFFFFF DUP3 AND SWAP1 POP SWAP2 SWAP1 POP JUMP JUMPDEST PUSH0 PUSH2 0x22D DUP3 PUSH2 0x204 JUMP JUMPDEST SWAP1 POP SWAP2 SWAP1 POP JUMP JUMPDEST PUSH2 0x23D DUP2 PUSH2 0x223 JUMP JUMPDEST DUP2 EQ PUSH2 0x247 JUMPI PUSH0 PUSH0 REVERT JUMPDEST POP JUMP JUMPDEST PUSH0 DUP2 CALLDATALOAD SWAP1 POP PUSH2 0x258 DUP2 PUSH2 0x234 JUMP JUMPDEST SWAP3 SWAP2 POP POP JUMP JUMPDEST PUSH0 PUSH1 0x20 DUP3 DUP5 SUB SLT ISZERO PUSH2 0x273 JUMPI PUSH2 0x272 PUSH2 0x200 JUMP JUMPDEST JUMPDEST PUSH0 PUSH2 0x280 DUP5 DUP3 DUP6 ADD PUSH2 0x24A JUMP JUMPDEST SWAP2 POP POP SWAP3 SWAP2 POP POP JUMP JUMPDEST PUSH0 DUP2 ISZERO ISZERO SWAP1 POP SWAP2 SWAP1 POP JUMP JUMPDEST PUSH2 0x29D DUP2 PUSH2 0x289 JUMP JUMPDEST DUP3 MSTORE POP POP JUMP JUMPDEST PUSH0 PUSH1 0x20 DUP3 ADD SWAP1 POP PUSH2 0x2B6 PUSH0 DUP4 ADD DUP5 PUSH2 0x294 JUMP JUMPDEST SWAP3 SWAP2 POP POP JUMP INVALID LOG2 PUSH5 0x6970667358 0x22 SLT KECCAK256 SDIV PUSH29 0xA57A84CC7C4601190DC4C1F111229EFAFB7710B6B5C7FD335271704493 CALL PUSH5 0x736F6C6343 STOP ADDMOD 0x1E STOP CALLER PUSH1 0x80 PUSH1 0x40 MSTORE CALLVALUE DUP1 ISZERO PUSH1 0xE JUMPI PUSH0 PUSH0 REVERT JUMPDEST POP PUSH2 0x2F2 DUP1 PUSH2 0x1C PUSH0 CODECOPY PUSH0 RETURN INVALID PUSH1 0x80 PUSH1 0x40 MSTORE CALLVALUE DUP1 ISZERO PUSH2 0xF JUMPI PUSH0 PUSH0 REVERT JUMPDEST POP PUSH1 0x4 CALLDATASIZE LT PUSH2 0x4A JUMPI PUSH0 CALLDATALOAD PUSH1 0xE0 SHR DUP1 PUSH4 0xCB4B73AB EQ PUSH2 0x4E JUMPI DUP1 PUSH4 0xD0516650 EQ PUSH2 0x6A JUMPI DUP1 PUSH4 0xE08BA51A EQ PUSH2 0x9A JUMPI DUP1 PUSH4 0xE5839836 EQ PUSH2 0xB6 JUMPI JUMPDEST PUSH0 PUSH0 REVERT JUMPDEST PUSH2 0x68 PUSH1 0x4 DUP1 CALLDATASIZE SUB DUP2 ADD SWAP1 PUSH2 0x63 SWAP2 SWAP1 PUSH2 0x25E JUMP JUMPDEST PUSH2 0xE6 JUMP JUMPDEST STOP JUMPDEST PUSH2 0x84 PUSH1 0x4 DUP1 CALLDATASIZE SUB DUP2 ADD SWAP1 PUSH2 0x7F SWAP2 SWAP1 PUSH2 0x25E JUMP JUMPDEST PUSH2 0x13C JUMP JUMPDEST PUSH1 0x40 MLOAD PUSH2 0x91 SWAP2 SWAP1 PUSH2 0x2A3 JUMP JUMPDEST PUSH1 0x40 MLOAD DUP1 SWAP2 SUB SWAP1 RETURN JUMPDEST PUSH2 0xB4 PUSH1 0x4 DUP1 CALLDATASIZE SUB DUP2 ADD SWAP1 PUSH2 0xAF SWAP2 SWAP1 PUSH2 0x25E JUMP JUMPDEST PUSH2 0x158 JUMP JUMPDEST STOP JUMPDEST PUSH2 0xD0 PUSH1 0x4 DUP1 CALLDATASIZE SUB DUP2 ADD SWAP1 PUSH2 0xCB SWAP2 SWAP1 PUSH2 0x25E JUMP JUMPDEST PUSH2 0x1AF JUMP JUMPDEST PUSH1 0x40 MLOAD PUSH2 0xDD SWAP2 SWAP1 PUSH2 0x2A3 JUMP JUMPDEST PUSH1 0x40 MLOAD DUP1 SWAP2 SUB SWAP1 RETURN JUMPDEST PUSH0 PUSH0 PUSH0 DUP4 PUSH20 0xFFFFFFFFFFFFFFFFFFFFFFFFFFFFFFFFFFFFFFFF AND PUSH20 0xFFFFFFFFFFFFFFFFFFFFFFFFFFFFFFFFFFFFFFFF AND DUP2 MSTORE PUSH1 0x20 ADD SWAP1 DUP2 MSTORE PUSH1 0x20 ADD PUSH0 KECCAK256 PUSH0 PUSH2 0x100 EXP DUP2 SLOAD DUP2 PUSH1 0xFF MUL NOT AND SWAP1 DUP4 ISZERO ISZERO MUL OR SWAP1 SSTORE POP POP JUMP JUMPDEST PUSH0 PUSH1 0x20 MSTORE DUP1 PUSH0 MSTORE PUSH1 0x40 PUSH0 KECCAK256 PUSH0 SWAP2 POP SLOAD SWAP1 PUSH2 0x100 EXP SWAP1 DIV PUSH1 0xFF AND DUP2 JUMP JUMPDEST PUSH1 0x1 PUSH0 PUSH0 DUP4 PUSH20 0xFFFFFFFFFFFFFFFFFFFFFFFFFFFFFFFFFFFFFFFF AND PUSH20 0xFFFFFFFFFFFFFFFFFFFFFFFFFFFFFFFFFFFFFFFF AND DUP2 MSTORE PUSH1 0x20 ADD SWAP1 DUP2 MSTORE PUSH1 0x20 ADD PUSH0 KECCAK256 PUSH0 PUSH2 0x100 EXP DUP2 SLOAD DUP2 PUSH1 0xFF MUL NOT AND SWAP1 DUP4 ISZERO ISZERO MUL OR SWAP1 SSTORE POP POP JUMP JUMPDEST PUSH0 PUSH0 PUSH0 DUP4 PUSH20 0xFFFFFFFFFFFFFFFFFFFFFFFFFFFFFFFFFFFFFFFF AND PUSH20 0xFFFFFFFFFFFFFFFFFFFFFFFFFFFFFFFFFFFFFFFF AND DUP2 MSTORE PUSH1 0x20 ADD SWAP1 DUP2 MSTORE PUSH1 0x20 ADD PUSH0 KECCAK256 PUSH0 SWAP1 SLOAD SWAP1 PUSH2 0x100 EXP SWAP1 DIV PUSH1 0xFF AND SWAP1 POP SWAP2 SWAP1 POP JUMP JUMPDEST PUSH0 PUSH0 REVERT JUMPDEST PUSH0 PUSH20 0xFFFFFFFFFFFFFFFFFFFFFFFFFFFFFFFFFFFFFFFF DUP3 AND SWAP1 POP SWAP2 SWAP1 POP JUMP JUMPDEST PUSH0 PUSH2 0x22D DUP3 PUSH2 0x204 JUMP JUMPDEST SWAP1 POP SWAP2 SWAP1 POP JUMP JUMPDEST PUSH2 0x23D DUP2 PUSH2 0x223 JUMP JUMPDEST DUP2 EQ PUSH2 0x247 JUMPI PUSH0 PUSH0 REVERT JUMPDEST POP JUMP JUMPDEST PUSH0 DUP2 CALLDATALOAD SWAP1 POP PUSH2 0x258 DUP2 PUSH2 0x234 JUMP JUMPDEST SWAP3 SWAP2 POP POP JUMP JUMPDEST PUSH0 PUSH1 0x20 DUP3 DUP5 SUB SLT ISZERO PUSH2 0x273 JUMPI PUSH2 0x272 PUSH2 0x200 JUMP JUMPDEST JUMPDEST PUSH0 PUSH2 0x280 DUP5 DUP3 DUP6 ADD PUSH2 0x24A JUMP JUMPDEST SWAP2 POP POP SWAP3 SWAP2 POP POP JUMP JUMPDEST PUSH0 DUP2 ISZERO ISZERO SWAP1 POP SWAP2 SWAP1 POP JUMP JUMPDEST PUSH2 0x29D DUP2 PUSH2 0x289 JUMP JUMPDEST DUP3 MSTORE POP POP JUMP JUMPDEST PUSH0 PUSH1 0x20 DUP3 ADD SWAP1 POP PUSH2 0x2B6 PUSH0 DUP4 ADD DUP5 PUSH2 0x294 JUMP JUMPDEST SWAP3 SWAP2 POP POP JUMP INVALID LOG2 PUSH5 0x6970667358 0x22 SLT KECCAK256 RETURNDATASIZE 0xB3 RETURNDATACOPY 0x2F CALLER LOG3 PUSH16 0xFF689B7507A3E99CB9AC8D696BCC5899 0x1F SWAPN 0xC2 CODESIZE 0xDE PUSH6 0x6A0B7A64736F PUSH13 0x634300081E0033608060405234 DUP1 ISZERO PUSH2 0xF JUMPI PUSH0 PUSH0 REVERT JUMPDEST POP PUSH1 0x40 MLOAD PUSH2 0x6F7 CODESIZE SUB DUP1 PUSH2 0x6F7 DUP4 CODECOPY DUP2 DUP2 ADD PUSH1 0x40 MSTORE DUP2 ADD SWAP1 PUSH2 0x31 SWAP2 SWAP1 PUSH2 0xD4 JUMP JUMPDEST DUP1 PUSH0 PUSH0 PUSH2 0x100 EXP DUP2 SLOAD DUP2 PUSH20 0xFFFFFFFFFFFFFFFFFFFFFFFFFFFFFFFFFFFFFFFF MUL NOT AND SWAP1 DUP4 PUSH20 0xFFFFFFFFFFFFFFFFFFFFFFFFFFFFFFFFFFFFFFFF AND MUL OR SWAP1 SSTORE POP POP PUSH2 0xFF JUMP JUMPDEST PUSH0 PUSH0 REVERT JUMPDEST PUSH0 PUSH20 0xFFFFFFFFFFFFFFFFFFFFFFFFFFFFFFFFFFFFFFFF DUP3 AND SWAP1 POP SWAP2 SWAP1 POP JUMP JUMPDEST PUSH0 PUSH2 0xA3 DUP3 PUSH2 0x7A JUMP JUMPDEST SWAP1 POP SWAP2 SWAP1 POP JUMP JUMPDEST PUSH2 0xB3 DUP2 PUSH2 0x99 JUMP JUMPDEST DUP2 EQ PUSH2 0xBD JUMPI PUSH0 PUSH0 REVERT JUMPDEST POP JUMP JUMPDEST PUSH0 DUP2 MLOAD SWAP1 POP PUSH2 0xCE DUP2 PUSH2 0xAA JUMP JUMPDEST SWAP3 SWAP2 POP POP JUMP JUMPDEST PUSH0 PUSH1 0x20 DUP3 DUP5 SUB SLT ISZERO PUSH2 0xE9 JUMPI PUSH2 0xE8 PUSH2 0x76 JUMP JUMPDEST JUMPDEST PUSH0 PUSH2 0xF6 DUP5 DUP3 DUP6 ADD PUSH2 0xC0 JUMP JUMPDEST SWAP2 POP POP SWAP3 SWAP2 POP POP JUMP JUMPDEST PUSH2 0x5EB DUP1 PUSH2 0x10C PUSH0 CODECOPY PUSH0 RETURN INVALID PUSH1 0x80 PUSH1 0x40 MSTORE CALLVALUE DUP1 ISZERO PUSH2 0xF JUMPI PUSH0 PUSH0 REVERT JUMPDEST POP PUSH1 0x4 CALLDATASIZE LT PUSH2 0x34 JUMPI PUSH0 CALLDATALOAD PUSH1 0xE0 SHR DUP1 PUSH4 0xBDD3D825 EQ PUSH2 0x38 JUMPI DUP1 PUSH4 0xEB91D37E EQ PUSH2 0x56 JUMPI JUMPDEST PUSH0 PUSH0 REVERT JUMPDEST PUSH2 0x40 PUSH2 0x74 JUMP JUMPDEST PUSH1 0x40 MLOAD PUSH2 0x4D SWAP2 SWAP1 PUSH2 0x1C5 JUMP JUMPDEST PUSH1 0x40 MLOAD DUP1 SWAP2 SUB SWAP1 RETURN JUMPDEST PUSH2 0x5E PUSH2 0x98 JUMP JUMPDEST PUSH1 0x40 MLOAD PUSH2 0x6B SWAP2 SWAP1 PUSH2 0x1F6 JUMP JUMPDEST PUSH1 0x40 MLOAD DUP1 SWAP2 SUB SWAP1 RETURN JUMPDEST PUSH0 PUSH0 SWAP1 SLOAD SWAP1 PUSH2 0x100 EXP SWAP1 DIV PUSH20 0xFFFFFFFFFFFFFFFFFFFFFFFFFFFFFFFFFFFFFFFF AND DUP2 JUMP JUMPDEST PUSH0 PUSH0 PUSH0 PUSH0 SWAP1 SLOAD SWAP1 PUSH2 0x100 EXP SWAP1 DIV PUSH20 0xFFFFFFFFFFFFFFFFFFFFFFFFFFFFFFFFFFFFFFFF AND SWAP1 POP PUSH0 DUP2 PUSH20 0xFFFFFFFFFFFFFFFFFFFFFFFFFFFFFFFFFFFFFFFF AND PUSH4 0x3850C7BD PUSH1 0x40 MLOAD DUP2 PUSH4 0xFFFFFFFF AND PUSH1 0xE0 SHL DUP2 MSTORE PUSH1 0x4 ADD PUSH1 0xE0 PUSH1 0x40 MLOAD DUP1 DUP4 SUB DUP2 DUP7 GAS STATICCALL ISZERO DUP1 ISZERO PUSH2 0x107 JUMPI RETURNDATASIZE PUSH0 PUSH0 RETURNDATACOPY RETURNDATASIZE PUSH0 REVERT JUMPDEST POP POP POP POP PUSH1 0x40 MLOAD RETURNDATASIZE PUSH1 0x1F NOT PUSH1 0x1F DUP3 ADD AND DUP3 ADD DUP1 PUSH1 0x40 MSTORE POP DUP2 ADD SWAP1 PUSH2 0x12B SWAP2 SWAP1 PUSH2 0x315 JUMP JUMPDEST POP POP POP POP POP POP SWAP1 POP PUSH0 PUSH25 0x1000000000000000000000000000000000000000000000000 PUSH1 0x2 DUP4 PUSH20 0xFFFFFFFFFFFFFFFFFFFFFFFFFFFFFFFFFFFFFFFF AND PUSH2 0x171 SWAP2 SWAP1 PUSH2 0x50E JUMP JUMPDEST PUSH2 0x17B SWAP2 SWAP1 PUSH2 0x585 JUMP JUMPDEST SWAP1 POP DUP1 SWAP4 POP POP POP POP SWAP1 JUMP JUMPDEST PUSH0 PUSH20 0xFFFFFFFFFFFFFFFFFFFFFFFFFFFFFFFFFFFFFFFF DUP3 AND SWAP1 POP SWAP2 SWAP1 POP JUMP JUMPDEST PUSH0 PUSH2 0x1AF DUP3 PUSH2 0x186 JUMP JUMPDEST SWAP1 POP SWAP2 SWAP1 POP JUMP JUMPDEST PUSH2 0x1BF DUP2 PUSH2 0x1A5 JUMP JUMPDEST DUP3 MSTORE POP POP JUMP JUMPDEST PUSH0 PUSH1 0x20 DUP3 ADD SWAP1 POP PUSH2 0x1D8 PUSH0 DUP4 ADD DUP5 PUSH2 0x1B6 JUMP JUMPDEST SWAP3 SWAP2 POP POP JUMP JUMPDEST PUSH0 DUP2 SWAP1 POP SWAP2 SWAP1 POP JUMP JUMPDEST PUSH2 0x1F0 DUP2 PUSH2 0x1DE JUMP JUMPDEST DUP3 MSTORE POP POP JUMP JUMPDEST PUSH0 PUSH1 0x20 DUP3 ADD SWAP1 POP PUSH2 0x209 PUSH0 DUP4 ADD DUP5 PUSH2 0x1E7 JUMP JUMPDEST SWAP3 SWAP2 POP POP JUMP JUMPDEST PUSH0 PUSH0 REVERT JUMPDEST PUSH2 0x21C DUP2 PUSH2 0x186 JUMP JUMPDEST DUP2 EQ PUSH2 0x226 JUMPI PUSH0 PUSH0 REVERT JUMPDEST POP JUMP JUMPDEST PUSH0 DUP2 MLOAD SWAP1 POP PUSH2 0x237 DUP2 PUSH2 0x213 JUMP JUMPDEST SWAP3 SWAP2 POP POP JUMP JUMPDEST PUSH0 DUP2 PUSH1 0x2 SIGNEXTEND SWAP1 POP SWAP2 SWAP1 POP JUMP JUMPDEST PUSH2 0x252 DUP2 PUSH2 0x23D JUMP JUMPDEST DUP2 EQ PUSH2 0x25C JUMPI PUSH0 PUSH0 REVERT JUMPDEST POP JUMP JUMPDEST PUSH0 DUP2 MLOAD SWAP1 POP PUSH2 0x26D DUP2 PUSH2 0x249 JUMP JUMPDEST SWAP3 SWAP2 POP POP JUMP JUMPDEST PUSH0 PUSH2 0xFFFF DUP3 AND SWAP1 POP SWAP2 SWAP1 POP JUMP JUMPDEST PUSH2 0x289 DUP2 PUSH2 0x273 JUMP JUMPDEST DUP2 EQ PUSH2 0x293 JUMPI PUSH0 PUSH0 REVERT JUMPDEST POP JUMP JUMPDEST PUSH0 DUP2 MLOAD SWAP1 POP PUSH2 0x2A4 DUP2 PUSH2 0x280 JUMP JUMPDEST SWAP3 SWAP2 POP POP JUMP JUMPDEST PUSH0 PUSH1 0xFF DUP3 AND SWAP1 POP SWAP2 SWAP1 POP JUMP JUMPDEST PUSH2 0x2BF DUP2 PUSH2 0x2AA JUMP JUMPDEST DUP2 EQ PUSH2 0x2C9 JUMPI PUSH0 PUSH0 REVERT JUMPDEST POP JUMP JUMPDEST PUSH0 DUP2 MLOAD SWAP1 POP PUSH2 0x2DA DUP2 PUSH2 0x2B6 JUMP JUMPDEST SWAP3 SWAP2 POP POP JUMP JUMPDEST PUSH0 DUP2 ISZERO ISZERO SWAP1 POP SWAP2 SWAP1 POP JUMP JUMPDEST PUSH2 0x2F4 DUP2 PUSH2 0x2E0 JUMP JUMPDEST DUP2 EQ PUSH2 0x2FE JUMPI PUSH0 PUSH0 REVERT JUMPDEST POP JUMP JUMPDEST PUSH0 DUP2 MLOAD SWAP1 POP PUSH2 0x30F DUP2 PUSH2 0x2EB JUMP JUMPDEST SWAP3 SWAP2 POP POP JUMP JUMPDEST PUSH0 PUSH0 PUSH0 PUSH0 PUSH0 PUSH0 PUSH0 PUSH1 0xE0 DUP9 DUP11 SUB SLT ISZERO PUSH2 0x330 JUMPI PUSH2 0x32F PUSH2 0x20F JUMP JUMPDEST JUMPDEST PUSH0 PUSH2 0x33D DUP11 DUP3 DUP12 ADD PUSH2 0x229 JUMP JUMPDEST SWAP8 POP POP PUSH1 0x20 PUSH2 0x34E DUP11 DUP3 DUP12 ADD PUSH2 0x25F JUMP JUMPDEST SWAP7 POP POP PUSH1 0x40 PUSH2 0x35F DUP11 DUP3 DUP12 ADD PUSH2 0x296 JUMP JUMPDEST SWAP6 POP POP PUSH1 0x60 PUSH2 0x370 DUP11 DUP3 DUP12 ADD PUSH2 0x296 JUMP JUMPDEST SWAP5 POP POP PUSH1 0x80 PUSH2 0x381 DUP11 DUP3 DUP12 ADD PUSH2 0x296 JUMP JUMPDEST SWAP4 POP POP PUSH1 0xA0 PUSH2 0x392 DUP11 DUP3 DUP12 ADD PUSH2 0x2CC JUMP JUMPDEST SWAP3 POP POP PUSH1 0xC0 PUSH2 0x3A3 DUP11 DUP3 DUP12 ADD PUSH2 0x301 JUMP JUMPDEST SWAP2 POP POP SWAP3 SWAP6 SWAP9 SWAP2 SWAP5 SWAP8 POP SWAP3 SWAP6 POP JUMP JUMPDEST PUSH32 0x4E487B7100000000000000000000000000000000000000000000000000000000 PUSH0 MSTORE PUSH1 0x11 PUSH1 0x4 MSTORE PUSH1 0x24 PUSH0 REVERT JUMPDEST PUSH0 DUP2 PUSH1 0x1 SHR SWAP1 POP SWAP2 SWAP1 POP JUMP JUMPDEST PUSH0 PUSH0 DUP3 SWAP2 POP DUP4 SWAP1 POP JUMPDEST PUSH1 0x1 DUP6 GT ISZERO PUSH2 0x434 JUMPI DUP1 DUP7 DIV DUP2 GT ISZERO PUSH2 0x410 JUMPI PUSH2 0x40F PUSH2 0x3B2 JUMP JUMPDEST JUMPDEST PUSH1 0x1 DUP6 AND ISZERO PUSH2 0x41F JUMPI DUP1 DUP3 MUL SWAP2 POP JUMPDEST DUP1 DUP2 MUL SWAP1 POP PUSH2 0x42D DUP6 PUSH2 0x3DF JUMP JUMPDEST SWAP5 POP PUSH2 0x3F4 JUMP JUMPDEST SWAP5 POP SWAP5 SWAP3 POP POP POP JUMP JUMPDEST PUSH0 DUP3 PUSH2 0x44C JUMPI PUSH1 0x1 SWAP1 POP PUSH2 0x507 JUMP JUMPDEST DUP2 PUSH2 0x459 JUMPI PUSH0 SWAP1 POP PUSH2 0x507 JUMP JUMPDEST DUP2 PUSH1 0x1 DUP2 EQ PUSH2 0x46F JUMPI PUSH1 0x2 DUP2 EQ PUSH2 0x479 JUMPI PUSH2 0x4A8 JUMP JUMPDEST PUSH1 0x1 SWAP2 POP POP PUSH2 0x507 JUMP JUMPDEST PUSH1 0xFF DUP5 GT ISZERO PUSH2 0x48B JUMPI PUSH2 0x48A PUSH2 0x3B2 JUMP JUMPDEST JUMPDEST DUP4 PUSH1 0x2 EXP SWAP2 POP DUP5 DUP3 GT ISZERO PUSH2 0x4A2 JUMPI PUSH2 0x4A1 PUSH2 0x3B2 JUMP JUMPDEST JUMPDEST POP PUSH2 0x507 JUMP JUMPDEST POP PUSH1 0x20 DUP4 LT PUSH2 0x133 DUP4 LT AND PUSH1 0x4E DUP5 LT PUSH1 0xB DUP5 LT AND OR ISZERO PUSH2 0x4DD JUMPI DUP3 DUP3 EXP SWAP1 POP DUP4 DUP2 GT ISZERO PUSH2 0x4D8 JUMPI PUSH2 0x4D7 PUSH2 0x3B2 JUMP JUMPDEST JUMPDEST PUSH2 0x507 JUMP JUMPDEST PUSH2 0x4EA DUP5 DUP5 DUP5 PUSH1 0x1 PUSH2 0x3EB JUMP JUMPDEST SWAP3 POP SWAP1 POP DUP2 DUP5 DIV DUP2 GT ISZERO PUSH2 0x501 JUMPI PUSH2 0x500 PUSH2 0x3B2 JUMP JUMPDEST JUMPDEST DUP2 DUP2 MUL SWAP1 POP JUMPDEST SWAP4 SWAP3 POP POP POP JUMP JUMPDEST PUSH0 PUSH2 0x518 DUP3 PUSH2 0x1DE JUMP JUMPDEST SWAP2 POP PUSH2 0x523 DUP4 PUSH2 0x2AA JUMP JUMPDEST SWAP3 POP PUSH2 0x550 PUSH32 0xFFFFFFFFFFFFFFFFFFFFFFFFFFFFFFFFFFFFFFFFFFFFFFFFFFFFFFFFFFFFFFFF DUP5 DUP5 PUSH2 0x43D JUMP JUMPDEST SWAP1 POP SWAP3 SWAP2 POP POP JUMP JUMPDEST PUSH32 0x4E487B7100000000000000000000000000000000000000000000000000000000 PUSH0 MSTORE PUSH1 0x12 PUSH1 0x4 MSTORE PUSH1 0x24 PUSH0 REVERT JUMPDEST PUSH0 PUSH2 0x58F DUP3 PUSH2 0x1DE JUMP JUMPDEST SWAP2 POP PUSH2 0x59A DUP4 PUSH2 0x1DE JUMP JUMPDEST SWAP3 POP DUP3 PUSH2 0x5AA JUMPI PUSH2 0x5A9 PUSH2 0x558 JUMP JUMPDEST JUMPDEST DUP3 DUP3 DIV SWAP1 POP SWAP3 SWAP2 POP POP JUMP INVALID LOG2 PUSH5 0x6970667358 0x22 SLT KECCAK256 0x2D EXTCODEHASH 0xE8 SWAP3 EXTCODECOPY 0xC7 CALLDATALOAD 0xCA 0x2A 0xC3 0xBB RETURNDATASIZE 0x2F 0xEB 0xFC CALLER PUSH21 0x7247ED18E8B191A596DBD301F92E164736F6C6343 STOP ADDMOD 0x1E STOP CALLER "
				},
				"gasEstimates": {
					"creation": {
						"codeDepositCost": "1478400",
						"executionCost": "infinite",
						"totalCost": "infinite"
					},
					"external": {
						"TOTAL_SUPPLY()": "436",
						"allowance(address,address)": "infinite",
						"approve(address,uint256)": "infinite",
						"balanceOf(address)": "2918",
						"balanceOfUser(address)": "2938",
						"compliance()": "447",
						"decimals()": "382",
						"freezableContract()": "infinite",
						"getCurrentPrice()": "infinite",
						"getFrozenTokens(address)": "752",
						"identityRegistry()": "469",
						"isFrozen(address)": "infinite",
						"mint(address,uint256)": "infinite",
						"mintedAmount()": "2515",
						"name()": "infinite",
						"onchainID()": "468",
						"owner()": "2604",
						"paused()": "383",
						"priceOracle()": "infinite",
						"renounceOwnership()": "infinite",
						"symbol()": "infinite",
						"totalSupply()": "2566",
						"transfer(address,uint256)": "infinite",
						"transferFrom(address,address,uint256)": "infinite",
						"transferOwnership(address)": "infinite",
						"version()": "infinite",
						"whitelistContract()": "infinite"
					}
				},
				"methodIdentifiers": {
					"TOTAL_SUPPLY()": "902d55a5",
					"allowance(address,address)": "dd62ed3e",
					"approve(address,uint256)": "095ea7b3",
					"balanceOf(address)": "70a08231",
					"balanceOfUser(address)": "12cae7af",
					"compliance()": "6290865d",
					"decimals()": "313ce567",
					"freezableContract()": "56dd475a",
					"getCurrentPrice()": "eb91d37e",
					"getFrozenTokens(address)": "158b1a57",
					"identityRegistry()": "134e18f4",
					"isFrozen(address)": "e5839836",
					"mint(address,uint256)": "40c10f19",
					"mintedAmount()": "2d380242",
					"name()": "06fdde03",
					"onchainID()": "aba63705",
					"owner()": "8da5cb5b",
					"paused()": "5c975abb",
					"priceOracle()": "2630c12f",
					"renounceOwnership()": "715018a6",
					"symbol()": "95d89b41",
					"totalSupply()": "18160ddd",
					"transfer(address,uint256)": "a9059cbb",
					"transferFrom(address,address,uint256)": "23b872dd",
					"transferOwnership(address)": "f2fde38b",
					"version()": "54fd4d50",
					"whitelistContract()": "84900b04"
				}
			},
			"storageLayout": {
				"storage": [
					{
						"astId": 279,
						"contract": "contracts/CCK/Token/CCKToken_flattened.sol:CCKToken",
						"label": "_balances",
						"offset": 0,
						"slot": "0",
						"type": "t_mapping(t_address,t_uint256)"
					},
					{
						"astId": 285,
						"contract": "contracts/CCK/Token/CCKToken_flattened.sol:CCKToken",
						"label": "_allowances",
						"offset": 0,
						"slot": "1",
						"type": "t_mapping(t_address,t_mapping(t_address,t_uint256))"
					},
					{
						"astId": 287,
						"contract": "contracts/CCK/Token/CCKToken_flattened.sol:CCKToken",
						"label": "_totalSupply",
						"offset": 0,
						"slot": "2",
						"type": "t_uint256"
					},
					{
						"astId": 289,
						"contract": "contracts/CCK/Token/CCKToken_flattened.sol:CCKToken",
						"label": "_name",
						"offset": 0,
						"slot": "3",
						"type": "t_string_storage"
					},
					{
						"astId": 291,
						"contract": "contracts/CCK/Token/CCKToken_flattened.sol:CCKToken",
						"label": "_symbol",
						"offset": 0,
						"slot": "4",
						"type": "t_string_storage"
					},
					{
						"astId": 777,
						"contract": "contracts/CCK/Token/CCKToken_flattened.sol:CCKToken",
						"label": "_owner",
						"offset": 0,
						"slot": "5",
						"type": "t_address"
					},
					{
						"astId": 1555,
						"contract": "contracts/CCK/Token/CCKToken_flattened.sol:CCKToken",
						"label": "mintedAmount",
						"offset": 0,
						"slot": "6",
						"type": "t_uint256"
					},
					{
						"astId": 1558,
						"contract": "contracts/CCK/Token/CCKToken_flattened.sol:CCKToken",
						"label": "whitelistContract",
						"offset": 0,
						"slot": "7",
						"type": "t_contract(Whitelist)962"
					},
					{
						"astId": 1561,
						"contract": "contracts/CCK/Token/CCKToken_flattened.sol:CCKToken",
						"label": "freezableContract",
						"offset": 0,
						"slot": "8",
						"type": "t_contract(Freezable)1008"
					},
					{
						"astId": 1564,
						"contract": "contracts/CCK/Token/CCKToken_flattened.sol:CCKToken",
						"label": "priceOracle",
						"offset": 0,
						"slot": "9",
						"type": "t_contract(PriceOracle)1489"
					}
				],
				"types": {
					"t_address": {
						"encoding": "inplace",
						"label": "address",
						"numberOfBytes": "20"
					},
					"t_contract(Freezable)1008": {
						"encoding": "inplace",
						"label": "contract Freezable",
						"numberOfBytes": "20"
					},
					"t_contract(PriceOracle)1489": {
						"encoding": "inplace",
						"label": "contract PriceOracle",
						"numberOfBytes": "20"
					},
					"t_contract(Whitelist)962": {
						"encoding": "inplace",
						"label": "contract Whitelist",
						"numberOfBytes": "20"
					},
					"t_mapping(t_address,t_mapping(t_address,t_uint256))": {
						"encoding": "mapping",
						"key": "t_address",
						"label": "mapping(address => mapping(address => uint256))",
						"numberOfBytes": "32",
						"value": "t_mapping(t_address,t_uint256)"
					},
					"t_mapping(t_address,t_uint256)": {
						"encoding": "mapping",
						"key": "t_address",
						"label": "mapping(address => uint256)",
						"numberOfBytes": "32",
						"value": "t_uint256"
					},
					"t_string_storage": {
						"encoding": "bytes",
						"label": "string",
						"numberOfBytes": "32"
					},
					"t_uint256": {
						"encoding": "inplace",
						"label": "uint256",
						"numberOfBytes": "32"
					}
				}
			},
			"userdoc": {
				"kind": "user",
				"methods": {},
				"version": 1
			}
		}
	}
}