{
	"contracts/ces/test2.sol": {
		"CCTTransfer": {
			"abi": [
				{
					"inputs": [
						{
							"internalType": "address",
							"name": "_cctTokenAddress",
							"type": "address"
						},
						{
							"internalType": "address",
							"name": "_targetAddress",
							"type": "address"
						}
					],
					"stateMutability": "nonpayable",
					"type": "constructor"
				},
				{
					"anonymous": false,
					"inputs": [
						{
							"indexed": true,
							"internalType": "address",
							"name": "oldAddress",
							"type": "address"
						},
						{
							"indexed": true,
							"internalType": "address",
							"name": "newAddress",
							"type": "address"
						}
					],
					"name": "TargetAddressUpdated",
					"type": "event"
				},
				{
					"anonymous": false,
					"inputs": [
						{
							"indexed": true,
							"internalType": "address",
							"name": "sender",
							"type": "address"
						},
						{
							"indexed": false,
							"internalType": "uint256",
							"name": "amount",
							"type": "uint256"
						},
						{
							"indexed": true,
							"internalType": "address",
							"name": "target",
							"type": "address"
						}
					],
					"name": "TokensTransferred",
					"type": "event"
				},
				{
					"inputs": [],
					"name": "cctToken",
					"outputs": [
						{
							"internalType": "contract IERC20",
							"name": "",
							"type": "address"
						}
					],
					"stateMutability": "view",
					"type": "function"
				},
				{
					"inputs": [],
					"name": "owner",
					"outputs": [
						{
							"internalType": "address",
							"name": "",
							"type": "address"
						}
					],
					"stateMutability": "view",
					"type": "function"
				},
				{
					"inputs": [],
					"name": "targetAddress",
					"outputs": [
						{
							"internalType": "address",
							"name": "",
							"type": "address"
						}
					],
					"stateMutability": "view",
					"type": "function"
				},
				{
					"inputs": [
						{
							"internalType": "uint256",
							"name": "amount",
							"type": "uint256"
						}
					],
					"name": "transferTokens",
					"outputs": [],
					"stateMutability": "nonpayable",
					"type": "function"
				},
				{
					"inputs": [
						{
							"internalType": "address",
							"name": "newTargetAddress",
							"type": "address"
						}
					],
					"name": "updateTargetAddress",
					"outputs": [],
					"stateMutability": "nonpayable",
					"type": "function"
				}
			],
			"devdoc": {
				"kind": "dev",
				"methods": {},
				"version": 1
			},
			"evm": {
				"assembly": "    /* \"contracts/ces/test2.sol\":120:2239  contract CCTTransfer {... */\n  mstore(0x40, 0xc0)\n    /* \"contracts/ces/test2.sol\":654:989  constructor(address _cctTokenAddress, address _targetAddress) {... */\n  callvalue\n  dup1\n  iszero\n  tag_1\n  jumpi\n  revert(0x00, 0x00)\ntag_1:\n  pop\n  mload(0x40)\n  sub(codesize, bytecodeSize)\n  dup1\n  bytecodeSize\n  dup4\n  codecopy\n  dup2\n  dup2\n  add\n  0x40\n  mstore\n  dup2\n  add\n  swap1\n  tag_2\n  swap2\n  swap1\n  tag_3\n  jump\t// in\ntag_2:\n    /* \"contracts/ces/test2.sol\":763:764  0 */\n  0x00\n    /* \"contracts/ces/test2.sol\":735:765  _cctTokenAddress != address(0) */\n  0xffffffffffffffffffffffffffffffffffffffff\n  and\n    /* \"contracts/ces/test2.sol\":735:751  _cctTokenAddress */\n  dup3\n    /* \"contracts/ces/test2.sol\":735:765  _cctTokenAddress != address(0) */\n  0xffffffffffffffffffffffffffffffffffffffff\n  and\n  sub\n    /* \"contracts/ces/test2.sol\":727:791  require(_cctTokenAddress != address(0), \"Invalid token address\") */\n  tag_6\n  jumpi\n  mload(0x40)\n  0x08c379a000000000000000000000000000000000000000000000000000000000\n  dup2\n  mstore\n  0x04\n  add\n  tag_7\n  swap1\n  tag_8\n  jump\t// in\ntag_7:\n  mload(0x40)\n  dup1\n  swap2\n  sub\n  swap1\n  revert\ntag_6:\n    /* \"contracts/ces/test2.sol\":836:837  0 */\n  0x00\n    /* \"contracts/ces/test2.sol\":810:838  _targetAddress != address(0) */\n  0xffffffffffffffffffffffffffffffffffffffff\n  and\n    /* \"contracts/ces/test2.sol\":810:824  _targetAddress */\n  dup2\n    /* \"contracts/ces/test2.sol\":810:838  _targetAddress != address(0) */\n  0xffffffffffffffffffffffffffffffffffffffff\n  and\n  sub\n    /* \"contracts/ces/test2.sol\":802:865  require(_targetAddress != address(0), \"Invalid target address\") */\n  tag_9\n  jumpi\n  mload(0x40)\n  0x08c379a000000000000000000000000000000000000000000000000000000000\n  dup2\n  mstore\n  0x04\n  add\n  tag_10\n  swap1\n  tag_11\n  jump\t// in\ntag_10:\n  mload(0x40)\n  dup1\n  swap2\n  sub\n  swap1\n  revert\ntag_9:\n    /* \"contracts/ces/test2.sol\":894:910  _cctTokenAddress */\n  dup2\n    /* \"contracts/ces/test2.sol\":876:911  cctToken = IERC20(_cctTokenAddress) */\n  0xffffffffffffffffffffffffffffffffffffffff\n  and\n  0x80\n  dup2\n  0xffffffffffffffffffffffffffffffffffffffff\n  and\n  dup2\n  mstore\n  pop\n  pop\n    /* \"contracts/ces/test2.sol\":938:952  _targetAddress */\n  dup1\n    /* \"contracts/ces/test2.sol\":922:935  targetAddress */\n  0x00\n  0x00\n    /* \"contracts/ces/test2.sol\":922:952  targetAddress = _targetAddress */\n  0x0100\n  exp\n  dup2\n  sload\n  dup2\n  0xffffffffffffffffffffffffffffffffffffffff\n  mul\n  not\n  and\n  swap1\n  dup4\n  0xffffffffffffffffffffffffffffffffffffffff\n  and\n  mul\n  or\n  swap1\n  sstore\n  pop\n    /* \"contracts/ces/test2.sol\":971:981  msg.sender */\n  caller\n    /* \"contracts/ces/test2.sol\":963:981  owner = msg.sender */\n  0xffffffffffffffffffffffffffffffffffffffff\n  and\n  0xa0\n  dup2\n  0xffffffffffffffffffffffffffffffffffffffff\n  and\n  dup2\n  mstore\n  pop\n  pop\n    /* \"contracts/ces/test2.sol\":654:989  constructor(address _cctTokenAddress, address _targetAddress) {... */\n  pop\n  pop\n    /* \"contracts/ces/test2.sol\":120:2239  contract CCTTransfer {... */\n  jump(tag_12)\n    /* \"#utility.yul\":88:205   */\ntag_14:\n    /* \"#utility.yul\":197:198   */\n  0x00\n    /* \"#utility.yul\":194:195   */\n  0x00\n    /* \"#utility.yul\":187:199   */\n  revert\n    /* \"#utility.yul\":334:460   */\ntag_16:\n    /* \"#utility.yul\":371:378   */\n  0x00\n    /* \"#utility.yul\":411:453   */\n  0xffffffffffffffffffffffffffffffffffffffff\n    /* \"#utility.yul\":404:409   */\n  dup3\n    /* \"#utility.yul\":400:454   */\n  and\n    /* \"#utility.yul\":389:454   */\n  swap1\n  pop\n    /* \"#utility.yul\":334:460   */\n  swap2\n  swap1\n  pop\n  jump\t// out\n    /* \"#utility.yul\":466:562   */\ntag_17:\n    /* \"#utility.yul\":503:510   */\n  0x00\n    /* \"#utility.yul\":532:556   */\n  tag_31\n    /* \"#utility.yul\":550:555   */\n  dup3\n    /* \"#utility.yul\":532:556   */\n  tag_16\n  jump\t// in\ntag_31:\n    /* \"#utility.yul\":521:556   */\n  swap1\n  pop\n    /* \"#utility.yul\":466:562   */\n  swap2\n  swap1\n  pop\n  jump\t// out\n    /* \"#utility.yul\":568:690   */\ntag_18:\n    /* \"#utility.yul\":641:665   */\n  tag_33\n    /* \"#utility.yul\":659:664   */\n  dup2\n    /* \"#utility.yul\":641:665   */\n  tag_17\n  jump\t// in\ntag_33:\n    /* \"#utility.yul\":634:639   */\n  dup2\n    /* \"#utility.yul\":631:666   */\n  eq\n    /* \"#utility.yul\":621:684   */\n  tag_34\n  jumpi\n    /* \"#utility.yul\":680:681   */\n  0x00\n    /* \"#utility.yul\":677:678   */\n  0x00\n    /* \"#utility.yul\":670:682   */\n  revert\n    /* \"#utility.yul\":621:684   */\ntag_34:\n    /* \"#utility.yul\":568:690   */\n  pop\n  jump\t// out\n    /* \"#utility.yul\":696:839   */\ntag_19:\n    /* \"#utility.yul\":753:758   */\n  0x00\n    /* \"#utility.yul\":784:790   */\n  dup2\n    /* \"#utility.yul\":778:791   */\n  mload\n    /* \"#utility.yul\":769:791   */\n  swap1\n  pop\n    /* \"#utility.yul\":800:833   */\n  tag_36\n    /* \"#utility.yul\":827:832   */\n  dup2\n    /* \"#utility.yul\":800:833   */\n  tag_18\n  jump\t// in\ntag_36:\n    /* \"#utility.yul\":696:839   */\n  swap3\n  swap2\n  pop\n  pop\n  jump\t// out\n    /* \"#utility.yul\":845:1352   */\ntag_3:\n    /* \"#utility.yul\":924:930   */\n  0x00\n    /* \"#utility.yul\":932:938   */\n  0x00\n    /* \"#utility.yul\":981:983   */\n  0x40\n    /* \"#utility.yul\":969:978   */\n  dup4\n    /* \"#utility.yul\":960:967   */\n  dup6\n    /* \"#utility.yul\":956:979   */\n  sub\n    /* \"#utility.yul\":952:984   */\n  slt\n    /* \"#utility.yul\":949:1068   */\n  iszero\n  tag_38\n  jumpi\n    /* \"#utility.yul\":987:1066   */\n  tag_39\n  tag_14\n  jump\t// in\ntag_39:\n    /* \"#utility.yul\":949:1068   */\ntag_38:\n    /* \"#utility.yul\":1107:1108   */\n  0x00\n    /* \"#utility.yul\":1132:1196   */\n  tag_40\n    /* \"#utility.yul\":1188:1195   */\n  dup6\n    /* \"#utility.yul\":1179:1185   */\n  dup3\n    /* \"#utility.yul\":1168:1177   */\n  dup7\n    /* \"#utility.yul\":1164:1186   */\n  add\n    /* \"#utility.yul\":1132:1196   */\n  tag_19\n  jump\t// in\ntag_40:\n    /* \"#utility.yul\":1122:1196   */\n  swap3\n  pop\n    /* \"#utility.yul\":1078:1206   */\n  pop\n    /* \"#utility.yul\":1245:1247   */\n  0x20\n    /* \"#utility.yul\":1271:1335   */\n  tag_41\n    /* \"#utility.yul\":1327:1334   */\n  dup6\n    /* \"#utility.yul\":1318:1324   */\n  dup3\n    /* \"#utility.yul\":1307:1316   */\n  dup7\n    /* \"#utility.yul\":1303:1325   */\n  add\n    /* \"#utility.yul\":1271:1335   */\n  tag_19\n  jump\t// in\ntag_41:\n    /* \"#utility.yul\":1261:1335   */\n  swap2\n  pop\n    /* \"#utility.yul\":1216:1345   */\n  pop\n    /* \"#utility.yul\":845:1352   */\n  swap3\n  pop\n  swap3\n  swap1\n  pop\n  jump\t// out\n    /* \"#utility.yul\":1358:1527   */\ntag_20:\n    /* \"#utility.yul\":1442:1453   */\n  0x00\n    /* \"#utility.yul\":1476:1482   */\n  dup3\n    /* \"#utility.yul\":1471:1474   */\n  dup3\n    /* \"#utility.yul\":1464:1483   */\n  mstore\n    /* \"#utility.yul\":1516:1520   */\n  0x20\n    /* \"#utility.yul\":1511:1514   */\n  dup3\n    /* \"#utility.yul\":1507:1521   */\n  add\n    /* \"#utility.yul\":1492:1521   */\n  swap1\n  pop\n    /* \"#utility.yul\":1358:1527   */\n  swap3\n  swap2\n  pop\n  pop\n  jump\t// out\n    /* \"#utility.yul\":1533:1704   */\ntag_21:\n    /* \"#utility.yul\":1673:1696   */\n  0x496e76616c696420746f6b656e20616464726573730000000000000000000000\n    /* \"#utility.yul\":1669:1670   */\n  0x00\n    /* \"#utility.yul\":1661:1667   */\n  dup3\n    /* \"#utility.yul\":1657:1671   */\n  add\n    /* \"#utility.yul\":1650:1697   */\n  mstore\n    /* \"#utility.yul\":1533:1704   */\n  pop\n  jump\t// out\n    /* \"#utility.yul\":1710:2076   */\ntag_22:\n    /* \"#utility.yul\":1852:1855   */\n  0x00\n    /* \"#utility.yul\":1873:1940   */\n  tag_45\n    /* \"#utility.yul\":1937:1939   */\n  0x15\n    /* \"#utility.yul\":1932:1935   */\n  dup4\n    /* \"#utility.yul\":1873:1940   */\n  tag_20\n  jump\t// in\ntag_45:\n    /* \"#utility.yul\":1866:1940   */\n  swap2\n  pop\n    /* \"#utility.yul\":1949:2042   */\n  tag_46\n    /* \"#utility.yul\":2038:2041   */\n  dup3\n    /* \"#utility.yul\":1949:2042   */\n  tag_21\n  jump\t// in\ntag_46:\n    /* \"#utility.yul\":2067:2069   */\n  0x20\n    /* \"#utility.yul\":2062:2065   */\n  dup3\n    /* \"#utility.yul\":2058:2070   */\n  add\n    /* \"#utility.yul\":2051:2070   */\n  swap1\n  pop\n    /* \"#utility.yul\":1710:2076   */\n  swap2\n  swap1\n  pop\n  jump\t// out\n    /* \"#utility.yul\":2082:2501   */\ntag_8:\n    /* \"#utility.yul\":2248:2252   */\n  0x00\n    /* \"#utility.yul\":2286:2288   */\n  0x20\n    /* \"#utility.yul\":2275:2284   */\n  dup3\n    /* \"#utility.yul\":2271:2289   */\n  add\n    /* \"#utility.yul\":2263:2289   */\n  swap1\n  pop\n    /* \"#utility.yul\":2335:2344   */\n  dup2\n    /* \"#utility.yul\":2329:2333   */\n  dup2\n    /* \"#utility.yul\":2325:2345   */\n  sub\n    /* \"#utility.yul\":2321:2322   */\n  0x00\n    /* \"#utility.yul\":2310:2319   */\n  dup4\n    /* \"#utility.yul\":2306:2323   */\n  add\n    /* \"#utility.yul\":2299:2346   */\n  mstore\n    /* \"#utility.yul\":2363:2494   */\n  tag_48\n    /* \"#utility.yul\":2489:2493   */\n  dup2\n    /* \"#utility.yul\":2363:2494   */\n  tag_22\n  jump\t// in\ntag_48:\n    /* \"#utility.yul\":2355:2494   */\n  swap1\n  pop\n    /* \"#utility.yul\":2082:2501   */\n  swap2\n  swap1\n  pop\n  jump\t// out\n    /* \"#utility.yul\":2507:2679   */\ntag_23:\n    /* \"#utility.yul\":2647:2671   */\n  0x496e76616c696420746172676574206164647265737300000000000000000000\n    /* \"#utility.yul\":2643:2644   */\n  0x00\n    /* \"#utility.yul\":2635:2641   */\n  dup3\n    /* \"#utility.yul\":2631:2645   */\n  add\n    /* \"#utility.yul\":2624:2672   */\n  mstore\n    /* \"#utility.yul\":2507:2679   */\n  pop\n  jump\t// out\n    /* \"#utility.yul\":2685:3051   */\ntag_24:\n    /* \"#utility.yul\":2827:2830   */\n  0x00\n    /* \"#utility.yul\":2848:2915   */\n  tag_51\n    /* \"#utility.yul\":2912:2914   */\n  0x16\n    /* \"#utility.yul\":2907:2910   */\n  dup4\n    /* \"#utility.yul\":2848:2915   */\n  tag_20\n  jump\t// in\ntag_51:\n    /* \"#utility.yul\":2841:2915   */\n  swap2\n  pop\n    /* \"#utility.yul\":2924:3017   */\n  tag_52\n    /* \"#utility.yul\":3013:3016   */\n  dup3\n    /* \"#utility.yul\":2924:3017   */\n  tag_23\n  jump\t// in\ntag_52:\n    /* \"#utility.yul\":3042:3044   */\n  0x20\n    /* \"#utility.yul\":3037:3040   */\n  dup3\n    /* \"#utility.yul\":3033:3045   */\n  add\n    /* \"#utility.yul\":3026:3045   */\n  swap1\n  pop\n    /* \"#utility.yul\":2685:3051   */\n  swap2\n  swap1\n  pop\n  jump\t// out\n    /* \"#utility.yul\":3057:3476   */\ntag_11:\n    /* \"#utility.yul\":3223:3227   */\n  0x00\n    /* \"#utility.yul\":3261:3263   */\n  0x20\n    /* \"#utility.yul\":3250:3259   */\n  dup3\n    /* \"#utility.yul\":3246:3264   */\n  add\n    /* \"#utility.yul\":3238:3264   */\n  swap1\n  pop\n    /* \"#utility.yul\":3310:3319   */\n  dup2\n    /* \"#utility.yul\":3304:3308   */\n  dup2\n    /* \"#utility.yul\":3300:3320   */\n  sub\n    /* \"#utility.yul\":3296:3297   */\n  0x00\n    /* \"#utility.yul\":3285:3294   */\n  dup4\n    /* \"#utility.yul\":3281:3298   */\n  add\n    /* \"#utility.yul\":3274:3321   */\n  mstore\n    /* \"#utility.yul\":3338:3469   */\n  tag_54\n    /* \"#utility.yul\":3464:3468   */\n  dup2\n    /* \"#utility.yul\":3338:3469   */\n  tag_24\n  jump\t// in\ntag_54:\n    /* \"#utility.yul\":3330:3469   */\n  swap1\n  pop\n    /* \"#utility.yul\":3057:3476   */\n  swap2\n  swap1\n  pop\n  jump\t// out\n    /* \"contracts/ces/test2.sol\":120:2239  contract CCTTransfer {... */\ntag_12:\n  mload(0x80)\n  mload(0xa0)\n  codecopy(0x00, dataOffset(sub_0), dataSize(sub_0))\n  0x00\n  assignImmutable(\"0x845e9c18ca148a712f01bf14c91c3e2fe352eabe86c44817e3f33b63f585a343\")\n  0x00\n  assignImmutable(\"0x17157e479612de6088d957c64aca858964825e74089b3c7dacc26409e6d53000\")\n  return(0x00, dataSize(sub_0))\nstop\n\nsub_0: assembly {\n        /* \"contracts/ces/test2.sol\":120:2239  contract CCTTransfer {... */\n      mstore(0x40, 0x80)\n      callvalue\n      dup1\n      iszero\n      tag_1\n      jumpi\n      revert(0x00, 0x00)\n    tag_1:\n      pop\n      jumpi(tag_2, lt(calldatasize, 0x04))\n      shr(0xe0, calldataload(0x00))\n      dup1\n      0x5210eb56\n      eq\n      tag_3\n      jumpi\n      dup1\n      0x7603efb9\n      eq\n      tag_4\n      jumpi\n      dup1\n      0x8da5cb5b\n      eq\n      tag_5\n      jumpi\n      dup1\n      0xe2379f29\n      eq\n      tag_6\n      jumpi\n      dup1\n      0xfd9a4e61\n      eq\n      tag_7\n      jumpi\n    tag_2:\n      revert(0x00, 0x00)\n        /* \"contracts/ces/test2.sol\":148:176  address public targetAddress */\n    tag_3:\n      tag_8\n      tag_9\n      jump\t// in\n    tag_8:\n      mload(0x40)\n      tag_10\n      swap2\n      swap1\n      tag_11\n      jump\t// in\n    tag_10:\n      mload(0x40)\n      dup1\n      swap2\n      sub\n      swap1\n      return\n        /* \"contracts/ces/test2.sol\":1722:2236  function updateTargetAddress(address newTargetAddress) external {... */\n    tag_4:\n      tag_12\n      0x04\n      dup1\n      calldatasize\n      sub\n      dup2\n      add\n      swap1\n      tag_13\n      swap2\n      swap1\n      tag_14\n      jump\t// in\n    tag_13:\n      tag_15\n      jump\t// in\n    tag_12:\n      stop\n        /* \"contracts/ces/test2.sol\":286:316  address public immutable owner */\n    tag_5:\n      tag_16\n      tag_17\n      jump\t// in\n    tag_16:\n      mload(0x40)\n      tag_18\n      swap2\n      swap1\n      tag_11\n      jump\t// in\n    tag_18:\n      mload(0x40)\n      dup1\n      swap2\n      sub\n      swap1\n      return\n        /* \"contracts/ces/test2.sol\":227:259  IERC20 public immutable cctToken */\n    tag_6:\n      tag_19\n      tag_20\n      jump\t// in\n    tag_19:\n      mload(0x40)\n      tag_21\n      swap2\n      swap1\n      tag_22\n      jump\t// in\n    tag_21:\n      mload(0x40)\n      dup1\n      swap2\n      sub\n      swap1\n      return\n        /* \"contracts/ces/test2.sol\":1053:1669  function transferTokens(uint256 amount) external {... */\n    tag_7:\n      tag_23\n      0x04\n      dup1\n      calldatasize\n      sub\n      dup2\n      add\n      swap1\n      tag_24\n      swap2\n      swap1\n      tag_25\n      jump\t// in\n    tag_24:\n      tag_26\n      jump\t// in\n    tag_23:\n      stop\n        /* \"contracts/ces/test2.sol\":148:176  address public targetAddress */\n    tag_9:\n      0x00\n      0x00\n      swap1\n      sload\n      swap1\n      0x0100\n      exp\n      swap1\n      div\n      0xffffffffffffffffffffffffffffffffffffffff\n      and\n      dup2\n      jump\t// out\n        /* \"contracts/ces/test2.sol\":1722:2236  function updateTargetAddress(address newTargetAddress) external {... */\n    tag_15:\n        /* \"contracts/ces/test2.sol\":1819:1824  owner */\n      immutable(\"0x845e9c18ca148a712f01bf14c91c3e2fe352eabe86c44817e3f33b63f585a343\")\n        /* \"contracts/ces/test2.sol\":1805:1824  msg.sender == owner */\n      0xffffffffffffffffffffffffffffffffffffffff\n      and\n        /* \"contracts/ces/test2.sol\":1805:1815  msg.sender */\n      caller\n        /* \"contracts/ces/test2.sol\":1805:1824  msg.sender == owner */\n      0xffffffffffffffffffffffffffffffffffffffff\n      and\n      eq\n        /* \"contracts/ces/test2.sol\":1797:1865  require(msg.sender == owner, \"Only owner can update target address\") */\n      tag_28\n      jumpi\n      mload(0x40)\n      0x08c379a000000000000000000000000000000000000000000000000000000000\n      dup2\n      mstore\n      0x04\n      add\n      tag_29\n      swap1\n      tag_30\n      jump\t// in\n    tag_29:\n      mload(0x40)\n      dup1\n      swap2\n      sub\n      swap1\n      revert\n    tag_28:\n        /* \"contracts/ces/test2.sol\":1912:1913  0 */\n      0x00\n        /* \"contracts/ces/test2.sol\":1884:1914  newTargetAddress != address(0) */\n      0xffffffffffffffffffffffffffffffffffffffff\n      and\n        /* \"contracts/ces/test2.sol\":1884:1900  newTargetAddress */\n      dup2\n        /* \"contracts/ces/test2.sol\":1884:1914  newTargetAddress != address(0) */\n      0xffffffffffffffffffffffffffffffffffffffff\n      and\n      sub\n        /* \"contracts/ces/test2.sol\":1876:1941  require(newTargetAddress != address(0), \"Invalid target address\") */\n      tag_31\n      jumpi\n      mload(0x40)\n      0x08c379a000000000000000000000000000000000000000000000000000000000\n      dup2\n      mstore\n      0x04\n      add\n      tag_32\n      swap1\n      tag_33\n      jump\t// in\n    tag_32:\n      mload(0x40)\n      dup1\n      swap2\n      sub\n      swap1\n      revert\n    tag_31:\n        /* \"contracts/ces/test2.sol\":1980:1993  targetAddress */\n      0x00\n      0x00\n      swap1\n      sload\n      swap1\n      0x0100\n      exp\n      swap1\n      div\n      0xffffffffffffffffffffffffffffffffffffffff\n      and\n        /* \"contracts/ces/test2.sol\":1960:1993  newTargetAddress != targetAddress */\n      0xffffffffffffffffffffffffffffffffffffffff\n      and\n        /* \"contracts/ces/test2.sol\":1960:1976  newTargetAddress */\n      dup2\n        /* \"contracts/ces/test2.sol\":1960:1993  newTargetAddress != targetAddress */\n      0xffffffffffffffffffffffffffffffffffffffff\n      and\n      sub\n        /* \"contracts/ces/test2.sol\":1952:2027  require(newTargetAddress != targetAddress, \"New address must be different\") */\n      tag_34\n      jumpi\n      mload(0x40)\n      0x08c379a000000000000000000000000000000000000000000000000000000000\n      dup2\n      mstore\n      0x04\n      add\n      tag_35\n      swap1\n      tag_36\n      jump\t// in\n    tag_35:\n      mload(0x40)\n      dup1\n      swap2\n      sub\n      swap1\n      revert\n    tag_34:\n        /* \"contracts/ces/test2.sol\":2040:2058  address oldAddress */\n      0x00\n        /* \"contracts/ces/test2.sol\":2061:2074  targetAddress */\n      0x00\n      0x00\n      swap1\n      sload\n      swap1\n      0x0100\n      exp\n      swap1\n      div\n      0xffffffffffffffffffffffffffffffffffffffff\n      and\n        /* \"contracts/ces/test2.sol\":2040:2074  address oldAddress = targetAddress */\n      swap1\n      pop\n        /* \"contracts/ces/test2.sol\":2101:2117  newTargetAddress */\n      dup2\n        /* \"contracts/ces/test2.sol\":2085:2098  targetAddress */\n      0x00\n      0x00\n        /* \"contracts/ces/test2.sol\":2085:2117  targetAddress = newTargetAddress */\n      0x0100\n      exp\n      dup2\n      sload\n      dup2\n      0xffffffffffffffffffffffffffffffffffffffff\n      mul\n      not\n      and\n      swap1\n      dup4\n      0xffffffffffffffffffffffffffffffffffffffff\n      and\n      mul\n      or\n      swap1\n      sstore\n      pop\n        /* \"contracts/ces/test2.sol\":2211:2227  newTargetAddress */\n      dup2\n        /* \"contracts/ces/test2.sol\":2178:2228  TargetAddressUpdated(oldAddress, newTargetAddress) */\n      0xffffffffffffffffffffffffffffffffffffffff\n      and\n        /* \"contracts/ces/test2.sol\":2199:2209  oldAddress */\n      dup2\n        /* \"contracts/ces/test2.sol\":2178:2228  TargetAddressUpdated(oldAddress, newTargetAddress) */\n      0xffffffffffffffffffffffffffffffffffffffff\n      and\n      0x862db0ac244a7c196ec4a30abf1b83cc045d2351899ef43b3d530d4e78949de3\n      mload(0x40)\n      mload(0x40)\n      dup1\n      swap2\n      sub\n      swap1\n      log3\n        /* \"contracts/ces/test2.sol\":1786:2236  {... */\n      pop\n        /* \"contracts/ces/test2.sol\":1722:2236  function updateTargetAddress(address newTargetAddress) external {... */\n      pop\n      jump\t// out\n        /* \"contracts/ces/test2.sol\":286:316  address public immutable owner */\n    tag_17:\n      immutable(\"0x845e9c18ca148a712f01bf14c91c3e2fe352eabe86c44817e3f33b63f585a343\")\n      dup2\n      jump\t// out\n        /* \"contracts/ces/test2.sol\":227:259  IERC20 public immutable cctToken */\n    tag_20:\n      immutable(\"0x17157e479612de6088d957c64aca858964825e74089b3c7dacc26409e6d53000\")\n      dup2\n      jump\t// out\n        /* \"contracts/ces/test2.sol\":1053:1669  function transferTokens(uint256 amount) external {... */\n    tag_26:\n        /* \"contracts/ces/test2.sol\":1130:1131  0 */\n      0x00\n        /* \"contracts/ces/test2.sol\":1121:1127  amount */\n      dup2\n        /* \"contracts/ces/test2.sol\":1121:1131  amount > 0 */\n      gt\n        /* \"contracts/ces/test2.sol\":1113:1165  require(amount > 0, \"Amount must be greater than 0\") */\n      tag_38\n      jumpi\n      mload(0x40)\n      0x08c379a000000000000000000000000000000000000000000000000000000000\n      dup2\n      mstore\n      0x04\n      add\n      tag_39\n      swap1\n      tag_40\n      jump\t// in\n    tag_39:\n      mload(0x40)\n      dup1\n      swap2\n      sub\n      swap1\n      revert\n    tag_38:\n        /* \"contracts/ces/test2.sol\":1246:1263  uint256 allowance */\n      0x00\n        /* \"contracts/ces/test2.sol\":1266:1274  cctToken */\n      immutable(\"0x17157e479612de6088d957c64aca858964825e74089b3c7dacc26409e6d53000\")\n        /* \"contracts/ces/test2.sol\":1266:1284  cctToken.allowance */\n      0xffffffffffffffffffffffffffffffffffffffff\n      and\n      0xdd62ed3e\n        /* \"contracts/ces/test2.sol\":1285:1295  msg.sender */\n      caller\n        /* \"contracts/ces/test2.sol\":1305:1309  this */\n      address\n        /* \"contracts/ces/test2.sol\":1266:1311  cctToken.allowance(msg.sender, address(this)) */\n      mload(0x40)\n      dup4\n      0xffffffff\n      and\n      0xe0\n      shl\n      dup2\n      mstore\n      0x04\n      add\n      tag_41\n      swap3\n      swap2\n      swap1\n      tag_42\n      jump\t// in\n    tag_41:\n      0x20\n      mload(0x40)\n      dup1\n      dup4\n      sub\n      dup2\n      dup7\n      gas\n      staticcall\n      iszero\n      dup1\n      iszero\n      tag_44\n      jumpi\n      returndatacopy(0x00, 0x00, returndatasize)\n      revert(0x00, returndatasize)\n    tag_44:\n      pop\n      pop\n      pop\n      pop\n      mload(0x40)\n      returndatasize\n      not(0x1f)\n      0x1f\n      dup3\n      add\n      and\n      dup3\n      add\n      dup1\n      0x40\n      mstore\n      pop\n      dup2\n      add\n      swap1\n      tag_45\n      swap2\n      swap1\n      tag_46\n      jump\t// in\n    tag_45:\n        /* \"contracts/ces/test2.sol\":1246:1311  uint256 allowance = cctToken.allowance(msg.sender, address(this)) */\n      swap1\n      pop\n        /* \"contracts/ces/test2.sol\":1343:1349  amount */\n      dup2\n        /* \"contracts/ces/test2.sol\":1330:1339  allowance */\n      dup2\n        /* \"contracts/ces/test2.sol\":1330:1349  allowance >= amount */\n      lt\n      iszero\n        /* \"contracts/ces/test2.sol\":1322:1376  require(allowance >= amount, \"Insufficient allowance\") */\n      tag_47\n      jumpi\n      mload(0x40)\n      0x08c379a000000000000000000000000000000000000000000000000000000000\n      dup2\n      mstore\n      0x04\n      add\n      tag_48\n      swap1\n      tag_49\n      jump\t// in\n    tag_48:\n      mload(0x40)\n      dup1\n      swap2\n      sub\n      swap1\n      revert\n    tag_47:\n        /* \"contracts/ces/test2.sol\":1443:1455  bool success */\n      0x00\n        /* \"contracts/ces/test2.sol\":1458:1466  cctToken */\n      immutable(\"0x17157e479612de6088d957c64aca858964825e74089b3c7dacc26409e6d53000\")\n        /* \"contracts/ces/test2.sol\":1458:1479  cctToken.transferFrom */\n      0xffffffffffffffffffffffffffffffffffffffff\n      and\n      0x23b872dd\n        /* \"contracts/ces/test2.sol\":1480:1490  msg.sender */\n      caller\n        /* \"contracts/ces/test2.sol\":1492:1505  targetAddress */\n      0x00\n      0x00\n      swap1\n      sload\n      swap1\n      0x0100\n      exp\n      swap1\n      div\n      0xffffffffffffffffffffffffffffffffffffffff\n      and\n        /* \"contracts/ces/test2.sol\":1507:1513  amount */\n      dup7\n        /* \"contracts/ces/test2.sol\":1458:1514  cctToken.transferFrom(msg.sender, targetAddress, amount) */\n      mload(0x40)\n      dup5\n      0xffffffff\n      and\n      0xe0\n      shl\n      dup2\n      mstore\n      0x04\n      add\n      tag_50\n      swap4\n      swap3\n      swap2\n      swap1\n      tag_51\n      jump\t// in\n    tag_50:\n      0x20\n      mload(0x40)\n      dup1\n      dup4\n      sub\n      dup2\n      0x00\n      dup8\n      gas\n      call\n      iszero\n      dup1\n      iszero\n      tag_53\n      jumpi\n      returndatacopy(0x00, 0x00, returndatasize)\n      revert(0x00, returndatasize)\n    tag_53:\n      pop\n      pop\n      pop\n      pop\n      mload(0x40)\n      returndatasize\n      not(0x1f)\n      0x1f\n      dup3\n      add\n      and\n      dup3\n      add\n      dup1\n      0x40\n      mstore\n      pop\n      dup2\n      add\n      swap1\n      tag_54\n      swap2\n      swap1\n      tag_55\n      jump\t// in\n    tag_54:\n        /* \"contracts/ces/test2.sol\":1443:1514  bool success = cctToken.transferFrom(msg.sender, targetAddress, amount) */\n      swap1\n      pop\n        /* \"contracts/ces/test2.sol\":1533:1540  success */\n      dup1\n        /* \"contracts/ces/test2.sol\":1525:1560  require(success, \"Transfer failed\") */\n      tag_56\n      jumpi\n      mload(0x40)\n      0x08c379a000000000000000000000000000000000000000000000000000000000\n      dup2\n      mstore\n      0x04\n      add\n      tag_57\n      swap1\n      tag_58\n      jump\t// in\n    tag_57:\n      mload(0x40)\n      dup1\n      swap2\n      sub\n      swap1\n      revert\n    tag_56:\n        /* \"contracts/ces/test2.sol\":1647:1660  targetAddress */\n      0x00\n      0x00\n      swap1\n      sload\n      swap1\n      0x0100\n      exp\n      swap1\n      div\n      0xffffffffffffffffffffffffffffffffffffffff\n      and\n        /* \"contracts/ces/test2.sol\":1609:1661  TokensTransferred(msg.sender, amount, targetAddress) */\n      0xffffffffffffffffffffffffffffffffffffffff\n      and\n        /* \"contracts/ces/test2.sol\":1627:1637  msg.sender */\n      caller\n        /* \"contracts/ces/test2.sol\":1609:1661  TokensTransferred(msg.sender, amount, targetAddress) */\n      0xffffffffffffffffffffffffffffffffffffffff\n      and\n      0x2dc85ecd41a2e25618af6e007abb3ce1ee081d7934fdb986d94c9cb2e0763bef\n        /* \"contracts/ces/test2.sol\":1639:1645  amount */\n      dup6\n        /* \"contracts/ces/test2.sol\":1609:1661  TokensTransferred(msg.sender, amount, targetAddress) */\n      mload(0x40)\n      tag_59\n      swap2\n      swap1\n      tag_60\n      jump\t// in\n    tag_59:\n      mload(0x40)\n      dup1\n      swap2\n      sub\n      swap1\n      log3\n        /* \"contracts/ces/test2.sol\":1102:1669  {... */\n      pop\n      pop\n        /* \"contracts/ces/test2.sol\":1053:1669  function transferTokens(uint256 amount) external {... */\n      pop\n      jump\t// out\n        /* \"#utility.yul\":7:133   */\n    tag_61:\n        /* \"#utility.yul\":44:51   */\n      0x00\n        /* \"#utility.yul\":84:126   */\n      0xffffffffffffffffffffffffffffffffffffffff\n        /* \"#utility.yul\":77:82   */\n      dup3\n        /* \"#utility.yul\":73:127   */\n      and\n        /* \"#utility.yul\":62:127   */\n      swap1\n      pop\n        /* \"#utility.yul\":7:133   */\n      swap2\n      swap1\n      pop\n      jump\t// out\n        /* \"#utility.yul\":139:235   */\n    tag_62:\n        /* \"#utility.yul\":176:183   */\n      0x00\n        /* \"#utility.yul\":205:229   */\n      tag_98\n        /* \"#utility.yul\":223:228   */\n      dup3\n        /* \"#utility.yul\":205:229   */\n      tag_61\n      jump\t// in\n    tag_98:\n        /* \"#utility.yul\":194:229   */\n      swap1\n      pop\n        /* \"#utility.yul\":139:235   */\n      swap2\n      swap1\n      pop\n      jump\t// out\n        /* \"#utility.yul\":241:359   */\n    tag_63:\n        /* \"#utility.yul\":328:352   */\n      tag_100\n        /* \"#utility.yul\":346:351   */\n      dup2\n        /* \"#utility.yul\":328:352   */\n      tag_62\n      jump\t// in\n    tag_100:\n        /* \"#utility.yul\":323:326   */\n      dup3\n        /* \"#utility.yul\":316:353   */\n      mstore\n        /* \"#utility.yul\":241:359   */\n      pop\n      pop\n      jump\t// out\n        /* \"#utility.yul\":365:587   */\n    tag_11:\n        /* \"#utility.yul\":458:462   */\n      0x00\n        /* \"#utility.yul\":496:498   */\n      0x20\n        /* \"#utility.yul\":485:494   */\n      dup3\n        /* \"#utility.yul\":481:499   */\n      add\n        /* \"#utility.yul\":473:499   */\n      swap1\n      pop\n        /* \"#utility.yul\":509:580   */\n      tag_102\n        /* \"#utility.yul\":577:578   */\n      0x00\n        /* \"#utility.yul\":566:575   */\n      dup4\n        /* \"#utility.yul\":562:579   */\n      add\n        /* \"#utility.yul\":553:559   */\n      dup5\n        /* \"#utility.yul\":509:580   */\n      tag_63\n      jump\t// in\n    tag_102:\n        /* \"#utility.yul\":365:587   */\n      swap3\n      swap2\n      pop\n      pop\n      jump\t// out\n        /* \"#utility.yul\":674:791   */\n    tag_65:\n        /* \"#utility.yul\":783:784   */\n      0x00\n        /* \"#utility.yul\":780:781   */\n      0x00\n        /* \"#utility.yul\":773:785   */\n      revert\n        /* \"#utility.yul\":920:1042   */\n    tag_67:\n        /* \"#utility.yul\":993:1017   */\n      tag_107\n        /* \"#utility.yul\":1011:1016   */\n      dup2\n        /* \"#utility.yul\":993:1017   */\n      tag_62\n      jump\t// in\n    tag_107:\n        /* \"#utility.yul\":986:991   */\n      dup2\n        /* \"#utility.yul\":983:1018   */\n      eq\n        /* \"#utility.yul\":973:1036   */\n      tag_108\n      jumpi\n        /* \"#utility.yul\":1032:1033   */\n      0x00\n        /* \"#utility.yul\":1029:1030   */\n      0x00\n        /* \"#utility.yul\":1022:1034   */\n      revert\n        /* \"#utility.yul\":973:1036   */\n    tag_108:\n        /* \"#utility.yul\":920:1042   */\n      pop\n      jump\t// out\n        /* \"#utility.yul\":1048:1187   */\n    tag_68:\n        /* \"#utility.yul\":1094:1099   */\n      0x00\n        /* \"#utility.yul\":1132:1138   */\n      dup2\n        /* \"#utility.yul\":1119:1139   */\n      calldataload\n        /* \"#utility.yul\":1110:1139   */\n      swap1\n      pop\n        /* \"#utility.yul\":1148:1181   */\n      tag_110\n        /* \"#utility.yul\":1175:1180   */\n      dup2\n        /* \"#utility.yul\":1148:1181   */\n      tag_67\n      jump\t// in\n    tag_110:\n        /* \"#utility.yul\":1048:1187   */\n      swap3\n      swap2\n      pop\n      pop\n      jump\t// out\n        /* \"#utility.yul\":1193:1522   */\n    tag_14:\n        /* \"#utility.yul\":1252:1258   */\n      0x00\n        /* \"#utility.yul\":1301:1303   */\n      0x20\n        /* \"#utility.yul\":1289:1298   */\n      dup3\n        /* \"#utility.yul\":1280:1287   */\n      dup5\n        /* \"#utility.yul\":1276:1299   */\n      sub\n        /* \"#utility.yul\":1272:1304   */\n      slt\n        /* \"#utility.yul\":1269:1388   */\n      iszero\n      tag_112\n      jumpi\n        /* \"#utility.yul\":1307:1386   */\n      tag_113\n      tag_65\n      jump\t// in\n    tag_113:\n        /* \"#utility.yul\":1269:1388   */\n    tag_112:\n        /* \"#utility.yul\":1427:1428   */\n      0x00\n        /* \"#utility.yul\":1452:1505   */\n      tag_114\n        /* \"#utility.yul\":1497:1504   */\n      dup5\n        /* \"#utility.yul\":1488:1494   */\n      dup3\n        /* \"#utility.yul\":1477:1486   */\n      dup6\n        /* \"#utility.yul\":1473:1495   */\n      add\n        /* \"#utility.yul\":1452:1505   */\n      tag_68\n      jump\t// in\n    tag_114:\n        /* \"#utility.yul\":1442:1505   */\n      swap2\n      pop\n        /* \"#utility.yul\":1398:1515   */\n      pop\n        /* \"#utility.yul\":1193:1522   */\n      swap3\n      swap2\n      pop\n      pop\n      jump\t// out\n        /* \"#utility.yul\":1528:1588   */\n    tag_69:\n        /* \"#utility.yul\":1556:1559   */\n      0x00\n        /* \"#utility.yul\":1577:1582   */\n      dup2\n        /* \"#utility.yul\":1570:1582   */\n      swap1\n      pop\n        /* \"#utility.yul\":1528:1588   */\n      swap2\n      swap1\n      pop\n      jump\t// out\n        /* \"#utility.yul\":1594:1736   */\n    tag_70:\n        /* \"#utility.yul\":1644:1653   */\n      0x00\n        /* \"#utility.yul\":1677:1730   */\n      tag_117\n        /* \"#utility.yul\":1695:1729   */\n      tag_118\n        /* \"#utility.yul\":1704:1728   */\n      tag_119\n        /* \"#utility.yul\":1722:1727   */\n      dup5\n        /* \"#utility.yul\":1704:1728   */\n      tag_61\n      jump\t// in\n    tag_119:\n        /* \"#utility.yul\":1695:1729   */\n      tag_69\n      jump\t// in\n    tag_118:\n        /* \"#utility.yul\":1677:1730   */\n      tag_61\n      jump\t// in\n    tag_117:\n        /* \"#utility.yul\":1664:1730   */\n      swap1\n      pop\n        /* \"#utility.yul\":1594:1736   */\n      swap2\n      swap1\n      pop\n      jump\t// out\n        /* \"#utility.yul\":1742:1868   */\n    tag_71:\n        /* \"#utility.yul\":1792:1801   */\n      0x00\n        /* \"#utility.yul\":1825:1862   */\n      tag_121\n        /* \"#utility.yul\":1856:1861   */\n      dup3\n        /* \"#utility.yul\":1825:1862   */\n      tag_70\n      jump\t// in\n    tag_121:\n        /* \"#utility.yul\":1812:1862   */\n      swap1\n      pop\n        /* \"#utility.yul\":1742:1868   */\n      swap2\n      swap1\n      pop\n      jump\t// out\n        /* \"#utility.yul\":1874:2013   */\n    tag_72:\n        /* \"#utility.yul\":1937:1946   */\n      0x00\n        /* \"#utility.yul\":1970:2007   */\n      tag_123\n        /* \"#utility.yul\":2001:2006   */\n      dup3\n        /* \"#utility.yul\":1970:2007   */\n      tag_71\n      jump\t// in\n    tag_123:\n        /* \"#utility.yul\":1957:2007   */\n      swap1\n      pop\n        /* \"#utility.yul\":1874:2013   */\n      swap2\n      swap1\n      pop\n      jump\t// out\n        /* \"#utility.yul\":2019:2176   */\n    tag_73:\n        /* \"#utility.yul\":2119:2169   */\n      tag_125\n        /* \"#utility.yul\":2163:2168   */\n      dup2\n        /* \"#utility.yul\":2119:2169   */\n      tag_72\n      jump\t// in\n    tag_125:\n        /* \"#utility.yul\":2114:2117   */\n      dup3\n        /* \"#utility.yul\":2107:2170   */\n      mstore\n        /* \"#utility.yul\":2019:2176   */\n      pop\n      pop\n      jump\t// out\n        /* \"#utility.yul\":2182:2430   */\n    tag_22:\n        /* \"#utility.yul\":2288:2292   */\n      0x00\n        /* \"#utility.yul\":2326:2328   */\n      0x20\n        /* \"#utility.yul\":2315:2324   */\n      dup3\n        /* \"#utility.yul\":2311:2329   */\n      add\n        /* \"#utility.yul\":2303:2329   */\n      swap1\n      pop\n        /* \"#utility.yul\":2339:2423   */\n      tag_127\n        /* \"#utility.yul\":2420:2421   */\n      0x00\n        /* \"#utility.yul\":2409:2418   */\n      dup4\n        /* \"#utility.yul\":2405:2422   */\n      add\n        /* \"#utility.yul\":2396:2402   */\n      dup5\n        /* \"#utility.yul\":2339:2423   */\n      tag_73\n      jump\t// in\n    tag_127:\n        /* \"#utility.yul\":2182:2430   */\n      swap3\n      swap2\n      pop\n      pop\n      jump\t// out\n        /* \"#utility.yul\":2436:2513   */\n    tag_74:\n        /* \"#utility.yul\":2473:2480   */\n      0x00\n        /* \"#utility.yul\":2502:2507   */\n      dup2\n        /* \"#utility.yul\":2491:2507   */\n      swap1\n      pop\n        /* \"#utility.yul\":2436:2513   */\n      swap2\n      swap1\n      pop\n      jump\t// out\n        /* \"#utility.yul\":2519:2641   */\n    tag_75:\n        /* \"#utility.yul\":2592:2616   */\n      tag_130\n        /* \"#utility.yul\":2610:2615   */\n      dup2\n        /* \"#utility.yul\":2592:2616   */\n      tag_74\n      jump\t// in\n    tag_130:\n        /* \"#utility.yul\":2585:2590   */\n      dup2\n        /* \"#utility.yul\":2582:2617   */\n      eq\n        /* \"#utility.yul\":2572:2635   */\n      tag_131\n      jumpi\n        /* \"#utility.yul\":2631:2632   */\n      0x00\n        /* \"#utility.yul\":2628:2629   */\n      0x00\n        /* \"#utility.yul\":2621:2633   */\n      revert\n        /* \"#utility.yul\":2572:2635   */\n    tag_131:\n        /* \"#utility.yul\":2519:2641   */\n      pop\n      jump\t// out\n        /* \"#utility.yul\":2647:2786   */\n    tag_76:\n        /* \"#utility.yul\":2693:2698   */\n      0x00\n        /* \"#utility.yul\":2731:2737   */\n      dup2\n        /* \"#utility.yul\":2718:2738   */\n      calldataload\n        /* \"#utility.yul\":2709:2738   */\n      swap1\n      pop\n        /* \"#utility.yul\":2747:2780   */\n      tag_133\n        /* \"#utility.yul\":2774:2779   */\n      dup2\n        /* \"#utility.yul\":2747:2780   */\n      tag_75\n      jump\t// in\n    tag_133:\n        /* \"#utility.yul\":2647:2786   */\n      swap3\n      swap2\n      pop\n      pop\n      jump\t// out\n        /* \"#utility.yul\":2792:3121   */\n    tag_25:\n        /* \"#utility.yul\":2851:2857   */\n      0x00\n        /* \"#utility.yul\":2900:2902   */\n      0x20\n        /* \"#utility.yul\":2888:2897   */\n      dup3\n        /* \"#utility.yul\":2879:2886   */\n      dup5\n        /* \"#utility.yul\":2875:2898   */\n      sub\n        /* \"#utility.yul\":2871:2903   */\n      slt\n        /* \"#utility.yul\":2868:2987   */\n      iszero\n      tag_135\n      jumpi\n        /* \"#utility.yul\":2906:2985   */\n      tag_136\n      tag_65\n      jump\t// in\n    tag_136:\n        /* \"#utility.yul\":2868:2987   */\n    tag_135:\n        /* \"#utility.yul\":3026:3027   */\n      0x00\n        /* \"#utility.yul\":3051:3104   */\n      tag_137\n        /* \"#utility.yul\":3096:3103   */\n      dup5\n        /* \"#utility.yul\":3087:3093   */\n      dup3\n        /* \"#utility.yul\":3076:3085   */\n      dup6\n        /* \"#utility.yul\":3072:3094   */\n      add\n        /* \"#utility.yul\":3051:3104   */\n      tag_76\n      jump\t// in\n    tag_137:\n        /* \"#utility.yul\":3041:3104   */\n      swap2\n      pop\n        /* \"#utility.yul\":2997:3114   */\n      pop\n        /* \"#utility.yul\":2792:3121   */\n      swap3\n      swap2\n      pop\n      pop\n      jump\t// out\n        /* \"#utility.yul\":3127:3296   */\n    tag_77:\n        /* \"#utility.yul\":3211:3222   */\n      0x00\n        /* \"#utility.yul\":3245:3251   */\n      dup3\n        /* \"#utility.yul\":3240:3243   */\n      dup3\n        /* \"#utility.yul\":3233:3252   */\n      mstore\n        /* \"#utility.yul\":3285:3289   */\n      0x20\n        /* \"#utility.yul\":3280:3283   */\n      dup3\n        /* \"#utility.yul\":3276:3290   */\n      add\n        /* \"#utility.yul\":3261:3290   */\n      swap1\n      pop\n        /* \"#utility.yul\":3127:3296   */\n      swap3\n      swap2\n      pop\n      pop\n      jump\t// out\n        /* \"#utility.yul\":3302:3525   */\n    tag_78:\n        /* \"#utility.yul\":3442:3476   */\n      0x4f6e6c79206f776e65722063616e207570646174652074617267657420616464\n        /* \"#utility.yul\":3438:3439   */\n      0x00\n        /* \"#utility.yul\":3430:3436   */\n      dup3\n        /* \"#utility.yul\":3426:3440   */\n      add\n        /* \"#utility.yul\":3419:3477   */\n      mstore\n        /* \"#utility.yul\":3511:3517   */\n      0x7265737300000000000000000000000000000000000000000000000000000000\n        /* \"#utility.yul\":3506:3508   */\n      0x20\n        /* \"#utility.yul\":3498:3504   */\n      dup3\n        /* \"#utility.yul\":3494:3509   */\n      add\n        /* \"#utility.yul\":3487:3518   */\n      mstore\n        /* \"#utility.yul\":3302:3525   */\n      pop\n      jump\t// out\n        /* \"#utility.yul\":3531:3897   */\n    tag_79:\n        /* \"#utility.yul\":3673:3676   */\n      0x00\n        /* \"#utility.yul\":3694:3761   */\n      tag_141\n        /* \"#utility.yul\":3758:3760   */\n      0x24\n        /* \"#utility.yul\":3753:3756   */\n      dup4\n        /* \"#utility.yul\":3694:3761   */\n      tag_77\n      jump\t// in\n    tag_141:\n        /* \"#utility.yul\":3687:3761   */\n      swap2\n      pop\n        /* \"#utility.yul\":3770:3863   */\n      tag_142\n        /* \"#utility.yul\":3859:3862   */\n      dup3\n        /* \"#utility.yul\":3770:3863   */\n      tag_78\n      jump\t// in\n    tag_142:\n        /* \"#utility.yul\":3888:3890   */\n      0x40\n        /* \"#utility.yul\":3883:3886   */\n      dup3\n        /* \"#utility.yul\":3879:3891   */\n      add\n        /* \"#utility.yul\":3872:3891   */\n      swap1\n      pop\n        /* \"#utility.yul\":3531:3897   */\n      swap2\n      swap1\n      pop\n      jump\t// out\n        /* \"#utility.yul\":3903:4322   */\n    tag_30:\n        /* \"#utility.yul\":4069:4073   */\n      0x00\n        /* \"#utility.yul\":4107:4109   */\n      0x20\n        /* \"#utility.yul\":4096:4105   */\n      dup3\n        /* \"#utility.yul\":4092:4110   */\n      add\n        /* \"#utility.yul\":4084:4110   */\n      swap1\n      pop\n        /* \"#utility.yul\":4156:4165   */\n      dup2\n        /* \"#utility.yul\":4150:4154   */\n      dup2\n        /* \"#utility.yul\":4146:4166   */\n      sub\n        /* \"#utility.yul\":4142:4143   */\n      0x00\n        /* \"#utility.yul\":4131:4140   */\n      dup4\n        /* \"#utility.yul\":4127:4144   */\n      add\n        /* \"#utility.yul\":4120:4167   */\n      mstore\n        /* \"#utility.yul\":4184:4315   */\n      tag_144\n        /* \"#utility.yul\":4310:4314   */\n      dup2\n        /* \"#utility.yul\":4184:4315   */\n      tag_79\n      jump\t// in\n    tag_144:\n        /* \"#utility.yul\":4176:4315   */\n      swap1\n      pop\n        /* \"#utility.yul\":3903:4322   */\n      swap2\n      swap1\n      pop\n      jump\t// out\n        /* \"#utility.yul\":4328:4500   */\n    tag_80:\n        /* \"#utility.yul\":4468:4492   */\n      0x496e76616c696420746172676574206164647265737300000000000000000000\n        /* \"#utility.yul\":4464:4465   */\n      0x00\n        /* \"#utility.yul\":4456:4462   */\n      dup3\n        /* \"#utility.yul\":4452:4466   */\n      add\n        /* \"#utility.yul\":4445:4493   */\n      mstore\n        /* \"#utility.yul\":4328:4500   */\n      pop\n      jump\t// out\n        /* \"#utility.yul\":4506:4872   */\n    tag_81:\n        /* \"#utility.yul\":4648:4651   */\n      0x00\n        /* \"#utility.yul\":4669:4736   */\n      tag_147\n        /* \"#utility.yul\":4733:4735   */\n      0x16\n        /* \"#utility.yul\":4728:4731   */\n      dup4\n        /* \"#utility.yul\":4669:4736   */\n      tag_77\n      jump\t// in\n    tag_147:\n        /* \"#utility.yul\":4662:4736   */\n      swap2\n      pop\n        /* \"#utility.yul\":4745:4838   */\n      tag_148\n        /* \"#utility.yul\":4834:4837   */\n      dup3\n        /* \"#utility.yul\":4745:4838   */\n      tag_80\n      jump\t// in\n    tag_148:\n        /* \"#utility.yul\":4863:4865   */\n      0x20\n        /* \"#utility.yul\":4858:4861   */\n      dup3\n        /* \"#utility.yul\":4854:4866   */\n      add\n        /* \"#utility.yul\":4847:4866   */\n      swap1\n      pop\n        /* \"#utility.yul\":4506:4872   */\n      swap2\n      swap1\n      pop\n      jump\t// out\n        /* \"#utility.yul\":4878:5297   */\n    tag_33:\n        /* \"#utility.yul\":5044:5048   */\n      0x00\n        /* \"#utility.yul\":5082:5084   */\n      0x20\n        /* \"#utility.yul\":5071:5080   */\n      dup3\n        /* \"#utility.yul\":5067:5085   */\n      add\n        /* \"#utility.yul\":5059:5085   */\n      swap1\n      pop\n        /* \"#utility.yul\":5131:5140   */\n      dup2\n        /* \"#utility.yul\":5125:5129   */\n      dup2\n        /* \"#utility.yul\":5121:5141   */\n      sub\n        /* \"#utility.yul\":5117:5118   */\n      0x00\n        /* \"#utility.yul\":5106:5115   */\n      dup4\n        /* \"#utility.yul\":5102:5119   */\n      add\n        /* \"#utility.yul\":5095:5142   */\n      mstore\n        /* \"#utility.yul\":5159:5290   */\n      tag_150\n        /* \"#utility.yul\":5285:5289   */\n      dup2\n        /* \"#utility.yul\":5159:5290   */\n      tag_81\n      jump\t// in\n    tag_150:\n        /* \"#utility.yul\":5151:5290   */\n      swap1\n      pop\n        /* \"#utility.yul\":4878:5297   */\n      swap2\n      swap1\n      pop\n      jump\t// out\n        /* \"#utility.yul\":5303:5482   */\n    tag_82:\n        /* \"#utility.yul\":5443:5474   */\n      0x4e65772061646472657373206d75737420626520646966666572656e74000000\n        /* \"#utility.yul\":5439:5440   */\n      0x00\n        /* \"#utility.yul\":5431:5437   */\n      dup3\n        /* \"#utility.yul\":5427:5441   */\n      add\n        /* \"#utility.yul\":5420:5475   */\n      mstore\n        /* \"#utility.yul\":5303:5482   */\n      pop\n      jump\t// out\n        /* \"#utility.yul\":5488:5854   */\n    tag_83:\n        /* \"#utility.yul\":5630:5633   */\n      0x00\n        /* \"#utility.yul\":5651:5718   */\n      tag_153\n        /* \"#utility.yul\":5715:5717   */\n      0x1d\n        /* \"#utility.yul\":5710:5713   */\n      dup4\n        /* \"#utility.yul\":5651:5718   */\n      tag_77\n      jump\t// in\n    tag_153:\n        /* \"#utility.yul\":5644:5718   */\n      swap2\n      pop\n        /* \"#utility.yul\":5727:5820   */\n      tag_154\n        /* \"#utility.yul\":5816:5819   */\n      dup3\n        /* \"#utility.yul\":5727:5820   */\n      tag_82\n      jump\t// in\n    tag_154:\n        /* \"#utility.yul\":5845:5847   */\n      0x20\n        /* \"#utility.yul\":5840:5843   */\n      dup3\n        /* \"#utility.yul\":5836:5848   */\n      add\n        /* \"#utility.yul\":5829:5848   */\n      swap1\n      pop\n        /* \"#utility.yul\":5488:5854   */\n      swap2\n      swap1\n      pop\n      jump\t// out\n        /* \"#utility.yul\":5860:6279   */\n    tag_36:\n        /* \"#utility.yul\":6026:6030   */\n      0x00\n        /* \"#utility.yul\":6064:6066   */\n      0x20\n        /* \"#utility.yul\":6053:6062   */\n      dup3\n        /* \"#utility.yul\":6049:6067   */\n      add\n        /* \"#utility.yul\":6041:6067   */\n      swap1\n      pop\n        /* \"#utility.yul\":6113:6122   */\n      dup2\n        /* \"#utility.yul\":6107:6111   */\n      dup2\n        /* \"#utility.yul\":6103:6123   */\n      sub\n        /* \"#utility.yul\":6099:6100   */\n      0x00\n        /* \"#utility.yul\":6088:6097   */\n      dup4\n        /* \"#utility.yul\":6084:6101   */\n      add\n        /* \"#utility.yul\":6077:6124   */\n      mstore\n        /* \"#utility.yul\":6141:6272   */\n      tag_156\n        /* \"#utility.yul\":6267:6271   */\n      dup2\n        /* \"#utility.yul\":6141:6272   */\n      tag_83\n      jump\t// in\n    tag_156:\n        /* \"#utility.yul\":6133:6272   */\n      swap1\n      pop\n        /* \"#utility.yul\":5860:6279   */\n      swap2\n      swap1\n      pop\n      jump\t// out\n        /* \"#utility.yul\":6285:6464   */\n    tag_84:\n        /* \"#utility.yul\":6425:6456   */\n      0x416d6f756e74206d7573742062652067726561746572207468616e2030000000\n        /* \"#utility.yul\":6421:6422   */\n      0x00\n        /* \"#utility.yul\":6413:6419   */\n      dup3\n        /* \"#utility.yul\":6409:6423   */\n      add\n        /* \"#utility.yul\":6402:6457   */\n      mstore\n        /* \"#utility.yul\":6285:6464   */\n      pop\n      jump\t// out\n        /* \"#utility.yul\":6470:6836   */\n    tag_85:\n        /* \"#utility.yul\":6612:6615   */\n      0x00\n        /* \"#utility.yul\":6633:6700   */\n      tag_159\n        /* \"#utility.yul\":6697:6699   */\n      0x1d\n        /* \"#utility.yul\":6692:6695   */\n      dup4\n        /* \"#utility.yul\":6633:6700   */\n      tag_77\n      jump\t// in\n    tag_159:\n        /* \"#utility.yul\":6626:6700   */\n      swap2\n      pop\n        /* \"#utility.yul\":6709:6802   */\n      tag_160\n        /* \"#utility.yul\":6798:6801   */\n      dup3\n        /* \"#utility.yul\":6709:6802   */\n      tag_84\n      jump\t// in\n    tag_160:\n        /* \"#utility.yul\":6827:6829   */\n      0x20\n        /* \"#utility.yul\":6822:6825   */\n      dup3\n        /* \"#utility.yul\":6818:6830   */\n      add\n        /* \"#utility.yul\":6811:6830   */\n      swap1\n      pop\n        /* \"#utility.yul\":6470:6836   */\n      swap2\n      swap1\n      pop\n      jump\t// out\n        /* \"#utility.yul\":6842:7261   */\n    tag_40:\n        /* \"#utility.yul\":7008:7012   */\n      0x00\n        /* \"#utility.yul\":7046:7048   */\n      0x20\n        /* \"#utility.yul\":7035:7044   */\n      dup3\n        /* \"#utility.yul\":7031:7049   */\n      add\n        /* \"#utility.yul\":7023:7049   */\n      swap1\n      pop\n        /* \"#utility.yul\":7095:7104   */\n      dup2\n        /* \"#utility.yul\":7089:7093   */\n      dup2\n        /* \"#utility.yul\":7085:7105   */\n      sub\n        /* \"#utility.yul\":7081:7082   */\n      0x00\n        /* \"#utility.yul\":7070:7079   */\n      dup4\n        /* \"#utility.yul\":7066:7083   */\n      add\n        /* \"#utility.yul\":7059:7106   */\n      mstore\n        /* \"#utility.yul\":7123:7254   */\n      tag_162\n        /* \"#utility.yul\":7249:7253   */\n      dup2\n        /* \"#utility.yul\":7123:7254   */\n      tag_85\n      jump\t// in\n    tag_162:\n        /* \"#utility.yul\":7115:7254   */\n      swap1\n      pop\n        /* \"#utility.yul\":6842:7261   */\n      swap2\n      swap1\n      pop\n      jump\t// out\n        /* \"#utility.yul\":7267:7599   */\n    tag_42:\n        /* \"#utility.yul\":7388:7392   */\n      0x00\n        /* \"#utility.yul\":7426:7428   */\n      0x40\n        /* \"#utility.yul\":7415:7424   */\n      dup3\n        /* \"#utility.yul\":7411:7429   */\n      add\n        /* \"#utility.yul\":7403:7429   */\n      swap1\n      pop\n        /* \"#utility.yul\":7439:7510   */\n      tag_164\n        /* \"#utility.yul\":7507:7508   */\n      0x00\n        /* \"#utility.yul\":7496:7505   */\n      dup4\n        /* \"#utility.yul\":7492:7509   */\n      add\n        /* \"#utility.yul\":7483:7489   */\n      dup6\n        /* \"#utility.yul\":7439:7510   */\n      tag_63\n      jump\t// in\n    tag_164:\n        /* \"#utility.yul\":7520:7592   */\n      tag_165\n        /* \"#utility.yul\":7588:7590   */\n      0x20\n        /* \"#utility.yul\":7577:7586   */\n      dup4\n        /* \"#utility.yul\":7573:7591   */\n      add\n        /* \"#utility.yul\":7564:7570   */\n      dup5\n        /* \"#utility.yul\":7520:7592   */\n      tag_63\n      jump\t// in\n    tag_165:\n        /* \"#utility.yul\":7267:7599   */\n      swap4\n      swap3\n      pop\n      pop\n      pop\n      jump\t// out\n        /* \"#utility.yul\":7605:7748   */\n    tag_86:\n        /* \"#utility.yul\":7662:7667   */\n      0x00\n        /* \"#utility.yul\":7693:7699   */\n      dup2\n        /* \"#utility.yul\":7687:7700   */\n      mload\n        /* \"#utility.yul\":7678:7700   */\n      swap1\n      pop\n        /* \"#utility.yul\":7709:7742   */\n      tag_167\n        /* \"#utility.yul\":7736:7741   */\n      dup2\n        /* \"#utility.yul\":7709:7742   */\n      tag_75\n      jump\t// in\n    tag_167:\n        /* \"#utility.yul\":7605:7748   */\n      swap3\n      swap2\n      pop\n      pop\n      jump\t// out\n        /* \"#utility.yul\":7754:8105   */\n    tag_46:\n        /* \"#utility.yul\":7824:7830   */\n      0x00\n        /* \"#utility.yul\":7873:7875   */\n      0x20\n        /* \"#utility.yul\":7861:7870   */\n      dup3\n        /* \"#utility.yul\":7852:7859   */\n      dup5\n        /* \"#utility.yul\":7848:7871   */\n      sub\n        /* \"#utility.yul\":7844:7876   */\n      slt\n        /* \"#utility.yul\":7841:7960   */\n      iszero\n      tag_169\n      jumpi\n        /* \"#utility.yul\":7879:7958   */\n      tag_170\n      tag_65\n      jump\t// in\n    tag_170:\n        /* \"#utility.yul\":7841:7960   */\n    tag_169:\n        /* \"#utility.yul\":7999:8000   */\n      0x00\n        /* \"#utility.yul\":8024:8088   */\n      tag_171\n        /* \"#utility.yul\":8080:8087   */\n      dup5\n        /* \"#utility.yul\":8071:8077   */\n      dup3\n        /* \"#utility.yul\":8060:8069   */\n      dup6\n        /* \"#utility.yul\":8056:8078   */\n      add\n        /* \"#utility.yul\":8024:8088   */\n      tag_86\n      jump\t// in\n    tag_171:\n        /* \"#utility.yul\":8014:8088   */\n      swap2\n      pop\n        /* \"#utility.yul\":7970:8098   */\n      pop\n        /* \"#utility.yul\":7754:8105   */\n      swap3\n      swap2\n      pop\n      pop\n      jump\t// out\n        /* \"#utility.yul\":8111:8283   */\n    tag_87:\n        /* \"#utility.yul\":8251:8275   */\n      0x496e73756666696369656e7420616c6c6f77616e636500000000000000000000\n        /* \"#utility.yul\":8247:8248   */\n      0x00\n        /* \"#utility.yul\":8239:8245   */\n      dup3\n        /* \"#utility.yul\":8235:8249   */\n      add\n        /* \"#utility.yul\":8228:8276   */\n      mstore\n        /* \"#utility.yul\":8111:8283   */\n      pop\n      jump\t// out\n        /* \"#utility.yul\":8289:8655   */\n    tag_88:\n        /* \"#utility.yul\":8431:8434   */\n      0x00\n        /* \"#utility.yul\":8452:8519   */\n      tag_174\n        /* \"#utility.yul\":8516:8518   */\n      0x16\n        /* \"#utility.yul\":8511:8514   */\n      dup4\n        /* \"#utility.yul\":8452:8519   */\n      tag_77\n      jump\t// in\n    tag_174:\n        /* \"#utility.yul\":8445:8519   */\n      swap2\n      pop\n        /* \"#utility.yul\":8528:8621   */\n      tag_175\n        /* \"#utility.yul\":8617:8620   */\n      dup3\n        /* \"#utility.yul\":8528:8621   */\n      tag_87\n      jump\t// in\n    tag_175:\n        /* \"#utility.yul\":8646:8648   */\n      0x20\n        /* \"#utility.yul\":8641:8644   */\n      dup3\n        /* \"#utility.yul\":8637:8649   */\n      add\n        /* \"#utility.yul\":8630:8649   */\n      swap1\n      pop\n        /* \"#utility.yul\":8289:8655   */\n      swap2\n      swap1\n      pop\n      jump\t// out\n        /* \"#utility.yul\":8661:9080   */\n    tag_49:\n        /* \"#utility.yul\":8827:8831   */\n      0x00\n        /* \"#utility.yul\":8865:8867   */\n      0x20\n        /* \"#utility.yul\":8854:8863   */\n      dup3\n        /* \"#utility.yul\":8850:8868   */\n      add\n        /* \"#utility.yul\":8842:8868   */\n      swap1\n      pop\n        /* \"#utility.yul\":8914:8923   */\n      dup2\n        /* \"#utility.yul\":8908:8912   */\n      dup2\n        /* \"#utility.yul\":8904:8924   */\n      sub\n        /* \"#utility.yul\":8900:8901   */\n      0x00\n        /* \"#utility.yul\":8889:8898   */\n      dup4\n        /* \"#utility.yul\":8885:8902   */\n      add\n        /* \"#utility.yul\":8878:8925   */\n      mstore\n        /* \"#utility.yul\":8942:9073   */\n      tag_177\n        /* \"#utility.yul\":9068:9072   */\n      dup2\n        /* \"#utility.yul\":8942:9073   */\n      tag_88\n      jump\t// in\n    tag_177:\n        /* \"#utility.yul\":8934:9073   */\n      swap1\n      pop\n        /* \"#utility.yul\":8661:9080   */\n      swap2\n      swap1\n      pop\n      jump\t// out\n        /* \"#utility.yul\":9086:9204   */\n    tag_89:\n        /* \"#utility.yul\":9173:9197   */\n      tag_179\n        /* \"#utility.yul\":9191:9196   */\n      dup2\n        /* \"#utility.yul\":9173:9197   */\n      tag_74\n      jump\t// in\n    tag_179:\n        /* \"#utility.yul\":9168:9171   */\n      dup3\n        /* \"#utility.yul\":9161:9198   */\n      mstore\n        /* \"#utility.yul\":9086:9204   */\n      pop\n      pop\n      jump\t// out\n        /* \"#utility.yul\":9210:9652   */\n    tag_51:\n        /* \"#utility.yul\":9359:9363   */\n      0x00\n        /* \"#utility.yul\":9397:9399   */\n      0x60\n        /* \"#utility.yul\":9386:9395   */\n      dup3\n        /* \"#utility.yul\":9382:9400   */\n      add\n        /* \"#utility.yul\":9374:9400   */\n      swap1\n      pop\n        /* \"#utility.yul\":9410:9481   */\n      tag_181\n        /* \"#utility.yul\":9478:9479   */\n      0x00\n        /* \"#utility.yul\":9467:9476   */\n      dup4\n        /* \"#utility.yul\":9463:9480   */\n      add\n        /* \"#utility.yul\":9454:9460   */\n      dup7\n        /* \"#utility.yul\":9410:9481   */\n      tag_63\n      jump\t// in\n    tag_181:\n        /* \"#utility.yul\":9491:9563   */\n      tag_182\n        /* \"#utility.yul\":9559:9561   */\n      0x20\n        /* \"#utility.yul\":9548:9557   */\n      dup4\n        /* \"#utility.yul\":9544:9562   */\n      add\n        /* \"#utility.yul\":9535:9541   */\n      dup6\n        /* \"#utility.yul\":9491:9563   */\n      tag_63\n      jump\t// in\n    tag_182:\n        /* \"#utility.yul\":9573:9645   */\n      tag_183\n        /* \"#utility.yul\":9641:9643   */\n      0x40\n        /* \"#utility.yul\":9630:9639   */\n      dup4\n        /* \"#utility.yul\":9626:9644   */\n      add\n        /* \"#utility.yul\":9617:9623   */\n      dup5\n        /* \"#utility.yul\":9573:9645   */\n      tag_89\n      jump\t// in\n    tag_183:\n        /* \"#utility.yul\":9210:9652   */\n      swap5\n      swap4\n      pop\n      pop\n      pop\n      pop\n      jump\t// out\n        /* \"#utility.yul\":9658:9748   */\n    tag_90:\n        /* \"#utility.yul\":9692:9699   */\n      0x00\n        /* \"#utility.yul\":9735:9740   */\n      dup2\n        /* \"#utility.yul\":9728:9741   */\n      iszero\n        /* \"#utility.yul\":9721:9742   */\n      iszero\n        /* \"#utility.yul\":9710:9742   */\n      swap1\n      pop\n        /* \"#utility.yul\":9658:9748   */\n      swap2\n      swap1\n      pop\n      jump\t// out\n        /* \"#utility.yul\":9754:9870   */\n    tag_91:\n        /* \"#utility.yul\":9824:9845   */\n      tag_186\n        /* \"#utility.yul\":9839:9844   */\n      dup2\n        /* \"#utility.yul\":9824:9845   */\n      tag_90\n      jump\t// in\n    tag_186:\n        /* \"#utility.yul\":9817:9822   */\n      dup2\n        /* \"#utility.yul\":9814:9846   */\n      eq\n        /* \"#utility.yul\":9804:9864   */\n      tag_187\n      jumpi\n        /* \"#utility.yul\":9860:9861   */\n      0x00\n        /* \"#utility.yul\":9857:9858   */\n      0x00\n        /* \"#utility.yul\":9850:9862   */\n      revert\n        /* \"#utility.yul\":9804:9864   */\n    tag_187:\n        /* \"#utility.yul\":9754:9870   */\n      pop\n      jump\t// out\n        /* \"#utility.yul\":9876:10013   */\n    tag_92:\n        /* \"#utility.yul\":9930:9935   */\n      0x00\n        /* \"#utility.yul\":9961:9967   */\n      dup2\n        /* \"#utility.yul\":9955:9968   */\n      mload\n        /* \"#utility.yul\":9946:9968   */\n      swap1\n      pop\n        /* \"#utility.yul\":9977:10007   */\n      tag_189\n        /* \"#utility.yul\":10001:10006   */\n      dup2\n        /* \"#utility.yul\":9977:10007   */\n      tag_91\n      jump\t// in\n    tag_189:\n        /* \"#utility.yul\":9876:10013   */\n      swap3\n      swap2\n      pop\n      pop\n      jump\t// out\n        /* \"#utility.yul\":10019:10364   */\n    tag_55:\n        /* \"#utility.yul\":10086:10092   */\n      0x00\n        /* \"#utility.yul\":10135:10137   */\n      0x20\n        /* \"#utility.yul\":10123:10132   */\n      dup3\n        /* \"#utility.yul\":10114:10121   */\n      dup5\n        /* \"#utility.yul\":10110:10133   */\n      sub\n        /* \"#utility.yul\":10106:10138   */\n      slt\n        /* \"#utility.yul\":10103:10222   */\n      iszero\n      tag_191\n      jumpi\n        /* \"#utility.yul\":10141:10220   */\n      tag_192\n      tag_65\n      jump\t// in\n    tag_192:\n        /* \"#utility.yul\":10103:10222   */\n    tag_191:\n        /* \"#utility.yul\":10261:10262   */\n      0x00\n        /* \"#utility.yul\":10286:10347   */\n      tag_193\n        /* \"#utility.yul\":10339:10346   */\n      dup5\n        /* \"#utility.yul\":10330:10336   */\n      dup3\n        /* \"#utility.yul\":10319:10328   */\n      dup6\n        /* \"#utility.yul\":10315:10337   */\n      add\n        /* \"#utility.yul\":10286:10347   */\n      tag_92\n      jump\t// in\n    tag_193:\n        /* \"#utility.yul\":10276:10347   */\n      swap2\n      pop\n        /* \"#utility.yul\":10232:10357   */\n      pop\n        /* \"#utility.yul\":10019:10364   */\n      swap3\n      swap2\n      pop\n      pop\n      jump\t// out\n        /* \"#utility.yul\":10370:10535   */\n    tag_93:\n        /* \"#utility.yul\":10510:10527   */\n      0x5472616e73666572206661696c65640000000000000000000000000000000000\n        /* \"#utility.yul\":10506:10507   */\n      0x00\n        /* \"#utility.yul\":10498:10504   */\n      dup3\n        /* \"#utility.yul\":10494:10508   */\n      add\n        /* \"#utility.yul\":10487:10528   */\n      mstore\n        /* \"#utility.yul\":10370:10535   */\n      pop\n      jump\t// out\n        /* \"#utility.yul\":10541:10907   */\n    tag_94:\n        /* \"#utility.yul\":10683:10686   */\n      0x00\n        /* \"#utility.yul\":10704:10771   */\n      tag_196\n        /* \"#utility.yul\":10768:10770   */\n      0x0f\n        /* \"#utility.yul\":10763:10766   */\n      dup4\n        /* \"#utility.yul\":10704:10771   */\n      tag_77\n      jump\t// in\n    tag_196:\n        /* \"#utility.yul\":10697:10771   */\n      swap2\n      pop\n        /* \"#utility.yul\":10780:10873   */\n      tag_197\n        /* \"#utility.yul\":10869:10872   */\n      dup3\n        /* \"#utility.yul\":10780:10873   */\n      tag_93\n      jump\t// in\n    tag_197:\n        /* \"#utility.yul\":10898:10900   */\n      0x20\n        /* \"#utility.yul\":10893:10896   */\n      dup3\n        /* \"#utility.yul\":10889:10901   */\n      add\n        /* \"#utility.yul\":10882:10901   */\n      swap1\n      pop\n        /* \"#utility.yul\":10541:10907   */\n      swap2\n      swap1\n      pop\n      jump\t// out\n        /* \"#utility.yul\":10913:11332   */\n    tag_58:\n        /* \"#utility.yul\":11079:11083   */\n      0x00\n        /* \"#utility.yul\":11117:11119   */\n      0x20\n        /* \"#utility.yul\":11106:11115   */\n      dup3\n        /* \"#utility.yul\":11102:11120   */\n      add\n        /* \"#utility.yul\":11094:11120   */\n      swap1\n      pop\n        /* \"#utility.yul\":11166:11175   */\n      dup2\n        /* \"#utility.yul\":11160:11164   */\n      dup2\n        /* \"#utility.yul\":11156:11176   */\n      sub\n        /* \"#utility.yul\":11152:11153   */\n      0x00\n        /* \"#utility.yul\":11141:11150   */\n      dup4\n        /* \"#utility.yul\":11137:11154   */\n      add\n        /* \"#utility.yul\":11130:11177   */\n      mstore\n        /* \"#utility.yul\":11194:11325   */\n      tag_199\n        /* \"#utility.yul\":11320:11324   */\n      dup2\n        /* \"#utility.yul\":11194:11325   */\n      tag_94\n      jump\t// in\n    tag_199:\n        /* \"#utility.yul\":11186:11325   */\n      swap1\n      pop\n        /* \"#utility.yul\":10913:11332   */\n      swap2\n      swap1\n      pop\n      jump\t// out\n        /* \"#utility.yul\":11338:11560   */\n    tag_60:\n        /* \"#utility.yul\":11431:11435   */\n      0x00\n        /* \"#utility.yul\":11469:11471   */\n      0x20\n        /* \"#utility.yul\":11458:11467   */\n      dup3\n        /* \"#utility.yul\":11454:11472   */\n      add\n        /* \"#utility.yul\":11446:11472   */\n      swap1\n      pop\n        /* \"#utility.yul\":11482:11553   */\n      tag_201\n        /* \"#utility.yul\":11550:11551   */\n      0x00\n        /* \"#utility.yul\":11539:11548   */\n      dup4\n        /* \"#utility.yul\":11535:11552   */\n      add\n        /* \"#utility.yul\":11526:11532   */\n      dup5\n        /* \"#utility.yul\":11482:11553   */\n      tag_89\n      jump\t// in\n    tag_201:\n        /* \"#utility.yul\":11338:11560   */\n      swap3\n      swap2\n      pop\n      pop\n      jump\t// out\n\n    auxdata: 0xa26469706673582212200d02dcf440e2527520f3df8c03e03fd5002d5f3a25194b343d5467e1681ccaba64736f6c634300081e0033\n}\n",
				"bytecode": {
					"linkReferences": {},
					"object": "60c060405234801561000f575f5ffd5b50604051610f3d380380610f3d83398181016040528101906100319190610219565b5f73ffffffffffffffffffffffffffffffffffffffff168273ffffffffffffffffffffffffffffffffffffffff160361009f576040517f08c379a0000000000000000000000000000000000000000000000000000000008152600401610096906102b1565b60405180910390fd5b5f73ffffffffffffffffffffffffffffffffffffffff168173ffffffffffffffffffffffffffffffffffffffff160361010d576040517f08c379a000000000000000000000000000000000000000000000000000000000815260040161010490610319565b60405180910390fd5b8173ffffffffffffffffffffffffffffffffffffffff1660808173ffffffffffffffffffffffffffffffffffffffff1681525050805f5f6101000a81548173ffffffffffffffffffffffffffffffffffffffff021916908373ffffffffffffffffffffffffffffffffffffffff1602179055503373ffffffffffffffffffffffffffffffffffffffff1660a08173ffffffffffffffffffffffffffffffffffffffff16815250505050610337565b5f5ffd5b5f73ffffffffffffffffffffffffffffffffffffffff82169050919050565b5f6101e8826101bf565b9050919050565b6101f8816101de565b8114610202575f5ffd5b50565b5f81519050610213816101ef565b92915050565b5f5f6040838503121561022f5761022e6101bb565b5b5f61023c85828601610205565b925050602061024d85828601610205565b9150509250929050565b5f82825260208201905092915050565b7f496e76616c696420746f6b656e206164647265737300000000000000000000005f82015250565b5f61029b601583610257565b91506102a682610267565b602082019050919050565b5f6020820190508181035f8301526102c88161028f565b9050919050565b7f496e76616c6964207461726765742061646472657373000000000000000000005f82015250565b5f610303601683610257565b915061030e826102cf565b602082019050919050565b5f6020820190508181035f830152610330816102f7565b9050919050565b60805160a051610bd061036d5f395f8181610111015261035c01525f8181610380015281816103e701526104c70152610bd05ff3fe608060405234801561000f575f5ffd5b5060043610610055575f3560e01c80635210eb56146100595780637603efb9146100775780638da5cb5b14610093578063e2379f29146100b1578063fd9a4e61146100cf575b5f5ffd5b6100616100eb565b60405161006e919061068d565b60405180910390f35b610091600480360381019061008c91906106d4565b61010f565b005b61009b61035a565b6040516100a8919061068d565b60405180910390f35b6100b961037e565b6040516100c6919061075a565b60405180910390f35b6100e960048036038101906100e491906107a6565b6103a2565b005b5f5f9054906101000a900473ffffffffffffffffffffffffffffffffffffffff1681565b7f000000000000000000000000000000000000000000000000000000000000000073ffffffffffffffffffffffffffffffffffffffff163373ffffffffffffffffffffffffffffffffffffffff161461019d576040517f08c379a000000000000000000000000000000000000000000000000000000000815260040161019490610851565b60405180910390fd5b5f73ffffffffffffffffffffffffffffffffffffffff168173ffffffffffffffffffffffffffffffffffffffff160361020b576040517f08c379a0000000000000000000000000000000000000000000000000000000008152600401610202906108b9565b60405180910390fd5b5f5f9054906101000a900473ffffffffffffffffffffffffffffffffffffffff1673ffffffffffffffffffffffffffffffffffffffff168173ffffffffffffffffffffffffffffffffffffffff1603610299576040517f08c379a000000000000000000000000000000000000000000000000000000000815260040161029090610921565b60405180910390fd5b5f5f5f9054906101000a900473ffffffffffffffffffffffffffffffffffffffff169050815f5f6101000a81548173ffffffffffffffffffffffffffffffffffffffff021916908373ffffffffffffffffffffffffffffffffffffffff1602179055508173ffffffffffffffffffffffffffffffffffffffff168173ffffffffffffffffffffffffffffffffffffffff167f862db0ac244a7c196ec4a30abf1b83cc045d2351899ef43b3d530d4e78949de360405160405180910390a35050565b7f000000000000000000000000000000000000000000000000000000000000000081565b7f000000000000000000000000000000000000000000000000000000000000000081565b5f81116103e4576040517f08c379a00000000000000000000000000000000000000000000000000000000081526004016103db90610989565b60405180910390fd5b5f7f000000000000000000000000000000000000000000000000000000000000000073ffffffffffffffffffffffffffffffffffffffff1663dd62ed3e33306040518363ffffffff1660e01b81526004016104409291906109a7565b602060405180830381865afa15801561045b573d5f5f3e3d5ffd5b505050506040513d601f19601f8201168201806040525081019061047f91906109e2565b9050818110156104c4576040517f08c379a00000000000000000000000000000000000000000000000000000000081526004016104bb90610a57565b60405180910390fd5b5f7f000000000000000000000000000000000000000000000000000000000000000073ffffffffffffffffffffffffffffffffffffffff166323b872dd335f5f9054906101000a900473ffffffffffffffffffffffffffffffffffffffff16866040518463ffffffff1660e01b815260040161054293929190610a84565b6020604051808303815f875af115801561055e573d5f5f3e3d5ffd5b505050506040513d601f19601f820116820180604052508101906105829190610aee565b9050806105c4576040517f08c379a00000000000000000000000000000000000000000000000000000000081526004016105bb90610b63565b60405180910390fd5b5f5f9054906101000a900473ffffffffffffffffffffffffffffffffffffffff1673ffffffffffffffffffffffffffffffffffffffff163373ffffffffffffffffffffffffffffffffffffffff167f2dc85ecd41a2e25618af6e007abb3ce1ee081d7934fdb986d94c9cb2e0763bef856040516106419190610b81565b60405180910390a3505050565b5f73ffffffffffffffffffffffffffffffffffffffff82169050919050565b5f6106778261064e565b9050919050565b6106878161066d565b82525050565b5f6020820190506106a05f83018461067e565b92915050565b5f5ffd5b6106b38161066d565b81146106bd575f5ffd5b50565b5f813590506106ce816106aa565b92915050565b5f602082840312156106e9576106e86106a6565b5b5f6106f6848285016106c0565b91505092915050565b5f819050919050565b5f61072261071d6107188461064e565b6106ff565b61064e565b9050919050565b5f61073382610708565b9050919050565b5f61074482610729565b9050919050565b6107548161073a565b82525050565b5f60208201905061076d5f83018461074b565b92915050565b5f819050919050565b61078581610773565b811461078f575f5ffd5b50565b5f813590506107a08161077c565b92915050565b5f602082840312156107bb576107ba6106a6565b5b5f6107c884828501610792565b91505092915050565b5f82825260208201905092915050565b7f4f6e6c79206f776e65722063616e2075706461746520746172676574206164645f8201527f7265737300000000000000000000000000000000000000000000000000000000602082015250565b5f61083b6024836107d1565b9150610846826107e1565b604082019050919050565b5f6020820190508181035f8301526108688161082f565b9050919050565b7f496e76616c6964207461726765742061646472657373000000000000000000005f82015250565b5f6108a36016836107d1565b91506108ae8261086f565b602082019050919050565b5f6020820190508181035f8301526108d081610897565b9050919050565b7f4e65772061646472657373206d75737420626520646966666572656e740000005f82015250565b5f61090b601d836107d1565b9150610916826108d7565b602082019050919050565b5f6020820190508181035f830152610938816108ff565b9050919050565b7f416d6f756e74206d7573742062652067726561746572207468616e20300000005f82015250565b5f610973601d836107d1565b915061097e8261093f565b602082019050919050565b5f6020820190508181035f8301526109a081610967565b9050919050565b5f6040820190506109ba5f83018561067e565b6109c7602083018461067e565b9392505050565b5f815190506109dc8161077c565b92915050565b5f602082840312156109f7576109f66106a6565b5b5f610a04848285016109ce565b91505092915050565b7f496e73756666696369656e7420616c6c6f77616e6365000000000000000000005f82015250565b5f610a416016836107d1565b9150610a4c82610a0d565b602082019050919050565b5f6020820190508181035f830152610a6e81610a35565b9050919050565b610a7e81610773565b82525050565b5f606082019050610a975f83018661067e565b610aa4602083018561067e565b610ab16040830184610a75565b949350505050565b5f8115159050919050565b610acd81610ab9565b8114610ad7575f5ffd5b50565b5f81519050610ae881610ac4565b92915050565b5f60208284031215610b0357610b026106a6565b5b5f610b1084828501610ada565b91505092915050565b7f5472616e73666572206661696c656400000000000000000000000000000000005f82015250565b5f610b4d600f836107d1565b9150610b5882610b19565b602082019050919050565b5f6020820190508181035f830152610b7a81610b41565b9050919050565b5f602082019050610b945f830184610a75565b9291505056fea26469706673582212200d02dcf440e2527520f3df8c03e03fd5002d5f3a25194b343d5467e1681ccaba64736f6c634300081e0033",
					"opcodes": "PUSH1 0xC0 PUSH1 0x40 MSTORE CALLVALUE DUP1 ISZERO PUSH2 0xF JUMPI PUSH0 PUSH0 REVERT JUMPDEST POP PUSH1 0x40 MLOAD PUSH2 0xF3D CODESIZE SUB DUP1 PUSH2 0xF3D DUP4 CODECOPY DUP2 DUP2 ADD PUSH1 0x40 MSTORE DUP2 ADD SWAP1 PUSH2 0x31 SWAP2 SWAP1 PUSH2 0x219 JUMP JUMPDEST PUSH0 PUSH20 0xFFFFFFFFFFFFFFFFFFFFFFFFFFFFFFFFFFFFFFFF AND DUP3 PUSH20 0xFFFFFFFFFFFFFFFFFFFFFFFFFFFFFFFFFFFFFFFF AND SUB PUSH2 0x9F JUMPI PUSH1 0x40 MLOAD PUSH32 0x8C379A000000000000000000000000000000000000000000000000000000000 DUP2 MSTORE PUSH1 0x4 ADD PUSH2 0x96 SWAP1 PUSH2 0x2B1 JUMP JUMPDEST PUSH1 0x40 MLOAD DUP1 SWAP2 SUB SWAP1 REVERT JUMPDEST PUSH0 PUSH20 0xFFFFFFFFFFFFFFFFFFFFFFFFFFFFFFFFFFFFFFFF AND DUP2 PUSH20 0xFFFFFFFFFFFFFFFFFFFFFFFFFFFFFFFFFFFFFFFF AND SUB PUSH2 0x10D JUMPI PUSH1 0x40 MLOAD PUSH32 0x8C379A000000000000000000000000000000000000000000000000000000000 DUP2 MSTORE PUSH1 0x4 ADD PUSH2 0x104 SWAP1 PUSH2 0x319 JUMP JUMPDEST PUSH1 0x40 MLOAD DUP1 SWAP2 SUB SWAP1 REVERT JUMPDEST DUP2 PUSH20 0xFFFFFFFFFFFFFFFFFFFFFFFFFFFFFFFFFFFFFFFF AND PUSH1 0x80 DUP2 PUSH20 0xFFFFFFFFFFFFFFFFFFFFFFFFFFFFFFFFFFFFFFFF AND DUP2 MSTORE POP POP DUP1 PUSH0 PUSH0 PUSH2 0x100 EXP DUP2 SLOAD DUP2 PUSH20 0xFFFFFFFFFFFFFFFFFFFFFFFFFFFFFFFFFFFFFFFF MUL NOT AND SWAP1 DUP4 PUSH20 0xFFFFFFFFFFFFFFFFFFFFFFFFFFFFFFFFFFFFFFFF AND MUL OR SWAP1 SSTORE POP CALLER PUSH20 0xFFFFFFFFFFFFFFFFFFFFFFFFFFFFFFFFFFFFFFFF AND PUSH1 0xA0 DUP2 PUSH20 0xFFFFFFFFFFFFFFFFFFFFFFFFFFFFFFFFFFFFFFFF AND DUP2 MSTORE POP POP POP POP PUSH2 0x337 JUMP JUMPDEST PUSH0 PUSH0 REVERT JUMPDEST PUSH0 PUSH20 0xFFFFFFFFFFFFFFFFFFFFFFFFFFFFFFFFFFFFFFFF DUP3 AND SWAP1 POP SWAP2 SWAP1 POP JUMP JUMPDEST PUSH0 PUSH2 0x1E8 DUP3 PUSH2 0x1BF JUMP JUMPDEST SWAP1 POP SWAP2 SWAP1 POP JUMP JUMPDEST PUSH2 0x1F8 DUP2 PUSH2 0x1DE JUMP JUMPDEST DUP2 EQ PUSH2 0x202 JUMPI PUSH0 PUSH0 REVERT JUMPDEST POP JUMP JUMPDEST PUSH0 DUP2 MLOAD SWAP1 POP PUSH2 0x213 DUP2 PUSH2 0x1EF JUMP JUMPDEST SWAP3 SWAP2 POP POP JUMP JUMPDEST PUSH0 PUSH0 PUSH1 0x40 DUP4 DUP6 SUB SLT ISZERO PUSH2 0x22F JUMPI PUSH2 0x22E PUSH2 0x1BB JUMP JUMPDEST JUMPDEST PUSH0 PUSH2 0x23C DUP6 DUP3 DUP7 ADD PUSH2 0x205 JUMP JUMPDEST SWAP3 POP POP PUSH1 0x20 PUSH2 0x24D DUP6 DUP3 DUP7 ADD PUSH2 0x205 JUMP JUMPDEST SWAP2 POP POP SWAP3 POP SWAP3 SWAP1 POP JUMP JUMPDEST PUSH0 DUP3 DUP3 MSTORE PUSH1 0x20 DUP3 ADD SWAP1 POP SWAP3 SWAP2 POP POP JUMP JUMPDEST PUSH32 0x496E76616C696420746F6B656E20616464726573730000000000000000000000 PUSH0 DUP3 ADD MSTORE POP JUMP JUMPDEST PUSH0 PUSH2 0x29B PUSH1 0x15 DUP4 PUSH2 0x257 JUMP JUMPDEST SWAP2 POP PUSH2 0x2A6 DUP3 PUSH2 0x267 JUMP JUMPDEST PUSH1 0x20 DUP3 ADD SWAP1 POP SWAP2 SWAP1 POP JUMP JUMPDEST PUSH0 PUSH1 0x20 DUP3 ADD SWAP1 POP DUP2 DUP2 SUB PUSH0 DUP4 ADD MSTORE PUSH2 0x2C8 DUP2 PUSH2 0x28F JUMP JUMPDEST SWAP1 POP SWAP2 SWAP1 POP JUMP JUMPDEST PUSH32 0x496E76616C696420746172676574206164647265737300000000000000000000 PUSH0 DUP3 ADD MSTORE POP JUMP JUMPDEST PUSH0 PUSH2 0x303 PUSH1 0x16 DUP4 PUSH2 0x257 JUMP JUMPDEST SWAP2 POP PUSH2 0x30E DUP3 PUSH2 0x2CF JUMP JUMPDEST PUSH1 0x20 DUP3 ADD SWAP1 POP SWAP2 SWAP1 POP JUMP JUMPDEST PUSH0 PUSH1 0x20 DUP3 ADD SWAP1 POP DUP2 DUP2 SUB PUSH0 DUP4 ADD MSTORE PUSH2 0x330 DUP2 PUSH2 0x2F7 JUMP JUMPDEST SWAP1 POP SWAP2 SWAP1 POP JUMP JUMPDEST PUSH1 0x80 MLOAD PUSH1 0xA0 MLOAD PUSH2 0xBD0 PUSH2 0x36D PUSH0 CODECOPY PUSH0 DUP2 DUP2 PUSH2 0x111 ADD MSTORE PUSH2 0x35C ADD MSTORE PUSH0 DUP2 DUP2 PUSH2 0x380 ADD MSTORE DUP2 DUP2 PUSH2 0x3E7 ADD MSTORE PUSH2 0x4C7 ADD MSTORE PUSH2 0xBD0 PUSH0 RETURN INVALID PUSH1 0x80 PUSH1 0x40 MSTORE CALLVALUE DUP1 ISZERO PUSH2 0xF JUMPI PUSH0 PUSH0 REVERT JUMPDEST POP PUSH1 0x4 CALLDATASIZE LT PUSH2 0x55 JUMPI PUSH0 CALLDATALOAD PUSH1 0xE0 SHR DUP1 PUSH4 0x5210EB56 EQ PUSH2 0x59 JUMPI DUP1 PUSH4 0x7603EFB9 EQ PUSH2 0x77 JUMPI DUP1 PUSH4 0x8DA5CB5B EQ PUSH2 0x93 JUMPI DUP1 PUSH4 0xE2379F29 EQ PUSH2 0xB1 JUMPI DUP1 PUSH4 0xFD9A4E61 EQ PUSH2 0xCF JUMPI JUMPDEST PUSH0 PUSH0 REVERT JUMPDEST PUSH2 0x61 PUSH2 0xEB JUMP JUMPDEST PUSH1 0x40 MLOAD PUSH2 0x6E SWAP2 SWAP1 PUSH2 0x68D JUMP JUMPDEST PUSH1 0x40 MLOAD DUP1 SWAP2 SUB SWAP1 RETURN JUMPDEST PUSH2 0x91 PUSH1 0x4 DUP1 CALLDATASIZE SUB DUP2 ADD SWAP1 PUSH2 0x8C SWAP2 SWAP1 PUSH2 0x6D4 JUMP JUMPDEST PUSH2 0x10F JUMP JUMPDEST STOP JUMPDEST PUSH2 0x9B PUSH2 0x35A JUMP JUMPDEST PUSH1 0x40 MLOAD PUSH2 0xA8 SWAP2 SWAP1 PUSH2 0x68D JUMP JUMPDEST PUSH1 0x40 MLOAD DUP1 SWAP2 SUB SWAP1 RETURN JUMPDEST PUSH2 0xB9 PUSH2 0x37E JUMP JUMPDEST PUSH1 0x40 MLOAD PUSH2 0xC6 SWAP2 SWAP1 PUSH2 0x75A JUMP JUMPDEST PUSH1 0x40 MLOAD DUP1 SWAP2 SUB SWAP1 RETURN JUMPDEST PUSH2 0xE9 PUSH1 0x4 DUP1 CALLDATASIZE SUB DUP2 ADD SWAP1 PUSH2 0xE4 SWAP2 SWAP1 PUSH2 0x7A6 JUMP JUMPDEST PUSH2 0x3A2 JUMP JUMPDEST STOP JUMPDEST PUSH0 PUSH0 SWAP1 SLOAD SWAP1 PUSH2 0x100 EXP SWAP1 DIV PUSH20 0xFFFFFFFFFFFFFFFFFFFFFFFFFFFFFFFFFFFFFFFF AND DUP2 JUMP JUMPDEST PUSH32 0x0 PUSH20 0xFFFFFFFFFFFFFFFFFFFFFFFFFFFFFFFFFFFFFFFF AND CALLER PUSH20 0xFFFFFFFFFFFFFFFFFFFFFFFFFFFFFFFFFFFFFFFF AND EQ PUSH2 0x19D JUMPI PUSH1 0x40 MLOAD PUSH32 0x8C379A000000000000000000000000000000000000000000000000000000000 DUP2 MSTORE PUSH1 0x4 ADD PUSH2 0x194 SWAP1 PUSH2 0x851 JUMP JUMPDEST PUSH1 0x40 MLOAD DUP1 SWAP2 SUB SWAP1 REVERT JUMPDEST PUSH0 PUSH20 0xFFFFFFFFFFFFFFFFFFFFFFFFFFFFFFFFFFFFFFFF AND DUP2 PUSH20 0xFFFFFFFFFFFFFFFFFFFFFFFFFFFFFFFFFFFFFFFF AND SUB PUSH2 0x20B JUMPI PUSH1 0x40 MLOAD PUSH32 0x8C379A000000000000000000000000000000000000000000000000000000000 DUP2 MSTORE PUSH1 0x4 ADD PUSH2 0x202 SWAP1 PUSH2 0x8B9 JUMP JUMPDEST PUSH1 0x40 MLOAD DUP1 SWAP2 SUB SWAP1 REVERT JUMPDEST PUSH0 PUSH0 SWAP1 SLOAD SWAP1 PUSH2 0x100 EXP SWAP1 DIV PUSH20 0xFFFFFFFFFFFFFFFFFFFFFFFFFFFFFFFFFFFFFFFF AND PUSH20 0xFFFFFFFFFFFFFFFFFFFFFFFFFFFFFFFFFFFFFFFF AND DUP2 PUSH20 0xFFFFFFFFFFFFFFFFFFFFFFFFFFFFFFFFFFFFFFFF AND SUB PUSH2 0x299 JUMPI PUSH1 0x40 MLOAD PUSH32 0x8C379A000000000000000000000000000000000000000000000000000000000 DUP2 MSTORE PUSH1 0x4 ADD PUSH2 0x290 SWAP1 PUSH2 0x921 JUMP JUMPDEST PUSH1 0x40 MLOAD DUP1 SWAP2 SUB SWAP1 REVERT JUMPDEST PUSH0 PUSH0 PUSH0 SWAP1 SLOAD SWAP1 PUSH2 0x100 EXP SWAP1 DIV PUSH20 0xFFFFFFFFFFFFFFFFFFFFFFFFFFFFFFFFFFFFFFFF AND SWAP1 POP DUP2 PUSH0 PUSH0 PUSH2 0x100 EXP DUP2 SLOAD DUP2 PUSH20 0xFFFFFFFFFFFFFFFFFFFFFFFFFFFFFFFFFFFFFFFF MUL NOT AND SWAP1 DUP4 PUSH20 0xFFFFFFFFFFFFFFFFFFFFFFFFFFFFFFFFFFFFFFFF AND MUL OR SWAP1 SSTORE POP DUP2 PUSH20 0xFFFFFFFFFFFFFFFFFFFFFFFFFFFFFFFFFFFFFFFF AND DUP2 PUSH20 0xFFFFFFFFFFFFFFFFFFFFFFFFFFFFFFFFFFFFFFFF AND PUSH32 0x862DB0AC244A7C196EC4A30ABF1B83CC045D2351899EF43B3D530D4E78949DE3 PUSH1 0x40 MLOAD PUSH1 0x40 MLOAD DUP1 SWAP2 SUB SWAP1 LOG3 POP POP JUMP JUMPDEST PUSH32 0x0 DUP2 JUMP JUMPDEST PUSH32 0x0 DUP2 JUMP JUMPDEST PUSH0 DUP2 GT PUSH2 0x3E4 JUMPI PUSH1 0x40 MLOAD PUSH32 0x8C379A000000000000000000000000000000000000000000000000000000000 DUP2 MSTORE PUSH1 0x4 ADD PUSH2 0x3DB SWAP1 PUSH2 0x989 JUMP JUMPDEST PUSH1 0x40 MLOAD DUP1 SWAP2 SUB SWAP1 REVERT JUMPDEST PUSH0 PUSH32 0x0 PUSH20 0xFFFFFFFFFFFFFFFFFFFFFFFFFFFFFFFFFFFFFFFF AND PUSH4 0xDD62ED3E CALLER ADDRESS PUSH1 0x40 MLOAD DUP4 PUSH4 0xFFFFFFFF AND PUSH1 0xE0 SHL DUP2 MSTORE PUSH1 0x4 ADD PUSH2 0x440 SWAP3 SWAP2 SWAP1 PUSH2 0x9A7 JUMP JUMPDEST PUSH1 0x20 PUSH1 0x40 MLOAD DUP1 DUP4 SUB DUP2 DUP7 GAS STATICCALL ISZERO DUP1 ISZERO PUSH2 0x45B JUMPI RETURNDATASIZE PUSH0 PUSH0 RETURNDATACOPY RETURNDATASIZE PUSH0 REVERT JUMPDEST POP POP POP POP PUSH1 0x40 MLOAD RETURNDATASIZE PUSH1 0x1F NOT PUSH1 0x1F DUP3 ADD AND DUP3 ADD DUP1 PUSH1 0x40 MSTORE POP DUP2 ADD SWAP1 PUSH2 0x47F SWAP2 SWAP1 PUSH2 0x9E2 JUMP JUMPDEST SWAP1 POP DUP2 DUP2 LT ISZERO PUSH2 0x4C4 JUMPI PUSH1 0x40 MLOAD PUSH32 0x8C379A000000000000000000000000000000000000000000000000000000000 DUP2 MSTORE PUSH1 0x4 ADD PUSH2 0x4BB SWAP1 PUSH2 0xA57 JUMP JUMPDEST PUSH1 0x40 MLOAD DUP1 SWAP2 SUB SWAP1 REVERT JUMPDEST PUSH0 PUSH32 0x0 PUSH20 0xFFFFFFFFFFFFFFFFFFFFFFFFFFFFFFFFFFFFFFFF AND PUSH4 0x23B872DD CALLER PUSH0 PUSH0 SWAP1 SLOAD SWAP1 PUSH2 0x100 EXP SWAP1 DIV PUSH20 0xFFFFFFFFFFFFFFFFFFFFFFFFFFFFFFFFFFFFFFFF AND DUP7 PUSH1 0x40 MLOAD DUP5 PUSH4 0xFFFFFFFF AND PUSH1 0xE0 SHL DUP2 MSTORE PUSH1 0x4 ADD PUSH2 0x542 SWAP4 SWAP3 SWAP2 SWAP1 PUSH2 0xA84 JUMP JUMPDEST PUSH1 0x20 PUSH1 0x40 MLOAD DUP1 DUP4 SUB DUP2 PUSH0 DUP8 GAS CALL ISZERO DUP1 ISZERO PUSH2 0x55E JUMPI RETURNDATASIZE PUSH0 PUSH0 RETURNDATACOPY RETURNDATASIZE PUSH0 REVERT JUMPDEST POP POP POP POP PUSH1 0x40 MLOAD RETURNDATASIZE PUSH1 0x1F NOT PUSH1 0x1F DUP3 ADD AND DUP3 ADD DUP1 PUSH1 0x40 MSTORE POP DUP2 ADD SWAP1 PUSH2 0x582 SWAP2 SWAP1 PUSH2 0xAEE JUMP JUMPDEST SWAP1 POP DUP1 PUSH2 0x5C4 JUMPI PUSH1 0x40 MLOAD PUSH32 0x8C379A000000000000000000000000000000000000000000000000000000000 DUP2 MSTORE PUSH1 0x4 ADD PUSH2 0x5BB SWAP1 PUSH2 0xB63 JUMP JUMPDEST PUSH1 0x40 MLOAD DUP1 SWAP2 SUB SWAP1 REVERT JUMPDEST PUSH0 PUSH0 SWAP1 SLOAD SWAP1 PUSH2 0x100 EXP SWAP1 DIV PUSH20 0xFFFFFFFFFFFFFFFFFFFFFFFFFFFFFFFFFFFFFFFF AND PUSH20 0xFFFFFFFFFFFFFFFFFFFFFFFFFFFFFFFFFFFFFFFF AND CALLER PUSH20 0xFFFFFFFFFFFFFFFFFFFFFFFFFFFFFFFFFFFFFFFF AND PUSH32 0x2DC85ECD41A2E25618AF6E007ABB3CE1EE081D7934FDB986D94C9CB2E0763BEF DUP6 PUSH1 0x40 MLOAD PUSH2 0x641 SWAP2 SWAP1 PUSH2 0xB81 JUMP JUMPDEST PUSH1 0x40 MLOAD DUP1 SWAP2 SUB SWAP1 LOG3 POP POP POP JUMP JUMPDEST PUSH0 PUSH20 0xFFFFFFFFFFFFFFFFFFFFFFFFFFFFFFFFFFFFFFFF DUP3 AND SWAP1 POP SWAP2 SWAP1 POP JUMP JUMPDEST PUSH0 PUSH2 0x677 DUP3 PUSH2 0x64E JUMP JUMPDEST SWAP1 POP SWAP2 SWAP1 POP JUMP JUMPDEST PUSH2 0x687 DUP2 PUSH2 0x66D JUMP JUMPDEST DUP3 MSTORE POP POP JUMP JUMPDEST PUSH0 PUSH1 0x20 DUP3 ADD SWAP1 POP PUSH2 0x6A0 PUSH0 DUP4 ADD DUP5 PUSH2 0x67E JUMP JUMPDEST SWAP3 SWAP2 POP POP JUMP JUMPDEST PUSH0 PUSH0 REVERT JUMPDEST PUSH2 0x6B3 DUP2 PUSH2 0x66D JUMP JUMPDEST DUP2 EQ PUSH2 0x6BD JUMPI PUSH0 PUSH0 REVERT JUMPDEST POP JUMP JUMPDEST PUSH0 DUP2 CALLDATALOAD SWAP1 POP PUSH2 0x6CE DUP2 PUSH2 0x6AA JUMP JUMPDEST SWAP3 SWAP2 POP POP JUMP JUMPDEST PUSH0 PUSH1 0x20 DUP3 DUP5 SUB SLT ISZERO PUSH2 0x6E9 JUMPI PUSH2 0x6E8 PUSH2 0x6A6 JUMP JUMPDEST JUMPDEST PUSH0 PUSH2 0x6F6 DUP5 DUP3 DUP6 ADD PUSH2 0x6C0 JUMP JUMPDEST SWAP2 POP POP SWAP3 SWAP2 POP POP JUMP JUMPDEST PUSH0 DUP2 SWAP1 POP SWAP2 SWAP1 POP JUMP JUMPDEST PUSH0 PUSH2 0x722 PUSH2 0x71D PUSH2 0x718 DUP5 PUSH2 0x64E JUMP JUMPDEST PUSH2 0x6FF JUMP JUMPDEST PUSH2 0x64E JUMP JUMPDEST SWAP1 POP SWAP2 SWAP1 POP JUMP JUMPDEST PUSH0 PUSH2 0x733 DUP3 PUSH2 0x708 JUMP JUMPDEST SWAP1 POP SWAP2 SWAP1 POP JUMP JUMPDEST PUSH0 PUSH2 0x744 DUP3 PUSH2 0x729 JUMP JUMPDEST SWAP1 POP SWAP2 SWAP1 POP JUMP JUMPDEST PUSH2 0x754 DUP2 PUSH2 0x73A JUMP JUMPDEST DUP3 MSTORE POP POP JUMP JUMPDEST PUSH0 PUSH1 0x20 DUP3 ADD SWAP1 POP PUSH2 0x76D PUSH0 DUP4 ADD DUP5 PUSH2 0x74B JUMP JUMPDEST SWAP3 SWAP2 POP POP JUMP JUMPDEST PUSH0 DUP2 SWAP1 POP SWAP2 SWAP1 POP JUMP JUMPDEST PUSH2 0x785 DUP2 PUSH2 0x773 JUMP JUMPDEST DUP2 EQ PUSH2 0x78F JUMPI PUSH0 PUSH0 REVERT JUMPDEST POP JUMP JUMPDEST PUSH0 DUP2 CALLDATALOAD SWAP1 POP PUSH2 0x7A0 DUP2 PUSH2 0x77C JUMP JUMPDEST SWAP3 SWAP2 POP POP JUMP JUMPDEST PUSH0 PUSH1 0x20 DUP3 DUP5 SUB SLT ISZERO PUSH2 0x7BB JUMPI PUSH2 0x7BA PUSH2 0x6A6 JUMP JUMPDEST JUMPDEST PUSH0 PUSH2 0x7C8 DUP5 DUP3 DUP6 ADD PUSH2 0x792 JUMP JUMPDEST SWAP2 POP POP SWAP3 SWAP2 POP POP JUMP JUMPDEST PUSH0 DUP3 DUP3 MSTORE PUSH1 0x20 DUP3 ADD SWAP1 POP SWAP3 SWAP2 POP POP JUMP JUMPDEST PUSH32 0x4F6E6C79206F776E65722063616E207570646174652074617267657420616464 PUSH0 DUP3 ADD MSTORE PUSH32 0x7265737300000000000000000000000000000000000000000000000000000000 PUSH1 0x20 DUP3 ADD MSTORE POP JUMP JUMPDEST PUSH0 PUSH2 0x83B PUSH1 0x24 DUP4 PUSH2 0x7D1 JUMP JUMPDEST SWAP2 POP PUSH2 0x846 DUP3 PUSH2 0x7E1 JUMP JUMPDEST PUSH1 0x40 DUP3 ADD SWAP1 POP SWAP2 SWAP1 POP JUMP JUMPDEST PUSH0 PUSH1 0x20 DUP3 ADD SWAP1 POP DUP2 DUP2 SUB PUSH0 DUP4 ADD MSTORE PUSH2 0x868 DUP2 PUSH2 0x82F JUMP JUMPDEST SWAP1 POP SWAP2 SWAP1 POP JUMP JUMPDEST PUSH32 0x496E76616C696420746172676574206164647265737300000000000000000000 PUSH0 DUP3 ADD MSTORE POP JUMP JUMPDEST PUSH0 PUSH2 0x8A3 PUSH1 0x16 DUP4 PUSH2 0x7D1 JUMP JUMPDEST SWAP2 POP PUSH2 0x8AE DUP3 PUSH2 0x86F JUMP JUMPDEST PUSH1 0x20 DUP3 ADD SWAP1 POP SWAP2 SWAP1 POP JUMP JUMPDEST PUSH0 PUSH1 0x20 DUP3 ADD SWAP1 POP DUP2 DUP2 SUB PUSH0 DUP4 ADD MSTORE PUSH2 0x8D0 DUP2 PUSH2 0x897 JUMP JUMPDEST SWAP1 POP SWAP2 SWAP1 POP JUMP JUMPDEST PUSH32 0x4E65772061646472657373206D75737420626520646966666572656E74000000 PUSH0 DUP3 ADD MSTORE POP JUMP JUMPDEST PUSH0 PUSH2 0x90B PUSH1 0x1D DUP4 PUSH2 0x7D1 JUMP JUMPDEST SWAP2 POP PUSH2 0x916 DUP3 PUSH2 0x8D7 JUMP JUMPDEST PUSH1 0x20 DUP3 ADD SWAP1 POP SWAP2 SWAP1 POP JUMP JUMPDEST PUSH0 PUSH1 0x20 DUP3 ADD SWAP1 POP DUP2 DUP2 SUB PUSH0 DUP4 ADD MSTORE PUSH2 0x938 DUP2 PUSH2 0x8FF JUMP JUMPDEST SWAP1 POP SWAP2 SWAP1 POP JUMP JUMPDEST PUSH32 0x416D6F756E74206D7573742062652067726561746572207468616E2030000000 PUSH0 DUP3 ADD MSTORE POP JUMP JUMPDEST PUSH0 PUSH2 0x973 PUSH1 0x1D DUP4 PUSH2 0x7D1 JUMP JUMPDEST SWAP2 POP PUSH2 0x97E DUP3 PUSH2 0x93F JUMP JUMPDEST PUSH1 0x20 DUP3 ADD SWAP1 POP SWAP2 SWAP1 POP JUMP JUMPDEST PUSH0 PUSH1 0x20 DUP3 ADD SWAP1 POP DUP2 DUP2 SUB PUSH0 DUP4 ADD MSTORE PUSH2 0x9A0 DUP2 PUSH2 0x967 JUMP JUMPDEST SWAP1 POP SWAP2 SWAP1 POP JUMP JUMPDEST PUSH0 PUSH1 0x40 DUP3 ADD SWAP1 POP PUSH2 0x9BA PUSH0 DUP4 ADD DUP6 PUSH2 0x67E JUMP JUMPDEST PUSH2 0x9C7 PUSH1 0x20 DUP4 ADD DUP5 PUSH2 0x67E JUMP JUMPDEST SWAP4 SWAP3 POP POP POP JUMP JUMPDEST PUSH0 DUP2 MLOAD SWAP1 POP PUSH2 0x9DC DUP2 PUSH2 0x77C JUMP JUMPDEST SWAP3 SWAP2 POP POP JUMP JUMPDEST PUSH0 PUSH1 0x20 DUP3 DUP5 SUB SLT ISZERO PUSH2 0x9F7 JUMPI PUSH2 0x9F6 PUSH2 0x6A6 JUMP JUMPDEST JUMPDEST PUSH0 PUSH2 0xA04 DUP5 DUP3 DUP6 ADD PUSH2 0x9CE JUMP JUMPDEST SWAP2 POP POP SWAP3 SWAP2 POP POP JUMP JUMPDEST PUSH32 0x496E73756666696369656E7420616C6C6F77616E636500000000000000000000 PUSH0 DUP3 ADD MSTORE POP JUMP JUMPDEST PUSH0 PUSH2 0xA41 PUSH1 0x16 DUP4 PUSH2 0x7D1 JUMP JUMPDEST SWAP2 POP PUSH2 0xA4C DUP3 PUSH2 0xA0D JUMP JUMPDEST PUSH1 0x20 DUP3 ADD SWAP1 POP SWAP2 SWAP1 POP JUMP JUMPDEST PUSH0 PUSH1 0x20 DUP3 ADD SWAP1 POP DUP2 DUP2 SUB PUSH0 DUP4 ADD MSTORE PUSH2 0xA6E DUP2 PUSH2 0xA35 JUMP JUMPDEST SWAP1 POP SWAP2 SWAP1 POP JUMP JUMPDEST PUSH2 0xA7E DUP2 PUSH2 0x773 JUMP JUMPDEST DUP3 MSTORE POP POP JUMP JUMPDEST PUSH0 PUSH1 0x60 DUP3 ADD SWAP1 POP PUSH2 0xA97 PUSH0 DUP4 ADD DUP7 PUSH2 0x67E JUMP JUMPDEST PUSH2 0xAA4 PUSH1 0x20 DUP4 ADD DUP6 PUSH2 0x67E JUMP JUMPDEST PUSH2 0xAB1 PUSH1 0x40 DUP4 ADD DUP5 PUSH2 0xA75 JUMP JUMPDEST SWAP5 SWAP4 POP POP POP POP JUMP JUMPDEST PUSH0 DUP2 ISZERO ISZERO SWAP1 POP SWAP2 SWAP1 POP JUMP JUMPDEST PUSH2 0xACD DUP2 PUSH2 0xAB9 JUMP JUMPDEST DUP2 EQ PUSH2 0xAD7 JUMPI PUSH0 PUSH0 REVERT JUMPDEST POP JUMP JUMPDEST PUSH0 DUP2 MLOAD SWAP1 POP PUSH2 0xAE8 DUP2 PUSH2 0xAC4 JUMP JUMPDEST SWAP3 SWAP2 POP POP JUMP JUMPDEST PUSH0 PUSH1 0x20 DUP3 DUP5 SUB SLT ISZERO PUSH2 0xB03 JUMPI PUSH2 0xB02 PUSH2 0x6A6 JUMP JUMPDEST JUMPDEST PUSH0 PUSH2 0xB10 DUP5 DUP3 DUP6 ADD PUSH2 0xADA JUMP JUMPDEST SWAP2 POP POP SWAP3 SWAP2 POP POP JUMP JUMPDEST PUSH32 0x5472616E73666572206661696C65640000000000000000000000000000000000 PUSH0 DUP3 ADD MSTORE POP JUMP JUMPDEST PUSH0 PUSH2 0xB4D PUSH1 0xF DUP4 PUSH2 0x7D1 JUMP JUMPDEST SWAP2 POP PUSH2 0xB58 DUP3 PUSH2 0xB19 JUMP JUMPDEST PUSH1 0x20 DUP3 ADD SWAP1 POP SWAP2 SWAP1 POP JUMP JUMPDEST PUSH0 PUSH1 0x20 DUP3 ADD SWAP1 POP DUP2 DUP2 SUB PUSH0 DUP4 ADD MSTORE PUSH2 0xB7A DUP2 PUSH2 0xB41 JUMP JUMPDEST SWAP1 POP SWAP2 SWAP1 POP JUMP JUMPDEST PUSH0 PUSH1 0x20 DUP3 ADD SWAP1 POP PUSH2 0xB94 PUSH0 DUP4 ADD DUP5 PUSH2 0xA75 JUMP JUMPDEST SWAP3 SWAP2 POP POP JUMP INVALID LOG2 PUSH5 0x6970667358 0x22 SLT KECCAK256 0xD MUL 0xDC DELEGATECALL BLOCKHASH 0xE2 MSTORE PUSH22 0x20F3DF8C03E03FD5002D5F3A25194B343D5467E1681C 0xCA 0xBA PUSH5 0x736F6C6343 STOP ADDMOD 0x1E STOP CALLER "
				},
				"gasEstimates": {
					"creation": {
						"codeDepositCost": "604800",
						"executionCost": "infinite",
						"totalCost": "infinite"
					},
					"external": {
						"cctToken()": "infinite",
						"owner()": "infinite",
						"targetAddress()": "2485",
						"transferTokens(uint256)": "infinite",
						"updateTargetAddress(address)": "infinite"
					}
				},
				"methodIdentifiers": {
					"cctToken()": "e2379f29",
					"owner()": "8da5cb5b",
					"targetAddress()": "5210eb56",
					"transferTokens(uint256)": "fd9a4e61",
					"updateTargetAddress(address)": "7603efb9"
				}
			},
			"storageLayout": {
				"storage": [
					{
						"astId": 82,
						"contract": "contracts/ces/test2.sol:CCTTransfer",
						"label": "targetAddress",
						"offset": 0,
						"slot": "0",
						"type": "t_address"
					}
				],
				"types": {
					"t_address": {
						"encoding": "inplace",
						"label": "address",
						"numberOfBytes": "20"
					}
				}
			},
			"userdoc": {
				"kind": "user",
				"methods": {},
				"version": 1
			}
		}
	}
}