{
	"contracts/ces/test2.sol": {
		"TestUSDT": {
			"abi": [
				{
					"inputs": [
						{
							"internalType": "address[]",
							"name": "recipients",
							"type": "address[]"
						},
						{
							"internalType": "uint256[]",
							"name": "amounts",
							"type": "uint256[]"
						}
					],
					"stateMutability": "nonpayable",
					"type": "constructor"
				},
				{
					"inputs": [
						{
							"internalType": "address",
							"name": "spender",
							"type": "address"
						},
						{
							"internalType": "uint256",
							"name": "allowance",
							"type": "uint256"
						},
						{
							"internalType": "uint256",
							"name": "needed",
							"type": "uint256"
						}
					],
					"name": "ERC20InsufficientAllowance",
					"type": "error"
				},
				{
					"inputs": [
						{
							"internalType": "address",
							"name": "sender",
							"type": "address"
						},
						{
							"internalType": "uint256",
							"name": "balance",
							"type": "uint256"
						},
						{
							"internalType": "uint256",
							"name": "needed",
							"type": "uint256"
						}
					],
					"name": "ERC20InsufficientBalance",
					"type": "error"
				},
				{
					"inputs": [
						{
							"internalType": "address",
							"name": "approver",
							"type": "address"
						}
					],
					"name": "ERC20InvalidApprover",
					"type": "error"
				},
				{
					"inputs": [
						{
							"internalType": "address",
							"name": "receiver",
							"type": "address"
						}
					],
					"name": "ERC20InvalidReceiver",
					"type": "error"
				},
				{
					"inputs": [
						{
							"internalType": "address",
							"name": "sender",
							"type": "address"
						}
					],
					"name": "ERC20InvalidSender",
					"type": "error"
				},
				{
					"inputs": [
						{
							"internalType": "address",
							"name": "spender",
							"type": "address"
						}
					],
					"name": "ERC20InvalidSpender",
					"type": "error"
				},
				{
					"inputs": [
						{
							"internalType": "address",
							"name": "owner",
							"type": "address"
						}
					],
					"name": "OwnableInvalidOwner",
					"type": "error"
				},
				{
					"inputs": [
						{
							"internalType": "address",
							"name": "account",
							"type": "address"
						}
					],
					"name": "OwnableUnauthorizedAccount",
					"type": "error"
				},
				{
					"anonymous": false,
					"inputs": [
						{
							"indexed": true,
							"internalType": "address",
							"name": "owner",
							"type": "address"
						},
						{
							"indexed": true,
							"internalType": "address",
							"name": "spender",
							"type": "address"
						},
						{
							"indexed": false,
							"internalType": "uint256",
							"name": "value",
							"type": "uint256"
						}
					],
					"name": "Approval",
					"type": "event"
				},
				{
					"anonymous": false,
					"inputs": [
						{
							"indexed": true,
							"internalType": "address",
							"name": "previousOwner",
							"type": "address"
						},
						{
							"indexed": true,
							"internalType": "address",
							"name": "newOwner",
							"type": "address"
						}
					],
					"name": "OwnershipTransferred",
					"type": "event"
				},
				{
					"anonymous": false,
					"inputs": [
						{
							"indexed": true,
							"internalType": "address",
							"name": "from",
							"type": "address"
						},
						{
							"indexed": true,
							"internalType": "address",
							"name": "to",
							"type": "address"
						},
						{
							"indexed": false,
							"internalType": "uint256",
							"name": "value",
							"type": "uint256"
						}
					],
					"name": "Transfer",
					"type": "event"
				},
				{
					"inputs": [
						{
							"internalType": "address",
							"name": "owner",
							"type": "address"
						},
						{
							"internalType": "address",
							"name": "spender",
							"type": "address"
						}
					],
					"name": "allowance",
					"outputs": [
						{
							"internalType": "uint256",
							"name": "",
							"type": "uint256"
						}
					],
					"stateMutability": "view",
					"type": "function"
				},
				{
					"inputs": [
						{
							"internalType": "address",
							"name": "spender",
							"type": "address"
						},
						{
							"internalType": "uint256",
							"name": "value",
							"type": "uint256"
						}
					],
					"name": "approve",
					"outputs": [
						{
							"internalType": "bool",
							"name": "",
							"type": "bool"
						}
					],
					"stateMutability": "nonpayable",
					"type": "function"
				},
				{
					"inputs": [
						{
							"internalType": "address",
							"name": "account",
							"type": "address"
						}
					],
					"name": "balanceOf",
					"outputs": [
						{
							"internalType": "uint256",
							"name": "",
							"type": "uint256"
						}
					],
					"stateMutability": "view",
					"type": "function"
				},
				{
					"inputs": [],
					"name": "decimals",
					"outputs": [
						{
							"internalType": "uint8",
							"name": "",
							"type": "uint8"
						}
					],
					"stateMutability": "view",
					"type": "function"
				},
				{
					"inputs": [
						{
							"internalType": "address[]",
							"name": "recipients",
							"type": "address[]"
						},
						{
							"internalType": "uint256[]",
							"name": "amounts",
							"type": "uint256[]"
						}
					],
					"name": "distributeTokens",
					"outputs": [],
					"stateMutability": "nonpayable",
					"type": "function"
				},
				{
					"inputs": [],
					"name": "name",
					"outputs": [
						{
							"internalType": "string",
							"name": "",
							"type": "string"
						}
					],
					"stateMutability": "view",
					"type": "function"
				},
				{
					"inputs": [],
					"name": "owner",
					"outputs": [
						{
							"internalType": "address",
							"name": "",
							"type": "address"
						}
					],
					"stateMutability": "view",
					"type": "function"
				},
				{
					"inputs": [],
					"name": "renounceOwnership",
					"outputs": [],
					"stateMutability": "nonpayable",
					"type": "function"
				},
				{
					"inputs": [],
					"name": "symbol",
					"outputs": [
						{
							"internalType": "string",
							"name": "",
							"type": "string"
						}
					],
					"stateMutability": "view",
					"type": "function"
				},
				{
					"inputs": [],
					"name": "totalSupply",
					"outputs": [
						{
							"internalType": "uint256",
							"name": "",
							"type": "uint256"
						}
					],
					"stateMutability": "view",
					"type": "function"
				},
				{
					"inputs": [
						{
							"internalType": "address",
							"name": "to",
							"type": "address"
						},
						{
							"internalType": "uint256",
							"name": "value",
							"type": "uint256"
						}
					],
					"name": "transfer",
					"outputs": [
						{
							"internalType": "bool",
							"name": "",
							"type": "bool"
						}
					],
					"stateMutability": "nonpayable",
					"type": "function"
				},
				{
					"inputs": [
						{
							"internalType": "address",
							"name": "from",
							"type": "address"
						},
						{
							"internalType": "address",
							"name": "to",
							"type": "address"
						},
						{
							"internalType": "uint256",
							"name": "value",
							"type": "uint256"
						}
					],
					"name": "transferFrom",
					"outputs": [
						{
							"internalType": "bool",
							"name": "",
							"type": "bool"
						}
					],
					"stateMutability": "nonpayable",
					"type": "function"
				},
				{
					"inputs": [
						{
							"internalType": "address",
							"name": "newOwner",
							"type": "address"
						}
					],
					"name": "transferOwnership",
					"outputs": [],
					"stateMutability": "nonpayable",
					"type": "function"
				}
			],
			"devdoc": {
				"errors": {
					"ERC20InsufficientAllowance(address,uint256,uint256)": [
						{
							"details": "Indicates a failure with the `spender`’s `allowance`. Used in transfers.",
							"params": {
								"allowance": "Amount of tokens a `spender` is allowed to operate with.",
								"needed": "Minimum amount required to perform a transfer.",
								"spender": "Address that may be allowed to operate on tokens without being their owner."
							}
						}
					],
					"ERC20InsufficientBalance(address,uint256,uint256)": [
						{
							"details": "Indicates an error related to the current `balance` of a `sender`. Used in transfers.",
							"params": {
								"balance": "Current balance for the interacting account.",
								"needed": "Minimum amount required to perform a transfer.",
								"sender": "Address whose tokens are being transferred."
							}
						}
					],
					"ERC20InvalidApprover(address)": [
						{
							"details": "Indicates a failure with the `approver` of a token to be approved. Used in approvals.",
							"params": {
								"approver": "Address initiating an approval operation."
							}
						}
					],
					"ERC20InvalidReceiver(address)": [
						{
							"details": "Indicates a failure with the token `receiver`. Used in transfers.",
							"params": {
								"receiver": "Address to which tokens are being transferred."
							}
						}
					],
					"ERC20InvalidSender(address)": [
						{
							"details": "Indicates a failure with the token `sender`. Used in transfers.",
							"params": {
								"sender": "Address whose tokens are being transferred."
							}
						}
					],
					"ERC20InvalidSpender(address)": [
						{
							"details": "Indicates a failure with the `spender` to be approved. Used in approvals.",
							"params": {
								"spender": "Address that may be allowed to operate on tokens without being their owner."
							}
						}
					],
					"OwnableInvalidOwner(address)": [
						{
							"details": "The owner is not a valid owner account. (eg. `address(0)`)"
						}
					],
					"OwnableUnauthorizedAccount(address)": [
						{
							"details": "The caller account is not authorized to perform an operation."
						}
					]
				},
				"events": {
					"Approval(address,address,uint256)": {
						"details": "Emitted when the allowance of a `spender` for an `owner` is set by a call to {approve}. `value` is the new allowance."
					},
					"Transfer(address,address,uint256)": {
						"details": "Emitted when `value` tokens are moved from one account (`from`) to another (`to`). Note that `value` may be zero."
					}
				},
				"kind": "dev",
				"methods": {
					"allowance(address,address)": {
						"details": "See {IERC20-allowance}."
					},
					"approve(address,uint256)": {
						"details": "See {IERC20-approve}. NOTE: If `value` is the maximum `uint256`, the allowance is not updated on `transferFrom`. This is semantically equivalent to an infinite approval. Requirements: - `spender` cannot be the zero address."
					},
					"balanceOf(address)": {
						"details": "See {IERC20-balanceOf}."
					},
					"decimals()": {
						"details": "Returns the number of decimals used to get its user representation. For example, if `decimals` equals `2`, a balance of `505` tokens should be displayed to a user as `5.05` (`505 / 10 ** 2`). Tokens usually opt for a value of 18, imitating the relationship between Ether and Wei. This is the default value returned by this function, unless it's overridden. NOTE: This information is only used for _display_ purposes: it in no way affects any of the arithmetic of the contract, including {IERC20-balanceOf} and {IERC20-transfer}."
					},
					"name()": {
						"details": "Returns the name of the token."
					},
					"owner()": {
						"details": "Returns the address of the current owner."
					},
					"renounceOwnership()": {
						"details": "Leaves the contract without owner. It will not be possible to call `onlyOwner` functions. Can only be called by the current owner. NOTE: Renouncing ownership will leave the contract without an owner, thereby disabling any functionality that is only available to the owner."
					},
					"symbol()": {
						"details": "Returns the symbol of the token, usually a shorter version of the name."
					},
					"totalSupply()": {
						"details": "See {IERC20-totalSupply}."
					},
					"transfer(address,uint256)": {
						"details": "See {IERC20-transfer}. Requirements: - `to` cannot be the zero address. - the caller must have a balance of at least `value`."
					},
					"transferFrom(address,address,uint256)": {
						"details": "See {IERC20-transferFrom}. Skips emitting an {Approval} event indicating an allowance update. This is not required by the ERC. See {xref-ERC20-_approve-address-address-uint256-bool-}[_approve]. NOTE: Does not update the allowance if the current allowance is the maximum `uint256`. Requirements: - `from` and `to` cannot be the zero address. - `from` must have a balance of at least `value`. - the caller must have allowance for ``from``'s tokens of at least `value`."
					},
					"transferOwnership(address)": {
						"details": "Transfers ownership of the contract to a new account (`newOwner`). Can only be called by the current owner."
					}
				},
				"version": 1
			},
			"evm": {
				"assembly": "    /* \"contracts/ces/test2.sol\":173:1376  contract TestUSDT is ERC20, Ownable {... */\n  mstore(0x40, 0x80)\n    /* \"contracts/ces/test2.sol\":216:799  constructor(address[] memory recipients, uint256[] memory amounts) ERC20(\"Test USDC\", \"USDC\")Ownable(msg.sender) {... */\n  callvalue\n  dup1\n  iszero\n  tag_1\n  jumpi\n  revert(0x00, 0x00)\ntag_1:\n  pop\n  mload(0x40)\n  sub(codesize, bytecodeSize)\n  dup1\n  bytecodeSize\n  dup4\n  codecopy\n  dup2\n  dup2\n  add\n  0x40\n  mstore\n  dup2\n  add\n  swap1\n  tag_2\n  swap2\n  swap1\n  tag_3\n  jump\t// in\ntag_2:\n    /* \"contracts/ces/test2.sol\":317:327  msg.sender */\n  caller\n    /* \"@openzeppelin/contracts/token/ERC20/ERC20.sol\":1582:1695  constructor(string memory name_, string memory symbol_) {... */\n  mload(0x40)\n  dup1\n  0x40\n  add\n  0x40\n  mstore\n  dup1\n  0x09\n  dup2\n  mstore\n  0x20\n  add\n  0x5465737420555344430000000000000000000000000000000000000000000000\n  dup2\n  mstore\n  pop\n  mload(0x40)\n  dup1\n  0x40\n  add\n  0x40\n  mstore\n  dup1\n  0x04\n  dup2\n  mstore\n  0x20\n  add\n  0x5553444300000000000000000000000000000000000000000000000000000000\n  dup2\n  mstore\n  pop\n    /* \"@openzeppelin/contracts/token/ERC20/ERC20.sol\":1656:1661  name_ */\n  dup2\n    /* \"@openzeppelin/contracts/token/ERC20/ERC20.sol\":1648:1653  _name */\n  0x03\n    /* \"@openzeppelin/contracts/token/ERC20/ERC20.sol\":1648:1661  _name = name_ */\n  swap1\n  dup2\n  tag_8\n  swap2\n  swap1\n  tag_9\n  jump\t// in\ntag_8:\n  pop\n    /* \"@openzeppelin/contracts/token/ERC20/ERC20.sol\":1681:1688  symbol_ */\n  dup1\n    /* \"@openzeppelin/contracts/token/ERC20/ERC20.sol\":1671:1678  _symbol */\n  0x04\n    /* \"@openzeppelin/contracts/token/ERC20/ERC20.sol\":1671:1688  _symbol = symbol_ */\n  swap1\n  dup2\n  tag_10\n  swap2\n  swap1\n  tag_9\n  jump\t// in\ntag_10:\n  pop\n    /* \"@openzeppelin/contracts/token/ERC20/ERC20.sol\":1582:1695  constructor(string memory name_, string memory symbol_) {... */\n  pop\n  pop\n    /* \"@openzeppelin/contracts/access/Ownable.sol\":1297:1298  0 */\n  0x00\n    /* \"@openzeppelin/contracts/access/Ownable.sol\":1273:1299  initialOwner == address(0) */\n  0xffffffffffffffffffffffffffffffffffffffff\n  and\n    /* \"@openzeppelin/contracts/access/Ownable.sol\":1273:1285  initialOwner */\n  dup2\n    /* \"@openzeppelin/contracts/access/Ownable.sol\":1273:1299  initialOwner == address(0) */\n  0xffffffffffffffffffffffffffffffffffffffff\n  and\n  sub\n    /* \"@openzeppelin/contracts/access/Ownable.sol\":1269:1364  if (initialOwner == address(0)) {... */\n  tag_12\n  jumpi\n    /* \"@openzeppelin/contracts/access/Ownable.sol\":1350:1351  0 */\n  0x00\n    /* \"@openzeppelin/contracts/access/Ownable.sol\":1322:1353  OwnableInvalidOwner(address(0)) */\n  mload(0x40)\n  0x1e4fbdf700000000000000000000000000000000000000000000000000000000\n  dup2\n  mstore\n  0x04\n  add\n  tag_13\n  swap2\n  swap1\n  tag_14\n  jump\t// in\ntag_13:\n  mload(0x40)\n  dup1\n  swap2\n  sub\n  swap1\n  revert\n    /* \"@openzeppelin/contracts/access/Ownable.sol\":1269:1364  if (initialOwner == address(0)) {... */\ntag_12:\n    /* \"@openzeppelin/contracts/access/Ownable.sol\":1373:1405  _transferOwnership(initialOwner) */\n  tag_15\n    /* \"@openzeppelin/contracts/access/Ownable.sol\":1392:1404  initialOwner */\n  dup2\n    /* \"@openzeppelin/contracts/access/Ownable.sol\":1373:1391  _transferOwnership */\n  shl(0x20, tag_16)\n    /* \"@openzeppelin/contracts/access/Ownable.sol\":1373:1405  _transferOwnership(initialOwner) */\n  0x20\n  shr\n  jump\t// in\ntag_15:\n    /* \"@openzeppelin/contracts/access/Ownable.sol\":1225:1412  constructor(address initialOwner) {... */\n  pop\n    /* \"contracts/ces/test2.sol\":369:376  amounts */\n  dup1\n    /* \"contracts/ces/test2.sol\":369:383  amounts.length */\n  mload\n    /* \"contracts/ces/test2.sol\":348:358  recipients */\n  dup3\n    /* \"contracts/ces/test2.sol\":348:365  recipients.length */\n  mload\n    /* \"contracts/ces/test2.sol\":348:383  recipients.length == amounts.length */\n  eq\n    /* \"contracts/ces/test2.sol\":340:426  require(recipients.length == amounts.length, \"Recipients and amounts length mismatch\") */\n  tag_18\n  jumpi\n  mload(0x40)\n  0x08c379a000000000000000000000000000000000000000000000000000000000\n  dup2\n  mstore\n  0x04\n  add\n  tag_19\n  swap1\n  tag_20\n  jump\t// in\ntag_19:\n  mload(0x40)\n  dup1\n  swap2\n  sub\n  swap1\n  revert\ntag_18:\n    /* \"contracts/ces/test2.sol\":483:502  uint256 totalSupply */\n  0x00\n    /* \"contracts/ces/test2.sol\":521:531  decimals() */\n  tag_21\n    /* \"contracts/ces/test2.sol\":521:529  decimals */\n  shl(0x20, tag_22)\n    /* \"contracts/ces/test2.sol\":521:531  decimals() */\n  0x20\n  shr\n  jump\t// in\ntag_21:\n    /* \"contracts/ces/test2.sol\":515:517  10 */\n  0x0a\n    /* \"contracts/ces/test2.sol\":515:531  10 ** decimals() */\n  tag_23\n  swap2\n  swap1\n  tag_24\n  jump\t// in\ntag_23:\n    /* \"contracts/ces/test2.sol\":505:512  200_000 */\n  0x030d40\n    /* \"contracts/ces/test2.sol\":505:531  200_000 * 10 ** decimals() */\n  tag_25\n  swap2\n  swap1\n  tag_26\n  jump\t// in\ntag_25:\n    /* \"contracts/ces/test2.sol\":483:531  uint256 totalSupply = 200_000 * 10 ** decimals() */\n  swap1\n  pop\n    /* \"contracts/ces/test2.sol\":542:575  _mint(address(this), totalSupply) */\n  tag_27\n    /* \"contracts/ces/test2.sol\":556:560  this */\n  address\n    /* \"contracts/ces/test2.sol\":563:574  totalSupply */\n  dup3\n    /* \"contracts/ces/test2.sol\":542:547  _mint */\n  shl(0x20, tag_28)\n    /* \"contracts/ces/test2.sol\":542:575  _mint(address(this), totalSupply) */\n  0x20\n  shr\n  jump\t// in\ntag_27:\n    /* \"contracts/ces/test2.sol\":652:661  uint256 i */\n  0x00\n    /* \"contracts/ces/test2.sol\":664:665  0 */\n  0x00\n    /* \"contracts/ces/test2.sol\":652:665  uint256 i = 0 */\n  swap1\n  pop\n    /* \"contracts/ces/test2.sol\":647:792  for (uint256 i = 0; i < recipients.length; i++) {... */\ntag_29:\n    /* \"contracts/ces/test2.sol\":671:681  recipients */\n  dup4\n    /* \"contracts/ces/test2.sol\":671:688  recipients.length */\n  mload\n    /* \"contracts/ces/test2.sol\":667:668  i */\n  dup2\n    /* \"contracts/ces/test2.sol\":667:688  i < recipients.length */\n  lt\n    /* \"contracts/ces/test2.sol\":647:792  for (uint256 i = 0; i < recipients.length; i++) {... */\n  iszero\n  tag_30\n  jumpi\n    /* \"contracts/ces/test2.sol\":710:780  _transfer(address(this), recipients[i], amounts[i] * 10 ** decimals()) */\n  tag_32\n    /* \"contracts/ces/test2.sol\":728:732  this */\n  address\n    /* \"contracts/ces/test2.sol\":735:745  recipients */\n  dup6\n    /* \"contracts/ces/test2.sol\":746:747  i */\n  dup4\n    /* \"contracts/ces/test2.sol\":735:748  recipients[i] */\n  dup2\n  mload\n  dup2\n  lt\n  tag_33\n  jumpi\n  tag_34\n  tag_35\n  jump\t// in\ntag_34:\ntag_33:\n  0x20\n  mul\n  0x20\n  add\n  add\n  mload\n    /* \"contracts/ces/test2.sol\":769:779  decimals() */\n  tag_36\n    /* \"contracts/ces/test2.sol\":769:777  decimals */\n  shl(0x20, tag_22)\n    /* \"contracts/ces/test2.sol\":769:779  decimals() */\n  0x20\n  shr\n  jump\t// in\ntag_36:\n    /* \"contracts/ces/test2.sol\":763:765  10 */\n  0x0a\n    /* \"contracts/ces/test2.sol\":763:779  10 ** decimals() */\n  tag_37\n  swap2\n  swap1\n  tag_24\n  jump\t// in\ntag_37:\n    /* \"contracts/ces/test2.sol\":750:757  amounts */\n  dup7\n    /* \"contracts/ces/test2.sol\":758:759  i */\n  dup6\n    /* \"contracts/ces/test2.sol\":750:760  amounts[i] */\n  dup2\n  mload\n  dup2\n  lt\n  tag_38\n  jumpi\n  tag_39\n  tag_35\n  jump\t// in\ntag_39:\ntag_38:\n  0x20\n  mul\n  0x20\n  add\n  add\n  mload\n    /* \"contracts/ces/test2.sol\":750:779  amounts[i] * 10 ** decimals() */\n  tag_40\n  swap2\n  swap1\n  tag_26\n  jump\t// in\ntag_40:\n    /* \"contracts/ces/test2.sol\":710:719  _transfer */\n  shl(0x20, tag_41)\n    /* \"contracts/ces/test2.sol\":710:780  _transfer(address(this), recipients[i], amounts[i] * 10 ** decimals()) */\n  0x20\n  shr\n  jump\t// in\ntag_32:\n    /* \"contracts/ces/test2.sol\":690:693  i++ */\n  dup1\n  dup1\n  0x01\n  add\n  swap2\n  pop\n  pop\n    /* \"contracts/ces/test2.sol\":647:792  for (uint256 i = 0; i < recipients.length; i++) {... */\n  jump(tag_29)\ntag_30:\n  pop\n    /* \"contracts/ces/test2.sol\":329:799  {... */\n  pop\n    /* \"contracts/ces/test2.sol\":216:799  constructor(address[] memory recipients, uint256[] memory amounts) ERC20(\"Test USDC\", \"USDC\")Ownable(msg.sender) {... */\n  pop\n  pop\n    /* \"contracts/ces/test2.sol\":173:1376  contract TestUSDT is ERC20, Ownable {... */\n  jump(tag_42)\n    /* \"@openzeppelin/contracts/access/Ownable.sol\":2912:3099  function _transferOwnership(address newOwner) internal virtual {... */\ntag_16:\n    /* \"@openzeppelin/contracts/access/Ownable.sol\":2985:3001  address oldOwner */\n  0x00\n    /* \"@openzeppelin/contracts/access/Ownable.sol\":3004:3010  _owner */\n  0x05\n  0x00\n  swap1\n  sload\n  swap1\n  0x0100\n  exp\n  swap1\n  div\n  0xffffffffffffffffffffffffffffffffffffffff\n  and\n    /* \"@openzeppelin/contracts/access/Ownable.sol\":2985:3010  address oldOwner = _owner */\n  swap1\n  pop\n    /* \"@openzeppelin/contracts/access/Ownable.sol\":3029:3037  newOwner */\n  dup2\n    /* \"@openzeppelin/contracts/access/Ownable.sol\":3020:3026  _owner */\n  0x05\n  0x00\n    /* \"@openzeppelin/contracts/access/Ownable.sol\":3020:3037  _owner = newOwner */\n  0x0100\n  exp\n  dup2\n  sload\n  dup2\n  0xffffffffffffffffffffffffffffffffffffffff\n  mul\n  not\n  and\n  swap1\n  dup4\n  0xffffffffffffffffffffffffffffffffffffffff\n  and\n  mul\n  or\n  swap1\n  sstore\n  pop\n    /* \"@openzeppelin/contracts/access/Ownable.sol\":3083:3091  newOwner */\n  dup2\n    /* \"@openzeppelin/contracts/access/Ownable.sol\":3052:3092  OwnershipTransferred(oldOwner, newOwner) */\n  0xffffffffffffffffffffffffffffffffffffffff\n  and\n    /* \"@openzeppelin/contracts/access/Ownable.sol\":3073:3081  oldOwner */\n  dup2\n    /* \"@openzeppelin/contracts/access/Ownable.sol\":3052:3092  OwnershipTransferred(oldOwner, newOwner) */\n  0xffffffffffffffffffffffffffffffffffffffff\n  and\n  0x8be0079c531659141344cd1fd0a4f28419497f9722a3daafe3b4186f6b6457e0\n  mload(0x40)\n  mload(0x40)\n  dup1\n  swap2\n  sub\n  swap1\n  log3\n    /* \"@openzeppelin/contracts/access/Ownable.sol\":2975:3099  {... */\n  pop\n    /* \"@openzeppelin/contracts/access/Ownable.sol\":2912:3099  function _transferOwnership(address newOwner) internal virtual {... */\n  pop\n  jump\t// out\n    /* \"@openzeppelin/contracts/token/ERC20/ERC20.sol\":2688:2770  function decimals() public view virtual returns (uint8) {... */\ntag_22:\n    /* \"@openzeppelin/contracts/token/ERC20/ERC20.sol\":2737:2742  uint8 */\n  0x00\n    /* \"@openzeppelin/contracts/token/ERC20/ERC20.sol\":2761:2763  18 */\n  0x12\n    /* \"@openzeppelin/contracts/token/ERC20/ERC20.sol\":2754:2763  return 18 */\n  swap1\n  pop\n    /* \"@openzeppelin/contracts/token/ERC20/ERC20.sol\":2688:2770  function decimals() public view virtual returns (uint8) {... */\n  swap1\n  jump\t// out\n    /* \"@openzeppelin/contracts/token/ERC20/ERC20.sol\":7439:7647  function _mint(address account, uint256 value) internal {... */\ntag_28:\n    /* \"@openzeppelin/contracts/token/ERC20/ERC20.sol\":7528:7529  0 */\n  0x00\n    /* \"@openzeppelin/contracts/token/ERC20/ERC20.sol\":7509:7530  account == address(0) */\n  0xffffffffffffffffffffffffffffffffffffffff\n  and\n    /* \"@openzeppelin/contracts/token/ERC20/ERC20.sol\":7509:7516  account */\n  dup3\n    /* \"@openzeppelin/contracts/token/ERC20/ERC20.sol\":7509:7530  account == address(0) */\n  0xffffffffffffffffffffffffffffffffffffffff\n  and\n  sub\n    /* \"@openzeppelin/contracts/token/ERC20/ERC20.sol\":7505:7596  if (account == address(0)) {... */\n  tag_46\n  jumpi\n    /* \"@openzeppelin/contracts/token/ERC20/ERC20.sol\":7582:7583  0 */\n  0x00\n    /* \"@openzeppelin/contracts/token/ERC20/ERC20.sol\":7553:7585  ERC20InvalidReceiver(address(0)) */\n  mload(0x40)\n  0xec442f0500000000000000000000000000000000000000000000000000000000\n  dup2\n  mstore\n  0x04\n  add\n  tag_47\n  swap2\n  swap1\n  tag_14\n  jump\t// in\ntag_47:\n  mload(0x40)\n  dup1\n  swap2\n  sub\n  swap1\n  revert\n    /* \"@openzeppelin/contracts/token/ERC20/ERC20.sol\":7505:7596  if (account == address(0)) {... */\ntag_46:\n    /* \"@openzeppelin/contracts/token/ERC20/ERC20.sol\":7605:7640  _update(address(0), account, value) */\n  tag_48\n    /* \"@openzeppelin/contracts/token/ERC20/ERC20.sol\":7621:7622  0 */\n  0x00\n    /* \"@openzeppelin/contracts/token/ERC20/ERC20.sol\":7625:7632  account */\n  dup4\n    /* \"@openzeppelin/contracts/token/ERC20/ERC20.sol\":7634:7639  value */\n  dup4\n    /* \"@openzeppelin/contracts/token/ERC20/ERC20.sol\":7605:7612  _update */\n  shl(0x20, tag_49)\n    /* \"@openzeppelin/contracts/token/ERC20/ERC20.sol\":7605:7640  _update(address(0), account, value) */\n  0x20\n  shr\n  jump\t// in\ntag_48:\n    /* \"@openzeppelin/contracts/token/ERC20/ERC20.sol\":7439:7647  function _mint(address account, uint256 value) internal {... */\n  pop\n  pop\n  jump\t// out\n    /* \"@openzeppelin/contracts/token/ERC20/ERC20.sol\":5374:5674  function _transfer(address from, address to, uint256 value) internal {... */\ntag_41:\n    /* \"@openzeppelin/contracts/token/ERC20/ERC20.sol\":5473:5474  0 */\n  0x00\n    /* \"@openzeppelin/contracts/token/ERC20/ERC20.sol\":5457:5475  from == address(0) */\n  0xffffffffffffffffffffffffffffffffffffffff\n  and\n    /* \"@openzeppelin/contracts/token/ERC20/ERC20.sol\":5457:5461  from */\n  dup4\n    /* \"@openzeppelin/contracts/token/ERC20/ERC20.sol\":5457:5475  from == address(0) */\n  0xffffffffffffffffffffffffffffffffffffffff\n  and\n  sub\n    /* \"@openzeppelin/contracts/token/ERC20/ERC20.sol\":5453:5539  if (from == address(0)) {... */\n  tag_51\n  jumpi\n    /* \"@openzeppelin/contracts/token/ERC20/ERC20.sol\":5525:5526  0 */\n  0x00\n    /* \"@openzeppelin/contracts/token/ERC20/ERC20.sol\":5498:5528  ERC20InvalidSender(address(0)) */\n  mload(0x40)\n  0x96c6fd1e00000000000000000000000000000000000000000000000000000000\n  dup2\n  mstore\n  0x04\n  add\n  tag_52\n  swap2\n  swap1\n  tag_14\n  jump\t// in\ntag_52:\n  mload(0x40)\n  dup1\n  swap2\n  sub\n  swap1\n  revert\n    /* \"@openzeppelin/contracts/token/ERC20/ERC20.sol\":5453:5539  if (from == address(0)) {... */\ntag_51:\n    /* \"@openzeppelin/contracts/token/ERC20/ERC20.sol\":5566:5567  0 */\n  0x00\n    /* \"@openzeppelin/contracts/token/ERC20/ERC20.sol\":5552:5568  to == address(0) */\n  0xffffffffffffffffffffffffffffffffffffffff\n  and\n    /* \"@openzeppelin/contracts/token/ERC20/ERC20.sol\":5552:5554  to */\n  dup3\n    /* \"@openzeppelin/contracts/token/ERC20/ERC20.sol\":5552:5568  to == address(0) */\n  0xffffffffffffffffffffffffffffffffffffffff\n  and\n  sub\n    /* \"@openzeppelin/contracts/token/ERC20/ERC20.sol\":5548:5634  if (to == address(0)) {... */\n  tag_53\n  jumpi\n    /* \"@openzeppelin/contracts/token/ERC20/ERC20.sol\":5620:5621  0 */\n  0x00\n    /* \"@openzeppelin/contracts/token/ERC20/ERC20.sol\":5591:5623  ERC20InvalidReceiver(address(0)) */\n  mload(0x40)\n  0xec442f0500000000000000000000000000000000000000000000000000000000\n  dup2\n  mstore\n  0x04\n  add\n  tag_54\n  swap2\n  swap1\n  tag_14\n  jump\t// in\ntag_54:\n  mload(0x40)\n  dup1\n  swap2\n  sub\n  swap1\n  revert\n    /* \"@openzeppelin/contracts/token/ERC20/ERC20.sol\":5548:5634  if (to == address(0)) {... */\ntag_53:\n    /* \"@openzeppelin/contracts/token/ERC20/ERC20.sol\":5643:5667  _update(from, to, value) */\n  tag_55\n    /* \"@openzeppelin/contracts/token/ERC20/ERC20.sol\":5651:5655  from */\n  dup4\n    /* \"@openzeppelin/contracts/token/ERC20/ERC20.sol\":5657:5659  to */\n  dup4\n    /* \"@openzeppelin/contracts/token/ERC20/ERC20.sol\":5661:5666  value */\n  dup4\n    /* \"@openzeppelin/contracts/token/ERC20/ERC20.sol\":5643:5650  _update */\n  shl(0x20, tag_49)\n    /* \"@openzeppelin/contracts/token/ERC20/ERC20.sol\":5643:5667  _update(from, to, value) */\n  0x20\n  shr\n  jump\t// in\ntag_55:\n    /* \"@openzeppelin/contracts/token/ERC20/ERC20.sol\":5374:5674  function _transfer(address from, address to, uint256 value) internal {... */\n  pop\n  pop\n  pop\n  jump\t// out\n    /* \"@openzeppelin/contracts/token/ERC20/ERC20.sol\":5989:7096  function _update(address from, address to, uint256 value) internal virtual {... */\ntag_49:\n    /* \"@openzeppelin/contracts/token/ERC20/ERC20.sol\":6094:6095  0 */\n  0x00\n    /* \"@openzeppelin/contracts/token/ERC20/ERC20.sol\":6078:6096  from == address(0) */\n  0xffffffffffffffffffffffffffffffffffffffff\n  and\n    /* \"@openzeppelin/contracts/token/ERC20/ERC20.sol\":6078:6082  from */\n  dup4\n    /* \"@openzeppelin/contracts/token/ERC20/ERC20.sol\":6078:6096  from == address(0) */\n  0xffffffffffffffffffffffffffffffffffffffff\n  and\n  sub\n    /* \"@openzeppelin/contracts/token/ERC20/ERC20.sol\":6074:6614  if (from == address(0)) {... */\n  tag_57\n  jumpi\n    /* \"@openzeppelin/contracts/token/ERC20/ERC20.sol\":6230:6235  value */\n  dup1\n    /* \"@openzeppelin/contracts/token/ERC20/ERC20.sol\":6214:6226  _totalSupply */\n  0x02\n  0x00\n    /* \"@openzeppelin/contracts/token/ERC20/ERC20.sol\":6214:6235  _totalSupply += value */\n  dup3\n  dup3\n  sload\n  tag_58\n  swap2\n  swap1\n  tag_59\n  jump\t// in\ntag_58:\n  swap3\n  pop\n  pop\n  dup2\n  swap1\n  sstore\n  pop\n    /* \"@openzeppelin/contracts/token/ERC20/ERC20.sol\":6074:6614  if (from == address(0)) {... */\n  jump(tag_60)\ntag_57:\n    /* \"@openzeppelin/contracts/token/ERC20/ERC20.sol\":6266:6285  uint256 fromBalance */\n  0x00\n    /* \"@openzeppelin/contracts/token/ERC20/ERC20.sol\":6288:6297  _balances */\n  0x00\n    /* \"@openzeppelin/contracts/token/ERC20/ERC20.sol\":6288:6303  _balances[from] */\n  0x00\n    /* \"@openzeppelin/contracts/token/ERC20/ERC20.sol\":6298:6302  from */\n  dup6\n    /* \"@openzeppelin/contracts/token/ERC20/ERC20.sol\":6288:6303  _balances[from] */\n  0xffffffffffffffffffffffffffffffffffffffff\n  and\n  0xffffffffffffffffffffffffffffffffffffffff\n  and\n  dup2\n  mstore\n  0x20\n  add\n  swap1\n  dup2\n  mstore\n  0x20\n  add\n  0x00\n  keccak256\n  sload\n    /* \"@openzeppelin/contracts/token/ERC20/ERC20.sol\":6266:6303  uint256 fromBalance = _balances[from] */\n  swap1\n  pop\n    /* \"@openzeppelin/contracts/token/ERC20/ERC20.sol\":6335:6340  value */\n  dup2\n    /* \"@openzeppelin/contracts/token/ERC20/ERC20.sol\":6321:6332  fromBalance */\n  dup2\n    /* \"@openzeppelin/contracts/token/ERC20/ERC20.sol\":6321:6340  fromBalance < value */\n  lt\n    /* \"@openzeppelin/contracts/token/ERC20/ERC20.sol\":6317:6432  if (fromBalance < value) {... */\n  iszero\n  tag_61\n  jumpi\n    /* \"@openzeppelin/contracts/token/ERC20/ERC20.sol\":6392:6396  from */\n  dup4\n    /* \"@openzeppelin/contracts/token/ERC20/ERC20.sol\":6398:6409  fromBalance */\n  dup2\n    /* \"@openzeppelin/contracts/token/ERC20/ERC20.sol\":6411:6416  value */\n  dup4\n    /* \"@openzeppelin/contracts/token/ERC20/ERC20.sol\":6367:6417  ERC20InsufficientBalance(from, fromBalance, value) */\n  mload(0x40)\n  0xe450d38c00000000000000000000000000000000000000000000000000000000\n  dup2\n  mstore\n  0x04\n  add\n  tag_62\n  swap4\n  swap3\n  swap2\n  swap1\n  tag_63\n  jump\t// in\ntag_62:\n  mload(0x40)\n  dup1\n  swap2\n  sub\n  swap1\n  revert\n    /* \"@openzeppelin/contracts/token/ERC20/ERC20.sol\":6317:6432  if (fromBalance < value) {... */\ntag_61:\n    /* \"@openzeppelin/contracts/token/ERC20/ERC20.sol\":6584:6589  value */\n  dup2\n    /* \"@openzeppelin/contracts/token/ERC20/ERC20.sol\":6570:6581  fromBalance */\n  dup2\n    /* \"@openzeppelin/contracts/token/ERC20/ERC20.sol\":6570:6589  fromBalance - value */\n  sub\n    /* \"@openzeppelin/contracts/token/ERC20/ERC20.sol\":6552:6561  _balances */\n  0x00\n    /* \"@openzeppelin/contracts/token/ERC20/ERC20.sol\":6552:6567  _balances[from] */\n  0x00\n    /* \"@openzeppelin/contracts/token/ERC20/ERC20.sol\":6562:6566  from */\n  dup7\n    /* \"@openzeppelin/contracts/token/ERC20/ERC20.sol\":6552:6567  _balances[from] */\n  0xffffffffffffffffffffffffffffffffffffffff\n  and\n  0xffffffffffffffffffffffffffffffffffffffff\n  and\n  dup2\n  mstore\n  0x20\n  add\n  swap1\n  dup2\n  mstore\n  0x20\n  add\n  0x00\n  keccak256\n    /* \"@openzeppelin/contracts/token/ERC20/ERC20.sol\":6552:6589  _balances[from] = fromBalance - value */\n  dup2\n  swap1\n  sstore\n  pop\n    /* \"@openzeppelin/contracts/token/ERC20/ERC20.sol\":6252:6614  {... */\n  pop\n    /* \"@openzeppelin/contracts/token/ERC20/ERC20.sol\":6074:6614  if (from == address(0)) {... */\ntag_60:\n    /* \"@openzeppelin/contracts/token/ERC20/ERC20.sol\":6642:6643  0 */\n  0x00\n    /* \"@openzeppelin/contracts/token/ERC20/ERC20.sol\":6628:6644  to == address(0) */\n  0xffffffffffffffffffffffffffffffffffffffff\n  and\n    /* \"@openzeppelin/contracts/token/ERC20/ERC20.sol\":6628:6630  to */\n  dup3\n    /* \"@openzeppelin/contracts/token/ERC20/ERC20.sol\":6628:6644  to == address(0) */\n  0xffffffffffffffffffffffffffffffffffffffff\n  and\n  sub\n    /* \"@openzeppelin/contracts/token/ERC20/ERC20.sol\":6624:7049  if (to == address(0)) {... */\n  tag_64\n  jumpi\n    /* \"@openzeppelin/contracts/token/ERC20/ERC20.sol\":6807:6812  value */\n  dup1\n    /* \"@openzeppelin/contracts/token/ERC20/ERC20.sol\":6791:6803  _totalSupply */\n  0x02\n  0x00\n    /* \"@openzeppelin/contracts/token/ERC20/ERC20.sol\":6791:6812  _totalSupply -= value */\n  dup3\n  dup3\n  sload\n  sub\n  swap3\n  pop\n  pop\n  dup2\n  swap1\n  sstore\n  pop\n    /* \"@openzeppelin/contracts/token/ERC20/ERC20.sol\":6624:7049  if (to == address(0)) {... */\n  jump(tag_65)\ntag_64:\n    /* \"@openzeppelin/contracts/token/ERC20/ERC20.sol\":7019:7024  value */\n  dup1\n    /* \"@openzeppelin/contracts/token/ERC20/ERC20.sol\":7002:7011  _balances */\n  0x00\n    /* \"@openzeppelin/contracts/token/ERC20/ERC20.sol\":7002:7015  _balances[to] */\n  0x00\n    /* \"@openzeppelin/contracts/token/ERC20/ERC20.sol\":7012:7014  to */\n  dup5\n    /* \"@openzeppelin/contracts/token/ERC20/ERC20.sol\":7002:7015  _balances[to] */\n  0xffffffffffffffffffffffffffffffffffffffff\n  and\n  0xffffffffffffffffffffffffffffffffffffffff\n  and\n  dup2\n  mstore\n  0x20\n  add\n  swap1\n  dup2\n  mstore\n  0x20\n  add\n  0x00\n  keccak256\n  0x00\n    /* \"@openzeppelin/contracts/token/ERC20/ERC20.sol\":7002:7024  _balances[to] += value */\n  dup3\n  dup3\n  sload\n  add\n  swap3\n  pop\n  pop\n  dup2\n  swap1\n  sstore\n  pop\n    /* \"@openzeppelin/contracts/token/ERC20/ERC20.sol\":6624:7049  if (to == address(0)) {... */\ntag_65:\n    /* \"@openzeppelin/contracts/token/ERC20/ERC20.sol\":7079:7081  to */\n  dup2\n    /* \"@openzeppelin/contracts/token/ERC20/ERC20.sol\":7064:7089  Transfer(from, to, value) */\n  0xffffffffffffffffffffffffffffffffffffffff\n  and\n    /* \"@openzeppelin/contracts/token/ERC20/ERC20.sol\":7073:7077  from */\n  dup4\n    /* \"@openzeppelin/contracts/token/ERC20/ERC20.sol\":7064:7089  Transfer(from, to, value) */\n  0xffffffffffffffffffffffffffffffffffffffff\n  and\n  0xddf252ad1be2c89b69c2b068fc378daa952ba7f163c4a11628f55a4df523b3ef\n    /* \"@openzeppelin/contracts/token/ERC20/ERC20.sol\":7083:7088  value */\n  dup4\n    /* \"@openzeppelin/contracts/token/ERC20/ERC20.sol\":7064:7089  Transfer(from, to, value) */\n  mload(0x40)\n  tag_66\n  swap2\n  swap1\n  tag_67\n  jump\t// in\ntag_66:\n  mload(0x40)\n  dup1\n  swap2\n  sub\n  swap1\n  log3\n    /* \"@openzeppelin/contracts/token/ERC20/ERC20.sol\":5989:7096  function _update(address from, address to, uint256 value) internal virtual {... */\n  pop\n  pop\n  pop\n  jump\t// out\n    /* \"#utility.yul\":7:82   */\ntag_68:\n    /* \"#utility.yul\":40:46   */\n  0x00\n    /* \"#utility.yul\":73:75   */\n  0x40\n    /* \"#utility.yul\":67:76   */\n  mload\n    /* \"#utility.yul\":57:76   */\n  swap1\n  pop\n    /* \"#utility.yul\":7:82   */\n  swap1\n  jump\t// out\n    /* \"#utility.yul\":88:205   */\ntag_69:\n    /* \"#utility.yul\":197:198   */\n  0x00\n    /* \"#utility.yul\":194:195   */\n  0x00\n    /* \"#utility.yul\":187:199   */\n  revert\n    /* \"#utility.yul\":211:328   */\ntag_70:\n    /* \"#utility.yul\":320:321   */\n  0x00\n    /* \"#utility.yul\":317:318   */\n  0x00\n    /* \"#utility.yul\":310:322   */\n  revert\n    /* \"#utility.yul\":334:451   */\ntag_71:\n    /* \"#utility.yul\":443:444   */\n  0x00\n    /* \"#utility.yul\":440:441   */\n  0x00\n    /* \"#utility.yul\":433:445   */\n  revert\n    /* \"#utility.yul\":457:559   */\ntag_72:\n    /* \"#utility.yul\":498:504   */\n  0x00\n    /* \"#utility.yul\":549:551   */\n  0x1f\n    /* \"#utility.yul\":545:552   */\n  not\n    /* \"#utility.yul\":540:542   */\n  0x1f\n    /* \"#utility.yul\":533:538   */\n  dup4\n    /* \"#utility.yul\":529:543   */\n  add\n    /* \"#utility.yul\":525:553   */\n  and\n    /* \"#utility.yul\":515:553   */\n  swap1\n  pop\n    /* \"#utility.yul\":457:559   */\n  swap2\n  swap1\n  pop\n  jump\t// out\n    /* \"#utility.yul\":565:745   */\ntag_73:\n    /* \"#utility.yul\":613:690   */\n  0x4e487b7100000000000000000000000000000000000000000000000000000000\n    /* \"#utility.yul\":610:611   */\n  0x00\n    /* \"#utility.yul\":603:691   */\n  mstore\n    /* \"#utility.yul\":710:714   */\n  0x41\n    /* \"#utility.yul\":707:708   */\n  0x04\n    /* \"#utility.yul\":700:715   */\n  mstore\n    /* \"#utility.yul\":734:738   */\n  0x24\n    /* \"#utility.yul\":731:732   */\n  0x00\n    /* \"#utility.yul\":724:739   */\n  revert\n    /* \"#utility.yul\":751:1032   */\ntag_74:\n    /* \"#utility.yul\":834:861   */\n  tag_126\n    /* \"#utility.yul\":856:860   */\n  dup3\n    /* \"#utility.yul\":834:861   */\n  tag_72\n  jump\t// in\ntag_126:\n    /* \"#utility.yul\":826:832   */\n  dup2\n    /* \"#utility.yul\":822:862   */\n  add\n    /* \"#utility.yul\":964:970   */\n  dup2\n    /* \"#utility.yul\":952:962   */\n  dup2\n    /* \"#utility.yul\":949:971   */\n  lt\n    /* \"#utility.yul\":928:946   */\n  0xffffffffffffffff\n    /* \"#utility.yul\":916:926   */\n  dup3\n    /* \"#utility.yul\":913:947   */\n  gt\n    /* \"#utility.yul\":910:972   */\n  or\n    /* \"#utility.yul\":907:995   */\n  iszero\n  tag_127\n  jumpi\n    /* \"#utility.yul\":975:993   */\n  tag_128\n  tag_73\n  jump\t// in\ntag_128:\n    /* \"#utility.yul\":907:995   */\ntag_127:\n    /* \"#utility.yul\":1015:1025   */\n  dup1\n    /* \"#utility.yul\":1011:1013   */\n  0x40\n    /* \"#utility.yul\":1004:1026   */\n  mstore\n    /* \"#utility.yul\":794:1032   */\n  pop\n    /* \"#utility.yul\":751:1032   */\n  pop\n  pop\n  jump\t// out\n    /* \"#utility.yul\":1038:1167   */\ntag_75:\n    /* \"#utility.yul\":1072:1078   */\n  0x00\n    /* \"#utility.yul\":1099:1119   */\n  tag_130\n  tag_68\n  jump\t// in\ntag_130:\n    /* \"#utility.yul\":1089:1119   */\n  swap1\n  pop\n    /* \"#utility.yul\":1128:1161   */\n  tag_131\n    /* \"#utility.yul\":1156:1160   */\n  dup3\n    /* \"#utility.yul\":1148:1154   */\n  dup3\n    /* \"#utility.yul\":1128:1161   */\n  tag_74\n  jump\t// in\ntag_131:\n    /* \"#utility.yul\":1038:1167   */\n  swap2\n  swap1\n  pop\n  jump\t// out\n    /* \"#utility.yul\":1173:1484   */\ntag_76:\n    /* \"#utility.yul\":1250:1254   */\n  0x00\n    /* \"#utility.yul\":1340:1358   */\n  0xffffffffffffffff\n    /* \"#utility.yul\":1332:1338   */\n  dup3\n    /* \"#utility.yul\":1329:1359   */\n  gt\n    /* \"#utility.yul\":1326:1382   */\n  iszero\n  tag_133\n  jumpi\n    /* \"#utility.yul\":1362:1380   */\n  tag_134\n  tag_73\n  jump\t// in\ntag_134:\n    /* \"#utility.yul\":1326:1382   */\ntag_133:\n    /* \"#utility.yul\":1412:1416   */\n  0x20\n    /* \"#utility.yul\":1404:1410   */\n  dup3\n    /* \"#utility.yul\":1400:1417   */\n  mul\n    /* \"#utility.yul\":1392:1417   */\n  swap1\n  pop\n    /* \"#utility.yul\":1472:1476   */\n  0x20\n    /* \"#utility.yul\":1466:1470   */\n  dup2\n    /* \"#utility.yul\":1462:1477   */\n  add\n    /* \"#utility.yul\":1454:1477   */\n  swap1\n  pop\n    /* \"#utility.yul\":1173:1484   */\n  swap2\n  swap1\n  pop\n  jump\t// out\n    /* \"#utility.yul\":1490:1607   */\ntag_77:\n    /* \"#utility.yul\":1599:1600   */\n  0x00\n    /* \"#utility.yul\":1596:1597   */\n  0x00\n    /* \"#utility.yul\":1589:1601   */\n  revert\n    /* \"#utility.yul\":1613:1739   */\ntag_78:\n    /* \"#utility.yul\":1650:1657   */\n  0x00\n    /* \"#utility.yul\":1690:1732   */\n  0xffffffffffffffffffffffffffffffffffffffff\n    /* \"#utility.yul\":1683:1688   */\n  dup3\n    /* \"#utility.yul\":1679:1733   */\n  and\n    /* \"#utility.yul\":1668:1733   */\n  swap1\n  pop\n    /* \"#utility.yul\":1613:1739   */\n  swap2\n  swap1\n  pop\n  jump\t// out\n    /* \"#utility.yul\":1745:1841   */\ntag_79:\n    /* \"#utility.yul\":1782:1789   */\n  0x00\n    /* \"#utility.yul\":1811:1835   */\n  tag_138\n    /* \"#utility.yul\":1829:1834   */\n  dup3\n    /* \"#utility.yul\":1811:1835   */\n  tag_78\n  jump\t// in\ntag_138:\n    /* \"#utility.yul\":1800:1835   */\n  swap1\n  pop\n    /* \"#utility.yul\":1745:1841   */\n  swap2\n  swap1\n  pop\n  jump\t// out\n    /* \"#utility.yul\":1847:1969   */\ntag_80:\n    /* \"#utility.yul\":1920:1944   */\n  tag_140\n    /* \"#utility.yul\":1938:1943   */\n  dup2\n    /* \"#utility.yul\":1920:1944   */\n  tag_79\n  jump\t// in\ntag_140:\n    /* \"#utility.yul\":1913:1918   */\n  dup2\n    /* \"#utility.yul\":1910:1945   */\n  eq\n    /* \"#utility.yul\":1900:1963   */\n  tag_141\n  jumpi\n    /* \"#utility.yul\":1959:1960   */\n  0x00\n    /* \"#utility.yul\":1956:1957   */\n  0x00\n    /* \"#utility.yul\":1949:1961   */\n  revert\n    /* \"#utility.yul\":1900:1963   */\ntag_141:\n    /* \"#utility.yul\":1847:1969   */\n  pop\n  jump\t// out\n    /* \"#utility.yul\":1975:2118   */\ntag_81:\n    /* \"#utility.yul\":2032:2037   */\n  0x00\n    /* \"#utility.yul\":2063:2069   */\n  dup2\n    /* \"#utility.yul\":2057:2070   */\n  mload\n    /* \"#utility.yul\":2048:2070   */\n  swap1\n  pop\n    /* \"#utility.yul\":2079:2112   */\n  tag_143\n    /* \"#utility.yul\":2106:2111   */\n  dup2\n    /* \"#utility.yul\":2079:2112   */\n  tag_80\n  jump\t// in\ntag_143:\n    /* \"#utility.yul\":1975:2118   */\n  swap3\n  swap2\n  pop\n  pop\n  jump\t// out\n    /* \"#utility.yul\":2141:2873   */\ntag_82:\n    /* \"#utility.yul\":2248:2253   */\n  0x00\n    /* \"#utility.yul\":2273:2354   */\n  tag_145\n    /* \"#utility.yul\":2289:2353   */\n  tag_146\n    /* \"#utility.yul\":2346:2352   */\n  dup5\n    /* \"#utility.yul\":2289:2353   */\n  tag_76\n  jump\t// in\ntag_146:\n    /* \"#utility.yul\":2273:2354   */\n  tag_75\n  jump\t// in\ntag_145:\n    /* \"#utility.yul\":2264:2354   */\n  swap1\n  pop\n    /* \"#utility.yul\":2374:2379   */\n  dup1\n    /* \"#utility.yul\":2403:2409   */\n  dup4\n    /* \"#utility.yul\":2396:2401   */\n  dup3\n    /* \"#utility.yul\":2389:2410   */\n  mstore\n    /* \"#utility.yul\":2437:2441   */\n  0x20\n    /* \"#utility.yul\":2430:2435   */\n  dup3\n    /* \"#utility.yul\":2426:2442   */\n  add\n    /* \"#utility.yul\":2419:2442   */\n  swap1\n  pop\n    /* \"#utility.yul\":2490:2494   */\n  0x20\n    /* \"#utility.yul\":2482:2488   */\n  dup5\n    /* \"#utility.yul\":2478:2495   */\n  mul\n    /* \"#utility.yul\":2470:2476   */\n  dup4\n    /* \"#utility.yul\":2466:2496   */\n  add\n    /* \"#utility.yul\":2519:2522   */\n  dup6\n    /* \"#utility.yul\":2511:2517   */\n  dup2\n    /* \"#utility.yul\":2508:2523   */\n  gt\n    /* \"#utility.yul\":2505:2627   */\n  iszero\n  tag_147\n  jumpi\n    /* \"#utility.yul\":2538:2617   */\n  tag_148\n  tag_77\n  jump\t// in\ntag_148:\n    /* \"#utility.yul\":2505:2627   */\ntag_147:\n    /* \"#utility.yul\":2653:2659   */\n  dup4\n    /* \"#utility.yul\":2636:2867   */\ntag_149:\n    /* \"#utility.yul\":2670:2676   */\n  dup2\n    /* \"#utility.yul\":2665:2668   */\n  dup2\n    /* \"#utility.yul\":2662:2677   */\n  lt\n    /* \"#utility.yul\":2636:2867   */\n  iszero\n  tag_151\n  jumpi\n    /* \"#utility.yul\":2745:2748   */\n  dup1\n    /* \"#utility.yul\":2774:2822   */\n  tag_152\n    /* \"#utility.yul\":2818:2821   */\n  dup9\n    /* \"#utility.yul\":2806:2816   */\n  dup3\n    /* \"#utility.yul\":2774:2822   */\n  tag_81\n  jump\t// in\ntag_152:\n    /* \"#utility.yul\":2769:2772   */\n  dup5\n    /* \"#utility.yul\":2762:2823   */\n  mstore\n    /* \"#utility.yul\":2852:2856   */\n  0x20\n    /* \"#utility.yul\":2847:2850   */\n  dup5\n    /* \"#utility.yul\":2843:2857   */\n  add\n    /* \"#utility.yul\":2836:2857   */\n  swap4\n  pop\n    /* \"#utility.yul\":2712:2867   */\n  pop\n    /* \"#utility.yul\":2696:2700   */\n  0x20\n    /* \"#utility.yul\":2691:2694   */\n  dup2\n    /* \"#utility.yul\":2687:2701   */\n  add\n    /* \"#utility.yul\":2680:2701   */\n  swap1\n  pop\n    /* \"#utility.yul\":2636:2867   */\n  jump(tag_149)\ntag_151:\n    /* \"#utility.yul\":2640:2661   */\n  pop\n    /* \"#utility.yul\":2254:2873   */\n  pop\n  pop\n    /* \"#utility.yul\":2141:2873   */\n  swap4\n  swap3\n  pop\n  pop\n  pop\n  jump\t// out\n    /* \"#utility.yul\":2896:3281   */\ntag_83:\n    /* \"#utility.yul\":2978:2983   */\n  0x00\n    /* \"#utility.yul\":3027:3030   */\n  dup3\n    /* \"#utility.yul\":3020:3024   */\n  0x1f\n    /* \"#utility.yul\":3012:3018   */\n  dup4\n    /* \"#utility.yul\":3008:3025   */\n  add\n    /* \"#utility.yul\":3004:3031   */\n  slt\n    /* \"#utility.yul\":2994:3116   */\n  tag_154\n  jumpi\n    /* \"#utility.yul\":3035:3114   */\n  tag_155\n  tag_71\n  jump\t// in\ntag_155:\n    /* \"#utility.yul\":2994:3116   */\ntag_154:\n    /* \"#utility.yul\":3145:3151   */\n  dup2\n    /* \"#utility.yul\":3139:3152   */\n  mload\n    /* \"#utility.yul\":3170:3275   */\n  tag_156\n    /* \"#utility.yul\":3271:3274   */\n  dup5\n    /* \"#utility.yul\":3263:3269   */\n  dup3\n    /* \"#utility.yul\":3256:3260   */\n  0x20\n    /* \"#utility.yul\":3248:3254   */\n  dup7\n    /* \"#utility.yul\":3244:3261   */\n  add\n    /* \"#utility.yul\":3170:3275   */\n  tag_82\n  jump\t// in\ntag_156:\n    /* \"#utility.yul\":3161:3275   */\n  swap2\n  pop\n    /* \"#utility.yul\":2984:3281   */\n  pop\n    /* \"#utility.yul\":2896:3281   */\n  swap3\n  swap2\n  pop\n  pop\n  jump\t// out\n    /* \"#utility.yul\":3287:3598   */\ntag_84:\n    /* \"#utility.yul\":3364:3368   */\n  0x00\n    /* \"#utility.yul\":3454:3472   */\n  0xffffffffffffffff\n    /* \"#utility.yul\":3446:3452   */\n  dup3\n    /* \"#utility.yul\":3443:3473   */\n  gt\n    /* \"#utility.yul\":3440:3496   */\n  iszero\n  tag_158\n  jumpi\n    /* \"#utility.yul\":3476:3494   */\n  tag_159\n  tag_73\n  jump\t// in\ntag_159:\n    /* \"#utility.yul\":3440:3496   */\ntag_158:\n    /* \"#utility.yul\":3526:3530   */\n  0x20\n    /* \"#utility.yul\":3518:3524   */\n  dup3\n    /* \"#utility.yul\":3514:3531   */\n  mul\n    /* \"#utility.yul\":3506:3531   */\n  swap1\n  pop\n    /* \"#utility.yul\":3586:3590   */\n  0x20\n    /* \"#utility.yul\":3580:3584   */\n  dup2\n    /* \"#utility.yul\":3576:3591   */\n  add\n    /* \"#utility.yul\":3568:3591   */\n  swap1\n  pop\n    /* \"#utility.yul\":3287:3598   */\n  swap2\n  swap1\n  pop\n  jump\t// out\n    /* \"#utility.yul\":3604:3681   */\ntag_85:\n    /* \"#utility.yul\":3641:3648   */\n  0x00\n    /* \"#utility.yul\":3670:3675   */\n  dup2\n    /* \"#utility.yul\":3659:3675   */\n  swap1\n  pop\n    /* \"#utility.yul\":3604:3681   */\n  swap2\n  swap1\n  pop\n  jump\t// out\n    /* \"#utility.yul\":3687:3809   */\ntag_86:\n    /* \"#utility.yul\":3760:3784   */\n  tag_162\n    /* \"#utility.yul\":3778:3783   */\n  dup2\n    /* \"#utility.yul\":3760:3784   */\n  tag_85\n  jump\t// in\ntag_162:\n    /* \"#utility.yul\":3753:3758   */\n  dup2\n    /* \"#utility.yul\":3750:3785   */\n  eq\n    /* \"#utility.yul\":3740:3803   */\n  tag_163\n  jumpi\n    /* \"#utility.yul\":3799:3800   */\n  0x00\n    /* \"#utility.yul\":3796:3797   */\n  0x00\n    /* \"#utility.yul\":3789:3801   */\n  revert\n    /* \"#utility.yul\":3740:3803   */\ntag_163:\n    /* \"#utility.yul\":3687:3809   */\n  pop\n  jump\t// out\n    /* \"#utility.yul\":3815:3958   */\ntag_87:\n    /* \"#utility.yul\":3872:3877   */\n  0x00\n    /* \"#utility.yul\":3903:3909   */\n  dup2\n    /* \"#utility.yul\":3897:3910   */\n  mload\n    /* \"#utility.yul\":3888:3910   */\n  swap1\n  pop\n    /* \"#utility.yul\":3919:3952   */\n  tag_165\n    /* \"#utility.yul\":3946:3951   */\n  dup2\n    /* \"#utility.yul\":3919:3952   */\n  tag_86\n  jump\t// in\ntag_165:\n    /* \"#utility.yul\":3815:3958   */\n  swap3\n  swap2\n  pop\n  pop\n  jump\t// out\n    /* \"#utility.yul\":3981:4713   */\ntag_88:\n    /* \"#utility.yul\":4088:4093   */\n  0x00\n    /* \"#utility.yul\":4113:4194   */\n  tag_167\n    /* \"#utility.yul\":4129:4193   */\n  tag_168\n    /* \"#utility.yul\":4186:4192   */\n  dup5\n    /* \"#utility.yul\":4129:4193   */\n  tag_84\n  jump\t// in\ntag_168:\n    /* \"#utility.yul\":4113:4194   */\n  tag_75\n  jump\t// in\ntag_167:\n    /* \"#utility.yul\":4104:4194   */\n  swap1\n  pop\n    /* \"#utility.yul\":4214:4219   */\n  dup1\n    /* \"#utility.yul\":4243:4249   */\n  dup4\n    /* \"#utility.yul\":4236:4241   */\n  dup3\n    /* \"#utility.yul\":4229:4250   */\n  mstore\n    /* \"#utility.yul\":4277:4281   */\n  0x20\n    /* \"#utility.yul\":4270:4275   */\n  dup3\n    /* \"#utility.yul\":4266:4282   */\n  add\n    /* \"#utility.yul\":4259:4282   */\n  swap1\n  pop\n    /* \"#utility.yul\":4330:4334   */\n  0x20\n    /* \"#utility.yul\":4322:4328   */\n  dup5\n    /* \"#utility.yul\":4318:4335   */\n  mul\n    /* \"#utility.yul\":4310:4316   */\n  dup4\n    /* \"#utility.yul\":4306:4336   */\n  add\n    /* \"#utility.yul\":4359:4362   */\n  dup6\n    /* \"#utility.yul\":4351:4357   */\n  dup2\n    /* \"#utility.yul\":4348:4363   */\n  gt\n    /* \"#utility.yul\":4345:4467   */\n  iszero\n  tag_169\n  jumpi\n    /* \"#utility.yul\":4378:4457   */\n  tag_170\n  tag_77\n  jump\t// in\ntag_170:\n    /* \"#utility.yul\":4345:4467   */\ntag_169:\n    /* \"#utility.yul\":4493:4499   */\n  dup4\n    /* \"#utility.yul\":4476:4707   */\ntag_171:\n    /* \"#utility.yul\":4510:4516   */\n  dup2\n    /* \"#utility.yul\":4505:4508   */\n  dup2\n    /* \"#utility.yul\":4502:4517   */\n  lt\n    /* \"#utility.yul\":4476:4707   */\n  iszero\n  tag_173\n  jumpi\n    /* \"#utility.yul\":4585:4588   */\n  dup1\n    /* \"#utility.yul\":4614:4662   */\n  tag_174\n    /* \"#utility.yul\":4658:4661   */\n  dup9\n    /* \"#utility.yul\":4646:4656   */\n  dup3\n    /* \"#utility.yul\":4614:4662   */\n  tag_87\n  jump\t// in\ntag_174:\n    /* \"#utility.yul\":4609:4612   */\n  dup5\n    /* \"#utility.yul\":4602:4663   */\n  mstore\n    /* \"#utility.yul\":4692:4696   */\n  0x20\n    /* \"#utility.yul\":4687:4690   */\n  dup5\n    /* \"#utility.yul\":4683:4697   */\n  add\n    /* \"#utility.yul\":4676:4697   */\n  swap4\n  pop\n    /* \"#utility.yul\":4552:4707   */\n  pop\n    /* \"#utility.yul\":4536:4540   */\n  0x20\n    /* \"#utility.yul\":4531:4534   */\n  dup2\n    /* \"#utility.yul\":4527:4541   */\n  add\n    /* \"#utility.yul\":4520:4541   */\n  swap1\n  pop\n    /* \"#utility.yul\":4476:4707   */\n  jump(tag_171)\ntag_173:\n    /* \"#utility.yul\":4480:4501   */\n  pop\n    /* \"#utility.yul\":4094:4713   */\n  pop\n  pop\n    /* \"#utility.yul\":3981:4713   */\n  swap4\n  swap3\n  pop\n  pop\n  pop\n  jump\t// out\n    /* \"#utility.yul\":4736:5121   */\ntag_89:\n    /* \"#utility.yul\":4818:4823   */\n  0x00\n    /* \"#utility.yul\":4867:4870   */\n  dup3\n    /* \"#utility.yul\":4860:4864   */\n  0x1f\n    /* \"#utility.yul\":4852:4858   */\n  dup4\n    /* \"#utility.yul\":4848:4865   */\n  add\n    /* \"#utility.yul\":4844:4871   */\n  slt\n    /* \"#utility.yul\":4834:4956   */\n  tag_176\n  jumpi\n    /* \"#utility.yul\":4875:4954   */\n  tag_177\n  tag_71\n  jump\t// in\ntag_177:\n    /* \"#utility.yul\":4834:4956   */\ntag_176:\n    /* \"#utility.yul\":4985:4991   */\n  dup2\n    /* \"#utility.yul\":4979:4992   */\n  mload\n    /* \"#utility.yul\":5010:5115   */\n  tag_178\n    /* \"#utility.yul\":5111:5114   */\n  dup5\n    /* \"#utility.yul\":5103:5109   */\n  dup3\n    /* \"#utility.yul\":5096:5100   */\n  0x20\n    /* \"#utility.yul\":5088:5094   */\n  dup7\n    /* \"#utility.yul\":5084:5101   */\n  add\n    /* \"#utility.yul\":5010:5115   */\n  tag_88\n  jump\t// in\ntag_178:\n    /* \"#utility.yul\":5001:5115   */\n  swap2\n  pop\n    /* \"#utility.yul\":4824:5121   */\n  pop\n    /* \"#utility.yul\":4736:5121   */\n  swap3\n  swap2\n  pop\n  pop\n  jump\t// out\n    /* \"#utility.yul\":5127:6040   */\ntag_3:\n    /* \"#utility.yul\":5256:5262   */\n  0x00\n    /* \"#utility.yul\":5264:5270   */\n  0x00\n    /* \"#utility.yul\":5313:5315   */\n  0x40\n    /* \"#utility.yul\":5301:5310   */\n  dup4\n    /* \"#utility.yul\":5292:5299   */\n  dup6\n    /* \"#utility.yul\":5288:5311   */\n  sub\n    /* \"#utility.yul\":5284:5316   */\n  slt\n    /* \"#utility.yul\":5281:5400   */\n  iszero\n  tag_180\n  jumpi\n    /* \"#utility.yul\":5319:5398   */\n  tag_181\n  tag_69\n  jump\t// in\ntag_181:\n    /* \"#utility.yul\":5281:5400   */\ntag_180:\n    /* \"#utility.yul\":5460:5461   */\n  0x00\n    /* \"#utility.yul\":5449:5458   */\n  dup4\n    /* \"#utility.yul\":5445:5462   */\n  add\n    /* \"#utility.yul\":5439:5463   */\n  mload\n    /* \"#utility.yul\":5490:5508   */\n  0xffffffffffffffff\n    /* \"#utility.yul\":5482:5488   */\n  dup2\n    /* \"#utility.yul\":5479:5509   */\n  gt\n    /* \"#utility.yul\":5476:5593   */\n  iszero\n  tag_182\n  jumpi\n    /* \"#utility.yul\":5512:5591   */\n  tag_183\n  tag_70\n  jump\t// in\ntag_183:\n    /* \"#utility.yul\":5476:5593   */\ntag_182:\n    /* \"#utility.yul\":5617:5706   */\n  tag_184\n    /* \"#utility.yul\":5698:5705   */\n  dup6\n    /* \"#utility.yul\":5689:5695   */\n  dup3\n    /* \"#utility.yul\":5678:5687   */\n  dup7\n    /* \"#utility.yul\":5674:5696   */\n  add\n    /* \"#utility.yul\":5617:5706   */\n  tag_83\n  jump\t// in\ntag_184:\n    /* \"#utility.yul\":5607:5706   */\n  swap3\n  pop\n    /* \"#utility.yul\":5410:5716   */\n  pop\n    /* \"#utility.yul\":5776:5778   */\n  0x20\n    /* \"#utility.yul\":5765:5774   */\n  dup4\n    /* \"#utility.yul\":5761:5779   */\n  add\n    /* \"#utility.yul\":5755:5780   */\n  mload\n    /* \"#utility.yul\":5807:5825   */\n  0xffffffffffffffff\n    /* \"#utility.yul\":5799:5805   */\n  dup2\n    /* \"#utility.yul\":5796:5826   */\n  gt\n    /* \"#utility.yul\":5793:5910   */\n  iszero\n  tag_185\n  jumpi\n    /* \"#utility.yul\":5829:5908   */\n  tag_186\n  tag_70\n  jump\t// in\ntag_186:\n    /* \"#utility.yul\":5793:5910   */\ntag_185:\n    /* \"#utility.yul\":5934:6023   */\n  tag_187\n    /* \"#utility.yul\":6015:6022   */\n  dup6\n    /* \"#utility.yul\":6006:6012   */\n  dup3\n    /* \"#utility.yul\":5995:6004   */\n  dup7\n    /* \"#utility.yul\":5991:6013   */\n  add\n    /* \"#utility.yul\":5934:6023   */\n  tag_89\n  jump\t// in\ntag_187:\n    /* \"#utility.yul\":5924:6023   */\n  swap2\n  pop\n    /* \"#utility.yul\":5726:6033   */\n  pop\n    /* \"#utility.yul\":5127:6040   */\n  swap3\n  pop\n  swap3\n  swap1\n  pop\n  jump\t// out\n    /* \"#utility.yul\":6046:6145   */\ntag_90:\n    /* \"#utility.yul\":6098:6104   */\n  0x00\n    /* \"#utility.yul\":6132:6137   */\n  dup2\n    /* \"#utility.yul\":6126:6138   */\n  mload\n    /* \"#utility.yul\":6116:6138   */\n  swap1\n  pop\n    /* \"#utility.yul\":6046:6145   */\n  swap2\n  swap1\n  pop\n  jump\t// out\n    /* \"#utility.yul\":6151:6331   */\ntag_91:\n    /* \"#utility.yul\":6199:6276   */\n  0x4e487b7100000000000000000000000000000000000000000000000000000000\n    /* \"#utility.yul\":6196:6197   */\n  0x00\n    /* \"#utility.yul\":6189:6277   */\n  mstore\n    /* \"#utility.yul\":6296:6300   */\n  0x22\n    /* \"#utility.yul\":6293:6294   */\n  0x04\n    /* \"#utility.yul\":6286:6301   */\n  mstore\n    /* \"#utility.yul\":6320:6324   */\n  0x24\n    /* \"#utility.yul\":6317:6318   */\n  0x00\n    /* \"#utility.yul\":6310:6325   */\n  revert\n    /* \"#utility.yul\":6337:6657   */\ntag_92:\n    /* \"#utility.yul\":6381:6387   */\n  0x00\n    /* \"#utility.yul\":6418:6419   */\n  0x02\n    /* \"#utility.yul\":6412:6416   */\n  dup3\n    /* \"#utility.yul\":6408:6420   */\n  div\n    /* \"#utility.yul\":6398:6420   */\n  swap1\n  pop\n    /* \"#utility.yul\":6465:6466   */\n  0x01\n    /* \"#utility.yul\":6459:6463   */\n  dup3\n    /* \"#utility.yul\":6455:6467   */\n  and\n    /* \"#utility.yul\":6486:6504   */\n  dup1\n    /* \"#utility.yul\":6476:6557   */\n  tag_191\n  jumpi\n    /* \"#utility.yul\":6542:6546   */\n  0x7f\n    /* \"#utility.yul\":6534:6540   */\n  dup3\n    /* \"#utility.yul\":6530:6547   */\n  and\n    /* \"#utility.yul\":6520:6547   */\n  swap2\n  pop\n    /* \"#utility.yul\":6476:6557   */\ntag_191:\n    /* \"#utility.yul\":6604:6606   */\n  0x20\n    /* \"#utility.yul\":6596:6602   */\n  dup3\n    /* \"#utility.yul\":6593:6607   */\n  lt\n    /* \"#utility.yul\":6573:6591   */\n  dup2\n    /* \"#utility.yul\":6570:6608   */\n  sub\n    /* \"#utility.yul\":6567:6651   */\n  tag_192\n  jumpi\n    /* \"#utility.yul\":6623:6641   */\n  tag_193\n  tag_91\n  jump\t// in\ntag_193:\n    /* \"#utility.yul\":6567:6651   */\ntag_192:\n    /* \"#utility.yul\":6388:6657   */\n  pop\n    /* \"#utility.yul\":6337:6657   */\n  swap2\n  swap1\n  pop\n  jump\t// out\n    /* \"#utility.yul\":6663:6804   */\ntag_93:\n    /* \"#utility.yul\":6712:6716   */\n  0x00\n    /* \"#utility.yul\":6735:6738   */\n  dup2\n    /* \"#utility.yul\":6727:6738   */\n  swap1\n  pop\n    /* \"#utility.yul\":6758:6761   */\n  dup2\n    /* \"#utility.yul\":6755:6756   */\n  0x00\n    /* \"#utility.yul\":6748:6762   */\n  mstore\n    /* \"#utility.yul\":6792:6796   */\n  0x20\n    /* \"#utility.yul\":6789:6790   */\n  0x00\n    /* \"#utility.yul\":6779:6797   */\n  keccak256\n    /* \"#utility.yul\":6771:6797   */\n  swap1\n  pop\n    /* \"#utility.yul\":6663:6804   */\n  swap2\n  swap1\n  pop\n  jump\t// out\n    /* \"#utility.yul\":6810:6903   */\ntag_94:\n    /* \"#utility.yul\":6847:6853   */\n  0x00\n    /* \"#utility.yul\":6894:6896   */\n  0x20\n    /* \"#utility.yul\":6889:6891   */\n  0x1f\n    /* \"#utility.yul\":6882:6887   */\n  dup4\n    /* \"#utility.yul\":6878:6892   */\n  add\n    /* \"#utility.yul\":6874:6897   */\n  div\n    /* \"#utility.yul\":6864:6897   */\n  swap1\n  pop\n    /* \"#utility.yul\":6810:6903   */\n  swap2\n  swap1\n  pop\n  jump\t// out\n    /* \"#utility.yul\":6909:7016   */\ntag_95:\n    /* \"#utility.yul\":6953:6961   */\n  0x00\n    /* \"#utility.yul\":7003:7008   */\n  dup3\n    /* \"#utility.yul\":6997:7001   */\n  dup3\n    /* \"#utility.yul\":6993:7009   */\n  shl\n    /* \"#utility.yul\":6972:7009   */\n  swap1\n  pop\n    /* \"#utility.yul\":6909:7016   */\n  swap3\n  swap2\n  pop\n  pop\n  jump\t// out\n    /* \"#utility.yul\":7022:7415   */\ntag_96:\n    /* \"#utility.yul\":7091:7097   */\n  0x00\n    /* \"#utility.yul\":7141:7142   */\n  0x08\n    /* \"#utility.yul\":7129:7139   */\n  dup4\n    /* \"#utility.yul\":7125:7143   */\n  mul\n    /* \"#utility.yul\":7164:7261   */\n  tag_198\n    /* \"#utility.yul\":7194:7260   */\n  0xffffffffffffffffffffffffffffffffffffffffffffffffffffffffffffffff\n    /* \"#utility.yul\":7183:7192   */\n  dup3\n    /* \"#utility.yul\":7164:7261   */\n  tag_95\n  jump\t// in\ntag_198:\n    /* \"#utility.yul\":7282:7321   */\n  tag_199\n    /* \"#utility.yul\":7312:7320   */\n  dup7\n    /* \"#utility.yul\":7301:7310   */\n  dup4\n    /* \"#utility.yul\":7282:7321   */\n  tag_95\n  jump\t// in\ntag_199:\n    /* \"#utility.yul\":7270:7321   */\n  swap6\n  pop\n    /* \"#utility.yul\":7354:7358   */\n  dup1\n    /* \"#utility.yul\":7350:7359   */\n  not\n    /* \"#utility.yul\":7343:7348   */\n  dup5\n    /* \"#utility.yul\":7339:7360   */\n  and\n    /* \"#utility.yul\":7330:7360   */\n  swap4\n  pop\n    /* \"#utility.yul\":7403:7407   */\n  dup1\n    /* \"#utility.yul\":7393:7401   */\n  dup7\n    /* \"#utility.yul\":7389:7408   */\n  and\n    /* \"#utility.yul\":7382:7387   */\n  dup5\n    /* \"#utility.yul\":7379:7409   */\n  or\n    /* \"#utility.yul\":7369:7409   */\n  swap3\n  pop\n    /* \"#utility.yul\":7098:7415   */\n  pop\n  pop\n    /* \"#utility.yul\":7022:7415   */\n  swap4\n  swap3\n  pop\n  pop\n  pop\n  jump\t// out\n    /* \"#utility.yul\":7421:7481   */\ntag_97:\n    /* \"#utility.yul\":7449:7452   */\n  0x00\n    /* \"#utility.yul\":7470:7475   */\n  dup2\n    /* \"#utility.yul\":7463:7475   */\n  swap1\n  pop\n    /* \"#utility.yul\":7421:7481   */\n  swap2\n  swap1\n  pop\n  jump\t// out\n    /* \"#utility.yul\":7487:7629   */\ntag_98:\n    /* \"#utility.yul\":7537:7546   */\n  0x00\n    /* \"#utility.yul\":7570:7623   */\n  tag_202\n    /* \"#utility.yul\":7588:7622   */\n  tag_203\n    /* \"#utility.yul\":7597:7621   */\n  tag_204\n    /* \"#utility.yul\":7615:7620   */\n  dup5\n    /* \"#utility.yul\":7597:7621   */\n  tag_85\n  jump\t// in\ntag_204:\n    /* \"#utility.yul\":7588:7622   */\n  tag_97\n  jump\t// in\ntag_203:\n    /* \"#utility.yul\":7570:7623   */\n  tag_85\n  jump\t// in\ntag_202:\n    /* \"#utility.yul\":7557:7623   */\n  swap1\n  pop\n    /* \"#utility.yul\":7487:7629   */\n  swap2\n  swap1\n  pop\n  jump\t// out\n    /* \"#utility.yul\":7635:7710   */\ntag_99:\n    /* \"#utility.yul\":7678:7681   */\n  0x00\n    /* \"#utility.yul\":7699:7704   */\n  dup2\n    /* \"#utility.yul\":7692:7704   */\n  swap1\n  pop\n    /* \"#utility.yul\":7635:7710   */\n  swap2\n  swap1\n  pop\n  jump\t// out\n    /* \"#utility.yul\":7716:7985   */\ntag_100:\n    /* \"#utility.yul\":7826:7865   */\n  tag_207\n    /* \"#utility.yul\":7857:7864   */\n  dup4\n    /* \"#utility.yul\":7826:7865   */\n  tag_98\n  jump\t// in\ntag_207:\n    /* \"#utility.yul\":7887:7978   */\n  tag_208\n    /* \"#utility.yul\":7936:7977   */\n  tag_209\n    /* \"#utility.yul\":7960:7976   */\n  dup3\n    /* \"#utility.yul\":7936:7977   */\n  tag_99\n  jump\t// in\ntag_209:\n    /* \"#utility.yul\":7928:7934   */\n  dup5\n    /* \"#utility.yul\":7921:7925   */\n  dup5\n    /* \"#utility.yul\":7915:7926   */\n  sload\n    /* \"#utility.yul\":7887:7978   */\n  tag_96\n  jump\t// in\ntag_208:\n    /* \"#utility.yul\":7881:7885   */\n  dup3\n    /* \"#utility.yul\":7874:7979   */\n  sstore\n    /* \"#utility.yul\":7792:7985   */\n  pop\n    /* \"#utility.yul\":7716:7985   */\n  pop\n  pop\n  pop\n  jump\t// out\n    /* \"#utility.yul\":7991:8064   */\ntag_101:\n    /* \"#utility.yul\":8036:8039   */\n  0x00\n    /* \"#utility.yul\":8057:8058   */\n  0x00\n    /* \"#utility.yul\":8050:8058   */\n  swap1\n  pop\n    /* \"#utility.yul\":7991:8064   */\n  swap1\n  jump\t// out\n    /* \"#utility.yul\":8070:8259   */\ntag_102:\n    /* \"#utility.yul\":8147:8179   */\n  tag_212\n  tag_101\n  jump\t// in\ntag_212:\n    /* \"#utility.yul\":8188:8253   */\n  tag_213\n    /* \"#utility.yul\":8246:8252   */\n  dup2\n    /* \"#utility.yul\":8238:8244   */\n  dup5\n    /* \"#utility.yul\":8232:8236   */\n  dup5\n    /* \"#utility.yul\":8188:8253   */\n  tag_100\n  jump\t// in\ntag_213:\n    /* \"#utility.yul\":8123:8259   */\n  pop\n    /* \"#utility.yul\":8070:8259   */\n  pop\n  pop\n  jump\t// out\n    /* \"#utility.yul\":8265:8451   */\ntag_103:\n    /* \"#utility.yul\":8325:8445   */\ntag_215:\n    /* \"#utility.yul\":8342:8345   */\n  dup2\n    /* \"#utility.yul\":8335:8340   */\n  dup2\n    /* \"#utility.yul\":8332:8346   */\n  lt\n    /* \"#utility.yul\":8325:8445   */\n  iszero\n  tag_217\n  jumpi\n    /* \"#utility.yul\":8396:8435   */\n  tag_218\n    /* \"#utility.yul\":8433:8434   */\n  0x00\n    /* \"#utility.yul\":8426:8431   */\n  dup3\n    /* \"#utility.yul\":8396:8435   */\n  tag_102\n  jump\t// in\ntag_218:\n    /* \"#utility.yul\":8369:8370   */\n  0x01\n    /* \"#utility.yul\":8362:8367   */\n  dup2\n    /* \"#utility.yul\":8358:8371   */\n  add\n    /* \"#utility.yul\":8349:8371   */\n  swap1\n  pop\n    /* \"#utility.yul\":8325:8445   */\n  jump(tag_215)\ntag_217:\n    /* \"#utility.yul\":8265:8451   */\n  pop\n  pop\n  jump\t// out\n    /* \"#utility.yul\":8457:9000   */\ntag_104:\n    /* \"#utility.yul\":8558:8560   */\n  0x1f\n    /* \"#utility.yul\":8553:8556   */\n  dup3\n    /* \"#utility.yul\":8550:8561   */\n  gt\n    /* \"#utility.yul\":8547:8993   */\n  iszero\n  tag_220\n  jumpi\n    /* \"#utility.yul\":8592:8630   */\n  tag_221\n    /* \"#utility.yul\":8624:8629   */\n  dup2\n    /* \"#utility.yul\":8592:8630   */\n  tag_93\n  jump\t// in\ntag_221:\n    /* \"#utility.yul\":8676:8705   */\n  tag_222\n    /* \"#utility.yul\":8694:8704   */\n  dup5\n    /* \"#utility.yul\":8676:8705   */\n  tag_94\n  jump\t// in\ntag_222:\n    /* \"#utility.yul\":8666:8674   */\n  dup2\n    /* \"#utility.yul\":8662:8706   */\n  add\n    /* \"#utility.yul\":8859:8861   */\n  0x20\n    /* \"#utility.yul\":8847:8857   */\n  dup6\n    /* \"#utility.yul\":8844:8862   */\n  lt\n    /* \"#utility.yul\":8841:8890   */\n  iszero\n  tag_223\n  jumpi\n    /* \"#utility.yul\":8880:8888   */\n  dup2\n    /* \"#utility.yul\":8865:8888   */\n  swap1\n  pop\n    /* \"#utility.yul\":8841:8890   */\ntag_223:\n    /* \"#utility.yul\":8903:8983   */\n  tag_224\n    /* \"#utility.yul\":8959:8981   */\n  tag_225\n    /* \"#utility.yul\":8977:8980   */\n  dup6\n    /* \"#utility.yul\":8959:8981   */\n  tag_94\n  jump\t// in\ntag_225:\n    /* \"#utility.yul\":8949:8957   */\n  dup4\n    /* \"#utility.yul\":8945:8982   */\n  add\n    /* \"#utility.yul\":8932:8943   */\n  dup3\n    /* \"#utility.yul\":8903:8983   */\n  tag_103\n  jump\t// in\ntag_224:\n    /* \"#utility.yul\":8562:8993   */\n  pop\n  pop\n    /* \"#utility.yul\":8547:8993   */\ntag_220:\n    /* \"#utility.yul\":8457:9000   */\n  pop\n  pop\n  pop\n  jump\t// out\n    /* \"#utility.yul\":9006:9123   */\ntag_105:\n    /* \"#utility.yul\":9060:9068   */\n  0x00\n    /* \"#utility.yul\":9110:9115   */\n  dup3\n    /* \"#utility.yul\":9104:9108   */\n  dup3\n    /* \"#utility.yul\":9100:9116   */\n  shr\n    /* \"#utility.yul\":9079:9116   */\n  swap1\n  pop\n    /* \"#utility.yul\":9006:9123   */\n  swap3\n  swap2\n  pop\n  pop\n  jump\t// out\n    /* \"#utility.yul\":9129:9298   */\ntag_106:\n    /* \"#utility.yul\":9173:9179   */\n  0x00\n    /* \"#utility.yul\":9206:9257   */\n  tag_228\n    /* \"#utility.yul\":9254:9255   */\n  0x00\n    /* \"#utility.yul\":9250:9256   */\n  not\n    /* \"#utility.yul\":9242:9247   */\n  dup5\n    /* \"#utility.yul\":9239:9240   */\n  0x08\n    /* \"#utility.yul\":9235:9248   */\n  mul\n    /* \"#utility.yul\":9206:9257   */\n  tag_105\n  jump\t// in\ntag_228:\n    /* \"#utility.yul\":9202:9258   */\n  not\n    /* \"#utility.yul\":9287:9291   */\n  dup1\n    /* \"#utility.yul\":9281:9285   */\n  dup4\n    /* \"#utility.yul\":9277:9292   */\n  and\n    /* \"#utility.yul\":9267:9292   */\n  swap2\n  pop\n    /* \"#utility.yul\":9180:9298   */\n  pop\n    /* \"#utility.yul\":9129:9298   */\n  swap3\n  swap2\n  pop\n  pop\n  jump\t// out\n    /* \"#utility.yul\":9303:9598   */\ntag_107:\n    /* \"#utility.yul\":9379:9383   */\n  0x00\n    /* \"#utility.yul\":9525:9554   */\n  tag_230\n    /* \"#utility.yul\":9550:9553   */\n  dup4\n    /* \"#utility.yul\":9544:9548   */\n  dup4\n    /* \"#utility.yul\":9525:9554   */\n  tag_106\n  jump\t// in\ntag_230:\n    /* \"#utility.yul\":9517:9554   */\n  swap2\n  pop\n    /* \"#utility.yul\":9587:9590   */\n  dup3\n    /* \"#utility.yul\":9584:9585   */\n  0x02\n    /* \"#utility.yul\":9580:9591   */\n  mul\n    /* \"#utility.yul\":9574:9578   */\n  dup3\n    /* \"#utility.yul\":9571:9592   */\n  or\n    /* \"#utility.yul\":9563:9592   */\n  swap1\n  pop\n    /* \"#utility.yul\":9303:9598   */\n  swap3\n  swap2\n  pop\n  pop\n  jump\t// out\n    /* \"#utility.yul\":9603:10998   */\ntag_9:\n    /* \"#utility.yul\":9720:9757   */\n  tag_232\n    /* \"#utility.yul\":9753:9756   */\n  dup3\n    /* \"#utility.yul\":9720:9757   */\n  tag_90\n  jump\t// in\ntag_232:\n    /* \"#utility.yul\":9822:9840   */\n  0xffffffffffffffff\n    /* \"#utility.yul\":9814:9820   */\n  dup2\n    /* \"#utility.yul\":9811:9841   */\n  gt\n    /* \"#utility.yul\":9808:9864   */\n  iszero\n  tag_233\n  jumpi\n    /* \"#utility.yul\":9844:9862   */\n  tag_234\n  tag_73\n  jump\t// in\ntag_234:\n    /* \"#utility.yul\":9808:9864   */\ntag_233:\n    /* \"#utility.yul\":9888:9926   */\n  tag_235\n    /* \"#utility.yul\":9920:9924   */\n  dup3\n    /* \"#utility.yul\":9914:9925   */\n  sload\n    /* \"#utility.yul\":9888:9926   */\n  tag_92\n  jump\t// in\ntag_235:\n    /* \"#utility.yul\":9973:10040   */\n  tag_236\n    /* \"#utility.yul\":10033:10039   */\n  dup3\n    /* \"#utility.yul\":10025:10031   */\n  dup3\n    /* \"#utility.yul\":10019:10023   */\n  dup6\n    /* \"#utility.yul\":9973:10040   */\n  tag_104\n  jump\t// in\ntag_236:\n    /* \"#utility.yul\":10067:10068   */\n  0x00\n    /* \"#utility.yul\":10091:10095   */\n  0x20\n    /* \"#utility.yul\":10078:10095   */\n  swap1\n  pop\n    /* \"#utility.yul\":10123:10125   */\n  0x1f\n    /* \"#utility.yul\":10115:10121   */\n  dup4\n    /* \"#utility.yul\":10112:10126   */\n  gt\n    /* \"#utility.yul\":10140:10141   */\n  0x01\n    /* \"#utility.yul\":10135:10753   */\n  dup2\n  eq\n  tag_238\n  jumpi\n    /* \"#utility.yul\":10797:10798   */\n  0x00\n    /* \"#utility.yul\":10814:10820   */\n  dup5\n    /* \"#utility.yul\":10811:10888   */\n  iszero\n  tag_239\n  jumpi\n    /* \"#utility.yul\":10863:10872   */\n  dup3\n    /* \"#utility.yul\":10858:10861   */\n  dup8\n    /* \"#utility.yul\":10854:10873   */\n  add\n    /* \"#utility.yul\":10848:10874   */\n  mload\n    /* \"#utility.yul\":10839:10874   */\n  swap1\n  pop\n    /* \"#utility.yul\":10811:10888   */\ntag_239:\n    /* \"#utility.yul\":10914:10981   */\n  tag_240\n    /* \"#utility.yul\":10974:10980   */\n  dup6\n    /* \"#utility.yul\":10967:10972   */\n  dup3\n    /* \"#utility.yul\":10914:10981   */\n  tag_107\n  jump\t// in\ntag_240:\n    /* \"#utility.yul\":10908:10912   */\n  dup7\n    /* \"#utility.yul\":10901:10982   */\n  sstore\n    /* \"#utility.yul\":10770:10992   */\n  pop\n    /* \"#utility.yul\":10105:10992   */\n  jump(tag_237)\n    /* \"#utility.yul\":10135:10753   */\ntag_238:\n    /* \"#utility.yul\":10187:10191   */\n  0x1f\n    /* \"#utility.yul\":10183:10192   */\n  not\n    /* \"#utility.yul\":10175:10181   */\n  dup5\n    /* \"#utility.yul\":10171:10193   */\n  and\n    /* \"#utility.yul\":10221:10258   */\n  tag_241\n    /* \"#utility.yul\":10253:10257   */\n  dup7\n    /* \"#utility.yul\":10221:10258   */\n  tag_93\n  jump\t// in\ntag_241:\n    /* \"#utility.yul\":10280:10281   */\n  0x00\n    /* \"#utility.yul\":10294:10502   */\ntag_242:\n    /* \"#utility.yul\":10308:10315   */\n  dup3\n    /* \"#utility.yul\":10305:10306   */\n  dup2\n    /* \"#utility.yul\":10302:10316   */\n  lt\n    /* \"#utility.yul\":10294:10502   */\n  iszero\n  tag_244\n  jumpi\n    /* \"#utility.yul\":10387:10396   */\n  dup5\n    /* \"#utility.yul\":10382:10385   */\n  dup10\n    /* \"#utility.yul\":10378:10397   */\n  add\n    /* \"#utility.yul\":10372:10398   */\n  mload\n    /* \"#utility.yul\":10364:10370   */\n  dup3\n    /* \"#utility.yul\":10357:10399   */\n  sstore\n    /* \"#utility.yul\":10438:10439   */\n  0x01\n    /* \"#utility.yul\":10430:10436   */\n  dup3\n    /* \"#utility.yul\":10426:10440   */\n  add\n    /* \"#utility.yul\":10416:10440   */\n  swap2\n  pop\n    /* \"#utility.yul\":10485:10487   */\n  0x20\n    /* \"#utility.yul\":10474:10483   */\n  dup6\n    /* \"#utility.yul\":10470:10488   */\n  add\n    /* \"#utility.yul\":10457:10488   */\n  swap5\n  pop\n    /* \"#utility.yul\":10331:10335   */\n  0x20\n    /* \"#utility.yul\":10328:10329   */\n  dup2\n    /* \"#utility.yul\":10324:10336   */\n  add\n    /* \"#utility.yul\":10319:10336   */\n  swap1\n  pop\n    /* \"#utility.yul\":10294:10502   */\n  jump(tag_242)\ntag_244:\n    /* \"#utility.yul\":10530:10536   */\n  dup7\n    /* \"#utility.yul\":10521:10528   */\n  dup4\n    /* \"#utility.yul\":10518:10537   */\n  lt\n    /* \"#utility.yul\":10515:10694   */\n  iszero\n  tag_245\n  jumpi\n    /* \"#utility.yul\":10588:10597   */\n  dup5\n    /* \"#utility.yul\":10583:10586   */\n  dup10\n    /* \"#utility.yul\":10579:10598   */\n  add\n    /* \"#utility.yul\":10573:10599   */\n  mload\n    /* \"#utility.yul\":10631:10679   */\n  tag_246\n    /* \"#utility.yul\":10673:10677   */\n  0x1f\n    /* \"#utility.yul\":10665:10671   */\n  dup10\n    /* \"#utility.yul\":10661:10678   */\n  and\n    /* \"#utility.yul\":10650:10659   */\n  dup3\n    /* \"#utility.yul\":10631:10679   */\n  tag_106\n  jump\t// in\ntag_246:\n    /* \"#utility.yul\":10623:10629   */\n  dup4\n    /* \"#utility.yul\":10616:10680   */\n  sstore\n    /* \"#utility.yul\":10538:10694   */\n  pop\n    /* \"#utility.yul\":10515:10694   */\ntag_245:\n    /* \"#utility.yul\":10740:10741   */\n  0x01\n    /* \"#utility.yul\":10736:10737   */\n  0x02\n    /* \"#utility.yul\":10728:10734   */\n  dup9\n    /* \"#utility.yul\":10724:10738   */\n  mul\n    /* \"#utility.yul\":10720:10742   */\n  add\n    /* \"#utility.yul\":10714:10718   */\n  dup9\n    /* \"#utility.yul\":10707:10743   */\n  sstore\n    /* \"#utility.yul\":10142:10753   */\n  pop\n  pop\n  pop\n    /* \"#utility.yul\":10105:10992   */\ntag_237:\n  pop\n    /* \"#utility.yul\":9695:10998   */\n  pop\n  pop\n  pop\n    /* \"#utility.yul\":9603:10998   */\n  pop\n  pop\n  jump\t// out\n    /* \"#utility.yul\":11004:11122   */\ntag_108:\n    /* \"#utility.yul\":11091:11115   */\n  tag_248\n    /* \"#utility.yul\":11109:11114   */\n  dup2\n    /* \"#utility.yul\":11091:11115   */\n  tag_79\n  jump\t// in\ntag_248:\n    /* \"#utility.yul\":11086:11089   */\n  dup3\n    /* \"#utility.yul\":11079:11116   */\n  mstore\n    /* \"#utility.yul\":11004:11122   */\n  pop\n  pop\n  jump\t// out\n    /* \"#utility.yul\":11128:11350   */\ntag_14:\n    /* \"#utility.yul\":11221:11225   */\n  0x00\n    /* \"#utility.yul\":11259:11261   */\n  0x20\n    /* \"#utility.yul\":11248:11257   */\n  dup3\n    /* \"#utility.yul\":11244:11262   */\n  add\n    /* \"#utility.yul\":11236:11262   */\n  swap1\n  pop\n    /* \"#utility.yul\":11272:11343   */\n  tag_250\n    /* \"#utility.yul\":11340:11341   */\n  0x00\n    /* \"#utility.yul\":11329:11338   */\n  dup4\n    /* \"#utility.yul\":11325:11342   */\n  add\n    /* \"#utility.yul\":11316:11322   */\n  dup5\n    /* \"#utility.yul\":11272:11343   */\n  tag_108\n  jump\t// in\ntag_250:\n    /* \"#utility.yul\":11128:11350   */\n  swap3\n  swap2\n  pop\n  pop\n  jump\t// out\n    /* \"#utility.yul\":11356:11525   */\ntag_109:\n    /* \"#utility.yul\":11440:11451   */\n  0x00\n    /* \"#utility.yul\":11474:11480   */\n  dup3\n    /* \"#utility.yul\":11469:11472   */\n  dup3\n    /* \"#utility.yul\":11462:11481   */\n  mstore\n    /* \"#utility.yul\":11514:11518   */\n  0x20\n    /* \"#utility.yul\":11509:11512   */\n  dup3\n    /* \"#utility.yul\":11505:11519   */\n  add\n    /* \"#utility.yul\":11490:11519   */\n  swap1\n  pop\n    /* \"#utility.yul\":11356:11525   */\n  swap3\n  swap2\n  pop\n  pop\n  jump\t// out\n    /* \"#utility.yul\":11531:11756   */\ntag_110:\n    /* \"#utility.yul\":11671:11705   */\n  0x526563697069656e747320616e6420616d6f756e7473206c656e677468206d69\n    /* \"#utility.yul\":11667:11668   */\n  0x00\n    /* \"#utility.yul\":11659:11665   */\n  dup3\n    /* \"#utility.yul\":11655:11669   */\n  add\n    /* \"#utility.yul\":11648:11706   */\n  mstore\n    /* \"#utility.yul\":11740:11748   */\n  0x736d617463680000000000000000000000000000000000000000000000000000\n    /* \"#utility.yul\":11735:11737   */\n  0x20\n    /* \"#utility.yul\":11727:11733   */\n  dup3\n    /* \"#utility.yul\":11723:11738   */\n  add\n    /* \"#utility.yul\":11716:11749   */\n  mstore\n    /* \"#utility.yul\":11531:11756   */\n  pop\n  jump\t// out\n    /* \"#utility.yul\":11762:12128   */\ntag_111:\n    /* \"#utility.yul\":11904:11907   */\n  0x00\n    /* \"#utility.yul\":11925:11992   */\n  tag_254\n    /* \"#utility.yul\":11989:11991   */\n  0x26\n    /* \"#utility.yul\":11984:11987   */\n  dup4\n    /* \"#utility.yul\":11925:11992   */\n  tag_109\n  jump\t// in\ntag_254:\n    /* \"#utility.yul\":11918:11992   */\n  swap2\n  pop\n    /* \"#utility.yul\":12001:12094   */\n  tag_255\n    /* \"#utility.yul\":12090:12093   */\n  dup3\n    /* \"#utility.yul\":12001:12094   */\n  tag_110\n  jump\t// in\ntag_255:\n    /* \"#utility.yul\":12119:12121   */\n  0x40\n    /* \"#utility.yul\":12114:12117   */\n  dup3\n    /* \"#utility.yul\":12110:12122   */\n  add\n    /* \"#utility.yul\":12103:12122   */\n  swap1\n  pop\n    /* \"#utility.yul\":11762:12128   */\n  swap2\n  swap1\n  pop\n  jump\t// out\n    /* \"#utility.yul\":12134:12553   */\ntag_20:\n    /* \"#utility.yul\":12300:12304   */\n  0x00\n    /* \"#utility.yul\":12338:12340   */\n  0x20\n    /* \"#utility.yul\":12327:12336   */\n  dup3\n    /* \"#utility.yul\":12323:12341   */\n  add\n    /* \"#utility.yul\":12315:12341   */\n  swap1\n  pop\n    /* \"#utility.yul\":12387:12396   */\n  dup2\n    /* \"#utility.yul\":12381:12385   */\n  dup2\n    /* \"#utility.yul\":12377:12397   */\n  sub\n    /* \"#utility.yul\":12373:12374   */\n  0x00\n    /* \"#utility.yul\":12362:12371   */\n  dup4\n    /* \"#utility.yul\":12358:12375   */\n  add\n    /* \"#utility.yul\":12351:12398   */\n  mstore\n    /* \"#utility.yul\":12415:12546   */\n  tag_257\n    /* \"#utility.yul\":12541:12545   */\n  dup2\n    /* \"#utility.yul\":12415:12546   */\n  tag_111\n  jump\t// in\ntag_257:\n    /* \"#utility.yul\":12407:12546   */\n  swap1\n  pop\n    /* \"#utility.yul\":12134:12553   */\n  swap2\n  swap1\n  pop\n  jump\t// out\n    /* \"#utility.yul\":12559:12739   */\ntag_112:\n    /* \"#utility.yul\":12607:12684   */\n  0x4e487b7100000000000000000000000000000000000000000000000000000000\n    /* \"#utility.yul\":12604:12605   */\n  0x00\n    /* \"#utility.yul\":12597:12685   */\n  mstore\n    /* \"#utility.yul\":12704:12708   */\n  0x11\n    /* \"#utility.yul\":12701:12702   */\n  0x04\n    /* \"#utility.yul\":12694:12709   */\n  mstore\n    /* \"#utility.yul\":12728:12732   */\n  0x24\n    /* \"#utility.yul\":12725:12726   */\n  0x00\n    /* \"#utility.yul\":12718:12733   */\n  revert\n    /* \"#utility.yul\":12745:12847   */\ntag_113:\n    /* \"#utility.yul\":12787:12795   */\n  0x00\n    /* \"#utility.yul\":12834:12839   */\n  dup2\n    /* \"#utility.yul\":12831:12832   */\n  0x01\n    /* \"#utility.yul\":12827:12840   */\n  shr\n    /* \"#utility.yul\":12806:12840   */\n  swap1\n  pop\n    /* \"#utility.yul\":12745:12847   */\n  swap2\n  swap1\n  pop\n  jump\t// out\n    /* \"#utility.yul\":12853:13701   */\ntag_114:\n    /* \"#utility.yul\":12914:12919   */\n  0x00\n    /* \"#utility.yul\":12921:12925   */\n  0x00\n    /* \"#utility.yul\":12945:12951   */\n  dup3\n    /* \"#utility.yul\":12936:12951   */\n  swap2\n  pop\n    /* \"#utility.yul\":12969:12974   */\n  dup4\n    /* \"#utility.yul\":12960:12974   */\n  swap1\n  pop\n    /* \"#utility.yul\":12983:13695   */\ntag_261:\n    /* \"#utility.yul\":13004:13005   */\n  0x01\n    /* \"#utility.yul\":12994:13002   */\n  dup6\n    /* \"#utility.yul\":12991:13006   */\n  gt\n    /* \"#utility.yul\":12983:13695   */\n  iszero\n  tag_263\n  jumpi\n    /* \"#utility.yul\":13099:13103   */\n  dup1\n    /* \"#utility.yul\":13094:13097   */\n  dup7\n    /* \"#utility.yul\":13090:13104   */\n  div\n    /* \"#utility.yul\":13084:13088   */\n  dup2\n    /* \"#utility.yul\":13081:13105   */\n  gt\n    /* \"#utility.yul\":13078:13128   */\n  iszero\n  tag_264\n  jumpi\n    /* \"#utility.yul\":13108:13126   */\n  tag_265\n  tag_112\n  jump\t// in\ntag_265:\n    /* \"#utility.yul\":13078:13128   */\ntag_264:\n    /* \"#utility.yul\":13158:13159   */\n  0x01\n    /* \"#utility.yul\":13148:13156   */\n  dup6\n    /* \"#utility.yul\":13144:13160   */\n  and\n    /* \"#utility.yul\":13141:13592   */\n  iszero\n  tag_266\n  jumpi\n    /* \"#utility.yul\":13573:13577   */\n  dup1\n    /* \"#utility.yul\":13566:13571   */\n  dup3\n    /* \"#utility.yul\":13562:13578   */\n  mul\n    /* \"#utility.yul\":13553:13578   */\n  swap2\n  pop\n    /* \"#utility.yul\":13141:13592   */\ntag_266:\n    /* \"#utility.yul\":13623:13627   */\n  dup1\n    /* \"#utility.yul\":13617:13621   */\n  dup2\n    /* \"#utility.yul\":13613:13628   */\n  mul\n    /* \"#utility.yul\":13605:13628   */\n  swap1\n  pop\n    /* \"#utility.yul\":13653:13685   */\n  tag_267\n    /* \"#utility.yul\":13676:13684   */\n  dup6\n    /* \"#utility.yul\":13653:13685   */\n  tag_113\n  jump\t// in\ntag_267:\n    /* \"#utility.yul\":13641:13685   */\n  swap5\n  pop\n    /* \"#utility.yul\":12983:13695   */\n  jump(tag_261)\ntag_263:\n    /* \"#utility.yul\":12853:13701   */\n  swap5\n  pop\n  swap5\n  swap3\n  pop\n  pop\n  pop\n  jump\t// out\n    /* \"#utility.yul\":13707:14780   */\ntag_115:\n    /* \"#utility.yul\":13761:13766   */\n  0x00\n    /* \"#utility.yul\":13952:13960   */\n  dup3\n    /* \"#utility.yul\":13942:13982   */\n  tag_269\n  jumpi\n    /* \"#utility.yul\":13973:13974   */\n  0x01\n    /* \"#utility.yul\":13964:13974   */\n  swap1\n  pop\n    /* \"#utility.yul\":13975:13980   */\n  jump(tag_268)\n    /* \"#utility.yul\":13942:13982   */\ntag_269:\n    /* \"#utility.yul\":14001:14005   */\n  dup2\n    /* \"#utility.yul\":13991:14027   */\n  tag_270\n  jumpi\n    /* \"#utility.yul\":14018:14019   */\n  0x00\n    /* \"#utility.yul\":14009:14019   */\n  swap1\n  pop\n    /* \"#utility.yul\":14020:14025   */\n  jump(tag_268)\n    /* \"#utility.yul\":13991:14027   */\ntag_270:\n    /* \"#utility.yul\":14087:14091   */\n  dup2\n    /* \"#utility.yul\":14135:14136   */\n  0x01\n    /* \"#utility.yul\":14130:14157   */\n  dup2\n  eq\n  tag_272\n  jumpi\n    /* \"#utility.yul\":14171:14172   */\n  0x02\n    /* \"#utility.yul\":14166:14357   */\n  dup2\n  eq\n  tag_273\n  jumpi\n    /* \"#utility.yul\":14080:14357   */\n  jump(tag_271)\n    /* \"#utility.yul\":14130:14157   */\ntag_272:\n    /* \"#utility.yul\":14148:14149   */\n  0x01\n    /* \"#utility.yul\":14139:14149   */\n  swap2\n  pop\n    /* \"#utility.yul\":14150:14155   */\n  pop\n  jump(tag_268)\n    /* \"#utility.yul\":14166:14357   */\ntag_273:\n    /* \"#utility.yul\":14211:14214   */\n  0xff\n    /* \"#utility.yul\":14201:14209   */\n  dup5\n    /* \"#utility.yul\":14198:14215   */\n  gt\n    /* \"#utility.yul\":14195:14238   */\n  iszero\n  tag_274\n  jumpi\n    /* \"#utility.yul\":14218:14236   */\n  tag_275\n  tag_112\n  jump\t// in\ntag_275:\n    /* \"#utility.yul\":14195:14238   */\ntag_274:\n    /* \"#utility.yul\":14267:14275   */\n  dup4\n    /* \"#utility.yul\":14264:14265   */\n  0x02\n    /* \"#utility.yul\":14260:14276   */\n  exp\n    /* \"#utility.yul\":14251:14276   */\n  swap2\n  pop\n    /* \"#utility.yul\":14302:14305   */\n  dup5\n    /* \"#utility.yul\":14295:14300   */\n  dup3\n    /* \"#utility.yul\":14292:14306   */\n  gt\n    /* \"#utility.yul\":14289:14329   */\n  iszero\n  tag_276\n  jumpi\n    /* \"#utility.yul\":14309:14327   */\n  tag_277\n  tag_112\n  jump\t// in\ntag_277:\n    /* \"#utility.yul\":14289:14329   */\ntag_276:\n    /* \"#utility.yul\":14342:14347   */\n  pop\n  jump(tag_268)\n    /* \"#utility.yul\":14080:14357   */\ntag_271:\n  pop\n    /* \"#utility.yul\":14466:14468   */\n  0x20\n    /* \"#utility.yul\":14456:14464   */\n  dup4\n    /* \"#utility.yul\":14453:14469   */\n  lt\n    /* \"#utility.yul\":14447:14450   */\n  0x0133\n    /* \"#utility.yul\":14441:14445   */\n  dup4\n    /* \"#utility.yul\":14438:14451   */\n  lt\n    /* \"#utility.yul\":14434:14470   */\n  and\n    /* \"#utility.yul\":14416:14418   */\n  0x4e\n    /* \"#utility.yul\":14406:14414   */\n  dup5\n    /* \"#utility.yul\":14403:14419   */\n  lt\n    /* \"#utility.yul\":14398:14400   */\n  0x0b\n    /* \"#utility.yul\":14392:14396   */\n  dup5\n    /* \"#utility.yul\":14389:14401   */\n  lt\n    /* \"#utility.yul\":14385:14420   */\n  and\n    /* \"#utility.yul\":14369:14480   */\n  or\n    /* \"#utility.yul\":14366:14612   */\n  iszero\n  tag_278\n  jumpi\n    /* \"#utility.yul\":14522:14530   */\n  dup3\n    /* \"#utility.yul\":14516:14520   */\n  dup3\n    /* \"#utility.yul\":14512:14531   */\n  exp\n    /* \"#utility.yul\":14503:14531   */\n  swap1\n  pop\n    /* \"#utility.yul\":14557:14560   */\n  dup4\n    /* \"#utility.yul\":14550:14555   */\n  dup2\n    /* \"#utility.yul\":14547:14561   */\n  gt\n    /* \"#utility.yul\":14544:14584   */\n  iszero\n  tag_279\n  jumpi\n    /* \"#utility.yul\":14564:14582   */\n  tag_280\n  tag_112\n  jump\t// in\ntag_280:\n    /* \"#utility.yul\":14544:14584   */\ntag_279:\n    /* \"#utility.yul\":14597:14602   */\n  jump(tag_268)\n    /* \"#utility.yul\":14366:14612   */\ntag_278:\n    /* \"#utility.yul\":14637:14679   */\n  tag_281\n    /* \"#utility.yul\":14675:14678   */\n  dup5\n    /* \"#utility.yul\":14665:14673   */\n  dup5\n    /* \"#utility.yul\":14659:14663   */\n  dup5\n    /* \"#utility.yul\":14656:14657   */\n  0x01\n    /* \"#utility.yul\":14637:14679   */\n  tag_114\n  jump\t// in\ntag_281:\n    /* \"#utility.yul\":14622:14679   */\n  swap3\n  pop\n  swap1\n  pop\n    /* \"#utility.yul\":14711:14715   */\n  dup2\n    /* \"#utility.yul\":14706:14709   */\n  dup5\n    /* \"#utility.yul\":14702:14716   */\n  div\n    /* \"#utility.yul\":14695:14700   */\n  dup2\n    /* \"#utility.yul\":14692:14717   */\n  gt\n    /* \"#utility.yul\":14689:14740   */\n  iszero\n  tag_282\n  jumpi\n    /* \"#utility.yul\":14720:14738   */\n  tag_283\n  tag_112\n  jump\t// in\ntag_283:\n    /* \"#utility.yul\":14689:14740   */\ntag_282:\n    /* \"#utility.yul\":14769:14773   */\n  dup2\n    /* \"#utility.yul\":14762:14767   */\n  dup2\n    /* \"#utility.yul\":14758:14774   */\n  mul\n    /* \"#utility.yul\":14749:14774   */\n  swap1\n  pop\n    /* \"#utility.yul\":13707:14780   */\ntag_268:\n  swap4\n  swap3\n  pop\n  pop\n  pop\n  jump\t// out\n    /* \"#utility.yul\":14786:14872   */\ntag_116:\n    /* \"#utility.yul\":14821:14828   */\n  0x00\n    /* \"#utility.yul\":14861:14865   */\n  0xff\n    /* \"#utility.yul\":14854:14859   */\n  dup3\n    /* \"#utility.yul\":14850:14866   */\n  and\n    /* \"#utility.yul\":14839:14866   */\n  swap1\n  pop\n    /* \"#utility.yul\":14786:14872   */\n  swap2\n  swap1\n  pop\n  jump\t// out\n    /* \"#utility.yul\":14878:15159   */\ntag_24:\n    /* \"#utility.yul\":14936:14941   */\n  0x00\n    /* \"#utility.yul\":14960:14983   */\n  tag_286\n    /* \"#utility.yul\":14978:14982   */\n  dup3\n    /* \"#utility.yul\":14960:14983   */\n  tag_85\n  jump\t// in\ntag_286:\n    /* \"#utility.yul\":14952:14983   */\n  swap2\n  pop\n    /* \"#utility.yul\":15004:15029   */\n  tag_287\n    /* \"#utility.yul\":15020:15028   */\n  dup4\n    /* \"#utility.yul\":15004:15029   */\n  tag_116\n  jump\t// in\ntag_287:\n    /* \"#utility.yul\":14992:15029   */\n  swap3\n  pop\n    /* \"#utility.yul\":15048:15152   */\n  tag_288\n    /* \"#utility.yul\":15085:15151   */\n  0xffffffffffffffffffffffffffffffffffffffffffffffffffffffffffffffff\n    /* \"#utility.yul\":15075:15083   */\n  dup5\n    /* \"#utility.yul\":15069:15073   */\n  dup5\n    /* \"#utility.yul\":15048:15152   */\n  tag_115\n  jump\t// in\ntag_288:\n    /* \"#utility.yul\":15039:15152   */\n  swap1\n  pop\n    /* \"#utility.yul\":14878:15159   */\n  swap3\n  swap2\n  pop\n  pop\n  jump\t// out\n    /* \"#utility.yul\":15165:15575   */\ntag_26:\n    /* \"#utility.yul\":15205:15212   */\n  0x00\n    /* \"#utility.yul\":15228:15248   */\n  tag_290\n    /* \"#utility.yul\":15246:15247   */\n  dup3\n    /* \"#utility.yul\":15228:15248   */\n  tag_85\n  jump\t// in\ntag_290:\n    /* \"#utility.yul\":15223:15248   */\n  swap2\n  pop\n    /* \"#utility.yul\":15262:15282   */\n  tag_291\n    /* \"#utility.yul\":15280:15281   */\n  dup4\n    /* \"#utility.yul\":15262:15282   */\n  tag_85\n  jump\t// in\ntag_291:\n    /* \"#utility.yul\":15257:15282   */\n  swap3\n  pop\n    /* \"#utility.yul\":15317:15318   */\n  dup3\n    /* \"#utility.yul\":15314:15315   */\n  dup3\n    /* \"#utility.yul\":15310:15319   */\n  mul\n    /* \"#utility.yul\":15339:15369   */\n  tag_292\n    /* \"#utility.yul\":15357:15368   */\n  dup2\n    /* \"#utility.yul\":15339:15369   */\n  tag_85\n  jump\t// in\ntag_292:\n    /* \"#utility.yul\":15328:15369   */\n  swap2\n  pop\n    /* \"#utility.yul\":15518:15519   */\n  dup3\n    /* \"#utility.yul\":15509:15516   */\n  dup3\n    /* \"#utility.yul\":15505:15520   */\n  div\n    /* \"#utility.yul\":15502:15503   */\n  dup5\n    /* \"#utility.yul\":15499:15521   */\n  eq\n    /* \"#utility.yul\":15479:15480   */\n  dup4\n    /* \"#utility.yul\":15472:15481   */\n  iszero\n    /* \"#utility.yul\":15452:15535   */\n  or\n    /* \"#utility.yul\":15429:15568   */\n  tag_293\n  jumpi\n    /* \"#utility.yul\":15548:15566   */\n  tag_294\n  tag_112\n  jump\t// in\ntag_294:\n    /* \"#utility.yul\":15429:15568   */\ntag_293:\n    /* \"#utility.yul\":15213:15575   */\n  pop\n    /* \"#utility.yul\":15165:15575   */\n  swap3\n  swap2\n  pop\n  pop\n  jump\t// out\n    /* \"#utility.yul\":15581:15761   */\ntag_35:\n    /* \"#utility.yul\":15629:15706   */\n  0x4e487b7100000000000000000000000000000000000000000000000000000000\n    /* \"#utility.yul\":15626:15627   */\n  0x00\n    /* \"#utility.yul\":15619:15707   */\n  mstore\n    /* \"#utility.yul\":15726:15730   */\n  0x32\n    /* \"#utility.yul\":15723:15724   */\n  0x04\n    /* \"#utility.yul\":15716:15731   */\n  mstore\n    /* \"#utility.yul\":15750:15754   */\n  0x24\n    /* \"#utility.yul\":15747:15748   */\n  0x00\n    /* \"#utility.yul\":15740:15755   */\n  revert\n    /* \"#utility.yul\":15767:15958   */\ntag_59:\n    /* \"#utility.yul\":15807:15810   */\n  0x00\n    /* \"#utility.yul\":15826:15846   */\n  tag_297\n    /* \"#utility.yul\":15844:15845   */\n  dup3\n    /* \"#utility.yul\":15826:15846   */\n  tag_85\n  jump\t// in\ntag_297:\n    /* \"#utility.yul\":15821:15846   */\n  swap2\n  pop\n    /* \"#utility.yul\":15860:15880   */\n  tag_298\n    /* \"#utility.yul\":15878:15879   */\n  dup4\n    /* \"#utility.yul\":15860:15880   */\n  tag_85\n  jump\t// in\ntag_298:\n    /* \"#utility.yul\":15855:15880   */\n  swap3\n  pop\n    /* \"#utility.yul\":15903:15904   */\n  dup3\n    /* \"#utility.yul\":15900:15901   */\n  dup3\n    /* \"#utility.yul\":15896:15905   */\n  add\n    /* \"#utility.yul\":15889:15905   */\n  swap1\n  pop\n    /* \"#utility.yul\":15924:15927   */\n  dup1\n    /* \"#utility.yul\":15921:15922   */\n  dup3\n    /* \"#utility.yul\":15918:15928   */\n  gt\n    /* \"#utility.yul\":15915:15951   */\n  iszero\n  tag_299\n  jumpi\n    /* \"#utility.yul\":15931:15949   */\n  tag_300\n  tag_112\n  jump\t// in\ntag_300:\n    /* \"#utility.yul\":15915:15951   */\ntag_299:\n    /* \"#utility.yul\":15767:15958   */\n  swap3\n  swap2\n  pop\n  pop\n  jump\t// out\n    /* \"#utility.yul\":15964:16082   */\ntag_117:\n    /* \"#utility.yul\":16051:16075   */\n  tag_302\n    /* \"#utility.yul\":16069:16074   */\n  dup2\n    /* \"#utility.yul\":16051:16075   */\n  tag_85\n  jump\t// in\ntag_302:\n    /* \"#utility.yul\":16046:16049   */\n  dup3\n    /* \"#utility.yul\":16039:16076   */\n  mstore\n    /* \"#utility.yul\":15964:16082   */\n  pop\n  pop\n  jump\t// out\n    /* \"#utility.yul\":16088:16530   */\ntag_63:\n    /* \"#utility.yul\":16237:16241   */\n  0x00\n    /* \"#utility.yul\":16275:16277   */\n  0x60\n    /* \"#utility.yul\":16264:16273   */\n  dup3\n    /* \"#utility.yul\":16260:16278   */\n  add\n    /* \"#utility.yul\":16252:16278   */\n  swap1\n  pop\n    /* \"#utility.yul\":16288:16359   */\n  tag_304\n    /* \"#utility.yul\":16356:16357   */\n  0x00\n    /* \"#utility.yul\":16345:16354   */\n  dup4\n    /* \"#utility.yul\":16341:16358   */\n  add\n    /* \"#utility.yul\":16332:16338   */\n  dup7\n    /* \"#utility.yul\":16288:16359   */\n  tag_108\n  jump\t// in\ntag_304:\n    /* \"#utility.yul\":16369:16441   */\n  tag_305\n    /* \"#utility.yul\":16437:16439   */\n  0x20\n    /* \"#utility.yul\":16426:16435   */\n  dup4\n    /* \"#utility.yul\":16422:16440   */\n  add\n    /* \"#utility.yul\":16413:16419   */\n  dup6\n    /* \"#utility.yul\":16369:16441   */\n  tag_117\n  jump\t// in\ntag_305:\n    /* \"#utility.yul\":16451:16523   */\n  tag_306\n    /* \"#utility.yul\":16519:16521   */\n  0x40\n    /* \"#utility.yul\":16508:16517   */\n  dup4\n    /* \"#utility.yul\":16504:16522   */\n  add\n    /* \"#utility.yul\":16495:16501   */\n  dup5\n    /* \"#utility.yul\":16451:16523   */\n  tag_117\n  jump\t// in\ntag_306:\n    /* \"#utility.yul\":16088:16530   */\n  swap5\n  swap4\n  pop\n  pop\n  pop\n  pop\n  jump\t// out\n    /* \"#utility.yul\":16536:16758   */\ntag_67:\n    /* \"#utility.yul\":16629:16633   */\n  0x00\n    /* \"#utility.yul\":16667:16669   */\n  0x20\n    /* \"#utility.yul\":16656:16665   */\n  dup3\n    /* \"#utility.yul\":16652:16670   */\n  add\n    /* \"#utility.yul\":16644:16670   */\n  swap1\n  pop\n    /* \"#utility.yul\":16680:16751   */\n  tag_308\n    /* \"#utility.yul\":16748:16749   */\n  0x00\n    /* \"#utility.yul\":16737:16746   */\n  dup4\n    /* \"#utility.yul\":16733:16750   */\n  add\n    /* \"#utility.yul\":16724:16730   */\n  dup5\n    /* \"#utility.yul\":16680:16751   */\n  tag_117\n  jump\t// in\ntag_308:\n    /* \"#utility.yul\":16536:16758   */\n  swap3\n  swap2\n  pop\n  pop\n  jump\t// out\n    /* \"contracts/ces/test2.sol\":173:1376  contract TestUSDT is ERC20, Ownable {... */\ntag_42:\n  dataSize(sub_0)\n  dup1\n  dataOffset(sub_0)\n  0x00\n  codecopy\n  0x00\n  return\nstop\n\nsub_0: assembly {\n        /* \"contracts/ces/test2.sol\":173:1376  contract TestUSDT is ERC20, Ownable {... */\n      mstore(0x40, 0x80)\n      callvalue\n      dup1\n      iszero\n      tag_1\n      jumpi\n      revert(0x00, 0x00)\n    tag_1:\n      pop\n      jumpi(tag_2, lt(calldatasize, 0x04))\n      shr(0xe0, calldataload(0x00))\n      dup1\n      0x70a08231\n      gt\n      tag_16\n      jumpi\n      dup1\n      0x95d89b41\n      gt\n      tag_17\n      jumpi\n      dup1\n      0x95d89b41\n      eq\n      tag_12\n      jumpi\n      dup1\n      0xa9059cbb\n      eq\n      tag_13\n      jumpi\n      dup1\n      0xdd62ed3e\n      eq\n      tag_14\n      jumpi\n      dup1\n      0xf2fde38b\n      eq\n      tag_15\n      jumpi\n      jump(tag_2)\n    tag_17:\n      dup1\n      0x70a08231\n      eq\n      tag_9\n      jumpi\n      dup1\n      0x715018a6\n      eq\n      tag_10\n      jumpi\n      dup1\n      0x8da5cb5b\n      eq\n      tag_11\n      jumpi\n      jump(tag_2)\n    tag_16:\n      dup1\n      0x06fdde03\n      eq\n      tag_3\n      jumpi\n      dup1\n      0x095ea7b3\n      eq\n      tag_4\n      jumpi\n      dup1\n      0x18160ddd\n      eq\n      tag_5\n      jumpi\n      dup1\n      0x23b872dd\n      eq\n      tag_6\n      jumpi\n      dup1\n      0x313ce567\n      eq\n      tag_7\n      jumpi\n      dup1\n      0x4bd09c2a\n      eq\n      tag_8\n      jumpi\n    tag_2:\n      revert(0x00, 0x00)\n        /* \"@openzeppelin/contracts/token/ERC20/ERC20.sol\":1760:1849  function name() public view virtual returns (string memory) {... */\n    tag_3:\n      tag_18\n      tag_19\n      jump\t// in\n    tag_18:\n      mload(0x40)\n      tag_20\n      swap2\n      swap1\n      tag_21\n      jump\t// in\n    tag_20:\n      mload(0x40)\n      dup1\n      swap2\n      sub\n      swap1\n      return\n        /* \"@openzeppelin/contracts/token/ERC20/ERC20.sol\":3979:4165  function approve(address spender, uint256 value) public virtual returns (bool) {... */\n    tag_4:\n      tag_22\n      0x04\n      dup1\n      calldatasize\n      sub\n      dup2\n      add\n      swap1\n      tag_23\n      swap2\n      swap1\n      tag_24\n      jump\t// in\n    tag_23:\n      tag_25\n      jump\t// in\n    tag_22:\n      mload(0x40)\n      tag_26\n      swap2\n      swap1\n      tag_27\n      jump\t// in\n    tag_26:\n      mload(0x40)\n      dup1\n      swap2\n      sub\n      swap1\n      return\n        /* \"@openzeppelin/contracts/token/ERC20/ERC20.sol\":2830:2927  function totalSupply() public view virtual returns (uint256) {... */\n    tag_5:\n      tag_28\n      tag_29\n      jump\t// in\n    tag_28:\n      mload(0x40)\n      tag_30\n      swap2\n      swap1\n      tag_31\n      jump\t// in\n    tag_30:\n      mload(0x40)\n      dup1\n      swap2\n      sub\n      swap1\n      return\n        /* \"@openzeppelin/contracts/token/ERC20/ERC20.sol\":4757:5001  function transferFrom(address from, address to, uint256 value) public virtual returns (bool) {... */\n    tag_6:\n      tag_32\n      0x04\n      dup1\n      calldatasize\n      sub\n      dup2\n      add\n      swap1\n      tag_33\n      swap2\n      swap1\n      tag_34\n      jump\t// in\n    tag_33:\n      tag_35\n      jump\t// in\n    tag_32:\n      mload(0x40)\n      tag_36\n      swap2\n      swap1\n      tag_27\n      jump\t// in\n    tag_36:\n      mload(0x40)\n      dup1\n      swap2\n      sub\n      swap1\n      return\n        /* \"@openzeppelin/contracts/token/ERC20/ERC20.sol\":2688:2770  function decimals() public view virtual returns (uint8) {... */\n    tag_7:\n      tag_37\n      tag_38\n      jump\t// in\n    tag_37:\n      mload(0x40)\n      tag_39\n      swap2\n      swap1\n      tag_40\n      jump\t// in\n    tag_39:\n      mload(0x40)\n      dup1\n      swap2\n      sub\n      swap1\n      return\n        /* \"contracts/ces/test2.sol\":1003:1373  function distributeTokens(address[] memory recipients, uint256[] memory amounts) external onlyOwner {... */\n    tag_8:\n      tag_41\n      0x04\n      dup1\n      calldatasize\n      sub\n      dup2\n      add\n      swap1\n      tag_42\n      swap2\n      swap1\n      tag_43\n      jump\t// in\n    tag_42:\n      tag_44\n      jump\t// in\n    tag_41:\n      stop\n        /* \"contracts/ces/test2.sol\":843:968  function balanceOf(address account) public view override returns (uint256) {... */\n    tag_9:\n      tag_45\n      0x04\n      dup1\n      calldatasize\n      sub\n      dup2\n      add\n      swap1\n      tag_46\n      swap2\n      swap1\n      tag_47\n      jump\t// in\n    tag_46:\n      tag_48\n      jump\t// in\n    tag_45:\n      mload(0x40)\n      tag_49\n      swap2\n      swap1\n      tag_31\n      jump\t// in\n    tag_49:\n      mload(0x40)\n      dup1\n      swap2\n      sub\n      swap1\n      return\n        /* \"@openzeppelin/contracts/access/Ownable.sol\":2293:2394  function renounceOwnership() public virtual onlyOwner {... */\n    tag_10:\n      tag_50\n      tag_51\n      jump\t// in\n    tag_50:\n      stop\n        /* \"@openzeppelin/contracts/access/Ownable.sol\":1638:1723  function owner() public view virtual returns (address) {... */\n    tag_11:\n      tag_52\n      tag_53\n      jump\t// in\n    tag_52:\n      mload(0x40)\n      tag_54\n      swap2\n      swap1\n      tag_55\n      jump\t// in\n    tag_54:\n      mload(0x40)\n      dup1\n      swap2\n      sub\n      swap1\n      return\n        /* \"@openzeppelin/contracts/token/ERC20/ERC20.sol\":1962:2055  function symbol() public view virtual returns (string memory) {... */\n    tag_12:\n      tag_56\n      tag_57\n      jump\t// in\n    tag_56:\n      mload(0x40)\n      tag_58\n      swap2\n      swap1\n      tag_21\n      jump\t// in\n    tag_58:\n      mload(0x40)\n      dup1\n      swap2\n      sub\n      swap1\n      return\n        /* \"@openzeppelin/contracts/token/ERC20/ERC20.sol\":3296:3474  function transfer(address to, uint256 value) public virtual returns (bool) {... */\n    tag_13:\n      tag_59\n      0x04\n      dup1\n      calldatasize\n      sub\n      dup2\n      add\n      swap1\n      tag_60\n      swap2\n      swap1\n      tag_24\n      jump\t// in\n    tag_60:\n      tag_61\n      jump\t// in\n    tag_59:\n      mload(0x40)\n      tag_62\n      swap2\n      swap1\n      tag_27\n      jump\t// in\n    tag_62:\n      mload(0x40)\n      dup1\n      swap2\n      sub\n      swap1\n      return\n        /* \"@openzeppelin/contracts/token/ERC20/ERC20.sol\":3532:3672  function allowance(address owner, address spender) public view virtual returns (uint256) {... */\n    tag_14:\n      tag_63\n      0x04\n      dup1\n      calldatasize\n      sub\n      dup2\n      add\n      swap1\n      tag_64\n      swap2\n      swap1\n      tag_65\n      jump\t// in\n    tag_64:\n      tag_66\n      jump\t// in\n    tag_63:\n      mload(0x40)\n      tag_67\n      swap2\n      swap1\n      tag_31\n      jump\t// in\n    tag_67:\n      mload(0x40)\n      dup1\n      swap2\n      sub\n      swap1\n      return\n        /* \"@openzeppelin/contracts/access/Ownable.sol\":2543:2758  function transferOwnership(address newOwner) public virtual onlyOwner {... */\n    tag_15:\n      tag_68\n      0x04\n      dup1\n      calldatasize\n      sub\n      dup2\n      add\n      swap1\n      tag_69\n      swap2\n      swap1\n      tag_47\n      jump\t// in\n    tag_69:\n      tag_70\n      jump\t// in\n    tag_68:\n      stop\n        /* \"@openzeppelin/contracts/token/ERC20/ERC20.sol\":1760:1849  function name() public view virtual returns (string memory) {... */\n    tag_19:\n        /* \"@openzeppelin/contracts/token/ERC20/ERC20.sol\":1805:1818  string memory */\n      0x60\n        /* \"@openzeppelin/contracts/token/ERC20/ERC20.sol\":1837:1842  _name */\n      0x03\n        /* \"@openzeppelin/contracts/token/ERC20/ERC20.sol\":1830:1842  return _name */\n      dup1\n      sload\n      tag_72\n      swap1\n      tag_73\n      jump\t// in\n    tag_72:\n      dup1\n      0x1f\n      add\n      0x20\n      dup1\n      swap2\n      div\n      mul\n      0x20\n      add\n      mload(0x40)\n      swap1\n      dup2\n      add\n      0x40\n      mstore\n      dup1\n      swap3\n      swap2\n      swap1\n      dup2\n      dup2\n      mstore\n      0x20\n      add\n      dup3\n      dup1\n      sload\n      tag_74\n      swap1\n      tag_73\n      jump\t// in\n    tag_74:\n      dup1\n      iszero\n      tag_75\n      jumpi\n      dup1\n      0x1f\n      lt\n      tag_76\n      jumpi\n      0x0100\n      dup1\n      dup4\n      sload\n      div\n      mul\n      dup4\n      mstore\n      swap2\n      0x20\n      add\n      swap2\n      jump(tag_75)\n    tag_76:\n      dup3\n      add\n      swap2\n      swap1\n      0x00\n      mstore\n      keccak256(0x00, 0x20)\n      swap1\n    tag_77:\n      dup2\n      sload\n      dup2\n      mstore\n      swap1\n      0x01\n      add\n      swap1\n      0x20\n      add\n      dup1\n      dup4\n      gt\n      tag_77\n      jumpi\n      dup3\n      swap1\n      sub\n      0x1f\n      and\n      dup3\n      add\n      swap2\n    tag_75:\n      pop\n      pop\n      pop\n      pop\n      pop\n      swap1\n      pop\n        /* \"@openzeppelin/contracts/token/ERC20/ERC20.sol\":1760:1849  function name() public view virtual returns (string memory) {... */\n      swap1\n      jump\t// out\n        /* \"@openzeppelin/contracts/token/ERC20/ERC20.sol\":3979:4165  function approve(address spender, uint256 value) public virtual returns (bool) {... */\n    tag_25:\n        /* \"@openzeppelin/contracts/token/ERC20/ERC20.sol\":4052:4056  bool */\n      0x00\n        /* \"@openzeppelin/contracts/token/ERC20/ERC20.sol\":4068:4081  address owner */\n      0x00\n        /* \"@openzeppelin/contracts/token/ERC20/ERC20.sol\":4084:4096  _msgSender() */\n      tag_79\n        /* \"@openzeppelin/contracts/token/ERC20/ERC20.sol\":4084:4094  _msgSender */\n      tag_80\n        /* \"@openzeppelin/contracts/token/ERC20/ERC20.sol\":4084:4096  _msgSender() */\n      jump\t// in\n    tag_79:\n        /* \"@openzeppelin/contracts/token/ERC20/ERC20.sol\":4068:4096  address owner = _msgSender() */\n      swap1\n      pop\n        /* \"@openzeppelin/contracts/token/ERC20/ERC20.sol\":4106:4137  _approve(owner, spender, value) */\n      tag_81\n        /* \"@openzeppelin/contracts/token/ERC20/ERC20.sol\":4115:4120  owner */\n      dup2\n        /* \"@openzeppelin/contracts/token/ERC20/ERC20.sol\":4122:4129  spender */\n      dup6\n        /* \"@openzeppelin/contracts/token/ERC20/ERC20.sol\":4131:4136  value */\n      dup6\n        /* \"@openzeppelin/contracts/token/ERC20/ERC20.sol\":4106:4114  _approve */\n      tag_82\n        /* \"@openzeppelin/contracts/token/ERC20/ERC20.sol\":4106:4137  _approve(owner, spender, value) */\n      jump\t// in\n    tag_81:\n        /* \"@openzeppelin/contracts/token/ERC20/ERC20.sol\":4154:4158  true */\n      0x01\n        /* \"@openzeppelin/contracts/token/ERC20/ERC20.sol\":4147:4158  return true */\n      swap2\n      pop\n      pop\n        /* \"@openzeppelin/contracts/token/ERC20/ERC20.sol\":3979:4165  function approve(address spender, uint256 value) public virtual returns (bool) {... */\n      swap3\n      swap2\n      pop\n      pop\n      jump\t// out\n        /* \"@openzeppelin/contracts/token/ERC20/ERC20.sol\":2830:2927  function totalSupply() public view virtual returns (uint256) {... */\n    tag_29:\n        /* \"@openzeppelin/contracts/token/ERC20/ERC20.sol\":2882:2889  uint256 */\n      0x00\n        /* \"@openzeppelin/contracts/token/ERC20/ERC20.sol\":2908:2920  _totalSupply */\n      sload(0x02)\n        /* \"@openzeppelin/contracts/token/ERC20/ERC20.sol\":2901:2920  return _totalSupply */\n      swap1\n      pop\n        /* \"@openzeppelin/contracts/token/ERC20/ERC20.sol\":2830:2927  function totalSupply() public view virtual returns (uint256) {... */\n      swap1\n      jump\t// out\n        /* \"@openzeppelin/contracts/token/ERC20/ERC20.sol\":4757:5001  function transferFrom(address from, address to, uint256 value) public virtual returns (bool) {... */\n    tag_35:\n        /* \"@openzeppelin/contracts/token/ERC20/ERC20.sol\":4844:4848  bool */\n      0x00\n        /* \"@openzeppelin/contracts/token/ERC20/ERC20.sol\":4860:4875  address spender */\n      0x00\n        /* \"@openzeppelin/contracts/token/ERC20/ERC20.sol\":4878:4890  _msgSender() */\n      tag_85\n        /* \"@openzeppelin/contracts/token/ERC20/ERC20.sol\":4878:4888  _msgSender */\n      tag_80\n        /* \"@openzeppelin/contracts/token/ERC20/ERC20.sol\":4878:4890  _msgSender() */\n      jump\t// in\n    tag_85:\n        /* \"@openzeppelin/contracts/token/ERC20/ERC20.sol\":4860:4890  address spender = _msgSender() */\n      swap1\n      pop\n        /* \"@openzeppelin/contracts/token/ERC20/ERC20.sol\":4900:4937  _spendAllowance(from, spender, value) */\n      tag_86\n        /* \"@openzeppelin/contracts/token/ERC20/ERC20.sol\":4916:4920  from */\n      dup6\n        /* \"@openzeppelin/contracts/token/ERC20/ERC20.sol\":4922:4929  spender */\n      dup3\n        /* \"@openzeppelin/contracts/token/ERC20/ERC20.sol\":4931:4936  value */\n      dup6\n        /* \"@openzeppelin/contracts/token/ERC20/ERC20.sol\":4900:4915  _spendAllowance */\n      tag_87\n        /* \"@openzeppelin/contracts/token/ERC20/ERC20.sol\":4900:4937  _spendAllowance(from, spender, value) */\n      jump\t// in\n    tag_86:\n        /* \"@openzeppelin/contracts/token/ERC20/ERC20.sol\":4947:4973  _transfer(from, to, value) */\n      tag_88\n        /* \"@openzeppelin/contracts/token/ERC20/ERC20.sol\":4957:4961  from */\n      dup6\n        /* \"@openzeppelin/contracts/token/ERC20/ERC20.sol\":4963:4965  to */\n      dup6\n        /* \"@openzeppelin/contracts/token/ERC20/ERC20.sol\":4967:4972  value */\n      dup6\n        /* \"@openzeppelin/contracts/token/ERC20/ERC20.sol\":4947:4956  _transfer */\n      tag_89\n        /* \"@openzeppelin/contracts/token/ERC20/ERC20.sol\":4947:4973  _transfer(from, to, value) */\n      jump\t// in\n    tag_88:\n        /* \"@openzeppelin/contracts/token/ERC20/ERC20.sol\":4990:4994  true */\n      0x01\n        /* \"@openzeppelin/contracts/token/ERC20/ERC20.sol\":4983:4994  return true */\n      swap2\n      pop\n      pop\n        /* \"@openzeppelin/contracts/token/ERC20/ERC20.sol\":4757:5001  function transferFrom(address from, address to, uint256 value) public virtual returns (bool) {... */\n      swap4\n      swap3\n      pop\n      pop\n      pop\n      jump\t// out\n        /* \"@openzeppelin/contracts/token/ERC20/ERC20.sol\":2688:2770  function decimals() public view virtual returns (uint8) {... */\n    tag_38:\n        /* \"@openzeppelin/contracts/token/ERC20/ERC20.sol\":2737:2742  uint8 */\n      0x00\n        /* \"@openzeppelin/contracts/token/ERC20/ERC20.sol\":2761:2763  18 */\n      0x12\n        /* \"@openzeppelin/contracts/token/ERC20/ERC20.sol\":2754:2763  return 18 */\n      swap1\n      pop\n        /* \"@openzeppelin/contracts/token/ERC20/ERC20.sol\":2688:2770  function decimals() public view virtual returns (uint8) {... */\n      swap1\n      jump\t// out\n        /* \"contracts/ces/test2.sol\":1003:1373  function distributeTokens(address[] memory recipients, uint256[] memory amounts) external onlyOwner {... */\n    tag_44:\n        /* \"@openzeppelin/contracts/access/Ownable.sol\":1531:1544  _checkOwner() */\n      tag_92\n        /* \"@openzeppelin/contracts/access/Ownable.sol\":1531:1542  _checkOwner */\n      tag_93\n        /* \"@openzeppelin/contracts/access/Ownable.sol\":1531:1544  _checkOwner() */\n      jump\t// in\n    tag_92:\n        /* \"contracts/ces/test2.sol\":1143:1150  amounts */\n      dup1\n        /* \"contracts/ces/test2.sol\":1143:1157  amounts.length */\n      mload\n        /* \"contracts/ces/test2.sol\":1122:1132  recipients */\n      dup3\n        /* \"contracts/ces/test2.sol\":1122:1139  recipients.length */\n      mload\n        /* \"contracts/ces/test2.sol\":1122:1157  recipients.length == amounts.length */\n      eq\n        /* \"contracts/ces/test2.sol\":1114:1200  require(recipients.length == amounts.length, \"Recipients and amounts length mismatch\") */\n      tag_95\n      jumpi\n      mload(0x40)\n      0x08c379a000000000000000000000000000000000000000000000000000000000\n      dup2\n      mstore\n      0x04\n      add\n      tag_96\n      swap1\n      tag_97\n      jump\t// in\n    tag_96:\n      mload(0x40)\n      dup1\n      swap2\n      sub\n      swap1\n      revert\n    tag_95:\n        /* \"contracts/ces/test2.sol\":1226:1235  uint256 i */\n      0x00\n        /* \"contracts/ces/test2.sol\":1238:1239  0 */\n      0x00\n        /* \"contracts/ces/test2.sol\":1226:1239  uint256 i = 0 */\n      swap1\n      pop\n        /* \"contracts/ces/test2.sol\":1221:1366  for (uint256 i = 0; i < recipients.length; i++) {... */\n    tag_98:\n        /* \"contracts/ces/test2.sol\":1245:1255  recipients */\n      dup3\n        /* \"contracts/ces/test2.sol\":1245:1262  recipients.length */\n      mload\n        /* \"contracts/ces/test2.sol\":1241:1242  i */\n      dup2\n        /* \"contracts/ces/test2.sol\":1241:1262  i < recipients.length */\n      lt\n        /* \"contracts/ces/test2.sol\":1221:1366  for (uint256 i = 0; i < recipients.length; i++) {... */\n      iszero\n      tag_99\n      jumpi\n        /* \"contracts/ces/test2.sol\":1284:1354  _transfer(address(this), recipients[i], amounts[i] * 10 ** decimals()) */\n      tag_101\n        /* \"contracts/ces/test2.sol\":1302:1306  this */\n      address\n        /* \"contracts/ces/test2.sol\":1309:1319  recipients */\n      dup5\n        /* \"contracts/ces/test2.sol\":1320:1321  i */\n      dup4\n        /* \"contracts/ces/test2.sol\":1309:1322  recipients[i] */\n      dup2\n      mload\n      dup2\n      lt\n      tag_102\n      jumpi\n      tag_103\n      tag_104\n      jump\t// in\n    tag_103:\n    tag_102:\n      0x20\n      mul\n      0x20\n      add\n      add\n      mload\n        /* \"contracts/ces/test2.sol\":1343:1353  decimals() */\n      tag_105\n        /* \"contracts/ces/test2.sol\":1343:1351  decimals */\n      tag_38\n        /* \"contracts/ces/test2.sol\":1343:1353  decimals() */\n      jump\t// in\n    tag_105:\n        /* \"contracts/ces/test2.sol\":1337:1339  10 */\n      0x0a\n        /* \"contracts/ces/test2.sol\":1337:1353  10 ** decimals() */\n      tag_106\n      swap2\n      swap1\n      tag_107\n      jump\t// in\n    tag_106:\n        /* \"contracts/ces/test2.sol\":1324:1331  amounts */\n      dup6\n        /* \"contracts/ces/test2.sol\":1332:1333  i */\n      dup6\n        /* \"contracts/ces/test2.sol\":1324:1334  amounts[i] */\n      dup2\n      mload\n      dup2\n      lt\n      tag_108\n      jumpi\n      tag_109\n      tag_104\n      jump\t// in\n    tag_109:\n    tag_108:\n      0x20\n      mul\n      0x20\n      add\n      add\n      mload\n        /* \"contracts/ces/test2.sol\":1324:1353  amounts[i] * 10 ** decimals() */\n      tag_110\n      swap2\n      swap1\n      tag_111\n      jump\t// in\n    tag_110:\n        /* \"contracts/ces/test2.sol\":1284:1293  _transfer */\n      tag_89\n        /* \"contracts/ces/test2.sol\":1284:1354  _transfer(address(this), recipients[i], amounts[i] * 10 ** decimals()) */\n      jump\t// in\n    tag_101:\n        /* \"contracts/ces/test2.sol\":1264:1267  i++ */\n      dup1\n      dup1\n      0x01\n      add\n      swap2\n      pop\n      pop\n        /* \"contracts/ces/test2.sol\":1221:1366  for (uint256 i = 0; i < recipients.length; i++) {... */\n      jump(tag_98)\n    tag_99:\n      pop\n        /* \"contracts/ces/test2.sol\":1003:1373  function distributeTokens(address[] memory recipients, uint256[] memory amounts) external onlyOwner {... */\n      pop\n      pop\n      jump\t// out\n        /* \"contracts/ces/test2.sol\":843:968  function balanceOf(address account) public view override returns (uint256) {... */\n    tag_48:\n        /* \"contracts/ces/test2.sol\":909:916  uint256 */\n      0x00\n        /* \"contracts/ces/test2.sol\":936:960  super.balanceOf(account) */\n      tag_113\n        /* \"contracts/ces/test2.sol\":952:959  account */\n      dup3\n        /* \"contracts/ces/test2.sol\":936:951  super.balanceOf */\n      tag_114\n        /* \"contracts/ces/test2.sol\":936:960  super.balanceOf(account) */\n      jump\t// in\n    tag_113:\n        /* \"contracts/ces/test2.sol\":929:960  return super.balanceOf(account) */\n      swap1\n      pop\n        /* \"contracts/ces/test2.sol\":843:968  function balanceOf(address account) public view override returns (uint256) {... */\n      swap2\n      swap1\n      pop\n      jump\t// out\n        /* \"@openzeppelin/contracts/access/Ownable.sol\":2293:2394  function renounceOwnership() public virtual onlyOwner {... */\n    tag_51:\n        /* \"@openzeppelin/contracts/access/Ownable.sol\":1531:1544  _checkOwner() */\n      tag_116\n        /* \"@openzeppelin/contracts/access/Ownable.sol\":1531:1542  _checkOwner */\n      tag_93\n        /* \"@openzeppelin/contracts/access/Ownable.sol\":1531:1544  _checkOwner() */\n      jump\t// in\n    tag_116:\n        /* \"@openzeppelin/contracts/access/Ownable.sol\":2357:2387  _transferOwnership(address(0)) */\n      tag_118\n        /* \"@openzeppelin/contracts/access/Ownable.sol\":2384:2385  0 */\n      0x00\n        /* \"@openzeppelin/contracts/access/Ownable.sol\":2357:2375  _transferOwnership */\n      tag_119\n        /* \"@openzeppelin/contracts/access/Ownable.sol\":2357:2387  _transferOwnership(address(0)) */\n      jump\t// in\n    tag_118:\n        /* \"@openzeppelin/contracts/access/Ownable.sol\":2293:2394  function renounceOwnership() public virtual onlyOwner {... */\n      jump\t// out\n        /* \"@openzeppelin/contracts/access/Ownable.sol\":1638:1723  function owner() public view virtual returns (address) {... */\n    tag_53:\n        /* \"@openzeppelin/contracts/access/Ownable.sol\":1684:1691  address */\n      0x00\n        /* \"@openzeppelin/contracts/access/Ownable.sol\":1710:1716  _owner */\n      0x05\n      0x00\n      swap1\n      sload\n      swap1\n      0x0100\n      exp\n      swap1\n      div\n      0xffffffffffffffffffffffffffffffffffffffff\n      and\n        /* \"@openzeppelin/contracts/access/Ownable.sol\":1703:1716  return _owner */\n      swap1\n      pop\n        /* \"@openzeppelin/contracts/access/Ownable.sol\":1638:1723  function owner() public view virtual returns (address) {... */\n      swap1\n      jump\t// out\n        /* \"@openzeppelin/contracts/token/ERC20/ERC20.sol\":1962:2055  function symbol() public view virtual returns (string memory) {... */\n    tag_57:\n        /* \"@openzeppelin/contracts/token/ERC20/ERC20.sol\":2009:2022  string memory */\n      0x60\n        /* \"@openzeppelin/contracts/token/ERC20/ERC20.sol\":2041:2048  _symbol */\n      0x04\n        /* \"@openzeppelin/contracts/token/ERC20/ERC20.sol\":2034:2048  return _symbol */\n      dup1\n      sload\n      tag_122\n      swap1\n      tag_73\n      jump\t// in\n    tag_122:\n      dup1\n      0x1f\n      add\n      0x20\n      dup1\n      swap2\n      div\n      mul\n      0x20\n      add\n      mload(0x40)\n      swap1\n      dup2\n      add\n      0x40\n      mstore\n      dup1\n      swap3\n      swap2\n      swap1\n      dup2\n      dup2\n      mstore\n      0x20\n      add\n      dup3\n      dup1\n      sload\n      tag_123\n      swap1\n      tag_73\n      jump\t// in\n    tag_123:\n      dup1\n      iszero\n      tag_124\n      jumpi\n      dup1\n      0x1f\n      lt\n      tag_125\n      jumpi\n      0x0100\n      dup1\n      dup4\n      sload\n      div\n      mul\n      dup4\n      mstore\n      swap2\n      0x20\n      add\n      swap2\n      jump(tag_124)\n    tag_125:\n      dup3\n      add\n      swap2\n      swap1\n      0x00\n      mstore\n      keccak256(0x00, 0x20)\n      swap1\n    tag_126:\n      dup2\n      sload\n      dup2\n      mstore\n      swap1\n      0x01\n      add\n      swap1\n      0x20\n      add\n      dup1\n      dup4\n      gt\n      tag_126\n      jumpi\n      dup3\n      swap1\n      sub\n      0x1f\n      and\n      dup3\n      add\n      swap2\n    tag_124:\n      pop\n      pop\n      pop\n      pop\n      pop\n      swap1\n      pop\n        /* \"@openzeppelin/contracts/token/ERC20/ERC20.sol\":1962:2055  function symbol() public view virtual returns (string memory) {... */\n      swap1\n      jump\t// out\n        /* \"@openzeppelin/contracts/token/ERC20/ERC20.sol\":3296:3474  function transfer(address to, uint256 value) public virtual returns (bool) {... */\n    tag_61:\n        /* \"@openzeppelin/contracts/token/ERC20/ERC20.sol\":3365:3369  bool */\n      0x00\n        /* \"@openzeppelin/contracts/token/ERC20/ERC20.sol\":3381:3394  address owner */\n      0x00\n        /* \"@openzeppelin/contracts/token/ERC20/ERC20.sol\":3397:3409  _msgSender() */\n      tag_128\n        /* \"@openzeppelin/contracts/token/ERC20/ERC20.sol\":3397:3407  _msgSender */\n      tag_80\n        /* \"@openzeppelin/contracts/token/ERC20/ERC20.sol\":3397:3409  _msgSender() */\n      jump\t// in\n    tag_128:\n        /* \"@openzeppelin/contracts/token/ERC20/ERC20.sol\":3381:3409  address owner = _msgSender() */\n      swap1\n      pop\n        /* \"@openzeppelin/contracts/token/ERC20/ERC20.sol\":3419:3446  _transfer(owner, to, value) */\n      tag_129\n        /* \"@openzeppelin/contracts/token/ERC20/ERC20.sol\":3429:3434  owner */\n      dup2\n        /* \"@openzeppelin/contracts/token/ERC20/ERC20.sol\":3436:3438  to */\n      dup6\n        /* \"@openzeppelin/contracts/token/ERC20/ERC20.sol\":3440:3445  value */\n      dup6\n        /* \"@openzeppelin/contracts/token/ERC20/ERC20.sol\":3419:3428  _transfer */\n      tag_89\n        /* \"@openzeppelin/contracts/token/ERC20/ERC20.sol\":3419:3446  _transfer(owner, to, value) */\n      jump\t// in\n    tag_129:\n        /* \"@openzeppelin/contracts/token/ERC20/ERC20.sol\":3463:3467  true */\n      0x01\n        /* \"@openzeppelin/contracts/token/ERC20/ERC20.sol\":3456:3467  return true */\n      swap2\n      pop\n      pop\n        /* \"@openzeppelin/contracts/token/ERC20/ERC20.sol\":3296:3474  function transfer(address to, uint256 value) public virtual returns (bool) {... */\n      swap3\n      swap2\n      pop\n      pop\n      jump\t// out\n        /* \"@openzeppelin/contracts/token/ERC20/ERC20.sol\":3532:3672  function allowance(address owner, address spender) public view virtual returns (uint256) {... */\n    tag_66:\n        /* \"@openzeppelin/contracts/token/ERC20/ERC20.sol\":3612:3619  uint256 */\n      0x00\n        /* \"@openzeppelin/contracts/token/ERC20/ERC20.sol\":3638:3649  _allowances */\n      0x01\n        /* \"@openzeppelin/contracts/token/ERC20/ERC20.sol\":3638:3656  _allowances[owner] */\n      0x00\n        /* \"@openzeppelin/contracts/token/ERC20/ERC20.sol\":3650:3655  owner */\n      dup5\n        /* \"@openzeppelin/contracts/token/ERC20/ERC20.sol\":3638:3656  _allowances[owner] */\n      0xffffffffffffffffffffffffffffffffffffffff\n      and\n      0xffffffffffffffffffffffffffffffffffffffff\n      and\n      dup2\n      mstore\n      0x20\n      add\n      swap1\n      dup2\n      mstore\n      0x20\n      add\n      0x00\n      keccak256\n        /* \"@openzeppelin/contracts/token/ERC20/ERC20.sol\":3638:3665  _allowances[owner][spender] */\n      0x00\n        /* \"@openzeppelin/contracts/token/ERC20/ERC20.sol\":3657:3664  spender */\n      dup4\n        /* \"@openzeppelin/contracts/token/ERC20/ERC20.sol\":3638:3665  _allowances[owner][spender] */\n      0xffffffffffffffffffffffffffffffffffffffff\n      and\n      0xffffffffffffffffffffffffffffffffffffffff\n      and\n      dup2\n      mstore\n      0x20\n      add\n      swap1\n      dup2\n      mstore\n      0x20\n      add\n      0x00\n      keccak256\n      sload\n        /* \"@openzeppelin/contracts/token/ERC20/ERC20.sol\":3631:3665  return _allowances[owner][spender] */\n      swap1\n      pop\n        /* \"@openzeppelin/contracts/token/ERC20/ERC20.sol\":3532:3672  function allowance(address owner, address spender) public view virtual returns (uint256) {... */\n      swap3\n      swap2\n      pop\n      pop\n      jump\t// out\n        /* \"@openzeppelin/contracts/access/Ownable.sol\":2543:2758  function transferOwnership(address newOwner) public virtual onlyOwner {... */\n    tag_70:\n        /* \"@openzeppelin/contracts/access/Ownable.sol\":1531:1544  _checkOwner() */\n      tag_132\n        /* \"@openzeppelin/contracts/access/Ownable.sol\":1531:1542  _checkOwner */\n      tag_93\n        /* \"@openzeppelin/contracts/access/Ownable.sol\":1531:1544  _checkOwner() */\n      jump\t// in\n    tag_132:\n        /* \"@openzeppelin/contracts/access/Ownable.sol\":2647:2648  0 */\n      0x00\n        /* \"@openzeppelin/contracts/access/Ownable.sol\":2627:2649  newOwner == address(0) */\n      0xffffffffffffffffffffffffffffffffffffffff\n      and\n        /* \"@openzeppelin/contracts/access/Ownable.sol\":2627:2635  newOwner */\n      dup2\n        /* \"@openzeppelin/contracts/access/Ownable.sol\":2627:2649  newOwner == address(0) */\n      0xffffffffffffffffffffffffffffffffffffffff\n      and\n      sub\n        /* \"@openzeppelin/contracts/access/Ownable.sol\":2623:2714  if (newOwner == address(0)) {... */\n      tag_134\n      jumpi\n        /* \"@openzeppelin/contracts/access/Ownable.sol\":2700:2701  0 */\n      0x00\n        /* \"@openzeppelin/contracts/access/Ownable.sol\":2672:2703  OwnableInvalidOwner(address(0)) */\n      mload(0x40)\n      0x1e4fbdf700000000000000000000000000000000000000000000000000000000\n      dup2\n      mstore\n      0x04\n      add\n      tag_135\n      swap2\n      swap1\n      tag_55\n      jump\t// in\n    tag_135:\n      mload(0x40)\n      dup1\n      swap2\n      sub\n      swap1\n      revert\n        /* \"@openzeppelin/contracts/access/Ownable.sol\":2623:2714  if (newOwner == address(0)) {... */\n    tag_134:\n        /* \"@openzeppelin/contracts/access/Ownable.sol\":2723:2751  _transferOwnership(newOwner) */\n      tag_136\n        /* \"@openzeppelin/contracts/access/Ownable.sol\":2742:2750  newOwner */\n      dup2\n        /* \"@openzeppelin/contracts/access/Ownable.sol\":2723:2741  _transferOwnership */\n      tag_119\n        /* \"@openzeppelin/contracts/access/Ownable.sol\":2723:2751  _transferOwnership(newOwner) */\n      jump\t// in\n    tag_136:\n        /* \"@openzeppelin/contracts/access/Ownable.sol\":2543:2758  function transferOwnership(address newOwner) public virtual onlyOwner {... */\n      pop\n      jump\t// out\n        /* \"@openzeppelin/contracts/utils/Context.sol\":656:752  function _msgSender() internal view virtual returns (address) {... */\n    tag_80:\n        /* \"@openzeppelin/contracts/utils/Context.sol\":709:716  address */\n      0x00\n        /* \"@openzeppelin/contracts/utils/Context.sol\":735:745  msg.sender */\n      caller\n        /* \"@openzeppelin/contracts/utils/Context.sol\":728:745  return msg.sender */\n      swap1\n      pop\n        /* \"@openzeppelin/contracts/utils/Context.sol\":656:752  function _msgSender() internal view virtual returns (address) {... */\n      swap1\n      jump\t// out\n        /* \"@openzeppelin/contracts/token/ERC20/ERC20.sol\":8707:8835  function _approve(address owner, address spender, uint256 value) internal {... */\n    tag_82:\n        /* \"@openzeppelin/contracts/token/ERC20/ERC20.sol\":8791:8828  _approve(owner, spender, value, true) */\n      tag_139\n        /* \"@openzeppelin/contracts/token/ERC20/ERC20.sol\":8800:8805  owner */\n      dup4\n        /* \"@openzeppelin/contracts/token/ERC20/ERC20.sol\":8807:8814  spender */\n      dup4\n        /* \"@openzeppelin/contracts/token/ERC20/ERC20.sol\":8816:8821  value */\n      dup4\n        /* \"@openzeppelin/contracts/token/ERC20/ERC20.sol\":8823:8827  true */\n      0x01\n        /* \"@openzeppelin/contracts/token/ERC20/ERC20.sol\":8791:8799  _approve */\n      tag_140\n        /* \"@openzeppelin/contracts/token/ERC20/ERC20.sol\":8791:8828  _approve(owner, spender, value, true) */\n      jump\t// in\n    tag_139:\n        /* \"@openzeppelin/contracts/token/ERC20/ERC20.sol\":8707:8835  function _approve(address owner, address spender, uint256 value) internal {... */\n      pop\n      pop\n      pop\n      jump\t// out\n        /* \"@openzeppelin/contracts/token/ERC20/ERC20.sol\":10396:10872  function _spendAllowance(address owner, address spender, uint256 value) internal virtual {... */\n    tag_87:\n        /* \"@openzeppelin/contracts/token/ERC20/ERC20.sol\":10495:10519  uint256 currentAllowance */\n      0x00\n        /* \"@openzeppelin/contracts/token/ERC20/ERC20.sol\":10522:10547  allowance(owner, spender) */\n      tag_142\n        /* \"@openzeppelin/contracts/token/ERC20/ERC20.sol\":10532:10537  owner */\n      dup5\n        /* \"@openzeppelin/contracts/token/ERC20/ERC20.sol\":10539:10546  spender */\n      dup5\n        /* \"@openzeppelin/contracts/token/ERC20/ERC20.sol\":10522:10531  allowance */\n      tag_66\n        /* \"@openzeppelin/contracts/token/ERC20/ERC20.sol\":10522:10547  allowance(owner, spender) */\n      jump\t// in\n    tag_142:\n        /* \"@openzeppelin/contracts/token/ERC20/ERC20.sol\":10495:10547  uint256 currentAllowance = allowance(owner, spender) */\n      swap1\n      pop\n        /* \"@openzeppelin/contracts/token/ERC20/ERC20.sol\":10580:10597  type(uint256).max */\n      0xffffffffffffffffffffffffffffffffffffffffffffffffffffffffffffffff\n        /* \"@openzeppelin/contracts/token/ERC20/ERC20.sol\":10561:10577  currentAllowance */\n      dup2\n        /* \"@openzeppelin/contracts/token/ERC20/ERC20.sol\":10561:10597  currentAllowance < type(uint256).max */\n      lt\n        /* \"@openzeppelin/contracts/token/ERC20/ERC20.sol\":10557:10866  if (currentAllowance < type(uint256).max) {... */\n      iszero\n      tag_143\n      jumpi\n        /* \"@openzeppelin/contracts/token/ERC20/ERC20.sol\":10636:10641  value */\n      dup2\n        /* \"@openzeppelin/contracts/token/ERC20/ERC20.sol\":10617:10633  currentAllowance */\n      dup2\n        /* \"@openzeppelin/contracts/token/ERC20/ERC20.sol\":10617:10641  currentAllowance < value */\n      lt\n        /* \"@openzeppelin/contracts/token/ERC20/ERC20.sol\":10613:10743  if (currentAllowance < value) {... */\n      iszero\n      tag_144\n      jumpi\n        /* \"@openzeppelin/contracts/token/ERC20/ERC20.sol\":10695:10702  spender */\n      dup3\n        /* \"@openzeppelin/contracts/token/ERC20/ERC20.sol\":10704:10720  currentAllowance */\n      dup2\n        /* \"@openzeppelin/contracts/token/ERC20/ERC20.sol\":10722:10727  value */\n      dup4\n        /* \"@openzeppelin/contracts/token/ERC20/ERC20.sol\":10668:10728  ERC20InsufficientAllowance(spender, currentAllowance, value) */\n      mload(0x40)\n      0xfb8f41b200000000000000000000000000000000000000000000000000000000\n      dup2\n      mstore\n      0x04\n      add\n      tag_145\n      swap4\n      swap3\n      swap2\n      swap1\n      tag_146\n      jump\t// in\n    tag_145:\n      mload(0x40)\n      dup1\n      swap2\n      sub\n      swap1\n      revert\n        /* \"@openzeppelin/contracts/token/ERC20/ERC20.sol\":10613:10743  if (currentAllowance < value) {... */\n    tag_144:\n        /* \"@openzeppelin/contracts/token/ERC20/ERC20.sol\":10784:10841  _approve(owner, spender, currentAllowance - value, false) */\n      tag_147\n        /* \"@openzeppelin/contracts/token/ERC20/ERC20.sol\":10793:10798  owner */\n      dup5\n        /* \"@openzeppelin/contracts/token/ERC20/ERC20.sol\":10800:10807  spender */\n      dup5\n        /* \"@openzeppelin/contracts/token/ERC20/ERC20.sol\":10828:10833  value */\n      dup5\n        /* \"@openzeppelin/contracts/token/ERC20/ERC20.sol\":10809:10825  currentAllowance */\n      dup5\n        /* \"@openzeppelin/contracts/token/ERC20/ERC20.sol\":10809:10833  currentAllowance - value */\n      sub\n        /* \"@openzeppelin/contracts/token/ERC20/ERC20.sol\":10835:10840  false */\n      0x00\n        /* \"@openzeppelin/contracts/token/ERC20/ERC20.sol\":10784:10792  _approve */\n      tag_140\n        /* \"@openzeppelin/contracts/token/ERC20/ERC20.sol\":10784:10841  _approve(owner, spender, currentAllowance - value, false) */\n      jump\t// in\n    tag_147:\n        /* \"@openzeppelin/contracts/token/ERC20/ERC20.sol\":10557:10866  if (currentAllowance < type(uint256).max) {... */\n    tag_143:\n        /* \"@openzeppelin/contracts/token/ERC20/ERC20.sol\":10485:10872  {... */\n      pop\n        /* \"@openzeppelin/contracts/token/ERC20/ERC20.sol\":10396:10872  function _spendAllowance(address owner, address spender, uint256 value) internal virtual {... */\n      pop\n      pop\n      pop\n      jump\t// out\n        /* \"@openzeppelin/contracts/token/ERC20/ERC20.sol\":5374:5674  function _transfer(address from, address to, uint256 value) internal {... */\n    tag_89:\n        /* \"@openzeppelin/contracts/token/ERC20/ERC20.sol\":5473:5474  0 */\n      0x00\n        /* \"@openzeppelin/contracts/token/ERC20/ERC20.sol\":5457:5475  from == address(0) */\n      0xffffffffffffffffffffffffffffffffffffffff\n      and\n        /* \"@openzeppelin/contracts/token/ERC20/ERC20.sol\":5457:5461  from */\n      dup4\n        /* \"@openzeppelin/contracts/token/ERC20/ERC20.sol\":5457:5475  from == address(0) */\n      0xffffffffffffffffffffffffffffffffffffffff\n      and\n      sub\n        /* \"@openzeppelin/contracts/token/ERC20/ERC20.sol\":5453:5539  if (from == address(0)) {... */\n      tag_149\n      jumpi\n        /* \"@openzeppelin/contracts/token/ERC20/ERC20.sol\":5525:5526  0 */\n      0x00\n        /* \"@openzeppelin/contracts/token/ERC20/ERC20.sol\":5498:5528  ERC20InvalidSender(address(0)) */\n      mload(0x40)\n      0x96c6fd1e00000000000000000000000000000000000000000000000000000000\n      dup2\n      mstore\n      0x04\n      add\n      tag_150\n      swap2\n      swap1\n      tag_55\n      jump\t// in\n    tag_150:\n      mload(0x40)\n      dup1\n      swap2\n      sub\n      swap1\n      revert\n        /* \"@openzeppelin/contracts/token/ERC20/ERC20.sol\":5453:5539  if (from == address(0)) {... */\n    tag_149:\n        /* \"@openzeppelin/contracts/token/ERC20/ERC20.sol\":5566:5567  0 */\n      0x00\n        /* \"@openzeppelin/contracts/token/ERC20/ERC20.sol\":5552:5568  to == address(0) */\n      0xffffffffffffffffffffffffffffffffffffffff\n      and\n        /* \"@openzeppelin/contracts/token/ERC20/ERC20.sol\":5552:5554  to */\n      dup3\n        /* \"@openzeppelin/contracts/token/ERC20/ERC20.sol\":5552:5568  to == address(0) */\n      0xffffffffffffffffffffffffffffffffffffffff\n      and\n      sub\n        /* \"@openzeppelin/contracts/token/ERC20/ERC20.sol\":5548:5634  if (to == address(0)) {... */\n      tag_151\n      jumpi\n        /* \"@openzeppelin/contracts/token/ERC20/ERC20.sol\":5620:5621  0 */\n      0x00\n        /* \"@openzeppelin/contracts/token/ERC20/ERC20.sol\":5591:5623  ERC20InvalidReceiver(address(0)) */\n      mload(0x40)\n      0xec442f0500000000000000000000000000000000000000000000000000000000\n      dup2\n      mstore\n      0x04\n      add\n      tag_152\n      swap2\n      swap1\n      tag_55\n      jump\t// in\n    tag_152:\n      mload(0x40)\n      dup1\n      swap2\n      sub\n      swap1\n      revert\n        /* \"@openzeppelin/contracts/token/ERC20/ERC20.sol\":5548:5634  if (to == address(0)) {... */\n    tag_151:\n        /* \"@openzeppelin/contracts/token/ERC20/ERC20.sol\":5643:5667  _update(from, to, value) */\n      tag_153\n        /* \"@openzeppelin/contracts/token/ERC20/ERC20.sol\":5651:5655  from */\n      dup4\n        /* \"@openzeppelin/contracts/token/ERC20/ERC20.sol\":5657:5659  to */\n      dup4\n        /* \"@openzeppelin/contracts/token/ERC20/ERC20.sol\":5661:5666  value */\n      dup4\n        /* \"@openzeppelin/contracts/token/ERC20/ERC20.sol\":5643:5650  _update */\n      tag_154\n        /* \"@openzeppelin/contracts/token/ERC20/ERC20.sol\":5643:5667  _update(from, to, value) */\n      jump\t// in\n    tag_153:\n        /* \"@openzeppelin/contracts/token/ERC20/ERC20.sol\":5374:5674  function _transfer(address from, address to, uint256 value) internal {... */\n      pop\n      pop\n      pop\n      jump\t// out\n        /* \"@openzeppelin/contracts/access/Ownable.sol\":1796:1958  function _checkOwner() internal view virtual {... */\n    tag_93:\n        /* \"@openzeppelin/contracts/access/Ownable.sol\":1866:1878  _msgSender() */\n      tag_156\n        /* \"@openzeppelin/contracts/access/Ownable.sol\":1866:1876  _msgSender */\n      tag_80\n        /* \"@openzeppelin/contracts/access/Ownable.sol\":1866:1878  _msgSender() */\n      jump\t// in\n    tag_156:\n        /* \"@openzeppelin/contracts/access/Ownable.sol\":1855:1878  owner() != _msgSender() */\n      0xffffffffffffffffffffffffffffffffffffffff\n      and\n        /* \"@openzeppelin/contracts/access/Ownable.sol\":1855:1862  owner() */\n      tag_157\n        /* \"@openzeppelin/contracts/access/Ownable.sol\":1855:1860  owner */\n      tag_53\n        /* \"@openzeppelin/contracts/access/Ownable.sol\":1855:1862  owner() */\n      jump\t// in\n    tag_157:\n        /* \"@openzeppelin/contracts/access/Ownable.sol\":1855:1878  owner() != _msgSender() */\n      0xffffffffffffffffffffffffffffffffffffffff\n      and\n      eq\n        /* \"@openzeppelin/contracts/access/Ownable.sol\":1851:1952  if (owner() != _msgSender()) {... */\n      tag_158\n      jumpi\n        /* \"@openzeppelin/contracts/access/Ownable.sol\":1928:1940  _msgSender() */\n      tag_159\n        /* \"@openzeppelin/contracts/access/Ownable.sol\":1928:1938  _msgSender */\n      tag_80\n        /* \"@openzeppelin/contracts/access/Ownable.sol\":1928:1940  _msgSender() */\n      jump\t// in\n    tag_159:\n        /* \"@openzeppelin/contracts/access/Ownable.sol\":1901:1941  OwnableUnauthorizedAccount(_msgSender()) */\n      mload(0x40)\n      0x118cdaa700000000000000000000000000000000000000000000000000000000\n      dup2\n      mstore\n      0x04\n      add\n      tag_160\n      swap2\n      swap1\n      tag_55\n      jump\t// in\n    tag_160:\n      mload(0x40)\n      dup1\n      swap2\n      sub\n      swap1\n      revert\n        /* \"@openzeppelin/contracts/access/Ownable.sol\":1851:1952  if (owner() != _msgSender()) {... */\n    tag_158:\n        /* \"@openzeppelin/contracts/access/Ownable.sol\":1796:1958  function _checkOwner() internal view virtual {... */\n      jump\t// out\n        /* \"@openzeppelin/contracts/token/ERC20/ERC20.sol\":2985:3101  function balanceOf(address account) public view virtual returns (uint256) {... */\n    tag_114:\n        /* \"@openzeppelin/contracts/token/ERC20/ERC20.sol\":3050:3057  uint256 */\n      0x00\n        /* \"@openzeppelin/contracts/token/ERC20/ERC20.sol\":3076:3085  _balances */\n      0x00\n        /* \"@openzeppelin/contracts/token/ERC20/ERC20.sol\":3076:3094  _balances[account] */\n      0x00\n        /* \"@openzeppelin/contracts/token/ERC20/ERC20.sol\":3086:3093  account */\n      dup4\n        /* \"@openzeppelin/contracts/token/ERC20/ERC20.sol\":3076:3094  _balances[account] */\n      0xffffffffffffffffffffffffffffffffffffffff\n      and\n      0xffffffffffffffffffffffffffffffffffffffff\n      and\n      dup2\n      mstore\n      0x20\n      add\n      swap1\n      dup2\n      mstore\n      0x20\n      add\n      0x00\n      keccak256\n      sload\n        /* \"@openzeppelin/contracts/token/ERC20/ERC20.sol\":3069:3094  return _balances[account] */\n      swap1\n      pop\n        /* \"@openzeppelin/contracts/token/ERC20/ERC20.sol\":2985:3101  function balanceOf(address account) public view virtual returns (uint256) {... */\n      swap2\n      swap1\n      pop\n      jump\t// out\n        /* \"@openzeppelin/contracts/access/Ownable.sol\":2912:3099  function _transferOwnership(address newOwner) internal virtual {... */\n    tag_119:\n        /* \"@openzeppelin/contracts/access/Ownable.sol\":2985:3001  address oldOwner */\n      0x00\n        /* \"@openzeppelin/contracts/access/Ownable.sol\":3004:3010  _owner */\n      0x05\n      0x00\n      swap1\n      sload\n      swap1\n      0x0100\n      exp\n      swap1\n      div\n      0xffffffffffffffffffffffffffffffffffffffff\n      and\n        /* \"@openzeppelin/contracts/access/Ownable.sol\":2985:3010  address oldOwner = _owner */\n      swap1\n      pop\n        /* \"@openzeppelin/contracts/access/Ownable.sol\":3029:3037  newOwner */\n      dup2\n        /* \"@openzeppelin/contracts/access/Ownable.sol\":3020:3026  _owner */\n      0x05\n      0x00\n        /* \"@openzeppelin/contracts/access/Ownable.sol\":3020:3037  _owner = newOwner */\n      0x0100\n      exp\n      dup2\n      sload\n      dup2\n      0xffffffffffffffffffffffffffffffffffffffff\n      mul\n      not\n      and\n      swap1\n      dup4\n      0xffffffffffffffffffffffffffffffffffffffff\n      and\n      mul\n      or\n      swap1\n      sstore\n      pop\n        /* \"@openzeppelin/contracts/access/Ownable.sol\":3083:3091  newOwner */\n      dup2\n        /* \"@openzeppelin/contracts/access/Ownable.sol\":3052:3092  OwnershipTransferred(oldOwner, newOwner) */\n      0xffffffffffffffffffffffffffffffffffffffff\n      and\n        /* \"@openzeppelin/contracts/access/Ownable.sol\":3073:3081  oldOwner */\n      dup2\n        /* \"@openzeppelin/contracts/access/Ownable.sol\":3052:3092  OwnershipTransferred(oldOwner, newOwner) */\n      0xffffffffffffffffffffffffffffffffffffffff\n      and\n      0x8be0079c531659141344cd1fd0a4f28419497f9722a3daafe3b4186f6b6457e0\n      mload(0x40)\n      mload(0x40)\n      dup1\n      swap2\n      sub\n      swap1\n      log3\n        /* \"@openzeppelin/contracts/access/Ownable.sol\":2975:3099  {... */\n      pop\n        /* \"@openzeppelin/contracts/access/Ownable.sol\":2912:3099  function _transferOwnership(address newOwner) internal virtual {... */\n      pop\n      jump\t// out\n        /* \"@openzeppelin/contracts/token/ERC20/ERC20.sol\":9682:10114  function _approve(address owner, address spender, uint256 value, bool emitEvent) internal virtual {... */\n    tag_140:\n        /* \"@openzeppelin/contracts/token/ERC20/ERC20.sol\":9811:9812  0 */\n      0x00\n        /* \"@openzeppelin/contracts/token/ERC20/ERC20.sol\":9794:9813  owner == address(0) */\n      0xffffffffffffffffffffffffffffffffffffffff\n      and\n        /* \"@openzeppelin/contracts/token/ERC20/ERC20.sol\":9794:9799  owner */\n      dup5\n        /* \"@openzeppelin/contracts/token/ERC20/ERC20.sol\":9794:9813  owner == address(0) */\n      0xffffffffffffffffffffffffffffffffffffffff\n      and\n      sub\n        /* \"@openzeppelin/contracts/token/ERC20/ERC20.sol\":9790:9879  if (owner == address(0)) {... */\n      tag_164\n      jumpi\n        /* \"@openzeppelin/contracts/token/ERC20/ERC20.sol\":9865:9866  0 */\n      0x00\n        /* \"@openzeppelin/contracts/token/ERC20/ERC20.sol\":9836:9868  ERC20InvalidApprover(address(0)) */\n      mload(0x40)\n      0xe602df0500000000000000000000000000000000000000000000000000000000\n      dup2\n      mstore\n      0x04\n      add\n      tag_165\n      swap2\n      swap1\n      tag_55\n      jump\t// in\n    tag_165:\n      mload(0x40)\n      dup1\n      swap2\n      sub\n      swap1\n      revert\n        /* \"@openzeppelin/contracts/token/ERC20/ERC20.sol\":9790:9879  if (owner == address(0)) {... */\n    tag_164:\n        /* \"@openzeppelin/contracts/token/ERC20/ERC20.sol\":9911:9912  0 */\n      0x00\n        /* \"@openzeppelin/contracts/token/ERC20/ERC20.sol\":9892:9913  spender == address(0) */\n      0xffffffffffffffffffffffffffffffffffffffff\n      and\n        /* \"@openzeppelin/contracts/token/ERC20/ERC20.sol\":9892:9899  spender */\n      dup4\n        /* \"@openzeppelin/contracts/token/ERC20/ERC20.sol\":9892:9913  spender == address(0) */\n      0xffffffffffffffffffffffffffffffffffffffff\n      and\n      sub\n        /* \"@openzeppelin/contracts/token/ERC20/ERC20.sol\":9888:9978  if (spender == address(0)) {... */\n      tag_166\n      jumpi\n        /* \"@openzeppelin/contracts/token/ERC20/ERC20.sol\":9964:9965  0 */\n      0x00\n        /* \"@openzeppelin/contracts/token/ERC20/ERC20.sol\":9936:9967  ERC20InvalidSpender(address(0)) */\n      mload(0x40)\n      0x94280d6200000000000000000000000000000000000000000000000000000000\n      dup2\n      mstore\n      0x04\n      add\n      tag_167\n      swap2\n      swap1\n      tag_55\n      jump\t// in\n    tag_167:\n      mload(0x40)\n      dup1\n      swap2\n      sub\n      swap1\n      revert\n        /* \"@openzeppelin/contracts/token/ERC20/ERC20.sol\":9888:9978  if (spender == address(0)) {... */\n    tag_166:\n        /* \"@openzeppelin/contracts/token/ERC20/ERC20.sol\":10017:10022  value */\n      dup2\n        /* \"@openzeppelin/contracts/token/ERC20/ERC20.sol\":9987:9998  _allowances */\n      0x01\n        /* \"@openzeppelin/contracts/token/ERC20/ERC20.sol\":9987:10005  _allowances[owner] */\n      0x00\n        /* \"@openzeppelin/contracts/token/ERC20/ERC20.sol\":9999:10004  owner */\n      dup7\n        /* \"@openzeppelin/contracts/token/ERC20/ERC20.sol\":9987:10005  _allowances[owner] */\n      0xffffffffffffffffffffffffffffffffffffffff\n      and\n      0xffffffffffffffffffffffffffffffffffffffff\n      and\n      dup2\n      mstore\n      0x20\n      add\n      swap1\n      dup2\n      mstore\n      0x20\n      add\n      0x00\n      keccak256\n        /* \"@openzeppelin/contracts/token/ERC20/ERC20.sol\":9987:10014  _allowances[owner][spender] */\n      0x00\n        /* \"@openzeppelin/contracts/token/ERC20/ERC20.sol\":10006:10013  spender */\n      dup6\n        /* \"@openzeppelin/contracts/token/ERC20/ERC20.sol\":9987:10014  _allowances[owner][spender] */\n      0xffffffffffffffffffffffffffffffffffffffff\n      and\n      0xffffffffffffffffffffffffffffffffffffffff\n      and\n      dup2\n      mstore\n      0x20\n      add\n      swap1\n      dup2\n      mstore\n      0x20\n      add\n      0x00\n      keccak256\n        /* \"@openzeppelin/contracts/token/ERC20/ERC20.sol\":9987:10022  _allowances[owner][spender] = value */\n      dup2\n      swap1\n      sstore\n      pop\n        /* \"@openzeppelin/contracts/token/ERC20/ERC20.sol\":10036:10045  emitEvent */\n      dup1\n        /* \"@openzeppelin/contracts/token/ERC20/ERC20.sol\":10032:10108  if (emitEvent) {... */\n      iszero\n      tag_168\n      jumpi\n        /* \"@openzeppelin/contracts/token/ERC20/ERC20.sol\":10082:10089  spender */\n      dup3\n        /* \"@openzeppelin/contracts/token/ERC20/ERC20.sol\":10066:10097  Approval(owner, spender, value) */\n      0xffffffffffffffffffffffffffffffffffffffff\n      and\n        /* \"@openzeppelin/contracts/token/ERC20/ERC20.sol\":10075:10080  owner */\n      dup5\n        /* \"@openzeppelin/contracts/token/ERC20/ERC20.sol\":10066:10097  Approval(owner, spender, value) */\n      0xffffffffffffffffffffffffffffffffffffffff\n      and\n      0x8c5be1e5ebec7d5bd14f71427d1e84f3dd0314c0f7b2291e5b200ac8c7c3b925\n        /* \"@openzeppelin/contracts/token/ERC20/ERC20.sol\":10091:10096  value */\n      dup5\n        /* \"@openzeppelin/contracts/token/ERC20/ERC20.sol\":10066:10097  Approval(owner, spender, value) */\n      mload(0x40)\n      tag_169\n      swap2\n      swap1\n      tag_31\n      jump\t// in\n    tag_169:\n      mload(0x40)\n      dup1\n      swap2\n      sub\n      swap1\n      log3\n        /* \"@openzeppelin/contracts/token/ERC20/ERC20.sol\":10032:10108  if (emitEvent) {... */\n    tag_168:\n        /* \"@openzeppelin/contracts/token/ERC20/ERC20.sol\":9682:10114  function _approve(address owner, address spender, uint256 value, bool emitEvent) internal virtual {... */\n      pop\n      pop\n      pop\n      pop\n      jump\t// out\n        /* \"@openzeppelin/contracts/token/ERC20/ERC20.sol\":5989:7096  function _update(address from, address to, uint256 value) internal virtual {... */\n    tag_154:\n        /* \"@openzeppelin/contracts/token/ERC20/ERC20.sol\":6094:6095  0 */\n      0x00\n        /* \"@openzeppelin/contracts/token/ERC20/ERC20.sol\":6078:6096  from == address(0) */\n      0xffffffffffffffffffffffffffffffffffffffff\n      and\n        /* \"@openzeppelin/contracts/token/ERC20/ERC20.sol\":6078:6082  from */\n      dup4\n        /* \"@openzeppelin/contracts/token/ERC20/ERC20.sol\":6078:6096  from == address(0) */\n      0xffffffffffffffffffffffffffffffffffffffff\n      and\n      sub\n        /* \"@openzeppelin/contracts/token/ERC20/ERC20.sol\":6074:6614  if (from == address(0)) {... */\n      tag_171\n      jumpi\n        /* \"@openzeppelin/contracts/token/ERC20/ERC20.sol\":6230:6235  value */\n      dup1\n        /* \"@openzeppelin/contracts/token/ERC20/ERC20.sol\":6214:6226  _totalSupply */\n      0x02\n      0x00\n        /* \"@openzeppelin/contracts/token/ERC20/ERC20.sol\":6214:6235  _totalSupply += value */\n      dup3\n      dup3\n      sload\n      tag_172\n      swap2\n      swap1\n      tag_173\n      jump\t// in\n    tag_172:\n      swap3\n      pop\n      pop\n      dup2\n      swap1\n      sstore\n      pop\n        /* \"@openzeppelin/contracts/token/ERC20/ERC20.sol\":6074:6614  if (from == address(0)) {... */\n      jump(tag_174)\n    tag_171:\n        /* \"@openzeppelin/contracts/token/ERC20/ERC20.sol\":6266:6285  uint256 fromBalance */\n      0x00\n        /* \"@openzeppelin/contracts/token/ERC20/ERC20.sol\":6288:6297  _balances */\n      0x00\n        /* \"@openzeppelin/contracts/token/ERC20/ERC20.sol\":6288:6303  _balances[from] */\n      0x00\n        /* \"@openzeppelin/contracts/token/ERC20/ERC20.sol\":6298:6302  from */\n      dup6\n        /* \"@openzeppelin/contracts/token/ERC20/ERC20.sol\":6288:6303  _balances[from] */\n      0xffffffffffffffffffffffffffffffffffffffff\n      and\n      0xffffffffffffffffffffffffffffffffffffffff\n      and\n      dup2\n      mstore\n      0x20\n      add\n      swap1\n      dup2\n      mstore\n      0x20\n      add\n      0x00\n      keccak256\n      sload\n        /* \"@openzeppelin/contracts/token/ERC20/ERC20.sol\":6266:6303  uint256 fromBalance = _balances[from] */\n      swap1\n      pop\n        /* \"@openzeppelin/contracts/token/ERC20/ERC20.sol\":6335:6340  value */\n      dup2\n        /* \"@openzeppelin/contracts/token/ERC20/ERC20.sol\":6321:6332  fromBalance */\n      dup2\n        /* \"@openzeppelin/contracts/token/ERC20/ERC20.sol\":6321:6340  fromBalance < value */\n      lt\n        /* \"@openzeppelin/contracts/token/ERC20/ERC20.sol\":6317:6432  if (fromBalance < value) {... */\n      iszero\n      tag_175\n      jumpi\n        /* \"@openzeppelin/contracts/token/ERC20/ERC20.sol\":6392:6396  from */\n      dup4\n        /* \"@openzeppelin/contracts/token/ERC20/ERC20.sol\":6398:6409  fromBalance */\n      dup2\n        /* \"@openzeppelin/contracts/token/ERC20/ERC20.sol\":6411:6416  value */\n      dup4\n        /* \"@openzeppelin/contracts/token/ERC20/ERC20.sol\":6367:6417  ERC20InsufficientBalance(from, fromBalance, value) */\n      mload(0x40)\n      0xe450d38c00000000000000000000000000000000000000000000000000000000\n      dup2\n      mstore\n      0x04\n      add\n      tag_176\n      swap4\n      swap3\n      swap2\n      swap1\n      tag_146\n      jump\t// in\n    tag_176:\n      mload(0x40)\n      dup1\n      swap2\n      sub\n      swap1\n      revert\n        /* \"@openzeppelin/contracts/token/ERC20/ERC20.sol\":6317:6432  if (fromBalance < value) {... */\n    tag_175:\n        /* \"@openzeppelin/contracts/token/ERC20/ERC20.sol\":6584:6589  value */\n      dup2\n        /* \"@openzeppelin/contracts/token/ERC20/ERC20.sol\":6570:6581  fromBalance */\n      dup2\n        /* \"@openzeppelin/contracts/token/ERC20/ERC20.sol\":6570:6589  fromBalance - value */\n      sub\n        /* \"@openzeppelin/contracts/token/ERC20/ERC20.sol\":6552:6561  _balances */\n      0x00\n        /* \"@openzeppelin/contracts/token/ERC20/ERC20.sol\":6552:6567  _balances[from] */\n      0x00\n        /* \"@openzeppelin/contracts/token/ERC20/ERC20.sol\":6562:6566  from */\n      dup7\n        /* \"@openzeppelin/contracts/token/ERC20/ERC20.sol\":6552:6567  _balances[from] */\n      0xffffffffffffffffffffffffffffffffffffffff\n      and\n      0xffffffffffffffffffffffffffffffffffffffff\n      and\n      dup2\n      mstore\n      0x20\n      add\n      swap1\n      dup2\n      mstore\n      0x20\n      add\n      0x00\n      keccak256\n        /* \"@openzeppelin/contracts/token/ERC20/ERC20.sol\":6552:6589  _balances[from] = fromBalance - value */\n      dup2\n      swap1\n      sstore\n      pop\n        /* \"@openzeppelin/contracts/token/ERC20/ERC20.sol\":6252:6614  {... */\n      pop\n        /* \"@openzeppelin/contracts/token/ERC20/ERC20.sol\":6074:6614  if (from == address(0)) {... */\n    tag_174:\n        /* \"@openzeppelin/contracts/token/ERC20/ERC20.sol\":6642:6643  0 */\n      0x00\n        /* \"@openzeppelin/contracts/token/ERC20/ERC20.sol\":6628:6644  to == address(0) */\n      0xffffffffffffffffffffffffffffffffffffffff\n      and\n        /* \"@openzeppelin/contracts/token/ERC20/ERC20.sol\":6628:6630  to */\n      dup3\n        /* \"@openzeppelin/contracts/token/ERC20/ERC20.sol\":6628:6644  to == address(0) */\n      0xffffffffffffffffffffffffffffffffffffffff\n      and\n      sub\n        /* \"@openzeppelin/contracts/token/ERC20/ERC20.sol\":6624:7049  if (to == address(0)) {... */\n      tag_177\n      jumpi\n        /* \"@openzeppelin/contracts/token/ERC20/ERC20.sol\":6807:6812  value */\n      dup1\n        /* \"@openzeppelin/contracts/token/ERC20/ERC20.sol\":6791:6803  _totalSupply */\n      0x02\n      0x00\n        /* \"@openzeppelin/contracts/token/ERC20/ERC20.sol\":6791:6812  _totalSupply -= value */\n      dup3\n      dup3\n      sload\n      sub\n      swap3\n      pop\n      pop\n      dup2\n      swap1\n      sstore\n      pop\n        /* \"@openzeppelin/contracts/token/ERC20/ERC20.sol\":6624:7049  if (to == address(0)) {... */\n      jump(tag_178)\n    tag_177:\n        /* \"@openzeppelin/contracts/token/ERC20/ERC20.sol\":7019:7024  value */\n      dup1\n        /* \"@openzeppelin/contracts/token/ERC20/ERC20.sol\":7002:7011  _balances */\n      0x00\n        /* \"@openzeppelin/contracts/token/ERC20/ERC20.sol\":7002:7015  _balances[to] */\n      0x00\n        /* \"@openzeppelin/contracts/token/ERC20/ERC20.sol\":7012:7014  to */\n      dup5\n        /* \"@openzeppelin/contracts/token/ERC20/ERC20.sol\":7002:7015  _balances[to] */\n      0xffffffffffffffffffffffffffffffffffffffff\n      and\n      0xffffffffffffffffffffffffffffffffffffffff\n      and\n      dup2\n      mstore\n      0x20\n      add\n      swap1\n      dup2\n      mstore\n      0x20\n      add\n      0x00\n      keccak256\n      0x00\n        /* \"@openzeppelin/contracts/token/ERC20/ERC20.sol\":7002:7024  _balances[to] += value */\n      dup3\n      dup3\n      sload\n      add\n      swap3\n      pop\n      pop\n      dup2\n      swap1\n      sstore\n      pop\n        /* \"@openzeppelin/contracts/token/ERC20/ERC20.sol\":6624:7049  if (to == address(0)) {... */\n    tag_178:\n        /* \"@openzeppelin/contracts/token/ERC20/ERC20.sol\":7079:7081  to */\n      dup2\n        /* \"@openzeppelin/contracts/token/ERC20/ERC20.sol\":7064:7089  Transfer(from, to, value) */\n      0xffffffffffffffffffffffffffffffffffffffff\n      and\n        /* \"@openzeppelin/contracts/token/ERC20/ERC20.sol\":7073:7077  from */\n      dup4\n        /* \"@openzeppelin/contracts/token/ERC20/ERC20.sol\":7064:7089  Transfer(from, to, value) */\n      0xffffffffffffffffffffffffffffffffffffffff\n      and\n      0xddf252ad1be2c89b69c2b068fc378daa952ba7f163c4a11628f55a4df523b3ef\n        /* \"@openzeppelin/contracts/token/ERC20/ERC20.sol\":7083:7088  value */\n      dup4\n        /* \"@openzeppelin/contracts/token/ERC20/ERC20.sol\":7064:7089  Transfer(from, to, value) */\n      mload(0x40)\n      tag_179\n      swap2\n      swap1\n      tag_31\n      jump\t// in\n    tag_179:\n      mload(0x40)\n      dup1\n      swap2\n      sub\n      swap1\n      log3\n        /* \"@openzeppelin/contracts/token/ERC20/ERC20.sol\":5989:7096  function _update(address from, address to, uint256 value) internal virtual {... */\n      pop\n      pop\n      pop\n      jump\t// out\n        /* \"#utility.yul\":7:106   */\n    tag_180:\n        /* \"#utility.yul\":59:65   */\n      0x00\n        /* \"#utility.yul\":93:98   */\n      dup2\n        /* \"#utility.yul\":87:99   */\n      mload\n        /* \"#utility.yul\":77:99   */\n      swap1\n      pop\n        /* \"#utility.yul\":7:106   */\n      swap2\n      swap1\n      pop\n      jump\t// out\n        /* \"#utility.yul\":112:281   */\n    tag_181:\n        /* \"#utility.yul\":196:207   */\n      0x00\n        /* \"#utility.yul\":230:236   */\n      dup3\n        /* \"#utility.yul\":225:228   */\n      dup3\n        /* \"#utility.yul\":218:237   */\n      mstore\n        /* \"#utility.yul\":270:274   */\n      0x20\n        /* \"#utility.yul\":265:268   */\n      dup3\n        /* \"#utility.yul\":261:275   */\n      add\n        /* \"#utility.yul\":246:275   */\n      swap1\n      pop\n        /* \"#utility.yul\":112:281   */\n      swap3\n      swap2\n      pop\n      pop\n      jump\t// out\n        /* \"#utility.yul\":287:426   */\n    tag_182:\n        /* \"#utility.yul\":376:382   */\n      dup3\n        /* \"#utility.yul\":371:374   */\n      dup2\n        /* \"#utility.yul\":366:369   */\n      dup4\n        /* \"#utility.yul\":360:383   */\n      mcopy\n        /* \"#utility.yul\":417:418   */\n      0x00\n        /* \"#utility.yul\":408:414   */\n      dup4\n        /* \"#utility.yul\":403:406   */\n      dup4\n        /* \"#utility.yul\":399:415   */\n      add\n        /* \"#utility.yul\":392:419   */\n      mstore\n        /* \"#utility.yul\":287:426   */\n      pop\n      pop\n      pop\n      jump\t// out\n        /* \"#utility.yul\":432:534   */\n    tag_183:\n        /* \"#utility.yul\":473:479   */\n      0x00\n        /* \"#utility.yul\":524:526   */\n      0x1f\n        /* \"#utility.yul\":520:527   */\n      not\n        /* \"#utility.yul\":515:517   */\n      0x1f\n        /* \"#utility.yul\":508:513   */\n      dup4\n        /* \"#utility.yul\":504:518   */\n      add\n        /* \"#utility.yul\":500:528   */\n      and\n        /* \"#utility.yul\":490:528   */\n      swap1\n      pop\n        /* \"#utility.yul\":432:534   */\n      swap2\n      swap1\n      pop\n      jump\t// out\n        /* \"#utility.yul\":540:917   */\n    tag_184:\n        /* \"#utility.yul\":628:631   */\n      0x00\n        /* \"#utility.yul\":656:695   */\n      tag_225\n        /* \"#utility.yul\":689:694   */\n      dup3\n        /* \"#utility.yul\":656:695   */\n      tag_180\n      jump\t// in\n    tag_225:\n        /* \"#utility.yul\":711:782   */\n      tag_226\n        /* \"#utility.yul\":775:781   */\n      dup2\n        /* \"#utility.yul\":770:773   */\n      dup6\n        /* \"#utility.yul\":711:782   */\n      tag_181\n      jump\t// in\n    tag_226:\n        /* \"#utility.yul\":704:782   */\n      swap4\n      pop\n        /* \"#utility.yul\":791:856   */\n      tag_227\n        /* \"#utility.yul\":849:855   */\n      dup2\n        /* \"#utility.yul\":844:847   */\n      dup6\n        /* \"#utility.yul\":837:841   */\n      0x20\n        /* \"#utility.yul\":830:835   */\n      dup7\n        /* \"#utility.yul\":826:842   */\n      add\n        /* \"#utility.yul\":791:856   */\n      tag_182\n      jump\t// in\n    tag_227:\n        /* \"#utility.yul\":881:910   */\n      tag_228\n        /* \"#utility.yul\":903:909   */\n      dup2\n        /* \"#utility.yul\":881:910   */\n      tag_183\n      jump\t// in\n    tag_228:\n        /* \"#utility.yul\":876:879   */\n      dup5\n        /* \"#utility.yul\":872:911   */\n      add\n        /* \"#utility.yul\":865:911   */\n      swap2\n      pop\n        /* \"#utility.yul\":632:917   */\n      pop\n        /* \"#utility.yul\":540:917   */\n      swap3\n      swap2\n      pop\n      pop\n      jump\t// out\n        /* \"#utility.yul\":923:1236   */\n    tag_21:\n        /* \"#utility.yul\":1036:1040   */\n      0x00\n        /* \"#utility.yul\":1074:1076   */\n      0x20\n        /* \"#utility.yul\":1063:1072   */\n      dup3\n        /* \"#utility.yul\":1059:1077   */\n      add\n        /* \"#utility.yul\":1051:1077   */\n      swap1\n      pop\n        /* \"#utility.yul\":1123:1132   */\n      dup2\n        /* \"#utility.yul\":1117:1121   */\n      dup2\n        /* \"#utility.yul\":1113:1133   */\n      sub\n        /* \"#utility.yul\":1109:1110   */\n      0x00\n        /* \"#utility.yul\":1098:1107   */\n      dup4\n        /* \"#utility.yul\":1094:1111   */\n      add\n        /* \"#utility.yul\":1087:1134   */\n      mstore\n        /* \"#utility.yul\":1151:1229   */\n      tag_230\n        /* \"#utility.yul\":1224:1228   */\n      dup2\n        /* \"#utility.yul\":1215:1221   */\n      dup5\n        /* \"#utility.yul\":1151:1229   */\n      tag_184\n      jump\t// in\n    tag_230:\n        /* \"#utility.yul\":1143:1229   */\n      swap1\n      pop\n        /* \"#utility.yul\":923:1236   */\n      swap3\n      swap2\n      pop\n      pop\n      jump\t// out\n        /* \"#utility.yul\":1242:1317   */\n    tag_185:\n        /* \"#utility.yul\":1275:1281   */\n      0x00\n        /* \"#utility.yul\":1308:1310   */\n      0x40\n        /* \"#utility.yul\":1302:1311   */\n      mload\n        /* \"#utility.yul\":1292:1311   */\n      swap1\n      pop\n        /* \"#utility.yul\":1242:1317   */\n      swap1\n      jump\t// out\n        /* \"#utility.yul\":1323:1440   */\n    tag_186:\n        /* \"#utility.yul\":1432:1433   */\n      0x00\n        /* \"#utility.yul\":1429:1430   */\n      0x00\n        /* \"#utility.yul\":1422:1434   */\n      revert\n        /* \"#utility.yul\":1446:1563   */\n    tag_187:\n        /* \"#utility.yul\":1555:1556   */\n      0x00\n        /* \"#utility.yul\":1552:1553   */\n      0x00\n        /* \"#utility.yul\":1545:1557   */\n      revert\n        /* \"#utility.yul\":1569:1695   */\n    tag_188:\n        /* \"#utility.yul\":1606:1613   */\n      0x00\n        /* \"#utility.yul\":1646:1688   */\n      0xffffffffffffffffffffffffffffffffffffffff\n        /* \"#utility.yul\":1639:1644   */\n      dup3\n        /* \"#utility.yul\":1635:1689   */\n      and\n        /* \"#utility.yul\":1624:1689   */\n      swap1\n      pop\n        /* \"#utility.yul\":1569:1695   */\n      swap2\n      swap1\n      pop\n      jump\t// out\n        /* \"#utility.yul\":1701:1797   */\n    tag_189:\n        /* \"#utility.yul\":1738:1745   */\n      0x00\n        /* \"#utility.yul\":1767:1791   */\n      tag_236\n        /* \"#utility.yul\":1785:1790   */\n      dup3\n        /* \"#utility.yul\":1767:1791   */\n      tag_188\n      jump\t// in\n    tag_236:\n        /* \"#utility.yul\":1756:1791   */\n      swap1\n      pop\n        /* \"#utility.yul\":1701:1797   */\n      swap2\n      swap1\n      pop\n      jump\t// out\n        /* \"#utility.yul\":1803:1925   */\n    tag_190:\n        /* \"#utility.yul\":1876:1900   */\n      tag_238\n        /* \"#utility.yul\":1894:1899   */\n      dup2\n        /* \"#utility.yul\":1876:1900   */\n      tag_189\n      jump\t// in\n    tag_238:\n        /* \"#utility.yul\":1869:1874   */\n      dup2\n        /* \"#utility.yul\":1866:1901   */\n      eq\n        /* \"#utility.yul\":1856:1919   */\n      tag_239\n      jumpi\n        /* \"#utility.yul\":1915:1916   */\n      0x00\n        /* \"#utility.yul\":1912:1913   */\n      0x00\n        /* \"#utility.yul\":1905:1917   */\n      revert\n        /* \"#utility.yul\":1856:1919   */\n    tag_239:\n        /* \"#utility.yul\":1803:1925   */\n      pop\n      jump\t// out\n        /* \"#utility.yul\":1931:2070   */\n    tag_191:\n        /* \"#utility.yul\":1977:1982   */\n      0x00\n        /* \"#utility.yul\":2015:2021   */\n      dup2\n        /* \"#utility.yul\":2002:2022   */\n      calldataload\n        /* \"#utility.yul\":1993:2022   */\n      swap1\n      pop\n        /* \"#utility.yul\":2031:2064   */\n      tag_241\n        /* \"#utility.yul\":2058:2063   */\n      dup2\n        /* \"#utility.yul\":2031:2064   */\n      tag_190\n      jump\t// in\n    tag_241:\n        /* \"#utility.yul\":1931:2070   */\n      swap3\n      swap2\n      pop\n      pop\n      jump\t// out\n        /* \"#utility.yul\":2076:2153   */\n    tag_192:\n        /* \"#utility.yul\":2113:2120   */\n      0x00\n        /* \"#utility.yul\":2142:2147   */\n      dup2\n        /* \"#utility.yul\":2131:2147   */\n      swap1\n      pop\n        /* \"#utility.yul\":2076:2153   */\n      swap2\n      swap1\n      pop\n      jump\t// out\n        /* \"#utility.yul\":2159:2281   */\n    tag_193:\n        /* \"#utility.yul\":2232:2256   */\n      tag_244\n        /* \"#utility.yul\":2250:2255   */\n      dup2\n        /* \"#utility.yul\":2232:2256   */\n      tag_192\n      jump\t// in\n    tag_244:\n        /* \"#utility.yul\":2225:2230   */\n      dup2\n        /* \"#utility.yul\":2222:2257   */\n      eq\n        /* \"#utility.yul\":2212:2275   */\n      tag_245\n      jumpi\n        /* \"#utility.yul\":2271:2272   */\n      0x00\n        /* \"#utility.yul\":2268:2269   */\n      0x00\n        /* \"#utility.yul\":2261:2273   */\n      revert\n        /* \"#utility.yul\":2212:2275   */\n    tag_245:\n        /* \"#utility.yul\":2159:2281   */\n      pop\n      jump\t// out\n        /* \"#utility.yul\":2287:2426   */\n    tag_194:\n        /* \"#utility.yul\":2333:2338   */\n      0x00\n        /* \"#utility.yul\":2371:2377   */\n      dup2\n        /* \"#utility.yul\":2358:2378   */\n      calldataload\n        /* \"#utility.yul\":2349:2378   */\n      swap1\n      pop\n        /* \"#utility.yul\":2387:2420   */\n      tag_247\n        /* \"#utility.yul\":2414:2419   */\n      dup2\n        /* \"#utility.yul\":2387:2420   */\n      tag_193\n      jump\t// in\n    tag_247:\n        /* \"#utility.yul\":2287:2426   */\n      swap3\n      swap2\n      pop\n      pop\n      jump\t// out\n        /* \"#utility.yul\":2432:2906   */\n    tag_24:\n        /* \"#utility.yul\":2500:2506   */\n      0x00\n        /* \"#utility.yul\":2508:2514   */\n      0x00\n        /* \"#utility.yul\":2557:2559   */\n      0x40\n        /* \"#utility.yul\":2545:2554   */\n      dup4\n        /* \"#utility.yul\":2536:2543   */\n      dup6\n        /* \"#utility.yul\":2532:2555   */\n      sub\n        /* \"#utility.yul\":2528:2560   */\n      slt\n        /* \"#utility.yul\":2525:2644   */\n      iszero\n      tag_249\n      jumpi\n        /* \"#utility.yul\":2563:2642   */\n      tag_250\n      tag_186\n      jump\t// in\n    tag_250:\n        /* \"#utility.yul\":2525:2644   */\n    tag_249:\n        /* \"#utility.yul\":2683:2684   */\n      0x00\n        /* \"#utility.yul\":2708:2761   */\n      tag_251\n        /* \"#utility.yul\":2753:2760   */\n      dup6\n        /* \"#utility.yul\":2744:2750   */\n      dup3\n        /* \"#utility.yul\":2733:2742   */\n      dup7\n        /* \"#utility.yul\":2729:2751   */\n      add\n        /* \"#utility.yul\":2708:2761   */\n      tag_191\n      jump\t// in\n    tag_251:\n        /* \"#utility.yul\":2698:2761   */\n      swap3\n      pop\n        /* \"#utility.yul\":2654:2771   */\n      pop\n        /* \"#utility.yul\":2810:2812   */\n      0x20\n        /* \"#utility.yul\":2836:2889   */\n      tag_252\n        /* \"#utility.yul\":2881:2888   */\n      dup6\n        /* \"#utility.yul\":2872:2878   */\n      dup3\n        /* \"#utility.yul\":2861:2870   */\n      dup7\n        /* \"#utility.yul\":2857:2879   */\n      add\n        /* \"#utility.yul\":2836:2889   */\n      tag_194\n      jump\t// in\n    tag_252:\n        /* \"#utility.yul\":2826:2889   */\n      swap2\n      pop\n        /* \"#utility.yul\":2781:2899   */\n      pop\n        /* \"#utility.yul\":2432:2906   */\n      swap3\n      pop\n      swap3\n      swap1\n      pop\n      jump\t// out\n        /* \"#utility.yul\":2912:3002   */\n    tag_195:\n        /* \"#utility.yul\":2946:2953   */\n      0x00\n        /* \"#utility.yul\":2989:2994   */\n      dup2\n        /* \"#utility.yul\":2982:2995   */\n      iszero\n        /* \"#utility.yul\":2975:2996   */\n      iszero\n        /* \"#utility.yul\":2964:2996   */\n      swap1\n      pop\n        /* \"#utility.yul\":2912:3002   */\n      swap2\n      swap1\n      pop\n      jump\t// out\n        /* \"#utility.yul\":3008:3117   */\n    tag_196:\n        /* \"#utility.yul\":3089:3110   */\n      tag_255\n        /* \"#utility.yul\":3104:3109   */\n      dup2\n        /* \"#utility.yul\":3089:3110   */\n      tag_195\n      jump\t// in\n    tag_255:\n        /* \"#utility.yul\":3084:3087   */\n      dup3\n        /* \"#utility.yul\":3077:3111   */\n      mstore\n        /* \"#utility.yul\":3008:3117   */\n      pop\n      pop\n      jump\t// out\n        /* \"#utility.yul\":3123:3333   */\n    tag_27:\n        /* \"#utility.yul\":3210:3214   */\n      0x00\n        /* \"#utility.yul\":3248:3250   */\n      0x20\n        /* \"#utility.yul\":3237:3246   */\n      dup3\n        /* \"#utility.yul\":3233:3251   */\n      add\n        /* \"#utility.yul\":3225:3251   */\n      swap1\n      pop\n        /* \"#utility.yul\":3261:3326   */\n      tag_257\n        /* \"#utility.yul\":3323:3324   */\n      0x00\n        /* \"#utility.yul\":3312:3321   */\n      dup4\n        /* \"#utility.yul\":3308:3325   */\n      add\n        /* \"#utility.yul\":3299:3305   */\n      dup5\n        /* \"#utility.yul\":3261:3326   */\n      tag_196\n      jump\t// in\n    tag_257:\n        /* \"#utility.yul\":3123:3333   */\n      swap3\n      swap2\n      pop\n      pop\n      jump\t// out\n        /* \"#utility.yul\":3339:3457   */\n    tag_197:\n        /* \"#utility.yul\":3426:3450   */\n      tag_259\n        /* \"#utility.yul\":3444:3449   */\n      dup2\n        /* \"#utility.yul\":3426:3450   */\n      tag_192\n      jump\t// in\n    tag_259:\n        /* \"#utility.yul\":3421:3424   */\n      dup3\n        /* \"#utility.yul\":3414:3451   */\n      mstore\n        /* \"#utility.yul\":3339:3457   */\n      pop\n      pop\n      jump\t// out\n        /* \"#utility.yul\":3463:3685   */\n    tag_31:\n        /* \"#utility.yul\":3556:3560   */\n      0x00\n        /* \"#utility.yul\":3594:3596   */\n      0x20\n        /* \"#utility.yul\":3583:3592   */\n      dup3\n        /* \"#utility.yul\":3579:3597   */\n      add\n        /* \"#utility.yul\":3571:3597   */\n      swap1\n      pop\n        /* \"#utility.yul\":3607:3678   */\n      tag_261\n        /* \"#utility.yul\":3675:3676   */\n      0x00\n        /* \"#utility.yul\":3664:3673   */\n      dup4\n        /* \"#utility.yul\":3660:3677   */\n      add\n        /* \"#utility.yul\":3651:3657   */\n      dup5\n        /* \"#utility.yul\":3607:3678   */\n      tag_197\n      jump\t// in\n    tag_261:\n        /* \"#utility.yul\":3463:3685   */\n      swap3\n      swap2\n      pop\n      pop\n      jump\t// out\n        /* \"#utility.yul\":3691:4310   */\n    tag_34:\n        /* \"#utility.yul\":3768:3774   */\n      0x00\n        /* \"#utility.yul\":3776:3782   */\n      0x00\n        /* \"#utility.yul\":3784:3790   */\n      0x00\n        /* \"#utility.yul\":3833:3835   */\n      0x60\n        /* \"#utility.yul\":3821:3830   */\n      dup5\n        /* \"#utility.yul\":3812:3819   */\n      dup7\n        /* \"#utility.yul\":3808:3831   */\n      sub\n        /* \"#utility.yul\":3804:3836   */\n      slt\n        /* \"#utility.yul\":3801:3920   */\n      iszero\n      tag_263\n      jumpi\n        /* \"#utility.yul\":3839:3918   */\n      tag_264\n      tag_186\n      jump\t// in\n    tag_264:\n        /* \"#utility.yul\":3801:3920   */\n    tag_263:\n        /* \"#utility.yul\":3959:3960   */\n      0x00\n        /* \"#utility.yul\":3984:4037   */\n      tag_265\n        /* \"#utility.yul\":4029:4036   */\n      dup7\n        /* \"#utility.yul\":4020:4026   */\n      dup3\n        /* \"#utility.yul\":4009:4018   */\n      dup8\n        /* \"#utility.yul\":4005:4027   */\n      add\n        /* \"#utility.yul\":3984:4037   */\n      tag_191\n      jump\t// in\n    tag_265:\n        /* \"#utility.yul\":3974:4037   */\n      swap4\n      pop\n        /* \"#utility.yul\":3930:4047   */\n      pop\n        /* \"#utility.yul\":4086:4088   */\n      0x20\n        /* \"#utility.yul\":4112:4165   */\n      tag_266\n        /* \"#utility.yul\":4157:4164   */\n      dup7\n        /* \"#utility.yul\":4148:4154   */\n      dup3\n        /* \"#utility.yul\":4137:4146   */\n      dup8\n        /* \"#utility.yul\":4133:4155   */\n      add\n        /* \"#utility.yul\":4112:4165   */\n      tag_191\n      jump\t// in\n    tag_266:\n        /* \"#utility.yul\":4102:4165   */\n      swap3\n      pop\n        /* \"#utility.yul\":4057:4175   */\n      pop\n        /* \"#utility.yul\":4214:4216   */\n      0x40\n        /* \"#utility.yul\":4240:4293   */\n      tag_267\n        /* \"#utility.yul\":4285:4292   */\n      dup7\n        /* \"#utility.yul\":4276:4282   */\n      dup3\n        /* \"#utility.yul\":4265:4274   */\n      dup8\n        /* \"#utility.yul\":4261:4283   */\n      add\n        /* \"#utility.yul\":4240:4293   */\n      tag_194\n      jump\t// in\n    tag_267:\n        /* \"#utility.yul\":4230:4293   */\n      swap2\n      pop\n        /* \"#utility.yul\":4185:4303   */\n      pop\n        /* \"#utility.yul\":3691:4310   */\n      swap3\n      pop\n      swap3\n      pop\n      swap3\n      jump\t// out\n        /* \"#utility.yul\":4316:4402   */\n    tag_198:\n        /* \"#utility.yul\":4351:4358   */\n      0x00\n        /* \"#utility.yul\":4391:4395   */\n      0xff\n        /* \"#utility.yul\":4384:4389   */\n      dup3\n        /* \"#utility.yul\":4380:4396   */\n      and\n        /* \"#utility.yul\":4369:4396   */\n      swap1\n      pop\n        /* \"#utility.yul\":4316:4402   */\n      swap2\n      swap1\n      pop\n      jump\t// out\n        /* \"#utility.yul\":4408:4520   */\n    tag_199:\n        /* \"#utility.yul\":4491:4513   */\n      tag_270\n        /* \"#utility.yul\":4507:4512   */\n      dup2\n        /* \"#utility.yul\":4491:4513   */\n      tag_198\n      jump\t// in\n    tag_270:\n        /* \"#utility.yul\":4486:4489   */\n      dup3\n        /* \"#utility.yul\":4479:4514   */\n      mstore\n        /* \"#utility.yul\":4408:4520   */\n      pop\n      pop\n      jump\t// out\n        /* \"#utility.yul\":4526:4740   */\n    tag_40:\n        /* \"#utility.yul\":4615:4619   */\n      0x00\n        /* \"#utility.yul\":4653:4655   */\n      0x20\n        /* \"#utility.yul\":4642:4651   */\n      dup3\n        /* \"#utility.yul\":4638:4656   */\n      add\n        /* \"#utility.yul\":4630:4656   */\n      swap1\n      pop\n        /* \"#utility.yul\":4666:4733   */\n      tag_272\n        /* \"#utility.yul\":4730:4731   */\n      0x00\n        /* \"#utility.yul\":4719:4728   */\n      dup4\n        /* \"#utility.yul\":4715:4732   */\n      add\n        /* \"#utility.yul\":4706:4712   */\n      dup5\n        /* \"#utility.yul\":4666:4733   */\n      tag_199\n      jump\t// in\n    tag_272:\n        /* \"#utility.yul\":4526:4740   */\n      swap3\n      swap2\n      pop\n      pop\n      jump\t// out\n        /* \"#utility.yul\":4746:4863   */\n    tag_200:\n        /* \"#utility.yul\":4855:4856   */\n      0x00\n        /* \"#utility.yul\":4852:4853   */\n      0x00\n        /* \"#utility.yul\":4845:4857   */\n      revert\n        /* \"#utility.yul\":4869:5049   */\n    tag_201:\n        /* \"#utility.yul\":4917:4994   */\n      0x4e487b7100000000000000000000000000000000000000000000000000000000\n        /* \"#utility.yul\":4914:4915   */\n      0x00\n        /* \"#utility.yul\":4907:4995   */\n      mstore\n        /* \"#utility.yul\":5014:5018   */\n      0x41\n        /* \"#utility.yul\":5011:5012   */\n      0x04\n        /* \"#utility.yul\":5004:5019   */\n      mstore\n        /* \"#utility.yul\":5038:5042   */\n      0x24\n        /* \"#utility.yul\":5035:5036   */\n      0x00\n        /* \"#utility.yul\":5028:5043   */\n      revert\n        /* \"#utility.yul\":5055:5336   */\n    tag_202:\n        /* \"#utility.yul\":5138:5165   */\n      tag_276\n        /* \"#utility.yul\":5160:5164   */\n      dup3\n        /* \"#utility.yul\":5138:5165   */\n      tag_183\n      jump\t// in\n    tag_276:\n        /* \"#utility.yul\":5130:5136   */\n      dup2\n        /* \"#utility.yul\":5126:5166   */\n      add\n        /* \"#utility.yul\":5268:5274   */\n      dup2\n        /* \"#utility.yul\":5256:5266   */\n      dup2\n        /* \"#utility.yul\":5253:5275   */\n      lt\n        /* \"#utility.yul\":5232:5250   */\n      0xffffffffffffffff\n        /* \"#utility.yul\":5220:5230   */\n      dup3\n        /* \"#utility.yul\":5217:5251   */\n      gt\n        /* \"#utility.yul\":5214:5276   */\n      or\n        /* \"#utility.yul\":5211:5299   */\n      iszero\n      tag_277\n      jumpi\n        /* \"#utility.yul\":5279:5297   */\n      tag_278\n      tag_201\n      jump\t// in\n    tag_278:\n        /* \"#utility.yul\":5211:5299   */\n    tag_277:\n        /* \"#utility.yul\":5319:5329   */\n      dup1\n        /* \"#utility.yul\":5315:5317   */\n      0x40\n        /* \"#utility.yul\":5308:5330   */\n      mstore\n        /* \"#utility.yul\":5098:5336   */\n      pop\n        /* \"#utility.yul\":5055:5336   */\n      pop\n      pop\n      jump\t// out\n        /* \"#utility.yul\":5342:5471   */\n    tag_203:\n        /* \"#utility.yul\":5376:5382   */\n      0x00\n        /* \"#utility.yul\":5403:5423   */\n      tag_280\n      tag_185\n      jump\t// in\n    tag_280:\n        /* \"#utility.yul\":5393:5423   */\n      swap1\n      pop\n        /* \"#utility.yul\":5432:5465   */\n      tag_281\n        /* \"#utility.yul\":5460:5464   */\n      dup3\n        /* \"#utility.yul\":5452:5458   */\n      dup3\n        /* \"#utility.yul\":5432:5465   */\n      tag_202\n      jump\t// in\n    tag_281:\n        /* \"#utility.yul\":5342:5471   */\n      swap2\n      swap1\n      pop\n      jump\t// out\n        /* \"#utility.yul\":5477:5788   */\n    tag_204:\n        /* \"#utility.yul\":5554:5558   */\n      0x00\n        /* \"#utility.yul\":5644:5662   */\n      0xffffffffffffffff\n        /* \"#utility.yul\":5636:5642   */\n      dup3\n        /* \"#utility.yul\":5633:5663   */\n      gt\n        /* \"#utility.yul\":5630:5686   */\n      iszero\n      tag_283\n      jumpi\n        /* \"#utility.yul\":5666:5684   */\n      tag_284\n      tag_201\n      jump\t// in\n    tag_284:\n        /* \"#utility.yul\":5630:5686   */\n    tag_283:\n        /* \"#utility.yul\":5716:5720   */\n      0x20\n        /* \"#utility.yul\":5708:5714   */\n      dup3\n        /* \"#utility.yul\":5704:5721   */\n      mul\n        /* \"#utility.yul\":5696:5721   */\n      swap1\n      pop\n        /* \"#utility.yul\":5776:5780   */\n      0x20\n        /* \"#utility.yul\":5770:5774   */\n      dup2\n        /* \"#utility.yul\":5766:5781   */\n      add\n        /* \"#utility.yul\":5758:5781   */\n      swap1\n      pop\n        /* \"#utility.yul\":5477:5788   */\n      swap2\n      swap1\n      pop\n      jump\t// out\n        /* \"#utility.yul\":5794:5911   */\n    tag_205:\n        /* \"#utility.yul\":5903:5904   */\n      0x00\n        /* \"#utility.yul\":5900:5901   */\n      0x00\n        /* \"#utility.yul\":5893:5905   */\n      revert\n        /* \"#utility.yul\":5934:6644   */\n    tag_206:\n        /* \"#utility.yul\":6030:6035   */\n      0x00\n        /* \"#utility.yul\":6055:6136   */\n      tag_287\n        /* \"#utility.yul\":6071:6135   */\n      tag_288\n        /* \"#utility.yul\":6128:6134   */\n      dup5\n        /* \"#utility.yul\":6071:6135   */\n      tag_204\n      jump\t// in\n    tag_288:\n        /* \"#utility.yul\":6055:6136   */\n      tag_203\n      jump\t// in\n    tag_287:\n        /* \"#utility.yul\":6046:6136   */\n      swap1\n      pop\n        /* \"#utility.yul\":6156:6161   */\n      dup1\n        /* \"#utility.yul\":6185:6191   */\n      dup4\n        /* \"#utility.yul\":6178:6183   */\n      dup3\n        /* \"#utility.yul\":6171:6192   */\n      mstore\n        /* \"#utility.yul\":6219:6223   */\n      0x20\n        /* \"#utility.yul\":6212:6217   */\n      dup3\n        /* \"#utility.yul\":6208:6224   */\n      add\n        /* \"#utility.yul\":6201:6224   */\n      swap1\n      pop\n        /* \"#utility.yul\":6272:6276   */\n      0x20\n        /* \"#utility.yul\":6264:6270   */\n      dup5\n        /* \"#utility.yul\":6260:6277   */\n      mul\n        /* \"#utility.yul\":6252:6258   */\n      dup4\n        /* \"#utility.yul\":6248:6278   */\n      add\n        /* \"#utility.yul\":6301:6304   */\n      dup6\n        /* \"#utility.yul\":6293:6299   */\n      dup2\n        /* \"#utility.yul\":6290:6305   */\n      gt\n        /* \"#utility.yul\":6287:6409   */\n      iszero\n      tag_289\n      jumpi\n        /* \"#utility.yul\":6320:6399   */\n      tag_290\n      tag_205\n      jump\t// in\n    tag_290:\n        /* \"#utility.yul\":6287:6409   */\n    tag_289:\n        /* \"#utility.yul\":6435:6441   */\n      dup4\n        /* \"#utility.yul\":6418:6638   */\n    tag_291:\n        /* \"#utility.yul\":6452:6458   */\n      dup2\n        /* \"#utility.yul\":6447:6450   */\n      dup2\n        /* \"#utility.yul\":6444:6459   */\n      lt\n        /* \"#utility.yul\":6418:6638   */\n      iszero\n      tag_293\n      jumpi\n        /* \"#utility.yul\":6527:6530   */\n      dup1\n        /* \"#utility.yul\":6556:6593   */\n      tag_294\n        /* \"#utility.yul\":6589:6592   */\n      dup9\n        /* \"#utility.yul\":6577:6587   */\n      dup3\n        /* \"#utility.yul\":6556:6593   */\n      tag_191\n      jump\t// in\n    tag_294:\n        /* \"#utility.yul\":6551:6554   */\n      dup5\n        /* \"#utility.yul\":6544:6594   */\n      mstore\n        /* \"#utility.yul\":6623:6627   */\n      0x20\n        /* \"#utility.yul\":6618:6621   */\n      dup5\n        /* \"#utility.yul\":6614:6628   */\n      add\n        /* \"#utility.yul\":6607:6628   */\n      swap4\n      pop\n        /* \"#utility.yul\":6494:6638   */\n      pop\n        /* \"#utility.yul\":6478:6482   */\n      0x20\n        /* \"#utility.yul\":6473:6476   */\n      dup2\n        /* \"#utility.yul\":6469:6483   */\n      add\n        /* \"#utility.yul\":6462:6483   */\n      swap1\n      pop\n        /* \"#utility.yul\":6418:6638   */\n      jump(tag_291)\n    tag_293:\n        /* \"#utility.yul\":6422:6443   */\n      pop\n        /* \"#utility.yul\":6036:6644   */\n      pop\n      pop\n        /* \"#utility.yul\":5934:6644   */\n      swap4\n      swap3\n      pop\n      pop\n      pop\n      jump\t// out\n        /* \"#utility.yul\":6667:7037   */\n    tag_207:\n        /* \"#utility.yul\":6738:6743   */\n      0x00\n        /* \"#utility.yul\":6787:6790   */\n      dup3\n        /* \"#utility.yul\":6780:6784   */\n      0x1f\n        /* \"#utility.yul\":6772:6778   */\n      dup4\n        /* \"#utility.yul\":6768:6785   */\n      add\n        /* \"#utility.yul\":6764:6791   */\n      slt\n        /* \"#utility.yul\":6754:6876   */\n      tag_296\n      jumpi\n        /* \"#utility.yul\":6795:6874   */\n      tag_297\n      tag_200\n      jump\t// in\n    tag_297:\n        /* \"#utility.yul\":6754:6876   */\n    tag_296:\n        /* \"#utility.yul\":6912:6918   */\n      dup2\n        /* \"#utility.yul\":6899:6919   */\n      calldataload\n        /* \"#utility.yul\":6937:7031   */\n      tag_298\n        /* \"#utility.yul\":7027:7030   */\n      dup5\n        /* \"#utility.yul\":7019:7025   */\n      dup3\n        /* \"#utility.yul\":7012:7016   */\n      0x20\n        /* \"#utility.yul\":7004:7010   */\n      dup7\n        /* \"#utility.yul\":7000:7017   */\n      add\n        /* \"#utility.yul\":6937:7031   */\n      tag_206\n      jump\t// in\n    tag_298:\n        /* \"#utility.yul\":6928:7031   */\n      swap2\n      pop\n        /* \"#utility.yul\":6744:7037   */\n      pop\n        /* \"#utility.yul\":6667:7037   */\n      swap3\n      swap2\n      pop\n      pop\n      jump\t// out\n        /* \"#utility.yul\":7043:7354   */\n    tag_208:\n        /* \"#utility.yul\":7120:7124   */\n      0x00\n        /* \"#utility.yul\":7210:7228   */\n      0xffffffffffffffff\n        /* \"#utility.yul\":7202:7208   */\n      dup3\n        /* \"#utility.yul\":7199:7229   */\n      gt\n        /* \"#utility.yul\":7196:7252   */\n      iszero\n      tag_300\n      jumpi\n        /* \"#utility.yul\":7232:7250   */\n      tag_301\n      tag_201\n      jump\t// in\n    tag_301:\n        /* \"#utility.yul\":7196:7252   */\n    tag_300:\n        /* \"#utility.yul\":7282:7286   */\n      0x20\n        /* \"#utility.yul\":7274:7280   */\n      dup3\n        /* \"#utility.yul\":7270:7287   */\n      mul\n        /* \"#utility.yul\":7262:7287   */\n      swap1\n      pop\n        /* \"#utility.yul\":7342:7346   */\n      0x20\n        /* \"#utility.yul\":7336:7340   */\n      dup2\n        /* \"#utility.yul\":7332:7347   */\n      add\n        /* \"#utility.yul\":7324:7347   */\n      swap1\n      pop\n        /* \"#utility.yul\":7043:7354   */\n      swap2\n      swap1\n      pop\n      jump\t// out\n        /* \"#utility.yul\":7377:8087   */\n    tag_209:\n        /* \"#utility.yul\":7473:7478   */\n      0x00\n        /* \"#utility.yul\":7498:7579   */\n      tag_303\n        /* \"#utility.yul\":7514:7578   */\n      tag_304\n        /* \"#utility.yul\":7571:7577   */\n      dup5\n        /* \"#utility.yul\":7514:7578   */\n      tag_208\n      jump\t// in\n    tag_304:\n        /* \"#utility.yul\":7498:7579   */\n      tag_203\n      jump\t// in\n    tag_303:\n        /* \"#utility.yul\":7489:7579   */\n      swap1\n      pop\n        /* \"#utility.yul\":7599:7604   */\n      dup1\n        /* \"#utility.yul\":7628:7634   */\n      dup4\n        /* \"#utility.yul\":7621:7626   */\n      dup3\n        /* \"#utility.yul\":7614:7635   */\n      mstore\n        /* \"#utility.yul\":7662:7666   */\n      0x20\n        /* \"#utility.yul\":7655:7660   */\n      dup3\n        /* \"#utility.yul\":7651:7667   */\n      add\n        /* \"#utility.yul\":7644:7667   */\n      swap1\n      pop\n        /* \"#utility.yul\":7715:7719   */\n      0x20\n        /* \"#utility.yul\":7707:7713   */\n      dup5\n        /* \"#utility.yul\":7703:7720   */\n      mul\n        /* \"#utility.yul\":7695:7701   */\n      dup4\n        /* \"#utility.yul\":7691:7721   */\n      add\n        /* \"#utility.yul\":7744:7747   */\n      dup6\n        /* \"#utility.yul\":7736:7742   */\n      dup2\n        /* \"#utility.yul\":7733:7748   */\n      gt\n        /* \"#utility.yul\":7730:7852   */\n      iszero\n      tag_305\n      jumpi\n        /* \"#utility.yul\":7763:7842   */\n      tag_306\n      tag_205\n      jump\t// in\n    tag_306:\n        /* \"#utility.yul\":7730:7852   */\n    tag_305:\n        /* \"#utility.yul\":7878:7884   */\n      dup4\n        /* \"#utility.yul\":7861:8081   */\n    tag_307:\n        /* \"#utility.yul\":7895:7901   */\n      dup2\n        /* \"#utility.yul\":7890:7893   */\n      dup2\n        /* \"#utility.yul\":7887:7902   */\n      lt\n        /* \"#utility.yul\":7861:8081   */\n      iszero\n      tag_309\n      jumpi\n        /* \"#utility.yul\":7970:7973   */\n      dup1\n        /* \"#utility.yul\":7999:8036   */\n      tag_310\n        /* \"#utility.yul\":8032:8035   */\n      dup9\n        /* \"#utility.yul\":8020:8030   */\n      dup3\n        /* \"#utility.yul\":7999:8036   */\n      tag_194\n      jump\t// in\n    tag_310:\n        /* \"#utility.yul\":7994:7997   */\n      dup5\n        /* \"#utility.yul\":7987:8037   */\n      mstore\n        /* \"#utility.yul\":8066:8070   */\n      0x20\n        /* \"#utility.yul\":8061:8064   */\n      dup5\n        /* \"#utility.yul\":8057:8071   */\n      add\n        /* \"#utility.yul\":8050:8071   */\n      swap4\n      pop\n        /* \"#utility.yul\":7937:8081   */\n      pop\n        /* \"#utility.yul\":7921:7925   */\n      0x20\n        /* \"#utility.yul\":7916:7919   */\n      dup2\n        /* \"#utility.yul\":7912:7926   */\n      add\n        /* \"#utility.yul\":7905:7926   */\n      swap1\n      pop\n        /* \"#utility.yul\":7861:8081   */\n      jump(tag_307)\n    tag_309:\n        /* \"#utility.yul\":7865:7886   */\n      pop\n        /* \"#utility.yul\":7479:8087   */\n      pop\n      pop\n        /* \"#utility.yul\":7377:8087   */\n      swap4\n      swap3\n      pop\n      pop\n      pop\n      jump\t// out\n        /* \"#utility.yul\":8110:8480   */\n    tag_210:\n        /* \"#utility.yul\":8181:8186   */\n      0x00\n        /* \"#utility.yul\":8230:8233   */\n      dup3\n        /* \"#utility.yul\":8223:8227   */\n      0x1f\n        /* \"#utility.yul\":8215:8221   */\n      dup4\n        /* \"#utility.yul\":8211:8228   */\n      add\n        /* \"#utility.yul\":8207:8234   */\n      slt\n        /* \"#utility.yul\":8197:8319   */\n      tag_312\n      jumpi\n        /* \"#utility.yul\":8238:8317   */\n      tag_313\n      tag_200\n      jump\t// in\n    tag_313:\n        /* \"#utility.yul\":8197:8319   */\n    tag_312:\n        /* \"#utility.yul\":8355:8361   */\n      dup2\n        /* \"#utility.yul\":8342:8362   */\n      calldataload\n        /* \"#utility.yul\":8380:8474   */\n      tag_314\n        /* \"#utility.yul\":8470:8473   */\n      dup5\n        /* \"#utility.yul\":8462:8468   */\n      dup3\n        /* \"#utility.yul\":8455:8459   */\n      0x20\n        /* \"#utility.yul\":8447:8453   */\n      dup7\n        /* \"#utility.yul\":8443:8460   */\n      add\n        /* \"#utility.yul\":8380:8474   */\n      tag_209\n      jump\t// in\n    tag_314:\n        /* \"#utility.yul\":8371:8474   */\n      swap2\n      pop\n        /* \"#utility.yul\":8187:8480   */\n      pop\n        /* \"#utility.yul\":8110:8480   */\n      swap3\n      swap2\n      pop\n      pop\n      jump\t// out\n        /* \"#utility.yul\":8486:9380   */\n    tag_43:\n        /* \"#utility.yul\":8604:8610   */\n      0x00\n        /* \"#utility.yul\":8612:8618   */\n      0x00\n        /* \"#utility.yul\":8661:8663   */\n      0x40\n        /* \"#utility.yul\":8649:8658   */\n      dup4\n        /* \"#utility.yul\":8640:8647   */\n      dup6\n        /* \"#utility.yul\":8636:8659   */\n      sub\n        /* \"#utility.yul\":8632:8664   */\n      slt\n        /* \"#utility.yul\":8629:8748   */\n      iszero\n      tag_316\n      jumpi\n        /* \"#utility.yul\":8667:8746   */\n      tag_317\n      tag_186\n      jump\t// in\n    tag_317:\n        /* \"#utility.yul\":8629:8748   */\n    tag_316:\n        /* \"#utility.yul\":8815:8816   */\n      0x00\n        /* \"#utility.yul\":8804:8813   */\n      dup4\n        /* \"#utility.yul\":8800:8817   */\n      add\n        /* \"#utility.yul\":8787:8818   */\n      calldataload\n        /* \"#utility.yul\":8845:8863   */\n      0xffffffffffffffff\n        /* \"#utility.yul\":8837:8843   */\n      dup2\n        /* \"#utility.yul\":8834:8864   */\n      gt\n        /* \"#utility.yul\":8831:8948   */\n      iszero\n      tag_318\n      jumpi\n        /* \"#utility.yul\":8867:8946   */\n      tag_319\n      tag_187\n      jump\t// in\n    tag_319:\n        /* \"#utility.yul\":8831:8948   */\n    tag_318:\n        /* \"#utility.yul\":8972:9050   */\n      tag_320\n        /* \"#utility.yul\":9042:9049   */\n      dup6\n        /* \"#utility.yul\":9033:9039   */\n      dup3\n        /* \"#utility.yul\":9022:9031   */\n      dup7\n        /* \"#utility.yul\":9018:9040   */\n      add\n        /* \"#utility.yul\":8972:9050   */\n      tag_207\n      jump\t// in\n    tag_320:\n        /* \"#utility.yul\":8962:9050   */\n      swap3\n      pop\n        /* \"#utility.yul\":8758:9060   */\n      pop\n        /* \"#utility.yul\":9127:9129   */\n      0x20\n        /* \"#utility.yul\":9116:9125   */\n      dup4\n        /* \"#utility.yul\":9112:9130   */\n      add\n        /* \"#utility.yul\":9099:9131   */\n      calldataload\n        /* \"#utility.yul\":9158:9176   */\n      0xffffffffffffffff\n        /* \"#utility.yul\":9150:9156   */\n      dup2\n        /* \"#utility.yul\":9147:9177   */\n      gt\n        /* \"#utility.yul\":9144:9261   */\n      iszero\n      tag_321\n      jumpi\n        /* \"#utility.yul\":9180:9259   */\n      tag_322\n      tag_187\n      jump\t// in\n    tag_322:\n        /* \"#utility.yul\":9144:9261   */\n    tag_321:\n        /* \"#utility.yul\":9285:9363   */\n      tag_323\n        /* \"#utility.yul\":9355:9362   */\n      dup6\n        /* \"#utility.yul\":9346:9352   */\n      dup3\n        /* \"#utility.yul\":9335:9344   */\n      dup7\n        /* \"#utility.yul\":9331:9353   */\n      add\n        /* \"#utility.yul\":9285:9363   */\n      tag_210\n      jump\t// in\n    tag_323:\n        /* \"#utility.yul\":9275:9363   */\n      swap2\n      pop\n        /* \"#utility.yul\":9070:9373   */\n      pop\n        /* \"#utility.yul\":8486:9380   */\n      swap3\n      pop\n      swap3\n      swap1\n      pop\n      jump\t// out\n        /* \"#utility.yul\":9386:9715   */\n    tag_47:\n        /* \"#utility.yul\":9445:9451   */\n      0x00\n        /* \"#utility.yul\":9494:9496   */\n      0x20\n        /* \"#utility.yul\":9482:9491   */\n      dup3\n        /* \"#utility.yul\":9473:9480   */\n      dup5\n        /* \"#utility.yul\":9469:9492   */\n      sub\n        /* \"#utility.yul\":9465:9497   */\n      slt\n        /* \"#utility.yul\":9462:9581   */\n      iszero\n      tag_325\n      jumpi\n        /* \"#utility.yul\":9500:9579   */\n      tag_326\n      tag_186\n      jump\t// in\n    tag_326:\n        /* \"#utility.yul\":9462:9581   */\n    tag_325:\n        /* \"#utility.yul\":9620:9621   */\n      0x00\n        /* \"#utility.yul\":9645:9698   */\n      tag_327\n        /* \"#utility.yul\":9690:9697   */\n      dup5\n        /* \"#utility.yul\":9681:9687   */\n      dup3\n        /* \"#utility.yul\":9670:9679   */\n      dup6\n        /* \"#utility.yul\":9666:9688   */\n      add\n        /* \"#utility.yul\":9645:9698   */\n      tag_191\n      jump\t// in\n    tag_327:\n        /* \"#utility.yul\":9635:9698   */\n      swap2\n      pop\n        /* \"#utility.yul\":9591:9708   */\n      pop\n        /* \"#utility.yul\":9386:9715   */\n      swap3\n      swap2\n      pop\n      pop\n      jump\t// out\n        /* \"#utility.yul\":9721:9839   */\n    tag_211:\n        /* \"#utility.yul\":9808:9832   */\n      tag_329\n        /* \"#utility.yul\":9826:9831   */\n      dup2\n        /* \"#utility.yul\":9808:9832   */\n      tag_189\n      jump\t// in\n    tag_329:\n        /* \"#utility.yul\":9803:9806   */\n      dup3\n        /* \"#utility.yul\":9796:9833   */\n      mstore\n        /* \"#utility.yul\":9721:9839   */\n      pop\n      pop\n      jump\t// out\n        /* \"#utility.yul\":9845:10067   */\n    tag_55:\n        /* \"#utility.yul\":9938:9942   */\n      0x00\n        /* \"#utility.yul\":9976:9978   */\n      0x20\n        /* \"#utility.yul\":9965:9974   */\n      dup3\n        /* \"#utility.yul\":9961:9979   */\n      add\n        /* \"#utility.yul\":9953:9979   */\n      swap1\n      pop\n        /* \"#utility.yul\":9989:10060   */\n      tag_331\n        /* \"#utility.yul\":10057:10058   */\n      0x00\n        /* \"#utility.yul\":10046:10055   */\n      dup4\n        /* \"#utility.yul\":10042:10059   */\n      add\n        /* \"#utility.yul\":10033:10039   */\n      dup5\n        /* \"#utility.yul\":9989:10060   */\n      tag_211\n      jump\t// in\n    tag_331:\n        /* \"#utility.yul\":9845:10067   */\n      swap3\n      swap2\n      pop\n      pop\n      jump\t// out\n        /* \"#utility.yul\":10073:10547   */\n    tag_65:\n        /* \"#utility.yul\":10141:10147   */\n      0x00\n        /* \"#utility.yul\":10149:10155   */\n      0x00\n        /* \"#utility.yul\":10198:10200   */\n      0x40\n        /* \"#utility.yul\":10186:10195   */\n      dup4\n        /* \"#utility.yul\":10177:10184   */\n      dup6\n        /* \"#utility.yul\":10173:10196   */\n      sub\n        /* \"#utility.yul\":10169:10201   */\n      slt\n        /* \"#utility.yul\":10166:10285   */\n      iszero\n      tag_333\n      jumpi\n        /* \"#utility.yul\":10204:10283   */\n      tag_334\n      tag_186\n      jump\t// in\n    tag_334:\n        /* \"#utility.yul\":10166:10285   */\n    tag_333:\n        /* \"#utility.yul\":10324:10325   */\n      0x00\n        /* \"#utility.yul\":10349:10402   */\n      tag_335\n        /* \"#utility.yul\":10394:10401   */\n      dup6\n        /* \"#utility.yul\":10385:10391   */\n      dup3\n        /* \"#utility.yul\":10374:10383   */\n      dup7\n        /* \"#utility.yul\":10370:10392   */\n      add\n        /* \"#utility.yul\":10349:10402   */\n      tag_191\n      jump\t// in\n    tag_335:\n        /* \"#utility.yul\":10339:10402   */\n      swap3\n      pop\n        /* \"#utility.yul\":10295:10412   */\n      pop\n        /* \"#utility.yul\":10451:10453   */\n      0x20\n        /* \"#utility.yul\":10477:10530   */\n      tag_336\n        /* \"#utility.yul\":10522:10529   */\n      dup6\n        /* \"#utility.yul\":10513:10519   */\n      dup3\n        /* \"#utility.yul\":10502:10511   */\n      dup7\n        /* \"#utility.yul\":10498:10520   */\n      add\n        /* \"#utility.yul\":10477:10530   */\n      tag_191\n      jump\t// in\n    tag_336:\n        /* \"#utility.yul\":10467:10530   */\n      swap2\n      pop\n        /* \"#utility.yul\":10422:10540   */\n      pop\n        /* \"#utility.yul\":10073:10547   */\n      swap3\n      pop\n      swap3\n      swap1\n      pop\n      jump\t// out\n        /* \"#utility.yul\":10553:10733   */\n    tag_212:\n        /* \"#utility.yul\":10601:10678   */\n      0x4e487b7100000000000000000000000000000000000000000000000000000000\n        /* \"#utility.yul\":10598:10599   */\n      0x00\n        /* \"#utility.yul\":10591:10679   */\n      mstore\n        /* \"#utility.yul\":10698:10702   */\n      0x22\n        /* \"#utility.yul\":10695:10696   */\n      0x04\n        /* \"#utility.yul\":10688:10703   */\n      mstore\n        /* \"#utility.yul\":10722:10726   */\n      0x24\n        /* \"#utility.yul\":10719:10720   */\n      0x00\n        /* \"#utility.yul\":10712:10727   */\n      revert\n        /* \"#utility.yul\":10739:11059   */\n    tag_73:\n        /* \"#utility.yul\":10783:10789   */\n      0x00\n        /* \"#utility.yul\":10820:10821   */\n      0x02\n        /* \"#utility.yul\":10814:10818   */\n      dup3\n        /* \"#utility.yul\":10810:10822   */\n      div\n        /* \"#utility.yul\":10800:10822   */\n      swap1\n      pop\n        /* \"#utility.yul\":10867:10868   */\n      0x01\n        /* \"#utility.yul\":10861:10865   */\n      dup3\n        /* \"#utility.yul\":10857:10869   */\n      and\n        /* \"#utility.yul\":10888:10906   */\n      dup1\n        /* \"#utility.yul\":10878:10959   */\n      tag_339\n      jumpi\n        /* \"#utility.yul\":10944:10948   */\n      0x7f\n        /* \"#utility.yul\":10936:10942   */\n      dup3\n        /* \"#utility.yul\":10932:10949   */\n      and\n        /* \"#utility.yul\":10922:10949   */\n      swap2\n      pop\n        /* \"#utility.yul\":10878:10959   */\n    tag_339:\n        /* \"#utility.yul\":11006:11008   */\n      0x20\n        /* \"#utility.yul\":10998:11004   */\n      dup3\n        /* \"#utility.yul\":10995:11009   */\n      lt\n        /* \"#utility.yul\":10975:10993   */\n      dup2\n        /* \"#utility.yul\":10972:11010   */\n      sub\n        /* \"#utility.yul\":10969:11053   */\n      tag_340\n      jumpi\n        /* \"#utility.yul\":11025:11043   */\n      tag_341\n      tag_212\n      jump\t// in\n    tag_341:\n        /* \"#utility.yul\":10969:11053   */\n    tag_340:\n        /* \"#utility.yul\":10790:11059   */\n      pop\n        /* \"#utility.yul\":10739:11059   */\n      swap2\n      swap1\n      pop\n      jump\t// out\n        /* \"#utility.yul\":11065:11290   */\n    tag_213:\n        /* \"#utility.yul\":11205:11239   */\n      0x526563697069656e747320616e6420616d6f756e7473206c656e677468206d69\n        /* \"#utility.yul\":11201:11202   */\n      0x00\n        /* \"#utility.yul\":11193:11199   */\n      dup3\n        /* \"#utility.yul\":11189:11203   */\n      add\n        /* \"#utility.yul\":11182:11240   */\n      mstore\n        /* \"#utility.yul\":11274:11282   */\n      0x736d617463680000000000000000000000000000000000000000000000000000\n        /* \"#utility.yul\":11269:11271   */\n      0x20\n        /* \"#utility.yul\":11261:11267   */\n      dup3\n        /* \"#utility.yul\":11257:11272   */\n      add\n        /* \"#utility.yul\":11250:11283   */\n      mstore\n        /* \"#utility.yul\":11065:11290   */\n      pop\n      jump\t// out\n        /* \"#utility.yul\":11296:11662   */\n    tag_214:\n        /* \"#utility.yul\":11438:11441   */\n      0x00\n        /* \"#utility.yul\":11459:11526   */\n      tag_344\n        /* \"#utility.yul\":11523:11525   */\n      0x26\n        /* \"#utility.yul\":11518:11521   */\n      dup4\n        /* \"#utility.yul\":11459:11526   */\n      tag_181\n      jump\t// in\n    tag_344:\n        /* \"#utility.yul\":11452:11526   */\n      swap2\n      pop\n        /* \"#utility.yul\":11535:11628   */\n      tag_345\n        /* \"#utility.yul\":11624:11627   */\n      dup3\n        /* \"#utility.yul\":11535:11628   */\n      tag_213\n      jump\t// in\n    tag_345:\n        /* \"#utility.yul\":11653:11655   */\n      0x40\n        /* \"#utility.yul\":11648:11651   */\n      dup3\n        /* \"#utility.yul\":11644:11656   */\n      add\n        /* \"#utility.yul\":11637:11656   */\n      swap1\n      pop\n        /* \"#utility.yul\":11296:11662   */\n      swap2\n      swap1\n      pop\n      jump\t// out\n        /* \"#utility.yul\":11668:12087   */\n    tag_97:\n        /* \"#utility.yul\":11834:11838   */\n      0x00\n        /* \"#utility.yul\":11872:11874   */\n      0x20\n        /* \"#utility.yul\":11861:11870   */\n      dup3\n        /* \"#utility.yul\":11857:11875   */\n      add\n        /* \"#utility.yul\":11849:11875   */\n      swap1\n      pop\n        /* \"#utility.yul\":11921:11930   */\n      dup2\n        /* \"#utility.yul\":11915:11919   */\n      dup2\n        /* \"#utility.yul\":11911:11931   */\n      sub\n        /* \"#utility.yul\":11907:11908   */\n      0x00\n        /* \"#utility.yul\":11896:11905   */\n      dup4\n        /* \"#utility.yul\":11892:11909   */\n      add\n        /* \"#utility.yul\":11885:11932   */\n      mstore\n        /* \"#utility.yul\":11949:12080   */\n      tag_347\n        /* \"#utility.yul\":12075:12079   */\n      dup2\n        /* \"#utility.yul\":11949:12080   */\n      tag_214\n      jump\t// in\n    tag_347:\n        /* \"#utility.yul\":11941:12080   */\n      swap1\n      pop\n        /* \"#utility.yul\":11668:12087   */\n      swap2\n      swap1\n      pop\n      jump\t// out\n        /* \"#utility.yul\":12093:12273   */\n    tag_104:\n        /* \"#utility.yul\":12141:12218   */\n      0x4e487b7100000000000000000000000000000000000000000000000000000000\n        /* \"#utility.yul\":12138:12139   */\n      0x00\n        /* \"#utility.yul\":12131:12219   */\n      mstore\n        /* \"#utility.yul\":12238:12242   */\n      0x32\n        /* \"#utility.yul\":12235:12236   */\n      0x04\n        /* \"#utility.yul\":12228:12243   */\n      mstore\n        /* \"#utility.yul\":12262:12266   */\n      0x24\n        /* \"#utility.yul\":12259:12260   */\n      0x00\n        /* \"#utility.yul\":12252:12267   */\n      revert\n        /* \"#utility.yul\":12279:12459   */\n    tag_215:\n        /* \"#utility.yul\":12327:12404   */\n      0x4e487b7100000000000000000000000000000000000000000000000000000000\n        /* \"#utility.yul\":12324:12325   */\n      0x00\n        /* \"#utility.yul\":12317:12405   */\n      mstore\n        /* \"#utility.yul\":12424:12428   */\n      0x11\n        /* \"#utility.yul\":12421:12422   */\n      0x04\n        /* \"#utility.yul\":12414:12429   */\n      mstore\n        /* \"#utility.yul\":12448:12452   */\n      0x24\n        /* \"#utility.yul\":12445:12446   */\n      0x00\n        /* \"#utility.yul\":12438:12453   */\n      revert\n        /* \"#utility.yul\":12465:12567   */\n    tag_216:\n        /* \"#utility.yul\":12507:12515   */\n      0x00\n        /* \"#utility.yul\":12554:12559   */\n      dup2\n        /* \"#utility.yul\":12551:12552   */\n      0x01\n        /* \"#utility.yul\":12547:12560   */\n      shr\n        /* \"#utility.yul\":12526:12560   */\n      swap1\n      pop\n        /* \"#utility.yul\":12465:12567   */\n      swap2\n      swap1\n      pop\n      jump\t// out\n        /* \"#utility.yul\":12573:13421   */\n    tag_217:\n        /* \"#utility.yul\":12634:12639   */\n      0x00\n        /* \"#utility.yul\":12641:12645   */\n      0x00\n        /* \"#utility.yul\":12665:12671   */\n      dup3\n        /* \"#utility.yul\":12656:12671   */\n      swap2\n      pop\n        /* \"#utility.yul\":12689:12694   */\n      dup4\n        /* \"#utility.yul\":12680:12694   */\n      swap1\n      pop\n        /* \"#utility.yul\":12703:13415   */\n    tag_352:\n        /* \"#utility.yul\":12724:12725   */\n      0x01\n        /* \"#utility.yul\":12714:12722   */\n      dup6\n        /* \"#utility.yul\":12711:12726   */\n      gt\n        /* \"#utility.yul\":12703:13415   */\n      iszero\n      tag_354\n      jumpi\n        /* \"#utility.yul\":12819:12823   */\n      dup1\n        /* \"#utility.yul\":12814:12817   */\n      dup7\n        /* \"#utility.yul\":12810:12824   */\n      div\n        /* \"#utility.yul\":12804:12808   */\n      dup2\n        /* \"#utility.yul\":12801:12825   */\n      gt\n        /* \"#utility.yul\":12798:12848   */\n      iszero\n      tag_355\n      jumpi\n        /* \"#utility.yul\":12828:12846   */\n      tag_356\n      tag_215\n      jump\t// in\n    tag_356:\n        /* \"#utility.yul\":12798:12848   */\n    tag_355:\n        /* \"#utility.yul\":12878:12879   */\n      0x01\n        /* \"#utility.yul\":12868:12876   */\n      dup6\n        /* \"#utility.yul\":12864:12880   */\n      and\n        /* \"#utility.yul\":12861:13312   */\n      iszero\n      tag_357\n      jumpi\n        /* \"#utility.yul\":13293:13297   */\n      dup1\n        /* \"#utility.yul\":13286:13291   */\n      dup3\n        /* \"#utility.yul\":13282:13298   */\n      mul\n        /* \"#utility.yul\":13273:13298   */\n      swap2\n      pop\n        /* \"#utility.yul\":12861:13312   */\n    tag_357:\n        /* \"#utility.yul\":13343:13347   */\n      dup1\n        /* \"#utility.yul\":13337:13341   */\n      dup2\n        /* \"#utility.yul\":13333:13348   */\n      mul\n        /* \"#utility.yul\":13325:13348   */\n      swap1\n      pop\n        /* \"#utility.yul\":13373:13405   */\n      tag_358\n        /* \"#utility.yul\":13396:13404   */\n      dup6\n        /* \"#utility.yul\":13373:13405   */\n      tag_216\n      jump\t// in\n    tag_358:\n        /* \"#utility.yul\":13361:13405   */\n      swap5\n      pop\n        /* \"#utility.yul\":12703:13415   */\n      jump(tag_352)\n    tag_354:\n        /* \"#utility.yul\":12573:13421   */\n      swap5\n      pop\n      swap5\n      swap3\n      pop\n      pop\n      pop\n      jump\t// out\n        /* \"#utility.yul\":13427:14500   */\n    tag_218:\n        /* \"#utility.yul\":13481:13486   */\n      0x00\n        /* \"#utility.yul\":13672:13680   */\n      dup3\n        /* \"#utility.yul\":13662:13702   */\n      tag_360\n      jumpi\n        /* \"#utility.yul\":13693:13694   */\n      0x01\n        /* \"#utility.yul\":13684:13694   */\n      swap1\n      pop\n        /* \"#utility.yul\":13695:13700   */\n      jump(tag_359)\n        /* \"#utility.yul\":13662:13702   */\n    tag_360:\n        /* \"#utility.yul\":13721:13725   */\n      dup2\n        /* \"#utility.yul\":13711:13747   */\n      tag_361\n      jumpi\n        /* \"#utility.yul\":13738:13739   */\n      0x00\n        /* \"#utility.yul\":13729:13739   */\n      swap1\n      pop\n        /* \"#utility.yul\":13740:13745   */\n      jump(tag_359)\n        /* \"#utility.yul\":13711:13747   */\n    tag_361:\n        /* \"#utility.yul\":13807:13811   */\n      dup2\n        /* \"#utility.yul\":13855:13856   */\n      0x01\n        /* \"#utility.yul\":13850:13877   */\n      dup2\n      eq\n      tag_363\n      jumpi\n        /* \"#utility.yul\":13891:13892   */\n      0x02\n        /* \"#utility.yul\":13886:14077   */\n      dup2\n      eq\n      tag_364\n      jumpi\n        /* \"#utility.yul\":13800:14077   */\n      jump(tag_362)\n        /* \"#utility.yul\":13850:13877   */\n    tag_363:\n        /* \"#utility.yul\":13868:13869   */\n      0x01\n        /* \"#utility.yul\":13859:13869   */\n      swap2\n      pop\n        /* \"#utility.yul\":13870:13875   */\n      pop\n      jump(tag_359)\n        /* \"#utility.yul\":13886:14077   */\n    tag_364:\n        /* \"#utility.yul\":13931:13934   */\n      0xff\n        /* \"#utility.yul\":13921:13929   */\n      dup5\n        /* \"#utility.yul\":13918:13935   */\n      gt\n        /* \"#utility.yul\":13915:13958   */\n      iszero\n      tag_365\n      jumpi\n        /* \"#utility.yul\":13938:13956   */\n      tag_366\n      tag_215\n      jump\t// in\n    tag_366:\n        /* \"#utility.yul\":13915:13958   */\n    tag_365:\n        /* \"#utility.yul\":13987:13995   */\n      dup4\n        /* \"#utility.yul\":13984:13985   */\n      0x02\n        /* \"#utility.yul\":13980:13996   */\n      exp\n        /* \"#utility.yul\":13971:13996   */\n      swap2\n      pop\n        /* \"#utility.yul\":14022:14025   */\n      dup5\n        /* \"#utility.yul\":14015:14020   */\n      dup3\n        /* \"#utility.yul\":14012:14026   */\n      gt\n        /* \"#utility.yul\":14009:14049   */\n      iszero\n      tag_367\n      jumpi\n        /* \"#utility.yul\":14029:14047   */\n      tag_368\n      tag_215\n      jump\t// in\n    tag_368:\n        /* \"#utility.yul\":14009:14049   */\n    tag_367:\n        /* \"#utility.yul\":14062:14067   */\n      pop\n      jump(tag_359)\n        /* \"#utility.yul\":13800:14077   */\n    tag_362:\n      pop\n        /* \"#utility.yul\":14186:14188   */\n      0x20\n        /* \"#utility.yul\":14176:14184   */\n      dup4\n        /* \"#utility.yul\":14173:14189   */\n      lt\n        /* \"#utility.yul\":14167:14170   */\n      0x0133\n        /* \"#utility.yul\":14161:14165   */\n      dup4\n        /* \"#utility.yul\":14158:14171   */\n      lt\n        /* \"#utility.yul\":14154:14190   */\n      and\n        /* \"#utility.yul\":14136:14138   */\n      0x4e\n        /* \"#utility.yul\":14126:14134   */\n      dup5\n        /* \"#utility.yul\":14123:14139   */\n      lt\n        /* \"#utility.yul\":14118:14120   */\n      0x0b\n        /* \"#utility.yul\":14112:14116   */\n      dup5\n        /* \"#utility.yul\":14109:14121   */\n      lt\n        /* \"#utility.yul\":14105:14140   */\n      and\n        /* \"#utility.yul\":14089:14200   */\n      or\n        /* \"#utility.yul\":14086:14332   */\n      iszero\n      tag_369\n      jumpi\n        /* \"#utility.yul\":14242:14250   */\n      dup3\n        /* \"#utility.yul\":14236:14240   */\n      dup3\n        /* \"#utility.yul\":14232:14251   */\n      exp\n        /* \"#utility.yul\":14223:14251   */\n      swap1\n      pop\n        /* \"#utility.yul\":14277:14280   */\n      dup4\n        /* \"#utility.yul\":14270:14275   */\n      dup2\n        /* \"#utility.yul\":14267:14281   */\n      gt\n        /* \"#utility.yul\":14264:14304   */\n      iszero\n      tag_370\n      jumpi\n        /* \"#utility.yul\":14284:14302   */\n      tag_371\n      tag_215\n      jump\t// in\n    tag_371:\n        /* \"#utility.yul\":14264:14304   */\n    tag_370:\n        /* \"#utility.yul\":14317:14322   */\n      jump(tag_359)\n        /* \"#utility.yul\":14086:14332   */\n    tag_369:\n        /* \"#utility.yul\":14357:14399   */\n      tag_372\n        /* \"#utility.yul\":14395:14398   */\n      dup5\n        /* \"#utility.yul\":14385:14393   */\n      dup5\n        /* \"#utility.yul\":14379:14383   */\n      dup5\n        /* \"#utility.yul\":14376:14377   */\n      0x01\n        /* \"#utility.yul\":14357:14399   */\n      tag_217\n      jump\t// in\n    tag_372:\n        /* \"#utility.yul\":14342:14399   */\n      swap3\n      pop\n      swap1\n      pop\n        /* \"#utility.yul\":14431:14435   */\n      dup2\n        /* \"#utility.yul\":14426:14429   */\n      dup5\n        /* \"#utility.yul\":14422:14436   */\n      div\n        /* \"#utility.yul\":14415:14420   */\n      dup2\n        /* \"#utility.yul\":14412:14437   */\n      gt\n        /* \"#utility.yul\":14409:14460   */\n      iszero\n      tag_373\n      jumpi\n        /* \"#utility.yul\":14440:14458   */\n      tag_374\n      tag_215\n      jump\t// in\n    tag_374:\n        /* \"#utility.yul\":14409:14460   */\n    tag_373:\n        /* \"#utility.yul\":14489:14493   */\n      dup2\n        /* \"#utility.yul\":14482:14487   */\n      dup2\n        /* \"#utility.yul\":14478:14494   */\n      mul\n        /* \"#utility.yul\":14469:14494   */\n      swap1\n      pop\n        /* \"#utility.yul\":13427:14500   */\n    tag_359:\n      swap4\n      swap3\n      pop\n      pop\n      pop\n      jump\t// out\n        /* \"#utility.yul\":14506:14787   */\n    tag_107:\n        /* \"#utility.yul\":14564:14569   */\n      0x00\n        /* \"#utility.yul\":14588:14611   */\n      tag_376\n        /* \"#utility.yul\":14606:14610   */\n      dup3\n        /* \"#utility.yul\":14588:14611   */\n      tag_192\n      jump\t// in\n    tag_376:\n        /* \"#utility.yul\":14580:14611   */\n      swap2\n      pop\n        /* \"#utility.yul\":14632:14657   */\n      tag_377\n        /* \"#utility.yul\":14648:14656   */\n      dup4\n        /* \"#utility.yul\":14632:14657   */\n      tag_198\n      jump\t// in\n    tag_377:\n        /* \"#utility.yul\":14620:14657   */\n      swap3\n      pop\n        /* \"#utility.yul\":14676:14780   */\n      tag_378\n        /* \"#utility.yul\":14713:14779   */\n      0xffffffffffffffffffffffffffffffffffffffffffffffffffffffffffffffff\n        /* \"#utility.yul\":14703:14711   */\n      dup5\n        /* \"#utility.yul\":14697:14701   */\n      dup5\n        /* \"#utility.yul\":14676:14780   */\n      tag_218\n      jump\t// in\n    tag_378:\n        /* \"#utility.yul\":14667:14780   */\n      swap1\n      pop\n        /* \"#utility.yul\":14506:14787   */\n      swap3\n      swap2\n      pop\n      pop\n      jump\t// out\n        /* \"#utility.yul\":14793:15203   */\n    tag_111:\n        /* \"#utility.yul\":14833:14840   */\n      0x00\n        /* \"#utility.yul\":14856:14876   */\n      tag_380\n        /* \"#utility.yul\":14874:14875   */\n      dup3\n        /* \"#utility.yul\":14856:14876   */\n      tag_192\n      jump\t// in\n    tag_380:\n        /* \"#utility.yul\":14851:14876   */\n      swap2\n      pop\n        /* \"#utility.yul\":14890:14910   */\n      tag_381\n        /* \"#utility.yul\":14908:14909   */\n      dup4\n        /* \"#utility.yul\":14890:14910   */\n      tag_192\n      jump\t// in\n    tag_381:\n        /* \"#utility.yul\":14885:14910   */\n      swap3\n      pop\n        /* \"#utility.yul\":14945:14946   */\n      dup3\n        /* \"#utility.yul\":14942:14943   */\n      dup3\n        /* \"#utility.yul\":14938:14947   */\n      mul\n        /* \"#utility.yul\":14967:14997   */\n      tag_382\n        /* \"#utility.yul\":14985:14996   */\n      dup2\n        /* \"#utility.yul\":14967:14997   */\n      tag_192\n      jump\t// in\n    tag_382:\n        /* \"#utility.yul\":14956:14997   */\n      swap2\n      pop\n        /* \"#utility.yul\":15146:15147   */\n      dup3\n        /* \"#utility.yul\":15137:15144   */\n      dup3\n        /* \"#utility.yul\":15133:15148   */\n      div\n        /* \"#utility.yul\":15130:15131   */\n      dup5\n        /* \"#utility.yul\":15127:15149   */\n      eq\n        /* \"#utility.yul\":15107:15108   */\n      dup4\n        /* \"#utility.yul\":15100:15109   */\n      iszero\n        /* \"#utility.yul\":15080:15163   */\n      or\n        /* \"#utility.yul\":15057:15196   */\n      tag_383\n      jumpi\n        /* \"#utility.yul\":15176:15194   */\n      tag_384\n      tag_215\n      jump\t// in\n    tag_384:\n        /* \"#utility.yul\":15057:15196   */\n    tag_383:\n        /* \"#utility.yul\":14841:15203   */\n      pop\n        /* \"#utility.yul\":14793:15203   */\n      swap3\n      swap2\n      pop\n      pop\n      jump\t// out\n        /* \"#utility.yul\":15209:15651   */\n    tag_146:\n        /* \"#utility.yul\":15358:15362   */\n      0x00\n        /* \"#utility.yul\":15396:15398   */\n      0x60\n        /* \"#utility.yul\":15385:15394   */\n      dup3\n        /* \"#utility.yul\":15381:15399   */\n      add\n        /* \"#utility.yul\":15373:15399   */\n      swap1\n      pop\n        /* \"#utility.yul\":15409:15480   */\n      tag_386\n        /* \"#utility.yul\":15477:15478   */\n      0x00\n        /* \"#utility.yul\":15466:15475   */\n      dup4\n        /* \"#utility.yul\":15462:15479   */\n      add\n        /* \"#utility.yul\":15453:15459   */\n      dup7\n        /* \"#utility.yul\":15409:15480   */\n      tag_211\n      jump\t// in\n    tag_386:\n        /* \"#utility.yul\":15490:15562   */\n      tag_387\n        /* \"#utility.yul\":15558:15560   */\n      0x20\n        /* \"#utility.yul\":15547:15556   */\n      dup4\n        /* \"#utility.yul\":15543:15561   */\n      add\n        /* \"#utility.yul\":15534:15540   */\n      dup6\n        /* \"#utility.yul\":15490:15562   */\n      tag_197\n      jump\t// in\n    tag_387:\n        /* \"#utility.yul\":15572:15644   */\n      tag_388\n        /* \"#utility.yul\":15640:15642   */\n      0x40\n        /* \"#utility.yul\":15629:15638   */\n      dup4\n        /* \"#utility.yul\":15625:15643   */\n      add\n        /* \"#utility.yul\":15616:15622   */\n      dup5\n        /* \"#utility.yul\":15572:15644   */\n      tag_197\n      jump\t// in\n    tag_388:\n        /* \"#utility.yul\":15209:15651   */\n      swap5\n      swap4\n      pop\n      pop\n      pop\n      pop\n      jump\t// out\n        /* \"#utility.yul\":15657:15848   */\n    tag_173:\n        /* \"#utility.yul\":15697:15700   */\n      0x00\n        /* \"#utility.yul\":15716:15736   */\n      tag_390\n        /* \"#utility.yul\":15734:15735   */\n      dup3\n        /* \"#utility.yul\":15716:15736   */\n      tag_192\n      jump\t// in\n    tag_390:\n        /* \"#utility.yul\":15711:15736   */\n      swap2\n      pop\n        /* \"#utility.yul\":15750:15770   */\n      tag_391\n        /* \"#utility.yul\":15768:15769   */\n      dup4\n        /* \"#utility.yul\":15750:15770   */\n      tag_192\n      jump\t// in\n    tag_391:\n        /* \"#utility.yul\":15745:15770   */\n      swap3\n      pop\n        /* \"#utility.yul\":15793:15794   */\n      dup3\n        /* \"#utility.yul\":15790:15791   */\n      dup3\n        /* \"#utility.yul\":15786:15795   */\n      add\n        /* \"#utility.yul\":15779:15795   */\n      swap1\n      pop\n        /* \"#utility.yul\":15814:15817   */\n      dup1\n        /* \"#utility.yul\":15811:15812   */\n      dup3\n        /* \"#utility.yul\":15808:15818   */\n      gt\n        /* \"#utility.yul\":15805:15841   */\n      iszero\n      tag_392\n      jumpi\n        /* \"#utility.yul\":15821:15839   */\n      tag_393\n      tag_215\n      jump\t// in\n    tag_393:\n        /* \"#utility.yul\":15805:15841   */\n    tag_392:\n        /* \"#utility.yul\":15657:15848   */\n      swap3\n      swap2\n      pop\n      pop\n      jump\t// out\n\n    auxdata: 0xa264697066735822122027c86f1d8803cee99137115c7f42d9c04ee0eaf1c8928fe7c7a2547bd7cdd68664736f6c634300081e0033\n}\n",
				"bytecode": {
					"linkReferences": {},
					"object": "608060405234801561000f575f5ffd5b5060405161268138038061268183398181016040528101906100319190610959565b336040518060400160405280600981526020017f54657374205553444300000000000000000000000000000000000000000000008152506040518060400160405280600481526020017f555344430000000000000000000000000000000000000000000000000000000081525081600390816100ad9190610bd6565b5080600490816100bd9190610bd6565b5050505f73ffffffffffffffffffffffffffffffffffffffff168173ffffffffffffffffffffffffffffffffffffffff1603610130575f6040517f1e4fbdf70000000000000000000000000000000000000000000000000000000081526004016101279190610cb4565b60405180910390fd5b61013f8161024c60201b60201c565b508051825114610184576040517f08c379a000000000000000000000000000000000000000000000000000000000815260040161017b90610d4d565b60405180910390fd5b5f61019361030f60201b60201c565b600a61019f9190610ed3565b62030d406101ad9190610f1d565b90506101bf308261031760201b60201c565b5f5f90505b835181101561024357610236308583815181106101e4576101e3610f5e565b5b60200260200101516101fa61030f60201b60201c565b600a6102069190610ed3565b86858151811061021957610218610f5e565b5b602002602001015161022b9190610f1d565b61039c60201b60201c565b80806001019150506101c4565b5050505061101b565b5f60055f9054906101000a900473ffffffffffffffffffffffffffffffffffffffff1690508160055f6101000a81548173ffffffffffffffffffffffffffffffffffffffff021916908373ffffffffffffffffffffffffffffffffffffffff1602179055508173ffffffffffffffffffffffffffffffffffffffff168173ffffffffffffffffffffffffffffffffffffffff167f8be0079c531659141344cd1fd0a4f28419497f9722a3daafe3b4186f6b6457e060405160405180910390a35050565b5f6012905090565b5f73ffffffffffffffffffffffffffffffffffffffff168273ffffffffffffffffffffffffffffffffffffffff1603610387575f6040517fec442f0500000000000000000000000000000000000000000000000000000000815260040161037e9190610cb4565b60405180910390fd5b6103985f838361049260201b60201c565b5050565b5f73ffffffffffffffffffffffffffffffffffffffff168373ffffffffffffffffffffffffffffffffffffffff160361040c575f6040517f96c6fd1e0000000000000000000000000000000000000000000000000000000081526004016104039190610cb4565b60405180910390fd5b5f73ffffffffffffffffffffffffffffffffffffffff168273ffffffffffffffffffffffffffffffffffffffff160361047c575f6040517fec442f050000000000000000000000000000000000000000000000000000000081526004016104739190610cb4565b60405180910390fd5b61048d83838361049260201b60201c565b505050565b5f73ffffffffffffffffffffffffffffffffffffffff168373ffffffffffffffffffffffffffffffffffffffff16036104e2578060025f8282546104d69190610f8b565b925050819055506105b0565b5f5f5f8573ffffffffffffffffffffffffffffffffffffffff1673ffffffffffffffffffffffffffffffffffffffff1681526020019081526020015f205490508181101561056b578381836040517fe450d38c00000000000000000000000000000000000000000000000000000000815260040161056293929190610fcd565b60405180910390fd5b8181035f5f8673ffffffffffffffffffffffffffffffffffffffff1673ffffffffffffffffffffffffffffffffffffffff1681526020019081526020015f2081905550505b5f73ffffffffffffffffffffffffffffffffffffffff168273ffffffffffffffffffffffffffffffffffffffff16036105f7578060025f8282540392505081905550610641565b805f5f8473ffffffffffffffffffffffffffffffffffffffff1673ffffffffffffffffffffffffffffffffffffffff1681526020019081526020015f205f82825401925050819055505b8173ffffffffffffffffffffffffffffffffffffffff168373ffffffffffffffffffffffffffffffffffffffff167fddf252ad1be2c89b69c2b068fc378daa952ba7f163c4a11628f55a4df523b3ef8360405161069e9190611002565b60405180910390a3505050565b5f604051905090565b5f5ffd5b5f5ffd5b5f5ffd5b5f601f19601f8301169050919050565b7f4e487b71000000000000000000000000000000000000000000000000000000005f52604160045260245ffd5b610706826106c0565b810181811067ffffffffffffffff82111715610725576107246106d0565b5b80604052505050565b5f6107376106ab565b905061074382826106fd565b919050565b5f67ffffffffffffffff821115610762576107616106d0565b5b602082029050602081019050919050565b5f5ffd5b5f73ffffffffffffffffffffffffffffffffffffffff82169050919050565b5f6107a082610777565b9050919050565b6107b081610796565b81146107ba575f5ffd5b50565b5f815190506107cb816107a7565b92915050565b5f6107e36107de84610748565b61072e565b9050808382526020820190506020840283018581111561080657610805610773565b5b835b8181101561082f578061081b88826107bd565b845260208401935050602081019050610808565b5050509392505050565b5f82601f83011261084d5761084c6106bc565b5b815161085d8482602086016107d1565b91505092915050565b5f67ffffffffffffffff8211156108805761087f6106d0565b5b602082029050602081019050919050565b5f819050919050565b6108a381610891565b81146108ad575f5ffd5b50565b5f815190506108be8161089a565b92915050565b5f6108d66108d184610866565b61072e565b905080838252602082019050602084028301858111156108f9576108f8610773565b5b835b81811015610922578061090e88826108b0565b8452602084019350506020810190506108fb565b5050509392505050565b5f82601f8301126109405761093f6106bc565b5b81516109508482602086016108c4565b91505092915050565b5f5f6040838503121561096f5761096e6106b4565b5b5f83015167ffffffffffffffff81111561098c5761098b6106b8565b5b61099885828601610839565b925050602083015167ffffffffffffffff8111156109b9576109b86106b8565b5b6109c58582860161092c565b9150509250929050565b5f81519050919050565b7f4e487b71000000000000000000000000000000000000000000000000000000005f52602260045260245ffd5b5f6002820490506001821680610a1d57607f821691505b602082108103610a3057610a2f6109d9565b5b50919050565b5f819050815f5260205f209050919050565b5f6020601f8301049050919050565b5f82821b905092915050565b5f60088302610a927fffffffffffffffffffffffffffffffffffffffffffffffffffffffffffffffff82610a57565b610a9c8683610a57565b95508019841693508086168417925050509392505050565b5f819050919050565b5f610ad7610ad2610acd84610891565b610ab4565b610891565b9050919050565b5f819050919050565b610af083610abd565b610b04610afc82610ade565b848454610a63565b825550505050565b5f5f905090565b610b1b610b0c565b610b26818484610ae7565b505050565b5b81811015610b4957610b3e5f82610b13565b600181019050610b2c565b5050565b601f821115610b8e57610b5f81610a36565b610b6884610a48565b81016020851015610b77578190505b610b8b610b8385610a48565b830182610b2b565b50505b505050565b5f82821c905092915050565b5f610bae5f1984600802610b93565b1980831691505092915050565b5f610bc68383610b9f565b9150826002028217905092915050565b610bdf826109cf565b67ffffffffffffffff811115610bf857610bf76106d0565b5b610c028254610a06565b610c0d828285610b4d565b5f60209050601f831160018114610c3e575f8415610c2c578287015190505b610c368582610bbb565b865550610c9d565b601f198416610c4c86610a36565b5f5b82811015610c7357848901518255600182019150602085019450602081019050610c4e565b86831015610c905784890151610c8c601f891682610b9f565b8355505b6001600288020188555050505b505050505050565b610cae81610796565b82525050565b5f602082019050610cc75f830184610ca5565b92915050565b5f82825260208201905092915050565b7f526563697069656e747320616e6420616d6f756e7473206c656e677468206d695f8201527f736d617463680000000000000000000000000000000000000000000000000000602082015250565b5f610d37602683610ccd565b9150610d4282610cdd565b604082019050919050565b5f6020820190508181035f830152610d6481610d2b565b9050919050565b7f4e487b71000000000000000000000000000000000000000000000000000000005f52601160045260245ffd5b5f8160011c9050919050565b5f5f8291508390505b6001851115610ded57808604811115610dc957610dc8610d6b565b5b6001851615610dd85780820291505b8081029050610de685610d98565b9450610dad565b94509492505050565b5f82610e055760019050610ec0565b81610e12575f9050610ec0565b8160018114610e285760028114610e3257610e61565b6001915050610ec0565b60ff841115610e4457610e43610d6b565b5b8360020a915084821115610e5b57610e5a610d6b565b5b50610ec0565b5060208310610133831016604e8410600b8410161715610e965782820a905083811115610e9157610e90610d6b565b5b610ec0565b610ea38484846001610da4565b92509050818404811115610eba57610eb9610d6b565b5b81810290505b9392505050565b5f60ff82169050919050565b5f610edd82610891565b9150610ee883610ec7565b9250610f157fffffffffffffffffffffffffffffffffffffffffffffffffffffffffffffffff8484610df6565b905092915050565b5f610f2782610891565b9150610f3283610891565b9250828202610f4081610891565b91508282048414831517610f5757610f56610d6b565b5b5092915050565b7f4e487b71000000000000000000000000000000000000000000000000000000005f52603260045260245ffd5b5f610f9582610891565b9150610fa083610891565b9250828201905080821115610fb857610fb7610d6b565b5b92915050565b610fc781610891565b82525050565b5f606082019050610fe05f830186610ca5565b610fed6020830185610fbe565b610ffa6040830184610fbe565b949350505050565b5f6020820190506110155f830184610fbe565b92915050565b611659806110285f395ff3fe608060405234801561000f575f5ffd5b50600436106100cd575f3560e01c806370a082311161008a57806395d89b411161006457806395d89b41146101ff578063a9059cbb1461021d578063dd62ed3e1461024d578063f2fde38b1461027d576100cd565b806370a08231146101a7578063715018a6146101d75780638da5cb5b146101e1576100cd565b806306fdde03146100d1578063095ea7b3146100ef57806318160ddd1461011f57806323b872dd1461013d578063313ce5671461016d5780634bd09c2a1461018b575b5f5ffd5b6100d9610299565b6040516100e69190610dda565b60405180910390f35b61010960048036038101906101049190610e98565b610329565b6040516101169190610ef0565b60405180910390f35b61012761034b565b6040516101349190610f18565b60405180910390f35b61015760048036038101906101529190610f31565b610354565b6040516101649190610ef0565b60405180910390f35b610175610382565b6040516101829190610f9c565b60405180910390f35b6101a560048036038101906101a091906111b5565b61038a565b005b6101c160048036038101906101bc919061122b565b610453565b6040516101ce9190610f18565b60405180910390f35b6101df610464565b005b6101e9610477565b6040516101f69190611265565b60405180910390f35b61020761049f565b6040516102149190610dda565b60405180910390f35b61023760048036038101906102329190610e98565b61052f565b6040516102449190610ef0565b60405180910390f35b6102676004803603810190610262919061127e565b610551565b6040516102749190610f18565b60405180910390f35b6102976004803603810190610292919061122b565b6105d3565b005b6060600380546102a8906112e9565b80601f01602080910402602001604051908101604052809291908181526020018280546102d4906112e9565b801561031f5780601f106102f65761010080835404028352916020019161031f565b820191905f5260205f20905b81548152906001019060200180831161030257829003601f168201915b5050505050905090565b5f5f610333610657565b905061034081858561065e565b600191505092915050565b5f600254905090565b5f5f61035e610657565b905061036b858285610670565b610376858585610703565b60019150509392505050565b5f6012905090565b6103926107f3565b80518251146103d6576040517f08c379a00000000000000000000000000000000000000000000000000000000081526004016103cd90611389565b60405180910390fd5b5f5f90505b825181101561044e57610441308483815181106103fb576103fa6113a7565b5b602002602001015161040b610382565b600a6104179190611530565b85858151811061042a576104296113a7565b5b602002602001015161043c919061157a565b610703565b80806001019150506103db565b505050565b5f61045d8261087a565b9050919050565b61046c6107f3565b6104755f6108bf565b565b5f60055f9054906101000a900473ffffffffffffffffffffffffffffffffffffffff16905090565b6060600480546104ae906112e9565b80601f01602080910402602001604051908101604052809291908181526020018280546104da906112e9565b80156105255780601f106104fc57610100808354040283529160200191610525565b820191905f5260205f20905b81548152906001019060200180831161050857829003601f168201915b5050505050905090565b5f5f610539610657565b9050610546818585610703565b600191505092915050565b5f60015f8473ffffffffffffffffffffffffffffffffffffffff1673ffffffffffffffffffffffffffffffffffffffff1681526020019081526020015f205f8373ffffffffffffffffffffffffffffffffffffffff1673ffffffffffffffffffffffffffffffffffffffff1681526020019081526020015f2054905092915050565b6105db6107f3565b5f73ffffffffffffffffffffffffffffffffffffffff168173ffffffffffffffffffffffffffffffffffffffff160361064b575f6040517f1e4fbdf70000000000000000000000000000000000000000000000000000000081526004016106429190611265565b60405180910390fd5b610654816108bf565b50565b5f33905090565b61066b8383836001610982565b505050565b5f61067b8484610551565b90507fffffffffffffffffffffffffffffffffffffffffffffffffffffffffffffffff8110156106fd57818110156106ee578281836040517ffb8f41b20000000000000000000000000000000000000000000000000000000081526004016106e5939291906115bb565b60405180910390fd5b6106fc84848484035f610982565b5b50505050565b5f73ffffffffffffffffffffffffffffffffffffffff168373ffffffffffffffffffffffffffffffffffffffff1603610773575f6040517f96c6fd1e00000000000000000000000000000000000000000000000000000000815260040161076a9190611265565b60405180910390fd5b5f73ffffffffffffffffffffffffffffffffffffffff168273ffffffffffffffffffffffffffffffffffffffff16036107e3575f6040517fec442f050000000000000000000000000000000000000000000000000000000081526004016107da9190611265565b60405180910390fd5b6107ee838383610b51565b505050565b6107fb610657565b73ffffffffffffffffffffffffffffffffffffffff16610819610477565b73ffffffffffffffffffffffffffffffffffffffff16146108785761083c610657565b6040517f118cdaa700000000000000000000000000000000000000000000000000000000815260040161086f9190611265565b60405180910390fd5b565b5f5f5f8373ffffffffffffffffffffffffffffffffffffffff1673ffffffffffffffffffffffffffffffffffffffff1681526020019081526020015f20549050919050565b5f60055f9054906101000a900473ffffffffffffffffffffffffffffffffffffffff1690508160055f6101000a81548173ffffffffffffffffffffffffffffffffffffffff021916908373ffffffffffffffffffffffffffffffffffffffff1602179055508173ffffffffffffffffffffffffffffffffffffffff168173ffffffffffffffffffffffffffffffffffffffff167f8be0079c531659141344cd1fd0a4f28419497f9722a3daafe3b4186f6b6457e060405160405180910390a35050565b5f73ffffffffffffffffffffffffffffffffffffffff168473ffffffffffffffffffffffffffffffffffffffff16036109f2575f6040517fe602df050000000000000000000000000000000000000000000000000000000081526004016109e99190611265565b60405180910390fd5b5f73ffffffffffffffffffffffffffffffffffffffff168373ffffffffffffffffffffffffffffffffffffffff1603610a62575f6040517f94280d62000000000000000000000000000000000000000000000000000000008152600401610a599190611265565b60405180910390fd5b8160015f8673ffffffffffffffffffffffffffffffffffffffff1673ffffffffffffffffffffffffffffffffffffffff1681526020019081526020015f205f8573ffffffffffffffffffffffffffffffffffffffff1673ffffffffffffffffffffffffffffffffffffffff1681526020019081526020015f20819055508015610b4b578273ffffffffffffffffffffffffffffffffffffffff168473ffffffffffffffffffffffffffffffffffffffff167f8c5be1e5ebec7d5bd14f71427d1e84f3dd0314c0f7b2291e5b200ac8c7c3b92584604051610b429190610f18565b60405180910390a35b50505050565b5f73ffffffffffffffffffffffffffffffffffffffff168373ffffffffffffffffffffffffffffffffffffffff1603610ba1578060025f828254610b9591906115f0565b92505081905550610c6f565b5f5f5f8573ffffffffffffffffffffffffffffffffffffffff1673ffffffffffffffffffffffffffffffffffffffff1681526020019081526020015f2054905081811015610c2a578381836040517fe450d38c000000000000000000000000000000000000000000000000000000008152600401610c21939291906115bb565b60405180910390fd5b8181035f5f8673ffffffffffffffffffffffffffffffffffffffff1673ffffffffffffffffffffffffffffffffffffffff1681526020019081526020015f2081905550505b5f73ffffffffffffffffffffffffffffffffffffffff168273ffffffffffffffffffffffffffffffffffffffff1603610cb6578060025f8282540392505081905550610d00565b805f5f8473ffffffffffffffffffffffffffffffffffffffff1673ffffffffffffffffffffffffffffffffffffffff1681526020019081526020015f205f82825401925050819055505b8173ffffffffffffffffffffffffffffffffffffffff168373ffffffffffffffffffffffffffffffffffffffff167fddf252ad1be2c89b69c2b068fc378daa952ba7f163c4a11628f55a4df523b3ef83604051610d5d9190610f18565b60405180910390a3505050565b5f81519050919050565b5f82825260208201905092915050565b8281835e5f83830152505050565b5f601f19601f8301169050919050565b5f610dac82610d6a565b610db68185610d74565b9350610dc6818560208601610d84565b610dcf81610d92565b840191505092915050565b5f6020820190508181035f830152610df28184610da2565b905092915050565b5f604051905090565b5f5ffd5b5f5ffd5b5f73ffffffffffffffffffffffffffffffffffffffff82169050919050565b5f610e3482610e0b565b9050919050565b610e4481610e2a565b8114610e4e575f5ffd5b50565b5f81359050610e5f81610e3b565b92915050565b5f819050919050565b610e7781610e65565b8114610e81575f5ffd5b50565b5f81359050610e9281610e6e565b92915050565b5f5f60408385031215610eae57610ead610e03565b5b5f610ebb85828601610e51565b9250506020610ecc85828601610e84565b9150509250929050565b5f8115159050919050565b610eea81610ed6565b82525050565b5f602082019050610f035f830184610ee1565b92915050565b610f1281610e65565b82525050565b5f602082019050610f2b5f830184610f09565b92915050565b5f5f5f60608486031215610f4857610f47610e03565b5b5f610f5586828701610e51565b9350506020610f6686828701610e51565b9250506040610f7786828701610e84565b9150509250925092565b5f60ff82169050919050565b610f9681610f81565b82525050565b5f602082019050610faf5f830184610f8d565b92915050565b5f5ffd5b7f4e487b71000000000000000000000000000000000000000000000000000000005f52604160045260245ffd5b610fef82610d92565b810181811067ffffffffffffffff8211171561100e5761100d610fb9565b5b80604052505050565b5f611020610dfa565b905061102c8282610fe6565b919050565b5f67ffffffffffffffff82111561104b5761104a610fb9565b5b602082029050602081019050919050565b5f5ffd5b5f61107261106d84611031565b611017565b905080838252602082019050602084028301858111156110955761109461105c565b5b835b818110156110be57806110aa8882610e51565b845260208401935050602081019050611097565b5050509392505050565b5f82601f8301126110dc576110db610fb5565b5b81356110ec848260208601611060565b91505092915050565b5f67ffffffffffffffff82111561110f5761110e610fb9565b5b602082029050602081019050919050565b5f61113261112d846110f5565b611017565b905080838252602082019050602084028301858111156111555761115461105c565b5b835b8181101561117e578061116a8882610e84565b845260208401935050602081019050611157565b5050509392505050565b5f82601f83011261119c5761119b610fb5565b5b81356111ac848260208601611120565b91505092915050565b5f5f604083850312156111cb576111ca610e03565b5b5f83013567ffffffffffffffff8111156111e8576111e7610e07565b5b6111f4858286016110c8565b925050602083013567ffffffffffffffff81111561121557611214610e07565b5b61122185828601611188565b9150509250929050565b5f602082840312156112405761123f610e03565b5b5f61124d84828501610e51565b91505092915050565b61125f81610e2a565b82525050565b5f6020820190506112785f830184611256565b92915050565b5f5f6040838503121561129457611293610e03565b5b5f6112a185828601610e51565b92505060206112b285828601610e51565b9150509250929050565b7f4e487b71000000000000000000000000000000000000000000000000000000005f52602260045260245ffd5b5f600282049050600182168061130057607f821691505b602082108103611313576113126112bc565b5b50919050565b7f526563697069656e747320616e6420616d6f756e7473206c656e677468206d695f8201527f736d617463680000000000000000000000000000000000000000000000000000602082015250565b5f611373602683610d74565b915061137e82611319565b604082019050919050565b5f6020820190508181035f8301526113a081611367565b9050919050565b7f4e487b71000000000000000000000000000000000000000000000000000000005f52603260045260245ffd5b7f4e487b71000000000000000000000000000000000000000000000000000000005f52601160045260245ffd5b5f8160011c9050919050565b5f5f8291508390505b600185111561145657808604811115611432576114316113d4565b5b60018516156114415780820291505b808102905061144f85611401565b9450611416565b94509492505050565b5f8261146e5760019050611529565b8161147b575f9050611529565b8160018114611491576002811461149b576114ca565b6001915050611529565b60ff8411156114ad576114ac6113d4565b5b8360020a9150848211156114c4576114c36113d4565b5b50611529565b5060208310610133831016604e8410600b84101617156114ff5782820a9050838111156114fa576114f96113d4565b5b611529565b61150c848484600161140d565b92509050818404811115611523576115226113d4565b5b81810290505b9392505050565b5f61153a82610e65565b915061154583610f81565b92506115727fffffffffffffffffffffffffffffffffffffffffffffffffffffffffffffffff848461145f565b905092915050565b5f61158482610e65565b915061158f83610e65565b925082820261159d81610e65565b915082820484148315176115b4576115b36113d4565b5b5092915050565b5f6060820190506115ce5f830186611256565b6115db6020830185610f09565b6115e86040830184610f09565b949350505050565b5f6115fa82610e65565b915061160583610e65565b925082820190508082111561161d5761161c6113d4565b5b9291505056fea264697066735822122027c86f1d8803cee99137115c7f42d9c04ee0eaf1c8928fe7c7a2547bd7cdd68664736f6c634300081e0033",
					"opcodes": "PUSH1 0x80 PUSH1 0x40 MSTORE CALLVALUE DUP1 ISZERO PUSH2 0xF JUMPI PUSH0 PUSH0 REVERT JUMPDEST POP PUSH1 0x40 MLOAD PUSH2 0x2681 CODESIZE SUB DUP1 PUSH2 0x2681 DUP4 CODECOPY DUP2 DUP2 ADD PUSH1 0x40 MSTORE DUP2 ADD SWAP1 PUSH2 0x31 SWAP2 SWAP1 PUSH2 0x959 JUMP JUMPDEST CALLER PUSH1 0x40 MLOAD DUP1 PUSH1 0x40 ADD PUSH1 0x40 MSTORE DUP1 PUSH1 0x9 DUP2 MSTORE PUSH1 0x20 ADD PUSH32 0x5465737420555344430000000000000000000000000000000000000000000000 DUP2 MSTORE POP PUSH1 0x40 MLOAD DUP1 PUSH1 0x40 ADD PUSH1 0x40 MSTORE DUP1 PUSH1 0x4 DUP2 MSTORE PUSH1 0x20 ADD PUSH32 0x5553444300000000000000000000000000000000000000000000000000000000 DUP2 MSTORE POP DUP2 PUSH1 0x3 SWAP1 DUP2 PUSH2 0xAD SWAP2 SWAP1 PUSH2 0xBD6 JUMP JUMPDEST POP DUP1 PUSH1 0x4 SWAP1 DUP2 PUSH2 0xBD SWAP2 SWAP1 PUSH2 0xBD6 JUMP JUMPDEST POP POP POP PUSH0 PUSH20 0xFFFFFFFFFFFFFFFFFFFFFFFFFFFFFFFFFFFFFFFF AND DUP2 PUSH20 0xFFFFFFFFFFFFFFFFFFFFFFFFFFFFFFFFFFFFFFFF AND SUB PUSH2 0x130 JUMPI PUSH0 PUSH1 0x40 MLOAD PUSH32 0x1E4FBDF700000000000000000000000000000000000000000000000000000000 DUP2 MSTORE PUSH1 0x4 ADD PUSH2 0x127 SWAP2 SWAP1 PUSH2 0xCB4 JUMP JUMPDEST PUSH1 0x40 MLOAD DUP1 SWAP2 SUB SWAP1 REVERT JUMPDEST PUSH2 0x13F DUP2 PUSH2 0x24C PUSH1 0x20 SHL PUSH1 0x20 SHR JUMP JUMPDEST POP DUP1 MLOAD DUP3 MLOAD EQ PUSH2 0x184 JUMPI PUSH1 0x40 MLOAD PUSH32 0x8C379A000000000000000000000000000000000000000000000000000000000 DUP2 MSTORE PUSH1 0x4 ADD PUSH2 0x17B SWAP1 PUSH2 0xD4D JUMP JUMPDEST PUSH1 0x40 MLOAD DUP1 SWAP2 SUB SWAP1 REVERT JUMPDEST PUSH0 PUSH2 0x193 PUSH2 0x30F PUSH1 0x20 SHL PUSH1 0x20 SHR JUMP JUMPDEST PUSH1 0xA PUSH2 0x19F SWAP2 SWAP1 PUSH2 0xED3 JUMP JUMPDEST PUSH3 0x30D40 PUSH2 0x1AD SWAP2 SWAP1 PUSH2 0xF1D JUMP JUMPDEST SWAP1 POP PUSH2 0x1BF ADDRESS DUP3 PUSH2 0x317 PUSH1 0x20 SHL PUSH1 0x20 SHR JUMP JUMPDEST PUSH0 PUSH0 SWAP1 POP JUMPDEST DUP4 MLOAD DUP2 LT ISZERO PUSH2 0x243 JUMPI PUSH2 0x236 ADDRESS DUP6 DUP4 DUP2 MLOAD DUP2 LT PUSH2 0x1E4 JUMPI PUSH2 0x1E3 PUSH2 0xF5E JUMP JUMPDEST JUMPDEST PUSH1 0x20 MUL PUSH1 0x20 ADD ADD MLOAD PUSH2 0x1FA PUSH2 0x30F PUSH1 0x20 SHL PUSH1 0x20 SHR JUMP JUMPDEST PUSH1 0xA PUSH2 0x206 SWAP2 SWAP1 PUSH2 0xED3 JUMP JUMPDEST DUP7 DUP6 DUP2 MLOAD DUP2 LT PUSH2 0x219 JUMPI PUSH2 0x218 PUSH2 0xF5E JUMP JUMPDEST JUMPDEST PUSH1 0x20 MUL PUSH1 0x20 ADD ADD MLOAD PUSH2 0x22B SWAP2 SWAP1 PUSH2 0xF1D JUMP JUMPDEST PUSH2 0x39C PUSH1 0x20 SHL PUSH1 0x20 SHR JUMP JUMPDEST DUP1 DUP1 PUSH1 0x1 ADD SWAP2 POP POP PUSH2 0x1C4 JUMP JUMPDEST POP POP POP POP PUSH2 0x101B JUMP JUMPDEST PUSH0 PUSH1 0x5 PUSH0 SWAP1 SLOAD SWAP1 PUSH2 0x100 EXP SWAP1 DIV PUSH20 0xFFFFFFFFFFFFFFFFFFFFFFFFFFFFFFFFFFFFFFFF AND SWAP1 POP DUP2 PUSH1 0x5 PUSH0 PUSH2 0x100 EXP DUP2 SLOAD DUP2 PUSH20 0xFFFFFFFFFFFFFFFFFFFFFFFFFFFFFFFFFFFFFFFF MUL NOT AND SWAP1 DUP4 PUSH20 0xFFFFFFFFFFFFFFFFFFFFFFFFFFFFFFFFFFFFFFFF AND MUL OR SWAP1 SSTORE POP DUP2 PUSH20 0xFFFFFFFFFFFFFFFFFFFFFFFFFFFFFFFFFFFFFFFF AND DUP2 PUSH20 0xFFFFFFFFFFFFFFFFFFFFFFFFFFFFFFFFFFFFFFFF AND PUSH32 0x8BE0079C531659141344CD1FD0A4F28419497F9722A3DAAFE3B4186F6B6457E0 PUSH1 0x40 MLOAD PUSH1 0x40 MLOAD DUP1 SWAP2 SUB SWAP1 LOG3 POP POP JUMP JUMPDEST PUSH0 PUSH1 0x12 SWAP1 POP SWAP1 JUMP JUMPDEST PUSH0 PUSH20 0xFFFFFFFFFFFFFFFFFFFFFFFFFFFFFFFFFFFFFFFF AND DUP3 PUSH20 0xFFFFFFFFFFFFFFFFFFFFFFFFFFFFFFFFFFFFFFFF AND SUB PUSH2 0x387 JUMPI PUSH0 PUSH1 0x40 MLOAD PUSH32 0xEC442F0500000000000000000000000000000000000000000000000000000000 DUP2 MSTORE PUSH1 0x4 ADD PUSH2 0x37E SWAP2 SWAP1 PUSH2 0xCB4 JUMP JUMPDEST PUSH1 0x40 MLOAD DUP1 SWAP2 SUB SWAP1 REVERT JUMPDEST PUSH2 0x398 PUSH0 DUP4 DUP4 PUSH2 0x492 PUSH1 0x20 SHL PUSH1 0x20 SHR JUMP JUMPDEST POP POP JUMP JUMPDEST PUSH0 PUSH20 0xFFFFFFFFFFFFFFFFFFFFFFFFFFFFFFFFFFFFFFFF AND DUP4 PUSH20 0xFFFFFFFFFFFFFFFFFFFFFFFFFFFFFFFFFFFFFFFF AND SUB PUSH2 0x40C JUMPI PUSH0 PUSH1 0x40 MLOAD PUSH32 0x96C6FD1E00000000000000000000000000000000000000000000000000000000 DUP2 MSTORE PUSH1 0x4 ADD PUSH2 0x403 SWAP2 SWAP1 PUSH2 0xCB4 JUMP JUMPDEST PUSH1 0x40 MLOAD DUP1 SWAP2 SUB SWAP1 REVERT JUMPDEST PUSH0 PUSH20 0xFFFFFFFFFFFFFFFFFFFFFFFFFFFFFFFFFFFFFFFF AND DUP3 PUSH20 0xFFFFFFFFFFFFFFFFFFFFFFFFFFFFFFFFFFFFFFFF AND SUB PUSH2 0x47C JUMPI PUSH0 PUSH1 0x40 MLOAD PUSH32 0xEC442F0500000000000000000000000000000000000000000000000000000000 DUP2 MSTORE PUSH1 0x4 ADD PUSH2 0x473 SWAP2 SWAP1 PUSH2 0xCB4 JUMP JUMPDEST PUSH1 0x40 MLOAD DUP1 SWAP2 SUB SWAP1 REVERT JUMPDEST PUSH2 0x48D DUP4 DUP4 DUP4 PUSH2 0x492 PUSH1 0x20 SHL PUSH1 0x20 SHR JUMP JUMPDEST POP POP POP JUMP JUMPDEST PUSH0 PUSH20 0xFFFFFFFFFFFFFFFFFFFFFFFFFFFFFFFFFFFFFFFF AND DUP4 PUSH20 0xFFFFFFFFFFFFFFFFFFFFFFFFFFFFFFFFFFFFFFFF AND SUB PUSH2 0x4E2 JUMPI DUP1 PUSH1 0x2 PUSH0 DUP3 DUP3 SLOAD PUSH2 0x4D6 SWAP2 SWAP1 PUSH2 0xF8B JUMP JUMPDEST SWAP3 POP POP DUP2 SWAP1 SSTORE POP PUSH2 0x5B0 JUMP JUMPDEST PUSH0 PUSH0 PUSH0 DUP6 PUSH20 0xFFFFFFFFFFFFFFFFFFFFFFFFFFFFFFFFFFFFFFFF AND PUSH20 0xFFFFFFFFFFFFFFFFFFFFFFFFFFFFFFFFFFFFFFFF AND DUP2 MSTORE PUSH1 0x20 ADD SWAP1 DUP2 MSTORE PUSH1 0x20 ADD PUSH0 KECCAK256 SLOAD SWAP1 POP DUP2 DUP2 LT ISZERO PUSH2 0x56B JUMPI DUP4 DUP2 DUP4 PUSH1 0x40 MLOAD PUSH32 0xE450D38C00000000000000000000000000000000000000000000000000000000 DUP2 MSTORE PUSH1 0x4 ADD PUSH2 0x562 SWAP4 SWAP3 SWAP2 SWAP1 PUSH2 0xFCD JUMP JUMPDEST PUSH1 0x40 MLOAD DUP1 SWAP2 SUB SWAP1 REVERT JUMPDEST DUP2 DUP2 SUB PUSH0 PUSH0 DUP7 PUSH20 0xFFFFFFFFFFFFFFFFFFFFFFFFFFFFFFFFFFFFFFFF AND PUSH20 0xFFFFFFFFFFFFFFFFFFFFFFFFFFFFFFFFFFFFFFFF AND DUP2 MSTORE PUSH1 0x20 ADD SWAP1 DUP2 MSTORE PUSH1 0x20 ADD PUSH0 KECCAK256 DUP2 SWAP1 SSTORE POP POP JUMPDEST PUSH0 PUSH20 0xFFFFFFFFFFFFFFFFFFFFFFFFFFFFFFFFFFFFFFFF AND DUP3 PUSH20 0xFFFFFFFFFFFFFFFFFFFFFFFFFFFFFFFFFFFFFFFF AND SUB PUSH2 0x5F7 JUMPI DUP1 PUSH1 0x2 PUSH0 DUP3 DUP3 SLOAD SUB SWAP3 POP POP DUP2 SWAP1 SSTORE POP PUSH2 0x641 JUMP JUMPDEST DUP1 PUSH0 PUSH0 DUP5 PUSH20 0xFFFFFFFFFFFFFFFFFFFFFFFFFFFFFFFFFFFFFFFF AND PUSH20 0xFFFFFFFFFFFFFFFFFFFFFFFFFFFFFFFFFFFFFFFF AND DUP2 MSTORE PUSH1 0x20 ADD SWAP1 DUP2 MSTORE PUSH1 0x20 ADD PUSH0 KECCAK256 PUSH0 DUP3 DUP3 SLOAD ADD SWAP3 POP POP DUP2 SWAP1 SSTORE POP JUMPDEST DUP2 PUSH20 0xFFFFFFFFFFFFFFFFFFFFFFFFFFFFFFFFFFFFFFFF AND DUP4 PUSH20 0xFFFFFFFFFFFFFFFFFFFFFFFFFFFFFFFFFFFFFFFF AND PUSH32 0xDDF252AD1BE2C89B69C2B068FC378DAA952BA7F163C4A11628F55A4DF523B3EF DUP4 PUSH1 0x40 MLOAD PUSH2 0x69E SWAP2 SWAP1 PUSH2 0x1002 JUMP JUMPDEST PUSH1 0x40 MLOAD DUP1 SWAP2 SUB SWAP1 LOG3 POP POP POP JUMP JUMPDEST PUSH0 PUSH1 0x40 MLOAD SWAP1 POP SWAP1 JUMP JUMPDEST PUSH0 PUSH0 REVERT JUMPDEST PUSH0 PUSH0 REVERT JUMPDEST PUSH0 PUSH0 REVERT JUMPDEST PUSH0 PUSH1 0x1F NOT PUSH1 0x1F DUP4 ADD AND SWAP1 POP SWAP2 SWAP1 POP JUMP JUMPDEST PUSH32 0x4E487B7100000000000000000000000000000000000000000000000000000000 PUSH0 MSTORE PUSH1 0x41 PUSH1 0x4 MSTORE PUSH1 0x24 PUSH0 REVERT JUMPDEST PUSH2 0x706 DUP3 PUSH2 0x6C0 JUMP JUMPDEST DUP2 ADD DUP2 DUP2 LT PUSH8 0xFFFFFFFFFFFFFFFF DUP3 GT OR ISZERO PUSH2 0x725 JUMPI PUSH2 0x724 PUSH2 0x6D0 JUMP JUMPDEST JUMPDEST DUP1 PUSH1 0x40 MSTORE POP POP POP JUMP JUMPDEST PUSH0 PUSH2 0x737 PUSH2 0x6AB JUMP JUMPDEST SWAP1 POP PUSH2 0x743 DUP3 DUP3 PUSH2 0x6FD JUMP JUMPDEST SWAP2 SWAP1 POP JUMP JUMPDEST PUSH0 PUSH8 0xFFFFFFFFFFFFFFFF DUP3 GT ISZERO PUSH2 0x762 JUMPI PUSH2 0x761 PUSH2 0x6D0 JUMP JUMPDEST JUMPDEST PUSH1 0x20 DUP3 MUL SWAP1 POP PUSH1 0x20 DUP2 ADD SWAP1 POP SWAP2 SWAP1 POP JUMP JUMPDEST PUSH0 PUSH0 REVERT JUMPDEST PUSH0 PUSH20 0xFFFFFFFFFFFFFFFFFFFFFFFFFFFFFFFFFFFFFFFF DUP3 AND SWAP1 POP SWAP2 SWAP1 POP JUMP JUMPDEST PUSH0 PUSH2 0x7A0 DUP3 PUSH2 0x777 JUMP JUMPDEST SWAP1 POP SWAP2 SWAP1 POP JUMP JUMPDEST PUSH2 0x7B0 DUP2 PUSH2 0x796 JUMP JUMPDEST DUP2 EQ PUSH2 0x7BA JUMPI PUSH0 PUSH0 REVERT JUMPDEST POP JUMP JUMPDEST PUSH0 DUP2 MLOAD SWAP1 POP PUSH2 0x7CB DUP2 PUSH2 0x7A7 JUMP JUMPDEST SWAP3 SWAP2 POP POP JUMP JUMPDEST PUSH0 PUSH2 0x7E3 PUSH2 0x7DE DUP5 PUSH2 0x748 JUMP JUMPDEST PUSH2 0x72E JUMP JUMPDEST SWAP1 POP DUP1 DUP4 DUP3 MSTORE PUSH1 0x20 DUP3 ADD SWAP1 POP PUSH1 0x20 DUP5 MUL DUP4 ADD DUP6 DUP2 GT ISZERO PUSH2 0x806 JUMPI PUSH2 0x805 PUSH2 0x773 JUMP JUMPDEST JUMPDEST DUP4 JUMPDEST DUP2 DUP2 LT ISZERO PUSH2 0x82F JUMPI DUP1 PUSH2 0x81B DUP9 DUP3 PUSH2 0x7BD JUMP JUMPDEST DUP5 MSTORE PUSH1 0x20 DUP5 ADD SWAP4 POP POP PUSH1 0x20 DUP2 ADD SWAP1 POP PUSH2 0x808 JUMP JUMPDEST POP POP POP SWAP4 SWAP3 POP POP POP JUMP JUMPDEST PUSH0 DUP3 PUSH1 0x1F DUP4 ADD SLT PUSH2 0x84D JUMPI PUSH2 0x84C PUSH2 0x6BC JUMP JUMPDEST JUMPDEST DUP2 MLOAD PUSH2 0x85D DUP5 DUP3 PUSH1 0x20 DUP7 ADD PUSH2 0x7D1 JUMP JUMPDEST SWAP2 POP POP SWAP3 SWAP2 POP POP JUMP JUMPDEST PUSH0 PUSH8 0xFFFFFFFFFFFFFFFF DUP3 GT ISZERO PUSH2 0x880 JUMPI PUSH2 0x87F PUSH2 0x6D0 JUMP JUMPDEST JUMPDEST PUSH1 0x20 DUP3 MUL SWAP1 POP PUSH1 0x20 DUP2 ADD SWAP1 POP SWAP2 SWAP1 POP JUMP JUMPDEST PUSH0 DUP2 SWAP1 POP SWAP2 SWAP1 POP JUMP JUMPDEST PUSH2 0x8A3 DUP2 PUSH2 0x891 JUMP JUMPDEST DUP2 EQ PUSH2 0x8AD JUMPI PUSH0 PUSH0 REVERT JUMPDEST POP JUMP JUMPDEST PUSH0 DUP2 MLOAD SWAP1 POP PUSH2 0x8BE DUP2 PUSH2 0x89A JUMP JUMPDEST SWAP3 SWAP2 POP POP JUMP JUMPDEST PUSH0 PUSH2 0x8D6 PUSH2 0x8D1 DUP5 PUSH2 0x866 JUMP JUMPDEST PUSH2 0x72E JUMP JUMPDEST SWAP1 POP DUP1 DUP4 DUP3 MSTORE PUSH1 0x20 DUP3 ADD SWAP1 POP PUSH1 0x20 DUP5 MUL DUP4 ADD DUP6 DUP2 GT ISZERO PUSH2 0x8F9 JUMPI PUSH2 0x8F8 PUSH2 0x773 JUMP JUMPDEST JUMPDEST DUP4 JUMPDEST DUP2 DUP2 LT ISZERO PUSH2 0x922 JUMPI DUP1 PUSH2 0x90E DUP9 DUP3 PUSH2 0x8B0 JUMP JUMPDEST DUP5 MSTORE PUSH1 0x20 DUP5 ADD SWAP4 POP POP PUSH1 0x20 DUP2 ADD SWAP1 POP PUSH2 0x8FB JUMP JUMPDEST POP POP POP SWAP4 SWAP3 POP POP POP JUMP JUMPDEST PUSH0 DUP3 PUSH1 0x1F DUP4 ADD SLT PUSH2 0x940 JUMPI PUSH2 0x93F PUSH2 0x6BC JUMP JUMPDEST JUMPDEST DUP2 MLOAD PUSH2 0x950 DUP5 DUP3 PUSH1 0x20 DUP7 ADD PUSH2 0x8C4 JUMP JUMPDEST SWAP2 POP POP SWAP3 SWAP2 POP POP JUMP JUMPDEST PUSH0 PUSH0 PUSH1 0x40 DUP4 DUP6 SUB SLT ISZERO PUSH2 0x96F JUMPI PUSH2 0x96E PUSH2 0x6B4 JUMP JUMPDEST JUMPDEST PUSH0 DUP4 ADD MLOAD PUSH8 0xFFFFFFFFFFFFFFFF DUP2 GT ISZERO PUSH2 0x98C JUMPI PUSH2 0x98B PUSH2 0x6B8 JUMP JUMPDEST JUMPDEST PUSH2 0x998 DUP6 DUP3 DUP7 ADD PUSH2 0x839 JUMP JUMPDEST SWAP3 POP POP PUSH1 0x20 DUP4 ADD MLOAD PUSH8 0xFFFFFFFFFFFFFFFF DUP2 GT ISZERO PUSH2 0x9B9 JUMPI PUSH2 0x9B8 PUSH2 0x6B8 JUMP JUMPDEST JUMPDEST PUSH2 0x9C5 DUP6 DUP3 DUP7 ADD PUSH2 0x92C JUMP JUMPDEST SWAP2 POP POP SWAP3 POP SWAP3 SWAP1 POP JUMP JUMPDEST PUSH0 DUP2 MLOAD SWAP1 POP SWAP2 SWAP1 POP JUMP JUMPDEST PUSH32 0x4E487B7100000000000000000000000000000000000000000000000000000000 PUSH0 MSTORE PUSH1 0x22 PUSH1 0x4 MSTORE PUSH1 0x24 PUSH0 REVERT JUMPDEST PUSH0 PUSH1 0x2 DUP3 DIV SWAP1 POP PUSH1 0x1 DUP3 AND DUP1 PUSH2 0xA1D JUMPI PUSH1 0x7F DUP3 AND SWAP2 POP JUMPDEST PUSH1 0x20 DUP3 LT DUP2 SUB PUSH2 0xA30 JUMPI PUSH2 0xA2F PUSH2 0x9D9 JUMP JUMPDEST JUMPDEST POP SWAP2 SWAP1 POP JUMP JUMPDEST PUSH0 DUP2 SWAP1 POP DUP2 PUSH0 MSTORE PUSH1 0x20 PUSH0 KECCAK256 SWAP1 POP SWAP2 SWAP1 POP JUMP JUMPDEST PUSH0 PUSH1 0x20 PUSH1 0x1F DUP4 ADD DIV SWAP1 POP SWAP2 SWAP1 POP JUMP JUMPDEST PUSH0 DUP3 DUP3 SHL SWAP1 POP SWAP3 SWAP2 POP POP JUMP JUMPDEST PUSH0 PUSH1 0x8 DUP4 MUL PUSH2 0xA92 PUSH32 0xFFFFFFFFFFFFFFFFFFFFFFFFFFFFFFFFFFFFFFFFFFFFFFFFFFFFFFFFFFFFFFFF DUP3 PUSH2 0xA57 JUMP JUMPDEST PUSH2 0xA9C DUP7 DUP4 PUSH2 0xA57 JUMP JUMPDEST SWAP6 POP DUP1 NOT DUP5 AND SWAP4 POP DUP1 DUP7 AND DUP5 OR SWAP3 POP POP POP SWAP4 SWAP3 POP POP POP JUMP JUMPDEST PUSH0 DUP2 SWAP1 POP SWAP2 SWAP1 POP JUMP JUMPDEST PUSH0 PUSH2 0xAD7 PUSH2 0xAD2 PUSH2 0xACD DUP5 PUSH2 0x891 JUMP JUMPDEST PUSH2 0xAB4 JUMP JUMPDEST PUSH2 0x891 JUMP JUMPDEST SWAP1 POP SWAP2 SWAP1 POP JUMP JUMPDEST PUSH0 DUP2 SWAP1 POP SWAP2 SWAP1 POP JUMP JUMPDEST PUSH2 0xAF0 DUP4 PUSH2 0xABD JUMP JUMPDEST PUSH2 0xB04 PUSH2 0xAFC DUP3 PUSH2 0xADE JUMP JUMPDEST DUP5 DUP5 SLOAD PUSH2 0xA63 JUMP JUMPDEST DUP3 SSTORE POP POP POP POP JUMP JUMPDEST PUSH0 PUSH0 SWAP1 POP SWAP1 JUMP JUMPDEST PUSH2 0xB1B PUSH2 0xB0C JUMP JUMPDEST PUSH2 0xB26 DUP2 DUP5 DUP5 PUSH2 0xAE7 JUMP JUMPDEST POP POP POP JUMP JUMPDEST JUMPDEST DUP2 DUP2 LT ISZERO PUSH2 0xB49 JUMPI PUSH2 0xB3E PUSH0 DUP3 PUSH2 0xB13 JUMP JUMPDEST PUSH1 0x1 DUP2 ADD SWAP1 POP PUSH2 0xB2C JUMP JUMPDEST POP POP JUMP JUMPDEST PUSH1 0x1F DUP3 GT ISZERO PUSH2 0xB8E JUMPI PUSH2 0xB5F DUP2 PUSH2 0xA36 JUMP JUMPDEST PUSH2 0xB68 DUP5 PUSH2 0xA48 JUMP JUMPDEST DUP2 ADD PUSH1 0x20 DUP6 LT ISZERO PUSH2 0xB77 JUMPI DUP2 SWAP1 POP JUMPDEST PUSH2 0xB8B PUSH2 0xB83 DUP6 PUSH2 0xA48 JUMP JUMPDEST DUP4 ADD DUP3 PUSH2 0xB2B JUMP JUMPDEST POP POP JUMPDEST POP POP POP JUMP JUMPDEST PUSH0 DUP3 DUP3 SHR SWAP1 POP SWAP3 SWAP2 POP POP JUMP JUMPDEST PUSH0 PUSH2 0xBAE PUSH0 NOT DUP5 PUSH1 0x8 MUL PUSH2 0xB93 JUMP JUMPDEST NOT DUP1 DUP4 AND SWAP2 POP POP SWAP3 SWAP2 POP POP JUMP JUMPDEST PUSH0 PUSH2 0xBC6 DUP4 DUP4 PUSH2 0xB9F JUMP JUMPDEST SWAP2 POP DUP3 PUSH1 0x2 MUL DUP3 OR SWAP1 POP SWAP3 SWAP2 POP POP JUMP JUMPDEST PUSH2 0xBDF DUP3 PUSH2 0x9CF JUMP JUMPDEST PUSH8 0xFFFFFFFFFFFFFFFF DUP2 GT ISZERO PUSH2 0xBF8 JUMPI PUSH2 0xBF7 PUSH2 0x6D0 JUMP JUMPDEST JUMPDEST PUSH2 0xC02 DUP3 SLOAD PUSH2 0xA06 JUMP JUMPDEST PUSH2 0xC0D DUP3 DUP3 DUP6 PUSH2 0xB4D JUMP JUMPDEST PUSH0 PUSH1 0x20 SWAP1 POP PUSH1 0x1F DUP4 GT PUSH1 0x1 DUP2 EQ PUSH2 0xC3E JUMPI PUSH0 DUP5 ISZERO PUSH2 0xC2C JUMPI DUP3 DUP8 ADD MLOAD SWAP1 POP JUMPDEST PUSH2 0xC36 DUP6 DUP3 PUSH2 0xBBB JUMP JUMPDEST DUP7 SSTORE POP PUSH2 0xC9D JUMP JUMPDEST PUSH1 0x1F NOT DUP5 AND PUSH2 0xC4C DUP7 PUSH2 0xA36 JUMP JUMPDEST PUSH0 JUMPDEST DUP3 DUP2 LT ISZERO PUSH2 0xC73 JUMPI DUP5 DUP10 ADD MLOAD DUP3 SSTORE PUSH1 0x1 DUP3 ADD SWAP2 POP PUSH1 0x20 DUP6 ADD SWAP5 POP PUSH1 0x20 DUP2 ADD SWAP1 POP PUSH2 0xC4E JUMP JUMPDEST DUP7 DUP4 LT ISZERO PUSH2 0xC90 JUMPI DUP5 DUP10 ADD MLOAD PUSH2 0xC8C PUSH1 0x1F DUP10 AND DUP3 PUSH2 0xB9F JUMP JUMPDEST DUP4 SSTORE POP JUMPDEST PUSH1 0x1 PUSH1 0x2 DUP9 MUL ADD DUP9 SSTORE POP POP POP JUMPDEST POP POP POP POP POP POP JUMP JUMPDEST PUSH2 0xCAE DUP2 PUSH2 0x796 JUMP JUMPDEST DUP3 MSTORE POP POP JUMP JUMPDEST PUSH0 PUSH1 0x20 DUP3 ADD SWAP1 POP PUSH2 0xCC7 PUSH0 DUP4 ADD DUP5 PUSH2 0xCA5 JUMP JUMPDEST SWAP3 SWAP2 POP POP JUMP JUMPDEST PUSH0 DUP3 DUP3 MSTORE PUSH1 0x20 DUP3 ADD SWAP1 POP SWAP3 SWAP2 POP POP JUMP JUMPDEST PUSH32 0x526563697069656E747320616E6420616D6F756E7473206C656E677468206D69 PUSH0 DUP3 ADD MSTORE PUSH32 0x736D617463680000000000000000000000000000000000000000000000000000 PUSH1 0x20 DUP3 ADD MSTORE POP JUMP JUMPDEST PUSH0 PUSH2 0xD37 PUSH1 0x26 DUP4 PUSH2 0xCCD JUMP JUMPDEST SWAP2 POP PUSH2 0xD42 DUP3 PUSH2 0xCDD JUMP JUMPDEST PUSH1 0x40 DUP3 ADD SWAP1 POP SWAP2 SWAP1 POP JUMP JUMPDEST PUSH0 PUSH1 0x20 DUP3 ADD SWAP1 POP DUP2 DUP2 SUB PUSH0 DUP4 ADD MSTORE PUSH2 0xD64 DUP2 PUSH2 0xD2B JUMP JUMPDEST SWAP1 POP SWAP2 SWAP1 POP JUMP JUMPDEST PUSH32 0x4E487B7100000000000000000000000000000000000000000000000000000000 PUSH0 MSTORE PUSH1 0x11 PUSH1 0x4 MSTORE PUSH1 0x24 PUSH0 REVERT JUMPDEST PUSH0 DUP2 PUSH1 0x1 SHR SWAP1 POP SWAP2 SWAP1 POP JUMP JUMPDEST PUSH0 PUSH0 DUP3 SWAP2 POP DUP4 SWAP1 POP JUMPDEST PUSH1 0x1 DUP6 GT ISZERO PUSH2 0xDED JUMPI DUP1 DUP7 DIV DUP2 GT ISZERO PUSH2 0xDC9 JUMPI PUSH2 0xDC8 PUSH2 0xD6B JUMP JUMPDEST JUMPDEST PUSH1 0x1 DUP6 AND ISZERO PUSH2 0xDD8 JUMPI DUP1 DUP3 MUL SWAP2 POP JUMPDEST DUP1 DUP2 MUL SWAP1 POP PUSH2 0xDE6 DUP6 PUSH2 0xD98 JUMP JUMPDEST SWAP5 POP PUSH2 0xDAD JUMP JUMPDEST SWAP5 POP SWAP5 SWAP3 POP POP POP JUMP JUMPDEST PUSH0 DUP3 PUSH2 0xE05 JUMPI PUSH1 0x1 SWAP1 POP PUSH2 0xEC0 JUMP JUMPDEST DUP2 PUSH2 0xE12 JUMPI PUSH0 SWAP1 POP PUSH2 0xEC0 JUMP JUMPDEST DUP2 PUSH1 0x1 DUP2 EQ PUSH2 0xE28 JUMPI PUSH1 0x2 DUP2 EQ PUSH2 0xE32 JUMPI PUSH2 0xE61 JUMP JUMPDEST PUSH1 0x1 SWAP2 POP POP PUSH2 0xEC0 JUMP JUMPDEST PUSH1 0xFF DUP5 GT ISZERO PUSH2 0xE44 JUMPI PUSH2 0xE43 PUSH2 0xD6B JUMP JUMPDEST JUMPDEST DUP4 PUSH1 0x2 EXP SWAP2 POP DUP5 DUP3 GT ISZERO PUSH2 0xE5B JUMPI PUSH2 0xE5A PUSH2 0xD6B JUMP JUMPDEST JUMPDEST POP PUSH2 0xEC0 JUMP JUMPDEST POP PUSH1 0x20 DUP4 LT PUSH2 0x133 DUP4 LT AND PUSH1 0x4E DUP5 LT PUSH1 0xB DUP5 LT AND OR ISZERO PUSH2 0xE96 JUMPI DUP3 DUP3 EXP SWAP1 POP DUP4 DUP2 GT ISZERO PUSH2 0xE91 JUMPI PUSH2 0xE90 PUSH2 0xD6B JUMP JUMPDEST JUMPDEST PUSH2 0xEC0 JUMP JUMPDEST PUSH2 0xEA3 DUP5 DUP5 DUP5 PUSH1 0x1 PUSH2 0xDA4 JUMP JUMPDEST SWAP3 POP SWAP1 POP DUP2 DUP5 DIV DUP2 GT ISZERO PUSH2 0xEBA JUMPI PUSH2 0xEB9 PUSH2 0xD6B JUMP JUMPDEST JUMPDEST DUP2 DUP2 MUL SWAP1 POP JUMPDEST SWAP4 SWAP3 POP POP POP JUMP JUMPDEST PUSH0 PUSH1 0xFF DUP3 AND SWAP1 POP SWAP2 SWAP1 POP JUMP JUMPDEST PUSH0 PUSH2 0xEDD DUP3 PUSH2 0x891 JUMP JUMPDEST SWAP2 POP PUSH2 0xEE8 DUP4 PUSH2 0xEC7 JUMP JUMPDEST SWAP3 POP PUSH2 0xF15 PUSH32 0xFFFFFFFFFFFFFFFFFFFFFFFFFFFFFFFFFFFFFFFFFFFFFFFFFFFFFFFFFFFFFFFF DUP5 DUP5 PUSH2 0xDF6 JUMP JUMPDEST SWAP1 POP SWAP3 SWAP2 POP POP JUMP JUMPDEST PUSH0 PUSH2 0xF27 DUP3 PUSH2 0x891 JUMP JUMPDEST SWAP2 POP PUSH2 0xF32 DUP4 PUSH2 0x891 JUMP JUMPDEST SWAP3 POP DUP3 DUP3 MUL PUSH2 0xF40 DUP2 PUSH2 0x891 JUMP JUMPDEST SWAP2 POP DUP3 DUP3 DIV DUP5 EQ DUP4 ISZERO OR PUSH2 0xF57 JUMPI PUSH2 0xF56 PUSH2 0xD6B JUMP JUMPDEST JUMPDEST POP SWAP3 SWAP2 POP POP JUMP JUMPDEST PUSH32 0x4E487B7100000000000000000000000000000000000000000000000000000000 PUSH0 MSTORE PUSH1 0x32 PUSH1 0x4 MSTORE PUSH1 0x24 PUSH0 REVERT JUMPDEST PUSH0 PUSH2 0xF95 DUP3 PUSH2 0x891 JUMP JUMPDEST SWAP2 POP PUSH2 0xFA0 DUP4 PUSH2 0x891 JUMP JUMPDEST SWAP3 POP DUP3 DUP3 ADD SWAP1 POP DUP1 DUP3 GT ISZERO PUSH2 0xFB8 JUMPI PUSH2 0xFB7 PUSH2 0xD6B JUMP JUMPDEST JUMPDEST SWAP3 SWAP2 POP POP JUMP JUMPDEST PUSH2 0xFC7 DUP2 PUSH2 0x891 JUMP JUMPDEST DUP3 MSTORE POP POP JUMP JUMPDEST PUSH0 PUSH1 0x60 DUP3 ADD SWAP1 POP PUSH2 0xFE0 PUSH0 DUP4 ADD DUP7 PUSH2 0xCA5 JUMP JUMPDEST PUSH2 0xFED PUSH1 0x20 DUP4 ADD DUP6 PUSH2 0xFBE JUMP JUMPDEST PUSH2 0xFFA PUSH1 0x40 DUP4 ADD DUP5 PUSH2 0xFBE JUMP JUMPDEST SWAP5 SWAP4 POP POP POP POP JUMP JUMPDEST PUSH0 PUSH1 0x20 DUP3 ADD SWAP1 POP PUSH2 0x1015 PUSH0 DUP4 ADD DUP5 PUSH2 0xFBE JUMP JUMPDEST SWAP3 SWAP2 POP POP JUMP JUMPDEST PUSH2 0x1659 DUP1 PUSH2 0x1028 PUSH0 CODECOPY PUSH0 RETURN INVALID PUSH1 0x80 PUSH1 0x40 MSTORE CALLVALUE DUP1 ISZERO PUSH2 0xF JUMPI PUSH0 PUSH0 REVERT JUMPDEST POP PUSH1 0x4 CALLDATASIZE LT PUSH2 0xCD JUMPI PUSH0 CALLDATALOAD PUSH1 0xE0 SHR DUP1 PUSH4 0x70A08231 GT PUSH2 0x8A JUMPI DUP1 PUSH4 0x95D89B41 GT PUSH2 0x64 JUMPI DUP1 PUSH4 0x95D89B41 EQ PUSH2 0x1FF JUMPI DUP1 PUSH4 0xA9059CBB EQ PUSH2 0x21D JUMPI DUP1 PUSH4 0xDD62ED3E EQ PUSH2 0x24D JUMPI DUP1 PUSH4 0xF2FDE38B EQ PUSH2 0x27D JUMPI PUSH2 0xCD JUMP JUMPDEST DUP1 PUSH4 0x70A08231 EQ PUSH2 0x1A7 JUMPI DUP1 PUSH4 0x715018A6 EQ PUSH2 0x1D7 JUMPI DUP1 PUSH4 0x8DA5CB5B EQ PUSH2 0x1E1 JUMPI PUSH2 0xCD JUMP JUMPDEST DUP1 PUSH4 0x6FDDE03 EQ PUSH2 0xD1 JUMPI DUP1 PUSH4 0x95EA7B3 EQ PUSH2 0xEF JUMPI DUP1 PUSH4 0x18160DDD EQ PUSH2 0x11F JUMPI DUP1 PUSH4 0x23B872DD EQ PUSH2 0x13D JUMPI DUP1 PUSH4 0x313CE567 EQ PUSH2 0x16D JUMPI DUP1 PUSH4 0x4BD09C2A EQ PUSH2 0x18B JUMPI JUMPDEST PUSH0 PUSH0 REVERT JUMPDEST PUSH2 0xD9 PUSH2 0x299 JUMP JUMPDEST PUSH1 0x40 MLOAD PUSH2 0xE6 SWAP2 SWAP1 PUSH2 0xDDA JUMP JUMPDEST PUSH1 0x40 MLOAD DUP1 SWAP2 SUB SWAP1 RETURN JUMPDEST PUSH2 0x109 PUSH1 0x4 DUP1 CALLDATASIZE SUB DUP2 ADD SWAP1 PUSH2 0x104 SWAP2 SWAP1 PUSH2 0xE98 JUMP JUMPDEST PUSH2 0x329 JUMP JUMPDEST PUSH1 0x40 MLOAD PUSH2 0x116 SWAP2 SWAP1 PUSH2 0xEF0 JUMP JUMPDEST PUSH1 0x40 MLOAD DUP1 SWAP2 SUB SWAP1 RETURN JUMPDEST PUSH2 0x127 PUSH2 0x34B JUMP JUMPDEST PUSH1 0x40 MLOAD PUSH2 0x134 SWAP2 SWAP1 PUSH2 0xF18 JUMP JUMPDEST PUSH1 0x40 MLOAD DUP1 SWAP2 SUB SWAP1 RETURN JUMPDEST PUSH2 0x157 PUSH1 0x4 DUP1 CALLDATASIZE SUB DUP2 ADD SWAP1 PUSH2 0x152 SWAP2 SWAP1 PUSH2 0xF31 JUMP JUMPDEST PUSH2 0x354 JUMP JUMPDEST PUSH1 0x40 MLOAD PUSH2 0x164 SWAP2 SWAP1 PUSH2 0xEF0 JUMP JUMPDEST PUSH1 0x40 MLOAD DUP1 SWAP2 SUB SWAP1 RETURN JUMPDEST PUSH2 0x175 PUSH2 0x382 JUMP JUMPDEST PUSH1 0x40 MLOAD PUSH2 0x182 SWAP2 SWAP1 PUSH2 0xF9C JUMP JUMPDEST PUSH1 0x40 MLOAD DUP1 SWAP2 SUB SWAP1 RETURN JUMPDEST PUSH2 0x1A5 PUSH1 0x4 DUP1 CALLDATASIZE SUB DUP2 ADD SWAP1 PUSH2 0x1A0 SWAP2 SWAP1 PUSH2 0x11B5 JUMP JUMPDEST PUSH2 0x38A JUMP JUMPDEST STOP JUMPDEST PUSH2 0x1C1 PUSH1 0x4 DUP1 CALLDATASIZE SUB DUP2 ADD SWAP1 PUSH2 0x1BC SWAP2 SWAP1 PUSH2 0x122B JUMP JUMPDEST PUSH2 0x453 JUMP JUMPDEST PUSH1 0x40 MLOAD PUSH2 0x1CE SWAP2 SWAP1 PUSH2 0xF18 JUMP JUMPDEST PUSH1 0x40 MLOAD DUP1 SWAP2 SUB SWAP1 RETURN JUMPDEST PUSH2 0x1DF PUSH2 0x464 JUMP JUMPDEST STOP JUMPDEST PUSH2 0x1E9 PUSH2 0x477 JUMP JUMPDEST PUSH1 0x40 MLOAD PUSH2 0x1F6 SWAP2 SWAP1 PUSH2 0x1265 JUMP JUMPDEST PUSH1 0x40 MLOAD DUP1 SWAP2 SUB SWAP1 RETURN JUMPDEST PUSH2 0x207 PUSH2 0x49F JUMP JUMPDEST PUSH1 0x40 MLOAD PUSH2 0x214 SWAP2 SWAP1 PUSH2 0xDDA JUMP JUMPDEST PUSH1 0x40 MLOAD DUP1 SWAP2 SUB SWAP1 RETURN JUMPDEST PUSH2 0x237 PUSH1 0x4 DUP1 CALLDATASIZE SUB DUP2 ADD SWAP1 PUSH2 0x232 SWAP2 SWAP1 PUSH2 0xE98 JUMP JUMPDEST PUSH2 0x52F JUMP JUMPDEST PUSH1 0x40 MLOAD PUSH2 0x244 SWAP2 SWAP1 PUSH2 0xEF0 JUMP JUMPDEST PUSH1 0x40 MLOAD DUP1 SWAP2 SUB SWAP1 RETURN JUMPDEST PUSH2 0x267 PUSH1 0x4 DUP1 CALLDATASIZE SUB DUP2 ADD SWAP1 PUSH2 0x262 SWAP2 SWAP1 PUSH2 0x127E JUMP JUMPDEST PUSH2 0x551 JUMP JUMPDEST PUSH1 0x40 MLOAD PUSH2 0x274 SWAP2 SWAP1 PUSH2 0xF18 JUMP JUMPDEST PUSH1 0x40 MLOAD DUP1 SWAP2 SUB SWAP1 RETURN JUMPDEST PUSH2 0x297 PUSH1 0x4 DUP1 CALLDATASIZE SUB DUP2 ADD SWAP1 PUSH2 0x292 SWAP2 SWAP1 PUSH2 0x122B JUMP JUMPDEST PUSH2 0x5D3 JUMP JUMPDEST STOP JUMPDEST PUSH1 0x60 PUSH1 0x3 DUP1 SLOAD PUSH2 0x2A8 SWAP1 PUSH2 0x12E9 JUMP JUMPDEST DUP1 PUSH1 0x1F ADD PUSH1 0x20 DUP1 SWAP2 DIV MUL PUSH1 0x20 ADD PUSH1 0x40 MLOAD SWAP1 DUP2 ADD PUSH1 0x40 MSTORE DUP1 SWAP3 SWAP2 SWAP1 DUP2 DUP2 MSTORE PUSH1 0x20 ADD DUP3 DUP1 SLOAD PUSH2 0x2D4 SWAP1 PUSH2 0x12E9 JUMP JUMPDEST DUP1 ISZERO PUSH2 0x31F JUMPI DUP1 PUSH1 0x1F LT PUSH2 0x2F6 JUMPI PUSH2 0x100 DUP1 DUP4 SLOAD DIV MUL DUP4 MSTORE SWAP2 PUSH1 0x20 ADD SWAP2 PUSH2 0x31F JUMP JUMPDEST DUP3 ADD SWAP2 SWAP1 PUSH0 MSTORE PUSH1 0x20 PUSH0 KECCAK256 SWAP1 JUMPDEST DUP2 SLOAD DUP2 MSTORE SWAP1 PUSH1 0x1 ADD SWAP1 PUSH1 0x20 ADD DUP1 DUP4 GT PUSH2 0x302 JUMPI DUP3 SWAP1 SUB PUSH1 0x1F AND DUP3 ADD SWAP2 JUMPDEST POP POP POP POP POP SWAP1 POP SWAP1 JUMP JUMPDEST PUSH0 PUSH0 PUSH2 0x333 PUSH2 0x657 JUMP JUMPDEST SWAP1 POP PUSH2 0x340 DUP2 DUP6 DUP6 PUSH2 0x65E JUMP JUMPDEST PUSH1 0x1 SWAP2 POP POP SWAP3 SWAP2 POP POP JUMP JUMPDEST PUSH0 PUSH1 0x2 SLOAD SWAP1 POP SWAP1 JUMP JUMPDEST PUSH0 PUSH0 PUSH2 0x35E PUSH2 0x657 JUMP JUMPDEST SWAP1 POP PUSH2 0x36B DUP6 DUP3 DUP6 PUSH2 0x670 JUMP JUMPDEST PUSH2 0x376 DUP6 DUP6 DUP6 PUSH2 0x703 JUMP JUMPDEST PUSH1 0x1 SWAP2 POP POP SWAP4 SWAP3 POP POP POP JUMP JUMPDEST PUSH0 PUSH1 0x12 SWAP1 POP SWAP1 JUMP JUMPDEST PUSH2 0x392 PUSH2 0x7F3 JUMP JUMPDEST DUP1 MLOAD DUP3 MLOAD EQ PUSH2 0x3D6 JUMPI PUSH1 0x40 MLOAD PUSH32 0x8C379A000000000000000000000000000000000000000000000000000000000 DUP2 MSTORE PUSH1 0x4 ADD PUSH2 0x3CD SWAP1 PUSH2 0x1389 JUMP JUMPDEST PUSH1 0x40 MLOAD DUP1 SWAP2 SUB SWAP1 REVERT JUMPDEST PUSH0 PUSH0 SWAP1 POP JUMPDEST DUP3 MLOAD DUP2 LT ISZERO PUSH2 0x44E JUMPI PUSH2 0x441 ADDRESS DUP5 DUP4 DUP2 MLOAD DUP2 LT PUSH2 0x3FB JUMPI PUSH2 0x3FA PUSH2 0x13A7 JUMP JUMPDEST JUMPDEST PUSH1 0x20 MUL PUSH1 0x20 ADD ADD MLOAD PUSH2 0x40B PUSH2 0x382 JUMP JUMPDEST PUSH1 0xA PUSH2 0x417 SWAP2 SWAP1 PUSH2 0x1530 JUMP JUMPDEST DUP6 DUP6 DUP2 MLOAD DUP2 LT PUSH2 0x42A JUMPI PUSH2 0x429 PUSH2 0x13A7 JUMP JUMPDEST JUMPDEST PUSH1 0x20 MUL PUSH1 0x20 ADD ADD MLOAD PUSH2 0x43C SWAP2 SWAP1 PUSH2 0x157A JUMP JUMPDEST PUSH2 0x703 JUMP JUMPDEST DUP1 DUP1 PUSH1 0x1 ADD SWAP2 POP POP PUSH2 0x3DB JUMP JUMPDEST POP POP POP JUMP JUMPDEST PUSH0 PUSH2 0x45D DUP3 PUSH2 0x87A JUMP JUMPDEST SWAP1 POP SWAP2 SWAP1 POP JUMP JUMPDEST PUSH2 0x46C PUSH2 0x7F3 JUMP JUMPDEST PUSH2 0x475 PUSH0 PUSH2 0x8BF JUMP JUMPDEST JUMP JUMPDEST PUSH0 PUSH1 0x5 PUSH0 SWAP1 SLOAD SWAP1 PUSH2 0x100 EXP SWAP1 DIV PUSH20 0xFFFFFFFFFFFFFFFFFFFFFFFFFFFFFFFFFFFFFFFF AND SWAP1 POP SWAP1 JUMP JUMPDEST PUSH1 0x60 PUSH1 0x4 DUP1 SLOAD PUSH2 0x4AE SWAP1 PUSH2 0x12E9 JUMP JUMPDEST DUP1 PUSH1 0x1F ADD PUSH1 0x20 DUP1 SWAP2 DIV MUL PUSH1 0x20 ADD PUSH1 0x40 MLOAD SWAP1 DUP2 ADD PUSH1 0x40 MSTORE DUP1 SWAP3 SWAP2 SWAP1 DUP2 DUP2 MSTORE PUSH1 0x20 ADD DUP3 DUP1 SLOAD PUSH2 0x4DA SWAP1 PUSH2 0x12E9 JUMP JUMPDEST DUP1 ISZERO PUSH2 0x525 JUMPI DUP1 PUSH1 0x1F LT PUSH2 0x4FC JUMPI PUSH2 0x100 DUP1 DUP4 SLOAD DIV MUL DUP4 MSTORE SWAP2 PUSH1 0x20 ADD SWAP2 PUSH2 0x525 JUMP JUMPDEST DUP3 ADD SWAP2 SWAP1 PUSH0 MSTORE PUSH1 0x20 PUSH0 KECCAK256 SWAP1 JUMPDEST DUP2 SLOAD DUP2 MSTORE SWAP1 PUSH1 0x1 ADD SWAP1 PUSH1 0x20 ADD DUP1 DUP4 GT PUSH2 0x508 JUMPI DUP3 SWAP1 SUB PUSH1 0x1F AND DUP3 ADD SWAP2 JUMPDEST POP POP POP POP POP SWAP1 POP SWAP1 JUMP JUMPDEST PUSH0 PUSH0 PUSH2 0x539 PUSH2 0x657 JUMP JUMPDEST SWAP1 POP PUSH2 0x546 DUP2 DUP6 DUP6 PUSH2 0x703 JUMP JUMPDEST PUSH1 0x1 SWAP2 POP POP SWAP3 SWAP2 POP POP JUMP JUMPDEST PUSH0 PUSH1 0x1 PUSH0 DUP5 PUSH20 0xFFFFFFFFFFFFFFFFFFFFFFFFFFFFFFFFFFFFFFFF AND PUSH20 0xFFFFFFFFFFFFFFFFFFFFFFFFFFFFFFFFFFFFFFFF AND DUP2 MSTORE PUSH1 0x20 ADD SWAP1 DUP2 MSTORE PUSH1 0x20 ADD PUSH0 KECCAK256 PUSH0 DUP4 PUSH20 0xFFFFFFFFFFFFFFFFFFFFFFFFFFFFFFFFFFFFFFFF AND PUSH20 0xFFFFFFFFFFFFFFFFFFFFFFFFFFFFFFFFFFFFFFFF AND DUP2 MSTORE PUSH1 0x20 ADD SWAP1 DUP2 MSTORE PUSH1 0x20 ADD PUSH0 KECCAK256 SLOAD SWAP1 POP SWAP3 SWAP2 POP POP JUMP JUMPDEST PUSH2 0x5DB PUSH2 0x7F3 JUMP JUMPDEST PUSH0 PUSH20 0xFFFFFFFFFFFFFFFFFFFFFFFFFFFFFFFFFFFFFFFF AND DUP2 PUSH20 0xFFFFFFFFFFFFFFFFFFFFFFFFFFFFFFFFFFFFFFFF AND SUB PUSH2 0x64B JUMPI PUSH0 PUSH1 0x40 MLOAD PUSH32 0x1E4FBDF700000000000000000000000000000000000000000000000000000000 DUP2 MSTORE PUSH1 0x4 ADD PUSH2 0x642 SWAP2 SWAP1 PUSH2 0x1265 JUMP JUMPDEST PUSH1 0x40 MLOAD DUP1 SWAP2 SUB SWAP1 REVERT JUMPDEST PUSH2 0x654 DUP2 PUSH2 0x8BF JUMP JUMPDEST POP JUMP JUMPDEST PUSH0 CALLER SWAP1 POP SWAP1 JUMP JUMPDEST PUSH2 0x66B DUP4 DUP4 DUP4 PUSH1 0x1 PUSH2 0x982 JUMP JUMPDEST POP POP POP JUMP JUMPDEST PUSH0 PUSH2 0x67B DUP5 DUP5 PUSH2 0x551 JUMP JUMPDEST SWAP1 POP PUSH32 0xFFFFFFFFFFFFFFFFFFFFFFFFFFFFFFFFFFFFFFFFFFFFFFFFFFFFFFFFFFFFFFFF DUP2 LT ISZERO PUSH2 0x6FD JUMPI DUP2 DUP2 LT ISZERO PUSH2 0x6EE JUMPI DUP3 DUP2 DUP4 PUSH1 0x40 MLOAD PUSH32 0xFB8F41B200000000000000000000000000000000000000000000000000000000 DUP2 MSTORE PUSH1 0x4 ADD PUSH2 0x6E5 SWAP4 SWAP3 SWAP2 SWAP1 PUSH2 0x15BB JUMP JUMPDEST PUSH1 0x40 MLOAD DUP1 SWAP2 SUB SWAP1 REVERT JUMPDEST PUSH2 0x6FC DUP5 DUP5 DUP5 DUP5 SUB PUSH0 PUSH2 0x982 JUMP JUMPDEST JUMPDEST POP POP POP POP JUMP JUMPDEST PUSH0 PUSH20 0xFFFFFFFFFFFFFFFFFFFFFFFFFFFFFFFFFFFFFFFF AND DUP4 PUSH20 0xFFFFFFFFFFFFFFFFFFFFFFFFFFFFFFFFFFFFFFFF AND SUB PUSH2 0x773 JUMPI PUSH0 PUSH1 0x40 MLOAD PUSH32 0x96C6FD1E00000000000000000000000000000000000000000000000000000000 DUP2 MSTORE PUSH1 0x4 ADD PUSH2 0x76A SWAP2 SWAP1 PUSH2 0x1265 JUMP JUMPDEST PUSH1 0x40 MLOAD DUP1 SWAP2 SUB SWAP1 REVERT JUMPDEST PUSH0 PUSH20 0xFFFFFFFFFFFFFFFFFFFFFFFFFFFFFFFFFFFFFFFF AND DUP3 PUSH20 0xFFFFFFFFFFFFFFFFFFFFFFFFFFFFFFFFFFFFFFFF AND SUB PUSH2 0x7E3 JUMPI PUSH0 PUSH1 0x40 MLOAD PUSH32 0xEC442F0500000000000000000000000000000000000000000000000000000000 DUP2 MSTORE PUSH1 0x4 ADD PUSH2 0x7DA SWAP2 SWAP1 PUSH2 0x1265 JUMP JUMPDEST PUSH1 0x40 MLOAD DUP1 SWAP2 SUB SWAP1 REVERT JUMPDEST PUSH2 0x7EE DUP4 DUP4 DUP4 PUSH2 0xB51 JUMP JUMPDEST POP POP POP JUMP JUMPDEST PUSH2 0x7FB PUSH2 0x657 JUMP JUMPDEST PUSH20 0xFFFFFFFFFFFFFFFFFFFFFFFFFFFFFFFFFFFFFFFF AND PUSH2 0x819 PUSH2 0x477 JUMP JUMPDEST PUSH20 0xFFFFFFFFFFFFFFFFFFFFFFFFFFFFFFFFFFFFFFFF AND EQ PUSH2 0x878 JUMPI PUSH2 0x83C PUSH2 0x657 JUMP JUMPDEST PUSH1 0x40 MLOAD PUSH32 0x118CDAA700000000000000000000000000000000000000000000000000000000 DUP2 MSTORE PUSH1 0x4 ADD PUSH2 0x86F SWAP2 SWAP1 PUSH2 0x1265 JUMP JUMPDEST PUSH1 0x40 MLOAD DUP1 SWAP2 SUB SWAP1 REVERT JUMPDEST JUMP JUMPDEST PUSH0 PUSH0 PUSH0 DUP4 PUSH20 0xFFFFFFFFFFFFFFFFFFFFFFFFFFFFFFFFFFFFFFFF AND PUSH20 0xFFFFFFFFFFFFFFFFFFFFFFFFFFFFFFFFFFFFFFFF AND DUP2 MSTORE PUSH1 0x20 ADD SWAP1 DUP2 MSTORE PUSH1 0x20 ADD PUSH0 KECCAK256 SLOAD SWAP1 POP SWAP2 SWAP1 POP JUMP JUMPDEST PUSH0 PUSH1 0x5 PUSH0 SWAP1 SLOAD SWAP1 PUSH2 0x100 EXP SWAP1 DIV PUSH20 0xFFFFFFFFFFFFFFFFFFFFFFFFFFFFFFFFFFFFFFFF AND SWAP1 POP DUP2 PUSH1 0x5 PUSH0 PUSH2 0x100 EXP DUP2 SLOAD DUP2 PUSH20 0xFFFFFFFFFFFFFFFFFFFFFFFFFFFFFFFFFFFFFFFF MUL NOT AND SWAP1 DUP4 PUSH20 0xFFFFFFFFFFFFFFFFFFFFFFFFFFFFFFFFFFFFFFFF AND MUL OR SWAP1 SSTORE POP DUP2 PUSH20 0xFFFFFFFFFFFFFFFFFFFFFFFFFFFFFFFFFFFFFFFF AND DUP2 PUSH20 0xFFFFFFFFFFFFFFFFFFFFFFFFFFFFFFFFFFFFFFFF AND PUSH32 0x8BE0079C531659141344CD1FD0A4F28419497F9722A3DAAFE3B4186F6B6457E0 PUSH1 0x40 MLOAD PUSH1 0x40 MLOAD DUP1 SWAP2 SUB SWAP1 LOG3 POP POP JUMP JUMPDEST PUSH0 PUSH20 0xFFFFFFFFFFFFFFFFFFFFFFFFFFFFFFFFFFFFFFFF AND DUP5 PUSH20 0xFFFFFFFFFFFFFFFFFFFFFFFFFFFFFFFFFFFFFFFF AND SUB PUSH2 0x9F2 JUMPI PUSH0 PUSH1 0x40 MLOAD PUSH32 0xE602DF0500000000000000000000000000000000000000000000000000000000 DUP2 MSTORE PUSH1 0x4 ADD PUSH2 0x9E9 SWAP2 SWAP1 PUSH2 0x1265 JUMP JUMPDEST PUSH1 0x40 MLOAD DUP1 SWAP2 SUB SWAP1 REVERT JUMPDEST PUSH0 PUSH20 0xFFFFFFFFFFFFFFFFFFFFFFFFFFFFFFFFFFFFFFFF AND DUP4 PUSH20 0xFFFFFFFFFFFFFFFFFFFFFFFFFFFFFFFFFFFFFFFF AND SUB PUSH2 0xA62 JUMPI PUSH0 PUSH1 0x40 MLOAD PUSH32 0x94280D6200000000000000000000000000000000000000000000000000000000 DUP2 MSTORE PUSH1 0x4 ADD PUSH2 0xA59 SWAP2 SWAP1 PUSH2 0x1265 JUMP JUMPDEST PUSH1 0x40 MLOAD DUP1 SWAP2 SUB SWAP1 REVERT JUMPDEST DUP2 PUSH1 0x1 PUSH0 DUP7 PUSH20 0xFFFFFFFFFFFFFFFFFFFFFFFFFFFFFFFFFFFFFFFF AND PUSH20 0xFFFFFFFFFFFFFFFFFFFFFFFFFFFFFFFFFFFFFFFF AND DUP2 MSTORE PUSH1 0x20 ADD SWAP1 DUP2 MSTORE PUSH1 0x20 ADD PUSH0 KECCAK256 PUSH0 DUP6 PUSH20 0xFFFFFFFFFFFFFFFFFFFFFFFFFFFFFFFFFFFFFFFF AND PUSH20 0xFFFFFFFFFFFFFFFFFFFFFFFFFFFFFFFFFFFFFFFF AND DUP2 MSTORE PUSH1 0x20 ADD SWAP1 DUP2 MSTORE PUSH1 0x20 ADD PUSH0 KECCAK256 DUP2 SWAP1 SSTORE POP DUP1 ISZERO PUSH2 0xB4B JUMPI DUP3 PUSH20 0xFFFFFFFFFFFFFFFFFFFFFFFFFFFFFFFFFFFFFFFF AND DUP5 PUSH20 0xFFFFFFFFFFFFFFFFFFFFFFFFFFFFFFFFFFFFFFFF AND PUSH32 0x8C5BE1E5EBEC7D5BD14F71427D1E84F3DD0314C0F7B2291E5B200AC8C7C3B925 DUP5 PUSH1 0x40 MLOAD PUSH2 0xB42 SWAP2 SWAP1 PUSH2 0xF18 JUMP JUMPDEST PUSH1 0x40 MLOAD DUP1 SWAP2 SUB SWAP1 LOG3 JUMPDEST POP POP POP POP JUMP JUMPDEST PUSH0 PUSH20 0xFFFFFFFFFFFFFFFFFFFFFFFFFFFFFFFFFFFFFFFF AND DUP4 PUSH20 0xFFFFFFFFFFFFFFFFFFFFFFFFFFFFFFFFFFFFFFFF AND SUB PUSH2 0xBA1 JUMPI DUP1 PUSH1 0x2 PUSH0 DUP3 DUP3 SLOAD PUSH2 0xB95 SWAP2 SWAP1 PUSH2 0x15F0 JUMP JUMPDEST SWAP3 POP POP DUP2 SWAP1 SSTORE POP PUSH2 0xC6F JUMP JUMPDEST PUSH0 PUSH0 PUSH0 DUP6 PUSH20 0xFFFFFFFFFFFFFFFFFFFFFFFFFFFFFFFFFFFFFFFF AND PUSH20 0xFFFFFFFFFFFFFFFFFFFFFFFFFFFFFFFFFFFFFFFF AND DUP2 MSTORE PUSH1 0x20 ADD SWAP1 DUP2 MSTORE PUSH1 0x20 ADD PUSH0 KECCAK256 SLOAD SWAP1 POP DUP2 DUP2 LT ISZERO PUSH2 0xC2A JUMPI DUP4 DUP2 DUP4 PUSH1 0x40 MLOAD PUSH32 0xE450D38C00000000000000000000000000000000000000000000000000000000 DUP2 MSTORE PUSH1 0x4 ADD PUSH2 0xC21 SWAP4 SWAP3 SWAP2 SWAP1 PUSH2 0x15BB JUMP JUMPDEST PUSH1 0x40 MLOAD DUP1 SWAP2 SUB SWAP1 REVERT JUMPDEST DUP2 DUP2 SUB PUSH0 PUSH0 DUP7 PUSH20 0xFFFFFFFFFFFFFFFFFFFFFFFFFFFFFFFFFFFFFFFF AND PUSH20 0xFFFFFFFFFFFFFFFFFFFFFFFFFFFFFFFFFFFFFFFF AND DUP2 MSTORE PUSH1 0x20 ADD SWAP1 DUP2 MSTORE PUSH1 0x20 ADD PUSH0 KECCAK256 DUP2 SWAP1 SSTORE POP POP JUMPDEST PUSH0 PUSH20 0xFFFFFFFFFFFFFFFFFFFFFFFFFFFFFFFFFFFFFFFF AND DUP3 PUSH20 0xFFFFFFFFFFFFFFFFFFFFFFFFFFFFFFFFFFFFFFFF AND SUB PUSH2 0xCB6 JUMPI DUP1 PUSH1 0x2 PUSH0 DUP3 DUP3 SLOAD SUB SWAP3 POP POP DUP2 SWAP1 SSTORE POP PUSH2 0xD00 JUMP JUMPDEST DUP1 PUSH0 PUSH0 DUP5 PUSH20 0xFFFFFFFFFFFFFFFFFFFFFFFFFFFFFFFFFFFFFFFF AND PUSH20 0xFFFFFFFFFFFFFFFFFFFFFFFFFFFFFFFFFFFFFFFF AND DUP2 MSTORE PUSH1 0x20 ADD SWAP1 DUP2 MSTORE PUSH1 0x20 ADD PUSH0 KECCAK256 PUSH0 DUP3 DUP3 SLOAD ADD SWAP3 POP POP DUP2 SWAP1 SSTORE POP JUMPDEST DUP2 PUSH20 0xFFFFFFFFFFFFFFFFFFFFFFFFFFFFFFFFFFFFFFFF AND DUP4 PUSH20 0xFFFFFFFFFFFFFFFFFFFFFFFFFFFFFFFFFFFFFFFF AND PUSH32 0xDDF252AD1BE2C89B69C2B068FC378DAA952BA7F163C4A11628F55A4DF523B3EF DUP4 PUSH1 0x40 MLOAD PUSH2 0xD5D SWAP2 SWAP1 PUSH2 0xF18 JUMP JUMPDEST PUSH1 0x40 MLOAD DUP1 SWAP2 SUB SWAP1 LOG3 POP POP POP JUMP JUMPDEST PUSH0 DUP2 MLOAD SWAP1 POP SWAP2 SWAP1 POP JUMP JUMPDEST PUSH0 DUP3 DUP3 MSTORE PUSH1 0x20 DUP3 ADD SWAP1 POP SWAP3 SWAP2 POP POP JUMP JUMPDEST DUP3 DUP2 DUP4 MCOPY PUSH0 DUP4 DUP4 ADD MSTORE POP POP POP JUMP JUMPDEST PUSH0 PUSH1 0x1F NOT PUSH1 0x1F DUP4 ADD AND SWAP1 POP SWAP2 SWAP1 POP JUMP JUMPDEST PUSH0 PUSH2 0xDAC DUP3 PUSH2 0xD6A JUMP JUMPDEST PUSH2 0xDB6 DUP2 DUP6 PUSH2 0xD74 JUMP JUMPDEST SWAP4 POP PUSH2 0xDC6 DUP2 DUP6 PUSH1 0x20 DUP7 ADD PUSH2 0xD84 JUMP JUMPDEST PUSH2 0xDCF DUP2 PUSH2 0xD92 JUMP JUMPDEST DUP5 ADD SWAP2 POP POP SWAP3 SWAP2 POP POP JUMP JUMPDEST PUSH0 PUSH1 0x20 DUP3 ADD SWAP1 POP DUP2 DUP2 SUB PUSH0 DUP4 ADD MSTORE PUSH2 0xDF2 DUP2 DUP5 PUSH2 0xDA2 JUMP JUMPDEST SWAP1 POP SWAP3 SWAP2 POP POP JUMP JUMPDEST PUSH0 PUSH1 0x40 MLOAD SWAP1 POP SWAP1 JUMP JUMPDEST PUSH0 PUSH0 REVERT JUMPDEST PUSH0 PUSH0 REVERT JUMPDEST PUSH0 PUSH20 0xFFFFFFFFFFFFFFFFFFFFFFFFFFFFFFFFFFFFFFFF DUP3 AND SWAP1 POP SWAP2 SWAP1 POP JUMP JUMPDEST PUSH0 PUSH2 0xE34 DUP3 PUSH2 0xE0B JUMP JUMPDEST SWAP1 POP SWAP2 SWAP1 POP JUMP JUMPDEST PUSH2 0xE44 DUP2 PUSH2 0xE2A JUMP JUMPDEST DUP2 EQ PUSH2 0xE4E JUMPI PUSH0 PUSH0 REVERT JUMPDEST POP JUMP JUMPDEST PUSH0 DUP2 CALLDATALOAD SWAP1 POP PUSH2 0xE5F DUP2 PUSH2 0xE3B JUMP JUMPDEST SWAP3 SWAP2 POP POP JUMP JUMPDEST PUSH0 DUP2 SWAP1 POP SWAP2 SWAP1 POP JUMP JUMPDEST PUSH2 0xE77 DUP2 PUSH2 0xE65 JUMP JUMPDEST DUP2 EQ PUSH2 0xE81 JUMPI PUSH0 PUSH0 REVERT JUMPDEST POP JUMP JUMPDEST PUSH0 DUP2 CALLDATALOAD SWAP1 POP PUSH2 0xE92 DUP2 PUSH2 0xE6E JUMP JUMPDEST SWAP3 SWAP2 POP POP JUMP JUMPDEST PUSH0 PUSH0 PUSH1 0x40 DUP4 DUP6 SUB SLT ISZERO PUSH2 0xEAE JUMPI PUSH2 0xEAD PUSH2 0xE03 JUMP JUMPDEST JUMPDEST PUSH0 PUSH2 0xEBB DUP6 DUP3 DUP7 ADD PUSH2 0xE51 JUMP JUMPDEST SWAP3 POP POP PUSH1 0x20 PUSH2 0xECC DUP6 DUP3 DUP7 ADD PUSH2 0xE84 JUMP JUMPDEST SWAP2 POP POP SWAP3 POP SWAP3 SWAP1 POP JUMP JUMPDEST PUSH0 DUP2 ISZERO ISZERO SWAP1 POP SWAP2 SWAP1 POP JUMP JUMPDEST PUSH2 0xEEA DUP2 PUSH2 0xED6 JUMP JUMPDEST DUP3 MSTORE POP POP JUMP JUMPDEST PUSH0 PUSH1 0x20 DUP3 ADD SWAP1 POP PUSH2 0xF03 PUSH0 DUP4 ADD DUP5 PUSH2 0xEE1 JUMP JUMPDEST SWAP3 SWAP2 POP POP JUMP JUMPDEST PUSH2 0xF12 DUP2 PUSH2 0xE65 JUMP JUMPDEST DUP3 MSTORE POP POP JUMP JUMPDEST PUSH0 PUSH1 0x20 DUP3 ADD SWAP1 POP PUSH2 0xF2B PUSH0 DUP4 ADD DUP5 PUSH2 0xF09 JUMP JUMPDEST SWAP3 SWAP2 POP POP JUMP JUMPDEST PUSH0 PUSH0 PUSH0 PUSH1 0x60 DUP5 DUP7 SUB SLT ISZERO PUSH2 0xF48 JUMPI PUSH2 0xF47 PUSH2 0xE03 JUMP JUMPDEST JUMPDEST PUSH0 PUSH2 0xF55 DUP7 DUP3 DUP8 ADD PUSH2 0xE51 JUMP JUMPDEST SWAP4 POP POP PUSH1 0x20 PUSH2 0xF66 DUP7 DUP3 DUP8 ADD PUSH2 0xE51 JUMP JUMPDEST SWAP3 POP POP PUSH1 0x40 PUSH2 0xF77 DUP7 DUP3 DUP8 ADD PUSH2 0xE84 JUMP JUMPDEST SWAP2 POP POP SWAP3 POP SWAP3 POP SWAP3 JUMP JUMPDEST PUSH0 PUSH1 0xFF DUP3 AND SWAP1 POP SWAP2 SWAP1 POP JUMP JUMPDEST PUSH2 0xF96 DUP2 PUSH2 0xF81 JUMP JUMPDEST DUP3 MSTORE POP POP JUMP JUMPDEST PUSH0 PUSH1 0x20 DUP3 ADD SWAP1 POP PUSH2 0xFAF PUSH0 DUP4 ADD DUP5 PUSH2 0xF8D JUMP JUMPDEST SWAP3 SWAP2 POP POP JUMP JUMPDEST PUSH0 PUSH0 REVERT JUMPDEST PUSH32 0x4E487B7100000000000000000000000000000000000000000000000000000000 PUSH0 MSTORE PUSH1 0x41 PUSH1 0x4 MSTORE PUSH1 0x24 PUSH0 REVERT JUMPDEST PUSH2 0xFEF DUP3 PUSH2 0xD92 JUMP JUMPDEST DUP2 ADD DUP2 DUP2 LT PUSH8 0xFFFFFFFFFFFFFFFF DUP3 GT OR ISZERO PUSH2 0x100E JUMPI PUSH2 0x100D PUSH2 0xFB9 JUMP JUMPDEST JUMPDEST DUP1 PUSH1 0x40 MSTORE POP POP POP JUMP JUMPDEST PUSH0 PUSH2 0x1020 PUSH2 0xDFA JUMP JUMPDEST SWAP1 POP PUSH2 0x102C DUP3 DUP3 PUSH2 0xFE6 JUMP JUMPDEST SWAP2 SWAP1 POP JUMP JUMPDEST PUSH0 PUSH8 0xFFFFFFFFFFFFFFFF DUP3 GT ISZERO PUSH2 0x104B JUMPI PUSH2 0x104A PUSH2 0xFB9 JUMP JUMPDEST JUMPDEST PUSH1 0x20 DUP3 MUL SWAP1 POP PUSH1 0x20 DUP2 ADD SWAP1 POP SWAP2 SWAP1 POP JUMP JUMPDEST PUSH0 PUSH0 REVERT JUMPDEST PUSH0 PUSH2 0x1072 PUSH2 0x106D DUP5 PUSH2 0x1031 JUMP JUMPDEST PUSH2 0x1017 JUMP JUMPDEST SWAP1 POP DUP1 DUP4 DUP3 MSTORE PUSH1 0x20 DUP3 ADD SWAP1 POP PUSH1 0x20 DUP5 MUL DUP4 ADD DUP6 DUP2 GT ISZERO PUSH2 0x1095 JUMPI PUSH2 0x1094 PUSH2 0x105C JUMP JUMPDEST JUMPDEST DUP4 JUMPDEST DUP2 DUP2 LT ISZERO PUSH2 0x10BE JUMPI DUP1 PUSH2 0x10AA DUP9 DUP3 PUSH2 0xE51 JUMP JUMPDEST DUP5 MSTORE PUSH1 0x20 DUP5 ADD SWAP4 POP POP PUSH1 0x20 DUP2 ADD SWAP1 POP PUSH2 0x1097 JUMP JUMPDEST POP POP POP SWAP4 SWAP3 POP POP POP JUMP JUMPDEST PUSH0 DUP3 PUSH1 0x1F DUP4 ADD SLT PUSH2 0x10DC JUMPI PUSH2 0x10DB PUSH2 0xFB5 JUMP JUMPDEST JUMPDEST DUP2 CALLDATALOAD PUSH2 0x10EC DUP5 DUP3 PUSH1 0x20 DUP7 ADD PUSH2 0x1060 JUMP JUMPDEST SWAP2 POP POP SWAP3 SWAP2 POP POP JUMP JUMPDEST PUSH0 PUSH8 0xFFFFFFFFFFFFFFFF DUP3 GT ISZERO PUSH2 0x110F JUMPI PUSH2 0x110E PUSH2 0xFB9 JUMP JUMPDEST JUMPDEST PUSH1 0x20 DUP3 MUL SWAP1 POP PUSH1 0x20 DUP2 ADD SWAP1 POP SWAP2 SWAP1 POP JUMP JUMPDEST PUSH0 PUSH2 0x1132 PUSH2 0x112D DUP5 PUSH2 0x10F5 JUMP JUMPDEST PUSH2 0x1017 JUMP JUMPDEST SWAP1 POP DUP1 DUP4 DUP3 MSTORE PUSH1 0x20 DUP3 ADD SWAP1 POP PUSH1 0x20 DUP5 MUL DUP4 ADD DUP6 DUP2 GT ISZERO PUSH2 0x1155 JUMPI PUSH2 0x1154 PUSH2 0x105C JUMP JUMPDEST JUMPDEST DUP4 JUMPDEST DUP2 DUP2 LT ISZERO PUSH2 0x117E JUMPI DUP1 PUSH2 0x116A DUP9 DUP3 PUSH2 0xE84 JUMP JUMPDEST DUP5 MSTORE PUSH1 0x20 DUP5 ADD SWAP4 POP POP PUSH1 0x20 DUP2 ADD SWAP1 POP PUSH2 0x1157 JUMP JUMPDEST POP POP POP SWAP4 SWAP3 POP POP POP JUMP JUMPDEST PUSH0 DUP3 PUSH1 0x1F DUP4 ADD SLT PUSH2 0x119C JUMPI PUSH2 0x119B PUSH2 0xFB5 JUMP JUMPDEST JUMPDEST DUP2 CALLDATALOAD PUSH2 0x11AC DUP5 DUP3 PUSH1 0x20 DUP7 ADD PUSH2 0x1120 JUMP JUMPDEST SWAP2 POP POP SWAP3 SWAP2 POP POP JUMP JUMPDEST PUSH0 PUSH0 PUSH1 0x40 DUP4 DUP6 SUB SLT ISZERO PUSH2 0x11CB JUMPI PUSH2 0x11CA PUSH2 0xE03 JUMP JUMPDEST JUMPDEST PUSH0 DUP4 ADD CALLDATALOAD PUSH8 0xFFFFFFFFFFFFFFFF DUP2 GT ISZERO PUSH2 0x11E8 JUMPI PUSH2 0x11E7 PUSH2 0xE07 JUMP JUMPDEST JUMPDEST PUSH2 0x11F4 DUP6 DUP3 DUP7 ADD PUSH2 0x10C8 JUMP JUMPDEST SWAP3 POP POP PUSH1 0x20 DUP4 ADD CALLDATALOAD PUSH8 0xFFFFFFFFFFFFFFFF DUP2 GT ISZERO PUSH2 0x1215 JUMPI PUSH2 0x1214 PUSH2 0xE07 JUMP JUMPDEST JUMPDEST PUSH2 0x1221 DUP6 DUP3 DUP7 ADD PUSH2 0x1188 JUMP JUMPDEST SWAP2 POP POP SWAP3 POP SWAP3 SWAP1 POP JUMP JUMPDEST PUSH0 PUSH1 0x20 DUP3 DUP5 SUB SLT ISZERO PUSH2 0x1240 JUMPI PUSH2 0x123F PUSH2 0xE03 JUMP JUMPDEST JUMPDEST PUSH0 PUSH2 0x124D DUP5 DUP3 DUP6 ADD PUSH2 0xE51 JUMP JUMPDEST SWAP2 POP POP SWAP3 SWAP2 POP POP JUMP JUMPDEST PUSH2 0x125F DUP2 PUSH2 0xE2A JUMP JUMPDEST DUP3 MSTORE POP POP JUMP JUMPDEST PUSH0 PUSH1 0x20 DUP3 ADD SWAP1 POP PUSH2 0x1278 PUSH0 DUP4 ADD DUP5 PUSH2 0x1256 JUMP JUMPDEST SWAP3 SWAP2 POP POP JUMP JUMPDEST PUSH0 PUSH0 PUSH1 0x40 DUP4 DUP6 SUB SLT ISZERO PUSH2 0x1294 JUMPI PUSH2 0x1293 PUSH2 0xE03 JUMP JUMPDEST JUMPDEST PUSH0 PUSH2 0x12A1 DUP6 DUP3 DUP7 ADD PUSH2 0xE51 JUMP JUMPDEST SWAP3 POP POP PUSH1 0x20 PUSH2 0x12B2 DUP6 DUP3 DUP7 ADD PUSH2 0xE51 JUMP JUMPDEST SWAP2 POP POP SWAP3 POP SWAP3 SWAP1 POP JUMP JUMPDEST PUSH32 0x4E487B7100000000000000000000000000000000000000000000000000000000 PUSH0 MSTORE PUSH1 0x22 PUSH1 0x4 MSTORE PUSH1 0x24 PUSH0 REVERT JUMPDEST PUSH0 PUSH1 0x2 DUP3 DIV SWAP1 POP PUSH1 0x1 DUP3 AND DUP1 PUSH2 0x1300 JUMPI PUSH1 0x7F DUP3 AND SWAP2 POP JUMPDEST PUSH1 0x20 DUP3 LT DUP2 SUB PUSH2 0x1313 JUMPI PUSH2 0x1312 PUSH2 0x12BC JUMP JUMPDEST JUMPDEST POP SWAP2 SWAP1 POP JUMP JUMPDEST PUSH32 0x526563697069656E747320616E6420616D6F756E7473206C656E677468206D69 PUSH0 DUP3 ADD MSTORE PUSH32 0x736D617463680000000000000000000000000000000000000000000000000000 PUSH1 0x20 DUP3 ADD MSTORE POP JUMP JUMPDEST PUSH0 PUSH2 0x1373 PUSH1 0x26 DUP4 PUSH2 0xD74 JUMP JUMPDEST SWAP2 POP PUSH2 0x137E DUP3 PUSH2 0x1319 JUMP JUMPDEST PUSH1 0x40 DUP3 ADD SWAP1 POP SWAP2 SWAP1 POP JUMP JUMPDEST PUSH0 PUSH1 0x20 DUP3 ADD SWAP1 POP DUP2 DUP2 SUB PUSH0 DUP4 ADD MSTORE PUSH2 0x13A0 DUP2 PUSH2 0x1367 JUMP JUMPDEST SWAP1 POP SWAP2 SWAP1 POP JUMP JUMPDEST PUSH32 0x4E487B7100000000000000000000000000000000000000000000000000000000 PUSH0 MSTORE PUSH1 0x32 PUSH1 0x4 MSTORE PUSH1 0x24 PUSH0 REVERT JUMPDEST PUSH32 0x4E487B7100000000000000000000000000000000000000000000000000000000 PUSH0 MSTORE PUSH1 0x11 PUSH1 0x4 MSTORE PUSH1 0x24 PUSH0 REVERT JUMPDEST PUSH0 DUP2 PUSH1 0x1 SHR SWAP1 POP SWAP2 SWAP1 POP JUMP JUMPDEST PUSH0 PUSH0 DUP3 SWAP2 POP DUP4 SWAP1 POP JUMPDEST PUSH1 0x1 DUP6 GT ISZERO PUSH2 0x1456 JUMPI DUP1 DUP7 DIV DUP2 GT ISZERO PUSH2 0x1432 JUMPI PUSH2 0x1431 PUSH2 0x13D4 JUMP JUMPDEST JUMPDEST PUSH1 0x1 DUP6 AND ISZERO PUSH2 0x1441 JUMPI DUP1 DUP3 MUL SWAP2 POP JUMPDEST DUP1 DUP2 MUL SWAP1 POP PUSH2 0x144F DUP6 PUSH2 0x1401 JUMP JUMPDEST SWAP5 POP PUSH2 0x1416 JUMP JUMPDEST SWAP5 POP SWAP5 SWAP3 POP POP POP JUMP JUMPDEST PUSH0 DUP3 PUSH2 0x146E JUMPI PUSH1 0x1 SWAP1 POP PUSH2 0x1529 JUMP JUMPDEST DUP2 PUSH2 0x147B JUMPI PUSH0 SWAP1 POP PUSH2 0x1529 JUMP JUMPDEST DUP2 PUSH1 0x1 DUP2 EQ PUSH2 0x1491 JUMPI PUSH1 0x2 DUP2 EQ PUSH2 0x149B JUMPI PUSH2 0x14CA JUMP JUMPDEST PUSH1 0x1 SWAP2 POP POP PUSH2 0x1529 JUMP JUMPDEST PUSH1 0xFF DUP5 GT ISZERO PUSH2 0x14AD JUMPI PUSH2 0x14AC PUSH2 0x13D4 JUMP JUMPDEST JUMPDEST DUP4 PUSH1 0x2 EXP SWAP2 POP DUP5 DUP3 GT ISZERO PUSH2 0x14C4 JUMPI PUSH2 0x14C3 PUSH2 0x13D4 JUMP JUMPDEST JUMPDEST POP PUSH2 0x1529 JUMP JUMPDEST POP PUSH1 0x20 DUP4 LT PUSH2 0x133 DUP4 LT AND PUSH1 0x4E DUP5 LT PUSH1 0xB DUP5 LT AND OR ISZERO PUSH2 0x14FF JUMPI DUP3 DUP3 EXP SWAP1 POP DUP4 DUP2 GT ISZERO PUSH2 0x14FA JUMPI PUSH2 0x14F9 PUSH2 0x13D4 JUMP JUMPDEST JUMPDEST PUSH2 0x1529 JUMP JUMPDEST PUSH2 0x150C DUP5 DUP5 DUP5 PUSH1 0x1 PUSH2 0x140D JUMP JUMPDEST SWAP3 POP SWAP1 POP DUP2 DUP5 DIV DUP2 GT ISZERO PUSH2 0x1523 JUMPI PUSH2 0x1522 PUSH2 0x13D4 JUMP JUMPDEST JUMPDEST DUP2 DUP2 MUL SWAP1 POP JUMPDEST SWAP4 SWAP3 POP POP POP JUMP JUMPDEST PUSH0 PUSH2 0x153A DUP3 PUSH2 0xE65 JUMP JUMPDEST SWAP2 POP PUSH2 0x1545 DUP4 PUSH2 0xF81 JUMP JUMPDEST SWAP3 POP PUSH2 0x1572 PUSH32 0xFFFFFFFFFFFFFFFFFFFFFFFFFFFFFFFFFFFFFFFFFFFFFFFFFFFFFFFFFFFFFFFF DUP5 DUP5 PUSH2 0x145F JUMP JUMPDEST SWAP1 POP SWAP3 SWAP2 POP POP JUMP JUMPDEST PUSH0 PUSH2 0x1584 DUP3 PUSH2 0xE65 JUMP JUMPDEST SWAP2 POP PUSH2 0x158F DUP4 PUSH2 0xE65 JUMP JUMPDEST SWAP3 POP DUP3 DUP3 MUL PUSH2 0x159D DUP2 PUSH2 0xE65 JUMP JUMPDEST SWAP2 POP DUP3 DUP3 DIV DUP5 EQ DUP4 ISZERO OR PUSH2 0x15B4 JUMPI PUSH2 0x15B3 PUSH2 0x13D4 JUMP JUMPDEST JUMPDEST POP SWAP3 SWAP2 POP POP JUMP JUMPDEST PUSH0 PUSH1 0x60 DUP3 ADD SWAP1 POP PUSH2 0x15CE PUSH0 DUP4 ADD DUP7 PUSH2 0x1256 JUMP JUMPDEST PUSH2 0x15DB PUSH1 0x20 DUP4 ADD DUP6 PUSH2 0xF09 JUMP JUMPDEST PUSH2 0x15E8 PUSH1 0x40 DUP4 ADD DUP5 PUSH2 0xF09 JUMP JUMPDEST SWAP5 SWAP4 POP POP POP POP JUMP JUMPDEST PUSH0 PUSH2 0x15FA DUP3 PUSH2 0xE65 JUMP JUMPDEST SWAP2 POP PUSH2 0x1605 DUP4 PUSH2 0xE65 JUMP JUMPDEST SWAP3 POP DUP3 DUP3 ADD SWAP1 POP DUP1 DUP3 GT ISZERO PUSH2 0x161D JUMPI PUSH2 0x161C PUSH2 0x13D4 JUMP JUMPDEST JUMPDEST SWAP3 SWAP2 POP POP JUMP INVALID LOG2 PUSH5 0x6970667358 0x22 SLT KECCAK256 0x27 0xC8 PUSH16 0x1D8803CEE99137115C7F42D9C04EE0EA CALL 0xC8 SWAP3 DUP16 SWAPN 0xC7 LOG2 SLOAD PUSH28 0xD7CDD68664736F6C634300081E003300000000000000000000000000 "
				},
				"gasEstimates": {
					"creation": {
						"codeDepositCost": "1144200",
						"executionCost": "infinite",
						"totalCost": "infinite"
					},
					"external": {
						"allowance(address,address)": "infinite",
						"approve(address,uint256)": "infinite",
						"balanceOf(address)": "2893",
						"decimals()": "427",
						"distributeTokens(address[],uint256[])": "infinite",
						"name()": "infinite",
						"owner()": "2582",
						"renounceOwnership()": "infinite",
						"symbol()": "infinite",
						"totalSupply()": "2477",
						"transfer(address,uint256)": "infinite",
						"transferFrom(address,address,uint256)": "infinite",
						"transferOwnership(address)": "infinite"
					}
				},
				"methodIdentifiers": {
					"allowance(address,address)": "dd62ed3e",
					"approve(address,uint256)": "095ea7b3",
					"balanceOf(address)": "70a08231",
					"decimals()": "313ce567",
					"distributeTokens(address[],uint256[])": "4bd09c2a",
					"name()": "06fdde03",
					"owner()": "8da5cb5b",
					"renounceOwnership()": "715018a6",
					"symbol()": "95d89b41",
					"totalSupply()": "18160ddd",
					"transfer(address,uint256)": "a9059cbb",
					"transferFrom(address,address,uint256)": "23b872dd",
					"transferOwnership(address)": "f2fde38b"
				}
			},
			"storageLayout": {
				"storage": [
					{
						"astId": 307,
						"contract": "contracts/ces/test2.sol:TestUSDT",
						"label": "_balances",
						"offset": 0,
						"slot": "0",
						"type": "t_mapping(t_address,t_uint256)"
					},
					{
						"astId": 313,
						"contract": "contracts/ces/test2.sol:TestUSDT",
						"label": "_allowances",
						"offset": 0,
						"slot": "1",
						"type": "t_mapping(t_address,t_mapping(t_address,t_uint256))"
					},
					{
						"astId": 315,
						"contract": "contracts/ces/test2.sol:TestUSDT",
						"label": "_totalSupply",
						"offset": 0,
						"slot": "2",
						"type": "t_uint256"
					},
					{
						"astId": 317,
						"contract": "contracts/ces/test2.sol:TestUSDT",
						"label": "_name",
						"offset": 0,
						"slot": "3",
						"type": "t_string_storage"
					},
					{
						"astId": 319,
						"contract": "contracts/ces/test2.sol:TestUSDT",
						"label": "_symbol",
						"offset": 0,
						"slot": "4",
						"type": "t_string_storage"
					},
					{
						"astId": 8,
						"contract": "contracts/ces/test2.sol:TestUSDT",
						"label": "_owner",
						"offset": 0,
						"slot": "5",
						"type": "t_address"
					}
				],
				"types": {
					"t_address": {
						"encoding": "inplace",
						"label": "address",
						"numberOfBytes": "20"
					},
					"t_mapping(t_address,t_mapping(t_address,t_uint256))": {
						"encoding": "mapping",
						"key": "t_address",
						"label": "mapping(address => mapping(address => uint256))",
						"numberOfBytes": "32",
						"value": "t_mapping(t_address,t_uint256)"
					},
					"t_mapping(t_address,t_uint256)": {
						"encoding": "mapping",
						"key": "t_address",
						"label": "mapping(address => uint256)",
						"numberOfBytes": "32",
						"value": "t_uint256"
					},
					"t_string_storage": {
						"encoding": "bytes",
						"label": "string",
						"numberOfBytes": "32"
					},
					"t_uint256": {
						"encoding": "inplace",
						"label": "uint256",
						"numberOfBytes": "32"
					}
				}
			},
			"userdoc": {
				"kind": "user",
				"methods": {},
				"version": 1
			}
		}
	}
}