{
	"data": {
		"bytecode": {
			"linkReferences": {},
			"object": "60806040526969e10de76676d08000006007556014805460ff19169055348015610027575f5ffd5b50604051613d8e380380613d8e8339810160408190526100469161040d565b604080518082019091526002815261434360f01b602082015233908490600361006f8382610576565b50600461007c8282610576565b5050506001600160a01b0381166100ad57604051631e4fbdf760e01b81525f60048201526024015b60405180910390fd5b6100b6816102e5565b50600160065581516100e35760405162461bcd60e51b8152602060048201525f60248201526044016100a4565b5f81511161010c5760405162461bcd60e51b8152602060048201525f60248201526044016100a4565b5f5b82518110156101ba575f6001600160a01b031683828151811061013357610133610630565b60200260200101516001600160a01b03160361016a5760405162461bcd60e51b8152602060048201525f60248201526044016100a4565b600160085f85848151811061018157610181610630565b6020908102919091018101516001600160a01b031682528101919091526040015f20805460ff191691151591909117905560010161010e565b505f5b81518110156102c5575f6001600160a01b03168282815181106101e2576101e2610630565b60200260200101516001600160a01b0316036102195760405162461bcd60e51b8152602060048201525f60248201526044016100a4565b6001600c5f84848151811061023057610230610630565b60200260200101516001600160a01b03166001600160a01b031681526020019081526020015f205f6101000a81548160ff021916908315150217905550600e82828151811061028157610281610630565b6020908102919091018101518254600180820185555f9485529290932090920180546001600160a01b0319166001600160a01b0390931692909217909155016101bd565b50600b6102d28482610576565b5050426012819055601355506106449050565b600580546001600160a01b038381166001600160a01b0319831681179093556040519116919082907f8be0079c531659141344cd1fd0a4f28419497f9722a3daafe3b4186f6b6457e0905f90a35050565b634e487b7160e01b5f52604160045260245ffd5b604051601f8201601f191681016001600160401b038111828210171561037257610372610336565b604052919050565b5f82601f830112610389575f5ffd5b81516001600160401b038111156103a2576103a2610336565b8060051b6103b26020820161034a565b918252602081850181019290810190868411156103cd575f5ffd5b6020860192505b838310156104035782516001600160a01b03811681146103f2575f5ffd5b8252602092830192909101906103d4565b9695505050505050565b5f5f5f6060848603121561041f575f5ffd5b83516001600160401b03811115610434575f5ffd5b8401601f81018613610444575f5ffd5b80516001600160401b0381111561045d5761045d610336565b610470601f8201601f191660200161034a565b818152876020838501011115610484575f5ffd5b8160208401602083015e5f60208383010152809550505050602084015160018060401b038111156104b3575f5ffd5b6104bf8682870161037a565b604086015190935090506001600160401b038111156104dc575f5ffd5b6104e88682870161037a565b9150509250925092565b600181811c9082168061050657607f821691505b60208210810361052457634e487b7160e01b5f52602260045260245ffd5b50919050565b601f82111561057157805f5260205f20601f840160051c8101602085101561054f5750805b601f840160051c820191505b8181101561056e575f815560010161055b565b50505b505050565b81516001600160401b0381111561058f5761058f610336565b6105a38161059d84546104f2565b8461052a565b6020601f8211600181146105d5575f83156105be5750848201515b5f19600385901b1c1916600184901b17845561056e565b5f84815260208120601f198516915b8281101561060457878501518255602094850194600190920191016105e4565b508482101561062157868401515f19600387901b60f8161c191681555b50505050600190811b01905550565b634e487b7160e01b5f52603260045260245ffd5b61373d806106515f395ff3fe608060405234801561000f575f5ffd5b5060043610610372575f3560e01c806372ce73ab116101d4578063b5fc35ce11610109578063e0a8f6f5116100a9578063f36e32cc11610079578063f36e32cc1461074f578063f3cdcd1e14610757578063fca63efd1461075f578063ff8f164f1461076a575f5ffd5b8063e0a8f6f5146106f1578063e583983614610704578063ef1300c01461072f578063f2fde38b1461073c575f5ffd5b8063cb7a11c2116100e4578063cb7a11c21461067c578063d05166501461068f578063da0239a6146106b1578063dd62ed3e146106b9575f5ffd5b8063b5fc35ce1461065c578063c08cc02d1461066c578063c4bc5da514610674575f5ffd5b806395d89b4111610174578063a9059cbb1161014f578063a9059cbb1461062d578063aba6370514610640578063aca9f47214610646578063ae66c9ea1461064f575f5ffd5b806395d89b41146105e15780639b19251a146105e9578063a3ec138d1461060b575f5ffd5b806380e79a36116101af57806380e79a36146105ad5780638a67456a146105b55780638da5cb5b146105c7578063902d55a5146105d8575f5ffd5b806372ce73ab146105895780637afdf93e1461059c5780637c224d64146105a4575f5ffd5b806323b872dd116102aa57806354fd4d501161024a5780636290865d116102255780636290865d146104695780636c02a9311461055157806370a0823114610559578063715018a614610581575f5ffd5b806354fd4d501461050b5780635584c4f91461052c5780635c975abb14610541575f5ffd5b8063302c464a11610285578063302c464a146104c0578063313ce567146104c857806343859632146104d6578063439766ce14610503575f5ffd5b806323b872dd1461049c5780632d380242146104af5780632de56555146104b8575f5ffd5b80630d61b51911610315578063134e18f4116102f0578063134e18f41461046957806314a8bd0d1461048357806318160ddd1461048b5780632095093314610493575f5ffd5b80630d61b519146104305780630fe2abcf1461044357806312cae7af14610456575f5ffd5b806306fdde031161035057806306fdde03146103ce57806308b26b75146103e3578063095ea7b3146103fa5780630d4efa4f1461041d575f5ffd5b80630121b93f14610376578063013cf08b1461038b578063051069e3146103bb575b5f5ffd5b610389610384366004612f5a565b610779565b005b61039e610399366004612f5a565b6109b7565b6040516103b2989796959493929190612fd3565b60405180910390f35b6103896103c936600461311f565b610a8f565b6103d6610b76565b6040516103b29190613151565b6103ec61012c81565b6040519081526020016103b2565b61040d610408366004613163565b610c06565b60405190151581526020016103b2565b61038961042b3660046131f7565b610c1f565b61038961043e366004612f5a565b61147a565b6103896104513660046132b3565b611c8a565b6103ec6104643660046132dd565b611e19565b5f5b6040516001600160a01b0390911681526020016103b2565b6103ec601481565b6002546103ec565b6103ec60125481565b61040d6104aa3660046132f6565b611e36565b6103ec600a5481565b6103ec600381565b6103ec600581565b6040515f81526020016103b2565b61040d6104e43660046132b3565b600d60209081525f928352604080842090915290825290205460ff1681565b610389611eee565b6040805180820190915260058152640312e302e360dc1b60208201526103d6565b610534611f8f565b6040516103b29190613330565b601154610100900460ff1661040d565b6103d6612073565b6103ec6105673660046132dd565b6001600160a01b03165f9081526020819052604090205490565b6103896120ff565b61046b610597366004612f5a565b612112565b61038961213a565b6103ec61038481565b610389612176565b60115461040d90610100900460ff1681565b6005546001600160a01b031661046b565b6103ec60075481565b6103d6612297565b61040d6105f73660046132dd565b60086020525f908152604090205460ff1681565b61040d6106193660046132dd565b600c6020525f908152604090205460ff1681565b61040d61063b366004613163565b6122a6565b3061046b565b6103ec60135481565b60115461040d9060ff1681565b6103ec68056bc75e2d6310000081565b6103ec612353565b610389612376565b61038961068a36600461311f565b6123e2565b61040d61069d3660046132dd565b60096020525f908152604090205460ff1681565b6103ec6124be565b6103ec6106c7366004613372565b6001600160a01b039182165f90815260016020908152604080832093909416825291909152205490565b6103896106ff366004612f5a565b6124cf565b61040d6107123660046132dd565b6001600160a01b03165f9081526009602052604090205460ff1690565b60145461040d9060ff1681565b61038961074a3660046132dd565b6126a2565b6103ec600281565b6103896126dc565b60145460ff1661040d565b6103ec670de0b6b3a764000081565b601154610100900460ff16156107af5760405162461bcd60e51b8152602060048201525f60248201526044015b60405180910390fd5b335f908152600c602052604090205460ff166107e65760405162461bcd60e51b8152602060048201525f60248201526044016107a6565b5f818152600f60205260409020600881015460ff166108205760405162461bcd60e51b8152602060048201525f60248201526044016107a6565b5f828152600d6020908152604080832033845290915290205460ff16156108625760405162461bcd60e51b8152602060048201525f60248201526044016107a6565b60115460ff161561088e5760405162461bcd60e51b8152602060048201525f60248201526044016107a6565b5f828152600d602090815260408083203384529091528120805460ff1916600190811790915582018054916108c2836133ae565b909155505f90506007825460ff1660088111156108e1576108e1612f71565b148061090257506008825460ff16600881111561090057610900612f71565b145b610954576003825460ff16600881111561091e5761091e612f71565b1015801561094257506006825460ff16600881111561093f5761093f612f71565b11155b61094d576005610957565b6003610957565b60025b905080826001015411156109865760405162461bcd60e51b8152602060048201525f60248201526044016107a6565b604051339084907ff1003b73c437642c0460aee9cd9628b0b8c447b66e6c7c905531b9c644214a11905f90a3505050565b600f6020525f908152604090208054600182015460028301546003840154600485015460058601805460ff8716976101009097046001600160a01b03908116979416939190610a05906133c6565b80601f0160208091040260200160405190810160405280929190818152602001828054610a31906133c6565b8015610a7c5780601f10610a5357610100808354040283529160200191610a7c565b820191905f5260205f20905b815481529060010190602001808311610a5f57829003601f168201915b5050506008909301549192505060ff1688565b610a9761271b565b601154610100900460ff1615610ac85760405162461bcd60e51b8152602060048201525f60248201526044016107a6565b335f908152600c602052604090205460ff16610aff5760405162461bcd60e51b8152602060048201525f60248201526044016107a6565b610b128168056bc75e2d63100000612774565b80604051610b2091906133fe565b6040805191829003822068056bc75e2d6310000083525f6020840152917fc2aead9cf0ee95e5f48d316db6adcf05801aec50b3029bf8afcd0c2faf73b12d91015b60405180910390a2610b736001600655565b50565b606060038054610b85906133c6565b80601f0160208091040260200160405190810160405280929190818152602001828054610bb1906133c6565b8015610bfc5780601f10610bd357610100808354040283529160200191610bfc565b820191905f5260205f20905b815481529060010190602001808311610bdf57829003601f168201915b5050505050905090565b5f33610c138185856128b6565b60019150505b92915050565b601154610100900460ff1615610c505760405162461bcd60e51b8152602060048201525f60248201526044016107a6565b335f908152600c602052604090205460ff16610c875760405162461bcd60e51b8152602060048201525f60248201526044016107a6565b5f866008811115610c9a57610c9a612f71565b03610ccd575f835111610cc85760405162461bcd60e51b8152602060048201525f60248201526044016107a6565b61128b565b6001866008811115610ce157610ce1612f71565b03610d7c57835f03610d0e5760405162461bcd60e51b8152602060048201525f60248201526044016107a6565b600a5484600754610d1f919061343c565b1215610d465760405162461bcd60e51b8152602060048201525f60248201526044016107a6565b5f84600754610d55919061343c565b1215610cc85760405162461bcd60e51b8152602060048201525f60248201526044016107a6565b6002866008811115610d9057610d90612f71565b03610f695780518251148015610da657505f8251115b610dcb5760405162461bcd60e51b8152602060048201525f60248201526044016107a6565b5f5b8251811015610f6357600c5f848381518110610deb57610deb613463565b6020908102919091018101516001600160a01b031682528101919091526040015f205460ff16610e365760405162461bcd60e51b8152602060048201525f60248201526044016107a6565b5f6001600160a01b0316828281518110610e5257610e52613463565b60200260200101516001600160a01b031614158015610ea95750600c5f838381518110610e8157610e81613463565b6020908102919091018101516001600160a01b031682528101919091526040015f205460ff16155b610ece5760405162461bcd60e51b8152602060048201525f60248201526044016107a6565b5f610eda826001613477565b90505b8251811015610f5a57828181518110610ef857610ef8613463565b60200260200101516001600160a01b0316838381518110610f1b57610f1b613463565b60200260200101516001600160a01b031603610f525760405162461bcd60e51b8152602060048201525f60248201526044016107a6565b600101610edd565b50600101610dcd565b5061128b565b6003866008811115610f7d57610f7d612f71565b03610fd7576001600160a01b03851615801590610fb257506001600160a01b0385165f9081526008602052604090205460ff16155b610cc85760405162461bcd60e51b8152602060048201525f60248201526044016107a6565b6004866008811115610feb57610feb612f71565b03611050576001600160a01b0385165f9081526008602052604090205460ff16610cc85760405162461bcd60e51b815260206004820152601660248201527515185c99d95d081b9bdd081dda1a5d195b1a5cdd195960521b60448201526064016107a6565b600586600881111561106457611064612f71565b036110bd576001600160a01b03851615801590610fb257506001600160a01b0385165f9081526009602052604090205460ff1615610cc85760405162461bcd60e51b8152602060048201525f60248201526044016107a6565b60068660088111156110d1576110d1612f71565b03611131576001600160a01b0385165f9081526009602052604090205460ff16610cc85760405162461bcd60e51b81526020600482015260116024820152702a30b933b2ba103737ba10333937bd32b760791b60448201526064016107a6565b600786600881111561114557611145612f71565b036111e0576001600160a01b0385165f9081526008602052604090205460ff16801561117957506001600160a01b03851615155b61119e5760405162461bcd60e51b8152602060048201525f60248201526044016107a6565b5f84118015610fb2575060075484600a546111b99190613477565b1115610cc85760405162461bcd60e51b8152602060048201525f60248201526044016107a6565b60088660088111156111f4576111f4612f71565b0361128b57600184111561123a5760405162461bcd60e51b815260206004820152600d60248201526c496e76616c69642076616c756560981b60448201526064016107a6565b6001600160a01b03851615801561125057508251155b801561125b57508151155b801561126657508051155b61128b5760405162461bcd60e51b8152602060048201525f60248201526044016107a6565b6040518061014001604052808760088111156112a9576112a9612f71565b81523360208201525f604082015260600160028860088111156112ce576112ce612f71565b11156112da57426112e7565b6112e7426202a300613477565b8152602001866001600160a01b0316815260200185815260200184815260200183815260200182815260200160011515815250600f5f60105481526020019081526020015f205f820151815f015f6101000a81548160ff0219169083600881111561135457611354612f71565b021790555060208201518154610100600160a81b0319166101006001600160a01b0392831602178255604083015160018301556060830151600283015560808301516003830180546001600160a01b0319169190921617905560a0820151600482015560c082015160058201906113cb90826134d5565b5060e082015180516113e7916006840191602090910190612e95565b506101008201518051611404916007840191602090910190612e95565b5061012091909101516008909101805460ff19169115159190911790556010546040517f3263432a41f78a4701cc9465f62411ed717ade32290c084135a3dd6b29f4bf28906114569089903390613590565b60405180910390a260108054905f61146d836133ae565b9190505550505050505050565b601154610100900460ff16156114c45760405162461bcd60e51b815260206004820152600f60248201526e10dbdb9d1c9858dd081c185d5cd959608a1b60448201526064016107a6565b5f818152600f602052604090206114da816128c8565b505f815460ff1660088111156114f2576114f2612f71565b036115c95761158a816005018054611509906133c6565b80601f0160208091040260200160405190810160405280929190818152602001828054611535906133c6565b80156115805780601f1061155757610100808354040283529160200191611580565b820191905f5260205f20905b81548152906001019060200180831161156357829003601f168201915b5050505050612a1f565b7f4737457377f528cc8afd815f73ecb8b05df80d047dbffc41c17750a4033592bc816005016040516115bc91906135b6565b60405180910390a1611bc9565b6001815460ff1660088111156115e1576115e1612f71565b0361162d5780600401546007546115f8919061343c565b60078190556040519081527f0acd0677fad7be9ccaf6c91ebaaca5c9c91622ac0508242d2f8feca61a0da249906020016115bc565b6002815460ff16600881111561164557611645612f71565b03611887575f600e80548060200260200160405190810160405280929190818152602001828054801561169f57602002820191905f5260205f20905b81546001600160a01b03168152600190910190602001808311611681575b509394505f93505050505b600683015481101561182d575f600c5f8560060184815481106116cf576116cf613463565b5f918252602080832091909101546001600160a01b031683528201929092526040018120805460ff191692151592909217909155600784018054600192600c9290918590811061172157611721613463565b5f918252602080832091909101546001600160a01b031683528201929092526040018120805460ff1916921515929092179091555b82518110156118245783600601828154811061177457611774613463565b5f9182526020909120015483516001600160a01b039091169084908390811061179f5761179f613463565b60200260200101516001600160a01b03160361181c578360070182815481106117ca576117ca613463565b905f5260205f20015f9054906101000a90046001600160a01b03168382815181106117f7576117f7613463565b60200260200101906001600160a01b031690816001600160a01b031681525050611824565b600101611756565b506001016116aa565b50805161184190600e906020840190612e95565b507f765616ca75e38e63dcc130430614a01fa91bfe57744073b30bf8f4ba8fa31ffc8260060183600701604051611879929190613682565b60405180910390a150611bc9565b6003815460ff16600881111561189f5761189f612f71565b03611925576003810180546001600160a01b039081165f9081526008602052604090819020805460ff19166001908117909155925490519116915f5160206136e85f395f51905f5291611918919060408082526009908201526815da1a5d195b1a5cdd60ba1b6060820152901515602082015260800190565b60405180910390a2611bc9565b6004815460ff16600881111561193d5761193d612f71565b036119ad576003810180546001600160a01b039081165f908152600860209081526040808320805460ff19169055935484518581526009958101959095526815da1a5d195b1a5cdd60ba1b60608601529084019190915216905f5160206136e85f395f51905f5290608001611918565b6005815460ff1660088111156119c5576119c5612f71565b03611a3b576003810180546001600160a01b039081165f9081526009602052604090819020805460ff19166001908117909155925490519116915f5160206136e85f395f51905f52916119189190604080825260069082015265467265657a6560d01b6060820152901515602082015260800190565b6006815460ff166008811115611a5357611a53612f71565b03611ac0576003810180546001600160a01b039081165f908152600960209081526040808320805460ff191690559354845185815260069581019590955265467265657a6560d01b60608601529084019190915216905f5160206136e85f395f51905f5290608001611918565b6007815460ff166008811115611ad857611ad8612f71565b03611b5f5760038101546004820154611afa916001600160a01b031690612a2b565b8060040154600a5f828254611b0f9190613477565b909155505060038101546004820154604080516001600160a01b03909316835260208301919091527f570563f436dc733c61d3863fd95e547272964f69d7b5cfe7461360a7a5643e3c91016115bc565b6008815460ff166008811115611b7757611b77612f71565b03611bc9576004810180546014805460ff191660019283141790559054604051911481527fe593157a0729375978035779b91259998c9123840959cf2016517de561aae9f39060200160405180910390a15b611bd282612a5f565b5f828152600f6020526040812080546001600160a81b031916815560018101829055600281018290556003810180546001600160a01b03191690556004810182905590611c226005830182612ef8565b611c2f600683015f612f2f565b611c3c600783015f612f2f565b50600801805460ff19169055805460405183917f5b9614f21773d68c0b149bda804ff3d491c8bc8795f7ed236cc97804cd00538991611c7e9160ff16906136af565b60405180910390a25050565b611c9261271b565b601154610100900460ff1615611cc35760405162461bcd60e51b8152602060048201525f60248201526044016107a6565b60145460ff1615611d0e576001600160a01b0381165f9081526008602052604090205460ff16611d0e5760405162461bcd60e51b8152602060048201525f60248201526044016107a6565b5f8211611d365760405162461bcd60e51b8152602060048201525f60248201526044016107a6565b5f611d426014846136bd565b90505f8111611d6c5760405162461bcd60e51b8152602060048201525f60248201526044016107a6565b60075481600a54611d7d9190613477565b1115611da45760405162461bcd60e51b8152602060048201525f60248201526044016107a6565b611dae8282612a2b565b80600a5f828254611dbf9190613477565b909155505060408051848152602081018390526001600160a01b0384169133917fbadb5a53e5a7f1f292f32f4ca0c78e80d05f213db774602acc6faca5aecdf6d7910160405180910390a350611e156001600655565b5050565b6001600160a01b0381165f90815260208190526040812054610c19565b6011545f90610100900460ff1615611e695760405162461bcd60e51b8152602060048201525f60248201526044016107a6565b6001600160a01b0384165f9081526009602052604090205460ff1615611eaa5760405162461bcd60e51b8152602060048201525f60248201526044016107a6565b816001600160801b03168214611edb5760405162461bcd60e51b8152602060048201525f60248201526044016107a6565b611ee6848484612b1b565b949350505050565b335f908152600c602052604090205460ff16611f255760405162461bcd60e51b8152602060048201525f60248201526044016107a6565b601154610100900460ff1615611f565760405162461bcd60e51b8152602060048201525f60248201526044016107a6565b6011805461ff0019166101001790556040517fab35696f06e428ebc5ceba8cd17f8fed287baf43440206d1943af1ee53e6d267905f90a1565b60605f805b601054811015611fcd575f818152600f602052604090206008015460ff1615611fc55781611fc1816133ae565b9250505b600101611f94565b508067ffffffffffffffff811115611fe757611fe7613038565b604051908082528060200260200182016040528015612010578160200160208202803683370190505b5091505f805b60105481101561206d575f818152600f602052604090206008015460ff1615612065578084838151811061204c5761204c613463565b602090810291909101015281612061816133ae565b9250505b600101612016565b50505090565b600b8054612080906133c6565b80601f01602080910402602001604051908101604052809291908181526020018280546120ac906133c6565b80156120f75780601f106120ce576101008083540402835291602001916120f7565b820191905f5260205f20905b8154815290600101906020018083116120da57829003601f168201915b505050505081565b612107612b3e565b6121105f612b6b565b565b600e8181548110612121575f80fd5b5f918252602090912001546001600160a01b0316905081565b612142612b3e565b6011805460ff191690556040517f8f69ef9279bfb1fe5f4f75790947a23fa88774e98242b966bcaaf7d25e8b3c16905f90a1565b601154610100900460ff16156121a75760405162461bcd60e51b8152602060048201525f60248201526044016107a6565b335f908152600c602052604090205460ff166121de5760405162461bcd60e51b8152602060048201525f60248201526044016107a6565b61012c6012546121ee9190613477565b4210156122165760405162461bcd60e51b8152602060048201525f60248201526044016107a6565b600754670de0b6b3a7640000600a5461222f9190613477565b11156122565760405162461bcd60e51b8152602060048201525f60248201526044016107a6565b42601255604051670de0b6b3a764000081527f90596ca0cb29ef99cd530e572920440d7d040408f92c28e46836fe9e048f59d89060200160405180910390a1565b606060048054610b85906133c6565b6011545f90610100900460ff16156122d95760405162461bcd60e51b8152602060048201525f60248201526044016107a6565b335f9081526009602052604090205460ff16156123115760405162461bcd60e51b8152602060048201525f60248201526044016107a6565b816001600160801b031682146123425760405162461bcd60e51b8152602060048201525f60248201526044016107a6565b61234c8383612bbc565b9392505050565b5f5f6010541161236257505f90565b600160105461237191906136d4565b905090565b335f908152600c602052604090205460ff166123ad5760405162461bcd60e51b8152602060048201525f60248201526044016107a6565b6011805461ff00191690556040517fab5f6dacf93a267a93a533de8a56370de8341bbd8102017307e7be375c3dda6a905f90a1565b6123ea61271b565b601154610100900460ff161561241b5760405162461bcd60e51b8152602060048201525f60248201526044016107a6565b61038460135461242b9190613477565b4210156124535760405162461bcd60e51b8152602060048201525f60248201526044016107a6565b6124668168056bc75e2d63100000612774565b426013556040516124789082906133fe565b6040805191829003822068056bc75e2d63100000835260016020840152917fc2aead9cf0ee95e5f48d316db6adcf05801aec50b3029bf8afcd0c2faf73b12d9101610b61565b5f600a5460075461237191906136d4565b601154610100900460ff16156125005760405162461bcd60e51b8152602060048201525f60248201526044016107a6565b5f818152600f60205260409020600881015460ff1661253a5760405162461bcd60e51b8152602060048201525f60248201526044016107a6565b805461010090046001600160a01b031633146125715760405162461bcd60e51b8152602060048201525f60248201526044016107a6565b6002815460ff16600881111561258957612589612f71565b11156125b05760405162461bcd60e51b8152602060048201525f60248201526044016107a6565b806002015442106125dc5760405162461bcd60e51b8152602060048201525f60248201526044016107a6565b6125e582612a5f565b80545f838152600f6020526040812080546001600160a81b031916815560018101829055600281018290556003810180546001600160a01b03191690556004810182905560ff909216919061263d6005830182612ef8565b61264a600683015f612f2f565b612657600783015f612f2f565b50600801805460ff1916905560405183907f89616a339342f36e4dcecc713f695bcbfe35fea112c4c652da7e1656bd486ce8906126959084906136af565b60405180910390a2505050565b6126aa612b3e565b6001600160a01b0381166126d357604051631e4fbdf760e01b81525f60048201526024016107a6565b610b7381612b6b565b6126e4612b3e565b6011805460ff191660011790556040517f20c53179fe7c6306d9d1c279d52bae5e736f5e1178137542d3a7a9d1752691be905f90a1565b60026006540361276d5760405162461bcd60e51b815260206004820152601f60248201527f5265656e7472616e637947756172643a207265656e7472616e742063616c6c0060448201526064016107a6565b6002600655565b5f82511161279d5760405162461bcd60e51b8152602060048201525f60248201526044016107a6565b5f8183516127ab91906136bd565b905060075481600a546127be9190613477565b11156127e55760405162461bcd60e51b8152602060048201525f60248201526044016107a6565b5f5b835181101561289a575f84828151811061280357612803613463565b602002602001015190505f6001600160a01b0316816001600160a01b0316036128475760405162461bcd60e51b8152602060048201525f60248201526044016107a6565b6001600160a01b0381165f9081526008602052604090205460ff166128875760405162461bcd60e51b8152602060048201525f60248201526044016107a6565b6128918185612a2b565b506001016127e7565b5080600a5f8282546128ac9190613477565b9091555050505050565b6128c38383836001612bc9565b505050565b60088101545f9060ff166128f75760405162461bcd60e51b8152602060048201525f60248201526044016107a6565b81600201544210156129245760405162461bcd60e51b8152602060048201525f60248201526044016107a6565b5f6007835460ff16600881111561293d5761293d612f71565b148061295e57506008835460ff16600881111561295c5761295c612f71565b145b6129ed576003835460ff16600881111561297a5761297a612f71565b148061299b57506004835460ff16600881111561299957612999612f71565b145b806129bb57506005835460ff1660088111156129b9576129b9612f71565b145b806129db57506006835460ff1660088111156129d9576129d9612f71565b145b6129e65760056129f0565b60036129f0565b60025b90508083600101541015610c195760405162461bcd60e51b8152602060048201525f60248201526044016107a6565b600b611e1582826134d5565b6001600160a01b038216612a545760405163ec442f0560e01b81525f60048201526024016107a6565b611e155f8383612c9c565b5f5b600e54811015611e15575f828152600d60205260408120600e805491929184908110612a8f57612a8f613463565b5f9182526020808320909101546001600160a01b0316835282019290925260400190205460ff1615612b13575f828152600d60205260408120600e805483919085908110612adf57612adf613463565b5f918252602080832091909101546001600160a01b031683528201929092526040019020805460ff19169115159190911790555b600101612a61565b5f33612b28858285612dc2565b612b33858585612e38565b506001949350505050565b6005546001600160a01b031633146121105760405163118cdaa760e01b81523360048201526024016107a6565b600580546001600160a01b038381166001600160a01b0319831681179093556040519116919082907f8be0079c531659141344cd1fd0a4f28419497f9722a3daafe3b4186f6b6457e0905f90a35050565b5f33610c13818585612e38565b6001600160a01b038416612bf25760405163e602df0560e01b81525f60048201526024016107a6565b6001600160a01b038316612c1b57604051634a1406b160e11b81525f60048201526024016107a6565b6001600160a01b038085165f9081526001602090815260408083209387168352929052208290558015612c9657826001600160a01b0316846001600160a01b03167f8c5be1e5ebec7d5bd14f71427d1e84f3dd0314c0f7b2291e5b200ac8c7c3b92584604051612c8d91815260200190565b60405180910390a35b50505050565b6001600160a01b038316612cc6578060025f828254612cbb9190613477565b90915550612d369050565b6001600160a01b0383165f9081526020819052604090205481811015612d185760405163391434e360e21b81526001600160a01b038516600482015260248101829052604481018390526064016107a6565b6001600160a01b0384165f9081526020819052604090209082900390555b6001600160a01b038216612d5257600280548290039055612d70565b6001600160a01b0382165f9081526020819052604090208054820190555b816001600160a01b0316836001600160a01b03167fddf252ad1be2c89b69c2b068fc378daa952ba7f163c4a11628f55a4df523b3ef83604051612db591815260200190565b60405180910390a3505050565b6001600160a01b038381165f908152600160209081526040808320938616835292905220545f19811015612c965781811015612e2a57604051637dc7a0d960e11b81526001600160a01b038416600482015260248101829052604481018390526064016107a6565b612c9684848484035f612bc9565b6001600160a01b038316612e6157604051634b637e8f60e11b81525f60048201526024016107a6565b6001600160a01b038216612e8a5760405163ec442f0560e01b81525f60048201526024016107a6565b6128c3838383612c9c565b828054828255905f5260205f20908101928215612ee8579160200282015b82811115612ee857825182546001600160a01b0319166001600160a01b03909116178255602090920191600190910190612eb3565b50612ef4929150612f46565b5090565b508054612f04906133c6565b5f825580601f10612f13575050565b601f0160209004905f5260205f2090810190610b739190612f46565b5080545f8255905f5260205f2090810190610b7391905b5b80821115612ef4575f8155600101612f47565b5f60208284031215612f6a575f5ffd5b5035919050565b634e487b7160e01b5f52602160045260245ffd5b60098110612fa157634e487b7160e01b5f52602160045260245ffd5b9052565b5f81518084528060208401602086015e5f602082860101526020601f19601f83011685010191505092915050565b612fdd818a612f85565b6001600160a01b03888116602083015260408201889052606082018790528516608082015260a0810184905261010060c082018190525f9061302190830185612fa5565b905082151560e08301529998505050505050505050565b634e487b7160e01b5f52604160045260245ffd5b604051601f8201601f1916810167ffffffffffffffff8111828210171561307557613075613038565b604052919050565b80356001600160a01b0381168114613093575f5ffd5b919050565b5f82601f8301126130a7575f5ffd5b813567ffffffffffffffff8111156130c1576130c1613038565b8060051b6130d16020820161304c565b918252602081850181019290810190868411156130ec575f5ffd5b6020860192505b83831015613115576131048361307d565b8252602092830192909101906130f3565b9695505050505050565b5f6020828403121561312f575f5ffd5b813567ffffffffffffffff811115613145575f5ffd5b611ee684828501613098565b602081525f61234c6020830184612fa5565b5f5f60408385031215613174575f5ffd5b61317d8361307d565b946020939093013593505050565b5f82601f83011261319a575f5ffd5b813567ffffffffffffffff8111156131b4576131b4613038565b6131c7601f8201601f191660200161304c565b8181528460208386010111156131db575f5ffd5b816020850160208301375f918101602001919091529392505050565b5f5f5f5f5f5f60c0878903121561320c575f5ffd5b86356009811061321a575f5ffd5b95506132286020880161307d565b945060408701359350606087013567ffffffffffffffff81111561324a575f5ffd5b61325689828a0161318b565b935050608087013567ffffffffffffffff811115613272575f5ffd5b61327e89828a01613098565b92505060a087013567ffffffffffffffff81111561329a575f5ffd5b6132a689828a01613098565b9150509295509295509295565b5f5f604083850312156132c4575f5ffd5b823591506132d46020840161307d565b90509250929050565b5f602082840312156132ed575f5ffd5b61234c8261307d565b5f5f5f60608486031215613308575f5ffd5b6133118461307d565b925061331f6020850161307d565b929592945050506040919091013590565b602080825282518282018190525f918401906040840190835b81811015613367578351835260209384019390920191600101613349565b509095945050505050565b5f5f60408385031215613383575f5ffd5b61338c8361307d565b91506132d46020840161307d565b634e487b7160e01b5f52601160045260245ffd5b5f600182016133bf576133bf61339a565b5060010190565b600181811c908216806133da57607f821691505b6020821081036133f857634e487b7160e01b5f52602260045260245ffd5b50919050565b81515f90829060208501835b828110156134315781516001600160a01b031684526020938401939091019060010161340a565b509195945050505050565b8082018281125f83128015821682158216171561345b5761345b61339a565b505092915050565b634e487b7160e01b5f52603260045260245ffd5b80820180821115610c1957610c1961339a565b601f8211156128c357805f5260205f20601f840160051c810160208510156134af5750805b601f840160051c820191505b818110156134ce575f81556001016134bb565b5050505050565b815167ffffffffffffffff8111156134ef576134ef613038565b613503816134fd84546133c6565b8461348a565b6020601f821160018114613535575f831561351e5750848201515b5f19600385901b1c1916600184901b1784556134ce565b5f84815260208120601f198516915b828110156135645787850151825560209485019460019092019101613544565b508482101561358157868401515f19600387901b60f8161c191681555b50505050600190811b01905550565b6040810161359e8285612f85565b6001600160a01b039290921660209190910152919050565b602081525f5f83546135c7816133c6565b806020860152600182165f81146135e5576001811461360157613431565b60ff1983166040870152604082151560051b8701019350613431565b865f5260205f205f5b838110156136295781548882016040015260019091019060200161360a565b8701604001945050509195945050505050565b5f8154808452602084019350825f5260205f205f5b828110156136785781546001600160a01b0316865260209095019460019182019101613651565b5093949350505050565b604081525f613694604083018561363c565b82810360208401526136a6818561363c565b95945050505050565b60208101610c198284612f85565b8082028115828204841417610c1957610c1961339a565b81810381811115610c1957610c1961339a56fe708b4d521222bb27f0672d2839e6039075f625a31020905655afd928fc992340a2646970667358221220df648d7a39af2a1a9dc9eeaaf9bd8385ed02642b143cbacf2247850a0a8ae1fa64736f6c634300081e0033",
			"opcodes": "PUSH1 0x80 PUSH1 0x40 MSTORE PUSH10 0x69E10DE76676D0800000 PUSH1 0x7 SSTORE PUSH1 0x14 DUP1 SLOAD PUSH1 0xFF NOT AND SWAP1 SSTORE CALLVALUE DUP1 ISZERO PUSH2 0x27 JUMPI PUSH0 PUSH0 REVERT JUMPDEST POP PUSH1 0x40 MLOAD PUSH2 0x3D8E CODESIZE SUB DUP1 PUSH2 0x3D8E DUP4 CODECOPY DUP2 ADD PUSH1 0x40 DUP2 SWAP1 MSTORE PUSH2 0x46 SWAP2 PUSH2 0x40D JUMP JUMPDEST PUSH1 0x40 DUP1 MLOAD DUP1 DUP3 ADD SWAP1 SWAP2 MSTORE PUSH1 0x2 DUP2 MSTORE PUSH2 0x4343 PUSH1 0xF0 SHL PUSH1 0x20 DUP3 ADD MSTORE CALLER SWAP1 DUP5 SWAP1 PUSH1 0x3 PUSH2 0x6F DUP4 DUP3 PUSH2 0x576 JUMP JUMPDEST POP PUSH1 0x4 PUSH2 0x7C DUP3 DUP3 PUSH2 0x576 JUMP JUMPDEST POP POP POP PUSH1 0x1 PUSH1 0x1 PUSH1 0xA0 SHL SUB DUP2 AND PUSH2 0xAD JUMPI PUSH1 0x40 MLOAD PUSH4 0x1E4FBDF7 PUSH1 0xE0 SHL DUP2 MSTORE PUSH0 PUSH1 0x4 DUP3 ADD MSTORE PUSH1 0x24 ADD JUMPDEST PUSH1 0x40 MLOAD DUP1 SWAP2 SUB SWAP1 REVERT JUMPDEST PUSH2 0xB6 DUP2 PUSH2 0x2E5 JUMP JUMPDEST POP PUSH1 0x1 PUSH1 0x6 SSTORE DUP2 MLOAD PUSH2 0xE3 JUMPI PUSH1 0x40 MLOAD PUSH3 0x461BCD PUSH1 0xE5 SHL DUP2 MSTORE PUSH1 0x20 PUSH1 0x4 DUP3 ADD MSTORE PUSH0 PUSH1 0x24 DUP3 ADD MSTORE PUSH1 0x44 ADD PUSH2 0xA4 JUMP JUMPDEST PUSH0 DUP2 MLOAD GT PUSH2 0x10C JUMPI PUSH1 0x40 MLOAD PUSH3 0x461BCD PUSH1 0xE5 SHL DUP2 MSTORE PUSH1 0x20 PUSH1 0x4 DUP3 ADD MSTORE PUSH0 PUSH1 0x24 DUP3 ADD MSTORE PUSH1 0x44 ADD PUSH2 0xA4 JUMP JUMPDEST PUSH0 JUMPDEST DUP3 MLOAD DUP2 LT ISZERO PUSH2 0x1BA JUMPI PUSH0 PUSH1 0x1 PUSH1 0x1 PUSH1 0xA0 SHL SUB AND DUP4 DUP3 DUP2 MLOAD DUP2 LT PUSH2 0x133 JUMPI PUSH2 0x133 PUSH2 0x630 JUMP JUMPDEST PUSH1 0x20 MUL PUSH1 0x20 ADD ADD MLOAD PUSH1 0x1 PUSH1 0x1 PUSH1 0xA0 SHL SUB AND SUB PUSH2 0x16A JUMPI PUSH1 0x40 MLOAD PUSH3 0x461BCD PUSH1 0xE5 SHL DUP2 MSTORE PUSH1 0x20 PUSH1 0x4 DUP3 ADD MSTORE PUSH0 PUSH1 0x24 DUP3 ADD MSTORE PUSH1 0x44 ADD PUSH2 0xA4 JUMP JUMPDEST PUSH1 0x1 PUSH1 0x8 PUSH0 DUP6 DUP5 DUP2 MLOAD DUP2 LT PUSH2 0x181 JUMPI PUSH2 0x181 PUSH2 0x630 JUMP JUMPDEST PUSH1 0x20 SWAP1 DUP2 MUL SWAP2 SWAP1 SWAP2 ADD DUP2 ADD MLOAD PUSH1 0x1 PUSH1 0x1 PUSH1 0xA0 SHL SUB AND DUP3 MSTORE DUP2 ADD SWAP2 SWAP1 SWAP2 MSTORE PUSH1 0x40 ADD PUSH0 KECCAK256 DUP1 SLOAD PUSH1 0xFF NOT AND SWAP2 ISZERO ISZERO SWAP2 SWAP1 SWAP2 OR SWAP1 SSTORE PUSH1 0x1 ADD PUSH2 0x10E JUMP JUMPDEST POP PUSH0 JUMPDEST DUP2 MLOAD DUP2 LT ISZERO PUSH2 0x2C5 JUMPI PUSH0 PUSH1 0x1 PUSH1 0x1 PUSH1 0xA0 SHL SUB AND DUP3 DUP3 DUP2 MLOAD DUP2 LT PUSH2 0x1E2 JUMPI PUSH2 0x1E2 PUSH2 0x630 JUMP JUMPDEST PUSH1 0x20 MUL PUSH1 0x20 ADD ADD MLOAD PUSH1 0x1 PUSH1 0x1 PUSH1 0xA0 SHL SUB AND SUB PUSH2 0x219 JUMPI PUSH1 0x40 MLOAD PUSH3 0x461BCD PUSH1 0xE5 SHL DUP2 MSTORE PUSH1 0x20 PUSH1 0x4 DUP3 ADD MSTORE PUSH0 PUSH1 0x24 DUP3 ADD MSTORE PUSH1 0x44 ADD PUSH2 0xA4 JUMP JUMPDEST PUSH1 0x1 PUSH1 0xC PUSH0 DUP5 DUP5 DUP2 MLOAD DUP2 LT PUSH2 0x230 JUMPI PUSH2 0x230 PUSH2 0x630 JUMP JUMPDEST PUSH1 0x20 MUL PUSH1 0x20 ADD ADD MLOAD PUSH1 0x1 PUSH1 0x1 PUSH1 0xA0 SHL SUB AND PUSH1 0x1 PUSH1 0x1 PUSH1 0xA0 SHL SUB AND DUP2 MSTORE PUSH1 0x20 ADD SWAP1 DUP2 MSTORE PUSH1 0x20 ADD PUSH0 KECCAK256 PUSH0 PUSH2 0x100 EXP DUP2 SLOAD DUP2 PUSH1 0xFF MUL NOT AND SWAP1 DUP4 ISZERO ISZERO MUL OR SWAP1 SSTORE POP PUSH1 0xE DUP3 DUP3 DUP2 MLOAD DUP2 LT PUSH2 0x281 JUMPI PUSH2 0x281 PUSH2 0x630 JUMP JUMPDEST PUSH1 0x20 SWAP1 DUP2 MUL SWAP2 SWAP1 SWAP2 ADD DUP2 ADD MLOAD DUP3 SLOAD PUSH1 0x1 DUP1 DUP3 ADD DUP6 SSTORE PUSH0 SWAP5 DUP6 MSTORE SWAP3 SWAP1 SWAP4 KECCAK256 SWAP1 SWAP3 ADD DUP1 SLOAD PUSH1 0x1 PUSH1 0x1 PUSH1 0xA0 SHL SUB NOT AND PUSH1 0x1 PUSH1 0x1 PUSH1 0xA0 SHL SUB SWAP1 SWAP4 AND SWAP3 SWAP1 SWAP3 OR SWAP1 SWAP2 SSTORE ADD PUSH2 0x1BD JUMP JUMPDEST POP PUSH1 0xB PUSH2 0x2D2 DUP5 DUP3 PUSH2 0x576 JUMP JUMPDEST POP POP TIMESTAMP PUSH1 0x12 DUP2 SWAP1 SSTORE PUSH1 0x13 SSTORE POP PUSH2 0x644 SWAP1 POP JUMP JUMPDEST PUSH1 0x5 DUP1 SLOAD PUSH1 0x1 PUSH1 0x1 PUSH1 0xA0 SHL SUB DUP4 DUP2 AND PUSH1 0x1 PUSH1 0x1 PUSH1 0xA0 SHL SUB NOT DUP4 AND DUP2 OR SWAP1 SWAP4 SSTORE PUSH1 0x40 MLOAD SWAP2 AND SWAP2 SWAP1 DUP3 SWAP1 PUSH32 0x8BE0079C531659141344CD1FD0A4F28419497F9722A3DAAFE3B4186F6B6457E0 SWAP1 PUSH0 SWAP1 LOG3 POP POP JUMP JUMPDEST PUSH4 0x4E487B71 PUSH1 0xE0 SHL PUSH0 MSTORE PUSH1 0x41 PUSH1 0x4 MSTORE PUSH1 0x24 PUSH0 REVERT JUMPDEST PUSH1 0x40 MLOAD PUSH1 0x1F DUP3 ADD PUSH1 0x1F NOT AND DUP2 ADD PUSH1 0x1 PUSH1 0x1 PUSH1 0x40 SHL SUB DUP2 GT DUP3 DUP3 LT OR ISZERO PUSH2 0x372 JUMPI PUSH2 0x372 PUSH2 0x336 JUMP JUMPDEST PUSH1 0x40 MSTORE SWAP2 SWAP1 POP JUMP JUMPDEST PUSH0 DUP3 PUSH1 0x1F DUP4 ADD SLT PUSH2 0x389 JUMPI PUSH0 PUSH0 REVERT JUMPDEST DUP2 MLOAD PUSH1 0x1 PUSH1 0x1 PUSH1 0x40 SHL SUB DUP2 GT ISZERO PUSH2 0x3A2 JUMPI PUSH2 0x3A2 PUSH2 0x336 JUMP JUMPDEST DUP1 PUSH1 0x5 SHL PUSH2 0x3B2 PUSH1 0x20 DUP3 ADD PUSH2 0x34A JUMP JUMPDEST SWAP2 DUP3 MSTORE PUSH1 0x20 DUP2 DUP6 ADD DUP2 ADD SWAP3 SWAP1 DUP2 ADD SWAP1 DUP7 DUP5 GT ISZERO PUSH2 0x3CD JUMPI PUSH0 PUSH0 REVERT JUMPDEST PUSH1 0x20 DUP7 ADD SWAP3 POP JUMPDEST DUP4 DUP4 LT ISZERO PUSH2 0x403 JUMPI DUP3 MLOAD PUSH1 0x1 PUSH1 0x1 PUSH1 0xA0 SHL SUB DUP2 AND DUP2 EQ PUSH2 0x3F2 JUMPI PUSH0 PUSH0 REVERT JUMPDEST DUP3 MSTORE PUSH1 0x20 SWAP3 DUP4 ADD SWAP3 SWAP1 SWAP2 ADD SWAP1 PUSH2 0x3D4 JUMP JUMPDEST SWAP7 SWAP6 POP POP POP POP POP POP JUMP JUMPDEST PUSH0 PUSH0 PUSH0 PUSH1 0x60 DUP5 DUP7 SUB SLT ISZERO PUSH2 0x41F JUMPI PUSH0 PUSH0 REVERT JUMPDEST DUP4 MLOAD PUSH1 0x1 PUSH1 0x1 PUSH1 0x40 SHL SUB DUP2 GT ISZERO PUSH2 0x434 JUMPI PUSH0 PUSH0 REVERT JUMPDEST DUP5 ADD PUSH1 0x1F DUP2 ADD DUP7 SGT PUSH2 0x444 JUMPI PUSH0 PUSH0 REVERT JUMPDEST DUP1 MLOAD PUSH1 0x1 PUSH1 0x1 PUSH1 0x40 SHL SUB DUP2 GT ISZERO PUSH2 0x45D JUMPI PUSH2 0x45D PUSH2 0x336 JUMP JUMPDEST PUSH2 0x470 PUSH1 0x1F DUP3 ADD PUSH1 0x1F NOT AND PUSH1 0x20 ADD PUSH2 0x34A JUMP JUMPDEST DUP2 DUP2 MSTORE DUP8 PUSH1 0x20 DUP4 DUP6 ADD ADD GT ISZERO PUSH2 0x484 JUMPI PUSH0 PUSH0 REVERT JUMPDEST DUP2 PUSH1 0x20 DUP5 ADD PUSH1 0x20 DUP4 ADD MCOPY PUSH0 PUSH1 0x20 DUP4 DUP4 ADD ADD MSTORE DUP1 SWAP6 POP POP POP POP PUSH1 0x20 DUP5 ADD MLOAD PUSH1 0x1 DUP1 PUSH1 0x40 SHL SUB DUP2 GT ISZERO PUSH2 0x4B3 JUMPI PUSH0 PUSH0 REVERT JUMPDEST PUSH2 0x4BF DUP7 DUP3 DUP8 ADD PUSH2 0x37A JUMP JUMPDEST PUSH1 0x40 DUP7 ADD MLOAD SWAP1 SWAP4 POP SWAP1 POP PUSH1 0x1 PUSH1 0x1 PUSH1 0x40 SHL SUB DUP2 GT ISZERO PUSH2 0x4DC JUMPI PUSH0 PUSH0 REVERT JUMPDEST PUSH2 0x4E8 DUP7 DUP3 DUP8 ADD PUSH2 0x37A JUMP JUMPDEST SWAP2 POP POP SWAP3 POP SWAP3 POP SWAP3 JUMP JUMPDEST PUSH1 0x1 DUP2 DUP2 SHR SWAP1 DUP3 AND DUP1 PUSH2 0x506 JUMPI PUSH1 0x7F DUP3 AND SWAP2 POP JUMPDEST PUSH1 0x20 DUP3 LT DUP2 SUB PUSH2 0x524 JUMPI PUSH4 0x4E487B71 PUSH1 0xE0 SHL PUSH0 MSTORE PUSH1 0x22 PUSH1 0x4 MSTORE PUSH1 0x24 PUSH0 REVERT JUMPDEST POP SWAP2 SWAP1 POP JUMP JUMPDEST PUSH1 0x1F DUP3 GT ISZERO PUSH2 0x571 JUMPI DUP1 PUSH0 MSTORE PUSH1 0x20 PUSH0 KECCAK256 PUSH1 0x1F DUP5 ADD PUSH1 0x5 SHR DUP2 ADD PUSH1 0x20 DUP6 LT ISZERO PUSH2 0x54F JUMPI POP DUP1 JUMPDEST PUSH1 0x1F DUP5 ADD PUSH1 0x5 SHR DUP3 ADD SWAP2 POP JUMPDEST DUP2 DUP2 LT ISZERO PUSH2 0x56E JUMPI PUSH0 DUP2 SSTORE PUSH1 0x1 ADD PUSH2 0x55B JUMP JUMPDEST POP POP JUMPDEST POP POP POP JUMP JUMPDEST DUP2 MLOAD PUSH1 0x1 PUSH1 0x1 PUSH1 0x40 SHL SUB DUP2 GT ISZERO PUSH2 0x58F JUMPI PUSH2 0x58F PUSH2 0x336 JUMP JUMPDEST PUSH2 0x5A3 DUP2 PUSH2 0x59D DUP5 SLOAD PUSH2 0x4F2 JUMP JUMPDEST DUP5 PUSH2 0x52A JUMP JUMPDEST PUSH1 0x20 PUSH1 0x1F DUP3 GT PUSH1 0x1 DUP2 EQ PUSH2 0x5D5 JUMPI PUSH0 DUP4 ISZERO PUSH2 0x5BE JUMPI POP DUP5 DUP3 ADD MLOAD JUMPDEST PUSH0 NOT PUSH1 0x3 DUP6 SWAP1 SHL SHR NOT AND PUSH1 0x1 DUP5 SWAP1 SHL OR DUP5 SSTORE PUSH2 0x56E JUMP JUMPDEST PUSH0 DUP5 DUP2 MSTORE PUSH1 0x20 DUP2 KECCAK256 PUSH1 0x1F NOT DUP6 AND SWAP2 JUMPDEST DUP3 DUP2 LT ISZERO PUSH2 0x604 JUMPI DUP8 DUP6 ADD MLOAD DUP3 SSTORE PUSH1 0x20 SWAP5 DUP6 ADD SWAP5 PUSH1 0x1 SWAP1 SWAP3 ADD SWAP2 ADD PUSH2 0x5E4 JUMP JUMPDEST POP DUP5 DUP3 LT ISZERO PUSH2 0x621 JUMPI DUP7 DUP5 ADD MLOAD PUSH0 NOT PUSH1 0x3 DUP8 SWAP1 SHL PUSH1 0xF8 AND SHR NOT AND DUP2 SSTORE JUMPDEST POP POP POP POP PUSH1 0x1 SWAP1 DUP2 SHL ADD SWAP1 SSTORE POP JUMP JUMPDEST PUSH4 0x4E487B71 PUSH1 0xE0 SHL PUSH0 MSTORE PUSH1 0x32 PUSH1 0x4 MSTORE PUSH1 0x24 PUSH0 REVERT JUMPDEST PUSH2 0x373D DUP1 PUSH2 0x651 PUSH0 CODECOPY PUSH0 RETURN INVALID PUSH1 0x80 PUSH1 0x40 MSTORE CALLVALUE DUP1 ISZERO PUSH2 0xF JUMPI PUSH0 PUSH0 REVERT JUMPDEST POP PUSH1 0x4 CALLDATASIZE LT PUSH2 0x372 JUMPI PUSH0 CALLDATALOAD PUSH1 0xE0 SHR DUP1 PUSH4 0x72CE73AB GT PUSH2 0x1D4 JUMPI DUP1 PUSH4 0xB5FC35CE GT PUSH2 0x109 JUMPI DUP1 PUSH4 0xE0A8F6F5 GT PUSH2 0xA9 JUMPI DUP1 PUSH4 0xF36E32CC GT PUSH2 0x79 JUMPI DUP1 PUSH4 0xF36E32CC EQ PUSH2 0x74F JUMPI DUP1 PUSH4 0xF3CDCD1E EQ PUSH2 0x757 JUMPI DUP1 PUSH4 0xFCA63EFD EQ PUSH2 0x75F JUMPI DUP1 PUSH4 0xFF8F164F EQ PUSH2 0x76A JUMPI PUSH0 PUSH0 REVERT JUMPDEST DUP1 PUSH4 0xE0A8F6F5 EQ PUSH2 0x6F1 JUMPI DUP1 PUSH4 0xE5839836 EQ PUSH2 0x704 JUMPI DUP1 PUSH4 0xEF1300C0 EQ PUSH2 0x72F JUMPI DUP1 PUSH4 0xF2FDE38B EQ PUSH2 0x73C JUMPI PUSH0 PUSH0 REVERT JUMPDEST DUP1 PUSH4 0xCB7A11C2 GT PUSH2 0xE4 JUMPI DUP1 PUSH4 0xCB7A11C2 EQ PUSH2 0x67C JUMPI DUP1 PUSH4 0xD0516650 EQ PUSH2 0x68F JUMPI DUP1 PUSH4 0xDA0239A6 EQ PUSH2 0x6B1 JUMPI DUP1 PUSH4 0xDD62ED3E EQ PUSH2 0x6B9 JUMPI PUSH0 PUSH0 REVERT JUMPDEST DUP1 PUSH4 0xB5FC35CE EQ PUSH2 0x65C JUMPI DUP1 PUSH4 0xC08CC02D EQ PUSH2 0x66C JUMPI DUP1 PUSH4 0xC4BC5DA5 EQ PUSH2 0x674 JUMPI PUSH0 PUSH0 REVERT JUMPDEST DUP1 PUSH4 0x95D89B41 GT PUSH2 0x174 JUMPI DUP1 PUSH4 0xA9059CBB GT PUSH2 0x14F JUMPI DUP1 PUSH4 0xA9059CBB EQ PUSH2 0x62D JUMPI DUP1 PUSH4 0xABA63705 EQ PUSH2 0x640 JUMPI DUP1 PUSH4 0xACA9F472 EQ PUSH2 0x646 JUMPI DUP1 PUSH4 0xAE66C9EA EQ PUSH2 0x64F JUMPI PUSH0 PUSH0 REVERT JUMPDEST DUP1 PUSH4 0x95D89B41 EQ PUSH2 0x5E1 JUMPI DUP1 PUSH4 0x9B19251A EQ PUSH2 0x5E9 JUMPI DUP1 PUSH4 0xA3EC138D EQ PUSH2 0x60B JUMPI PUSH0 PUSH0 REVERT JUMPDEST DUP1 PUSH4 0x80E79A36 GT PUSH2 0x1AF JUMPI DUP1 PUSH4 0x80E79A36 EQ PUSH2 0x5AD JUMPI DUP1 PUSH4 0x8A67456A EQ PUSH2 0x5B5 JUMPI DUP1 PUSH4 0x8DA5CB5B EQ PUSH2 0x5C7 JUMPI DUP1 PUSH4 0x902D55A5 EQ PUSH2 0x5D8 JUMPI PUSH0 PUSH0 REVERT JUMPDEST DUP1 PUSH4 0x72CE73AB EQ PUSH2 0x589 JUMPI DUP1 PUSH4 0x7AFDF93E EQ PUSH2 0x59C JUMPI DUP1 PUSH4 0x7C224D64 EQ PUSH2 0x5A4 JUMPI PUSH0 PUSH0 REVERT JUMPDEST DUP1 PUSH4 0x23B872DD GT PUSH2 0x2AA JUMPI DUP1 PUSH4 0x54FD4D50 GT PUSH2 0x24A JUMPI DUP1 PUSH4 0x6290865D GT PUSH2 0x225 JUMPI DUP1 PUSH4 0x6290865D EQ PUSH2 0x469 JUMPI DUP1 PUSH4 0x6C02A931 EQ PUSH2 0x551 JUMPI DUP1 PUSH4 0x70A08231 EQ PUSH2 0x559 JUMPI DUP1 PUSH4 0x715018A6 EQ PUSH2 0x581 JUMPI PUSH0 PUSH0 REVERT JUMPDEST DUP1 PUSH4 0x54FD4D50 EQ PUSH2 0x50B JUMPI DUP1 PUSH4 0x5584C4F9 EQ PUSH2 0x52C JUMPI DUP1 PUSH4 0x5C975ABB EQ PUSH2 0x541 JUMPI PUSH0 PUSH0 REVERT JUMPDEST DUP1 PUSH4 0x302C464A GT PUSH2 0x285 JUMPI DUP1 PUSH4 0x302C464A EQ PUSH2 0x4C0 JUMPI DUP1 PUSH4 0x313CE567 EQ PUSH2 0x4C8 JUMPI DUP1 PUSH4 0x43859632 EQ PUSH2 0x4D6 JUMPI DUP1 PUSH4 0x439766CE EQ PUSH2 0x503 JUMPI PUSH0 PUSH0 REVERT JUMPDEST DUP1 PUSH4 0x23B872DD EQ PUSH2 0x49C JUMPI DUP1 PUSH4 0x2D380242 EQ PUSH2 0x4AF JUMPI DUP1 PUSH4 0x2DE56555 EQ PUSH2 0x4B8 JUMPI PUSH0 PUSH0 REVERT JUMPDEST DUP1 PUSH4 0xD61B519 GT PUSH2 0x315 JUMPI DUP1 PUSH4 0x134E18F4 GT PUSH2 0x2F0 JUMPI DUP1 PUSH4 0x134E18F4 EQ PUSH2 0x469 JUMPI DUP1 PUSH4 0x14A8BD0D EQ PUSH2 0x483 JUMPI DUP1 PUSH4 0x18160DDD EQ PUSH2 0x48B JUMPI DUP1 PUSH4 0x20950933 EQ PUSH2 0x493 JUMPI PUSH0 PUSH0 REVERT JUMPDEST DUP1 PUSH4 0xD61B519 EQ PUSH2 0x430 JUMPI DUP1 PUSH4 0xFE2ABCF EQ PUSH2 0x443 JUMPI DUP1 PUSH4 0x12CAE7AF EQ PUSH2 0x456 JUMPI PUSH0 PUSH0 REVERT JUMPDEST DUP1 PUSH4 0x6FDDE03 GT PUSH2 0x350 JUMPI DUP1 PUSH4 0x6FDDE03 EQ PUSH2 0x3CE JUMPI DUP1 PUSH4 0x8B26B75 EQ PUSH2 0x3E3 JUMPI DUP1 PUSH4 0x95EA7B3 EQ PUSH2 0x3FA JUMPI DUP1 PUSH4 0xD4EFA4F EQ PUSH2 0x41D JUMPI PUSH0 PUSH0 REVERT JUMPDEST DUP1 PUSH4 0x121B93F EQ PUSH2 0x376 JUMPI DUP1 PUSH4 0x13CF08B EQ PUSH2 0x38B JUMPI DUP1 PUSH4 0x51069E3 EQ PUSH2 0x3BB JUMPI JUMPDEST PUSH0 PUSH0 REVERT JUMPDEST PUSH2 0x389 PUSH2 0x384 CALLDATASIZE PUSH1 0x4 PUSH2 0x2F5A JUMP JUMPDEST PUSH2 0x779 JUMP JUMPDEST STOP JUMPDEST PUSH2 0x39E PUSH2 0x399 CALLDATASIZE PUSH1 0x4 PUSH2 0x2F5A JUMP JUMPDEST PUSH2 0x9B7 JUMP JUMPDEST PUSH1 0x40 MLOAD PUSH2 0x3B2 SWAP9 SWAP8 SWAP7 SWAP6 SWAP5 SWAP4 SWAP3 SWAP2 SWAP1 PUSH2 0x2FD3 JUMP JUMPDEST PUSH1 0x40 MLOAD DUP1 SWAP2 SUB SWAP1 RETURN JUMPDEST PUSH2 0x389 PUSH2 0x3C9 CALLDATASIZE PUSH1 0x4 PUSH2 0x311F JUMP JUMPDEST PUSH2 0xA8F JUMP JUMPDEST PUSH2 0x3D6 PUSH2 0xB76 JUMP JUMPDEST PUSH1 0x40 MLOAD PUSH2 0x3B2 SWAP2 SWAP1 PUSH2 0x3151 JUMP JUMPDEST PUSH2 0x3EC PUSH2 0x12C DUP2 JUMP JUMPDEST PUSH1 0x40 MLOAD SWAP1 DUP2 MSTORE PUSH1 0x20 ADD PUSH2 0x3B2 JUMP JUMPDEST PUSH2 0x40D PUSH2 0x408 CALLDATASIZE PUSH1 0x4 PUSH2 0x3163 JUMP JUMPDEST PUSH2 0xC06 JUMP JUMPDEST PUSH1 0x40 MLOAD SWAP1 ISZERO ISZERO DUP2 MSTORE PUSH1 0x20 ADD PUSH2 0x3B2 JUMP JUMPDEST PUSH2 0x389 PUSH2 0x42B CALLDATASIZE PUSH1 0x4 PUSH2 0x31F7 JUMP JUMPDEST PUSH2 0xC1F JUMP JUMPDEST PUSH2 0x389 PUSH2 0x43E CALLDATASIZE PUSH1 0x4 PUSH2 0x2F5A JUMP JUMPDEST PUSH2 0x147A JUMP JUMPDEST PUSH2 0x389 PUSH2 0x451 CALLDATASIZE PUSH1 0x4 PUSH2 0x32B3 JUMP JUMPDEST PUSH2 0x1C8A JUMP JUMPDEST PUSH2 0x3EC PUSH2 0x464 CALLDATASIZE PUSH1 0x4 PUSH2 0x32DD JUMP JUMPDEST PUSH2 0x1E19 JUMP JUMPDEST PUSH0 JUMPDEST PUSH1 0x40 MLOAD PUSH1 0x1 PUSH1 0x1 PUSH1 0xA0 SHL SUB SWAP1 SWAP2 AND DUP2 MSTORE PUSH1 0x20 ADD PUSH2 0x3B2 JUMP JUMPDEST PUSH2 0x3EC PUSH1 0x14 DUP2 JUMP JUMPDEST PUSH1 0x2 SLOAD PUSH2 0x3EC JUMP JUMPDEST PUSH2 0x3EC PUSH1 0x12 SLOAD DUP2 JUMP JUMPDEST PUSH2 0x40D PUSH2 0x4AA CALLDATASIZE PUSH1 0x4 PUSH2 0x32F6 JUMP JUMPDEST PUSH2 0x1E36 JUMP JUMPDEST PUSH2 0x3EC PUSH1 0xA SLOAD DUP2 JUMP JUMPDEST PUSH2 0x3EC PUSH1 0x3 DUP2 JUMP JUMPDEST PUSH2 0x3EC PUSH1 0x5 DUP2 JUMP JUMPDEST PUSH1 0x40 MLOAD PUSH0 DUP2 MSTORE PUSH1 0x20 ADD PUSH2 0x3B2 JUMP JUMPDEST PUSH2 0x40D PUSH2 0x4E4 CALLDATASIZE PUSH1 0x4 PUSH2 0x32B3 JUMP JUMPDEST PUSH1 0xD PUSH1 0x20 SWAP1 DUP2 MSTORE PUSH0 SWAP3 DUP4 MSTORE PUSH1 0x40 DUP1 DUP5 KECCAK256 SWAP1 SWAP2 MSTORE SWAP1 DUP3 MSTORE SWAP1 KECCAK256 SLOAD PUSH1 0xFF AND DUP2 JUMP JUMPDEST PUSH2 0x389 PUSH2 0x1EEE JUMP JUMPDEST PUSH1 0x40 DUP1 MLOAD DUP1 DUP3 ADD SWAP1 SWAP2 MSTORE PUSH1 0x5 DUP2 MSTORE PUSH5 0x312E302E3 PUSH1 0xDC SHL PUSH1 0x20 DUP3 ADD MSTORE PUSH2 0x3D6 JUMP JUMPDEST PUSH2 0x534 PUSH2 0x1F8F JUMP JUMPDEST PUSH1 0x40 MLOAD PUSH2 0x3B2 SWAP2 SWAP1 PUSH2 0x3330 JUMP JUMPDEST PUSH1 0x11 SLOAD PUSH2 0x100 SWAP1 DIV PUSH1 0xFF AND PUSH2 0x40D JUMP JUMPDEST PUSH2 0x3D6 PUSH2 0x2073 JUMP JUMPDEST PUSH2 0x3EC PUSH2 0x567 CALLDATASIZE PUSH1 0x4 PUSH2 0x32DD JUMP JUMPDEST PUSH1 0x1 PUSH1 0x1 PUSH1 0xA0 SHL SUB AND PUSH0 SWAP1 DUP2 MSTORE PUSH1 0x20 DUP2 SWAP1 MSTORE PUSH1 0x40 SWAP1 KECCAK256 SLOAD SWAP1 JUMP JUMPDEST PUSH2 0x389 PUSH2 0x20FF JUMP JUMPDEST PUSH2 0x46B PUSH2 0x597 CALLDATASIZE PUSH1 0x4 PUSH2 0x2F5A JUMP JUMPDEST PUSH2 0x2112 JUMP JUMPDEST PUSH2 0x389 PUSH2 0x213A JUMP JUMPDEST PUSH2 0x3EC PUSH2 0x384 DUP2 JUMP JUMPDEST PUSH2 0x389 PUSH2 0x2176 JUMP JUMPDEST PUSH1 0x11 SLOAD PUSH2 0x40D SWAP1 PUSH2 0x100 SWAP1 DIV PUSH1 0xFF AND DUP2 JUMP JUMPDEST PUSH1 0x5 SLOAD PUSH1 0x1 PUSH1 0x1 PUSH1 0xA0 SHL SUB AND PUSH2 0x46B JUMP JUMPDEST PUSH2 0x3EC PUSH1 0x7 SLOAD DUP2 JUMP JUMPDEST PUSH2 0x3D6 PUSH2 0x2297 JUMP JUMPDEST PUSH2 0x40D PUSH2 0x5F7 CALLDATASIZE PUSH1 0x4 PUSH2 0x32DD JUMP JUMPDEST PUSH1 0x8 PUSH1 0x20 MSTORE PUSH0 SWAP1 DUP2 MSTORE PUSH1 0x40 SWAP1 KECCAK256 SLOAD PUSH1 0xFF AND DUP2 JUMP JUMPDEST PUSH2 0x40D PUSH2 0x619 CALLDATASIZE PUSH1 0x4 PUSH2 0x32DD JUMP JUMPDEST PUSH1 0xC PUSH1 0x20 MSTORE PUSH0 SWAP1 DUP2 MSTORE PUSH1 0x40 SWAP1 KECCAK256 SLOAD PUSH1 0xFF AND DUP2 JUMP JUMPDEST PUSH2 0x40D PUSH2 0x63B CALLDATASIZE PUSH1 0x4 PUSH2 0x3163 JUMP JUMPDEST PUSH2 0x22A6 JUMP JUMPDEST ADDRESS PUSH2 0x46B JUMP JUMPDEST PUSH2 0x3EC PUSH1 0x13 SLOAD DUP2 JUMP JUMPDEST PUSH1 0x11 SLOAD PUSH2 0x40D SWAP1 PUSH1 0xFF AND DUP2 JUMP JUMPDEST PUSH2 0x3EC PUSH9 0x56BC75E2D63100000 DUP2 JUMP JUMPDEST PUSH2 0x3EC PUSH2 0x2353 JUMP JUMPDEST PUSH2 0x389 PUSH2 0x2376 JUMP JUMPDEST PUSH2 0x389 PUSH2 0x68A CALLDATASIZE PUSH1 0x4 PUSH2 0x311F JUMP JUMPDEST PUSH2 0x23E2 JUMP JUMPDEST PUSH2 0x40D PUSH2 0x69D CALLDATASIZE PUSH1 0x4 PUSH2 0x32DD JUMP JUMPDEST PUSH1 0x9 PUSH1 0x20 MSTORE PUSH0 SWAP1 DUP2 MSTORE PUSH1 0x40 SWAP1 KECCAK256 SLOAD PUSH1 0xFF AND DUP2 JUMP JUMPDEST PUSH2 0x3EC PUSH2 0x24BE JUMP JUMPDEST PUSH2 0x3EC PUSH2 0x6C7 CALLDATASIZE PUSH1 0x4 PUSH2 0x3372 JUMP JUMPDEST PUSH1 0x1 PUSH1 0x1 PUSH1 0xA0 SHL SUB SWAP2 DUP3 AND PUSH0 SWAP1 DUP2 MSTORE PUSH1 0x1 PUSH1 0x20 SWAP1 DUP2 MSTORE PUSH1 0x40 DUP1 DUP4 KECCAK256 SWAP4 SWAP1 SWAP5 AND DUP3 MSTORE SWAP2 SWAP1 SWAP2 MSTORE KECCAK256 SLOAD SWAP1 JUMP JUMPDEST PUSH2 0x389 PUSH2 0x6FF CALLDATASIZE PUSH1 0x4 PUSH2 0x2F5A JUMP JUMPDEST PUSH2 0x24CF JUMP JUMPDEST PUSH2 0x40D PUSH2 0x712 CALLDATASIZE PUSH1 0x4 PUSH2 0x32DD JUMP JUMPDEST PUSH1 0x1 PUSH1 0x1 PUSH1 0xA0 SHL SUB AND PUSH0 SWAP1 DUP2 MSTORE PUSH1 0x9 PUSH1 0x20 MSTORE PUSH1 0x40 SWAP1 KECCAK256 SLOAD PUSH1 0xFF AND SWAP1 JUMP JUMPDEST PUSH1 0x14 SLOAD PUSH2 0x40D SWAP1 PUSH1 0xFF AND DUP2 JUMP JUMPDEST PUSH2 0x389 PUSH2 0x74A CALLDATASIZE PUSH1 0x4 PUSH2 0x32DD JUMP JUMPDEST PUSH2 0x26A2 JUMP JUMPDEST PUSH2 0x3EC PUSH1 0x2 DUP2 JUMP JUMPDEST PUSH2 0x389 PUSH2 0x26DC JUMP JUMPDEST PUSH1 0x14 SLOAD PUSH1 0xFF AND PUSH2 0x40D JUMP JUMPDEST PUSH2 0x3EC PUSH8 0xDE0B6B3A7640000 DUP2 JUMP JUMPDEST PUSH1 0x11 SLOAD PUSH2 0x100 SWAP1 DIV PUSH1 0xFF AND ISZERO PUSH2 0x7AF JUMPI PUSH1 0x40 MLOAD PUSH3 0x461BCD PUSH1 0xE5 SHL DUP2 MSTORE PUSH1 0x20 PUSH1 0x4 DUP3 ADD MSTORE PUSH0 PUSH1 0x24 DUP3 ADD MSTORE PUSH1 0x44 ADD JUMPDEST PUSH1 0x40 MLOAD DUP1 SWAP2 SUB SWAP1 REVERT JUMPDEST CALLER PUSH0 SWAP1 DUP2 MSTORE PUSH1 0xC PUSH1 0x20 MSTORE PUSH1 0x40 SWAP1 KECCAK256 SLOAD PUSH1 0xFF AND PUSH2 0x7E6 JUMPI PUSH1 0x40 MLOAD PUSH3 0x461BCD PUSH1 0xE5 SHL DUP2 MSTORE PUSH1 0x20 PUSH1 0x4 DUP3 ADD MSTORE PUSH0 PUSH1 0x24 DUP3 ADD MSTORE PUSH1 0x44 ADD PUSH2 0x7A6 JUMP JUMPDEST PUSH0 DUP2 DUP2 MSTORE PUSH1 0xF PUSH1 0x20 MSTORE PUSH1 0x40 SWAP1 KECCAK256 PUSH1 0x8 DUP2 ADD SLOAD PUSH1 0xFF AND PUSH2 0x820 JUMPI PUSH1 0x40 MLOAD PUSH3 0x461BCD PUSH1 0xE5 SHL DUP2 MSTORE PUSH1 0x20 PUSH1 0x4 DUP3 ADD MSTORE PUSH0 PUSH1 0x24 DUP3 ADD MSTORE PUSH1 0x44 ADD PUSH2 0x7A6 JUMP JUMPDEST PUSH0 DUP3 DUP2 MSTORE PUSH1 0xD PUSH1 0x20 SWAP1 DUP2 MSTORE PUSH1 0x40 DUP1 DUP4 KECCAK256 CALLER DUP5 MSTORE SWAP1 SWAP2 MSTORE SWAP1 KECCAK256 SLOAD PUSH1 0xFF AND ISZERO PUSH2 0x862 JUMPI PUSH1 0x40 MLOAD PUSH3 0x461BCD PUSH1 0xE5 SHL DUP2 MSTORE PUSH1 0x20 PUSH1 0x4 DUP3 ADD MSTORE PUSH0 PUSH1 0x24 DUP3 ADD MSTORE PUSH1 0x44 ADD PUSH2 0x7A6 JUMP JUMPDEST PUSH1 0x11 SLOAD PUSH1 0xFF AND ISZERO PUSH2 0x88E JUMPI PUSH1 0x40 MLOAD PUSH3 0x461BCD PUSH1 0xE5 SHL DUP2 MSTORE PUSH1 0x20 PUSH1 0x4 DUP3 ADD MSTORE PUSH0 PUSH1 0x24 DUP3 ADD MSTORE PUSH1 0x44 ADD PUSH2 0x7A6 JUMP JUMPDEST PUSH0 DUP3 DUP2 MSTORE PUSH1 0xD PUSH1 0x20 SWAP1 DUP2 MSTORE PUSH1 0x40 DUP1 DUP4 KECCAK256 CALLER DUP5 MSTORE SWAP1 SWAP2 MSTORE DUP2 KECCAK256 DUP1 SLOAD PUSH1 0xFF NOT AND PUSH1 0x1 SWAP1 DUP2 OR SWAP1 SWAP2 SSTORE DUP3 ADD DUP1 SLOAD SWAP2 PUSH2 0x8C2 DUP4 PUSH2 0x33AE JUMP JUMPDEST SWAP1 SWAP2 SSTORE POP PUSH0 SWAP1 POP PUSH1 0x7 DUP3 SLOAD PUSH1 0xFF AND PUSH1 0x8 DUP2 GT ISZERO PUSH2 0x8E1 JUMPI PUSH2 0x8E1 PUSH2 0x2F71 JUMP JUMPDEST EQ DUP1 PUSH2 0x902 JUMPI POP PUSH1 0x8 DUP3 SLOAD PUSH1 0xFF AND PUSH1 0x8 DUP2 GT ISZERO PUSH2 0x900 JUMPI PUSH2 0x900 PUSH2 0x2F71 JUMP JUMPDEST EQ JUMPDEST PUSH2 0x954 JUMPI PUSH1 0x3 DUP3 SLOAD PUSH1 0xFF AND PUSH1 0x8 DUP2 GT ISZERO PUSH2 0x91E JUMPI PUSH2 0x91E PUSH2 0x2F71 JUMP JUMPDEST LT ISZERO DUP1 ISZERO PUSH2 0x942 JUMPI POP PUSH1 0x6 DUP3 SLOAD PUSH1 0xFF AND PUSH1 0x8 DUP2 GT ISZERO PUSH2 0x93F JUMPI PUSH2 0x93F PUSH2 0x2F71 JUMP JUMPDEST GT ISZERO JUMPDEST PUSH2 0x94D JUMPI PUSH1 0x5 PUSH2 0x957 JUMP JUMPDEST PUSH1 0x3 PUSH2 0x957 JUMP JUMPDEST PUSH1 0x2 JUMPDEST SWAP1 POP DUP1 DUP3 PUSH1 0x1 ADD SLOAD GT ISZERO PUSH2 0x986 JUMPI PUSH1 0x40 MLOAD PUSH3 0x461BCD PUSH1 0xE5 SHL DUP2 MSTORE PUSH1 0x20 PUSH1 0x4 DUP3 ADD MSTORE PUSH0 PUSH1 0x24 DUP3 ADD MSTORE PUSH1 0x44 ADD PUSH2 0x7A6 JUMP JUMPDEST PUSH1 0x40 MLOAD CALLER SWAP1 DUP5 SWAP1 PUSH32 0xF1003B73C437642C0460AEE9CD9628B0B8C447B66E6C7C905531B9C644214A11 SWAP1 PUSH0 SWAP1 LOG3 POP POP POP JUMP JUMPDEST PUSH1 0xF PUSH1 0x20 MSTORE PUSH0 SWAP1 DUP2 MSTORE PUSH1 0x40 SWAP1 KECCAK256 DUP1 SLOAD PUSH1 0x1 DUP3 ADD SLOAD PUSH1 0x2 DUP4 ADD SLOAD PUSH1 0x3 DUP5 ADD SLOAD PUSH1 0x4 DUP6 ADD SLOAD PUSH1 0x5 DUP7 ADD DUP1 SLOAD PUSH1 0xFF DUP8 AND SWAP8 PUSH2 0x100 SWAP1 SWAP8 DIV PUSH1 0x1 PUSH1 0x1 PUSH1 0xA0 SHL SUB SWAP1 DUP2 AND SWAP8 SWAP5 AND SWAP4 SWAP2 SWAP1 PUSH2 0xA05 SWAP1 PUSH2 0x33C6 JUMP JUMPDEST DUP1 PUSH1 0x1F ADD PUSH1 0x20 DUP1 SWAP2 DIV MUL PUSH1 0x20 ADD PUSH1 0x40 MLOAD SWAP1 DUP2 ADD PUSH1 0x40 MSTORE DUP1 SWAP3 SWAP2 SWAP1 DUP2 DUP2 MSTORE PUSH1 0x20 ADD DUP3 DUP1 SLOAD PUSH2 0xA31 SWAP1 PUSH2 0x33C6 JUMP JUMPDEST DUP1 ISZERO PUSH2 0xA7C JUMPI DUP1 PUSH1 0x1F LT PUSH2 0xA53 JUMPI PUSH2 0x100 DUP1 DUP4 SLOAD DIV MUL DUP4 MSTORE SWAP2 PUSH1 0x20 ADD SWAP2 PUSH2 0xA7C JUMP JUMPDEST DUP3 ADD SWAP2 SWAP1 PUSH0 MSTORE PUSH1 0x20 PUSH0 KECCAK256 SWAP1 JUMPDEST DUP2 SLOAD DUP2 MSTORE SWAP1 PUSH1 0x1 ADD SWAP1 PUSH1 0x20 ADD DUP1 DUP4 GT PUSH2 0xA5F JUMPI DUP3 SWAP1 SUB PUSH1 0x1F AND DUP3 ADD SWAP2 JUMPDEST POP POP POP PUSH1 0x8 SWAP1 SWAP4 ADD SLOAD SWAP2 SWAP3 POP POP PUSH1 0xFF AND DUP9 JUMP JUMPDEST PUSH2 0xA97 PUSH2 0x271B JUMP JUMPDEST PUSH1 0x11 SLOAD PUSH2 0x100 SWAP1 DIV PUSH1 0xFF AND ISZERO PUSH2 0xAC8 JUMPI PUSH1 0x40 MLOAD PUSH3 0x461BCD PUSH1 0xE5 SHL DUP2 MSTORE PUSH1 0x20 PUSH1 0x4 DUP3 ADD MSTORE PUSH0 PUSH1 0x24 DUP3 ADD MSTORE PUSH1 0x44 ADD PUSH2 0x7A6 JUMP JUMPDEST CALLER PUSH0 SWAP1 DUP2 MSTORE PUSH1 0xC PUSH1 0x20 MSTORE PUSH1 0x40 SWAP1 KECCAK256 SLOAD PUSH1 0xFF AND PUSH2 0xAFF JUMPI PUSH1 0x40 MLOAD PUSH3 0x461BCD PUSH1 0xE5 SHL DUP2 MSTORE PUSH1 0x20 PUSH1 0x4 DUP3 ADD MSTORE PUSH0 PUSH1 0x24 DUP3 ADD MSTORE PUSH1 0x44 ADD PUSH2 0x7A6 JUMP JUMPDEST PUSH2 0xB12 DUP2 PUSH9 0x56BC75E2D63100000 PUSH2 0x2774 JUMP JUMPDEST DUP1 PUSH1 0x40 MLOAD PUSH2 0xB20 SWAP2 SWAP1 PUSH2 0x33FE JUMP JUMPDEST PUSH1 0x40 DUP1 MLOAD SWAP2 DUP3 SWAP1 SUB DUP3 KECCAK256 PUSH9 0x56BC75E2D63100000 DUP4 MSTORE PUSH0 PUSH1 0x20 DUP5 ADD MSTORE SWAP2 PUSH32 0xC2AEAD9CF0EE95E5F48D316DB6ADCF05801AEC50B3029BF8AFCD0C2FAF73B12D SWAP2 ADD JUMPDEST PUSH1 0x40 MLOAD DUP1 SWAP2 SUB SWAP1 LOG2 PUSH2 0xB73 PUSH1 0x1 PUSH1 0x6 SSTORE JUMP JUMPDEST POP JUMP JUMPDEST PUSH1 0x60 PUSH1 0x3 DUP1 SLOAD PUSH2 0xB85 SWAP1 PUSH2 0x33C6 JUMP JUMPDEST DUP1 PUSH1 0x1F ADD PUSH1 0x20 DUP1 SWAP2 DIV MUL PUSH1 0x20 ADD PUSH1 0x40 MLOAD SWAP1 DUP2 ADD PUSH1 0x40 MSTORE DUP1 SWAP3 SWAP2 SWAP1 DUP2 DUP2 MSTORE PUSH1 0x20 ADD DUP3 DUP1 SLOAD PUSH2 0xBB1 SWAP1 PUSH2 0x33C6 JUMP JUMPDEST DUP1 ISZERO PUSH2 0xBFC JUMPI DUP1 PUSH1 0x1F LT PUSH2 0xBD3 JUMPI PUSH2 0x100 DUP1 DUP4 SLOAD DIV MUL DUP4 MSTORE SWAP2 PUSH1 0x20 ADD SWAP2 PUSH2 0xBFC JUMP JUMPDEST DUP3 ADD SWAP2 SWAP1 PUSH0 MSTORE PUSH1 0x20 PUSH0 KECCAK256 SWAP1 JUMPDEST DUP2 SLOAD DUP2 MSTORE SWAP1 PUSH1 0x1 ADD SWAP1 PUSH1 0x20 ADD DUP1 DUP4 GT PUSH2 0xBDF JUMPI DUP3 SWAP1 SUB PUSH1 0x1F AND DUP3 ADD SWAP2 JUMPDEST POP POP POP POP POP SWAP1 POP SWAP1 JUMP JUMPDEST PUSH0 CALLER PUSH2 0xC13 DUP2 DUP6 DUP6 PUSH2 0x28B6 JUMP JUMPDEST PUSH1 0x1 SWAP2 POP POP JUMPDEST SWAP3 SWAP2 POP POP JUMP JUMPDEST PUSH1 0x11 SLOAD PUSH2 0x100 SWAP1 DIV PUSH1 0xFF AND ISZERO PUSH2 0xC50 JUMPI PUSH1 0x40 MLOAD PUSH3 0x461BCD PUSH1 0xE5 SHL DUP2 MSTORE PUSH1 0x20 PUSH1 0x4 DUP3 ADD MSTORE PUSH0 PUSH1 0x24 DUP3 ADD MSTORE PUSH1 0x44 ADD PUSH2 0x7A6 JUMP JUMPDEST CALLER PUSH0 SWAP1 DUP2 MSTORE PUSH1 0xC PUSH1 0x20 MSTORE PUSH1 0x40 SWAP1 KECCAK256 SLOAD PUSH1 0xFF AND PUSH2 0xC87 JUMPI PUSH1 0x40 MLOAD PUSH3 0x461BCD PUSH1 0xE5 SHL DUP2 MSTORE PUSH1 0x20 PUSH1 0x4 DUP3 ADD MSTORE PUSH0 PUSH1 0x24 DUP3 ADD MSTORE PUSH1 0x44 ADD PUSH2 0x7A6 JUMP JUMPDEST PUSH0 DUP7 PUSH1 0x8 DUP2 GT ISZERO PUSH2 0xC9A JUMPI PUSH2 0xC9A PUSH2 0x2F71 JUMP JUMPDEST SUB PUSH2 0xCCD JUMPI PUSH0 DUP4 MLOAD GT PUSH2 0xCC8 JUMPI PUSH1 0x40 MLOAD PUSH3 0x461BCD PUSH1 0xE5 SHL DUP2 MSTORE PUSH1 0x20 PUSH1 0x4 DUP3 ADD MSTORE PUSH0 PUSH1 0x24 DUP3 ADD MSTORE PUSH1 0x44 ADD PUSH2 0x7A6 JUMP JUMPDEST PUSH2 0x128B JUMP JUMPDEST PUSH1 0x1 DUP7 PUSH1 0x8 DUP2 GT ISZERO PUSH2 0xCE1 JUMPI PUSH2 0xCE1 PUSH2 0x2F71 JUMP JUMPDEST SUB PUSH2 0xD7C JUMPI DUP4 PUSH0 SUB PUSH2 0xD0E JUMPI PUSH1 0x40 MLOAD PUSH3 0x461BCD PUSH1 0xE5 SHL DUP2 MSTORE PUSH1 0x20 PUSH1 0x4 DUP3 ADD MSTORE PUSH0 PUSH1 0x24 DUP3 ADD MSTORE PUSH1 0x44 ADD PUSH2 0x7A6 JUMP JUMPDEST PUSH1 0xA SLOAD DUP5 PUSH1 0x7 SLOAD PUSH2 0xD1F SWAP2 SWAP1 PUSH2 0x343C JUMP JUMPDEST SLT ISZERO PUSH2 0xD46 JUMPI PUSH1 0x40 MLOAD PUSH3 0x461BCD PUSH1 0xE5 SHL DUP2 MSTORE PUSH1 0x20 PUSH1 0x4 DUP3 ADD MSTORE PUSH0 PUSH1 0x24 DUP3 ADD MSTORE PUSH1 0x44 ADD PUSH2 0x7A6 JUMP JUMPDEST PUSH0 DUP5 PUSH1 0x7 SLOAD PUSH2 0xD55 SWAP2 SWAP1 PUSH2 0x343C JUMP JUMPDEST SLT ISZERO PUSH2 0xCC8 JUMPI PUSH1 0x40 MLOAD PUSH3 0x461BCD PUSH1 0xE5 SHL DUP2 MSTORE PUSH1 0x20 PUSH1 0x4 DUP3 ADD MSTORE PUSH0 PUSH1 0x24 DUP3 ADD MSTORE PUSH1 0x44 ADD PUSH2 0x7A6 JUMP JUMPDEST PUSH1 0x2 DUP7 PUSH1 0x8 DUP2 GT ISZERO PUSH2 0xD90 JUMPI PUSH2 0xD90 PUSH2 0x2F71 JUMP JUMPDEST SUB PUSH2 0xF69 JUMPI DUP1 MLOAD DUP3 MLOAD EQ DUP1 ISZERO PUSH2 0xDA6 JUMPI POP PUSH0 DUP3 MLOAD GT JUMPDEST PUSH2 0xDCB JUMPI PUSH1 0x40 MLOAD PUSH3 0x461BCD PUSH1 0xE5 SHL DUP2 MSTORE PUSH1 0x20 PUSH1 0x4 DUP3 ADD MSTORE PUSH0 PUSH1 0x24 DUP3 ADD MSTORE PUSH1 0x44 ADD PUSH2 0x7A6 JUMP JUMPDEST PUSH0 JUMPDEST DUP3 MLOAD DUP2 LT ISZERO PUSH2 0xF63 JUMPI PUSH1 0xC PUSH0 DUP5 DUP4 DUP2 MLOAD DUP2 LT PUSH2 0xDEB JUMPI PUSH2 0xDEB PUSH2 0x3463 JUMP JUMPDEST PUSH1 0x20 SWAP1 DUP2 MUL SWAP2 SWAP1 SWAP2 ADD DUP2 ADD MLOAD PUSH1 0x1 PUSH1 0x1 PUSH1 0xA0 SHL SUB AND DUP3 MSTORE DUP2 ADD SWAP2 SWAP1 SWAP2 MSTORE PUSH1 0x40 ADD PUSH0 KECCAK256 SLOAD PUSH1 0xFF AND PUSH2 0xE36 JUMPI PUSH1 0x40 MLOAD PUSH3 0x461BCD PUSH1 0xE5 SHL DUP2 MSTORE PUSH1 0x20 PUSH1 0x4 DUP3 ADD MSTORE PUSH0 PUSH1 0x24 DUP3 ADD MSTORE PUSH1 0x44 ADD PUSH2 0x7A6 JUMP JUMPDEST PUSH0 PUSH1 0x1 PUSH1 0x1 PUSH1 0xA0 SHL SUB AND DUP3 DUP3 DUP2 MLOAD DUP2 LT PUSH2 0xE52 JUMPI PUSH2 0xE52 PUSH2 0x3463 JUMP JUMPDEST PUSH1 0x20 MUL PUSH1 0x20 ADD ADD MLOAD PUSH1 0x1 PUSH1 0x1 PUSH1 0xA0 SHL SUB AND EQ ISZERO DUP1 ISZERO PUSH2 0xEA9 JUMPI POP PUSH1 0xC PUSH0 DUP4 DUP4 DUP2 MLOAD DUP2 LT PUSH2 0xE81 JUMPI PUSH2 0xE81 PUSH2 0x3463 JUMP JUMPDEST PUSH1 0x20 SWAP1 DUP2 MUL SWAP2 SWAP1 SWAP2 ADD DUP2 ADD MLOAD PUSH1 0x1 PUSH1 0x1 PUSH1 0xA0 SHL SUB AND DUP3 MSTORE DUP2 ADD SWAP2 SWAP1 SWAP2 MSTORE PUSH1 0x40 ADD PUSH0 KECCAK256 SLOAD PUSH1 0xFF AND ISZERO JUMPDEST PUSH2 0xECE JUMPI PUSH1 0x40 MLOAD PUSH3 0x461BCD PUSH1 0xE5 SHL DUP2 MSTORE PUSH1 0x20 PUSH1 0x4 DUP3 ADD MSTORE PUSH0 PUSH1 0x24 DUP3 ADD MSTORE PUSH1 0x44 ADD PUSH2 0x7A6 JUMP JUMPDEST PUSH0 PUSH2 0xEDA DUP3 PUSH1 0x1 PUSH2 0x3477 JUMP JUMPDEST SWAP1 POP JUMPDEST DUP3 MLOAD DUP2 LT ISZERO PUSH2 0xF5A JUMPI DUP3 DUP2 DUP2 MLOAD DUP2 LT PUSH2 0xEF8 JUMPI PUSH2 0xEF8 PUSH2 0x3463 JUMP JUMPDEST PUSH1 0x20 MUL PUSH1 0x20 ADD ADD MLOAD PUSH1 0x1 PUSH1 0x1 PUSH1 0xA0 SHL SUB AND DUP4 DUP4 DUP2 MLOAD DUP2 LT PUSH2 0xF1B JUMPI PUSH2 0xF1B PUSH2 0x3463 JUMP JUMPDEST PUSH1 0x20 MUL PUSH1 0x20 ADD ADD MLOAD PUSH1 0x1 PUSH1 0x1 PUSH1 0xA0 SHL SUB AND SUB PUSH2 0xF52 JUMPI PUSH1 0x40 MLOAD PUSH3 0x461BCD PUSH1 0xE5 SHL DUP2 MSTORE PUSH1 0x20 PUSH1 0x4 DUP3 ADD MSTORE PUSH0 PUSH1 0x24 DUP3 ADD MSTORE PUSH1 0x44 ADD PUSH2 0x7A6 JUMP JUMPDEST PUSH1 0x1 ADD PUSH2 0xEDD JUMP JUMPDEST POP PUSH1 0x1 ADD PUSH2 0xDCD JUMP JUMPDEST POP PUSH2 0x128B JUMP JUMPDEST PUSH1 0x3 DUP7 PUSH1 0x8 DUP2 GT ISZERO PUSH2 0xF7D JUMPI PUSH2 0xF7D PUSH2 0x2F71 JUMP JUMPDEST SUB PUSH2 0xFD7 JUMPI PUSH1 0x1 PUSH1 0x1 PUSH1 0xA0 SHL SUB DUP6 AND ISZERO DUP1 ISZERO SWAP1 PUSH2 0xFB2 JUMPI POP PUSH1 0x1 PUSH1 0x1 PUSH1 0xA0 SHL SUB DUP6 AND PUSH0 SWAP1 DUP2 MSTORE PUSH1 0x8 PUSH1 0x20 MSTORE PUSH1 0x40 SWAP1 KECCAK256 SLOAD PUSH1 0xFF AND ISZERO JUMPDEST PUSH2 0xCC8 JUMPI PUSH1 0x40 MLOAD PUSH3 0x461BCD PUSH1 0xE5 SHL DUP2 MSTORE PUSH1 0x20 PUSH1 0x4 DUP3 ADD MSTORE PUSH0 PUSH1 0x24 DUP3 ADD MSTORE PUSH1 0x44 ADD PUSH2 0x7A6 JUMP JUMPDEST PUSH1 0x4 DUP7 PUSH1 0x8 DUP2 GT ISZERO PUSH2 0xFEB JUMPI PUSH2 0xFEB PUSH2 0x2F71 JUMP JUMPDEST SUB PUSH2 0x1050 JUMPI PUSH1 0x1 PUSH1 0x1 PUSH1 0xA0 SHL SUB DUP6 AND PUSH0 SWAP1 DUP2 MSTORE PUSH1 0x8 PUSH1 0x20 MSTORE PUSH1 0x40 SWAP1 KECCAK256 SLOAD PUSH1 0xFF AND PUSH2 0xCC8 JUMPI PUSH1 0x40 MLOAD PUSH3 0x461BCD PUSH1 0xE5 SHL DUP2 MSTORE PUSH1 0x20 PUSH1 0x4 DUP3 ADD MSTORE PUSH1 0x16 PUSH1 0x24 DUP3 ADD MSTORE PUSH22 0x15185C99D95D081B9BDD081DDA1A5D195B1A5CDD1959 PUSH1 0x52 SHL PUSH1 0x44 DUP3 ADD MSTORE PUSH1 0x64 ADD PUSH2 0x7A6 JUMP JUMPDEST PUSH1 0x5 DUP7 PUSH1 0x8 DUP2 GT ISZERO PUSH2 0x1064 JUMPI PUSH2 0x1064 PUSH2 0x2F71 JUMP JUMPDEST SUB PUSH2 0x10BD JUMPI PUSH1 0x1 PUSH1 0x1 PUSH1 0xA0 SHL SUB DUP6 AND ISZERO DUP1 ISZERO SWAP1 PUSH2 0xFB2 JUMPI POP PUSH1 0x1 PUSH1 0x1 PUSH1 0xA0 SHL SUB DUP6 AND PUSH0 SWAP1 DUP2 MSTORE PUSH1 0x9 PUSH1 0x20 MSTORE PUSH1 0x40 SWAP1 KECCAK256 SLOAD PUSH1 0xFF AND ISZERO PUSH2 0xCC8 JUMPI PUSH1 0x40 MLOAD PUSH3 0x461BCD PUSH1 0xE5 SHL DUP2 MSTORE PUSH1 0x20 PUSH1 0x4 DUP3 ADD MSTORE PUSH0 PUSH1 0x24 DUP3 ADD MSTORE PUSH1 0x44 ADD PUSH2 0x7A6 JUMP JUMPDEST PUSH1 0x6 DUP7 PUSH1 0x8 DUP2 GT ISZERO PUSH2 0x10D1 JUMPI PUSH2 0x10D1 PUSH2 0x2F71 JUMP JUMPDEST SUB PUSH2 0x1131 JUMPI PUSH1 0x1 PUSH1 0x1 PUSH1 0xA0 SHL SUB DUP6 AND PUSH0 SWAP1 DUP2 MSTORE PUSH1 0x9 PUSH1 0x20 MSTORE PUSH1 0x40 SWAP1 KECCAK256 SLOAD PUSH1 0xFF AND PUSH2 0xCC8 JUMPI PUSH1 0x40 MLOAD PUSH3 0x461BCD PUSH1 0xE5 SHL DUP2 MSTORE PUSH1 0x20 PUSH1 0x4 DUP3 ADD MSTORE PUSH1 0x11 PUSH1 0x24 DUP3 ADD MSTORE PUSH17 0x2A30B933B2BA103737BA10333937BD32B7 PUSH1 0x79 SHL PUSH1 0x44 DUP3 ADD MSTORE PUSH1 0x64 ADD PUSH2 0x7A6 JUMP JUMPDEST PUSH1 0x7 DUP7 PUSH1 0x8 DUP2 GT ISZERO PUSH2 0x1145 JUMPI PUSH2 0x1145 PUSH2 0x2F71 JUMP JUMPDEST SUB PUSH2 0x11E0 JUMPI PUSH1 0x1 PUSH1 0x1 PUSH1 0xA0 SHL SUB DUP6 AND PUSH0 SWAP1 DUP2 MSTORE PUSH1 0x8 PUSH1 0x20 MSTORE PUSH1 0x40 SWAP1 KECCAK256 SLOAD PUSH1 0xFF AND DUP1 ISZERO PUSH2 0x1179 JUMPI POP PUSH1 0x1 PUSH1 0x1 PUSH1 0xA0 SHL SUB DUP6 AND ISZERO ISZERO JUMPDEST PUSH2 0x119E JUMPI PUSH1 0x40 MLOAD PUSH3 0x461BCD PUSH1 0xE5 SHL DUP2 MSTORE PUSH1 0x20 PUSH1 0x4 DUP3 ADD MSTORE PUSH0 PUSH1 0x24 DUP3 ADD MSTORE PUSH1 0x44 ADD PUSH2 0x7A6 JUMP JUMPDEST PUSH0 DUP5 GT DUP1 ISZERO PUSH2 0xFB2 JUMPI POP PUSH1 0x7 SLOAD DUP5 PUSH1 0xA SLOAD PUSH2 0x11B9 SWAP2 SWAP1 PUSH2 0x3477 JUMP JUMPDEST GT ISZERO PUSH2 0xCC8 JUMPI PUSH1 0x40 MLOAD PUSH3 0x461BCD PUSH1 0xE5 SHL DUP2 MSTORE PUSH1 0x20 PUSH1 0x4 DUP3 ADD MSTORE PUSH0 PUSH1 0x24 DUP3 ADD MSTORE PUSH1 0x44 ADD PUSH2 0x7A6 JUMP JUMPDEST PUSH1 0x8 DUP7 PUSH1 0x8 DUP2 GT ISZERO PUSH2 0x11F4 JUMPI PUSH2 0x11F4 PUSH2 0x2F71 JUMP JUMPDEST SUB PUSH2 0x128B JUMPI PUSH1 0x1 DUP5 GT ISZERO PUSH2 0x123A JUMPI PUSH1 0x40 MLOAD PUSH3 0x461BCD PUSH1 0xE5 SHL DUP2 MSTORE PUSH1 0x20 PUSH1 0x4 DUP3 ADD MSTORE PUSH1 0xD PUSH1 0x24 DUP3 ADD MSTORE PUSH13 0x496E76616C69642076616C7565 PUSH1 0x98 SHL PUSH1 0x44 DUP3 ADD MSTORE PUSH1 0x64 ADD PUSH2 0x7A6 JUMP JUMPDEST PUSH1 0x1 PUSH1 0x1 PUSH1 0xA0 SHL SUB DUP6 AND ISZERO DUP1 ISZERO PUSH2 0x1250 JUMPI POP DUP3 MLOAD ISZERO JUMPDEST DUP1 ISZERO PUSH2 0x125B JUMPI POP DUP2 MLOAD ISZERO JUMPDEST DUP1 ISZERO PUSH2 0x1266 JUMPI POP DUP1 MLOAD ISZERO JUMPDEST PUSH2 0x128B JUMPI PUSH1 0x40 MLOAD PUSH3 0x461BCD PUSH1 0xE5 SHL DUP2 MSTORE PUSH1 0x20 PUSH1 0x4 DUP3 ADD MSTORE PUSH0 PUSH1 0x24 DUP3 ADD MSTORE PUSH1 0x44 ADD PUSH2 0x7A6 JUMP JUMPDEST PUSH1 0x40 MLOAD DUP1 PUSH2 0x140 ADD PUSH1 0x40 MSTORE DUP1 DUP8 PUSH1 0x8 DUP2 GT ISZERO PUSH2 0x12A9 JUMPI PUSH2 0x12A9 PUSH2 0x2F71 JUMP JUMPDEST DUP2 MSTORE CALLER PUSH1 0x20 DUP3 ADD MSTORE PUSH0 PUSH1 0x40 DUP3 ADD MSTORE PUSH1 0x60 ADD PUSH1 0x2 DUP9 PUSH1 0x8 DUP2 GT ISZERO PUSH2 0x12CE JUMPI PUSH2 0x12CE PUSH2 0x2F71 JUMP JUMPDEST GT ISZERO PUSH2 0x12DA JUMPI TIMESTAMP PUSH2 0x12E7 JUMP JUMPDEST PUSH2 0x12E7 TIMESTAMP PUSH3 0x2A300 PUSH2 0x3477 JUMP JUMPDEST DUP2 MSTORE PUSH1 0x20 ADD DUP7 PUSH1 0x1 PUSH1 0x1 PUSH1 0xA0 SHL SUB AND DUP2 MSTORE PUSH1 0x20 ADD DUP6 DUP2 MSTORE PUSH1 0x20 ADD DUP5 DUP2 MSTORE PUSH1 0x20 ADD DUP4 DUP2 MSTORE PUSH1 0x20 ADD DUP3 DUP2 MSTORE PUSH1 0x20 ADD PUSH1 0x1 ISZERO ISZERO DUP2 MSTORE POP PUSH1 0xF PUSH0 PUSH1 0x10 SLOAD DUP2 MSTORE PUSH1 0x20 ADD SWAP1 DUP2 MSTORE PUSH1 0x20 ADD PUSH0 KECCAK256 PUSH0 DUP3 ADD MLOAD DUP2 PUSH0 ADD PUSH0 PUSH2 0x100 EXP DUP2 SLOAD DUP2 PUSH1 0xFF MUL NOT AND SWAP1 DUP4 PUSH1 0x8 DUP2 GT ISZERO PUSH2 0x1354 JUMPI PUSH2 0x1354 PUSH2 0x2F71 JUMP JUMPDEST MUL OR SWAP1 SSTORE POP PUSH1 0x20 DUP3 ADD MLOAD DUP2 SLOAD PUSH2 0x100 PUSH1 0x1 PUSH1 0xA8 SHL SUB NOT AND PUSH2 0x100 PUSH1 0x1 PUSH1 0x1 PUSH1 0xA0 SHL SUB SWAP3 DUP4 AND MUL OR DUP3 SSTORE PUSH1 0x40 DUP4 ADD MLOAD PUSH1 0x1 DUP4 ADD SSTORE PUSH1 0x60 DUP4 ADD MLOAD PUSH1 0x2 DUP4 ADD SSTORE PUSH1 0x80 DUP4 ADD MLOAD PUSH1 0x3 DUP4 ADD DUP1 SLOAD PUSH1 0x1 PUSH1 0x1 PUSH1 0xA0 SHL SUB NOT AND SWAP2 SWAP1 SWAP3 AND OR SWAP1 SSTORE PUSH1 0xA0 DUP3 ADD MLOAD PUSH1 0x4 DUP3 ADD SSTORE PUSH1 0xC0 DUP3 ADD MLOAD PUSH1 0x5 DUP3 ADD SWAP1 PUSH2 0x13CB SWAP1 DUP3 PUSH2 0x34D5 JUMP JUMPDEST POP PUSH1 0xE0 DUP3 ADD MLOAD DUP1 MLOAD PUSH2 0x13E7 SWAP2 PUSH1 0x6 DUP5 ADD SWAP2 PUSH1 0x20 SWAP1 SWAP2 ADD SWAP1 PUSH2 0x2E95 JUMP JUMPDEST POP PUSH2 0x100 DUP3 ADD MLOAD DUP1 MLOAD PUSH2 0x1404 SWAP2 PUSH1 0x7 DUP5 ADD SWAP2 PUSH1 0x20 SWAP1 SWAP2 ADD SWAP1 PUSH2 0x2E95 JUMP JUMPDEST POP PUSH2 0x120 SWAP2 SWAP1 SWAP2 ADD MLOAD PUSH1 0x8 SWAP1 SWAP2 ADD DUP1 SLOAD PUSH1 0xFF NOT AND SWAP2 ISZERO ISZERO SWAP2 SWAP1 SWAP2 OR SWAP1 SSTORE PUSH1 0x10 SLOAD PUSH1 0x40 MLOAD PUSH32 0x3263432A41F78A4701CC9465F62411ED717ADE32290C084135A3DD6B29F4BF28 SWAP1 PUSH2 0x1456 SWAP1 DUP10 SWAP1 CALLER SWAP1 PUSH2 0x3590 JUMP JUMPDEST PUSH1 0x40 MLOAD DUP1 SWAP2 SUB SWAP1 LOG2 PUSH1 0x10 DUP1 SLOAD SWAP1 PUSH0 PUSH2 0x146D DUP4 PUSH2 0x33AE JUMP JUMPDEST SWAP2 SWAP1 POP SSTORE POP POP POP POP POP POP POP JUMP JUMPDEST PUSH1 0x11 SLOAD PUSH2 0x100 SWAP1 DIV PUSH1 0xFF AND ISZERO PUSH2 0x14C4 JUMPI PUSH1 0x40 MLOAD PUSH3 0x461BCD PUSH1 0xE5 SHL DUP2 MSTORE PUSH1 0x20 PUSH1 0x4 DUP3 ADD MSTORE PUSH1 0xF PUSH1 0x24 DUP3 ADD MSTORE PUSH15 0x10DBDB9D1C9858DD081C185D5CD959 PUSH1 0x8A SHL PUSH1 0x44 DUP3 ADD MSTORE PUSH1 0x64 ADD PUSH2 0x7A6 JUMP JUMPDEST PUSH0 DUP2 DUP2 MSTORE PUSH1 0xF PUSH1 0x20 MSTORE PUSH1 0x40 SWAP1 KECCAK256 PUSH2 0x14DA DUP2 PUSH2 0x28C8 JUMP JUMPDEST POP PUSH0 DUP2 SLOAD PUSH1 0xFF AND PUSH1 0x8 DUP2 GT ISZERO PUSH2 0x14F2 JUMPI PUSH2 0x14F2 PUSH2 0x2F71 JUMP JUMPDEST SUB PUSH2 0x15C9 JUMPI PUSH2 0x158A DUP2 PUSH1 0x5 ADD DUP1 SLOAD PUSH2 0x1509 SWAP1 PUSH2 0x33C6 JUMP JUMPDEST DUP1 PUSH1 0x1F ADD PUSH1 0x20 DUP1 SWAP2 DIV MUL PUSH1 0x20 ADD PUSH1 0x40 MLOAD SWAP1 DUP2 ADD PUSH1 0x40 MSTORE DUP1 SWAP3 SWAP2 SWAP1 DUP2 DUP2 MSTORE PUSH1 0x20 ADD DUP3 DUP1 SLOAD PUSH2 0x1535 SWAP1 PUSH2 0x33C6 JUMP JUMPDEST DUP1 ISZERO PUSH2 0x1580 JUMPI DUP1 PUSH1 0x1F LT PUSH2 0x1557 JUMPI PUSH2 0x100 DUP1 DUP4 SLOAD DIV MUL DUP4 MSTORE SWAP2 PUSH1 0x20 ADD SWAP2 PUSH2 0x1580 JUMP JUMPDEST DUP3 ADD SWAP2 SWAP1 PUSH0 MSTORE PUSH1 0x20 PUSH0 KECCAK256 SWAP1 JUMPDEST DUP2 SLOAD DUP2 MSTORE SWAP1 PUSH1 0x1 ADD SWAP1 PUSH1 0x20 ADD DUP1 DUP4 GT PUSH2 0x1563 JUMPI DUP3 SWAP1 SUB PUSH1 0x1F AND DUP3 ADD SWAP2 JUMPDEST POP POP POP POP POP PUSH2 0x2A1F JUMP JUMPDEST PUSH32 0x4737457377F528CC8AFD815F73ECB8B05DF80D047DBFFC41C17750A4033592BC DUP2 PUSH1 0x5 ADD PUSH1 0x40 MLOAD PUSH2 0x15BC SWAP2 SWAP1 PUSH2 0x35B6 JUMP JUMPDEST PUSH1 0x40 MLOAD DUP1 SWAP2 SUB SWAP1 LOG1 PUSH2 0x1BC9 JUMP JUMPDEST PUSH1 0x1 DUP2 SLOAD PUSH1 0xFF AND PUSH1 0x8 DUP2 GT ISZERO PUSH2 0x15E1 JUMPI PUSH2 0x15E1 PUSH2 0x2F71 JUMP JUMPDEST SUB PUSH2 0x162D JUMPI DUP1 PUSH1 0x4 ADD SLOAD PUSH1 0x7 SLOAD PUSH2 0x15F8 SWAP2 SWAP1 PUSH2 0x343C JUMP JUMPDEST PUSH1 0x7 DUP2 SWAP1 SSTORE PUSH1 0x40 MLOAD SWAP1 DUP2 MSTORE PUSH32 0xACD0677FAD7BE9CCAF6C91EBAACA5C9C91622AC0508242D2F8FECA61A0DA249 SWAP1 PUSH1 0x20 ADD PUSH2 0x15BC JUMP JUMPDEST PUSH1 0x2 DUP2 SLOAD PUSH1 0xFF AND PUSH1 0x8 DUP2 GT ISZERO PUSH2 0x1645 JUMPI PUSH2 0x1645 PUSH2 0x2F71 JUMP JUMPDEST SUB PUSH2 0x1887 JUMPI PUSH0 PUSH1 0xE DUP1 SLOAD DUP1 PUSH1 0x20 MUL PUSH1 0x20 ADD PUSH1 0x40 MLOAD SWAP1 DUP2 ADD PUSH1 0x40 MSTORE DUP1 SWAP3 SWAP2 SWAP1 DUP2 DUP2 MSTORE PUSH1 0x20 ADD DUP3 DUP1 SLOAD DUP1 ISZERO PUSH2 0x169F JUMPI PUSH1 0x20 MUL DUP3 ADD SWAP2 SWAP1 PUSH0 MSTORE PUSH1 0x20 PUSH0 KECCAK256 SWAP1 JUMPDEST DUP2 SLOAD PUSH1 0x1 PUSH1 0x1 PUSH1 0xA0 SHL SUB AND DUP2 MSTORE PUSH1 0x1 SWAP1 SWAP2 ADD SWAP1 PUSH1 0x20 ADD DUP1 DUP4 GT PUSH2 0x1681 JUMPI JUMPDEST POP SWAP4 SWAP5 POP PUSH0 SWAP4 POP POP POP POP JUMPDEST PUSH1 0x6 DUP4 ADD SLOAD DUP2 LT ISZERO PUSH2 0x182D JUMPI PUSH0 PUSH1 0xC PUSH0 DUP6 PUSH1 0x6 ADD DUP5 DUP2 SLOAD DUP2 LT PUSH2 0x16CF JUMPI PUSH2 0x16CF PUSH2 0x3463 JUMP JUMPDEST PUSH0 SWAP2 DUP3 MSTORE PUSH1 0x20 DUP1 DUP4 KECCAK256 SWAP2 SWAP1 SWAP2 ADD SLOAD PUSH1 0x1 PUSH1 0x1 PUSH1 0xA0 SHL SUB AND DUP4 MSTORE DUP3 ADD SWAP3 SWAP1 SWAP3 MSTORE PUSH1 0x40 ADD DUP2 KECCAK256 DUP1 SLOAD PUSH1 0xFF NOT AND SWAP3 ISZERO ISZERO SWAP3 SWAP1 SWAP3 OR SWAP1 SWAP2 SSTORE PUSH1 0x7 DUP5 ADD DUP1 SLOAD PUSH1 0x1 SWAP3 PUSH1 0xC SWAP3 SWAP1 SWAP2 DUP6 SWAP1 DUP2 LT PUSH2 0x1721 JUMPI PUSH2 0x1721 PUSH2 0x3463 JUMP JUMPDEST PUSH0 SWAP2 DUP3 MSTORE PUSH1 0x20 DUP1 DUP4 KECCAK256 SWAP2 SWAP1 SWAP2 ADD SLOAD PUSH1 0x1 PUSH1 0x1 PUSH1 0xA0 SHL SUB AND DUP4 MSTORE DUP3 ADD SWAP3 SWAP1 SWAP3 MSTORE PUSH1 0x40 ADD DUP2 KECCAK256 DUP1 SLOAD PUSH1 0xFF NOT AND SWAP3 ISZERO ISZERO SWAP3 SWAP1 SWAP3 OR SWAP1 SWAP2 SSTORE JUMPDEST DUP3 MLOAD DUP2 LT ISZERO PUSH2 0x1824 JUMPI DUP4 PUSH1 0x6 ADD DUP3 DUP2 SLOAD DUP2 LT PUSH2 0x1774 JUMPI PUSH2 0x1774 PUSH2 0x3463 JUMP JUMPDEST PUSH0 SWAP2 DUP3 MSTORE PUSH1 0x20 SWAP1 SWAP2 KECCAK256 ADD SLOAD DUP4 MLOAD PUSH1 0x1 PUSH1 0x1 PUSH1 0xA0 SHL SUB SWAP1 SWAP2 AND SWAP1 DUP5 SWAP1 DUP4 SWAP1 DUP2 LT PUSH2 0x179F JUMPI PUSH2 0x179F PUSH2 0x3463 JUMP JUMPDEST PUSH1 0x20 MUL PUSH1 0x20 ADD ADD MLOAD PUSH1 0x1 PUSH1 0x1 PUSH1 0xA0 SHL SUB AND SUB PUSH2 0x181C JUMPI DUP4 PUSH1 0x7 ADD DUP3 DUP2 SLOAD DUP2 LT PUSH2 0x17CA JUMPI PUSH2 0x17CA PUSH2 0x3463 JUMP JUMPDEST SWAP1 PUSH0 MSTORE PUSH1 0x20 PUSH0 KECCAK256 ADD PUSH0 SWAP1 SLOAD SWAP1 PUSH2 0x100 EXP SWAP1 DIV PUSH1 0x1 PUSH1 0x1 PUSH1 0xA0 SHL SUB AND DUP4 DUP3 DUP2 MLOAD DUP2 LT PUSH2 0x17F7 JUMPI PUSH2 0x17F7 PUSH2 0x3463 JUMP JUMPDEST PUSH1 0x20 MUL PUSH1 0x20 ADD ADD SWAP1 PUSH1 0x1 PUSH1 0x1 PUSH1 0xA0 SHL SUB AND SWAP1 DUP2 PUSH1 0x1 PUSH1 0x1 PUSH1 0xA0 SHL SUB AND DUP2 MSTORE POP POP PUSH2 0x1824 JUMP JUMPDEST PUSH1 0x1 ADD PUSH2 0x1756 JUMP JUMPDEST POP PUSH1 0x1 ADD PUSH2 0x16AA JUMP JUMPDEST POP DUP1 MLOAD PUSH2 0x1841 SWAP1 PUSH1 0xE SWAP1 PUSH1 0x20 DUP5 ADD SWAP1 PUSH2 0x2E95 JUMP JUMPDEST POP PUSH32 0x765616CA75E38E63DCC130430614A01FA91BFE57744073B30BF8F4BA8FA31FFC DUP3 PUSH1 0x6 ADD DUP4 PUSH1 0x7 ADD PUSH1 0x40 MLOAD PUSH2 0x1879 SWAP3 SWAP2 SWAP1 PUSH2 0x3682 JUMP JUMPDEST PUSH1 0x40 MLOAD DUP1 SWAP2 SUB SWAP1 LOG1 POP PUSH2 0x1BC9 JUMP JUMPDEST PUSH1 0x3 DUP2 SLOAD PUSH1 0xFF AND PUSH1 0x8 DUP2 GT ISZERO PUSH2 0x189F JUMPI PUSH2 0x189F PUSH2 0x2F71 JUMP JUMPDEST SUB PUSH2 0x1925 JUMPI PUSH1 0x3 DUP2 ADD DUP1 SLOAD PUSH1 0x1 PUSH1 0x1 PUSH1 0xA0 SHL SUB SWAP1 DUP2 AND PUSH0 SWAP1 DUP2 MSTORE PUSH1 0x8 PUSH1 0x20 MSTORE PUSH1 0x40 SWAP1 DUP2 SWAP1 KECCAK256 DUP1 SLOAD PUSH1 0xFF NOT AND PUSH1 0x1 SWAP1 DUP2 OR SWAP1 SWAP2 SSTORE SWAP3 SLOAD SWAP1 MLOAD SWAP2 AND SWAP2 PUSH0 MLOAD PUSH1 0x20 PUSH2 0x36E8 PUSH0 CODECOPY PUSH0 MLOAD SWAP1 PUSH0 MSTORE SWAP2 PUSH2 0x1918 SWAP2 SWAP1 PUSH1 0x40 DUP1 DUP3 MSTORE PUSH1 0x9 SWAP1 DUP3 ADD MSTORE PUSH9 0x15DA1A5D195B1A5CDD PUSH1 0xBA SHL PUSH1 0x60 DUP3 ADD MSTORE SWAP1 ISZERO ISZERO PUSH1 0x20 DUP3 ADD MSTORE PUSH1 0x80 ADD SWAP1 JUMP JUMPDEST PUSH1 0x40 MLOAD DUP1 SWAP2 SUB SWAP1 LOG2 PUSH2 0x1BC9 JUMP JUMPDEST PUSH1 0x4 DUP2 SLOAD PUSH1 0xFF AND PUSH1 0x8 DUP2 GT ISZERO PUSH2 0x193D JUMPI PUSH2 0x193D PUSH2 0x2F71 JUMP JUMPDEST SUB PUSH2 0x19AD JUMPI PUSH1 0x3 DUP2 ADD DUP1 SLOAD PUSH1 0x1 PUSH1 0x1 PUSH1 0xA0 SHL SUB SWAP1 DUP2 AND PUSH0 SWAP1 DUP2 MSTORE PUSH1 0x8 PUSH1 0x20 SWAP1 DUP2 MSTORE PUSH1 0x40 DUP1 DUP4 KECCAK256 DUP1 SLOAD PUSH1 0xFF NOT AND SWAP1 SSTORE SWAP4 SLOAD DUP5 MLOAD DUP6 DUP2 MSTORE PUSH1 0x9 SWAP6 DUP2 ADD SWAP6 SWAP1 SWAP6 MSTORE PUSH9 0x15DA1A5D195B1A5CDD PUSH1 0xBA SHL PUSH1 0x60 DUP7 ADD MSTORE SWAP1 DUP5 ADD SWAP2 SWAP1 SWAP2 MSTORE AND SWAP1 PUSH0 MLOAD PUSH1 0x20 PUSH2 0x36E8 PUSH0 CODECOPY PUSH0 MLOAD SWAP1 PUSH0 MSTORE SWAP1 PUSH1 0x80 ADD PUSH2 0x1918 JUMP JUMPDEST PUSH1 0x5 DUP2 SLOAD PUSH1 0xFF AND PUSH1 0x8 DUP2 GT ISZERO PUSH2 0x19C5 JUMPI PUSH2 0x19C5 PUSH2 0x2F71 JUMP JUMPDEST SUB PUSH2 0x1A3B JUMPI PUSH1 0x3 DUP2 ADD DUP1 SLOAD PUSH1 0x1 PUSH1 0x1 PUSH1 0xA0 SHL SUB SWAP1 DUP2 AND PUSH0 SWAP1 DUP2 MSTORE PUSH1 0x9 PUSH1 0x20 MSTORE PUSH1 0x40 SWAP1 DUP2 SWAP1 KECCAK256 DUP1 SLOAD PUSH1 0xFF NOT AND PUSH1 0x1 SWAP1 DUP2 OR SWAP1 SWAP2 SSTORE SWAP3 SLOAD SWAP1 MLOAD SWAP2 AND SWAP2 PUSH0 MLOAD PUSH1 0x20 PUSH2 0x36E8 PUSH0 CODECOPY PUSH0 MLOAD SWAP1 PUSH0 MSTORE SWAP2 PUSH2 0x1918 SWAP2 SWAP1 PUSH1 0x40 DUP1 DUP3 MSTORE PUSH1 0x6 SWAP1 DUP3 ADD MSTORE PUSH6 0x467265657A65 PUSH1 0xD0 SHL PUSH1 0x60 DUP3 ADD MSTORE SWAP1 ISZERO ISZERO PUSH1 0x20 DUP3 ADD MSTORE PUSH1 0x80 ADD SWAP1 JUMP JUMPDEST PUSH1 0x6 DUP2 SLOAD PUSH1 0xFF AND PUSH1 0x8 DUP2 GT ISZERO PUSH2 0x1A53 JUMPI PUSH2 0x1A53 PUSH2 0x2F71 JUMP JUMPDEST SUB PUSH2 0x1AC0 JUMPI PUSH1 0x3 DUP2 ADD DUP1 SLOAD PUSH1 0x1 PUSH1 0x1 PUSH1 0xA0 SHL SUB SWAP1 DUP2 AND PUSH0 SWAP1 DUP2 MSTORE PUSH1 0x9 PUSH1 0x20 SWAP1 DUP2 MSTORE PUSH1 0x40 DUP1 DUP4 KECCAK256 DUP1 SLOAD PUSH1 0xFF NOT AND SWAP1 SSTORE SWAP4 SLOAD DUP5 MLOAD DUP6 DUP2 MSTORE PUSH1 0x6 SWAP6 DUP2 ADD SWAP6 SWAP1 SWAP6 MSTORE PUSH6 0x467265657A65 PUSH1 0xD0 SHL PUSH1 0x60 DUP7 ADD MSTORE SWAP1 DUP5 ADD SWAP2 SWAP1 SWAP2 MSTORE AND SWAP1 PUSH0 MLOAD PUSH1 0x20 PUSH2 0x36E8 PUSH0 CODECOPY PUSH0 MLOAD SWAP1 PUSH0 MSTORE SWAP1 PUSH1 0x80 ADD PUSH2 0x1918 JUMP JUMPDEST PUSH1 0x7 DUP2 SLOAD PUSH1 0xFF AND PUSH1 0x8 DUP2 GT ISZERO PUSH2 0x1AD8 JUMPI PUSH2 0x1AD8 PUSH2 0x2F71 JUMP JUMPDEST SUB PUSH2 0x1B5F JUMPI PUSH1 0x3 DUP2 ADD SLOAD PUSH1 0x4 DUP3 ADD SLOAD PUSH2 0x1AFA SWAP2 PUSH1 0x1 PUSH1 0x1 PUSH1 0xA0 SHL SUB AND SWAP1 PUSH2 0x2A2B JUMP JUMPDEST DUP1 PUSH1 0x4 ADD SLOAD PUSH1 0xA PUSH0 DUP3 DUP3 SLOAD PUSH2 0x1B0F SWAP2 SWAP1 PUSH2 0x3477 JUMP JUMPDEST SWAP1 SWAP2 SSTORE POP POP PUSH1 0x3 DUP2 ADD SLOAD PUSH1 0x4 DUP3 ADD SLOAD PUSH1 0x40 DUP1 MLOAD PUSH1 0x1 PUSH1 0x1 PUSH1 0xA0 SHL SUB SWAP1 SWAP4 AND DUP4 MSTORE PUSH1 0x20 DUP4 ADD SWAP2 SWAP1 SWAP2 MSTORE PUSH32 0x570563F436DC733C61D3863FD95E547272964F69D7B5CFE7461360A7A5643E3C SWAP2 ADD PUSH2 0x15BC JUMP JUMPDEST PUSH1 0x8 DUP2 SLOAD PUSH1 0xFF AND PUSH1 0x8 DUP2 GT ISZERO PUSH2 0x1B77 JUMPI PUSH2 0x1B77 PUSH2 0x2F71 JUMP JUMPDEST SUB PUSH2 0x1BC9 JUMPI PUSH1 0x4 DUP2 ADD DUP1 SLOAD PUSH1 0x14 DUP1 SLOAD PUSH1 0xFF NOT AND PUSH1 0x1 SWAP3 DUP4 EQ OR SWAP1 SSTORE SWAP1 SLOAD PUSH1 0x40 MLOAD SWAP2 EQ DUP2 MSTORE PUSH32 0xE593157A0729375978035779B91259998C9123840959CF2016517DE561AAE9F3 SWAP1 PUSH1 0x20 ADD PUSH1 0x40 MLOAD DUP1 SWAP2 SUB SWAP1 LOG1 JUMPDEST PUSH2 0x1BD2 DUP3 PUSH2 0x2A5F JUMP JUMPDEST PUSH0 DUP3 DUP2 MSTORE PUSH1 0xF PUSH1 0x20 MSTORE PUSH1 0x40 DUP2 KECCAK256 DUP1 SLOAD PUSH1 0x1 PUSH1 0x1 PUSH1 0xA8 SHL SUB NOT AND DUP2 SSTORE PUSH1 0x1 DUP2 ADD DUP3 SWAP1 SSTORE PUSH1 0x2 DUP2 ADD DUP3 SWAP1 SSTORE PUSH1 0x3 DUP2 ADD DUP1 SLOAD PUSH1 0x1 PUSH1 0x1 PUSH1 0xA0 SHL SUB NOT AND SWAP1 SSTORE PUSH1 0x4 DUP2 ADD DUP3 SWAP1 SSTORE SWAP1 PUSH2 0x1C22 PUSH1 0x5 DUP4 ADD DUP3 PUSH2 0x2EF8 JUMP JUMPDEST PUSH2 0x1C2F PUSH1 0x6 DUP4 ADD PUSH0 PUSH2 0x2F2F JUMP JUMPDEST PUSH2 0x1C3C PUSH1 0x7 DUP4 ADD PUSH0 PUSH2 0x2F2F JUMP JUMPDEST POP PUSH1 0x8 ADD DUP1 SLOAD PUSH1 0xFF NOT AND SWAP1 SSTORE DUP1 SLOAD PUSH1 0x40 MLOAD DUP4 SWAP2 PUSH32 0x5B9614F21773D68C0B149BDA804FF3D491C8BC8795F7ED236CC97804CD005389 SWAP2 PUSH2 0x1C7E SWAP2 PUSH1 0xFF AND SWAP1 PUSH2 0x36AF JUMP JUMPDEST PUSH1 0x40 MLOAD DUP1 SWAP2 SUB SWAP1 LOG2 POP POP JUMP JUMPDEST PUSH2 0x1C92 PUSH2 0x271B JUMP JUMPDEST PUSH1 0x11 SLOAD PUSH2 0x100 SWAP1 DIV PUSH1 0xFF AND ISZERO PUSH2 0x1CC3 JUMPI PUSH1 0x40 MLOAD PUSH3 0x461BCD PUSH1 0xE5 SHL DUP2 MSTORE PUSH1 0x20 PUSH1 0x4 DUP3 ADD MSTORE PUSH0 PUSH1 0x24 DUP3 ADD MSTORE PUSH1 0x44 ADD PUSH2 0x7A6 JUMP JUMPDEST PUSH1 0x14 SLOAD PUSH1 0xFF AND ISZERO PUSH2 0x1D0E JUMPI PUSH1 0x1 PUSH1 0x1 PUSH1 0xA0 SHL SUB DUP2 AND PUSH0 SWAP1 DUP2 MSTORE PUSH1 0x8 PUSH1 0x20 MSTORE PUSH1 0x40 SWAP1 KECCAK256 SLOAD PUSH1 0xFF AND PUSH2 0x1D0E JUMPI PUSH1 0x40 MLOAD PUSH3 0x461BCD PUSH1 0xE5 SHL DUP2 MSTORE PUSH1 0x20 PUSH1 0x4 DUP3 ADD MSTORE PUSH0 PUSH1 0x24 DUP3 ADD MSTORE PUSH1 0x44 ADD PUSH2 0x7A6 JUMP JUMPDEST PUSH0 DUP3 GT PUSH2 0x1D36 JUMPI PUSH1 0x40 MLOAD PUSH3 0x461BCD PUSH1 0xE5 SHL DUP2 MSTORE PUSH1 0x20 PUSH1 0x4 DUP3 ADD MSTORE PUSH0 PUSH1 0x24 DUP3 ADD MSTORE PUSH1 0x44 ADD PUSH2 0x7A6 JUMP JUMPDEST PUSH0 PUSH2 0x1D42 PUSH1 0x14 DUP5 PUSH2 0x36BD JUMP JUMPDEST SWAP1 POP PUSH0 DUP2 GT PUSH2 0x1D6C JUMPI PUSH1 0x40 MLOAD PUSH3 0x461BCD PUSH1 0xE5 SHL DUP2 MSTORE PUSH1 0x20 PUSH1 0x4 DUP3 ADD MSTORE PUSH0 PUSH1 0x24 DUP3 ADD MSTORE PUSH1 0x44 ADD PUSH2 0x7A6 JUMP JUMPDEST PUSH1 0x7 SLOAD DUP2 PUSH1 0xA SLOAD PUSH2 0x1D7D SWAP2 SWAP1 PUSH2 0x3477 JUMP JUMPDEST GT ISZERO PUSH2 0x1DA4 JUMPI PUSH1 0x40 MLOAD PUSH3 0x461BCD PUSH1 0xE5 SHL DUP2 MSTORE PUSH1 0x20 PUSH1 0x4 DUP3 ADD MSTORE PUSH0 PUSH1 0x24 DUP3 ADD MSTORE PUSH1 0x44 ADD PUSH2 0x7A6 JUMP JUMPDEST PUSH2 0x1DAE DUP3 DUP3 PUSH2 0x2A2B JUMP JUMPDEST DUP1 PUSH1 0xA PUSH0 DUP3 DUP3 SLOAD PUSH2 0x1DBF SWAP2 SWAP1 PUSH2 0x3477 JUMP JUMPDEST SWAP1 SWAP2 SSTORE POP POP PUSH1 0x40 DUP1 MLOAD DUP5 DUP2 MSTORE PUSH1 0x20 DUP2 ADD DUP4 SWAP1 MSTORE PUSH1 0x1 PUSH1 0x1 PUSH1 0xA0 SHL SUB DUP5 AND SWAP2 CALLER SWAP2 PUSH32 0xBADB5A53E5A7F1F292F32F4CA0C78E80D05F213DB774602ACC6FACA5AECDF6D7 SWAP2 ADD PUSH1 0x40 MLOAD DUP1 SWAP2 SUB SWAP1 LOG3 POP PUSH2 0x1E15 PUSH1 0x1 PUSH1 0x6 SSTORE JUMP JUMPDEST POP POP JUMP JUMPDEST PUSH1 0x1 PUSH1 0x1 PUSH1 0xA0 SHL SUB DUP2 AND PUSH0 SWAP1 DUP2 MSTORE PUSH1 0x20 DUP2 SWAP1 MSTORE PUSH1 0x40 DUP2 KECCAK256 SLOAD PUSH2 0xC19 JUMP JUMPDEST PUSH1 0x11 SLOAD PUSH0 SWAP1 PUSH2 0x100 SWAP1 DIV PUSH1 0xFF AND ISZERO PUSH2 0x1E69 JUMPI PUSH1 0x40 MLOAD PUSH3 0x461BCD PUSH1 0xE5 SHL DUP2 MSTORE PUSH1 0x20 PUSH1 0x4 DUP3 ADD MSTORE PUSH0 PUSH1 0x24 DUP3 ADD MSTORE PUSH1 0x44 ADD PUSH2 0x7A6 JUMP JUMPDEST PUSH1 0x1 PUSH1 0x1 PUSH1 0xA0 SHL SUB DUP5 AND PUSH0 SWAP1 DUP2 MSTORE PUSH1 0x9 PUSH1 0x20 MSTORE PUSH1 0x40 SWAP1 KECCAK256 SLOAD PUSH1 0xFF AND ISZERO PUSH2 0x1EAA JUMPI PUSH1 0x40 MLOAD PUSH3 0x461BCD PUSH1 0xE5 SHL DUP2 MSTORE PUSH1 0x20 PUSH1 0x4 DUP3 ADD MSTORE PUSH0 PUSH1 0x24 DUP3 ADD MSTORE PUSH1 0x44 ADD PUSH2 0x7A6 JUMP JUMPDEST DUP2 PUSH1 0x1 PUSH1 0x1 PUSH1 0x80 SHL SUB AND DUP3 EQ PUSH2 0x1EDB JUMPI PUSH1 0x40 MLOAD PUSH3 0x461BCD PUSH1 0xE5 SHL DUP2 MSTORE PUSH1 0x20 PUSH1 0x4 DUP3 ADD MSTORE PUSH0 PUSH1 0x24 DUP3 ADD MSTORE PUSH1 0x44 ADD PUSH2 0x7A6 JUMP JUMPDEST PUSH2 0x1EE6 DUP5 DUP5 DUP5 PUSH2 0x2B1B JUMP JUMPDEST SWAP5 SWAP4 POP POP POP POP JUMP JUMPDEST CALLER PUSH0 SWAP1 DUP2 MSTORE PUSH1 0xC PUSH1 0x20 MSTORE PUSH1 0x40 SWAP1 KECCAK256 SLOAD PUSH1 0xFF AND PUSH2 0x1F25 JUMPI PUSH1 0x40 MLOAD PUSH3 0x461BCD PUSH1 0xE5 SHL DUP2 MSTORE PUSH1 0x20 PUSH1 0x4 DUP3 ADD MSTORE PUSH0 PUSH1 0x24 DUP3 ADD MSTORE PUSH1 0x44 ADD PUSH2 0x7A6 JUMP JUMPDEST PUSH1 0x11 SLOAD PUSH2 0x100 SWAP1 DIV PUSH1 0xFF AND ISZERO PUSH2 0x1F56 JUMPI PUSH1 0x40 MLOAD PUSH3 0x461BCD PUSH1 0xE5 SHL DUP2 MSTORE PUSH1 0x20 PUSH1 0x4 DUP3 ADD MSTORE PUSH0 PUSH1 0x24 DUP3 ADD MSTORE PUSH1 0x44 ADD PUSH2 0x7A6 JUMP JUMPDEST PUSH1 0x11 DUP1 SLOAD PUSH2 0xFF00 NOT AND PUSH2 0x100 OR SWAP1 SSTORE PUSH1 0x40 MLOAD PUSH32 0xAB35696F06E428EBC5CEBA8CD17F8FED287BAF43440206D1943AF1EE53E6D267 SWAP1 PUSH0 SWAP1 LOG1 JUMP JUMPDEST PUSH1 0x60 PUSH0 DUP1 JUMPDEST PUSH1 0x10 SLOAD DUP2 LT ISZERO PUSH2 0x1FCD JUMPI PUSH0 DUP2 DUP2 MSTORE PUSH1 0xF PUSH1 0x20 MSTORE PUSH1 0x40 SWAP1 KECCAK256 PUSH1 0x8 ADD SLOAD PUSH1 0xFF AND ISZERO PUSH2 0x1FC5 JUMPI DUP2 PUSH2 0x1FC1 DUP2 PUSH2 0x33AE JUMP JUMPDEST SWAP3 POP POP JUMPDEST PUSH1 0x1 ADD PUSH2 0x1F94 JUMP JUMPDEST POP DUP1 PUSH8 0xFFFFFFFFFFFFFFFF DUP2 GT ISZERO PUSH2 0x1FE7 JUMPI PUSH2 0x1FE7 PUSH2 0x3038 JUMP JUMPDEST PUSH1 0x40 MLOAD SWAP1 DUP1 DUP3 MSTORE DUP1 PUSH1 0x20 MUL PUSH1 0x20 ADD DUP3 ADD PUSH1 0x40 MSTORE DUP1 ISZERO PUSH2 0x2010 JUMPI DUP2 PUSH1 0x20 ADD PUSH1 0x20 DUP3 MUL DUP1 CALLDATASIZE DUP4 CALLDATACOPY ADD SWAP1 POP JUMPDEST POP SWAP2 POP PUSH0 DUP1 JUMPDEST PUSH1 0x10 SLOAD DUP2 LT ISZERO PUSH2 0x206D JUMPI PUSH0 DUP2 DUP2 MSTORE PUSH1 0xF PUSH1 0x20 MSTORE PUSH1 0x40 SWAP1 KECCAK256 PUSH1 0x8 ADD SLOAD PUSH1 0xFF AND ISZERO PUSH2 0x2065 JUMPI DUP1 DUP5 DUP4 DUP2 MLOAD DUP2 LT PUSH2 0x204C JUMPI PUSH2 0x204C PUSH2 0x3463 JUMP JUMPDEST PUSH1 0x20 SWAP1 DUP2 MUL SWAP2 SWAP1 SWAP2 ADD ADD MSTORE DUP2 PUSH2 0x2061 DUP2 PUSH2 0x33AE JUMP JUMPDEST SWAP3 POP POP JUMPDEST PUSH1 0x1 ADD PUSH2 0x2016 JUMP JUMPDEST POP POP POP SWAP1 JUMP JUMPDEST PUSH1 0xB DUP1 SLOAD PUSH2 0x2080 SWAP1 PUSH2 0x33C6 JUMP JUMPDEST DUP1 PUSH1 0x1F ADD PUSH1 0x20 DUP1 SWAP2 DIV MUL PUSH1 0x20 ADD PUSH1 0x40 MLOAD SWAP1 DUP2 ADD PUSH1 0x40 MSTORE DUP1 SWAP3 SWAP2 SWAP1 DUP2 DUP2 MSTORE PUSH1 0x20 ADD DUP3 DUP1 SLOAD PUSH2 0x20AC SWAP1 PUSH2 0x33C6 JUMP JUMPDEST DUP1 ISZERO PUSH2 0x20F7 JUMPI DUP1 PUSH1 0x1F LT PUSH2 0x20CE JUMPI PUSH2 0x100 DUP1 DUP4 SLOAD DIV MUL DUP4 MSTORE SWAP2 PUSH1 0x20 ADD SWAP2 PUSH2 0x20F7 JUMP JUMPDEST DUP3 ADD SWAP2 SWAP1 PUSH0 MSTORE PUSH1 0x20 PUSH0 KECCAK256 SWAP1 JUMPDEST DUP2 SLOAD DUP2 MSTORE SWAP1 PUSH1 0x1 ADD SWAP1 PUSH1 0x20 ADD DUP1 DUP4 GT PUSH2 0x20DA JUMPI DUP3 SWAP1 SUB PUSH1 0x1F AND DUP3 ADD SWAP2 JUMPDEST POP POP POP POP POP DUP2 JUMP JUMPDEST PUSH2 0x2107 PUSH2 0x2B3E JUMP JUMPDEST PUSH2 0x2110 PUSH0 PUSH2 0x2B6B JUMP JUMPDEST JUMP JUMPDEST PUSH1 0xE DUP2 DUP2 SLOAD DUP2 LT PUSH2 0x2121 JUMPI PUSH0 DUP1 REVERT JUMPDEST PUSH0 SWAP2 DUP3 MSTORE PUSH1 0x20 SWAP1 SWAP2 KECCAK256 ADD SLOAD PUSH1 0x1 PUSH1 0x1 PUSH1 0xA0 SHL SUB AND SWAP1 POP DUP2 JUMP JUMPDEST PUSH2 0x2142 PUSH2 0x2B3E JUMP JUMPDEST PUSH1 0x11 DUP1 SLOAD PUSH1 0xFF NOT AND SWAP1 SSTORE PUSH1 0x40 MLOAD PUSH32 0x8F69EF9279BFB1FE5F4F75790947A23FA88774E98242B966BCAAF7D25E8B3C16 SWAP1 PUSH0 SWAP1 LOG1 JUMP JUMPDEST PUSH1 0x11 SLOAD PUSH2 0x100 SWAP1 DIV PUSH1 0xFF AND ISZERO PUSH2 0x21A7 JUMPI PUSH1 0x40 MLOAD PUSH3 0x461BCD PUSH1 0xE5 SHL DUP2 MSTORE PUSH1 0x20 PUSH1 0x4 DUP3 ADD MSTORE PUSH0 PUSH1 0x24 DUP3 ADD MSTORE PUSH1 0x44 ADD PUSH2 0x7A6 JUMP JUMPDEST CALLER PUSH0 SWAP1 DUP2 MSTORE PUSH1 0xC PUSH1 0x20 MSTORE PUSH1 0x40 SWAP1 KECCAK256 SLOAD PUSH1 0xFF AND PUSH2 0x21DE JUMPI PUSH1 0x40 MLOAD PUSH3 0x461BCD PUSH1 0xE5 SHL DUP2 MSTORE PUSH1 0x20 PUSH1 0x4 DUP3 ADD MSTORE PUSH0 PUSH1 0x24 DUP3 ADD MSTORE PUSH1 0x44 ADD PUSH2 0x7A6 JUMP JUMPDEST PUSH2 0x12C PUSH1 0x12 SLOAD PUSH2 0x21EE SWAP2 SWAP1 PUSH2 0x3477 JUMP JUMPDEST TIMESTAMP LT ISZERO PUSH2 0x2216 JUMPI PUSH1 0x40 MLOAD PUSH3 0x461BCD PUSH1 0xE5 SHL DUP2 MSTORE PUSH1 0x20 PUSH1 0x4 DUP3 ADD MSTORE PUSH0 PUSH1 0x24 DUP3 ADD MSTORE PUSH1 0x44 ADD PUSH2 0x7A6 JUMP JUMPDEST PUSH1 0x7 SLOAD PUSH8 0xDE0B6B3A7640000 PUSH1 0xA SLOAD PUSH2 0x222F SWAP2 SWAP1 PUSH2 0x3477 JUMP JUMPDEST GT ISZERO PUSH2 0x2256 JUMPI PUSH1 0x40 MLOAD PUSH3 0x461BCD PUSH1 0xE5 SHL DUP2 MSTORE PUSH1 0x20 PUSH1 0x4 DUP3 ADD MSTORE PUSH0 PUSH1 0x24 DUP3 ADD MSTORE PUSH1 0x44 ADD PUSH2 0x7A6 JUMP JUMPDEST TIMESTAMP PUSH1 0x12 SSTORE PUSH1 0x40 MLOAD PUSH8 0xDE0B6B3A7640000 DUP2 MSTORE PUSH32 0x90596CA0CB29EF99CD530E572920440D7D040408F92C28E46836FE9E048F59D8 SWAP1 PUSH1 0x20 ADD PUSH1 0x40 MLOAD DUP1 SWAP2 SUB SWAP1 LOG1 JUMP JUMPDEST PUSH1 0x60 PUSH1 0x4 DUP1 SLOAD PUSH2 0xB85 SWAP1 PUSH2 0x33C6 JUMP JUMPDEST PUSH1 0x11 SLOAD PUSH0 SWAP1 PUSH2 0x100 SWAP1 DIV PUSH1 0xFF AND ISZERO PUSH2 0x22D9 JUMPI PUSH1 0x40 MLOAD PUSH3 0x461BCD PUSH1 0xE5 SHL DUP2 MSTORE PUSH1 0x20 PUSH1 0x4 DUP3 ADD MSTORE PUSH0 PUSH1 0x24 DUP3 ADD MSTORE PUSH1 0x44 ADD PUSH2 0x7A6 JUMP JUMPDEST CALLER PUSH0 SWAP1 DUP2 MSTORE PUSH1 0x9 PUSH1 0x20 MSTORE PUSH1 0x40 SWAP1 KECCAK256 SLOAD PUSH1 0xFF AND ISZERO PUSH2 0x2311 JUMPI PUSH1 0x40 MLOAD PUSH3 0x461BCD PUSH1 0xE5 SHL DUP2 MSTORE PUSH1 0x20 PUSH1 0x4 DUP3 ADD MSTORE PUSH0 PUSH1 0x24 DUP3 ADD MSTORE PUSH1 0x44 ADD PUSH2 0x7A6 JUMP JUMPDEST DUP2 PUSH1 0x1 PUSH1 0x1 PUSH1 0x80 SHL SUB AND DUP3 EQ PUSH2 0x2342 JUMPI PUSH1 0x40 MLOAD PUSH3 0x461BCD PUSH1 0xE5 SHL DUP2 MSTORE PUSH1 0x20 PUSH1 0x4 DUP3 ADD MSTORE PUSH0 PUSH1 0x24 DUP3 ADD MSTORE PUSH1 0x44 ADD PUSH2 0x7A6 JUMP JUMPDEST PUSH2 0x234C DUP4 DUP4 PUSH2 0x2BBC JUMP JUMPDEST SWAP4 SWAP3 POP POP POP JUMP JUMPDEST PUSH0 PUSH0 PUSH1 0x10 SLOAD GT PUSH2 0x2362 JUMPI POP PUSH0 SWAP1 JUMP JUMPDEST PUSH1 0x1 PUSH1 0x10 SLOAD PUSH2 0x2371 SWAP2 SWAP1 PUSH2 0x36D4 JUMP JUMPDEST SWAP1 POP SWAP1 JUMP JUMPDEST CALLER PUSH0 SWAP1 DUP2 MSTORE PUSH1 0xC PUSH1 0x20 MSTORE PUSH1 0x40 SWAP1 KECCAK256 SLOAD PUSH1 0xFF AND PUSH2 0x23AD JUMPI PUSH1 0x40 MLOAD PUSH3 0x461BCD PUSH1 0xE5 SHL DUP2 MSTORE PUSH1 0x20 PUSH1 0x4 DUP3 ADD MSTORE PUSH0 PUSH1 0x24 DUP3 ADD MSTORE PUSH1 0x44 ADD PUSH2 0x7A6 JUMP JUMPDEST PUSH1 0x11 DUP1 SLOAD PUSH2 0xFF00 NOT AND SWAP1 SSTORE PUSH1 0x40 MLOAD PUSH32 0xAB5F6DACF93A267A93A533DE8A56370DE8341BBD8102017307E7BE375C3DDA6A SWAP1 PUSH0 SWAP1 LOG1 JUMP JUMPDEST PUSH2 0x23EA PUSH2 0x271B JUMP JUMPDEST PUSH1 0x11 SLOAD PUSH2 0x100 SWAP1 DIV PUSH1 0xFF AND ISZERO PUSH2 0x241B JUMPI PUSH1 0x40 MLOAD PUSH3 0x461BCD PUSH1 0xE5 SHL DUP2 MSTORE PUSH1 0x20 PUSH1 0x4 DUP3 ADD MSTORE PUSH0 PUSH1 0x24 DUP3 ADD MSTORE PUSH1 0x44 ADD PUSH2 0x7A6 JUMP JUMPDEST PUSH2 0x384 PUSH1 0x13 SLOAD PUSH2 0x242B SWAP2 SWAP1 PUSH2 0x3477 JUMP JUMPDEST TIMESTAMP LT ISZERO PUSH2 0x2453 JUMPI PUSH1 0x40 MLOAD PUSH3 0x461BCD PUSH1 0xE5 SHL DUP2 MSTORE PUSH1 0x20 PUSH1 0x4 DUP3 ADD MSTORE PUSH0 PUSH1 0x24 DUP3 ADD MSTORE PUSH1 0x44 ADD PUSH2 0x7A6 JUMP JUMPDEST PUSH2 0x2466 DUP2 PUSH9 0x56BC75E2D63100000 PUSH2 0x2774 JUMP JUMPDEST TIMESTAMP PUSH1 0x13 SSTORE PUSH1 0x40 MLOAD PUSH2 0x2478 SWAP1 DUP3 SWAP1 PUSH2 0x33FE JUMP JUMPDEST PUSH1 0x40 DUP1 MLOAD SWAP2 DUP3 SWAP1 SUB DUP3 KECCAK256 PUSH9 0x56BC75E2D63100000 DUP4 MSTORE PUSH1 0x1 PUSH1 0x20 DUP5 ADD MSTORE SWAP2 PUSH32 0xC2AEAD9CF0EE95E5F48D316DB6ADCF05801AEC50B3029BF8AFCD0C2FAF73B12D SWAP2 ADD PUSH2 0xB61 JUMP JUMPDEST PUSH0 PUSH1 0xA SLOAD PUSH1 0x7 SLOAD PUSH2 0x2371 SWAP2 SWAP1 PUSH2 0x36D4 JUMP JUMPDEST PUSH1 0x11 SLOAD PUSH2 0x100 SWAP1 DIV PUSH1 0xFF AND ISZERO PUSH2 0x2500 JUMPI PUSH1 0x40 MLOAD PUSH3 0x461BCD PUSH1 0xE5 SHL DUP2 MSTORE PUSH1 0x20 PUSH1 0x4 DUP3 ADD MSTORE PUSH0 PUSH1 0x24 DUP3 ADD MSTORE PUSH1 0x44 ADD PUSH2 0x7A6 JUMP JUMPDEST PUSH0 DUP2 DUP2 MSTORE PUSH1 0xF PUSH1 0x20 MSTORE PUSH1 0x40 SWAP1 KECCAK256 PUSH1 0x8 DUP2 ADD SLOAD PUSH1 0xFF AND PUSH2 0x253A JUMPI PUSH1 0x40 MLOAD PUSH3 0x461BCD PUSH1 0xE5 SHL DUP2 MSTORE PUSH1 0x20 PUSH1 0x4 DUP3 ADD MSTORE PUSH0 PUSH1 0x24 DUP3 ADD MSTORE PUSH1 0x44 ADD PUSH2 0x7A6 JUMP JUMPDEST DUP1 SLOAD PUSH2 0x100 SWAP1 DIV PUSH1 0x1 PUSH1 0x1 PUSH1 0xA0 SHL SUB AND CALLER EQ PUSH2 0x2571 JUMPI PUSH1 0x40 MLOAD PUSH3 0x461BCD PUSH1 0xE5 SHL DUP2 MSTORE PUSH1 0x20 PUSH1 0x4 DUP3 ADD MSTORE PUSH0 PUSH1 0x24 DUP3 ADD MSTORE PUSH1 0x44 ADD PUSH2 0x7A6 JUMP JUMPDEST PUSH1 0x2 DUP2 SLOAD PUSH1 0xFF AND PUSH1 0x8 DUP2 GT ISZERO PUSH2 0x2589 JUMPI PUSH2 0x2589 PUSH2 0x2F71 JUMP JUMPDEST GT ISZERO PUSH2 0x25B0 JUMPI PUSH1 0x40 MLOAD PUSH3 0x461BCD PUSH1 0xE5 SHL DUP2 MSTORE PUSH1 0x20 PUSH1 0x4 DUP3 ADD MSTORE PUSH0 PUSH1 0x24 DUP3 ADD MSTORE PUSH1 0x44 ADD PUSH2 0x7A6 JUMP JUMPDEST DUP1 PUSH1 0x2 ADD SLOAD TIMESTAMP LT PUSH2 0x25DC JUMPI PUSH1 0x40 MLOAD PUSH3 0x461BCD PUSH1 0xE5 SHL DUP2 MSTORE PUSH1 0x20 PUSH1 0x4 DUP3 ADD MSTORE PUSH0 PUSH1 0x24 DUP3 ADD MSTORE PUSH1 0x44 ADD PUSH2 0x7A6 JUMP JUMPDEST PUSH2 0x25E5 DUP3 PUSH2 0x2A5F JUMP JUMPDEST DUP1 SLOAD PUSH0 DUP4 DUP2 MSTORE PUSH1 0xF PUSH1 0x20 MSTORE PUSH1 0x40 DUP2 KECCAK256 DUP1 SLOAD PUSH1 0x1 PUSH1 0x1 PUSH1 0xA8 SHL SUB NOT AND DUP2 SSTORE PUSH1 0x1 DUP2 ADD DUP3 SWAP1 SSTORE PUSH1 0x2 DUP2 ADD DUP3 SWAP1 SSTORE PUSH1 0x3 DUP2 ADD DUP1 SLOAD PUSH1 0x1 PUSH1 0x1 PUSH1 0xA0 SHL SUB NOT AND SWAP1 SSTORE PUSH1 0x4 DUP2 ADD DUP3 SWAP1 SSTORE PUSH1 0xFF SWAP1 SWAP3 AND SWAP2 SWAP1 PUSH2 0x263D PUSH1 0x5 DUP4 ADD DUP3 PUSH2 0x2EF8 JUMP JUMPDEST PUSH2 0x264A PUSH1 0x6 DUP4 ADD PUSH0 PUSH2 0x2F2F JUMP JUMPDEST PUSH2 0x2657 PUSH1 0x7 DUP4 ADD PUSH0 PUSH2 0x2F2F JUMP JUMPDEST POP PUSH1 0x8 ADD DUP1 SLOAD PUSH1 0xFF NOT AND SWAP1 SSTORE PUSH1 0x40 MLOAD DUP4 SWAP1 PUSH32 0x89616A339342F36E4DCECC713F695BCBFE35FEA112C4C652DA7E1656BD486CE8 SWAP1 PUSH2 0x2695 SWAP1 DUP5 SWAP1 PUSH2 0x36AF JUMP JUMPDEST PUSH1 0x40 MLOAD DUP1 SWAP2 SUB SWAP1 LOG2 POP POP POP JUMP JUMPDEST PUSH2 0x26AA PUSH2 0x2B3E JUMP JUMPDEST PUSH1 0x1 PUSH1 0x1 PUSH1 0xA0 SHL SUB DUP2 AND PUSH2 0x26D3 JUMPI PUSH1 0x40 MLOAD PUSH4 0x1E4FBDF7 PUSH1 0xE0 SHL DUP2 MSTORE PUSH0 PUSH1 0x4 DUP3 ADD MSTORE PUSH1 0x24 ADD PUSH2 0x7A6 JUMP JUMPDEST PUSH2 0xB73 DUP2 PUSH2 0x2B6B JUMP JUMPDEST PUSH2 0x26E4 PUSH2 0x2B3E JUMP JUMPDEST PUSH1 0x11 DUP1 SLOAD PUSH1 0xFF NOT AND PUSH1 0x1 OR SWAP1 SSTORE PUSH1 0x40 MLOAD PUSH32 0x20C53179FE7C6306D9D1C279D52BAE5E736F5E1178137542D3A7A9D1752691BE SWAP1 PUSH0 SWAP1 LOG1 JUMP JUMPDEST PUSH1 0x2 PUSH1 0x6 SLOAD SUB PUSH2 0x276D JUMPI PUSH1 0x40 MLOAD PUSH3 0x461BCD PUSH1 0xE5 SHL DUP2 MSTORE PUSH1 0x20 PUSH1 0x4 DUP3 ADD MSTORE PUSH1 0x1F PUSH1 0x24 DUP3 ADD MSTORE PUSH32 0x5265656E7472616E637947756172643A207265656E7472616E742063616C6C00 PUSH1 0x44 DUP3 ADD MSTORE PUSH1 0x64 ADD PUSH2 0x7A6 JUMP JUMPDEST PUSH1 0x2 PUSH1 0x6 SSTORE JUMP JUMPDEST PUSH0 DUP3 MLOAD GT PUSH2 0x279D JUMPI PUSH1 0x40 MLOAD PUSH3 0x461BCD PUSH1 0xE5 SHL DUP2 MSTORE PUSH1 0x20 PUSH1 0x4 DUP3 ADD MSTORE PUSH0 PUSH1 0x24 DUP3 ADD MSTORE PUSH1 0x44 ADD PUSH2 0x7A6 JUMP JUMPDEST PUSH0 DUP2 DUP4 MLOAD PUSH2 0x27AB SWAP2 SWAP1 PUSH2 0x36BD JUMP JUMPDEST SWAP1 POP PUSH1 0x7 SLOAD DUP2 PUSH1 0xA SLOAD PUSH2 0x27BE SWAP2 SWAP1 PUSH2 0x3477 JUMP JUMPDEST GT ISZERO PUSH2 0x27E5 JUMPI PUSH1 0x40 MLOAD PUSH3 0x461BCD PUSH1 0xE5 SHL DUP2 MSTORE PUSH1 0x20 PUSH1 0x4 DUP3 ADD MSTORE PUSH0 PUSH1 0x24 DUP3 ADD MSTORE PUSH1 0x44 ADD PUSH2 0x7A6 JUMP JUMPDEST PUSH0 JUMPDEST DUP4 MLOAD DUP2 LT ISZERO PUSH2 0x289A JUMPI PUSH0 DUP5 DUP3 DUP2 MLOAD DUP2 LT PUSH2 0x2803 JUMPI PUSH2 0x2803 PUSH2 0x3463 JUMP JUMPDEST PUSH1 0x20 MUL PUSH1 0x20 ADD ADD MLOAD SWAP1 POP PUSH0 PUSH1 0x1 PUSH1 0x1 PUSH1 0xA0 SHL SUB AND DUP2 PUSH1 0x1 PUSH1 0x1 PUSH1 0xA0 SHL SUB AND SUB PUSH2 0x2847 JUMPI PUSH1 0x40 MLOAD PUSH3 0x461BCD PUSH1 0xE5 SHL DUP2 MSTORE PUSH1 0x20 PUSH1 0x4 DUP3 ADD MSTORE PUSH0 PUSH1 0x24 DUP3 ADD MSTORE PUSH1 0x44 ADD PUSH2 0x7A6 JUMP JUMPDEST PUSH1 0x1 PUSH1 0x1 PUSH1 0xA0 SHL SUB DUP2 AND PUSH0 SWAP1 DUP2 MSTORE PUSH1 0x8 PUSH1 0x20 MSTORE PUSH1 0x40 SWAP1 KECCAK256 SLOAD PUSH1 0xFF AND PUSH2 0x2887 JUMPI PUSH1 0x40 MLOAD PUSH3 0x461BCD PUSH1 0xE5 SHL DUP2 MSTORE PUSH1 0x20 PUSH1 0x4 DUP3 ADD MSTORE PUSH0 PUSH1 0x24 DUP3 ADD MSTORE PUSH1 0x44 ADD PUSH2 0x7A6 JUMP JUMPDEST PUSH2 0x2891 DUP2 DUP6 PUSH2 0x2A2B JUMP JUMPDEST POP PUSH1 0x1 ADD PUSH2 0x27E7 JUMP JUMPDEST POP DUP1 PUSH1 0xA PUSH0 DUP3 DUP3 SLOAD PUSH2 0x28AC SWAP2 SWAP1 PUSH2 0x3477 JUMP JUMPDEST SWAP1 SWAP2 SSTORE POP POP POP POP POP JUMP JUMPDEST PUSH2 0x28C3 DUP4 DUP4 DUP4 PUSH1 0x1 PUSH2 0x2BC9 JUMP JUMPDEST POP POP POP JUMP JUMPDEST PUSH1 0x8 DUP2 ADD SLOAD PUSH0 SWAP1 PUSH1 0xFF AND PUSH2 0x28F7 JUMPI PUSH1 0x40 MLOAD PUSH3 0x461BCD PUSH1 0xE5 SHL DUP2 MSTORE PUSH1 0x20 PUSH1 0x4 DUP3 ADD MSTORE PUSH0 PUSH1 0x24 DUP3 ADD MSTORE PUSH1 0x44 ADD PUSH2 0x7A6 JUMP JUMPDEST DUP2 PUSH1 0x2 ADD SLOAD TIMESTAMP LT ISZERO PUSH2 0x2924 JUMPI PUSH1 0x40 MLOAD PUSH3 0x461BCD PUSH1 0xE5 SHL DUP2 MSTORE PUSH1 0x20 PUSH1 0x4 DUP3 ADD MSTORE PUSH0 PUSH1 0x24 DUP3 ADD MSTORE PUSH1 0x44 ADD PUSH2 0x7A6 JUMP JUMPDEST PUSH0 PUSH1 0x7 DUP4 SLOAD PUSH1 0xFF AND PUSH1 0x8 DUP2 GT ISZERO PUSH2 0x293D JUMPI PUSH2 0x293D PUSH2 0x2F71 JUMP JUMPDEST EQ DUP1 PUSH2 0x295E JUMPI POP PUSH1 0x8 DUP4 SLOAD PUSH1 0xFF AND PUSH1 0x8 DUP2 GT ISZERO PUSH2 0x295C JUMPI PUSH2 0x295C PUSH2 0x2F71 JUMP JUMPDEST EQ JUMPDEST PUSH2 0x29ED JUMPI PUSH1 0x3 DUP4 SLOAD PUSH1 0xFF AND PUSH1 0x8 DUP2 GT ISZERO PUSH2 0x297A JUMPI PUSH2 0x297A PUSH2 0x2F71 JUMP JUMPDEST EQ DUP1 PUSH2 0x299B JUMPI POP PUSH1 0x4 DUP4 SLOAD PUSH1 0xFF AND PUSH1 0x8 DUP2 GT ISZERO PUSH2 0x2999 JUMPI PUSH2 0x2999 PUSH2 0x2F71 JUMP JUMPDEST EQ JUMPDEST DUP1 PUSH2 0x29BB JUMPI POP PUSH1 0x5 DUP4 SLOAD PUSH1 0xFF AND PUSH1 0x8 DUP2 GT ISZERO PUSH2 0x29B9 JUMPI PUSH2 0x29B9 PUSH2 0x2F71 JUMP JUMPDEST EQ JUMPDEST DUP1 PUSH2 0x29DB JUMPI POP PUSH1 0x6 DUP4 SLOAD PUSH1 0xFF AND PUSH1 0x8 DUP2 GT ISZERO PUSH2 0x29D9 JUMPI PUSH2 0x29D9 PUSH2 0x2F71 JUMP JUMPDEST EQ JUMPDEST PUSH2 0x29E6 JUMPI PUSH1 0x5 PUSH2 0x29F0 JUMP JUMPDEST PUSH1 0x3 PUSH2 0x29F0 JUMP JUMPDEST PUSH1 0x2 JUMPDEST SWAP1 POP DUP1 DUP4 PUSH1 0x1 ADD SLOAD LT ISZERO PUSH2 0xC19 JUMPI PUSH1 0x40 MLOAD PUSH3 0x461BCD PUSH1 0xE5 SHL DUP2 MSTORE PUSH1 0x20 PUSH1 0x4 DUP3 ADD MSTORE PUSH0 PUSH1 0x24 DUP3 ADD MSTORE PUSH1 0x44 ADD PUSH2 0x7A6 JUMP JUMPDEST PUSH1 0xB PUSH2 0x1E15 DUP3 DUP3 PUSH2 0x34D5 JUMP JUMPDEST PUSH1 0x1 PUSH1 0x1 PUSH1 0xA0 SHL SUB DUP3 AND PUSH2 0x2A54 JUMPI PUSH1 0x40 MLOAD PUSH4 0xEC442F05 PUSH1 0xE0 SHL DUP2 MSTORE PUSH0 PUSH1 0x4 DUP3 ADD MSTORE PUSH1 0x24 ADD PUSH2 0x7A6 JUMP JUMPDEST PUSH2 0x1E15 PUSH0 DUP4 DUP4 PUSH2 0x2C9C JUMP JUMPDEST PUSH0 JUMPDEST PUSH1 0xE SLOAD DUP2 LT ISZERO PUSH2 0x1E15 JUMPI PUSH0 DUP3 DUP2 MSTORE PUSH1 0xD PUSH1 0x20 MSTORE PUSH1 0x40 DUP2 KECCAK256 PUSH1 0xE DUP1 SLOAD SWAP2 SWAP3 SWAP2 DUP5 SWAP1 DUP2 LT PUSH2 0x2A8F JUMPI PUSH2 0x2A8F PUSH2 0x3463 JUMP JUMPDEST PUSH0 SWAP2 DUP3 MSTORE PUSH1 0x20 DUP1 DUP4 KECCAK256 SWAP1 SWAP2 ADD SLOAD PUSH1 0x1 PUSH1 0x1 PUSH1 0xA0 SHL SUB AND DUP4 MSTORE DUP3 ADD SWAP3 SWAP1 SWAP3 MSTORE PUSH1 0x40 ADD SWAP1 KECCAK256 SLOAD PUSH1 0xFF AND ISZERO PUSH2 0x2B13 JUMPI PUSH0 DUP3 DUP2 MSTORE PUSH1 0xD PUSH1 0x20 MSTORE PUSH1 0x40 DUP2 KECCAK256 PUSH1 0xE DUP1 SLOAD DUP4 SWAP2 SWAP1 DUP6 SWAP1 DUP2 LT PUSH2 0x2ADF JUMPI PUSH2 0x2ADF PUSH2 0x3463 JUMP JUMPDEST PUSH0 SWAP2 DUP3 MSTORE PUSH1 0x20 DUP1 DUP4 KECCAK256 SWAP2 SWAP1 SWAP2 ADD SLOAD PUSH1 0x1 PUSH1 0x1 PUSH1 0xA0 SHL SUB AND DUP4 MSTORE DUP3 ADD SWAP3 SWAP1 SWAP3 MSTORE PUSH1 0x40 ADD SWAP1 KECCAK256 DUP1 SLOAD PUSH1 0xFF NOT AND SWAP2 ISZERO ISZERO SWAP2 SWAP1 SWAP2 OR SWAP1 SSTORE JUMPDEST PUSH1 0x1 ADD PUSH2 0x2A61 JUMP JUMPDEST PUSH0 CALLER PUSH2 0x2B28 DUP6 DUP3 DUP6 PUSH2 0x2DC2 JUMP JUMPDEST PUSH2 0x2B33 DUP6 DUP6 DUP6 PUSH2 0x2E38 JUMP JUMPDEST POP PUSH1 0x1 SWAP5 SWAP4 POP POP POP POP JUMP JUMPDEST PUSH1 0x5 SLOAD PUSH1 0x1 PUSH1 0x1 PUSH1 0xA0 SHL SUB AND CALLER EQ PUSH2 0x2110 JUMPI PUSH1 0x40 MLOAD PUSH4 0x118CDAA7 PUSH1 0xE0 SHL DUP2 MSTORE CALLER PUSH1 0x4 DUP3 ADD MSTORE PUSH1 0x24 ADD PUSH2 0x7A6 JUMP JUMPDEST PUSH1 0x5 DUP1 SLOAD PUSH1 0x1 PUSH1 0x1 PUSH1 0xA0 SHL SUB DUP4 DUP2 AND PUSH1 0x1 PUSH1 0x1 PUSH1 0xA0 SHL SUB NOT DUP4 AND DUP2 OR SWAP1 SWAP4 SSTORE PUSH1 0x40 MLOAD SWAP2 AND SWAP2 SWAP1 DUP3 SWAP1 PUSH32 0x8BE0079C531659141344CD1FD0A4F28419497F9722A3DAAFE3B4186F6B6457E0 SWAP1 PUSH0 SWAP1 LOG3 POP POP JUMP JUMPDEST PUSH0 CALLER PUSH2 0xC13 DUP2 DUP6 DUP6 PUSH2 0x2E38 JUMP JUMPDEST PUSH1 0x1 PUSH1 0x1 PUSH1 0xA0 SHL SUB DUP5 AND PUSH2 0x2BF2 JUMPI PUSH1 0x40 MLOAD PUSH4 0xE602DF05 PUSH1 0xE0 SHL DUP2 MSTORE PUSH0 PUSH1 0x4 DUP3 ADD MSTORE PUSH1 0x24 ADD PUSH2 0x7A6 JUMP JUMPDEST PUSH1 0x1 PUSH1 0x1 PUSH1 0xA0 SHL SUB DUP4 AND PUSH2 0x2C1B JUMPI PUSH1 0x40 MLOAD PUSH4 0x4A1406B1 PUSH1 0xE1 SHL DUP2 MSTORE PUSH0 PUSH1 0x4 DUP3 ADD MSTORE PUSH1 0x24 ADD PUSH2 0x7A6 JUMP JUMPDEST PUSH1 0x1 PUSH1 0x1 PUSH1 0xA0 SHL SUB DUP1 DUP6 AND PUSH0 SWAP1 DUP2 MSTORE PUSH1 0x1 PUSH1 0x20 SWAP1 DUP2 MSTORE PUSH1 0x40 DUP1 DUP4 KECCAK256 SWAP4 DUP8 AND DUP4 MSTORE SWAP3 SWAP1 MSTORE KECCAK256 DUP3 SWAP1 SSTORE DUP1 ISZERO PUSH2 0x2C96 JUMPI DUP3 PUSH1 0x1 PUSH1 0x1 PUSH1 0xA0 SHL SUB AND DUP5 PUSH1 0x1 PUSH1 0x1 PUSH1 0xA0 SHL SUB AND PUSH32 0x8C5BE1E5EBEC7D5BD14F71427D1E84F3DD0314C0F7B2291E5B200AC8C7C3B925 DUP5 PUSH1 0x40 MLOAD PUSH2 0x2C8D SWAP2 DUP2 MSTORE PUSH1 0x20 ADD SWAP1 JUMP JUMPDEST PUSH1 0x40 MLOAD DUP1 SWAP2 SUB SWAP1 LOG3 JUMPDEST POP POP POP POP JUMP JUMPDEST PUSH1 0x1 PUSH1 0x1 PUSH1 0xA0 SHL SUB DUP4 AND PUSH2 0x2CC6 JUMPI DUP1 PUSH1 0x2 PUSH0 DUP3 DUP3 SLOAD PUSH2 0x2CBB SWAP2 SWAP1 PUSH2 0x3477 JUMP JUMPDEST SWAP1 SWAP2 SSTORE POP PUSH2 0x2D36 SWAP1 POP JUMP JUMPDEST PUSH1 0x1 PUSH1 0x1 PUSH1 0xA0 SHL SUB DUP4 AND PUSH0 SWAP1 DUP2 MSTORE PUSH1 0x20 DUP2 SWAP1 MSTORE PUSH1 0x40 SWAP1 KECCAK256 SLOAD DUP2 DUP2 LT ISZERO PUSH2 0x2D18 JUMPI PUSH1 0x40 MLOAD PUSH4 0x391434E3 PUSH1 0xE2 SHL DUP2 MSTORE PUSH1 0x1 PUSH1 0x1 PUSH1 0xA0 SHL SUB DUP6 AND PUSH1 0x4 DUP3 ADD MSTORE PUSH1 0x24 DUP2 ADD DUP3 SWAP1 MSTORE PUSH1 0x44 DUP2 ADD DUP4 SWAP1 MSTORE PUSH1 0x64 ADD PUSH2 0x7A6 JUMP JUMPDEST PUSH1 0x1 PUSH1 0x1 PUSH1 0xA0 SHL SUB DUP5 AND PUSH0 SWAP1 DUP2 MSTORE PUSH1 0x20 DUP2 SWAP1 MSTORE PUSH1 0x40 SWAP1 KECCAK256 SWAP1 DUP3 SWAP1 SUB SWAP1 SSTORE JUMPDEST PUSH1 0x1 PUSH1 0x1 PUSH1 0xA0 SHL SUB DUP3 AND PUSH2 0x2D52 JUMPI PUSH1 0x2 DUP1 SLOAD DUP3 SWAP1 SUB SWAP1 SSTORE PUSH2 0x2D70 JUMP JUMPDEST PUSH1 0x1 PUSH1 0x1 PUSH1 0xA0 SHL SUB DUP3 AND PUSH0 SWAP1 DUP2 MSTORE PUSH1 0x20 DUP2 SWAP1 MSTORE PUSH1 0x40 SWAP1 KECCAK256 DUP1 SLOAD DUP3 ADD SWAP1 SSTORE JUMPDEST DUP2 PUSH1 0x1 PUSH1 0x1 PUSH1 0xA0 SHL SUB AND DUP4 PUSH1 0x1 PUSH1 0x1 PUSH1 0xA0 SHL SUB AND PUSH32 0xDDF252AD1BE2C89B69C2B068FC378DAA952BA7F163C4A11628F55A4DF523B3EF DUP4 PUSH1 0x40 MLOAD PUSH2 0x2DB5 SWAP2 DUP2 MSTORE PUSH1 0x20 ADD SWAP1 JUMP JUMPDEST PUSH1 0x40 MLOAD DUP1 SWAP2 SUB SWAP1 LOG3 POP POP POP JUMP JUMPDEST PUSH1 0x1 PUSH1 0x1 PUSH1 0xA0 SHL SUB DUP4 DUP2 AND PUSH0 SWAP1 DUP2 MSTORE PUSH1 0x1 PUSH1 0x20 SWAP1 DUP2 MSTORE PUSH1 0x40 DUP1 DUP4 KECCAK256 SWAP4 DUP7 AND DUP4 MSTORE SWAP3 SWAP1 MSTORE KECCAK256 SLOAD PUSH0 NOT DUP2 LT ISZERO PUSH2 0x2C96 JUMPI DUP2 DUP2 LT ISZERO PUSH2 0x2E2A JUMPI PUSH1 0x40 MLOAD PUSH4 0x7DC7A0D9 PUSH1 0xE1 SHL DUP2 MSTORE PUSH1 0x1 PUSH1 0x1 PUSH1 0xA0 SHL SUB DUP5 AND PUSH1 0x4 DUP3 ADD MSTORE PUSH1 0x24 DUP2 ADD DUP3 SWAP1 MSTORE PUSH1 0x44 DUP2 ADD DUP4 SWAP1 MSTORE PUSH1 0x64 ADD PUSH2 0x7A6 JUMP JUMPDEST PUSH2 0x2C96 DUP5 DUP5 DUP5 DUP5 SUB PUSH0 PUSH2 0x2BC9 JUMP JUMPDEST PUSH1 0x1 PUSH1 0x1 PUSH1 0xA0 SHL SUB DUP4 AND PUSH2 0x2E61 JUMPI PUSH1 0x40 MLOAD PUSH4 0x4B637E8F PUSH1 0xE1 SHL DUP2 MSTORE PUSH0 PUSH1 0x4 DUP3 ADD MSTORE PUSH1 0x24 ADD PUSH2 0x7A6 JUMP JUMPDEST PUSH1 0x1 PUSH1 0x1 PUSH1 0xA0 SHL SUB DUP3 AND PUSH2 0x2E8A JUMPI PUSH1 0x40 MLOAD PUSH4 0xEC442F05 PUSH1 0xE0 SHL DUP2 MSTORE PUSH0 PUSH1 0x4 DUP3 ADD MSTORE PUSH1 0x24 ADD PUSH2 0x7A6 JUMP JUMPDEST PUSH2 0x28C3 DUP4 DUP4 DUP4 PUSH2 0x2C9C JUMP JUMPDEST DUP3 DUP1 SLOAD DUP3 DUP3 SSTORE SWAP1 PUSH0 MSTORE PUSH1 0x20 PUSH0 KECCAK256 SWAP1 DUP2 ADD SWAP3 DUP3 ISZERO PUSH2 0x2EE8 JUMPI SWAP2 PUSH1 0x20 MUL DUP3 ADD JUMPDEST DUP3 DUP2 GT ISZERO PUSH2 0x2EE8 JUMPI DUP3 MLOAD DUP3 SLOAD PUSH1 0x1 PUSH1 0x1 PUSH1 0xA0 SHL SUB NOT AND PUSH1 0x1 PUSH1 0x1 PUSH1 0xA0 SHL SUB SWAP1 SWAP2 AND OR DUP3 SSTORE PUSH1 0x20 SWAP1 SWAP3 ADD SWAP2 PUSH1 0x1 SWAP1 SWAP2 ADD SWAP1 PUSH2 0x2EB3 JUMP JUMPDEST POP PUSH2 0x2EF4 SWAP3 SWAP2 POP PUSH2 0x2F46 JUMP JUMPDEST POP SWAP1 JUMP JUMPDEST POP DUP1 SLOAD PUSH2 0x2F04 SWAP1 PUSH2 0x33C6 JUMP JUMPDEST PUSH0 DUP3 SSTORE DUP1 PUSH1 0x1F LT PUSH2 0x2F13 JUMPI POP POP JUMP JUMPDEST PUSH1 0x1F ADD PUSH1 0x20 SWAP1 DIV SWAP1 PUSH0 MSTORE PUSH1 0x20 PUSH0 KECCAK256 SWAP1 DUP2 ADD SWAP1 PUSH2 0xB73 SWAP2 SWAP1 PUSH2 0x2F46 JUMP JUMPDEST POP DUP1 SLOAD PUSH0 DUP3 SSTORE SWAP1 PUSH0 MSTORE PUSH1 0x20 PUSH0 KECCAK256 SWAP1 DUP2 ADD SWAP1 PUSH2 0xB73 SWAP2 SWAP1 JUMPDEST JUMPDEST DUP1 DUP3 GT ISZERO PUSH2 0x2EF4 JUMPI PUSH0 DUP2 SSTORE PUSH1 0x1 ADD PUSH2 0x2F47 JUMP JUMPDEST PUSH0 PUSH1 0x20 DUP3 DUP5 SUB SLT ISZERO PUSH2 0x2F6A JUMPI PUSH0 PUSH0 REVERT JUMPDEST POP CALLDATALOAD SWAP2 SWAP1 POP JUMP JUMPDEST PUSH4 0x4E487B71 PUSH1 0xE0 SHL PUSH0 MSTORE PUSH1 0x21 PUSH1 0x4 MSTORE PUSH1 0x24 PUSH0 REVERT JUMPDEST PUSH1 0x9 DUP2 LT PUSH2 0x2FA1 JUMPI PUSH4 0x4E487B71 PUSH1 0xE0 SHL PUSH0 MSTORE PUSH1 0x21 PUSH1 0x4 MSTORE PUSH1 0x24 PUSH0 REVERT JUMPDEST SWAP1 MSTORE JUMP JUMPDEST PUSH0 DUP2 MLOAD DUP1 DUP5 MSTORE DUP1 PUSH1 0x20 DUP5 ADD PUSH1 0x20 DUP7 ADD MCOPY PUSH0 PUSH1 0x20 DUP3 DUP7 ADD ADD MSTORE PUSH1 0x20 PUSH1 0x1F NOT PUSH1 0x1F DUP4 ADD AND DUP6 ADD ADD SWAP2 POP POP SWAP3 SWAP2 POP POP JUMP JUMPDEST PUSH2 0x2FDD DUP2 DUP11 PUSH2 0x2F85 JUMP JUMPDEST PUSH1 0x1 PUSH1 0x1 PUSH1 0xA0 SHL SUB DUP9 DUP2 AND PUSH1 0x20 DUP4 ADD MSTORE PUSH1 0x40 DUP3 ADD DUP9 SWAP1 MSTORE PUSH1 0x60 DUP3 ADD DUP8 SWAP1 MSTORE DUP6 AND PUSH1 0x80 DUP3 ADD MSTORE PUSH1 0xA0 DUP2 ADD DUP5 SWAP1 MSTORE PUSH2 0x100 PUSH1 0xC0 DUP3 ADD DUP2 SWAP1 MSTORE PUSH0 SWAP1 PUSH2 0x3021 SWAP1 DUP4 ADD DUP6 PUSH2 0x2FA5 JUMP JUMPDEST SWAP1 POP DUP3 ISZERO ISZERO PUSH1 0xE0 DUP4 ADD MSTORE SWAP10 SWAP9 POP POP POP POP POP POP POP POP POP JUMP JUMPDEST PUSH4 0x4E487B71 PUSH1 0xE0 SHL PUSH0 MSTORE PUSH1 0x41 PUSH1 0x4 MSTORE PUSH1 0x24 PUSH0 REVERT JUMPDEST PUSH1 0x40 MLOAD PUSH1 0x1F DUP3 ADD PUSH1 0x1F NOT AND DUP2 ADD PUSH8 0xFFFFFFFFFFFFFFFF DUP2 GT DUP3 DUP3 LT OR ISZERO PUSH2 0x3075 JUMPI PUSH2 0x3075 PUSH2 0x3038 JUMP JUMPDEST PUSH1 0x40 MSTORE SWAP2 SWAP1 POP JUMP JUMPDEST DUP1 CALLDATALOAD PUSH1 0x1 PUSH1 0x1 PUSH1 0xA0 SHL SUB DUP2 AND DUP2 EQ PUSH2 0x3093 JUMPI PUSH0 PUSH0 REVERT JUMPDEST SWAP2 SWAP1 POP JUMP JUMPDEST PUSH0 DUP3 PUSH1 0x1F DUP4 ADD SLT PUSH2 0x30A7 JUMPI PUSH0 PUSH0 REVERT JUMPDEST DUP2 CALLDATALOAD PUSH8 0xFFFFFFFFFFFFFFFF DUP2 GT ISZERO PUSH2 0x30C1 JUMPI PUSH2 0x30C1 PUSH2 0x3038 JUMP JUMPDEST DUP1 PUSH1 0x5 SHL PUSH2 0x30D1 PUSH1 0x20 DUP3 ADD PUSH2 0x304C JUMP JUMPDEST SWAP2 DUP3 MSTORE PUSH1 0x20 DUP2 DUP6 ADD DUP2 ADD SWAP3 SWAP1 DUP2 ADD SWAP1 DUP7 DUP5 GT ISZERO PUSH2 0x30EC JUMPI PUSH0 PUSH0 REVERT JUMPDEST PUSH1 0x20 DUP7 ADD SWAP3 POP JUMPDEST DUP4 DUP4 LT ISZERO PUSH2 0x3115 JUMPI PUSH2 0x3104 DUP4 PUSH2 0x307D JUMP JUMPDEST DUP3 MSTORE PUSH1 0x20 SWAP3 DUP4 ADD SWAP3 SWAP1 SWAP2 ADD SWAP1 PUSH2 0x30F3 JUMP JUMPDEST SWAP7 SWAP6 POP POP POP POP POP POP JUMP JUMPDEST PUSH0 PUSH1 0x20 DUP3 DUP5 SUB SLT ISZERO PUSH2 0x312F JUMPI PUSH0 PUSH0 REVERT JUMPDEST DUP2 CALLDATALOAD PUSH8 0xFFFFFFFFFFFFFFFF DUP2 GT ISZERO PUSH2 0x3145 JUMPI PUSH0 PUSH0 REVERT JUMPDEST PUSH2 0x1EE6 DUP5 DUP3 DUP6 ADD PUSH2 0x3098 JUMP JUMPDEST PUSH1 0x20 DUP2 MSTORE PUSH0 PUSH2 0x234C PUSH1 0x20 DUP4 ADD DUP5 PUSH2 0x2FA5 JUMP JUMPDEST PUSH0 PUSH0 PUSH1 0x40 DUP4 DUP6 SUB SLT ISZERO PUSH2 0x3174 JUMPI PUSH0 PUSH0 REVERT JUMPDEST PUSH2 0x317D DUP4 PUSH2 0x307D JUMP JUMPDEST SWAP5 PUSH1 0x20 SWAP4 SWAP1 SWAP4 ADD CALLDATALOAD SWAP4 POP POP POP JUMP JUMPDEST PUSH0 DUP3 PUSH1 0x1F DUP4 ADD SLT PUSH2 0x319A JUMPI PUSH0 PUSH0 REVERT JUMPDEST DUP2 CALLDATALOAD PUSH8 0xFFFFFFFFFFFFFFFF DUP2 GT ISZERO PUSH2 0x31B4 JUMPI PUSH2 0x31B4 PUSH2 0x3038 JUMP JUMPDEST PUSH2 0x31C7 PUSH1 0x1F DUP3 ADD PUSH1 0x1F NOT AND PUSH1 0x20 ADD PUSH2 0x304C JUMP JUMPDEST DUP2 DUP2 MSTORE DUP5 PUSH1 0x20 DUP4 DUP7 ADD ADD GT ISZERO PUSH2 0x31DB JUMPI PUSH0 PUSH0 REVERT JUMPDEST DUP2 PUSH1 0x20 DUP6 ADD PUSH1 0x20 DUP4 ADD CALLDATACOPY PUSH0 SWAP2 DUP2 ADD PUSH1 0x20 ADD SWAP2 SWAP1 SWAP2 MSTORE SWAP4 SWAP3 POP POP POP JUMP JUMPDEST PUSH0 PUSH0 PUSH0 PUSH0 PUSH0 PUSH0 PUSH1 0xC0 DUP8 DUP10 SUB SLT ISZERO PUSH2 0x320C JUMPI PUSH0 PUSH0 REVERT JUMPDEST DUP7 CALLDATALOAD PUSH1 0x9 DUP2 LT PUSH2 0x321A JUMPI PUSH0 PUSH0 REVERT JUMPDEST SWAP6 POP PUSH2 0x3228 PUSH1 0x20 DUP9 ADD PUSH2 0x307D JUMP JUMPDEST SWAP5 POP PUSH1 0x40 DUP8 ADD CALLDATALOAD SWAP4 POP PUSH1 0x60 DUP8 ADD CALLDATALOAD PUSH8 0xFFFFFFFFFFFFFFFF DUP2 GT ISZERO PUSH2 0x324A JUMPI PUSH0 PUSH0 REVERT JUMPDEST PUSH2 0x3256 DUP10 DUP3 DUP11 ADD PUSH2 0x318B JUMP JUMPDEST SWAP4 POP POP PUSH1 0x80 DUP8 ADD CALLDATALOAD PUSH8 0xFFFFFFFFFFFFFFFF DUP2 GT ISZERO PUSH2 0x3272 JUMPI PUSH0 PUSH0 REVERT JUMPDEST PUSH2 0x327E DUP10 DUP3 DUP11 ADD PUSH2 0x3098 JUMP JUMPDEST SWAP3 POP POP PUSH1 0xA0 DUP8 ADD CALLDATALOAD PUSH8 0xFFFFFFFFFFFFFFFF DUP2 GT ISZERO PUSH2 0x329A JUMPI PUSH0 PUSH0 REVERT JUMPDEST PUSH2 0x32A6 DUP10 DUP3 DUP11 ADD PUSH2 0x3098 JUMP JUMPDEST SWAP2 POP POP SWAP3 SWAP6 POP SWAP3 SWAP6 POP SWAP3 SWAP6 JUMP JUMPDEST PUSH0 PUSH0 PUSH1 0x40 DUP4 DUP6 SUB SLT ISZERO PUSH2 0x32C4 JUMPI PUSH0 PUSH0 REVERT JUMPDEST DUP3 CALLDATALOAD SWAP2 POP PUSH2 0x32D4 PUSH1 0x20 DUP5 ADD PUSH2 0x307D JUMP JUMPDEST SWAP1 POP SWAP3 POP SWAP3 SWAP1 POP JUMP JUMPDEST PUSH0 PUSH1 0x20 DUP3 DUP5 SUB SLT ISZERO PUSH2 0x32ED JUMPI PUSH0 PUSH0 REVERT JUMPDEST PUSH2 0x234C DUP3 PUSH2 0x307D JUMP JUMPDEST PUSH0 PUSH0 PUSH0 PUSH1 0x60 DUP5 DUP7 SUB SLT ISZERO PUSH2 0x3308 JUMPI PUSH0 PUSH0 REVERT JUMPDEST PUSH2 0x3311 DUP5 PUSH2 0x307D JUMP JUMPDEST SWAP3 POP PUSH2 0x331F PUSH1 0x20 DUP6 ADD PUSH2 0x307D JUMP JUMPDEST SWAP3 SWAP6 SWAP3 SWAP5 POP POP POP PUSH1 0x40 SWAP2 SWAP1 SWAP2 ADD CALLDATALOAD SWAP1 JUMP JUMPDEST PUSH1 0x20 DUP1 DUP3 MSTORE DUP3 MLOAD DUP3 DUP3 ADD DUP2 SWAP1 MSTORE PUSH0 SWAP2 DUP5 ADD SWAP1 PUSH1 0x40 DUP5 ADD SWAP1 DUP4 JUMPDEST DUP2 DUP2 LT ISZERO PUSH2 0x3367 JUMPI DUP4 MLOAD DUP4 MSTORE PUSH1 0x20 SWAP4 DUP5 ADD SWAP4 SWAP1 SWAP3 ADD SWAP2 PUSH1 0x1 ADD PUSH2 0x3349 JUMP JUMPDEST POP SWAP1 SWAP6 SWAP5 POP POP POP POP POP JUMP JUMPDEST PUSH0 PUSH0 PUSH1 0x40 DUP4 DUP6 SUB SLT ISZERO PUSH2 0x3383 JUMPI PUSH0 PUSH0 REVERT JUMPDEST PUSH2 0x338C DUP4 PUSH2 0x307D JUMP JUMPDEST SWAP2 POP PUSH2 0x32D4 PUSH1 0x20 DUP5 ADD PUSH2 0x307D JUMP JUMPDEST PUSH4 0x4E487B71 PUSH1 0xE0 SHL PUSH0 MSTORE PUSH1 0x11 PUSH1 0x4 MSTORE PUSH1 0x24 PUSH0 REVERT JUMPDEST PUSH0 PUSH1 0x1 DUP3 ADD PUSH2 0x33BF JUMPI PUSH2 0x33BF PUSH2 0x339A JUMP JUMPDEST POP PUSH1 0x1 ADD SWAP1 JUMP JUMPDEST PUSH1 0x1 DUP2 DUP2 SHR SWAP1 DUP3 AND DUP1 PUSH2 0x33DA JUMPI PUSH1 0x7F DUP3 AND SWAP2 POP JUMPDEST PUSH1 0x20 DUP3 LT DUP2 SUB PUSH2 0x33F8 JUMPI PUSH4 0x4E487B71 PUSH1 0xE0 SHL PUSH0 MSTORE PUSH1 0x22 PUSH1 0x4 MSTORE PUSH1 0x24 PUSH0 REVERT JUMPDEST POP SWAP2 SWAP1 POP JUMP JUMPDEST DUP2 MLOAD PUSH0 SWAP1 DUP3 SWAP1 PUSH1 0x20 DUP6 ADD DUP4 JUMPDEST DUP3 DUP2 LT ISZERO PUSH2 0x3431 JUMPI DUP2 MLOAD PUSH1 0x1 PUSH1 0x1 PUSH1 0xA0 SHL SUB AND DUP5 MSTORE PUSH1 0x20 SWAP4 DUP5 ADD SWAP4 SWAP1 SWAP2 ADD SWAP1 PUSH1 0x1 ADD PUSH2 0x340A JUMP JUMPDEST POP SWAP2 SWAP6 SWAP5 POP POP POP POP POP JUMP JUMPDEST DUP1 DUP3 ADD DUP3 DUP2 SLT PUSH0 DUP4 SLT DUP1 ISZERO DUP3 AND DUP3 ISZERO DUP3 AND OR ISZERO PUSH2 0x345B JUMPI PUSH2 0x345B PUSH2 0x339A JUMP JUMPDEST POP POP SWAP3 SWAP2 POP POP JUMP JUMPDEST PUSH4 0x4E487B71 PUSH1 0xE0 SHL PUSH0 MSTORE PUSH1 0x32 PUSH1 0x4 MSTORE PUSH1 0x24 PUSH0 REVERT JUMPDEST DUP1 DUP3 ADD DUP1 DUP3 GT ISZERO PUSH2 0xC19 JUMPI PUSH2 0xC19 PUSH2 0x339A JUMP JUMPDEST PUSH1 0x1F DUP3 GT ISZERO PUSH2 0x28C3 JUMPI DUP1 PUSH0 MSTORE PUSH1 0x20 PUSH0 KECCAK256 PUSH1 0x1F DUP5 ADD PUSH1 0x5 SHR DUP2 ADD PUSH1 0x20 DUP6 LT ISZERO PUSH2 0x34AF JUMPI POP DUP1 JUMPDEST PUSH1 0x1F DUP5 ADD PUSH1 0x5 SHR DUP3 ADD SWAP2 POP JUMPDEST DUP2 DUP2 LT ISZERO PUSH2 0x34CE JUMPI PUSH0 DUP2 SSTORE PUSH1 0x1 ADD PUSH2 0x34BB JUMP JUMPDEST POP POP POP POP POP JUMP JUMPDEST DUP2 MLOAD PUSH8 0xFFFFFFFFFFFFFFFF DUP2 GT ISZERO PUSH2 0x34EF JUMPI PUSH2 0x34EF PUSH2 0x3038 JUMP JUMPDEST PUSH2 0x3503 DUP2 PUSH2 0x34FD DUP5 SLOAD PUSH2 0x33C6 JUMP JUMPDEST DUP5 PUSH2 0x348A JUMP JUMPDEST PUSH1 0x20 PUSH1 0x1F DUP3 GT PUSH1 0x1 DUP2 EQ PUSH2 0x3535 JUMPI PUSH0 DUP4 ISZERO PUSH2 0x351E JUMPI POP DUP5 DUP3 ADD MLOAD JUMPDEST PUSH0 NOT PUSH1 0x3 DUP6 SWAP1 SHL SHR NOT AND PUSH1 0x1 DUP5 SWAP1 SHL OR DUP5 SSTORE PUSH2 0x34CE JUMP JUMPDEST PUSH0 DUP5 DUP2 MSTORE PUSH1 0x20 DUP2 KECCAK256 PUSH1 0x1F NOT DUP6 AND SWAP2 JUMPDEST DUP3 DUP2 LT ISZERO PUSH2 0x3564 JUMPI DUP8 DUP6 ADD MLOAD DUP3 SSTORE PUSH1 0x20 SWAP5 DUP6 ADD SWAP5 PUSH1 0x1 SWAP1 SWAP3 ADD SWAP2 ADD PUSH2 0x3544 JUMP JUMPDEST POP DUP5 DUP3 LT ISZERO PUSH2 0x3581 JUMPI DUP7 DUP5 ADD MLOAD PUSH0 NOT PUSH1 0x3 DUP8 SWAP1 SHL PUSH1 0xF8 AND SHR NOT AND DUP2 SSTORE JUMPDEST POP POP POP POP PUSH1 0x1 SWAP1 DUP2 SHL ADD SWAP1 SSTORE POP JUMP JUMPDEST PUSH1 0x40 DUP2 ADD PUSH2 0x359E DUP3 DUP6 PUSH2 0x2F85 JUMP JUMPDEST PUSH1 0x1 PUSH1 0x1 PUSH1 0xA0 SHL SUB SWAP3 SWAP1 SWAP3 AND PUSH1 0x20 SWAP2 SWAP1 SWAP2 ADD MSTORE SWAP2 SWAP1 POP JUMP JUMPDEST PUSH1 0x20 DUP2 MSTORE PUSH0 PUSH0 DUP4 SLOAD PUSH2 0x35C7 DUP2 PUSH2 0x33C6 JUMP JUMPDEST DUP1 PUSH1 0x20 DUP7 ADD MSTORE PUSH1 0x1 DUP3 AND PUSH0 DUP2 EQ PUSH2 0x35E5 JUMPI PUSH1 0x1 DUP2 EQ PUSH2 0x3601 JUMPI PUSH2 0x3431 JUMP JUMPDEST PUSH1 0xFF NOT DUP4 AND PUSH1 0x40 DUP8 ADD MSTORE PUSH1 0x40 DUP3 ISZERO ISZERO PUSH1 0x5 SHL DUP8 ADD ADD SWAP4 POP PUSH2 0x3431 JUMP JUMPDEST DUP7 PUSH0 MSTORE PUSH1 0x20 PUSH0 KECCAK256 PUSH0 JUMPDEST DUP4 DUP2 LT ISZERO PUSH2 0x3629 JUMPI DUP2 SLOAD DUP9 DUP3 ADD PUSH1 0x40 ADD MSTORE PUSH1 0x1 SWAP1 SWAP2 ADD SWAP1 PUSH1 0x20 ADD PUSH2 0x360A JUMP JUMPDEST DUP8 ADD PUSH1 0x40 ADD SWAP5 POP POP POP SWAP2 SWAP6 SWAP5 POP POP POP POP POP JUMP JUMPDEST PUSH0 DUP2 SLOAD DUP1 DUP5 MSTORE PUSH1 0x20 DUP5 ADD SWAP4 POP DUP3 PUSH0 MSTORE PUSH1 0x20 PUSH0 KECCAK256 PUSH0 JUMPDEST DUP3 DUP2 LT ISZERO PUSH2 0x3678 JUMPI DUP2 SLOAD PUSH1 0x1 PUSH1 0x1 PUSH1 0xA0 SHL SUB AND DUP7 MSTORE PUSH1 0x20 SWAP1 SWAP6 ADD SWAP5 PUSH1 0x1 SWAP2 DUP3 ADD SWAP2 ADD PUSH2 0x3651 JUMP JUMPDEST POP SWAP4 SWAP5 SWAP4 POP POP POP POP JUMP JUMPDEST PUSH1 0x40 DUP2 MSTORE PUSH0 PUSH2 0x3694 PUSH1 0x40 DUP4 ADD DUP6 PUSH2 0x363C JUMP JUMPDEST DUP3 DUP2 SUB PUSH1 0x20 DUP5 ADD MSTORE PUSH2 0x36A6 DUP2 DUP6 PUSH2 0x363C JUMP JUMPDEST SWAP6 SWAP5 POP POP POP POP POP JUMP JUMPDEST PUSH1 0x20 DUP2 ADD PUSH2 0xC19 DUP3 DUP5 PUSH2 0x2F85 JUMP JUMPDEST DUP1 DUP3 MUL DUP2 ISZERO DUP3 DUP3 DIV DUP5 EQ OR PUSH2 0xC19 JUMPI PUSH2 0xC19 PUSH2 0x339A JUMP JUMPDEST DUP2 DUP2 SUB DUP2 DUP2 GT ISZERO PUSH2 0xC19 JUMPI PUSH2 0xC19 PUSH2 0x339A JUMP INVALID PUSH17 0x8B4D521222BB27F0672D2839E6039075F6 0x25 LOG3 LT KECCAK256 SWAP1 JUMP SSTORE 0xAF 0xD9 0x28 0xFC SWAP10 0x23 BLOCKHASH LOG2 PUSH5 0x6970667358 0x22 SLT KECCAK256 0xDF PUSH5 0x8D7A39AF2A BYTE SWAP14 0xC9 RETURNCONTRACT 0xAA EXTDELEGATECALL 0xBD DUP4 DUP6 0xED MUL PUSH5 0x2B143CBACF 0x22 SELFBALANCE DUP6 EXP EXP DUP11 RJUMPI 0xFA64 PUSH20 0x6F6C634300081E00330000000000000000000000 "
		},
		"gasEstimates": {
			"creation": {
				"codeDepositCost": "2828200",
				"executionCost": "infinite",
				"totalCost": "infinite"
			},
			"external": {
				"AUTO_BATCH_MINT_INTERVAL()": "307",
				"BATCH_MINT_AMOUNT()": "262",
				"DISTRIBUTION_AMOUNT()": "326",
				"DISTRIBUTION_INTERVAL()": "285",
				"EXCHANGE_RATE()": "284",
				"MIN_VOTES_FOR_MINT()": "260",
				"MIN_VOTES_FOR_USER_ACTIONS()": "307",
				"TOTAL_SUPPLY()": "2428",
				"TOTAL_VOTES_REQUIRED()": "262",
				"allowance(address,address)": "infinite",
				"approve(address,uint256)": "24825",
				"autoBatchMintToWhitelist(address[])": "infinite",
				"balanceOf(address)": "2648",
				"balanceOfUser(address)": "2684",
				"cancelProposal(uint256)": "infinite",
				"compliance()": "267",
				"contractPaused()": "2410",
				"decimals()": "265",
				"distributeToWhitelist()": "infinite",
				"exchange(uint256,address)": "infinite",
				"executeProposal(uint256)": "infinite",
				"frozen(address)": "2617",
				"getActiveProposals()": "infinite",
				"getProposalCount()": "4603",
				"getWhitelistCheckEnabled()": "2413",
				"hasVoted(uint256,address)": "2737",
				"identityRegistry()": "268",
				"isFrozen(address)": "2635",
				"lastAutoBatchMintTimestamp()": "2405",
				"lastDistributionTimestamp()": "2428",
				"manualBatchMintToWhitelist(address[])": "infinite",
				"mintedAmount()": "2385",
				"name()": "infinite",
				"onchainID()": "300",
				"owner()": "2442",
				"pauseContract()": "29595",
				"pauseVoting()": "27386",
				"paused()": "2426",
				"proposals(uint256)": "infinite",
				"propose(uint8,address,uint256,string,address[],address[])": "infinite",
				"remainingSupply()": "4602",
				"renounceOwnership()": "infinite",
				"resumeContract()": "27430",
				"resumeVoting()": "27383",
				"symbol()": "infinite",
				"tokenName()": "infinite",
				"totalSupply()": "2403",
				"transfer(address,uint256)": "55700",
				"transferFrom(address,address,uint256)": "infinite",
				"transferOwnership(address)": "28466",
				"version()": "infinite",
				"vote(uint256)": "72184",
				"voters(address)": "2640",
				"votersList(uint256)": "4680",
				"votingPaused()": "2442",
				"whitelist(address)": "2618",
				"whitelistCheckEnabled()": "2420"
			},
			"internal": {
				"_batchMintToWhitelist(address[] memory,uint256)": "infinite",
				"_checkProposalVotes(struct CCKToken.Proposal storage pointer)": "infinite",
				"_setName(string memory)": "infinite",
				"resetVotes(uint256)": "infinite"
			}
		},
		"methodIdentifiers": {
			"AUTO_BATCH_MINT_INTERVAL()": "7c224d64",
			"BATCH_MINT_AMOUNT()": "b5fc35ce",
			"DISTRIBUTION_AMOUNT()": "ff8f164f",
			"DISTRIBUTION_INTERVAL()": "08b26b75",
			"EXCHANGE_RATE()": "14a8bd0d",
			"MIN_VOTES_FOR_MINT()": "f36e32cc",
			"MIN_VOTES_FOR_USER_ACTIONS()": "2de56555",
			"TOTAL_SUPPLY()": "902d55a5",
			"TOTAL_VOTES_REQUIRED()": "302c464a",
			"allowance(address,address)": "dd62ed3e",
			"approve(address,uint256)": "095ea7b3",
			"autoBatchMintToWhitelist(address[])": "cb7a11c2",
			"balanceOf(address)": "70a08231",
			"balanceOfUser(address)": "12cae7af",
			"cancelProposal(uint256)": "e0a8f6f5",
			"compliance()": "6290865d",
			"contractPaused()": "8a67456a",
			"decimals()": "313ce567",
			"distributeToWhitelist()": "80e79a36",
			"exchange(uint256,address)": "0fe2abcf",
			"executeProposal(uint256)": "0d61b519",
			"frozen(address)": "d0516650",
			"getActiveProposals()": "5584c4f9",
			"getProposalCount()": "c08cc02d",
			"getWhitelistCheckEnabled()": "fca63efd",
			"hasVoted(uint256,address)": "43859632",
			"identityRegistry()": "134e18f4",
			"isFrozen(address)": "e5839836",
			"lastAutoBatchMintTimestamp()": "aca9f472",
			"lastDistributionTimestamp()": "20950933",
			"manualBatchMintToWhitelist(address[])": "051069e3",
			"mintedAmount()": "2d380242",
			"name()": "06fdde03",
			"onchainID()": "aba63705",
			"owner()": "8da5cb5b",
			"pauseContract()": "439766ce",
			"pauseVoting()": "f3cdcd1e",
			"paused()": "5c975abb",
			"proposals(uint256)": "013cf08b",
			"propose(uint8,address,uint256,string,address[],address[])": "0d4efa4f",
			"remainingSupply()": "da0239a6",
			"renounceOwnership()": "715018a6",
			"resumeContract()": "c4bc5da5",
			"resumeVoting()": "7afdf93e",
			"symbol()": "95d89b41",
			"tokenName()": "6c02a931",
			"totalSupply()": "18160ddd",
			"transfer(address,uint256)": "a9059cbb",
			"transferFrom(address,address,uint256)": "23b872dd",
			"transferOwnership(address)": "f2fde38b",
			"version()": "54fd4d50",
			"vote(uint256)": "0121b93f",
			"voters(address)": "a3ec138d",
			"votersList(uint256)": "72ce73ab",
			"votingPaused()": "ae66c9ea",
			"whitelist(address)": "9b19251a",
			"whitelistCheckEnabled()": "ef1300c0"
		}
	},
	"abi": [
		{
			"inputs": [
				{
					"internalType": "string",
					"name": "initialName",
					"type": "string"
				},
				{
					"internalType": "address[]",
					"name": "_whitelist",
					"type": "address[]"
				},
				{
					"internalType": "address[]",
					"name": "_voters",
					"type": "address[]"
				}
			],
			"stateMutability": "nonpayable",
			"type": "constructor"
		},
		{
			"inputs": [
				{
					"internalType": "address",
					"name": "spender",
					"type": "address"
				},
				{
					"internalType": "uint256",
					"name": "allowance",
					"type": "uint256"
				},
				{
					"internalType": "uint256",
					"name": "needed",
					"type": "uint256"
				}
			],
			"name": "ERC20InsufficientAllowance",
			"type": "error"
		},
		{
			"inputs": [
				{
					"internalType": "address",
					"name": "sender",
					"type": "address"
				},
				{
					"internalType": "uint256",
					"name": "balance",
					"type": "uint256"
				},
				{
					"internalType": "uint256",
					"name": "needed",
					"type": "uint256"
				}
			],
			"name": "ERC20InsufficientBalance",
			"type": "error"
		},
		{
			"inputs": [
				{
					"internalType": "address",
					"name": "approver",
					"type": "address"
				}
			],
			"name": "ERC20InvalidApprover",
			"type": "error"
		},
		{
			"inputs": [
				{
					"internalType": "address",
					"name": "receiver",
					"type": "address"
				}
			],
			"name": "ERC20InvalidReceiver",
			"type": "error"
		},
		{
			"inputs": [
				{
					"internalType": "address",
					"name": "sender",
					"type": "address"
				}
			],
			"name": "ERC20InvalidSender",
			"type": "error"
		},
		{
			"inputs": [
				{
					"internalType": "address",
					"name": "spender",
					"type": "address"
				}
			],
			"name": "ERC20InvalidSpender",
			"type": "error"
		},
		{
			"inputs": [
				{
					"internalType": "address",
					"name": "owner",
					"type": "address"
				}
			],
			"name": "OwnableInvalidOwner",
			"type": "error"
		},
		{
			"inputs": [
				{
					"internalType": "address",
					"name": "account",
					"type": "address"
				}
			],
			"name": "OwnableUnauthorizedAccount",
			"type": "error"
		},
		{
			"anonymous": false,
			"inputs": [
				{
					"indexed": true,
					"internalType": "address",
					"name": "owner",
					"type": "address"
				},
				{
					"indexed": true,
					"internalType": "address",
					"name": "spender",
					"type": "address"
				},
				{
					"indexed": false,
					"internalType": "uint256",
					"name": "value",
					"type": "uint256"
				}
			],
			"name": "Approval",
			"type": "event"
		},
		{
			"anonymous": false,
			"inputs": [
				{
					"indexed": true,
					"internalType": "address[]",
					"name": "recipients",
					"type": "address[]"
				},
				{
					"indexed": false,
					"internalType": "uint256",
					"name": "amountPerAddress",
					"type": "uint256"
				},
				{
					"indexed": false,
					"internalType": "bool",
					"name": "isAuto",
					"type": "bool"
				}
			],
			"name": "BatchMint",
			"type": "event"
		},
		{
			"anonymous": false,
			"inputs": [],
			"name": "ContractPaused",
			"type": "event"
		},
		{
			"anonymous": false,
			"inputs": [],
			"name": "ContractResumed",
			"type": "event"
		},
		{
			"anonymous": false,
			"inputs": [
				{
					"indexed": true,
					"internalType": "address",
					"name": "user",
					"type": "address"
				},
				{
					"indexed": false,
					"internalType": "uint256",
					"name": "inputAmount",
					"type": "uint256"
				},
				{
					"indexed": false,
					"internalType": "uint256",
					"name": "cckAmount",
					"type": "uint256"
				},
				{
					"indexed": true,
					"internalType": "address",
					"name": "targetAddress",
					"type": "address"
				}
			],
			"name": "Exchange",
			"type": "event"
		},
		{
			"anonymous": false,
			"inputs": [
				{
					"indexed": false,
					"internalType": "address",
					"name": "to",
					"type": "address"
				},
				{
					"indexed": false,
					"internalType": "uint256",
					"name": "amount",
					"type": "uint256"
				}
			],
			"name": "MintExecuted",
			"type": "event"
		},
		{
			"anonymous": false,
			"inputs": [
				{
					"indexed": false,
					"internalType": "string",
					"name": "newName",
					"type": "string"
				}
			],
			"name": "NameChanged",
			"type": "event"
		},
		{
			"anonymous": false,
			"inputs": [
				{
					"indexed": true,
					"internalType": "address",
					"name": "previousOwner",
					"type": "address"
				},
				{
					"indexed": true,
					"internalType": "address",
					"name": "newOwner",
					"type": "address"
				}
			],
			"name": "OwnershipTransferred",
			"type": "event"
		},
		{
			"anonymous": false,
			"inputs": [
				{
					"indexed": true,
					"internalType": "uint256",
					"name": "proposalId",
					"type": "uint256"
				},
				{
					"indexed": false,
					"internalType": "enum CCKToken.ProposalType",
					"name": "proposalType",
					"type": "uint8"
				}
			],
			"name": "ProposalCancelled",
			"type": "event"
		},
		{
			"anonymous": false,
			"inputs": [
				{
					"indexed": true,
					"internalType": "uint256",
					"name": "proposalId",
					"type": "uint256"
				},
				{
					"indexed": false,
					"internalType": "enum CCKToken.ProposalType",
					"name": "proposalType",
					"type": "uint8"
				},
				{
					"indexed": false,
					"internalType": "address",
					"name": "initiator",
					"type": "address"
				}
			],
			"name": "ProposalCreated",
			"type": "event"
		},
		{
			"anonymous": false,
			"inputs": [
				{
					"indexed": true,
					"internalType": "uint256",
					"name": "proposalId",
					"type": "uint256"
				},
				{
					"indexed": false,
					"internalType": "enum CCKToken.ProposalType",
					"name": "proposalType",
					"type": "uint8"
				}
			],
			"name": "ProposalExecuted",
			"type": "event"
		},
		{
			"anonymous": false,
			"inputs": [
				{
					"indexed": true,
					"internalType": "address",
					"name": "target",
					"type": "address"
				},
				{
					"indexed": false,
					"internalType": "string",
					"name": "statusType",
					"type": "string"
				},
				{
					"indexed": false,
					"internalType": "bool",
					"name": "status",
					"type": "bool"
				}
			],
			"name": "StatusChanged",
			"type": "event"
		},
		{
			"anonymous": false,
			"inputs": [
				{
					"indexed": false,
					"internalType": "uint256",
					"name": "newTotalSupply",
					"type": "uint256"
				}
			],
			"name": "TotalSupplyAdjusted",
			"type": "event"
		},
		{
			"anonymous": false,
			"inputs": [
				{
					"indexed": true,
					"internalType": "address",
					"name": "from",
					"type": "address"
				},
				{
					"indexed": true,
					"internalType": "address",
					"name": "to",
					"type": "address"
				},
				{
					"indexed": false,
					"internalType": "uint256",
					"name": "value",
					"type": "uint256"
				}
			],
			"name": "Transfer",
			"type": "event"
		},
		{
			"anonymous": false,
			"inputs": [
				{
					"indexed": true,
					"internalType": "uint256",
					"name": "proposalId",
					"type": "uint256"
				},
				{
					"indexed": true,
					"internalType": "address",
					"name": "voter",
					"type": "address"
				}
			],
			"name": "VoteCast",
			"type": "event"
		},
		{
			"anonymous": false,
			"inputs": [
				{
					"indexed": false,
					"internalType": "address[]",
					"name": "oldVoters",
					"type": "address[]"
				},
				{
					"indexed": false,
					"internalType": "address[]",
					"name": "newVoters",
					"type": "address[]"
				}
			],
			"name": "VotersChanged",
			"type": "event"
		},
		{
			"anonymous": false,
			"inputs": [],
			"name": "VotingPaused",
			"type": "event"
		},
		{
			"anonymous": false,
			"inputs": [],
			"name": "VotingResumed",
			"type": "event"
		},
		{
			"anonymous": false,
			"inputs": [
				{
					"indexed": false,
					"internalType": "bool",
					"name": "enabled",
					"type": "bool"
				}
			],
			"name": "WhitelistCheckToggled",
			"type": "event"
		},
		{
			"anonymous": false,
			"inputs": [
				{
					"indexed": false,
					"internalType": "uint256",
					"name": "amount",
					"type": "uint256"
				}
			],
			"name": "WhitelistDistribution",
			"type": "event"
		},
		{
			"inputs": [],
			"name": "AUTO_BATCH_MINT_INTERVAL",
			"outputs": [
				{
					"internalType": "uint256",
					"name": "",
					"type": "uint256"
				}
			],
			"stateMutability": "view",
			"type": "function"
		},
		{
			"inputs": [],
			"name": "BATCH_MINT_AMOUNT",
			"outputs": [
				{
					"internalType": "uint256",
					"name": "",
					"type": "uint256"
				}
			],
			"stateMutability": "view",
			"type": "function"
		},
		{
			"inputs": [],
			"name": "DISTRIBUTION_AMOUNT",
			"outputs": [
				{
					"internalType": "uint256",
					"name": "",
					"type": "uint256"
				}
			],
			"stateMutability": "view",
			"type": "function"
		},
		{
			"inputs": [],
			"name": "DISTRIBUTION_INTERVAL",
			"outputs": [
				{
					"internalType": "uint256",
					"name": "",
					"type": "uint256"
				}
			],
			"stateMutability": "view",
			"type": "function"
		},
		{
			"inputs": [],
			"name": "EXCHANGE_RATE",
			"outputs": [
				{
					"internalType": "uint256",
					"name": "",
					"type": "uint256"
				}
			],
			"stateMutability": "view",
			"type": "function"
		},
		{
			"inputs": [],
			"name": "MIN_VOTES_FOR_MINT",
			"outputs": [
				{
					"internalType": "uint256",
					"name": "",
					"type": "uint256"
				}
			],
			"stateMutability": "view",
			"type": "function"
		},
		{
			"inputs": [],
			"name": "MIN_VOTES_FOR_USER_ACTIONS",
			"outputs": [
				{
					"internalType": "uint256",
					"name": "",
					"type": "uint256"
				}
			],
			"stateMutability": "view",
			"type": "function"
		},
		{
			"inputs": [],
			"name": "TOTAL_SUPPLY",
			"outputs": [
				{
					"internalType": "uint256",
					"name": "",
					"type": "uint256"
				}
			],
			"stateMutability": "view",
			"type": "function"
		},
		{
			"inputs": [],
			"name": "TOTAL_VOTES_REQUIRED",
			"outputs": [
				{
					"internalType": "uint256",
					"name": "",
					"type": "uint256"
				}
			],
			"stateMutability": "view",
			"type": "function"
		},
		{
			"inputs": [
				{
					"internalType": "address",
					"name": "owner",
					"type": "address"
				},
				{
					"internalType": "address",
					"name": "spender",
					"type": "address"
				}
			],
			"name": "allowance",
			"outputs": [
				{
					"internalType": "uint256",
					"name": "",
					"type": "uint256"
				}
			],
			"stateMutability": "view",
			"type": "function"
		},
		{
			"inputs": [
				{
					"internalType": "address",
					"name": "spender",
					"type": "address"
				},
				{
					"internalType": "uint256",
					"name": "value",
					"type": "uint256"
				}
			],
			"name": "approve",
			"outputs": [
				{
					"internalType": "bool",
					"name": "",
					"type": "bool"
				}
			],
			"stateMutability": "nonpayable",
			"type": "function"
		},
		{
			"inputs": [
				{
					"internalType": "address[]",
					"name": "whitelistAddresses",
					"type": "address[]"
				}
			],
			"name": "autoBatchMintToWhitelist",
			"outputs": [],
			"stateMutability": "nonpayable",
			"type": "function"
		},
		{
			"inputs": [
				{
					"internalType": "address",
					"name": "account",
					"type": "address"
				}
			],
			"name": "balanceOf",
			"outputs": [
				{
					"internalType": "uint256",
					"name": "",
					"type": "uint256"
				}
			],
			"stateMutability": "view",
			"type": "function"
		},
		{
			"inputs": [
				{
					"internalType": "address",
					"name": "user",
					"type": "address"
				}
			],
			"name": "balanceOfUser",
			"outputs": [
				{
					"internalType": "uint256",
					"name": "",
					"type": "uint256"
				}
			],
			"stateMutability": "view",
			"type": "function"
		},
		{
			"inputs": [
				{
					"internalType": "uint256",
					"name": "proposalId",
					"type": "uint256"
				}
			],
			"name": "cancelProposal",
			"outputs": [],
			"stateMutability": "nonpayable",
			"type": "function"
		},
		{
			"inputs": [],
			"name": "compliance",
			"outputs": [
				{
					"internalType": "address",
					"name": "",
					"type": "address"
				}
			],
			"stateMutability": "pure",
			"type": "function"
		},
		{
			"inputs": [],
			"name": "contractPaused",
			"outputs": [
				{
					"internalType": "bool",
					"name": "",
					"type": "bool"
				}
			],
			"stateMutability": "view",
			"type": "function"
		},
		{
			"inputs": [],
			"name": "decimals",
			"outputs": [
				{
					"internalType": "uint8",
					"name": "",
					"type": "uint8"
				}
			],
			"stateMutability": "view",
			"type": "function"
		},
		{
			"inputs": [],
			"name": "distributeToWhitelist",
			"outputs": [],
			"stateMutability": "nonpayable",
			"type": "function"
		},
		{
			"inputs": [
				{
					"internalType": "uint256",
					"name": "inputAmount",
					"type": "uint256"
				},
				{
					"internalType": "address",
					"name": "targetAddress",
					"type": "address"
				}
			],
			"name": "exchange",
			"outputs": [],
			"stateMutability": "nonpayable",
			"type": "function"
		},
		{
			"inputs": [
				{
					"internalType": "uint256",
					"name": "proposalId",
					"type": "uint256"
				}
			],
			"name": "executeProposal",
			"outputs": [],
			"stateMutability": "nonpayable",
			"type": "function"
		},
		{
			"inputs": [
				{
					"internalType": "address",
					"name": "",
					"type": "address"
				}
			],
			"name": "frozen",
			"outputs": [
				{
					"internalType": "bool",
					"name": "",
					"type": "bool"
				}
			],
			"stateMutability": "view",
			"type": "function"
		},
		{
			"inputs": [],
			"name": "getActiveProposals",
			"outputs": [
				{
					"internalType": "uint256[]",
					"name": "ids",
					"type": "uint256[]"
				}
			],
			"stateMutability": "view",
			"type": "function"
		},
		{
			"inputs": [],
			"name": "getProposalCount",
			"outputs": [
				{
					"internalType": "uint256",
					"name": "",
					"type": "uint256"
				}
			],
			"stateMutability": "view",
			"type": "function"
		},
		{
			"inputs": [],
			"name": "getWhitelistCheckEnabled",
			"outputs": [
				{
					"internalType": "bool",
					"name": "",
					"type": "bool"
				}
			],
			"stateMutability": "view",
			"type": "function"
		},
		{
			"inputs": [
				{
					"internalType": "uint256",
					"name": "",
					"type": "uint256"
				},
				{
					"internalType": "address",
					"name": "",
					"type": "address"
				}
			],
			"name": "hasVoted",
			"outputs": [
				{
					"internalType": "bool",
					"name": "",
					"type": "bool"
				}
			],
			"stateMutability": "view",
			"type": "function"
		},
		{
			"inputs": [],
			"name": "identityRegistry",
			"outputs": [
				{
					"internalType": "address",
					"name": "",
					"type": "address"
				}
			],
			"stateMutability": "pure",
			"type": "function"
		},
		{
			"inputs": [
				{
					"internalType": "address",
					"name": "userAddress",
					"type": "address"
				}
			],
			"name": "isFrozen",
			"outputs": [
				{
					"internalType": "bool",
					"name": "",
					"type": "bool"
				}
			],
			"stateMutability": "view",
			"type": "function"
		},
		{
			"inputs": [],
			"name": "lastAutoBatchMintTimestamp",
			"outputs": [
				{
					"internalType": "uint256",
					"name": "",
					"type": "uint256"
				}
			],
			"stateMutability": "view",
			"type": "function"
		},
		{
			"inputs": [],
			"name": "lastDistributionTimestamp",
			"outputs": [
				{
					"internalType": "uint256",
					"name": "",
					"type": "uint256"
				}
			],
			"stateMutability": "view",
			"type": "function"
		},
		{
			"inputs": [
				{
					"internalType": "address[]",
					"name": "whitelistAddresses",
					"type": "address[]"
				}
			],
			"name": "manualBatchMintToWhitelist",
			"outputs": [],
			"stateMutability": "nonpayable",
			"type": "function"
		},
		{
			"inputs": [],
			"name": "mintedAmount",
			"outputs": [
				{
					"internalType": "uint256",
					"name": "",
					"type": "uint256"
				}
			],
			"stateMutability": "view",
			"type": "function"
		},
		{
			"inputs": [],
			"name": "name",
			"outputs": [
				{
					"internalType": "string",
					"name": "",
					"type": "string"
				}
			],
			"stateMutability": "view",
			"type": "function"
		},
		{
			"inputs": [],
			"name": "onchainID",
			"outputs": [
				{
					"internalType": "address",
					"name": "",
					"type": "address"
				}
			],
			"stateMutability": "view",
			"type": "function"
		},
		{
			"inputs": [],
			"name": "owner",
			"outputs": [
				{
					"internalType": "address",
					"name": "",
					"type": "address"
				}
			],
			"stateMutability": "view",
			"type": "function"
		},
		{
			"inputs": [],
			"name": "pauseContract",
			"outputs": [],
			"stateMutability": "nonpayable",
			"type": "function"
		},
		{
			"inputs": [],
			"name": "pauseVoting",
			"outputs": [],
			"stateMutability": "nonpayable",
			"type": "function"
		},
		{
			"inputs": [],
			"name": "paused",
			"outputs": [
				{
					"internalType": "bool",
					"name": "",
					"type": "bool"
				}
			],
			"stateMutability": "view",
			"type": "function"
		},
		{
			"inputs": [
				{
					"internalType": "uint256",
					"name": "",
					"type": "uint256"
				}
			],
			"name": "proposals",
			"outputs": [
				{
					"internalType": "enum CCKToken.ProposalType",
					"name": "proposalType",
					"type": "uint8"
				},
				{
					"internalType": "address",
					"name": "initiator",
					"type": "address"
				},
				{
					"internalType": "uint256",
					"name": "voteCount",
					"type": "uint256"
				},
				{
					"internalType": "uint256",
					"name": "timestamp",
					"type": "uint256"
				},
				{
					"internalType": "address",
					"name": "target",
					"type": "address"
				},
				{
					"internalType": "uint256",
					"name": "value",
					"type": "uint256"
				},
				{
					"internalType": "string",
					"name": "name",
					"type": "string"
				},
				{
					"internalType": "bool",
					"name": "active",
					"type": "bool"
				}
			],
			"stateMutability": "view",
			"type": "function"
		},
		{
			"inputs": [
				{
					"internalType": "enum CCKToken.ProposalType",
					"name": "proposalType",
					"type": "uint8"
				},
				{
					"internalType": "address",
					"name": "target",
					"type": "address"
				},
				{
					"internalType": "uint256",
					"name": "value",
					"type": "uint256"
				},
				{
					"internalType": "string",
					"name": "name",
					"type": "string"
				},
				{
					"internalType": "address[]",
					"name": "oldVoters",
					"type": "address[]"
				},
				{
					"internalType": "address[]",
					"name": "newVoters",
					"type": "address[]"
				}
			],
			"name": "propose",
			"outputs": [],
			"stateMutability": "nonpayable",
			"type": "function"
		},
		{
			"inputs": [],
			"name": "remainingSupply",
			"outputs": [
				{
					"internalType": "uint256",
					"name": "",
					"type": "uint256"
				}
			],
			"stateMutability": "view",
			"type": "function"
		},
		{
			"inputs": [],
			"name": "renounceOwnership",
			"outputs": [],
			"stateMutability": "nonpayable",
			"type": "function"
		},
		{
			"inputs": [],
			"name": "resumeContract",
			"outputs": [],
			"stateMutability": "nonpayable",
			"type": "function"
		},
		{
			"inputs": [],
			"name": "resumeVoting",
			"outputs": [],
			"stateMutability": "nonpayable",
			"type": "function"
		},
		{
			"inputs": [],
			"name": "symbol",
			"outputs": [
				{
					"internalType": "string",
					"name": "",
					"type": "string"
				}
			],
			"stateMutability": "view",
			"type": "function"
		},
		{
			"inputs": [],
			"name": "tokenName",
			"outputs": [
				{
					"internalType": "string",
					"name": "",
					"type": "string"
				}
			],
			"stateMutability": "view",
			"type": "function"
		},
		{
			"inputs": [],
			"name": "totalSupply",
			"outputs": [
				{
					"internalType": "uint256",
					"name": "",
					"type": "uint256"
				}
			],
			"stateMutability": "view",
			"type": "function"
		},
		{
			"inputs": [
				{
					"internalType": "address",
					"name": "to",
					"type": "address"
				},
				{
					"internalType": "uint256",
					"name": "amount",
					"type": "uint256"
				}
			],
			"name": "transfer",
			"outputs": [
				{
					"internalType": "bool",
					"name": "",
					"type": "bool"
				}
			],
			"stateMutability": "nonpayable",
			"type": "function"
		},
		{
			"inputs": [
				{
					"internalType": "address",
					"name": "sender",
					"type": "address"
				},
				{
					"internalType": "address",
					"name": "recipient",
					"type": "address"
				},
				{
					"internalType": "uint256",
					"name": "amount",
					"type": "uint256"
				}
			],
			"name": "transferFrom",
			"outputs": [
				{
					"internalType": "bool",
					"name": "",
					"type": "bool"
				}
			],
			"stateMutability": "nonpayable",
			"type": "function"
		},
		{
			"inputs": [
				{
					"internalType": "address",
					"name": "newOwner",
					"type": "address"
				}
			],
			"name": "transferOwnership",
			"outputs": [],
			"stateMutability": "nonpayable",
			"type": "function"
		},
		{
			"inputs": [],
			"name": "version",
			"outputs": [
				{
					"internalType": "string",
					"name": "",
					"type": "string"
				}
			],
			"stateMutability": "pure",
			"type": "function"
		},
		{
			"inputs": [
				{
					"internalType": "uint256",
					"name": "proposalId",
					"type": "uint256"
				}
			],
			"name": "vote",
			"outputs": [],
			"stateMutability": "nonpayable",
			"type": "function"
		},
		{
			"inputs": [
				{
					"internalType": "address",
					"name": "",
					"type": "address"
				}
			],
			"name": "voters",
			"outputs": [
				{
					"internalType": "bool",
					"name": "",
					"type": "bool"
				}
			],
			"stateMutability": "view",
			"type": "function"
		},
		{
			"inputs": [
				{
					"internalType": "uint256",
					"name": "",
					"type": "uint256"
				}
			],
			"name": "votersList",
			"outputs": [
				{
					"internalType": "address",
					"name": "",
					"type": "address"
				}
			],
			"stateMutability": "view",
			"type": "function"
		},
		{
			"inputs": [],
			"name": "votingPaused",
			"outputs": [
				{
					"internalType": "bool",
					"name": "",
					"type": "bool"
				}
			],
			"stateMutability": "view",
			"type": "function"
		},
		{
			"inputs": [
				{
					"internalType": "address",
					"name": "",
					"type": "address"
				}
			],
			"name": "whitelist",
			"outputs": [
				{
					"internalType": "bool",
					"name": "",
					"type": "bool"
				}
			],
			"stateMutability": "view",
			"type": "function"
		},
		{
			"inputs": [],
			"name": "whitelistCheckEnabled",
			"outputs": [
				{
					"internalType": "bool",
					"name": "",
					"type": "bool"
				}
			],
			"stateMutability": "view",
			"type": "function"
		}
	]
}