{
	"data": {
		"bytecode": {
			"linkReferences": {},
			"object": "60806040526af8277896582678ac0000006007556014805460ff19169055348015610028575f5ffd5b5060405161483e38038061483e833981016040819052610047916104aa565b604080518082019091526002815261434360f01b60208201523390849060036100708382610613565b50600461007d8282610613565b5050506001600160a01b0381166100ae57604051631e4fbdf760e01b81525f60048201526024015b60405180910390fd5b6100b781610382565b506001600655815161010b5760405162461bcd60e51b815260206004820152601960248201527f57686974656c6973742063616e6e6f7420626520656d7074790000000000000060448201526064016100a5565b5f81511161015b5760405162461bcd60e51b815260206004820152601b60248201527f566f74657273206c6973742063616e6e6f7420626520656d707479000000000060448201526064016100a5565b5f5b8251811015610230575f6001600160a01b0316838281518110610182576101826106cd565b60200260200101516001600160a01b0316036101e05760405162461bcd60e51b815260206004820152601960248201527f496e76616c69642077686974656c69737420616464726573730000000000000060448201526064016100a5565b600160085f8584815181106101f7576101f76106cd565b6020908102919091018101516001600160a01b031682528101919091526040015f20805460ff191691151591909117905560010161015d565b505f5b8151811015610362575f6001600160a01b0316828281518110610258576102586106cd565b60200260200101516001600160a01b0316036102b65760405162461bcd60e51b815260206004820152601560248201527f496e76616c696420766f7465722061646472657373000000000000000000000060448201526064016100a5565b6001600c5f8484815181106102cd576102cd6106cd565b60200260200101516001600160a01b03166001600160a01b031681526020019081526020015f205f6101000a81548160ff021916908315150217905550600e82828151811061031e5761031e6106cd565b6020908102919091018101518254600180820185555f9485529290932090920180546001600160a01b0319166001600160a01b039093169290921790915501610233565b50600b61036f8482610613565b5050426012819055601355506106e19050565b600580546001600160a01b038381166001600160a01b0319831681179093556040519116919082907f8be0079c531659141344cd1fd0a4f28419497f9722a3daafe3b4186f6b6457e0905f90a35050565b634e487b7160e01b5f52604160045260245ffd5b604051601f8201601f191681016001600160401b038111828210171561040f5761040f6103d3565b604052919050565b5f82601f830112610426575f5ffd5b81516001600160401b0381111561043f5761043f6103d3565b8060051b61044f602082016103e7565b9182526020818501810192908101908684111561046a575f5ffd5b6020860192505b838310156104a05782516001600160a01b038116811461048f575f5ffd5b825260209283019290910190610471565b9695505050505050565b5f5f5f606084860312156104bc575f5ffd5b83516001600160401b038111156104d1575f5ffd5b8401601f810186136104e1575f5ffd5b80516001600160401b038111156104fa576104fa6103d3565b61050d601f8201601f19166020016103e7565b818152876020838501011115610521575f5ffd5b8160208401602083015e5f60208383010152809550505050602084015160018060401b03811115610550575f5ffd5b61055c86828701610417565b604086015190935090506001600160401b03811115610579575f5ffd5b61058586828701610417565b9150509250925092565b600181811c908216806105a357607f821691505b6020821081036105c157634e487b7160e01b5f52602260045260245ffd5b50919050565b601f82111561060e57805f5260205f20601f840160051c810160208510156105ec5750805b601f840160051c820191505b8181101561060b575f81556001016105f8565b50505b505050565b81516001600160401b0381111561062c5761062c6103d3565b6106408161063a845461058f565b846105c7565b6020601f821160018114610672575f831561065b5750848201515b5f19600385901b1c1916600184901b17845561060b565b5f84815260208120601f198516915b828110156106a15787850151825560209485019460019092019101610681565b50848210156106be57868401515f19600387901b60f8161c191681555b50505050600190811b01905550565b634e487b7160e01b5f52603260045260245ffd5b614150806106ee5f395ff3fe608060405234801561000f575f5ffd5b506004361061037d575f3560e01c80637afdf93e116101d4578063c08cc02d11610109578063e56281e8116100a9578063f36e32cc11610079578063f36e32cc14610765578063f3cdcd1e1461076d578063fca63efd14610775578063ff8f164f14610780575f5ffd5b8063e56281e814610707578063e58398361461071a578063ef1300c014610745578063f2fde38b14610752575f5ffd5b8063d0516650116100e4578063d051665014610692578063da0239a6146106b4578063dd62ed3e146106bc578063e0a8f6f5146106f4575f5ffd5b8063c08cc02d1461066f578063c4bc5da514610677578063cb7a11c21461067f575f5ffd5b80639b19251a11610174578063aba637051161014f578063aba637051461064b578063aca9f47214610651578063ae66c9ea1461065a578063b5fc35ce14610667575f5ffd5b80639b19251a146105f4578063a3ec138d14610616578063a9059cbb14610638575f5ffd5b80638a67456a116101af5780638a67456a146105c05780638da5cb5b146105d2578063902d55a5146105e357806395d89b41146105ec575f5ffd5b80637afdf93e146105a75780637c224d64146105af57806380e79a36146105b8575f5ffd5b806323b872dd116102b557806354fd4d50116102555780636c02a931116102255780636c02a9311461055c57806370a0823114610564578063715018a61461058c57806372ce73ab14610594575f5ffd5b806354fd4d50146105165780635584c4f9146105375780635c975abb1461054c5780636290865d14610474575f5ffd5b8063302c464a11610290578063302c464a146104cb578063313ce567146104d357806343859632146104e1578063439766ce1461050e575f5ffd5b806323b872dd146104a75780632d380242146104ba5780632de56555146104c3575f5ffd5b80630d61b51911610320578063134e18f4116102fb578063134e18f41461047457806314a8bd0d1461048e57806318160ddd14610496578063209509331461049e575f5ffd5b80630d61b5191461043b5780630fe2abcf1461044e57806312cae7af14610461575f5ffd5b806306fdde031161035b57806306fdde03146103d957806308b26b75146103ee578063095ea7b3146104055780630d4efa4f14610428575f5ffd5b80630121b93f14610381578063013cf08b14610396578063051069e3146103c6575b5f5ffd5b61039461038f366004613705565b610788565b005b6103a96103a4366004613705565b6109f5565b6040516103bd98979695949392919061377e565b60405180910390f35b6103946103d43660046138ca565b610acd565b6103e1610b92565b6040516103bd91906138fc565b6103f761012c81565b6040519081526020016103bd565b61041861041336600461390e565b610c22565b60405190151581526020016103bd565b6103946104363660046139a2565b610c3b565b610394610449366004613705565b611628565b61039461045c366004613a5e565b611e16565b6103f761046f366004613a88565b611fdd565b5f5b6040516001600160a01b0390911681526020016103bd565b6103f7601481565b6002546103f7565b6103f760125481565b6104186104b5366004613aa1565b611ffa565b6103f7600a5481565b6103f7600381565b6103f7600581565b6040515f81526020016103bd565b6104186104ef366004613a5e565b600d60209081525f928352604080842090915290825290205460ff1681565b610394612101565b6040805180820190915260058152640312e302e360dc1b60208201526103e1565b61053f6121c0565b6040516103bd9190613adb565b601154610100900460ff16610418565b6103e16122a4565b6103f7610572366004613a88565b6001600160a01b03165f9081526020819052604090205490565b610394612330565b6104766105a2366004613705565b612343565b61039461236b565b6103f761038481565b6103946123a7565b60115461041890610100900460ff1681565b6005546001600160a01b0316610476565b6103f760075481565b6103e16124c6565b610418610602366004613a88565b60086020525f908152604090205460ff1681565b610418610624366004613a88565b600c6020525f908152604090205460ff1681565b61041861064636600461390e565b6124d5565b30610476565b6103f760135481565b6011546104189060ff1681565b6103f7606481565b6103f76125d1565b6103946125f4565b61039461068d3660046138ca565b612657565b6104186106a0366004613a88565b60096020525f908152604090205460ff1681565b6103f761273a565b6103f76106ca366004613b1d565b6001600160a01b039182165f90815260016020908152604080832093909416825291909152205490565b610394610702366004613705565b61274b565b610418610715366004613b45565b612969565b610418610728366004613a88565b6001600160a01b03165f9081526009602052604090205460ff1690565b6014546104189060ff1681565b610394610760366004613a88565b612da6565b6103f7600281565b610394612de0565b60145460ff16610418565b6103f7600181565b601154610100900460ff16156107b95760405162461bcd60e51b81526004016107b090613b9d565b60405180910390fd5b335f908152600c602052604090205460ff166107e75760405162461bcd60e51b81526004016107b090613bc6565b5f818152600f60205260409020600881015460ff166108185760405162461bcd60e51b81526004016107b090613beb565b5f828152600d6020908152604080832033845290915290205460ff16156108715760405162461bcd60e51b815260206004820152600d60248201526c105b1c9958591e481d9bdd1959609a1b60448201526064016107b0565b60115460ff16156108b45760405162461bcd60e51b815260206004820152600d60248201526c159bdd1a5b99c81c185d5cd959609a1b60448201526064016107b0565b5f828152600d602090815260408083203384529091528120805460ff1916600190811790915582018054916108e883613c2c565b909155505f90506007825460ff1660088111156109075761090761371c565b148061092857506008825460ff1660088111156109265761092661371c565b145b61097a576003825460ff1660088111156109445761094461371c565b1015801561096857506006825460ff1660088111156109655761096561371c565b11155b61097357600561097d565b600361097d565b60025b905080826001015411156109c45760405162461bcd60e51b815260206004820152600e60248201526d546f6f206d616e7920766f74657360901b60448201526064016107b0565b604051339084907ff1003b73c437642c0460aee9cd9628b0b8c447b66e6c7c905531b9c644214a11905f90a3505050565b600f6020525f908152604090208054600182015460028301546003840154600485015460058601805460ff8716976101009097046001600160a01b03908116979416939190610a4390613c44565b80601f0160208091040260200160405190810160405280929190818152602001828054610a6f90613c44565b8015610aba5780601f10610a9157610100808354040283529160200191610aba565b820191905f5260205f20905b815481529060010190602001808311610a9d57829003601f168201915b5050506008909301549192505060ff1688565b610ad5612e1f565b601154610100900460ff1615610afd5760405162461bcd60e51b81526004016107b090613b9d565b335f908152600c602052604090205460ff16610b2b5760405162461bcd60e51b81526004016107b090613bc6565b610b36816064612e78565b80604051610b449190613c7c565b60408051918290038220606483525f6020840152917fc2aead9cf0ee95e5f48d316db6adcf05801aec50b3029bf8afcd0c2faf73b12d91015b60405180910390a2610b8f6001600655565b50565b606060038054610ba190613c44565b80601f0160208091040260200160405190810160405280929190818152602001828054610bcd90613c44565b8015610c185780601f10610bef57610100808354040283529160200191610c18565b820191905f5260205f20905b815481529060010190602001808311610bfb57829003601f168201915b5050505050905090565b5f33610c2f818585613032565b60019150505b92915050565b601154610100900460ff1615610c635760405162461bcd60e51b81526004016107b090613b9d565b335f908152600c602052604090205460ff16610c915760405162461bcd60e51b81526004016107b090613bc6565b5f866008811115610ca457610ca461371c565b03610cf5575f835111610cf05760405162461bcd60e51b81526020600482015260146024820152734e616d652063616e6e6f7420626520656d70747960601b60448201526064016107b0565b611439565b6001866008811115610d0957610d0961371c565b03610e0757835f03610d545760405162461bcd60e51b815260206004820152601460248201527356616c75652063616e6e6f74206265207a65726f60601b60448201526064016107b0565b600a5484600754610d659190613cba565b1215610daa5760405162461bcd60e51b8152602060048201526014602482015273496e76616c696420746f74616c20737570706c7960601b60448201526064016107b0565b5f84600754610db99190613cba565b1215610cf05760405162461bcd60e51b815260206004820152601f60248201527f546f74616c20737570706c792063616e6e6f74206265206e656761746976650060448201526064016107b0565b6002866008811115610e1b57610e1b61371c565b036110675780518251148015610e3157505f8251115b610e735760405162461bcd60e51b8152602060048201526013602482015272125b9d985b1a59081d9bdd195c9cc81b1a5cdd606a1b60448201526064016107b0565b5f5b825181101561106157600c5f848381518110610e9357610e93613ce1565b6020908102919091018101516001600160a01b031682528101919091526040015f205460ff16610efb5760405162461bcd60e51b815260206004820152601360248201527213db19081d9bdd195c881b9bdd08199bdd5b99606a1b60448201526064016107b0565b5f6001600160a01b0316828281518110610f1757610f17613ce1565b60200260200101516001600160a01b031614158015610f6e5750600c5f838381518110610f4657610f46613ce1565b6020908102919091018101516001600160a01b031682528101919091526040015f205460ff16155b610fae5760405162461bcd60e51b815260206004820152601160248201527024b73b30b634b2103732bb903b37ba32b960791b60448201526064016107b0565b5f610fba826001613cf5565b90505b825181101561105857828181518110610fd857610fd8613ce1565b60200260200101516001600160a01b0316838381518110610ffb57610ffb613ce1565b60200260200101516001600160a01b0316036110505760405162461bcd60e51b81526020600482015260146024820152734475706c6963617465206e657720766f7465727360601b60448201526064016107b0565b600101610fbd565b50600101610e75565b50611439565b600386600881111561107b5761107b61371c565b036110fc576001600160a01b038516158015906110b057506001600160a01b0385165f9081526008602052604090205460ff16155b610cf05760405162461bcd60e51b815260206004820152601e60248201527f496e76616c6964206f7220616c72656164792077686974656c6973746564000060448201526064016107b0565b60048660088111156111105761111061371c565b03611175576001600160a01b0385165f9081526008602052604090205460ff16610cf05760405162461bcd60e51b815260206004820152601660248201527515185c99d95d081b9bdd081dda1a5d195b1a5cdd195960521b60448201526064016107b0565b60058660088111156111895761118961371c565b0361120a576001600160a01b038516158015906111be57506001600160a01b0385165f9081526009602052604090205460ff16155b610cf05760405162461bcd60e51b815260206004820152601960248201527f496e76616c6964206f7220616c72656164792066726f7a656e0000000000000060448201526064016107b0565b600686600881111561121e5761121e61371c565b0361127e576001600160a01b0385165f9081526009602052604090205460ff16610cf05760405162461bcd60e51b81526020600482015260116024820152702a30b933b2ba103737ba10333937bd32b760791b60448201526064016107b0565b60078660088111156112925761129261371c565b03611372576001600160a01b0385165f9081526008602052604090205460ff1680156112c657506001600160a01b03851615155b6113125760405162461bcd60e51b815260206004820152601a60248201527f496e76616c6964206f72206e6f742077686974656c697374656400000000000060448201526064016107b0565b5f84118015611330575060075484600a5461132d9190613cf5565b11155b610cf05760405162461bcd60e51b8152602060048201526013602482015272125b9d985b1a59081b5a5b9d08185b5bdd5b9d606a1b60448201526064016107b0565b60088660088111156113865761138661371c565b036114395760018411156113cc5760405162461bcd60e51b815260206004820152600d60248201526c496e76616c69642076616c756560981b60448201526064016107b0565b6001600160a01b0385161580156113e257508251155b80156113ed57508151155b80156113f857508051155b6114395760405162461bcd60e51b8152602060048201526012602482015271496e76616c696420706172616d657465727360701b60448201526064016107b0565b6040518061014001604052808760088111156114575761145761371c565b81523360208201525f6040820152606001600288600881111561147c5761147c61371c565b11156114885742611495565b611495426202a300613cf5565b8152602001866001600160a01b0316815260200185815260200184815260200183815260200182815260200160011515815250600f5f60105481526020019081526020015f205f820151815f015f6101000a81548160ff021916908360088111156115025761150261371c565b021790555060208201518154610100600160a81b0319166101006001600160a01b0392831602178255604083015160018301556060830151600283015560808301516003830180546001600160a01b0319169190921617905560a0820151600482015560c082015160058201906115799082613d53565b5060e08201518051611595916006840191602090910190613640565b5061010082015180516115b2916007840191602090910190613640565b5061012091909101516008909101805460ff19169115159190911790556010546040517f3263432a41f78a4701cc9465f62411ed717ade32290c084135a3dd6b29f4bf28906116049089903390613e0e565b60405180910390a260108054905f61161b83613c2c565b9190505550505050505050565b601154610100900460ff16156116505760405162461bcd60e51b81526004016107b090613b9d565b5f818152600f6020526040902061166681613044565b505f815460ff16600881111561167e5761167e61371c565b036117555761171681600501805461169590613c44565b80601f01602080910402602001604051908101604052809291908181526020018280546116c190613c44565b801561170c5780601f106116e35761010080835404028352916020019161170c565b820191905f5260205f20905b8154815290600101906020018083116116ef57829003601f168201915b50505050506131ca565b7f4737457377f528cc8afd815f73ecb8b05df80d047dbffc41c17750a4033592bc816005016040516117489190613e34565b60405180910390a1611d55565b6001815460ff16600881111561176d5761176d61371c565b036117b95780600401546007546117849190613cba565b60078190556040519081527f0acd0677fad7be9ccaf6c91ebaaca5c9c91622ac0508242d2f8feca61a0da24990602001611748565b6002815460ff1660088111156117d1576117d161371c565b03611a13575f600e80548060200260200160405190810160405280929190818152602001828054801561182b57602002820191905f5260205f20905b81546001600160a01b0316815260019091019060200180831161180d575b509394505f93505050505b60068301548110156119b9575f600c5f85600601848154811061185b5761185b613ce1565b5f918252602080832091909101546001600160a01b031683528201929092526040018120805460ff191692151592909217909155600784018054600192600c929091859081106118ad576118ad613ce1565b5f918252602080832091909101546001600160a01b031683528201929092526040018120805460ff1916921515929092179091555b82518110156119b05783600601828154811061190057611900613ce1565b5f9182526020909120015483516001600160a01b039091169084908390811061192b5761192b613ce1565b60200260200101516001600160a01b0316036119a85783600701828154811061195657611956613ce1565b905f5260205f20015f9054906101000a90046001600160a01b031683828151811061198357611983613ce1565b60200260200101906001600160a01b031690816001600160a01b0316815250506119b0565b6001016118e2565b50600101611836565b5080516119cd90600e906020840190613640565b507f765616ca75e38e63dcc130430614a01fa91bfe57744073b30bf8f4ba8fa31ffc8260060183600701604051611a05929190613f00565b60405180910390a150611d55565b6003815460ff166008811115611a2b57611a2b61371c565b03611ab1576003810180546001600160a01b039081165f9081526008602052604090819020805460ff19166001908117909155925490519116915f5160206140fb5f395f51905f5291611aa4919060408082526009908201526815da1a5d195b1a5cdd60ba1b6060820152901515602082015260800190565b60405180910390a2611d55565b6004815460ff166008811115611ac957611ac961371c565b03611b39576003810180546001600160a01b039081165f908152600860209081526040808320805460ff19169055935484518581526009958101959095526815da1a5d195b1a5cdd60ba1b60608601529084019190915216905f5160206140fb5f395f51905f5290608001611aa4565b6005815460ff166008811115611b5157611b5161371c565b03611bc7576003810180546001600160a01b039081165f9081526009602052604090819020805460ff19166001908117909155925490519116915f5160206140fb5f395f51905f5291611aa49190604080825260069082015265467265657a6560d01b6060820152901515602082015260800190565b6006815460ff166008811115611bdf57611bdf61371c565b03611c4c576003810180546001600160a01b039081165f908152600960209081526040808320805460ff191690559354845185815260069581019590955265467265657a6560d01b60608601529084019190915216905f5160206140fb5f395f51905f5290608001611aa4565b6007815460ff166008811115611c6457611c6461371c565b03611ceb5760038101546004820154611c86916001600160a01b0316906131d6565b8060040154600a5f828254611c9b9190613cf5565b909155505060038101546004820154604080516001600160a01b03909316835260208301919091527f570563f436dc733c61d3863fd95e547272964f69d7b5cfe7461360a7a5643e3c9101611748565b6008815460ff166008811115611d0357611d0361371c565b03611d55576004810180546014805460ff191660019283141790559054604051911481527fe593157a0729375978035779b91259998c9123840959cf2016517de561aae9f39060200160405180910390a15b611d5e8261320a565b5f828152600f6020526040812080546001600160a81b031916815560018101829055600281018290556003810180546001600160a01b03191690556004810182905590611dae60058301826136a3565b611dbb600683015f6136da565b611dc8600783015f6136da565b50600801805460ff19169055805460405183917f5b9614f21773d68c0b149bda804ff3d491c8bc8795f7ed236cc97804cd00538991611e0a9160ff1690613f24565b60405180910390a25050565b611e1e612e1f565b601154610100900460ff1615611e465760405162461bcd60e51b81526004016107b090613b9d565b60145460ff1615611eb1576001600160a01b0381165f9081526008602052604090205460ff16611eb15760405162461bcd60e51b815260206004820152601660248201527515185c99d95d081b9bdd081dda1a5d195b1a5cdd195960521b60448201526064016107b0565b5f8211611f0c5760405162461bcd60e51b815260206004820152602360248201527f496e70757420616d6f756e74206d75737420626520677265617465722074686160448201526206e20360ec1b60648201526084016107b0565b5f611f18601484613f32565b90505f8111611f395760405162461bcd60e51b81526004016107b090613f49565b60075481600a54611f4a9190613cf5565b1115611f685760405162461bcd60e51b81526004016107b090613f8a565b611f7282826131d6565b80600a5f828254611f839190613cf5565b909155505060408051848152602081018390526001600160a01b0384169133917fbadb5a53e5a7f1f292f32f4ca0c78e80d05f213db774602acc6faca5aecdf6d7910160405180910390a350611fd96001600655565b5050565b6001600160a01b0381165f90815260208190526040812054610c35565b6011545f90610100900460ff16156120245760405162461bcd60e51b81526004016107b090613b9d565b6001600160a01b0384165f9081526009602052604090205460ff161561207c5760405162461bcd60e51b815260206004820152600d60248201526c29b2b73232b910333937bd32b760991b60448201526064016107b0565b816001600160801b031682146120c75760405162461bcd60e51b815260206004820152601060248201526f416d6f756e7420746f6f206c6172676560801b60448201526064016107b0565b5f6120d38585856132c6565b90508080156120ea57506001600160a01b03841630145b156120f9576120f985846131d6565b949350505050565b335f908152600c602052604090205460ff1661212f5760405162461bcd60e51b81526004016107b090613bc6565b601154610100900460ff16156121875760405162461bcd60e51b815260206004820152601760248201527f436f6e747261637420616c72656164792070617573656400000000000000000060448201526064016107b0565b6011805461ff0019166101001790556040517fab35696f06e428ebc5ceba8cd17f8fed287baf43440206d1943af1ee53e6d267905f90a1565b60605f805b6010548110156121fe575f818152600f602052604090206008015460ff16156121f657816121f281613c2c565b9250505b6001016121c5565b508067ffffffffffffffff811115612218576122186137e3565b604051908082528060200260200182016040528015612241578160200160208202803683370190505b5091505f805b60105481101561229e575f818152600f602052604090206008015460ff1615612296578084838151811061227d5761227d613ce1565b60209081029190910101528161229281613c2c565b9250505b600101612247565b50505090565b600b80546122b190613c44565b80601f01602080910402602001604051908101604052809291908181526020018280546122dd90613c44565b80156123285780601f106122ff57610100808354040283529160200191612328565b820191905f5260205f20905b81548152906001019060200180831161230b57829003601f168201915b505050505081565b6123386132e9565b6123415f613316565b565b600e8181548110612352575f80fd5b5f918252602090912001546001600160a01b0316905081565b6123736132e9565b6011805460ff191690556040517f8f69ef9279bfb1fe5f4f75790947a23fa88774e98242b966bcaaf7d25e8b3c16905f90a1565b601154610100900460ff16156123cf5760405162461bcd60e51b81526004016107b090613b9d565b335f908152600c602052604090205460ff166123fd5760405162461bcd60e51b81526004016107b090613bc6565b61012c60125461240d9190613cf5565b42101561245c5760405162461bcd60e51b815260206004820152601960248201527f546f6f20736f6f6e20666f7220646973747269627574696f6e0000000000000060448201526064016107b0565b6007546001600a5461246e9190613cf5565b111561248c5760405162461bcd60e51b81526004016107b090613f8a565b42601255604051600181527f90596ca0cb29ef99cd530e572920440d7d040408f92c28e46836fe9e048f59d89060200160405180910390a1565b606060048054610ba190613c44565b6011545f90610100900460ff16156124ff5760405162461bcd60e51b81526004016107b090613b9d565b335f9081526009602052604090205460ff161561254e5760405162461bcd60e51b815260206004820152600d60248201526c29b2b73232b910333937bd32b760991b60448201526064016107b0565b816001600160801b031682146125995760405162461bcd60e51b815260206004820152601060248201526f416d6f756e7420746f6f206c6172676560801b60448201526064016107b0565b5f6125a48484613367565b90508080156125bb57506001600160a01b03841630145b156125ca576125ca33846131d6565b9392505050565b5f5f601054116125e057505f90565b60016010546125ef9190613fb8565b905090565b335f908152600c602052604090205460ff166126225760405162461bcd60e51b81526004016107b090613bc6565b6011805461ff00191690556040517fab5f6dacf93a267a93a533de8a56370de8341bbd8102017307e7be375c3dda6a905f90a1565b61265f612e1f565b601154610100900460ff16156126875760405162461bcd60e51b81526004016107b090613b9d565b6103846013546126979190613cf5565b4210156126df5760405162461bcd60e51b8152602060048201526016602482015275151bdbc81cdbdbdb88199bdc88185d5d1bc81b5a5b9d60521b60448201526064016107b0565b6126ea816064612e78565b426013556040516126fc908290613c7c565b604080519182900382206064835260016020840152917fc2aead9cf0ee95e5f48d316db6adcf05801aec50b3029bf8afcd0c2faf73b12d9101610b7d565b5f600a546007546125ef9190613fb8565b601154610100900460ff16156127735760405162461bcd60e51b81526004016107b090613b9d565b5f818152600f60205260409020600881015460ff166127a45760405162461bcd60e51b81526004016107b090613beb565b805461010090046001600160a01b031633146127f25760405162461bcd60e51b815260206004820152600d60248201526c2737ba1034b734ba34b0ba37b960991b60448201526064016107b0565b6002815460ff16600881111561280a5761280a61371c565b11156128585760405162461bcd60e51b815260206004820181905260248201527f43616e6e6f742063616e63656c20746869732070726f706f73616c207479706560448201526064016107b0565b806002015442106128a35760405162461bcd60e51b8152602060048201526015602482015274141c9bdc1bdcd85b081d1a5b5948195e1c1a5c9959605a1b60448201526064016107b0565b6128ac8261320a565b80545f838152600f6020526040812080546001600160a81b031916815560018101829055600281018290556003810180546001600160a01b03191690556004810182905560ff909216919061290460058301826136a3565b612911600683015f6136da565b61291e600783015f6136da565b50600801805460ff1916905560405183907f89616a339342f36e4dcecc713f695bcbfe35fea112c4c652da7e1656bd486ce89061295c908490613f24565b60405180910390a2505050565b5f612972612e1f565b601154610100900460ff161561299a5760405162461bcd60e51b81526004016107b090613b9d565b5f84116129e95760405162461bcd60e51b815260206004820152601d60248201527f416d6f756e74206d7573742062652067726561746572207468616e203000000060448201526064016107b0565b6001600160a01b038516612a385760405162461bcd60e51b8152602060048201526016602482015275496e76616c696420746172676574206164647265737360501b60448201526064016107b0565b6001600160a01b038616612a865760405162461bcd60e51b8152602060048201526015602482015274496e76616c696420746f6b656e206164647265737360581b60448201526064016107b0565b604e8360ff161115612ad35760405162461bcd60e51b8152602060048201526016602482015275496e76616c696420746f6b656e20646563696d616c7360501b60448201526064016107b0565b5f8211612b2e5760405162461bcd60e51b8152602060048201526024808201527f45786368616e67652072617465206d75737420626520677265617465722074686044820152630616e20360e41b60648201526084016107b0565b60145460ff1615612b9057335f9081526008602052604090205460ff16612b905760405162461bcd60e51b815260206004820152601660248201527514d95b99195c881b9bdd081dda1a5d195b1a5cdd195960521b60448201526064016107b0565b335f9081526009602052604090205460ff1615612bef5760405162461bcd60e51b815260206004820152601860248201527f53656e646572206163636f756e742069732066726f7a656e000000000000000060448201526064016107b0565b6040516323b872dd60e01b81523360048201526001600160a01b038681166024830152604482018690528791908216906323b872dd906064016020604051808303815f875af1158015612c44573d5f5f3e3d5ffd5b505050506040513d601f19601f82011682018060405250810190612c689190613fcb565b612cb45760405162461bcd60e51b815260206004820152601e60248201527f45787465726e616c20746f6b656e207472616e73666572206661696c6564000060448201526064016107b0565b5f612cc085600a6140cd565b612cca90876140db565b90505f612cd78583613f32565b90505f8111612cf85760405162461bcd60e51b81526004016107b090613f49565b60075481600a54612d099190613cf5565b1115612d275760405162461bcd60e51b81526004016107b090613f8a565b612d3133826131d6565b80600a5f828254612d429190613cf5565b90915550506040518181526001600160a01b03808a1691908b169033907f7cfff908a4b583f36430b25d75964c458d8ede8a99bd61be750e97ee1b2f3a969060200160405180910390a460019350505050612d9d6001600655565b95945050505050565b612dae6132e9565b6001600160a01b038116612dd757604051631e4fbdf760e01b81525f60048201526024016107b0565b610b8f81613316565b612de86132e9565b6011805460ff191660011790556040517f20c53179fe7c6306d9d1c279d52bae5e736f5e1178137542d3a7a9d1752691be905f90a1565b600260065403612e715760405162461bcd60e51b815260206004820152601f60248201527f5265656e7472616e637947756172643a207265656e7472616e742063616c6c0060448201526064016107b0565b6002600655565b5f825111612ed45760405162461bcd60e51b815260206004820152602360248201527f57686974656c697374206164647265737365732063616e6e6f7420626520656d60448201526270747960e81b60648201526084016107b0565b5f818351612ee29190613f32565b905060075481600a54612ef59190613cf5565b1115612f135760405162461bcd60e51b81526004016107b090613f8a565b5f5b8351811015613016575f848281518110612f3157612f31613ce1565b602002602001015190505f6001600160a01b0316816001600160a01b031603612f9c5760405162461bcd60e51b815260206004820152601960248201527f496e76616c696420726563697069656e7420616464726573730000000000000060448201526064016107b0565b6001600160a01b0381165f9081526008602052604090205460ff166130035760405162461bcd60e51b815260206004820152601960248201527f526563697069656e74206e6f742077686974656c69737465640000000000000060448201526064016107b0565b61300d81856131d6565b50600101612f15565b5080600a5f8282546130289190613cf5565b9091555050505050565b61303f8383836001613374565b505050565b60088101545f9060ff1661306a5760405162461bcd60e51b81526004016107b090613beb565b81600201544210156130b35760405162461bcd60e51b815260206004820152601260248201527150726f706f73616c206e6f7420726561647960701b60448201526064016107b0565b5f6007835460ff1660088111156130cc576130cc61371c565b14806130ed57506008835460ff1660088111156130eb576130eb61371c565b145b61317c576003835460ff1660088111156131095761310961371c565b148061312a57506004835460ff1660088111156131285761312861371c565b145b8061314a57506005835460ff1660088111156131485761314861371c565b145b8061316a57506006835460ff1660088111156131685761316861371c565b145b61317557600561317f565b600361317f565b60025b90508083600101541015610c355760405162461bcd60e51b8152602060048201526012602482015271496e73756666696369656e7420766f74657360701b60448201526064016107b0565b600b611fd98282613d53565b6001600160a01b0382166131ff5760405163ec442f0560e01b81525f60048201526024016107b0565b611fd95f8383613447565b5f5b600e54811015611fd9575f828152600d60205260408120600e80549192918490811061323a5761323a613ce1565b5f9182526020808320909101546001600160a01b0316835282019290925260400190205460ff16156132be575f828152600d60205260408120600e80548391908590811061328a5761328a613ce1565b5f918252602080832091909101546001600160a01b031683528201929092526040019020805460ff19169115159190911790555b60010161320c565b5f336132d385828561356d565b6132de8585856135e3565b506001949350505050565b6005546001600160a01b031633146123415760405163118cdaa760e01b81523360048201526024016107b0565b600580546001600160a01b038381166001600160a01b0319831681179093556040519116919082907f8be0079c531659141344cd1fd0a4f28419497f9722a3daafe3b4186f6b6457e0905f90a35050565b5f33610c2f8185856135e3565b6001600160a01b03841661339d5760405163e602df0560e01b81525f60048201526024016107b0565b6001600160a01b0383166133c657604051634a1406b160e11b81525f60048201526024016107b0565b6001600160a01b038085165f908152600160209081526040808320938716835292905220829055801561344157826001600160a01b0316846001600160a01b03167f8c5be1e5ebec7d5bd14f71427d1e84f3dd0314c0f7b2291e5b200ac8c7c3b9258460405161343891815260200190565b60405180910390a35b50505050565b6001600160a01b038316613471578060025f8282546134669190613cf5565b909155506134e19050565b6001600160a01b0383165f90815260208190526040902054818110156134c35760405163391434e360e21b81526001600160a01b038516600482015260248101829052604481018390526064016107b0565b6001600160a01b0384165f9081526020819052604090209082900390555b6001600160a01b0382166134fd5760028054829003905561351b565b6001600160a01b0382165f9081526020819052604090208054820190555b816001600160a01b0316836001600160a01b03167fddf252ad1be2c89b69c2b068fc378daa952ba7f163c4a11628f55a4df523b3ef8360405161356091815260200190565b60405180910390a3505050565b6001600160a01b038381165f908152600160209081526040808320938616835292905220545f1981101561344157818110156135d557604051637dc7a0d960e11b81526001600160a01b038416600482015260248101829052604481018390526064016107b0565b61344184848484035f613374565b6001600160a01b03831661360c57604051634b637e8f60e11b81525f60048201526024016107b0565b6001600160a01b0382166136355760405163ec442f0560e01b81525f60048201526024016107b0565b61303f838383613447565b828054828255905f5260205f20908101928215613693579160200282015b8281111561369357825182546001600160a01b0319166001600160a01b0390911617825560209092019160019091019061365e565b5061369f9291506136f1565b5090565b5080546136af90613c44565b5f825580601f106136be575050565b601f0160209004905f5260205f2090810190610b8f91906136f1565b5080545f8255905f5260205f2090810190610b8f91905b5b8082111561369f575f81556001016136f2565b5f60208284031215613715575f5ffd5b5035919050565b634e487b7160e01b5f52602160045260245ffd5b6009811061374c57634e487b7160e01b5f52602160045260245ffd5b9052565b5f81518084528060208401602086015e5f602082860101526020601f19601f83011685010191505092915050565b613788818a613730565b6001600160a01b03888116602083015260408201889052606082018790528516608082015260a0810184905261010060c082018190525f906137cc90830185613750565b905082151560e08301529998505050505050505050565b634e487b7160e01b5f52604160045260245ffd5b604051601f8201601f1916810167ffffffffffffffff81118282101715613820576138206137e3565b604052919050565b80356001600160a01b038116811461383e575f5ffd5b919050565b5f82601f830112613852575f5ffd5b813567ffffffffffffffff81111561386c5761386c6137e3565b8060051b61387c602082016137f7565b91825260208185018101929081019086841115613897575f5ffd5b6020860192505b838310156138c0576138af83613828565b82526020928301929091019061389e565b9695505050505050565b5f602082840312156138da575f5ffd5b813567ffffffffffffffff8111156138f0575f5ffd5b6120f984828501613843565b602081525f6125ca6020830184613750565b5f5f6040838503121561391f575f5ffd5b61392883613828565b946020939093013593505050565b5f82601f830112613945575f5ffd5b813567ffffffffffffffff81111561395f5761395f6137e3565b613972601f8201601f19166020016137f7565b818152846020838601011115613986575f5ffd5b816020850160208301375f918101602001919091529392505050565b5f5f5f5f5f5f60c087890312156139b7575f5ffd5b8635600981106139c5575f5ffd5b95506139d360208801613828565b945060408701359350606087013567ffffffffffffffff8111156139f5575f5ffd5b613a0189828a01613936565b935050608087013567ffffffffffffffff811115613a1d575f5ffd5b613a2989828a01613843565b92505060a087013567ffffffffffffffff811115613a45575f5ffd5b613a5189828a01613843565b9150509295509295509295565b5f5f60408385031215613a6f575f5ffd5b82359150613a7f60208401613828565b90509250929050565b5f60208284031215613a98575f5ffd5b6125ca82613828565b5f5f5f60608486031215613ab3575f5ffd5b613abc84613828565b9250613aca60208501613828565b929592945050506040919091013590565b602080825282518282018190525f918401906040840190835b81811015613b12578351835260209384019390920191600101613af4565b509095945050505050565b5f5f60408385031215613b2e575f5ffd5b613b3783613828565b9150613a7f60208401613828565b5f5f5f5f5f60a08688031215613b59575f5ffd5b613b6286613828565b9450613b7060208701613828565b935060408601359250606086013560ff81168114613b8c575f5ffd5b949793965091946080013592915050565b6020808252600f908201526e10dbdb9d1c9858dd081c185d5cd959608a1b604082015260600190565b6020808252600b908201526a2737ba1030903b37ba32b960a91b604082015260600190565b60208082526013908201527250726f706f73616c206e6f742061637469766560681b604082015260600190565b634e487b7160e01b5f52601160045260245ffd5b5f60018201613c3d57613c3d613c18565b5060010190565b600181811c90821680613c5857607f821691505b602082108103613c7657634e487b7160e01b5f52602260045260245ffd5b50919050565b81515f90829060208501835b82811015613caf5781516001600160a01b0316845260209384019390910190600101613c88565b509195945050505050565b8082018281125f831280158216821582161715613cd957613cd9613c18565b505092915050565b634e487b7160e01b5f52603260045260245ffd5b80820180821115610c3557610c35613c18565b601f82111561303f57805f5260205f20601f840160051c81016020851015613d2d5750805b601f840160051c820191505b81811015613d4c575f8155600101613d39565b5050505050565b815167ffffffffffffffff811115613d6d57613d6d6137e3565b613d8181613d7b8454613c44565b84613d08565b6020601f821160018114613db3575f8315613d9c5750848201515b5f19600385901b1c1916600184901b178455613d4c565b5f84815260208120601f198516915b82811015613de25787850151825560209485019460019092019101613dc2565b5084821015613dff57868401515f19600387901b60f8161c191681555b50505050600190811b01905550565b60408101613e1c8285613730565b6001600160a01b039290921660209190910152919050565b602081525f5f8354613e4581613c44565b806020860152600182165f8114613e635760018114613e7f57613caf565b60ff1983166040870152604082151560051b8701019350613caf565b865f5260205f205f5b83811015613ea757815488820160400152600190910190602001613e88565b8701604001945050509195945050505050565b5f8154808452602084019350825f5260205f205f5b82811015613ef65781546001600160a01b0316865260209095019460019182019101613ecf565b5093949350505050565b604081525f613f126040830185613eba565b8281036020840152612d9d8185613eba565b60208101610c358284613730565b8082028115828204841417610c3557610c35613c18565b60208082526021908201527f43434b20616d6f756e74206d7573742062652067726561746572207468616e206040820152600360fc1b606082015260800190565b6020808252601490820152734578636565647320746f74616c20737570706c7960601b604082015260600190565b81810381811115610c3557610c35613c18565b5f60208284031215613fdb575f5ffd5b815180151581146125ca575f5ffd5b6001815b60018411156140255780850481111561400957614009613c18565b600184161561401757908102905b60019390931c928002613fee565b935093915050565b5f8261403b57506001610c35565b8161404757505f610c35565b816001811461405d576002811461406757614083565b6001915050610c35565b60ff84111561407857614078613c18565b50506001821b610c35565b5060208310610133831016604e8410600b84101617156140a6575081810a610c35565b6140b25f198484613fea565b805f19048211156140c5576140c5613c18565b029392505050565b5f6125ca60ff84168361402d565b5f826140f557634e487b7160e01b5f52601260045260245ffd5b50049056fe708b4d521222bb27f0672d2839e6039075f625a31020905655afd928fc992340a2646970667358221220538c1a0425410d329e1dd286deff2ed43d42ae51107a689f931bf782c08fc8e364736f6c634300081e0033",
			"opcodes": "PUSH1 0x80 PUSH1 0x40 MSTORE PUSH11 0xF8277896582678AC000000 PUSH1 0x7 SSTORE PUSH1 0x14 DUP1 SLOAD PUSH1 0xFF NOT AND SWAP1 SSTORE CALLVALUE DUP1 ISZERO PUSH2 0x28 JUMPI PUSH0 PUSH0 REVERT JUMPDEST POP PUSH1 0x40 MLOAD PUSH2 0x483E CODESIZE SUB DUP1 PUSH2 0x483E DUP4 CODECOPY DUP2 ADD PUSH1 0x40 DUP2 SWAP1 MSTORE PUSH2 0x47 SWAP2 PUSH2 0x4AA JUMP JUMPDEST PUSH1 0x40 DUP1 MLOAD DUP1 DUP3 ADD SWAP1 SWAP2 MSTORE PUSH1 0x2 DUP2 MSTORE PUSH2 0x4343 PUSH1 0xF0 SHL PUSH1 0x20 DUP3 ADD MSTORE CALLER SWAP1 DUP5 SWAP1 PUSH1 0x3 PUSH2 0x70 DUP4 DUP3 PUSH2 0x613 JUMP JUMPDEST POP PUSH1 0x4 PUSH2 0x7D DUP3 DUP3 PUSH2 0x613 JUMP JUMPDEST POP POP POP PUSH1 0x1 PUSH1 0x1 PUSH1 0xA0 SHL SUB DUP2 AND PUSH2 0xAE JUMPI PUSH1 0x40 MLOAD PUSH4 0x1E4FBDF7 PUSH1 0xE0 SHL DUP2 MSTORE PUSH0 PUSH1 0x4 DUP3 ADD MSTORE PUSH1 0x24 ADD JUMPDEST PUSH1 0x40 MLOAD DUP1 SWAP2 SUB SWAP1 REVERT JUMPDEST PUSH2 0xB7 DUP2 PUSH2 0x382 JUMP JUMPDEST POP PUSH1 0x1 PUSH1 0x6 SSTORE DUP2 MLOAD PUSH2 0x10B JUMPI PUSH1 0x40 MLOAD PUSH3 0x461BCD PUSH1 0xE5 SHL DUP2 MSTORE PUSH1 0x20 PUSH1 0x4 DUP3 ADD MSTORE PUSH1 0x19 PUSH1 0x24 DUP3 ADD MSTORE PUSH32 0x57686974656C6973742063616E6E6F7420626520656D70747900000000000000 PUSH1 0x44 DUP3 ADD MSTORE PUSH1 0x64 ADD PUSH2 0xA5 JUMP JUMPDEST PUSH0 DUP2 MLOAD GT PUSH2 0x15B JUMPI PUSH1 0x40 MLOAD PUSH3 0x461BCD PUSH1 0xE5 SHL DUP2 MSTORE PUSH1 0x20 PUSH1 0x4 DUP3 ADD MSTORE PUSH1 0x1B PUSH1 0x24 DUP3 ADD MSTORE PUSH32 0x566F74657273206C6973742063616E6E6F7420626520656D7074790000000000 PUSH1 0x44 DUP3 ADD MSTORE PUSH1 0x64 ADD PUSH2 0xA5 JUMP JUMPDEST PUSH0 JUMPDEST DUP3 MLOAD DUP2 LT ISZERO PUSH2 0x230 JUMPI PUSH0 PUSH1 0x1 PUSH1 0x1 PUSH1 0xA0 SHL SUB AND DUP4 DUP3 DUP2 MLOAD DUP2 LT PUSH2 0x182 JUMPI PUSH2 0x182 PUSH2 0x6CD JUMP JUMPDEST PUSH1 0x20 MUL PUSH1 0x20 ADD ADD MLOAD PUSH1 0x1 PUSH1 0x1 PUSH1 0xA0 SHL SUB AND SUB PUSH2 0x1E0 JUMPI PUSH1 0x40 MLOAD PUSH3 0x461BCD PUSH1 0xE5 SHL DUP2 MSTORE PUSH1 0x20 PUSH1 0x4 DUP3 ADD MSTORE PUSH1 0x19 PUSH1 0x24 DUP3 ADD MSTORE PUSH32 0x496E76616C69642077686974656C697374206164647265737300000000000000 PUSH1 0x44 DUP3 ADD MSTORE PUSH1 0x64 ADD PUSH2 0xA5 JUMP JUMPDEST PUSH1 0x1 PUSH1 0x8 PUSH0 DUP6 DUP5 DUP2 MLOAD DUP2 LT PUSH2 0x1F7 JUMPI PUSH2 0x1F7 PUSH2 0x6CD JUMP JUMPDEST PUSH1 0x20 SWAP1 DUP2 MUL SWAP2 SWAP1 SWAP2 ADD DUP2 ADD MLOAD PUSH1 0x1 PUSH1 0x1 PUSH1 0xA0 SHL SUB AND DUP3 MSTORE DUP2 ADD SWAP2 SWAP1 SWAP2 MSTORE PUSH1 0x40 ADD PUSH0 KECCAK256 DUP1 SLOAD PUSH1 0xFF NOT AND SWAP2 ISZERO ISZERO SWAP2 SWAP1 SWAP2 OR SWAP1 SSTORE PUSH1 0x1 ADD PUSH2 0x15D JUMP JUMPDEST POP PUSH0 JUMPDEST DUP2 MLOAD DUP2 LT ISZERO PUSH2 0x362 JUMPI PUSH0 PUSH1 0x1 PUSH1 0x1 PUSH1 0xA0 SHL SUB AND DUP3 DUP3 DUP2 MLOAD DUP2 LT PUSH2 0x258 JUMPI PUSH2 0x258 PUSH2 0x6CD JUMP JUMPDEST PUSH1 0x20 MUL PUSH1 0x20 ADD ADD MLOAD PUSH1 0x1 PUSH1 0x1 PUSH1 0xA0 SHL SUB AND SUB PUSH2 0x2B6 JUMPI PUSH1 0x40 MLOAD PUSH3 0x461BCD PUSH1 0xE5 SHL DUP2 MSTORE PUSH1 0x20 PUSH1 0x4 DUP3 ADD MSTORE PUSH1 0x15 PUSH1 0x24 DUP3 ADD MSTORE PUSH32 0x496E76616C696420766F74657220616464726573730000000000000000000000 PUSH1 0x44 DUP3 ADD MSTORE PUSH1 0x64 ADD PUSH2 0xA5 JUMP JUMPDEST PUSH1 0x1 PUSH1 0xC PUSH0 DUP5 DUP5 DUP2 MLOAD DUP2 LT PUSH2 0x2CD JUMPI PUSH2 0x2CD PUSH2 0x6CD JUMP JUMPDEST PUSH1 0x20 MUL PUSH1 0x20 ADD ADD MLOAD PUSH1 0x1 PUSH1 0x1 PUSH1 0xA0 SHL SUB AND PUSH1 0x1 PUSH1 0x1 PUSH1 0xA0 SHL SUB AND DUP2 MSTORE PUSH1 0x20 ADD SWAP1 DUP2 MSTORE PUSH1 0x20 ADD PUSH0 KECCAK256 PUSH0 PUSH2 0x100 EXP DUP2 SLOAD DUP2 PUSH1 0xFF MUL NOT AND SWAP1 DUP4 ISZERO ISZERO MUL OR SWAP1 SSTORE POP PUSH1 0xE DUP3 DUP3 DUP2 MLOAD DUP2 LT PUSH2 0x31E JUMPI PUSH2 0x31E PUSH2 0x6CD JUMP JUMPDEST PUSH1 0x20 SWAP1 DUP2 MUL SWAP2 SWAP1 SWAP2 ADD DUP2 ADD MLOAD DUP3 SLOAD PUSH1 0x1 DUP1 DUP3 ADD DUP6 SSTORE PUSH0 SWAP5 DUP6 MSTORE SWAP3 SWAP1 SWAP4 KECCAK256 SWAP1 SWAP3 ADD DUP1 SLOAD PUSH1 0x1 PUSH1 0x1 PUSH1 0xA0 SHL SUB NOT AND PUSH1 0x1 PUSH1 0x1 PUSH1 0xA0 SHL SUB SWAP1 SWAP4 AND SWAP3 SWAP1 SWAP3 OR SWAP1 SWAP2 SSTORE ADD PUSH2 0x233 JUMP JUMPDEST POP PUSH1 0xB PUSH2 0x36F DUP5 DUP3 PUSH2 0x613 JUMP JUMPDEST POP POP TIMESTAMP PUSH1 0x12 DUP2 SWAP1 SSTORE PUSH1 0x13 SSTORE POP PUSH2 0x6E1 SWAP1 POP JUMP JUMPDEST PUSH1 0x5 DUP1 SLOAD PUSH1 0x1 PUSH1 0x1 PUSH1 0xA0 SHL SUB DUP4 DUP2 AND PUSH1 0x1 PUSH1 0x1 PUSH1 0xA0 SHL SUB NOT DUP4 AND DUP2 OR SWAP1 SWAP4 SSTORE PUSH1 0x40 MLOAD SWAP2 AND SWAP2 SWAP1 DUP3 SWAP1 PUSH32 0x8BE0079C531659141344CD1FD0A4F28419497F9722A3DAAFE3B4186F6B6457E0 SWAP1 PUSH0 SWAP1 LOG3 POP POP JUMP JUMPDEST PUSH4 0x4E487B71 PUSH1 0xE0 SHL PUSH0 MSTORE PUSH1 0x41 PUSH1 0x4 MSTORE PUSH1 0x24 PUSH0 REVERT JUMPDEST PUSH1 0x40 MLOAD PUSH1 0x1F DUP3 ADD PUSH1 0x1F NOT AND DUP2 ADD PUSH1 0x1 PUSH1 0x1 PUSH1 0x40 SHL SUB DUP2 GT DUP3 DUP3 LT OR ISZERO PUSH2 0x40F JUMPI PUSH2 0x40F PUSH2 0x3D3 JUMP JUMPDEST PUSH1 0x40 MSTORE SWAP2 SWAP1 POP JUMP JUMPDEST PUSH0 DUP3 PUSH1 0x1F DUP4 ADD SLT PUSH2 0x426 JUMPI PUSH0 PUSH0 REVERT JUMPDEST DUP2 MLOAD PUSH1 0x1 PUSH1 0x1 PUSH1 0x40 SHL SUB DUP2 GT ISZERO PUSH2 0x43F JUMPI PUSH2 0x43F PUSH2 0x3D3 JUMP JUMPDEST DUP1 PUSH1 0x5 SHL PUSH2 0x44F PUSH1 0x20 DUP3 ADD PUSH2 0x3E7 JUMP JUMPDEST SWAP2 DUP3 MSTORE PUSH1 0x20 DUP2 DUP6 ADD DUP2 ADD SWAP3 SWAP1 DUP2 ADD SWAP1 DUP7 DUP5 GT ISZERO PUSH2 0x46A JUMPI PUSH0 PUSH0 REVERT JUMPDEST PUSH1 0x20 DUP7 ADD SWAP3 POP JUMPDEST DUP4 DUP4 LT ISZERO PUSH2 0x4A0 JUMPI DUP3 MLOAD PUSH1 0x1 PUSH1 0x1 PUSH1 0xA0 SHL SUB DUP2 AND DUP2 EQ PUSH2 0x48F JUMPI PUSH0 PUSH0 REVERT JUMPDEST DUP3 MSTORE PUSH1 0x20 SWAP3 DUP4 ADD SWAP3 SWAP1 SWAP2 ADD SWAP1 PUSH2 0x471 JUMP JUMPDEST SWAP7 SWAP6 POP POP POP POP POP POP JUMP JUMPDEST PUSH0 PUSH0 PUSH0 PUSH1 0x60 DUP5 DUP7 SUB SLT ISZERO PUSH2 0x4BC JUMPI PUSH0 PUSH0 REVERT JUMPDEST DUP4 MLOAD PUSH1 0x1 PUSH1 0x1 PUSH1 0x40 SHL SUB DUP2 GT ISZERO PUSH2 0x4D1 JUMPI PUSH0 PUSH0 REVERT JUMPDEST DUP5 ADD PUSH1 0x1F DUP2 ADD DUP7 SGT PUSH2 0x4E1 JUMPI PUSH0 PUSH0 REVERT JUMPDEST DUP1 MLOAD PUSH1 0x1 PUSH1 0x1 PUSH1 0x40 SHL SUB DUP2 GT ISZERO PUSH2 0x4FA JUMPI PUSH2 0x4FA PUSH2 0x3D3 JUMP JUMPDEST PUSH2 0x50D PUSH1 0x1F DUP3 ADD PUSH1 0x1F NOT AND PUSH1 0x20 ADD PUSH2 0x3E7 JUMP JUMPDEST DUP2 DUP2 MSTORE DUP8 PUSH1 0x20 DUP4 DUP6 ADD ADD GT ISZERO PUSH2 0x521 JUMPI PUSH0 PUSH0 REVERT JUMPDEST DUP2 PUSH1 0x20 DUP5 ADD PUSH1 0x20 DUP4 ADD MCOPY PUSH0 PUSH1 0x20 DUP4 DUP4 ADD ADD MSTORE DUP1 SWAP6 POP POP POP POP PUSH1 0x20 DUP5 ADD MLOAD PUSH1 0x1 DUP1 PUSH1 0x40 SHL SUB DUP2 GT ISZERO PUSH2 0x550 JUMPI PUSH0 PUSH0 REVERT JUMPDEST PUSH2 0x55C DUP7 DUP3 DUP8 ADD PUSH2 0x417 JUMP JUMPDEST PUSH1 0x40 DUP7 ADD MLOAD SWAP1 SWAP4 POP SWAP1 POP PUSH1 0x1 PUSH1 0x1 PUSH1 0x40 SHL SUB DUP2 GT ISZERO PUSH2 0x579 JUMPI PUSH0 PUSH0 REVERT JUMPDEST PUSH2 0x585 DUP7 DUP3 DUP8 ADD PUSH2 0x417 JUMP JUMPDEST SWAP2 POP POP SWAP3 POP SWAP3 POP SWAP3 JUMP JUMPDEST PUSH1 0x1 DUP2 DUP2 SHR SWAP1 DUP3 AND DUP1 PUSH2 0x5A3 JUMPI PUSH1 0x7F DUP3 AND SWAP2 POP JUMPDEST PUSH1 0x20 DUP3 LT DUP2 SUB PUSH2 0x5C1 JUMPI PUSH4 0x4E487B71 PUSH1 0xE0 SHL PUSH0 MSTORE PUSH1 0x22 PUSH1 0x4 MSTORE PUSH1 0x24 PUSH0 REVERT JUMPDEST POP SWAP2 SWAP1 POP JUMP JUMPDEST PUSH1 0x1F DUP3 GT ISZERO PUSH2 0x60E JUMPI DUP1 PUSH0 MSTORE PUSH1 0x20 PUSH0 KECCAK256 PUSH1 0x1F DUP5 ADD PUSH1 0x5 SHR DUP2 ADD PUSH1 0x20 DUP6 LT ISZERO PUSH2 0x5EC JUMPI POP DUP1 JUMPDEST PUSH1 0x1F DUP5 ADD PUSH1 0x5 SHR DUP3 ADD SWAP2 POP JUMPDEST DUP2 DUP2 LT ISZERO PUSH2 0x60B JUMPI PUSH0 DUP2 SSTORE PUSH1 0x1 ADD PUSH2 0x5F8 JUMP JUMPDEST POP POP JUMPDEST POP POP POP JUMP JUMPDEST DUP2 MLOAD PUSH1 0x1 PUSH1 0x1 PUSH1 0x40 SHL SUB DUP2 GT ISZERO PUSH2 0x62C JUMPI PUSH2 0x62C PUSH2 0x3D3 JUMP JUMPDEST PUSH2 0x640 DUP2 PUSH2 0x63A DUP5 SLOAD PUSH2 0x58F JUMP JUMPDEST DUP5 PUSH2 0x5C7 JUMP JUMPDEST PUSH1 0x20 PUSH1 0x1F DUP3 GT PUSH1 0x1 DUP2 EQ PUSH2 0x672 JUMPI PUSH0 DUP4 ISZERO PUSH2 0x65B JUMPI POP DUP5 DUP3 ADD MLOAD JUMPDEST PUSH0 NOT PUSH1 0x3 DUP6 SWAP1 SHL SHR NOT AND PUSH1 0x1 DUP5 SWAP1 SHL OR DUP5 SSTORE PUSH2 0x60B JUMP JUMPDEST PUSH0 DUP5 DUP2 MSTORE PUSH1 0x20 DUP2 KECCAK256 PUSH1 0x1F NOT DUP6 AND SWAP2 JUMPDEST DUP3 DUP2 LT ISZERO PUSH2 0x6A1 JUMPI DUP8 DUP6 ADD MLOAD DUP3 SSTORE PUSH1 0x20 SWAP5 DUP6 ADD SWAP5 PUSH1 0x1 SWAP1 SWAP3 ADD SWAP2 ADD PUSH2 0x681 JUMP JUMPDEST POP DUP5 DUP3 LT ISZERO PUSH2 0x6BE JUMPI DUP7 DUP5 ADD MLOAD PUSH0 NOT PUSH1 0x3 DUP8 SWAP1 SHL PUSH1 0xF8 AND SHR NOT AND DUP2 SSTORE JUMPDEST POP POP POP POP PUSH1 0x1 SWAP1 DUP2 SHL ADD SWAP1 SSTORE POP JUMP JUMPDEST PUSH4 0x4E487B71 PUSH1 0xE0 SHL PUSH0 MSTORE PUSH1 0x32 PUSH1 0x4 MSTORE PUSH1 0x24 PUSH0 REVERT JUMPDEST PUSH2 0x4150 DUP1 PUSH2 0x6EE PUSH0 CODECOPY PUSH0 RETURN INVALID PUSH1 0x80 PUSH1 0x40 MSTORE CALLVALUE DUP1 ISZERO PUSH2 0xF JUMPI PUSH0 PUSH0 REVERT JUMPDEST POP PUSH1 0x4 CALLDATASIZE LT PUSH2 0x37D JUMPI PUSH0 CALLDATALOAD PUSH1 0xE0 SHR DUP1 PUSH4 0x7AFDF93E GT PUSH2 0x1D4 JUMPI DUP1 PUSH4 0xC08CC02D GT PUSH2 0x109 JUMPI DUP1 PUSH4 0xE56281E8 GT PUSH2 0xA9 JUMPI DUP1 PUSH4 0xF36E32CC GT PUSH2 0x79 JUMPI DUP1 PUSH4 0xF36E32CC EQ PUSH2 0x765 JUMPI DUP1 PUSH4 0xF3CDCD1E EQ PUSH2 0x76D JUMPI DUP1 PUSH4 0xFCA63EFD EQ PUSH2 0x775 JUMPI DUP1 PUSH4 0xFF8F164F EQ PUSH2 0x780 JUMPI PUSH0 PUSH0 REVERT JUMPDEST DUP1 PUSH4 0xE56281E8 EQ PUSH2 0x707 JUMPI DUP1 PUSH4 0xE5839836 EQ PUSH2 0x71A JUMPI DUP1 PUSH4 0xEF1300C0 EQ PUSH2 0x745 JUMPI DUP1 PUSH4 0xF2FDE38B EQ PUSH2 0x752 JUMPI PUSH0 PUSH0 REVERT JUMPDEST DUP1 PUSH4 0xD0516650 GT PUSH2 0xE4 JUMPI DUP1 PUSH4 0xD0516650 EQ PUSH2 0x692 JUMPI DUP1 PUSH4 0xDA0239A6 EQ PUSH2 0x6B4 JUMPI DUP1 PUSH4 0xDD62ED3E EQ PUSH2 0x6BC JUMPI DUP1 PUSH4 0xE0A8F6F5 EQ PUSH2 0x6F4 JUMPI PUSH0 PUSH0 REVERT JUMPDEST DUP1 PUSH4 0xC08CC02D EQ PUSH2 0x66F JUMPI DUP1 PUSH4 0xC4BC5DA5 EQ PUSH2 0x677 JUMPI DUP1 PUSH4 0xCB7A11C2 EQ PUSH2 0x67F JUMPI PUSH0 PUSH0 REVERT JUMPDEST DUP1 PUSH4 0x9B19251A GT PUSH2 0x174 JUMPI DUP1 PUSH4 0xABA63705 GT PUSH2 0x14F JUMPI DUP1 PUSH4 0xABA63705 EQ PUSH2 0x64B JUMPI DUP1 PUSH4 0xACA9F472 EQ PUSH2 0x651 JUMPI DUP1 PUSH4 0xAE66C9EA EQ PUSH2 0x65A JUMPI DUP1 PUSH4 0xB5FC35CE EQ PUSH2 0x667 JUMPI PUSH0 PUSH0 REVERT JUMPDEST DUP1 PUSH4 0x9B19251A EQ PUSH2 0x5F4 JUMPI DUP1 PUSH4 0xA3EC138D EQ PUSH2 0x616 JUMPI DUP1 PUSH4 0xA9059CBB EQ PUSH2 0x638 JUMPI PUSH0 PUSH0 REVERT JUMPDEST DUP1 PUSH4 0x8A67456A GT PUSH2 0x1AF JUMPI DUP1 PUSH4 0x8A67456A EQ PUSH2 0x5C0 JUMPI DUP1 PUSH4 0x8DA5CB5B EQ PUSH2 0x5D2 JUMPI DUP1 PUSH4 0x902D55A5 EQ PUSH2 0x5E3 JUMPI DUP1 PUSH4 0x95D89B41 EQ PUSH2 0x5EC JUMPI PUSH0 PUSH0 REVERT JUMPDEST DUP1 PUSH4 0x7AFDF93E EQ PUSH2 0x5A7 JUMPI DUP1 PUSH4 0x7C224D64 EQ PUSH2 0x5AF JUMPI DUP1 PUSH4 0x80E79A36 EQ PUSH2 0x5B8 JUMPI PUSH0 PUSH0 REVERT JUMPDEST DUP1 PUSH4 0x23B872DD GT PUSH2 0x2B5 JUMPI DUP1 PUSH4 0x54FD4D50 GT PUSH2 0x255 JUMPI DUP1 PUSH4 0x6C02A931 GT PUSH2 0x225 JUMPI DUP1 PUSH4 0x6C02A931 EQ PUSH2 0x55C JUMPI DUP1 PUSH4 0x70A08231 EQ PUSH2 0x564 JUMPI DUP1 PUSH4 0x715018A6 EQ PUSH2 0x58C JUMPI DUP1 PUSH4 0x72CE73AB EQ PUSH2 0x594 JUMPI PUSH0 PUSH0 REVERT JUMPDEST DUP1 PUSH4 0x54FD4D50 EQ PUSH2 0x516 JUMPI DUP1 PUSH4 0x5584C4F9 EQ PUSH2 0x537 JUMPI DUP1 PUSH4 0x5C975ABB EQ PUSH2 0x54C JUMPI DUP1 PUSH4 0x6290865D EQ PUSH2 0x474 JUMPI PUSH0 PUSH0 REVERT JUMPDEST DUP1 PUSH4 0x302C464A GT PUSH2 0x290 JUMPI DUP1 PUSH4 0x302C464A EQ PUSH2 0x4CB JUMPI DUP1 PUSH4 0x313CE567 EQ PUSH2 0x4D3 JUMPI DUP1 PUSH4 0x43859632 EQ PUSH2 0x4E1 JUMPI DUP1 PUSH4 0x439766CE EQ PUSH2 0x50E JUMPI PUSH0 PUSH0 REVERT JUMPDEST DUP1 PUSH4 0x23B872DD EQ PUSH2 0x4A7 JUMPI DUP1 PUSH4 0x2D380242 EQ PUSH2 0x4BA JUMPI DUP1 PUSH4 0x2DE56555 EQ PUSH2 0x4C3 JUMPI PUSH0 PUSH0 REVERT JUMPDEST DUP1 PUSH4 0xD61B519 GT PUSH2 0x320 JUMPI DUP1 PUSH4 0x134E18F4 GT PUSH2 0x2FB JUMPI DUP1 PUSH4 0x134E18F4 EQ PUSH2 0x474 JUMPI DUP1 PUSH4 0x14A8BD0D EQ PUSH2 0x48E JUMPI DUP1 PUSH4 0x18160DDD EQ PUSH2 0x496 JUMPI DUP1 PUSH4 0x20950933 EQ PUSH2 0x49E JUMPI PUSH0 PUSH0 REVERT JUMPDEST DUP1 PUSH4 0xD61B519 EQ PUSH2 0x43B JUMPI DUP1 PUSH4 0xFE2ABCF EQ PUSH2 0x44E JUMPI DUP1 PUSH4 0x12CAE7AF EQ PUSH2 0x461 JUMPI PUSH0 PUSH0 REVERT JUMPDEST DUP1 PUSH4 0x6FDDE03 GT PUSH2 0x35B JUMPI DUP1 PUSH4 0x6FDDE03 EQ PUSH2 0x3D9 JUMPI DUP1 PUSH4 0x8B26B75 EQ PUSH2 0x3EE JUMPI DUP1 PUSH4 0x95EA7B3 EQ PUSH2 0x405 JUMPI DUP1 PUSH4 0xD4EFA4F EQ PUSH2 0x428 JUMPI PUSH0 PUSH0 REVERT JUMPDEST DUP1 PUSH4 0x121B93F EQ PUSH2 0x381 JUMPI DUP1 PUSH4 0x13CF08B EQ PUSH2 0x396 JUMPI DUP1 PUSH4 0x51069E3 EQ PUSH2 0x3C6 JUMPI JUMPDEST PUSH0 PUSH0 REVERT JUMPDEST PUSH2 0x394 PUSH2 0x38F CALLDATASIZE PUSH1 0x4 PUSH2 0x3705 JUMP JUMPDEST PUSH2 0x788 JUMP JUMPDEST STOP JUMPDEST PUSH2 0x3A9 PUSH2 0x3A4 CALLDATASIZE PUSH1 0x4 PUSH2 0x3705 JUMP JUMPDEST PUSH2 0x9F5 JUMP JUMPDEST PUSH1 0x40 MLOAD PUSH2 0x3BD SWAP9 SWAP8 SWAP7 SWAP6 SWAP5 SWAP4 SWAP3 SWAP2 SWAP1 PUSH2 0x377E JUMP JUMPDEST PUSH1 0x40 MLOAD DUP1 SWAP2 SUB SWAP1 RETURN JUMPDEST PUSH2 0x394 PUSH2 0x3D4 CALLDATASIZE PUSH1 0x4 PUSH2 0x38CA JUMP JUMPDEST PUSH2 0xACD JUMP JUMPDEST PUSH2 0x3E1 PUSH2 0xB92 JUMP JUMPDEST PUSH1 0x40 MLOAD PUSH2 0x3BD SWAP2 SWAP1 PUSH2 0x38FC JUMP JUMPDEST PUSH2 0x3F7 PUSH2 0x12C DUP2 JUMP JUMPDEST PUSH1 0x40 MLOAD SWAP1 DUP2 MSTORE PUSH1 0x20 ADD PUSH2 0x3BD JUMP JUMPDEST PUSH2 0x418 PUSH2 0x413 CALLDATASIZE PUSH1 0x4 PUSH2 0x390E JUMP JUMPDEST PUSH2 0xC22 JUMP JUMPDEST PUSH1 0x40 MLOAD SWAP1 ISZERO ISZERO DUP2 MSTORE PUSH1 0x20 ADD PUSH2 0x3BD JUMP JUMPDEST PUSH2 0x394 PUSH2 0x436 CALLDATASIZE PUSH1 0x4 PUSH2 0x39A2 JUMP JUMPDEST PUSH2 0xC3B JUMP JUMPDEST PUSH2 0x394 PUSH2 0x449 CALLDATASIZE PUSH1 0x4 PUSH2 0x3705 JUMP JUMPDEST PUSH2 0x1628 JUMP JUMPDEST PUSH2 0x394 PUSH2 0x45C CALLDATASIZE PUSH1 0x4 PUSH2 0x3A5E JUMP JUMPDEST PUSH2 0x1E16 JUMP JUMPDEST PUSH2 0x3F7 PUSH2 0x46F CALLDATASIZE PUSH1 0x4 PUSH2 0x3A88 JUMP JUMPDEST PUSH2 0x1FDD JUMP JUMPDEST PUSH0 JUMPDEST PUSH1 0x40 MLOAD PUSH1 0x1 PUSH1 0x1 PUSH1 0xA0 SHL SUB SWAP1 SWAP2 AND DUP2 MSTORE PUSH1 0x20 ADD PUSH2 0x3BD JUMP JUMPDEST PUSH2 0x3F7 PUSH1 0x14 DUP2 JUMP JUMPDEST PUSH1 0x2 SLOAD PUSH2 0x3F7 JUMP JUMPDEST PUSH2 0x3F7 PUSH1 0x12 SLOAD DUP2 JUMP JUMPDEST PUSH2 0x418 PUSH2 0x4B5 CALLDATASIZE PUSH1 0x4 PUSH2 0x3AA1 JUMP JUMPDEST PUSH2 0x1FFA JUMP JUMPDEST PUSH2 0x3F7 PUSH1 0xA SLOAD DUP2 JUMP JUMPDEST PUSH2 0x3F7 PUSH1 0x3 DUP2 JUMP JUMPDEST PUSH2 0x3F7 PUSH1 0x5 DUP2 JUMP JUMPDEST PUSH1 0x40 MLOAD PUSH0 DUP2 MSTORE PUSH1 0x20 ADD PUSH2 0x3BD JUMP JUMPDEST PUSH2 0x418 PUSH2 0x4EF CALLDATASIZE PUSH1 0x4 PUSH2 0x3A5E JUMP JUMPDEST PUSH1 0xD PUSH1 0x20 SWAP1 DUP2 MSTORE PUSH0 SWAP3 DUP4 MSTORE PUSH1 0x40 DUP1 DUP5 KECCAK256 SWAP1 SWAP2 MSTORE SWAP1 DUP3 MSTORE SWAP1 KECCAK256 SLOAD PUSH1 0xFF AND DUP2 JUMP JUMPDEST PUSH2 0x394 PUSH2 0x2101 JUMP JUMPDEST PUSH1 0x40 DUP1 MLOAD DUP1 DUP3 ADD SWAP1 SWAP2 MSTORE PUSH1 0x5 DUP2 MSTORE PUSH5 0x312E302E3 PUSH1 0xDC SHL PUSH1 0x20 DUP3 ADD MSTORE PUSH2 0x3E1 JUMP JUMPDEST PUSH2 0x53F PUSH2 0x21C0 JUMP JUMPDEST PUSH1 0x40 MLOAD PUSH2 0x3BD SWAP2 SWAP1 PUSH2 0x3ADB JUMP JUMPDEST PUSH1 0x11 SLOAD PUSH2 0x100 SWAP1 DIV PUSH1 0xFF AND PUSH2 0x418 JUMP JUMPDEST PUSH2 0x3E1 PUSH2 0x22A4 JUMP JUMPDEST PUSH2 0x3F7 PUSH2 0x572 CALLDATASIZE PUSH1 0x4 PUSH2 0x3A88 JUMP JUMPDEST PUSH1 0x1 PUSH1 0x1 PUSH1 0xA0 SHL SUB AND PUSH0 SWAP1 DUP2 MSTORE PUSH1 0x20 DUP2 SWAP1 MSTORE PUSH1 0x40 SWAP1 KECCAK256 SLOAD SWAP1 JUMP JUMPDEST PUSH2 0x394 PUSH2 0x2330 JUMP JUMPDEST PUSH2 0x476 PUSH2 0x5A2 CALLDATASIZE PUSH1 0x4 PUSH2 0x3705 JUMP JUMPDEST PUSH2 0x2343 JUMP JUMPDEST PUSH2 0x394 PUSH2 0x236B JUMP JUMPDEST PUSH2 0x3F7 PUSH2 0x384 DUP2 JUMP JUMPDEST PUSH2 0x394 PUSH2 0x23A7 JUMP JUMPDEST PUSH1 0x11 SLOAD PUSH2 0x418 SWAP1 PUSH2 0x100 SWAP1 DIV PUSH1 0xFF AND DUP2 JUMP JUMPDEST PUSH1 0x5 SLOAD PUSH1 0x1 PUSH1 0x1 PUSH1 0xA0 SHL SUB AND PUSH2 0x476 JUMP JUMPDEST PUSH2 0x3F7 PUSH1 0x7 SLOAD DUP2 JUMP JUMPDEST PUSH2 0x3E1 PUSH2 0x24C6 JUMP JUMPDEST PUSH2 0x418 PUSH2 0x602 CALLDATASIZE PUSH1 0x4 PUSH2 0x3A88 JUMP JUMPDEST PUSH1 0x8 PUSH1 0x20 MSTORE PUSH0 SWAP1 DUP2 MSTORE PUSH1 0x40 SWAP1 KECCAK256 SLOAD PUSH1 0xFF AND DUP2 JUMP JUMPDEST PUSH2 0x418 PUSH2 0x624 CALLDATASIZE PUSH1 0x4 PUSH2 0x3A88 JUMP JUMPDEST PUSH1 0xC PUSH1 0x20 MSTORE PUSH0 SWAP1 DUP2 MSTORE PUSH1 0x40 SWAP1 KECCAK256 SLOAD PUSH1 0xFF AND DUP2 JUMP JUMPDEST PUSH2 0x418 PUSH2 0x646 CALLDATASIZE PUSH1 0x4 PUSH2 0x390E JUMP JUMPDEST PUSH2 0x24D5 JUMP JUMPDEST ADDRESS PUSH2 0x476 JUMP JUMPDEST PUSH2 0x3F7 PUSH1 0x13 SLOAD DUP2 JUMP JUMPDEST PUSH1 0x11 SLOAD PUSH2 0x418 SWAP1 PUSH1 0xFF AND DUP2 JUMP JUMPDEST PUSH2 0x3F7 PUSH1 0x64 DUP2 JUMP JUMPDEST PUSH2 0x3F7 PUSH2 0x25D1 JUMP JUMPDEST PUSH2 0x394 PUSH2 0x25F4 JUMP JUMPDEST PUSH2 0x394 PUSH2 0x68D CALLDATASIZE PUSH1 0x4 PUSH2 0x38CA JUMP JUMPDEST PUSH2 0x2657 JUMP JUMPDEST PUSH2 0x418 PUSH2 0x6A0 CALLDATASIZE PUSH1 0x4 PUSH2 0x3A88 JUMP JUMPDEST PUSH1 0x9 PUSH1 0x20 MSTORE PUSH0 SWAP1 DUP2 MSTORE PUSH1 0x40 SWAP1 KECCAK256 SLOAD PUSH1 0xFF AND DUP2 JUMP JUMPDEST PUSH2 0x3F7 PUSH2 0x273A JUMP JUMPDEST PUSH2 0x3F7 PUSH2 0x6CA CALLDATASIZE PUSH1 0x4 PUSH2 0x3B1D JUMP JUMPDEST PUSH1 0x1 PUSH1 0x1 PUSH1 0xA0 SHL SUB SWAP2 DUP3 AND PUSH0 SWAP1 DUP2 MSTORE PUSH1 0x1 PUSH1 0x20 SWAP1 DUP2 MSTORE PUSH1 0x40 DUP1 DUP4 KECCAK256 SWAP4 SWAP1 SWAP5 AND DUP3 MSTORE SWAP2 SWAP1 SWAP2 MSTORE KECCAK256 SLOAD SWAP1 JUMP JUMPDEST PUSH2 0x394 PUSH2 0x702 CALLDATASIZE PUSH1 0x4 PUSH2 0x3705 JUMP JUMPDEST PUSH2 0x274B JUMP JUMPDEST PUSH2 0x418 PUSH2 0x715 CALLDATASIZE PUSH1 0x4 PUSH2 0x3B45 JUMP JUMPDEST PUSH2 0x2969 JUMP JUMPDEST PUSH2 0x418 PUSH2 0x728 CALLDATASIZE PUSH1 0x4 PUSH2 0x3A88 JUMP JUMPDEST PUSH1 0x1 PUSH1 0x1 PUSH1 0xA0 SHL SUB AND PUSH0 SWAP1 DUP2 MSTORE PUSH1 0x9 PUSH1 0x20 MSTORE PUSH1 0x40 SWAP1 KECCAK256 SLOAD PUSH1 0xFF AND SWAP1 JUMP JUMPDEST PUSH1 0x14 SLOAD PUSH2 0x418 SWAP1 PUSH1 0xFF AND DUP2 JUMP JUMPDEST PUSH2 0x394 PUSH2 0x760 CALLDATASIZE PUSH1 0x4 PUSH2 0x3A88 JUMP JUMPDEST PUSH2 0x2DA6 JUMP JUMPDEST PUSH2 0x3F7 PUSH1 0x2 DUP2 JUMP JUMPDEST PUSH2 0x394 PUSH2 0x2DE0 JUMP JUMPDEST PUSH1 0x14 SLOAD PUSH1 0xFF AND PUSH2 0x418 JUMP JUMPDEST PUSH2 0x3F7 PUSH1 0x1 DUP2 JUMP JUMPDEST PUSH1 0x11 SLOAD PUSH2 0x100 SWAP1 DIV PUSH1 0xFF AND ISZERO PUSH2 0x7B9 JUMPI PUSH1 0x40 MLOAD PUSH3 0x461BCD PUSH1 0xE5 SHL DUP2 MSTORE PUSH1 0x4 ADD PUSH2 0x7B0 SWAP1 PUSH2 0x3B9D JUMP JUMPDEST PUSH1 0x40 MLOAD DUP1 SWAP2 SUB SWAP1 REVERT JUMPDEST CALLER PUSH0 SWAP1 DUP2 MSTORE PUSH1 0xC PUSH1 0x20 MSTORE PUSH1 0x40 SWAP1 KECCAK256 SLOAD PUSH1 0xFF AND PUSH2 0x7E7 JUMPI PUSH1 0x40 MLOAD PUSH3 0x461BCD PUSH1 0xE5 SHL DUP2 MSTORE PUSH1 0x4 ADD PUSH2 0x7B0 SWAP1 PUSH2 0x3BC6 JUMP JUMPDEST PUSH0 DUP2 DUP2 MSTORE PUSH1 0xF PUSH1 0x20 MSTORE PUSH1 0x40 SWAP1 KECCAK256 PUSH1 0x8 DUP2 ADD SLOAD PUSH1 0xFF AND PUSH2 0x818 JUMPI PUSH1 0x40 MLOAD PUSH3 0x461BCD PUSH1 0xE5 SHL DUP2 MSTORE PUSH1 0x4 ADD PUSH2 0x7B0 SWAP1 PUSH2 0x3BEB JUMP JUMPDEST PUSH0 DUP3 DUP2 MSTORE PUSH1 0xD PUSH1 0x20 SWAP1 DUP2 MSTORE PUSH1 0x40 DUP1 DUP4 KECCAK256 CALLER DUP5 MSTORE SWAP1 SWAP2 MSTORE SWAP1 KECCAK256 SLOAD PUSH1 0xFF AND ISZERO PUSH2 0x871 JUMPI PUSH1 0x40 MLOAD PUSH3 0x461BCD PUSH1 0xE5 SHL DUP2 MSTORE PUSH1 0x20 PUSH1 0x4 DUP3 ADD MSTORE PUSH1 0xD PUSH1 0x24 DUP3 ADD MSTORE PUSH13 0x105B1C9958591E481D9BDD1959 PUSH1 0x9A SHL PUSH1 0x44 DUP3 ADD MSTORE PUSH1 0x64 ADD PUSH2 0x7B0 JUMP JUMPDEST PUSH1 0x11 SLOAD PUSH1 0xFF AND ISZERO PUSH2 0x8B4 JUMPI PUSH1 0x40 MLOAD PUSH3 0x461BCD PUSH1 0xE5 SHL DUP2 MSTORE PUSH1 0x20 PUSH1 0x4 DUP3 ADD MSTORE PUSH1 0xD PUSH1 0x24 DUP3 ADD MSTORE PUSH13 0x159BDD1A5B99C81C185D5CD959 PUSH1 0x9A SHL PUSH1 0x44 DUP3 ADD MSTORE PUSH1 0x64 ADD PUSH2 0x7B0 JUMP JUMPDEST PUSH0 DUP3 DUP2 MSTORE PUSH1 0xD PUSH1 0x20 SWAP1 DUP2 MSTORE PUSH1 0x40 DUP1 DUP4 KECCAK256 CALLER DUP5 MSTORE SWAP1 SWAP2 MSTORE DUP2 KECCAK256 DUP1 SLOAD PUSH1 0xFF NOT AND PUSH1 0x1 SWAP1 DUP2 OR SWAP1 SWAP2 SSTORE DUP3 ADD DUP1 SLOAD SWAP2 PUSH2 0x8E8 DUP4 PUSH2 0x3C2C JUMP JUMPDEST SWAP1 SWAP2 SSTORE POP PUSH0 SWAP1 POP PUSH1 0x7 DUP3 SLOAD PUSH1 0xFF AND PUSH1 0x8 DUP2 GT ISZERO PUSH2 0x907 JUMPI PUSH2 0x907 PUSH2 0x371C JUMP JUMPDEST EQ DUP1 PUSH2 0x928 JUMPI POP PUSH1 0x8 DUP3 SLOAD PUSH1 0xFF AND PUSH1 0x8 DUP2 GT ISZERO PUSH2 0x926 JUMPI PUSH2 0x926 PUSH2 0x371C JUMP JUMPDEST EQ JUMPDEST PUSH2 0x97A JUMPI PUSH1 0x3 DUP3 SLOAD PUSH1 0xFF AND PUSH1 0x8 DUP2 GT ISZERO PUSH2 0x944 JUMPI PUSH2 0x944 PUSH2 0x371C JUMP JUMPDEST LT ISZERO DUP1 ISZERO PUSH2 0x968 JUMPI POP PUSH1 0x6 DUP3 SLOAD PUSH1 0xFF AND PUSH1 0x8 DUP2 GT ISZERO PUSH2 0x965 JUMPI PUSH2 0x965 PUSH2 0x371C JUMP JUMPDEST GT ISZERO JUMPDEST PUSH2 0x973 JUMPI PUSH1 0x5 PUSH2 0x97D JUMP JUMPDEST PUSH1 0x3 PUSH2 0x97D JUMP JUMPDEST PUSH1 0x2 JUMPDEST SWAP1 POP DUP1 DUP3 PUSH1 0x1 ADD SLOAD GT ISZERO PUSH2 0x9C4 JUMPI PUSH1 0x40 MLOAD PUSH3 0x461BCD PUSH1 0xE5 SHL DUP2 MSTORE PUSH1 0x20 PUSH1 0x4 DUP3 ADD MSTORE PUSH1 0xE PUSH1 0x24 DUP3 ADD MSTORE PUSH14 0x546F6F206D616E7920766F746573 PUSH1 0x90 SHL PUSH1 0x44 DUP3 ADD MSTORE PUSH1 0x64 ADD PUSH2 0x7B0 JUMP JUMPDEST PUSH1 0x40 MLOAD CALLER SWAP1 DUP5 SWAP1 PUSH32 0xF1003B73C437642C0460AEE9CD9628B0B8C447B66E6C7C905531B9C644214A11 SWAP1 PUSH0 SWAP1 LOG3 POP POP POP JUMP JUMPDEST PUSH1 0xF PUSH1 0x20 MSTORE PUSH0 SWAP1 DUP2 MSTORE PUSH1 0x40 SWAP1 KECCAK256 DUP1 SLOAD PUSH1 0x1 DUP3 ADD SLOAD PUSH1 0x2 DUP4 ADD SLOAD PUSH1 0x3 DUP5 ADD SLOAD PUSH1 0x4 DUP6 ADD SLOAD PUSH1 0x5 DUP7 ADD DUP1 SLOAD PUSH1 0xFF DUP8 AND SWAP8 PUSH2 0x100 SWAP1 SWAP8 DIV PUSH1 0x1 PUSH1 0x1 PUSH1 0xA0 SHL SUB SWAP1 DUP2 AND SWAP8 SWAP5 AND SWAP4 SWAP2 SWAP1 PUSH2 0xA43 SWAP1 PUSH2 0x3C44 JUMP JUMPDEST DUP1 PUSH1 0x1F ADD PUSH1 0x20 DUP1 SWAP2 DIV MUL PUSH1 0x20 ADD PUSH1 0x40 MLOAD SWAP1 DUP2 ADD PUSH1 0x40 MSTORE DUP1 SWAP3 SWAP2 SWAP1 DUP2 DUP2 MSTORE PUSH1 0x20 ADD DUP3 DUP1 SLOAD PUSH2 0xA6F SWAP1 PUSH2 0x3C44 JUMP JUMPDEST DUP1 ISZERO PUSH2 0xABA JUMPI DUP1 PUSH1 0x1F LT PUSH2 0xA91 JUMPI PUSH2 0x100 DUP1 DUP4 SLOAD DIV MUL DUP4 MSTORE SWAP2 PUSH1 0x20 ADD SWAP2 PUSH2 0xABA JUMP JUMPDEST DUP3 ADD SWAP2 SWAP1 PUSH0 MSTORE PUSH1 0x20 PUSH0 KECCAK256 SWAP1 JUMPDEST DUP2 SLOAD DUP2 MSTORE SWAP1 PUSH1 0x1 ADD SWAP1 PUSH1 0x20 ADD DUP1 DUP4 GT PUSH2 0xA9D JUMPI DUP3 SWAP1 SUB PUSH1 0x1F AND DUP3 ADD SWAP2 JUMPDEST POP POP POP PUSH1 0x8 SWAP1 SWAP4 ADD SLOAD SWAP2 SWAP3 POP POP PUSH1 0xFF AND DUP9 JUMP JUMPDEST PUSH2 0xAD5 PUSH2 0x2E1F JUMP JUMPDEST PUSH1 0x11 SLOAD PUSH2 0x100 SWAP1 DIV PUSH1 0xFF AND ISZERO PUSH2 0xAFD JUMPI PUSH1 0x40 MLOAD PUSH3 0x461BCD PUSH1 0xE5 SHL DUP2 MSTORE PUSH1 0x4 ADD PUSH2 0x7B0 SWAP1 PUSH2 0x3B9D JUMP JUMPDEST CALLER PUSH0 SWAP1 DUP2 MSTORE PUSH1 0xC PUSH1 0x20 MSTORE PUSH1 0x40 SWAP1 KECCAK256 SLOAD PUSH1 0xFF AND PUSH2 0xB2B JUMPI PUSH1 0x40 MLOAD PUSH3 0x461BCD PUSH1 0xE5 SHL DUP2 MSTORE PUSH1 0x4 ADD PUSH2 0x7B0 SWAP1 PUSH2 0x3BC6 JUMP JUMPDEST PUSH2 0xB36 DUP2 PUSH1 0x64 PUSH2 0x2E78 JUMP JUMPDEST DUP1 PUSH1 0x40 MLOAD PUSH2 0xB44 SWAP2 SWAP1 PUSH2 0x3C7C JUMP JUMPDEST PUSH1 0x40 DUP1 MLOAD SWAP2 DUP3 SWAP1 SUB DUP3 KECCAK256 PUSH1 0x64 DUP4 MSTORE PUSH0 PUSH1 0x20 DUP5 ADD MSTORE SWAP2 PUSH32 0xC2AEAD9CF0EE95E5F48D316DB6ADCF05801AEC50B3029BF8AFCD0C2FAF73B12D SWAP2 ADD JUMPDEST PUSH1 0x40 MLOAD DUP1 SWAP2 SUB SWAP1 LOG2 PUSH2 0xB8F PUSH1 0x1 PUSH1 0x6 SSTORE JUMP JUMPDEST POP JUMP JUMPDEST PUSH1 0x60 PUSH1 0x3 DUP1 SLOAD PUSH2 0xBA1 SWAP1 PUSH2 0x3C44 JUMP JUMPDEST DUP1 PUSH1 0x1F ADD PUSH1 0x20 DUP1 SWAP2 DIV MUL PUSH1 0x20 ADD PUSH1 0x40 MLOAD SWAP1 DUP2 ADD PUSH1 0x40 MSTORE DUP1 SWAP3 SWAP2 SWAP1 DUP2 DUP2 MSTORE PUSH1 0x20 ADD DUP3 DUP1 SLOAD PUSH2 0xBCD SWAP1 PUSH2 0x3C44 JUMP JUMPDEST DUP1 ISZERO PUSH2 0xC18 JUMPI DUP1 PUSH1 0x1F LT PUSH2 0xBEF JUMPI PUSH2 0x100 DUP1 DUP4 SLOAD DIV MUL DUP4 MSTORE SWAP2 PUSH1 0x20 ADD SWAP2 PUSH2 0xC18 JUMP JUMPDEST DUP3 ADD SWAP2 SWAP1 PUSH0 MSTORE PUSH1 0x20 PUSH0 KECCAK256 SWAP1 JUMPDEST DUP2 SLOAD DUP2 MSTORE SWAP1 PUSH1 0x1 ADD SWAP1 PUSH1 0x20 ADD DUP1 DUP4 GT PUSH2 0xBFB JUMPI DUP3 SWAP1 SUB PUSH1 0x1F AND DUP3 ADD SWAP2 JUMPDEST POP POP POP POP POP SWAP1 POP SWAP1 JUMP JUMPDEST PUSH0 CALLER PUSH2 0xC2F DUP2 DUP6 DUP6 PUSH2 0x3032 JUMP JUMPDEST PUSH1 0x1 SWAP2 POP POP JUMPDEST SWAP3 SWAP2 POP POP JUMP JUMPDEST PUSH1 0x11 SLOAD PUSH2 0x100 SWAP1 DIV PUSH1 0xFF AND ISZERO PUSH2 0xC63 JUMPI PUSH1 0x40 MLOAD PUSH3 0x461BCD PUSH1 0xE5 SHL DUP2 MSTORE PUSH1 0x4 ADD PUSH2 0x7B0 SWAP1 PUSH2 0x3B9D JUMP JUMPDEST CALLER PUSH0 SWAP1 DUP2 MSTORE PUSH1 0xC PUSH1 0x20 MSTORE PUSH1 0x40 SWAP1 KECCAK256 SLOAD PUSH1 0xFF AND PUSH2 0xC91 JUMPI PUSH1 0x40 MLOAD PUSH3 0x461BCD PUSH1 0xE5 SHL DUP2 MSTORE PUSH1 0x4 ADD PUSH2 0x7B0 SWAP1 PUSH2 0x3BC6 JUMP JUMPDEST PUSH0 DUP7 PUSH1 0x8 DUP2 GT ISZERO PUSH2 0xCA4 JUMPI PUSH2 0xCA4 PUSH2 0x371C JUMP JUMPDEST SUB PUSH2 0xCF5 JUMPI PUSH0 DUP4 MLOAD GT PUSH2 0xCF0 JUMPI PUSH1 0x40 MLOAD PUSH3 0x461BCD PUSH1 0xE5 SHL DUP2 MSTORE PUSH1 0x20 PUSH1 0x4 DUP3 ADD MSTORE PUSH1 0x14 PUSH1 0x24 DUP3 ADD MSTORE PUSH20 0x4E616D652063616E6E6F7420626520656D707479 PUSH1 0x60 SHL PUSH1 0x44 DUP3 ADD MSTORE PUSH1 0x64 ADD PUSH2 0x7B0 JUMP JUMPDEST PUSH2 0x1439 JUMP JUMPDEST PUSH1 0x1 DUP7 PUSH1 0x8 DUP2 GT ISZERO PUSH2 0xD09 JUMPI PUSH2 0xD09 PUSH2 0x371C JUMP JUMPDEST SUB PUSH2 0xE07 JUMPI DUP4 PUSH0 SUB PUSH2 0xD54 JUMPI PUSH1 0x40 MLOAD PUSH3 0x461BCD PUSH1 0xE5 SHL DUP2 MSTORE PUSH1 0x20 PUSH1 0x4 DUP3 ADD MSTORE PUSH1 0x14 PUSH1 0x24 DUP3 ADD MSTORE PUSH20 0x56616C75652063616E6E6F74206265207A65726F PUSH1 0x60 SHL PUSH1 0x44 DUP3 ADD MSTORE PUSH1 0x64 ADD PUSH2 0x7B0 JUMP JUMPDEST PUSH1 0xA SLOAD DUP5 PUSH1 0x7 SLOAD PUSH2 0xD65 SWAP2 SWAP1 PUSH2 0x3CBA JUMP JUMPDEST SLT ISZERO PUSH2 0xDAA JUMPI PUSH1 0x40 MLOAD PUSH3 0x461BCD PUSH1 0xE5 SHL DUP2 MSTORE PUSH1 0x20 PUSH1 0x4 DUP3 ADD MSTORE PUSH1 0x14 PUSH1 0x24 DUP3 ADD MSTORE PUSH20 0x496E76616C696420746F74616C20737570706C79 PUSH1 0x60 SHL PUSH1 0x44 DUP3 ADD MSTORE PUSH1 0x64 ADD PUSH2 0x7B0 JUMP JUMPDEST PUSH0 DUP5 PUSH1 0x7 SLOAD PUSH2 0xDB9 SWAP2 SWAP1 PUSH2 0x3CBA JUMP JUMPDEST SLT ISZERO PUSH2 0xCF0 JUMPI PUSH1 0x40 MLOAD PUSH3 0x461BCD PUSH1 0xE5 SHL DUP2 MSTORE PUSH1 0x20 PUSH1 0x4 DUP3 ADD MSTORE PUSH1 0x1F PUSH1 0x24 DUP3 ADD MSTORE PUSH32 0x546F74616C20737570706C792063616E6E6F74206265206E6567617469766500 PUSH1 0x44 DUP3 ADD MSTORE PUSH1 0x64 ADD PUSH2 0x7B0 JUMP JUMPDEST PUSH1 0x2 DUP7 PUSH1 0x8 DUP2 GT ISZERO PUSH2 0xE1B JUMPI PUSH2 0xE1B PUSH2 0x371C JUMP JUMPDEST SUB PUSH2 0x1067 JUMPI DUP1 MLOAD DUP3 MLOAD EQ DUP1 ISZERO PUSH2 0xE31 JUMPI POP PUSH0 DUP3 MLOAD GT JUMPDEST PUSH2 0xE73 JUMPI PUSH1 0x40 MLOAD PUSH3 0x461BCD PUSH1 0xE5 SHL DUP2 MSTORE PUSH1 0x20 PUSH1 0x4 DUP3 ADD MSTORE PUSH1 0x13 PUSH1 0x24 DUP3 ADD MSTORE PUSH19 0x125B9D985B1A59081D9BDD195C9CC81B1A5CDD PUSH1 0x6A SHL PUSH1 0x44 DUP3 ADD MSTORE PUSH1 0x64 ADD PUSH2 0x7B0 JUMP JUMPDEST PUSH0 JUMPDEST DUP3 MLOAD DUP2 LT ISZERO PUSH2 0x1061 JUMPI PUSH1 0xC PUSH0 DUP5 DUP4 DUP2 MLOAD DUP2 LT PUSH2 0xE93 JUMPI PUSH2 0xE93 PUSH2 0x3CE1 JUMP JUMPDEST PUSH1 0x20 SWAP1 DUP2 MUL SWAP2 SWAP1 SWAP2 ADD DUP2 ADD MLOAD PUSH1 0x1 PUSH1 0x1 PUSH1 0xA0 SHL SUB AND DUP3 MSTORE DUP2 ADD SWAP2 SWAP1 SWAP2 MSTORE PUSH1 0x40 ADD PUSH0 KECCAK256 SLOAD PUSH1 0xFF AND PUSH2 0xEFB JUMPI PUSH1 0x40 MLOAD PUSH3 0x461BCD PUSH1 0xE5 SHL DUP2 MSTORE PUSH1 0x20 PUSH1 0x4 DUP3 ADD MSTORE PUSH1 0x13 PUSH1 0x24 DUP3 ADD MSTORE PUSH19 0x13DB19081D9BDD195C881B9BDD08199BDD5B99 PUSH1 0x6A SHL PUSH1 0x44 DUP3 ADD MSTORE PUSH1 0x64 ADD PUSH2 0x7B0 JUMP JUMPDEST PUSH0 PUSH1 0x1 PUSH1 0x1 PUSH1 0xA0 SHL SUB AND DUP3 DUP3 DUP2 MLOAD DUP2 LT PUSH2 0xF17 JUMPI PUSH2 0xF17 PUSH2 0x3CE1 JUMP JUMPDEST PUSH1 0x20 MUL PUSH1 0x20 ADD ADD MLOAD PUSH1 0x1 PUSH1 0x1 PUSH1 0xA0 SHL SUB AND EQ ISZERO DUP1 ISZERO PUSH2 0xF6E JUMPI POP PUSH1 0xC PUSH0 DUP4 DUP4 DUP2 MLOAD DUP2 LT PUSH2 0xF46 JUMPI PUSH2 0xF46 PUSH2 0x3CE1 JUMP JUMPDEST PUSH1 0x20 SWAP1 DUP2 MUL SWAP2 SWAP1 SWAP2 ADD DUP2 ADD MLOAD PUSH1 0x1 PUSH1 0x1 PUSH1 0xA0 SHL SUB AND DUP3 MSTORE DUP2 ADD SWAP2 SWAP1 SWAP2 MSTORE PUSH1 0x40 ADD PUSH0 KECCAK256 SLOAD PUSH1 0xFF AND ISZERO JUMPDEST PUSH2 0xFAE JUMPI PUSH1 0x40 MLOAD PUSH3 0x461BCD PUSH1 0xE5 SHL DUP2 MSTORE PUSH1 0x20 PUSH1 0x4 DUP3 ADD MSTORE PUSH1 0x11 PUSH1 0x24 DUP3 ADD MSTORE PUSH17 0x24B73B30B634B2103732BB903B37BA32B9 PUSH1 0x79 SHL PUSH1 0x44 DUP3 ADD MSTORE PUSH1 0x64 ADD PUSH2 0x7B0 JUMP JUMPDEST PUSH0 PUSH2 0xFBA DUP3 PUSH1 0x1 PUSH2 0x3CF5 JUMP JUMPDEST SWAP1 POP JUMPDEST DUP3 MLOAD DUP2 LT ISZERO PUSH2 0x1058 JUMPI DUP3 DUP2 DUP2 MLOAD DUP2 LT PUSH2 0xFD8 JUMPI PUSH2 0xFD8 PUSH2 0x3CE1 JUMP JUMPDEST PUSH1 0x20 MUL PUSH1 0x20 ADD ADD MLOAD PUSH1 0x1 PUSH1 0x1 PUSH1 0xA0 SHL SUB AND DUP4 DUP4 DUP2 MLOAD DUP2 LT PUSH2 0xFFB JUMPI PUSH2 0xFFB PUSH2 0x3CE1 JUMP JUMPDEST PUSH1 0x20 MUL PUSH1 0x20 ADD ADD MLOAD PUSH1 0x1 PUSH1 0x1 PUSH1 0xA0 SHL SUB AND SUB PUSH2 0x1050 JUMPI PUSH1 0x40 MLOAD PUSH3 0x461BCD PUSH1 0xE5 SHL DUP2 MSTORE PUSH1 0x20 PUSH1 0x4 DUP3 ADD MSTORE PUSH1 0x14 PUSH1 0x24 DUP3 ADD MSTORE PUSH20 0x4475706C6963617465206E657720766F74657273 PUSH1 0x60 SHL PUSH1 0x44 DUP3 ADD MSTORE PUSH1 0x64 ADD PUSH2 0x7B0 JUMP JUMPDEST PUSH1 0x1 ADD PUSH2 0xFBD JUMP JUMPDEST POP PUSH1 0x1 ADD PUSH2 0xE75 JUMP JUMPDEST POP PUSH2 0x1439 JUMP JUMPDEST PUSH1 0x3 DUP7 PUSH1 0x8 DUP2 GT ISZERO PUSH2 0x107B JUMPI PUSH2 0x107B PUSH2 0x371C JUMP JUMPDEST SUB PUSH2 0x10FC JUMPI PUSH1 0x1 PUSH1 0x1 PUSH1 0xA0 SHL SUB DUP6 AND ISZERO DUP1 ISZERO SWAP1 PUSH2 0x10B0 JUMPI POP PUSH1 0x1 PUSH1 0x1 PUSH1 0xA0 SHL SUB DUP6 AND PUSH0 SWAP1 DUP2 MSTORE PUSH1 0x8 PUSH1 0x20 MSTORE PUSH1 0x40 SWAP1 KECCAK256 SLOAD PUSH1 0xFF AND ISZERO JUMPDEST PUSH2 0xCF0 JUMPI PUSH1 0x40 MLOAD PUSH3 0x461BCD PUSH1 0xE5 SHL DUP2 MSTORE PUSH1 0x20 PUSH1 0x4 DUP3 ADD MSTORE PUSH1 0x1E PUSH1 0x24 DUP3 ADD MSTORE PUSH32 0x496E76616C6964206F7220616C72656164792077686974656C69737465640000 PUSH1 0x44 DUP3 ADD MSTORE PUSH1 0x64 ADD PUSH2 0x7B0 JUMP JUMPDEST PUSH1 0x4 DUP7 PUSH1 0x8 DUP2 GT ISZERO PUSH2 0x1110 JUMPI PUSH2 0x1110 PUSH2 0x371C JUMP JUMPDEST SUB PUSH2 0x1175 JUMPI PUSH1 0x1 PUSH1 0x1 PUSH1 0xA0 SHL SUB DUP6 AND PUSH0 SWAP1 DUP2 MSTORE PUSH1 0x8 PUSH1 0x20 MSTORE PUSH1 0x40 SWAP1 KECCAK256 SLOAD PUSH1 0xFF AND PUSH2 0xCF0 JUMPI PUSH1 0x40 MLOAD PUSH3 0x461BCD PUSH1 0xE5 SHL DUP2 MSTORE PUSH1 0x20 PUSH1 0x4 DUP3 ADD MSTORE PUSH1 0x16 PUSH1 0x24 DUP3 ADD MSTORE PUSH22 0x15185C99D95D081B9BDD081DDA1A5D195B1A5CDD1959 PUSH1 0x52 SHL PUSH1 0x44 DUP3 ADD MSTORE PUSH1 0x64 ADD PUSH2 0x7B0 JUMP JUMPDEST PUSH1 0x5 DUP7 PUSH1 0x8 DUP2 GT ISZERO PUSH2 0x1189 JUMPI PUSH2 0x1189 PUSH2 0x371C JUMP JUMPDEST SUB PUSH2 0x120A JUMPI PUSH1 0x1 PUSH1 0x1 PUSH1 0xA0 SHL SUB DUP6 AND ISZERO DUP1 ISZERO SWAP1 PUSH2 0x11BE JUMPI POP PUSH1 0x1 PUSH1 0x1 PUSH1 0xA0 SHL SUB DUP6 AND PUSH0 SWAP1 DUP2 MSTORE PUSH1 0x9 PUSH1 0x20 MSTORE PUSH1 0x40 SWAP1 KECCAK256 SLOAD PUSH1 0xFF AND ISZERO JUMPDEST PUSH2 0xCF0 JUMPI PUSH1 0x40 MLOAD PUSH3 0x461BCD PUSH1 0xE5 SHL DUP2 MSTORE PUSH1 0x20 PUSH1 0x4 DUP3 ADD MSTORE PUSH1 0x19 PUSH1 0x24 DUP3 ADD MSTORE PUSH32 0x496E76616C6964206F7220616C72656164792066726F7A656E00000000000000 PUSH1 0x44 DUP3 ADD MSTORE PUSH1 0x64 ADD PUSH2 0x7B0 JUMP JUMPDEST PUSH1 0x6 DUP7 PUSH1 0x8 DUP2 GT ISZERO PUSH2 0x121E JUMPI PUSH2 0x121E PUSH2 0x371C JUMP JUMPDEST SUB PUSH2 0x127E JUMPI PUSH1 0x1 PUSH1 0x1 PUSH1 0xA0 SHL SUB DUP6 AND PUSH0 SWAP1 DUP2 MSTORE PUSH1 0x9 PUSH1 0x20 MSTORE PUSH1 0x40 SWAP1 KECCAK256 SLOAD PUSH1 0xFF AND PUSH2 0xCF0 JUMPI PUSH1 0x40 MLOAD PUSH3 0x461BCD PUSH1 0xE5 SHL DUP2 MSTORE PUSH1 0x20 PUSH1 0x4 DUP3 ADD MSTORE PUSH1 0x11 PUSH1 0x24 DUP3 ADD MSTORE PUSH17 0x2A30B933B2BA103737BA10333937BD32B7 PUSH1 0x79 SHL PUSH1 0x44 DUP3 ADD MSTORE PUSH1 0x64 ADD PUSH2 0x7B0 JUMP JUMPDEST PUSH1 0x7 DUP7 PUSH1 0x8 DUP2 GT ISZERO PUSH2 0x1292 JUMPI PUSH2 0x1292 PUSH2 0x371C JUMP JUMPDEST SUB PUSH2 0x1372 JUMPI PUSH1 0x1 PUSH1 0x1 PUSH1 0xA0 SHL SUB DUP6 AND PUSH0 SWAP1 DUP2 MSTORE PUSH1 0x8 PUSH1 0x20 MSTORE PUSH1 0x40 SWAP1 KECCAK256 SLOAD PUSH1 0xFF AND DUP1 ISZERO PUSH2 0x12C6 JUMPI POP PUSH1 0x1 PUSH1 0x1 PUSH1 0xA0 SHL SUB DUP6 AND ISZERO ISZERO JUMPDEST PUSH2 0x1312 JUMPI PUSH1 0x40 MLOAD PUSH3 0x461BCD PUSH1 0xE5 SHL DUP2 MSTORE PUSH1 0x20 PUSH1 0x4 DUP3 ADD MSTORE PUSH1 0x1A PUSH1 0x24 DUP3 ADD MSTORE PUSH32 0x496E76616C6964206F72206E6F742077686974656C6973746564000000000000 PUSH1 0x44 DUP3 ADD MSTORE PUSH1 0x64 ADD PUSH2 0x7B0 JUMP JUMPDEST PUSH0 DUP5 GT DUP1 ISZERO PUSH2 0x1330 JUMPI POP PUSH1 0x7 SLOAD DUP5 PUSH1 0xA SLOAD PUSH2 0x132D SWAP2 SWAP1 PUSH2 0x3CF5 JUMP JUMPDEST GT ISZERO JUMPDEST PUSH2 0xCF0 JUMPI PUSH1 0x40 MLOAD PUSH3 0x461BCD PUSH1 0xE5 SHL DUP2 MSTORE PUSH1 0x20 PUSH1 0x4 DUP3 ADD MSTORE PUSH1 0x13 PUSH1 0x24 DUP3 ADD MSTORE PUSH19 0x125B9D985B1A59081B5A5B9D08185B5BDD5B9D PUSH1 0x6A SHL PUSH1 0x44 DUP3 ADD MSTORE PUSH1 0x64 ADD PUSH2 0x7B0 JUMP JUMPDEST PUSH1 0x8 DUP7 PUSH1 0x8 DUP2 GT ISZERO PUSH2 0x1386 JUMPI PUSH2 0x1386 PUSH2 0x371C JUMP JUMPDEST SUB PUSH2 0x1439 JUMPI PUSH1 0x1 DUP5 GT ISZERO PUSH2 0x13CC JUMPI PUSH1 0x40 MLOAD PUSH3 0x461BCD PUSH1 0xE5 SHL DUP2 MSTORE PUSH1 0x20 PUSH1 0x4 DUP3 ADD MSTORE PUSH1 0xD PUSH1 0x24 DUP3 ADD MSTORE PUSH13 0x496E76616C69642076616C7565 PUSH1 0x98 SHL PUSH1 0x44 DUP3 ADD MSTORE PUSH1 0x64 ADD PUSH2 0x7B0 JUMP JUMPDEST PUSH1 0x1 PUSH1 0x1 PUSH1 0xA0 SHL SUB DUP6 AND ISZERO DUP1 ISZERO PUSH2 0x13E2 JUMPI POP DUP3 MLOAD ISZERO JUMPDEST DUP1 ISZERO PUSH2 0x13ED JUMPI POP DUP2 MLOAD ISZERO JUMPDEST DUP1 ISZERO PUSH2 0x13F8 JUMPI POP DUP1 MLOAD ISZERO JUMPDEST PUSH2 0x1439 JUMPI PUSH1 0x40 MLOAD PUSH3 0x461BCD PUSH1 0xE5 SHL DUP2 MSTORE PUSH1 0x20 PUSH1 0x4 DUP3 ADD MSTORE PUSH1 0x12 PUSH1 0x24 DUP3 ADD MSTORE PUSH18 0x496E76616C696420706172616D6574657273 PUSH1 0x70 SHL PUSH1 0x44 DUP3 ADD MSTORE PUSH1 0x64 ADD PUSH2 0x7B0 JUMP JUMPDEST PUSH1 0x40 MLOAD DUP1 PUSH2 0x140 ADD PUSH1 0x40 MSTORE DUP1 DUP8 PUSH1 0x8 DUP2 GT ISZERO PUSH2 0x1457 JUMPI PUSH2 0x1457 PUSH2 0x371C JUMP JUMPDEST DUP2 MSTORE CALLER PUSH1 0x20 DUP3 ADD MSTORE PUSH0 PUSH1 0x40 DUP3 ADD MSTORE PUSH1 0x60 ADD PUSH1 0x2 DUP9 PUSH1 0x8 DUP2 GT ISZERO PUSH2 0x147C JUMPI PUSH2 0x147C PUSH2 0x371C JUMP JUMPDEST GT ISZERO PUSH2 0x1488 JUMPI TIMESTAMP PUSH2 0x1495 JUMP JUMPDEST PUSH2 0x1495 TIMESTAMP PUSH3 0x2A300 PUSH2 0x3CF5 JUMP JUMPDEST DUP2 MSTORE PUSH1 0x20 ADD DUP7 PUSH1 0x1 PUSH1 0x1 PUSH1 0xA0 SHL SUB AND DUP2 MSTORE PUSH1 0x20 ADD DUP6 DUP2 MSTORE PUSH1 0x20 ADD DUP5 DUP2 MSTORE PUSH1 0x20 ADD DUP4 DUP2 MSTORE PUSH1 0x20 ADD DUP3 DUP2 MSTORE PUSH1 0x20 ADD PUSH1 0x1 ISZERO ISZERO DUP2 MSTORE POP PUSH1 0xF PUSH0 PUSH1 0x10 SLOAD DUP2 MSTORE PUSH1 0x20 ADD SWAP1 DUP2 MSTORE PUSH1 0x20 ADD PUSH0 KECCAK256 PUSH0 DUP3 ADD MLOAD DUP2 PUSH0 ADD PUSH0 PUSH2 0x100 EXP DUP2 SLOAD DUP2 PUSH1 0xFF MUL NOT AND SWAP1 DUP4 PUSH1 0x8 DUP2 GT ISZERO PUSH2 0x1502 JUMPI PUSH2 0x1502 PUSH2 0x371C JUMP JUMPDEST MUL OR SWAP1 SSTORE POP PUSH1 0x20 DUP3 ADD MLOAD DUP2 SLOAD PUSH2 0x100 PUSH1 0x1 PUSH1 0xA8 SHL SUB NOT AND PUSH2 0x100 PUSH1 0x1 PUSH1 0x1 PUSH1 0xA0 SHL SUB SWAP3 DUP4 AND MUL OR DUP3 SSTORE PUSH1 0x40 DUP4 ADD MLOAD PUSH1 0x1 DUP4 ADD SSTORE PUSH1 0x60 DUP4 ADD MLOAD PUSH1 0x2 DUP4 ADD SSTORE PUSH1 0x80 DUP4 ADD MLOAD PUSH1 0x3 DUP4 ADD DUP1 SLOAD PUSH1 0x1 PUSH1 0x1 PUSH1 0xA0 SHL SUB NOT AND SWAP2 SWAP1 SWAP3 AND OR SWAP1 SSTORE PUSH1 0xA0 DUP3 ADD MLOAD PUSH1 0x4 DUP3 ADD SSTORE PUSH1 0xC0 DUP3 ADD MLOAD PUSH1 0x5 DUP3 ADD SWAP1 PUSH2 0x1579 SWAP1 DUP3 PUSH2 0x3D53 JUMP JUMPDEST POP PUSH1 0xE0 DUP3 ADD MLOAD DUP1 MLOAD PUSH2 0x1595 SWAP2 PUSH1 0x6 DUP5 ADD SWAP2 PUSH1 0x20 SWAP1 SWAP2 ADD SWAP1 PUSH2 0x3640 JUMP JUMPDEST POP PUSH2 0x100 DUP3 ADD MLOAD DUP1 MLOAD PUSH2 0x15B2 SWAP2 PUSH1 0x7 DUP5 ADD SWAP2 PUSH1 0x20 SWAP1 SWAP2 ADD SWAP1 PUSH2 0x3640 JUMP JUMPDEST POP PUSH2 0x120 SWAP2 SWAP1 SWAP2 ADD MLOAD PUSH1 0x8 SWAP1 SWAP2 ADD DUP1 SLOAD PUSH1 0xFF NOT AND SWAP2 ISZERO ISZERO SWAP2 SWAP1 SWAP2 OR SWAP1 SSTORE PUSH1 0x10 SLOAD PUSH1 0x40 MLOAD PUSH32 0x3263432A41F78A4701CC9465F62411ED717ADE32290C084135A3DD6B29F4BF28 SWAP1 PUSH2 0x1604 SWAP1 DUP10 SWAP1 CALLER SWAP1 PUSH2 0x3E0E JUMP JUMPDEST PUSH1 0x40 MLOAD DUP1 SWAP2 SUB SWAP1 LOG2 PUSH1 0x10 DUP1 SLOAD SWAP1 PUSH0 PUSH2 0x161B DUP4 PUSH2 0x3C2C JUMP JUMPDEST SWAP2 SWAP1 POP SSTORE POP POP POP POP POP POP POP JUMP JUMPDEST PUSH1 0x11 SLOAD PUSH2 0x100 SWAP1 DIV PUSH1 0xFF AND ISZERO PUSH2 0x1650 JUMPI PUSH1 0x40 MLOAD PUSH3 0x461BCD PUSH1 0xE5 SHL DUP2 MSTORE PUSH1 0x4 ADD PUSH2 0x7B0 SWAP1 PUSH2 0x3B9D JUMP JUMPDEST PUSH0 DUP2 DUP2 MSTORE PUSH1 0xF PUSH1 0x20 MSTORE PUSH1 0x40 SWAP1 KECCAK256 PUSH2 0x1666 DUP2 PUSH2 0x3044 JUMP JUMPDEST POP PUSH0 DUP2 SLOAD PUSH1 0xFF AND PUSH1 0x8 DUP2 GT ISZERO PUSH2 0x167E JUMPI PUSH2 0x167E PUSH2 0x371C JUMP JUMPDEST SUB PUSH2 0x1755 JUMPI PUSH2 0x1716 DUP2 PUSH1 0x5 ADD DUP1 SLOAD PUSH2 0x1695 SWAP1 PUSH2 0x3C44 JUMP JUMPDEST DUP1 PUSH1 0x1F ADD PUSH1 0x20 DUP1 SWAP2 DIV MUL PUSH1 0x20 ADD PUSH1 0x40 MLOAD SWAP1 DUP2 ADD PUSH1 0x40 MSTORE DUP1 SWAP3 SWAP2 SWAP1 DUP2 DUP2 MSTORE PUSH1 0x20 ADD DUP3 DUP1 SLOAD PUSH2 0x16C1 SWAP1 PUSH2 0x3C44 JUMP JUMPDEST DUP1 ISZERO PUSH2 0x170C JUMPI DUP1 PUSH1 0x1F LT PUSH2 0x16E3 JUMPI PUSH2 0x100 DUP1 DUP4 SLOAD DIV MUL DUP4 MSTORE SWAP2 PUSH1 0x20 ADD SWAP2 PUSH2 0x170C JUMP JUMPDEST DUP3 ADD SWAP2 SWAP1 PUSH0 MSTORE PUSH1 0x20 PUSH0 KECCAK256 SWAP1 JUMPDEST DUP2 SLOAD DUP2 MSTORE SWAP1 PUSH1 0x1 ADD SWAP1 PUSH1 0x20 ADD DUP1 DUP4 GT PUSH2 0x16EF JUMPI DUP3 SWAP1 SUB PUSH1 0x1F AND DUP3 ADD SWAP2 JUMPDEST POP POP POP POP POP PUSH2 0x31CA JUMP JUMPDEST PUSH32 0x4737457377F528CC8AFD815F73ECB8B05DF80D047DBFFC41C17750A4033592BC DUP2 PUSH1 0x5 ADD PUSH1 0x40 MLOAD PUSH2 0x1748 SWAP2 SWAP1 PUSH2 0x3E34 JUMP JUMPDEST PUSH1 0x40 MLOAD DUP1 SWAP2 SUB SWAP1 LOG1 PUSH2 0x1D55 JUMP JUMPDEST PUSH1 0x1 DUP2 SLOAD PUSH1 0xFF AND PUSH1 0x8 DUP2 GT ISZERO PUSH2 0x176D JUMPI PUSH2 0x176D PUSH2 0x371C JUMP JUMPDEST SUB PUSH2 0x17B9 JUMPI DUP1 PUSH1 0x4 ADD SLOAD PUSH1 0x7 SLOAD PUSH2 0x1784 SWAP2 SWAP1 PUSH2 0x3CBA JUMP JUMPDEST PUSH1 0x7 DUP2 SWAP1 SSTORE PUSH1 0x40 MLOAD SWAP1 DUP2 MSTORE PUSH32 0xACD0677FAD7BE9CCAF6C91EBAACA5C9C91622AC0508242D2F8FECA61A0DA249 SWAP1 PUSH1 0x20 ADD PUSH2 0x1748 JUMP JUMPDEST PUSH1 0x2 DUP2 SLOAD PUSH1 0xFF AND PUSH1 0x8 DUP2 GT ISZERO PUSH2 0x17D1 JUMPI PUSH2 0x17D1 PUSH2 0x371C JUMP JUMPDEST SUB PUSH2 0x1A13 JUMPI PUSH0 PUSH1 0xE DUP1 SLOAD DUP1 PUSH1 0x20 MUL PUSH1 0x20 ADD PUSH1 0x40 MLOAD SWAP1 DUP2 ADD PUSH1 0x40 MSTORE DUP1 SWAP3 SWAP2 SWAP1 DUP2 DUP2 MSTORE PUSH1 0x20 ADD DUP3 DUP1 SLOAD DUP1 ISZERO PUSH2 0x182B JUMPI PUSH1 0x20 MUL DUP3 ADD SWAP2 SWAP1 PUSH0 MSTORE PUSH1 0x20 PUSH0 KECCAK256 SWAP1 JUMPDEST DUP2 SLOAD PUSH1 0x1 PUSH1 0x1 PUSH1 0xA0 SHL SUB AND DUP2 MSTORE PUSH1 0x1 SWAP1 SWAP2 ADD SWAP1 PUSH1 0x20 ADD DUP1 DUP4 GT PUSH2 0x180D JUMPI JUMPDEST POP SWAP4 SWAP5 POP PUSH0 SWAP4 POP POP POP POP JUMPDEST PUSH1 0x6 DUP4 ADD SLOAD DUP2 LT ISZERO PUSH2 0x19B9 JUMPI PUSH0 PUSH1 0xC PUSH0 DUP6 PUSH1 0x6 ADD DUP5 DUP2 SLOAD DUP2 LT PUSH2 0x185B JUMPI PUSH2 0x185B PUSH2 0x3CE1 JUMP JUMPDEST PUSH0 SWAP2 DUP3 MSTORE PUSH1 0x20 DUP1 DUP4 KECCAK256 SWAP2 SWAP1 SWAP2 ADD SLOAD PUSH1 0x1 PUSH1 0x1 PUSH1 0xA0 SHL SUB AND DUP4 MSTORE DUP3 ADD SWAP3 SWAP1 SWAP3 MSTORE PUSH1 0x40 ADD DUP2 KECCAK256 DUP1 SLOAD PUSH1 0xFF NOT AND SWAP3 ISZERO ISZERO SWAP3 SWAP1 SWAP3 OR SWAP1 SWAP2 SSTORE PUSH1 0x7 DUP5 ADD DUP1 SLOAD PUSH1 0x1 SWAP3 PUSH1 0xC SWAP3 SWAP1 SWAP2 DUP6 SWAP1 DUP2 LT PUSH2 0x18AD JUMPI PUSH2 0x18AD PUSH2 0x3CE1 JUMP JUMPDEST PUSH0 SWAP2 DUP3 MSTORE PUSH1 0x20 DUP1 DUP4 KECCAK256 SWAP2 SWAP1 SWAP2 ADD SLOAD PUSH1 0x1 PUSH1 0x1 PUSH1 0xA0 SHL SUB AND DUP4 MSTORE DUP3 ADD SWAP3 SWAP1 SWAP3 MSTORE PUSH1 0x40 ADD DUP2 KECCAK256 DUP1 SLOAD PUSH1 0xFF NOT AND SWAP3 ISZERO ISZERO SWAP3 SWAP1 SWAP3 OR SWAP1 SWAP2 SSTORE JUMPDEST DUP3 MLOAD DUP2 LT ISZERO PUSH2 0x19B0 JUMPI DUP4 PUSH1 0x6 ADD DUP3 DUP2 SLOAD DUP2 LT PUSH2 0x1900 JUMPI PUSH2 0x1900 PUSH2 0x3CE1 JUMP JUMPDEST PUSH0 SWAP2 DUP3 MSTORE PUSH1 0x20 SWAP1 SWAP2 KECCAK256 ADD SLOAD DUP4 MLOAD PUSH1 0x1 PUSH1 0x1 PUSH1 0xA0 SHL SUB SWAP1 SWAP2 AND SWAP1 DUP5 SWAP1 DUP4 SWAP1 DUP2 LT PUSH2 0x192B JUMPI PUSH2 0x192B PUSH2 0x3CE1 JUMP JUMPDEST PUSH1 0x20 MUL PUSH1 0x20 ADD ADD MLOAD PUSH1 0x1 PUSH1 0x1 PUSH1 0xA0 SHL SUB AND SUB PUSH2 0x19A8 JUMPI DUP4 PUSH1 0x7 ADD DUP3 DUP2 SLOAD DUP2 LT PUSH2 0x1956 JUMPI PUSH2 0x1956 PUSH2 0x3CE1 JUMP JUMPDEST SWAP1 PUSH0 MSTORE PUSH1 0x20 PUSH0 KECCAK256 ADD PUSH0 SWAP1 SLOAD SWAP1 PUSH2 0x100 EXP SWAP1 DIV PUSH1 0x1 PUSH1 0x1 PUSH1 0xA0 SHL SUB AND DUP4 DUP3 DUP2 MLOAD DUP2 LT PUSH2 0x1983 JUMPI PUSH2 0x1983 PUSH2 0x3CE1 JUMP JUMPDEST PUSH1 0x20 MUL PUSH1 0x20 ADD ADD SWAP1 PUSH1 0x1 PUSH1 0x1 PUSH1 0xA0 SHL SUB AND SWAP1 DUP2 PUSH1 0x1 PUSH1 0x1 PUSH1 0xA0 SHL SUB AND DUP2 MSTORE POP POP PUSH2 0x19B0 JUMP JUMPDEST PUSH1 0x1 ADD PUSH2 0x18E2 JUMP JUMPDEST POP PUSH1 0x1 ADD PUSH2 0x1836 JUMP JUMPDEST POP DUP1 MLOAD PUSH2 0x19CD SWAP1 PUSH1 0xE SWAP1 PUSH1 0x20 DUP5 ADD SWAP1 PUSH2 0x3640 JUMP JUMPDEST POP PUSH32 0x765616CA75E38E63DCC130430614A01FA91BFE57744073B30BF8F4BA8FA31FFC DUP3 PUSH1 0x6 ADD DUP4 PUSH1 0x7 ADD PUSH1 0x40 MLOAD PUSH2 0x1A05 SWAP3 SWAP2 SWAP1 PUSH2 0x3F00 JUMP JUMPDEST PUSH1 0x40 MLOAD DUP1 SWAP2 SUB SWAP1 LOG1 POP PUSH2 0x1D55 JUMP JUMPDEST PUSH1 0x3 DUP2 SLOAD PUSH1 0xFF AND PUSH1 0x8 DUP2 GT ISZERO PUSH2 0x1A2B JUMPI PUSH2 0x1A2B PUSH2 0x371C JUMP JUMPDEST SUB PUSH2 0x1AB1 JUMPI PUSH1 0x3 DUP2 ADD DUP1 SLOAD PUSH1 0x1 PUSH1 0x1 PUSH1 0xA0 SHL SUB SWAP1 DUP2 AND PUSH0 SWAP1 DUP2 MSTORE PUSH1 0x8 PUSH1 0x20 MSTORE PUSH1 0x40 SWAP1 DUP2 SWAP1 KECCAK256 DUP1 SLOAD PUSH1 0xFF NOT AND PUSH1 0x1 SWAP1 DUP2 OR SWAP1 SWAP2 SSTORE SWAP3 SLOAD SWAP1 MLOAD SWAP2 AND SWAP2 PUSH0 MLOAD PUSH1 0x20 PUSH2 0x40FB PUSH0 CODECOPY PUSH0 MLOAD SWAP1 PUSH0 MSTORE SWAP2 PUSH2 0x1AA4 SWAP2 SWAP1 PUSH1 0x40 DUP1 DUP3 MSTORE PUSH1 0x9 SWAP1 DUP3 ADD MSTORE PUSH9 0x15DA1A5D195B1A5CDD PUSH1 0xBA SHL PUSH1 0x60 DUP3 ADD MSTORE SWAP1 ISZERO ISZERO PUSH1 0x20 DUP3 ADD MSTORE PUSH1 0x80 ADD SWAP1 JUMP JUMPDEST PUSH1 0x40 MLOAD DUP1 SWAP2 SUB SWAP1 LOG2 PUSH2 0x1D55 JUMP JUMPDEST PUSH1 0x4 DUP2 SLOAD PUSH1 0xFF AND PUSH1 0x8 DUP2 GT ISZERO PUSH2 0x1AC9 JUMPI PUSH2 0x1AC9 PUSH2 0x371C JUMP JUMPDEST SUB PUSH2 0x1B39 JUMPI PUSH1 0x3 DUP2 ADD DUP1 SLOAD PUSH1 0x1 PUSH1 0x1 PUSH1 0xA0 SHL SUB SWAP1 DUP2 AND PUSH0 SWAP1 DUP2 MSTORE PUSH1 0x8 PUSH1 0x20 SWAP1 DUP2 MSTORE PUSH1 0x40 DUP1 DUP4 KECCAK256 DUP1 SLOAD PUSH1 0xFF NOT AND SWAP1 SSTORE SWAP4 SLOAD DUP5 MLOAD DUP6 DUP2 MSTORE PUSH1 0x9 SWAP6 DUP2 ADD SWAP6 SWAP1 SWAP6 MSTORE PUSH9 0x15DA1A5D195B1A5CDD PUSH1 0xBA SHL PUSH1 0x60 DUP7 ADD MSTORE SWAP1 DUP5 ADD SWAP2 SWAP1 SWAP2 MSTORE AND SWAP1 PUSH0 MLOAD PUSH1 0x20 PUSH2 0x40FB PUSH0 CODECOPY PUSH0 MLOAD SWAP1 PUSH0 MSTORE SWAP1 PUSH1 0x80 ADD PUSH2 0x1AA4 JUMP JUMPDEST PUSH1 0x5 DUP2 SLOAD PUSH1 0xFF AND PUSH1 0x8 DUP2 GT ISZERO PUSH2 0x1B51 JUMPI PUSH2 0x1B51 PUSH2 0x371C JUMP JUMPDEST SUB PUSH2 0x1BC7 JUMPI PUSH1 0x3 DUP2 ADD DUP1 SLOAD PUSH1 0x1 PUSH1 0x1 PUSH1 0xA0 SHL SUB SWAP1 DUP2 AND PUSH0 SWAP1 DUP2 MSTORE PUSH1 0x9 PUSH1 0x20 MSTORE PUSH1 0x40 SWAP1 DUP2 SWAP1 KECCAK256 DUP1 SLOAD PUSH1 0xFF NOT AND PUSH1 0x1 SWAP1 DUP2 OR SWAP1 SWAP2 SSTORE SWAP3 SLOAD SWAP1 MLOAD SWAP2 AND SWAP2 PUSH0 MLOAD PUSH1 0x20 PUSH2 0x40FB PUSH0 CODECOPY PUSH0 MLOAD SWAP1 PUSH0 MSTORE SWAP2 PUSH2 0x1AA4 SWAP2 SWAP1 PUSH1 0x40 DUP1 DUP3 MSTORE PUSH1 0x6 SWAP1 DUP3 ADD MSTORE PUSH6 0x467265657A65 PUSH1 0xD0 SHL PUSH1 0x60 DUP3 ADD MSTORE SWAP1 ISZERO ISZERO PUSH1 0x20 DUP3 ADD MSTORE PUSH1 0x80 ADD SWAP1 JUMP JUMPDEST PUSH1 0x6 DUP2 SLOAD PUSH1 0xFF AND PUSH1 0x8 DUP2 GT ISZERO PUSH2 0x1BDF JUMPI PUSH2 0x1BDF PUSH2 0x371C JUMP JUMPDEST SUB PUSH2 0x1C4C JUMPI PUSH1 0x3 DUP2 ADD DUP1 SLOAD PUSH1 0x1 PUSH1 0x1 PUSH1 0xA0 SHL SUB SWAP1 DUP2 AND PUSH0 SWAP1 DUP2 MSTORE PUSH1 0x9 PUSH1 0x20 SWAP1 DUP2 MSTORE PUSH1 0x40 DUP1 DUP4 KECCAK256 DUP1 SLOAD PUSH1 0xFF NOT AND SWAP1 SSTORE SWAP4 SLOAD DUP5 MLOAD DUP6 DUP2 MSTORE PUSH1 0x6 SWAP6 DUP2 ADD SWAP6 SWAP1 SWAP6 MSTORE PUSH6 0x467265657A65 PUSH1 0xD0 SHL PUSH1 0x60 DUP7 ADD MSTORE SWAP1 DUP5 ADD SWAP2 SWAP1 SWAP2 MSTORE AND SWAP1 PUSH0 MLOAD PUSH1 0x20 PUSH2 0x40FB PUSH0 CODECOPY PUSH0 MLOAD SWAP1 PUSH0 MSTORE SWAP1 PUSH1 0x80 ADD PUSH2 0x1AA4 JUMP JUMPDEST PUSH1 0x7 DUP2 SLOAD PUSH1 0xFF AND PUSH1 0x8 DUP2 GT ISZERO PUSH2 0x1C64 JUMPI PUSH2 0x1C64 PUSH2 0x371C JUMP JUMPDEST SUB PUSH2 0x1CEB JUMPI PUSH1 0x3 DUP2 ADD SLOAD PUSH1 0x4 DUP3 ADD SLOAD PUSH2 0x1C86 SWAP2 PUSH1 0x1 PUSH1 0x1 PUSH1 0xA0 SHL SUB AND SWAP1 PUSH2 0x31D6 JUMP JUMPDEST DUP1 PUSH1 0x4 ADD SLOAD PUSH1 0xA PUSH0 DUP3 DUP3 SLOAD PUSH2 0x1C9B SWAP2 SWAP1 PUSH2 0x3CF5 JUMP JUMPDEST SWAP1 SWAP2 SSTORE POP POP PUSH1 0x3 DUP2 ADD SLOAD PUSH1 0x4 DUP3 ADD SLOAD PUSH1 0x40 DUP1 MLOAD PUSH1 0x1 PUSH1 0x1 PUSH1 0xA0 SHL SUB SWAP1 SWAP4 AND DUP4 MSTORE PUSH1 0x20 DUP4 ADD SWAP2 SWAP1 SWAP2 MSTORE PUSH32 0x570563F436DC733C61D3863FD95E547272964F69D7B5CFE7461360A7A5643E3C SWAP2 ADD PUSH2 0x1748 JUMP JUMPDEST PUSH1 0x8 DUP2 SLOAD PUSH1 0xFF AND PUSH1 0x8 DUP2 GT ISZERO PUSH2 0x1D03 JUMPI PUSH2 0x1D03 PUSH2 0x371C JUMP JUMPDEST SUB PUSH2 0x1D55 JUMPI PUSH1 0x4 DUP2 ADD DUP1 SLOAD PUSH1 0x14 DUP1 SLOAD PUSH1 0xFF NOT AND PUSH1 0x1 SWAP3 DUP4 EQ OR SWAP1 SSTORE SWAP1 SLOAD PUSH1 0x40 MLOAD SWAP2 EQ DUP2 MSTORE PUSH32 0xE593157A0729375978035779B91259998C9123840959CF2016517DE561AAE9F3 SWAP1 PUSH1 0x20 ADD PUSH1 0x40 MLOAD DUP1 SWAP2 SUB SWAP1 LOG1 JUMPDEST PUSH2 0x1D5E DUP3 PUSH2 0x320A JUMP JUMPDEST PUSH0 DUP3 DUP2 MSTORE PUSH1 0xF PUSH1 0x20 MSTORE PUSH1 0x40 DUP2 KECCAK256 DUP1 SLOAD PUSH1 0x1 PUSH1 0x1 PUSH1 0xA8 SHL SUB NOT AND DUP2 SSTORE PUSH1 0x1 DUP2 ADD DUP3 SWAP1 SSTORE PUSH1 0x2 DUP2 ADD DUP3 SWAP1 SSTORE PUSH1 0x3 DUP2 ADD DUP1 SLOAD PUSH1 0x1 PUSH1 0x1 PUSH1 0xA0 SHL SUB NOT AND SWAP1 SSTORE PUSH1 0x4 DUP2 ADD DUP3 SWAP1 SSTORE SWAP1 PUSH2 0x1DAE PUSH1 0x5 DUP4 ADD DUP3 PUSH2 0x36A3 JUMP JUMPDEST PUSH2 0x1DBB PUSH1 0x6 DUP4 ADD PUSH0 PUSH2 0x36DA JUMP JUMPDEST PUSH2 0x1DC8 PUSH1 0x7 DUP4 ADD PUSH0 PUSH2 0x36DA JUMP JUMPDEST POP PUSH1 0x8 ADD DUP1 SLOAD PUSH1 0xFF NOT AND SWAP1 SSTORE DUP1 SLOAD PUSH1 0x40 MLOAD DUP4 SWAP2 PUSH32 0x5B9614F21773D68C0B149BDA804FF3D491C8BC8795F7ED236CC97804CD005389 SWAP2 PUSH2 0x1E0A SWAP2 PUSH1 0xFF AND SWAP1 PUSH2 0x3F24 JUMP JUMPDEST PUSH1 0x40 MLOAD DUP1 SWAP2 SUB SWAP1 LOG2 POP POP JUMP JUMPDEST PUSH2 0x1E1E PUSH2 0x2E1F JUMP JUMPDEST PUSH1 0x11 SLOAD PUSH2 0x100 SWAP1 DIV PUSH1 0xFF AND ISZERO PUSH2 0x1E46 JUMPI PUSH1 0x40 MLOAD PUSH3 0x461BCD PUSH1 0xE5 SHL DUP2 MSTORE PUSH1 0x4 ADD PUSH2 0x7B0 SWAP1 PUSH2 0x3B9D JUMP JUMPDEST PUSH1 0x14 SLOAD PUSH1 0xFF AND ISZERO PUSH2 0x1EB1 JUMPI PUSH1 0x1 PUSH1 0x1 PUSH1 0xA0 SHL SUB DUP2 AND PUSH0 SWAP1 DUP2 MSTORE PUSH1 0x8 PUSH1 0x20 MSTORE PUSH1 0x40 SWAP1 KECCAK256 SLOAD PUSH1 0xFF AND PUSH2 0x1EB1 JUMPI PUSH1 0x40 MLOAD PUSH3 0x461BCD PUSH1 0xE5 SHL DUP2 MSTORE PUSH1 0x20 PUSH1 0x4 DUP3 ADD MSTORE PUSH1 0x16 PUSH1 0x24 DUP3 ADD MSTORE PUSH22 0x15185C99D95D081B9BDD081DDA1A5D195B1A5CDD1959 PUSH1 0x52 SHL PUSH1 0x44 DUP3 ADD MSTORE PUSH1 0x64 ADD PUSH2 0x7B0 JUMP JUMPDEST PUSH0 DUP3 GT PUSH2 0x1F0C JUMPI PUSH1 0x40 MLOAD PUSH3 0x461BCD PUSH1 0xE5 SHL DUP2 MSTORE PUSH1 0x20 PUSH1 0x4 DUP3 ADD MSTORE PUSH1 0x23 PUSH1 0x24 DUP3 ADD MSTORE PUSH32 0x496E70757420616D6F756E74206D757374206265206772656174657220746861 PUSH1 0x44 DUP3 ADD MSTORE PUSH3 0x6E203 PUSH1 0xEC SHL PUSH1 0x64 DUP3 ADD MSTORE PUSH1 0x84 ADD PUSH2 0x7B0 JUMP JUMPDEST PUSH0 PUSH2 0x1F18 PUSH1 0x14 DUP5 PUSH2 0x3F32 JUMP JUMPDEST SWAP1 POP PUSH0 DUP2 GT PUSH2 0x1F39 JUMPI PUSH1 0x40 MLOAD PUSH3 0x461BCD PUSH1 0xE5 SHL DUP2 MSTORE PUSH1 0x4 ADD PUSH2 0x7B0 SWAP1 PUSH2 0x3F49 JUMP JUMPDEST PUSH1 0x7 SLOAD DUP2 PUSH1 0xA SLOAD PUSH2 0x1F4A SWAP2 SWAP1 PUSH2 0x3CF5 JUMP JUMPDEST GT ISZERO PUSH2 0x1F68 JUMPI PUSH1 0x40 MLOAD PUSH3 0x461BCD PUSH1 0xE5 SHL DUP2 MSTORE PUSH1 0x4 ADD PUSH2 0x7B0 SWAP1 PUSH2 0x3F8A JUMP JUMPDEST PUSH2 0x1F72 DUP3 DUP3 PUSH2 0x31D6 JUMP JUMPDEST DUP1 PUSH1 0xA PUSH0 DUP3 DUP3 SLOAD PUSH2 0x1F83 SWAP2 SWAP1 PUSH2 0x3CF5 JUMP JUMPDEST SWAP1 SWAP2 SSTORE POP POP PUSH1 0x40 DUP1 MLOAD DUP5 DUP2 MSTORE PUSH1 0x20 DUP2 ADD DUP4 SWAP1 MSTORE PUSH1 0x1 PUSH1 0x1 PUSH1 0xA0 SHL SUB DUP5 AND SWAP2 CALLER SWAP2 PUSH32 0xBADB5A53E5A7F1F292F32F4CA0C78E80D05F213DB774602ACC6FACA5AECDF6D7 SWAP2 ADD PUSH1 0x40 MLOAD DUP1 SWAP2 SUB SWAP1 LOG3 POP PUSH2 0x1FD9 PUSH1 0x1 PUSH1 0x6 SSTORE JUMP JUMPDEST POP POP JUMP JUMPDEST PUSH1 0x1 PUSH1 0x1 PUSH1 0xA0 SHL SUB DUP2 AND PUSH0 SWAP1 DUP2 MSTORE PUSH1 0x20 DUP2 SWAP1 MSTORE PUSH1 0x40 DUP2 KECCAK256 SLOAD PUSH2 0xC35 JUMP JUMPDEST PUSH1 0x11 SLOAD PUSH0 SWAP1 PUSH2 0x100 SWAP1 DIV PUSH1 0xFF AND ISZERO PUSH2 0x2024 JUMPI PUSH1 0x40 MLOAD PUSH3 0x461BCD PUSH1 0xE5 SHL DUP2 MSTORE PUSH1 0x4 ADD PUSH2 0x7B0 SWAP1 PUSH2 0x3B9D JUMP JUMPDEST PUSH1 0x1 PUSH1 0x1 PUSH1 0xA0 SHL SUB DUP5 AND PUSH0 SWAP1 DUP2 MSTORE PUSH1 0x9 PUSH1 0x20 MSTORE PUSH1 0x40 SWAP1 KECCAK256 SLOAD PUSH1 0xFF AND ISZERO PUSH2 0x207C JUMPI PUSH1 0x40 MLOAD PUSH3 0x461BCD PUSH1 0xE5 SHL DUP2 MSTORE PUSH1 0x20 PUSH1 0x4 DUP3 ADD MSTORE PUSH1 0xD PUSH1 0x24 DUP3 ADD MSTORE PUSH13 0x29B2B73232B910333937BD32B7 PUSH1 0x99 SHL PUSH1 0x44 DUP3 ADD MSTORE PUSH1 0x64 ADD PUSH2 0x7B0 JUMP JUMPDEST DUP2 PUSH1 0x1 PUSH1 0x1 PUSH1 0x80 SHL SUB AND DUP3 EQ PUSH2 0x20C7 JUMPI PUSH1 0x40 MLOAD PUSH3 0x461BCD PUSH1 0xE5 SHL DUP2 MSTORE PUSH1 0x20 PUSH1 0x4 DUP3 ADD MSTORE PUSH1 0x10 PUSH1 0x24 DUP3 ADD MSTORE PUSH16 0x416D6F756E7420746F6F206C61726765 PUSH1 0x80 SHL PUSH1 0x44 DUP3 ADD MSTORE PUSH1 0x64 ADD PUSH2 0x7B0 JUMP JUMPDEST PUSH0 PUSH2 0x20D3 DUP6 DUP6 DUP6 PUSH2 0x32C6 JUMP JUMPDEST SWAP1 POP DUP1 DUP1 ISZERO PUSH2 0x20EA JUMPI POP PUSH1 0x1 PUSH1 0x1 PUSH1 0xA0 SHL SUB DUP5 AND ADDRESS EQ JUMPDEST ISZERO PUSH2 0x20F9 JUMPI PUSH2 0x20F9 DUP6 DUP5 PUSH2 0x31D6 JUMP JUMPDEST SWAP5 SWAP4 POP POP POP POP JUMP JUMPDEST CALLER PUSH0 SWAP1 DUP2 MSTORE PUSH1 0xC PUSH1 0x20 MSTORE PUSH1 0x40 SWAP1 KECCAK256 SLOAD PUSH1 0xFF AND PUSH2 0x212F JUMPI PUSH1 0x40 MLOAD PUSH3 0x461BCD PUSH1 0xE5 SHL DUP2 MSTORE PUSH1 0x4 ADD PUSH2 0x7B0 SWAP1 PUSH2 0x3BC6 JUMP JUMPDEST PUSH1 0x11 SLOAD PUSH2 0x100 SWAP1 DIV PUSH1 0xFF AND ISZERO PUSH2 0x2187 JUMPI PUSH1 0x40 MLOAD PUSH3 0x461BCD PUSH1 0xE5 SHL DUP2 MSTORE PUSH1 0x20 PUSH1 0x4 DUP3 ADD MSTORE PUSH1 0x17 PUSH1 0x24 DUP3 ADD MSTORE PUSH32 0x436F6E747261637420616C726561647920706175736564000000000000000000 PUSH1 0x44 DUP3 ADD MSTORE PUSH1 0x64 ADD PUSH2 0x7B0 JUMP JUMPDEST PUSH1 0x11 DUP1 SLOAD PUSH2 0xFF00 NOT AND PUSH2 0x100 OR SWAP1 SSTORE PUSH1 0x40 MLOAD PUSH32 0xAB35696F06E428EBC5CEBA8CD17F8FED287BAF43440206D1943AF1EE53E6D267 SWAP1 PUSH0 SWAP1 LOG1 JUMP JUMPDEST PUSH1 0x60 PUSH0 DUP1 JUMPDEST PUSH1 0x10 SLOAD DUP2 LT ISZERO PUSH2 0x21FE JUMPI PUSH0 DUP2 DUP2 MSTORE PUSH1 0xF PUSH1 0x20 MSTORE PUSH1 0x40 SWAP1 KECCAK256 PUSH1 0x8 ADD SLOAD PUSH1 0xFF AND ISZERO PUSH2 0x21F6 JUMPI DUP2 PUSH2 0x21F2 DUP2 PUSH2 0x3C2C JUMP JUMPDEST SWAP3 POP POP JUMPDEST PUSH1 0x1 ADD PUSH2 0x21C5 JUMP JUMPDEST POP DUP1 PUSH8 0xFFFFFFFFFFFFFFFF DUP2 GT ISZERO PUSH2 0x2218 JUMPI PUSH2 0x2218 PUSH2 0x37E3 JUMP JUMPDEST PUSH1 0x40 MLOAD SWAP1 DUP1 DUP3 MSTORE DUP1 PUSH1 0x20 MUL PUSH1 0x20 ADD DUP3 ADD PUSH1 0x40 MSTORE DUP1 ISZERO PUSH2 0x2241 JUMPI DUP2 PUSH1 0x20 ADD PUSH1 0x20 DUP3 MUL DUP1 CALLDATASIZE DUP4 CALLDATACOPY ADD SWAP1 POP JUMPDEST POP SWAP2 POP PUSH0 DUP1 JUMPDEST PUSH1 0x10 SLOAD DUP2 LT ISZERO PUSH2 0x229E JUMPI PUSH0 DUP2 DUP2 MSTORE PUSH1 0xF PUSH1 0x20 MSTORE PUSH1 0x40 SWAP1 KECCAK256 PUSH1 0x8 ADD SLOAD PUSH1 0xFF AND ISZERO PUSH2 0x2296 JUMPI DUP1 DUP5 DUP4 DUP2 MLOAD DUP2 LT PUSH2 0x227D JUMPI PUSH2 0x227D PUSH2 0x3CE1 JUMP JUMPDEST PUSH1 0x20 SWAP1 DUP2 MUL SWAP2 SWAP1 SWAP2 ADD ADD MSTORE DUP2 PUSH2 0x2292 DUP2 PUSH2 0x3C2C JUMP JUMPDEST SWAP3 POP POP JUMPDEST PUSH1 0x1 ADD PUSH2 0x2247 JUMP JUMPDEST POP POP POP SWAP1 JUMP JUMPDEST PUSH1 0xB DUP1 SLOAD PUSH2 0x22B1 SWAP1 PUSH2 0x3C44 JUMP JUMPDEST DUP1 PUSH1 0x1F ADD PUSH1 0x20 DUP1 SWAP2 DIV MUL PUSH1 0x20 ADD PUSH1 0x40 MLOAD SWAP1 DUP2 ADD PUSH1 0x40 MSTORE DUP1 SWAP3 SWAP2 SWAP1 DUP2 DUP2 MSTORE PUSH1 0x20 ADD DUP3 DUP1 SLOAD PUSH2 0x22DD SWAP1 PUSH2 0x3C44 JUMP JUMPDEST DUP1 ISZERO PUSH2 0x2328 JUMPI DUP1 PUSH1 0x1F LT PUSH2 0x22FF JUMPI PUSH2 0x100 DUP1 DUP4 SLOAD DIV MUL DUP4 MSTORE SWAP2 PUSH1 0x20 ADD SWAP2 PUSH2 0x2328 JUMP JUMPDEST DUP3 ADD SWAP2 SWAP1 PUSH0 MSTORE PUSH1 0x20 PUSH0 KECCAK256 SWAP1 JUMPDEST DUP2 SLOAD DUP2 MSTORE SWAP1 PUSH1 0x1 ADD SWAP1 PUSH1 0x20 ADD DUP1 DUP4 GT PUSH2 0x230B JUMPI DUP3 SWAP1 SUB PUSH1 0x1F AND DUP3 ADD SWAP2 JUMPDEST POP POP POP POP POP DUP2 JUMP JUMPDEST PUSH2 0x2338 PUSH2 0x32E9 JUMP JUMPDEST PUSH2 0x2341 PUSH0 PUSH2 0x3316 JUMP JUMPDEST JUMP JUMPDEST PUSH1 0xE DUP2 DUP2 SLOAD DUP2 LT PUSH2 0x2352 JUMPI PUSH0 DUP1 REVERT JUMPDEST PUSH0 SWAP2 DUP3 MSTORE PUSH1 0x20 SWAP1 SWAP2 KECCAK256 ADD SLOAD PUSH1 0x1 PUSH1 0x1 PUSH1 0xA0 SHL SUB AND SWAP1 POP DUP2 JUMP JUMPDEST PUSH2 0x2373 PUSH2 0x32E9 JUMP JUMPDEST PUSH1 0x11 DUP1 SLOAD PUSH1 0xFF NOT AND SWAP1 SSTORE PUSH1 0x40 MLOAD PUSH32 0x8F69EF9279BFB1FE5F4F75790947A23FA88774E98242B966BCAAF7D25E8B3C16 SWAP1 PUSH0 SWAP1 LOG1 JUMP JUMPDEST PUSH1 0x11 SLOAD PUSH2 0x100 SWAP1 DIV PUSH1 0xFF AND ISZERO PUSH2 0x23CF JUMPI PUSH1 0x40 MLOAD PUSH3 0x461BCD PUSH1 0xE5 SHL DUP2 MSTORE PUSH1 0x4 ADD PUSH2 0x7B0 SWAP1 PUSH2 0x3B9D JUMP JUMPDEST CALLER PUSH0 SWAP1 DUP2 MSTORE PUSH1 0xC PUSH1 0x20 MSTORE PUSH1 0x40 SWAP1 KECCAK256 SLOAD PUSH1 0xFF AND PUSH2 0x23FD JUMPI PUSH1 0x40 MLOAD PUSH3 0x461BCD PUSH1 0xE5 SHL DUP2 MSTORE PUSH1 0x4 ADD PUSH2 0x7B0 SWAP1 PUSH2 0x3BC6 JUMP JUMPDEST PUSH2 0x12C PUSH1 0x12 SLOAD PUSH2 0x240D SWAP2 SWAP1 PUSH2 0x3CF5 JUMP JUMPDEST TIMESTAMP LT ISZERO PUSH2 0x245C JUMPI PUSH1 0x40 MLOAD PUSH3 0x461BCD PUSH1 0xE5 SHL DUP2 MSTORE PUSH1 0x20 PUSH1 0x4 DUP3 ADD MSTORE PUSH1 0x19 PUSH1 0x24 DUP3 ADD MSTORE PUSH32 0x546F6F20736F6F6E20666F7220646973747269627574696F6E00000000000000 PUSH1 0x44 DUP3 ADD MSTORE PUSH1 0x64 ADD PUSH2 0x7B0 JUMP JUMPDEST PUSH1 0x7 SLOAD PUSH1 0x1 PUSH1 0xA SLOAD PUSH2 0x246E SWAP2 SWAP1 PUSH2 0x3CF5 JUMP JUMPDEST GT ISZERO PUSH2 0x248C JUMPI PUSH1 0x40 MLOAD PUSH3 0x461BCD PUSH1 0xE5 SHL DUP2 MSTORE PUSH1 0x4 ADD PUSH2 0x7B0 SWAP1 PUSH2 0x3F8A JUMP JUMPDEST TIMESTAMP PUSH1 0x12 SSTORE PUSH1 0x40 MLOAD PUSH1 0x1 DUP2 MSTORE PUSH32 0x90596CA0CB29EF99CD530E572920440D7D040408F92C28E46836FE9E048F59D8 SWAP1 PUSH1 0x20 ADD PUSH1 0x40 MLOAD DUP1 SWAP2 SUB SWAP1 LOG1 JUMP JUMPDEST PUSH1 0x60 PUSH1 0x4 DUP1 SLOAD PUSH2 0xBA1 SWAP1 PUSH2 0x3C44 JUMP JUMPDEST PUSH1 0x11 SLOAD PUSH0 SWAP1 PUSH2 0x100 SWAP1 DIV PUSH1 0xFF AND ISZERO PUSH2 0x24FF JUMPI PUSH1 0x40 MLOAD PUSH3 0x461BCD PUSH1 0xE5 SHL DUP2 MSTORE PUSH1 0x4 ADD PUSH2 0x7B0 SWAP1 PUSH2 0x3B9D JUMP JUMPDEST CALLER PUSH0 SWAP1 DUP2 MSTORE PUSH1 0x9 PUSH1 0x20 MSTORE PUSH1 0x40 SWAP1 KECCAK256 SLOAD PUSH1 0xFF AND ISZERO PUSH2 0x254E JUMPI PUSH1 0x40 MLOAD PUSH3 0x461BCD PUSH1 0xE5 SHL DUP2 MSTORE PUSH1 0x20 PUSH1 0x4 DUP3 ADD MSTORE PUSH1 0xD PUSH1 0x24 DUP3 ADD MSTORE PUSH13 0x29B2B73232B910333937BD32B7 PUSH1 0x99 SHL PUSH1 0x44 DUP3 ADD MSTORE PUSH1 0x64 ADD PUSH2 0x7B0 JUMP JUMPDEST DUP2 PUSH1 0x1 PUSH1 0x1 PUSH1 0x80 SHL SUB AND DUP3 EQ PUSH2 0x2599 JUMPI PUSH1 0x40 MLOAD PUSH3 0x461BCD PUSH1 0xE5 SHL DUP2 MSTORE PUSH1 0x20 PUSH1 0x4 DUP3 ADD MSTORE PUSH1 0x10 PUSH1 0x24 DUP3 ADD MSTORE PUSH16 0x416D6F756E7420746F6F206C61726765 PUSH1 0x80 SHL PUSH1 0x44 DUP3 ADD MSTORE PUSH1 0x64 ADD PUSH2 0x7B0 JUMP JUMPDEST PUSH0 PUSH2 0x25A4 DUP5 DUP5 PUSH2 0x3367 JUMP JUMPDEST SWAP1 POP DUP1 DUP1 ISZERO PUSH2 0x25BB JUMPI POP PUSH1 0x1 PUSH1 0x1 PUSH1 0xA0 SHL SUB DUP5 AND ADDRESS EQ JUMPDEST ISZERO PUSH2 0x25CA JUMPI PUSH2 0x25CA CALLER DUP5 PUSH2 0x31D6 JUMP JUMPDEST SWAP4 SWAP3 POP POP POP JUMP JUMPDEST PUSH0 PUSH0 PUSH1 0x10 SLOAD GT PUSH2 0x25E0 JUMPI POP PUSH0 SWAP1 JUMP JUMPDEST PUSH1 0x1 PUSH1 0x10 SLOAD PUSH2 0x25EF SWAP2 SWAP1 PUSH2 0x3FB8 JUMP JUMPDEST SWAP1 POP SWAP1 JUMP JUMPDEST CALLER PUSH0 SWAP1 DUP2 MSTORE PUSH1 0xC PUSH1 0x20 MSTORE PUSH1 0x40 SWAP1 KECCAK256 SLOAD PUSH1 0xFF AND PUSH2 0x2622 JUMPI PUSH1 0x40 MLOAD PUSH3 0x461BCD PUSH1 0xE5 SHL DUP2 MSTORE PUSH1 0x4 ADD PUSH2 0x7B0 SWAP1 PUSH2 0x3BC6 JUMP JUMPDEST PUSH1 0x11 DUP1 SLOAD PUSH2 0xFF00 NOT AND SWAP1 SSTORE PUSH1 0x40 MLOAD PUSH32 0xAB5F6DACF93A267A93A533DE8A56370DE8341BBD8102017307E7BE375C3DDA6A SWAP1 PUSH0 SWAP1 LOG1 JUMP JUMPDEST PUSH2 0x265F PUSH2 0x2E1F JUMP JUMPDEST PUSH1 0x11 SLOAD PUSH2 0x100 SWAP1 DIV PUSH1 0xFF AND ISZERO PUSH2 0x2687 JUMPI PUSH1 0x40 MLOAD PUSH3 0x461BCD PUSH1 0xE5 SHL DUP2 MSTORE PUSH1 0x4 ADD PUSH2 0x7B0 SWAP1 PUSH2 0x3B9D JUMP JUMPDEST PUSH2 0x384 PUSH1 0x13 SLOAD PUSH2 0x2697 SWAP2 SWAP1 PUSH2 0x3CF5 JUMP JUMPDEST TIMESTAMP LT ISZERO PUSH2 0x26DF JUMPI PUSH1 0x40 MLOAD PUSH3 0x461BCD PUSH1 0xE5 SHL DUP2 MSTORE PUSH1 0x20 PUSH1 0x4 DUP3 ADD MSTORE PUSH1 0x16 PUSH1 0x24 DUP3 ADD MSTORE PUSH22 0x151BDBC81CDBDBDB88199BDC88185D5D1BC81B5A5B9D PUSH1 0x52 SHL PUSH1 0x44 DUP3 ADD MSTORE PUSH1 0x64 ADD PUSH2 0x7B0 JUMP JUMPDEST PUSH2 0x26EA DUP2 PUSH1 0x64 PUSH2 0x2E78 JUMP JUMPDEST TIMESTAMP PUSH1 0x13 SSTORE PUSH1 0x40 MLOAD PUSH2 0x26FC SWAP1 DUP3 SWAP1 PUSH2 0x3C7C JUMP JUMPDEST PUSH1 0x40 DUP1 MLOAD SWAP2 DUP3 SWAP1 SUB DUP3 KECCAK256 PUSH1 0x64 DUP4 MSTORE PUSH1 0x1 PUSH1 0x20 DUP5 ADD MSTORE SWAP2 PUSH32 0xC2AEAD9CF0EE95E5F48D316DB6ADCF05801AEC50B3029BF8AFCD0C2FAF73B12D SWAP2 ADD PUSH2 0xB7D JUMP JUMPDEST PUSH0 PUSH1 0xA SLOAD PUSH1 0x7 SLOAD PUSH2 0x25EF SWAP2 SWAP1 PUSH2 0x3FB8 JUMP JUMPDEST PUSH1 0x11 SLOAD PUSH2 0x100 SWAP1 DIV PUSH1 0xFF AND ISZERO PUSH2 0x2773 JUMPI PUSH1 0x40 MLOAD PUSH3 0x461BCD PUSH1 0xE5 SHL DUP2 MSTORE PUSH1 0x4 ADD PUSH2 0x7B0 SWAP1 PUSH2 0x3B9D JUMP JUMPDEST PUSH0 DUP2 DUP2 MSTORE PUSH1 0xF PUSH1 0x20 MSTORE PUSH1 0x40 SWAP1 KECCAK256 PUSH1 0x8 DUP2 ADD SLOAD PUSH1 0xFF AND PUSH2 0x27A4 JUMPI PUSH1 0x40 MLOAD PUSH3 0x461BCD PUSH1 0xE5 SHL DUP2 MSTORE PUSH1 0x4 ADD PUSH2 0x7B0 SWAP1 PUSH2 0x3BEB JUMP JUMPDEST DUP1 SLOAD PUSH2 0x100 SWAP1 DIV PUSH1 0x1 PUSH1 0x1 PUSH1 0xA0 SHL SUB AND CALLER EQ PUSH2 0x27F2 JUMPI PUSH1 0x40 MLOAD PUSH3 0x461BCD PUSH1 0xE5 SHL DUP2 MSTORE PUSH1 0x20 PUSH1 0x4 DUP3 ADD MSTORE PUSH1 0xD PUSH1 0x24 DUP3 ADD MSTORE PUSH13 0x2737BA1034B734BA34B0BA37B9 PUSH1 0x99 SHL PUSH1 0x44 DUP3 ADD MSTORE PUSH1 0x64 ADD PUSH2 0x7B0 JUMP JUMPDEST PUSH1 0x2 DUP2 SLOAD PUSH1 0xFF AND PUSH1 0x8 DUP2 GT ISZERO PUSH2 0x280A JUMPI PUSH2 0x280A PUSH2 0x371C JUMP JUMPDEST GT ISZERO PUSH2 0x2858 JUMPI PUSH1 0x40 MLOAD PUSH3 0x461BCD PUSH1 0xE5 SHL DUP2 MSTORE PUSH1 0x20 PUSH1 0x4 DUP3 ADD DUP2 SWAP1 MSTORE PUSH1 0x24 DUP3 ADD MSTORE PUSH32 0x43616E6E6F742063616E63656C20746869732070726F706F73616C2074797065 PUSH1 0x44 DUP3 ADD MSTORE PUSH1 0x64 ADD PUSH2 0x7B0 JUMP JUMPDEST DUP1 PUSH1 0x2 ADD SLOAD TIMESTAMP LT PUSH2 0x28A3 JUMPI PUSH1 0x40 MLOAD PUSH3 0x461BCD PUSH1 0xE5 SHL DUP2 MSTORE PUSH1 0x20 PUSH1 0x4 DUP3 ADD MSTORE PUSH1 0x15 PUSH1 0x24 DUP3 ADD MSTORE PUSH21 0x141C9BDC1BDCD85B081D1A5B5948195E1C1A5C9959 PUSH1 0x5A SHL PUSH1 0x44 DUP3 ADD MSTORE PUSH1 0x64 ADD PUSH2 0x7B0 JUMP JUMPDEST PUSH2 0x28AC DUP3 PUSH2 0x320A JUMP JUMPDEST DUP1 SLOAD PUSH0 DUP4 DUP2 MSTORE PUSH1 0xF PUSH1 0x20 MSTORE PUSH1 0x40 DUP2 KECCAK256 DUP1 SLOAD PUSH1 0x1 PUSH1 0x1 PUSH1 0xA8 SHL SUB NOT AND DUP2 SSTORE PUSH1 0x1 DUP2 ADD DUP3 SWAP1 SSTORE PUSH1 0x2 DUP2 ADD DUP3 SWAP1 SSTORE PUSH1 0x3 DUP2 ADD DUP1 SLOAD PUSH1 0x1 PUSH1 0x1 PUSH1 0xA0 SHL SUB NOT AND SWAP1 SSTORE PUSH1 0x4 DUP2 ADD DUP3 SWAP1 SSTORE PUSH1 0xFF SWAP1 SWAP3 AND SWAP2 SWAP1 PUSH2 0x2904 PUSH1 0x5 DUP4 ADD DUP3 PUSH2 0x36A3 JUMP JUMPDEST PUSH2 0x2911 PUSH1 0x6 DUP4 ADD PUSH0 PUSH2 0x36DA JUMP JUMPDEST PUSH2 0x291E PUSH1 0x7 DUP4 ADD PUSH0 PUSH2 0x36DA JUMP JUMPDEST POP PUSH1 0x8 ADD DUP1 SLOAD PUSH1 0xFF NOT AND SWAP1 SSTORE PUSH1 0x40 MLOAD DUP4 SWAP1 PUSH32 0x89616A339342F36E4DCECC713F695BCBFE35FEA112C4C652DA7E1656BD486CE8 SWAP1 PUSH2 0x295C SWAP1 DUP5 SWAP1 PUSH2 0x3F24 JUMP JUMPDEST PUSH1 0x40 MLOAD DUP1 SWAP2 SUB SWAP1 LOG2 POP POP POP JUMP JUMPDEST PUSH0 PUSH2 0x2972 PUSH2 0x2E1F JUMP JUMPDEST PUSH1 0x11 SLOAD PUSH2 0x100 SWAP1 DIV PUSH1 0xFF AND ISZERO PUSH2 0x299A JUMPI PUSH1 0x40 MLOAD PUSH3 0x461BCD PUSH1 0xE5 SHL DUP2 MSTORE PUSH1 0x4 ADD PUSH2 0x7B0 SWAP1 PUSH2 0x3B9D JUMP JUMPDEST PUSH0 DUP5 GT PUSH2 0x29E9 JUMPI PUSH1 0x40 MLOAD PUSH3 0x461BCD PUSH1 0xE5 SHL DUP2 MSTORE PUSH1 0x20 PUSH1 0x4 DUP3 ADD MSTORE PUSH1 0x1D PUSH1 0x24 DUP3 ADD MSTORE PUSH32 0x416D6F756E74206D7573742062652067726561746572207468616E2030000000 PUSH1 0x44 DUP3 ADD MSTORE PUSH1 0x64 ADD PUSH2 0x7B0 JUMP JUMPDEST PUSH1 0x1 PUSH1 0x1 PUSH1 0xA0 SHL SUB DUP6 AND PUSH2 0x2A38 JUMPI PUSH1 0x40 MLOAD PUSH3 0x461BCD PUSH1 0xE5 SHL DUP2 MSTORE PUSH1 0x20 PUSH1 0x4 DUP3 ADD MSTORE PUSH1 0x16 PUSH1 0x24 DUP3 ADD MSTORE PUSH22 0x496E76616C6964207461726765742061646472657373 PUSH1 0x50 SHL PUSH1 0x44 DUP3 ADD MSTORE PUSH1 0x64 ADD PUSH2 0x7B0 JUMP JUMPDEST PUSH1 0x1 PUSH1 0x1 PUSH1 0xA0 SHL SUB DUP7 AND PUSH2 0x2A86 JUMPI PUSH1 0x40 MLOAD PUSH3 0x461BCD PUSH1 0xE5 SHL DUP2 MSTORE PUSH1 0x20 PUSH1 0x4 DUP3 ADD MSTORE PUSH1 0x15 PUSH1 0x24 DUP3 ADD MSTORE PUSH21 0x496E76616C696420746F6B656E2061646472657373 PUSH1 0x58 SHL PUSH1 0x44 DUP3 ADD MSTORE PUSH1 0x64 ADD PUSH2 0x7B0 JUMP JUMPDEST PUSH1 0x4E DUP4 PUSH1 0xFF AND GT ISZERO PUSH2 0x2AD3 JUMPI PUSH1 0x40 MLOAD PUSH3 0x461BCD PUSH1 0xE5 SHL DUP2 MSTORE PUSH1 0x20 PUSH1 0x4 DUP3 ADD MSTORE PUSH1 0x16 PUSH1 0x24 DUP3 ADD MSTORE PUSH22 0x496E76616C696420746F6B656E20646563696D616C73 PUSH1 0x50 SHL PUSH1 0x44 DUP3 ADD MSTORE PUSH1 0x64 ADD PUSH2 0x7B0 JUMP JUMPDEST PUSH0 DUP3 GT PUSH2 0x2B2E JUMPI PUSH1 0x40 MLOAD PUSH3 0x461BCD PUSH1 0xE5 SHL DUP2 MSTORE PUSH1 0x20 PUSH1 0x4 DUP3 ADD MSTORE PUSH1 0x24 DUP1 DUP3 ADD MSTORE PUSH32 0x45786368616E67652072617465206D7573742062652067726561746572207468 PUSH1 0x44 DUP3 ADD MSTORE PUSH4 0x616E203 PUSH1 0xE4 SHL PUSH1 0x64 DUP3 ADD MSTORE PUSH1 0x84 ADD PUSH2 0x7B0 JUMP JUMPDEST PUSH1 0x14 SLOAD PUSH1 0xFF AND ISZERO PUSH2 0x2B90 JUMPI CALLER PUSH0 SWAP1 DUP2 MSTORE PUSH1 0x8 PUSH1 0x20 MSTORE PUSH1 0x40 SWAP1 KECCAK256 SLOAD PUSH1 0xFF AND PUSH2 0x2B90 JUMPI PUSH1 0x40 MLOAD PUSH3 0x461BCD PUSH1 0xE5 SHL DUP2 MSTORE PUSH1 0x20 PUSH1 0x4 DUP3 ADD MSTORE PUSH1 0x16 PUSH1 0x24 DUP3 ADD MSTORE PUSH22 0x14D95B99195C881B9BDD081DDA1A5D195B1A5CDD1959 PUSH1 0x52 SHL PUSH1 0x44 DUP3 ADD MSTORE PUSH1 0x64 ADD PUSH2 0x7B0 JUMP JUMPDEST CALLER PUSH0 SWAP1 DUP2 MSTORE PUSH1 0x9 PUSH1 0x20 MSTORE PUSH1 0x40 SWAP1 KECCAK256 SLOAD PUSH1 0xFF AND ISZERO PUSH2 0x2BEF JUMPI PUSH1 0x40 MLOAD PUSH3 0x461BCD PUSH1 0xE5 SHL DUP2 MSTORE PUSH1 0x20 PUSH1 0x4 DUP3 ADD MSTORE PUSH1 0x18 PUSH1 0x24 DUP3 ADD MSTORE PUSH32 0x53656E646572206163636F756E742069732066726F7A656E0000000000000000 PUSH1 0x44 DUP3 ADD MSTORE PUSH1 0x64 ADD PUSH2 0x7B0 JUMP JUMPDEST PUSH1 0x40 MLOAD PUSH4 0x23B872DD PUSH1 0xE0 SHL DUP2 MSTORE CALLER PUSH1 0x4 DUP3 ADD MSTORE PUSH1 0x1 PUSH1 0x1 PUSH1 0xA0 SHL SUB DUP7 DUP2 AND PUSH1 0x24 DUP4 ADD MSTORE PUSH1 0x44 DUP3 ADD DUP7 SWAP1 MSTORE DUP8 SWAP2 SWAP1 DUP3 AND SWAP1 PUSH4 0x23B872DD SWAP1 PUSH1 0x64 ADD PUSH1 0x20 PUSH1 0x40 MLOAD DUP1 DUP4 SUB DUP2 PUSH0 DUP8 GAS CALL ISZERO DUP1 ISZERO PUSH2 0x2C44 JUMPI RETURNDATASIZE PUSH0 PUSH0 RETURNDATACOPY RETURNDATASIZE PUSH0 REVERT JUMPDEST POP POP POP POP PUSH1 0x40 MLOAD RETURNDATASIZE PUSH1 0x1F NOT PUSH1 0x1F DUP3 ADD AND DUP3 ADD DUP1 PUSH1 0x40 MSTORE POP DUP2 ADD SWAP1 PUSH2 0x2C68 SWAP2 SWAP1 PUSH2 0x3FCB JUMP JUMPDEST PUSH2 0x2CB4 JUMPI PUSH1 0x40 MLOAD PUSH3 0x461BCD PUSH1 0xE5 SHL DUP2 MSTORE PUSH1 0x20 PUSH1 0x4 DUP3 ADD MSTORE PUSH1 0x1E PUSH1 0x24 DUP3 ADD MSTORE PUSH32 0x45787465726E616C20746F6B656E207472616E73666572206661696C65640000 PUSH1 0x44 DUP3 ADD MSTORE PUSH1 0x64 ADD PUSH2 0x7B0 JUMP JUMPDEST PUSH0 PUSH2 0x2CC0 DUP6 PUSH1 0xA PUSH2 0x40CD JUMP JUMPDEST PUSH2 0x2CCA SWAP1 DUP8 PUSH2 0x40DB JUMP JUMPDEST SWAP1 POP PUSH0 PUSH2 0x2CD7 DUP6 DUP4 PUSH2 0x3F32 JUMP JUMPDEST SWAP1 POP PUSH0 DUP2 GT PUSH2 0x2CF8 JUMPI PUSH1 0x40 MLOAD PUSH3 0x461BCD PUSH1 0xE5 SHL DUP2 MSTORE PUSH1 0x4 ADD PUSH2 0x7B0 SWAP1 PUSH2 0x3F49 JUMP JUMPDEST PUSH1 0x7 SLOAD DUP2 PUSH1 0xA SLOAD PUSH2 0x2D09 SWAP2 SWAP1 PUSH2 0x3CF5 JUMP JUMPDEST GT ISZERO PUSH2 0x2D27 JUMPI PUSH1 0x40 MLOAD PUSH3 0x461BCD PUSH1 0xE5 SHL DUP2 MSTORE PUSH1 0x4 ADD PUSH2 0x7B0 SWAP1 PUSH2 0x3F8A JUMP JUMPDEST PUSH2 0x2D31 CALLER DUP3 PUSH2 0x31D6 JUMP JUMPDEST DUP1 PUSH1 0xA PUSH0 DUP3 DUP3 SLOAD PUSH2 0x2D42 SWAP2 SWAP1 PUSH2 0x3CF5 JUMP JUMPDEST SWAP1 SWAP2 SSTORE POP POP PUSH1 0x40 MLOAD DUP2 DUP2 MSTORE PUSH1 0x1 PUSH1 0x1 PUSH1 0xA0 SHL SUB DUP1 DUP11 AND SWAP2 SWAP1 DUP12 AND SWAP1 CALLER SWAP1 PUSH32 0x7CFFF908A4B583F36430B25D75964C458D8EDE8A99BD61BE750E97EE1B2F3A96 SWAP1 PUSH1 0x20 ADD PUSH1 0x40 MLOAD DUP1 SWAP2 SUB SWAP1 LOG4 PUSH1 0x1 SWAP4 POP POP POP POP PUSH2 0x2D9D PUSH1 0x1 PUSH1 0x6 SSTORE JUMP JUMPDEST SWAP6 SWAP5 POP POP POP POP POP JUMP JUMPDEST PUSH2 0x2DAE PUSH2 0x32E9 JUMP JUMPDEST PUSH1 0x1 PUSH1 0x1 PUSH1 0xA0 SHL SUB DUP2 AND PUSH2 0x2DD7 JUMPI PUSH1 0x40 MLOAD PUSH4 0x1E4FBDF7 PUSH1 0xE0 SHL DUP2 MSTORE PUSH0 PUSH1 0x4 DUP3 ADD MSTORE PUSH1 0x24 ADD PUSH2 0x7B0 JUMP JUMPDEST PUSH2 0xB8F DUP2 PUSH2 0x3316 JUMP JUMPDEST PUSH2 0x2DE8 PUSH2 0x32E9 JUMP JUMPDEST PUSH1 0x11 DUP1 SLOAD PUSH1 0xFF NOT AND PUSH1 0x1 OR SWAP1 SSTORE PUSH1 0x40 MLOAD PUSH32 0x20C53179FE7C6306D9D1C279D52BAE5E736F5E1178137542D3A7A9D1752691BE SWAP1 PUSH0 SWAP1 LOG1 JUMP JUMPDEST PUSH1 0x2 PUSH1 0x6 SLOAD SUB PUSH2 0x2E71 JUMPI PUSH1 0x40 MLOAD PUSH3 0x461BCD PUSH1 0xE5 SHL DUP2 MSTORE PUSH1 0x20 PUSH1 0x4 DUP3 ADD MSTORE PUSH1 0x1F PUSH1 0x24 DUP3 ADD MSTORE PUSH32 0x5265656E7472616E637947756172643A207265656E7472616E742063616C6C00 PUSH1 0x44 DUP3 ADD MSTORE PUSH1 0x64 ADD PUSH2 0x7B0 JUMP JUMPDEST PUSH1 0x2 PUSH1 0x6 SSTORE JUMP JUMPDEST PUSH0 DUP3 MLOAD GT PUSH2 0x2ED4 JUMPI PUSH1 0x40 MLOAD PUSH3 0x461BCD PUSH1 0xE5 SHL DUP2 MSTORE PUSH1 0x20 PUSH1 0x4 DUP3 ADD MSTORE PUSH1 0x23 PUSH1 0x24 DUP3 ADD MSTORE PUSH32 0x57686974656C697374206164647265737365732063616E6E6F7420626520656D PUSH1 0x44 DUP3 ADD MSTORE PUSH3 0x707479 PUSH1 0xE8 SHL PUSH1 0x64 DUP3 ADD MSTORE PUSH1 0x84 ADD PUSH2 0x7B0 JUMP JUMPDEST PUSH0 DUP2 DUP4 MLOAD PUSH2 0x2EE2 SWAP2 SWAP1 PUSH2 0x3F32 JUMP JUMPDEST SWAP1 POP PUSH1 0x7 SLOAD DUP2 PUSH1 0xA SLOAD PUSH2 0x2EF5 SWAP2 SWAP1 PUSH2 0x3CF5 JUMP JUMPDEST GT ISZERO PUSH2 0x2F13 JUMPI PUSH1 0x40 MLOAD PUSH3 0x461BCD PUSH1 0xE5 SHL DUP2 MSTORE PUSH1 0x4 ADD PUSH2 0x7B0 SWAP1 PUSH2 0x3F8A JUMP JUMPDEST PUSH0 JUMPDEST DUP4 MLOAD DUP2 LT ISZERO PUSH2 0x3016 JUMPI PUSH0 DUP5 DUP3 DUP2 MLOAD DUP2 LT PUSH2 0x2F31 JUMPI PUSH2 0x2F31 PUSH2 0x3CE1 JUMP JUMPDEST PUSH1 0x20 MUL PUSH1 0x20 ADD ADD MLOAD SWAP1 POP PUSH0 PUSH1 0x1 PUSH1 0x1 PUSH1 0xA0 SHL SUB AND DUP2 PUSH1 0x1 PUSH1 0x1 PUSH1 0xA0 SHL SUB AND SUB PUSH2 0x2F9C JUMPI PUSH1 0x40 MLOAD PUSH3 0x461BCD PUSH1 0xE5 SHL DUP2 MSTORE PUSH1 0x20 PUSH1 0x4 DUP3 ADD MSTORE PUSH1 0x19 PUSH1 0x24 DUP3 ADD MSTORE PUSH32 0x496E76616C696420726563697069656E74206164647265737300000000000000 PUSH1 0x44 DUP3 ADD MSTORE PUSH1 0x64 ADD PUSH2 0x7B0 JUMP JUMPDEST PUSH1 0x1 PUSH1 0x1 PUSH1 0xA0 SHL SUB DUP2 AND PUSH0 SWAP1 DUP2 MSTORE PUSH1 0x8 PUSH1 0x20 MSTORE PUSH1 0x40 SWAP1 KECCAK256 SLOAD PUSH1 0xFF AND PUSH2 0x3003 JUMPI PUSH1 0x40 MLOAD PUSH3 0x461BCD PUSH1 0xE5 SHL DUP2 MSTORE PUSH1 0x20 PUSH1 0x4 DUP3 ADD MSTORE PUSH1 0x19 PUSH1 0x24 DUP3 ADD MSTORE PUSH32 0x526563697069656E74206E6F742077686974656C697374656400000000000000 PUSH1 0x44 DUP3 ADD MSTORE PUSH1 0x64 ADD PUSH2 0x7B0 JUMP JUMPDEST PUSH2 0x300D DUP2 DUP6 PUSH2 0x31D6 JUMP JUMPDEST POP PUSH1 0x1 ADD PUSH2 0x2F15 JUMP JUMPDEST POP DUP1 PUSH1 0xA PUSH0 DUP3 DUP3 SLOAD PUSH2 0x3028 SWAP2 SWAP1 PUSH2 0x3CF5 JUMP JUMPDEST SWAP1 SWAP2 SSTORE POP POP POP POP POP JUMP JUMPDEST PUSH2 0x303F DUP4 DUP4 DUP4 PUSH1 0x1 PUSH2 0x3374 JUMP JUMPDEST POP POP POP JUMP JUMPDEST PUSH1 0x8 DUP2 ADD SLOAD PUSH0 SWAP1 PUSH1 0xFF AND PUSH2 0x306A JUMPI PUSH1 0x40 MLOAD PUSH3 0x461BCD PUSH1 0xE5 SHL DUP2 MSTORE PUSH1 0x4 ADD PUSH2 0x7B0 SWAP1 PUSH2 0x3BEB JUMP JUMPDEST DUP2 PUSH1 0x2 ADD SLOAD TIMESTAMP LT ISZERO PUSH2 0x30B3 JUMPI PUSH1 0x40 MLOAD PUSH3 0x461BCD PUSH1 0xE5 SHL DUP2 MSTORE PUSH1 0x20 PUSH1 0x4 DUP3 ADD MSTORE PUSH1 0x12 PUSH1 0x24 DUP3 ADD MSTORE PUSH18 0x50726F706F73616C206E6F74207265616479 PUSH1 0x70 SHL PUSH1 0x44 DUP3 ADD MSTORE PUSH1 0x64 ADD PUSH2 0x7B0 JUMP JUMPDEST PUSH0 PUSH1 0x7 DUP4 SLOAD PUSH1 0xFF AND PUSH1 0x8 DUP2 GT ISZERO PUSH2 0x30CC JUMPI PUSH2 0x30CC PUSH2 0x371C JUMP JUMPDEST EQ DUP1 PUSH2 0x30ED JUMPI POP PUSH1 0x8 DUP4 SLOAD PUSH1 0xFF AND PUSH1 0x8 DUP2 GT ISZERO PUSH2 0x30EB JUMPI PUSH2 0x30EB PUSH2 0x371C JUMP JUMPDEST EQ JUMPDEST PUSH2 0x317C JUMPI PUSH1 0x3 DUP4 SLOAD PUSH1 0xFF AND PUSH1 0x8 DUP2 GT ISZERO PUSH2 0x3109 JUMPI PUSH2 0x3109 PUSH2 0x371C JUMP JUMPDEST EQ DUP1 PUSH2 0x312A JUMPI POP PUSH1 0x4 DUP4 SLOAD PUSH1 0xFF AND PUSH1 0x8 DUP2 GT ISZERO PUSH2 0x3128 JUMPI PUSH2 0x3128 PUSH2 0x371C JUMP JUMPDEST EQ JUMPDEST DUP1 PUSH2 0x314A JUMPI POP PUSH1 0x5 DUP4 SLOAD PUSH1 0xFF AND PUSH1 0x8 DUP2 GT ISZERO PUSH2 0x3148 JUMPI PUSH2 0x3148 PUSH2 0x371C JUMP JUMPDEST EQ JUMPDEST DUP1 PUSH2 0x316A JUMPI POP PUSH1 0x6 DUP4 SLOAD PUSH1 0xFF AND PUSH1 0x8 DUP2 GT ISZERO PUSH2 0x3168 JUMPI PUSH2 0x3168 PUSH2 0x371C JUMP JUMPDEST EQ JUMPDEST PUSH2 0x3175 JUMPI PUSH1 0x5 PUSH2 0x317F JUMP JUMPDEST PUSH1 0x3 PUSH2 0x317F JUMP JUMPDEST PUSH1 0x2 JUMPDEST SWAP1 POP DUP1 DUP4 PUSH1 0x1 ADD SLOAD LT ISZERO PUSH2 0xC35 JUMPI PUSH1 0x40 MLOAD PUSH3 0x461BCD PUSH1 0xE5 SHL DUP2 MSTORE PUSH1 0x20 PUSH1 0x4 DUP3 ADD MSTORE PUSH1 0x12 PUSH1 0x24 DUP3 ADD MSTORE PUSH18 0x496E73756666696369656E7420766F746573 PUSH1 0x70 SHL PUSH1 0x44 DUP3 ADD MSTORE PUSH1 0x64 ADD PUSH2 0x7B0 JUMP JUMPDEST PUSH1 0xB PUSH2 0x1FD9 DUP3 DUP3 PUSH2 0x3D53 JUMP JUMPDEST PUSH1 0x1 PUSH1 0x1 PUSH1 0xA0 SHL SUB DUP3 AND PUSH2 0x31FF JUMPI PUSH1 0x40 MLOAD PUSH4 0xEC442F05 PUSH1 0xE0 SHL DUP2 MSTORE PUSH0 PUSH1 0x4 DUP3 ADD MSTORE PUSH1 0x24 ADD PUSH2 0x7B0 JUMP JUMPDEST PUSH2 0x1FD9 PUSH0 DUP4 DUP4 PUSH2 0x3447 JUMP JUMPDEST PUSH0 JUMPDEST PUSH1 0xE SLOAD DUP2 LT ISZERO PUSH2 0x1FD9 JUMPI PUSH0 DUP3 DUP2 MSTORE PUSH1 0xD PUSH1 0x20 MSTORE PUSH1 0x40 DUP2 KECCAK256 PUSH1 0xE DUP1 SLOAD SWAP2 SWAP3 SWAP2 DUP5 SWAP1 DUP2 LT PUSH2 0x323A JUMPI PUSH2 0x323A PUSH2 0x3CE1 JUMP JUMPDEST PUSH0 SWAP2 DUP3 MSTORE PUSH1 0x20 DUP1 DUP4 KECCAK256 SWAP1 SWAP2 ADD SLOAD PUSH1 0x1 PUSH1 0x1 PUSH1 0xA0 SHL SUB AND DUP4 MSTORE DUP3 ADD SWAP3 SWAP1 SWAP3 MSTORE PUSH1 0x40 ADD SWAP1 KECCAK256 SLOAD PUSH1 0xFF AND ISZERO PUSH2 0x32BE JUMPI PUSH0 DUP3 DUP2 MSTORE PUSH1 0xD PUSH1 0x20 MSTORE PUSH1 0x40 DUP2 KECCAK256 PUSH1 0xE DUP1 SLOAD DUP4 SWAP2 SWAP1 DUP6 SWAP1 DUP2 LT PUSH2 0x328A JUMPI PUSH2 0x328A PUSH2 0x3CE1 JUMP JUMPDEST PUSH0 SWAP2 DUP3 MSTORE PUSH1 0x20 DUP1 DUP4 KECCAK256 SWAP2 SWAP1 SWAP2 ADD SLOAD PUSH1 0x1 PUSH1 0x1 PUSH1 0xA0 SHL SUB AND DUP4 MSTORE DUP3 ADD SWAP3 SWAP1 SWAP3 MSTORE PUSH1 0x40 ADD SWAP1 KECCAK256 DUP1 SLOAD PUSH1 0xFF NOT AND SWAP2 ISZERO ISZERO SWAP2 SWAP1 SWAP2 OR SWAP1 SSTORE JUMPDEST PUSH1 0x1 ADD PUSH2 0x320C JUMP JUMPDEST PUSH0 CALLER PUSH2 0x32D3 DUP6 DUP3 DUP6 PUSH2 0x356D JUMP JUMPDEST PUSH2 0x32DE DUP6 DUP6 DUP6 PUSH2 0x35E3 JUMP JUMPDEST POP PUSH1 0x1 SWAP5 SWAP4 POP POP POP POP JUMP JUMPDEST PUSH1 0x5 SLOAD PUSH1 0x1 PUSH1 0x1 PUSH1 0xA0 SHL SUB AND CALLER EQ PUSH2 0x2341 JUMPI PUSH1 0x40 MLOAD PUSH4 0x118CDAA7 PUSH1 0xE0 SHL DUP2 MSTORE CALLER PUSH1 0x4 DUP3 ADD MSTORE PUSH1 0x24 ADD PUSH2 0x7B0 JUMP JUMPDEST PUSH1 0x5 DUP1 SLOAD PUSH1 0x1 PUSH1 0x1 PUSH1 0xA0 SHL SUB DUP4 DUP2 AND PUSH1 0x1 PUSH1 0x1 PUSH1 0xA0 SHL SUB NOT DUP4 AND DUP2 OR SWAP1 SWAP4 SSTORE PUSH1 0x40 MLOAD SWAP2 AND SWAP2 SWAP1 DUP3 SWAP1 PUSH32 0x8BE0079C531659141344CD1FD0A4F28419497F9722A3DAAFE3B4186F6B6457E0 SWAP1 PUSH0 SWAP1 LOG3 POP POP JUMP JUMPDEST PUSH0 CALLER PUSH2 0xC2F DUP2 DUP6 DUP6 PUSH2 0x35E3 JUMP JUMPDEST PUSH1 0x1 PUSH1 0x1 PUSH1 0xA0 SHL SUB DUP5 AND PUSH2 0x339D JUMPI PUSH1 0x40 MLOAD PUSH4 0xE602DF05 PUSH1 0xE0 SHL DUP2 MSTORE PUSH0 PUSH1 0x4 DUP3 ADD MSTORE PUSH1 0x24 ADD PUSH2 0x7B0 JUMP JUMPDEST PUSH1 0x1 PUSH1 0x1 PUSH1 0xA0 SHL SUB DUP4 AND PUSH2 0x33C6 JUMPI PUSH1 0x40 MLOAD PUSH4 0x4A1406B1 PUSH1 0xE1 SHL DUP2 MSTORE PUSH0 PUSH1 0x4 DUP3 ADD MSTORE PUSH1 0x24 ADD PUSH2 0x7B0 JUMP JUMPDEST PUSH1 0x1 PUSH1 0x1 PUSH1 0xA0 SHL SUB DUP1 DUP6 AND PUSH0 SWAP1 DUP2 MSTORE PUSH1 0x1 PUSH1 0x20 SWAP1 DUP2 MSTORE PUSH1 0x40 DUP1 DUP4 KECCAK256 SWAP4 DUP8 AND DUP4 MSTORE SWAP3 SWAP1 MSTORE KECCAK256 DUP3 SWAP1 SSTORE DUP1 ISZERO PUSH2 0x3441 JUMPI DUP3 PUSH1 0x1 PUSH1 0x1 PUSH1 0xA0 SHL SUB AND DUP5 PUSH1 0x1 PUSH1 0x1 PUSH1 0xA0 SHL SUB AND PUSH32 0x8C5BE1E5EBEC7D5BD14F71427D1E84F3DD0314C0F7B2291E5B200AC8C7C3B925 DUP5 PUSH1 0x40 MLOAD PUSH2 0x3438 SWAP2 DUP2 MSTORE PUSH1 0x20 ADD SWAP1 JUMP JUMPDEST PUSH1 0x40 MLOAD DUP1 SWAP2 SUB SWAP1 LOG3 JUMPDEST POP POP POP POP JUMP JUMPDEST PUSH1 0x1 PUSH1 0x1 PUSH1 0xA0 SHL SUB DUP4 AND PUSH2 0x3471 JUMPI DUP1 PUSH1 0x2 PUSH0 DUP3 DUP3 SLOAD PUSH2 0x3466 SWAP2 SWAP1 PUSH2 0x3CF5 JUMP JUMPDEST SWAP1 SWAP2 SSTORE POP PUSH2 0x34E1 SWAP1 POP JUMP JUMPDEST PUSH1 0x1 PUSH1 0x1 PUSH1 0xA0 SHL SUB DUP4 AND PUSH0 SWAP1 DUP2 MSTORE PUSH1 0x20 DUP2 SWAP1 MSTORE PUSH1 0x40 SWAP1 KECCAK256 SLOAD DUP2 DUP2 LT ISZERO PUSH2 0x34C3 JUMPI PUSH1 0x40 MLOAD PUSH4 0x391434E3 PUSH1 0xE2 SHL DUP2 MSTORE PUSH1 0x1 PUSH1 0x1 PUSH1 0xA0 SHL SUB DUP6 AND PUSH1 0x4 DUP3 ADD MSTORE PUSH1 0x24 DUP2 ADD DUP3 SWAP1 MSTORE PUSH1 0x44 DUP2 ADD DUP4 SWAP1 MSTORE PUSH1 0x64 ADD PUSH2 0x7B0 JUMP JUMPDEST PUSH1 0x1 PUSH1 0x1 PUSH1 0xA0 SHL SUB DUP5 AND PUSH0 SWAP1 DUP2 MSTORE PUSH1 0x20 DUP2 SWAP1 MSTORE PUSH1 0x40 SWAP1 KECCAK256 SWAP1 DUP3 SWAP1 SUB SWAP1 SSTORE JUMPDEST PUSH1 0x1 PUSH1 0x1 PUSH1 0xA0 SHL SUB DUP3 AND PUSH2 0x34FD JUMPI PUSH1 0x2 DUP1 SLOAD DUP3 SWAP1 SUB SWAP1 SSTORE PUSH2 0x351B JUMP JUMPDEST PUSH1 0x1 PUSH1 0x1 PUSH1 0xA0 SHL SUB DUP3 AND PUSH0 SWAP1 DUP2 MSTORE PUSH1 0x20 DUP2 SWAP1 MSTORE PUSH1 0x40 SWAP1 KECCAK256 DUP1 SLOAD DUP3 ADD SWAP1 SSTORE JUMPDEST DUP2 PUSH1 0x1 PUSH1 0x1 PUSH1 0xA0 SHL SUB AND DUP4 PUSH1 0x1 PUSH1 0x1 PUSH1 0xA0 SHL SUB AND PUSH32 0xDDF252AD1BE2C89B69C2B068FC378DAA952BA7F163C4A11628F55A4DF523B3EF DUP4 PUSH1 0x40 MLOAD PUSH2 0x3560 SWAP2 DUP2 MSTORE PUSH1 0x20 ADD SWAP1 JUMP JUMPDEST PUSH1 0x40 MLOAD DUP1 SWAP2 SUB SWAP1 LOG3 POP POP POP JUMP JUMPDEST PUSH1 0x1 PUSH1 0x1 PUSH1 0xA0 SHL SUB DUP4 DUP2 AND PUSH0 SWAP1 DUP2 MSTORE PUSH1 0x1 PUSH1 0x20 SWAP1 DUP2 MSTORE PUSH1 0x40 DUP1 DUP4 KECCAK256 SWAP4 DUP7 AND DUP4 MSTORE SWAP3 SWAP1 MSTORE KECCAK256 SLOAD PUSH0 NOT DUP2 LT ISZERO PUSH2 0x3441 JUMPI DUP2 DUP2 LT ISZERO PUSH2 0x35D5 JUMPI PUSH1 0x40 MLOAD PUSH4 0x7DC7A0D9 PUSH1 0xE1 SHL DUP2 MSTORE PUSH1 0x1 PUSH1 0x1 PUSH1 0xA0 SHL SUB DUP5 AND PUSH1 0x4 DUP3 ADD MSTORE PUSH1 0x24 DUP2 ADD DUP3 SWAP1 MSTORE PUSH1 0x44 DUP2 ADD DUP4 SWAP1 MSTORE PUSH1 0x64 ADD PUSH2 0x7B0 JUMP JUMPDEST PUSH2 0x3441 DUP5 DUP5 DUP5 DUP5 SUB PUSH0 PUSH2 0x3374 JUMP JUMPDEST PUSH1 0x1 PUSH1 0x1 PUSH1 0xA0 SHL SUB DUP4 AND PUSH2 0x360C JUMPI PUSH1 0x40 MLOAD PUSH4 0x4B637E8F PUSH1 0xE1 SHL DUP2 MSTORE PUSH0 PUSH1 0x4 DUP3 ADD MSTORE PUSH1 0x24 ADD PUSH2 0x7B0 JUMP JUMPDEST PUSH1 0x1 PUSH1 0x1 PUSH1 0xA0 SHL SUB DUP3 AND PUSH2 0x3635 JUMPI PUSH1 0x40 MLOAD PUSH4 0xEC442F05 PUSH1 0xE0 SHL DUP2 MSTORE PUSH0 PUSH1 0x4 DUP3 ADD MSTORE PUSH1 0x24 ADD PUSH2 0x7B0 JUMP JUMPDEST PUSH2 0x303F DUP4 DUP4 DUP4 PUSH2 0x3447 JUMP JUMPDEST DUP3 DUP1 SLOAD DUP3 DUP3 SSTORE SWAP1 PUSH0 MSTORE PUSH1 0x20 PUSH0 KECCAK256 SWAP1 DUP2 ADD SWAP3 DUP3 ISZERO PUSH2 0x3693 JUMPI SWAP2 PUSH1 0x20 MUL DUP3 ADD JUMPDEST DUP3 DUP2 GT ISZERO PUSH2 0x3693 JUMPI DUP3 MLOAD DUP3 SLOAD PUSH1 0x1 PUSH1 0x1 PUSH1 0xA0 SHL SUB NOT AND PUSH1 0x1 PUSH1 0x1 PUSH1 0xA0 SHL SUB SWAP1 SWAP2 AND OR DUP3 SSTORE PUSH1 0x20 SWAP1 SWAP3 ADD SWAP2 PUSH1 0x1 SWAP1 SWAP2 ADD SWAP1 PUSH2 0x365E JUMP JUMPDEST POP PUSH2 0x369F SWAP3 SWAP2 POP PUSH2 0x36F1 JUMP JUMPDEST POP SWAP1 JUMP JUMPDEST POP DUP1 SLOAD PUSH2 0x36AF SWAP1 PUSH2 0x3C44 JUMP JUMPDEST PUSH0 DUP3 SSTORE DUP1 PUSH1 0x1F LT PUSH2 0x36BE JUMPI POP POP JUMP JUMPDEST PUSH1 0x1F ADD PUSH1 0x20 SWAP1 DIV SWAP1 PUSH0 MSTORE PUSH1 0x20 PUSH0 KECCAK256 SWAP1 DUP2 ADD SWAP1 PUSH2 0xB8F SWAP2 SWAP1 PUSH2 0x36F1 JUMP JUMPDEST POP DUP1 SLOAD PUSH0 DUP3 SSTORE SWAP1 PUSH0 MSTORE PUSH1 0x20 PUSH0 KECCAK256 SWAP1 DUP2 ADD SWAP1 PUSH2 0xB8F SWAP2 SWAP1 JUMPDEST JUMPDEST DUP1 DUP3 GT ISZERO PUSH2 0x369F JUMPI PUSH0 DUP2 SSTORE PUSH1 0x1 ADD PUSH2 0x36F2 JUMP JUMPDEST PUSH0 PUSH1 0x20 DUP3 DUP5 SUB SLT ISZERO PUSH2 0x3715 JUMPI PUSH0 PUSH0 REVERT JUMPDEST POP CALLDATALOAD SWAP2 SWAP1 POP JUMP JUMPDEST PUSH4 0x4E487B71 PUSH1 0xE0 SHL PUSH0 MSTORE PUSH1 0x21 PUSH1 0x4 MSTORE PUSH1 0x24 PUSH0 REVERT JUMPDEST PUSH1 0x9 DUP2 LT PUSH2 0x374C JUMPI PUSH4 0x4E487B71 PUSH1 0xE0 SHL PUSH0 MSTORE PUSH1 0x21 PUSH1 0x4 MSTORE PUSH1 0x24 PUSH0 REVERT JUMPDEST SWAP1 MSTORE JUMP JUMPDEST PUSH0 DUP2 MLOAD DUP1 DUP5 MSTORE DUP1 PUSH1 0x20 DUP5 ADD PUSH1 0x20 DUP7 ADD MCOPY PUSH0 PUSH1 0x20 DUP3 DUP7 ADD ADD MSTORE PUSH1 0x20 PUSH1 0x1F NOT PUSH1 0x1F DUP4 ADD AND DUP6 ADD ADD SWAP2 POP POP SWAP3 SWAP2 POP POP JUMP JUMPDEST PUSH2 0x3788 DUP2 DUP11 PUSH2 0x3730 JUMP JUMPDEST PUSH1 0x1 PUSH1 0x1 PUSH1 0xA0 SHL SUB DUP9 DUP2 AND PUSH1 0x20 DUP4 ADD MSTORE PUSH1 0x40 DUP3 ADD DUP9 SWAP1 MSTORE PUSH1 0x60 DUP3 ADD DUP8 SWAP1 MSTORE DUP6 AND PUSH1 0x80 DUP3 ADD MSTORE PUSH1 0xA0 DUP2 ADD DUP5 SWAP1 MSTORE PUSH2 0x100 PUSH1 0xC0 DUP3 ADD DUP2 SWAP1 MSTORE PUSH0 SWAP1 PUSH2 0x37CC SWAP1 DUP4 ADD DUP6 PUSH2 0x3750 JUMP JUMPDEST SWAP1 POP DUP3 ISZERO ISZERO PUSH1 0xE0 DUP4 ADD MSTORE SWAP10 SWAP9 POP POP POP POP POP POP POP POP POP JUMP JUMPDEST PUSH4 0x4E487B71 PUSH1 0xE0 SHL PUSH0 MSTORE PUSH1 0x41 PUSH1 0x4 MSTORE PUSH1 0x24 PUSH0 REVERT JUMPDEST PUSH1 0x40 MLOAD PUSH1 0x1F DUP3 ADD PUSH1 0x1F NOT AND DUP2 ADD PUSH8 0xFFFFFFFFFFFFFFFF DUP2 GT DUP3 DUP3 LT OR ISZERO PUSH2 0x3820 JUMPI PUSH2 0x3820 PUSH2 0x37E3 JUMP JUMPDEST PUSH1 0x40 MSTORE SWAP2 SWAP1 POP JUMP JUMPDEST DUP1 CALLDATALOAD PUSH1 0x1 PUSH1 0x1 PUSH1 0xA0 SHL SUB DUP2 AND DUP2 EQ PUSH2 0x383E JUMPI PUSH0 PUSH0 REVERT JUMPDEST SWAP2 SWAP1 POP JUMP JUMPDEST PUSH0 DUP3 PUSH1 0x1F DUP4 ADD SLT PUSH2 0x3852 JUMPI PUSH0 PUSH0 REVERT JUMPDEST DUP2 CALLDATALOAD PUSH8 0xFFFFFFFFFFFFFFFF DUP2 GT ISZERO PUSH2 0x386C JUMPI PUSH2 0x386C PUSH2 0x37E3 JUMP JUMPDEST DUP1 PUSH1 0x5 SHL PUSH2 0x387C PUSH1 0x20 DUP3 ADD PUSH2 0x37F7 JUMP JUMPDEST SWAP2 DUP3 MSTORE PUSH1 0x20 DUP2 DUP6 ADD DUP2 ADD SWAP3 SWAP1 DUP2 ADD SWAP1 DUP7 DUP5 GT ISZERO PUSH2 0x3897 JUMPI PUSH0 PUSH0 REVERT JUMPDEST PUSH1 0x20 DUP7 ADD SWAP3 POP JUMPDEST DUP4 DUP4 LT ISZERO PUSH2 0x38C0 JUMPI PUSH2 0x38AF DUP4 PUSH2 0x3828 JUMP JUMPDEST DUP3 MSTORE PUSH1 0x20 SWAP3 DUP4 ADD SWAP3 SWAP1 SWAP2 ADD SWAP1 PUSH2 0x389E JUMP JUMPDEST SWAP7 SWAP6 POP POP POP POP POP POP JUMP JUMPDEST PUSH0 PUSH1 0x20 DUP3 DUP5 SUB SLT ISZERO PUSH2 0x38DA JUMPI PUSH0 PUSH0 REVERT JUMPDEST DUP2 CALLDATALOAD PUSH8 0xFFFFFFFFFFFFFFFF DUP2 GT ISZERO PUSH2 0x38F0 JUMPI PUSH0 PUSH0 REVERT JUMPDEST PUSH2 0x20F9 DUP5 DUP3 DUP6 ADD PUSH2 0x3843 JUMP JUMPDEST PUSH1 0x20 DUP2 MSTORE PUSH0 PUSH2 0x25CA PUSH1 0x20 DUP4 ADD DUP5 PUSH2 0x3750 JUMP JUMPDEST PUSH0 PUSH0 PUSH1 0x40 DUP4 DUP6 SUB SLT ISZERO PUSH2 0x391F JUMPI PUSH0 PUSH0 REVERT JUMPDEST PUSH2 0x3928 DUP4 PUSH2 0x3828 JUMP JUMPDEST SWAP5 PUSH1 0x20 SWAP4 SWAP1 SWAP4 ADD CALLDATALOAD SWAP4 POP POP POP JUMP JUMPDEST PUSH0 DUP3 PUSH1 0x1F DUP4 ADD SLT PUSH2 0x3945 JUMPI PUSH0 PUSH0 REVERT JUMPDEST DUP2 CALLDATALOAD PUSH8 0xFFFFFFFFFFFFFFFF DUP2 GT ISZERO PUSH2 0x395F JUMPI PUSH2 0x395F PUSH2 0x37E3 JUMP JUMPDEST PUSH2 0x3972 PUSH1 0x1F DUP3 ADD PUSH1 0x1F NOT AND PUSH1 0x20 ADD PUSH2 0x37F7 JUMP JUMPDEST DUP2 DUP2 MSTORE DUP5 PUSH1 0x20 DUP4 DUP7 ADD ADD GT ISZERO PUSH2 0x3986 JUMPI PUSH0 PUSH0 REVERT JUMPDEST DUP2 PUSH1 0x20 DUP6 ADD PUSH1 0x20 DUP4 ADD CALLDATACOPY PUSH0 SWAP2 DUP2 ADD PUSH1 0x20 ADD SWAP2 SWAP1 SWAP2 MSTORE SWAP4 SWAP3 POP POP POP JUMP JUMPDEST PUSH0 PUSH0 PUSH0 PUSH0 PUSH0 PUSH0 PUSH1 0xC0 DUP8 DUP10 SUB SLT ISZERO PUSH2 0x39B7 JUMPI PUSH0 PUSH0 REVERT JUMPDEST DUP7 CALLDATALOAD PUSH1 0x9 DUP2 LT PUSH2 0x39C5 JUMPI PUSH0 PUSH0 REVERT JUMPDEST SWAP6 POP PUSH2 0x39D3 PUSH1 0x20 DUP9 ADD PUSH2 0x3828 JUMP JUMPDEST SWAP5 POP PUSH1 0x40 DUP8 ADD CALLDATALOAD SWAP4 POP PUSH1 0x60 DUP8 ADD CALLDATALOAD PUSH8 0xFFFFFFFFFFFFFFFF DUP2 GT ISZERO PUSH2 0x39F5 JUMPI PUSH0 PUSH0 REVERT JUMPDEST PUSH2 0x3A01 DUP10 DUP3 DUP11 ADD PUSH2 0x3936 JUMP JUMPDEST SWAP4 POP POP PUSH1 0x80 DUP8 ADD CALLDATALOAD PUSH8 0xFFFFFFFFFFFFFFFF DUP2 GT ISZERO PUSH2 0x3A1D JUMPI PUSH0 PUSH0 REVERT JUMPDEST PUSH2 0x3A29 DUP10 DUP3 DUP11 ADD PUSH2 0x3843 JUMP JUMPDEST SWAP3 POP POP PUSH1 0xA0 DUP8 ADD CALLDATALOAD PUSH8 0xFFFFFFFFFFFFFFFF DUP2 GT ISZERO PUSH2 0x3A45 JUMPI PUSH0 PUSH0 REVERT JUMPDEST PUSH2 0x3A51 DUP10 DUP3 DUP11 ADD PUSH2 0x3843 JUMP JUMPDEST SWAP2 POP POP SWAP3 SWAP6 POP SWAP3 SWAP6 POP SWAP3 SWAP6 JUMP JUMPDEST PUSH0 PUSH0 PUSH1 0x40 DUP4 DUP6 SUB SLT ISZERO PUSH2 0x3A6F JUMPI PUSH0 PUSH0 REVERT JUMPDEST DUP3 CALLDATALOAD SWAP2 POP PUSH2 0x3A7F PUSH1 0x20 DUP5 ADD PUSH2 0x3828 JUMP JUMPDEST SWAP1 POP SWAP3 POP SWAP3 SWAP1 POP JUMP JUMPDEST PUSH0 PUSH1 0x20 DUP3 DUP5 SUB SLT ISZERO PUSH2 0x3A98 JUMPI PUSH0 PUSH0 REVERT JUMPDEST PUSH2 0x25CA DUP3 PUSH2 0x3828 JUMP JUMPDEST PUSH0 PUSH0 PUSH0 PUSH1 0x60 DUP5 DUP7 SUB SLT ISZERO PUSH2 0x3AB3 JUMPI PUSH0 PUSH0 REVERT JUMPDEST PUSH2 0x3ABC DUP5 PUSH2 0x3828 JUMP JUMPDEST SWAP3 POP PUSH2 0x3ACA PUSH1 0x20 DUP6 ADD PUSH2 0x3828 JUMP JUMPDEST SWAP3 SWAP6 SWAP3 SWAP5 POP POP POP PUSH1 0x40 SWAP2 SWAP1 SWAP2 ADD CALLDATALOAD SWAP1 JUMP JUMPDEST PUSH1 0x20 DUP1 DUP3 MSTORE DUP3 MLOAD DUP3 DUP3 ADD DUP2 SWAP1 MSTORE PUSH0 SWAP2 DUP5 ADD SWAP1 PUSH1 0x40 DUP5 ADD SWAP1 DUP4 JUMPDEST DUP2 DUP2 LT ISZERO PUSH2 0x3B12 JUMPI DUP4 MLOAD DUP4 MSTORE PUSH1 0x20 SWAP4 DUP5 ADD SWAP4 SWAP1 SWAP3 ADD SWAP2 PUSH1 0x1 ADD PUSH2 0x3AF4 JUMP JUMPDEST POP SWAP1 SWAP6 SWAP5 POP POP POP POP POP JUMP JUMPDEST PUSH0 PUSH0 PUSH1 0x40 DUP4 DUP6 SUB SLT ISZERO PUSH2 0x3B2E JUMPI PUSH0 PUSH0 REVERT JUMPDEST PUSH2 0x3B37 DUP4 PUSH2 0x3828 JUMP JUMPDEST SWAP2 POP PUSH2 0x3A7F PUSH1 0x20 DUP5 ADD PUSH2 0x3828 JUMP JUMPDEST PUSH0 PUSH0 PUSH0 PUSH0 PUSH0 PUSH1 0xA0 DUP7 DUP9 SUB SLT ISZERO PUSH2 0x3B59 JUMPI PUSH0 PUSH0 REVERT JUMPDEST PUSH2 0x3B62 DUP7 PUSH2 0x3828 JUMP JUMPDEST SWAP5 POP PUSH2 0x3B70 PUSH1 0x20 DUP8 ADD PUSH2 0x3828 JUMP JUMPDEST SWAP4 POP PUSH1 0x40 DUP7 ADD CALLDATALOAD SWAP3 POP PUSH1 0x60 DUP7 ADD CALLDATALOAD PUSH1 0xFF DUP2 AND DUP2 EQ PUSH2 0x3B8C JUMPI PUSH0 PUSH0 REVERT JUMPDEST SWAP5 SWAP8 SWAP4 SWAP7 POP SWAP2 SWAP5 PUSH1 0x80 ADD CALLDATALOAD SWAP3 SWAP2 POP POP JUMP JUMPDEST PUSH1 0x20 DUP1 DUP3 MSTORE PUSH1 0xF SWAP1 DUP3 ADD MSTORE PUSH15 0x10DBDB9D1C9858DD081C185D5CD959 PUSH1 0x8A SHL PUSH1 0x40 DUP3 ADD MSTORE PUSH1 0x60 ADD SWAP1 JUMP JUMPDEST PUSH1 0x20 DUP1 DUP3 MSTORE PUSH1 0xB SWAP1 DUP3 ADD MSTORE PUSH11 0x2737BA1030903B37BA32B9 PUSH1 0xA9 SHL PUSH1 0x40 DUP3 ADD MSTORE PUSH1 0x60 ADD SWAP1 JUMP JUMPDEST PUSH1 0x20 DUP1 DUP3 MSTORE PUSH1 0x13 SWAP1 DUP3 ADD MSTORE PUSH19 0x50726F706F73616C206E6F7420616374697665 PUSH1 0x68 SHL PUSH1 0x40 DUP3 ADD MSTORE PUSH1 0x60 ADD SWAP1 JUMP JUMPDEST PUSH4 0x4E487B71 PUSH1 0xE0 SHL PUSH0 MSTORE PUSH1 0x11 PUSH1 0x4 MSTORE PUSH1 0x24 PUSH0 REVERT JUMPDEST PUSH0 PUSH1 0x1 DUP3 ADD PUSH2 0x3C3D JUMPI PUSH2 0x3C3D PUSH2 0x3C18 JUMP JUMPDEST POP PUSH1 0x1 ADD SWAP1 JUMP JUMPDEST PUSH1 0x1 DUP2 DUP2 SHR SWAP1 DUP3 AND DUP1 PUSH2 0x3C58 JUMPI PUSH1 0x7F DUP3 AND SWAP2 POP JUMPDEST PUSH1 0x20 DUP3 LT DUP2 SUB PUSH2 0x3C76 JUMPI PUSH4 0x4E487B71 PUSH1 0xE0 SHL PUSH0 MSTORE PUSH1 0x22 PUSH1 0x4 MSTORE PUSH1 0x24 PUSH0 REVERT JUMPDEST POP SWAP2 SWAP1 POP JUMP JUMPDEST DUP2 MLOAD PUSH0 SWAP1 DUP3 SWAP1 PUSH1 0x20 DUP6 ADD DUP4 JUMPDEST DUP3 DUP2 LT ISZERO PUSH2 0x3CAF JUMPI DUP2 MLOAD PUSH1 0x1 PUSH1 0x1 PUSH1 0xA0 SHL SUB AND DUP5 MSTORE PUSH1 0x20 SWAP4 DUP5 ADD SWAP4 SWAP1 SWAP2 ADD SWAP1 PUSH1 0x1 ADD PUSH2 0x3C88 JUMP JUMPDEST POP SWAP2 SWAP6 SWAP5 POP POP POP POP POP JUMP JUMPDEST DUP1 DUP3 ADD DUP3 DUP2 SLT PUSH0 DUP4 SLT DUP1 ISZERO DUP3 AND DUP3 ISZERO DUP3 AND OR ISZERO PUSH2 0x3CD9 JUMPI PUSH2 0x3CD9 PUSH2 0x3C18 JUMP JUMPDEST POP POP SWAP3 SWAP2 POP POP JUMP JUMPDEST PUSH4 0x4E487B71 PUSH1 0xE0 SHL PUSH0 MSTORE PUSH1 0x32 PUSH1 0x4 MSTORE PUSH1 0x24 PUSH0 REVERT JUMPDEST DUP1 DUP3 ADD DUP1 DUP3 GT ISZERO PUSH2 0xC35 JUMPI PUSH2 0xC35 PUSH2 0x3C18 JUMP JUMPDEST PUSH1 0x1F DUP3 GT ISZERO PUSH2 0x303F JUMPI DUP1 PUSH0 MSTORE PUSH1 0x20 PUSH0 KECCAK256 PUSH1 0x1F DUP5 ADD PUSH1 0x5 SHR DUP2 ADD PUSH1 0x20 DUP6 LT ISZERO PUSH2 0x3D2D JUMPI POP DUP1 JUMPDEST PUSH1 0x1F DUP5 ADD PUSH1 0x5 SHR DUP3 ADD SWAP2 POP JUMPDEST DUP2 DUP2 LT ISZERO PUSH2 0x3D4C JUMPI PUSH0 DUP2 SSTORE PUSH1 0x1 ADD PUSH2 0x3D39 JUMP JUMPDEST POP POP POP POP POP JUMP JUMPDEST DUP2 MLOAD PUSH8 0xFFFFFFFFFFFFFFFF DUP2 GT ISZERO PUSH2 0x3D6D JUMPI PUSH2 0x3D6D PUSH2 0x37E3 JUMP JUMPDEST PUSH2 0x3D81 DUP2 PUSH2 0x3D7B DUP5 SLOAD PUSH2 0x3C44 JUMP JUMPDEST DUP5 PUSH2 0x3D08 JUMP JUMPDEST PUSH1 0x20 PUSH1 0x1F DUP3 GT PUSH1 0x1 DUP2 EQ PUSH2 0x3DB3 JUMPI PUSH0 DUP4 ISZERO PUSH2 0x3D9C JUMPI POP DUP5 DUP3 ADD MLOAD JUMPDEST PUSH0 NOT PUSH1 0x3 DUP6 SWAP1 SHL SHR NOT AND PUSH1 0x1 DUP5 SWAP1 SHL OR DUP5 SSTORE PUSH2 0x3D4C JUMP JUMPDEST PUSH0 DUP5 DUP2 MSTORE PUSH1 0x20 DUP2 KECCAK256 PUSH1 0x1F NOT DUP6 AND SWAP2 JUMPDEST DUP3 DUP2 LT ISZERO PUSH2 0x3DE2 JUMPI DUP8 DUP6 ADD MLOAD DUP3 SSTORE PUSH1 0x20 SWAP5 DUP6 ADD SWAP5 PUSH1 0x1 SWAP1 SWAP3 ADD SWAP2 ADD PUSH2 0x3DC2 JUMP JUMPDEST POP DUP5 DUP3 LT ISZERO PUSH2 0x3DFF JUMPI DUP7 DUP5 ADD MLOAD PUSH0 NOT PUSH1 0x3 DUP8 SWAP1 SHL PUSH1 0xF8 AND SHR NOT AND DUP2 SSTORE JUMPDEST POP POP POP POP PUSH1 0x1 SWAP1 DUP2 SHL ADD SWAP1 SSTORE POP JUMP JUMPDEST PUSH1 0x40 DUP2 ADD PUSH2 0x3E1C DUP3 DUP6 PUSH2 0x3730 JUMP JUMPDEST PUSH1 0x1 PUSH1 0x1 PUSH1 0xA0 SHL SUB SWAP3 SWAP1 SWAP3 AND PUSH1 0x20 SWAP2 SWAP1 SWAP2 ADD MSTORE SWAP2 SWAP1 POP JUMP JUMPDEST PUSH1 0x20 DUP2 MSTORE PUSH0 PUSH0 DUP4 SLOAD PUSH2 0x3E45 DUP2 PUSH2 0x3C44 JUMP JUMPDEST DUP1 PUSH1 0x20 DUP7 ADD MSTORE PUSH1 0x1 DUP3 AND PUSH0 DUP2 EQ PUSH2 0x3E63 JUMPI PUSH1 0x1 DUP2 EQ PUSH2 0x3E7F JUMPI PUSH2 0x3CAF JUMP JUMPDEST PUSH1 0xFF NOT DUP4 AND PUSH1 0x40 DUP8 ADD MSTORE PUSH1 0x40 DUP3 ISZERO ISZERO PUSH1 0x5 SHL DUP8 ADD ADD SWAP4 POP PUSH2 0x3CAF JUMP JUMPDEST DUP7 PUSH0 MSTORE PUSH1 0x20 PUSH0 KECCAK256 PUSH0 JUMPDEST DUP4 DUP2 LT ISZERO PUSH2 0x3EA7 JUMPI DUP2 SLOAD DUP9 DUP3 ADD PUSH1 0x40 ADD MSTORE PUSH1 0x1 SWAP1 SWAP2 ADD SWAP1 PUSH1 0x20 ADD PUSH2 0x3E88 JUMP JUMPDEST DUP8 ADD PUSH1 0x40 ADD SWAP5 POP POP POP SWAP2 SWAP6 SWAP5 POP POP POP POP POP JUMP JUMPDEST PUSH0 DUP2 SLOAD DUP1 DUP5 MSTORE PUSH1 0x20 DUP5 ADD SWAP4 POP DUP3 PUSH0 MSTORE PUSH1 0x20 PUSH0 KECCAK256 PUSH0 JUMPDEST DUP3 DUP2 LT ISZERO PUSH2 0x3EF6 JUMPI DUP2 SLOAD PUSH1 0x1 PUSH1 0x1 PUSH1 0xA0 SHL SUB AND DUP7 MSTORE PUSH1 0x20 SWAP1 SWAP6 ADD SWAP5 PUSH1 0x1 SWAP2 DUP3 ADD SWAP2 ADD PUSH2 0x3ECF JUMP JUMPDEST POP SWAP4 SWAP5 SWAP4 POP POP POP POP JUMP JUMPDEST PUSH1 0x40 DUP2 MSTORE PUSH0 PUSH2 0x3F12 PUSH1 0x40 DUP4 ADD DUP6 PUSH2 0x3EBA JUMP JUMPDEST DUP3 DUP2 SUB PUSH1 0x20 DUP5 ADD MSTORE PUSH2 0x2D9D DUP2 DUP6 PUSH2 0x3EBA JUMP JUMPDEST PUSH1 0x20 DUP2 ADD PUSH2 0xC35 DUP3 DUP5 PUSH2 0x3730 JUMP JUMPDEST DUP1 DUP3 MUL DUP2 ISZERO DUP3 DUP3 DIV DUP5 EQ OR PUSH2 0xC35 JUMPI PUSH2 0xC35 PUSH2 0x3C18 JUMP JUMPDEST PUSH1 0x20 DUP1 DUP3 MSTORE PUSH1 0x21 SWAP1 DUP3 ADD MSTORE PUSH32 0x43434B20616D6F756E74206D7573742062652067726561746572207468616E20 PUSH1 0x40 DUP3 ADD MSTORE PUSH1 0x3 PUSH1 0xFC SHL PUSH1 0x60 DUP3 ADD MSTORE PUSH1 0x80 ADD SWAP1 JUMP JUMPDEST PUSH1 0x20 DUP1 DUP3 MSTORE PUSH1 0x14 SWAP1 DUP3 ADD MSTORE PUSH20 0x4578636565647320746F74616C20737570706C79 PUSH1 0x60 SHL PUSH1 0x40 DUP3 ADD MSTORE PUSH1 0x60 ADD SWAP1 JUMP JUMPDEST DUP2 DUP2 SUB DUP2 DUP2 GT ISZERO PUSH2 0xC35 JUMPI PUSH2 0xC35 PUSH2 0x3C18 JUMP JUMPDEST PUSH0 PUSH1 0x20 DUP3 DUP5 SUB SLT ISZERO PUSH2 0x3FDB JUMPI PUSH0 PUSH0 REVERT JUMPDEST DUP2 MLOAD DUP1 ISZERO ISZERO DUP2 EQ PUSH2 0x25CA JUMPI PUSH0 PUSH0 REVERT JUMPDEST PUSH1 0x1 DUP2 JUMPDEST PUSH1 0x1 DUP5 GT ISZERO PUSH2 0x4025 JUMPI DUP1 DUP6 DIV DUP2 GT ISZERO PUSH2 0x4009 JUMPI PUSH2 0x4009 PUSH2 0x3C18 JUMP JUMPDEST PUSH1 0x1 DUP5 AND ISZERO PUSH2 0x4017 JUMPI SWAP1 DUP2 MUL SWAP1 JUMPDEST PUSH1 0x1 SWAP4 SWAP1 SWAP4 SHR SWAP3 DUP1 MUL PUSH2 0x3FEE JUMP JUMPDEST SWAP4 POP SWAP4 SWAP2 POP POP JUMP JUMPDEST PUSH0 DUP3 PUSH2 0x403B JUMPI POP PUSH1 0x1 PUSH2 0xC35 JUMP JUMPDEST DUP2 PUSH2 0x4047 JUMPI POP PUSH0 PUSH2 0xC35 JUMP JUMPDEST DUP2 PUSH1 0x1 DUP2 EQ PUSH2 0x405D JUMPI PUSH1 0x2 DUP2 EQ PUSH2 0x4067 JUMPI PUSH2 0x4083 JUMP JUMPDEST PUSH1 0x1 SWAP2 POP POP PUSH2 0xC35 JUMP JUMPDEST PUSH1 0xFF DUP5 GT ISZERO PUSH2 0x4078 JUMPI PUSH2 0x4078 PUSH2 0x3C18 JUMP JUMPDEST POP POP PUSH1 0x1 DUP3 SHL PUSH2 0xC35 JUMP JUMPDEST POP PUSH1 0x20 DUP4 LT PUSH2 0x133 DUP4 LT AND PUSH1 0x4E DUP5 LT PUSH1 0xB DUP5 LT AND OR ISZERO PUSH2 0x40A6 JUMPI POP DUP2 DUP2 EXP PUSH2 0xC35 JUMP JUMPDEST PUSH2 0x40B2 PUSH0 NOT DUP5 DUP5 PUSH2 0x3FEA JUMP JUMPDEST DUP1 PUSH0 NOT DIV DUP3 GT ISZERO PUSH2 0x40C5 JUMPI PUSH2 0x40C5 PUSH2 0x3C18 JUMP JUMPDEST MUL SWAP4 SWAP3 POP POP POP JUMP JUMPDEST PUSH0 PUSH2 0x25CA PUSH1 0xFF DUP5 AND DUP4 PUSH2 0x402D JUMP JUMPDEST PUSH0 DUP3 PUSH2 0x40F5 JUMPI PUSH4 0x4E487B71 PUSH1 0xE0 SHL PUSH0 MSTORE PUSH1 0x12 PUSH1 0x4 MSTORE PUSH1 0x24 PUSH0 REVERT JUMPDEST POP DIV SWAP1 JUMP INVALID PUSH17 0x8B4D521222BB27F0672D2839E6039075F6 0x25 LOG3 LT KECCAK256 SWAP1 JUMP SSTORE 0xAF 0xD9 0x28 0xFC SWAP10 0x23 BLOCKHASH LOG2 PUSH5 0x6970667358 0x22 SLT KECCAK256 MSTORE8 DUP13 BYTE DIV 0x25 COINBASE 0xD ORIGIN SWAP15 SAR 0xD2 DUP7 0xDE SELFDESTRUCT 0x2E 0xD4 RETURNDATASIZE TIMESTAMP 0xAE MLOAD LT PUSH27 0x689F931BF782C08FC8E364736F6C634300081E0033000000000000 "
		},
		"gasEstimates": {
			"creation": {
				"codeDepositCost": "3344000",
				"executionCost": "infinite",
				"totalCost": "infinite"
			},
			"external": {
				"AUTO_BATCH_MINT_INTERVAL()": "285",
				"BATCH_MINT_AMOUNT()": "327",
				"DISTRIBUTION_AMOUNT()": "326",
				"DISTRIBUTION_INTERVAL()": "285",
				"EXCHANGE_RATE()": "284",
				"MIN_VOTES_FOR_MINT()": "260",
				"MIN_VOTES_FOR_USER_ACTIONS()": "307",
				"TOTAL_SUPPLY()": "2406",
				"TOTAL_VOTES_REQUIRED()": "262",
				"allowance(address,address)": "infinite",
				"approve(address,uint256)": "24825",
				"autoBatchMintToWhitelist(address[])": "infinite",
				"balanceOf(address)": "2626",
				"balanceOfUser(address)": "2684",
				"cancelProposal(uint256)": "infinite",
				"compliance()": "334",
				"contractPaused()": "2388",
				"decimals()": "265",
				"deposit(address,address,uint256,uint8,uint256)": "infinite",
				"distributeToWhitelist()": "infinite",
				"exchange(uint256,address)": "infinite",
				"executeProposal(uint256)": "infinite",
				"frozen(address)": "2595",
				"getActiveProposals()": "infinite",
				"getProposalCount()": "4581",
				"getWhitelistCheckEnabled()": "2413",
				"hasVoted(uint256,address)": "2737",
				"identityRegistry()": "268",
				"isFrozen(address)": "2635",
				"lastAutoBatchMintTimestamp()": "2383",
				"lastDistributionTimestamp()": "2428",
				"manualBatchMintToWhitelist(address[])": "infinite",
				"mintedAmount()": "2385",
				"name()": "infinite",
				"onchainID()": "278",
				"owner()": "2420",
				"pauseContract()": "29595",
				"pauseVoting()": "27386",
				"paused()": "2426",
				"proposals(uint256)": "infinite",
				"propose(uint8,address,uint256,string,address[],address[])": "infinite",
				"remainingSupply()": "4580",
				"renounceOwnership()": "infinite",
				"resumeContract()": "27408",
				"resumeVoting()": "27361",
				"symbol()": "infinite",
				"tokenName()": "infinite",
				"totalSupply()": "2403",
				"transfer(address,uint256)": "infinite",
				"transferFrom(address,address,uint256)": "infinite",
				"transferOwnership(address)": "28466",
				"version()": "infinite",
				"vote(uint256)": "72184",
				"voters(address)": "2618",
				"votersList(uint256)": "4744",
				"votingPaused()": "2420",
				"whitelist(address)": "2596",
				"whitelistCheckEnabled()": "2420"
			},
			"internal": {
				"_batchMintToWhitelist(address[] memory,uint256)": "infinite",
				"_checkProposalVotes(struct CCKToken.Proposal storage pointer)": "infinite",
				"_setName(string memory)": "infinite",
				"resetVotes(uint256)": "infinite"
			}
		},
		"methodIdentifiers": {
			"AUTO_BATCH_MINT_INTERVAL()": "7c224d64",
			"BATCH_MINT_AMOUNT()": "b5fc35ce",
			"DISTRIBUTION_AMOUNT()": "ff8f164f",
			"DISTRIBUTION_INTERVAL()": "08b26b75",
			"EXCHANGE_RATE()": "14a8bd0d",
			"MIN_VOTES_FOR_MINT()": "f36e32cc",
			"MIN_VOTES_FOR_USER_ACTIONS()": "2de56555",
			"TOTAL_SUPPLY()": "902d55a5",
			"TOTAL_VOTES_REQUIRED()": "302c464a",
			"allowance(address,address)": "dd62ed3e",
			"approve(address,uint256)": "095ea7b3",
			"autoBatchMintToWhitelist(address[])": "cb7a11c2",
			"balanceOf(address)": "70a08231",
			"balanceOfUser(address)": "12cae7af",
			"cancelProposal(uint256)": "e0a8f6f5",
			"compliance()": "6290865d",
			"contractPaused()": "8a67456a",
			"decimals()": "313ce567",
			"deposit(address,address,uint256,uint8,uint256)": "e56281e8",
			"distributeToWhitelist()": "80e79a36",
			"exchange(uint256,address)": "0fe2abcf",
			"executeProposal(uint256)": "0d61b519",
			"frozen(address)": "d0516650",
			"getActiveProposals()": "5584c4f9",
			"getProposalCount()": "c08cc02d",
			"getWhitelistCheckEnabled()": "fca63efd",
			"hasVoted(uint256,address)": "43859632",
			"identityRegistry()": "134e18f4",
			"isFrozen(address)": "e5839836",
			"lastAutoBatchMintTimestamp()": "aca9f472",
			"lastDistributionTimestamp()": "20950933",
			"manualBatchMintToWhitelist(address[])": "051069e3",
			"mintedAmount()": "2d380242",
			"name()": "06fdde03",
			"onchainID()": "aba63705",
			"owner()": "8da5cb5b",
			"pauseContract()": "439766ce",
			"pauseVoting()": "f3cdcd1e",
			"paused()": "5c975abb",
			"proposals(uint256)": "013cf08b",
			"propose(uint8,address,uint256,string,address[],address[])": "0d4efa4f",
			"remainingSupply()": "da0239a6",
			"renounceOwnership()": "715018a6",
			"resumeContract()": "c4bc5da5",
			"resumeVoting()": "7afdf93e",
			"symbol()": "95d89b41",
			"tokenName()": "6c02a931",
			"totalSupply()": "18160ddd",
			"transfer(address,uint256)": "a9059cbb",
			"transferFrom(address,address,uint256)": "23b872dd",
			"transferOwnership(address)": "f2fde38b",
			"version()": "54fd4d50",
			"vote(uint256)": "0121b93f",
			"voters(address)": "a3ec138d",
			"votersList(uint256)": "72ce73ab",
			"votingPaused()": "ae66c9ea",
			"whitelist(address)": "9b19251a",
			"whitelistCheckEnabled()": "ef1300c0"
		}
	},
	"abi": [
		{
			"inputs": [
				{
					"internalType": "string",
					"name": "initialName",
					"type": "string"
				},
				{
					"internalType": "address[]",
					"name": "_whitelist",
					"type": "address[]"
				},
				{
					"internalType": "address[]",
					"name": "_voters",
					"type": "address[]"
				}
			],
			"stateMutability": "nonpayable",
			"type": "constructor"
		},
		{
			"inputs": [
				{
					"internalType": "address",
					"name": "spender",
					"type": "address"
				},
				{
					"internalType": "uint256",
					"name": "allowance",
					"type": "uint256"
				},
				{
					"internalType": "uint256",
					"name": "needed",
					"type": "uint256"
				}
			],
			"name": "ERC20InsufficientAllowance",
			"type": "error"
		},
		{
			"inputs": [
				{
					"internalType": "address",
					"name": "sender",
					"type": "address"
				},
				{
					"internalType": "uint256",
					"name": "balance",
					"type": "uint256"
				},
				{
					"internalType": "uint256",
					"name": "needed",
					"type": "uint256"
				}
			],
			"name": "ERC20InsufficientBalance",
			"type": "error"
		},
		{
			"inputs": [
				{
					"internalType": "address",
					"name": "approver",
					"type": "address"
				}
			],
			"name": "ERC20InvalidApprover",
			"type": "error"
		},
		{
			"inputs": [
				{
					"internalType": "address",
					"name": "receiver",
					"type": "address"
				}
			],
			"name": "ERC20InvalidReceiver",
			"type": "error"
		},
		{
			"inputs": [
				{
					"internalType": "address",
					"name": "sender",
					"type": "address"
				}
			],
			"name": "ERC20InvalidSender",
			"type": "error"
		},
		{
			"inputs": [
				{
					"internalType": "address",
					"name": "spender",
					"type": "address"
				}
			],
			"name": "ERC20InvalidSpender",
			"type": "error"
		},
		{
			"inputs": [
				{
					"internalType": "address",
					"name": "owner",
					"type": "address"
				}
			],
			"name": "OwnableInvalidOwner",
			"type": "error"
		},
		{
			"inputs": [
				{
					"internalType": "address",
					"name": "account",
					"type": "address"
				}
			],
			"name": "OwnableUnauthorizedAccount",
			"type": "error"
		},
		{
			"anonymous": false,
			"inputs": [
				{
					"indexed": true,
					"internalType": "address",
					"name": "owner",
					"type": "address"
				},
				{
					"indexed": true,
					"internalType": "address",
					"name": "spender",
					"type": "address"
				},
				{
					"indexed": false,
					"internalType": "uint256",
					"name": "value",
					"type": "uint256"
				}
			],
			"name": "Approval",
			"type": "event"
		},
		{
			"anonymous": false,
			"inputs": [
				{
					"indexed": true,
					"internalType": "address[]",
					"name": "recipients",
					"type": "address[]"
				},
				{
					"indexed": false,
					"internalType": "uint256",
					"name": "amountPerAddress",
					"type": "uint256"
				},
				{
					"indexed": false,
					"internalType": "bool",
					"name": "isAuto",
					"type": "bool"
				}
			],
			"name": "BatchMint",
			"type": "event"
		},
		{
			"anonymous": false,
			"inputs": [],
			"name": "ContractPaused",
			"type": "event"
		},
		{
			"anonymous": false,
			"inputs": [],
			"name": "ContractResumed",
			"type": "event"
		},
		{
			"anonymous": false,
			"inputs": [
				{
					"indexed": true,
					"internalType": "address",
					"name": "from",
					"type": "address"
				},
				{
					"indexed": true,
					"internalType": "address",
					"name": "token",
					"type": "address"
				},
				{
					"indexed": true,
					"internalType": "address",
					"name": "to",
					"type": "address"
				},
				{
					"indexed": false,
					"internalType": "uint256",
					"name": "amount",
					"type": "uint256"
				}
			],
			"name": "Deposit",
			"type": "event"
		},
		{
			"anonymous": false,
			"inputs": [
				{
					"indexed": true,
					"internalType": "address",
					"name": "user",
					"type": "address"
				},
				{
					"indexed": false,
					"internalType": "uint256",
					"name": "inputAmount",
					"type": "uint256"
				},
				{
					"indexed": false,
					"internalType": "uint256",
					"name": "cckAmount",
					"type": "uint256"
				},
				{
					"indexed": true,
					"internalType": "address",
					"name": "targetAddress",
					"type": "address"
				}
			],
			"name": "Exchange",
			"type": "event"
		},
		{
			"anonymous": false,
			"inputs": [
				{
					"indexed": false,
					"internalType": "address",
					"name": "to",
					"type": "address"
				},
				{
					"indexed": false,
					"internalType": "uint256",
					"name": "amount",
					"type": "uint256"
				}
			],
			"name": "MintExecuted",
			"type": "event"
		},
		{
			"anonymous": false,
			"inputs": [
				{
					"indexed": false,
					"internalType": "string",
					"name": "newName",
					"type": "string"
				}
			],
			"name": "NameChanged",
			"type": "event"
		},
		{
			"anonymous": false,
			"inputs": [
				{
					"indexed": true,
					"internalType": "address",
					"name": "previousOwner",
					"type": "address"
				},
				{
					"indexed": true,
					"internalType": "address",
					"name": "newOwner",
					"type": "address"
				}
			],
			"name": "OwnershipTransferred",
			"type": "event"
		},
		{
			"anonymous": false,
			"inputs": [
				{
					"indexed": true,
					"internalType": "uint256",
					"name": "proposalId",
					"type": "uint256"
				},
				{
					"indexed": false,
					"internalType": "enum CCKToken.ProposalType",
					"name": "proposalType",
					"type": "uint8"
				}
			],
			"name": "ProposalCancelled",
			"type": "event"
		},
		{
			"anonymous": false,
			"inputs": [
				{
					"indexed": true,
					"internalType": "uint256",
					"name": "proposalId",
					"type": "uint256"
				},
				{
					"indexed": false,
					"internalType": "enum CCKToken.ProposalType",
					"name": "proposalType",
					"type": "uint8"
				},
				{
					"indexed": false,
					"internalType": "address",
					"name": "initiator",
					"type": "address"
				}
			],
			"name": "ProposalCreated",
			"type": "event"
		},
		{
			"anonymous": false,
			"inputs": [
				{
					"indexed": true,
					"internalType": "uint256",
					"name": "proposalId",
					"type": "uint256"
				},
				{
					"indexed": false,
					"internalType": "enum CCKToken.ProposalType",
					"name": "proposalType",
					"type": "uint8"
				}
			],
			"name": "ProposalExecuted",
			"type": "event"
		},
		{
			"anonymous": false,
			"inputs": [
				{
					"indexed": true,
					"internalType": "address",
					"name": "target",
					"type": "address"
				},
				{
					"indexed": false,
					"internalType": "string",
					"name": "statusType",
					"type": "string"
				},
				{
					"indexed": false,
					"internalType": "bool",
					"name": "status",
					"type": "bool"
				}
			],
			"name": "StatusChanged",
			"type": "event"
		},
		{
			"anonymous": false,
			"inputs": [
				{
					"indexed": false,
					"internalType": "uint256",
					"name": "newTotalSupply",
					"type": "uint256"
				}
			],
			"name": "TotalSupplyAdjusted",
			"type": "event"
		},
		{
			"anonymous": false,
			"inputs": [
				{
					"indexed": true,
					"internalType": "address",
					"name": "from",
					"type": "address"
				},
				{
					"indexed": true,
					"internalType": "address",
					"name": "to",
					"type": "address"
				},
				{
					"indexed": false,
					"internalType": "uint256",
					"name": "value",
					"type": "uint256"
				}
			],
			"name": "Transfer",
			"type": "event"
		},
		{
			"anonymous": false,
			"inputs": [
				{
					"indexed": true,
					"internalType": "uint256",
					"name": "proposalId",
					"type": "uint256"
				},
				{
					"indexed": true,
					"internalType": "address",
					"name": "voter",
					"type": "address"
				}
			],
			"name": "VoteCast",
			"type": "event"
		},
		{
			"anonymous": false,
			"inputs": [
				{
					"indexed": false,
					"internalType": "address[]",
					"name": "oldVoters",
					"type": "address[]"
				},
				{
					"indexed": false,
					"internalType": "address[]",
					"name": "newVoters",
					"type": "address[]"
				}
			],
			"name": "VotersChanged",
			"type": "event"
		},
		{
			"anonymous": false,
			"inputs": [],
			"name": "VotingPaused",
			"type": "event"
		},
		{
			"anonymous": false,
			"inputs": [],
			"name": "VotingResumed",
			"type": "event"
		},
		{
			"anonymous": false,
			"inputs": [
				{
					"indexed": false,
					"internalType": "bool",
					"name": "enabled",
					"type": "bool"
				}
			],
			"name": "WhitelistCheckToggled",
			"type": "event"
		},
		{
			"anonymous": false,
			"inputs": [
				{
					"indexed": false,
					"internalType": "uint256",
					"name": "amount",
					"type": "uint256"
				}
			],
			"name": "WhitelistDistribution",
			"type": "event"
		},
		{
			"inputs": [],
			"name": "AUTO_BATCH_MINT_INTERVAL",
			"outputs": [
				{
					"internalType": "uint256",
					"name": "",
					"type": "uint256"
				}
			],
			"stateMutability": "view",
			"type": "function"
		},
		{
			"inputs": [],
			"name": "BATCH_MINT_AMOUNT",
			"outputs": [
				{
					"internalType": "uint256",
					"name": "",
					"type": "uint256"
				}
			],
			"stateMutability": "view",
			"type": "function"
		},
		{
			"inputs": [],
			"name": "DISTRIBUTION_AMOUNT",
			"outputs": [
				{
					"internalType": "uint256",
					"name": "",
					"type": "uint256"
				}
			],
			"stateMutability": "view",
			"type": "function"
		},
		{
			"inputs": [],
			"name": "DISTRIBUTION_INTERVAL",
			"outputs": [
				{
					"internalType": "uint256",
					"name": "",
					"type": "uint256"
				}
			],
			"stateMutability": "view",
			"type": "function"
		},
		{
			"inputs": [],
			"name": "EXCHANGE_RATE",
			"outputs": [
				{
					"internalType": "uint256",
					"name": "",
					"type": "uint256"
				}
			],
			"stateMutability": "view",
			"type": "function"
		},
		{
			"inputs": [],
			"name": "MIN_VOTES_FOR_MINT",
			"outputs": [
				{
					"internalType": "uint256",
					"name": "",
					"type": "uint256"
				}
			],
			"stateMutability": "view",
			"type": "function"
		},
		{
			"inputs": [],
			"name": "MIN_VOTES_FOR_USER_ACTIONS",
			"outputs": [
				{
					"internalType": "uint256",
					"name": "",
					"type": "uint256"
				}
			],
			"stateMutability": "view",
			"type": "function"
		},
		{
			"inputs": [],
			"name": "TOTAL_SUPPLY",
			"outputs": [
				{
					"internalType": "uint256",
					"name": "",
					"type": "uint256"
				}
			],
			"stateMutability": "view",
			"type": "function"
		},
		{
			"inputs": [],
			"name": "TOTAL_VOTES_REQUIRED",
			"outputs": [
				{
					"internalType": "uint256",
					"name": "",
					"type": "uint256"
				}
			],
			"stateMutability": "view",
			"type": "function"
		},
		{
			"inputs": [
				{
					"internalType": "address",
					"name": "owner",
					"type": "address"
				},
				{
					"internalType": "address",
					"name": "spender",
					"type": "address"
				}
			],
			"name": "allowance",
			"outputs": [
				{
					"internalType": "uint256",
					"name": "",
					"type": "uint256"
				}
			],
			"stateMutability": "view",
			"type": "function"
		},
		{
			"inputs": [
				{
					"internalType": "address",
					"name": "spender",
					"type": "address"
				},
				{
					"internalType": "uint256",
					"name": "value",
					"type": "uint256"
				}
			],
			"name": "approve",
			"outputs": [
				{
					"internalType": "bool",
					"name": "",
					"type": "bool"
				}
			],
			"stateMutability": "nonpayable",
			"type": "function"
		},
		{
			"inputs": [
				{
					"internalType": "address[]",
					"name": "whitelistAddresses",
					"type": "address[]"
				}
			],
			"name": "autoBatchMintToWhitelist",
			"outputs": [],
			"stateMutability": "nonpayable",
			"type": "function"
		},
		{
			"inputs": [
				{
					"internalType": "address",
					"name": "account",
					"type": "address"
				}
			],
			"name": "balanceOf",
			"outputs": [
				{
					"internalType": "uint256",
					"name": "",
					"type": "uint256"
				}
			],
			"stateMutability": "view",
			"type": "function"
		},
		{
			"inputs": [
				{
					"internalType": "address",
					"name": "user",
					"type": "address"
				}
			],
			"name": "balanceOfUser",
			"outputs": [
				{
					"internalType": "uint256",
					"name": "",
					"type": "uint256"
				}
			],
			"stateMutability": "view",
			"type": "function"
		},
		{
			"inputs": [
				{
					"internalType": "uint256",
					"name": "proposalId",
					"type": "uint256"
				}
			],
			"name": "cancelProposal",
			"outputs": [],
			"stateMutability": "nonpayable",
			"type": "function"
		},
		{
			"inputs": [],
			"name": "compliance",
			"outputs": [
				{
					"internalType": "address",
					"name": "",
					"type": "address"
				}
			],
			"stateMutability": "pure",
			"type": "function"
		},
		{
			"inputs": [],
			"name": "contractPaused",
			"outputs": [
				{
					"internalType": "bool",
					"name": "",
					"type": "bool"
				}
			],
			"stateMutability": "view",
			"type": "function"
		},
		{
			"inputs": [],
			"name": "decimals",
			"outputs": [
				{
					"internalType": "uint8",
					"name": "",
					"type": "uint8"
				}
			],
			"stateMutability": "view",
			"type": "function"
		},
		{
			"inputs": [
				{
					"internalType": "address",
					"name": "tokenAddress",
					"type": "address"
				},
				{
					"internalType": "address",
					"name": "target",
					"type": "address"
				},
				{
					"internalType": "uint256",
					"name": "amount",
					"type": "uint256"
				},
				{
					"internalType": "uint8",
					"name": "tokenDecimals",
					"type": "uint8"
				},
				{
					"internalType": "uint256",
					"name": "exchangeRate",
					"type": "uint256"
				}
			],
			"name": "deposit",
			"outputs": [
				{
					"internalType": "bool",
					"name": "success",
					"type": "bool"
				}
			],
			"stateMutability": "nonpayable",
			"type": "function"
		},
		{
			"inputs": [],
			"name": "distributeToWhitelist",
			"outputs": [],
			"stateMutability": "nonpayable",
			"type": "function"
		},
		{
			"inputs": [
				{
					"internalType": "uint256",
					"name": "inputAmount",
					"type": "uint256"
				},
				{
					"internalType": "address",
					"name": "targetAddress",
					"type": "address"
				}
			],
			"name": "exchange",
			"outputs": [],
			"stateMutability": "nonpayable",
			"type": "function"
		},
		{
			"inputs": [
				{
					"internalType": "uint256",
					"name": "proposalId",
					"type": "uint256"
				}
			],
			"name": "executeProposal",
			"outputs": [],
			"stateMutability": "nonpayable",
			"type": "function"
		},
		{
			"inputs": [
				{
					"internalType": "address",
					"name": "",
					"type": "address"
				}
			],
			"name": "frozen",
			"outputs": [
				{
					"internalType": "bool",
					"name": "",
					"type": "bool"
				}
			],
			"stateMutability": "view",
			"type": "function"
		},
		{
			"inputs": [],
			"name": "getActiveProposals",
			"outputs": [
				{
					"internalType": "uint256[]",
					"name": "ids",
					"type": "uint256[]"
				}
			],
			"stateMutability": "view",
			"type": "function"
		},
		{
			"inputs": [],
			"name": "getProposalCount",
			"outputs": [
				{
					"internalType": "uint256",
					"name": "",
					"type": "uint256"
				}
			],
			"stateMutability": "view",
			"type": "function"
		},
		{
			"inputs": [],
			"name": "getWhitelistCheckEnabled",
			"outputs": [
				{
					"internalType": "bool",
					"name": "",
					"type": "bool"
				}
			],
			"stateMutability": "view",
			"type": "function"
		},
		{
			"inputs": [
				{
					"internalType": "uint256",
					"name": "",
					"type": "uint256"
				},
				{
					"internalType": "address",
					"name": "",
					"type": "address"
				}
			],
			"name": "hasVoted",
			"outputs": [
				{
					"internalType": "bool",
					"name": "",
					"type": "bool"
				}
			],
			"stateMutability": "view",
			"type": "function"
		},
		{
			"inputs": [],
			"name": "identityRegistry",
			"outputs": [
				{
					"internalType": "address",
					"name": "",
					"type": "address"
				}
			],
			"stateMutability": "pure",
			"type": "function"
		},
		{
			"inputs": [
				{
					"internalType": "address",
					"name": "userAddress",
					"type": "address"
				}
			],
			"name": "isFrozen",
			"outputs": [
				{
					"internalType": "bool",
					"name": "",
					"type": "bool"
				}
			],
			"stateMutability": "view",
			"type": "function"
		},
		{
			"inputs": [],
			"name": "lastAutoBatchMintTimestamp",
			"outputs": [
				{
					"internalType": "uint256",
					"name": "",
					"type": "uint256"
				}
			],
			"stateMutability": "view",
			"type": "function"
		},
		{
			"inputs": [],
			"name": "lastDistributionTimestamp",
			"outputs": [
				{
					"internalType": "uint256",
					"name": "",
					"type": "uint256"
				}
			],
			"stateMutability": "view",
			"type": "function"
		},
		{
			"inputs": [
				{
					"internalType": "address[]",
					"name": "whitelistAddresses",
					"type": "address[]"
				}
			],
			"name": "manualBatchMintToWhitelist",
			"outputs": [],
			"stateMutability": "nonpayable",
			"type": "function"
		},
		{
			"inputs": [],
			"name": "mintedAmount",
			"outputs": [
				{
					"internalType": "uint256",
					"name": "",
					"type": "uint256"
				}
			],
			"stateMutability": "view",
			"type": "function"
		},
		{
			"inputs": [],
			"name": "name",
			"outputs": [
				{
					"internalType": "string",
					"name": "",
					"type": "string"
				}
			],
			"stateMutability": "view",
			"type": "function"
		},
		{
			"inputs": [],
			"name": "onchainID",
			"outputs": [
				{
					"internalType": "address",
					"name": "",
					"type": "address"
				}
			],
			"stateMutability": "view",
			"type": "function"
		},
		{
			"inputs": [],
			"name": "owner",
			"outputs": [
				{
					"internalType": "address",
					"name": "",
					"type": "address"
				}
			],
			"stateMutability": "view",
			"type": "function"
		},
		{
			"inputs": [],
			"name": "pauseContract",
			"outputs": [],
			"stateMutability": "nonpayable",
			"type": "function"
		},
		{
			"inputs": [],
			"name": "pauseVoting",
			"outputs": [],
			"stateMutability": "nonpayable",
			"type": "function"
		},
		{
			"inputs": [],
			"name": "paused",
			"outputs": [
				{
					"internalType": "bool",
					"name": "",
					"type": "bool"
				}
			],
			"stateMutability": "view",
			"type": "function"
		},
		{
			"inputs": [
				{
					"internalType": "uint256",
					"name": "",
					"type": "uint256"
				}
			],
			"name": "proposals",
			"outputs": [
				{
					"internalType": "enum CCKToken.ProposalType",
					"name": "proposalType",
					"type": "uint8"
				},
				{
					"internalType": "address",
					"name": "initiator",
					"type": "address"
				},
				{
					"internalType": "uint256",
					"name": "voteCount",
					"type": "uint256"
				},
				{
					"internalType": "uint256",
					"name": "timestamp",
					"type": "uint256"
				},
				{
					"internalType": "address",
					"name": "target",
					"type": "address"
				},
				{
					"internalType": "uint256",
					"name": "value",
					"type": "uint256"
				},
				{
					"internalType": "string",
					"name": "name",
					"type": "string"
				},
				{
					"internalType": "bool",
					"name": "active",
					"type": "bool"
				}
			],
			"stateMutability": "view",
			"type": "function"
		},
		{
			"inputs": [
				{
					"internalType": "enum CCKToken.ProposalType",
					"name": "proposalType",
					"type": "uint8"
				},
				{
					"internalType": "address",
					"name": "target",
					"type": "address"
				},
				{
					"internalType": "uint256",
					"name": "value",
					"type": "uint256"
				},
				{
					"internalType": "string",
					"name": "name",
					"type": "string"
				},
				{
					"internalType": "address[]",
					"name": "oldVoters",
					"type": "address[]"
				},
				{
					"internalType": "address[]",
					"name": "newVoters",
					"type": "address[]"
				}
			],
			"name": "propose",
			"outputs": [],
			"stateMutability": "nonpayable",
			"type": "function"
		},
		{
			"inputs": [],
			"name": "remainingSupply",
			"outputs": [
				{
					"internalType": "uint256",
					"name": "",
					"type": "uint256"
				}
			],
			"stateMutability": "view",
			"type": "function"
		},
		{
			"inputs": [],
			"name": "renounceOwnership",
			"outputs": [],
			"stateMutability": "nonpayable",
			"type": "function"
		},
		{
			"inputs": [],
			"name": "resumeContract",
			"outputs": [],
			"stateMutability": "nonpayable",
			"type": "function"
		},
		{
			"inputs": [],
			"name": "resumeVoting",
			"outputs": [],
			"stateMutability": "nonpayable",
			"type": "function"
		},
		{
			"inputs": [],
			"name": "symbol",
			"outputs": [
				{
					"internalType": "string",
					"name": "",
					"type": "string"
				}
			],
			"stateMutability": "view",
			"type": "function"
		},
		{
			"inputs": [],
			"name": "tokenName",
			"outputs": [
				{
					"internalType": "string",
					"name": "",
					"type": "string"
				}
			],
			"stateMutability": "view",
			"type": "function"
		},
		{
			"inputs": [],
			"name": "totalSupply",
			"outputs": [
				{
					"internalType": "uint256",
					"name": "",
					"type": "uint256"
				}
			],
			"stateMutability": "view",
			"type": "function"
		},
		{
			"inputs": [
				{
					"internalType": "address",
					"name": "to",
					"type": "address"
				},
				{
					"internalType": "uint256",
					"name": "amount",
					"type": "uint256"
				}
			],
			"name": "transfer",
			"outputs": [
				{
					"internalType": "bool",
					"name": "",
					"type": "bool"
				}
			],
			"stateMutability": "nonpayable",
			"type": "function"
		},
		{
			"inputs": [
				{
					"internalType": "address",
					"name": "sender",
					"type": "address"
				},
				{
					"internalType": "address",
					"name": "recipient",
					"type": "address"
				},
				{
					"internalType": "uint256",
					"name": "amount",
					"type": "uint256"
				}
			],
			"name": "transferFrom",
			"outputs": [
				{
					"internalType": "bool",
					"name": "",
					"type": "bool"
				}
			],
			"stateMutability": "nonpayable",
			"type": "function"
		},
		{
			"inputs": [
				{
					"internalType": "address",
					"name": "newOwner",
					"type": "address"
				}
			],
			"name": "transferOwnership",
			"outputs": [],
			"stateMutability": "nonpayable",
			"type": "function"
		},
		{
			"inputs": [],
			"name": "version",
			"outputs": [
				{
					"internalType": "string",
					"name": "",
					"type": "string"
				}
			],
			"stateMutability": "pure",
			"type": "function"
		},
		{
			"inputs": [
				{
					"internalType": "uint256",
					"name": "proposalId",
					"type": "uint256"
				}
			],
			"name": "vote",
			"outputs": [],
			"stateMutability": "nonpayable",
			"type": "function"
		},
		{
			"inputs": [
				{
					"internalType": "address",
					"name": "",
					"type": "address"
				}
			],
			"name": "voters",
			"outputs": [
				{
					"internalType": "bool",
					"name": "",
					"type": "bool"
				}
			],
			"stateMutability": "view",
			"type": "function"
		},
		{
			"inputs": [
				{
					"internalType": "uint256",
					"name": "",
					"type": "uint256"
				}
			],
			"name": "votersList",
			"outputs": [
				{
					"internalType": "address",
					"name": "",
					"type": "address"
				}
			],
			"stateMutability": "view",
			"type": "function"
		},
		{
			"inputs": [],
			"name": "votingPaused",
			"outputs": [
				{
					"internalType": "bool",
					"name": "",
					"type": "bool"
				}
			],
			"stateMutability": "view",
			"type": "function"
		},
		{
			"inputs": [
				{
					"internalType": "address",
					"name": "",
					"type": "address"
				}
			],
			"name": "whitelist",
			"outputs": [
				{
					"internalType": "bool",
					"name": "",
					"type": "bool"
				}
			],
			"stateMutability": "view",
			"type": "function"
		},
		{
			"inputs": [],
			"name": "whitelistCheckEnabled",
			"outputs": [
				{
					"internalType": "bool",
					"name": "",
					"type": "bool"
				}
			],
			"stateMutability": "view",
			"type": "function"
		}
	]
}